{
  "address": "0xbeb4eF1fcEa618C6ca38e3828B00f8D481EC2CC2",
  "abi": [
    {
      "inputs": [
        {
          "components": [
            {
              "internalType": "bytes",
              "name": "data",
              "type": "bytes"
            }
          ],
          "internalType": "struct inEuint32",
          "name": "_initialSupply",
          "type": "tuple"
        }
      ],
      "stateMutability": "nonpayable",
      "type": "constructor"
    },
    {
      "inputs": [],
      "name": "AllowanceOverflow",
      "type": "error"
    },
    {
      "inputs": [],
      "name": "AllowanceUnderflow",
      "type": "error"
    },
    {
      "inputs": [],
      "name": "ECDSAInvalidSignature",
      "type": "error"
    },
    {
      "inputs": [
        {
          "internalType": "uint256",
          "name": "length",
          "type": "uint256"
        }
      ],
      "name": "ECDSAInvalidSignatureLength",
      "type": "error"
    },
    {
      "inputs": [
        {
          "internalType": "bytes32",
          "name": "s",
          "type": "bytes32"
        }
      ],
      "name": "ECDSAInvalidSignatureS",
      "type": "error"
    },
    {
      "inputs": [
        {
          "internalType": "address",
          "name": "",
          "type": "address"
        }
      ],
      "name": "ERC20InvalidApprover",
      "type": "error"
    },
    {
      "inputs": [
        {
          "internalType": "address",
          "name": "",
          "type": "address"
        }
      ],
      "name": "ERC20InvalidSpender",
      "type": "error"
    },
    {
      "inputs": [],
      "name": "ErrorInsufficientFunds",
      "type": "error"
    },
    {
      "inputs": [],
      "name": "InsufficientAllowance",
      "type": "error"
    },
    {
      "inputs": [],
      "name": "InsufficientBalance",
      "type": "error"
    },
    {
      "inputs": [],
      "name": "InvalidPermit",
      "type": "error"
    },
    {
      "inputs": [],
      "name": "InvalidShortString",
      "type": "error"
    },
    {
      "inputs": [],
      "name": "PermitExpired",
      "type": "error"
    },
    {
      "inputs": [],
      "name": "SignerNotMessageSender",
      "type": "error"
    },
    {
      "inputs": [],
      "name": "SignerNotOwner",
      "type": "error"
    },
    {
      "inputs": [
        {
          "internalType": "string",
          "name": "str",
          "type": "string"
        }
      ],
      "name": "StringTooLong",
      "type": "error"
    },
    {
      "inputs": [],
      "name": "TotalSupplyOverflow",
      "type": "error"
    },
    {
      "anonymous": false,
      "inputs": [
        {
          "indexed": true,
          "internalType": "address",
          "name": "owner",
          "type": "address"
        },
        {
          "indexed": true,
          "internalType": "address",
          "name": "spender",
          "type": "address"
        },
        {
          "indexed": false,
          "internalType": "uint256",
          "name": "amount",
          "type": "uint256"
        }
      ],
      "name": "Approval",
      "type": "event"
    },
    {
      "anonymous": false,
      "inputs": [
        {
          "indexed": true,
          "internalType": "address",
          "name": "owner",
          "type": "address"
        },
        {
          "indexed": true,
          "internalType": "address",
          "name": "spender",
          "type": "address"
        }
      ],
      "name": "ApprovalEncrypted",
      "type": "event"
    },
    {
      "anonymous": false,
      "inputs": [],
      "name": "EIP712DomainChanged",
      "type": "event"
    },
    {
      "anonymous": false,
      "inputs": [
        {
          "indexed": true,
          "internalType": "address",
          "name": "from",
          "type": "address"
        },
        {
          "indexed": true,
          "internalType": "address",
          "name": "to",
          "type": "address"
        },
        {
          "indexed": false,
          "internalType": "uint256",
          "name": "amount",
          "type": "uint256"
        }
      ],
      "name": "Transfer",
      "type": "event"
    },
    {
      "anonymous": false,
      "inputs": [
        {
          "indexed": true,
          "internalType": "address",
          "name": "from",
          "type": "address"
        },
        {
          "indexed": true,
          "internalType": "address",
          "name": "to",
          "type": "address"
        }
      ],
      "name": "TransferEncrypted",
      "type": "event"
    },
    {
      "inputs": [],
      "name": "DOMAIN_SEPARATOR",
      "outputs": [
        {
          "internalType": "bytes32",
          "name": "result",
          "type": "bytes32"
        }
      ],
      "stateMutability": "view",
      "type": "function"
    },
    {
      "inputs": [
        {
          "internalType": "address",
          "name": "owner",
          "type": "address"
        },
        {
          "internalType": "address",
          "name": "spender",
          "type": "address"
        }
      ],
      "name": "allowance",
      "outputs": [
        {
          "internalType": "uint256",
          "name": "result",
          "type": "uint256"
        }
      ],
      "stateMutability": "view",
      "type": "function"
    },
    {
      "inputs": [
        {
          "internalType": "address",
          "name": "spender",
          "type": "address"
        },
        {
          "components": [
            {
              "internalType": "bytes32",
              "name": "publicKey",
              "type": "bytes32"
            },
            {
              "internalType": "bytes",
              "name": "signature",
              "type": "bytes"
            }
          ],
          "internalType": "struct Permission",
          "name": "permission",
          "type": "tuple"
        }
      ],
      "name": "allowanceEncrypted",
      "outputs": [
        {
          "internalType": "string",
          "name": "",
          "type": "string"
        }
      ],
      "stateMutability": "view",
      "type": "function"
    },
    {
      "inputs": [
        {
          "internalType": "address",
          "name": "spender",
          "type": "address"
        },
        {
          "internalType": "uint256",
          "name": "amount",
          "type": "uint256"
        }
      ],
      "name": "approve",
      "outputs": [
        {
          "internalType": "bool",
          "name": "",
          "type": "bool"
        }
      ],
      "stateMutability": "nonpayable",
      "type": "function"
    },
    {
      "inputs": [
        {
          "internalType": "address",
          "name": "spender",
          "type": "address"
        },
        {
          "components": [
            {
              "internalType": "bytes",
              "name": "data",
              "type": "bytes"
            }
          ],
          "internalType": "struct inEuint32",
          "name": "value",
          "type": "tuple"
        }
      ],
      "name": "approveEncrypted",
      "outputs": [
        {
          "internalType": "bool",
          "name": "",
          "type": "bool"
        }
      ],
      "stateMutability": "nonpayable",
      "type": "function"
    },
    {
      "inputs": [
        {
          "internalType": "address",
          "name": "owner",
          "type": "address"
        }
      ],
      "name": "balanceOf",
      "outputs": [
        {
          "internalType": "uint256",
          "name": "result",
          "type": "uint256"
        }
      ],
      "stateMutability": "view",
      "type": "function"
    },
    {
      "inputs": [
        {
          "internalType": "address",
          "name": "account",
          "type": "address"
        },
        {
          "components": [
            {
              "internalType": "bytes32",
              "name": "publicKey",
              "type": "bytes32"
            },
            {
              "internalType": "bytes",
              "name": "signature",
              "type": "bytes"
            }
          ],
          "internalType": "struct Permission",
          "name": "auth",
          "type": "tuple"
        }
      ],
      "name": "balanceOfEncrypted",
      "outputs": [
        {
          "internalType": "string",
          "name": "",
          "type": "string"
        }
      ],
      "stateMutability": "view",
      "type": "function"
    },
    {
      "inputs": [],
      "name": "decimals",
      "outputs": [
        {
          "internalType": "uint8",
          "name": "",
          "type": "uint8"
        }
      ],
      "stateMutability": "pure",
      "type": "function"
    },
    {
      "inputs": [],
      "name": "eip712Domain",
      "outputs": [
        {
          "internalType": "bytes1",
          "name": "fields",
          "type": "bytes1"
        },
        {
          "internalType": "string",
          "name": "name",
          "type": "string"
        },
        {
          "internalType": "string",
          "name": "version",
          "type": "string"
        },
        {
          "internalType": "uint256",
          "name": "chainId",
          "type": "uint256"
        },
        {
          "internalType": "address",
          "name": "verifyingContract",
          "type": "address"
        },
        {
          "internalType": "bytes32",
          "name": "salt",
          "type": "bytes32"
        },
        {
          "internalType": "uint256[]",
          "name": "extensions",
          "type": "uint256[]"
        }
      ],
      "stateMutability": "view",
      "type": "function"
    },
    {
      "inputs": [],
      "name": "name",
      "outputs": [
        {
          "internalType": "string",
          "name": "",
          "type": "string"
        }
      ],
      "stateMutability": "view",
      "type": "function"
    },
    {
      "inputs": [
        {
          "internalType": "address",
          "name": "owner",
          "type": "address"
        }
      ],
      "name": "nonces",
      "outputs": [
        {
          "internalType": "uint256",
          "name": "result",
          "type": "uint256"
        }
      ],
      "stateMutability": "view",
      "type": "function"
    },
    {
      "inputs": [
        {
          "internalType": "address",
          "name": "owner",
          "type": "address"
        },
        {
          "internalType": "address",
          "name": "spender",
          "type": "address"
        },
        {
          "internalType": "uint256",
          "name": "value",
          "type": "uint256"
        },
        {
          "internalType": "uint256",
          "name": "deadline",
          "type": "uint256"
        },
        {
          "internalType": "uint8",
          "name": "v",
          "type": "uint8"
        },
        {
          "internalType": "bytes32",
          "name": "r",
          "type": "bytes32"
        },
        {
          "internalType": "bytes32",
          "name": "s",
          "type": "bytes32"
        }
      ],
      "name": "permit",
      "outputs": [],
      "stateMutability": "nonpayable",
      "type": "function"
    },
    {
      "inputs": [],
      "name": "symbol",
      "outputs": [
        {
          "internalType": "string",
          "name": "",
          "type": "string"
        }
      ],
      "stateMutability": "view",
      "type": "function"
    },
    {
      "inputs": [],
      "name": "totalSupply",
      "outputs": [
        {
          "internalType": "uint256",
          "name": "result",
          "type": "uint256"
        }
      ],
      "stateMutability": "view",
      "type": "function"
    },
    {
      "inputs": [
        {
          "internalType": "address",
          "name": "to",
          "type": "address"
        },
        {
          "internalType": "uint256",
          "name": "amount",
          "type": "uint256"
        }
      ],
      "name": "transfer",
      "outputs": [
        {
          "internalType": "bool",
          "name": "",
          "type": "bool"
        }
      ],
      "stateMutability": "nonpayable",
      "type": "function"
    },
    {
      "inputs": [
        {
          "internalType": "address",
          "name": "to",
          "type": "address"
        },
        {
          "components": [
            {
              "internalType": "bytes",
              "name": "data",
              "type": "bytes"
            }
          ],
          "internalType": "struct inEuint32",
          "name": "encryptedAmount",
          "type": "tuple"
        }
      ],
      "name": "transferEncrypted",
      "outputs": [
        {
          "internalType": "euint32",
          "name": "",
          "type": "uint256"
        }
      ],
      "stateMutability": "nonpayable",
      "type": "function"
    },
    {
      "inputs": [
        {
          "internalType": "address",
          "name": "to",
          "type": "address"
        },
        {
          "internalType": "euint32",
          "name": "amount",
          "type": "uint256"
        }
      ],
      "name": "transferEncrypted",
      "outputs": [
        {
          "internalType": "euint32",
          "name": "",
          "type": "uint256"
        }
      ],
      "stateMutability": "nonpayable",
      "type": "function"
    },
    {
      "inputs": [
        {
          "internalType": "address",
          "name": "from",
          "type": "address"
        },
        {
          "internalType": "address",
          "name": "to",
          "type": "address"
        },
        {
          "internalType": "uint256",
          "name": "amount",
          "type": "uint256"
        }
      ],
      "name": "transferFrom",
      "outputs": [
        {
          "internalType": "bool",
          "name": "",
          "type": "bool"
        }
      ],
      "stateMutability": "nonpayable",
      "type": "function"
    },
    {
      "inputs": [
        {
          "internalType": "address",
          "name": "from",
          "type": "address"
        },
        {
          "internalType": "address",
          "name": "to",
          "type": "address"
        },
        {
          "components": [
            {
              "internalType": "bytes",
              "name": "data",
              "type": "bytes"
            }
          ],
          "internalType": "struct inEuint32",
          "name": "value",
          "type": "tuple"
        }
      ],
      "name": "transferFromEncrypted",
      "outputs": [
        {
          "internalType": "euint32",
          "name": "",
          "type": "uint256"
        }
      ],
      "stateMutability": "nonpayable",
      "type": "function"
    },
    {
      "inputs": [
        {
          "internalType": "address",
          "name": "from",
          "type": "address"
        },
        {
          "internalType": "address",
          "name": "to",
          "type": "address"
        },
        {
          "internalType": "euint32",
          "name": "value",
          "type": "uint256"
        }
      ],
      "name": "transferFromEncrypted",
      "outputs": [
        {
          "internalType": "euint32",
          "name": "",
          "type": "uint256"
        }
      ],
      "stateMutability": "nonpayable",
      "type": "function"
    },
    {
      "inputs": [
        {
          "internalType": "uint32",
          "name": "amount",
          "type": "uint32"
        }
      ],
      "name": "unwrap",
      "outputs": [],
      "stateMutability": "nonpayable",
      "type": "function"
    },
    {
      "inputs": [
        {
          "internalType": "uint32",
          "name": "amount",
          "type": "uint32"
        }
      ],
      "name": "wrap",
      "outputs": [],
      "stateMutability": "nonpayable",
      "type": "function"
    }
  ],
  "transactionHash": "0x347fff2785b30c8960d2d5c189022e0e6874a5556f4ed7659d841b905070acfb",
  "args": [
    {
      "data": {
        "0": 16,
        "1": 8,
        "2": 0,
        "3": 0,
        "4": 0,
        "5": 0,
        "6": 0,
        "7": 0,
        "8": 78,
        "9": 227,
        "10": 17,
        "11": 12,
        "12": 145,
        "13": 57,
        "14": 53,
        "15": 115,
        "16": 89,
        "17": 128,
        "18": 220,
        "19": 242,
        "20": 24,
        "21": 243,
        "22": 5,
        "23": 191,
        "24": 244,
        "25": 204,
        "26": 184,
        "27": 7,
        "28": 29,
        "29": 74,
        "30": 83,
        "31": 199,
        "32": 234,
        "33": 229,
        "34": 239,
        "35": 83,
        "36": 35,
        "37": 151,
        "38": 183,
        "39": 254,
        "40": 243,
        "41": 193,
        "42": 47,
        "43": 158,
        "44": 20,
        "45": 253,
        "46": 207,
        "47": 114,
        "48": 233,
        "49": 30,
        "50": 118,
        "51": 37,
        "52": 135,
        "53": 149,
        "54": 4,
        "55": 188,
        "56": 86,
        "57": 182,
        "58": 106,
        "59": 142,
        "60": 89,
        "61": 224,
        "62": 130,
        "63": 30,
        "64": 9,
        "65": 155,
        "66": 225,
        "67": 88,
        "68": 22,
        "69": 54,
        "70": 228,
        "71": 2,
        "72": 11,
        "73": 252,
        "74": 47,
        "75": 137,
        "76": 127,
        "77": 22,
        "78": 254,
        "79": 24,
        "80": 96,
        "81": 91,
        "82": 108,
        "83": 223,
        "84": 213,
        "85": 138,
        "86": 79,
        "87": 144,
        "88": 108,
        "89": 248,
        "90": 148,
        "91": 92,
        "92": 118,
        "93": 127,
        "94": 48,
        "95": 166,
        "96": 155,
        "97": 95,
        "98": 29,
        "99": 179,
        "100": 200,
        "101": 2,
        "102": 37,
        "103": 28,
        "104": 35,
        "105": 216,
        "106": 45,
        "107": 143,
        "108": 62,
        "109": 253,
        "110": 46,
        "111": 93,
        "112": 248,
        "113": 170,
        "114": 97,
        "115": 16,
        "116": 193,
        "117": 48,
        "118": 237,
        "119": 201,
        "120": 53,
        "121": 151,
        "122": 146,
        "123": 120,
        "124": 177,
        "125": 139,
        "126": 248,
        "127": 125,
        "128": 59,
        "129": 229,
        "130": 19,
        "131": 106,
        "132": 167,
        "133": 113,
        "134": 224,
        "135": 122,
        "136": 197,
        "137": 165,
        "138": 190,
        "139": 64,
        "140": 0,
        "141": 51,
        "142": 104,
        "143": 135,
        "144": 81,
        "145": 195,
        "146": 254,
        "147": 38,
        "148": 66,
        "149": 147,
        "150": 183,
        "151": 189,
        "152": 163,
        "153": 21,
        "154": 230,
        "155": 108,
        "156": 125,
        "157": 117,
        "158": 159,
        "159": 32,
        "160": 207,
        "161": 163,
        "162": 98,
        "163": 103,
        "164": 25,
        "165": 149,
        "166": 236,
        "167": 61,
        "168": 74,
        "169": 158,
        "170": 62,
        "171": 218,
        "172": 228,
        "173": 99,
        "174": 190,
        "175": 73,
        "176": 122,
        "177": 46,
        "178": 181,
        "179": 138,
        "180": 28,
        "181": 111,
        "182": 133,
        "183": 191,
        "184": 242,
        "185": 92,
        "186": 126,
        "187": 140,
        "188": 230,
        "189": 224,
        "190": 86,
        "191": 249,
        "192": 178,
        "193": 168,
        "194": 70,
        "195": 32,
        "196": 102,
        "197": 119,
        "198": 163,
        "199": 1,
        "200": 209,
        "201": 241,
        "202": 114,
        "203": 186,
        "204": 113,
        "205": 170,
        "206": 29,
        "207": 188,
        "208": 162,
        "209": 130,
        "210": 8,
        "211": 146,
        "212": 12,
        "213": 124,
        "214": 185,
        "215": 212,
        "216": 237,
        "217": 42,
        "218": 108,
        "219": 56,
        "220": 103,
        "221": 216,
        "222": 26,
        "223": 90,
        "224": 175,
        "225": 64,
        "226": 65,
        "227": 109,
        "228": 20,
        "229": 145,
        "230": 41,
        "231": 57,
        "232": 242,
        "233": 20,
        "234": 23,
        "235": 216,
        "236": 55,
        "237": 55,
        "238": 175,
        "239": 195,
        "240": 212,
        "241": 33,
        "242": 227,
        "243": 205,
        "244": 64,
        "245": 24,
        "246": 86,
        "247": 118,
        "248": 14,
        "249": 133,
        "250": 204,
        "251": 142,
        "252": 11,
        "253": 142,
        "254": 21,
        "255": 103,
        "256": 230,
        "257": 33,
        "258": 11,
        "259": 10,
        "260": 47,
        "261": 225,
        "262": 38,
        "263": 161,
        "264": 222,
        "265": 211,
        "266": 250,
        "267": 232,
        "268": 149,
        "269": 65,
        "270": 2,
        "271": 8,
        "272": 194,
        "273": 0,
        "274": 142,
        "275": 91,
        "276": 128,
        "277": 215,
        "278": 172,
        "279": 129,
        "280": 66,
        "281": 118,
        "282": 18,
        "283": 92,
        "284": 184,
        "285": 52,
        "286": 176,
        "287": 123,
        "288": 125,
        "289": 234,
        "290": 202,
        "291": 202,
        "292": 4,
        "293": 100,
        "294": 52,
        "295": 243,
        "296": 125,
        "297": 65,
        "298": 212,
        "299": 19,
        "300": 38,
        "301": 218,
        "302": 62,
        "303": 168,
        "304": 82,
        "305": 4,
        "306": 235,
        "307": 195,
        "308": 53,
        "309": 216,
        "310": 145,
        "311": 130,
        "312": 102,
        "313": 102,
        "314": 248,
        "315": 233,
        "316": 185,
        "317": 185,
        "318": 239,
        "319": 42,
        "320": 125,
        "321": 219,
        "322": 227,
        "323": 71,
        "324": 174,
        "325": 9,
        "326": 55,
        "327": 7,
        "328": 209,
        "329": 170,
        "330": 66,
        "331": 11,
        "332": 248,
        "333": 236,
        "334": 68,
        "335": 44,
        "336": 220,
        "337": 145,
        "338": 162,
        "339": 79,
        "340": 38,
        "341": 163,
        "342": 175,
        "343": 217,
        "344": 122,
        "345": 238,
        "346": 185,
        "347": 104,
        "348": 68,
        "349": 20,
        "350": 199,
        "351": 242,
        "352": 225,
        "353": 107,
        "354": 141,
        "355": 107,
        "356": 121,
        "357": 144,
        "358": 81,
        "359": 254,
        "360": 133,
        "361": 60,
        "362": 100,
        "363": 146,
        "364": 158,
        "365": 215,
        "366": 238,
        "367": 183,
        "368": 185,
        "369": 227,
        "370": 43,
        "371": 169,
        "372": 238,
        "373": 227,
        "374": 159,
        "375": 212,
        "376": 41,
        "377": 132,
        "378": 97,
        "379": 110,
        "380": 17,
        "381": 147,
        "382": 67,
        "383": 251,
        "384": 221,
        "385": 168,
        "386": 107,
        "387": 199,
        "388": 234,
        "389": 1,
        "390": 109,
        "391": 165,
        "392": 248,
        "393": 177,
        "394": 159,
        "395": 227,
        "396": 99,
        "397": 45,
        "398": 118,
        "399": 235,
        "400": 239,
        "401": 195,
        "402": 197,
        "403": 118,
        "404": 140,
        "405": 60,
        "406": 77,
        "407": 122,
        "408": 85,
        "409": 205,
        "410": 36,
        "411": 248,
        "412": 175,
        "413": 226,
        "414": 48,
        "415": 142,
        "416": 55,
        "417": 141,
        "418": 0,
        "419": 75,
        "420": 11,
        "421": 10,
        "422": 94,
        "423": 35,
        "424": 91,
        "425": 188,
        "426": 195,
        "427": 124,
        "428": 157,
        "429": 4,
        "430": 177,
        "431": 147,
        "432": 5,
        "433": 130,
        "434": 148,
        "435": 55,
        "436": 191,
        "437": 157,
        "438": 80,
        "439": 78,
        "440": 29,
        "441": 191,
        "442": 51,
        "443": 124,
        "444": 231,
        "445": 236,
        "446": 178,
        "447": 160,
        "448": 199,
        "449": 2,
        "450": 19,
        "451": 139,
        "452": 5,
        "453": 220,
        "454": 219,
        "455": 55,
        "456": 252,
        "457": 238,
        "458": 161,
        "459": 34,
        "460": 32,
        "461": 228,
        "462": 176,
        "463": 113,
        "464": 51,
        "465": 93,
        "466": 40,
        "467": 102,
        "468": 152,
        "469": 79,
        "470": 36,
        "471": 129,
        "472": 13,
        "473": 57,
        "474": 197,
        "475": 160,
        "476": 154,
        "477": 13,
        "478": 89,
        "479": 24,
        "480": 58,
        "481": 77,
        "482": 192,
        "483": 167,
        "484": 234,
        "485": 173,
        "486": 28,
        "487": 199,
        "488": 250,
        "489": 192,
        "490": 22,
        "491": 76,
        "492": 248,
        "493": 124,
        "494": 88,
        "495": 98,
        "496": 138,
        "497": 1,
        "498": 89,
        "499": 12,
        "500": 155,
        "501": 141,
        "502": 55,
        "503": 50,
        "504": 155,
        "505": 209,
        "506": 75,
        "507": 250,
        "508": 225,
        "509": 251,
        "510": 38,
        "511": 247,
        "512": 1,
        "513": 192,
        "514": 72,
        "515": 100,
        "516": 60,
        "517": 11,
        "518": 37,
        "519": 181,
        "520": 112,
        "521": 249,
        "522": 58,
        "523": 214,
        "524": 208,
        "525": 216,
        "526": 251,
        "527": 43,
        "528": 90,
        "529": 170,
        "530": 156,
        "531": 68,
        "532": 58,
        "533": 72,
        "534": 223,
        "535": 62,
        "536": 226,
        "537": 80,
        "538": 118,
        "539": 192,
        "540": 29,
        "541": 129,
        "542": 126,
        "543": 123,
        "544": 30,
        "545": 70,
        "546": 239,
        "547": 97,
        "548": 225,
        "549": 172,
        "550": 241,
        "551": 17,
        "552": 44,
        "553": 110,
        "554": 12,
        "555": 251,
        "556": 191,
        "557": 240,
        "558": 196,
        "559": 72,
        "560": 12,
        "561": 24,
        "562": 211,
        "563": 173,
        "564": 33,
        "565": 160,
        "566": 51,
        "567": 220,
        "568": 182,
        "569": 204,
        "570": 227,
        "571": 3,
        "572": 248,
        "573": 221,
        "574": 2,
        "575": 136,
        "576": 187,
        "577": 162,
        "578": 222,
        "579": 147,
        "580": 236,
        "581": 55,
        "582": 46,
        "583": 147,
        "584": 168,
        "585": 158,
        "586": 100,
        "587": 159,
        "588": 231,
        "589": 31,
        "590": 8,
        "591": 131,
        "592": 37,
        "593": 81,
        "594": 33,
        "595": 41,
        "596": 153,
        "597": 23,
        "598": 142,
        "599": 11,
        "600": 164,
        "601": 26,
        "602": 71,
        "603": 17,
        "604": 235,
        "605": 247,
        "606": 152,
        "607": 143,
        "608": 111,
        "609": 207,
        "610": 145,
        "611": 147,
        "612": 1,
        "613": 162,
        "614": 83,
        "615": 106,
        "616": 65,
        "617": 115,
        "618": 136,
        "619": 135,
        "620": 103,
        "621": 220,
        "622": 128,
        "623": 222,
        "624": 30,
        "625": 179,
        "626": 242,
        "627": 103,
        "628": 82,
        "629": 227,
        "630": 143,
        "631": 253,
        "632": 204,
        "633": 166,
        "634": 242,
        "635": 214,
        "636": 132,
        "637": 46,
        "638": 53,
        "639": 87,
        "640": 225,
        "641": 83,
        "642": 4,
        "643": 166,
        "644": 218,
        "645": 78,
        "646": 188,
        "647": 97,
        "648": 193,
        "649": 82,
        "650": 135,
        "651": 61,
        "652": 222,
        "653": 81,
        "654": 189,
        "655": 7,
        "656": 195,
        "657": 23,
        "658": 163,
        "659": 141,
        "660": 240,
        "661": 165,
        "662": 108,
        "663": 251,
        "664": 202,
        "665": 103,
        "666": 224,
        "667": 111,
        "668": 124,
        "669": 151,
        "670": 225,
        "671": 30,
        "672": 147,
        "673": 34,
        "674": 203,
        "675": 31,
        "676": 92,
        "677": 237,
        "678": 14,
        "679": 46,
        "680": 174,
        "681": 133,
        "682": 171,
        "683": 252,
        "684": 168,
        "685": 251,
        "686": 142,
        "687": 121,
        "688": 98,
        "689": 247,
        "690": 3,
        "691": 218,
        "692": 1,
        "693": 131,
        "694": 224,
        "695": 91,
        "696": 205,
        "697": 102,
        "698": 131,
        "699": 132,
        "700": 51,
        "701": 222,
        "702": 172,
        "703": 99,
        "704": 143,
        "705": 34,
        "706": 26,
        "707": 171,
        "708": 204,
        "709": 105,
        "710": 252,
        "711": 100,
        "712": 65,
        "713": 48,
        "714": 142,
        "715": 155,
        "716": 105,
        "717": 64,
        "718": 222,
        "719": 245,
        "720": 191,
        "721": 38,
        "722": 243,
        "723": 167,
        "724": 96,
        "725": 154,
        "726": 98,
        "727": 232,
        "728": 196,
        "729": 215,
        "730": 21,
        "731": 46,
        "732": 84,
        "733": 82,
        "734": 160,
        "735": 196,
        "736": 10,
        "737": 36,
        "738": 223,
        "739": 193,
        "740": 111,
        "741": 195,
        "742": 227,
        "743": 26,
        "744": 224,
        "745": 22,
        "746": 25,
        "747": 148,
        "748": 231,
        "749": 142,
        "750": 206,
        "751": 85,
        "752": 171,
        "753": 24,
        "754": 43,
        "755": 149,
        "756": 210,
        "757": 227,
        "758": 181,
        "759": 168,
        "760": 232,
        "761": 255,
        "762": 22,
        "763": 63,
        "764": 126,
        "765": 1,
        "766": 184,
        "767": 246,
        "768": 246,
        "769": 40,
        "770": 59,
        "771": 29,
        "772": 75,
        "773": 215,
        "774": 236,
        "775": 47,
        "776": 188,
        "777": 113,
        "778": 166,
        "779": 189,
        "780": 93,
        "781": 142,
        "782": 254,
        "783": 141,
        "784": 163,
        "785": 221,
        "786": 216,
        "787": 43,
        "788": 29,
        "789": 15,
        "790": 126,
        "791": 214,
        "792": 204,
        "793": 41,
        "794": 212,
        "795": 197,
        "796": 213,
        "797": 135,
        "798": 161,
        "799": 130,
        "800": 172,
        "801": 253,
        "802": 37,
        "803": 75,
        "804": 199,
        "805": 187,
        "806": 134,
        "807": 203,
        "808": 23,
        "809": 151,
        "810": 70,
        "811": 222,
        "812": 97,
        "813": 31,
        "814": 193,
        "815": 128,
        "816": 0,
        "817": 120,
        "818": 169,
        "819": 218,
        "820": 222,
        "821": 216,
        "822": 91,
        "823": 169,
        "824": 31,
        "825": 131,
        "826": 215,
        "827": 101,
        "828": 30,
        "829": 214,
        "830": 66,
        "831": 85,
        "832": 252,
        "833": 94,
        "834": 217,
        "835": 123,
        "836": 242,
        "837": 240,
        "838": 66,
        "839": 201,
        "840": 240,
        "841": 219,
        "842": 121,
        "843": 184,
        "844": 166,
        "845": 114,
        "846": 219,
        "847": 255,
        "848": 102,
        "849": 57,
        "850": 33,
        "851": 87,
        "852": 30,
        "853": 137,
        "854": 19,
        "855": 221,
        "856": 193,
        "857": 208,
        "858": 79,
        "859": 34,
        "860": 45,
        "861": 26,
        "862": 145,
        "863": 187,
        "864": 196,
        "865": 134,
        "866": 176,
        "867": 223,
        "868": 18,
        "869": 197,
        "870": 89,
        "871": 209,
        "872": 106,
        "873": 162,
        "874": 121,
        "875": 70,
        "876": 239,
        "877": 40,
        "878": 75,
        "879": 123,
        "880": 7,
        "881": 70,
        "882": 55,
        "883": 208,
        "884": 96,
        "885": 62,
        "886": 68,
        "887": 216,
        "888": 248,
        "889": 79,
        "890": 38,
        "891": 251,
        "892": 124,
        "893": 91,
        "894": 27,
        "895": 252,
        "896": 218,
        "897": 36,
        "898": 5,
        "899": 62,
        "900": 51,
        "901": 165,
        "902": 251,
        "903": 228,
        "904": 96,
        "905": 7,
        "906": 227,
        "907": 26,
        "908": 147,
        "909": 233,
        "910": 35,
        "911": 239,
        "912": 20,
        "913": 86,
        "914": 228,
        "915": 74,
        "916": 32,
        "917": 7,
        "918": 127,
        "919": 234,
        "920": 137,
        "921": 111,
        "922": 85,
        "923": 173,
        "924": 34,
        "925": 207,
        "926": 29,
        "927": 235,
        "928": 11,
        "929": 117,
        "930": 152,
        "931": 19,
        "932": 84,
        "933": 200,
        "934": 63,
        "935": 64,
        "936": 0,
        "937": 101,
        "938": 222,
        "939": 5,
        "940": 251,
        "941": 191,
        "942": 173,
        "943": 71,
        "944": 193,
        "945": 182,
        "946": 194,
        "947": 32,
        "948": 60,
        "949": 126,
        "950": 87,
        "951": 72,
        "952": 68,
        "953": 231,
        "954": 71,
        "955": 41,
        "956": 67,
        "957": 1,
        "958": 69,
        "959": 197,
        "960": 220,
        "961": 190,
        "962": 72,
        "963": 26,
        "964": 61,
        "965": 188,
        "966": 51,
        "967": 215,
        "968": 228,
        "969": 26,
        "970": 172,
        "971": 121,
        "972": 247,
        "973": 138,
        "974": 72,
        "975": 220,
        "976": 235,
        "977": 146,
        "978": 210,
        "979": 20,
        "980": 143,
        "981": 102,
        "982": 64,
        "983": 110,
        "984": 51,
        "985": 150,
        "986": 12,
        "987": 26,
        "988": 194,
        "989": 129,
        "990": 88,
        "991": 217,
        "992": 92,
        "993": 18,
        "994": 196,
        "995": 230,
        "996": 31,
        "997": 52,
        "998": 56,
        "999": 206,
        "1000": 66,
        "1001": 90,
        "1002": 10,
        "1003": 216,
        "1004": 43,
        "1005": 19,
        "1006": 4,
        "1007": 153,
        "1008": 173,
        "1009": 224,
        "1010": 105,
        "1011": 176,
        "1012": 152,
        "1013": 5,
        "1014": 170,
        "1015": 43,
        "1016": 75,
        "1017": 201,
        "1018": 80,
        "1019": 194,
        "1020": 219,
        "1021": 109,
        "1022": 118,
        "1023": 14,
        "1024": 68,
        "1025": 196,
        "1026": 9,
        "1027": 244,
        "1028": 247,
        "1029": 76,
        "1030": 148,
        "1031": 193,
        "1032": 26,
        "1033": 77,
        "1034": 95,
        "1035": 15,
        "1036": 153,
        "1037": 178,
        "1038": 148,
        "1039": 54,
        "1040": 103,
        "1041": 54,
        "1042": 34,
        "1043": 237,
        "1044": 10,
        "1045": 101,
        "1046": 135,
        "1047": 253,
        "1048": 228,
        "1049": 61,
        "1050": 185,
        "1051": 142,
        "1052": 78,
        "1053": 18,
        "1054": 239,
        "1055": 176,
        "1056": 17,
        "1057": 116,
        "1058": 213,
        "1059": 120,
        "1060": 230,
        "1061": 100,
        "1062": 221,
        "1063": 216,
        "1064": 2,
        "1065": 251,
        "1066": 182,
        "1067": 124,
        "1068": 24,
        "1069": 167,
        "1070": 140,
        "1071": 7,
        "1072": 111,
        "1073": 46,
        "1074": 158,
        "1075": 141,
        "1076": 15,
        "1077": 71,
        "1078": 222,
        "1079": 220,
        "1080": 48,
        "1081": 31,
        "1082": 102,
        "1083": 12,
        "1084": 211,
        "1085": 185,
        "1086": 182,
        "1087": 88,
        "1088": 137,
        "1089": 119,
        "1090": 125,
        "1091": 146,
        "1092": 156,
        "1093": 134,
        "1094": 118,
        "1095": 146,
        "1096": 91,
        "1097": 229,
        "1098": 6,
        "1099": 31,
        "1100": 27,
        "1101": 203,
        "1102": 28,
        "1103": 171,
        "1104": 175,
        "1105": 218,
        "1106": 72,
        "1107": 237,
        "1108": 80,
        "1109": 106,
        "1110": 67,
        "1111": 65,
        "1112": 146,
        "1113": 153,
        "1114": 66,
        "1115": 212,
        "1116": 67,
        "1117": 26,
        "1118": 69,
        "1119": 232,
        "1120": 128,
        "1121": 69,
        "1122": 63,
        "1123": 58,
        "1124": 221,
        "1125": 121,
        "1126": 14,
        "1127": 177,
        "1128": 147,
        "1129": 151,
        "1130": 214,
        "1131": 152,
        "1132": 238,
        "1133": 253,
        "1134": 207,
        "1135": 96,
        "1136": 49,
        "1137": 129,
        "1138": 142,
        "1139": 213,
        "1140": 92,
        "1141": 100,
        "1142": 104,
        "1143": 11,
        "1144": 225,
        "1145": 204,
        "1146": 173,
        "1147": 201,
        "1148": 88,
        "1149": 93,
        "1150": 199,
        "1151": 177,
        "1152": 158,
        "1153": 235,
        "1154": 169,
        "1155": 42,
        "1156": 70,
        "1157": 92,
        "1158": 188,
        "1159": 150,
        "1160": 246,
        "1161": 124,
        "1162": 73,
        "1163": 178,
        "1164": 207,
        "1165": 188,
        "1166": 30,
        "1167": 92,
        "1168": 87,
        "1169": 238,
        "1170": 44,
        "1171": 172,
        "1172": 60,
        "1173": 128,
        "1174": 244,
        "1175": 75,
        "1176": 13,
        "1177": 215,
        "1178": 72,
        "1179": 243,
        "1180": 55,
        "1181": 221,
        "1182": 100,
        "1183": 107,
        "1184": 131,
        "1185": 244,
        "1186": 159,
        "1187": 126,
        "1188": 138,
        "1189": 133,
        "1190": 255,
        "1191": 61,
        "1192": 154,
        "1193": 190,
        "1194": 69,
        "1195": 69,
        "1196": 133,
        "1197": 28,
        "1198": 237,
        "1199": 36,
        "1200": 107,
        "1201": 140,
        "1202": 233,
        "1203": 108,
        "1204": 237,
        "1205": 25,
        "1206": 28,
        "1207": 195,
        "1208": 223,
        "1209": 122,
        "1210": 250,
        "1211": 237,
        "1212": 224,
        "1213": 219,
        "1214": 42,
        "1215": 83,
        "1216": 38,
        "1217": 143,
        "1218": 68,
        "1219": 251,
        "1220": 60,
        "1221": 14,
        "1222": 157,
        "1223": 144,
        "1224": 179,
        "1225": 70,
        "1226": 64,
        "1227": 205,
        "1228": 188,
        "1229": 214,
        "1230": 233,
        "1231": 58,
        "1232": 148,
        "1233": 123,
        "1234": 136,
        "1235": 69,
        "1236": 120,
        "1237": 69,
        "1238": 108,
        "1239": 117,
        "1240": 236,
        "1241": 146,
        "1242": 160,
        "1243": 54,
        "1244": 214,
        "1245": 163,
        "1246": 137,
        "1247": 115,
        "1248": 183,
        "1249": 236,
        "1250": 1,
        "1251": 88,
        "1252": 121,
        "1253": 19,
        "1254": 53,
        "1255": 128,
        "1256": 185,
        "1257": 186,
        "1258": 63,
        "1259": 152,
        "1260": 132,
        "1261": 107,
        "1262": 68,
        "1263": 186,
        "1264": 11,
        "1265": 104,
        "1266": 93,
        "1267": 33,
        "1268": 26,
        "1269": 204,
        "1270": 165,
        "1271": 124,
        "1272": 164,
        "1273": 1,
        "1274": 16,
        "1275": 162,
        "1276": 177,
        "1277": 121,
        "1278": 125,
        "1279": 147,
        "1280": 39,
        "1281": 98,
        "1282": 165,
        "1283": 212,
        "1284": 181,
        "1285": 89,
        "1286": 119,
        "1287": 231,
        "1288": 147,
        "1289": 98,
        "1290": 181,
        "1291": 93,
        "1292": 163,
        "1293": 42,
        "1294": 119,
        "1295": 0,
        "1296": 75,
        "1297": 148,
        "1298": 165,
        "1299": 119,
        "1300": 144,
        "1301": 199,
        "1302": 163,
        "1303": 1,
        "1304": 70,
        "1305": 253,
        "1306": 37,
        "1307": 141,
        "1308": 161,
        "1309": 118,
        "1310": 24,
        "1311": 82,
        "1312": 158,
        "1313": 223,
        "1314": 127,
        "1315": 125,
        "1316": 8,
        "1317": 8,
        "1318": 41,
        "1319": 91,
        "1320": 112,
        "1321": 127,
        "1322": 77,
        "1323": 251,
        "1324": 252,
        "1325": 244,
        "1326": 111,
        "1327": 95,
        "1328": 17,
        "1329": 231,
        "1330": 9,
        "1331": 194,
        "1332": 135,
        "1333": 51,
        "1334": 9,
        "1335": 148,
        "1336": 1,
        "1337": 52,
        "1338": 96,
        "1339": 47,
        "1340": 206,
        "1341": 143,
        "1342": 170,
        "1343": 223,
        "1344": 192,
        "1345": 235,
        "1346": 185,
        "1347": 87,
        "1348": 35,
        "1349": 142,
        "1350": 221,
        "1351": 99,
        "1352": 115,
        "1353": 87,
        "1354": 184,
        "1355": 244,
        "1356": 213,
        "1357": 55,
        "1358": 13,
        "1359": 177,
        "1360": 55,
        "1361": 19,
        "1362": 7,
        "1363": 179,
        "1364": 26,
        "1365": 216,
        "1366": 212,
        "1367": 161,
        "1368": 111,
        "1369": 46,
        "1370": 168,
        "1371": 19,
        "1372": 225,
        "1373": 140,
        "1374": 229,
        "1375": 30,
        "1376": 191,
        "1377": 91,
        "1378": 250,
        "1379": 225,
        "1380": 225,
        "1381": 115,
        "1382": 44,
        "1383": 25,
        "1384": 178,
        "1385": 240,
        "1386": 0,
        "1387": 34,
        "1388": 30,
        "1389": 92,
        "1390": 36,
        "1391": 43,
        "1392": 23,
        "1393": 152,
        "1394": 186,
        "1395": 201,
        "1396": 157,
        "1397": 24,
        "1398": 229,
        "1399": 140,
        "1400": 17,
        "1401": 139,
        "1402": 169,
        "1403": 85,
        "1404": 53,
        "1405": 190,
        "1406": 244,
        "1407": 102,
        "1408": 170,
        "1409": 30,
        "1410": 178,
        "1411": 120,
        "1412": 148,
        "1413": 7,
        "1414": 164,
        "1415": 175,
        "1416": 34,
        "1417": 41,
        "1418": 98,
        "1419": 177,
        "1420": 208,
        "1421": 41,
        "1422": 235,
        "1423": 209,
        "1424": 54,
        "1425": 253,
        "1426": 134,
        "1427": 63,
        "1428": 228,
        "1429": 156,
        "1430": 159,
        "1431": 112,
        "1432": 115,
        "1433": 36,
        "1434": 19,
        "1435": 157,
        "1436": 205,
        "1437": 103,
        "1438": 186,
        "1439": 102,
        "1440": 18,
        "1441": 5,
        "1442": 175,
        "1443": 62,
        "1444": 21,
        "1445": 87,
        "1446": 7,
        "1447": 239,
        "1448": 109,
        "1449": 223,
        "1450": 42,
        "1451": 77,
        "1452": 82,
        "1453": 223,
        "1454": 160,
        "1455": 172,
        "1456": 107,
        "1457": 190,
        "1458": 12,
        "1459": 100,
        "1460": 164,
        "1461": 165,
        "1462": 147,
        "1463": 213,
        "1464": 164,
        "1465": 36,
        "1466": 129,
        "1467": 104,
        "1468": 167,
        "1469": 107,
        "1470": 132,
        "1471": 210,
        "1472": 251,
        "1473": 40,
        "1474": 182,
        "1475": 185,
        "1476": 179,
        "1477": 68,
        "1478": 252,
        "1479": 86,
        "1480": 215,
        "1481": 238,
        "1482": 233,
        "1483": 84,
        "1484": 169,
        "1485": 66,
        "1486": 123,
        "1487": 186,
        "1488": 148,
        "1489": 116,
        "1490": 174,
        "1491": 220,
        "1492": 154,
        "1493": 41,
        "1494": 92,
        "1495": 247,
        "1496": 148,
        "1497": 76,
        "1498": 22,
        "1499": 18,
        "1500": 108,
        "1501": 225,
        "1502": 104,
        "1503": 180,
        "1504": 250,
        "1505": 231,
        "1506": 128,
        "1507": 58,
        "1508": 25,
        "1509": 215,
        "1510": 253,
        "1511": 239,
        "1512": 153,
        "1513": 144,
        "1514": 103,
        "1515": 115,
        "1516": 33,
        "1517": 248,
        "1518": 137,
        "1519": 168,
        "1520": 4,
        "1521": 63,
        "1522": 136,
        "1523": 58,
        "1524": 220,
        "1525": 235,
        "1526": 19,
        "1527": 200,
        "1528": 129,
        "1529": 191,
        "1530": 171,
        "1531": 127,
        "1532": 125,
        "1533": 244,
        "1534": 160,
        "1535": 82,
        "1536": 19,
        "1537": 8,
        "1538": 217,
        "1539": 92,
        "1540": 80,
        "1541": 124,
        "1542": 232,
        "1543": 166,
        "1544": 222,
        "1545": 79,
        "1546": 186,
        "1547": 136,
        "1548": 170,
        "1549": 127,
        "1550": 76,
        "1551": 223,
        "1552": 135,
        "1553": 244,
        "1554": 130,
        "1555": 45,
        "1556": 109,
        "1557": 142,
        "1558": 182,
        "1559": 131,
        "1560": 166,
        "1561": 109,
        "1562": 102,
        "1563": 25,
        "1564": 182,
        "1565": 190,
        "1566": 207,
        "1567": 65,
        "1568": 69,
        "1569": 229,
        "1570": 11,
        "1571": 46,
        "1572": 192,
        "1573": 31,
        "1574": 102,
        "1575": 97,
        "1576": 45,
        "1577": 5,
        "1578": 115,
        "1579": 115,
        "1580": 147,
        "1581": 131,
        "1582": 62,
        "1583": 15,
        "1584": 30,
        "1585": 54,
        "1586": 143,
        "1587": 164,
        "1588": 167,
        "1589": 71,
        "1590": 93,
        "1591": 96,
        "1592": 67,
        "1593": 37,
        "1594": 34,
        "1595": 132,
        "1596": 27,
        "1597": 80,
        "1598": 89,
        "1599": 197,
        "1600": 219,
        "1601": 14,
        "1602": 221,
        "1603": 241,
        "1604": 162,
        "1605": 206,
        "1606": 191,
        "1607": 26,
        "1608": 241,
        "1609": 216,
        "1610": 147,
        "1611": 229,
        "1612": 130,
        "1613": 48,
        "1614": 40,
        "1615": 164,
        "1616": 203,
        "1617": 64,
        "1618": 155,
        "1619": 241,
        "1620": 177,
        "1621": 133,
        "1622": 82,
        "1623": 255,
        "1624": 46,
        "1625": 74,
        "1626": 226,
        "1627": 221,
        "1628": 1,
        "1629": 115,
        "1630": 55,
        "1631": 143,
        "1632": 109,
        "1633": 0,
        "1634": 172,
        "1635": 234,
        "1636": 58,
        "1637": 27,
        "1638": 255,
        "1639": 224,
        "1640": 84,
        "1641": 172,
        "1642": 15,
        "1643": 61,
        "1644": 71,
        "1645": 23,
        "1646": 212,
        "1647": 139,
        "1648": 142,
        "1649": 126,
        "1650": 224,
        "1651": 173,
        "1652": 176,
        "1653": 157,
        "1654": 128,
        "1655": 83,
        "1656": 5,
        "1657": 53,
        "1658": 174,
        "1659": 159,
        "1660": 226,
        "1661": 14,
        "1662": 89,
        "1663": 123,
        "1664": 194,
        "1665": 207,
        "1666": 142,
        "1667": 231,
        "1668": 16,
        "1669": 166,
        "1670": 36,
        "1671": 132,
        "1672": 250,
        "1673": 237,
        "1674": 6,
        "1675": 117,
        "1676": 227,
        "1677": 82,
        "1678": 57,
        "1679": 209,
        "1680": 58,
        "1681": 57,
        "1682": 175,
        "1683": 78,
        "1684": 148,
        "1685": 89,
        "1686": 152,
        "1687": 67,
        "1688": 2,
        "1689": 68,
        "1690": 196,
        "1691": 91,
        "1692": 112,
        "1693": 113,
        "1694": 150,
        "1695": 188,
        "1696": 18,
        "1697": 176,
        "1698": 180,
        "1699": 108,
        "1700": 130,
        "1701": 18,
        "1702": 59,
        "1703": 213,
        "1704": 81,
        "1705": 254,
        "1706": 232,
        "1707": 84,
        "1708": 236,
        "1709": 124,
        "1710": 203,
        "1711": 136,
        "1712": 196,
        "1713": 104,
        "1714": 187,
        "1715": 207,
        "1716": 80,
        "1717": 253,
        "1718": 75,
        "1719": 145,
        "1720": 234,
        "1721": 24,
        "1722": 71,
        "1723": 221,
        "1724": 194,
        "1725": 117,
        "1726": 163,
        "1727": 248,
        "1728": 229,
        "1729": 38,
        "1730": 23,
        "1731": 65,
        "1732": 51,
        "1733": 223,
        "1734": 166,
        "1735": 241,
        "1736": 177,
        "1737": 56,
        "1738": 118,
        "1739": 164,
        "1740": 114,
        "1741": 80,
        "1742": 72,
        "1743": 92,
        "1744": 236,
        "1745": 220,
        "1746": 225,
        "1747": 96,
        "1748": 200,
        "1749": 135,
        "1750": 183,
        "1751": 57,
        "1752": 208,
        "1753": 203,
        "1754": 188,
        "1755": 210,
        "1756": 224,
        "1757": 206,
        "1758": 158,
        "1759": 208,
        "1760": 70,
        "1761": 90,
        "1762": 75,
        "1763": 240,
        "1764": 185,
        "1765": 26,
        "1766": 84,
        "1767": 179,
        "1768": 86,
        "1769": 82,
        "1770": 191,
        "1771": 184,
        "1772": 49,
        "1773": 235,
        "1774": 2,
        "1775": 53,
        "1776": 3,
        "1777": 224,
        "1778": 71,
        "1779": 153,
        "1780": 94,
        "1781": 49,
        "1782": 148,
        "1783": 146,
        "1784": 83,
        "1785": 171,
        "1786": 4,
        "1787": 226,
        "1788": 205,
        "1789": 50,
        "1790": 75,
        "1791": 192,
        "1792": 196,
        "1793": 140,
        "1794": 251,
        "1795": 115,
        "1796": 182,
        "1797": 35,
        "1798": 235,
        "1799": 222,
        "1800": 139,
        "1801": 135,
        "1802": 60,
        "1803": 20,
        "1804": 83,
        "1805": 159,
        "1806": 66,
        "1807": 30,
        "1808": 107,
        "1809": 172,
        "1810": 192,
        "1811": 20,
        "1812": 52,
        "1813": 96,
        "1814": 194,
        "1815": 134,
        "1816": 136,
        "1817": 182,
        "1818": 154,
        "1819": 83,
        "1820": 197,
        "1821": 57,
        "1822": 124,
        "1823": 28,
        "1824": 234,
        "1825": 76,
        "1826": 248,
        "1827": 81,
        "1828": 12,
        "1829": 241,
        "1830": 161,
        "1831": 142,
        "1832": 62,
        "1833": 253,
        "1834": 168,
        "1835": 93,
        "1836": 187,
        "1837": 65,
        "1838": 253,
        "1839": 72,
        "1840": 131,
        "1841": 235,
        "1842": 83,
        "1843": 21,
        "1844": 251,
        "1845": 221,
        "1846": 23,
        "1847": 112,
        "1848": 235,
        "1849": 80,
        "1850": 240,
        "1851": 140,
        "1852": 202,
        "1853": 88,
        "1854": 128,
        "1855": 112,
        "1856": 66,
        "1857": 243,
        "1858": 160,
        "1859": 172,
        "1860": 128,
        "1861": 203,
        "1862": 12,
        "1863": 128,
        "1864": 206,
        "1865": 251,
        "1866": 109,
        "1867": 124,
        "1868": 42,
        "1869": 216,
        "1870": 158,
        "1871": 192,
        "1872": 1,
        "1873": 56,
        "1874": 138,
        "1875": 9,
        "1876": 15,
        "1877": 98,
        "1878": 109,
        "1879": 188,
        "1880": 96,
        "1881": 40,
        "1882": 191,
        "1883": 22,
        "1884": 35,
        "1885": 80,
        "1886": 205,
        "1887": 141,
        "1888": 245,
        "1889": 203,
        "1890": 54,
        "1891": 70,
        "1892": 142,
        "1893": 120,
        "1894": 194,
        "1895": 7,
        "1896": 83,
        "1897": 182,
        "1898": 80,
        "1899": 113,
        "1900": 164,
        "1901": 24,
        "1902": 20,
        "1903": 125,
        "1904": 138,
        "1905": 117,
        "1906": 99,
        "1907": 99,
        "1908": 236,
        "1909": 242,
        "1910": 190,
        "1911": 129,
        "1912": 255,
        "1913": 194,
        "1914": 163,
        "1915": 190,
        "1916": 142,
        "1917": 238,
        "1918": 65,
        "1919": 103,
        "1920": 219,
        "1921": 240,
        "1922": 212,
        "1923": 152,
        "1924": 224,
        "1925": 119,
        "1926": 202,
        "1927": 78,
        "1928": 229,
        "1929": 250,
        "1930": 36,
        "1931": 53,
        "1932": 247,
        "1933": 230,
        "1934": 179,
        "1935": 171,
        "1936": 185,
        "1937": 53,
        "1938": 114,
        "1939": 218,
        "1940": 175,
        "1941": 183,
        "1942": 32,
        "1943": 23,
        "1944": 6,
        "1945": 25,
        "1946": 203,
        "1947": 205,
        "1948": 5,
        "1949": 218,
        "1950": 40,
        "1951": 172,
        "1952": 220,
        "1953": 62,
        "1954": 53,
        "1955": 39,
        "1956": 97,
        "1957": 33,
        "1958": 189,
        "1959": 165,
        "1960": 106,
        "1961": 246,
        "1962": 103,
        "1963": 225,
        "1964": 40,
        "1965": 11,
        "1966": 251,
        "1967": 63,
        "1968": 224,
        "1969": 156,
        "1970": 49,
        "1971": 138,
        "1972": 239,
        "1973": 227,
        "1974": 31,
        "1975": 134,
        "1976": 18,
        "1977": 50,
        "1978": 237,
        "1979": 71,
        "1980": 34,
        "1981": 129,
        "1982": 187,
        "1983": 163,
        "1984": 229,
        "1985": 39,
        "1986": 42,
        "1987": 130,
        "1988": 228,
        "1989": 205,
        "1990": 142,
        "1991": 71,
        "1992": 212,
        "1993": 190,
        "1994": 217,
        "1995": 191,
        "1996": 203,
        "1997": 199,
        "1998": 182,
        "1999": 14,
        "2000": 181,
        "2001": 179,
        "2002": 46,
        "2003": 176,
        "2004": 37,
        "2005": 127,
        "2006": 14,
        "2007": 44,
        "2008": 71,
        "2009": 180,
        "2010": 151,
        "2011": 69,
        "2012": 134,
        "2013": 49,
        "2014": 175,
        "2015": 129,
        "2016": 219,
        "2017": 89,
        "2018": 115,
        "2019": 139,
        "2020": 164,
        "2021": 154,
        "2022": 178,
        "2023": 72,
        "2024": 190,
        "2025": 169,
        "2026": 83,
        "2027": 62,
        "2028": 109,
        "2029": 77,
        "2030": 245,
        "2031": 47,
        "2032": 87,
        "2033": 240,
        "2034": 30,
        "2035": 132,
        "2036": 52,
        "2037": 193,
        "2038": 177,
        "2039": 68,
        "2040": 38,
        "2041": 34,
        "2042": 213,
        "2043": 217,
        "2044": 247,
        "2045": 117,
        "2046": 241,
        "2047": 160,
        "2048": 241,
        "2049": 108,
        "2050": 232,
        "2051": 4,
        "2052": 119,
        "2053": 213,
        "2054": 195,
        "2055": 155,
        "2056": 149,
        "2057": 205,
        "2058": 255,
        "2059": 243,
        "2060": 43,
        "2061": 29,
        "2062": 249,
        "2063": 9,
        "2064": 242,
        "2065": 158,
        "2066": 140,
        "2067": 162,
        "2068": 27,
        "2069": 218,
        "2070": 243,
        "2071": 199,
        "2072": 75,
        "2073": 122,
        "2074": 95,
        "2075": 79,
        "2076": 250,
        "2077": 137,
        "2078": 9,
        "2079": 58,
        "2080": 119,
        "2081": 231,
        "2082": 196,
        "2083": 171,
        "2084": 31,
        "2085": 133,
        "2086": 25,
        "2087": 192,
        "2088": 133,
        "2089": 93,
        "2090": 97,
        "2091": 80,
        "2092": 213,
        "2093": 255,
        "2094": 61,
        "2095": 85,
        "2096": 231,
        "2097": 173,
        "2098": 173,
        "2099": 137,
        "2100": 215,
        "2101": 62,
        "2102": 213,
        "2103": 54,
        "2104": 79,
        "2105": 253,
        "2106": 199,
        "2107": 127,
        "2108": 68,
        "2109": 182,
        "2110": 159,
        "2111": 157,
        "2112": 226,
        "2113": 163,
        "2114": 154,
        "2115": 220,
        "2116": 241,
        "2117": 232,
        "2118": 41,
        "2119": 51,
        "2120": 214,
        "2121": 168,
        "2122": 39,
        "2123": 43,
        "2124": 192,
        "2125": 12,
        "2126": 142,
        "2127": 175,
        "2128": 125,
        "2129": 101,
        "2130": 75,
        "2131": 169,
        "2132": 101,
        "2133": 225,
        "2134": 223,
        "2135": 234,
        "2136": 121,
        "2137": 238,
        "2138": 14,
        "2139": 129,
        "2140": 137,
        "2141": 64,
        "2142": 115,
        "2143": 121,
        "2144": 215,
        "2145": 141,
        "2146": 48,
        "2147": 199,
        "2148": 227,
        "2149": 96,
        "2150": 175,
        "2151": 162,
        "2152": 37,
        "2153": 167,
        "2154": 184,
        "2155": 71,
        "2156": 128,
        "2157": 23,
        "2158": 121,
        "2159": 130,
        "2160": 104,
        "2161": 6,
        "2162": 67,
        "2163": 213,
        "2164": 25,
        "2165": 27,
        "2166": 10,
        "2167": 109,
        "2168": 99,
        "2169": 48,
        "2170": 68,
        "2171": 111,
        "2172": 54,
        "2173": 1,
        "2174": 53,
        "2175": 196,
        "2176": 178,
        "2177": 19,
        "2178": 30,
        "2179": 9,
        "2180": 6,
        "2181": 126,
        "2182": 91,
        "2183": 228,
        "2184": 152,
        "2185": 217,
        "2186": 37,
        "2187": 196,
        "2188": 22,
        "2189": 212,
        "2190": 78,
        "2191": 219,
        "2192": 83,
        "2193": 147,
        "2194": 117,
        "2195": 199,
        "2196": 10,
        "2197": 74,
        "2198": 208,
        "2199": 210,
        "2200": 29,
        "2201": 51,
        "2202": 101,
        "2203": 249,
        "2204": 214,
        "2205": 122,
        "2206": 26,
        "2207": 244,
        "2208": 236,
        "2209": 44,
        "2210": 236,
        "2211": 91,
        "2212": 128,
        "2213": 104,
        "2214": 48,
        "2215": 167,
        "2216": 252,
        "2217": 196,
        "2218": 249,
        "2219": 234,
        "2220": 129,
        "2221": 121,
        "2222": 8,
        "2223": 180,
        "2224": 7,
        "2225": 240,
        "2226": 206,
        "2227": 49,
        "2228": 31,
        "2229": 71,
        "2230": 182,
        "2231": 215,
        "2232": 64,
        "2233": 101,
        "2234": 11,
        "2235": 32,
        "2236": 74,
        "2237": 223,
        "2238": 238,
        "2239": 36,
        "2240": 225,
        "2241": 141,
        "2242": 24,
        "2243": 3,
        "2244": 22,
        "2245": 126,
        "2246": 190,
        "2247": 63,
        "2248": 154,
        "2249": 235,
        "2250": 42,
        "2251": 160,
        "2252": 125,
        "2253": 104,
        "2254": 64,
        "2255": 78,
        "2256": 246,
        "2257": 113,
        "2258": 34,
        "2259": 211,
        "2260": 56,
        "2261": 120,
        "2262": 72,
        "2263": 56,
        "2264": 159,
        "2265": 13,
        "2266": 21,
        "2267": 21,
        "2268": 214,
        "2269": 217,
        "2270": 109,
        "2271": 183,
        "2272": 10,
        "2273": 23,
        "2274": 78,
        "2275": 233,
        "2276": 146,
        "2277": 4,
        "2278": 0,
        "2279": 26,
        "2280": 53,
        "2281": 144,
        "2282": 35,
        "2283": 232,
        "2284": 136,
        "2285": 204,
        "2286": 182,
        "2287": 87,
        "2288": 63,
        "2289": 74,
        "2290": 181,
        "2291": 116,
        "2292": 165,
        "2293": 46,
        "2294": 152,
        "2295": 125,
        "2296": 141,
        "2297": 164,
        "2298": 113,
        "2299": 209,
        "2300": 233,
        "2301": 56,
        "2302": 106,
        "2303": 7,
        "2304": 172,
        "2305": 179,
        "2306": 239,
        "2307": 150,
        "2308": 199,
        "2309": 195,
        "2310": 181,
        "2311": 226,
        "2312": 195,
        "2313": 134,
        "2314": 87,
        "2315": 25,
        "2316": 211,
        "2317": 185,
        "2318": 112,
        "2319": 197,
        "2320": 34,
        "2321": 74,
        "2322": 190,
        "2323": 10,
        "2324": 203,
        "2325": 195,
        "2326": 111,
        "2327": 216,
        "2328": 87,
        "2329": 210,
        "2330": 165,
        "2331": 80,
        "2332": 145,
        "2333": 15,
        "2334": 101,
        "2335": 116,
        "2336": 179,
        "2337": 136,
        "2338": 65,
        "2339": 192,
        "2340": 198,
        "2341": 39,
        "2342": 16,
        "2343": 104,
        "2344": 108,
        "2345": 72,
        "2346": 106,
        "2347": 161,
        "2348": 49,
        "2349": 127,
        "2350": 153,
        "2351": 247,
        "2352": 58,
        "2353": 42,
        "2354": 116,
        "2355": 210,
        "2356": 165,
        "2357": 17,
        "2358": 159,
        "2359": 61,
        "2360": 238,
        "2361": 114,
        "2362": 167,
        "2363": 201,
        "2364": 191,
        "2365": 19,
        "2366": 39,
        "2367": 189,
        "2368": 97,
        "2369": 79,
        "2370": 10,
        "2371": 106,
        "2372": 162,
        "2373": 185,
        "2374": 127,
        "2375": 211,
        "2376": 43,
        "2377": 10,
        "2378": 208,
        "2379": 66,
        "2380": 142,
        "2381": 90,
        "2382": 170,
        "2383": 64,
        "2384": 227,
        "2385": 108,
        "2386": 137,
        "2387": 198,
        "2388": 79,
        "2389": 88,
        "2390": 82,
        "2391": 46,
        "2392": 51,
        "2393": 221,
        "2394": 33,
        "2395": 116,
        "2396": 1,
        "2397": 154,
        "2398": 242,
        "2399": 219,
        "2400": 66,
        "2401": 210,
        "2402": 134,
        "2403": 147,
        "2404": 65,
        "2405": 175,
        "2406": 25,
        "2407": 2,
        "2408": 122,
        "2409": 132,
        "2410": 38,
        "2411": 125,
        "2412": 79,
        "2413": 254,
        "2414": 233,
        "2415": 93,
        "2416": 217,
        "2417": 38,
        "2418": 140,
        "2419": 190,
        "2420": 174,
        "2421": 104,
        "2422": 186,
        "2423": 239,
        "2424": 233,
        "2425": 85,
        "2426": 88,
        "2427": 8,
        "2428": 9,
        "2429": 206,
        "2430": 166,
        "2431": 74,
        "2432": 208,
        "2433": 214,
        "2434": 4,
        "2435": 219,
        "2436": 121,
        "2437": 214,
        "2438": 154,
        "2439": 69,
        "2440": 62,
        "2441": 69,
        "2442": 144,
        "2443": 85,
        "2444": 18,
        "2445": 148,
        "2446": 122,
        "2447": 221,
        "2448": 218,
        "2449": 68,
        "2450": 44,
        "2451": 52,
        "2452": 28,
        "2453": 41,
        "2454": 150,
        "2455": 25,
        "2456": 4,
        "2457": 180,
        "2458": 254,
        "2459": 170,
        "2460": 157,
        "2461": 113,
        "2462": 203,
        "2463": 104,
        "2464": 236,
        "2465": 156,
        "2466": 234,
        "2467": 18,
        "2468": 48,
        "2469": 59,
        "2470": 242,
        "2471": 226,
        "2472": 11,
        "2473": 101,
        "2474": 90,
        "2475": 116,
        "2476": 76,
        "2477": 153,
        "2478": 204,
        "2479": 204,
        "2480": 25,
        "2481": 134,
        "2482": 55,
        "2483": 151,
        "2484": 93,
        "2485": 23,
        "2486": 148,
        "2487": 78,
        "2488": 171,
        "2489": 171,
        "2490": 239,
        "2491": 240,
        "2492": 4,
        "2493": 152,
        "2494": 93,
        "2495": 62,
        "2496": 247,
        "2497": 152,
        "2498": 54,
        "2499": 68,
        "2500": 44,
        "2501": 239,
        "2502": 203,
        "2503": 189,
        "2504": 66,
        "2505": 202,
        "2506": 227,
        "2507": 66,
        "2508": 215,
        "2509": 105,
        "2510": 139,
        "2511": 182,
        "2512": 53,
        "2513": 81,
        "2514": 223,
        "2515": 200,
        "2516": 55,
        "2517": 119,
        "2518": 84,
        "2519": 204,
        "2520": 12,
        "2521": 144,
        "2522": 154,
        "2523": 141,
        "2524": 127,
        "2525": 11,
        "2526": 204,
        "2527": 182,
        "2528": 189,
        "2529": 235,
        "2530": 164,
        "2531": 11,
        "2532": 139,
        "2533": 22,
        "2534": 66,
        "2535": 9,
        "2536": 201,
        "2537": 75,
        "2538": 122,
        "2539": 119,
        "2540": 4,
        "2541": 133,
        "2542": 35,
        "2543": 51,
        "2544": 213,
        "2545": 56,
        "2546": 96,
        "2547": 187,
        "2548": 172,
        "2549": 82,
        "2550": 189,
        "2551": 228,
        "2552": 117,
        "2553": 215,
        "2554": 129,
        "2555": 223,
        "2556": 71,
        "2557": 20,
        "2558": 138,
        "2559": 133,
        "2560": 47,
        "2561": 87,
        "2562": 157,
        "2563": 218,
        "2564": 76,
        "2565": 84,
        "2566": 230,
        "2567": 208,
        "2568": 65,
        "2569": 29,
        "2570": 144,
        "2571": 65,
        "2572": 250,
        "2573": 9,
        "2574": 217,
        "2575": 118,
        "2576": 241,
        "2577": 135,
        "2578": 136,
        "2579": 208,
        "2580": 210,
        "2581": 44,
        "2582": 189,
        "2583": 68,
        "2584": 165,
        "2585": 39,
        "2586": 124,
        "2587": 129,
        "2588": 202,
        "2589": 22,
        "2590": 226,
        "2591": 203,
        "2592": 85,
        "2593": 109,
        "2594": 174,
        "2595": 196,
        "2596": 157,
        "2597": 125,
        "2598": 254,
        "2599": 174,
        "2600": 150,
        "2601": 69,
        "2602": 249,
        "2603": 163,
        "2604": 227,
        "2605": 68,
        "2606": 242,
        "2607": 114,
        "2608": 27,
        "2609": 96,
        "2610": 160,
        "2611": 119,
        "2612": 22,
        "2613": 167,
        "2614": 212,
        "2615": 128,
        "2616": 103,
        "2617": 161,
        "2618": 36,
        "2619": 88,
        "2620": 153,
        "2621": 186,
        "2622": 112,
        "2623": 29,
        "2624": 77,
        "2625": 161,
        "2626": 232,
        "2627": 147,
        "2628": 177,
        "2629": 105,
        "2630": 248,
        "2631": 142,
        "2632": 181,
        "2633": 29,
        "2634": 205,
        "2635": 134,
        "2636": 22,
        "2637": 1,
        "2638": 25,
        "2639": 48,
        "2640": 225,
        "2641": 118,
        "2642": 183,
        "2643": 175,
        "2644": 23,
        "2645": 66,
        "2646": 77,
        "2647": 246,
        "2648": 192,
        "2649": 141,
        "2650": 38,
        "2651": 204,
        "2652": 255,
        "2653": 170,
        "2654": 139,
        "2655": 116,
        "2656": 207,
        "2657": 153,
        "2658": 214,
        "2659": 146,
        "2660": 184,
        "2661": 50,
        "2662": 77,
        "2663": 63,
        "2664": 166,
        "2665": 225,
        "2666": 140,
        "2667": 214,
        "2668": 229,
        "2669": 249,
        "2670": 204,
        "2671": 231,
        "2672": 109,
        "2673": 176,
        "2674": 120,
        "2675": 204,
        "2676": 6,
        "2677": 32,
        "2678": 115,
        "2679": 101,
        "2680": 161,
        "2681": 245,
        "2682": 189,
        "2683": 120,
        "2684": 255,
        "2685": 117,
        "2686": 138,
        "2687": 191,
        "2688": 128,
        "2689": 73,
        "2690": 175,
        "2691": 145,
        "2692": 63,
        "2693": 130,
        "2694": 176,
        "2695": 26,
        "2696": 36,
        "2697": 88,
        "2698": 195,
        "2699": 159,
        "2700": 145,
        "2701": 223,
        "2702": 211,
        "2703": 44,
        "2704": 122,
        "2705": 247,
        "2706": 45,
        "2707": 163,
        "2708": 7,
        "2709": 92,
        "2710": 203,
        "2711": 44,
        "2712": 137,
        "2713": 170,
        "2714": 153,
        "2715": 246,
        "2716": 99,
        "2717": 237,
        "2718": 193,
        "2719": 146,
        "2720": 107,
        "2721": 148,
        "2722": 113,
        "2723": 128,
        "2724": 138,
        "2725": 43,
        "2726": 119,
        "2727": 10,
        "2728": 252,
        "2729": 24,
        "2730": 24,
        "2731": 46,
        "2732": 16,
        "2733": 241,
        "2734": 180,
        "2735": 228,
        "2736": 135,
        "2737": 222,
        "2738": 149,
        "2739": 149,
        "2740": 142,
        "2741": 72,
        "2742": 249,
        "2743": 15,
        "2744": 165,
        "2745": 109,
        "2746": 110,
        "2747": 58,
        "2748": 79,
        "2749": 72,
        "2750": 24,
        "2751": 3,
        "2752": 24,
        "2753": 4,
        "2754": 174,
        "2755": 85,
        "2756": 111,
        "2757": 105,
        "2758": 242,
        "2759": 6,
        "2760": 52,
        "2761": 73,
        "2762": 53,
        "2763": 58,
        "2764": 179,
        "2765": 170,
        "2766": 242,
        "2767": 125,
        "2768": 3,
        "2769": 125,
        "2770": 220,
        "2771": 25,
        "2772": 239,
        "2773": 232,
        "2774": 58,
        "2775": 143,
        "2776": 22,
        "2777": 217,
        "2778": 41,
        "2779": 22,
        "2780": 56,
        "2781": 139,
        "2782": 176,
        "2783": 32,
        "2784": 89,
        "2785": 62,
        "2786": 151,
        "2787": 80,
        "2788": 185,
        "2789": 7,
        "2790": 128,
        "2791": 164,
        "2792": 230,
        "2793": 62,
        "2794": 238,
        "2795": 198,
        "2796": 180,
        "2797": 87,
        "2798": 161,
        "2799": 147,
        "2800": 40,
        "2801": 188,
        "2802": 205,
        "2803": 100,
        "2804": 181,
        "2805": 177,
        "2806": 61,
        "2807": 33,
        "2808": 191,
        "2809": 195,
        "2810": 183,
        "2811": 56,
        "2812": 37,
        "2813": 186,
        "2814": 86,
        "2815": 106,
        "2816": 17,
        "2817": 46,
        "2818": 195,
        "2819": 178,
        "2820": 248,
        "2821": 88,
        "2822": 177,
        "2823": 146,
        "2824": 101,
        "2825": 161,
        "2826": 226,
        "2827": 62,
        "2828": 156,
        "2829": 43,
        "2830": 175,
        "2831": 128,
        "2832": 52,
        "2833": 85,
        "2834": 125,
        "2835": 183,
        "2836": 45,
        "2837": 15,
        "2838": 136,
        "2839": 51,
        "2840": 41,
        "2841": 114,
        "2842": 211,
        "2843": 32,
        "2844": 242,
        "2845": 78,
        "2846": 86,
        "2847": 235,
        "2848": 199,
        "2849": 210,
        "2850": 67,
        "2851": 74,
        "2852": 234,
        "2853": 210,
        "2854": 244,
        "2855": 145,
        "2856": 38,
        "2857": 132,
        "2858": 139,
        "2859": 58,
        "2860": 157,
        "2861": 224,
        "2862": 180,
        "2863": 127,
        "2864": 200,
        "2865": 130,
        "2866": 77,
        "2867": 185,
        "2868": 172,
        "2869": 247,
        "2870": 22,
        "2871": 106,
        "2872": 194,
        "2873": 27,
        "2874": 1,
        "2875": 48,
        "2876": 109,
        "2877": 24,
        "2878": 66,
        "2879": 96,
        "2880": 223,
        "2881": 99,
        "2882": 25,
        "2883": 41,
        "2884": 140,
        "2885": 69,
        "2886": 219,
        "2887": 105,
        "2888": 246,
        "2889": 119,
        "2890": 213,
        "2891": 118,
        "2892": 243,
        "2893": 108,
        "2894": 85,
        "2895": 129,
        "2896": 73,
        "2897": 31,
        "2898": 81,
        "2899": 20,
        "2900": 198,
        "2901": 124,
        "2902": 36,
        "2903": 18,
        "2904": 127,
        "2905": 253,
        "2906": 171,
        "2907": 45,
        "2908": 254,
        "2909": 99,
        "2910": 133,
        "2911": 28,
        "2912": 169,
        "2913": 117,
        "2914": 243,
        "2915": 185,
        "2916": 41,
        "2917": 237,
        "2918": 253,
        "2919": 136,
        "2920": 13,
        "2921": 97,
        "2922": 22,
        "2923": 203,
        "2924": 2,
        "2925": 105,
        "2926": 28,
        "2927": 106,
        "2928": 222,
        "2929": 235,
        "2930": 186,
        "2931": 193,
        "2932": 193,
        "2933": 122,
        "2934": 152,
        "2935": 222,
        "2936": 157,
        "2937": 234,
        "2938": 175,
        "2939": 118,
        "2940": 180,
        "2941": 85,
        "2942": 37,
        "2943": 219,
        "2944": 123,
        "2945": 132,
        "2946": 127,
        "2947": 113,
        "2948": 215,
        "2949": 164,
        "2950": 76,
        "2951": 75,
        "2952": 72,
        "2953": 90,
        "2954": 111,
        "2955": 91,
        "2956": 211,
        "2957": 95,
        "2958": 181,
        "2959": 237,
        "2960": 187,
        "2961": 182,
        "2962": 122,
        "2963": 156,
        "2964": 210,
        "2965": 152,
        "2966": 172,
        "2967": 58,
        "2968": 238,
        "2969": 21,
        "2970": 63,
        "2971": 115,
        "2972": 65,
        "2973": 251,
        "2974": 115,
        "2975": 191,
        "2976": 152,
        "2977": 73,
        "2978": 48,
        "2979": 246,
        "2980": 40,
        "2981": 40,
        "2982": 24,
        "2983": 26,
        "2984": 170,
        "2985": 127,
        "2986": 115,
        "2987": 153,
        "2988": 176,
        "2989": 22,
        "2990": 211,
        "2991": 65,
        "2992": 157,
        "2993": 250,
        "2994": 130,
        "2995": 122,
        "2996": 154,
        "2997": 100,
        "2998": 157,
        "2999": 197,
        "3000": 217,
        "3001": 129,
        "3002": 100,
        "3003": 84,
        "3004": 122,
        "3005": 10,
        "3006": 42,
        "3007": 44,
        "3008": 114,
        "3009": 190,
        "3010": 13,
        "3011": 108,
        "3012": 104,
        "3013": 195,
        "3014": 86,
        "3015": 204,
        "3016": 221,
        "3017": 149,
        "3018": 146,
        "3019": 198,
        "3020": 61,
        "3021": 63,
        "3022": 97,
        "3023": 114,
        "3024": 104,
        "3025": 180,
        "3026": 12,
        "3027": 168,
        "3028": 94,
        "3029": 144,
        "3030": 188,
        "3031": 15,
        "3032": 66,
        "3033": 128,
        "3034": 157,
        "3035": 165,
        "3036": 249,
        "3037": 7,
        "3038": 100,
        "3039": 79,
        "3040": 66,
        "3041": 135,
        "3042": 39,
        "3043": 145,
        "3044": 24,
        "3045": 244,
        "3046": 100,
        "3047": 69,
        "3048": 118,
        "3049": 250,
        "3050": 221,
        "3051": 53,
        "3052": 249,
        "3053": 100,
        "3054": 147,
        "3055": 89,
        "3056": 162,
        "3057": 77,
        "3058": 236,
        "3059": 210,
        "3060": 95,
        "3061": 216,
        "3062": 193,
        "3063": 207,
        "3064": 162,
        "3065": 244,
        "3066": 30,
        "3067": 82,
        "3068": 190,
        "3069": 224,
        "3070": 28,
        "3071": 102,
        "3072": 31,
        "3073": 207,
        "3074": 9,
        "3075": 155,
        "3076": 248,
        "3077": 94,
        "3078": 203,
        "3079": 1,
        "3080": 138,
        "3081": 96,
        "3082": 36,
        "3083": 130,
        "3084": 195,
        "3085": 60,
        "3086": 134,
        "3087": 15,
        "3088": 50,
        "3089": 151,
        "3090": 238,
        "3091": 216,
        "3092": 197,
        "3093": 208,
        "3094": 103,
        "3095": 118,
        "3096": 72,
        "3097": 56,
        "3098": 192,
        "3099": 182,
        "3100": 192,
        "3101": 135,
        "3102": 217,
        "3103": 174,
        "3104": 118,
        "3105": 40,
        "3106": 57,
        "3107": 111,
        "3108": 90,
        "3109": 223,
        "3110": 120,
        "3111": 229,
        "3112": 81,
        "3113": 223,
        "3114": 140,
        "3115": 24,
        "3116": 97,
        "3117": 130,
        "3118": 124,
        "3119": 126,
        "3120": 31,
        "3121": 92,
        "3122": 35,
        "3123": 97,
        "3124": 234,
        "3125": 184,
        "3126": 160,
        "3127": 78,
        "3128": 222,
        "3129": 199,
        "3130": 184,
        "3131": 31,
        "3132": 69,
        "3133": 175,
        "3134": 135,
        "3135": 214,
        "3136": 93,
        "3137": 19,
        "3138": 236,
        "3139": 117,
        "3140": 29,
        "3141": 182,
        "3142": 46,
        "3143": 9,
        "3144": 147,
        "3145": 11,
        "3146": 188,
        "3147": 23,
        "3148": 164,
        "3149": 176,
        "3150": 201,
        "3151": 185,
        "3152": 121,
        "3153": 253,
        "3154": 106,
        "3155": 70,
        "3156": 189,
        "3157": 52,
        "3158": 123,
        "3159": 69,
        "3160": 238,
        "3161": 142,
        "3162": 213,
        "3163": 230,
        "3164": 188,
        "3165": 113,
        "3166": 165,
        "3167": 200,
        "3168": 33,
        "3169": 13,
        "3170": 227,
        "3171": 177,
        "3172": 145,
        "3173": 44,
        "3174": 246,
        "3175": 206,
        "3176": 177,
        "3177": 7,
        "3178": 91,
        "3179": 131,
        "3180": 246,
        "3181": 253,
        "3182": 3,
        "3183": 70,
        "3184": 250,
        "3185": 179,
        "3186": 177,
        "3187": 146,
        "3188": 236,
        "3189": 239,
        "3190": 74,
        "3191": 5,
        "3192": 174,
        "3193": 70,
        "3194": 181,
        "3195": 135,
        "3196": 223,
        "3197": 118,
        "3198": 97,
        "3199": 20,
        "3200": 42,
        "3201": 204,
        "3202": 114,
        "3203": 200,
        "3204": 248,
        "3205": 237,
        "3206": 179,
        "3207": 79,
        "3208": 18,
        "3209": 4,
        "3210": 150,
        "3211": 163,
        "3212": 93,
        "3213": 63,
        "3214": 171,
        "3215": 123,
        "3216": 111,
        "3217": 49,
        "3218": 175,
        "3219": 143,
        "3220": 16,
        "3221": 67,
        "3222": 216,
        "3223": 78,
        "3224": 177,
        "3225": 253,
        "3226": 188,
        "3227": 139,
        "3228": 222,
        "3229": 7,
        "3230": 171,
        "3231": 233,
        "3232": 203,
        "3233": 147,
        "3234": 94,
        "3235": 209,
        "3236": 169,
        "3237": 251,
        "3238": 100,
        "3239": 123,
        "3240": 128,
        "3241": 24,
        "3242": 59,
        "3243": 126,
        "3244": 64,
        "3245": 155,
        "3246": 223,
        "3247": 241,
        "3248": 239,
        "3249": 143,
        "3250": 11,
        "3251": 94,
        "3252": 182,
        "3253": 115,
        "3254": 27,
        "3255": 248,
        "3256": 250,
        "3257": 227,
        "3258": 133,
        "3259": 113,
        "3260": 129,
        "3261": 126,
        "3262": 122,
        "3263": 202,
        "3264": 187,
        "3265": 146,
        "3266": 255,
        "3267": 79,
        "3268": 83,
        "3269": 115,
        "3270": 174,
        "3271": 194,
        "3272": 192,
        "3273": 253,
        "3274": 106,
        "3275": 128,
        "3276": 13,
        "3277": 24,
        "3278": 238,
        "3279": 11,
        "3280": 146,
        "3281": 124,
        "3282": 153,
        "3283": 127,
        "3284": 235,
        "3285": 126,
        "3286": 211,
        "3287": 50,
        "3288": 144,
        "3289": 136,
        "3290": 13,
        "3291": 30,
        "3292": 230,
        "3293": 25,
        "3294": 111,
        "3295": 50,
        "3296": 6,
        "3297": 81,
        "3298": 75,
        "3299": 187,
        "3300": 167,
        "3301": 166,
        "3302": 150,
        "3303": 23,
        "3304": 41,
        "3305": 38,
        "3306": 90,
        "3307": 150,
        "3308": 220,
        "3309": 89,
        "3310": 25,
        "3311": 81,
        "3312": 153,
        "3313": 247,
        "3314": 44,
        "3315": 3,
        "3316": 130,
        "3317": 107,
        "3318": 86,
        "3319": 41,
        "3320": 100,
        "3321": 63,
        "3322": 175,
        "3323": 178,
        "3324": 122,
        "3325": 185,
        "3326": 18,
        "3327": 138,
        "3328": 205,
        "3329": 39,
        "3330": 31,
        "3331": 106,
        "3332": 145,
        "3333": 35,
        "3334": 119,
        "3335": 217,
        "3336": 73,
        "3337": 202,
        "3338": 162,
        "3339": 18,
        "3340": 44,
        "3341": 243,
        "3342": 209,
        "3343": 159,
        "3344": 22,
        "3345": 153,
        "3346": 205,
        "3347": 45,
        "3348": 187,
        "3349": 23,
        "3350": 89,
        "3351": 190,
        "3352": 3,
        "3353": 181,
        "3354": 170,
        "3355": 73,
        "3356": 34,
        "3357": 215,
        "3358": 6,
        "3359": 77,
        "3360": 182,
        "3361": 123,
        "3362": 228,
        "3363": 162,
        "3364": 214,
        "3365": 22,
        "3366": 120,
        "3367": 200,
        "3368": 62,
        "3369": 185,
        "3370": 121,
        "3371": 186,
        "3372": 125,
        "3373": 93,
        "3374": 254,
        "3375": 136,
        "3376": 135,
        "3377": 147,
        "3378": 252,
        "3379": 79,
        "3380": 221,
        "3381": 78,
        "3382": 72,
        "3383": 131,
        "3384": 58,
        "3385": 190,
        "3386": 81,
        "3387": 90,
        "3388": 25,
        "3389": 109,
        "3390": 186,
        "3391": 23,
        "3392": 231,
        "3393": 6,
        "3394": 239,
        "3395": 203,
        "3396": 235,
        "3397": 32,
        "3398": 115,
        "3399": 90,
        "3400": 128,
        "3401": 173,
        "3402": 103,
        "3403": 118,
        "3404": 161,
        "3405": 219,
        "3406": 248,
        "3407": 118,
        "3408": 210,
        "3409": 98,
        "3410": 195,
        "3411": 90,
        "3412": 139,
        "3413": 198,
        "3414": 214,
        "3415": 83,
        "3416": 129,
        "3417": 249,
        "3418": 3,
        "3419": 157,
        "3420": 211,
        "3421": 214,
        "3422": 8,
        "3423": 61,
        "3424": 115,
        "3425": 206,
        "3426": 76,
        "3427": 168,
        "3428": 118,
        "3429": 211,
        "3430": 205,
        "3431": 94,
        "3432": 70,
        "3433": 203,
        "3434": 30,
        "3435": 227,
        "3436": 12,
        "3437": 197,
        "3438": 24,
        "3439": 75,
        "3440": 63,
        "3441": 26,
        "3442": 18,
        "3443": 20,
        "3444": 1,
        "3445": 197,
        "3446": 75,
        "3447": 213,
        "3448": 91,
        "3449": 58,
        "3450": 174,
        "3451": 72,
        "3452": 216,
        "3453": 118,
        "3454": 202,
        "3455": 148,
        "3456": 248,
        "3457": 102,
        "3458": 137,
        "3459": 51,
        "3460": 59,
        "3461": 3,
        "3462": 132,
        "3463": 131,
        "3464": 12,
        "3465": 114,
        "3466": 58,
        "3467": 72,
        "3468": 208,
        "3469": 170,
        "3470": 16,
        "3471": 64,
        "3472": 7,
        "3473": 29,
        "3474": 134,
        "3475": 155,
        "3476": 242,
        "3477": 92,
        "3478": 230,
        "3479": 100,
        "3480": 32,
        "3481": 95,
        "3482": 41,
        "3483": 171,
        "3484": 138,
        "3485": 142,
        "3486": 93,
        "3487": 61,
        "3488": 97,
        "3489": 141,
        "3490": 221,
        "3491": 119,
        "3492": 6,
        "3493": 86,
        "3494": 121,
        "3495": 165,
        "3496": 247,
        "3497": 233,
        "3498": 8,
        "3499": 65,
        "3500": 82,
        "3501": 138,
        "3502": 74,
        "3503": 169,
        "3504": 221,
        "3505": 141,
        "3506": 10,
        "3507": 148,
        "3508": 120,
        "3509": 105,
        "3510": 130,
        "3511": 91,
        "3512": 172,
        "3513": 209,
        "3514": 60,
        "3515": 208,
        "3516": 74,
        "3517": 238,
        "3518": 164,
        "3519": 42,
        "3520": 19,
        "3521": 103,
        "3522": 108,
        "3523": 225,
        "3524": 45,
        "3525": 229,
        "3526": 121,
        "3527": 17,
        "3528": 188,
        "3529": 123,
        "3530": 220,
        "3531": 62,
        "3532": 213,
        "3533": 225,
        "3534": 192,
        "3535": 220,
        "3536": 148,
        "3537": 235,
        "3538": 248,
        "3539": 229,
        "3540": 240,
        "3541": 134,
        "3542": 45,
        "3543": 17,
        "3544": 200,
        "3545": 210,
        "3546": 24,
        "3547": 59,
        "3548": 220,
        "3549": 221,
        "3550": 78,
        "3551": 155,
        "3552": 243,
        "3553": 243,
        "3554": 208,
        "3555": 139,
        "3556": 107,
        "3557": 48,
        "3558": 56,
        "3559": 153,
        "3560": 67,
        "3561": 157,
        "3562": 254,
        "3563": 89,
        "3564": 23,
        "3565": 160,
        "3566": 110,
        "3567": 2,
        "3568": 46,
        "3569": 15,
        "3570": 75,
        "3571": 0,
        "3572": 128,
        "3573": 9,
        "3574": 174,
        "3575": 255,
        "3576": 217,
        "3577": 25,
        "3578": 195,
        "3579": 157,
        "3580": 196,
        "3581": 169,
        "3582": 205,
        "3583": 167,
        "3584": 220,
        "3585": 250,
        "3586": 54,
        "3587": 24,
        "3588": 174,
        "3589": 52,
        "3590": 158,
        "3591": 231,
        "3592": 119,
        "3593": 241,
        "3594": 126,
        "3595": 70,
        "3596": 182,
        "3597": 55,
        "3598": 37,
        "3599": 97,
        "3600": 17,
        "3601": 37,
        "3602": 0,
        "3603": 166,
        "3604": 221,
        "3605": 139,
        "3606": 25,
        "3607": 81,
        "3608": 169,
        "3609": 234,
        "3610": 213,
        "3611": 8,
        "3612": 247,
        "3613": 81,
        "3614": 146,
        "3615": 82,
        "3616": 121,
        "3617": 233,
        "3618": 241,
        "3619": 231,
        "3620": 171,
        "3621": 172,
        "3622": 116,
        "3623": 80,
        "3624": 227,
        "3625": 6,
        "3626": 115,
        "3627": 216,
        "3628": 100,
        "3629": 142,
        "3630": 220,
        "3631": 135,
        "3632": 59,
        "3633": 143,
        "3634": 233,
        "3635": 201,
        "3636": 229,
        "3637": 5,
        "3638": 216,
        "3639": 24,
        "3640": 25,
        "3641": 230,
        "3642": 184,
        "3643": 174,
        "3644": 75,
        "3645": 44,
        "3646": 227,
        "3647": 14,
        "3648": 188,
        "3649": 47,
        "3650": 53,
        "3651": 228,
        "3652": 28,
        "3653": 125,
        "3654": 42,
        "3655": 151,
        "3656": 135,
        "3657": 129,
        "3658": 25,
        "3659": 172,
        "3660": 184,
        "3661": 207,
        "3662": 237,
        "3663": 54,
        "3664": 218,
        "3665": 223,
        "3666": 203,
        "3667": 136,
        "3668": 16,
        "3669": 160,
        "3670": 88,
        "3671": 32,
        "3672": 245,
        "3673": 26,
        "3674": 163,
        "3675": 178,
        "3676": 97,
        "3677": 10,
        "3678": 16,
        "3679": 161,
        "3680": 34,
        "3681": 45,
        "3682": 23,
        "3683": 243,
        "3684": 81,
        "3685": 62,
        "3686": 73,
        "3687": 166,
        "3688": 76,
        "3689": 228,
        "3690": 218,
        "3691": 81,
        "3692": 183,
        "3693": 86,
        "3694": 143,
        "3695": 214,
        "3696": 2,
        "3697": 213,
        "3698": 36,
        "3699": 250,
        "3700": 67,
        "3701": 220,
        "3702": 59,
        "3703": 29,
        "3704": 29,
        "3705": 74,
        "3706": 61,
        "3707": 213,
        "3708": 44,
        "3709": 96,
        "3710": 12,
        "3711": 166,
        "3712": 253,
        "3713": 131,
        "3714": 171,
        "3715": 70,
        "3716": 55,
        "3717": 18,
        "3718": 43,
        "3719": 137,
        "3720": 228,
        "3721": 201,
        "3722": 202,
        "3723": 154,
        "3724": 157,
        "3725": 33,
        "3726": 210,
        "3727": 255,
        "3728": 201,
        "3729": 65,
        "3730": 144,
        "3731": 88,
        "3732": 130,
        "3733": 156,
        "3734": 190,
        "3735": 253,
        "3736": 34,
        "3737": 56,
        "3738": 122,
        "3739": 218,
        "3740": 213,
        "3741": 206,
        "3742": 87,
        "3743": 8,
        "3744": 83,
        "3745": 227,
        "3746": 179,
        "3747": 105,
        "3748": 230,
        "3749": 140,
        "3750": 41,
        "3751": 28,
        "3752": 111,
        "3753": 61,
        "3754": 111,
        "3755": 8,
        "3756": 5,
        "3757": 255,
        "3758": 170,
        "3759": 58,
        "3760": 178,
        "3761": 115,
        "3762": 151,
        "3763": 153,
        "3764": 179,
        "3765": 254,
        "3766": 218,
        "3767": 47,
        "3768": 227,
        "3769": 236,
        "3770": 107,
        "3771": 116,
        "3772": 158,
        "3773": 202,
        "3774": 248,
        "3775": 33,
        "3776": 37,
        "3777": 46,
        "3778": 173,
        "3779": 110,
        "3780": 21,
        "3781": 51,
        "3782": 201,
        "3783": 148,
        "3784": 148,
        "3785": 143,
        "3786": 177,
        "3787": 179,
        "3788": 109,
        "3789": 229,
        "3790": 8,
        "3791": 105,
        "3792": 226,
        "3793": 61,
        "3794": 136,
        "3795": 213,
        "3796": 92,
        "3797": 165,
        "3798": 134,
        "3799": 202,
        "3800": 152,
        "3801": 144,
        "3802": 113,
        "3803": 147,
        "3804": 70,
        "3805": 168,
        "3806": 90,
        "3807": 156,
        "3808": 91,
        "3809": 233,
        "3810": 1,
        "3811": 30,
        "3812": 113,
        "3813": 72,
        "3814": 30,
        "3815": 215,
        "3816": 104,
        "3817": 37,
        "3818": 24,
        "3819": 24,
        "3820": 120,
        "3821": 34,
        "3822": 182,
        "3823": 67,
        "3824": 88,
        "3825": 108,
        "3826": 168,
        "3827": 57,
        "3828": 108,
        "3829": 236,
        "3830": 83,
        "3831": 164,
        "3832": 213,
        "3833": 11,
        "3834": 81,
        "3835": 134,
        "3836": 147,
        "3837": 224,
        "3838": 66,
        "3839": 111,
        "3840": 10,
        "3841": 23,
        "3842": 193,
        "3843": 13,
        "3844": 148,
        "3845": 202,
        "3846": 168,
        "3847": 193,
        "3848": 253,
        "3849": 82,
        "3850": 189,
        "3851": 244,
        "3852": 17,
        "3853": 89,
        "3854": 203,
        "3855": 117,
        "3856": 155,
        "3857": 77,
        "3858": 236,
        "3859": 166,
        "3860": 154,
        "3861": 219,
        "3862": 248,
        "3863": 6,
        "3864": 83,
        "3865": 58,
        "3866": 194,
        "3867": 88,
        "3868": 97,
        "3869": 5,
        "3870": 9,
        "3871": 248,
        "3872": 164,
        "3873": 65,
        "3874": 254,
        "3875": 19,
        "3876": 199,
        "3877": 145,
        "3878": 240,
        "3879": 78,
        "3880": 210,
        "3881": 104,
        "3882": 106,
        "3883": 241,
        "3884": 190,
        "3885": 90,
        "3886": 99,
        "3887": 31,
        "3888": 143,
        "3889": 254,
        "3890": 191,
        "3891": 77,
        "3892": 154,
        "3893": 50,
        "3894": 220,
        "3895": 53,
        "3896": 107,
        "3897": 13,
        "3898": 255,
        "3899": 127,
        "3900": 246,
        "3901": 120,
        "3902": 9,
        "3903": 199,
        "3904": 138,
        "3905": 173,
        "3906": 63,
        "3907": 88,
        "3908": 114,
        "3909": 61,
        "3910": 123,
        "3911": 226,
        "3912": 19,
        "3913": 20,
        "3914": 77,
        "3915": 144,
        "3916": 193,
        "3917": 24,
        "3918": 199,
        "3919": 118,
        "3920": 0,
        "3921": 112,
        "3922": 78,
        "3923": 89,
        "3924": 246,
        "3925": 200,
        "3926": 196,
        "3927": 250,
        "3928": 43,
        "3929": 123,
        "3930": 202,
        "3931": 89,
        "3932": 148,
        "3933": 138,
        "3934": 156,
        "3935": 218,
        "3936": 12,
        "3937": 83,
        "3938": 213,
        "3939": 242,
        "3940": 90,
        "3941": 205,
        "3942": 241,
        "3943": 230,
        "3944": 116,
        "3945": 36,
        "3946": 104,
        "3947": 95,
        "3948": 165,
        "3949": 221,
        "3950": 192,
        "3951": 158,
        "3952": 40,
        "3953": 24,
        "3954": 197,
        "3955": 238,
        "3956": 69,
        "3957": 85,
        "3958": 55,
        "3959": 60,
        "3960": 186,
        "3961": 239,
        "3962": 126,
        "3963": 228,
        "3964": 79,
        "3965": 56,
        "3966": 242,
        "3967": 78,
        "3968": 228,
        "3969": 121,
        "3970": 225,
        "3971": 201,
        "3972": 221,
        "3973": 86,
        "3974": 168,
        "3975": 169,
        "3976": 231,
        "3977": 219,
        "3978": 47,
        "3979": 155,
        "3980": 182,
        "3981": 150,
        "3982": 179,
        "3983": 118,
        "3984": 146,
        "3985": 146,
        "3986": 236,
        "3987": 45,
        "3988": 74,
        "3989": 72,
        "3990": 191,
        "3991": 118,
        "3992": 96,
        "3993": 15,
        "3994": 238,
        "3995": 68,
        "3996": 251,
        "3997": 215,
        "3998": 185,
        "3999": 201,
        "4000": 55,
        "4001": 129,
        "4002": 142,
        "4003": 238,
        "4004": 169,
        "4005": 91,
        "4006": 197,
        "4007": 205,
        "4008": 46,
        "4009": 242,
        "4010": 20,
        "4011": 189,
        "4012": 118,
        "4013": 156,
        "4014": 62,
        "4015": 39,
        "4016": 215,
        "4017": 28,
        "4018": 50,
        "4019": 232,
        "4020": 23,
        "4021": 56,
        "4022": 246,
        "4023": 52,
        "4024": 244,
        "4025": 176,
        "4026": 149,
        "4027": 97,
        "4028": 52,
        "4029": 243,
        "4030": 112,
        "4031": 45,
        "4032": 53,
        "4033": 227,
        "4034": 142,
        "4035": 165,
        "4036": 80,
        "4037": 166,
        "4038": 200,
        "4039": 233,
        "4040": 162,
        "4041": 60,
        "4042": 200,
        "4043": 134,
        "4044": 150,
        "4045": 45,
        "4046": 130,
        "4047": 130,
        "4048": 171,
        "4049": 249,
        "4050": 124,
        "4051": 224,
        "4052": 92,
        "4053": 238,
        "4054": 185,
        "4055": 53,
        "4056": 121,
        "4057": 20,
        "4058": 74,
        "4059": 6,
        "4060": 67,
        "4061": 207,
        "4062": 175,
        "4063": 109,
        "4064": 114,
        "4065": 187,
        "4066": 132,
        "4067": 221,
        "4068": 220,
        "4069": 238,
        "4070": 36,
        "4071": 43,
        "4072": 106,
        "4073": 190,
        "4074": 42,
        "4075": 6,
        "4076": 141,
        "4077": 26,
        "4078": 48,
        "4079": 64,
        "4080": 153,
        "4081": 213,
        "4082": 209,
        "4083": 0,
        "4084": 182,
        "4085": 49,
        "4086": 12,
        "4087": 169,
        "4088": 113,
        "4089": 227,
        "4090": 49,
        "4091": 20,
        "4092": 245,
        "4093": 43,
        "4094": 24,
        "4095": 211,
        "4096": 61,
        "4097": 239,
        "4098": 114,
        "4099": 179,
        "4100": 109,
        "4101": 144,
        "4102": 158,
        "4103": 48,
        "4104": 142,
        "4105": 247,
        "4106": 237,
        "4107": 85,
        "4108": 151,
        "4109": 142,
        "4110": 153,
        "4111": 165,
        "4112": 99,
        "4113": 202,
        "4114": 174,
        "4115": 233,
        "4116": 48,
        "4117": 176,
        "4118": 39,
        "4119": 139,
        "4120": 16,
        "4121": 217,
        "4122": 191,
        "4123": 45,
        "4124": 220,
        "4125": 125,
        "4126": 122,
        "4127": 244,
        "4128": 202,
        "4129": 202,
        "4130": 234,
        "4131": 248,
        "4132": 161,
        "4133": 108,
        "4134": 202,
        "4135": 36,
        "4136": 211,
        "4137": 244,
        "4138": 117,
        "4139": 122,
        "4140": 135,
        "4141": 144,
        "4142": 69,
        "4143": 162,
        "4144": 235,
        "4145": 144,
        "4146": 204,
        "4147": 24,
        "4148": 197,
        "4149": 30,
        "4150": 100,
        "4151": 191,
        "4152": 168,
        "4153": 216,
        "4154": 193,
        "4155": 178,
        "4156": 224,
        "4157": 143,
        "4158": 56,
        "4159": 236,
        "4160": 233,
        "4161": 71,
        "4162": 52,
        "4163": 245,
        "4164": 112,
        "4165": 25,
        "4166": 115,
        "4167": 88,
        "4168": 132,
        "4169": 170,
        "4170": 100,
        "4171": 77,
        "4172": 203,
        "4173": 125,
        "4174": 237,
        "4175": 202,
        "4176": 217,
        "4177": 242,
        "4178": 210,
        "4179": 176,
        "4180": 202,
        "4181": 31,
        "4182": 222,
        "4183": 199,
        "4184": 34,
        "4185": 213,
        "4186": 131,
        "4187": 55,
        "4188": 145,
        "4189": 203,
        "4190": 160,
        "4191": 35,
        "4192": 46,
        "4193": 33,
        "4194": 240,
        "4195": 178,
        "4196": 169,
        "4197": 119,
        "4198": 138,
        "4199": 197,
        "4200": 248,
        "4201": 224,
        "4202": 234,
        "4203": 192,
        "4204": 80,
        "4205": 90,
        "4206": 56,
        "4207": 1,
        "4208": 102,
        "4209": 48,
        "4210": 90,
        "4211": 77,
        "4212": 226,
        "4213": 14,
        "4214": 247,
        "4215": 185,
        "4216": 213,
        "4217": 219,
        "4218": 236,
        "4219": 147,
        "4220": 184,
        "4221": 116,
        "4222": 134,
        "4223": 51,
        "4224": 144,
        "4225": 130,
        "4226": 183,
        "4227": 231,
        "4228": 94,
        "4229": 62,
        "4230": 178,
        "4231": 27,
        "4232": 112,
        "4233": 68,
        "4234": 180,
        "4235": 203,
        "4236": 240,
        "4237": 133,
        "4238": 80,
        "4239": 65,
        "4240": 231,
        "4241": 2,
        "4242": 118,
        "4243": 195,
        "4244": 225,
        "4245": 129,
        "4246": 179,
        "4247": 154,
        "4248": 102,
        "4249": 185,
        "4250": 207,
        "4251": 47,
        "4252": 159,
        "4253": 28,
        "4254": 32,
        "4255": 83,
        "4256": 166,
        "4257": 105,
        "4258": 133,
        "4259": 25,
        "4260": 227,
        "4261": 205,
        "4262": 50,
        "4263": 170,
        "4264": 221,
        "4265": 25,
        "4266": 14,
        "4267": 196,
        "4268": 93,
        "4269": 55,
        "4270": 136,
        "4271": 86,
        "4272": 172,
        "4273": 136,
        "4274": 240,
        "4275": 226,
        "4276": 76,
        "4277": 74,
        "4278": 191,
        "4279": 151,
        "4280": 185,
        "4281": 212,
        "4282": 1,
        "4283": 143,
        "4284": 37,
        "4285": 125,
        "4286": 166,
        "4287": 10,
        "4288": 80,
        "4289": 223,
        "4290": 94,
        "4291": 204,
        "4292": 223,
        "4293": 109,
        "4294": 251,
        "4295": 247,
        "4296": 232,
        "4297": 60,
        "4298": 188,
        "4299": 34,
        "4300": 37,
        "4301": 52,
        "4302": 227,
        "4303": 136,
        "4304": 71,
        "4305": 134,
        "4306": 166,
        "4307": 136,
        "4308": 195,
        "4309": 51,
        "4310": 129,
        "4311": 130,
        "4312": 35,
        "4313": 120,
        "4314": 112,
        "4315": 197,
        "4316": 67,
        "4317": 197,
        "4318": 88,
        "4319": 252,
        "4320": 146,
        "4321": 145,
        "4322": 28,
        "4323": 49,
        "4324": 136,
        "4325": 74,
        "4326": 72,
        "4327": 86,
        "4328": 223,
        "4329": 117,
        "4330": 5,
        "4331": 93,
        "4332": 120,
        "4333": 225,
        "4334": 100,
        "4335": 253,
        "4336": 98,
        "4337": 26,
        "4338": 163,
        "4339": 56,
        "4340": 171,
        "4341": 56,
        "4342": 69,
        "4343": 235,
        "4344": 209,
        "4345": 208,
        "4346": 130,
        "4347": 97,
        "4348": 9,
        "4349": 140,
        "4350": 128,
        "4351": 38,
        "4352": 55,
        "4353": 117,
        "4354": 6,
        "4355": 229,
        "4356": 159,
        "4357": 49,
        "4358": 240,
        "4359": 2,
        "4360": 254,
        "4361": 236,
        "4362": 95,
        "4363": 162,
        "4364": 124,
        "4365": 209,
        "4366": 222,
        "4367": 183,
        "4368": 58,
        "4369": 155,
        "4370": 158,
        "4371": 129,
        "4372": 66,
        "4373": 58,
        "4374": 92,
        "4375": 126,
        "4376": 54,
        "4377": 188,
        "4378": 250,
        "4379": 137,
        "4380": 35,
        "4381": 198,
        "4382": 177,
        "4383": 166,
        "4384": 78,
        "4385": 98,
        "4386": 105,
        "4387": 8,
        "4388": 147,
        "4389": 86,
        "4390": 98,
        "4391": 203,
        "4392": 4,
        "4393": 251,
        "4394": 83,
        "4395": 29,
        "4396": 223,
        "4397": 25,
        "4398": 196,
        "4399": 157,
        "4400": 45,
        "4401": 126,
        "4402": 214,
        "4403": 29,
        "4404": 138,
        "4405": 230,
        "4406": 103,
        "4407": 163,
        "4408": 123,
        "4409": 89,
        "4410": 233,
        "4411": 108,
        "4412": 251,
        "4413": 28,
        "4414": 216,
        "4415": 12,
        "4416": 54,
        "4417": 187,
        "4418": 65,
        "4419": 26,
        "4420": 5,
        "4421": 116,
        "4422": 132,
        "4423": 144,
        "4424": 147,
        "4425": 182,
        "4426": 102,
        "4427": 198,
        "4428": 106,
        "4429": 113,
        "4430": 233,
        "4431": 245,
        "4432": 198,
        "4433": 226,
        "4434": 177,
        "4435": 173,
        "4436": 97,
        "4437": 1,
        "4438": 35,
        "4439": 32,
        "4440": 221,
        "4441": 32,
        "4442": 181,
        "4443": 168,
        "4444": 151,
        "4445": 158,
        "4446": 45,
        "4447": 85,
        "4448": 130,
        "4449": 141,
        "4450": 187,
        "4451": 134,
        "4452": 149,
        "4453": 240,
        "4454": 241,
        "4455": 133,
        "4456": 205,
        "4457": 202,
        "4458": 143,
        "4459": 155,
        "4460": 58,
        "4461": 217,
        "4462": 129,
        "4463": 23,
        "4464": 200,
        "4465": 3,
        "4466": 133,
        "4467": 46,
        "4468": 23,
        "4469": 204,
        "4470": 175,
        "4471": 97,
        "4472": 113,
        "4473": 235,
        "4474": 19,
        "4475": 222,
        "4476": 6,
        "4477": 158,
        "4478": 7,
        "4479": 24,
        "4480": 175,
        "4481": 178,
        "4482": 254,
        "4483": 178,
        "4484": 120,
        "4485": 8,
        "4486": 144,
        "4487": 50,
        "4488": 73,
        "4489": 171,
        "4490": 149,
        "4491": 191,
        "4492": 12,
        "4493": 124,
        "4494": 216,
        "4495": 200,
        "4496": 112,
        "4497": 1,
        "4498": 240,
        "4499": 110,
        "4500": 246,
        "4501": 141,
        "4502": 68,
        "4503": 123,
        "4504": 83,
        "4505": 231,
        "4506": 227,
        "4507": 116,
        "4508": 36,
        "4509": 54,
        "4510": 190,
        "4511": 145,
        "4512": 236,
        "4513": 254,
        "4514": 15,
        "4515": 244,
        "4516": 100,
        "4517": 4,
        "4518": 54,
        "4519": 211,
        "4520": 192,
        "4521": 100,
        "4522": 196,
        "4523": 63,
        "4524": 119,
        "4525": 12,
        "4526": 138,
        "4527": 144,
        "4528": 160,
        "4529": 172,
        "4530": 228,
        "4531": 129,
        "4532": 231,
        "4533": 185,
        "4534": 23,
        "4535": 234,
        "4536": 91,
        "4537": 243,
        "4538": 251,
        "4539": 61,
        "4540": 16,
        "4541": 188,
        "4542": 107,
        "4543": 106,
        "4544": 160,
        "4545": 29,
        "4546": 99,
        "4547": 210,
        "4548": 195,
        "4549": 175,
        "4550": 221,
        "4551": 14,
        "4552": 182,
        "4553": 241,
        "4554": 196,
        "4555": 167,
        "4556": 209,
        "4557": 141,
        "4558": 137,
        "4559": 197,
        "4560": 148,
        "4561": 56,
        "4562": 62,
        "4563": 200,
        "4564": 107,
        "4565": 204,
        "4566": 41,
        "4567": 38,
        "4568": 83,
        "4569": 172,
        "4570": 72,
        "4571": 65,
        "4572": 172,
        "4573": 176,
        "4574": 87,
        "4575": 117,
        "4576": 246,
        "4577": 36,
        "4578": 152,
        "4579": 109,
        "4580": 189,
        "4581": 116,
        "4582": 36,
        "4583": 22,
        "4584": 17,
        "4585": 252,
        "4586": 37,
        "4587": 218,
        "4588": 1,
        "4589": 178,
        "4590": 167,
        "4591": 85,
        "4592": 197,
        "4593": 14,
        "4594": 180,
        "4595": 69,
        "4596": 212,
        "4597": 195,
        "4598": 210,
        "4599": 233,
        "4600": 162,
        "4601": 236,
        "4602": 141,
        "4603": 47,
        "4604": 236,
        "4605": 189,
        "4606": 246,
        "4607": 195,
        "4608": 131,
        "4609": 41,
        "4610": 255,
        "4611": 71,
        "4612": 162,
        "4613": 173,
        "4614": 222,
        "4615": 251,
        "4616": 237,
        "4617": 241,
        "4618": 84,
        "4619": 103,
        "4620": 185,
        "4621": 80,
        "4622": 172,
        "4623": 232,
        "4624": 212,
        "4625": 81,
        "4626": 76,
        "4627": 62,
        "4628": 9,
        "4629": 8,
        "4630": 253,
        "4631": 157,
        "4632": 100,
        "4633": 200,
        "4634": 38,
        "4635": 138,
        "4636": 77,
        "4637": 103,
        "4638": 13,
        "4639": 52,
        "4640": 149,
        "4641": 248,
        "4642": 4,
        "4643": 183,
        "4644": 41,
        "4645": 179,
        "4646": 173,
        "4647": 255,
        "4648": 129,
        "4649": 127,
        "4650": 234,
        "4651": 71,
        "4652": 73,
        "4653": 197,
        "4654": 126,
        "4655": 198,
        "4656": 151,
        "4657": 226,
        "4658": 159,
        "4659": 194,
        "4660": 110,
        "4661": 211,
        "4662": 158,
        "4663": 61,
        "4664": 78,
        "4665": 24,
        "4666": 132,
        "4667": 203,
        "4668": 70,
        "4669": 20,
        "4670": 91,
        "4671": 245,
        "4672": 26,
        "4673": 117,
        "4674": 192,
        "4675": 2,
        "4676": 62,
        "4677": 67,
        "4678": 6,
        "4679": 125,
        "4680": 232,
        "4681": 76,
        "4682": 29,
        "4683": 143,
        "4684": 137,
        "4685": 183,
        "4686": 128,
        "4687": 2,
        "4688": 175,
        "4689": 61,
        "4690": 23,
        "4691": 189,
        "4692": 97,
        "4693": 77,
        "4694": 55,
        "4695": 145,
        "4696": 114,
        "4697": 232,
        "4698": 55,
        "4699": 210,
        "4700": 215,
        "4701": 200,
        "4702": 229,
        "4703": 231,
        "4704": 49,
        "4705": 235,
        "4706": 243,
        "4707": 50,
        "4708": 233,
        "4709": 217,
        "4710": 145,
        "4711": 221,
        "4712": 6,
        "4713": 139,
        "4714": 221,
        "4715": 139,
        "4716": 157,
        "4717": 238,
        "4718": 205,
        "4719": 241,
        "4720": 137,
        "4721": 22,
        "4722": 123,
        "4723": 15,
        "4724": 65,
        "4725": 50,
        "4726": 188,
        "4727": 43,
        "4728": 222,
        "4729": 13,
        "4730": 193,
        "4731": 17,
        "4732": 243,
        "4733": 195,
        "4734": 6,
        "4735": 4,
        "4736": 213,
        "4737": 236,
        "4738": 111,
        "4739": 43,
        "4740": 148,
        "4741": 207,
        "4742": 177,
        "4743": 47,
        "4744": 195,
        "4745": 166,
        "4746": 228,
        "4747": 188,
        "4748": 116,
        "4749": 159,
        "4750": 91,
        "4751": 220,
        "4752": 32,
        "4753": 208,
        "4754": 73,
        "4755": 43,
        "4756": 232,
        "4757": 173,
        "4758": 173,
        "4759": 52,
        "4760": 201,
        "4761": 191,
        "4762": 160,
        "4763": 213,
        "4764": 9,
        "4765": 43,
        "4766": 255,
        "4767": 135,
        "4768": 87,
        "4769": 99,
        "4770": 182,
        "4771": 71,
        "4772": 32,
        "4773": 48,
        "4774": 210,
        "4775": 171,
        "4776": 214,
        "4777": 121,
        "4778": 40,
        "4779": 117,
        "4780": 47,
        "4781": 12,
        "4782": 212,
        "4783": 99,
        "4784": 168,
        "4785": 244,
        "4786": 115,
        "4787": 170,
        "4788": 182,
        "4789": 160,
        "4790": 158,
        "4791": 37,
        "4792": 202,
        "4793": 72,
        "4794": 93,
        "4795": 241,
        "4796": 183,
        "4797": 223,
        "4798": 22,
        "4799": 159,
        "4800": 187,
        "4801": 191,
        "4802": 155,
        "4803": 129,
        "4804": 55,
        "4805": 20,
        "4806": 180,
        "4807": 248,
        "4808": 32,
        "4809": 55,
        "4810": 189,
        "4811": 180,
        "4812": 187,
        "4813": 68,
        "4814": 148,
        "4815": 34,
        "4816": 9,
        "4817": 19,
        "4818": 62,
        "4819": 243,
        "4820": 96,
        "4821": 41,
        "4822": 14,
        "4823": 158,
        "4824": 103,
        "4825": 174,
        "4826": 68,
        "4827": 198,
        "4828": 254,
        "4829": 40,
        "4830": 112,
        "4831": 104,
        "4832": 27,
        "4833": 205,
        "4834": 128,
        "4835": 191,
        "4836": 138,
        "4837": 121,
        "4838": 181,
        "4839": 127,
        "4840": 116,
        "4841": 234,
        "4842": 3,
        "4843": 34,
        "4844": 104,
        "4845": 156,
        "4846": 134,
        "4847": 17,
        "4848": 16,
        "4849": 141,
        "4850": 166,
        "4851": 71,
        "4852": 235,
        "4853": 154,
        "4854": 47,
        "4855": 0,
        "4856": 221,
        "4857": 131,
        "4858": 147,
        "4859": 14,
        "4860": 56,
        "4861": 96,
        "4862": 202,
        "4863": 39,
        "4864": 238,
        "4865": 166,
        "4866": 241,
        "4867": 105,
        "4868": 131,
        "4869": 145,
        "4870": 176,
        "4871": 236,
        "4872": 123,
        "4873": 203,
        "4874": 81,
        "4875": 130,
        "4876": 212,
        "4877": 211,
        "4878": 93,
        "4879": 130,
        "4880": 77,
        "4881": 49,
        "4882": 3,
        "4883": 6,
        "4884": 5,
        "4885": 216,
        "4886": 237,
        "4887": 34,
        "4888": 141,
        "4889": 164,
        "4890": 4,
        "4891": 7,
        "4892": 164,
        "4893": 16,
        "4894": 108,
        "4895": 229,
        "4896": 234,
        "4897": 141,
        "4898": 133,
        "4899": 44,
        "4900": 56,
        "4901": 114,
        "4902": 163,
        "4903": 224,
        "4904": 222,
        "4905": 28,
        "4906": 249,
        "4907": 45,
        "4908": 208,
        "4909": 142,
        "4910": 200,
        "4911": 76,
        "4912": 103,
        "4913": 79,
        "4914": 215,
        "4915": 250,
        "4916": 248,
        "4917": 185,
        "4918": 111,
        "4919": 141,
        "4920": 189,
        "4921": 55,
        "4922": 65,
        "4923": 67,
        "4924": 206,
        "4925": 163,
        "4926": 196,
        "4927": 34,
        "4928": 34,
        "4929": 206,
        "4930": 172,
        "4931": 114,
        "4932": 77,
        "4933": 177,
        "4934": 64,
        "4935": 145,
        "4936": 1,
        "4937": 148,
        "4938": 187,
        "4939": 156,
        "4940": 4,
        "4941": 33,
        "4942": 26,
        "4943": 89,
        "4944": 64,
        "4945": 32,
        "4946": 245,
        "4947": 82,
        "4948": 185,
        "4949": 143,
        "4950": 196,
        "4951": 182,
        "4952": 230,
        "4953": 216,
        "4954": 80,
        "4955": 15,
        "4956": 223,
        "4957": 106,
        "4958": 192,
        "4959": 222,
        "4960": 159,
        "4961": 13,
        "4962": 156,
        "4963": 46,
        "4964": 44,
        "4965": 106,
        "4966": 56,
        "4967": 246,
        "4968": 221,
        "4969": 227,
        "4970": 179,
        "4971": 26,
        "4972": 51,
        "4973": 246,
        "4974": 147,
        "4975": 48,
        "4976": 87,
        "4977": 247,
        "4978": 66,
        "4979": 86,
        "4980": 57,
        "4981": 45,
        "4982": 86,
        "4983": 214,
        "4984": 105,
        "4985": 90,
        "4986": 152,
        "4987": 181,
        "4988": 173,
        "4989": 44,
        "4990": 250,
        "4991": 112,
        "4992": 204,
        "4993": 150,
        "4994": 151,
        "4995": 104,
        "4996": 117,
        "4997": 225,
        "4998": 215,
        "4999": 208,
        "5000": 145,
        "5001": 240,
        "5002": 69,
        "5003": 238,
        "5004": 90,
        "5005": 67,
        "5006": 189,
        "5007": 15,
        "5008": 114,
        "5009": 168,
        "5010": 207,
        "5011": 2,
        "5012": 191,
        "5013": 2,
        "5014": 254,
        "5015": 59,
        "5016": 65,
        "5017": 92,
        "5018": 188,
        "5019": 124,
        "5020": 159,
        "5021": 215,
        "5022": 108,
        "5023": 134,
        "5024": 180,
        "5025": 128,
        "5026": 11,
        "5027": 63,
        "5028": 87,
        "5029": 107,
        "5030": 200,
        "5031": 228,
        "5032": 228,
        "5033": 173,
        "5034": 47,
        "5035": 27,
        "5036": 122,
        "5037": 4,
        "5038": 140,
        "5039": 103,
        "5040": 26,
        "5041": 37,
        "5042": 105,
        "5043": 55,
        "5044": 177,
        "5045": 140,
        "5046": 217,
        "5047": 224,
        "5048": 170,
        "5049": 22,
        "5050": 184,
        "5051": 38,
        "5052": 109,
        "5053": 47,
        "5054": 171,
        "5055": 162,
        "5056": 112,
        "5057": 185,
        "5058": 69,
        "5059": 232,
        "5060": 247,
        "5061": 114,
        "5062": 22,
        "5063": 130,
        "5064": 97,
        "5065": 127,
        "5066": 144,
        "5067": 42,
        "5068": 31,
        "5069": 8,
        "5070": 148,
        "5071": 80,
        "5072": 48,
        "5073": 255,
        "5074": 195,
        "5075": 191,
        "5076": 15,
        "5077": 172,
        "5078": 19,
        "5079": 111,
        "5080": 241,
        "5081": 78,
        "5082": 179,
        "5083": 237,
        "5084": 117,
        "5085": 52,
        "5086": 105,
        "5087": 212,
        "5088": 35,
        "5089": 34,
        "5090": 124,
        "5091": 28,
        "5092": 181,
        "5093": 10,
        "5094": 10,
        "5095": 233,
        "5096": 109,
        "5097": 110,
        "5098": 42,
        "5099": 46,
        "5100": 102,
        "5101": 135,
        "5102": 238,
        "5103": 233,
        "5104": 95,
        "5105": 27,
        "5106": 49,
        "5107": 156,
        "5108": 162,
        "5109": 109,
        "5110": 121,
        "5111": 112,
        "5112": 100,
        "5113": 237,
        "5114": 242,
        "5115": 46,
        "5116": 74,
        "5117": 148,
        "5118": 39,
        "5119": 100,
        "5120": 93,
        "5121": 43,
        "5122": 13,
        "5123": 72,
        "5124": 214,
        "5125": 39,
        "5126": 163,
        "5127": 92,
        "5128": 82,
        "5129": 193,
        "5130": 169,
        "5131": 53,
        "5132": 241,
        "5133": 48,
        "5134": 36,
        "5135": 11,
        "5136": 20,
        "5137": 61,
        "5138": 178,
        "5139": 255,
        "5140": 177,
        "5141": 223,
        "5142": 106,
        "5143": 120,
        "5144": 205,
        "5145": 0,
        "5146": 196,
        "5147": 153,
        "5148": 138,
        "5149": 255,
        "5150": 103,
        "5151": 205,
        "5152": 181,
        "5153": 81,
        "5154": 166,
        "5155": 91,
        "5156": 204,
        "5157": 224,
        "5158": 241,
        "5159": 226,
        "5160": 214,
        "5161": 20,
        "5162": 7,
        "5163": 157,
        "5164": 229,
        "5165": 114,
        "5166": 201,
        "5167": 246,
        "5168": 156,
        "5169": 132,
        "5170": 210,
        "5171": 166,
        "5172": 46,
        "5173": 207,
        "5174": 237,
        "5175": 82,
        "5176": 33,
        "5177": 48,
        "5178": 173,
        "5179": 234,
        "5180": 147,
        "5181": 124,
        "5182": 141,
        "5183": 165,
        "5184": 53,
        "5185": 102,
        "5186": 248,
        "5187": 162,
        "5188": 149,
        "5189": 250,
        "5190": 98,
        "5191": 155,
        "5192": 207,
        "5193": 249,
        "5194": 73,
        "5195": 47,
        "5196": 25,
        "5197": 148,
        "5198": 214,
        "5199": 152,
        "5200": 58,
        "5201": 143,
        "5202": 249,
        "5203": 168,
        "5204": 80,
        "5205": 199,
        "5206": 133,
        "5207": 142,
        "5208": 151,
        "5209": 9,
        "5210": 5,
        "5211": 215,
        "5212": 15,
        "5213": 209,
        "5214": 8,
        "5215": 211,
        "5216": 11,
        "5217": 95,
        "5218": 253,
        "5219": 55,
        "5220": 165,
        "5221": 144,
        "5222": 102,
        "5223": 245,
        "5224": 13,
        "5225": 219,
        "5226": 69,
        "5227": 89,
        "5228": 187,
        "5229": 176,
        "5230": 196,
        "5231": 43,
        "5232": 111,
        "5233": 56,
        "5234": 7,
        "5235": 248,
        "5236": 42,
        "5237": 165,
        "5238": 115,
        "5239": 137,
        "5240": 168,
        "5241": 81,
        "5242": 127,
        "5243": 161,
        "5244": 114,
        "5245": 156,
        "5246": 149,
        "5247": 83,
        "5248": 0,
        "5249": 210,
        "5250": 102,
        "5251": 120,
        "5252": 116,
        "5253": 251,
        "5254": 216,
        "5255": 132,
        "5256": 190,
        "5257": 14,
        "5258": 226,
        "5259": 237,
        "5260": 225,
        "5261": 197,
        "5262": 81,
        "5263": 98,
        "5264": 68,
        "5265": 121,
        "5266": 111,
        "5267": 196,
        "5268": 124,
        "5269": 43,
        "5270": 67,
        "5271": 220,
        "5272": 25,
        "5273": 136,
        "5274": 104,
        "5275": 213,
        "5276": 30,
        "5277": 36,
        "5278": 51,
        "5279": 118,
        "5280": 5,
        "5281": 9,
        "5282": 249,
        "5283": 201,
        "5284": 92,
        "5285": 80,
        "5286": 51,
        "5287": 79,
        "5288": 32,
        "5289": 198,
        "5290": 223,
        "5291": 109,
        "5292": 68,
        "5293": 137,
        "5294": 215,
        "5295": 227,
        "5296": 87,
        "5297": 18,
        "5298": 105,
        "5299": 66,
        "5300": 89,
        "5301": 210,
        "5302": 218,
        "5303": 23,
        "5304": 140,
        "5305": 165,
        "5306": 85,
        "5307": 166,
        "5308": 133,
        "5309": 5,
        "5310": 24,
        "5311": 7,
        "5312": 255,
        "5313": 16,
        "5314": 155,
        "5315": 245,
        "5316": 76,
        "5317": 80,
        "5318": 179,
        "5319": 70,
        "5320": 169,
        "5321": 97,
        "5322": 22,
        "5323": 123,
        "5324": 186,
        "5325": 247,
        "5326": 51,
        "5327": 227,
        "5328": 114,
        "5329": 170,
        "5330": 43,
        "5331": 51,
        "5332": 81,
        "5333": 104,
        "5334": 44,
        "5335": 57,
        "5336": 12,
        "5337": 248,
        "5338": 31,
        "5339": 149,
        "5340": 20,
        "5341": 73,
        "5342": 209,
        "5343": 129,
        "5344": 15,
        "5345": 253,
        "5346": 43,
        "5347": 57,
        "5348": 59,
        "5349": 155,
        "5350": 253,
        "5351": 45,
        "5352": 124,
        "5353": 89,
        "5354": 175,
        "5355": 25,
        "5356": 35,
        "5357": 74,
        "5358": 181,
        "5359": 114,
        "5360": 186,
        "5361": 103,
        "5362": 251,
        "5363": 239,
        "5364": 237,
        "5365": 168,
        "5366": 240,
        "5367": 205,
        "5368": 204,
        "5369": 203,
        "5370": 95,
        "5371": 31,
        "5372": 54,
        "5373": 138,
        "5374": 115,
        "5375": 31,
        "5376": 29,
        "5377": 41,
        "5378": 244,
        "5379": 128,
        "5380": 190,
        "5381": 9,
        "5382": 50,
        "5383": 6,
        "5384": 136,
        "5385": 119,
        "5386": 150,
        "5387": 65,
        "5388": 6,
        "5389": 93,
        "5390": 98,
        "5391": 146,
        "5392": 228,
        "5393": 110,
        "5394": 111,
        "5395": 14,
        "5396": 134,
        "5397": 115,
        "5398": 243,
        "5399": 101,
        "5400": 134,
        "5401": 239,
        "5402": 209,
        "5403": 119,
        "5404": 225,
        "5405": 118,
        "5406": 121,
        "5407": 252,
        "5408": 178,
        "5409": 70,
        "5410": 212,
        "5411": 203,
        "5412": 240,
        "5413": 46,
        "5414": 185,
        "5415": 142,
        "5416": 68,
        "5417": 79,
        "5418": 200,
        "5419": 241,
        "5420": 107,
        "5421": 183,
        "5422": 153,
        "5423": 70,
        "5424": 245,
        "5425": 178,
        "5426": 94,
        "5427": 97,
        "5428": 109,
        "5429": 143,
        "5430": 55,
        "5431": 6,
        "5432": 159,
        "5433": 255,
        "5434": 176,
        "5435": 147,
        "5436": 153,
        "5437": 165,
        "5438": 248,
        "5439": 140,
        "5440": 0,
        "5441": 3,
        "5442": 65,
        "5443": 202,
        "5444": 63,
        "5445": 25,
        "5446": 202,
        "5447": 242,
        "5448": 136,
        "5449": 92,
        "5450": 173,
        "5451": 118,
        "5452": 234,
        "5453": 231,
        "5454": 132,
        "5455": 80,
        "5456": 154,
        "5457": 68,
        "5458": 179,
        "5459": 116,
        "5460": 86,
        "5461": 157,
        "5462": 209,
        "5463": 211,
        "5464": 184,
        "5465": 164,
        "5466": 57,
        "5467": 151,
        "5468": 3,
        "5469": 30,
        "5470": 223,
        "5471": 164,
        "5472": 141,
        "5473": 131,
        "5474": 73,
        "5475": 173,
        "5476": 101,
        "5477": 116,
        "5478": 137,
        "5479": 223,
        "5480": 90,
        "5481": 66,
        "5482": 91,
        "5483": 108,
        "5484": 69,
        "5485": 188,
        "5486": 150,
        "5487": 253,
        "5488": 12,
        "5489": 118,
        "5490": 9,
        "5491": 133,
        "5492": 220,
        "5493": 46,
        "5494": 109,
        "5495": 119,
        "5496": 6,
        "5497": 144,
        "5498": 155,
        "5499": 119,
        "5500": 16,
        "5501": 96,
        "5502": 234,
        "5503": 214,
        "5504": 94,
        "5505": 57,
        "5506": 20,
        "5507": 241,
        "5508": 4,
        "5509": 19,
        "5510": 40,
        "5511": 81,
        "5512": 110,
        "5513": 97,
        "5514": 133,
        "5515": 29,
        "5516": 32,
        "5517": 166,
        "5518": 157,
        "5519": 20,
        "5520": 5,
        "5521": 54,
        "5522": 246,
        "5523": 14,
        "5524": 240,
        "5525": 63,
        "5526": 122,
        "5527": 243,
        "5528": 150,
        "5529": 114,
        "5530": 0,
        "5531": 208,
        "5532": 26,
        "5533": 112,
        "5534": 61,
        "5535": 81,
        "5536": 106,
        "5537": 91,
        "5538": 164,
        "5539": 235,
        "5540": 243,
        "5541": 60,
        "5542": 26,
        "5543": 138,
        "5544": 30,
        "5545": 99,
        "5546": 136,
        "5547": 3,
        "5548": 214,
        "5549": 167,
        "5550": 228,
        "5551": 96,
        "5552": 200,
        "5553": 78,
        "5554": 232,
        "5555": 72,
        "5556": 237,
        "5557": 5,
        "5558": 119,
        "5559": 188,
        "5560": 177,
        "5561": 22,
        "5562": 27,
        "5563": 133,
        "5564": 165,
        "5565": 148,
        "5566": 5,
        "5567": 184,
        "5568": 12,
        "5569": 250,
        "5570": 154,
        "5571": 140,
        "5572": 66,
        "5573": 73,
        "5574": 181,
        "5575": 62,
        "5576": 73,
        "5577": 193,
        "5578": 154,
        "5579": 146,
        "5580": 117,
        "5581": 129,
        "5582": 178,
        "5583": 123,
        "5584": 201,
        "5585": 228,
        "5586": 37,
        "5587": 44,
        "5588": 49,
        "5589": 207,
        "5590": 219,
        "5591": 16,
        "5592": 35,
        "5593": 97,
        "5594": 2,
        "5595": 147,
        "5596": 233,
        "5597": 252,
        "5598": 32,
        "5599": 213,
        "5600": 202,
        "5601": 56,
        "5602": 206,
        "5603": 161,
        "5604": 207,
        "5605": 21,
        "5606": 17,
        "5607": 217,
        "5608": 173,
        "5609": 144,
        "5610": 100,
        "5611": 19,
        "5612": 194,
        "5613": 182,
        "5614": 173,
        "5615": 137,
        "5616": 78,
        "5617": 67,
        "5618": 41,
        "5619": 148,
        "5620": 211,
        "5621": 175,
        "5622": 221,
        "5623": 125,
        "5624": 42,
        "5625": 178,
        "5626": 213,
        "5627": 251,
        "5628": 36,
        "5629": 20,
        "5630": 130,
        "5631": 255,
        "5632": 26,
        "5633": 193,
        "5634": 179,
        "5635": 48,
        "5636": 148,
        "5637": 15,
        "5638": 192,
        "5639": 249,
        "5640": 110,
        "5641": 112,
        "5642": 75,
        "5643": 31,
        "5644": 165,
        "5645": 182,
        "5646": 112,
        "5647": 152,
        "5648": 22,
        "5649": 197,
        "5650": 170,
        "5651": 46,
        "5652": 45,
        "5653": 24,
        "5654": 2,
        "5655": 22,
        "5656": 5,
        "5657": 75,
        "5658": 49,
        "5659": 127,
        "5660": 152,
        "5661": 141,
        "5662": 130,
        "5663": 52,
        "5664": 151,
        "5665": 220,
        "5666": 153,
        "5667": 10,
        "5668": 111,
        "5669": 196,
        "5670": 39,
        "5671": 210,
        "5672": 1,
        "5673": 104,
        "5674": 124,
        "5675": 167,
        "5676": 95,
        "5677": 49,
        "5678": 236,
        "5679": 72,
        "5680": 150,
        "5681": 236,
        "5682": 192,
        "5683": 78,
        "5684": 196,
        "5685": 31,
        "5686": 17,
        "5687": 60,
        "5688": 253,
        "5689": 135,
        "5690": 25,
        "5691": 245,
        "5692": 27,
        "5693": 234,
        "5694": 1,
        "5695": 56,
        "5696": 173,
        "5697": 41,
        "5698": 175,
        "5699": 225,
        "5700": 45,
        "5701": 227,
        "5702": 188,
        "5703": 32,
        "5704": 135,
        "5705": 202,
        "5706": 200,
        "5707": 218,
        "5708": 128,
        "5709": 6,
        "5710": 222,
        "5711": 131,
        "5712": 0,
        "5713": 235,
        "5714": 186,
        "5715": 112,
        "5716": 232,
        "5717": 247,
        "5718": 144,
        "5719": 202,
        "5720": 59,
        "5721": 240,
        "5722": 184,
        "5723": 0,
        "5724": 131,
        "5725": 52,
        "5726": 18,
        "5727": 104,
        "5728": 8,
        "5729": 51,
        "5730": 41,
        "5731": 196,
        "5732": 142,
        "5733": 231,
        "5734": 196,
        "5735": 101,
        "5736": 163,
        "5737": 243,
        "5738": 210,
        "5739": 102,
        "5740": 90,
        "5741": 235,
        "5742": 81,
        "5743": 149,
        "5744": 141,
        "5745": 122,
        "5746": 243,
        "5747": 94,
        "5748": 166,
        "5749": 217,
        "5750": 33,
        "5751": 48,
        "5752": 79,
        "5753": 146,
        "5754": 9,
        "5755": 198,
        "5756": 55,
        "5757": 63,
        "5758": 113,
        "5759": 149,
        "5760": 62,
        "5761": 177,
        "5762": 83,
        "5763": 106,
        "5764": 82,
        "5765": 116,
        "5766": 62,
        "5767": 67,
        "5768": 164,
        "5769": 188,
        "5770": 5,
        "5771": 251,
        "5772": 87,
        "5773": 215,
        "5774": 77,
        "5775": 9,
        "5776": 30,
        "5777": 71,
        "5778": 241,
        "5779": 180,
        "5780": 195,
        "5781": 77,
        "5782": 254,
        "5783": 27,
        "5784": 231,
        "5785": 81,
        "5786": 94,
        "5787": 252,
        "5788": 39,
        "5789": 162,
        "5790": 143,
        "5791": 64,
        "5792": 111,
        "5793": 174,
        "5794": 147,
        "5795": 50,
        "5796": 122,
        "5797": 38,
        "5798": 130,
        "5799": 62,
        "5800": 50,
        "5801": 218,
        "5802": 133,
        "5803": 39,
        "5804": 93,
        "5805": 150,
        "5806": 72,
        "5807": 51,
        "5808": 3,
        "5809": 74,
        "5810": 175,
        "5811": 20,
        "5812": 222,
        "5813": 232,
        "5814": 120,
        "5815": 26,
        "5816": 107,
        "5817": 91,
        "5818": 149,
        "5819": 113,
        "5820": 74,
        "5821": 216,
        "5822": 35,
        "5823": 67,
        "5824": 238,
        "5825": 197,
        "5826": 24,
        "5827": 172,
        "5828": 254,
        "5829": 21,
        "5830": 54,
        "5831": 248,
        "5832": 210,
        "5833": 49,
        "5834": 177,
        "5835": 252,
        "5836": 113,
        "5837": 117,
        "5838": 49,
        "5839": 219,
        "5840": 13,
        "5841": 24,
        "5842": 109,
        "5843": 161,
        "5844": 144,
        "5845": 179,
        "5846": 185,
        "5847": 164,
        "5848": 188,
        "5849": 187,
        "5850": 31,
        "5851": 218,
        "5852": 193,
        "5853": 1,
        "5854": 179,
        "5855": 4,
        "5856": 104,
        "5857": 163,
        "5858": 18,
        "5859": 238,
        "5860": 243,
        "5861": 11,
        "5862": 188,
        "5863": 185,
        "5864": 251,
        "5865": 141,
        "5866": 135,
        "5867": 216,
        "5868": 113,
        "5869": 237,
        "5870": 209,
        "5871": 164,
        "5872": 87,
        "5873": 206,
        "5874": 107,
        "5875": 10,
        "5876": 33,
        "5877": 17,
        "5878": 78,
        "5879": 65,
        "5880": 130,
        "5881": 65,
        "5882": 217,
        "5883": 244,
        "5884": 139,
        "5885": 74,
        "5886": 14,
        "5887": 158,
        "5888": 85,
        "5889": 79,
        "5890": 13,
        "5891": 172,
        "5892": 48,
        "5893": 246,
        "5894": 55,
        "5895": 193,
        "5896": 17,
        "5897": 193,
        "5898": 243,
        "5899": 220,
        "5900": 162,
        "5901": 35,
        "5902": 227,
        "5903": 106,
        "5904": 97,
        "5905": 80,
        "5906": 135,
        "5907": 23,
        "5908": 113,
        "5909": 187,
        "5910": 164,
        "5911": 100,
        "5912": 246,
        "5913": 152,
        "5914": 138,
        "5915": 184,
        "5916": 138,
        "5917": 51,
        "5918": 173,
        "5919": 7,
        "5920": 77,
        "5921": 213,
        "5922": 154,
        "5923": 223,
        "5924": 213,
        "5925": 31,
        "5926": 79,
        "5927": 96,
        "5928": 40,
        "5929": 104,
        "5930": 165,
        "5931": 78,
        "5932": 169,
        "5933": 225,
        "5934": 116,
        "5935": 113,
        "5936": 27,
        "5937": 46,
        "5938": 99,
        "5939": 178,
        "5940": 10,
        "5941": 221,
        "5942": 128,
        "5943": 136,
        "5944": 152,
        "5945": 209,
        "5946": 160,
        "5947": 185,
        "5948": 64,
        "5949": 112,
        "5950": 73,
        "5951": 46,
        "5952": 90,
        "5953": 230,
        "5954": 10,
        "5955": 181,
        "5956": 201,
        "5957": 75,
        "5958": 235,
        "5959": 178,
        "5960": 151,
        "5961": 234,
        "5962": 2,
        "5963": 174,
        "5964": 204,
        "5965": 156,
        "5966": 202,
        "5967": 227,
        "5968": 131,
        "5969": 18,
        "5970": 187,
        "5971": 34,
        "5972": 183,
        "5973": 155,
        "5974": 17,
        "5975": 82,
        "5976": 38,
        "5977": 232,
        "5978": 249,
        "5979": 35,
        "5980": 245,
        "5981": 176,
        "5982": 148,
        "5983": 99,
        "5984": 23,
        "5985": 91,
        "5986": 248,
        "5987": 72,
        "5988": 81,
        "5989": 164,
        "5990": 17,
        "5991": 96,
        "5992": 238,
        "5993": 204,
        "5994": 137,
        "5995": 37,
        "5996": 232,
        "5997": 31,
        "5998": 205,
        "5999": 225,
        "6000": 184,
        "6001": 53,
        "6002": 92,
        "6003": 211,
        "6004": 19,
        "6005": 190,
        "6006": 26,
        "6007": 204,
        "6008": 222,
        "6009": 50,
        "6010": 182,
        "6011": 57,
        "6012": 110,
        "6013": 151,
        "6014": 186,
        "6015": 124,
        "6016": 38,
        "6017": 72,
        "6018": 175,
        "6019": 119,
        "6020": 156,
        "6021": 60,
        "6022": 215,
        "6023": 182,
        "6024": 15,
        "6025": 249,
        "6026": 140,
        "6027": 172,
        "6028": 36,
        "6029": 102,
        "6030": 104,
        "6031": 14,
        "6032": 21,
        "6033": 224,
        "6034": 150,
        "6035": 167,
        "6036": 248,
        "6037": 84,
        "6038": 198,
        "6039": 177,
        "6040": 215,
        "6041": 91,
        "6042": 253,
        "6043": 213,
        "6044": 237,
        "6045": 106,
        "6046": 159,
        "6047": 102,
        "6048": 209,
        "6049": 59,
        "6050": 197,
        "6051": 21,
        "6052": 94,
        "6053": 206,
        "6054": 198,
        "6055": 69,
        "6056": 145,
        "6057": 174,
        "6058": 182,
        "6059": 233,
        "6060": 246,
        "6061": 231,
        "6062": 175,
        "6063": 179,
        "6064": 155,
        "6065": 2,
        "6066": 137,
        "6067": 67,
        "6068": 250,
        "6069": 168,
        "6070": 144,
        "6071": 246,
        "6072": 214,
        "6073": 84,
        "6074": 225,
        "6075": 86,
        "6076": 255,
        "6077": 138,
        "6078": 136,
        "6079": 28,
        "6080": 219,
        "6081": 251,
        "6082": 101,
        "6083": 102,
        "6084": 85,
        "6085": 108,
        "6086": 237,
        "6087": 218,
        "6088": 99,
        "6089": 24,
        "6090": 26,
        "6091": 139,
        "6092": 78,
        "6093": 208,
        "6094": 96,
        "6095": 224,
        "6096": 120,
        "6097": 219,
        "6098": 239,
        "6099": 148,
        "6100": 243,
        "6101": 251,
        "6102": 184,
        "6103": 230,
        "6104": 102,
        "6105": 223,
        "6106": 170,
        "6107": 26,
        "6108": 116,
        "6109": 158,
        "6110": 72,
        "6111": 183,
        "6112": 113,
        "6113": 171,
        "6114": 78,
        "6115": 241,
        "6116": 247,
        "6117": 211,
        "6118": 112,
        "6119": 229,
        "6120": 97,
        "6121": 122,
        "6122": 206,
        "6123": 146,
        "6124": 160,
        "6125": 186,
        "6126": 39,
        "6127": 164,
        "6128": 187,
        "6129": 150,
        "6130": 148,
        "6131": 234,
        "6132": 46,
        "6133": 161,
        "6134": 133,
        "6135": 149,
        "6136": 81,
        "6137": 26,
        "6138": 133,
        "6139": 120,
        "6140": 215,
        "6141": 225,
        "6142": 122,
        "6143": 173,
        "6144": 181,
        "6145": 151,
        "6146": 196,
        "6147": 166,
        "6148": 95,
        "6149": 176,
        "6150": 230,
        "6151": 129,
        "6152": 32,
        "6153": 117,
        "6154": 18,
        "6155": 163,
        "6156": 229,
        "6157": 213,
        "6158": 11,
        "6159": 251,
        "6160": 203,
        "6161": 64,
        "6162": 220,
        "6163": 92,
        "6164": 73,
        "6165": 251,
        "6166": 38,
        "6167": 85,
        "6168": 183,
        "6169": 135,
        "6170": 220,
        "6171": 26,
        "6172": 25,
        "6173": 55,
        "6174": 181,
        "6175": 246,
        "6176": 119,
        "6177": 148,
        "6178": 199,
        "6179": 141,
        "6180": 54,
        "6181": 125,
        "6182": 118,
        "6183": 59,
        "6184": 120,
        "6185": 88,
        "6186": 248,
        "6187": 22,
        "6188": 11,
        "6189": 120,
        "6190": 132,
        "6191": 114,
        "6192": 170,
        "6193": 14,
        "6194": 9,
        "6195": 10,
        "6196": 249,
        "6197": 97,
        "6198": 185,
        "6199": 48,
        "6200": 121,
        "6201": 105,
        "6202": 37,
        "6203": 58,
        "6204": 102,
        "6205": 197,
        "6206": 68,
        "6207": 245,
        "6208": 11,
        "6209": 172,
        "6210": 94,
        "6211": 142,
        "6212": 36,
        "6213": 130,
        "6214": 33,
        "6215": 191,
        "6216": 55,
        "6217": 124,
        "6218": 68,
        "6219": 23,
        "6220": 197,
        "6221": 208,
        "6222": 220,
        "6223": 212,
        "6224": 49,
        "6225": 109,
        "6226": 237,
        "6227": 220,
        "6228": 21,
        "6229": 26,
        "6230": 81,
        "6231": 176,
        "6232": 120,
        "6233": 116,
        "6234": 212,
        "6235": 240,
        "6236": 55,
        "6237": 251,
        "6238": 4,
        "6239": 27,
        "6240": 75,
        "6241": 95,
        "6242": 63,
        "6243": 162,
        "6244": 111,
        "6245": 194,
        "6246": 111,
        "6247": 60,
        "6248": 110,
        "6249": 239,
        "6250": 222,
        "6251": 211,
        "6252": 227,
        "6253": 47,
        "6254": 127,
        "6255": 224,
        "6256": 135,
        "6257": 3,
        "6258": 100,
        "6259": 43,
        "6260": 4,
        "6261": 24,
        "6262": 226,
        "6263": 85,
        "6264": 15,
        "6265": 88,
        "6266": 73,
        "6267": 196,
        "6268": 213,
        "6269": 81,
        "6270": 105,
        "6271": 93,
        "6272": 10,
        "6273": 161,
        "6274": 96,
        "6275": 205,
        "6276": 176,
        "6277": 251,
        "6278": 112,
        "6279": 207,
        "6280": 51,
        "6281": 6,
        "6282": 226,
        "6283": 131,
        "6284": 70,
        "6285": 8,
        "6286": 102,
        "6287": 224,
        "6288": 90,
        "6289": 79,
        "6290": 47,
        "6291": 255,
        "6292": 199,
        "6293": 103,
        "6294": 65,
        "6295": 68,
        "6296": 177,
        "6297": 238,
        "6298": 205,
        "6299": 50,
        "6300": 142,
        "6301": 144,
        "6302": 36,
        "6303": 211,
        "6304": 0,
        "6305": 95,
        "6306": 94,
        "6307": 92,
        "6308": 123,
        "6309": 85,
        "6310": 114,
        "6311": 175,
        "6312": 174,
        "6313": 115,
        "6314": 149,
        "6315": 10,
        "6316": 209,
        "6317": 126,
        "6318": 201,
        "6319": 208,
        "6320": 40,
        "6321": 155,
        "6322": 218,
        "6323": 28,
        "6324": 136,
        "6325": 140,
        "6326": 214,
        "6327": 181,
        "6328": 186,
        "6329": 93,
        "6330": 167,
        "6331": 111,
        "6332": 35,
        "6333": 57,
        "6334": 48,
        "6335": 16,
        "6336": 189,
        "6337": 241,
        "6338": 39,
        "6339": 242,
        "6340": 67,
        "6341": 130,
        "6342": 39,
        "6343": 240,
        "6344": 40,
        "6345": 73,
        "6346": 56,
        "6347": 182,
        "6348": 104,
        "6349": 71,
        "6350": 24,
        "6351": 25,
        "6352": 98,
        "6353": 163,
        "6354": 21,
        "6355": 65,
        "6356": 165,
        "6357": 49,
        "6358": 46,
        "6359": 182,
        "6360": 38,
        "6361": 56,
        "6362": 172,
        "6363": 185,
        "6364": 68,
        "6365": 86,
        "6366": 215,
        "6367": 92,
        "6368": 99,
        "6369": 219,
        "6370": 131,
        "6371": 118,
        "6372": 232,
        "6373": 245,
        "6374": 8,
        "6375": 250,
        "6376": 135,
        "6377": 235,
        "6378": 56,
        "6379": 68,
        "6380": 180,
        "6381": 204,
        "6382": 100,
        "6383": 28,
        "6384": 207,
        "6385": 4,
        "6386": 155,
        "6387": 33,
        "6388": 32,
        "6389": 145,
        "6390": 145,
        "6391": 234,
        "6392": 196,
        "6393": 52,
        "6394": 128,
        "6395": 203,
        "6396": 188,
        "6397": 24,
        "6398": 71,
        "6399": 114,
        "6400": 112,
        "6401": 33,
        "6402": 138,
        "6403": 200,
        "6404": 19,
        "6405": 30,
        "6406": 109,
        "6407": 55,
        "6408": 245,
        "6409": 206,
        "6410": 113,
        "6411": 124,
        "6412": 215,
        "6413": 122,
        "6414": 231,
        "6415": 17,
        "6416": 120,
        "6417": 159,
        "6418": 4,
        "6419": 229,
        "6420": 221,
        "6421": 60,
        "6422": 193,
        "6423": 161,
        "6424": 184,
        "6425": 255,
        "6426": 165,
        "6427": 162,
        "6428": 12,
        "6429": 228,
        "6430": 186,
        "6431": 58,
        "6432": 60,
        "6433": 144,
        "6434": 221,
        "6435": 112,
        "6436": 64,
        "6437": 92,
        "6438": 39,
        "6439": 231,
        "6440": 161,
        "6441": 161,
        "6442": 8,
        "6443": 166,
        "6444": 162,
        "6445": 86,
        "6446": 197,
        "6447": 173,
        "6448": 178,
        "6449": 203,
        "6450": 215,
        "6451": 211,
        "6452": 144,
        "6453": 166,
        "6454": 14,
        "6455": 166,
        "6456": 31,
        "6457": 76,
        "6458": 107,
        "6459": 160,
        "6460": 214,
        "6461": 127,
        "6462": 128,
        "6463": 236,
        "6464": 90,
        "6465": 185,
        "6466": 245,
        "6467": 46,
        "6468": 55,
        "6469": 146,
        "6470": 66,
        "6471": 189,
        "6472": 21,
        "6473": 46,
        "6474": 132,
        "6475": 162,
        "6476": 255,
        "6477": 9,
        "6478": 137,
        "6479": 122,
        "6480": 183,
        "6481": 161,
        "6482": 224,
        "6483": 65,
        "6484": 68,
        "6485": 245,
        "6486": 198,
        "6487": 250,
        "6488": 177,
        "6489": 133,
        "6490": 74,
        "6491": 220,
        "6492": 139,
        "6493": 41,
        "6494": 27,
        "6495": 19,
        "6496": 188,
        "6497": 71,
        "6498": 244,
        "6499": 250,
        "6500": 244,
        "6501": 108,
        "6502": 114,
        "6503": 111,
        "6504": 167,
        "6505": 185,
        "6506": 1,
        "6507": 24,
        "6508": 138,
        "6509": 78,
        "6510": 105,
        "6511": 91,
        "6512": 64,
        "6513": 90,
        "6514": 25,
        "6515": 245,
        "6516": 125,
        "6517": 121,
        "6518": 113,
        "6519": 125,
        "6520": 85,
        "6521": 155,
        "6522": 218,
        "6523": 32,
        "6524": 233,
        "6525": 12,
        "6526": 12,
        "6527": 35,
        "6528": 76,
        "6529": 189,
        "6530": 212,
        "6531": 7,
        "6532": 13,
        "6533": 101,
        "6534": 118,
        "6535": 93,
        "6536": 132,
        "6537": 195,
        "6538": 30,
        "6539": 23,
        "6540": 151,
        "6541": 90,
        "6542": 154,
        "6543": 2,
        "6544": 143,
        "6545": 212,
        "6546": 103,
        "6547": 205,
        "6548": 112,
        "6549": 75,
        "6550": 175,
        "6551": 218,
        "6552": 63,
        "6553": 232,
        "6554": 224,
        "6555": 107,
        "6556": 78,
        "6557": 237,
        "6558": 2,
        "6559": 155,
        "6560": 234,
        "6561": 195,
        "6562": 151,
        "6563": 163,
        "6564": 154,
        "6565": 164,
        "6566": 238,
        "6567": 240,
        "6568": 50,
        "6569": 56,
        "6570": 194,
        "6571": 101,
        "6572": 26,
        "6573": 66,
        "6574": 120,
        "6575": 15,
        "6576": 15,
        "6577": 2,
        "6578": 135,
        "6579": 84,
        "6580": 20,
        "6581": 237,
        "6582": 189,
        "6583": 2,
        "6584": 96,
        "6585": 136,
        "6586": 98,
        "6587": 131,
        "6588": 119,
        "6589": 118,
        "6590": 69,
        "6591": 46,
        "6592": 2,
        "6593": 250,
        "6594": 116,
        "6595": 89,
        "6596": 179,
        "6597": 120,
        "6598": 89,
        "6599": 212,
        "6600": 95,
        "6601": 254,
        "6602": 28,
        "6603": 122,
        "6604": 91,
        "6605": 52,
        "6606": 152,
        "6607": 48,
        "6608": 227,
        "6609": 25,
        "6610": 239,
        "6611": 130,
        "6612": 43,
        "6613": 35,
        "6614": 84,
        "6615": 234,
        "6616": 166,
        "6617": 36,
        "6618": 109,
        "6619": 242,
        "6620": 134,
        "6621": 32,
        "6622": 242,
        "6623": 169,
        "6624": 213,
        "6625": 100,
        "6626": 128,
        "6627": 225,
        "6628": 215,
        "6629": 252,
        "6630": 253,
        "6631": 67,
        "6632": 150,
        "6633": 21,
        "6634": 141,
        "6635": 128,
        "6636": 164,
        "6637": 3,
        "6638": 20,
        "6639": 77,
        "6640": 19,
        "6641": 35,
        "6642": 161,
        "6643": 198,
        "6644": 141,
        "6645": 54,
        "6646": 148,
        "6647": 53,
        "6648": 169,
        "6649": 58,
        "6650": 43,
        "6651": 184,
        "6652": 229,
        "6653": 70,
        "6654": 124,
        "6655": 46,
        "6656": 140,
        "6657": 87,
        "6658": 165,
        "6659": 68,
        "6660": 36,
        "6661": 248,
        "6662": 145,
        "6663": 58,
        "6664": 225,
        "6665": 213,
        "6666": 126,
        "6667": 115,
        "6668": 182,
        "6669": 39,
        "6670": 63,
        "6671": 112,
        "6672": 2,
        "6673": 203,
        "6674": 102,
        "6675": 112,
        "6676": 150,
        "6677": 73,
        "6678": 147,
        "6679": 134,
        "6680": 55,
        "6681": 41,
        "6682": 36,
        "6683": 42,
        "6684": 55,
        "6685": 164,
        "6686": 113,
        "6687": 115,
        "6688": 77,
        "6689": 199,
        "6690": 6,
        "6691": 199,
        "6692": 114,
        "6693": 235,
        "6694": 146,
        "6695": 243,
        "6696": 151,
        "6697": 10,
        "6698": 194,
        "6699": 156,
        "6700": 13,
        "6701": 17,
        "6702": 200,
        "6703": 242,
        "6704": 117,
        "6705": 118,
        "6706": 252,
        "6707": 147,
        "6708": 9,
        "6709": 126,
        "6710": 23,
        "6711": 25,
        "6712": 190,
        "6713": 11,
        "6714": 229,
        "6715": 39,
        "6716": 207,
        "6717": 14,
        "6718": 253,
        "6719": 104,
        "6720": 224,
        "6721": 131,
        "6722": 96,
        "6723": 198,
        "6724": 39,
        "6725": 128,
        "6726": 167,
        "6727": 4,
        "6728": 91,
        "6729": 124,
        "6730": 73,
        "6731": 237,
        "6732": 65,
        "6733": 147,
        "6734": 25,
        "6735": 48,
        "6736": 165,
        "6737": 219,
        "6738": 107,
        "6739": 41,
        "6740": 70,
        "6741": 104,
        "6742": 94,
        "6743": 156,
        "6744": 5,
        "6745": 82,
        "6746": 200,
        "6747": 90,
        "6748": 240,
        "6749": 17,
        "6750": 24,
        "6751": 173,
        "6752": 238,
        "6753": 202,
        "6754": 53,
        "6755": 54,
        "6756": 50,
        "6757": 74,
        "6758": 66,
        "6759": 224,
        "6760": 232,
        "6761": 231,
        "6762": 24,
        "6763": 132,
        "6764": 163,
        "6765": 66,
        "6766": 82,
        "6767": 114,
        "6768": 144,
        "6769": 91,
        "6770": 12,
        "6771": 54,
        "6772": 76,
        "6773": 234,
        "6774": 228,
        "6775": 131,
        "6776": 68,
        "6777": 50,
        "6778": 149,
        "6779": 108,
        "6780": 203,
        "6781": 245,
        "6782": 91,
        "6783": 53,
        "6784": 103,
        "6785": 219,
        "6786": 156,
        "6787": 0,
        "6788": 43,
        "6789": 239,
        "6790": 236,
        "6791": 205,
        "6792": 220,
        "6793": 93,
        "6794": 240,
        "6795": 63,
        "6796": 181,
        "6797": 10,
        "6798": 32,
        "6799": 245,
        "6800": 81,
        "6801": 95,
        "6802": 186,
        "6803": 152,
        "6804": 194,
        "6805": 246,
        "6806": 206,
        "6807": 135,
        "6808": 141,
        "6809": 247,
        "6810": 203,
        "6811": 51,
        "6812": 45,
        "6813": 110,
        "6814": 219,
        "6815": 220,
        "6816": 249,
        "6817": 253,
        "6818": 42,
        "6819": 164,
        "6820": 9,
        "6821": 69,
        "6822": 191,
        "6823": 202,
        "6824": 102,
        "6825": 107,
        "6826": 11,
        "6827": 50,
        "6828": 126,
        "6829": 46,
        "6830": 141,
        "6831": 251,
        "6832": 43,
        "6833": 133,
        "6834": 238,
        "6835": 202,
        "6836": 64,
        "6837": 1,
        "6838": 138,
        "6839": 98,
        "6840": 65,
        "6841": 204,
        "6842": 121,
        "6843": 157,
        "6844": 7,
        "6845": 129,
        "6846": 241,
        "6847": 178,
        "6848": 236,
        "6849": 85,
        "6850": 170,
        "6851": 217,
        "6852": 19,
        "6853": 222,
        "6854": 205,
        "6855": 230,
        "6856": 26,
        "6857": 128,
        "6858": 205,
        "6859": 83,
        "6860": 252,
        "6861": 56,
        "6862": 26,
        "6863": 13,
        "6864": 150,
        "6865": 235,
        "6866": 4,
        "6867": 9,
        "6868": 238,
        "6869": 72,
        "6870": 53,
        "6871": 95,
        "6872": 120,
        "6873": 5,
        "6874": 151,
        "6875": 207,
        "6876": 124,
        "6877": 172,
        "6878": 233,
        "6879": 75,
        "6880": 114,
        "6881": 150,
        "6882": 242,
        "6883": 14,
        "6884": 185,
        "6885": 160,
        "6886": 182,
        "6887": 20,
        "6888": 201,
        "6889": 210,
        "6890": 121,
        "6891": 121,
        "6892": 93,
        "6893": 120,
        "6894": 163,
        "6895": 253,
        "6896": 43,
        "6897": 3,
        "6898": 206,
        "6899": 189,
        "6900": 4,
        "6901": 108,
        "6902": 95,
        "6903": 168,
        "6904": 50,
        "6905": 186,
        "6906": 22,
        "6907": 172,
        "6908": 140,
        "6909": 5,
        "6910": 191,
        "6911": 56,
        "6912": 15,
        "6913": 229,
        "6914": 92,
        "6915": 34,
        "6916": 17,
        "6917": 226,
        "6918": 239,
        "6919": 39,
        "6920": 182,
        "6921": 90,
        "6922": 22,
        "6923": 254,
        "6924": 193,
        "6925": 159,
        "6926": 248,
        "6927": 124,
        "6928": 56,
        "6929": 50,
        "6930": 37,
        "6931": 168,
        "6932": 178,
        "6933": 195,
        "6934": 43,
        "6935": 51,
        "6936": 43,
        "6937": 152,
        "6938": 76,
        "6939": 94,
        "6940": 33,
        "6941": 23,
        "6942": 177,
        "6943": 235,
        "6944": 118,
        "6945": 34,
        "6946": 188,
        "6947": 165,
        "6948": 200,
        "6949": 3,
        "6950": 38,
        "6951": 154,
        "6952": 105,
        "6953": 232,
        "6954": 67,
        "6955": 8,
        "6956": 94,
        "6957": 200,
        "6958": 96,
        "6959": 1,
        "6960": 239,
        "6961": 115,
        "6962": 77,
        "6963": 255,
        "6964": 49,
        "6965": 236,
        "6966": 97,
        "6967": 3,
        "6968": 38,
        "6969": 0,
        "6970": 164,
        "6971": 181,
        "6972": 44,
        "6973": 119,
        "6974": 162,
        "6975": 155,
        "6976": 97,
        "6977": 37,
        "6978": 45,
        "6979": 255,
        "6980": 11,
        "6981": 119,
        "6982": 255,
        "6983": 137,
        "6984": 66,
        "6985": 194,
        "6986": 204,
        "6987": 229,
        "6988": 165,
        "6989": 116,
        "6990": 185,
        "6991": 242,
        "6992": 71,
        "6993": 102,
        "6994": 42,
        "6995": 154,
        "6996": 164,
        "6997": 187,
        "6998": 217,
        "6999": 131,
        "7000": 102,
        "7001": 117,
        "7002": 26,
        "7003": 10,
        "7004": 60,
        "7005": 242,
        "7006": 216,
        "7007": 202,
        "7008": 5,
        "7009": 56,
        "7010": 150,
        "7011": 80,
        "7012": 69,
        "7013": 177,
        "7014": 249,
        "7015": 255,
        "7016": 7,
        "7017": 37,
        "7018": 194,
        "7019": 229,
        "7020": 191,
        "7021": 225,
        "7022": 231,
        "7023": 141,
        "7024": 28,
        "7025": 36,
        "7026": 18,
        "7027": 40,
        "7028": 118,
        "7029": 214,
        "7030": 247,
        "7031": 53,
        "7032": 248,
        "7033": 1,
        "7034": 144,
        "7035": 219,
        "7036": 148,
        "7037": 186,
        "7038": 60,
        "7039": 255,
        "7040": 1,
        "7041": 200,
        "7042": 254,
        "7043": 119,
        "7044": 120,
        "7045": 161,
        "7046": 100,
        "7047": 83,
        "7048": 29,
        "7049": 154,
        "7050": 196,
        "7051": 250,
        "7052": 57,
        "7053": 87,
        "7054": 16,
        "7055": 152,
        "7056": 180,
        "7057": 148,
        "7058": 69,
        "7059": 138,
        "7060": 104,
        "7061": 134,
        "7062": 28,
        "7063": 112,
        "7064": 36,
        "7065": 217,
        "7066": 17,
        "7067": 34,
        "7068": 216,
        "7069": 154,
        "7070": 196,
        "7071": 44,
        "7072": 230,
        "7073": 126,
        "7074": 217,
        "7075": 144,
        "7076": 38,
        "7077": 15,
        "7078": 36,
        "7079": 156,
        "7080": 28,
        "7081": 242,
        "7082": 186,
        "7083": 9,
        "7084": 58,
        "7085": 238,
        "7086": 215,
        "7087": 143,
        "7088": 8,
        "7089": 13,
        "7090": 143,
        "7091": 215,
        "7092": 153,
        "7093": 21,
        "7094": 63,
        "7095": 197,
        "7096": 22,
        "7097": 157,
        "7098": 211,
        "7099": 18,
        "7100": 253,
        "7101": 214,
        "7102": 189,
        "7103": 35,
        "7104": 154,
        "7105": 178,
        "7106": 241,
        "7107": 162,
        "7108": 53,
        "7109": 210,
        "7110": 186,
        "7111": 115,
        "7112": 150,
        "7113": 131,
        "7114": 20,
        "7115": 225,
        "7116": 119,
        "7117": 83,
        "7118": 251,
        "7119": 66,
        "7120": 218,
        "7121": 139,
        "7122": 172,
        "7123": 134,
        "7124": 45,
        "7125": 163,
        "7126": 140,
        "7127": 23,
        "7128": 54,
        "7129": 216,
        "7130": 86,
        "7131": 15,
        "7132": 207,
        "7133": 1,
        "7134": 74,
        "7135": 29,
        "7136": 142,
        "7137": 196,
        "7138": 71,
        "7139": 238,
        "7140": 210,
        "7141": 214,
        "7142": 115,
        "7143": 76,
        "7144": 76,
        "7145": 205,
        "7146": 238,
        "7147": 223,
        "7148": 79,
        "7149": 81,
        "7150": 245,
        "7151": 209,
        "7152": 24,
        "7153": 116,
        "7154": 155,
        "7155": 79,
        "7156": 252,
        "7157": 194,
        "7158": 5,
        "7159": 172,
        "7160": 61,
        "7161": 208,
        "7162": 80,
        "7163": 207,
        "7164": 221,
        "7165": 56,
        "7166": 221,
        "7167": 242,
        "7168": 107,
        "7169": 49,
        "7170": 184,
        "7171": 162,
        "7172": 96,
        "7173": 109,
        "7174": 231,
        "7175": 175,
        "7176": 234,
        "7177": 244,
        "7178": 19,
        "7179": 129,
        "7180": 241,
        "7181": 142,
        "7182": 55,
        "7183": 79,
        "7184": 67,
        "7185": 212,
        "7186": 5,
        "7187": 223,
        "7188": 87,
        "7189": 196,
        "7190": 225,
        "7191": 61,
        "7192": 81,
        "7193": 37,
        "7194": 237,
        "7195": 45,
        "7196": 42,
        "7197": 183,
        "7198": 73,
        "7199": 222,
        "7200": 196,
        "7201": 90,
        "7202": 15,
        "7203": 113,
        "7204": 254,
        "7205": 142,
        "7206": 125,
        "7207": 64,
        "7208": 175,
        "7209": 226,
        "7210": 151,
        "7211": 20,
        "7212": 69,
        "7213": 106,
        "7214": 73,
        "7215": 50,
        "7216": 186,
        "7217": 57,
        "7218": 209,
        "7219": 174,
        "7220": 66,
        "7221": 156,
        "7222": 158,
        "7223": 171,
        "7224": 107,
        "7225": 204,
        "7226": 46,
        "7227": 106,
        "7228": 96,
        "7229": 2,
        "7230": 181,
        "7231": 115,
        "7232": 100,
        "7233": 205,
        "7234": 175,
        "7235": 159,
        "7236": 246,
        "7237": 177,
        "7238": 192,
        "7239": 87,
        "7240": 57,
        "7241": 44,
        "7242": 211,
        "7243": 32,
        "7244": 161,
        "7245": 110,
        "7246": 118,
        "7247": 74,
        "7248": 230,
        "7249": 86,
        "7250": 249,
        "7251": 99,
        "7252": 57,
        "7253": 60,
        "7254": 144,
        "7255": 52,
        "7256": 145,
        "7257": 222,
        "7258": 212,
        "7259": 32,
        "7260": 159,
        "7261": 189,
        "7262": 160,
        "7263": 46,
        "7264": 176,
        "7265": 175,
        "7266": 157,
        "7267": 189,
        "7268": 11,
        "7269": 33,
        "7270": 57,
        "7271": 56,
        "7272": 205,
        "7273": 210,
        "7274": 64,
        "7275": 237,
        "7276": 84,
        "7277": 5,
        "7278": 31,
        "7279": 82,
        "7280": 211,
        "7281": 154,
        "7282": 208,
        "7283": 158,
        "7284": 230,
        "7285": 132,
        "7286": 177,
        "7287": 185,
        "7288": 15,
        "7289": 198,
        "7290": 59,
        "7291": 121,
        "7292": 132,
        "7293": 5,
        "7294": 104,
        "7295": 229,
        "7296": 220,
        "7297": 76,
        "7298": 179,
        "7299": 178,
        "7300": 83,
        "7301": 111,
        "7302": 244,
        "7303": 150,
        "7304": 195,
        "7305": 118,
        "7306": 2,
        "7307": 190,
        "7308": 229,
        "7309": 115,
        "7310": 10,
        "7311": 5,
        "7312": 218,
        "7313": 22,
        "7314": 73,
        "7315": 8,
        "7316": 134,
        "7317": 39,
        "7318": 89,
        "7319": 118,
        "7320": 14,
        "7321": 145,
        "7322": 166,
        "7323": 192,
        "7324": 109,
        "7325": 205,
        "7326": 41,
        "7327": 224,
        "7328": 147,
        "7329": 133,
        "7330": 241,
        "7331": 74,
        "7332": 204,
        "7333": 112,
        "7334": 193,
        "7335": 164,
        "7336": 105,
        "7337": 228,
        "7338": 62,
        "7339": 116,
        "7340": 152,
        "7341": 79,
        "7342": 102,
        "7343": 72,
        "7344": 241,
        "7345": 77,
        "7346": 111,
        "7347": 181,
        "7348": 89,
        "7349": 228,
        "7350": 111,
        "7351": 110,
        "7352": 175,
        "7353": 182,
        "7354": 209,
        "7355": 113,
        "7356": 239,
        "7357": 233,
        "7358": 71,
        "7359": 231,
        "7360": 151,
        "7361": 9,
        "7362": 174,
        "7363": 77,
        "7364": 242,
        "7365": 119,
        "7366": 164,
        "7367": 191,
        "7368": 241,
        "7369": 160,
        "7370": 116,
        "7371": 28,
        "7372": 59,
        "7373": 238,
        "7374": 196,
        "7375": 141,
        "7376": 16,
        "7377": 133,
        "7378": 58,
        "7379": 79,
        "7380": 111,
        "7381": 122,
        "7382": 102,
        "7383": 8,
        "7384": 165,
        "7385": 208,
        "7386": 91,
        "7387": 193,
        "7388": 129,
        "7389": 252,
        "7390": 216,
        "7391": 63,
        "7392": 165,
        "7393": 1,
        "7394": 196,
        "7395": 45,
        "7396": 142,
        "7397": 201,
        "7398": 111,
        "7399": 204,
        "7400": 1,
        "7401": 81,
        "7402": 75,
        "7403": 53,
        "7404": 148,
        "7405": 245,
        "7406": 105,
        "7407": 198,
        "7408": 33,
        "7409": 198,
        "7410": 41,
        "7411": 174,
        "7412": 65,
        "7413": 141,
        "7414": 184,
        "7415": 66,
        "7416": 36,
        "7417": 181,
        "7418": 157,
        "7419": 3,
        "7420": 56,
        "7421": 127,
        "7422": 64,
        "7423": 241,
        "7424": 200,
        "7425": 11,
        "7426": 25,
        "7427": 7,
        "7428": 23,
        "7429": 117,
        "7430": 214,
        "7431": 110,
        "7432": 64,
        "7433": 14,
        "7434": 165,
        "7435": 208,
        "7436": 145,
        "7437": 198,
        "7438": 217,
        "7439": 198,
        "7440": 226,
        "7441": 165,
        "7442": 143,
        "7443": 226,
        "7444": 10,
        "7445": 94,
        "7446": 81,
        "7447": 210,
        "7448": 106,
        "7449": 107,
        "7450": 230,
        "7451": 88,
        "7452": 165,
        "7453": 192,
        "7454": 181,
        "7455": 10,
        "7456": 6,
        "7457": 68,
        "7458": 84,
        "7459": 196,
        "7460": 115,
        "7461": 98,
        "7462": 13,
        "7463": 59,
        "7464": 138,
        "7465": 207,
        "7466": 10,
        "7467": 55,
        "7468": 52,
        "7469": 47,
        "7470": 104,
        "7471": 123,
        "7472": 149,
        "7473": 170,
        "7474": 162,
        "7475": 229,
        "7476": 250,
        "7477": 236,
        "7478": 177,
        "7479": 101,
        "7480": 146,
        "7481": 29,
        "7482": 164,
        "7483": 121,
        "7484": 235,
        "7485": 81,
        "7486": 30,
        "7487": 116,
        "7488": 46,
        "7489": 252,
        "7490": 218,
        "7491": 136,
        "7492": 252,
        "7493": 152,
        "7494": 160,
        "7495": 31,
        "7496": 230,
        "7497": 63,
        "7498": 83,
        "7499": 83,
        "7500": 247,
        "7501": 238,
        "7502": 176,
        "7503": 185,
        "7504": 125,
        "7505": 232,
        "7506": 68,
        "7507": 247,
        "7508": 218,
        "7509": 217,
        "7510": 58,
        "7511": 245,
        "7512": 21,
        "7513": 85,
        "7514": 157,
        "7515": 44,
        "7516": 225,
        "7517": 130,
        "7518": 47,
        "7519": 144,
        "7520": 194,
        "7521": 152,
        "7522": 90,
        "7523": 86,
        "7524": 94,
        "7525": 150,
        "7526": 147,
        "7527": 164,
        "7528": 168,
        "7529": 112,
        "7530": 143,
        "7531": 28,
        "7532": 120,
        "7533": 63,
        "7534": 174,
        "7535": 212,
        "7536": 57,
        "7537": 56,
        "7538": 115,
        "7539": 159,
        "7540": 127,
        "7541": 176,
        "7542": 25,
        "7543": 197,
        "7544": 103,
        "7545": 201,
        "7546": 85,
        "7547": 197,
        "7548": 65,
        "7549": 143,
        "7550": 167,
        "7551": 54,
        "7552": 154,
        "7553": 225,
        "7554": 136,
        "7555": 68,
        "7556": 193,
        "7557": 222,
        "7558": 33,
        "7559": 184,
        "7560": 175,
        "7561": 210,
        "7562": 58,
        "7563": 31,
        "7564": 212,
        "7565": 189,
        "7566": 109,
        "7567": 232,
        "7568": 150,
        "7569": 46,
        "7570": 130,
        "7571": 231,
        "7572": 98,
        "7573": 148,
        "7574": 244,
        "7575": 212,
        "7576": 54,
        "7577": 231,
        "7578": 13,
        "7579": 43,
        "7580": 235,
        "7581": 84,
        "7582": 56,
        "7583": 171,
        "7584": 83,
        "7585": 104,
        "7586": 5,
        "7587": 7,
        "7588": 106,
        "7589": 121,
        "7590": 195,
        "7591": 158,
        "7592": 208,
        "7593": 181,
        "7594": 153,
        "7595": 132,
        "7596": 176,
        "7597": 133,
        "7598": 24,
        "7599": 48,
        "7600": 25,
        "7601": 253,
        "7602": 221,
        "7603": 83,
        "7604": 161,
        "7605": 227,
        "7606": 67,
        "7607": 219,
        "7608": 176,
        "7609": 200,
        "7610": 219,
        "7611": 29,
        "7612": 207,
        "7613": 255,
        "7614": 191,
        "7615": 134,
        "7616": 133,
        "7617": 212,
        "7618": 149,
        "7619": 148,
        "7620": 188,
        "7621": 152,
        "7622": 71,
        "7623": 58,
        "7624": 168,
        "7625": 2,
        "7626": 124,
        "7627": 93,
        "7628": 136,
        "7629": 7,
        "7630": 117,
        "7631": 232,
        "7632": 237,
        "7633": 74,
        "7634": 100,
        "7635": 161,
        "7636": 90,
        "7637": 235,
        "7638": 8,
        "7639": 116,
        "7640": 94,
        "7641": 14,
        "7642": 92,
        "7643": 98,
        "7644": 99,
        "7645": 189,
        "7646": 199,
        "7647": 170,
        "7648": 177,
        "7649": 251,
        "7650": 157,
        "7651": 128,
        "7652": 204,
        "7653": 123,
        "7654": 218,
        "7655": 193,
        "7656": 20,
        "7657": 197,
        "7658": 184,
        "7659": 126,
        "7660": 110,
        "7661": 154,
        "7662": 116,
        "7663": 195,
        "7664": 169,
        "7665": 123,
        "7666": 142,
        "7667": 105,
        "7668": 81,
        "7669": 98,
        "7670": 185,
        "7671": 155,
        "7672": 177,
        "7673": 18,
        "7674": 213,
        "7675": 97,
        "7676": 197,
        "7677": 135,
        "7678": 139,
        "7679": 146,
        "7680": 46,
        "7681": 105,
        "7682": 190,
        "7683": 221,
        "7684": 107,
        "7685": 243,
        "7686": 216,
        "7687": 26,
        "7688": 239,
        "7689": 69,
        "7690": 242,
        "7691": 234,
        "7692": 223,
        "7693": 156,
        "7694": 251,
        "7695": 40,
        "7696": 214,
        "7697": 190,
        "7698": 67,
        "7699": 100,
        "7700": 35,
        "7701": 152,
        "7702": 9,
        "7703": 189,
        "7704": 25,
        "7705": 66,
        "7706": 78,
        "7707": 90,
        "7708": 40,
        "7709": 220,
        "7710": 128,
        "7711": 166,
        "7712": 127,
        "7713": 214,
        "7714": 46,
        "7715": 85,
        "7716": 40,
        "7717": 114,
        "7718": 225,
        "7719": 93,
        "7720": 10,
        "7721": 33,
        "7722": 254,
        "7723": 176,
        "7724": 209,
        "7725": 229,
        "7726": 214,
        "7727": 229,
        "7728": 76,
        "7729": 225,
        "7730": 111,
        "7731": 215,
        "7732": 225,
        "7733": 229,
        "7734": 246,
        "7735": 245,
        "7736": 240,
        "7737": 88,
        "7738": 14,
        "7739": 216,
        "7740": 1,
        "7741": 220,
        "7742": 66,
        "7743": 107,
        "7744": 194,
        "7745": 12,
        "7746": 43,
        "7747": 157,
        "7748": 29,
        "7749": 56,
        "7750": 163,
        "7751": 202,
        "7752": 185,
        "7753": 61,
        "7754": 93,
        "7755": 228,
        "7756": 240,
        "7757": 168,
        "7758": 217,
        "7759": 193,
        "7760": 114,
        "7761": 67,
        "7762": 124,
        "7763": 56,
        "7764": 43,
        "7765": 219,
        "7766": 170,
        "7767": 21,
        "7768": 252,
        "7769": 41,
        "7770": 179,
        "7771": 194,
        "7772": 23,
        "7773": 86,
        "7774": 89,
        "7775": 232,
        "7776": 213,
        "7777": 6,
        "7778": 130,
        "7779": 254,
        "7780": 40,
        "7781": 123,
        "7782": 21,
        "7783": 200,
        "7784": 119,
        "7785": 201,
        "7786": 161,
        "7787": 235,
        "7788": 0,
        "7789": 175,
        "7790": 173,
        "7791": 60,
        "7792": 133,
        "7793": 213,
        "7794": 134,
        "7795": 234,
        "7796": 211,
        "7797": 5,
        "7798": 179,
        "7799": 86,
        "7800": 84,
        "7801": 142,
        "7802": 167,
        "7803": 205,
        "7804": 10,
        "7805": 94,
        "7806": 236,
        "7807": 191,
        "7808": 199,
        "7809": 250,
        "7810": 252,
        "7811": 129,
        "7812": 11,
        "7813": 35,
        "7814": 198,
        "7815": 133,
        "7816": 228,
        "7817": 13,
        "7818": 6,
        "7819": 185,
        "7820": 53,
        "7821": 8,
        "7822": 149,
        "7823": 47,
        "7824": 2,
        "7825": 2,
        "7826": 41,
        "7827": 176,
        "7828": 108,
        "7829": 18,
        "7830": 184,
        "7831": 128,
        "7832": 7,
        "7833": 83,
        "7834": 90,
        "7835": 50,
        "7836": 198,
        "7837": 218,
        "7838": 16,
        "7839": 103,
        "7840": 208,
        "7841": 22,
        "7842": 173,
        "7843": 209,
        "7844": 235,
        "7845": 103,
        "7846": 138,
        "7847": 127,
        "7848": 76,
        "7849": 167,
        "7850": 100,
        "7851": 9,
        "7852": 200,
        "7853": 199,
        "7854": 145,
        "7855": 17,
        "7856": 39,
        "7857": 221,
        "7858": 214,
        "7859": 105,
        "7860": 219,
        "7861": 188,
        "7862": 92,
        "7863": 34,
        "7864": 42,
        "7865": 15,
        "7866": 180,
        "7867": 97,
        "7868": 84,
        "7869": 33,
        "7870": 213,
        "7871": 38,
        "7872": 142,
        "7873": 91,
        "7874": 253,
        "7875": 122,
        "7876": 186,
        "7877": 12,
        "7878": 204,
        "7879": 146,
        "7880": 171,
        "7881": 195,
        "7882": 124,
        "7883": 85,
        "7884": 156,
        "7885": 1,
        "7886": 194,
        "7887": 146,
        "7888": 9,
        "7889": 226,
        "7890": 192,
        "7891": 46,
        "7892": 110,
        "7893": 175,
        "7894": 69,
        "7895": 71,
        "7896": 98,
        "7897": 190,
        "7898": 253,
        "7899": 123,
        "7900": 54,
        "7901": 234,
        "7902": 59,
        "7903": 17,
        "7904": 242,
        "7905": 160,
        "7906": 106,
        "7907": 85,
        "7908": 248,
        "7909": 179,
        "7910": 47,
        "7911": 176,
        "7912": 182,
        "7913": 229,
        "7914": 20,
        "7915": 247,
        "7916": 143,
        "7917": 26,
        "7918": 195,
        "7919": 15,
        "7920": 121,
        "7921": 71,
        "7922": 174,
        "7923": 78,
        "7924": 93,
        "7925": 135,
        "7926": 136,
        "7927": 93,
        "7928": 102,
        "7929": 186,
        "7930": 253,
        "7931": 70,
        "7932": 4,
        "7933": 229,
        "7934": 235,
        "7935": 208,
        "7936": 248,
        "7937": 160,
        "7938": 184,
        "7939": 233,
        "7940": 253,
        "7941": 108,
        "7942": 158,
        "7943": 4,
        "7944": 88,
        "7945": 85,
        "7946": 192,
        "7947": 250,
        "7948": 103,
        "7949": 177,
        "7950": 88,
        "7951": 38,
        "7952": 40,
        "7953": 184,
        "7954": 204,
        "7955": 222,
        "7956": 66,
        "7957": 2,
        "7958": 85,
        "7959": 6,
        "7960": 147,
        "7961": 65,
        "7962": 88,
        "7963": 96,
        "7964": 102,
        "7965": 132,
        "7966": 11,
        "7967": 13,
        "7968": 93,
        "7969": 10,
        "7970": 170,
        "7971": 227,
        "7972": 209,
        "7973": 69,
        "7974": 5,
        "7975": 67,
        "7976": 198,
        "7977": 7,
        "7978": 167,
        "7979": 78,
        "7980": 39,
        "7981": 217,
        "7982": 53,
        "7983": 140,
        "7984": 4,
        "7985": 223,
        "7986": 188,
        "7987": 132,
        "7988": 69,
        "7989": 221,
        "7990": 136,
        "7991": 64,
        "7992": 166,
        "7993": 114,
        "7994": 238,
        "7995": 201,
        "7996": 63,
        "7997": 91,
        "7998": 226,
        "7999": 113,
        "8000": 44,
        "8001": 189,
        "8002": 165,
        "8003": 141,
        "8004": 209,
        "8005": 213,
        "8006": 241,
        "8007": 101,
        "8008": 201,
        "8009": 174,
        "8010": 17,
        "8011": 116,
        "8012": 8,
        "8013": 252,
        "8014": 64,
        "8015": 149,
        "8016": 210,
        "8017": 147,
        "8018": 109,
        "8019": 85,
        "8020": 210,
        "8021": 158,
        "8022": 76,
        "8023": 33,
        "8024": 252,
        "8025": 42,
        "8026": 46,
        "8027": 84,
        "8028": 130,
        "8029": 57,
        "8030": 99,
        "8031": 31,
        "8032": 49,
        "8033": 127,
        "8034": 169,
        "8035": 157,
        "8036": 58,
        "8037": 99,
        "8038": 191,
        "8039": 248,
        "8040": 96,
        "8041": 231,
        "8042": 54,
        "8043": 123,
        "8044": 118,
        "8045": 13,
        "8046": 228,
        "8047": 1,
        "8048": 35,
        "8049": 38,
        "8050": 97,
        "8051": 95,
        "8052": 232,
        "8053": 32,
        "8054": 39,
        "8055": 55,
        "8056": 234,
        "8057": 123,
        "8058": 179,
        "8059": 212,
        "8060": 40,
        "8061": 113,
        "8062": 231,
        "8063": 5,
        "8064": 157,
        "8065": 219,
        "8066": 168,
        "8067": 25,
        "8068": 137,
        "8069": 115,
        "8070": 172,
        "8071": 178,
        "8072": 180,
        "8073": 96,
        "8074": 188,
        "8075": 28,
        "8076": 167,
        "8077": 124,
        "8078": 214,
        "8079": 57,
        "8080": 129,
        "8081": 72,
        "8082": 131,
        "8083": 237,
        "8084": 91,
        "8085": 177,
        "8086": 139,
        "8087": 108,
        "8088": 83,
        "8089": 59,
        "8090": 52,
        "8091": 177,
        "8092": 13,
        "8093": 135,
        "8094": 144,
        "8095": 87,
        "8096": 183,
        "8097": 25,
        "8098": 199,
        "8099": 63,
        "8100": 215,
        "8101": 209,
        "8102": 3,
        "8103": 107,
        "8104": 83,
        "8105": 65,
        "8106": 128,
        "8107": 45,
        "8108": 175,
        "8109": 229,
        "8110": 123,
        "8111": 70,
        "8112": 181,
        "8113": 212,
        "8114": 140,
        "8115": 241,
        "8116": 98,
        "8117": 100,
        "8118": 229,
        "8119": 198,
        "8120": 80,
        "8121": 104,
        "8122": 49,
        "8123": 209,
        "8124": 237,
        "8125": 153,
        "8126": 39,
        "8127": 175,
        "8128": 202,
        "8129": 54,
        "8130": 3,
        "8131": 7,
        "8132": 203,
        "8133": 228,
        "8134": 6,
        "8135": 172,
        "8136": 92,
        "8137": 200,
        "8138": 110,
        "8139": 50,
        "8140": 202,
        "8141": 80,
        "8142": 8,
        "8143": 211,
        "8144": 204,
        "8145": 154,
        "8146": 50,
        "8147": 105,
        "8148": 2,
        "8149": 52,
        "8150": 203,
        "8151": 145,
        "8152": 201,
        "8153": 135,
        "8154": 10,
        "8155": 45,
        "8156": 128,
        "8157": 255,
        "8158": 91,
        "8159": 204,
        "8160": 249,
        "8161": 166,
        "8162": 152,
        "8163": 136,
        "8164": 215,
        "8165": 19,
        "8166": 63,
        "8167": 243,
        "8168": 139,
        "8169": 254,
        "8170": 98,
        "8171": 165,
        "8172": 124,
        "8173": 233,
        "8174": 222,
        "8175": 63,
        "8176": 138,
        "8177": 75,
        "8178": 67,
        "8179": 86,
        "8180": 210,
        "8181": 175,
        "8182": 155,
        "8183": 31,
        "8184": 204,
        "8185": 235,
        "8186": 103,
        "8187": 199,
        "8188": 21,
        "8189": 125,
        "8190": 121,
        "8191": 178,
        "8192": 142,
        "8193": 49,
        "8194": 147,
        "8195": 233,
        "8196": 33,
        "8197": 39,
        "8198": 169,
        "8199": 72,
        "8200": 8,
        "8201": 155,
        "8202": 93,
        "8203": 29,
        "8204": 96,
        "8205": 116,
        "8206": 135,
        "8207": 0,
        "8208": 152,
        "8209": 21,
        "8210": 232,
        "8211": 115,
        "8212": 182,
        "8213": 229,
        "8214": 99,
        "8215": 168,
        "8216": 212,
        "8217": 254,
        "8218": 107,
        "8219": 206,
        "8220": 255,
        "8221": 215,
        "8222": 172,
        "8223": 199,
        "8224": 164,
        "8225": 145,
        "8226": 201,
        "8227": 238,
        "8228": 7,
        "8229": 125,
        "8230": 112,
        "8231": 132,
        "8232": 188,
        "8233": 243,
        "8234": 213,
        "8235": 190,
        "8236": 135,
        "8237": 58,
        "8238": 212,
        "8239": 136,
        "8240": 203,
        "8241": 60,
        "8242": 216,
        "8243": 193,
        "8244": 53,
        "8245": 117,
        "8246": 63,
        "8247": 204,
        "8248": 42,
        "8249": 161,
        "8250": 152,
        "8251": 253,
        "8252": 97,
        "8253": 99,
        "8254": 58,
        "8255": 85,
        "8256": 85,
        "8257": 69,
        "8258": 88,
        "8259": 124,
        "8260": 20,
        "8261": 161,
        "8262": 247,
        "8263": 199,
        "8264": 146,
        "8265": 65,
        "8266": 35,
        "8267": 168,
        "8268": 155,
        "8269": 231,
        "8270": 224,
        "8271": 98,
        "8272": 139,
        "8273": 20,
        "8274": 145,
        "8275": 165,
        "8276": 71,
        "8277": 65,
        "8278": 136,
        "8279": 195,
        "8280": 106,
        "8281": 162,
        "8282": 191,
        "8283": 63,
        "8284": 26,
        "8285": 60,
        "8286": 225,
        "8287": 246,
        "8288": 138,
        "8289": 78,
        "8290": 55,
        "8291": 52,
        "8292": 201,
        "8293": 255,
        "8294": 48,
        "8295": 194,
        "8296": 13,
        "8297": 34,
        "8298": 188,
        "8299": 98,
        "8300": 151,
        "8301": 13,
        "8302": 140,
        "8303": 0,
        "8304": 57,
        "8305": 238,
        "8306": 137,
        "8307": 199,
        "8308": 89,
        "8309": 3,
        "8310": 175,
        "8311": 77,
        "8312": 243,
        "8313": 34,
        "8314": 188,
        "8315": 87,
        "8316": 77,
        "8317": 40,
        "8318": 129,
        "8319": 3,
        "8320": 143,
        "8321": 224,
        "8322": 244,
        "8323": 57,
        "8324": 234,
        "8325": 246,
        "8326": 248,
        "8327": 192,
        "8328": 78,
        "8329": 223,
        "8330": 152,
        "8331": 146,
        "8332": 65,
        "8333": 129,
        "8334": 112,
        "8335": 98,
        "8336": 34,
        "8337": 148,
        "8338": 107,
        "8339": 191,
        "8340": 64,
        "8341": 243,
        "8342": 143,
        "8343": 250,
        "8344": 251,
        "8345": 38,
        "8346": 252,
        "8347": 16,
        "8348": 118,
        "8349": 159,
        "8350": 41,
        "8351": 184,
        "8352": 104,
        "8353": 38,
        "8354": 183,
        "8355": 21,
        "8356": 224,
        "8357": 105,
        "8358": 244,
        "8359": 0,
        "8360": 111,
        "8361": 153,
        "8362": 93,
        "8363": 157,
        "8364": 251,
        "8365": 148,
        "8366": 154,
        "8367": 108,
        "8368": 236,
        "8369": 59,
        "8370": 47,
        "8371": 106,
        "8372": 136,
        "8373": 149,
        "8374": 4,
        "8375": 27,
        "8376": 45,
        "8377": 119,
        "8378": 181,
        "8379": 49,
        "8380": 173,
        "8381": 155,
        "8382": 107,
        "8383": 44,
        "8384": 154,
        "8385": 67,
        "8386": 119,
        "8387": 85,
        "8388": 134,
        "8389": 162,
        "8390": 60,
        "8391": 108,
        "8392": 232,
        "8393": 226,
        "8394": 199,
        "8395": 151,
        "8396": 102,
        "8397": 72,
        "8398": 163,
        "8399": 70,
        "8400": 87,
        "8401": 167,
        "8402": 46,
        "8403": 227,
        "8404": 138,
        "8405": 234,
        "8406": 214,
        "8407": 253,
        "8408": 15,
        "8409": 159,
        "8410": 162,
        "8411": 173,
        "8412": 162,
        "8413": 140,
        "8414": 39,
        "8415": 2,
        "8416": 8,
        "8417": 189,
        "8418": 253,
        "8419": 186,
        "8420": 128,
        "8421": 7,
        "8422": 111,
        "8423": 137,
        "8424": 24,
        "8425": 108,
        "8426": 145,
        "8427": 226,
        "8428": 181,
        "8429": 201,
        "8430": 42,
        "8431": 34,
        "8432": 121,
        "8433": 145,
        "8434": 78,
        "8435": 188,
        "8436": 185,
        "8437": 107,
        "8438": 187,
        "8439": 33,
        "8440": 60,
        "8441": 139,
        "8442": 205,
        "8443": 97,
        "8444": 223,
        "8445": 73,
        "8446": 156,
        "8447": 223,
        "8448": 43,
        "8449": 140,
        "8450": 66,
        "8451": 8,
        "8452": 158,
        "8453": 73,
        "8454": 220,
        "8455": 211,
        "8456": 126,
        "8457": 136,
        "8458": 227,
        "8459": 176,
        "8460": 238,
        "8461": 148,
        "8462": 75,
        "8463": 159,
        "8464": 80,
        "8465": 196,
        "8466": 41,
        "8467": 182,
        "8468": 39,
        "8469": 22,
        "8470": 220,
        "8471": 183,
        "8472": 106,
        "8473": 13,
        "8474": 40,
        "8475": 161,
        "8476": 37,
        "8477": 123,
        "8478": 167,
        "8479": 252,
        "8480": 135,
        "8481": 26,
        "8482": 135,
        "8483": 97,
        "8484": 153,
        "8485": 67,
        "8486": 100,
        "8487": 185,
        "8488": 190,
        "8489": 166,
        "8490": 84,
        "8491": 194,
        "8492": 230,
        "8493": 252,
        "8494": 240,
        "8495": 141,
        "8496": 194,
        "8497": 240,
        "8498": 20,
        "8499": 39,
        "8500": 240,
        "8501": 192,
        "8502": 110,
        "8503": 226,
        "8504": 76,
        "8505": 176,
        "8506": 218,
        "8507": 128,
        "8508": 189,
        "8509": 213,
        "8510": 15,
        "8511": 106,
        "8512": 143,
        "8513": 166,
        "8514": 74,
        "8515": 122,
        "8516": 108,
        "8517": 235,
        "8518": 2,
        "8519": 166,
        "8520": 73,
        "8521": 175,
        "8522": 18,
        "8523": 139,
        "8524": 186,
        "8525": 69,
        "8526": 98,
        "8527": 238,
        "8528": 229,
        "8529": 7,
        "8530": 173,
        "8531": 163,
        "8532": 45,
        "8533": 43,
        "8534": 112,
        "8535": 163,
        "8536": 116,
        "8537": 22,
        "8538": 13,
        "8539": 23,
        "8540": 201,
        "8541": 202,
        "8542": 6,
        "8543": 33,
        "8544": 229,
        "8545": 152,
        "8546": 164,
        "8547": 154,
        "8548": 111,
        "8549": 250,
        "8550": 187,
        "8551": 196,
        "8552": 122,
        "8553": 191,
        "8554": 123,
        "8555": 245,
        "8556": 188,
        "8557": 35,
        "8558": 39,
        "8559": 225,
        "8560": 194,
        "8561": 245,
        "8562": 181,
        "8563": 183,
        "8564": 1,
        "8565": 227,
        "8566": 214,
        "8567": 97,
        "8568": 156,
        "8569": 130,
        "8570": 4,
        "8571": 190,
        "8572": 150,
        "8573": 194,
        "8574": 7,
        "8575": 62,
        "8576": 37,
        "8577": 0,
        "8578": 88,
        "8579": 190,
        "8580": 62,
        "8581": 76,
        "8582": 89,
        "8583": 141,
        "8584": 93,
        "8585": 125,
        "8586": 2,
        "8587": 128,
        "8588": 119,
        "8589": 143,
        "8590": 239,
        "8591": 178,
        "8592": 131,
        "8593": 14,
        "8594": 133,
        "8595": 90,
        "8596": 77,
        "8597": 12,
        "8598": 170,
        "8599": 115,
        "8600": 61,
        "8601": 2,
        "8602": 47,
        "8603": 86,
        "8604": 1,
        "8605": 48,
        "8606": 116,
        "8607": 181,
        "8608": 93,
        "8609": 10,
        "8610": 102,
        "8611": 168,
        "8612": 9,
        "8613": 30,
        "8614": 244,
        "8615": 221,
        "8616": 77,
        "8617": 67,
        "8618": 77,
        "8619": 164,
        "8620": 67,
        "8621": 42,
        "8622": 201,
        "8623": 42,
        "8624": 137,
        "8625": 135,
        "8626": 4,
        "8627": 9,
        "8628": 50,
        "8629": 139,
        "8630": 100,
        "8631": 124,
        "8632": 102,
        "8633": 47,
        "8634": 207,
        "8635": 55,
        "8636": 44,
        "8637": 117,
        "8638": 211,
        "8639": 142,
        "8640": 51,
        "8641": 97,
        "8642": 217,
        "8643": 250,
        "8644": 95,
        "8645": 88,
        "8646": 15,
        "8647": 245,
        "8648": 98,
        "8649": 147,
        "8650": 43,
        "8651": 48,
        "8652": 236,
        "8653": 211,
        "8654": 100,
        "8655": 203,
        "8656": 253,
        "8657": 24,
        "8658": 84,
        "8659": 13,
        "8660": 9,
        "8661": 8,
        "8662": 234,
        "8663": 193,
        "8664": 138,
        "8665": 207,
        "8666": 234,
        "8667": 46,
        "8668": 95,
        "8669": 205,
        "8670": 22,
        "8671": 195,
        "8672": 12,
        "8673": 246,
        "8674": 59,
        "8675": 207,
        "8676": 81,
        "8677": 211,
        "8678": 97,
        "8679": 234,
        "8680": 7,
        "8681": 222,
        "8682": 209,
        "8683": 167,
        "8684": 122,
        "8685": 96,
        "8686": 124,
        "8687": 68,
        "8688": 11,
        "8689": 62,
        "8690": 84,
        "8691": 1,
        "8692": 46,
        "8693": 116,
        "8694": 93,
        "8695": 13,
        "8696": 105,
        "8697": 84,
        "8698": 44,
        "8699": 17,
        "8700": 104,
        "8701": 172,
        "8702": 179,
        "8703": 241,
        "8704": 152,
        "8705": 113,
        "8706": 203,
        "8707": 120,
        "8708": 50,
        "8709": 163,
        "8710": 49,
        "8711": 99,
        "8712": 191,
        "8713": 148,
        "8714": 92,
        "8715": 249,
        "8716": 92,
        "8717": 147,
        "8718": 37,
        "8719": 224,
        "8720": 119,
        "8721": 247,
        "8722": 233,
        "8723": 101,
        "8724": 0,
        "8725": 230,
        "8726": 238,
        "8727": 199,
        "8728": 10,
        "8729": 126,
        "8730": 119,
        "8731": 10,
        "8732": 236,
        "8733": 36,
        "8734": 6,
        "8735": 99,
        "8736": 195,
        "8737": 179,
        "8738": 31,
        "8739": 233,
        "8740": 222,
        "8741": 22,
        "8742": 16,
        "8743": 245,
        "8744": 40,
        "8745": 103,
        "8746": 117,
        "8747": 121,
        "8748": 151,
        "8749": 155,
        "8750": 31,
        "8751": 54,
        "8752": 244,
        "8753": 167,
        "8754": 39,
        "8755": 4,
        "8756": 240,
        "8757": 53,
        "8758": 170,
        "8759": 79,
        "8760": 132,
        "8761": 250,
        "8762": 68,
        "8763": 96,
        "8764": 244,
        "8765": 68,
        "8766": 10,
        "8767": 192,
        "8768": 250,
        "8769": 109,
        "8770": 9,
        "8771": 80,
        "8772": 249,
        "8773": 63,
        "8774": 73,
        "8775": 200,
        "8776": 25,
        "8777": 116,
        "8778": 17,
        "8779": 190,
        "8780": 103,
        "8781": 243,
        "8782": 229,
        "8783": 197,
        "8784": 14,
        "8785": 30,
        "8786": 88,
        "8787": 190,
        "8788": 88,
        "8789": 205,
        "8790": 215,
        "8791": 29,
        "8792": 25,
        "8793": 200,
        "8794": 175,
        "8795": 97,
        "8796": 41,
        "8797": 33,
        "8798": 189,
        "8799": 9,
        "8800": 144,
        "8801": 136,
        "8802": 18,
        "8803": 181,
        "8804": 169,
        "8805": 205,
        "8806": 108,
        "8807": 219,
        "8808": 14,
        "8809": 214,
        "8810": 220,
        "8811": 115,
        "8812": 16,
        "8813": 117,
        "8814": 150,
        "8815": 157,
        "8816": 215,
        "8817": 69,
        "8818": 3,
        "8819": 69,
        "8820": 69,
        "8821": 37,
        "8822": 42,
        "8823": 169,
        "8824": 60,
        "8825": 100,
        "8826": 70,
        "8827": 184,
        "8828": 136,
        "8829": 136,
        "8830": 178,
        "8831": 47,
        "8832": 60,
        "8833": 110,
        "8834": 143,
        "8835": 39,
        "8836": 40,
        "8837": 165,
        "8838": 47,
        "8839": 150,
        "8840": 131,
        "8841": 98,
        "8842": 35,
        "8843": 24,
        "8844": 219,
        "8845": 48,
        "8846": 185,
        "8847": 161,
        "8848": 86,
        "8849": 58,
        "8850": 151,
        "8851": 248,
        "8852": 122,
        "8853": 47,
        "8854": 197,
        "8855": 30,
        "8856": 202,
        "8857": 65,
        "8858": 95,
        "8859": 12,
        "8860": 46,
        "8861": 11,
        "8862": 49,
        "8863": 248,
        "8864": 221,
        "8865": 117,
        "8866": 183,
        "8867": 39,
        "8868": 99,
        "8869": 107,
        "8870": 178,
        "8871": 196,
        "8872": 8,
        "8873": 139,
        "8874": 252,
        "8875": 23,
        "8876": 20,
        "8877": 218,
        "8878": 186,
        "8879": 164,
        "8880": 232,
        "8881": 58,
        "8882": 166,
        "8883": 31,
        "8884": 211,
        "8885": 213,
        "8886": 181,
        "8887": 228,
        "8888": 180,
        "8889": 162,
        "8890": 191,
        "8891": 165,
        "8892": 75,
        "8893": 132,
        "8894": 188,
        "8895": 129,
        "8896": 225,
        "8897": 169,
        "8898": 57,
        "8899": 196,
        "8900": 49,
        "8901": 135,
        "8902": 241,
        "8903": 231,
        "8904": 199,
        "8905": 215,
        "8906": 154,
        "8907": 25,
        "8908": 250,
        "8909": 35,
        "8910": 237,
        "8911": 217,
        "8912": 168,
        "8913": 137,
        "8914": 40,
        "8915": 147,
        "8916": 21,
        "8917": 95,
        "8918": 11,
        "8919": 38,
        "8920": 220,
        "8921": 97,
        "8922": 210,
        "8923": 71,
        "8924": 179,
        "8925": 164,
        "8926": 112,
        "8927": 192,
        "8928": 132,
        "8929": 100,
        "8930": 64,
        "8931": 233,
        "8932": 11,
        "8933": 172,
        "8934": 104,
        "8935": 166,
        "8936": 17,
        "8937": 136,
        "8938": 111,
        "8939": 177,
        "8940": 233,
        "8941": 49,
        "8942": 209,
        "8943": 202,
        "8944": 42,
        "8945": 35,
        "8946": 201,
        "8947": 47,
        "8948": 108,
        "8949": 38,
        "8950": 69,
        "8951": 168,
        "8952": 177,
        "8953": 106,
        "8954": 69,
        "8955": 67,
        "8956": 210,
        "8957": 120,
        "8958": 195,
        "8959": 86,
        "8960": 242,
        "8961": 61,
        "8962": 228,
        "8963": 235,
        "8964": 102,
        "8965": 179,
        "8966": 121,
        "8967": 23,
        "8968": 111,
        "8969": 123,
        "8970": 193,
        "8971": 57,
        "8972": 250,
        "8973": 30,
        "8974": 183,
        "8975": 209,
        "8976": 153,
        "8977": 236,
        "8978": 134,
        "8979": 150,
        "8980": 45,
        "8981": 208,
        "8982": 157,
        "8983": 244,
        "8984": 146,
        "8985": 239,
        "8986": 84,
        "8987": 20,
        "8988": 91,
        "8989": 39,
        "8990": 30,
        "8991": 135,
        "8992": 249,
        "8993": 67,
        "8994": 204,
        "8995": 67,
        "8996": 31,
        "8997": 211,
        "8998": 218,
        "8999": 5,
        "9000": 1,
        "9001": 170,
        "9002": 46,
        "9003": 255,
        "9004": 62,
        "9005": 203,
        "9006": 90,
        "9007": 161,
        "9008": 214,
        "9009": 165,
        "9010": 84,
        "9011": 105,
        "9012": 181,
        "9013": 40,
        "9014": 81,
        "9015": 113,
        "9016": 5,
        "9017": 67,
        "9018": 94,
        "9019": 152,
        "9020": 155,
        "9021": 23,
        "9022": 68,
        "9023": 82,
        "9024": 90,
        "9025": 142,
        "9026": 167,
        "9027": 94,
        "9028": 206,
        "9029": 126,
        "9030": 247,
        "9031": 196,
        "9032": 216,
        "9033": 197,
        "9034": 125,
        "9035": 193,
        "9036": 189,
        "9037": 53,
        "9038": 202,
        "9039": 175,
        "9040": 192,
        "9041": 244,
        "9042": 172,
        "9043": 41,
        "9044": 119,
        "9045": 13,
        "9046": 111,
        "9047": 8,
        "9048": 250,
        "9049": 161,
        "9050": 173,
        "9051": 171,
        "9052": 133,
        "9053": 45,
        "9054": 251,
        "9055": 85,
        "9056": 244,
        "9057": 151,
        "9058": 149,
        "9059": 200,
        "9060": 23,
        "9061": 19,
        "9062": 138,
        "9063": 37,
        "9064": 206,
        "9065": 138,
        "9066": 249,
        "9067": 245,
        "9068": 87,
        "9069": 37,
        "9070": 202,
        "9071": 245,
        "9072": 122,
        "9073": 83,
        "9074": 227,
        "9075": 48,
        "9076": 94,
        "9077": 229,
        "9078": 12,
        "9079": 231,
        "9080": 138,
        "9081": 54,
        "9082": 28,
        "9083": 34,
        "9084": 95,
        "9085": 184,
        "9086": 101,
        "9087": 242,
        "9088": 121,
        "9089": 166,
        "9090": 99,
        "9091": 208,
        "9092": 33,
        "9093": 18,
        "9094": 242,
        "9095": 3,
        "9096": 195,
        "9097": 79,
        "9098": 210,
        "9099": 206,
        "9100": 24,
        "9101": 146,
        "9102": 83,
        "9103": 186,
        "9104": 81,
        "9105": 72,
        "9106": 110,
        "9107": 39,
        "9108": 134,
        "9109": 67,
        "9110": 80,
        "9111": 72,
        "9112": 206,
        "9113": 127,
        "9114": 127,
        "9115": 144,
        "9116": 0,
        "9117": 202,
        "9118": 112,
        "9119": 69,
        "9120": 13,
        "9121": 172,
        "9122": 162,
        "9123": 119,
        "9124": 50,
        "9125": 120,
        "9126": 148,
        "9127": 87,
        "9128": 153,
        "9129": 156,
        "9130": 190,
        "9131": 227,
        "9132": 106,
        "9133": 247,
        "9134": 235,
        "9135": 63,
        "9136": 138,
        "9137": 135,
        "9138": 95,
        "9139": 48,
        "9140": 228,
        "9141": 192,
        "9142": 42,
        "9143": 32,
        "9144": 31,
        "9145": 98,
        "9146": 104,
        "9147": 68,
        "9148": 36,
        "9149": 174,
        "9150": 160,
        "9151": 121,
        "9152": 37,
        "9153": 88,
        "9154": 205,
        "9155": 137,
        "9156": 164,
        "9157": 160,
        "9158": 163,
        "9159": 108,
        "9160": 131,
        "9161": 218,
        "9162": 48,
        "9163": 152,
        "9164": 162,
        "9165": 161,
        "9166": 180,
        "9167": 246,
        "9168": 109,
        "9169": 198,
        "9170": 175,
        "9171": 36,
        "9172": 215,
        "9173": 77,
        "9174": 67,
        "9175": 77,
        "9176": 151,
        "9177": 189,
        "9178": 151,
        "9179": 184,
        "9180": 5,
        "9181": 239,
        "9182": 66,
        "9183": 149,
        "9184": 160,
        "9185": 153,
        "9186": 222,
        "9187": 116,
        "9188": 122,
        "9189": 213,
        "9190": 156,
        "9191": 12,
        "9192": 233,
        "9193": 181,
        "9194": 219,
        "9195": 133,
        "9196": 249,
        "9197": 156,
        "9198": 124,
        "9199": 85,
        "9200": 191,
        "9201": 255,
        "9202": 47,
        "9203": 154,
        "9204": 80,
        "9205": 144,
        "9206": 218,
        "9207": 127,
        "9208": 141,
        "9209": 204,
        "9210": 40,
        "9211": 10,
        "9212": 20,
        "9213": 23,
        "9214": 77,
        "9215": 206,
        "9216": 142,
        "9217": 136,
        "9218": 22,
        "9219": 98,
        "9220": 236,
        "9221": 108,
        "9222": 204,
        "9223": 250,
        "9224": 151,
        "9225": 31,
        "9226": 97,
        "9227": 156,
        "9228": 216,
        "9229": 120,
        "9230": 37,
        "9231": 132,
        "9232": 239,
        "9233": 207,
        "9234": 17,
        "9235": 205,
        "9236": 115,
        "9237": 166,
        "9238": 75,
        "9239": 56,
        "9240": 40,
        "9241": 9,
        "9242": 164,
        "9243": 225,
        "9244": 233,
        "9245": 24,
        "9246": 85,
        "9247": 203,
        "9248": 118,
        "9249": 216,
        "9250": 31,
        "9251": 14,
        "9252": 251,
        "9253": 130,
        "9254": 100,
        "9255": 146,
        "9256": 0,
        "9257": 41,
        "9258": 86,
        "9259": 111,
        "9260": 23,
        "9261": 236,
        "9262": 178,
        "9263": 184,
        "9264": 181,
        "9265": 99,
        "9266": 157,
        "9267": 205,
        "9268": 119,
        "9269": 246,
        "9270": 177,
        "9271": 13,
        "9272": 96,
        "9273": 43,
        "9274": 110,
        "9275": 249,
        "9276": 144,
        "9277": 113,
        "9278": 119,
        "9279": 12,
        "9280": 102,
        "9281": 172,
        "9282": 17,
        "9283": 120,
        "9284": 21,
        "9285": 193,
        "9286": 73,
        "9287": 46,
        "9288": 85,
        "9289": 218,
        "9290": 202,
        "9291": 14,
        "9292": 157,
        "9293": 113,
        "9294": 34,
        "9295": 213,
        "9296": 223,
        "9297": 115,
        "9298": 125,
        "9299": 253,
        "9300": 153,
        "9301": 232,
        "9302": 159,
        "9303": 160,
        "9304": 232,
        "9305": 164,
        "9306": 4,
        "9307": 51,
        "9308": 166,
        "9309": 75,
        "9310": 55,
        "9311": 216,
        "9312": 193,
        "9313": 67,
        "9314": 235,
        "9315": 216,
        "9316": 0,
        "9317": 106,
        "9318": 28,
        "9319": 189,
        "9320": 27,
        "9321": 101,
        "9322": 243,
        "9323": 118,
        "9324": 120,
        "9325": 15,
        "9326": 146,
        "9327": 17,
        "9328": 239,
        "9329": 96,
        "9330": 138,
        "9331": 169,
        "9332": 222,
        "9333": 116,
        "9334": 36,
        "9335": 208,
        "9336": 223,
        "9337": 50,
        "9338": 47,
        "9339": 85,
        "9340": 6,
        "9341": 159,
        "9342": 253,
        "9343": 224,
        "9344": 100,
        "9345": 10,
        "9346": 10,
        "9347": 150,
        "9348": 116,
        "9349": 251,
        "9350": 120,
        "9351": 134,
        "9352": 8,
        "9353": 185,
        "9354": 249,
        "9355": 157,
        "9356": 227,
        "9357": 78,
        "9358": 0,
        "9359": 234,
        "9360": 123,
        "9361": 1,
        "9362": 179,
        "9363": 71,
        "9364": 83,
        "9365": 157,
        "9366": 222,
        "9367": 144,
        "9368": 110,
        "9369": 204,
        "9370": 172,
        "9371": 164,
        "9372": 249,
        "9373": 121,
        "9374": 208,
        "9375": 24,
        "9376": 10,
        "9377": 146,
        "9378": 97,
        "9379": 214,
        "9380": 140,
        "9381": 229,
        "9382": 91,
        "9383": 245,
        "9384": 47,
        "9385": 211,
        "9386": 78,
        "9387": 123,
        "9388": 237,
        "9389": 79,
        "9390": 197,
        "9391": 11,
        "9392": 248,
        "9393": 161,
        "9394": 99,
        "9395": 46,
        "9396": 19,
        "9397": 76,
        "9398": 89,
        "9399": 250,
        "9400": 171,
        "9401": 194,
        "9402": 240,
        "9403": 205,
        "9404": 228,
        "9405": 103,
        "9406": 30,
        "9407": 117,
        "9408": 210,
        "9409": 155,
        "9410": 206,
        "9411": 211,
        "9412": 116,
        "9413": 35,
        "9414": 104,
        "9415": 240,
        "9416": 38,
        "9417": 39,
        "9418": 198,
        "9419": 183,
        "9420": 96,
        "9421": 113,
        "9422": 198,
        "9423": 84,
        "9424": 205,
        "9425": 161,
        "9426": 29,
        "9427": 213,
        "9428": 253,
        "9429": 236,
        "9430": 78,
        "9431": 193,
        "9432": 166,
        "9433": 10,
        "9434": 161,
        "9435": 94,
        "9436": 82,
        "9437": 195,
        "9438": 18,
        "9439": 201,
        "9440": 199,
        "9441": 246,
        "9442": 37,
        "9443": 172,
        "9444": 26,
        "9445": 201,
        "9446": 238,
        "9447": 96,
        "9448": 14,
        "9449": 119,
        "9450": 115,
        "9451": 103,
        "9452": 134,
        "9453": 154,
        "9454": 205,
        "9455": 186,
        "9456": 197,
        "9457": 32,
        "9458": 26,
        "9459": 67,
        "9460": 233,
        "9461": 47,
        "9462": 146,
        "9463": 238,
        "9464": 46,
        "9465": 144,
        "9466": 216,
        "9467": 235,
        "9468": 153,
        "9469": 135,
        "9470": 241,
        "9471": 231,
        "9472": 141,
        "9473": 107,
        "9474": 189,
        "9475": 172,
        "9476": 251,
        "9477": 152,
        "9478": 56,
        "9479": 225,
        "9480": 112,
        "9481": 195,
        "9482": 3,
        "9483": 217,
        "9484": 101,
        "9485": 210,
        "9486": 144,
        "9487": 164,
        "9488": 135,
        "9489": 68,
        "9490": 160,
        "9491": 213,
        "9492": 72,
        "9493": 181,
        "9494": 168,
        "9495": 164,
        "9496": 47,
        "9497": 34,
        "9498": 24,
        "9499": 193,
        "9500": 39,
        "9501": 207,
        "9502": 144,
        "9503": 69,
        "9504": 204,
        "9505": 171,
        "9506": 142,
        "9507": 180,
        "9508": 2,
        "9509": 236,
        "9510": 18,
        "9511": 188,
        "9512": 87,
        "9513": 9,
        "9514": 131,
        "9515": 176,
        "9516": 125,
        "9517": 190,
        "9518": 209,
        "9519": 110,
        "9520": 53,
        "9521": 39,
        "9522": 149,
        "9523": 45,
        "9524": 42,
        "9525": 84,
        "9526": 93,
        "9527": 1,
        "9528": 59,
        "9529": 27,
        "9530": 157,
        "9531": 82,
        "9532": 179,
        "9533": 232,
        "9534": 99,
        "9535": 205,
        "9536": 23,
        "9537": 78,
        "9538": 211,
        "9539": 90,
        "9540": 188,
        "9541": 242,
        "9542": 22,
        "9543": 181,
        "9544": 78,
        "9545": 175,
        "9546": 240,
        "9547": 49,
        "9548": 4,
        "9549": 90,
        "9550": 243,
        "9551": 253,
        "9552": 83,
        "9553": 255,
        "9554": 178,
        "9555": 206,
        "9556": 23,
        "9557": 81,
        "9558": 66,
        "9559": 185,
        "9560": 36,
        "9561": 224,
        "9562": 207,
        "9563": 37,
        "9564": 197,
        "9565": 24,
        "9566": 246,
        "9567": 30,
        "9568": 83,
        "9569": 87,
        "9570": 213,
        "9571": 156,
        "9572": 196,
        "9573": 148,
        "9574": 38,
        "9575": 232,
        "9576": 159,
        "9577": 65,
        "9578": 246,
        "9579": 122,
        "9580": 251,
        "9581": 73,
        "9582": 96,
        "9583": 169,
        "9584": 40,
        "9585": 236,
        "9586": 241,
        "9587": 151,
        "9588": 84,
        "9589": 76,
        "9590": 209,
        "9591": 89,
        "9592": 249,
        "9593": 120,
        "9594": 163,
        "9595": 210,
        "9596": 182,
        "9597": 247,
        "9598": 241,
        "9599": 37,
        "9600": 249,
        "9601": 146,
        "9602": 146,
        "9603": 15,
        "9604": 37,
        "9605": 156,
        "9606": 231,
        "9607": 13,
        "9608": 80,
        "9609": 18,
        "9610": 163,
        "9611": 218,
        "9612": 243,
        "9613": 156,
        "9614": 151,
        "9615": 31,
        "9616": 48,
        "9617": 237,
        "9618": 53,
        "9619": 67,
        "9620": 8,
        "9621": 76,
        "9622": 41,
        "9623": 128,
        "9624": 18,
        "9625": 83,
        "9626": 31,
        "9627": 169,
        "9628": 36,
        "9629": 72,
        "9630": 13,
        "9631": 132,
        "9632": 215,
        "9633": 66,
        "9634": 143,
        "9635": 129,
        "9636": 218,
        "9637": 186,
        "9638": 49,
        "9639": 251,
        "9640": 34,
        "9641": 12,
        "9642": 199,
        "9643": 123,
        "9644": 183,
        "9645": 161,
        "9646": 53,
        "9647": 236,
        "9648": 202,
        "9649": 140,
        "9650": 21,
        "9651": 253,
        "9652": 91,
        "9653": 88,
        "9654": 244,
        "9655": 172,
        "9656": 0,
        "9657": 209,
        "9658": 13,
        "9659": 180,
        "9660": 66,
        "9661": 50,
        "9662": 111,
        "9663": 203,
        "9664": 44,
        "9665": 164,
        "9666": 217,
        "9667": 2,
        "9668": 82,
        "9669": 18,
        "9670": 139,
        "9671": 111,
        "9672": 147,
        "9673": 31,
        "9674": 225,
        "9675": 31,
        "9676": 255,
        "9677": 226,
        "9678": 33,
        "9679": 5,
        "9680": 221,
        "9681": 105,
        "9682": 70,
        "9683": 120,
        "9684": 168,
        "9685": 178,
        "9686": 181,
        "9687": 251,
        "9688": 13,
        "9689": 217,
        "9690": 92,
        "9691": 151,
        "9692": 212,
        "9693": 66,
        "9694": 198,
        "9695": 57,
        "9696": 183,
        "9697": 251,
        "9698": 179,
        "9699": 59,
        "9700": 79,
        "9701": 96,
        "9702": 249,
        "9703": 136,
        "9704": 103,
        "9705": 223,
        "9706": 76,
        "9707": 60,
        "9708": 97,
        "9709": 146,
        "9710": 48,
        "9711": 202,
        "9712": 128,
        "9713": 50,
        "9714": 22,
        "9715": 148,
        "9716": 139,
        "9717": 217,
        "9718": 128,
        "9719": 193,
        "9720": 97,
        "9721": 199,
        "9722": 74,
        "9723": 28,
        "9724": 157,
        "9725": 44,
        "9726": 21,
        "9727": 82,
        "9728": 133,
        "9729": 192,
        "9730": 201,
        "9731": 156,
        "9732": 108,
        "9733": 176,
        "9734": 207,
        "9735": 254,
        "9736": 177,
        "9737": 76,
        "9738": 160,
        "9739": 83,
        "9740": 137,
        "9741": 252,
        "9742": 211,
        "9743": 43,
        "9744": 180,
        "9745": 238,
        "9746": 26,
        "9747": 87,
        "9748": 112,
        "9749": 135,
        "9750": 251,
        "9751": 73,
        "9752": 157,
        "9753": 95,
        "9754": 255,
        "9755": 33,
        "9756": 201,
        "9757": 83,
        "9758": 1,
        "9759": 243,
        "9760": 35,
        "9761": 92,
        "9762": 5,
        "9763": 3,
        "9764": 31,
        "9765": 39,
        "9766": 255,
        "9767": 242,
        "9768": 229,
        "9769": 128,
        "9770": 1,
        "9771": 171,
        "9772": 41,
        "9773": 222,
        "9774": 223,
        "9775": 8,
        "9776": 91,
        "9777": 222,
        "9778": 81,
        "9779": 61,
        "9780": 162,
        "9781": 56,
        "9782": 210,
        "9783": 206,
        "9784": 27,
        "9785": 247,
        "9786": 43,
        "9787": 224,
        "9788": 227,
        "9789": 80,
        "9790": 250,
        "9791": 135,
        "9792": 113,
        "9793": 40,
        "9794": 30,
        "9795": 172,
        "9796": 230,
        "9797": 238,
        "9798": 165,
        "9799": 32,
        "9800": 240,
        "9801": 44,
        "9802": 1,
        "9803": 207,
        "9804": 105,
        "9805": 95,
        "9806": 125,
        "9807": 83,
        "9808": 225,
        "9809": 158,
        "9810": 115,
        "9811": 192,
        "9812": 169,
        "9813": 62,
        "9814": 6,
        "9815": 103,
        "9816": 232,
        "9817": 133,
        "9818": 209,
        "9819": 82,
        "9820": 70,
        "9821": 255,
        "9822": 74,
        "9823": 165,
        "9824": 120,
        "9825": 218,
        "9826": 143,
        "9827": 225,
        "9828": 22,
        "9829": 3,
        "9830": 205,
        "9831": 108,
        "9832": 64,
        "9833": 14,
        "9834": 2,
        "9835": 131,
        "9836": 229,
        "9837": 220,
        "9838": 174,
        "9839": 216,
        "9840": 1,
        "9841": 140,
        "9842": 109,
        "9843": 16,
        "9844": 137,
        "9845": 60,
        "9846": 169,
        "9847": 116,
        "9848": 49,
        "9849": 205,
        "9850": 192,
        "9851": 144,
        "9852": 217,
        "9853": 184,
        "9854": 228,
        "9855": 237,
        "9856": 188,
        "9857": 209,
        "9858": 241,
        "9859": 132,
        "9860": 194,
        "9861": 140,
        "9862": 12,
        "9863": 36,
        "9864": 69,
        "9865": 243,
        "9866": 235,
        "9867": 76,
        "9868": 31,
        "9869": 62,
        "9870": 218,
        "9871": 192,
        "9872": 160,
        "9873": 184,
        "9874": 13,
        "9875": 97,
        "9876": 40,
        "9877": 167,
        "9878": 251,
        "9879": 55,
        "9880": 13,
        "9881": 225,
        "9882": 56,
        "9883": 185,
        "9884": 105,
        "9885": 194,
        "9886": 87,
        "9887": 51,
        "9888": 250,
        "9889": 210,
        "9890": 111,
        "9891": 156,
        "9892": 165,
        "9893": 132,
        "9894": 166,
        "9895": 226,
        "9896": 251,
        "9897": 127,
        "9898": 200,
        "9899": 177,
        "9900": 23,
        "9901": 62,
        "9902": 140,
        "9903": 3,
        "9904": 189,
        "9905": 14,
        "9906": 160,
        "9907": 94,
        "9908": 116,
        "9909": 140,
        "9910": 126,
        "9911": 102,
        "9912": 165,
        "9913": 245,
        "9914": 103,
        "9915": 109,
        "9916": 91,
        "9917": 35,
        "9918": 210,
        "9919": 55,
        "9920": 227,
        "9921": 41,
        "9922": 193,
        "9923": 10,
        "9924": 26,
        "9925": 215,
        "9926": 41,
        "9927": 182,
        "9928": 209,
        "9929": 51,
        "9930": 221,
        "9931": 14,
        "9932": 199,
        "9933": 118,
        "9934": 31,
        "9935": 124,
        "9936": 157,
        "9937": 225,
        "9938": 145,
        "9939": 142,
        "9940": 64,
        "9941": 3,
        "9942": 61,
        "9943": 250,
        "9944": 170,
        "9945": 144,
        "9946": 8,
        "9947": 56,
        "9948": 242,
        "9949": 8,
        "9950": 225,
        "9951": 54,
        "9952": 46,
        "9953": 47,
        "9954": 80,
        "9955": 223,
        "9956": 157,
        "9957": 156,
        "9958": 76,
        "9959": 152,
        "9960": 188,
        "9961": 189,
        "9962": 190,
        "9963": 248,
        "9964": 151,
        "9965": 149,
        "9966": 238,
        "9967": 227,
        "9968": 159,
        "9969": 202,
        "9970": 130,
        "9971": 68,
        "9972": 243,
        "9973": 170,
        "9974": 236,
        "9975": 68,
        "9976": 35,
        "9977": 119,
        "9978": 228,
        "9979": 43,
        "9980": 167,
        "9981": 107,
        "9982": 199,
        "9983": 35,
        "9984": 3,
        "9985": 14,
        "9986": 79,
        "9987": 109,
        "9988": 68,
        "9989": 229,
        "9990": 75,
        "9991": 2,
        "9992": 231,
        "9993": 92,
        "9994": 170,
        "9995": 2,
        "9996": 21,
        "9997": 222,
        "9998": 54,
        "9999": 136,
        "10000": 3,
        "10001": 176,
        "10002": 32,
        "10003": 211,
        "10004": 189,
        "10005": 251,
        "10006": 230,
        "10007": 124,
        "10008": 54,
        "10009": 215,
        "10010": 78,
        "10011": 186,
        "10012": 42,
        "10013": 42,
        "10014": 154,
        "10015": 112,
        "10016": 112,
        "10017": 114,
        "10018": 177,
        "10019": 248,
        "10020": 254,
        "10021": 178,
        "10022": 17,
        "10023": 160,
        "10024": 206,
        "10025": 196,
        "10026": 3,
        "10027": 97,
        "10028": 213,
        "10029": 239,
        "10030": 48,
        "10031": 179,
        "10032": 188,
        "10033": 232,
        "10034": 80,
        "10035": 246,
        "10036": 92,
        "10037": 91,
        "10038": 47,
        "10039": 130,
        "10040": 233,
        "10041": 165,
        "10042": 174,
        "10043": 150,
        "10044": 145,
        "10045": 30,
        "10046": 55,
        "10047": 90,
        "10048": 187,
        "10049": 68,
        "10050": 95,
        "10051": 85,
        "10052": 184,
        "10053": 238,
        "10054": 126,
        "10055": 255,
        "10056": 134,
        "10057": 207,
        "10058": 225,
        "10059": 26,
        "10060": 148,
        "10061": 114,
        "10062": 19,
        "10063": 136,
        "10064": 200,
        "10065": 156,
        "10066": 82,
        "10067": 220,
        "10068": 131,
        "10069": 213,
        "10070": 175,
        "10071": 76,
        "10072": 79,
        "10073": 47,
        "10074": 189,
        "10075": 90,
        "10076": 149,
        "10077": 45,
        "10078": 182,
        "10079": 119,
        "10080": 109,
        "10081": 174,
        "10082": 171,
        "10083": 29,
        "10084": 216,
        "10085": 223,
        "10086": 82,
        "10087": 21,
        "10088": 139,
        "10089": 209,
        "10090": 232,
        "10091": 79,
        "10092": 205,
        "10093": 163,
        "10094": 66,
        "10095": 33,
        "10096": 182,
        "10097": 44,
        "10098": 201,
        "10099": 25,
        "10100": 58,
        "10101": 175,
        "10102": 56,
        "10103": 140,
        "10104": 0,
        "10105": 233,
        "10106": 46,
        "10107": 82,
        "10108": 146,
        "10109": 180,
        "10110": 167,
        "10111": 190,
        "10112": 71,
        "10113": 12,
        "10114": 234,
        "10115": 10,
        "10116": 248,
        "10117": 202,
        "10118": 170,
        "10119": 168,
        "10120": 133,
        "10121": 14,
        "10122": 48,
        "10123": 212,
        "10124": 141,
        "10125": 167,
        "10126": 104,
        "10127": 24,
        "10128": 83,
        "10129": 33,
        "10130": 185,
        "10131": 216,
        "10132": 220,
        "10133": 213,
        "10134": 110,
        "10135": 213,
        "10136": 31,
        "10137": 41,
        "10138": 201,
        "10139": 47,
        "10140": 73,
        "10141": 46,
        "10142": 241,
        "10143": 167,
        "10144": 54,
        "10145": 159,
        "10146": 3,
        "10147": 182,
        "10148": 57,
        "10149": 118,
        "10150": 227,
        "10151": 90,
        "10152": 147,
        "10153": 237,
        "10154": 33,
        "10155": 177,
        "10156": 157,
        "10157": 178,
        "10158": 17,
        "10159": 244,
        "10160": 130,
        "10161": 62,
        "10162": 138,
        "10163": 141,
        "10164": 145,
        "10165": 78,
        "10166": 174,
        "10167": 184,
        "10168": 91,
        "10169": 189,
        "10170": 41,
        "10171": 122,
        "10172": 190,
        "10173": 185,
        "10174": 162,
        "10175": 48,
        "10176": 187,
        "10177": 153,
        "10178": 231,
        "10179": 160,
        "10180": 187,
        "10181": 49,
        "10182": 154,
        "10183": 25,
        "10184": 156,
        "10185": 225,
        "10186": 138,
        "10187": 6,
        "10188": 204,
        "10189": 47,
        "10190": 152,
        "10191": 62,
        "10192": 244,
        "10193": 38,
        "10194": 180,
        "10195": 70,
        "10196": 29,
        "10197": 204,
        "10198": 44,
        "10199": 52,
        "10200": 59,
        "10201": 81,
        "10202": 160,
        "10203": 64,
        "10204": 198,
        "10205": 163,
        "10206": 2,
        "10207": 246,
        "10208": 202,
        "10209": 6,
        "10210": 87,
        "10211": 187,
        "10212": 5,
        "10213": 67,
        "10214": 149,
        "10215": 147,
        "10216": 189,
        "10217": 199,
        "10218": 56,
        "10219": 23,
        "10220": 17,
        "10221": 238,
        "10222": 155,
        "10223": 37,
        "10224": 220,
        "10225": 117,
        "10226": 126,
        "10227": 22,
        "10228": 5,
        "10229": 235,
        "10230": 104,
        "10231": 151,
        "10232": 130,
        "10233": 95,
        "10234": 98,
        "10235": 24,
        "10236": 37,
        "10237": 215,
        "10238": 29,
        "10239": 40,
        "10240": 47,
        "10241": 33,
        "10242": 165,
        "10243": 198,
        "10244": 222,
        "10245": 123,
        "10246": 20,
        "10247": 23,
        "10248": 30,
        "10249": 238,
        "10250": 18,
        "10251": 70,
        "10252": 148,
        "10253": 221,
        "10254": 138,
        "10255": 248,
        "10256": 187,
        "10257": 136,
        "10258": 213,
        "10259": 154,
        "10260": 91,
        "10261": 170,
        "10262": 84,
        "10263": 35,
        "10264": 102,
        "10265": 52,
        "10266": 138,
        "10267": 118,
        "10268": 166,
        "10269": 220,
        "10270": 219,
        "10271": 92,
        "10272": 54,
        "10273": 159,
        "10274": 123,
        "10275": 48,
        "10276": 203,
        "10277": 152,
        "10278": 89,
        "10279": 5,
        "10280": 83,
        "10281": 229,
        "10282": 9,
        "10283": 159,
        "10284": 111,
        "10285": 208,
        "10286": 70,
        "10287": 18,
        "10288": 213,
        "10289": 49,
        "10290": 111,
        "10291": 159,
        "10292": 207,
        "10293": 13,
        "10294": 139,
        "10295": 188,
        "10296": 143,
        "10297": 12,
        "10298": 153,
        "10299": 9,
        "10300": 244,
        "10301": 232,
        "10302": 199,
        "10303": 220,
        "10304": 28,
        "10305": 175,
        "10306": 37,
        "10307": 114,
        "10308": 35,
        "10309": 114,
        "10310": 67,
        "10311": 137,
        "10312": 221,
        "10313": 208,
        "10314": 217,
        "10315": 163,
        "10316": 36,
        "10317": 20,
        "10318": 22,
        "10319": 53,
        "10320": 89,
        "10321": 178,
        "10322": 82,
        "10323": 136,
        "10324": 41,
        "10325": 97,
        "10326": 45,
        "10327": 144,
        "10328": 84,
        "10329": 83,
        "10330": 253,
        "10331": 183,
        "10332": 101,
        "10333": 29,
        "10334": 12,
        "10335": 239,
        "10336": 236,
        "10337": 68,
        "10338": 219,
        "10339": 202,
        "10340": 244,
        "10341": 95,
        "10342": 236,
        "10343": 141,
        "10344": 207,
        "10345": 86,
        "10346": 71,
        "10347": 251,
        "10348": 238,
        "10349": 243,
        "10350": 186,
        "10351": 220,
        "10352": 14,
        "10353": 157,
        "10354": 93,
        "10355": 103,
        "10356": 119,
        "10357": 66,
        "10358": 104,
        "10359": 134,
        "10360": 73,
        "10361": 184,
        "10362": 18,
        "10363": 176,
        "10364": 84,
        "10365": 184,
        "10366": 101,
        "10367": 60,
        "10368": 163,
        "10369": 125,
        "10370": 133,
        "10371": 53,
        "10372": 165,
        "10373": 227,
        "10374": 179,
        "10375": 191,
        "10376": 235,
        "10377": 138,
        "10378": 94,
        "10379": 204,
        "10380": 164,
        "10381": 18,
        "10382": 235,
        "10383": 74,
        "10384": 235,
        "10385": 224,
        "10386": 160,
        "10387": 212,
        "10388": 206,
        "10389": 123,
        "10390": 206,
        "10391": 50,
        "10392": 15,
        "10393": 167,
        "10394": 185,
        "10395": 32,
        "10396": 93,
        "10397": 24,
        "10398": 195,
        "10399": 111,
        "10400": 220,
        "10401": 174,
        "10402": 134,
        "10403": 31,
        "10404": 231,
        "10405": 253,
        "10406": 212,
        "10407": 127,
        "10408": 111,
        "10409": 138,
        "10410": 99,
        "10411": 89,
        "10412": 0,
        "10413": 196,
        "10414": 119,
        "10415": 106,
        "10416": 93,
        "10417": 20,
        "10418": 207,
        "10419": 181,
        "10420": 57,
        "10421": 247,
        "10422": 132,
        "10423": 45,
        "10424": 147,
        "10425": 96,
        "10426": 70,
        "10427": 231,
        "10428": 0,
        "10429": 0,
        "10430": 57,
        "10431": 32,
        "10432": 111,
        "10433": 203,
        "10434": 30,
        "10435": 62,
        "10436": 28,
        "10437": 20,
        "10438": 98,
        "10439": 137,
        "10440": 203,
        "10441": 210,
        "10442": 203,
        "10443": 93,
        "10444": 48,
        "10445": 71,
        "10446": 57,
        "10447": 5,
        "10448": 125,
        "10449": 210,
        "10450": 115,
        "10451": 80,
        "10452": 157,
        "10453": 23,
        "10454": 5,
        "10455": 92,
        "10456": 168,
        "10457": 98,
        "10458": 255,
        "10459": 82,
        "10460": 36,
        "10461": 43,
        "10462": 178,
        "10463": 88,
        "10464": 168,
        "10465": 195,
        "10466": 130,
        "10467": 66,
        "10468": 196,
        "10469": 114,
        "10470": 122,
        "10471": 208,
        "10472": 189,
        "10473": 200,
        "10474": 149,
        "10475": 76,
        "10476": 42,
        "10477": 254,
        "10478": 88,
        "10479": 163,
        "10480": 23,
        "10481": 229,
        "10482": 186,
        "10483": 248,
        "10484": 66,
        "10485": 83,
        "10486": 57,
        "10487": 118,
        "10488": 1,
        "10489": 133,
        "10490": 114,
        "10491": 175,
        "10492": 200,
        "10493": 247,
        "10494": 19,
        "10495": 110,
        "10496": 30,
        "10497": 138,
        "10498": 5,
        "10499": 244,
        "10500": 19,
        "10501": 132,
        "10502": 91,
        "10503": 147,
        "10504": 8,
        "10505": 43,
        "10506": 140,
        "10507": 10,
        "10508": 145,
        "10509": 101,
        "10510": 63,
        "10511": 115,
        "10512": 101,
        "10513": 45,
        "10514": 11,
        "10515": 35,
        "10516": 111,
        "10517": 118,
        "10518": 246,
        "10519": 14,
        "10520": 94,
        "10521": 199,
        "10522": 39,
        "10523": 156,
        "10524": 23,
        "10525": 232,
        "10526": 227,
        "10527": 190,
        "10528": 82,
        "10529": 24,
        "10530": 198,
        "10531": 81,
        "10532": 121,
        "10533": 65,
        "10534": 250,
        "10535": 190,
        "10536": 69,
        "10537": 64,
        "10538": 131,
        "10539": 114,
        "10540": 157,
        "10541": 178,
        "10542": 254,
        "10543": 172,
        "10544": 67,
        "10545": 255,
        "10546": 221,
        "10547": 197,
        "10548": 22,
        "10549": 254,
        "10550": 214,
        "10551": 104,
        "10552": 190,
        "10553": 99,
        "10554": 200,
        "10555": 185,
        "10556": 162,
        "10557": 160,
        "10558": 64,
        "10559": 55,
        "10560": 10,
        "10561": 114,
        "10562": 202,
        "10563": 224,
        "10564": 116,
        "10565": 203,
        "10566": 87,
        "10567": 109,
        "10568": 75,
        "10569": 101,
        "10570": 121,
        "10571": 95,
        "10572": 124,
        "10573": 41,
        "10574": 115,
        "10575": 156,
        "10576": 73,
        "10577": 248,
        "10578": 100,
        "10579": 8,
        "10580": 192,
        "10581": 227,
        "10582": 187,
        "10583": 175,
        "10584": 186,
        "10585": 15,
        "10586": 242,
        "10587": 65,
        "10588": 116,
        "10589": 186,
        "10590": 148,
        "10591": 127,
        "10592": 176,
        "10593": 137,
        "10594": 202,
        "10595": 40,
        "10596": 149,
        "10597": 222,
        "10598": 51,
        "10599": 218,
        "10600": 251,
        "10601": 150,
        "10602": 228,
        "10603": 162,
        "10604": 34,
        "10605": 37,
        "10606": 118,
        "10607": 133,
        "10608": 254,
        "10609": 133,
        "10610": 181,
        "10611": 146,
        "10612": 212,
        "10613": 180,
        "10614": 56,
        "10615": 32,
        "10616": 2,
        "10617": 102,
        "10618": 184,
        "10619": 250,
        "10620": 218,
        "10621": 82,
        "10622": 251,
        "10623": 252,
        "10624": 199,
        "10625": 206,
        "10626": 19,
        "10627": 233,
        "10628": 137,
        "10629": 14,
        "10630": 181,
        "10631": 9,
        "10632": 152,
        "10633": 33,
        "10634": 143,
        "10635": 146,
        "10636": 144,
        "10637": 160,
        "10638": 6,
        "10639": 240,
        "10640": 16,
        "10641": 159,
        "10642": 140,
        "10643": 147,
        "10644": 211,
        "10645": 69,
        "10646": 177,
        "10647": 73,
        "10648": 128,
        "10649": 188,
        "10650": 234,
        "10651": 17,
        "10652": 206,
        "10653": 254,
        "10654": 153,
        "10655": 38,
        "10656": 78,
        "10657": 159,
        "10658": 4,
        "10659": 108,
        "10660": 232,
        "10661": 214,
        "10662": 247,
        "10663": 244,
        "10664": 217,
        "10665": 110,
        "10666": 75,
        "10667": 207,
        "10668": 180,
        "10669": 136,
        "10670": 250,
        "10671": 211,
        "10672": 18,
        "10673": 53,
        "10674": 108,
        "10675": 109,
        "10676": 236,
        "10677": 161,
        "10678": 69,
        "10679": 51,
        "10680": 167,
        "10681": 97,
        "10682": 212,
        "10683": 205,
        "10684": 249,
        "10685": 235,
        "10686": 202,
        "10687": 17,
        "10688": 249,
        "10689": 196,
        "10690": 151,
        "10691": 197,
        "10692": 3,
        "10693": 222,
        "10694": 25,
        "10695": 138,
        "10696": 110,
        "10697": 168,
        "10698": 246,
        "10699": 255,
        "10700": 254,
        "10701": 42,
        "10702": 196,
        "10703": 26,
        "10704": 39,
        "10705": 85,
        "10706": 70,
        "10707": 8,
        "10708": 210,
        "10709": 226,
        "10710": 201,
        "10711": 195,
        "10712": 46,
        "10713": 35,
        "10714": 106,
        "10715": 129,
        "10716": 66,
        "10717": 37,
        "10718": 62,
        "10719": 168,
        "10720": 204,
        "10721": 91,
        "10722": 42,
        "10723": 121,
        "10724": 247,
        "10725": 38,
        "10726": 254,
        "10727": 40,
        "10728": 141,
        "10729": 201,
        "10730": 111,
        "10731": 140,
        "10732": 132,
        "10733": 37,
        "10734": 42,
        "10735": 219,
        "10736": 213,
        "10737": 74,
        "10738": 180,
        "10739": 62,
        "10740": 82,
        "10741": 69,
        "10742": 86,
        "10743": 180,
        "10744": 92,
        "10745": 203,
        "10746": 167,
        "10747": 132,
        "10748": 35,
        "10749": 232,
        "10750": 237,
        "10751": 157,
        "10752": 28,
        "10753": 182,
        "10754": 3,
        "10755": 101,
        "10756": 194,
        "10757": 33,
        "10758": 0,
        "10759": 66,
        "10760": 56,
        "10761": 53,
        "10762": 94,
        "10763": 29,
        "10764": 242,
        "10765": 247,
        "10766": 216,
        "10767": 143,
        "10768": 200,
        "10769": 88,
        "10770": 158,
        "10771": 119,
        "10772": 133,
        "10773": 136,
        "10774": 196,
        "10775": 55,
        "10776": 126,
        "10777": 85,
        "10778": 173,
        "10779": 170,
        "10780": 87,
        "10781": 184,
        "10782": 144,
        "10783": 167,
        "10784": 85,
        "10785": 32,
        "10786": 20,
        "10787": 183,
        "10788": 30,
        "10789": 134,
        "10790": 225,
        "10791": 186,
        "10792": 41,
        "10793": 105,
        "10794": 11,
        "10795": 248,
        "10796": 247,
        "10797": 141,
        "10798": 240,
        "10799": 59,
        "10800": 192,
        "10801": 239,
        "10802": 137,
        "10803": 160,
        "10804": 105,
        "10805": 170,
        "10806": 251,
        "10807": 63,
        "10808": 201,
        "10809": 54,
        "10810": 24,
        "10811": 119,
        "10812": 130,
        "10813": 130,
        "10814": 134,
        "10815": 121,
        "10816": 255,
        "10817": 35,
        "10818": 136,
        "10819": 238,
        "10820": 4,
        "10821": 80,
        "10822": 178,
        "10823": 152,
        "10824": 177,
        "10825": 1,
        "10826": 11,
        "10827": 69,
        "10828": 71,
        "10829": 248,
        "10830": 116,
        "10831": 99,
        "10832": 253,
        "10833": 188,
        "10834": 62,
        "10835": 222,
        "10836": 70,
        "10837": 244,
        "10838": 64,
        "10839": 64,
        "10840": 208,
        "10841": 200,
        "10842": 20,
        "10843": 206,
        "10844": 156,
        "10845": 2,
        "10846": 47,
        "10847": 180,
        "10848": 121,
        "10849": 217,
        "10850": 247,
        "10851": 208,
        "10852": 67,
        "10853": 73,
        "10854": 133,
        "10855": 164,
        "10856": 201,
        "10857": 147,
        "10858": 203,
        "10859": 92,
        "10860": 225,
        "10861": 159,
        "10862": 111,
        "10863": 209,
        "10864": 165,
        "10865": 80,
        "10866": 200,
        "10867": 128,
        "10868": 178,
        "10869": 137,
        "10870": 173,
        "10871": 188,
        "10872": 196,
        "10873": 163,
        "10874": 217,
        "10875": 174,
        "10876": 235,
        "10877": 33,
        "10878": 118,
        "10879": 184,
        "10880": 141,
        "10881": 213,
        "10882": 94,
        "10883": 157,
        "10884": 115,
        "10885": 53,
        "10886": 39,
        "10887": 34,
        "10888": 4,
        "10889": 10,
        "10890": 65,
        "10891": 133,
        "10892": 181,
        "10893": 150,
        "10894": 110,
        "10895": 146,
        "10896": 38,
        "10897": 178,
        "10898": 157,
        "10899": 170,
        "10900": 169,
        "10901": 126,
        "10902": 248,
        "10903": 226,
        "10904": 191,
        "10905": 1,
        "10906": 91,
        "10907": 20,
        "10908": 110,
        "10909": 73,
        "10910": 247,
        "10911": 159,
        "10912": 235,
        "10913": 59,
        "10914": 75,
        "10915": 133,
        "10916": 197,
        "10917": 8,
        "10918": 230,
        "10919": 194,
        "10920": 60,
        "10921": 105,
        "10922": 242,
        "10923": 71,
        "10924": 20,
        "10925": 216,
        "10926": 117,
        "10927": 17,
        "10928": 172,
        "10929": 141,
        "10930": 12,
        "10931": 163,
        "10932": 29,
        "10933": 167,
        "10934": 109,
        "10935": 174,
        "10936": 175,
        "10937": 253,
        "10938": 205,
        "10939": 236,
        "10940": 207,
        "10941": 2,
        "10942": 40,
        "10943": 137,
        "10944": 2,
        "10945": 67,
        "10946": 96,
        "10947": 172,
        "10948": 40,
        "10949": 14,
        "10950": 59,
        "10951": 126,
        "10952": 175,
        "10953": 168,
        "10954": 154,
        "10955": 183,
        "10956": 132,
        "10957": 89,
        "10958": 87,
        "10959": 48,
        "10960": 83,
        "10961": 89,
        "10962": 248,
        "10963": 64,
        "10964": 101,
        "10965": 196,
        "10966": 70,
        "10967": 33,
        "10968": 68,
        "10969": 214,
        "10970": 59,
        "10971": 48,
        "10972": 128,
        "10973": 230,
        "10974": 252,
        "10975": 94,
        "10976": 31,
        "10977": 130,
        "10978": 72,
        "10979": 17,
        "10980": 23,
        "10981": 70,
        "10982": 104,
        "10983": 202,
        "10984": 19,
        "10985": 78,
        "10986": 118,
        "10987": 115,
        "10988": 37,
        "10989": 28,
        "10990": 136,
        "10991": 214,
        "10992": 144,
        "10993": 172,
        "10994": 125,
        "10995": 220,
        "10996": 190,
        "10997": 72,
        "10998": 0,
        "10999": 230,
        "11000": 78,
        "11001": 99,
        "11002": 114,
        "11003": 178,
        "11004": 92,
        "11005": 105,
        "11006": 44,
        "11007": 25,
        "11008": 201,
        "11009": 181,
        "11010": 232,
        "11011": 140,
        "11012": 95,
        "11013": 30,
        "11014": 109,
        "11015": 227,
        "11016": 33,
        "11017": 234,
        "11018": 141,
        "11019": 236,
        "11020": 41,
        "11021": 0,
        "11022": 11,
        "11023": 148,
        "11024": 149,
        "11025": 154,
        "11026": 179,
        "11027": 101,
        "11028": 88,
        "11029": 165,
        "11030": 75,
        "11031": 193,
        "11032": 126,
        "11033": 18,
        "11034": 180,
        "11035": 91,
        "11036": 37,
        "11037": 184,
        "11038": 228,
        "11039": 51,
        "11040": 53,
        "11041": 165,
        "11042": 27,
        "11043": 193,
        "11044": 58,
        "11045": 2,
        "11046": 162,
        "11047": 38,
        "11048": 177,
        "11049": 157,
        "11050": 253,
        "11051": 109,
        "11052": 46,
        "11053": 49,
        "11054": 98,
        "11055": 137,
        "11056": 165,
        "11057": 11,
        "11058": 110,
        "11059": 107,
        "11060": 186,
        "11061": 121,
        "11062": 141,
        "11063": 231,
        "11064": 83,
        "11065": 41,
        "11066": 148,
        "11067": 80,
        "11068": 152,
        "11069": 135,
        "11070": 226,
        "11071": 165,
        "11072": 8,
        "11073": 182,
        "11074": 194,
        "11075": 134,
        "11076": 3,
        "11077": 14,
        "11078": 253,
        "11079": 139,
        "11080": 146,
        "11081": 122,
        "11082": 153,
        "11083": 146,
        "11084": 67,
        "11085": 247,
        "11086": 250,
        "11087": 57,
        "11088": 95,
        "11089": 169,
        "11090": 148,
        "11091": 74,
        "11092": 11,
        "11093": 8,
        "11094": 248,
        "11095": 169,
        "11096": 76,
        "11097": 25,
        "11098": 63,
        "11099": 92,
        "11100": 9,
        "11101": 110,
        "11102": 248,
        "11103": 103,
        "11104": 184,
        "11105": 212,
        "11106": 6,
        "11107": 150,
        "11108": 101,
        "11109": 241,
        "11110": 163,
        "11111": 255,
        "11112": 166,
        "11113": 36,
        "11114": 150,
        "11115": 255,
        "11116": 100,
        "11117": 134,
        "11118": 79,
        "11119": 213,
        "11120": 141,
        "11121": 229,
        "11122": 18,
        "11123": 34,
        "11124": 21,
        "11125": 242,
        "11126": 33,
        "11127": 236,
        "11128": 60,
        "11129": 110,
        "11130": 15,
        "11131": 157,
        "11132": 33,
        "11133": 130,
        "11134": 125,
        "11135": 74,
        "11136": 56,
        "11137": 154,
        "11138": 230,
        "11139": 35,
        "11140": 155,
        "11141": 106,
        "11142": 43,
        "11143": 141,
        "11144": 220,
        "11145": 102,
        "11146": 117,
        "11147": 185,
        "11148": 101,
        "11149": 6,
        "11150": 128,
        "11151": 67,
        "11152": 204,
        "11153": 90,
        "11154": 116,
        "11155": 54,
        "11156": 116,
        "11157": 120,
        "11158": 85,
        "11159": 223,
        "11160": 123,
        "11161": 63,
        "11162": 61,
        "11163": 18,
        "11164": 20,
        "11165": 28,
        "11166": 127,
        "11167": 91,
        "11168": 218,
        "11169": 196,
        "11170": 76,
        "11171": 123,
        "11172": 34,
        "11173": 31,
        "11174": 238,
        "11175": 67,
        "11176": 154,
        "11177": 142,
        "11178": 80,
        "11179": 239,
        "11180": 215,
        "11181": 165,
        "11182": 59,
        "11183": 140,
        "11184": 175,
        "11185": 17,
        "11186": 165,
        "11187": 3,
        "11188": 234,
        "11189": 131,
        "11190": 120,
        "11191": 105,
        "11192": 19,
        "11193": 62,
        "11194": 245,
        "11195": 185,
        "11196": 237,
        "11197": 3,
        "11198": 49,
        "11199": 169,
        "11200": 134,
        "11201": 46,
        "11202": 47,
        "11203": 75,
        "11204": 30,
        "11205": 188,
        "11206": 84,
        "11207": 15,
        "11208": 89,
        "11209": 49,
        "11210": 235,
        "11211": 30,
        "11212": 152,
        "11213": 196,
        "11214": 106,
        "11215": 11,
        "11216": 45,
        "11217": 144,
        "11218": 180,
        "11219": 219,
        "11220": 207,
        "11221": 137,
        "11222": 164,
        "11223": 128,
        "11224": 92,
        "11225": 79,
        "11226": 121,
        "11227": 95,
        "11228": 221,
        "11229": 27,
        "11230": 131,
        "11231": 55,
        "11232": 82,
        "11233": 135,
        "11234": 172,
        "11235": 176,
        "11236": 63,
        "11237": 46,
        "11238": 170,
        "11239": 110,
        "11240": 122,
        "11241": 51,
        "11242": 38,
        "11243": 47,
        "11244": 201,
        "11245": 136,
        "11246": 223,
        "11247": 146,
        "11248": 61,
        "11249": 228,
        "11250": 135,
        "11251": 216,
        "11252": 158,
        "11253": 235,
        "11254": 249,
        "11255": 142,
        "11256": 215,
        "11257": 188,
        "11258": 19,
        "11259": 140,
        "11260": 131,
        "11261": 116,
        "11262": 128,
        "11263": 69,
        "11264": 171,
        "11265": 141,
        "11266": 64,
        "11267": 176,
        "11268": 153,
        "11269": 188,
        "11270": 153,
        "11271": 190,
        "11272": 28,
        "11273": 149,
        "11274": 43,
        "11275": 133,
        "11276": 175,
        "11277": 155,
        "11278": 250,
        "11279": 184,
        "11280": 103,
        "11281": 218,
        "11282": 253,
        "11283": 2,
        "11284": 86,
        "11285": 196,
        "11286": 87,
        "11287": 214,
        "11288": 30,
        "11289": 98,
        "11290": 192,
        "11291": 246,
        "11292": 127,
        "11293": 2,
        "11294": 81,
        "11295": 15,
        "11296": 203,
        "11297": 151,
        "11298": 118,
        "11299": 226,
        "11300": 103,
        "11301": 52,
        "11302": 215,
        "11303": 136,
        "11304": 195,
        "11305": 12,
        "11306": 91,
        "11307": 120,
        "11308": 53,
        "11309": 59,
        "11310": 206,
        "11311": 126,
        "11312": 207,
        "11313": 205,
        "11314": 47,
        "11315": 133,
        "11316": 177,
        "11317": 194,
        "11318": 34,
        "11319": 19,
        "11320": 222,
        "11321": 180,
        "11322": 92,
        "11323": 75,
        "11324": 140,
        "11325": 238,
        "11326": 181,
        "11327": 68,
        "11328": 146,
        "11329": 250,
        "11330": 57,
        "11331": 241,
        "11332": 77,
        "11333": 98,
        "11334": 181,
        "11335": 107,
        "11336": 21,
        "11337": 241,
        "11338": 135,
        "11339": 96,
        "11340": 229,
        "11341": 68,
        "11342": 84,
        "11343": 179,
        "11344": 186,
        "11345": 164,
        "11346": 116,
        "11347": 21,
        "11348": 71,
        "11349": 97,
        "11350": 215,
        "11351": 141,
        "11352": 50,
        "11353": 227,
        "11354": 34,
        "11355": 229,
        "11356": 31,
        "11357": 97,
        "11358": 206,
        "11359": 217,
        "11360": 212,
        "11361": 226,
        "11362": 88,
        "11363": 179,
        "11364": 160,
        "11365": 240,
        "11366": 93,
        "11367": 105,
        "11368": 95,
        "11369": 84,
        "11370": 253,
        "11371": 235,
        "11372": 31,
        "11373": 172,
        "11374": 192,
        "11375": 101,
        "11376": 83,
        "11377": 9,
        "11378": 217,
        "11379": 226,
        "11380": 128,
        "11381": 100,
        "11382": 75,
        "11383": 9,
        "11384": 36,
        "11385": 2,
        "11386": 77,
        "11387": 66,
        "11388": 96,
        "11389": 67,
        "11390": 125,
        "11391": 104,
        "11392": 108,
        "11393": 30,
        "11394": 124,
        "11395": 0,
        "11396": 67,
        "11397": 82,
        "11398": 11,
        "11399": 36,
        "11400": 87,
        "11401": 131,
        "11402": 99,
        "11403": 41,
        "11404": 181,
        "11405": 195,
        "11406": 22,
        "11407": 193,
        "11408": 84,
        "11409": 200,
        "11410": 162,
        "11411": 178,
        "11412": 87,
        "11413": 247,
        "11414": 76,
        "11415": 171,
        "11416": 33,
        "11417": 155,
        "11418": 78,
        "11419": 49,
        "11420": 200,
        "11421": 95,
        "11422": 192,
        "11423": 246,
        "11424": 19,
        "11425": 109,
        "11426": 184,
        "11427": 226,
        "11428": 166,
        "11429": 224,
        "11430": 186,
        "11431": 230,
        "11432": 4,
        "11433": 1,
        "11434": 204,
        "11435": 123,
        "11436": 40,
        "11437": 76,
        "11438": 250,
        "11439": 198,
        "11440": 61,
        "11441": 232,
        "11442": 253,
        "11443": 66,
        "11444": 60,
        "11445": 101,
        "11446": 116,
        "11447": 201,
        "11448": 78,
        "11449": 69,
        "11450": 237,
        "11451": 52,
        "11452": 91,
        "11453": 183,
        "11454": 255,
        "11455": 197,
        "11456": 123,
        "11457": 169,
        "11458": 209,
        "11459": 19,
        "11460": 94,
        "11461": 53,
        "11462": 244,
        "11463": 221,
        "11464": 14,
        "11465": 224,
        "11466": 114,
        "11467": 144,
        "11468": 243,
        "11469": 156,
        "11470": 25,
        "11471": 231,
        "11472": 27,
        "11473": 116,
        "11474": 2,
        "11475": 220,
        "11476": 64,
        "11477": 227,
        "11478": 67,
        "11479": 156,
        "11480": 214,
        "11481": 20,
        "11482": 173,
        "11483": 52,
        "11484": 184,
        "11485": 52,
        "11486": 151,
        "11487": 140,
        "11488": 22,
        "11489": 48,
        "11490": 217,
        "11491": 165,
        "11492": 120,
        "11493": 134,
        "11494": 156,
        "11495": 122,
        "11496": 243,
        "11497": 131,
        "11498": 152,
        "11499": 248,
        "11500": 75,
        "11501": 108,
        "11502": 12,
        "11503": 107,
        "11504": 240,
        "11505": 246,
        "11506": 69,
        "11507": 2,
        "11508": 180,
        "11509": 218,
        "11510": 165,
        "11511": 213,
        "11512": 64,
        "11513": 34,
        "11514": 226,
        "11515": 165,
        "11516": 40,
        "11517": 75,
        "11518": 129,
        "11519": 187,
        "11520": 117,
        "11521": 33,
        "11522": 173,
        "11523": 22,
        "11524": 140,
        "11525": 47,
        "11526": 115,
        "11527": 169,
        "11528": 10,
        "11529": 248,
        "11530": 149,
        "11531": 214,
        "11532": 167,
        "11533": 8,
        "11534": 30,
        "11535": 180,
        "11536": 110,
        "11537": 158,
        "11538": 95,
        "11539": 90,
        "11540": 58,
        "11541": 87,
        "11542": 236,
        "11543": 141,
        "11544": 21,
        "11545": 14,
        "11546": 185,
        "11547": 77,
        "11548": 116,
        "11549": 121,
        "11550": 159,
        "11551": 210,
        "11552": 113,
        "11553": 70,
        "11554": 211,
        "11555": 111,
        "11556": 52,
        "11557": 133,
        "11558": 176,
        "11559": 176,
        "11560": 110,
        "11561": 54,
        "11562": 121,
        "11563": 59,
        "11564": 235,
        "11565": 102,
        "11566": 222,
        "11567": 170,
        "11568": 233,
        "11569": 120,
        "11570": 35,
        "11571": 8,
        "11572": 156,
        "11573": 58,
        "11574": 217,
        "11575": 160,
        "11576": 78,
        "11577": 199,
        "11578": 119,
        "11579": 220,
        "11580": 208,
        "11581": 244,
        "11582": 20,
        "11583": 145,
        "11584": 104,
        "11585": 94,
        "11586": 72,
        "11587": 68,
        "11588": 42,
        "11589": 87,
        "11590": 213,
        "11591": 238,
        "11592": 82,
        "11593": 104,
        "11594": 237,
        "11595": 141,
        "11596": 209,
        "11597": 199,
        "11598": 78,
        "11599": 178,
        "11600": 75,
        "11601": 110,
        "11602": 125,
        "11603": 106,
        "11604": 57,
        "11605": 200,
        "11606": 138,
        "11607": 32,
        "11608": 212,
        "11609": 80,
        "11610": 237,
        "11611": 125,
        "11612": 164,
        "11613": 157,
        "11614": 55,
        "11615": 40,
        "11616": 124,
        "11617": 154,
        "11618": 127,
        "11619": 218,
        "11620": 82,
        "11621": 138,
        "11622": 138,
        "11623": 227,
        "11624": 51,
        "11625": 105,
        "11626": 162,
        "11627": 35,
        "11628": 58,
        "11629": 209,
        "11630": 70,
        "11631": 240,
        "11632": 155,
        "11633": 23,
        "11634": 194,
        "11635": 120,
        "11636": 157,
        "11637": 18,
        "11638": 144,
        "11639": 213,
        "11640": 201,
        "11641": 251,
        "11642": 26,
        "11643": 48,
        "11644": 138,
        "11645": 10,
        "11646": 166,
        "11647": 2,
        "11648": 17,
        "11649": 183,
        "11650": 124,
        "11651": 167,
        "11652": 131,
        "11653": 249,
        "11654": 233,
        "11655": 73,
        "11656": 165,
        "11657": 216,
        "11658": 54,
        "11659": 59,
        "11660": 89,
        "11661": 43,
        "11662": 12,
        "11663": 109,
        "11664": 66,
        "11665": 84,
        "11666": 103,
        "11667": 129,
        "11668": 249,
        "11669": 148,
        "11670": 42,
        "11671": 99,
        "11672": 222,
        "11673": 225,
        "11674": 167,
        "11675": 70,
        "11676": 236,
        "11677": 187,
        "11678": 240,
        "11679": 178,
        "11680": 15,
        "11681": 237,
        "11682": 185,
        "11683": 94,
        "11684": 144,
        "11685": 22,
        "11686": 147,
        "11687": 214,
        "11688": 209,
        "11689": 233,
        "11690": 86,
        "11691": 198,
        "11692": 215,
        "11693": 18,
        "11694": 212,
        "11695": 158,
        "11696": 7,
        "11697": 181,
        "11698": 46,
        "11699": 233,
        "11700": 105,
        "11701": 137,
        "11702": 128,
        "11703": 115,
        "11704": 187,
        "11705": 116,
        "11706": 255,
        "11707": 76,
        "11708": 104,
        "11709": 145,
        "11710": 85,
        "11711": 174,
        "11712": 153,
        "11713": 186,
        "11714": 167,
        "11715": 12,
        "11716": 248,
        "11717": 96,
        "11718": 82,
        "11719": 138,
        "11720": 93,
        "11721": 9,
        "11722": 200,
        "11723": 220,
        "11724": 141,
        "11725": 38,
        "11726": 63,
        "11727": 157,
        "11728": 243,
        "11729": 101,
        "11730": 148,
        "11731": 29,
        "11732": 68,
        "11733": 39,
        "11734": 44,
        "11735": 3,
        "11736": 63,
        "11737": 113,
        "11738": 91,
        "11739": 138,
        "11740": 185,
        "11741": 218,
        "11742": 12,
        "11743": 241,
        "11744": 5,
        "11745": 89,
        "11746": 37,
        "11747": 142,
        "11748": 168,
        "11749": 169,
        "11750": 154,
        "11751": 238,
        "11752": 5,
        "11753": 183,
        "11754": 189,
        "11755": 64,
        "11756": 18,
        "11757": 218,
        "11758": 43,
        "11759": 225,
        "11760": 130,
        "11761": 70,
        "11762": 190,
        "11763": 253,
        "11764": 135,
        "11765": 209,
        "11766": 119,
        "11767": 101,
        "11768": 189,
        "11769": 250,
        "11770": 93,
        "11771": 184,
        "11772": 174,
        "11773": 175,
        "11774": 145,
        "11775": 78,
        "11776": 161,
        "11777": 196,
        "11778": 117,
        "11779": 97,
        "11780": 65,
        "11781": 98,
        "11782": 229,
        "11783": 126,
        "11784": 63,
        "11785": 234,
        "11786": 221,
        "11787": 112,
        "11788": 153,
        "11789": 64,
        "11790": 187,
        "11791": 173,
        "11792": 222,
        "11793": 10,
        "11794": 29,
        "11795": 180,
        "11796": 136,
        "11797": 11,
        "11798": 144,
        "11799": 126,
        "11800": 24,
        "11801": 141,
        "11802": 67,
        "11803": 205,
        "11804": 170,
        "11805": 28,
        "11806": 201,
        "11807": 108,
        "11808": 125,
        "11809": 28,
        "11810": 110,
        "11811": 20,
        "11812": 24,
        "11813": 248,
        "11814": 18,
        "11815": 186,
        "11816": 193,
        "11817": 238,
        "11818": 210,
        "11819": 60,
        "11820": 42,
        "11821": 124,
        "11822": 59,
        "11823": 121,
        "11824": 79,
        "11825": 241,
        "11826": 248,
        "11827": 158,
        "11828": 225,
        "11829": 205,
        "11830": 77,
        "11831": 86,
        "11832": 163,
        "11833": 178,
        "11834": 169,
        "11835": 125,
        "11836": 238,
        "11837": 158,
        "11838": 201,
        "11839": 175,
        "11840": 87,
        "11841": 223,
        "11842": 131,
        "11843": 201,
        "11844": 242,
        "11845": 8,
        "11846": 67,
        "11847": 155,
        "11848": 175,
        "11849": 16,
        "11850": 138,
        "11851": 154,
        "11852": 195,
        "11853": 142,
        "11854": 55,
        "11855": 125,
        "11856": 233,
        "11857": 146,
        "11858": 83,
        "11859": 129,
        "11860": 7,
        "11861": 4,
        "11862": 204,
        "11863": 127,
        "11864": 165,
        "11865": 88,
        "11866": 68,
        "11867": 123,
        "11868": 173,
        "11869": 127,
        "11870": 203,
        "11871": 234,
        "11872": 184,
        "11873": 68,
        "11874": 61,
        "11875": 203,
        "11876": 236,
        "11877": 105,
        "11878": 38,
        "11879": 193,
        "11880": 219,
        "11881": 255,
        "11882": 187,
        "11883": 63,
        "11884": 121,
        "11885": 11,
        "11886": 195,
        "11887": 203,
        "11888": 19,
        "11889": 146,
        "11890": 252,
        "11891": 158,
        "11892": 178,
        "11893": 170,
        "11894": 25,
        "11895": 120,
        "11896": 54,
        "11897": 127,
        "11898": 95,
        "11899": 30,
        "11900": 57,
        "11901": 86,
        "11902": 161,
        "11903": 227,
        "11904": 191,
        "11905": 189,
        "11906": 237,
        "11907": 210,
        "11908": 143,
        "11909": 230,
        "11910": 237,
        "11911": 206,
        "11912": 108,
        "11913": 138,
        "11914": 243,
        "11915": 50,
        "11916": 107,
        "11917": 24,
        "11918": 142,
        "11919": 157,
        "11920": 201,
        "11921": 10,
        "11922": 88,
        "11923": 133,
        "11924": 49,
        "11925": 134,
        "11926": 94,
        "11927": 111,
        "11928": 80,
        "11929": 243,
        "11930": 101,
        "11931": 100,
        "11932": 30,
        "11933": 52,
        "11934": 188,
        "11935": 176,
        "11936": 239,
        "11937": 124,
        "11938": 82,
        "11939": 175,
        "11940": 249,
        "11941": 30,
        "11942": 120,
        "11943": 106,
        "11944": 112,
        "11945": 129,
        "11946": 103,
        "11947": 72,
        "11948": 222,
        "11949": 198,
        "11950": 62,
        "11951": 75,
        "11952": 94,
        "11953": 60,
        "11954": 33,
        "11955": 74,
        "11956": 209,
        "11957": 162,
        "11958": 162,
        "11959": 217,
        "11960": 15,
        "11961": 127,
        "11962": 108,
        "11963": 148,
        "11964": 87,
        "11965": 230,
        "11966": 64,
        "11967": 206,
        "11968": 24,
        "11969": 111,
        "11970": 113,
        "11971": 138,
        "11972": 31,
        "11973": 254,
        "11974": 43,
        "11975": 30,
        "11976": 5,
        "11977": 15,
        "11978": 229,
        "11979": 58,
        "11980": 236,
        "11981": 5,
        "11982": 30,
        "11983": 2,
        "11984": 115,
        "11985": 139,
        "11986": 187,
        "11987": 151,
        "11988": 40,
        "11989": 45,
        "11990": 135,
        "11991": 178,
        "11992": 230,
        "11993": 65,
        "11994": 32,
        "11995": 109,
        "11996": 56,
        "11997": 76,
        "11998": 251,
        "11999": 207,
        "12000": 25,
        "12001": 26,
        "12002": 114,
        "12003": 85,
        "12004": 127,
        "12005": 61,
        "12006": 178,
        "12007": 11,
        "12008": 87,
        "12009": 170,
        "12010": 73,
        "12011": 85,
        "12012": 199,
        "12013": 46,
        "12014": 39,
        "12015": 196,
        "12016": 149,
        "12017": 181,
        "12018": 179,
        "12019": 164,
        "12020": 16,
        "12021": 171,
        "12022": 89,
        "12023": 105,
        "12024": 122,
        "12025": 228,
        "12026": 2,
        "12027": 221,
        "12028": 49,
        "12029": 216,
        "12030": 38,
        "12031": 205,
        "12032": 15,
        "12033": 151,
        "12034": 48,
        "12035": 221,
        "12036": 214,
        "12037": 229,
        "12038": 160,
        "12039": 111,
        "12040": 90,
        "12041": 28,
        "12042": 202,
        "12043": 196,
        "12044": 180,
        "12045": 57,
        "12046": 81,
        "12047": 199,
        "12048": 189,
        "12049": 33,
        "12050": 107,
        "12051": 229,
        "12052": 34,
        "12053": 7,
        "12054": 133,
        "12055": 46,
        "12056": 222,
        "12057": 72,
        "12058": 131,
        "12059": 207,
        "12060": 234,
        "12061": 223,
        "12062": 103,
        "12063": 166,
        "12064": 83,
        "12065": 126,
        "12066": 116,
        "12067": 134,
        "12068": 32,
        "12069": 174,
        "12070": 39,
        "12071": 251,
        "12072": 251,
        "12073": 126,
        "12074": 42,
        "12075": 138,
        "12076": 159,
        "12077": 129,
        "12078": 27,
        "12079": 216,
        "12080": 31,
        "12081": 73,
        "12082": 133,
        "12083": 212,
        "12084": 255,
        "12085": 0,
        "12086": 117,
        "12087": 13,
        "12088": 210,
        "12089": 224,
        "12090": 254,
        "12091": 76,
        "12092": 64,
        "12093": 182,
        "12094": 120,
        "12095": 1,
        "12096": 10,
        "12097": 253,
        "12098": 78,
        "12099": 251,
        "12100": 252,
        "12101": 46,
        "12102": 214,
        "12103": 143,
        "12104": 51,
        "12105": 43,
        "12106": 173,
        "12107": 83,
        "12108": 235,
        "12109": 172,
        "12110": 2,
        "12111": 36,
        "12112": 153,
        "12113": 233,
        "12114": 235,
        "12115": 231,
        "12116": 195,
        "12117": 128,
        "12118": 18,
        "12119": 27,
        "12120": 194,
        "12121": 104,
        "12122": 155,
        "12123": 211,
        "12124": 127,
        "12125": 163,
        "12126": 78,
        "12127": 29,
        "12128": 42,
        "12129": 149,
        "12130": 25,
        "12131": 41,
        "12132": 6,
        "12133": 166,
        "12134": 113,
        "12135": 199,
        "12136": 45,
        "12137": 110,
        "12138": 52,
        "12139": 6,
        "12140": 30,
        "12141": 50,
        "12142": 142,
        "12143": 190,
        "12144": 56,
        "12145": 47,
        "12146": 123,
        "12147": 189,
        "12148": 142,
        "12149": 240,
        "12150": 243,
        "12151": 49,
        "12152": 123,
        "12153": 140,
        "12154": 135,
        "12155": 60,
        "12156": 236,
        "12157": 194,
        "12158": 189,
        "12159": 106,
        "12160": 155,
        "12161": 211,
        "12162": 118,
        "12163": 254,
        "12164": 145,
        "12165": 39,
        "12166": 134,
        "12167": 5,
        "12168": 69,
        "12169": 99,
        "12170": 9,
        "12171": 98,
        "12172": 8,
        "12173": 111,
        "12174": 157,
        "12175": 2,
        "12176": 191,
        "12177": 170,
        "12178": 231,
        "12179": 204,
        "12180": 41,
        "12181": 135,
        "12182": 172,
        "12183": 164,
        "12184": 208,
        "12185": 42,
        "12186": 154,
        "12187": 17,
        "12188": 161,
        "12189": 221,
        "12190": 8,
        "12191": 9,
        "12192": 170,
        "12193": 248,
        "12194": 23,
        "12195": 18,
        "12196": 25,
        "12197": 117,
        "12198": 120,
        "12199": 56,
        "12200": 132,
        "12201": 253,
        "12202": 9,
        "12203": 121,
        "12204": 214,
        "12205": 150,
        "12206": 0,
        "12207": 83,
        "12208": 33,
        "12209": 17,
        "12210": 74,
        "12211": 143,
        "12212": 132,
        "12213": 107,
        "12214": 101,
        "12215": 132,
        "12216": 243,
        "12217": 37,
        "12218": 152,
        "12219": 36,
        "12220": 130,
        "12221": 32,
        "12222": 75,
        "12223": 79,
        "12224": 100,
        "12225": 118,
        "12226": 80,
        "12227": 194,
        "12228": 193,
        "12229": 97,
        "12230": 206,
        "12231": 116,
        "12232": 138,
        "12233": 83,
        "12234": 56,
        "12235": 22,
        "12236": 238,
        "12237": 2,
        "12238": 31,
        "12239": 88,
        "12240": 196,
        "12241": 105,
        "12242": 74,
        "12243": 241,
        "12244": 170,
        "12245": 254,
        "12246": 24,
        "12247": 94,
        "12248": 111,
        "12249": 69,
        "12250": 214,
        "12251": 253,
        "12252": 74,
        "12253": 5,
        "12254": 183,
        "12255": 74,
        "12256": 223,
        "12257": 27,
        "12258": 185,
        "12259": 219,
        "12260": 100,
        "12261": 120,
        "12262": 37,
        "12263": 86,
        "12264": 203,
        "12265": 27,
        "12266": 219,
        "12267": 9,
        "12268": 119,
        "12269": 33,
        "12270": 3,
        "12271": 48,
        "12272": 177,
        "12273": 209,
        "12274": 10,
        "12275": 104,
        "12276": 77,
        "12277": 77,
        "12278": 61,
        "12279": 236,
        "12280": 97,
        "12281": 1,
        "12282": 165,
        "12283": 103,
        "12284": 196,
        "12285": 105,
        "12286": 62,
        "12287": 189,
        "12288": 230,
        "12289": 85,
        "12290": 51,
        "12291": 154,
        "12292": 140,
        "12293": 153,
        "12294": 222,
        "12295": 131,
        "12296": 228,
        "12297": 116,
        "12298": 125,
        "12299": 128,
        "12300": 238,
        "12301": 247,
        "12302": 71,
        "12303": 200,
        "12304": 249,
        "12305": 82,
        "12306": 83,
        "12307": 49,
        "12308": 44,
        "12309": 92,
        "12310": 219,
        "12311": 59,
        "12312": 167,
        "12313": 191,
        "12314": 32,
        "12315": 160,
        "12316": 157,
        "12317": 78,
        "12318": 205,
        "12319": 8,
        "12320": 138,
        "12321": 17,
        "12322": 213,
        "12323": 90,
        "12324": 235,
        "12325": 98,
        "12326": 226,
        "12327": 17,
        "12328": 0,
        "12329": 247,
        "12330": 88,
        "12331": 66,
        "12332": 230,
        "12333": 90,
        "12334": 122,
        "12335": 39,
        "12336": 113,
        "12337": 145,
        "12338": 19,
        "12339": 19,
        "12340": 5,
        "12341": 190,
        "12342": 38,
        "12343": 239,
        "12344": 245,
        "12345": 9,
        "12346": 84,
        "12347": 194,
        "12348": 120,
        "12349": 107,
        "12350": 125,
        "12351": 69,
        "12352": 84,
        "12353": 43,
        "12354": 66,
        "12355": 9,
        "12356": 30,
        "12357": 93,
        "12358": 183,
        "12359": 2,
        "12360": 201,
        "12361": 244,
        "12362": 95,
        "12363": 209,
        "12364": 66,
        "12365": 210,
        "12366": 202,
        "12367": 164,
        "12368": 209,
        "12369": 162,
        "12370": 30,
        "12371": 100,
        "12372": 140,
        "12373": 28,
        "12374": 9,
        "12375": 54,
        "12376": 67,
        "12377": 249,
        "12378": 211,
        "12379": 28,
        "12380": 225,
        "12381": 28,
        "12382": 187,
        "12383": 25,
        "12384": 224,
        "12385": 68,
        "12386": 175,
        "12387": 128,
        "12388": 31,
        "12389": 93,
        "12390": 0,
        "12391": 175,
        "12392": 240,
        "12393": 221,
        "12394": 95,
        "12395": 33,
        "12396": 234,
        "12397": 111,
        "12398": 102,
        "12399": 118,
        "12400": 182,
        "12401": 170,
        "12402": 242,
        "12403": 230,
        "12404": 168,
        "12405": 149,
        "12406": 99,
        "12407": 183,
        "12408": 235,
        "12409": 89,
        "12410": 10,
        "12411": 161,
        "12412": 102,
        "12413": 201,
        "12414": 36,
        "12415": 6,
        "12416": 203,
        "12417": 99,
        "12418": 127,
        "12419": 228,
        "12420": 209,
        "12421": 92,
        "12422": 238,
        "12423": 127,
        "12424": 177,
        "12425": 236,
        "12426": 95,
        "12427": 87,
        "12428": 221,
        "12429": 229,
        "12430": 112,
        "12431": 181,
        "12432": 121,
        "12433": 107,
        "12434": 151,
        "12435": 189,
        "12436": 124,
        "12437": 62,
        "12438": 215,
        "12439": 111,
        "12440": 245,
        "12441": 140,
        "12442": 241,
        "12443": 80,
        "12444": 11,
        "12445": 216,
        "12446": 44,
        "12447": 24,
        "12448": 237,
        "12449": 223,
        "12450": 59,
        "12451": 80,
        "12452": 56,
        "12453": 161,
        "12454": 150,
        "12455": 191,
        "12456": 136,
        "12457": 79,
        "12458": 14,
        "12459": 13,
        "12460": 171,
        "12461": 37,
        "12462": 150,
        "12463": 95,
        "12464": 107,
        "12465": 244,
        "12466": 47,
        "12467": 252,
        "12468": 31,
        "12469": 78,
        "12470": 87,
        "12471": 108,
        "12472": 172,
        "12473": 48,
        "12474": 38,
        "12475": 53,
        "12476": 154,
        "12477": 246,
        "12478": 70,
        "12479": 150,
        "12480": 39,
        "12481": 205,
        "12482": 253,
        "12483": 242,
        "12484": 12,
        "12485": 42,
        "12486": 44,
        "12487": 120,
        "12488": 6,
        "12489": 161,
        "12490": 126,
        "12491": 201,
        "12492": 119,
        "12493": 137,
        "12494": 45,
        "12495": 135,
        "12496": 134,
        "12497": 216,
        "12498": 227,
        "12499": 249,
        "12500": 101,
        "12501": 69,
        "12502": 54,
        "12503": 171,
        "12504": 250,
        "12505": 12,
        "12506": 130,
        "12507": 160,
        "12508": 186,
        "12509": 171,
        "12510": 173,
        "12511": 134,
        "12512": 179,
        "12513": 5,
        "12514": 112,
        "12515": 157,
        "12516": 113,
        "12517": 84,
        "12518": 251,
        "12519": 210,
        "12520": 94,
        "12521": 148,
        "12522": 13,
        "12523": 111,
        "12524": 78,
        "12525": 235,
        "12526": 171,
        "12527": 141,
        "12528": 107,
        "12529": 186,
        "12530": 102,
        "12531": 190,
        "12532": 173,
        "12533": 8,
        "12534": 221,
        "12535": 254,
        "12536": 51,
        "12537": 243,
        "12538": 55,
        "12539": 203,
        "12540": 238,
        "12541": 229,
        "12542": 0,
        "12543": 161,
        "12544": 227,
        "12545": 36,
        "12546": 100,
        "12547": 20,
        "12548": 101,
        "12549": 187,
        "12550": 228,
        "12551": 42,
        "12552": 115,
        "12553": 148,
        "12554": 199,
        "12555": 148,
        "12556": 235,
        "12557": 207,
        "12558": 141,
        "12559": 34,
        "12560": 52,
        "12561": 151,
        "12562": 169,
        "12563": 8,
        "12564": 6,
        "12565": 13,
        "12566": 111,
        "12567": 15,
        "12568": 26,
        "12569": 73,
        "12570": 142,
        "12571": 237,
        "12572": 102,
        "12573": 152,
        "12574": 93,
        "12575": 224,
        "12576": 7,
        "12577": 115,
        "12578": 124,
        "12579": 70,
        "12580": 81,
        "12581": 122,
        "12582": 80,
        "12583": 229,
        "12584": 148,
        "12585": 81,
        "12586": 186,
        "12587": 254,
        "12588": 34,
        "12589": 114,
        "12590": 98,
        "12591": 48,
        "12592": 87,
        "12593": 61,
        "12594": 45,
        "12595": 167,
        "12596": 236,
        "12597": 206,
        "12598": 175,
        "12599": 34,
        "12600": 191,
        "12601": 2,
        "12602": 79,
        "12603": 226,
        "12604": 198,
        "12605": 126,
        "12606": 34,
        "12607": 77,
        "12608": 12,
        "12609": 178,
        "12610": 221,
        "12611": 222,
        "12612": 51,
        "12613": 122,
        "12614": 6,
        "12615": 82,
        "12616": 100,
        "12617": 21,
        "12618": 124,
        "12619": 72,
        "12620": 228,
        "12621": 48,
        "12622": 220,
        "12623": 237,
        "12624": 69,
        "12625": 197,
        "12626": 238,
        "12627": 150,
        "12628": 150,
        "12629": 54,
        "12630": 186,
        "12631": 129,
        "12632": 33,
        "12633": 89,
        "12634": 15,
        "12635": 42,
        "12636": 158,
        "12637": 125,
        "12638": 184,
        "12639": 65,
        "12640": 137,
        "12641": 2,
        "12642": 108,
        "12643": 200,
        "12644": 119,
        "12645": 145,
        "12646": 108,
        "12647": 117,
        "12648": 46,
        "12649": 116,
        "12650": 94,
        "12651": 37,
        "12652": 73,
        "12653": 77,
        "12654": 9,
        "12655": 167,
        "12656": 28,
        "12657": 80,
        "12658": 115,
        "12659": 99,
        "12660": 228,
        "12661": 166,
        "12662": 209,
        "12663": 71,
        "12664": 55,
        "12665": 137,
        "12666": 192,
        "12667": 19,
        "12668": 181,
        "12669": 68,
        "12670": 50,
        "12671": 44,
        "12672": 32,
        "12673": 194,
        "12674": 212,
        "12675": 123,
        "12676": 21,
        "12677": 99,
        "12678": 211,
        "12679": 231,
        "12680": 255,
        "12681": 173,
        "12682": 66,
        "12683": 99,
        "12684": 193,
        "12685": 180,
        "12686": 218,
        "12687": 34,
        "12688": 173,
        "12689": 128,
        "12690": 223,
        "12691": 133,
        "12692": 227,
        "12693": 125,
        "12694": 223,
        "12695": 42,
        "12696": 98,
        "12697": 17,
        "12698": 206,
        "12699": 238,
        "12700": 249,
        "12701": 219,
        "12702": 184,
        "12703": 125,
        "12704": 243,
        "12705": 104,
        "12706": 41,
        "12707": 200,
        "12708": 94,
        "12709": 235,
        "12710": 134,
        "12711": 172,
        "12712": 60,
        "12713": 54,
        "12714": 249,
        "12715": 53,
        "12716": 9,
        "12717": 30,
        "12718": 216,
        "12719": 62,
        "12720": 52,
        "12721": 145,
        "12722": 171,
        "12723": 182,
        "12724": 164,
        "12725": 175,
        "12726": 144,
        "12727": 199,
        "12728": 70,
        "12729": 214,
        "12730": 87,
        "12731": 215,
        "12732": 186,
        "12733": 125,
        "12734": 110,
        "12735": 164,
        "12736": 160,
        "12737": 88,
        "12738": 72,
        "12739": 29,
        "12740": 41,
        "12741": 199,
        "12742": 138,
        "12743": 100,
        "12744": 18,
        "12745": 179,
        "12746": 103,
        "12747": 70,
        "12748": 138,
        "12749": 188,
        "12750": 140,
        "12751": 2,
        "12752": 250,
        "12753": 176,
        "12754": 196,
        "12755": 231,
        "12756": 28,
        "12757": 126,
        "12758": 31,
        "12759": 41,
        "12760": 168,
        "12761": 104,
        "12762": 75,
        "12763": 131,
        "12764": 179,
        "12765": 44,
        "12766": 142,
        "12767": 29,
        "12768": 138,
        "12769": 158,
        "12770": 94,
        "12771": 121,
        "12772": 235,
        "12773": 97,
        "12774": 2,
        "12775": 152,
        "12776": 100,
        "12777": 209,
        "12778": 241,
        "12779": 181,
        "12780": 44,
        "12781": 206,
        "12782": 137,
        "12783": 105,
        "12784": 33,
        "12785": 31,
        "12786": 120,
        "12787": 66,
        "12788": 40,
        "12789": 95,
        "12790": 126,
        "12791": 72,
        "12792": 241,
        "12793": 43,
        "12794": 144,
        "12795": 98,
        "12796": 225,
        "12797": 62,
        "12798": 37,
        "12799": 215,
        "12800": 175,
        "12801": 12,
        "12802": 240,
        "12803": 191,
        "12804": 96,
        "12805": 209,
        "12806": 3,
        "12807": 35,
        "12808": 227,
        "12809": 30,
        "12810": 43,
        "12811": 86,
        "12812": 46,
        "12813": 176,
        "12814": 124,
        "12815": 183,
        "12816": 106,
        "12817": 14,
        "12818": 95,
        "12819": 57,
        "12820": 115,
        "12821": 165,
        "12822": 136,
        "12823": 46,
        "12824": 141,
        "12825": 41,
        "12826": 240,
        "12827": 63,
        "12828": 173,
        "12829": 150,
        "12830": 251,
        "12831": 118,
        "12832": 1,
        "12833": 81,
        "12834": 227,
        "12835": 166,
        "12836": 35,
        "12837": 129,
        "12838": 50,
        "12839": 200,
        "12840": 197,
        "12841": 119,
        "12842": 249,
        "12843": 64,
        "12844": 0,
        "12845": 227,
        "12846": 86,
        "12847": 63,
        "12848": 86,
        "12849": 71,
        "12850": 73,
        "12851": 237,
        "12852": 155,
        "12853": 135,
        "12854": 128,
        "12855": 88,
        "12856": 53,
        "12857": 183,
        "12858": 226,
        "12859": 4,
        "12860": 237,
        "12861": 172,
        "12862": 105,
        "12863": 139,
        "12864": 157,
        "12865": 150,
        "12866": 173,
        "12867": 232,
        "12868": 0,
        "12869": 222,
        "12870": 225,
        "12871": 226,
        "12872": 10,
        "12873": 8,
        "12874": 45,
        "12875": 47,
        "12876": 214,
        "12877": 112,
        "12878": 181,
        "12879": 211,
        "12880": 215,
        "12881": 201,
        "12882": 118,
        "12883": 229,
        "12884": 250,
        "12885": 201,
        "12886": 11,
        "12887": 8,
        "12888": 236,
        "12889": 192,
        "12890": 228,
        "12891": 230,
        "12892": 60,
        "12893": 206,
        "12894": 174,
        "12895": 201,
        "12896": 96,
        "12897": 185,
        "12898": 37,
        "12899": 60,
        "12900": 135,
        "12901": 27,
        "12902": 57,
        "12903": 84,
        "12904": 27,
        "12905": 198,
        "12906": 191,
        "12907": 224,
        "12908": 23,
        "12909": 157,
        "12910": 227,
        "12911": 166,
        "12912": 173,
        "12913": 188,
        "12914": 200,
        "12915": 22,
        "12916": 170,
        "12917": 169,
        "12918": 222,
        "12919": 118,
        "12920": 62,
        "12921": 34,
        "12922": 176,
        "12923": 0,
        "12924": 92,
        "12925": 28,
        "12926": 174,
        "12927": 25,
        "12928": 29,
        "12929": 90,
        "12930": 197,
        "12931": 9,
        "12932": 23,
        "12933": 241,
        "12934": 118,
        "12935": 64,
        "12936": 86,
        "12937": 9,
        "12938": 199,
        "12939": 230,
        "12940": 146,
        "12941": 43,
        "12942": 24,
        "12943": 52,
        "12944": 212,
        "12945": 132,
        "12946": 227,
        "12947": 239,
        "12948": 72,
        "12949": 168,
        "12950": 234,
        "12951": 55,
        "12952": 54,
        "12953": 105,
        "12954": 34,
        "12955": 108,
        "12956": 158,
        "12957": 249,
        "12958": 254,
        "12959": 20,
        "12960": 212,
        "12961": 23,
        "12962": 129,
        "12963": 155,
        "12964": 8,
        "12965": 15,
        "12966": 159,
        "12967": 35,
        "12968": 142,
        "12969": 43,
        "12970": 91,
        "12971": 79,
        "12972": 7,
        "12973": 123,
        "12974": 17,
        "12975": 144,
        "12976": 170,
        "12977": 235,
        "12978": 147,
        "12979": 107,
        "12980": 234,
        "12981": 97,
        "12982": 25,
        "12983": 182,
        "12984": 29,
        "12985": 232,
        "12986": 146,
        "12987": 83,
        "12988": 46,
        "12989": 178,
        "12990": 77,
        "12991": 17,
        "12992": 127,
        "12993": 254,
        "12994": 125,
        "12995": 96,
        "12996": 225,
        "12997": 0,
        "12998": 253,
        "12999": 23,
        "13000": 155,
        "13001": 249,
        "13002": 228,
        "13003": 133,
        "13004": 252,
        "13005": 116,
        "13006": 86,
        "13007": 165,
        "13008": 133,
        "13009": 204,
        "13010": 7,
        "13011": 90,
        "13012": 11,
        "13013": 130,
        "13014": 78,
        "13015": 167,
        "13016": 191,
        "13017": 113,
        "13018": 104,
        "13019": 82,
        "13020": 96,
        "13021": 120,
        "13022": 118,
        "13023": 174,
        "13024": 47,
        "13025": 3,
        "13026": 163,
        "13027": 53,
        "13028": 45,
        "13029": 173,
        "13030": 96,
        "13031": 170,
        "13032": 21,
        "13033": 119,
        "13034": 114,
        "13035": 152,
        "13036": 85,
        "13037": 71,
        "13038": 117,
        "13039": 246,
        "13040": 254,
        "13041": 201,
        "13042": 185,
        "13043": 211,
        "13044": 179,
        "13045": 188,
        "13046": 20,
        "13047": 247,
        "13048": 243,
        "13049": 58,
        "13050": 67,
        "13051": 180,
        "13052": 132,
        "13053": 168,
        "13054": 78,
        "13055": 188,
        "13056": 125,
        "13057": 43,
        "13058": 75,
        "13059": 185,
        "13060": 236,
        "13061": 218,
        "13062": 136,
        "13063": 154,
        "13064": 247,
        "13065": 218,
        "13066": 211,
        "13067": 90,
        "13068": 117,
        "13069": 35,
        "13070": 118,
        "13071": 169,
        "13072": 70,
        "13073": 55,
        "13074": 187,
        "13075": 251,
        "13076": 162,
        "13077": 157,
        "13078": 105,
        "13079": 23,
        "13080": 58,
        "13081": 95,
        "13082": 47,
        "13083": 22,
        "13084": 217,
        "13085": 114,
        "13086": 211,
        "13087": 102,
        "13088": 21,
        "13089": 2,
        "13090": 27,
        "13091": 25,
        "13092": 55,
        "13093": 164,
        "13094": 21,
        "13095": 155,
        "13096": 17,
        "13097": 9,
        "13098": 133,
        "13099": 250,
        "13100": 125,
        "13101": 166,
        "13102": 1,
        "13103": 126,
        "13104": 150,
        "13105": 29,
        "13106": 189,
        "13107": 94,
        "13108": 6,
        "13109": 233,
        "13110": 13,
        "13111": 152,
        "13112": 230,
        "13113": 39,
        "13114": 134,
        "13115": 189,
        "13116": 84,
        "13117": 89,
        "13118": 203,
        "13119": 131,
        "13120": 134,
        "13121": 28,
        "13122": 68,
        "13123": 75,
        "13124": 171,
        "13125": 39,
        "13126": 89,
        "13127": 184,
        "13128": 49,
        "13129": 183,
        "13130": 112,
        "13131": 10,
        "13132": 25,
        "13133": 192,
        "13134": 4,
        "13135": 88,
        "13136": 88,
        "13137": 5,
        "13138": 202,
        "13139": 131,
        "13140": 161,
        "13141": 114,
        "13142": 174,
        "13143": 140,
        "13144": 164,
        "13145": 26,
        "13146": 236,
        "13147": 29,
        "13148": 36,
        "13149": 132,
        "13150": 199,
        "13151": 175,
        "13152": 4,
        "13153": 206,
        "13154": 187,
        "13155": 0,
        "13156": 150,
        "13157": 200,
        "13158": 252,
        "13159": 107,
        "13160": 116,
        "13161": 125,
        "13162": 229,
        "13163": 77,
        "13164": 32,
        "13165": 40,
        "13166": 236,
        "13167": 53,
        "13168": 92,
        "13169": 204,
        "13170": 64,
        "13171": 36,
        "13172": 8,
        "13173": 19,
        "13174": 246,
        "13175": 171,
        "13176": 204,
        "13177": 72,
        "13178": 56,
        "13179": 185,
        "13180": 152,
        "13181": 181,
        "13182": 167,
        "13183": 45,
        "13184": 120,
        "13185": 66,
        "13186": 210,
        "13187": 249,
        "13188": 141,
        "13189": 105,
        "13190": 251,
        "13191": 90,
        "13192": 87,
        "13193": 118,
        "13194": 12,
        "13195": 25,
        "13196": 124,
        "13197": 164,
        "13198": 14,
        "13199": 181,
        "13200": 90,
        "13201": 102,
        "13202": 125,
        "13203": 112,
        "13204": 75,
        "13205": 235,
        "13206": 233,
        "13207": 164,
        "13208": 53,
        "13209": 77,
        "13210": 245,
        "13211": 230,
        "13212": 88,
        "13213": 117,
        "13214": 210,
        "13215": 104,
        "13216": 225,
        "13217": 120,
        "13218": 244,
        "13219": 248,
        "13220": 149,
        "13221": 254,
        "13222": 190,
        "13223": 227,
        "13224": 181,
        "13225": 132,
        "13226": 233,
        "13227": 104,
        "13228": 19,
        "13229": 167,
        "13230": 96,
        "13231": 255,
        "13232": 243,
        "13233": 129,
        "13234": 195,
        "13235": 27,
        "13236": 138,
        "13237": 55,
        "13238": 225,
        "13239": 159,
        "13240": 95,
        "13241": 202,
        "13242": 15,
        "13243": 174,
        "13244": 144,
        "13245": 240,
        "13246": 180,
        "13247": 55,
        "13248": 107,
        "13249": 237,
        "13250": 118,
        "13251": 109,
        "13252": 26,
        "13253": 61,
        "13254": 13,
        "13255": 185,
        "13256": 173,
        "13257": 227,
        "13258": 225,
        "13259": 203,
        "13260": 101,
        "13261": 196,
        "13262": 76,
        "13263": 57,
        "13264": 211,
        "13265": 116,
        "13266": 206,
        "13267": 246,
        "13268": 178,
        "13269": 239,
        "13270": 156,
        "13271": 58,
        "13272": 159,
        "13273": 251,
        "13274": 86,
        "13275": 86,
        "13276": 99,
        "13277": 72,
        "13278": 147,
        "13279": 219,
        "13280": 15,
        "13281": 163,
        "13282": 215,
        "13283": 2,
        "13284": 139,
        "13285": 79,
        "13286": 207,
        "13287": 156,
        "13288": 109,
        "13289": 185,
        "13290": 96,
        "13291": 204,
        "13292": 218,
        "13293": 179,
        "13294": 23,
        "13295": 156,
        "13296": 249,
        "13297": 39,
        "13298": 181,
        "13299": 216,
        "13300": 133,
        "13301": 156,
        "13302": 52,
        "13303": 190,
        "13304": 170,
        "13305": 164,
        "13306": 217,
        "13307": 39,
        "13308": 102,
        "13309": 248,
        "13310": 130,
        "13311": 194,
        "13312": 251,
        "13313": 51,
        "13314": 245,
        "13315": 229,
        "13316": 74,
        "13317": 189,
        "13318": 45,
        "13319": 144,
        "13320": 107,
        "13321": 195,
        "13322": 61,
        "13323": 122,
        "13324": 33,
        "13325": 205,
        "13326": 203,
        "13327": 74,
        "13328": 70,
        "13329": 204,
        "13330": 253,
        "13331": 31,
        "13332": 204,
        "13333": 14,
        "13334": 45,
        "13335": 60,
        "13336": 46,
        "13337": 225,
        "13338": 81,
        "13339": 135,
        "13340": 73,
        "13341": 9,
        "13342": 48,
        "13343": 58,
        "13344": 134,
        "13345": 120,
        "13346": 203,
        "13347": 23,
        "13348": 4,
        "13349": 122,
        "13350": 95,
        "13351": 160,
        "13352": 216,
        "13353": 130,
        "13354": 59,
        "13355": 70,
        "13356": 123,
        "13357": 186,
        "13358": 58,
        "13359": 227,
        "13360": 121,
        "13361": 36,
        "13362": 72,
        "13363": 148,
        "13364": 68,
        "13365": 75,
        "13366": 143,
        "13367": 0,
        "13368": 90,
        "13369": 196,
        "13370": 50,
        "13371": 54,
        "13372": 134,
        "13373": 169,
        "13374": 4,
        "13375": 144,
        "13376": 34,
        "13377": 45,
        "13378": 73,
        "13379": 179,
        "13380": 209,
        "13381": 103,
        "13382": 129,
        "13383": 191,
        "13384": 233,
        "13385": 120,
        "13386": 38,
        "13387": 52,
        "13388": 21,
        "13389": 230,
        "13390": 58,
        "13391": 56,
        "13392": 123,
        "13393": 225,
        "13394": 27,
        "13395": 219,
        "13396": 141,
        "13397": 106,
        "13398": 26,
        "13399": 194,
        "13400": 103,
        "13401": 199,
        "13402": 213,
        "13403": 55,
        "13404": 141,
        "13405": 85,
        "13406": 161,
        "13407": 74,
        "13408": 229,
        "13409": 186,
        "13410": 119,
        "13411": 215,
        "13412": 208,
        "13413": 31,
        "13414": 27,
        "13415": 71,
        "13416": 191,
        "13417": 46,
        "13418": 156,
        "13419": 109,
        "13420": 76,
        "13421": 168,
        "13422": 115,
        "13423": 73,
        "13424": 56,
        "13425": 180,
        "13426": 65,
        "13427": 20,
        "13428": 10,
        "13429": 106,
        "13430": 0,
        "13431": 106,
        "13432": 173,
        "13433": 95,
        "13434": 112,
        "13435": 48,
        "13436": 143,
        "13437": 90,
        "13438": 139,
        "13439": 87,
        "13440": 20,
        "13441": 77,
        "13442": 143,
        "13443": 26,
        "13444": 240,
        "13445": 73,
        "13446": 216,
        "13447": 93,
        "13448": 194,
        "13449": 147,
        "13450": 62,
        "13451": 240,
        "13452": 250,
        "13453": 45,
        "13454": 219,
        "13455": 188,
        "13456": 123,
        "13457": 56,
        "13458": 7,
        "13459": 179,
        "13460": 183,
        "13461": 164,
        "13462": 10,
        "13463": 138,
        "13464": 144,
        "13465": 249,
        "13466": 153,
        "13467": 151,
        "13468": 84,
        "13469": 73,
        "13470": 34,
        "13471": 175,
        "13472": 221,
        "13473": 6,
        "13474": 131,
        "13475": 50,
        "13476": 12,
        "13477": 137,
        "13478": 23,
        "13479": 213,
        "13480": 168,
        "13481": 64,
        "13482": 196,
        "13483": 225,
        "13484": 32,
        "13485": 204,
        "13486": 171,
        "13487": 39,
        "13488": 137,
        "13489": 228,
        "13490": 215,
        "13491": 243,
        "13492": 206,
        "13493": 68,
        "13494": 7,
        "13495": 227,
        "13496": 181,
        "13497": 120,
        "13498": 192,
        "13499": 31,
        "13500": 10,
        "13501": 100,
        "13502": 12,
        "13503": 196,
        "13504": 43,
        "13505": 206,
        "13506": 84,
        "13507": 164,
        "13508": 227,
        "13509": 34,
        "13510": 139,
        "13511": 175,
        "13512": 141,
        "13513": 141,
        "13514": 220,
        "13515": 198,
        "13516": 105,
        "13517": 151,
        "13518": 68,
        "13519": 161,
        "13520": 100,
        "13521": 217,
        "13522": 151,
        "13523": 218,
        "13524": 0,
        "13525": 90,
        "13526": 137,
        "13527": 65,
        "13528": 176,
        "13529": 51,
        "13530": 108,
        "13531": 64,
        "13532": 244,
        "13533": 167,
        "13534": 224,
        "13535": 201,
        "13536": 233,
        "13537": 225,
        "13538": 149,
        "13539": 91,
        "13540": 43,
        "13541": 221,
        "13542": 70,
        "13543": 100,
        "13544": 45,
        "13545": 107,
        "13546": 179,
        "13547": 188,
        "13548": 11,
        "13549": 26,
        "13550": 98,
        "13551": 35,
        "13552": 90,
        "13553": 89,
        "13554": 67,
        "13555": 225,
        "13556": 67,
        "13557": 207,
        "13558": 95,
        "13559": 36,
        "13560": 21,
        "13561": 96,
        "13562": 103,
        "13563": 5,
        "13564": 110,
        "13565": 62,
        "13566": 86,
        "13567": 134,
        "13568": 194,
        "13569": 234,
        "13570": 46,
        "13571": 170,
        "13572": 122,
        "13573": 229,
        "13574": 47,
        "13575": 72,
        "13576": 62,
        "13577": 118,
        "13578": 190,
        "13579": 98,
        "13580": 50,
        "13581": 60,
        "13582": 29,
        "13583": 225,
        "13584": 127,
        "13585": 255,
        "13586": 37,
        "13587": 40,
        "13588": 223,
        "13589": 136,
        "13590": 83,
        "13591": 2,
        "13592": 6,
        "13593": 42,
        "13594": 238,
        "13595": 225,
        "13596": 119,
        "13597": 3,
        "13598": 162,
        "13599": 91,
        "13600": 216,
        "13601": 76,
        "13602": 42,
        "13603": 211,
        "13604": 3,
        "13605": 240,
        "13606": 123,
        "13607": 220,
        "13608": 137,
        "13609": 177,
        "13610": 26,
        "13611": 82,
        "13612": 80,
        "13613": 34,
        "13614": 66,
        "13615": 198,
        "13616": 80,
        "13617": 242,
        "13618": 182,
        "13619": 86,
        "13620": 136,
        "13621": 118,
        "13622": 90,
        "13623": 41,
        "13624": 207,
        "13625": 156,
        "13626": 72,
        "13627": 96,
        "13628": 81,
        "13629": 154,
        "13630": 102,
        "13631": 96,
        "13632": 218,
        "13633": 8,
        "13634": 169,
        "13635": 45,
        "13636": 176,
        "13637": 237,
        "13638": 24,
        "13639": 22,
        "13640": 99,
        "13641": 151,
        "13642": 90,
        "13643": 251,
        "13644": 151,
        "13645": 26,
        "13646": 69,
        "13647": 23,
        "13648": 240,
        "13649": 240,
        "13650": 22,
        "13651": 108,
        "13652": 199,
        "13653": 135,
        "13654": 48,
        "13655": 78,
        "13656": 49,
        "13657": 160,
        "13658": 190,
        "13659": 206,
        "13660": 223,
        "13661": 197,
        "13662": 108,
        "13663": 33,
        "13664": 210,
        "13665": 49,
        "13666": 247,
        "13667": 69,
        "13668": 220,
        "13669": 52,
        "13670": 235,
        "13671": 155,
        "13672": 137,
        "13673": 173,
        "13674": 40,
        "13675": 145,
        "13676": 39,
        "13677": 223,
        "13678": 54,
        "13679": 66,
        "13680": 130,
        "13681": 113,
        "13682": 61,
        "13683": 3,
        "13684": 236,
        "13685": 177,
        "13686": 146,
        "13687": 17,
        "13688": 35,
        "13689": 239,
        "13690": 93,
        "13691": 86,
        "13692": 60,
        "13693": 173,
        "13694": 238,
        "13695": 193,
        "13696": 88,
        "13697": 21,
        "13698": 7,
        "13699": 112,
        "13700": 173,
        "13701": 122,
        "13702": 144,
        "13703": 54,
        "13704": 45,
        "13705": 20,
        "13706": 205,
        "13707": 138,
        "13708": 146,
        "13709": 226,
        "13710": 238,
        "13711": 160,
        "13712": 122,
        "13713": 41,
        "13714": 243,
        "13715": 100,
        "13716": 95,
        "13717": 52,
        "13718": 157,
        "13719": 187,
        "13720": 178,
        "13721": 194,
        "13722": 105,
        "13723": 26,
        "13724": 82,
        "13725": 108,
        "13726": 122,
        "13727": 166,
        "13728": 135,
        "13729": 217,
        "13730": 154,
        "13731": 144,
        "13732": 111,
        "13733": 39,
        "13734": 253,
        "13735": 241,
        "13736": 200,
        "13737": 132,
        "13738": 250,
        "13739": 17,
        "13740": 113,
        "13741": 92,
        "13742": 117,
        "13743": 199,
        "13744": 5,
        "13745": 18,
        "13746": 253,
        "13747": 82,
        "13748": 221,
        "13749": 182,
        "13750": 12,
        "13751": 42,
        "13752": 30,
        "13753": 244,
        "13754": 241,
        "13755": 42,
        "13756": 26,
        "13757": 30,
        "13758": 127,
        "13759": 60,
        "13760": 219,
        "13761": 46,
        "13762": 122,
        "13763": 175,
        "13764": 184,
        "13765": 241,
        "13766": 225,
        "13767": 83,
        "13768": 246,
        "13769": 35,
        "13770": 188,
        "13771": 129,
        "13772": 140,
        "13773": 244,
        "13774": 60,
        "13775": 104,
        "13776": 204,
        "13777": 160,
        "13778": 102,
        "13779": 114,
        "13780": 82,
        "13781": 72,
        "13782": 96,
        "13783": 174,
        "13784": 64,
        "13785": 251,
        "13786": 82,
        "13787": 176,
        "13788": 189,
        "13789": 181,
        "13790": 39,
        "13791": 188,
        "13792": 202,
        "13793": 3,
        "13794": 181,
        "13795": 143,
        "13796": 51,
        "13797": 97,
        "13798": 61,
        "13799": 171,
        "13800": 104,
        "13801": 127,
        "13802": 56,
        "13803": 68,
        "13804": 3,
        "13805": 225,
        "13806": 168,
        "13807": 189,
        "13808": 131,
        "13809": 221,
        "13810": 231,
        "13811": 240,
        "13812": 120,
        "13813": 44,
        "13814": 237,
        "13815": 199,
        "13816": 177,
        "13817": 125,
        "13818": 72,
        "13819": 138,
        "13820": 232,
        "13821": 71,
        "13822": 191,
        "13823": 197,
        "13824": 115,
        "13825": 0,
        "13826": 77,
        "13827": 227,
        "13828": 154,
        "13829": 114,
        "13830": 31,
        "13831": 71,
        "13832": 6,
        "13833": 135,
        "13834": 195,
        "13835": 197,
        "13836": 187,
        "13837": 39,
        "13838": 70,
        "13839": 195,
        "13840": 97,
        "13841": 245,
        "13842": 101,
        "13843": 172,
        "13844": 138,
        "13845": 77,
        "13846": 158,
        "13847": 77,
        "13848": 206,
        "13849": 122,
        "13850": 157,
        "13851": 102,
        "13852": 51,
        "13853": 7,
        "13854": 19,
        "13855": 188,
        "13856": 74,
        "13857": 227,
        "13858": 248,
        "13859": 47,
        "13860": 243,
        "13861": 250,
        "13862": 135,
        "13863": 20,
        "13864": 233,
        "13865": 143,
        "13866": 206,
        "13867": 208,
        "13868": 63,
        "13869": 241,
        "13870": 118,
        "13871": 7,
        "13872": 27,
        "13873": 164,
        "13874": 150,
        "13875": 109,
        "13876": 39,
        "13877": 130,
        "13878": 40,
        "13879": 230,
        "13880": 57,
        "13881": 133,
        "13882": 5,
        "13883": 221,
        "13884": 240,
        "13885": 210,
        "13886": 140,
        "13887": 217,
        "13888": 237,
        "13889": 23,
        "13890": 9,
        "13891": 157,
        "13892": 124,
        "13893": 59,
        "13894": 217,
        "13895": 193,
        "13896": 10,
        "13897": 23,
        "13898": 117,
        "13899": 236,
        "13900": 88,
        "13901": 40,
        "13902": 86,
        "13903": 4,
        "13904": 68,
        "13905": 26,
        "13906": 121,
        "13907": 95,
        "13908": 159,
        "13909": 251,
        "13910": 73,
        "13911": 76,
        "13912": 29,
        "13913": 183,
        "13914": 49,
        "13915": 133,
        "13916": 101,
        "13917": 128,
        "13918": 180,
        "13919": 113,
        "13920": 149,
        "13921": 24,
        "13922": 210,
        "13923": 199,
        "13924": 77,
        "13925": 29,
        "13926": 128,
        "13927": 212,
        "13928": 156,
        "13929": 151,
        "13930": 179,
        "13931": 51,
        "13932": 101,
        "13933": 120,
        "13934": 156,
        "13935": 160,
        "13936": 166,
        "13937": 199,
        "13938": 123,
        "13939": 250,
        "13940": 186,
        "13941": 41,
        "13942": 71,
        "13943": 191,
        "13944": 55,
        "13945": 173,
        "13946": 94,
        "13947": 94,
        "13948": 97,
        "13949": 171,
        "13950": 140,
        "13951": 213,
        "13952": 218,
        "13953": 78,
        "13954": 147,
        "13955": 106,
        "13956": 228,
        "13957": 79,
        "13958": 96,
        "13959": 160,
        "13960": 28,
        "13961": 76,
        "13962": 80,
        "13963": 1,
        "13964": 4,
        "13965": 215,
        "13966": 70,
        "13967": 185,
        "13968": 234,
        "13969": 66,
        "13970": 164,
        "13971": 69,
        "13972": 179,
        "13973": 167,
        "13974": 33,
        "13975": 255,
        "13976": 219,
        "13977": 1,
        "13978": 253,
        "13979": 89,
        "13980": 32,
        "13981": 238,
        "13982": 144,
        "13983": 251,
        "13984": 251,
        "13985": 102,
        "13986": 245,
        "13987": 55,
        "13988": 203,
        "13989": 252,
        "13990": 163,
        "13991": 226,
        "13992": 169,
        "13993": 202,
        "13994": 155,
        "13995": 221,
        "13996": 42,
        "13997": 124,
        "13998": 1,
        "13999": 152,
        "14000": 97,
        "14001": 240,
        "14002": 92,
        "14003": 149,
        "14004": 53,
        "14005": 233,
        "14006": 107,
        "14007": 89,
        "14008": 42,
        "14009": 255,
        "14010": 222,
        "14011": 72,
        "14012": 94,
        "14013": 141,
        "14014": 122,
        "14015": 178,
        "14016": 235,
        "14017": 166,
        "14018": 48,
        "14019": 154,
        "14020": 63,
        "14021": 222,
        "14022": 157,
        "14023": 65,
        "14024": 213,
        "14025": 10,
        "14026": 232,
        "14027": 192,
        "14028": 226,
        "14029": 17,
        "14030": 192,
        "14031": 65,
        "14032": 154,
        "14033": 68,
        "14034": 244,
        "14035": 55,
        "14036": 176,
        "14037": 91,
        "14038": 32,
        "14039": 137,
        "14040": 126,
        "14041": 239,
        "14042": 99,
        "14043": 189,
        "14044": 163,
        "14045": 184,
        "14046": 194,
        "14047": 18,
        "14048": 177,
        "14049": 166,
        "14050": 137,
        "14051": 144,
        "14052": 26,
        "14053": 7,
        "14054": 243,
        "14055": 130,
        "14056": 7,
        "14057": 54,
        "14058": 187,
        "14059": 25,
        "14060": 89,
        "14061": 132,
        "14062": 197,
        "14063": 13,
        "14064": 188,
        "14065": 181,
        "14066": 250,
        "14067": 158,
        "14068": 199,
        "14069": 198,
        "14070": 20,
        "14071": 8,
        "14072": 195,
        "14073": 40,
        "14074": 14,
        "14075": 241,
        "14076": 89,
        "14077": 168,
        "14078": 122,
        "14079": 207,
        "14080": 147,
        "14081": 246,
        "14082": 232,
        "14083": 48,
        "14084": 96,
        "14085": 26,
        "14086": 148,
        "14087": 76,
        "14088": 59,
        "14089": 87,
        "14090": 219,
        "14091": 106,
        "14092": 72,
        "14093": 60,
        "14094": 49,
        "14095": 195,
        "14096": 2,
        "14097": 44,
        "14098": 244,
        "14099": 184,
        "14100": 88,
        "14101": 114,
        "14102": 174,
        "14103": 128,
        "14104": 102,
        "14105": 9,
        "14106": 62,
        "14107": 187,
        "14108": 79,
        "14109": 118,
        "14110": 89,
        "14111": 172,
        "14112": 215,
        "14113": 148,
        "14114": 194,
        "14115": 142,
        "14116": 159,
        "14117": 103,
        "14118": 100,
        "14119": 100,
        "14120": 32,
        "14121": 221,
        "14122": 152,
        "14123": 103,
        "14124": 87,
        "14125": 145,
        "14126": 196,
        "14127": 103,
        "14128": 102,
        "14129": 7,
        "14130": 14,
        "14131": 71,
        "14132": 169,
        "14133": 50,
        "14134": 233,
        "14135": 217,
        "14136": 58,
        "14137": 80,
        "14138": 205,
        "14139": 162,
        "14140": 65,
        "14141": 146,
        "14142": 181,
        "14143": 159,
        "14144": 92,
        "14145": 209,
        "14146": 80,
        "14147": 46,
        "14148": 162,
        "14149": 100,
        "14150": 234,
        "14151": 234,
        "14152": 52,
        "14153": 223,
        "14154": 15,
        "14155": 251,
        "14156": 176,
        "14157": 165,
        "14158": 150,
        "14159": 251,
        "14160": 149,
        "14161": 199,
        "14162": 9,
        "14163": 146,
        "14164": 36,
        "14165": 228,
        "14166": 13,
        "14167": 212,
        "14168": 13,
        "14169": 218,
        "14170": 212,
        "14171": 101,
        "14172": 86,
        "14173": 254,
        "14174": 130,
        "14175": 109,
        "14176": 29,
        "14177": 210,
        "14178": 100,
        "14179": 105,
        "14180": 123,
        "14181": 240,
        "14182": 81,
        "14183": 67,
        "14184": 183,
        "14185": 243,
        "14186": 36,
        "14187": 10,
        "14188": 112,
        "14189": 234,
        "14190": 206,
        "14191": 6,
        "14192": 107,
        "14193": 137,
        "14194": 25,
        "14195": 147,
        "14196": 137,
        "14197": 103,
        "14198": 144,
        "14199": 94,
        "14200": 187,
        "14201": 157,
        "14202": 199,
        "14203": 170,
        "14204": 190,
        "14205": 55,
        "14206": 12,
        "14207": 211,
        "14208": 5,
        "14209": 127,
        "14210": 21,
        "14211": 78,
        "14212": 50,
        "14213": 111,
        "14214": 178,
        "14215": 96,
        "14216": 106,
        "14217": 177,
        "14218": 66,
        "14219": 252,
        "14220": 93,
        "14221": 32,
        "14222": 89,
        "14223": 71,
        "14224": 218,
        "14225": 224,
        "14226": 129,
        "14227": 220,
        "14228": 126,
        "14229": 204,
        "14230": 174,
        "14231": 204,
        "14232": 225,
        "14233": 8,
        "14234": 31,
        "14235": 110,
        "14236": 87,
        "14237": 240,
        "14238": 27,
        "14239": 129,
        "14240": 23,
        "14241": 122,
        "14242": 196,
        "14243": 140,
        "14244": 144,
        "14245": 251,
        "14246": 159,
        "14247": 97,
        "14248": 160,
        "14249": 246,
        "14250": 244,
        "14251": 187,
        "14252": 76,
        "14253": 254,
        "14254": 111,
        "14255": 82,
        "14256": 209,
        "14257": 226,
        "14258": 48,
        "14259": 111,
        "14260": 108,
        "14261": 150,
        "14262": 136,
        "14263": 254,
        "14264": 235,
        "14265": 167,
        "14266": 80,
        "14267": 81,
        "14268": 66,
        "14269": 4,
        "14270": 255,
        "14271": 188,
        "14272": 88,
        "14273": 198,
        "14274": 37,
        "14275": 4,
        "14276": 103,
        "14277": 49,
        "14278": 126,
        "14279": 92,
        "14280": 177,
        "14281": 254,
        "14282": 80,
        "14283": 63,
        "14284": 96,
        "14285": 177,
        "14286": 22,
        "14287": 73,
        "14288": 140,
        "14289": 36,
        "14290": 126,
        "14291": 87,
        "14292": 144,
        "14293": 224,
        "14294": 86,
        "14295": 254,
        "14296": 156,
        "14297": 35,
        "14298": 5,
        "14299": 147,
        "14300": 104,
        "14301": 150,
        "14302": 192,
        "14303": 111,
        "14304": 76,
        "14305": 28,
        "14306": 15,
        "14307": 155,
        "14308": 219,
        "14309": 118,
        "14310": 46,
        "14311": 12,
        "14312": 45,
        "14313": 194,
        "14314": 221,
        "14315": 82,
        "14316": 244,
        "14317": 53,
        "14318": 144,
        "14319": 151,
        "14320": 4,
        "14321": 243,
        "14322": 86,
        "14323": 86,
        "14324": 69,
        "14325": 245,
        "14326": 211,
        "14327": 15,
        "14328": 147,
        "14329": 171,
        "14330": 1,
        "14331": 174,
        "14332": 88,
        "14333": 150,
        "14334": 83,
        "14335": 195,
        "14336": 201,
        "14337": 65,
        "14338": 3,
        "14339": 190,
        "14340": 13,
        "14341": 240,
        "14342": 212,
        "14343": 162,
        "14344": 197,
        "14345": 248,
        "14346": 215,
        "14347": 201,
        "14348": 221,
        "14349": 165,
        "14350": 137,
        "14351": 43,
        "14352": 20,
        "14353": 140,
        "14354": 225,
        "14355": 4,
        "14356": 59,
        "14357": 53,
        "14358": 109,
        "14359": 62,
        "14360": 110,
        "14361": 117,
        "14362": 16,
        "14363": 193,
        "14364": 236,
        "14365": 129,
        "14366": 129,
        "14367": 97,
        "14368": 138,
        "14369": 230,
        "14370": 91,
        "14371": 19,
        "14372": 221,
        "14373": 127,
        "14374": 1,
        "14375": 111,
        "14376": 24,
        "14377": 65,
        "14378": 200,
        "14379": 223,
        "14380": 245,
        "14381": 194,
        "14382": 231,
        "14383": 202,
        "14384": 66,
        "14385": 182,
        "14386": 31,
        "14387": 143,
        "14388": 184,
        "14389": 11,
        "14390": 218,
        "14391": 4,
        "14392": 34,
        "14393": 14,
        "14394": 72,
        "14395": 66,
        "14396": 107,
        "14397": 181,
        "14398": 225,
        "14399": 132,
        "14400": 77,
        "14401": 114,
        "14402": 116,
        "14403": 59,
        "14404": 241,
        "14405": 168,
        "14406": 208,
        "14407": 125,
        "14408": 219,
        "14409": 234,
        "14410": 79,
        "14411": 111,
        "14412": 240,
        "14413": 186,
        "14414": 159,
        "14415": 7,
        "14416": 226,
        "14417": 38,
        "14418": 0,
        "14419": 56,
        "14420": 221,
        "14421": 23,
        "14422": 195,
        "14423": 114,
        "14424": 98,
        "14425": 216,
        "14426": 108,
        "14427": 238,
        "14428": 212,
        "14429": 122,
        "14430": 98,
        "14431": 223,
        "14432": 108,
        "14433": 80,
        "14434": 63,
        "14435": 248,
        "14436": 121,
        "14437": 251,
        "14438": 230,
        "14439": 123,
        "14440": 134,
        "14441": 198,
        "14442": 82,
        "14443": 68,
        "14444": 83,
        "14445": 187,
        "14446": 127,
        "14447": 167,
        "14448": 65,
        "14449": 223,
        "14450": 2,
        "14451": 228,
        "14452": 81,
        "14453": 235,
        "14454": 82,
        "14455": 235,
        "14456": 123,
        "14457": 158,
        "14458": 203,
        "14459": 33,
        "14460": 0,
        "14461": 30,
        "14462": 230,
        "14463": 156,
        "14464": 224,
        "14465": 253,
        "14466": 234,
        "14467": 149,
        "14468": 233,
        "14469": 58,
        "14470": 219,
        "14471": 165,
        "14472": 16,
        "14473": 7,
        "14474": 240,
        "14475": 64,
        "14476": 156,
        "14477": 54,
        "14478": 239,
        "14479": 240,
        "14480": 252,
        "14481": 33,
        "14482": 231,
        "14483": 63,
        "14484": 6,
        "14485": 236,
        "14486": 104,
        "14487": 183,
        "14488": 139,
        "14489": 33,
        "14490": 105,
        "14491": 94,
        "14492": 130,
        "14493": 23,
        "14494": 120,
        "14495": 100,
        "14496": 187,
        "14497": 101,
        "14498": 109,
        "14499": 194,
        "14500": 148,
        "14501": 77,
        "14502": 42,
        "14503": 73,
        "14504": 73,
        "14505": 195,
        "14506": 222,
        "14507": 36,
        "14508": 79,
        "14509": 41,
        "14510": 94,
        "14511": 162,
        "14512": 45,
        "14513": 75,
        "14514": 30,
        "14515": 0,
        "14516": 123,
        "14517": 59,
        "14518": 139,
        "14519": 251,
        "14520": 27,
        "14521": 159,
        "14522": 235,
        "14523": 113,
        "14524": 139,
        "14525": 221,
        "14526": 61,
        "14527": 207,
        "14528": 250,
        "14529": 203,
        "14530": 186,
        "14531": 219,
        "14532": 95,
        "14533": 139,
        "14534": 121,
        "14535": 104,
        "14536": 101,
        "14537": 178,
        "14538": 253,
        "14539": 10,
        "14540": 55,
        "14541": 45,
        "14542": 12,
        "14543": 66,
        "14544": 115,
        "14545": 155,
        "14546": 137,
        "14547": 13,
        "14548": 124,
        "14549": 89,
        "14550": 64,
        "14551": 237,
        "14552": 99,
        "14553": 244,
        "14554": 211,
        "14555": 58,
        "14556": 211,
        "14557": 134,
        "14558": 27,
        "14559": 26,
        "14560": 44,
        "14561": 5,
        "14562": 124,
        "14563": 13,
        "14564": 111,
        "14565": 182,
        "14566": 101,
        "14567": 0,
        "14568": 161,
        "14569": 18,
        "14570": 9,
        "14571": 24,
        "14572": 67,
        "14573": 152,
        "14574": 98,
        "14575": 238,
        "14576": 195,
        "14577": 64,
        "14578": 124,
        "14579": 230,
        "14580": 151,
        "14581": 13,
        "14582": 58,
        "14583": 70,
        "14584": 161,
        "14585": 81,
        "14586": 210,
        "14587": 245,
        "14588": 245,
        "14589": 159,
        "14590": 183,
        "14591": 144,
        "14592": 238,
        "14593": 241,
        "14594": 153,
        "14595": 41,
        "14596": 87,
        "14597": 182,
        "14598": 244,
        "14599": 26,
        "14600": 89,
        "14601": 196,
        "14602": 150,
        "14603": 236,
        "14604": 181,
        "14605": 229,
        "14606": 166,
        "14607": 121,
        "14608": 73,
        "14609": 134,
        "14610": 110,
        "14611": 252,
        "14612": 255,
        "14613": 165,
        "14614": 207,
        "14615": 119,
        "14616": 12,
        "14617": 127,
        "14618": 189,
        "14619": 223,
        "14620": 214,
        "14621": 122,
        "14622": 242,
        "14623": 67,
        "14624": 111,
        "14625": 0,
        "14626": 227,
        "14627": 129,
        "14628": 36,
        "14629": 54,
        "14630": 223,
        "14631": 164,
        "14632": 43,
        "14633": 125,
        "14634": 196,
        "14635": 199,
        "14636": 131,
        "14637": 183,
        "14638": 81,
        "14639": 243,
        "14640": 250,
        "14641": 140,
        "14642": 12,
        "14643": 60,
        "14644": 75,
        "14645": 24,
        "14646": 97,
        "14647": 36,
        "14648": 3,
        "14649": 52,
        "14650": 48,
        "14651": 23,
        "14652": 78,
        "14653": 242,
        "14654": 160,
        "14655": 246,
        "14656": 194,
        "14657": 40,
        "14658": 59,
        "14659": 125,
        "14660": 20,
        "14661": 98,
        "14662": 189,
        "14663": 123,
        "14664": 10,
        "14665": 222,
        "14666": 35,
        "14667": 114,
        "14668": 0,
        "14669": 178,
        "14670": 215,
        "14671": 150,
        "14672": 112,
        "14673": 243,
        "14674": 139,
        "14675": 104,
        "14676": 160,
        "14677": 115,
        "14678": 50,
        "14679": 161,
        "14680": 100,
        "14681": 135,
        "14682": 25,
        "14683": 93,
        "14684": 168,
        "14685": 190,
        "14686": 13,
        "14687": 34,
        "14688": 21,
        "14689": 182,
        "14690": 0,
        "14691": 19,
        "14692": 57,
        "14693": 158,
        "14694": 25,
        "14695": 203,
        "14696": 18,
        "14697": 160,
        "14698": 166,
        "14699": 31,
        "14700": 24,
        "14701": 78,
        "14702": 120,
        "14703": 152,
        "14704": 37,
        "14705": 58,
        "14706": 127,
        "14707": 1,
        "14708": 234,
        "14709": 127,
        "14710": 67,
        "14711": 131,
        "14712": 245,
        "14713": 148,
        "14714": 112,
        "14715": 24,
        "14716": 36,
        "14717": 12,
        "14718": 173,
        "14719": 68,
        "14720": 59,
        "14721": 175,
        "14722": 237,
        "14723": 116,
        "14724": 126,
        "14725": 232,
        "14726": 35,
        "14727": 250,
        "14728": 62,
        "14729": 31,
        "14730": 0,
        "14731": 165,
        "14732": 168,
        "14733": 56,
        "14734": 53,
        "14735": 34,
        "14736": 243,
        "14737": 214,
        "14738": 163,
        "14739": 12,
        "14740": 193,
        "14741": 185,
        "14742": 87,
        "14743": 240,
        "14744": 102,
        "14745": 144,
        "14746": 201,
        "14747": 4,
        "14748": 145,
        "14749": 239,
        "14750": 62,
        "14751": 101,
        "14752": 35,
        "14753": 160,
        "14754": 202,
        "14755": 42,
        "14756": 231,
        "14757": 18,
        "14758": 23,
        "14759": 49,
        "14760": 1,
        "14761": 72,
        "14762": 167,
        "14763": 99,
        "14764": 213,
        "14765": 31,
        "14766": 214,
        "14767": 34,
        "14768": 15,
        "14769": 170,
        "14770": 159,
        "14771": 4,
        "14772": 175,
        "14773": 65,
        "14774": 205,
        "14775": 181,
        "14776": 68,
        "14777": 181,
        "14778": 203,
        "14779": 52,
        "14780": 53,
        "14781": 179,
        "14782": 130,
        "14783": 205,
        "14784": 194,
        "14785": 6,
        "14786": 231,
        "14787": 214,
        "14788": 5,
        "14789": 26,
        "14790": 67,
        "14791": 84,
        "14792": 118,
        "14793": 29,
        "14794": 212,
        "14795": 76,
        "14796": 199,
        "14797": 216,
        "14798": 20,
        "14799": 203,
        "14800": 145,
        "14801": 41,
        "14802": 67,
        "14803": 31,
        "14804": 44,
        "14805": 190,
        "14806": 186,
        "14807": 30,
        "14808": 16,
        "14809": 191,
        "14810": 114,
        "14811": 43,
        "14812": 173,
        "14813": 74,
        "14814": 186,
        "14815": 219,
        "14816": 44,
        "14817": 132,
        "14818": 162,
        "14819": 217,
        "14820": 135,
        "14821": 139,
        "14822": 177,
        "14823": 124,
        "14824": 90,
        "14825": 135,
        "14826": 219,
        "14827": 196,
        "14828": 207,
        "14829": 80,
        "14830": 89,
        "14831": 69,
        "14832": 0,
        "14833": 205,
        "14834": 103,
        "14835": 225,
        "14836": 216,
        "14837": 209,
        "14838": 60,
        "14839": 235,
        "14840": 139,
        "14841": 77,
        "14842": 124,
        "14843": 42,
        "14844": 13,
        "14845": 162,
        "14846": 216,
        "14847": 160,
        "14848": 98,
        "14849": 240,
        "14850": 195,
        "14851": 88,
        "14852": 212,
        "14853": 40,
        "14854": 186,
        "14855": 196,
        "14856": 6,
        "14857": 2,
        "14858": 155,
        "14859": 83,
        "14860": 40,
        "14861": 20,
        "14862": 175,
        "14863": 39,
        "14864": 105,
        "14865": 251,
        "14866": 42,
        "14867": 190,
        "14868": 184,
        "14869": 233,
        "14870": 31,
        "14871": 73,
        "14872": 39,
        "14873": 10,
        "14874": 152,
        "14875": 15,
        "14876": 156,
        "14877": 80,
        "14878": 253,
        "14879": 217,
        "14880": 73,
        "14881": 165,
        "14882": 237,
        "14883": 209,
        "14884": 235,
        "14885": 111,
        "14886": 87,
        "14887": 178,
        "14888": 165,
        "14889": 176,
        "14890": 181,
        "14891": 24,
        "14892": 39,
        "14893": 162,
        "14894": 77,
        "14895": 220,
        "14896": 40,
        "14897": 3,
        "14898": 61,
        "14899": 220,
        "14900": 159,
        "14901": 203,
        "14902": 55,
        "14903": 29,
        "14904": 159,
        "14905": 9,
        "14906": 176,
        "14907": 151,
        "14908": 173,
        "14909": 158,
        "14910": 239,
        "14911": 228,
        "14912": 41,
        "14913": 115,
        "14914": 144,
        "14915": 221,
        "14916": 26,
        "14917": 230,
        "14918": 152,
        "14919": 250,
        "14920": 109,
        "14921": 91,
        "14922": 178,
        "14923": 157,
        "14924": 192,
        "14925": 214,
        "14926": 144,
        "14927": 87,
        "14928": 102,
        "14929": 254,
        "14930": 254,
        "14931": 18,
        "14932": 231,
        "14933": 84,
        "14934": 188,
        "14935": 32,
        "14936": 160,
        "14937": 223,
        "14938": 169,
        "14939": 89,
        "14940": 167,
        "14941": 234,
        "14942": 233,
        "14943": 22,
        "14944": 208,
        "14945": 38,
        "14946": 91,
        "14947": 139,
        "14948": 158,
        "14949": 44,
        "14950": 217,
        "14951": 197,
        "14952": 161,
        "14953": 103,
        "14954": 188,
        "14955": 156,
        "14956": 143,
        "14957": 22,
        "14958": 138,
        "14959": 136,
        "14960": 70,
        "14961": 95,
        "14962": 68,
        "14963": 23,
        "14964": 3,
        "14965": 90,
        "14966": 37,
        "14967": 190,
        "14968": 88,
        "14969": 50,
        "14970": 22,
        "14971": 247,
        "14972": 240,
        "14973": 67,
        "14974": 52,
        "14975": 194,
        "14976": 232,
        "14977": 106,
        "14978": 197,
        "14979": 23,
        "14980": 212,
        "14981": 131,
        "14982": 97,
        "14983": 13,
        "14984": 2,
        "14985": 191,
        "14986": 13,
        "14987": 189,
        "14988": 112,
        "14989": 82,
        "14990": 159,
        "14991": 73,
        "14992": 70,
        "14993": 46,
        "14994": 65,
        "14995": 209,
        "14996": 92,
        "14997": 244,
        "14998": 142,
        "14999": 241,
        "15000": 225,
        "15001": 161,
        "15002": 157,
        "15003": 160,
        "15004": 18,
        "15005": 177,
        "15006": 225,
        "15007": 89,
        "15008": 77,
        "15009": 84,
        "15010": 49,
        "15011": 72,
        "15012": 88,
        "15013": 128,
        "15014": 204,
        "15015": 252,
        "15016": 52,
        "15017": 48,
        "15018": 17,
        "15019": 47,
        "15020": 186,
        "15021": 213,
        "15022": 56,
        "15023": 185,
        "15024": 156,
        "15025": 225,
        "15026": 209,
        "15027": 68,
        "15028": 155,
        "15029": 241,
        "15030": 138,
        "15031": 50,
        "15032": 246,
        "15033": 95,
        "15034": 43,
        "15035": 18,
        "15036": 70,
        "15037": 70,
        "15038": 155,
        "15039": 157,
        "15040": 45,
        "15041": 248,
        "15042": 201,
        "15043": 115,
        "15044": 76,
        "15045": 217,
        "15046": 15,
        "15047": 54,
        "15048": 91,
        "15049": 110,
        "15050": 210,
        "15051": 216,
        "15052": 71,
        "15053": 150,
        "15054": 97,
        "15055": 45,
        "15056": 99,
        "15057": 87,
        "15058": 111,
        "15059": 255,
        "15060": 61,
        "15061": 233,
        "15062": 53,
        "15063": 203,
        "15064": 84,
        "15065": 86,
        "15066": 109,
        "15067": 49,
        "15068": 175,
        "15069": 65,
        "15070": 134,
        "15071": 64,
        "15072": 77,
        "15073": 190,
        "15074": 174,
        "15075": 45,
        "15076": 79,
        "15077": 163,
        "15078": 236,
        "15079": 27,
        "15080": 81,
        "15081": 245,
        "15082": 140,
        "15083": 131,
        "15084": 62,
        "15085": 109,
        "15086": 251,
        "15087": 214,
        "15088": 148,
        "15089": 242,
        "15090": 43,
        "15091": 32,
        "15092": 34,
        "15093": 140,
        "15094": 22,
        "15095": 1,
        "15096": 197,
        "15097": 20,
        "15098": 69,
        "15099": 67,
        "15100": 185,
        "15101": 84,
        "15102": 58,
        "15103": 102,
        "15104": 236,
        "15105": 112,
        "15106": 41,
        "15107": 233,
        "15108": 51,
        "15109": 119,
        "15110": 121,
        "15111": 245,
        "15112": 29,
        "15113": 19,
        "15114": 143,
        "15115": 3,
        "15116": 64,
        "15117": 67,
        "15118": 165,
        "15119": 244,
        "15120": 77,
        "15121": 143,
        "15122": 202,
        "15123": 71,
        "15124": 198,
        "15125": 185,
        "15126": 175,
        "15127": 245,
        "15128": 10,
        "15129": 212,
        "15130": 33,
        "15131": 172,
        "15132": 62,
        "15133": 155,
        "15134": 95,
        "15135": 252,
        "15136": 76,
        "15137": 62,
        "15138": 6,
        "15139": 233,
        "15140": 233,
        "15141": 177,
        "15142": 228,
        "15143": 83,
        "15144": 68,
        "15145": 8,
        "15146": 245,
        "15147": 60,
        "15148": 62,
        "15149": 200,
        "15150": 12,
        "15151": 183,
        "15152": 37,
        "15153": 26,
        "15154": 253,
        "15155": 22,
        "15156": 33,
        "15157": 56,
        "15158": 43,
        "15159": 187,
        "15160": 132,
        "15161": 231,
        "15162": 87,
        "15163": 105,
        "15164": 41,
        "15165": 244,
        "15166": 173,
        "15167": 47,
        "15168": 243,
        "15169": 10,
        "15170": 199,
        "15171": 92,
        "15172": 239,
        "15173": 250,
        "15174": 43,
        "15175": 7,
        "15176": 229,
        "15177": 186,
        "15178": 233,
        "15179": 176,
        "15180": 54,
        "15181": 87,
        "15182": 34,
        "15183": 196,
        "15184": 53,
        "15185": 42,
        "15186": 122,
        "15187": 200,
        "15188": 152,
        "15189": 85,
        "15190": 109,
        "15191": 48,
        "15192": 63,
        "15193": 184,
        "15194": 93,
        "15195": 234,
        "15196": 184,
        "15197": 109,
        "15198": 236,
        "15199": 148,
        "15200": 90,
        "15201": 174,
        "15202": 232,
        "15203": 218,
        "15204": 121,
        "15205": 77,
        "15206": 160,
        "15207": 195,
        "15208": 80,
        "15209": 14,
        "15210": 230,
        "15211": 46,
        "15212": 227,
        "15213": 78,
        "15214": 227,
        "15215": 65,
        "15216": 23,
        "15217": 65,
        "15218": 192,
        "15219": 184,
        "15220": 133,
        "15221": 82,
        "15222": 173,
        "15223": 29,
        "15224": 68,
        "15225": 220,
        "15226": 147,
        "15227": 226,
        "15228": 17,
        "15229": 105,
        "15230": 164,
        "15231": 167,
        "15232": 46,
        "15233": 42,
        "15234": 21,
        "15235": 230,
        "15236": 207,
        "15237": 232,
        "15238": 66,
        "15239": 235,
        "15240": 57,
        "15241": 132,
        "15242": 187,
        "15243": 100,
        "15244": 135,
        "15245": 11,
        "15246": 7,
        "15247": 32,
        "15248": 94,
        "15249": 252,
        "15250": 120,
        "15251": 246,
        "15252": 109,
        "15253": 102,
        "15254": 203,
        "15255": 106,
        "15256": 254,
        "15257": 150,
        "15258": 172,
        "15259": 154,
        "15260": 249,
        "15261": 141,
        "15262": 33,
        "15263": 148,
        "15264": 202,
        "15265": 213,
        "15266": 189,
        "15267": 153,
        "15268": 187,
        "15269": 151,
        "15270": 243,
        "15271": 188,
        "15272": 28,
        "15273": 44,
        "15274": 196,
        "15275": 251,
        "15276": 206,
        "15277": 106,
        "15278": 182,
        "15279": 147,
        "15280": 225,
        "15281": 177,
        "15282": 253,
        "15283": 70,
        "15284": 83,
        "15285": 242,
        "15286": 20,
        "15287": 152,
        "15288": 27,
        "15289": 184,
        "15290": 182,
        "15291": 151,
        "15292": 19,
        "15293": 110,
        "15294": 91,
        "15295": 193,
        "15296": 172,
        "15297": 128,
        "15298": 43,
        "15299": 72,
        "15300": 0,
        "15301": 71,
        "15302": 106,
        "15303": 92,
        "15304": 223,
        "15305": 170,
        "15306": 208,
        "15307": 56,
        "15308": 225,
        "15309": 214,
        "15310": 69,
        "15311": 248,
        "15312": 120,
        "15313": 237,
        "15314": 192,
        "15315": 85,
        "15316": 86,
        "15317": 30,
        "15318": 114,
        "15319": 26,
        "15320": 29,
        "15321": 171,
        "15322": 231,
        "15323": 32,
        "15324": 65,
        "15325": 9,
        "15326": 53,
        "15327": 20,
        "15328": 129,
        "15329": 81,
        "15330": 15,
        "15331": 20,
        "15332": 227,
        "15333": 91,
        "15334": 61,
        "15335": 148,
        "15336": 190,
        "15337": 19,
        "15338": 227,
        "15339": 167,
        "15340": 187,
        "15341": 67,
        "15342": 221,
        "15343": 241,
        "15344": 75,
        "15345": 11,
        "15346": 223,
        "15347": 42,
        "15348": 84,
        "15349": 112,
        "15350": 180,
        "15351": 38,
        "15352": 63,
        "15353": 74,
        "15354": 173,
        "15355": 55,
        "15356": 78,
        "15357": 116,
        "15358": 220,
        "15359": 70,
        "15360": 188,
        "15361": 84,
        "15362": 39,
        "15363": 58,
        "15364": 90,
        "15365": 201,
        "15366": 151,
        "15367": 233,
        "15368": 63,
        "15369": 73,
        "15370": 115,
        "15371": 111,
        "15372": 120,
        "15373": 20,
        "15374": 37,
        "15375": 197,
        "15376": 146,
        "15377": 92,
        "15378": 209,
        "15379": 40,
        "15380": 9,
        "15381": 222,
        "15382": 204,
        "15383": 203,
        "15384": 37,
        "15385": 158,
        "15386": 174,
        "15387": 128,
        "15388": 52,
        "15389": 240,
        "15390": 81,
        "15391": 109,
        "15392": 150,
        "15393": 121,
        "15394": 9,
        "15395": 159,
        "15396": 121,
        "15397": 250,
        "15398": 180,
        "15399": 121,
        "15400": 227,
        "15401": 114,
        "15402": 233,
        "15403": 225,
        "15404": 74,
        "15405": 156,
        "15406": 14,
        "15407": 85,
        "15408": 30,
        "15409": 241,
        "15410": 39,
        "15411": 114,
        "15412": 225,
        "15413": 209,
        "15414": 254,
        "15415": 97,
        "15416": 74,
        "15417": 144,
        "15418": 185,
        "15419": 246,
        "15420": 238,
        "15421": 147,
        "15422": 15,
        "15423": 4,
        "15424": 127,
        "15425": 36,
        "15426": 63,
        "15427": 240,
        "15428": 221,
        "15429": 48,
        "15430": 112,
        "15431": 37,
        "15432": 118,
        "15433": 194,
        "15434": 186,
        "15435": 122,
        "15436": 121,
        "15437": 97,
        "15438": 160,
        "15439": 53,
        "15440": 114,
        "15441": 208,
        "15442": 163,
        "15443": 136,
        "15444": 253,
        "15445": 126,
        "15446": 12,
        "15447": 242,
        "15448": 78,
        "15449": 189,
        "15450": 0,
        "15451": 248,
        "15452": 246,
        "15453": 56,
        "15454": 201,
        "15455": 14,
        "15456": 230,
        "15457": 221,
        "15458": 235,
        "15459": 166,
        "15460": 168,
        "15461": 147,
        "15462": 64,
        "15463": 93,
        "15464": 50,
        "15465": 40,
        "15466": 142,
        "15467": 9,
        "15468": 62,
        "15469": 146,
        "15470": 143,
        "15471": 109,
        "15472": 5,
        "15473": 48,
        "15474": 211,
        "15475": 139,
        "15476": 108,
        "15477": 246,
        "15478": 25,
        "15479": 92,
        "15480": 171,
        "15481": 196,
        "15482": 152,
        "15483": 22,
        "15484": 63,
        "15485": 94,
        "15486": 246,
        "15487": 184,
        "15488": 10,
        "15489": 36,
        "15490": 110,
        "15491": 144,
        "15492": 156,
        "15493": 18,
        "15494": 227,
        "15495": 111,
        "15496": 96,
        "15497": 152,
        "15498": 171,
        "15499": 170,
        "15500": 133,
        "15501": 130,
        "15502": 193,
        "15503": 130,
        "15504": 224,
        "15505": 230,
        "15506": 162,
        "15507": 221,
        "15508": 125,
        "15509": 246,
        "15510": 235,
        "15511": 114,
        "15512": 227,
        "15513": 64,
        "15514": 37,
        "15515": 54,
        "15516": 14,
        "15517": 199,
        "15518": 235,
        "15519": 130,
        "15520": 134,
        "15521": 109,
        "15522": 124,
        "15523": 3,
        "15524": 131,
        "15525": 123,
        "15526": 143,
        "15527": 18,
        "15528": 156,
        "15529": 102,
        "15530": 217,
        "15531": 36,
        "15532": 59,
        "15533": 74,
        "15534": 0,
        "15535": 212,
        "15536": 90,
        "15537": 0,
        "15538": 64,
        "15539": 26,
        "15540": 240,
        "15541": 120,
        "15542": 187,
        "15543": 239,
        "15544": 226,
        "15545": 12,
        "15546": 127,
        "15547": 96,
        "15548": 68,
        "15549": 82,
        "15550": 38,
        "15551": 184,
        "15552": 158,
        "15553": 58,
        "15554": 115,
        "15555": 101,
        "15556": 130,
        "15557": 163,
        "15558": 198,
        "15559": 207,
        "15560": 72,
        "15561": 144,
        "15562": 11,
        "15563": 162,
        "15564": 182,
        "15565": 116,
        "15566": 22,
        "15567": 227,
        "15568": 197,
        "15569": 146,
        "15570": 163,
        "15571": 120,
        "15572": 70,
        "15573": 30,
        "15574": 104,
        "15575": 6,
        "15576": 178,
        "15577": 29,
        "15578": 6,
        "15579": 243,
        "15580": 254,
        "15581": 172,
        "15582": 141,
        "15583": 177,
        "15584": 40,
        "15585": 69,
        "15586": 74,
        "15587": 191,
        "15588": 124,
        "15589": 99,
        "15590": 168,
        "15591": 232,
        "15592": 182,
        "15593": 224,
        "15594": 84,
        "15595": 57,
        "15596": 155,
        "15597": 128,
        "15598": 123,
        "15599": 141,
        "15600": 75,
        "15601": 148,
        "15602": 101,
        "15603": 90,
        "15604": 159,
        "15605": 224,
        "15606": 61,
        "15607": 134,
        "15608": 21,
        "15609": 55,
        "15610": 146,
        "15611": 9,
        "15612": 9,
        "15613": 64,
        "15614": 39,
        "15615": 183,
        "15616": 237,
        "15617": 244,
        "15618": 67,
        "15619": 22,
        "15620": 129,
        "15621": 145,
        "15622": 242,
        "15623": 141,
        "15624": 218,
        "15625": 66,
        "15626": 125,
        "15627": 105,
        "15628": 175,
        "15629": 204,
        "15630": 131,
        "15631": 249,
        "15632": 98,
        "15633": 8,
        "15634": 61,
        "15635": 79,
        "15636": 33,
        "15637": 32,
        "15638": 204,
        "15639": 78,
        "15640": 206,
        "15641": 78,
        "15642": 57,
        "15643": 70,
        "15644": 24,
        "15645": 90,
        "15646": 250,
        "15647": 250,
        "15648": 27,
        "15649": 139,
        "15650": 82,
        "15651": 27,
        "15652": 108,
        "15653": 97,
        "15654": 203,
        "15655": 78,
        "15656": 36,
        "15657": 202,
        "15658": 14,
        "15659": 67,
        "15660": 87,
        "15661": 1,
        "15662": 148,
        "15663": 254,
        "15664": 127,
        "15665": 216,
        "15666": 68,
        "15667": 22,
        "15668": 157,
        "15669": 186,
        "15670": 128,
        "15671": 47,
        "15672": 172,
        "15673": 59,
        "15674": 124,
        "15675": 161,
        "15676": 166,
        "15677": 66,
        "15678": 138,
        "15679": 71,
        "15680": 189,
        "15681": 49,
        "15682": 145,
        "15683": 239,
        "15684": 7,
        "15685": 136,
        "15686": 1,
        "15687": 196,
        "15688": 100,
        "15689": 229,
        "15690": 237,
        "15691": 218,
        "15692": 168,
        "15693": 208,
        "15694": 93,
        "15695": 163,
        "15696": 112,
        "15697": 18,
        "15698": 44,
        "15699": 20,
        "15700": 66,
        "15701": 239,
        "15702": 213,
        "15703": 149,
        "15704": 159,
        "15705": 216,
        "15706": 105,
        "15707": 198,
        "15708": 44,
        "15709": 115,
        "15710": 235,
        "15711": 144,
        "15712": 65,
        "15713": 234,
        "15714": 173,
        "15715": 89,
        "15716": 133,
        "15717": 213,
        "15718": 68,
        "15719": 6,
        "15720": 154,
        "15721": 115,
        "15722": 17,
        "15723": 40,
        "15724": 91,
        "15725": 123,
        "15726": 165,
        "15727": 33,
        "15728": 198,
        "15729": 201,
        "15730": 115,
        "15731": 142,
        "15732": 86,
        "15733": 183,
        "15734": 50,
        "15735": 114,
        "15736": 184,
        "15737": 42,
        "15738": 70,
        "15739": 9,
        "15740": 119,
        "15741": 254,
        "15742": 127,
        "15743": 236,
        "15744": 1,
        "15745": 145,
        "15746": 93,
        "15747": 51,
        "15748": 237,
        "15749": 193,
        "15750": 198,
        "15751": 5,
        "15752": 109,
        "15753": 87,
        "15754": 242,
        "15755": 51,
        "15756": 67,
        "15757": 59,
        "15758": 151,
        "15759": 211,
        "15760": 153,
        "15761": 86,
        "15762": 68,
        "15763": 103,
        "15764": 133,
        "15765": 178,
        "15766": 146,
        "15767": 72,
        "15768": 22,
        "15769": 25,
        "15770": 154,
        "15771": 125,
        "15772": 117,
        "15773": 219,
        "15774": 21,
        "15775": 143,
        "15776": 19,
        "15777": 219,
        "15778": 36,
        "15779": 213,
        "15780": 7,
        "15781": 219,
        "15782": 76,
        "15783": 174,
        "15784": 161,
        "15785": 170,
        "15786": 77,
        "15787": 94,
        "15788": 111,
        "15789": 238,
        "15790": 41,
        "15791": 195,
        "15792": 187,
        "15793": 191,
        "15794": 140,
        "15795": 222,
        "15796": 125,
        "15797": 46,
        "15798": 204,
        "15799": 127,
        "15800": 248,
        "15801": 246,
        "15802": 81,
        "15803": 140,
        "15804": 221,
        "15805": 164,
        "15806": 212,
        "15807": 51,
        "15808": 223,
        "15809": 20,
        "15810": 109,
        "15811": 106,
        "15812": 84,
        "15813": 93,
        "15814": 12,
        "15815": 154,
        "15816": 153,
        "15817": 95,
        "15818": 69,
        "15819": 133,
        "15820": 94,
        "15821": 98,
        "15822": 133,
        "15823": 66,
        "15824": 157,
        "15825": 250,
        "15826": 121,
        "15827": 220,
        "15828": 47,
        "15829": 101,
        "15830": 147,
        "15831": 151,
        "15832": 9,
        "15833": 249,
        "15834": 244,
        "15835": 246,
        "15836": 121,
        "15837": 76,
        "15838": 105,
        "15839": 246,
        "15840": 64,
        "15841": 168,
        "15842": 195,
        "15843": 210,
        "15844": 217,
        "15845": 34,
        "15846": 11,
        "15847": 189,
        "15848": 186,
        "15849": 164,
        "15850": 217,
        "15851": 223,
        "15852": 188,
        "15853": 57,
        "15854": 214,
        "15855": 21,
        "15856": 149,
        "15857": 129,
        "15858": 14,
        "15859": 79,
        "15860": 144,
        "15861": 159,
        "15862": 240,
        "15863": 208,
        "15864": 112,
        "15865": 246,
        "15866": 48,
        "15867": 145,
        "15868": 221,
        "15869": 82,
        "15870": 175,
        "15871": 108,
        "15872": 175,
        "15873": 80,
        "15874": 218,
        "15875": 192,
        "15876": 212,
        "15877": 20,
        "15878": 164,
        "15879": 45,
        "15880": 99,
        "15881": 126,
        "15882": 112,
        "15883": 17,
        "15884": 85,
        "15885": 149,
        "15886": 215,
        "15887": 8,
        "15888": 52,
        "15889": 147,
        "15890": 38,
        "15891": 31,
        "15892": 247,
        "15893": 69,
        "15894": 72,
        "15895": 199,
        "15896": 197,
        "15897": 71,
        "15898": 180,
        "15899": 95,
        "15900": 205,
        "15901": 188,
        "15902": 125,
        "15903": 128,
        "15904": 36,
        "15905": 165,
        "15906": 36,
        "15907": 58,
        "15908": 237,
        "15909": 177,
        "15910": 94,
        "15911": 213,
        "15912": 245,
        "15913": 67,
        "15914": 24,
        "15915": 160,
        "15916": 197,
        "15917": 177,
        "15918": 185,
        "15919": 117,
        "15920": 143,
        "15921": 62,
        "15922": 237,
        "15923": 128,
        "15924": 195,
        "15925": 185,
        "15926": 158,
        "15927": 116,
        "15928": 97,
        "15929": 33,
        "15930": 177,
        "15931": 251,
        "15932": 208,
        "15933": 173,
        "15934": 158,
        "15935": 119,
        "15936": 146,
        "15937": 26,
        "15938": 188,
        "15939": 43,
        "15940": 151,
        "15941": 34,
        "15942": 62,
        "15943": 215,
        "15944": 246,
        "15945": 91,
        "15946": 181,
        "15947": 40,
        "15948": 1,
        "15949": 39,
        "15950": 130,
        "15951": 172,
        "15952": 41,
        "15953": 114,
        "15954": 122,
        "15955": 52,
        "15956": 240,
        "15957": 135,
        "15958": 244,
        "15959": 87,
        "15960": 169,
        "15961": 111,
        "15962": 81,
        "15963": 240,
        "15964": 234,
        "15965": 110,
        "15966": 246,
        "15967": 254,
        "15968": 32,
        "15969": 100,
        "15970": 195,
        "15971": 246,
        "15972": 177,
        "15973": 188,
        "15974": 166,
        "15975": 102,
        "15976": 118,
        "15977": 62,
        "15978": 189,
        "15979": 194,
        "15980": 130,
        "15981": 53,
        "15982": 87,
        "15983": 227,
        "15984": 98,
        "15985": 49,
        "15986": 84,
        "15987": 73,
        "15988": 203,
        "15989": 219,
        "15990": 4,
        "15991": 164,
        "15992": 156,
        "15993": 203,
        "15994": 169,
        "15995": 201,
        "15996": 77,
        "15997": 8,
        "15998": 134,
        "15999": 127,
        "16000": 203,
        "16001": 135,
        "16002": 95,
        "16003": 133,
        "16004": 76,
        "16005": 117,
        "16006": 117,
        "16007": 115,
        "16008": 149,
        "16009": 42,
        "16010": 3,
        "16011": 97,
        "16012": 77,
        "16013": 51,
        "16014": 109,
        "16015": 244,
        "16016": 94,
        "16017": 151,
        "16018": 218,
        "16019": 169,
        "16020": 91,
        "16021": 82,
        "16022": 184,
        "16023": 210,
        "16024": 79,
        "16025": 87,
        "16026": 21,
        "16027": 27,
        "16028": 211,
        "16029": 207,
        "16030": 207,
        "16031": 169,
        "16032": 146,
        "16033": 30,
        "16034": 153,
        "16035": 32,
        "16036": 144,
        "16037": 154,
        "16038": 182,
        "16039": 247,
        "16040": 77,
        "16041": 3,
        "16042": 49,
        "16043": 211,
        "16044": 91,
        "16045": 233,
        "16046": 237,
        "16047": 137,
        "16048": 131,
        "16049": 2,
        "16050": 61,
        "16051": 239,
        "16052": 159,
        "16053": 36,
        "16054": 105,
        "16055": 3,
        "16056": 124,
        "16057": 199,
        "16058": 24,
        "16059": 180,
        "16060": 72,
        "16061": 126,
        "16062": 245,
        "16063": 97,
        "16064": 245,
        "16065": 225,
        "16066": 147,
        "16067": 126,
        "16068": 36,
        "16069": 27,
        "16070": 232,
        "16071": 74,
        "16072": 21,
        "16073": 200,
        "16074": 13,
        "16075": 5,
        "16076": 69,
        "16077": 223,
        "16078": 215,
        "16079": 220,
        "16080": 30,
        "16081": 74,
        "16082": 24,
        "16083": 161,
        "16084": 233,
        "16085": 203,
        "16086": 168,
        "16087": 173,
        "16088": 201,
        "16089": 78,
        "16090": 127,
        "16091": 183,
        "16092": 2,
        "16093": 177,
        "16094": 232,
        "16095": 226,
        "16096": 163,
        "16097": 25,
        "16098": 122,
        "16099": 122,
        "16100": 244,
        "16101": 102,
        "16102": 93,
        "16103": 175,
        "16104": 215,
        "16105": 87,
        "16106": 22,
        "16107": 87,
        "16108": 252,
        "16109": 210,
        "16110": 154,
        "16111": 127,
        "16112": 158,
        "16113": 219,
        "16114": 97,
        "16115": 151,
        "16116": 108,
        "16117": 117,
        "16118": 180,
        "16119": 4,
        "16120": 250,
        "16121": 47,
        "16122": 193,
        "16123": 239,
        "16124": 255,
        "16125": 52,
        "16126": 63,
        "16127": 177,
        "16128": 159,
        "16129": 106,
        "16130": 85,
        "16131": 90,
        "16132": 50,
        "16133": 74,
        "16134": 241,
        "16135": 219,
        "16136": 40,
        "16137": 65,
        "16138": 107,
        "16139": 233,
        "16140": 147,
        "16141": 229,
        "16142": 63,
        "16143": 167,
        "16144": 225,
        "16145": 217,
        "16146": 230,
        "16147": 179,
        "16148": 23,
        "16149": 205,
        "16150": 54,
        "16151": 5,
        "16152": 224,
        "16153": 46,
        "16154": 113,
        "16155": 14,
        "16156": 103,
        "16157": 92,
        "16158": 112,
        "16159": 197,
        "16160": 252,
        "16161": 51,
        "16162": 209,
        "16163": 79,
        "16164": 76,
        "16165": 88,
        "16166": 93,
        "16167": 203,
        "16168": 222,
        "16169": 128,
        "16170": 30,
        "16171": 150,
        "16172": 219,
        "16173": 195,
        "16174": 42,
        "16175": 237,
        "16176": 190,
        "16177": 6,
        "16178": 108,
        "16179": 92,
        "16180": 240,
        "16181": 180,
        "16182": 228,
        "16183": 168,
        "16184": 183,
        "16185": 43,
        "16186": 26,
        "16187": 62,
        "16188": 161,
        "16189": 240,
        "16190": 48,
        "16191": 178,
        "16192": 111,
        "16193": 110,
        "16194": 162,
        "16195": 197,
        "16196": 53,
        "16197": 133,
        "16198": 116,
        "16199": 68,
        "16200": 163,
        "16201": 132,
        "16202": 186,
        "16203": 25,
        "16204": 151,
        "16205": 97,
        "16206": 195,
        "16207": 143,
        "16208": 107,
        "16209": 114,
        "16210": 10,
        "16211": 135,
        "16212": 27,
        "16213": 202,
        "16214": 96,
        "16215": 36,
        "16216": 143,
        "16217": 45,
        "16218": 54,
        "16219": 130,
        "16220": 71,
        "16221": 204,
        "16222": 112,
        "16223": 145,
        "16224": 106,
        "16225": 7,
        "16226": 80,
        "16227": 175,
        "16228": 135,
        "16229": 205,
        "16230": 211,
        "16231": 47,
        "16232": 21,
        "16233": 40,
        "16234": 126,
        "16235": 192,
        "16236": 127,
        "16237": 231,
        "16238": 175,
        "16239": 100,
        "16240": 134,
        "16241": 159,
        "16242": 173,
        "16243": 61,
        "16244": 194,
        "16245": 137,
        "16246": 85,
        "16247": 122,
        "16248": 210,
        "16249": 70,
        "16250": 166,
        "16251": 116,
        "16252": 233,
        "16253": 8,
        "16254": 191,
        "16255": 6,
        "16256": 122,
        "16257": 22,
        "16258": 116,
        "16259": 38,
        "16260": 129,
        "16261": 170,
        "16262": 124,
        "16263": 126,
        "16264": 213,
        "16265": 14,
        "16266": 33,
        "16267": 193,
        "16268": 44,
        "16269": 26,
        "16270": 190,
        "16271": 195,
        "16272": 117,
        "16273": 103,
        "16274": 240,
        "16275": 168,
        "16276": 99,
        "16277": 135,
        "16278": 178,
        "16279": 47,
        "16280": 193,
        "16281": 10,
        "16282": 128,
        "16283": 102,
        "16284": 17,
        "16285": 23,
        "16286": 139,
        "16287": 14,
        "16288": 222,
        "16289": 63,
        "16290": 250,
        "16291": 231,
        "16292": 126,
        "16293": 145,
        "16294": 41,
        "16295": 68,
        "16296": 102,
        "16297": 132,
        "16298": 49,
        "16299": 202,
        "16300": 241,
        "16301": 43,
        "16302": 48,
        "16303": 11,
        "16304": 7,
        "16305": 173,
        "16306": 247,
        "16307": 107,
        "16308": 144,
        "16309": 117,
        "16310": 147,
        "16311": 61,
        "16312": 252,
        "16313": 20,
        "16314": 40,
        "16315": 197,
        "16316": 100,
        "16317": 51,
        "16318": 32,
        "16319": 38,
        "16320": 168,
        "16321": 192,
        "16322": 20,
        "16323": 193,
        "16324": 217,
        "16325": 146,
        "16326": 76,
        "16327": 157,
        "16328": 79,
        "16329": 194,
        "16330": 187,
        "16331": 31,
        "16332": 28,
        "16333": 246,
        "16334": 244,
        "16335": 127,
        "16336": 142,
        "16337": 150,
        "16338": 169,
        "16339": 118,
        "16340": 250,
        "16341": 253,
        "16342": 145,
        "16343": 170,
        "16344": 6,
        "16345": 251,
        "16346": 39,
        "16347": 180,
        "16348": 209,
        "16349": 222,
        "16350": 121,
        "16351": 204,
        "16352": 206,
        "16353": 43,
        "16354": 60,
        "16355": 208,
        "16356": 156,
        "16357": 151,
        "16358": 108,
        "16359": 54,
        "16360": 155,
        "16361": 76,
        "16362": 238,
        "16363": 0,
        "16364": 26,
        "16365": 158,
        "16366": 172,
        "16367": 10,
        "16368": 189,
        "16369": 246,
        "16370": 9,
        "16371": 150,
        "16372": 176,
        "16373": 122,
        "16374": 151,
        "16375": 15,
        "16376": 246,
        "16377": 147,
        "16378": 87,
        "16379": 70,
        "16380": 32,
        "16381": 200,
        "16382": 239,
        "16383": 220,
        "16384": 142,
        "16385": 95,
        "16386": 111,
        "16387": 127,
        "16388": 236,
        "16389": 112,
        "16390": 20,
        "16391": 216,
        "16392": 18,
        "16393": 5,
        "16394": 80,
        "16395": 174,
        "16396": 62,
        "16397": 213,
        "16398": 113,
        "16399": 146,
        "16400": 171,
        "16401": 127,
        "16402": 127,
        "16403": 198,
        "16404": 241,
        "16405": 70,
        "16406": 183,
        "16407": 182,
        "16408": 240,
        "16409": 119,
        "16410": 17,
        "16411": 200,
        "16412": 168,
        "16413": 46,
        "16414": 136,
        "16415": 114,
        "16416": 81,
        "16417": 7,
        "16418": 163,
        "16419": 176,
        "16420": 162,
        "16421": 137,
        "16422": 219,
        "16423": 34,
        "16424": 121,
        "16425": 20,
        "16426": 153,
        "16427": 213,
        "16428": 131,
        "16429": 168,
        "16430": 55,
        "16431": 69,
        "16432": 177,
        "16433": 126,
        "16434": 101,
        "16435": 246,
        "16436": 194,
        "16437": 64,
        "16438": 134,
        "16439": 73,
        "16440": 195,
        "16441": 104,
        "16442": 165,
        "16443": 190,
        "16444": 52,
        "16445": 11,
        "16446": 189,
        "16447": 158,
        "16448": 242,
        "16449": 149,
        "16450": 33,
        "16451": 86,
        "16452": 235,
        "16453": 42,
        "16454": 216,
        "16455": 15,
        "16456": 205,
        "16457": 164,
        "16458": 188,
        "16459": 3,
        "16460": 198,
        "16461": 114,
        "16462": 227,
        "16463": 210,
        "16464": 51,
        "16465": 143,
        "16466": 62,
        "16467": 189,
        "16468": 231,
        "16469": 231,
        "16470": 131,
        "16471": 208,
        "16472": 200,
        "16473": 151,
        "16474": 152,
        "16475": 118,
        "16476": 218,
        "16477": 143,
        "16478": 109,
        "16479": 117,
        "16480": 142,
        "16481": 63,
        "16482": 161,
        "16483": 193,
        "16484": 208,
        "16485": 37,
        "16486": 103,
        "16487": 56,
        "16488": 111,
        "16489": 53,
        "16490": 0,
        "16491": 37,
        "16492": 48,
        "16493": 203,
        "16494": 43,
        "16495": 185,
        "16496": 179,
        "16497": 84,
        "16498": 163,
        "16499": 169,
        "16500": 246,
        "16501": 4,
        "16502": 143,
        "16503": 27,
        "16504": 212,
        "16505": 247,
        "16506": 105,
        "16507": 17,
        "16508": 42,
        "16509": 229,
        "16510": 186,
        "16511": 58,
        "16512": 196,
        "16513": 84,
        "16514": 84,
        "16515": 8,
        "16516": 82,
        "16517": 33,
        "16518": 184,
        "16519": 164,
        "16520": 1,
        "16521": 8,
        "16522": 0,
        "16523": 0,
        "16524": 0,
        "16525": 0,
        "16526": 0,
        "16527": 0,
        "16528": 16,
        "16529": 0,
        "16530": 0,
        "16531": 0,
        "16532": 0,
        "16533": 0,
        "16534": 0,
        "16535": 0,
        "16536": 0,
        "16537": 0,
        "16538": 0,
        "16539": 0,
        "16540": 0,
        "16541": 0,
        "16542": 0,
        "16543": 0,
        "16544": 0,
        "16545": 0,
        "16546": 0,
        "16547": 0,
        "16548": 0,
        "16549": 0,
        "16550": 0,
        "16551": 0,
        "16552": 64,
        "16553": 0,
        "16554": 0,
        "16555": 0,
        "16556": 0,
        "16557": 0,
        "16558": 0,
        "16559": 0,
        "16560": 3,
        "16561": 0,
        "16562": 0,
        "16563": 0,
        "16564": 0,
        "16565": 0,
        "16566": 0,
        "16567": 0,
        "16568": 4,
        "16569": 0,
        "16570": 0,
        "16571": 0,
        "16572": 0,
        "16573": 0,
        "16574": 0,
        "16575": 0,
        "16576": 4,
        "16577": 0,
        "16578": 0,
        "16579": 0,
        "16580": 0,
        "16581": 0,
        "16582": 0,
        "16583": 0,
        "16584": 0,
        "16585": 0,
        "16586": 0,
        "16587": 0,
        "16588": 1,
        "16589": 0,
        "16590": 0,
        "16591": 0,
        "16592": 0,
        "16593": 0,
        "16594": 0,
        "16595": 0,
        "16596": 16,
        "16597": 0,
        "16598": 0,
        "16599": 0,
        "16600": 0,
        "16601": 0,
        "16602": 0,
        "16603": 0
      }
    }
  ],
  "numDeployments": 1,
  "solcInputHash": "0c5385efa46cb58cf4f25a483a2e8f2f",
  "bytecode": "0x6101606040526200001760006200026660201b60201c565b6004553480156200002757600080fd5b50604051620046ed380380620046ed83398181016040528101906200004d919062000b83565b6040518060400160405280600881526020017f46616b65205553440000000000000000000000000000000000000000000000008152506040518060400160405280600481526020017f6655534400000000000000000000000000000000000000000000000000000000815250338383836040518060400160405280601181526020017f4668656e6978205065726d697373696f6e0000000000000000000000000000008152506040518060400160405280600381526020017f312e3000000000000000000000000000000000000000000000000000000000008152506200013f6000836200028260201b90919060201c565b61012081815250506200015d6001826200028260201b90919060201c565b6101408181525050818051906020012060e08181525050808051906020012061010081815250504660a081815250506200019c620002da60201b60201c565b608081815250503073ffffffffffffffffffffffffffffffffffffffff1660c08173ffffffffffffffffffffffffffffffffffffffff168152505050508160059081620001ea919062000e1f565b508060069081620001fc919062000e1f565b505050600062000212826200033760201b60201c565b9050620002486200023c8262000230617fff6200026660201b60201c565b6200035560201b60201c565b620003f860201b60201c565b6200025a8382620004cb60201b60201c565b50505050505062001260565b60006200027b8260026200057160201b60201c565b9050919050565b6000602083511015620002a857620002a0836200062860201b60201c565b9050620002d4565b82620002ba836200069560201b60201c565b6000019081620002cb919062000e1f565b5060ff60001b90505b92915050565b60007f8b73c3c69bb8fe3d512ecc4cf759cc79239f7b179b0ffacaa9a75d522b39400f60e0516101005146306040516020016200031c95949392919062000f77565b60405160208183030381529060405280519060200120905090565b60006200034e82600001516200069f60201b60201c565b9050919050565b60006200036883620006bb60201b60201c565b62000382576200037f60006200026660201b60201c565b92505b6200039382620006bb60201b60201c565b620003ad57620003aa60006200026660201b60201c565b91505b600083905060008390506000620003ea60028484608073ffffffffffffffffffffffffffffffffffffffff1663eb274b77620006c860201b60201c565b905080935050505092915050565b62000409816200077960201b60201c565b62000423576200042060006200078660201b60201c565b90505b600081905060006200043b82620007a260201b60201c565b9050608073ffffffffffffffffffffffffffffffffffffffff16637d23f1db600d836040518363ffffffff1660e01b81526004016200047c9291906200104f565b600060405180830381865afa1580156200049a573d6000803e3d6000fd5b505050506040513d6000823e3d601f19601f82011682018060405250810190620004c5919062001083565b50505050565b62000516600260008473ffffffffffffffffffffffffffffffffffffffff1673ffffffffffffffffffffffffffffffffffffffff168152602001908152602001600020548262000803565b600260008473ffffffffffffffffffffffffffffffffffffffff1673ffffffffffffffffffffffffffffffffffffffff16815260200190815260200160002081905550620005676004548262000803565b6004819055505050565b60006060608073ffffffffffffffffffffffffffffffffffffffff166319e1c5c4620005a386620007a260201b60201c565b856040518363ffffffff1660e01b8152600401620005c3929190620010d4565b600060405180830381865afa158015620005e1573d6000803e3d6000fd5b505050506040513d6000823e3d601f19601f820116820180604052508101906200060c919062001083565b90506200061f816200081f60201b60201c565b91505092915050565b600080829050601f815111156200067857826040517f305a27a90000000000000000000000000000000000000000000000000000000081526004016200066f91906200115a565b60405180910390fd5b8051816200068690620011a5565b60001c1760001b915050919050565b6000819050919050565b6000620006b48260026200082d60201b60201c565b9050919050565b6000808214159050919050565b60006060838388620006e089620007a260201b60201c565b620006f189620007a260201b60201c565b6040518463ffffffff1660e01b8152600401620007119392919062001215565b600060405180830381865afa1580156200072f573d6000803e3d6000fd5b505050506040513d6000823e3d601f19601f820116820180604052508101906200075a919062001083565b90506200076d81620008d460201b60201c565b91505095945050505050565b6000808214159050919050565b60006200079b82600d6200057160201b60201c565b9050919050565b6060602067ffffffffffffffff811115620007c257620007c1620009ae565b5b6040519080825280601f01601f191660200182016040528015620007f55781602001600182028036833780820191505090505b509050816020820152919050565b6000620008178383620008e260201b60201c565b905092915050565b600060208201519050919050565b60006060608073ffffffffffffffffffffffffffffffffffffffff16635fa55ca784866040518363ffffffff1660e01b81526004016200086f9291906200104f565b600060405180830381865afa1580156200088d573d6000803e3d6000fd5b505050506040513d6000823e3d601f19601f82011682018060405250810190620008b8919062001083565b9050620008cb816200081f60201b60201c565b91505092915050565b600060208201519050919050565b6000620008f583620006bb60201b60201c565b6200090f576200090c60006200026660201b60201c565b92505b6200092082620006bb60201b60201c565b6200093a576200093760006200026660201b60201c565b91505b6000839050600083905060006200097660028484608073ffffffffffffffffffffffffffffffffffffffff16622df619620006c860201b60201c565b905080935050505092915050565b6000604051905090565b600080fd5b600080fd5b600080fd5b6000601f19601f8301169050919050565b7f4e487b7100000000000000000000000000000000000000000000000000000000600052604160045260246000fd5b620009e8826200099d565b810181811067ffffffffffffffff8211171562000a0a5762000a09620009ae565b5b80604052505050565b600062000a1f62000984565b905062000a2d8282620009dd565b919050565b600080fd5b600080fd5b600080fd5b600067ffffffffffffffff82111562000a5f5762000a5e620009ae565b5b62000a6a826200099d565b9050602081019050919050565b60005b8381101562000a9757808201518184015260208101905062000a7a565b60008484015250505050565b600062000aba62000ab48462000a41565b62000a13565b90508281526020810184848401111562000ad95762000ad862000a3c565b5b62000ae684828562000a77565b509392505050565b600082601f83011262000b065762000b0562000a37565b5b815162000b1884826020860162000aa3565b91505092915050565b60006020828403121562000b3a5762000b3962000998565b5b62000b46602062000a13565b9050600082015167ffffffffffffffff81111562000b695762000b6862000a32565b5b62000b778482850162000aee565b60008301525092915050565b60006020828403121562000b9c5762000b9b6200098e565b5b600082015167ffffffffffffffff81111562000bbd5762000bbc62000993565b5b62000bcb8482850162000b21565b91505092915050565b600081519050919050565b7f4e487b7100000000000000000000000000000000000000000000000000000000600052602260045260246000fd5b6000600282049050600182168062000c2757607f821691505b60208210810362000c3d5762000c3c62000bdf565b5b50919050565b60008190508160005260206000209050919050565b60006020601f8301049050919050565b600082821b905092915050565b60006008830262000ca77fffffffffffffffffffffffffffffffffffffffffffffffffffffffffffffffff8262000c68565b62000cb3868362000c68565b95508019841693508086168417925050509392505050565b6000819050919050565b6000819050919050565b600062000d0062000cfa62000cf48462000ccb565b62000cd5565b62000ccb565b9050919050565b6000819050919050565b62000d1c8362000cdf565b62000d3462000d2b8262000d07565b84845462000c75565b825550505050565b600090565b62000d4b62000d3c565b62000d5881848462000d11565b505050565b5b8181101562000d805762000d7460008262000d41565b60018101905062000d5e565b5050565b601f82111562000dcf5762000d998162000c43565b62000da48462000c58565b8101602085101562000db4578190505b62000dcc62000dc38562000c58565b83018262000d5d565b50505b505050565b600082821c905092915050565b600062000df46000198460080262000dd4565b1980831691505092915050565b600062000e0f838362000de1565b9150826002028217905092915050565b62000e2a8262000bd4565b67ffffffffffffffff81111562000e465762000e45620009ae565b5b62000e52825462000c0e565b62000e5f82828562000d84565b600060209050601f83116001811462000e97576000841562000e82578287015190505b62000e8e858262000e01565b86555062000efe565b601f19841662000ea78662000c43565b60005b8281101562000ed15784890151825560018201915060208501945060208101905062000eaa565b8683101562000ef1578489015162000eed601f89168262000de1565b8355505b6001600288020188555050505b505050505050565b6000819050919050565b62000f1b8162000f06565b82525050565b62000f2c8162000ccb565b82525050565b600073ffffffffffffffffffffffffffffffffffffffff82169050919050565b600062000f5f8262000f32565b9050919050565b62000f718162000f52565b82525050565b600060a08201905062000f8e600083018862000f10565b62000f9d602083018762000f10565b62000fac604083018662000f10565b62000fbb606083018562000f21565b62000fca608083018462000f66565b9695505050505050565b600060ff82169050919050565b62000fec8162000fd4565b82525050565b600081519050919050565b600082825260208201905092915050565b60006200101b8262000ff2565b62001027818562000ffd565b93506200103981856020860162000a77565b62001044816200099d565b840191505092915050565b600060408201905062001066600083018562000fe1565b81810360208301526200107a81846200100e565b90509392505050565b6000602082840312156200109c576200109b6200098e565b5b600082015167ffffffffffffffff811115620010bd57620010bc62000993565b5b620010cb8482850162000aee565b91505092915050565b60006040820190508181036000830152620010f081856200100e565b905062001101602083018462000fe1565b9392505050565b600082825260208201905092915050565b6000620011268262000bd4565b62001132818562001108565b93506200114481856020860162000a77565b6200114f816200099d565b840191505092915050565b6000602082019050818103600083015262001176818462001119565b905092915050565b6000819050602082019050919050565b60006200119c825162000f06565b80915050919050565b6000620011b28262000ff2565b82620011be846200117e565b9050620011cb816200118e565b925060208210156200120e57620012097fffffffffffffffffffffffffffffffffffffffffffffffffffffffffffffffff8360200360080262000c68565b831692505b5050919050565b60006060820190506200122c600083018662000fe1565b81810360208301526200124081856200100e565b905081810360408301526200125681846200100e565b9050949350505050565b60805160a05160c05160e051610100516101205161014051613432620012bb60003960006113ca0152600061138f015260006120d3015260006120b2015260006117f3015260006118490152600061187201526134326000f3fe608060405234801561001057600080fd5b50600436106101425760003560e01c80637ecebe00116100b8578063a9059cbb1161007c578063a9059cbb146103b9578063af575a00146103e9578063c4224c1914610419578063d505accf14610449578063d918156e14610465578063dd62ed3e1461049557610142565b80637ecebe00146102fb57806384b0196e1461032b5780638624a3491461034f57806395d89b411461037f5780639f284be71461039d57610142565b80633644e5151161010a5780633644e5151461020157806339c217f71461021f5780635356c4291461024f578063602772041461027f5780636e0505e1146102af57806370a08231146102cb57610142565b806306fdde0314610147578063095ea7b31461016557806318160ddd1461019557806323b872dd146101b3578063313ce567146101e3575b600080fd5b61014f6104c5565b60405161015c9190612494565b60405180910390f35b61017f600480360381019061017a919061255e565b610557565b60405161018c91906125b9565b60405180910390f35b61019d6105ab565b6040516101aa91906125e3565b60405180910390f35b6101cd60048036038101906101c891906125fe565b6105bd565b6040516101da91906125b9565b60405180910390f35b6101eb610692565b6040516101f8919061266d565b60405180910390f35b610209610697565b60405161021691906126a1565b60405180910390f35b610239600480360381019061023491906126e0565b610729565b6040516102469190612777565b60405180910390f35b610269600480360381019061026491906127b1565b61074e565b6040516102769190612494565b60405180910390f35b610299600480360381019061029491906129e4565b61084c565b6040516102a69190612494565b60405180910390f35b6102c960048036038101906102c49190612a7c565b610982565b005b6102e560048036038101906102e09190612aa9565b610ab9565b6040516102f291906125e3565b60405180910390f35b61031560048036038101906103109190612aa9565b610ad4565b60405161032291906125e3565b60405180910390f35b610333610aef565b6040516103469796959493929190612bde565b60405180910390f35b61036960048036038101906103649190612c62565b610b99565b6040516103769190612777565b60405180910390f35b610387610bd7565b6040516103949190612494565b60405180910390f35b6103b760048036038101906103b29190612a7c565b610c69565b005b6103d360048036038101906103ce919061255e565b610d76565b6040516103e091906125b9565b60405180910390f35b61040360048036038101906103fe9190612cfd565b610e08565b6040516104109190612777565b60405180910390f35b610433600480360381019061042e9190612d50565b610e35565b6040516104409190612777565b60405180910390f35b610463600480360381019061045e9190612dbc565b610e4a565b005b61047f600480360381019061047a91906126e0565b610fee565b60405161048c91906125b9565b60405180910390f35b6104af60048036038101906104aa9190612e5e565b611016565b6040516104bc91906125e3565b60405180910390f35b6060600580546104d490612ecd565b80601f016020809104026020016040519081016040528092919081815260200182805461050090612ecd565b801561054d5780601f106105225761010080835404028352916020019161054d565b820191906000526020600020905b81548152906001019060200180831161053057829003601f168201915b5050505050905090565b600082602052637f5e9f20600c5233600052816034600c205581600052602c5160601c337f8c5be1e5ebec7d5bd14f71427d1e84f3dd0314c0f7b2291e5b200ac8c7c3b92560206000a36001905092915050565b60006805345cdf77eb68f44c54905090565b60006105ca848484611036565b8360601b33602052637f5e9f208117600c526034600c20805460018101156106085780851115610602576313be252b6000526004601cfd5b84810382555b6387a211a28317600c526020600c2080548087111561062f5763f4d678b86000526004601cfd5b8681038255876000526020600c2087815401815587602052600c5160601c8660601c7fddf252ad1be2c89b69c2b068fc378daa952ba7f163c4a11628f55a4df523b3ef602080a350505050505061068784848461103b565b600190509392505050565b600090565b6000806106a2611040565b90506000801b81036106c0576106b66104c5565b8051906020012090505b6040517f8b73c3c69bb8fe3d512ecc4cf759cc79239f7b179b0ffacaa9a75d522b39400f81528160208201527fc89efdaa54c0f20c7adf612882df0950f5a951637e0307cdcb4c672f298b8bc6604082015246606082015230608082015260a081209250505090565b6000610746836107418461073c90612f56565b611045565b610e35565b905092915050565b60608161075a90612f69565b60006107b17f6bdaeb2d29561f159c7ef98b16b27015fb2aeb87209c7ee656226d912f59927d8360000151604051602001610796929190612f7c565b6040516020818303038152906040528051906020012061105b565b905060006107c3828460200151611075565b90503373ffffffffffffffffffffffffffffffffffffffff168173ffffffffffffffffffffffffffffffffffffffff161461082a576040517f3093a27700000000000000000000000000000000000000000000000000000000815260040160405180910390fd5b61084161083733886110a1565b8660000135611128565b935050505092915050565b6060818360006108a77f6bdaeb2d29561f159c7ef98b16b27015fb2aeb87209c7ee656226d912f59927d846000015160405160200161088c929190612f7c565b6040516020818303038152906040528051906020012061105b565b905060006108b9828560200151611075565b90508273ffffffffffffffffffffffffffffffffffffffff168173ffffffffffffffffffffffffffffffffffffffff1614610920576040517f51c65eae00000000000000000000000000000000000000000000000000000000815260040160405180910390fd5b6109768660000151600260008a73ffffffffffffffffffffffffffffffffffffffff1673ffffffffffffffffffffffffffffffffffffffff1681526020019081526020016000205461115e90919063ffffffff16565b94505050505092915050565b60006109938263ffffffff16611172565b905060006109fc6109ec83600260003373ffffffffffffffffffffffffffffffffffffffff1673ffffffffffffffffffffffffffffffffffffffff1681526020019081526020016000205461118690919063ffffffff16565b836109f76000611172565b61119a565b9050610a47600260003373ffffffffffffffffffffffffffffffffffffffff1673ffffffffffffffffffffffffffffffffffffffff1681526020019081526020016000205482611218565b600260003373ffffffffffffffffffffffffffffffffffffffff1673ffffffffffffffffffffffffffffffffffffffff16815260200190815260200160002081905550610a9660045482611218565b600481905550610ab433610aa98361122c565b63ffffffff166112ef565b505050565b60006387a211a2600c52816000526020600c20549050919050565b60006338377508600c52816000526020600c20549050919050565b600060608060008060006060610b03611386565b610b0b6113c1565b46306000801b600067ffffffffffffffff811115610b2c57610b2b612812565b5b604051908082528060200260200182016040528015610b5a5781602001602082028036833780820191505090505b507f0f00000000000000000000000000000000000000000000000000000000000000959493929190965096509650965096509650965090919293949596565b600080610bae83610ba990612f56565b611045565b90506000610bbd8633846113fc565b9050610bca868683611439565b5080925050509392505050565b606060068054610be690612ecd565b80601f0160208091040260200160405190810160405280929190818152602001828054610c1290612ecd565b8015610c5f5780601f10610c3457610100808354040283529160200191610c5f565b820191906000526020600020905b815481529060010190602001808311610c4257829003601f168201915b5050505050905090565b8063ffffffff16610c7933610ab9565b1015610cb1576040517ffda7bbda00000000000000000000000000000000000000000000000000000000815260040160405180910390fd5b610cc1338263ffffffff166115c6565b6000610cd28263ffffffff16611172565b9050610d1d600260003373ffffffffffffffffffffffffffffffffffffffff1673ffffffffffffffffffffffffffffffffffffffff168152602001908152602001600020548261165d565b600260003373ffffffffffffffffffffffffffffffffffffffff1673ffffffffffffffffffffffffffffffffffffffff16815260200190815260200160002081905550610d6c6004548261165d565b6004819055505050565b6000610d83338484611036565b6387a211a2600c52336000526020600c20805480841115610dac5763f4d678b86000526004601cfd5b8381038255846000526020600c2084815401815584602052600c5160601c337fddf252ad1be2c89b69c2b068fc378daa952ba7f163c4a11628f55a4df523b3ef602080a3505050610dfe33848461103b565b6001905092915050565b6000808290506000610e1b8633846113fc565b9050610e28868683611439565b5080925050509392505050565b6000610e42338484611439565b905092915050565b6000610e54611040565b90506000801b8103610e7257610e686104c5565b8051906020012090505b84421115610e8857631a15a3cc6000526004601cfd5b6040518860601b60601c98508760601b60601c975065383775081901600e52886000526020600c2080547f8b73c3c69bb8fe3d512ecc4cf759cc79239f7b179b0ffacaa9a75d522b39400f83528360208401527fc89efdaa54c0f20c7adf612882df0950f5a951637e0307cdcb4c672f298b8bc6604084015246606084015230608084015260a08320602e527f6e71edae12b1b97f4d1f60370fef10105fa2faae0126114a169c64845d6126c983528a60208401528960408401528860608401528060808401528760a084015260c08320604e526042602c206000528660ff1660205285604052846060526020806080600060015afa8b3d5114610f945763ddafbaef6000526004601cfd5b80820183558a637f5e9f2060a01b17604052896034602c20558a8c7f8c5be1e5ebec7d5bd14f71427d1e84f3dd0314c0f7b2291e5b200ac8c7c3b925602060608801a3836040526000606052505050505050505050505050565b600061100c33846110078561100290612f56565b611045565b611671565b6001905092915050565b600081602052637f5e9f20600c52826000526034600c2054905092915050565b505050565b505050565b600090565b600061105482600001516117db565b9050919050565b600061106e6110686117ef565b836118a6565b9050919050565b60008060008061108586866118e7565b9250925092506110958282611943565b82935050505092915050565b6000600360008473ffffffffffffffffffffffffffffffffffffffff1673ffffffffffffffffffffffffffffffffffffffff16815260200190815260200160002060008373ffffffffffffffffffffffffffffffffffffffff1673ffffffffffffffffffffffffffffffffffffffff16815260200190815260200160002054905092915050565b606061113383611aa7565b611144576111416000611172565b92505b600083905061115560028285611ab4565b91505092915050565b606061116a8383611128565b905092915050565b600061117f826002611b6a565b9050919050565b60006111928383611c0c565b905092915050565b60006111a584611c85565b6111b6576111b36000611c92565b93505b6111bf83611aa7565b6111d0576111cd6000611172565b92505b6111d982611aa7565b6111ea576111e76000611172565b91505b60008490506000849050600084905060006112086002858585611ca6565b9050809450505050509392505050565b60006112248383611d5e565b905092915050565b600061123782611aa7565b611248576112456000611172565b91505b6000829050600061125882611dd7565b90506000608073ffffffffffffffffffffffffffffffffffffffff166373cc01546002846040518363ffffffff1660e01b8152600401611299929190612ffa565b602060405180830381865afa1580156112b6573d6000803e3d6000fd5b505050506040513d601f19601f820116820180604052508101906112da919061303f565b90506112e581611e34565b9350505050919050565b6112fb60008383611036565b6805345cdf77eb68f44c548181018181101561131f5763e5cfe9576000526004601cfd5b806805345cdf77eb68f44c556387a211a2600c52836000526020600c2083815401815583602052600c5160601c60007fddf252ad1be2c89b69c2b068fc378daa952ba7f163c4a11628f55a4df523b3ef602080a35050506113826000838361103b565b5050565b60606113bc60007f0000000000000000000000000000000000000000000000000000000000000000611e3e90919063ffffffff16565b905090565b60606113f760017f0000000000000000000000000000000000000000000000000000000000000000611e3e90919063ffffffff16565b905090565b60008061140985856110a1565b905060006114178285611eee565b905061142d86866114288585611218565b611671565b80925050509392505050565b6000806114a1611491600260008873ffffffffffffffffffffffffffffffffffffffff1673ffffffffffffffffffffffffffffffffffffffff1681526020019081526020016000205485611f6790919063ffffffff16565b8461149c6000611172565b61119a565b90506114ec600260008673ffffffffffffffffffffffffffffffffffffffff1673ffffffffffffffffffffffffffffffffffffffff168152602001908152602001600020548261165d565b600260008673ffffffffffffffffffffffffffffffffffffffff1673ffffffffffffffffffffffffffffffffffffffff16815260200190815260200160002081905550611578600260008773ffffffffffffffffffffffffffffffffffffffff1673ffffffffffffffffffffffffffffffffffffffff1681526020019081526020016000205482611218565b600260008773ffffffffffffffffffffffffffffffffffffffff1673ffffffffffffffffffffffffffffffffffffffff16815260200190815260200160002081905550809150509392505050565b6115d282600083611036565b6387a211a2600c52816000526020600c208054808311156115fb5763f4d678b86000526004601cfd5b8281038255826805345cdf77eb68f44c54036805345cdf77eb68f44c558260005260008460601b60601c7fddf252ad1be2c89b69c2b068fc378daa952ba7f163c4a11628f55a4df523b3ef60206000a350506116598260008361103b565b5050565b60006116698383611f7b565b905092915050565b600073ffffffffffffffffffffffffffffffffffffffff168373ffffffffffffffffffffffffffffffffffffffff16036116e35760006040517fe602df050000000000000000000000000000000000000000000000000000000081526004016116da919061306c565b60405180910390fd5b600073ffffffffffffffffffffffffffffffffffffffff168273ffffffffffffffffffffffffffffffffffffffff16036117555760006040517f94280d6200000000000000000000000000000000000000000000000000000000815260040161174c919061306c565b60405180910390fd5b80600360008573ffffffffffffffffffffffffffffffffffffffff1673ffffffffffffffffffffffffffffffffffffffff16815260200190815260200160002060008473ffffffffffffffffffffffffffffffffffffffff1673ffffffffffffffffffffffffffffffffffffffff16815260200190815260200160002081905550505050565b60006117e8826002611ff3565b9050919050565b60007f000000000000000000000000000000000000000000000000000000000000000073ffffffffffffffffffffffffffffffffffffffff163073ffffffffffffffffffffffffffffffffffffffff1614801561186b57507f000000000000000000000000000000000000000000000000000000000000000046145b15611898577f000000000000000000000000000000000000000000000000000000000000000090506118a3565b6118a061208d565b90505b90565b60006040517f190100000000000000000000000000000000000000000000000000000000000081528360028201528260228201526042812091505092915050565b6000806000604184510361192c5760008060006020870151925060408701519150606087015160001a905061191e88828585612123565b95509550955050505061193c565b60006002855160001b9250925092505b9250925092565b6000600381111561195757611956613087565b5b82600381111561196a57611969613087565b5b0315611aa3576001600381111561198457611983613087565b5b82600381111561199757611996613087565b5b036119ce576040517ff645eedf00000000000000000000000000000000000000000000000000000000815260040160405180910390fd5b600260038111156119e2576119e1613087565b5b8260038111156119f5576119f4613087565b5b03611a3a578060001c6040517ffce698f7000000000000000000000000000000000000000000000000000000008152600401611a3191906125e3565b60405180910390fd5b600380811115611a4d57611a4c613087565b5b826003811115611a6057611a5f613087565b5b03611aa257806040517fd78bce0c000000000000000000000000000000000000000000000000000000008152600401611a9991906126a1565b60405180910390fd5b5b5050565b6000808214159050919050565b6060608073ffffffffffffffffffffffffffffffffffffffff1663a1848ff385611add86611dd7565b85604051602001611aee91906130d7565b6040516020818303038152906040526040518463ffffffff1660e01b8152600401611b1b939291906130f2565b600060405180830381865afa158015611b38573d6000803e3d6000fd5b505050506040513d6000823e3d601f19601f82011682018060405250810190611b6191906131d8565b90509392505050565b60006060608073ffffffffffffffffffffffffffffffffffffffff166319e1c5c4611b9486611dd7565b856040518363ffffffff1660e01b8152600401611bb2929190613221565b600060405180830381865afa158015611bcf573d6000803e3d6000fd5b505050506040513d6000823e3d601f19601f82011682018060405250810190611bf891906132c1565b9050611c0381612217565b91505092915050565b6000611c1783611aa7565b611c2857611c256000611172565b92505b611c3182611aa7565b611c4257611c3f6000611172565b91505b600083905060008390506000611c7760028484608073ffffffffffffffffffffffffffffffffffffffff1663650de1cf612225565b905080935050505092915050565b6000808214159050919050565b6000611c9f82600d611b6a565b9050919050565b60006060608073ffffffffffffffffffffffffffffffffffffffff1663c2d9695287611cd188611dd7565b611cda88611dd7565b611ce388611dd7565b6040518563ffffffff1660e01b8152600401611d02949392919061330a565b600060405180830381865afa158015611d1f573d6000803e3d6000fd5b505050506040513d6000823e3d601f19601f82011682018060405250810190611d4891906132c1565b9050611d5381612217565b915050949350505050565b6000611d6983611aa7565b611d7a57611d776000611172565b92505b611d8382611aa7565b611d9457611d916000611172565b91505b600083905060008390506000611dc960028484608073ffffffffffffffffffffffffffffffffffffffff1663cc2cbeff612225565b905080935050505092915050565b6060602067ffffffffffffffff811115611df457611df3612812565b5b6040519080825280601f01601f191660200182016040528015611e265781602001600182028036833780820191505090505b509050816020820152919050565b6000819050919050565b606060ff60001b8314611e5b57611e54836122b9565b9050611ee8565b818054611e6790612ecd565b80601f0160208091040260200160405190810160405280929190818152602001828054611e9390612ecd565b8015611ee05780601f10611eb557610100808354040283529160200191611ee0565b820191906000526020600020905b815481529060010190602001808311611ec357829003601f168201915b505050505090505b92915050565b6000611ef983611aa7565b611f0a57611f076000611172565b92505b611f1382611aa7565b611f2457611f216000611172565b91505b600083905060008390506000611f5960028484608073ffffffffffffffffffffffffffffffffffffffff16635211c679612225565b905080935050505092915050565b6000611f73838361232d565b905092915050565b6000611f8683611aa7565b611f9757611f946000611172565b92505b611fa082611aa7565b611fb157611fae6000611172565b91505b600083905060008390506000611fe560028484608073ffffffffffffffffffffffffffffffffffffffff16622df619612225565b905080935050505092915050565b60006060608073ffffffffffffffffffffffffffffffffffffffff16635fa55ca784866040518363ffffffff1660e01b8152600401612033929190612ffa565b600060405180830381865afa158015612050573d6000803e3d6000fd5b505050506040513d6000823e3d601f19601f8201168201806040525081019061207991906132c1565b905061208481612217565b91505092915050565b60007f8b73c3c69bb8fe3d512ecc4cf759cc79239f7b179b0ffacaa9a75d522b39400f7f00000000000000000000000000000000000000000000000000000000000000007f00000000000000000000000000000000000000000000000000000000000000004630604051602001612108959493929190613364565b60405160208183030381529060405280519060200120905090565b60008060007f7fffffffffffffffffffffffffffffff5d576e7357a4501ddfe92f46681b20a08460001c111561216357600060038592509250925061220d565b60006001888888886040516000815260200160405260405161218894939291906133b7565b6020604051602081039080840390855afa1580156121aa573d6000803e3d6000fd5b505050602060405103519050600073ffffffffffffffffffffffffffffffffffffffff168173ffffffffffffffffffffffffffffffffffffffff16036121fe57600060016000801b9350935093505061220d565b8060008060001b935093509350505b9450945094915050565b600060208201519050919050565b6000606083838861223589611dd7565b61223e89611dd7565b6040518463ffffffff1660e01b815260040161225c939291906130f2565b600060405180830381865afa158015612279573d6000803e3d6000fd5b505050506040513d6000823e3d601f19601f820116820180604052508101906122a291906132c1565b90506122ad816123a6565b91505095945050505050565b606060006122c6836123b4565b90506000602067ffffffffffffffff8111156122e5576122e4612812565b5b6040519080825280601f01601f1916602001820160405280156123175781602001600182028036833780820191505090505b5090508181528360208201528092505050919050565b600061233883611aa7565b612349576123466000611172565b92505b61235282611aa7565b612363576123606000611172565b91505b60008390506000839050600061239860028484608073ffffffffffffffffffffffffffffffffffffffff1663eb274b77612225565b905080935050505092915050565b600060208201519050919050565b60008060ff8360001c169050601f8111156123fb576040517fb3512b0c00000000000000000000000000000000000000000000000000000000815260040160405180910390fd5b80915050919050565b600081519050919050565b600082825260208201905092915050565b60005b8381101561243e578082015181840152602081019050612423565b60008484015250505050565b6000601f19601f8301169050919050565b600061246682612404565b612470818561240f565b9350612480818560208601612420565b6124898161244a565b840191505092915050565b600060208201905081810360008301526124ae818461245b565b905092915050565b6000604051905090565b600080fd5b600080fd5b600073ffffffffffffffffffffffffffffffffffffffff82169050919050565b60006124f5826124ca565b9050919050565b612505816124ea565b811461251057600080fd5b50565b600081359050612522816124fc565b92915050565b6000819050919050565b61253b81612528565b811461254657600080fd5b50565b60008135905061255881612532565b92915050565b60008060408385031215612575576125746124c0565b5b600061258385828601612513565b925050602061259485828601612549565b9150509250929050565b60008115159050919050565b6125b38161259e565b82525050565b60006020820190506125ce60008301846125aa565b92915050565b6125dd81612528565b82525050565b60006020820190506125f860008301846125d4565b92915050565b600080600060608486031215612617576126166124c0565b5b600061262586828701612513565b935050602061263686828701612513565b925050604061264786828701612549565b9150509250925092565b600060ff82169050919050565b61266781612651565b82525050565b6000602082019050612682600083018461265e565b92915050565b6000819050919050565b61269b81612688565b82525050565b60006020820190506126b66000830184612692565b92915050565b600080fd5b6000602082840312156126d7576126d66126bc565b5b81905092915050565b600080604083850312156126f7576126f66124c0565b5b600061270585828601612513565b925050602083013567ffffffffffffffff811115612726576127256124c5565b5b612732858286016126c1565b9150509250929050565b6000819050919050565b600061276161275c61275784612528565b61273c565b612528565b9050919050565b61277181612746565b82525050565b600060208201905061278c6000830184612768565b92915050565b6000604082840312156127a8576127a76126bc565b5b81905092915050565b600080604083850312156127c8576127c76124c0565b5b60006127d685828601612513565b925050602083013567ffffffffffffffff8111156127f7576127f66124c5565b5b61280385828601612792565b9150509250929050565b600080fd5b7f4e487b7100000000000000000000000000000000000000000000000000000000600052604160045260246000fd5b61284a8261244a565b810181811067ffffffffffffffff8211171561286957612868612812565b5b80604052505050565b600061287c6124b6565b90506128888282612841565b919050565b600080fd5b61289b81612688565b81146128a657600080fd5b50565b6000813590506128b881612892565b92915050565b600080fd5b600080fd5b600067ffffffffffffffff8211156128e3576128e2612812565b5b6128ec8261244a565b9050602081019050919050565b82818337600083830152505050565b600061291b612916846128c8565b612872565b905082815260208101848484011115612937576129366128c3565b5b6129428482856128f9565b509392505050565b600082601f83011261295f5761295e6128be565b5b813561296f848260208601612908565b91505092915050565b60006040828403121561298e5761298d61280d565b5b6129986040612872565b905060006129a8848285016128a9565b600083015250602082013567ffffffffffffffff8111156129cc576129cb61288d565b5b6129d88482850161294a565b60208301525092915050565b600080604083850312156129fb576129fa6124c0565b5b6000612a0985828601612513565b925050602083013567ffffffffffffffff811115612a2a57612a296124c5565b5b612a3685828601612978565b9150509250929050565b600063ffffffff82169050919050565b612a5981612a40565b8114612a6457600080fd5b50565b600081359050612a7681612a50565b92915050565b600060208284031215612a9257612a916124c0565b5b6000612aa084828501612a67565b91505092915050565b600060208284031215612abf57612abe6124c0565b5b6000612acd84828501612513565b91505092915050565b60007fff0000000000000000000000000000000000000000000000000000000000000082169050919050565b612b0b81612ad6565b82525050565b612b1a816124ea565b82525050565b600081519050919050565b600082825260208201905092915050565b6000819050602082019050919050565b612b5581612528565b82525050565b6000612b678383612b4c565b60208301905092915050565b6000602082019050919050565b6000612b8b82612b20565b612b958185612b2b565b9350612ba083612b3c565b8060005b83811015612bd1578151612bb88882612b5b565b9750612bc383612b73565b925050600181019050612ba4565b5085935050505092915050565b600060e082019050612bf3600083018a612b02565b8181036020830152612c05818961245b565b90508181036040830152612c19818861245b565b9050612c2860608301876125d4565b612c356080830186612b11565b612c4260a0830185612692565b81810360c0830152612c548184612b80565b905098975050505050505050565b600080600060608486031215612c7b57612c7a6124c0565b5b6000612c8986828701612513565b9350506020612c9a86828701612513565b925050604084013567ffffffffffffffff811115612cbb57612cba6124c5565b5b612cc7868287016126c1565b9150509250925092565b612cda81612528565b8114612ce557600080fd5b50565b600081359050612cf781612cd1565b92915050565b600080600060608486031215612d1657612d156124c0565b5b6000612d2486828701612513565b9350506020612d3586828701612513565b9250506040612d4686828701612ce8565b9150509250925092565b60008060408385031215612d6757612d666124c0565b5b6000612d7585828601612513565b9250506020612d8685828601612ce8565b9150509250929050565b612d9981612651565b8114612da457600080fd5b50565b600081359050612db681612d90565b92915050565b600080600080600080600060e0888a031215612ddb57612dda6124c0565b5b6000612de98a828b01612513565b9750506020612dfa8a828b01612513565b9650506040612e0b8a828b01612549565b9550506060612e1c8a828b01612549565b9450506080612e2d8a828b01612da7565b93505060a0612e3e8a828b016128a9565b92505060c0612e4f8a828b016128a9565b91505092959891949750929550565b60008060408385031215612e7557612e746124c0565b5b6000612e8385828601612513565b9250506020612e9485828601612513565b9150509250929050565b7f4e487b7100000000000000000000000000000000000000000000000000000000600052602260045260246000fd5b60006002820490506001821680612ee557607f821691505b602082108103612ef857612ef7612e9e565b5b50919050565b600060208284031215612f1457612f1361280d565b5b612f1e6020612872565b9050600082013567ffffffffffffffff811115612f3e57612f3d61288d565b5b612f4a8482850161294a565b60008301525092915050565b6000612f623683612efe565b9050919050565b6000612f753683612978565b9050919050565b6000604082019050612f916000830185612692565b612f9e6020830184612692565b9392505050565b600081519050919050565b600082825260208201905092915050565b6000612fcc82612fa5565b612fd68185612fb0565b9350612fe6818560208601612420565b612fef8161244a565b840191505092915050565b600060408201905061300f600083018561265e565b81810360208301526130218184612fc1565b90509392505050565b60008151905061303981612532565b92915050565b600060208284031215613055576130546124c0565b5b60006130638482850161302a565b91505092915050565b60006020820190506130816000830184612b11565b92915050565b7f4e487b7100000000000000000000000000000000000000000000000000000000600052602160045260246000fd5b6000819050919050565b6130d16130cc82612688565b6130b6565b82525050565b60006130e382846130c0565b60208201915081905092915050565b6000606082019050613107600083018661265e565b81810360208301526131198185612fc1565b9050818103604083015261312d8184612fc1565b9050949350505050565b600067ffffffffffffffff82111561315257613151612812565b5b61315b8261244a565b9050602081019050919050565b600061317b61317684613137565b612872565b905082815260208101848484011115613197576131966128c3565b5b6131a2848285612420565b509392505050565b600082601f8301126131bf576131be6128be565b5b81516131cf848260208601613168565b91505092915050565b6000602082840312156131ee576131ed6124c0565b5b600082015167ffffffffffffffff81111561320c5761320b6124c5565b5b613218848285016131aa565b91505092915050565b6000604082019050818103600083015261323b8185612fc1565b905061324a602083018461265e565b9392505050565b600061326461325f846128c8565b612872565b9050828152602081018484840111156132805761327f6128c3565b5b61328b848285612420565b509392505050565b600082601f8301126132a8576132a76128be565b5b81516132b8848260208601613251565b91505092915050565b6000602082840312156132d7576132d66124c0565b5b600082015167ffffffffffffffff8111156132f5576132f46124c5565b5b61330184828501613293565b91505092915050565b600060808201905061331f600083018761265e565b81810360208301526133318186612fc1565b905081810360408301526133458185612fc1565b905081810360608301526133598184612fc1565b905095945050505050565b600060a0820190506133796000830188612692565b6133866020830187612692565b6133936040830186612692565b6133a060608301856125d4565b6133ad6080830184612b11565b9695505050505050565b60006080820190506133cc6000830187612692565b6133d9602083018661265e565b6133e66040830185612692565b6133f36060830184612692565b9594505050505056fea26469706673582212206fbeb8e1ec3f02417977449b5aeaa49948b06e45fb35839779a0eb78b912ebec64736f6c63430008180033",
  "devdoc": {
    "errors": {
      "AllowanceOverflow()": [
        {
          "details": "The allowance has overflowed."
        }
      ],
      "AllowanceUnderflow()": [
        {
          "details": "The allowance has underflowed."
        }
      ],
      "ECDSAInvalidSignature()": [
        {
          "details": "The signature derives the `address(0)`."
        }
      ],
      "ECDSAInvalidSignatureLength(uint256)": [
        {
          "details": "The signature has an invalid length."
        }
      ],
      "ECDSAInvalidSignatureS(bytes32)": [
        {
          "details": "The signature has an S value that is in the upper half order."
        }
      ],
      "InsufficientAllowance()": [
        {
          "details": "Insufficient allowance."
        }
      ],
      "InsufficientBalance()": [
        {
          "details": "Insufficient balance."
        }
      ],
      "InvalidPermit()": [
        {
          "details": "The permit is invalid."
        }
      ],
      "PermitExpired()": [
        {
          "details": "The permit has expired."
        }
      ],
      "TotalSupplyOverflow()": [
        {
          "details": "The total supply has overflowed."
        }
      ]
    },
    "events": {
      "Approval(address,address,uint256)": {
        "details": "Emitted when `amount` tokens is approved by `owner` to be used by `spender`."
      },
      "ApprovalEncrypted(address,address)": {
        "details": "Emitted when the allowance of a `spender` for an `owner` is set by a call to {approveEncrypted}. `value` is the new allowance."
      },
      "EIP712DomainChanged()": {
        "details": "MAY be emitted to signal that the domain could have changed."
      },
      "Transfer(address,address,uint256)": {
        "details": "Emitted when `amount` tokens is transferred from `from` to `to`."
      },
      "TransferEncrypted(address,address)": {
        "details": "Emitted when `value` tokens are moved from one account (`from`) to another (`to`). Note that `value` may be zero."
      }
    },
    "kind": "dev",
    "methods": {
      "DOMAIN_SEPARATOR()": {
        "details": "Returns the EIP-712 domain separator for the EIP-2612 permit."
      },
      "allowance(address,address)": {
        "details": "Returns the amount of tokens that `spender` can spend on behalf of `owner`."
      },
      "allowanceEncrypted(address,(bytes32,bytes))": {
        "details": "Returns the remaining number of tokens that `spender` will be allowed to spend on behalf of `owner` through {transferFrom}. This is zero by default. This value changes when {approve} or {transferFrom} are called."
      },
      "approve(address,uint256)": {
        "details": "Sets `amount` as the allowance of `spender` over the caller's tokens. Emits a {Approval} event."
      },
      "approveEncrypted(address,(bytes))": {
        "details": "Sets a `value` amount of tokens as the allowance of `spender` over the caller's tokens. Returns a boolean value indicating whether the operation succeeded. IMPORTANT: Beware that changing an allowance with this method brings the risk that someone may use both the old and the new allowance by unfortunate transaction ordering. One possible solution to mitigate this race condition is to first reduce the spender's allowance to 0 and set the desired value afterwards: https://github.com/ethereum/EIPs/issues/20#issuecomment-263524729 Emits an {ApprovalEncrypted} event."
      },
      "balanceOf(address)": {
        "details": "Returns the amount of tokens owned by `owner`."
      },
      "balanceOfEncrypted(address,(bytes32,bytes))": {
        "details": "Returns the value of tokens owned by `account`, sealed and encrypted for the caller."
      },
      "decimals()": {
        "details": "Returns the decimals places of the token."
      },
      "eip712Domain()": {
        "details": "See {IERC-5267}."
      },
      "name()": {
        "details": "Returns the name of the token."
      },
      "nonces(address)": {
        "details": "Returns the current nonce for `owner`. This value is used to compute the signature for EIP-2612 permit."
      },
      "permit(address,address,uint256,uint256,uint8,bytes32,bytes32)": {
        "details": "Sets `value` as the allowance of `spender` over the tokens of `owner`, authorized by a signed approval by `owner`. Emits a {Approval} event."
      },
      "symbol()": {
        "details": "Returns the symbol of the token."
      },
      "totalSupply()": {
        "details": "Returns the amount of tokens in existence."
      },
      "transfer(address,uint256)": {
        "details": "Transfer `amount` tokens from the caller to `to`. Requirements: - `from` must at least have `amount`. Emits a {Transfer} event."
      },
      "transferFrom(address,address,uint256)": {
        "details": "Transfers `amount` tokens from `from` to `to`. Note: Does not update the allowance if it is the maximum uint256 value. Requirements: - `from` must at least have `amount`. - The caller must have at least `amount` of allowance to transfer the tokens of `from`. Emits a {Transfer} event."
      },
      "transferFromEncrypted(address,address,(bytes))": {
        "details": "Moves a `value` amount of tokens from `from` to `to` using the allowance mechanism. `value` is then deducted from the caller's allowance. Returns a boolean value indicating whether the operation succeeded. Emits a {TransferEncrypted} event."
      }
    },
    "version": 1
  },
  "userdoc": {
    "errors": {
      "SignerNotMessageSender()": [
        {
          "notice": "Emitted when the signer is not the message sender"
        }
      ],
      "SignerNotOwner()": [
        {
          "notice": "Emitted when the signer is not the specified owner"
        }
      ]
    },
    "kind": "user",
    "methods": {},
    "version": 1
  },
  "storageLayout": {
    "storage": [
      {
        "astId": 16568,
        "contract": "contracts/FakeUSD.sol:FakeUSD",
        "label": "_nameFallback",
        "offset": 0,
        "slot": "0",
        "type": "t_string_storage"
      },
      {
        "astId": 16570,
        "contract": "contracts/FakeUSD.sol:FakeUSD",
        "label": "_versionFallback",
        "offset": 0,
        "slot": "1",
        "type": "t_string_storage"
      },
      {
        "astId": 20505,
        "contract": "contracts/FakeUSD.sol:FakeUSD",
        "label": "_encBalances",
        "offset": 0,
        "slot": "2",
        "type": "t_mapping(t_address,t_userDefinedValueType(euint32)12)"
      },
      {
        "astId": 20512,
        "contract": "contracts/FakeUSD.sol:FakeUSD",
        "label": "_allowed",
        "offset": 0,
        "slot": "3",
        "type": "t_mapping(t_address,t_mapping(t_address,t_userDefinedValueType(euint32)12))"
      },
      {
        "astId": 20519,
        "contract": "contracts/FakeUSD.sol:FakeUSD",
        "label": "totalEncryptedSupply",
        "offset": 0,
        "slot": "4",
        "type": "t_userDefinedValueType(euint32)12"
      },
      {
        "astId": 20521,
        "contract": "contracts/FakeUSD.sol:FakeUSD",
        "label": "_name",
        "offset": 0,
        "slot": "5",
        "type": "t_string_storage"
      },
      {
        "astId": 20523,
        "contract": "contracts/FakeUSD.sol:FakeUSD",
        "label": "_symbol",
        "offset": 0,
        "slot": "6",
        "type": "t_string_storage"
      }
    ],
    "types": {
      "t_address": {
        "encoding": "inplace",
        "label": "address",
        "numberOfBytes": "20"
      },
      "t_mapping(t_address,t_mapping(t_address,t_userDefinedValueType(euint32)12))": {
        "encoding": "mapping",
        "key": "t_address",
        "label": "mapping(address => mapping(address => euint32))",
        "numberOfBytes": "32",
        "value": "t_mapping(t_address,t_userDefinedValueType(euint32)12)"
      },
      "t_mapping(t_address,t_userDefinedValueType(euint32)12)": {
        "encoding": "mapping",
        "key": "t_address",
        "label": "mapping(address => euint32)",
        "numberOfBytes": "32",
        "value": "t_userDefinedValueType(euint32)12"
      },
      "t_string_storage": {
        "encoding": "bytes",
        "label": "string",
        "numberOfBytes": "32"
      },
      "t_userDefinedValueType(euint32)12": {
        "encoding": "inplace",
        "label": "euint32",
        "numberOfBytes": "32"
      }
    }
  }
}