{
  "address": "0xB170fC5BAC4a87A63fC84653Ee7e0db65CC62f96",
  "abi": [
    {
      "inputs": [
        {
          "components": [
            {
              "internalType": "bytes",
              "name": "data",
              "type": "bytes"
            }
          ],
          "internalType": "struct inEuint32",
          "name": "_initialSupply",
          "type": "tuple"
        }
      ],
      "stateMutability": "nonpayable",
      "type": "constructor"
    },
    {
      "inputs": [],
      "name": "AllowanceOverflow",
      "type": "error"
    },
    {
      "inputs": [],
      "name": "AllowanceUnderflow",
      "type": "error"
    },
    {
      "inputs": [],
      "name": "ECDSAInvalidSignature",
      "type": "error"
    },
    {
      "inputs": [
        {
          "internalType": "uint256",
          "name": "length",
          "type": "uint256"
        }
      ],
      "name": "ECDSAInvalidSignatureLength",
      "type": "error"
    },
    {
      "inputs": [
        {
          "internalType": "bytes32",
          "name": "s",
          "type": "bytes32"
        }
      ],
      "name": "ECDSAInvalidSignatureS",
      "type": "error"
    },
    {
      "inputs": [
        {
          "internalType": "address",
          "name": "",
          "type": "address"
        }
      ],
      "name": "ERC20InvalidApprover",
      "type": "error"
    },
    {
      "inputs": [
        {
          "internalType": "address",
          "name": "",
          "type": "address"
        }
      ],
      "name": "ERC20InvalidSpender",
      "type": "error"
    },
    {
      "inputs": [],
      "name": "ErrorInsufficientFunds",
      "type": "error"
    },
    {
      "inputs": [],
      "name": "InsufficientAllowance",
      "type": "error"
    },
    {
      "inputs": [],
      "name": "InsufficientBalance",
      "type": "error"
    },
    {
      "inputs": [],
      "name": "InvalidPermit",
      "type": "error"
    },
    {
      "inputs": [],
      "name": "InvalidShortString",
      "type": "error"
    },
    {
      "inputs": [],
      "name": "PermitExpired",
      "type": "error"
    },
    {
      "inputs": [],
      "name": "SignerNotMessageSender",
      "type": "error"
    },
    {
      "inputs": [],
      "name": "SignerNotOwner",
      "type": "error"
    },
    {
      "inputs": [
        {
          "internalType": "string",
          "name": "str",
          "type": "string"
        }
      ],
      "name": "StringTooLong",
      "type": "error"
    },
    {
      "inputs": [],
      "name": "TotalSupplyOverflow",
      "type": "error"
    },
    {
      "anonymous": false,
      "inputs": [
        {
          "indexed": true,
          "internalType": "address",
          "name": "owner",
          "type": "address"
        },
        {
          "indexed": true,
          "internalType": "address",
          "name": "spender",
          "type": "address"
        },
        {
          "indexed": false,
          "internalType": "uint256",
          "name": "amount",
          "type": "uint256"
        }
      ],
      "name": "Approval",
      "type": "event"
    },
    {
      "anonymous": false,
      "inputs": [
        {
          "indexed": true,
          "internalType": "address",
          "name": "owner",
          "type": "address"
        },
        {
          "indexed": true,
          "internalType": "address",
          "name": "spender",
          "type": "address"
        }
      ],
      "name": "ApprovalEncrypted",
      "type": "event"
    },
    {
      "anonymous": false,
      "inputs": [],
      "name": "EIP712DomainChanged",
      "type": "event"
    },
    {
      "anonymous": false,
      "inputs": [
        {
          "indexed": true,
          "internalType": "address",
          "name": "from",
          "type": "address"
        },
        {
          "indexed": true,
          "internalType": "address",
          "name": "to",
          "type": "address"
        },
        {
          "indexed": false,
          "internalType": "uint256",
          "name": "amount",
          "type": "uint256"
        }
      ],
      "name": "Transfer",
      "type": "event"
    },
    {
      "anonymous": false,
      "inputs": [
        {
          "indexed": true,
          "internalType": "address",
          "name": "from",
          "type": "address"
        },
        {
          "indexed": true,
          "internalType": "address",
          "name": "to",
          "type": "address"
        }
      ],
      "name": "TransferEncrypted",
      "type": "event"
    },
    {
      "inputs": [],
      "name": "DOMAIN_SEPARATOR",
      "outputs": [
        {
          "internalType": "bytes32",
          "name": "result",
          "type": "bytes32"
        }
      ],
      "stateMutability": "view",
      "type": "function"
    },
    {
      "inputs": [
        {
          "internalType": "address",
          "name": "owner",
          "type": "address"
        },
        {
          "internalType": "address",
          "name": "spender",
          "type": "address"
        }
      ],
      "name": "allowance",
      "outputs": [
        {
          "internalType": "uint256",
          "name": "result",
          "type": "uint256"
        }
      ],
      "stateMutability": "view",
      "type": "function"
    },
    {
      "inputs": [
        {
          "internalType": "address",
          "name": "spender",
          "type": "address"
        },
        {
          "components": [
            {
              "internalType": "bytes32",
              "name": "publicKey",
              "type": "bytes32"
            },
            {
              "internalType": "bytes",
              "name": "signature",
              "type": "bytes"
            }
          ],
          "internalType": "struct Permission",
          "name": "permission",
          "type": "tuple"
        }
      ],
      "name": "allowanceEncrypted",
      "outputs": [
        {
          "internalType": "string",
          "name": "",
          "type": "string"
        }
      ],
      "stateMutability": "view",
      "type": "function"
    },
    {
      "inputs": [
        {
          "internalType": "address",
          "name": "spender",
          "type": "address"
        },
        {
          "internalType": "uint256",
          "name": "amount",
          "type": "uint256"
        }
      ],
      "name": "approve",
      "outputs": [
        {
          "internalType": "bool",
          "name": "",
          "type": "bool"
        }
      ],
      "stateMutability": "nonpayable",
      "type": "function"
    },
    {
      "inputs": [
        {
          "internalType": "address",
          "name": "spender",
          "type": "address"
        },
        {
          "components": [
            {
              "internalType": "bytes",
              "name": "data",
              "type": "bytes"
            }
          ],
          "internalType": "struct inEuint32",
          "name": "value",
          "type": "tuple"
        }
      ],
      "name": "approveEncrypted",
      "outputs": [
        {
          "internalType": "bool",
          "name": "",
          "type": "bool"
        }
      ],
      "stateMutability": "nonpayable",
      "type": "function"
    },
    {
      "inputs": [
        {
          "internalType": "address",
          "name": "owner",
          "type": "address"
        }
      ],
      "name": "balanceOf",
      "outputs": [
        {
          "internalType": "uint256",
          "name": "result",
          "type": "uint256"
        }
      ],
      "stateMutability": "view",
      "type": "function"
    },
    {
      "inputs": [
        {
          "internalType": "address",
          "name": "account",
          "type": "address"
        },
        {
          "components": [
            {
              "internalType": "bytes32",
              "name": "publicKey",
              "type": "bytes32"
            },
            {
              "internalType": "bytes",
              "name": "signature",
              "type": "bytes"
            }
          ],
          "internalType": "struct Permission",
          "name": "auth",
          "type": "tuple"
        }
      ],
      "name": "balanceOfEncrypted",
      "outputs": [
        {
          "internalType": "string",
          "name": "",
          "type": "string"
        }
      ],
      "stateMutability": "view",
      "type": "function"
    },
    {
      "inputs": [],
      "name": "decimals",
      "outputs": [
        {
          "internalType": "uint8",
          "name": "",
          "type": "uint8"
        }
      ],
      "stateMutability": "pure",
      "type": "function"
    },
    {
      "inputs": [],
      "name": "eip712Domain",
      "outputs": [
        {
          "internalType": "bytes1",
          "name": "fields",
          "type": "bytes1"
        },
        {
          "internalType": "string",
          "name": "name",
          "type": "string"
        },
        {
          "internalType": "string",
          "name": "version",
          "type": "string"
        },
        {
          "internalType": "uint256",
          "name": "chainId",
          "type": "uint256"
        },
        {
          "internalType": "address",
          "name": "verifyingContract",
          "type": "address"
        },
        {
          "internalType": "bytes32",
          "name": "salt",
          "type": "bytes32"
        },
        {
          "internalType": "uint256[]",
          "name": "extensions",
          "type": "uint256[]"
        }
      ],
      "stateMutability": "view",
      "type": "function"
    },
    {
      "inputs": [],
      "name": "name",
      "outputs": [
        {
          "internalType": "string",
          "name": "",
          "type": "string"
        }
      ],
      "stateMutability": "view",
      "type": "function"
    },
    {
      "inputs": [
        {
          "internalType": "address",
          "name": "owner",
          "type": "address"
        }
      ],
      "name": "nonces",
      "outputs": [
        {
          "internalType": "uint256",
          "name": "result",
          "type": "uint256"
        }
      ],
      "stateMutability": "view",
      "type": "function"
    },
    {
      "inputs": [
        {
          "internalType": "address",
          "name": "owner",
          "type": "address"
        },
        {
          "internalType": "address",
          "name": "spender",
          "type": "address"
        },
        {
          "internalType": "uint256",
          "name": "value",
          "type": "uint256"
        },
        {
          "internalType": "uint256",
          "name": "deadline",
          "type": "uint256"
        },
        {
          "internalType": "uint8",
          "name": "v",
          "type": "uint8"
        },
        {
          "internalType": "bytes32",
          "name": "r",
          "type": "bytes32"
        },
        {
          "internalType": "bytes32",
          "name": "s",
          "type": "bytes32"
        }
      ],
      "name": "permit",
      "outputs": [],
      "stateMutability": "nonpayable",
      "type": "function"
    },
    {
      "inputs": [],
      "name": "symbol",
      "outputs": [
        {
          "internalType": "string",
          "name": "",
          "type": "string"
        }
      ],
      "stateMutability": "view",
      "type": "function"
    },
    {
      "inputs": [],
      "name": "totalSupply",
      "outputs": [
        {
          "internalType": "uint256",
          "name": "result",
          "type": "uint256"
        }
      ],
      "stateMutability": "view",
      "type": "function"
    },
    {
      "inputs": [
        {
          "internalType": "address",
          "name": "to",
          "type": "address"
        },
        {
          "internalType": "uint256",
          "name": "amount",
          "type": "uint256"
        }
      ],
      "name": "transfer",
      "outputs": [
        {
          "internalType": "bool",
          "name": "",
          "type": "bool"
        }
      ],
      "stateMutability": "nonpayable",
      "type": "function"
    },
    {
      "inputs": [
        {
          "internalType": "address",
          "name": "to",
          "type": "address"
        },
        {
          "components": [
            {
              "internalType": "bytes",
              "name": "data",
              "type": "bytes"
            }
          ],
          "internalType": "struct inEuint32",
          "name": "encryptedAmount",
          "type": "tuple"
        }
      ],
      "name": "transferEncrypted",
      "outputs": [
        {
          "internalType": "euint32",
          "name": "",
          "type": "uint256"
        }
      ],
      "stateMutability": "nonpayable",
      "type": "function"
    },
    {
      "inputs": [
        {
          "internalType": "address",
          "name": "to",
          "type": "address"
        },
        {
          "internalType": "euint32",
          "name": "amount",
          "type": "uint256"
        }
      ],
      "name": "transferEncrypted",
      "outputs": [
        {
          "internalType": "euint32",
          "name": "",
          "type": "uint256"
        }
      ],
      "stateMutability": "nonpayable",
      "type": "function"
    },
    {
      "inputs": [
        {
          "internalType": "address",
          "name": "from",
          "type": "address"
        },
        {
          "internalType": "address",
          "name": "to",
          "type": "address"
        },
        {
          "internalType": "uint256",
          "name": "amount",
          "type": "uint256"
        }
      ],
      "name": "transferFrom",
      "outputs": [
        {
          "internalType": "bool",
          "name": "",
          "type": "bool"
        }
      ],
      "stateMutability": "nonpayable",
      "type": "function"
    },
    {
      "inputs": [
        {
          "internalType": "address",
          "name": "from",
          "type": "address"
        },
        {
          "internalType": "address",
          "name": "to",
          "type": "address"
        },
        {
          "components": [
            {
              "internalType": "bytes",
              "name": "data",
              "type": "bytes"
            }
          ],
          "internalType": "struct inEuint32",
          "name": "value",
          "type": "tuple"
        }
      ],
      "name": "transferFromEncrypted",
      "outputs": [
        {
          "internalType": "euint32",
          "name": "",
          "type": "uint256"
        }
      ],
      "stateMutability": "nonpayable",
      "type": "function"
    },
    {
      "inputs": [
        {
          "internalType": "address",
          "name": "from",
          "type": "address"
        },
        {
          "internalType": "address",
          "name": "to",
          "type": "address"
        },
        {
          "internalType": "euint32",
          "name": "value",
          "type": "uint256"
        }
      ],
      "name": "transferFromEncrypted",
      "outputs": [
        {
          "internalType": "euint32",
          "name": "",
          "type": "uint256"
        }
      ],
      "stateMutability": "nonpayable",
      "type": "function"
    },
    {
      "inputs": [
        {
          "internalType": "uint32",
          "name": "amount",
          "type": "uint32"
        }
      ],
      "name": "unwrap",
      "outputs": [],
      "stateMutability": "nonpayable",
      "type": "function"
    },
    {
      "inputs": [
        {
          "internalType": "uint32",
          "name": "amount",
          "type": "uint32"
        }
      ],
      "name": "wrap",
      "outputs": [],
      "stateMutability": "nonpayable",
      "type": "function"
    }
  ],
  "transactionHash": "0xc21829bd443df69c34bf709290b059ff44b086e14314fbbdf70853d7df31b750",
  "args": [
    {
      "data": {
        "0": 16,
        "1": 8,
        "2": 0,
        "3": 0,
        "4": 0,
        "5": 0,
        "6": 0,
        "7": 0,
        "8": 7,
        "9": 197,
        "10": 177,
        "11": 101,
        "12": 49,
        "13": 204,
        "14": 176,
        "15": 60,
        "16": 172,
        "17": 77,
        "18": 51,
        "19": 168,
        "20": 169,
        "21": 223,
        "22": 25,
        "23": 172,
        "24": 110,
        "25": 84,
        "26": 241,
        "27": 199,
        "28": 102,
        "29": 152,
        "30": 59,
        "31": 118,
        "32": 119,
        "33": 161,
        "34": 219,
        "35": 55,
        "36": 115,
        "37": 41,
        "38": 230,
        "39": 122,
        "40": 253,
        "41": 187,
        "42": 35,
        "43": 73,
        "44": 228,
        "45": 253,
        "46": 123,
        "47": 6,
        "48": 102,
        "49": 72,
        "50": 23,
        "51": 82,
        "52": 153,
        "53": 87,
        "54": 187,
        "55": 177,
        "56": 205,
        "57": 159,
        "58": 82,
        "59": 241,
        "60": 166,
        "61": 196,
        "62": 148,
        "63": 112,
        "64": 161,
        "65": 66,
        "66": 196,
        "67": 110,
        "68": 245,
        "69": 127,
        "70": 66,
        "71": 88,
        "72": 40,
        "73": 189,
        "74": 234,
        "75": 86,
        "76": 23,
        "77": 57,
        "78": 239,
        "79": 19,
        "80": 205,
        "81": 137,
        "82": 70,
        "83": 159,
        "84": 7,
        "85": 254,
        "86": 99,
        "87": 37,
        "88": 162,
        "89": 104,
        "90": 211,
        "91": 251,
        "92": 93,
        "93": 141,
        "94": 187,
        "95": 19,
        "96": 114,
        "97": 193,
        "98": 169,
        "99": 62,
        "100": 58,
        "101": 213,
        "102": 90,
        "103": 174,
        "104": 210,
        "105": 112,
        "106": 43,
        "107": 60,
        "108": 9,
        "109": 44,
        "110": 238,
        "111": 77,
        "112": 73,
        "113": 3,
        "114": 165,
        "115": 44,
        "116": 250,
        "117": 0,
        "118": 230,
        "119": 148,
        "120": 53,
        "121": 144,
        "122": 44,
        "123": 194,
        "124": 124,
        "125": 220,
        "126": 245,
        "127": 83,
        "128": 60,
        "129": 59,
        "130": 52,
        "131": 215,
        "132": 240,
        "133": 201,
        "134": 133,
        "135": 81,
        "136": 45,
        "137": 215,
        "138": 139,
        "139": 29,
        "140": 77,
        "141": 40,
        "142": 94,
        "143": 119,
        "144": 53,
        "145": 56,
        "146": 50,
        "147": 179,
        "148": 22,
        "149": 199,
        "150": 69,
        "151": 115,
        "152": 206,
        "153": 215,
        "154": 142,
        "155": 25,
        "156": 95,
        "157": 10,
        "158": 45,
        "159": 143,
        "160": 125,
        "161": 73,
        "162": 141,
        "163": 46,
        "164": 114,
        "165": 170,
        "166": 239,
        "167": 68,
        "168": 11,
        "169": 5,
        "170": 77,
        "171": 107,
        "172": 91,
        "173": 160,
        "174": 81,
        "175": 249,
        "176": 237,
        "177": 160,
        "178": 31,
        "179": 234,
        "180": 73,
        "181": 110,
        "182": 92,
        "183": 183,
        "184": 0,
        "185": 126,
        "186": 27,
        "187": 183,
        "188": 233,
        "189": 180,
        "190": 29,
        "191": 152,
        "192": 127,
        "193": 97,
        "194": 74,
        "195": 207,
        "196": 139,
        "197": 0,
        "198": 106,
        "199": 175,
        "200": 100,
        "201": 200,
        "202": 5,
        "203": 243,
        "204": 7,
        "205": 212,
        "206": 60,
        "207": 84,
        "208": 105,
        "209": 211,
        "210": 92,
        "211": 219,
        "212": 182,
        "213": 124,
        "214": 42,
        "215": 234,
        "216": 143,
        "217": 95,
        "218": 200,
        "219": 110,
        "220": 49,
        "221": 87,
        "222": 145,
        "223": 187,
        "224": 58,
        "225": 226,
        "226": 250,
        "227": 213,
        "228": 252,
        "229": 202,
        "230": 62,
        "231": 99,
        "232": 22,
        "233": 144,
        "234": 87,
        "235": 137,
        "236": 177,
        "237": 136,
        "238": 109,
        "239": 252,
        "240": 165,
        "241": 154,
        "242": 115,
        "243": 37,
        "244": 230,
        "245": 4,
        "246": 45,
        "247": 172,
        "248": 214,
        "249": 132,
        "250": 109,
        "251": 176,
        "252": 35,
        "253": 33,
        "254": 163,
        "255": 211,
        "256": 12,
        "257": 182,
        "258": 176,
        "259": 169,
        "260": 240,
        "261": 157,
        "262": 220,
        "263": 177,
        "264": 118,
        "265": 83,
        "266": 239,
        "267": 104,
        "268": 32,
        "269": 27,
        "270": 94,
        "271": 243,
        "272": 192,
        "273": 80,
        "274": 249,
        "275": 91,
        "276": 197,
        "277": 122,
        "278": 210,
        "279": 1,
        "280": 247,
        "281": 254,
        "282": 106,
        "283": 167,
        "284": 123,
        "285": 10,
        "286": 150,
        "287": 30,
        "288": 24,
        "289": 187,
        "290": 4,
        "291": 214,
        "292": 225,
        "293": 244,
        "294": 8,
        "295": 203,
        "296": 189,
        "297": 241,
        "298": 86,
        "299": 189,
        "300": 234,
        "301": 10,
        "302": 188,
        "303": 167,
        "304": 138,
        "305": 120,
        "306": 170,
        "307": 206,
        "308": 3,
        "309": 80,
        "310": 153,
        "311": 126,
        "312": 186,
        "313": 108,
        "314": 221,
        "315": 230,
        "316": 218,
        "317": 1,
        "318": 194,
        "319": 3,
        "320": 143,
        "321": 170,
        "322": 197,
        "323": 122,
        "324": 19,
        "325": 65,
        "326": 141,
        "327": 184,
        "328": 127,
        "329": 25,
        "330": 122,
        "331": 50,
        "332": 94,
        "333": 58,
        "334": 29,
        "335": 119,
        "336": 231,
        "337": 47,
        "338": 140,
        "339": 202,
        "340": 138,
        "341": 61,
        "342": 224,
        "343": 49,
        "344": 51,
        "345": 21,
        "346": 89,
        "347": 199,
        "348": 44,
        "349": 150,
        "350": 250,
        "351": 244,
        "352": 7,
        "353": 210,
        "354": 214,
        "355": 34,
        "356": 143,
        "357": 230,
        "358": 8,
        "359": 116,
        "360": 185,
        "361": 33,
        "362": 43,
        "363": 243,
        "364": 111,
        "365": 80,
        "366": 115,
        "367": 145,
        "368": 145,
        "369": 43,
        "370": 135,
        "371": 77,
        "372": 118,
        "373": 205,
        "374": 248,
        "375": 239,
        "376": 177,
        "377": 30,
        "378": 125,
        "379": 163,
        "380": 44,
        "381": 72,
        "382": 167,
        "383": 79,
        "384": 131,
        "385": 164,
        "386": 166,
        "387": 2,
        "388": 231,
        "389": 24,
        "390": 175,
        "391": 132,
        "392": 113,
        "393": 5,
        "394": 86,
        "395": 220,
        "396": 60,
        "397": 131,
        "398": 80,
        "399": 59,
        "400": 17,
        "401": 215,
        "402": 185,
        "403": 220,
        "404": 67,
        "405": 159,
        "406": 249,
        "407": 201,
        "408": 82,
        "409": 159,
        "410": 127,
        "411": 239,
        "412": 185,
        "413": 43,
        "414": 203,
        "415": 203,
        "416": 183,
        "417": 32,
        "418": 127,
        "419": 80,
        "420": 103,
        "421": 204,
        "422": 131,
        "423": 14,
        "424": 194,
        "425": 41,
        "426": 158,
        "427": 196,
        "428": 13,
        "429": 98,
        "430": 5,
        "431": 66,
        "432": 32,
        "433": 225,
        "434": 234,
        "435": 86,
        "436": 243,
        "437": 207,
        "438": 142,
        "439": 87,
        "440": 95,
        "441": 200,
        "442": 36,
        "443": 167,
        "444": 102,
        "445": 153,
        "446": 112,
        "447": 117,
        "448": 69,
        "449": 33,
        "450": 146,
        "451": 239,
        "452": 192,
        "453": 60,
        "454": 210,
        "455": 123,
        "456": 196,
        "457": 42,
        "458": 94,
        "459": 57,
        "460": 90,
        "461": 226,
        "462": 96,
        "463": 240,
        "464": 59,
        "465": 42,
        "466": 112,
        "467": 221,
        "468": 203,
        "469": 86,
        "470": 210,
        "471": 60,
        "472": 102,
        "473": 1,
        "474": 178,
        "475": 206,
        "476": 255,
        "477": 84,
        "478": 244,
        "479": 243,
        "480": 65,
        "481": 212,
        "482": 114,
        "483": 64,
        "484": 17,
        "485": 48,
        "486": 60,
        "487": 59,
        "488": 202,
        "489": 10,
        "490": 113,
        "491": 195,
        "492": 39,
        "493": 238,
        "494": 131,
        "495": 81,
        "496": 252,
        "497": 250,
        "498": 10,
        "499": 165,
        "500": 82,
        "501": 8,
        "502": 159,
        "503": 99,
        "504": 255,
        "505": 76,
        "506": 187,
        "507": 59,
        "508": 164,
        "509": 129,
        "510": 40,
        "511": 5,
        "512": 252,
        "513": 72,
        "514": 107,
        "515": 219,
        "516": 44,
        "517": 0,
        "518": 90,
        "519": 9,
        "520": 228,
        "521": 23,
        "522": 172,
        "523": 200,
        "524": 46,
        "525": 239,
        "526": 30,
        "527": 134,
        "528": 242,
        "529": 245,
        "530": 10,
        "531": 221,
        "532": 232,
        "533": 8,
        "534": 95,
        "535": 148,
        "536": 76,
        "537": 107,
        "538": 36,
        "539": 252,
        "540": 5,
        "541": 186,
        "542": 49,
        "543": 209,
        "544": 3,
        "545": 10,
        "546": 213,
        "547": 253,
        "548": 166,
        "549": 9,
        "550": 21,
        "551": 83,
        "552": 224,
        "553": 82,
        "554": 94,
        "555": 242,
        "556": 101,
        "557": 197,
        "558": 190,
        "559": 102,
        "560": 200,
        "561": 220,
        "562": 164,
        "563": 130,
        "564": 152,
        "565": 122,
        "566": 163,
        "567": 235,
        "568": 68,
        "569": 250,
        "570": 104,
        "571": 83,
        "572": 52,
        "573": 66,
        "574": 85,
        "575": 189,
        "576": 134,
        "577": 134,
        "578": 156,
        "579": 38,
        "580": 192,
        "581": 121,
        "582": 6,
        "583": 88,
        "584": 22,
        "585": 199,
        "586": 38,
        "587": 37,
        "588": 101,
        "589": 55,
        "590": 32,
        "591": 204,
        "592": 240,
        "593": 189,
        "594": 17,
        "595": 49,
        "596": 71,
        "597": 235,
        "598": 103,
        "599": 109,
        "600": 27,
        "601": 167,
        "602": 253,
        "603": 126,
        "604": 94,
        "605": 219,
        "606": 225,
        "607": 155,
        "608": 203,
        "609": 100,
        "610": 187,
        "611": 183,
        "612": 67,
        "613": 177,
        "614": 77,
        "615": 128,
        "616": 248,
        "617": 150,
        "618": 202,
        "619": 69,
        "620": 116,
        "621": 51,
        "622": 211,
        "623": 83,
        "624": 42,
        "625": 191,
        "626": 211,
        "627": 8,
        "628": 88,
        "629": 240,
        "630": 3,
        "631": 249,
        "632": 229,
        "633": 157,
        "634": 102,
        "635": 32,
        "636": 231,
        "637": 196,
        "638": 62,
        "639": 171,
        "640": 6,
        "641": 54,
        "642": 162,
        "643": 18,
        "644": 196,
        "645": 133,
        "646": 75,
        "647": 255,
        "648": 165,
        "649": 152,
        "650": 87,
        "651": 192,
        "652": 234,
        "653": 171,
        "654": 207,
        "655": 190,
        "656": 88,
        "657": 243,
        "658": 252,
        "659": 140,
        "660": 134,
        "661": 77,
        "662": 144,
        "663": 73,
        "664": 129,
        "665": 8,
        "666": 234,
        "667": 158,
        "668": 155,
        "669": 226,
        "670": 152,
        "671": 239,
        "672": 150,
        "673": 117,
        "674": 47,
        "675": 103,
        "676": 96,
        "677": 127,
        "678": 84,
        "679": 43,
        "680": 192,
        "681": 194,
        "682": 111,
        "683": 140,
        "684": 116,
        "685": 254,
        "686": 34,
        "687": 90,
        "688": 239,
        "689": 174,
        "690": 16,
        "691": 145,
        "692": 92,
        "693": 110,
        "694": 42,
        "695": 215,
        "696": 25,
        "697": 230,
        "698": 151,
        "699": 45,
        "700": 210,
        "701": 178,
        "702": 90,
        "703": 63,
        "704": 135,
        "705": 101,
        "706": 124,
        "707": 66,
        "708": 182,
        "709": 151,
        "710": 64,
        "711": 255,
        "712": 155,
        "713": 235,
        "714": 250,
        "715": 119,
        "716": 3,
        "717": 168,
        "718": 67,
        "719": 80,
        "720": 59,
        "721": 26,
        "722": 42,
        "723": 44,
        "724": 221,
        "725": 34,
        "726": 177,
        "727": 214,
        "728": 6,
        "729": 135,
        "730": 201,
        "731": 219,
        "732": 221,
        "733": 112,
        "734": 140,
        "735": 165,
        "736": 77,
        "737": 196,
        "738": 190,
        "739": 158,
        "740": 37,
        "741": 92,
        "742": 167,
        "743": 210,
        "744": 65,
        "745": 171,
        "746": 64,
        "747": 141,
        "748": 209,
        "749": 186,
        "750": 221,
        "751": 89,
        "752": 64,
        "753": 168,
        "754": 198,
        "755": 152,
        "756": 167,
        "757": 77,
        "758": 144,
        "759": 191,
        "760": 151,
        "761": 212,
        "762": 252,
        "763": 141,
        "764": 163,
        "765": 44,
        "766": 81,
        "767": 177,
        "768": 255,
        "769": 243,
        "770": 136,
        "771": 56,
        "772": 39,
        "773": 35,
        "774": 167,
        "775": 174,
        "776": 153,
        "777": 20,
        "778": 83,
        "779": 151,
        "780": 76,
        "781": 211,
        "782": 139,
        "783": 192,
        "784": 1,
        "785": 202,
        "786": 206,
        "787": 173,
        "788": 205,
        "789": 173,
        "790": 159,
        "791": 108,
        "792": 212,
        "793": 208,
        "794": 5,
        "795": 213,
        "796": 121,
        "797": 92,
        "798": 36,
        "799": 78,
        "800": 206,
        "801": 116,
        "802": 155,
        "803": 34,
        "804": 157,
        "805": 243,
        "806": 107,
        "807": 206,
        "808": 52,
        "809": 79,
        "810": 126,
        "811": 97,
        "812": 214,
        "813": 17,
        "814": 166,
        "815": 103,
        "816": 35,
        "817": 195,
        "818": 54,
        "819": 176,
        "820": 50,
        "821": 7,
        "822": 155,
        "823": 28,
        "824": 110,
        "825": 84,
        "826": 225,
        "827": 11,
        "828": 182,
        "829": 228,
        "830": 157,
        "831": 49,
        "832": 161,
        "833": 239,
        "834": 2,
        "835": 168,
        "836": 63,
        "837": 30,
        "838": 229,
        "839": 101,
        "840": 226,
        "841": 64,
        "842": 146,
        "843": 80,
        "844": 172,
        "845": 138,
        "846": 34,
        "847": 15,
        "848": 164,
        "849": 159,
        "850": 168,
        "851": 178,
        "852": 167,
        "853": 52,
        "854": 223,
        "855": 55,
        "856": 77,
        "857": 251,
        "858": 236,
        "859": 26,
        "860": 27,
        "861": 97,
        "862": 79,
        "863": 192,
        "864": 44,
        "865": 188,
        "866": 237,
        "867": 182,
        "868": 190,
        "869": 3,
        "870": 164,
        "871": 178,
        "872": 85,
        "873": 138,
        "874": 221,
        "875": 21,
        "876": 39,
        "877": 182,
        "878": 216,
        "879": 203,
        "880": 103,
        "881": 35,
        "882": 95,
        "883": 144,
        "884": 205,
        "885": 146,
        "886": 194,
        "887": 132,
        "888": 179,
        "889": 9,
        "890": 230,
        "891": 216,
        "892": 193,
        "893": 15,
        "894": 100,
        "895": 171,
        "896": 248,
        "897": 6,
        "898": 184,
        "899": 77,
        "900": 141,
        "901": 90,
        "902": 78,
        "903": 16,
        "904": 62,
        "905": 97,
        "906": 57,
        "907": 45,
        "908": 43,
        "909": 48,
        "910": 149,
        "911": 165,
        "912": 42,
        "913": 254,
        "914": 113,
        "915": 144,
        "916": 122,
        "917": 227,
        "918": 10,
        "919": 36,
        "920": 250,
        "921": 103,
        "922": 188,
        "923": 92,
        "924": 20,
        "925": 227,
        "926": 207,
        "927": 180,
        "928": 159,
        "929": 237,
        "930": 145,
        "931": 190,
        "932": 87,
        "933": 171,
        "934": 142,
        "935": 19,
        "936": 67,
        "937": 163,
        "938": 248,
        "939": 6,
        "940": 42,
        "941": 21,
        "942": 8,
        "943": 131,
        "944": 25,
        "945": 42,
        "946": 123,
        "947": 155,
        "948": 62,
        "949": 19,
        "950": 147,
        "951": 232,
        "952": 141,
        "953": 241,
        "954": 22,
        "955": 236,
        "956": 252,
        "957": 57,
        "958": 125,
        "959": 26,
        "960": 244,
        "961": 9,
        "962": 248,
        "963": 22,
        "964": 59,
        "965": 36,
        "966": 185,
        "967": 183,
        "968": 98,
        "969": 115,
        "970": 190,
        "971": 210,
        "972": 111,
        "973": 250,
        "974": 143,
        "975": 173,
        "976": 147,
        "977": 47,
        "978": 54,
        "979": 201,
        "980": 117,
        "981": 2,
        "982": 82,
        "983": 136,
        "984": 136,
        "985": 189,
        "986": 211,
        "987": 60,
        "988": 206,
        "989": 54,
        "990": 159,
        "991": 193,
        "992": 181,
        "993": 187,
        "994": 173,
        "995": 115,
        "996": 172,
        "997": 233,
        "998": 52,
        "999": 104,
        "1000": 142,
        "1001": 196,
        "1002": 148,
        "1003": 17,
        "1004": 41,
        "1005": 71,
        "1006": 15,
        "1007": 116,
        "1008": 225,
        "1009": 148,
        "1010": 29,
        "1011": 214,
        "1012": 212,
        "1013": 156,
        "1014": 129,
        "1015": 162,
        "1016": 32,
        "1017": 217,
        "1018": 250,
        "1019": 172,
        "1020": 42,
        "1021": 127,
        "1022": 74,
        "1023": 123,
        "1024": 36,
        "1025": 249,
        "1026": 65,
        "1027": 171,
        "1028": 88,
        "1029": 235,
        "1030": 74,
        "1031": 121,
        "1032": 38,
        "1033": 221,
        "1034": 215,
        "1035": 25,
        "1036": 219,
        "1037": 152,
        "1038": 229,
        "1039": 48,
        "1040": 40,
        "1041": 107,
        "1042": 148,
        "1043": 83,
        "1044": 250,
        "1045": 93,
        "1046": 114,
        "1047": 100,
        "1048": 239,
        "1049": 26,
        "1050": 38,
        "1051": 189,
        "1052": 212,
        "1053": 128,
        "1054": 50,
        "1055": 133,
        "1056": 119,
        "1057": 119,
        "1058": 124,
        "1059": 66,
        "1060": 136,
        "1061": 183,
        "1062": 40,
        "1063": 137,
        "1064": 252,
        "1065": 25,
        "1066": 38,
        "1067": 13,
        "1068": 126,
        "1069": 78,
        "1070": 96,
        "1071": 48,
        "1072": 243,
        "1073": 212,
        "1074": 5,
        "1075": 151,
        "1076": 43,
        "1077": 50,
        "1078": 113,
        "1079": 139,
        "1080": 211,
        "1081": 208,
        "1082": 36,
        "1083": 217,
        "1084": 104,
        "1085": 15,
        "1086": 193,
        "1087": 197,
        "1088": 178,
        "1089": 70,
        "1090": 194,
        "1091": 102,
        "1092": 10,
        "1093": 238,
        "1094": 139,
        "1095": 252,
        "1096": 85,
        "1097": 229,
        "1098": 3,
        "1099": 176,
        "1100": 35,
        "1101": 180,
        "1102": 3,
        "1103": 0,
        "1104": 87,
        "1105": 70,
        "1106": 53,
        "1107": 147,
        "1108": 205,
        "1109": 162,
        "1110": 241,
        "1111": 76,
        "1112": 233,
        "1113": 208,
        "1114": 170,
        "1115": 219,
        "1116": 141,
        "1117": 67,
        "1118": 56,
        "1119": 243,
        "1120": 221,
        "1121": 37,
        "1122": 222,
        "1123": 164,
        "1124": 210,
        "1125": 180,
        "1126": 127,
        "1127": 66,
        "1128": 251,
        "1129": 127,
        "1130": 186,
        "1131": 60,
        "1132": 37,
        "1133": 122,
        "1134": 230,
        "1135": 36,
        "1136": 22,
        "1137": 235,
        "1138": 233,
        "1139": 84,
        "1140": 255,
        "1141": 144,
        "1142": 48,
        "1143": 149,
        "1144": 207,
        "1145": 252,
        "1146": 84,
        "1147": 156,
        "1148": 3,
        "1149": 108,
        "1150": 101,
        "1151": 77,
        "1152": 92,
        "1153": 163,
        "1154": 101,
        "1155": 236,
        "1156": 167,
        "1157": 11,
        "1158": 30,
        "1159": 171,
        "1160": 141,
        "1161": 143,
        "1162": 252,
        "1163": 98,
        "1164": 92,
        "1165": 3,
        "1166": 3,
        "1167": 107,
        "1168": 131,
        "1169": 64,
        "1170": 142,
        "1171": 133,
        "1172": 215,
        "1173": 62,
        "1174": 80,
        "1175": 77,
        "1176": 62,
        "1177": 233,
        "1178": 73,
        "1179": 91,
        "1180": 234,
        "1181": 121,
        "1182": 144,
        "1183": 95,
        "1184": 186,
        "1185": 32,
        "1186": 90,
        "1187": 106,
        "1188": 187,
        "1189": 213,
        "1190": 42,
        "1191": 30,
        "1192": 116,
        "1193": 101,
        "1194": 72,
        "1195": 21,
        "1196": 226,
        "1197": 55,
        "1198": 60,
        "1199": 51,
        "1200": 87,
        "1201": 175,
        "1202": 188,
        "1203": 62,
        "1204": 40,
        "1205": 27,
        "1206": 105,
        "1207": 157,
        "1208": 239,
        "1209": 169,
        "1210": 139,
        "1211": 201,
        "1212": 238,
        "1213": 98,
        "1214": 59,
        "1215": 20,
        "1216": 44,
        "1217": 58,
        "1218": 5,
        "1219": 181,
        "1220": 151,
        "1221": 27,
        "1222": 44,
        "1223": 28,
        "1224": 248,
        "1225": 199,
        "1226": 67,
        "1227": 152,
        "1228": 169,
        "1229": 64,
        "1230": 129,
        "1231": 60,
        "1232": 209,
        "1233": 195,
        "1234": 60,
        "1235": 82,
        "1236": 172,
        "1237": 23,
        "1238": 91,
        "1239": 28,
        "1240": 2,
        "1241": 250,
        "1242": 153,
        "1243": 47,
        "1244": 239,
        "1245": 173,
        "1246": 107,
        "1247": 217,
        "1248": 181,
        "1249": 82,
        "1250": 80,
        "1251": 245,
        "1252": 215,
        "1253": 6,
        "1254": 122,
        "1255": 102,
        "1256": 45,
        "1257": 156,
        "1258": 139,
        "1259": 151,
        "1260": 190,
        "1261": 20,
        "1262": 20,
        "1263": 35,
        "1264": 192,
        "1265": 93,
        "1266": 138,
        "1267": 44,
        "1268": 98,
        "1269": 72,
        "1270": 182,
        "1271": 98,
        "1272": 110,
        "1273": 151,
        "1274": 35,
        "1275": 255,
        "1276": 4,
        "1277": 22,
        "1278": 157,
        "1279": 14,
        "1280": 25,
        "1281": 41,
        "1282": 42,
        "1283": 221,
        "1284": 45,
        "1285": 20,
        "1286": 143,
        "1287": 190,
        "1288": 51,
        "1289": 118,
        "1290": 139,
        "1291": 239,
        "1292": 205,
        "1293": 145,
        "1294": 230,
        "1295": 8,
        "1296": 180,
        "1297": 242,
        "1298": 207,
        "1299": 71,
        "1300": 152,
        "1301": 147,
        "1302": 249,
        "1303": 203,
        "1304": 226,
        "1305": 104,
        "1306": 92,
        "1307": 202,
        "1308": 149,
        "1309": 215,
        "1310": 176,
        "1311": 216,
        "1312": 227,
        "1313": 88,
        "1314": 250,
        "1315": 84,
        "1316": 128,
        "1317": 57,
        "1318": 157,
        "1319": 59,
        "1320": 136,
        "1321": 123,
        "1322": 120,
        "1323": 40,
        "1324": 150,
        "1325": 49,
        "1326": 9,
        "1327": 115,
        "1328": 89,
        "1329": 230,
        "1330": 241,
        "1331": 10,
        "1332": 143,
        "1333": 198,
        "1334": 161,
        "1335": 67,
        "1336": 239,
        "1337": 51,
        "1338": 252,
        "1339": 234,
        "1340": 98,
        "1341": 210,
        "1342": 94,
        "1343": 233,
        "1344": 220,
        "1345": 182,
        "1346": 9,
        "1347": 16,
        "1348": 112,
        "1349": 217,
        "1350": 50,
        "1351": 198,
        "1352": 137,
        "1353": 236,
        "1354": 199,
        "1355": 169,
        "1356": 185,
        "1357": 225,
        "1358": 49,
        "1359": 110,
        "1360": 39,
        "1361": 119,
        "1362": 219,
        "1363": 253,
        "1364": 183,
        "1365": 115,
        "1366": 32,
        "1367": 8,
        "1368": 203,
        "1369": 153,
        "1370": 146,
        "1371": 221,
        "1372": 160,
        "1373": 80,
        "1374": 88,
        "1375": 68,
        "1376": 177,
        "1377": 208,
        "1378": 155,
        "1379": 36,
        "1380": 26,
        "1381": 239,
        "1382": 225,
        "1383": 99,
        "1384": 207,
        "1385": 129,
        "1386": 24,
        "1387": 137,
        "1388": 134,
        "1389": 51,
        "1390": 117,
        "1391": 171,
        "1392": 250,
        "1393": 132,
        "1394": 57,
        "1395": 78,
        "1396": 100,
        "1397": 16,
        "1398": 247,
        "1399": 159,
        "1400": 153,
        "1401": 182,
        "1402": 64,
        "1403": 221,
        "1404": 158,
        "1405": 197,
        "1406": 47,
        "1407": 124,
        "1408": 151,
        "1409": 26,
        "1410": 92,
        "1411": 232,
        "1412": 163,
        "1413": 167,
        "1414": 15,
        "1415": 14,
        "1416": 47,
        "1417": 60,
        "1418": 11,
        "1419": 54,
        "1420": 25,
        "1421": 53,
        "1422": 51,
        "1423": 55,
        "1424": 74,
        "1425": 252,
        "1426": 155,
        "1427": 232,
        "1428": 119,
        "1429": 130,
        "1430": 147,
        "1431": 2,
        "1432": 243,
        "1433": 126,
        "1434": 154,
        "1435": 225,
        "1436": 194,
        "1437": 109,
        "1438": 50,
        "1439": 42,
        "1440": 120,
        "1441": 184,
        "1442": 55,
        "1443": 73,
        "1444": 144,
        "1445": 188,
        "1446": 200,
        "1447": 45,
        "1448": 214,
        "1449": 12,
        "1450": 74,
        "1451": 121,
        "1452": 209,
        "1453": 16,
        "1454": 128,
        "1455": 7,
        "1456": 147,
        "1457": 177,
        "1458": 212,
        "1459": 10,
        "1460": 93,
        "1461": 184,
        "1462": 175,
        "1463": 140,
        "1464": 202,
        "1465": 32,
        "1466": 5,
        "1467": 223,
        "1468": 109,
        "1469": 66,
        "1470": 184,
        "1471": 13,
        "1472": 19,
        "1473": 104,
        "1474": 72,
        "1475": 57,
        "1476": 223,
        "1477": 149,
        "1478": 56,
        "1479": 16,
        "1480": 62,
        "1481": 240,
        "1482": 211,
        "1483": 18,
        "1484": 65,
        "1485": 39,
        "1486": 165,
        "1487": 85,
        "1488": 39,
        "1489": 144,
        "1490": 178,
        "1491": 206,
        "1492": 153,
        "1493": 61,
        "1494": 68,
        "1495": 102,
        "1496": 93,
        "1497": 91,
        "1498": 78,
        "1499": 252,
        "1500": 81,
        "1501": 211,
        "1502": 21,
        "1503": 198,
        "1504": 158,
        "1505": 138,
        "1506": 76,
        "1507": 28,
        "1508": 209,
        "1509": 232,
        "1510": 78,
        "1511": 178,
        "1512": 158,
        "1513": 139,
        "1514": 176,
        "1515": 115,
        "1516": 141,
        "1517": 224,
        "1518": 110,
        "1519": 250,
        "1520": 209,
        "1521": 161,
        "1522": 39,
        "1523": 133,
        "1524": 106,
        "1525": 71,
        "1526": 55,
        "1527": 168,
        "1528": 16,
        "1529": 253,
        "1530": 113,
        "1531": 111,
        "1532": 181,
        "1533": 6,
        "1534": 97,
        "1535": 30,
        "1536": 230,
        "1537": 121,
        "1538": 181,
        "1539": 161,
        "1540": 10,
        "1541": 104,
        "1542": 189,
        "1543": 127,
        "1544": 249,
        "1545": 80,
        "1546": 169,
        "1547": 91,
        "1548": 152,
        "1549": 194,
        "1550": 163,
        "1551": 217,
        "1552": 252,
        "1553": 174,
        "1554": 70,
        "1555": 237,
        "1556": 125,
        "1557": 84,
        "1558": 130,
        "1559": 139,
        "1560": 37,
        "1561": 20,
        "1562": 30,
        "1563": 185,
        "1564": 228,
        "1565": 9,
        "1566": 208,
        "1567": 141,
        "1568": 165,
        "1569": 30,
        "1570": 92,
        "1571": 166,
        "1572": 252,
        "1573": 24,
        "1574": 17,
        "1575": 92,
        "1576": 148,
        "1577": 226,
        "1578": 243,
        "1579": 225,
        "1580": 10,
        "1581": 229,
        "1582": 56,
        "1583": 45,
        "1584": 143,
        "1585": 15,
        "1586": 105,
        "1587": 232,
        "1588": 190,
        "1589": 108,
        "1590": 101,
        "1591": 101,
        "1592": 127,
        "1593": 196,
        "1594": 67,
        "1595": 182,
        "1596": 38,
        "1597": 41,
        "1598": 162,
        "1599": 199,
        "1600": 68,
        "1601": 142,
        "1602": 244,
        "1603": 242,
        "1604": 220,
        "1605": 3,
        "1606": 118,
        "1607": 174,
        "1608": 164,
        "1609": 123,
        "1610": 190,
        "1611": 58,
        "1612": 34,
        "1613": 234,
        "1614": 30,
        "1615": 132,
        "1616": 7,
        "1617": 134,
        "1618": 53,
        "1619": 235,
        "1620": 246,
        "1621": 30,
        "1622": 8,
        "1623": 34,
        "1624": 53,
        "1625": 172,
        "1626": 203,
        "1627": 22,
        "1628": 101,
        "1629": 60,
        "1630": 89,
        "1631": 218,
        "1632": 208,
        "1633": 73,
        "1634": 201,
        "1635": 142,
        "1636": 10,
        "1637": 224,
        "1638": 198,
        "1639": 212,
        "1640": 210,
        "1641": 9,
        "1642": 118,
        "1643": 42,
        "1644": 43,
        "1645": 209,
        "1646": 188,
        "1647": 80,
        "1648": 58,
        "1649": 178,
        "1650": 113,
        "1651": 127,
        "1652": 251,
        "1653": 117,
        "1654": 10,
        "1655": 219,
        "1656": 39,
        "1657": 127,
        "1658": 80,
        "1659": 132,
        "1660": 30,
        "1661": 83,
        "1662": 26,
        "1663": 4,
        "1664": 68,
        "1665": 134,
        "1666": 9,
        "1667": 145,
        "1668": 53,
        "1669": 137,
        "1670": 51,
        "1671": 162,
        "1672": 246,
        "1673": 45,
        "1674": 192,
        "1675": 238,
        "1676": 211,
        "1677": 23,
        "1678": 154,
        "1679": 242,
        "1680": 195,
        "1681": 223,
        "1682": 160,
        "1683": 153,
        "1684": 128,
        "1685": 78,
        "1686": 188,
        "1687": 209,
        "1688": 10,
        "1689": 21,
        "1690": 75,
        "1691": 182,
        "1692": 45,
        "1693": 226,
        "1694": 39,
        "1695": 75,
        "1696": 251,
        "1697": 83,
        "1698": 169,
        "1699": 72,
        "1700": 133,
        "1701": 6,
        "1702": 82,
        "1703": 222,
        "1704": 212,
        "1705": 23,
        "1706": 146,
        "1707": 3,
        "1708": 61,
        "1709": 63,
        "1710": 37,
        "1711": 86,
        "1712": 252,
        "1713": 104,
        "1714": 142,
        "1715": 225,
        "1716": 139,
        "1717": 235,
        "1718": 19,
        "1719": 32,
        "1720": 25,
        "1721": 61,
        "1722": 31,
        "1723": 131,
        "1724": 234,
        "1725": 72,
        "1726": 32,
        "1727": 23,
        "1728": 99,
        "1729": 124,
        "1730": 99,
        "1731": 44,
        "1732": 118,
        "1733": 14,
        "1734": 54,
        "1735": 185,
        "1736": 153,
        "1737": 242,
        "1738": 63,
        "1739": 166,
        "1740": 34,
        "1741": 53,
        "1742": 122,
        "1743": 17,
        "1744": 99,
        "1745": 26,
        "1746": 131,
        "1747": 140,
        "1748": 126,
        "1749": 244,
        "1750": 92,
        "1751": 242,
        "1752": 246,
        "1753": 97,
        "1754": 168,
        "1755": 31,
        "1756": 190,
        "1757": 204,
        "1758": 151,
        "1759": 233,
        "1760": 203,
        "1761": 109,
        "1762": 189,
        "1763": 188,
        "1764": 38,
        "1765": 74,
        "1766": 241,
        "1767": 176,
        "1768": 151,
        "1769": 151,
        "1770": 203,
        "1771": 97,
        "1772": 44,
        "1773": 208,
        "1774": 97,
        "1775": 193,
        "1776": 174,
        "1777": 212,
        "1778": 88,
        "1779": 242,
        "1780": 97,
        "1781": 33,
        "1782": 146,
        "1783": 195,
        "1784": 108,
        "1785": 86,
        "1786": 82,
        "1787": 252,
        "1788": 191,
        "1789": 233,
        "1790": 63,
        "1791": 42,
        "1792": 90,
        "1793": 78,
        "1794": 180,
        "1795": 9,
        "1796": 160,
        "1797": 125,
        "1798": 108,
        "1799": 146,
        "1800": 101,
        "1801": 225,
        "1802": 12,
        "1803": 142,
        "1804": 91,
        "1805": 114,
        "1806": 129,
        "1807": 64,
        "1808": 199,
        "1809": 141,
        "1810": 81,
        "1811": 42,
        "1812": 35,
        "1813": 198,
        "1814": 123,
        "1815": 79,
        "1816": 254,
        "1817": 199,
        "1818": 174,
        "1819": 181,
        "1820": 191,
        "1821": 122,
        "1822": 119,
        "1823": 72,
        "1824": 126,
        "1825": 6,
        "1826": 7,
        "1827": 225,
        "1828": 164,
        "1829": 195,
        "1830": 232,
        "1831": 49,
        "1832": 98,
        "1833": 163,
        "1834": 134,
        "1835": 74,
        "1836": 22,
        "1837": 39,
        "1838": 129,
        "1839": 101,
        "1840": 139,
        "1841": 146,
        "1842": 235,
        "1843": 213,
        "1844": 101,
        "1845": 73,
        "1846": 195,
        "1847": 217,
        "1848": 117,
        "1849": 229,
        "1850": 134,
        "1851": 149,
        "1852": 36,
        "1853": 38,
        "1854": 192,
        "1855": 255,
        "1856": 169,
        "1857": 242,
        "1858": 249,
        "1859": 133,
        "1860": 221,
        "1861": 59,
        "1862": 150,
        "1863": 140,
        "1864": 196,
        "1865": 15,
        "1866": 199,
        "1867": 12,
        "1868": 18,
        "1869": 183,
        "1870": 101,
        "1871": 78,
        "1872": 14,
        "1873": 230,
        "1874": 23,
        "1875": 208,
        "1876": 151,
        "1877": 94,
        "1878": 67,
        "1879": 181,
        "1880": 80,
        "1881": 142,
        "1882": 94,
        "1883": 12,
        "1884": 183,
        "1885": 196,
        "1886": 21,
        "1887": 243,
        "1888": 127,
        "1889": 110,
        "1890": 196,
        "1891": 173,
        "1892": 199,
        "1893": 120,
        "1894": 84,
        "1895": 193,
        "1896": 237,
        "1897": 238,
        "1898": 25,
        "1899": 38,
        "1900": 47,
        "1901": 46,
        "1902": 214,
        "1903": 170,
        "1904": 241,
        "1905": 84,
        "1906": 186,
        "1907": 0,
        "1908": 68,
        "1909": 236,
        "1910": 102,
        "1911": 128,
        "1912": 10,
        "1913": 107,
        "1914": 144,
        "1915": 30,
        "1916": 104,
        "1917": 103,
        "1918": 19,
        "1919": 37,
        "1920": 192,
        "1921": 56,
        "1922": 143,
        "1923": 68,
        "1924": 22,
        "1925": 253,
        "1926": 197,
        "1927": 103,
        "1928": 6,
        "1929": 140,
        "1930": 46,
        "1931": 134,
        "1932": 218,
        "1933": 202,
        "1934": 58,
        "1935": 30,
        "1936": 58,
        "1937": 234,
        "1938": 231,
        "1939": 105,
        "1940": 59,
        "1941": 108,
        "1942": 51,
        "1943": 9,
        "1944": 30,
        "1945": 112,
        "1946": 199,
        "1947": 234,
        "1948": 68,
        "1949": 31,
        "1950": 25,
        "1951": 187,
        "1952": 88,
        "1953": 144,
        "1954": 100,
        "1955": 15,
        "1956": 223,
        "1957": 222,
        "1958": 130,
        "1959": 187,
        "1960": 149,
        "1961": 243,
        "1962": 198,
        "1963": 220,
        "1964": 172,
        "1965": 156,
        "1966": 43,
        "1967": 246,
        "1968": 183,
        "1969": 147,
        "1970": 59,
        "1971": 17,
        "1972": 91,
        "1973": 199,
        "1974": 227,
        "1975": 148,
        "1976": 219,
        "1977": 45,
        "1978": 129,
        "1979": 157,
        "1980": 27,
        "1981": 172,
        "1982": 173,
        "1983": 253,
        "1984": 130,
        "1985": 197,
        "1986": 99,
        "1987": 248,
        "1988": 56,
        "1989": 211,
        "1990": 243,
        "1991": 157,
        "1992": 129,
        "1993": 58,
        "1994": 187,
        "1995": 239,
        "1996": 19,
        "1997": 30,
        "1998": 94,
        "1999": 213,
        "2000": 102,
        "2001": 222,
        "2002": 87,
        "2003": 106,
        "2004": 246,
        "2005": 152,
        "2006": 40,
        "2007": 245,
        "2008": 45,
        "2009": 101,
        "2010": 238,
        "2011": 28,
        "2012": 215,
        "2013": 84,
        "2014": 126,
        "2015": 184,
        "2016": 215,
        "2017": 6,
        "2018": 148,
        "2019": 137,
        "2020": 21,
        "2021": 88,
        "2022": 36,
        "2023": 107,
        "2024": 168,
        "2025": 28,
        "2026": 108,
        "2027": 225,
        "2028": 141,
        "2029": 39,
        "2030": 208,
        "2031": 113,
        "2032": 234,
        "2033": 44,
        "2034": 175,
        "2035": 240,
        "2036": 179,
        "2037": 209,
        "2038": 8,
        "2039": 16,
        "2040": 147,
        "2041": 43,
        "2042": 30,
        "2043": 219,
        "2044": 52,
        "2045": 150,
        "2046": 79,
        "2047": 219,
        "2048": 154,
        "2049": 88,
        "2050": 100,
        "2051": 177,
        "2052": 48,
        "2053": 164,
        "2054": 140,
        "2055": 139,
        "2056": 47,
        "2057": 152,
        "2058": 134,
        "2059": 0,
        "2060": 98,
        "2061": 87,
        "2062": 141,
        "2063": 247,
        "2064": 110,
        "2065": 239,
        "2066": 170,
        "2067": 133,
        "2068": 3,
        "2069": 192,
        "2070": 154,
        "2071": 170,
        "2072": 86,
        "2073": 21,
        "2074": 107,
        "2075": 108,
        "2076": 245,
        "2077": 57,
        "2078": 193,
        "2079": 45,
        "2080": 202,
        "2081": 166,
        "2082": 193,
        "2083": 102,
        "2084": 156,
        "2085": 19,
        "2086": 222,
        "2087": 14,
        "2088": 8,
        "2089": 34,
        "2090": 228,
        "2091": 67,
        "2092": 143,
        "2093": 70,
        "2094": 110,
        "2095": 36,
        "2096": 14,
        "2097": 107,
        "2098": 187,
        "2099": 95,
        "2100": 55,
        "2101": 177,
        "2102": 26,
        "2103": 228,
        "2104": 48,
        "2105": 148,
        "2106": 243,
        "2107": 157,
        "2108": 1,
        "2109": 179,
        "2110": 88,
        "2111": 48,
        "2112": 187,
        "2113": 123,
        "2114": 201,
        "2115": 200,
        "2116": 1,
        "2117": 127,
        "2118": 140,
        "2119": 85,
        "2120": 127,
        "2121": 226,
        "2122": 218,
        "2123": 40,
        "2124": 219,
        "2125": 74,
        "2126": 54,
        "2127": 35,
        "2128": 53,
        "2129": 228,
        "2130": 139,
        "2131": 24,
        "2132": 251,
        "2133": 148,
        "2134": 35,
        "2135": 51,
        "2136": 17,
        "2137": 96,
        "2138": 19,
        "2139": 104,
        "2140": 10,
        "2141": 228,
        "2142": 147,
        "2143": 28,
        "2144": 168,
        "2145": 26,
        "2146": 76,
        "2147": 14,
        "2148": 163,
        "2149": 232,
        "2150": 35,
        "2151": 209,
        "2152": 133,
        "2153": 37,
        "2154": 244,
        "2155": 89,
        "2156": 56,
        "2157": 128,
        "2158": 31,
        "2159": 227,
        "2160": 76,
        "2161": 93,
        "2162": 219,
        "2163": 106,
        "2164": 84,
        "2165": 162,
        "2166": 51,
        "2167": 37,
        "2168": 166,
        "2169": 3,
        "2170": 238,
        "2171": 153,
        "2172": 229,
        "2173": 190,
        "2174": 234,
        "2175": 135,
        "2176": 170,
        "2177": 196,
        "2178": 195,
        "2179": 192,
        "2180": 23,
        "2181": 229,
        "2182": 137,
        "2183": 255,
        "2184": 105,
        "2185": 58,
        "2186": 96,
        "2187": 249,
        "2188": 229,
        "2189": 202,
        "2190": 101,
        "2191": 180,
        "2192": 205,
        "2193": 181,
        "2194": 134,
        "2195": 105,
        "2196": 53,
        "2197": 248,
        "2198": 73,
        "2199": 246,
        "2200": 246,
        "2201": 23,
        "2202": 32,
        "2203": 222,
        "2204": 211,
        "2205": 37,
        "2206": 95,
        "2207": 126,
        "2208": 166,
        "2209": 245,
        "2210": 109,
        "2211": 0,
        "2212": 181,
        "2213": 135,
        "2214": 196,
        "2215": 208,
        "2216": 81,
        "2217": 27,
        "2218": 163,
        "2219": 41,
        "2220": 252,
        "2221": 120,
        "2222": 255,
        "2223": 214,
        "2224": 177,
        "2225": 54,
        "2226": 226,
        "2227": 219,
        "2228": 38,
        "2229": 24,
        "2230": 53,
        "2231": 73,
        "2232": 101,
        "2233": 111,
        "2234": 234,
        "2235": 217,
        "2236": 223,
        "2237": 88,
        "2238": 223,
        "2239": 162,
        "2240": 15,
        "2241": 253,
        "2242": 37,
        "2243": 199,
        "2244": 138,
        "2245": 151,
        "2246": 251,
        "2247": 114,
        "2248": 83,
        "2249": 3,
        "2250": 55,
        "2251": 81,
        "2252": 54,
        "2253": 155,
        "2254": 193,
        "2255": 129,
        "2256": 15,
        "2257": 71,
        "2258": 240,
        "2259": 179,
        "2260": 145,
        "2261": 210,
        "2262": 7,
        "2263": 28,
        "2264": 53,
        "2265": 119,
        "2266": 168,
        "2267": 129,
        "2268": 71,
        "2269": 81,
        "2270": 143,
        "2271": 9,
        "2272": 125,
        "2273": 162,
        "2274": 184,
        "2275": 253,
        "2276": 82,
        "2277": 248,
        "2278": 101,
        "2279": 62,
        "2280": 58,
        "2281": 76,
        "2282": 253,
        "2283": 199,
        "2284": 71,
        "2285": 222,
        "2286": 172,
        "2287": 192,
        "2288": 190,
        "2289": 138,
        "2290": 233,
        "2291": 131,
        "2292": 84,
        "2293": 25,
        "2294": 20,
        "2295": 206,
        "2296": 181,
        "2297": 216,
        "2298": 77,
        "2299": 167,
        "2300": 97,
        "2301": 61,
        "2302": 129,
        "2303": 97,
        "2304": 225,
        "2305": 76,
        "2306": 74,
        "2307": 65,
        "2308": 98,
        "2309": 241,
        "2310": 125,
        "2311": 40,
        "2312": 194,
        "2313": 60,
        "2314": 99,
        "2315": 129,
        "2316": 45,
        "2317": 6,
        "2318": 63,
        "2319": 254,
        "2320": 50,
        "2321": 96,
        "2322": 152,
        "2323": 135,
        "2324": 23,
        "2325": 131,
        "2326": 247,
        "2327": 79,
        "2328": 68,
        "2329": 68,
        "2330": 82,
        "2331": 10,
        "2332": 197,
        "2333": 136,
        "2334": 217,
        "2335": 189,
        "2336": 65,
        "2337": 80,
        "2338": 218,
        "2339": 144,
        "2340": 70,
        "2341": 168,
        "2342": 156,
        "2343": 221,
        "2344": 111,
        "2345": 243,
        "2346": 202,
        "2347": 87,
        "2348": 125,
        "2349": 251,
        "2350": 218,
        "2351": 233,
        "2352": 224,
        "2353": 71,
        "2354": 173,
        "2355": 49,
        "2356": 66,
        "2357": 45,
        "2358": 240,
        "2359": 227,
        "2360": 92,
        "2361": 165,
        "2362": 31,
        "2363": 51,
        "2364": 145,
        "2365": 3,
        "2366": 7,
        "2367": 255,
        "2368": 14,
        "2369": 192,
        "2370": 128,
        "2371": 1,
        "2372": 167,
        "2373": 213,
        "2374": 106,
        "2375": 196,
        "2376": 5,
        "2377": 65,
        "2378": 179,
        "2379": 142,
        "2380": 31,
        "2381": 61,
        "2382": 252,
        "2383": 153,
        "2384": 106,
        "2385": 20,
        "2386": 2,
        "2387": 153,
        "2388": 205,
        "2389": 199,
        "2390": 11,
        "2391": 68,
        "2392": 30,
        "2393": 85,
        "2394": 126,
        "2395": 22,
        "2396": 91,
        "2397": 17,
        "2398": 108,
        "2399": 4,
        "2400": 171,
        "2401": 213,
        "2402": 213,
        "2403": 193,
        "2404": 164,
        "2405": 32,
        "2406": 155,
        "2407": 168,
        "2408": 122,
        "2409": 77,
        "2410": 18,
        "2411": 54,
        "2412": 102,
        "2413": 161,
        "2414": 102,
        "2415": 39,
        "2416": 179,
        "2417": 185,
        "2418": 189,
        "2419": 5,
        "2420": 90,
        "2421": 155,
        "2422": 170,
        "2423": 47,
        "2424": 104,
        "2425": 205,
        "2426": 175,
        "2427": 46,
        "2428": 239,
        "2429": 84,
        "2430": 21,
        "2431": 62,
        "2432": 147,
        "2433": 218,
        "2434": 39,
        "2435": 176,
        "2436": 9,
        "2437": 125,
        "2438": 244,
        "2439": 177,
        "2440": 39,
        "2441": 129,
        "2442": 196,
        "2443": 67,
        "2444": 169,
        "2445": 229,
        "2446": 54,
        "2447": 154,
        "2448": 26,
        "2449": 70,
        "2450": 88,
        "2451": 124,
        "2452": 0,
        "2453": 2,
        "2454": 246,
        "2455": 57,
        "2456": 250,
        "2457": 37,
        "2458": 49,
        "2459": 40,
        "2460": 98,
        "2461": 199,
        "2462": 185,
        "2463": 38,
        "2464": 108,
        "2465": 234,
        "2466": 234,
        "2467": 39,
        "2468": 136,
        "2469": 19,
        "2470": 173,
        "2471": 49,
        "2472": 167,
        "2473": 127,
        "2474": 64,
        "2475": 214,
        "2476": 105,
        "2477": 106,
        "2478": 202,
        "2479": 122,
        "2480": 188,
        "2481": 13,
        "2482": 188,
        "2483": 155,
        "2484": 43,
        "2485": 18,
        "2486": 132,
        "2487": 150,
        "2488": 102,
        "2489": 255,
        "2490": 51,
        "2491": 214,
        "2492": 249,
        "2493": 62,
        "2494": 81,
        "2495": 8,
        "2496": 248,
        "2497": 212,
        "2498": 157,
        "2499": 177,
        "2500": 102,
        "2501": 130,
        "2502": 141,
        "2503": 198,
        "2504": 35,
        "2505": 179,
        "2506": 73,
        "2507": 91,
        "2508": 212,
        "2509": 146,
        "2510": 155,
        "2511": 210,
        "2512": 171,
        "2513": 3,
        "2514": 4,
        "2515": 243,
        "2516": 247,
        "2517": 106,
        "2518": 175,
        "2519": 8,
        "2520": 63,
        "2521": 19,
        "2522": 159,
        "2523": 115,
        "2524": 228,
        "2525": 45,
        "2526": 231,
        "2527": 74,
        "2528": 102,
        "2529": 176,
        "2530": 211,
        "2531": 101,
        "2532": 216,
        "2533": 38,
        "2534": 58,
        "2535": 212,
        "2536": 120,
        "2537": 98,
        "2538": 140,
        "2539": 37,
        "2540": 59,
        "2541": 145,
        "2542": 125,
        "2543": 247,
        "2544": 134,
        "2545": 110,
        "2546": 166,
        "2547": 100,
        "2548": 217,
        "2549": 237,
        "2550": 23,
        "2551": 63,
        "2552": 89,
        "2553": 229,
        "2554": 33,
        "2555": 59,
        "2556": 114,
        "2557": 13,
        "2558": 223,
        "2559": 183,
        "2560": 205,
        "2561": 41,
        "2562": 164,
        "2563": 248,
        "2564": 193,
        "2565": 24,
        "2566": 82,
        "2567": 199,
        "2568": 219,
        "2569": 61,
        "2570": 97,
        "2571": 44,
        "2572": 44,
        "2573": 119,
        "2574": 147,
        "2575": 2,
        "2576": 229,
        "2577": 56,
        "2578": 118,
        "2579": 51,
        "2580": 2,
        "2581": 170,
        "2582": 245,
        "2583": 45,
        "2584": 104,
        "2585": 26,
        "2586": 206,
        "2587": 188,
        "2588": 25,
        "2589": 219,
        "2590": 157,
        "2591": 59,
        "2592": 200,
        "2593": 168,
        "2594": 238,
        "2595": 186,
        "2596": 111,
        "2597": 46,
        "2598": 242,
        "2599": 39,
        "2600": 110,
        "2601": 21,
        "2602": 114,
        "2603": 220,
        "2604": 105,
        "2605": 26,
        "2606": 49,
        "2607": 32,
        "2608": 199,
        "2609": 16,
        "2610": 130,
        "2611": 27,
        "2612": 253,
        "2613": 77,
        "2614": 117,
        "2615": 236,
        "2616": 143,
        "2617": 93,
        "2618": 21,
        "2619": 61,
        "2620": 245,
        "2621": 205,
        "2622": 202,
        "2623": 41,
        "2624": 162,
        "2625": 76,
        "2626": 181,
        "2627": 124,
        "2628": 84,
        "2629": 148,
        "2630": 230,
        "2631": 85,
        "2632": 189,
        "2633": 137,
        "2634": 254,
        "2635": 231,
        "2636": 11,
        "2637": 170,
        "2638": 53,
        "2639": 105,
        "2640": 136,
        "2641": 76,
        "2642": 53,
        "2643": 132,
        "2644": 158,
        "2645": 132,
        "2646": 157,
        "2647": 34,
        "2648": 47,
        "2649": 28,
        "2650": 173,
        "2651": 47,
        "2652": 109,
        "2653": 249,
        "2654": 102,
        "2655": 224,
        "2656": 66,
        "2657": 3,
        "2658": 26,
        "2659": 144,
        "2660": 150,
        "2661": 127,
        "2662": 223,
        "2663": 75,
        "2664": 106,
        "2665": 217,
        "2666": 137,
        "2667": 51,
        "2668": 255,
        "2669": 24,
        "2670": 6,
        "2671": 213,
        "2672": 189,
        "2673": 177,
        "2674": 63,
        "2675": 199,
        "2676": 64,
        "2677": 190,
        "2678": 143,
        "2679": 58,
        "2680": 36,
        "2681": 108,
        "2682": 28,
        "2683": 35,
        "2684": 92,
        "2685": 207,
        "2686": 97,
        "2687": 2,
        "2688": 19,
        "2689": 1,
        "2690": 86,
        "2691": 216,
        "2692": 214,
        "2693": 5,
        "2694": 32,
        "2695": 238,
        "2696": 253,
        "2697": 34,
        "2698": 220,
        "2699": 228,
        "2700": 167,
        "2701": 113,
        "2702": 219,
        "2703": 215,
        "2704": 15,
        "2705": 49,
        "2706": 92,
        "2707": 93,
        "2708": 137,
        "2709": 188,
        "2710": 189,
        "2711": 184,
        "2712": 182,
        "2713": 222,
        "2714": 14,
        "2715": 13,
        "2716": 200,
        "2717": 66,
        "2718": 110,
        "2719": 44,
        "2720": 218,
        "2721": 112,
        "2722": 90,
        "2723": 126,
        "2724": 134,
        "2725": 76,
        "2726": 54,
        "2727": 52,
        "2728": 162,
        "2729": 43,
        "2730": 3,
        "2731": 79,
        "2732": 117,
        "2733": 106,
        "2734": 152,
        "2735": 77,
        "2736": 99,
        "2737": 26,
        "2738": 58,
        "2739": 72,
        "2740": 102,
        "2741": 210,
        "2742": 75,
        "2743": 203,
        "2744": 127,
        "2745": 210,
        "2746": 103,
        "2747": 33,
        "2748": 238,
        "2749": 248,
        "2750": 29,
        "2751": 150,
        "2752": 84,
        "2753": 253,
        "2754": 127,
        "2755": 252,
        "2756": 50,
        "2757": 168,
        "2758": 239,
        "2759": 228,
        "2760": 1,
        "2761": 204,
        "2762": 176,
        "2763": 83,
        "2764": 227,
        "2765": 217,
        "2766": 251,
        "2767": 146,
        "2768": 182,
        "2769": 184,
        "2770": 7,
        "2771": 25,
        "2772": 230,
        "2773": 73,
        "2774": 18,
        "2775": 173,
        "2776": 142,
        "2777": 16,
        "2778": 178,
        "2779": 73,
        "2780": 105,
        "2781": 72,
        "2782": 202,
        "2783": 154,
        "2784": 48,
        "2785": 23,
        "2786": 120,
        "2787": 254,
        "2788": 121,
        "2789": 220,
        "2790": 209,
        "2791": 193,
        "2792": 36,
        "2793": 2,
        "2794": 77,
        "2795": 133,
        "2796": 177,
        "2797": 93,
        "2798": 103,
        "2799": 120,
        "2800": 108,
        "2801": 53,
        "2802": 27,
        "2803": 227,
        "2804": 24,
        "2805": 63,
        "2806": 84,
        "2807": 151,
        "2808": 103,
        "2809": 139,
        "2810": 221,
        "2811": 188,
        "2812": 105,
        "2813": 168,
        "2814": 2,
        "2815": 172,
        "2816": 98,
        "2817": 34,
        "2818": 58,
        "2819": 208,
        "2820": 82,
        "2821": 183,
        "2822": 183,
        "2823": 159,
        "2824": 164,
        "2825": 237,
        "2826": 131,
        "2827": 23,
        "2828": 127,
        "2829": 195,
        "2830": 1,
        "2831": 121,
        "2832": 205,
        "2833": 253,
        "2834": 224,
        "2835": 53,
        "2836": 144,
        "2837": 113,
        "2838": 75,
        "2839": 116,
        "2840": 130,
        "2841": 74,
        "2842": 208,
        "2843": 238,
        "2844": 74,
        "2845": 240,
        "2846": 135,
        "2847": 233,
        "2848": 159,
        "2849": 26,
        "2850": 154,
        "2851": 25,
        "2852": 71,
        "2853": 32,
        "2854": 221,
        "2855": 197,
        "2856": 153,
        "2857": 104,
        "2858": 235,
        "2859": 106,
        "2860": 102,
        "2861": 120,
        "2862": 206,
        "2863": 155,
        "2864": 155,
        "2865": 176,
        "2866": 104,
        "2867": 127,
        "2868": 124,
        "2869": 245,
        "2870": 32,
        "2871": 0,
        "2872": 219,
        "2873": 217,
        "2874": 166,
        "2875": 117,
        "2876": 207,
        "2877": 64,
        "2878": 117,
        "2879": 35,
        "2880": 24,
        "2881": 14,
        "2882": 58,
        "2883": 194,
        "2884": 10,
        "2885": 170,
        "2886": 32,
        "2887": 93,
        "2888": 247,
        "2889": 176,
        "2890": 218,
        "2891": 208,
        "2892": 183,
        "2893": 3,
        "2894": 33,
        "2895": 33,
        "2896": 133,
        "2897": 79,
        "2898": 72,
        "2899": 203,
        "2900": 108,
        "2901": 41,
        "2902": 193,
        "2903": 54,
        "2904": 181,
        "2905": 44,
        "2906": 48,
        "2907": 234,
        "2908": 96,
        "2909": 254,
        "2910": 166,
        "2911": 7,
        "2912": 26,
        "2913": 148,
        "2914": 142,
        "2915": 188,
        "2916": 124,
        "2917": 185,
        "2918": 66,
        "2919": 104,
        "2920": 32,
        "2921": 131,
        "2922": 90,
        "2923": 75,
        "2924": 249,
        "2925": 164,
        "2926": 215,
        "2927": 1,
        "2928": 115,
        "2929": 234,
        "2930": 145,
        "2931": 118,
        "2932": 153,
        "2933": 130,
        "2934": 255,
        "2935": 94,
        "2936": 71,
        "2937": 75,
        "2938": 227,
        "2939": 176,
        "2940": 148,
        "2941": 68,
        "2942": 228,
        "2943": 59,
        "2944": 9,
        "2945": 194,
        "2946": 162,
        "2947": 201,
        "2948": 94,
        "2949": 241,
        "2950": 230,
        "2951": 99,
        "2952": 225,
        "2953": 160,
        "2954": 114,
        "2955": 93,
        "2956": 246,
        "2957": 223,
        "2958": 40,
        "2959": 160,
        "2960": 131,
        "2961": 111,
        "2962": 26,
        "2963": 59,
        "2964": 23,
        "2965": 16,
        "2966": 135,
        "2967": 171,
        "2968": 97,
        "2969": 103,
        "2970": 107,
        "2971": 198,
        "2972": 72,
        "2973": 147,
        "2974": 241,
        "2975": 235,
        "2976": 180,
        "2977": 142,
        "2978": 70,
        "2979": 9,
        "2980": 64,
        "2981": 36,
        "2982": 140,
        "2983": 40,
        "2984": 196,
        "2985": 68,
        "2986": 3,
        "2987": 201,
        "2988": 158,
        "2989": 91,
        "2990": 179,
        "2991": 220,
        "2992": 66,
        "2993": 201,
        "2994": 77,
        "2995": 49,
        "2996": 240,
        "2997": 30,
        "2998": 69,
        "2999": 244,
        "3000": 118,
        "3001": 104,
        "3002": 221,
        "3003": 214,
        "3004": 155,
        "3005": 200,
        "3006": 107,
        "3007": 92,
        "3008": 231,
        "3009": 167,
        "3010": 242,
        "3011": 34,
        "3012": 75,
        "3013": 92,
        "3014": 187,
        "3015": 138,
        "3016": 203,
        "3017": 222,
        "3018": 91,
        "3019": 31,
        "3020": 114,
        "3021": 209,
        "3022": 5,
        "3023": 145,
        "3024": 147,
        "3025": 127,
        "3026": 143,
        "3027": 17,
        "3028": 175,
        "3029": 10,
        "3030": 225,
        "3031": 151,
        "3032": 124,
        "3033": 42,
        "3034": 238,
        "3035": 193,
        "3036": 159,
        "3037": 182,
        "3038": 138,
        "3039": 146,
        "3040": 140,
        "3041": 180,
        "3042": 119,
        "3043": 187,
        "3044": 45,
        "3045": 244,
        "3046": 118,
        "3047": 164,
        "3048": 57,
        "3049": 156,
        "3050": 153,
        "3051": 5,
        "3052": 98,
        "3053": 145,
        "3054": 179,
        "3055": 92,
        "3056": 121,
        "3057": 85,
        "3058": 113,
        "3059": 106,
        "3060": 198,
        "3061": 223,
        "3062": 231,
        "3063": 49,
        "3064": 169,
        "3065": 169,
        "3066": 55,
        "3067": 63,
        "3068": 3,
        "3069": 124,
        "3070": 127,
        "3071": 91,
        "3072": 254,
        "3073": 192,
        "3074": 89,
        "3075": 1,
        "3076": 214,
        "3077": 53,
        "3078": 120,
        "3079": 76,
        "3080": 191,
        "3081": 101,
        "3082": 246,
        "3083": 167,
        "3084": 61,
        "3085": 130,
        "3086": 244,
        "3087": 156,
        "3088": 201,
        "3089": 53,
        "3090": 194,
        "3091": 221,
        "3092": 13,
        "3093": 33,
        "3094": 29,
        "3095": 81,
        "3096": 83,
        "3097": 159,
        "3098": 8,
        "3099": 143,
        "3100": 70,
        "3101": 80,
        "3102": 65,
        "3103": 144,
        "3104": 100,
        "3105": 145,
        "3106": 62,
        "3107": 212,
        "3108": 57,
        "3109": 139,
        "3110": 80,
        "3111": 154,
        "3112": 93,
        "3113": 194,
        "3114": 105,
        "3115": 68,
        "3116": 232,
        "3117": 201,
        "3118": 132,
        "3119": 47,
        "3120": 56,
        "3121": 137,
        "3122": 49,
        "3123": 63,
        "3124": 149,
        "3125": 122,
        "3126": 134,
        "3127": 152,
        "3128": 57,
        "3129": 68,
        "3130": 89,
        "3131": 120,
        "3132": 179,
        "3133": 77,
        "3134": 37,
        "3135": 210,
        "3136": 86,
        "3137": 178,
        "3138": 148,
        "3139": 250,
        "3140": 113,
        "3141": 93,
        "3142": 219,
        "3143": 153,
        "3144": 102,
        "3145": 252,
        "3146": 108,
        "3147": 246,
        "3148": 106,
        "3149": 145,
        "3150": 110,
        "3151": 249,
        "3152": 175,
        "3153": 35,
        "3154": 26,
        "3155": 57,
        "3156": 13,
        "3157": 40,
        "3158": 52,
        "3159": 233,
        "3160": 169,
        "3161": 192,
        "3162": 137,
        "3163": 226,
        "3164": 224,
        "3165": 74,
        "3166": 128,
        "3167": 245,
        "3168": 175,
        "3169": 63,
        "3170": 36,
        "3171": 36,
        "3172": 126,
        "3173": 41,
        "3174": 148,
        "3175": 4,
        "3176": 183,
        "3177": 233,
        "3178": 240,
        "3179": 105,
        "3180": 104,
        "3181": 68,
        "3182": 56,
        "3183": 201,
        "3184": 226,
        "3185": 229,
        "3186": 245,
        "3187": 139,
        "3188": 78,
        "3189": 251,
        "3190": 251,
        "3191": 96,
        "3192": 93,
        "3193": 198,
        "3194": 97,
        "3195": 121,
        "3196": 86,
        "3197": 158,
        "3198": 203,
        "3199": 216,
        "3200": 155,
        "3201": 8,
        "3202": 230,
        "3203": 206,
        "3204": 78,
        "3205": 37,
        "3206": 6,
        "3207": 222,
        "3208": 187,
        "3209": 255,
        "3210": 175,
        "3211": 33,
        "3212": 87,
        "3213": 69,
        "3214": 107,
        "3215": 86,
        "3216": 146,
        "3217": 76,
        "3218": 61,
        "3219": 147,
        "3220": 237,
        "3221": 18,
        "3222": 176,
        "3223": 135,
        "3224": 203,
        "3225": 185,
        "3226": 215,
        "3227": 130,
        "3228": 101,
        "3229": 247,
        "3230": 183,
        "3231": 182,
        "3232": 60,
        "3233": 251,
        "3234": 1,
        "3235": 186,
        "3236": 116,
        "3237": 111,
        "3238": 178,
        "3239": 160,
        "3240": 146,
        "3241": 250,
        "3242": 96,
        "3243": 186,
        "3244": 75,
        "3245": 252,
        "3246": 48,
        "3247": 214,
        "3248": 74,
        "3249": 183,
        "3250": 169,
        "3251": 204,
        "3252": 17,
        "3253": 186,
        "3254": 55,
        "3255": 56,
        "3256": 196,
        "3257": 25,
        "3258": 151,
        "3259": 199,
        "3260": 109,
        "3261": 122,
        "3262": 44,
        "3263": 4,
        "3264": 129,
        "3265": 7,
        "3266": 3,
        "3267": 105,
        "3268": 102,
        "3269": 79,
        "3270": 142,
        "3271": 136,
        "3272": 158,
        "3273": 82,
        "3274": 74,
        "3275": 49,
        "3276": 166,
        "3277": 241,
        "3278": 67,
        "3279": 218,
        "3280": 162,
        "3281": 24,
        "3282": 49,
        "3283": 249,
        "3284": 174,
        "3285": 191,
        "3286": 28,
        "3287": 0,
        "3288": 95,
        "3289": 189,
        "3290": 31,
        "3291": 5,
        "3292": 115,
        "3293": 187,
        "3294": 246,
        "3295": 253,
        "3296": 237,
        "3297": 245,
        "3298": 251,
        "3299": 185,
        "3300": 173,
        "3301": 88,
        "3302": 191,
        "3303": 141,
        "3304": 212,
        "3305": 8,
        "3306": 190,
        "3307": 246,
        "3308": 136,
        "3309": 22,
        "3310": 152,
        "3311": 82,
        "3312": 7,
        "3313": 78,
        "3314": 16,
        "3315": 255,
        "3316": 68,
        "3317": 148,
        "3318": 58,
        "3319": 183,
        "3320": 195,
        "3321": 97,
        "3322": 214,
        "3323": 100,
        "3324": 119,
        "3325": 59,
        "3326": 244,
        "3327": 153,
        "3328": 96,
        "3329": 103,
        "3330": 247,
        "3331": 1,
        "3332": 41,
        "3333": 219,
        "3334": 138,
        "3335": 191,
        "3336": 163,
        "3337": 170,
        "3338": 81,
        "3339": 210,
        "3340": 253,
        "3341": 132,
        "3342": 55,
        "3343": 60,
        "3344": 6,
        "3345": 0,
        "3346": 169,
        "3347": 184,
        "3348": 118,
        "3349": 109,
        "3350": 217,
        "3351": 77,
        "3352": 90,
        "3353": 211,
        "3354": 49,
        "3355": 46,
        "3356": 30,
        "3357": 95,
        "3358": 8,
        "3359": 43,
        "3360": 200,
        "3361": 218,
        "3362": 73,
        "3363": 112,
        "3364": 42,
        "3365": 201,
        "3366": 126,
        "3367": 97,
        "3368": 238,
        "3369": 75,
        "3370": 99,
        "3371": 21,
        "3372": 70,
        "3373": 125,
        "3374": 208,
        "3375": 112,
        "3376": 203,
        "3377": 141,
        "3378": 55,
        "3379": 86,
        "3380": 135,
        "3381": 184,
        "3382": 74,
        "3383": 195,
        "3384": 251,
        "3385": 149,
        "3386": 62,
        "3387": 200,
        "3388": 165,
        "3389": 77,
        "3390": 23,
        "3391": 81,
        "3392": 55,
        "3393": 153,
        "3394": 42,
        "3395": 3,
        "3396": 250,
        "3397": 253,
        "3398": 218,
        "3399": 174,
        "3400": 186,
        "3401": 109,
        "3402": 88,
        "3403": 97,
        "3404": 248,
        "3405": 147,
        "3406": 82,
        "3407": 88,
        "3408": 39,
        "3409": 234,
        "3410": 32,
        "3411": 130,
        "3412": 233,
        "3413": 244,
        "3414": 233,
        "3415": 22,
        "3416": 138,
        "3417": 57,
        "3418": 60,
        "3419": 33,
        "3420": 101,
        "3421": 142,
        "3422": 241,
        "3423": 224,
        "3424": 160,
        "3425": 180,
        "3426": 77,
        "3427": 224,
        "3428": 16,
        "3429": 98,
        "3430": 85,
        "3431": 227,
        "3432": 180,
        "3433": 192,
        "3434": 247,
        "3435": 62,
        "3436": 49,
        "3437": 223,
        "3438": 39,
        "3439": 69,
        "3440": 153,
        "3441": 239,
        "3442": 70,
        "3443": 23,
        "3444": 81,
        "3445": 53,
        "3446": 99,
        "3447": 48,
        "3448": 14,
        "3449": 189,
        "3450": 239,
        "3451": 39,
        "3452": 251,
        "3453": 56,
        "3454": 251,
        "3455": 50,
        "3456": 73,
        "3457": 208,
        "3458": 35,
        "3459": 221,
        "3460": 83,
        "3461": 171,
        "3462": 237,
        "3463": 177,
        "3464": 20,
        "3465": 255,
        "3466": 116,
        "3467": 17,
        "3468": 241,
        "3469": 220,
        "3470": 125,
        "3471": 229,
        "3472": 50,
        "3473": 255,
        "3474": 177,
        "3475": 162,
        "3476": 102,
        "3477": 45,
        "3478": 237,
        "3479": 236,
        "3480": 250,
        "3481": 222,
        "3482": 28,
        "3483": 161,
        "3484": 221,
        "3485": 139,
        "3486": 192,
        "3487": 225,
        "3488": 241,
        "3489": 136,
        "3490": 4,
        "3491": 218,
        "3492": 72,
        "3493": 62,
        "3494": 177,
        "3495": 98,
        "3496": 125,
        "3497": 55,
        "3498": 33,
        "3499": 250,
        "3500": 215,
        "3501": 52,
        "3502": 189,
        "3503": 116,
        "3504": 221,
        "3505": 198,
        "3506": 147,
        "3507": 78,
        "3508": 47,
        "3509": 85,
        "3510": 181,
        "3511": 76,
        "3512": 162,
        "3513": 87,
        "3514": 71,
        "3515": 148,
        "3516": 171,
        "3517": 237,
        "3518": 79,
        "3519": 0,
        "3520": 106,
        "3521": 197,
        "3522": 167,
        "3523": 213,
        "3524": 189,
        "3525": 191,
        "3526": 123,
        "3527": 56,
        "3528": 91,
        "3529": 22,
        "3530": 88,
        "3531": 123,
        "3532": 14,
        "3533": 241,
        "3534": 136,
        "3535": 88,
        "3536": 105,
        "3537": 26,
        "3538": 110,
        "3539": 109,
        "3540": 176,
        "3541": 154,
        "3542": 133,
        "3543": 102,
        "3544": 132,
        "3545": 132,
        "3546": 95,
        "3547": 121,
        "3548": 160,
        "3549": 141,
        "3550": 116,
        "3551": 192,
        "3552": 253,
        "3553": 99,
        "3554": 134,
        "3555": 225,
        "3556": 28,
        "3557": 1,
        "3558": 62,
        "3559": 76,
        "3560": 20,
        "3561": 168,
        "3562": 225,
        "3563": 131,
        "3564": 39,
        "3565": 225,
        "3566": 255,
        "3567": 171,
        "3568": 253,
        "3569": 31,
        "3570": 132,
        "3571": 93,
        "3572": 96,
        "3573": 177,
        "3574": 81,
        "3575": 44,
        "3576": 146,
        "3577": 99,
        "3578": 155,
        "3579": 162,
        "3580": 147,
        "3581": 198,
        "3582": 229,
        "3583": 152,
        "3584": 60,
        "3585": 181,
        "3586": 106,
        "3587": 103,
        "3588": 43,
        "3589": 153,
        "3590": 120,
        "3591": 180,
        "3592": 225,
        "3593": 207,
        "3594": 183,
        "3595": 179,
        "3596": 174,
        "3597": 227,
        "3598": 4,
        "3599": 161,
        "3600": 170,
        "3601": 175,
        "3602": 26,
        "3603": 157,
        "3604": 0,
        "3605": 171,
        "3606": 135,
        "3607": 228,
        "3608": 219,
        "3609": 228,
        "3610": 135,
        "3611": 254,
        "3612": 59,
        "3613": 253,
        "3614": 51,
        "3615": 229,
        "3616": 11,
        "3617": 247,
        "3618": 247,
        "3619": 153,
        "3620": 230,
        "3621": 87,
        "3622": 144,
        "3623": 139,
        "3624": 23,
        "3625": 187,
        "3626": 225,
        "3627": 3,
        "3628": 40,
        "3629": 114,
        "3630": 188,
        "3631": 93,
        "3632": 200,
        "3633": 200,
        "3634": 9,
        "3635": 39,
        "3636": 64,
        "3637": 167,
        "3638": 71,
        "3639": 25,
        "3640": 32,
        "3641": 193,
        "3642": 113,
        "3643": 89,
        "3644": 185,
        "3645": 151,
        "3646": 55,
        "3647": 135,
        "3648": 122,
        "3649": 174,
        "3650": 195,
        "3651": 251,
        "3652": 223,
        "3653": 163,
        "3654": 64,
        "3655": 128,
        "3656": 250,
        "3657": 184,
        "3658": 43,
        "3659": 106,
        "3660": 238,
        "3661": 131,
        "3662": 31,
        "3663": 78,
        "3664": 165,
        "3665": 5,
        "3666": 211,
        "3667": 60,
        "3668": 152,
        "3669": 68,
        "3670": 51,
        "3671": 150,
        "3672": 174,
        "3673": 184,
        "3674": 49,
        "3675": 132,
        "3676": 104,
        "3677": 172,
        "3678": 0,
        "3679": 215,
        "3680": 41,
        "3681": 121,
        "3682": 193,
        "3683": 154,
        "3684": 20,
        "3685": 88,
        "3686": 59,
        "3687": 148,
        "3688": 99,
        "3689": 93,
        "3690": 250,
        "3691": 185,
        "3692": 227,
        "3693": 182,
        "3694": 9,
        "3695": 48,
        "3696": 123,
        "3697": 1,
        "3698": 161,
        "3699": 19,
        "3700": 225,
        "3701": 56,
        "3702": 129,
        "3703": 76,
        "3704": 191,
        "3705": 148,
        "3706": 157,
        "3707": 210,
        "3708": 81,
        "3709": 85,
        "3710": 39,
        "3711": 44,
        "3712": 176,
        "3713": 43,
        "3714": 145,
        "3715": 145,
        "3716": 29,
        "3717": 81,
        "3718": 233,
        "3719": 211,
        "3720": 24,
        "3721": 243,
        "3722": 64,
        "3723": 144,
        "3724": 80,
        "3725": 190,
        "3726": 151,
        "3727": 74,
        "3728": 253,
        "3729": 228,
        "3730": 17,
        "3731": 27,
        "3732": 239,
        "3733": 176,
        "3734": 74,
        "3735": 232,
        "3736": 250,
        "3737": 110,
        "3738": 104,
        "3739": 142,
        "3740": 74,
        "3741": 63,
        "3742": 41,
        "3743": 230,
        "3744": 91,
        "3745": 134,
        "3746": 87,
        "3747": 146,
        "3748": 212,
        "3749": 0,
        "3750": 232,
        "3751": 243,
        "3752": 227,
        "3753": 117,
        "3754": 149,
        "3755": 232,
        "3756": 41,
        "3757": 60,
        "3758": 151,
        "3759": 115,
        "3760": 89,
        "3761": 79,
        "3762": 197,
        "3763": 146,
        "3764": 244,
        "3765": 216,
        "3766": 111,
        "3767": 57,
        "3768": 83,
        "3769": 156,
        "3770": 89,
        "3771": 76,
        "3772": 103,
        "3773": 209,
        "3774": 90,
        "3775": 82,
        "3776": 29,
        "3777": 174,
        "3778": 12,
        "3779": 219,
        "3780": 62,
        "3781": 119,
        "3782": 43,
        "3783": 104,
        "3784": 245,
        "3785": 183,
        "3786": 172,
        "3787": 32,
        "3788": 207,
        "3789": 102,
        "3790": 205,
        "3791": 120,
        "3792": 94,
        "3793": 251,
        "3794": 211,
        "3795": 77,
        "3796": 207,
        "3797": 250,
        "3798": 57,
        "3799": 138,
        "3800": 105,
        "3801": 210,
        "3802": 56,
        "3803": 78,
        "3804": 201,
        "3805": 80,
        "3806": 41,
        "3807": 13,
        "3808": 218,
        "3809": 61,
        "3810": 47,
        "3811": 143,
        "3812": 223,
        "3813": 171,
        "3814": 208,
        "3815": 89,
        "3816": 76,
        "3817": 13,
        "3818": 150,
        "3819": 141,
        "3820": 56,
        "3821": 12,
        "3822": 237,
        "3823": 178,
        "3824": 190,
        "3825": 224,
        "3826": 120,
        "3827": 195,
        "3828": 203,
        "3829": 242,
        "3830": 18,
        "3831": 246,
        "3832": 164,
        "3833": 153,
        "3834": 125,
        "3835": 213,
        "3836": 64,
        "3837": 234,
        "3838": 102,
        "3839": 17,
        "3840": 48,
        "3841": 160,
        "3842": 147,
        "3843": 99,
        "3844": 210,
        "3845": 58,
        "3846": 55,
        "3847": 220,
        "3848": 187,
        "3849": 13,
        "3850": 85,
        "3851": 58,
        "3852": 98,
        "3853": 45,
        "3854": 5,
        "3855": 163,
        "3856": 117,
        "3857": 233,
        "3858": 206,
        "3859": 174,
        "3860": 152,
        "3861": 170,
        "3862": 232,
        "3863": 161,
        "3864": 178,
        "3865": 202,
        "3866": 133,
        "3867": 8,
        "3868": 205,
        "3869": 65,
        "3870": 135,
        "3871": 239,
        "3872": 152,
        "3873": 210,
        "3874": 217,
        "3875": 191,
        "3876": 32,
        "3877": 151,
        "3878": 46,
        "3879": 233,
        "3880": 222,
        "3881": 75,
        "3882": 198,
        "3883": 135,
        "3884": 156,
        "3885": 43,
        "3886": 98,
        "3887": 237,
        "3888": 160,
        "3889": 193,
        "3890": 151,
        "3891": 19,
        "3892": 97,
        "3893": 62,
        "3894": 213,
        "3895": 21,
        "3896": 98,
        "3897": 242,
        "3898": 222,
        "3899": 255,
        "3900": 28,
        "3901": 200,
        "3902": 210,
        "3903": 205,
        "3904": 63,
        "3905": 121,
        "3906": 217,
        "3907": 149,
        "3908": 21,
        "3909": 180,
        "3910": 91,
        "3911": 143,
        "3912": 212,
        "3913": 249,
        "3914": 48,
        "3915": 33,
        "3916": 188,
        "3917": 97,
        "3918": 121,
        "3919": 38,
        "3920": 84,
        "3921": 63,
        "3922": 35,
        "3923": 124,
        "3924": 17,
        "3925": 46,
        "3926": 228,
        "3927": 136,
        "3928": 212,
        "3929": 51,
        "3930": 39,
        "3931": 219,
        "3932": 69,
        "3933": 175,
        "3934": 203,
        "3935": 163,
        "3936": 27,
        "3937": 75,
        "3938": 2,
        "3939": 164,
        "3940": 170,
        "3941": 46,
        "3942": 212,
        "3943": 144,
        "3944": 206,
        "3945": 208,
        "3946": 49,
        "3947": 102,
        "3948": 65,
        "3949": 96,
        "3950": 245,
        "3951": 147,
        "3952": 252,
        "3953": 126,
        "3954": 24,
        "3955": 21,
        "3956": 159,
        "3957": 208,
        "3958": 117,
        "3959": 75,
        "3960": 67,
        "3961": 200,
        "3962": 234,
        "3963": 0,
        "3964": 10,
        "3965": 150,
        "3966": 56,
        "3967": 43,
        "3968": 250,
        "3969": 71,
        "3970": 233,
        "3971": 225,
        "3972": 75,
        "3973": 213,
        "3974": 160,
        "3975": 115,
        "3976": 55,
        "3977": 22,
        "3978": 68,
        "3979": 168,
        "3980": 39,
        "3981": 129,
        "3982": 17,
        "3983": 184,
        "3984": 99,
        "3985": 223,
        "3986": 225,
        "3987": 3,
        "3988": 255,
        "3989": 104,
        "3990": 93,
        "3991": 96,
        "3992": 113,
        "3993": 189,
        "3994": 212,
        "3995": 72,
        "3996": 206,
        "3997": 233,
        "3998": 172,
        "3999": 36,
        "4000": 112,
        "4001": 177,
        "4002": 222,
        "4003": 25,
        "4004": 128,
        "4005": 73,
        "4006": 197,
        "4007": 196,
        "4008": 107,
        "4009": 101,
        "4010": 173,
        "4011": 97,
        "4012": 211,
        "4013": 156,
        "4014": 28,
        "4015": 247,
        "4016": 106,
        "4017": 240,
        "4018": 90,
        "4019": 72,
        "4020": 5,
        "4021": 112,
        "4022": 77,
        "4023": 23,
        "4024": 165,
        "4025": 254,
        "4026": 90,
        "4027": 140,
        "4028": 132,
        "4029": 187,
        "4030": 24,
        "4031": 219,
        "4032": 129,
        "4033": 220,
        "4034": 182,
        "4035": 84,
        "4036": 199,
        "4037": 31,
        "4038": 125,
        "4039": 46,
        "4040": 206,
        "4041": 72,
        "4042": 162,
        "4043": 239,
        "4044": 11,
        "4045": 155,
        "4046": 85,
        "4047": 87,
        "4048": 176,
        "4049": 226,
        "4050": 72,
        "4051": 238,
        "4052": 146,
        "4053": 115,
        "4054": 141,
        "4055": 7,
        "4056": 193,
        "4057": 214,
        "4058": 232,
        "4059": 82,
        "4060": 4,
        "4061": 242,
        "4062": 36,
        "4063": 234,
        "4064": 105,
        "4065": 63,
        "4066": 206,
        "4067": 156,
        "4068": 121,
        "4069": 118,
        "4070": 121,
        "4071": 2,
        "4072": 1,
        "4073": 153,
        "4074": 13,
        "4075": 229,
        "4076": 149,
        "4077": 205,
        "4078": 49,
        "4079": 194,
        "4080": 80,
        "4081": 168,
        "4082": 123,
        "4083": 193,
        "4084": 81,
        "4085": 252,
        "4086": 242,
        "4087": 248,
        "4088": 249,
        "4089": 139,
        "4090": 38,
        "4091": 235,
        "4092": 103,
        "4093": 190,
        "4094": 190,
        "4095": 147,
        "4096": 219,
        "4097": 134,
        "4098": 28,
        "4099": 223,
        "4100": 96,
        "4101": 142,
        "4102": 209,
        "4103": 235,
        "4104": 147,
        "4105": 170,
        "4106": 56,
        "4107": 24,
        "4108": 219,
        "4109": 192,
        "4110": 90,
        "4111": 85,
        "4112": 242,
        "4113": 136,
        "4114": 92,
        "4115": 75,
        "4116": 38,
        "4117": 5,
        "4118": 247,
        "4119": 32,
        "4120": 203,
        "4121": 37,
        "4122": 125,
        "4123": 162,
        "4124": 246,
        "4125": 161,
        "4126": 11,
        "4127": 231,
        "4128": 255,
        "4129": 109,
        "4130": 193,
        "4131": 204,
        "4132": 14,
        "4133": 46,
        "4134": 113,
        "4135": 151,
        "4136": 108,
        "4137": 65,
        "4138": 196,
        "4139": 133,
        "4140": 58,
        "4141": 131,
        "4142": 249,
        "4143": 89,
        "4144": 177,
        "4145": 122,
        "4146": 13,
        "4147": 1,
        "4148": 87,
        "4149": 219,
        "4150": 186,
        "4151": 126,
        "4152": 253,
        "4153": 216,
        "4154": 117,
        "4155": 160,
        "4156": 32,
        "4157": 49,
        "4158": 51,
        "4159": 227,
        "4160": 107,
        "4161": 131,
        "4162": 64,
        "4163": 218,
        "4164": 14,
        "4165": 130,
        "4166": 197,
        "4167": 145,
        "4168": 227,
        "4169": 123,
        "4170": 162,
        "4171": 226,
        "4172": 24,
        "4173": 215,
        "4174": 17,
        "4175": 222,
        "4176": 6,
        "4177": 89,
        "4178": 165,
        "4179": 34,
        "4180": 141,
        "4181": 2,
        "4182": 135,
        "4183": 177,
        "4184": 155,
        "4185": 150,
        "4186": 238,
        "4187": 169,
        "4188": 152,
        "4189": 53,
        "4190": 225,
        "4191": 32,
        "4192": 66,
        "4193": 253,
        "4194": 255,
        "4195": 21,
        "4196": 95,
        "4197": 209,
        "4198": 197,
        "4199": 123,
        "4200": 19,
        "4201": 209,
        "4202": 251,
        "4203": 230,
        "4204": 184,
        "4205": 89,
        "4206": 169,
        "4207": 205,
        "4208": 134,
        "4209": 73,
        "4210": 137,
        "4211": 213,
        "4212": 30,
        "4213": 180,
        "4214": 201,
        "4215": 114,
        "4216": 135,
        "4217": 56,
        "4218": 170,
        "4219": 98,
        "4220": 50,
        "4221": 24,
        "4222": 187,
        "4223": 242,
        "4224": 197,
        "4225": 233,
        "4226": 100,
        "4227": 53,
        "4228": 130,
        "4229": 53,
        "4230": 206,
        "4231": 64,
        "4232": 202,
        "4233": 38,
        "4234": 231,
        "4235": 200,
        "4236": 166,
        "4237": 73,
        "4238": 85,
        "4239": 217,
        "4240": 58,
        "4241": 209,
        "4242": 76,
        "4243": 18,
        "4244": 167,
        "4245": 91,
        "4246": 30,
        "4247": 214,
        "4248": 220,
        "4249": 154,
        "4250": 46,
        "4251": 29,
        "4252": 254,
        "4253": 246,
        "4254": 231,
        "4255": 232,
        "4256": 213,
        "4257": 6,
        "4258": 85,
        "4259": 126,
        "4260": 117,
        "4261": 91,
        "4262": 168,
        "4263": 92,
        "4264": 237,
        "4265": 99,
        "4266": 249,
        "4267": 12,
        "4268": 212,
        "4269": 166,
        "4270": 151,
        "4271": 84,
        "4272": 49,
        "4273": 92,
        "4274": 88,
        "4275": 47,
        "4276": 214,
        "4277": 58,
        "4278": 66,
        "4279": 237,
        "4280": 139,
        "4281": 162,
        "4282": 143,
        "4283": 174,
        "4284": 103,
        "4285": 44,
        "4286": 158,
        "4287": 102,
        "4288": 44,
        "4289": 43,
        "4290": 25,
        "4291": 146,
        "4292": 4,
        "4293": 237,
        "4294": 209,
        "4295": 107,
        "4296": 226,
        "4297": 7,
        "4298": 20,
        "4299": 33,
        "4300": 28,
        "4301": 55,
        "4302": 12,
        "4303": 90,
        "4304": 248,
        "4305": 164,
        "4306": 160,
        "4307": 251,
        "4308": 163,
        "4309": 18,
        "4310": 186,
        "4311": 160,
        "4312": 29,
        "4313": 62,
        "4314": 134,
        "4315": 198,
        "4316": 94,
        "4317": 25,
        "4318": 22,
        "4319": 57,
        "4320": 207,
        "4321": 48,
        "4322": 74,
        "4323": 245,
        "4324": 48,
        "4325": 135,
        "4326": 129,
        "4327": 103,
        "4328": 91,
        "4329": 157,
        "4330": 36,
        "4331": 70,
        "4332": 21,
        "4333": 9,
        "4334": 98,
        "4335": 73,
        "4336": 82,
        "4337": 97,
        "4338": 220,
        "4339": 54,
        "4340": 81,
        "4341": 156,
        "4342": 113,
        "4343": 44,
        "4344": 92,
        "4345": 82,
        "4346": 194,
        "4347": 212,
        "4348": 158,
        "4349": 183,
        "4350": 112,
        "4351": 44,
        "4352": 107,
        "4353": 75,
        "4354": 238,
        "4355": 56,
        "4356": 51,
        "4357": 215,
        "4358": 157,
        "4359": 231,
        "4360": 192,
        "4361": 71,
        "4362": 61,
        "4363": 215,
        "4364": 54,
        "4365": 1,
        "4366": 100,
        "4367": 143,
        "4368": 27,
        "4369": 161,
        "4370": 94,
        "4371": 146,
        "4372": 54,
        "4373": 237,
        "4374": 41,
        "4375": 51,
        "4376": 187,
        "4377": 118,
        "4378": 64,
        "4379": 223,
        "4380": 75,
        "4381": 57,
        "4382": 235,
        "4383": 245,
        "4384": 54,
        "4385": 19,
        "4386": 40,
        "4387": 152,
        "4388": 212,
        "4389": 46,
        "4390": 101,
        "4391": 227,
        "4392": 249,
        "4393": 184,
        "4394": 171,
        "4395": 225,
        "4396": 36,
        "4397": 214,
        "4398": 216,
        "4399": 111,
        "4400": 222,
        "4401": 133,
        "4402": 187,
        "4403": 170,
        "4404": 246,
        "4405": 239,
        "4406": 162,
        "4407": 85,
        "4408": 199,
        "4409": 73,
        "4410": 181,
        "4411": 99,
        "4412": 127,
        "4413": 71,
        "4414": 245,
        "4415": 67,
        "4416": 149,
        "4417": 200,
        "4418": 85,
        "4419": 102,
        "4420": 129,
        "4421": 127,
        "4422": 212,
        "4423": 137,
        "4424": 141,
        "4425": 141,
        "4426": 198,
        "4427": 73,
        "4428": 249,
        "4429": 244,
        "4430": 249,
        "4431": 248,
        "4432": 166,
        "4433": 46,
        "4434": 142,
        "4435": 155,
        "4436": 162,
        "4437": 106,
        "4438": 38,
        "4439": 145,
        "4440": 130,
        "4441": 74,
        "4442": 123,
        "4443": 226,
        "4444": 178,
        "4445": 58,
        "4446": 55,
        "4447": 133,
        "4448": 87,
        "4449": 70,
        "4450": 66,
        "4451": 32,
        "4452": 34,
        "4453": 252,
        "4454": 48,
        "4455": 62,
        "4456": 136,
        "4457": 72,
        "4458": 233,
        "4459": 203,
        "4460": 103,
        "4461": 186,
        "4462": 91,
        "4463": 93,
        "4464": 181,
        "4465": 130,
        "4466": 47,
        "4467": 243,
        "4468": 231,
        "4469": 18,
        "4470": 255,
        "4471": 94,
        "4472": 193,
        "4473": 36,
        "4474": 50,
        "4475": 122,
        "4476": 86,
        "4477": 175,
        "4478": 183,
        "4479": 181,
        "4480": 176,
        "4481": 220,
        "4482": 57,
        "4483": 221,
        "4484": 230,
        "4485": 212,
        "4486": 86,
        "4487": 169,
        "4488": 3,
        "4489": 101,
        "4490": 159,
        "4491": 70,
        "4492": 125,
        "4493": 171,
        "4494": 9,
        "4495": 131,
        "4496": 9,
        "4497": 220,
        "4498": 246,
        "4499": 66,
        "4500": 209,
        "4501": 141,
        "4502": 0,
        "4503": 39,
        "4504": 122,
        "4505": 45,
        "4506": 222,
        "4507": 106,
        "4508": 73,
        "4509": 2,
        "4510": 55,
        "4511": 118,
        "4512": 231,
        "4513": 89,
        "4514": 193,
        "4515": 213,
        "4516": 146,
        "4517": 32,
        "4518": 28,
        "4519": 194,
        "4520": 76,
        "4521": 60,
        "4522": 149,
        "4523": 43,
        "4524": 123,
        "4525": 10,
        "4526": 201,
        "4527": 251,
        "4528": 107,
        "4529": 193,
        "4530": 1,
        "4531": 125,
        "4532": 83,
        "4533": 105,
        "4534": 232,
        "4535": 99,
        "4536": 220,
        "4537": 167,
        "4538": 74,
        "4539": 10,
        "4540": 156,
        "4541": 152,
        "4542": 33,
        "4543": 79,
        "4544": 225,
        "4545": 37,
        "4546": 228,
        "4547": 127,
        "4548": 47,
        "4549": 253,
        "4550": 131,
        "4551": 85,
        "4552": 171,
        "4553": 154,
        "4554": 30,
        "4555": 152,
        "4556": 82,
        "4557": 9,
        "4558": 180,
        "4559": 243,
        "4560": 163,
        "4561": 121,
        "4562": 106,
        "4563": 177,
        "4564": 164,
        "4565": 197,
        "4566": 192,
        "4567": 198,
        "4568": 216,
        "4569": 183,
        "4570": 120,
        "4571": 62,
        "4572": 4,
        "4573": 108,
        "4574": 34,
        "4575": 70,
        "4576": 225,
        "4577": 136,
        "4578": 205,
        "4579": 87,
        "4580": 134,
        "4581": 203,
        "4582": 8,
        "4583": 42,
        "4584": 13,
        "4585": 43,
        "4586": 244,
        "4587": 103,
        "4588": 62,
        "4589": 250,
        "4590": 209,
        "4591": 107,
        "4592": 56,
        "4593": 197,
        "4594": 119,
        "4595": 194,
        "4596": 129,
        "4597": 182,
        "4598": 153,
        "4599": 139,
        "4600": 138,
        "4601": 204,
        "4602": 219,
        "4603": 159,
        "4604": 197,
        "4605": 58,
        "4606": 150,
        "4607": 240,
        "4608": 230,
        "4609": 103,
        "4610": 244,
        "4611": 16,
        "4612": 67,
        "4613": 211,
        "4614": 245,
        "4615": 60,
        "4616": 123,
        "4617": 226,
        "4618": 127,
        "4619": 194,
        "4620": 226,
        "4621": 135,
        "4622": 122,
        "4623": 166,
        "4624": 239,
        "4625": 79,
        "4626": 239,
        "4627": 194,
        "4628": 3,
        "4629": 109,
        "4630": 215,
        "4631": 225,
        "4632": 57,
        "4633": 242,
        "4634": 46,
        "4635": 103,
        "4636": 69,
        "4637": 178,
        "4638": 47,
        "4639": 44,
        "4640": 57,
        "4641": 52,
        "4642": 170,
        "4643": 211,
        "4644": 183,
        "4645": 149,
        "4646": 173,
        "4647": 50,
        "4648": 204,
        "4649": 15,
        "4650": 159,
        "4651": 220,
        "4652": 236,
        "4653": 39,
        "4654": 189,
        "4655": 6,
        "4656": 116,
        "4657": 123,
        "4658": 231,
        "4659": 173,
        "4660": 99,
        "4661": 117,
        "4662": 183,
        "4663": 129,
        "4664": 116,
        "4665": 152,
        "4666": 149,
        "4667": 206,
        "4668": 154,
        "4669": 56,
        "4670": 66,
        "4671": 50,
        "4672": 83,
        "4673": 166,
        "4674": 222,
        "4675": 105,
        "4676": 30,
        "4677": 96,
        "4678": 110,
        "4679": 179,
        "4680": 143,
        "4681": 8,
        "4682": 36,
        "4683": 21,
        "4684": 102,
        "4685": 58,
        "4686": 71,
        "4687": 215,
        "4688": 146,
        "4689": 135,
        "4690": 111,
        "4691": 64,
        "4692": 82,
        "4693": 90,
        "4694": 215,
        "4695": 49,
        "4696": 230,
        "4697": 140,
        "4698": 136,
        "4699": 12,
        "4700": 65,
        "4701": 117,
        "4702": 120,
        "4703": 222,
        "4704": 8,
        "4705": 108,
        "4706": 91,
        "4707": 58,
        "4708": 127,
        "4709": 252,
        "4710": 76,
        "4711": 53,
        "4712": 71,
        "4713": 83,
        "4714": 52,
        "4715": 199,
        "4716": 254,
        "4717": 68,
        "4718": 93,
        "4719": 209,
        "4720": 236,
        "4721": 225,
        "4722": 38,
        "4723": 117,
        "4724": 193,
        "4725": 41,
        "4726": 150,
        "4727": 88,
        "4728": 169,
        "4729": 154,
        "4730": 156,
        "4731": 37,
        "4732": 112,
        "4733": 157,
        "4734": 128,
        "4735": 103,
        "4736": 164,
        "4737": 252,
        "4738": 57,
        "4739": 23,
        "4740": 162,
        "4741": 59,
        "4742": 75,
        "4743": 19,
        "4744": 108,
        "4745": 229,
        "4746": 40,
        "4747": 67,
        "4748": 106,
        "4749": 177,
        "4750": 160,
        "4751": 122,
        "4752": 57,
        "4753": 180,
        "4754": 89,
        "4755": 54,
        "4756": 214,
        "4757": 92,
        "4758": 38,
        "4759": 140,
        "4760": 173,
        "4761": 113,
        "4762": 48,
        "4763": 215,
        "4764": 107,
        "4765": 20,
        "4766": 104,
        "4767": 173,
        "4768": 229,
        "4769": 64,
        "4770": 252,
        "4771": 218,
        "4772": 150,
        "4773": 149,
        "4774": 30,
        "4775": 3,
        "4776": 109,
        "4777": 43,
        "4778": 245,
        "4779": 40,
        "4780": 132,
        "4781": 112,
        "4782": 158,
        "4783": 253,
        "4784": 161,
        "4785": 57,
        "4786": 194,
        "4787": 169,
        "4788": 67,
        "4789": 245,
        "4790": 250,
        "4791": 191,
        "4792": 6,
        "4793": 100,
        "4794": 174,
        "4795": 105,
        "4796": 85,
        "4797": 78,
        "4798": 39,
        "4799": 247,
        "4800": 207,
        "4801": 224,
        "4802": 207,
        "4803": 153,
        "4804": 136,
        "4805": 130,
        "4806": 63,
        "4807": 11,
        "4808": 145,
        "4809": 70,
        "4810": 149,
        "4811": 179,
        "4812": 7,
        "4813": 192,
        "4814": 152,
        "4815": 211,
        "4816": 18,
        "4817": 161,
        "4818": 12,
        "4819": 158,
        "4820": 34,
        "4821": 84,
        "4822": 189,
        "4823": 92,
        "4824": 3,
        "4825": 149,
        "4826": 172,
        "4827": 193,
        "4828": 178,
        "4829": 29,
        "4830": 183,
        "4831": 218,
        "4832": 54,
        "4833": 244,
        "4834": 167,
        "4835": 25,
        "4836": 85,
        "4837": 20,
        "4838": 156,
        "4839": 73,
        "4840": 26,
        "4841": 189,
        "4842": 222,
        "4843": 95,
        "4844": 27,
        "4845": 250,
        "4846": 96,
        "4847": 238,
        "4848": 56,
        "4849": 126,
        "4850": 65,
        "4851": 16,
        "4852": 42,
        "4853": 48,
        "4854": 131,
        "4855": 201,
        "4856": 96,
        "4857": 53,
        "4858": 45,
        "4859": 33,
        "4860": 149,
        "4861": 205,
        "4862": 63,
        "4863": 161,
        "4864": 246,
        "4865": 65,
        "4866": 174,
        "4867": 225,
        "4868": 73,
        "4869": 198,
        "4870": 121,
        "4871": 35,
        "4872": 170,
        "4873": 193,
        "4874": 60,
        "4875": 32,
        "4876": 157,
        "4877": 114,
        "4878": 237,
        "4879": 166,
        "4880": 51,
        "4881": 254,
        "4882": 192,
        "4883": 208,
        "4884": 14,
        "4885": 109,
        "4886": 5,
        "4887": 211,
        "4888": 137,
        "4889": 36,
        "4890": 150,
        "4891": 230,
        "4892": 113,
        "4893": 190,
        "4894": 177,
        "4895": 145,
        "4896": 89,
        "4897": 211,
        "4898": 194,
        "4899": 21,
        "4900": 136,
        "4901": 52,
        "4902": 40,
        "4903": 61,
        "4904": 134,
        "4905": 226,
        "4906": 230,
        "4907": 92,
        "4908": 18,
        "4909": 163,
        "4910": 156,
        "4911": 76,
        "4912": 7,
        "4913": 207,
        "4914": 132,
        "4915": 119,
        "4916": 37,
        "4917": 206,
        "4918": 238,
        "4919": 248,
        "4920": 226,
        "4921": 42,
        "4922": 194,
        "4923": 8,
        "4924": 143,
        "4925": 11,
        "4926": 227,
        "4927": 49,
        "4928": 62,
        "4929": 213,
        "4930": 250,
        "4931": 251,
        "4932": 251,
        "4933": 67,
        "4934": 173,
        "4935": 69,
        "4936": 175,
        "4937": 165,
        "4938": 192,
        "4939": 151,
        "4940": 182,
        "4941": 139,
        "4942": 221,
        "4943": 92,
        "4944": 194,
        "4945": 36,
        "4946": 57,
        "4947": 224,
        "4948": 84,
        "4949": 222,
        "4950": 30,
        "4951": 190,
        "4952": 49,
        "4953": 7,
        "4954": 30,
        "4955": 161,
        "4956": 204,
        "4957": 116,
        "4958": 135,
        "4959": 115,
        "4960": 67,
        "4961": 22,
        "4962": 201,
        "4963": 248,
        "4964": 205,
        "4965": 212,
        "4966": 188,
        "4967": 28,
        "4968": 194,
        "4969": 23,
        "4970": 14,
        "4971": 101,
        "4972": 14,
        "4973": 194,
        "4974": 208,
        "4975": 196,
        "4976": 11,
        "4977": 148,
        "4978": 37,
        "4979": 223,
        "4980": 155,
        "4981": 57,
        "4982": 242,
        "4983": 204,
        "4984": 97,
        "4985": 184,
        "4986": 128,
        "4987": 141,
        "4988": 56,
        "4989": 68,
        "4990": 173,
        "4991": 70,
        "4992": 122,
        "4993": 157,
        "4994": 239,
        "4995": 15,
        "4996": 30,
        "4997": 108,
        "4998": 206,
        "4999": 129,
        "5000": 215,
        "5001": 167,
        "5002": 1,
        "5003": 21,
        "5004": 96,
        "5005": 32,
        "5006": 129,
        "5007": 100,
        "5008": 18,
        "5009": 163,
        "5010": 238,
        "5011": 117,
        "5012": 129,
        "5013": 171,
        "5014": 89,
        "5015": 54,
        "5016": 80,
        "5017": 166,
        "5018": 248,
        "5019": 57,
        "5020": 217,
        "5021": 86,
        "5022": 116,
        "5023": 252,
        "5024": 145,
        "5025": 72,
        "5026": 252,
        "5027": 169,
        "5028": 213,
        "5029": 42,
        "5030": 214,
        "5031": 29,
        "5032": 48,
        "5033": 8,
        "5034": 157,
        "5035": 161,
        "5036": 183,
        "5037": 76,
        "5038": 126,
        "5039": 174,
        "5040": 112,
        "5041": 245,
        "5042": 90,
        "5043": 196,
        "5044": 250,
        "5045": 130,
        "5046": 233,
        "5047": 164,
        "5048": 59,
        "5049": 78,
        "5050": 58,
        "5051": 183,
        "5052": 75,
        "5053": 39,
        "5054": 140,
        "5055": 221,
        "5056": 192,
        "5057": 234,
        "5058": 236,
        "5059": 247,
        "5060": 154,
        "5061": 217,
        "5062": 231,
        "5063": 146,
        "5064": 108,
        "5065": 40,
        "5066": 69,
        "5067": 207,
        "5068": 136,
        "5069": 143,
        "5070": 61,
        "5071": 135,
        "5072": 213,
        "5073": 21,
        "5074": 24,
        "5075": 11,
        "5076": 57,
        "5077": 160,
        "5078": 66,
        "5079": 192,
        "5080": 42,
        "5081": 251,
        "5082": 96,
        "5083": 107,
        "5084": 172,
        "5085": 213,
        "5086": 142,
        "5087": 80,
        "5088": 185,
        "5089": 214,
        "5090": 147,
        "5091": 12,
        "5092": 145,
        "5093": 44,
        "5094": 88,
        "5095": 87,
        "5096": 126,
        "5097": 200,
        "5098": 18,
        "5099": 123,
        "5100": 226,
        "5101": 221,
        "5102": 136,
        "5103": 253,
        "5104": 140,
        "5105": 154,
        "5106": 0,
        "5107": 160,
        "5108": 10,
        "5109": 61,
        "5110": 10,
        "5111": 178,
        "5112": 16,
        "5113": 134,
        "5114": 92,
        "5115": 104,
        "5116": 77,
        "5117": 63,
        "5118": 168,
        "5119": 250,
        "5120": 8,
        "5121": 135,
        "5122": 32,
        "5123": 32,
        "5124": 5,
        "5125": 182,
        "5126": 244,
        "5127": 6,
        "5128": 33,
        "5129": 36,
        "5130": 22,
        "5131": 231,
        "5132": 154,
        "5133": 193,
        "5134": 106,
        "5135": 106,
        "5136": 252,
        "5137": 46,
        "5138": 194,
        "5139": 133,
        "5140": 76,
        "5141": 148,
        "5142": 162,
        "5143": 177,
        "5144": 164,
        "5145": 165,
        "5146": 27,
        "5147": 131,
        "5148": 72,
        "5149": 214,
        "5150": 244,
        "5151": 43,
        "5152": 114,
        "5153": 210,
        "5154": 247,
        "5155": 248,
        "5156": 205,
        "5157": 203,
        "5158": 115,
        "5159": 26,
        "5160": 206,
        "5161": 34,
        "5162": 155,
        "5163": 197,
        "5164": 218,
        "5165": 60,
        "5166": 1,
        "5167": 54,
        "5168": 51,
        "5169": 134,
        "5170": 166,
        "5171": 52,
        "5172": 14,
        "5173": 5,
        "5174": 12,
        "5175": 158,
        "5176": 222,
        "5177": 112,
        "5178": 29,
        "5179": 105,
        "5180": 40,
        "5181": 176,
        "5182": 228,
        "5183": 69,
        "5184": 214,
        "5185": 92,
        "5186": 219,
        "5187": 23,
        "5188": 20,
        "5189": 152,
        "5190": 187,
        "5191": 29,
        "5192": 252,
        "5193": 172,
        "5194": 32,
        "5195": 67,
        "5196": 29,
        "5197": 36,
        "5198": 204,
        "5199": 166,
        "5200": 101,
        "5201": 240,
        "5202": 139,
        "5203": 116,
        "5204": 166,
        "5205": 167,
        "5206": 75,
        "5207": 109,
        "5208": 79,
        "5209": 246,
        "5210": 170,
        "5211": 82,
        "5212": 23,
        "5213": 114,
        "5214": 177,
        "5215": 57,
        "5216": 102,
        "5217": 9,
        "5218": 78,
        "5219": 229,
        "5220": 114,
        "5221": 95,
        "5222": 46,
        "5223": 65,
        "5224": 91,
        "5225": 199,
        "5226": 245,
        "5227": 66,
        "5228": 158,
        "5229": 199,
        "5230": 228,
        "5231": 160,
        "5232": 135,
        "5233": 148,
        "5234": 39,
        "5235": 82,
        "5236": 161,
        "5237": 133,
        "5238": 76,
        "5239": 77,
        "5240": 148,
        "5241": 11,
        "5242": 185,
        "5243": 133,
        "5244": 14,
        "5245": 54,
        "5246": 2,
        "5247": 90,
        "5248": 255,
        "5249": 190,
        "5250": 202,
        "5251": 59,
        "5252": 171,
        "5253": 35,
        "5254": 139,
        "5255": 119,
        "5256": 169,
        "5257": 223,
        "5258": 123,
        "5259": 225,
        "5260": 233,
        "5261": 180,
        "5262": 215,
        "5263": 102,
        "5264": 151,
        "5265": 87,
        "5266": 171,
        "5267": 238,
        "5268": 102,
        "5269": 226,
        "5270": 231,
        "5271": 95,
        "5272": 236,
        "5273": 27,
        "5274": 165,
        "5275": 214,
        "5276": 196,
        "5277": 124,
        "5278": 108,
        "5279": 104,
        "5280": 161,
        "5281": 88,
        "5282": 152,
        "5283": 233,
        "5284": 207,
        "5285": 87,
        "5286": 42,
        "5287": 34,
        "5288": 141,
        "5289": 136,
        "5290": 49,
        "5291": 213,
        "5292": 141,
        "5293": 174,
        "5294": 85,
        "5295": 241,
        "5296": 162,
        "5297": 227,
        "5298": 149,
        "5299": 106,
        "5300": 241,
        "5301": 190,
        "5302": 77,
        "5303": 128,
        "5304": 143,
        "5305": 220,
        "5306": 144,
        "5307": 126,
        "5308": 133,
        "5309": 186,
        "5310": 173,
        "5311": 188,
        "5312": 155,
        "5313": 10,
        "5314": 208,
        "5315": 186,
        "5316": 109,
        "5317": 136,
        "5318": 228,
        "5319": 107,
        "5320": 169,
        "5321": 162,
        "5322": 101,
        "5323": 43,
        "5324": 33,
        "5325": 177,
        "5326": 177,
        "5327": 243,
        "5328": 175,
        "5329": 167,
        "5330": 20,
        "5331": 148,
        "5332": 79,
        "5333": 181,
        "5334": 169,
        "5335": 63,
        "5336": 75,
        "5337": 121,
        "5338": 215,
        "5339": 206,
        "5340": 41,
        "5341": 96,
        "5342": 92,
        "5343": 30,
        "5344": 15,
        "5345": 2,
        "5346": 143,
        "5347": 128,
        "5348": 72,
        "5349": 124,
        "5350": 188,
        "5351": 122,
        "5352": 216,
        "5353": 157,
        "5354": 213,
        "5355": 20,
        "5356": 200,
        "5357": 223,
        "5358": 58,
        "5359": 39,
        "5360": 139,
        "5361": 74,
        "5362": 239,
        "5363": 79,
        "5364": 61,
        "5365": 180,
        "5366": 148,
        "5367": 35,
        "5368": 109,
        "5369": 75,
        "5370": 192,
        "5371": 9,
        "5372": 184,
        "5373": 62,
        "5374": 161,
        "5375": 58,
        "5376": 151,
        "5377": 130,
        "5378": 131,
        "5379": 210,
        "5380": 166,
        "5381": 109,
        "5382": 31,
        "5383": 213,
        "5384": 136,
        "5385": 215,
        "5386": 48,
        "5387": 38,
        "5388": 153,
        "5389": 200,
        "5390": 96,
        "5391": 194,
        "5392": 167,
        "5393": 91,
        "5394": 192,
        "5395": 100,
        "5396": 26,
        "5397": 136,
        "5398": 176,
        "5399": 149,
        "5400": 181,
        "5401": 98,
        "5402": 0,
        "5403": 203,
        "5404": 59,
        "5405": 207,
        "5406": 234,
        "5407": 108,
        "5408": 183,
        "5409": 72,
        "5410": 49,
        "5411": 54,
        "5412": 117,
        "5413": 142,
        "5414": 128,
        "5415": 223,
        "5416": 196,
        "5417": 194,
        "5418": 135,
        "5419": 94,
        "5420": 86,
        "5421": 158,
        "5422": 129,
        "5423": 208,
        "5424": 167,
        "5425": 96,
        "5426": 217,
        "5427": 247,
        "5428": 185,
        "5429": 193,
        "5430": 166,
        "5431": 76,
        "5432": 219,
        "5433": 20,
        "5434": 222,
        "5435": 224,
        "5436": 138,
        "5437": 133,
        "5438": 66,
        "5439": 0,
        "5440": 77,
        "5441": 63,
        "5442": 18,
        "5443": 7,
        "5444": 231,
        "5445": 241,
        "5446": 236,
        "5447": 90,
        "5448": 86,
        "5449": 58,
        "5450": 217,
        "5451": 51,
        "5452": 251,
        "5453": 38,
        "5454": 30,
        "5455": 195,
        "5456": 64,
        "5457": 33,
        "5458": 63,
        "5459": 193,
        "5460": 255,
        "5461": 74,
        "5462": 172,
        "5463": 230,
        "5464": 212,
        "5465": 98,
        "5466": 7,
        "5467": 69,
        "5468": 245,
        "5469": 213,
        "5470": 12,
        "5471": 162,
        "5472": 36,
        "5473": 96,
        "5474": 142,
        "5475": 12,
        "5476": 52,
        "5477": 103,
        "5478": 254,
        "5479": 149,
        "5480": 255,
        "5481": 209,
        "5482": 34,
        "5483": 6,
        "5484": 11,
        "5485": 196,
        "5486": 22,
        "5487": 138,
        "5488": 18,
        "5489": 197,
        "5490": 241,
        "5491": 77,
        "5492": 85,
        "5493": 246,
        "5494": 187,
        "5495": 145,
        "5496": 10,
        "5497": 158,
        "5498": 176,
        "5499": 59,
        "5500": 181,
        "5501": 111,
        "5502": 137,
        "5503": 125,
        "5504": 200,
        "5505": 175,
        "5506": 128,
        "5507": 60,
        "5508": 171,
        "5509": 174,
        "5510": 205,
        "5511": 185,
        "5512": 81,
        "5513": 175,
        "5514": 60,
        "5515": 254,
        "5516": 218,
        "5517": 224,
        "5518": 44,
        "5519": 150,
        "5520": 66,
        "5521": 172,
        "5522": 80,
        "5523": 242,
        "5524": 195,
        "5525": 193,
        "5526": 161,
        "5527": 202,
        "5528": 137,
        "5529": 101,
        "5530": 197,
        "5531": 173,
        "5532": 20,
        "5533": 246,
        "5534": 112,
        "5535": 18,
        "5536": 16,
        "5537": 173,
        "5538": 28,
        "5539": 30,
        "5540": 8,
        "5541": 58,
        "5542": 84,
        "5543": 219,
        "5544": 153,
        "5545": 20,
        "5546": 101,
        "5547": 96,
        "5548": 220,
        "5549": 171,
        "5550": 190,
        "5551": 9,
        "5552": 36,
        "5553": 20,
        "5554": 52,
        "5555": 157,
        "5556": 20,
        "5557": 136,
        "5558": 54,
        "5559": 119,
        "5560": 183,
        "5561": 189,
        "5562": 158,
        "5563": 111,
        "5564": 210,
        "5565": 131,
        "5566": 44,
        "5567": 173,
        "5568": 177,
        "5569": 64,
        "5570": 252,
        "5571": 43,
        "5572": 145,
        "5573": 62,
        "5574": 9,
        "5575": 24,
        "5576": 152,
        "5577": 231,
        "5578": 84,
        "5579": 0,
        "5580": 0,
        "5581": 123,
        "5582": 57,
        "5583": 179,
        "5584": 193,
        "5585": 186,
        "5586": 133,
        "5587": 103,
        "5588": 50,
        "5589": 204,
        "5590": 22,
        "5591": 235,
        "5592": 76,
        "5593": 48,
        "5594": 140,
        "5595": 135,
        "5596": 191,
        "5597": 8,
        "5598": 132,
        "5599": 101,
        "5600": 104,
        "5601": 2,
        "5602": 5,
        "5603": 94,
        "5604": 155,
        "5605": 35,
        "5606": 151,
        "5607": 228,
        "5608": 9,
        "5609": 212,
        "5610": 169,
        "5611": 33,
        "5612": 153,
        "5613": 178,
        "5614": 128,
        "5615": 109,
        "5616": 185,
        "5617": 75,
        "5618": 83,
        "5619": 253,
        "5620": 173,
        "5621": 44,
        "5622": 20,
        "5623": 92,
        "5624": 239,
        "5625": 80,
        "5626": 41,
        "5627": 192,
        "5628": 197,
        "5629": 28,
        "5630": 56,
        "5631": 69,
        "5632": 250,
        "5633": 134,
        "5634": 67,
        "5635": 80,
        "5636": 218,
        "5637": 223,
        "5638": 162,
        "5639": 234,
        "5640": 170,
        "5641": 98,
        "5642": 231,
        "5643": 136,
        "5644": 65,
        "5645": 233,
        "5646": 104,
        "5647": 174,
        "5648": 187,
        "5649": 77,
        "5650": 43,
        "5651": 253,
        "5652": 46,
        "5653": 129,
        "5654": 23,
        "5655": 174,
        "5656": 24,
        "5657": 13,
        "5658": 4,
        "5659": 162,
        "5660": 54,
        "5661": 198,
        "5662": 2,
        "5663": 6,
        "5664": 144,
        "5665": 239,
        "5666": 212,
        "5667": 36,
        "5668": 215,
        "5669": 236,
        "5670": 140,
        "5671": 97,
        "5672": 13,
        "5673": 222,
        "5674": 154,
        "5675": 63,
        "5676": 180,
        "5677": 174,
        "5678": 123,
        "5679": 224,
        "5680": 59,
        "5681": 120,
        "5682": 13,
        "5683": 242,
        "5684": 95,
        "5685": 221,
        "5686": 8,
        "5687": 239,
        "5688": 86,
        "5689": 92,
        "5690": 137,
        "5691": 158,
        "5692": 252,
        "5693": 154,
        "5694": 174,
        "5695": 119,
        "5696": 116,
        "5697": 230,
        "5698": 139,
        "5699": 33,
        "5700": 158,
        "5701": 246,
        "5702": 176,
        "5703": 243,
        "5704": 97,
        "5705": 51,
        "5706": 17,
        "5707": 235,
        "5708": 157,
        "5709": 165,
        "5710": 224,
        "5711": 148,
        "5712": 116,
        "5713": 211,
        "5714": 224,
        "5715": 55,
        "5716": 235,
        "5717": 66,
        "5718": 38,
        "5719": 220,
        "5720": 71,
        "5721": 125,
        "5722": 238,
        "5723": 187,
        "5724": 194,
        "5725": 213,
        "5726": 101,
        "5727": 139,
        "5728": 177,
        "5729": 96,
        "5730": 21,
        "5731": 246,
        "5732": 207,
        "5733": 48,
        "5734": 167,
        "5735": 51,
        "5736": 247,
        "5737": 80,
        "5738": 108,
        "5739": 200,
        "5740": 230,
        "5741": 162,
        "5742": 145,
        "5743": 144,
        "5744": 52,
        "5745": 52,
        "5746": 124,
        "5747": 147,
        "5748": 24,
        "5749": 223,
        "5750": 61,
        "5751": 159,
        "5752": 151,
        "5753": 250,
        "5754": 69,
        "5755": 142,
        "5756": 150,
        "5757": 199,
        "5758": 244,
        "5759": 230,
        "5760": 198,
        "5761": 184,
        "5762": 19,
        "5763": 106,
        "5764": 39,
        "5765": 23,
        "5766": 232,
        "5767": 103,
        "5768": 216,
        "5769": 46,
        "5770": 239,
        "5771": 132,
        "5772": 17,
        "5773": 185,
        "5774": 246,
        "5775": 93,
        "5776": 127,
        "5777": 74,
        "5778": 122,
        "5779": 96,
        "5780": 83,
        "5781": 53,
        "5782": 129,
        "5783": 91,
        "5784": 191,
        "5785": 107,
        "5786": 52,
        "5787": 119,
        "5788": 158,
        "5789": 128,
        "5790": 63,
        "5791": 222,
        "5792": 127,
        "5793": 11,
        "5794": 29,
        "5795": 85,
        "5796": 28,
        "5797": 22,
        "5798": 93,
        "5799": 48,
        "5800": 201,
        "5801": 230,
        "5802": 113,
        "5803": 67,
        "5804": 172,
        "5805": 125,
        "5806": 149,
        "5807": 14,
        "5808": 95,
        "5809": 67,
        "5810": 80,
        "5811": 207,
        "5812": 178,
        "5813": 124,
        "5814": 19,
        "5815": 31,
        "5816": 238,
        "5817": 235,
        "5818": 142,
        "5819": 189,
        "5820": 232,
        "5821": 67,
        "5822": 96,
        "5823": 17,
        "5824": 20,
        "5825": 204,
        "5826": 1,
        "5827": 142,
        "5828": 128,
        "5829": 111,
        "5830": 73,
        "5831": 226,
        "5832": 84,
        "5833": 110,
        "5834": 245,
        "5835": 203,
        "5836": 8,
        "5837": 111,
        "5838": 108,
        "5839": 213,
        "5840": 98,
        "5841": 94,
        "5842": 36,
        "5843": 155,
        "5844": 75,
        "5845": 40,
        "5846": 2,
        "5847": 218,
        "5848": 151,
        "5849": 224,
        "5850": 96,
        "5851": 239,
        "5852": 221,
        "5853": 89,
        "5854": 25,
        "5855": 39,
        "5856": 90,
        "5857": 199,
        "5858": 35,
        "5859": 135,
        "5860": 66,
        "5861": 123,
        "5862": 73,
        "5863": 42,
        "5864": 71,
        "5865": 229,
        "5866": 37,
        "5867": 217,
        "5868": 65,
        "5869": 125,
        "5870": 97,
        "5871": 30,
        "5872": 79,
        "5873": 138,
        "5874": 109,
        "5875": 104,
        "5876": 101,
        "5877": 106,
        "5878": 222,
        "5879": 246,
        "5880": 31,
        "5881": 109,
        "5882": 130,
        "5883": 89,
        "5884": 57,
        "5885": 224,
        "5886": 196,
        "5887": 99,
        "5888": 29,
        "5889": 11,
        "5890": 12,
        "5891": 109,
        "5892": 172,
        "5893": 108,
        "5894": 89,
        "5895": 121,
        "5896": 68,
        "5897": 112,
        "5898": 203,
        "5899": 128,
        "5900": 137,
        "5901": 185,
        "5902": 221,
        "5903": 106,
        "5904": 19,
        "5905": 242,
        "5906": 119,
        "5907": 100,
        "5908": 18,
        "5909": 109,
        "5910": 75,
        "5911": 255,
        "5912": 60,
        "5913": 254,
        "5914": 170,
        "5915": 199,
        "5916": 135,
        "5917": 236,
        "5918": 132,
        "5919": 61,
        "5920": 90,
        "5921": 20,
        "5922": 119,
        "5923": 49,
        "5924": 162,
        "5925": 45,
        "5926": 232,
        "5927": 243,
        "5928": 70,
        "5929": 33,
        "5930": 34,
        "5931": 134,
        "5932": 159,
        "5933": 56,
        "5934": 113,
        "5935": 36,
        "5936": 40,
        "5937": 96,
        "5938": 19,
        "5939": 42,
        "5940": 237,
        "5941": 50,
        "5942": 166,
        "5943": 132,
        "5944": 62,
        "5945": 174,
        "5946": 44,
        "5947": 16,
        "5948": 18,
        "5949": 58,
        "5950": 184,
        "5951": 225,
        "5952": 236,
        "5953": 198,
        "5954": 193,
        "5955": 209,
        "5956": 30,
        "5957": 105,
        "5958": 4,
        "5959": 22,
        "5960": 64,
        "5961": 245,
        "5962": 175,
        "5963": 250,
        "5964": 146,
        "5965": 39,
        "5966": 139,
        "5967": 162,
        "5968": 12,
        "5969": 215,
        "5970": 150,
        "5971": 145,
        "5972": 192,
        "5973": 99,
        "5974": 177,
        "5975": 34,
        "5976": 247,
        "5977": 122,
        "5978": 50,
        "5979": 170,
        "5980": 185,
        "5981": 213,
        "5982": 214,
        "5983": 117,
        "5984": 184,
        "5985": 246,
        "5986": 118,
        "5987": 98,
        "5988": 226,
        "5989": 194,
        "5990": 14,
        "5991": 197,
        "5992": 70,
        "5993": 200,
        "5994": 228,
        "5995": 230,
        "5996": 228,
        "5997": 250,
        "5998": 170,
        "5999": 71,
        "6000": 105,
        "6001": 214,
        "6002": 29,
        "6003": 188,
        "6004": 174,
        "6005": 84,
        "6006": 100,
        "6007": 66,
        "6008": 174,
        "6009": 214,
        "6010": 202,
        "6011": 56,
        "6012": 112,
        "6013": 37,
        "6014": 210,
        "6015": 235,
        "6016": 160,
        "6017": 225,
        "6018": 57,
        "6019": 213,
        "6020": 17,
        "6021": 1,
        "6022": 36,
        "6023": 91,
        "6024": 7,
        "6025": 0,
        "6026": 99,
        "6027": 83,
        "6028": 29,
        "6029": 45,
        "6030": 244,
        "6031": 0,
        "6032": 137,
        "6033": 208,
        "6034": 90,
        "6035": 12,
        "6036": 119,
        "6037": 220,
        "6038": 197,
        "6039": 173,
        "6040": 51,
        "6041": 110,
        "6042": 118,
        "6043": 133,
        "6044": 14,
        "6045": 183,
        "6046": 229,
        "6047": 189,
        "6048": 252,
        "6049": 87,
        "6050": 67,
        "6051": 182,
        "6052": 96,
        "6053": 152,
        "6054": 194,
        "6055": 146,
        "6056": 143,
        "6057": 140,
        "6058": 186,
        "6059": 59,
        "6060": 124,
        "6061": 190,
        "6062": 63,
        "6063": 103,
        "6064": 178,
        "6065": 214,
        "6066": 60,
        "6067": 20,
        "6068": 81,
        "6069": 52,
        "6070": 73,
        "6071": 242,
        "6072": 204,
        "6073": 12,
        "6074": 111,
        "6075": 182,
        "6076": 108,
        "6077": 219,
        "6078": 129,
        "6079": 240,
        "6080": 149,
        "6081": 48,
        "6082": 119,
        "6083": 56,
        "6084": 197,
        "6085": 249,
        "6086": 41,
        "6087": 30,
        "6088": 179,
        "6089": 163,
        "6090": 189,
        "6091": 52,
        "6092": 121,
        "6093": 68,
        "6094": 88,
        "6095": 218,
        "6096": 187,
        "6097": 197,
        "6098": 99,
        "6099": 211,
        "6100": 18,
        "6101": 231,
        "6102": 249,
        "6103": 80,
        "6104": 198,
        "6105": 96,
        "6106": 76,
        "6107": 103,
        "6108": 204,
        "6109": 5,
        "6110": 176,
        "6111": 242,
        "6112": 185,
        "6113": 249,
        "6114": 213,
        "6115": 3,
        "6116": 215,
        "6117": 171,
        "6118": 229,
        "6119": 118,
        "6120": 111,
        "6121": 112,
        "6122": 130,
        "6123": 172,
        "6124": 189,
        "6125": 122,
        "6126": 198,
        "6127": 118,
        "6128": 45,
        "6129": 187,
        "6130": 123,
        "6131": 7,
        "6132": 163,
        "6133": 188,
        "6134": 136,
        "6135": 181,
        "6136": 27,
        "6137": 119,
        "6138": 132,
        "6139": 112,
        "6140": 225,
        "6141": 244,
        "6142": 86,
        "6143": 80,
        "6144": 110,
        "6145": 20,
        "6146": 37,
        "6147": 122,
        "6148": 38,
        "6149": 71,
        "6150": 136,
        "6151": 178,
        "6152": 218,
        "6153": 129,
        "6154": 133,
        "6155": 30,
        "6156": 59,
        "6157": 27,
        "6158": 204,
        "6159": 60,
        "6160": 143,
        "6161": 221,
        "6162": 212,
        "6163": 219,
        "6164": 152,
        "6165": 2,
        "6166": 195,
        "6167": 82,
        "6168": 188,
        "6169": 10,
        "6170": 75,
        "6171": 5,
        "6172": 244,
        "6173": 48,
        "6174": 121,
        "6175": 78,
        "6176": 161,
        "6177": 192,
        "6178": 7,
        "6179": 44,
        "6180": 71,
        "6181": 39,
        "6182": 228,
        "6183": 1,
        "6184": 136,
        "6185": 71,
        "6186": 204,
        "6187": 153,
        "6188": 215,
        "6189": 77,
        "6190": 178,
        "6191": 8,
        "6192": 167,
        "6193": 94,
        "6194": 241,
        "6195": 183,
        "6196": 182,
        "6197": 90,
        "6198": 221,
        "6199": 165,
        "6200": 64,
        "6201": 21,
        "6202": 198,
        "6203": 36,
        "6204": 203,
        "6205": 6,
        "6206": 197,
        "6207": 36,
        "6208": 238,
        "6209": 8,
        "6210": 204,
        "6211": 117,
        "6212": 74,
        "6213": 55,
        "6214": 197,
        "6215": 234,
        "6216": 57,
        "6217": 177,
        "6218": 230,
        "6219": 163,
        "6220": 237,
        "6221": 145,
        "6222": 189,
        "6223": 47,
        "6224": 110,
        "6225": 163,
        "6226": 216,
        "6227": 38,
        "6228": 230,
        "6229": 246,
        "6230": 212,
        "6231": 163,
        "6232": 255,
        "6233": 232,
        "6234": 219,
        "6235": 29,
        "6236": 149,
        "6237": 228,
        "6238": 144,
        "6239": 39,
        "6240": 77,
        "6241": 1,
        "6242": 54,
        "6243": 82,
        "6244": 114,
        "6245": 118,
        "6246": 35,
        "6247": 199,
        "6248": 218,
        "6249": 214,
        "6250": 29,
        "6251": 113,
        "6252": 248,
        "6253": 25,
        "6254": 32,
        "6255": 108,
        "6256": 83,
        "6257": 58,
        "6258": 189,
        "6259": 128,
        "6260": 214,
        "6261": 102,
        "6262": 148,
        "6263": 26,
        "6264": 9,
        "6265": 117,
        "6266": 116,
        "6267": 89,
        "6268": 89,
        "6269": 185,
        "6270": 230,
        "6271": 239,
        "6272": 79,
        "6273": 126,
        "6274": 42,
        "6275": 21,
        "6276": 176,
        "6277": 37,
        "6278": 173,
        "6279": 41,
        "6280": 177,
        "6281": 9,
        "6282": 165,
        "6283": 176,
        "6284": 241,
        "6285": 76,
        "6286": 31,
        "6287": 69,
        "6288": 79,
        "6289": 46,
        "6290": 159,
        "6291": 226,
        "6292": 33,
        "6293": 130,
        "6294": 18,
        "6295": 26,
        "6296": 19,
        "6297": 192,
        "6298": 192,
        "6299": 51,
        "6300": 231,
        "6301": 66,
        "6302": 223,
        "6303": 56,
        "6304": 192,
        "6305": 79,
        "6306": 65,
        "6307": 200,
        "6308": 20,
        "6309": 210,
        "6310": 134,
        "6311": 195,
        "6312": 251,
        "6313": 228,
        "6314": 45,
        "6315": 124,
        "6316": 139,
        "6317": 105,
        "6318": 178,
        "6319": 49,
        "6320": 225,
        "6321": 90,
        "6322": 44,
        "6323": 84,
        "6324": 237,
        "6325": 181,
        "6326": 165,
        "6327": 206,
        "6328": 165,
        "6329": 34,
        "6330": 10,
        "6331": 108,
        "6332": 184,
        "6333": 61,
        "6334": 122,
        "6335": 141,
        "6336": 50,
        "6337": 17,
        "6338": 117,
        "6339": 165,
        "6340": 34,
        "6341": 208,
        "6342": 122,
        "6343": 253,
        "6344": 165,
        "6345": 247,
        "6346": 254,
        "6347": 128,
        "6348": 115,
        "6349": 53,
        "6350": 88,
        "6351": 158,
        "6352": 14,
        "6353": 178,
        "6354": 50,
        "6355": 117,
        "6356": 11,
        "6357": 121,
        "6358": 230,
        "6359": 59,
        "6360": 86,
        "6361": 194,
        "6362": 138,
        "6363": 217,
        "6364": 83,
        "6365": 134,
        "6366": 81,
        "6367": 185,
        "6368": 180,
        "6369": 223,
        "6370": 98,
        "6371": 207,
        "6372": 107,
        "6373": 31,
        "6374": 8,
        "6375": 81,
        "6376": 98,
        "6377": 135,
        "6378": 124,
        "6379": 205,
        "6380": 27,
        "6381": 217,
        "6382": 238,
        "6383": 39,
        "6384": 216,
        "6385": 28,
        "6386": 216,
        "6387": 57,
        "6388": 226,
        "6389": 135,
        "6390": 143,
        "6391": 93,
        "6392": 150,
        "6393": 42,
        "6394": 194,
        "6395": 34,
        "6396": 86,
        "6397": 222,
        "6398": 252,
        "6399": 206,
        "6400": 97,
        "6401": 168,
        "6402": 229,
        "6403": 248,
        "6404": 200,
        "6405": 42,
        "6406": 89,
        "6407": 170,
        "6408": 33,
        "6409": 188,
        "6410": 152,
        "6411": 16,
        "6412": 211,
        "6413": 26,
        "6414": 238,
        "6415": 27,
        "6416": 198,
        "6417": 74,
        "6418": 117,
        "6419": 43,
        "6420": 139,
        "6421": 114,
        "6422": 97,
        "6423": 107,
        "6424": 245,
        "6425": 18,
        "6426": 191,
        "6427": 19,
        "6428": 33,
        "6429": 188,
        "6430": 30,
        "6431": 160,
        "6432": 82,
        "6433": 229,
        "6434": 180,
        "6435": 45,
        "6436": 33,
        "6437": 141,
        "6438": 138,
        "6439": 125,
        "6440": 122,
        "6441": 27,
        "6442": 137,
        "6443": 26,
        "6444": 125,
        "6445": 30,
        "6446": 222,
        "6447": 113,
        "6448": 245,
        "6449": 76,
        "6450": 147,
        "6451": 7,
        "6452": 175,
        "6453": 244,
        "6454": 82,
        "6455": 7,
        "6456": 37,
        "6457": 160,
        "6458": 61,
        "6459": 222,
        "6460": 174,
        "6461": 10,
        "6462": 195,
        "6463": 138,
        "6464": 12,
        "6465": 166,
        "6466": 133,
        "6467": 33,
        "6468": 226,
        "6469": 95,
        "6470": 135,
        "6471": 200,
        "6472": 92,
        "6473": 190,
        "6474": 117,
        "6475": 179,
        "6476": 64,
        "6477": 97,
        "6478": 122,
        "6479": 172,
        "6480": 152,
        "6481": 139,
        "6482": 80,
        "6483": 151,
        "6484": 137,
        "6485": 4,
        "6486": 243,
        "6487": 107,
        "6488": 105,
        "6489": 85,
        "6490": 160,
        "6491": 197,
        "6492": 83,
        "6493": 230,
        "6494": 41,
        "6495": 192,
        "6496": 132,
        "6497": 229,
        "6498": 155,
        "6499": 13,
        "6500": 63,
        "6501": 243,
        "6502": 39,
        "6503": 149,
        "6504": 156,
        "6505": 121,
        "6506": 7,
        "6507": 237,
        "6508": 168,
        "6509": 235,
        "6510": 215,
        "6511": 204,
        "6512": 200,
        "6513": 207,
        "6514": 30,
        "6515": 215,
        "6516": 82,
        "6517": 84,
        "6518": 139,
        "6519": 232,
        "6520": 170,
        "6521": 155,
        "6522": 77,
        "6523": 164,
        "6524": 62,
        "6525": 252,
        "6526": 85,
        "6527": 243,
        "6528": 150,
        "6529": 115,
        "6530": 22,
        "6531": 4,
        "6532": 242,
        "6533": 47,
        "6534": 205,
        "6535": 5,
        "6536": 157,
        "6537": 130,
        "6538": 168,
        "6539": 151,
        "6540": 96,
        "6541": 200,
        "6542": 15,
        "6543": 204,
        "6544": 85,
        "6545": 195,
        "6546": 118,
        "6547": 145,
        "6548": 14,
        "6549": 134,
        "6550": 167,
        "6551": 23,
        "6552": 39,
        "6553": 197,
        "6554": 200,
        "6555": 136,
        "6556": 33,
        "6557": 215,
        "6558": 36,
        "6559": 83,
        "6560": 125,
        "6561": 113,
        "6562": 138,
        "6563": 12,
        "6564": 169,
        "6565": 227,
        "6566": 25,
        "6567": 36,
        "6568": 94,
        "6569": 228,
        "6570": 184,
        "6571": 152,
        "6572": 242,
        "6573": 9,
        "6574": 99,
        "6575": 63,
        "6576": 144,
        "6577": 49,
        "6578": 27,
        "6579": 142,
        "6580": 195,
        "6581": 222,
        "6582": 108,
        "6583": 48,
        "6584": 90,
        "6585": 228,
        "6586": 65,
        "6587": 168,
        "6588": 118,
        "6589": 88,
        "6590": 243,
        "6591": 1,
        "6592": 210,
        "6593": 138,
        "6594": 127,
        "6595": 218,
        "6596": 125,
        "6597": 171,
        "6598": 147,
        "6599": 25,
        "6600": 36,
        "6601": 118,
        "6602": 50,
        "6603": 29,
        "6604": 173,
        "6605": 83,
        "6606": 202,
        "6607": 182,
        "6608": 78,
        "6609": 192,
        "6610": 185,
        "6611": 173,
        "6612": 52,
        "6613": 202,
        "6614": 49,
        "6615": 227,
        "6616": 222,
        "6617": 100,
        "6618": 74,
        "6619": 98,
        "6620": 73,
        "6621": 18,
        "6622": 23,
        "6623": 158,
        "6624": 69,
        "6625": 102,
        "6626": 197,
        "6627": 205,
        "6628": 172,
        "6629": 85,
        "6630": 120,
        "6631": 187,
        "6632": 171,
        "6633": 252,
        "6634": 49,
        "6635": 237,
        "6636": 79,
        "6637": 245,
        "6638": 226,
        "6639": 14,
        "6640": 101,
        "6641": 231,
        "6642": 50,
        "6643": 218,
        "6644": 135,
        "6645": 213,
        "6646": 212,
        "6647": 239,
        "6648": 85,
        "6649": 136,
        "6650": 176,
        "6651": 56,
        "6652": 96,
        "6653": 149,
        "6654": 175,
        "6655": 116,
        "6656": 235,
        "6657": 35,
        "6658": 160,
        "6659": 202,
        "6660": 240,
        "6661": 33,
        "6662": 197,
        "6663": 243,
        "6664": 178,
        "6665": 171,
        "6666": 142,
        "6667": 214,
        "6668": 235,
        "6669": 82,
        "6670": 77,
        "6671": 211,
        "6672": 241,
        "6673": 126,
        "6674": 164,
        "6675": 220,
        "6676": 184,
        "6677": 71,
        "6678": 107,
        "6679": 25,
        "6680": 202,
        "6681": 57,
        "6682": 120,
        "6683": 44,
        "6684": 46,
        "6685": 127,
        "6686": 162,
        "6687": 34,
        "6688": 68,
        "6689": 119,
        "6690": 222,
        "6691": 100,
        "6692": 61,
        "6693": 236,
        "6694": 40,
        "6695": 200,
        "6696": 155,
        "6697": 112,
        "6698": 44,
        "6699": 207,
        "6700": 230,
        "6701": 217,
        "6702": 168,
        "6703": 102,
        "6704": 158,
        "6705": 12,
        "6706": 80,
        "6707": 219,
        "6708": 41,
        "6709": 84,
        "6710": 34,
        "6711": 47,
        "6712": 121,
        "6713": 88,
        "6714": 140,
        "6715": 118,
        "6716": 205,
        "6717": 75,
        "6718": 180,
        "6719": 27,
        "6720": 60,
        "6721": 107,
        "6722": 35,
        "6723": 241,
        "6724": 249,
        "6725": 205,
        "6726": 80,
        "6727": 191,
        "6728": 200,
        "6729": 68,
        "6730": 192,
        "6731": 14,
        "6732": 255,
        "6733": 163,
        "6734": 198,
        "6735": 37,
        "6736": 99,
        "6737": 226,
        "6738": 6,
        "6739": 12,
        "6740": 225,
        "6741": 227,
        "6742": 243,
        "6743": 172,
        "6744": 227,
        "6745": 21,
        "6746": 46,
        "6747": 3,
        "6748": 217,
        "6749": 184,
        "6750": 40,
        "6751": 103,
        "6752": 9,
        "6753": 220,
        "6754": 156,
        "6755": 76,
        "6756": 239,
        "6757": 167,
        "6758": 60,
        "6759": 97,
        "6760": 181,
        "6761": 219,
        "6762": 134,
        "6763": 127,
        "6764": 132,
        "6765": 181,
        "6766": 241,
        "6767": 101,
        "6768": 177,
        "6769": 99,
        "6770": 11,
        "6771": 189,
        "6772": 210,
        "6773": 190,
        "6774": 142,
        "6775": 54,
        "6776": 157,
        "6777": 51,
        "6778": 184,
        "6779": 67,
        "6780": 233,
        "6781": 141,
        "6782": 45,
        "6783": 7,
        "6784": 44,
        "6785": 249,
        "6786": 29,
        "6787": 76,
        "6788": 161,
        "6789": 88,
        "6790": 96,
        "6791": 188,
        "6792": 31,
        "6793": 7,
        "6794": 30,
        "6795": 114,
        "6796": 11,
        "6797": 166,
        "6798": 142,
        "6799": 130,
        "6800": 201,
        "6801": 137,
        "6802": 112,
        "6803": 93,
        "6804": 215,
        "6805": 210,
        "6806": 225,
        "6807": 222,
        "6808": 134,
        "6809": 163,
        "6810": 73,
        "6811": 58,
        "6812": 53,
        "6813": 253,
        "6814": 83,
        "6815": 191,
        "6816": 190,
        "6817": 158,
        "6818": 75,
        "6819": 119,
        "6820": 204,
        "6821": 170,
        "6822": 255,
        "6823": 36,
        "6824": 185,
        "6825": 27,
        "6826": 140,
        "6827": 118,
        "6828": 9,
        "6829": 115,
        "6830": 18,
        "6831": 148,
        "6832": 5,
        "6833": 146,
        "6834": 27,
        "6835": 172,
        "6836": 231,
        "6837": 145,
        "6838": 55,
        "6839": 141,
        "6840": 70,
        "6841": 48,
        "6842": 224,
        "6843": 198,
        "6844": 171,
        "6845": 145,
        "6846": 177,
        "6847": 227,
        "6848": 150,
        "6849": 72,
        "6850": 136,
        "6851": 131,
        "6852": 96,
        "6853": 135,
        "6854": 127,
        "6855": 92,
        "6856": 19,
        "6857": 148,
        "6858": 142,
        "6859": 110,
        "6860": 103,
        "6861": 61,
        "6862": 146,
        "6863": 132,
        "6864": 3,
        "6865": 214,
        "6866": 77,
        "6867": 204,
        "6868": 147,
        "6869": 50,
        "6870": 196,
        "6871": 219,
        "6872": 163,
        "6873": 219,
        "6874": 178,
        "6875": 26,
        "6876": 221,
        "6877": 206,
        "6878": 78,
        "6879": 191,
        "6880": 142,
        "6881": 47,
        "6882": 119,
        "6883": 151,
        "6884": 186,
        "6885": 116,
        "6886": 19,
        "6887": 116,
        "6888": 255,
        "6889": 28,
        "6890": 53,
        "6891": 170,
        "6892": 186,
        "6893": 230,
        "6894": 60,
        "6895": 140,
        "6896": 39,
        "6897": 127,
        "6898": 192,
        "6899": 123,
        "6900": 43,
        "6901": 59,
        "6902": 248,
        "6903": 46,
        "6904": 135,
        "6905": 211,
        "6906": 139,
        "6907": 75,
        "6908": 167,
        "6909": 186,
        "6910": 50,
        "6911": 97,
        "6912": 243,
        "6913": 92,
        "6914": 234,
        "6915": 28,
        "6916": 193,
        "6917": 45,
        "6918": 149,
        "6919": 41,
        "6920": 44,
        "6921": 155,
        "6922": 199,
        "6923": 20,
        "6924": 250,
        "6925": 41,
        "6926": 251,
        "6927": 99,
        "6928": 146,
        "6929": 245,
        "6930": 95,
        "6931": 0,
        "6932": 25,
        "6933": 195,
        "6934": 29,
        "6935": 64,
        "6936": 101,
        "6937": 232,
        "6938": 188,
        "6939": 212,
        "6940": 203,
        "6941": 155,
        "6942": 174,
        "6943": 50,
        "6944": 186,
        "6945": 90,
        "6946": 156,
        "6947": 68,
        "6948": 12,
        "6949": 136,
        "6950": 101,
        "6951": 55,
        "6952": 4,
        "6953": 128,
        "6954": 3,
        "6955": 27,
        "6956": 52,
        "6957": 94,
        "6958": 66,
        "6959": 184,
        "6960": 91,
        "6961": 156,
        "6962": 171,
        "6963": 122,
        "6964": 189,
        "6965": 47,
        "6966": 195,
        "6967": 153,
        "6968": 35,
        "6969": 21,
        "6970": 115,
        "6971": 179,
        "6972": 248,
        "6973": 116,
        "6974": 97,
        "6975": 247,
        "6976": 36,
        "6977": 44,
        "6978": 38,
        "6979": 71,
        "6980": 128,
        "6981": 84,
        "6982": 93,
        "6983": 221,
        "6984": 54,
        "6985": 59,
        "6986": 12,
        "6987": 81,
        "6988": 171,
        "6989": 127,
        "6990": 173,
        "6991": 148,
        "6992": 60,
        "6993": 65,
        "6994": 83,
        "6995": 57,
        "6996": 125,
        "6997": 172,
        "6998": 54,
        "6999": 89,
        "7000": 87,
        "7001": 46,
        "7002": 160,
        "7003": 50,
        "7004": 156,
        "7005": 226,
        "7006": 136,
        "7007": 115,
        "7008": 245,
        "7009": 140,
        "7010": 248,
        "7011": 83,
        "7012": 217,
        "7013": 122,
        "7014": 165,
        "7015": 31,
        "7016": 152,
        "7017": 95,
        "7018": 254,
        "7019": 113,
        "7020": 246,
        "7021": 129,
        "7022": 161,
        "7023": 64,
        "7024": 111,
        "7025": 252,
        "7026": 238,
        "7027": 159,
        "7028": 237,
        "7029": 132,
        "7030": 129,
        "7031": 95,
        "7032": 149,
        "7033": 179,
        "7034": 202,
        "7035": 79,
        "7036": 111,
        "7037": 81,
        "7038": 245,
        "7039": 70,
        "7040": 251,
        "7041": 148,
        "7042": 76,
        "7043": 159,
        "7044": 207,
        "7045": 189,
        "7046": 196,
        "7047": 204,
        "7048": 46,
        "7049": 117,
        "7050": 132,
        "7051": 203,
        "7052": 58,
        "7053": 16,
        "7054": 174,
        "7055": 158,
        "7056": 116,
        "7057": 19,
        "7058": 15,
        "7059": 133,
        "7060": 251,
        "7061": 247,
        "7062": 1,
        "7063": 93,
        "7064": 35,
        "7065": 94,
        "7066": 115,
        "7067": 232,
        "7068": 3,
        "7069": 199,
        "7070": 17,
        "7071": 247,
        "7072": 175,
        "7073": 220,
        "7074": 154,
        "7075": 111,
        "7076": 0,
        "7077": 93,
        "7078": 59,
        "7079": 174,
        "7080": 64,
        "7081": 130,
        "7082": 157,
        "7083": 37,
        "7084": 82,
        "7085": 210,
        "7086": 103,
        "7087": 113,
        "7088": 208,
        "7089": 61,
        "7090": 60,
        "7091": 23,
        "7092": 31,
        "7093": 193,
        "7094": 191,
        "7095": 208,
        "7096": 246,
        "7097": 170,
        "7098": 238,
        "7099": 47,
        "7100": 231,
        "7101": 20,
        "7102": 8,
        "7103": 148,
        "7104": 226,
        "7105": 91,
        "7106": 62,
        "7107": 92,
        "7108": 13,
        "7109": 67,
        "7110": 155,
        "7111": 167,
        "7112": 160,
        "7113": 169,
        "7114": 83,
        "7115": 12,
        "7116": 149,
        "7117": 100,
        "7118": 237,
        "7119": 237,
        "7120": 146,
        "7121": 173,
        "7122": 109,
        "7123": 98,
        "7124": 69,
        "7125": 218,
        "7126": 226,
        "7127": 137,
        "7128": 54,
        "7129": 168,
        "7130": 5,
        "7131": 87,
        "7132": 188,
        "7133": 214,
        "7134": 214,
        "7135": 17,
        "7136": 85,
        "7137": 159,
        "7138": 221,
        "7139": 215,
        "7140": 131,
        "7141": 45,
        "7142": 50,
        "7143": 226,
        "7144": 206,
        "7145": 234,
        "7146": 133,
        "7147": 162,
        "7148": 103,
        "7149": 131,
        "7150": 159,
        "7151": 81,
        "7152": 219,
        "7153": 185,
        "7154": 62,
        "7155": 173,
        "7156": 200,
        "7157": 235,
        "7158": 108,
        "7159": 101,
        "7160": 147,
        "7161": 192,
        "7162": 189,
        "7163": 241,
        "7164": 124,
        "7165": 203,
        "7166": 217,
        "7167": 61,
        "7168": 49,
        "7169": 10,
        "7170": 30,
        "7171": 237,
        "7172": 254,
        "7173": 204,
        "7174": 0,
        "7175": 64,
        "7176": 106,
        "7177": 127,
        "7178": 196,
        "7179": 120,
        "7180": 77,
        "7181": 11,
        "7182": 244,
        "7183": 207,
        "7184": 144,
        "7185": 191,
        "7186": 193,
        "7187": 47,
        "7188": 184,
        "7189": 93,
        "7190": 160,
        "7191": 192,
        "7192": 124,
        "7193": 249,
        "7194": 56,
        "7195": 196,
        "7196": 145,
        "7197": 222,
        "7198": 223,
        "7199": 253,
        "7200": 225,
        "7201": 117,
        "7202": 192,
        "7203": 103,
        "7204": 184,
        "7205": 171,
        "7206": 62,
        "7207": 248,
        "7208": 39,
        "7209": 10,
        "7210": 136,
        "7211": 221,
        "7212": 185,
        "7213": 28,
        "7214": 99,
        "7215": 12,
        "7216": 133,
        "7217": 203,
        "7218": 134,
        "7219": 230,
        "7220": 249,
        "7221": 73,
        "7222": 198,
        "7223": 107,
        "7224": 178,
        "7225": 100,
        "7226": 233,
        "7227": 252,
        "7228": 199,
        "7229": 252,
        "7230": 54,
        "7231": 115,
        "7232": 5,
        "7233": 75,
        "7234": 37,
        "7235": 182,
        "7236": 185,
        "7237": 174,
        "7238": 224,
        "7239": 38,
        "7240": 63,
        "7241": 138,
        "7242": 4,
        "7243": 167,
        "7244": 199,
        "7245": 98,
        "7246": 13,
        "7247": 232,
        "7248": 216,
        "7249": 227,
        "7250": 78,
        "7251": 58,
        "7252": 240,
        "7253": 244,
        "7254": 237,
        "7255": 234,
        "7256": 139,
        "7257": 93,
        "7258": 87,
        "7259": 125,
        "7260": 4,
        "7261": 246,
        "7262": 150,
        "7263": 33,
        "7264": 136,
        "7265": 24,
        "7266": 219,
        "7267": 39,
        "7268": 14,
        "7269": 141,
        "7270": 180,
        "7271": 93,
        "7272": 182,
        "7273": 44,
        "7274": 152,
        "7275": 237,
        "7276": 81,
        "7277": 76,
        "7278": 168,
        "7279": 201,
        "7280": 213,
        "7281": 241,
        "7282": 136,
        "7283": 51,
        "7284": 59,
        "7285": 221,
        "7286": 35,
        "7287": 71,
        "7288": 131,
        "7289": 37,
        "7290": 136,
        "7291": 214,
        "7292": 32,
        "7293": 255,
        "7294": 240,
        "7295": 200,
        "7296": 75,
        "7297": 249,
        "7298": 2,
        "7299": 143,
        "7300": 184,
        "7301": 94,
        "7302": 93,
        "7303": 40,
        "7304": 181,
        "7305": 123,
        "7306": 50,
        "7307": 205,
        "7308": 209,
        "7309": 253,
        "7310": 94,
        "7311": 255,
        "7312": 85,
        "7313": 150,
        "7314": 27,
        "7315": 203,
        "7316": 176,
        "7317": 66,
        "7318": 240,
        "7319": 64,
        "7320": 37,
        "7321": 68,
        "7322": 58,
        "7323": 186,
        "7324": 205,
        "7325": 220,
        "7326": 232,
        "7327": 232,
        "7328": 213,
        "7329": 77,
        "7330": 72,
        "7331": 169,
        "7332": 221,
        "7333": 42,
        "7334": 149,
        "7335": 171,
        "7336": 194,
        "7337": 86,
        "7338": 107,
        "7339": 155,
        "7340": 227,
        "7341": 205,
        "7342": 206,
        "7343": 254,
        "7344": 57,
        "7345": 187,
        "7346": 91,
        "7347": 175,
        "7348": 110,
        "7349": 230,
        "7350": 214,
        "7351": 118,
        "7352": 189,
        "7353": 254,
        "7354": 98,
        "7355": 174,
        "7356": 147,
        "7357": 24,
        "7358": 39,
        "7359": 212,
        "7360": 144,
        "7361": 163,
        "7362": 221,
        "7363": 198,
        "7364": 65,
        "7365": 247,
        "7366": 52,
        "7367": 212,
        "7368": 237,
        "7369": 66,
        "7370": 91,
        "7371": 121,
        "7372": 197,
        "7373": 166,
        "7374": 28,
        "7375": 118,
        "7376": 157,
        "7377": 62,
        "7378": 15,
        "7379": 114,
        "7380": 166,
        "7381": 214,
        "7382": 39,
        "7383": 151,
        "7384": 11,
        "7385": 43,
        "7386": 99,
        "7387": 29,
        "7388": 111,
        "7389": 189,
        "7390": 221,
        "7391": 171,
        "7392": 195,
        "7393": 74,
        "7394": 206,
        "7395": 25,
        "7396": 150,
        "7397": 95,
        "7398": 76,
        "7399": 141,
        "7400": 77,
        "7401": 148,
        "7402": 113,
        "7403": 248,
        "7404": 221,
        "7405": 62,
        "7406": 214,
        "7407": 42,
        "7408": 161,
        "7409": 83,
        "7410": 93,
        "7411": 53,
        "7412": 185,
        "7413": 165,
        "7414": 217,
        "7415": 147,
        "7416": 8,
        "7417": 139,
        "7418": 196,
        "7419": 71,
        "7420": 133,
        "7421": 110,
        "7422": 212,
        "7423": 110,
        "7424": 89,
        "7425": 114,
        "7426": 64,
        "7427": 171,
        "7428": 167,
        "7429": 78,
        "7430": 133,
        "7431": 233,
        "7432": 93,
        "7433": 95,
        "7434": 239,
        "7435": 245,
        "7436": 81,
        "7437": 244,
        "7438": 34,
        "7439": 229,
        "7440": 106,
        "7441": 182,
        "7442": 151,
        "7443": 115,
        "7444": 102,
        "7445": 208,
        "7446": 221,
        "7447": 134,
        "7448": 126,
        "7449": 8,
        "7450": 121,
        "7451": 14,
        "7452": 198,
        "7453": 196,
        "7454": 234,
        "7455": 36,
        "7456": 113,
        "7457": 240,
        "7458": 41,
        "7459": 163,
        "7460": 108,
        "7461": 68,
        "7462": 199,
        "7463": 235,
        "7464": 254,
        "7465": 23,
        "7466": 68,
        "7467": 93,
        "7468": 216,
        "7469": 0,
        "7470": 32,
        "7471": 209,
        "7472": 61,
        "7473": 116,
        "7474": 225,
        "7475": 43,
        "7476": 78,
        "7477": 90,
        "7478": 22,
        "7479": 238,
        "7480": 207,
        "7481": 62,
        "7482": 90,
        "7483": 234,
        "7484": 197,
        "7485": 68,
        "7486": 206,
        "7487": 241,
        "7488": 104,
        "7489": 28,
        "7490": 103,
        "7491": 128,
        "7492": 123,
        "7493": 154,
        "7494": 198,
        "7495": 80,
        "7496": 182,
        "7497": 224,
        "7498": 144,
        "7499": 39,
        "7500": 113,
        "7501": 108,
        "7502": 141,
        "7503": 84,
        "7504": 17,
        "7505": 129,
        "7506": 255,
        "7507": 6,
        "7508": 253,
        "7509": 90,
        "7510": 127,
        "7511": 152,
        "7512": 8,
        "7513": 8,
        "7514": 97,
        "7515": 201,
        "7516": 194,
        "7517": 7,
        "7518": 24,
        "7519": 143,
        "7520": 56,
        "7521": 106,
        "7522": 114,
        "7523": 153,
        "7524": 193,
        "7525": 176,
        "7526": 83,
        "7527": 113,
        "7528": 58,
        "7529": 185,
        "7530": 162,
        "7531": 238,
        "7532": 253,
        "7533": 186,
        "7534": 172,
        "7535": 167,
        "7536": 3,
        "7537": 220,
        "7538": 30,
        "7539": 67,
        "7540": 225,
        "7541": 163,
        "7542": 39,
        "7543": 103,
        "7544": 99,
        "7545": 59,
        "7546": 181,
        "7547": 216,
        "7548": 248,
        "7549": 208,
        "7550": 79,
        "7551": 242,
        "7552": 53,
        "7553": 88,
        "7554": 136,
        "7555": 218,
        "7556": 233,
        "7557": 108,
        "7558": 221,
        "7559": 214,
        "7560": 14,
        "7561": 218,
        "7562": 246,
        "7563": 191,
        "7564": 35,
        "7565": 160,
        "7566": 70,
        "7567": 43,
        "7568": 244,
        "7569": 157,
        "7570": 175,
        "7571": 36,
        "7572": 214,
        "7573": 233,
        "7574": 216,
        "7575": 100,
        "7576": 31,
        "7577": 50,
        "7578": 159,
        "7579": 115,
        "7580": 110,
        "7581": 133,
        "7582": 243,
        "7583": 114,
        "7584": 230,
        "7585": 52,
        "7586": 78,
        "7587": 27,
        "7588": 132,
        "7589": 174,
        "7590": 81,
        "7591": 202,
        "7592": 158,
        "7593": 153,
        "7594": 151,
        "7595": 51,
        "7596": 218,
        "7597": 30,
        "7598": 215,
        "7599": 22,
        "7600": 52,
        "7601": 242,
        "7602": 144,
        "7603": 202,
        "7604": 185,
        "7605": 206,
        "7606": 177,
        "7607": 148,
        "7608": 127,
        "7609": 167,
        "7610": 151,
        "7611": 30,
        "7612": 74,
        "7613": 102,
        "7614": 110,
        "7615": 17,
        "7616": 145,
        "7617": 130,
        "7618": 68,
        "7619": 188,
        "7620": 238,
        "7621": 14,
        "7622": 36,
        "7623": 208,
        "7624": 250,
        "7625": 17,
        "7626": 120,
        "7627": 44,
        "7628": 169,
        "7629": 117,
        "7630": 1,
        "7631": 158,
        "7632": 176,
        "7633": 42,
        "7634": 19,
        "7635": 140,
        "7636": 128,
        "7637": 12,
        "7638": 23,
        "7639": 27,
        "7640": 31,
        "7641": 212,
        "7642": 201,
        "7643": 252,
        "7644": 156,
        "7645": 185,
        "7646": 61,
        "7647": 248,
        "7648": 72,
        "7649": 217,
        "7650": 150,
        "7651": 188,
        "7652": 72,
        "7653": 97,
        "7654": 128,
        "7655": 225,
        "7656": 85,
        "7657": 175,
        "7658": 133,
        "7659": 43,
        "7660": 228,
        "7661": 90,
        "7662": 136,
        "7663": 42,
        "7664": 54,
        "7665": 102,
        "7666": 250,
        "7667": 43,
        "7668": 170,
        "7669": 31,
        "7670": 16,
        "7671": 154,
        "7672": 165,
        "7673": 21,
        "7674": 128,
        "7675": 228,
        "7676": 207,
        "7677": 71,
        "7678": 107,
        "7679": 166,
        "7680": 188,
        "7681": 125,
        "7682": 34,
        "7683": 191,
        "7684": 181,
        "7685": 19,
        "7686": 78,
        "7687": 151,
        "7688": 253,
        "7689": 200,
        "7690": 195,
        "7691": 190,
        "7692": 77,
        "7693": 220,
        "7694": 255,
        "7695": 116,
        "7696": 249,
        "7697": 72,
        "7698": 158,
        "7699": 244,
        "7700": 171,
        "7701": 253,
        "7702": 111,
        "7703": 24,
        "7704": 88,
        "7705": 245,
        "7706": 178,
        "7707": 248,
        "7708": 28,
        "7709": 198,
        "7710": 234,
        "7711": 28,
        "7712": 131,
        "7713": 224,
        "7714": 45,
        "7715": 145,
        "7716": 118,
        "7717": 160,
        "7718": 205,
        "7719": 116,
        "7720": 110,
        "7721": 63,
        "7722": 156,
        "7723": 195,
        "7724": 124,
        "7725": 210,
        "7726": 176,
        "7727": 134,
        "7728": 207,
        "7729": 214,
        "7730": 13,
        "7731": 58,
        "7732": 68,
        "7733": 87,
        "7734": 215,
        "7735": 23,
        "7736": 79,
        "7737": 88,
        "7738": 64,
        "7739": 113,
        "7740": 123,
        "7741": 228,
        "7742": 7,
        "7743": 197,
        "7744": 206,
        "7745": 179,
        "7746": 111,
        "7747": 78,
        "7748": 230,
        "7749": 241,
        "7750": 231,
        "7751": 177,
        "7752": 208,
        "7753": 222,
        "7754": 92,
        "7755": 242,
        "7756": 11,
        "7757": 208,
        "7758": 246,
        "7759": 24,
        "7760": 30,
        "7761": 79,
        "7762": 179,
        "7763": 64,
        "7764": 109,
        "7765": 41,
        "7766": 179,
        "7767": 224,
        "7768": 100,
        "7769": 11,
        "7770": 108,
        "7771": 43,
        "7772": 98,
        "7773": 124,
        "7774": 35,
        "7775": 12,
        "7776": 84,
        "7777": 127,
        "7778": 138,
        "7779": 165,
        "7780": 69,
        "7781": 226,
        "7782": 18,
        "7783": 166,
        "7784": 138,
        "7785": 237,
        "7786": 145,
        "7787": 198,
        "7788": 17,
        "7789": 221,
        "7790": 43,
        "7791": 248,
        "7792": 98,
        "7793": 72,
        "7794": 170,
        "7795": 97,
        "7796": 84,
        "7797": 14,
        "7798": 240,
        "7799": 20,
        "7800": 132,
        "7801": 226,
        "7802": 1,
        "7803": 107,
        "7804": 175,
        "7805": 62,
        "7806": 79,
        "7807": 238,
        "7808": 15,
        "7809": 90,
        "7810": 97,
        "7811": 136,
        "7812": 89,
        "7813": 225,
        "7814": 80,
        "7815": 106,
        "7816": 225,
        "7817": 85,
        "7818": 94,
        "7819": 230,
        "7820": 140,
        "7821": 102,
        "7822": 146,
        "7823": 150,
        "7824": 96,
        "7825": 214,
        "7826": 194,
        "7827": 137,
        "7828": 8,
        "7829": 242,
        "7830": 244,
        "7831": 152,
        "7832": 189,
        "7833": 2,
        "7834": 102,
        "7835": 47,
        "7836": 88,
        "7837": 143,
        "7838": 91,
        "7839": 33,
        "7840": 228,
        "7841": 135,
        "7842": 77,
        "7843": 237,
        "7844": 111,
        "7845": 187,
        "7846": 136,
        "7847": 166,
        "7848": 192,
        "7849": 234,
        "7850": 20,
        "7851": 225,
        "7852": 179,
        "7853": 151,
        "7854": 128,
        "7855": 247,
        "7856": 156,
        "7857": 167,
        "7858": 224,
        "7859": 29,
        "7860": 174,
        "7861": 190,
        "7862": 250,
        "7863": 219,
        "7864": 20,
        "7865": 165,
        "7866": 163,
        "7867": 51,
        "7868": 44,
        "7869": 246,
        "7870": 177,
        "7871": 245,
        "7872": 186,
        "7873": 130,
        "7874": 239,
        "7875": 120,
        "7876": 125,
        "7877": 150,
        "7878": 117,
        "7879": 212,
        "7880": 211,
        "7881": 214,
        "7882": 236,
        "7883": 170,
        "7884": 227,
        "7885": 114,
        "7886": 48,
        "7887": 219,
        "7888": 163,
        "7889": 38,
        "7890": 91,
        "7891": 21,
        "7892": 182,
        "7893": 124,
        "7894": 79,
        "7895": 217,
        "7896": 34,
        "7897": 78,
        "7898": 179,
        "7899": 239,
        "7900": 254,
        "7901": 37,
        "7902": 20,
        "7903": 212,
        "7904": 40,
        "7905": 18,
        "7906": 220,
        "7907": 32,
        "7908": 205,
        "7909": 101,
        "7910": 99,
        "7911": 129,
        "7912": 240,
        "7913": 57,
        "7914": 47,
        "7915": 145,
        "7916": 198,
        "7917": 157,
        "7918": 3,
        "7919": 182,
        "7920": 47,
        "7921": 206,
        "7922": 180,
        "7923": 244,
        "7924": 204,
        "7925": 132,
        "7926": 87,
        "7927": 5,
        "7928": 242,
        "7929": 173,
        "7930": 90,
        "7931": 90,
        "7932": 199,
        "7933": 170,
        "7934": 115,
        "7935": 0,
        "7936": 203,
        "7937": 125,
        "7938": 219,
        "7939": 77,
        "7940": 59,
        "7941": 33,
        "7942": 56,
        "7943": 131,
        "7944": 144,
        "7945": 99,
        "7946": 172,
        "7947": 185,
        "7948": 173,
        "7949": 23,
        "7950": 14,
        "7951": 174,
        "7952": 63,
        "7953": 217,
        "7954": 208,
        "7955": 15,
        "7956": 103,
        "7957": 202,
        "7958": 79,
        "7959": 178,
        "7960": 18,
        "7961": 157,
        "7962": 97,
        "7963": 214,
        "7964": 202,
        "7965": 134,
        "7966": 15,
        "7967": 38,
        "7968": 13,
        "7969": 191,
        "7970": 183,
        "7971": 194,
        "7972": 232,
        "7973": 90,
        "7974": 83,
        "7975": 149,
        "7976": 177,
        "7977": 137,
        "7978": 165,
        "7979": 73,
        "7980": 106,
        "7981": 138,
        "7982": 214,
        "7983": 70,
        "7984": 193,
        "7985": 103,
        "7986": 189,
        "7987": 15,
        "7988": 178,
        "7989": 130,
        "7990": 65,
        "7991": 98,
        "7992": 41,
        "7993": 87,
        "7994": 181,
        "7995": 255,
        "7996": 73,
        "7997": 35,
        "7998": 19,
        "7999": 215,
        "8000": 206,
        "8001": 53,
        "8002": 51,
        "8003": 215,
        "8004": 71,
        "8005": 122,
        "8006": 218,
        "8007": 72,
        "8008": 134,
        "8009": 22,
        "8010": 206,
        "8011": 108,
        "8012": 33,
        "8013": 240,
        "8014": 226,
        "8015": 83,
        "8016": 136,
        "8017": 239,
        "8018": 108,
        "8019": 138,
        "8020": 149,
        "8021": 186,
        "8022": 68,
        "8023": 178,
        "8024": 69,
        "8025": 147,
        "8026": 109,
        "8027": 200,
        "8028": 183,
        "8029": 102,
        "8030": 26,
        "8031": 227,
        "8032": 197,
        "8033": 204,
        "8034": 173,
        "8035": 82,
        "8036": 101,
        "8037": 50,
        "8038": 106,
        "8039": 244,
        "8040": 67,
        "8041": 177,
        "8042": 224,
        "8043": 37,
        "8044": 244,
        "8045": 228,
        "8046": 169,
        "8047": 62,
        "8048": 219,
        "8049": 97,
        "8050": 152,
        "8051": 221,
        "8052": 26,
        "8053": 79,
        "8054": 201,
        "8055": 71,
        "8056": 223,
        "8057": 148,
        "8058": 98,
        "8059": 93,
        "8060": 150,
        "8061": 222,
        "8062": 54,
        "8063": 82,
        "8064": 51,
        "8065": 157,
        "8066": 240,
        "8067": 173,
        "8068": 145,
        "8069": 169,
        "8070": 92,
        "8071": 208,
        "8072": 251,
        "8073": 168,
        "8074": 52,
        "8075": 241,
        "8076": 255,
        "8077": 111,
        "8078": 47,
        "8079": 109,
        "8080": 162,
        "8081": 216,
        "8082": 158,
        "8083": 22,
        "8084": 15,
        "8085": 239,
        "8086": 47,
        "8087": 108,
        "8088": 150,
        "8089": 147,
        "8090": 133,
        "8091": 221,
        "8092": 168,
        "8093": 62,
        "8094": 221,
        "8095": 136,
        "8096": 217,
        "8097": 72,
        "8098": 114,
        "8099": 83,
        "8100": 255,
        "8101": 55,
        "8102": 154,
        "8103": 39,
        "8104": 219,
        "8105": 208,
        "8106": 254,
        "8107": 44,
        "8108": 153,
        "8109": 129,
        "8110": 122,
        "8111": 136,
        "8112": 57,
        "8113": 177,
        "8114": 174,
        "8115": 102,
        "8116": 202,
        "8117": 8,
        "8118": 141,
        "8119": 36,
        "8120": 225,
        "8121": 126,
        "8122": 124,
        "8123": 81,
        "8124": 107,
        "8125": 73,
        "8126": 63,
        "8127": 31,
        "8128": 206,
        "8129": 28,
        "8130": 108,
        "8131": 230,
        "8132": 29,
        "8133": 223,
        "8134": 130,
        "8135": 94,
        "8136": 0,
        "8137": 150,
        "8138": 140,
        "8139": 52,
        "8140": 112,
        "8141": 162,
        "8142": 52,
        "8143": 0,
        "8144": 48,
        "8145": 55,
        "8146": 27,
        "8147": 51,
        "8148": 245,
        "8149": 251,
        "8150": 25,
        "8151": 0,
        "8152": 90,
        "8153": 140,
        "8154": 250,
        "8155": 56,
        "8156": 88,
        "8157": 138,
        "8158": 227,
        "8159": 245,
        "8160": 22,
        "8161": 252,
        "8162": 20,
        "8163": 206,
        "8164": 216,
        "8165": 159,
        "8166": 115,
        "8167": 59,
        "8168": 15,
        "8169": 43,
        "8170": 194,
        "8171": 226,
        "8172": 128,
        "8173": 114,
        "8174": 13,
        "8175": 155,
        "8176": 222,
        "8177": 141,
        "8178": 81,
        "8179": 159,
        "8180": 115,
        "8181": 233,
        "8182": 172,
        "8183": 205,
        "8184": 204,
        "8185": 114,
        "8186": 197,
        "8187": 133,
        "8188": 32,
        "8189": 254,
        "8190": 4,
        "8191": 209,
        "8192": 19,
        "8193": 16,
        "8194": 229,
        "8195": 4,
        "8196": 245,
        "8197": 7,
        "8198": 213,
        "8199": 93,
        "8200": 29,
        "8201": 245,
        "8202": 90,
        "8203": 67,
        "8204": 64,
        "8205": 94,
        "8206": 188,
        "8207": 196,
        "8208": 235,
        "8209": 249,
        "8210": 135,
        "8211": 221,
        "8212": 3,
        "8213": 186,
        "8214": 157,
        "8215": 91,
        "8216": 186,
        "8217": 89,
        "8218": 32,
        "8219": 251,
        "8220": 184,
        "8221": 216,
        "8222": 40,
        "8223": 131,
        "8224": 119,
        "8225": 203,
        "8226": 208,
        "8227": 252,
        "8228": 230,
        "8229": 204,
        "8230": 227,
        "8231": 33,
        "8232": 153,
        "8233": 92,
        "8234": 93,
        "8235": 180,
        "8236": 205,
        "8237": 194,
        "8238": 243,
        "8239": 45,
        "8240": 106,
        "8241": 72,
        "8242": 168,
        "8243": 90,
        "8244": 151,
        "8245": 254,
        "8246": 78,
        "8247": 224,
        "8248": 151,
        "8249": 145,
        "8250": 214,
        "8251": 98,
        "8252": 54,
        "8253": 61,
        "8254": 115,
        "8255": 177,
        "8256": 17,
        "8257": 166,
        "8258": 225,
        "8259": 120,
        "8260": 247,
        "8261": 112,
        "8262": 29,
        "8263": 38,
        "8264": 174,
        "8265": 128,
        "8266": 56,
        "8267": 156,
        "8268": 54,
        "8269": 242,
        "8270": 109,
        "8271": 117,
        "8272": 93,
        "8273": 232,
        "8274": 19,
        "8275": 122,
        "8276": 206,
        "8277": 3,
        "8278": 21,
        "8279": 185,
        "8280": 29,
        "8281": 87,
        "8282": 196,
        "8283": 122,
        "8284": 138,
        "8285": 178,
        "8286": 198,
        "8287": 183,
        "8288": 203,
        "8289": 247,
        "8290": 177,
        "8291": 54,
        "8292": 227,
        "8293": 124,
        "8294": 18,
        "8295": 214,
        "8296": 221,
        "8297": 39,
        "8298": 198,
        "8299": 216,
        "8300": 183,
        "8301": 191,
        "8302": 191,
        "8303": 106,
        "8304": 5,
        "8305": 157,
        "8306": 144,
        "8307": 28,
        "8308": 183,
        "8309": 199,
        "8310": 243,
        "8311": 105,
        "8312": 157,
        "8313": 14,
        "8314": 133,
        "8315": 80,
        "8316": 55,
        "8317": 55,
        "8318": 89,
        "8319": 72,
        "8320": 159,
        "8321": 24,
        "8322": 132,
        "8323": 56,
        "8324": 85,
        "8325": 181,
        "8326": 11,
        "8327": 186,
        "8328": 151,
        "8329": 125,
        "8330": 2,
        "8331": 165,
        "8332": 36,
        "8333": 72,
        "8334": 128,
        "8335": 128,
        "8336": 176,
        "8337": 59,
        "8338": 33,
        "8339": 140,
        "8340": 117,
        "8341": 10,
        "8342": 254,
        "8343": 39,
        "8344": 229,
        "8345": 121,
        "8346": 215,
        "8347": 100,
        "8348": 215,
        "8349": 13,
        "8350": 42,
        "8351": 115,
        "8352": 23,
        "8353": 205,
        "8354": 172,
        "8355": 240,
        "8356": 124,
        "8357": 124,
        "8358": 218,
        "8359": 69,
        "8360": 247,
        "8361": 248,
        "8362": 142,
        "8363": 19,
        "8364": 229,
        "8365": 168,
        "8366": 241,
        "8367": 245,
        "8368": 232,
        "8369": 161,
        "8370": 120,
        "8371": 133,
        "8372": 125,
        "8373": 214,
        "8374": 188,
        "8375": 205,
        "8376": 185,
        "8377": 203,
        "8378": 139,
        "8379": 169,
        "8380": 51,
        "8381": 232,
        "8382": 237,
        "8383": 150,
        "8384": 1,
        "8385": 73,
        "8386": 169,
        "8387": 252,
        "8388": 166,
        "8389": 93,
        "8390": 187,
        "8391": 239,
        "8392": 5,
        "8393": 71,
        "8394": 253,
        "8395": 60,
        "8396": 205,
        "8397": 204,
        "8398": 5,
        "8399": 43,
        "8400": 85,
        "8401": 192,
        "8402": 158,
        "8403": 17,
        "8404": 3,
        "8405": 115,
        "8406": 144,
        "8407": 197,
        "8408": 241,
        "8409": 98,
        "8410": 6,
        "8411": 125,
        "8412": 71,
        "8413": 78,
        "8414": 239,
        "8415": 232,
        "8416": 22,
        "8417": 154,
        "8418": 33,
        "8419": 234,
        "8420": 228,
        "8421": 221,
        "8422": 156,
        "8423": 247,
        "8424": 155,
        "8425": 26,
        "8426": 143,
        "8427": 21,
        "8428": 144,
        "8429": 199,
        "8430": 24,
        "8431": 225,
        "8432": 117,
        "8433": 83,
        "8434": 186,
        "8435": 30,
        "8436": 155,
        "8437": 145,
        "8438": 75,
        "8439": 48,
        "8440": 76,
        "8441": 156,
        "8442": 82,
        "8443": 247,
        "8444": 135,
        "8445": 25,
        "8446": 142,
        "8447": 243,
        "8448": 173,
        "8449": 148,
        "8450": 151,
        "8451": 232,
        "8452": 166,
        "8453": 1,
        "8454": 88,
        "8455": 59,
        "8456": 254,
        "8457": 132,
        "8458": 16,
        "8459": 163,
        "8460": 141,
        "8461": 2,
        "8462": 241,
        "8463": 96,
        "8464": 165,
        "8465": 201,
        "8466": 69,
        "8467": 151,
        "8468": 154,
        "8469": 49,
        "8470": 144,
        "8471": 251,
        "8472": 182,
        "8473": 3,
        "8474": 167,
        "8475": 2,
        "8476": 204,
        "8477": 168,
        "8478": 7,
        "8479": 229,
        "8480": 205,
        "8481": 254,
        "8482": 191,
        "8483": 183,
        "8484": 61,
        "8485": 162,
        "8486": 54,
        "8487": 185,
        "8488": 131,
        "8489": 74,
        "8490": 119,
        "8491": 219,
        "8492": 50,
        "8493": 53,
        "8494": 106,
        "8495": 239,
        "8496": 17,
        "8497": 12,
        "8498": 131,
        "8499": 109,
        "8500": 238,
        "8501": 40,
        "8502": 4,
        "8503": 35,
        "8504": 173,
        "8505": 51,
        "8506": 55,
        "8507": 103,
        "8508": 99,
        "8509": 67,
        "8510": 30,
        "8511": 205,
        "8512": 34,
        "8513": 228,
        "8514": 252,
        "8515": 146,
        "8516": 9,
        "8517": 159,
        "8518": 141,
        "8519": 240,
        "8520": 201,
        "8521": 72,
        "8522": 49,
        "8523": 248,
        "8524": 224,
        "8525": 178,
        "8526": 138,
        "8527": 250,
        "8528": 164,
        "8529": 48,
        "8530": 232,
        "8531": 72,
        "8532": 57,
        "8533": 117,
        "8534": 18,
        "8535": 51,
        "8536": 118,
        "8537": 209,
        "8538": 89,
        "8539": 41,
        "8540": 85,
        "8541": 174,
        "8542": 60,
        "8543": 244,
        "8544": 114,
        "8545": 200,
        "8546": 136,
        "8547": 222,
        "8548": 205,
        "8549": 133,
        "8550": 141,
        "8551": 156,
        "8552": 121,
        "8553": 254,
        "8554": 147,
        "8555": 21,
        "8556": 190,
        "8557": 150,
        "8558": 232,
        "8559": 151,
        "8560": 178,
        "8561": 77,
        "8562": 183,
        "8563": 30,
        "8564": 156,
        "8565": 66,
        "8566": 198,
        "8567": 203,
        "8568": 252,
        "8569": 38,
        "8570": 183,
        "8571": 168,
        "8572": 30,
        "8573": 147,
        "8574": 225,
        "8575": 140,
        "8576": 36,
        "8577": 103,
        "8578": 96,
        "8579": 154,
        "8580": 225,
        "8581": 185,
        "8582": 216,
        "8583": 125,
        "8584": 200,
        "8585": 142,
        "8586": 243,
        "8587": 125,
        "8588": 214,
        "8589": 49,
        "8590": 202,
        "8591": 128,
        "8592": 143,
        "8593": 222,
        "8594": 254,
        "8595": 51,
        "8596": 187,
        "8597": 68,
        "8598": 129,
        "8599": 6,
        "8600": 163,
        "8601": 253,
        "8602": 90,
        "8603": 75,
        "8604": 240,
        "8605": 40,
        "8606": 174,
        "8607": 57,
        "8608": 252,
        "8609": 252,
        "8610": 231,
        "8611": 7,
        "8612": 178,
        "8613": 254,
        "8614": 89,
        "8615": 143,
        "8616": 91,
        "8617": 132,
        "8618": 227,
        "8619": 89,
        "8620": 138,
        "8621": 8,
        "8622": 157,
        "8623": 117,
        "8624": 186,
        "8625": 211,
        "8626": 23,
        "8627": 251,
        "8628": 240,
        "8629": 29,
        "8630": 80,
        "8631": 23,
        "8632": 17,
        "8633": 191,
        "8634": 249,
        "8635": 44,
        "8636": 216,
        "8637": 168,
        "8638": 75,
        "8639": 105,
        "8640": 84,
        "8641": 52,
        "8642": 246,
        "8643": 129,
        "8644": 6,
        "8645": 97,
        "8646": 196,
        "8647": 98,
        "8648": 205,
        "8649": 44,
        "8650": 159,
        "8651": 14,
        "8652": 127,
        "8653": 99,
        "8654": 168,
        "8655": 198,
        "8656": 242,
        "8657": 79,
        "8658": 1,
        "8659": 132,
        "8660": 196,
        "8661": 172,
        "8662": 49,
        "8663": 168,
        "8664": 243,
        "8665": 109,
        "8666": 47,
        "8667": 130,
        "8668": 177,
        "8669": 248,
        "8670": 34,
        "8671": 136,
        "8672": 246,
        "8673": 65,
        "8674": 116,
        "8675": 62,
        "8676": 121,
        "8677": 55,
        "8678": 23,
        "8679": 244,
        "8680": 108,
        "8681": 146,
        "8682": 49,
        "8683": 2,
        "8684": 149,
        "8685": 151,
        "8686": 72,
        "8687": 44,
        "8688": 33,
        "8689": 242,
        "8690": 64,
        "8691": 5,
        "8692": 72,
        "8693": 125,
        "8694": 196,
        "8695": 203,
        "8696": 105,
        "8697": 2,
        "8698": 238,
        "8699": 121,
        "8700": 29,
        "8701": 235,
        "8702": 71,
        "8703": 209,
        "8704": 3,
        "8705": 87,
        "8706": 125,
        "8707": 103,
        "8708": 56,
        "8709": 67,
        "8710": 142,
        "8711": 232,
        "8712": 91,
        "8713": 209,
        "8714": 43,
        "8715": 42,
        "8716": 189,
        "8717": 243,
        "8718": 221,
        "8719": 51,
        "8720": 181,
        "8721": 234,
        "8722": 168,
        "8723": 150,
        "8724": 25,
        "8725": 232,
        "8726": 194,
        "8727": 248,
        "8728": 50,
        "8729": 78,
        "8730": 244,
        "8731": 201,
        "8732": 79,
        "8733": 237,
        "8734": 15,
        "8735": 22,
        "8736": 29,
        "8737": 144,
        "8738": 29,
        "8739": 120,
        "8740": 25,
        "8741": 110,
        "8742": 205,
        "8743": 45,
        "8744": 48,
        "8745": 184,
        "8746": 87,
        "8747": 156,
        "8748": 163,
        "8749": 106,
        "8750": 179,
        "8751": 181,
        "8752": 167,
        "8753": 127,
        "8754": 185,
        "8755": 65,
        "8756": 124,
        "8757": 238,
        "8758": 50,
        "8759": 13,
        "8760": 13,
        "8761": 54,
        "8762": 154,
        "8763": 37,
        "8764": 171,
        "8765": 181,
        "8766": 210,
        "8767": 141,
        "8768": 231,
        "8769": 203,
        "8770": 152,
        "8771": 50,
        "8772": 65,
        "8773": 115,
        "8774": 118,
        "8775": 208,
        "8776": 170,
        "8777": 61,
        "8778": 115,
        "8779": 222,
        "8780": 197,
        "8781": 35,
        "8782": 143,
        "8783": 64,
        "8784": 184,
        "8785": 200,
        "8786": 92,
        "8787": 193,
        "8788": 78,
        "8789": 184,
        "8790": 115,
        "8791": 78,
        "8792": 247,
        "8793": 158,
        "8794": 215,
        "8795": 156,
        "8796": 25,
        "8797": 0,
        "8798": 107,
        "8799": 135,
        "8800": 194,
        "8801": 25,
        "8802": 197,
        "8803": 240,
        "8804": 141,
        "8805": 182,
        "8806": 40,
        "8807": 116,
        "8808": 121,
        "8809": 198,
        "8810": 249,
        "8811": 186,
        "8812": 121,
        "8813": 155,
        "8814": 216,
        "8815": 122,
        "8816": 240,
        "8817": 181,
        "8818": 168,
        "8819": 153,
        "8820": 133,
        "8821": 122,
        "8822": 57,
        "8823": 243,
        "8824": 12,
        "8825": 194,
        "8826": 54,
        "8827": 137,
        "8828": 178,
        "8829": 149,
        "8830": 71,
        "8831": 228,
        "8832": 168,
        "8833": 106,
        "8834": 148,
        "8835": 220,
        "8836": 99,
        "8837": 254,
        "8838": 236,
        "8839": 85,
        "8840": 52,
        "8841": 172,
        "8842": 171,
        "8843": 170,
        "8844": 180,
        "8845": 104,
        "8846": 252,
        "8847": 149,
        "8848": 71,
        "8849": 65,
        "8850": 52,
        "8851": 238,
        "8852": 113,
        "8853": 148,
        "8854": 50,
        "8855": 148,
        "8856": 129,
        "8857": 66,
        "8858": 173,
        "8859": 200,
        "8860": 15,
        "8861": 59,
        "8862": 69,
        "8863": 96,
        "8864": 128,
        "8865": 41,
        "8866": 69,
        "8867": 76,
        "8868": 73,
        "8869": 106,
        "8870": 241,
        "8871": 38,
        "8872": 140,
        "8873": 180,
        "8874": 149,
        "8875": 211,
        "8876": 108,
        "8877": 130,
        "8878": 199,
        "8879": 244,
        "8880": 132,
        "8881": 240,
        "8882": 75,
        "8883": 180,
        "8884": 128,
        "8885": 61,
        "8886": 82,
        "8887": 231,
        "8888": 32,
        "8889": 161,
        "8890": 121,
        "8891": 236,
        "8892": 100,
        "8893": 210,
        "8894": 70,
        "8895": 224,
        "8896": 23,
        "8897": 145,
        "8898": 55,
        "8899": 36,
        "8900": 124,
        "8901": 143,
        "8902": 254,
        "8903": 73,
        "8904": 246,
        "8905": 15,
        "8906": 65,
        "8907": 236,
        "8908": 24,
        "8909": 214,
        "8910": 150,
        "8911": 216,
        "8912": 112,
        "8913": 208,
        "8914": 38,
        "8915": 184,
        "8916": 62,
        "8917": 131,
        "8918": 89,
        "8919": 29,
        "8920": 81,
        "8921": 129,
        "8922": 85,
        "8923": 139,
        "8924": 175,
        "8925": 74,
        "8926": 176,
        "8927": 74,
        "8928": 219,
        "8929": 189,
        "8930": 96,
        "8931": 103,
        "8932": 236,
        "8933": 201,
        "8934": 182,
        "8935": 93,
        "8936": 80,
        "8937": 147,
        "8938": 149,
        "8939": 43,
        "8940": 100,
        "8941": 122,
        "8942": 226,
        "8943": 153,
        "8944": 39,
        "8945": 239,
        "8946": 83,
        "8947": 192,
        "8948": 25,
        "8949": 164,
        "8950": 64,
        "8951": 6,
        "8952": 111,
        "8953": 58,
        "8954": 203,
        "8955": 69,
        "8956": 134,
        "8957": 9,
        "8958": 42,
        "8959": 30,
        "8960": 179,
        "8961": 5,
        "8962": 255,
        "8963": 136,
        "8964": 77,
        "8965": 75,
        "8966": 106,
        "8967": 217,
        "8968": 47,
        "8969": 73,
        "8970": 61,
        "8971": 140,
        "8972": 128,
        "8973": 26,
        "8974": 147,
        "8975": 81,
        "8976": 16,
        "8977": 84,
        "8978": 191,
        "8979": 146,
        "8980": 177,
        "8981": 4,
        "8982": 71,
        "8983": 60,
        "8984": 251,
        "8985": 175,
        "8986": 131,
        "8987": 99,
        "8988": 202,
        "8989": 128,
        "8990": 115,
        "8991": 107,
        "8992": 184,
        "8993": 57,
        "8994": 21,
        "8995": 72,
        "8996": 113,
        "8997": 233,
        "8998": 11,
        "8999": 142,
        "9000": 136,
        "9001": 166,
        "9002": 75,
        "9003": 20,
        "9004": 59,
        "9005": 29,
        "9006": 121,
        "9007": 108,
        "9008": 254,
        "9009": 126,
        "9010": 17,
        "9011": 210,
        "9012": 202,
        "9013": 159,
        "9014": 57,
        "9015": 252,
        "9016": 188,
        "9017": 74,
        "9018": 8,
        "9019": 104,
        "9020": 36,
        "9021": 135,
        "9022": 11,
        "9023": 223,
        "9024": 79,
        "9025": 8,
        "9026": 101,
        "9027": 234,
        "9028": 7,
        "9029": 156,
        "9030": 197,
        "9031": 30,
        "9032": 134,
        "9033": 83,
        "9034": 203,
        "9035": 67,
        "9036": 29,
        "9037": 217,
        "9038": 38,
        "9039": 155,
        "9040": 26,
        "9041": 187,
        "9042": 198,
        "9043": 206,
        "9044": 151,
        "9045": 34,
        "9046": 175,
        "9047": 102,
        "9048": 33,
        "9049": 177,
        "9050": 252,
        "9051": 132,
        "9052": 241,
        "9053": 124,
        "9054": 83,
        "9055": 118,
        "9056": 98,
        "9057": 174,
        "9058": 64,
        "9059": 17,
        "9060": 96,
        "9061": 56,
        "9062": 242,
        "9063": 178,
        "9064": 121,
        "9065": 116,
        "9066": 134,
        "9067": 115,
        "9068": 132,
        "9069": 172,
        "9070": 218,
        "9071": 217,
        "9072": 34,
        "9073": 170,
        "9074": 107,
        "9075": 217,
        "9076": 7,
        "9077": 108,
        "9078": 72,
        "9079": 43,
        "9080": 112,
        "9081": 156,
        "9082": 61,
        "9083": 138,
        "9084": 199,
        "9085": 97,
        "9086": 12,
        "9087": 91,
        "9088": 20,
        "9089": 19,
        "9090": 119,
        "9091": 126,
        "9092": 45,
        "9093": 118,
        "9094": 255,
        "9095": 12,
        "9096": 124,
        "9097": 159,
        "9098": 230,
        "9099": 247,
        "9100": 244,
        "9101": 44,
        "9102": 1,
        "9103": 242,
        "9104": 155,
        "9105": 42,
        "9106": 88,
        "9107": 61,
        "9108": 108,
        "9109": 114,
        "9110": 243,
        "9111": 177,
        "9112": 85,
        "9113": 191,
        "9114": 125,
        "9115": 220,
        "9116": 123,
        "9117": 255,
        "9118": 69,
        "9119": 76,
        "9120": 171,
        "9121": 177,
        "9122": 73,
        "9123": 182,
        "9124": 247,
        "9125": 251,
        "9126": 163,
        "9127": 66,
        "9128": 82,
        "9129": 241,
        "9130": 198,
        "9131": 169,
        "9132": 146,
        "9133": 84,
        "9134": 241,
        "9135": 192,
        "9136": 20,
        "9137": 101,
        "9138": 142,
        "9139": 252,
        "9140": 154,
        "9141": 87,
        "9142": 165,
        "9143": 151,
        "9144": 167,
        "9145": 194,
        "9146": 239,
        "9147": 250,
        "9148": 234,
        "9149": 176,
        "9150": 25,
        "9151": 146,
        "9152": 189,
        "9153": 241,
        "9154": 11,
        "9155": 220,
        "9156": 3,
        "9157": 48,
        "9158": 246,
        "9159": 208,
        "9160": 166,
        "9161": 251,
        "9162": 105,
        "9163": 157,
        "9164": 125,
        "9165": 204,
        "9166": 125,
        "9167": 231,
        "9168": 138,
        "9169": 195,
        "9170": 58,
        "9171": 105,
        "9172": 36,
        "9173": 182,
        "9174": 179,
        "9175": 165,
        "9176": 57,
        "9177": 58,
        "9178": 13,
        "9179": 208,
        "9180": 97,
        "9181": 187,
        "9182": 137,
        "9183": 138,
        "9184": 8,
        "9185": 171,
        "9186": 66,
        "9187": 0,
        "9188": 94,
        "9189": 95,
        "9190": 46,
        "9191": 43,
        "9192": 240,
        "9193": 122,
        "9194": 126,
        "9195": 79,
        "9196": 57,
        "9197": 64,
        "9198": 48,
        "9199": 187,
        "9200": 251,
        "9201": 24,
        "9202": 116,
        "9203": 144,
        "9204": 86,
        "9205": 250,
        "9206": 207,
        "9207": 29,
        "9208": 9,
        "9209": 188,
        "9210": 124,
        "9211": 94,
        "9212": 165,
        "9213": 215,
        "9214": 232,
        "9215": 57,
        "9216": 208,
        "9217": 207,
        "9218": 94,
        "9219": 141,
        "9220": 110,
        "9221": 212,
        "9222": 186,
        "9223": 72,
        "9224": 213,
        "9225": 164,
        "9226": 216,
        "9227": 27,
        "9228": 28,
        "9229": 79,
        "9230": 221,
        "9231": 26,
        "9232": 41,
        "9233": 156,
        "9234": 22,
        "9235": 223,
        "9236": 129,
        "9237": 170,
        "9238": 203,
        "9239": 87,
        "9240": 19,
        "9241": 64,
        "9242": 174,
        "9243": 196,
        "9244": 159,
        "9245": 5,
        "9246": 34,
        "9247": 21,
        "9248": 109,
        "9249": 98,
        "9250": 191,
        "9251": 107,
        "9252": 192,
        "9253": 77,
        "9254": 104,
        "9255": 12,
        "9256": 60,
        "9257": 154,
        "9258": 20,
        "9259": 164,
        "9260": 127,
        "9261": 104,
        "9262": 201,
        "9263": 231,
        "9264": 162,
        "9265": 242,
        "9266": 251,
        "9267": 248,
        "9268": 8,
        "9269": 77,
        "9270": 219,
        "9271": 120,
        "9272": 13,
        "9273": 235,
        "9274": 108,
        "9275": 167,
        "9276": 178,
        "9277": 157,
        "9278": 155,
        "9279": 65,
        "9280": 181,
        "9281": 116,
        "9282": 222,
        "9283": 140,
        "9284": 32,
        "9285": 117,
        "9286": 32,
        "9287": 251,
        "9288": 8,
        "9289": 84,
        "9290": 103,
        "9291": 55,
        "9292": 80,
        "9293": 229,
        "9294": 71,
        "9295": 129,
        "9296": 239,
        "9297": 195,
        "9298": 48,
        "9299": 188,
        "9300": 145,
        "9301": 175,
        "9302": 200,
        "9303": 207,
        "9304": 115,
        "9305": 23,
        "9306": 83,
        "9307": 254,
        "9308": 36,
        "9309": 227,
        "9310": 238,
        "9311": 83,
        "9312": 114,
        "9313": 174,
        "9314": 185,
        "9315": 197,
        "9316": 236,
        "9317": 72,
        "9318": 81,
        "9319": 170,
        "9320": 166,
        "9321": 37,
        "9322": 200,
        "9323": 240,
        "9324": 33,
        "9325": 130,
        "9326": 182,
        "9327": 131,
        "9328": 243,
        "9329": 105,
        "9330": 101,
        "9331": 176,
        "9332": 194,
        "9333": 63,
        "9334": 70,
        "9335": 48,
        "9336": 207,
        "9337": 96,
        "9338": 63,
        "9339": 137,
        "9340": 97,
        "9341": 67,
        "9342": 74,
        "9343": 154,
        "9344": 0,
        "9345": 75,
        "9346": 18,
        "9347": 152,
        "9348": 168,
        "9349": 52,
        "9350": 202,
        "9351": 132,
        "9352": 129,
        "9353": 108,
        "9354": 83,
        "9355": 64,
        "9356": 230,
        "9357": 199,
        "9358": 209,
        "9359": 252,
        "9360": 36,
        "9361": 166,
        "9362": 163,
        "9363": 172,
        "9364": 105,
        "9365": 114,
        "9366": 171,
        "9367": 107,
        "9368": 3,
        "9369": 60,
        "9370": 7,
        "9371": 45,
        "9372": 114,
        "9373": 125,
        "9374": 194,
        "9375": 13,
        "9376": 212,
        "9377": 69,
        "9378": 63,
        "9379": 57,
        "9380": 39,
        "9381": 182,
        "9382": 139,
        "9383": 31,
        "9384": 93,
        "9385": 69,
        "9386": 254,
        "9387": 26,
        "9388": 61,
        "9389": 3,
        "9390": 65,
        "9391": 28,
        "9392": 215,
        "9393": 250,
        "9394": 9,
        "9395": 86,
        "9396": 230,
        "9397": 14,
        "9398": 236,
        "9399": 105,
        "9400": 190,
        "9401": 229,
        "9402": 32,
        "9403": 156,
        "9404": 219,
        "9405": 23,
        "9406": 179,
        "9407": 129,
        "9408": 122,
        "9409": 95,
        "9410": 236,
        "9411": 237,
        "9412": 99,
        "9413": 15,
        "9414": 215,
        "9415": 39,
        "9416": 251,
        "9417": 167,
        "9418": 6,
        "9419": 113,
        "9420": 84,
        "9421": 152,
        "9422": 147,
        "9423": 174,
        "9424": 167,
        "9425": 81,
        "9426": 87,
        "9427": 232,
        "9428": 255,
        "9429": 212,
        "9430": 145,
        "9431": 168,
        "9432": 140,
        "9433": 77,
        "9434": 44,
        "9435": 116,
        "9436": 67,
        "9437": 237,
        "9438": 135,
        "9439": 242,
        "9440": 15,
        "9441": 18,
        "9442": 212,
        "9443": 133,
        "9444": 42,
        "9445": 174,
        "9446": 117,
        "9447": 93,
        "9448": 222,
        "9449": 72,
        "9450": 177,
        "9451": 108,
        "9452": 251,
        "9453": 192,
        "9454": 186,
        "9455": 60,
        "9456": 65,
        "9457": 48,
        "9458": 42,
        "9459": 141,
        "9460": 243,
        "9461": 218,
        "9462": 193,
        "9463": 50,
        "9464": 239,
        "9465": 44,
        "9466": 101,
        "9467": 39,
        "9468": 35,
        "9469": 204,
        "9470": 197,
        "9471": 198,
        "9472": 244,
        "9473": 15,
        "9474": 197,
        "9475": 98,
        "9476": 61,
        "9477": 55,
        "9478": 223,
        "9479": 109,
        "9480": 181,
        "9481": 120,
        "9482": 80,
        "9483": 122,
        "9484": 145,
        "9485": 73,
        "9486": 174,
        "9487": 80,
        "9488": 112,
        "9489": 238,
        "9490": 57,
        "9491": 180,
        "9492": 121,
        "9493": 184,
        "9494": 58,
        "9495": 145,
        "9496": 100,
        "9497": 116,
        "9498": 204,
        "9499": 253,
        "9500": 68,
        "9501": 126,
        "9502": 32,
        "9503": 19,
        "9504": 168,
        "9505": 184,
        "9506": 242,
        "9507": 158,
        "9508": 173,
        "9509": 166,
        "9510": 104,
        "9511": 80,
        "9512": 30,
        "9513": 96,
        "9514": 236,
        "9515": 199,
        "9516": 174,
        "9517": 133,
        "9518": 158,
        "9519": 173,
        "9520": 105,
        "9521": 100,
        "9522": 159,
        "9523": 111,
        "9524": 112,
        "9525": 229,
        "9526": 174,
        "9527": 62,
        "9528": 194,
        "9529": 17,
        "9530": 31,
        "9531": 49,
        "9532": 251,
        "9533": 228,
        "9534": 33,
        "9535": 8,
        "9536": 42,
        "9537": 50,
        "9538": 210,
        "9539": 19,
        "9540": 78,
        "9541": 162,
        "9542": 30,
        "9543": 222,
        "9544": 101,
        "9545": 217,
        "9546": 208,
        "9547": 19,
        "9548": 67,
        "9549": 114,
        "9550": 74,
        "9551": 208,
        "9552": 220,
        "9553": 191,
        "9554": 193,
        "9555": 136,
        "9556": 115,
        "9557": 206,
        "9558": 127,
        "9559": 154,
        "9560": 67,
        "9561": 110,
        "9562": 76,
        "9563": 242,
        "9564": 186,
        "9565": 214,
        "9566": 230,
        "9567": 220,
        "9568": 235,
        "9569": 125,
        "9570": 65,
        "9571": 158,
        "9572": 221,
        "9573": 122,
        "9574": 177,
        "9575": 160,
        "9576": 3,
        "9577": 193,
        "9578": 165,
        "9579": 1,
        "9580": 151,
        "9581": 173,
        "9582": 210,
        "9583": 156,
        "9584": 4,
        "9585": 141,
        "9586": 240,
        "9587": 212,
        "9588": 9,
        "9589": 135,
        "9590": 190,
        "9591": 215,
        "9592": 50,
        "9593": 58,
        "9594": 198,
        "9595": 250,
        "9596": 70,
        "9597": 124,
        "9598": 136,
        "9599": 101,
        "9600": 210,
        "9601": 0,
        "9602": 239,
        "9603": 165,
        "9604": 113,
        "9605": 92,
        "9606": 59,
        "9607": 38,
        "9608": 200,
        "9609": 109,
        "9610": 183,
        "9611": 27,
        "9612": 24,
        "9613": 193,
        "9614": 30,
        "9615": 148,
        "9616": 162,
        "9617": 246,
        "9618": 231,
        "9619": 173,
        "9620": 20,
        "9621": 246,
        "9622": 92,
        "9623": 225,
        "9624": 170,
        "9625": 69,
        "9626": 228,
        "9627": 161,
        "9628": 41,
        "9629": 213,
        "9630": 34,
        "9631": 188,
        "9632": 88,
        "9633": 166,
        "9634": 7,
        "9635": 40,
        "9636": 151,
        "9637": 233,
        "9638": 212,
        "9639": 27,
        "9640": 219,
        "9641": 75,
        "9642": 210,
        "9643": 153,
        "9644": 139,
        "9645": 147,
        "9646": 252,
        "9647": 238,
        "9648": 55,
        "9649": 99,
        "9650": 166,
        "9651": 149,
        "9652": 214,
        "9653": 173,
        "9654": 31,
        "9655": 210,
        "9656": 42,
        "9657": 148,
        "9658": 81,
        "9659": 17,
        "9660": 46,
        "9661": 213,
        "9662": 29,
        "9663": 41,
        "9664": 112,
        "9665": 104,
        "9666": 187,
        "9667": 157,
        "9668": 68,
        "9669": 134,
        "9670": 171,
        "9671": 246,
        "9672": 87,
        "9673": 169,
        "9674": 199,
        "9675": 243,
        "9676": 76,
        "9677": 122,
        "9678": 190,
        "9679": 192,
        "9680": 67,
        "9681": 223,
        "9682": 192,
        "9683": 10,
        "9684": 51,
        "9685": 190,
        "9686": 44,
        "9687": 151,
        "9688": 79,
        "9689": 91,
        "9690": 251,
        "9691": 116,
        "9692": 163,
        "9693": 123,
        "9694": 122,
        "9695": 82,
        "9696": 107,
        "9697": 230,
        "9698": 198,
        "9699": 57,
        "9700": 38,
        "9701": 152,
        "9702": 203,
        "9703": 28,
        "9704": 216,
        "9705": 138,
        "9706": 196,
        "9707": 60,
        "9708": 138,
        "9709": 48,
        "9710": 152,
        "9711": 245,
        "9712": 158,
        "9713": 127,
        "9714": 48,
        "9715": 156,
        "9716": 18,
        "9717": 59,
        "9718": 83,
        "9719": 107,
        "9720": 133,
        "9721": 246,
        "9722": 20,
        "9723": 150,
        "9724": 253,
        "9725": 214,
        "9726": 143,
        "9727": 179,
        "9728": 117,
        "9729": 176,
        "9730": 233,
        "9731": 107,
        "9732": 109,
        "9733": 205,
        "9734": 95,
        "9735": 51,
        "9736": 161,
        "9737": 230,
        "9738": 253,
        "9739": 247,
        "9740": 141,
        "9741": 69,
        "9742": 61,
        "9743": 12,
        "9744": 145,
        "9745": 210,
        "9746": 156,
        "9747": 91,
        "9748": 253,
        "9749": 230,
        "9750": 129,
        "9751": 43,
        "9752": 13,
        "9753": 120,
        "9754": 42,
        "9755": 232,
        "9756": 21,
        "9757": 1,
        "9758": 131,
        "9759": 4,
        "9760": 139,
        "9761": 50,
        "9762": 93,
        "9763": 162,
        "9764": 159,
        "9765": 150,
        "9766": 139,
        "9767": 231,
        "9768": 152,
        "9769": 85,
        "9770": 4,
        "9771": 97,
        "9772": 148,
        "9773": 106,
        "9774": 225,
        "9775": 150,
        "9776": 8,
        "9777": 22,
        "9778": 192,
        "9779": 72,
        "9780": 178,
        "9781": 222,
        "9782": 41,
        "9783": 205,
        "9784": 134,
        "9785": 234,
        "9786": 34,
        "9787": 152,
        "9788": 97,
        "9789": 83,
        "9790": 188,
        "9791": 174,
        "9792": 139,
        "9793": 58,
        "9794": 18,
        "9795": 222,
        "9796": 107,
        "9797": 135,
        "9798": 218,
        "9799": 146,
        "9800": 243,
        "9801": 121,
        "9802": 165,
        "9803": 47,
        "9804": 226,
        "9805": 41,
        "9806": 232,
        "9807": 97,
        "9808": 202,
        "9809": 233,
        "9810": 11,
        "9811": 209,
        "9812": 100,
        "9813": 68,
        "9814": 214,
        "9815": 204,
        "9816": 165,
        "9817": 53,
        "9818": 108,
        "9819": 61,
        "9820": 100,
        "9821": 226,
        "9822": 191,
        "9823": 75,
        "9824": 44,
        "9825": 26,
        "9826": 53,
        "9827": 246,
        "9828": 101,
        "9829": 22,
        "9830": 27,
        "9831": 41,
        "9832": 103,
        "9833": 207,
        "9834": 57,
        "9835": 216,
        "9836": 141,
        "9837": 161,
        "9838": 250,
        "9839": 139,
        "9840": 50,
        "9841": 233,
        "9842": 140,
        "9843": 134,
        "9844": 128,
        "9845": 41,
        "9846": 247,
        "9847": 185,
        "9848": 250,
        "9849": 181,
        "9850": 41,
        "9851": 103,
        "9852": 101,
        "9853": 246,
        "9854": 238,
        "9855": 27,
        "9856": 223,
        "9857": 33,
        "9858": 98,
        "9859": 138,
        "9860": 6,
        "9861": 27,
        "9862": 206,
        "9863": 24,
        "9864": 102,
        "9865": 124,
        "9866": 248,
        "9867": 159,
        "9868": 255,
        "9869": 49,
        "9870": 75,
        "9871": 127,
        "9872": 121,
        "9873": 107,
        "9874": 99,
        "9875": 125,
        "9876": 171,
        "9877": 133,
        "9878": 229,
        "9879": 251,
        "9880": 77,
        "9881": 109,
        "9882": 59,
        "9883": 186,
        "9884": 194,
        "9885": 185,
        "9886": 14,
        "9887": 237,
        "9888": 5,
        "9889": 176,
        "9890": 143,
        "9891": 164,
        "9892": 61,
        "9893": 244,
        "9894": 67,
        "9895": 81,
        "9896": 116,
        "9897": 212,
        "9898": 34,
        "9899": 208,
        "9900": 95,
        "9901": 4,
        "9902": 30,
        "9903": 60,
        "9904": 21,
        "9905": 50,
        "9906": 151,
        "9907": 101,
        "9908": 245,
        "9909": 69,
        "9910": 43,
        "9911": 96,
        "9912": 111,
        "9913": 74,
        "9914": 3,
        "9915": 184,
        "9916": 218,
        "9917": 31,
        "9918": 44,
        "9919": 125,
        "9920": 214,
        "9921": 17,
        "9922": 188,
        "9923": 38,
        "9924": 32,
        "9925": 89,
        "9926": 208,
        "9927": 166,
        "9928": 7,
        "9929": 255,
        "9930": 13,
        "9931": 96,
        "9932": 186,
        "9933": 54,
        "9934": 169,
        "9935": 25,
        "9936": 132,
        "9937": 58,
        "9938": 86,
        "9939": 2,
        "9940": 160,
        "9941": 112,
        "9942": 184,
        "9943": 10,
        "9944": 98,
        "9945": 112,
        "9946": 27,
        "9947": 201,
        "9948": 105,
        "9949": 245,
        "9950": 12,
        "9951": 88,
        "9952": 223,
        "9953": 212,
        "9954": 151,
        "9955": 7,
        "9956": 59,
        "9957": 159,
        "9958": 16,
        "9959": 232,
        "9960": 112,
        "9961": 84,
        "9962": 251,
        "9963": 182,
        "9964": 149,
        "9965": 116,
        "9966": 229,
        "9967": 146,
        "9968": 154,
        "9969": 156,
        "9970": 184,
        "9971": 11,
        "9972": 54,
        "9973": 31,
        "9974": 80,
        "9975": 3,
        "9976": 117,
        "9977": 144,
        "9978": 171,
        "9979": 85,
        "9980": 55,
        "9981": 5,
        "9982": 24,
        "9983": 117,
        "9984": 218,
        "9985": 21,
        "9986": 160,
        "9987": 84,
        "9988": 87,
        "9989": 61,
        "9990": 27,
        "9991": 230,
        "9992": 244,
        "9993": 47,
        "9994": 42,
        "9995": 142,
        "9996": 211,
        "9997": 150,
        "9998": 90,
        "9999": 76,
        "10000": 107,
        "10001": 213,
        "10002": 69,
        "10003": 112,
        "10004": 42,
        "10005": 197,
        "10006": 143,
        "10007": 67,
        "10008": 15,
        "10009": 110,
        "10010": 178,
        "10011": 138,
        "10012": 19,
        "10013": 91,
        "10014": 126,
        "10015": 22,
        "10016": 254,
        "10017": 27,
        "10018": 206,
        "10019": 24,
        "10020": 81,
        "10021": 105,
        "10022": 236,
        "10023": 144,
        "10024": 237,
        "10025": 113,
        "10026": 125,
        "10027": 114,
        "10028": 223,
        "10029": 238,
        "10030": 58,
        "10031": 192,
        "10032": 90,
        "10033": 225,
        "10034": 186,
        "10035": 102,
        "10036": 185,
        "10037": 79,
        "10038": 93,
        "10039": 228,
        "10040": 17,
        "10041": 21,
        "10042": 198,
        "10043": 89,
        "10044": 43,
        "10045": 101,
        "10046": 210,
        "10047": 216,
        "10048": 157,
        "10049": 152,
        "10050": 155,
        "10051": 67,
        "10052": 154,
        "10053": 0,
        "10054": 41,
        "10055": 226,
        "10056": 12,
        "10057": 20,
        "10058": 255,
        "10059": 159,
        "10060": 196,
        "10061": 34,
        "10062": 165,
        "10063": 238,
        "10064": 53,
        "10065": 248,
        "10066": 104,
        "10067": 121,
        "10068": 133,
        "10069": 136,
        "10070": 37,
        "10071": 252,
        "10072": 151,
        "10073": 233,
        "10074": 70,
        "10075": 45,
        "10076": 109,
        "10077": 212,
        "10078": 134,
        "10079": 25,
        "10080": 127,
        "10081": 56,
        "10082": 15,
        "10083": 56,
        "10084": 33,
        "10085": 165,
        "10086": 227,
        "10087": 202,
        "10088": 235,
        "10089": 217,
        "10090": 128,
        "10091": 78,
        "10092": 152,
        "10093": 248,
        "10094": 141,
        "10095": 245,
        "10096": 78,
        "10097": 116,
        "10098": 35,
        "10099": 192,
        "10100": 106,
        "10101": 73,
        "10102": 36,
        "10103": 84,
        "10104": 213,
        "10105": 58,
        "10106": 47,
        "10107": 145,
        "10108": 173,
        "10109": 176,
        "10110": 20,
        "10111": 116,
        "10112": 223,
        "10113": 204,
        "10114": 101,
        "10115": 75,
        "10116": 98,
        "10117": 141,
        "10118": 25,
        "10119": 166,
        "10120": 147,
        "10121": 37,
        "10122": 150,
        "10123": 151,
        "10124": 151,
        "10125": 250,
        "10126": 158,
        "10127": 51,
        "10128": 220,
        "10129": 199,
        "10130": 197,
        "10131": 103,
        "10132": 136,
        "10133": 126,
        "10134": 136,
        "10135": 116,
        "10136": 22,
        "10137": 101,
        "10138": 225,
        "10139": 251,
        "10140": 131,
        "10141": 145,
        "10142": 226,
        "10143": 81,
        "10144": 194,
        "10145": 85,
        "10146": 203,
        "10147": 17,
        "10148": 240,
        "10149": 78,
        "10150": 170,
        "10151": 9,
        "10152": 107,
        "10153": 173,
        "10154": 13,
        "10155": 12,
        "10156": 57,
        "10157": 93,
        "10158": 55,
        "10159": 236,
        "10160": 60,
        "10161": 254,
        "10162": 46,
        "10163": 218,
        "10164": 15,
        "10165": 53,
        "10166": 226,
        "10167": 4,
        "10168": 144,
        "10169": 16,
        "10170": 178,
        "10171": 137,
        "10172": 102,
        "10173": 50,
        "10174": 181,
        "10175": 23,
        "10176": 48,
        "10177": 174,
        "10178": 54,
        "10179": 236,
        "10180": 164,
        "10181": 73,
        "10182": 205,
        "10183": 156,
        "10184": 232,
        "10185": 179,
        "10186": 18,
        "10187": 195,
        "10188": 29,
        "10189": 243,
        "10190": 245,
        "10191": 235,
        "10192": 141,
        "10193": 242,
        "10194": 223,
        "10195": 69,
        "10196": 133,
        "10197": 216,
        "10198": 10,
        "10199": 56,
        "10200": 116,
        "10201": 107,
        "10202": 142,
        "10203": 196,
        "10204": 153,
        "10205": 243,
        "10206": 178,
        "10207": 139,
        "10208": 9,
        "10209": 207,
        "10210": 174,
        "10211": 82,
        "10212": 233,
        "10213": 64,
        "10214": 176,
        "10215": 175,
        "10216": 6,
        "10217": 226,
        "10218": 66,
        "10219": 32,
        "10220": 178,
        "10221": 6,
        "10222": 146,
        "10223": 162,
        "10224": 61,
        "10225": 127,
        "10226": 86,
        "10227": 105,
        "10228": 117,
        "10229": 178,
        "10230": 10,
        "10231": 103,
        "10232": 89,
        "10233": 245,
        "10234": 96,
        "10235": 31,
        "10236": 204,
        "10237": 209,
        "10238": 89,
        "10239": 216,
        "10240": 63,
        "10241": 150,
        "10242": 242,
        "10243": 167,
        "10244": 182,
        "10245": 84,
        "10246": 34,
        "10247": 111,
        "10248": 197,
        "10249": 46,
        "10250": 77,
        "10251": 86,
        "10252": 183,
        "10253": 62,
        "10254": 223,
        "10255": 88,
        "10256": 142,
        "10257": 219,
        "10258": 190,
        "10259": 247,
        "10260": 12,
        "10261": 22,
        "10262": 164,
        "10263": 179,
        "10264": 190,
        "10265": 120,
        "10266": 107,
        "10267": 117,
        "10268": 179,
        "10269": 82,
        "10270": 153,
        "10271": 189,
        "10272": 193,
        "10273": 0,
        "10274": 133,
        "10275": 184,
        "10276": 128,
        "10277": 221,
        "10278": 193,
        "10279": 218,
        "10280": 93,
        "10281": 220,
        "10282": 21,
        "10283": 91,
        "10284": 101,
        "10285": 109,
        "10286": 221,
        "10287": 72,
        "10288": 194,
        "10289": 38,
        "10290": 83,
        "10291": 47,
        "10292": 2,
        "10293": 225,
        "10294": 83,
        "10295": 239,
        "10296": 236,
        "10297": 173,
        "10298": 21,
        "10299": 207,
        "10300": 209,
        "10301": 37,
        "10302": 12,
        "10303": 201,
        "10304": 24,
        "10305": 173,
        "10306": 168,
        "10307": 96,
        "10308": 225,
        "10309": 162,
        "10310": 42,
        "10311": 146,
        "10312": 235,
        "10313": 190,
        "10314": 31,
        "10315": 150,
        "10316": 61,
        "10317": 200,
        "10318": 35,
        "10319": 103,
        "10320": 126,
        "10321": 128,
        "10322": 106,
        "10323": 53,
        "10324": 130,
        "10325": 152,
        "10326": 196,
        "10327": 173,
        "10328": 119,
        "10329": 167,
        "10330": 71,
        "10331": 100,
        "10332": 67,
        "10333": 199,
        "10334": 137,
        "10335": 211,
        "10336": 251,
        "10337": 196,
        "10338": 101,
        "10339": 118,
        "10340": 133,
        "10341": 104,
        "10342": 58,
        "10343": 234,
        "10344": 143,
        "10345": 91,
        "10346": 17,
        "10347": 180,
        "10348": 155,
        "10349": 81,
        "10350": 89,
        "10351": 115,
        "10352": 204,
        "10353": 208,
        "10354": 255,
        "10355": 86,
        "10356": 110,
        "10357": 38,
        "10358": 1,
        "10359": 254,
        "10360": 18,
        "10361": 211,
        "10362": 25,
        "10363": 105,
        "10364": 51,
        "10365": 145,
        "10366": 237,
        "10367": 73,
        "10368": 168,
        "10369": 53,
        "10370": 66,
        "10371": 109,
        "10372": 79,
        "10373": 73,
        "10374": 71,
        "10375": 140,
        "10376": 203,
        "10377": 221,
        "10378": 212,
        "10379": 185,
        "10380": 101,
        "10381": 240,
        "10382": 186,
        "10383": 6,
        "10384": 82,
        "10385": 89,
        "10386": 188,
        "10387": 166,
        "10388": 86,
        "10389": 189,
        "10390": 108,
        "10391": 141,
        "10392": 241,
        "10393": 128,
        "10394": 176,
        "10395": 151,
        "10396": 175,
        "10397": 57,
        "10398": 172,
        "10399": 211,
        "10400": 221,
        "10401": 31,
        "10402": 29,
        "10403": 233,
        "10404": 170,
        "10405": 166,
        "10406": 237,
        "10407": 73,
        "10408": 160,
        "10409": 62,
        "10410": 166,
        "10411": 98,
        "10412": 158,
        "10413": 109,
        "10414": 211,
        "10415": 125,
        "10416": 172,
        "10417": 86,
        "10418": 122,
        "10419": 2,
        "10420": 1,
        "10421": 75,
        "10422": 94,
        "10423": 154,
        "10424": 191,
        "10425": 196,
        "10426": 47,
        "10427": 244,
        "10428": 159,
        "10429": 121,
        "10430": 187,
        "10431": 136,
        "10432": 239,
        "10433": 59,
        "10434": 88,
        "10435": 24,
        "10436": 88,
        "10437": 205,
        "10438": 71,
        "10439": 24,
        "10440": 90,
        "10441": 23,
        "10442": 124,
        "10443": 32,
        "10444": 212,
        "10445": 251,
        "10446": 110,
        "10447": 191,
        "10448": 166,
        "10449": 25,
        "10450": 132,
        "10451": 170,
        "10452": 120,
        "10453": 73,
        "10454": 99,
        "10455": 112,
        "10456": 137,
        "10457": 76,
        "10458": 222,
        "10459": 235,
        "10460": 191,
        "10461": 171,
        "10462": 207,
        "10463": 224,
        "10464": 125,
        "10465": 162,
        "10466": 0,
        "10467": 207,
        "10468": 172,
        "10469": 222,
        "10470": 53,
        "10471": 185,
        "10472": 71,
        "10473": 231,
        "10474": 191,
        "10475": 7,
        "10476": 53,
        "10477": 109,
        "10478": 160,
        "10479": 89,
        "10480": 144,
        "10481": 94,
        "10482": 242,
        "10483": 15,
        "10484": 128,
        "10485": 85,
        "10486": 97,
        "10487": 160,
        "10488": 125,
        "10489": 95,
        "10490": 167,
        "10491": 3,
        "10492": 94,
        "10493": 163,
        "10494": 55,
        "10495": 75,
        "10496": 216,
        "10497": 17,
        "10498": 106,
        "10499": 169,
        "10500": 51,
        "10501": 42,
        "10502": 254,
        "10503": 13,
        "10504": 250,
        "10505": 183,
        "10506": 227,
        "10507": 216,
        "10508": 222,
        "10509": 76,
        "10510": 234,
        "10511": 79,
        "10512": 216,
        "10513": 107,
        "10514": 129,
        "10515": 85,
        "10516": 146,
        "10517": 163,
        "10518": 53,
        "10519": 39,
        "10520": 195,
        "10521": 15,
        "10522": 237,
        "10523": 160,
        "10524": 192,
        "10525": 250,
        "10526": 196,
        "10527": 196,
        "10528": 101,
        "10529": 222,
        "10530": 55,
        "10531": 175,
        "10532": 138,
        "10533": 253,
        "10534": 42,
        "10535": 227,
        "10536": 126,
        "10537": 76,
        "10538": 48,
        "10539": 9,
        "10540": 169,
        "10541": 233,
        "10542": 210,
        "10543": 9,
        "10544": 158,
        "10545": 203,
        "10546": 208,
        "10547": 138,
        "10548": 107,
        "10549": 76,
        "10550": 93,
        "10551": 88,
        "10552": 248,
        "10553": 212,
        "10554": 212,
        "10555": 53,
        "10556": 13,
        "10557": 144,
        "10558": 132,
        "10559": 6,
        "10560": 252,
        "10561": 165,
        "10562": 36,
        "10563": 62,
        "10564": 31,
        "10565": 168,
        "10566": 86,
        "10567": 13,
        "10568": 245,
        "10569": 243,
        "10570": 62,
        "10571": 190,
        "10572": 134,
        "10573": 92,
        "10574": 177,
        "10575": 245,
        "10576": 181,
        "10577": 123,
        "10578": 113,
        "10579": 241,
        "10580": 160,
        "10581": 86,
        "10582": 129,
        "10583": 199,
        "10584": 221,
        "10585": 97,
        "10586": 106,
        "10587": 34,
        "10588": 153,
        "10589": 28,
        "10590": 191,
        "10591": 47,
        "10592": 252,
        "10593": 150,
        "10594": 184,
        "10595": 49,
        "10596": 132,
        "10597": 240,
        "10598": 96,
        "10599": 213,
        "10600": 243,
        "10601": 83,
        "10602": 170,
        "10603": 70,
        "10604": 90,
        "10605": 247,
        "10606": 251,
        "10607": 42,
        "10608": 198,
        "10609": 44,
        "10610": 172,
        "10611": 110,
        "10612": 101,
        "10613": 26,
        "10614": 136,
        "10615": 35,
        "10616": 206,
        "10617": 162,
        "10618": 150,
        "10619": 53,
        "10620": 109,
        "10621": 11,
        "10622": 168,
        "10623": 245,
        "10624": 239,
        "10625": 59,
        "10626": 145,
        "10627": 92,
        "10628": 250,
        "10629": 53,
        "10630": 167,
        "10631": 142,
        "10632": 88,
        "10633": 27,
        "10634": 127,
        "10635": 83,
        "10636": 133,
        "10637": 236,
        "10638": 40,
        "10639": 65,
        "10640": 225,
        "10641": 134,
        "10642": 35,
        "10643": 255,
        "10644": 119,
        "10645": 64,
        "10646": 238,
        "10647": 162,
        "10648": 1,
        "10649": 115,
        "10650": 133,
        "10651": 47,
        "10652": 78,
        "10653": 49,
        "10654": 129,
        "10655": 169,
        "10656": 205,
        "10657": 214,
        "10658": 206,
        "10659": 32,
        "10660": 79,
        "10661": 145,
        "10662": 104,
        "10663": 64,
        "10664": 224,
        "10665": 146,
        "10666": 222,
        "10667": 16,
        "10668": 212,
        "10669": 195,
        "10670": 234,
        "10671": 1,
        "10672": 195,
        "10673": 76,
        "10674": 4,
        "10675": 73,
        "10676": 245,
        "10677": 60,
        "10678": 182,
        "10679": 99,
        "10680": 130,
        "10681": 173,
        "10682": 176,
        "10683": 100,
        "10684": 177,
        "10685": 252,
        "10686": 108,
        "10687": 89,
        "10688": 132,
        "10689": 191,
        "10690": 32,
        "10691": 242,
        "10692": 198,
        "10693": 71,
        "10694": 208,
        "10695": 38,
        "10696": 181,
        "10697": 182,
        "10698": 15,
        "10699": 48,
        "10700": 186,
        "10701": 120,
        "10702": 7,
        "10703": 10,
        "10704": 39,
        "10705": 215,
        "10706": 181,
        "10707": 22,
        "10708": 6,
        "10709": 192,
        "10710": 7,
        "10711": 147,
        "10712": 247,
        "10713": 82,
        "10714": 2,
        "10715": 183,
        "10716": 71,
        "10717": 98,
        "10718": 225,
        "10719": 101,
        "10720": 108,
        "10721": 172,
        "10722": 119,
        "10723": 156,
        "10724": 121,
        "10725": 126,
        "10726": 121,
        "10727": 102,
        "10728": 90,
        "10729": 170,
        "10730": 84,
        "10731": 120,
        "10732": 85,
        "10733": 234,
        "10734": 59,
        "10735": 210,
        "10736": 51,
        "10737": 166,
        "10738": 5,
        "10739": 252,
        "10740": 94,
        "10741": 25,
        "10742": 132,
        "10743": 23,
        "10744": 115,
        "10745": 133,
        "10746": 197,
        "10747": 120,
        "10748": 182,
        "10749": 239,
        "10750": 114,
        "10751": 229,
        "10752": 170,
        "10753": 206,
        "10754": 98,
        "10755": 150,
        "10756": 54,
        "10757": 118,
        "10758": 78,
        "10759": 171,
        "10760": 43,
        "10761": 178,
        "10762": 237,
        "10763": 98,
        "10764": 234,
        "10765": 156,
        "10766": 66,
        "10767": 101,
        "10768": 242,
        "10769": 186,
        "10770": 152,
        "10771": 70,
        "10772": 84,
        "10773": 137,
        "10774": 24,
        "10775": 74,
        "10776": 241,
        "10777": 46,
        "10778": 226,
        "10779": 22,
        "10780": 137,
        "10781": 183,
        "10782": 189,
        "10783": 15,
        "10784": 133,
        "10785": 164,
        "10786": 227,
        "10787": 239,
        "10788": 180,
        "10789": 241,
        "10790": 124,
        "10791": 201,
        "10792": 165,
        "10793": 182,
        "10794": 11,
        "10795": 146,
        "10796": 82,
        "10797": 201,
        "10798": 242,
        "10799": 149,
        "10800": 8,
        "10801": 70,
        "10802": 92,
        "10803": 225,
        "10804": 107,
        "10805": 19,
        "10806": 255,
        "10807": 211,
        "10808": 105,
        "10809": 120,
        "10810": 192,
        "10811": 231,
        "10812": 19,
        "10813": 103,
        "10814": 16,
        "10815": 153,
        "10816": 113,
        "10817": 246,
        "10818": 210,
        "10819": 19,
        "10820": 69,
        "10821": 138,
        "10822": 200,
        "10823": 17,
        "10824": 45,
        "10825": 79,
        "10826": 166,
        "10827": 195,
        "10828": 125,
        "10829": 146,
        "10830": 96,
        "10831": 113,
        "10832": 223,
        "10833": 177,
        "10834": 122,
        "10835": 81,
        "10836": 212,
        "10837": 215,
        "10838": 74,
        "10839": 16,
        "10840": 137,
        "10841": 219,
        "10842": 24,
        "10843": 128,
        "10844": 218,
        "10845": 138,
        "10846": 250,
        "10847": 172,
        "10848": 16,
        "10849": 39,
        "10850": 99,
        "10851": 4,
        "10852": 253,
        "10853": 42,
        "10854": 137,
        "10855": 233,
        "10856": 185,
        "10857": 241,
        "10858": 96,
        "10859": 55,
        "10860": 34,
        "10861": 1,
        "10862": 242,
        "10863": 188,
        "10864": 137,
        "10865": 184,
        "10866": 128,
        "10867": 165,
        "10868": 2,
        "10869": 253,
        "10870": 218,
        "10871": 74,
        "10872": 124,
        "10873": 248,
        "10874": 198,
        "10875": 67,
        "10876": 238,
        "10877": 51,
        "10878": 202,
        "10879": 73,
        "10880": 196,
        "10881": 36,
        "10882": 144,
        "10883": 229,
        "10884": 110,
        "10885": 186,
        "10886": 125,
        "10887": 94,
        "10888": 9,
        "10889": 144,
        "10890": 29,
        "10891": 231,
        "10892": 122,
        "10893": 31,
        "10894": 211,
        "10895": 164,
        "10896": 128,
        "10897": 82,
        "10898": 211,
        "10899": 228,
        "10900": 198,
        "10901": 96,
        "10902": 21,
        "10903": 63,
        "10904": 181,
        "10905": 130,
        "10906": 84,
        "10907": 211,
        "10908": 119,
        "10909": 170,
        "10910": 155,
        "10911": 178,
        "10912": 126,
        "10913": 140,
        "10914": 238,
        "10915": 125,
        "10916": 246,
        "10917": 58,
        "10918": 9,
        "10919": 197,
        "10920": 244,
        "10921": 212,
        "10922": 12,
        "10923": 171,
        "10924": 104,
        "10925": 112,
        "10926": 130,
        "10927": 50,
        "10928": 176,
        "10929": 201,
        "10930": 23,
        "10931": 33,
        "10932": 114,
        "10933": 110,
        "10934": 39,
        "10935": 59,
        "10936": 123,
        "10937": 227,
        "10938": 191,
        "10939": 131,
        "10940": 252,
        "10941": 198,
        "10942": 32,
        "10943": 86,
        "10944": 146,
        "10945": 207,
        "10946": 12,
        "10947": 255,
        "10948": 60,
        "10949": 158,
        "10950": 205,
        "10951": 87,
        "10952": 171,
        "10953": 146,
        "10954": 76,
        "10955": 68,
        "10956": 99,
        "10957": 100,
        "10958": 81,
        "10959": 48,
        "10960": 35,
        "10961": 253,
        "10962": 213,
        "10963": 18,
        "10964": 48,
        "10965": 86,
        "10966": 228,
        "10967": 16,
        "10968": 131,
        "10969": 173,
        "10970": 217,
        "10971": 172,
        "10972": 223,
        "10973": 174,
        "10974": 36,
        "10975": 208,
        "10976": 150,
        "10977": 163,
        "10978": 78,
        "10979": 237,
        "10980": 203,
        "10981": 128,
        "10982": 12,
        "10983": 32,
        "10984": 85,
        "10985": 155,
        "10986": 86,
        "10987": 147,
        "10988": 108,
        "10989": 194,
        "10990": 254,
        "10991": 179,
        "10992": 99,
        "10993": 188,
        "10994": 170,
        "10995": 242,
        "10996": 194,
        "10997": 221,
        "10998": 197,
        "10999": 42,
        "11000": 32,
        "11001": 35,
        "11002": 137,
        "11003": 191,
        "11004": 74,
        "11005": 151,
        "11006": 135,
        "11007": 203,
        "11008": 183,
        "11009": 181,
        "11010": 163,
        "11011": 31,
        "11012": 222,
        "11013": 121,
        "11014": 74,
        "11015": 140,
        "11016": 3,
        "11017": 161,
        "11018": 211,
        "11019": 146,
        "11020": 104,
        "11021": 142,
        "11022": 75,
        "11023": 176,
        "11024": 248,
        "11025": 146,
        "11026": 168,
        "11027": 114,
        "11028": 232,
        "11029": 44,
        "11030": 97,
        "11031": 46,
        "11032": 181,
        "11033": 243,
        "11034": 175,
        "11035": 77,
        "11036": 86,
        "11037": 142,
        "11038": 180,
        "11039": 202,
        "11040": 133,
        "11041": 216,
        "11042": 106,
        "11043": 102,
        "11044": 212,
        "11045": 65,
        "11046": 236,
        "11047": 38,
        "11048": 143,
        "11049": 177,
        "11050": 78,
        "11051": 23,
        "11052": 84,
        "11053": 214,
        "11054": 141,
        "11055": 39,
        "11056": 218,
        "11057": 232,
        "11058": 102,
        "11059": 0,
        "11060": 131,
        "11061": 102,
        "11062": 35,
        "11063": 68,
        "11064": 55,
        "11065": 186,
        "11066": 117,
        "11067": 209,
        "11068": 79,
        "11069": 241,
        "11070": 97,
        "11071": 234,
        "11072": 202,
        "11073": 225,
        "11074": 46,
        "11075": 126,
        "11076": 31,
        "11077": 118,
        "11078": 199,
        "11079": 80,
        "11080": 137,
        "11081": 106,
        "11082": 127,
        "11083": 191,
        "11084": 218,
        "11085": 166,
        "11086": 115,
        "11087": 248,
        "11088": 127,
        "11089": 66,
        "11090": 218,
        "11091": 229,
        "11092": 219,
        "11093": 27,
        "11094": 104,
        "11095": 89,
        "11096": 45,
        "11097": 14,
        "11098": 217,
        "11099": 205,
        "11100": 219,
        "11101": 178,
        "11102": 98,
        "11103": 125,
        "11104": 134,
        "11105": 199,
        "11106": 4,
        "11107": 153,
        "11108": 216,
        "11109": 196,
        "11110": 100,
        "11111": 40,
        "11112": 34,
        "11113": 81,
        "11114": 239,
        "11115": 10,
        "11116": 34,
        "11117": 188,
        "11118": 57,
        "11119": 190,
        "11120": 252,
        "11121": 146,
        "11122": 34,
        "11123": 90,
        "11124": 39,
        "11125": 133,
        "11126": 126,
        "11127": 61,
        "11128": 194,
        "11129": 88,
        "11130": 232,
        "11131": 137,
        "11132": 9,
        "11133": 131,
        "11134": 64,
        "11135": 31,
        "11136": 70,
        "11137": 76,
        "11138": 67,
        "11139": 251,
        "11140": 145,
        "11141": 71,
        "11142": 46,
        "11143": 105,
        "11144": 153,
        "11145": 222,
        "11146": 16,
        "11147": 95,
        "11148": 51,
        "11149": 135,
        "11150": 61,
        "11151": 141,
        "11152": 114,
        "11153": 139,
        "11154": 174,
        "11155": 236,
        "11156": 234,
        "11157": 60,
        "11158": 117,
        "11159": 101,
        "11160": 171,
        "11161": 230,
        "11162": 162,
        "11163": 157,
        "11164": 162,
        "11165": 54,
        "11166": 185,
        "11167": 7,
        "11168": 126,
        "11169": 73,
        "11170": 243,
        "11171": 243,
        "11172": 25,
        "11173": 105,
        "11174": 9,
        "11175": 143,
        "11176": 121,
        "11177": 53,
        "11178": 239,
        "11179": 121,
        "11180": 122,
        "11181": 221,
        "11182": 185,
        "11183": 120,
        "11184": 231,
        "11185": 108,
        "11186": 2,
        "11187": 126,
        "11188": 11,
        "11189": 75,
        "11190": 198,
        "11191": 166,
        "11192": 57,
        "11193": 49,
        "11194": 154,
        "11195": 60,
        "11196": 204,
        "11197": 150,
        "11198": 86,
        "11199": 146,
        "11200": 3,
        "11201": 71,
        "11202": 125,
        "11203": 174,
        "11204": 47,
        "11205": 68,
        "11206": 247,
        "11207": 119,
        "11208": 208,
        "11209": 252,
        "11210": 113,
        "11211": 166,
        "11212": 74,
        "11213": 120,
        "11214": 54,
        "11215": 17,
        "11216": 219,
        "11217": 118,
        "11218": 218,
        "11219": 87,
        "11220": 39,
        "11221": 218,
        "11222": 57,
        "11223": 233,
        "11224": 104,
        "11225": 75,
        "11226": 52,
        "11227": 184,
        "11228": 113,
        "11229": 181,
        "11230": 74,
        "11231": 227,
        "11232": 92,
        "11233": 117,
        "11234": 173,
        "11235": 96,
        "11236": 176,
        "11237": 161,
        "11238": 147,
        "11239": 219,
        "11240": 173,
        "11241": 109,
        "11242": 42,
        "11243": 212,
        "11244": 73,
        "11245": 188,
        "11246": 170,
        "11247": 45,
        "11248": 15,
        "11249": 254,
        "11250": 93,
        "11251": 188,
        "11252": 137,
        "11253": 147,
        "11254": 163,
        "11255": 41,
        "11256": 232,
        "11257": 26,
        "11258": 61,
        "11259": 181,
        "11260": 150,
        "11261": 48,
        "11262": 121,
        "11263": 89,
        "11264": 191,
        "11265": 82,
        "11266": 151,
        "11267": 139,
        "11268": 149,
        "11269": 199,
        "11270": 133,
        "11271": 6,
        "11272": 60,
        "11273": 217,
        "11274": 243,
        "11275": 207,
        "11276": 18,
        "11277": 65,
        "11278": 15,
        "11279": 69,
        "11280": 218,
        "11281": 223,
        "11282": 206,
        "11283": 48,
        "11284": 166,
        "11285": 53,
        "11286": 175,
        "11287": 215,
        "11288": 61,
        "11289": 232,
        "11290": 39,
        "11291": 212,
        "11292": 71,
        "11293": 29,
        "11294": 61,
        "11295": 136,
        "11296": 216,
        "11297": 56,
        "11298": 96,
        "11299": 228,
        "11300": 243,
        "11301": 14,
        "11302": 84,
        "11303": 187,
        "11304": 249,
        "11305": 227,
        "11306": 70,
        "11307": 118,
        "11308": 150,
        "11309": 47,
        "11310": 146,
        "11311": 237,
        "11312": 26,
        "11313": 171,
        "11314": 100,
        "11315": 62,
        "11316": 63,
        "11317": 114,
        "11318": 38,
        "11319": 134,
        "11320": 206,
        "11321": 104,
        "11322": 238,
        "11323": 25,
        "11324": 239,
        "11325": 57,
        "11326": 100,
        "11327": 218,
        "11328": 161,
        "11329": 203,
        "11330": 92,
        "11331": 34,
        "11332": 70,
        "11333": 134,
        "11334": 161,
        "11335": 121,
        "11336": 119,
        "11337": 182,
        "11338": 142,
        "11339": 17,
        "11340": 7,
        "11341": 236,
        "11342": 81,
        "11343": 253,
        "11344": 199,
        "11345": 115,
        "11346": 74,
        "11347": 182,
        "11348": 218,
        "11349": 108,
        "11350": 130,
        "11351": 211,
        "11352": 233,
        "11353": 52,
        "11354": 99,
        "11355": 76,
        "11356": 47,
        "11357": 245,
        "11358": 73,
        "11359": 69,
        "11360": 12,
        "11361": 173,
        "11362": 252,
        "11363": 250,
        "11364": 236,
        "11365": 82,
        "11366": 66,
        "11367": 110,
        "11368": 23,
        "11369": 247,
        "11370": 17,
        "11371": 75,
        "11372": 101,
        "11373": 49,
        "11374": 136,
        "11375": 57,
        "11376": 244,
        "11377": 238,
        "11378": 172,
        "11379": 28,
        "11380": 93,
        "11381": 85,
        "11382": 69,
        "11383": 96,
        "11384": 37,
        "11385": 170,
        "11386": 254,
        "11387": 242,
        "11388": 212,
        "11389": 139,
        "11390": 53,
        "11391": 54,
        "11392": 148,
        "11393": 254,
        "11394": 25,
        "11395": 81,
        "11396": 150,
        "11397": 76,
        "11398": 179,
        "11399": 144,
        "11400": 35,
        "11401": 36,
        "11402": 234,
        "11403": 56,
        "11404": 212,
        "11405": 178,
        "11406": 213,
        "11407": 217,
        "11408": 114,
        "11409": 27,
        "11410": 84,
        "11411": 57,
        "11412": 60,
        "11413": 13,
        "11414": 129,
        "11415": 220,
        "11416": 147,
        "11417": 240,
        "11418": 58,
        "11419": 106,
        "11420": 152,
        "11421": 109,
        "11422": 135,
        "11423": 130,
        "11424": 20,
        "11425": 100,
        "11426": 202,
        "11427": 63,
        "11428": 201,
        "11429": 164,
        "11430": 233,
        "11431": 85,
        "11432": 247,
        "11433": 218,
        "11434": 42,
        "11435": 194,
        "11436": 227,
        "11437": 197,
        "11438": 47,
        "11439": 2,
        "11440": 66,
        "11441": 214,
        "11442": 12,
        "11443": 233,
        "11444": 193,
        "11445": 35,
        "11446": 165,
        "11447": 67,
        "11448": 54,
        "11449": 63,
        "11450": 123,
        "11451": 66,
        "11452": 79,
        "11453": 173,
        "11454": 25,
        "11455": 150,
        "11456": 189,
        "11457": 190,
        "11458": 252,
        "11459": 130,
        "11460": 86,
        "11461": 54,
        "11462": 197,
        "11463": 201,
        "11464": 253,
        "11465": 18,
        "11466": 98,
        "11467": 232,
        "11468": 167,
        "11469": 221,
        "11470": 22,
        "11471": 40,
        "11472": 254,
        "11473": 100,
        "11474": 118,
        "11475": 45,
        "11476": 163,
        "11477": 89,
        "11478": 59,
        "11479": 223,
        "11480": 170,
        "11481": 15,
        "11482": 193,
        "11483": 160,
        "11484": 41,
        "11485": 48,
        "11486": 198,
        "11487": 176,
        "11488": 71,
        "11489": 40,
        "11490": 235,
        "11491": 64,
        "11492": 110,
        "11493": 177,
        "11494": 229,
        "11495": 113,
        "11496": 96,
        "11497": 107,
        "11498": 47,
        "11499": 34,
        "11500": 82,
        "11501": 31,
        "11502": 0,
        "11503": 147,
        "11504": 76,
        "11505": 63,
        "11506": 113,
        "11507": 33,
        "11508": 179,
        "11509": 127,
        "11510": 20,
        "11511": 138,
        "11512": 223,
        "11513": 31,
        "11514": 66,
        "11515": 114,
        "11516": 138,
        "11517": 147,
        "11518": 249,
        "11519": 21,
        "11520": 52,
        "11521": 122,
        "11522": 81,
        "11523": 241,
        "11524": 246,
        "11525": 250,
        "11526": 177,
        "11527": 30,
        "11528": 196,
        "11529": 77,
        "11530": 71,
        "11531": 176,
        "11532": 110,
        "11533": 202,
        "11534": 174,
        "11535": 165,
        "11536": 92,
        "11537": 131,
        "11538": 38,
        "11539": 252,
        "11540": 118,
        "11541": 230,
        "11542": 119,
        "11543": 50,
        "11544": 121,
        "11545": 21,
        "11546": 226,
        "11547": 201,
        "11548": 141,
        "11549": 158,
        "11550": 75,
        "11551": 96,
        "11552": 76,
        "11553": 72,
        "11554": 125,
        "11555": 51,
        "11556": 85,
        "11557": 107,
        "11558": 163,
        "11559": 12,
        "11560": 210,
        "11561": 139,
        "11562": 110,
        "11563": 67,
        "11564": 56,
        "11565": 123,
        "11566": 193,
        "11567": 159,
        "11568": 240,
        "11569": 117,
        "11570": 175,
        "11571": 116,
        "11572": 255,
        "11573": 41,
        "11574": 134,
        "11575": 99,
        "11576": 224,
        "11577": 60,
        "11578": 90,
        "11579": 189,
        "11580": 78,
        "11581": 225,
        "11582": 87,
        "11583": 210,
        "11584": 150,
        "11585": 95,
        "11586": 141,
        "11587": 31,
        "11588": 30,
        "11589": 209,
        "11590": 88,
        "11591": 119,
        "11592": 1,
        "11593": 170,
        "11594": 39,
        "11595": 141,
        "11596": 116,
        "11597": 146,
        "11598": 15,
        "11599": 113,
        "11600": 53,
        "11601": 224,
        "11602": 127,
        "11603": 54,
        "11604": 188,
        "11605": 232,
        "11606": 252,
        "11607": 49,
        "11608": 255,
        "11609": 16,
        "11610": 51,
        "11611": 120,
        "11612": 196,
        "11613": 95,
        "11614": 169,
        "11615": 176,
        "11616": 25,
        "11617": 223,
        "11618": 191,
        "11619": 88,
        "11620": 32,
        "11621": 198,
        "11622": 7,
        "11623": 219,
        "11624": 98,
        "11625": 128,
        "11626": 3,
        "11627": 225,
        "11628": 203,
        "11629": 1,
        "11630": 76,
        "11631": 252,
        "11632": 52,
        "11633": 131,
        "11634": 35,
        "11635": 251,
        "11636": 112,
        "11637": 202,
        "11638": 184,
        "11639": 172,
        "11640": 62,
        "11641": 58,
        "11642": 24,
        "11643": 200,
        "11644": 174,
        "11645": 51,
        "11646": 122,
        "11647": 82,
        "11648": 197,
        "11649": 1,
        "11650": 143,
        "11651": 117,
        "11652": 68,
        "11653": 152,
        "11654": 184,
        "11655": 105,
        "11656": 6,
        "11657": 174,
        "11658": 102,
        "11659": 154,
        "11660": 216,
        "11661": 110,
        "11662": 110,
        "11663": 31,
        "11664": 117,
        "11665": 139,
        "11666": 226,
        "11667": 232,
        "11668": 111,
        "11669": 196,
        "11670": 10,
        "11671": 58,
        "11672": 189,
        "11673": 48,
        "11674": 86,
        "11675": 103,
        "11676": 109,
        "11677": 203,
        "11678": 224,
        "11679": 95,
        "11680": 55,
        "11681": 160,
        "11682": 128,
        "11683": 240,
        "11684": 138,
        "11685": 146,
        "11686": 60,
        "11687": 108,
        "11688": 101,
        "11689": 252,
        "11690": 237,
        "11691": 207,
        "11692": 233,
        "11693": 213,
        "11694": 54,
        "11695": 32,
        "11696": 134,
        "11697": 103,
        "11698": 83,
        "11699": 134,
        "11700": 171,
        "11701": 102,
        "11702": 160,
        "11703": 189,
        "11704": 134,
        "11705": 79,
        "11706": 98,
        "11707": 210,
        "11708": 25,
        "11709": 9,
        "11710": 109,
        "11711": 210,
        "11712": 42,
        "11713": 94,
        "11714": 177,
        "11715": 64,
        "11716": 119,
        "11717": 3,
        "11718": 30,
        "11719": 198,
        "11720": 136,
        "11721": 101,
        "11722": 126,
        "11723": 70,
        "11724": 40,
        "11725": 150,
        "11726": 36,
        "11727": 193,
        "11728": 147,
        "11729": 178,
        "11730": 147,
        "11731": 21,
        "11732": 188,
        "11733": 50,
        "11734": 76,
        "11735": 36,
        "11736": 96,
        "11737": 194,
        "11738": 160,
        "11739": 102,
        "11740": 151,
        "11741": 236,
        "11742": 209,
        "11743": 169,
        "11744": 168,
        "11745": 189,
        "11746": 178,
        "11747": 84,
        "11748": 97,
        "11749": 166,
        "11750": 193,
        "11751": 13,
        "11752": 174,
        "11753": 242,
        "11754": 165,
        "11755": 30,
        "11756": 167,
        "11757": 26,
        "11758": 20,
        "11759": 51,
        "11760": 145,
        "11761": 9,
        "11762": 208,
        "11763": 166,
        "11764": 58,
        "11765": 146,
        "11766": 208,
        "11767": 77,
        "11768": 130,
        "11769": 25,
        "11770": 92,
        "11771": 82,
        "11772": 170,
        "11773": 222,
        "11774": 168,
        "11775": 254,
        "11776": 76,
        "11777": 42,
        "11778": 14,
        "11779": 171,
        "11780": 70,
        "11781": 43,
        "11782": 246,
        "11783": 61,
        "11784": 98,
        "11785": 77,
        "11786": 54,
        "11787": 180,
        "11788": 116,
        "11789": 174,
        "11790": 223,
        "11791": 23,
        "11792": 221,
        "11793": 191,
        "11794": 50,
        "11795": 36,
        "11796": 150,
        "11797": 109,
        "11798": 172,
        "11799": 52,
        "11800": 111,
        "11801": 71,
        "11802": 226,
        "11803": 102,
        "11804": 217,
        "11805": 33,
        "11806": 223,
        "11807": 142,
        "11808": 135,
        "11809": 57,
        "11810": 10,
        "11811": 115,
        "11812": 244,
        "11813": 146,
        "11814": 102,
        "11815": 100,
        "11816": 231,
        "11817": 186,
        "11818": 104,
        "11819": 151,
        "11820": 180,
        "11821": 205,
        "11822": 79,
        "11823": 107,
        "11824": 156,
        "11825": 98,
        "11826": 170,
        "11827": 247,
        "11828": 255,
        "11829": 16,
        "11830": 206,
        "11831": 155,
        "11832": 16,
        "11833": 40,
        "11834": 242,
        "11835": 210,
        "11836": 237,
        "11837": 135,
        "11838": 189,
        "11839": 151,
        "11840": 77,
        "11841": 50,
        "11842": 197,
        "11843": 22,
        "11844": 116,
        "11845": 86,
        "11846": 6,
        "11847": 217,
        "11848": 150,
        "11849": 127,
        "11850": 53,
        "11851": 39,
        "11852": 191,
        "11853": 127,
        "11854": 82,
        "11855": 48,
        "11856": 62,
        "11857": 201,
        "11858": 217,
        "11859": 44,
        "11860": 95,
        "11861": 250,
        "11862": 89,
        "11863": 161,
        "11864": 84,
        "11865": 210,
        "11866": 210,
        "11867": 119,
        "11868": 115,
        "11869": 227,
        "11870": 141,
        "11871": 91,
        "11872": 190,
        "11873": 136,
        "11874": 198,
        "11875": 157,
        "11876": 237,
        "11877": 237,
        "11878": 67,
        "11879": 95,
        "11880": 20,
        "11881": 247,
        "11882": 189,
        "11883": 90,
        "11884": 105,
        "11885": 17,
        "11886": 142,
        "11887": 205,
        "11888": 146,
        "11889": 56,
        "11890": 245,
        "11891": 52,
        "11892": 57,
        "11893": 78,
        "11894": 99,
        "11895": 40,
        "11896": 34,
        "11897": 177,
        "11898": 255,
        "11899": 149,
        "11900": 199,
        "11901": 148,
        "11902": 101,
        "11903": 133,
        "11904": 237,
        "11905": 39,
        "11906": 32,
        "11907": 27,
        "11908": 128,
        "11909": 227,
        "11910": 128,
        "11911": 211,
        "11912": 105,
        "11913": 15,
        "11914": 204,
        "11915": 125,
        "11916": 254,
        "11917": 112,
        "11918": 134,
        "11919": 38,
        "11920": 84,
        "11921": 221,
        "11922": 182,
        "11923": 194,
        "11924": 247,
        "11925": 19,
        "11926": 102,
        "11927": 163,
        "11928": 228,
        "11929": 216,
        "11930": 90,
        "11931": 32,
        "11932": 69,
        "11933": 227,
        "11934": 64,
        "11935": 178,
        "11936": 67,
        "11937": 48,
        "11938": 7,
        "11939": 13,
        "11940": 104,
        "11941": 145,
        "11942": 44,
        "11943": 32,
        "11944": 178,
        "11945": 159,
        "11946": 164,
        "11947": 54,
        "11948": 33,
        "11949": 5,
        "11950": 140,
        "11951": 204,
        "11952": 173,
        "11953": 41,
        "11954": 189,
        "11955": 18,
        "11956": 157,
        "11957": 208,
        "11958": 39,
        "11959": 138,
        "11960": 81,
        "11961": 249,
        "11962": 107,
        "11963": 126,
        "11964": 137,
        "11965": 247,
        "11966": 215,
        "11967": 30,
        "11968": 50,
        "11969": 35,
        "11970": 215,
        "11971": 38,
        "11972": 200,
        "11973": 234,
        "11974": 37,
        "11975": 85,
        "11976": 148,
        "11977": 78,
        "11978": 62,
        "11979": 111,
        "11980": 221,
        "11981": 185,
        "11982": 111,
        "11983": 136,
        "11984": 221,
        "11985": 214,
        "11986": 45,
        "11987": 53,
        "11988": 96,
        "11989": 222,
        "11990": 240,
        "11991": 17,
        "11992": 171,
        "11993": 182,
        "11994": 230,
        "11995": 77,
        "11996": 179,
        "11997": 188,
        "11998": 227,
        "11999": 143,
        "12000": 38,
        "12001": 138,
        "12002": 222,
        "12003": 110,
        "12004": 123,
        "12005": 47,
        "12006": 45,
        "12007": 171,
        "12008": 72,
        "12009": 28,
        "12010": 98,
        "12011": 208,
        "12012": 83,
        "12013": 114,
        "12014": 122,
        "12015": 245,
        "12016": 87,
        "12017": 141,
        "12018": 11,
        "12019": 17,
        "12020": 249,
        "12021": 142,
        "12022": 8,
        "12023": 52,
        "12024": 194,
        "12025": 152,
        "12026": 115,
        "12027": 250,
        "12028": 35,
        "12029": 54,
        "12030": 146,
        "12031": 210,
        "12032": 143,
        "12033": 104,
        "12034": 67,
        "12035": 114,
        "12036": 141,
        "12037": 83,
        "12038": 5,
        "12039": 50,
        "12040": 177,
        "12041": 236,
        "12042": 40,
        "12043": 49,
        "12044": 61,
        "12045": 218,
        "12046": 111,
        "12047": 37,
        "12048": 57,
        "12049": 105,
        "12050": 232,
        "12051": 199,
        "12052": 63,
        "12053": 99,
        "12054": 250,
        "12055": 122,
        "12056": 125,
        "12057": 117,
        "12058": 12,
        "12059": 35,
        "12060": 167,
        "12061": 59,
        "12062": 129,
        "12063": 57,
        "12064": 170,
        "12065": 194,
        "12066": 156,
        "12067": 0,
        "12068": 144,
        "12069": 105,
        "12070": 210,
        "12071": 91,
        "12072": 58,
        "12073": 109,
        "12074": 213,
        "12075": 23,
        "12076": 206,
        "12077": 70,
        "12078": 186,
        "12079": 217,
        "12080": 149,
        "12081": 185,
        "12082": 104,
        "12083": 86,
        "12084": 104,
        "12085": 33,
        "12086": 179,
        "12087": 193,
        "12088": 36,
        "12089": 171,
        "12090": 170,
        "12091": 145,
        "12092": 236,
        "12093": 39,
        "12094": 119,
        "12095": 38,
        "12096": 114,
        "12097": 152,
        "12098": 2,
        "12099": 80,
        "12100": 209,
        "12101": 64,
        "12102": 161,
        "12103": 4,
        "12104": 252,
        "12105": 254,
        "12106": 102,
        "12107": 248,
        "12108": 205,
        "12109": 178,
        "12110": 5,
        "12111": 121,
        "12112": 101,
        "12113": 203,
        "12114": 22,
        "12115": 159,
        "12116": 41,
        "12117": 122,
        "12118": 166,
        "12119": 30,
        "12120": 203,
        "12121": 173,
        "12122": 40,
        "12123": 186,
        "12124": 49,
        "12125": 79,
        "12126": 158,
        "12127": 215,
        "12128": 140,
        "12129": 34,
        "12130": 167,
        "12131": 221,
        "12132": 30,
        "12133": 178,
        "12134": 253,
        "12135": 100,
        "12136": 239,
        "12137": 112,
        "12138": 60,
        "12139": 79,
        "12140": 116,
        "12141": 190,
        "12142": 2,
        "12143": 216,
        "12144": 107,
        "12145": 157,
        "12146": 60,
        "12147": 69,
        "12148": 148,
        "12149": 43,
        "12150": 217,
        "12151": 176,
        "12152": 245,
        "12153": 192,
        "12154": 178,
        "12155": 71,
        "12156": 3,
        "12157": 100,
        "12158": 220,
        "12159": 13,
        "12160": 209,
        "12161": 42,
        "12162": 202,
        "12163": 224,
        "12164": 37,
        "12165": 193,
        "12166": 146,
        "12167": 189,
        "12168": 233,
        "12169": 247,
        "12170": 137,
        "12171": 158,
        "12172": 49,
        "12173": 194,
        "12174": 143,
        "12175": 68,
        "12176": 99,
        "12177": 39,
        "12178": 201,
        "12179": 107,
        "12180": 87,
        "12181": 236,
        "12182": 61,
        "12183": 206,
        "12184": 179,
        "12185": 103,
        "12186": 222,
        "12187": 145,
        "12188": 184,
        "12189": 39,
        "12190": 234,
        "12191": 245,
        "12192": 122,
        "12193": 166,
        "12194": 141,
        "12195": 165,
        "12196": 125,
        "12197": 83,
        "12198": 228,
        "12199": 219,
        "12200": 109,
        "12201": 224,
        "12202": 250,
        "12203": 85,
        "12204": 96,
        "12205": 144,
        "12206": 69,
        "12207": 101,
        "12208": 106,
        "12209": 98,
        "12210": 207,
        "12211": 156,
        "12212": 105,
        "12213": 106,
        "12214": 18,
        "12215": 228,
        "12216": 31,
        "12217": 109,
        "12218": 82,
        "12219": 87,
        "12220": 17,
        "12221": 60,
        "12222": 63,
        "12223": 231,
        "12224": 74,
        "12225": 21,
        "12226": 138,
        "12227": 51,
        "12228": 248,
        "12229": 98,
        "12230": 3,
        "12231": 207,
        "12232": 166,
        "12233": 215,
        "12234": 231,
        "12235": 157,
        "12236": 223,
        "12237": 160,
        "12238": 220,
        "12239": 90,
        "12240": 47,
        "12241": 184,
        "12242": 130,
        "12243": 62,
        "12244": 37,
        "12245": 113,
        "12246": 207,
        "12247": 246,
        "12248": 236,
        "12249": 252,
        "12250": 252,
        "12251": 240,
        "12252": 74,
        "12253": 92,
        "12254": 167,
        "12255": 33,
        "12256": 231,
        "12257": 168,
        "12258": 207,
        "12259": 62,
        "12260": 30,
        "12261": 172,
        "12262": 255,
        "12263": 69,
        "12264": 184,
        "12265": 78,
        "12266": 198,
        "12267": 16,
        "12268": 128,
        "12269": 131,
        "12270": 138,
        "12271": 84,
        "12272": 157,
        "12273": 183,
        "12274": 26,
        "12275": 225,
        "12276": 105,
        "12277": 68,
        "12278": 147,
        "12279": 81,
        "12280": 81,
        "12281": 254,
        "12282": 244,
        "12283": 67,
        "12284": 158,
        "12285": 167,
        "12286": 31,
        "12287": 88,
        "12288": 242,
        "12289": 3,
        "12290": 91,
        "12291": 66,
        "12292": 172,
        "12293": 180,
        "12294": 143,
        "12295": 132,
        "12296": 165,
        "12297": 95,
        "12298": 197,
        "12299": 44,
        "12300": 193,
        "12301": 122,
        "12302": 186,
        "12303": 58,
        "12304": 69,
        "12305": 74,
        "12306": 235,
        "12307": 213,
        "12308": 55,
        "12309": 111,
        "12310": 199,
        "12311": 28,
        "12312": 89,
        "12313": 242,
        "12314": 128,
        "12315": 98,
        "12316": 232,
        "12317": 79,
        "12318": 171,
        "12319": 32,
        "12320": 23,
        "12321": 85,
        "12322": 18,
        "12323": 99,
        "12324": 115,
        "12325": 107,
        "12326": 2,
        "12327": 31,
        "12328": 216,
        "12329": 132,
        "12330": 222,
        "12331": 68,
        "12332": 100,
        "12333": 20,
        "12334": 95,
        "12335": 193,
        "12336": 211,
        "12337": 215,
        "12338": 189,
        "12339": 72,
        "12340": 43,
        "12341": 66,
        "12342": 220,
        "12343": 21,
        "12344": 83,
        "12345": 148,
        "12346": 57,
        "12347": 177,
        "12348": 27,
        "12349": 39,
        "12350": 233,
        "12351": 183,
        "12352": 173,
        "12353": 160,
        "12354": 219,
        "12355": 241,
        "12356": 251,
        "12357": 108,
        "12358": 79,
        "12359": 57,
        "12360": 40,
        "12361": 194,
        "12362": 78,
        "12363": 83,
        "12364": 77,
        "12365": 210,
        "12366": 199,
        "12367": 212,
        "12368": 167,
        "12369": 206,
        "12370": 109,
        "12371": 206,
        "12372": 57,
        "12373": 31,
        "12374": 120,
        "12375": 1,
        "12376": 115,
        "12377": 18,
        "12378": 40,
        "12379": 195,
        "12380": 161,
        "12381": 246,
        "12382": 196,
        "12383": 105,
        "12384": 191,
        "12385": 138,
        "12386": 39,
        "12387": 178,
        "12388": 218,
        "12389": 38,
        "12390": 209,
        "12391": 249,
        "12392": 201,
        "12393": 54,
        "12394": 18,
        "12395": 132,
        "12396": 242,
        "12397": 3,
        "12398": 128,
        "12399": 92,
        "12400": 128,
        "12401": 1,
        "12402": 175,
        "12403": 15,
        "12404": 35,
        "12405": 18,
        "12406": 214,
        "12407": 213,
        "12408": 98,
        "12409": 96,
        "12410": 7,
        "12411": 98,
        "12412": 15,
        "12413": 253,
        "12414": 120,
        "12415": 198,
        "12416": 35,
        "12417": 83,
        "12418": 66,
        "12419": 33,
        "12420": 72,
        "12421": 141,
        "12422": 16,
        "12423": 123,
        "12424": 202,
        "12425": 94,
        "12426": 62,
        "12427": 222,
        "12428": 187,
        "12429": 191,
        "12430": 60,
        "12431": 109,
        "12432": 130,
        "12433": 7,
        "12434": 174,
        "12435": 149,
        "12436": 214,
        "12437": 113,
        "12438": 129,
        "12439": 216,
        "12440": 77,
        "12441": 131,
        "12442": 99,
        "12443": 33,
        "12444": 114,
        "12445": 1,
        "12446": 80,
        "12447": 167,
        "12448": 180,
        "12449": 108,
        "12450": 27,
        "12451": 124,
        "12452": 221,
        "12453": 174,
        "12454": 221,
        "12455": 224,
        "12456": 145,
        "12457": 51,
        "12458": 158,
        "12459": 234,
        "12460": 26,
        "12461": 166,
        "12462": 101,
        "12463": 187,
        "12464": 4,
        "12465": 42,
        "12466": 166,
        "12467": 7,
        "12468": 107,
        "12469": 220,
        "12470": 241,
        "12471": 41,
        "12472": 216,
        "12473": 238,
        "12474": 209,
        "12475": 186,
        "12476": 80,
        "12477": 1,
        "12478": 109,
        "12479": 109,
        "12480": 251,
        "12481": 66,
        "12482": 129,
        "12483": 39,
        "12484": 251,
        "12485": 199,
        "12486": 150,
        "12487": 78,
        "12488": 19,
        "12489": 90,
        "12490": 246,
        "12491": 169,
        "12492": 143,
        "12493": 146,
        "12494": 142,
        "12495": 236,
        "12496": 183,
        "12497": 92,
        "12498": 5,
        "12499": 125,
        "12500": 46,
        "12501": 173,
        "12502": 40,
        "12503": 190,
        "12504": 135,
        "12505": 38,
        "12506": 123,
        "12507": 166,
        "12508": 99,
        "12509": 125,
        "12510": 20,
        "12511": 196,
        "12512": 12,
        "12513": 40,
        "12514": 116,
        "12515": 252,
        "12516": 99,
        "12517": 6,
        "12518": 92,
        "12519": 70,
        "12520": 188,
        "12521": 0,
        "12522": 203,
        "12523": 35,
        "12524": 227,
        "12525": 54,
        "12526": 93,
        "12527": 18,
        "12528": 244,
        "12529": 33,
        "12530": 99,
        "12531": 101,
        "12532": 48,
        "12533": 173,
        "12534": 178,
        "12535": 79,
        "12536": 242,
        "12537": 195,
        "12538": 74,
        "12539": 202,
        "12540": 123,
        "12541": 61,
        "12542": 169,
        "12543": 160,
        "12544": 231,
        "12545": 18,
        "12546": 25,
        "12547": 245,
        "12548": 133,
        "12549": 150,
        "12550": 240,
        "12551": 69,
        "12552": 186,
        "12553": 92,
        "12554": 84,
        "12555": 151,
        "12556": 10,
        "12557": 225,
        "12558": 10,
        "12559": 139,
        "12560": 95,
        "12561": 216,
        "12562": 69,
        "12563": 193,
        "12564": 113,
        "12565": 133,
        "12566": 190,
        "12567": 189,
        "12568": 229,
        "12569": 133,
        "12570": 169,
        "12571": 4,
        "12572": 92,
        "12573": 62,
        "12574": 195,
        "12575": 153,
        "12576": 190,
        "12577": 138,
        "12578": 141,
        "12579": 213,
        "12580": 0,
        "12581": 218,
        "12582": 57,
        "12583": 2,
        "12584": 141,
        "12585": 89,
        "12586": 97,
        "12587": 20,
        "12588": 6,
        "12589": 212,
        "12590": 169,
        "12591": 37,
        "12592": 101,
        "12593": 119,
        "12594": 41,
        "12595": 165,
        "12596": 73,
        "12597": 131,
        "12598": 64,
        "12599": 49,
        "12600": 230,
        "12601": 81,
        "12602": 42,
        "12603": 220,
        "12604": 133,
        "12605": 129,
        "12606": 222,
        "12607": 158,
        "12608": 184,
        "12609": 106,
        "12610": 82,
        "12611": 81,
        "12612": 232,
        "12613": 32,
        "12614": 129,
        "12615": 165,
        "12616": 141,
        "12617": 139,
        "12618": 253,
        "12619": 85,
        "12620": 68,
        "12621": 142,
        "12622": 163,
        "12623": 180,
        "12624": 147,
        "12625": 78,
        "12626": 195,
        "12627": 24,
        "12628": 39,
        "12629": 199,
        "12630": 30,
        "12631": 0,
        "12632": 82,
        "12633": 149,
        "12634": 98,
        "12635": 36,
        "12636": 203,
        "12637": 60,
        "12638": 189,
        "12639": 253,
        "12640": 202,
        "12641": 175,
        "12642": 143,
        "12643": 240,
        "12644": 30,
        "12645": 230,
        "12646": 2,
        "12647": 142,
        "12648": 84,
        "12649": 136,
        "12650": 121,
        "12651": 1,
        "12652": 133,
        "12653": 78,
        "12654": 220,
        "12655": 74,
        "12656": 117,
        "12657": 251,
        "12658": 17,
        "12659": 123,
        "12660": 142,
        "12661": 88,
        "12662": 200,
        "12663": 66,
        "12664": 215,
        "12665": 92,
        "12666": 39,
        "12667": 66,
        "12668": 138,
        "12669": 131,
        "12670": 248,
        "12671": 241,
        "12672": 92,
        "12673": 101,
        "12674": 105,
        "12675": 66,
        "12676": 24,
        "12677": 137,
        "12678": 244,
        "12679": 163,
        "12680": 56,
        "12681": 230,
        "12682": 1,
        "12683": 253,
        "12684": 21,
        "12685": 1,
        "12686": 103,
        "12687": 99,
        "12688": 243,
        "12689": 15,
        "12690": 253,
        "12691": 169,
        "12692": 207,
        "12693": 139,
        "12694": 132,
        "12695": 35,
        "12696": 233,
        "12697": 119,
        "12698": 161,
        "12699": 111,
        "12700": 6,
        "12701": 33,
        "12702": 127,
        "12703": 145,
        "12704": 86,
        "12705": 73,
        "12706": 64,
        "12707": 60,
        "12708": 72,
        "12709": 238,
        "12710": 244,
        "12711": 28,
        "12712": 36,
        "12713": 71,
        "12714": 192,
        "12715": 26,
        "12716": 198,
        "12717": 70,
        "12718": 82,
        "12719": 137,
        "12720": 142,
        "12721": 123,
        "12722": 121,
        "12723": 24,
        "12724": 124,
        "12725": 178,
        "12726": 239,
        "12727": 67,
        "12728": 218,
        "12729": 51,
        "12730": 242,
        "12731": 83,
        "12732": 19,
        "12733": 242,
        "12734": 227,
        "12735": 37,
        "12736": 196,
        "12737": 156,
        "12738": 223,
        "12739": 140,
        "12740": 196,
        "12741": 12,
        "12742": 50,
        "12743": 76,
        "12744": 115,
        "12745": 239,
        "12746": 18,
        "12747": 61,
        "12748": 54,
        "12749": 178,
        "12750": 3,
        "12751": 113,
        "12752": 211,
        "12753": 16,
        "12754": 183,
        "12755": 82,
        "12756": 32,
        "12757": 221,
        "12758": 195,
        "12759": 58,
        "12760": 195,
        "12761": 141,
        "12762": 105,
        "12763": 76,
        "12764": 31,
        "12765": 55,
        "12766": 197,
        "12767": 162,
        "12768": 106,
        "12769": 112,
        "12770": 73,
        "12771": 45,
        "12772": 123,
        "12773": 64,
        "12774": 36,
        "12775": 197,
        "12776": 189,
        "12777": 73,
        "12778": 122,
        "12779": 219,
        "12780": 133,
        "12781": 108,
        "12782": 210,
        "12783": 69,
        "12784": 14,
        "12785": 177,
        "12786": 247,
        "12787": 164,
        "12788": 41,
        "12789": 75,
        "12790": 224,
        "12791": 11,
        "12792": 101,
        "12793": 140,
        "12794": 121,
        "12795": 241,
        "12796": 107,
        "12797": 26,
        "12798": 111,
        "12799": 230,
        "12800": 162,
        "12801": 200,
        "12802": 93,
        "12803": 207,
        "12804": 156,
        "12805": 165,
        "12806": 125,
        "12807": 142,
        "12808": 238,
        "12809": 101,
        "12810": 19,
        "12811": 65,
        "12812": 144,
        "12813": 176,
        "12814": 30,
        "12815": 68,
        "12816": 156,
        "12817": 124,
        "12818": 216,
        "12819": 41,
        "12820": 246,
        "12821": 157,
        "12822": 25,
        "12823": 206,
        "12824": 132,
        "12825": 99,
        "12826": 187,
        "12827": 76,
        "12828": 48,
        "12829": 210,
        "12830": 132,
        "12831": 64,
        "12832": 250,
        "12833": 90,
        "12834": 165,
        "12835": 228,
        "12836": 167,
        "12837": 202,
        "12838": 209,
        "12839": 50,
        "12840": 54,
        "12841": 94,
        "12842": 242,
        "12843": 230,
        "12844": 241,
        "12845": 53,
        "12846": 89,
        "12847": 237,
        "12848": 43,
        "12849": 96,
        "12850": 216,
        "12851": 247,
        "12852": 74,
        "12853": 190,
        "12854": 128,
        "12855": 136,
        "12856": 39,
        "12857": 178,
        "12858": 251,
        "12859": 242,
        "12860": 202,
        "12861": 95,
        "12862": 39,
        "12863": 111,
        "12864": 158,
        "12865": 165,
        "12866": 116,
        "12867": 202,
        "12868": 248,
        "12869": 242,
        "12870": 185,
        "12871": 98,
        "12872": 195,
        "12873": 188,
        "12874": 89,
        "12875": 232,
        "12876": 151,
        "12877": 37,
        "12878": 226,
        "12879": 48,
        "12880": 131,
        "12881": 209,
        "12882": 12,
        "12883": 129,
        "12884": 24,
        "12885": 97,
        "12886": 24,
        "12887": 243,
        "12888": 141,
        "12889": 66,
        "12890": 252,
        "12891": 75,
        "12892": 92,
        "12893": 178,
        "12894": 255,
        "12895": 100,
        "12896": 221,
        "12897": 167,
        "12898": 205,
        "12899": 131,
        "12900": 68,
        "12901": 132,
        "12902": 169,
        "12903": 39,
        "12904": 47,
        "12905": 59,
        "12906": 140,
        "12907": 112,
        "12908": 237,
        "12909": 124,
        "12910": 111,
        "12911": 125,
        "12912": 125,
        "12913": 56,
        "12914": 90,
        "12915": 32,
        "12916": 121,
        "12917": 10,
        "12918": 48,
        "12919": 131,
        "12920": 9,
        "12921": 205,
        "12922": 100,
        "12923": 104,
        "12924": 28,
        "12925": 136,
        "12926": 51,
        "12927": 138,
        "12928": 219,
        "12929": 10,
        "12930": 172,
        "12931": 58,
        "12932": 173,
        "12933": 205,
        "12934": 114,
        "12935": 63,
        "12936": 253,
        "12937": 163,
        "12938": 94,
        "12939": 199,
        "12940": 129,
        "12941": 60,
        "12942": 216,
        "12943": 130,
        "12944": 28,
        "12945": 190,
        "12946": 110,
        "12947": 226,
        "12948": 66,
        "12949": 114,
        "12950": 220,
        "12951": 112,
        "12952": 248,
        "12953": 27,
        "12954": 139,
        "12955": 28,
        "12956": 26,
        "12957": 126,
        "12958": 89,
        "12959": 218,
        "12960": 200,
        "12961": 133,
        "12962": 164,
        "12963": 155,
        "12964": 109,
        "12965": 31,
        "12966": 177,
        "12967": 169,
        "12968": 51,
        "12969": 155,
        "12970": 158,
        "12971": 74,
        "12972": 179,
        "12973": 250,
        "12974": 101,
        "12975": 113,
        "12976": 50,
        "12977": 55,
        "12978": 236,
        "12979": 184,
        "12980": 239,
        "12981": 85,
        "12982": 29,
        "12983": 100,
        "12984": 90,
        "12985": 239,
        "12986": 99,
        "12987": 228,
        "12988": 199,
        "12989": 107,
        "12990": 56,
        "12991": 136,
        "12992": 45,
        "12993": 182,
        "12994": 160,
        "12995": 78,
        "12996": 134,
        "12997": 31,
        "12998": 27,
        "12999": 227,
        "13000": 171,
        "13001": 42,
        "13002": 3,
        "13003": 49,
        "13004": 120,
        "13005": 228,
        "13006": 85,
        "13007": 221,
        "13008": 175,
        "13009": 21,
        "13010": 154,
        "13011": 177,
        "13012": 63,
        "13013": 242,
        "13014": 130,
        "13015": 22,
        "13016": 64,
        "13017": 39,
        "13018": 226,
        "13019": 201,
        "13020": 157,
        "13021": 109,
        "13022": 159,
        "13023": 27,
        "13024": 110,
        "13025": 194,
        "13026": 188,
        "13027": 239,
        "13028": 12,
        "13029": 2,
        "13030": 103,
        "13031": 73,
        "13032": 226,
        "13033": 211,
        "13034": 72,
        "13035": 69,
        "13036": 18,
        "13037": 73,
        "13038": 122,
        "13039": 122,
        "13040": 232,
        "13041": 65,
        "13042": 208,
        "13043": 38,
        "13044": 43,
        "13045": 120,
        "13046": 226,
        "13047": 28,
        "13048": 76,
        "13049": 10,
        "13050": 125,
        "13051": 149,
        "13052": 8,
        "13053": 208,
        "13054": 31,
        "13055": 87,
        "13056": 214,
        "13057": 229,
        "13058": 0,
        "13059": 202,
        "13060": 123,
        "13061": 6,
        "13062": 138,
        "13063": 78,
        "13064": 80,
        "13065": 201,
        "13066": 222,
        "13067": 175,
        "13068": 132,
        "13069": 208,
        "13070": 49,
        "13071": 3,
        "13072": 169,
        "13073": 198,
        "13074": 118,
        "13075": 38,
        "13076": 167,
        "13077": 238,
        "13078": 202,
        "13079": 197,
        "13080": 186,
        "13081": 194,
        "13082": 11,
        "13083": 178,
        "13084": 156,
        "13085": 95,
        "13086": 102,
        "13087": 0,
        "13088": 85,
        "13089": 202,
        "13090": 158,
        "13091": 81,
        "13092": 38,
        "13093": 158,
        "13094": 210,
        "13095": 23,
        "13096": 74,
        "13097": 34,
        "13098": 148,
        "13099": 156,
        "13100": 122,
        "13101": 198,
        "13102": 51,
        "13103": 240,
        "13104": 240,
        "13105": 75,
        "13106": 29,
        "13107": 28,
        "13108": 74,
        "13109": 0,
        "13110": 181,
        "13111": 167,
        "13112": 86,
        "13113": 190,
        "13114": 225,
        "13115": 49,
        "13116": 89,
        "13117": 218,
        "13118": 98,
        "13119": 73,
        "13120": 201,
        "13121": 236,
        "13122": 110,
        "13123": 106,
        "13124": 133,
        "13125": 140,
        "13126": 18,
        "13127": 8,
        "13128": 1,
        "13129": 202,
        "13130": 39,
        "13131": 158,
        "13132": 81,
        "13133": 37,
        "13134": 38,
        "13135": 198,
        "13136": 230,
        "13137": 24,
        "13138": 41,
        "13139": 30,
        "13140": 66,
        "13141": 236,
        "13142": 214,
        "13143": 140,
        "13144": 174,
        "13145": 198,
        "13146": 138,
        "13147": 250,
        "13148": 22,
        "13149": 215,
        "13150": 52,
        "13151": 76,
        "13152": 174,
        "13153": 95,
        "13154": 171,
        "13155": 239,
        "13156": 44,
        "13157": 133,
        "13158": 5,
        "13159": 16,
        "13160": 8,
        "13161": 92,
        "13162": 8,
        "13163": 29,
        "13164": 142,
        "13165": 158,
        "13166": 20,
        "13167": 212,
        "13168": 91,
        "13169": 33,
        "13170": 251,
        "13171": 253,
        "13172": 115,
        "13173": 180,
        "13174": 25,
        "13175": 53,
        "13176": 227,
        "13177": 126,
        "13178": 71,
        "13179": 71,
        "13180": 196,
        "13181": 113,
        "13182": 214,
        "13183": 17,
        "13184": 7,
        "13185": 183,
        "13186": 42,
        "13187": 187,
        "13188": 108,
        "13189": 12,
        "13190": 61,
        "13191": 179,
        "13192": 62,
        "13193": 228,
        "13194": 229,
        "13195": 217,
        "13196": 8,
        "13197": 173,
        "13198": 164,
        "13199": 27,
        "13200": 19,
        "13201": 44,
        "13202": 71,
        "13203": 190,
        "13204": 241,
        "13205": 0,
        "13206": 39,
        "13207": 121,
        "13208": 66,
        "13209": 18,
        "13210": 109,
        "13211": 149,
        "13212": 206,
        "13213": 126,
        "13214": 141,
        "13215": 46,
        "13216": 251,
        "13217": 34,
        "13218": 54,
        "13219": 77,
        "13220": 213,
        "13221": 131,
        "13222": 241,
        "13223": 132,
        "13224": 115,
        "13225": 182,
        "13226": 105,
        "13227": 196,
        "13228": 21,
        "13229": 153,
        "13230": 32,
        "13231": 69,
        "13232": 228,
        "13233": 37,
        "13234": 61,
        "13235": 2,
        "13236": 213,
        "13237": 52,
        "13238": 41,
        "13239": 175,
        "13240": 72,
        "13241": 131,
        "13242": 245,
        "13243": 155,
        "13244": 83,
        "13245": 255,
        "13246": 131,
        "13247": 130,
        "13248": 132,
        "13249": 160,
        "13250": 108,
        "13251": 109,
        "13252": 49,
        "13253": 223,
        "13254": 181,
        "13255": 61,
        "13256": 23,
        "13257": 196,
        "13258": 218,
        "13259": 182,
        "13260": 98,
        "13261": 201,
        "13262": 88,
        "13263": 69,
        "13264": 94,
        "13265": 75,
        "13266": 50,
        "13267": 196,
        "13268": 8,
        "13269": 223,
        "13270": 98,
        "13271": 134,
        "13272": 252,
        "13273": 77,
        "13274": 16,
        "13275": 79,
        "13276": 234,
        "13277": 61,
        "13278": 223,
        "13279": 14,
        "13280": 179,
        "13281": 31,
        "13282": 144,
        "13283": 113,
        "13284": 29,
        "13285": 8,
        "13286": 146,
        "13287": 128,
        "13288": 173,
        "13289": 254,
        "13290": 64,
        "13291": 204,
        "13292": 176,
        "13293": 38,
        "13294": 7,
        "13295": 96,
        "13296": 241,
        "13297": 142,
        "13298": 81,
        "13299": 174,
        "13300": 101,
        "13301": 77,
        "13302": 54,
        "13303": 4,
        "13304": 235,
        "13305": 143,
        "13306": 39,
        "13307": 174,
        "13308": 237,
        "13309": 65,
        "13310": 141,
        "13311": 130,
        "13312": 89,
        "13313": 78,
        "13314": 224,
        "13315": 214,
        "13316": 167,
        "13317": 228,
        "13318": 208,
        "13319": 11,
        "13320": 26,
        "13321": 164,
        "13322": 190,
        "13323": 90,
        "13324": 224,
        "13325": 15,
        "13326": 74,
        "13327": 80,
        "13328": 205,
        "13329": 154,
        "13330": 246,
        "13331": 100,
        "13332": 42,
        "13333": 239,
        "13334": 94,
        "13335": 168,
        "13336": 128,
        "13337": 56,
        "13338": 6,
        "13339": 209,
        "13340": 198,
        "13341": 99,
        "13342": 108,
        "13343": 117,
        "13344": 32,
        "13345": 212,
        "13346": 111,
        "13347": 148,
        "13348": 58,
        "13349": 147,
        "13350": 57,
        "13351": 127,
        "13352": 5,
        "13353": 68,
        "13354": 157,
        "13355": 176,
        "13356": 121,
        "13357": 190,
        "13358": 192,
        "13359": 10,
        "13360": 166,
        "13361": 196,
        "13362": 82,
        "13363": 140,
        "13364": 195,
        "13365": 202,
        "13366": 177,
        "13367": 43,
        "13368": 50,
        "13369": 20,
        "13370": 130,
        "13371": 51,
        "13372": 184,
        "13373": 11,
        "13374": 237,
        "13375": 44,
        "13376": 245,
        "13377": 158,
        "13378": 70,
        "13379": 182,
        "13380": 44,
        "13381": 181,
        "13382": 64,
        "13383": 38,
        "13384": 29,
        "13385": 33,
        "13386": 209,
        "13387": 248,
        "13388": 64,
        "13389": 10,
        "13390": 225,
        "13391": 136,
        "13392": 102,
        "13393": 178,
        "13394": 228,
        "13395": 213,
        "13396": 255,
        "13397": 249,
        "13398": 47,
        "13399": 132,
        "13400": 94,
        "13401": 57,
        "13402": 15,
        "13403": 150,
        "13404": 15,
        "13405": 223,
        "13406": 223,
        "13407": 242,
        "13408": 195,
        "13409": 151,
        "13410": 124,
        "13411": 65,
        "13412": 238,
        "13413": 152,
        "13414": 39,
        "13415": 58,
        "13416": 31,
        "13417": 146,
        "13418": 108,
        "13419": 74,
        "13420": 185,
        "13421": 140,
        "13422": 24,
        "13423": 15,
        "13424": 76,
        "13425": 184,
        "13426": 82,
        "13427": 43,
        "13428": 94,
        "13429": 181,
        "13430": 126,
        "13431": 254,
        "13432": 9,
        "13433": 127,
        "13434": 189,
        "13435": 247,
        "13436": 54,
        "13437": 131,
        "13438": 53,
        "13439": 176,
        "13440": 142,
        "13441": 78,
        "13442": 164,
        "13443": 25,
        "13444": 203,
        "13445": 246,
        "13446": 226,
        "13447": 43,
        "13448": 166,
        "13449": 39,
        "13450": 42,
        "13451": 63,
        "13452": 71,
        "13453": 34,
        "13454": 159,
        "13455": 225,
        "13456": 61,
        "13457": 141,
        "13458": 245,
        "13459": 42,
        "13460": 169,
        "13461": 106,
        "13462": 62,
        "13463": 31,
        "13464": 29,
        "13465": 132,
        "13466": 228,
        "13467": 51,
        "13468": 101,
        "13469": 216,
        "13470": 127,
        "13471": 160,
        "13472": 74,
        "13473": 228,
        "13474": 230,
        "13475": 3,
        "13476": 163,
        "13477": 19,
        "13478": 8,
        "13479": 10,
        "13480": 184,
        "13481": 245,
        "13482": 228,
        "13483": 160,
        "13484": 255,
        "13485": 240,
        "13486": 59,
        "13487": 175,
        "13488": 43,
        "13489": 181,
        "13490": 133,
        "13491": 242,
        "13492": 249,
        "13493": 225,
        "13494": 146,
        "13495": 214,
        "13496": 200,
        "13497": 255,
        "13498": 2,
        "13499": 42,
        "13500": 153,
        "13501": 15,
        "13502": 121,
        "13503": 67,
        "13504": 53,
        "13505": 133,
        "13506": 250,
        "13507": 167,
        "13508": 65,
        "13509": 155,
        "13510": 40,
        "13511": 178,
        "13512": 197,
        "13513": 42,
        "13514": 16,
        "13515": 194,
        "13516": 204,
        "13517": 201,
        "13518": 187,
        "13519": 145,
        "13520": 83,
        "13521": 207,
        "13522": 69,
        "13523": 79,
        "13524": 110,
        "13525": 82,
        "13526": 255,
        "13527": 65,
        "13528": 211,
        "13529": 205,
        "13530": 197,
        "13531": 101,
        "13532": 34,
        "13533": 43,
        "13534": 93,
        "13535": 172,
        "13536": 128,
        "13537": 57,
        "13538": 105,
        "13539": 214,
        "13540": 40,
        "13541": 196,
        "13542": 5,
        "13543": 199,
        "13544": 244,
        "13545": 200,
        "13546": 117,
        "13547": 48,
        "13548": 164,
        "13549": 62,
        "13550": 68,
        "13551": 141,
        "13552": 179,
        "13553": 208,
        "13554": 132,
        "13555": 232,
        "13556": 211,
        "13557": 253,
        "13558": 73,
        "13559": 147,
        "13560": 57,
        "13561": 75,
        "13562": 195,
        "13563": 250,
        "13564": 166,
        "13565": 16,
        "13566": 30,
        "13567": 7,
        "13568": 71,
        "13569": 100,
        "13570": 151,
        "13571": 219,
        "13572": 11,
        "13573": 90,
        "13574": 113,
        "13575": 25,
        "13576": 173,
        "13577": 194,
        "13578": 82,
        "13579": 0,
        "13580": 15,
        "13581": 105,
        "13582": 182,
        "13583": 11,
        "13584": 143,
        "13585": 244,
        "13586": 91,
        "13587": 242,
        "13588": 138,
        "13589": 136,
        "13590": 130,
        "13591": 199,
        "13592": 182,
        "13593": 20,
        "13594": 252,
        "13595": 96,
        "13596": 254,
        "13597": 212,
        "13598": 91,
        "13599": 191,
        "13600": 211,
        "13601": 164,
        "13602": 251,
        "13603": 13,
        "13604": 123,
        "13605": 232,
        "13606": 112,
        "13607": 2,
        "13608": 101,
        "13609": 36,
        "13610": 183,
        "13611": 167,
        "13612": 152,
        "13613": 60,
        "13614": 80,
        "13615": 68,
        "13616": 110,
        "13617": 219,
        "13618": 224,
        "13619": 82,
        "13620": 195,
        "13621": 237,
        "13622": 27,
        "13623": 79,
        "13624": 52,
        "13625": 10,
        "13626": 64,
        "13627": 56,
        "13628": 60,
        "13629": 190,
        "13630": 155,
        "13631": 123,
        "13632": 159,
        "13633": 178,
        "13634": 171,
        "13635": 71,
        "13636": 225,
        "13637": 210,
        "13638": 243,
        "13639": 140,
        "13640": 40,
        "13641": 158,
        "13642": 95,
        "13643": 166,
        "13644": 17,
        "13645": 250,
        "13646": 84,
        "13647": 130,
        "13648": 15,
        "13649": 236,
        "13650": 203,
        "13651": 168,
        "13652": 158,
        "13653": 85,
        "13654": 206,
        "13655": 19,
        "13656": 245,
        "13657": 88,
        "13658": 128,
        "13659": 237,
        "13660": 113,
        "13661": 81,
        "13662": 129,
        "13663": 100,
        "13664": 148,
        "13665": 20,
        "13666": 196,
        "13667": 6,
        "13668": 180,
        "13669": 177,
        "13670": 209,
        "13671": 236,
        "13672": 90,
        "13673": 192,
        "13674": 32,
        "13675": 57,
        "13676": 168,
        "13677": 61,
        "13678": 150,
        "13679": 71,
        "13680": 87,
        "13681": 204,
        "13682": 13,
        "13683": 81,
        "13684": 32,
        "13685": 12,
        "13686": 61,
        "13687": 53,
        "13688": 85,
        "13689": 90,
        "13690": 139,
        "13691": 170,
        "13692": 2,
        "13693": 59,
        "13694": 246,
        "13695": 250,
        "13696": 236,
        "13697": 37,
        "13698": 206,
        "13699": 23,
        "13700": 200,
        "13701": 129,
        "13702": 247,
        "13703": 146,
        "13704": 222,
        "13705": 3,
        "13706": 202,
        "13707": 143,
        "13708": 194,
        "13709": 166,
        "13710": 227,
        "13711": 59,
        "13712": 84,
        "13713": 223,
        "13714": 243,
        "13715": 181,
        "13716": 178,
        "13717": 40,
        "13718": 71,
        "13719": 133,
        "13720": 248,
        "13721": 218,
        "13722": 248,
        "13723": 123,
        "13724": 196,
        "13725": 107,
        "13726": 225,
        "13727": 56,
        "13728": 243,
        "13729": 87,
        "13730": 227,
        "13731": 57,
        "13732": 231,
        "13733": 220,
        "13734": 126,
        "13735": 97,
        "13736": 132,
        "13737": 229,
        "13738": 198,
        "13739": 79,
        "13740": 7,
        "13741": 89,
        "13742": 51,
        "13743": 65,
        "13744": 215,
        "13745": 210,
        "13746": 200,
        "13747": 164,
        "13748": 142,
        "13749": 93,
        "13750": 255,
        "13751": 47,
        "13752": 100,
        "13753": 34,
        "13754": 30,
        "13755": 54,
        "13756": 134,
        "13757": 215,
        "13758": 209,
        "13759": 61,
        "13760": 51,
        "13761": 184,
        "13762": 177,
        "13763": 144,
        "13764": 191,
        "13765": 179,
        "13766": 154,
        "13767": 250,
        "13768": 213,
        "13769": 64,
        "13770": 5,
        "13771": 76,
        "13772": 155,
        "13773": 144,
        "13774": 5,
        "13775": 190,
        "13776": 25,
        "13777": 120,
        "13778": 171,
        "13779": 114,
        "13780": 74,
        "13781": 187,
        "13782": 250,
        "13783": 109,
        "13784": 62,
        "13785": 102,
        "13786": 64,
        "13787": 226,
        "13788": 252,
        "13789": 216,
        "13790": 180,
        "13791": 76,
        "13792": 69,
        "13793": 226,
        "13794": 188,
        "13795": 151,
        "13796": 132,
        "13797": 159,
        "13798": 99,
        "13799": 118,
        "13800": 142,
        "13801": 125,
        "13802": 96,
        "13803": 121,
        "13804": 23,
        "13805": 85,
        "13806": 249,
        "13807": 29,
        "13808": 122,
        "13809": 157,
        "13810": 214,
        "13811": 46,
        "13812": 218,
        "13813": 76,
        "13814": 206,
        "13815": 190,
        "13816": 212,
        "13817": 119,
        "13818": 122,
        "13819": 31,
        "13820": 210,
        "13821": 94,
        "13822": 102,
        "13823": 8,
        "13824": 170,
        "13825": 112,
        "13826": 154,
        "13827": 63,
        "13828": 118,
        "13829": 20,
        "13830": 129,
        "13831": 196,
        "13832": 159,
        "13833": 168,
        "13834": 54,
        "13835": 63,
        "13836": 49,
        "13837": 85,
        "13838": 124,
        "13839": 125,
        "13840": 219,
        "13841": 142,
        "13842": 214,
        "13843": 244,
        "13844": 214,
        "13845": 83,
        "13846": 126,
        "13847": 23,
        "13848": 7,
        "13849": 56,
        "13850": 214,
        "13851": 0,
        "13852": 180,
        "13853": 194,
        "13854": 179,
        "13855": 245,
        "13856": 163,
        "13857": 54,
        "13858": 228,
        "13859": 62,
        "13860": 226,
        "13861": 8,
        "13862": 170,
        "13863": 0,
        "13864": 187,
        "13865": 11,
        "13866": 148,
        "13867": 24,
        "13868": 109,
        "13869": 105,
        "13870": 135,
        "13871": 76,
        "13872": 138,
        "13873": 45,
        "13874": 24,
        "13875": 149,
        "13876": 130,
        "13877": 85,
        "13878": 72,
        "13879": 67,
        "13880": 63,
        "13881": 32,
        "13882": 154,
        "13883": 173,
        "13884": 233,
        "13885": 212,
        "13886": 70,
        "13887": 40,
        "13888": 198,
        "13889": 110,
        "13890": 236,
        "13891": 130,
        "13892": 94,
        "13893": 228,
        "13894": 248,
        "13895": 80,
        "13896": 90,
        "13897": 73,
        "13898": 244,
        "13899": 49,
        "13900": 131,
        "13901": 177,
        "13902": 108,
        "13903": 118,
        "13904": 97,
        "13905": 49,
        "13906": 110,
        "13907": 192,
        "13908": 246,
        "13909": 253,
        "13910": 79,
        "13911": 170,
        "13912": 3,
        "13913": 157,
        "13914": 96,
        "13915": 111,
        "13916": 210,
        "13917": 50,
        "13918": 82,
        "13919": 167,
        "13920": 15,
        "13921": 0,
        "13922": 223,
        "13923": 166,
        "13924": 113,
        "13925": 229,
        "13926": 234,
        "13927": 121,
        "13928": 163,
        "13929": 185,
        "13930": 67,
        "13931": 103,
        "13932": 132,
        "13933": 129,
        "13934": 9,
        "13935": 183,
        "13936": 61,
        "13937": 131,
        "13938": 42,
        "13939": 233,
        "13940": 24,
        "13941": 96,
        "13942": 125,
        "13943": 148,
        "13944": 146,
        "13945": 161,
        "13946": 161,
        "13947": 77,
        "13948": 141,
        "13949": 45,
        "13950": 0,
        "13951": 167,
        "13952": 209,
        "13953": 199,
        "13954": 162,
        "13955": 164,
        "13956": 6,
        "13957": 3,
        "13958": 108,
        "13959": 92,
        "13960": 135,
        "13961": 236,
        "13962": 203,
        "13963": 228,
        "13964": 139,
        "13965": 55,
        "13966": 89,
        "13967": 201,
        "13968": 156,
        "13969": 173,
        "13970": 61,
        "13971": 161,
        "13972": 25,
        "13973": 182,
        "13974": 218,
        "13975": 113,
        "13976": 93,
        "13977": 64,
        "13978": 118,
        "13979": 180,
        "13980": 128,
        "13981": 154,
        "13982": 141,
        "13983": 187,
        "13984": 136,
        "13985": 59,
        "13986": 35,
        "13987": 154,
        "13988": 97,
        "13989": 222,
        "13990": 49,
        "13991": 188,
        "13992": 119,
        "13993": 227,
        "13994": 76,
        "13995": 185,
        "13996": 55,
        "13997": 6,
        "13998": 232,
        "13999": 20,
        "14000": 164,
        "14001": 222,
        "14002": 228,
        "14003": 54,
        "14004": 76,
        "14005": 15,
        "14006": 226,
        "14007": 99,
        "14008": 103,
        "14009": 133,
        "14010": 250,
        "14011": 165,
        "14012": 119,
        "14013": 177,
        "14014": 79,
        "14015": 186,
        "14016": 70,
        "14017": 31,
        "14018": 178,
        "14019": 92,
        "14020": 5,
        "14021": 129,
        "14022": 32,
        "14023": 9,
        "14024": 137,
        "14025": 190,
        "14026": 94,
        "14027": 107,
        "14028": 115,
        "14029": 1,
        "14030": 205,
        "14031": 237,
        "14032": 212,
        "14033": 155,
        "14034": 58,
        "14035": 96,
        "14036": 130,
        "14037": 42,
        "14038": 37,
        "14039": 62,
        "14040": 25,
        "14041": 176,
        "14042": 165,
        "14043": 85,
        "14044": 71,
        "14045": 24,
        "14046": 215,
        "14047": 73,
        "14048": 117,
        "14049": 123,
        "14050": 237,
        "14051": 130,
        "14052": 188,
        "14053": 60,
        "14054": 65,
        "14055": 246,
        "14056": 2,
        "14057": 126,
        "14058": 148,
        "14059": 245,
        "14060": 231,
        "14061": 242,
        "14062": 191,
        "14063": 240,
        "14064": 234,
        "14065": 148,
        "14066": 61,
        "14067": 4,
        "14068": 79,
        "14069": 253,
        "14070": 245,
        "14071": 31,
        "14072": 62,
        "14073": 98,
        "14074": 28,
        "14075": 235,
        "14076": 42,
        "14077": 114,
        "14078": 116,
        "14079": 52,
        "14080": 43,
        "14081": 48,
        "14082": 147,
        "14083": 76,
        "14084": 10,
        "14085": 143,
        "14086": 181,
        "14087": 23,
        "14088": 108,
        "14089": 55,
        "14090": 115,
        "14091": 83,
        "14092": 218,
        "14093": 109,
        "14094": 71,
        "14095": 202,
        "14096": 233,
        "14097": 86,
        "14098": 64,
        "14099": 131,
        "14100": 158,
        "14101": 161,
        "14102": 236,
        "14103": 30,
        "14104": 190,
        "14105": 99,
        "14106": 222,
        "14107": 135,
        "14108": 191,
        "14109": 236,
        "14110": 232,
        "14111": 27,
        "14112": 73,
        "14113": 142,
        "14114": 38,
        "14115": 112,
        "14116": 188,
        "14117": 78,
        "14118": 173,
        "14119": 159,
        "14120": 221,
        "14121": 229,
        "14122": 199,
        "14123": 73,
        "14124": 3,
        "14125": 59,
        "14126": 132,
        "14127": 194,
        "14128": 233,
        "14129": 148,
        "14130": 128,
        "14131": 43,
        "14132": 175,
        "14133": 86,
        "14134": 245,
        "14135": 145,
        "14136": 181,
        "14137": 231,
        "14138": 151,
        "14139": 179,
        "14140": 36,
        "14141": 197,
        "14142": 72,
        "14143": 109,
        "14144": 162,
        "14145": 166,
        "14146": 67,
        "14147": 88,
        "14148": 171,
        "14149": 123,
        "14150": 206,
        "14151": 113,
        "14152": 64,
        "14153": 185,
        "14154": 184,
        "14155": 39,
        "14156": 11,
        "14157": 94,
        "14158": 130,
        "14159": 114,
        "14160": 218,
        "14161": 75,
        "14162": 42,
        "14163": 68,
        "14164": 152,
        "14165": 38,
        "14166": 198,
        "14167": 238,
        "14168": 65,
        "14169": 147,
        "14170": 106,
        "14171": 170,
        "14172": 19,
        "14173": 62,
        "14174": 218,
        "14175": 86,
        "14176": 38,
        "14177": 205,
        "14178": 246,
        "14179": 203,
        "14180": 225,
        "14181": 107,
        "14182": 77,
        "14183": 156,
        "14184": 44,
        "14185": 5,
        "14186": 237,
        "14187": 255,
        "14188": 139,
        "14189": 151,
        "14190": 203,
        "14191": 221,
        "14192": 140,
        "14193": 200,
        "14194": 77,
        "14195": 206,
        "14196": 84,
        "14197": 182,
        "14198": 93,
        "14199": 132,
        "14200": 191,
        "14201": 174,
        "14202": 117,
        "14203": 135,
        "14204": 229,
        "14205": 125,
        "14206": 233,
        "14207": 34,
        "14208": 118,
        "14209": 171,
        "14210": 244,
        "14211": 53,
        "14212": 211,
        "14213": 29,
        "14214": 148,
        "14215": 92,
        "14216": 237,
        "14217": 207,
        "14218": 149,
        "14219": 98,
        "14220": 162,
        "14221": 52,
        "14222": 47,
        "14223": 83,
        "14224": 234,
        "14225": 196,
        "14226": 190,
        "14227": 11,
        "14228": 119,
        "14229": 36,
        "14230": 158,
        "14231": 240,
        "14232": 210,
        "14233": 33,
        "14234": 62,
        "14235": 82,
        "14236": 154,
        "14237": 83,
        "14238": 187,
        "14239": 87,
        "14240": 137,
        "14241": 89,
        "14242": 165,
        "14243": 209,
        "14244": 129,
        "14245": 108,
        "14246": 102,
        "14247": 76,
        "14248": 182,
        "14249": 249,
        "14250": 253,
        "14251": 53,
        "14252": 177,
        "14253": 101,
        "14254": 235,
        "14255": 45,
        "14256": 48,
        "14257": 227,
        "14258": 49,
        "14259": 8,
        "14260": 213,
        "14261": 7,
        "14262": 76,
        "14263": 58,
        "14264": 72,
        "14265": 78,
        "14266": 89,
        "14267": 24,
        "14268": 127,
        "14269": 140,
        "14270": 61,
        "14271": 193,
        "14272": 17,
        "14273": 189,
        "14274": 131,
        "14275": 165,
        "14276": 11,
        "14277": 199,
        "14278": 107,
        "14279": 135,
        "14280": 150,
        "14281": 187,
        "14282": 42,
        "14283": 112,
        "14284": 231,
        "14285": 160,
        "14286": 60,
        "14287": 147,
        "14288": 165,
        "14289": 108,
        "14290": 126,
        "14291": 163,
        "14292": 69,
        "14293": 208,
        "14294": 139,
        "14295": 92,
        "14296": 189,
        "14297": 132,
        "14298": 12,
        "14299": 203,
        "14300": 205,
        "14301": 169,
        "14302": 50,
        "14303": 134,
        "14304": 206,
        "14305": 228,
        "14306": 197,
        "14307": 112,
        "14308": 156,
        "14309": 52,
        "14310": 219,
        "14311": 190,
        "14312": 113,
        "14313": 125,
        "14314": 29,
        "14315": 92,
        "14316": 208,
        "14317": 48,
        "14318": 88,
        "14319": 234,
        "14320": 31,
        "14321": 167,
        "14322": 133,
        "14323": 116,
        "14324": 132,
        "14325": 22,
        "14326": 216,
        "14327": 83,
        "14328": 247,
        "14329": 124,
        "14330": 21,
        "14331": 191,
        "14332": 13,
        "14333": 140,
        "14334": 104,
        "14335": 29,
        "14336": 1,
        "14337": 231,
        "14338": 33,
        "14339": 125,
        "14340": 235,
        "14341": 94,
        "14342": 218,
        "14343": 108,
        "14344": 176,
        "14345": 12,
        "14346": 139,
        "14347": 18,
        "14348": 222,
        "14349": 160,
        "14350": 250,
        "14351": 228,
        "14352": 85,
        "14353": 85,
        "14354": 241,
        "14355": 115,
        "14356": 102,
        "14357": 11,
        "14358": 51,
        "14359": 210,
        "14360": 199,
        "14361": 31,
        "14362": 173,
        "14363": 188,
        "14364": 254,
        "14365": 229,
        "14366": 192,
        "14367": 226,
        "14368": 242,
        "14369": 127,
        "14370": 253,
        "14371": 16,
        "14372": 99,
        "14373": 239,
        "14374": 33,
        "14375": 53,
        "14376": 37,
        "14377": 25,
        "14378": 148,
        "14379": 247,
        "14380": 209,
        "14381": 19,
        "14382": 129,
        "14383": 125,
        "14384": 39,
        "14385": 146,
        "14386": 74,
        "14387": 190,
        "14388": 69,
        "14389": 176,
        "14390": 28,
        "14391": 118,
        "14392": 227,
        "14393": 56,
        "14394": 207,
        "14395": 128,
        "14396": 35,
        "14397": 5,
        "14398": 12,
        "14399": 210,
        "14400": 63,
        "14401": 118,
        "14402": 113,
        "14403": 205,
        "14404": 172,
        "14405": 88,
        "14406": 214,
        "14407": 123,
        "14408": 1,
        "14409": 25,
        "14410": 66,
        "14411": 236,
        "14412": 132,
        "14413": 233,
        "14414": 195,
        "14415": 218,
        "14416": 182,
        "14417": 228,
        "14418": 225,
        "14419": 106,
        "14420": 20,
        "14421": 108,
        "14422": 177,
        "14423": 153,
        "14424": 110,
        "14425": 234,
        "14426": 60,
        "14427": 31,
        "14428": 122,
        "14429": 214,
        "14430": 67,
        "14431": 60,
        "14432": 159,
        "14433": 154,
        "14434": 106,
        "14435": 161,
        "14436": 130,
        "14437": 141,
        "14438": 60,
        "14439": 69,
        "14440": 90,
        "14441": 26,
        "14442": 2,
        "14443": 200,
        "14444": 193,
        "14445": 98,
        "14446": 242,
        "14447": 21,
        "14448": 175,
        "14449": 97,
        "14450": 93,
        "14451": 202,
        "14452": 251,
        "14453": 93,
        "14454": 200,
        "14455": 224,
        "14456": 74,
        "14457": 179,
        "14458": 109,
        "14459": 223,
        "14460": 10,
        "14461": 161,
        "14462": 64,
        "14463": 66,
        "14464": 213,
        "14465": 117,
        "14466": 24,
        "14467": 89,
        "14468": 222,
        "14469": 99,
        "14470": 185,
        "14471": 188,
        "14472": 48,
        "14473": 100,
        "14474": 57,
        "14475": 35,
        "14476": 247,
        "14477": 213,
        "14478": 49,
        "14479": 69,
        "14480": 164,
        "14481": 31,
        "14482": 247,
        "14483": 226,
        "14484": 75,
        "14485": 34,
        "14486": 1,
        "14487": 156,
        "14488": 93,
        "14489": 217,
        "14490": 130,
        "14491": 148,
        "14492": 26,
        "14493": 76,
        "14494": 115,
        "14495": 90,
        "14496": 113,
        "14497": 125,
        "14498": 136,
        "14499": 199,
        "14500": 85,
        "14501": 117,
        "14502": 103,
        "14503": 34,
        "14504": 48,
        "14505": 110,
        "14506": 40,
        "14507": 221,
        "14508": 127,
        "14509": 232,
        "14510": 12,
        "14511": 166,
        "14512": 39,
        "14513": 163,
        "14514": 232,
        "14515": 61,
        "14516": 115,
        "14517": 184,
        "14518": 181,
        "14519": 116,
        "14520": 53,
        "14521": 73,
        "14522": 47,
        "14523": 255,
        "14524": 90,
        "14525": 237,
        "14526": 190,
        "14527": 145,
        "14528": 238,
        "14529": 5,
        "14530": 212,
        "14531": 146,
        "14532": 247,
        "14533": 190,
        "14534": 157,
        "14535": 127,
        "14536": 202,
        "14537": 37,
        "14538": 177,
        "14539": 2,
        "14540": 184,
        "14541": 95,
        "14542": 35,
        "14543": 47,
        "14544": 81,
        "14545": 123,
        "14546": 144,
        "14547": 112,
        "14548": 58,
        "14549": 154,
        "14550": 203,
        "14551": 22,
        "14552": 20,
        "14553": 86,
        "14554": 164,
        "14555": 250,
        "14556": 187,
        "14557": 254,
        "14558": 183,
        "14559": 205,
        "14560": 8,
        "14561": 218,
        "14562": 55,
        "14563": 251,
        "14564": 42,
        "14565": 184,
        "14566": 213,
        "14567": 161,
        "14568": 168,
        "14569": 110,
        "14570": 64,
        "14571": 196,
        "14572": 45,
        "14573": 133,
        "14574": 165,
        "14575": 178,
        "14576": 162,
        "14577": 153,
        "14578": 141,
        "14579": 216,
        "14580": 11,
        "14581": 61,
        "14582": 150,
        "14583": 78,
        "14584": 209,
        "14585": 148,
        "14586": 129,
        "14587": 103,
        "14588": 177,
        "14589": 186,
        "14590": 25,
        "14591": 73,
        "14592": 72,
        "14593": 207,
        "14594": 118,
        "14595": 130,
        "14596": 107,
        "14597": 159,
        "14598": 46,
        "14599": 149,
        "14600": 10,
        "14601": 223,
        "14602": 207,
        "14603": 97,
        "14604": 191,
        "14605": 154,
        "14606": 64,
        "14607": 114,
        "14608": 2,
        "14609": 217,
        "14610": 64,
        "14611": 235,
        "14612": 8,
        "14613": 10,
        "14614": 7,
        "14615": 100,
        "14616": 93,
        "14617": 252,
        "14618": 158,
        "14619": 39,
        "14620": 178,
        "14621": 132,
        "14622": 164,
        "14623": 110,
        "14624": 141,
        "14625": 200,
        "14626": 223,
        "14627": 246,
        "14628": 212,
        "14629": 41,
        "14630": 114,
        "14631": 128,
        "14632": 176,
        "14633": 252,
        "14634": 212,
        "14635": 153,
        "14636": 7,
        "14637": 101,
        "14638": 94,
        "14639": 231,
        "14640": 15,
        "14641": 130,
        "14642": 182,
        "14643": 181,
        "14644": 230,
        "14645": 1,
        "14646": 201,
        "14647": 59,
        "14648": 25,
        "14649": 252,
        "14650": 19,
        "14651": 174,
        "14652": 69,
        "14653": 180,
        "14654": 155,
        "14655": 51,
        "14656": 4,
        "14657": 56,
        "14658": 41,
        "14659": 105,
        "14660": 205,
        "14661": 253,
        "14662": 94,
        "14663": 106,
        "14664": 129,
        "14665": 89,
        "14666": 213,
        "14667": 242,
        "14668": 152,
        "14669": 189,
        "14670": 147,
        "14671": 21,
        "14672": 27,
        "14673": 238,
        "14674": 81,
        "14675": 154,
        "14676": 72,
        "14677": 174,
        "14678": 83,
        "14679": 154,
        "14680": 1,
        "14681": 120,
        "14682": 41,
        "14683": 28,
        "14684": 116,
        "14685": 110,
        "14686": 17,
        "14687": 132,
        "14688": 94,
        "14689": 12,
        "14690": 134,
        "14691": 71,
        "14692": 46,
        "14693": 98,
        "14694": 134,
        "14695": 206,
        "14696": 204,
        "14697": 214,
        "14698": 138,
        "14699": 9,
        "14700": 36,
        "14701": 181,
        "14702": 27,
        "14703": 207,
        "14704": 11,
        "14705": 163,
        "14706": 204,
        "14707": 95,
        "14708": 157,
        "14709": 57,
        "14710": 26,
        "14711": 55,
        "14712": 58,
        "14713": 37,
        "14714": 80,
        "14715": 4,
        "14716": 61,
        "14717": 188,
        "14718": 60,
        "14719": 191,
        "14720": 39,
        "14721": 77,
        "14722": 164,
        "14723": 217,
        "14724": 90,
        "14725": 12,
        "14726": 174,
        "14727": 131,
        "14728": 10,
        "14729": 114,
        "14730": 85,
        "14731": 134,
        "14732": 174,
        "14733": 75,
        "14734": 223,
        "14735": 27,
        "14736": 90,
        "14737": 49,
        "14738": 101,
        "14739": 169,
        "14740": 185,
        "14741": 18,
        "14742": 188,
        "14743": 80,
        "14744": 207,
        "14745": 173,
        "14746": 40,
        "14747": 103,
        "14748": 42,
        "14749": 158,
        "14750": 101,
        "14751": 181,
        "14752": 39,
        "14753": 73,
        "14754": 253,
        "14755": 242,
        "14756": 35,
        "14757": 219,
        "14758": 47,
        "14759": 43,
        "14760": 97,
        "14761": 102,
        "14762": 136,
        "14763": 182,
        "14764": 29,
        "14765": 178,
        "14766": 80,
        "14767": 9,
        "14768": 163,
        "14769": 55,
        "14770": 187,
        "14771": 106,
        "14772": 181,
        "14773": 153,
        "14774": 22,
        "14775": 191,
        "14776": 144,
        "14777": 77,
        "14778": 43,
        "14779": 195,
        "14780": 28,
        "14781": 37,
        "14782": 50,
        "14783": 137,
        "14784": 3,
        "14785": 14,
        "14786": 49,
        "14787": 136,
        "14788": 69,
        "14789": 29,
        "14790": 12,
        "14791": 26,
        "14792": 172,
        "14793": 238,
        "14794": 186,
        "14795": 95,
        "14796": 86,
        "14797": 229,
        "14798": 11,
        "14799": 104,
        "14800": 92,
        "14801": 155,
        "14802": 126,
        "14803": 44,
        "14804": 84,
        "14805": 248,
        "14806": 234,
        "14807": 5,
        "14808": 220,
        "14809": 217,
        "14810": 2,
        "14811": 75,
        "14812": 77,
        "14813": 83,
        "14814": 42,
        "14815": 35,
        "14816": 27,
        "14817": 68,
        "14818": 194,
        "14819": 128,
        "14820": 15,
        "14821": 5,
        "14822": 22,
        "14823": 160,
        "14824": 29,
        "14825": 161,
        "14826": 239,
        "14827": 245,
        "14828": 38,
        "14829": 62,
        "14830": 29,
        "14831": 202,
        "14832": 140,
        "14833": 70,
        "14834": 122,
        "14835": 172,
        "14836": 40,
        "14837": 62,
        "14838": 104,
        "14839": 106,
        "14840": 199,
        "14841": 203,
        "14842": 154,
        "14843": 60,
        "14844": 114,
        "14845": 49,
        "14846": 37,
        "14847": 112,
        "14848": 223,
        "14849": 14,
        "14850": 151,
        "14851": 239,
        "14852": 171,
        "14853": 116,
        "14854": 113,
        "14855": 166,
        "14856": 69,
        "14857": 56,
        "14858": 190,
        "14859": 244,
        "14860": 229,
        "14861": 63,
        "14862": 100,
        "14863": 184,
        "14864": 202,
        "14865": 234,
        "14866": 49,
        "14867": 172,
        "14868": 194,
        "14869": 119,
        "14870": 88,
        "14871": 50,
        "14872": 205,
        "14873": 62,
        "14874": 178,
        "14875": 104,
        "14876": 76,
        "14877": 139,
        "14878": 244,
        "14879": 252,
        "14880": 167,
        "14881": 8,
        "14882": 44,
        "14883": 225,
        "14884": 207,
        "14885": 36,
        "14886": 66,
        "14887": 41,
        "14888": 235,
        "14889": 203,
        "14890": 85,
        "14891": 18,
        "14892": 164,
        "14893": 141,
        "14894": 242,
        "14895": 91,
        "14896": 203,
        "14897": 171,
        "14898": 254,
        "14899": 107,
        "14900": 248,
        "14901": 25,
        "14902": 143,
        "14903": 173,
        "14904": 75,
        "14905": 132,
        "14906": 101,
        "14907": 44,
        "14908": 20,
        "14909": 99,
        "14910": 230,
        "14911": 40,
        "14912": 58,
        "14913": 195,
        "14914": 132,
        "14915": 182,
        "14916": 85,
        "14917": 134,
        "14918": 191,
        "14919": 56,
        "14920": 127,
        "14921": 31,
        "14922": 203,
        "14923": 185,
        "14924": 123,
        "14925": 102,
        "14926": 202,
        "14927": 241,
        "14928": 3,
        "14929": 149,
        "14930": 143,
        "14931": 136,
        "14932": 134,
        "14933": 66,
        "14934": 139,
        "14935": 108,
        "14936": 48,
        "14937": 232,
        "14938": 75,
        "14939": 45,
        "14940": 10,
        "14941": 59,
        "14942": 170,
        "14943": 143,
        "14944": 100,
        "14945": 37,
        "14946": 29,
        "14947": 74,
        "14948": 35,
        "14949": 234,
        "14950": 6,
        "14951": 211,
        "14952": 107,
        "14953": 24,
        "14954": 149,
        "14955": 76,
        "14956": 92,
        "14957": 6,
        "14958": 111,
        "14959": 155,
        "14960": 12,
        "14961": 91,
        "14962": 124,
        "14963": 106,
        "14964": 46,
        "14965": 199,
        "14966": 24,
        "14967": 246,
        "14968": 88,
        "14969": 219,
        "14970": 233,
        "14971": 252,
        "14972": 199,
        "14973": 166,
        "14974": 106,
        "14975": 200,
        "14976": 195,
        "14977": 46,
        "14978": 210,
        "14979": 15,
        "14980": 134,
        "14981": 152,
        "14982": 106,
        "14983": 104,
        "14984": 50,
        "14985": 85,
        "14986": 110,
        "14987": 104,
        "14988": 70,
        "14989": 230,
        "14990": 161,
        "14991": 149,
        "14992": 148,
        "14993": 21,
        "14994": 243,
        "14995": 89,
        "14996": 146,
        "14997": 150,
        "14998": 145,
        "14999": 200,
        "15000": 249,
        "15001": 177,
        "15002": 17,
        "15003": 96,
        "15004": 120,
        "15005": 204,
        "15006": 64,
        "15007": 48,
        "15008": 232,
        "15009": 159,
        "15010": 218,
        "15011": 221,
        "15012": 11,
        "15013": 24,
        "15014": 199,
        "15015": 77,
        "15016": 111,
        "15017": 81,
        "15018": 23,
        "15019": 107,
        "15020": 246,
        "15021": 174,
        "15022": 25,
        "15023": 148,
        "15024": 101,
        "15025": 160,
        "15026": 163,
        "15027": 108,
        "15028": 206,
        "15029": 185,
        "15030": 91,
        "15031": 54,
        "15032": 97,
        "15033": 111,
        "15034": 56,
        "15035": 174,
        "15036": 129,
        "15037": 66,
        "15038": 170,
        "15039": 200,
        "15040": 46,
        "15041": 117,
        "15042": 253,
        "15043": 144,
        "15044": 17,
        "15045": 185,
        "15046": 182,
        "15047": 116,
        "15048": 28,
        "15049": 159,
        "15050": 99,
        "15051": 228,
        "15052": 85,
        "15053": 202,
        "15054": 253,
        "15055": 174,
        "15056": 196,
        "15057": 35,
        "15058": 160,
        "15059": 18,
        "15060": 164,
        "15061": 35,
        "15062": 12,
        "15063": 185,
        "15064": 43,
        "15065": 115,
        "15066": 122,
        "15067": 50,
        "15068": 13,
        "15069": 199,
        "15070": 253,
        "15071": 98,
        "15072": 111,
        "15073": 174,
        "15074": 127,
        "15075": 203,
        "15076": 249,
        "15077": 218,
        "15078": 204,
        "15079": 151,
        "15080": 8,
        "15081": 69,
        "15082": 92,
        "15083": 24,
        "15084": 79,
        "15085": 161,
        "15086": 38,
        "15087": 122,
        "15088": 234,
        "15089": 226,
        "15090": 173,
        "15091": 41,
        "15092": 196,
        "15093": 7,
        "15094": 170,
        "15095": 45,
        "15096": 201,
        "15097": 183,
        "15098": 135,
        "15099": 101,
        "15100": 237,
        "15101": 228,
        "15102": 60,
        "15103": 50,
        "15104": 146,
        "15105": 47,
        "15106": 176,
        "15107": 92,
        "15108": 222,
        "15109": 77,
        "15110": 58,
        "15111": 103,
        "15112": 80,
        "15113": 72,
        "15114": 33,
        "15115": 237,
        "15116": 190,
        "15117": 79,
        "15118": 28,
        "15119": 217,
        "15120": 59,
        "15121": 175,
        "15122": 121,
        "15123": 247,
        "15124": 47,
        "15125": 186,
        "15126": 62,
        "15127": 191,
        "15128": 2,
        "15129": 42,
        "15130": 122,
        "15131": 202,
        "15132": 183,
        "15133": 85,
        "15134": 137,
        "15135": 235,
        "15136": 204,
        "15137": 43,
        "15138": 39,
        "15139": 6,
        "15140": 247,
        "15141": 183,
        "15142": 149,
        "15143": 36,
        "15144": 146,
        "15145": 173,
        "15146": 32,
        "15147": 41,
        "15148": 16,
        "15149": 47,
        "15150": 186,
        "15151": 252,
        "15152": 146,
        "15153": 218,
        "15154": 124,
        "15155": 99,
        "15156": 6,
        "15157": 167,
        "15158": 115,
        "15159": 17,
        "15160": 112,
        "15161": 48,
        "15162": 145,
        "15163": 92,
        "15164": 255,
        "15165": 124,
        "15166": 69,
        "15167": 205,
        "15168": 140,
        "15169": 121,
        "15170": 66,
        "15171": 136,
        "15172": 92,
        "15173": 77,
        "15174": 232,
        "15175": 235,
        "15176": 75,
        "15177": 153,
        "15178": 252,
        "15179": 217,
        "15180": 204,
        "15181": 55,
        "15182": 24,
        "15183": 220,
        "15184": 55,
        "15185": 173,
        "15186": 35,
        "15187": 89,
        "15188": 6,
        "15189": 158,
        "15190": 211,
        "15191": 218,
        "15192": 145,
        "15193": 20,
        "15194": 3,
        "15195": 40,
        "15196": 110,
        "15197": 48,
        "15198": 49,
        "15199": 60,
        "15200": 20,
        "15201": 170,
        "15202": 143,
        "15203": 7,
        "15204": 184,
        "15205": 139,
        "15206": 139,
        "15207": 76,
        "15208": 12,
        "15209": 143,
        "15210": 255,
        "15211": 33,
        "15212": 125,
        "15213": 119,
        "15214": 200,
        "15215": 115,
        "15216": 212,
        "15217": 106,
        "15218": 53,
        "15219": 186,
        "15220": 156,
        "15221": 34,
        "15222": 22,
        "15223": 95,
        "15224": 90,
        "15225": 209,
        "15226": 241,
        "15227": 164,
        "15228": 2,
        "15229": 63,
        "15230": 103,
        "15231": 199,
        "15232": 185,
        "15233": 175,
        "15234": 94,
        "15235": 21,
        "15236": 241,
        "15237": 63,
        "15238": 230,
        "15239": 140,
        "15240": 164,
        "15241": 165,
        "15242": 163,
        "15243": 254,
        "15244": 203,
        "15245": 49,
        "15246": 100,
        "15247": 203,
        "15248": 115,
        "15249": 106,
        "15250": 66,
        "15251": 0,
        "15252": 212,
        "15253": 37,
        "15254": 237,
        "15255": 40,
        "15256": 106,
        "15257": 21,
        "15258": 59,
        "15259": 110,
        "15260": 60,
        "15261": 49,
        "15262": 104,
        "15263": 236,
        "15264": 169,
        "15265": 133,
        "15266": 46,
        "15267": 67,
        "15268": 76,
        "15269": 61,
        "15270": 162,
        "15271": 245,
        "15272": 89,
        "15273": 232,
        "15274": 161,
        "15275": 184,
        "15276": 209,
        "15277": 48,
        "15278": 10,
        "15279": 103,
        "15280": 91,
        "15281": 158,
        "15282": 43,
        "15283": 52,
        "15284": 249,
        "15285": 103,
        "15286": 3,
        "15287": 25,
        "15288": 160,
        "15289": 211,
        "15290": 220,
        "15291": 211,
        "15292": 150,
        "15293": 10,
        "15294": 5,
        "15295": 213,
        "15296": 133,
        "15297": 136,
        "15298": 7,
        "15299": 21,
        "15300": 12,
        "15301": 36,
        "15302": 142,
        "15303": 40,
        "15304": 29,
        "15305": 98,
        "15306": 164,
        "15307": 131,
        "15308": 23,
        "15309": 80,
        "15310": 106,
        "15311": 179,
        "15312": 156,
        "15313": 154,
        "15314": 122,
        "15315": 40,
        "15316": 131,
        "15317": 113,
        "15318": 248,
        "15319": 73,
        "15320": 185,
        "15321": 241,
        "15322": 241,
        "15323": 36,
        "15324": 97,
        "15325": 50,
        "15326": 218,
        "15327": 160,
        "15328": 154,
        "15329": 151,
        "15330": 174,
        "15331": 221,
        "15332": 12,
        "15333": 153,
        "15334": 251,
        "15335": 12,
        "15336": 205,
        "15337": 22,
        "15338": 193,
        "15339": 190,
        "15340": 3,
        "15341": 61,
        "15342": 80,
        "15343": 197,
        "15344": 202,
        "15345": 230,
        "15346": 217,
        "15347": 96,
        "15348": 53,
        "15349": 42,
        "15350": 142,
        "15351": 119,
        "15352": 171,
        "15353": 176,
        "15354": 40,
        "15355": 139,
        "15356": 124,
        "15357": 249,
        "15358": 90,
        "15359": 30,
        "15360": 234,
        "15361": 200,
        "15362": 86,
        "15363": 177,
        "15364": 196,
        "15365": 33,
        "15366": 24,
        "15367": 234,
        "15368": 125,
        "15369": 248,
        "15370": 185,
        "15371": 107,
        "15372": 97,
        "15373": 194,
        "15374": 42,
        "15375": 38,
        "15376": 55,
        "15377": 115,
        "15378": 66,
        "15379": 161,
        "15380": 124,
        "15381": 49,
        "15382": 167,
        "15383": 28,
        "15384": 183,
        "15385": 19,
        "15386": 154,
        "15387": 167,
        "15388": 98,
        "15389": 24,
        "15390": 212,
        "15391": 101,
        "15392": 113,
        "15393": 196,
        "15394": 148,
        "15395": 88,
        "15396": 61,
        "15397": 146,
        "15398": 217,
        "15399": 167,
        "15400": 196,
        "15401": 219,
        "15402": 136,
        "15403": 135,
        "15404": 159,
        "15405": 30,
        "15406": 126,
        "15407": 73,
        "15408": 221,
        "15409": 25,
        "15410": 66,
        "15411": 32,
        "15412": 242,
        "15413": 200,
        "15414": 146,
        "15415": 133,
        "15416": 197,
        "15417": 49,
        "15418": 199,
        "15419": 1,
        "15420": 15,
        "15421": 109,
        "15422": 213,
        "15423": 236,
        "15424": 215,
        "15425": 47,
        "15426": 95,
        "15427": 163,
        "15428": 131,
        "15429": 35,
        "15430": 34,
        "15431": 230,
        "15432": 191,
        "15433": 61,
        "15434": 219,
        "15435": 74,
        "15436": 215,
        "15437": 190,
        "15438": 201,
        "15439": 190,
        "15440": 53,
        "15441": 117,
        "15442": 139,
        "15443": 4,
        "15444": 55,
        "15445": 23,
        "15446": 207,
        "15447": 181,
        "15448": 182,
        "15449": 80,
        "15450": 179,
        "15451": 148,
        "15452": 59,
        "15453": 155,
        "15454": 173,
        "15455": 2,
        "15456": 195,
        "15457": 167,
        "15458": 28,
        "15459": 29,
        "15460": 125,
        "15461": 41,
        "15462": 157,
        "15463": 168,
        "15464": 101,
        "15465": 129,
        "15466": 92,
        "15467": 27,
        "15468": 219,
        "15469": 70,
        "15470": 92,
        "15471": 253,
        "15472": 14,
        "15473": 234,
        "15474": 139,
        "15475": 201,
        "15476": 184,
        "15477": 161,
        "15478": 92,
        "15479": 212,
        "15480": 111,
        "15481": 151,
        "15482": 3,
        "15483": 82,
        "15484": 117,
        "15485": 35,
        "15486": 193,
        "15487": 51,
        "15488": 122,
        "15489": 179,
        "15490": 219,
        "15491": 186,
        "15492": 72,
        "15493": 155,
        "15494": 200,
        "15495": 124,
        "15496": 169,
        "15497": 89,
        "15498": 114,
        "15499": 102,
        "15500": 2,
        "15501": 223,
        "15502": 229,
        "15503": 122,
        "15504": 30,
        "15505": 225,
        "15506": 89,
        "15507": 45,
        "15508": 153,
        "15509": 169,
        "15510": 182,
        "15511": 222,
        "15512": 162,
        "15513": 145,
        "15514": 13,
        "15515": 66,
        "15516": 77,
        "15517": 38,
        "15518": 205,
        "15519": 58,
        "15520": 184,
        "15521": 162,
        "15522": 11,
        "15523": 50,
        "15524": 255,
        "15525": 120,
        "15526": 52,
        "15527": 83,
        "15528": 130,
        "15529": 253,
        "15530": 65,
        "15531": 69,
        "15532": 184,
        "15533": 153,
        "15534": 148,
        "15535": 53,
        "15536": 17,
        "15537": 194,
        "15538": 133,
        "15539": 6,
        "15540": 30,
        "15541": 215,
        "15542": 75,
        "15543": 54,
        "15544": 55,
        "15545": 3,
        "15546": 239,
        "15547": 166,
        "15548": 101,
        "15549": 51,
        "15550": 112,
        "15551": 140,
        "15552": 252,
        "15553": 34,
        "15554": 135,
        "15555": 130,
        "15556": 133,
        "15557": 16,
        "15558": 110,
        "15559": 213,
        "15560": 205,
        "15561": 111,
        "15562": 22,
        "15563": 155,
        "15564": 114,
        "15565": 49,
        "15566": 19,
        "15567": 120,
        "15568": 190,
        "15569": 37,
        "15570": 95,
        "15571": 105,
        "15572": 175,
        "15573": 84,
        "15574": 163,
        "15575": 91,
        "15576": 89,
        "15577": 185,
        "15578": 119,
        "15579": 112,
        "15580": 1,
        "15581": 74,
        "15582": 130,
        "15583": 37,
        "15584": 82,
        "15585": 46,
        "15586": 234,
        "15587": 128,
        "15588": 243,
        "15589": 215,
        "15590": 172,
        "15591": 113,
        "15592": 155,
        "15593": 28,
        "15594": 19,
        "15595": 33,
        "15596": 122,
        "15597": 97,
        "15598": 77,
        "15599": 78,
        "15600": 184,
        "15601": 186,
        "15602": 74,
        "15603": 161,
        "15604": 111,
        "15605": 48,
        "15606": 84,
        "15607": 203,
        "15608": 31,
        "15609": 224,
        "15610": 228,
        "15611": 208,
        "15612": 147,
        "15613": 36,
        "15614": 215,
        "15615": 207,
        "15616": 44,
        "15617": 211,
        "15618": 251,
        "15619": 228,
        "15620": 36,
        "15621": 151,
        "15622": 159,
        "15623": 150,
        "15624": 107,
        "15625": 70,
        "15626": 253,
        "15627": 148,
        "15628": 186,
        "15629": 120,
        "15630": 194,
        "15631": 248,
        "15632": 81,
        "15633": 10,
        "15634": 177,
        "15635": 0,
        "15636": 197,
        "15637": 218,
        "15638": 138,
        "15639": 176,
        "15640": 221,
        "15641": 220,
        "15642": 181,
        "15643": 202,
        "15644": 115,
        "15645": 202,
        "15646": 24,
        "15647": 195,
        "15648": 40,
        "15649": 247,
        "15650": 152,
        "15651": 93,
        "15652": 17,
        "15653": 190,
        "15654": 225,
        "15655": 162,
        "15656": 124,
        "15657": 126,
        "15658": 139,
        "15659": 76,
        "15660": 155,
        "15661": 180,
        "15662": 176,
        "15663": 127,
        "15664": 230,
        "15665": 146,
        "15666": 5,
        "15667": 193,
        "15668": 2,
        "15669": 101,
        "15670": 213,
        "15671": 32,
        "15672": 52,
        "15673": 51,
        "15674": 51,
        "15675": 174,
        "15676": 112,
        "15677": 133,
        "15678": 203,
        "15679": 192,
        "15680": 254,
        "15681": 144,
        "15682": 209,
        "15683": 155,
        "15684": 59,
        "15685": 79,
        "15686": 161,
        "15687": 76,
        "15688": 1,
        "15689": 125,
        "15690": 249,
        "15691": 208,
        "15692": 46,
        "15693": 92,
        "15694": 58,
        "15695": 182,
        "15696": 12,
        "15697": 12,
        "15698": 160,
        "15699": 13,
        "15700": 170,
        "15701": 178,
        "15702": 238,
        "15703": 108,
        "15704": 53,
        "15705": 75,
        "15706": 123,
        "15707": 168,
        "15708": 196,
        "15709": 28,
        "15710": 109,
        "15711": 68,
        "15712": 29,
        "15713": 212,
        "15714": 158,
        "15715": 85,
        "15716": 53,
        "15717": 212,
        "15718": 187,
        "15719": 49,
        "15720": 125,
        "15721": 194,
        "15722": 29,
        "15723": 151,
        "15724": 241,
        "15725": 232,
        "15726": 225,
        "15727": 236,
        "15728": 249,
        "15729": 159,
        "15730": 32,
        "15731": 147,
        "15732": 129,
        "15733": 246,
        "15734": 14,
        "15735": 91,
        "15736": 78,
        "15737": 44,
        "15738": 35,
        "15739": 179,
        "15740": 79,
        "15741": 244,
        "15742": 113,
        "15743": 123,
        "15744": 199,
        "15745": 252,
        "15746": 54,
        "15747": 93,
        "15748": 12,
        "15749": 194,
        "15750": 11,
        "15751": 0,
        "15752": 106,
        "15753": 21,
        "15754": 173,
        "15755": 199,
        "15756": 117,
        "15757": 182,
        "15758": 219,
        "15759": 84,
        "15760": 122,
        "15761": 19,
        "15762": 231,
        "15763": 179,
        "15764": 111,
        "15765": 249,
        "15766": 158,
        "15767": 22,
        "15768": 192,
        "15769": 9,
        "15770": 84,
        "15771": 95,
        "15772": 169,
        "15773": 207,
        "15774": 138,
        "15775": 7,
        "15776": 198,
        "15777": 159,
        "15778": 208,
        "15779": 120,
        "15780": 240,
        "15781": 27,
        "15782": 180,
        "15783": 91,
        "15784": 165,
        "15785": 128,
        "15786": 40,
        "15787": 141,
        "15788": 111,
        "15789": 8,
        "15790": 39,
        "15791": 153,
        "15792": 163,
        "15793": 43,
        "15794": 16,
        "15795": 46,
        "15796": 41,
        "15797": 216,
        "15798": 201,
        "15799": 194,
        "15800": 138,
        "15801": 177,
        "15802": 1,
        "15803": 218,
        "15804": 2,
        "15805": 199,
        "15806": 104,
        "15807": 73,
        "15808": 178,
        "15809": 226,
        "15810": 121,
        "15811": 178,
        "15812": 25,
        "15813": 97,
        "15814": 106,
        "15815": 132,
        "15816": 4,
        "15817": 139,
        "15818": 147,
        "15819": 4,
        "15820": 23,
        "15821": 30,
        "15822": 25,
        "15823": 35,
        "15824": 236,
        "15825": 142,
        "15826": 243,
        "15827": 221,
        "15828": 27,
        "15829": 118,
        "15830": 184,
        "15831": 244,
        "15832": 98,
        "15833": 139,
        "15834": 180,
        "15835": 246,
        "15836": 210,
        "15837": 227,
        "15838": 185,
        "15839": 244,
        "15840": 96,
        "15841": 154,
        "15842": 92,
        "15843": 205,
        "15844": 176,
        "15845": 245,
        "15846": 38,
        "15847": 100,
        "15848": 136,
        "15849": 63,
        "15850": 176,
        "15851": 182,
        "15852": 219,
        "15853": 115,
        "15854": 228,
        "15855": 147,
        "15856": 51,
        "15857": 228,
        "15858": 187,
        "15859": 140,
        "15860": 237,
        "15861": 45,
        "15862": 139,
        "15863": 104,
        "15864": 173,
        "15865": 241,
        "15866": 225,
        "15867": 54,
        "15868": 177,
        "15869": 47,
        "15870": 195,
        "15871": 93,
        "15872": 152,
        "15873": 179,
        "15874": 87,
        "15875": 105,
        "15876": 109,
        "15877": 212,
        "15878": 102,
        "15879": 53,
        "15880": 194,
        "15881": 240,
        "15882": 81,
        "15883": 163,
        "15884": 119,
        "15885": 78,
        "15886": 44,
        "15887": 175,
        "15888": 97,
        "15889": 145,
        "15890": 100,
        "15891": 98,
        "15892": 56,
        "15893": 36,
        "15894": 68,
        "15895": 247,
        "15896": 109,
        "15897": 103,
        "15898": 46,
        "15899": 146,
        "15900": 255,
        "15901": 4,
        "15902": 95,
        "15903": 140,
        "15904": 73,
        "15905": 10,
        "15906": 85,
        "15907": 223,
        "15908": 152,
        "15909": 179,
        "15910": 233,
        "15911": 119,
        "15912": 70,
        "15913": 139,
        "15914": 50,
        "15915": 107,
        "15916": 14,
        "15917": 80,
        "15918": 95,
        "15919": 58,
        "15920": 136,
        "15921": 175,
        "15922": 101,
        "15923": 122,
        "15924": 244,
        "15925": 91,
        "15926": 178,
        "15927": 132,
        "15928": 223,
        "15929": 243,
        "15930": 29,
        "15931": 92,
        "15932": 89,
        "15933": 115,
        "15934": 76,
        "15935": 95,
        "15936": 80,
        "15937": 255,
        "15938": 235,
        "15939": 116,
        "15940": 128,
        "15941": 70,
        "15942": 200,
        "15943": 0,
        "15944": 119,
        "15945": 165,
        "15946": 66,
        "15947": 7,
        "15948": 112,
        "15949": 224,
        "15950": 251,
        "15951": 198,
        "15952": 31,
        "15953": 243,
        "15954": 236,
        "15955": 16,
        "15956": 59,
        "15957": 25,
        "15958": 97,
        "15959": 90,
        "15960": 78,
        "15961": 137,
        "15962": 22,
        "15963": 47,
        "15964": 64,
        "15965": 91,
        "15966": 167,
        "15967": 32,
        "15968": 138,
        "15969": 231,
        "15970": 52,
        "15971": 117,
        "15972": 247,
        "15973": 24,
        "15974": 9,
        "15975": 223,
        "15976": 188,
        "15977": 224,
        "15978": 48,
        "15979": 253,
        "15980": 104,
        "15981": 88,
        "15982": 228,
        "15983": 56,
        "15984": 82,
        "15985": 86,
        "15986": 141,
        "15987": 178,
        "15988": 62,
        "15989": 15,
        "15990": 6,
        "15991": 113,
        "15992": 26,
        "15993": 198,
        "15994": 209,
        "15995": 254,
        "15996": 103,
        "15997": 35,
        "15998": 0,
        "15999": 247,
        "16000": 243,
        "16001": 66,
        "16002": 43,
        "16003": 160,
        "16004": 172,
        "16005": 140,
        "16006": 146,
        "16007": 200,
        "16008": 136,
        "16009": 17,
        "16010": 252,
        "16011": 210,
        "16012": 8,
        "16013": 153,
        "16014": 211,
        "16015": 228,
        "16016": 35,
        "16017": 136,
        "16018": 55,
        "16019": 229,
        "16020": 58,
        "16021": 73,
        "16022": 223,
        "16023": 81,
        "16024": 208,
        "16025": 50,
        "16026": 148,
        "16027": 90,
        "16028": 131,
        "16029": 209,
        "16030": 61,
        "16031": 184,
        "16032": 120,
        "16033": 163,
        "16034": 222,
        "16035": 161,
        "16036": 132,
        "16037": 43,
        "16038": 57,
        "16039": 130,
        "16040": 237,
        "16041": 59,
        "16042": 6,
        "16043": 121,
        "16044": 152,
        "16045": 58,
        "16046": 139,
        "16047": 20,
        "16048": 202,
        "16049": 160,
        "16050": 62,
        "16051": 87,
        "16052": 30,
        "16053": 102,
        "16054": 76,
        "16055": 18,
        "16056": 184,
        "16057": 235,
        "16058": 76,
        "16059": 168,
        "16060": 208,
        "16061": 144,
        "16062": 55,
        "16063": 197,
        "16064": 165,
        "16065": 240,
        "16066": 218,
        "16067": 109,
        "16068": 139,
        "16069": 174,
        "16070": 131,
        "16071": 175,
        "16072": 90,
        "16073": 52,
        "16074": 65,
        "16075": 210,
        "16076": 182,
        "16077": 13,
        "16078": 129,
        "16079": 136,
        "16080": 64,
        "16081": 65,
        "16082": 243,
        "16083": 77,
        "16084": 2,
        "16085": 159,
        "16086": 93,
        "16087": 215,
        "16088": 88,
        "16089": 81,
        "16090": 136,
        "16091": 1,
        "16092": 11,
        "16093": 204,
        "16094": 246,
        "16095": 154,
        "16096": 58,
        "16097": 92,
        "16098": 148,
        "16099": 144,
        "16100": 129,
        "16101": 247,
        "16102": 130,
        "16103": 146,
        "16104": 20,
        "16105": 210,
        "16106": 22,
        "16107": 73,
        "16108": 173,
        "16109": 178,
        "16110": 54,
        "16111": 167,
        "16112": 165,
        "16113": 35,
        "16114": 49,
        "16115": 55,
        "16116": 128,
        "16117": 224,
        "16118": 42,
        "16119": 56,
        "16120": 63,
        "16121": 50,
        "16122": 116,
        "16123": 33,
        "16124": 86,
        "16125": 228,
        "16126": 194,
        "16127": 120,
        "16128": 117,
        "16129": 184,
        "16130": 248,
        "16131": 202,
        "16132": 154,
        "16133": 174,
        "16134": 103,
        "16135": 232,
        "16136": 1,
        "16137": 32,
        "16138": 37,
        "16139": 219,
        "16140": 131,
        "16141": 7,
        "16142": 31,
        "16143": 104,
        "16144": 107,
        "16145": 105,
        "16146": 239,
        "16147": 136,
        "16148": 202,
        "16149": 10,
        "16150": 116,
        "16151": 73,
        "16152": 74,
        "16153": 112,
        "16154": 238,
        "16155": 42,
        "16156": 94,
        "16157": 217,
        "16158": 55,
        "16159": 143,
        "16160": 198,
        "16161": 101,
        "16162": 225,
        "16163": 48,
        "16164": 23,
        "16165": 106,
        "16166": 149,
        "16167": 53,
        "16168": 33,
        "16169": 122,
        "16170": 181,
        "16171": 113,
        "16172": 48,
        "16173": 192,
        "16174": 202,
        "16175": 218,
        "16176": 238,
        "16177": 187,
        "16178": 52,
        "16179": 25,
        "16180": 41,
        "16181": 22,
        "16182": 152,
        "16183": 14,
        "16184": 6,
        "16185": 60,
        "16186": 210,
        "16187": 174,
        "16188": 123,
        "16189": 184,
        "16190": 129,
        "16191": 129,
        "16192": 123,
        "16193": 225,
        "16194": 79,
        "16195": 36,
        "16196": 16,
        "16197": 177,
        "16198": 224,
        "16199": 248,
        "16200": 5,
        "16201": 69,
        "16202": 29,
        "16203": 108,
        "16204": 165,
        "16205": 94,
        "16206": 233,
        "16207": 186,
        "16208": 63,
        "16209": 161,
        "16210": 46,
        "16211": 150,
        "16212": 76,
        "16213": 249,
        "16214": 232,
        "16215": 80,
        "16216": 198,
        "16217": 74,
        "16218": 107,
        "16219": 230,
        "16220": 219,
        "16221": 10,
        "16222": 172,
        "16223": 224,
        "16224": 105,
        "16225": 220,
        "16226": 195,
        "16227": 221,
        "16228": 40,
        "16229": 96,
        "16230": 37,
        "16231": 73,
        "16232": 245,
        "16233": 2,
        "16234": 94,
        "16235": 80,
        "16236": 108,
        "16237": 195,
        "16238": 237,
        "16239": 64,
        "16240": 119,
        "16241": 31,
        "16242": 87,
        "16243": 140,
        "16244": 165,
        "16245": 87,
        "16246": 103,
        "16247": 16,
        "16248": 192,
        "16249": 244,
        "16250": 103,
        "16251": 250,
        "16252": 40,
        "16253": 207,
        "16254": 206,
        "16255": 67,
        "16256": 65,
        "16257": 225,
        "16258": 225,
        "16259": 3,
        "16260": 139,
        "16261": 245,
        "16262": 118,
        "16263": 15,
        "16264": 202,
        "16265": 233,
        "16266": 80,
        "16267": 244,
        "16268": 70,
        "16269": 148,
        "16270": 144,
        "16271": 204,
        "16272": 81,
        "16273": 228,
        "16274": 7,
        "16275": 57,
        "16276": 249,
        "16277": 177,
        "16278": 108,
        "16279": 142,
        "16280": 244,
        "16281": 145,
        "16282": 6,
        "16283": 105,
        "16284": 215,
        "16285": 12,
        "16286": 127,
        "16287": 130,
        "16288": 209,
        "16289": 164,
        "16290": 178,
        "16291": 110,
        "16292": 2,
        "16293": 229,
        "16294": 172,
        "16295": 227,
        "16296": 70,
        "16297": 210,
        "16298": 189,
        "16299": 162,
        "16300": 251,
        "16301": 27,
        "16302": 74,
        "16303": 47,
        "16304": 152,
        "16305": 115,
        "16306": 17,
        "16307": 13,
        "16308": 90,
        "16309": 138,
        "16310": 31,
        "16311": 39,
        "16312": 30,
        "16313": 193,
        "16314": 89,
        "16315": 174,
        "16316": 158,
        "16317": 245,
        "16318": 35,
        "16319": 242,
        "16320": 155,
        "16321": 37,
        "16322": 237,
        "16323": 238,
        "16324": 220,
        "16325": 88,
        "16326": 240,
        "16327": 32,
        "16328": 86,
        "16329": 81,
        "16330": 68,
        "16331": 214,
        "16332": 71,
        "16333": 49,
        "16334": 19,
        "16335": 24,
        "16336": 13,
        "16337": 105,
        "16338": 37,
        "16339": 91,
        "16340": 202,
        "16341": 233,
        "16342": 69,
        "16343": 248,
        "16344": 100,
        "16345": 168,
        "16346": 101,
        "16347": 217,
        "16348": 135,
        "16349": 191,
        "16350": 220,
        "16351": 49,
        "16352": 195,
        "16353": 45,
        "16354": 62,
        "16355": 171,
        "16356": 124,
        "16357": 194,
        "16358": 73,
        "16359": 156,
        "16360": 124,
        "16361": 140,
        "16362": 40,
        "16363": 249,
        "16364": 171,
        "16365": 213,
        "16366": 1,
        "16367": 151,
        "16368": 199,
        "16369": 242,
        "16370": 57,
        "16371": 125,
        "16372": 151,
        "16373": 33,
        "16374": 89,
        "16375": 81,
        "16376": 90,
        "16377": 126,
        "16378": 73,
        "16379": 247,
        "16380": 253,
        "16381": 8,
        "16382": 243,
        "16383": 224,
        "16384": 5,
        "16385": 24,
        "16386": 90,
        "16387": 225,
        "16388": 15,
        "16389": 21,
        "16390": 9,
        "16391": 39,
        "16392": 71,
        "16393": 114,
        "16394": 214,
        "16395": 160,
        "16396": 51,
        "16397": 120,
        "16398": 223,
        "16399": 229,
        "16400": 37,
        "16401": 70,
        "16402": 42,
        "16403": 204,
        "16404": 106,
        "16405": 27,
        "16406": 36,
        "16407": 120,
        "16408": 34,
        "16409": 71,
        "16410": 89,
        "16411": 123,
        "16412": 234,
        "16413": 219,
        "16414": 136,
        "16415": 172,
        "16416": 154,
        "16417": 240,
        "16418": 88,
        "16419": 21,
        "16420": 204,
        "16421": 83,
        "16422": 227,
        "16423": 64,
        "16424": 243,
        "16425": 152,
        "16426": 134,
        "16427": 94,
        "16428": 199,
        "16429": 205,
        "16430": 230,
        "16431": 41,
        "16432": 191,
        "16433": 49,
        "16434": 211,
        "16435": 191,
        "16436": 77,
        "16437": 218,
        "16438": 42,
        "16439": 122,
        "16440": 215,
        "16441": 215,
        "16442": 216,
        "16443": 1,
        "16444": 236,
        "16445": 101,
        "16446": 253,
        "16447": 145,
        "16448": 81,
        "16449": 6,
        "16450": 126,
        "16451": 122,
        "16452": 208,
        "16453": 159,
        "16454": 198,
        "16455": 43,
        "16456": 226,
        "16457": 236,
        "16458": 190,
        "16459": 137,
        "16460": 245,
        "16461": 101,
        "16462": 31,
        "16463": 17,
        "16464": 124,
        "16465": 46,
        "16466": 204,
        "16467": 188,
        "16468": 101,
        "16469": 125,
        "16470": 184,
        "16471": 219,
        "16472": 7,
        "16473": 191,
        "16474": 9,
        "16475": 46,
        "16476": 243,
        "16477": 226,
        "16478": 185,
        "16479": 166,
        "16480": 53,
        "16481": 28,
        "16482": 195,
        "16483": 50,
        "16484": 148,
        "16485": 82,
        "16486": 14,
        "16487": 129,
        "16488": 112,
        "16489": 68,
        "16490": 59,
        "16491": 71,
        "16492": 182,
        "16493": 132,
        "16494": 174,
        "16495": 88,
        "16496": 88,
        "16497": 104,
        "16498": 177,
        "16499": 227,
        "16500": 107,
        "16501": 247,
        "16502": 233,
        "16503": 136,
        "16504": 242,
        "16505": 41,
        "16506": 223,
        "16507": 171,
        "16508": 136,
        "16509": 206,
        "16510": 139,
        "16511": 144,
        "16512": 107,
        "16513": 94,
        "16514": 197,
        "16515": 122,
        "16516": 21,
        "16517": 67,
        "16518": 37,
        "16519": 9,
        "16520": 1,
        "16521": 8,
        "16522": 0,
        "16523": 0,
        "16524": 0,
        "16525": 0,
        "16526": 0,
        "16527": 0,
        "16528": 16,
        "16529": 0,
        "16530": 0,
        "16531": 0,
        "16532": 0,
        "16533": 0,
        "16534": 0,
        "16535": 0,
        "16536": 0,
        "16537": 0,
        "16538": 0,
        "16539": 0,
        "16540": 0,
        "16541": 0,
        "16542": 0,
        "16543": 0,
        "16544": 0,
        "16545": 0,
        "16546": 0,
        "16547": 0,
        "16548": 0,
        "16549": 0,
        "16550": 0,
        "16551": 0,
        "16552": 64,
        "16553": 0,
        "16554": 0,
        "16555": 0,
        "16556": 0,
        "16557": 0,
        "16558": 0,
        "16559": 0,
        "16560": 3,
        "16561": 0,
        "16562": 0,
        "16563": 0,
        "16564": 0,
        "16565": 0,
        "16566": 0,
        "16567": 0,
        "16568": 4,
        "16569": 0,
        "16570": 0,
        "16571": 0,
        "16572": 0,
        "16573": 0,
        "16574": 0,
        "16575": 0,
        "16576": 4,
        "16577": 0,
        "16578": 0,
        "16579": 0,
        "16580": 0,
        "16581": 0,
        "16582": 0,
        "16583": 0,
        "16584": 0,
        "16585": 0,
        "16586": 0,
        "16587": 0,
        "16588": 1,
        "16589": 0,
        "16590": 0,
        "16591": 0,
        "16592": 0,
        "16593": 0,
        "16594": 0,
        "16595": 0,
        "16596": 16,
        "16597": 0,
        "16598": 0,
        "16599": 0,
        "16600": 0,
        "16601": 0,
        "16602": 0,
        "16603": 0
      }
    }
  ],
  "numDeployments": 1,
  "solcInputHash": "0c5385efa46cb58cf4f25a483a2e8f2f",
  "bytecode": "0x6101606040526200001760006200026660201b60201c565b6004553480156200002757600080fd5b50604051620046ed380380620046ed83398181016040528101906200004d919062000b83565b6040518060400160405280600881526020017f46616b652046475a0000000000000000000000000000000000000000000000008152506040518060400160405280600481526020017f6646475a00000000000000000000000000000000000000000000000000000000815250338383836040518060400160405280601181526020017f4668656e6978205065726d697373696f6e0000000000000000000000000000008152506040518060400160405280600381526020017f312e3000000000000000000000000000000000000000000000000000000000008152506200013f6000836200028260201b90919060201c565b61012081815250506200015d6001826200028260201b90919060201c565b6101408181525050818051906020012060e08181525050808051906020012061010081815250504660a081815250506200019c620002da60201b60201c565b608081815250503073ffffffffffffffffffffffffffffffffffffffff1660c08173ffffffffffffffffffffffffffffffffffffffff168152505050508160059081620001ea919062000e1f565b508060069081620001fc919062000e1f565b505050600062000212826200033760201b60201c565b9050620002486200023c8262000230617fff6200026660201b60201c565b6200035560201b60201c565b620003f860201b60201c565b6200025a8382620004cb60201b60201c565b50505050505062001260565b60006200027b8260026200057160201b60201c565b9050919050565b6000602083511015620002a857620002a0836200062860201b60201c565b9050620002d4565b82620002ba836200069560201b60201c565b6000019081620002cb919062000e1f565b5060ff60001b90505b92915050565b60007f8b73c3c69bb8fe3d512ecc4cf759cc79239f7b179b0ffacaa9a75d522b39400f60e0516101005146306040516020016200031c95949392919062000f77565b60405160208183030381529060405280519060200120905090565b60006200034e82600001516200069f60201b60201c565b9050919050565b60006200036883620006bb60201b60201c565b62000382576200037f60006200026660201b60201c565b92505b6200039382620006bb60201b60201c565b620003ad57620003aa60006200026660201b60201c565b91505b600083905060008390506000620003ea60028484608073ffffffffffffffffffffffffffffffffffffffff1663eb274b77620006c860201b60201c565b905080935050505092915050565b62000409816200077960201b60201c565b62000423576200042060006200078660201b60201c565b90505b600081905060006200043b82620007a260201b60201c565b9050608073ffffffffffffffffffffffffffffffffffffffff16637d23f1db600d836040518363ffffffff1660e01b81526004016200047c9291906200104f565b600060405180830381865afa1580156200049a573d6000803e3d6000fd5b505050506040513d6000823e3d601f19601f82011682018060405250810190620004c5919062001083565b50505050565b62000516600260008473ffffffffffffffffffffffffffffffffffffffff1673ffffffffffffffffffffffffffffffffffffffff168152602001908152602001600020548262000803565b600260008473ffffffffffffffffffffffffffffffffffffffff1673ffffffffffffffffffffffffffffffffffffffff16815260200190815260200160002081905550620005676004548262000803565b6004819055505050565b60006060608073ffffffffffffffffffffffffffffffffffffffff166319e1c5c4620005a386620007a260201b60201c565b856040518363ffffffff1660e01b8152600401620005c3929190620010d4565b600060405180830381865afa158015620005e1573d6000803e3d6000fd5b505050506040513d6000823e3d601f19601f820116820180604052508101906200060c919062001083565b90506200061f816200081f60201b60201c565b91505092915050565b600080829050601f815111156200067857826040517f305a27a90000000000000000000000000000000000000000000000000000000081526004016200066f91906200115a565b60405180910390fd5b8051816200068690620011a5565b60001c1760001b915050919050565b6000819050919050565b6000620006b48260026200082d60201b60201c565b9050919050565b6000808214159050919050565b60006060838388620006e089620007a260201b60201c565b620006f189620007a260201b60201c565b6040518463ffffffff1660e01b8152600401620007119392919062001215565b600060405180830381865afa1580156200072f573d6000803e3d6000fd5b505050506040513d6000823e3d601f19601f820116820180604052508101906200075a919062001083565b90506200076d81620008d460201b60201c565b91505095945050505050565b6000808214159050919050565b60006200079b82600d6200057160201b60201c565b9050919050565b6060602067ffffffffffffffff811115620007c257620007c1620009ae565b5b6040519080825280601f01601f191660200182016040528015620007f55781602001600182028036833780820191505090505b509050816020820152919050565b6000620008178383620008e260201b60201c565b905092915050565b600060208201519050919050565b60006060608073ffffffffffffffffffffffffffffffffffffffff16635fa55ca784866040518363ffffffff1660e01b81526004016200086f9291906200104f565b600060405180830381865afa1580156200088d573d6000803e3d6000fd5b505050506040513d6000823e3d601f19601f82011682018060405250810190620008b8919062001083565b9050620008cb816200081f60201b60201c565b91505092915050565b600060208201519050919050565b6000620008f583620006bb60201b60201c565b6200090f576200090c60006200026660201b60201c565b92505b6200092082620006bb60201b60201c565b6200093a576200093760006200026660201b60201c565b91505b6000839050600083905060006200097660028484608073ffffffffffffffffffffffffffffffffffffffff16622df619620006c860201b60201c565b905080935050505092915050565b6000604051905090565b600080fd5b600080fd5b600080fd5b6000601f19601f8301169050919050565b7f4e487b7100000000000000000000000000000000000000000000000000000000600052604160045260246000fd5b620009e8826200099d565b810181811067ffffffffffffffff8211171562000a0a5762000a09620009ae565b5b80604052505050565b600062000a1f62000984565b905062000a2d8282620009dd565b919050565b600080fd5b600080fd5b600080fd5b600067ffffffffffffffff82111562000a5f5762000a5e620009ae565b5b62000a6a826200099d565b9050602081019050919050565b60005b8381101562000a9757808201518184015260208101905062000a7a565b60008484015250505050565b600062000aba62000ab48462000a41565b62000a13565b90508281526020810184848401111562000ad95762000ad862000a3c565b5b62000ae684828562000a77565b509392505050565b600082601f83011262000b065762000b0562000a37565b5b815162000b1884826020860162000aa3565b91505092915050565b60006020828403121562000b3a5762000b3962000998565b5b62000b46602062000a13565b9050600082015167ffffffffffffffff81111562000b695762000b6862000a32565b5b62000b778482850162000aee565b60008301525092915050565b60006020828403121562000b9c5762000b9b6200098e565b5b600082015167ffffffffffffffff81111562000bbd5762000bbc62000993565b5b62000bcb8482850162000b21565b91505092915050565b600081519050919050565b7f4e487b7100000000000000000000000000000000000000000000000000000000600052602260045260246000fd5b6000600282049050600182168062000c2757607f821691505b60208210810362000c3d5762000c3c62000bdf565b5b50919050565b60008190508160005260206000209050919050565b60006020601f8301049050919050565b600082821b905092915050565b60006008830262000ca77fffffffffffffffffffffffffffffffffffffffffffffffffffffffffffffffff8262000c68565b62000cb3868362000c68565b95508019841693508086168417925050509392505050565b6000819050919050565b6000819050919050565b600062000d0062000cfa62000cf48462000ccb565b62000cd5565b62000ccb565b9050919050565b6000819050919050565b62000d1c8362000cdf565b62000d3462000d2b8262000d07565b84845462000c75565b825550505050565b600090565b62000d4b62000d3c565b62000d5881848462000d11565b505050565b5b8181101562000d805762000d7460008262000d41565b60018101905062000d5e565b5050565b601f82111562000dcf5762000d998162000c43565b62000da48462000c58565b8101602085101562000db4578190505b62000dcc62000dc38562000c58565b83018262000d5d565b50505b505050565b600082821c905092915050565b600062000df46000198460080262000dd4565b1980831691505092915050565b600062000e0f838362000de1565b9150826002028217905092915050565b62000e2a8262000bd4565b67ffffffffffffffff81111562000e465762000e45620009ae565b5b62000e52825462000c0e565b62000e5f82828562000d84565b600060209050601f83116001811462000e97576000841562000e82578287015190505b62000e8e858262000e01565b86555062000efe565b601f19841662000ea78662000c43565b60005b8281101562000ed15784890151825560018201915060208501945060208101905062000eaa565b8683101562000ef1578489015162000eed601f89168262000de1565b8355505b6001600288020188555050505b505050505050565b6000819050919050565b62000f1b8162000f06565b82525050565b62000f2c8162000ccb565b82525050565b600073ffffffffffffffffffffffffffffffffffffffff82169050919050565b600062000f5f8262000f32565b9050919050565b62000f718162000f52565b82525050565b600060a08201905062000f8e600083018862000f10565b62000f9d602083018762000f10565b62000fac604083018662000f10565b62000fbb606083018562000f21565b62000fca608083018462000f66565b9695505050505050565b600060ff82169050919050565b62000fec8162000fd4565b82525050565b600081519050919050565b600082825260208201905092915050565b60006200101b8262000ff2565b62001027818562000ffd565b93506200103981856020860162000a77565b62001044816200099d565b840191505092915050565b600060408201905062001066600083018562000fe1565b81810360208301526200107a81846200100e565b90509392505050565b6000602082840312156200109c576200109b6200098e565b5b600082015167ffffffffffffffff811115620010bd57620010bc62000993565b5b620010cb8482850162000aee565b91505092915050565b60006040820190508181036000830152620010f081856200100e565b905062001101602083018462000fe1565b9392505050565b600082825260208201905092915050565b6000620011268262000bd4565b62001132818562001108565b93506200114481856020860162000a77565b6200114f816200099d565b840191505092915050565b6000602082019050818103600083015262001176818462001119565b905092915050565b6000819050602082019050919050565b60006200119c825162000f06565b80915050919050565b6000620011b28262000ff2565b82620011be846200117e565b9050620011cb816200118e565b925060208210156200120e57620012097fffffffffffffffffffffffffffffffffffffffffffffffffffffffffffffffff8360200360080262000c68565b831692505b5050919050565b60006060820190506200122c600083018662000fe1565b81810360208301526200124081856200100e565b905081810360408301526200125681846200100e565b9050949350505050565b60805160a05160c05160e051610100516101205161014051613432620012bb60003960006113ca0152600061138f015260006120d3015260006120b2015260006117f3015260006118490152600061187201526134326000f3fe608060405234801561001057600080fd5b50600436106101425760003560e01c80637ecebe00116100b8578063a9059cbb1161007c578063a9059cbb146103b9578063af575a00146103e9578063c4224c1914610419578063d505accf14610449578063d918156e14610465578063dd62ed3e1461049557610142565b80637ecebe00146102fb57806384b0196e1461032b5780638624a3491461034f57806395d89b411461037f5780639f284be71461039d57610142565b80633644e5151161010a5780633644e5151461020157806339c217f71461021f5780635356c4291461024f578063602772041461027f5780636e0505e1146102af57806370a08231146102cb57610142565b806306fdde0314610147578063095ea7b31461016557806318160ddd1461019557806323b872dd146101b3578063313ce567146101e3575b600080fd5b61014f6104c5565b60405161015c9190612494565b60405180910390f35b61017f600480360381019061017a919061255e565b610557565b60405161018c91906125b9565b60405180910390f35b61019d6105ab565b6040516101aa91906125e3565b60405180910390f35b6101cd60048036038101906101c891906125fe565b6105bd565b6040516101da91906125b9565b60405180910390f35b6101eb610692565b6040516101f8919061266d565b60405180910390f35b610209610697565b60405161021691906126a1565b60405180910390f35b610239600480360381019061023491906126e0565b610729565b6040516102469190612777565b60405180910390f35b610269600480360381019061026491906127b1565b61074e565b6040516102769190612494565b60405180910390f35b610299600480360381019061029491906129e4565b61084c565b6040516102a69190612494565b60405180910390f35b6102c960048036038101906102c49190612a7c565b610982565b005b6102e560048036038101906102e09190612aa9565b610ab9565b6040516102f291906125e3565b60405180910390f35b61031560048036038101906103109190612aa9565b610ad4565b60405161032291906125e3565b60405180910390f35b610333610aef565b6040516103469796959493929190612bde565b60405180910390f35b61036960048036038101906103649190612c62565b610b99565b6040516103769190612777565b60405180910390f35b610387610bd7565b6040516103949190612494565b60405180910390f35b6103b760048036038101906103b29190612a7c565b610c69565b005b6103d360048036038101906103ce919061255e565b610d76565b6040516103e091906125b9565b60405180910390f35b61040360048036038101906103fe9190612cfd565b610e08565b6040516104109190612777565b60405180910390f35b610433600480360381019061042e9190612d50565b610e35565b6040516104409190612777565b60405180910390f35b610463600480360381019061045e9190612dbc565b610e4a565b005b61047f600480360381019061047a91906126e0565b610fee565b60405161048c91906125b9565b60405180910390f35b6104af60048036038101906104aa9190612e5e565b611016565b6040516104bc91906125e3565b60405180910390f35b6060600580546104d490612ecd565b80601f016020809104026020016040519081016040528092919081815260200182805461050090612ecd565b801561054d5780601f106105225761010080835404028352916020019161054d565b820191906000526020600020905b81548152906001019060200180831161053057829003601f168201915b5050505050905090565b600082602052637f5e9f20600c5233600052816034600c205581600052602c5160601c337f8c5be1e5ebec7d5bd14f71427d1e84f3dd0314c0f7b2291e5b200ac8c7c3b92560206000a36001905092915050565b60006805345cdf77eb68f44c54905090565b60006105ca848484611036565b8360601b33602052637f5e9f208117600c526034600c20805460018101156106085780851115610602576313be252b6000526004601cfd5b84810382555b6387a211a28317600c526020600c2080548087111561062f5763f4d678b86000526004601cfd5b8681038255876000526020600c2087815401815587602052600c5160601c8660601c7fddf252ad1be2c89b69c2b068fc378daa952ba7f163c4a11628f55a4df523b3ef602080a350505050505061068784848461103b565b600190509392505050565b600090565b6000806106a2611040565b90506000801b81036106c0576106b66104c5565b8051906020012090505b6040517f8b73c3c69bb8fe3d512ecc4cf759cc79239f7b179b0ffacaa9a75d522b39400f81528160208201527fc89efdaa54c0f20c7adf612882df0950f5a951637e0307cdcb4c672f298b8bc6604082015246606082015230608082015260a081209250505090565b6000610746836107418461073c90612f56565b611045565b610e35565b905092915050565b60608161075a90612f69565b60006107b17f6bdaeb2d29561f159c7ef98b16b27015fb2aeb87209c7ee656226d912f59927d8360000151604051602001610796929190612f7c565b6040516020818303038152906040528051906020012061105b565b905060006107c3828460200151611075565b90503373ffffffffffffffffffffffffffffffffffffffff168173ffffffffffffffffffffffffffffffffffffffff161461082a576040517f3093a27700000000000000000000000000000000000000000000000000000000815260040160405180910390fd5b61084161083733886110a1565b8660000135611128565b935050505092915050565b6060818360006108a77f6bdaeb2d29561f159c7ef98b16b27015fb2aeb87209c7ee656226d912f59927d846000015160405160200161088c929190612f7c565b6040516020818303038152906040528051906020012061105b565b905060006108b9828560200151611075565b90508273ffffffffffffffffffffffffffffffffffffffff168173ffffffffffffffffffffffffffffffffffffffff1614610920576040517f51c65eae00000000000000000000000000000000000000000000000000000000815260040160405180910390fd5b6109768660000151600260008a73ffffffffffffffffffffffffffffffffffffffff1673ffffffffffffffffffffffffffffffffffffffff1681526020019081526020016000205461115e90919063ffffffff16565b94505050505092915050565b60006109938263ffffffff16611172565b905060006109fc6109ec83600260003373ffffffffffffffffffffffffffffffffffffffff1673ffffffffffffffffffffffffffffffffffffffff1681526020019081526020016000205461118690919063ffffffff16565b836109f76000611172565b61119a565b9050610a47600260003373ffffffffffffffffffffffffffffffffffffffff1673ffffffffffffffffffffffffffffffffffffffff1681526020019081526020016000205482611218565b600260003373ffffffffffffffffffffffffffffffffffffffff1673ffffffffffffffffffffffffffffffffffffffff16815260200190815260200160002081905550610a9660045482611218565b600481905550610ab433610aa98361122c565b63ffffffff166112ef565b505050565b60006387a211a2600c52816000526020600c20549050919050565b60006338377508600c52816000526020600c20549050919050565b600060608060008060006060610b03611386565b610b0b6113c1565b46306000801b600067ffffffffffffffff811115610b2c57610b2b612812565b5b604051908082528060200260200182016040528015610b5a5781602001602082028036833780820191505090505b507f0f00000000000000000000000000000000000000000000000000000000000000959493929190965096509650965096509650965090919293949596565b600080610bae83610ba990612f56565b611045565b90506000610bbd8633846113fc565b9050610bca868683611439565b5080925050509392505050565b606060068054610be690612ecd565b80601f0160208091040260200160405190810160405280929190818152602001828054610c1290612ecd565b8015610c5f5780601f10610c3457610100808354040283529160200191610c5f565b820191906000526020600020905b815481529060010190602001808311610c4257829003601f168201915b5050505050905090565b8063ffffffff16610c7933610ab9565b1015610cb1576040517ffda7bbda00000000000000000000000000000000000000000000000000000000815260040160405180910390fd5b610cc1338263ffffffff166115c6565b6000610cd28263ffffffff16611172565b9050610d1d600260003373ffffffffffffffffffffffffffffffffffffffff1673ffffffffffffffffffffffffffffffffffffffff168152602001908152602001600020548261165d565b600260003373ffffffffffffffffffffffffffffffffffffffff1673ffffffffffffffffffffffffffffffffffffffff16815260200190815260200160002081905550610d6c6004548261165d565b6004819055505050565b6000610d83338484611036565b6387a211a2600c52336000526020600c20805480841115610dac5763f4d678b86000526004601cfd5b8381038255846000526020600c2084815401815584602052600c5160601c337fddf252ad1be2c89b69c2b068fc378daa952ba7f163c4a11628f55a4df523b3ef602080a3505050610dfe33848461103b565b6001905092915050565b6000808290506000610e1b8633846113fc565b9050610e28868683611439565b5080925050509392505050565b6000610e42338484611439565b905092915050565b6000610e54611040565b90506000801b8103610e7257610e686104c5565b8051906020012090505b84421115610e8857631a15a3cc6000526004601cfd5b6040518860601b60601c98508760601b60601c975065383775081901600e52886000526020600c2080547f8b73c3c69bb8fe3d512ecc4cf759cc79239f7b179b0ffacaa9a75d522b39400f83528360208401527fc89efdaa54c0f20c7adf612882df0950f5a951637e0307cdcb4c672f298b8bc6604084015246606084015230608084015260a08320602e527f6e71edae12b1b97f4d1f60370fef10105fa2faae0126114a169c64845d6126c983528a60208401528960408401528860608401528060808401528760a084015260c08320604e526042602c206000528660ff1660205285604052846060526020806080600060015afa8b3d5114610f945763ddafbaef6000526004601cfd5b80820183558a637f5e9f2060a01b17604052896034602c20558a8c7f8c5be1e5ebec7d5bd14f71427d1e84f3dd0314c0f7b2291e5b200ac8c7c3b925602060608801a3836040526000606052505050505050505050505050565b600061100c33846110078561100290612f56565b611045565b611671565b6001905092915050565b600081602052637f5e9f20600c52826000526034600c2054905092915050565b505050565b505050565b600090565b600061105482600001516117db565b9050919050565b600061106e6110686117ef565b836118a6565b9050919050565b60008060008061108586866118e7565b9250925092506110958282611943565b82935050505092915050565b6000600360008473ffffffffffffffffffffffffffffffffffffffff1673ffffffffffffffffffffffffffffffffffffffff16815260200190815260200160002060008373ffffffffffffffffffffffffffffffffffffffff1673ffffffffffffffffffffffffffffffffffffffff16815260200190815260200160002054905092915050565b606061113383611aa7565b611144576111416000611172565b92505b600083905061115560028285611ab4565b91505092915050565b606061116a8383611128565b905092915050565b600061117f826002611b6a565b9050919050565b60006111928383611c0c565b905092915050565b60006111a584611c85565b6111b6576111b36000611c92565b93505b6111bf83611aa7565b6111d0576111cd6000611172565b92505b6111d982611aa7565b6111ea576111e76000611172565b91505b60008490506000849050600084905060006112086002858585611ca6565b9050809450505050509392505050565b60006112248383611d5e565b905092915050565b600061123782611aa7565b611248576112456000611172565b91505b6000829050600061125882611dd7565b90506000608073ffffffffffffffffffffffffffffffffffffffff166373cc01546002846040518363ffffffff1660e01b8152600401611299929190612ffa565b602060405180830381865afa1580156112b6573d6000803e3d6000fd5b505050506040513d601f19601f820116820180604052508101906112da919061303f565b90506112e581611e34565b9350505050919050565b6112fb60008383611036565b6805345cdf77eb68f44c548181018181101561131f5763e5cfe9576000526004601cfd5b806805345cdf77eb68f44c556387a211a2600c52836000526020600c2083815401815583602052600c5160601c60007fddf252ad1be2c89b69c2b068fc378daa952ba7f163c4a11628f55a4df523b3ef602080a35050506113826000838361103b565b5050565b60606113bc60007f0000000000000000000000000000000000000000000000000000000000000000611e3e90919063ffffffff16565b905090565b60606113f760017f0000000000000000000000000000000000000000000000000000000000000000611e3e90919063ffffffff16565b905090565b60008061140985856110a1565b905060006114178285611eee565b905061142d86866114288585611218565b611671565b80925050509392505050565b6000806114a1611491600260008873ffffffffffffffffffffffffffffffffffffffff1673ffffffffffffffffffffffffffffffffffffffff1681526020019081526020016000205485611f6790919063ffffffff16565b8461149c6000611172565b61119a565b90506114ec600260008673ffffffffffffffffffffffffffffffffffffffff1673ffffffffffffffffffffffffffffffffffffffff168152602001908152602001600020548261165d565b600260008673ffffffffffffffffffffffffffffffffffffffff1673ffffffffffffffffffffffffffffffffffffffff16815260200190815260200160002081905550611578600260008773ffffffffffffffffffffffffffffffffffffffff1673ffffffffffffffffffffffffffffffffffffffff1681526020019081526020016000205482611218565b600260008773ffffffffffffffffffffffffffffffffffffffff1673ffffffffffffffffffffffffffffffffffffffff16815260200190815260200160002081905550809150509392505050565b6115d282600083611036565b6387a211a2600c52816000526020600c208054808311156115fb5763f4d678b86000526004601cfd5b8281038255826805345cdf77eb68f44c54036805345cdf77eb68f44c558260005260008460601b60601c7fddf252ad1be2c89b69c2b068fc378daa952ba7f163c4a11628f55a4df523b3ef60206000a350506116598260008361103b565b5050565b60006116698383611f7b565b905092915050565b600073ffffffffffffffffffffffffffffffffffffffff168373ffffffffffffffffffffffffffffffffffffffff16036116e35760006040517fe602df050000000000000000000000000000000000000000000000000000000081526004016116da919061306c565b60405180910390fd5b600073ffffffffffffffffffffffffffffffffffffffff168273ffffffffffffffffffffffffffffffffffffffff16036117555760006040517f94280d6200000000000000000000000000000000000000000000000000000000815260040161174c919061306c565b60405180910390fd5b80600360008573ffffffffffffffffffffffffffffffffffffffff1673ffffffffffffffffffffffffffffffffffffffff16815260200190815260200160002060008473ffffffffffffffffffffffffffffffffffffffff1673ffffffffffffffffffffffffffffffffffffffff16815260200190815260200160002081905550505050565b60006117e8826002611ff3565b9050919050565b60007f000000000000000000000000000000000000000000000000000000000000000073ffffffffffffffffffffffffffffffffffffffff163073ffffffffffffffffffffffffffffffffffffffff1614801561186b57507f000000000000000000000000000000000000000000000000000000000000000046145b15611898577f000000000000000000000000000000000000000000000000000000000000000090506118a3565b6118a061208d565b90505b90565b60006040517f190100000000000000000000000000000000000000000000000000000000000081528360028201528260228201526042812091505092915050565b6000806000604184510361192c5760008060006020870151925060408701519150606087015160001a905061191e88828585612123565b95509550955050505061193c565b60006002855160001b9250925092505b9250925092565b6000600381111561195757611956613087565b5b82600381111561196a57611969613087565b5b0315611aa3576001600381111561198457611983613087565b5b82600381111561199757611996613087565b5b036119ce576040517ff645eedf00000000000000000000000000000000000000000000000000000000815260040160405180910390fd5b600260038111156119e2576119e1613087565b5b8260038111156119f5576119f4613087565b5b03611a3a578060001c6040517ffce698f7000000000000000000000000000000000000000000000000000000008152600401611a3191906125e3565b60405180910390fd5b600380811115611a4d57611a4c613087565b5b826003811115611a6057611a5f613087565b5b03611aa257806040517fd78bce0c000000000000000000000000000000000000000000000000000000008152600401611a9991906126a1565b60405180910390fd5b5b5050565b6000808214159050919050565b6060608073ffffffffffffffffffffffffffffffffffffffff1663a1848ff385611add86611dd7565b85604051602001611aee91906130d7565b6040516020818303038152906040526040518463ffffffff1660e01b8152600401611b1b939291906130f2565b600060405180830381865afa158015611b38573d6000803e3d6000fd5b505050506040513d6000823e3d601f19601f82011682018060405250810190611b6191906131d8565b90509392505050565b60006060608073ffffffffffffffffffffffffffffffffffffffff166319e1c5c4611b9486611dd7565b856040518363ffffffff1660e01b8152600401611bb2929190613221565b600060405180830381865afa158015611bcf573d6000803e3d6000fd5b505050506040513d6000823e3d601f19601f82011682018060405250810190611bf891906132c1565b9050611c0381612217565b91505092915050565b6000611c1783611aa7565b611c2857611c256000611172565b92505b611c3182611aa7565b611c4257611c3f6000611172565b91505b600083905060008390506000611c7760028484608073ffffffffffffffffffffffffffffffffffffffff1663650de1cf612225565b905080935050505092915050565b6000808214159050919050565b6000611c9f82600d611b6a565b9050919050565b60006060608073ffffffffffffffffffffffffffffffffffffffff1663c2d9695287611cd188611dd7565b611cda88611dd7565b611ce388611dd7565b6040518563ffffffff1660e01b8152600401611d02949392919061330a565b600060405180830381865afa158015611d1f573d6000803e3d6000fd5b505050506040513d6000823e3d601f19601f82011682018060405250810190611d4891906132c1565b9050611d5381612217565b915050949350505050565b6000611d6983611aa7565b611d7a57611d776000611172565b92505b611d8382611aa7565b611d9457611d916000611172565b91505b600083905060008390506000611dc960028484608073ffffffffffffffffffffffffffffffffffffffff1663cc2cbeff612225565b905080935050505092915050565b6060602067ffffffffffffffff811115611df457611df3612812565b5b6040519080825280601f01601f191660200182016040528015611e265781602001600182028036833780820191505090505b509050816020820152919050565b6000819050919050565b606060ff60001b8314611e5b57611e54836122b9565b9050611ee8565b818054611e6790612ecd565b80601f0160208091040260200160405190810160405280929190818152602001828054611e9390612ecd565b8015611ee05780601f10611eb557610100808354040283529160200191611ee0565b820191906000526020600020905b815481529060010190602001808311611ec357829003601f168201915b505050505090505b92915050565b6000611ef983611aa7565b611f0a57611f076000611172565b92505b611f1382611aa7565b611f2457611f216000611172565b91505b600083905060008390506000611f5960028484608073ffffffffffffffffffffffffffffffffffffffff16635211c679612225565b905080935050505092915050565b6000611f73838361232d565b905092915050565b6000611f8683611aa7565b611f9757611f946000611172565b92505b611fa082611aa7565b611fb157611fae6000611172565b91505b600083905060008390506000611fe560028484608073ffffffffffffffffffffffffffffffffffffffff16622df619612225565b905080935050505092915050565b60006060608073ffffffffffffffffffffffffffffffffffffffff16635fa55ca784866040518363ffffffff1660e01b8152600401612033929190612ffa565b600060405180830381865afa158015612050573d6000803e3d6000fd5b505050506040513d6000823e3d601f19601f8201168201806040525081019061207991906132c1565b905061208481612217565b91505092915050565b60007f8b73c3c69bb8fe3d512ecc4cf759cc79239f7b179b0ffacaa9a75d522b39400f7f00000000000000000000000000000000000000000000000000000000000000007f00000000000000000000000000000000000000000000000000000000000000004630604051602001612108959493929190613364565b60405160208183030381529060405280519060200120905090565b60008060007f7fffffffffffffffffffffffffffffff5d576e7357a4501ddfe92f46681b20a08460001c111561216357600060038592509250925061220d565b60006001888888886040516000815260200160405260405161218894939291906133b7565b6020604051602081039080840390855afa1580156121aa573d6000803e3d6000fd5b505050602060405103519050600073ffffffffffffffffffffffffffffffffffffffff168173ffffffffffffffffffffffffffffffffffffffff16036121fe57600060016000801b9350935093505061220d565b8060008060001b935093509350505b9450945094915050565b600060208201519050919050565b6000606083838861223589611dd7565b61223e89611dd7565b6040518463ffffffff1660e01b815260040161225c939291906130f2565b600060405180830381865afa158015612279573d6000803e3d6000fd5b505050506040513d6000823e3d601f19601f820116820180604052508101906122a291906132c1565b90506122ad816123a6565b91505095945050505050565b606060006122c6836123b4565b90506000602067ffffffffffffffff8111156122e5576122e4612812565b5b6040519080825280601f01601f1916602001820160405280156123175781602001600182028036833780820191505090505b5090508181528360208201528092505050919050565b600061233883611aa7565b612349576123466000611172565b92505b61235282611aa7565b612363576123606000611172565b91505b60008390506000839050600061239860028484608073ffffffffffffffffffffffffffffffffffffffff1663eb274b77612225565b905080935050505092915050565b600060208201519050919050565b60008060ff8360001c169050601f8111156123fb576040517fb3512b0c00000000000000000000000000000000000000000000000000000000815260040160405180910390fd5b80915050919050565b600081519050919050565b600082825260208201905092915050565b60005b8381101561243e578082015181840152602081019050612423565b60008484015250505050565b6000601f19601f8301169050919050565b600061246682612404565b612470818561240f565b9350612480818560208601612420565b6124898161244a565b840191505092915050565b600060208201905081810360008301526124ae818461245b565b905092915050565b6000604051905090565b600080fd5b600080fd5b600073ffffffffffffffffffffffffffffffffffffffff82169050919050565b60006124f5826124ca565b9050919050565b612505816124ea565b811461251057600080fd5b50565b600081359050612522816124fc565b92915050565b6000819050919050565b61253b81612528565b811461254657600080fd5b50565b60008135905061255881612532565b92915050565b60008060408385031215612575576125746124c0565b5b600061258385828601612513565b925050602061259485828601612549565b9150509250929050565b60008115159050919050565b6125b38161259e565b82525050565b60006020820190506125ce60008301846125aa565b92915050565b6125dd81612528565b82525050565b60006020820190506125f860008301846125d4565b92915050565b600080600060608486031215612617576126166124c0565b5b600061262586828701612513565b935050602061263686828701612513565b925050604061264786828701612549565b9150509250925092565b600060ff82169050919050565b61266781612651565b82525050565b6000602082019050612682600083018461265e565b92915050565b6000819050919050565b61269b81612688565b82525050565b60006020820190506126b66000830184612692565b92915050565b600080fd5b6000602082840312156126d7576126d66126bc565b5b81905092915050565b600080604083850312156126f7576126f66124c0565b5b600061270585828601612513565b925050602083013567ffffffffffffffff811115612726576127256124c5565b5b612732858286016126c1565b9150509250929050565b6000819050919050565b600061276161275c61275784612528565b61273c565b612528565b9050919050565b61277181612746565b82525050565b600060208201905061278c6000830184612768565b92915050565b6000604082840312156127a8576127a76126bc565b5b81905092915050565b600080604083850312156127c8576127c76124c0565b5b60006127d685828601612513565b925050602083013567ffffffffffffffff8111156127f7576127f66124c5565b5b61280385828601612792565b9150509250929050565b600080fd5b7f4e487b7100000000000000000000000000000000000000000000000000000000600052604160045260246000fd5b61284a8261244a565b810181811067ffffffffffffffff8211171561286957612868612812565b5b80604052505050565b600061287c6124b6565b90506128888282612841565b919050565b600080fd5b61289b81612688565b81146128a657600080fd5b50565b6000813590506128b881612892565b92915050565b600080fd5b600080fd5b600067ffffffffffffffff8211156128e3576128e2612812565b5b6128ec8261244a565b9050602081019050919050565b82818337600083830152505050565b600061291b612916846128c8565b612872565b905082815260208101848484011115612937576129366128c3565b5b6129428482856128f9565b509392505050565b600082601f83011261295f5761295e6128be565b5b813561296f848260208601612908565b91505092915050565b60006040828403121561298e5761298d61280d565b5b6129986040612872565b905060006129a8848285016128a9565b600083015250602082013567ffffffffffffffff8111156129cc576129cb61288d565b5b6129d88482850161294a565b60208301525092915050565b600080604083850312156129fb576129fa6124c0565b5b6000612a0985828601612513565b925050602083013567ffffffffffffffff811115612a2a57612a296124c5565b5b612a3685828601612978565b9150509250929050565b600063ffffffff82169050919050565b612a5981612a40565b8114612a6457600080fd5b50565b600081359050612a7681612a50565b92915050565b600060208284031215612a9257612a916124c0565b5b6000612aa084828501612a67565b91505092915050565b600060208284031215612abf57612abe6124c0565b5b6000612acd84828501612513565b91505092915050565b60007fff0000000000000000000000000000000000000000000000000000000000000082169050919050565b612b0b81612ad6565b82525050565b612b1a816124ea565b82525050565b600081519050919050565b600082825260208201905092915050565b6000819050602082019050919050565b612b5581612528565b82525050565b6000612b678383612b4c565b60208301905092915050565b6000602082019050919050565b6000612b8b82612b20565b612b958185612b2b565b9350612ba083612b3c565b8060005b83811015612bd1578151612bb88882612b5b565b9750612bc383612b73565b925050600181019050612ba4565b5085935050505092915050565b600060e082019050612bf3600083018a612b02565b8181036020830152612c05818961245b565b90508181036040830152612c19818861245b565b9050612c2860608301876125d4565b612c356080830186612b11565b612c4260a0830185612692565b81810360c0830152612c548184612b80565b905098975050505050505050565b600080600060608486031215612c7b57612c7a6124c0565b5b6000612c8986828701612513565b9350506020612c9a86828701612513565b925050604084013567ffffffffffffffff811115612cbb57612cba6124c5565b5b612cc7868287016126c1565b9150509250925092565b612cda81612528565b8114612ce557600080fd5b50565b600081359050612cf781612cd1565b92915050565b600080600060608486031215612d1657612d156124c0565b5b6000612d2486828701612513565b9350506020612d3586828701612513565b9250506040612d4686828701612ce8565b9150509250925092565b60008060408385031215612d6757612d666124c0565b5b6000612d7585828601612513565b9250506020612d8685828601612ce8565b9150509250929050565b612d9981612651565b8114612da457600080fd5b50565b600081359050612db681612d90565b92915050565b600080600080600080600060e0888a031215612ddb57612dda6124c0565b5b6000612de98a828b01612513565b9750506020612dfa8a828b01612513565b9650506040612e0b8a828b01612549565b9550506060612e1c8a828b01612549565b9450506080612e2d8a828b01612da7565b93505060a0612e3e8a828b016128a9565b92505060c0612e4f8a828b016128a9565b91505092959891949750929550565b60008060408385031215612e7557612e746124c0565b5b6000612e8385828601612513565b9250506020612e9485828601612513565b9150509250929050565b7f4e487b7100000000000000000000000000000000000000000000000000000000600052602260045260246000fd5b60006002820490506001821680612ee557607f821691505b602082108103612ef857612ef7612e9e565b5b50919050565b600060208284031215612f1457612f1361280d565b5b612f1e6020612872565b9050600082013567ffffffffffffffff811115612f3e57612f3d61288d565b5b612f4a8482850161294a565b60008301525092915050565b6000612f623683612efe565b9050919050565b6000612f753683612978565b9050919050565b6000604082019050612f916000830185612692565b612f9e6020830184612692565b9392505050565b600081519050919050565b600082825260208201905092915050565b6000612fcc82612fa5565b612fd68185612fb0565b9350612fe6818560208601612420565b612fef8161244a565b840191505092915050565b600060408201905061300f600083018561265e565b81810360208301526130218184612fc1565b90509392505050565b60008151905061303981612532565b92915050565b600060208284031215613055576130546124c0565b5b60006130638482850161302a565b91505092915050565b60006020820190506130816000830184612b11565b92915050565b7f4e487b7100000000000000000000000000000000000000000000000000000000600052602160045260246000fd5b6000819050919050565b6130d16130cc82612688565b6130b6565b82525050565b60006130e382846130c0565b60208201915081905092915050565b6000606082019050613107600083018661265e565b81810360208301526131198185612fc1565b9050818103604083015261312d8184612fc1565b9050949350505050565b600067ffffffffffffffff82111561315257613151612812565b5b61315b8261244a565b9050602081019050919050565b600061317b61317684613137565b612872565b905082815260208101848484011115613197576131966128c3565b5b6131a2848285612420565b509392505050565b600082601f8301126131bf576131be6128be565b5b81516131cf848260208601613168565b91505092915050565b6000602082840312156131ee576131ed6124c0565b5b600082015167ffffffffffffffff81111561320c5761320b6124c5565b5b613218848285016131aa565b91505092915050565b6000604082019050818103600083015261323b8185612fc1565b905061324a602083018461265e565b9392505050565b600061326461325f846128c8565b612872565b9050828152602081018484840111156132805761327f6128c3565b5b61328b848285612420565b509392505050565b600082601f8301126132a8576132a76128be565b5b81516132b8848260208601613251565b91505092915050565b6000602082840312156132d7576132d66124c0565b5b600082015167ffffffffffffffff8111156132f5576132f46124c5565b5b61330184828501613293565b91505092915050565b600060808201905061331f600083018761265e565b81810360208301526133318186612fc1565b905081810360408301526133458185612fc1565b905081810360608301526133598184612fc1565b905095945050505050565b600060a0820190506133796000830188612692565b6133866020830187612692565b6133936040830186612692565b6133a060608301856125d4565b6133ad6080830184612b11565b9695505050505050565b60006080820190506133cc6000830187612692565b6133d9602083018661265e565b6133e66040830185612692565b6133f36060830184612692565b9594505050505056fea26469706673582212206999aac1c1a78e07b057cf816e3f5f6d0fa3599f5e1c86ab42aa95c8960d94b164736f6c63430008180033",
  "devdoc": {
    "errors": {
      "AllowanceOverflow()": [
        {
          "details": "The allowance has overflowed."
        }
      ],
      "AllowanceUnderflow()": [
        {
          "details": "The allowance has underflowed."
        }
      ],
      "ECDSAInvalidSignature()": [
        {
          "details": "The signature derives the `address(0)`."
        }
      ],
      "ECDSAInvalidSignatureLength(uint256)": [
        {
          "details": "The signature has an invalid length."
        }
      ],
      "ECDSAInvalidSignatureS(bytes32)": [
        {
          "details": "The signature has an S value that is in the upper half order."
        }
      ],
      "InsufficientAllowance()": [
        {
          "details": "Insufficient allowance."
        }
      ],
      "InsufficientBalance()": [
        {
          "details": "Insufficient balance."
        }
      ],
      "InvalidPermit()": [
        {
          "details": "The permit is invalid."
        }
      ],
      "PermitExpired()": [
        {
          "details": "The permit has expired."
        }
      ],
      "TotalSupplyOverflow()": [
        {
          "details": "The total supply has overflowed."
        }
      ]
    },
    "events": {
      "Approval(address,address,uint256)": {
        "details": "Emitted when `amount` tokens is approved by `owner` to be used by `spender`."
      },
      "ApprovalEncrypted(address,address)": {
        "details": "Emitted when the allowance of a `spender` for an `owner` is set by a call to {approveEncrypted}. `value` is the new allowance."
      },
      "EIP712DomainChanged()": {
        "details": "MAY be emitted to signal that the domain could have changed."
      },
      "Transfer(address,address,uint256)": {
        "details": "Emitted when `amount` tokens is transferred from `from` to `to`."
      },
      "TransferEncrypted(address,address)": {
        "details": "Emitted when `value` tokens are moved from one account (`from`) to another (`to`). Note that `value` may be zero."
      }
    },
    "kind": "dev",
    "methods": {
      "DOMAIN_SEPARATOR()": {
        "details": "Returns the EIP-712 domain separator for the EIP-2612 permit."
      },
      "allowance(address,address)": {
        "details": "Returns the amount of tokens that `spender` can spend on behalf of `owner`."
      },
      "allowanceEncrypted(address,(bytes32,bytes))": {
        "details": "Returns the remaining number of tokens that `spender` will be allowed to spend on behalf of `owner` through {transferFrom}. This is zero by default. This value changes when {approve} or {transferFrom} are called."
      },
      "approve(address,uint256)": {
        "details": "Sets `amount` as the allowance of `spender` over the caller's tokens. Emits a {Approval} event."
      },
      "approveEncrypted(address,(bytes))": {
        "details": "Sets a `value` amount of tokens as the allowance of `spender` over the caller's tokens. Returns a boolean value indicating whether the operation succeeded. IMPORTANT: Beware that changing an allowance with this method brings the risk that someone may use both the old and the new allowance by unfortunate transaction ordering. One possible solution to mitigate this race condition is to first reduce the spender's allowance to 0 and set the desired value afterwards: https://github.com/ethereum/EIPs/issues/20#issuecomment-263524729 Emits an {ApprovalEncrypted} event."
      },
      "balanceOf(address)": {
        "details": "Returns the amount of tokens owned by `owner`."
      },
      "balanceOfEncrypted(address,(bytes32,bytes))": {
        "details": "Returns the value of tokens owned by `account`, sealed and encrypted for the caller."
      },
      "decimals()": {
        "details": "Returns the decimals places of the token."
      },
      "eip712Domain()": {
        "details": "See {IERC-5267}."
      },
      "name()": {
        "details": "Returns the name of the token."
      },
      "nonces(address)": {
        "details": "Returns the current nonce for `owner`. This value is used to compute the signature for EIP-2612 permit."
      },
      "permit(address,address,uint256,uint256,uint8,bytes32,bytes32)": {
        "details": "Sets `value` as the allowance of `spender` over the tokens of `owner`, authorized by a signed approval by `owner`. Emits a {Approval} event."
      },
      "symbol()": {
        "details": "Returns the symbol of the token."
      },
      "totalSupply()": {
        "details": "Returns the amount of tokens in existence."
      },
      "transfer(address,uint256)": {
        "details": "Transfer `amount` tokens from the caller to `to`. Requirements: - `from` must at least have `amount`. Emits a {Transfer} event."
      },
      "transferFrom(address,address,uint256)": {
        "details": "Transfers `amount` tokens from `from` to `to`. Note: Does not update the allowance if it is the maximum uint256 value. Requirements: - `from` must at least have `amount`. - The caller must have at least `amount` of allowance to transfer the tokens of `from`. Emits a {Transfer} event."
      },
      "transferFromEncrypted(address,address,(bytes))": {
        "details": "Moves a `value` amount of tokens from `from` to `to` using the allowance mechanism. `value` is then deducted from the caller's allowance. Returns a boolean value indicating whether the operation succeeded. Emits a {TransferEncrypted} event."
      }
    },
    "version": 1
  },
  "userdoc": {
    "errors": {
      "SignerNotMessageSender()": [
        {
          "notice": "Emitted when the signer is not the message sender"
        }
      ],
      "SignerNotOwner()": [
        {
          "notice": "Emitted when the signer is not the specified owner"
        }
      ]
    },
    "kind": "user",
    "methods": {},
    "version": 1
  },
  "storageLayout": {
    "storage": [
      {
        "astId": 16568,
        "contract": "contracts/FakeFGZ.sol:FakeFGZ",
        "label": "_nameFallback",
        "offset": 0,
        "slot": "0",
        "type": "t_string_storage"
      },
      {
        "astId": 16570,
        "contract": "contracts/FakeFGZ.sol:FakeFGZ",
        "label": "_versionFallback",
        "offset": 0,
        "slot": "1",
        "type": "t_string_storage"
      },
      {
        "astId": 20505,
        "contract": "contracts/FakeFGZ.sol:FakeFGZ",
        "label": "_encBalances",
        "offset": 0,
        "slot": "2",
        "type": "t_mapping(t_address,t_userDefinedValueType(euint32)12)"
      },
      {
        "astId": 20512,
        "contract": "contracts/FakeFGZ.sol:FakeFGZ",
        "label": "_allowed",
        "offset": 0,
        "slot": "3",
        "type": "t_mapping(t_address,t_mapping(t_address,t_userDefinedValueType(euint32)12))"
      },
      {
        "astId": 20519,
        "contract": "contracts/FakeFGZ.sol:FakeFGZ",
        "label": "totalEncryptedSupply",
        "offset": 0,
        "slot": "4",
        "type": "t_userDefinedValueType(euint32)12"
      },
      {
        "astId": 20521,
        "contract": "contracts/FakeFGZ.sol:FakeFGZ",
        "label": "_name",
        "offset": 0,
        "slot": "5",
        "type": "t_string_storage"
      },
      {
        "astId": 20523,
        "contract": "contracts/FakeFGZ.sol:FakeFGZ",
        "label": "_symbol",
        "offset": 0,
        "slot": "6",
        "type": "t_string_storage"
      }
    ],
    "types": {
      "t_address": {
        "encoding": "inplace",
        "label": "address",
        "numberOfBytes": "20"
      },
      "t_mapping(t_address,t_mapping(t_address,t_userDefinedValueType(euint32)12))": {
        "encoding": "mapping",
        "key": "t_address",
        "label": "mapping(address => mapping(address => euint32))",
        "numberOfBytes": "32",
        "value": "t_mapping(t_address,t_userDefinedValueType(euint32)12)"
      },
      "t_mapping(t_address,t_userDefinedValueType(euint32)12)": {
        "encoding": "mapping",
        "key": "t_address",
        "label": "mapping(address => euint32)",
        "numberOfBytes": "32",
        "value": "t_userDefinedValueType(euint32)12"
      },
      "t_string_storage": {
        "encoding": "bytes",
        "label": "string",
        "numberOfBytes": "32"
      },
      "t_userDefinedValueType(euint32)12": {
        "encoding": "inplace",
        "label": "euint32",
        "numberOfBytes": "32"
      }
    }
  }
}