{
  "address": "0xB170fC5BAC4a87A63fC84653Ee7e0db65CC62f96",
  "abi": [
    {
      "inputs": [
        {
          "components": [
            {
              "internalType": "bytes",
              "name": "data",
              "type": "bytes"
            }
          ],
          "internalType": "struct inEuint32",
          "name": "_initialSupply",
          "type": "tuple"
        }
      ],
      "stateMutability": "nonpayable",
      "type": "constructor"
    },
    {
      "inputs": [],
      "name": "AllowanceOverflow",
      "type": "error"
    },
    {
      "inputs": [],
      "name": "AllowanceUnderflow",
      "type": "error"
    },
    {
      "inputs": [],
      "name": "ECDSAInvalidSignature",
      "type": "error"
    },
    {
      "inputs": [
        {
          "internalType": "uint256",
          "name": "length",
          "type": "uint256"
        }
      ],
      "name": "ECDSAInvalidSignatureLength",
      "type": "error"
    },
    {
      "inputs": [
        {
          "internalType": "bytes32",
          "name": "s",
          "type": "bytes32"
        }
      ],
      "name": "ECDSAInvalidSignatureS",
      "type": "error"
    },
    {
      "inputs": [
        {
          "internalType": "address",
          "name": "",
          "type": "address"
        }
      ],
      "name": "ERC20InvalidApprover",
      "type": "error"
    },
    {
      "inputs": [
        {
          "internalType": "address",
          "name": "",
          "type": "address"
        }
      ],
      "name": "ERC20InvalidSpender",
      "type": "error"
    },
    {
      "inputs": [],
      "name": "ErrorInsufficientFunds",
      "type": "error"
    },
    {
      "inputs": [],
      "name": "InsufficientAllowance",
      "type": "error"
    },
    {
      "inputs": [],
      "name": "InsufficientBalance",
      "type": "error"
    },
    {
      "inputs": [],
      "name": "InvalidPermit",
      "type": "error"
    },
    {
      "inputs": [],
      "name": "InvalidShortString",
      "type": "error"
    },
    {
      "inputs": [],
      "name": "PermitExpired",
      "type": "error"
    },
    {
      "inputs": [],
      "name": "SignerNotMessageSender",
      "type": "error"
    },
    {
      "inputs": [],
      "name": "SignerNotOwner",
      "type": "error"
    },
    {
      "inputs": [
        {
          "internalType": "string",
          "name": "str",
          "type": "string"
        }
      ],
      "name": "StringTooLong",
      "type": "error"
    },
    {
      "inputs": [],
      "name": "TotalSupplyOverflow",
      "type": "error"
    },
    {
      "anonymous": false,
      "inputs": [
        {
          "indexed": true,
          "internalType": "address",
          "name": "owner",
          "type": "address"
        },
        {
          "indexed": true,
          "internalType": "address",
          "name": "spender",
          "type": "address"
        },
        {
          "indexed": false,
          "internalType": "uint256",
          "name": "amount",
          "type": "uint256"
        }
      ],
      "name": "Approval",
      "type": "event"
    },
    {
      "anonymous": false,
      "inputs": [
        {
          "indexed": true,
          "internalType": "address",
          "name": "owner",
          "type": "address"
        },
        {
          "indexed": true,
          "internalType": "address",
          "name": "spender",
          "type": "address"
        }
      ],
      "name": "ApprovalEncrypted",
      "type": "event"
    },
    {
      "anonymous": false,
      "inputs": [],
      "name": "EIP712DomainChanged",
      "type": "event"
    },
    {
      "anonymous": false,
      "inputs": [
        {
          "indexed": true,
          "internalType": "address",
          "name": "from",
          "type": "address"
        },
        {
          "indexed": true,
          "internalType": "address",
          "name": "to",
          "type": "address"
        },
        {
          "indexed": false,
          "internalType": "uint256",
          "name": "amount",
          "type": "uint256"
        }
      ],
      "name": "Transfer",
      "type": "event"
    },
    {
      "anonymous": false,
      "inputs": [
        {
          "indexed": true,
          "internalType": "address",
          "name": "from",
          "type": "address"
        },
        {
          "indexed": true,
          "internalType": "address",
          "name": "to",
          "type": "address"
        }
      ],
      "name": "TransferEncrypted",
      "type": "event"
    },
    {
      "inputs": [],
      "name": "DOMAIN_SEPARATOR",
      "outputs": [
        {
          "internalType": "bytes32",
          "name": "result",
          "type": "bytes32"
        }
      ],
      "stateMutability": "view",
      "type": "function"
    },
    {
      "inputs": [
        {
          "internalType": "address",
          "name": "owner",
          "type": "address"
        },
        {
          "internalType": "address",
          "name": "spender",
          "type": "address"
        }
      ],
      "name": "allowance",
      "outputs": [
        {
          "internalType": "uint256",
          "name": "result",
          "type": "uint256"
        }
      ],
      "stateMutability": "view",
      "type": "function"
    },
    {
      "inputs": [
        {
          "internalType": "address",
          "name": "spender",
          "type": "address"
        },
        {
          "components": [
            {
              "internalType": "bytes32",
              "name": "publicKey",
              "type": "bytes32"
            },
            {
              "internalType": "bytes",
              "name": "signature",
              "type": "bytes"
            }
          ],
          "internalType": "struct Permission",
          "name": "permission",
          "type": "tuple"
        }
      ],
      "name": "allowanceEncrypted",
      "outputs": [
        {
          "internalType": "string",
          "name": "",
          "type": "string"
        }
      ],
      "stateMutability": "view",
      "type": "function"
    },
    {
      "inputs": [
        {
          "internalType": "address",
          "name": "spender",
          "type": "address"
        },
        {
          "internalType": "uint256",
          "name": "amount",
          "type": "uint256"
        }
      ],
      "name": "approve",
      "outputs": [
        {
          "internalType": "bool",
          "name": "",
          "type": "bool"
        }
      ],
      "stateMutability": "nonpayable",
      "type": "function"
    },
    {
      "inputs": [
        {
          "internalType": "address",
          "name": "spender",
          "type": "address"
        },
        {
          "components": [
            {
              "internalType": "bytes",
              "name": "data",
              "type": "bytes"
            }
          ],
          "internalType": "struct inEuint32",
          "name": "value",
          "type": "tuple"
        }
      ],
      "name": "approveEncrypted",
      "outputs": [
        {
          "internalType": "bool",
          "name": "",
          "type": "bool"
        }
      ],
      "stateMutability": "nonpayable",
      "type": "function"
    },
    {
      "inputs": [
        {
          "internalType": "address",
          "name": "owner",
          "type": "address"
        }
      ],
      "name": "balanceOf",
      "outputs": [
        {
          "internalType": "uint256",
          "name": "result",
          "type": "uint256"
        }
      ],
      "stateMutability": "view",
      "type": "function"
    },
    {
      "inputs": [
        {
          "internalType": "address",
          "name": "account",
          "type": "address"
        },
        {
          "components": [
            {
              "internalType": "bytes32",
              "name": "publicKey",
              "type": "bytes32"
            },
            {
              "internalType": "bytes",
              "name": "signature",
              "type": "bytes"
            }
          ],
          "internalType": "struct Permission",
          "name": "auth",
          "type": "tuple"
        }
      ],
      "name": "balanceOfEncrypted",
      "outputs": [
        {
          "internalType": "string",
          "name": "",
          "type": "string"
        }
      ],
      "stateMutability": "view",
      "type": "function"
    },
    {
      "inputs": [],
      "name": "decimals",
      "outputs": [
        {
          "internalType": "uint8",
          "name": "",
          "type": "uint8"
        }
      ],
      "stateMutability": "pure",
      "type": "function"
    },
    {
      "inputs": [],
      "name": "eip712Domain",
      "outputs": [
        {
          "internalType": "bytes1",
          "name": "fields",
          "type": "bytes1"
        },
        {
          "internalType": "string",
          "name": "name",
          "type": "string"
        },
        {
          "internalType": "string",
          "name": "version",
          "type": "string"
        },
        {
          "internalType": "uint256",
          "name": "chainId",
          "type": "uint256"
        },
        {
          "internalType": "address",
          "name": "verifyingContract",
          "type": "address"
        },
        {
          "internalType": "bytes32",
          "name": "salt",
          "type": "bytes32"
        },
        {
          "internalType": "uint256[]",
          "name": "extensions",
          "type": "uint256[]"
        }
      ],
      "stateMutability": "view",
      "type": "function"
    },
    {
      "inputs": [],
      "name": "name",
      "outputs": [
        {
          "internalType": "string",
          "name": "",
          "type": "string"
        }
      ],
      "stateMutability": "view",
      "type": "function"
    },
    {
      "inputs": [
        {
          "internalType": "address",
          "name": "owner",
          "type": "address"
        }
      ],
      "name": "nonces",
      "outputs": [
        {
          "internalType": "uint256",
          "name": "result",
          "type": "uint256"
        }
      ],
      "stateMutability": "view",
      "type": "function"
    },
    {
      "inputs": [
        {
          "internalType": "address",
          "name": "owner",
          "type": "address"
        },
        {
          "internalType": "address",
          "name": "spender",
          "type": "address"
        },
        {
          "internalType": "uint256",
          "name": "value",
          "type": "uint256"
        },
        {
          "internalType": "uint256",
          "name": "deadline",
          "type": "uint256"
        },
        {
          "internalType": "uint8",
          "name": "v",
          "type": "uint8"
        },
        {
          "internalType": "bytes32",
          "name": "r",
          "type": "bytes32"
        },
        {
          "internalType": "bytes32",
          "name": "s",
          "type": "bytes32"
        }
      ],
      "name": "permit",
      "outputs": [],
      "stateMutability": "nonpayable",
      "type": "function"
    },
    {
      "inputs": [],
      "name": "symbol",
      "outputs": [
        {
          "internalType": "string",
          "name": "",
          "type": "string"
        }
      ],
      "stateMutability": "view",
      "type": "function"
    },
    {
      "inputs": [],
      "name": "totalSupply",
      "outputs": [
        {
          "internalType": "uint256",
          "name": "result",
          "type": "uint256"
        }
      ],
      "stateMutability": "view",
      "type": "function"
    },
    {
      "inputs": [
        {
          "internalType": "address",
          "name": "to",
          "type": "address"
        },
        {
          "internalType": "uint256",
          "name": "amount",
          "type": "uint256"
        }
      ],
      "name": "transfer",
      "outputs": [
        {
          "internalType": "bool",
          "name": "",
          "type": "bool"
        }
      ],
      "stateMutability": "nonpayable",
      "type": "function"
    },
    {
      "inputs": [
        {
          "internalType": "address",
          "name": "to",
          "type": "address"
        },
        {
          "components": [
            {
              "internalType": "bytes",
              "name": "data",
              "type": "bytes"
            }
          ],
          "internalType": "struct inEuint32",
          "name": "encryptedAmount",
          "type": "tuple"
        }
      ],
      "name": "transferEncrypted",
      "outputs": [
        {
          "internalType": "euint32",
          "name": "",
          "type": "uint256"
        }
      ],
      "stateMutability": "nonpayable",
      "type": "function"
    },
    {
      "inputs": [
        {
          "internalType": "address",
          "name": "to",
          "type": "address"
        },
        {
          "internalType": "euint32",
          "name": "amount",
          "type": "uint256"
        }
      ],
      "name": "transferEncrypted",
      "outputs": [
        {
          "internalType": "euint32",
          "name": "",
          "type": "uint256"
        }
      ],
      "stateMutability": "nonpayable",
      "type": "function"
    },
    {
      "inputs": [
        {
          "internalType": "address",
          "name": "from",
          "type": "address"
        },
        {
          "internalType": "address",
          "name": "to",
          "type": "address"
        },
        {
          "internalType": "uint256",
          "name": "amount",
          "type": "uint256"
        }
      ],
      "name": "transferFrom",
      "outputs": [
        {
          "internalType": "bool",
          "name": "",
          "type": "bool"
        }
      ],
      "stateMutability": "nonpayable",
      "type": "function"
    },
    {
      "inputs": [
        {
          "internalType": "address",
          "name": "from",
          "type": "address"
        },
        {
          "internalType": "address",
          "name": "to",
          "type": "address"
        },
        {
          "components": [
            {
              "internalType": "bytes",
              "name": "data",
              "type": "bytes"
            }
          ],
          "internalType": "struct inEuint32",
          "name": "value",
          "type": "tuple"
        }
      ],
      "name": "transferFromEncrypted",
      "outputs": [
        {
          "internalType": "euint32",
          "name": "",
          "type": "uint256"
        }
      ],
      "stateMutability": "nonpayable",
      "type": "function"
    },
    {
      "inputs": [
        {
          "internalType": "address",
          "name": "from",
          "type": "address"
        },
        {
          "internalType": "address",
          "name": "to",
          "type": "address"
        },
        {
          "internalType": "euint32",
          "name": "value",
          "type": "uint256"
        }
      ],
      "name": "transferFromEncrypted",
      "outputs": [
        {
          "internalType": "euint32",
          "name": "",
          "type": "uint256"
        }
      ],
      "stateMutability": "nonpayable",
      "type": "function"
    },
    {
      "inputs": [
        {
          "internalType": "uint32",
          "name": "amount",
          "type": "uint32"
        }
      ],
      "name": "unwrap",
      "outputs": [],
      "stateMutability": "nonpayable",
      "type": "function"
    },
    {
      "inputs": [
        {
          "internalType": "uint32",
          "name": "amount",
          "type": "uint32"
        }
      ],
      "name": "wrap",
      "outputs": [],
      "stateMutability": "nonpayable",
      "type": "function"
    }
  ],
  "transactionHash": "0xdf98235d6e739912494e60e15c7865b2ad51370dd7ae77d32420979811a258fb",
  "args": [
    {
      "data": {
        "0": 16,
        "1": 8,
        "2": 0,
        "3": 0,
        "4": 0,
        "5": 0,
        "6": 0,
        "7": 0,
        "8": 84,
        "9": 40,
        "10": 172,
        "11": 94,
        "12": 162,
        "13": 37,
        "14": 90,
        "15": 224,
        "16": 118,
        "17": 204,
        "18": 147,
        "19": 252,
        "20": 115,
        "21": 156,
        "22": 43,
        "23": 255,
        "24": 133,
        "25": 238,
        "26": 157,
        "27": 205,
        "28": 141,
        "29": 171,
        "30": 179,
        "31": 58,
        "32": 105,
        "33": 129,
        "34": 166,
        "35": 111,
        "36": 136,
        "37": 165,
        "38": 212,
        "39": 100,
        "40": 161,
        "41": 10,
        "42": 167,
        "43": 52,
        "44": 101,
        "45": 203,
        "46": 22,
        "47": 55,
        "48": 228,
        "49": 129,
        "50": 198,
        "51": 21,
        "52": 186,
        "53": 130,
        "54": 14,
        "55": 172,
        "56": 188,
        "57": 127,
        "58": 53,
        "59": 252,
        "60": 236,
        "61": 213,
        "62": 132,
        "63": 173,
        "64": 149,
        "65": 206,
        "66": 219,
        "67": 202,
        "68": 85,
        "69": 185,
        "70": 232,
        "71": 134,
        "72": 37,
        "73": 58,
        "74": 172,
        "75": 15,
        "76": 202,
        "77": 103,
        "78": 230,
        "79": 85,
        "80": 180,
        "81": 181,
        "82": 255,
        "83": 56,
        "84": 148,
        "85": 106,
        "86": 32,
        "87": 150,
        "88": 221,
        "89": 50,
        "90": 35,
        "91": 53,
        "92": 116,
        "93": 51,
        "94": 181,
        "95": 124,
        "96": 136,
        "97": 175,
        "98": 144,
        "99": 220,
        "100": 15,
        "101": 78,
        "102": 72,
        "103": 0,
        "104": 107,
        "105": 203,
        "106": 70,
        "107": 190,
        "108": 56,
        "109": 119,
        "110": 135,
        "111": 50,
        "112": 180,
        "113": 17,
        "114": 250,
        "115": 12,
        "116": 117,
        "117": 207,
        "118": 4,
        "119": 196,
        "120": 103,
        "121": 82,
        "122": 182,
        "123": 50,
        "124": 246,
        "125": 5,
        "126": 113,
        "127": 214,
        "128": 171,
        "129": 94,
        "130": 18,
        "131": 137,
        "132": 193,
        "133": 229,
        "134": 231,
        "135": 244,
        "136": 51,
        "137": 252,
        "138": 203,
        "139": 230,
        "140": 149,
        "141": 35,
        "142": 16,
        "143": 175,
        "144": 230,
        "145": 106,
        "146": 82,
        "147": 208,
        "148": 213,
        "149": 195,
        "150": 39,
        "151": 35,
        "152": 176,
        "153": 250,
        "154": 94,
        "155": 141,
        "156": 183,
        "157": 126,
        "158": 172,
        "159": 245,
        "160": 147,
        "161": 243,
        "162": 185,
        "163": 49,
        "164": 192,
        "165": 194,
        "166": 89,
        "167": 163,
        "168": 99,
        "169": 77,
        "170": 121,
        "171": 9,
        "172": 42,
        "173": 11,
        "174": 242,
        "175": 209,
        "176": 42,
        "177": 153,
        "178": 31,
        "179": 236,
        "180": 46,
        "181": 183,
        "182": 26,
        "183": 150,
        "184": 66,
        "185": 242,
        "186": 75,
        "187": 65,
        "188": 22,
        "189": 63,
        "190": 54,
        "191": 239,
        "192": 155,
        "193": 196,
        "194": 222,
        "195": 161,
        "196": 194,
        "197": 229,
        "198": 155,
        "199": 208,
        "200": 209,
        "201": 100,
        "202": 223,
        "203": 76,
        "204": 225,
        "205": 154,
        "206": 150,
        "207": 52,
        "208": 144,
        "209": 19,
        "210": 114,
        "211": 17,
        "212": 106,
        "213": 102,
        "214": 223,
        "215": 87,
        "216": 16,
        "217": 249,
        "218": 193,
        "219": 40,
        "220": 111,
        "221": 65,
        "222": 9,
        "223": 0,
        "224": 241,
        "225": 139,
        "226": 62,
        "227": 133,
        "228": 61,
        "229": 99,
        "230": 198,
        "231": 141,
        "232": 196,
        "233": 223,
        "234": 63,
        "235": 244,
        "236": 51,
        "237": 10,
        "238": 183,
        "239": 76,
        "240": 211,
        "241": 79,
        "242": 0,
        "243": 2,
        "244": 86,
        "245": 60,
        "246": 60,
        "247": 247,
        "248": 13,
        "249": 83,
        "250": 189,
        "251": 113,
        "252": 99,
        "253": 163,
        "254": 225,
        "255": 36,
        "256": 185,
        "257": 220,
        "258": 17,
        "259": 239,
        "260": 162,
        "261": 97,
        "262": 190,
        "263": 48,
        "264": 254,
        "265": 60,
        "266": 148,
        "267": 60,
        "268": 0,
        "269": 91,
        "270": 96,
        "271": 86,
        "272": 190,
        "273": 189,
        "274": 193,
        "275": 252,
        "276": 68,
        "277": 168,
        "278": 62,
        "279": 251,
        "280": 92,
        "281": 80,
        "282": 161,
        "283": 59,
        "284": 129,
        "285": 40,
        "286": 238,
        "287": 215,
        "288": 254,
        "289": 32,
        "290": 112,
        "291": 31,
        "292": 80,
        "293": 56,
        "294": 156,
        "295": 81,
        "296": 172,
        "297": 83,
        "298": 13,
        "299": 40,
        "300": 143,
        "301": 101,
        "302": 90,
        "303": 54,
        "304": 236,
        "305": 140,
        "306": 217,
        "307": 240,
        "308": 218,
        "309": 47,
        "310": 59,
        "311": 225,
        "312": 169,
        "313": 108,
        "314": 29,
        "315": 61,
        "316": 109,
        "317": 58,
        "318": 117,
        "319": 117,
        "320": 203,
        "321": 23,
        "322": 105,
        "323": 197,
        "324": 231,
        "325": 32,
        "326": 169,
        "327": 207,
        "328": 241,
        "329": 186,
        "330": 207,
        "331": 75,
        "332": 162,
        "333": 202,
        "334": 166,
        "335": 132,
        "336": 221,
        "337": 17,
        "338": 195,
        "339": 178,
        "340": 123,
        "341": 81,
        "342": 157,
        "343": 161,
        "344": 1,
        "345": 79,
        "346": 168,
        "347": 3,
        "348": 41,
        "349": 126,
        "350": 28,
        "351": 241,
        "352": 70,
        "353": 225,
        "354": 85,
        "355": 127,
        "356": 200,
        "357": 100,
        "358": 171,
        "359": 234,
        "360": 86,
        "361": 87,
        "362": 134,
        "363": 15,
        "364": 141,
        "365": 218,
        "366": 140,
        "367": 231,
        "368": 71,
        "369": 217,
        "370": 146,
        "371": 247,
        "372": 155,
        "373": 148,
        "374": 197,
        "375": 147,
        "376": 34,
        "377": 213,
        "378": 75,
        "379": 239,
        "380": 28,
        "381": 230,
        "382": 86,
        "383": 191,
        "384": 0,
        "385": 82,
        "386": 253,
        "387": 55,
        "388": 227,
        "389": 141,
        "390": 16,
        "391": 244,
        "392": 220,
        "393": 19,
        "394": 131,
        "395": 73,
        "396": 159,
        "397": 160,
        "398": 215,
        "399": 189,
        "400": 201,
        "401": 214,
        "402": 8,
        "403": 160,
        "404": 63,
        "405": 252,
        "406": 183,
        "407": 46,
        "408": 157,
        "409": 202,
        "410": 147,
        "411": 238,
        "412": 177,
        "413": 107,
        "414": 203,
        "415": 114,
        "416": 124,
        "417": 103,
        "418": 152,
        "419": 2,
        "420": 163,
        "421": 253,
        "422": 132,
        "423": 168,
        "424": 223,
        "425": 47,
        "426": 215,
        "427": 227,
        "428": 119,
        "429": 206,
        "430": 41,
        "431": 228,
        "432": 243,
        "433": 249,
        "434": 133,
        "435": 178,
        "436": 189,
        "437": 75,
        "438": 69,
        "439": 93,
        "440": 181,
        "441": 214,
        "442": 80,
        "443": 191,
        "444": 201,
        "445": 74,
        "446": 166,
        "447": 53,
        "448": 122,
        "449": 105,
        "450": 11,
        "451": 194,
        "452": 191,
        "453": 117,
        "454": 216,
        "455": 3,
        "456": 163,
        "457": 220,
        "458": 5,
        "459": 202,
        "460": 82,
        "461": 92,
        "462": 234,
        "463": 203,
        "464": 54,
        "465": 37,
        "466": 244,
        "467": 244,
        "468": 114,
        "469": 228,
        "470": 186,
        "471": 118,
        "472": 11,
        "473": 42,
        "474": 189,
        "475": 131,
        "476": 50,
        "477": 108,
        "478": 212,
        "479": 239,
        "480": 239,
        "481": 152,
        "482": 187,
        "483": 237,
        "484": 127,
        "485": 57,
        "486": 230,
        "487": 225,
        "488": 11,
        "489": 128,
        "490": 130,
        "491": 4,
        "492": 42,
        "493": 32,
        "494": 152,
        "495": 148,
        "496": 5,
        "497": 142,
        "498": 166,
        "499": 139,
        "500": 107,
        "501": 149,
        "502": 144,
        "503": 171,
        "504": 71,
        "505": 136,
        "506": 17,
        "507": 152,
        "508": 178,
        "509": 1,
        "510": 61,
        "511": 250,
        "512": 70,
        "513": 253,
        "514": 2,
        "515": 20,
        "516": 181,
        "517": 77,
        "518": 223,
        "519": 76,
        "520": 205,
        "521": 71,
        "522": 60,
        "523": 149,
        "524": 230,
        "525": 155,
        "526": 179,
        "527": 125,
        "528": 97,
        "529": 41,
        "530": 96,
        "531": 37,
        "532": 187,
        "533": 36,
        "534": 141,
        "535": 139,
        "536": 7,
        "537": 211,
        "538": 31,
        "539": 113,
        "540": 92,
        "541": 73,
        "542": 213,
        "543": 41,
        "544": 103,
        "545": 222,
        "546": 160,
        "547": 124,
        "548": 120,
        "549": 98,
        "550": 139,
        "551": 111,
        "552": 159,
        "553": 248,
        "554": 136,
        "555": 213,
        "556": 106,
        "557": 101,
        "558": 91,
        "559": 198,
        "560": 86,
        "561": 143,
        "562": 234,
        "563": 3,
        "564": 9,
        "565": 53,
        "566": 14,
        "567": 252,
        "568": 242,
        "569": 196,
        "570": 179,
        "571": 255,
        "572": 3,
        "573": 146,
        "574": 244,
        "575": 66,
        "576": 144,
        "577": 9,
        "578": 219,
        "579": 189,
        "580": 22,
        "581": 45,
        "582": 208,
        "583": 226,
        "584": 116,
        "585": 33,
        "586": 251,
        "587": 163,
        "588": 84,
        "589": 104,
        "590": 216,
        "591": 217,
        "592": 196,
        "593": 130,
        "594": 159,
        "595": 251,
        "596": 235,
        "597": 81,
        "598": 103,
        "599": 119,
        "600": 138,
        "601": 8,
        "602": 223,
        "603": 198,
        "604": 194,
        "605": 36,
        "606": 83,
        "607": 32,
        "608": 71,
        "609": 239,
        "610": 96,
        "611": 21,
        "612": 27,
        "613": 138,
        "614": 192,
        "615": 38,
        "616": 85,
        "617": 104,
        "618": 176,
        "619": 196,
        "620": 216,
        "621": 180,
        "622": 199,
        "623": 40,
        "624": 229,
        "625": 89,
        "626": 145,
        "627": 226,
        "628": 42,
        "629": 3,
        "630": 119,
        "631": 109,
        "632": 242,
        "633": 47,
        "634": 101,
        "635": 150,
        "636": 44,
        "637": 215,
        "638": 163,
        "639": 63,
        "640": 219,
        "641": 204,
        "642": 45,
        "643": 130,
        "644": 193,
        "645": 0,
        "646": 122,
        "647": 114,
        "648": 44,
        "649": 126,
        "650": 233,
        "651": 180,
        "652": 243,
        "653": 194,
        "654": 48,
        "655": 255,
        "656": 213,
        "657": 157,
        "658": 82,
        "659": 157,
        "660": 171,
        "661": 34,
        "662": 191,
        "663": 170,
        "664": 235,
        "665": 70,
        "666": 232,
        "667": 109,
        "668": 193,
        "669": 39,
        "670": 216,
        "671": 190,
        "672": 220,
        "673": 226,
        "674": 249,
        "675": 255,
        "676": 197,
        "677": 141,
        "678": 168,
        "679": 225,
        "680": 14,
        "681": 22,
        "682": 155,
        "683": 130,
        "684": 213,
        "685": 22,
        "686": 84,
        "687": 149,
        "688": 10,
        "689": 76,
        "690": 191,
        "691": 97,
        "692": 171,
        "693": 50,
        "694": 152,
        "695": 129,
        "696": 96,
        "697": 185,
        "698": 87,
        "699": 34,
        "700": 190,
        "701": 45,
        "702": 117,
        "703": 173,
        "704": 170,
        "705": 244,
        "706": 237,
        "707": 63,
        "708": 224,
        "709": 103,
        "710": 19,
        "711": 19,
        "712": 179,
        "713": 142,
        "714": 170,
        "715": 143,
        "716": 108,
        "717": 217,
        "718": 127,
        "719": 155,
        "720": 158,
        "721": 205,
        "722": 221,
        "723": 183,
        "724": 192,
        "725": 35,
        "726": 246,
        "727": 181,
        "728": 187,
        "729": 31,
        "730": 103,
        "731": 200,
        "732": 219,
        "733": 255,
        "734": 110,
        "735": 42,
        "736": 233,
        "737": 26,
        "738": 76,
        "739": 177,
        "740": 84,
        "741": 248,
        "742": 239,
        "743": 26,
        "744": 31,
        "745": 7,
        "746": 36,
        "747": 253,
        "748": 144,
        "749": 105,
        "750": 188,
        "751": 79,
        "752": 82,
        "753": 85,
        "754": 43,
        "755": 189,
        "756": 7,
        "757": 95,
        "758": 39,
        "759": 62,
        "760": 146,
        "761": 199,
        "762": 35,
        "763": 3,
        "764": 80,
        "765": 179,
        "766": 33,
        "767": 166,
        "768": 99,
        "769": 237,
        "770": 184,
        "771": 132,
        "772": 100,
        "773": 41,
        "774": 187,
        "775": 103,
        "776": 11,
        "777": 9,
        "778": 185,
        "779": 133,
        "780": 111,
        "781": 158,
        "782": 95,
        "783": 247,
        "784": 180,
        "785": 42,
        "786": 168,
        "787": 107,
        "788": 127,
        "789": 221,
        "790": 240,
        "791": 174,
        "792": 241,
        "793": 17,
        "794": 176,
        "795": 133,
        "796": 144,
        "797": 232,
        "798": 18,
        "799": 233,
        "800": 199,
        "801": 97,
        "802": 11,
        "803": 22,
        "804": 247,
        "805": 230,
        "806": 61,
        "807": 186,
        "808": 40,
        "809": 156,
        "810": 227,
        "811": 170,
        "812": 28,
        "813": 138,
        "814": 153,
        "815": 56,
        "816": 85,
        "817": 181,
        "818": 187,
        "819": 167,
        "820": 86,
        "821": 101,
        "822": 137,
        "823": 37,
        "824": 59,
        "825": 1,
        "826": 228,
        "827": 143,
        "828": 214,
        "829": 62,
        "830": 126,
        "831": 169,
        "832": 132,
        "833": 152,
        "834": 214,
        "835": 100,
        "836": 104,
        "837": 105,
        "838": 165,
        "839": 178,
        "840": 13,
        "841": 58,
        "842": 56,
        "843": 72,
        "844": 106,
        "845": 174,
        "846": 255,
        "847": 100,
        "848": 233,
        "849": 6,
        "850": 37,
        "851": 145,
        "852": 51,
        "853": 123,
        "854": 81,
        "855": 58,
        "856": 80,
        "857": 176,
        "858": 145,
        "859": 219,
        "860": 9,
        "861": 207,
        "862": 144,
        "863": 131,
        "864": 105,
        "865": 23,
        "866": 84,
        "867": 93,
        "868": 125,
        "869": 222,
        "870": 40,
        "871": 146,
        "872": 206,
        "873": 13,
        "874": 220,
        "875": 31,
        "876": 6,
        "877": 221,
        "878": 245,
        "879": 9,
        "880": 235,
        "881": 169,
        "882": 213,
        "883": 150,
        "884": 125,
        "885": 160,
        "886": 197,
        "887": 18,
        "888": 207,
        "889": 33,
        "890": 245,
        "891": 12,
        "892": 54,
        "893": 109,
        "894": 132,
        "895": 251,
        "896": 204,
        "897": 155,
        "898": 67,
        "899": 248,
        "900": 125,
        "901": 157,
        "902": 132,
        "903": 1,
        "904": 138,
        "905": 130,
        "906": 198,
        "907": 213,
        "908": 156,
        "909": 240,
        "910": 56,
        "911": 108,
        "912": 222,
        "913": 141,
        "914": 22,
        "915": 6,
        "916": 130,
        "917": 205,
        "918": 130,
        "919": 171,
        "920": 127,
        "921": 114,
        "922": 52,
        "923": 127,
        "924": 231,
        "925": 81,
        "926": 20,
        "927": 218,
        "928": 164,
        "929": 48,
        "930": 37,
        "931": 69,
        "932": 192,
        "933": 147,
        "934": 18,
        "935": 227,
        "936": 92,
        "937": 17,
        "938": 213,
        "939": 120,
        "940": 95,
        "941": 0,
        "942": 194,
        "943": 14,
        "944": 10,
        "945": 34,
        "946": 171,
        "947": 46,
        "948": 74,
        "949": 254,
        "950": 222,
        "951": 178,
        "952": 147,
        "953": 28,
        "954": 0,
        "955": 42,
        "956": 103,
        "957": 135,
        "958": 125,
        "959": 108,
        "960": 190,
        "961": 34,
        "962": 76,
        "963": 209,
        "964": 184,
        "965": 193,
        "966": 138,
        "967": 201,
        "968": 60,
        "969": 247,
        "970": 16,
        "971": 206,
        "972": 149,
        "973": 141,
        "974": 102,
        "975": 162,
        "976": 226,
        "977": 51,
        "978": 182,
        "979": 253,
        "980": 152,
        "981": 45,
        "982": 151,
        "983": 255,
        "984": 20,
        "985": 18,
        "986": 247,
        "987": 184,
        "988": 138,
        "989": 227,
        "990": 96,
        "991": 97,
        "992": 207,
        "993": 59,
        "994": 137,
        "995": 61,
        "996": 210,
        "997": 129,
        "998": 248,
        "999": 114,
        "1000": 2,
        "1001": 212,
        "1002": 149,
        "1003": 90,
        "1004": 187,
        "1005": 36,
        "1006": 179,
        "1007": 68,
        "1008": 112,
        "1009": 18,
        "1010": 110,
        "1011": 116,
        "1012": 19,
        "1013": 198,
        "1014": 196,
        "1015": 74,
        "1016": 121,
        "1017": 89,
        "1018": 163,
        "1019": 223,
        "1020": 67,
        "1021": 73,
        "1022": 3,
        "1023": 83,
        "1024": 34,
        "1025": 134,
        "1026": 6,
        "1027": 32,
        "1028": 49,
        "1029": 129,
        "1030": 154,
        "1031": 187,
        "1032": 189,
        "1033": 130,
        "1034": 75,
        "1035": 128,
        "1036": 57,
        "1037": 99,
        "1038": 20,
        "1039": 137,
        "1040": 68,
        "1041": 73,
        "1042": 109,
        "1043": 9,
        "1044": 21,
        "1045": 65,
        "1046": 49,
        "1047": 130,
        "1048": 43,
        "1049": 194,
        "1050": 50,
        "1051": 144,
        "1052": 84,
        "1053": 19,
        "1054": 116,
        "1055": 233,
        "1056": 7,
        "1057": 108,
        "1058": 24,
        "1059": 187,
        "1060": 182,
        "1061": 196,
        "1062": 110,
        "1063": 33,
        "1064": 14,
        "1065": 148,
        "1066": 201,
        "1067": 34,
        "1068": 75,
        "1069": 7,
        "1070": 114,
        "1071": 76,
        "1072": 153,
        "1073": 192,
        "1074": 45,
        "1075": 30,
        "1076": 46,
        "1077": 125,
        "1078": 105,
        "1079": 143,
        "1080": 10,
        "1081": 75,
        "1082": 148,
        "1083": 9,
        "1084": 189,
        "1085": 145,
        "1086": 65,
        "1087": 2,
        "1088": 62,
        "1089": 233,
        "1090": 208,
        "1091": 73,
        "1092": 85,
        "1093": 208,
        "1094": 29,
        "1095": 44,
        "1096": 224,
        "1097": 110,
        "1098": 215,
        "1099": 169,
        "1100": 6,
        "1101": 90,
        "1102": 122,
        "1103": 197,
        "1104": 35,
        "1105": 69,
        "1106": 250,
        "1107": 29,
        "1108": 199,
        "1109": 59,
        "1110": 251,
        "1111": 39,
        "1112": 216,
        "1113": 35,
        "1114": 163,
        "1115": 84,
        "1116": 50,
        "1117": 198,
        "1118": 147,
        "1119": 121,
        "1120": 234,
        "1121": 193,
        "1122": 254,
        "1123": 50,
        "1124": 79,
        "1125": 94,
        "1126": 112,
        "1127": 179,
        "1128": 122,
        "1129": 59,
        "1130": 56,
        "1131": 244,
        "1132": 182,
        "1133": 128,
        "1134": 73,
        "1135": 131,
        "1136": 111,
        "1137": 86,
        "1138": 120,
        "1139": 198,
        "1140": 57,
        "1141": 5,
        "1142": 73,
        "1143": 50,
        "1144": 32,
        "1145": 168,
        "1146": 253,
        "1147": 9,
        "1148": 235,
        "1149": 30,
        "1150": 207,
        "1151": 227,
        "1152": 202,
        "1153": 22,
        "1154": 40,
        "1155": 58,
        "1156": 216,
        "1157": 14,
        "1158": 157,
        "1159": 178,
        "1160": 50,
        "1161": 215,
        "1162": 54,
        "1163": 118,
        "1164": 137,
        "1165": 9,
        "1166": 65,
        "1167": 1,
        "1168": 6,
        "1169": 87,
        "1170": 168,
        "1171": 74,
        "1172": 227,
        "1173": 12,
        "1174": 43,
        "1175": 81,
        "1176": 147,
        "1177": 101,
        "1178": 227,
        "1179": 178,
        "1180": 24,
        "1181": 220,
        "1182": 230,
        "1183": 158,
        "1184": 233,
        "1185": 198,
        "1186": 146,
        "1187": 89,
        "1188": 29,
        "1189": 188,
        "1190": 141,
        "1191": 59,
        "1192": 160,
        "1193": 189,
        "1194": 205,
        "1195": 104,
        "1196": 14,
        "1197": 158,
        "1198": 12,
        "1199": 94,
        "1200": 208,
        "1201": 236,
        "1202": 27,
        "1203": 118,
        "1204": 157,
        "1205": 204,
        "1206": 127,
        "1207": 129,
        "1208": 254,
        "1209": 45,
        "1210": 35,
        "1211": 189,
        "1212": 70,
        "1213": 46,
        "1214": 72,
        "1215": 178,
        "1216": 186,
        "1217": 133,
        "1218": 129,
        "1219": 210,
        "1220": 39,
        "1221": 32,
        "1222": 86,
        "1223": 235,
        "1224": 145,
        "1225": 19,
        "1226": 236,
        "1227": 44,
        "1228": 79,
        "1229": 138,
        "1230": 64,
        "1231": 11,
        "1232": 225,
        "1233": 4,
        "1234": 97,
        "1235": 184,
        "1236": 124,
        "1237": 237,
        "1238": 218,
        "1239": 69,
        "1240": 34,
        "1241": 9,
        "1242": 219,
        "1243": 87,
        "1244": 69,
        "1245": 149,
        "1246": 4,
        "1247": 136,
        "1248": 51,
        "1249": 139,
        "1250": 71,
        "1251": 175,
        "1252": 123,
        "1253": 164,
        "1254": 167,
        "1255": 50,
        "1256": 181,
        "1257": 79,
        "1258": 171,
        "1259": 214,
        "1260": 106,
        "1261": 48,
        "1262": 200,
        "1263": 144,
        "1264": 94,
        "1265": 79,
        "1266": 1,
        "1267": 200,
        "1268": 154,
        "1269": 109,
        "1270": 54,
        "1271": 106,
        "1272": 62,
        "1273": 107,
        "1274": 182,
        "1275": 255,
        "1276": 172,
        "1277": 123,
        "1278": 147,
        "1279": 137,
        "1280": 23,
        "1281": 137,
        "1282": 81,
        "1283": 135,
        "1284": 148,
        "1285": 97,
        "1286": 188,
        "1287": 110,
        "1288": 79,
        "1289": 117,
        "1290": 13,
        "1291": 197,
        "1292": 31,
        "1293": 118,
        "1294": 151,
        "1295": 78,
        "1296": 110,
        "1297": 220,
        "1298": 150,
        "1299": 179,
        "1300": 37,
        "1301": 22,
        "1302": 200,
        "1303": 117,
        "1304": 145,
        "1305": 166,
        "1306": 46,
        "1307": 126,
        "1308": 33,
        "1309": 60,
        "1310": 178,
        "1311": 80,
        "1312": 199,
        "1313": 23,
        "1314": 252,
        "1315": 125,
        "1316": 96,
        "1317": 149,
        "1318": 94,
        "1319": 219,
        "1320": 252,
        "1321": 27,
        "1322": 251,
        "1323": 216,
        "1324": 223,
        "1325": 76,
        "1326": 139,
        "1327": 87,
        "1328": 39,
        "1329": 154,
        "1330": 152,
        "1331": 105,
        "1332": 9,
        "1333": 156,
        "1334": 93,
        "1335": 41,
        "1336": 73,
        "1337": 194,
        "1338": 120,
        "1339": 110,
        "1340": 13,
        "1341": 187,
        "1342": 10,
        "1343": 101,
        "1344": 37,
        "1345": 44,
        "1346": 155,
        "1347": 153,
        "1348": 141,
        "1349": 139,
        "1350": 35,
        "1351": 47,
        "1352": 50,
        "1353": 80,
        "1354": 202,
        "1355": 85,
        "1356": 205,
        "1357": 242,
        "1358": 141,
        "1359": 169,
        "1360": 16,
        "1361": 139,
        "1362": 160,
        "1363": 238,
        "1364": 178,
        "1365": 204,
        "1366": 96,
        "1367": 36,
        "1368": 107,
        "1369": 99,
        "1370": 53,
        "1371": 66,
        "1372": 163,
        "1373": 227,
        "1374": 202,
        "1375": 127,
        "1376": 189,
        "1377": 118,
        "1378": 138,
        "1379": 155,
        "1380": 213,
        "1381": 195,
        "1382": 215,
        "1383": 124,
        "1384": 11,
        "1385": 144,
        "1386": 26,
        "1387": 118,
        "1388": 167,
        "1389": 244,
        "1390": 164,
        "1391": 149,
        "1392": 150,
        "1393": 54,
        "1394": 46,
        "1395": 130,
        "1396": 49,
        "1397": 209,
        "1398": 131,
        "1399": 115,
        "1400": 207,
        "1401": 234,
        "1402": 46,
        "1403": 32,
        "1404": 247,
        "1405": 47,
        "1406": 85,
        "1407": 193,
        "1408": 85,
        "1409": 214,
        "1410": 38,
        "1411": 19,
        "1412": 88,
        "1413": 54,
        "1414": 92,
        "1415": 70,
        "1416": 80,
        "1417": 68,
        "1418": 156,
        "1419": 219,
        "1420": 65,
        "1421": 89,
        "1422": 40,
        "1423": 186,
        "1424": 60,
        "1425": 250,
        "1426": 86,
        "1427": 155,
        "1428": 80,
        "1429": 156,
        "1430": 222,
        "1431": 114,
        "1432": 226,
        "1433": 138,
        "1434": 195,
        "1435": 129,
        "1436": 91,
        "1437": 233,
        "1438": 102,
        "1439": 110,
        "1440": 147,
        "1441": 0,
        "1442": 92,
        "1443": 138,
        "1444": 206,
        "1445": 250,
        "1446": 130,
        "1447": 147,
        "1448": 81,
        "1449": 149,
        "1450": 227,
        "1451": 50,
        "1452": 155,
        "1453": 247,
        "1454": 110,
        "1455": 201,
        "1456": 118,
        "1457": 76,
        "1458": 177,
        "1459": 199,
        "1460": 107,
        "1461": 115,
        "1462": 117,
        "1463": 211,
        "1464": 240,
        "1465": 123,
        "1466": 208,
        "1467": 162,
        "1468": 197,
        "1469": 195,
        "1470": 155,
        "1471": 17,
        "1472": 178,
        "1473": 88,
        "1474": 219,
        "1475": 171,
        "1476": 251,
        "1477": 179,
        "1478": 112,
        "1479": 162,
        "1480": 48,
        "1481": 207,
        "1482": 244,
        "1483": 47,
        "1484": 77,
        "1485": 151,
        "1486": 246,
        "1487": 109,
        "1488": 119,
        "1489": 50,
        "1490": 142,
        "1491": 69,
        "1492": 247,
        "1493": 229,
        "1494": 171,
        "1495": 221,
        "1496": 164,
        "1497": 149,
        "1498": 66,
        "1499": 184,
        "1500": 99,
        "1501": 119,
        "1502": 82,
        "1503": 239,
        "1504": 6,
        "1505": 142,
        "1506": 188,
        "1507": 173,
        "1508": 227,
        "1509": 147,
        "1510": 223,
        "1511": 176,
        "1512": 171,
        "1513": 37,
        "1514": 166,
        "1515": 98,
        "1516": 154,
        "1517": 178,
        "1518": 228,
        "1519": 195,
        "1520": 160,
        "1521": 238,
        "1522": 232,
        "1523": 243,
        "1524": 233,
        "1525": 12,
        "1526": 55,
        "1527": 79,
        "1528": 180,
        "1529": 80,
        "1530": 11,
        "1531": 74,
        "1532": 34,
        "1533": 214,
        "1534": 111,
        "1535": 212,
        "1536": 57,
        "1537": 65,
        "1538": 62,
        "1539": 89,
        "1540": 83,
        "1541": 51,
        "1542": 223,
        "1543": 12,
        "1544": 37,
        "1545": 63,
        "1546": 76,
        "1547": 84,
        "1548": 188,
        "1549": 185,
        "1550": 169,
        "1551": 147,
        "1552": 195,
        "1553": 149,
        "1554": 243,
        "1555": 0,
        "1556": 110,
        "1557": 220,
        "1558": 210,
        "1559": 72,
        "1560": 96,
        "1561": 224,
        "1562": 32,
        "1563": 117,
        "1564": 0,
        "1565": 54,
        "1566": 161,
        "1567": 3,
        "1568": 133,
        "1569": 149,
        "1570": 191,
        "1571": 188,
        "1572": 72,
        "1573": 209,
        "1574": 25,
        "1575": 204,
        "1576": 102,
        "1577": 45,
        "1578": 38,
        "1579": 146,
        "1580": 122,
        "1581": 221,
        "1582": 75,
        "1583": 190,
        "1584": 77,
        "1585": 187,
        "1586": 247,
        "1587": 83,
        "1588": 240,
        "1589": 43,
        "1590": 2,
        "1591": 21,
        "1592": 208,
        "1593": 179,
        "1594": 212,
        "1595": 27,
        "1596": 225,
        "1597": 57,
        "1598": 189,
        "1599": 195,
        "1600": 221,
        "1601": 22,
        "1602": 221,
        "1603": 224,
        "1604": 150,
        "1605": 197,
        "1606": 240,
        "1607": 128,
        "1608": 90,
        "1609": 54,
        "1610": 213,
        "1611": 164,
        "1612": 19,
        "1613": 34,
        "1614": 47,
        "1615": 186,
        "1616": 26,
        "1617": 215,
        "1618": 58,
        "1619": 175,
        "1620": 27,
        "1621": 50,
        "1622": 63,
        "1623": 214,
        "1624": 10,
        "1625": 253,
        "1626": 224,
        "1627": 96,
        "1628": 147,
        "1629": 176,
        "1630": 43,
        "1631": 77,
        "1632": 113,
        "1633": 63,
        "1634": 165,
        "1635": 87,
        "1636": 205,
        "1637": 146,
        "1638": 227,
        "1639": 217,
        "1640": 186,
        "1641": 109,
        "1642": 196,
        "1643": 141,
        "1644": 127,
        "1645": 244,
        "1646": 210,
        "1647": 230,
        "1648": 127,
        "1649": 211,
        "1650": 216,
        "1651": 171,
        "1652": 66,
        "1653": 237,
        "1654": 184,
        "1655": 248,
        "1656": 29,
        "1657": 15,
        "1658": 91,
        "1659": 136,
        "1660": 165,
        "1661": 84,
        "1662": 62,
        "1663": 39,
        "1664": 72,
        "1665": 83,
        "1666": 6,
        "1667": 86,
        "1668": 128,
        "1669": 67,
        "1670": 236,
        "1671": 216,
        "1672": 239,
        "1673": 39,
        "1674": 64,
        "1675": 189,
        "1676": 30,
        "1677": 48,
        "1678": 252,
        "1679": 112,
        "1680": 81,
        "1681": 127,
        "1682": 251,
        "1683": 76,
        "1684": 68,
        "1685": 49,
        "1686": 58,
        "1687": 37,
        "1688": 145,
        "1689": 62,
        "1690": 87,
        "1691": 206,
        "1692": 112,
        "1693": 196,
        "1694": 66,
        "1695": 161,
        "1696": 213,
        "1697": 219,
        "1698": 89,
        "1699": 26,
        "1700": 1,
        "1701": 177,
        "1702": 69,
        "1703": 251,
        "1704": 141,
        "1705": 5,
        "1706": 63,
        "1707": 106,
        "1708": 251,
        "1709": 99,
        "1710": 45,
        "1711": 248,
        "1712": 243,
        "1713": 198,
        "1714": 129,
        "1715": 167,
        "1716": 63,
        "1717": 227,
        "1718": 44,
        "1719": 231,
        "1720": 118,
        "1721": 226,
        "1722": 74,
        "1723": 103,
        "1724": 162,
        "1725": 90,
        "1726": 134,
        "1727": 134,
        "1728": 67,
        "1729": 17,
        "1730": 44,
        "1731": 226,
        "1732": 162,
        "1733": 25,
        "1734": 213,
        "1735": 121,
        "1736": 152,
        "1737": 9,
        "1738": 131,
        "1739": 195,
        "1740": 180,
        "1741": 5,
        "1742": 38,
        "1743": 132,
        "1744": 29,
        "1745": 144,
        "1746": 245,
        "1747": 18,
        "1748": 92,
        "1749": 164,
        "1750": 170,
        "1751": 234,
        "1752": 147,
        "1753": 125,
        "1754": 254,
        "1755": 10,
        "1756": 69,
        "1757": 155,
        "1758": 231,
        "1759": 127,
        "1760": 146,
        "1761": 235,
        "1762": 49,
        "1763": 93,
        "1764": 180,
        "1765": 222,
        "1766": 3,
        "1767": 169,
        "1768": 109,
        "1769": 255,
        "1770": 86,
        "1771": 196,
        "1772": 72,
        "1773": 162,
        "1774": 188,
        "1775": 54,
        "1776": 148,
        "1777": 66,
        "1778": 122,
        "1779": 198,
        "1780": 189,
        "1781": 221,
        "1782": 194,
        "1783": 220,
        "1784": 140,
        "1785": 107,
        "1786": 18,
        "1787": 68,
        "1788": 188,
        "1789": 135,
        "1790": 159,
        "1791": 175,
        "1792": 211,
        "1793": 226,
        "1794": 137,
        "1795": 19,
        "1796": 26,
        "1797": 91,
        "1798": 28,
        "1799": 69,
        "1800": 61,
        "1801": 224,
        "1802": 205,
        "1803": 96,
        "1804": 231,
        "1805": 161,
        "1806": 230,
        "1807": 124,
        "1808": 148,
        "1809": 175,
        "1810": 212,
        "1811": 247,
        "1812": 94,
        "1813": 243,
        "1814": 187,
        "1815": 37,
        "1816": 254,
        "1817": 165,
        "1818": 81,
        "1819": 2,
        "1820": 204,
        "1821": 185,
        "1822": 37,
        "1823": 235,
        "1824": 86,
        "1825": 4,
        "1826": 73,
        "1827": 243,
        "1828": 98,
        "1829": 117,
        "1830": 179,
        "1831": 221,
        "1832": 111,
        "1833": 120,
        "1834": 35,
        "1835": 198,
        "1836": 31,
        "1837": 234,
        "1838": 22,
        "1839": 149,
        "1840": 12,
        "1841": 235,
        "1842": 58,
        "1843": 60,
        "1844": 40,
        "1845": 28,
        "1846": 100,
        "1847": 246,
        "1848": 180,
        "1849": 252,
        "1850": 51,
        "1851": 228,
        "1852": 59,
        "1853": 95,
        "1854": 67,
        "1855": 247,
        "1856": 65,
        "1857": 180,
        "1858": 223,
        "1859": 96,
        "1860": 44,
        "1861": 134,
        "1862": 209,
        "1863": 214,
        "1864": 144,
        "1865": 221,
        "1866": 239,
        "1867": 67,
        "1868": 103,
        "1869": 8,
        "1870": 0,
        "1871": 192,
        "1872": 70,
        "1873": 225,
        "1874": 147,
        "1875": 120,
        "1876": 84,
        "1877": 183,
        "1878": 219,
        "1879": 138,
        "1880": 34,
        "1881": 71,
        "1882": 155,
        "1883": 124,
        "1884": 174,
        "1885": 197,
        "1886": 74,
        "1887": 206,
        "1888": 112,
        "1889": 121,
        "1890": 21,
        "1891": 40,
        "1892": 55,
        "1893": 138,
        "1894": 108,
        "1895": 192,
        "1896": 141,
        "1897": 22,
        "1898": 251,
        "1899": 151,
        "1900": 70,
        "1901": 150,
        "1902": 82,
        "1903": 230,
        "1904": 137,
        "1905": 29,
        "1906": 199,
        "1907": 151,
        "1908": 146,
        "1909": 250,
        "1910": 111,
        "1911": 0,
        "1912": 236,
        "1913": 53,
        "1914": 39,
        "1915": 31,
        "1916": 247,
        "1917": 176,
        "1918": 130,
        "1919": 147,
        "1920": 157,
        "1921": 18,
        "1922": 201,
        "1923": 70,
        "1924": 33,
        "1925": 98,
        "1926": 86,
        "1927": 122,
        "1928": 138,
        "1929": 54,
        "1930": 230,
        "1931": 135,
        "1932": 219,
        "1933": 188,
        "1934": 57,
        "1935": 29,
        "1936": 207,
        "1937": 184,
        "1938": 173,
        "1939": 184,
        "1940": 111,
        "1941": 42,
        "1942": 14,
        "1943": 204,
        "1944": 117,
        "1945": 180,
        "1946": 225,
        "1947": 71,
        "1948": 72,
        "1949": 236,
        "1950": 168,
        "1951": 86,
        "1952": 201,
        "1953": 155,
        "1954": 203,
        "1955": 113,
        "1956": 14,
        "1957": 170,
        "1958": 18,
        "1959": 163,
        "1960": 136,
        "1961": 49,
        "1962": 142,
        "1963": 140,
        "1964": 196,
        "1965": 5,
        "1966": 93,
        "1967": 63,
        "1968": 67,
        "1969": 253,
        "1970": 130,
        "1971": 134,
        "1972": 121,
        "1973": 126,
        "1974": 238,
        "1975": 127,
        "1976": 233,
        "1977": 42,
        "1978": 15,
        "1979": 174,
        "1980": 53,
        "1981": 101,
        "1982": 237,
        "1983": 240,
        "1984": 153,
        "1985": 212,
        "1986": 185,
        "1987": 38,
        "1988": 248,
        "1989": 145,
        "1990": 45,
        "1991": 130,
        "1992": 22,
        "1993": 196,
        "1994": 148,
        "1995": 158,
        "1996": 139,
        "1997": 206,
        "1998": 240,
        "1999": 199,
        "2000": 1,
        "2001": 44,
        "2002": 113,
        "2003": 23,
        "2004": 169,
        "2005": 9,
        "2006": 131,
        "2007": 152,
        "2008": 167,
        "2009": 87,
        "2010": 83,
        "2011": 54,
        "2012": 20,
        "2013": 124,
        "2014": 99,
        "2015": 98,
        "2016": 180,
        "2017": 220,
        "2018": 205,
        "2019": 145,
        "2020": 218,
        "2021": 31,
        "2022": 210,
        "2023": 53,
        "2024": 70,
        "2025": 190,
        "2026": 24,
        "2027": 204,
        "2028": 251,
        "2029": 187,
        "2030": 86,
        "2031": 84,
        "2032": 159,
        "2033": 13,
        "2034": 67,
        "2035": 196,
        "2036": 23,
        "2037": 203,
        "2038": 182,
        "2039": 169,
        "2040": 248,
        "2041": 55,
        "2042": 93,
        "2043": 41,
        "2044": 97,
        "2045": 241,
        "2046": 2,
        "2047": 11,
        "2048": 37,
        "2049": 151,
        "2050": 241,
        "2051": 144,
        "2052": 1,
        "2053": 191,
        "2054": 108,
        "2055": 20,
        "2056": 255,
        "2057": 151,
        "2058": 99,
        "2059": 195,
        "2060": 105,
        "2061": 10,
        "2062": 217,
        "2063": 28,
        "2064": 165,
        "2065": 127,
        "2066": 161,
        "2067": 166,
        "2068": 86,
        "2069": 53,
        "2070": 169,
        "2071": 75,
        "2072": 247,
        "2073": 252,
        "2074": 110,
        "2075": 125,
        "2076": 104,
        "2077": 7,
        "2078": 130,
        "2079": 207,
        "2080": 25,
        "2081": 225,
        "2082": 155,
        "2083": 53,
        "2084": 27,
        "2085": 50,
        "2086": 175,
        "2087": 205,
        "2088": 145,
        "2089": 75,
        "2090": 247,
        "2091": 142,
        "2092": 250,
        "2093": 221,
        "2094": 224,
        "2095": 149,
        "2096": 121,
        "2097": 180,
        "2098": 5,
        "2099": 57,
        "2100": 34,
        "2101": 92,
        "2102": 34,
        "2103": 181,
        "2104": 90,
        "2105": 135,
        "2106": 117,
        "2107": 55,
        "2108": 243,
        "2109": 29,
        "2110": 49,
        "2111": 189,
        "2112": 228,
        "2113": 142,
        "2114": 11,
        "2115": 223,
        "2116": 202,
        "2117": 85,
        "2118": 235,
        "2119": 119,
        "2120": 24,
        "2121": 156,
        "2122": 83,
        "2123": 58,
        "2124": 233,
        "2125": 72,
        "2126": 156,
        "2127": 22,
        "2128": 128,
        "2129": 227,
        "2130": 107,
        "2131": 101,
        "2132": 249,
        "2133": 26,
        "2134": 76,
        "2135": 26,
        "2136": 179,
        "2137": 171,
        "2138": 144,
        "2139": 34,
        "2140": 247,
        "2141": 83,
        "2142": 255,
        "2143": 71,
        "2144": 252,
        "2145": 215,
        "2146": 28,
        "2147": 163,
        "2148": 205,
        "2149": 247,
        "2150": 49,
        "2151": 110,
        "2152": 98,
        "2153": 24,
        "2154": 103,
        "2155": 135,
        "2156": 232,
        "2157": 253,
        "2158": 178,
        "2159": 212,
        "2160": 134,
        "2161": 231,
        "2162": 143,
        "2163": 97,
        "2164": 255,
        "2165": 207,
        "2166": 66,
        "2167": 186,
        "2168": 142,
        "2169": 56,
        "2170": 110,
        "2171": 195,
        "2172": 88,
        "2173": 190,
        "2174": 247,
        "2175": 96,
        "2176": 137,
        "2177": 210,
        "2178": 121,
        "2179": 88,
        "2180": 134,
        "2181": 25,
        "2182": 236,
        "2183": 66,
        "2184": 176,
        "2185": 11,
        "2186": 201,
        "2187": 214,
        "2188": 80,
        "2189": 240,
        "2190": 237,
        "2191": 129,
        "2192": 143,
        "2193": 247,
        "2194": 174,
        "2195": 195,
        "2196": 5,
        "2197": 90,
        "2198": 234,
        "2199": 24,
        "2200": 85,
        "2201": 122,
        "2202": 134,
        "2203": 139,
        "2204": 9,
        "2205": 252,
        "2206": 26,
        "2207": 133,
        "2208": 129,
        "2209": 114,
        "2210": 145,
        "2211": 12,
        "2212": 8,
        "2213": 141,
        "2214": 34,
        "2215": 85,
        "2216": 45,
        "2217": 187,
        "2218": 93,
        "2219": 77,
        "2220": 82,
        "2221": 232,
        "2222": 71,
        "2223": 191,
        "2224": 223,
        "2225": 85,
        "2226": 162,
        "2227": 183,
        "2228": 181,
        "2229": 218,
        "2230": 202,
        "2231": 40,
        "2232": 206,
        "2233": 165,
        "2234": 154,
        "2235": 183,
        "2236": 152,
        "2237": 45,
        "2238": 200,
        "2239": 213,
        "2240": 54,
        "2241": 188,
        "2242": 167,
        "2243": 11,
        "2244": 134,
        "2245": 72,
        "2246": 188,
        "2247": 240,
        "2248": 58,
        "2249": 126,
        "2250": 113,
        "2251": 227,
        "2252": 174,
        "2253": 251,
        "2254": 250,
        "2255": 227,
        "2256": 169,
        "2257": 241,
        "2258": 95,
        "2259": 114,
        "2260": 240,
        "2261": 210,
        "2262": 171,
        "2263": 194,
        "2264": 182,
        "2265": 17,
        "2266": 159,
        "2267": 174,
        "2268": 251,
        "2269": 95,
        "2270": 64,
        "2271": 92,
        "2272": 117,
        "2273": 4,
        "2274": 152,
        "2275": 96,
        "2276": 157,
        "2277": 77,
        "2278": 236,
        "2279": 233,
        "2280": 173,
        "2281": 159,
        "2282": 95,
        "2283": 81,
        "2284": 207,
        "2285": 74,
        "2286": 95,
        "2287": 243,
        "2288": 233,
        "2289": 90,
        "2290": 193,
        "2291": 231,
        "2292": 164,
        "2293": 42,
        "2294": 236,
        "2295": 7,
        "2296": 167,
        "2297": 74,
        "2298": 224,
        "2299": 62,
        "2300": 252,
        "2301": 90,
        "2302": 188,
        "2303": 69,
        "2304": 205,
        "2305": 52,
        "2306": 142,
        "2307": 155,
        "2308": 61,
        "2309": 243,
        "2310": 9,
        "2311": 61,
        "2312": 3,
        "2313": 12,
        "2314": 104,
        "2315": 136,
        "2316": 72,
        "2317": 10,
        "2318": 245,
        "2319": 201,
        "2320": 185,
        "2321": 7,
        "2322": 127,
        "2323": 115,
        "2324": 143,
        "2325": 215,
        "2326": 19,
        "2327": 30,
        "2328": 184,
        "2329": 61,
        "2330": 207,
        "2331": 84,
        "2332": 85,
        "2333": 98,
        "2334": 191,
        "2335": 158,
        "2336": 30,
        "2337": 237,
        "2338": 204,
        "2339": 247,
        "2340": 76,
        "2341": 215,
        "2342": 254,
        "2343": 253,
        "2344": 9,
        "2345": 20,
        "2346": 11,
        "2347": 221,
        "2348": 45,
        "2349": 7,
        "2350": 212,
        "2351": 237,
        "2352": 203,
        "2353": 250,
        "2354": 232,
        "2355": 54,
        "2356": 182,
        "2357": 69,
        "2358": 19,
        "2359": 143,
        "2360": 79,
        "2361": 125,
        "2362": 39,
        "2363": 230,
        "2364": 163,
        "2365": 191,
        "2366": 126,
        "2367": 34,
        "2368": 102,
        "2369": 206,
        "2370": 127,
        "2371": 237,
        "2372": 170,
        "2373": 217,
        "2374": 237,
        "2375": 113,
        "2376": 21,
        "2377": 33,
        "2378": 104,
        "2379": 168,
        "2380": 197,
        "2381": 15,
        "2382": 13,
        "2383": 253,
        "2384": 83,
        "2385": 191,
        "2386": 57,
        "2387": 137,
        "2388": 217,
        "2389": 236,
        "2390": 237,
        "2391": 148,
        "2392": 0,
        "2393": 115,
        "2394": 47,
        "2395": 98,
        "2396": 199,
        "2397": 137,
        "2398": 142,
        "2399": 74,
        "2400": 189,
        "2401": 15,
        "2402": 77,
        "2403": 148,
        "2404": 194,
        "2405": 185,
        "2406": 182,
        "2407": 1,
        "2408": 214,
        "2409": 3,
        "2410": 140,
        "2411": 184,
        "2412": 51,
        "2413": 74,
        "2414": 208,
        "2415": 114,
        "2416": 136,
        "2417": 102,
        "2418": 194,
        "2419": 193,
        "2420": 44,
        "2421": 102,
        "2422": 184,
        "2423": 112,
        "2424": 69,
        "2425": 17,
        "2426": 117,
        "2427": 99,
        "2428": 49,
        "2429": 30,
        "2430": 83,
        "2431": 66,
        "2432": 53,
        "2433": 144,
        "2434": 25,
        "2435": 29,
        "2436": 5,
        "2437": 69,
        "2438": 143,
        "2439": 29,
        "2440": 44,
        "2441": 137,
        "2442": 108,
        "2443": 97,
        "2444": 238,
        "2445": 101,
        "2446": 254,
        "2447": 232,
        "2448": 125,
        "2449": 150,
        "2450": 59,
        "2451": 193,
        "2452": 178,
        "2453": 229,
        "2454": 15,
        "2455": 103,
        "2456": 200,
        "2457": 190,
        "2458": 178,
        "2459": 229,
        "2460": 11,
        "2461": 73,
        "2462": 111,
        "2463": 56,
        "2464": 193,
        "2465": 179,
        "2466": 17,
        "2467": 131,
        "2468": 68,
        "2469": 23,
        "2470": 17,
        "2471": 211,
        "2472": 188,
        "2473": 130,
        "2474": 203,
        "2475": 104,
        "2476": 226,
        "2477": 36,
        "2478": 46,
        "2479": 92,
        "2480": 106,
        "2481": 189,
        "2482": 77,
        "2483": 96,
        "2484": 65,
        "2485": 230,
        "2486": 9,
        "2487": 241,
        "2488": 84,
        "2489": 136,
        "2490": 71,
        "2491": 241,
        "2492": 32,
        "2493": 192,
        "2494": 243,
        "2495": 75,
        "2496": 70,
        "2497": 56,
        "2498": 20,
        "2499": 20,
        "2500": 34,
        "2501": 88,
        "2502": 144,
        "2503": 24,
        "2504": 178,
        "2505": 123,
        "2506": 70,
        "2507": 66,
        "2508": 227,
        "2509": 240,
        "2510": 43,
        "2511": 237,
        "2512": 60,
        "2513": 11,
        "2514": 49,
        "2515": 64,
        "2516": 164,
        "2517": 7,
        "2518": 86,
        "2519": 245,
        "2520": 53,
        "2521": 228,
        "2522": 250,
        "2523": 89,
        "2524": 126,
        "2525": 69,
        "2526": 218,
        "2527": 52,
        "2528": 211,
        "2529": 216,
        "2530": 0,
        "2531": 251,
        "2532": 161,
        "2533": 120,
        "2534": 94,
        "2535": 52,
        "2536": 254,
        "2537": 198,
        "2538": 69,
        "2539": 102,
        "2540": 98,
        "2541": 64,
        "2542": 62,
        "2543": 223,
        "2544": 72,
        "2545": 99,
        "2546": 45,
        "2547": 40,
        "2548": 206,
        "2549": 198,
        "2550": 200,
        "2551": 160,
        "2552": 34,
        "2553": 67,
        "2554": 141,
        "2555": 153,
        "2556": 210,
        "2557": 116,
        "2558": 60,
        "2559": 71,
        "2560": 198,
        "2561": 46,
        "2562": 78,
        "2563": 36,
        "2564": 87,
        "2565": 68,
        "2566": 26,
        "2567": 220,
        "2568": 154,
        "2569": 83,
        "2570": 19,
        "2571": 130,
        "2572": 163,
        "2573": 53,
        "2574": 36,
        "2575": 18,
        "2576": 232,
        "2577": 218,
        "2578": 72,
        "2579": 207,
        "2580": 87,
        "2581": 16,
        "2582": 173,
        "2583": 83,
        "2584": 203,
        "2585": 111,
        "2586": 1,
        "2587": 109,
        "2588": 65,
        "2589": 213,
        "2590": 220,
        "2591": 72,
        "2592": 86,
        "2593": 72,
        "2594": 11,
        "2595": 226,
        "2596": 7,
        "2597": 92,
        "2598": 55,
        "2599": 236,
        "2600": 223,
        "2601": 120,
        "2602": 23,
        "2603": 239,
        "2604": 162,
        "2605": 221,
        "2606": 229,
        "2607": 61,
        "2608": 76,
        "2609": 90,
        "2610": 26,
        "2611": 224,
        "2612": 167,
        "2613": 218,
        "2614": 207,
        "2615": 56,
        "2616": 192,
        "2617": 182,
        "2618": 76,
        "2619": 198,
        "2620": 182,
        "2621": 184,
        "2622": 149,
        "2623": 111,
        "2624": 239,
        "2625": 49,
        "2626": 131,
        "2627": 253,
        "2628": 155,
        "2629": 230,
        "2630": 195,
        "2631": 28,
        "2632": 147,
        "2633": 233,
        "2634": 88,
        "2635": 217,
        "2636": 69,
        "2637": 176,
        "2638": 88,
        "2639": 99,
        "2640": 234,
        "2641": 43,
        "2642": 28,
        "2643": 159,
        "2644": 67,
        "2645": 182,
        "2646": 24,
        "2647": 63,
        "2648": 28,
        "2649": 244,
        "2650": 12,
        "2651": 121,
        "2652": 156,
        "2653": 187,
        "2654": 145,
        "2655": 193,
        "2656": 20,
        "2657": 38,
        "2658": 98,
        "2659": 30,
        "2660": 19,
        "2661": 255,
        "2662": 31,
        "2663": 191,
        "2664": 191,
        "2665": 47,
        "2666": 134,
        "2667": 173,
        "2668": 107,
        "2669": 15,
        "2670": 144,
        "2671": 238,
        "2672": 8,
        "2673": 203,
        "2674": 162,
        "2675": 221,
        "2676": 29,
        "2677": 140,
        "2678": 178,
        "2679": 58,
        "2680": 241,
        "2681": 0,
        "2682": 221,
        "2683": 16,
        "2684": 229,
        "2685": 54,
        "2686": 49,
        "2687": 165,
        "2688": 244,
        "2689": 0,
        "2690": 109,
        "2691": 83,
        "2692": 166,
        "2693": 75,
        "2694": 73,
        "2695": 222,
        "2696": 90,
        "2697": 18,
        "2698": 99,
        "2699": 192,
        "2700": 93,
        "2701": 216,
        "2702": 178,
        "2703": 201,
        "2704": 144,
        "2705": 253,
        "2706": 211,
        "2707": 180,
        "2708": 159,
        "2709": 155,
        "2710": 13,
        "2711": 152,
        "2712": 129,
        "2713": 96,
        "2714": 25,
        "2715": 253,
        "2716": 11,
        "2717": 244,
        "2718": 98,
        "2719": 159,
        "2720": 193,
        "2721": 153,
        "2722": 201,
        "2723": 183,
        "2724": 228,
        "2725": 100,
        "2726": 185,
        "2727": 109,
        "2728": 186,
        "2729": 243,
        "2730": 134,
        "2731": 15,
        "2732": 122,
        "2733": 1,
        "2734": 63,
        "2735": 25,
        "2736": 245,
        "2737": 141,
        "2738": 216,
        "2739": 107,
        "2740": 187,
        "2741": 100,
        "2742": 189,
        "2743": 86,
        "2744": 138,
        "2745": 116,
        "2746": 21,
        "2747": 173,
        "2748": 103,
        "2749": 202,
        "2750": 44,
        "2751": 207,
        "2752": 57,
        "2753": 99,
        "2754": 214,
        "2755": 150,
        "2756": 243,
        "2757": 33,
        "2758": 40,
        "2759": 149,
        "2760": 100,
        "2761": 183,
        "2762": 96,
        "2763": 6,
        "2764": 20,
        "2765": 73,
        "2766": 98,
        "2767": 156,
        "2768": 238,
        "2769": 86,
        "2770": 249,
        "2771": 210,
        "2772": 152,
        "2773": 222,
        "2774": 36,
        "2775": 18,
        "2776": 97,
        "2777": 195,
        "2778": 70,
        "2779": 167,
        "2780": 21,
        "2781": 111,
        "2782": 98,
        "2783": 167,
        "2784": 244,
        "2785": 160,
        "2786": 182,
        "2787": 214,
        "2788": 225,
        "2789": 171,
        "2790": 211,
        "2791": 35,
        "2792": 159,
        "2793": 220,
        "2794": 208,
        "2795": 78,
        "2796": 248,
        "2797": 106,
        "2798": 122,
        "2799": 65,
        "2800": 3,
        "2801": 19,
        "2802": 27,
        "2803": 77,
        "2804": 70,
        "2805": 236,
        "2806": 36,
        "2807": 229,
        "2808": 7,
        "2809": 250,
        "2810": 5,
        "2811": 147,
        "2812": 20,
        "2813": 102,
        "2814": 107,
        "2815": 215,
        "2816": 59,
        "2817": 195,
        "2818": 65,
        "2819": 158,
        "2820": 36,
        "2821": 98,
        "2822": 237,
        "2823": 82,
        "2824": 173,
        "2825": 103,
        "2826": 51,
        "2827": 10,
        "2828": 250,
        "2829": 253,
        "2830": 248,
        "2831": 27,
        "2832": 137,
        "2833": 110,
        "2834": 42,
        "2835": 53,
        "2836": 37,
        "2837": 211,
        "2838": 84,
        "2839": 170,
        "2840": 158,
        "2841": 108,
        "2842": 110,
        "2843": 128,
        "2844": 202,
        "2845": 90,
        "2846": 171,
        "2847": 32,
        "2848": 101,
        "2849": 70,
        "2850": 59,
        "2851": 54,
        "2852": 199,
        "2853": 155,
        "2854": 196,
        "2855": 3,
        "2856": 172,
        "2857": 7,
        "2858": 165,
        "2859": 197,
        "2860": 168,
        "2861": 29,
        "2862": 65,
        "2863": 53,
        "2864": 174,
        "2865": 63,
        "2866": 129,
        "2867": 229,
        "2868": 39,
        "2869": 110,
        "2870": 104,
        "2871": 20,
        "2872": 104,
        "2873": 218,
        "2874": 5,
        "2875": 82,
        "2876": 33,
        "2877": 221,
        "2878": 171,
        "2879": 241,
        "2880": 193,
        "2881": 201,
        "2882": 109,
        "2883": 165,
        "2884": 199,
        "2885": 255,
        "2886": 160,
        "2887": 191,
        "2888": 216,
        "2889": 203,
        "2890": 195,
        "2891": 225,
        "2892": 214,
        "2893": 132,
        "2894": 69,
        "2895": 74,
        "2896": 161,
        "2897": 15,
        "2898": 253,
        "2899": 204,
        "2900": 56,
        "2901": 21,
        "2902": 226,
        "2903": 47,
        "2904": 113,
        "2905": 204,
        "2906": 60,
        "2907": 51,
        "2908": 104,
        "2909": 126,
        "2910": 77,
        "2911": 254,
        "2912": 185,
        "2913": 117,
        "2914": 119,
        "2915": 153,
        "2916": 178,
        "2917": 10,
        "2918": 176,
        "2919": 129,
        "2920": 93,
        "2921": 194,
        "2922": 117,
        "2923": 116,
        "2924": 48,
        "2925": 91,
        "2926": 36,
        "2927": 121,
        "2928": 12,
        "2929": 94,
        "2930": 138,
        "2931": 15,
        "2932": 217,
        "2933": 203,
        "2934": 140,
        "2935": 3,
        "2936": 106,
        "2937": 219,
        "2938": 216,
        "2939": 202,
        "2940": 159,
        "2941": 204,
        "2942": 213,
        "2943": 33,
        "2944": 178,
        "2945": 129,
        "2946": 177,
        "2947": 113,
        "2948": 37,
        "2949": 119,
        "2950": 148,
        "2951": 146,
        "2952": 101,
        "2953": 138,
        "2954": 187,
        "2955": 137,
        "2956": 106,
        "2957": 193,
        "2958": 141,
        "2959": 63,
        "2960": 73,
        "2961": 181,
        "2962": 39,
        "2963": 115,
        "2964": 174,
        "2965": 209,
        "2966": 135,
        "2967": 228,
        "2968": 188,
        "2969": 214,
        "2970": 195,
        "2971": 174,
        "2972": 86,
        "2973": 234,
        "2974": 26,
        "2975": 127,
        "2976": 131,
        "2977": 165,
        "2978": 44,
        "2979": 5,
        "2980": 211,
        "2981": 148,
        "2982": 163,
        "2983": 250,
        "2984": 78,
        "2985": 111,
        "2986": 112,
        "2987": 63,
        "2988": 227,
        "2989": 167,
        "2990": 199,
        "2991": 180,
        "2992": 241,
        "2993": 91,
        "2994": 181,
        "2995": 70,
        "2996": 202,
        "2997": 18,
        "2998": 219,
        "2999": 68,
        "3000": 163,
        "3001": 155,
        "3002": 154,
        "3003": 33,
        "3004": 116,
        "3005": 15,
        "3006": 136,
        "3007": 135,
        "3008": 86,
        "3009": 224,
        "3010": 136,
        "3011": 100,
        "3012": 115,
        "3013": 202,
        "3014": 88,
        "3015": 68,
        "3016": 101,
        "3017": 39,
        "3018": 178,
        "3019": 238,
        "3020": 239,
        "3021": 176,
        "3022": 248,
        "3023": 4,
        "3024": 134,
        "3025": 179,
        "3026": 40,
        "3027": 52,
        "3028": 25,
        "3029": 8,
        "3030": 88,
        "3031": 133,
        "3032": 3,
        "3033": 122,
        "3034": 180,
        "3035": 163,
        "3036": 160,
        "3037": 21,
        "3038": 183,
        "3039": 226,
        "3040": 50,
        "3041": 93,
        "3042": 18,
        "3043": 118,
        "3044": 223,
        "3045": 207,
        "3046": 147,
        "3047": 65,
        "3048": 145,
        "3049": 228,
        "3050": 52,
        "3051": 227,
        "3052": 16,
        "3053": 192,
        "3054": 175,
        "3055": 153,
        "3056": 100,
        "3057": 71,
        "3058": 114,
        "3059": 137,
        "3060": 130,
        "3061": 251,
        "3062": 241,
        "3063": 101,
        "3064": 111,
        "3065": 178,
        "3066": 245,
        "3067": 223,
        "3068": 83,
        "3069": 162,
        "3070": 86,
        "3071": 230,
        "3072": 190,
        "3073": 104,
        "3074": 251,
        "3075": 92,
        "3076": 90,
        "3077": 1,
        "3078": 138,
        "3079": 161,
        "3080": 211,
        "3081": 163,
        "3082": 232,
        "3083": 139,
        "3084": 211,
        "3085": 194,
        "3086": 86,
        "3087": 180,
        "3088": 35,
        "3089": 116,
        "3090": 229,
        "3091": 6,
        "3092": 149,
        "3093": 154,
        "3094": 254,
        "3095": 234,
        "3096": 17,
        "3097": 252,
        "3098": 197,
        "3099": 73,
        "3100": 178,
        "3101": 28,
        "3102": 186,
        "3103": 186,
        "3104": 34,
        "3105": 93,
        "3106": 151,
        "3107": 219,
        "3108": 100,
        "3109": 242,
        "3110": 167,
        "3111": 76,
        "3112": 238,
        "3113": 62,
        "3114": 57,
        "3115": 119,
        "3116": 153,
        "3117": 84,
        "3118": 243,
        "3119": 128,
        "3120": 197,
        "3121": 0,
        "3122": 107,
        "3123": 54,
        "3124": 51,
        "3125": 162,
        "3126": 232,
        "3127": 23,
        "3128": 195,
        "3129": 72,
        "3130": 45,
        "3131": 102,
        "3132": 97,
        "3133": 234,
        "3134": 135,
        "3135": 164,
        "3136": 137,
        "3137": 20,
        "3138": 0,
        "3139": 252,
        "3140": 167,
        "3141": 207,
        "3142": 142,
        "3143": 147,
        "3144": 243,
        "3145": 88,
        "3146": 117,
        "3147": 137,
        "3148": 154,
        "3149": 116,
        "3150": 24,
        "3151": 123,
        "3152": 128,
        "3153": 186,
        "3154": 99,
        "3155": 214,
        "3156": 244,
        "3157": 152,
        "3158": 165,
        "3159": 12,
        "3160": 199,
        "3161": 108,
        "3162": 222,
        "3163": 115,
        "3164": 234,
        "3165": 243,
        "3166": 84,
        "3167": 26,
        "3168": 75,
        "3169": 57,
        "3170": 236,
        "3171": 17,
        "3172": 13,
        "3173": 132,
        "3174": 50,
        "3175": 110,
        "3176": 76,
        "3177": 59,
        "3178": 1,
        "3179": 159,
        "3180": 97,
        "3181": 240,
        "3182": 169,
        "3183": 227,
        "3184": 146,
        "3185": 253,
        "3186": 231,
        "3187": 109,
        "3188": 158,
        "3189": 56,
        "3190": 65,
        "3191": 12,
        "3192": 22,
        "3193": 206,
        "3194": 164,
        "3195": 87,
        "3196": 93,
        "3197": 115,
        "3198": 114,
        "3199": 248,
        "3200": 78,
        "3201": 219,
        "3202": 108,
        "3203": 149,
        "3204": 65,
        "3205": 131,
        "3206": 36,
        "3207": 128,
        "3208": 23,
        "3209": 51,
        "3210": 86,
        "3211": 50,
        "3212": 137,
        "3213": 40,
        "3214": 198,
        "3215": 221,
        "3216": 111,
        "3217": 28,
        "3218": 225,
        "3219": 97,
        "3220": 187,
        "3221": 88,
        "3222": 162,
        "3223": 178,
        "3224": 92,
        "3225": 28,
        "3226": 133,
        "3227": 69,
        "3228": 44,
        "3229": 196,
        "3230": 228,
        "3231": 39,
        "3232": 214,
        "3233": 43,
        "3234": 125,
        "3235": 95,
        "3236": 156,
        "3237": 133,
        "3238": 229,
        "3239": 138,
        "3240": 28,
        "3241": 92,
        "3242": 93,
        "3243": 236,
        "3244": 24,
        "3245": 218,
        "3246": 162,
        "3247": 56,
        "3248": 69,
        "3249": 133,
        "3250": 134,
        "3251": 215,
        "3252": 165,
        "3253": 246,
        "3254": 34,
        "3255": 104,
        "3256": 138,
        "3257": 186,
        "3258": 170,
        "3259": 125,
        "3260": 64,
        "3261": 255,
        "3262": 243,
        "3263": 171,
        "3264": 59,
        "3265": 17,
        "3266": 113,
        "3267": 250,
        "3268": 112,
        "3269": 71,
        "3270": 165,
        "3271": 99,
        "3272": 152,
        "3273": 219,
        "3274": 111,
        "3275": 40,
        "3276": 51,
        "3277": 213,
        "3278": 114,
        "3279": 17,
        "3280": 248,
        "3281": 72,
        "3282": 212,
        "3283": 160,
        "3284": 100,
        "3285": 236,
        "3286": 88,
        "3287": 55,
        "3288": 148,
        "3289": 0,
        "3290": 43,
        "3291": 168,
        "3292": 20,
        "3293": 186,
        "3294": 168,
        "3295": 96,
        "3296": 44,
        "3297": 87,
        "3298": 6,
        "3299": 113,
        "3300": 32,
        "3301": 250,
        "3302": 117,
        "3303": 60,
        "3304": 12,
        "3305": 229,
        "3306": 77,
        "3307": 28,
        "3308": 67,
        "3309": 87,
        "3310": 146,
        "3311": 229,
        "3312": 113,
        "3313": 87,
        "3314": 7,
        "3315": 123,
        "3316": 212,
        "3317": 210,
        "3318": 72,
        "3319": 60,
        "3320": 16,
        "3321": 34,
        "3322": 207,
        "3323": 24,
        "3324": 19,
        "3325": 31,
        "3326": 163,
        "3327": 67,
        "3328": 249,
        "3329": 173,
        "3330": 220,
        "3331": 83,
        "3332": 212,
        "3333": 65,
        "3334": 183,
        "3335": 161,
        "3336": 101,
        "3337": 25,
        "3338": 96,
        "3339": 54,
        "3340": 246,
        "3341": 188,
        "3342": 208,
        "3343": 235,
        "3344": 59,
        "3345": 49,
        "3346": 152,
        "3347": 88,
        "3348": 88,
        "3349": 159,
        "3350": 124,
        "3351": 231,
        "3352": 36,
        "3353": 248,
        "3354": 92,
        "3355": 219,
        "3356": 145,
        "3357": 187,
        "3358": 43,
        "3359": 110,
        "3360": 4,
        "3361": 170,
        "3362": 63,
        "3363": 59,
        "3364": 221,
        "3365": 139,
        "3366": 80,
        "3367": 199,
        "3368": 47,
        "3369": 234,
        "3370": 156,
        "3371": 223,
        "3372": 191,
        "3373": 51,
        "3374": 132,
        "3375": 166,
        "3376": 246,
        "3377": 123,
        "3378": 185,
        "3379": 186,
        "3380": 62,
        "3381": 66,
        "3382": 175,
        "3383": 231,
        "3384": 32,
        "3385": 208,
        "3386": 161,
        "3387": 188,
        "3388": 65,
        "3389": 201,
        "3390": 23,
        "3391": 233,
        "3392": 90,
        "3393": 131,
        "3394": 117,
        "3395": 168,
        "3396": 253,
        "3397": 103,
        "3398": 240,
        "3399": 255,
        "3400": 165,
        "3401": 139,
        "3402": 149,
        "3403": 182,
        "3404": 23,
        "3405": 71,
        "3406": 69,
        "3407": 111,
        "3408": 89,
        "3409": 18,
        "3410": 183,
        "3411": 222,
        "3412": 235,
        "3413": 96,
        "3414": 45,
        "3415": 53,
        "3416": 241,
        "3417": 61,
        "3418": 73,
        "3419": 128,
        "3420": 107,
        "3421": 201,
        "3422": 17,
        "3423": 82,
        "3424": 54,
        "3425": 248,
        "3426": 51,
        "3427": 119,
        "3428": 72,
        "3429": 128,
        "3430": 93,
        "3431": 105,
        "3432": 229,
        "3433": 231,
        "3434": 95,
        "3435": 10,
        "3436": 196,
        "3437": 37,
        "3438": 91,
        "3439": 51,
        "3440": 71,
        "3441": 75,
        "3442": 80,
        "3443": 92,
        "3444": 33,
        "3445": 56,
        "3446": 250,
        "3447": 110,
        "3448": 76,
        "3449": 13,
        "3450": 96,
        "3451": 204,
        "3452": 113,
        "3453": 138,
        "3454": 95,
        "3455": 189,
        "3456": 208,
        "3457": 0,
        "3458": 24,
        "3459": 248,
        "3460": 33,
        "3461": 230,
        "3462": 6,
        "3463": 195,
        "3464": 187,
        "3465": 69,
        "3466": 144,
        "3467": 105,
        "3468": 149,
        "3469": 13,
        "3470": 227,
        "3471": 194,
        "3472": 105,
        "3473": 223,
        "3474": 85,
        "3475": 248,
        "3476": 187,
        "3477": 209,
        "3478": 40,
        "3479": 190,
        "3480": 29,
        "3481": 93,
        "3482": 165,
        "3483": 156,
        "3484": 54,
        "3485": 75,
        "3486": 161,
        "3487": 148,
        "3488": 203,
        "3489": 177,
        "3490": 139,
        "3491": 2,
        "3492": 12,
        "3493": 185,
        "3494": 144,
        "3495": 194,
        "3496": 111,
        "3497": 135,
        "3498": 3,
        "3499": 11,
        "3500": 227,
        "3501": 254,
        "3502": 209,
        "3503": 105,
        "3504": 237,
        "3505": 214,
        "3506": 159,
        "3507": 124,
        "3508": 25,
        "3509": 246,
        "3510": 224,
        "3511": 102,
        "3512": 190,
        "3513": 201,
        "3514": 203,
        "3515": 131,
        "3516": 248,
        "3517": 29,
        "3518": 117,
        "3519": 88,
        "3520": 174,
        "3521": 203,
        "3522": 107,
        "3523": 247,
        "3524": 153,
        "3525": 137,
        "3526": 25,
        "3527": 190,
        "3528": 74,
        "3529": 53,
        "3530": 14,
        "3531": 125,
        "3532": 54,
        "3533": 12,
        "3534": 244,
        "3535": 20,
        "3536": 222,
        "3537": 192,
        "3538": 70,
        "3539": 241,
        "3540": 253,
        "3541": 221,
        "3542": 253,
        "3543": 191,
        "3544": 120,
        "3545": 46,
        "3546": 79,
        "3547": 177,
        "3548": 141,
        "3549": 229,
        "3550": 104,
        "3551": 202,
        "3552": 125,
        "3553": 78,
        "3554": 30,
        "3555": 63,
        "3556": 28,
        "3557": 100,
        "3558": 59,
        "3559": 134,
        "3560": 39,
        "3561": 38,
        "3562": 207,
        "3563": 103,
        "3564": 243,
        "3565": 54,
        "3566": 147,
        "3567": 122,
        "3568": 134,
        "3569": 8,
        "3570": 109,
        "3571": 220,
        "3572": 119,
        "3573": 56,
        "3574": 6,
        "3575": 159,
        "3576": 217,
        "3577": 65,
        "3578": 167,
        "3579": 169,
        "3580": 242,
        "3581": 209,
        "3582": 57,
        "3583": 183,
        "3584": 136,
        "3585": 203,
        "3586": 236,
        "3587": 39,
        "3588": 224,
        "3589": 134,
        "3590": 230,
        "3591": 254,
        "3592": 205,
        "3593": 161,
        "3594": 184,
        "3595": 112,
        "3596": 11,
        "3597": 91,
        "3598": 227,
        "3599": 188,
        "3600": 134,
        "3601": 25,
        "3602": 174,
        "3603": 152,
        "3604": 24,
        "3605": 71,
        "3606": 96,
        "3607": 120,
        "3608": 112,
        "3609": 178,
        "3610": 191,
        "3611": 248,
        "3612": 188,
        "3613": 68,
        "3614": 247,
        "3615": 161,
        "3616": 136,
        "3617": 254,
        "3618": 13,
        "3619": 107,
        "3620": 205,
        "3621": 91,
        "3622": 119,
        "3623": 49,
        "3624": 172,
        "3625": 197,
        "3626": 89,
        "3627": 114,
        "3628": 203,
        "3629": 37,
        "3630": 227,
        "3631": 35,
        "3632": 80,
        "3633": 159,
        "3634": 38,
        "3635": 63,
        "3636": 36,
        "3637": 115,
        "3638": 226,
        "3639": 144,
        "3640": 95,
        "3641": 20,
        "3642": 237,
        "3643": 224,
        "3644": 139,
        "3645": 18,
        "3646": 81,
        "3647": 23,
        "3648": 47,
        "3649": 31,
        "3650": 169,
        "3651": 45,
        "3652": 19,
        "3653": 130,
        "3654": 176,
        "3655": 11,
        "3656": 51,
        "3657": 42,
        "3658": 134,
        "3659": 79,
        "3660": 49,
        "3661": 231,
        "3662": 148,
        "3663": 211,
        "3664": 187,
        "3665": 158,
        "3666": 110,
        "3667": 204,
        "3668": 29,
        "3669": 45,
        "3670": 217,
        "3671": 149,
        "3672": 236,
        "3673": 20,
        "3674": 86,
        "3675": 44,
        "3676": 55,
        "3677": 40,
        "3678": 128,
        "3679": 227,
        "3680": 194,
        "3681": 133,
        "3682": 28,
        "3683": 87,
        "3684": 129,
        "3685": 128,
        "3686": 182,
        "3687": 133,
        "3688": 156,
        "3689": 33,
        "3690": 116,
        "3691": 43,
        "3692": 152,
        "3693": 93,
        "3694": 49,
        "3695": 26,
        "3696": 23,
        "3697": 1,
        "3698": 197,
        "3699": 151,
        "3700": 94,
        "3701": 67,
        "3702": 145,
        "3703": 206,
        "3704": 67,
        "3705": 78,
        "3706": 203,
        "3707": 121,
        "3708": 178,
        "3709": 127,
        "3710": 88,
        "3711": 30,
        "3712": 147,
        "3713": 230,
        "3714": 221,
        "3715": 254,
        "3716": 191,
        "3717": 62,
        "3718": 140,
        "3719": 220,
        "3720": 210,
        "3721": 190,
        "3722": 124,
        "3723": 94,
        "3724": 87,
        "3725": 200,
        "3726": 233,
        "3727": 201,
        "3728": 26,
        "3729": 178,
        "3730": 144,
        "3731": 227,
        "3732": 141,
        "3733": 59,
        "3734": 160,
        "3735": 73,
        "3736": 71,
        "3737": 163,
        "3738": 16,
        "3739": 61,
        "3740": 127,
        "3741": 61,
        "3742": 188,
        "3743": 144,
        "3744": 194,
        "3745": 53,
        "3746": 14,
        "3747": 192,
        "3748": 201,
        "3749": 27,
        "3750": 60,
        "3751": 136,
        "3752": 235,
        "3753": 52,
        "3754": 165,
        "3755": 142,
        "3756": 6,
        "3757": 133,
        "3758": 87,
        "3759": 6,
        "3760": 70,
        "3761": 226,
        "3762": 135,
        "3763": 173,
        "3764": 155,
        "3765": 66,
        "3766": 104,
        "3767": 187,
        "3768": 145,
        "3769": 92,
        "3770": 93,
        "3771": 127,
        "3772": 183,
        "3773": 35,
        "3774": 195,
        "3775": 236,
        "3776": 193,
        "3777": 93,
        "3778": 0,
        "3779": 72,
        "3780": 214,
        "3781": 245,
        "3782": 252,
        "3783": 102,
        "3784": 161,
        "3785": 112,
        "3786": 102,
        "3787": 64,
        "3788": 232,
        "3789": 141,
        "3790": 21,
        "3791": 173,
        "3792": 220,
        "3793": 254,
        "3794": 120,
        "3795": 220,
        "3796": 228,
        "3797": 252,
        "3798": 149,
        "3799": 99,
        "3800": 178,
        "3801": 82,
        "3802": 30,
        "3803": 214,
        "3804": 206,
        "3805": 124,
        "3806": 63,
        "3807": 230,
        "3808": 35,
        "3809": 193,
        "3810": 164,
        "3811": 253,
        "3812": 33,
        "3813": 175,
        "3814": 192,
        "3815": 61,
        "3816": 157,
        "3817": 224,
        "3818": 66,
        "3819": 241,
        "3820": 116,
        "3821": 115,
        "3822": 129,
        "3823": 154,
        "3824": 17,
        "3825": 209,
        "3826": 175,
        "3827": 84,
        "3828": 131,
        "3829": 43,
        "3830": 154,
        "3831": 217,
        "3832": 208,
        "3833": 212,
        "3834": 174,
        "3835": 233,
        "3836": 80,
        "3837": 88,
        "3838": 4,
        "3839": 23,
        "3840": 159,
        "3841": 122,
        "3842": 114,
        "3843": 129,
        "3844": 113,
        "3845": 34,
        "3846": 153,
        "3847": 77,
        "3848": 158,
        "3849": 80,
        "3850": 39,
        "3851": 236,
        "3852": 158,
        "3853": 123,
        "3854": 223,
        "3855": 98,
        "3856": 79,
        "3857": 74,
        "3858": 60,
        "3859": 220,
        "3860": 227,
        "3861": 222,
        "3862": 194,
        "3863": 172,
        "3864": 182,
        "3865": 216,
        "3866": 213,
        "3867": 210,
        "3868": 221,
        "3869": 156,
        "3870": 235,
        "3871": 118,
        "3872": 200,
        "3873": 18,
        "3874": 206,
        "3875": 244,
        "3876": 219,
        "3877": 79,
        "3878": 130,
        "3879": 0,
        "3880": 174,
        "3881": 111,
        "3882": 37,
        "3883": 211,
        "3884": 164,
        "3885": 250,
        "3886": 170,
        "3887": 48,
        "3888": 241,
        "3889": 60,
        "3890": 224,
        "3891": 31,
        "3892": 26,
        "3893": 62,
        "3894": 27,
        "3895": 2,
        "3896": 157,
        "3897": 114,
        "3898": 150,
        "3899": 204,
        "3900": 141,
        "3901": 57,
        "3902": 12,
        "3903": 9,
        "3904": 68,
        "3905": 124,
        "3906": 170,
        "3907": 97,
        "3908": 125,
        "3909": 198,
        "3910": 216,
        "3911": 144,
        "3912": 27,
        "3913": 125,
        "3914": 34,
        "3915": 51,
        "3916": 199,
        "3917": 102,
        "3918": 85,
        "3919": 255,
        "3920": 84,
        "3921": 190,
        "3922": 246,
        "3923": 250,
        "3924": 17,
        "3925": 245,
        "3926": 142,
        "3927": 35,
        "3928": 186,
        "3929": 218,
        "3930": 38,
        "3931": 6,
        "3932": 32,
        "3933": 152,
        "3934": 117,
        "3935": 61,
        "3936": 105,
        "3937": 178,
        "3938": 57,
        "3939": 55,
        "3940": 108,
        "3941": 167,
        "3942": 223,
        "3943": 248,
        "3944": 173,
        "3945": 17,
        "3946": 3,
        "3947": 209,
        "3948": 107,
        "3949": 190,
        "3950": 223,
        "3951": 82,
        "3952": 240,
        "3953": 195,
        "3954": 147,
        "3955": 87,
        "3956": 192,
        "3957": 231,
        "3958": 164,
        "3959": 178,
        "3960": 75,
        "3961": 120,
        "3962": 253,
        "3963": 233,
        "3964": 220,
        "3965": 106,
        "3966": 10,
        "3967": 97,
        "3968": 160,
        "3969": 183,
        "3970": 64,
        "3971": 68,
        "3972": 27,
        "3973": 135,
        "3974": 91,
        "3975": 194,
        "3976": 202,
        "3977": 128,
        "3978": 138,
        "3979": 85,
        "3980": 207,
        "3981": 106,
        "3982": 208,
        "3983": 136,
        "3984": 250,
        "3985": 108,
        "3986": 148,
        "3987": 52,
        "3988": 121,
        "3989": 148,
        "3990": 128,
        "3991": 80,
        "3992": 30,
        "3993": 48,
        "3994": 57,
        "3995": 23,
        "3996": 230,
        "3997": 243,
        "3998": 196,
        "3999": 5,
        "4000": 210,
        "4001": 102,
        "4002": 10,
        "4003": 102,
        "4004": 209,
        "4005": 195,
        "4006": 60,
        "4007": 253,
        "4008": 185,
        "4009": 242,
        "4010": 63,
        "4011": 146,
        "4012": 3,
        "4013": 112,
        "4014": 74,
        "4015": 118,
        "4016": 83,
        "4017": 187,
        "4018": 44,
        "4019": 15,
        "4020": 238,
        "4021": 185,
        "4022": 181,
        "4023": 61,
        "4024": 165,
        "4025": 255,
        "4026": 134,
        "4027": 163,
        "4028": 209,
        "4029": 52,
        "4030": 149,
        "4031": 159,
        "4032": 120,
        "4033": 186,
        "4034": 50,
        "4035": 27,
        "4036": 94,
        "4037": 22,
        "4038": 194,
        "4039": 56,
        "4040": 8,
        "4041": 199,
        "4042": 228,
        "4043": 115,
        "4044": 43,
        "4045": 179,
        "4046": 179,
        "4047": 31,
        "4048": 76,
        "4049": 148,
        "4050": 39,
        "4051": 1,
        "4052": 82,
        "4053": 131,
        "4054": 146,
        "4055": 22,
        "4056": 19,
        "4057": 25,
        "4058": 206,
        "4059": 11,
        "4060": 183,
        "4061": 13,
        "4062": 182,
        "4063": 104,
        "4064": 121,
        "4065": 8,
        "4066": 14,
        "4067": 223,
        "4068": 105,
        "4069": 149,
        "4070": 124,
        "4071": 89,
        "4072": 58,
        "4073": 229,
        "4074": 154,
        "4075": 140,
        "4076": 228,
        "4077": 48,
        "4078": 242,
        "4079": 193,
        "4080": 99,
        "4081": 54,
        "4082": 140,
        "4083": 34,
        "4084": 93,
        "4085": 230,
        "4086": 66,
        "4087": 44,
        "4088": 207,
        "4089": 3,
        "4090": 173,
        "4091": 97,
        "4092": 99,
        "4093": 98,
        "4094": 230,
        "4095": 222,
        "4096": 214,
        "4097": 241,
        "4098": 176,
        "4099": 98,
        "4100": 173,
        "4101": 147,
        "4102": 92,
        "4103": 204,
        "4104": 22,
        "4105": 188,
        "4106": 162,
        "4107": 21,
        "4108": 112,
        "4109": 215,
        "4110": 113,
        "4111": 103,
        "4112": 14,
        "4113": 16,
        "4114": 134,
        "4115": 164,
        "4116": 229,
        "4117": 171,
        "4118": 174,
        "4119": 162,
        "4120": 234,
        "4121": 11,
        "4122": 153,
        "4123": 145,
        "4124": 214,
        "4125": 115,
        "4126": 3,
        "4127": 167,
        "4128": 137,
        "4129": 60,
        "4130": 149,
        "4131": 6,
        "4132": 241,
        "4133": 90,
        "4134": 35,
        "4135": 107,
        "4136": 30,
        "4137": 155,
        "4138": 104,
        "4139": 18,
        "4140": 114,
        "4141": 251,
        "4142": 177,
        "4143": 96,
        "4144": 200,
        "4145": 255,
        "4146": 238,
        "4147": 163,
        "4148": 182,
        "4149": 187,
        "4150": 14,
        "4151": 94,
        "4152": 88,
        "4153": 156,
        "4154": 190,
        "4155": 0,
        "4156": 250,
        "4157": 22,
        "4158": 254,
        "4159": 197,
        "4160": 142,
        "4161": 123,
        "4162": 190,
        "4163": 102,
        "4164": 216,
        "4165": 219,
        "4166": 221,
        "4167": 78,
        "4168": 124,
        "4169": 242,
        "4170": 136,
        "4171": 30,
        "4172": 45,
        "4173": 6,
        "4174": 70,
        "4175": 124,
        "4176": 77,
        "4177": 154,
        "4178": 178,
        "4179": 92,
        "4180": 189,
        "4181": 79,
        "4182": 78,
        "4183": 2,
        "4184": 154,
        "4185": 68,
        "4186": 7,
        "4187": 16,
        "4188": 229,
        "4189": 197,
        "4190": 189,
        "4191": 35,
        "4192": 64,
        "4193": 82,
        "4194": 168,
        "4195": 117,
        "4196": 68,
        "4197": 36,
        "4198": 79,
        "4199": 122,
        "4200": 37,
        "4201": 137,
        "4202": 237,
        "4203": 176,
        "4204": 238,
        "4205": 178,
        "4206": 2,
        "4207": 126,
        "4208": 116,
        "4209": 46,
        "4210": 133,
        "4211": 101,
        "4212": 80,
        "4213": 90,
        "4214": 20,
        "4215": 136,
        "4216": 198,
        "4217": 5,
        "4218": 146,
        "4219": 55,
        "4220": 86,
        "4221": 176,
        "4222": 196,
        "4223": 203,
        "4224": 95,
        "4225": 194,
        "4226": 226,
        "4227": 174,
        "4228": 15,
        "4229": 28,
        "4230": 249,
        "4231": 189,
        "4232": 21,
        "4233": 97,
        "4234": 54,
        "4235": 171,
        "4236": 206,
        "4237": 57,
        "4238": 118,
        "4239": 27,
        "4240": 55,
        "4241": 71,
        "4242": 74,
        "4243": 81,
        "4244": 148,
        "4245": 56,
        "4246": 213,
        "4247": 24,
        "4248": 148,
        "4249": 207,
        "4250": 35,
        "4251": 74,
        "4252": 81,
        "4253": 211,
        "4254": 166,
        "4255": 192,
        "4256": 158,
        "4257": 172,
        "4258": 213,
        "4259": 130,
        "4260": 121,
        "4261": 219,
        "4262": 29,
        "4263": 246,
        "4264": 42,
        "4265": 1,
        "4266": 146,
        "4267": 136,
        "4268": 123,
        "4269": 76,
        "4270": 239,
        "4271": 235,
        "4272": 156,
        "4273": 146,
        "4274": 243,
        "4275": 27,
        "4276": 70,
        "4277": 51,
        "4278": 73,
        "4279": 156,
        "4280": 11,
        "4281": 83,
        "4282": 235,
        "4283": 163,
        "4284": 183,
        "4285": 126,
        "4286": 131,
        "4287": 70,
        "4288": 211,
        "4289": 108,
        "4290": 28,
        "4291": 162,
        "4292": 237,
        "4293": 169,
        "4294": 127,
        "4295": 149,
        "4296": 30,
        "4297": 118,
        "4298": 250,
        "4299": 123,
        "4300": 108,
        "4301": 220,
        "4302": 251,
        "4303": 192,
        "4304": 154,
        "4305": 61,
        "4306": 173,
        "4307": 23,
        "4308": 13,
        "4309": 241,
        "4310": 92,
        "4311": 11,
        "4312": 97,
        "4313": 112,
        "4314": 125,
        "4315": 41,
        "4316": 193,
        "4317": 69,
        "4318": 99,
        "4319": 154,
        "4320": 183,
        "4321": 144,
        "4322": 207,
        "4323": 62,
        "4324": 200,
        "4325": 213,
        "4326": 143,
        "4327": 148,
        "4328": 22,
        "4329": 202,
        "4330": 22,
        "4331": 141,
        "4332": 153,
        "4333": 182,
        "4334": 38,
        "4335": 210,
        "4336": 19,
        "4337": 39,
        "4338": 126,
        "4339": 65,
        "4340": 145,
        "4341": 213,
        "4342": 160,
        "4343": 143,
        "4344": 147,
        "4345": 20,
        "4346": 11,
        "4347": 9,
        "4348": 82,
        "4349": 49,
        "4350": 7,
        "4351": 116,
        "4352": 214,
        "4353": 175,
        "4354": 76,
        "4355": 119,
        "4356": 141,
        "4357": 79,
        "4358": 101,
        "4359": 220,
        "4360": 100,
        "4361": 216,
        "4362": 246,
        "4363": 146,
        "4364": 29,
        "4365": 155,
        "4366": 210,
        "4367": 233,
        "4368": 209,
        "4369": 94,
        "4370": 93,
        "4371": 74,
        "4372": 30,
        "4373": 140,
        "4374": 131,
        "4375": 181,
        "4376": 204,
        "4377": 51,
        "4378": 232,
        "4379": 157,
        "4380": 101,
        "4381": 22,
        "4382": 70,
        "4383": 231,
        "4384": 17,
        "4385": 40,
        "4386": 31,
        "4387": 182,
        "4388": 103,
        "4389": 106,
        "4390": 4,
        "4391": 199,
        "4392": 246,
        "4393": 222,
        "4394": 200,
        "4395": 243,
        "4396": 115,
        "4397": 128,
        "4398": 112,
        "4399": 57,
        "4400": 235,
        "4401": 51,
        "4402": 209,
        "4403": 184,
        "4404": 115,
        "4405": 56,
        "4406": 19,
        "4407": 92,
        "4408": 157,
        "4409": 74,
        "4410": 46,
        "4411": 195,
        "4412": 116,
        "4413": 37,
        "4414": 185,
        "4415": 90,
        "4416": 63,
        "4417": 38,
        "4418": 150,
        "4419": 30,
        "4420": 36,
        "4421": 20,
        "4422": 45,
        "4423": 1,
        "4424": 59,
        "4425": 88,
        "4426": 197,
        "4427": 171,
        "4428": 140,
        "4429": 251,
        "4430": 19,
        "4431": 77,
        "4432": 148,
        "4433": 200,
        "4434": 173,
        "4435": 36,
        "4436": 124,
        "4437": 114,
        "4438": 219,
        "4439": 133,
        "4440": 221,
        "4441": 0,
        "4442": 58,
        "4443": 155,
        "4444": 155,
        "4445": 228,
        "4446": 153,
        "4447": 127,
        "4448": 164,
        "4449": 66,
        "4450": 185,
        "4451": 232,
        "4452": 216,
        "4453": 181,
        "4454": 236,
        "4455": 68,
        "4456": 41,
        "4457": 170,
        "4458": 42,
        "4459": 219,
        "4460": 51,
        "4461": 140,
        "4462": 138,
        "4463": 214,
        "4464": 74,
        "4465": 237,
        "4466": 142,
        "4467": 26,
        "4468": 203,
        "4469": 3,
        "4470": 206,
        "4471": 52,
        "4472": 175,
        "4473": 16,
        "4474": 180,
        "4475": 237,
        "4476": 181,
        "4477": 84,
        "4478": 254,
        "4479": 93,
        "4480": 224,
        "4481": 237,
        "4482": 69,
        "4483": 218,
        "4484": 104,
        "4485": 199,
        "4486": 172,
        "4487": 221,
        "4488": 53,
        "4489": 173,
        "4490": 182,
        "4491": 1,
        "4492": 185,
        "4493": 117,
        "4494": 183,
        "4495": 22,
        "4496": 134,
        "4497": 54,
        "4498": 142,
        "4499": 116,
        "4500": 198,
        "4501": 120,
        "4502": 108,
        "4503": 227,
        "4504": 123,
        "4505": 239,
        "4506": 93,
        "4507": 219,
        "4508": 238,
        "4509": 152,
        "4510": 162,
        "4511": 62,
        "4512": 250,
        "4513": 210,
        "4514": 255,
        "4515": 137,
        "4516": 0,
        "4517": 34,
        "4518": 23,
        "4519": 111,
        "4520": 35,
        "4521": 212,
        "4522": 158,
        "4523": 193,
        "4524": 221,
        "4525": 130,
        "4526": 100,
        "4527": 13,
        "4528": 221,
        "4529": 0,
        "4530": 175,
        "4531": 230,
        "4532": 175,
        "4533": 78,
        "4534": 243,
        "4535": 248,
        "4536": 94,
        "4537": 50,
        "4538": 194,
        "4539": 6,
        "4540": 226,
        "4541": 0,
        "4542": 253,
        "4543": 39,
        "4544": 218,
        "4545": 191,
        "4546": 86,
        "4547": 178,
        "4548": 22,
        "4549": 211,
        "4550": 151,
        "4551": 46,
        "4552": 22,
        "4553": 14,
        "4554": 68,
        "4555": 41,
        "4556": 244,
        "4557": 165,
        "4558": 14,
        "4559": 46,
        "4560": 190,
        "4561": 104,
        "4562": 7,
        "4563": 169,
        "4564": 119,
        "4565": 50,
        "4566": 166,
        "4567": 125,
        "4568": 77,
        "4569": 247,
        "4570": 220,
        "4571": 24,
        "4572": 122,
        "4573": 89,
        "4574": 241,
        "4575": 32,
        "4576": 197,
        "4577": 194,
        "4578": 151,
        "4579": 109,
        "4580": 27,
        "4581": 173,
        "4582": 242,
        "4583": 115,
        "4584": 246,
        "4585": 29,
        "4586": 83,
        "4587": 237,
        "4588": 101,
        "4589": 156,
        "4590": 150,
        "4591": 176,
        "4592": 41,
        "4593": 167,
        "4594": 58,
        "4595": 10,
        "4596": 85,
        "4597": 86,
        "4598": 46,
        "4599": 216,
        "4600": 62,
        "4601": 69,
        "4602": 42,
        "4603": 85,
        "4604": 165,
        "4605": 146,
        "4606": 78,
        "4607": 88,
        "4608": 195,
        "4609": 22,
        "4610": 7,
        "4611": 96,
        "4612": 171,
        "4613": 235,
        "4614": 34,
        "4615": 35,
        "4616": 104,
        "4617": 39,
        "4618": 146,
        "4619": 188,
        "4620": 81,
        "4621": 234,
        "4622": 158,
        "4623": 31,
        "4624": 181,
        "4625": 173,
        "4626": 75,
        "4627": 52,
        "4628": 17,
        "4629": 119,
        "4630": 163,
        "4631": 128,
        "4632": 76,
        "4633": 150,
        "4634": 192,
        "4635": 118,
        "4636": 73,
        "4637": 125,
        "4638": 18,
        "4639": 62,
        "4640": 219,
        "4641": 161,
        "4642": 162,
        "4643": 83,
        "4644": 46,
        "4645": 158,
        "4646": 32,
        "4647": 3,
        "4648": 250,
        "4649": 233,
        "4650": 99,
        "4651": 177,
        "4652": 188,
        "4653": 117,
        "4654": 20,
        "4655": 52,
        "4656": 33,
        "4657": 84,
        "4658": 75,
        "4659": 222,
        "4660": 114,
        "4661": 186,
        "4662": 5,
        "4663": 220,
        "4664": 131,
        "4665": 211,
        "4666": 129,
        "4667": 84,
        "4668": 70,
        "4669": 155,
        "4670": 216,
        "4671": 94,
        "4672": 60,
        "4673": 38,
        "4674": 161,
        "4675": 72,
        "4676": 146,
        "4677": 40,
        "4678": 98,
        "4679": 19,
        "4680": 193,
        "4681": 114,
        "4682": 180,
        "4683": 21,
        "4684": 213,
        "4685": 229,
        "4686": 169,
        "4687": 3,
        "4688": 154,
        "4689": 41,
        "4690": 4,
        "4691": 58,
        "4692": 57,
        "4693": 221,
        "4694": 151,
        "4695": 3,
        "4696": 111,
        "4697": 211,
        "4698": 226,
        "4699": 82,
        "4700": 186,
        "4701": 12,
        "4702": 80,
        "4703": 147,
        "4704": 206,
        "4705": 75,
        "4706": 185,
        "4707": 218,
        "4708": 50,
        "4709": 250,
        "4710": 121,
        "4711": 152,
        "4712": 149,
        "4713": 89,
        "4714": 240,
        "4715": 127,
        "4716": 55,
        "4717": 216,
        "4718": 169,
        "4719": 71,
        "4720": 216,
        "4721": 83,
        "4722": 110,
        "4723": 5,
        "4724": 13,
        "4725": 42,
        "4726": 244,
        "4727": 133,
        "4728": 211,
        "4729": 164,
        "4730": 45,
        "4731": 114,
        "4732": 32,
        "4733": 143,
        "4734": 252,
        "4735": 1,
        "4736": 115,
        "4737": 135,
        "4738": 141,
        "4739": 186,
        "4740": 9,
        "4741": 42,
        "4742": 158,
        "4743": 56,
        "4744": 177,
        "4745": 191,
        "4746": 51,
        "4747": 6,
        "4748": 169,
        "4749": 55,
        "4750": 166,
        "4751": 140,
        "4752": 5,
        "4753": 127,
        "4754": 159,
        "4755": 147,
        "4756": 66,
        "4757": 134,
        "4758": 182,
        "4759": 181,
        "4760": 82,
        "4761": 217,
        "4762": 81,
        "4763": 21,
        "4764": 120,
        "4765": 147,
        "4766": 41,
        "4767": 133,
        "4768": 57,
        "4769": 175,
        "4770": 32,
        "4771": 254,
        "4772": 56,
        "4773": 228,
        "4774": 44,
        "4775": 6,
        "4776": 30,
        "4777": 156,
        "4778": 228,
        "4779": 14,
        "4780": 114,
        "4781": 29,
        "4782": 35,
        "4783": 57,
        "4784": 237,
        "4785": 176,
        "4786": 41,
        "4787": 202,
        "4788": 38,
        "4789": 225,
        "4790": 40,
        "4791": 93,
        "4792": 29,
        "4793": 50,
        "4794": 57,
        "4795": 20,
        "4796": 28,
        "4797": 183,
        "4798": 131,
        "4799": 18,
        "4800": 204,
        "4801": 93,
        "4802": 66,
        "4803": 87,
        "4804": 244,
        "4805": 99,
        "4806": 111,
        "4807": 157,
        "4808": 94,
        "4809": 215,
        "4810": 31,
        "4811": 96,
        "4812": 64,
        "4813": 94,
        "4814": 178,
        "4815": 172,
        "4816": 59,
        "4817": 255,
        "4818": 216,
        "4819": 208,
        "4820": 34,
        "4821": 211,
        "4822": 195,
        "4823": 107,
        "4824": 233,
        "4825": 250,
        "4826": 95,
        "4827": 151,
        "4828": 177,
        "4829": 139,
        "4830": 154,
        "4831": 67,
        "4832": 13,
        "4833": 167,
        "4834": 217,
        "4835": 105,
        "4836": 136,
        "4837": 112,
        "4838": 195,
        "4839": 18,
        "4840": 140,
        "4841": 96,
        "4842": 41,
        "4843": 164,
        "4844": 155,
        "4845": 177,
        "4846": 149,
        "4847": 86,
        "4848": 238,
        "4849": 115,
        "4850": 162,
        "4851": 194,
        "4852": 118,
        "4853": 36,
        "4854": 95,
        "4855": 240,
        "4856": 69,
        "4857": 137,
        "4858": 44,
        "4859": 69,
        "4860": 170,
        "4861": 33,
        "4862": 171,
        "4863": 176,
        "4864": 225,
        "4865": 31,
        "4866": 206,
        "4867": 124,
        "4868": 125,
        "4869": 10,
        "4870": 29,
        "4871": 7,
        "4872": 199,
        "4873": 152,
        "4874": 59,
        "4875": 140,
        "4876": 93,
        "4877": 230,
        "4878": 254,
        "4879": 41,
        "4880": 35,
        "4881": 251,
        "4882": 210,
        "4883": 24,
        "4884": 132,
        "4885": 37,
        "4886": 51,
        "4887": 27,
        "4888": 37,
        "4889": 255,
        "4890": 48,
        "4891": 245,
        "4892": 28,
        "4893": 195,
        "4894": 45,
        "4895": 196,
        "4896": 81,
        "4897": 52,
        "4898": 99,
        "4899": 88,
        "4900": 127,
        "4901": 7,
        "4902": 206,
        "4903": 118,
        "4904": 247,
        "4905": 147,
        "4906": 227,
        "4907": 250,
        "4908": 208,
        "4909": 126,
        "4910": 205,
        "4911": 203,
        "4912": 217,
        "4913": 90,
        "4914": 110,
        "4915": 114,
        "4916": 114,
        "4917": 49,
        "4918": 198,
        "4919": 240,
        "4920": 3,
        "4921": 207,
        "4922": 45,
        "4923": 181,
        "4924": 234,
        "4925": 196,
        "4926": 57,
        "4927": 138,
        "4928": 163,
        "4929": 89,
        "4930": 249,
        "4931": 97,
        "4932": 147,
        "4933": 133,
        "4934": 228,
        "4935": 221,
        "4936": 88,
        "4937": 1,
        "4938": 34,
        "4939": 74,
        "4940": 99,
        "4941": 223,
        "4942": 225,
        "4943": 180,
        "4944": 224,
        "4945": 152,
        "4946": 112,
        "4947": 175,
        "4948": 26,
        "4949": 135,
        "4950": 175,
        "4951": 48,
        "4952": 120,
        "4953": 25,
        "4954": 94,
        "4955": 48,
        "4956": 213,
        "4957": 27,
        "4958": 133,
        "4959": 26,
        "4960": 203,
        "4961": 3,
        "4962": 151,
        "4963": 114,
        "4964": 225,
        "4965": 92,
        "4966": 66,
        "4967": 10,
        "4968": 84,
        "4969": 204,
        "4970": 151,
        "4971": 99,
        "4972": 160,
        "4973": 139,
        "4974": 104,
        "4975": 164,
        "4976": 84,
        "4977": 13,
        "4978": 37,
        "4979": 173,
        "4980": 196,
        "4981": 39,
        "4982": 9,
        "4983": 150,
        "4984": 133,
        "4985": 66,
        "4986": 197,
        "4987": 82,
        "4988": 183,
        "4989": 53,
        "4990": 134,
        "4991": 90,
        "4992": 159,
        "4993": 128,
        "4994": 51,
        "4995": 111,
        "4996": 208,
        "4997": 31,
        "4998": 195,
        "4999": 175,
        "5000": 108,
        "5001": 50,
        "5002": 193,
        "5003": 8,
        "5004": 120,
        "5005": 21,
        "5006": 126,
        "5007": 108,
        "5008": 30,
        "5009": 36,
        "5010": 129,
        "5011": 228,
        "5012": 34,
        "5013": 224,
        "5014": 77,
        "5015": 72,
        "5016": 241,
        "5017": 18,
        "5018": 119,
        "5019": 181,
        "5020": 175,
        "5021": 114,
        "5022": 96,
        "5023": 197,
        "5024": 10,
        "5025": 242,
        "5026": 184,
        "5027": 198,
        "5028": 147,
        "5029": 23,
        "5030": 53,
        "5031": 20,
        "5032": 253,
        "5033": 182,
        "5034": 32,
        "5035": 195,
        "5036": 131,
        "5037": 43,
        "5038": 242,
        "5039": 51,
        "5040": 167,
        "5041": 205,
        "5042": 34,
        "5043": 242,
        "5044": 6,
        "5045": 232,
        "5046": 54,
        "5047": 153,
        "5048": 64,
        "5049": 206,
        "5050": 63,
        "5051": 245,
        "5052": 179,
        "5053": 85,
        "5054": 67,
        "5055": 157,
        "5056": 74,
        "5057": 234,
        "5058": 184,
        "5059": 109,
        "5060": 106,
        "5061": 105,
        "5062": 33,
        "5063": 164,
        "5064": 3,
        "5065": 174,
        "5066": 28,
        "5067": 242,
        "5068": 95,
        "5069": 255,
        "5070": 28,
        "5071": 81,
        "5072": 201,
        "5073": 236,
        "5074": 194,
        "5075": 239,
        "5076": 5,
        "5077": 197,
        "5078": 204,
        "5079": 2,
        "5080": 108,
        "5081": 150,
        "5082": 6,
        "5083": 43,
        "5084": 66,
        "5085": 14,
        "5086": 219,
        "5087": 34,
        "5088": 97,
        "5089": 231,
        "5090": 46,
        "5091": 231,
        "5092": 77,
        "5093": 22,
        "5094": 248,
        "5095": 17,
        "5096": 194,
        "5097": 136,
        "5098": 75,
        "5099": 149,
        "5100": 240,
        "5101": 240,
        "5102": 138,
        "5103": 81,
        "5104": 67,
        "5105": 9,
        "5106": 212,
        "5107": 197,
        "5108": 172,
        "5109": 122,
        "5110": 127,
        "5111": 240,
        "5112": 170,
        "5113": 225,
        "5114": 138,
        "5115": 140,
        "5116": 59,
        "5117": 72,
        "5118": 64,
        "5119": 78,
        "5120": 82,
        "5121": 201,
        "5122": 237,
        "5123": 63,
        "5124": 128,
        "5125": 47,
        "5126": 150,
        "5127": 51,
        "5128": 243,
        "5129": 37,
        "5130": 52,
        "5131": 150,
        "5132": 121,
        "5133": 152,
        "5134": 252,
        "5135": 172,
        "5136": 6,
        "5137": 111,
        "5138": 218,
        "5139": 27,
        "5140": 88,
        "5141": 88,
        "5142": 129,
        "5143": 244,
        "5144": 219,
        "5145": 70,
        "5146": 48,
        "5147": 134,
        "5148": 193,
        "5149": 180,
        "5150": 39,
        "5151": 84,
        "5152": 184,
        "5153": 18,
        "5154": 60,
        "5155": 176,
        "5156": 225,
        "5157": 217,
        "5158": 49,
        "5159": 162,
        "5160": 20,
        "5161": 153,
        "5162": 91,
        "5163": 145,
        "5164": 209,
        "5165": 160,
        "5166": 223,
        "5167": 213,
        "5168": 13,
        "5169": 82,
        "5170": 56,
        "5171": 74,
        "5172": 223,
        "5173": 152,
        "5174": 76,
        "5175": 2,
        "5176": 140,
        "5177": 34,
        "5178": 236,
        "5179": 98,
        "5180": 187,
        "5181": 110,
        "5182": 147,
        "5183": 16,
        "5184": 247,
        "5185": 108,
        "5186": 213,
        "5187": 154,
        "5188": 90,
        "5189": 13,
        "5190": 128,
        "5191": 212,
        "5192": 171,
        "5193": 161,
        "5194": 197,
        "5195": 252,
        "5196": 205,
        "5197": 117,
        "5198": 175,
        "5199": 59,
        "5200": 65,
        "5201": 178,
        "5202": 20,
        "5203": 190,
        "5204": 195,
        "5205": 131,
        "5206": 172,
        "5207": 14,
        "5208": 145,
        "5209": 183,
        "5210": 68,
        "5211": 224,
        "5212": 245,
        "5213": 52,
        "5214": 107,
        "5215": 127,
        "5216": 158,
        "5217": 200,
        "5218": 9,
        "5219": 163,
        "5220": 129,
        "5221": 251,
        "5222": 79,
        "5223": 135,
        "5224": 66,
        "5225": 33,
        "5226": 1,
        "5227": 243,
        "5228": 101,
        "5229": 253,
        "5230": 9,
        "5231": 204,
        "5232": 55,
        "5233": 184,
        "5234": 97,
        "5235": 225,
        "5236": 142,
        "5237": 81,
        "5238": 163,
        "5239": 92,
        "5240": 51,
        "5241": 87,
        "5242": 24,
        "5243": 129,
        "5244": 137,
        "5245": 172,
        "5246": 248,
        "5247": 66,
        "5248": 181,
        "5249": 71,
        "5250": 237,
        "5251": 135,
        "5252": 186,
        "5253": 62,
        "5254": 99,
        "5255": 113,
        "5256": 33,
        "5257": 43,
        "5258": 97,
        "5259": 77,
        "5260": 154,
        "5261": 63,
        "5262": 51,
        "5263": 71,
        "5264": 75,
        "5265": 83,
        "5266": 247,
        "5267": 99,
        "5268": 121,
        "5269": 211,
        "5270": 176,
        "5271": 184,
        "5272": 200,
        "5273": 26,
        "5274": 124,
        "5275": 192,
        "5276": 216,
        "5277": 211,
        "5278": 76,
        "5279": 116,
        "5280": 161,
        "5281": 188,
        "5282": 24,
        "5283": 29,
        "5284": 244,
        "5285": 1,
        "5286": 171,
        "5287": 211,
        "5288": 24,
        "5289": 182,
        "5290": 1,
        "5291": 239,
        "5292": 20,
        "5293": 207,
        "5294": 3,
        "5295": 170,
        "5296": 92,
        "5297": 80,
        "5298": 183,
        "5299": 31,
        "5300": 123,
        "5301": 40,
        "5302": 141,
        "5303": 245,
        "5304": 88,
        "5305": 164,
        "5306": 19,
        "5307": 128,
        "5308": 155,
        "5309": 105,
        "5310": 238,
        "5311": 99,
        "5312": 127,
        "5313": 168,
        "5314": 140,
        "5315": 109,
        "5316": 142,
        "5317": 64,
        "5318": 165,
        "5319": 110,
        "5320": 198,
        "5321": 211,
        "5322": 171,
        "5323": 8,
        "5324": 30,
        "5325": 63,
        "5326": 215,
        "5327": 112,
        "5328": 228,
        "5329": 115,
        "5330": 185,
        "5331": 119,
        "5332": 22,
        "5333": 115,
        "5334": 106,
        "5335": 213,
        "5336": 82,
        "5337": 183,
        "5338": 209,
        "5339": 71,
        "5340": 150,
        "5341": 133,
        "5342": 246,
        "5343": 182,
        "5344": 229,
        "5345": 126,
        "5346": 207,
        "5347": 69,
        "5348": 148,
        "5349": 37,
        "5350": 232,
        "5351": 135,
        "5352": 96,
        "5353": 52,
        "5354": 202,
        "5355": 41,
        "5356": 61,
        "5357": 63,
        "5358": 151,
        "5359": 62,
        "5360": 171,
        "5361": 101,
        "5362": 155,
        "5363": 227,
        "5364": 207,
        "5365": 80,
        "5366": 98,
        "5367": 158,
        "5368": 136,
        "5369": 122,
        "5370": 70,
        "5371": 115,
        "5372": 85,
        "5373": 67,
        "5374": 185,
        "5375": 140,
        "5376": 186,
        "5377": 34,
        "5378": 190,
        "5379": 147,
        "5380": 95,
        "5381": 211,
        "5382": 151,
        "5383": 187,
        "5384": 217,
        "5385": 188,
        "5386": 132,
        "5387": 71,
        "5388": 159,
        "5389": 149,
        "5390": 4,
        "5391": 47,
        "5392": 69,
        "5393": 118,
        "5394": 60,
        "5395": 230,
        "5396": 213,
        "5397": 2,
        "5398": 242,
        "5399": 157,
        "5400": 37,
        "5401": 250,
        "5402": 60,
        "5403": 18,
        "5404": 147,
        "5405": 50,
        "5406": 103,
        "5407": 7,
        "5408": 239,
        "5409": 26,
        "5410": 211,
        "5411": 48,
        "5412": 32,
        "5413": 98,
        "5414": 105,
        "5415": 36,
        "5416": 66,
        "5417": 114,
        "5418": 252,
        "5419": 153,
        "5420": 93,
        "5421": 197,
        "5422": 161,
        "5423": 27,
        "5424": 248,
        "5425": 69,
        "5426": 158,
        "5427": 251,
        "5428": 251,
        "5429": 10,
        "5430": 168,
        "5431": 12,
        "5432": 31,
        "5433": 46,
        "5434": 47,
        "5435": 240,
        "5436": 145,
        "5437": 83,
        "5438": 172,
        "5439": 79,
        "5440": 8,
        "5441": 114,
        "5442": 191,
        "5443": 160,
        "5444": 37,
        "5445": 20,
        "5446": 183,
        "5447": 67,
        "5448": 71,
        "5449": 17,
        "5450": 52,
        "5451": 109,
        "5452": 88,
        "5453": 115,
        "5454": 51,
        "5455": 93,
        "5456": 245,
        "5457": 101,
        "5458": 197,
        "5459": 39,
        "5460": 35,
        "5461": 23,
        "5462": 132,
        "5463": 206,
        "5464": 205,
        "5465": 235,
        "5466": 234,
        "5467": 75,
        "5468": 164,
        "5469": 208,
        "5470": 189,
        "5471": 166,
        "5472": 229,
        "5473": 81,
        "5474": 136,
        "5475": 162,
        "5476": 91,
        "5477": 19,
        "5478": 207,
        "5479": 3,
        "5480": 177,
        "5481": 186,
        "5482": 3,
        "5483": 81,
        "5484": 161,
        "5485": 249,
        "5486": 63,
        "5487": 178,
        "5488": 36,
        "5489": 252,
        "5490": 195,
        "5491": 222,
        "5492": 192,
        "5493": 14,
        "5494": 210,
        "5495": 45,
        "5496": 240,
        "5497": 221,
        "5498": 203,
        "5499": 143,
        "5500": 202,
        "5501": 123,
        "5502": 142,
        "5503": 219,
        "5504": 114,
        "5505": 38,
        "5506": 74,
        "5507": 97,
        "5508": 86,
        "5509": 248,
        "5510": 80,
        "5511": 59,
        "5512": 210,
        "5513": 242,
        "5514": 149,
        "5515": 166,
        "5516": 210,
        "5517": 249,
        "5518": 237,
        "5519": 67,
        "5520": 136,
        "5521": 50,
        "5522": 190,
        "5523": 60,
        "5524": 42,
        "5525": 65,
        "5526": 179,
        "5527": 242,
        "5528": 83,
        "5529": 30,
        "5530": 189,
        "5531": 128,
        "5532": 31,
        "5533": 18,
        "5534": 227,
        "5535": 66,
        "5536": 183,
        "5537": 98,
        "5538": 103,
        "5539": 191,
        "5540": 159,
        "5541": 149,
        "5542": 6,
        "5543": 140,
        "5544": 136,
        "5545": 149,
        "5546": 131,
        "5547": 160,
        "5548": 32,
        "5549": 165,
        "5550": 18,
        "5551": 139,
        "5552": 242,
        "5553": 188,
        "5554": 117,
        "5555": 50,
        "5556": 120,
        "5557": 113,
        "5558": 149,
        "5559": 207,
        "5560": 102,
        "5561": 35,
        "5562": 61,
        "5563": 27,
        "5564": 188,
        "5565": 44,
        "5566": 139,
        "5567": 243,
        "5568": 125,
        "5569": 42,
        "5570": 1,
        "5571": 200,
        "5572": 250,
        "5573": 17,
        "5574": 68,
        "5575": 42,
        "5576": 27,
        "5577": 23,
        "5578": 165,
        "5579": 35,
        "5580": 199,
        "5581": 143,
        "5582": 235,
        "5583": 47,
        "5584": 35,
        "5585": 5,
        "5586": 66,
        "5587": 41,
        "5588": 185,
        "5589": 99,
        "5590": 73,
        "5591": 219,
        "5592": 124,
        "5593": 231,
        "5594": 200,
        "5595": 192,
        "5596": 22,
        "5597": 5,
        "5598": 244,
        "5599": 183,
        "5600": 139,
        "5601": 176,
        "5602": 143,
        "5603": 15,
        "5604": 104,
        "5605": 52,
        "5606": 16,
        "5607": 129,
        "5608": 11,
        "5609": 173,
        "5610": 175,
        "5611": 210,
        "5612": 170,
        "5613": 66,
        "5614": 97,
        "5615": 165,
        "5616": 101,
        "5617": 149,
        "5618": 203,
        "5619": 155,
        "5620": 172,
        "5621": 250,
        "5622": 232,
        "5623": 250,
        "5624": 13,
        "5625": 35,
        "5626": 144,
        "5627": 216,
        "5628": 50,
        "5629": 157,
        "5630": 86,
        "5631": 211,
        "5632": 104,
        "5633": 17,
        "5634": 99,
        "5635": 52,
        "5636": 172,
        "5637": 168,
        "5638": 142,
        "5639": 142,
        "5640": 34,
        "5641": 119,
        "5642": 88,
        "5643": 37,
        "5644": 154,
        "5645": 241,
        "5646": 216,
        "5647": 64,
        "5648": 29,
        "5649": 8,
        "5650": 91,
        "5651": 202,
        "5652": 160,
        "5653": 167,
        "5654": 133,
        "5655": 170,
        "5656": 110,
        "5657": 166,
        "5658": 192,
        "5659": 93,
        "5660": 17,
        "5661": 212,
        "5662": 229,
        "5663": 25,
        "5664": 90,
        "5665": 93,
        "5666": 39,
        "5667": 151,
        "5668": 251,
        "5669": 17,
        "5670": 130,
        "5671": 207,
        "5672": 15,
        "5673": 27,
        "5674": 49,
        "5675": 139,
        "5676": 165,
        "5677": 222,
        "5678": 239,
        "5679": 126,
        "5680": 197,
        "5681": 130,
        "5682": 216,
        "5683": 80,
        "5684": 54,
        "5685": 133,
        "5686": 197,
        "5687": 121,
        "5688": 53,
        "5689": 92,
        "5690": 126,
        "5691": 52,
        "5692": 220,
        "5693": 129,
        "5694": 226,
        "5695": 160,
        "5696": 109,
        "5697": 204,
        "5698": 162,
        "5699": 80,
        "5700": 189,
        "5701": 74,
        "5702": 166,
        "5703": 41,
        "5704": 132,
        "5705": 131,
        "5706": 15,
        "5707": 174,
        "5708": 170,
        "5709": 135,
        "5710": 84,
        "5711": 181,
        "5712": 193,
        "5713": 8,
        "5714": 121,
        "5715": 60,
        "5716": 235,
        "5717": 115,
        "5718": 128,
        "5719": 129,
        "5720": 116,
        "5721": 161,
        "5722": 57,
        "5723": 90,
        "5724": 57,
        "5725": 204,
        "5726": 130,
        "5727": 236,
        "5728": 86,
        "5729": 175,
        "5730": 39,
        "5731": 91,
        "5732": 180,
        "5733": 252,
        "5734": 248,
        "5735": 90,
        "5736": 1,
        "5737": 193,
        "5738": 137,
        "5739": 212,
        "5740": 91,
        "5741": 25,
        "5742": 146,
        "5743": 234,
        "5744": 183,
        "5745": 195,
        "5746": 164,
        "5747": 31,
        "5748": 129,
        "5749": 46,
        "5750": 24,
        "5751": 212,
        "5752": 206,
        "5753": 92,
        "5754": 132,
        "5755": 158,
        "5756": 117,
        "5757": 215,
        "5758": 145,
        "5759": 124,
        "5760": 7,
        "5761": 69,
        "5762": 118,
        "5763": 210,
        "5764": 55,
        "5765": 57,
        "5766": 147,
        "5767": 95,
        "5768": 222,
        "5769": 251,
        "5770": 78,
        "5771": 255,
        "5772": 207,
        "5773": 242,
        "5774": 72,
        "5775": 9,
        "5776": 11,
        "5777": 103,
        "5778": 37,
        "5779": 103,
        "5780": 32,
        "5781": 61,
        "5782": 42,
        "5783": 119,
        "5784": 202,
        "5785": 222,
        "5786": 146,
        "5787": 48,
        "5788": 107,
        "5789": 46,
        "5790": 195,
        "5791": 242,
        "5792": 212,
        "5793": 158,
        "5794": 68,
        "5795": 230,
        "5796": 169,
        "5797": 173,
        "5798": 35,
        "5799": 175,
        "5800": 189,
        "5801": 48,
        "5802": 180,
        "5803": 228,
        "5804": 6,
        "5805": 40,
        "5806": 141,
        "5807": 128,
        "5808": 5,
        "5809": 208,
        "5810": 230,
        "5811": 106,
        "5812": 205,
        "5813": 6,
        "5814": 169,
        "5815": 9,
        "5816": 23,
        "5817": 41,
        "5818": 185,
        "5819": 125,
        "5820": 212,
        "5821": 78,
        "5822": 42,
        "5823": 240,
        "5824": 224,
        "5825": 26,
        "5826": 211,
        "5827": 63,
        "5828": 188,
        "5829": 158,
        "5830": 62,
        "5831": 9,
        "5832": 71,
        "5833": 99,
        "5834": 80,
        "5835": 154,
        "5836": 97,
        "5837": 243,
        "5838": 152,
        "5839": 136,
        "5840": 92,
        "5841": 120,
        "5842": 0,
        "5843": 175,
        "5844": 112,
        "5845": 70,
        "5846": 164,
        "5847": 10,
        "5848": 238,
        "5849": 208,
        "5850": 50,
        "5851": 89,
        "5852": 147,
        "5853": 40,
        "5854": 76,
        "5855": 206,
        "5856": 239,
        "5857": 25,
        "5858": 156,
        "5859": 57,
        "5860": 188,
        "5861": 12,
        "5862": 210,
        "5863": 224,
        "5864": 176,
        "5865": 201,
        "5866": 91,
        "5867": 78,
        "5868": 63,
        "5869": 82,
        "5870": 158,
        "5871": 131,
        "5872": 19,
        "5873": 221,
        "5874": 212,
        "5875": 92,
        "5876": 71,
        "5877": 124,
        "5878": 16,
        "5879": 225,
        "5880": 12,
        "5881": 57,
        "5882": 92,
        "5883": 179,
        "5884": 147,
        "5885": 181,
        "5886": 135,
        "5887": 94,
        "5888": 230,
        "5889": 242,
        "5890": 124,
        "5891": 85,
        "5892": 134,
        "5893": 35,
        "5894": 117,
        "5895": 101,
        "5896": 212,
        "5897": 229,
        "5898": 231,
        "5899": 12,
        "5900": 100,
        "5901": 135,
        "5902": 83,
        "5903": 48,
        "5904": 233,
        "5905": 108,
        "5906": 140,
        "5907": 184,
        "5908": 202,
        "5909": 66,
        "5910": 56,
        "5911": 30,
        "5912": 201,
        "5913": 197,
        "5914": 10,
        "5915": 161,
        "5916": 37,
        "5917": 199,
        "5918": 143,
        "5919": 103,
        "5920": 152,
        "5921": 115,
        "5922": 197,
        "5923": 21,
        "5924": 107,
        "5925": 105,
        "5926": 202,
        "5927": 243,
        "5928": 203,
        "5929": 42,
        "5930": 62,
        "5931": 134,
        "5932": 22,
        "5933": 131,
        "5934": 167,
        "5935": 31,
        "5936": 7,
        "5937": 75,
        "5938": 157,
        "5939": 119,
        "5940": 218,
        "5941": 128,
        "5942": 140,
        "5943": 179,
        "5944": 69,
        "5945": 159,
        "5946": 240,
        "5947": 243,
        "5948": 240,
        "5949": 29,
        "5950": 48,
        "5951": 181,
        "5952": 23,
        "5953": 238,
        "5954": 142,
        "5955": 85,
        "5956": 169,
        "5957": 200,
        "5958": 24,
        "5959": 175,
        "5960": 224,
        "5961": 249,
        "5962": 89,
        "5963": 169,
        "5964": 196,
        "5965": 208,
        "5966": 198,
        "5967": 22,
        "5968": 215,
        "5969": 13,
        "5970": 223,
        "5971": 11,
        "5972": 8,
        "5973": 61,
        "5974": 107,
        "5975": 196,
        "5976": 94,
        "5977": 35,
        "5978": 53,
        "5979": 201,
        "5980": 27,
        "5981": 17,
        "5982": 123,
        "5983": 168,
        "5984": 4,
        "5985": 136,
        "5986": 43,
        "5987": 87,
        "5988": 22,
        "5989": 71,
        "5990": 179,
        "5991": 156,
        "5992": 234,
        "5993": 197,
        "5994": 75,
        "5995": 231,
        "5996": 123,
        "5997": 141,
        "5998": 35,
        "5999": 11,
        "6000": 10,
        "6001": 37,
        "6002": 214,
        "6003": 113,
        "6004": 200,
        "6005": 120,
        "6006": 51,
        "6007": 45,
        "6008": 50,
        "6009": 114,
        "6010": 29,
        "6011": 198,
        "6012": 25,
        "6013": 188,
        "6014": 220,
        "6015": 185,
        "6016": 123,
        "6017": 248,
        "6018": 9,
        "6019": 144,
        "6020": 94,
        "6021": 43,
        "6022": 168,
        "6023": 133,
        "6024": 85,
        "6025": 10,
        "6026": 69,
        "6027": 117,
        "6028": 170,
        "6029": 30,
        "6030": 75,
        "6031": 145,
        "6032": 11,
        "6033": 6,
        "6034": 14,
        "6035": 116,
        "6036": 75,
        "6037": 159,
        "6038": 38,
        "6039": 6,
        "6040": 201,
        "6041": 252,
        "6042": 163,
        "6043": 81,
        "6044": 193,
        "6045": 136,
        "6046": 14,
        "6047": 50,
        "6048": 61,
        "6049": 188,
        "6050": 64,
        "6051": 78,
        "6052": 75,
        "6053": 156,
        "6054": 87,
        "6055": 99,
        "6056": 34,
        "6057": 183,
        "6058": 209,
        "6059": 255,
        "6060": 12,
        "6061": 48,
        "6062": 219,
        "6063": 182,
        "6064": 189,
        "6065": 110,
        "6066": 95,
        "6067": 217,
        "6068": 13,
        "6069": 136,
        "6070": 2,
        "6071": 67,
        "6072": 174,
        "6073": 105,
        "6074": 185,
        "6075": 24,
        "6076": 140,
        "6077": 63,
        "6078": 27,
        "6079": 214,
        "6080": 39,
        "6081": 158,
        "6082": 53,
        "6083": 186,
        "6084": 213,
        "6085": 162,
        "6086": 159,
        "6087": 246,
        "6088": 64,
        "6089": 128,
        "6090": 100,
        "6091": 125,
        "6092": 106,
        "6093": 124,
        "6094": 53,
        "6095": 115,
        "6096": 173,
        "6097": 60,
        "6098": 180,
        "6099": 253,
        "6100": 9,
        "6101": 80,
        "6102": 144,
        "6103": 70,
        "6104": 26,
        "6105": 244,
        "6106": 8,
        "6107": 163,
        "6108": 109,
        "6109": 42,
        "6110": 98,
        "6111": 245,
        "6112": 203,
        "6113": 168,
        "6114": 148,
        "6115": 201,
        "6116": 149,
        "6117": 235,
        "6118": 139,
        "6119": 113,
        "6120": 109,
        "6121": 169,
        "6122": 200,
        "6123": 246,
        "6124": 225,
        "6125": 131,
        "6126": 70,
        "6127": 6,
        "6128": 73,
        "6129": 104,
        "6130": 82,
        "6131": 204,
        "6132": 189,
        "6133": 161,
        "6134": 75,
        "6135": 47,
        "6136": 112,
        "6137": 58,
        "6138": 37,
        "6139": 103,
        "6140": 215,
        "6141": 76,
        "6142": 124,
        "6143": 91,
        "6144": 111,
        "6145": 52,
        "6146": 125,
        "6147": 107,
        "6148": 184,
        "6149": 202,
        "6150": 137,
        "6151": 109,
        "6152": 196,
        "6153": 172,
        "6154": 107,
        "6155": 2,
        "6156": 11,
        "6157": 135,
        "6158": 82,
        "6159": 49,
        "6160": 77,
        "6161": 245,
        "6162": 171,
        "6163": 10,
        "6164": 148,
        "6165": 196,
        "6166": 44,
        "6167": 136,
        "6168": 128,
        "6169": 121,
        "6170": 69,
        "6171": 145,
        "6172": 4,
        "6173": 52,
        "6174": 179,
        "6175": 42,
        "6176": 70,
        "6177": 166,
        "6178": 246,
        "6179": 85,
        "6180": 53,
        "6181": 169,
        "6182": 172,
        "6183": 206,
        "6184": 216,
        "6185": 21,
        "6186": 64,
        "6187": 51,
        "6188": 252,
        "6189": 193,
        "6190": 47,
        "6191": 90,
        "6192": 24,
        "6193": 207,
        "6194": 195,
        "6195": 198,
        "6196": 58,
        "6197": 175,
        "6198": 186,
        "6199": 148,
        "6200": 52,
        "6201": 111,
        "6202": 34,
        "6203": 161,
        "6204": 106,
        "6205": 104,
        "6206": 236,
        "6207": 249,
        "6208": 194,
        "6209": 112,
        "6210": 135,
        "6211": 12,
        "6212": 7,
        "6213": 162,
        "6214": 227,
        "6215": 136,
        "6216": 74,
        "6217": 150,
        "6218": 93,
        "6219": 1,
        "6220": 109,
        "6221": 109,
        "6222": 70,
        "6223": 249,
        "6224": 116,
        "6225": 155,
        "6226": 134,
        "6227": 170,
        "6228": 148,
        "6229": 183,
        "6230": 30,
        "6231": 156,
        "6232": 90,
        "6233": 154,
        "6234": 88,
        "6235": 255,
        "6236": 152,
        "6237": 21,
        "6238": 167,
        "6239": 82,
        "6240": 173,
        "6241": 156,
        "6242": 203,
        "6243": 211,
        "6244": 79,
        "6245": 8,
        "6246": 128,
        "6247": 128,
        "6248": 167,
        "6249": 75,
        "6250": 138,
        "6251": 240,
        "6252": 93,
        "6253": 177,
        "6254": 241,
        "6255": 117,
        "6256": 135,
        "6257": 223,
        "6258": 144,
        "6259": 150,
        "6260": 124,
        "6261": 125,
        "6262": 129,
        "6263": 234,
        "6264": 174,
        "6265": 15,
        "6266": 215,
        "6267": 251,
        "6268": 249,
        "6269": 22,
        "6270": 65,
        "6271": 143,
        "6272": 11,
        "6273": 123,
        "6274": 189,
        "6275": 157,
        "6276": 126,
        "6277": 172,
        "6278": 61,
        "6279": 239,
        "6280": 186,
        "6281": 200,
        "6282": 98,
        "6283": 50,
        "6284": 218,
        "6285": 130,
        "6286": 247,
        "6287": 11,
        "6288": 129,
        "6289": 191,
        "6290": 119,
        "6291": 184,
        "6292": 11,
        "6293": 51,
        "6294": 159,
        "6295": 89,
        "6296": 251,
        "6297": 178,
        "6298": 68,
        "6299": 220,
        "6300": 123,
        "6301": 237,
        "6302": 109,
        "6303": 10,
        "6304": 253,
        "6305": 197,
        "6306": 210,
        "6307": 234,
        "6308": 223,
        "6309": 196,
        "6310": 203,
        "6311": 102,
        "6312": 126,
        "6313": 235,
        "6314": 156,
        "6315": 66,
        "6316": 178,
        "6317": 89,
        "6318": 110,
        "6319": 15,
        "6320": 85,
        "6321": 252,
        "6322": 209,
        "6323": 127,
        "6324": 202,
        "6325": 3,
        "6326": 218,
        "6327": 214,
        "6328": 111,
        "6329": 167,
        "6330": 58,
        "6331": 194,
        "6332": 208,
        "6333": 106,
        "6334": 91,
        "6335": 185,
        "6336": 87,
        "6337": 97,
        "6338": 72,
        "6339": 35,
        "6340": 128,
        "6341": 137,
        "6342": 78,
        "6343": 154,
        "6344": 87,
        "6345": 188,
        "6346": 37,
        "6347": 103,
        "6348": 147,
        "6349": 27,
        "6350": 133,
        "6351": 125,
        "6352": 149,
        "6353": 197,
        "6354": 194,
        "6355": 214,
        "6356": 194,
        "6357": 215,
        "6358": 155,
        "6359": 181,
        "6360": 85,
        "6361": 17,
        "6362": 116,
        "6363": 7,
        "6364": 162,
        "6365": 33,
        "6366": 25,
        "6367": 58,
        "6368": 215,
        "6369": 90,
        "6370": 203,
        "6371": 159,
        "6372": 65,
        "6373": 151,
        "6374": 143,
        "6375": 182,
        "6376": 47,
        "6377": 88,
        "6378": 51,
        "6379": 234,
        "6380": 136,
        "6381": 189,
        "6382": 188,
        "6383": 173,
        "6384": 128,
        "6385": 237,
        "6386": 179,
        "6387": 232,
        "6388": 129,
        "6389": 45,
        "6390": 54,
        "6391": 185,
        "6392": 115,
        "6393": 82,
        "6394": 74,
        "6395": 204,
        "6396": 208,
        "6397": 101,
        "6398": 241,
        "6399": 245,
        "6400": 25,
        "6401": 100,
        "6402": 165,
        "6403": 74,
        "6404": 238,
        "6405": 146,
        "6406": 132,
        "6407": 215,
        "6408": 164,
        "6409": 235,
        "6410": 37,
        "6411": 180,
        "6412": 197,
        "6413": 37,
        "6414": 58,
        "6415": 209,
        "6416": 181,
        "6417": 27,
        "6418": 49,
        "6419": 234,
        "6420": 190,
        "6421": 12,
        "6422": 110,
        "6423": 31,
        "6424": 104,
        "6425": 136,
        "6426": 146,
        "6427": 134,
        "6428": 227,
        "6429": 197,
        "6430": 133,
        "6431": 152,
        "6432": 250,
        "6433": 39,
        "6434": 95,
        "6435": 64,
        "6436": 170,
        "6437": 18,
        "6438": 154,
        "6439": 204,
        "6440": 124,
        "6441": 219,
        "6442": 191,
        "6443": 207,
        "6444": 176,
        "6445": 94,
        "6446": 99,
        "6447": 212,
        "6448": 177,
        "6449": 24,
        "6450": 140,
        "6451": 98,
        "6452": 228,
        "6453": 249,
        "6454": 146,
        "6455": 89,
        "6456": 170,
        "6457": 74,
        "6458": 32,
        "6459": 25,
        "6460": 18,
        "6461": 214,
        "6462": 89,
        "6463": 102,
        "6464": 86,
        "6465": 71,
        "6466": 9,
        "6467": 66,
        "6468": 91,
        "6469": 243,
        "6470": 192,
        "6471": 229,
        "6472": 49,
        "6473": 74,
        "6474": 33,
        "6475": 242,
        "6476": 16,
        "6477": 244,
        "6478": 132,
        "6479": 254,
        "6480": 109,
        "6481": 202,
        "6482": 84,
        "6483": 46,
        "6484": 23,
        "6485": 84,
        "6486": 17,
        "6487": 209,
        "6488": 187,
        "6489": 62,
        "6490": 79,
        "6491": 135,
        "6492": 12,
        "6493": 194,
        "6494": 151,
        "6495": 234,
        "6496": 156,
        "6497": 80,
        "6498": 85,
        "6499": 12,
        "6500": 20,
        "6501": 198,
        "6502": 135,
        "6503": 153,
        "6504": 253,
        "6505": 19,
        "6506": 221,
        "6507": 92,
        "6508": 169,
        "6509": 114,
        "6510": 55,
        "6511": 44,
        "6512": 142,
        "6513": 163,
        "6514": 62,
        "6515": 246,
        "6516": 135,
        "6517": 127,
        "6518": 61,
        "6519": 252,
        "6520": 189,
        "6521": 248,
        "6522": 221,
        "6523": 144,
        "6524": 129,
        "6525": 161,
        "6526": 39,
        "6527": 215,
        "6528": 90,
        "6529": 49,
        "6530": 13,
        "6531": 165,
        "6532": 65,
        "6533": 245,
        "6534": 215,
        "6535": 157,
        "6536": 28,
        "6537": 25,
        "6538": 249,
        "6539": 29,
        "6540": 213,
        "6541": 7,
        "6542": 145,
        "6543": 67,
        "6544": 162,
        "6545": 156,
        "6546": 4,
        "6547": 171,
        "6548": 235,
        "6549": 230,
        "6550": 54,
        "6551": 140,
        "6552": 205,
        "6553": 183,
        "6554": 66,
        "6555": 29,
        "6556": 26,
        "6557": 248,
        "6558": 92,
        "6559": 31,
        "6560": 160,
        "6561": 56,
        "6562": 176,
        "6563": 237,
        "6564": 10,
        "6565": 8,
        "6566": 92,
        "6567": 204,
        "6568": 151,
        "6569": 71,
        "6570": 220,
        "6571": 109,
        "6572": 165,
        "6573": 185,
        "6574": 254,
        "6575": 137,
        "6576": 100,
        "6577": 73,
        "6578": 112,
        "6579": 158,
        "6580": 237,
        "6581": 40,
        "6582": 17,
        "6583": 50,
        "6584": 22,
        "6585": 102,
        "6586": 44,
        "6587": 252,
        "6588": 89,
        "6589": 148,
        "6590": 25,
        "6591": 244,
        "6592": 48,
        "6593": 10,
        "6594": 204,
        "6595": 157,
        "6596": 125,
        "6597": 158,
        "6598": 48,
        "6599": 195,
        "6600": 134,
        "6601": 13,
        "6602": 185,
        "6603": 215,
        "6604": 211,
        "6605": 10,
        "6606": 198,
        "6607": 174,
        "6608": 181,
        "6609": 141,
        "6610": 207,
        "6611": 207,
        "6612": 94,
        "6613": 164,
        "6614": 92,
        "6615": 219,
        "6616": 108,
        "6617": 102,
        "6618": 213,
        "6619": 191,
        "6620": 145,
        "6621": 15,
        "6622": 120,
        "6623": 23,
        "6624": 108,
        "6625": 131,
        "6626": 202,
        "6627": 119,
        "6628": 202,
        "6629": 219,
        "6630": 126,
        "6631": 30,
        "6632": 247,
        "6633": 252,
        "6634": 5,
        "6635": 34,
        "6636": 186,
        "6637": 184,
        "6638": 38,
        "6639": 155,
        "6640": 63,
        "6641": 1,
        "6642": 79,
        "6643": 60,
        "6644": 13,
        "6645": 0,
        "6646": 224,
        "6647": 207,
        "6648": 243,
        "6649": 133,
        "6650": 216,
        "6651": 166,
        "6652": 198,
        "6653": 119,
        "6654": 217,
        "6655": 216,
        "6656": 19,
        "6657": 35,
        "6658": 74,
        "6659": 172,
        "6660": 114,
        "6661": 207,
        "6662": 214,
        "6663": 201,
        "6664": 19,
        "6665": 124,
        "6666": 68,
        "6667": 62,
        "6668": 152,
        "6669": 41,
        "6670": 176,
        "6671": 72,
        "6672": 190,
        "6673": 196,
        "6674": 64,
        "6675": 178,
        "6676": 237,
        "6677": 34,
        "6678": 250,
        "6679": 227,
        "6680": 89,
        "6681": 171,
        "6682": 186,
        "6683": 182,
        "6684": 9,
        "6685": 204,
        "6686": 165,
        "6687": 171,
        "6688": 2,
        "6689": 175,
        "6690": 36,
        "6691": 250,
        "6692": 131,
        "6693": 180,
        "6694": 145,
        "6695": 96,
        "6696": 174,
        "6697": 55,
        "6698": 31,
        "6699": 75,
        "6700": 161,
        "6701": 204,
        "6702": 248,
        "6703": 250,
        "6704": 189,
        "6705": 40,
        "6706": 211,
        "6707": 77,
        "6708": 56,
        "6709": 212,
        "6710": 108,
        "6711": 55,
        "6712": 55,
        "6713": 138,
        "6714": 226,
        "6715": 183,
        "6716": 60,
        "6717": 140,
        "6718": 171,
        "6719": 143,
        "6720": 95,
        "6721": 26,
        "6722": 25,
        "6723": 23,
        "6724": 191,
        "6725": 8,
        "6726": 107,
        "6727": 74,
        "6728": 37,
        "6729": 145,
        "6730": 123,
        "6731": 128,
        "6732": 169,
        "6733": 199,
        "6734": 112,
        "6735": 118,
        "6736": 226,
        "6737": 138,
        "6738": 94,
        "6739": 24,
        "6740": 142,
        "6741": 12,
        "6742": 30,
        "6743": 247,
        "6744": 254,
        "6745": 97,
        "6746": 109,
        "6747": 218,
        "6748": 37,
        "6749": 170,
        "6750": 132,
        "6751": 205,
        "6752": 137,
        "6753": 254,
        "6754": 164,
        "6755": 85,
        "6756": 210,
        "6757": 48,
        "6758": 160,
        "6759": 54,
        "6760": 40,
        "6761": 239,
        "6762": 211,
        "6763": 129,
        "6764": 7,
        "6765": 133,
        "6766": 250,
        "6767": 56,
        "6768": 144,
        "6769": 115,
        "6770": 32,
        "6771": 240,
        "6772": 240,
        "6773": 41,
        "6774": 233,
        "6775": 5,
        "6776": 61,
        "6777": 151,
        "6778": 214,
        "6779": 8,
        "6780": 14,
        "6781": 29,
        "6782": 110,
        "6783": 187,
        "6784": 48,
        "6785": 57,
        "6786": 104,
        "6787": 2,
        "6788": 161,
        "6789": 231,
        "6790": 179,
        "6791": 174,
        "6792": 22,
        "6793": 167,
        "6794": 82,
        "6795": 199,
        "6796": 247,
        "6797": 205,
        "6798": 48,
        "6799": 250,
        "6800": 25,
        "6801": 185,
        "6802": 29,
        "6803": 228,
        "6804": 116,
        "6805": 40,
        "6806": 242,
        "6807": 48,
        "6808": 199,
        "6809": 202,
        "6810": 240,
        "6811": 55,
        "6812": 17,
        "6813": 105,
        "6814": 193,
        "6815": 169,
        "6816": 98,
        "6817": 224,
        "6818": 99,
        "6819": 228,
        "6820": 130,
        "6821": 205,
        "6822": 136,
        "6823": 61,
        "6824": 192,
        "6825": 205,
        "6826": 211,
        "6827": 192,
        "6828": 225,
        "6829": 232,
        "6830": 82,
        "6831": 186,
        "6832": 92,
        "6833": 37,
        "6834": 104,
        "6835": 186,
        "6836": 188,
        "6837": 61,
        "6838": 244,
        "6839": 235,
        "6840": 167,
        "6841": 78,
        "6842": 255,
        "6843": 215,
        "6844": 73,
        "6845": 123,
        "6846": 165,
        "6847": 133,
        "6848": 128,
        "6849": 87,
        "6850": 131,
        "6851": 155,
        "6852": 139,
        "6853": 212,
        "6854": 39,
        "6855": 65,
        "6856": 82,
        "6857": 120,
        "6858": 74,
        "6859": 222,
        "6860": 143,
        "6861": 133,
        "6862": 201,
        "6863": 181,
        "6864": 166,
        "6865": 114,
        "6866": 244,
        "6867": 192,
        "6868": 120,
        "6869": 101,
        "6870": 10,
        "6871": 76,
        "6872": 166,
        "6873": 64,
        "6874": 220,
        "6875": 191,
        "6876": 90,
        "6877": 18,
        "6878": 37,
        "6879": 146,
        "6880": 129,
        "6881": 194,
        "6882": 120,
        "6883": 136,
        "6884": 59,
        "6885": 223,
        "6886": 5,
        "6887": 246,
        "6888": 169,
        "6889": 18,
        "6890": 122,
        "6891": 81,
        "6892": 95,
        "6893": 140,
        "6894": 64,
        "6895": 146,
        "6896": 251,
        "6897": 150,
        "6898": 123,
        "6899": 252,
        "6900": 192,
        "6901": 77,
        "6902": 109,
        "6903": 197,
        "6904": 254,
        "6905": 3,
        "6906": 23,
        "6907": 74,
        "6908": 133,
        "6909": 93,
        "6910": 138,
        "6911": 30,
        "6912": 58,
        "6913": 49,
        "6914": 14,
        "6915": 20,
        "6916": 31,
        "6917": 86,
        "6918": 42,
        "6919": 143,
        "6920": 184,
        "6921": 7,
        "6922": 144,
        "6923": 3,
        "6924": 121,
        "6925": 82,
        "6926": 190,
        "6927": 120,
        "6928": 210,
        "6929": 15,
        "6930": 175,
        "6931": 164,
        "6932": 38,
        "6933": 125,
        "6934": 170,
        "6935": 88,
        "6936": 163,
        "6937": 148,
        "6938": 225,
        "6939": 41,
        "6940": 171,
        "6941": 216,
        "6942": 3,
        "6943": 225,
        "6944": 171,
        "6945": 199,
        "6946": 152,
        "6947": 107,
        "6948": 96,
        "6949": 229,
        "6950": 31,
        "6951": 44,
        "6952": 197,
        "6953": 75,
        "6954": 19,
        "6955": 147,
        "6956": 118,
        "6957": 207,
        "6958": 15,
        "6959": 254,
        "6960": 133,
        "6961": 205,
        "6962": 191,
        "6963": 190,
        "6964": 3,
        "6965": 65,
        "6966": 141,
        "6967": 198,
        "6968": 171,
        "6969": 19,
        "6970": 173,
        "6971": 116,
        "6972": 150,
        "6973": 80,
        "6974": 251,
        "6975": 201,
        "6976": 168,
        "6977": 85,
        "6978": 190,
        "6979": 29,
        "6980": 48,
        "6981": 65,
        "6982": 60,
        "6983": 74,
        "6984": 234,
        "6985": 39,
        "6986": 125,
        "6987": 186,
        "6988": 49,
        "6989": 206,
        "6990": 139,
        "6991": 93,
        "6992": 10,
        "6993": 150,
        "6994": 141,
        "6995": 26,
        "6996": 255,
        "6997": 155,
        "6998": 243,
        "6999": 199,
        "7000": 201,
        "7001": 76,
        "7002": 39,
        "7003": 206,
        "7004": 115,
        "7005": 65,
        "7006": 143,
        "7007": 236,
        "7008": 55,
        "7009": 197,
        "7010": 138,
        "7011": 231,
        "7012": 199,
        "7013": 143,
        "7014": 65,
        "7015": 152,
        "7016": 207,
        "7017": 63,
        "7018": 159,
        "7019": 232,
        "7020": 81,
        "7021": 245,
        "7022": 72,
        "7023": 79,
        "7024": 0,
        "7025": 68,
        "7026": 156,
        "7027": 141,
        "7028": 135,
        "7029": 49,
        "7030": 49,
        "7031": 15,
        "7032": 232,
        "7033": 227,
        "7034": 50,
        "7035": 195,
        "7036": 150,
        "7037": 146,
        "7038": 110,
        "7039": 188,
        "7040": 188,
        "7041": 48,
        "7042": 192,
        "7043": 22,
        "7044": 214,
        "7045": 206,
        "7046": 93,
        "7047": 214,
        "7048": 136,
        "7049": 42,
        "7050": 177,
        "7051": 171,
        "7052": 162,
        "7053": 222,
        "7054": 38,
        "7055": 44,
        "7056": 117,
        "7057": 143,
        "7058": 218,
        "7059": 130,
        "7060": 50,
        "7061": 70,
        "7062": 169,
        "7063": 223,
        "7064": 126,
        "7065": 12,
        "7066": 137,
        "7067": 142,
        "7068": 107,
        "7069": 48,
        "7070": 173,
        "7071": 235,
        "7072": 21,
        "7073": 208,
        "7074": 147,
        "7075": 217,
        "7076": 24,
        "7077": 179,
        "7078": 92,
        "7079": 40,
        "7080": 64,
        "7081": 81,
        "7082": 52,
        "7083": 98,
        "7084": 127,
        "7085": 26,
        "7086": 11,
        "7087": 235,
        "7088": 23,
        "7089": 73,
        "7090": 251,
        "7091": 241,
        "7092": 10,
        "7093": 124,
        "7094": 150,
        "7095": 45,
        "7096": 122,
        "7097": 27,
        "7098": 45,
        "7099": 164,
        "7100": 107,
        "7101": 143,
        "7102": 131,
        "7103": 211,
        "7104": 157,
        "7105": 77,
        "7106": 91,
        "7107": 180,
        "7108": 255,
        "7109": 99,
        "7110": 64,
        "7111": 80,
        "7112": 241,
        "7113": 143,
        "7114": 64,
        "7115": 152,
        "7116": 196,
        "7117": 54,
        "7118": 113,
        "7119": 246,
        "7120": 102,
        "7121": 235,
        "7122": 67,
        "7123": 95,
        "7124": 228,
        "7125": 149,
        "7126": 16,
        "7127": 134,
        "7128": 115,
        "7129": 220,
        "7130": 181,
        "7131": 219,
        "7132": 202,
        "7133": 119,
        "7134": 125,
        "7135": 139,
        "7136": 94,
        "7137": 242,
        "7138": 40,
        "7139": 3,
        "7140": 70,
        "7141": 77,
        "7142": 72,
        "7143": 227,
        "7144": 14,
        "7145": 118,
        "7146": 197,
        "7147": 98,
        "7148": 44,
        "7149": 152,
        "7150": 227,
        "7151": 13,
        "7152": 136,
        "7153": 51,
        "7154": 11,
        "7155": 19,
        "7156": 128,
        "7157": 26,
        "7158": 57,
        "7159": 179,
        "7160": 67,
        "7161": 114,
        "7162": 39,
        "7163": 99,
        "7164": 237,
        "7165": 148,
        "7166": 88,
        "7167": 19,
        "7168": 243,
        "7169": 138,
        "7170": 89,
        "7171": 217,
        "7172": 232,
        "7173": 191,
        "7174": 45,
        "7175": 190,
        "7176": 180,
        "7177": 218,
        "7178": 129,
        "7179": 116,
        "7180": 121,
        "7181": 21,
        "7182": 163,
        "7183": 40,
        "7184": 10,
        "7185": 45,
        "7186": 225,
        "7187": 211,
        "7188": 90,
        "7189": 38,
        "7190": 20,
        "7191": 219,
        "7192": 75,
        "7193": 73,
        "7194": 3,
        "7195": 234,
        "7196": 108,
        "7197": 101,
        "7198": 151,
        "7199": 1,
        "7200": 217,
        "7201": 145,
        "7202": 186,
        "7203": 225,
        "7204": 218,
        "7205": 116,
        "7206": 55,
        "7207": 199,
        "7208": 90,
        "7209": 247,
        "7210": 73,
        "7211": 83,
        "7212": 117,
        "7213": 48,
        "7214": 142,
        "7215": 1,
        "7216": 173,
        "7217": 159,
        "7218": 230,
        "7219": 115,
        "7220": 33,
        "7221": 238,
        "7222": 233,
        "7223": 177,
        "7224": 85,
        "7225": 172,
        "7226": 5,
        "7227": 168,
        "7228": 155,
        "7229": 235,
        "7230": 40,
        "7231": 222,
        "7232": 170,
        "7233": 216,
        "7234": 201,
        "7235": 182,
        "7236": 144,
        "7237": 250,
        "7238": 56,
        "7239": 142,
        "7240": 145,
        "7241": 83,
        "7242": 214,
        "7243": 166,
        "7244": 18,
        "7245": 234,
        "7246": 10,
        "7247": 216,
        "7248": 126,
        "7249": 32,
        "7250": 125,
        "7251": 238,
        "7252": 140,
        "7253": 44,
        "7254": 130,
        "7255": 168,
        "7256": 140,
        "7257": 83,
        "7258": 251,
        "7259": 144,
        "7260": 87,
        "7261": 238,
        "7262": 182,
        "7263": 185,
        "7264": 46,
        "7265": 103,
        "7266": 185,
        "7267": 171,
        "7268": 98,
        "7269": 4,
        "7270": 110,
        "7271": 85,
        "7272": 96,
        "7273": 141,
        "7274": 213,
        "7275": 131,
        "7276": 86,
        "7277": 132,
        "7278": 51,
        "7279": 54,
        "7280": 203,
        "7281": 251,
        "7282": 221,
        "7283": 169,
        "7284": 13,
        "7285": 70,
        "7286": 67,
        "7287": 195,
        "7288": 201,
        "7289": 58,
        "7290": 125,
        "7291": 68,
        "7292": 251,
        "7293": 238,
        "7294": 130,
        "7295": 72,
        "7296": 104,
        "7297": 176,
        "7298": 145,
        "7299": 122,
        "7300": 77,
        "7301": 82,
        "7302": 131,
        "7303": 146,
        "7304": 210,
        "7305": 149,
        "7306": 89,
        "7307": 247,
        "7308": 170,
        "7309": 37,
        "7310": 42,
        "7311": 48,
        "7312": 189,
        "7313": 102,
        "7314": 85,
        "7315": 178,
        "7316": 70,
        "7317": 87,
        "7318": 191,
        "7319": 42,
        "7320": 66,
        "7321": 16,
        "7322": 246,
        "7323": 31,
        "7324": 174,
        "7325": 233,
        "7326": 141,
        "7327": 189,
        "7328": 71,
        "7329": 219,
        "7330": 251,
        "7331": 223,
        "7332": 181,
        "7333": 182,
        "7334": 112,
        "7335": 225,
        "7336": 106,
        "7337": 9,
        "7338": 146,
        "7339": 234,
        "7340": 119,
        "7341": 102,
        "7342": 111,
        "7343": 213,
        "7344": 136,
        "7345": 151,
        "7346": 26,
        "7347": 71,
        "7348": 78,
        "7349": 147,
        "7350": 72,
        "7351": 245,
        "7352": 129,
        "7353": 233,
        "7354": 13,
        "7355": 162,
        "7356": 203,
        "7357": 230,
        "7358": 19,
        "7359": 204,
        "7360": 115,
        "7361": 40,
        "7362": 198,
        "7363": 161,
        "7364": 70,
        "7365": 223,
        "7366": 45,
        "7367": 36,
        "7368": 1,
        "7369": 109,
        "7370": 210,
        "7371": 163,
        "7372": 109,
        "7373": 108,
        "7374": 41,
        "7375": 64,
        "7376": 113,
        "7377": 216,
        "7378": 189,
        "7379": 173,
        "7380": 31,
        "7381": 207,
        "7382": 155,
        "7383": 73,
        "7384": 27,
        "7385": 231,
        "7386": 87,
        "7387": 220,
        "7388": 226,
        "7389": 234,
        "7390": 70,
        "7391": 190,
        "7392": 39,
        "7393": 221,
        "7394": 154,
        "7395": 41,
        "7396": 225,
        "7397": 193,
        "7398": 194,
        "7399": 224,
        "7400": 85,
        "7401": 200,
        "7402": 44,
        "7403": 32,
        "7404": 9,
        "7405": 130,
        "7406": 96,
        "7407": 178,
        "7408": 132,
        "7409": 159,
        "7410": 119,
        "7411": 136,
        "7412": 24,
        "7413": 198,
        "7414": 3,
        "7415": 6,
        "7416": 128,
        "7417": 191,
        "7418": 30,
        "7419": 35,
        "7420": 169,
        "7421": 32,
        "7422": 36,
        "7423": 93,
        "7424": 106,
        "7425": 43,
        "7426": 252,
        "7427": 84,
        "7428": 140,
        "7429": 146,
        "7430": 141,
        "7431": 255,
        "7432": 168,
        "7433": 51,
        "7434": 131,
        "7435": 211,
        "7436": 89,
        "7437": 35,
        "7438": 9,
        "7439": 43,
        "7440": 55,
        "7441": 87,
        "7442": 15,
        "7443": 48,
        "7444": 221,
        "7445": 131,
        "7446": 44,
        "7447": 46,
        "7448": 155,
        "7449": 2,
        "7450": 45,
        "7451": 88,
        "7452": 201,
        "7453": 236,
        "7454": 33,
        "7455": 2,
        "7456": 80,
        "7457": 56,
        "7458": 236,
        "7459": 221,
        "7460": 218,
        "7461": 99,
        "7462": 239,
        "7463": 46,
        "7464": 167,
        "7465": 44,
        "7466": 14,
        "7467": 138,
        "7468": 140,
        "7469": 188,
        "7470": 229,
        "7471": 156,
        "7472": 17,
        "7473": 48,
        "7474": 192,
        "7475": 24,
        "7476": 14,
        "7477": 49,
        "7478": 184,
        "7479": 124,
        "7480": 33,
        "7481": 139,
        "7482": 251,
        "7483": 135,
        "7484": 157,
        "7485": 27,
        "7486": 192,
        "7487": 168,
        "7488": 74,
        "7489": 104,
        "7490": 199,
        "7491": 209,
        "7492": 82,
        "7493": 132,
        "7494": 126,
        "7495": 113,
        "7496": 94,
        "7497": 159,
        "7498": 84,
        "7499": 99,
        "7500": 123,
        "7501": 241,
        "7502": 14,
        "7503": 216,
        "7504": 65,
        "7505": 69,
        "7506": 166,
        "7507": 74,
        "7508": 136,
        "7509": 45,
        "7510": 195,
        "7511": 78,
        "7512": 80,
        "7513": 120,
        "7514": 93,
        "7515": 99,
        "7516": 155,
        "7517": 234,
        "7518": 156,
        "7519": 185,
        "7520": 241,
        "7521": 208,
        "7522": 34,
        "7523": 254,
        "7524": 27,
        "7525": 95,
        "7526": 227,
        "7527": 133,
        "7528": 67,
        "7529": 43,
        "7530": 120,
        "7531": 111,
        "7532": 31,
        "7533": 126,
        "7534": 192,
        "7535": 207,
        "7536": 124,
        "7537": 170,
        "7538": 140,
        "7539": 52,
        "7540": 128,
        "7541": 182,
        "7542": 161,
        "7543": 12,
        "7544": 127,
        "7545": 112,
        "7546": 235,
        "7547": 146,
        "7548": 242,
        "7549": 198,
        "7550": 22,
        "7551": 158,
        "7552": 230,
        "7553": 43,
        "7554": 94,
        "7555": 172,
        "7556": 234,
        "7557": 179,
        "7558": 55,
        "7559": 36,
        "7560": 112,
        "7561": 30,
        "7562": 141,
        "7563": 137,
        "7564": 184,
        "7565": 151,
        "7566": 224,
        "7567": 180,
        "7568": 251,
        "7569": 134,
        "7570": 98,
        "7571": 44,
        "7572": 255,
        "7573": 30,
        "7574": 9,
        "7575": 158,
        "7576": 69,
        "7577": 85,
        "7578": 238,
        "7579": 72,
        "7580": 125,
        "7581": 82,
        "7582": 159,
        "7583": 230,
        "7584": 132,
        "7585": 51,
        "7586": 164,
        "7587": 38,
        "7588": 139,
        "7589": 113,
        "7590": 103,
        "7591": 152,
        "7592": 44,
        "7593": 163,
        "7594": 53,
        "7595": 207,
        "7596": 31,
        "7597": 72,
        "7598": 151,
        "7599": 26,
        "7600": 35,
        "7601": 99,
        "7602": 175,
        "7603": 4,
        "7604": 229,
        "7605": 152,
        "7606": 73,
        "7607": 89,
        "7608": 120,
        "7609": 3,
        "7610": 249,
        "7611": 15,
        "7612": 194,
        "7613": 168,
        "7614": 133,
        "7615": 92,
        "7616": 148,
        "7617": 209,
        "7618": 251,
        "7619": 204,
        "7620": 19,
        "7621": 151,
        "7622": 30,
        "7623": 11,
        "7624": 214,
        "7625": 149,
        "7626": 247,
        "7627": 175,
        "7628": 91,
        "7629": 155,
        "7630": 156,
        "7631": 225,
        "7632": 16,
        "7633": 137,
        "7634": 41,
        "7635": 173,
        "7636": 52,
        "7637": 3,
        "7638": 98,
        "7639": 193,
        "7640": 223,
        "7641": 78,
        "7642": 86,
        "7643": 175,
        "7644": 76,
        "7645": 253,
        "7646": 35,
        "7647": 233,
        "7648": 153,
        "7649": 195,
        "7650": 176,
        "7651": 136,
        "7652": 42,
        "7653": 173,
        "7654": 200,
        "7655": 67,
        "7656": 110,
        "7657": 160,
        "7658": 45,
        "7659": 236,
        "7660": 49,
        "7661": 158,
        "7662": 77,
        "7663": 6,
        "7664": 53,
        "7665": 105,
        "7666": 38,
        "7667": 134,
        "7668": 224,
        "7669": 253,
        "7670": 43,
        "7671": 37,
        "7672": 81,
        "7673": 2,
        "7674": 107,
        "7675": 3,
        "7676": 30,
        "7677": 11,
        "7678": 147,
        "7679": 76,
        "7680": 76,
        "7681": 1,
        "7682": 157,
        "7683": 194,
        "7684": 22,
        "7685": 37,
        "7686": 90,
        "7687": 254,
        "7688": 156,
        "7689": 251,
        "7690": 192,
        "7691": 219,
        "7692": 144,
        "7693": 152,
        "7694": 186,
        "7695": 97,
        "7696": 244,
        "7697": 28,
        "7698": 69,
        "7699": 47,
        "7700": 71,
        "7701": 138,
        "7702": 145,
        "7703": 25,
        "7704": 149,
        "7705": 174,
        "7706": 57,
        "7707": 215,
        "7708": 85,
        "7709": 154,
        "7710": 152,
        "7711": 140,
        "7712": 24,
        "7713": 103,
        "7714": 70,
        "7715": 124,
        "7716": 79,
        "7717": 241,
        "7718": 37,
        "7719": 92,
        "7720": 103,
        "7721": 52,
        "7722": 241,
        "7723": 240,
        "7724": 83,
        "7725": 169,
        "7726": 132,
        "7727": 161,
        "7728": 113,
        "7729": 219,
        "7730": 124,
        "7731": 42,
        "7732": 38,
        "7733": 251,
        "7734": 56,
        "7735": 163,
        "7736": 175,
        "7737": 116,
        "7738": 87,
        "7739": 144,
        "7740": 59,
        "7741": 197,
        "7742": 22,
        "7743": 6,
        "7744": 82,
        "7745": 62,
        "7746": 94,
        "7747": 7,
        "7748": 12,
        "7749": 240,
        "7750": 110,
        "7751": 207,
        "7752": 242,
        "7753": 98,
        "7754": 58,
        "7755": 13,
        "7756": 8,
        "7757": 57,
        "7758": 181,
        "7759": 169,
        "7760": 31,
        "7761": 91,
        "7762": 237,
        "7763": 47,
        "7764": 104,
        "7765": 243,
        "7766": 126,
        "7767": 5,
        "7768": 74,
        "7769": 220,
        "7770": 241,
        "7771": 193,
        "7772": 147,
        "7773": 107,
        "7774": 96,
        "7775": 104,
        "7776": 44,
        "7777": 213,
        "7778": 110,
        "7779": 123,
        "7780": 100,
        "7781": 179,
        "7782": 47,
        "7783": 183,
        "7784": 254,
        "7785": 45,
        "7786": 146,
        "7787": 187,
        "7788": 57,
        "7789": 116,
        "7790": 65,
        "7791": 14,
        "7792": 79,
        "7793": 81,
        "7794": 251,
        "7795": 31,
        "7796": 37,
        "7797": 239,
        "7798": 235,
        "7799": 213,
        "7800": 180,
        "7801": 50,
        "7802": 11,
        "7803": 117,
        "7804": 203,
        "7805": 88,
        "7806": 144,
        "7807": 169,
        "7808": 1,
        "7809": 73,
        "7810": 54,
        "7811": 8,
        "7812": 141,
        "7813": 74,
        "7814": 221,
        "7815": 34,
        "7816": 14,
        "7817": 33,
        "7818": 225,
        "7819": 164,
        "7820": 21,
        "7821": 80,
        "7822": 37,
        "7823": 168,
        "7824": 85,
        "7825": 221,
        "7826": 193,
        "7827": 129,
        "7828": 195,
        "7829": 68,
        "7830": 142,
        "7831": 126,
        "7832": 155,
        "7833": 166,
        "7834": 246,
        "7835": 214,
        "7836": 52,
        "7837": 206,
        "7838": 140,
        "7839": 215,
        "7840": 26,
        "7841": 58,
        "7842": 126,
        "7843": 190,
        "7844": 185,
        "7845": 183,
        "7846": 103,
        "7847": 14,
        "7848": 251,
        "7849": 82,
        "7850": 110,
        "7851": 203,
        "7852": 188,
        "7853": 227,
        "7854": 161,
        "7855": 89,
        "7856": 100,
        "7857": 108,
        "7858": 53,
        "7859": 204,
        "7860": 120,
        "7861": 70,
        "7862": 186,
        "7863": 181,
        "7864": 80,
        "7865": 20,
        "7866": 226,
        "7867": 111,
        "7868": 148,
        "7869": 136,
        "7870": 66,
        "7871": 148,
        "7872": 105,
        "7873": 212,
        "7874": 225,
        "7875": 251,
        "7876": 177,
        "7877": 13,
        "7878": 22,
        "7879": 110,
        "7880": 228,
        "7881": 208,
        "7882": 244,
        "7883": 121,
        "7884": 51,
        "7885": 75,
        "7886": 128,
        "7887": 67,
        "7888": 84,
        "7889": 246,
        "7890": 60,
        "7891": 14,
        "7892": 62,
        "7893": 8,
        "7894": 160,
        "7895": 71,
        "7896": 255,
        "7897": 83,
        "7898": 200,
        "7899": 204,
        "7900": 40,
        "7901": 221,
        "7902": 212,
        "7903": 93,
        "7904": 142,
        "7905": 252,
        "7906": 239,
        "7907": 121,
        "7908": 82,
        "7909": 230,
        "7910": 38,
        "7911": 229,
        "7912": 85,
        "7913": 242,
        "7914": 55,
        "7915": 12,
        "7916": 50,
        "7917": 82,
        "7918": 164,
        "7919": 162,
        "7920": 236,
        "7921": 46,
        "7922": 239,
        "7923": 189,
        "7924": 112,
        "7925": 82,
        "7926": 114,
        "7927": 212,
        "7928": 119,
        "7929": 11,
        "7930": 213,
        "7931": 116,
        "7932": 198,
        "7933": 42,
        "7934": 43,
        "7935": 136,
        "7936": 102,
        "7937": 172,
        "7938": 255,
        "7939": 159,
        "7940": 166,
        "7941": 63,
        "7942": 209,
        "7943": 250,
        "7944": 168,
        "7945": 104,
        "7946": 89,
        "7947": 151,
        "7948": 213,
        "7949": 160,
        "7950": 19,
        "7951": 95,
        "7952": 158,
        "7953": 136,
        "7954": 165,
        "7955": 7,
        "7956": 56,
        "7957": 2,
        "7958": 25,
        "7959": 1,
        "7960": 215,
        "7961": 39,
        "7962": 190,
        "7963": 128,
        "7964": 47,
        "7965": 160,
        "7966": 169,
        "7967": 21,
        "7968": 206,
        "7969": 98,
        "7970": 40,
        "7971": 236,
        "7972": 240,
        "7973": 218,
        "7974": 40,
        "7975": 190,
        "7976": 117,
        "7977": 120,
        "7978": 130,
        "7979": 24,
        "7980": 197,
        "7981": 62,
        "7982": 57,
        "7983": 29,
        "7984": 95,
        "7985": 11,
        "7986": 217,
        "7987": 132,
        "7988": 82,
        "7989": 211,
        "7990": 60,
        "7991": 4,
        "7992": 133,
        "7993": 148,
        "7994": 43,
        "7995": 238,
        "7996": 82,
        "7997": 190,
        "7998": 44,
        "7999": 34,
        "8000": 199,
        "8001": 62,
        "8002": 42,
        "8003": 71,
        "8004": 49,
        "8005": 251,
        "8006": 10,
        "8007": 118,
        "8008": 154,
        "8009": 76,
        "8010": 67,
        "8011": 233,
        "8012": 240,
        "8013": 38,
        "8014": 0,
        "8015": 118,
        "8016": 138,
        "8017": 86,
        "8018": 125,
        "8019": 145,
        "8020": 170,
        "8021": 249,
        "8022": 76,
        "8023": 126,
        "8024": 54,
        "8025": 28,
        "8026": 211,
        "8027": 43,
        "8028": 144,
        "8029": 6,
        "8030": 117,
        "8031": 58,
        "8032": 56,
        "8033": 232,
        "8034": 40,
        "8035": 161,
        "8036": 36,
        "8037": 84,
        "8038": 18,
        "8039": 96,
        "8040": 48,
        "8041": 61,
        "8042": 4,
        "8043": 46,
        "8044": 198,
        "8045": 58,
        "8046": 199,
        "8047": 28,
        "8048": 11,
        "8049": 35,
        "8050": 54,
        "8051": 18,
        "8052": 224,
        "8053": 179,
        "8054": 164,
        "8055": 152,
        "8056": 248,
        "8057": 3,
        "8058": 0,
        "8059": 117,
        "8060": 35,
        "8061": 167,
        "8062": 81,
        "8063": 95,
        "8064": 154,
        "8065": 51,
        "8066": 30,
        "8067": 156,
        "8068": 76,
        "8069": 18,
        "8070": 248,
        "8071": 7,
        "8072": 138,
        "8073": 155,
        "8074": 151,
        "8075": 237,
        "8076": 252,
        "8077": 175,
        "8078": 248,
        "8079": 208,
        "8080": 72,
        "8081": 114,
        "8082": 27,
        "8083": 39,
        "8084": 163,
        "8085": 33,
        "8086": 126,
        "8087": 30,
        "8088": 249,
        "8089": 212,
        "8090": 20,
        "8091": 143,
        "8092": 90,
        "8093": 85,
        "8094": 250,
        "8095": 233,
        "8096": 16,
        "8097": 61,
        "8098": 219,
        "8099": 23,
        "8100": 229,
        "8101": 230,
        "8102": 47,
        "8103": 12,
        "8104": 115,
        "8105": 24,
        "8106": 128,
        "8107": 37,
        "8108": 70,
        "8109": 27,
        "8110": 8,
        "8111": 149,
        "8112": 70,
        "8113": 148,
        "8114": 163,
        "8115": 242,
        "8116": 128,
        "8117": 185,
        "8118": 235,
        "8119": 206,
        "8120": 108,
        "8121": 169,
        "8122": 254,
        "8123": 29,
        "8124": 160,
        "8125": 55,
        "8126": 72,
        "8127": 66,
        "8128": 165,
        "8129": 169,
        "8130": 199,
        "8131": 7,
        "8132": 82,
        "8133": 88,
        "8134": 180,
        "8135": 236,
        "8136": 95,
        "8137": 32,
        "8138": 93,
        "8139": 244,
        "8140": 181,
        "8141": 40,
        "8142": 254,
        "8143": 243,
        "8144": 232,
        "8145": 242,
        "8146": 171,
        "8147": 242,
        "8148": 43,
        "8149": 12,
        "8150": 153,
        "8151": 52,
        "8152": 33,
        "8153": 115,
        "8154": 140,
        "8155": 78,
        "8156": 234,
        "8157": 88,
        "8158": 241,
        "8159": 47,
        "8160": 54,
        "8161": 166,
        "8162": 70,
        "8163": 214,
        "8164": 252,
        "8165": 21,
        "8166": 37,
        "8167": 175,
        "8168": 216,
        "8169": 179,
        "8170": 228,
        "8171": 111,
        "8172": 87,
        "8173": 125,
        "8174": 211,
        "8175": 86,
        "8176": 96,
        "8177": 178,
        "8178": 183,
        "8179": 231,
        "8180": 111,
        "8181": 211,
        "8182": 50,
        "8183": 236,
        "8184": 197,
        "8185": 126,
        "8186": 84,
        "8187": 188,
        "8188": 3,
        "8189": 250,
        "8190": 78,
        "8191": 62,
        "8192": 56,
        "8193": 209,
        "8194": 219,
        "8195": 251,
        "8196": 115,
        "8197": 45,
        "8198": 249,
        "8199": 246,
        "8200": 85,
        "8201": 234,
        "8202": 107,
        "8203": 30,
        "8204": 59,
        "8205": 86,
        "8206": 129,
        "8207": 86,
        "8208": 234,
        "8209": 87,
        "8210": 179,
        "8211": 228,
        "8212": 39,
        "8213": 175,
        "8214": 55,
        "8215": 102,
        "8216": 9,
        "8217": 172,
        "8218": 105,
        "8219": 152,
        "8220": 186,
        "8221": 87,
        "8222": 128,
        "8223": 23,
        "8224": 125,
        "8225": 43,
        "8226": 236,
        "8227": 133,
        "8228": 137,
        "8229": 25,
        "8230": 175,
        "8231": 95,
        "8232": 153,
        "8233": 40,
        "8234": 157,
        "8235": 148,
        "8236": 130,
        "8237": 242,
        "8238": 241,
        "8239": 121,
        "8240": 163,
        "8241": 250,
        "8242": 169,
        "8243": 81,
        "8244": 182,
        "8245": 220,
        "8246": 129,
        "8247": 185,
        "8248": 216,
        "8249": 190,
        "8250": 112,
        "8251": 33,
        "8252": 16,
        "8253": 153,
        "8254": 41,
        "8255": 11,
        "8256": 238,
        "8257": 74,
        "8258": 237,
        "8259": 22,
        "8260": 145,
        "8261": 78,
        "8262": 182,
        "8263": 118,
        "8264": 224,
        "8265": 137,
        "8266": 135,
        "8267": 242,
        "8268": 15,
        "8269": 200,
        "8270": 162,
        "8271": 77,
        "8272": 28,
        "8273": 152,
        "8274": 106,
        "8275": 52,
        "8276": 215,
        "8277": 152,
        "8278": 40,
        "8279": 172,
        "8280": 49,
        "8281": 113,
        "8282": 124,
        "8283": 217,
        "8284": 150,
        "8285": 233,
        "8286": 175,
        "8287": 60,
        "8288": 41,
        "8289": 190,
        "8290": 105,
        "8291": 87,
        "8292": 49,
        "8293": 220,
        "8294": 34,
        "8295": 211,
        "8296": 58,
        "8297": 108,
        "8298": 188,
        "8299": 73,
        "8300": 146,
        "8301": 16,
        "8302": 62,
        "8303": 164,
        "8304": 83,
        "8305": 68,
        "8306": 255,
        "8307": 157,
        "8308": 55,
        "8309": 45,
        "8310": 97,
        "8311": 38,
        "8312": 216,
        "8313": 204,
        "8314": 181,
        "8315": 8,
        "8316": 165,
        "8317": 4,
        "8318": 87,
        "8319": 35,
        "8320": 178,
        "8321": 141,
        "8322": 69,
        "8323": 181,
        "8324": 179,
        "8325": 99,
        "8326": 111,
        "8327": 131,
        "8328": 56,
        "8329": 92,
        "8330": 51,
        "8331": 100,
        "8332": 242,
        "8333": 30,
        "8334": 170,
        "8335": 57,
        "8336": 6,
        "8337": 86,
        "8338": 208,
        "8339": 236,
        "8340": 176,
        "8341": 62,
        "8342": 28,
        "8343": 167,
        "8344": 15,
        "8345": 79,
        "8346": 231,
        "8347": 217,
        "8348": 169,
        "8349": 169,
        "8350": 164,
        "8351": 158,
        "8352": 154,
        "8353": 74,
        "8354": 154,
        "8355": 55,
        "8356": 61,
        "8357": 104,
        "8358": 137,
        "8359": 101,
        "8360": 203,
        "8361": 71,
        "8362": 30,
        "8363": 28,
        "8364": 98,
        "8365": 92,
        "8366": 119,
        "8367": 24,
        "8368": 219,
        "8369": 237,
        "8370": 27,
        "8371": 223,
        "8372": 161,
        "8373": 75,
        "8374": 14,
        "8375": 162,
        "8376": 205,
        "8377": 246,
        "8378": 54,
        "8379": 37,
        "8380": 27,
        "8381": 58,
        "8382": 73,
        "8383": 53,
        "8384": 219,
        "8385": 90,
        "8386": 120,
        "8387": 61,
        "8388": 24,
        "8389": 145,
        "8390": 148,
        "8391": 100,
        "8392": 110,
        "8393": 48,
        "8394": 218,
        "8395": 20,
        "8396": 110,
        "8397": 183,
        "8398": 178,
        "8399": 73,
        "8400": 102,
        "8401": 12,
        "8402": 82,
        "8403": 196,
        "8404": 99,
        "8405": 244,
        "8406": 252,
        "8407": 223,
        "8408": 91,
        "8409": 141,
        "8410": 221,
        "8411": 190,
        "8412": 90,
        "8413": 168,
        "8414": 204,
        "8415": 48,
        "8416": 154,
        "8417": 68,
        "8418": 67,
        "8419": 246,
        "8420": 33,
        "8421": 72,
        "8422": 122,
        "8423": 185,
        "8424": 211,
        "8425": 109,
        "8426": 109,
        "8427": 150,
        "8428": 189,
        "8429": 88,
        "8430": 73,
        "8431": 12,
        "8432": 79,
        "8433": 178,
        "8434": 129,
        "8435": 68,
        "8436": 163,
        "8437": 154,
        "8438": 166,
        "8439": 25,
        "8440": 60,
        "8441": 177,
        "8442": 70,
        "8443": 230,
        "8444": 93,
        "8445": 98,
        "8446": 209,
        "8447": 244,
        "8448": 158,
        "8449": 21,
        "8450": 141,
        "8451": 222,
        "8452": 111,
        "8453": 131,
        "8454": 184,
        "8455": 14,
        "8456": 233,
        "8457": 111,
        "8458": 5,
        "8459": 122,
        "8460": 140,
        "8461": 59,
        "8462": 209,
        "8463": 60,
        "8464": 8,
        "8465": 33,
        "8466": 110,
        "8467": 7,
        "8468": 10,
        "8469": 70,
        "8470": 52,
        "8471": 130,
        "8472": 188,
        "8473": 101,
        "8474": 40,
        "8475": 149,
        "8476": 208,
        "8477": 227,
        "8478": 208,
        "8479": 170,
        "8480": 52,
        "8481": 94,
        "8482": 75,
        "8483": 19,
        "8484": 165,
        "8485": 142,
        "8486": 23,
        "8487": 175,
        "8488": 16,
        "8489": 72,
        "8490": 31,
        "8491": 188,
        "8492": 254,
        "8493": 85,
        "8494": 112,
        "8495": 229,
        "8496": 142,
        "8497": 26,
        "8498": 107,
        "8499": 164,
        "8500": 60,
        "8501": 65,
        "8502": 168,
        "8503": 241,
        "8504": 184,
        "8505": 73,
        "8506": 232,
        "8507": 8,
        "8508": 162,
        "8509": 89,
        "8510": 185,
        "8511": 34,
        "8512": 17,
        "8513": 206,
        "8514": 172,
        "8515": 232,
        "8516": 50,
        "8517": 101,
        "8518": 244,
        "8519": 119,
        "8520": 22,
        "8521": 89,
        "8522": 132,
        "8523": 66,
        "8524": 155,
        "8525": 153,
        "8526": 18,
        "8527": 51,
        "8528": 5,
        "8529": 39,
        "8530": 64,
        "8531": 151,
        "8532": 76,
        "8533": 207,
        "8534": 47,
        "8535": 132,
        "8536": 193,
        "8537": 196,
        "8538": 117,
        "8539": 90,
        "8540": 108,
        "8541": 254,
        "8542": 147,
        "8543": 99,
        "8544": 36,
        "8545": 212,
        "8546": 233,
        "8547": 81,
        "8548": 84,
        "8549": 217,
        "8550": 168,
        "8551": 222,
        "8552": 159,
        "8553": 95,
        "8554": 38,
        "8555": 221,
        "8556": 255,
        "8557": 216,
        "8558": 126,
        "8559": 30,
        "8560": 118,
        "8561": 116,
        "8562": 236,
        "8563": 135,
        "8564": 106,
        "8565": 142,
        "8566": 197,
        "8567": 41,
        "8568": 48,
        "8569": 107,
        "8570": 0,
        "8571": 30,
        "8572": 20,
        "8573": 255,
        "8574": 247,
        "8575": 58,
        "8576": 144,
        "8577": 230,
        "8578": 228,
        "8579": 55,
        "8580": 123,
        "8581": 90,
        "8582": 32,
        "8583": 243,
        "8584": 129,
        "8585": 227,
        "8586": 111,
        "8587": 254,
        "8588": 113,
        "8589": 148,
        "8590": 173,
        "8591": 88,
        "8592": 115,
        "8593": 238,
        "8594": 0,
        "8595": 116,
        "8596": 242,
        "8597": 133,
        "8598": 139,
        "8599": 54,
        "8600": 167,
        "8601": 221,
        "8602": 121,
        "8603": 237,
        "8604": 211,
        "8605": 204,
        "8606": 119,
        "8607": 213,
        "8608": 204,
        "8609": 102,
        "8610": 232,
        "8611": 29,
        "8612": 116,
        "8613": 23,
        "8614": 135,
        "8615": 255,
        "8616": 240,
        "8617": 54,
        "8618": 64,
        "8619": 255,
        "8620": 35,
        "8621": 31,
        "8622": 255,
        "8623": 122,
        "8624": 82,
        "8625": 193,
        "8626": 54,
        "8627": 236,
        "8628": 19,
        "8629": 38,
        "8630": 142,
        "8631": 185,
        "8632": 16,
        "8633": 128,
        "8634": 130,
        "8635": 34,
        "8636": 215,
        "8637": 69,
        "8638": 188,
        "8639": 82,
        "8640": 180,
        "8641": 100,
        "8642": 83,
        "8643": 88,
        "8644": 225,
        "8645": 124,
        "8646": 125,
        "8647": 184,
        "8648": 203,
        "8649": 146,
        "8650": 68,
        "8651": 171,
        "8652": 106,
        "8653": 3,
        "8654": 183,
        "8655": 155,
        "8656": 70,
        "8657": 251,
        "8658": 121,
        "8659": 246,
        "8660": 115,
        "8661": 192,
        "8662": 174,
        "8663": 40,
        "8664": 70,
        "8665": 44,
        "8666": 27,
        "8667": 246,
        "8668": 23,
        "8669": 216,
        "8670": 1,
        "8671": 3,
        "8672": 194,
        "8673": 159,
        "8674": 114,
        "8675": 30,
        "8676": 36,
        "8677": 174,
        "8678": 93,
        "8679": 131,
        "8680": 4,
        "8681": 4,
        "8682": 246,
        "8683": 28,
        "8684": 139,
        "8685": 140,
        "8686": 251,
        "8687": 248,
        "8688": 13,
        "8689": 6,
        "8690": 10,
        "8691": 147,
        "8692": 227,
        "8693": 114,
        "8694": 176,
        "8695": 224,
        "8696": 13,
        "8697": 167,
        "8698": 109,
        "8699": 45,
        "8700": 118,
        "8701": 128,
        "8702": 165,
        "8703": 214,
        "8704": 7,
        "8705": 122,
        "8706": 81,
        "8707": 73,
        "8708": 61,
        "8709": 5,
        "8710": 197,
        "8711": 24,
        "8712": 76,
        "8713": 215,
        "8714": 50,
        "8715": 191,
        "8716": 183,
        "8717": 246,
        "8718": 234,
        "8719": 100,
        "8720": 249,
        "8721": 53,
        "8722": 254,
        "8723": 97,
        "8724": 87,
        "8725": 234,
        "8726": 136,
        "8727": 156,
        "8728": 97,
        "8729": 85,
        "8730": 27,
        "8731": 219,
        "8732": 117,
        "8733": 29,
        "8734": 62,
        "8735": 217,
        "8736": 151,
        "8737": 254,
        "8738": 92,
        "8739": 198,
        "8740": 140,
        "8741": 104,
        "8742": 60,
        "8743": 213,
        "8744": 20,
        "8745": 14,
        "8746": 154,
        "8747": 217,
        "8748": 110,
        "8749": 243,
        "8750": 7,
        "8751": 236,
        "8752": 56,
        "8753": 171,
        "8754": 200,
        "8755": 140,
        "8756": 40,
        "8757": 115,
        "8758": 23,
        "8759": 88,
        "8760": 76,
        "8761": 12,
        "8762": 82,
        "8763": 111,
        "8764": 50,
        "8765": 226,
        "8766": 68,
        "8767": 29,
        "8768": 43,
        "8769": 123,
        "8770": 168,
        "8771": 176,
        "8772": 87,
        "8773": 45,
        "8774": 123,
        "8775": 38,
        "8776": 190,
        "8777": 209,
        "8778": 233,
        "8779": 236,
        "8780": 191,
        "8781": 4,
        "8782": 168,
        "8783": 26,
        "8784": 206,
        "8785": 247,
        "8786": 70,
        "8787": 26,
        "8788": 50,
        "8789": 123,
        "8790": 199,
        "8791": 123,
        "8792": 198,
        "8793": 79,
        "8794": 190,
        "8795": 86,
        "8796": 175,
        "8797": 213,
        "8798": 230,
        "8799": 150,
        "8800": 216,
        "8801": 72,
        "8802": 108,
        "8803": 15,
        "8804": 161,
        "8805": 9,
        "8806": 155,
        "8807": 148,
        "8808": 250,
        "8809": 24,
        "8810": 116,
        "8811": 211,
        "8812": 228,
        "8813": 247,
        "8814": 201,
        "8815": 54,
        "8816": 71,
        "8817": 82,
        "8818": 31,
        "8819": 130,
        "8820": 107,
        "8821": 6,
        "8822": 18,
        "8823": 17,
        "8824": 164,
        "8825": 81,
        "8826": 72,
        "8827": 187,
        "8828": 205,
        "8829": 193,
        "8830": 237,
        "8831": 55,
        "8832": 79,
        "8833": 20,
        "8834": 65,
        "8835": 63,
        "8836": 200,
        "8837": 122,
        "8838": 55,
        "8839": 224,
        "8840": 112,
        "8841": 151,
        "8842": 253,
        "8843": 95,
        "8844": 42,
        "8845": 17,
        "8846": 88,
        "8847": 104,
        "8848": 144,
        "8849": 60,
        "8850": 144,
        "8851": 254,
        "8852": 36,
        "8853": 184,
        "8854": 62,
        "8855": 135,
        "8856": 142,
        "8857": 253,
        "8858": 142,
        "8859": 165,
        "8860": 170,
        "8861": 143,
        "8862": 233,
        "8863": 35,
        "8864": 88,
        "8865": 117,
        "8866": 31,
        "8867": 152,
        "8868": 134,
        "8869": 38,
        "8870": 32,
        "8871": 200,
        "8872": 135,
        "8873": 114,
        "8874": 222,
        "8875": 21,
        "8876": 79,
        "8877": 32,
        "8878": 24,
        "8879": 196,
        "8880": 132,
        "8881": 74,
        "8882": 238,
        "8883": 93,
        "8884": 220,
        "8885": 151,
        "8886": 142,
        "8887": 150,
        "8888": 154,
        "8889": 100,
        "8890": 242,
        "8891": 35,
        "8892": 215,
        "8893": 143,
        "8894": 97,
        "8895": 217,
        "8896": 96,
        "8897": 147,
        "8898": 153,
        "8899": 23,
        "8900": 121,
        "8901": 113,
        "8902": 43,
        "8903": 106,
        "8904": 18,
        "8905": 55,
        "8906": 6,
        "8907": 203,
        "8908": 68,
        "8909": 192,
        "8910": 52,
        "8911": 186,
        "8912": 253,
        "8913": 105,
        "8914": 86,
        "8915": 9,
        "8916": 157,
        "8917": 244,
        "8918": 228,
        "8919": 237,
        "8920": 138,
        "8921": 208,
        "8922": 27,
        "8923": 171,
        "8924": 197,
        "8925": 162,
        "8926": 117,
        "8927": 11,
        "8928": 23,
        "8929": 82,
        "8930": 105,
        "8931": 55,
        "8932": 176,
        "8933": 172,
        "8934": 15,
        "8935": 98,
        "8936": 231,
        "8937": 97,
        "8938": 119,
        "8939": 159,
        "8940": 115,
        "8941": 119,
        "8942": 141,
        "8943": 204,
        "8944": 216,
        "8945": 240,
        "8946": 13,
        "8947": 214,
        "8948": 163,
        "8949": 182,
        "8950": 57,
        "8951": 253,
        "8952": 154,
        "8953": 104,
        "8954": 22,
        "8955": 132,
        "8956": 14,
        "8957": 80,
        "8958": 234,
        "8959": 54,
        "8960": 113,
        "8961": 9,
        "8962": 59,
        "8963": 103,
        "8964": 103,
        "8965": 56,
        "8966": 81,
        "8967": 35,
        "8968": 198,
        "8969": 223,
        "8970": 255,
        "8971": 181,
        "8972": 116,
        "8973": 238,
        "8974": 190,
        "8975": 191,
        "8976": 109,
        "8977": 54,
        "8978": 3,
        "8979": 128,
        "8980": 218,
        "8981": 97,
        "8982": 171,
        "8983": 239,
        "8984": 172,
        "8985": 26,
        "8986": 156,
        "8987": 135,
        "8988": 238,
        "8989": 215,
        "8990": 204,
        "8991": 169,
        "8992": 231,
        "8993": 157,
        "8994": 110,
        "8995": 150,
        "8996": 225,
        "8997": 151,
        "8998": 65,
        "8999": 48,
        "9000": 243,
        "9001": 174,
        "9002": 160,
        "9003": 162,
        "9004": 187,
        "9005": 78,
        "9006": 110,
        "9007": 247,
        "9008": 6,
        "9009": 66,
        "9010": 23,
        "9011": 12,
        "9012": 123,
        "9013": 227,
        "9014": 148,
        "9015": 72,
        "9016": 100,
        "9017": 164,
        "9018": 242,
        "9019": 104,
        "9020": 45,
        "9021": 183,
        "9022": 97,
        "9023": 202,
        "9024": 187,
        "9025": 201,
        "9026": 191,
        "9027": 121,
        "9028": 168,
        "9029": 201,
        "9030": 35,
        "9031": 224,
        "9032": 220,
        "9033": 141,
        "9034": 7,
        "9035": 124,
        "9036": 107,
        "9037": 143,
        "9038": 170,
        "9039": 234,
        "9040": 138,
        "9041": 137,
        "9042": 209,
        "9043": 166,
        "9044": 143,
        "9045": 172,
        "9046": 128,
        "9047": 48,
        "9048": 175,
        "9049": 88,
        "9050": 15,
        "9051": 125,
        "9052": 186,
        "9053": 104,
        "9054": 217,
        "9055": 37,
        "9056": 112,
        "9057": 73,
        "9058": 54,
        "9059": 60,
        "9060": 160,
        "9061": 238,
        "9062": 175,
        "9063": 252,
        "9064": 87,
        "9065": 47,
        "9066": 63,
        "9067": 13,
        "9068": 232,
        "9069": 143,
        "9070": 214,
        "9071": 235,
        "9072": 159,
        "9073": 159,
        "9074": 79,
        "9075": 251,
        "9076": 207,
        "9077": 227,
        "9078": 157,
        "9079": 51,
        "9080": 144,
        "9081": 173,
        "9082": 174,
        "9083": 227,
        "9084": 103,
        "9085": 240,
        "9086": 167,
        "9087": 97,
        "9088": 106,
        "9089": 10,
        "9090": 34,
        "9091": 184,
        "9092": 245,
        "9093": 42,
        "9094": 189,
        "9095": 173,
        "9096": 71,
        "9097": 161,
        "9098": 225,
        "9099": 231,
        "9100": 226,
        "9101": 142,
        "9102": 135,
        "9103": 87,
        "9104": 90,
        "9105": 244,
        "9106": 5,
        "9107": 128,
        "9108": 71,
        "9109": 194,
        "9110": 97,
        "9111": 73,
        "9112": 252,
        "9113": 46,
        "9114": 121,
        "9115": 40,
        "9116": 186,
        "9117": 92,
        "9118": 125,
        "9119": 10,
        "9120": 33,
        "9121": 166,
        "9122": 159,
        "9123": 132,
        "9124": 48,
        "9125": 117,
        "9126": 98,
        "9127": 232,
        "9128": 154,
        "9129": 12,
        "9130": 152,
        "9131": 80,
        "9132": 81,
        "9133": 0,
        "9134": 238,
        "9135": 210,
        "9136": 181,
        "9137": 251,
        "9138": 144,
        "9139": 252,
        "9140": 102,
        "9141": 52,
        "9142": 131,
        "9143": 77,
        "9144": 115,
        "9145": 240,
        "9146": 25,
        "9147": 17,
        "9148": 68,
        "9149": 204,
        "9150": 99,
        "9151": 164,
        "9152": 244,
        "9153": 149,
        "9154": 113,
        "9155": 88,
        "9156": 59,
        "9157": 57,
        "9158": 254,
        "9159": 249,
        "9160": 9,
        "9161": 143,
        "9162": 255,
        "9163": 236,
        "9164": 141,
        "9165": 241,
        "9166": 126,
        "9167": 82,
        "9168": 239,
        "9169": 251,
        "9170": 104,
        "9171": 210,
        "9172": 248,
        "9173": 174,
        "9174": 126,
        "9175": 80,
        "9176": 11,
        "9177": 14,
        "9178": 48,
        "9179": 140,
        "9180": 191,
        "9181": 146,
        "9182": 106,
        "9183": 76,
        "9184": 176,
        "9185": 68,
        "9186": 170,
        "9187": 165,
        "9188": 148,
        "9189": 81,
        "9190": 183,
        "9191": 134,
        "9192": 74,
        "9193": 195,
        "9194": 60,
        "9195": 122,
        "9196": 16,
        "9197": 74,
        "9198": 201,
        "9199": 255,
        "9200": 197,
        "9201": 115,
        "9202": 222,
        "9203": 68,
        "9204": 234,
        "9205": 205,
        "9206": 126,
        "9207": 224,
        "9208": 70,
        "9209": 212,
        "9210": 214,
        "9211": 107,
        "9212": 6,
        "9213": 128,
        "9214": 128,
        "9215": 136,
        "9216": 165,
        "9217": 215,
        "9218": 15,
        "9219": 52,
        "9220": 185,
        "9221": 13,
        "9222": 46,
        "9223": 93,
        "9224": 181,
        "9225": 114,
        "9226": 174,
        "9227": 184,
        "9228": 147,
        "9229": 131,
        "9230": 62,
        "9231": 175,
        "9232": 144,
        "9233": 194,
        "9234": 236,
        "9235": 47,
        "9236": 72,
        "9237": 61,
        "9238": 94,
        "9239": 50,
        "9240": 74,
        "9241": 165,
        "9242": 66,
        "9243": 57,
        "9244": 144,
        "9245": 60,
        "9246": 72,
        "9247": 154,
        "9248": 34,
        "9249": 61,
        "9250": 65,
        "9251": 143,
        "9252": 159,
        "9253": 133,
        "9254": 119,
        "9255": 109,
        "9256": 119,
        "9257": 40,
        "9258": 194,
        "9259": 70,
        "9260": 137,
        "9261": 252,
        "9262": 138,
        "9263": 93,
        "9264": 151,
        "9265": 58,
        "9266": 185,
        "9267": 94,
        "9268": 132,
        "9269": 206,
        "9270": 159,
        "9271": 138,
        "9272": 106,
        "9273": 51,
        "9274": 39,
        "9275": 187,
        "9276": 129,
        "9277": 111,
        "9278": 139,
        "9279": 224,
        "9280": 39,
        "9281": 205,
        "9282": 243,
        "9283": 5,
        "9284": 193,
        "9285": 176,
        "9286": 157,
        "9287": 223,
        "9288": 56,
        "9289": 13,
        "9290": 115,
        "9291": 87,
        "9292": 251,
        "9293": 158,
        "9294": 112,
        "9295": 121,
        "9296": 222,
        "9297": 240,
        "9298": 222,
        "9299": 12,
        "9300": 14,
        "9301": 218,
        "9302": 73,
        "9303": 38,
        "9304": 12,
        "9305": 67,
        "9306": 180,
        "9307": 94,
        "9308": 185,
        "9309": 245,
        "9310": 106,
        "9311": 163,
        "9312": 81,
        "9313": 12,
        "9314": 207,
        "9315": 135,
        "9316": 203,
        "9317": 129,
        "9318": 125,
        "9319": 215,
        "9320": 138,
        "9321": 218,
        "9322": 176,
        "9323": 125,
        "9324": 184,
        "9325": 142,
        "9326": 25,
        "9327": 33,
        "9328": 190,
        "9329": 90,
        "9330": 5,
        "9331": 22,
        "9332": 156,
        "9333": 231,
        "9334": 203,
        "9335": 182,
        "9336": 57,
        "9337": 103,
        "9338": 192,
        "9339": 250,
        "9340": 194,
        "9341": 135,
        "9342": 17,
        "9343": 3,
        "9344": 73,
        "9345": 22,
        "9346": 78,
        "9347": 253,
        "9348": 6,
        "9349": 166,
        "9350": 56,
        "9351": 176,
        "9352": 121,
        "9353": 223,
        "9354": 95,
        "9355": 73,
        "9356": 196,
        "9357": 216,
        "9358": 155,
        "9359": 15,
        "9360": 67,
        "9361": 3,
        "9362": 106,
        "9363": 89,
        "9364": 183,
        "9365": 74,
        "9366": 205,
        "9367": 251,
        "9368": 206,
        "9369": 174,
        "9370": 234,
        "9371": 183,
        "9372": 233,
        "9373": 95,
        "9374": 58,
        "9375": 3,
        "9376": 222,
        "9377": 107,
        "9378": 72,
        "9379": 119,
        "9380": 2,
        "9381": 63,
        "9382": 94,
        "9383": 56,
        "9384": 20,
        "9385": 39,
        "9386": 119,
        "9387": 198,
        "9388": 33,
        "9389": 10,
        "9390": 245,
        "9391": 149,
        "9392": 11,
        "9393": 185,
        "9394": 225,
        "9395": 133,
        "9396": 56,
        "9397": 111,
        "9398": 223,
        "9399": 121,
        "9400": 42,
        "9401": 118,
        "9402": 95,
        "9403": 63,
        "9404": 195,
        "9405": 240,
        "9406": 120,
        "9407": 101,
        "9408": 28,
        "9409": 108,
        "9410": 75,
        "9411": 217,
        "9412": 28,
        "9413": 201,
        "9414": 144,
        "9415": 120,
        "9416": 67,
        "9417": 180,
        "9418": 31,
        "9419": 31,
        "9420": 143,
        "9421": 194,
        "9422": 21,
        "9423": 109,
        "9424": 113,
        "9425": 220,
        "9426": 95,
        "9427": 122,
        "9428": 191,
        "9429": 174,
        "9430": 177,
        "9431": 12,
        "9432": 252,
        "9433": 97,
        "9434": 229,
        "9435": 14,
        "9436": 71,
        "9437": 210,
        "9438": 198,
        "9439": 219,
        "9440": 75,
        "9441": 45,
        "9442": 160,
        "9443": 24,
        "9444": 232,
        "9445": 224,
        "9446": 39,
        "9447": 147,
        "9448": 64,
        "9449": 17,
        "9450": 91,
        "9451": 28,
        "9452": 189,
        "9453": 102,
        "9454": 242,
        "9455": 195,
        "9456": 67,
        "9457": 59,
        "9458": 208,
        "9459": 159,
        "9460": 114,
        "9461": 175,
        "9462": 37,
        "9463": 203,
        "9464": 74,
        "9465": 144,
        "9466": 157,
        "9467": 32,
        "9468": 148,
        "9469": 177,
        "9470": 57,
        "9471": 149,
        "9472": 248,
        "9473": 199,
        "9474": 227,
        "9475": 6,
        "9476": 108,
        "9477": 104,
        "9478": 20,
        "9479": 227,
        "9480": 53,
        "9481": 241,
        "9482": 194,
        "9483": 0,
        "9484": 126,
        "9485": 224,
        "9486": 8,
        "9487": 55,
        "9488": 149,
        "9489": 185,
        "9490": 166,
        "9491": 122,
        "9492": 216,
        "9493": 16,
        "9494": 61,
        "9495": 19,
        "9496": 125,
        "9497": 119,
        "9498": 137,
        "9499": 102,
        "9500": 47,
        "9501": 116,
        "9502": 113,
        "9503": 35,
        "9504": 93,
        "9505": 7,
        "9506": 104,
        "9507": 2,
        "9508": 91,
        "9509": 129,
        "9510": 84,
        "9511": 18,
        "9512": 213,
        "9513": 122,
        "9514": 127,
        "9515": 218,
        "9516": 14,
        "9517": 2,
        "9518": 34,
        "9519": 18,
        "9520": 149,
        "9521": 19,
        "9522": 178,
        "9523": 111,
        "9524": 51,
        "9525": 158,
        "9526": 95,
        "9527": 134,
        "9528": 7,
        "9529": 183,
        "9530": 112,
        "9531": 125,
        "9532": 162,
        "9533": 20,
        "9534": 49,
        "9535": 212,
        "9536": 52,
        "9537": 7,
        "9538": 232,
        "9539": 225,
        "9540": 210,
        "9541": 246,
        "9542": 117,
        "9543": 109,
        "9544": 164,
        "9545": 118,
        "9546": 72,
        "9547": 64,
        "9548": 29,
        "9549": 85,
        "9550": 78,
        "9551": 170,
        "9552": 188,
        "9553": 74,
        "9554": 45,
        "9555": 6,
        "9556": 236,
        "9557": 235,
        "9558": 152,
        "9559": 1,
        "9560": 183,
        "9561": 1,
        "9562": 85,
        "9563": 52,
        "9564": 254,
        "9565": 94,
        "9566": 251,
        "9567": 65,
        "9568": 132,
        "9569": 60,
        "9570": 204,
        "9571": 134,
        "9572": 141,
        "9573": 33,
        "9574": 90,
        "9575": 196,
        "9576": 140,
        "9577": 112,
        "9578": 66,
        "9579": 207,
        "9580": 206,
        "9581": 123,
        "9582": 227,
        "9583": 135,
        "9584": 158,
        "9585": 171,
        "9586": 152,
        "9587": 133,
        "9588": 177,
        "9589": 143,
        "9590": 42,
        "9591": 124,
        "9592": 152,
        "9593": 45,
        "9594": 222,
        "9595": 213,
        "9596": 36,
        "9597": 183,
        "9598": 74,
        "9599": 48,
        "9600": 66,
        "9601": 130,
        "9602": 24,
        "9603": 160,
        "9604": 186,
        "9605": 227,
        "9606": 142,
        "9607": 8,
        "9608": 220,
        "9609": 241,
        "9610": 142,
        "9611": 68,
        "9612": 165,
        "9613": 102,
        "9614": 3,
        "9615": 99,
        "9616": 152,
        "9617": 30,
        "9618": 27,
        "9619": 106,
        "9620": 13,
        "9621": 96,
        "9622": 21,
        "9623": 119,
        "9624": 15,
        "9625": 230,
        "9626": 121,
        "9627": 205,
        "9628": 82,
        "9629": 83,
        "9630": 230,
        "9631": 129,
        "9632": 180,
        "9633": 121,
        "9634": 5,
        "9635": 20,
        "9636": 29,
        "9637": 69,
        "9638": 175,
        "9639": 137,
        "9640": 117,
        "9641": 18,
        "9642": 93,
        "9643": 202,
        "9644": 233,
        "9645": 179,
        "9646": 130,
        "9647": 114,
        "9648": 34,
        "9649": 54,
        "9650": 86,
        "9651": 51,
        "9652": 217,
        "9653": 60,
        "9654": 16,
        "9655": 51,
        "9656": 231,
        "9657": 139,
        "9658": 54,
        "9659": 167,
        "9660": 197,
        "9661": 92,
        "9662": 212,
        "9663": 203,
        "9664": 123,
        "9665": 47,
        "9666": 120,
        "9667": 26,
        "9668": 55,
        "9669": 140,
        "9670": 236,
        "9671": 202,
        "9672": 73,
        "9673": 214,
        "9674": 10,
        "9675": 255,
        "9676": 189,
        "9677": 227,
        "9678": 124,
        "9679": 63,
        "9680": 91,
        "9681": 68,
        "9682": 116,
        "9683": 99,
        "9684": 210,
        "9685": 151,
        "9686": 193,
        "9687": 92,
        "9688": 211,
        "9689": 76,
        "9690": 111,
        "9691": 61,
        "9692": 38,
        "9693": 189,
        "9694": 102,
        "9695": 19,
        "9696": 35,
        "9697": 197,
        "9698": 186,
        "9699": 84,
        "9700": 198,
        "9701": 46,
        "9702": 230,
        "9703": 126,
        "9704": 243,
        "9705": 123,
        "9706": 13,
        "9707": 214,
        "9708": 69,
        "9709": 191,
        "9710": 192,
        "9711": 150,
        "9712": 51,
        "9713": 53,
        "9714": 24,
        "9715": 212,
        "9716": 56,
        "9717": 101,
        "9718": 206,
        "9719": 157,
        "9720": 159,
        "9721": 177,
        "9722": 39,
        "9723": 173,
        "9724": 162,
        "9725": 102,
        "9726": 174,
        "9727": 172,
        "9728": 193,
        "9729": 194,
        "9730": 208,
        "9731": 56,
        "9732": 17,
        "9733": 206,
        "9734": 165,
        "9735": 193,
        "9736": 204,
        "9737": 72,
        "9738": 61,
        "9739": 189,
        "9740": 237,
        "9741": 37,
        "9742": 21,
        "9743": 228,
        "9744": 162,
        "9745": 47,
        "9746": 19,
        "9747": 196,
        "9748": 30,
        "9749": 151,
        "9750": 238,
        "9751": 123,
        "9752": 158,
        "9753": 162,
        "9754": 20,
        "9755": 152,
        "9756": 21,
        "9757": 216,
        "9758": 165,
        "9759": 28,
        "9760": 204,
        "9761": 94,
        "9762": 191,
        "9763": 87,
        "9764": 80,
        "9765": 218,
        "9766": 71,
        "9767": 144,
        "9768": 1,
        "9769": 34,
        "9770": 255,
        "9771": 120,
        "9772": 110,
        "9773": 69,
        "9774": 246,
        "9775": 230,
        "9776": 130,
        "9777": 34,
        "9778": 77,
        "9779": 239,
        "9780": 55,
        "9781": 203,
        "9782": 86,
        "9783": 38,
        "9784": 127,
        "9785": 193,
        "9786": 94,
        "9787": 249,
        "9788": 192,
        "9789": 158,
        "9790": 216,
        "9791": 114,
        "9792": 189,
        "9793": 65,
        "9794": 73,
        "9795": 14,
        "9796": 20,
        "9797": 18,
        "9798": 74,
        "9799": 4,
        "9800": 36,
        "9801": 153,
        "9802": 58,
        "9803": 160,
        "9804": 154,
        "9805": 72,
        "9806": 51,
        "9807": 38,
        "9808": 194,
        "9809": 28,
        "9810": 237,
        "9811": 151,
        "9812": 168,
        "9813": 47,
        "9814": 208,
        "9815": 63,
        "9816": 56,
        "9817": 117,
        "9818": 69,
        "9819": 185,
        "9820": 121,
        "9821": 234,
        "9822": 108,
        "9823": 189,
        "9824": 4,
        "9825": 242,
        "9826": 91,
        "9827": 90,
        "9828": 17,
        "9829": 138,
        "9830": 245,
        "9831": 164,
        "9832": 12,
        "9833": 252,
        "9834": 41,
        "9835": 143,
        "9836": 62,
        "9837": 53,
        "9838": 41,
        "9839": 43,
        "9840": 121,
        "9841": 150,
        "9842": 255,
        "9843": 252,
        "9844": 112,
        "9845": 143,
        "9846": 83,
        "9847": 0,
        "9848": 112,
        "9849": 48,
        "9850": 104,
        "9851": 142,
        "9852": 232,
        "9853": 227,
        "9854": 19,
        "9855": 134,
        "9856": 176,
        "9857": 32,
        "9858": 193,
        "9859": 223,
        "9860": 215,
        "9861": 179,
        "9862": 211,
        "9863": 22,
        "9864": 26,
        "9865": 177,
        "9866": 59,
        "9867": 132,
        "9868": 66,
        "9869": 254,
        "9870": 226,
        "9871": 10,
        "9872": 135,
        "9873": 176,
        "9874": 92,
        "9875": 118,
        "9876": 19,
        "9877": 204,
        "9878": 246,
        "9879": 23,
        "9880": 139,
        "9881": 228,
        "9882": 54,
        "9883": 33,
        "9884": 117,
        "9885": 12,
        "9886": 51,
        "9887": 53,
        "9888": 104,
        "9889": 188,
        "9890": 95,
        "9891": 116,
        "9892": 172,
        "9893": 203,
        "9894": 226,
        "9895": 213,
        "9896": 225,
        "9897": 178,
        "9898": 162,
        "9899": 141,
        "9900": 167,
        "9901": 104,
        "9902": 140,
        "9903": 156,
        "9904": 200,
        "9905": 177,
        "9906": 144,
        "9907": 1,
        "9908": 207,
        "9909": 237,
        "9910": 34,
        "9911": 190,
        "9912": 239,
        "9913": 61,
        "9914": 240,
        "9915": 46,
        "9916": 87,
        "9917": 79,
        "9918": 178,
        "9919": 19,
        "9920": 245,
        "9921": 48,
        "9922": 223,
        "9923": 6,
        "9924": 225,
        "9925": 223,
        "9926": 254,
        "9927": 214,
        "9928": 112,
        "9929": 181,
        "9930": 73,
        "9931": 195,
        "9932": 200,
        "9933": 149,
        "9934": 130,
        "9935": 118,
        "9936": 220,
        "9937": 113,
        "9938": 98,
        "9939": 240,
        "9940": 4,
        "9941": 105,
        "9942": 56,
        "9943": 52,
        "9944": 62,
        "9945": 10,
        "9946": 147,
        "9947": 61,
        "9948": 38,
        "9949": 37,
        "9950": 232,
        "9951": 178,
        "9952": 178,
        "9953": 49,
        "9954": 175,
        "9955": 25,
        "9956": 21,
        "9957": 225,
        "9958": 218,
        "9959": 252,
        "9960": 122,
        "9961": 229,
        "9962": 78,
        "9963": 24,
        "9964": 116,
        "9965": 252,
        "9966": 71,
        "9967": 16,
        "9968": 185,
        "9969": 232,
        "9970": 25,
        "9971": 196,
        "9972": 210,
        "9973": 188,
        "9974": 209,
        "9975": 216,
        "9976": 83,
        "9977": 32,
        "9978": 205,
        "9979": 48,
        "9980": 166,
        "9981": 40,
        "9982": 99,
        "9983": 75,
        "9984": 116,
        "9985": 185,
        "9986": 223,
        "9987": 243,
        "9988": 229,
        "9989": 204,
        "9990": 153,
        "9991": 181,
        "9992": 126,
        "9993": 38,
        "9994": 241,
        "9995": 245,
        "9996": 105,
        "9997": 199,
        "9998": 246,
        "9999": 181,
        "10000": 220,
        "10001": 141,
        "10002": 247,
        "10003": 46,
        "10004": 5,
        "10005": 89,
        "10006": 196,
        "10007": 161,
        "10008": 131,
        "10009": 80,
        "10010": 204,
        "10011": 144,
        "10012": 145,
        "10013": 137,
        "10014": 177,
        "10015": 37,
        "10016": 59,
        "10017": 222,
        "10018": 183,
        "10019": 58,
        "10020": 116,
        "10021": 209,
        "10022": 71,
        "10023": 64,
        "10024": 81,
        "10025": 18,
        "10026": 80,
        "10027": 86,
        "10028": 250,
        "10029": 118,
        "10030": 82,
        "10031": 101,
        "10032": 166,
        "10033": 27,
        "10034": 175,
        "10035": 0,
        "10036": 251,
        "10037": 66,
        "10038": 160,
        "10039": 32,
        "10040": 155,
        "10041": 39,
        "10042": 97,
        "10043": 241,
        "10044": 162,
        "10045": 251,
        "10046": 196,
        "10047": 217,
        "10048": 240,
        "10049": 196,
        "10050": 25,
        "10051": 159,
        "10052": 40,
        "10053": 92,
        "10054": 169,
        "10055": 23,
        "10056": 161,
        "10057": 251,
        "10058": 236,
        "10059": 26,
        "10060": 21,
        "10061": 6,
        "10062": 9,
        "10063": 173,
        "10064": 96,
        "10065": 127,
        "10066": 253,
        "10067": 11,
        "10068": 231,
        "10069": 59,
        "10070": 138,
        "10071": 172,
        "10072": 171,
        "10073": 178,
        "10074": 102,
        "10075": 115,
        "10076": 62,
        "10077": 255,
        "10078": 65,
        "10079": 1,
        "10080": 126,
        "10081": 104,
        "10082": 235,
        "10083": 216,
        "10084": 223,
        "10085": 15,
        "10086": 207,
        "10087": 91,
        "10088": 185,
        "10089": 213,
        "10090": 200,
        "10091": 8,
        "10092": 72,
        "10093": 96,
        "10094": 89,
        "10095": 161,
        "10096": 222,
        "10097": 248,
        "10098": 26,
        "10099": 90,
        "10100": 203,
        "10101": 47,
        "10102": 201,
        "10103": 213,
        "10104": 145,
        "10105": 200,
        "10106": 15,
        "10107": 100,
        "10108": 200,
        "10109": 103,
        "10110": 99,
        "10111": 15,
        "10112": 182,
        "10113": 251,
        "10114": 6,
        "10115": 219,
        "10116": 81,
        "10117": 109,
        "10118": 3,
        "10119": 208,
        "10120": 199,
        "10121": 130,
        "10122": 219,
        "10123": 179,
        "10124": 177,
        "10125": 54,
        "10126": 112,
        "10127": 21,
        "10128": 231,
        "10129": 175,
        "10130": 138,
        "10131": 176,
        "10132": 212,
        "10133": 66,
        "10134": 91,
        "10135": 14,
        "10136": 253,
        "10137": 17,
        "10138": 184,
        "10139": 253,
        "10140": 53,
        "10141": 230,
        "10142": 186,
        "10143": 95,
        "10144": 152,
        "10145": 232,
        "10146": 73,
        "10147": 24,
        "10148": 116,
        "10149": 96,
        "10150": 107,
        "10151": 19,
        "10152": 189,
        "10153": 205,
        "10154": 167,
        "10155": 75,
        "10156": 102,
        "10157": 253,
        "10158": 189,
        "10159": 203,
        "10160": 80,
        "10161": 93,
        "10162": 251,
        "10163": 237,
        "10164": 237,
        "10165": 176,
        "10166": 162,
        "10167": 26,
        "10168": 190,
        "10169": 247,
        "10170": 212,
        "10171": 220,
        "10172": 14,
        "10173": 58,
        "10174": 83,
        "10175": 95,
        "10176": 103,
        "10177": 130,
        "10178": 189,
        "10179": 50,
        "10180": 167,
        "10181": 190,
        "10182": 179,
        "10183": 2,
        "10184": 129,
        "10185": 184,
        "10186": 53,
        "10187": 162,
        "10188": 160,
        "10189": 1,
        "10190": 210,
        "10191": 205,
        "10192": 122,
        "10193": 249,
        "10194": 220,
        "10195": 250,
        "10196": 113,
        "10197": 149,
        "10198": 11,
        "10199": 141,
        "10200": 10,
        "10201": 55,
        "10202": 92,
        "10203": 239,
        "10204": 191,
        "10205": 251,
        "10206": 130,
        "10207": 131,
        "10208": 220,
        "10209": 53,
        "10210": 97,
        "10211": 121,
        "10212": 115,
        "10213": 151,
        "10214": 231,
        "10215": 13,
        "10216": 244,
        "10217": 125,
        "10218": 135,
        "10219": 92,
        "10220": 240,
        "10221": 150,
        "10222": 122,
        "10223": 239,
        "10224": 29,
        "10225": 187,
        "10226": 87,
        "10227": 216,
        "10228": 213,
        "10229": 158,
        "10230": 28,
        "10231": 178,
        "10232": 49,
        "10233": 101,
        "10234": 184,
        "10235": 137,
        "10236": 87,
        "10237": 93,
        "10238": 206,
        "10239": 120,
        "10240": 129,
        "10241": 37,
        "10242": 172,
        "10243": 129,
        "10244": 93,
        "10245": 130,
        "10246": 42,
        "10247": 200,
        "10248": 165,
        "10249": 126,
        "10250": 216,
        "10251": 201,
        "10252": 71,
        "10253": 3,
        "10254": 193,
        "10255": 14,
        "10256": 158,
        "10257": 241,
        "10258": 20,
        "10259": 247,
        "10260": 116,
        "10261": 116,
        "10262": 165,
        "10263": 214,
        "10264": 234,
        "10265": 88,
        "10266": 104,
        "10267": 50,
        "10268": 33,
        "10269": 120,
        "10270": 150,
        "10271": 55,
        "10272": 91,
        "10273": 32,
        "10274": 76,
        "10275": 123,
        "10276": 138,
        "10277": 17,
        "10278": 239,
        "10279": 116,
        "10280": 22,
        "10281": 92,
        "10282": 255,
        "10283": 103,
        "10284": 63,
        "10285": 77,
        "10286": 199,
        "10287": 103,
        "10288": 109,
        "10289": 3,
        "10290": 48,
        "10291": 105,
        "10292": 69,
        "10293": 45,
        "10294": 239,
        "10295": 112,
        "10296": 155,
        "10297": 120,
        "10298": 171,
        "10299": 192,
        "10300": 227,
        "10301": 181,
        "10302": 76,
        "10303": 7,
        "10304": 242,
        "10305": 165,
        "10306": 173,
        "10307": 12,
        "10308": 39,
        "10309": 3,
        "10310": 42,
        "10311": 6,
        "10312": 153,
        "10313": 63,
        "10314": 13,
        "10315": 244,
        "10316": 130,
        "10317": 224,
        "10318": 229,
        "10319": 74,
        "10320": 196,
        "10321": 214,
        "10322": 70,
        "10323": 251,
        "10324": 185,
        "10325": 16,
        "10326": 40,
        "10327": 164,
        "10328": 110,
        "10329": 220,
        "10330": 153,
        "10331": 102,
        "10332": 76,
        "10333": 2,
        "10334": 241,
        "10335": 117,
        "10336": 157,
        "10337": 245,
        "10338": 242,
        "10339": 40,
        "10340": 102,
        "10341": 255,
        "10342": 49,
        "10343": 199,
        "10344": 33,
        "10345": 4,
        "10346": 71,
        "10347": 210,
        "10348": 152,
        "10349": 28,
        "10350": 74,
        "10351": 95,
        "10352": 55,
        "10353": 11,
        "10354": 173,
        "10355": 254,
        "10356": 194,
        "10357": 173,
        "10358": 170,
        "10359": 133,
        "10360": 15,
        "10361": 207,
        "10362": 8,
        "10363": 73,
        "10364": 63,
        "10365": 33,
        "10366": 119,
        "10367": 132,
        "10368": 85,
        "10369": 209,
        "10370": 224,
        "10371": 193,
        "10372": 237,
        "10373": 31,
        "10374": 211,
        "10375": 169,
        "10376": 19,
        "10377": 137,
        "10378": 44,
        "10379": 173,
        "10380": 107,
        "10381": 151,
        "10382": 43,
        "10383": 181,
        "10384": 8,
        "10385": 85,
        "10386": 63,
        "10387": 232,
        "10388": 51,
        "10389": 3,
        "10390": 145,
        "10391": 105,
        "10392": 212,
        "10393": 18,
        "10394": 80,
        "10395": 29,
        "10396": 245,
        "10397": 191,
        "10398": 159,
        "10399": 91,
        "10400": 145,
        "10401": 89,
        "10402": 144,
        "10403": 237,
        "10404": 218,
        "10405": 124,
        "10406": 60,
        "10407": 247,
        "10408": 16,
        "10409": 207,
        "10410": 65,
        "10411": 57,
        "10412": 192,
        "10413": 2,
        "10414": 242,
        "10415": 191,
        "10416": 86,
        "10417": 206,
        "10418": 193,
        "10419": 85,
        "10420": 160,
        "10421": 71,
        "10422": 117,
        "10423": 150,
        "10424": 170,
        "10425": 165,
        "10426": 170,
        "10427": 82,
        "10428": 163,
        "10429": 234,
        "10430": 74,
        "10431": 40,
        "10432": 222,
        "10433": 222,
        "10434": 3,
        "10435": 150,
        "10436": 243,
        "10437": 151,
        "10438": 124,
        "10439": 101,
        "10440": 99,
        "10441": 219,
        "10442": 107,
        "10443": 145,
        "10444": 78,
        "10445": 218,
        "10446": 214,
        "10447": 87,
        "10448": 113,
        "10449": 145,
        "10450": 22,
        "10451": 31,
        "10452": 130,
        "10453": 219,
        "10454": 140,
        "10455": 28,
        "10456": 163,
        "10457": 196,
        "10458": 32,
        "10459": 222,
        "10460": 56,
        "10461": 60,
        "10462": 194,
        "10463": 183,
        "10464": 213,
        "10465": 155,
        "10466": 36,
        "10467": 76,
        "10468": 223,
        "10469": 93,
        "10470": 54,
        "10471": 49,
        "10472": 119,
        "10473": 46,
        "10474": 61,
        "10475": 99,
        "10476": 188,
        "10477": 97,
        "10478": 205,
        "10479": 106,
        "10480": 195,
        "10481": 8,
        "10482": 163,
        "10483": 218,
        "10484": 55,
        "10485": 211,
        "10486": 238,
        "10487": 107,
        "10488": 133,
        "10489": 85,
        "10490": 75,
        "10491": 117,
        "10492": 128,
        "10493": 201,
        "10494": 139,
        "10495": 195,
        "10496": 175,
        "10497": 244,
        "10498": 128,
        "10499": 68,
        "10500": 248,
        "10501": 29,
        "10502": 158,
        "10503": 153,
        "10504": 56,
        "10505": 149,
        "10506": 101,
        "10507": 122,
        "10508": 139,
        "10509": 25,
        "10510": 167,
        "10511": 114,
        "10512": 47,
        "10513": 131,
        "10514": 147,
        "10515": 242,
        "10516": 201,
        "10517": 51,
        "10518": 130,
        "10519": 139,
        "10520": 241,
        "10521": 204,
        "10522": 193,
        "10523": 168,
        "10524": 101,
        "10525": 29,
        "10526": 67,
        "10527": 231,
        "10528": 242,
        "10529": 70,
        "10530": 73,
        "10531": 19,
        "10532": 106,
        "10533": 94,
        "10534": 68,
        "10535": 9,
        "10536": 25,
        "10537": 222,
        "10538": 217,
        "10539": 14,
        "10540": 188,
        "10541": 50,
        "10542": 146,
        "10543": 29,
        "10544": 198,
        "10545": 143,
        "10546": 60,
        "10547": 183,
        "10548": 166,
        "10549": 176,
        "10550": 204,
        "10551": 14,
        "10552": 174,
        "10553": 129,
        "10554": 246,
        "10555": 137,
        "10556": 176,
        "10557": 89,
        "10558": 231,
        "10559": 25,
        "10560": 153,
        "10561": 80,
        "10562": 150,
        "10563": 136,
        "10564": 35,
        "10565": 252,
        "10566": 120,
        "10567": 125,
        "10568": 136,
        "10569": 113,
        "10570": 162,
        "10571": 60,
        "10572": 222,
        "10573": 98,
        "10574": 229,
        "10575": 17,
        "10576": 203,
        "10577": 19,
        "10578": 220,
        "10579": 119,
        "10580": 225,
        "10581": 209,
        "10582": 163,
        "10583": 159,
        "10584": 187,
        "10585": 180,
        "10586": 72,
        "10587": 9,
        "10588": 123,
        "10589": 37,
        "10590": 116,
        "10591": 125,
        "10592": 11,
        "10593": 249,
        "10594": 214,
        "10595": 220,
        "10596": 77,
        "10597": 47,
        "10598": 157,
        "10599": 135,
        "10600": 138,
        "10601": 37,
        "10602": 237,
        "10603": 246,
        "10604": 217,
        "10605": 109,
        "10606": 188,
        "10607": 249,
        "10608": 200,
        "10609": 249,
        "10610": 199,
        "10611": 122,
        "10612": 255,
        "10613": 118,
        "10614": 188,
        "10615": 146,
        "10616": 219,
        "10617": 18,
        "10618": 165,
        "10619": 243,
        "10620": 98,
        "10621": 231,
        "10622": 92,
        "10623": 229,
        "10624": 170,
        "10625": 214,
        "10626": 130,
        "10627": 142,
        "10628": 36,
        "10629": 228,
        "10630": 113,
        "10631": 66,
        "10632": 229,
        "10633": 131,
        "10634": 137,
        "10635": 26,
        "10636": 220,
        "10637": 59,
        "10638": 29,
        "10639": 226,
        "10640": 168,
        "10641": 246,
        "10642": 85,
        "10643": 250,
        "10644": 210,
        "10645": 77,
        "10646": 195,
        "10647": 239,
        "10648": 7,
        "10649": 175,
        "10650": 199,
        "10651": 237,
        "10652": 125,
        "10653": 110,
        "10654": 180,
        "10655": 214,
        "10656": 81,
        "10657": 135,
        "10658": 114,
        "10659": 170,
        "10660": 129,
        "10661": 165,
        "10662": 92,
        "10663": 8,
        "10664": 226,
        "10665": 240,
        "10666": 80,
        "10667": 183,
        "10668": 60,
        "10669": 211,
        "10670": 128,
        "10671": 67,
        "10672": 107,
        "10673": 222,
        "10674": 205,
        "10675": 1,
        "10676": 25,
        "10677": 199,
        "10678": 153,
        "10679": 68,
        "10680": 104,
        "10681": 180,
        "10682": 132,
        "10683": 250,
        "10684": 159,
        "10685": 77,
        "10686": 90,
        "10687": 25,
        "10688": 236,
        "10689": 38,
        "10690": 220,
        "10691": 232,
        "10692": 218,
        "10693": 221,
        "10694": 41,
        "10695": 86,
        "10696": 165,
        "10697": 85,
        "10698": 153,
        "10699": 249,
        "10700": 95,
        "10701": 209,
        "10702": 218,
        "10703": 126,
        "10704": 50,
        "10705": 24,
        "10706": 124,
        "10707": 61,
        "10708": 73,
        "10709": 153,
        "10710": 147,
        "10711": 190,
        "10712": 177,
        "10713": 96,
        "10714": 169,
        "10715": 100,
        "10716": 85,
        "10717": 182,
        "10718": 25,
        "10719": 164,
        "10720": 164,
        "10721": 22,
        "10722": 179,
        "10723": 188,
        "10724": 210,
        "10725": 249,
        "10726": 55,
        "10727": 198,
        "10728": 102,
        "10729": 17,
        "10730": 197,
        "10731": 144,
        "10732": 51,
        "10733": 16,
        "10734": 132,
        "10735": 131,
        "10736": 35,
        "10737": 89,
        "10738": 80,
        "10739": 229,
        "10740": 249,
        "10741": 181,
        "10742": 115,
        "10743": 111,
        "10744": 119,
        "10745": 23,
        "10746": 150,
        "10747": 227,
        "10748": 199,
        "10749": 235,
        "10750": 240,
        "10751": 205,
        "10752": 227,
        "10753": 44,
        "10754": 205,
        "10755": 84,
        "10756": 246,
        "10757": 81,
        "10758": 230,
        "10759": 184,
        "10760": 169,
        "10761": 193,
        "10762": 93,
        "10763": 143,
        "10764": 111,
        "10765": 189,
        "10766": 122,
        "10767": 255,
        "10768": 139,
        "10769": 13,
        "10770": 107,
        "10771": 179,
        "10772": 26,
        "10773": 48,
        "10774": 131,
        "10775": 126,
        "10776": 186,
        "10777": 8,
        "10778": 57,
        "10779": 113,
        "10780": 171,
        "10781": 120,
        "10782": 157,
        "10783": 185,
        "10784": 20,
        "10785": 52,
        "10786": 93,
        "10787": 69,
        "10788": 58,
        "10789": 28,
        "10790": 142,
        "10791": 174,
        "10792": 83,
        "10793": 131,
        "10794": 252,
        "10795": 169,
        "10796": 120,
        "10797": 175,
        "10798": 8,
        "10799": 48,
        "10800": 72,
        "10801": 138,
        "10802": 192,
        "10803": 87,
        "10804": 17,
        "10805": 233,
        "10806": 202,
        "10807": 96,
        "10808": 165,
        "10809": 88,
        "10810": 141,
        "10811": 192,
        "10812": 84,
        "10813": 130,
        "10814": 114,
        "10815": 196,
        "10816": 95,
        "10817": 65,
        "10818": 99,
        "10819": 218,
        "10820": 64,
        "10821": 141,
        "10822": 211,
        "10823": 100,
        "10824": 134,
        "10825": 127,
        "10826": 209,
        "10827": 154,
        "10828": 249,
        "10829": 213,
        "10830": 166,
        "10831": 230,
        "10832": 50,
        "10833": 105,
        "10834": 61,
        "10835": 128,
        "10836": 166,
        "10837": 119,
        "10838": 250,
        "10839": 154,
        "10840": 2,
        "10841": 68,
        "10842": 230,
        "10843": 5,
        "10844": 201,
        "10845": 84,
        "10846": 211,
        "10847": 42,
        "10848": 230,
        "10849": 189,
        "10850": 104,
        "10851": 74,
        "10852": 212,
        "10853": 227,
        "10854": 253,
        "10855": 4,
        "10856": 120,
        "10857": 179,
        "10858": 203,
        "10859": 97,
        "10860": 15,
        "10861": 124,
        "10862": 136,
        "10863": 6,
        "10864": 117,
        "10865": 183,
        "10866": 80,
        "10867": 11,
        "10868": 144,
        "10869": 191,
        "10870": 176,
        "10871": 83,
        "10872": 228,
        "10873": 161,
        "10874": 161,
        "10875": 125,
        "10876": 233,
        "10877": 121,
        "10878": 126,
        "10879": 73,
        "10880": 12,
        "10881": 32,
        "10882": 79,
        "10883": 161,
        "10884": 97,
        "10885": 184,
        "10886": 220,
        "10887": 254,
        "10888": 247,
        "10889": 213,
        "10890": 130,
        "10891": 35,
        "10892": 228,
        "10893": 216,
        "10894": 214,
        "10895": 225,
        "10896": 145,
        "10897": 99,
        "10898": 179,
        "10899": 127,
        "10900": 30,
        "10901": 14,
        "10902": 233,
        "10903": 201,
        "10904": 75,
        "10905": 3,
        "10906": 58,
        "10907": 34,
        "10908": 133,
        "10909": 134,
        "10910": 103,
        "10911": 19,
        "10912": 233,
        "10913": 60,
        "10914": 249,
        "10915": 194,
        "10916": 126,
        "10917": 172,
        "10918": 85,
        "10919": 196,
        "10920": 9,
        "10921": 81,
        "10922": 199,
        "10923": 45,
        "10924": 121,
        "10925": 251,
        "10926": 78,
        "10927": 130,
        "10928": 214,
        "10929": 190,
        "10930": 96,
        "10931": 7,
        "10932": 227,
        "10933": 143,
        "10934": 244,
        "10935": 216,
        "10936": 118,
        "10937": 226,
        "10938": 213,
        "10939": 95,
        "10940": 167,
        "10941": 100,
        "10942": 153,
        "10943": 201,
        "10944": 185,
        "10945": 65,
        "10946": 109,
        "10947": 135,
        "10948": 210,
        "10949": 150,
        "10950": 254,
        "10951": 55,
        "10952": 121,
        "10953": 200,
        "10954": 176,
        "10955": 176,
        "10956": 200,
        "10957": 9,
        "10958": 128,
        "10959": 157,
        "10960": 39,
        "10961": 47,
        "10962": 227,
        "10963": 248,
        "10964": 37,
        "10965": 1,
        "10966": 105,
        "10967": 110,
        "10968": 102,
        "10969": 119,
        "10970": 55,
        "10971": 82,
        "10972": 244,
        "10973": 46,
        "10974": 253,
        "10975": 167,
        "10976": 27,
        "10977": 34,
        "10978": 15,
        "10979": 145,
        "10980": 113,
        "10981": 130,
        "10982": 32,
        "10983": 26,
        "10984": 157,
        "10985": 56,
        "10986": 187,
        "10987": 154,
        "10988": 70,
        "10989": 124,
        "10990": 110,
        "10991": 19,
        "10992": 37,
        "10993": 107,
        "10994": 64,
        "10995": 7,
        "10996": 189,
        "10997": 144,
        "10998": 219,
        "10999": 230,
        "11000": 86,
        "11001": 37,
        "11002": 184,
        "11003": 93,
        "11004": 153,
        "11005": 232,
        "11006": 50,
        "11007": 104,
        "11008": 73,
        "11009": 242,
        "11010": 21,
        "11011": 36,
        "11012": 204,
        "11013": 226,
        "11014": 127,
        "11015": 200,
        "11016": 94,
        "11017": 75,
        "11018": 141,
        "11019": 154,
        "11020": 82,
        "11021": 33,
        "11022": 87,
        "11023": 63,
        "11024": 228,
        "11025": 53,
        "11026": 239,
        "11027": 63,
        "11028": 31,
        "11029": 114,
        "11030": 222,
        "11031": 145,
        "11032": 236,
        "11033": 32,
        "11034": 50,
        "11035": 129,
        "11036": 246,
        "11037": 95,
        "11038": 147,
        "11039": 228,
        "11040": 113,
        "11041": 100,
        "11042": 242,
        "11043": 177,
        "11044": 186,
        "11045": 214,
        "11046": 25,
        "11047": 250,
        "11048": 99,
        "11049": 243,
        "11050": 76,
        "11051": 160,
        "11052": 89,
        "11053": 87,
        "11054": 106,
        "11055": 6,
        "11056": 226,
        "11057": 147,
        "11058": 253,
        "11059": 45,
        "11060": 48,
        "11061": 8,
        "11062": 199,
        "11063": 57,
        "11064": 222,
        "11065": 182,
        "11066": 104,
        "11067": 52,
        "11068": 220,
        "11069": 78,
        "11070": 50,
        "11071": 58,
        "11072": 86,
        "11073": 180,
        "11074": 15,
        "11075": 23,
        "11076": 123,
        "11077": 229,
        "11078": 78,
        "11079": 91,
        "11080": 148,
        "11081": 124,
        "11082": 111,
        "11083": 33,
        "11084": 170,
        "11085": 64,
        "11086": 92,
        "11087": 38,
        "11088": 202,
        "11089": 32,
        "11090": 68,
        "11091": 144,
        "11092": 250,
        "11093": 51,
        "11094": 155,
        "11095": 90,
        "11096": 221,
        "11097": 145,
        "11098": 204,
        "11099": 208,
        "11100": 217,
        "11101": 64,
        "11102": 194,
        "11103": 66,
        "11104": 160,
        "11105": 36,
        "11106": 185,
        "11107": 197,
        "11108": 158,
        "11109": 31,
        "11110": 160,
        "11111": 68,
        "11112": 243,
        "11113": 235,
        "11114": 249,
        "11115": 170,
        "11116": 147,
        "11117": 97,
        "11118": 19,
        "11119": 140,
        "11120": 220,
        "11121": 194,
        "11122": 204,
        "11123": 164,
        "11124": 19,
        "11125": 30,
        "11126": 209,
        "11127": 70,
        "11128": 43,
        "11129": 199,
        "11130": 46,
        "11131": 37,
        "11132": 134,
        "11133": 149,
        "11134": 244,
        "11135": 73,
        "11136": 163,
        "11137": 126,
        "11138": 206,
        "11139": 26,
        "11140": 131,
        "11141": 115,
        "11142": 236,
        "11143": 142,
        "11144": 111,
        "11145": 84,
        "11146": 125,
        "11147": 252,
        "11148": 46,
        "11149": 4,
        "11150": 49,
        "11151": 203,
        "11152": 166,
        "11153": 192,
        "11154": 182,
        "11155": 56,
        "11156": 28,
        "11157": 253,
        "11158": 236,
        "11159": 229,
        "11160": 4,
        "11161": 252,
        "11162": 192,
        "11163": 88,
        "11164": 27,
        "11165": 176,
        "11166": 17,
        "11167": 1,
        "11168": 19,
        "11169": 145,
        "11170": 135,
        "11171": 30,
        "11172": 161,
        "11173": 16,
        "11174": 6,
        "11175": 106,
        "11176": 103,
        "11177": 253,
        "11178": 189,
        "11179": 152,
        "11180": 77,
        "11181": 217,
        "11182": 26,
        "11183": 93,
        "11184": 88,
        "11185": 187,
        "11186": 20,
        "11187": 137,
        "11188": 62,
        "11189": 46,
        "11190": 93,
        "11191": 22,
        "11192": 2,
        "11193": 165,
        "11194": 241,
        "11195": 0,
        "11196": 102,
        "11197": 215,
        "11198": 50,
        "11199": 123,
        "11200": 130,
        "11201": 3,
        "11202": 25,
        "11203": 30,
        "11204": 206,
        "11205": 9,
        "11206": 220,
        "11207": 92,
        "11208": 35,
        "11209": 52,
        "11210": 110,
        "11211": 248,
        "11212": 3,
        "11213": 224,
        "11214": 122,
        "11215": 67,
        "11216": 170,
        "11217": 101,
        "11218": 23,
        "11219": 248,
        "11220": 248,
        "11221": 8,
        "11222": 34,
        "11223": 239,
        "11224": 85,
        "11225": 116,
        "11226": 252,
        "11227": 16,
        "11228": 61,
        "11229": 51,
        "11230": 118,
        "11231": 50,
        "11232": 125,
        "11233": 105,
        "11234": 93,
        "11235": 163,
        "11236": 167,
        "11237": 153,
        "11238": 95,
        "11239": 0,
        "11240": 47,
        "11241": 106,
        "11242": 58,
        "11243": 150,
        "11244": 206,
        "11245": 155,
        "11246": 186,
        "11247": 222,
        "11248": 119,
        "11249": 132,
        "11250": 1,
        "11251": 77,
        "11252": 240,
        "11253": 18,
        "11254": 10,
        "11255": 63,
        "11256": 251,
        "11257": 157,
        "11258": 3,
        "11259": 49,
        "11260": 28,
        "11261": 182,
        "11262": 170,
        "11263": 249,
        "11264": 89,
        "11265": 152,
        "11266": 28,
        "11267": 68,
        "11268": 229,
        "11269": 14,
        "11270": 10,
        "11271": 81,
        "11272": 145,
        "11273": 63,
        "11274": 187,
        "11275": 250,
        "11276": 89,
        "11277": 73,
        "11278": 66,
        "11279": 122,
        "11280": 36,
        "11281": 129,
        "11282": 144,
        "11283": 118,
        "11284": 186,
        "11285": 236,
        "11286": 55,
        "11287": 110,
        "11288": 157,
        "11289": 195,
        "11290": 212,
        "11291": 239,
        "11292": 133,
        "11293": 182,
        "11294": 149,
        "11295": 33,
        "11296": 230,
        "11297": 45,
        "11298": 7,
        "11299": 171,
        "11300": 164,
        "11301": 81,
        "11302": 123,
        "11303": 20,
        "11304": 145,
        "11305": 204,
        "11306": 145,
        "11307": 131,
        "11308": 121,
        "11309": 124,
        "11310": 89,
        "11311": 13,
        "11312": 121,
        "11313": 122,
        "11314": 173,
        "11315": 165,
        "11316": 196,
        "11317": 182,
        "11318": 64,
        "11319": 228,
        "11320": 225,
        "11321": 149,
        "11322": 228,
        "11323": 166,
        "11324": 216,
        "11325": 236,
        "11326": 116,
        "11327": 168,
        "11328": 120,
        "11329": 178,
        "11330": 25,
        "11331": 187,
        "11332": 41,
        "11333": 116,
        "11334": 109,
        "11335": 255,
        "11336": 15,
        "11337": 22,
        "11338": 29,
        "11339": 249,
        "11340": 216,
        "11341": 27,
        "11342": 13,
        "11343": 43,
        "11344": 17,
        "11345": 39,
        "11346": 56,
        "11347": 151,
        "11348": 106,
        "11349": 36,
        "11350": 157,
        "11351": 135,
        "11352": 205,
        "11353": 147,
        "11354": 61,
        "11355": 4,
        "11356": 21,
        "11357": 0,
        "11358": 154,
        "11359": 247,
        "11360": 30,
        "11361": 115,
        "11362": 186,
        "11363": 204,
        "11364": 232,
        "11365": 32,
        "11366": 35,
        "11367": 180,
        "11368": 112,
        "11369": 162,
        "11370": 25,
        "11371": 37,
        "11372": 179,
        "11373": 94,
        "11374": 127,
        "11375": 129,
        "11376": 150,
        "11377": 229,
        "11378": 119,
        "11379": 168,
        "11380": 207,
        "11381": 126,
        "11382": 5,
        "11383": 85,
        "11384": 249,
        "11385": 132,
        "11386": 26,
        "11387": 114,
        "11388": 147,
        "11389": 241,
        "11390": 42,
        "11391": 148,
        "11392": 115,
        "11393": 136,
        "11394": 60,
        "11395": 139,
        "11396": 160,
        "11397": 28,
        "11398": 60,
        "11399": 107,
        "11400": 116,
        "11401": 123,
        "11402": 8,
        "11403": 20,
        "11404": 150,
        "11405": 105,
        "11406": 109,
        "11407": 165,
        "11408": 126,
        "11409": 224,
        "11410": 88,
        "11411": 97,
        "11412": 229,
        "11413": 58,
        "11414": 193,
        "11415": 227,
        "11416": 140,
        "11417": 30,
        "11418": 81,
        "11419": 141,
        "11420": 0,
        "11421": 20,
        "11422": 243,
        "11423": 80,
        "11424": 112,
        "11425": 35,
        "11426": 208,
        "11427": 219,
        "11428": 126,
        "11429": 240,
        "11430": 120,
        "11431": 145,
        "11432": 166,
        "11433": 147,
        "11434": 249,
        "11435": 135,
        "11436": 49,
        "11437": 2,
        "11438": 104,
        "11439": 19,
        "11440": 255,
        "11441": 172,
        "11442": 141,
        "11443": 9,
        "11444": 218,
        "11445": 140,
        "11446": 38,
        "11447": 129,
        "11448": 234,
        "11449": 167,
        "11450": 229,
        "11451": 82,
        "11452": 209,
        "11453": 40,
        "11454": 254,
        "11455": 134,
        "11456": 79,
        "11457": 186,
        "11458": 86,
        "11459": 251,
        "11460": 162,
        "11461": 11,
        "11462": 61,
        "11463": 104,
        "11464": 148,
        "11465": 160,
        "11466": 239,
        "11467": 31,
        "11468": 132,
        "11469": 62,
        "11470": 132,
        "11471": 213,
        "11472": 15,
        "11473": 67,
        "11474": 234,
        "11475": 25,
        "11476": 117,
        "11477": 113,
        "11478": 53,
        "11479": 24,
        "11480": 64,
        "11481": 241,
        "11482": 53,
        "11483": 17,
        "11484": 107,
        "11485": 240,
        "11486": 42,
        "11487": 101,
        "11488": 82,
        "11489": 205,
        "11490": 184,
        "11491": 89,
        "11492": 64,
        "11493": 24,
        "11494": 212,
        "11495": 156,
        "11496": 255,
        "11497": 93,
        "11498": 217,
        "11499": 150,
        "11500": 148,
        "11501": 10,
        "11502": 15,
        "11503": 185,
        "11504": 198,
        "11505": 225,
        "11506": 45,
        "11507": 186,
        "11508": 148,
        "11509": 47,
        "11510": 50,
        "11511": 235,
        "11512": 158,
        "11513": 195,
        "11514": 119,
        "11515": 195,
        "11516": 230,
        "11517": 63,
        "11518": 225,
        "11519": 91,
        "11520": 197,
        "11521": 35,
        "11522": 199,
        "11523": 211,
        "11524": 103,
        "11525": 255,
        "11526": 33,
        "11527": 18,
        "11528": 154,
        "11529": 68,
        "11530": 1,
        "11531": 3,
        "11532": 106,
        "11533": 188,
        "11534": 95,
        "11535": 247,
        "11536": 64,
        "11537": 22,
        "11538": 2,
        "11539": 223,
        "11540": 206,
        "11541": 249,
        "11542": 105,
        "11543": 164,
        "11544": 154,
        "11545": 75,
        "11546": 225,
        "11547": 134,
        "11548": 86,
        "11549": 38,
        "11550": 166,
        "11551": 182,
        "11552": 99,
        "11553": 46,
        "11554": 94,
        "11555": 125,
        "11556": 101,
        "11557": 209,
        "11558": 226,
        "11559": 60,
        "11560": 187,
        "11561": 2,
        "11562": 19,
        "11563": 159,
        "11564": 70,
        "11565": 10,
        "11566": 248,
        "11567": 247,
        "11568": 42,
        "11569": 97,
        "11570": 14,
        "11571": 131,
        "11572": 121,
        "11573": 97,
        "11574": 88,
        "11575": 246,
        "11576": 224,
        "11577": 109,
        "11578": 117,
        "11579": 26,
        "11580": 181,
        "11581": 159,
        "11582": 221,
        "11583": 246,
        "11584": 140,
        "11585": 27,
        "11586": 45,
        "11587": 74,
        "11588": 215,
        "11589": 53,
        "11590": 99,
        "11591": 154,
        "11592": 9,
        "11593": 42,
        "11594": 243,
        "11595": 7,
        "11596": 197,
        "11597": 137,
        "11598": 12,
        "11599": 69,
        "11600": 207,
        "11601": 108,
        "11602": 90,
        "11603": 84,
        "11604": 55,
        "11605": 147,
        "11606": 211,
        "11607": 189,
        "11608": 212,
        "11609": 0,
        "11610": 250,
        "11611": 65,
        "11612": 41,
        "11613": 90,
        "11614": 114,
        "11615": 53,
        "11616": 190,
        "11617": 172,
        "11618": 97,
        "11619": 198,
        "11620": 192,
        "11621": 228,
        "11622": 165,
        "11623": 101,
        "11624": 115,
        "11625": 236,
        "11626": 153,
        "11627": 136,
        "11628": 238,
        "11629": 93,
        "11630": 133,
        "11631": 100,
        "11632": 127,
        "11633": 156,
        "11634": 107,
        "11635": 135,
        "11636": 108,
        "11637": 180,
        "11638": 0,
        "11639": 11,
        "11640": 168,
        "11641": 240,
        "11642": 99,
        "11643": 215,
        "11644": 221,
        "11645": 40,
        "11646": 215,
        "11647": 101,
        "11648": 92,
        "11649": 129,
        "11650": 37,
        "11651": 44,
        "11652": 184,
        "11653": 8,
        "11654": 170,
        "11655": 204,
        "11656": 59,
        "11657": 223,
        "11658": 90,
        "11659": 163,
        "11660": 120,
        "11661": 255,
        "11662": 110,
        "11663": 116,
        "11664": 23,
        "11665": 214,
        "11666": 92,
        "11667": 190,
        "11668": 88,
        "11669": 115,
        "11670": 204,
        "11671": 125,
        "11672": 205,
        "11673": 239,
        "11674": 195,
        "11675": 109,
        "11676": 104,
        "11677": 123,
        "11678": 12,
        "11679": 112,
        "11680": 51,
        "11681": 6,
        "11682": 165,
        "11683": 172,
        "11684": 59,
        "11685": 164,
        "11686": 138,
        "11687": 230,
        "11688": 205,
        "11689": 20,
        "11690": 112,
        "11691": 176,
        "11692": 124,
        "11693": 12,
        "11694": 131,
        "11695": 36,
        "11696": 105,
        "11697": 232,
        "11698": 115,
        "11699": 244,
        "11700": 153,
        "11701": 172,
        "11702": 226,
        "11703": 49,
        "11704": 184,
        "11705": 164,
        "11706": 247,
        "11707": 234,
        "11708": 208,
        "11709": 86,
        "11710": 87,
        "11711": 54,
        "11712": 219,
        "11713": 43,
        "11714": 35,
        "11715": 235,
        "11716": 107,
        "11717": 212,
        "11718": 112,
        "11719": 252,
        "11720": 230,
        "11721": 92,
        "11722": 182,
        "11723": 61,
        "11724": 46,
        "11725": 127,
        "11726": 196,
        "11727": 164,
        "11728": 18,
        "11729": 91,
        "11730": 60,
        "11731": 114,
        "11732": 179,
        "11733": 219,
        "11734": 103,
        "11735": 232,
        "11736": 45,
        "11737": 248,
        "11738": 129,
        "11739": 191,
        "11740": 81,
        "11741": 39,
        "11742": 51,
        "11743": 151,
        "11744": 135,
        "11745": 89,
        "11746": 49,
        "11747": 112,
        "11748": 187,
        "11749": 250,
        "11750": 237,
        "11751": 44,
        "11752": 140,
        "11753": 190,
        "11754": 245,
        "11755": 176,
        "11756": 63,
        "11757": 205,
        "11758": 41,
        "11759": 0,
        "11760": 79,
        "11761": 0,
        "11762": 200,
        "11763": 159,
        "11764": 231,
        "11765": 57,
        "11766": 232,
        "11767": 179,
        "11768": 205,
        "11769": 125,
        "11770": 210,
        "11771": 55,
        "11772": 156,
        "11773": 77,
        "11774": 25,
        "11775": 22,
        "11776": 116,
        "11777": 181,
        "11778": 3,
        "11779": 41,
        "11780": 126,
        "11781": 255,
        "11782": 194,
        "11783": 136,
        "11784": 250,
        "11785": 217,
        "11786": 185,
        "11787": 118,
        "11788": 1,
        "11789": 163,
        "11790": 230,
        "11791": 8,
        "11792": 146,
        "11793": 10,
        "11794": 12,
        "11795": 194,
        "11796": 130,
        "11797": 10,
        "11798": 255,
        "11799": 201,
        "11800": 61,
        "11801": 179,
        "11802": 36,
        "11803": 250,
        "11804": 118,
        "11805": 186,
        "11806": 103,
        "11807": 65,
        "11808": 176,
        "11809": 22,
        "11810": 103,
        "11811": 238,
        "11812": 12,
        "11813": 14,
        "11814": 119,
        "11815": 0,
        "11816": 233,
        "11817": 21,
        "11818": 135,
        "11819": 244,
        "11820": 195,
        "11821": 158,
        "11822": 9,
        "11823": 36,
        "11824": 25,
        "11825": 108,
        "11826": 222,
        "11827": 203,
        "11828": 217,
        "11829": 58,
        "11830": 86,
        "11831": 33,
        "11832": 104,
        "11833": 158,
        "11834": 86,
        "11835": 213,
        "11836": 88,
        "11837": 54,
        "11838": 139,
        "11839": 241,
        "11840": 37,
        "11841": 142,
        "11842": 7,
        "11843": 163,
        "11844": 169,
        "11845": 93,
        "11846": 51,
        "11847": 255,
        "11848": 249,
        "11849": 71,
        "11850": 83,
        "11851": 223,
        "11852": 197,
        "11853": 202,
        "11854": 13,
        "11855": 84,
        "11856": 18,
        "11857": 42,
        "11858": 215,
        "11859": 159,
        "11860": 254,
        "11861": 137,
        "11862": 145,
        "11863": 62,
        "11864": 9,
        "11865": 63,
        "11866": 210,
        "11867": 231,
        "11868": 128,
        "11869": 72,
        "11870": 156,
        "11871": 238,
        "11872": 71,
        "11873": 72,
        "11874": 4,
        "11875": 201,
        "11876": 125,
        "11877": 34,
        "11878": 164,
        "11879": 185,
        "11880": 142,
        "11881": 105,
        "11882": 120,
        "11883": 117,
        "11884": 242,
        "11885": 24,
        "11886": 6,
        "11887": 157,
        "11888": 228,
        "11889": 216,
        "11890": 71,
        "11891": 107,
        "11892": 68,
        "11893": 210,
        "11894": 169,
        "11895": 69,
        "11896": 159,
        "11897": 30,
        "11898": 99,
        "11899": 116,
        "11900": 194,
        "11901": 60,
        "11902": 16,
        "11903": 2,
        "11904": 0,
        "11905": 62,
        "11906": 63,
        "11907": 86,
        "11908": 47,
        "11909": 237,
        "11910": 93,
        "11911": 167,
        "11912": 200,
        "11913": 167,
        "11914": 5,
        "11915": 249,
        "11916": 251,
        "11917": 1,
        "11918": 252,
        "11919": 5,
        "11920": 108,
        "11921": 38,
        "11922": 25,
        "11923": 27,
        "11924": 114,
        "11925": 125,
        "11926": 3,
        "11927": 137,
        "11928": 226,
        "11929": 209,
        "11930": 81,
        "11931": 127,
        "11932": 82,
        "11933": 30,
        "11934": 153,
        "11935": 80,
        "11936": 6,
        "11937": 7,
        "11938": 133,
        "11939": 54,
        "11940": 80,
        "11941": 42,
        "11942": 191,
        "11943": 44,
        "11944": 105,
        "11945": 158,
        "11946": 250,
        "11947": 238,
        "11948": 42,
        "11949": 201,
        "11950": 233,
        "11951": 97,
        "11952": 73,
        "11953": 177,
        "11954": 65,
        "11955": 140,
        "11956": 132,
        "11957": 100,
        "11958": 186,
        "11959": 202,
        "11960": 160,
        "11961": 157,
        "11962": 11,
        "11963": 48,
        "11964": 236,
        "11965": 78,
        "11966": 176,
        "11967": 104,
        "11968": 127,
        "11969": 119,
        "11970": 200,
        "11971": 15,
        "11972": 166,
        "11973": 36,
        "11974": 57,
        "11975": 184,
        "11976": 97,
        "11977": 171,
        "11978": 100,
        "11979": 222,
        "11980": 57,
        "11981": 146,
        "11982": 149,
        "11983": 179,
        "11984": 163,
        "11985": 181,
        "11986": 162,
        "11987": 232,
        "11988": 251,
        "11989": 114,
        "11990": 191,
        "11991": 135,
        "11992": 170,
        "11993": 206,
        "11994": 156,
        "11995": 78,
        "11996": 71,
        "11997": 3,
        "11998": 61,
        "11999": 204,
        "12000": 58,
        "12001": 50,
        "12002": 58,
        "12003": 67,
        "12004": 69,
        "12005": 209,
        "12006": 132,
        "12007": 110,
        "12008": 155,
        "12009": 52,
        "12010": 162,
        "12011": 210,
        "12012": 86,
        "12013": 10,
        "12014": 206,
        "12015": 24,
        "12016": 155,
        "12017": 12,
        "12018": 28,
        "12019": 168,
        "12020": 121,
        "12021": 238,
        "12022": 103,
        "12023": 116,
        "12024": 117,
        "12025": 145,
        "12026": 221,
        "12027": 215,
        "12028": 82,
        "12029": 115,
        "12030": 17,
        "12031": 202,
        "12032": 115,
        "12033": 199,
        "12034": 62,
        "12035": 48,
        "12036": 120,
        "12037": 4,
        "12038": 166,
        "12039": 173,
        "12040": 202,
        "12041": 68,
        "12042": 96,
        "12043": 196,
        "12044": 69,
        "12045": 107,
        "12046": 57,
        "12047": 64,
        "12048": 202,
        "12049": 71,
        "12050": 245,
        "12051": 187,
        "12052": 114,
        "12053": 109,
        "12054": 146,
        "12055": 178,
        "12056": 16,
        "12057": 248,
        "12058": 224,
        "12059": 162,
        "12060": 43,
        "12061": 92,
        "12062": 65,
        "12063": 0,
        "12064": 252,
        "12065": 107,
        "12066": 121,
        "12067": 232,
        "12068": 95,
        "12069": 7,
        "12070": 4,
        "12071": 224,
        "12072": 179,
        "12073": 99,
        "12074": 76,
        "12075": 61,
        "12076": 229,
        "12077": 78,
        "12078": 74,
        "12079": 134,
        "12080": 130,
        "12081": 121,
        "12082": 41,
        "12083": 198,
        "12084": 222,
        "12085": 144,
        "12086": 50,
        "12087": 64,
        "12088": 249,
        "12089": 210,
        "12090": 67,
        "12091": 156,
        "12092": 127,
        "12093": 242,
        "12094": 149,
        "12095": 143,
        "12096": 48,
        "12097": 114,
        "12098": 177,
        "12099": 143,
        "12100": 223,
        "12101": 62,
        "12102": 87,
        "12103": 17,
        "12104": 148,
        "12105": 10,
        "12106": 44,
        "12107": 174,
        "12108": 120,
        "12109": 39,
        "12110": 172,
        "12111": 69,
        "12112": 97,
        "12113": 9,
        "12114": 154,
        "12115": 58,
        "12116": 236,
        "12117": 225,
        "12118": 160,
        "12119": 24,
        "12120": 85,
        "12121": 205,
        "12122": 247,
        "12123": 228,
        "12124": 164,
        "12125": 91,
        "12126": 249,
        "12127": 16,
        "12128": 1,
        "12129": 141,
        "12130": 178,
        "12131": 11,
        "12132": 187,
        "12133": 181,
        "12134": 149,
        "12135": 53,
        "12136": 239,
        "12137": 93,
        "12138": 116,
        "12139": 143,
        "12140": 30,
        "12141": 50,
        "12142": 238,
        "12143": 7,
        "12144": 220,
        "12145": 204,
        "12146": 52,
        "12147": 125,
        "12148": 225,
        "12149": 114,
        "12150": 164,
        "12151": 255,
        "12152": 211,
        "12153": 13,
        "12154": 147,
        "12155": 75,
        "12156": 155,
        "12157": 182,
        "12158": 167,
        "12159": 63,
        "12160": 172,
        "12161": 86,
        "12162": 167,
        "12163": 13,
        "12164": 155,
        "12165": 183,
        "12166": 121,
        "12167": 33,
        "12168": 28,
        "12169": 144,
        "12170": 201,
        "12171": 80,
        "12172": 216,
        "12173": 90,
        "12174": 9,
        "12175": 242,
        "12176": 149,
        "12177": 244,
        "12178": 194,
        "12179": 166,
        "12180": 132,
        "12181": 143,
        "12182": 84,
        "12183": 115,
        "12184": 145,
        "12185": 121,
        "12186": 35,
        "12187": 159,
        "12188": 223,
        "12189": 211,
        "12190": 116,
        "12191": 184,
        "12192": 254,
        "12193": 211,
        "12194": 68,
        "12195": 7,
        "12196": 85,
        "12197": 253,
        "12198": 78,
        "12199": 175,
        "12200": 252,
        "12201": 208,
        "12202": 229,
        "12203": 96,
        "12204": 37,
        "12205": 46,
        "12206": 68,
        "12207": 177,
        "12208": 227,
        "12209": 107,
        "12210": 215,
        "12211": 221,
        "12212": 188,
        "12213": 123,
        "12214": 74,
        "12215": 30,
        "12216": 141,
        "12217": 168,
        "12218": 89,
        "12219": 194,
        "12220": 65,
        "12221": 82,
        "12222": 249,
        "12223": 89,
        "12224": 142,
        "12225": 113,
        "12226": 49,
        "12227": 79,
        "12228": 27,
        "12229": 198,
        "12230": 94,
        "12231": 148,
        "12232": 253,
        "12233": 111,
        "12234": 10,
        "12235": 246,
        "12236": 115,
        "12237": 156,
        "12238": 17,
        "12239": 212,
        "12240": 125,
        "12241": 26,
        "12242": 172,
        "12243": 39,
        "12244": 229,
        "12245": 113,
        "12246": 205,
        "12247": 161,
        "12248": 100,
        "12249": 52,
        "12250": 57,
        "12251": 78,
        "12252": 33,
        "12253": 180,
        "12254": 1,
        "12255": 181,
        "12256": 92,
        "12257": 186,
        "12258": 160,
        "12259": 130,
        "12260": 136,
        "12261": 21,
        "12262": 136,
        "12263": 15,
        "12264": 233,
        "12265": 68,
        "12266": 151,
        "12267": 13,
        "12268": 220,
        "12269": 85,
        "12270": 168,
        "12271": 9,
        "12272": 36,
        "12273": 206,
        "12274": 47,
        "12275": 251,
        "12276": 13,
        "12277": 254,
        "12278": 168,
        "12279": 68,
        "12280": 31,
        "12281": 194,
        "12282": 246,
        "12283": 1,
        "12284": 192,
        "12285": 147,
        "12286": 180,
        "12287": 43,
        "12288": 24,
        "12289": 89,
        "12290": 231,
        "12291": 190,
        "12292": 21,
        "12293": 12,
        "12294": 145,
        "12295": 12,
        "12296": 14,
        "12297": 166,
        "12298": 28,
        "12299": 230,
        "12300": 28,
        "12301": 111,
        "12302": 254,
        "12303": 143,
        "12304": 52,
        "12305": 204,
        "12306": 64,
        "12307": 99,
        "12308": 98,
        "12309": 80,
        "12310": 184,
        "12311": 130,
        "12312": 158,
        "12313": 51,
        "12314": 15,
        "12315": 221,
        "12316": 35,
        "12317": 120,
        "12318": 28,
        "12319": 138,
        "12320": 124,
        "12321": 77,
        "12322": 246,
        "12323": 79,
        "12324": 33,
        "12325": 220,
        "12326": 112,
        "12327": 39,
        "12328": 94,
        "12329": 50,
        "12330": 76,
        "12331": 208,
        "12332": 82,
        "12333": 108,
        "12334": 131,
        "12335": 231,
        "12336": 104,
        "12337": 53,
        "12338": 216,
        "12339": 203,
        "12340": 1,
        "12341": 131,
        "12342": 61,
        "12343": 99,
        "12344": 57,
        "12345": 138,
        "12346": 126,
        "12347": 162,
        "12348": 128,
        "12349": 12,
        "12350": 150,
        "12351": 169,
        "12352": 1,
        "12353": 51,
        "12354": 45,
        "12355": 110,
        "12356": 217,
        "12357": 157,
        "12358": 22,
        "12359": 225,
        "12360": 179,
        "12361": 12,
        "12362": 194,
        "12363": 135,
        "12364": 19,
        "12365": 88,
        "12366": 237,
        "12367": 169,
        "12368": 171,
        "12369": 41,
        "12370": 181,
        "12371": 40,
        "12372": 195,
        "12373": 205,
        "12374": 247,
        "12375": 64,
        "12376": 191,
        "12377": 139,
        "12378": 222,
        "12379": 46,
        "12380": 89,
        "12381": 96,
        "12382": 56,
        "12383": 164,
        "12384": 1,
        "12385": 105,
        "12386": 241,
        "12387": 82,
        "12388": 242,
        "12389": 187,
        "12390": 94,
        "12391": 236,
        "12392": 106,
        "12393": 243,
        "12394": 32,
        "12395": 208,
        "12396": 22,
        "12397": 19,
        "12398": 97,
        "12399": 248,
        "12400": 208,
        "12401": 224,
        "12402": 96,
        "12403": 45,
        "12404": 210,
        "12405": 133,
        "12406": 34,
        "12407": 183,
        "12408": 113,
        "12409": 33,
        "12410": 151,
        "12411": 169,
        "12412": 92,
        "12413": 233,
        "12414": 27,
        "12415": 194,
        "12416": 78,
        "12417": 166,
        "12418": 181,
        "12419": 237,
        "12420": 185,
        "12421": 126,
        "12422": 132,
        "12423": 136,
        "12424": 184,
        "12425": 162,
        "12426": 10,
        "12427": 205,
        "12428": 247,
        "12429": 227,
        "12430": 158,
        "12431": 124,
        "12432": 249,
        "12433": 120,
        "12434": 119,
        "12435": 123,
        "12436": 169,
        "12437": 84,
        "12438": 43,
        "12439": 188,
        "12440": 147,
        "12441": 174,
        "12442": 201,
        "12443": 173,
        "12444": 48,
        "12445": 225,
        "12446": 175,
        "12447": 33,
        "12448": 90,
        "12449": 24,
        "12450": 15,
        "12451": 71,
        "12452": 151,
        "12453": 137,
        "12454": 177,
        "12455": 250,
        "12456": 198,
        "12457": 160,
        "12458": 23,
        "12459": 31,
        "12460": 123,
        "12461": 217,
        "12462": 79,
        "12463": 228,
        "12464": 252,
        "12465": 242,
        "12466": 143,
        "12467": 200,
        "12468": 117,
        "12469": 243,
        "12470": 96,
        "12471": 191,
        "12472": 91,
        "12473": 141,
        "12474": 180,
        "12475": 27,
        "12476": 124,
        "12477": 219,
        "12478": 82,
        "12479": 204,
        "12480": 26,
        "12481": 30,
        "12482": 74,
        "12483": 61,
        "12484": 46,
        "12485": 16,
        "12486": 243,
        "12487": 30,
        "12488": 165,
        "12489": 170,
        "12490": 4,
        "12491": 122,
        "12492": 136,
        "12493": 202,
        "12494": 205,
        "12495": 96,
        "12496": 74,
        "12497": 142,
        "12498": 122,
        "12499": 130,
        "12500": 40,
        "12501": 8,
        "12502": 53,
        "12503": 26,
        "12504": 197,
        "12505": 10,
        "12506": 37,
        "12507": 10,
        "12508": 188,
        "12509": 162,
        "12510": 250,
        "12511": 156,
        "12512": 82,
        "12513": 179,
        "12514": 59,
        "12515": 244,
        "12516": 193,
        "12517": 170,
        "12518": 102,
        "12519": 183,
        "12520": 187,
        "12521": 183,
        "12522": 75,
        "12523": 50,
        "12524": 227,
        "12525": 171,
        "12526": 221,
        "12527": 201,
        "12528": 202,
        "12529": 215,
        "12530": 10,
        "12531": 83,
        "12532": 98,
        "12533": 232,
        "12534": 174,
        "12535": 201,
        "12536": 44,
        "12537": 44,
        "12538": 175,
        "12539": 142,
        "12540": 98,
        "12541": 149,
        "12542": 240,
        "12543": 206,
        "12544": 248,
        "12545": 199,
        "12546": 103,
        "12547": 201,
        "12548": 3,
        "12549": 14,
        "12550": 73,
        "12551": 78,
        "12552": 230,
        "12553": 190,
        "12554": 175,
        "12555": 115,
        "12556": 130,
        "12557": 1,
        "12558": 167,
        "12559": 65,
        "12560": 181,
        "12561": 96,
        "12562": 122,
        "12563": 226,
        "12564": 197,
        "12565": 138,
        "12566": 200,
        "12567": 112,
        "12568": 212,
        "12569": 131,
        "12570": 119,
        "12571": 69,
        "12572": 194,
        "12573": 111,
        "12574": 210,
        "12575": 117,
        "12576": 72,
        "12577": 164,
        "12578": 21,
        "12579": 115,
        "12580": 253,
        "12581": 129,
        "12582": 198,
        "12583": 184,
        "12584": 228,
        "12585": 165,
        "12586": 111,
        "12587": 9,
        "12588": 194,
        "12589": 21,
        "12590": 252,
        "12591": 25,
        "12592": 35,
        "12593": 152,
        "12594": 235,
        "12595": 129,
        "12596": 153,
        "12597": 114,
        "12598": 242,
        "12599": 236,
        "12600": 142,
        "12601": 93,
        "12602": 35,
        "12603": 47,
        "12604": 164,
        "12605": 153,
        "12606": 84,
        "12607": 235,
        "12608": 51,
        "12609": 4,
        "12610": 67,
        "12611": 220,
        "12612": 38,
        "12613": 86,
        "12614": 117,
        "12615": 244,
        "12616": 177,
        "12617": 50,
        "12618": 194,
        "12619": 216,
        "12620": 231,
        "12621": 11,
        "12622": 212,
        "12623": 172,
        "12624": 144,
        "12625": 115,
        "12626": 138,
        "12627": 196,
        "12628": 86,
        "12629": 255,
        "12630": 240,
        "12631": 143,
        "12632": 70,
        "12633": 255,
        "12634": 2,
        "12635": 35,
        "12636": 151,
        "12637": 75,
        "12638": 94,
        "12639": 134,
        "12640": 60,
        "12641": 19,
        "12642": 14,
        "12643": 112,
        "12644": 29,
        "12645": 60,
        "12646": 195,
        "12647": 71,
        "12648": 120,
        "12649": 245,
        "12650": 225,
        "12651": 208,
        "12652": 20,
        "12653": 106,
        "12654": 220,
        "12655": 27,
        "12656": 239,
        "12657": 225,
        "12658": 48,
        "12659": 52,
        "12660": 75,
        "12661": 40,
        "12662": 170,
        "12663": 84,
        "12664": 104,
        "12665": 143,
        "12666": 211,
        "12667": 179,
        "12668": 253,
        "12669": 240,
        "12670": 33,
        "12671": 144,
        "12672": 176,
        "12673": 104,
        "12674": 24,
        "12675": 195,
        "12676": 96,
        "12677": 132,
        "12678": 112,
        "12679": 102,
        "12680": 116,
        "12681": 206,
        "12682": 141,
        "12683": 106,
        "12684": 200,
        "12685": 48,
        "12686": 222,
        "12687": 251,
        "12688": 163,
        "12689": 247,
        "12690": 118,
        "12691": 72,
        "12692": 159,
        "12693": 12,
        "12694": 61,
        "12695": 111,
        "12696": 80,
        "12697": 90,
        "12698": 235,
        "12699": 156,
        "12700": 22,
        "12701": 151,
        "12702": 55,
        "12703": 93,
        "12704": 250,
        "12705": 17,
        "12706": 3,
        "12707": 26,
        "12708": 94,
        "12709": 107,
        "12710": 159,
        "12711": 130,
        "12712": 250,
        "12713": 101,
        "12714": 246,
        "12715": 234,
        "12716": 158,
        "12717": 33,
        "12718": 158,
        "12719": 226,
        "12720": 129,
        "12721": 125,
        "12722": 204,
        "12723": 234,
        "12724": 219,
        "12725": 136,
        "12726": 189,
        "12727": 88,
        "12728": 11,
        "12729": 50,
        "12730": 117,
        "12731": 114,
        "12732": 30,
        "12733": 240,
        "12734": 240,
        "12735": 155,
        "12736": 105,
        "12737": 253,
        "12738": 36,
        "12739": 17,
        "12740": 187,
        "12741": 118,
        "12742": 107,
        "12743": 243,
        "12744": 114,
        "12745": 195,
        "12746": 128,
        "12747": 135,
        "12748": 143,
        "12749": 49,
        "12750": 79,
        "12751": 175,
        "12752": 193,
        "12753": 30,
        "12754": 191,
        "12755": 134,
        "12756": 218,
        "12757": 206,
        "12758": 12,
        "12759": 24,
        "12760": 111,
        "12761": 222,
        "12762": 29,
        "12763": 146,
        "12764": 182,
        "12765": 233,
        "12766": 72,
        "12767": 4,
        "12768": 207,
        "12769": 156,
        "12770": 108,
        "12771": 180,
        "12772": 164,
        "12773": 11,
        "12774": 63,
        "12775": 139,
        "12776": 70,
        "12777": 108,
        "12778": 89,
        "12779": 198,
        "12780": 72,
        "12781": 172,
        "12782": 177,
        "12783": 95,
        "12784": 87,
        "12785": 30,
        "12786": 170,
        "12787": 221,
        "12788": 4,
        "12789": 94,
        "12790": 33,
        "12791": 158,
        "12792": 156,
        "12793": 17,
        "12794": 38,
        "12795": 245,
        "12796": 65,
        "12797": 68,
        "12798": 211,
        "12799": 216,
        "12800": 51,
        "12801": 129,
        "12802": 203,
        "12803": 66,
        "12804": 13,
        "12805": 115,
        "12806": 118,
        "12807": 45,
        "12808": 65,
        "12809": 88,
        "12810": 205,
        "12811": 151,
        "12812": 224,
        "12813": 105,
        "12814": 59,
        "12815": 158,
        "12816": 188,
        "12817": 227,
        "12818": 198,
        "12819": 156,
        "12820": 93,
        "12821": 249,
        "12822": 159,
        "12823": 203,
        "12824": 68,
        "12825": 26,
        "12826": 15,
        "12827": 181,
        "12828": 244,
        "12829": 167,
        "12830": 112,
        "12831": 101,
        "12832": 85,
        "12833": 227,
        "12834": 194,
        "12835": 2,
        "12836": 138,
        "12837": 178,
        "12838": 192,
        "12839": 4,
        "12840": 158,
        "12841": 225,
        "12842": 21,
        "12843": 154,
        "12844": 30,
        "12845": 75,
        "12846": 250,
        "12847": 70,
        "12848": 16,
        "12849": 104,
        "12850": 97,
        "12851": 92,
        "12852": 83,
        "12853": 67,
        "12854": 228,
        "12855": 174,
        "12856": 117,
        "12857": 81,
        "12858": 74,
        "12859": 121,
        "12860": 239,
        "12861": 160,
        "12862": 238,
        "12863": 17,
        "12864": 201,
        "12865": 86,
        "12866": 250,
        "12867": 85,
        "12868": 76,
        "12869": 105,
        "12870": 202,
        "12871": 76,
        "12872": 107,
        "12873": 14,
        "12874": 47,
        "12875": 178,
        "12876": 55,
        "12877": 70,
        "12878": 71,
        "12879": 139,
        "12880": 104,
        "12881": 63,
        "12882": 173,
        "12883": 18,
        "12884": 224,
        "12885": 81,
        "12886": 194,
        "12887": 70,
        "12888": 158,
        "12889": 52,
        "12890": 10,
        "12891": 137,
        "12892": 184,
        "12893": 71,
        "12894": 154,
        "12895": 65,
        "12896": 19,
        "12897": 203,
        "12898": 54,
        "12899": 132,
        "12900": 99,
        "12901": 135,
        "12902": 166,
        "12903": 116,
        "12904": 157,
        "12905": 2,
        "12906": 137,
        "12907": 8,
        "12908": 162,
        "12909": 140,
        "12910": 51,
        "12911": 213,
        "12912": 167,
        "12913": 148,
        "12914": 76,
        "12915": 34,
        "12916": 89,
        "12917": 229,
        "12918": 12,
        "12919": 112,
        "12920": 154,
        "12921": 136,
        "12922": 235,
        "12923": 43,
        "12924": 72,
        "12925": 71,
        "12926": 77,
        "12927": 186,
        "12928": 238,
        "12929": 50,
        "12930": 58,
        "12931": 90,
        "12932": 240,
        "12933": 50,
        "12934": 219,
        "12935": 107,
        "12936": 115,
        "12937": 124,
        "12938": 203,
        "12939": 172,
        "12940": 209,
        "12941": 88,
        "12942": 137,
        "12943": 11,
        "12944": 105,
        "12945": 110,
        "12946": 192,
        "12947": 23,
        "12948": 140,
        "12949": 65,
        "12950": 242,
        "12951": 242,
        "12952": 71,
        "12953": 11,
        "12954": 114,
        "12955": 157,
        "12956": 235,
        "12957": 188,
        "12958": 21,
        "12959": 95,
        "12960": 246,
        "12961": 2,
        "12962": 106,
        "12963": 209,
        "12964": 198,
        "12965": 172,
        "12966": 221,
        "12967": 127,
        "12968": 224,
        "12969": 56,
        "12970": 123,
        "12971": 168,
        "12972": 183,
        "12973": 131,
        "12974": 247,
        "12975": 241,
        "12976": 205,
        "12977": 232,
        "12978": 155,
        "12979": 180,
        "12980": 30,
        "12981": 122,
        "12982": 197,
        "12983": 95,
        "12984": 146,
        "12985": 110,
        "12986": 110,
        "12987": 219,
        "12988": 54,
        "12989": 233,
        "12990": 209,
        "12991": 190,
        "12992": 183,
        "12993": 74,
        "12994": 2,
        "12995": 84,
        "12996": 208,
        "12997": 124,
        "12998": 46,
        "12999": 64,
        "13000": 214,
        "13001": 72,
        "13002": 64,
        "13003": 170,
        "13004": 132,
        "13005": 243,
        "13006": 21,
        "13007": 170,
        "13008": 131,
        "13009": 120,
        "13010": 27,
        "13011": 31,
        "13012": 25,
        "13013": 42,
        "13014": 141,
        "13015": 83,
        "13016": 192,
        "13017": 198,
        "13018": 80,
        "13019": 87,
        "13020": 118,
        "13021": 1,
        "13022": 171,
        "13023": 57,
        "13024": 80,
        "13025": 186,
        "13026": 188,
        "13027": 232,
        "13028": 238,
        "13029": 61,
        "13030": 102,
        "13031": 193,
        "13032": 113,
        "13033": 230,
        "13034": 188,
        "13035": 55,
        "13036": 38,
        "13037": 121,
        "13038": 235,
        "13039": 60,
        "13040": 122,
        "13041": 183,
        "13042": 36,
        "13043": 81,
        "13044": 228,
        "13045": 37,
        "13046": 37,
        "13047": 20,
        "13048": 190,
        "13049": 11,
        "13050": 97,
        "13051": 4,
        "13052": 210,
        "13053": 200,
        "13054": 121,
        "13055": 29,
        "13056": 236,
        "13057": 5,
        "13058": 109,
        "13059": 93,
        "13060": 220,
        "13061": 210,
        "13062": 2,
        "13063": 23,
        "13064": 162,
        "13065": 18,
        "13066": 201,
        "13067": 89,
        "13068": 182,
        "13069": 35,
        "13070": 40,
        "13071": 217,
        "13072": 84,
        "13073": 28,
        "13074": 154,
        "13075": 123,
        "13076": 178,
        "13077": 223,
        "13078": 186,
        "13079": 242,
        "13080": 57,
        "13081": 80,
        "13082": 43,
        "13083": 132,
        "13084": 151,
        "13085": 218,
        "13086": 162,
        "13087": 136,
        "13088": 251,
        "13089": 113,
        "13090": 23,
        "13091": 227,
        "13092": 205,
        "13093": 188,
        "13094": 146,
        "13095": 82,
        "13096": 159,
        "13097": 207,
        "13098": 183,
        "13099": 126,
        "13100": 159,
        "13101": 101,
        "13102": 212,
        "13103": 238,
        "13104": 249,
        "13105": 78,
        "13106": 240,
        "13107": 133,
        "13108": 0,
        "13109": 129,
        "13110": 86,
        "13111": 160,
        "13112": 115,
        "13113": 15,
        "13114": 118,
        "13115": 200,
        "13116": 37,
        "13117": 162,
        "13118": 226,
        "13119": 41,
        "13120": 237,
        "13121": 80,
        "13122": 24,
        "13123": 15,
        "13124": 104,
        "13125": 67,
        "13126": 213,
        "13127": 171,
        "13128": 13,
        "13129": 37,
        "13130": 132,
        "13131": 135,
        "13132": 6,
        "13133": 11,
        "13134": 192,
        "13135": 73,
        "13136": 16,
        "13137": 83,
        "13138": 238,
        "13139": 125,
        "13140": 44,
        "13141": 252,
        "13142": 191,
        "13143": 246,
        "13144": 187,
        "13145": 98,
        "13146": 90,
        "13147": 105,
        "13148": 93,
        "13149": 189,
        "13150": 53,
        "13151": 141,
        "13152": 35,
        "13153": 174,
        "13154": 116,
        "13155": 162,
        "13156": 23,
        "13157": 251,
        "13158": 156,
        "13159": 65,
        "13160": 173,
        "13161": 85,
        "13162": 183,
        "13163": 66,
        "13164": 177,
        "13165": 176,
        "13166": 16,
        "13167": 100,
        "13168": 71,
        "13169": 102,
        "13170": 142,
        "13171": 21,
        "13172": 99,
        "13173": 213,
        "13174": 104,
        "13175": 113,
        "13176": 171,
        "13177": 236,
        "13178": 152,
        "13179": 180,
        "13180": 204,
        "13181": 187,
        "13182": 13,
        "13183": 81,
        "13184": 241,
        "13185": 220,
        "13186": 26,
        "13187": 239,
        "13188": 248,
        "13189": 142,
        "13190": 70,
        "13191": 2,
        "13192": 89,
        "13193": 15,
        "13194": 39,
        "13195": 194,
        "13196": 247,
        "13197": 116,
        "13198": 164,
        "13199": 55,
        "13200": 200,
        "13201": 192,
        "13202": 190,
        "13203": 203,
        "13204": 107,
        "13205": 229,
        "13206": 181,
        "13207": 161,
        "13208": 57,
        "13209": 81,
        "13210": 32,
        "13211": 163,
        "13212": 228,
        "13213": 158,
        "13214": 161,
        "13215": 214,
        "13216": 163,
        "13217": 82,
        "13218": 46,
        "13219": 73,
        "13220": 42,
        "13221": 145,
        "13222": 137,
        "13223": 163,
        "13224": 178,
        "13225": 228,
        "13226": 85,
        "13227": 111,
        "13228": 110,
        "13229": 85,
        "13230": 118,
        "13231": 193,
        "13232": 170,
        "13233": 28,
        "13234": 175,
        "13235": 130,
        "13236": 150,
        "13237": 240,
        "13238": 124,
        "13239": 20,
        "13240": 189,
        "13241": 231,
        "13242": 63,
        "13243": 199,
        "13244": 78,
        "13245": 5,
        "13246": 188,
        "13247": 4,
        "13248": 133,
        "13249": 98,
        "13250": 173,
        "13251": 61,
        "13252": 125,
        "13253": 50,
        "13254": 95,
        "13255": 108,
        "13256": 53,
        "13257": 111,
        "13258": 216,
        "13259": 161,
        "13260": 21,
        "13261": 193,
        "13262": 79,
        "13263": 200,
        "13264": 142,
        "13265": 102,
        "13266": 59,
        "13267": 94,
        "13268": 82,
        "13269": 193,
        "13270": 48,
        "13271": 107,
        "13272": 51,
        "13273": 228,
        "13274": 123,
        "13275": 46,
        "13276": 229,
        "13277": 32,
        "13278": 231,
        "13279": 255,
        "13280": 30,
        "13281": 99,
        "13282": 200,
        "13283": 203,
        "13284": 255,
        "13285": 59,
        "13286": 110,
        "13287": 145,
        "13288": 222,
        "13289": 1,
        "13290": 141,
        "13291": 15,
        "13292": 187,
        "13293": 85,
        "13294": 250,
        "13295": 221,
        "13296": 146,
        "13297": 211,
        "13298": 220,
        "13299": 36,
        "13300": 129,
        "13301": 206,
        "13302": 193,
        "13303": 134,
        "13304": 76,
        "13305": 193,
        "13306": 37,
        "13307": 219,
        "13308": 158,
        "13309": 199,
        "13310": 6,
        "13311": 201,
        "13312": 55,
        "13313": 195,
        "13314": 87,
        "13315": 170,
        "13316": 213,
        "13317": 110,
        "13318": 55,
        "13319": 250,
        "13320": 237,
        "13321": 217,
        "13322": 71,
        "13323": 107,
        "13324": 115,
        "13325": 213,
        "13326": 179,
        "13327": 216,
        "13328": 90,
        "13329": 28,
        "13330": 135,
        "13331": 61,
        "13332": 200,
        "13333": 157,
        "13334": 120,
        "13335": 80,
        "13336": 133,
        "13337": 158,
        "13338": 117,
        "13339": 116,
        "13340": 16,
        "13341": 87,
        "13342": 95,
        "13343": 152,
        "13344": 61,
        "13345": 200,
        "13346": 94,
        "13347": 165,
        "13348": 75,
        "13349": 156,
        "13350": 74,
        "13351": 117,
        "13352": 0,
        "13353": 169,
        "13354": 99,
        "13355": 106,
        "13356": 109,
        "13357": 1,
        "13358": 60,
        "13359": 20,
        "13360": 132,
        "13361": 200,
        "13362": 103,
        "13363": 37,
        "13364": 181,
        "13365": 203,
        "13366": 176,
        "13367": 100,
        "13368": 44,
        "13369": 127,
        "13370": 145,
        "13371": 19,
        "13372": 14,
        "13373": 26,
        "13374": 185,
        "13375": 94,
        "13376": 182,
        "13377": 79,
        "13378": 135,
        "13379": 252,
        "13380": 75,
        "13381": 170,
        "13382": 237,
        "13383": 169,
        "13384": 120,
        "13385": 118,
        "13386": 214,
        "13387": 16,
        "13388": 219,
        "13389": 187,
        "13390": 135,
        "13391": 195,
        "13392": 36,
        "13393": 116,
        "13394": 160,
        "13395": 127,
        "13396": 201,
        "13397": 238,
        "13398": 110,
        "13399": 43,
        "13400": 3,
        "13401": 16,
        "13402": 193,
        "13403": 15,
        "13404": 26,
        "13405": 96,
        "13406": 35,
        "13407": 162,
        "13408": 31,
        "13409": 21,
        "13410": 201,
        "13411": 166,
        "13412": 200,
        "13413": 10,
        "13414": 173,
        "13415": 81,
        "13416": 153,
        "13417": 96,
        "13418": 203,
        "13419": 13,
        "13420": 251,
        "13421": 252,
        "13422": 191,
        "13423": 190,
        "13424": 222,
        "13425": 3,
        "13426": 179,
        "13427": 89,
        "13428": 96,
        "13429": 184,
        "13430": 112,
        "13431": 207,
        "13432": 94,
        "13433": 181,
        "13434": 241,
        "13435": 92,
        "13436": 1,
        "13437": 170,
        "13438": 16,
        "13439": 155,
        "13440": 72,
        "13441": 221,
        "13442": 127,
        "13443": 223,
        "13444": 96,
        "13445": 155,
        "13446": 239,
        "13447": 96,
        "13448": 175,
        "13449": 213,
        "13450": 221,
        "13451": 62,
        "13452": 71,
        "13453": 51,
        "13454": 136,
        "13455": 33,
        "13456": 133,
        "13457": 81,
        "13458": 172,
        "13459": 113,
        "13460": 158,
        "13461": 88,
        "13462": 79,
        "13463": 143,
        "13464": 214,
        "13465": 46,
        "13466": 27,
        "13467": 145,
        "13468": 154,
        "13469": 138,
        "13470": 2,
        "13471": 171,
        "13472": 145,
        "13473": 41,
        "13474": 239,
        "13475": 4,
        "13476": 115,
        "13477": 87,
        "13478": 103,
        "13479": 141,
        "13480": 203,
        "13481": 170,
        "13482": 142,
        "13483": 234,
        "13484": 6,
        "13485": 24,
        "13486": 103,
        "13487": 237,
        "13488": 98,
        "13489": 168,
        "13490": 118,
        "13491": 197,
        "13492": 180,
        "13493": 106,
        "13494": 130,
        "13495": 113,
        "13496": 101,
        "13497": 162,
        "13498": 208,
        "13499": 201,
        "13500": 123,
        "13501": 6,
        "13502": 92,
        "13503": 236,
        "13504": 238,
        "13505": 136,
        "13506": 237,
        "13507": 89,
        "13508": 201,
        "13509": 183,
        "13510": 25,
        "13511": 87,
        "13512": 154,
        "13513": 129,
        "13514": 249,
        "13515": 132,
        "13516": 73,
        "13517": 239,
        "13518": 54,
        "13519": 65,
        "13520": 58,
        "13521": 19,
        "13522": 146,
        "13523": 221,
        "13524": 201,
        "13525": 4,
        "13526": 3,
        "13527": 98,
        "13528": 164,
        "13529": 67,
        "13530": 40,
        "13531": 208,
        "13532": 209,
        "13533": 183,
        "13534": 124,
        "13535": 123,
        "13536": 50,
        "13537": 57,
        "13538": 101,
        "13539": 2,
        "13540": 241,
        "13541": 106,
        "13542": 163,
        "13543": 7,
        "13544": 45,
        "13545": 195,
        "13546": 93,
        "13547": 238,
        "13548": 183,
        "13549": 26,
        "13550": 67,
        "13551": 127,
        "13552": 206,
        "13553": 163,
        "13554": 129,
        "13555": 205,
        "13556": 69,
        "13557": 120,
        "13558": 192,
        "13559": 83,
        "13560": 96,
        "13561": 75,
        "13562": 57,
        "13563": 147,
        "13564": 159,
        "13565": 213,
        "13566": 23,
        "13567": 223,
        "13568": 55,
        "13569": 138,
        "13570": 92,
        "13571": 12,
        "13572": 20,
        "13573": 233,
        "13574": 123,
        "13575": 117,
        "13576": 189,
        "13577": 14,
        "13578": 156,
        "13579": 84,
        "13580": 169,
        "13581": 240,
        "13582": 202,
        "13583": 84,
        "13584": 144,
        "13585": 145,
        "13586": 154,
        "13587": 39,
        "13588": 125,
        "13589": 77,
        "13590": 168,
        "13591": 161,
        "13592": 113,
        "13593": 96,
        "13594": 252,
        "13595": 81,
        "13596": 178,
        "13597": 33,
        "13598": 154,
        "13599": 180,
        "13600": 31,
        "13601": 70,
        "13602": 139,
        "13603": 48,
        "13604": 217,
        "13605": 206,
        "13606": 65,
        "13607": 110,
        "13608": 229,
        "13609": 134,
        "13610": 128,
        "13611": 178,
        "13612": 25,
        "13613": 221,
        "13614": 134,
        "13615": 54,
        "13616": 16,
        "13617": 58,
        "13618": 124,
        "13619": 209,
        "13620": 134,
        "13621": 209,
        "13622": 154,
        "13623": 66,
        "13624": 87,
        "13625": 119,
        "13626": 9,
        "13627": 216,
        "13628": 154,
        "13629": 126,
        "13630": 106,
        "13631": 197,
        "13632": 182,
        "13633": 104,
        "13634": 149,
        "13635": 216,
        "13636": 126,
        "13637": 18,
        "13638": 55,
        "13639": 17,
        "13640": 54,
        "13641": 134,
        "13642": 225,
        "13643": 164,
        "13644": 69,
        "13645": 87,
        "13646": 5,
        "13647": 75,
        "13648": 20,
        "13649": 143,
        "13650": 235,
        "13651": 126,
        "13652": 29,
        "13653": 138,
        "13654": 235,
        "13655": 252,
        "13656": 135,
        "13657": 249,
        "13658": 235,
        "13659": 203,
        "13660": 40,
        "13661": 91,
        "13662": 6,
        "13663": 186,
        "13664": 155,
        "13665": 102,
        "13666": 241,
        "13667": 134,
        "13668": 220,
        "13669": 145,
        "13670": 176,
        "13671": 248,
        "13672": 41,
        "13673": 90,
        "13674": 241,
        "13675": 15,
        "13676": 168,
        "13677": 85,
        "13678": 164,
        "13679": 117,
        "13680": 53,
        "13681": 14,
        "13682": 244,
        "13683": 169,
        "13684": 37,
        "13685": 50,
        "13686": 146,
        "13687": 148,
        "13688": 8,
        "13689": 136,
        "13690": 87,
        "13691": 15,
        "13692": 166,
        "13693": 151,
        "13694": 243,
        "13695": 227,
        "13696": 147,
        "13697": 89,
        "13698": 20,
        "13699": 206,
        "13700": 252,
        "13701": 48,
        "13702": 37,
        "13703": 59,
        "13704": 120,
        "13705": 62,
        "13706": 216,
        "13707": 144,
        "13708": 235,
        "13709": 97,
        "13710": 1,
        "13711": 166,
        "13712": 69,
        "13713": 41,
        "13714": 244,
        "13715": 129,
        "13716": 34,
        "13717": 177,
        "13718": 88,
        "13719": 115,
        "13720": 5,
        "13721": 155,
        "13722": 96,
        "13723": 40,
        "13724": 244,
        "13725": 147,
        "13726": 67,
        "13727": 66,
        "13728": 21,
        "13729": 132,
        "13730": 207,
        "13731": 184,
        "13732": 233,
        "13733": 103,
        "13734": 227,
        "13735": 1,
        "13736": 93,
        "13737": 205,
        "13738": 192,
        "13739": 6,
        "13740": 157,
        "13741": 184,
        "13742": 205,
        "13743": 185,
        "13744": 208,
        "13745": 18,
        "13746": 85,
        "13747": 122,
        "13748": 117,
        "13749": 90,
        "13750": 117,
        "13751": 176,
        "13752": 166,
        "13753": 225,
        "13754": 24,
        "13755": 253,
        "13756": 250,
        "13757": 243,
        "13758": 64,
        "13759": 83,
        "13760": 29,
        "13761": 81,
        "13762": 210,
        "13763": 64,
        "13764": 249,
        "13765": 194,
        "13766": 79,
        "13767": 64,
        "13768": 10,
        "13769": 255,
        "13770": 107,
        "13771": 18,
        "13772": 144,
        "13773": 247,
        "13774": 225,
        "13775": 241,
        "13776": 172,
        "13777": 243,
        "13778": 27,
        "13779": 99,
        "13780": 199,
        "13781": 112,
        "13782": 138,
        "13783": 113,
        "13784": 39,
        "13785": 155,
        "13786": 169,
        "13787": 55,
        "13788": 88,
        "13789": 102,
        "13790": 101,
        "13791": 238,
        "13792": 185,
        "13793": 24,
        "13794": 133,
        "13795": 98,
        "13796": 160,
        "13797": 162,
        "13798": 22,
        "13799": 113,
        "13800": 88,
        "13801": 160,
        "13802": 95,
        "13803": 255,
        "13804": 70,
        "13805": 76,
        "13806": 232,
        "13807": 197,
        "13808": 85,
        "13809": 249,
        "13810": 218,
        "13811": 81,
        "13812": 167,
        "13813": 115,
        "13814": 58,
        "13815": 33,
        "13816": 117,
        "13817": 224,
        "13818": 104,
        "13819": 66,
        "13820": 209,
        "13821": 156,
        "13822": 37,
        "13823": 21,
        "13824": 212,
        "13825": 120,
        "13826": 225,
        "13827": 143,
        "13828": 233,
        "13829": 96,
        "13830": 236,
        "13831": 3,
        "13832": 37,
        "13833": 192,
        "13834": 113,
        "13835": 126,
        "13836": 229,
        "13837": 172,
        "13838": 107,
        "13839": 187,
        "13840": 85,
        "13841": 179,
        "13842": 150,
        "13843": 106,
        "13844": 182,
        "13845": 201,
        "13846": 63,
        "13847": 24,
        "13848": 223,
        "13849": 136,
        "13850": 202,
        "13851": 213,
        "13852": 198,
        "13853": 30,
        "13854": 228,
        "13855": 216,
        "13856": 114,
        "13857": 23,
        "13858": 135,
        "13859": 6,
        "13860": 216,
        "13861": 114,
        "13862": 168,
        "13863": 152,
        "13864": 179,
        "13865": 7,
        "13866": 154,
        "13867": 50,
        "13868": 77,
        "13869": 19,
        "13870": 87,
        "13871": 201,
        "13872": 207,
        "13873": 208,
        "13874": 8,
        "13875": 57,
        "13876": 18,
        "13877": 182,
        "13878": 1,
        "13879": 80,
        "13880": 1,
        "13881": 128,
        "13882": 49,
        "13883": 57,
        "13884": 138,
        "13885": 95,
        "13886": 244,
        "13887": 33,
        "13888": 86,
        "13889": 194,
        "13890": 202,
        "13891": 14,
        "13892": 162,
        "13893": 238,
        "13894": 216,
        "13895": 70,
        "13896": 57,
        "13897": 29,
        "13898": 40,
        "13899": 54,
        "13900": 170,
        "13901": 116,
        "13902": 219,
        "13903": 151,
        "13904": 138,
        "13905": 14,
        "13906": 150,
        "13907": 162,
        "13908": 163,
        "13909": 210,
        "13910": 49,
        "13911": 156,
        "13912": 184,
        "13913": 100,
        "13914": 117,
        "13915": 128,
        "13916": 66,
        "13917": 145,
        "13918": 196,
        "13919": 206,
        "13920": 182,
        "13921": 162,
        "13922": 68,
        "13923": 19,
        "13924": 203,
        "13925": 190,
        "13926": 187,
        "13927": 36,
        "13928": 236,
        "13929": 219,
        "13930": 211,
        "13931": 149,
        "13932": 147,
        "13933": 169,
        "13934": 33,
        "13935": 1,
        "13936": 76,
        "13937": 150,
        "13938": 1,
        "13939": 26,
        "13940": 43,
        "13941": 134,
        "13942": 35,
        "13943": 172,
        "13944": 23,
        "13945": 164,
        "13946": 31,
        "13947": 181,
        "13948": 38,
        "13949": 6,
        "13950": 6,
        "13951": 62,
        "13952": 47,
        "13953": 9,
        "13954": 184,
        "13955": 145,
        "13956": 165,
        "13957": 46,
        "13958": 158,
        "13959": 131,
        "13960": 82,
        "13961": 61,
        "13962": 111,
        "13963": 130,
        "13964": 170,
        "13965": 139,
        "13966": 137,
        "13967": 251,
        "13968": 138,
        "13969": 9,
        "13970": 81,
        "13971": 20,
        "13972": 113,
        "13973": 92,
        "13974": 84,
        "13975": 171,
        "13976": 239,
        "13977": 44,
        "13978": 103,
        "13979": 40,
        "13980": 253,
        "13981": 153,
        "13982": 207,
        "13983": 131,
        "13984": 238,
        "13985": 195,
        "13986": 74,
        "13987": 97,
        "13988": 20,
        "13989": 47,
        "13990": 77,
        "13991": 46,
        "13992": 166,
        "13993": 6,
        "13994": 103,
        "13995": 1,
        "13996": 46,
        "13997": 107,
        "13998": 158,
        "13999": 46,
        "14000": 188,
        "14001": 201,
        "14002": 27,
        "14003": 170,
        "14004": 120,
        "14005": 252,
        "14006": 75,
        "14007": 165,
        "14008": 151,
        "14009": 169,
        "14010": 150,
        "14011": 177,
        "14012": 228,
        "14013": 209,
        "14014": 242,
        "14015": 138,
        "14016": 81,
        "14017": 41,
        "14018": 135,
        "14019": 134,
        "14020": 4,
        "14021": 141,
        "14022": 66,
        "14023": 234,
        "14024": 102,
        "14025": 163,
        "14026": 232,
        "14027": 128,
        "14028": 206,
        "14029": 98,
        "14030": 210,
        "14031": 228,
        "14032": 196,
        "14033": 81,
        "14034": 251,
        "14035": 208,
        "14036": 230,
        "14037": 78,
        "14038": 141,
        "14039": 161,
        "14040": 158,
        "14041": 174,
        "14042": 90,
        "14043": 225,
        "14044": 212,
        "14045": 121,
        "14046": 127,
        "14047": 49,
        "14048": 144,
        "14049": 231,
        "14050": 72,
        "14051": 86,
        "14052": 65,
        "14053": 10,
        "14054": 236,
        "14055": 23,
        "14056": 73,
        "14057": 94,
        "14058": 182,
        "14059": 253,
        "14060": 220,
        "14061": 43,
        "14062": 113,
        "14063": 141,
        "14064": 73,
        "14065": 236,
        "14066": 51,
        "14067": 22,
        "14068": 142,
        "14069": 34,
        "14070": 54,
        "14071": 19,
        "14072": 106,
        "14073": 39,
        "14074": 219,
        "14075": 163,
        "14076": 55,
        "14077": 171,
        "14078": 135,
        "14079": 50,
        "14080": 42,
        "14081": 202,
        "14082": 210,
        "14083": 165,
        "14084": 175,
        "14085": 221,
        "14086": 247,
        "14087": 248,
        "14088": 13,
        "14089": 47,
        "14090": 247,
        "14091": 246,
        "14092": 176,
        "14093": 220,
        "14094": 184,
        "14095": 85,
        "14096": 176,
        "14097": 93,
        "14098": 239,
        "14099": 130,
        "14100": 82,
        "14101": 47,
        "14102": 90,
        "14103": 236,
        "14104": 32,
        "14105": 149,
        "14106": 215,
        "14107": 168,
        "14108": 233,
        "14109": 29,
        "14110": 206,
        "14111": 69,
        "14112": 151,
        "14113": 180,
        "14114": 116,
        "14115": 255,
        "14116": 214,
        "14117": 154,
        "14118": 183,
        "14119": 94,
        "14120": 24,
        "14121": 254,
        "14122": 160,
        "14123": 182,
        "14124": 62,
        "14125": 10,
        "14126": 36,
        "14127": 238,
        "14128": 32,
        "14129": 106,
        "14130": 53,
        "14131": 63,
        "14132": 214,
        "14133": 27,
        "14134": 62,
        "14135": 137,
        "14136": 36,
        "14137": 40,
        "14138": 147,
        "14139": 179,
        "14140": 219,
        "14141": 206,
        "14142": 102,
        "14143": 120,
        "14144": 145,
        "14145": 151,
        "14146": 233,
        "14147": 105,
        "14148": 50,
        "14149": 140,
        "14150": 240,
        "14151": 245,
        "14152": 18,
        "14153": 89,
        "14154": 31,
        "14155": 112,
        "14156": 174,
        "14157": 191,
        "14158": 41,
        "14159": 20,
        "14160": 49,
        "14161": 112,
        "14162": 223,
        "14163": 116,
        "14164": 147,
        "14165": 62,
        "14166": 171,
        "14167": 42,
        "14168": 67,
        "14169": 129,
        "14170": 188,
        "14171": 70,
        "14172": 57,
        "14173": 165,
        "14174": 210,
        "14175": 39,
        "14176": 178,
        "14177": 74,
        "14178": 203,
        "14179": 91,
        "14180": 213,
        "14181": 90,
        "14182": 13,
        "14183": 36,
        "14184": 254,
        "14185": 85,
        "14186": 166,
        "14187": 79,
        "14188": 143,
        "14189": 184,
        "14190": 120,
        "14191": 223,
        "14192": 243,
        "14193": 122,
        "14194": 65,
        "14195": 121,
        "14196": 181,
        "14197": 20,
        "14198": 246,
        "14199": 195,
        "14200": 82,
        "14201": 161,
        "14202": 104,
        "14203": 154,
        "14204": 121,
        "14205": 90,
        "14206": 181,
        "14207": 8,
        "14208": 15,
        "14209": 250,
        "14210": 239,
        "14211": 252,
        "14212": 217,
        "14213": 215,
        "14214": 117,
        "14215": 6,
        "14216": 95,
        "14217": 251,
        "14218": 64,
        "14219": 25,
        "14220": 233,
        "14221": 207,
        "14222": 54,
        "14223": 55,
        "14224": 105,
        "14225": 147,
        "14226": 182,
        "14227": 231,
        "14228": 119,
        "14229": 44,
        "14230": 193,
        "14231": 52,
        "14232": 21,
        "14233": 196,
        "14234": 56,
        "14235": 204,
        "14236": 63,
        "14237": 186,
        "14238": 38,
        "14239": 141,
        "14240": 117,
        "14241": 121,
        "14242": 187,
        "14243": 35,
        "14244": 232,
        "14245": 172,
        "14246": 151,
        "14247": 5,
        "14248": 197,
        "14249": 104,
        "14250": 185,
        "14251": 56,
        "14252": 162,
        "14253": 209,
        "14254": 98,
        "14255": 67,
        "14256": 186,
        "14257": 87,
        "14258": 164,
        "14259": 44,
        "14260": 11,
        "14261": 241,
        "14262": 1,
        "14263": 236,
        "14264": 117,
        "14265": 255,
        "14266": 177,
        "14267": 77,
        "14268": 168,
        "14269": 37,
        "14270": 205,
        "14271": 199,
        "14272": 114,
        "14273": 155,
        "14274": 71,
        "14275": 217,
        "14276": 26,
        "14277": 45,
        "14278": 36,
        "14279": 173,
        "14280": 33,
        "14281": 147,
        "14282": 153,
        "14283": 73,
        "14284": 8,
        "14285": 61,
        "14286": 213,
        "14287": 86,
        "14288": 193,
        "14289": 42,
        "14290": 205,
        "14291": 162,
        "14292": 90,
        "14293": 210,
        "14294": 111,
        "14295": 248,
        "14296": 70,
        "14297": 235,
        "14298": 40,
        "14299": 77,
        "14300": 88,
        "14301": 245,
        "14302": 145,
        "14303": 183,
        "14304": 137,
        "14305": 37,
        "14306": 74,
        "14307": 216,
        "14308": 72,
        "14309": 151,
        "14310": 216,
        "14311": 64,
        "14312": 156,
        "14313": 87,
        "14314": 176,
        "14315": 204,
        "14316": 90,
        "14317": 203,
        "14318": 68,
        "14319": 10,
        "14320": 208,
        "14321": 196,
        "14322": 254,
        "14323": 108,
        "14324": 177,
        "14325": 146,
        "14326": 147,
        "14327": 223,
        "14328": 97,
        "14329": 186,
        "14330": 216,
        "14331": 65,
        "14332": 102,
        "14333": 58,
        "14334": 143,
        "14335": 31,
        "14336": 183,
        "14337": 54,
        "14338": 45,
        "14339": 112,
        "14340": 164,
        "14341": 170,
        "14342": 103,
        "14343": 85,
        "14344": 121,
        "14345": 120,
        "14346": 220,
        "14347": 122,
        "14348": 208,
        "14349": 89,
        "14350": 199,
        "14351": 117,
        "14352": 167,
        "14353": 107,
        "14354": 27,
        "14355": 99,
        "14356": 174,
        "14357": 163,
        "14358": 43,
        "14359": 70,
        "14360": 132,
        "14361": 184,
        "14362": 31,
        "14363": 188,
        "14364": 190,
        "14365": 191,
        "14366": 26,
        "14367": 93,
        "14368": 137,
        "14369": 71,
        "14370": 162,
        "14371": 243,
        "14372": 180,
        "14373": 210,
        "14374": 117,
        "14375": 161,
        "14376": 56,
        "14377": 77,
        "14378": 212,
        "14379": 117,
        "14380": 180,
        "14381": 95,
        "14382": 49,
        "14383": 159,
        "14384": 35,
        "14385": 54,
        "14386": 194,
        "14387": 138,
        "14388": 152,
        "14389": 104,
        "14390": 71,
        "14391": 113,
        "14392": 247,
        "14393": 170,
        "14394": 143,
        "14395": 211,
        "14396": 24,
        "14397": 200,
        "14398": 1,
        "14399": 190,
        "14400": 174,
        "14401": 193,
        "14402": 79,
        "14403": 241,
        "14404": 61,
        "14405": 105,
        "14406": 129,
        "14407": 144,
        "14408": 153,
        "14409": 69,
        "14410": 224,
        "14411": 116,
        "14412": 181,
        "14413": 163,
        "14414": 118,
        "14415": 55,
        "14416": 35,
        "14417": 9,
        "14418": 86,
        "14419": 131,
        "14420": 148,
        "14421": 79,
        "14422": 14,
        "14423": 7,
        "14424": 234,
        "14425": 142,
        "14426": 133,
        "14427": 191,
        "14428": 86,
        "14429": 223,
        "14430": 101,
        "14431": 162,
        "14432": 24,
        "14433": 9,
        "14434": 237,
        "14435": 146,
        "14436": 199,
        "14437": 136,
        "14438": 79,
        "14439": 147,
        "14440": 33,
        "14441": 220,
        "14442": 176,
        "14443": 25,
        "14444": 254,
        "14445": 91,
        "14446": 252,
        "14447": 50,
        "14448": 106,
        "14449": 151,
        "14450": 54,
        "14451": 189,
        "14452": 37,
        "14453": 77,
        "14454": 211,
        "14455": 211,
        "14456": 187,
        "14457": 131,
        "14458": 98,
        "14459": 202,
        "14460": 173,
        "14461": 241,
        "14462": 200,
        "14463": 131,
        "14464": 200,
        "14465": 6,
        "14466": 174,
        "14467": 154,
        "14468": 32,
        "14469": 182,
        "14470": 29,
        "14471": 116,
        "14472": 67,
        "14473": 141,
        "14474": 199,
        "14475": 244,
        "14476": 150,
        "14477": 45,
        "14478": 92,
        "14479": 45,
        "14480": 20,
        "14481": 169,
        "14482": 92,
        "14483": 121,
        "14484": 91,
        "14485": 133,
        "14486": 76,
        "14487": 86,
        "14488": 125,
        "14489": 14,
        "14490": 44,
        "14491": 165,
        "14492": 211,
        "14493": 48,
        "14494": 141,
        "14495": 171,
        "14496": 72,
        "14497": 30,
        "14498": 131,
        "14499": 57,
        "14500": 59,
        "14501": 202,
        "14502": 35,
        "14503": 52,
        "14504": 109,
        "14505": 35,
        "14506": 78,
        "14507": 209,
        "14508": 187,
        "14509": 70,
        "14510": 240,
        "14511": 52,
        "14512": 209,
        "14513": 80,
        "14514": 159,
        "14515": 19,
        "14516": 56,
        "14517": 26,
        "14518": 250,
        "14519": 65,
        "14520": 2,
        "14521": 164,
        "14522": 91,
        "14523": 201,
        "14524": 194,
        "14525": 180,
        "14526": 213,
        "14527": 17,
        "14528": 11,
        "14529": 30,
        "14530": 134,
        "14531": 236,
        "14532": 26,
        "14533": 29,
        "14534": 140,
        "14535": 67,
        "14536": 208,
        "14537": 113,
        "14538": 219,
        "14539": 11,
        "14540": 185,
        "14541": 13,
        "14542": 101,
        "14543": 179,
        "14544": 98,
        "14545": 67,
        "14546": 17,
        "14547": 234,
        "14548": 203,
        "14549": 170,
        "14550": 160,
        "14551": 12,
        "14552": 40,
        "14553": 201,
        "14554": 29,
        "14555": 36,
        "14556": 177,
        "14557": 174,
        "14558": 8,
        "14559": 163,
        "14560": 187,
        "14561": 219,
        "14562": 184,
        "14563": 140,
        "14564": 186,
        "14565": 63,
        "14566": 105,
        "14567": 22,
        "14568": 153,
        "14569": 113,
        "14570": 37,
        "14571": 188,
        "14572": 250,
        "14573": 18,
        "14574": 48,
        "14575": 67,
        "14576": 137,
        "14577": 186,
        "14578": 63,
        "14579": 180,
        "14580": 90,
        "14581": 99,
        "14582": 205,
        "14583": 102,
        "14584": 157,
        "14585": 67,
        "14586": 233,
        "14587": 146,
        "14588": 201,
        "14589": 173,
        "14590": 178,
        "14591": 26,
        "14592": 182,
        "14593": 185,
        "14594": 166,
        "14595": 233,
        "14596": 108,
        "14597": 7,
        "14598": 2,
        "14599": 192,
        "14600": 6,
        "14601": 53,
        "14602": 94,
        "14603": 83,
        "14604": 25,
        "14605": 4,
        "14606": 248,
        "14607": 200,
        "14608": 168,
        "14609": 132,
        "14610": 116,
        "14611": 114,
        "14612": 47,
        "14613": 17,
        "14614": 102,
        "14615": 185,
        "14616": 199,
        "14617": 7,
        "14618": 91,
        "14619": 241,
        "14620": 22,
        "14621": 39,
        "14622": 64,
        "14623": 234,
        "14624": 86,
        "14625": 94,
        "14626": 73,
        "14627": 44,
        "14628": 0,
        "14629": 205,
        "14630": 4,
        "14631": 22,
        "14632": 247,
        "14633": 187,
        "14634": 253,
        "14635": 252,
        "14636": 50,
        "14637": 218,
        "14638": 40,
        "14639": 192,
        "14640": 16,
        "14641": 241,
        "14642": 106,
        "14643": 174,
        "14644": 116,
        "14645": 186,
        "14646": 116,
        "14647": 21,
        "14648": 142,
        "14649": 118,
        "14650": 136,
        "14651": 66,
        "14652": 64,
        "14653": 91,
        "14654": 7,
        "14655": 212,
        "14656": 103,
        "14657": 186,
        "14658": 253,
        "14659": 108,
        "14660": 47,
        "14661": 10,
        "14662": 4,
        "14663": 48,
        "14664": 234,
        "14665": 234,
        "14666": 151,
        "14667": 168,
        "14668": 131,
        "14669": 190,
        "14670": 178,
        "14671": 110,
        "14672": 122,
        "14673": 183,
        "14674": 254,
        "14675": 145,
        "14676": 92,
        "14677": 26,
        "14678": 145,
        "14679": 60,
        "14680": 138,
        "14681": 129,
        "14682": 53,
        "14683": 34,
        "14684": 164,
        "14685": 50,
        "14686": 139,
        "14687": 155,
        "14688": 44,
        "14689": 131,
        "14690": 120,
        "14691": 7,
        "14692": 240,
        "14693": 180,
        "14694": 73,
        "14695": 143,
        "14696": 201,
        "14697": 183,
        "14698": 159,
        "14699": 252,
        "14700": 77,
        "14701": 196,
        "14702": 133,
        "14703": 125,
        "14704": 1,
        "14705": 148,
        "14706": 192,
        "14707": 168,
        "14708": 208,
        "14709": 64,
        "14710": 26,
        "14711": 228,
        "14712": 198,
        "14713": 117,
        "14714": 72,
        "14715": 245,
        "14716": 151,
        "14717": 93,
        "14718": 153,
        "14719": 39,
        "14720": 199,
        "14721": 245,
        "14722": 57,
        "14723": 139,
        "14724": 194,
        "14725": 180,
        "14726": 196,
        "14727": 247,
        "14728": 103,
        "14729": 211,
        "14730": 15,
        "14731": 183,
        "14732": 179,
        "14733": 212,
        "14734": 232,
        "14735": 105,
        "14736": 76,
        "14737": 188,
        "14738": 206,
        "14739": 91,
        "14740": 179,
        "14741": 213,
        "14742": 222,
        "14743": 73,
        "14744": 100,
        "14745": 246,
        "14746": 29,
        "14747": 41,
        "14748": 114,
        "14749": 45,
        "14750": 199,
        "14751": 87,
        "14752": 226,
        "14753": 79,
        "14754": 252,
        "14755": 166,
        "14756": 61,
        "14757": 70,
        "14758": 43,
        "14759": 126,
        "14760": 114,
        "14761": 160,
        "14762": 48,
        "14763": 242,
        "14764": 84,
        "14765": 108,
        "14766": 112,
        "14767": 20,
        "14768": 15,
        "14769": 18,
        "14770": 238,
        "14771": 100,
        "14772": 116,
        "14773": 101,
        "14774": 3,
        "14775": 30,
        "14776": 253,
        "14777": 170,
        "14778": 247,
        "14779": 108,
        "14780": 14,
        "14781": 62,
        "14782": 231,
        "14783": 179,
        "14784": 240,
        "14785": 13,
        "14786": 201,
        "14787": 149,
        "14788": 237,
        "14789": 116,
        "14790": 134,
        "14791": 145,
        "14792": 150,
        "14793": 60,
        "14794": 224,
        "14795": 72,
        "14796": 252,
        "14797": 151,
        "14798": 77,
        "14799": 53,
        "14800": 79,
        "14801": 22,
        "14802": 0,
        "14803": 53,
        "14804": 200,
        "14805": 243,
        "14806": 158,
        "14807": 89,
        "14808": 12,
        "14809": 51,
        "14810": 125,
        "14811": 242,
        "14812": 109,
        "14813": 205,
        "14814": 181,
        "14815": 198,
        "14816": 14,
        "14817": 42,
        "14818": 124,
        "14819": 197,
        "14820": 180,
        "14821": 11,
        "14822": 60,
        "14823": 151,
        "14824": 88,
        "14825": 169,
        "14826": 3,
        "14827": 26,
        "14828": 130,
        "14829": 144,
        "14830": 136,
        "14831": 130,
        "14832": 61,
        "14833": 48,
        "14834": 170,
        "14835": 249,
        "14836": 179,
        "14837": 94,
        "14838": 115,
        "14839": 45,
        "14840": 61,
        "14841": 10,
        "14842": 51,
        "14843": 181,
        "14844": 32,
        "14845": 11,
        "14846": 194,
        "14847": 213,
        "14848": 72,
        "14849": 145,
        "14850": 10,
        "14851": 183,
        "14852": 112,
        "14853": 234,
        "14854": 34,
        "14855": 213,
        "14856": 113,
        "14857": 255,
        "14858": 235,
        "14859": 241,
        "14860": 249,
        "14861": 110,
        "14862": 166,
        "14863": 178,
        "14864": 135,
        "14865": 151,
        "14866": 120,
        "14867": 190,
        "14868": 165,
        "14869": 181,
        "14870": 171,
        "14871": 225,
        "14872": 84,
        "14873": 121,
        "14874": 240,
        "14875": 11,
        "14876": 217,
        "14877": 96,
        "14878": 54,
        "14879": 38,
        "14880": 37,
        "14881": 233,
        "14882": 130,
        "14883": 174,
        "14884": 62,
        "14885": 77,
        "14886": 172,
        "14887": 1,
        "14888": 53,
        "14889": 114,
        "14890": 4,
        "14891": 45,
        "14892": 137,
        "14893": 31,
        "14894": 24,
        "14895": 182,
        "14896": 18,
        "14897": 153,
        "14898": 34,
        "14899": 157,
        "14900": 219,
        "14901": 226,
        "14902": 94,
        "14903": 254,
        "14904": 220,
        "14905": 28,
        "14906": 102,
        "14907": 238,
        "14908": 134,
        "14909": 240,
        "14910": 9,
        "14911": 249,
        "14912": 54,
        "14913": 113,
        "14914": 187,
        "14915": 147,
        "14916": 27,
        "14917": 45,
        "14918": 246,
        "14919": 34,
        "14920": 253,
        "14921": 196,
        "14922": 90,
        "14923": 213,
        "14924": 170,
        "14925": 99,
        "14926": 69,
        "14927": 13,
        "14928": 216,
        "14929": 255,
        "14930": 101,
        "14931": 176,
        "14932": 15,
        "14933": 231,
        "14934": 173,
        "14935": 65,
        "14936": 114,
        "14937": 255,
        "14938": 237,
        "14939": 175,
        "14940": 38,
        "14941": 212,
        "14942": 52,
        "14943": 23,
        "14944": 134,
        "14945": 113,
        "14946": 167,
        "14947": 213,
        "14948": 97,
        "14949": 55,
        "14950": 96,
        "14951": 112,
        "14952": 100,
        "14953": 18,
        "14954": 73,
        "14955": 102,
        "14956": 112,
        "14957": 224,
        "14958": 77,
        "14959": 61,
        "14960": 42,
        "14961": 8,
        "14962": 41,
        "14963": 99,
        "14964": 190,
        "14965": 126,
        "14966": 1,
        "14967": 102,
        "14968": 98,
        "14969": 180,
        "14970": 195,
        "14971": 225,
        "14972": 167,
        "14973": 150,
        "14974": 122,
        "14975": 86,
        "14976": 55,
        "14977": 7,
        "14978": 243,
        "14979": 169,
        "14980": 45,
        "14981": 210,
        "14982": 27,
        "14983": 6,
        "14984": 244,
        "14985": 136,
        "14986": 204,
        "14987": 36,
        "14988": 134,
        "14989": 11,
        "14990": 135,
        "14991": 79,
        "14992": 177,
        "14993": 197,
        "14994": 233,
        "14995": 151,
        "14996": 57,
        "14997": 123,
        "14998": 178,
        "14999": 98,
        "15000": 151,
        "15001": 113,
        "15002": 165,
        "15003": 72,
        "15004": 210,
        "15005": 100,
        "15006": 56,
        "15007": 44,
        "15008": 22,
        "15009": 124,
        "15010": 111,
        "15011": 216,
        "15012": 94,
        "15013": 178,
        "15014": 218,
        "15015": 107,
        "15016": 161,
        "15017": 231,
        "15018": 119,
        "15019": 161,
        "15020": 39,
        "15021": 199,
        "15022": 253,
        "15023": 83,
        "15024": 243,
        "15025": 25,
        "15026": 18,
        "15027": 103,
        "15028": 49,
        "15029": 252,
        "15030": 53,
        "15031": 129,
        "15032": 75,
        "15033": 216,
        "15034": 214,
        "15035": 237,
        "15036": 10,
        "15037": 209,
        "15038": 244,
        "15039": 67,
        "15040": 53,
        "15041": 60,
        "15042": 174,
        "15043": 129,
        "15044": 201,
        "15045": 175,
        "15046": 72,
        "15047": 175,
        "15048": 163,
        "15049": 175,
        "15050": 155,
        "15051": 79,
        "15052": 224,
        "15053": 255,
        "15054": 234,
        "15055": 251,
        "15056": 26,
        "15057": 227,
        "15058": 92,
        "15059": 55,
        "15060": 90,
        "15061": 110,
        "15062": 87,
        "15063": 240,
        "15064": 240,
        "15065": 232,
        "15066": 89,
        "15067": 116,
        "15068": 118,
        "15069": 68,
        "15070": 8,
        "15071": 160,
        "15072": 9,
        "15073": 87,
        "15074": 119,
        "15075": 84,
        "15076": 9,
        "15077": 75,
        "15078": 36,
        "15079": 97,
        "15080": 0,
        "15081": 54,
        "15082": 18,
        "15083": 237,
        "15084": 77,
        "15085": 128,
        "15086": 127,
        "15087": 0,
        "15088": 116,
        "15089": 81,
        "15090": 31,
        "15091": 162,
        "15092": 240,
        "15093": 92,
        "15094": 124,
        "15095": 155,
        "15096": 66,
        "15097": 17,
        "15098": 231,
        "15099": 97,
        "15100": 167,
        "15101": 29,
        "15102": 174,
        "15103": 11,
        "15104": 209,
        "15105": 60,
        "15106": 30,
        "15107": 251,
        "15108": 222,
        "15109": 254,
        "15110": 251,
        "15111": 67,
        "15112": 205,
        "15113": 146,
        "15114": 21,
        "15115": 252,
        "15116": 156,
        "15117": 81,
        "15118": 237,
        "15119": 225,
        "15120": 234,
        "15121": 121,
        "15122": 78,
        "15123": 20,
        "15124": 160,
        "15125": 102,
        "15126": 176,
        "15127": 223,
        "15128": 239,
        "15129": 142,
        "15130": 241,
        "15131": 246,
        "15132": 135,
        "15133": 253,
        "15134": 221,
        "15135": 233,
        "15136": 128,
        "15137": 199,
        "15138": 50,
        "15139": 44,
        "15140": 134,
        "15141": 237,
        "15142": 242,
        "15143": 185,
        "15144": 212,
        "15145": 191,
        "15146": 253,
        "15147": 221,
        "15148": 36,
        "15149": 248,
        "15150": 58,
        "15151": 108,
        "15152": 126,
        "15153": 140,
        "15154": 167,
        "15155": 169,
        "15156": 244,
        "15157": 74,
        "15158": 174,
        "15159": 160,
        "15160": 108,
        "15161": 34,
        "15162": 162,
        "15163": 117,
        "15164": 74,
        "15165": 201,
        "15166": 183,
        "15167": 1,
        "15168": 127,
        "15169": 234,
        "15170": 162,
        "15171": 28,
        "15172": 243,
        "15173": 180,
        "15174": 205,
        "15175": 195,
        "15176": 180,
        "15177": 91,
        "15178": 198,
        "15179": 98,
        "15180": 98,
        "15181": 158,
        "15182": 230,
        "15183": 75,
        "15184": 222,
        "15185": 79,
        "15186": 237,
        "15187": 227,
        "15188": 206,
        "15189": 47,
        "15190": 226,
        "15191": 73,
        "15192": 90,
        "15193": 102,
        "15194": 74,
        "15195": 21,
        "15196": 215,
        "15197": 118,
        "15198": 161,
        "15199": 140,
        "15200": 135,
        "15201": 213,
        "15202": 251,
        "15203": 89,
        "15204": 234,
        "15205": 61,
        "15206": 55,
        "15207": 174,
        "15208": 113,
        "15209": 192,
        "15210": 230,
        "15211": 19,
        "15212": 112,
        "15213": 207,
        "15214": 230,
        "15215": 70,
        "15216": 136,
        "15217": 13,
        "15218": 106,
        "15219": 210,
        "15220": 44,
        "15221": 88,
        "15222": 61,
        "15223": 102,
        "15224": 39,
        "15225": 140,
        "15226": 176,
        "15227": 81,
        "15228": 148,
        "15229": 153,
        "15230": 61,
        "15231": 0,
        "15232": 106,
        "15233": 164,
        "15234": 79,
        "15235": 72,
        "15236": 70,
        "15237": 208,
        "15238": 93,
        "15239": 71,
        "15240": 49,
        "15241": 46,
        "15242": 147,
        "15243": 98,
        "15244": 159,
        "15245": 0,
        "15246": 84,
        "15247": 76,
        "15248": 216,
        "15249": 25,
        "15250": 14,
        "15251": 25,
        "15252": 101,
        "15253": 45,
        "15254": 237,
        "15255": 88,
        "15256": 12,
        "15257": 97,
        "15258": 174,
        "15259": 216,
        "15260": 202,
        "15261": 230,
        "15262": 49,
        "15263": 4,
        "15264": 157,
        "15265": 103,
        "15266": 27,
        "15267": 165,
        "15268": 154,
        "15269": 172,
        "15270": 104,
        "15271": 143,
        "15272": 117,
        "15273": 197,
        "15274": 142,
        "15275": 49,
        "15276": 130,
        "15277": 33,
        "15278": 135,
        "15279": 55,
        "15280": 89,
        "15281": 140,
        "15282": 221,
        "15283": 58,
        "15284": 72,
        "15285": 105,
        "15286": 105,
        "15287": 124,
        "15288": 253,
        "15289": 51,
        "15290": 107,
        "15291": 20,
        "15292": 155,
        "15293": 231,
        "15294": 5,
        "15295": 34,
        "15296": 24,
        "15297": 223,
        "15298": 99,
        "15299": 190,
        "15300": 249,
        "15301": 190,
        "15302": 177,
        "15303": 63,
        "15304": 16,
        "15305": 16,
        "15306": 143,
        "15307": 0,
        "15308": 204,
        "15309": 19,
        "15310": 219,
        "15311": 174,
        "15312": 24,
        "15313": 174,
        "15314": 213,
        "15315": 21,
        "15316": 183,
        "15317": 210,
        "15318": 85,
        "15319": 131,
        "15320": 109,
        "15321": 22,
        "15322": 240,
        "15323": 55,
        "15324": 164,
        "15325": 190,
        "15326": 36,
        "15327": 89,
        "15328": 175,
        "15329": 136,
        "15330": 153,
        "15331": 88,
        "15332": 247,
        "15333": 120,
        "15334": 10,
        "15335": 118,
        "15336": 109,
        "15337": 223,
        "15338": 186,
        "15339": 102,
        "15340": 17,
        "15341": 42,
        "15342": 231,
        "15343": 78,
        "15344": 72,
        "15345": 53,
        "15346": 55,
        "15347": 75,
        "15348": 157,
        "15349": 36,
        "15350": 138,
        "15351": 33,
        "15352": 190,
        "15353": 7,
        "15354": 14,
        "15355": 14,
        "15356": 91,
        "15357": 30,
        "15358": 137,
        "15359": 85,
        "15360": 204,
        "15361": 58,
        "15362": 134,
        "15363": 248,
        "15364": 51,
        "15365": 99,
        "15366": 65,
        "15367": 24,
        "15368": 188,
        "15369": 243,
        "15370": 221,
        "15371": 230,
        "15372": 89,
        "15373": 170,
        "15374": 247,
        "15375": 180,
        "15376": 198,
        "15377": 82,
        "15378": 142,
        "15379": 178,
        "15380": 204,
        "15381": 200,
        "15382": 100,
        "15383": 193,
        "15384": 28,
        "15385": 141,
        "15386": 4,
        "15387": 11,
        "15388": 174,
        "15389": 148,
        "15390": 161,
        "15391": 49,
        "15392": 238,
        "15393": 158,
        "15394": 150,
        "15395": 59,
        "15396": 98,
        "15397": 20,
        "15398": 70,
        "15399": 143,
        "15400": 66,
        "15401": 189,
        "15402": 16,
        "15403": 156,
        "15404": 74,
        "15405": 116,
        "15406": 91,
        "15407": 42,
        "15408": 125,
        "15409": 176,
        "15410": 57,
        "15411": 22,
        "15412": 84,
        "15413": 35,
        "15414": 229,
        "15415": 195,
        "15416": 203,
        "15417": 31,
        "15418": 230,
        "15419": 85,
        "15420": 230,
        "15421": 230,
        "15422": 72,
        "15423": 110,
        "15424": 28,
        "15425": 128,
        "15426": 247,
        "15427": 54,
        "15428": 217,
        "15429": 206,
        "15430": 61,
        "15431": 230,
        "15432": 253,
        "15433": 191,
        "15434": 239,
        "15435": 97,
        "15436": 166,
        "15437": 39,
        "15438": 135,
        "15439": 60,
        "15440": 180,
        "15441": 150,
        "15442": 129,
        "15443": 145,
        "15444": 75,
        "15445": 211,
        "15446": 229,
        "15447": 188,
        "15448": 255,
        "15449": 254,
        "15450": 216,
        "15451": 206,
        "15452": 64,
        "15453": 128,
        "15454": 63,
        "15455": 149,
        "15456": 25,
        "15457": 107,
        "15458": 156,
        "15459": 80,
        "15460": 223,
        "15461": 1,
        "15462": 241,
        "15463": 62,
        "15464": 76,
        "15465": 22,
        "15466": 22,
        "15467": 45,
        "15468": 215,
        "15469": 129,
        "15470": 246,
        "15471": 172,
        "15472": 163,
        "15473": 172,
        "15474": 53,
        "15475": 166,
        "15476": 80,
        "15477": 147,
        "15478": 55,
        "15479": 44,
        "15480": 224,
        "15481": 0,
        "15482": 172,
        "15483": 206,
        "15484": 127,
        "15485": 14,
        "15486": 147,
        "15487": 192,
        "15488": 136,
        "15489": 154,
        "15490": 229,
        "15491": 138,
        "15492": 183,
        "15493": 55,
        "15494": 154,
        "15495": 2,
        "15496": 103,
        "15497": 104,
        "15498": 37,
        "15499": 26,
        "15500": 125,
        "15501": 84,
        "15502": 132,
        "15503": 14,
        "15504": 199,
        "15505": 106,
        "15506": 227,
        "15507": 172,
        "15508": 26,
        "15509": 203,
        "15510": 68,
        "15511": 159,
        "15512": 145,
        "15513": 198,
        "15514": 208,
        "15515": 16,
        "15516": 92,
        "15517": 243,
        "15518": 239,
        "15519": 244,
        "15520": 44,
        "15521": 114,
        "15522": 196,
        "15523": 70,
        "15524": 157,
        "15525": 85,
        "15526": 117,
        "15527": 175,
        "15528": 40,
        "15529": 132,
        "15530": 100,
        "15531": 102,
        "15532": 56,
        "15533": 176,
        "15534": 184,
        "15535": 17,
        "15536": 243,
        "15537": 54,
        "15538": 110,
        "15539": 212,
        "15540": 47,
        "15541": 8,
        "15542": 93,
        "15543": 148,
        "15544": 116,
        "15545": 69,
        "15546": 51,
        "15547": 98,
        "15548": 121,
        "15549": 250,
        "15550": 93,
        "15551": 92,
        "15552": 113,
        "15553": 80,
        "15554": 188,
        "15555": 83,
        "15556": 76,
        "15557": 28,
        "15558": 32,
        "15559": 158,
        "15560": 216,
        "15561": 35,
        "15562": 114,
        "15563": 97,
        "15564": 247,
        "15565": 219,
        "15566": 32,
        "15567": 95,
        "15568": 102,
        "15569": 200,
        "15570": 121,
        "15571": 194,
        "15572": 60,
        "15573": 104,
        "15574": 140,
        "15575": 59,
        "15576": 78,
        "15577": 128,
        "15578": 210,
        "15579": 78,
        "15580": 27,
        "15581": 87,
        "15582": 15,
        "15583": 218,
        "15584": 28,
        "15585": 34,
        "15586": 22,
        "15587": 252,
        "15588": 103,
        "15589": 217,
        "15590": 212,
        "15591": 56,
        "15592": 125,
        "15593": 11,
        "15594": 10,
        "15595": 108,
        "15596": 159,
        "15597": 22,
        "15598": 244,
        "15599": 56,
        "15600": 197,
        "15601": 233,
        "15602": 213,
        "15603": 201,
        "15604": 153,
        "15605": 60,
        "15606": 200,
        "15607": 101,
        "15608": 83,
        "15609": 120,
        "15610": 64,
        "15611": 173,
        "15612": 16,
        "15613": 162,
        "15614": 81,
        "15615": 40,
        "15616": 121,
        "15617": 136,
        "15618": 35,
        "15619": 79,
        "15620": 97,
        "15621": 166,
        "15622": 28,
        "15623": 216,
        "15624": 78,
        "15625": 203,
        "15626": 100,
        "15627": 172,
        "15628": 110,
        "15629": 78,
        "15630": 240,
        "15631": 96,
        "15632": 199,
        "15633": 227,
        "15634": 97,
        "15635": 9,
        "15636": 6,
        "15637": 24,
        "15638": 40,
        "15639": 113,
        "15640": 233,
        "15641": 169,
        "15642": 13,
        "15643": 232,
        "15644": 190,
        "15645": 215,
        "15646": 0,
        "15647": 244,
        "15648": 22,
        "15649": 119,
        "15650": 146,
        "15651": 22,
        "15652": 32,
        "15653": 181,
        "15654": 113,
        "15655": 164,
        "15656": 252,
        "15657": 126,
        "15658": 216,
        "15659": 182,
        "15660": 13,
        "15661": 159,
        "15662": 93,
        "15663": 157,
        "15664": 135,
        "15665": 217,
        "15666": 71,
        "15667": 190,
        "15668": 51,
        "15669": 53,
        "15670": 74,
        "15671": 158,
        "15672": 109,
        "15673": 37,
        "15674": 158,
        "15675": 219,
        "15676": 29,
        "15677": 47,
        "15678": 149,
        "15679": 80,
        "15680": 160,
        "15681": 30,
        "15682": 70,
        "15683": 29,
        "15684": 135,
        "15685": 231,
        "15686": 111,
        "15687": 122,
        "15688": 86,
        "15689": 58,
        "15690": 190,
        "15691": 59,
        "15692": 39,
        "15693": 182,
        "15694": 190,
        "15695": 97,
        "15696": 95,
        "15697": 103,
        "15698": 64,
        "15699": 46,
        "15700": 124,
        "15701": 45,
        "15702": 126,
        "15703": 112,
        "15704": 176,
        "15705": 92,
        "15706": 254,
        "15707": 69,
        "15708": 230,
        "15709": 36,
        "15710": 252,
        "15711": 117,
        "15712": 216,
        "15713": 83,
        "15714": 222,
        "15715": 45,
        "15716": 41,
        "15717": 169,
        "15718": 176,
        "15719": 104,
        "15720": 188,
        "15721": 29,
        "15722": 50,
        "15723": 27,
        "15724": 227,
        "15725": 83,
        "15726": 9,
        "15727": 191,
        "15728": 23,
        "15729": 124,
        "15730": 125,
        "15731": 168,
        "15732": 69,
        "15733": 211,
        "15734": 148,
        "15735": 86,
        "15736": 148,
        "15737": 232,
        "15738": 129,
        "15739": 231,
        "15740": 10,
        "15741": 132,
        "15742": 116,
        "15743": 121,
        "15744": 97,
        "15745": 47,
        "15746": 154,
        "15747": 130,
        "15748": 0,
        "15749": 128,
        "15750": 109,
        "15751": 23,
        "15752": 22,
        "15753": 188,
        "15754": 92,
        "15755": 242,
        "15756": 67,
        "15757": 245,
        "15758": 110,
        "15759": 133,
        "15760": 25,
        "15761": 167,
        "15762": 80,
        "15763": 60,
        "15764": 87,
        "15765": 99,
        "15766": 141,
        "15767": 113,
        "15768": 155,
        "15769": 255,
        "15770": 90,
        "15771": 54,
        "15772": 253,
        "15773": 29,
        "15774": 153,
        "15775": 169,
        "15776": 206,
        "15777": 232,
        "15778": 154,
        "15779": 15,
        "15780": 72,
        "15781": 66,
        "15782": 224,
        "15783": 168,
        "15784": 82,
        "15785": 186,
        "15786": 45,
        "15787": 30,
        "15788": 33,
        "15789": 136,
        "15790": 97,
        "15791": 126,
        "15792": 220,
        "15793": 43,
        "15794": 118,
        "15795": 89,
        "15796": 73,
        "15797": 39,
        "15798": 246,
        "15799": 200,
        "15800": 154,
        "15801": 101,
        "15802": 102,
        "15803": 173,
        "15804": 89,
        "15805": 62,
        "15806": 46,
        "15807": 97,
        "15808": 69,
        "15809": 148,
        "15810": 119,
        "15811": 60,
        "15812": 235,
        "15813": 62,
        "15814": 52,
        "15815": 177,
        "15816": 250,
        "15817": 15,
        "15818": 83,
        "15819": 18,
        "15820": 71,
        "15821": 97,
        "15822": 211,
        "15823": 158,
        "15824": 187,
        "15825": 90,
        "15826": 124,
        "15827": 184,
        "15828": 54,
        "15829": 1,
        "15830": 73,
        "15831": 229,
        "15832": 117,
        "15833": 52,
        "15834": 117,
        "15835": 25,
        "15836": 13,
        "15837": 249,
        "15838": 146,
        "15839": 77,
        "15840": 234,
        "15841": 84,
        "15842": 82,
        "15843": 197,
        "15844": 202,
        "15845": 175,
        "15846": 205,
        "15847": 2,
        "15848": 244,
        "15849": 224,
        "15850": 111,
        "15851": 79,
        "15852": 22,
        "15853": 96,
        "15854": 38,
        "15855": 146,
        "15856": 50,
        "15857": 32,
        "15858": 250,
        "15859": 87,
        "15860": 158,
        "15861": 8,
        "15862": 143,
        "15863": 241,
        "15864": 32,
        "15865": 30,
        "15866": 81,
        "15867": 70,
        "15868": 63,
        "15869": 110,
        "15870": 251,
        "15871": 43,
        "15872": 230,
        "15873": 56,
        "15874": 225,
        "15875": 82,
        "15876": 134,
        "15877": 184,
        "15878": 213,
        "15879": 201,
        "15880": 110,
        "15881": 152,
        "15882": 0,
        "15883": 215,
        "15884": 214,
        "15885": 254,
        "15886": 98,
        "15887": 242,
        "15888": 47,
        "15889": 83,
        "15890": 126,
        "15891": 241,
        "15892": 96,
        "15893": 217,
        "15894": 89,
        "15895": 123,
        "15896": 231,
        "15897": 183,
        "15898": 193,
        "15899": 120,
        "15900": 95,
        "15901": 119,
        "15902": 53,
        "15903": 196,
        "15904": 130,
        "15905": 231,
        "15906": 255,
        "15907": 64,
        "15908": 116,
        "15909": 168,
        "15910": 63,
        "15911": 48,
        "15912": 129,
        "15913": 78,
        "15914": 48,
        "15915": 18,
        "15916": 138,
        "15917": 61,
        "15918": 66,
        "15919": 30,
        "15920": 56,
        "15921": 146,
        "15922": 212,
        "15923": 254,
        "15924": 136,
        "15925": 117,
        "15926": 235,
        "15927": 179,
        "15928": 164,
        "15929": 127,
        "15930": 235,
        "15931": 249,
        "15932": 116,
        "15933": 93,
        "15934": 72,
        "15935": 190,
        "15936": 76,
        "15937": 72,
        "15938": 154,
        "15939": 88,
        "15940": 112,
        "15941": 129,
        "15942": 87,
        "15943": 86,
        "15944": 2,
        "15945": 112,
        "15946": 185,
        "15947": 237,
        "15948": 214,
        "15949": 243,
        "15950": 208,
        "15951": 111,
        "15952": 44,
        "15953": 36,
        "15954": 129,
        "15955": 127,
        "15956": 32,
        "15957": 158,
        "15958": 60,
        "15959": 152,
        "15960": 16,
        "15961": 232,
        "15962": 111,
        "15963": 128,
        "15964": 245,
        "15965": 31,
        "15966": 50,
        "15967": 24,
        "15968": 5,
        "15969": 5,
        "15970": 126,
        "15971": 82,
        "15972": 229,
        "15973": 110,
        "15974": 149,
        "15975": 51,
        "15976": 156,
        "15977": 225,
        "15978": 61,
        "15979": 19,
        "15980": 56,
        "15981": 229,
        "15982": 155,
        "15983": 78,
        "15984": 68,
        "15985": 145,
        "15986": 102,
        "15987": 102,
        "15988": 153,
        "15989": 84,
        "15990": 128,
        "15991": 184,
        "15992": 140,
        "15993": 63,
        "15994": 53,
        "15995": 230,
        "15996": 33,
        "15997": 111,
        "15998": 169,
        "15999": 148,
        "16000": 148,
        "16001": 88,
        "16002": 139,
        "16003": 24,
        "16004": 129,
        "16005": 5,
        "16006": 251,
        "16007": 33,
        "16008": 210,
        "16009": 41,
        "16010": 228,
        "16011": 199,
        "16012": 0,
        "16013": 252,
        "16014": 130,
        "16015": 173,
        "16016": 110,
        "16017": 190,
        "16018": 157,
        "16019": 23,
        "16020": 55,
        "16021": 33,
        "16022": 156,
        "16023": 25,
        "16024": 216,
        "16025": 183,
        "16026": 250,
        "16027": 83,
        "16028": 151,
        "16029": 111,
        "16030": 119,
        "16031": 48,
        "16032": 133,
        "16033": 10,
        "16034": 199,
        "16035": 118,
        "16036": 204,
        "16037": 76,
        "16038": 246,
        "16039": 243,
        "16040": 137,
        "16041": 29,
        "16042": 127,
        "16043": 157,
        "16044": 117,
        "16045": 63,
        "16046": 196,
        "16047": 101,
        "16048": 42,
        "16049": 57,
        "16050": 245,
        "16051": 166,
        "16052": 227,
        "16053": 208,
        "16054": 87,
        "16055": 252,
        "16056": 185,
        "16057": 63,
        "16058": 94,
        "16059": 117,
        "16060": 61,
        "16061": 118,
        "16062": 210,
        "16063": 121,
        "16064": 68,
        "16065": 227,
        "16066": 23,
        "16067": 95,
        "16068": 173,
        "16069": 112,
        "16070": 133,
        "16071": 145,
        "16072": 214,
        "16073": 173,
        "16074": 86,
        "16075": 194,
        "16076": 43,
        "16077": 181,
        "16078": 192,
        "16079": 89,
        "16080": 232,
        "16081": 241,
        "16082": 224,
        "16083": 230,
        "16084": 90,
        "16085": 156,
        "16086": 11,
        "16087": 116,
        "16088": 165,
        "16089": 157,
        "16090": 20,
        "16091": 47,
        "16092": 29,
        "16093": 92,
        "16094": 187,
        "16095": 16,
        "16096": 255,
        "16097": 101,
        "16098": 58,
        "16099": 168,
        "16100": 140,
        "16101": 117,
        "16102": 244,
        "16103": 124,
        "16104": 39,
        "16105": 184,
        "16106": 183,
        "16107": 142,
        "16108": 145,
        "16109": 226,
        "16110": 131,
        "16111": 192,
        "16112": 117,
        "16113": 21,
        "16114": 178,
        "16115": 174,
        "16116": 165,
        "16117": 196,
        "16118": 23,
        "16119": 43,
        "16120": 247,
        "16121": 129,
        "16122": 215,
        "16123": 168,
        "16124": 98,
        "16125": 177,
        "16126": 199,
        "16127": 69,
        "16128": 19,
        "16129": 86,
        "16130": 155,
        "16131": 170,
        "16132": 126,
        "16133": 94,
        "16134": 60,
        "16135": 92,
        "16136": 54,
        "16137": 102,
        "16138": 253,
        "16139": 51,
        "16140": 99,
        "16141": 72,
        "16142": 64,
        "16143": 156,
        "16144": 156,
        "16145": 221,
        "16146": 159,
        "16147": 0,
        "16148": 206,
        "16149": 111,
        "16150": 222,
        "16151": 222,
        "16152": 135,
        "16153": 134,
        "16154": 22,
        "16155": 99,
        "16156": 79,
        "16157": 3,
        "16158": 69,
        "16159": 90,
        "16160": 122,
        "16161": 72,
        "16162": 5,
        "16163": 147,
        "16164": 42,
        "16165": 25,
        "16166": 38,
        "16167": 195,
        "16168": 202,
        "16169": 70,
        "16170": 24,
        "16171": 1,
        "16172": 181,
        "16173": 1,
        "16174": 139,
        "16175": 162,
        "16176": 106,
        "16177": 60,
        "16178": 181,
        "16179": 185,
        "16180": 37,
        "16181": 176,
        "16182": 139,
        "16183": 14,
        "16184": 30,
        "16185": 78,
        "16186": 215,
        "16187": 97,
        "16188": 15,
        "16189": 159,
        "16190": 194,
        "16191": 254,
        "16192": 157,
        "16193": 161,
        "16194": 27,
        "16195": 227,
        "16196": 103,
        "16197": 246,
        "16198": 170,
        "16199": 78,
        "16200": 162,
        "16201": 59,
        "16202": 134,
        "16203": 25,
        "16204": 112,
        "16205": 100,
        "16206": 64,
        "16207": 170,
        "16208": 43,
        "16209": 69,
        "16210": 36,
        "16211": 15,
        "16212": 203,
        "16213": 60,
        "16214": 124,
        "16215": 148,
        "16216": 193,
        "16217": 162,
        "16218": 10,
        "16219": 198,
        "16220": 212,
        "16221": 5,
        "16222": 51,
        "16223": 229,
        "16224": 194,
        "16225": 13,
        "16226": 252,
        "16227": 19,
        "16228": 87,
        "16229": 170,
        "16230": 105,
        "16231": 179,
        "16232": 2,
        "16233": 153,
        "16234": 91,
        "16235": 231,
        "16236": 146,
        "16237": 232,
        "16238": 159,
        "16239": 114,
        "16240": 93,
        "16241": 52,
        "16242": 201,
        "16243": 109,
        "16244": 246,
        "16245": 64,
        "16246": 249,
        "16247": 79,
        "16248": 117,
        "16249": 78,
        "16250": 173,
        "16251": 227,
        "16252": 77,
        "16253": 190,
        "16254": 71,
        "16255": 230,
        "16256": 26,
        "16257": 188,
        "16258": 33,
        "16259": 148,
        "16260": 229,
        "16261": 132,
        "16262": 76,
        "16263": 185,
        "16264": 101,
        "16265": 190,
        "16266": 138,
        "16267": 187,
        "16268": 109,
        "16269": 199,
        "16270": 138,
        "16271": 170,
        "16272": 107,
        "16273": 82,
        "16274": 139,
        "16275": 187,
        "16276": 142,
        "16277": 150,
        "16278": 17,
        "16279": 233,
        "16280": 98,
        "16281": 4,
        "16282": 53,
        "16283": 199,
        "16284": 25,
        "16285": 149,
        "16286": 58,
        "16287": 183,
        "16288": 97,
        "16289": 12,
        "16290": 101,
        "16291": 136,
        "16292": 140,
        "16293": 70,
        "16294": 173,
        "16295": 146,
        "16296": 128,
        "16297": 72,
        "16298": 1,
        "16299": 99,
        "16300": 217,
        "16301": 149,
        "16302": 72,
        "16303": 232,
        "16304": 216,
        "16305": 55,
        "16306": 158,
        "16307": 196,
        "16308": 71,
        "16309": 144,
        "16310": 95,
        "16311": 215,
        "16312": 178,
        "16313": 71,
        "16314": 192,
        "16315": 77,
        "16316": 86,
        "16317": 47,
        "16318": 251,
        "16319": 63,
        "16320": 10,
        "16321": 73,
        "16322": 245,
        "16323": 101,
        "16324": 187,
        "16325": 210,
        "16326": 104,
        "16327": 218,
        "16328": 130,
        "16329": 24,
        "16330": 37,
        "16331": 93,
        "16332": 82,
        "16333": 91,
        "16334": 173,
        "16335": 143,
        "16336": 218,
        "16337": 6,
        "16338": 94,
        "16339": 173,
        "16340": 193,
        "16341": 126,
        "16342": 179,
        "16343": 235,
        "16344": 77,
        "16345": 199,
        "16346": 133,
        "16347": 46,
        "16348": 58,
        "16349": 242,
        "16350": 187,
        "16351": 47,
        "16352": 251,
        "16353": 98,
        "16354": 196,
        "16355": 123,
        "16356": 151,
        "16357": 219,
        "16358": 202,
        "16359": 138,
        "16360": 198,
        "16361": 112,
        "16362": 152,
        "16363": 186,
        "16364": 207,
        "16365": 91,
        "16366": 102,
        "16367": 195,
        "16368": 229,
        "16369": 55,
        "16370": 8,
        "16371": 127,
        "16372": 135,
        "16373": 127,
        "16374": 89,
        "16375": 30,
        "16376": 232,
        "16377": 50,
        "16378": 162,
        "16379": 95,
        "16380": 130,
        "16381": 237,
        "16382": 12,
        "16383": 15,
        "16384": 185,
        "16385": 136,
        "16386": 193,
        "16387": 57,
        "16388": 150,
        "16389": 110,
        "16390": 214,
        "16391": 239,
        "16392": 1,
        "16393": 38,
        "16394": 148,
        "16395": 133,
        "16396": 250,
        "16397": 132,
        "16398": 33,
        "16399": 214,
        "16400": 93,
        "16401": 124,
        "16402": 237,
        "16403": 247,
        "16404": 55,
        "16405": 222,
        "16406": 96,
        "16407": 202,
        "16408": 166,
        "16409": 196,
        "16410": 4,
        "16411": 158,
        "16412": 192,
        "16413": 241,
        "16414": 98,
        "16415": 32,
        "16416": 29,
        "16417": 1,
        "16418": 54,
        "16419": 40,
        "16420": 243,
        "16421": 67,
        "16422": 55,
        "16423": 220,
        "16424": 118,
        "16425": 135,
        "16426": 226,
        "16427": 1,
        "16428": 28,
        "16429": 166,
        "16430": 245,
        "16431": 40,
        "16432": 201,
        "16433": 40,
        "16434": 25,
        "16435": 57,
        "16436": 53,
        "16437": 113,
        "16438": 44,
        "16439": 21,
        "16440": 132,
        "16441": 11,
        "16442": 28,
        "16443": 77,
        "16444": 149,
        "16445": 219,
        "16446": 158,
        "16447": 249,
        "16448": 214,
        "16449": 146,
        "16450": 157,
        "16451": 154,
        "16452": 130,
        "16453": 223,
        "16454": 124,
        "16455": 119,
        "16456": 60,
        "16457": 213,
        "16458": 67,
        "16459": 130,
        "16460": 121,
        "16461": 26,
        "16462": 208,
        "16463": 49,
        "16464": 32,
        "16465": 62,
        "16466": 6,
        "16467": 171,
        "16468": 215,
        "16469": 209,
        "16470": 178,
        "16471": 47,
        "16472": 89,
        "16473": 179,
        "16474": 209,
        "16475": 202,
        "16476": 46,
        "16477": 13,
        "16478": 240,
        "16479": 249,
        "16480": 252,
        "16481": 110,
        "16482": 206,
        "16483": 181,
        "16484": 199,
        "16485": 44,
        "16486": 105,
        "16487": 48,
        "16488": 87,
        "16489": 103,
        "16490": 192,
        "16491": 11,
        "16492": 138,
        "16493": 154,
        "16494": 245,
        "16495": 227,
        "16496": 138,
        "16497": 178,
        "16498": 131,
        "16499": 114,
        "16500": 208,
        "16501": 186,
        "16502": 217,
        "16503": 237,
        "16504": 91,
        "16505": 119,
        "16506": 110,
        "16507": 25,
        "16508": 12,
        "16509": 138,
        "16510": 2,
        "16511": 146,
        "16512": 127,
        "16513": 150,
        "16514": 230,
        "16515": 188,
        "16516": 66,
        "16517": 147,
        "16518": 227,
        "16519": 188,
        "16520": 1,
        "16521": 8,
        "16522": 0,
        "16523": 0,
        "16524": 0,
        "16525": 0,
        "16526": 0,
        "16527": 0,
        "16528": 16,
        "16529": 0,
        "16530": 0,
        "16531": 0,
        "16532": 0,
        "16533": 0,
        "16534": 0,
        "16535": 0,
        "16536": 0,
        "16537": 0,
        "16538": 0,
        "16539": 0,
        "16540": 0,
        "16541": 0,
        "16542": 0,
        "16543": 0,
        "16544": 0,
        "16545": 0,
        "16546": 0,
        "16547": 0,
        "16548": 0,
        "16549": 0,
        "16550": 0,
        "16551": 0,
        "16552": 64,
        "16553": 0,
        "16554": 0,
        "16555": 0,
        "16556": 0,
        "16557": 0,
        "16558": 0,
        "16559": 0,
        "16560": 3,
        "16561": 0,
        "16562": 0,
        "16563": 0,
        "16564": 0,
        "16565": 0,
        "16566": 0,
        "16567": 0,
        "16568": 4,
        "16569": 0,
        "16570": 0,
        "16571": 0,
        "16572": 0,
        "16573": 0,
        "16574": 0,
        "16575": 0,
        "16576": 4,
        "16577": 0,
        "16578": 0,
        "16579": 0,
        "16580": 0,
        "16581": 0,
        "16582": 0,
        "16583": 0,
        "16584": 0,
        "16585": 0,
        "16586": 0,
        "16587": 0,
        "16588": 1,
        "16589": 0,
        "16590": 0,
        "16591": 0,
        "16592": 0,
        "16593": 0,
        "16594": 0,
        "16595": 0,
        "16596": 16,
        "16597": 0,
        "16598": 0,
        "16599": 0,
        "16600": 0,
        "16601": 0,
        "16602": 0,
        "16603": 0
      }
    }
  ],
  "numDeployments": 1,
  "solcInputHash": "13515385aabd4519db5aa01202527ab0",
  "bytecode": "0x6101606040526200001760006200026660201b60201c565b6004553480156200002757600080fd5b50604051620046ed380380620046ed83398181016040528101906200004d919062000b83565b6040518060400160405280600881526020017f46616b65205553440000000000000000000000000000000000000000000000008152506040518060400160405280600481526020017f6655534400000000000000000000000000000000000000000000000000000000815250338383836040518060400160405280601181526020017f4668656e6978205065726d697373696f6e0000000000000000000000000000008152506040518060400160405280600381526020017f312e3000000000000000000000000000000000000000000000000000000000008152506200013f6000836200028260201b90919060201c565b61012081815250506200015d6001826200028260201b90919060201c565b6101408181525050818051906020012060e08181525050808051906020012061010081815250504660a081815250506200019c620002da60201b60201c565b608081815250503073ffffffffffffffffffffffffffffffffffffffff1660c08173ffffffffffffffffffffffffffffffffffffffff168152505050508160059081620001ea919062000e1f565b508060069081620001fc919062000e1f565b505050600062000212826200033760201b60201c565b9050620002486200023c8262000230617fff6200026660201b60201c565b6200035560201b60201c565b620003f860201b60201c565b6200025a8382620004cb60201b60201c565b50505050505062001260565b60006200027b8260026200057160201b60201c565b9050919050565b6000602083511015620002a857620002a0836200062860201b60201c565b9050620002d4565b82620002ba836200069560201b60201c565b6000019081620002cb919062000e1f565b5060ff60001b90505b92915050565b60007f8b73c3c69bb8fe3d512ecc4cf759cc79239f7b179b0ffacaa9a75d522b39400f60e0516101005146306040516020016200031c95949392919062000f77565b60405160208183030381529060405280519060200120905090565b60006200034e82600001516200069f60201b60201c565b9050919050565b60006200036883620006bb60201b60201c565b62000382576200037f60006200026660201b60201c565b92505b6200039382620006bb60201b60201c565b620003ad57620003aa60006200026660201b60201c565b91505b600083905060008390506000620003ea60028484608073ffffffffffffffffffffffffffffffffffffffff1663eb274b77620006c860201b60201c565b905080935050505092915050565b62000409816200077960201b60201c565b62000423576200042060006200078660201b60201c565b90505b600081905060006200043b82620007a260201b60201c565b9050608073ffffffffffffffffffffffffffffffffffffffff16637d23f1db600d836040518363ffffffff1660e01b81526004016200047c9291906200104f565b600060405180830381865afa1580156200049a573d6000803e3d6000fd5b505050506040513d6000823e3d601f19601f82011682018060405250810190620004c5919062001083565b50505050565b62000516600260008473ffffffffffffffffffffffffffffffffffffffff1673ffffffffffffffffffffffffffffffffffffffff168152602001908152602001600020548262000803565b600260008473ffffffffffffffffffffffffffffffffffffffff1673ffffffffffffffffffffffffffffffffffffffff16815260200190815260200160002081905550620005676004548262000803565b6004819055505050565b60006060608073ffffffffffffffffffffffffffffffffffffffff166319e1c5c4620005a386620007a260201b60201c565b856040518363ffffffff1660e01b8152600401620005c3929190620010d4565b600060405180830381865afa158015620005e1573d6000803e3d6000fd5b505050506040513d6000823e3d601f19601f820116820180604052508101906200060c919062001083565b90506200061f816200081f60201b60201c565b91505092915050565b600080829050601f815111156200067857826040517f305a27a90000000000000000000000000000000000000000000000000000000081526004016200066f91906200115a565b60405180910390fd5b8051816200068690620011a5565b60001c1760001b915050919050565b6000819050919050565b6000620006b48260026200082d60201b60201c565b9050919050565b6000808214159050919050565b60006060838388620006e089620007a260201b60201c565b620006f189620007a260201b60201c565b6040518463ffffffff1660e01b8152600401620007119392919062001215565b600060405180830381865afa1580156200072f573d6000803e3d6000fd5b505050506040513d6000823e3d601f19601f820116820180604052508101906200075a919062001083565b90506200076d81620008d460201b60201c565b91505095945050505050565b6000808214159050919050565b60006200079b82600d6200057160201b60201c565b9050919050565b6060602067ffffffffffffffff811115620007c257620007c1620009ae565b5b6040519080825280601f01601f191660200182016040528015620007f55781602001600182028036833780820191505090505b509050816020820152919050565b6000620008178383620008e260201b60201c565b905092915050565b600060208201519050919050565b60006060608073ffffffffffffffffffffffffffffffffffffffff16635fa55ca784866040518363ffffffff1660e01b81526004016200086f9291906200104f565b600060405180830381865afa1580156200088d573d6000803e3d6000fd5b505050506040513d6000823e3d601f19601f82011682018060405250810190620008b8919062001083565b9050620008cb816200081f60201b60201c565b91505092915050565b600060208201519050919050565b6000620008f583620006bb60201b60201c565b6200090f576200090c60006200026660201b60201c565b92505b6200092082620006bb60201b60201c565b6200093a576200093760006200026660201b60201c565b91505b6000839050600083905060006200097660028484608073ffffffffffffffffffffffffffffffffffffffff16622df619620006c860201b60201c565b905080935050505092915050565b6000604051905090565b600080fd5b600080fd5b600080fd5b6000601f19601f8301169050919050565b7f4e487b7100000000000000000000000000000000000000000000000000000000600052604160045260246000fd5b620009e8826200099d565b810181811067ffffffffffffffff8211171562000a0a5762000a09620009ae565b5b80604052505050565b600062000a1f62000984565b905062000a2d8282620009dd565b919050565b600080fd5b600080fd5b600080fd5b600067ffffffffffffffff82111562000a5f5762000a5e620009ae565b5b62000a6a826200099d565b9050602081019050919050565b60005b8381101562000a9757808201518184015260208101905062000a7a565b60008484015250505050565b600062000aba62000ab48462000a41565b62000a13565b90508281526020810184848401111562000ad95762000ad862000a3c565b5b62000ae684828562000a77565b509392505050565b600082601f83011262000b065762000b0562000a37565b5b815162000b1884826020860162000aa3565b91505092915050565b60006020828403121562000b3a5762000b3962000998565b5b62000b46602062000a13565b9050600082015167ffffffffffffffff81111562000b695762000b6862000a32565b5b62000b778482850162000aee565b60008301525092915050565b60006020828403121562000b9c5762000b9b6200098e565b5b600082015167ffffffffffffffff81111562000bbd5762000bbc62000993565b5b62000bcb8482850162000b21565b91505092915050565b600081519050919050565b7f4e487b7100000000000000000000000000000000000000000000000000000000600052602260045260246000fd5b6000600282049050600182168062000c2757607f821691505b60208210810362000c3d5762000c3c62000bdf565b5b50919050565b60008190508160005260206000209050919050565b60006020601f8301049050919050565b600082821b905092915050565b60006008830262000ca77fffffffffffffffffffffffffffffffffffffffffffffffffffffffffffffffff8262000c68565b62000cb3868362000c68565b95508019841693508086168417925050509392505050565b6000819050919050565b6000819050919050565b600062000d0062000cfa62000cf48462000ccb565b62000cd5565b62000ccb565b9050919050565b6000819050919050565b62000d1c8362000cdf565b62000d3462000d2b8262000d07565b84845462000c75565b825550505050565b600090565b62000d4b62000d3c565b62000d5881848462000d11565b505050565b5b8181101562000d805762000d7460008262000d41565b60018101905062000d5e565b5050565b601f82111562000dcf5762000d998162000c43565b62000da48462000c58565b8101602085101562000db4578190505b62000dcc62000dc38562000c58565b83018262000d5d565b50505b505050565b600082821c905092915050565b600062000df46000198460080262000dd4565b1980831691505092915050565b600062000e0f838362000de1565b9150826002028217905092915050565b62000e2a8262000bd4565b67ffffffffffffffff81111562000e465762000e45620009ae565b5b62000e52825462000c0e565b62000e5f82828562000d84565b600060209050601f83116001811462000e97576000841562000e82578287015190505b62000e8e858262000e01565b86555062000efe565b601f19841662000ea78662000c43565b60005b8281101562000ed15784890151825560018201915060208501945060208101905062000eaa565b8683101562000ef1578489015162000eed601f89168262000de1565b8355505b6001600288020188555050505b505050505050565b6000819050919050565b62000f1b8162000f06565b82525050565b62000f2c8162000ccb565b82525050565b600073ffffffffffffffffffffffffffffffffffffffff82169050919050565b600062000f5f8262000f32565b9050919050565b62000f718162000f52565b82525050565b600060a08201905062000f8e600083018862000f10565b62000f9d602083018762000f10565b62000fac604083018662000f10565b62000fbb606083018562000f21565b62000fca608083018462000f66565b9695505050505050565b600060ff82169050919050565b62000fec8162000fd4565b82525050565b600081519050919050565b600082825260208201905092915050565b60006200101b8262000ff2565b62001027818562000ffd565b93506200103981856020860162000a77565b62001044816200099d565b840191505092915050565b600060408201905062001066600083018562000fe1565b81810360208301526200107a81846200100e565b90509392505050565b6000602082840312156200109c576200109b6200098e565b5b600082015167ffffffffffffffff811115620010bd57620010bc62000993565b5b620010cb8482850162000aee565b91505092915050565b60006040820190508181036000830152620010f081856200100e565b905062001101602083018462000fe1565b9392505050565b600082825260208201905092915050565b6000620011268262000bd4565b62001132818562001108565b93506200114481856020860162000a77565b6200114f816200099d565b840191505092915050565b6000602082019050818103600083015262001176818462001119565b905092915050565b6000819050602082019050919050565b60006200119c825162000f06565b80915050919050565b6000620011b28262000ff2565b82620011be846200117e565b9050620011cb816200118e565b925060208210156200120e57620012097fffffffffffffffffffffffffffffffffffffffffffffffffffffffffffffffff8360200360080262000c68565b831692505b5050919050565b60006060820190506200122c600083018662000fe1565b81810360208301526200124081856200100e565b905081810360408301526200125681846200100e565b9050949350505050565b60805160a05160c05160e051610100516101205161014051613432620012bb60003960006113ca0152600061138f015260006120d3015260006120b2015260006117f3015260006118490152600061187201526134326000f3fe608060405234801561001057600080fd5b50600436106101425760003560e01c80637ecebe00116100b8578063a9059cbb1161007c578063a9059cbb146103b9578063af575a00146103e9578063c4224c1914610419578063d505accf14610449578063d918156e14610465578063dd62ed3e1461049557610142565b80637ecebe00146102fb57806384b0196e1461032b5780638624a3491461034f57806395d89b411461037f5780639f284be71461039d57610142565b80633644e5151161010a5780633644e5151461020157806339c217f71461021f5780635356c4291461024f578063602772041461027f5780636e0505e1146102af57806370a08231146102cb57610142565b806306fdde0314610147578063095ea7b31461016557806318160ddd1461019557806323b872dd146101b3578063313ce567146101e3575b600080fd5b61014f6104c5565b60405161015c9190612494565b60405180910390f35b61017f600480360381019061017a919061255e565b610557565b60405161018c91906125b9565b60405180910390f35b61019d6105ab565b6040516101aa91906125e3565b60405180910390f35b6101cd60048036038101906101c891906125fe565b6105bd565b6040516101da91906125b9565b60405180910390f35b6101eb610692565b6040516101f8919061266d565b60405180910390f35b610209610697565b60405161021691906126a1565b60405180910390f35b610239600480360381019061023491906126e0565b610729565b6040516102469190612777565b60405180910390f35b610269600480360381019061026491906127b1565b61074e565b6040516102769190612494565b60405180910390f35b610299600480360381019061029491906129e4565b61084c565b6040516102a69190612494565b60405180910390f35b6102c960048036038101906102c49190612a7c565b610982565b005b6102e560048036038101906102e09190612aa9565b610ab9565b6040516102f291906125e3565b60405180910390f35b61031560048036038101906103109190612aa9565b610ad4565b60405161032291906125e3565b60405180910390f35b610333610aef565b6040516103469796959493929190612bde565b60405180910390f35b61036960048036038101906103649190612c62565b610b99565b6040516103769190612777565b60405180910390f35b610387610bd7565b6040516103949190612494565b60405180910390f35b6103b760048036038101906103b29190612a7c565b610c69565b005b6103d360048036038101906103ce919061255e565b610d76565b6040516103e091906125b9565b60405180910390f35b61040360048036038101906103fe9190612cfd565b610e08565b6040516104109190612777565b60405180910390f35b610433600480360381019061042e9190612d50565b610e35565b6040516104409190612777565b60405180910390f35b610463600480360381019061045e9190612dbc565b610e4a565b005b61047f600480360381019061047a91906126e0565b610fee565b60405161048c91906125b9565b60405180910390f35b6104af60048036038101906104aa9190612e5e565b611016565b6040516104bc91906125e3565b60405180910390f35b6060600580546104d490612ecd565b80601f016020809104026020016040519081016040528092919081815260200182805461050090612ecd565b801561054d5780601f106105225761010080835404028352916020019161054d565b820191906000526020600020905b81548152906001019060200180831161053057829003601f168201915b5050505050905090565b600082602052637f5e9f20600c5233600052816034600c205581600052602c5160601c337f8c5be1e5ebec7d5bd14f71427d1e84f3dd0314c0f7b2291e5b200ac8c7c3b92560206000a36001905092915050565b60006805345cdf77eb68f44c54905090565b60006105ca848484611036565b8360601b33602052637f5e9f208117600c526034600c20805460018101156106085780851115610602576313be252b6000526004601cfd5b84810382555b6387a211a28317600c526020600c2080548087111561062f5763f4d678b86000526004601cfd5b8681038255876000526020600c2087815401815587602052600c5160601c8660601c7fddf252ad1be2c89b69c2b068fc378daa952ba7f163c4a11628f55a4df523b3ef602080a350505050505061068784848461103b565b600190509392505050565b600090565b6000806106a2611040565b90506000801b81036106c0576106b66104c5565b8051906020012090505b6040517f8b73c3c69bb8fe3d512ecc4cf759cc79239f7b179b0ffacaa9a75d522b39400f81528160208201527fc89efdaa54c0f20c7adf612882df0950f5a951637e0307cdcb4c672f298b8bc6604082015246606082015230608082015260a081209250505090565b6000610746836107418461073c90612f56565b611045565b610e35565b905092915050565b60608161075a90612f69565b60006107b17f6bdaeb2d29561f159c7ef98b16b27015fb2aeb87209c7ee656226d912f59927d8360000151604051602001610796929190612f7c565b6040516020818303038152906040528051906020012061105b565b905060006107c3828460200151611075565b90503373ffffffffffffffffffffffffffffffffffffffff168173ffffffffffffffffffffffffffffffffffffffff161461082a576040517f3093a27700000000000000000000000000000000000000000000000000000000815260040160405180910390fd5b61084161083733886110a1565b8660000135611128565b935050505092915050565b6060818360006108a77f6bdaeb2d29561f159c7ef98b16b27015fb2aeb87209c7ee656226d912f59927d846000015160405160200161088c929190612f7c565b6040516020818303038152906040528051906020012061105b565b905060006108b9828560200151611075565b90508273ffffffffffffffffffffffffffffffffffffffff168173ffffffffffffffffffffffffffffffffffffffff1614610920576040517f51c65eae00000000000000000000000000000000000000000000000000000000815260040160405180910390fd5b6109768660000151600260008a73ffffffffffffffffffffffffffffffffffffffff1673ffffffffffffffffffffffffffffffffffffffff1681526020019081526020016000205461115e90919063ffffffff16565b94505050505092915050565b60006109938263ffffffff16611172565b905060006109fc6109ec83600260003373ffffffffffffffffffffffffffffffffffffffff1673ffffffffffffffffffffffffffffffffffffffff1681526020019081526020016000205461118690919063ffffffff16565b836109f76000611172565b61119a565b9050610a47600260003373ffffffffffffffffffffffffffffffffffffffff1673ffffffffffffffffffffffffffffffffffffffff1681526020019081526020016000205482611218565b600260003373ffffffffffffffffffffffffffffffffffffffff1673ffffffffffffffffffffffffffffffffffffffff16815260200190815260200160002081905550610a9660045482611218565b600481905550610ab433610aa98361122c565b63ffffffff166112ef565b505050565b60006387a211a2600c52816000526020600c20549050919050565b60006338377508600c52816000526020600c20549050919050565b600060608060008060006060610b03611386565b610b0b6113c1565b46306000801b600067ffffffffffffffff811115610b2c57610b2b612812565b5b604051908082528060200260200182016040528015610b5a5781602001602082028036833780820191505090505b507f0f00000000000000000000000000000000000000000000000000000000000000959493929190965096509650965096509650965090919293949596565b600080610bae83610ba990612f56565b611045565b90506000610bbd8633846113fc565b9050610bca868683611439565b5080925050509392505050565b606060068054610be690612ecd565b80601f0160208091040260200160405190810160405280929190818152602001828054610c1290612ecd565b8015610c5f5780601f10610c3457610100808354040283529160200191610c5f565b820191906000526020600020905b815481529060010190602001808311610c4257829003601f168201915b5050505050905090565b8063ffffffff16610c7933610ab9565b1015610cb1576040517ffda7bbda00000000000000000000000000000000000000000000000000000000815260040160405180910390fd5b610cc1338263ffffffff166115c6565b6000610cd28263ffffffff16611172565b9050610d1d600260003373ffffffffffffffffffffffffffffffffffffffff1673ffffffffffffffffffffffffffffffffffffffff168152602001908152602001600020548261165d565b600260003373ffffffffffffffffffffffffffffffffffffffff1673ffffffffffffffffffffffffffffffffffffffff16815260200190815260200160002081905550610d6c6004548261165d565b6004819055505050565b6000610d83338484611036565b6387a211a2600c52336000526020600c20805480841115610dac5763f4d678b86000526004601cfd5b8381038255846000526020600c2084815401815584602052600c5160601c337fddf252ad1be2c89b69c2b068fc378daa952ba7f163c4a11628f55a4df523b3ef602080a3505050610dfe33848461103b565b6001905092915050565b6000808290506000610e1b8633846113fc565b9050610e28868683611439565b5080925050509392505050565b6000610e42338484611439565b905092915050565b6000610e54611040565b90506000801b8103610e7257610e686104c5565b8051906020012090505b84421115610e8857631a15a3cc6000526004601cfd5b6040518860601b60601c98508760601b60601c975065383775081901600e52886000526020600c2080547f8b73c3c69bb8fe3d512ecc4cf759cc79239f7b179b0ffacaa9a75d522b39400f83528360208401527fc89efdaa54c0f20c7adf612882df0950f5a951637e0307cdcb4c672f298b8bc6604084015246606084015230608084015260a08320602e527f6e71edae12b1b97f4d1f60370fef10105fa2faae0126114a169c64845d6126c983528a60208401528960408401528860608401528060808401528760a084015260c08320604e526042602c206000528660ff1660205285604052846060526020806080600060015afa8b3d5114610f945763ddafbaef6000526004601cfd5b80820183558a637f5e9f2060a01b17604052896034602c20558a8c7f8c5be1e5ebec7d5bd14f71427d1e84f3dd0314c0f7b2291e5b200ac8c7c3b925602060608801a3836040526000606052505050505050505050505050565b600061100c33846110078561100290612f56565b611045565b611671565b6001905092915050565b600081602052637f5e9f20600c52826000526034600c2054905092915050565b505050565b505050565b600090565b600061105482600001516117db565b9050919050565b600061106e6110686117ef565b836118a6565b9050919050565b60008060008061108586866118e7565b9250925092506110958282611943565b82935050505092915050565b6000600360008473ffffffffffffffffffffffffffffffffffffffff1673ffffffffffffffffffffffffffffffffffffffff16815260200190815260200160002060008373ffffffffffffffffffffffffffffffffffffffff1673ffffffffffffffffffffffffffffffffffffffff16815260200190815260200160002054905092915050565b606061113383611aa7565b611144576111416000611172565b92505b600083905061115560028285611ab4565b91505092915050565b606061116a8383611128565b905092915050565b600061117f826002611b6a565b9050919050565b60006111928383611c0c565b905092915050565b60006111a584611c85565b6111b6576111b36000611c92565b93505b6111bf83611aa7565b6111d0576111cd6000611172565b92505b6111d982611aa7565b6111ea576111e76000611172565b91505b60008490506000849050600084905060006112086002858585611ca6565b9050809450505050509392505050565b60006112248383611d5e565b905092915050565b600061123782611aa7565b611248576112456000611172565b91505b6000829050600061125882611dd7565b90506000608073ffffffffffffffffffffffffffffffffffffffff166373cc01546002846040518363ffffffff1660e01b8152600401611299929190612ffa565b602060405180830381865afa1580156112b6573d6000803e3d6000fd5b505050506040513d601f19601f820116820180604052508101906112da919061303f565b90506112e581611e34565b9350505050919050565b6112fb60008383611036565b6805345cdf77eb68f44c548181018181101561131f5763e5cfe9576000526004601cfd5b806805345cdf77eb68f44c556387a211a2600c52836000526020600c2083815401815583602052600c5160601c60007fddf252ad1be2c89b69c2b068fc378daa952ba7f163c4a11628f55a4df523b3ef602080a35050506113826000838361103b565b5050565b60606113bc60007f0000000000000000000000000000000000000000000000000000000000000000611e3e90919063ffffffff16565b905090565b60606113f760017f0000000000000000000000000000000000000000000000000000000000000000611e3e90919063ffffffff16565b905090565b60008061140985856110a1565b905060006114178285611eee565b905061142d86866114288585611218565b611671565b80925050509392505050565b6000806114a1611491600260008873ffffffffffffffffffffffffffffffffffffffff1673ffffffffffffffffffffffffffffffffffffffff1681526020019081526020016000205485611f6790919063ffffffff16565b8461149c6000611172565b61119a565b90506114ec600260008673ffffffffffffffffffffffffffffffffffffffff1673ffffffffffffffffffffffffffffffffffffffff168152602001908152602001600020548261165d565b600260008673ffffffffffffffffffffffffffffffffffffffff1673ffffffffffffffffffffffffffffffffffffffff16815260200190815260200160002081905550611578600260008773ffffffffffffffffffffffffffffffffffffffff1673ffffffffffffffffffffffffffffffffffffffff1681526020019081526020016000205482611218565b600260008773ffffffffffffffffffffffffffffffffffffffff1673ffffffffffffffffffffffffffffffffffffffff16815260200190815260200160002081905550809150509392505050565b6115d282600083611036565b6387a211a2600c52816000526020600c208054808311156115fb5763f4d678b86000526004601cfd5b8281038255826805345cdf77eb68f44c54036805345cdf77eb68f44c558260005260008460601b60601c7fddf252ad1be2c89b69c2b068fc378daa952ba7f163c4a11628f55a4df523b3ef60206000a350506116598260008361103b565b5050565b60006116698383611f7b565b905092915050565b600073ffffffffffffffffffffffffffffffffffffffff168373ffffffffffffffffffffffffffffffffffffffff16036116e35760006040517fe602df050000000000000000000000000000000000000000000000000000000081526004016116da919061306c565b60405180910390fd5b600073ffffffffffffffffffffffffffffffffffffffff168273ffffffffffffffffffffffffffffffffffffffff16036117555760006040517f94280d6200000000000000000000000000000000000000000000000000000000815260040161174c919061306c565b60405180910390fd5b80600360008573ffffffffffffffffffffffffffffffffffffffff1673ffffffffffffffffffffffffffffffffffffffff16815260200190815260200160002060008473ffffffffffffffffffffffffffffffffffffffff1673ffffffffffffffffffffffffffffffffffffffff16815260200190815260200160002081905550505050565b60006117e8826002611ff3565b9050919050565b60007f000000000000000000000000000000000000000000000000000000000000000073ffffffffffffffffffffffffffffffffffffffff163073ffffffffffffffffffffffffffffffffffffffff1614801561186b57507f000000000000000000000000000000000000000000000000000000000000000046145b15611898577f000000000000000000000000000000000000000000000000000000000000000090506118a3565b6118a061208d565b90505b90565b60006040517f190100000000000000000000000000000000000000000000000000000000000081528360028201528260228201526042812091505092915050565b6000806000604184510361192c5760008060006020870151925060408701519150606087015160001a905061191e88828585612123565b95509550955050505061193c565b60006002855160001b9250925092505b9250925092565b6000600381111561195757611956613087565b5b82600381111561196a57611969613087565b5b0315611aa3576001600381111561198457611983613087565b5b82600381111561199757611996613087565b5b036119ce576040517ff645eedf00000000000000000000000000000000000000000000000000000000815260040160405180910390fd5b600260038111156119e2576119e1613087565b5b8260038111156119f5576119f4613087565b5b03611a3a578060001c6040517ffce698f7000000000000000000000000000000000000000000000000000000008152600401611a3191906125e3565b60405180910390fd5b600380811115611a4d57611a4c613087565b5b826003811115611a6057611a5f613087565b5b03611aa257806040517fd78bce0c000000000000000000000000000000000000000000000000000000008152600401611a9991906126a1565b60405180910390fd5b5b5050565b6000808214159050919050565b6060608073ffffffffffffffffffffffffffffffffffffffff1663a1848ff385611add86611dd7565b85604051602001611aee91906130d7565b6040516020818303038152906040526040518463ffffffff1660e01b8152600401611b1b939291906130f2565b600060405180830381865afa158015611b38573d6000803e3d6000fd5b505050506040513d6000823e3d601f19601f82011682018060405250810190611b6191906131d8565b90509392505050565b60006060608073ffffffffffffffffffffffffffffffffffffffff166319e1c5c4611b9486611dd7565b856040518363ffffffff1660e01b8152600401611bb2929190613221565b600060405180830381865afa158015611bcf573d6000803e3d6000fd5b505050506040513d6000823e3d601f19601f82011682018060405250810190611bf891906132c1565b9050611c0381612217565b91505092915050565b6000611c1783611aa7565b611c2857611c256000611172565b92505b611c3182611aa7565b611c4257611c3f6000611172565b91505b600083905060008390506000611c7760028484608073ffffffffffffffffffffffffffffffffffffffff1663650de1cf612225565b905080935050505092915050565b6000808214159050919050565b6000611c9f82600d611b6a565b9050919050565b60006060608073ffffffffffffffffffffffffffffffffffffffff1663c2d9695287611cd188611dd7565b611cda88611dd7565b611ce388611dd7565b6040518563ffffffff1660e01b8152600401611d02949392919061330a565b600060405180830381865afa158015611d1f573d6000803e3d6000fd5b505050506040513d6000823e3d601f19601f82011682018060405250810190611d4891906132c1565b9050611d5381612217565b915050949350505050565b6000611d6983611aa7565b611d7a57611d776000611172565b92505b611d8382611aa7565b611d9457611d916000611172565b91505b600083905060008390506000611dc960028484608073ffffffffffffffffffffffffffffffffffffffff1663cc2cbeff612225565b905080935050505092915050565b6060602067ffffffffffffffff811115611df457611df3612812565b5b6040519080825280601f01601f191660200182016040528015611e265781602001600182028036833780820191505090505b509050816020820152919050565b6000819050919050565b606060ff60001b8314611e5b57611e54836122b9565b9050611ee8565b818054611e6790612ecd565b80601f0160208091040260200160405190810160405280929190818152602001828054611e9390612ecd565b8015611ee05780601f10611eb557610100808354040283529160200191611ee0565b820191906000526020600020905b815481529060010190602001808311611ec357829003601f168201915b505050505090505b92915050565b6000611ef983611aa7565b611f0a57611f076000611172565b92505b611f1382611aa7565b611f2457611f216000611172565b91505b600083905060008390506000611f5960028484608073ffffffffffffffffffffffffffffffffffffffff16635211c679612225565b905080935050505092915050565b6000611f73838361232d565b905092915050565b6000611f8683611aa7565b611f9757611f946000611172565b92505b611fa082611aa7565b611fb157611fae6000611172565b91505b600083905060008390506000611fe560028484608073ffffffffffffffffffffffffffffffffffffffff16622df619612225565b905080935050505092915050565b60006060608073ffffffffffffffffffffffffffffffffffffffff16635fa55ca784866040518363ffffffff1660e01b8152600401612033929190612ffa565b600060405180830381865afa158015612050573d6000803e3d6000fd5b505050506040513d6000823e3d601f19601f8201168201806040525081019061207991906132c1565b905061208481612217565b91505092915050565b60007f8b73c3c69bb8fe3d512ecc4cf759cc79239f7b179b0ffacaa9a75d522b39400f7f00000000000000000000000000000000000000000000000000000000000000007f00000000000000000000000000000000000000000000000000000000000000004630604051602001612108959493929190613364565b60405160208183030381529060405280519060200120905090565b60008060007f7fffffffffffffffffffffffffffffff5d576e7357a4501ddfe92f46681b20a08460001c111561216357600060038592509250925061220d565b60006001888888886040516000815260200160405260405161218894939291906133b7565b6020604051602081039080840390855afa1580156121aa573d6000803e3d6000fd5b505050602060405103519050600073ffffffffffffffffffffffffffffffffffffffff168173ffffffffffffffffffffffffffffffffffffffff16036121fe57600060016000801b9350935093505061220d565b8060008060001b935093509350505b9450945094915050565b600060208201519050919050565b6000606083838861223589611dd7565b61223e89611dd7565b6040518463ffffffff1660e01b815260040161225c939291906130f2565b600060405180830381865afa158015612279573d6000803e3d6000fd5b505050506040513d6000823e3d601f19601f820116820180604052508101906122a291906132c1565b90506122ad816123a6565b91505095945050505050565b606060006122c6836123b4565b90506000602067ffffffffffffffff8111156122e5576122e4612812565b5b6040519080825280601f01601f1916602001820160405280156123175781602001600182028036833780820191505090505b5090508181528360208201528092505050919050565b600061233883611aa7565b612349576123466000611172565b92505b61235282611aa7565b612363576123606000611172565b91505b60008390506000839050600061239860028484608073ffffffffffffffffffffffffffffffffffffffff1663eb274b77612225565b905080935050505092915050565b600060208201519050919050565b60008060ff8360001c169050601f8111156123fb576040517fb3512b0c00000000000000000000000000000000000000000000000000000000815260040160405180910390fd5b80915050919050565b600081519050919050565b600082825260208201905092915050565b60005b8381101561243e578082015181840152602081019050612423565b60008484015250505050565b6000601f19601f8301169050919050565b600061246682612404565b612470818561240f565b9350612480818560208601612420565b6124898161244a565b840191505092915050565b600060208201905081810360008301526124ae818461245b565b905092915050565b6000604051905090565b600080fd5b600080fd5b600073ffffffffffffffffffffffffffffffffffffffff82169050919050565b60006124f5826124ca565b9050919050565b612505816124ea565b811461251057600080fd5b50565b600081359050612522816124fc565b92915050565b6000819050919050565b61253b81612528565b811461254657600080fd5b50565b60008135905061255881612532565b92915050565b60008060408385031215612575576125746124c0565b5b600061258385828601612513565b925050602061259485828601612549565b9150509250929050565b60008115159050919050565b6125b38161259e565b82525050565b60006020820190506125ce60008301846125aa565b92915050565b6125dd81612528565b82525050565b60006020820190506125f860008301846125d4565b92915050565b600080600060608486031215612617576126166124c0565b5b600061262586828701612513565b935050602061263686828701612513565b925050604061264786828701612549565b9150509250925092565b600060ff82169050919050565b61266781612651565b82525050565b6000602082019050612682600083018461265e565b92915050565b6000819050919050565b61269b81612688565b82525050565b60006020820190506126b66000830184612692565b92915050565b600080fd5b6000602082840312156126d7576126d66126bc565b5b81905092915050565b600080604083850312156126f7576126f66124c0565b5b600061270585828601612513565b925050602083013567ffffffffffffffff811115612726576127256124c5565b5b612732858286016126c1565b9150509250929050565b6000819050919050565b600061276161275c61275784612528565b61273c565b612528565b9050919050565b61277181612746565b82525050565b600060208201905061278c6000830184612768565b92915050565b6000604082840312156127a8576127a76126bc565b5b81905092915050565b600080604083850312156127c8576127c76124c0565b5b60006127d685828601612513565b925050602083013567ffffffffffffffff8111156127f7576127f66124c5565b5b61280385828601612792565b9150509250929050565b600080fd5b7f4e487b7100000000000000000000000000000000000000000000000000000000600052604160045260246000fd5b61284a8261244a565b810181811067ffffffffffffffff8211171561286957612868612812565b5b80604052505050565b600061287c6124b6565b90506128888282612841565b919050565b600080fd5b61289b81612688565b81146128a657600080fd5b50565b6000813590506128b881612892565b92915050565b600080fd5b600080fd5b600067ffffffffffffffff8211156128e3576128e2612812565b5b6128ec8261244a565b9050602081019050919050565b82818337600083830152505050565b600061291b612916846128c8565b612872565b905082815260208101848484011115612937576129366128c3565b5b6129428482856128f9565b509392505050565b600082601f83011261295f5761295e6128be565b5b813561296f848260208601612908565b91505092915050565b60006040828403121561298e5761298d61280d565b5b6129986040612872565b905060006129a8848285016128a9565b600083015250602082013567ffffffffffffffff8111156129cc576129cb61288d565b5b6129d88482850161294a565b60208301525092915050565b600080604083850312156129fb576129fa6124c0565b5b6000612a0985828601612513565b925050602083013567ffffffffffffffff811115612a2a57612a296124c5565b5b612a3685828601612978565b9150509250929050565b600063ffffffff82169050919050565b612a5981612a40565b8114612a6457600080fd5b50565b600081359050612a7681612a50565b92915050565b600060208284031215612a9257612a916124c0565b5b6000612aa084828501612a67565b91505092915050565b600060208284031215612abf57612abe6124c0565b5b6000612acd84828501612513565b91505092915050565b60007fff0000000000000000000000000000000000000000000000000000000000000082169050919050565b612b0b81612ad6565b82525050565b612b1a816124ea565b82525050565b600081519050919050565b600082825260208201905092915050565b6000819050602082019050919050565b612b5581612528565b82525050565b6000612b678383612b4c565b60208301905092915050565b6000602082019050919050565b6000612b8b82612b20565b612b958185612b2b565b9350612ba083612b3c565b8060005b83811015612bd1578151612bb88882612b5b565b9750612bc383612b73565b925050600181019050612ba4565b5085935050505092915050565b600060e082019050612bf3600083018a612b02565b8181036020830152612c05818961245b565b90508181036040830152612c19818861245b565b9050612c2860608301876125d4565b612c356080830186612b11565b612c4260a0830185612692565b81810360c0830152612c548184612b80565b905098975050505050505050565b600080600060608486031215612c7b57612c7a6124c0565b5b6000612c8986828701612513565b9350506020612c9a86828701612513565b925050604084013567ffffffffffffffff811115612cbb57612cba6124c5565b5b612cc7868287016126c1565b9150509250925092565b612cda81612528565b8114612ce557600080fd5b50565b600081359050612cf781612cd1565b92915050565b600080600060608486031215612d1657612d156124c0565b5b6000612d2486828701612513565b9350506020612d3586828701612513565b9250506040612d4686828701612ce8565b9150509250925092565b60008060408385031215612d6757612d666124c0565b5b6000612d7585828601612513565b9250506020612d8685828601612ce8565b9150509250929050565b612d9981612651565b8114612da457600080fd5b50565b600081359050612db681612d90565b92915050565b600080600080600080600060e0888a031215612ddb57612dda6124c0565b5b6000612de98a828b01612513565b9750506020612dfa8a828b01612513565b9650506040612e0b8a828b01612549565b9550506060612e1c8a828b01612549565b9450506080612e2d8a828b01612da7565b93505060a0612e3e8a828b016128a9565b92505060c0612e4f8a828b016128a9565b91505092959891949750929550565b60008060408385031215612e7557612e746124c0565b5b6000612e8385828601612513565b9250506020612e9485828601612513565b9150509250929050565b7f4e487b7100000000000000000000000000000000000000000000000000000000600052602260045260246000fd5b60006002820490506001821680612ee557607f821691505b602082108103612ef857612ef7612e9e565b5b50919050565b600060208284031215612f1457612f1361280d565b5b612f1e6020612872565b9050600082013567ffffffffffffffff811115612f3e57612f3d61288d565b5b612f4a8482850161294a565b60008301525092915050565b6000612f623683612efe565b9050919050565b6000612f753683612978565b9050919050565b6000604082019050612f916000830185612692565b612f9e6020830184612692565b9392505050565b600081519050919050565b600082825260208201905092915050565b6000612fcc82612fa5565b612fd68185612fb0565b9350612fe6818560208601612420565b612fef8161244a565b840191505092915050565b600060408201905061300f600083018561265e565b81810360208301526130218184612fc1565b90509392505050565b60008151905061303981612532565b92915050565b600060208284031215613055576130546124c0565b5b60006130638482850161302a565b91505092915050565b60006020820190506130816000830184612b11565b92915050565b7f4e487b7100000000000000000000000000000000000000000000000000000000600052602160045260246000fd5b6000819050919050565b6130d16130cc82612688565b6130b6565b82525050565b60006130e382846130c0565b60208201915081905092915050565b6000606082019050613107600083018661265e565b81810360208301526131198185612fc1565b9050818103604083015261312d8184612fc1565b9050949350505050565b600067ffffffffffffffff82111561315257613151612812565b5b61315b8261244a565b9050602081019050919050565b600061317b61317684613137565b612872565b905082815260208101848484011115613197576131966128c3565b5b6131a2848285612420565b509392505050565b600082601f8301126131bf576131be6128be565b5b81516131cf848260208601613168565b91505092915050565b6000602082840312156131ee576131ed6124c0565b5b600082015167ffffffffffffffff81111561320c5761320b6124c5565b5b613218848285016131aa565b91505092915050565b6000604082019050818103600083015261323b8185612fc1565b905061324a602083018461265e565b9392505050565b600061326461325f846128c8565b612872565b9050828152602081018484840111156132805761327f6128c3565b5b61328b848285612420565b509392505050565b600082601f8301126132a8576132a76128be565b5b81516132b8848260208601613251565b91505092915050565b6000602082840312156132d7576132d66124c0565b5b600082015167ffffffffffffffff8111156132f5576132f46124c5565b5b61330184828501613293565b91505092915050565b600060808201905061331f600083018761265e565b81810360208301526133318186612fc1565b905081810360408301526133458185612fc1565b905081810360608301526133598184612fc1565b905095945050505050565b600060a0820190506133796000830188612692565b6133866020830187612692565b6133936040830186612692565b6133a060608301856125d4565b6133ad6080830184612b11565b9695505050505050565b60006080820190506133cc6000830187612692565b6133d9602083018661265e565b6133e66040830185612692565b6133f36060830184612692565b9594505050505056fea26469706673582212206fbeb8e1ec3f02417977449b5aeaa49948b06e45fb35839779a0eb78b912ebec64736f6c63430008180033",
  "devdoc": {
    "errors": {
      "AllowanceOverflow()": [
        {
          "details": "The allowance has overflowed."
        }
      ],
      "AllowanceUnderflow()": [
        {
          "details": "The allowance has underflowed."
        }
      ],
      "ECDSAInvalidSignature()": [
        {
          "details": "The signature derives the `address(0)`."
        }
      ],
      "ECDSAInvalidSignatureLength(uint256)": [
        {
          "details": "The signature has an invalid length."
        }
      ],
      "ECDSAInvalidSignatureS(bytes32)": [
        {
          "details": "The signature has an S value that is in the upper half order."
        }
      ],
      "InsufficientAllowance()": [
        {
          "details": "Insufficient allowance."
        }
      ],
      "InsufficientBalance()": [
        {
          "details": "Insufficient balance."
        }
      ],
      "InvalidPermit()": [
        {
          "details": "The permit is invalid."
        }
      ],
      "PermitExpired()": [
        {
          "details": "The permit has expired."
        }
      ],
      "TotalSupplyOverflow()": [
        {
          "details": "The total supply has overflowed."
        }
      ]
    },
    "events": {
      "Approval(address,address,uint256)": {
        "details": "Emitted when `amount` tokens is approved by `owner` to be used by `spender`."
      },
      "ApprovalEncrypted(address,address)": {
        "details": "Emitted when the allowance of a `spender` for an `owner` is set by a call to {approveEncrypted}. `value` is the new allowance."
      },
      "EIP712DomainChanged()": {
        "details": "MAY be emitted to signal that the domain could have changed."
      },
      "Transfer(address,address,uint256)": {
        "details": "Emitted when `amount` tokens is transferred from `from` to `to`."
      },
      "TransferEncrypted(address,address)": {
        "details": "Emitted when `value` tokens are moved from one account (`from`) to another (`to`). Note that `value` may be zero."
      }
    },
    "kind": "dev",
    "methods": {
      "DOMAIN_SEPARATOR()": {
        "details": "Returns the EIP-712 domain separator for the EIP-2612 permit."
      },
      "allowance(address,address)": {
        "details": "Returns the amount of tokens that `spender` can spend on behalf of `owner`."
      },
      "allowanceEncrypted(address,(bytes32,bytes))": {
        "details": "Returns the remaining number of tokens that `spender` will be allowed to spend on behalf of `owner` through {transferFrom}. This is zero by default. This value changes when {approve} or {transferFrom} are called."
      },
      "approve(address,uint256)": {
        "details": "Sets `amount` as the allowance of `spender` over the caller's tokens. Emits a {Approval} event."
      },
      "approveEncrypted(address,(bytes))": {
        "details": "Sets a `value` amount of tokens as the allowance of `spender` over the caller's tokens. Returns a boolean value indicating whether the operation succeeded. IMPORTANT: Beware that changing an allowance with this method brings the risk that someone may use both the old and the new allowance by unfortunate transaction ordering. One possible solution to mitigate this race condition is to first reduce the spender's allowance to 0 and set the desired value afterwards: https://github.com/ethereum/EIPs/issues/20#issuecomment-263524729 Emits an {ApprovalEncrypted} event."
      },
      "balanceOf(address)": {
        "details": "Returns the amount of tokens owned by `owner`."
      },
      "balanceOfEncrypted(address,(bytes32,bytes))": {
        "details": "Returns the value of tokens owned by `account`, sealed and encrypted for the caller."
      },
      "decimals()": {
        "details": "Returns the decimals places of the token."
      },
      "eip712Domain()": {
        "details": "See {IERC-5267}."
      },
      "name()": {
        "details": "Returns the name of the token."
      },
      "nonces(address)": {
        "details": "Returns the current nonce for `owner`. This value is used to compute the signature for EIP-2612 permit."
      },
      "permit(address,address,uint256,uint256,uint8,bytes32,bytes32)": {
        "details": "Sets `value` as the allowance of `spender` over the tokens of `owner`, authorized by a signed approval by `owner`. Emits a {Approval} event."
      },
      "symbol()": {
        "details": "Returns the symbol of the token."
      },
      "totalSupply()": {
        "details": "Returns the amount of tokens in existence."
      },
      "transfer(address,uint256)": {
        "details": "Transfer `amount` tokens from the caller to `to`. Requirements: - `from` must at least have `amount`. Emits a {Transfer} event."
      },
      "transferFrom(address,address,uint256)": {
        "details": "Transfers `amount` tokens from `from` to `to`. Note: Does not update the allowance if it is the maximum uint256 value. Requirements: - `from` must at least have `amount`. - The caller must have at least `amount` of allowance to transfer the tokens of `from`. Emits a {Transfer} event."
      },
      "transferFromEncrypted(address,address,(bytes))": {
        "details": "Moves a `value` amount of tokens from `from` to `to` using the allowance mechanism. `value` is then deducted from the caller's allowance. Returns a boolean value indicating whether the operation succeeded. Emits a {TransferEncrypted} event."
      }
    },
    "version": 1
  },
  "userdoc": {
    "errors": {
      "SignerNotMessageSender()": [
        {
          "notice": "Emitted when the signer is not the message sender"
        }
      ],
      "SignerNotOwner()": [
        {
          "notice": "Emitted when the signer is not the specified owner"
        }
      ]
    },
    "kind": "user",
    "methods": {},
    "version": 1
  },
  "storageLayout": {
    "storage": [
      {
        "astId": 16568,
        "contract": "contracts/FakeUSD.sol:FakeUSD",
        "label": "_nameFallback",
        "offset": 0,
        "slot": "0",
        "type": "t_string_storage"
      },
      {
        "astId": 16570,
        "contract": "contracts/FakeUSD.sol:FakeUSD",
        "label": "_versionFallback",
        "offset": 0,
        "slot": "1",
        "type": "t_string_storage"
      },
      {
        "astId": 18171,
        "contract": "contracts/FakeUSD.sol:FakeUSD",
        "label": "_encBalances",
        "offset": 0,
        "slot": "2",
        "type": "t_mapping(t_address,t_userDefinedValueType(euint32)12)"
      },
      {
        "astId": 18178,
        "contract": "contracts/FakeUSD.sol:FakeUSD",
        "label": "_allowed",
        "offset": 0,
        "slot": "3",
        "type": "t_mapping(t_address,t_mapping(t_address,t_userDefinedValueType(euint32)12))"
      },
      {
        "astId": 18185,
        "contract": "contracts/FakeUSD.sol:FakeUSD",
        "label": "totalEncryptedSupply",
        "offset": 0,
        "slot": "4",
        "type": "t_userDefinedValueType(euint32)12"
      },
      {
        "astId": 18187,
        "contract": "contracts/FakeUSD.sol:FakeUSD",
        "label": "_name",
        "offset": 0,
        "slot": "5",
        "type": "t_string_storage"
      },
      {
        "astId": 18189,
        "contract": "contracts/FakeUSD.sol:FakeUSD",
        "label": "_symbol",
        "offset": 0,
        "slot": "6",
        "type": "t_string_storage"
      }
    ],
    "types": {
      "t_address": {
        "encoding": "inplace",
        "label": "address",
        "numberOfBytes": "20"
      },
      "t_mapping(t_address,t_mapping(t_address,t_userDefinedValueType(euint32)12))": {
        "encoding": "mapping",
        "key": "t_address",
        "label": "mapping(address => mapping(address => euint32))",
        "numberOfBytes": "32",
        "value": "t_mapping(t_address,t_userDefinedValueType(euint32)12)"
      },
      "t_mapping(t_address,t_userDefinedValueType(euint32)12)": {
        "encoding": "mapping",
        "key": "t_address",
        "label": "mapping(address => euint32)",
        "numberOfBytes": "32",
        "value": "t_userDefinedValueType(euint32)12"
      },
      "t_string_storage": {
        "encoding": "bytes",
        "label": "string",
        "numberOfBytes": "32"
      },
      "t_userDefinedValueType(euint32)12": {
        "encoding": "inplace",
        "label": "euint32",
        "numberOfBytes": "32"
      }
    }
  }
}