{
  "address": "0x5c93e3B7824035B375E373FaC1578D4089dcE77A",
  "abi": [
    {
      "inputs": [
        {
          "components": [
            {
              "internalType": "bytes",
              "name": "data",
              "type": "bytes"
            }
          ],
          "internalType": "struct inEuint32",
          "name": "_initialSupply",
          "type": "tuple"
        }
      ],
      "stateMutability": "nonpayable",
      "type": "constructor"
    },
    {
      "inputs": [],
      "name": "AllowanceOverflow",
      "type": "error"
    },
    {
      "inputs": [],
      "name": "AllowanceUnderflow",
      "type": "error"
    },
    {
      "inputs": [],
      "name": "ECDSAInvalidSignature",
      "type": "error"
    },
    {
      "inputs": [
        {
          "internalType": "uint256",
          "name": "length",
          "type": "uint256"
        }
      ],
      "name": "ECDSAInvalidSignatureLength",
      "type": "error"
    },
    {
      "inputs": [
        {
          "internalType": "bytes32",
          "name": "s",
          "type": "bytes32"
        }
      ],
      "name": "ECDSAInvalidSignatureS",
      "type": "error"
    },
    {
      "inputs": [
        {
          "internalType": "address",
          "name": "",
          "type": "address"
        }
      ],
      "name": "ERC20InvalidApprover",
      "type": "error"
    },
    {
      "inputs": [
        {
          "internalType": "address",
          "name": "",
          "type": "address"
        }
      ],
      "name": "ERC20InvalidSpender",
      "type": "error"
    },
    {
      "inputs": [],
      "name": "ErrorInsufficientFunds",
      "type": "error"
    },
    {
      "inputs": [],
      "name": "InsufficientAllowance",
      "type": "error"
    },
    {
      "inputs": [],
      "name": "InsufficientBalance",
      "type": "error"
    },
    {
      "inputs": [],
      "name": "InvalidPermit",
      "type": "error"
    },
    {
      "inputs": [],
      "name": "InvalidShortString",
      "type": "error"
    },
    {
      "inputs": [],
      "name": "PermitExpired",
      "type": "error"
    },
    {
      "inputs": [],
      "name": "SignerNotMessageSender",
      "type": "error"
    },
    {
      "inputs": [],
      "name": "SignerNotOwner",
      "type": "error"
    },
    {
      "inputs": [
        {
          "internalType": "string",
          "name": "str",
          "type": "string"
        }
      ],
      "name": "StringTooLong",
      "type": "error"
    },
    {
      "inputs": [],
      "name": "TotalSupplyOverflow",
      "type": "error"
    },
    {
      "anonymous": false,
      "inputs": [
        {
          "indexed": true,
          "internalType": "address",
          "name": "owner",
          "type": "address"
        },
        {
          "indexed": true,
          "internalType": "address",
          "name": "spender",
          "type": "address"
        },
        {
          "indexed": false,
          "internalType": "uint256",
          "name": "amount",
          "type": "uint256"
        }
      ],
      "name": "Approval",
      "type": "event"
    },
    {
      "anonymous": false,
      "inputs": [
        {
          "indexed": true,
          "internalType": "address",
          "name": "owner",
          "type": "address"
        },
        {
          "indexed": true,
          "internalType": "address",
          "name": "spender",
          "type": "address"
        }
      ],
      "name": "ApprovalEncrypted",
      "type": "event"
    },
    {
      "anonymous": false,
      "inputs": [],
      "name": "EIP712DomainChanged",
      "type": "event"
    },
    {
      "anonymous": false,
      "inputs": [
        {
          "indexed": true,
          "internalType": "address",
          "name": "from",
          "type": "address"
        },
        {
          "indexed": true,
          "internalType": "address",
          "name": "to",
          "type": "address"
        },
        {
          "indexed": false,
          "internalType": "uint256",
          "name": "amount",
          "type": "uint256"
        }
      ],
      "name": "Transfer",
      "type": "event"
    },
    {
      "anonymous": false,
      "inputs": [
        {
          "indexed": true,
          "internalType": "address",
          "name": "from",
          "type": "address"
        },
        {
          "indexed": true,
          "internalType": "address",
          "name": "to",
          "type": "address"
        }
      ],
      "name": "TransferEncrypted",
      "type": "event"
    },
    {
      "inputs": [],
      "name": "DOMAIN_SEPARATOR",
      "outputs": [
        {
          "internalType": "bytes32",
          "name": "result",
          "type": "bytes32"
        }
      ],
      "stateMutability": "view",
      "type": "function"
    },
    {
      "inputs": [
        {
          "internalType": "address",
          "name": "owner",
          "type": "address"
        },
        {
          "internalType": "address",
          "name": "spender",
          "type": "address"
        }
      ],
      "name": "allowance",
      "outputs": [
        {
          "internalType": "uint256",
          "name": "result",
          "type": "uint256"
        }
      ],
      "stateMutability": "view",
      "type": "function"
    },
    {
      "inputs": [
        {
          "internalType": "address",
          "name": "spender",
          "type": "address"
        },
        {
          "components": [
            {
              "internalType": "bytes32",
              "name": "publicKey",
              "type": "bytes32"
            },
            {
              "internalType": "bytes",
              "name": "signature",
              "type": "bytes"
            }
          ],
          "internalType": "struct Permission",
          "name": "permission",
          "type": "tuple"
        }
      ],
      "name": "allowanceEncrypted",
      "outputs": [
        {
          "internalType": "string",
          "name": "",
          "type": "string"
        }
      ],
      "stateMutability": "view",
      "type": "function"
    },
    {
      "inputs": [
        {
          "internalType": "address",
          "name": "spender",
          "type": "address"
        },
        {
          "internalType": "uint256",
          "name": "amount",
          "type": "uint256"
        }
      ],
      "name": "approve",
      "outputs": [
        {
          "internalType": "bool",
          "name": "",
          "type": "bool"
        }
      ],
      "stateMutability": "nonpayable",
      "type": "function"
    },
    {
      "inputs": [
        {
          "internalType": "address",
          "name": "spender",
          "type": "address"
        },
        {
          "components": [
            {
              "internalType": "bytes",
              "name": "data",
              "type": "bytes"
            }
          ],
          "internalType": "struct inEuint32",
          "name": "value",
          "type": "tuple"
        }
      ],
      "name": "approveEncrypted",
      "outputs": [
        {
          "internalType": "bool",
          "name": "",
          "type": "bool"
        }
      ],
      "stateMutability": "nonpayable",
      "type": "function"
    },
    {
      "inputs": [
        {
          "internalType": "address",
          "name": "owner",
          "type": "address"
        }
      ],
      "name": "balanceOf",
      "outputs": [
        {
          "internalType": "uint256",
          "name": "result",
          "type": "uint256"
        }
      ],
      "stateMutability": "view",
      "type": "function"
    },
    {
      "inputs": [
        {
          "internalType": "address",
          "name": "account",
          "type": "address"
        },
        {
          "components": [
            {
              "internalType": "bytes32",
              "name": "publicKey",
              "type": "bytes32"
            },
            {
              "internalType": "bytes",
              "name": "signature",
              "type": "bytes"
            }
          ],
          "internalType": "struct Permission",
          "name": "auth",
          "type": "tuple"
        }
      ],
      "name": "balanceOfEncrypted",
      "outputs": [
        {
          "internalType": "string",
          "name": "",
          "type": "string"
        }
      ],
      "stateMutability": "view",
      "type": "function"
    },
    {
      "inputs": [],
      "name": "decimals",
      "outputs": [
        {
          "internalType": "uint8",
          "name": "",
          "type": "uint8"
        }
      ],
      "stateMutability": "pure",
      "type": "function"
    },
    {
      "inputs": [],
      "name": "eip712Domain",
      "outputs": [
        {
          "internalType": "bytes1",
          "name": "fields",
          "type": "bytes1"
        },
        {
          "internalType": "string",
          "name": "name",
          "type": "string"
        },
        {
          "internalType": "string",
          "name": "version",
          "type": "string"
        },
        {
          "internalType": "uint256",
          "name": "chainId",
          "type": "uint256"
        },
        {
          "internalType": "address",
          "name": "verifyingContract",
          "type": "address"
        },
        {
          "internalType": "bytes32",
          "name": "salt",
          "type": "bytes32"
        },
        {
          "internalType": "uint256[]",
          "name": "extensions",
          "type": "uint256[]"
        }
      ],
      "stateMutability": "view",
      "type": "function"
    },
    {
      "inputs": [],
      "name": "name",
      "outputs": [
        {
          "internalType": "string",
          "name": "",
          "type": "string"
        }
      ],
      "stateMutability": "view",
      "type": "function"
    },
    {
      "inputs": [
        {
          "internalType": "address",
          "name": "owner",
          "type": "address"
        }
      ],
      "name": "nonces",
      "outputs": [
        {
          "internalType": "uint256",
          "name": "result",
          "type": "uint256"
        }
      ],
      "stateMutability": "view",
      "type": "function"
    },
    {
      "inputs": [
        {
          "internalType": "address",
          "name": "owner",
          "type": "address"
        },
        {
          "internalType": "address",
          "name": "spender",
          "type": "address"
        },
        {
          "internalType": "uint256",
          "name": "value",
          "type": "uint256"
        },
        {
          "internalType": "uint256",
          "name": "deadline",
          "type": "uint256"
        },
        {
          "internalType": "uint8",
          "name": "v",
          "type": "uint8"
        },
        {
          "internalType": "bytes32",
          "name": "r",
          "type": "bytes32"
        },
        {
          "internalType": "bytes32",
          "name": "s",
          "type": "bytes32"
        }
      ],
      "name": "permit",
      "outputs": [],
      "stateMutability": "nonpayable",
      "type": "function"
    },
    {
      "inputs": [],
      "name": "symbol",
      "outputs": [
        {
          "internalType": "string",
          "name": "",
          "type": "string"
        }
      ],
      "stateMutability": "view",
      "type": "function"
    },
    {
      "inputs": [],
      "name": "totalSupply",
      "outputs": [
        {
          "internalType": "uint256",
          "name": "result",
          "type": "uint256"
        }
      ],
      "stateMutability": "view",
      "type": "function"
    },
    {
      "inputs": [
        {
          "internalType": "address",
          "name": "to",
          "type": "address"
        },
        {
          "internalType": "uint256",
          "name": "amount",
          "type": "uint256"
        }
      ],
      "name": "transfer",
      "outputs": [
        {
          "internalType": "bool",
          "name": "",
          "type": "bool"
        }
      ],
      "stateMutability": "nonpayable",
      "type": "function"
    },
    {
      "inputs": [
        {
          "internalType": "address",
          "name": "to",
          "type": "address"
        },
        {
          "components": [
            {
              "internalType": "bytes",
              "name": "data",
              "type": "bytes"
            }
          ],
          "internalType": "struct inEuint32",
          "name": "encryptedAmount",
          "type": "tuple"
        }
      ],
      "name": "transferEncrypted",
      "outputs": [
        {
          "internalType": "euint32",
          "name": "",
          "type": "uint256"
        }
      ],
      "stateMutability": "nonpayable",
      "type": "function"
    },
    {
      "inputs": [
        {
          "internalType": "address",
          "name": "to",
          "type": "address"
        },
        {
          "internalType": "euint32",
          "name": "amount",
          "type": "uint256"
        }
      ],
      "name": "transferEncrypted",
      "outputs": [
        {
          "internalType": "euint32",
          "name": "",
          "type": "uint256"
        }
      ],
      "stateMutability": "nonpayable",
      "type": "function"
    },
    {
      "inputs": [
        {
          "internalType": "address",
          "name": "from",
          "type": "address"
        },
        {
          "internalType": "address",
          "name": "to",
          "type": "address"
        },
        {
          "internalType": "uint256",
          "name": "amount",
          "type": "uint256"
        }
      ],
      "name": "transferFrom",
      "outputs": [
        {
          "internalType": "bool",
          "name": "",
          "type": "bool"
        }
      ],
      "stateMutability": "nonpayable",
      "type": "function"
    },
    {
      "inputs": [
        {
          "internalType": "address",
          "name": "from",
          "type": "address"
        },
        {
          "internalType": "address",
          "name": "to",
          "type": "address"
        },
        {
          "components": [
            {
              "internalType": "bytes",
              "name": "data",
              "type": "bytes"
            }
          ],
          "internalType": "struct inEuint32",
          "name": "value",
          "type": "tuple"
        }
      ],
      "name": "transferFromEncrypted",
      "outputs": [
        {
          "internalType": "euint32",
          "name": "",
          "type": "uint256"
        }
      ],
      "stateMutability": "nonpayable",
      "type": "function"
    },
    {
      "inputs": [
        {
          "internalType": "address",
          "name": "from",
          "type": "address"
        },
        {
          "internalType": "address",
          "name": "to",
          "type": "address"
        },
        {
          "internalType": "euint32",
          "name": "value",
          "type": "uint256"
        }
      ],
      "name": "transferFromEncrypted",
      "outputs": [
        {
          "internalType": "euint32",
          "name": "",
          "type": "uint256"
        }
      ],
      "stateMutability": "nonpayable",
      "type": "function"
    },
    {
      "inputs": [
        {
          "internalType": "uint32",
          "name": "amount",
          "type": "uint32"
        }
      ],
      "name": "unwrap",
      "outputs": [],
      "stateMutability": "nonpayable",
      "type": "function"
    },
    {
      "inputs": [
        {
          "internalType": "uint32",
          "name": "amount",
          "type": "uint32"
        }
      ],
      "name": "wrap",
      "outputs": [],
      "stateMutability": "nonpayable",
      "type": "function"
    }
  ],
  "transactionHash": "0xda1aa55a290a94445f6c4769b4cf925f83a5d56afed2e0c9f3851b74c08ca0c1",
  "args": [
    {
      "data": {
        "0": 16,
        "1": 8,
        "2": 0,
        "3": 0,
        "4": 0,
        "5": 0,
        "6": 0,
        "7": 0,
        "8": 229,
        "9": 170,
        "10": 166,
        "11": 246,
        "12": 145,
        "13": 235,
        "14": 19,
        "15": 39,
        "16": 229,
        "17": 229,
        "18": 157,
        "19": 235,
        "20": 231,
        "21": 102,
        "22": 10,
        "23": 246,
        "24": 143,
        "25": 205,
        "26": 165,
        "27": 245,
        "28": 188,
        "29": 233,
        "30": 205,
        "31": 205,
        "32": 255,
        "33": 233,
        "34": 83,
        "35": 5,
        "36": 48,
        "37": 160,
        "38": 240,
        "39": 8,
        "40": 68,
        "41": 45,
        "42": 11,
        "43": 109,
        "44": 246,
        "45": 51,
        "46": 222,
        "47": 21,
        "48": 238,
        "49": 238,
        "50": 85,
        "51": 153,
        "52": 102,
        "53": 12,
        "54": 71,
        "55": 205,
        "56": 177,
        "57": 34,
        "58": 133,
        "59": 109,
        "60": 180,
        "61": 149,
        "62": 217,
        "63": 99,
        "64": 90,
        "65": 116,
        "66": 238,
        "67": 176,
        "68": 214,
        "69": 153,
        "70": 250,
        "71": 204,
        "72": 7,
        "73": 234,
        "74": 112,
        "75": 40,
        "76": 39,
        "77": 163,
        "78": 195,
        "79": 127,
        "80": 206,
        "81": 166,
        "82": 22,
        "83": 202,
        "84": 77,
        "85": 15,
        "86": 24,
        "87": 105,
        "88": 114,
        "89": 231,
        "90": 140,
        "91": 9,
        "92": 12,
        "93": 41,
        "94": 208,
        "95": 71,
        "96": 159,
        "97": 174,
        "98": 172,
        "99": 104,
        "100": 2,
        "101": 157,
        "102": 116,
        "103": 88,
        "104": 95,
        "105": 35,
        "106": 217,
        "107": 200,
        "108": 119,
        "109": 245,
        "110": 148,
        "111": 13,
        "112": 153,
        "113": 252,
        "114": 241,
        "115": 213,
        "116": 131,
        "117": 55,
        "118": 194,
        "119": 68,
        "120": 6,
        "121": 68,
        "122": 168,
        "123": 103,
        "124": 105,
        "125": 7,
        "126": 247,
        "127": 82,
        "128": 47,
        "129": 200,
        "130": 20,
        "131": 18,
        "132": 48,
        "133": 250,
        "134": 33,
        "135": 115,
        "136": 112,
        "137": 85,
        "138": 188,
        "139": 69,
        "140": 62,
        "141": 118,
        "142": 29,
        "143": 199,
        "144": 48,
        "145": 141,
        "146": 186,
        "147": 80,
        "148": 95,
        "149": 94,
        "150": 87,
        "151": 233,
        "152": 143,
        "153": 160,
        "154": 145,
        "155": 98,
        "156": 172,
        "157": 239,
        "158": 86,
        "159": 5,
        "160": 139,
        "161": 147,
        "162": 197,
        "163": 230,
        "164": 70,
        "165": 33,
        "166": 55,
        "167": 47,
        "168": 229,
        "169": 140,
        "170": 172,
        "171": 47,
        "172": 112,
        "173": 71,
        "174": 214,
        "175": 114,
        "176": 226,
        "177": 160,
        "178": 186,
        "179": 53,
        "180": 65,
        "181": 172,
        "182": 137,
        "183": 244,
        "184": 90,
        "185": 148,
        "186": 105,
        "187": 44,
        "188": 101,
        "189": 20,
        "190": 163,
        "191": 201,
        "192": 222,
        "193": 164,
        "194": 56,
        "195": 53,
        "196": 53,
        "197": 216,
        "198": 81,
        "199": 70,
        "200": 168,
        "201": 96,
        "202": 149,
        "203": 88,
        "204": 254,
        "205": 95,
        "206": 16,
        "207": 32,
        "208": 253,
        "209": 58,
        "210": 70,
        "211": 115,
        "212": 185,
        "213": 215,
        "214": 66,
        "215": 171,
        "216": 25,
        "217": 116,
        "218": 7,
        "219": 81,
        "220": 58,
        "221": 11,
        "222": 150,
        "223": 31,
        "224": 251,
        "225": 0,
        "226": 127,
        "227": 188,
        "228": 87,
        "229": 237,
        "230": 70,
        "231": 76,
        "232": 36,
        "233": 21,
        "234": 51,
        "235": 56,
        "236": 89,
        "237": 106,
        "238": 247,
        "239": 131,
        "240": 179,
        "241": 222,
        "242": 217,
        "243": 169,
        "244": 231,
        "245": 189,
        "246": 55,
        "247": 71,
        "248": 0,
        "249": 84,
        "250": 20,
        "251": 28,
        "252": 99,
        "253": 120,
        "254": 108,
        "255": 211,
        "256": 118,
        "257": 114,
        "258": 80,
        "259": 116,
        "260": 119,
        "261": 16,
        "262": 30,
        "263": 118,
        "264": 142,
        "265": 131,
        "266": 41,
        "267": 60,
        "268": 112,
        "269": 248,
        "270": 187,
        "271": 59,
        "272": 210,
        "273": 9,
        "274": 180,
        "275": 1,
        "276": 29,
        "277": 90,
        "278": 205,
        "279": 107,
        "280": 130,
        "281": 151,
        "282": 102,
        "283": 149,
        "284": 192,
        "285": 168,
        "286": 72,
        "287": 17,
        "288": 0,
        "289": 198,
        "290": 188,
        "291": 209,
        "292": 96,
        "293": 47,
        "294": 99,
        "295": 28,
        "296": 221,
        "297": 181,
        "298": 83,
        "299": 44,
        "300": 233,
        "301": 9,
        "302": 65,
        "303": 203,
        "304": 60,
        "305": 141,
        "306": 1,
        "307": 231,
        "308": 17,
        "309": 65,
        "310": 125,
        "311": 239,
        "312": 233,
        "313": 204,
        "314": 217,
        "315": 87,
        "316": 124,
        "317": 132,
        "318": 112,
        "319": 116,
        "320": 252,
        "321": 165,
        "322": 189,
        "323": 126,
        "324": 84,
        "325": 237,
        "326": 131,
        "327": 90,
        "328": 76,
        "329": 143,
        "330": 132,
        "331": 217,
        "332": 131,
        "333": 245,
        "334": 231,
        "335": 82,
        "336": 38,
        "337": 80,
        "338": 4,
        "339": 205,
        "340": 129,
        "341": 9,
        "342": 237,
        "343": 135,
        "344": 2,
        "345": 152,
        "346": 35,
        "347": 27,
        "348": 76,
        "349": 63,
        "350": 38,
        "351": 98,
        "352": 129,
        "353": 104,
        "354": 205,
        "355": 201,
        "356": 150,
        "357": 53,
        "358": 91,
        "359": 211,
        "360": 225,
        "361": 197,
        "362": 127,
        "363": 150,
        "364": 75,
        "365": 16,
        "366": 241,
        "367": 8,
        "368": 179,
        "369": 237,
        "370": 39,
        "371": 208,
        "372": 115,
        "373": 204,
        "374": 242,
        "375": 151,
        "376": 226,
        "377": 64,
        "378": 223,
        "379": 170,
        "380": 217,
        "381": 248,
        "382": 10,
        "383": 73,
        "384": 28,
        "385": 168,
        "386": 195,
        "387": 194,
        "388": 63,
        "389": 82,
        "390": 110,
        "391": 85,
        "392": 74,
        "393": 44,
        "394": 248,
        "395": 140,
        "396": 37,
        "397": 25,
        "398": 9,
        "399": 175,
        "400": 107,
        "401": 45,
        "402": 218,
        "403": 216,
        "404": 215,
        "405": 169,
        "406": 106,
        "407": 127,
        "408": 184,
        "409": 191,
        "410": 103,
        "411": 180,
        "412": 249,
        "413": 79,
        "414": 35,
        "415": 232,
        "416": 170,
        "417": 83,
        "418": 252,
        "419": 6,
        "420": 255,
        "421": 127,
        "422": 111,
        "423": 2,
        "424": 167,
        "425": 165,
        "426": 145,
        "427": 85,
        "428": 121,
        "429": 15,
        "430": 29,
        "431": 112,
        "432": 39,
        "433": 77,
        "434": 156,
        "435": 26,
        "436": 38,
        "437": 135,
        "438": 222,
        "439": 175,
        "440": 162,
        "441": 75,
        "442": 233,
        "443": 23,
        "444": 12,
        "445": 196,
        "446": 91,
        "447": 78,
        "448": 232,
        "449": 80,
        "450": 100,
        "451": 117,
        "452": 135,
        "453": 105,
        "454": 218,
        "455": 185,
        "456": 208,
        "457": 65,
        "458": 223,
        "459": 7,
        "460": 213,
        "461": 129,
        "462": 131,
        "463": 84,
        "464": 252,
        "465": 185,
        "466": 123,
        "467": 177,
        "468": 12,
        "469": 151,
        "470": 45,
        "471": 188,
        "472": 185,
        "473": 156,
        "474": 48,
        "475": 57,
        "476": 204,
        "477": 90,
        "478": 120,
        "479": 248,
        "480": 50,
        "481": 74,
        "482": 218,
        "483": 47,
        "484": 253,
        "485": 91,
        "486": 180,
        "487": 249,
        "488": 155,
        "489": 255,
        "490": 14,
        "491": 137,
        "492": 121,
        "493": 37,
        "494": 94,
        "495": 208,
        "496": 224,
        "497": 250,
        "498": 59,
        "499": 55,
        "500": 11,
        "501": 10,
        "502": 37,
        "503": 150,
        "504": 166,
        "505": 133,
        "506": 132,
        "507": 81,
        "508": 75,
        "509": 182,
        "510": 168,
        "511": 221,
        "512": 236,
        "513": 210,
        "514": 69,
        "515": 231,
        "516": 145,
        "517": 171,
        "518": 201,
        "519": 144,
        "520": 180,
        "521": 214,
        "522": 16,
        "523": 41,
        "524": 141,
        "525": 213,
        "526": 195,
        "527": 97,
        "528": 110,
        "529": 203,
        "530": 134,
        "531": 212,
        "532": 255,
        "533": 195,
        "534": 224,
        "535": 32,
        "536": 53,
        "537": 180,
        "538": 182,
        "539": 78,
        "540": 87,
        "541": 236,
        "542": 62,
        "543": 212,
        "544": 65,
        "545": 121,
        "546": 12,
        "547": 227,
        "548": 103,
        "549": 246,
        "550": 56,
        "551": 74,
        "552": 117,
        "553": 158,
        "554": 109,
        "555": 46,
        "556": 85,
        "557": 104,
        "558": 116,
        "559": 52,
        "560": 40,
        "561": 158,
        "562": 43,
        "563": 48,
        "564": 246,
        "565": 103,
        "566": 1,
        "567": 225,
        "568": 75,
        "569": 221,
        "570": 74,
        "571": 17,
        "572": 119,
        "573": 158,
        "574": 114,
        "575": 193,
        "576": 220,
        "577": 145,
        "578": 194,
        "579": 169,
        "580": 43,
        "581": 42,
        "582": 15,
        "583": 214,
        "584": 143,
        "585": 148,
        "586": 255,
        "587": 157,
        "588": 45,
        "589": 99,
        "590": 56,
        "591": 60,
        "592": 156,
        "593": 245,
        "594": 243,
        "595": 250,
        "596": 77,
        "597": 3,
        "598": 98,
        "599": 114,
        "600": 101,
        "601": 245,
        "602": 181,
        "603": 49,
        "604": 128,
        "605": 105,
        "606": 107,
        "607": 122,
        "608": 234,
        "609": 201,
        "610": 207,
        "611": 92,
        "612": 249,
        "613": 209,
        "614": 225,
        "615": 49,
        "616": 110,
        "617": 79,
        "618": 225,
        "619": 83,
        "620": 139,
        "621": 150,
        "622": 56,
        "623": 128,
        "624": 217,
        "625": 140,
        "626": 102,
        "627": 206,
        "628": 87,
        "629": 147,
        "630": 152,
        "631": 16,
        "632": 64,
        "633": 49,
        "634": 45,
        "635": 178,
        "636": 154,
        "637": 132,
        "638": 96,
        "639": 129,
        "640": 94,
        "641": 158,
        "642": 64,
        "643": 15,
        "644": 120,
        "645": 247,
        "646": 136,
        "647": 148,
        "648": 74,
        "649": 116,
        "650": 111,
        "651": 212,
        "652": 52,
        "653": 116,
        "654": 195,
        "655": 15,
        "656": 2,
        "657": 253,
        "658": 80,
        "659": 218,
        "660": 71,
        "661": 204,
        "662": 100,
        "663": 221,
        "664": 234,
        "665": 244,
        "666": 59,
        "667": 184,
        "668": 138,
        "669": 81,
        "670": 249,
        "671": 57,
        "672": 109,
        "673": 47,
        "674": 76,
        "675": 170,
        "676": 7,
        "677": 41,
        "678": 114,
        "679": 231,
        "680": 68,
        "681": 178,
        "682": 14,
        "683": 240,
        "684": 247,
        "685": 76,
        "686": 38,
        "687": 35,
        "688": 51,
        "689": 219,
        "690": 245,
        "691": 242,
        "692": 211,
        "693": 253,
        "694": 67,
        "695": 196,
        "696": 251,
        "697": 189,
        "698": 209,
        "699": 182,
        "700": 103,
        "701": 57,
        "702": 112,
        "703": 3,
        "704": 210,
        "705": 226,
        "706": 58,
        "707": 197,
        "708": 136,
        "709": 206,
        "710": 46,
        "711": 63,
        "712": 122,
        "713": 24,
        "714": 177,
        "715": 164,
        "716": 41,
        "717": 235,
        "718": 6,
        "719": 209,
        "720": 117,
        "721": 60,
        "722": 77,
        "723": 66,
        "724": 242,
        "725": 138,
        "726": 226,
        "727": 91,
        "728": 152,
        "729": 61,
        "730": 214,
        "731": 221,
        "732": 194,
        "733": 144,
        "734": 191,
        "735": 0,
        "736": 107,
        "737": 143,
        "738": 80,
        "739": 39,
        "740": 127,
        "741": 90,
        "742": 122,
        "743": 136,
        "744": 214,
        "745": 122,
        "746": 228,
        "747": 201,
        "748": 54,
        "749": 37,
        "750": 182,
        "751": 52,
        "752": 59,
        "753": 167,
        "754": 67,
        "755": 52,
        "756": 133,
        "757": 188,
        "758": 120,
        "759": 93,
        "760": 20,
        "761": 126,
        "762": 229,
        "763": 66,
        "764": 116,
        "765": 192,
        "766": 208,
        "767": 24,
        "768": 166,
        "769": 202,
        "770": 63,
        "771": 183,
        "772": 86,
        "773": 118,
        "774": 249,
        "775": 34,
        "776": 151,
        "777": 225,
        "778": 233,
        "779": 25,
        "780": 216,
        "781": 175,
        "782": 27,
        "783": 89,
        "784": 130,
        "785": 105,
        "786": 153,
        "787": 251,
        "788": 81,
        "789": 26,
        "790": 142,
        "791": 179,
        "792": 77,
        "793": 126,
        "794": 238,
        "795": 163,
        "796": 17,
        "797": 232,
        "798": 76,
        "799": 110,
        "800": 14,
        "801": 120,
        "802": 51,
        "803": 69,
        "804": 255,
        "805": 224,
        "806": 163,
        "807": 137,
        "808": 35,
        "809": 220,
        "810": 68,
        "811": 249,
        "812": 183,
        "813": 74,
        "814": 49,
        "815": 230,
        "816": 135,
        "817": 15,
        "818": 41,
        "819": 61,
        "820": 79,
        "821": 15,
        "822": 111,
        "823": 11,
        "824": 136,
        "825": 159,
        "826": 255,
        "827": 2,
        "828": 66,
        "829": 1,
        "830": 239,
        "831": 85,
        "832": 80,
        "833": 169,
        "834": 42,
        "835": 126,
        "836": 183,
        "837": 190,
        "838": 198,
        "839": 141,
        "840": 145,
        "841": 103,
        "842": 151,
        "843": 86,
        "844": 127,
        "845": 138,
        "846": 165,
        "847": 242,
        "848": 167,
        "849": 195,
        "850": 190,
        "851": 43,
        "852": 115,
        "853": 142,
        "854": 38,
        "855": 170,
        "856": 203,
        "857": 143,
        "858": 106,
        "859": 51,
        "860": 247,
        "861": 220,
        "862": 7,
        "863": 215,
        "864": 47,
        "865": 49,
        "866": 139,
        "867": 170,
        "868": 115,
        "869": 145,
        "870": 214,
        "871": 209,
        "872": 224,
        "873": 40,
        "874": 130,
        "875": 144,
        "876": 68,
        "877": 10,
        "878": 251,
        "879": 5,
        "880": 151,
        "881": 227,
        "882": 154,
        "883": 98,
        "884": 14,
        "885": 180,
        "886": 140,
        "887": 196,
        "888": 128,
        "889": 237,
        "890": 23,
        "891": 242,
        "892": 142,
        "893": 230,
        "894": 21,
        "895": 235,
        "896": 82,
        "897": 72,
        "898": 98,
        "899": 201,
        "900": 195,
        "901": 8,
        "902": 29,
        "903": 79,
        "904": 31,
        "905": 175,
        "906": 168,
        "907": 80,
        "908": 70,
        "909": 218,
        "910": 142,
        "911": 17,
        "912": 225,
        "913": 39,
        "914": 89,
        "915": 44,
        "916": 130,
        "917": 87,
        "918": 202,
        "919": 235,
        "920": 211,
        "921": 5,
        "922": 187,
        "923": 155,
        "924": 197,
        "925": 20,
        "926": 66,
        "927": 238,
        "928": 210,
        "929": 229,
        "930": 127,
        "931": 170,
        "932": 27,
        "933": 112,
        "934": 9,
        "935": 112,
        "936": 86,
        "937": 177,
        "938": 175,
        "939": 68,
        "940": 22,
        "941": 207,
        "942": 237,
        "943": 22,
        "944": 53,
        "945": 98,
        "946": 129,
        "947": 210,
        "948": 33,
        "949": 1,
        "950": 201,
        "951": 105,
        "952": 174,
        "953": 118,
        "954": 230,
        "955": 139,
        "956": 72,
        "957": 203,
        "958": 161,
        "959": 114,
        "960": 127,
        "961": 107,
        "962": 60,
        "963": 142,
        "964": 53,
        "965": 47,
        "966": 127,
        "967": 119,
        "968": 35,
        "969": 38,
        "970": 70,
        "971": 250,
        "972": 177,
        "973": 248,
        "974": 122,
        "975": 41,
        "976": 75,
        "977": 81,
        "978": 130,
        "979": 215,
        "980": 200,
        "981": 215,
        "982": 188,
        "983": 73,
        "984": 247,
        "985": 132,
        "986": 58,
        "987": 86,
        "988": 76,
        "989": 199,
        "990": 194,
        "991": 105,
        "992": 85,
        "993": 184,
        "994": 7,
        "995": 176,
        "996": 205,
        "997": 247,
        "998": 250,
        "999": 75,
        "1000": 247,
        "1001": 138,
        "1002": 147,
        "1003": 74,
        "1004": 174,
        "1005": 196,
        "1006": 187,
        "1007": 75,
        "1008": 26,
        "1009": 15,
        "1010": 254,
        "1011": 76,
        "1012": 135,
        "1013": 177,
        "1014": 6,
        "1015": 207,
        "1016": 22,
        "1017": 153,
        "1018": 140,
        "1019": 200,
        "1020": 195,
        "1021": 148,
        "1022": 97,
        "1023": 126,
        "1024": 255,
        "1025": 45,
        "1026": 17,
        "1027": 176,
        "1028": 117,
        "1029": 104,
        "1030": 197,
        "1031": 105,
        "1032": 171,
        "1033": 194,
        "1034": 185,
        "1035": 119,
        "1036": 136,
        "1037": 12,
        "1038": 19,
        "1039": 52,
        "1040": 82,
        "1041": 142,
        "1042": 14,
        "1043": 175,
        "1044": 121,
        "1045": 182,
        "1046": 41,
        "1047": 41,
        "1048": 87,
        "1049": 144,
        "1050": 99,
        "1051": 139,
        "1052": 152,
        "1053": 93,
        "1054": 86,
        "1055": 54,
        "1056": 71,
        "1057": 142,
        "1058": 69,
        "1059": 224,
        "1060": 255,
        "1061": 60,
        "1062": 211,
        "1063": 55,
        "1064": 25,
        "1065": 28,
        "1066": 203,
        "1067": 145,
        "1068": 18,
        "1069": 237,
        "1070": 238,
        "1071": 23,
        "1072": 78,
        "1073": 208,
        "1074": 247,
        "1075": 37,
        "1076": 167,
        "1077": 61,
        "1078": 8,
        "1079": 156,
        "1080": 218,
        "1081": 122,
        "1082": 42,
        "1083": 96,
        "1084": 27,
        "1085": 155,
        "1086": 177,
        "1087": 224,
        "1088": 147,
        "1089": 123,
        "1090": 190,
        "1091": 99,
        "1092": 121,
        "1093": 206,
        "1094": 6,
        "1095": 221,
        "1096": 21,
        "1097": 189,
        "1098": 93,
        "1099": 157,
        "1100": 76,
        "1101": 115,
        "1102": 185,
        "1103": 67,
        "1104": 133,
        "1105": 40,
        "1106": 100,
        "1107": 233,
        "1108": 231,
        "1109": 5,
        "1110": 55,
        "1111": 48,
        "1112": 178,
        "1113": 145,
        "1114": 25,
        "1115": 67,
        "1116": 202,
        "1117": 44,
        "1118": 36,
        "1119": 91,
        "1120": 188,
        "1121": 145,
        "1122": 248,
        "1123": 0,
        "1124": 131,
        "1125": 152,
        "1126": 113,
        "1127": 247,
        "1128": 55,
        "1129": 107,
        "1130": 164,
        "1131": 186,
        "1132": 11,
        "1133": 254,
        "1134": 2,
        "1135": 227,
        "1136": 84,
        "1137": 183,
        "1138": 76,
        "1139": 54,
        "1140": 172,
        "1141": 154,
        "1142": 104,
        "1143": 101,
        "1144": 63,
        "1145": 24,
        "1146": 5,
        "1147": 57,
        "1148": 67,
        "1149": 110,
        "1150": 157,
        "1151": 88,
        "1152": 88,
        "1153": 179,
        "1154": 241,
        "1155": 34,
        "1156": 111,
        "1157": 119,
        "1158": 238,
        "1159": 80,
        "1160": 165,
        "1161": 166,
        "1162": 168,
        "1163": 28,
        "1164": 237,
        "1165": 248,
        "1166": 163,
        "1167": 196,
        "1168": 48,
        "1169": 143,
        "1170": 111,
        "1171": 236,
        "1172": 56,
        "1173": 222,
        "1174": 136,
        "1175": 175,
        "1176": 164,
        "1177": 141,
        "1178": 64,
        "1179": 104,
        "1180": 59,
        "1181": 64,
        "1182": 120,
        "1183": 26,
        "1184": 45,
        "1185": 165,
        "1186": 168,
        "1187": 177,
        "1188": 91,
        "1189": 31,
        "1190": 135,
        "1191": 42,
        "1192": 18,
        "1193": 110,
        "1194": 136,
        "1195": 27,
        "1196": 195,
        "1197": 66,
        "1198": 244,
        "1199": 160,
        "1200": 23,
        "1201": 125,
        "1202": 81,
        "1203": 45,
        "1204": 83,
        "1205": 253,
        "1206": 132,
        "1207": 136,
        "1208": 96,
        "1209": 43,
        "1210": 133,
        "1211": 17,
        "1212": 32,
        "1213": 255,
        "1214": 20,
        "1215": 9,
        "1216": 30,
        "1217": 63,
        "1218": 55,
        "1219": 115,
        "1220": 196,
        "1221": 237,
        "1222": 105,
        "1223": 84,
        "1224": 46,
        "1225": 40,
        "1226": 179,
        "1227": 178,
        "1228": 43,
        "1229": 246,
        "1230": 65,
        "1231": 109,
        "1232": 247,
        "1233": 106,
        "1234": 20,
        "1235": 180,
        "1236": 47,
        "1237": 147,
        "1238": 204,
        "1239": 116,
        "1240": 127,
        "1241": 75,
        "1242": 102,
        "1243": 113,
        "1244": 179,
        "1245": 14,
        "1246": 2,
        "1247": 6,
        "1248": 173,
        "1249": 165,
        "1250": 164,
        "1251": 200,
        "1252": 215,
        "1253": 37,
        "1254": 176,
        "1255": 244,
        "1256": 123,
        "1257": 65,
        "1258": 6,
        "1259": 34,
        "1260": 161,
        "1261": 188,
        "1262": 121,
        "1263": 127,
        "1264": 161,
        "1265": 221,
        "1266": 134,
        "1267": 236,
        "1268": 99,
        "1269": 13,
        "1270": 238,
        "1271": 194,
        "1272": 181,
        "1273": 236,
        "1274": 108,
        "1275": 112,
        "1276": 89,
        "1277": 90,
        "1278": 136,
        "1279": 122,
        "1280": 99,
        "1281": 29,
        "1282": 60,
        "1283": 67,
        "1284": 196,
        "1285": 107,
        "1286": 188,
        "1287": 64,
        "1288": 77,
        "1289": 192,
        "1290": 254,
        "1291": 88,
        "1292": 176,
        "1293": 28,
        "1294": 152,
        "1295": 46,
        "1296": 190,
        "1297": 112,
        "1298": 129,
        "1299": 235,
        "1300": 94,
        "1301": 193,
        "1302": 238,
        "1303": 106,
        "1304": 98,
        "1305": 238,
        "1306": 211,
        "1307": 225,
        "1308": 5,
        "1309": 132,
        "1310": 50,
        "1311": 210,
        "1312": 182,
        "1313": 84,
        "1314": 46,
        "1315": 254,
        "1316": 176,
        "1317": 41,
        "1318": 153,
        "1319": 162,
        "1320": 63,
        "1321": 202,
        "1322": 83,
        "1323": 84,
        "1324": 232,
        "1325": 45,
        "1326": 64,
        "1327": 167,
        "1328": 169,
        "1329": 197,
        "1330": 57,
        "1331": 170,
        "1332": 61,
        "1333": 125,
        "1334": 244,
        "1335": 22,
        "1336": 191,
        "1337": 213,
        "1338": 252,
        "1339": 161,
        "1340": 72,
        "1341": 200,
        "1342": 111,
        "1343": 8,
        "1344": 74,
        "1345": 72,
        "1346": 13,
        "1347": 231,
        "1348": 247,
        "1349": 234,
        "1350": 9,
        "1351": 162,
        "1352": 245,
        "1353": 81,
        "1354": 54,
        "1355": 11,
        "1356": 226,
        "1357": 6,
        "1358": 119,
        "1359": 179,
        "1360": 60,
        "1361": 62,
        "1362": 175,
        "1363": 28,
        "1364": 16,
        "1365": 134,
        "1366": 183,
        "1367": 203,
        "1368": 41,
        "1369": 223,
        "1370": 211,
        "1371": 47,
        "1372": 68,
        "1373": 90,
        "1374": 250,
        "1375": 175,
        "1376": 250,
        "1377": 190,
        "1378": 99,
        "1379": 184,
        "1380": 172,
        "1381": 120,
        "1382": 117,
        "1383": 206,
        "1384": 157,
        "1385": 162,
        "1386": 100,
        "1387": 119,
        "1388": 36,
        "1389": 72,
        "1390": 12,
        "1391": 2,
        "1392": 54,
        "1393": 112,
        "1394": 183,
        "1395": 31,
        "1396": 109,
        "1397": 244,
        "1398": 76,
        "1399": 147,
        "1400": 218,
        "1401": 212,
        "1402": 30,
        "1403": 150,
        "1404": 149,
        "1405": 255,
        "1406": 236,
        "1407": 87,
        "1408": 249,
        "1409": 83,
        "1410": 196,
        "1411": 211,
        "1412": 58,
        "1413": 58,
        "1414": 216,
        "1415": 100,
        "1416": 113,
        "1417": 112,
        "1418": 31,
        "1419": 38,
        "1420": 230,
        "1421": 135,
        "1422": 182,
        "1423": 217,
        "1424": 229,
        "1425": 128,
        "1426": 21,
        "1427": 163,
        "1428": 183,
        "1429": 59,
        "1430": 235,
        "1431": 150,
        "1432": 34,
        "1433": 181,
        "1434": 98,
        "1435": 156,
        "1436": 231,
        "1437": 173,
        "1438": 185,
        "1439": 185,
        "1440": 65,
        "1441": 190,
        "1442": 220,
        "1443": 148,
        "1444": 108,
        "1445": 44,
        "1446": 38,
        "1447": 156,
        "1448": 191,
        "1449": 141,
        "1450": 45,
        "1451": 63,
        "1452": 223,
        "1453": 40,
        "1454": 149,
        "1455": 65,
        "1456": 56,
        "1457": 247,
        "1458": 38,
        "1459": 124,
        "1460": 240,
        "1461": 19,
        "1462": 223,
        "1463": 116,
        "1464": 250,
        "1465": 45,
        "1466": 8,
        "1467": 217,
        "1468": 142,
        "1469": 38,
        "1470": 251,
        "1471": 11,
        "1472": 113,
        "1473": 126,
        "1474": 4,
        "1475": 130,
        "1476": 7,
        "1477": 115,
        "1478": 233,
        "1479": 56,
        "1480": 107,
        "1481": 104,
        "1482": 215,
        "1483": 86,
        "1484": 75,
        "1485": 193,
        "1486": 255,
        "1487": 140,
        "1488": 73,
        "1489": 54,
        "1490": 179,
        "1491": 250,
        "1492": 90,
        "1493": 176,
        "1494": 27,
        "1495": 174,
        "1496": 218,
        "1497": 222,
        "1498": 71,
        "1499": 137,
        "1500": 50,
        "1501": 182,
        "1502": 113,
        "1503": 211,
        "1504": 145,
        "1505": 57,
        "1506": 51,
        "1507": 77,
        "1508": 194,
        "1509": 165,
        "1510": 192,
        "1511": 154,
        "1512": 179,
        "1513": 15,
        "1514": 31,
        "1515": 50,
        "1516": 20,
        "1517": 169,
        "1518": 246,
        "1519": 235,
        "1520": 213,
        "1521": 107,
        "1522": 205,
        "1523": 161,
        "1524": 133,
        "1525": 129,
        "1526": 187,
        "1527": 235,
        "1528": 157,
        "1529": 139,
        "1530": 208,
        "1531": 80,
        "1532": 96,
        "1533": 171,
        "1534": 13,
        "1535": 84,
        "1536": 232,
        "1537": 134,
        "1538": 215,
        "1539": 163,
        "1540": 99,
        "1541": 209,
        "1542": 143,
        "1543": 100,
        "1544": 239,
        "1545": 225,
        "1546": 143,
        "1547": 130,
        "1548": 67,
        "1549": 73,
        "1550": 66,
        "1551": 150,
        "1552": 64,
        "1553": 168,
        "1554": 108,
        "1555": 250,
        "1556": 80,
        "1557": 254,
        "1558": 103,
        "1559": 64,
        "1560": 246,
        "1561": 177,
        "1562": 77,
        "1563": 236,
        "1564": 236,
        "1565": 133,
        "1566": 101,
        "1567": 127,
        "1568": 186,
        "1569": 190,
        "1570": 25,
        "1571": 189,
        "1572": 131,
        "1573": 53,
        "1574": 30,
        "1575": 85,
        "1576": 218,
        "1577": 131,
        "1578": 49,
        "1579": 3,
        "1580": 156,
        "1581": 125,
        "1582": 204,
        "1583": 19,
        "1584": 93,
        "1585": 173,
        "1586": 129,
        "1587": 72,
        "1588": 196,
        "1589": 90,
        "1590": 55,
        "1591": 14,
        "1592": 42,
        "1593": 62,
        "1594": 221,
        "1595": 100,
        "1596": 203,
        "1597": 93,
        "1598": 106,
        "1599": 4,
        "1600": 235,
        "1601": 173,
        "1602": 53,
        "1603": 3,
        "1604": 110,
        "1605": 85,
        "1606": 76,
        "1607": 132,
        "1608": 65,
        "1609": 11,
        "1610": 245,
        "1611": 126,
        "1612": 251,
        "1613": 109,
        "1614": 54,
        "1615": 231,
        "1616": 50,
        "1617": 211,
        "1618": 246,
        "1619": 116,
        "1620": 37,
        "1621": 68,
        "1622": 182,
        "1623": 21,
        "1624": 122,
        "1625": 136,
        "1626": 106,
        "1627": 134,
        "1628": 243,
        "1629": 229,
        "1630": 117,
        "1631": 201,
        "1632": 89,
        "1633": 66,
        "1634": 116,
        "1635": 107,
        "1636": 216,
        "1637": 72,
        "1638": 228,
        "1639": 35,
        "1640": 86,
        "1641": 120,
        "1642": 13,
        "1643": 138,
        "1644": 218,
        "1645": 106,
        "1646": 152,
        "1647": 143,
        "1648": 244,
        "1649": 218,
        "1650": 135,
        "1651": 116,
        "1652": 204,
        "1653": 8,
        "1654": 249,
        "1655": 88,
        "1656": 189,
        "1657": 181,
        "1658": 60,
        "1659": 46,
        "1660": 213,
        "1661": 135,
        "1662": 29,
        "1663": 123,
        "1664": 110,
        "1665": 250,
        "1666": 213,
        "1667": 197,
        "1668": 24,
        "1669": 198,
        "1670": 91,
        "1671": 62,
        "1672": 190,
        "1673": 112,
        "1674": 219,
        "1675": 142,
        "1676": 135,
        "1677": 211,
        "1678": 114,
        "1679": 110,
        "1680": 238,
        "1681": 226,
        "1682": 47,
        "1683": 18,
        "1684": 108,
        "1685": 5,
        "1686": 100,
        "1687": 118,
        "1688": 152,
        "1689": 230,
        "1690": 220,
        "1691": 14,
        "1692": 50,
        "1693": 222,
        "1694": 54,
        "1695": 210,
        "1696": 140,
        "1697": 190,
        "1698": 180,
        "1699": 53,
        "1700": 54,
        "1701": 51,
        "1702": 19,
        "1703": 152,
        "1704": 139,
        "1705": 20,
        "1706": 159,
        "1707": 204,
        "1708": 217,
        "1709": 0,
        "1710": 114,
        "1711": 195,
        "1712": 147,
        "1713": 39,
        "1714": 34,
        "1715": 170,
        "1716": 151,
        "1717": 115,
        "1718": 66,
        "1719": 8,
        "1720": 4,
        "1721": 245,
        "1722": 168,
        "1723": 189,
        "1724": 214,
        "1725": 217,
        "1726": 86,
        "1727": 72,
        "1728": 155,
        "1729": 119,
        "1730": 106,
        "1731": 112,
        "1732": 242,
        "1733": 44,
        "1734": 76,
        "1735": 121,
        "1736": 54,
        "1737": 57,
        "1738": 254,
        "1739": 26,
        "1740": 118,
        "1741": 212,
        "1742": 92,
        "1743": 66,
        "1744": 3,
        "1745": 238,
        "1746": 179,
        "1747": 160,
        "1748": 128,
        "1749": 0,
        "1750": 157,
        "1751": 202,
        "1752": 200,
        "1753": 134,
        "1754": 244,
        "1755": 247,
        "1756": 232,
        "1757": 103,
        "1758": 213,
        "1759": 112,
        "1760": 8,
        "1761": 146,
        "1762": 128,
        "1763": 215,
        "1764": 196,
        "1765": 187,
        "1766": 67,
        "1767": 203,
        "1768": 220,
        "1769": 49,
        "1770": 61,
        "1771": 187,
        "1772": 228,
        "1773": 59,
        "1774": 93,
        "1775": 58,
        "1776": 230,
        "1777": 99,
        "1778": 123,
        "1779": 92,
        "1780": 210,
        "1781": 24,
        "1782": 84,
        "1783": 78,
        "1784": 74,
        "1785": 56,
        "1786": 186,
        "1787": 123,
        "1788": 11,
        "1789": 51,
        "1790": 89,
        "1791": 44,
        "1792": 205,
        "1793": 246,
        "1794": 241,
        "1795": 220,
        "1796": 46,
        "1797": 208,
        "1798": 168,
        "1799": 14,
        "1800": 110,
        "1801": 164,
        "1802": 69,
        "1803": 244,
        "1804": 180,
        "1805": 114,
        "1806": 77,
        "1807": 49,
        "1808": 242,
        "1809": 114,
        "1810": 123,
        "1811": 112,
        "1812": 67,
        "1813": 2,
        "1814": 26,
        "1815": 190,
        "1816": 50,
        "1817": 82,
        "1818": 8,
        "1819": 83,
        "1820": 72,
        "1821": 194,
        "1822": 150,
        "1823": 227,
        "1824": 209,
        "1825": 9,
        "1826": 166,
        "1827": 142,
        "1828": 229,
        "1829": 255,
        "1830": 254,
        "1831": 137,
        "1832": 14,
        "1833": 222,
        "1834": 19,
        "1835": 76,
        "1836": 30,
        "1837": 23,
        "1838": 225,
        "1839": 40,
        "1840": 130,
        "1841": 115,
        "1842": 218,
        "1843": 9,
        "1844": 159,
        "1845": 242,
        "1846": 31,
        "1847": 154,
        "1848": 207,
        "1849": 30,
        "1850": 253,
        "1851": 2,
        "1852": 49,
        "1853": 174,
        "1854": 59,
        "1855": 170,
        "1856": 229,
        "1857": 191,
        "1858": 188,
        "1859": 76,
        "1860": 201,
        "1861": 14,
        "1862": 241,
        "1863": 33,
        "1864": 237,
        "1865": 47,
        "1866": 122,
        "1867": 234,
        "1868": 44,
        "1869": 158,
        "1870": 80,
        "1871": 9,
        "1872": 103,
        "1873": 81,
        "1874": 242,
        "1875": 216,
        "1876": 26,
        "1877": 149,
        "1878": 70,
        "1879": 7,
        "1880": 98,
        "1881": 139,
        "1882": 80,
        "1883": 238,
        "1884": 192,
        "1885": 187,
        "1886": 172,
        "1887": 144,
        "1888": 250,
        "1889": 249,
        "1890": 111,
        "1891": 215,
        "1892": 108,
        "1893": 50,
        "1894": 222,
        "1895": 118,
        "1896": 151,
        "1897": 11,
        "1898": 38,
        "1899": 87,
        "1900": 126,
        "1901": 19,
        "1902": 49,
        "1903": 25,
        "1904": 170,
        "1905": 214,
        "1906": 139,
        "1907": 132,
        "1908": 67,
        "1909": 180,
        "1910": 110,
        "1911": 40,
        "1912": 10,
        "1913": 54,
        "1914": 193,
        "1915": 195,
        "1916": 9,
        "1917": 255,
        "1918": 157,
        "1919": 152,
        "1920": 1,
        "1921": 34,
        "1922": 191,
        "1923": 92,
        "1924": 193,
        "1925": 79,
        "1926": 166,
        "1927": 117,
        "1928": 197,
        "1929": 25,
        "1930": 105,
        "1931": 187,
        "1932": 212,
        "1933": 15,
        "1934": 9,
        "1935": 187,
        "1936": 144,
        "1937": 175,
        "1938": 57,
        "1939": 154,
        "1940": 106,
        "1941": 96,
        "1942": 44,
        "1943": 69,
        "1944": 131,
        "1945": 251,
        "1946": 2,
        "1947": 135,
        "1948": 194,
        "1949": 208,
        "1950": 91,
        "1951": 51,
        "1952": 161,
        "1953": 189,
        "1954": 251,
        "1955": 160,
        "1956": 167,
        "1957": 138,
        "1958": 239,
        "1959": 67,
        "1960": 64,
        "1961": 146,
        "1962": 105,
        "1963": 255,
        "1964": 213,
        "1965": 209,
        "1966": 157,
        "1967": 58,
        "1968": 246,
        "1969": 9,
        "1970": 13,
        "1971": 190,
        "1972": 96,
        "1973": 254,
        "1974": 43,
        "1975": 102,
        "1976": 201,
        "1977": 53,
        "1978": 35,
        "1979": 9,
        "1980": 64,
        "1981": 197,
        "1982": 242,
        "1983": 40,
        "1984": 77,
        "1985": 6,
        "1986": 30,
        "1987": 250,
        "1988": 153,
        "1989": 141,
        "1990": 222,
        "1991": 57,
        "1992": 46,
        "1993": 225,
        "1994": 21,
        "1995": 31,
        "1996": 61,
        "1997": 203,
        "1998": 155,
        "1999": 85,
        "2000": 192,
        "2001": 238,
        "2002": 69,
        "2003": 91,
        "2004": 157,
        "2005": 178,
        "2006": 238,
        "2007": 243,
        "2008": 237,
        "2009": 122,
        "2010": 245,
        "2011": 32,
        "2012": 217,
        "2013": 68,
        "2014": 155,
        "2015": 65,
        "2016": 159,
        "2017": 78,
        "2018": 64,
        "2019": 66,
        "2020": 43,
        "2021": 213,
        "2022": 90,
        "2023": 62,
        "2024": 36,
        "2025": 125,
        "2026": 205,
        "2027": 167,
        "2028": 184,
        "2029": 37,
        "2030": 233,
        "2031": 231,
        "2032": 103,
        "2033": 181,
        "2034": 59,
        "2035": 14,
        "2036": 40,
        "2037": 34,
        "2038": 176,
        "2039": 126,
        "2040": 234,
        "2041": 30,
        "2042": 210,
        "2043": 10,
        "2044": 229,
        "2045": 39,
        "2046": 186,
        "2047": 159,
        "2048": 185,
        "2049": 92,
        "2050": 154,
        "2051": 155,
        "2052": 55,
        "2053": 29,
        "2054": 130,
        "2055": 87,
        "2056": 21,
        "2057": 1,
        "2058": 187,
        "2059": 33,
        "2060": 119,
        "2061": 81,
        "2062": 97,
        "2063": 146,
        "2064": 109,
        "2065": 241,
        "2066": 214,
        "2067": 220,
        "2068": 82,
        "2069": 79,
        "2070": 156,
        "2071": 29,
        "2072": 43,
        "2073": 209,
        "2074": 205,
        "2075": 226,
        "2076": 190,
        "2077": 61,
        "2078": 203,
        "2079": 222,
        "2080": 36,
        "2081": 243,
        "2082": 147,
        "2083": 51,
        "2084": 154,
        "2085": 161,
        "2086": 77,
        "2087": 197,
        "2088": 142,
        "2089": 67,
        "2090": 8,
        "2091": 186,
        "2092": 71,
        "2093": 198,
        "2094": 89,
        "2095": 246,
        "2096": 172,
        "2097": 142,
        "2098": 73,
        "2099": 213,
        "2100": 140,
        "2101": 53,
        "2102": 246,
        "2103": 81,
        "2104": 181,
        "2105": 136,
        "2106": 27,
        "2107": 30,
        "2108": 101,
        "2109": 10,
        "2110": 40,
        "2111": 161,
        "2112": 140,
        "2113": 143,
        "2114": 219,
        "2115": 6,
        "2116": 157,
        "2117": 215,
        "2118": 102,
        "2119": 16,
        "2120": 195,
        "2121": 253,
        "2122": 188,
        "2123": 141,
        "2124": 50,
        "2125": 192,
        "2126": 139,
        "2127": 222,
        "2128": 69,
        "2129": 6,
        "2130": 100,
        "2131": 133,
        "2132": 1,
        "2133": 121,
        "2134": 30,
        "2135": 177,
        "2136": 64,
        "2137": 225,
        "2138": 26,
        "2139": 222,
        "2140": 180,
        "2141": 248,
        "2142": 48,
        "2143": 9,
        "2144": 44,
        "2145": 81,
        "2146": 57,
        "2147": 170,
        "2148": 174,
        "2149": 179,
        "2150": 163,
        "2151": 174,
        "2152": 239,
        "2153": 165,
        "2154": 50,
        "2155": 38,
        "2156": 190,
        "2157": 31,
        "2158": 86,
        "2159": 158,
        "2160": 91,
        "2161": 220,
        "2162": 241,
        "2163": 123,
        "2164": 237,
        "2165": 62,
        "2166": 203,
        "2167": 243,
        "2168": 59,
        "2169": 120,
        "2170": 115,
        "2171": 226,
        "2172": 97,
        "2173": 233,
        "2174": 226,
        "2175": 192,
        "2176": 217,
        "2177": 89,
        "2178": 86,
        "2179": 97,
        "2180": 66,
        "2181": 245,
        "2182": 238,
        "2183": 147,
        "2184": 30,
        "2185": 60,
        "2186": 27,
        "2187": 11,
        "2188": 179,
        "2189": 122,
        "2190": 129,
        "2191": 145,
        "2192": 107,
        "2193": 244,
        "2194": 122,
        "2195": 52,
        "2196": 172,
        "2197": 193,
        "2198": 37,
        "2199": 176,
        "2200": 234,
        "2201": 16,
        "2202": 204,
        "2203": 122,
        "2204": 209,
        "2205": 254,
        "2206": 152,
        "2207": 163,
        "2208": 130,
        "2209": 183,
        "2210": 139,
        "2211": 131,
        "2212": 40,
        "2213": 72,
        "2214": 163,
        "2215": 239,
        "2216": 119,
        "2217": 136,
        "2218": 16,
        "2219": 221,
        "2220": 40,
        "2221": 25,
        "2222": 38,
        "2223": 47,
        "2224": 253,
        "2225": 91,
        "2226": 116,
        "2227": 21,
        "2228": 109,
        "2229": 183,
        "2230": 220,
        "2231": 44,
        "2232": 21,
        "2233": 169,
        "2234": 59,
        "2235": 93,
        "2236": 23,
        "2237": 221,
        "2238": 177,
        "2239": 55,
        "2240": 240,
        "2241": 186,
        "2242": 57,
        "2243": 180,
        "2244": 149,
        "2245": 130,
        "2246": 81,
        "2247": 249,
        "2248": 252,
        "2249": 4,
        "2250": 66,
        "2251": 122,
        "2252": 124,
        "2253": 67,
        "2254": 13,
        "2255": 157,
        "2256": 225,
        "2257": 186,
        "2258": 241,
        "2259": 227,
        "2260": 36,
        "2261": 186,
        "2262": 101,
        "2263": 111,
        "2264": 69,
        "2265": 54,
        "2266": 101,
        "2267": 209,
        "2268": 53,
        "2269": 92,
        "2270": 123,
        "2271": 48,
        "2272": 130,
        "2273": 114,
        "2274": 186,
        "2275": 232,
        "2276": 222,
        "2277": 187,
        "2278": 173,
        "2279": 149,
        "2280": 171,
        "2281": 90,
        "2282": 249,
        "2283": 39,
        "2284": 197,
        "2285": 189,
        "2286": 160,
        "2287": 104,
        "2288": 195,
        "2289": 159,
        "2290": 240,
        "2291": 92,
        "2292": 79,
        "2293": 248,
        "2294": 15,
        "2295": 9,
        "2296": 197,
        "2297": 133,
        "2298": 2,
        "2299": 220,
        "2300": 251,
        "2301": 165,
        "2302": 238,
        "2303": 99,
        "2304": 87,
        "2305": 130,
        "2306": 123,
        "2307": 223,
        "2308": 124,
        "2309": 242,
        "2310": 208,
        "2311": 101,
        "2312": 0,
        "2313": 22,
        "2314": 191,
        "2315": 207,
        "2316": 181,
        "2317": 129,
        "2318": 205,
        "2319": 138,
        "2320": 209,
        "2321": 161,
        "2322": 166,
        "2323": 242,
        "2324": 17,
        "2325": 120,
        "2326": 238,
        "2327": 50,
        "2328": 82,
        "2329": 54,
        "2330": 4,
        "2331": 249,
        "2332": 214,
        "2333": 179,
        "2334": 149,
        "2335": 131,
        "2336": 138,
        "2337": 30,
        "2338": 145,
        "2339": 73,
        "2340": 213,
        "2341": 211,
        "2342": 251,
        "2343": 147,
        "2344": 49,
        "2345": 192,
        "2346": 17,
        "2347": 149,
        "2348": 19,
        "2349": 20,
        "2350": 24,
        "2351": 229,
        "2352": 54,
        "2353": 200,
        "2354": 234,
        "2355": 169,
        "2356": 238,
        "2357": 42,
        "2358": 52,
        "2359": 39,
        "2360": 62,
        "2361": 121,
        "2362": 245,
        "2363": 2,
        "2364": 176,
        "2365": 103,
        "2366": 107,
        "2367": 53,
        "2368": 148,
        "2369": 129,
        "2370": 118,
        "2371": 217,
        "2372": 89,
        "2373": 36,
        "2374": 223,
        "2375": 170,
        "2376": 34,
        "2377": 29,
        "2378": 50,
        "2379": 118,
        "2380": 31,
        "2381": 75,
        "2382": 234,
        "2383": 45,
        "2384": 219,
        "2385": 7,
        "2386": 196,
        "2387": 176,
        "2388": 96,
        "2389": 246,
        "2390": 254,
        "2391": 26,
        "2392": 11,
        "2393": 148,
        "2394": 145,
        "2395": 10,
        "2396": 163,
        "2397": 235,
        "2398": 64,
        "2399": 23,
        "2400": 162,
        "2401": 116,
        "2402": 20,
        "2403": 172,
        "2404": 29,
        "2405": 153,
        "2406": 151,
        "2407": 77,
        "2408": 220,
        "2409": 99,
        "2410": 152,
        "2411": 208,
        "2412": 20,
        "2413": 91,
        "2414": 131,
        "2415": 221,
        "2416": 55,
        "2417": 153,
        "2418": 185,
        "2419": 116,
        "2420": 187,
        "2421": 145,
        "2422": 82,
        "2423": 1,
        "2424": 243,
        "2425": 213,
        "2426": 137,
        "2427": 47,
        "2428": 236,
        "2429": 17,
        "2430": 35,
        "2431": 24,
        "2432": 113,
        "2433": 181,
        "2434": 38,
        "2435": 0,
        "2436": 144,
        "2437": 233,
        "2438": 54,
        "2439": 42,
        "2440": 57,
        "2441": 82,
        "2442": 18,
        "2443": 119,
        "2444": 142,
        "2445": 90,
        "2446": 114,
        "2447": 33,
        "2448": 126,
        "2449": 201,
        "2450": 129,
        "2451": 6,
        "2452": 47,
        "2453": 242,
        "2454": 38,
        "2455": 87,
        "2456": 210,
        "2457": 192,
        "2458": 208,
        "2459": 152,
        "2460": 232,
        "2461": 237,
        "2462": 165,
        "2463": 176,
        "2464": 194,
        "2465": 39,
        "2466": 193,
        "2467": 176,
        "2468": 57,
        "2469": 121,
        "2470": 202,
        "2471": 97,
        "2472": 225,
        "2473": 159,
        "2474": 239,
        "2475": 43,
        "2476": 102,
        "2477": 211,
        "2478": 62,
        "2479": 99,
        "2480": 85,
        "2481": 101,
        "2482": 7,
        "2483": 197,
        "2484": 169,
        "2485": 91,
        "2486": 160,
        "2487": 21,
        "2488": 169,
        "2489": 57,
        "2490": 255,
        "2491": 107,
        "2492": 126,
        "2493": 155,
        "2494": 242,
        "2495": 123,
        "2496": 77,
        "2497": 133,
        "2498": 164,
        "2499": 114,
        "2500": 9,
        "2501": 217,
        "2502": 87,
        "2503": 96,
        "2504": 144,
        "2505": 9,
        "2506": 182,
        "2507": 150,
        "2508": 137,
        "2509": 124,
        "2510": 68,
        "2511": 95,
        "2512": 164,
        "2513": 196,
        "2514": 49,
        "2515": 66,
        "2516": 191,
        "2517": 78,
        "2518": 5,
        "2519": 15,
        "2520": 223,
        "2521": 29,
        "2522": 186,
        "2523": 250,
        "2524": 177,
        "2525": 33,
        "2526": 254,
        "2527": 105,
        "2528": 75,
        "2529": 26,
        "2530": 69,
        "2531": 133,
        "2532": 142,
        "2533": 129,
        "2534": 172,
        "2535": 30,
        "2536": 236,
        "2537": 166,
        "2538": 152,
        "2539": 62,
        "2540": 119,
        "2541": 233,
        "2542": 152,
        "2543": 203,
        "2544": 220,
        "2545": 69,
        "2546": 126,
        "2547": 243,
        "2548": 44,
        "2549": 58,
        "2550": 11,
        "2551": 68,
        "2552": 193,
        "2553": 18,
        "2554": 235,
        "2555": 144,
        "2556": 248,
        "2557": 196,
        "2558": 29,
        "2559": 228,
        "2560": 125,
        "2561": 101,
        "2562": 73,
        "2563": 217,
        "2564": 241,
        "2565": 112,
        "2566": 83,
        "2567": 160,
        "2568": 216,
        "2569": 166,
        "2570": 250,
        "2571": 20,
        "2572": 85,
        "2573": 211,
        "2574": 235,
        "2575": 28,
        "2576": 15,
        "2577": 17,
        "2578": 4,
        "2579": 249,
        "2580": 98,
        "2581": 38,
        "2582": 84,
        "2583": 47,
        "2584": 104,
        "2585": 220,
        "2586": 99,
        "2587": 46,
        "2588": 97,
        "2589": 81,
        "2590": 133,
        "2591": 104,
        "2592": 88,
        "2593": 182,
        "2594": 145,
        "2595": 24,
        "2596": 244,
        "2597": 121,
        "2598": 35,
        "2599": 174,
        "2600": 176,
        "2601": 112,
        "2602": 236,
        "2603": 153,
        "2604": 164,
        "2605": 224,
        "2606": 130,
        "2607": 243,
        "2608": 200,
        "2609": 202,
        "2610": 85,
        "2611": 110,
        "2612": 104,
        "2613": 38,
        "2614": 11,
        "2615": 0,
        "2616": 249,
        "2617": 123,
        "2618": 4,
        "2619": 100,
        "2620": 30,
        "2621": 184,
        "2622": 117,
        "2623": 244,
        "2624": 144,
        "2625": 214,
        "2626": 242,
        "2627": 63,
        "2628": 116,
        "2629": 112,
        "2630": 172,
        "2631": 194,
        "2632": 128,
        "2633": 124,
        "2634": 26,
        "2635": 119,
        "2636": 91,
        "2637": 11,
        "2638": 254,
        "2639": 250,
        "2640": 69,
        "2641": 11,
        "2642": 166,
        "2643": 39,
        "2644": 72,
        "2645": 244,
        "2646": 24,
        "2647": 251,
        "2648": 248,
        "2649": 177,
        "2650": 191,
        "2651": 204,
        "2652": 16,
        "2653": 26,
        "2654": 150,
        "2655": 16,
        "2656": 20,
        "2657": 249,
        "2658": 117,
        "2659": 176,
        "2660": 33,
        "2661": 14,
        "2662": 16,
        "2663": 25,
        "2664": 227,
        "2665": 42,
        "2666": 0,
        "2667": 196,
        "2668": 217,
        "2669": 62,
        "2670": 224,
        "2671": 204,
        "2672": 107,
        "2673": 109,
        "2674": 172,
        "2675": 159,
        "2676": 138,
        "2677": 160,
        "2678": 106,
        "2679": 227,
        "2680": 149,
        "2681": 68,
        "2682": 125,
        "2683": 23,
        "2684": 254,
        "2685": 169,
        "2686": 5,
        "2687": 12,
        "2688": 90,
        "2689": 192,
        "2690": 227,
        "2691": 41,
        "2692": 155,
        "2693": 121,
        "2694": 173,
        "2695": 68,
        "2696": 28,
        "2697": 179,
        "2698": 60,
        "2699": 1,
        "2700": 65,
        "2701": 165,
        "2702": 58,
        "2703": 231,
        "2704": 109,
        "2705": 39,
        "2706": 4,
        "2707": 177,
        "2708": 108,
        "2709": 77,
        "2710": 214,
        "2711": 87,
        "2712": 180,
        "2713": 50,
        "2714": 85,
        "2715": 191,
        "2716": 172,
        "2717": 88,
        "2718": 250,
        "2719": 27,
        "2720": 29,
        "2721": 83,
        "2722": 94,
        "2723": 196,
        "2724": 251,
        "2725": 10,
        "2726": 105,
        "2727": 216,
        "2728": 240,
        "2729": 221,
        "2730": 170,
        "2731": 173,
        "2732": 250,
        "2733": 5,
        "2734": 16,
        "2735": 134,
        "2736": 199,
        "2737": 176,
        "2738": 30,
        "2739": 76,
        "2740": 148,
        "2741": 21,
        "2742": 245,
        "2743": 53,
        "2744": 4,
        "2745": 107,
        "2746": 145,
        "2747": 91,
        "2748": 182,
        "2749": 230,
        "2750": 248,
        "2751": 28,
        "2752": 147,
        "2753": 227,
        "2754": 169,
        "2755": 6,
        "2756": 46,
        "2757": 196,
        "2758": 60,
        "2759": 110,
        "2760": 253,
        "2761": 248,
        "2762": 197,
        "2763": 118,
        "2764": 209,
        "2765": 194,
        "2766": 249,
        "2767": 163,
        "2768": 96,
        "2769": 155,
        "2770": 53,
        "2771": 30,
        "2772": 144,
        "2773": 86,
        "2774": 38,
        "2775": 37,
        "2776": 166,
        "2777": 4,
        "2778": 241,
        "2779": 143,
        "2780": 66,
        "2781": 15,
        "2782": 35,
        "2783": 164,
        "2784": 195,
        "2785": 51,
        "2786": 228,
        "2787": 162,
        "2788": 167,
        "2789": 248,
        "2790": 27,
        "2791": 59,
        "2792": 202,
        "2793": 58,
        "2794": 104,
        "2795": 205,
        "2796": 84,
        "2797": 247,
        "2798": 81,
        "2799": 109,
        "2800": 137,
        "2801": 35,
        "2802": 72,
        "2803": 73,
        "2804": 99,
        "2805": 137,
        "2806": 22,
        "2807": 160,
        "2808": 66,
        "2809": 65,
        "2810": 203,
        "2811": 168,
        "2812": 43,
        "2813": 51,
        "2814": 210,
        "2815": 222,
        "2816": 3,
        "2817": 125,
        "2818": 109,
        "2819": 14,
        "2820": 121,
        "2821": 114,
        "2822": 127,
        "2823": 198,
        "2824": 127,
        "2825": 85,
        "2826": 28,
        "2827": 11,
        "2828": 191,
        "2829": 150,
        "2830": 138,
        "2831": 98,
        "2832": 82,
        "2833": 199,
        "2834": 133,
        "2835": 217,
        "2836": 172,
        "2837": 232,
        "2838": 66,
        "2839": 21,
        "2840": 165,
        "2841": 108,
        "2842": 207,
        "2843": 204,
        "2844": 60,
        "2845": 188,
        "2846": 130,
        "2847": 103,
        "2848": 110,
        "2849": 252,
        "2850": 54,
        "2851": 169,
        "2852": 80,
        "2853": 101,
        "2854": 119,
        "2855": 21,
        "2856": 191,
        "2857": 215,
        "2858": 132,
        "2859": 59,
        "2860": 13,
        "2861": 205,
        "2862": 30,
        "2863": 152,
        "2864": 47,
        "2865": 251,
        "2866": 236,
        "2867": 100,
        "2868": 211,
        "2869": 252,
        "2870": 218,
        "2871": 227,
        "2872": 252,
        "2873": 4,
        "2874": 70,
        "2875": 62,
        "2876": 157,
        "2877": 105,
        "2878": 60,
        "2879": 85,
        "2880": 225,
        "2881": 135,
        "2882": 148,
        "2883": 79,
        "2884": 191,
        "2885": 60,
        "2886": 118,
        "2887": 197,
        "2888": 251,
        "2889": 193,
        "2890": 93,
        "2891": 124,
        "2892": 15,
        "2893": 41,
        "2894": 189,
        "2895": 166,
        "2896": 47,
        "2897": 121,
        "2898": 197,
        "2899": 105,
        "2900": 219,
        "2901": 246,
        "2902": 107,
        "2903": 66,
        "2904": 191,
        "2905": 186,
        "2906": 116,
        "2907": 255,
        "2908": 142,
        "2909": 167,
        "2910": 0,
        "2911": 113,
        "2912": 26,
        "2913": 62,
        "2914": 58,
        "2915": 251,
        "2916": 167,
        "2917": 192,
        "2918": 242,
        "2919": 118,
        "2920": 134,
        "2921": 133,
        "2922": 168,
        "2923": 104,
        "2924": 223,
        "2925": 246,
        "2926": 84,
        "2927": 114,
        "2928": 77,
        "2929": 55,
        "2930": 247,
        "2931": 219,
        "2932": 151,
        "2933": 158,
        "2934": 62,
        "2935": 101,
        "2936": 50,
        "2937": 23,
        "2938": 254,
        "2939": 253,
        "2940": 100,
        "2941": 84,
        "2942": 100,
        "2943": 155,
        "2944": 180,
        "2945": 96,
        "2946": 248,
        "2947": 34,
        "2948": 188,
        "2949": 161,
        "2950": 39,
        "2951": 152,
        "2952": 233,
        "2953": 233,
        "2954": 18,
        "2955": 118,
        "2956": 219,
        "2957": 165,
        "2958": 166,
        "2959": 122,
        "2960": 14,
        "2961": 217,
        "2962": 138,
        "2963": 93,
        "2964": 6,
        "2965": 252,
        "2966": 233,
        "2967": 86,
        "2968": 66,
        "2969": 74,
        "2970": 125,
        "2971": 167,
        "2972": 23,
        "2973": 25,
        "2974": 62,
        "2975": 113,
        "2976": 127,
        "2977": 63,
        "2978": 38,
        "2979": 209,
        "2980": 43,
        "2981": 46,
        "2982": 240,
        "2983": 236,
        "2984": 234,
        "2985": 132,
        "2986": 32,
        "2987": 40,
        "2988": 59,
        "2989": 52,
        "2990": 234,
        "2991": 182,
        "2992": 77,
        "2993": 125,
        "2994": 241,
        "2995": 60,
        "2996": 147,
        "2997": 23,
        "2998": 102,
        "2999": 130,
        "3000": 194,
        "3001": 48,
        "3002": 246,
        "3003": 17,
        "3004": 184,
        "3005": 81,
        "3006": 19,
        "3007": 11,
        "3008": 194,
        "3009": 118,
        "3010": 136,
        "3011": 114,
        "3012": 162,
        "3013": 50,
        "3014": 76,
        "3015": 223,
        "3016": 104,
        "3017": 248,
        "3018": 245,
        "3019": 212,
        "3020": 166,
        "3021": 173,
        "3022": 252,
        "3023": 94,
        "3024": 104,
        "3025": 214,
        "3026": 50,
        "3027": 62,
        "3028": 235,
        "3029": 21,
        "3030": 192,
        "3031": 45,
        "3032": 84,
        "3033": 38,
        "3034": 88,
        "3035": 118,
        "3036": 11,
        "3037": 104,
        "3038": 56,
        "3039": 150,
        "3040": 64,
        "3041": 234,
        "3042": 89,
        "3043": 60,
        "3044": 137,
        "3045": 234,
        "3046": 169,
        "3047": 49,
        "3048": 249,
        "3049": 250,
        "3050": 162,
        "3051": 69,
        "3052": 155,
        "3053": 3,
        "3054": 44,
        "3055": 178,
        "3056": 57,
        "3057": 91,
        "3058": 40,
        "3059": 61,
        "3060": 138,
        "3061": 142,
        "3062": 67,
        "3063": 32,
        "3064": 194,
        "3065": 134,
        "3066": 121,
        "3067": 139,
        "3068": 170,
        "3069": 252,
        "3070": 64,
        "3071": 164,
        "3072": 33,
        "3073": 255,
        "3074": 119,
        "3075": 158,
        "3076": 158,
        "3077": 86,
        "3078": 113,
        "3079": 156,
        "3080": 32,
        "3081": 164,
        "3082": 111,
        "3083": 161,
        "3084": 224,
        "3085": 127,
        "3086": 8,
        "3087": 104,
        "3088": 74,
        "3089": 6,
        "3090": 86,
        "3091": 207,
        "3092": 3,
        "3093": 36,
        "3094": 7,
        "3095": 111,
        "3096": 177,
        "3097": 211,
        "3098": 103,
        "3099": 71,
        "3100": 160,
        "3101": 136,
        "3102": 194,
        "3103": 92,
        "3104": 204,
        "3105": 25,
        "3106": 227,
        "3107": 98,
        "3108": 98,
        "3109": 234,
        "3110": 191,
        "3111": 98,
        "3112": 165,
        "3113": 22,
        "3114": 202,
        "3115": 229,
        "3116": 99,
        "3117": 134,
        "3118": 223,
        "3119": 217,
        "3120": 197,
        "3121": 120,
        "3122": 132,
        "3123": 229,
        "3124": 89,
        "3125": 76,
        "3126": 118,
        "3127": 226,
        "3128": 174,
        "3129": 155,
        "3130": 235,
        "3131": 126,
        "3132": 247,
        "3133": 135,
        "3134": 112,
        "3135": 236,
        "3136": 86,
        "3137": 201,
        "3138": 117,
        "3139": 148,
        "3140": 139,
        "3141": 130,
        "3142": 85,
        "3143": 113,
        "3144": 79,
        "3145": 210,
        "3146": 95,
        "3147": 21,
        "3148": 163,
        "3149": 194,
        "3150": 248,
        "3151": 109,
        "3152": 226,
        "3153": 4,
        "3154": 111,
        "3155": 59,
        "3156": 21,
        "3157": 194,
        "3158": 202,
        "3159": 14,
        "3160": 220,
        "3161": 95,
        "3162": 102,
        "3163": 113,
        "3164": 2,
        "3165": 28,
        "3166": 40,
        "3167": 85,
        "3168": 224,
        "3169": 128,
        "3170": 211,
        "3171": 68,
        "3172": 146,
        "3173": 168,
        "3174": 112,
        "3175": 121,
        "3176": 245,
        "3177": 9,
        "3178": 240,
        "3179": 230,
        "3180": 102,
        "3181": 116,
        "3182": 188,
        "3183": 187,
        "3184": 252,
        "3185": 100,
        "3186": 169,
        "3187": 132,
        "3188": 47,
        "3189": 178,
        "3190": 247,
        "3191": 148,
        "3192": 130,
        "3193": 149,
        "3194": 180,
        "3195": 141,
        "3196": 154,
        "3197": 66,
        "3198": 58,
        "3199": 228,
        "3200": 227,
        "3201": 108,
        "3202": 43,
        "3203": 253,
        "3204": 168,
        "3205": 7,
        "3206": 3,
        "3207": 111,
        "3208": 205,
        "3209": 120,
        "3210": 119,
        "3211": 12,
        "3212": 72,
        "3213": 16,
        "3214": 19,
        "3215": 9,
        "3216": 103,
        "3217": 25,
        "3218": 228,
        "3219": 40,
        "3220": 162,
        "3221": 237,
        "3222": 20,
        "3223": 102,
        "3224": 86,
        "3225": 108,
        "3226": 181,
        "3227": 109,
        "3228": 181,
        "3229": 104,
        "3230": 137,
        "3231": 86,
        "3232": 185,
        "3233": 171,
        "3234": 190,
        "3235": 55,
        "3236": 198,
        "3237": 124,
        "3238": 9,
        "3239": 38,
        "3240": 223,
        "3241": 88,
        "3242": 245,
        "3243": 206,
        "3244": 9,
        "3245": 109,
        "3246": 205,
        "3247": 221,
        "3248": 108,
        "3249": 70,
        "3250": 215,
        "3251": 13,
        "3252": 83,
        "3253": 49,
        "3254": 166,
        "3255": 207,
        "3256": 70,
        "3257": 24,
        "3258": 44,
        "3259": 69,
        "3260": 205,
        "3261": 10,
        "3262": 143,
        "3263": 254,
        "3264": 151,
        "3265": 79,
        "3266": 36,
        "3267": 128,
        "3268": 24,
        "3269": 233,
        "3270": 66,
        "3271": 24,
        "3272": 8,
        "3273": 14,
        "3274": 251,
        "3275": 177,
        "3276": 123,
        "3277": 90,
        "3278": 248,
        "3279": 70,
        "3280": 52,
        "3281": 80,
        "3282": 170,
        "3283": 105,
        "3284": 101,
        "3285": 68,
        "3286": 160,
        "3287": 134,
        "3288": 115,
        "3289": 54,
        "3290": 209,
        "3291": 166,
        "3292": 213,
        "3293": 121,
        "3294": 68,
        "3295": 116,
        "3296": 26,
        "3297": 236,
        "3298": 135,
        "3299": 173,
        "3300": 32,
        "3301": 222,
        "3302": 90,
        "3303": 203,
        "3304": 83,
        "3305": 216,
        "3306": 238,
        "3307": 61,
        "3308": 208,
        "3309": 128,
        "3310": 70,
        "3311": 206,
        "3312": 120,
        "3313": 244,
        "3314": 242,
        "3315": 11,
        "3316": 22,
        "3317": 255,
        "3318": 27,
        "3319": 229,
        "3320": 127,
        "3321": 175,
        "3322": 213,
        "3323": 245,
        "3324": 37,
        "3325": 49,
        "3326": 31,
        "3327": 46,
        "3328": 38,
        "3329": 213,
        "3330": 216,
        "3331": 73,
        "3332": 191,
        "3333": 27,
        "3334": 148,
        "3335": 32,
        "3336": 242,
        "3337": 62,
        "3338": 19,
        "3339": 120,
        "3340": 171,
        "3341": 41,
        "3342": 156,
        "3343": 246,
        "3344": 226,
        "3345": 31,
        "3346": 232,
        "3347": 187,
        "3348": 103,
        "3349": 185,
        "3350": 253,
        "3351": 16,
        "3352": 147,
        "3353": 21,
        "3354": 12,
        "3355": 230,
        "3356": 238,
        "3357": 31,
        "3358": 210,
        "3359": 92,
        "3360": 50,
        "3361": 16,
        "3362": 158,
        "3363": 168,
        "3364": 190,
        "3365": 29,
        "3366": 101,
        "3367": 139,
        "3368": 128,
        "3369": 226,
        "3370": 37,
        "3371": 110,
        "3372": 84,
        "3373": 131,
        "3374": 180,
        "3375": 163,
        "3376": 82,
        "3377": 149,
        "3378": 88,
        "3379": 77,
        "3380": 18,
        "3381": 152,
        "3382": 70,
        "3383": 95,
        "3384": 85,
        "3385": 149,
        "3386": 182,
        "3387": 190,
        "3388": 46,
        "3389": 116,
        "3390": 173,
        "3391": 211,
        "3392": 106,
        "3393": 158,
        "3394": 228,
        "3395": 252,
        "3396": 226,
        "3397": 168,
        "3398": 114,
        "3399": 203,
        "3400": 21,
        "3401": 77,
        "3402": 173,
        "3403": 79,
        "3404": 149,
        "3405": 139,
        "3406": 243,
        "3407": 68,
        "3408": 187,
        "3409": 175,
        "3410": 12,
        "3411": 56,
        "3412": 8,
        "3413": 93,
        "3414": 162,
        "3415": 110,
        "3416": 243,
        "3417": 115,
        "3418": 153,
        "3419": 226,
        "3420": 111,
        "3421": 242,
        "3422": 39,
        "3423": 8,
        "3424": 78,
        "3425": 231,
        "3426": 90,
        "3427": 91,
        "3428": 133,
        "3429": 227,
        "3430": 97,
        "3431": 255,
        "3432": 51,
        "3433": 87,
        "3434": 245,
        "3435": 46,
        "3436": 0,
        "3437": 29,
        "3438": 41,
        "3439": 230,
        "3440": 219,
        "3441": 183,
        "3442": 191,
        "3443": 44,
        "3444": 68,
        "3445": 254,
        "3446": 135,
        "3447": 212,
        "3448": 148,
        "3449": 72,
        "3450": 78,
        "3451": 241,
        "3452": 91,
        "3453": 97,
        "3454": 15,
        "3455": 196,
        "3456": 109,
        "3457": 201,
        "3458": 161,
        "3459": 78,
        "3460": 180,
        "3461": 223,
        "3462": 45,
        "3463": 108,
        "3464": 8,
        "3465": 7,
        "3466": 32,
        "3467": 231,
        "3468": 47,
        "3469": 83,
        "3470": 207,
        "3471": 238,
        "3472": 113,
        "3473": 242,
        "3474": 210,
        "3475": 231,
        "3476": 170,
        "3477": 179,
        "3478": 44,
        "3479": 49,
        "3480": 123,
        "3481": 219,
        "3482": 161,
        "3483": 227,
        "3484": 11,
        "3485": 45,
        "3486": 130,
        "3487": 230,
        "3488": 234,
        "3489": 133,
        "3490": 203,
        "3491": 97,
        "3492": 202,
        "3493": 171,
        "3494": 147,
        "3495": 185,
        "3496": 200,
        "3497": 88,
        "3498": 40,
        "3499": 142,
        "3500": 213,
        "3501": 84,
        "3502": 5,
        "3503": 103,
        "3504": 6,
        "3505": 189,
        "3506": 58,
        "3507": 236,
        "3508": 199,
        "3509": 161,
        "3510": 66,
        "3511": 203,
        "3512": 79,
        "3513": 12,
        "3514": 200,
        "3515": 123,
        "3516": 31,
        "3517": 193,
        "3518": 102,
        "3519": 172,
        "3520": 175,
        "3521": 10,
        "3522": 169,
        "3523": 192,
        "3524": 141,
        "3525": 216,
        "3526": 123,
        "3527": 192,
        "3528": 31,
        "3529": 118,
        "3530": 192,
        "3531": 127,
        "3532": 114,
        "3533": 58,
        "3534": 27,
        "3535": 134,
        "3536": 50,
        "3537": 17,
        "3538": 192,
        "3539": 235,
        "3540": 94,
        "3541": 214,
        "3542": 244,
        "3543": 169,
        "3544": 93,
        "3545": 229,
        "3546": 191,
        "3547": 163,
        "3548": 100,
        "3549": 207,
        "3550": 179,
        "3551": 202,
        "3552": 242,
        "3553": 95,
        "3554": 227,
        "3555": 171,
        "3556": 0,
        "3557": 131,
        "3558": 11,
        "3559": 211,
        "3560": 76,
        "3561": 147,
        "3562": 1,
        "3563": 49,
        "3564": 111,
        "3565": 19,
        "3566": 61,
        "3567": 227,
        "3568": 117,
        "3569": 107,
        "3570": 115,
        "3571": 31,
        "3572": 191,
        "3573": 112,
        "3574": 45,
        "3575": 199,
        "3576": 115,
        "3577": 25,
        "3578": 14,
        "3579": 119,
        "3580": 126,
        "3581": 146,
        "3582": 131,
        "3583": 236,
        "3584": 79,
        "3585": 68,
        "3586": 152,
        "3587": 67,
        "3588": 45,
        "3589": 43,
        "3590": 2,
        "3591": 73,
        "3592": 167,
        "3593": 60,
        "3594": 194,
        "3595": 113,
        "3596": 35,
        "3597": 138,
        "3598": 103,
        "3599": 128,
        "3600": 51,
        "3601": 143,
        "3602": 120,
        "3603": 45,
        "3604": 228,
        "3605": 72,
        "3606": 52,
        "3607": 157,
        "3608": 134,
        "3609": 249,
        "3610": 69,
        "3611": 7,
        "3612": 194,
        "3613": 85,
        "3614": 22,
        "3615": 223,
        "3616": 105,
        "3617": 29,
        "3618": 56,
        "3619": 20,
        "3620": 108,
        "3621": 66,
        "3622": 20,
        "3623": 218,
        "3624": 235,
        "3625": 155,
        "3626": 117,
        "3627": 175,
        "3628": 62,
        "3629": 121,
        "3630": 132,
        "3631": 76,
        "3632": 132,
        "3633": 91,
        "3634": 114,
        "3635": 159,
        "3636": 14,
        "3637": 143,
        "3638": 245,
        "3639": 154,
        "3640": 252,
        "3641": 76,
        "3642": 161,
        "3643": 197,
        "3644": 189,
        "3645": 200,
        "3646": 195,
        "3647": 97,
        "3648": 133,
        "3649": 0,
        "3650": 77,
        "3651": 249,
        "3652": 238,
        "3653": 99,
        "3654": 28,
        "3655": 118,
        "3656": 83,
        "3657": 88,
        "3658": 9,
        "3659": 21,
        "3660": 33,
        "3661": 134,
        "3662": 34,
        "3663": 87,
        "3664": 162,
        "3665": 105,
        "3666": 186,
        "3667": 49,
        "3668": 20,
        "3669": 11,
        "3670": 90,
        "3671": 200,
        "3672": 9,
        "3673": 191,
        "3674": 151,
        "3675": 175,
        "3676": 168,
        "3677": 246,
        "3678": 131,
        "3679": 25,
        "3680": 154,
        "3681": 250,
        "3682": 161,
        "3683": 4,
        "3684": 18,
        "3685": 103,
        "3686": 39,
        "3687": 128,
        "3688": 196,
        "3689": 230,
        "3690": 115,
        "3691": 82,
        "3692": 79,
        "3693": 125,
        "3694": 246,
        "3695": 184,
        "3696": 153,
        "3697": 202,
        "3698": 116,
        "3699": 203,
        "3700": 193,
        "3701": 150,
        "3702": 73,
        "3703": 185,
        "3704": 180,
        "3705": 7,
        "3706": 151,
        "3707": 93,
        "3708": 200,
        "3709": 25,
        "3710": 1,
        "3711": 61,
        "3712": 159,
        "3713": 77,
        "3714": 202,
        "3715": 140,
        "3716": 85,
        "3717": 8,
        "3718": 233,
        "3719": 122,
        "3720": 179,
        "3721": 80,
        "3722": 186,
        "3723": 122,
        "3724": 38,
        "3725": 73,
        "3726": 136,
        "3727": 127,
        "3728": 38,
        "3729": 251,
        "3730": 86,
        "3731": 17,
        "3732": 136,
        "3733": 234,
        "3734": 41,
        "3735": 7,
        "3736": 103,
        "3737": 1,
        "3738": 15,
        "3739": 25,
        "3740": 62,
        "3741": 109,
        "3742": 210,
        "3743": 176,
        "3744": 226,
        "3745": 182,
        "3746": 75,
        "3747": 253,
        "3748": 140,
        "3749": 202,
        "3750": 240,
        "3751": 163,
        "3752": 126,
        "3753": 248,
        "3754": 80,
        "3755": 23,
        "3756": 247,
        "3757": 219,
        "3758": 171,
        "3759": 15,
        "3760": 42,
        "3761": 236,
        "3762": 186,
        "3763": 21,
        "3764": 131,
        "3765": 223,
        "3766": 245,
        "3767": 141,
        "3768": 91,
        "3769": 39,
        "3770": 27,
        "3771": 209,
        "3772": 67,
        "3773": 23,
        "3774": 151,
        "3775": 27,
        "3776": 46,
        "3777": 168,
        "3778": 46,
        "3779": 51,
        "3780": 154,
        "3781": 105,
        "3782": 115,
        "3783": 239,
        "3784": 91,
        "3785": 85,
        "3786": 35,
        "3787": 120,
        "3788": 232,
        "3789": 86,
        "3790": 36,
        "3791": 35,
        "3792": 229,
        "3793": 111,
        "3794": 33,
        "3795": 250,
        "3796": 60,
        "3797": 92,
        "3798": 113,
        "3799": 53,
        "3800": 178,
        "3801": 159,
        "3802": 214,
        "3803": 229,
        "3804": 203,
        "3805": 49,
        "3806": 58,
        "3807": 127,
        "3808": 133,
        "3809": 5,
        "3810": 27,
        "3811": 24,
        "3812": 94,
        "3813": 37,
        "3814": 218,
        "3815": 58,
        "3816": 229,
        "3817": 203,
        "3818": 218,
        "3819": 40,
        "3820": 152,
        "3821": 49,
        "3822": 232,
        "3823": 149,
        "3824": 90,
        "3825": 12,
        "3826": 219,
        "3827": 154,
        "3828": 163,
        "3829": 114,
        "3830": 209,
        "3831": 9,
        "3832": 109,
        "3833": 244,
        "3834": 36,
        "3835": 231,
        "3836": 203,
        "3837": 170,
        "3838": 157,
        "3839": 105,
        "3840": 208,
        "3841": 88,
        "3842": 187,
        "3843": 234,
        "3844": 171,
        "3845": 242,
        "3846": 201,
        "3847": 236,
        "3848": 162,
        "3849": 195,
        "3850": 225,
        "3851": 87,
        "3852": 28,
        "3853": 163,
        "3854": 148,
        "3855": 204,
        "3856": 102,
        "3857": 197,
        "3858": 173,
        "3859": 6,
        "3860": 192,
        "3861": 228,
        "3862": 100,
        "3863": 187,
        "3864": 217,
        "3865": 91,
        "3866": 142,
        "3867": 14,
        "3868": 71,
        "3869": 174,
        "3870": 35,
        "3871": 167,
        "3872": 205,
        "3873": 116,
        "3874": 163,
        "3875": 26,
        "3876": 14,
        "3877": 137,
        "3878": 141,
        "3879": 69,
        "3880": 241,
        "3881": 171,
        "3882": 246,
        "3883": 153,
        "3884": 220,
        "3885": 230,
        "3886": 169,
        "3887": 124,
        "3888": 78,
        "3889": 40,
        "3890": 215,
        "3891": 124,
        "3892": 15,
        "3893": 19,
        "3894": 191,
        "3895": 246,
        "3896": 108,
        "3897": 162,
        "3898": 75,
        "3899": 159,
        "3900": 255,
        "3901": 174,
        "3902": 137,
        "3903": 84,
        "3904": 81,
        "3905": 238,
        "3906": 204,
        "3907": 109,
        "3908": 254,
        "3909": 210,
        "3910": 101,
        "3911": 209,
        "3912": 99,
        "3913": 41,
        "3914": 153,
        "3915": 204,
        "3916": 228,
        "3917": 210,
        "3918": 184,
        "3919": 11,
        "3920": 30,
        "3921": 112,
        "3922": 77,
        "3923": 235,
        "3924": 197,
        "3925": 203,
        "3926": 231,
        "3927": 59,
        "3928": 53,
        "3929": 207,
        "3930": 106,
        "3931": 148,
        "3932": 192,
        "3933": 234,
        "3934": 11,
        "3935": 92,
        "3936": 163,
        "3937": 146,
        "3938": 36,
        "3939": 130,
        "3940": 57,
        "3941": 206,
        "3942": 236,
        "3943": 173,
        "3944": 71,
        "3945": 194,
        "3946": 238,
        "3947": 251,
        "3948": 255,
        "3949": 251,
        "3950": 250,
        "3951": 0,
        "3952": 83,
        "3953": 49,
        "3954": 109,
        "3955": 172,
        "3956": 99,
        "3957": 217,
        "3958": 157,
        "3959": 153,
        "3960": 248,
        "3961": 9,
        "3962": 28,
        "3963": 161,
        "3964": 155,
        "3965": 66,
        "3966": 180,
        "3967": 29,
        "3968": 200,
        "3969": 15,
        "3970": 49,
        "3971": 61,
        "3972": 221,
        "3973": 52,
        "3974": 43,
        "3975": 141,
        "3976": 206,
        "3977": 45,
        "3978": 127,
        "3979": 193,
        "3980": 156,
        "3981": 21,
        "3982": 60,
        "3983": 43,
        "3984": 251,
        "3985": 202,
        "3986": 190,
        "3987": 24,
        "3988": 136,
        "3989": 198,
        "3990": 193,
        "3991": 178,
        "3992": 158,
        "3993": 151,
        "3994": 40,
        "3995": 171,
        "3996": 98,
        "3997": 40,
        "3998": 47,
        "3999": 212,
        "4000": 66,
        "4001": 149,
        "4002": 23,
        "4003": 121,
        "4004": 110,
        "4005": 5,
        "4006": 249,
        "4007": 55,
        "4008": 44,
        "4009": 204,
        "4010": 140,
        "4011": 148,
        "4012": 91,
        "4013": 110,
        "4014": 87,
        "4015": 221,
        "4016": 106,
        "4017": 183,
        "4018": 57,
        "4019": 185,
        "4020": 118,
        "4021": 34,
        "4022": 132,
        "4023": 178,
        "4024": 171,
        "4025": 221,
        "4026": 92,
        "4027": 197,
        "4028": 178,
        "4029": 156,
        "4030": 6,
        "4031": 98,
        "4032": 102,
        "4033": 43,
        "4034": 185,
        "4035": 171,
        "4036": 242,
        "4037": 127,
        "4038": 187,
        "4039": 41,
        "4040": 177,
        "4041": 189,
        "4042": 30,
        "4043": 138,
        "4044": 67,
        "4045": 126,
        "4046": 232,
        "4047": 102,
        "4048": 167,
        "4049": 174,
        "4050": 48,
        "4051": 191,
        "4052": 151,
        "4053": 72,
        "4054": 177,
        "4055": 210,
        "4056": 20,
        "4057": 207,
        "4058": 252,
        "4059": 158,
        "4060": 214,
        "4061": 94,
        "4062": 38,
        "4063": 168,
        "4064": 73,
        "4065": 189,
        "4066": 227,
        "4067": 188,
        "4068": 151,
        "4069": 215,
        "4070": 251,
        "4071": 154,
        "4072": 9,
        "4073": 177,
        "4074": 242,
        "4075": 195,
        "4076": 230,
        "4077": 91,
        "4078": 146,
        "4079": 195,
        "4080": 200,
        "4081": 28,
        "4082": 62,
        "4083": 88,
        "4084": 239,
        "4085": 159,
        "4086": 26,
        "4087": 126,
        "4088": 219,
        "4089": 84,
        "4090": 130,
        "4091": 203,
        "4092": 230,
        "4093": 127,
        "4094": 42,
        "4095": 223,
        "4096": 181,
        "4097": 16,
        "4098": 153,
        "4099": 83,
        "4100": 61,
        "4101": 15,
        "4102": 247,
        "4103": 24,
        "4104": 70,
        "4105": 67,
        "4106": 173,
        "4107": 164,
        "4108": 227,
        "4109": 180,
        "4110": 39,
        "4111": 159,
        "4112": 125,
        "4113": 52,
        "4114": 219,
        "4115": 108,
        "4116": 124,
        "4117": 199,
        "4118": 32,
        "4119": 161,
        "4120": 56,
        "4121": 170,
        "4122": 110,
        "4123": 62,
        "4124": 25,
        "4125": 29,
        "4126": 158,
        "4127": 111,
        "4128": 60,
        "4129": 201,
        "4130": 219,
        "4131": 151,
        "4132": 199,
        "4133": 52,
        "4134": 124,
        "4135": 39,
        "4136": 199,
        "4137": 135,
        "4138": 119,
        "4139": 82,
        "4140": 130,
        "4141": 121,
        "4142": 138,
        "4143": 233,
        "4144": 162,
        "4145": 135,
        "4146": 204,
        "4147": 115,
        "4148": 135,
        "4149": 111,
        "4150": 138,
        "4151": 206,
        "4152": 235,
        "4153": 13,
        "4154": 255,
        "4155": 145,
        "4156": 35,
        "4157": 222,
        "4158": 187,
        "4159": 253,
        "4160": 15,
        "4161": 67,
        "4162": 200,
        "4163": 41,
        "4164": 85,
        "4165": 232,
        "4166": 226,
        "4167": 239,
        "4168": 219,
        "4169": 226,
        "4170": 23,
        "4171": 81,
        "4172": 30,
        "4173": 24,
        "4174": 169,
        "4175": 130,
        "4176": 136,
        "4177": 113,
        "4178": 224,
        "4179": 250,
        "4180": 247,
        "4181": 61,
        "4182": 162,
        "4183": 156,
        "4184": 203,
        "4185": 60,
        "4186": 136,
        "4187": 121,
        "4188": 139,
        "4189": 78,
        "4190": 151,
        "4191": 38,
        "4192": 184,
        "4193": 3,
        "4194": 199,
        "4195": 148,
        "4196": 176,
        "4197": 135,
        "4198": 5,
        "4199": 179,
        "4200": 149,
        "4201": 101,
        "4202": 167,
        "4203": 123,
        "4204": 210,
        "4205": 10,
        "4206": 237,
        "4207": 78,
        "4208": 214,
        "4209": 146,
        "4210": 183,
        "4211": 159,
        "4212": 48,
        "4213": 246,
        "4214": 130,
        "4215": 140,
        "4216": 214,
        "4217": 198,
        "4218": 165,
        "4219": 18,
        "4220": 176,
        "4221": 75,
        "4222": 128,
        "4223": 17,
        "4224": 43,
        "4225": 252,
        "4226": 42,
        "4227": 155,
        "4228": 116,
        "4229": 158,
        "4230": 221,
        "4231": 10,
        "4232": 204,
        "4233": 125,
        "4234": 186,
        "4235": 45,
        "4236": 83,
        "4237": 83,
        "4238": 16,
        "4239": 73,
        "4240": 69,
        "4241": 235,
        "4242": 199,
        "4243": 106,
        "4244": 36,
        "4245": 236,
        "4246": 170,
        "4247": 212,
        "4248": 117,
        "4249": 66,
        "4250": 84,
        "4251": 142,
        "4252": 115,
        "4253": 147,
        "4254": 215,
        "4255": 192,
        "4256": 6,
        "4257": 181,
        "4258": 160,
        "4259": 163,
        "4260": 25,
        "4261": 102,
        "4262": 176,
        "4263": 65,
        "4264": 228,
        "4265": 76,
        "4266": 204,
        "4267": 205,
        "4268": 159,
        "4269": 27,
        "4270": 60,
        "4271": 133,
        "4272": 12,
        "4273": 147,
        "4274": 168,
        "4275": 40,
        "4276": 29,
        "4277": 44,
        "4278": 66,
        "4279": 106,
        "4280": 150,
        "4281": 25,
        "4282": 66,
        "4283": 254,
        "4284": 182,
        "4285": 152,
        "4286": 51,
        "4287": 142,
        "4288": 184,
        "4289": 116,
        "4290": 106,
        "4291": 212,
        "4292": 230,
        "4293": 180,
        "4294": 175,
        "4295": 230,
        "4296": 204,
        "4297": 130,
        "4298": 18,
        "4299": 138,
        "4300": 161,
        "4301": 204,
        "4302": 199,
        "4303": 33,
        "4304": 168,
        "4305": 98,
        "4306": 79,
        "4307": 195,
        "4308": 151,
        "4309": 80,
        "4310": 28,
        "4311": 113,
        "4312": 52,
        "4313": 173,
        "4314": 202,
        "4315": 68,
        "4316": 60,
        "4317": 134,
        "4318": 32,
        "4319": 150,
        "4320": 237,
        "4321": 169,
        "4322": 90,
        "4323": 202,
        "4324": 189,
        "4325": 168,
        "4326": 37,
        "4327": 3,
        "4328": 4,
        "4329": 38,
        "4330": 131,
        "4331": 113,
        "4332": 233,
        "4333": 55,
        "4334": 64,
        "4335": 223,
        "4336": 131,
        "4337": 145,
        "4338": 249,
        "4339": 145,
        "4340": 27,
        "4341": 65,
        "4342": 124,
        "4343": 130,
        "4344": 62,
        "4345": 238,
        "4346": 88,
        "4347": 134,
        "4348": 20,
        "4349": 253,
        "4350": 68,
        "4351": 221,
        "4352": 183,
        "4353": 27,
        "4354": 114,
        "4355": 108,
        "4356": 122,
        "4357": 245,
        "4358": 39,
        "4359": 75,
        "4360": 26,
        "4361": 59,
        "4362": 118,
        "4363": 221,
        "4364": 46,
        "4365": 83,
        "4366": 59,
        "4367": 50,
        "4368": 4,
        "4369": 56,
        "4370": 162,
        "4371": 174,
        "4372": 192,
        "4373": 56,
        "4374": 155,
        "4375": 88,
        "4376": 131,
        "4377": 220,
        "4378": 133,
        "4379": 119,
        "4380": 125,
        "4381": 190,
        "4382": 216,
        "4383": 15,
        "4384": 11,
        "4385": 237,
        "4386": 157,
        "4387": 142,
        "4388": 107,
        "4389": 178,
        "4390": 244,
        "4391": 207,
        "4392": 241,
        "4393": 222,
        "4394": 28,
        "4395": 147,
        "4396": 121,
        "4397": 153,
        "4398": 40,
        "4399": 179,
        "4400": 202,
        "4401": 5,
        "4402": 82,
        "4403": 50,
        "4404": 79,
        "4405": 214,
        "4406": 179,
        "4407": 39,
        "4408": 187,
        "4409": 135,
        "4410": 159,
        "4411": 195,
        "4412": 158,
        "4413": 32,
        "4414": 190,
        "4415": 200,
        "4416": 77,
        "4417": 127,
        "4418": 16,
        "4419": 61,
        "4420": 110,
        "4421": 0,
        "4422": 233,
        "4423": 22,
        "4424": 105,
        "4425": 78,
        "4426": 51,
        "4427": 211,
        "4428": 113,
        "4429": 61,
        "4430": 247,
        "4431": 190,
        "4432": 37,
        "4433": 255,
        "4434": 118,
        "4435": 66,
        "4436": 2,
        "4437": 84,
        "4438": 90,
        "4439": 48,
        "4440": 89,
        "4441": 6,
        "4442": 221,
        "4443": 224,
        "4444": 79,
        "4445": 59,
        "4446": 120,
        "4447": 249,
        "4448": 109,
        "4449": 122,
        "4450": 206,
        "4451": 164,
        "4452": 206,
        "4453": 150,
        "4454": 98,
        "4455": 118,
        "4456": 50,
        "4457": 43,
        "4458": 28,
        "4459": 232,
        "4460": 69,
        "4461": 239,
        "4462": 210,
        "4463": 140,
        "4464": 228,
        "4465": 81,
        "4466": 154,
        "4467": 154,
        "4468": 184,
        "4469": 28,
        "4470": 6,
        "4471": 155,
        "4472": 92,
        "4473": 2,
        "4474": 188,
        "4475": 210,
        "4476": 59,
        "4477": 30,
        "4478": 199,
        "4479": 107,
        "4480": 132,
        "4481": 99,
        "4482": 157,
        "4483": 11,
        "4484": 189,
        "4485": 231,
        "4486": 219,
        "4487": 119,
        "4488": 111,
        "4489": 242,
        "4490": 125,
        "4491": 233,
        "4492": 127,
        "4493": 166,
        "4494": 202,
        "4495": 41,
        "4496": 127,
        "4497": 114,
        "4498": 173,
        "4499": 142,
        "4500": 234,
        "4501": 151,
        "4502": 2,
        "4503": 170,
        "4504": 127,
        "4505": 2,
        "4506": 63,
        "4507": 198,
        "4508": 241,
        "4509": 245,
        "4510": 76,
        "4511": 213,
        "4512": 107,
        "4513": 181,
        "4514": 3,
        "4515": 188,
        "4516": 108,
        "4517": 84,
        "4518": 87,
        "4519": 56,
        "4520": 155,
        "4521": 236,
        "4522": 80,
        "4523": 89,
        "4524": 53,
        "4525": 156,
        "4526": 224,
        "4527": 224,
        "4528": 22,
        "4529": 208,
        "4530": 26,
        "4531": 253,
        "4532": 246,
        "4533": 58,
        "4534": 195,
        "4535": 27,
        "4536": 255,
        "4537": 113,
        "4538": 84,
        "4539": 171,
        "4540": 147,
        "4541": 10,
        "4542": 29,
        "4543": 26,
        "4544": 58,
        "4545": 217,
        "4546": 39,
        "4547": 86,
        "4548": 158,
        "4549": 204,
        "4550": 99,
        "4551": 163,
        "4552": 231,
        "4553": 135,
        "4554": 78,
        "4555": 118,
        "4556": 134,
        "4557": 243,
        "4558": 154,
        "4559": 186,
        "4560": 97,
        "4561": 206,
        "4562": 63,
        "4563": 184,
        "4564": 240,
        "4565": 85,
        "4566": 219,
        "4567": 232,
        "4568": 175,
        "4569": 129,
        "4570": 156,
        "4571": 166,
        "4572": 163,
        "4573": 102,
        "4574": 100,
        "4575": 210,
        "4576": 0,
        "4577": 84,
        "4578": 158,
        "4579": 179,
        "4580": 14,
        "4581": 182,
        "4582": 249,
        "4583": 161,
        "4584": 36,
        "4585": 160,
        "4586": 117,
        "4587": 237,
        "4588": 63,
        "4589": 188,
        "4590": 38,
        "4591": 69,
        "4592": 17,
        "4593": 153,
        "4594": 114,
        "4595": 162,
        "4596": 95,
        "4597": 60,
        "4598": 143,
        "4599": 209,
        "4600": 242,
        "4601": 5,
        "4602": 37,
        "4603": 147,
        "4604": 240,
        "4605": 164,
        "4606": 63,
        "4607": 32,
        "4608": 28,
        "4609": 120,
        "4610": 7,
        "4611": 247,
        "4612": 53,
        "4613": 155,
        "4614": 185,
        "4615": 160,
        "4616": 245,
        "4617": 207,
        "4618": 47,
        "4619": 50,
        "4620": 48,
        "4621": 88,
        "4622": 85,
        "4623": 108,
        "4624": 157,
        "4625": 142,
        "4626": 152,
        "4627": 99,
        "4628": 61,
        "4629": 47,
        "4630": 238,
        "4631": 255,
        "4632": 17,
        "4633": 220,
        "4634": 53,
        "4635": 76,
        "4636": 204,
        "4637": 101,
        "4638": 192,
        "4639": 26,
        "4640": 210,
        "4641": 24,
        "4642": 128,
        "4643": 251,
        "4644": 168,
        "4645": 173,
        "4646": 226,
        "4647": 31,
        "4648": 168,
        "4649": 77,
        "4650": 225,
        "4651": 69,
        "4652": 134,
        "4653": 184,
        "4654": 36,
        "4655": 48,
        "4656": 136,
        "4657": 209,
        "4658": 216,
        "4659": 15,
        "4660": 41,
        "4661": 27,
        "4662": 123,
        "4663": 173,
        "4664": 163,
        "4665": 59,
        "4666": 16,
        "4667": 167,
        "4668": 160,
        "4669": 165,
        "4670": 137,
        "4671": 86,
        "4672": 12,
        "4673": 152,
        "4674": 211,
        "4675": 75,
        "4676": 28,
        "4677": 238,
        "4678": 131,
        "4679": 11,
        "4680": 57,
        "4681": 214,
        "4682": 24,
        "4683": 108,
        "4684": 44,
        "4685": 95,
        "4686": 172,
        "4687": 208,
        "4688": 38,
        "4689": 142,
        "4690": 211,
        "4691": 9,
        "4692": 248,
        "4693": 62,
        "4694": 210,
        "4695": 162,
        "4696": 29,
        "4697": 160,
        "4698": 187,
        "4699": 98,
        "4700": 47,
        "4701": 225,
        "4702": 243,
        "4703": 178,
        "4704": 37,
        "4705": 230,
        "4706": 199,
        "4707": 63,
        "4708": 108,
        "4709": 112,
        "4710": 93,
        "4711": 171,
        "4712": 237,
        "4713": 153,
        "4714": 115,
        "4715": 159,
        "4716": 227,
        "4717": 142,
        "4718": 175,
        "4719": 250,
        "4720": 128,
        "4721": 114,
        "4722": 115,
        "4723": 254,
        "4724": 198,
        "4725": 220,
        "4726": 21,
        "4727": 212,
        "4728": 87,
        "4729": 29,
        "4730": 232,
        "4731": 128,
        "4732": 24,
        "4733": 68,
        "4734": 94,
        "4735": 255,
        "4736": 102,
        "4737": 51,
        "4738": 36,
        "4739": 132,
        "4740": 255,
        "4741": 109,
        "4742": 97,
        "4743": 39,
        "4744": 72,
        "4745": 219,
        "4746": 192,
        "4747": 54,
        "4748": 54,
        "4749": 130,
        "4750": 64,
        "4751": 0,
        "4752": 70,
        "4753": 246,
        "4754": 211,
        "4755": 100,
        "4756": 93,
        "4757": 253,
        "4758": 157,
        "4759": 244,
        "4760": 214,
        "4761": 99,
        "4762": 147,
        "4763": 105,
        "4764": 36,
        "4765": 152,
        "4766": 57,
        "4767": 231,
        "4768": 68,
        "4769": 134,
        "4770": 58,
        "4771": 226,
        "4772": 85,
        "4773": 25,
        "4774": 178,
        "4775": 85,
        "4776": 89,
        "4777": 178,
        "4778": 44,
        "4779": 225,
        "4780": 153,
        "4781": 129,
        "4782": 127,
        "4783": 110,
        "4784": 153,
        "4785": 47,
        "4786": 25,
        "4787": 116,
        "4788": 216,
        "4789": 84,
        "4790": 42,
        "4791": 185,
        "4792": 120,
        "4793": 63,
        "4794": 154,
        "4795": 206,
        "4796": 125,
        "4797": 192,
        "4798": 19,
        "4799": 168,
        "4800": 164,
        "4801": 89,
        "4802": 100,
        "4803": 79,
        "4804": 86,
        "4805": 70,
        "4806": 138,
        "4807": 15,
        "4808": 178,
        "4809": 249,
        "4810": 198,
        "4811": 39,
        "4812": 136,
        "4813": 138,
        "4814": 65,
        "4815": 126,
        "4816": 112,
        "4817": 33,
        "4818": 128,
        "4819": 83,
        "4820": 177,
        "4821": 50,
        "4822": 91,
        "4823": 143,
        "4824": 110,
        "4825": 77,
        "4826": 183,
        "4827": 1,
        "4828": 129,
        "4829": 102,
        "4830": 100,
        "4831": 248,
        "4832": 207,
        "4833": 69,
        "4834": 94,
        "4835": 181,
        "4836": 189,
        "4837": 3,
        "4838": 175,
        "4839": 65,
        "4840": 53,
        "4841": 63,
        "4842": 157,
        "4843": 195,
        "4844": 30,
        "4845": 142,
        "4846": 43,
        "4847": 27,
        "4848": 102,
        "4849": 211,
        "4850": 231,
        "4851": 190,
        "4852": 99,
        "4853": 245,
        "4854": 42,
        "4855": 75,
        "4856": 35,
        "4857": 187,
        "4858": 53,
        "4859": 171,
        "4860": 88,
        "4861": 8,
        "4862": 5,
        "4863": 148,
        "4864": 86,
        "4865": 166,
        "4866": 3,
        "4867": 104,
        "4868": 83,
        "4869": 106,
        "4870": 237,
        "4871": 106,
        "4872": 158,
        "4873": 77,
        "4874": 191,
        "4875": 131,
        "4876": 157,
        "4877": 188,
        "4878": 234,
        "4879": 152,
        "4880": 130,
        "4881": 149,
        "4882": 211,
        "4883": 163,
        "4884": 94,
        "4885": 63,
        "4886": 182,
        "4887": 246,
        "4888": 235,
        "4889": 57,
        "4890": 137,
        "4891": 241,
        "4892": 69,
        "4893": 146,
        "4894": 255,
        "4895": 180,
        "4896": 247,
        "4897": 10,
        "4898": 175,
        "4899": 4,
        "4900": 169,
        "4901": 21,
        "4902": 164,
        "4903": 108,
        "4904": 216,
        "4905": 92,
        "4906": 164,
        "4907": 239,
        "4908": 68,
        "4909": 157,
        "4910": 230,
        "4911": 216,
        "4912": 141,
        "4913": 124,
        "4914": 217,
        "4915": 26,
        "4916": 136,
        "4917": 172,
        "4918": 22,
        "4919": 77,
        "4920": 216,
        "4921": 58,
        "4922": 1,
        "4923": 143,
        "4924": 246,
        "4925": 107,
        "4926": 87,
        "4927": 67,
        "4928": 149,
        "4929": 252,
        "4930": 213,
        "4931": 157,
        "4932": 37,
        "4933": 43,
        "4934": 220,
        "4935": 104,
        "4936": 190,
        "4937": 9,
        "4938": 239,
        "4939": 12,
        "4940": 241,
        "4941": 194,
        "4942": 1,
        "4943": 121,
        "4944": 144,
        "4945": 117,
        "4946": 149,
        "4947": 175,
        "4948": 6,
        "4949": 244,
        "4950": 238,
        "4951": 229,
        "4952": 18,
        "4953": 112,
        "4954": 116,
        "4955": 13,
        "4956": 150,
        "4957": 182,
        "4958": 223,
        "4959": 62,
        "4960": 51,
        "4961": 32,
        "4962": 183,
        "4963": 190,
        "4964": 240,
        "4965": 60,
        "4966": 187,
        "4967": 214,
        "4968": 61,
        "4969": 105,
        "4970": 88,
        "4971": 164,
        "4972": 213,
        "4973": 98,
        "4974": 67,
        "4975": 110,
        "4976": 111,
        "4977": 183,
        "4978": 234,
        "4979": 243,
        "4980": 162,
        "4981": 128,
        "4982": 85,
        "4983": 15,
        "4984": 27,
        "4985": 83,
        "4986": 86,
        "4987": 216,
        "4988": 54,
        "4989": 43,
        "4990": 117,
        "4991": 137,
        "4992": 149,
        "4993": 113,
        "4994": 94,
        "4995": 146,
        "4996": 12,
        "4997": 246,
        "4998": 150,
        "4999": 94,
        "5000": 8,
        "5001": 243,
        "5002": 176,
        "5003": 62,
        "5004": 165,
        "5005": 88,
        "5006": 82,
        "5007": 166,
        "5008": 228,
        "5009": 141,
        "5010": 108,
        "5011": 5,
        "5012": 133,
        "5013": 162,
        "5014": 110,
        "5015": 74,
        "5016": 74,
        "5017": 112,
        "5018": 236,
        "5019": 63,
        "5020": 15,
        "5021": 143,
        "5022": 55,
        "5023": 101,
        "5024": 45,
        "5025": 9,
        "5026": 64,
        "5027": 146,
        "5028": 102,
        "5029": 34,
        "5030": 61,
        "5031": 107,
        "5032": 55,
        "5033": 183,
        "5034": 92,
        "5035": 1,
        "5036": 151,
        "5037": 248,
        "5038": 5,
        "5039": 107,
        "5040": 98,
        "5041": 120,
        "5042": 69,
        "5043": 75,
        "5044": 141,
        "5045": 40,
        "5046": 250,
        "5047": 174,
        "5048": 159,
        "5049": 213,
        "5050": 102,
        "5051": 213,
        "5052": 102,
        "5053": 188,
        "5054": 41,
        "5055": 244,
        "5056": 110,
        "5057": 116,
        "5058": 199,
        "5059": 2,
        "5060": 215,
        "5061": 8,
        "5062": 54,
        "5063": 77,
        "5064": 255,
        "5065": 74,
        "5066": 11,
        "5067": 239,
        "5068": 142,
        "5069": 223,
        "5070": 94,
        "5071": 7,
        "5072": 175,
        "5073": 65,
        "5074": 77,
        "5075": 133,
        "5076": 116,
        "5077": 115,
        "5078": 238,
        "5079": 147,
        "5080": 22,
        "5081": 58,
        "5082": 82,
        "5083": 206,
        "5084": 99,
        "5085": 144,
        "5086": 32,
        "5087": 27,
        "5088": 236,
        "5089": 151,
        "5090": 182,
        "5091": 115,
        "5092": 224,
        "5093": 108,
        "5094": 185,
        "5095": 1,
        "5096": 102,
        "5097": 209,
        "5098": 127,
        "5099": 19,
        "5100": 121,
        "5101": 228,
        "5102": 206,
        "5103": 106,
        "5104": 221,
        "5105": 56,
        "5106": 121,
        "5107": 5,
        "5108": 105,
        "5109": 64,
        "5110": 69,
        "5111": 39,
        "5112": 100,
        "5113": 148,
        "5114": 222,
        "5115": 44,
        "5116": 75,
        "5117": 248,
        "5118": 216,
        "5119": 103,
        "5120": 63,
        "5121": 204,
        "5122": 152,
        "5123": 122,
        "5124": 247,
        "5125": 85,
        "5126": 143,
        "5127": 33,
        "5128": 50,
        "5129": 170,
        "5130": 212,
        "5131": 138,
        "5132": 251,
        "5133": 217,
        "5134": 225,
        "5135": 1,
        "5136": 194,
        "5137": 133,
        "5138": 148,
        "5139": 217,
        "5140": 117,
        "5141": 25,
        "5142": 17,
        "5143": 176,
        "5144": 248,
        "5145": 101,
        "5146": 97,
        "5147": 192,
        "5148": 129,
        "5149": 238,
        "5150": 197,
        "5151": 95,
        "5152": 245,
        "5153": 140,
        "5154": 91,
        "5155": 35,
        "5156": 213,
        "5157": 61,
        "5158": 10,
        "5159": 253,
        "5160": 44,
        "5161": 224,
        "5162": 96,
        "5163": 195,
        "5164": 252,
        "5165": 114,
        "5166": 138,
        "5167": 223,
        "5168": 129,
        "5169": 186,
        "5170": 236,
        "5171": 186,
        "5172": 87,
        "5173": 201,
        "5174": 7,
        "5175": 97,
        "5176": 76,
        "5177": 198,
        "5178": 248,
        "5179": 30,
        "5180": 229,
        "5181": 178,
        "5182": 170,
        "5183": 222,
        "5184": 66,
        "5185": 170,
        "5186": 145,
        "5187": 158,
        "5188": 128,
        "5189": 16,
        "5190": 23,
        "5191": 115,
        "5192": 162,
        "5193": 85,
        "5194": 203,
        "5195": 65,
        "5196": 254,
        "5197": 129,
        "5198": 32,
        "5199": 34,
        "5200": 9,
        "5201": 187,
        "5202": 57,
        "5203": 2,
        "5204": 56,
        "5205": 242,
        "5206": 192,
        "5207": 226,
        "5208": 48,
        "5209": 88,
        "5210": 211,
        "5211": 4,
        "5212": 81,
        "5213": 227,
        "5214": 72,
        "5215": 109,
        "5216": 108,
        "5217": 169,
        "5218": 100,
        "5219": 45,
        "5220": 141,
        "5221": 161,
        "5222": 190,
        "5223": 45,
        "5224": 230,
        "5225": 181,
        "5226": 162,
        "5227": 204,
        "5228": 59,
        "5229": 248,
        "5230": 221,
        "5231": 157,
        "5232": 192,
        "5233": 254,
        "5234": 37,
        "5235": 10,
        "5236": 89,
        "5237": 231,
        "5238": 12,
        "5239": 221,
        "5240": 223,
        "5241": 134,
        "5242": 187,
        "5243": 219,
        "5244": 192,
        "5245": 206,
        "5246": 92,
        "5247": 105,
        "5248": 126,
        "5249": 45,
        "5250": 65,
        "5251": 198,
        "5252": 183,
        "5253": 103,
        "5254": 166,
        "5255": 241,
        "5256": 1,
        "5257": 131,
        "5258": 152,
        "5259": 219,
        "5260": 42,
        "5261": 238,
        "5262": 205,
        "5263": 126,
        "5264": 103,
        "5265": 116,
        "5266": 168,
        "5267": 72,
        "5268": 137,
        "5269": 135,
        "5270": 219,
        "5271": 122,
        "5272": 232,
        "5273": 221,
        "5274": 69,
        "5275": 76,
        "5276": 7,
        "5277": 176,
        "5278": 185,
        "5279": 240,
        "5280": 117,
        "5281": 190,
        "5282": 77,
        "5283": 167,
        "5284": 176,
        "5285": 18,
        "5286": 5,
        "5287": 65,
        "5288": 115,
        "5289": 237,
        "5290": 192,
        "5291": 80,
        "5292": 161,
        "5293": 126,
        "5294": 251,
        "5295": 253,
        "5296": 161,
        "5297": 31,
        "5298": 249,
        "5299": 101,
        "5300": 7,
        "5301": 66,
        "5302": 141,
        "5303": 49,
        "5304": 156,
        "5305": 12,
        "5306": 146,
        "5307": 135,
        "5308": 160,
        "5309": 189,
        "5310": 251,
        "5311": 59,
        "5312": 145,
        "5313": 155,
        "5314": 73,
        "5315": 98,
        "5316": 8,
        "5317": 220,
        "5318": 202,
        "5319": 64,
        "5320": 104,
        "5321": 191,
        "5322": 104,
        "5323": 13,
        "5324": 41,
        "5325": 145,
        "5326": 209,
        "5327": 41,
        "5328": 190,
        "5329": 72,
        "5330": 59,
        "5331": 76,
        "5332": 117,
        "5333": 35,
        "5334": 255,
        "5335": 176,
        "5336": 130,
        "5337": 149,
        "5338": 70,
        "5339": 35,
        "5340": 2,
        "5341": 33,
        "5342": 86,
        "5343": 4,
        "5344": 47,
        "5345": 49,
        "5346": 147,
        "5347": 223,
        "5348": 165,
        "5349": 125,
        "5350": 45,
        "5351": 234,
        "5352": 16,
        "5353": 68,
        "5354": 33,
        "5355": 178,
        "5356": 64,
        "5357": 116,
        "5358": 157,
        "5359": 63,
        "5360": 75,
        "5361": 214,
        "5362": 32,
        "5363": 173,
        "5364": 27,
        "5365": 17,
        "5366": 123,
        "5367": 100,
        "5368": 65,
        "5369": 21,
        "5370": 121,
        "5371": 229,
        "5372": 144,
        "5373": 158,
        "5374": 140,
        "5375": 230,
        "5376": 98,
        "5377": 153,
        "5378": 222,
        "5379": 177,
        "5380": 20,
        "5381": 36,
        "5382": 203,
        "5383": 229,
        "5384": 151,
        "5385": 102,
        "5386": 206,
        "5387": 19,
        "5388": 75,
        "5389": 60,
        "5390": 139,
        "5391": 129,
        "5392": 155,
        "5393": 178,
        "5394": 209,
        "5395": 23,
        "5396": 167,
        "5397": 242,
        "5398": 62,
        "5399": 84,
        "5400": 225,
        "5401": 167,
        "5402": 251,
        "5403": 190,
        "5404": 101,
        "5405": 245,
        "5406": 164,
        "5407": 41,
        "5408": 33,
        "5409": 150,
        "5410": 30,
        "5411": 40,
        "5412": 233,
        "5413": 69,
        "5414": 124,
        "5415": 183,
        "5416": 178,
        "5417": 88,
        "5418": 143,
        "5419": 201,
        "5420": 0,
        "5421": 36,
        "5422": 20,
        "5423": 23,
        "5424": 224,
        "5425": 117,
        "5426": 114,
        "5427": 113,
        "5428": 179,
        "5429": 221,
        "5430": 101,
        "5431": 245,
        "5432": 159,
        "5433": 113,
        "5434": 96,
        "5435": 228,
        "5436": 4,
        "5437": 211,
        "5438": 240,
        "5439": 91,
        "5440": 51,
        "5441": 97,
        "5442": 59,
        "5443": 212,
        "5444": 29,
        "5445": 128,
        "5446": 65,
        "5447": 204,
        "5448": 34,
        "5449": 244,
        "5450": 3,
        "5451": 31,
        "5452": 167,
        "5453": 248,
        "5454": 192,
        "5455": 221,
        "5456": 141,
        "5457": 48,
        "5458": 119,
        "5459": 94,
        "5460": 208,
        "5461": 26,
        "5462": 249,
        "5463": 191,
        "5464": 190,
        "5465": 255,
        "5466": 129,
        "5467": 226,
        "5468": 22,
        "5469": 137,
        "5470": 80,
        "5471": 117,
        "5472": 13,
        "5473": 75,
        "5474": 208,
        "5475": 121,
        "5476": 124,
        "5477": 89,
        "5478": 103,
        "5479": 137,
        "5480": 74,
        "5481": 221,
        "5482": 99,
        "5483": 112,
        "5484": 244,
        "5485": 8,
        "5486": 137,
        "5487": 245,
        "5488": 31,
        "5489": 4,
        "5490": 202,
        "5491": 194,
        "5492": 75,
        "5493": 73,
        "5494": 236,
        "5495": 25,
        "5496": 245,
        "5497": 160,
        "5498": 10,
        "5499": 186,
        "5500": 64,
        "5501": 7,
        "5502": 80,
        "5503": 196,
        "5504": 167,
        "5505": 138,
        "5506": 52,
        "5507": 226,
        "5508": 96,
        "5509": 24,
        "5510": 8,
        "5511": 5,
        "5512": 225,
        "5513": 130,
        "5514": 208,
        "5515": 151,
        "5516": 244,
        "5517": 96,
        "5518": 63,
        "5519": 11,
        "5520": 180,
        "5521": 48,
        "5522": 88,
        "5523": 212,
        "5524": 100,
        "5525": 81,
        "5526": 149,
        "5527": 4,
        "5528": 249,
        "5529": 106,
        "5530": 13,
        "5531": 102,
        "5532": 240,
        "5533": 142,
        "5534": 51,
        "5535": 13,
        "5536": 154,
        "5537": 129,
        "5538": 173,
        "5539": 86,
        "5540": 250,
        "5541": 22,
        "5542": 92,
        "5543": 108,
        "5544": 152,
        "5545": 205,
        "5546": 199,
        "5547": 26,
        "5548": 81,
        "5549": 222,
        "5550": 42,
        "5551": 250,
        "5552": 35,
        "5553": 19,
        "5554": 125,
        "5555": 1,
        "5556": 108,
        "5557": 12,
        "5558": 253,
        "5559": 137,
        "5560": 206,
        "5561": 40,
        "5562": 88,
        "5563": 0,
        "5564": 190,
        "5565": 185,
        "5566": 123,
        "5567": 14,
        "5568": 91,
        "5569": 9,
        "5570": 121,
        "5571": 198,
        "5572": 62,
        "5573": 207,
        "5574": 119,
        "5575": 53,
        "5576": 33,
        "5577": 46,
        "5578": 243,
        "5579": 102,
        "5580": 71,
        "5581": 25,
        "5582": 89,
        "5583": 148,
        "5584": 130,
        "5585": 179,
        "5586": 103,
        "5587": 96,
        "5588": 0,
        "5589": 88,
        "5590": 187,
        "5591": 175,
        "5592": 98,
        "5593": 201,
        "5594": 24,
        "5595": 11,
        "5596": 137,
        "5597": 16,
        "5598": 132,
        "5599": 155,
        "5600": 141,
        "5601": 206,
        "5602": 144,
        "5603": 200,
        "5604": 93,
        "5605": 240,
        "5606": 95,
        "5607": 112,
        "5608": 98,
        "5609": 183,
        "5610": 176,
        "5611": 22,
        "5612": 94,
        "5613": 75,
        "5614": 117,
        "5615": 102,
        "5616": 99,
        "5617": 111,
        "5618": 49,
        "5619": 57,
        "5620": 60,
        "5621": 183,
        "5622": 180,
        "5623": 74,
        "5624": 94,
        "5625": 216,
        "5626": 187,
        "5627": 24,
        "5628": 192,
        "5629": 240,
        "5630": 198,
        "5631": 89,
        "5632": 246,
        "5633": 222,
        "5634": 4,
        "5635": 49,
        "5636": 64,
        "5637": 164,
        "5638": 206,
        "5639": 115,
        "5640": 167,
        "5641": 35,
        "5642": 203,
        "5643": 183,
        "5644": 26,
        "5645": 100,
        "5646": 123,
        "5647": 73,
        "5648": 174,
        "5649": 98,
        "5650": 190,
        "5651": 132,
        "5652": 201,
        "5653": 51,
        "5654": 105,
        "5655": 84,
        "5656": 102,
        "5657": 150,
        "5658": 113,
        "5659": 135,
        "5660": 243,
        "5661": 210,
        "5662": 242,
        "5663": 207,
        "5664": 10,
        "5665": 159,
        "5666": 111,
        "5667": 92,
        "5668": 63,
        "5669": 53,
        "5670": 220,
        "5671": 115,
        "5672": 156,
        "5673": 31,
        "5674": 46,
        "5675": 224,
        "5676": 129,
        "5677": 16,
        "5678": 177,
        "5679": 125,
        "5680": 172,
        "5681": 183,
        "5682": 113,
        "5683": 114,
        "5684": 23,
        "5685": 124,
        "5686": 183,
        "5687": 61,
        "5688": 204,
        "5689": 248,
        "5690": 51,
        "5691": 238,
        "5692": 248,
        "5693": 146,
        "5694": 54,
        "5695": 28,
        "5696": 11,
        "5697": 62,
        "5698": 34,
        "5699": 181,
        "5700": 21,
        "5701": 44,
        "5702": 178,
        "5703": 196,
        "5704": 231,
        "5705": 53,
        "5706": 59,
        "5707": 75,
        "5708": 196,
        "5709": 116,
        "5710": 194,
        "5711": 96,
        "5712": 238,
        "5713": 237,
        "5714": 127,
        "5715": 74,
        "5716": 199,
        "5717": 115,
        "5718": 61,
        "5719": 136,
        "5720": 63,
        "5721": 71,
        "5722": 54,
        "5723": 161,
        "5724": 136,
        "5725": 235,
        "5726": 218,
        "5727": 184,
        "5728": 195,
        "5729": 212,
        "5730": 212,
        "5731": 186,
        "5732": 132,
        "5733": 132,
        "5734": 173,
        "5735": 20,
        "5736": 72,
        "5737": 211,
        "5738": 227,
        "5739": 84,
        "5740": 83,
        "5741": 127,
        "5742": 55,
        "5743": 204,
        "5744": 141,
        "5745": 190,
        "5746": 22,
        "5747": 99,
        "5748": 155,
        "5749": 46,
        "5750": 245,
        "5751": 237,
        "5752": 2,
        "5753": 144,
        "5754": 192,
        "5755": 12,
        "5756": 7,
        "5757": 3,
        "5758": 247,
        "5759": 199,
        "5760": 72,
        "5761": 75,
        "5762": 227,
        "5763": 110,
        "5764": 104,
        "5765": 35,
        "5766": 178,
        "5767": 206,
        "5768": 97,
        "5769": 207,
        "5770": 12,
        "5771": 189,
        "5772": 189,
        "5773": 254,
        "5774": 241,
        "5775": 64,
        "5776": 53,
        "5777": 51,
        "5778": 66,
        "5779": 17,
        "5780": 155,
        "5781": 85,
        "5782": 25,
        "5783": 133,
        "5784": 219,
        "5785": 219,
        "5786": 27,
        "5787": 162,
        "5788": 233,
        "5789": 9,
        "5790": 94,
        "5791": 159,
        "5792": 241,
        "5793": 52,
        "5794": 203,
        "5795": 90,
        "5796": 254,
        "5797": 63,
        "5798": 110,
        "5799": 137,
        "5800": 208,
        "5801": 4,
        "5802": 27,
        "5803": 154,
        "5804": 164,
        "5805": 25,
        "5806": 66,
        "5807": 226,
        "5808": 59,
        "5809": 172,
        "5810": 74,
        "5811": 110,
        "5812": 81,
        "5813": 183,
        "5814": 146,
        "5815": 158,
        "5816": 118,
        "5817": 177,
        "5818": 175,
        "5819": 18,
        "5820": 200,
        "5821": 236,
        "5822": 187,
        "5823": 11,
        "5824": 160,
        "5825": 173,
        "5826": 245,
        "5827": 58,
        "5828": 183,
        "5829": 8,
        "5830": 123,
        "5831": 145,
        "5832": 116,
        "5833": 211,
        "5834": 96,
        "5835": 16,
        "5836": 147,
        "5837": 211,
        "5838": 47,
        "5839": 40,
        "5840": 220,
        "5841": 52,
        "5842": 92,
        "5843": 49,
        "5844": 232,
        "5845": 210,
        "5846": 205,
        "5847": 122,
        "5848": 221,
        "5849": 36,
        "5850": 48,
        "5851": 25,
        "5852": 98,
        "5853": 128,
        "5854": 36,
        "5855": 189,
        "5856": 52,
        "5857": 29,
        "5858": 167,
        "5859": 55,
        "5860": 154,
        "5861": 56,
        "5862": 136,
        "5863": 238,
        "5864": 203,
        "5865": 8,
        "5866": 156,
        "5867": 142,
        "5868": 87,
        "5869": 193,
        "5870": 96,
        "5871": 208,
        "5872": 26,
        "5873": 27,
        "5874": 157,
        "5875": 111,
        "5876": 183,
        "5877": 9,
        "5878": 20,
        "5879": 203,
        "5880": 255,
        "5881": 36,
        "5882": 164,
        "5883": 104,
        "5884": 245,
        "5885": 137,
        "5886": 184,
        "5887": 232,
        "5888": 76,
        "5889": 238,
        "5890": 8,
        "5891": 95,
        "5892": 236,
        "5893": 124,
        "5894": 145,
        "5895": 206,
        "5896": 222,
        "5897": 7,
        "5898": 72,
        "5899": 123,
        "5900": 5,
        "5901": 7,
        "5902": 61,
        "5903": 248,
        "5904": 76,
        "5905": 47,
        "5906": 220,
        "5907": 230,
        "5908": 98,
        "5909": 14,
        "5910": 175,
        "5911": 179,
        "5912": 214,
        "5913": 163,
        "5914": 32,
        "5915": 89,
        "5916": 79,
        "5917": 251,
        "5918": 46,
        "5919": 80,
        "5920": 36,
        "5921": 60,
        "5922": 177,
        "5923": 10,
        "5924": 13,
        "5925": 72,
        "5926": 52,
        "5927": 60,
        "5928": 93,
        "5929": 112,
        "5930": 97,
        "5931": 114,
        "5932": 110,
        "5933": 87,
        "5934": 73,
        "5935": 43,
        "5936": 18,
        "5937": 164,
        "5938": 39,
        "5939": 91,
        "5940": 175,
        "5941": 182,
        "5942": 227,
        "5943": 208,
        "5944": 238,
        "5945": 177,
        "5946": 1,
        "5947": 26,
        "5948": 61,
        "5949": 61,
        "5950": 13,
        "5951": 79,
        "5952": 160,
        "5953": 15,
        "5954": 238,
        "5955": 31,
        "5956": 38,
        "5957": 181,
        "5958": 146,
        "5959": 149,
        "5960": 168,
        "5961": 70,
        "5962": 178,
        "5963": 83,
        "5964": 164,
        "5965": 36,
        "5966": 169,
        "5967": 127,
        "5968": 217,
        "5969": 166,
        "5970": 182,
        "5971": 148,
        "5972": 169,
        "5973": 156,
        "5974": 227,
        "5975": 126,
        "5976": 215,
        "5977": 105,
        "5978": 86,
        "5979": 93,
        "5980": 221,
        "5981": 226,
        "5982": 169,
        "5983": 75,
        "5984": 146,
        "5985": 131,
        "5986": 124,
        "5987": 118,
        "5988": 51,
        "5989": 8,
        "5990": 35,
        "5991": 79,
        "5992": 200,
        "5993": 156,
        "5994": 75,
        "5995": 187,
        "5996": 157,
        "5997": 40,
        "5998": 157,
        "5999": 233,
        "6000": 98,
        "6001": 26,
        "6002": 114,
        "6003": 165,
        "6004": 15,
        "6005": 230,
        "6006": 233,
        "6007": 203,
        "6008": 107,
        "6009": 209,
        "6010": 136,
        "6011": 98,
        "6012": 221,
        "6013": 155,
        "6014": 20,
        "6015": 6,
        "6016": 230,
        "6017": 57,
        "6018": 156,
        "6019": 94,
        "6020": 11,
        "6021": 178,
        "6022": 23,
        "6023": 238,
        "6024": 141,
        "6025": 231,
        "6026": 189,
        "6027": 92,
        "6028": 63,
        "6029": 221,
        "6030": 173,
        "6031": 0,
        "6032": 150,
        "6033": 113,
        "6034": 195,
        "6035": 12,
        "6036": 167,
        "6037": 248,
        "6038": 27,
        "6039": 133,
        "6040": 46,
        "6041": 225,
        "6042": 56,
        "6043": 80,
        "6044": 220,
        "6045": 122,
        "6046": 191,
        "6047": 68,
        "6048": 85,
        "6049": 27,
        "6050": 201,
        "6051": 174,
        "6052": 38,
        "6053": 78,
        "6054": 58,
        "6055": 122,
        "6056": 71,
        "6057": 175,
        "6058": 31,
        "6059": 168,
        "6060": 126,
        "6061": 106,
        "6062": 101,
        "6063": 85,
        "6064": 96,
        "6065": 216,
        "6066": 152,
        "6067": 22,
        "6068": 202,
        "6069": 34,
        "6070": 172,
        "6071": 89,
        "6072": 116,
        "6073": 137,
        "6074": 201,
        "6075": 39,
        "6076": 179,
        "6077": 174,
        "6078": 131,
        "6079": 0,
        "6080": 178,
        "6081": 227,
        "6082": 40,
        "6083": 44,
        "6084": 157,
        "6085": 168,
        "6086": 153,
        "6087": 102,
        "6088": 164,
        "6089": 29,
        "6090": 227,
        "6091": 120,
        "6092": 145,
        "6093": 163,
        "6094": 215,
        "6095": 165,
        "6096": 32,
        "6097": 211,
        "6098": 126,
        "6099": 126,
        "6100": 207,
        "6101": 18,
        "6102": 3,
        "6103": 228,
        "6104": 59,
        "6105": 165,
        "6106": 54,
        "6107": 19,
        "6108": 252,
        "6109": 11,
        "6110": 115,
        "6111": 119,
        "6112": 24,
        "6113": 232,
        "6114": 3,
        "6115": 80,
        "6116": 203,
        "6117": 203,
        "6118": 3,
        "6119": 189,
        "6120": 25,
        "6121": 93,
        "6122": 69,
        "6123": 199,
        "6124": 244,
        "6125": 44,
        "6126": 164,
        "6127": 240,
        "6128": 203,
        "6129": 49,
        "6130": 73,
        "6131": 238,
        "6132": 148,
        "6133": 99,
        "6134": 103,
        "6135": 219,
        "6136": 153,
        "6137": 1,
        "6138": 216,
        "6139": 58,
        "6140": 169,
        "6141": 107,
        "6142": 173,
        "6143": 95,
        "6144": 171,
        "6145": 38,
        "6146": 178,
        "6147": 137,
        "6148": 56,
        "6149": 155,
        "6150": 158,
        "6151": 130,
        "6152": 37,
        "6153": 81,
        "6154": 5,
        "6155": 48,
        "6156": 16,
        "6157": 71,
        "6158": 238,
        "6159": 173,
        "6160": 163,
        "6161": 235,
        "6162": 120,
        "6163": 76,
        "6164": 158,
        "6165": 42,
        "6166": 249,
        "6167": 16,
        "6168": 116,
        "6169": 51,
        "6170": 96,
        "6171": 241,
        "6172": 88,
        "6173": 35,
        "6174": 34,
        "6175": 245,
        "6176": 170,
        "6177": 12,
        "6178": 121,
        "6179": 89,
        "6180": 249,
        "6181": 65,
        "6182": 50,
        "6183": 204,
        "6184": 53,
        "6185": 30,
        "6186": 6,
        "6187": 28,
        "6188": 124,
        "6189": 207,
        "6190": 102,
        "6191": 235,
        "6192": 236,
        "6193": 39,
        "6194": 34,
        "6195": 4,
        "6196": 154,
        "6197": 80,
        "6198": 53,
        "6199": 129,
        "6200": 222,
        "6201": 163,
        "6202": 39,
        "6203": 129,
        "6204": 168,
        "6205": 224,
        "6206": 239,
        "6207": 196,
        "6208": 33,
        "6209": 97,
        "6210": 243,
        "6211": 12,
        "6212": 18,
        "6213": 66,
        "6214": 119,
        "6215": 75,
        "6216": 81,
        "6217": 70,
        "6218": 240,
        "6219": 202,
        "6220": 193,
        "6221": 114,
        "6222": 249,
        "6223": 105,
        "6224": 66,
        "6225": 66,
        "6226": 3,
        "6227": 209,
        "6228": 158,
        "6229": 254,
        "6230": 56,
        "6231": 157,
        "6232": 152,
        "6233": 205,
        "6234": 133,
        "6235": 3,
        "6236": 201,
        "6237": 253,
        "6238": 32,
        "6239": 84,
        "6240": 72,
        "6241": 163,
        "6242": 54,
        "6243": 232,
        "6244": 100,
        "6245": 48,
        "6246": 175,
        "6247": 129,
        "6248": 241,
        "6249": 13,
        "6250": 150,
        "6251": 241,
        "6252": 11,
        "6253": 149,
        "6254": 141,
        "6255": 119,
        "6256": 0,
        "6257": 125,
        "6258": 6,
        "6259": 192,
        "6260": 32,
        "6261": 119,
        "6262": 137,
        "6263": 33,
        "6264": 177,
        "6265": 144,
        "6266": 203,
        "6267": 175,
        "6268": 211,
        "6269": 71,
        "6270": 239,
        "6271": 159,
        "6272": 40,
        "6273": 34,
        "6274": 58,
        "6275": 78,
        "6276": 172,
        "6277": 113,
        "6278": 165,
        "6279": 185,
        "6280": 124,
        "6281": 119,
        "6282": 65,
        "6283": 12,
        "6284": 40,
        "6285": 79,
        "6286": 90,
        "6287": 195,
        "6288": 83,
        "6289": 185,
        "6290": 211,
        "6291": 32,
        "6292": 171,
        "6293": 149,
        "6294": 19,
        "6295": 125,
        "6296": 22,
        "6297": 151,
        "6298": 223,
        "6299": 200,
        "6300": 194,
        "6301": 42,
        "6302": 215,
        "6303": 190,
        "6304": 43,
        "6305": 120,
        "6306": 217,
        "6307": 179,
        "6308": 79,
        "6309": 12,
        "6310": 26,
        "6311": 160,
        "6312": 170,
        "6313": 105,
        "6314": 219,
        "6315": 76,
        "6316": 242,
        "6317": 119,
        "6318": 236,
        "6319": 89,
        "6320": 40,
        "6321": 133,
        "6322": 60,
        "6323": 60,
        "6324": 88,
        "6325": 185,
        "6326": 220,
        "6327": 105,
        "6328": 49,
        "6329": 252,
        "6330": 238,
        "6331": 83,
        "6332": 237,
        "6333": 226,
        "6334": 28,
        "6335": 137,
        "6336": 168,
        "6337": 95,
        "6338": 207,
        "6339": 166,
        "6340": 82,
        "6341": 128,
        "6342": 146,
        "6343": 29,
        "6344": 35,
        "6345": 174,
        "6346": 216,
        "6347": 142,
        "6348": 241,
        "6349": 21,
        "6350": 20,
        "6351": 122,
        "6352": 54,
        "6353": 127,
        "6354": 81,
        "6355": 28,
        "6356": 144,
        "6357": 127,
        "6358": 52,
        "6359": 51,
        "6360": 248,
        "6361": 240,
        "6362": 125,
        "6363": 206,
        "6364": 185,
        "6365": 156,
        "6366": 36,
        "6367": 2,
        "6368": 157,
        "6369": 64,
        "6370": 238,
        "6371": 162,
        "6372": 255,
        "6373": 18,
        "6374": 10,
        "6375": 34,
        "6376": 97,
        "6377": 69,
        "6378": 203,
        "6379": 234,
        "6380": 18,
        "6381": 149,
        "6382": 57,
        "6383": 251,
        "6384": 166,
        "6385": 49,
        "6386": 215,
        "6387": 244,
        "6388": 16,
        "6389": 190,
        "6390": 2,
        "6391": 30,
        "6392": 209,
        "6393": 197,
        "6394": 47,
        "6395": 229,
        "6396": 226,
        "6397": 133,
        "6398": 93,
        "6399": 242,
        "6400": 27,
        "6401": 88,
        "6402": 232,
        "6403": 237,
        "6404": 87,
        "6405": 22,
        "6406": 154,
        "6407": 145,
        "6408": 96,
        "6409": 75,
        "6410": 77,
        "6411": 221,
        "6412": 58,
        "6413": 196,
        "6414": 165,
        "6415": 173,
        "6416": 236,
        "6417": 38,
        "6418": 73,
        "6419": 251,
        "6420": 102,
        "6421": 183,
        "6422": 78,
        "6423": 121,
        "6424": 159,
        "6425": 137,
        "6426": 41,
        "6427": 122,
        "6428": 167,
        "6429": 190,
        "6430": 169,
        "6431": 96,
        "6432": 194,
        "6433": 243,
        "6434": 92,
        "6435": 10,
        "6436": 202,
        "6437": 108,
        "6438": 22,
        "6439": 35,
        "6440": 150,
        "6441": 130,
        "6442": 206,
        "6443": 219,
        "6444": 37,
        "6445": 78,
        "6446": 46,
        "6447": 5,
        "6448": 62,
        "6449": 243,
        "6450": 239,
        "6451": 122,
        "6452": 65,
        "6453": 57,
        "6454": 76,
        "6455": 191,
        "6456": 148,
        "6457": 181,
        "6458": 184,
        "6459": 115,
        "6460": 244,
        "6461": 152,
        "6462": 238,
        "6463": 103,
        "6464": 199,
        "6465": 62,
        "6466": 163,
        "6467": 118,
        "6468": 193,
        "6469": 54,
        "6470": 129,
        "6471": 192,
        "6472": 68,
        "6473": 58,
        "6474": 159,
        "6475": 195,
        "6476": 74,
        "6477": 54,
        "6478": 18,
        "6479": 114,
        "6480": 12,
        "6481": 144,
        "6482": 147,
        "6483": 71,
        "6484": 186,
        "6485": 217,
        "6486": 199,
        "6487": 187,
        "6488": 27,
        "6489": 163,
        "6490": 170,
        "6491": 101,
        "6492": 120,
        "6493": 49,
        "6494": 196,
        "6495": 23,
        "6496": 173,
        "6497": 171,
        "6498": 35,
        "6499": 227,
        "6500": 242,
        "6501": 231,
        "6502": 96,
        "6503": 26,
        "6504": 251,
        "6505": 61,
        "6506": 46,
        "6507": 57,
        "6508": 97,
        "6509": 148,
        "6510": 181,
        "6511": 51,
        "6512": 147,
        "6513": 184,
        "6514": 91,
        "6515": 104,
        "6516": 183,
        "6517": 149,
        "6518": 74,
        "6519": 15,
        "6520": 197,
        "6521": 95,
        "6522": 216,
        "6523": 99,
        "6524": 215,
        "6525": 133,
        "6526": 2,
        "6527": 130,
        "6528": 109,
        "6529": 4,
        "6530": 205,
        "6531": 155,
        "6532": 123,
        "6533": 130,
        "6534": 220,
        "6535": 145,
        "6536": 82,
        "6537": 185,
        "6538": 29,
        "6539": 109,
        "6540": 183,
        "6541": 36,
        "6542": 13,
        "6543": 0,
        "6544": 83,
        "6545": 149,
        "6546": 88,
        "6547": 138,
        "6548": 179,
        "6549": 18,
        "6550": 135,
        "6551": 250,
        "6552": 30,
        "6553": 186,
        "6554": 244,
        "6555": 12,
        "6556": 197,
        "6557": 250,
        "6558": 43,
        "6559": 11,
        "6560": 178,
        "6561": 115,
        "6562": 233,
        "6563": 220,
        "6564": 252,
        "6565": 103,
        "6566": 148,
        "6567": 14,
        "6568": 156,
        "6569": 39,
        "6570": 56,
        "6571": 146,
        "6572": 121,
        "6573": 156,
        "6574": 24,
        "6575": 78,
        "6576": 120,
        "6577": 62,
        "6578": 110,
        "6579": 20,
        "6580": 8,
        "6581": 52,
        "6582": 36,
        "6583": 136,
        "6584": 244,
        "6585": 75,
        "6586": 173,
        "6587": 95,
        "6588": 95,
        "6589": 45,
        "6590": 194,
        "6591": 103,
        "6592": 7,
        "6593": 154,
        "6594": 157,
        "6595": 9,
        "6596": 7,
        "6597": 186,
        "6598": 213,
        "6599": 66,
        "6600": 201,
        "6601": 80,
        "6602": 12,
        "6603": 137,
        "6604": 234,
        "6605": 44,
        "6606": 141,
        "6607": 114,
        "6608": 188,
        "6609": 202,
        "6610": 223,
        "6611": 194,
        "6612": 178,
        "6613": 199,
        "6614": 68,
        "6615": 64,
        "6616": 232,
        "6617": 128,
        "6618": 128,
        "6619": 214,
        "6620": 191,
        "6621": 233,
        "6622": 166,
        "6623": 216,
        "6624": 55,
        "6625": 247,
        "6626": 233,
        "6627": 126,
        "6628": 241,
        "6629": 219,
        "6630": 250,
        "6631": 17,
        "6632": 119,
        "6633": 70,
        "6634": 201,
        "6635": 217,
        "6636": 34,
        "6637": 241,
        "6638": 113,
        "6639": 63,
        "6640": 10,
        "6641": 122,
        "6642": 154,
        "6643": 74,
        "6644": 100,
        "6645": 146,
        "6646": 233,
        "6647": 55,
        "6648": 222,
        "6649": 163,
        "6650": 136,
        "6651": 188,
        "6652": 66,
        "6653": 65,
        "6654": 151,
        "6655": 2,
        "6656": 153,
        "6657": 214,
        "6658": 197,
        "6659": 229,
        "6660": 30,
        "6661": 66,
        "6662": 175,
        "6663": 58,
        "6664": 199,
        "6665": 247,
        "6666": 232,
        "6667": 207,
        "6668": 103,
        "6669": 104,
        "6670": 191,
        "6671": 146,
        "6672": 75,
        "6673": 26,
        "6674": 105,
        "6675": 0,
        "6676": 51,
        "6677": 167,
        "6678": 101,
        "6679": 108,
        "6680": 73,
        "6681": 205,
        "6682": 74,
        "6683": 201,
        "6684": 203,
        "6685": 53,
        "6686": 221,
        "6687": 204,
        "6688": 12,
        "6689": 152,
        "6690": 111,
        "6691": 154,
        "6692": 150,
        "6693": 220,
        "6694": 184,
        "6695": 101,
        "6696": 47,
        "6697": 192,
        "6698": 96,
        "6699": 216,
        "6700": 127,
        "6701": 220,
        "6702": 71,
        "6703": 70,
        "6704": 25,
        "6705": 16,
        "6706": 244,
        "6707": 38,
        "6708": 251,
        "6709": 16,
        "6710": 132,
        "6711": 90,
        "6712": 109,
        "6713": 242,
        "6714": 214,
        "6715": 45,
        "6716": 126,
        "6717": 187,
        "6718": 77,
        "6719": 106,
        "6720": 68,
        "6721": 68,
        "6722": 24,
        "6723": 251,
        "6724": 184,
        "6725": 28,
        "6726": 174,
        "6727": 46,
        "6728": 136,
        "6729": 82,
        "6730": 134,
        "6731": 196,
        "6732": 67,
        "6733": 0,
        "6734": 42,
        "6735": 135,
        "6736": 22,
        "6737": 196,
        "6738": 55,
        "6739": 174,
        "6740": 211,
        "6741": 51,
        "6742": 75,
        "6743": 105,
        "6744": 122,
        "6745": 93,
        "6746": 207,
        "6747": 12,
        "6748": 158,
        "6749": 147,
        "6750": 67,
        "6751": 219,
        "6752": 149,
        "6753": 57,
        "6754": 3,
        "6755": 18,
        "6756": 251,
        "6757": 166,
        "6758": 43,
        "6759": 89,
        "6760": 163,
        "6761": 246,
        "6762": 131,
        "6763": 55,
        "6764": 240,
        "6765": 21,
        "6766": 134,
        "6767": 195,
        "6768": 233,
        "6769": 237,
        "6770": 192,
        "6771": 238,
        "6772": 73,
        "6773": 54,
        "6774": 129,
        "6775": 180,
        "6776": 165,
        "6777": 181,
        "6778": 254,
        "6779": 203,
        "6780": 49,
        "6781": 188,
        "6782": 179,
        "6783": 192,
        "6784": 238,
        "6785": 123,
        "6786": 191,
        "6787": 6,
        "6788": 84,
        "6789": 139,
        "6790": 62,
        "6791": 6,
        "6792": 65,
        "6793": 43,
        "6794": 143,
        "6795": 42,
        "6796": 30,
        "6797": 49,
        "6798": 25,
        "6799": 104,
        "6800": 67,
        "6801": 81,
        "6802": 177,
        "6803": 18,
        "6804": 168,
        "6805": 82,
        "6806": 65,
        "6807": 48,
        "6808": 91,
        "6809": 125,
        "6810": 92,
        "6811": 249,
        "6812": 133,
        "6813": 8,
        "6814": 241,
        "6815": 94,
        "6816": 19,
        "6817": 198,
        "6818": 53,
        "6819": 75,
        "6820": 136,
        "6821": 209,
        "6822": 234,
        "6823": 114,
        "6824": 113,
        "6825": 31,
        "6826": 32,
        "6827": 197,
        "6828": 48,
        "6829": 158,
        "6830": 181,
        "6831": 232,
        "6832": 217,
        "6833": 178,
        "6834": 74,
        "6835": 193,
        "6836": 86,
        "6837": 247,
        "6838": 36,
        "6839": 1,
        "6840": 107,
        "6841": 249,
        "6842": 74,
        "6843": 65,
        "6844": 225,
        "6845": 111,
        "6846": 178,
        "6847": 73,
        "6848": 115,
        "6849": 110,
        "6850": 245,
        "6851": 230,
        "6852": 238,
        "6853": 106,
        "6854": 199,
        "6855": 121,
        "6856": 108,
        "6857": 74,
        "6858": 125,
        "6859": 202,
        "6860": 43,
        "6861": 122,
        "6862": 240,
        "6863": 232,
        "6864": 96,
        "6865": 140,
        "6866": 209,
        "6867": 162,
        "6868": 199,
        "6869": 201,
        "6870": 232,
        "6871": 201,
        "6872": 227,
        "6873": 71,
        "6874": 20,
        "6875": 64,
        "6876": 171,
        "6877": 20,
        "6878": 81,
        "6879": 118,
        "6880": 129,
        "6881": 201,
        "6882": 166,
        "6883": 124,
        "6884": 13,
        "6885": 15,
        "6886": 199,
        "6887": 132,
        "6888": 44,
        "6889": 14,
        "6890": 239,
        "6891": 234,
        "6892": 228,
        "6893": 146,
        "6894": 130,
        "6895": 110,
        "6896": 185,
        "6897": 105,
        "6898": 157,
        "6899": 22,
        "6900": 91,
        "6901": 232,
        "6902": 143,
        "6903": 206,
        "6904": 97,
        "6905": 57,
        "6906": 12,
        "6907": 226,
        "6908": 49,
        "6909": 69,
        "6910": 53,
        "6911": 140,
        "6912": 49,
        "6913": 105,
        "6914": 16,
        "6915": 90,
        "6916": 175,
        "6917": 9,
        "6918": 24,
        "6919": 125,
        "6920": 44,
        "6921": 157,
        "6922": 226,
        "6923": 32,
        "6924": 164,
        "6925": 27,
        "6926": 33,
        "6927": 171,
        "6928": 252,
        "6929": 39,
        "6930": 53,
        "6931": 251,
        "6932": 109,
        "6933": 70,
        "6934": 207,
        "6935": 4,
        "6936": 251,
        "6937": 191,
        "6938": 199,
        "6939": 14,
        "6940": 235,
        "6941": 143,
        "6942": 170,
        "6943": 155,
        "6944": 6,
        "6945": 161,
        "6946": 232,
        "6947": 26,
        "6948": 135,
        "6949": 117,
        "6950": 91,
        "6951": 59,
        "6952": 30,
        "6953": 88,
        "6954": 15,
        "6955": 241,
        "6956": 190,
        "6957": 71,
        "6958": 215,
        "6959": 32,
        "6960": 37,
        "6961": 146,
        "6962": 197,
        "6963": 105,
        "6964": 182,
        "6965": 246,
        "6966": 59,
        "6967": 70,
        "6968": 37,
        "6969": 167,
        "6970": 226,
        "6971": 206,
        "6972": 138,
        "6973": 59,
        "6974": 232,
        "6975": 168,
        "6976": 26,
        "6977": 96,
        "6978": 240,
        "6979": 58,
        "6980": 52,
        "6981": 39,
        "6982": 174,
        "6983": 122,
        "6984": 134,
        "6985": 27,
        "6986": 32,
        "6987": 131,
        "6988": 79,
        "6989": 102,
        "6990": 209,
        "6991": 193,
        "6992": 10,
        "6993": 133,
        "6994": 14,
        "6995": 183,
        "6996": 149,
        "6997": 149,
        "6998": 251,
        "6999": 105,
        "7000": 47,
        "7001": 191,
        "7002": 174,
        "7003": 191,
        "7004": 248,
        "7005": 2,
        "7006": 222,
        "7007": 75,
        "7008": 79,
        "7009": 38,
        "7010": 189,
        "7011": 91,
        "7012": 88,
        "7013": 122,
        "7014": 37,
        "7015": 54,
        "7016": 158,
        "7017": 140,
        "7018": 120,
        "7019": 202,
        "7020": 121,
        "7021": 245,
        "7022": 24,
        "7023": 22,
        "7024": 208,
        "7025": 48,
        "7026": 129,
        "7027": 129,
        "7028": 30,
        "7029": 87,
        "7030": 58,
        "7031": 173,
        "7032": 13,
        "7033": 64,
        "7034": 132,
        "7035": 130,
        "7036": 119,
        "7037": 137,
        "7038": 211,
        "7039": 235,
        "7040": 204,
        "7041": 186,
        "7042": 156,
        "7043": 82,
        "7044": 209,
        "7045": 175,
        "7046": 91,
        "7047": 107,
        "7048": 227,
        "7049": 20,
        "7050": 15,
        "7051": 103,
        "7052": 180,
        "7053": 136,
        "7054": 94,
        "7055": 211,
        "7056": 181,
        "7057": 255,
        "7058": 117,
        "7059": 161,
        "7060": 184,
        "7061": 162,
        "7062": 246,
        "7063": 97,
        "7064": 92,
        "7065": 65,
        "7066": 165,
        "7067": 122,
        "7068": 100,
        "7069": 103,
        "7070": 157,
        "7071": 104,
        "7072": 230,
        "7073": 22,
        "7074": 118,
        "7075": 255,
        "7076": 50,
        "7077": 179,
        "7078": 169,
        "7079": 215,
        "7080": 218,
        "7081": 236,
        "7082": 62,
        "7083": 214,
        "7084": 109,
        "7085": 167,
        "7086": 4,
        "7087": 136,
        "7088": 248,
        "7089": 10,
        "7090": 106,
        "7091": 42,
        "7092": 174,
        "7093": 113,
        "7094": 76,
        "7095": 230,
        "7096": 3,
        "7097": 40,
        "7098": 52,
        "7099": 119,
        "7100": 130,
        "7101": 254,
        "7102": 10,
        "7103": 179,
        "7104": 16,
        "7105": 28,
        "7106": 36,
        "7107": 248,
        "7108": 196,
        "7109": 59,
        "7110": 139,
        "7111": 193,
        "7112": 114,
        "7113": 42,
        "7114": 77,
        "7115": 28,
        "7116": 115,
        "7117": 190,
        "7118": 98,
        "7119": 104,
        "7120": 51,
        "7121": 126,
        "7122": 248,
        "7123": 144,
        "7124": 133,
        "7125": 0,
        "7126": 81,
        "7127": 183,
        "7128": 51,
        "7129": 207,
        "7130": 91,
        "7131": 90,
        "7132": 1,
        "7133": 104,
        "7134": 63,
        "7135": 88,
        "7136": 149,
        "7137": 47,
        "7138": 13,
        "7139": 201,
        "7140": 57,
        "7141": 219,
        "7142": 132,
        "7143": 207,
        "7144": 93,
        "7145": 112,
        "7146": 59,
        "7147": 65,
        "7148": 42,
        "7149": 95,
        "7150": 130,
        "7151": 218,
        "7152": 147,
        "7153": 248,
        "7154": 161,
        "7155": 44,
        "7156": 179,
        "7157": 24,
        "7158": 22,
        "7159": 161,
        "7160": 5,
        "7161": 230,
        "7162": 18,
        "7163": 57,
        "7164": 24,
        "7165": 220,
        "7166": 14,
        "7167": 135,
        "7168": 233,
        "7169": 172,
        "7170": 82,
        "7171": 240,
        "7172": 81,
        "7173": 80,
        "7174": 124,
        "7175": 91,
        "7176": 222,
        "7177": 163,
        "7178": 10,
        "7179": 86,
        "7180": 66,
        "7181": 250,
        "7182": 82,
        "7183": 97,
        "7184": 88,
        "7185": 208,
        "7186": 218,
        "7187": 61,
        "7188": 225,
        "7189": 15,
        "7190": 203,
        "7191": 145,
        "7192": 120,
        "7193": 200,
        "7194": 31,
        "7195": 12,
        "7196": 5,
        "7197": 76,
        "7198": 116,
        "7199": 82,
        "7200": 58,
        "7201": 209,
        "7202": 195,
        "7203": 234,
        "7204": 213,
        "7205": 4,
        "7206": 100,
        "7207": 93,
        "7208": 137,
        "7209": 77,
        "7210": 46,
        "7211": 211,
        "7212": 191,
        "7213": 203,
        "7214": 236,
        "7215": 177,
        "7216": 250,
        "7217": 29,
        "7218": 199,
        "7219": 152,
        "7220": 133,
        "7221": 86,
        "7222": 77,
        "7223": 69,
        "7224": 78,
        "7225": 127,
        "7226": 230,
        "7227": 200,
        "7228": 41,
        "7229": 180,
        "7230": 40,
        "7231": 244,
        "7232": 3,
        "7233": 243,
        "7234": 55,
        "7235": 216,
        "7236": 192,
        "7237": 110,
        "7238": 225,
        "7239": 174,
        "7240": 97,
        "7241": 226,
        "7242": 57,
        "7243": 243,
        "7244": 40,
        "7245": 211,
        "7246": 113,
        "7247": 70,
        "7248": 42,
        "7249": 174,
        "7250": 189,
        "7251": 225,
        "7252": 222,
        "7253": 249,
        "7254": 139,
        "7255": 147,
        "7256": 130,
        "7257": 225,
        "7258": 116,
        "7259": 121,
        "7260": 33,
        "7261": 141,
        "7262": 131,
        "7263": 25,
        "7264": 55,
        "7265": 251,
        "7266": 170,
        "7267": 92,
        "7268": 165,
        "7269": 165,
        "7270": 38,
        "7271": 122,
        "7272": 150,
        "7273": 19,
        "7274": 123,
        "7275": 158,
        "7276": 208,
        "7277": 130,
        "7278": 162,
        "7279": 191,
        "7280": 47,
        "7281": 247,
        "7282": 77,
        "7283": 135,
        "7284": 157,
        "7285": 89,
        "7286": 213,
        "7287": 92,
        "7288": 97,
        "7289": 216,
        "7290": 46,
        "7291": 136,
        "7292": 3,
        "7293": 49,
        "7294": 142,
        "7295": 12,
        "7296": 156,
        "7297": 79,
        "7298": 230,
        "7299": 163,
        "7300": 141,
        "7301": 242,
        "7302": 137,
        "7303": 170,
        "7304": 138,
        "7305": 182,
        "7306": 175,
        "7307": 11,
        "7308": 49,
        "7309": 172,
        "7310": 232,
        "7311": 119,
        "7312": 131,
        "7313": 24,
        "7314": 81,
        "7315": 72,
        "7316": 231,
        "7317": 9,
        "7318": 40,
        "7319": 189,
        "7320": 153,
        "7321": 247,
        "7322": 246,
        "7323": 235,
        "7324": 101,
        "7325": 165,
        "7326": 223,
        "7327": 98,
        "7328": 29,
        "7329": 2,
        "7330": 181,
        "7331": 146,
        "7332": 245,
        "7333": 137,
        "7334": 167,
        "7335": 47,
        "7336": 3,
        "7337": 38,
        "7338": 197,
        "7339": 98,
        "7340": 157,
        "7341": 128,
        "7342": 230,
        "7343": 169,
        "7344": 63,
        "7345": 111,
        "7346": 139,
        "7347": 177,
        "7348": 119,
        "7349": 40,
        "7350": 98,
        "7351": 128,
        "7352": 104,
        "7353": 108,
        "7354": 212,
        "7355": 194,
        "7356": 110,
        "7357": 102,
        "7358": 110,
        "7359": 65,
        "7360": 9,
        "7361": 200,
        "7362": 203,
        "7363": 199,
        "7364": 173,
        "7365": 144,
        "7366": 198,
        "7367": 73,
        "7368": 138,
        "7369": 192,
        "7370": 221,
        "7371": 24,
        "7372": 253,
        "7373": 186,
        "7374": 143,
        "7375": 20,
        "7376": 42,
        "7377": 169,
        "7378": 247,
        "7379": 29,
        "7380": 134,
        "7381": 195,
        "7382": 45,
        "7383": 215,
        "7384": 251,
        "7385": 140,
        "7386": 163,
        "7387": 40,
        "7388": 51,
        "7389": 92,
        "7390": 108,
        "7391": 84,
        "7392": 183,
        "7393": 62,
        "7394": 204,
        "7395": 209,
        "7396": 85,
        "7397": 89,
        "7398": 1,
        "7399": 248,
        "7400": 32,
        "7401": 248,
        "7402": 157,
        "7403": 121,
        "7404": 47,
        "7405": 88,
        "7406": 84,
        "7407": 132,
        "7408": 217,
        "7409": 125,
        "7410": 79,
        "7411": 156,
        "7412": 254,
        "7413": 210,
        "7414": 161,
        "7415": 150,
        "7416": 248,
        "7417": 98,
        "7418": 213,
        "7419": 101,
        "7420": 115,
        "7421": 4,
        "7422": 58,
        "7423": 165,
        "7424": 168,
        "7425": 97,
        "7426": 62,
        "7427": 48,
        "7428": 137,
        "7429": 22,
        "7430": 244,
        "7431": 166,
        "7432": 211,
        "7433": 20,
        "7434": 51,
        "7435": 5,
        "7436": 50,
        "7437": 246,
        "7438": 185,
        "7439": 148,
        "7440": 94,
        "7441": 205,
        "7442": 17,
        "7443": 5,
        "7444": 192,
        "7445": 105,
        "7446": 198,
        "7447": 244,
        "7448": 109,
        "7449": 14,
        "7450": 220,
        "7451": 167,
        "7452": 161,
        "7453": 69,
        "7454": 20,
        "7455": 213,
        "7456": 166,
        "7457": 237,
        "7458": 198,
        "7459": 206,
        "7460": 3,
        "7461": 16,
        "7462": 131,
        "7463": 85,
        "7464": 199,
        "7465": 54,
        "7466": 26,
        "7467": 77,
        "7468": 167,
        "7469": 49,
        "7470": 18,
        "7471": 99,
        "7472": 104,
        "7473": 141,
        "7474": 130,
        "7475": 28,
        "7476": 61,
        "7477": 174,
        "7478": 120,
        "7479": 202,
        "7480": 58,
        "7481": 100,
        "7482": 155,
        "7483": 36,
        "7484": 55,
        "7485": 41,
        "7486": 50,
        "7487": 78,
        "7488": 236,
        "7489": 148,
        "7490": 204,
        "7491": 52,
        "7492": 182,
        "7493": 226,
        "7494": 148,
        "7495": 22,
        "7496": 176,
        "7497": 77,
        "7498": 46,
        "7499": 76,
        "7500": 202,
        "7501": 35,
        "7502": 210,
        "7503": 160,
        "7504": 143,
        "7505": 233,
        "7506": 198,
        "7507": 89,
        "7508": 95,
        "7509": 241,
        "7510": 11,
        "7511": 4,
        "7512": 9,
        "7513": 226,
        "7514": 35,
        "7515": 189,
        "7516": 221,
        "7517": 218,
        "7518": 45,
        "7519": 58,
        "7520": 94,
        "7521": 191,
        "7522": 132,
        "7523": 197,
        "7524": 150,
        "7525": 54,
        "7526": 245,
        "7527": 124,
        "7528": 248,
        "7529": 93,
        "7530": 149,
        "7531": 6,
        "7532": 217,
        "7533": 141,
        "7534": 41,
        "7535": 189,
        "7536": 114,
        "7537": 69,
        "7538": 116,
        "7539": 216,
        "7540": 223,
        "7541": 98,
        "7542": 226,
        "7543": 195,
        "7544": 6,
        "7545": 203,
        "7546": 161,
        "7547": 196,
        "7548": 113,
        "7549": 29,
        "7550": 7,
        "7551": 82,
        "7552": 247,
        "7553": 197,
        "7554": 114,
        "7555": 17,
        "7556": 96,
        "7557": 222,
        "7558": 184,
        "7559": 136,
        "7560": 118,
        "7561": 30,
        "7562": 142,
        "7563": 14,
        "7564": 8,
        "7565": 15,
        "7566": 78,
        "7567": 249,
        "7568": 48,
        "7569": 215,
        "7570": 202,
        "7571": 86,
        "7572": 203,
        "7573": 64,
        "7574": 228,
        "7575": 236,
        "7576": 190,
        "7577": 157,
        "7578": 182,
        "7579": 238,
        "7580": 196,
        "7581": 167,
        "7582": 142,
        "7583": 178,
        "7584": 255,
        "7585": 138,
        "7586": 21,
        "7587": 85,
        "7588": 128,
        "7589": 8,
        "7590": 229,
        "7591": 136,
        "7592": 177,
        "7593": 61,
        "7594": 206,
        "7595": 63,
        "7596": 54,
        "7597": 253,
        "7598": 86,
        "7599": 26,
        "7600": 119,
        "7601": 200,
        "7602": 33,
        "7603": 233,
        "7604": 251,
        "7605": 85,
        "7606": 140,
        "7607": 196,
        "7608": 207,
        "7609": 63,
        "7610": 115,
        "7611": 244,
        "7612": 3,
        "7613": 144,
        "7614": 137,
        "7615": 168,
        "7616": 191,
        "7617": 25,
        "7618": 67,
        "7619": 189,
        "7620": 254,
        "7621": 110,
        "7622": 191,
        "7623": 99,
        "7624": 133,
        "7625": 236,
        "7626": 243,
        "7627": 141,
        "7628": 140,
        "7629": 238,
        "7630": 222,
        "7631": 232,
        "7632": 109,
        "7633": 189,
        "7634": 167,
        "7635": 239,
        "7636": 171,
        "7637": 195,
        "7638": 175,
        "7639": 123,
        "7640": 168,
        "7641": 63,
        "7642": 231,
        "7643": 88,
        "7644": 205,
        "7645": 254,
        "7646": 86,
        "7647": 15,
        "7648": 143,
        "7649": 2,
        "7650": 226,
        "7651": 121,
        "7652": 40,
        "7653": 4,
        "7654": 27,
        "7655": 82,
        "7656": 103,
        "7657": 9,
        "7658": 140,
        "7659": 102,
        "7660": 71,
        "7661": 84,
        "7662": 54,
        "7663": 127,
        "7664": 228,
        "7665": 212,
        "7666": 217,
        "7667": 219,
        "7668": 70,
        "7669": 245,
        "7670": 115,
        "7671": 14,
        "7672": 54,
        "7673": 120,
        "7674": 99,
        "7675": 19,
        "7676": 20,
        "7677": 52,
        "7678": 245,
        "7679": 46,
        "7680": 3,
        "7681": 102,
        "7682": 228,
        "7683": 247,
        "7684": 161,
        "7685": 40,
        "7686": 174,
        "7687": 193,
        "7688": 212,
        "7689": 218,
        "7690": 96,
        "7691": 216,
        "7692": 235,
        "7693": 250,
        "7694": 108,
        "7695": 9,
        "7696": 23,
        "7697": 247,
        "7698": 111,
        "7699": 129,
        "7700": 248,
        "7701": 157,
        "7702": 108,
        "7703": 165,
        "7704": 61,
        "7705": 201,
        "7706": 72,
        "7707": 159,
        "7708": 0,
        "7709": 182,
        "7710": 77,
        "7711": 130,
        "7712": 138,
        "7713": 161,
        "7714": 187,
        "7715": 132,
        "7716": 245,
        "7717": 188,
        "7718": 130,
        "7719": 216,
        "7720": 78,
        "7721": 153,
        "7722": 156,
        "7723": 3,
        "7724": 193,
        "7725": 159,
        "7726": 109,
        "7727": 97,
        "7728": 104,
        "7729": 74,
        "7730": 148,
        "7731": 166,
        "7732": 191,
        "7733": 70,
        "7734": 164,
        "7735": 34,
        "7736": 181,
        "7737": 207,
        "7738": 56,
        "7739": 231,
        "7740": 144,
        "7741": 64,
        "7742": 79,
        "7743": 5,
        "7744": 242,
        "7745": 120,
        "7746": 70,
        "7747": 180,
        "7748": 6,
        "7749": 74,
        "7750": 109,
        "7751": 30,
        "7752": 23,
        "7753": 208,
        "7754": 13,
        "7755": 142,
        "7756": 198,
        "7757": 164,
        "7758": 198,
        "7759": 231,
        "7760": 178,
        "7761": 182,
        "7762": 163,
        "7763": 61,
        "7764": 176,
        "7765": 52,
        "7766": 95,
        "7767": 252,
        "7768": 1,
        "7769": 140,
        "7770": 170,
        "7771": 127,
        "7772": 154,
        "7773": 54,
        "7774": 152,
        "7775": 48,
        "7776": 101,
        "7777": 252,
        "7778": 48,
        "7779": 96,
        "7780": 213,
        "7781": 56,
        "7782": 124,
        "7783": 57,
        "7784": 104,
        "7785": 16,
        "7786": 204,
        "7787": 234,
        "7788": 247,
        "7789": 176,
        "7790": 152,
        "7791": 161,
        "7792": 49,
        "7793": 232,
        "7794": 91,
        "7795": 84,
        "7796": 91,
        "7797": 170,
        "7798": 201,
        "7799": 161,
        "7800": 3,
        "7801": 101,
        "7802": 151,
        "7803": 143,
        "7804": 185,
        "7805": 118,
        "7806": 146,
        "7807": 231,
        "7808": 234,
        "7809": 134,
        "7810": 180,
        "7811": 160,
        "7812": 50,
        "7813": 206,
        "7814": 236,
        "7815": 137,
        "7816": 105,
        "7817": 159,
        "7818": 12,
        "7819": 100,
        "7820": 200,
        "7821": 61,
        "7822": 26,
        "7823": 17,
        "7824": 20,
        "7825": 242,
        "7826": 82,
        "7827": 50,
        "7828": 17,
        "7829": 82,
        "7830": 140,
        "7831": 187,
        "7832": 99,
        "7833": 199,
        "7834": 237,
        "7835": 208,
        "7836": 104,
        "7837": 51,
        "7838": 183,
        "7839": 5,
        "7840": 192,
        "7841": 161,
        "7842": 234,
        "7843": 189,
        "7844": 18,
        "7845": 152,
        "7846": 17,
        "7847": 175,
        "7848": 152,
        "7849": 126,
        "7850": 231,
        "7851": 126,
        "7852": 176,
        "7853": 107,
        "7854": 33,
        "7855": 74,
        "7856": 165,
        "7857": 245,
        "7858": 34,
        "7859": 95,
        "7860": 199,
        "7861": 106,
        "7862": 147,
        "7863": 80,
        "7864": 174,
        "7865": 188,
        "7866": 182,
        "7867": 61,
        "7868": 18,
        "7869": 88,
        "7870": 54,
        "7871": 88,
        "7872": 171,
        "7873": 34,
        "7874": 128,
        "7875": 6,
        "7876": 105,
        "7877": 156,
        "7878": 121,
        "7879": 80,
        "7880": 27,
        "7881": 103,
        "7882": 16,
        "7883": 1,
        "7884": 142,
        "7885": 239,
        "7886": 170,
        "7887": 197,
        "7888": 83,
        "7889": 132,
        "7890": 113,
        "7891": 231,
        "7892": 247,
        "7893": 193,
        "7894": 210,
        "7895": 115,
        "7896": 133,
        "7897": 209,
        "7898": 54,
        "7899": 41,
        "7900": 71,
        "7901": 133,
        "7902": 209,
        "7903": 167,
        "7904": 103,
        "7905": 219,
        "7906": 167,
        "7907": 108,
        "7908": 137,
        "7909": 171,
        "7910": 32,
        "7911": 194,
        "7912": 229,
        "7913": 0,
        "7914": 3,
        "7915": 73,
        "7916": 33,
        "7917": 143,
        "7918": 204,
        "7919": 164,
        "7920": 161,
        "7921": 234,
        "7922": 44,
        "7923": 212,
        "7924": 226,
        "7925": 221,
        "7926": 233,
        "7927": 74,
        "7928": 253,
        "7929": 210,
        "7930": 205,
        "7931": 244,
        "7932": 72,
        "7933": 172,
        "7934": 219,
        "7935": 159,
        "7936": 81,
        "7937": 197,
        "7938": 254,
        "7939": 10,
        "7940": 115,
        "7941": 111,
        "7942": 142,
        "7943": 6,
        "7944": 190,
        "7945": 161,
        "7946": 233,
        "7947": 237,
        "7948": 44,
        "7949": 166,
        "7950": 183,
        "7951": 61,
        "7952": 96,
        "7953": 180,
        "7954": 102,
        "7955": 140,
        "7956": 29,
        "7957": 12,
        "7958": 24,
        "7959": 96,
        "7960": 55,
        "7961": 142,
        "7962": 204,
        "7963": 103,
        "7964": 243,
        "7965": 232,
        "7966": 131,
        "7967": 212,
        "7968": 103,
        "7969": 72,
        "7970": 232,
        "7971": 70,
        "7972": 74,
        "7973": 205,
        "7974": 101,
        "7975": 170,
        "7976": 63,
        "7977": 217,
        "7978": 215,
        "7979": 99,
        "7980": 152,
        "7981": 63,
        "7982": 176,
        "7983": 31,
        "7984": 142,
        "7985": 52,
        "7986": 99,
        "7987": 163,
        "7988": 169,
        "7989": 46,
        "7990": 187,
        "7991": 158,
        "7992": 233,
        "7993": 5,
        "7994": 16,
        "7995": 85,
        "7996": 226,
        "7997": 52,
        "7998": 151,
        "7999": 83,
        "8000": 198,
        "8001": 190,
        "8002": 202,
        "8003": 168,
        "8004": 131,
        "8005": 231,
        "8006": 151,
        "8007": 104,
        "8008": 27,
        "8009": 4,
        "8010": 255,
        "8011": 192,
        "8012": 52,
        "8013": 100,
        "8014": 167,
        "8015": 92,
        "8016": 52,
        "8017": 176,
        "8018": 88,
        "8019": 192,
        "8020": 72,
        "8021": 109,
        "8022": 54,
        "8023": 38,
        "8024": 209,
        "8025": 156,
        "8026": 243,
        "8027": 160,
        "8028": 179,
        "8029": 114,
        "8030": 26,
        "8031": 129,
        "8032": 227,
        "8033": 26,
        "8034": 211,
        "8035": 65,
        "8036": 31,
        "8037": 119,
        "8038": 1,
        "8039": 112,
        "8040": 49,
        "8041": 62,
        "8042": 119,
        "8043": 130,
        "8044": 229,
        "8045": 219,
        "8046": 101,
        "8047": 187,
        "8048": 225,
        "8049": 78,
        "8050": 204,
        "8051": 108,
        "8052": 81,
        "8053": 164,
        "8054": 229,
        "8055": 3,
        "8056": 35,
        "8057": 10,
        "8058": 69,
        "8059": 97,
        "8060": 222,
        "8061": 201,
        "8062": 4,
        "8063": 185,
        "8064": 149,
        "8065": 124,
        "8066": 201,
        "8067": 228,
        "8068": 125,
        "8069": 184,
        "8070": 150,
        "8071": 133,
        "8072": 81,
        "8073": 176,
        "8074": 250,
        "8075": 100,
        "8076": 2,
        "8077": 143,
        "8078": 193,
        "8079": 116,
        "8080": 79,
        "8081": 194,
        "8082": 119,
        "8083": 70,
        "8084": 43,
        "8085": 6,
        "8086": 214,
        "8087": 98,
        "8088": 59,
        "8089": 92,
        "8090": 10,
        "8091": 205,
        "8092": 210,
        "8093": 24,
        "8094": 19,
        "8095": 153,
        "8096": 11,
        "8097": 11,
        "8098": 37,
        "8099": 162,
        "8100": 215,
        "8101": 234,
        "8102": 78,
        "8103": 20,
        "8104": 239,
        "8105": 233,
        "8106": 105,
        "8107": 232,
        "8108": 148,
        "8109": 207,
        "8110": 170,
        "8111": 86,
        "8112": 7,
        "8113": 164,
        "8114": 94,
        "8115": 29,
        "8116": 118,
        "8117": 70,
        "8118": 139,
        "8119": 240,
        "8120": 155,
        "8121": 128,
        "8122": 212,
        "8123": 216,
        "8124": 128,
        "8125": 202,
        "8126": 38,
        "8127": 98,
        "8128": 19,
        "8129": 84,
        "8130": 8,
        "8131": 65,
        "8132": 229,
        "8133": 26,
        "8134": 114,
        "8135": 18,
        "8136": 238,
        "8137": 23,
        "8138": 245,
        "8139": 241,
        "8140": 90,
        "8141": 59,
        "8142": 45,
        "8143": 180,
        "8144": 109,
        "8145": 118,
        "8146": 9,
        "8147": 89,
        "8148": 201,
        "8149": 101,
        "8150": 90,
        "8151": 150,
        "8152": 15,
        "8153": 36,
        "8154": 151,
        "8155": 42,
        "8156": 226,
        "8157": 190,
        "8158": 101,
        "8159": 177,
        "8160": 229,
        "8161": 41,
        "8162": 116,
        "8163": 147,
        "8164": 245,
        "8165": 212,
        "8166": 170,
        "8167": 240,
        "8168": 175,
        "8169": 114,
        "8170": 204,
        "8171": 0,
        "8172": 249,
        "8173": 107,
        "8174": 206,
        "8175": 86,
        "8176": 99,
        "8177": 9,
        "8178": 228,
        "8179": 165,
        "8180": 124,
        "8181": 170,
        "8182": 27,
        "8183": 52,
        "8184": 90,
        "8185": 7,
        "8186": 60,
        "8187": 118,
        "8188": 157,
        "8189": 53,
        "8190": 232,
        "8191": 22,
        "8192": 51,
        "8193": 188,
        "8194": 244,
        "8195": 14,
        "8196": 209,
        "8197": 73,
        "8198": 239,
        "8199": 1,
        "8200": 45,
        "8201": 190,
        "8202": 237,
        "8203": 72,
        "8204": 71,
        "8205": 101,
        "8206": 184,
        "8207": 61,
        "8208": 204,
        "8209": 218,
        "8210": 81,
        "8211": 136,
        "8212": 56,
        "8213": 252,
        "8214": 83,
        "8215": 99,
        "8216": 184,
        "8217": 55,
        "8218": 201,
        "8219": 39,
        "8220": 28,
        "8221": 228,
        "8222": 62,
        "8223": 189,
        "8224": 155,
        "8225": 151,
        "8226": 67,
        "8227": 80,
        "8228": 42,
        "8229": 40,
        "8230": 119,
        "8231": 164,
        "8232": 145,
        "8233": 0,
        "8234": 5,
        "8235": 143,
        "8236": 87,
        "8237": 63,
        "8238": 47,
        "8239": 63,
        "8240": 2,
        "8241": 98,
        "8242": 212,
        "8243": 126,
        "8244": 217,
        "8245": 174,
        "8246": 144,
        "8247": 231,
        "8248": 74,
        "8249": 25,
        "8250": 220,
        "8251": 171,
        "8252": 21,
        "8253": 69,
        "8254": 197,
        "8255": 168,
        "8256": 159,
        "8257": 62,
        "8258": 193,
        "8259": 44,
        "8260": 169,
        "8261": 35,
        "8262": 186,
        "8263": 62,
        "8264": 255,
        "8265": 96,
        "8266": 104,
        "8267": 106,
        "8268": 67,
        "8269": 179,
        "8270": 176,
        "8271": 208,
        "8272": 193,
        "8273": 77,
        "8274": 24,
        "8275": 8,
        "8276": 11,
        "8277": 8,
        "8278": 174,
        "8279": 202,
        "8280": 138,
        "8281": 195,
        "8282": 191,
        "8283": 195,
        "8284": 210,
        "8285": 255,
        "8286": 90,
        "8287": 1,
        "8288": 27,
        "8289": 36,
        "8290": 250,
        "8291": 78,
        "8292": 23,
        "8293": 135,
        "8294": 90,
        "8295": 112,
        "8296": 197,
        "8297": 100,
        "8298": 41,
        "8299": 148,
        "8300": 20,
        "8301": 150,
        "8302": 205,
        "8303": 86,
        "8304": 143,
        "8305": 155,
        "8306": 198,
        "8307": 1,
        "8308": 21,
        "8309": 184,
        "8310": 102,
        "8311": 192,
        "8312": 192,
        "8313": 85,
        "8314": 35,
        "8315": 174,
        "8316": 255,
        "8317": 214,
        "8318": 169,
        "8319": 122,
        "8320": 224,
        "8321": 130,
        "8322": 195,
        "8323": 47,
        "8324": 71,
        "8325": 206,
        "8326": 209,
        "8327": 24,
        "8328": 69,
        "8329": 24,
        "8330": 92,
        "8331": 125,
        "8332": 69,
        "8333": 12,
        "8334": 96,
        "8335": 77,
        "8336": 22,
        "8337": 12,
        "8338": 62,
        "8339": 52,
        "8340": 220,
        "8341": 50,
        "8342": 133,
        "8343": 236,
        "8344": 155,
        "8345": 19,
        "8346": 158,
        "8347": 36,
        "8348": 49,
        "8349": 4,
        "8350": 178,
        "8351": 95,
        "8352": 211,
        "8353": 194,
        "8354": 173,
        "8355": 138,
        "8356": 72,
        "8357": 174,
        "8358": 159,
        "8359": 99,
        "8360": 99,
        "8361": 184,
        "8362": 230,
        "8363": 138,
        "8364": 111,
        "8365": 158,
        "8366": 19,
        "8367": 166,
        "8368": 59,
        "8369": 45,
        "8370": 170,
        "8371": 138,
        "8372": 33,
        "8373": 88,
        "8374": 152,
        "8375": 180,
        "8376": 169,
        "8377": 214,
        "8378": 91,
        "8379": 11,
        "8380": 199,
        "8381": 90,
        "8382": 170,
        "8383": 232,
        "8384": 108,
        "8385": 113,
        "8386": 171,
        "8387": 240,
        "8388": 33,
        "8389": 246,
        "8390": 54,
        "8391": 153,
        "8392": 92,
        "8393": 131,
        "8394": 127,
        "8395": 117,
        "8396": 132,
        "8397": 111,
        "8398": 115,
        "8399": 114,
        "8400": 66,
        "8401": 75,
        "8402": 200,
        "8403": 244,
        "8404": 201,
        "8405": 35,
        "8406": 134,
        "8407": 246,
        "8408": 193,
        "8409": 156,
        "8410": 241,
        "8411": 23,
        "8412": 254,
        "8413": 158,
        "8414": 102,
        "8415": 18,
        "8416": 103,
        "8417": 142,
        "8418": 173,
        "8419": 13,
        "8420": 219,
        "8421": 48,
        "8422": 133,
        "8423": 64,
        "8424": 14,
        "8425": 30,
        "8426": 154,
        "8427": 117,
        "8428": 96,
        "8429": 34,
        "8430": 136,
        "8431": 16,
        "8432": 117,
        "8433": 234,
        "8434": 251,
        "8435": 226,
        "8436": 215,
        "8437": 14,
        "8438": 170,
        "8439": 156,
        "8440": 19,
        "8441": 91,
        "8442": 8,
        "8443": 35,
        "8444": 241,
        "8445": 220,
        "8446": 167,
        "8447": 106,
        "8448": 25,
        "8449": 217,
        "8450": 117,
        "8451": 174,
        "8452": 131,
        "8453": 239,
        "8454": 160,
        "8455": 214,
        "8456": 212,
        "8457": 29,
        "8458": 237,
        "8459": 70,
        "8460": 66,
        "8461": 46,
        "8462": 52,
        "8463": 72,
        "8464": 89,
        "8465": 30,
        "8466": 93,
        "8467": 175,
        "8468": 25,
        "8469": 79,
        "8470": 102,
        "8471": 127,
        "8472": 244,
        "8473": 197,
        "8474": 219,
        "8475": 49,
        "8476": 146,
        "8477": 75,
        "8478": 35,
        "8479": 238,
        "8480": 243,
        "8481": 96,
        "8482": 211,
        "8483": 242,
        "8484": 18,
        "8485": 77,
        "8486": 16,
        "8487": 168,
        "8488": 129,
        "8489": 93,
        "8490": 228,
        "8491": 93,
        "8492": 38,
        "8493": 129,
        "8494": 124,
        "8495": 68,
        "8496": 226,
        "8497": 164,
        "8498": 17,
        "8499": 234,
        "8500": 114,
        "8501": 85,
        "8502": 168,
        "8503": 97,
        "8504": 157,
        "8505": 69,
        "8506": 134,
        "8507": 10,
        "8508": 88,
        "8509": 113,
        "8510": 177,
        "8511": 166,
        "8512": 218,
        "8513": 26,
        "8514": 112,
        "8515": 152,
        "8516": 103,
        "8517": 57,
        "8518": 70,
        "8519": 166,
        "8520": 249,
        "8521": 184,
        "8522": 189,
        "8523": 180,
        "8524": 242,
        "8525": 213,
        "8526": 49,
        "8527": 92,
        "8528": 160,
        "8529": 66,
        "8530": 14,
        "8531": 77,
        "8532": 189,
        "8533": 13,
        "8534": 206,
        "8535": 50,
        "8536": 123,
        "8537": 200,
        "8538": 105,
        "8539": 186,
        "8540": 72,
        "8541": 151,
        "8542": 178,
        "8543": 156,
        "8544": 34,
        "8545": 195,
        "8546": 93,
        "8547": 21,
        "8548": 82,
        "8549": 221,
        "8550": 212,
        "8551": 211,
        "8552": 151,
        "8553": 220,
        "8554": 196,
        "8555": 26,
        "8556": 208,
        "8557": 25,
        "8558": 232,
        "8559": 29,
        "8560": 120,
        "8561": 209,
        "8562": 46,
        "8563": 64,
        "8564": 237,
        "8565": 228,
        "8566": 254,
        "8567": 239,
        "8568": 184,
        "8569": 208,
        "8570": 184,
        "8571": 148,
        "8572": 106,
        "8573": 166,
        "8574": 177,
        "8575": 11,
        "8576": 58,
        "8577": 74,
        "8578": 105,
        "8579": 34,
        "8580": 118,
        "8581": 125,
        "8582": 122,
        "8583": 194,
        "8584": 164,
        "8585": 25,
        "8586": 89,
        "8587": 156,
        "8588": 93,
        "8589": 200,
        "8590": 66,
        "8591": 214,
        "8592": 43,
        "8593": 220,
        "8594": 107,
        "8595": 177,
        "8596": 23,
        "8597": 89,
        "8598": 62,
        "8599": 189,
        "8600": 136,
        "8601": 204,
        "8602": 164,
        "8603": 1,
        "8604": 101,
        "8605": 237,
        "8606": 116,
        "8607": 37,
        "8608": 127,
        "8609": 152,
        "8610": 42,
        "8611": 222,
        "8612": 128,
        "8613": 134,
        "8614": 251,
        "8615": 153,
        "8616": 50,
        "8617": 113,
        "8618": 158,
        "8619": 230,
        "8620": 103,
        "8621": 255,
        "8622": 96,
        "8623": 251,
        "8624": 157,
        "8625": 143,
        "8626": 169,
        "8627": 20,
        "8628": 140,
        "8629": 108,
        "8630": 211,
        "8631": 165,
        "8632": 184,
        "8633": 35,
        "8634": 21,
        "8635": 103,
        "8636": 41,
        "8637": 135,
        "8638": 60,
        "8639": 121,
        "8640": 35,
        "8641": 103,
        "8642": 181,
        "8643": 144,
        "8644": 90,
        "8645": 91,
        "8646": 199,
        "8647": 65,
        "8648": 154,
        "8649": 131,
        "8650": 61,
        "8651": 250,
        "8652": 65,
        "8653": 3,
        "8654": 176,
        "8655": 236,
        "8656": 155,
        "8657": 71,
        "8658": 197,
        "8659": 180,
        "8660": 197,
        "8661": 85,
        "8662": 137,
        "8663": 170,
        "8664": 208,
        "8665": 233,
        "8666": 217,
        "8667": 125,
        "8668": 15,
        "8669": 220,
        "8670": 178,
        "8671": 56,
        "8672": 141,
        "8673": 39,
        "8674": 53,
        "8675": 14,
        "8676": 196,
        "8677": 191,
        "8678": 51,
        "8679": 143,
        "8680": 153,
        "8681": 130,
        "8682": 253,
        "8683": 221,
        "8684": 14,
        "8685": 81,
        "8686": 155,
        "8687": 24,
        "8688": 197,
        "8689": 107,
        "8690": 250,
        "8691": 67,
        "8692": 222,
        "8693": 57,
        "8694": 117,
        "8695": 166,
        "8696": 233,
        "8697": 121,
        "8698": 31,
        "8699": 252,
        "8700": 101,
        "8701": 138,
        "8702": 192,
        "8703": 75,
        "8704": 119,
        "8705": 34,
        "8706": 76,
        "8707": 217,
        "8708": 34,
        "8709": 218,
        "8710": 74,
        "8711": 54,
        "8712": 164,
        "8713": 101,
        "8714": 204,
        "8715": 71,
        "8716": 1,
        "8717": 131,
        "8718": 207,
        "8719": 57,
        "8720": 150,
        "8721": 21,
        "8722": 236,
        "8723": 44,
        "8724": 202,
        "8725": 3,
        "8726": 238,
        "8727": 236,
        "8728": 93,
        "8729": 128,
        "8730": 61,
        "8731": 108,
        "8732": 191,
        "8733": 201,
        "8734": 128,
        "8735": 61,
        "8736": 83,
        "8737": 204,
        "8738": 241,
        "8739": 22,
        "8740": 236,
        "8741": 165,
        "8742": 197,
        "8743": 17,
        "8744": 18,
        "8745": 173,
        "8746": 234,
        "8747": 90,
        "8748": 243,
        "8749": 254,
        "8750": 49,
        "8751": 64,
        "8752": 112,
        "8753": 86,
        "8754": 125,
        "8755": 222,
        "8756": 84,
        "8757": 52,
        "8758": 62,
        "8759": 112,
        "8760": 181,
        "8761": 187,
        "8762": 57,
        "8763": 246,
        "8764": 28,
        "8765": 128,
        "8766": 126,
        "8767": 25,
        "8768": 26,
        "8769": 172,
        "8770": 96,
        "8771": 37,
        "8772": 243,
        "8773": 72,
        "8774": 249,
        "8775": 87,
        "8776": 76,
        "8777": 166,
        "8778": 246,
        "8779": 203,
        "8780": 184,
        "8781": 27,
        "8782": 80,
        "8783": 75,
        "8784": 20,
        "8785": 159,
        "8786": 230,
        "8787": 88,
        "8788": 60,
        "8789": 196,
        "8790": 149,
        "8791": 7,
        "8792": 4,
        "8793": 99,
        "8794": 166,
        "8795": 241,
        "8796": 168,
        "8797": 73,
        "8798": 234,
        "8799": 189,
        "8800": 102,
        "8801": 177,
        "8802": 156,
        "8803": 37,
        "8804": 116,
        "8805": 67,
        "8806": 25,
        "8807": 171,
        "8808": 124,
        "8809": 191,
        "8810": 192,
        "8811": 197,
        "8812": 53,
        "8813": 212,
        "8814": 104,
        "8815": 86,
        "8816": 137,
        "8817": 4,
        "8818": 125,
        "8819": 125,
        "8820": 212,
        "8821": 45,
        "8822": 203,
        "8823": 88,
        "8824": 165,
        "8825": 15,
        "8826": 15,
        "8827": 96,
        "8828": 121,
        "8829": 40,
        "8830": 176,
        "8831": 172,
        "8832": 138,
        "8833": 46,
        "8834": 121,
        "8835": 90,
        "8836": 205,
        "8837": 88,
        "8838": 132,
        "8839": 251,
        "8840": 155,
        "8841": 160,
        "8842": 134,
        "8843": 221,
        "8844": 62,
        "8845": 162,
        "8846": 27,
        "8847": 62,
        "8848": 45,
        "8849": 78,
        "8850": 205,
        "8851": 132,
        "8852": 227,
        "8853": 108,
        "8854": 250,
        "8855": 3,
        "8856": 22,
        "8857": 6,
        "8858": 226,
        "8859": 222,
        "8860": 19,
        "8861": 68,
        "8862": 48,
        "8863": 62,
        "8864": 166,
        "8865": 83,
        "8866": 188,
        "8867": 89,
        "8868": 131,
        "8869": 47,
        "8870": 226,
        "8871": 55,
        "8872": 105,
        "8873": 68,
        "8874": 166,
        "8875": 38,
        "8876": 186,
        "8877": 125,
        "8878": 74,
        "8879": 16,
        "8880": 87,
        "8881": 159,
        "8882": 210,
        "8883": 67,
        "8884": 77,
        "8885": 236,
        "8886": 193,
        "8887": 175,
        "8888": 27,
        "8889": 108,
        "8890": 155,
        "8891": 219,
        "8892": 192,
        "8893": 159,
        "8894": 113,
        "8895": 109,
        "8896": 8,
        "8897": 238,
        "8898": 78,
        "8899": 86,
        "8900": 233,
        "8901": 30,
        "8902": 4,
        "8903": 194,
        "8904": 252,
        "8905": 81,
        "8906": 145,
        "8907": 203,
        "8908": 234,
        "8909": 88,
        "8910": 114,
        "8911": 236,
        "8912": 181,
        "8913": 203,
        "8914": 195,
        "8915": 178,
        "8916": 24,
        "8917": 151,
        "8918": 38,
        "8919": 62,
        "8920": 48,
        "8921": 206,
        "8922": 166,
        "8923": 119,
        "8924": 59,
        "8925": 143,
        "8926": 1,
        "8927": 33,
        "8928": 193,
        "8929": 11,
        "8930": 56,
        "8931": 22,
        "8932": 55,
        "8933": 61,
        "8934": 167,
        "8935": 20,
        "8936": 170,
        "8937": 129,
        "8938": 0,
        "8939": 214,
        "8940": 126,
        "8941": 207,
        "8942": 218,
        "8943": 83,
        "8944": 75,
        "8945": 230,
        "8946": 153,
        "8947": 155,
        "8948": 222,
        "8949": 92,
        "8950": 70,
        "8951": 162,
        "8952": 218,
        "8953": 172,
        "8954": 224,
        "8955": 235,
        "8956": 212,
        "8957": 163,
        "8958": 81,
        "8959": 120,
        "8960": 70,
        "8961": 0,
        "8962": 242,
        "8963": 128,
        "8964": 228,
        "8965": 211,
        "8966": 48,
        "8967": 2,
        "8968": 163,
        "8969": 200,
        "8970": 64,
        "8971": 102,
        "8972": 1,
        "8973": 141,
        "8974": 186,
        "8975": 146,
        "8976": 180,
        "8977": 182,
        "8978": 59,
        "8979": 65,
        "8980": 54,
        "8981": 34,
        "8982": 133,
        "8983": 210,
        "8984": 229,
        "8985": 98,
        "8986": 121,
        "8987": 123,
        "8988": 83,
        "8989": 51,
        "8990": 65,
        "8991": 128,
        "8992": 21,
        "8993": 99,
        "8994": 252,
        "8995": 195,
        "8996": 115,
        "8997": 49,
        "8998": 30,
        "8999": 254,
        "9000": 204,
        "9001": 222,
        "9002": 230,
        "9003": 161,
        "9004": 212,
        "9005": 134,
        "9006": 253,
        "9007": 120,
        "9008": 38,
        "9009": 249,
        "9010": 104,
        "9011": 37,
        "9012": 84,
        "9013": 171,
        "9014": 116,
        "9015": 5,
        "9016": 255,
        "9017": 140,
        "9018": 51,
        "9019": 157,
        "9020": 71,
        "9021": 78,
        "9022": 134,
        "9023": 188,
        "9024": 35,
        "9025": 110,
        "9026": 12,
        "9027": 139,
        "9028": 26,
        "9029": 17,
        "9030": 49,
        "9031": 85,
        "9032": 210,
        "9033": 127,
        "9034": 47,
        "9035": 7,
        "9036": 137,
        "9037": 134,
        "9038": 83,
        "9039": 55,
        "9040": 164,
        "9041": 74,
        "9042": 132,
        "9043": 118,
        "9044": 132,
        "9045": 14,
        "9046": 159,
        "9047": 186,
        "9048": 108,
        "9049": 118,
        "9050": 251,
        "9051": 61,
        "9052": 91,
        "9053": 0,
        "9054": 214,
        "9055": 8,
        "9056": 143,
        "9057": 160,
        "9058": 21,
        "9059": 195,
        "9060": 72,
        "9061": 16,
        "9062": 8,
        "9063": 199,
        "9064": 134,
        "9065": 105,
        "9066": 64,
        "9067": 139,
        "9068": 168,
        "9069": 208,
        "9070": 112,
        "9071": 192,
        "9072": 239,
        "9073": 21,
        "9074": 19,
        "9075": 181,
        "9076": 249,
        "9077": 113,
        "9078": 127,
        "9079": 17,
        "9080": 211,
        "9081": 44,
        "9082": 44,
        "9083": 135,
        "9084": 80,
        "9085": 5,
        "9086": 227,
        "9087": 62,
        "9088": 14,
        "9089": 185,
        "9090": 113,
        "9091": 176,
        "9092": 224,
        "9093": 154,
        "9094": 135,
        "9095": 229,
        "9096": 40,
        "9097": 234,
        "9098": 177,
        "9099": 195,
        "9100": 211,
        "9101": 146,
        "9102": 76,
        "9103": 114,
        "9104": 162,
        "9105": 249,
        "9106": 108,
        "9107": 7,
        "9108": 2,
        "9109": 200,
        "9110": 44,
        "9111": 219,
        "9112": 222,
        "9113": 0,
        "9114": 243,
        "9115": 88,
        "9116": 60,
        "9117": 44,
        "9118": 245,
        "9119": 238,
        "9120": 255,
        "9121": 160,
        "9122": 172,
        "9123": 146,
        "9124": 74,
        "9125": 121,
        "9126": 204,
        "9127": 94,
        "9128": 116,
        "9129": 230,
        "9130": 152,
        "9131": 36,
        "9132": 219,
        "9133": 168,
        "9134": 17,
        "9135": 61,
        "9136": 222,
        "9137": 44,
        "9138": 224,
        "9139": 195,
        "9140": 124,
        "9141": 147,
        "9142": 163,
        "9143": 124,
        "9144": 31,
        "9145": 95,
        "9146": 124,
        "9147": 111,
        "9148": 70,
        "9149": 199,
        "9150": 222,
        "9151": 67,
        "9152": 107,
        "9153": 244,
        "9154": 34,
        "9155": 197,
        "9156": 239,
        "9157": 103,
        "9158": 148,
        "9159": 234,
        "9160": 7,
        "9161": 158,
        "9162": 186,
        "9163": 215,
        "9164": 212,
        "9165": 43,
        "9166": 159,
        "9167": 31,
        "9168": 144,
        "9169": 122,
        "9170": 191,
        "9171": 174,
        "9172": 11,
        "9173": 48,
        "9174": 113,
        "9175": 9,
        "9176": 194,
        "9177": 24,
        "9178": 184,
        "9179": 147,
        "9180": 73,
        "9181": 234,
        "9182": 185,
        "9183": 56,
        "9184": 237,
        "9185": 96,
        "9186": 100,
        "9187": 3,
        "9188": 181,
        "9189": 87,
        "9190": 12,
        "9191": 40,
        "9192": 237,
        "9193": 112,
        "9194": 190,
        "9195": 181,
        "9196": 33,
        "9197": 231,
        "9198": 240,
        "9199": 192,
        "9200": 15,
        "9201": 221,
        "9202": 44,
        "9203": 36,
        "9204": 41,
        "9205": 183,
        "9206": 135,
        "9207": 139,
        "9208": 205,
        "9209": 199,
        "9210": 62,
        "9211": 214,
        "9212": 75,
        "9213": 83,
        "9214": 208,
        "9215": 44,
        "9216": 54,
        "9217": 113,
        "9218": 92,
        "9219": 126,
        "9220": 109,
        "9221": 233,
        "9222": 92,
        "9223": 119,
        "9224": 173,
        "9225": 189,
        "9226": 57,
        "9227": 157,
        "9228": 22,
        "9229": 24,
        "9230": 183,
        "9231": 173,
        "9232": 69,
        "9233": 93,
        "9234": 43,
        "9235": 190,
        "9236": 193,
        "9237": 76,
        "9238": 178,
        "9239": 163,
        "9240": 216,
        "9241": 44,
        "9242": 222,
        "9243": 70,
        "9244": 97,
        "9245": 165,
        "9246": 62,
        "9247": 225,
        "9248": 66,
        "9249": 9,
        "9250": 197,
        "9251": 116,
        "9252": 203,
        "9253": 193,
        "9254": 129,
        "9255": 242,
        "9256": 220,
        "9257": 59,
        "9258": 255,
        "9259": 139,
        "9260": 112,
        "9261": 133,
        "9262": 47,
        "9263": 167,
        "9264": 44,
        "9265": 33,
        "9266": 132,
        "9267": 46,
        "9268": 91,
        "9269": 196,
        "9270": 69,
        "9271": 63,
        "9272": 138,
        "9273": 173,
        "9274": 203,
        "9275": 34,
        "9276": 87,
        "9277": 129,
        "9278": 118,
        "9279": 245,
        "9280": 197,
        "9281": 242,
        "9282": 11,
        "9283": 19,
        "9284": 154,
        "9285": 230,
        "9286": 142,
        "9287": 62,
        "9288": 48,
        "9289": 29,
        "9290": 66,
        "9291": 166,
        "9292": 12,
        "9293": 56,
        "9294": 13,
        "9295": 188,
        "9296": 91,
        "9297": 217,
        "9298": 206,
        "9299": 24,
        "9300": 242,
        "9301": 136,
        "9302": 77,
        "9303": 73,
        "9304": 127,
        "9305": 105,
        "9306": 97,
        "9307": 243,
        "9308": 65,
        "9309": 150,
        "9310": 233,
        "9311": 228,
        "9312": 251,
        "9313": 160,
        "9314": 191,
        "9315": 177,
        "9316": 246,
        "9317": 243,
        "9318": 146,
        "9319": 105,
        "9320": 244,
        "9321": 83,
        "9322": 108,
        "9323": 181,
        "9324": 125,
        "9325": 234,
        "9326": 170,
        "9327": 232,
        "9328": 58,
        "9329": 154,
        "9330": 136,
        "9331": 164,
        "9332": 89,
        "9333": 212,
        "9334": 79,
        "9335": 132,
        "9336": 230,
        "9337": 35,
        "9338": 18,
        "9339": 250,
        "9340": 47,
        "9341": 63,
        "9342": 24,
        "9343": 112,
        "9344": 155,
        "9345": 109,
        "9346": 36,
        "9347": 101,
        "9348": 152,
        "9349": 238,
        "9350": 107,
        "9351": 154,
        "9352": 63,
        "9353": 91,
        "9354": 48,
        "9355": 253,
        "9356": 62,
        "9357": 246,
        "9358": 32,
        "9359": 167,
        "9360": 8,
        "9361": 147,
        "9362": 99,
        "9363": 26,
        "9364": 10,
        "9365": 234,
        "9366": 36,
        "9367": 93,
        "9368": 71,
        "9369": 2,
        "9370": 57,
        "9371": 101,
        "9372": 136,
        "9373": 55,
        "9374": 135,
        "9375": 65,
        "9376": 17,
        "9377": 57,
        "9378": 7,
        "9379": 106,
        "9380": 24,
        "9381": 255,
        "9382": 194,
        "9383": 251,
        "9384": 205,
        "9385": 92,
        "9386": 31,
        "9387": 114,
        "9388": 80,
        "9389": 130,
        "9390": 137,
        "9391": 23,
        "9392": 28,
        "9393": 170,
        "9394": 83,
        "9395": 158,
        "9396": 53,
        "9397": 179,
        "9398": 135,
        "9399": 236,
        "9400": 87,
        "9401": 195,
        "9402": 17,
        "9403": 178,
        "9404": 17,
        "9405": 145,
        "9406": 152,
        "9407": 211,
        "9408": 100,
        "9409": 139,
        "9410": 21,
        "9411": 119,
        "9412": 127,
        "9413": 5,
        "9414": 250,
        "9415": 178,
        "9416": 23,
        "9417": 233,
        "9418": 121,
        "9419": 103,
        "9420": 12,
        "9421": 223,
        "9422": 188,
        "9423": 245,
        "9424": 209,
        "9425": 18,
        "9426": 192,
        "9427": 131,
        "9428": 244,
        "9429": 67,
        "9430": 1,
        "9431": 106,
        "9432": 50,
        "9433": 190,
        "9434": 159,
        "9435": 219,
        "9436": 73,
        "9437": 38,
        "9438": 22,
        "9439": 11,
        "9440": 141,
        "9441": 9,
        "9442": 253,
        "9443": 146,
        "9444": 196,
        "9445": 117,
        "9446": 93,
        "9447": 104,
        "9448": 108,
        "9449": 104,
        "9450": 244,
        "9451": 57,
        "9452": 23,
        "9453": 106,
        "9454": 204,
        "9455": 106,
        "9456": 245,
        "9457": 134,
        "9458": 40,
        "9459": 49,
        "9460": 74,
        "9461": 21,
        "9462": 228,
        "9463": 129,
        "9464": 218,
        "9465": 235,
        "9466": 176,
        "9467": 29,
        "9468": 141,
        "9469": 81,
        "9470": 115,
        "9471": 220,
        "9472": 204,
        "9473": 152,
        "9474": 158,
        "9475": 212,
        "9476": 37,
        "9477": 220,
        "9478": 214,
        "9479": 204,
        "9480": 252,
        "9481": 82,
        "9482": 104,
        "9483": 94,
        "9484": 6,
        "9485": 30,
        "9486": 60,
        "9487": 97,
        "9488": 253,
        "9489": 135,
        "9490": 17,
        "9491": 15,
        "9492": 157,
        "9493": 171,
        "9494": 232,
        "9495": 169,
        "9496": 44,
        "9497": 185,
        "9498": 39,
        "9499": 229,
        "9500": 27,
        "9501": 190,
        "9502": 30,
        "9503": 210,
        "9504": 117,
        "9505": 28,
        "9506": 220,
        "9507": 52,
        "9508": 220,
        "9509": 122,
        "9510": 89,
        "9511": 187,
        "9512": 13,
        "9513": 205,
        "9514": 238,
        "9515": 2,
        "9516": 51,
        "9517": 139,
        "9518": 243,
        "9519": 130,
        "9520": 99,
        "9521": 254,
        "9522": 245,
        "9523": 236,
        "9524": 253,
        "9525": 165,
        "9526": 68,
        "9527": 221,
        "9528": 95,
        "9529": 182,
        "9530": 110,
        "9531": 2,
        "9532": 138,
        "9533": 73,
        "9534": 77,
        "9535": 45,
        "9536": 5,
        "9537": 128,
        "9538": 74,
        "9539": 13,
        "9540": 166,
        "9541": 172,
        "9542": 115,
        "9543": 11,
        "9544": 40,
        "9545": 24,
        "9546": 217,
        "9547": 241,
        "9548": 82,
        "9549": 146,
        "9550": 170,
        "9551": 109,
        "9552": 240,
        "9553": 194,
        "9554": 12,
        "9555": 219,
        "9556": 63,
        "9557": 104,
        "9558": 93,
        "9559": 201,
        "9560": 226,
        "9561": 101,
        "9562": 56,
        "9563": 251,
        "9564": 34,
        "9565": 205,
        "9566": 155,
        "9567": 9,
        "9568": 94,
        "9569": 96,
        "9570": 74,
        "9571": 224,
        "9572": 194,
        "9573": 42,
        "9574": 198,
        "9575": 252,
        "9576": 9,
        "9577": 16,
        "9578": 86,
        "9579": 200,
        "9580": 63,
        "9581": 152,
        "9582": 235,
        "9583": 234,
        "9584": 229,
        "9585": 118,
        "9586": 27,
        "9587": 146,
        "9588": 24,
        "9589": 191,
        "9590": 42,
        "9591": 221,
        "9592": 43,
        "9593": 242,
        "9594": 173,
        "9595": 49,
        "9596": 59,
        "9597": 10,
        "9598": 169,
        "9599": 208,
        "9600": 30,
        "9601": 251,
        "9602": 249,
        "9603": 253,
        "9604": 251,
        "9605": 219,
        "9606": 177,
        "9607": 148,
        "9608": 39,
        "9609": 15,
        "9610": 8,
        "9611": 223,
        "9612": 47,
        "9613": 236,
        "9614": 80,
        "9615": 52,
        "9616": 227,
        "9617": 87,
        "9618": 115,
        "9619": 113,
        "9620": 222,
        "9621": 95,
        "9622": 25,
        "9623": 73,
        "9624": 200,
        "9625": 230,
        "9626": 74,
        "9627": 183,
        "9628": 73,
        "9629": 116,
        "9630": 249,
        "9631": 157,
        "9632": 194,
        "9633": 216,
        "9634": 11,
        "9635": 82,
        "9636": 6,
        "9637": 134,
        "9638": 241,
        "9639": 184,
        "9640": 55,
        "9641": 120,
        "9642": 5,
        "9643": 120,
        "9644": 151,
        "9645": 239,
        "9646": 183,
        "9647": 149,
        "9648": 39,
        "9649": 105,
        "9650": 104,
        "9651": 192,
        "9652": 246,
        "9653": 15,
        "9654": 19,
        "9655": 117,
        "9656": 231,
        "9657": 170,
        "9658": 11,
        "9659": 62,
        "9660": 57,
        "9661": 122,
        "9662": 14,
        "9663": 152,
        "9664": 107,
        "9665": 228,
        "9666": 135,
        "9667": 125,
        "9668": 194,
        "9669": 83,
        "9670": 77,
        "9671": 188,
        "9672": 150,
        "9673": 163,
        "9674": 69,
        "9675": 193,
        "9676": 187,
        "9677": 241,
        "9678": 56,
        "9679": 87,
        "9680": 209,
        "9681": 212,
        "9682": 222,
        "9683": 101,
        "9684": 156,
        "9685": 192,
        "9686": 186,
        "9687": 205,
        "9688": 70,
        "9689": 201,
        "9690": 35,
        "9691": 219,
        "9692": 12,
        "9693": 60,
        "9694": 253,
        "9695": 234,
        "9696": 118,
        "9697": 3,
        "9698": 199,
        "9699": 88,
        "9700": 253,
        "9701": 223,
        "9702": 129,
        "9703": 246,
        "9704": 215,
        "9705": 98,
        "9706": 108,
        "9707": 107,
        "9708": 95,
        "9709": 100,
        "9710": 186,
        "9711": 2,
        "9712": 29,
        "9713": 229,
        "9714": 159,
        "9715": 21,
        "9716": 97,
        "9717": 139,
        "9718": 31,
        "9719": 7,
        "9720": 191,
        "9721": 74,
        "9722": 131,
        "9723": 125,
        "9724": 236,
        "9725": 19,
        "9726": 208,
        "9727": 200,
        "9728": 240,
        "9729": 43,
        "9730": 166,
        "9731": 45,
        "9732": 73,
        "9733": 42,
        "9734": 89,
        "9735": 76,
        "9736": 193,
        "9737": 147,
        "9738": 68,
        "9739": 6,
        "9740": 160,
        "9741": 208,
        "9742": 154,
        "9743": 154,
        "9744": 181,
        "9745": 102,
        "9746": 199,
        "9747": 89,
        "9748": 80,
        "9749": 163,
        "9750": 128,
        "9751": 152,
        "9752": 152,
        "9753": 41,
        "9754": 182,
        "9755": 41,
        "9756": 171,
        "9757": 96,
        "9758": 213,
        "9759": 211,
        "9760": 109,
        "9761": 96,
        "9762": 123,
        "9763": 240,
        "9764": 29,
        "9765": 168,
        "9766": 28,
        "9767": 228,
        "9768": 35,
        "9769": 60,
        "9770": 194,
        "9771": 237,
        "9772": 219,
        "9773": 120,
        "9774": 163,
        "9775": 161,
        "9776": 136,
        "9777": 63,
        "9778": 243,
        "9779": 254,
        "9780": 17,
        "9781": 40,
        "9782": 127,
        "9783": 18,
        "9784": 31,
        "9785": 49,
        "9786": 119,
        "9787": 13,
        "9788": 118,
        "9789": 21,
        "9790": 40,
        "9791": 245,
        "9792": 137,
        "9793": 92,
        "9794": 166,
        "9795": 22,
        "9796": 36,
        "9797": 157,
        "9798": 69,
        "9799": 92,
        "9800": 194,
        "9801": 152,
        "9802": 170,
        "9803": 150,
        "9804": 213,
        "9805": 136,
        "9806": 3,
        "9807": 157,
        "9808": 57,
        "9809": 59,
        "9810": 148,
        "9811": 147,
        "9812": 223,
        "9813": 235,
        "9814": 45,
        "9815": 135,
        "9816": 245,
        "9817": 7,
        "9818": 122,
        "9819": 6,
        "9820": 44,
        "9821": 239,
        "9822": 115,
        "9823": 2,
        "9824": 10,
        "9825": 86,
        "9826": 68,
        "9827": 4,
        "9828": 57,
        "9829": 161,
        "9830": 72,
        "9831": 83,
        "9832": 151,
        "9833": 210,
        "9834": 8,
        "9835": 234,
        "9836": 171,
        "9837": 131,
        "9838": 170,
        "9839": 208,
        "9840": 72,
        "9841": 145,
        "9842": 95,
        "9843": 208,
        "9844": 66,
        "9845": 122,
        "9846": 48,
        "9847": 230,
        "9848": 99,
        "9849": 199,
        "9850": 194,
        "9851": 180,
        "9852": 110,
        "9853": 151,
        "9854": 192,
        "9855": 95,
        "9856": 70,
        "9857": 237,
        "9858": 215,
        "9859": 186,
        "9860": 112,
        "9861": 168,
        "9862": 212,
        "9863": 135,
        "9864": 215,
        "9865": 203,
        "9866": 102,
        "9867": 236,
        "9868": 230,
        "9869": 91,
        "9870": 117,
        "9871": 230,
        "9872": 221,
        "9873": 137,
        "9874": 249,
        "9875": 98,
        "9876": 94,
        "9877": 215,
        "9878": 92,
        "9879": 184,
        "9880": 155,
        "9881": 34,
        "9882": 252,
        "9883": 171,
        "9884": 253,
        "9885": 235,
        "9886": 125,
        "9887": 2,
        "9888": 141,
        "9889": 143,
        "9890": 26,
        "9891": 241,
        "9892": 212,
        "9893": 84,
        "9894": 166,
        "9895": 105,
        "9896": 49,
        "9897": 200,
        "9898": 183,
        "9899": 237,
        "9900": 141,
        "9901": 131,
        "9902": 80,
        "9903": 109,
        "9904": 64,
        "9905": 86,
        "9906": 90,
        "9907": 120,
        "9908": 124,
        "9909": 15,
        "9910": 55,
        "9911": 112,
        "9912": 52,
        "9913": 232,
        "9914": 70,
        "9915": 129,
        "9916": 248,
        "9917": 151,
        "9918": 217,
        "9919": 133,
        "9920": 5,
        "9921": 229,
        "9922": 30,
        "9923": 181,
        "9924": 23,
        "9925": 127,
        "9926": 205,
        "9927": 204,
        "9928": 33,
        "9929": 155,
        "9930": 1,
        "9931": 30,
        "9932": 218,
        "9933": 32,
        "9934": 0,
        "9935": 47,
        "9936": 202,
        "9937": 233,
        "9938": 254,
        "9939": 221,
        "9940": 19,
        "9941": 232,
        "9942": 244,
        "9943": 113,
        "9944": 230,
        "9945": 13,
        "9946": 0,
        "9947": 234,
        "9948": 242,
        "9949": 205,
        "9950": 214,
        "9951": 14,
        "9952": 58,
        "9953": 141,
        "9954": 106,
        "9955": 126,
        "9956": 22,
        "9957": 223,
        "9958": 123,
        "9959": 187,
        "9960": 255,
        "9961": 51,
        "9962": 92,
        "9963": 205,
        "9964": 127,
        "9965": 166,
        "9966": 82,
        "9967": 233,
        "9968": 43,
        "9969": 138,
        "9970": 165,
        "9971": 242,
        "9972": 10,
        "9973": 101,
        "9974": 194,
        "9975": 36,
        "9976": 9,
        "9977": 13,
        "9978": 164,
        "9979": 173,
        "9980": 212,
        "9981": 152,
        "9982": 213,
        "9983": 157,
        "9984": 2,
        "9985": 51,
        "9986": 186,
        "9987": 251,
        "9988": 208,
        "9989": 82,
        "9990": 120,
        "9991": 24,
        "9992": 41,
        "9993": 231,
        "9994": 136,
        "9995": 247,
        "9996": 118,
        "9997": 232,
        "9998": 195,
        "9999": 163,
        "10000": 168,
        "10001": 35,
        "10002": 120,
        "10003": 152,
        "10004": 195,
        "10005": 23,
        "10006": 143,
        "10007": 177,
        "10008": 233,
        "10009": 160,
        "10010": 218,
        "10011": 11,
        "10012": 231,
        "10013": 236,
        "10014": 86,
        "10015": 23,
        "10016": 151,
        "10017": 201,
        "10018": 26,
        "10019": 241,
        "10020": 209,
        "10021": 189,
        "10022": 164,
        "10023": 198,
        "10024": 158,
        "10025": 122,
        "10026": 177,
        "10027": 13,
        "10028": 175,
        "10029": 239,
        "10030": 223,
        "10031": 252,
        "10032": 139,
        "10033": 129,
        "10034": 244,
        "10035": 2,
        "10036": 90,
        "10037": 28,
        "10038": 5,
        "10039": 213,
        "10040": 73,
        "10041": 131,
        "10042": 102,
        "10043": 114,
        "10044": 188,
        "10045": 236,
        "10046": 43,
        "10047": 227,
        "10048": 138,
        "10049": 225,
        "10050": 30,
        "10051": 114,
        "10052": 180,
        "10053": 116,
        "10054": 179,
        "10055": 170,
        "10056": 23,
        "10057": 212,
        "10058": 105,
        "10059": 117,
        "10060": 27,
        "10061": 36,
        "10062": 17,
        "10063": 203,
        "10064": 106,
        "10065": 184,
        "10066": 106,
        "10067": 81,
        "10068": 141,
        "10069": 142,
        "10070": 47,
        "10071": 66,
        "10072": 90,
        "10073": 53,
        "10074": 212,
        "10075": 40,
        "10076": 169,
        "10077": 50,
        "10078": 178,
        "10079": 24,
        "10080": 150,
        "10081": 148,
        "10082": 48,
        "10083": 220,
        "10084": 61,
        "10085": 22,
        "10086": 246,
        "10087": 67,
        "10088": 186,
        "10089": 185,
        "10090": 96,
        "10091": 17,
        "10092": 198,
        "10093": 52,
        "10094": 98,
        "10095": 2,
        "10096": 92,
        "10097": 93,
        "10098": 161,
        "10099": 97,
        "10100": 221,
        "10101": 31,
        "10102": 98,
        "10103": 68,
        "10104": 225,
        "10105": 230,
        "10106": 39,
        "10107": 156,
        "10108": 232,
        "10109": 234,
        "10110": 221,
        "10111": 123,
        "10112": 98,
        "10113": 8,
        "10114": 234,
        "10115": 77,
        "10116": 157,
        "10117": 16,
        "10118": 138,
        "10119": 132,
        "10120": 169,
        "10121": 200,
        "10122": 85,
        "10123": 75,
        "10124": 178,
        "10125": 228,
        "10126": 45,
        "10127": 177,
        "10128": 58,
        "10129": 184,
        "10130": 107,
        "10131": 218,
        "10132": 157,
        "10133": 89,
        "10134": 21,
        "10135": 154,
        "10136": 127,
        "10137": 235,
        "10138": 163,
        "10139": 156,
        "10140": 16,
        "10141": 132,
        "10142": 68,
        "10143": 207,
        "10144": 85,
        "10145": 59,
        "10146": 15,
        "10147": 108,
        "10148": 19,
        "10149": 198,
        "10150": 90,
        "10151": 94,
        "10152": 25,
        "10153": 226,
        "10154": 130,
        "10155": 40,
        "10156": 145,
        "10157": 173,
        "10158": 128,
        "10159": 210,
        "10160": 217,
        "10161": 216,
        "10162": 216,
        "10163": 145,
        "10164": 74,
        "10165": 59,
        "10166": 252,
        "10167": 141,
        "10168": 216,
        "10169": 147,
        "10170": 45,
        "10171": 102,
        "10172": 81,
        "10173": 34,
        "10174": 147,
        "10175": 108,
        "10176": 203,
        "10177": 218,
        "10178": 234,
        "10179": 83,
        "10180": 142,
        "10181": 120,
        "10182": 152,
        "10183": 1,
        "10184": 158,
        "10185": 230,
        "10186": 161,
        "10187": 137,
        "10188": 57,
        "10189": 233,
        "10190": 219,
        "10191": 69,
        "10192": 17,
        "10193": 174,
        "10194": 214,
        "10195": 38,
        "10196": 166,
        "10197": 192,
        "10198": 52,
        "10199": 36,
        "10200": 128,
        "10201": 78,
        "10202": 119,
        "10203": 59,
        "10204": 38,
        "10205": 100,
        "10206": 14,
        "10207": 103,
        "10208": 240,
        "10209": 71,
        "10210": 109,
        "10211": 107,
        "10212": 216,
        "10213": 174,
        "10214": 220,
        "10215": 236,
        "10216": 87,
        "10217": 152,
        "10218": 30,
        "10219": 30,
        "10220": 160,
        "10221": 142,
        "10222": 121,
        "10223": 34,
        "10224": 184,
        "10225": 132,
        "10226": 0,
        "10227": 84,
        "10228": 222,
        "10229": 124,
        "10230": 3,
        "10231": 233,
        "10232": 155,
        "10233": 96,
        "10234": 35,
        "10235": 238,
        "10236": 71,
        "10237": 136,
        "10238": 101,
        "10239": 150,
        "10240": 238,
        "10241": 27,
        "10242": 105,
        "10243": 245,
        "10244": 74,
        "10245": 225,
        "10246": 26,
        "10247": 209,
        "10248": 22,
        "10249": 40,
        "10250": 194,
        "10251": 247,
        "10252": 211,
        "10253": 97,
        "10254": 151,
        "10255": 192,
        "10256": 120,
        "10257": 120,
        "10258": 54,
        "10259": 11,
        "10260": 32,
        "10261": 64,
        "10262": 218,
        "10263": 213,
        "10264": 223,
        "10265": 109,
        "10266": 15,
        "10267": 152,
        "10268": 27,
        "10269": 186,
        "10270": 210,
        "10271": 132,
        "10272": 57,
        "10273": 25,
        "10274": 238,
        "10275": 30,
        "10276": 100,
        "10277": 77,
        "10278": 156,
        "10279": 215,
        "10280": 49,
        "10281": 36,
        "10282": 125,
        "10283": 169,
        "10284": 46,
        "10285": 107,
        "10286": 235,
        "10287": 31,
        "10288": 27,
        "10289": 30,
        "10290": 102,
        "10291": 250,
        "10292": 25,
        "10293": 84,
        "10294": 26,
        "10295": 117,
        "10296": 193,
        "10297": 228,
        "10298": 54,
        "10299": 166,
        "10300": 192,
        "10301": 6,
        "10302": 74,
        "10303": 95,
        "10304": 179,
        "10305": 177,
        "10306": 105,
        "10307": 107,
        "10308": 139,
        "10309": 118,
        "10310": 99,
        "10311": 148,
        "10312": 185,
        "10313": 193,
        "10314": 114,
        "10315": 8,
        "10316": 184,
        "10317": 104,
        "10318": 19,
        "10319": 232,
        "10320": 6,
        "10321": 188,
        "10322": 250,
        "10323": 56,
        "10324": 226,
        "10325": 118,
        "10326": 22,
        "10327": 99,
        "10328": 200,
        "10329": 83,
        "10330": 78,
        "10331": 253,
        "10332": 43,
        "10333": 164,
        "10334": 33,
        "10335": 112,
        "10336": 117,
        "10337": 150,
        "10338": 198,
        "10339": 81,
        "10340": 12,
        "10341": 239,
        "10342": 254,
        "10343": 10,
        "10344": 138,
        "10345": 16,
        "10346": 114,
        "10347": 74,
        "10348": 25,
        "10349": 199,
        "10350": 197,
        "10351": 16,
        "10352": 103,
        "10353": 118,
        "10354": 232,
        "10355": 154,
        "10356": 225,
        "10357": 7,
        "10358": 237,
        "10359": 37,
        "10360": 160,
        "10361": 235,
        "10362": 245,
        "10363": 90,
        "10364": 21,
        "10365": 146,
        "10366": 184,
        "10367": 24,
        "10368": 149,
        "10369": 125,
        "10370": 29,
        "10371": 130,
        "10372": 184,
        "10373": 240,
        "10374": 169,
        "10375": 246,
        "10376": 118,
        "10377": 202,
        "10378": 164,
        "10379": 176,
        "10380": 87,
        "10381": 197,
        "10382": 221,
        "10383": 184,
        "10384": 110,
        "10385": 103,
        "10386": 212,
        "10387": 44,
        "10388": 87,
        "10389": 213,
        "10390": 211,
        "10391": 207,
        "10392": 253,
        "10393": 56,
        "10394": 204,
        "10395": 98,
        "10396": 109,
        "10397": 132,
        "10398": 117,
        "10399": 51,
        "10400": 47,
        "10401": 104,
        "10402": 138,
        "10403": 231,
        "10404": 225,
        "10405": 162,
        "10406": 200,
        "10407": 118,
        "10408": 239,
        "10409": 1,
        "10410": 101,
        "10411": 55,
        "10412": 155,
        "10413": 215,
        "10414": 231,
        "10415": 167,
        "10416": 67,
        "10417": 90,
        "10418": 240,
        "10419": 122,
        "10420": 253,
        "10421": 176,
        "10422": 96,
        "10423": 62,
        "10424": 167,
        "10425": 203,
        "10426": 196,
        "10427": 139,
        "10428": 222,
        "10429": 118,
        "10430": 209,
        "10431": 199,
        "10432": 193,
        "10433": 96,
        "10434": 124,
        "10435": 197,
        "10436": 109,
        "10437": 224,
        "10438": 240,
        "10439": 160,
        "10440": 189,
        "10441": 133,
        "10442": 87,
        "10443": 40,
        "10444": 148,
        "10445": 0,
        "10446": 18,
        "10447": 246,
        "10448": 128,
        "10449": 227,
        "10450": 152,
        "10451": 187,
        "10452": 189,
        "10453": 133,
        "10454": 209,
        "10455": 30,
        "10456": 115,
        "10457": 205,
        "10458": 190,
        "10459": 111,
        "10460": 16,
        "10461": 96,
        "10462": 19,
        "10463": 51,
        "10464": 17,
        "10465": 144,
        "10466": 157,
        "10467": 169,
        "10468": 144,
        "10469": 97,
        "10470": 5,
        "10471": 78,
        "10472": 144,
        "10473": 158,
        "10474": 251,
        "10475": 162,
        "10476": 122,
        "10477": 162,
        "10478": 216,
        "10479": 245,
        "10480": 118,
        "10481": 13,
        "10482": 180,
        "10483": 185,
        "10484": 55,
        "10485": 37,
        "10486": 143,
        "10487": 252,
        "10488": 119,
        "10489": 163,
        "10490": 147,
        "10491": 122,
        "10492": 22,
        "10493": 133,
        "10494": 86,
        "10495": 141,
        "10496": 75,
        "10497": 219,
        "10498": 1,
        "10499": 165,
        "10500": 30,
        "10501": 195,
        "10502": 35,
        "10503": 211,
        "10504": 146,
        "10505": 152,
        "10506": 8,
        "10507": 233,
        "10508": 154,
        "10509": 4,
        "10510": 30,
        "10511": 12,
        "10512": 143,
        "10513": 185,
        "10514": 203,
        "10515": 80,
        "10516": 238,
        "10517": 203,
        "10518": 100,
        "10519": 50,
        "10520": 49,
        "10521": 64,
        "10522": 106,
        "10523": 58,
        "10524": 43,
        "10525": 145,
        "10526": 140,
        "10527": 76,
        "10528": 26,
        "10529": 1,
        "10530": 170,
        "10531": 222,
        "10532": 64,
        "10533": 5,
        "10534": 97,
        "10535": 25,
        "10536": 127,
        "10537": 109,
        "10538": 239,
        "10539": 114,
        "10540": 105,
        "10541": 216,
        "10542": 5,
        "10543": 225,
        "10544": 128,
        "10545": 207,
        "10546": 8,
        "10547": 192,
        "10548": 40,
        "10549": 132,
        "10550": 201,
        "10551": 164,
        "10552": 152,
        "10553": 98,
        "10554": 194,
        "10555": 46,
        "10556": 218,
        "10557": 136,
        "10558": 244,
        "10559": 14,
        "10560": 50,
        "10561": 234,
        "10562": 52,
        "10563": 252,
        "10564": 213,
        "10565": 250,
        "10566": 100,
        "10567": 84,
        "10568": 107,
        "10569": 81,
        "10570": 67,
        "10571": 229,
        "10572": 136,
        "10573": 36,
        "10574": 67,
        "10575": 174,
        "10576": 20,
        "10577": 130,
        "10578": 251,
        "10579": 182,
        "10580": 117,
        "10581": 157,
        "10582": 174,
        "10583": 35,
        "10584": 56,
        "10585": 135,
        "10586": 207,
        "10587": 217,
        "10588": 29,
        "10589": 143,
        "10590": 117,
        "10591": 24,
        "10592": 212,
        "10593": 32,
        "10594": 19,
        "10595": 227,
        "10596": 19,
        "10597": 214,
        "10598": 135,
        "10599": 248,
        "10600": 93,
        "10601": 146,
        "10602": 191,
        "10603": 13,
        "10604": 85,
        "10605": 59,
        "10606": 152,
        "10607": 178,
        "10608": 100,
        "10609": 24,
        "10610": 117,
        "10611": 129,
        "10612": 224,
        "10613": 171,
        "10614": 182,
        "10615": 155,
        "10616": 95,
        "10617": 107,
        "10618": 103,
        "10619": 32,
        "10620": 72,
        "10621": 224,
        "10622": 51,
        "10623": 44,
        "10624": 100,
        "10625": 234,
        "10626": 97,
        "10627": 40,
        "10628": 249,
        "10629": 41,
        "10630": 79,
        "10631": 57,
        "10632": 208,
        "10633": 33,
        "10634": 235,
        "10635": 224,
        "10636": 167,
        "10637": 235,
        "10638": 5,
        "10639": 39,
        "10640": 47,
        "10641": 87,
        "10642": 19,
        "10643": 177,
        "10644": 205,
        "10645": 84,
        "10646": 151,
        "10647": 60,
        "10648": 213,
        "10649": 80,
        "10650": 22,
        "10651": 163,
        "10652": 120,
        "10653": 56,
        "10654": 213,
        "10655": 71,
        "10656": 33,
        "10657": 88,
        "10658": 188,
        "10659": 231,
        "10660": 8,
        "10661": 27,
        "10662": 154,
        "10663": 210,
        "10664": 185,
        "10665": 82,
        "10666": 2,
        "10667": 31,
        "10668": 226,
        "10669": 35,
        "10670": 68,
        "10671": 147,
        "10672": 81,
        "10673": 225,
        "10674": 100,
        "10675": 154,
        "10676": 109,
        "10677": 12,
        "10678": 103,
        "10679": 84,
        "10680": 13,
        "10681": 246,
        "10682": 25,
        "10683": 41,
        "10684": 101,
        "10685": 69,
        "10686": 121,
        "10687": 139,
        "10688": 235,
        "10689": 185,
        "10690": 86,
        "10691": 232,
        "10692": 85,
        "10693": 177,
        "10694": 152,
        "10695": 254,
        "10696": 239,
        "10697": 233,
        "10698": 219,
        "10699": 242,
        "10700": 52,
        "10701": 206,
        "10702": 239,
        "10703": 220,
        "10704": 55,
        "10705": 207,
        "10706": 154,
        "10707": 67,
        "10708": 98,
        "10709": 130,
        "10710": 244,
        "10711": 34,
        "10712": 130,
        "10713": 103,
        "10714": 252,
        "10715": 223,
        "10716": 133,
        "10717": 215,
        "10718": 214,
        "10719": 64,
        "10720": 179,
        "10721": 225,
        "10722": 108,
        "10723": 166,
        "10724": 212,
        "10725": 169,
        "10726": 133,
        "10727": 22,
        "10728": 162,
        "10729": 102,
        "10730": 189,
        "10731": 213,
        "10732": 55,
        "10733": 63,
        "10734": 19,
        "10735": 138,
        "10736": 219,
        "10737": 126,
        "10738": 216,
        "10739": 166,
        "10740": 190,
        "10741": 86,
        "10742": 212,
        "10743": 113,
        "10744": 21,
        "10745": 10,
        "10746": 251,
        "10747": 160,
        "10748": 218,
        "10749": 211,
        "10750": 173,
        "10751": 155,
        "10752": 103,
        "10753": 70,
        "10754": 27,
        "10755": 174,
        "10756": 148,
        "10757": 134,
        "10758": 213,
        "10759": 84,
        "10760": 69,
        "10761": 101,
        "10762": 146,
        "10763": 80,
        "10764": 160,
        "10765": 215,
        "10766": 200,
        "10767": 116,
        "10768": 178,
        "10769": 112,
        "10770": 253,
        "10771": 44,
        "10772": 10,
        "10773": 167,
        "10774": 249,
        "10775": 18,
        "10776": 54,
        "10777": 24,
        "10778": 127,
        "10779": 96,
        "10780": 39,
        "10781": 148,
        "10782": 207,
        "10783": 28,
        "10784": 44,
        "10785": 170,
        "10786": 250,
        "10787": 123,
        "10788": 234,
        "10789": 39,
        "10790": 75,
        "10791": 73,
        "10792": 180,
        "10793": 135,
        "10794": 120,
        "10795": 231,
        "10796": 168,
        "10797": 243,
        "10798": 215,
        "10799": 83,
        "10800": 235,
        "10801": 12,
        "10802": 112,
        "10803": 83,
        "10804": 4,
        "10805": 201,
        "10806": 197,
        "10807": 92,
        "10808": 107,
        "10809": 167,
        "10810": 151,
        "10811": 1,
        "10812": 244,
        "10813": 130,
        "10814": 123,
        "10815": 198,
        "10816": 120,
        "10817": 207,
        "10818": 41,
        "10819": 70,
        "10820": 207,
        "10821": 242,
        "10822": 97,
        "10823": 116,
        "10824": 42,
        "10825": 13,
        "10826": 3,
        "10827": 131,
        "10828": 99,
        "10829": 83,
        "10830": 206,
        "10831": 247,
        "10832": 58,
        "10833": 153,
        "10834": 165,
        "10835": 8,
        "10836": 73,
        "10837": 217,
        "10838": 64,
        "10839": 230,
        "10840": 5,
        "10841": 228,
        "10842": 63,
        "10843": 85,
        "10844": 230,
        "10845": 167,
        "10846": 89,
        "10847": 32,
        "10848": 164,
        "10849": 228,
        "10850": 175,
        "10851": 201,
        "10852": 170,
        "10853": 161,
        "10854": 119,
        "10855": 156,
        "10856": 240,
        "10857": 150,
        "10858": 137,
        "10859": 203,
        "10860": 161,
        "10861": 158,
        "10862": 21,
        "10863": 222,
        "10864": 134,
        "10865": 161,
        "10866": 223,
        "10867": 229,
        "10868": 24,
        "10869": 167,
        "10870": 66,
        "10871": 14,
        "10872": 40,
        "10873": 252,
        "10874": 151,
        "10875": 44,
        "10876": 238,
        "10877": 17,
        "10878": 61,
        "10879": 37,
        "10880": 96,
        "10881": 60,
        "10882": 45,
        "10883": 72,
        "10884": 225,
        "10885": 246,
        "10886": 21,
        "10887": 151,
        "10888": 61,
        "10889": 21,
        "10890": 60,
        "10891": 82,
        "10892": 135,
        "10893": 12,
        "10894": 10,
        "10895": 87,
        "10896": 242,
        "10897": 39,
        "10898": 17,
        "10899": 84,
        "10900": 7,
        "10901": 88,
        "10902": 161,
        "10903": 217,
        "10904": 91,
        "10905": 72,
        "10906": 73,
        "10907": 197,
        "10908": 190,
        "10909": 51,
        "10910": 144,
        "10911": 180,
        "10912": 181,
        "10913": 48,
        "10914": 91,
        "10915": 241,
        "10916": 50,
        "10917": 66,
        "10918": 2,
        "10919": 209,
        "10920": 112,
        "10921": 187,
        "10922": 37,
        "10923": 200,
        "10924": 179,
        "10925": 140,
        "10926": 69,
        "10927": 153,
        "10928": 236,
        "10929": 115,
        "10930": 251,
        "10931": 119,
        "10932": 109,
        "10933": 96,
        "10934": 127,
        "10935": 174,
        "10936": 58,
        "10937": 250,
        "10938": 28,
        "10939": 97,
        "10940": 196,
        "10941": 248,
        "10942": 27,
        "10943": 43,
        "10944": 113,
        "10945": 32,
        "10946": 205,
        "10947": 100,
        "10948": 129,
        "10949": 86,
        "10950": 41,
        "10951": 113,
        "10952": 197,
        "10953": 93,
        "10954": 11,
        "10955": 117,
        "10956": 32,
        "10957": 39,
        "10958": 157,
        "10959": 58,
        "10960": 27,
        "10961": 122,
        "10962": 202,
        "10963": 105,
        "10964": 121,
        "10965": 134,
        "10966": 41,
        "10967": 14,
        "10968": 147,
        "10969": 41,
        "10970": 255,
        "10971": 71,
        "10972": 100,
        "10973": 34,
        "10974": 166,
        "10975": 94,
        "10976": 178,
        "10977": 221,
        "10978": 109,
        "10979": 187,
        "10980": 177,
        "10981": 165,
        "10982": 94,
        "10983": 73,
        "10984": 74,
        "10985": 162,
        "10986": 3,
        "10987": 112,
        "10988": 62,
        "10989": 26,
        "10990": 56,
        "10991": 145,
        "10992": 64,
        "10993": 98,
        "10994": 124,
        "10995": 21,
        "10996": 141,
        "10997": 255,
        "10998": 182,
        "10999": 172,
        "11000": 44,
        "11001": 85,
        "11002": 92,
        "11003": 105,
        "11004": 138,
        "11005": 248,
        "11006": 135,
        "11007": 96,
        "11008": 201,
        "11009": 118,
        "11010": 168,
        "11011": 21,
        "11012": 254,
        "11013": 64,
        "11014": 250,
        "11015": 48,
        "11016": 162,
        "11017": 16,
        "11018": 59,
        "11019": 232,
        "11020": 179,
        "11021": 28,
        "11022": 97,
        "11023": 80,
        "11024": 23,
        "11025": 252,
        "11026": 234,
        "11027": 64,
        "11028": 2,
        "11029": 180,
        "11030": 139,
        "11031": 155,
        "11032": 212,
        "11033": 159,
        "11034": 16,
        "11035": 255,
        "11036": 210,
        "11037": 252,
        "11038": 37,
        "11039": 250,
        "11040": 185,
        "11041": 138,
        "11042": 183,
        "11043": 73,
        "11044": 228,
        "11045": 161,
        "11046": 154,
        "11047": 252,
        "11048": 42,
        "11049": 6,
        "11050": 143,
        "11051": 9,
        "11052": 155,
        "11053": 39,
        "11054": 136,
        "11055": 210,
        "11056": 243,
        "11057": 205,
        "11058": 209,
        "11059": 185,
        "11060": 223,
        "11061": 77,
        "11062": 86,
        "11063": 60,
        "11064": 142,
        "11065": 238,
        "11066": 34,
        "11067": 106,
        "11068": 231,
        "11069": 90,
        "11070": 155,
        "11071": 51,
        "11072": 61,
        "11073": 156,
        "11074": 163,
        "11075": 27,
        "11076": 198,
        "11077": 139,
        "11078": 170,
        "11079": 23,
        "11080": 188,
        "11081": 83,
        "11082": 202,
        "11083": 50,
        "11084": 20,
        "11085": 81,
        "11086": 179,
        "11087": 229,
        "11088": 29,
        "11089": 216,
        "11090": 196,
        "11091": 189,
        "11092": 158,
        "11093": 133,
        "11094": 215,
        "11095": 203,
        "11096": 215,
        "11097": 241,
        "11098": 221,
        "11099": 38,
        "11100": 80,
        "11101": 150,
        "11102": 167,
        "11103": 144,
        "11104": 183,
        "11105": 27,
        "11106": 153,
        "11107": 201,
        "11108": 69,
        "11109": 1,
        "11110": 19,
        "11111": 188,
        "11112": 51,
        "11113": 55,
        "11114": 162,
        "11115": 255,
        "11116": 72,
        "11117": 189,
        "11118": 7,
        "11119": 198,
        "11120": 179,
        "11121": 154,
        "11122": 218,
        "11123": 168,
        "11124": 21,
        "11125": 81,
        "11126": 13,
        "11127": 248,
        "11128": 190,
        "11129": 25,
        "11130": 194,
        "11131": 48,
        "11132": 12,
        "11133": 85,
        "11134": 74,
        "11135": 229,
        "11136": 75,
        "11137": 69,
        "11138": 89,
        "11139": 210,
        "11140": 111,
        "11141": 118,
        "11142": 191,
        "11143": 7,
        "11144": 101,
        "11145": 29,
        "11146": 161,
        "11147": 108,
        "11148": 101,
        "11149": 166,
        "11150": 149,
        "11151": 255,
        "11152": 69,
        "11153": 199,
        "11154": 99,
        "11155": 146,
        "11156": 137,
        "11157": 108,
        "11158": 65,
        "11159": 92,
        "11160": 243,
        "11161": 146,
        "11162": 82,
        "11163": 32,
        "11164": 222,
        "11165": 4,
        "11166": 254,
        "11167": 81,
        "11168": 55,
        "11169": 103,
        "11170": 164,
        "11171": 3,
        "11172": 187,
        "11173": 23,
        "11174": 115,
        "11175": 149,
        "11176": 96,
        "11177": 78,
        "11178": 121,
        "11179": 58,
        "11180": 97,
        "11181": 91,
        "11182": 15,
        "11183": 67,
        "11184": 232,
        "11185": 189,
        "11186": 130,
        "11187": 107,
        "11188": 31,
        "11189": 61,
        "11190": 204,
        "11191": 142,
        "11192": 113,
        "11193": 80,
        "11194": 247,
        "11195": 131,
        "11196": 11,
        "11197": 203,
        "11198": 119,
        "11199": 107,
        "11200": 138,
        "11201": 54,
        "11202": 131,
        "11203": 178,
        "11204": 12,
        "11205": 238,
        "11206": 13,
        "11207": 86,
        "11208": 85,
        "11209": 3,
        "11210": 214,
        "11211": 146,
        "11212": 108,
        "11213": 37,
        "11214": 29,
        "11215": 40,
        "11216": 224,
        "11217": 150,
        "11218": 174,
        "11219": 133,
        "11220": 52,
        "11221": 140,
        "11222": 66,
        "11223": 242,
        "11224": 44,
        "11225": 243,
        "11226": 182,
        "11227": 70,
        "11228": 145,
        "11229": 51,
        "11230": 142,
        "11231": 32,
        "11232": 95,
        "11233": 120,
        "11234": 76,
        "11235": 175,
        "11236": 155,
        "11237": 58,
        "11238": 128,
        "11239": 208,
        "11240": 180,
        "11241": 43,
        "11242": 11,
        "11243": 242,
        "11244": 199,
        "11245": 86,
        "11246": 225,
        "11247": 210,
        "11248": 38,
        "11249": 145,
        "11250": 61,
        "11251": 167,
        "11252": 55,
        "11253": 100,
        "11254": 240,
        "11255": 248,
        "11256": 227,
        "11257": 142,
        "11258": 90,
        "11259": 123,
        "11260": 213,
        "11261": 221,
        "11262": 203,
        "11263": 231,
        "11264": 21,
        "11265": 66,
        "11266": 145,
        "11267": 128,
        "11268": 227,
        "11269": 194,
        "11270": 8,
        "11271": 235,
        "11272": 2,
        "11273": 140,
        "11274": 167,
        "11275": 220,
        "11276": 186,
        "11277": 214,
        "11278": 97,
        "11279": 224,
        "11280": 157,
        "11281": 148,
        "11282": 234,
        "11283": 0,
        "11284": 213,
        "11285": 80,
        "11286": 193,
        "11287": 165,
        "11288": 188,
        "11289": 210,
        "11290": 32,
        "11291": 32,
        "11292": 205,
        "11293": 35,
        "11294": 145,
        "11295": 78,
        "11296": 43,
        "11297": 9,
        "11298": 77,
        "11299": 242,
        "11300": 58,
        "11301": 34,
        "11302": 225,
        "11303": 22,
        "11304": 188,
        "11305": 148,
        "11306": 45,
        "11307": 32,
        "11308": 224,
        "11309": 43,
        "11310": 14,
        "11311": 66,
        "11312": 32,
        "11313": 201,
        "11314": 233,
        "11315": 76,
        "11316": 229,
        "11317": 108,
        "11318": 103,
        "11319": 247,
        "11320": 191,
        "11321": 169,
        "11322": 132,
        "11323": 20,
        "11324": 110,
        "11325": 50,
        "11326": 223,
        "11327": 156,
        "11328": 110,
        "11329": 220,
        "11330": 65,
        "11331": 191,
        "11332": 170,
        "11333": 203,
        "11334": 168,
        "11335": 239,
        "11336": 180,
        "11337": 96,
        "11338": 194,
        "11339": 149,
        "11340": 120,
        "11341": 167,
        "11342": 53,
        "11343": 57,
        "11344": 80,
        "11345": 38,
        "11346": 76,
        "11347": 213,
        "11348": 15,
        "11349": 187,
        "11350": 253,
        "11351": 93,
        "11352": 247,
        "11353": 251,
        "11354": 137,
        "11355": 60,
        "11356": 96,
        "11357": 196,
        "11358": 155,
        "11359": 130,
        "11360": 13,
        "11361": 228,
        "11362": 99,
        "11363": 92,
        "11364": 242,
        "11365": 115,
        "11366": 44,
        "11367": 99,
        "11368": 138,
        "11369": 223,
        "11370": 119,
        "11371": 122,
        "11372": 246,
        "11373": 71,
        "11374": 56,
        "11375": 31,
        "11376": 207,
        "11377": 132,
        "11378": 110,
        "11379": 8,
        "11380": 79,
        "11381": 70,
        "11382": 154,
        "11383": 109,
        "11384": 87,
        "11385": 94,
        "11386": 106,
        "11387": 82,
        "11388": 210,
        "11389": 245,
        "11390": 237,
        "11391": 251,
        "11392": 190,
        "11393": 140,
        "11394": 210,
        "11395": 112,
        "11396": 124,
        "11397": 34,
        "11398": 20,
        "11399": 170,
        "11400": 75,
        "11401": 16,
        "11402": 64,
        "11403": 131,
        "11404": 97,
        "11405": 144,
        "11406": 26,
        "11407": 65,
        "11408": 213,
        "11409": 159,
        "11410": 63,
        "11411": 67,
        "11412": 141,
        "11413": 83,
        "11414": 82,
        "11415": 205,
        "11416": 67,
        "11417": 199,
        "11418": 211,
        "11419": 251,
        "11420": 13,
        "11421": 99,
        "11422": 219,
        "11423": 30,
        "11424": 174,
        "11425": 204,
        "11426": 45,
        "11427": 124,
        "11428": 12,
        "11429": 173,
        "11430": 169,
        "11431": 240,
        "11432": 229,
        "11433": 191,
        "11434": 50,
        "11435": 160,
        "11436": 72,
        "11437": 11,
        "11438": 121,
        "11439": 66,
        "11440": 252,
        "11441": 142,
        "11442": 210,
        "11443": 186,
        "11444": 54,
        "11445": 92,
        "11446": 59,
        "11447": 148,
        "11448": 180,
        "11449": 111,
        "11450": 169,
        "11451": 97,
        "11452": 36,
        "11453": 73,
        "11454": 68,
        "11455": 37,
        "11456": 94,
        "11457": 16,
        "11458": 181,
        "11459": 245,
        "11460": 195,
        "11461": 252,
        "11462": 109,
        "11463": 56,
        "11464": 1,
        "11465": 41,
        "11466": 156,
        "11467": 98,
        "11468": 21,
        "11469": 130,
        "11470": 81,
        "11471": 32,
        "11472": 13,
        "11473": 109,
        "11474": 197,
        "11475": 177,
        "11476": 38,
        "11477": 124,
        "11478": 211,
        "11479": 209,
        "11480": 195,
        "11481": 210,
        "11482": 102,
        "11483": 204,
        "11484": 198,
        "11485": 245,
        "11486": 240,
        "11487": 60,
        "11488": 191,
        "11489": 76,
        "11490": 210,
        "11491": 156,
        "11492": 111,
        "11493": 1,
        "11494": 185,
        "11495": 48,
        "11496": 218,
        "11497": 235,
        "11498": 93,
        "11499": 11,
        "11500": 16,
        "11501": 146,
        "11502": 185,
        "11503": 61,
        "11504": 151,
        "11505": 79,
        "11506": 69,
        "11507": 18,
        "11508": 166,
        "11509": 59,
        "11510": 132,
        "11511": 218,
        "11512": 46,
        "11513": 54,
        "11514": 15,
        "11515": 81,
        "11516": 154,
        "11517": 60,
        "11518": 101,
        "11519": 47,
        "11520": 92,
        "11521": 246,
        "11522": 186,
        "11523": 117,
        "11524": 80,
        "11525": 229,
        "11526": 224,
        "11527": 222,
        "11528": 21,
        "11529": 78,
        "11530": 175,
        "11531": 135,
        "11532": 75,
        "11533": 62,
        "11534": 181,
        "11535": 29,
        "11536": 138,
        "11537": 142,
        "11538": 144,
        "11539": 12,
        "11540": 138,
        "11541": 147,
        "11542": 224,
        "11543": 30,
        "11544": 230,
        "11545": 243,
        "11546": 74,
        "11547": 90,
        "11548": 43,
        "11549": 254,
        "11550": 53,
        "11551": 205,
        "11552": 11,
        "11553": 82,
        "11554": 202,
        "11555": 148,
        "11556": 225,
        "11557": 176,
        "11558": 245,
        "11559": 48,
        "11560": 253,
        "11561": 104,
        "11562": 57,
        "11563": 134,
        "11564": 153,
        "11565": 179,
        "11566": 15,
        "11567": 71,
        "11568": 160,
        "11569": 35,
        "11570": 192,
        "11571": 89,
        "11572": 194,
        "11573": 141,
        "11574": 80,
        "11575": 255,
        "11576": 205,
        "11577": 27,
        "11578": 150,
        "11579": 0,
        "11580": 238,
        "11581": 154,
        "11582": 108,
        "11583": 167,
        "11584": 254,
        "11585": 115,
        "11586": 82,
        "11587": 203,
        "11588": 184,
        "11589": 34,
        "11590": 218,
        "11591": 84,
        "11592": 37,
        "11593": 37,
        "11594": 21,
        "11595": 94,
        "11596": 92,
        "11597": 119,
        "11598": 147,
        "11599": 30,
        "11600": 192,
        "11601": 150,
        "11602": 206,
        "11603": 21,
        "11604": 141,
        "11605": 176,
        "11606": 195,
        "11607": 63,
        "11608": 112,
        "11609": 204,
        "11610": 50,
        "11611": 1,
        "11612": 250,
        "11613": 69,
        "11614": 243,
        "11615": 225,
        "11616": 33,
        "11617": 42,
        "11618": 60,
        "11619": 156,
        "11620": 245,
        "11621": 173,
        "11622": 57,
        "11623": 83,
        "11624": 76,
        "11625": 155,
        "11626": 65,
        "11627": 93,
        "11628": 49,
        "11629": 70,
        "11630": 212,
        "11631": 32,
        "11632": 158,
        "11633": 151,
        "11634": 255,
        "11635": 3,
        "11636": 241,
        "11637": 116,
        "11638": 14,
        "11639": 185,
        "11640": 138,
        "11641": 39,
        "11642": 130,
        "11643": 7,
        "11644": 161,
        "11645": 45,
        "11646": 22,
        "11647": 44,
        "11648": 254,
        "11649": 84,
        "11650": 88,
        "11651": 28,
        "11652": 39,
        "11653": 231,
        "11654": 216,
        "11655": 73,
        "11656": 135,
        "11657": 249,
        "11658": 9,
        "11659": 208,
        "11660": 116,
        "11661": 206,
        "11662": 228,
        "11663": 252,
        "11664": 115,
        "11665": 181,
        "11666": 12,
        "11667": 78,
        "11668": 45,
        "11669": 10,
        "11670": 134,
        "11671": 206,
        "11672": 162,
        "11673": 230,
        "11674": 207,
        "11675": 233,
        "11676": 245,
        "11677": 77,
        "11678": 169,
        "11679": 195,
        "11680": 156,
        "11681": 123,
        "11682": 16,
        "11683": 93,
        "11684": 202,
        "11685": 16,
        "11686": 163,
        "11687": 10,
        "11688": 248,
        "11689": 232,
        "11690": 166,
        "11691": 254,
        "11692": 253,
        "11693": 195,
        "11694": 169,
        "11695": 240,
        "11696": 92,
        "11697": 4,
        "11698": 60,
        "11699": 18,
        "11700": 93,
        "11701": 117,
        "11702": 195,
        "11703": 122,
        "11704": 128,
        "11705": 48,
        "11706": 119,
        "11707": 99,
        "11708": 7,
        "11709": 163,
        "11710": 191,
        "11711": 74,
        "11712": 167,
        "11713": 22,
        "11714": 64,
        "11715": 147,
        "11716": 40,
        "11717": 228,
        "11718": 174,
        "11719": 204,
        "11720": 125,
        "11721": 68,
        "11722": 84,
        "11723": 136,
        "11724": 230,
        "11725": 86,
        "11726": 191,
        "11727": 58,
        "11728": 182,
        "11729": 116,
        "11730": 190,
        "11731": 231,
        "11732": 61,
        "11733": 60,
        "11734": 92,
        "11735": 0,
        "11736": 255,
        "11737": 102,
        "11738": 33,
        "11739": 250,
        "11740": 92,
        "11741": 190,
        "11742": 76,
        "11743": 238,
        "11744": 57,
        "11745": 255,
        "11746": 84,
        "11747": 167,
        "11748": 88,
        "11749": 136,
        "11750": 135,
        "11751": 109,
        "11752": 247,
        "11753": 189,
        "11754": 229,
        "11755": 86,
        "11756": 49,
        "11757": 17,
        "11758": 21,
        "11759": 110,
        "11760": 232,
        "11761": 110,
        "11762": 162,
        "11763": 101,
        "11764": 82,
        "11765": 52,
        "11766": 156,
        "11767": 220,
        "11768": 233,
        "11769": 158,
        "11770": 215,
        "11771": 209,
        "11772": 254,
        "11773": 156,
        "11774": 88,
        "11775": 195,
        "11776": 19,
        "11777": 102,
        "11778": 29,
        "11779": 93,
        "11780": 130,
        "11781": 131,
        "11782": 103,
        "11783": 132,
        "11784": 15,
        "11785": 200,
        "11786": 234,
        "11787": 11,
        "11788": 98,
        "11789": 9,
        "11790": 220,
        "11791": 204,
        "11792": 229,
        "11793": 192,
        "11794": 129,
        "11795": 239,
        "11796": 112,
        "11797": 143,
        "11798": 209,
        "11799": 25,
        "11800": 69,
        "11801": 129,
        "11802": 161,
        "11803": 97,
        "11804": 74,
        "11805": 86,
        "11806": 246,
        "11807": 18,
        "11808": 210,
        "11809": 104,
        "11810": 6,
        "11811": 59,
        "11812": 201,
        "11813": 107,
        "11814": 208,
        "11815": 250,
        "11816": 166,
        "11817": 215,
        "11818": 180,
        "11819": 219,
        "11820": 59,
        "11821": 9,
        "11822": 148,
        "11823": 153,
        "11824": 114,
        "11825": 201,
        "11826": 156,
        "11827": 83,
        "11828": 161,
        "11829": 116,
        "11830": 175,
        "11831": 151,
        "11832": 40,
        "11833": 254,
        "11834": 143,
        "11835": 77,
        "11836": 21,
        "11837": 38,
        "11838": 155,
        "11839": 148,
        "11840": 190,
        "11841": 48,
        "11842": 126,
        "11843": 152,
        "11844": 197,
        "11845": 224,
        "11846": 228,
        "11847": 238,
        "11848": 224,
        "11849": 27,
        "11850": 229,
        "11851": 141,
        "11852": 117,
        "11853": 47,
        "11854": 96,
        "11855": 104,
        "11856": 248,
        "11857": 230,
        "11858": 42,
        "11859": 234,
        "11860": 114,
        "11861": 210,
        "11862": 179,
        "11863": 157,
        "11864": 191,
        "11865": 199,
        "11866": 88,
        "11867": 234,
        "11868": 90,
        "11869": 38,
        "11870": 38,
        "11871": 170,
        "11872": 220,
        "11873": 222,
        "11874": 213,
        "11875": 201,
        "11876": 94,
        "11877": 237,
        "11878": 0,
        "11879": 212,
        "11880": 64,
        "11881": 180,
        "11882": 172,
        "11883": 2,
        "11884": 49,
        "11885": 131,
        "11886": 151,
        "11887": 91,
        "11888": 120,
        "11889": 200,
        "11890": 38,
        "11891": 112,
        "11892": 6,
        "11893": 237,
        "11894": 231,
        "11895": 126,
        "11896": 216,
        "11897": 124,
        "11898": 231,
        "11899": 155,
        "11900": 140,
        "11901": 146,
        "11902": 97,
        "11903": 232,
        "11904": 13,
        "11905": 92,
        "11906": 218,
        "11907": 243,
        "11908": 64,
        "11909": 47,
        "11910": 174,
        "11911": 81,
        "11912": 251,
        "11913": 18,
        "11914": 165,
        "11915": 121,
        "11916": 8,
        "11917": 143,
        "11918": 53,
        "11919": 143,
        "11920": 112,
        "11921": 204,
        "11922": 179,
        "11923": 135,
        "11924": 197,
        "11925": 188,
        "11926": 132,
        "11927": 6,
        "11928": 73,
        "11929": 220,
        "11930": 180,
        "11931": 40,
        "11932": 167,
        "11933": 159,
        "11934": 248,
        "11935": 5,
        "11936": 36,
        "11937": 160,
        "11938": 13,
        "11939": 170,
        "11940": 154,
        "11941": 170,
        "11942": 112,
        "11943": 44,
        "11944": 70,
        "11945": 217,
        "11946": 187,
        "11947": 161,
        "11948": 98,
        "11949": 130,
        "11950": 24,
        "11951": 67,
        "11952": 12,
        "11953": 141,
        "11954": 99,
        "11955": 215,
        "11956": 95,
        "11957": 75,
        "11958": 180,
        "11959": 27,
        "11960": 5,
        "11961": 20,
        "11962": 132,
        "11963": 208,
        "11964": 205,
        "11965": 32,
        "11966": 131,
        "11967": 13,
        "11968": 85,
        "11969": 102,
        "11970": 80,
        "11971": 26,
        "11972": 42,
        "11973": 187,
        "11974": 230,
        "11975": 23,
        "11976": 137,
        "11977": 102,
        "11978": 162,
        "11979": 35,
        "11980": 127,
        "11981": 253,
        "11982": 232,
        "11983": 23,
        "11984": 39,
        "11985": 129,
        "11986": 106,
        "11987": 88,
        "11988": 5,
        "11989": 250,
        "11990": 34,
        "11991": 108,
        "11992": 13,
        "11993": 221,
        "11994": 221,
        "11995": 208,
        "11996": 1,
        "11997": 224,
        "11998": 77,
        "11999": 205,
        "12000": 4,
        "12001": 237,
        "12002": 198,
        "12003": 69,
        "12004": 87,
        "12005": 52,
        "12006": 8,
        "12007": 76,
        "12008": 131,
        "12009": 142,
        "12010": 6,
        "12011": 153,
        "12012": 22,
        "12013": 248,
        "12014": 71,
        "12015": 135,
        "12016": 37,
        "12017": 152,
        "12018": 132,
        "12019": 47,
        "12020": 188,
        "12021": 198,
        "12022": 180,
        "12023": 98,
        "12024": 41,
        "12025": 105,
        "12026": 188,
        "12027": 119,
        "12028": 191,
        "12029": 238,
        "12030": 216,
        "12031": 100,
        "12032": 79,
        "12033": 236,
        "12034": 213,
        "12035": 240,
        "12036": 83,
        "12037": 182,
        "12038": 119,
        "12039": 0,
        "12040": 206,
        "12041": 236,
        "12042": 155,
        "12043": 184,
        "12044": 185,
        "12045": 180,
        "12046": 84,
        "12047": 12,
        "12048": 95,
        "12049": 192,
        "12050": 52,
        "12051": 38,
        "12052": 55,
        "12053": 53,
        "12054": 239,
        "12055": 169,
        "12056": 207,
        "12057": 122,
        "12058": 111,
        "12059": 31,
        "12060": 171,
        "12061": 99,
        "12062": 11,
        "12063": 33,
        "12064": 191,
        "12065": 170,
        "12066": 67,
        "12067": 35,
        "12068": 130,
        "12069": 14,
        "12070": 4,
        "12071": 209,
        "12072": 62,
        "12073": 197,
        "12074": 135,
        "12075": 212,
        "12076": 187,
        "12077": 150,
        "12078": 41,
        "12079": 212,
        "12080": 176,
        "12081": 96,
        "12082": 252,
        "12083": 105,
        "12084": 13,
        "12085": 78,
        "12086": 217,
        "12087": 98,
        "12088": 47,
        "12089": 70,
        "12090": 84,
        "12091": 66,
        "12092": 249,
        "12093": 196,
        "12094": 14,
        "12095": 119,
        "12096": 231,
        "12097": 193,
        "12098": 8,
        "12099": 138,
        "12100": 220,
        "12101": 207,
        "12102": 153,
        "12103": 7,
        "12104": 249,
        "12105": 198,
        "12106": 131,
        "12107": 175,
        "12108": 211,
        "12109": 59,
        "12110": 164,
        "12111": 252,
        "12112": 38,
        "12113": 72,
        "12114": 224,
        "12115": 158,
        "12116": 151,
        "12117": 35,
        "12118": 251,
        "12119": 220,
        "12120": 115,
        "12121": 127,
        "12122": 144,
        "12123": 33,
        "12124": 255,
        "12125": 176,
        "12126": 242,
        "12127": 61,
        "12128": 231,
        "12129": 174,
        "12130": 22,
        "12131": 236,
        "12132": 162,
        "12133": 101,
        "12134": 52,
        "12135": 66,
        "12136": 24,
        "12137": 66,
        "12138": 218,
        "12139": 142,
        "12140": 75,
        "12141": 234,
        "12142": 227,
        "12143": 135,
        "12144": 157,
        "12145": 105,
        "12146": 227,
        "12147": 169,
        "12148": 206,
        "12149": 91,
        "12150": 40,
        "12151": 123,
        "12152": 70,
        "12153": 116,
        "12154": 64,
        "12155": 178,
        "12156": 130,
        "12157": 115,
        "12158": 100,
        "12159": 88,
        "12160": 59,
        "12161": 196,
        "12162": 107,
        "12163": 21,
        "12164": 13,
        "12165": 52,
        "12166": 27,
        "12167": 146,
        "12168": 146,
        "12169": 69,
        "12170": 194,
        "12171": 73,
        "12172": 254,
        "12173": 200,
        "12174": 81,
        "12175": 252,
        "12176": 56,
        "12177": 246,
        "12178": 186,
        "12179": 80,
        "12180": 70,
        "12181": 211,
        "12182": 28,
        "12183": 103,
        "12184": 232,
        "12185": 182,
        "12186": 214,
        "12187": 89,
        "12188": 126,
        "12189": 202,
        "12190": 143,
        "12191": 179,
        "12192": 172,
        "12193": 167,
        "12194": 169,
        "12195": 210,
        "12196": 188,
        "12197": 139,
        "12198": 92,
        "12199": 96,
        "12200": 72,
        "12201": 210,
        "12202": 235,
        "12203": 146,
        "12204": 252,
        "12205": 238,
        "12206": 190,
        "12207": 11,
        "12208": 57,
        "12209": 134,
        "12210": 135,
        "12211": 186,
        "12212": 47,
        "12213": 245,
        "12214": 231,
        "12215": 116,
        "12216": 62,
        "12217": 72,
        "12218": 239,
        "12219": 71,
        "12220": 93,
        "12221": 211,
        "12222": 47,
        "12223": 37,
        "12224": 106,
        "12225": 170,
        "12226": 231,
        "12227": 77,
        "12228": 36,
        "12229": 110,
        "12230": 123,
        "12231": 198,
        "12232": 46,
        "12233": 130,
        "12234": 11,
        "12235": 3,
        "12236": 194,
        "12237": 44,
        "12238": 85,
        "12239": 127,
        "12240": 80,
        "12241": 242,
        "12242": 200,
        "12243": 211,
        "12244": 148,
        "12245": 251,
        "12246": 76,
        "12247": 200,
        "12248": 240,
        "12249": 179,
        "12250": 227,
        "12251": 114,
        "12252": 102,
        "12253": 2,
        "12254": 83,
        "12255": 113,
        "12256": 169,
        "12257": 111,
        "12258": 101,
        "12259": 34,
        "12260": 24,
        "12261": 3,
        "12262": 179,
        "12263": 75,
        "12264": 56,
        "12265": 131,
        "12266": 52,
        "12267": 145,
        "12268": 135,
        "12269": 246,
        "12270": 127,
        "12271": 121,
        "12272": 46,
        "12273": 0,
        "12274": 147,
        "12275": 247,
        "12276": 212,
        "12277": 159,
        "12278": 104,
        "12279": 146,
        "12280": 199,
        "12281": 60,
        "12282": 166,
        "12283": 198,
        "12284": 39,
        "12285": 159,
        "12286": 4,
        "12287": 143,
        "12288": 29,
        "12289": 23,
        "12290": 177,
        "12291": 238,
        "12292": 254,
        "12293": 226,
        "12294": 212,
        "12295": 248,
        "12296": 104,
        "12297": 66,
        "12298": 221,
        "12299": 48,
        "12300": 62,
        "12301": 148,
        "12302": 44,
        "12303": 120,
        "12304": 127,
        "12305": 96,
        "12306": 37,
        "12307": 237,
        "12308": 36,
        "12309": 144,
        "12310": 37,
        "12311": 222,
        "12312": 25,
        "12313": 4,
        "12314": 82,
        "12315": 185,
        "12316": 118,
        "12317": 216,
        "12318": 211,
        "12319": 103,
        "12320": 9,
        "12321": 168,
        "12322": 2,
        "12323": 90,
        "12324": 201,
        "12325": 16,
        "12326": 147,
        "12327": 154,
        "12328": 145,
        "12329": 202,
        "12330": 122,
        "12331": 67,
        "12332": 190,
        "12333": 28,
        "12334": 20,
        "12335": 76,
        "12336": 53,
        "12337": 159,
        "12338": 222,
        "12339": 236,
        "12340": 30,
        "12341": 120,
        "12342": 236,
        "12343": 148,
        "12344": 164,
        "12345": 104,
        "12346": 24,
        "12347": 48,
        "12348": 183,
        "12349": 179,
        "12350": 68,
        "12351": 171,
        "12352": 63,
        "12353": 43,
        "12354": 234,
        "12355": 123,
        "12356": 225,
        "12357": 147,
        "12358": 210,
        "12359": 205,
        "12360": 152,
        "12361": 149,
        "12362": 111,
        "12363": 17,
        "12364": 192,
        "12365": 139,
        "12366": 118,
        "12367": 231,
        "12368": 129,
        "12369": 235,
        "12370": 67,
        "12371": 80,
        "12372": 31,
        "12373": 234,
        "12374": 215,
        "12375": 6,
        "12376": 187,
        "12377": 159,
        "12378": 89,
        "12379": 143,
        "12380": 158,
        "12381": 118,
        "12382": 250,
        "12383": 167,
        "12384": 167,
        "12385": 234,
        "12386": 35,
        "12387": 109,
        "12388": 251,
        "12389": 32,
        "12390": 255,
        "12391": 164,
        "12392": 58,
        "12393": 144,
        "12394": 189,
        "12395": 101,
        "12396": 54,
        "12397": 251,
        "12398": 195,
        "12399": 124,
        "12400": 196,
        "12401": 163,
        "12402": 226,
        "12403": 252,
        "12404": 153,
        "12405": 199,
        "12406": 153,
        "12407": 196,
        "12408": 171,
        "12409": 38,
        "12410": 217,
        "12411": 225,
        "12412": 51,
        "12413": 203,
        "12414": 53,
        "12415": 100,
        "12416": 204,
        "12417": 76,
        "12418": 255,
        "12419": 50,
        "12420": 12,
        "12421": 102,
        "12422": 139,
        "12423": 1,
        "12424": 86,
        "12425": 36,
        "12426": 62,
        "12427": 165,
        "12428": 57,
        "12429": 34,
        "12430": 112,
        "12431": 189,
        "12432": 247,
        "12433": 5,
        "12434": 179,
        "12435": 57,
        "12436": 116,
        "12437": 229,
        "12438": 131,
        "12439": 5,
        "12440": 24,
        "12441": 147,
        "12442": 118,
        "12443": 136,
        "12444": 149,
        "12445": 217,
        "12446": 79,
        "12447": 183,
        "12448": 155,
        "12449": 111,
        "12450": 87,
        "12451": 127,
        "12452": 137,
        "12453": 152,
        "12454": 213,
        "12455": 229,
        "12456": 4,
        "12457": 205,
        "12458": 157,
        "12459": 151,
        "12460": 188,
        "12461": 207,
        "12462": 254,
        "12463": 210,
        "12464": 170,
        "12465": 85,
        "12466": 198,
        "12467": 18,
        "12468": 102,
        "12469": 187,
        "12470": 135,
        "12471": 25,
        "12472": 88,
        "12473": 171,
        "12474": 64,
        "12475": 38,
        "12476": 55,
        "12477": 62,
        "12478": 205,
        "12479": 179,
        "12480": 48,
        "12481": 131,
        "12482": 238,
        "12483": 105,
        "12484": 12,
        "12485": 134,
        "12486": 138,
        "12487": 154,
        "12488": 93,
        "12489": 111,
        "12490": 170,
        "12491": 191,
        "12492": 11,
        "12493": 33,
        "12494": 88,
        "12495": 57,
        "12496": 214,
        "12497": 220,
        "12498": 196,
        "12499": 43,
        "12500": 135,
        "12501": 42,
        "12502": 224,
        "12503": 223,
        "12504": 151,
        "12505": 119,
        "12506": 117,
        "12507": 67,
        "12508": 245,
        "12509": 33,
        "12510": 225,
        "12511": 37,
        "12512": 232,
        "12513": 188,
        "12514": 121,
        "12515": 90,
        "12516": 54,
        "12517": 153,
        "12518": 71,
        "12519": 166,
        "12520": 25,
        "12521": 68,
        "12522": 174,
        "12523": 171,
        "12524": 245,
        "12525": 103,
        "12526": 109,
        "12527": 18,
        "12528": 113,
        "12529": 183,
        "12530": 154,
        "12531": 67,
        "12532": 44,
        "12533": 49,
        "12534": 60,
        "12535": 47,
        "12536": 113,
        "12537": 172,
        "12538": 195,
        "12539": 87,
        "12540": 163,
        "12541": 46,
        "12542": 31,
        "12543": 97,
        "12544": 178,
        "12545": 54,
        "12546": 125,
        "12547": 195,
        "12548": 11,
        "12549": 29,
        "12550": 173,
        "12551": 225,
        "12552": 17,
        "12553": 93,
        "12554": 19,
        "12555": 131,
        "12556": 56,
        "12557": 121,
        "12558": 224,
        "12559": 123,
        "12560": 20,
        "12561": 94,
        "12562": 187,
        "12563": 48,
        "12564": 194,
        "12565": 58,
        "12566": 162,
        "12567": 137,
        "12568": 99,
        "12569": 34,
        "12570": 2,
        "12571": 5,
        "12572": 46,
        "12573": 144,
        "12574": 138,
        "12575": 181,
        "12576": 182,
        "12577": 131,
        "12578": 104,
        "12579": 61,
        "12580": 75,
        "12581": 233,
        "12582": 180,
        "12583": 171,
        "12584": 59,
        "12585": 106,
        "12586": 220,
        "12587": 126,
        "12588": 197,
        "12589": 64,
        "12590": 113,
        "12591": 202,
        "12592": 122,
        "12593": 100,
        "12594": 156,
        "12595": 196,
        "12596": 81,
        "12597": 197,
        "12598": 114,
        "12599": 11,
        "12600": 223,
        "12601": 74,
        "12602": 187,
        "12603": 222,
        "12604": 171,
        "12605": 41,
        "12606": 198,
        "12607": 116,
        "12608": 2,
        "12609": 241,
        "12610": 26,
        "12611": 202,
        "12612": 26,
        "12613": 219,
        "12614": 197,
        "12615": 114,
        "12616": 43,
        "12617": 13,
        "12618": 119,
        "12619": 151,
        "12620": 92,
        "12621": 138,
        "12622": 149,
        "12623": 85,
        "12624": 22,
        "12625": 118,
        "12626": 245,
        "12627": 234,
        "12628": 221,
        "12629": 58,
        "12630": 238,
        "12631": 193,
        "12632": 194,
        "12633": 153,
        "12634": 61,
        "12635": 133,
        "12636": 188,
        "12637": 146,
        "12638": 118,
        "12639": 140,
        "12640": 252,
        "12641": 98,
        "12642": 10,
        "12643": 32,
        "12644": 48,
        "12645": 196,
        "12646": 22,
        "12647": 80,
        "12648": 137,
        "12649": 225,
        "12650": 211,
        "12651": 75,
        "12652": 127,
        "12653": 244,
        "12654": 82,
        "12655": 78,
        "12656": 197,
        "12657": 118,
        "12658": 17,
        "12659": 193,
        "12660": 209,
        "12661": 26,
        "12662": 27,
        "12663": 253,
        "12664": 22,
        "12665": 128,
        "12666": 72,
        "12667": 36,
        "12668": 146,
        "12669": 215,
        "12670": 168,
        "12671": 29,
        "12672": 34,
        "12673": 19,
        "12674": 138,
        "12675": 32,
        "12676": 195,
        "12677": 172,
        "12678": 138,
        "12679": 170,
        "12680": 61,
        "12681": 215,
        "12682": 7,
        "12683": 0,
        "12684": 215,
        "12685": 184,
        "12686": 109,
        "12687": 97,
        "12688": 254,
        "12689": 229,
        "12690": 214,
        "12691": 106,
        "12692": 182,
        "12693": 249,
        "12694": 75,
        "12695": 206,
        "12696": 122,
        "12697": 6,
        "12698": 246,
        "12699": 204,
        "12700": 218,
        "12701": 228,
        "12702": 233,
        "12703": 27,
        "12704": 48,
        "12705": 217,
        "12706": 231,
        "12707": 44,
        "12708": 103,
        "12709": 240,
        "12710": 142,
        "12711": 116,
        "12712": 122,
        "12713": 27,
        "12714": 5,
        "12715": 205,
        "12716": 145,
        "12717": 174,
        "12718": 44,
        "12719": 109,
        "12720": 96,
        "12721": 166,
        "12722": 28,
        "12723": 20,
        "12724": 204,
        "12725": 169,
        "12726": 202,
        "12727": 55,
        "12728": 114,
        "12729": 199,
        "12730": 72,
        "12731": 189,
        "12732": 66,
        "12733": 35,
        "12734": 109,
        "12735": 253,
        "12736": 61,
        "12737": 28,
        "12738": 125,
        "12739": 59,
        "12740": 35,
        "12741": 255,
        "12742": 173,
        "12743": 120,
        "12744": 223,
        "12745": 145,
        "12746": 109,
        "12747": 46,
        "12748": 54,
        "12749": 69,
        "12750": 39,
        "12751": 14,
        "12752": 218,
        "12753": 105,
        "12754": 218,
        "12755": 13,
        "12756": 189,
        "12757": 58,
        "12758": 177,
        "12759": 96,
        "12760": 88,
        "12761": 236,
        "12762": 159,
        "12763": 50,
        "12764": 132,
        "12765": 178,
        "12766": 2,
        "12767": 165,
        "12768": 150,
        "12769": 49,
        "12770": 207,
        "12771": 77,
        "12772": 151,
        "12773": 181,
        "12774": 104,
        "12775": 98,
        "12776": 142,
        "12777": 134,
        "12778": 34,
        "12779": 108,
        "12780": 30,
        "12781": 99,
        "12782": 97,
        "12783": 236,
        "12784": 177,
        "12785": 128,
        "12786": 159,
        "12787": 15,
        "12788": 40,
        "12789": 113,
        "12790": 155,
        "12791": 90,
        "12792": 63,
        "12793": 34,
        "12794": 146,
        "12795": 95,
        "12796": 110,
        "12797": 96,
        "12798": 57,
        "12799": 243,
        "12800": 17,
        "12801": 183,
        "12802": 251,
        "12803": 242,
        "12804": 171,
        "12805": 203,
        "12806": 131,
        "12807": 179,
        "12808": 205,
        "12809": 218,
        "12810": 229,
        "12811": 93,
        "12812": 219,
        "12813": 100,
        "12814": 135,
        "12815": 58,
        "12816": 248,
        "12817": 120,
        "12818": 45,
        "12819": 173,
        "12820": 246,
        "12821": 136,
        "12822": 35,
        "12823": 37,
        "12824": 127,
        "12825": 202,
        "12826": 163,
        "12827": 69,
        "12828": 231,
        "12829": 38,
        "12830": 189,
        "12831": 42,
        "12832": 209,
        "12833": 202,
        "12834": 229,
        "12835": 47,
        "12836": 147,
        "12837": 130,
        "12838": 175,
        "12839": 81,
        "12840": 34,
        "12841": 209,
        "12842": 110,
        "12843": 12,
        "12844": 44,
        "12845": 44,
        "12846": 52,
        "12847": 130,
        "12848": 223,
        "12849": 105,
        "12850": 188,
        "12851": 99,
        "12852": 96,
        "12853": 214,
        "12854": 94,
        "12855": 139,
        "12856": 249,
        "12857": 84,
        "12858": 13,
        "12859": 124,
        "12860": 249,
        "12861": 117,
        "12862": 77,
        "12863": 158,
        "12864": 17,
        "12865": 7,
        "12866": 211,
        "12867": 205,
        "12868": 237,
        "12869": 59,
        "12870": 168,
        "12871": 167,
        "12872": 204,
        "12873": 142,
        "12874": 3,
        "12875": 10,
        "12876": 125,
        "12877": 199,
        "12878": 44,
        "12879": 70,
        "12880": 232,
        "12881": 181,
        "12882": 187,
        "12883": 72,
        "12884": 167,
        "12885": 59,
        "12886": 99,
        "12887": 171,
        "12888": 87,
        "12889": 239,
        "12890": 84,
        "12891": 40,
        "12892": 62,
        "12893": 4,
        "12894": 191,
        "12895": 168,
        "12896": 148,
        "12897": 253,
        "12898": 115,
        "12899": 143,
        "12900": 26,
        "12901": 250,
        "12902": 82,
        "12903": 99,
        "12904": 170,
        "12905": 53,
        "12906": 238,
        "12907": 176,
        "12908": 107,
        "12909": 13,
        "12910": 158,
        "12911": 53,
        "12912": 133,
        "12913": 58,
        "12914": 232,
        "12915": 252,
        "12916": 20,
        "12917": 129,
        "12918": 243,
        "12919": 141,
        "12920": 90,
        "12921": 4,
        "12922": 97,
        "12923": 93,
        "12924": 85,
        "12925": 168,
        "12926": 58,
        "12927": 4,
        "12928": 109,
        "12929": 121,
        "12930": 97,
        "12931": 176,
        "12932": 131,
        "12933": 55,
        "12934": 32,
        "12935": 132,
        "12936": 44,
        "12937": 48,
        "12938": 137,
        "12939": 200,
        "12940": 182,
        "12941": 248,
        "12942": 223,
        "12943": 39,
        "12944": 132,
        "12945": 246,
        "12946": 188,
        "12947": 105,
        "12948": 168,
        "12949": 93,
        "12950": 191,
        "12951": 122,
        "12952": 133,
        "12953": 229,
        "12954": 136,
        "12955": 96,
        "12956": 165,
        "12957": 179,
        "12958": 71,
        "12959": 47,
        "12960": 154,
        "12961": 214,
        "12962": 178,
        "12963": 9,
        "12964": 220,
        "12965": 203,
        "12966": 24,
        "12967": 4,
        "12968": 78,
        "12969": 181,
        "12970": 95,
        "12971": 49,
        "12972": 12,
        "12973": 77,
        "12974": 33,
        "12975": 36,
        "12976": 54,
        "12977": 50,
        "12978": 26,
        "12979": 16,
        "12980": 227,
        "12981": 168,
        "12982": 8,
        "12983": 91,
        "12984": 9,
        "12985": 81,
        "12986": 254,
        "12987": 10,
        "12988": 18,
        "12989": 116,
        "12990": 166,
        "12991": 69,
        "12992": 165,
        "12993": 67,
        "12994": 193,
        "12995": 133,
        "12996": 212,
        "12997": 215,
        "12998": 216,
        "12999": 143,
        "13000": 25,
        "13001": 194,
        "13002": 214,
        "13003": 17,
        "13004": 25,
        "13005": 0,
        "13006": 56,
        "13007": 136,
        "13008": 209,
        "13009": 20,
        "13010": 186,
        "13011": 215,
        "13012": 228,
        "13013": 137,
        "13014": 219,
        "13015": 64,
        "13016": 93,
        "13017": 76,
        "13018": 56,
        "13019": 146,
        "13020": 171,
        "13021": 26,
        "13022": 68,
        "13023": 215,
        "13024": 78,
        "13025": 214,
        "13026": 13,
        "13027": 120,
        "13028": 46,
        "13029": 11,
        "13030": 173,
        "13031": 238,
        "13032": 57,
        "13033": 6,
        "13034": 164,
        "13035": 207,
        "13036": 37,
        "13037": 158,
        "13038": 121,
        "13039": 252,
        "13040": 216,
        "13041": 166,
        "13042": 30,
        "13043": 75,
        "13044": 161,
        "13045": 208,
        "13046": 216,
        "13047": 179,
        "13048": 114,
        "13049": 94,
        "13050": 136,
        "13051": 188,
        "13052": 30,
        "13053": 50,
        "13054": 155,
        "13055": 25,
        "13056": 11,
        "13057": 157,
        "13058": 211,
        "13059": 159,
        "13060": 160,
        "13061": 74,
        "13062": 214,
        "13063": 210,
        "13064": 45,
        "13065": 42,
        "13066": 65,
        "13067": 75,
        "13068": 172,
        "13069": 80,
        "13070": 131,
        "13071": 17,
        "13072": 206,
        "13073": 205,
        "13074": 125,
        "13075": 85,
        "13076": 102,
        "13077": 199,
        "13078": 185,
        "13079": 96,
        "13080": 94,
        "13081": 99,
        "13082": 130,
        "13083": 134,
        "13084": 195,
        "13085": 244,
        "13086": 206,
        "13087": 50,
        "13088": 117,
        "13089": 228,
        "13090": 57,
        "13091": 11,
        "13092": 5,
        "13093": 61,
        "13094": 58,
        "13095": 136,
        "13096": 121,
        "13097": 255,
        "13098": 233,
        "13099": 43,
        "13100": 241,
        "13101": 221,
        "13102": 166,
        "13103": 101,
        "13104": 44,
        "13105": 12,
        "13106": 106,
        "13107": 111,
        "13108": 34,
        "13109": 75,
        "13110": 91,
        "13111": 232,
        "13112": 243,
        "13113": 12,
        "13114": 141,
        "13115": 135,
        "13116": 46,
        "13117": 99,
        "13118": 15,
        "13119": 125,
        "13120": 82,
        "13121": 114,
        "13122": 204,
        "13123": 132,
        "13124": 129,
        "13125": 8,
        "13126": 235,
        "13127": 197,
        "13128": 124,
        "13129": 53,
        "13130": 179,
        "13131": 35,
        "13132": 130,
        "13133": 28,
        "13134": 177,
        "13135": 7,
        "13136": 37,
        "13137": 76,
        "13138": 64,
        "13139": 239,
        "13140": 247,
        "13141": 45,
        "13142": 52,
        "13143": 201,
        "13144": 66,
        "13145": 62,
        "13146": 57,
        "13147": 37,
        "13148": 41,
        "13149": 230,
        "13150": 107,
        "13151": 75,
        "13152": 153,
        "13153": 170,
        "13154": 134,
        "13155": 37,
        "13156": 161,
        "13157": 158,
        "13158": 122,
        "13159": 125,
        "13160": 57,
        "13161": 216,
        "13162": 66,
        "13163": 217,
        "13164": 8,
        "13165": 28,
        "13166": 10,
        "13167": 77,
        "13168": 64,
        "13169": 145,
        "13170": 231,
        "13171": 120,
        "13172": 188,
        "13173": 223,
        "13174": 243,
        "13175": 21,
        "13176": 162,
        "13177": 163,
        "13178": 238,
        "13179": 36,
        "13180": 196,
        "13181": 235,
        "13182": 23,
        "13183": 192,
        "13184": 149,
        "13185": 185,
        "13186": 119,
        "13187": 225,
        "13188": 198,
        "13189": 132,
        "13190": 232,
        "13191": 190,
        "13192": 32,
        "13193": 119,
        "13194": 47,
        "13195": 154,
        "13196": 143,
        "13197": 235,
        "13198": 71,
        "13199": 11,
        "13200": 131,
        "13201": 223,
        "13202": 117,
        "13203": 152,
        "13204": 67,
        "13205": 64,
        "13206": 31,
        "13207": 19,
        "13208": 8,
        "13209": 108,
        "13210": 152,
        "13211": 179,
        "13212": 67,
        "13213": 148,
        "13214": 224,
        "13215": 197,
        "13216": 148,
        "13217": 135,
        "13218": 98,
        "13219": 207,
        "13220": 179,
        "13221": 128,
        "13222": 255,
        "13223": 73,
        "13224": 144,
        "13225": 23,
        "13226": 221,
        "13227": 115,
        "13228": 34,
        "13229": 82,
        "13230": 148,
        "13231": 2,
        "13232": 36,
        "13233": 53,
        "13234": 184,
        "13235": 113,
        "13236": 133,
        "13237": 38,
        "13238": 82,
        "13239": 185,
        "13240": 5,
        "13241": 8,
        "13242": 82,
        "13243": 241,
        "13244": 146,
        "13245": 55,
        "13246": 97,
        "13247": 158,
        "13248": 168,
        "13249": 61,
        "13250": 88,
        "13251": 243,
        "13252": 36,
        "13253": 248,
        "13254": 173,
        "13255": 87,
        "13256": 176,
        "13257": 44,
        "13258": 89,
        "13259": 69,
        "13260": 55,
        "13261": 225,
        "13262": 132,
        "13263": 183,
        "13264": 159,
        "13265": 153,
        "13266": 127,
        "13267": 179,
        "13268": 161,
        "13269": 154,
        "13270": 100,
        "13271": 248,
        "13272": 179,
        "13273": 221,
        "13274": 102,
        "13275": 37,
        "13276": 151,
        "13277": 27,
        "13278": 53,
        "13279": 112,
        "13280": 104,
        "13281": 231,
        "13282": 119,
        "13283": 41,
        "13284": 102,
        "13285": 251,
        "13286": 72,
        "13287": 221,
        "13288": 205,
        "13289": 226,
        "13290": 253,
        "13291": 126,
        "13292": 184,
        "13293": 228,
        "13294": 73,
        "13295": 117,
        "13296": 162,
        "13297": 130,
        "13298": 154,
        "13299": 110,
        "13300": 252,
        "13301": 156,
        "13302": 16,
        "13303": 141,
        "13304": 58,
        "13305": 168,
        "13306": 0,
        "13307": 97,
        "13308": 248,
        "13309": 201,
        "13310": 236,
        "13311": 52,
        "13312": 214,
        "13313": 197,
        "13314": 82,
        "13315": 213,
        "13316": 71,
        "13317": 11,
        "13318": 128,
        "13319": 75,
        "13320": 67,
        "13321": 163,
        "13322": 14,
        "13323": 68,
        "13324": 204,
        "13325": 159,
        "13326": 1,
        "13327": 126,
        "13328": 231,
        "13329": 184,
        "13330": 189,
        "13331": 137,
        "13332": 173,
        "13333": 117,
        "13334": 149,
        "13335": 55,
        "13336": 254,
        "13337": 254,
        "13338": 189,
        "13339": 68,
        "13340": 101,
        "13341": 35,
        "13342": 59,
        "13343": 142,
        "13344": 249,
        "13345": 66,
        "13346": 111,
        "13347": 241,
        "13348": 236,
        "13349": 240,
        "13350": 134,
        "13351": 224,
        "13352": 10,
        "13353": 13,
        "13354": 221,
        "13355": 122,
        "13356": 107,
        "13357": 97,
        "13358": 33,
        "13359": 156,
        "13360": 105,
        "13361": 182,
        "13362": 195,
        "13363": 98,
        "13364": 130,
        "13365": 175,
        "13366": 228,
        "13367": 146,
        "13368": 134,
        "13369": 120,
        "13370": 55,
        "13371": 78,
        "13372": 109,
        "13373": 165,
        "13374": 168,
        "13375": 214,
        "13376": 240,
        "13377": 46,
        "13378": 120,
        "13379": 117,
        "13380": 215,
        "13381": 250,
        "13382": 54,
        "13383": 98,
        "13384": 63,
        "13385": 160,
        "13386": 147,
        "13387": 182,
        "13388": 227,
        "13389": 145,
        "13390": 229,
        "13391": 48,
        "13392": 181,
        "13393": 89,
        "13394": 4,
        "13395": 189,
        "13396": 225,
        "13397": 106,
        "13398": 70,
        "13399": 96,
        "13400": 223,
        "13401": 95,
        "13402": 113,
        "13403": 111,
        "13404": 41,
        "13405": 60,
        "13406": 163,
        "13407": 159,
        "13408": 191,
        "13409": 212,
        "13410": 214,
        "13411": 155,
        "13412": 132,
        "13413": 53,
        "13414": 182,
        "13415": 39,
        "13416": 84,
        "13417": 33,
        "13418": 61,
        "13419": 142,
        "13420": 67,
        "13421": 127,
        "13422": 251,
        "13423": 103,
        "13424": 199,
        "13425": 78,
        "13426": 36,
        "13427": 198,
        "13428": 58,
        "13429": 140,
        "13430": 87,
        "13431": 151,
        "13432": 155,
        "13433": 176,
        "13434": 211,
        "13435": 211,
        "13436": 42,
        "13437": 27,
        "13438": 246,
        "13439": 68,
        "13440": 63,
        "13441": 164,
        "13442": 129,
        "13443": 144,
        "13444": 98,
        "13445": 222,
        "13446": 219,
        "13447": 221,
        "13448": 199,
        "13449": 4,
        "13450": 121,
        "13451": 178,
        "13452": 201,
        "13453": 105,
        "13454": 156,
        "13455": 210,
        "13456": 237,
        "13457": 4,
        "13458": 164,
        "13459": 118,
        "13460": 29,
        "13461": 51,
        "13462": 24,
        "13463": 127,
        "13464": 244,
        "13465": 61,
        "13466": 208,
        "13467": 195,
        "13468": 243,
        "13469": 242,
        "13470": 62,
        "13471": 89,
        "13472": 109,
        "13473": 60,
        "13474": 99,
        "13475": 130,
        "13476": 110,
        "13477": 240,
        "13478": 39,
        "13479": 180,
        "13480": 68,
        "13481": 65,
        "13482": 78,
        "13483": 187,
        "13484": 4,
        "13485": 217,
        "13486": 221,
        "13487": 136,
        "13488": 166,
        "13489": 232,
        "13490": 195,
        "13491": 209,
        "13492": 96,
        "13493": 16,
        "13494": 185,
        "13495": 54,
        "13496": 103,
        "13497": 51,
        "13498": 223,
        "13499": 67,
        "13500": 178,
        "13501": 81,
        "13502": 174,
        "13503": 85,
        "13504": 164,
        "13505": 218,
        "13506": 1,
        "13507": 238,
        "13508": 160,
        "13509": 5,
        "13510": 137,
        "13511": 247,
        "13512": 131,
        "13513": 169,
        "13514": 1,
        "13515": 172,
        "13516": 216,
        "13517": 203,
        "13518": 250,
        "13519": 5,
        "13520": 117,
        "13521": 216,
        "13522": 251,
        "13523": 74,
        "13524": 201,
        "13525": 185,
        "13526": 255,
        "13527": 175,
        "13528": 193,
        "13529": 242,
        "13530": 52,
        "13531": 117,
        "13532": 145,
        "13533": 222,
        "13534": 147,
        "13535": 202,
        "13536": 145,
        "13537": 189,
        "13538": 241,
        "13539": 194,
        "13540": 216,
        "13541": 89,
        "13542": 167,
        "13543": 237,
        "13544": 58,
        "13545": 173,
        "13546": 246,
        "13547": 210,
        "13548": 192,
        "13549": 141,
        "13550": 80,
        "13551": 22,
        "13552": 39,
        "13553": 203,
        "13554": 178,
        "13555": 104,
        "13556": 211,
        "13557": 8,
        "13558": 66,
        "13559": 220,
        "13560": 100,
        "13561": 72,
        "13562": 180,
        "13563": 145,
        "13564": 224,
        "13565": 18,
        "13566": 204,
        "13567": 205,
        "13568": 129,
        "13569": 46,
        "13570": 163,
        "13571": 233,
        "13572": 185,
        "13573": 217,
        "13574": 30,
        "13575": 52,
        "13576": 242,
        "13577": 145,
        "13578": 123,
        "13579": 1,
        "13580": 252,
        "13581": 142,
        "13582": 71,
        "13583": 143,
        "13584": 51,
        "13585": 209,
        "13586": 240,
        "13587": 139,
        "13588": 57,
        "13589": 46,
        "13590": 233,
        "13591": 144,
        "13592": 59,
        "13593": 226,
        "13594": 105,
        "13595": 137,
        "13596": 149,
        "13597": 117,
        "13598": 182,
        "13599": 65,
        "13600": 155,
        "13601": 22,
        "13602": 182,
        "13603": 151,
        "13604": 46,
        "13605": 248,
        "13606": 243,
        "13607": 52,
        "13608": 88,
        "13609": 100,
        "13610": 196,
        "13611": 11,
        "13612": 220,
        "13613": 150,
        "13614": 250,
        "13615": 120,
        "13616": 137,
        "13617": 45,
        "13618": 119,
        "13619": 89,
        "13620": 0,
        "13621": 58,
        "13622": 87,
        "13623": 152,
        "13624": 113,
        "13625": 221,
        "13626": 85,
        "13627": 189,
        "13628": 35,
        "13629": 225,
        "13630": 60,
        "13631": 173,
        "13632": 235,
        "13633": 15,
        "13634": 225,
        "13635": 80,
        "13636": 83,
        "13637": 131,
        "13638": 16,
        "13639": 26,
        "13640": 23,
        "13641": 96,
        "13642": 147,
        "13643": 63,
        "13644": 66,
        "13645": 184,
        "13646": 69,
        "13647": 83,
        "13648": 132,
        "13649": 232,
        "13650": 155,
        "13651": 215,
        "13652": 92,
        "13653": 125,
        "13654": 169,
        "13655": 133,
        "13656": 162,
        "13657": 57,
        "13658": 131,
        "13659": 25,
        "13660": 232,
        "13661": 227,
        "13662": 166,
        "13663": 185,
        "13664": 13,
        "13665": 177,
        "13666": 173,
        "13667": 252,
        "13668": 39,
        "13669": 132,
        "13670": 170,
        "13671": 88,
        "13672": 223,
        "13673": 80,
        "13674": 111,
        "13675": 180,
        "13676": 27,
        "13677": 55,
        "13678": 170,
        "13679": 204,
        "13680": 216,
        "13681": 120,
        "13682": 118,
        "13683": 171,
        "13684": 194,
        "13685": 246,
        "13686": 231,
        "13687": 238,
        "13688": 168,
        "13689": 46,
        "13690": 221,
        "13691": 20,
        "13692": 90,
        "13693": 199,
        "13694": 240,
        "13695": 208,
        "13696": 129,
        "13697": 202,
        "13698": 24,
        "13699": 180,
        "13700": 141,
        "13701": 27,
        "13702": 5,
        "13703": 204,
        "13704": 162,
        "13705": 21,
        "13706": 228,
        "13707": 84,
        "13708": 142,
        "13709": 217,
        "13710": 249,
        "13711": 71,
        "13712": 152,
        "13713": 114,
        "13714": 228,
        "13715": 170,
        "13716": 198,
        "13717": 241,
        "13718": 95,
        "13719": 143,
        "13720": 164,
        "13721": 248,
        "13722": 100,
        "13723": 56,
        "13724": 104,
        "13725": 115,
        "13726": 160,
        "13727": 213,
        "13728": 100,
        "13729": 59,
        "13730": 222,
        "13731": 6,
        "13732": 133,
        "13733": 118,
        "13734": 83,
        "13735": 126,
        "13736": 113,
        "13737": 69,
        "13738": 208,
        "13739": 72,
        "13740": 175,
        "13741": 240,
        "13742": 192,
        "13743": 184,
        "13744": 74,
        "13745": 207,
        "13746": 39,
        "13747": 202,
        "13748": 121,
        "13749": 157,
        "13750": 92,
        "13751": 91,
        "13752": 221,
        "13753": 58,
        "13754": 74,
        "13755": 80,
        "13756": 193,
        "13757": 168,
        "13758": 160,
        "13759": 176,
        "13760": 160,
        "13761": 146,
        "13762": 26,
        "13763": 253,
        "13764": 86,
        "13765": 230,
        "13766": 240,
        "13767": 65,
        "13768": 232,
        "13769": 131,
        "13770": 245,
        "13771": 162,
        "13772": 217,
        "13773": 63,
        "13774": 134,
        "13775": 179,
        "13776": 81,
        "13777": 70,
        "13778": 244,
        "13779": 106,
        "13780": 136,
        "13781": 125,
        "13782": 198,
        "13783": 11,
        "13784": 15,
        "13785": 225,
        "13786": 182,
        "13787": 18,
        "13788": 246,
        "13789": 72,
        "13790": 217,
        "13791": 61,
        "13792": 179,
        "13793": 67,
        "13794": 218,
        "13795": 71,
        "13796": 198,
        "13797": 196,
        "13798": 194,
        "13799": 171,
        "13800": 129,
        "13801": 121,
        "13802": 124,
        "13803": 107,
        "13804": 212,
        "13805": 96,
        "13806": 227,
        "13807": 206,
        "13808": 116,
        "13809": 238,
        "13810": 229,
        "13811": 251,
        "13812": 40,
        "13813": 109,
        "13814": 139,
        "13815": 242,
        "13816": 164,
        "13817": 38,
        "13818": 193,
        "13819": 151,
        "13820": 77,
        "13821": 116,
        "13822": 38,
        "13823": 102,
        "13824": 219,
        "13825": 140,
        "13826": 230,
        "13827": 84,
        "13828": 177,
        "13829": 210,
        "13830": 32,
        "13831": 215,
        "13832": 43,
        "13833": 127,
        "13834": 133,
        "13835": 244,
        "13836": 7,
        "13837": 87,
        "13838": 36,
        "13839": 118,
        "13840": 143,
        "13841": 121,
        "13842": 169,
        "13843": 147,
        "13844": 43,
        "13845": 159,
        "13846": 182,
        "13847": 244,
        "13848": 107,
        "13849": 116,
        "13850": 21,
        "13851": 98,
        "13852": 152,
        "13853": 32,
        "13854": 114,
        "13855": 46,
        "13856": 94,
        "13857": 131,
        "13858": 81,
        "13859": 201,
        "13860": 82,
        "13861": 23,
        "13862": 13,
        "13863": 62,
        "13864": 176,
        "13865": 110,
        "13866": 17,
        "13867": 243,
        "13868": 131,
        "13869": 210,
        "13870": 174,
        "13871": 114,
        "13872": 0,
        "13873": 222,
        "13874": 86,
        "13875": 85,
        "13876": 89,
        "13877": 6,
        "13878": 79,
        "13879": 28,
        "13880": 228,
        "13881": 126,
        "13882": 89,
        "13883": 245,
        "13884": 243,
        "13885": 52,
        "13886": 71,
        "13887": 130,
        "13888": 191,
        "13889": 237,
        "13890": 46,
        "13891": 211,
        "13892": 220,
        "13893": 209,
        "13894": 159,
        "13895": 1,
        "13896": 31,
        "13897": 150,
        "13898": 14,
        "13899": 96,
        "13900": 9,
        "13901": 159,
        "13902": 19,
        "13903": 108,
        "13904": 153,
        "13905": 204,
        "13906": 72,
        "13907": 183,
        "13908": 215,
        "13909": 55,
        "13910": 109,
        "13911": 99,
        "13912": 251,
        "13913": 212,
        "13914": 192,
        "13915": 48,
        "13916": 158,
        "13917": 238,
        "13918": 175,
        "13919": 142,
        "13920": 181,
        "13921": 4,
        "13922": 65,
        "13923": 192,
        "13924": 10,
        "13925": 240,
        "13926": 251,
        "13927": 194,
        "13928": 94,
        "13929": 160,
        "13930": 55,
        "13931": 96,
        "13932": 183,
        "13933": 47,
        "13934": 151,
        "13935": 253,
        "13936": 17,
        "13937": 45,
        "13938": 187,
        "13939": 98,
        "13940": 215,
        "13941": 250,
        "13942": 197,
        "13943": 67,
        "13944": 154,
        "13945": 132,
        "13946": 103,
        "13947": 48,
        "13948": 43,
        "13949": 63,
        "13950": 158,
        "13951": 138,
        "13952": 233,
        "13953": 239,
        "13954": 100,
        "13955": 40,
        "13956": 234,
        "13957": 116,
        "13958": 208,
        "13959": 41,
        "13960": 119,
        "13961": 234,
        "13962": 236,
        "13963": 188,
        "13964": 154,
        "13965": 151,
        "13966": 138,
        "13967": 202,
        "13968": 117,
        "13969": 130,
        "13970": 253,
        "13971": 72,
        "13972": 235,
        "13973": 23,
        "13974": 157,
        "13975": 20,
        "13976": 80,
        "13977": 235,
        "13978": 245,
        "13979": 38,
        "13980": 74,
        "13981": 234,
        "13982": 33,
        "13983": 177,
        "13984": 125,
        "13985": 159,
        "13986": 165,
        "13987": 202,
        "13988": 92,
        "13989": 194,
        "13990": 115,
        "13991": 217,
        "13992": 160,
        "13993": 199,
        "13994": 128,
        "13995": 78,
        "13996": 135,
        "13997": 33,
        "13998": 209,
        "13999": 90,
        "14000": 59,
        "14001": 46,
        "14002": 12,
        "14003": 147,
        "14004": 216,
        "14005": 100,
        "14006": 210,
        "14007": 72,
        "14008": 123,
        "14009": 8,
        "14010": 98,
        "14011": 228,
        "14012": 92,
        "14013": 225,
        "14014": 206,
        "14015": 244,
        "14016": 71,
        "14017": 144,
        "14018": 201,
        "14019": 251,
        "14020": 211,
        "14021": 188,
        "14022": 49,
        "14023": 97,
        "14024": 111,
        "14025": 120,
        "14026": 219,
        "14027": 7,
        "14028": 117,
        "14029": 167,
        "14030": 9,
        "14031": 88,
        "14032": 207,
        "14033": 161,
        "14034": 91,
        "14035": 213,
        "14036": 252,
        "14037": 245,
        "14038": 156,
        "14039": 252,
        "14040": 217,
        "14041": 85,
        "14042": 241,
        "14043": 186,
        "14044": 33,
        "14045": 245,
        "14046": 114,
        "14047": 235,
        "14048": 145,
        "14049": 123,
        "14050": 66,
        "14051": 85,
        "14052": 137,
        "14053": 49,
        "14054": 145,
        "14055": 94,
        "14056": 138,
        "14057": 202,
        "14058": 196,
        "14059": 85,
        "14060": 89,
        "14061": 96,
        "14062": 148,
        "14063": 77,
        "14064": 162,
        "14065": 69,
        "14066": 207,
        "14067": 67,
        "14068": 190,
        "14069": 163,
        "14070": 139,
        "14071": 251,
        "14072": 8,
        "14073": 155,
        "14074": 146,
        "14075": 3,
        "14076": 224,
        "14077": 230,
        "14078": 165,
        "14079": 2,
        "14080": 92,
        "14081": 200,
        "14082": 239,
        "14083": 250,
        "14084": 6,
        "14085": 57,
        "14086": 139,
        "14087": 210,
        "14088": 168,
        "14089": 122,
        "14090": 246,
        "14091": 174,
        "14092": 25,
        "14093": 27,
        "14094": 143,
        "14095": 76,
        "14096": 70,
        "14097": 210,
        "14098": 246,
        "14099": 148,
        "14100": 188,
        "14101": 17,
        "14102": 93,
        "14103": 104,
        "14104": 117,
        "14105": 13,
        "14106": 36,
        "14107": 213,
        "14108": 175,
        "14109": 182,
        "14110": 196,
        "14111": 84,
        "14112": 178,
        "14113": 160,
        "14114": 154,
        "14115": 28,
        "14116": 242,
        "14117": 217,
        "14118": 10,
        "14119": 208,
        "14120": 190,
        "14121": 23,
        "14122": 35,
        "14123": 233,
        "14124": 164,
        "14125": 135,
        "14126": 76,
        "14127": 213,
        "14128": 6,
        "14129": 192,
        "14130": 16,
        "14131": 206,
        "14132": 157,
        "14133": 124,
        "14134": 219,
        "14135": 6,
        "14136": 201,
        "14137": 134,
        "14138": 192,
        "14139": 184,
        "14140": 116,
        "14141": 113,
        "14142": 47,
        "14143": 77,
        "14144": 229,
        "14145": 188,
        "14146": 4,
        "14147": 95,
        "14148": 231,
        "14149": 81,
        "14150": 183,
        "14151": 46,
        "14152": 249,
        "14153": 127,
        "14154": 108,
        "14155": 189,
        "14156": 234,
        "14157": 128,
        "14158": 89,
        "14159": 199,
        "14160": 23,
        "14161": 173,
        "14162": 143,
        "14163": 11,
        "14164": 227,
        "14165": 238,
        "14166": 2,
        "14167": 36,
        "14168": 152,
        "14169": 91,
        "14170": 82,
        "14171": 22,
        "14172": 186,
        "14173": 69,
        "14174": 116,
        "14175": 158,
        "14176": 145,
        "14177": 32,
        "14178": 16,
        "14179": 25,
        "14180": 124,
        "14181": 222,
        "14182": 8,
        "14183": 183,
        "14184": 172,
        "14185": 135,
        "14186": 241,
        "14187": 222,
        "14188": 253,
        "14189": 133,
        "14190": 148,
        "14191": 191,
        "14192": 179,
        "14193": 240,
        "14194": 74,
        "14195": 25,
        "14196": 177,
        "14197": 82,
        "14198": 252,
        "14199": 174,
        "14200": 21,
        "14201": 185,
        "14202": 232,
        "14203": 165,
        "14204": 177,
        "14205": 142,
        "14206": 76,
        "14207": 72,
        "14208": 203,
        "14209": 117,
        "14210": 151,
        "14211": 252,
        "14212": 238,
        "14213": 55,
        "14214": 22,
        "14215": 235,
        "14216": 150,
        "14217": 30,
        "14218": 212,
        "14219": 117,
        "14220": 0,
        "14221": 119,
        "14222": 2,
        "14223": 188,
        "14224": 142,
        "14225": 197,
        "14226": 15,
        "14227": 40,
        "14228": 177,
        "14229": 136,
        "14230": 34,
        "14231": 7,
        "14232": 220,
        "14233": 147,
        "14234": 88,
        "14235": 165,
        "14236": 80,
        "14237": 111,
        "14238": 154,
        "14239": 198,
        "14240": 123,
        "14241": 163,
        "14242": 130,
        "14243": 1,
        "14244": 101,
        "14245": 10,
        "14246": 112,
        "14247": 79,
        "14248": 174,
        "14249": 254,
        "14250": 210,
        "14251": 66,
        "14252": 70,
        "14253": 221,
        "14254": 91,
        "14255": 241,
        "14256": 249,
        "14257": 128,
        "14258": 168,
        "14259": 70,
        "14260": 62,
        "14261": 82,
        "14262": 39,
        "14263": 15,
        "14264": 141,
        "14265": 128,
        "14266": 132,
        "14267": 168,
        "14268": 211,
        "14269": 68,
        "14270": 247,
        "14271": 101,
        "14272": 204,
        "14273": 154,
        "14274": 82,
        "14275": 255,
        "14276": 226,
        "14277": 95,
        "14278": 40,
        "14279": 93,
        "14280": 240,
        "14281": 14,
        "14282": 255,
        "14283": 116,
        "14284": 27,
        "14285": 87,
        "14286": 153,
        "14287": 129,
        "14288": 178,
        "14289": 128,
        "14290": 96,
        "14291": 22,
        "14292": 56,
        "14293": 51,
        "14294": 25,
        "14295": 219,
        "14296": 60,
        "14297": 45,
        "14298": 4,
        "14299": 113,
        "14300": 33,
        "14301": 67,
        "14302": 52,
        "14303": 6,
        "14304": 96,
        "14305": 98,
        "14306": 171,
        "14307": 95,
        "14308": 7,
        "14309": 223,
        "14310": 128,
        "14311": 46,
        "14312": 215,
        "14313": 81,
        "14314": 44,
        "14315": 219,
        "14316": 21,
        "14317": 174,
        "14318": 60,
        "14319": 10,
        "14320": 117,
        "14321": 81,
        "14322": 106,
        "14323": 78,
        "14324": 234,
        "14325": 9,
        "14326": 145,
        "14327": 235,
        "14328": 137,
        "14329": 9,
        "14330": 193,
        "14331": 85,
        "14332": 66,
        "14333": 209,
        "14334": 117,
        "14335": 231,
        "14336": 229,
        "14337": 73,
        "14338": 26,
        "14339": 127,
        "14340": 40,
        "14341": 204,
        "14342": 26,
        "14343": 207,
        "14344": 225,
        "14345": 165,
        "14346": 97,
        "14347": 239,
        "14348": 120,
        "14349": 189,
        "14350": 138,
        "14351": 133,
        "14352": 30,
        "14353": 108,
        "14354": 30,
        "14355": 241,
        "14356": 50,
        "14357": 147,
        "14358": 127,
        "14359": 192,
        "14360": 11,
        "14361": 248,
        "14362": 138,
        "14363": 57,
        "14364": 169,
        "14365": 133,
        "14366": 154,
        "14367": 214,
        "14368": 69,
        "14369": 190,
        "14370": 127,
        "14371": 52,
        "14372": 194,
        "14373": 147,
        "14374": 187,
        "14375": 244,
        "14376": 14,
        "14377": 224,
        "14378": 52,
        "14379": 204,
        "14380": 89,
        "14381": 19,
        "14382": 25,
        "14383": 161,
        "14384": 126,
        "14385": 216,
        "14386": 255,
        "14387": 95,
        "14388": 162,
        "14389": 219,
        "14390": 129,
        "14391": 254,
        "14392": 91,
        "14393": 50,
        "14394": 10,
        "14395": 148,
        "14396": 197,
        "14397": 207,
        "14398": 92,
        "14399": 162,
        "14400": 154,
        "14401": 116,
        "14402": 2,
        "14403": 82,
        "14404": 219,
        "14405": 30,
        "14406": 244,
        "14407": 221,
        "14408": 99,
        "14409": 103,
        "14410": 116,
        "14411": 221,
        "14412": 195,
        "14413": 59,
        "14414": 242,
        "14415": 19,
        "14416": 222,
        "14417": 148,
        "14418": 79,
        "14419": 197,
        "14420": 67,
        "14421": 74,
        "14422": 224,
        "14423": 97,
        "14424": 139,
        "14425": 87,
        "14426": 74,
        "14427": 67,
        "14428": 85,
        "14429": 128,
        "14430": 118,
        "14431": 108,
        "14432": 121,
        "14433": 205,
        "14434": 165,
        "14435": 73,
        "14436": 221,
        "14437": 214,
        "14438": 164,
        "14439": 226,
        "14440": 193,
        "14441": 65,
        "14442": 184,
        "14443": 212,
        "14444": 206,
        "14445": 234,
        "14446": 171,
        "14447": 113,
        "14448": 53,
        "14449": 152,
        "14450": 188,
        "14451": 183,
        "14452": 99,
        "14453": 201,
        "14454": 79,
        "14455": 251,
        "14456": 176,
        "14457": 115,
        "14458": 175,
        "14459": 10,
        "14460": 135,
        "14461": 74,
        "14462": 33,
        "14463": 108,
        "14464": 85,
        "14465": 170,
        "14466": 200,
        "14467": 184,
        "14468": 255,
        "14469": 124,
        "14470": 94,
        "14471": 43,
        "14472": 236,
        "14473": 66,
        "14474": 186,
        "14475": 11,
        "14476": 47,
        "14477": 217,
        "14478": 51,
        "14479": 186,
        "14480": 167,
        "14481": 41,
        "14482": 179,
        "14483": 200,
        "14484": 51,
        "14485": 167,
        "14486": 61,
        "14487": 210,
        "14488": 210,
        "14489": 111,
        "14490": 123,
        "14491": 238,
        "14492": 51,
        "14493": 116,
        "14494": 190,
        "14495": 209,
        "14496": 49,
        "14497": 160,
        "14498": 60,
        "14499": 191,
        "14500": 141,
        "14501": 240,
        "14502": 192,
        "14503": 120,
        "14504": 148,
        "14505": 3,
        "14506": 100,
        "14507": 107,
        "14508": 11,
        "14509": 14,
        "14510": 16,
        "14511": 40,
        "14512": 229,
        "14513": 138,
        "14514": 161,
        "14515": 145,
        "14516": 165,
        "14517": 245,
        "14518": 68,
        "14519": 122,
        "14520": 58,
        "14521": 203,
        "14522": 249,
        "14523": 162,
        "14524": 51,
        "14525": 188,
        "14526": 54,
        "14527": 194,
        "14528": 228,
        "14529": 96,
        "14530": 46,
        "14531": 111,
        "14532": 37,
        "14533": 220,
        "14534": 35,
        "14535": 133,
        "14536": 189,
        "14537": 133,
        "14538": 4,
        "14539": 124,
        "14540": 124,
        "14541": 209,
        "14542": 144,
        "14543": 251,
        "14544": 65,
        "14545": 39,
        "14546": 131,
        "14547": 65,
        "14548": 22,
        "14549": 234,
        "14550": 49,
        "14551": 97,
        "14552": 33,
        "14553": 88,
        "14554": 46,
        "14555": 234,
        "14556": 17,
        "14557": 184,
        "14558": 221,
        "14559": 39,
        "14560": 36,
        "14561": 145,
        "14562": 20,
        "14563": 148,
        "14564": 180,
        "14565": 157,
        "14566": 94,
        "14567": 67,
        "14568": 87,
        "14569": 133,
        "14570": 13,
        "14571": 191,
        "14572": 150,
        "14573": 175,
        "14574": 152,
        "14575": 139,
        "14576": 178,
        "14577": 109,
        "14578": 165,
        "14579": 17,
        "14580": 209,
        "14581": 59,
        "14582": 43,
        "14583": 43,
        "14584": 244,
        "14585": 128,
        "14586": 192,
        "14587": 18,
        "14588": 222,
        "14589": 133,
        "14590": 13,
        "14591": 189,
        "14592": 127,
        "14593": 231,
        "14594": 251,
        "14595": 65,
        "14596": 151,
        "14597": 142,
        "14598": 70,
        "14599": 4,
        "14600": 110,
        "14601": 145,
        "14602": 155,
        "14603": 36,
        "14604": 9,
        "14605": 35,
        "14606": 195,
        "14607": 18,
        "14608": 206,
        "14609": 133,
        "14610": 110,
        "14611": 158,
        "14612": 147,
        "14613": 134,
        "14614": 73,
        "14615": 38,
        "14616": 10,
        "14617": 175,
        "14618": 26,
        "14619": 171,
        "14620": 72,
        "14621": 206,
        "14622": 250,
        "14623": 180,
        "14624": 91,
        "14625": 119,
        "14626": 7,
        "14627": 169,
        "14628": 157,
        "14629": 167,
        "14630": 39,
        "14631": 242,
        "14632": 107,
        "14633": 144,
        "14634": 78,
        "14635": 113,
        "14636": 188,
        "14637": 198,
        "14638": 189,
        "14639": 237,
        "14640": 192,
        "14641": 210,
        "14642": 56,
        "14643": 116,
        "14644": 103,
        "14645": 207,
        "14646": 236,
        "14647": 183,
        "14648": 177,
        "14649": 90,
        "14650": 233,
        "14651": 32,
        "14652": 217,
        "14653": 186,
        "14654": 84,
        "14655": 179,
        "14656": 214,
        "14657": 181,
        "14658": 197,
        "14659": 170,
        "14660": 146,
        "14661": 43,
        "14662": 109,
        "14663": 136,
        "14664": 220,
        "14665": 130,
        "14666": 14,
        "14667": 72,
        "14668": 18,
        "14669": 19,
        "14670": 58,
        "14671": 222,
        "14672": 198,
        "14673": 219,
        "14674": 131,
        "14675": 199,
        "14676": 127,
        "14677": 52,
        "14678": 144,
        "14679": 153,
        "14680": 68,
        "14681": 43,
        "14682": 24,
        "14683": 75,
        "14684": 141,
        "14685": 51,
        "14686": 10,
        "14687": 34,
        "14688": 78,
        "14689": 227,
        "14690": 93,
        "14691": 127,
        "14692": 4,
        "14693": 239,
        "14694": 71,
        "14695": 167,
        "14696": 159,
        "14697": 163,
        "14698": 246,
        "14699": 53,
        "14700": 140,
        "14701": 160,
        "14702": 103,
        "14703": 95,
        "14704": 219,
        "14705": 123,
        "14706": 2,
        "14707": 6,
        "14708": 177,
        "14709": 137,
        "14710": 83,
        "14711": 122,
        "14712": 201,
        "14713": 89,
        "14714": 122,
        "14715": 47,
        "14716": 69,
        "14717": 19,
        "14718": 146,
        "14719": 140,
        "14720": 140,
        "14721": 196,
        "14722": 17,
        "14723": 236,
        "14724": 24,
        "14725": 227,
        "14726": 178,
        "14727": 133,
        "14728": 32,
        "14729": 10,
        "14730": 148,
        "14731": 85,
        "14732": 135,
        "14733": 188,
        "14734": 86,
        "14735": 97,
        "14736": 49,
        "14737": 158,
        "14738": 5,
        "14739": 54,
        "14740": 246,
        "14741": 227,
        "14742": 169,
        "14743": 229,
        "14744": 138,
        "14745": 147,
        "14746": 200,
        "14747": 209,
        "14748": 228,
        "14749": 102,
        "14750": 111,
        "14751": 247,
        "14752": 174,
        "14753": 197,
        "14754": 29,
        "14755": 85,
        "14756": 230,
        "14757": 113,
        "14758": 45,
        "14759": 179,
        "14760": 183,
        "14761": 97,
        "14762": 122,
        "14763": 105,
        "14764": 15,
        "14765": 51,
        "14766": 120,
        "14767": 109,
        "14768": 145,
        "14769": 43,
        "14770": 168,
        "14771": 142,
        "14772": 141,
        "14773": 147,
        "14774": 201,
        "14775": 66,
        "14776": 209,
        "14777": 163,
        "14778": 202,
        "14779": 2,
        "14780": 162,
        "14781": 62,
        "14782": 213,
        "14783": 113,
        "14784": 42,
        "14785": 57,
        "14786": 25,
        "14787": 59,
        "14788": 9,
        "14789": 213,
        "14790": 242,
        "14791": 53,
        "14792": 224,
        "14793": 100,
        "14794": 143,
        "14795": 188,
        "14796": 9,
        "14797": 180,
        "14798": 97,
        "14799": 163,
        "14800": 43,
        "14801": 113,
        "14802": 72,
        "14803": 128,
        "14804": 228,
        "14805": 79,
        "14806": 123,
        "14807": 233,
        "14808": 30,
        "14809": 160,
        "14810": 32,
        "14811": 108,
        "14812": 192,
        "14813": 36,
        "14814": 23,
        "14815": 160,
        "14816": 5,
        "14817": 17,
        "14818": 220,
        "14819": 211,
        "14820": 56,
        "14821": 160,
        "14822": 118,
        "14823": 81,
        "14824": 150,
        "14825": 149,
        "14826": 169,
        "14827": 17,
        "14828": 83,
        "14829": 123,
        "14830": 229,
        "14831": 115,
        "14832": 236,
        "14833": 177,
        "14834": 1,
        "14835": 143,
        "14836": 44,
        "14837": 19,
        "14838": 215,
        "14839": 145,
        "14840": 167,
        "14841": 96,
        "14842": 213,
        "14843": 57,
        "14844": 60,
        "14845": 166,
        "14846": 208,
        "14847": 218,
        "14848": 132,
        "14849": 40,
        "14850": 66,
        "14851": 79,
        "14852": 225,
        "14853": 46,
        "14854": 187,
        "14855": 42,
        "14856": 61,
        "14857": 248,
        "14858": 167,
        "14859": 162,
        "14860": 136,
        "14861": 190,
        "14862": 94,
        "14863": 164,
        "14864": 169,
        "14865": 216,
        "14866": 179,
        "14867": 132,
        "14868": 137,
        "14869": 8,
        "14870": 248,
        "14871": 78,
        "14872": 170,
        "14873": 28,
        "14874": 83,
        "14875": 76,
        "14876": 4,
        "14877": 139,
        "14878": 85,
        "14879": 91,
        "14880": 36,
        "14881": 19,
        "14882": 101,
        "14883": 122,
        "14884": 220,
        "14885": 245,
        "14886": 131,
        "14887": 62,
        "14888": 15,
        "14889": 34,
        "14890": 22,
        "14891": 156,
        "14892": 69,
        "14893": 168,
        "14894": 250,
        "14895": 175,
        "14896": 188,
        "14897": 105,
        "14898": 223,
        "14899": 76,
        "14900": 16,
        "14901": 7,
        "14902": 16,
        "14903": 53,
        "14904": 82,
        "14905": 132,
        "14906": 33,
        "14907": 247,
        "14908": 242,
        "14909": 212,
        "14910": 227,
        "14911": 42,
        "14912": 55,
        "14913": 206,
        "14914": 150,
        "14915": 169,
        "14916": 27,
        "14917": 228,
        "14918": 232,
        "14919": 88,
        "14920": 179,
        "14921": 207,
        "14922": 129,
        "14923": 30,
        "14924": 177,
        "14925": 89,
        "14926": 157,
        "14927": 27,
        "14928": 147,
        "14929": 160,
        "14930": 172,
        "14931": 228,
        "14932": 142,
        "14933": 77,
        "14934": 119,
        "14935": 123,
        "14936": 213,
        "14937": 26,
        "14938": 2,
        "14939": 64,
        "14940": 106,
        "14941": 82,
        "14942": 182,
        "14943": 240,
        "14944": 186,
        "14945": 56,
        "14946": 196,
        "14947": 255,
        "14948": 44,
        "14949": 143,
        "14950": 93,
        "14951": 211,
        "14952": 65,
        "14953": 8,
        "14954": 186,
        "14955": 98,
        "14956": 36,
        "14957": 163,
        "14958": 125,
        "14959": 207,
        "14960": 103,
        "14961": 62,
        "14962": 128,
        "14963": 4,
        "14964": 39,
        "14965": 95,
        "14966": 111,
        "14967": 94,
        "14968": 6,
        "14969": 229,
        "14970": 121,
        "14971": 149,
        "14972": 59,
        "14973": 198,
        "14974": 118,
        "14975": 194,
        "14976": 47,
        "14977": 142,
        "14978": 93,
        "14979": 234,
        "14980": 22,
        "14981": 148,
        "14982": 56,
        "14983": 88,
        "14984": 216,
        "14985": 141,
        "14986": 229,
        "14987": 78,
        "14988": 147,
        "14989": 247,
        "14990": 102,
        "14991": 109,
        "14992": 250,
        "14993": 106,
        "14994": 209,
        "14995": 130,
        "14996": 29,
        "14997": 224,
        "14998": 64,
        "14999": 189,
        "15000": 243,
        "15001": 15,
        "15002": 135,
        "15003": 29,
        "15004": 23,
        "15005": 195,
        "15006": 227,
        "15007": 30,
        "15008": 126,
        "15009": 196,
        "15010": 101,
        "15011": 85,
        "15012": 39,
        "15013": 130,
        "15014": 116,
        "15015": 152,
        "15016": 156,
        "15017": 109,
        "15018": 124,
        "15019": 172,
        "15020": 71,
        "15021": 112,
        "15022": 157,
        "15023": 247,
        "15024": 178,
        "15025": 128,
        "15026": 90,
        "15027": 115,
        "15028": 8,
        "15029": 39,
        "15030": 37,
        "15031": 198,
        "15032": 105,
        "15033": 164,
        "15034": 172,
        "15035": 114,
        "15036": 153,
        "15037": 121,
        "15038": 225,
        "15039": 246,
        "15040": 151,
        "15041": 2,
        "15042": 225,
        "15043": 55,
        "15044": 56,
        "15045": 179,
        "15046": 255,
        "15047": 183,
        "15048": 0,
        "15049": 183,
        "15050": 126,
        "15051": 209,
        "15052": 117,
        "15053": 49,
        "15054": 50,
        "15055": 83,
        "15056": 37,
        "15057": 200,
        "15058": 36,
        "15059": 62,
        "15060": 13,
        "15061": 172,
        "15062": 14,
        "15063": 35,
        "15064": 52,
        "15065": 255,
        "15066": 9,
        "15067": 52,
        "15068": 83,
        "15069": 127,
        "15070": 180,
        "15071": 157,
        "15072": 17,
        "15073": 43,
        "15074": 137,
        "15075": 153,
        "15076": 101,
        "15077": 135,
        "15078": 48,
        "15079": 155,
        "15080": 205,
        "15081": 44,
        "15082": 94,
        "15083": 235,
        "15084": 99,
        "15085": 182,
        "15086": 65,
        "15087": 28,
        "15088": 167,
        "15089": 45,
        "15090": 156,
        "15091": 160,
        "15092": 205,
        "15093": 5,
        "15094": 81,
        "15095": 52,
        "15096": 39,
        "15097": 166,
        "15098": 66,
        "15099": 113,
        "15100": 20,
        "15101": 11,
        "15102": 51,
        "15103": 202,
        "15104": 235,
        "15105": 217,
        "15106": 90,
        "15107": 194,
        "15108": 208,
        "15109": 214,
        "15110": 143,
        "15111": 81,
        "15112": 133,
        "15113": 97,
        "15114": 7,
        "15115": 184,
        "15116": 214,
        "15117": 176,
        "15118": 190,
        "15119": 36,
        "15120": 25,
        "15121": 115,
        "15122": 158,
        "15123": 116,
        "15124": 178,
        "15125": 30,
        "15126": 92,
        "15127": 177,
        "15128": 84,
        "15129": 121,
        "15130": 138,
        "15131": 45,
        "15132": 136,
        "15133": 75,
        "15134": 9,
        "15135": 214,
        "15136": 59,
        "15137": 239,
        "15138": 138,
        "15139": 75,
        "15140": 185,
        "15141": 199,
        "15142": 73,
        "15143": 175,
        "15144": 152,
        "15145": 75,
        "15146": 113,
        "15147": 61,
        "15148": 51,
        "15149": 95,
        "15150": 224,
        "15151": 239,
        "15152": 57,
        "15153": 39,
        "15154": 210,
        "15155": 27,
        "15156": 95,
        "15157": 190,
        "15158": 42,
        "15159": 222,
        "15160": 39,
        "15161": 239,
        "15162": 220,
        "15163": 196,
        "15164": 130,
        "15165": 229,
        "15166": 188,
        "15167": 31,
        "15168": 166,
        "15169": 129,
        "15170": 238,
        "15171": 85,
        "15172": 255,
        "15173": 186,
        "15174": 14,
        "15175": 244,
        "15176": 22,
        "15177": 243,
        "15178": 88,
        "15179": 169,
        "15180": 197,
        "15181": 17,
        "15182": 104,
        "15183": 57,
        "15184": 72,
        "15185": 175,
        "15186": 227,
        "15187": 158,
        "15188": 43,
        "15189": 35,
        "15190": 196,
        "15191": 168,
        "15192": 72,
        "15193": 146,
        "15194": 205,
        "15195": 252,
        "15196": 222,
        "15197": 82,
        "15198": 88,
        "15199": 134,
        "15200": 154,
        "15201": 223,
        "15202": 223,
        "15203": 107,
        "15204": 204,
        "15205": 234,
        "15206": 186,
        "15207": 4,
        "15208": 109,
        "15209": 166,
        "15210": 175,
        "15211": 130,
        "15212": 140,
        "15213": 172,
        "15214": 106,
        "15215": 75,
        "15216": 183,
        "15217": 158,
        "15218": 59,
        "15219": 146,
        "15220": 34,
        "15221": 51,
        "15222": 56,
        "15223": 108,
        "15224": 217,
        "15225": 233,
        "15226": 62,
        "15227": 51,
        "15228": 157,
        "15229": 49,
        "15230": 24,
        "15231": 178,
        "15232": 13,
        "15233": 238,
        "15234": 78,
        "15235": 125,
        "15236": 72,
        "15237": 33,
        "15238": 80,
        "15239": 235,
        "15240": 115,
        "15241": 212,
        "15242": 152,
        "15243": 107,
        "15244": 147,
        "15245": 219,
        "15246": 27,
        "15247": 246,
        "15248": 61,
        "15249": 115,
        "15250": 68,
        "15251": 16,
        "15252": 132,
        "15253": 54,
        "15254": 21,
        "15255": 99,
        "15256": 77,
        "15257": 169,
        "15258": 16,
        "15259": 139,
        "15260": 94,
        "15261": 174,
        "15262": 64,
        "15263": 91,
        "15264": 44,
        "15265": 138,
        "15266": 116,
        "15267": 6,
        "15268": 42,
        "15269": 49,
        "15270": 171,
        "15271": 250,
        "15272": 98,
        "15273": 70,
        "15274": 48,
        "15275": 187,
        "15276": 148,
        "15277": 251,
        "15278": 64,
        "15279": 85,
        "15280": 69,
        "15281": 175,
        "15282": 141,
        "15283": 108,
        "15284": 11,
        "15285": 171,
        "15286": 33,
        "15287": 174,
        "15288": 82,
        "15289": 97,
        "15290": 175,
        "15291": 246,
        "15292": 129,
        "15293": 153,
        "15294": 76,
        "15295": 80,
        "15296": 246,
        "15297": 56,
        "15298": 103,
        "15299": 176,
        "15300": 221,
        "15301": 176,
        "15302": 91,
        "15303": 206,
        "15304": 65,
        "15305": 151,
        "15306": 218,
        "15307": 27,
        "15308": 127,
        "15309": 80,
        "15310": 81,
        "15311": 35,
        "15312": 156,
        "15313": 245,
        "15314": 175,
        "15315": 0,
        "15316": 97,
        "15317": 189,
        "15318": 76,
        "15319": 123,
        "15320": 255,
        "15321": 172,
        "15322": 238,
        "15323": 144,
        "15324": 236,
        "15325": 26,
        "15326": 35,
        "15327": 135,
        "15328": 126,
        "15329": 74,
        "15330": 129,
        "15331": 33,
        "15332": 251,
        "15333": 136,
        "15334": 162,
        "15335": 167,
        "15336": 125,
        "15337": 179,
        "15338": 140,
        "15339": 76,
        "15340": 89,
        "15341": 124,
        "15342": 219,
        "15343": 28,
        "15344": 187,
        "15345": 78,
        "15346": 139,
        "15347": 75,
        "15348": 171,
        "15349": 65,
        "15350": 56,
        "15351": 43,
        "15352": 20,
        "15353": 45,
        "15354": 110,
        "15355": 213,
        "15356": 88,
        "15357": 246,
        "15358": 7,
        "15359": 60,
        "15360": 0,
        "15361": 37,
        "15362": 12,
        "15363": 6,
        "15364": 111,
        "15365": 48,
        "15366": 157,
        "15367": 50,
        "15368": 223,
        "15369": 81,
        "15370": 100,
        "15371": 255,
        "15372": 26,
        "15373": 15,
        "15374": 79,
        "15375": 252,
        "15376": 220,
        "15377": 13,
        "15378": 3,
        "15379": 144,
        "15380": 25,
        "15381": 63,
        "15382": 13,
        "15383": 228,
        "15384": 163,
        "15385": 194,
        "15386": 70,
        "15387": 248,
        "15388": 168,
        "15389": 145,
        "15390": 106,
        "15391": 214,
        "15392": 149,
        "15393": 101,
        "15394": 73,
        "15395": 53,
        "15396": 42,
        "15397": 193,
        "15398": 194,
        "15399": 71,
        "15400": 206,
        "15401": 169,
        "15402": 50,
        "15403": 37,
        "15404": 218,
        "15405": 167,
        "15406": 1,
        "15407": 164,
        "15408": 128,
        "15409": 161,
        "15410": 226,
        "15411": 100,
        "15412": 123,
        "15413": 100,
        "15414": 100,
        "15415": 230,
        "15416": 247,
        "15417": 29,
        "15418": 251,
        "15419": 106,
        "15420": 223,
        "15421": 140,
        "15422": 198,
        "15423": 244,
        "15424": 172,
        "15425": 39,
        "15426": 252,
        "15427": 150,
        "15428": 32,
        "15429": 124,
        "15430": 97,
        "15431": 58,
        "15432": 82,
        "15433": 188,
        "15434": 116,
        "15435": 151,
        "15436": 105,
        "15437": 144,
        "15438": 120,
        "15439": 23,
        "15440": 25,
        "15441": 168,
        "15442": 239,
        "15443": 12,
        "15444": 225,
        "15445": 82,
        "15446": 79,
        "15447": 23,
        "15448": 4,
        "15449": 116,
        "15450": 25,
        "15451": 219,
        "15452": 190,
        "15453": 97,
        "15454": 81,
        "15455": 84,
        "15456": 2,
        "15457": 198,
        "15458": 204,
        "15459": 163,
        "15460": 140,
        "15461": 31,
        "15462": 241,
        "15463": 196,
        "15464": 32,
        "15465": 243,
        "15466": 99,
        "15467": 211,
        "15468": 7,
        "15469": 11,
        "15470": 211,
        "15471": 130,
        "15472": 185,
        "15473": 15,
        "15474": 58,
        "15475": 190,
        "15476": 44,
        "15477": 180,
        "15478": 17,
        "15479": 254,
        "15480": 178,
        "15481": 83,
        "15482": 246,
        "15483": 171,
        "15484": 154,
        "15485": 117,
        "15486": 219,
        "15487": 26,
        "15488": 146,
        "15489": 227,
        "15490": 60,
        "15491": 17,
        "15492": 29,
        "15493": 61,
        "15494": 145,
        "15495": 41,
        "15496": 197,
        "15497": 169,
        "15498": 4,
        "15499": 142,
        "15500": 183,
        "15501": 129,
        "15502": 99,
        "15503": 31,
        "15504": 85,
        "15505": 152,
        "15506": 57,
        "15507": 63,
        "15508": 177,
        "15509": 172,
        "15510": 193,
        "15511": 191,
        "15512": 94,
        "15513": 28,
        "15514": 178,
        "15515": 245,
        "15516": 248,
        "15517": 69,
        "15518": 64,
        "15519": 121,
        "15520": 67,
        "15521": 169,
        "15522": 106,
        "15523": 199,
        "15524": 25,
        "15525": 236,
        "15526": 5,
        "15527": 190,
        "15528": 211,
        "15529": 194,
        "15530": 147,
        "15531": 76,
        "15532": 51,
        "15533": 57,
        "15534": 186,
        "15535": 69,
        "15536": 188,
        "15537": 130,
        "15538": 105,
        "15539": 105,
        "15540": 46,
        "15541": 162,
        "15542": 42,
        "15543": 165,
        "15544": 104,
        "15545": 207,
        "15546": 174,
        "15547": 255,
        "15548": 246,
        "15549": 88,
        "15550": 220,
        "15551": 42,
        "15552": 128,
        "15553": 112,
        "15554": 109,
        "15555": 25,
        "15556": 130,
        "15557": 121,
        "15558": 102,
        "15559": 13,
        "15560": 126,
        "15561": 142,
        "15562": 5,
        "15563": 165,
        "15564": 80,
        "15565": 7,
        "15566": 162,
        "15567": 220,
        "15568": 29,
        "15569": 68,
        "15570": 168,
        "15571": 34,
        "15572": 181,
        "15573": 127,
        "15574": 251,
        "15575": 152,
        "15576": 53,
        "15577": 135,
        "15578": 206,
        "15579": 89,
        "15580": 121,
        "15581": 238,
        "15582": 46,
        "15583": 189,
        "15584": 20,
        "15585": 192,
        "15586": 72,
        "15587": 253,
        "15588": 2,
        "15589": 58,
        "15590": 88,
        "15591": 5,
        "15592": 150,
        "15593": 47,
        "15594": 192,
        "15595": 197,
        "15596": 80,
        "15597": 160,
        "15598": 193,
        "15599": 139,
        "15600": 100,
        "15601": 240,
        "15602": 132,
        "15603": 150,
        "15604": 113,
        "15605": 202,
        "15606": 149,
        "15607": 87,
        "15608": 254,
        "15609": 125,
        "15610": 123,
        "15611": 89,
        "15612": 109,
        "15613": 146,
        "15614": 238,
        "15615": 72,
        "15616": 241,
        "15617": 245,
        "15618": 232,
        "15619": 114,
        "15620": 144,
        "15621": 231,
        "15622": 115,
        "15623": 228,
        "15624": 146,
        "15625": 181,
        "15626": 183,
        "15627": 250,
        "15628": 52,
        "15629": 69,
        "15630": 20,
        "15631": 81,
        "15632": 56,
        "15633": 143,
        "15634": 33,
        "15635": 86,
        "15636": 64,
        "15637": 157,
        "15638": 67,
        "15639": 251,
        "15640": 50,
        "15641": 59,
        "15642": 112,
        "15643": 99,
        "15644": 184,
        "15645": 90,
        "15646": 168,
        "15647": 148,
        "15648": 123,
        "15649": 183,
        "15650": 171,
        "15651": 128,
        "15652": 37,
        "15653": 179,
        "15654": 203,
        "15655": 107,
        "15656": 163,
        "15657": 89,
        "15658": 29,
        "15659": 123,
        "15660": 39,
        "15661": 15,
        "15662": 41,
        "15663": 230,
        "15664": 54,
        "15665": 237,
        "15666": 31,
        "15667": 236,
        "15668": 41,
        "15669": 251,
        "15670": 39,
        "15671": 101,
        "15672": 217,
        "15673": 219,
        "15674": 249,
        "15675": 228,
        "15676": 159,
        "15677": 90,
        "15678": 4,
        "15679": 247,
        "15680": 211,
        "15681": 131,
        "15682": 158,
        "15683": 60,
        "15684": 251,
        "15685": 229,
        "15686": 181,
        "15687": 180,
        "15688": 128,
        "15689": 100,
        "15690": 106,
        "15691": 172,
        "15692": 110,
        "15693": 197,
        "15694": 173,
        "15695": 29,
        "15696": 78,
        "15697": 23,
        "15698": 18,
        "15699": 168,
        "15700": 160,
        "15701": 236,
        "15702": 142,
        "15703": 39,
        "15704": 189,
        "15705": 130,
        "15706": 185,
        "15707": 42,
        "15708": 162,
        "15709": 178,
        "15710": 255,
        "15711": 163,
        "15712": 178,
        "15713": 222,
        "15714": 38,
        "15715": 237,
        "15716": 211,
        "15717": 85,
        "15718": 125,
        "15719": 82,
        "15720": 128,
        "15721": 228,
        "15722": 215,
        "15723": 188,
        "15724": 118,
        "15725": 115,
        "15726": 168,
        "15727": 226,
        "15728": 211,
        "15729": 38,
        "15730": 112,
        "15731": 6,
        "15732": 225,
        "15733": 193,
        "15734": 87,
        "15735": 61,
        "15736": 243,
        "15737": 158,
        "15738": 49,
        "15739": 73,
        "15740": 129,
        "15741": 131,
        "15742": 140,
        "15743": 179,
        "15744": 74,
        "15745": 124,
        "15746": 119,
        "15747": 102,
        "15748": 23,
        "15749": 183,
        "15750": 104,
        "15751": 179,
        "15752": 139,
        "15753": 40,
        "15754": 53,
        "15755": 90,
        "15756": 84,
        "15757": 151,
        "15758": 83,
        "15759": 31,
        "15760": 87,
        "15761": 111,
        "15762": 80,
        "15763": 214,
        "15764": 92,
        "15765": 161,
        "15766": 84,
        "15767": 88,
        "15768": 25,
        "15769": 118,
        "15770": 206,
        "15771": 178,
        "15772": 157,
        "15773": 33,
        "15774": 217,
        "15775": 3,
        "15776": 45,
        "15777": 19,
        "15778": 122,
        "15779": 156,
        "15780": 67,
        "15781": 104,
        "15782": 232,
        "15783": 226,
        "15784": 254,
        "15785": 19,
        "15786": 17,
        "15787": 99,
        "15788": 91,
        "15789": 222,
        "15790": 113,
        "15791": 197,
        "15792": 245,
        "15793": 155,
        "15794": 237,
        "15795": 7,
        "15796": 158,
        "15797": 239,
        "15798": 150,
        "15799": 27,
        "15800": 243,
        "15801": 133,
        "15802": 230,
        "15803": 151,
        "15804": 171,
        "15805": 217,
        "15806": 142,
        "15807": 179,
        "15808": 200,
        "15809": 67,
        "15810": 115,
        "15811": 80,
        "15812": 183,
        "15813": 242,
        "15814": 230,
        "15815": 124,
        "15816": 51,
        "15817": 167,
        "15818": 245,
        "15819": 156,
        "15820": 24,
        "15821": 88,
        "15822": 56,
        "15823": 17,
        "15824": 99,
        "15825": 85,
        "15826": 109,
        "15827": 227,
        "15828": 191,
        "15829": 158,
        "15830": 193,
        "15831": 111,
        "15832": 209,
        "15833": 230,
        "15834": 81,
        "15835": 254,
        "15836": 104,
        "15837": 249,
        "15838": 83,
        "15839": 172,
        "15840": 123,
        "15841": 4,
        "15842": 38,
        "15843": 223,
        "15844": 243,
        "15845": 166,
        "15846": 236,
        "15847": 0,
        "15848": 196,
        "15849": 181,
        "15850": 48,
        "15851": 27,
        "15852": 225,
        "15853": 202,
        "15854": 97,
        "15855": 148,
        "15856": 165,
        "15857": 221,
        "15858": 94,
        "15859": 252,
        "15860": 97,
        "15861": 154,
        "15862": 205,
        "15863": 134,
        "15864": 7,
        "15865": 165,
        "15866": 191,
        "15867": 134,
        "15868": 225,
        "15869": 176,
        "15870": 158,
        "15871": 9,
        "15872": 47,
        "15873": 219,
        "15874": 180,
        "15875": 122,
        "15876": 83,
        "15877": 201,
        "15878": 227,
        "15879": 62,
        "15880": 55,
        "15881": 89,
        "15882": 6,
        "15883": 23,
        "15884": 1,
        "15885": 154,
        "15886": 148,
        "15887": 108,
        "15888": 169,
        "15889": 131,
        "15890": 65,
        "15891": 47,
        "15892": 34,
        "15893": 181,
        "15894": 60,
        "15895": 121,
        "15896": 59,
        "15897": 99,
        "15898": 70,
        "15899": 207,
        "15900": 19,
        "15901": 165,
        "15902": 137,
        "15903": 77,
        "15904": 94,
        "15905": 206,
        "15906": 206,
        "15907": 11,
        "15908": 137,
        "15909": 57,
        "15910": 214,
        "15911": 54,
        "15912": 20,
        "15913": 164,
        "15914": 156,
        "15915": 88,
        "15916": 77,
        "15917": 206,
        "15918": 74,
        "15919": 116,
        "15920": 81,
        "15921": 54,
        "15922": 125,
        "15923": 165,
        "15924": 171,
        "15925": 230,
        "15926": 173,
        "15927": 252,
        "15928": 86,
        "15929": 223,
        "15930": 46,
        "15931": 27,
        "15932": 23,
        "15933": 76,
        "15934": 39,
        "15935": 218,
        "15936": 226,
        "15937": 147,
        "15938": 105,
        "15939": 226,
        "15940": 70,
        "15941": 96,
        "15942": 66,
        "15943": 209,
        "15944": 164,
        "15945": 225,
        "15946": 23,
        "15947": 229,
        "15948": 30,
        "15949": 60,
        "15950": 20,
        "15951": 201,
        "15952": 253,
        "15953": 209,
        "15954": 60,
        "15955": 204,
        "15956": 226,
        "15957": 44,
        "15958": 231,
        "15959": 133,
        "15960": 105,
        "15961": 46,
        "15962": 54,
        "15963": 34,
        "15964": 252,
        "15965": 97,
        "15966": 114,
        "15967": 20,
        "15968": 217,
        "15969": 160,
        "15970": 156,
        "15971": 147,
        "15972": 156,
        "15973": 207,
        "15974": 112,
        "15975": 234,
        "15976": 215,
        "15977": 250,
        "15978": 247,
        "15979": 173,
        "15980": 34,
        "15981": 15,
        "15982": 129,
        "15983": 87,
        "15984": 142,
        "15985": 192,
        "15986": 45,
        "15987": 210,
        "15988": 174,
        "15989": 203,
        "15990": 112,
        "15991": 5,
        "15992": 66,
        "15993": 98,
        "15994": 252,
        "15995": 251,
        "15996": 39,
        "15997": 230,
        "15998": 147,
        "15999": 151,
        "16000": 60,
        "16001": 8,
        "16002": 210,
        "16003": 9,
        "16004": 94,
        "16005": 241,
        "16006": 220,
        "16007": 44,
        "16008": 172,
        "16009": 34,
        "16010": 59,
        "16011": 35,
        "16012": 205,
        "16013": 78,
        "16014": 169,
        "16015": 22,
        "16016": 48,
        "16017": 223,
        "16018": 172,
        "16019": 31,
        "16020": 57,
        "16021": 62,
        "16022": 181,
        "16023": 157,
        "16024": 171,
        "16025": 211,
        "16026": 4,
        "16027": 214,
        "16028": 4,
        "16029": 41,
        "16030": 89,
        "16031": 251,
        "16032": 41,
        "16033": 66,
        "16034": 169,
        "16035": 125,
        "16036": 222,
        "16037": 115,
        "16038": 106,
        "16039": 105,
        "16040": 133,
        "16041": 166,
        "16042": 246,
        "16043": 114,
        "16044": 76,
        "16045": 114,
        "16046": 63,
        "16047": 19,
        "16048": 103,
        "16049": 203,
        "16050": 166,
        "16051": 232,
        "16052": 127,
        "16053": 2,
        "16054": 252,
        "16055": 97,
        "16056": 152,
        "16057": 204,
        "16058": 87,
        "16059": 119,
        "16060": 248,
        "16061": 223,
        "16062": 228,
        "16063": 7,
        "16064": 109,
        "16065": 110,
        "16066": 66,
        "16067": 42,
        "16068": 129,
        "16069": 108,
        "16070": 213,
        "16071": 94,
        "16072": 213,
        "16073": 217,
        "16074": 20,
        "16075": 182,
        "16076": 127,
        "16077": 236,
        "16078": 101,
        "16079": 102,
        "16080": 96,
        "16081": 47,
        "16082": 75,
        "16083": 245,
        "16084": 198,
        "16085": 45,
        "16086": 52,
        "16087": 57,
        "16088": 80,
        "16089": 202,
        "16090": 157,
        "16091": 230,
        "16092": 199,
        "16093": 92,
        "16094": 147,
        "16095": 168,
        "16096": 208,
        "16097": 23,
        "16098": 188,
        "16099": 5,
        "16100": 161,
        "16101": 53,
        "16102": 9,
        "16103": 37,
        "16104": 231,
        "16105": 64,
        "16106": 89,
        "16107": 254,
        "16108": 160,
        "16109": 46,
        "16110": 243,
        "16111": 129,
        "16112": 143,
        "16113": 28,
        "16114": 251,
        "16115": 236,
        "16116": 225,
        "16117": 141,
        "16118": 201,
        "16119": 209,
        "16120": 89,
        "16121": 138,
        "16122": 8,
        "16123": 4,
        "16124": 93,
        "16125": 219,
        "16126": 115,
        "16127": 217,
        "16128": 187,
        "16129": 7,
        "16130": 67,
        "16131": 143,
        "16132": 165,
        "16133": 2,
        "16134": 103,
        "16135": 0,
        "16136": 208,
        "16137": 136,
        "16138": 17,
        "16139": 49,
        "16140": 65,
        "16141": 134,
        "16142": 28,
        "16143": 110,
        "16144": 152,
        "16145": 92,
        "16146": 245,
        "16147": 173,
        "16148": 82,
        "16149": 11,
        "16150": 63,
        "16151": 183,
        "16152": 3,
        "16153": 160,
        "16154": 246,
        "16155": 228,
        "16156": 131,
        "16157": 189,
        "16158": 249,
        "16159": 2,
        "16160": 52,
        "16161": 162,
        "16162": 230,
        "16163": 7,
        "16164": 247,
        "16165": 49,
        "16166": 12,
        "16167": 0,
        "16168": 134,
        "16169": 143,
        "16170": 235,
        "16171": 253,
        "16172": 144,
        "16173": 146,
        "16174": 7,
        "16175": 122,
        "16176": 147,
        "16177": 162,
        "16178": 78,
        "16179": 231,
        "16180": 53,
        "16181": 218,
        "16182": 159,
        "16183": 235,
        "16184": 244,
        "16185": 188,
        "16186": 249,
        "16187": 88,
        "16188": 200,
        "16189": 33,
        "16190": 172,
        "16191": 91,
        "16192": 175,
        "16193": 153,
        "16194": 20,
        "16195": 188,
        "16196": 59,
        "16197": 141,
        "16198": 128,
        "16199": 163,
        "16200": 137,
        "16201": 202,
        "16202": 129,
        "16203": 88,
        "16204": 181,
        "16205": 59,
        "16206": 8,
        "16207": 129,
        "16208": 170,
        "16209": 88,
        "16210": 0,
        "16211": 156,
        "16212": 174,
        "16213": 145,
        "16214": 136,
        "16215": 221,
        "16216": 208,
        "16217": 173,
        "16218": 71,
        "16219": 22,
        "16220": 4,
        "16221": 14,
        "16222": 23,
        "16223": 68,
        "16224": 92,
        "16225": 4,
        "16226": 174,
        "16227": 252,
        "16228": 83,
        "16229": 63,
        "16230": 166,
        "16231": 26,
        "16232": 7,
        "16233": 218,
        "16234": 127,
        "16235": 156,
        "16236": 152,
        "16237": 96,
        "16238": 246,
        "16239": 146,
        "16240": 107,
        "16241": 211,
        "16242": 71,
        "16243": 140,
        "16244": 205,
        "16245": 85,
        "16246": 151,
        "16247": 167,
        "16248": 61,
        "16249": 155,
        "16250": 111,
        "16251": 3,
        "16252": 89,
        "16253": 151,
        "16254": 78,
        "16255": 105,
        "16256": 146,
        "16257": 5,
        "16258": 75,
        "16259": 118,
        "16260": 33,
        "16261": 0,
        "16262": 226,
        "16263": 148,
        "16264": 69,
        "16265": 60,
        "16266": 121,
        "16267": 107,
        "16268": 17,
        "16269": 179,
        "16270": 232,
        "16271": 40,
        "16272": 122,
        "16273": 227,
        "16274": 187,
        "16275": 155,
        "16276": 132,
        "16277": 231,
        "16278": 97,
        "16279": 52,
        "16280": 8,
        "16281": 137,
        "16282": 80,
        "16283": 158,
        "16284": 158,
        "16285": 118,
        "16286": 53,
        "16287": 101,
        "16288": 113,
        "16289": 114,
        "16290": 1,
        "16291": 106,
        "16292": 29,
        "16293": 244,
        "16294": 244,
        "16295": 235,
        "16296": 46,
        "16297": 156,
        "16298": 0,
        "16299": 29,
        "16300": 183,
        "16301": 164,
        "16302": 186,
        "16303": 130,
        "16304": 128,
        "16305": 99,
        "16306": 103,
        "16307": 205,
        "16308": 100,
        "16309": 177,
        "16310": 52,
        "16311": 74,
        "16312": 102,
        "16313": 171,
        "16314": 237,
        "16315": 57,
        "16316": 120,
        "16317": 63,
        "16318": 14,
        "16319": 227,
        "16320": 215,
        "16321": 77,
        "16322": 164,
        "16323": 235,
        "16324": 135,
        "16325": 231,
        "16326": 68,
        "16327": 22,
        "16328": 167,
        "16329": 125,
        "16330": 122,
        "16331": 117,
        "16332": 172,
        "16333": 171,
        "16334": 143,
        "16335": 117,
        "16336": 72,
        "16337": 140,
        "16338": 130,
        "16339": 169,
        "16340": 235,
        "16341": 41,
        "16342": 83,
        "16343": 239,
        "16344": 59,
        "16345": 13,
        "16346": 5,
        "16347": 223,
        "16348": 147,
        "16349": 208,
        "16350": 147,
        "16351": 219,
        "16352": 225,
        "16353": 143,
        "16354": 137,
        "16355": 165,
        "16356": 201,
        "16357": 206,
        "16358": 242,
        "16359": 2,
        "16360": 251,
        "16361": 6,
        "16362": 167,
        "16363": 68,
        "16364": 224,
        "16365": 104,
        "16366": 46,
        "16367": 105,
        "16368": 147,
        "16369": 255,
        "16370": 205,
        "16371": 123,
        "16372": 203,
        "16373": 201,
        "16374": 169,
        "16375": 253,
        "16376": 242,
        "16377": 220,
        "16378": 57,
        "16379": 240,
        "16380": 28,
        "16381": 200,
        "16382": 52,
        "16383": 1,
        "16384": 122,
        "16385": 165,
        "16386": 166,
        "16387": 209,
        "16388": 111,
        "16389": 244,
        "16390": 150,
        "16391": 209,
        "16392": 203,
        "16393": 2,
        "16394": 139,
        "16395": 4,
        "16396": 238,
        "16397": 208,
        "16398": 241,
        "16399": 246,
        "16400": 58,
        "16401": 133,
        "16402": 94,
        "16403": 22,
        "16404": 6,
        "16405": 80,
        "16406": 134,
        "16407": 61,
        "16408": 103,
        "16409": 38,
        "16410": 213,
        "16411": 130,
        "16412": 60,
        "16413": 92,
        "16414": 118,
        "16415": 72,
        "16416": 15,
        "16417": 95,
        "16418": 250,
        "16419": 239,
        "16420": 66,
        "16421": 135,
        "16422": 200,
        "16423": 227,
        "16424": 75,
        "16425": 149,
        "16426": 228,
        "16427": 76,
        "16428": 105,
        "16429": 78,
        "16430": 92,
        "16431": 77,
        "16432": 232,
        "16433": 25,
        "16434": 149,
        "16435": 167,
        "16436": 34,
        "16437": 85,
        "16438": 225,
        "16439": 84,
        "16440": 105,
        "16441": 106,
        "16442": 133,
        "16443": 205,
        "16444": 47,
        "16445": 54,
        "16446": 25,
        "16447": 218,
        "16448": 24,
        "16449": 79,
        "16450": 34,
        "16451": 95,
        "16452": 145,
        "16453": 176,
        "16454": 68,
        "16455": 182,
        "16456": 123,
        "16457": 31,
        "16458": 85,
        "16459": 50,
        "16460": 111,
        "16461": 52,
        "16462": 161,
        "16463": 127,
        "16464": 42,
        "16465": 2,
        "16466": 30,
        "16467": 186,
        "16468": 199,
        "16469": 141,
        "16470": 112,
        "16471": 227,
        "16472": 161,
        "16473": 241,
        "16474": 70,
        "16475": 240,
        "16476": 205,
        "16477": 242,
        "16478": 147,
        "16479": 162,
        "16480": 48,
        "16481": 179,
        "16482": 240,
        "16483": 221,
        "16484": 30,
        "16485": 193,
        "16486": 148,
        "16487": 45,
        "16488": 3,
        "16489": 254,
        "16490": 146,
        "16491": 50,
        "16492": 9,
        "16493": 190,
        "16494": 1,
        "16495": 37,
        "16496": 127,
        "16497": 120,
        "16498": 108,
        "16499": 68,
        "16500": 124,
        "16501": 103,
        "16502": 218,
        "16503": 173,
        "16504": 157,
        "16505": 125,
        "16506": 36,
        "16507": 82,
        "16508": 230,
        "16509": 196,
        "16510": 221,
        "16511": 153,
        "16512": 34,
        "16513": 210,
        "16514": 132,
        "16515": 190,
        "16516": 84,
        "16517": 213,
        "16518": 98,
        "16519": 63,
        "16520": 1,
        "16521": 8,
        "16522": 0,
        "16523": 0,
        "16524": 0,
        "16525": 0,
        "16526": 0,
        "16527": 0,
        "16528": 16,
        "16529": 0,
        "16530": 0,
        "16531": 0,
        "16532": 0,
        "16533": 0,
        "16534": 0,
        "16535": 0,
        "16536": 0,
        "16537": 0,
        "16538": 0,
        "16539": 0,
        "16540": 0,
        "16541": 0,
        "16542": 0,
        "16543": 0,
        "16544": 0,
        "16545": 0,
        "16546": 0,
        "16547": 0,
        "16548": 0,
        "16549": 0,
        "16550": 0,
        "16551": 0,
        "16552": 64,
        "16553": 0,
        "16554": 0,
        "16555": 0,
        "16556": 0,
        "16557": 0,
        "16558": 0,
        "16559": 0,
        "16560": 3,
        "16561": 0,
        "16562": 0,
        "16563": 0,
        "16564": 0,
        "16565": 0,
        "16566": 0,
        "16567": 0,
        "16568": 4,
        "16569": 0,
        "16570": 0,
        "16571": 0,
        "16572": 0,
        "16573": 0,
        "16574": 0,
        "16575": 0,
        "16576": 4,
        "16577": 0,
        "16578": 0,
        "16579": 0,
        "16580": 0,
        "16581": 0,
        "16582": 0,
        "16583": 0,
        "16584": 0,
        "16585": 0,
        "16586": 0,
        "16587": 0,
        "16588": 1,
        "16589": 0,
        "16590": 0,
        "16591": 0,
        "16592": 0,
        "16593": 0,
        "16594": 0,
        "16595": 0,
        "16596": 16,
        "16597": 0,
        "16598": 0,
        "16599": 0,
        "16600": 0,
        "16601": 0,
        "16602": 0,
        "16603": 0
      }
    }
  ],
  "numDeployments": 1,
  "solcInputHash": "13515385aabd4519db5aa01202527ab0",
  "bytecode": "0x6101606040526200001760006200026660201b60201c565b6004553480156200002757600080fd5b50604051620046ed380380620046ed83398181016040528101906200004d919062000b83565b6040518060400160405280600881526020017f46616b652046475a0000000000000000000000000000000000000000000000008152506040518060400160405280600481526020017f6646475a00000000000000000000000000000000000000000000000000000000815250338383836040518060400160405280601181526020017f4668656e6978205065726d697373696f6e0000000000000000000000000000008152506040518060400160405280600381526020017f312e3000000000000000000000000000000000000000000000000000000000008152506200013f6000836200028260201b90919060201c565b61012081815250506200015d6001826200028260201b90919060201c565b6101408181525050818051906020012060e08181525050808051906020012061010081815250504660a081815250506200019c620002da60201b60201c565b608081815250503073ffffffffffffffffffffffffffffffffffffffff1660c08173ffffffffffffffffffffffffffffffffffffffff168152505050508160059081620001ea919062000e1f565b508060069081620001fc919062000e1f565b505050600062000212826200033760201b60201c565b9050620002486200023c8262000230617fff6200026660201b60201c565b6200035560201b60201c565b620003f860201b60201c565b6200025a8382620004cb60201b60201c565b50505050505062001260565b60006200027b8260026200057160201b60201c565b9050919050565b6000602083511015620002a857620002a0836200062860201b60201c565b9050620002d4565b82620002ba836200069560201b60201c565b6000019081620002cb919062000e1f565b5060ff60001b90505b92915050565b60007f8b73c3c69bb8fe3d512ecc4cf759cc79239f7b179b0ffacaa9a75d522b39400f60e0516101005146306040516020016200031c95949392919062000f77565b60405160208183030381529060405280519060200120905090565b60006200034e82600001516200069f60201b60201c565b9050919050565b60006200036883620006bb60201b60201c565b62000382576200037f60006200026660201b60201c565b92505b6200039382620006bb60201b60201c565b620003ad57620003aa60006200026660201b60201c565b91505b600083905060008390506000620003ea60028484608073ffffffffffffffffffffffffffffffffffffffff1663eb274b77620006c860201b60201c565b905080935050505092915050565b62000409816200077960201b60201c565b62000423576200042060006200078660201b60201c565b90505b600081905060006200043b82620007a260201b60201c565b9050608073ffffffffffffffffffffffffffffffffffffffff16637d23f1db600d836040518363ffffffff1660e01b81526004016200047c9291906200104f565b600060405180830381865afa1580156200049a573d6000803e3d6000fd5b505050506040513d6000823e3d601f19601f82011682018060405250810190620004c5919062001083565b50505050565b62000516600260008473ffffffffffffffffffffffffffffffffffffffff1673ffffffffffffffffffffffffffffffffffffffff168152602001908152602001600020548262000803565b600260008473ffffffffffffffffffffffffffffffffffffffff1673ffffffffffffffffffffffffffffffffffffffff16815260200190815260200160002081905550620005676004548262000803565b6004819055505050565b60006060608073ffffffffffffffffffffffffffffffffffffffff166319e1c5c4620005a386620007a260201b60201c565b856040518363ffffffff1660e01b8152600401620005c3929190620010d4565b600060405180830381865afa158015620005e1573d6000803e3d6000fd5b505050506040513d6000823e3d601f19601f820116820180604052508101906200060c919062001083565b90506200061f816200081f60201b60201c565b91505092915050565b600080829050601f815111156200067857826040517f305a27a90000000000000000000000000000000000000000000000000000000081526004016200066f91906200115a565b60405180910390fd5b8051816200068690620011a5565b60001c1760001b915050919050565b6000819050919050565b6000620006b48260026200082d60201b60201c565b9050919050565b6000808214159050919050565b60006060838388620006e089620007a260201b60201c565b620006f189620007a260201b60201c565b6040518463ffffffff1660e01b8152600401620007119392919062001215565b600060405180830381865afa1580156200072f573d6000803e3d6000fd5b505050506040513d6000823e3d601f19601f820116820180604052508101906200075a919062001083565b90506200076d81620008d460201b60201c565b91505095945050505050565b6000808214159050919050565b60006200079b82600d6200057160201b60201c565b9050919050565b6060602067ffffffffffffffff811115620007c257620007c1620009ae565b5b6040519080825280601f01601f191660200182016040528015620007f55781602001600182028036833780820191505090505b509050816020820152919050565b6000620008178383620008e260201b60201c565b905092915050565b600060208201519050919050565b60006060608073ffffffffffffffffffffffffffffffffffffffff16635fa55ca784866040518363ffffffff1660e01b81526004016200086f9291906200104f565b600060405180830381865afa1580156200088d573d6000803e3d6000fd5b505050506040513d6000823e3d601f19601f82011682018060405250810190620008b8919062001083565b9050620008cb816200081f60201b60201c565b91505092915050565b600060208201519050919050565b6000620008f583620006bb60201b60201c565b6200090f576200090c60006200026660201b60201c565b92505b6200092082620006bb60201b60201c565b6200093a576200093760006200026660201b60201c565b91505b6000839050600083905060006200097660028484608073ffffffffffffffffffffffffffffffffffffffff16622df619620006c860201b60201c565b905080935050505092915050565b6000604051905090565b600080fd5b600080fd5b600080fd5b6000601f19601f8301169050919050565b7f4e487b7100000000000000000000000000000000000000000000000000000000600052604160045260246000fd5b620009e8826200099d565b810181811067ffffffffffffffff8211171562000a0a5762000a09620009ae565b5b80604052505050565b600062000a1f62000984565b905062000a2d8282620009dd565b919050565b600080fd5b600080fd5b600080fd5b600067ffffffffffffffff82111562000a5f5762000a5e620009ae565b5b62000a6a826200099d565b9050602081019050919050565b60005b8381101562000a9757808201518184015260208101905062000a7a565b60008484015250505050565b600062000aba62000ab48462000a41565b62000a13565b90508281526020810184848401111562000ad95762000ad862000a3c565b5b62000ae684828562000a77565b509392505050565b600082601f83011262000b065762000b0562000a37565b5b815162000b1884826020860162000aa3565b91505092915050565b60006020828403121562000b3a5762000b3962000998565b5b62000b46602062000a13565b9050600082015167ffffffffffffffff81111562000b695762000b6862000a32565b5b62000b778482850162000aee565b60008301525092915050565b60006020828403121562000b9c5762000b9b6200098e565b5b600082015167ffffffffffffffff81111562000bbd5762000bbc62000993565b5b62000bcb8482850162000b21565b91505092915050565b600081519050919050565b7f4e487b7100000000000000000000000000000000000000000000000000000000600052602260045260246000fd5b6000600282049050600182168062000c2757607f821691505b60208210810362000c3d5762000c3c62000bdf565b5b50919050565b60008190508160005260206000209050919050565b60006020601f8301049050919050565b600082821b905092915050565b60006008830262000ca77fffffffffffffffffffffffffffffffffffffffffffffffffffffffffffffffff8262000c68565b62000cb3868362000c68565b95508019841693508086168417925050509392505050565b6000819050919050565b6000819050919050565b600062000d0062000cfa62000cf48462000ccb565b62000cd5565b62000ccb565b9050919050565b6000819050919050565b62000d1c8362000cdf565b62000d3462000d2b8262000d07565b84845462000c75565b825550505050565b600090565b62000d4b62000d3c565b62000d5881848462000d11565b505050565b5b8181101562000d805762000d7460008262000d41565b60018101905062000d5e565b5050565b601f82111562000dcf5762000d998162000c43565b62000da48462000c58565b8101602085101562000db4578190505b62000dcc62000dc38562000c58565b83018262000d5d565b50505b505050565b600082821c905092915050565b600062000df46000198460080262000dd4565b1980831691505092915050565b600062000e0f838362000de1565b9150826002028217905092915050565b62000e2a8262000bd4565b67ffffffffffffffff81111562000e465762000e45620009ae565b5b62000e52825462000c0e565b62000e5f82828562000d84565b600060209050601f83116001811462000e97576000841562000e82578287015190505b62000e8e858262000e01565b86555062000efe565b601f19841662000ea78662000c43565b60005b8281101562000ed15784890151825560018201915060208501945060208101905062000eaa565b8683101562000ef1578489015162000eed601f89168262000de1565b8355505b6001600288020188555050505b505050505050565b6000819050919050565b62000f1b8162000f06565b82525050565b62000f2c8162000ccb565b82525050565b600073ffffffffffffffffffffffffffffffffffffffff82169050919050565b600062000f5f8262000f32565b9050919050565b62000f718162000f52565b82525050565b600060a08201905062000f8e600083018862000f10565b62000f9d602083018762000f10565b62000fac604083018662000f10565b62000fbb606083018562000f21565b62000fca608083018462000f66565b9695505050505050565b600060ff82169050919050565b62000fec8162000fd4565b82525050565b600081519050919050565b600082825260208201905092915050565b60006200101b8262000ff2565b62001027818562000ffd565b93506200103981856020860162000a77565b62001044816200099d565b840191505092915050565b600060408201905062001066600083018562000fe1565b81810360208301526200107a81846200100e565b90509392505050565b6000602082840312156200109c576200109b6200098e565b5b600082015167ffffffffffffffff811115620010bd57620010bc62000993565b5b620010cb8482850162000aee565b91505092915050565b60006040820190508181036000830152620010f081856200100e565b905062001101602083018462000fe1565b9392505050565b600082825260208201905092915050565b6000620011268262000bd4565b62001132818562001108565b93506200114481856020860162000a77565b6200114f816200099d565b840191505092915050565b6000602082019050818103600083015262001176818462001119565b905092915050565b6000819050602082019050919050565b60006200119c825162000f06565b80915050919050565b6000620011b28262000ff2565b82620011be846200117e565b9050620011cb816200118e565b925060208210156200120e57620012097fffffffffffffffffffffffffffffffffffffffffffffffffffffffffffffffff8360200360080262000c68565b831692505b5050919050565b60006060820190506200122c600083018662000fe1565b81810360208301526200124081856200100e565b905081810360408301526200125681846200100e565b9050949350505050565b60805160a05160c05160e051610100516101205161014051613432620012bb60003960006113ca0152600061138f015260006120d3015260006120b2015260006117f3015260006118490152600061187201526134326000f3fe608060405234801561001057600080fd5b50600436106101425760003560e01c80637ecebe00116100b8578063a9059cbb1161007c578063a9059cbb146103b9578063af575a00146103e9578063c4224c1914610419578063d505accf14610449578063d918156e14610465578063dd62ed3e1461049557610142565b80637ecebe00146102fb57806384b0196e1461032b5780638624a3491461034f57806395d89b411461037f5780639f284be71461039d57610142565b80633644e5151161010a5780633644e5151461020157806339c217f71461021f5780635356c4291461024f578063602772041461027f5780636e0505e1146102af57806370a08231146102cb57610142565b806306fdde0314610147578063095ea7b31461016557806318160ddd1461019557806323b872dd146101b3578063313ce567146101e3575b600080fd5b61014f6104c5565b60405161015c9190612494565b60405180910390f35b61017f600480360381019061017a919061255e565b610557565b60405161018c91906125b9565b60405180910390f35b61019d6105ab565b6040516101aa91906125e3565b60405180910390f35b6101cd60048036038101906101c891906125fe565b6105bd565b6040516101da91906125b9565b60405180910390f35b6101eb610692565b6040516101f8919061266d565b60405180910390f35b610209610697565b60405161021691906126a1565b60405180910390f35b610239600480360381019061023491906126e0565b610729565b6040516102469190612777565b60405180910390f35b610269600480360381019061026491906127b1565b61074e565b6040516102769190612494565b60405180910390f35b610299600480360381019061029491906129e4565b61084c565b6040516102a69190612494565b60405180910390f35b6102c960048036038101906102c49190612a7c565b610982565b005b6102e560048036038101906102e09190612aa9565b610ab9565b6040516102f291906125e3565b60405180910390f35b61031560048036038101906103109190612aa9565b610ad4565b60405161032291906125e3565b60405180910390f35b610333610aef565b6040516103469796959493929190612bde565b60405180910390f35b61036960048036038101906103649190612c62565b610b99565b6040516103769190612777565b60405180910390f35b610387610bd7565b6040516103949190612494565b60405180910390f35b6103b760048036038101906103b29190612a7c565b610c69565b005b6103d360048036038101906103ce919061255e565b610d76565b6040516103e091906125b9565b60405180910390f35b61040360048036038101906103fe9190612cfd565b610e08565b6040516104109190612777565b60405180910390f35b610433600480360381019061042e9190612d50565b610e35565b6040516104409190612777565b60405180910390f35b610463600480360381019061045e9190612dbc565b610e4a565b005b61047f600480360381019061047a91906126e0565b610fee565b60405161048c91906125b9565b60405180910390f35b6104af60048036038101906104aa9190612e5e565b611016565b6040516104bc91906125e3565b60405180910390f35b6060600580546104d490612ecd565b80601f016020809104026020016040519081016040528092919081815260200182805461050090612ecd565b801561054d5780601f106105225761010080835404028352916020019161054d565b820191906000526020600020905b81548152906001019060200180831161053057829003601f168201915b5050505050905090565b600082602052637f5e9f20600c5233600052816034600c205581600052602c5160601c337f8c5be1e5ebec7d5bd14f71427d1e84f3dd0314c0f7b2291e5b200ac8c7c3b92560206000a36001905092915050565b60006805345cdf77eb68f44c54905090565b60006105ca848484611036565b8360601b33602052637f5e9f208117600c526034600c20805460018101156106085780851115610602576313be252b6000526004601cfd5b84810382555b6387a211a28317600c526020600c2080548087111561062f5763f4d678b86000526004601cfd5b8681038255876000526020600c2087815401815587602052600c5160601c8660601c7fddf252ad1be2c89b69c2b068fc378daa952ba7f163c4a11628f55a4df523b3ef602080a350505050505061068784848461103b565b600190509392505050565b600090565b6000806106a2611040565b90506000801b81036106c0576106b66104c5565b8051906020012090505b6040517f8b73c3c69bb8fe3d512ecc4cf759cc79239f7b179b0ffacaa9a75d522b39400f81528160208201527fc89efdaa54c0f20c7adf612882df0950f5a951637e0307cdcb4c672f298b8bc6604082015246606082015230608082015260a081209250505090565b6000610746836107418461073c90612f56565b611045565b610e35565b905092915050565b60608161075a90612f69565b60006107b17f6bdaeb2d29561f159c7ef98b16b27015fb2aeb87209c7ee656226d912f59927d8360000151604051602001610796929190612f7c565b6040516020818303038152906040528051906020012061105b565b905060006107c3828460200151611075565b90503373ffffffffffffffffffffffffffffffffffffffff168173ffffffffffffffffffffffffffffffffffffffff161461082a576040517f3093a27700000000000000000000000000000000000000000000000000000000815260040160405180910390fd5b61084161083733886110a1565b8660000135611128565b935050505092915050565b6060818360006108a77f6bdaeb2d29561f159c7ef98b16b27015fb2aeb87209c7ee656226d912f59927d846000015160405160200161088c929190612f7c565b6040516020818303038152906040528051906020012061105b565b905060006108b9828560200151611075565b90508273ffffffffffffffffffffffffffffffffffffffff168173ffffffffffffffffffffffffffffffffffffffff1614610920576040517f51c65eae00000000000000000000000000000000000000000000000000000000815260040160405180910390fd5b6109768660000151600260008a73ffffffffffffffffffffffffffffffffffffffff1673ffffffffffffffffffffffffffffffffffffffff1681526020019081526020016000205461115e90919063ffffffff16565b94505050505092915050565b60006109938263ffffffff16611172565b905060006109fc6109ec83600260003373ffffffffffffffffffffffffffffffffffffffff1673ffffffffffffffffffffffffffffffffffffffff1681526020019081526020016000205461118690919063ffffffff16565b836109f76000611172565b61119a565b9050610a47600260003373ffffffffffffffffffffffffffffffffffffffff1673ffffffffffffffffffffffffffffffffffffffff1681526020019081526020016000205482611218565b600260003373ffffffffffffffffffffffffffffffffffffffff1673ffffffffffffffffffffffffffffffffffffffff16815260200190815260200160002081905550610a9660045482611218565b600481905550610ab433610aa98361122c565b63ffffffff166112ef565b505050565b60006387a211a2600c52816000526020600c20549050919050565b60006338377508600c52816000526020600c20549050919050565b600060608060008060006060610b03611386565b610b0b6113c1565b46306000801b600067ffffffffffffffff811115610b2c57610b2b612812565b5b604051908082528060200260200182016040528015610b5a5781602001602082028036833780820191505090505b507f0f00000000000000000000000000000000000000000000000000000000000000959493929190965096509650965096509650965090919293949596565b600080610bae83610ba990612f56565b611045565b90506000610bbd8633846113fc565b9050610bca868683611439565b5080925050509392505050565b606060068054610be690612ecd565b80601f0160208091040260200160405190810160405280929190818152602001828054610c1290612ecd565b8015610c5f5780601f10610c3457610100808354040283529160200191610c5f565b820191906000526020600020905b815481529060010190602001808311610c4257829003601f168201915b5050505050905090565b8063ffffffff16610c7933610ab9565b1015610cb1576040517ffda7bbda00000000000000000000000000000000000000000000000000000000815260040160405180910390fd5b610cc1338263ffffffff166115c6565b6000610cd28263ffffffff16611172565b9050610d1d600260003373ffffffffffffffffffffffffffffffffffffffff1673ffffffffffffffffffffffffffffffffffffffff168152602001908152602001600020548261165d565b600260003373ffffffffffffffffffffffffffffffffffffffff1673ffffffffffffffffffffffffffffffffffffffff16815260200190815260200160002081905550610d6c6004548261165d565b6004819055505050565b6000610d83338484611036565b6387a211a2600c52336000526020600c20805480841115610dac5763f4d678b86000526004601cfd5b8381038255846000526020600c2084815401815584602052600c5160601c337fddf252ad1be2c89b69c2b068fc378daa952ba7f163c4a11628f55a4df523b3ef602080a3505050610dfe33848461103b565b6001905092915050565b6000808290506000610e1b8633846113fc565b9050610e28868683611439565b5080925050509392505050565b6000610e42338484611439565b905092915050565b6000610e54611040565b90506000801b8103610e7257610e686104c5565b8051906020012090505b84421115610e8857631a15a3cc6000526004601cfd5b6040518860601b60601c98508760601b60601c975065383775081901600e52886000526020600c2080547f8b73c3c69bb8fe3d512ecc4cf759cc79239f7b179b0ffacaa9a75d522b39400f83528360208401527fc89efdaa54c0f20c7adf612882df0950f5a951637e0307cdcb4c672f298b8bc6604084015246606084015230608084015260a08320602e527f6e71edae12b1b97f4d1f60370fef10105fa2faae0126114a169c64845d6126c983528a60208401528960408401528860608401528060808401528760a084015260c08320604e526042602c206000528660ff1660205285604052846060526020806080600060015afa8b3d5114610f945763ddafbaef6000526004601cfd5b80820183558a637f5e9f2060a01b17604052896034602c20558a8c7f8c5be1e5ebec7d5bd14f71427d1e84f3dd0314c0f7b2291e5b200ac8c7c3b925602060608801a3836040526000606052505050505050505050505050565b600061100c33846110078561100290612f56565b611045565b611671565b6001905092915050565b600081602052637f5e9f20600c52826000526034600c2054905092915050565b505050565b505050565b600090565b600061105482600001516117db565b9050919050565b600061106e6110686117ef565b836118a6565b9050919050565b60008060008061108586866118e7565b9250925092506110958282611943565b82935050505092915050565b6000600360008473ffffffffffffffffffffffffffffffffffffffff1673ffffffffffffffffffffffffffffffffffffffff16815260200190815260200160002060008373ffffffffffffffffffffffffffffffffffffffff1673ffffffffffffffffffffffffffffffffffffffff16815260200190815260200160002054905092915050565b606061113383611aa7565b611144576111416000611172565b92505b600083905061115560028285611ab4565b91505092915050565b606061116a8383611128565b905092915050565b600061117f826002611b6a565b9050919050565b60006111928383611c0c565b905092915050565b60006111a584611c85565b6111b6576111b36000611c92565b93505b6111bf83611aa7565b6111d0576111cd6000611172565b92505b6111d982611aa7565b6111ea576111e76000611172565b91505b60008490506000849050600084905060006112086002858585611ca6565b9050809450505050509392505050565b60006112248383611d5e565b905092915050565b600061123782611aa7565b611248576112456000611172565b91505b6000829050600061125882611dd7565b90506000608073ffffffffffffffffffffffffffffffffffffffff166373cc01546002846040518363ffffffff1660e01b8152600401611299929190612ffa565b602060405180830381865afa1580156112b6573d6000803e3d6000fd5b505050506040513d601f19601f820116820180604052508101906112da919061303f565b90506112e581611e34565b9350505050919050565b6112fb60008383611036565b6805345cdf77eb68f44c548181018181101561131f5763e5cfe9576000526004601cfd5b806805345cdf77eb68f44c556387a211a2600c52836000526020600c2083815401815583602052600c5160601c60007fddf252ad1be2c89b69c2b068fc378daa952ba7f163c4a11628f55a4df523b3ef602080a35050506113826000838361103b565b5050565b60606113bc60007f0000000000000000000000000000000000000000000000000000000000000000611e3e90919063ffffffff16565b905090565b60606113f760017f0000000000000000000000000000000000000000000000000000000000000000611e3e90919063ffffffff16565b905090565b60008061140985856110a1565b905060006114178285611eee565b905061142d86866114288585611218565b611671565b80925050509392505050565b6000806114a1611491600260008873ffffffffffffffffffffffffffffffffffffffff1673ffffffffffffffffffffffffffffffffffffffff1681526020019081526020016000205485611f6790919063ffffffff16565b8461149c6000611172565b61119a565b90506114ec600260008673ffffffffffffffffffffffffffffffffffffffff1673ffffffffffffffffffffffffffffffffffffffff168152602001908152602001600020548261165d565b600260008673ffffffffffffffffffffffffffffffffffffffff1673ffffffffffffffffffffffffffffffffffffffff16815260200190815260200160002081905550611578600260008773ffffffffffffffffffffffffffffffffffffffff1673ffffffffffffffffffffffffffffffffffffffff1681526020019081526020016000205482611218565b600260008773ffffffffffffffffffffffffffffffffffffffff1673ffffffffffffffffffffffffffffffffffffffff16815260200190815260200160002081905550809150509392505050565b6115d282600083611036565b6387a211a2600c52816000526020600c208054808311156115fb5763f4d678b86000526004601cfd5b8281038255826805345cdf77eb68f44c54036805345cdf77eb68f44c558260005260008460601b60601c7fddf252ad1be2c89b69c2b068fc378daa952ba7f163c4a11628f55a4df523b3ef60206000a350506116598260008361103b565b5050565b60006116698383611f7b565b905092915050565b600073ffffffffffffffffffffffffffffffffffffffff168373ffffffffffffffffffffffffffffffffffffffff16036116e35760006040517fe602df050000000000000000000000000000000000000000000000000000000081526004016116da919061306c565b60405180910390fd5b600073ffffffffffffffffffffffffffffffffffffffff168273ffffffffffffffffffffffffffffffffffffffff16036117555760006040517f94280d6200000000000000000000000000000000000000000000000000000000815260040161174c919061306c565b60405180910390fd5b80600360008573ffffffffffffffffffffffffffffffffffffffff1673ffffffffffffffffffffffffffffffffffffffff16815260200190815260200160002060008473ffffffffffffffffffffffffffffffffffffffff1673ffffffffffffffffffffffffffffffffffffffff16815260200190815260200160002081905550505050565b60006117e8826002611ff3565b9050919050565b60007f000000000000000000000000000000000000000000000000000000000000000073ffffffffffffffffffffffffffffffffffffffff163073ffffffffffffffffffffffffffffffffffffffff1614801561186b57507f000000000000000000000000000000000000000000000000000000000000000046145b15611898577f000000000000000000000000000000000000000000000000000000000000000090506118a3565b6118a061208d565b90505b90565b60006040517f190100000000000000000000000000000000000000000000000000000000000081528360028201528260228201526042812091505092915050565b6000806000604184510361192c5760008060006020870151925060408701519150606087015160001a905061191e88828585612123565b95509550955050505061193c565b60006002855160001b9250925092505b9250925092565b6000600381111561195757611956613087565b5b82600381111561196a57611969613087565b5b0315611aa3576001600381111561198457611983613087565b5b82600381111561199757611996613087565b5b036119ce576040517ff645eedf00000000000000000000000000000000000000000000000000000000815260040160405180910390fd5b600260038111156119e2576119e1613087565b5b8260038111156119f5576119f4613087565b5b03611a3a578060001c6040517ffce698f7000000000000000000000000000000000000000000000000000000008152600401611a3191906125e3565b60405180910390fd5b600380811115611a4d57611a4c613087565b5b826003811115611a6057611a5f613087565b5b03611aa257806040517fd78bce0c000000000000000000000000000000000000000000000000000000008152600401611a9991906126a1565b60405180910390fd5b5b5050565b6000808214159050919050565b6060608073ffffffffffffffffffffffffffffffffffffffff1663a1848ff385611add86611dd7565b85604051602001611aee91906130d7565b6040516020818303038152906040526040518463ffffffff1660e01b8152600401611b1b939291906130f2565b600060405180830381865afa158015611b38573d6000803e3d6000fd5b505050506040513d6000823e3d601f19601f82011682018060405250810190611b6191906131d8565b90509392505050565b60006060608073ffffffffffffffffffffffffffffffffffffffff166319e1c5c4611b9486611dd7565b856040518363ffffffff1660e01b8152600401611bb2929190613221565b600060405180830381865afa158015611bcf573d6000803e3d6000fd5b505050506040513d6000823e3d601f19601f82011682018060405250810190611bf891906132c1565b9050611c0381612217565b91505092915050565b6000611c1783611aa7565b611c2857611c256000611172565b92505b611c3182611aa7565b611c4257611c3f6000611172565b91505b600083905060008390506000611c7760028484608073ffffffffffffffffffffffffffffffffffffffff1663650de1cf612225565b905080935050505092915050565b6000808214159050919050565b6000611c9f82600d611b6a565b9050919050565b60006060608073ffffffffffffffffffffffffffffffffffffffff1663c2d9695287611cd188611dd7565b611cda88611dd7565b611ce388611dd7565b6040518563ffffffff1660e01b8152600401611d02949392919061330a565b600060405180830381865afa158015611d1f573d6000803e3d6000fd5b505050506040513d6000823e3d601f19601f82011682018060405250810190611d4891906132c1565b9050611d5381612217565b915050949350505050565b6000611d6983611aa7565b611d7a57611d776000611172565b92505b611d8382611aa7565b611d9457611d916000611172565b91505b600083905060008390506000611dc960028484608073ffffffffffffffffffffffffffffffffffffffff1663cc2cbeff612225565b905080935050505092915050565b6060602067ffffffffffffffff811115611df457611df3612812565b5b6040519080825280601f01601f191660200182016040528015611e265781602001600182028036833780820191505090505b509050816020820152919050565b6000819050919050565b606060ff60001b8314611e5b57611e54836122b9565b9050611ee8565b818054611e6790612ecd565b80601f0160208091040260200160405190810160405280929190818152602001828054611e9390612ecd565b8015611ee05780601f10611eb557610100808354040283529160200191611ee0565b820191906000526020600020905b815481529060010190602001808311611ec357829003601f168201915b505050505090505b92915050565b6000611ef983611aa7565b611f0a57611f076000611172565b92505b611f1382611aa7565b611f2457611f216000611172565b91505b600083905060008390506000611f5960028484608073ffffffffffffffffffffffffffffffffffffffff16635211c679612225565b905080935050505092915050565b6000611f73838361232d565b905092915050565b6000611f8683611aa7565b611f9757611f946000611172565b92505b611fa082611aa7565b611fb157611fae6000611172565b91505b600083905060008390506000611fe560028484608073ffffffffffffffffffffffffffffffffffffffff16622df619612225565b905080935050505092915050565b60006060608073ffffffffffffffffffffffffffffffffffffffff16635fa55ca784866040518363ffffffff1660e01b8152600401612033929190612ffa565b600060405180830381865afa158015612050573d6000803e3d6000fd5b505050506040513d6000823e3d601f19601f8201168201806040525081019061207991906132c1565b905061208481612217565b91505092915050565b60007f8b73c3c69bb8fe3d512ecc4cf759cc79239f7b179b0ffacaa9a75d522b39400f7f00000000000000000000000000000000000000000000000000000000000000007f00000000000000000000000000000000000000000000000000000000000000004630604051602001612108959493929190613364565b60405160208183030381529060405280519060200120905090565b60008060007f7fffffffffffffffffffffffffffffff5d576e7357a4501ddfe92f46681b20a08460001c111561216357600060038592509250925061220d565b60006001888888886040516000815260200160405260405161218894939291906133b7565b6020604051602081039080840390855afa1580156121aa573d6000803e3d6000fd5b505050602060405103519050600073ffffffffffffffffffffffffffffffffffffffff168173ffffffffffffffffffffffffffffffffffffffff16036121fe57600060016000801b9350935093505061220d565b8060008060001b935093509350505b9450945094915050565b600060208201519050919050565b6000606083838861223589611dd7565b61223e89611dd7565b6040518463ffffffff1660e01b815260040161225c939291906130f2565b600060405180830381865afa158015612279573d6000803e3d6000fd5b505050506040513d6000823e3d601f19601f820116820180604052508101906122a291906132c1565b90506122ad816123a6565b91505095945050505050565b606060006122c6836123b4565b90506000602067ffffffffffffffff8111156122e5576122e4612812565b5b6040519080825280601f01601f1916602001820160405280156123175781602001600182028036833780820191505090505b5090508181528360208201528092505050919050565b600061233883611aa7565b612349576123466000611172565b92505b61235282611aa7565b612363576123606000611172565b91505b60008390506000839050600061239860028484608073ffffffffffffffffffffffffffffffffffffffff1663eb274b77612225565b905080935050505092915050565b600060208201519050919050565b60008060ff8360001c169050601f8111156123fb576040517fb3512b0c00000000000000000000000000000000000000000000000000000000815260040160405180910390fd5b80915050919050565b600081519050919050565b600082825260208201905092915050565b60005b8381101561243e578082015181840152602081019050612423565b60008484015250505050565b6000601f19601f8301169050919050565b600061246682612404565b612470818561240f565b9350612480818560208601612420565b6124898161244a565b840191505092915050565b600060208201905081810360008301526124ae818461245b565b905092915050565b6000604051905090565b600080fd5b600080fd5b600073ffffffffffffffffffffffffffffffffffffffff82169050919050565b60006124f5826124ca565b9050919050565b612505816124ea565b811461251057600080fd5b50565b600081359050612522816124fc565b92915050565b6000819050919050565b61253b81612528565b811461254657600080fd5b50565b60008135905061255881612532565b92915050565b60008060408385031215612575576125746124c0565b5b600061258385828601612513565b925050602061259485828601612549565b9150509250929050565b60008115159050919050565b6125b38161259e565b82525050565b60006020820190506125ce60008301846125aa565b92915050565b6125dd81612528565b82525050565b60006020820190506125f860008301846125d4565b92915050565b600080600060608486031215612617576126166124c0565b5b600061262586828701612513565b935050602061263686828701612513565b925050604061264786828701612549565b9150509250925092565b600060ff82169050919050565b61266781612651565b82525050565b6000602082019050612682600083018461265e565b92915050565b6000819050919050565b61269b81612688565b82525050565b60006020820190506126b66000830184612692565b92915050565b600080fd5b6000602082840312156126d7576126d66126bc565b5b81905092915050565b600080604083850312156126f7576126f66124c0565b5b600061270585828601612513565b925050602083013567ffffffffffffffff811115612726576127256124c5565b5b612732858286016126c1565b9150509250929050565b6000819050919050565b600061276161275c61275784612528565b61273c565b612528565b9050919050565b61277181612746565b82525050565b600060208201905061278c6000830184612768565b92915050565b6000604082840312156127a8576127a76126bc565b5b81905092915050565b600080604083850312156127c8576127c76124c0565b5b60006127d685828601612513565b925050602083013567ffffffffffffffff8111156127f7576127f66124c5565b5b61280385828601612792565b9150509250929050565b600080fd5b7f4e487b7100000000000000000000000000000000000000000000000000000000600052604160045260246000fd5b61284a8261244a565b810181811067ffffffffffffffff8211171561286957612868612812565b5b80604052505050565b600061287c6124b6565b90506128888282612841565b919050565b600080fd5b61289b81612688565b81146128a657600080fd5b50565b6000813590506128b881612892565b92915050565b600080fd5b600080fd5b600067ffffffffffffffff8211156128e3576128e2612812565b5b6128ec8261244a565b9050602081019050919050565b82818337600083830152505050565b600061291b612916846128c8565b612872565b905082815260208101848484011115612937576129366128c3565b5b6129428482856128f9565b509392505050565b600082601f83011261295f5761295e6128be565b5b813561296f848260208601612908565b91505092915050565b60006040828403121561298e5761298d61280d565b5b6129986040612872565b905060006129a8848285016128a9565b600083015250602082013567ffffffffffffffff8111156129cc576129cb61288d565b5b6129d88482850161294a565b60208301525092915050565b600080604083850312156129fb576129fa6124c0565b5b6000612a0985828601612513565b925050602083013567ffffffffffffffff811115612a2a57612a296124c5565b5b612a3685828601612978565b9150509250929050565b600063ffffffff82169050919050565b612a5981612a40565b8114612a6457600080fd5b50565b600081359050612a7681612a50565b92915050565b600060208284031215612a9257612a916124c0565b5b6000612aa084828501612a67565b91505092915050565b600060208284031215612abf57612abe6124c0565b5b6000612acd84828501612513565b91505092915050565b60007fff0000000000000000000000000000000000000000000000000000000000000082169050919050565b612b0b81612ad6565b82525050565b612b1a816124ea565b82525050565b600081519050919050565b600082825260208201905092915050565b6000819050602082019050919050565b612b5581612528565b82525050565b6000612b678383612b4c565b60208301905092915050565b6000602082019050919050565b6000612b8b82612b20565b612b958185612b2b565b9350612ba083612b3c565b8060005b83811015612bd1578151612bb88882612b5b565b9750612bc383612b73565b925050600181019050612ba4565b5085935050505092915050565b600060e082019050612bf3600083018a612b02565b8181036020830152612c05818961245b565b90508181036040830152612c19818861245b565b9050612c2860608301876125d4565b612c356080830186612b11565b612c4260a0830185612692565b81810360c0830152612c548184612b80565b905098975050505050505050565b600080600060608486031215612c7b57612c7a6124c0565b5b6000612c8986828701612513565b9350506020612c9a86828701612513565b925050604084013567ffffffffffffffff811115612cbb57612cba6124c5565b5b612cc7868287016126c1565b9150509250925092565b612cda81612528565b8114612ce557600080fd5b50565b600081359050612cf781612cd1565b92915050565b600080600060608486031215612d1657612d156124c0565b5b6000612d2486828701612513565b9350506020612d3586828701612513565b9250506040612d4686828701612ce8565b9150509250925092565b60008060408385031215612d6757612d666124c0565b5b6000612d7585828601612513565b9250506020612d8685828601612ce8565b9150509250929050565b612d9981612651565b8114612da457600080fd5b50565b600081359050612db681612d90565b92915050565b600080600080600080600060e0888a031215612ddb57612dda6124c0565b5b6000612de98a828b01612513565b9750506020612dfa8a828b01612513565b9650506040612e0b8a828b01612549565b9550506060612e1c8a828b01612549565b9450506080612e2d8a828b01612da7565b93505060a0612e3e8a828b016128a9565b92505060c0612e4f8a828b016128a9565b91505092959891949750929550565b60008060408385031215612e7557612e746124c0565b5b6000612e8385828601612513565b9250506020612e9485828601612513565b9150509250929050565b7f4e487b7100000000000000000000000000000000000000000000000000000000600052602260045260246000fd5b60006002820490506001821680612ee557607f821691505b602082108103612ef857612ef7612e9e565b5b50919050565b600060208284031215612f1457612f1361280d565b5b612f1e6020612872565b9050600082013567ffffffffffffffff811115612f3e57612f3d61288d565b5b612f4a8482850161294a565b60008301525092915050565b6000612f623683612efe565b9050919050565b6000612f753683612978565b9050919050565b6000604082019050612f916000830185612692565b612f9e6020830184612692565b9392505050565b600081519050919050565b600082825260208201905092915050565b6000612fcc82612fa5565b612fd68185612fb0565b9350612fe6818560208601612420565b612fef8161244a565b840191505092915050565b600060408201905061300f600083018561265e565b81810360208301526130218184612fc1565b90509392505050565b60008151905061303981612532565b92915050565b600060208284031215613055576130546124c0565b5b60006130638482850161302a565b91505092915050565b60006020820190506130816000830184612b11565b92915050565b7f4e487b7100000000000000000000000000000000000000000000000000000000600052602160045260246000fd5b6000819050919050565b6130d16130cc82612688565b6130b6565b82525050565b60006130e382846130c0565b60208201915081905092915050565b6000606082019050613107600083018661265e565b81810360208301526131198185612fc1565b9050818103604083015261312d8184612fc1565b9050949350505050565b600067ffffffffffffffff82111561315257613151612812565b5b61315b8261244a565b9050602081019050919050565b600061317b61317684613137565b612872565b905082815260208101848484011115613197576131966128c3565b5b6131a2848285612420565b509392505050565b600082601f8301126131bf576131be6128be565b5b81516131cf848260208601613168565b91505092915050565b6000602082840312156131ee576131ed6124c0565b5b600082015167ffffffffffffffff81111561320c5761320b6124c5565b5b613218848285016131aa565b91505092915050565b6000604082019050818103600083015261323b8185612fc1565b905061324a602083018461265e565b9392505050565b600061326461325f846128c8565b612872565b9050828152602081018484840111156132805761327f6128c3565b5b61328b848285612420565b509392505050565b600082601f8301126132a8576132a76128be565b5b81516132b8848260208601613251565b91505092915050565b6000602082840312156132d7576132d66124c0565b5b600082015167ffffffffffffffff8111156132f5576132f46124c5565b5b61330184828501613293565b91505092915050565b600060808201905061331f600083018761265e565b81810360208301526133318186612fc1565b905081810360408301526133458185612fc1565b905081810360608301526133598184612fc1565b905095945050505050565b600060a0820190506133796000830188612692565b6133866020830187612692565b6133936040830186612692565b6133a060608301856125d4565b6133ad6080830184612b11565b9695505050505050565b60006080820190506133cc6000830187612692565b6133d9602083018661265e565b6133e66040830185612692565b6133f36060830184612692565b9594505050505056fea26469706673582212206999aac1c1a78e07b057cf816e3f5f6d0fa3599f5e1c86ab42aa95c8960d94b164736f6c63430008180033",
  "devdoc": {
    "errors": {
      "AllowanceOverflow()": [
        {
          "details": "The allowance has overflowed."
        }
      ],
      "AllowanceUnderflow()": [
        {
          "details": "The allowance has underflowed."
        }
      ],
      "ECDSAInvalidSignature()": [
        {
          "details": "The signature derives the `address(0)`."
        }
      ],
      "ECDSAInvalidSignatureLength(uint256)": [
        {
          "details": "The signature has an invalid length."
        }
      ],
      "ECDSAInvalidSignatureS(bytes32)": [
        {
          "details": "The signature has an S value that is in the upper half order."
        }
      ],
      "InsufficientAllowance()": [
        {
          "details": "Insufficient allowance."
        }
      ],
      "InsufficientBalance()": [
        {
          "details": "Insufficient balance."
        }
      ],
      "InvalidPermit()": [
        {
          "details": "The permit is invalid."
        }
      ],
      "PermitExpired()": [
        {
          "details": "The permit has expired."
        }
      ],
      "TotalSupplyOverflow()": [
        {
          "details": "The total supply has overflowed."
        }
      ]
    },
    "events": {
      "Approval(address,address,uint256)": {
        "details": "Emitted when `amount` tokens is approved by `owner` to be used by `spender`."
      },
      "ApprovalEncrypted(address,address)": {
        "details": "Emitted when the allowance of a `spender` for an `owner` is set by a call to {approveEncrypted}. `value` is the new allowance."
      },
      "EIP712DomainChanged()": {
        "details": "MAY be emitted to signal that the domain could have changed."
      },
      "Transfer(address,address,uint256)": {
        "details": "Emitted when `amount` tokens is transferred from `from` to `to`."
      },
      "TransferEncrypted(address,address)": {
        "details": "Emitted when `value` tokens are moved from one account (`from`) to another (`to`). Note that `value` may be zero."
      }
    },
    "kind": "dev",
    "methods": {
      "DOMAIN_SEPARATOR()": {
        "details": "Returns the EIP-712 domain separator for the EIP-2612 permit."
      },
      "allowance(address,address)": {
        "details": "Returns the amount of tokens that `spender` can spend on behalf of `owner`."
      },
      "allowanceEncrypted(address,(bytes32,bytes))": {
        "details": "Returns the remaining number of tokens that `spender` will be allowed to spend on behalf of `owner` through {transferFrom}. This is zero by default. This value changes when {approve} or {transferFrom} are called."
      },
      "approve(address,uint256)": {
        "details": "Sets `amount` as the allowance of `spender` over the caller's tokens. Emits a {Approval} event."
      },
      "approveEncrypted(address,(bytes))": {
        "details": "Sets a `value` amount of tokens as the allowance of `spender` over the caller's tokens. Returns a boolean value indicating whether the operation succeeded. IMPORTANT: Beware that changing an allowance with this method brings the risk that someone may use both the old and the new allowance by unfortunate transaction ordering. One possible solution to mitigate this race condition is to first reduce the spender's allowance to 0 and set the desired value afterwards: https://github.com/ethereum/EIPs/issues/20#issuecomment-263524729 Emits an {ApprovalEncrypted} event."
      },
      "balanceOf(address)": {
        "details": "Returns the amount of tokens owned by `owner`."
      },
      "balanceOfEncrypted(address,(bytes32,bytes))": {
        "details": "Returns the value of tokens owned by `account`, sealed and encrypted for the caller."
      },
      "decimals()": {
        "details": "Returns the decimals places of the token."
      },
      "eip712Domain()": {
        "details": "See {IERC-5267}."
      },
      "name()": {
        "details": "Returns the name of the token."
      },
      "nonces(address)": {
        "details": "Returns the current nonce for `owner`. This value is used to compute the signature for EIP-2612 permit."
      },
      "permit(address,address,uint256,uint256,uint8,bytes32,bytes32)": {
        "details": "Sets `value` as the allowance of `spender` over the tokens of `owner`, authorized by a signed approval by `owner`. Emits a {Approval} event."
      },
      "symbol()": {
        "details": "Returns the symbol of the token."
      },
      "totalSupply()": {
        "details": "Returns the amount of tokens in existence."
      },
      "transfer(address,uint256)": {
        "details": "Transfer `amount` tokens from the caller to `to`. Requirements: - `from` must at least have `amount`. Emits a {Transfer} event."
      },
      "transferFrom(address,address,uint256)": {
        "details": "Transfers `amount` tokens from `from` to `to`. Note: Does not update the allowance if it is the maximum uint256 value. Requirements: - `from` must at least have `amount`. - The caller must have at least `amount` of allowance to transfer the tokens of `from`. Emits a {Transfer} event."
      },
      "transferFromEncrypted(address,address,(bytes))": {
        "details": "Moves a `value` amount of tokens from `from` to `to` using the allowance mechanism. `value` is then deducted from the caller's allowance. Returns a boolean value indicating whether the operation succeeded. Emits a {TransferEncrypted} event."
      }
    },
    "version": 1
  },
  "userdoc": {
    "errors": {
      "SignerNotMessageSender()": [
        {
          "notice": "Emitted when the signer is not the message sender"
        }
      ],
      "SignerNotOwner()": [
        {
          "notice": "Emitted when the signer is not the specified owner"
        }
      ]
    },
    "kind": "user",
    "methods": {},
    "version": 1
  },
  "storageLayout": {
    "storage": [
      {
        "astId": 16568,
        "contract": "contracts/FakeFGZ.sol:FakeFGZ",
        "label": "_nameFallback",
        "offset": 0,
        "slot": "0",
        "type": "t_string_storage"
      },
      {
        "astId": 16570,
        "contract": "contracts/FakeFGZ.sol:FakeFGZ",
        "label": "_versionFallback",
        "offset": 0,
        "slot": "1",
        "type": "t_string_storage"
      },
      {
        "astId": 18171,
        "contract": "contracts/FakeFGZ.sol:FakeFGZ",
        "label": "_encBalances",
        "offset": 0,
        "slot": "2",
        "type": "t_mapping(t_address,t_userDefinedValueType(euint32)12)"
      },
      {
        "astId": 18178,
        "contract": "contracts/FakeFGZ.sol:FakeFGZ",
        "label": "_allowed",
        "offset": 0,
        "slot": "3",
        "type": "t_mapping(t_address,t_mapping(t_address,t_userDefinedValueType(euint32)12))"
      },
      {
        "astId": 18185,
        "contract": "contracts/FakeFGZ.sol:FakeFGZ",
        "label": "totalEncryptedSupply",
        "offset": 0,
        "slot": "4",
        "type": "t_userDefinedValueType(euint32)12"
      },
      {
        "astId": 18187,
        "contract": "contracts/FakeFGZ.sol:FakeFGZ",
        "label": "_name",
        "offset": 0,
        "slot": "5",
        "type": "t_string_storage"
      },
      {
        "astId": 18189,
        "contract": "contracts/FakeFGZ.sol:FakeFGZ",
        "label": "_symbol",
        "offset": 0,
        "slot": "6",
        "type": "t_string_storage"
      }
    ],
    "types": {
      "t_address": {
        "encoding": "inplace",
        "label": "address",
        "numberOfBytes": "20"
      },
      "t_mapping(t_address,t_mapping(t_address,t_userDefinedValueType(euint32)12))": {
        "encoding": "mapping",
        "key": "t_address",
        "label": "mapping(address => mapping(address => euint32))",
        "numberOfBytes": "32",
        "value": "t_mapping(t_address,t_userDefinedValueType(euint32)12)"
      },
      "t_mapping(t_address,t_userDefinedValueType(euint32)12)": {
        "encoding": "mapping",
        "key": "t_address",
        "label": "mapping(address => euint32)",
        "numberOfBytes": "32",
        "value": "t_userDefinedValueType(euint32)12"
      },
      "t_string_storage": {
        "encoding": "bytes",
        "label": "string",
        "numberOfBytes": "32"
      },
      "t_userDefinedValueType(euint32)12": {
        "encoding": "inplace",
        "label": "euint32",
        "numberOfBytes": "32"
      }
    }
  }
}