{
  "address": "0xD30C778F7Fd47CCfB93Caa589195eb288FC768c8",
  "abi": [
    {
      "inputs": [],
      "name": "BatchIsSettlement",
      "type": "error"
    },
    {
      "inputs": [],
      "name": "EpochNotEnded",
      "type": "error"
    },
    {
      "inputs": [],
      "name": "InvalidShortString",
      "type": "error"
    },
    {
      "inputs": [],
      "name": "InvalidTokenOrder",
      "type": "error"
    },
    {
      "inputs": [],
      "name": "OrderAlreadyClaimed",
      "type": "error"
    },
    {
      "inputs": [],
      "name": "PoolAlreadyExists",
      "type": "error"
    },
    {
      "inputs": [],
      "name": "PoolNotFound",
      "type": "error"
    },
    {
      "inputs": [],
      "name": "SignerNotMessageSender",
      "type": "error"
    },
    {
      "inputs": [],
      "name": "SignerNotOwner",
      "type": "error"
    },
    {
      "inputs": [
        {
          "internalType": "string",
          "name": "str",
          "type": "string"
        }
      ],
      "name": "StringTooLong",
      "type": "error"
    },
    {
      "inputs": [],
      "name": "noCorrespondingFacet",
      "type": "error"
    },
    {
      "inputs": [],
      "name": "notOwner",
      "type": "error"
    },
    {
      "anonymous": false,
      "inputs": [
        {
          "indexed": false,
          "internalType": "address",
          "name": "recipient",
          "type": "address"
        },
        {
          "indexed": false,
          "internalType": "address",
          "name": "token",
          "type": "address"
        }
      ],
      "name": "Deposit",
      "type": "event"
    },
    {
      "anonymous": false,
      "inputs": [],
      "name": "EIP712DomainChanged",
      "type": "event"
    },
    {
      "anonymous": false,
      "inputs": [
        {
          "indexed": false,
          "internalType": "address",
          "name": "tokenX",
          "type": "address"
        },
        {
          "indexed": false,
          "internalType": "address",
          "name": "tokenY",
          "type": "address"
        },
        {
          "indexed": false,
          "internalType": "bytes32",
          "name": "poolId",
          "type": "bytes32"
        }
      ],
      "name": "PoolCreated",
      "type": "event"
    },
    {
      "anonymous": false,
      "inputs": [
        {
          "indexed": false,
          "internalType": "address",
          "name": "recipient",
          "type": "address"
        },
        {
          "indexed": false,
          "internalType": "address",
          "name": "token",
          "type": "address"
        }
      ],
      "name": "Withdraw",
      "type": "event"
    },
    {
      "anonymous": false,
      "inputs": [
        {
          "indexed": false,
          "internalType": "bytes32",
          "name": "poolId",
          "type": "bytes32"
        },
        {
          "indexed": false,
          "internalType": "uint32",
          "name": "epoch",
          "type": "uint32"
        }
      ],
      "name": "epochSettled",
      "type": "event"
    },
    {
      "anonymous": false,
      "inputs": [
        {
          "indexed": false,
          "internalType": "bytes4",
          "name": "selector",
          "type": "bytes4"
        },
        {
          "indexed": false,
          "internalType": "address",
          "name": "facet",
          "type": "address"
        }
      ],
      "name": "facetAdded",
      "type": "event"
    },
    {
      "anonymous": false,
      "inputs": [
        {
          "indexed": false,
          "internalType": "bytes32",
          "name": "poolId",
          "type": "bytes32"
        },
        {
          "indexed": false,
          "internalType": "uint32",
          "name": "epoch",
          "type": "uint32"
        }
      ],
      "name": "orderSubmitted",
      "type": "event"
    },
    {
      "inputs": [
        {
          "internalType": "address",
          "name": "tokenX",
          "type": "address"
        },
        {
          "internalType": "address",
          "name": "tokenY",
          "type": "address"
        },
        {
          "components": [
            {
              "internalType": "bytes",
              "name": "data",
              "type": "bytes"
            }
          ],
          "internalType": "struct inEuint32",
          "name": "_initialReserves",
          "type": "tuple"
        }
      ],
      "name": "createPool",
      "outputs": [],
      "stateMutability": "nonpayable",
      "type": "function"
    },
    {
      "inputs": [],
      "name": "eip712Domain",
      "outputs": [
        {
          "internalType": "bytes1",
          "name": "fields",
          "type": "bytes1"
        },
        {
          "internalType": "string",
          "name": "name",
          "type": "string"
        },
        {
          "internalType": "string",
          "name": "version",
          "type": "string"
        },
        {
          "internalType": "uint256",
          "name": "chainId",
          "type": "uint256"
        },
        {
          "internalType": "address",
          "name": "verifyingContract",
          "type": "address"
        },
        {
          "internalType": "bytes32",
          "name": "salt",
          "type": "bytes32"
        },
        {
          "internalType": "uint256[]",
          "name": "extensions",
          "type": "uint256[]"
        }
      ],
      "stateMutability": "view",
      "type": "function"
    },
    {
      "inputs": [
        {
          "internalType": "address",
          "name": "tokenX",
          "type": "address"
        },
        {
          "internalType": "address",
          "name": "tokenY",
          "type": "address"
        }
      ],
      "name": "getPoolId",
      "outputs": [
        {
          "internalType": "bytes32",
          "name": "",
          "type": "bytes32"
        }
      ],
      "stateMutability": "view",
      "type": "function"
    }
  ],
  "transactionHash": "0x7c8ae434a88c8ab7e0a7057eec53297d4519b3845830932734824a2938a4a43b",
  "args": [],
  "numDeployments": 1,
  "solcInputHash": "0c5385efa46cb58cf4f25a483a2e8f2f",
  "bytecode": "0x610160604052603c600760006101000a81548163ffffffff021916908363ffffffff1602179055503480156200003457600080fd5b506040518060400160405280601181526020017f4668656e6978205065726d697373696f6e0000000000000000000000000000008152506040518060400160405280600381526020017f312e300000000000000000000000000000000000000000000000000000000000815250620000b76000836200015760201b90919060201c565b6101208181525050620000d56001826200015760201b90919060201c565b6101408181525050818051906020012060e08181525050808051906020012061010081815250504660a0818152505062000114620001af60201b60201c565b608081815250503073ffffffffffffffffffffffffffffffffffffffff1660c08173ffffffffffffffffffffffffffffffffffffffff1681525050505062000807565b60006020835110156200017d5762000175836200020c60201b60201c565b9050620001a9565b826200018f836200027960201b60201c565b6000019081620001a09190620004fd565b5060ff60001b90505b92915050565b60007f8b73c3c69bb8fe3d512ecc4cf759cc79239f7b179b0ffacaa9a75d522b39400f60e051610100514630604051602001620001f195949392919062000655565b60405160208183030381529060405280519060200120905090565b600080829050601f815111156200025c57826040517f305a27a900000000000000000000000000000000000000000000000000000000815260040162000253919062000741565b60405180910390fd5b8051816200026a9062000797565b60001c1760001b915050919050565b6000819050919050565b600081519050919050565b7f4e487b7100000000000000000000000000000000000000000000000000000000600052604160045260246000fd5b7f4e487b7100000000000000000000000000000000000000000000000000000000600052602260045260246000fd5b600060028204905060018216806200030557607f821691505b6020821081036200031b576200031a620002bd565b5b50919050565b60008190508160005260206000209050919050565b60006020601f8301049050919050565b600082821b905092915050565b600060088302620003857fffffffffffffffffffffffffffffffffffffffffffffffffffffffffffffffff8262000346565b62000391868362000346565b95508019841693508086168417925050509392505050565b6000819050919050565b6000819050919050565b6000620003de620003d8620003d284620003a9565b620003b3565b620003a9565b9050919050565b6000819050919050565b620003fa83620003bd565b620004126200040982620003e5565b84845462000353565b825550505050565b600090565b620004296200041a565b62000436818484620003ef565b505050565b5b818110156200045e57620004526000826200041f565b6001810190506200043c565b5050565b601f821115620004ad57620004778162000321565b620004828462000336565b8101602085101562000492578190505b620004aa620004a18562000336565b8301826200043b565b50505b505050565b600082821c905092915050565b6000620004d260001984600802620004b2565b1980831691505092915050565b6000620004ed8383620004bf565b9150826002028217905092915050565b620005088262000283565b67ffffffffffffffff8111156200052457620005236200028e565b5b620005308254620002ec565b6200053d82828562000462565b600060209050601f83116001811462000575576000841562000560578287015190505b6200056c8582620004df565b865550620005dc565b601f198416620005858662000321565b60005b82811015620005af5784890151825560018201915060208501945060208101905062000588565b86831015620005cf5784890151620005cb601f891682620004bf565b8355505b6001600288020188555050505b505050505050565b6000819050919050565b620005f981620005e4565b82525050565b6200060a81620003a9565b82525050565b600073ffffffffffffffffffffffffffffffffffffffff82169050919050565b60006200063d8262000610565b9050919050565b6200064f8162000630565b82525050565b600060a0820190506200066c6000830188620005ee565b6200067b6020830187620005ee565b6200068a6040830186620005ee565b620006996060830185620005ff565b620006a8608083018462000644565b9695505050505050565b600082825260208201905092915050565b60005b83811015620006e3578082015181840152602081019050620006c6565b60008484015250505050565b6000601f19601f8301169050919050565b60006200070d8262000283565b620007198185620006b2565b93506200072b818560208601620006c3565b6200073681620006ef565b840191505092915050565b600060208201905081810360008301526200075d818462000700565b905092915050565b600081519050919050565b6000819050602082019050919050565b60006200078e8251620005e4565b80915050919050565b6000620007a48262000765565b82620007b08462000770565b9050620007bd8162000780565b925060208210156200080057620007fb7fffffffffffffffffffffffffffffffffffffffffffffffffffffffffffffffff8360200360080262000346565b831692505b5050919050565b60805160a05160c05160e051610100516101205161014051611cf4620008536000396000610c4301526000610c0801526000505060005050600050506000505060005050611cf46000f3fe608060405234801561001057600080fd5b50600436106100415760003560e01c80632ef61c2114610046578063467276391461007657806384b0196e14610092575b600080fd5b610060600480360381019061005b9190611487565b6100b6565b60405161006d91906114e0565b60405180910390f35b610090600480360381019061008b919061151f565b6101f3565b005b61009a610610565b6040516100ad979695949392919061173f565b60405180910390f35b60008173ffffffffffffffffffffffffffffffffffffffff168373ffffffffffffffffffffffffffffffffffffffff161061016d57600560008373ffffffffffffffffffffffffffffffffffffffff1673ffffffffffffffffffffffffffffffffffffffff16815260200190815260200160002060008473ffffffffffffffffffffffffffffffffffffffff1673ffffffffffffffffffffffffffffffffffffffff168152602001908152602001600020546101eb565b600560008473ffffffffffffffffffffffffffffffffffffffff1673ffffffffffffffffffffffffffffffffffffffff16815260200190815260200160002060008373ffffffffffffffffffffffffffffffffffffffff1673ffffffffffffffffffffffffffffffffffffffff168152602001908152602001600020545b905092915050565b6000610207826102029061195a565b6106ba565b905060006102bb600460003373ffffffffffffffffffffffffffffffffffffffff1673ffffffffffffffffffffffffffffffffffffffff16815260200190815260200160002060000160008773ffffffffffffffffffffffffffffffffffffffff1673ffffffffffffffffffffffffffffffffffffffff168152602001908152602001600020546102b66102a7856102a2633fff80006106d0565b6106e4565b6102b1600f6106d0565b61075d565b6107d6565b9050600061035b600460003373ffffffffffffffffffffffffffffffffffffffff1673ffffffffffffffffffffffffffffffffffffffff16815260200190815260200160002060000160008773ffffffffffffffffffffffffffffffffffffffff1673ffffffffffffffffffffffffffffffffffffffff1681526020019081526020016000205461035685610351617fff6106d0565b6106e4565b6107d6565b9050610395610390610377846103726108006106d0565b61084f565b61038b846103866108006106d0565b61084f565b6108c8565b610941565b61041e600460003373ffffffffffffffffffffffffffffffffffffffff1673ffffffffffffffffffffffffffffffffffffffff16815260200190815260200160002060000160008873ffffffffffffffffffffffffffffffffffffffff1673ffffffffffffffffffffffffffffffffffffffff16815260200190815260200160002054836109f6565b600460003373ffffffffffffffffffffffffffffffffffffffff1673ffffffffffffffffffffffffffffffffffffffff16815260200190815260200160002060000160008873ffffffffffffffffffffffffffffffffffffffff1673ffffffffffffffffffffffffffffffffffffffff1681526020019081526020016000208190555061052a600460003373ffffffffffffffffffffffffffffffffffffffff1673ffffffffffffffffffffffffffffffffffffffff16815260200190815260200160002060000160008773ffffffffffffffffffffffffffffffffffffffff1673ffffffffffffffffffffffffffffffffffffffff16815260200190815260200160002054826109f6565b600460003373ffffffffffffffffffffffffffffffffffffffff1673ffffffffffffffffffffffffffffffffffffffff16815260200190815260200160002060000160008773ffffffffffffffffffffffffffffffffffffffff1673ffffffffffffffffffffffffffffffffffffffff16815260200190815260200160002081905550600060405180608001604052808873ffffffffffffffffffffffffffffffffffffffff1681526020018773ffffffffffffffffffffffffffffffffffffffff16815260200184815260200183815250905061060781610a0a565b50505050505050565b600060608060008060006060610624610bff565b61062c610c3a565b46306000801b600067ffffffffffffffff81111561064d5761064c6117c8565b5b60405190808252806020026020018201604052801561067b5781602001602082028036833780820191505090505b507f0f00000000000000000000000000000000000000000000000000000000000000959493929190965096509650965096509650965090919293949596565b60006106c98260000151610c75565b9050919050565b60006106dd826002610c89565b9050919050565b60006106ef83610d2b565b610700576106fd60006106d0565b92505b61070982610d2b565b61071a5761071760006106d0565b91505b60008390506000839050600061074f60028484608073ffffffffffffffffffffffffffffffffffffffff1663ae104cfd610d38565b905080935050505092915050565b600061076883610d2b565b6107795761077660006106d0565b92505b61078282610d2b565b6107935761079060006106d0565b91505b6000839050600083905060006107c860028484608073ffffffffffffffffffffffffffffffffffffffff16639944d12d610d38565b905080935050505092915050565b60006107e183610d2b565b6107f2576107ef60006106d0565b92505b6107fb82610d2b565b61080c5761080960006106d0565b91505b60008390506000839050600061084160028484608073ffffffffffffffffffffffffffffffffffffffff16635211c679610d38565b905080935050505092915050565b600061085a83610d2b565b61086b5761086860006106d0565b92505b61087482610d2b565b6108855761088260006106d0565b91505b6000839050600083905060006108ba60028484608073ffffffffffffffffffffffffffffffffffffffff1663874b1c10610d38565b905080935050505092915050565b60006108d383610dcc565b6108e4576108e16000610dd9565b92505b6108ed82610dcc565b6108fe576108fb6000610dd9565b91505b600083905060008390506000610933600d8484608073ffffffffffffffffffffffffffffffffffffffff1663ae104cfd610d38565b905080935050505092915050565b61094a81610dcc565b61095b576109586000610dd9565b90505b6000819050600061096b82610ded565b9050608073ffffffffffffffffffffffffffffffffffffffff16637d23f1db600d836040518363ffffffff1660e01b81526004016109aa9291906119de565b600060405180830381865afa1580156109c7573d6000803e3d6000fd5b505050506040513d6000823e3d601f19601f820116820180604052508101906109f09190611a7e565b50505050565b6000610a028383610e4a565b905092915050565b806000015173ffffffffffffffffffffffffffffffffffffffff16816020015173ffffffffffffffffffffffffffffffffffffffff1611610a77576040517f3f06bf8100000000000000000000000000000000000000000000000000000000815260040160405180910390fd5b6000610a8b826000015183602001516100b6565b90506000801b8114610ac9576040517f0311932200000000000000000000000000000000000000000000000000000000815260040160405180910390fd5b81600001518260200151604051602001610ae4929190611b0f565b6040516020818303038152906040528051906020012060056000846000015173ffffffffffffffffffffffffffffffffffffffff1673ffffffffffffffffffffffffffffffffffffffff1681526020019081526020016000206000846020015173ffffffffffffffffffffffffffffffffffffffff1673ffffffffffffffffffffffffffffffffffffffff16815260200190815260200160002081905550610b94826000015183602001516100b6565b90506000600660008381526020019081526020016000209050610bb78184610ec3565b7fec5dc6309c83a50f60f4a1fae9422b2c406da78c579b9b12b92d033db37c71948360000151846020015184604051610bf293929190611b3b565b60405180910390a1505050565b6060610c3560007f000000000000000000000000000000000000000000000000000000000000000061117290919063ffffffff16565b905090565b6060610c7060017f000000000000000000000000000000000000000000000000000000000000000061117290919063ffffffff16565b905090565b6000610c82826002611222565b9050919050565b60006060608073ffffffffffffffffffffffffffffffffffffffff166319e1c5c4610cb386610ded565b856040518363ffffffff1660e01b8152600401610cd1929190611b72565b600060405180830381865afa158015610cee573d6000803e3d6000fd5b505050506040513d6000823e3d601f19601f82011682018060405250810190610d179190611a7e565b9050610d22816112bc565b91505092915050565b6000808214159050919050565b60006060838388610d4889610ded565b610d5189610ded565b6040518463ffffffff1660e01b8152600401610d6f93929190611ba2565b600060405180830381865afa158015610d8c573d6000803e3d6000fd5b505050506040513d6000823e3d601f19601f82011682018060405250810190610db59190611a7e565b9050610dc0816112ca565b91505095945050505050565b6000808214159050919050565b6000610de682600d610c89565b9050919050565b6060602067ffffffffffffffff811115610e0a57610e096117c8565b5b6040519080825280601f01601f191660200182016040528015610e3c5781602001600182028036833780820191505090505b509050816020820152919050565b6000610e5583610d2b565b610e6657610e6360006106d0565b92505b610e6f82610d2b565b610e8057610e7d60006106d0565b91505b600083905060008390506000610eb560028484608073ffffffffffffffffffffffffffffffffffffffff1663cc2cbeff610d38565b905080935050505092915050565b80600001518260000160006101000a81548173ffffffffffffffffffffffffffffffffffffffff021916908373ffffffffffffffffffffffffffffffffffffffff16021790555080602001518260010160006101000a81548173ffffffffffffffffffffffffffffffffffffffff021916908373ffffffffffffffffffffffffffffffffffffffff16021790555060008260010160146101000a81548163ffffffff021916908363ffffffff160217905550428260010160186101000a81548163ffffffff021916908363ffffffff160217905550600082600101601c6101000a81548163ffffffff021916908363ffffffff160217905550610fe58160400151610fe06001600a610fd59190611c26565b63ffffffff166106d0565b61075d565b826004018190555061101681606001516110116001600a6110069190611c26565b63ffffffff166106d0565b61075d565b8260050181905550611030816040015183600401546109f6565b826002018190555061104a816060015183600501546109f6565b8260030181905550611064826002015483600301546112d8565b826006018190555061109582600601546110906001600a6110859190611c26565b63ffffffff166106d0565b61075d565b8260070160003073ffffffffffffffffffffffffffffffffffffffff1673ffffffffffffffffffffffffffffffffffffffff1681526020019081526020016000208190555061112982600601548360070160003073ffffffffffffffffffffffffffffffffffffffff1673ffffffffffffffffffffffffffffffffffffffff168152602001908152602001600020546109f6565b8260070160003373ffffffffffffffffffffffffffffffffffffffff1673ffffffffffffffffffffffffffffffffffffffff168152602001908152602001600020819055505050565b606060ff60001b831461118f5761118883611351565b905061121c565b81805461119b90611c8d565b80601f01602080910402602001604051908101604052809291908181526020018280546111c790611c8d565b80156112145780601f106111e957610100808354040283529160200191611214565b820191906000526020600020905b8154815290600101906020018083116111f757829003601f168201915b505050505090505b92915050565b60006060608073ffffffffffffffffffffffffffffffffffffffff16635fa55ca784866040518363ffffffff1660e01b81526004016112629291906119de565b600060405180830381865afa15801561127f573d6000803e3d6000fd5b505050506040513d6000823e3d601f19601f820116820180604052508101906112a89190611a7e565b90506112b3816112bc565b91505092915050565b600060208201519050919050565b600060208201519050919050565b60006112e383610d2b565b6112f4576112f160006106d0565b92505b6112fd82610d2b565b61130e5761130b60006106d0565b91505b60008390506000839050600061134360028484608073ffffffffffffffffffffffffffffffffffffffff16630b80518e610d38565b905080935050505092915050565b6060600061135e836113c5565b90506000602067ffffffffffffffff81111561137d5761137c6117c8565b5b6040519080825280601f01601f1916602001820160405280156113af5781602001600182028036833780820191505090505b5090508181528360208201528092505050919050565b60008060ff8360001c169050601f81111561140c576040517fb3512b0c00000000000000000000000000000000000000000000000000000000815260040160405180910390fd5b80915050919050565b6000604051905090565b600080fd5b600080fd5b600073ffffffffffffffffffffffffffffffffffffffff82169050919050565b600061145482611429565b9050919050565b61146481611449565b811461146f57600080fd5b50565b6000813590506114818161145b565b92915050565b6000806040838503121561149e5761149d61141f565b5b60006114ac85828601611472565b92505060206114bd85828601611472565b9150509250929050565b6000819050919050565b6114da816114c7565b82525050565b60006020820190506114f560008301846114d1565b92915050565b600080fd5b600060208284031215611516576115156114fb565b5b81905092915050565b6000806000606084860312156115385761153761141f565b5b600061154686828701611472565b935050602061155786828701611472565b925050604084013567ffffffffffffffff81111561157857611577611424565b5b61158486828701611500565b9150509250925092565b60007fff0000000000000000000000000000000000000000000000000000000000000082169050919050565b6115c38161158e565b82525050565b600081519050919050565b600082825260208201905092915050565b60005b838110156116035780820151818401526020810190506115e8565b60008484015250505050565b6000601f19601f8301169050919050565b600061162b826115c9565b61163581856115d4565b93506116458185602086016115e5565b61164e8161160f565b840191505092915050565b6000819050919050565b61166c81611659565b82525050565b61167b81611449565b82525050565b600081519050919050565b600082825260208201905092915050565b6000819050602082019050919050565b6116b681611659565b82525050565b60006116c883836116ad565b60208301905092915050565b6000602082019050919050565b60006116ec82611681565b6116f6818561168c565b93506117018361169d565b8060005b8381101561173257815161171988826116bc565b9750611724836116d4565b925050600181019050611705565b5085935050505092915050565b600060e082019050611754600083018a6115ba565b81810360208301526117668189611620565b9050818103604083015261177a8188611620565b90506117896060830187611663565b6117966080830186611672565b6117a360a08301856114d1565b81810360c08301526117b581846116e1565b905098975050505050505050565b600080fd5b7f4e487b7100000000000000000000000000000000000000000000000000000000600052604160045260246000fd5b6118008261160f565b810181811067ffffffffffffffff8211171561181f5761181e6117c8565b5b80604052505050565b6000611832611415565b905061183e82826117f7565b919050565b600080fd5b600080fd5b600080fd5b600067ffffffffffffffff82111561186d5761186c6117c8565b5b6118768261160f565b9050602081019050919050565b82818337600083830152505050565b60006118a56118a084611852565b611828565b9050828152602081018484840111156118c1576118c061184d565b5b6118cc848285611883565b509392505050565b600082601f8301126118e9576118e8611848565b5b81356118f9848260208601611892565b91505092915050565b600060208284031215611918576119176117c3565b5b6119226020611828565b9050600082013567ffffffffffffffff81111561194257611941611843565b5b61194e848285016118d4565b60008301525092915050565b60006119663683611902565b9050919050565b600060ff82169050919050565b6119838161196d565b82525050565b600081519050919050565b600082825260208201905092915050565b60006119b082611989565b6119ba8185611994565b93506119ca8185602086016115e5565b6119d38161160f565b840191505092915050565b60006040820190506119f3600083018561197a565b8181036020830152611a0581846119a5565b90509392505050565b6000611a21611a1c84611852565b611828565b905082815260208101848484011115611a3d57611a3c61184d565b5b611a488482856115e5565b509392505050565b600082601f830112611a6557611a64611848565b5b8151611a75848260208601611a0e565b91505092915050565b600060208284031215611a9457611a9361141f565b5b600082015167ffffffffffffffff811115611ab257611ab1611424565b5b611abe84828501611a50565b91505092915050565b60008160601b9050919050565b6000611adf82611ac7565b9050919050565b6000611af182611ad4565b9050919050565b611b09611b0482611449565b611ae6565b82525050565b6000611b1b8285611af8565b601482019150611b2b8284611af8565b6014820191508190509392505050565b6000606082019050611b506000830186611672565b611b5d6020830185611672565b611b6a60408301846114d1565b949350505050565b60006040820190508181036000830152611b8c81856119a5565b9050611b9b602083018461197a565b9392505050565b6000606082019050611bb7600083018661197a565b8181036020830152611bc981856119a5565b90508181036040830152611bdd81846119a5565b9050949350505050565b600063ffffffff82169050919050565b7f4e487b7100000000000000000000000000000000000000000000000000000000600052601160045260246000fd5b6000611c3182611be7565b9150611c3c83611be7565b9250828201905063ffffffff811115611c5857611c57611bf7565b5b92915050565b7f4e487b7100000000000000000000000000000000000000000000000000000000600052602260045260246000fd5b60006002820490506001821680611ca557607f821691505b602082108103611cb857611cb7611c5e565b5b5091905056fea264697066735822122019b0d677df3076f4050a409fb80a70131cd3f5f6b2b0a22d474febbdb781144f64736f6c63430008180033",
  "devdoc": {
    "events": {
      "EIP712DomainChanged()": {
        "details": "MAY be emitted to signal that the domain could have changed."
      }
    },
    "kind": "dev",
    "methods": {
      "eip712Domain()": {
        "details": "See {IERC-5267}."
      }
    },
    "version": 1
  },
  "userdoc": {
    "errors": {
      "SignerNotMessageSender()": [
        {
          "notice": "Emitted when the signer is not the message sender"
        }
      ],
      "SignerNotOwner()": [
        {
          "notice": "Emitted when the signer is not the specified owner"
        }
      ]
    },
    "kind": "user",
    "methods": {},
    "version": 1
  },
  "storageLayout": {
    "storage": [
      {
        "astId": 16568,
        "contract": "contracts/FugaziPoolRegistryFacet.sol:FugaziPoolRegistryFacet",
        "label": "_nameFallback",
        "offset": 0,
        "slot": "0",
        "type": "t_string_storage"
      },
      {
        "astId": 16570,
        "contract": "contracts/FugaziPoolRegistryFacet.sol:FugaziPoolRegistryFacet",
        "label": "_versionFallback",
        "offset": 0,
        "slot": "1",
        "type": "t_string_storage"
      },
      {
        "astId": 19991,
        "contract": "contracts/FugaziPoolRegistryFacet.sol:FugaziPoolRegistryFacet",
        "label": "owner",
        "offset": 0,
        "slot": "2",
        "type": "t_address"
      },
      {
        "astId": 19995,
        "contract": "contracts/FugaziPoolRegistryFacet.sol:FugaziPoolRegistryFacet",
        "label": "selectorTofacet",
        "offset": 0,
        "slot": "3",
        "type": "t_mapping(t_bytes4,t_address)"
      },
      {
        "astId": 20027,
        "contract": "contracts/FugaziPoolRegistryFacet.sol:FugaziPoolRegistryFacet",
        "label": "account",
        "offset": 0,
        "slot": "4",
        "type": "t_mapping(t_address,t_struct(accountStruct)20022_storage)"
      },
      {
        "astId": 20113,
        "contract": "contracts/FugaziPoolRegistryFacet.sol:FugaziPoolRegistryFacet",
        "label": "poolIdMapping",
        "offset": 0,
        "slot": "5",
        "type": "t_mapping(t_address,t_mapping(t_address,t_bytes32))"
      },
      {
        "astId": 20118,
        "contract": "contracts/FugaziPoolRegistryFacet.sol:FugaziPoolRegistryFacet",
        "label": "poolState",
        "offset": 0,
        "slot": "6",
        "type": "t_mapping(t_bytes32,t_struct(poolStateStruct)20104_storage)"
      },
      {
        "astId": 20222,
        "contract": "contracts/FugaziPoolRegistryFacet.sol:FugaziPoolRegistryFacet",
        "label": "epochTime",
        "offset": 0,
        "slot": "7",
        "type": "t_uint32"
      }
    ],
    "types": {
      "t_address": {
        "encoding": "inplace",
        "label": "address",
        "numberOfBytes": "20"
      },
      "t_array(t_struct(unclaimedOrderStruct)20012_storage)dyn_storage": {
        "base": "t_struct(unclaimedOrderStruct)20012_storage",
        "encoding": "dynamic_array",
        "label": "struct FugaziStorageLayout.unclaimedOrderStruct[]",
        "numberOfBytes": "32"
      },
      "t_bool": {
        "encoding": "inplace",
        "label": "bool",
        "numberOfBytes": "1"
      },
      "t_bytes32": {
        "encoding": "inplace",
        "label": "bytes32",
        "numberOfBytes": "32"
      },
      "t_bytes4": {
        "encoding": "inplace",
        "label": "bytes4",
        "numberOfBytes": "4"
      },
      "t_mapping(t_address,t_bytes32)": {
        "encoding": "mapping",
        "key": "t_address",
        "label": "mapping(address => bytes32)",
        "numberOfBytes": "32",
        "value": "t_bytes32"
      },
      "t_mapping(t_address,t_mapping(t_address,t_bytes32))": {
        "encoding": "mapping",
        "key": "t_address",
        "label": "mapping(address => mapping(address => bytes32))",
        "numberOfBytes": "32",
        "value": "t_mapping(t_address,t_bytes32)"
      },
      "t_mapping(t_address,t_struct(accountStruct)20022_storage)": {
        "encoding": "mapping",
        "key": "t_address",
        "label": "mapping(address => struct FugaziStorageLayout.accountStruct)",
        "numberOfBytes": "32",
        "value": "t_struct(accountStruct)20022_storage"
      },
      "t_mapping(t_address,t_struct(orderStruct)20212_storage)": {
        "encoding": "mapping",
        "key": "t_address",
        "label": "mapping(address => struct FugaziStorageLayout.orderStruct)",
        "numberOfBytes": "32",
        "value": "t_struct(orderStruct)20212_storage"
      },
      "t_mapping(t_address,t_userDefinedValueType(euint32)12)": {
        "encoding": "mapping",
        "key": "t_address",
        "label": "mapping(address => euint32)",
        "numberOfBytes": "32",
        "value": "t_userDefinedValueType(euint32)12"
      },
      "t_mapping(t_bytes32,t_struct(poolStateStruct)20104_storage)": {
        "encoding": "mapping",
        "key": "t_bytes32",
        "label": "mapping(bytes32 => struct FugaziStorageLayout.poolStateStruct)",
        "numberOfBytes": "32",
        "value": "t_struct(poolStateStruct)20104_storage"
      },
      "t_mapping(t_bytes4,t_address)": {
        "encoding": "mapping",
        "key": "t_bytes4",
        "label": "mapping(bytes4 => address)",
        "numberOfBytes": "32",
        "value": "t_address"
      },
      "t_mapping(t_uint32,t_struct(batchStruct)20197_storage)": {
        "encoding": "mapping",
        "key": "t_uint32",
        "label": "mapping(uint32 => struct FugaziStorageLayout.batchStruct)",
        "numberOfBytes": "32",
        "value": "t_struct(batchStruct)20197_storage"
      },
      "t_string_storage": {
        "encoding": "bytes",
        "label": "string",
        "numberOfBytes": "32"
      },
      "t_struct(accountStruct)20022_storage": {
        "encoding": "inplace",
        "label": "struct FugaziStorageLayout.accountStruct",
        "members": [
          {
            "astId": 20017,
            "contract": "contracts/FugaziPoolRegistryFacet.sol:FugaziPoolRegistryFacet",
            "label": "balanceOf",
            "offset": 0,
            "slot": "0",
            "type": "t_mapping(t_address,t_userDefinedValueType(euint32)12)"
          },
          {
            "astId": 20021,
            "contract": "contracts/FugaziPoolRegistryFacet.sol:FugaziPoolRegistryFacet",
            "label": "unclaimedOrders",
            "offset": 0,
            "slot": "1",
            "type": "t_array(t_struct(unclaimedOrderStruct)20012_storage)dyn_storage"
          }
        ],
        "numberOfBytes": "64"
      },
      "t_struct(batchStruct)20197_storage": {
        "encoding": "inplace",
        "label": "struct FugaziStorageLayout.batchStruct",
        "members": [
          {
            "astId": 20160,
            "contract": "contracts/FugaziPoolRegistryFacet.sol:FugaziPoolRegistryFacet",
            "label": "order",
            "offset": 0,
            "slot": "0",
            "type": "t_mapping(t_address,t_struct(orderStruct)20212_storage)"
          },
          {
            "astId": 20163,
            "contract": "contracts/FugaziPoolRegistryFacet.sol:FugaziPoolRegistryFacet",
            "label": "reserveX0",
            "offset": 0,
            "slot": "1",
            "type": "t_userDefinedValueType(euint32)12"
          },
          {
            "astId": 20166,
            "contract": "contracts/FugaziPoolRegistryFacet.sol:FugaziPoolRegistryFacet",
            "label": "reserveY0",
            "offset": 0,
            "slot": "2",
            "type": "t_userDefinedValueType(euint32)12"
          },
          {
            "astId": 20169,
            "contract": "contracts/FugaziPoolRegistryFacet.sol:FugaziPoolRegistryFacet",
            "label": "swapX",
            "offset": 0,
            "slot": "3",
            "type": "t_userDefinedValueType(euint32)12"
          },
          {
            "astId": 20172,
            "contract": "contracts/FugaziPoolRegistryFacet.sol:FugaziPoolRegistryFacet",
            "label": "swapY",
            "offset": 0,
            "slot": "4",
            "type": "t_userDefinedValueType(euint32)12"
          },
          {
            "astId": 20175,
            "contract": "contracts/FugaziPoolRegistryFacet.sol:FugaziPoolRegistryFacet",
            "label": "mintX",
            "offset": 0,
            "slot": "5",
            "type": "t_userDefinedValueType(euint32)12"
          },
          {
            "astId": 20178,
            "contract": "contracts/FugaziPoolRegistryFacet.sol:FugaziPoolRegistryFacet",
            "label": "mintY",
            "offset": 0,
            "slot": "6",
            "type": "t_userDefinedValueType(euint32)12"
          },
          {
            "astId": 20181,
            "contract": "contracts/FugaziPoolRegistryFacet.sol:FugaziPoolRegistryFacet",
            "label": "intermidiateValues",
            "offset": 0,
            "slot": "7",
            "type": "t_struct(intermidiateValuesStruct)20219_storage"
          },
          {
            "astId": 20184,
            "contract": "contracts/FugaziPoolRegistryFacet.sol:FugaziPoolRegistryFacet",
            "label": "reserveX1",
            "offset": 0,
            "slot": "9",
            "type": "t_userDefinedValueType(euint32)12"
          },
          {
            "astId": 20187,
            "contract": "contracts/FugaziPoolRegistryFacet.sol:FugaziPoolRegistryFacet",
            "label": "reserveY1",
            "offset": 0,
            "slot": "10",
            "type": "t_userDefinedValueType(euint32)12"
          },
          {
            "astId": 20190,
            "contract": "contracts/FugaziPoolRegistryFacet.sol:FugaziPoolRegistryFacet",
            "label": "outX",
            "offset": 0,
            "slot": "11",
            "type": "t_userDefinedValueType(euint32)12"
          },
          {
            "astId": 20193,
            "contract": "contracts/FugaziPoolRegistryFacet.sol:FugaziPoolRegistryFacet",
            "label": "outY",
            "offset": 0,
            "slot": "12",
            "type": "t_userDefinedValueType(euint32)12"
          },
          {
            "astId": 20196,
            "contract": "contracts/FugaziPoolRegistryFacet.sol:FugaziPoolRegistryFacet",
            "label": "lpIncrement",
            "offset": 0,
            "slot": "13",
            "type": "t_userDefinedValueType(euint32)12"
          }
        ],
        "numberOfBytes": "448"
      },
      "t_struct(intermidiateValuesStruct)20219_storage": {
        "encoding": "inplace",
        "label": "struct FugaziStorageLayout.intermidiateValuesStruct",
        "members": [
          {
            "astId": 20215,
            "contract": "contracts/FugaziPoolRegistryFacet.sol:FugaziPoolRegistryFacet",
            "label": "XForPricing",
            "offset": 0,
            "slot": "0",
            "type": "t_userDefinedValueType(euint32)12"
          },
          {
            "astId": 20218,
            "contract": "contracts/FugaziPoolRegistryFacet.sol:FugaziPoolRegistryFacet",
            "label": "YForPricing",
            "offset": 0,
            "slot": "1",
            "type": "t_userDefinedValueType(euint32)12"
          }
        ],
        "numberOfBytes": "64"
      },
      "t_struct(orderStruct)20212_storage": {
        "encoding": "inplace",
        "label": "struct FugaziStorageLayout.orderStruct",
        "members": [
          {
            "astId": 20200,
            "contract": "contracts/FugaziPoolRegistryFacet.sol:FugaziPoolRegistryFacet",
            "label": "swapX",
            "offset": 0,
            "slot": "0",
            "type": "t_userDefinedValueType(euint32)12"
          },
          {
            "astId": 20203,
            "contract": "contracts/FugaziPoolRegistryFacet.sol:FugaziPoolRegistryFacet",
            "label": "swapY",
            "offset": 0,
            "slot": "1",
            "type": "t_userDefinedValueType(euint32)12"
          },
          {
            "astId": 20206,
            "contract": "contracts/FugaziPoolRegistryFacet.sol:FugaziPoolRegistryFacet",
            "label": "mintX",
            "offset": 0,
            "slot": "2",
            "type": "t_userDefinedValueType(euint32)12"
          },
          {
            "astId": 20209,
            "contract": "contracts/FugaziPoolRegistryFacet.sol:FugaziPoolRegistryFacet",
            "label": "mintY",
            "offset": 0,
            "slot": "3",
            "type": "t_userDefinedValueType(euint32)12"
          },
          {
            "astId": 20211,
            "contract": "contracts/FugaziPoolRegistryFacet.sol:FugaziPoolRegistryFacet",
            "label": "claimed",
            "offset": 0,
            "slot": "4",
            "type": "t_bool"
          }
        ],
        "numberOfBytes": "160"
      },
      "t_struct(poolStateStruct)20104_storage": {
        "encoding": "inplace",
        "label": "struct FugaziStorageLayout.poolStateStruct",
        "members": [
          {
            "astId": 20070,
            "contract": "contracts/FugaziPoolRegistryFacet.sol:FugaziPoolRegistryFacet",
            "label": "tokenX",
            "offset": 0,
            "slot": "0",
            "type": "t_address"
          },
          {
            "astId": 20072,
            "contract": "contracts/FugaziPoolRegistryFacet.sol:FugaziPoolRegistryFacet",
            "label": "tokenY",
            "offset": 0,
            "slot": "1",
            "type": "t_address"
          },
          {
            "astId": 20074,
            "contract": "contracts/FugaziPoolRegistryFacet.sol:FugaziPoolRegistryFacet",
            "label": "epoch",
            "offset": 20,
            "slot": "1",
            "type": "t_uint32"
          },
          {
            "astId": 20076,
            "contract": "contracts/FugaziPoolRegistryFacet.sol:FugaziPoolRegistryFacet",
            "label": "lastSettlement",
            "offset": 24,
            "slot": "1",
            "type": "t_uint32"
          },
          {
            "astId": 20078,
            "contract": "contracts/FugaziPoolRegistryFacet.sol:FugaziPoolRegistryFacet",
            "label": "settlementStep",
            "offset": 28,
            "slot": "1",
            "type": "t_uint32"
          },
          {
            "astId": 20081,
            "contract": "contracts/FugaziPoolRegistryFacet.sol:FugaziPoolRegistryFacet",
            "label": "reserveX",
            "offset": 0,
            "slot": "2",
            "type": "t_userDefinedValueType(euint32)12"
          },
          {
            "astId": 20084,
            "contract": "contracts/FugaziPoolRegistryFacet.sol:FugaziPoolRegistryFacet",
            "label": "reserveY",
            "offset": 0,
            "slot": "3",
            "type": "t_userDefinedValueType(euint32)12"
          },
          {
            "astId": 20087,
            "contract": "contracts/FugaziPoolRegistryFacet.sol:FugaziPoolRegistryFacet",
            "label": "protocolX",
            "offset": 0,
            "slot": "4",
            "type": "t_userDefinedValueType(euint32)12"
          },
          {
            "astId": 20090,
            "contract": "contracts/FugaziPoolRegistryFacet.sol:FugaziPoolRegistryFacet",
            "label": "protocolY",
            "offset": 0,
            "slot": "5",
            "type": "t_userDefinedValueType(euint32)12"
          },
          {
            "astId": 20093,
            "contract": "contracts/FugaziPoolRegistryFacet.sol:FugaziPoolRegistryFacet",
            "label": "lpTotalSupply",
            "offset": 0,
            "slot": "6",
            "type": "t_userDefinedValueType(euint32)12"
          },
          {
            "astId": 20098,
            "contract": "contracts/FugaziPoolRegistryFacet.sol:FugaziPoolRegistryFacet",
            "label": "lpBalanceOf",
            "offset": 0,
            "slot": "7",
            "type": "t_mapping(t_address,t_userDefinedValueType(euint32)12)"
          },
          {
            "astId": 20103,
            "contract": "contracts/FugaziPoolRegistryFacet.sol:FugaziPoolRegistryFacet",
            "label": "batch",
            "offset": 0,
            "slot": "8",
            "type": "t_mapping(t_uint32,t_struct(batchStruct)20197_storage)"
          }
        ],
        "numberOfBytes": "288"
      },
      "t_struct(unclaimedOrderStruct)20012_storage": {
        "encoding": "inplace",
        "label": "struct FugaziStorageLayout.unclaimedOrderStruct",
        "members": [
          {
            "astId": 20009,
            "contract": "contracts/FugaziPoolRegistryFacet.sol:FugaziPoolRegistryFacet",
            "label": "poolId",
            "offset": 0,
            "slot": "0",
            "type": "t_bytes32"
          },
          {
            "astId": 20011,
            "contract": "contracts/FugaziPoolRegistryFacet.sol:FugaziPoolRegistryFacet",
            "label": "epoch",
            "offset": 0,
            "slot": "1",
            "type": "t_uint32"
          }
        ],
        "numberOfBytes": "64"
      },
      "t_uint32": {
        "encoding": "inplace",
        "label": "uint32",
        "numberOfBytes": "4"
      },
      "t_userDefinedValueType(euint32)12": {
        "encoding": "inplace",
        "label": "euint32",
        "numberOfBytes": "32"
      }
    }
  }
}