{
  "address": "0x538C04cd32B199be1c7A88f8eB51E8DbeFEb0131",
  "abi": [
    {
      "inputs": [],
      "stateMutability": "nonpayable",
      "type": "constructor"
    },
    {
      "inputs": [],
      "name": "EpochNotEnded",
      "type": "error"
    },
    {
      "inputs": [],
      "name": "InvalidShortString",
      "type": "error"
    },
    {
      "inputs": [],
      "name": "OrderAlreadyClaimed",
      "type": "error"
    },
    {
      "inputs": [],
      "name": "PoolAlreadyExists",
      "type": "error"
    },
    {
      "inputs": [],
      "name": "PoolNotFound",
      "type": "error"
    },
    {
      "inputs": [],
      "name": "SignerNotMessageSender",
      "type": "error"
    },
    {
      "inputs": [],
      "name": "SignerNotOwner",
      "type": "error"
    },
    {
      "inputs": [
        {
          "internalType": "string",
          "name": "str",
          "type": "string"
        }
      ],
      "name": "StringTooLong",
      "type": "error"
    },
    {
      "inputs": [],
      "name": "noCorrespondingFacet",
      "type": "error"
    },
    {
      "inputs": [],
      "name": "notOwner",
      "type": "error"
    },
    {
      "anonymous": false,
      "inputs": [
        {
          "indexed": false,
          "internalType": "address",
          "name": "recipient",
          "type": "address"
        },
        {
          "indexed": false,
          "internalType": "address",
          "name": "token",
          "type": "address"
        }
      ],
      "name": "Deposit",
      "type": "event"
    },
    {
      "anonymous": false,
      "inputs": [],
      "name": "EIP712DomainChanged",
      "type": "event"
    },
    {
      "anonymous": false,
      "inputs": [
        {
          "indexed": false,
          "internalType": "address",
          "name": "tokenX",
          "type": "address"
        },
        {
          "indexed": false,
          "internalType": "address",
          "name": "tokenY",
          "type": "address"
        },
        {
          "indexed": false,
          "internalType": "bytes32",
          "name": "poolId",
          "type": "bytes32"
        }
      ],
      "name": "PoolCreated",
      "type": "event"
    },
    {
      "anonymous": false,
      "inputs": [
        {
          "indexed": false,
          "internalType": "address",
          "name": "recipient",
          "type": "address"
        },
        {
          "indexed": false,
          "internalType": "address",
          "name": "token",
          "type": "address"
        }
      ],
      "name": "Withdraw",
      "type": "event"
    },
    {
      "anonymous": false,
      "inputs": [
        {
          "indexed": false,
          "internalType": "bytes32",
          "name": "poolId",
          "type": "bytes32"
        },
        {
          "indexed": false,
          "internalType": "uint32",
          "name": "epoch",
          "type": "uint32"
        }
      ],
      "name": "epochSettled",
      "type": "event"
    },
    {
      "stateMutability": "payable",
      "type": "fallback"
    },
    {
      "inputs": [
        {
          "components": [
            {
              "internalType": "address",
              "name": "facet",
              "type": "address"
            },
            {
              "internalType": "bytes4",
              "name": "selector",
              "type": "bytes4"
            }
          ],
          "internalType": "struct FugaziStorageLayout.facetAndSelectorStruct[]",
          "name": "_facetAndSelectors",
          "type": "tuple[]"
        }
      ],
      "name": "addFacet",
      "outputs": [],
      "stateMutability": "nonpayable",
      "type": "function"
    },
    {
      "inputs": [],
      "name": "eip712Domain",
      "outputs": [
        {
          "internalType": "bytes1",
          "name": "fields",
          "type": "bytes1"
        },
        {
          "internalType": "string",
          "name": "name",
          "type": "string"
        },
        {
          "internalType": "string",
          "name": "version",
          "type": "string"
        },
        {
          "internalType": "uint256",
          "name": "chainId",
          "type": "uint256"
        },
        {
          "internalType": "address",
          "name": "verifyingContract",
          "type": "address"
        },
        {
          "internalType": "bytes32",
          "name": "salt",
          "type": "bytes32"
        },
        {
          "internalType": "uint256[]",
          "name": "extensions",
          "type": "uint256[]"
        }
      ],
      "stateMutability": "view",
      "type": "function"
    },
    {
      "stateMutability": "payable",
      "type": "receive"
    }
  ],
  "transactionHash": "0x788b98af81ef9ed13d1b340055b470d7c82f230b9866eabb2c1657ad52cc4778",
  "args": [],
  "numDeployments": 1,
  "solcInputHash": "76b61989406c934bce9bcbcd3942636b",
  "bytecode": "0x610160604052600a600560006101000a81548163ffffffff021916908363ffffffff160217905550603c600860006101000a81548163ffffffff021916908363ffffffff1602179055503480156200005657600080fd5b506040518060400160405280601181526020017f4668656e6978205065726d697373696f6e0000000000000000000000000000008152506040518060400160405280600381526020017f312e300000000000000000000000000000000000000000000000000000000000815250620000d9600083620001ba60201b90919060201c565b6101208181525050620000f7600182620001ba60201b90919060201c565b6101408181525050818051906020012060e08181525050808051906020012061010081815250504660a08181525050620001366200021260201b60201c565b608081815250503073ffffffffffffffffffffffffffffffffffffffff1660c08173ffffffffffffffffffffffffffffffffffffffff1681525050505033600260006101000a81548173ffffffffffffffffffffffffffffffffffffffff021916908373ffffffffffffffffffffffffffffffffffffffff1602179055506200086a565b6000602083511015620001e057620001d8836200026f60201b60201c565b90506200020c565b82620001f283620002dc60201b60201c565b600001908162000203919062000560565b5060ff60001b90505b92915050565b60007f8b73c3c69bb8fe3d512ecc4cf759cc79239f7b179b0ffacaa9a75d522b39400f60e05161010051463060405160200162000254959493929190620006b8565b60405160208183030381529060405280519060200120905090565b600080829050601f81511115620002bf57826040517f305a27a9000000000000000000000000000000000000000000000000000000008152600401620002b69190620007a4565b60405180910390fd5b805181620002cd90620007fa565b60001c1760001b915050919050565b6000819050919050565b600081519050919050565b7f4e487b7100000000000000000000000000000000000000000000000000000000600052604160045260246000fd5b7f4e487b7100000000000000000000000000000000000000000000000000000000600052602260045260246000fd5b600060028204905060018216806200036857607f821691505b6020821081036200037e576200037d62000320565b5b50919050565b60008190508160005260206000209050919050565b60006020601f8301049050919050565b600082821b905092915050565b600060088302620003e87fffffffffffffffffffffffffffffffffffffffffffffffffffffffffffffffff82620003a9565b620003f48683620003a9565b95508019841693508086168417925050509392505050565b6000819050919050565b6000819050919050565b6000620004416200043b62000435846200040c565b62000416565b6200040c565b9050919050565b6000819050919050565b6200045d8362000420565b620004756200046c8262000448565b848454620003b6565b825550505050565b600090565b6200048c6200047d565b6200049981848462000452565b505050565b5b81811015620004c157620004b560008262000482565b6001810190506200049f565b5050565b601f8211156200051057620004da8162000384565b620004e58462000399565b81016020851015620004f5578190505b6200050d620005048562000399565b8301826200049e565b50505b505050565b600082821c905092915050565b6000620005356000198460080262000515565b1980831691505092915050565b600062000550838362000522565b9150826002028217905092915050565b6200056b82620002e6565b67ffffffffffffffff811115620005875762000586620002f1565b5b6200059382546200034f565b620005a0828285620004c5565b600060209050601f831160018114620005d85760008415620005c3578287015190505b620005cf858262000542565b8655506200063f565b601f198416620005e88662000384565b60005b828110156200061257848901518255600182019150602085019450602081019050620005eb565b868310156200063257848901516200062e601f89168262000522565b8355505b6001600288020188555050505b505050505050565b6000819050919050565b6200065c8162000647565b82525050565b6200066d816200040c565b82525050565b600073ffffffffffffffffffffffffffffffffffffffff82169050919050565b6000620006a08262000673565b9050919050565b620006b28162000693565b82525050565b600060a082019050620006cf600083018862000651565b620006de602083018762000651565b620006ed604083018662000651565b620006fc606083018562000662565b6200070b6080830184620006a7565b9695505050505050565b600082825260208201905092915050565b60005b838110156200074657808201518184015260208101905062000729565b60008484015250505050565b6000601f19601f8301169050919050565b60006200077082620002e6565b6200077c818562000715565b93506200078e81856020860162000726565b620007998162000752565b840191505092915050565b60006020820190508181036000830152620007c0818462000763565b905092915050565b600081519050919050565b6000819050602082019050919050565b6000620007f1825162000647565b80915050919050565b60006200080782620007c8565b826200081384620007d3565b90506200082081620007e3565b9250602082101562000863576200085e7fffffffffffffffffffffffffffffffffffffffffffffffffffffffffffffffff83602003600802620003a9565b831692505b5050919050565b60805160a05160c05160e051610100516101205161014051610b7a620008b66000396000610411015260006103d601526000505060005050600050506000505060005050610b7a6000f3fe60806040526004361061002d5760003560e01c806384b0196e14610159578063fbd8f9751461018a57610034565b3661003457005b60006003600080357fffffffff00000000000000000000000000000000000000000000000000000000167bffffffffffffffffffffffffffffffffffffffffffffffffffffffff19167bffffffffffffffffffffffffffffffffffffffffffffffffffffffff1916815260200190815260200160002060009054906101000a900473ffffffffffffffffffffffffffffffffffffffff169050600073ffffffffffffffffffffffffffffffffffffffff168173ffffffffffffffffffffffffffffffffffffffff1603610133576040517ff1e1c20000000000000000000000000000000000000000000000000000000000815260040160405180910390fd5b3660008037600080366000845af43d6000803e8060008114610154573d6000f35b3d6000fd5b34801561016557600080fd5b5061016e6101b3565b60405161018197969594939291906107b3565b60405180910390f35b34801561019657600080fd5b506101b160048036038101906101ac9190610a6c565b61025d565b005b6000606080600080600060606101c76103cd565b6101cf610408565b46306000801b600067ffffffffffffffff8111156101f0576101ef610850565b5b60405190808252806020026020018201604052801561021e5781602001602082028036833780820191505090505b507f0f00000000000000000000000000000000000000000000000000000000000000959493929190965096509650965096509650965090919293949596565b600260009054906101000a900473ffffffffffffffffffffffffffffffffffffffff1673ffffffffffffffffffffffffffffffffffffffff163373ffffffffffffffffffffffffffffffffffffffff16146102e4576040517f251c9d6300000000000000000000000000000000000000000000000000000000815260040160405180910390fd5b60005b81518110156103c95781818151811061030357610302610ab5565b5b6020026020010151600001516003600084848151811061032657610325610ab5565b5b6020026020010151602001517bffffffffffffffffffffffffffffffffffffffffffffffffffffffff19167bffffffffffffffffffffffffffffffffffffffffffffffffffffffff1916815260200190815260200160002060006101000a81548173ffffffffffffffffffffffffffffffffffffffff021916908373ffffffffffffffffffffffffffffffffffffffff16021790555080806001019150506102e7565b5050565b606061040360007f000000000000000000000000000000000000000000000000000000000000000061044390919063ffffffff16565b905090565b606061043e60017f000000000000000000000000000000000000000000000000000000000000000061044390919063ffffffff16565b905090565b606060ff60001b831461046057610459836104f3565b90506104ed565b81805461046c90610b13565b80601f016020809104026020016040519081016040528092919081815260200182805461049890610b13565b80156104e55780601f106104ba576101008083540402835291602001916104e5565b820191906000526020600020905b8154815290600101906020018083116104c857829003601f168201915b505050505090505b92915050565b6060600061050083610567565b90506000602067ffffffffffffffff81111561051f5761051e610850565b5b6040519080825280601f01601f1916602001820160405280156105515781602001600182028036833780820191505090505b5090508181528360208201528092505050919050565b60008060ff8360001c169050601f8111156105ae576040517fb3512b0c00000000000000000000000000000000000000000000000000000000815260040160405180910390fd5b80915050919050565b60007fff0000000000000000000000000000000000000000000000000000000000000082169050919050565b6105ec816105b7565b82525050565b600081519050919050565b600082825260208201905092915050565b60005b8381101561062c578082015181840152602081019050610611565b60008484015250505050565b6000601f19601f8301169050919050565b6000610654826105f2565b61065e81856105fd565b935061066e81856020860161060e565b61067781610638565b840191505092915050565b6000819050919050565b61069581610682565b82525050565b600073ffffffffffffffffffffffffffffffffffffffff82169050919050565b60006106c68261069b565b9050919050565b6106d6816106bb565b82525050565b6000819050919050565b6106ef816106dc565b82525050565b600081519050919050565b600082825260208201905092915050565b6000819050602082019050919050565b61072a81610682565b82525050565b600061073c8383610721565b60208301905092915050565b6000602082019050919050565b6000610760826106f5565b61076a8185610700565b935061077583610711565b8060005b838110156107a657815161078d8882610730565b975061079883610748565b925050600181019050610779565b5085935050505092915050565b600060e0820190506107c8600083018a6105e3565b81810360208301526107da8189610649565b905081810360408301526107ee8188610649565b90506107fd606083018761068c565b61080a60808301866106cd565b61081760a08301856106e6565b81810360c08301526108298184610755565b905098975050505050505050565b6000604051905090565b600080fd5b600080fd5b600080fd5b7f4e487b7100000000000000000000000000000000000000000000000000000000600052604160045260246000fd5b61088882610638565b810181811067ffffffffffffffff821117156108a7576108a6610850565b5b80604052505050565b60006108ba610837565b90506108c6828261087f565b919050565b600067ffffffffffffffff8211156108e6576108e5610850565b5b602082029050602081019050919050565b600080fd5b600080fd5b61090a816106bb565b811461091557600080fd5b50565b60008135905061092781610901565b92915050565b60007fffffffff0000000000000000000000000000000000000000000000000000000082169050919050565b6109628161092d565b811461096d57600080fd5b50565b60008135905061097f81610959565b92915050565b60006040828403121561099b5761099a6108fc565b5b6109a560406108b0565b905060006109b584828501610918565b60008301525060206109c984828501610970565b60208301525092915050565b60006109e86109e3846108cb565b6108b0565b90508083825260208201905060408402830185811115610a0b57610a0a6108f7565b5b835b81811015610a345780610a208882610985565b845260208401935050604081019050610a0d565b5050509392505050565b600082601f830112610a5357610a5261084b565b5b8135610a638482602086016109d5565b91505092915050565b600060208284031215610a8257610a81610841565b5b600082013567ffffffffffffffff811115610aa057610a9f610846565b5b610aac84828501610a3e565b91505092915050565b7f4e487b7100000000000000000000000000000000000000000000000000000000600052603260045260246000fd5b7f4e487b7100000000000000000000000000000000000000000000000000000000600052602260045260246000fd5b60006002820490506001821680610b2b57607f821691505b602082108103610b3e57610b3d610ae4565b5b5091905056fea2646970667358221220fc7d287c3a67a14f901829190251755b7e1af645e830699778da93e68c20ec6364736f6c63430008180033",
  "devdoc": {
    "events": {
      "EIP712DomainChanged()": {
        "details": "MAY be emitted to signal that the domain could have changed."
      }
    },
    "kind": "dev",
    "methods": {
      "eip712Domain()": {
        "details": "See {IERC-5267}."
      }
    },
    "version": 1
  },
  "userdoc": {
    "errors": {
      "SignerNotMessageSender()": [
        {
          "notice": "Emitted when the signer is not the message sender"
        }
      ],
      "SignerNotOwner()": [
        {
          "notice": "Emitted when the signer is not the specified owner"
        }
      ]
    },
    "kind": "user",
    "methods": {},
    "version": 1
  },
  "storageLayout": {
    "storage": [
      {
        "astId": 16568,
        "contract": "contracts/FugaziDiamond.sol:FugaziDiamond",
        "label": "_nameFallback",
        "offset": 0,
        "slot": "0",
        "type": "t_string_storage"
      },
      {
        "astId": 16570,
        "contract": "contracts/FugaziDiamond.sol:FugaziDiamond",
        "label": "_versionFallback",
        "offset": 0,
        "slot": "1",
        "type": "t_string_storage"
      },
      {
        "astId": 19542,
        "contract": "contracts/FugaziDiamond.sol:FugaziDiamond",
        "label": "owner",
        "offset": 0,
        "slot": "2",
        "type": "t_address"
      },
      {
        "astId": 19546,
        "contract": "contracts/FugaziDiamond.sol:FugaziDiamond",
        "label": "selectorTofacet",
        "offset": 0,
        "slot": "3",
        "type": "t_mapping(t_bytes4,t_address)"
      },
      {
        "astId": 19578,
        "contract": "contracts/FugaziDiamond.sol:FugaziDiamond",
        "label": "account",
        "offset": 0,
        "slot": "4",
        "type": "t_mapping(t_address,t_struct(accountStruct)19573_storage)"
      },
      {
        "astId": 19638,
        "contract": "contracts/FugaziDiamond.sol:FugaziDiamond",
        "label": "feeBitShifts",
        "offset": 0,
        "slot": "5",
        "type": "t_uint32"
      },
      {
        "astId": 19644,
        "contract": "contracts/FugaziDiamond.sol:FugaziDiamond",
        "label": "poolIdMapping",
        "offset": 0,
        "slot": "6",
        "type": "t_mapping(t_address,t_mapping(t_address,t_bytes32))"
      },
      {
        "astId": 19649,
        "contract": "contracts/FugaziDiamond.sol:FugaziDiamond",
        "label": "poolState",
        "offset": 0,
        "slot": "7",
        "type": "t_mapping(t_bytes32,t_struct(poolStateStruct)19635_storage)"
      },
      {
        "astId": 19747,
        "contract": "contracts/FugaziDiamond.sol:FugaziDiamond",
        "label": "epochTime",
        "offset": 0,
        "slot": "8",
        "type": "t_uint32"
      }
    ],
    "types": {
      "t_address": {
        "encoding": "inplace",
        "label": "address",
        "numberOfBytes": "20"
      },
      "t_array(t_struct(unclaimedOrderStruct)19563_storage)dyn_storage": {
        "base": "t_struct(unclaimedOrderStruct)19563_storage",
        "encoding": "dynamic_array",
        "label": "struct FugaziStorageLayout.unclaimedOrderStruct[]",
        "numberOfBytes": "32"
      },
      "t_bool": {
        "encoding": "inplace",
        "label": "bool",
        "numberOfBytes": "1"
      },
      "t_bytes32": {
        "encoding": "inplace",
        "label": "bytes32",
        "numberOfBytes": "32"
      },
      "t_bytes4": {
        "encoding": "inplace",
        "label": "bytes4",
        "numberOfBytes": "4"
      },
      "t_mapping(t_address,t_bytes32)": {
        "encoding": "mapping",
        "key": "t_address",
        "label": "mapping(address => bytes32)",
        "numberOfBytes": "32",
        "value": "t_bytes32"
      },
      "t_mapping(t_address,t_mapping(t_address,t_bytes32))": {
        "encoding": "mapping",
        "key": "t_address",
        "label": "mapping(address => mapping(address => bytes32))",
        "numberOfBytes": "32",
        "value": "t_mapping(t_address,t_bytes32)"
      },
      "t_mapping(t_address,t_struct(accountStruct)19573_storage)": {
        "encoding": "mapping",
        "key": "t_address",
        "label": "mapping(address => struct FugaziStorageLayout.accountStruct)",
        "numberOfBytes": "32",
        "value": "t_struct(accountStruct)19573_storage"
      },
      "t_mapping(t_address,t_struct(orderStruct)19737_storage)": {
        "encoding": "mapping",
        "key": "t_address",
        "label": "mapping(address => struct FugaziStorageLayout.orderStruct)",
        "numberOfBytes": "32",
        "value": "t_struct(orderStruct)19737_storage"
      },
      "t_mapping(t_address,t_userDefinedValueType(euint32)12)": {
        "encoding": "mapping",
        "key": "t_address",
        "label": "mapping(address => euint32)",
        "numberOfBytes": "32",
        "value": "t_userDefinedValueType(euint32)12"
      },
      "t_mapping(t_bytes32,t_struct(poolStateStruct)19635_storage)": {
        "encoding": "mapping",
        "key": "t_bytes32",
        "label": "mapping(bytes32 => struct FugaziStorageLayout.poolStateStruct)",
        "numberOfBytes": "32",
        "value": "t_struct(poolStateStruct)19635_storage"
      },
      "t_mapping(t_bytes4,t_address)": {
        "encoding": "mapping",
        "key": "t_bytes4",
        "label": "mapping(bytes4 => address)",
        "numberOfBytes": "32",
        "value": "t_address"
      },
      "t_mapping(t_uint32,t_struct(batchStruct)19722_storage)": {
        "encoding": "mapping",
        "key": "t_uint32",
        "label": "mapping(uint32 => struct FugaziStorageLayout.batchStruct)",
        "numberOfBytes": "32",
        "value": "t_struct(batchStruct)19722_storage"
      },
      "t_string_storage": {
        "encoding": "bytes",
        "label": "string",
        "numberOfBytes": "32"
      },
      "t_struct(accountStruct)19573_storage": {
        "encoding": "inplace",
        "label": "struct FugaziStorageLayout.accountStruct",
        "members": [
          {
            "astId": 19568,
            "contract": "contracts/FugaziDiamond.sol:FugaziDiamond",
            "label": "balanceOf",
            "offset": 0,
            "slot": "0",
            "type": "t_mapping(t_address,t_userDefinedValueType(euint32)12)"
          },
          {
            "astId": 19572,
            "contract": "contracts/FugaziDiamond.sol:FugaziDiamond",
            "label": "unclaimedOrders",
            "offset": 0,
            "slot": "1",
            "type": "t_array(t_struct(unclaimedOrderStruct)19563_storage)dyn_storage"
          }
        ],
        "numberOfBytes": "64"
      },
      "t_struct(batchStruct)19722_storage": {
        "encoding": "inplace",
        "label": "struct FugaziStorageLayout.batchStruct",
        "members": [
          {
            "astId": 19685,
            "contract": "contracts/FugaziDiamond.sol:FugaziDiamond",
            "label": "order",
            "offset": 0,
            "slot": "0",
            "type": "t_mapping(t_address,t_struct(orderStruct)19737_storage)"
          },
          {
            "astId": 19688,
            "contract": "contracts/FugaziDiamond.sol:FugaziDiamond",
            "label": "reserveX0",
            "offset": 0,
            "slot": "1",
            "type": "t_userDefinedValueType(euint32)12"
          },
          {
            "astId": 19691,
            "contract": "contracts/FugaziDiamond.sol:FugaziDiamond",
            "label": "reserveY0",
            "offset": 0,
            "slot": "2",
            "type": "t_userDefinedValueType(euint32)12"
          },
          {
            "astId": 19694,
            "contract": "contracts/FugaziDiamond.sol:FugaziDiamond",
            "label": "swapX",
            "offset": 0,
            "slot": "3",
            "type": "t_userDefinedValueType(euint32)12"
          },
          {
            "astId": 19697,
            "contract": "contracts/FugaziDiamond.sol:FugaziDiamond",
            "label": "swapY",
            "offset": 0,
            "slot": "4",
            "type": "t_userDefinedValueType(euint32)12"
          },
          {
            "astId": 19700,
            "contract": "contracts/FugaziDiamond.sol:FugaziDiamond",
            "label": "mintX",
            "offset": 0,
            "slot": "5",
            "type": "t_userDefinedValueType(euint32)12"
          },
          {
            "astId": 19703,
            "contract": "contracts/FugaziDiamond.sol:FugaziDiamond",
            "label": "mintY",
            "offset": 0,
            "slot": "6",
            "type": "t_userDefinedValueType(euint32)12"
          },
          {
            "astId": 19706,
            "contract": "contracts/FugaziDiamond.sol:FugaziDiamond",
            "label": "intermidiateValues",
            "offset": 0,
            "slot": "7",
            "type": "t_struct(intermidiateValuesStruct)19744_storage"
          },
          {
            "astId": 19709,
            "contract": "contracts/FugaziDiamond.sol:FugaziDiamond",
            "label": "reserveX1",
            "offset": 0,
            "slot": "9",
            "type": "t_userDefinedValueType(euint32)12"
          },
          {
            "astId": 19712,
            "contract": "contracts/FugaziDiamond.sol:FugaziDiamond",
            "label": "reserveY1",
            "offset": 0,
            "slot": "10",
            "type": "t_userDefinedValueType(euint32)12"
          },
          {
            "astId": 19715,
            "contract": "contracts/FugaziDiamond.sol:FugaziDiamond",
            "label": "outX",
            "offset": 0,
            "slot": "11",
            "type": "t_userDefinedValueType(euint32)12"
          },
          {
            "astId": 19718,
            "contract": "contracts/FugaziDiamond.sol:FugaziDiamond",
            "label": "outY",
            "offset": 0,
            "slot": "12",
            "type": "t_userDefinedValueType(euint32)12"
          },
          {
            "astId": 19721,
            "contract": "contracts/FugaziDiamond.sol:FugaziDiamond",
            "label": "lpIncrement",
            "offset": 0,
            "slot": "13",
            "type": "t_userDefinedValueType(euint32)12"
          }
        ],
        "numberOfBytes": "448"
      },
      "t_struct(intermidiateValuesStruct)19744_storage": {
        "encoding": "inplace",
        "label": "struct FugaziStorageLayout.intermidiateValuesStruct",
        "members": [
          {
            "astId": 19740,
            "contract": "contracts/FugaziDiamond.sol:FugaziDiamond",
            "label": "XForPricing",
            "offset": 0,
            "slot": "0",
            "type": "t_userDefinedValueType(euint32)12"
          },
          {
            "astId": 19743,
            "contract": "contracts/FugaziDiamond.sol:FugaziDiamond",
            "label": "YForPricing",
            "offset": 0,
            "slot": "1",
            "type": "t_userDefinedValueType(euint32)12"
          }
        ],
        "numberOfBytes": "64"
      },
      "t_struct(orderStruct)19737_storage": {
        "encoding": "inplace",
        "label": "struct FugaziStorageLayout.orderStruct",
        "members": [
          {
            "astId": 19725,
            "contract": "contracts/FugaziDiamond.sol:FugaziDiamond",
            "label": "swapX",
            "offset": 0,
            "slot": "0",
            "type": "t_userDefinedValueType(euint32)12"
          },
          {
            "astId": 19728,
            "contract": "contracts/FugaziDiamond.sol:FugaziDiamond",
            "label": "swapY",
            "offset": 0,
            "slot": "1",
            "type": "t_userDefinedValueType(euint32)12"
          },
          {
            "astId": 19731,
            "contract": "contracts/FugaziDiamond.sol:FugaziDiamond",
            "label": "mintX",
            "offset": 0,
            "slot": "2",
            "type": "t_userDefinedValueType(euint32)12"
          },
          {
            "astId": 19734,
            "contract": "contracts/FugaziDiamond.sol:FugaziDiamond",
            "label": "mintY",
            "offset": 0,
            "slot": "3",
            "type": "t_userDefinedValueType(euint32)12"
          },
          {
            "astId": 19736,
            "contract": "contracts/FugaziDiamond.sol:FugaziDiamond",
            "label": "claimed",
            "offset": 0,
            "slot": "4",
            "type": "t_bool"
          }
        ],
        "numberOfBytes": "160"
      },
      "t_struct(poolStateStruct)19635_storage": {
        "encoding": "inplace",
        "label": "struct FugaziStorageLayout.poolStateStruct",
        "members": [
          {
            "astId": 19601,
            "contract": "contracts/FugaziDiamond.sol:FugaziDiamond",
            "label": "tokenX",
            "offset": 0,
            "slot": "0",
            "type": "t_address"
          },
          {
            "astId": 19603,
            "contract": "contracts/FugaziDiamond.sol:FugaziDiamond",
            "label": "tokenY",
            "offset": 0,
            "slot": "1",
            "type": "t_address"
          },
          {
            "astId": 19605,
            "contract": "contracts/FugaziDiamond.sol:FugaziDiamond",
            "label": "epoch",
            "offset": 20,
            "slot": "1",
            "type": "t_uint32"
          },
          {
            "astId": 19607,
            "contract": "contracts/FugaziDiamond.sol:FugaziDiamond",
            "label": "lastSettlement",
            "offset": 24,
            "slot": "1",
            "type": "t_uint32"
          },
          {
            "astId": 19609,
            "contract": "contracts/FugaziDiamond.sol:FugaziDiamond",
            "label": "isSettling",
            "offset": 28,
            "slot": "1",
            "type": "t_bool"
          },
          {
            "astId": 19612,
            "contract": "contracts/FugaziDiamond.sol:FugaziDiamond",
            "label": "reserveX",
            "offset": 0,
            "slot": "2",
            "type": "t_userDefinedValueType(euint32)12"
          },
          {
            "astId": 19615,
            "contract": "contracts/FugaziDiamond.sol:FugaziDiamond",
            "label": "reserveY",
            "offset": 0,
            "slot": "3",
            "type": "t_userDefinedValueType(euint32)12"
          },
          {
            "astId": 19618,
            "contract": "contracts/FugaziDiamond.sol:FugaziDiamond",
            "label": "protocolX",
            "offset": 0,
            "slot": "4",
            "type": "t_userDefinedValueType(euint32)12"
          },
          {
            "astId": 19621,
            "contract": "contracts/FugaziDiamond.sol:FugaziDiamond",
            "label": "protocolY",
            "offset": 0,
            "slot": "5",
            "type": "t_userDefinedValueType(euint32)12"
          },
          {
            "astId": 19624,
            "contract": "contracts/FugaziDiamond.sol:FugaziDiamond",
            "label": "lpTotalSupply",
            "offset": 0,
            "slot": "6",
            "type": "t_userDefinedValueType(euint32)12"
          },
          {
            "astId": 19629,
            "contract": "contracts/FugaziDiamond.sol:FugaziDiamond",
            "label": "lpBalanceOf",
            "offset": 0,
            "slot": "7",
            "type": "t_mapping(t_address,t_userDefinedValueType(euint32)12)"
          },
          {
            "astId": 19634,
            "contract": "contracts/FugaziDiamond.sol:FugaziDiamond",
            "label": "batch",
            "offset": 0,
            "slot": "8",
            "type": "t_mapping(t_uint32,t_struct(batchStruct)19722_storage)"
          }
        ],
        "numberOfBytes": "288"
      },
      "t_struct(unclaimedOrderStruct)19563_storage": {
        "encoding": "inplace",
        "label": "struct FugaziStorageLayout.unclaimedOrderStruct",
        "members": [
          {
            "astId": 19560,
            "contract": "contracts/FugaziDiamond.sol:FugaziDiamond",
            "label": "poolId",
            "offset": 0,
            "slot": "0",
            "type": "t_bytes32"
          },
          {
            "astId": 19562,
            "contract": "contracts/FugaziDiamond.sol:FugaziDiamond",
            "label": "epoch",
            "offset": 0,
            "slot": "1",
            "type": "t_uint32"
          }
        ],
        "numberOfBytes": "64"
      },
      "t_uint32": {
        "encoding": "inplace",
        "label": "uint32",
        "numberOfBytes": "4"
      },
      "t_userDefinedValueType(euint32)12": {
        "encoding": "inplace",
        "label": "euint32",
        "numberOfBytes": "32"
      }
    }
  }
}