{
  "address": "0x8Bd42Cf9a14dC0bFDA10f6cBb72eE8cF0cd7DE52",
  "abi": [
    {
      "inputs": [
        {
          "components": [
            {
              "internalType": "bytes",
              "name": "data",
              "type": "bytes"
            }
          ],
          "internalType": "struct inEuint32",
          "name": "_initialSupply",
          "type": "tuple"
        }
      ],
      "stateMutability": "nonpayable",
      "type": "constructor"
    },
    {
      "inputs": [],
      "name": "AllowanceOverflow",
      "type": "error"
    },
    {
      "inputs": [],
      "name": "AllowanceUnderflow",
      "type": "error"
    },
    {
      "inputs": [],
      "name": "ECDSAInvalidSignature",
      "type": "error"
    },
    {
      "inputs": [
        {
          "internalType": "uint256",
          "name": "length",
          "type": "uint256"
        }
      ],
      "name": "ECDSAInvalidSignatureLength",
      "type": "error"
    },
    {
      "inputs": [
        {
          "internalType": "bytes32",
          "name": "s",
          "type": "bytes32"
        }
      ],
      "name": "ECDSAInvalidSignatureS",
      "type": "error"
    },
    {
      "inputs": [
        {
          "internalType": "address",
          "name": "",
          "type": "address"
        }
      ],
      "name": "ERC20InvalidApprover",
      "type": "error"
    },
    {
      "inputs": [
        {
          "internalType": "address",
          "name": "",
          "type": "address"
        }
      ],
      "name": "ERC20InvalidSpender",
      "type": "error"
    },
    {
      "inputs": [],
      "name": "ErrorInsufficientFunds",
      "type": "error"
    },
    {
      "inputs": [],
      "name": "InsufficientAllowance",
      "type": "error"
    },
    {
      "inputs": [],
      "name": "InsufficientBalance",
      "type": "error"
    },
    {
      "inputs": [],
      "name": "InvalidPermit",
      "type": "error"
    },
    {
      "inputs": [],
      "name": "InvalidShortString",
      "type": "error"
    },
    {
      "inputs": [],
      "name": "PermitExpired",
      "type": "error"
    },
    {
      "inputs": [],
      "name": "SignerNotMessageSender",
      "type": "error"
    },
    {
      "inputs": [],
      "name": "SignerNotOwner",
      "type": "error"
    },
    {
      "inputs": [
        {
          "internalType": "string",
          "name": "str",
          "type": "string"
        }
      ],
      "name": "StringTooLong",
      "type": "error"
    },
    {
      "inputs": [],
      "name": "TotalSupplyOverflow",
      "type": "error"
    },
    {
      "anonymous": false,
      "inputs": [
        {
          "indexed": true,
          "internalType": "address",
          "name": "owner",
          "type": "address"
        },
        {
          "indexed": true,
          "internalType": "address",
          "name": "spender",
          "type": "address"
        },
        {
          "indexed": false,
          "internalType": "uint256",
          "name": "amount",
          "type": "uint256"
        }
      ],
      "name": "Approval",
      "type": "event"
    },
    {
      "anonymous": false,
      "inputs": [
        {
          "indexed": true,
          "internalType": "address",
          "name": "owner",
          "type": "address"
        },
        {
          "indexed": true,
          "internalType": "address",
          "name": "spender",
          "type": "address"
        }
      ],
      "name": "ApprovalEncrypted",
      "type": "event"
    },
    {
      "anonymous": false,
      "inputs": [],
      "name": "EIP712DomainChanged",
      "type": "event"
    },
    {
      "anonymous": false,
      "inputs": [
        {
          "indexed": true,
          "internalType": "address",
          "name": "from",
          "type": "address"
        },
        {
          "indexed": true,
          "internalType": "address",
          "name": "to",
          "type": "address"
        },
        {
          "indexed": false,
          "internalType": "uint256",
          "name": "amount",
          "type": "uint256"
        }
      ],
      "name": "Transfer",
      "type": "event"
    },
    {
      "anonymous": false,
      "inputs": [
        {
          "indexed": true,
          "internalType": "address",
          "name": "from",
          "type": "address"
        },
        {
          "indexed": true,
          "internalType": "address",
          "name": "to",
          "type": "address"
        }
      ],
      "name": "TransferEncrypted",
      "type": "event"
    },
    {
      "inputs": [],
      "name": "DOMAIN_SEPARATOR",
      "outputs": [
        {
          "internalType": "bytes32",
          "name": "result",
          "type": "bytes32"
        }
      ],
      "stateMutability": "view",
      "type": "function"
    },
    {
      "inputs": [
        {
          "internalType": "address",
          "name": "owner",
          "type": "address"
        },
        {
          "internalType": "address",
          "name": "spender",
          "type": "address"
        }
      ],
      "name": "allowance",
      "outputs": [
        {
          "internalType": "uint256",
          "name": "result",
          "type": "uint256"
        }
      ],
      "stateMutability": "view",
      "type": "function"
    },
    {
      "inputs": [
        {
          "internalType": "address",
          "name": "spender",
          "type": "address"
        },
        {
          "components": [
            {
              "internalType": "bytes32",
              "name": "publicKey",
              "type": "bytes32"
            },
            {
              "internalType": "bytes",
              "name": "signature",
              "type": "bytes"
            }
          ],
          "internalType": "struct Permission",
          "name": "permission",
          "type": "tuple"
        }
      ],
      "name": "allowanceEncrypted",
      "outputs": [
        {
          "internalType": "string",
          "name": "",
          "type": "string"
        }
      ],
      "stateMutability": "view",
      "type": "function"
    },
    {
      "inputs": [
        {
          "internalType": "address",
          "name": "spender",
          "type": "address"
        },
        {
          "internalType": "uint256",
          "name": "amount",
          "type": "uint256"
        }
      ],
      "name": "approve",
      "outputs": [
        {
          "internalType": "bool",
          "name": "",
          "type": "bool"
        }
      ],
      "stateMutability": "nonpayable",
      "type": "function"
    },
    {
      "inputs": [
        {
          "internalType": "address",
          "name": "spender",
          "type": "address"
        },
        {
          "components": [
            {
              "internalType": "bytes",
              "name": "data",
              "type": "bytes"
            }
          ],
          "internalType": "struct inEuint32",
          "name": "value",
          "type": "tuple"
        }
      ],
      "name": "approveEncrypted",
      "outputs": [
        {
          "internalType": "bool",
          "name": "",
          "type": "bool"
        }
      ],
      "stateMutability": "nonpayable",
      "type": "function"
    },
    {
      "inputs": [
        {
          "internalType": "address",
          "name": "owner",
          "type": "address"
        }
      ],
      "name": "balanceOf",
      "outputs": [
        {
          "internalType": "uint256",
          "name": "result",
          "type": "uint256"
        }
      ],
      "stateMutability": "view",
      "type": "function"
    },
    {
      "inputs": [
        {
          "internalType": "address",
          "name": "account",
          "type": "address"
        },
        {
          "components": [
            {
              "internalType": "bytes32",
              "name": "publicKey",
              "type": "bytes32"
            },
            {
              "internalType": "bytes",
              "name": "signature",
              "type": "bytes"
            }
          ],
          "internalType": "struct Permission",
          "name": "auth",
          "type": "tuple"
        }
      ],
      "name": "balanceOfEncrypted",
      "outputs": [
        {
          "internalType": "string",
          "name": "",
          "type": "string"
        }
      ],
      "stateMutability": "view",
      "type": "function"
    },
    {
      "inputs": [],
      "name": "decimals",
      "outputs": [
        {
          "internalType": "uint8",
          "name": "",
          "type": "uint8"
        }
      ],
      "stateMutability": "pure",
      "type": "function"
    },
    {
      "inputs": [],
      "name": "eip712Domain",
      "outputs": [
        {
          "internalType": "bytes1",
          "name": "fields",
          "type": "bytes1"
        },
        {
          "internalType": "string",
          "name": "name",
          "type": "string"
        },
        {
          "internalType": "string",
          "name": "version",
          "type": "string"
        },
        {
          "internalType": "uint256",
          "name": "chainId",
          "type": "uint256"
        },
        {
          "internalType": "address",
          "name": "verifyingContract",
          "type": "address"
        },
        {
          "internalType": "bytes32",
          "name": "salt",
          "type": "bytes32"
        },
        {
          "internalType": "uint256[]",
          "name": "extensions",
          "type": "uint256[]"
        }
      ],
      "stateMutability": "view",
      "type": "function"
    },
    {
      "inputs": [],
      "name": "name",
      "outputs": [
        {
          "internalType": "string",
          "name": "",
          "type": "string"
        }
      ],
      "stateMutability": "view",
      "type": "function"
    },
    {
      "inputs": [
        {
          "internalType": "address",
          "name": "owner",
          "type": "address"
        }
      ],
      "name": "nonces",
      "outputs": [
        {
          "internalType": "uint256",
          "name": "result",
          "type": "uint256"
        }
      ],
      "stateMutability": "view",
      "type": "function"
    },
    {
      "inputs": [
        {
          "internalType": "address",
          "name": "owner",
          "type": "address"
        },
        {
          "internalType": "address",
          "name": "spender",
          "type": "address"
        },
        {
          "internalType": "uint256",
          "name": "value",
          "type": "uint256"
        },
        {
          "internalType": "uint256",
          "name": "deadline",
          "type": "uint256"
        },
        {
          "internalType": "uint8",
          "name": "v",
          "type": "uint8"
        },
        {
          "internalType": "bytes32",
          "name": "r",
          "type": "bytes32"
        },
        {
          "internalType": "bytes32",
          "name": "s",
          "type": "bytes32"
        }
      ],
      "name": "permit",
      "outputs": [],
      "stateMutability": "nonpayable",
      "type": "function"
    },
    {
      "inputs": [],
      "name": "symbol",
      "outputs": [
        {
          "internalType": "string",
          "name": "",
          "type": "string"
        }
      ],
      "stateMutability": "view",
      "type": "function"
    },
    {
      "inputs": [],
      "name": "totalSupply",
      "outputs": [
        {
          "internalType": "uint256",
          "name": "result",
          "type": "uint256"
        }
      ],
      "stateMutability": "view",
      "type": "function"
    },
    {
      "inputs": [
        {
          "internalType": "address",
          "name": "to",
          "type": "address"
        },
        {
          "internalType": "uint256",
          "name": "amount",
          "type": "uint256"
        }
      ],
      "name": "transfer",
      "outputs": [
        {
          "internalType": "bool",
          "name": "",
          "type": "bool"
        }
      ],
      "stateMutability": "nonpayable",
      "type": "function"
    },
    {
      "inputs": [
        {
          "internalType": "address",
          "name": "to",
          "type": "address"
        },
        {
          "components": [
            {
              "internalType": "bytes",
              "name": "data",
              "type": "bytes"
            }
          ],
          "internalType": "struct inEuint32",
          "name": "encryptedAmount",
          "type": "tuple"
        }
      ],
      "name": "transferEncrypted",
      "outputs": [
        {
          "internalType": "euint32",
          "name": "",
          "type": "uint256"
        }
      ],
      "stateMutability": "nonpayable",
      "type": "function"
    },
    {
      "inputs": [
        {
          "internalType": "address",
          "name": "to",
          "type": "address"
        },
        {
          "internalType": "euint32",
          "name": "amount",
          "type": "uint256"
        }
      ],
      "name": "transferEncrypted",
      "outputs": [
        {
          "internalType": "euint32",
          "name": "",
          "type": "uint256"
        }
      ],
      "stateMutability": "nonpayable",
      "type": "function"
    },
    {
      "inputs": [
        {
          "internalType": "address",
          "name": "from",
          "type": "address"
        },
        {
          "internalType": "address",
          "name": "to",
          "type": "address"
        },
        {
          "internalType": "uint256",
          "name": "amount",
          "type": "uint256"
        }
      ],
      "name": "transferFrom",
      "outputs": [
        {
          "internalType": "bool",
          "name": "",
          "type": "bool"
        }
      ],
      "stateMutability": "nonpayable",
      "type": "function"
    },
    {
      "inputs": [
        {
          "internalType": "address",
          "name": "from",
          "type": "address"
        },
        {
          "internalType": "address",
          "name": "to",
          "type": "address"
        },
        {
          "components": [
            {
              "internalType": "bytes",
              "name": "data",
              "type": "bytes"
            }
          ],
          "internalType": "struct inEuint32",
          "name": "value",
          "type": "tuple"
        }
      ],
      "name": "transferFromEncrypted",
      "outputs": [
        {
          "internalType": "euint32",
          "name": "",
          "type": "uint256"
        }
      ],
      "stateMutability": "nonpayable",
      "type": "function"
    },
    {
      "inputs": [
        {
          "internalType": "address",
          "name": "from",
          "type": "address"
        },
        {
          "internalType": "address",
          "name": "to",
          "type": "address"
        },
        {
          "internalType": "euint32",
          "name": "value",
          "type": "uint256"
        }
      ],
      "name": "transferFromEncrypted",
      "outputs": [
        {
          "internalType": "euint32",
          "name": "",
          "type": "uint256"
        }
      ],
      "stateMutability": "nonpayable",
      "type": "function"
    },
    {
      "inputs": [
        {
          "internalType": "uint32",
          "name": "amount",
          "type": "uint32"
        }
      ],
      "name": "unwrap",
      "outputs": [],
      "stateMutability": "nonpayable",
      "type": "function"
    },
    {
      "inputs": [
        {
          "internalType": "uint32",
          "name": "amount",
          "type": "uint32"
        }
      ],
      "name": "wrap",
      "outputs": [],
      "stateMutability": "nonpayable",
      "type": "function"
    }
  ],
  "transactionHash": "0x4b84adf606eca2037762e2c2cb168fe7bb055a375b3466231373e7ca3d977a10",
  "args": [
    {
      "data": {
        "0": 16,
        "1": 8,
        "2": 0,
        "3": 0,
        "4": 0,
        "5": 0,
        "6": 0,
        "7": 0,
        "8": 64,
        "9": 211,
        "10": 78,
        "11": 155,
        "12": 239,
        "13": 238,
        "14": 88,
        "15": 23,
        "16": 179,
        "17": 66,
        "18": 154,
        "19": 69,
        "20": 77,
        "21": 144,
        "22": 179,
        "23": 61,
        "24": 212,
        "25": 166,
        "26": 254,
        "27": 67,
        "28": 215,
        "29": 42,
        "30": 177,
        "31": 77,
        "32": 192,
        "33": 171,
        "34": 94,
        "35": 212,
        "36": 157,
        "37": 127,
        "38": 109,
        "39": 165,
        "40": 120,
        "41": 34,
        "42": 154,
        "43": 122,
        "44": 140,
        "45": 168,
        "46": 254,
        "47": 180,
        "48": 41,
        "49": 205,
        "50": 49,
        "51": 176,
        "52": 238,
        "53": 221,
        "54": 119,
        "55": 72,
        "56": 8,
        "57": 122,
        "58": 29,
        "59": 198,
        "60": 24,
        "61": 228,
        "62": 218,
        "63": 47,
        "64": 84,
        "65": 11,
        "66": 88,
        "67": 131,
        "68": 217,
        "69": 159,
        "70": 22,
        "71": 237,
        "72": 156,
        "73": 200,
        "74": 233,
        "75": 38,
        "76": 104,
        "77": 68,
        "78": 194,
        "79": 59,
        "80": 192,
        "81": 163,
        "82": 26,
        "83": 205,
        "84": 209,
        "85": 201,
        "86": 24,
        "87": 51,
        "88": 97,
        "89": 50,
        "90": 143,
        "91": 27,
        "92": 158,
        "93": 108,
        "94": 137,
        "95": 191,
        "96": 148,
        "97": 45,
        "98": 207,
        "99": 50,
        "100": 187,
        "101": 246,
        "102": 93,
        "103": 129,
        "104": 54,
        "105": 169,
        "106": 173,
        "107": 81,
        "108": 161,
        "109": 3,
        "110": 171,
        "111": 101,
        "112": 205,
        "113": 94,
        "114": 40,
        "115": 69,
        "116": 159,
        "117": 37,
        "118": 42,
        "119": 161,
        "120": 235,
        "121": 22,
        "122": 91,
        "123": 175,
        "124": 245,
        "125": 145,
        "126": 86,
        "127": 158,
        "128": 215,
        "129": 199,
        "130": 179,
        "131": 91,
        "132": 242,
        "133": 134,
        "134": 84,
        "135": 160,
        "136": 132,
        "137": 62,
        "138": 96,
        "139": 191,
        "140": 121,
        "141": 131,
        "142": 5,
        "143": 228,
        "144": 4,
        "145": 219,
        "146": 171,
        "147": 206,
        "148": 141,
        "149": 16,
        "150": 107,
        "151": 75,
        "152": 165,
        "153": 182,
        "154": 122,
        "155": 120,
        "156": 212,
        "157": 202,
        "158": 244,
        "159": 164,
        "160": 100,
        "161": 191,
        "162": 170,
        "163": 49,
        "164": 49,
        "165": 0,
        "166": 3,
        "167": 120,
        "168": 163,
        "169": 34,
        "170": 141,
        "171": 3,
        "172": 150,
        "173": 145,
        "174": 69,
        "175": 140,
        "176": 116,
        "177": 127,
        "178": 127,
        "179": 4,
        "180": 149,
        "181": 52,
        "182": 137,
        "183": 159,
        "184": 77,
        "185": 174,
        "186": 151,
        "187": 22,
        "188": 102,
        "189": 35,
        "190": 126,
        "191": 38,
        "192": 58,
        "193": 217,
        "194": 203,
        "195": 53,
        "196": 92,
        "197": 82,
        "198": 176,
        "199": 177,
        "200": 107,
        "201": 165,
        "202": 224,
        "203": 183,
        "204": 135,
        "205": 173,
        "206": 34,
        "207": 47,
        "208": 196,
        "209": 168,
        "210": 159,
        "211": 38,
        "212": 177,
        "213": 90,
        "214": 217,
        "215": 238,
        "216": 18,
        "217": 26,
        "218": 61,
        "219": 190,
        "220": 82,
        "221": 247,
        "222": 141,
        "223": 183,
        "224": 155,
        "225": 78,
        "226": 5,
        "227": 224,
        "228": 110,
        "229": 254,
        "230": 187,
        "231": 249,
        "232": 25,
        "233": 231,
        "234": 78,
        "235": 105,
        "236": 207,
        "237": 222,
        "238": 40,
        "239": 189,
        "240": 38,
        "241": 116,
        "242": 175,
        "243": 5,
        "244": 157,
        "245": 208,
        "246": 159,
        "247": 192,
        "248": 75,
        "249": 35,
        "250": 155,
        "251": 46,
        "252": 201,
        "253": 243,
        "254": 176,
        "255": 70,
        "256": 67,
        "257": 11,
        "258": 46,
        "259": 135,
        "260": 154,
        "261": 6,
        "262": 128,
        "263": 152,
        "264": 206,
        "265": 184,
        "266": 115,
        "267": 34,
        "268": 160,
        "269": 6,
        "270": 167,
        "271": 67,
        "272": 50,
        "273": 183,
        "274": 226,
        "275": 135,
        "276": 89,
        "277": 185,
        "278": 222,
        "279": 120,
        "280": 35,
        "281": 117,
        "282": 125,
        "283": 109,
        "284": 192,
        "285": 150,
        "286": 34,
        "287": 180,
        "288": 176,
        "289": 129,
        "290": 185,
        "291": 233,
        "292": 180,
        "293": 77,
        "294": 203,
        "295": 160,
        "296": 87,
        "297": 178,
        "298": 190,
        "299": 236,
        "300": 230,
        "301": 13,
        "302": 143,
        "303": 209,
        "304": 168,
        "305": 196,
        "306": 98,
        "307": 190,
        "308": 253,
        "309": 84,
        "310": 135,
        "311": 32,
        "312": 176,
        "313": 142,
        "314": 171,
        "315": 195,
        "316": 95,
        "317": 208,
        "318": 117,
        "319": 74,
        "320": 50,
        "321": 81,
        "322": 129,
        "323": 169,
        "324": 39,
        "325": 80,
        "326": 153,
        "327": 99,
        "328": 141,
        "329": 169,
        "330": 141,
        "331": 22,
        "332": 243,
        "333": 144,
        "334": 100,
        "335": 28,
        "336": 33,
        "337": 84,
        "338": 3,
        "339": 98,
        "340": 141,
        "341": 42,
        "342": 211,
        "343": 87,
        "344": 78,
        "345": 64,
        "346": 233,
        "347": 103,
        "348": 88,
        "349": 86,
        "350": 100,
        "351": 97,
        "352": 47,
        "353": 155,
        "354": 178,
        "355": 76,
        "356": 40,
        "357": 183,
        "358": 115,
        "359": 237,
        "360": 177,
        "361": 251,
        "362": 170,
        "363": 57,
        "364": 143,
        "365": 79,
        "366": 207,
        "367": 201,
        "368": 205,
        "369": 77,
        "370": 99,
        "371": 226,
        "372": 148,
        "373": 16,
        "374": 193,
        "375": 193,
        "376": 237,
        "377": 161,
        "378": 240,
        "379": 32,
        "380": 49,
        "381": 112,
        "382": 208,
        "383": 228,
        "384": 25,
        "385": 179,
        "386": 195,
        "387": 38,
        "388": 106,
        "389": 70,
        "390": 39,
        "391": 39,
        "392": 143,
        "393": 32,
        "394": 215,
        "395": 253,
        "396": 6,
        "397": 150,
        "398": 147,
        "399": 159,
        "400": 55,
        "401": 247,
        "402": 188,
        "403": 237,
        "404": 176,
        "405": 173,
        "406": 63,
        "407": 139,
        "408": 112,
        "409": 254,
        "410": 174,
        "411": 10,
        "412": 133,
        "413": 155,
        "414": 149,
        "415": 87,
        "416": 221,
        "417": 214,
        "418": 202,
        "419": 149,
        "420": 161,
        "421": 246,
        "422": 212,
        "423": 135,
        "424": 208,
        "425": 205,
        "426": 185,
        "427": 116,
        "428": 15,
        "429": 142,
        "430": 204,
        "431": 86,
        "432": 63,
        "433": 174,
        "434": 0,
        "435": 150,
        "436": 117,
        "437": 107,
        "438": 173,
        "439": 233,
        "440": 54,
        "441": 222,
        "442": 246,
        "443": 253,
        "444": 206,
        "445": 206,
        "446": 218,
        "447": 154,
        "448": 184,
        "449": 187,
        "450": 67,
        "451": 41,
        "452": 220,
        "453": 196,
        "454": 117,
        "455": 48,
        "456": 101,
        "457": 105,
        "458": 158,
        "459": 68,
        "460": 215,
        "461": 68,
        "462": 178,
        "463": 215,
        "464": 4,
        "465": 123,
        "466": 36,
        "467": 22,
        "468": 197,
        "469": 48,
        "470": 123,
        "471": 211,
        "472": 88,
        "473": 147,
        "474": 32,
        "475": 60,
        "476": 60,
        "477": 59,
        "478": 169,
        "479": 36,
        "480": 101,
        "481": 124,
        "482": 158,
        "483": 86,
        "484": 160,
        "485": 204,
        "486": 110,
        "487": 137,
        "488": 130,
        "489": 55,
        "490": 205,
        "491": 165,
        "492": 195,
        "493": 110,
        "494": 58,
        "495": 18,
        "496": 0,
        "497": 31,
        "498": 53,
        "499": 101,
        "500": 29,
        "501": 217,
        "502": 247,
        "503": 185,
        "504": 234,
        "505": 224,
        "506": 240,
        "507": 180,
        "508": 11,
        "509": 232,
        "510": 43,
        "511": 217,
        "512": 232,
        "513": 224,
        "514": 124,
        "515": 14,
        "516": 218,
        "517": 69,
        "518": 143,
        "519": 66,
        "520": 138,
        "521": 172,
        "522": 223,
        "523": 98,
        "524": 45,
        "525": 132,
        "526": 215,
        "527": 232,
        "528": 160,
        "529": 72,
        "530": 180,
        "531": 123,
        "532": 149,
        "533": 241,
        "534": 129,
        "535": 72,
        "536": 142,
        "537": 226,
        "538": 133,
        "539": 104,
        "540": 128,
        "541": 177,
        "542": 164,
        "543": 8,
        "544": 71,
        "545": 121,
        "546": 251,
        "547": 21,
        "548": 20,
        "549": 209,
        "550": 202,
        "551": 34,
        "552": 102,
        "553": 75,
        "554": 184,
        "555": 251,
        "556": 169,
        "557": 244,
        "558": 132,
        "559": 1,
        "560": 52,
        "561": 1,
        "562": 230,
        "563": 84,
        "564": 222,
        "565": 129,
        "566": 57,
        "567": 206,
        "568": 118,
        "569": 0,
        "570": 225,
        "571": 175,
        "572": 151,
        "573": 38,
        "574": 110,
        "575": 12,
        "576": 98,
        "577": 222,
        "578": 155,
        "579": 157,
        "580": 109,
        "581": 52,
        "582": 214,
        "583": 16,
        "584": 74,
        "585": 29,
        "586": 10,
        "587": 189,
        "588": 53,
        "589": 69,
        "590": 235,
        "591": 104,
        "592": 160,
        "593": 239,
        "594": 208,
        "595": 70,
        "596": 222,
        "597": 54,
        "598": 43,
        "599": 211,
        "600": 247,
        "601": 106,
        "602": 224,
        "603": 104,
        "604": 109,
        "605": 31,
        "606": 31,
        "607": 137,
        "608": 6,
        "609": 190,
        "610": 113,
        "611": 33,
        "612": 51,
        "613": 146,
        "614": 86,
        "615": 172,
        "616": 210,
        "617": 87,
        "618": 216,
        "619": 184,
        "620": 195,
        "621": 153,
        "622": 209,
        "623": 56,
        "624": 35,
        "625": 217,
        "626": 13,
        "627": 234,
        "628": 113,
        "629": 109,
        "630": 255,
        "631": 109,
        "632": 249,
        "633": 68,
        "634": 75,
        "635": 142,
        "636": 179,
        "637": 101,
        "638": 107,
        "639": 8,
        "640": 188,
        "641": 175,
        "642": 26,
        "643": 128,
        "644": 224,
        "645": 133,
        "646": 37,
        "647": 246,
        "648": 152,
        "649": 91,
        "650": 185,
        "651": 147,
        "652": 229,
        "653": 65,
        "654": 43,
        "655": 247,
        "656": 147,
        "657": 64,
        "658": 137,
        "659": 44,
        "660": 34,
        "661": 9,
        "662": 187,
        "663": 173,
        "664": 166,
        "665": 249,
        "666": 255,
        "667": 112,
        "668": 33,
        "669": 62,
        "670": 80,
        "671": 159,
        "672": 163,
        "673": 177,
        "674": 211,
        "675": 150,
        "676": 248,
        "677": 79,
        "678": 72,
        "679": 181,
        "680": 213,
        "681": 92,
        "682": 147,
        "683": 29,
        "684": 243,
        "685": 129,
        "686": 198,
        "687": 223,
        "688": 235,
        "689": 231,
        "690": 170,
        "691": 155,
        "692": 41,
        "693": 231,
        "694": 175,
        "695": 155,
        "696": 0,
        "697": 242,
        "698": 54,
        "699": 65,
        "700": 72,
        "701": 171,
        "702": 134,
        "703": 140,
        "704": 64,
        "705": 121,
        "706": 92,
        "707": 169,
        "708": 107,
        "709": 106,
        "710": 195,
        "711": 106,
        "712": 87,
        "713": 19,
        "714": 114,
        "715": 246,
        "716": 199,
        "717": 124,
        "718": 237,
        "719": 175,
        "720": 200,
        "721": 107,
        "722": 49,
        "723": 106,
        "724": 250,
        "725": 107,
        "726": 237,
        "727": 110,
        "728": 211,
        "729": 43,
        "730": 94,
        "731": 210,
        "732": 161,
        "733": 86,
        "734": 195,
        "735": 165,
        "736": 114,
        "737": 220,
        "738": 168,
        "739": 250,
        "740": 161,
        "741": 169,
        "742": 114,
        "743": 33,
        "744": 207,
        "745": 202,
        "746": 232,
        "747": 76,
        "748": 8,
        "749": 209,
        "750": 182,
        "751": 182,
        "752": 40,
        "753": 164,
        "754": 106,
        "755": 22,
        "756": 114,
        "757": 103,
        "758": 191,
        "759": 111,
        "760": 253,
        "761": 164,
        "762": 94,
        "763": 107,
        "764": 126,
        "765": 121,
        "766": 115,
        "767": 195,
        "768": 195,
        "769": 202,
        "770": 42,
        "771": 151,
        "772": 125,
        "773": 53,
        "774": 13,
        "775": 202,
        "776": 99,
        "777": 134,
        "778": 38,
        "779": 26,
        "780": 215,
        "781": 95,
        "782": 194,
        "783": 138,
        "784": 66,
        "785": 20,
        "786": 7,
        "787": 33,
        "788": 228,
        "789": 14,
        "790": 140,
        "791": 81,
        "792": 206,
        "793": 66,
        "794": 40,
        "795": 248,
        "796": 250,
        "797": 178,
        "798": 53,
        "799": 125,
        "800": 79,
        "801": 91,
        "802": 209,
        "803": 74,
        "804": 18,
        "805": 153,
        "806": 185,
        "807": 27,
        "808": 129,
        "809": 179,
        "810": 116,
        "811": 139,
        "812": 183,
        "813": 148,
        "814": 51,
        "815": 237,
        "816": 204,
        "817": 196,
        "818": 42,
        "819": 63,
        "820": 148,
        "821": 64,
        "822": 57,
        "823": 93,
        "824": 251,
        "825": 191,
        "826": 210,
        "827": 182,
        "828": 189,
        "829": 239,
        "830": 167,
        "831": 228,
        "832": 216,
        "833": 97,
        "834": 121,
        "835": 171,
        "836": 172,
        "837": 157,
        "838": 148,
        "839": 161,
        "840": 130,
        "841": 185,
        "842": 209,
        "843": 208,
        "844": 102,
        "845": 77,
        "846": 176,
        "847": 163,
        "848": 157,
        "849": 91,
        "850": 170,
        "851": 254,
        "852": 75,
        "853": 12,
        "854": 79,
        "855": 180,
        "856": 217,
        "857": 109,
        "858": 225,
        "859": 151,
        "860": 163,
        "861": 125,
        "862": 90,
        "863": 2,
        "864": 124,
        "865": 218,
        "866": 189,
        "867": 200,
        "868": 50,
        "869": 34,
        "870": 95,
        "871": 121,
        "872": 28,
        "873": 73,
        "874": 186,
        "875": 46,
        "876": 87,
        "877": 14,
        "878": 50,
        "879": 90,
        "880": 46,
        "881": 10,
        "882": 22,
        "883": 134,
        "884": 111,
        "885": 122,
        "886": 196,
        "887": 63,
        "888": 149,
        "889": 56,
        "890": 128,
        "891": 215,
        "892": 8,
        "893": 58,
        "894": 207,
        "895": 218,
        "896": 38,
        "897": 78,
        "898": 242,
        "899": 14,
        "900": 252,
        "901": 139,
        "902": 102,
        "903": 7,
        "904": 233,
        "905": 229,
        "906": 7,
        "907": 64,
        "908": 194,
        "909": 150,
        "910": 161,
        "911": 167,
        "912": 166,
        "913": 166,
        "914": 222,
        "915": 198,
        "916": 157,
        "917": 199,
        "918": 161,
        "919": 229,
        "920": 100,
        "921": 184,
        "922": 134,
        "923": 145,
        "924": 185,
        "925": 128,
        "926": 135,
        "927": 78,
        "928": 111,
        "929": 167,
        "930": 151,
        "931": 15,
        "932": 131,
        "933": 168,
        "934": 57,
        "935": 87,
        "936": 192,
        "937": 183,
        "938": 144,
        "939": 82,
        "940": 80,
        "941": 103,
        "942": 207,
        "943": 157,
        "944": 122,
        "945": 212,
        "946": 150,
        "947": 85,
        "948": 209,
        "949": 30,
        "950": 6,
        "951": 61,
        "952": 108,
        "953": 31,
        "954": 250,
        "955": 30,
        "956": 146,
        "957": 47,
        "958": 112,
        "959": 178,
        "960": 229,
        "961": 157,
        "962": 186,
        "963": 77,
        "964": 156,
        "965": 254,
        "966": 202,
        "967": 145,
        "968": 147,
        "969": 104,
        "970": 226,
        "971": 69,
        "972": 88,
        "973": 95,
        "974": 159,
        "975": 69,
        "976": 247,
        "977": 93,
        "978": 10,
        "979": 46,
        "980": 29,
        "981": 143,
        "982": 157,
        "983": 62,
        "984": 96,
        "985": 174,
        "986": 41,
        "987": 89,
        "988": 101,
        "989": 190,
        "990": 142,
        "991": 14,
        "992": 66,
        "993": 61,
        "994": 106,
        "995": 120,
        "996": 119,
        "997": 146,
        "998": 191,
        "999": 50,
        "1000": 229,
        "1001": 171,
        "1002": 98,
        "1003": 65,
        "1004": 101,
        "1005": 196,
        "1006": 175,
        "1007": 232,
        "1008": 180,
        "1009": 108,
        "1010": 80,
        "1011": 90,
        "1012": 106,
        "1013": 52,
        "1014": 14,
        "1015": 103,
        "1016": 193,
        "1017": 56,
        "1018": 237,
        "1019": 252,
        "1020": 194,
        "1021": 54,
        "1022": 0,
        "1023": 37,
        "1024": 1,
        "1025": 168,
        "1026": 243,
        "1027": 149,
        "1028": 222,
        "1029": 117,
        "1030": 15,
        "1031": 177,
        "1032": 63,
        "1033": 65,
        "1034": 107,
        "1035": 45,
        "1036": 216,
        "1037": 228,
        "1038": 254,
        "1039": 73,
        "1040": 150,
        "1041": 226,
        "1042": 200,
        "1043": 43,
        "1044": 194,
        "1045": 39,
        "1046": 102,
        "1047": 93,
        "1048": 194,
        "1049": 200,
        "1050": 8,
        "1051": 72,
        "1052": 91,
        "1053": 41,
        "1054": 24,
        "1055": 142,
        "1056": 36,
        "1057": 197,
        "1058": 40,
        "1059": 162,
        "1060": 244,
        "1061": 111,
        "1062": 136,
        "1063": 150,
        "1064": 123,
        "1065": 213,
        "1066": 66,
        "1067": 162,
        "1068": 152,
        "1069": 133,
        "1070": 32,
        "1071": 41,
        "1072": 244,
        "1073": 29,
        "1074": 176,
        "1075": 79,
        "1076": 236,
        "1077": 181,
        "1078": 119,
        "1079": 17,
        "1080": 138,
        "1081": 69,
        "1082": 186,
        "1083": 115,
        "1084": 149,
        "1085": 17,
        "1086": 95,
        "1087": 23,
        "1088": 183,
        "1089": 208,
        "1090": 178,
        "1091": 99,
        "1092": 3,
        "1093": 61,
        "1094": 186,
        "1095": 22,
        "1096": 246,
        "1097": 208,
        "1098": 129,
        "1099": 227,
        "1100": 165,
        "1101": 196,
        "1102": 15,
        "1103": 5,
        "1104": 153,
        "1105": 28,
        "1106": 45,
        "1107": 21,
        "1108": 63,
        "1109": 65,
        "1110": 3,
        "1111": 186,
        "1112": 140,
        "1113": 35,
        "1114": 254,
        "1115": 65,
        "1116": 91,
        "1117": 60,
        "1118": 89,
        "1119": 84,
        "1120": 146,
        "1121": 122,
        "1122": 43,
        "1123": 48,
        "1124": 177,
        "1125": 93,
        "1126": 35,
        "1127": 236,
        "1128": 16,
        "1129": 179,
        "1130": 218,
        "1131": 138,
        "1132": 224,
        "1133": 7,
        "1134": 238,
        "1135": 159,
        "1136": 63,
        "1137": 5,
        "1138": 88,
        "1139": 31,
        "1140": 191,
        "1141": 104,
        "1142": 151,
        "1143": 14,
        "1144": 19,
        "1145": 147,
        "1146": 72,
        "1147": 68,
        "1148": 14,
        "1149": 194,
        "1150": 50,
        "1151": 235,
        "1152": 104,
        "1153": 124,
        "1154": 35,
        "1155": 61,
        "1156": 35,
        "1157": 71,
        "1158": 240,
        "1159": 163,
        "1160": 42,
        "1161": 246,
        "1162": 191,
        "1163": 172,
        "1164": 157,
        "1165": 15,
        "1166": 173,
        "1167": 68,
        "1168": 216,
        "1169": 188,
        "1170": 53,
        "1171": 182,
        "1172": 159,
        "1173": 163,
        "1174": 184,
        "1175": 63,
        "1176": 26,
        "1177": 101,
        "1178": 57,
        "1179": 221,
        "1180": 238,
        "1181": 39,
        "1182": 33,
        "1183": 230,
        "1184": 41,
        "1185": 1,
        "1186": 203,
        "1187": 163,
        "1188": 231,
        "1189": 155,
        "1190": 96,
        "1191": 123,
        "1192": 210,
        "1193": 124,
        "1194": 107,
        "1195": 47,
        "1196": 104,
        "1197": 88,
        "1198": 206,
        "1199": 30,
        "1200": 75,
        "1201": 115,
        "1202": 241,
        "1203": 133,
        "1204": 159,
        "1205": 218,
        "1206": 125,
        "1207": 24,
        "1208": 207,
        "1209": 105,
        "1210": 113,
        "1211": 66,
        "1212": 166,
        "1213": 202,
        "1214": 70,
        "1215": 134,
        "1216": 151,
        "1217": 135,
        "1218": 169,
        "1219": 94,
        "1220": 105,
        "1221": 30,
        "1222": 188,
        "1223": 77,
        "1224": 134,
        "1225": 45,
        "1226": 160,
        "1227": 249,
        "1228": 1,
        "1229": 197,
        "1230": 119,
        "1231": 89,
        "1232": 57,
        "1233": 56,
        "1234": 93,
        "1235": 140,
        "1236": 242,
        "1237": 118,
        "1238": 101,
        "1239": 126,
        "1240": 102,
        "1241": 184,
        "1242": 28,
        "1243": 103,
        "1244": 55,
        "1245": 228,
        "1246": 125,
        "1247": 155,
        "1248": 211,
        "1249": 166,
        "1250": 229,
        "1251": 140,
        "1252": 162,
        "1253": 92,
        "1254": 192,
        "1255": 221,
        "1256": 156,
        "1257": 215,
        "1258": 41,
        "1259": 249,
        "1260": 255,
        "1261": 107,
        "1262": 39,
        "1263": 82,
        "1264": 169,
        "1265": 254,
        "1266": 209,
        "1267": 92,
        "1268": 104,
        "1269": 62,
        "1270": 72,
        "1271": 46,
        "1272": 112,
        "1273": 157,
        "1274": 11,
        "1275": 221,
        "1276": 237,
        "1277": 253,
        "1278": 242,
        "1279": 167,
        "1280": 132,
        "1281": 181,
        "1282": 129,
        "1283": 28,
        "1284": 226,
        "1285": 176,
        "1286": 98,
        "1287": 192,
        "1288": 107,
        "1289": 234,
        "1290": 141,
        "1291": 121,
        "1292": 57,
        "1293": 73,
        "1294": 16,
        "1295": 156,
        "1296": 116,
        "1297": 46,
        "1298": 208,
        "1299": 95,
        "1300": 155,
        "1301": 136,
        "1302": 84,
        "1303": 105,
        "1304": 22,
        "1305": 201,
        "1306": 213,
        "1307": 144,
        "1308": 13,
        "1309": 94,
        "1310": 63,
        "1311": 71,
        "1312": 249,
        "1313": 120,
        "1314": 241,
        "1315": 73,
        "1316": 98,
        "1317": 10,
        "1318": 80,
        "1319": 149,
        "1320": 105,
        "1321": 43,
        "1322": 139,
        "1323": 166,
        "1324": 229,
        "1325": 186,
        "1326": 22,
        "1327": 117,
        "1328": 26,
        "1329": 105,
        "1330": 206,
        "1331": 63,
        "1332": 173,
        "1333": 206,
        "1334": 18,
        "1335": 60,
        "1336": 21,
        "1337": 79,
        "1338": 144,
        "1339": 94,
        "1340": 65,
        "1341": 113,
        "1342": 45,
        "1343": 0,
        "1344": 200,
        "1345": 95,
        "1346": 48,
        "1347": 227,
        "1348": 130,
        "1349": 103,
        "1350": 160,
        "1351": 249,
        "1352": 253,
        "1353": 107,
        "1354": 181,
        "1355": 255,
        "1356": 79,
        "1357": 101,
        "1358": 110,
        "1359": 75,
        "1360": 161,
        "1361": 240,
        "1362": 37,
        "1363": 52,
        "1364": 210,
        "1365": 219,
        "1366": 103,
        "1367": 162,
        "1368": 235,
        "1369": 106,
        "1370": 68,
        "1371": 250,
        "1372": 17,
        "1373": 88,
        "1374": 143,
        "1375": 30,
        "1376": 69,
        "1377": 113,
        "1378": 208,
        "1379": 159,
        "1380": 152,
        "1381": 255,
        "1382": 126,
        "1383": 89,
        "1384": 51,
        "1385": 130,
        "1386": 245,
        "1387": 98,
        "1388": 131,
        "1389": 99,
        "1390": 70,
        "1391": 147,
        "1392": 165,
        "1393": 221,
        "1394": 85,
        "1395": 48,
        "1396": 165,
        "1397": 166,
        "1398": 49,
        "1399": 101,
        "1400": 242,
        "1401": 164,
        "1402": 81,
        "1403": 119,
        "1404": 113,
        "1405": 186,
        "1406": 19,
        "1407": 200,
        "1408": 39,
        "1409": 9,
        "1410": 231,
        "1411": 20,
        "1412": 195,
        "1413": 124,
        "1414": 64,
        "1415": 0,
        "1416": 224,
        "1417": 136,
        "1418": 192,
        "1419": 43,
        "1420": 203,
        "1421": 206,
        "1422": 48,
        "1423": 166,
        "1424": 124,
        "1425": 253,
        "1426": 194,
        "1427": 57,
        "1428": 253,
        "1429": 160,
        "1430": 113,
        "1431": 226,
        "1432": 83,
        "1433": 57,
        "1434": 117,
        "1435": 9,
        "1436": 80,
        "1437": 173,
        "1438": 50,
        "1439": 239,
        "1440": 110,
        "1441": 38,
        "1442": 131,
        "1443": 59,
        "1444": 26,
        "1445": 43,
        "1446": 3,
        "1447": 7,
        "1448": 35,
        "1449": 152,
        "1450": 137,
        "1451": 25,
        "1452": 167,
        "1453": 133,
        "1454": 35,
        "1455": 167,
        "1456": 127,
        "1457": 209,
        "1458": 214,
        "1459": 149,
        "1460": 248,
        "1461": 6,
        "1462": 106,
        "1463": 80,
        "1464": 247,
        "1465": 86,
        "1466": 95,
        "1467": 15,
        "1468": 206,
        "1469": 84,
        "1470": 127,
        "1471": 205,
        "1472": 231,
        "1473": 27,
        "1474": 11,
        "1475": 82,
        "1476": 51,
        "1477": 105,
        "1478": 75,
        "1479": 30,
        "1480": 209,
        "1481": 160,
        "1482": 95,
        "1483": 223,
        "1484": 248,
        "1485": 253,
        "1486": 65,
        "1487": 161,
        "1488": 190,
        "1489": 232,
        "1490": 166,
        "1491": 8,
        "1492": 171,
        "1493": 120,
        "1494": 229,
        "1495": 147,
        "1496": 89,
        "1497": 100,
        "1498": 171,
        "1499": 206,
        "1500": 124,
        "1501": 218,
        "1502": 98,
        "1503": 68,
        "1504": 219,
        "1505": 246,
        "1506": 16,
        "1507": 82,
        "1508": 197,
        "1509": 149,
        "1510": 115,
        "1511": 13,
        "1512": 7,
        "1513": 209,
        "1514": 210,
        "1515": 130,
        "1516": 86,
        "1517": 96,
        "1518": 0,
        "1519": 30,
        "1520": 103,
        "1521": 190,
        "1522": 80,
        "1523": 250,
        "1524": 90,
        "1525": 98,
        "1526": 62,
        "1527": 115,
        "1528": 94,
        "1529": 78,
        "1530": 77,
        "1531": 107,
        "1532": 171,
        "1533": 136,
        "1534": 230,
        "1535": 228,
        "1536": 92,
        "1537": 45,
        "1538": 172,
        "1539": 7,
        "1540": 220,
        "1541": 239,
        "1542": 155,
        "1543": 34,
        "1544": 112,
        "1545": 231,
        "1546": 202,
        "1547": 185,
        "1548": 102,
        "1549": 1,
        "1550": 60,
        "1551": 98,
        "1552": 64,
        "1553": 253,
        "1554": 236,
        "1555": 157,
        "1556": 62,
        "1557": 30,
        "1558": 229,
        "1559": 21,
        "1560": 255,
        "1561": 25,
        "1562": 102,
        "1563": 106,
        "1564": 227,
        "1565": 147,
        "1566": 226,
        "1567": 81,
        "1568": 79,
        "1569": 67,
        "1570": 56,
        "1571": 122,
        "1572": 114,
        "1573": 27,
        "1574": 115,
        "1575": 82,
        "1576": 76,
        "1577": 37,
        "1578": 139,
        "1579": 63,
        "1580": 188,
        "1581": 1,
        "1582": 34,
        "1583": 171,
        "1584": 254,
        "1585": 114,
        "1586": 33,
        "1587": 239,
        "1588": 40,
        "1589": 99,
        "1590": 21,
        "1591": 244,
        "1592": 128,
        "1593": 187,
        "1594": 247,
        "1595": 247,
        "1596": 248,
        "1597": 128,
        "1598": 52,
        "1599": 67,
        "1600": 253,
        "1601": 164,
        "1602": 253,
        "1603": 131,
        "1604": 128,
        "1605": 238,
        "1606": 20,
        "1607": 137,
        "1608": 51,
        "1609": 254,
        "1610": 134,
        "1611": 42,
        "1612": 42,
        "1613": 130,
        "1614": 166,
        "1615": 208,
        "1616": 218,
        "1617": 253,
        "1618": 26,
        "1619": 117,
        "1620": 165,
        "1621": 197,
        "1622": 107,
        "1623": 54,
        "1624": 254,
        "1625": 175,
        "1626": 65,
        "1627": 173,
        "1628": 181,
        "1629": 21,
        "1630": 185,
        "1631": 140,
        "1632": 139,
        "1633": 141,
        "1634": 205,
        "1635": 207,
        "1636": 30,
        "1637": 214,
        "1638": 147,
        "1639": 205,
        "1640": 47,
        "1641": 39,
        "1642": 54,
        "1643": 51,
        "1644": 76,
        "1645": 143,
        "1646": 98,
        "1647": 234,
        "1648": 16,
        "1649": 156,
        "1650": 115,
        "1651": 97,
        "1652": 241,
        "1653": 237,
        "1654": 72,
        "1655": 47,
        "1656": 131,
        "1657": 218,
        "1658": 211,
        "1659": 229,
        "1660": 155,
        "1661": 79,
        "1662": 153,
        "1663": 172,
        "1664": 137,
        "1665": 246,
        "1666": 22,
        "1667": 147,
        "1668": 203,
        "1669": 164,
        "1670": 139,
        "1671": 111,
        "1672": 103,
        "1673": 30,
        "1674": 240,
        "1675": 217,
        "1676": 3,
        "1677": 1,
        "1678": 96,
        "1679": 101,
        "1680": 5,
        "1681": 177,
        "1682": 79,
        "1683": 222,
        "1684": 125,
        "1685": 97,
        "1686": 140,
        "1687": 45,
        "1688": 161,
        "1689": 66,
        "1690": 137,
        "1691": 84,
        "1692": 173,
        "1693": 40,
        "1694": 209,
        "1695": 86,
        "1696": 28,
        "1697": 189,
        "1698": 48,
        "1699": 66,
        "1700": 172,
        "1701": 234,
        "1702": 165,
        "1703": 113,
        "1704": 22,
        "1705": 67,
        "1706": 152,
        "1707": 125,
        "1708": 4,
        "1709": 82,
        "1710": 35,
        "1711": 56,
        "1712": 197,
        "1713": 119,
        "1714": 116,
        "1715": 191,
        "1716": 88,
        "1717": 44,
        "1718": 156,
        "1719": 21,
        "1720": 86,
        "1721": 55,
        "1722": 52,
        "1723": 15,
        "1724": 101,
        "1725": 25,
        "1726": 1,
        "1727": 218,
        "1728": 88,
        "1729": 231,
        "1730": 239,
        "1731": 146,
        "1732": 251,
        "1733": 88,
        "1734": 123,
        "1735": 69,
        "1736": 67,
        "1737": 148,
        "1738": 175,
        "1739": 82,
        "1740": 29,
        "1741": 231,
        "1742": 82,
        "1743": 169,
        "1744": 184,
        "1745": 162,
        "1746": 45,
        "1747": 233,
        "1748": 18,
        "1749": 93,
        "1750": 51,
        "1751": 5,
        "1752": 68,
        "1753": 160,
        "1754": 1,
        "1755": 241,
        "1756": 214,
        "1757": 58,
        "1758": 185,
        "1759": 14,
        "1760": 216,
        "1761": 247,
        "1762": 108,
        "1763": 121,
        "1764": 18,
        "1765": 17,
        "1766": 202,
        "1767": 8,
        "1768": 148,
        "1769": 67,
        "1770": 217,
        "1771": 72,
        "1772": 251,
        "1773": 45,
        "1774": 240,
        "1775": 189,
        "1776": 26,
        "1777": 21,
        "1778": 138,
        "1779": 136,
        "1780": 171,
        "1781": 69,
        "1782": 74,
        "1783": 194,
        "1784": 60,
        "1785": 239,
        "1786": 21,
        "1787": 75,
        "1788": 99,
        "1789": 202,
        "1790": 186,
        "1791": 239,
        "1792": 209,
        "1793": 165,
        "1794": 96,
        "1795": 177,
        "1796": 236,
        "1797": 150,
        "1798": 167,
        "1799": 87,
        "1800": 105,
        "1801": 55,
        "1802": 26,
        "1803": 247,
        "1804": 97,
        "1805": 36,
        "1806": 210,
        "1807": 29,
        "1808": 74,
        "1809": 26,
        "1810": 79,
        "1811": 181,
        "1812": 35,
        "1813": 99,
        "1814": 203,
        "1815": 126,
        "1816": 201,
        "1817": 240,
        "1818": 173,
        "1819": 14,
        "1820": 192,
        "1821": 41,
        "1822": 150,
        "1823": 84,
        "1824": 14,
        "1825": 240,
        "1826": 61,
        "1827": 72,
        "1828": 68,
        "1829": 178,
        "1830": 197,
        "1831": 121,
        "1832": 104,
        "1833": 148,
        "1834": 221,
        "1835": 67,
        "1836": 33,
        "1837": 178,
        "1838": 179,
        "1839": 127,
        "1840": 130,
        "1841": 172,
        "1842": 70,
        "1843": 149,
        "1844": 179,
        "1845": 178,
        "1846": 89,
        "1847": 123,
        "1848": 104,
        "1849": 126,
        "1850": 239,
        "1851": 226,
        "1852": 212,
        "1853": 43,
        "1854": 222,
        "1855": 101,
        "1856": 36,
        "1857": 231,
        "1858": 185,
        "1859": 152,
        "1860": 117,
        "1861": 73,
        "1862": 86,
        "1863": 159,
        "1864": 150,
        "1865": 135,
        "1866": 127,
        "1867": 94,
        "1868": 196,
        "1869": 65,
        "1870": 47,
        "1871": 251,
        "1872": 216,
        "1873": 198,
        "1874": 33,
        "1875": 143,
        "1876": 187,
        "1877": 15,
        "1878": 25,
        "1879": 57,
        "1880": 87,
        "1881": 230,
        "1882": 199,
        "1883": 81,
        "1884": 240,
        "1885": 129,
        "1886": 192,
        "1887": 178,
        "1888": 174,
        "1889": 22,
        "1890": 242,
        "1891": 45,
        "1892": 150,
        "1893": 249,
        "1894": 58,
        "1895": 231,
        "1896": 204,
        "1897": 133,
        "1898": 160,
        "1899": 0,
        "1900": 36,
        "1901": 204,
        "1902": 122,
        "1903": 127,
        "1904": 189,
        "1905": 114,
        "1906": 28,
        "1907": 108,
        "1908": 151,
        "1909": 36,
        "1910": 61,
        "1911": 1,
        "1912": 89,
        "1913": 40,
        "1914": 192,
        "1915": 170,
        "1916": 74,
        "1917": 232,
        "1918": 143,
        "1919": 223,
        "1920": 43,
        "1921": 160,
        "1922": 196,
        "1923": 107,
        "1924": 196,
        "1925": 83,
        "1926": 26,
        "1927": 162,
        "1928": 186,
        "1929": 196,
        "1930": 136,
        "1931": 242,
        "1932": 68,
        "1933": 120,
        "1934": 112,
        "1935": 236,
        "1936": 220,
        "1937": 132,
        "1938": 206,
        "1939": 213,
        "1940": 51,
        "1941": 68,
        "1942": 173,
        "1943": 100,
        "1944": 244,
        "1945": 177,
        "1946": 17,
        "1947": 191,
        "1948": 218,
        "1949": 24,
        "1950": 180,
        "1951": 85,
        "1952": 34,
        "1953": 204,
        "1954": 238,
        "1955": 145,
        "1956": 123,
        "1957": 174,
        "1958": 201,
        "1959": 254,
        "1960": 28,
        "1961": 194,
        "1962": 219,
        "1963": 92,
        "1964": 230,
        "1965": 202,
        "1966": 11,
        "1967": 167,
        "1968": 230,
        "1969": 15,
        "1970": 200,
        "1971": 96,
        "1972": 218,
        "1973": 243,
        "1974": 117,
        "1975": 22,
        "1976": 140,
        "1977": 213,
        "1978": 116,
        "1979": 210,
        "1980": 92,
        "1981": 69,
        "1982": 52,
        "1983": 195,
        "1984": 127,
        "1985": 198,
        "1986": 176,
        "1987": 85,
        "1988": 178,
        "1989": 103,
        "1990": 213,
        "1991": 85,
        "1992": 169,
        "1993": 6,
        "1994": 42,
        "1995": 212,
        "1996": 2,
        "1997": 94,
        "1998": 19,
        "1999": 72,
        "2000": 151,
        "2001": 203,
        "2002": 24,
        "2003": 238,
        "2004": 166,
        "2005": 167,
        "2006": 209,
        "2007": 225,
        "2008": 43,
        "2009": 230,
        "2010": 82,
        "2011": 3,
        "2012": 117,
        "2013": 31,
        "2014": 165,
        "2015": 36,
        "2016": 55,
        "2017": 19,
        "2018": 127,
        "2019": 74,
        "2020": 41,
        "2021": 135,
        "2022": 134,
        "2023": 198,
        "2024": 212,
        "2025": 77,
        "2026": 29,
        "2027": 171,
        "2028": 108,
        "2029": 176,
        "2030": 16,
        "2031": 193,
        "2032": 239,
        "2033": 218,
        "2034": 64,
        "2035": 184,
        "2036": 171,
        "2037": 76,
        "2038": 146,
        "2039": 13,
        "2040": 109,
        "2041": 114,
        "2042": 241,
        "2043": 164,
        "2044": 158,
        "2045": 112,
        "2046": 175,
        "2047": 126,
        "2048": 88,
        "2049": 178,
        "2050": 127,
        "2051": 199,
        "2052": 140,
        "2053": 206,
        "2054": 202,
        "2055": 198,
        "2056": 28,
        "2057": 55,
        "2058": 255,
        "2059": 2,
        "2060": 80,
        "2061": 10,
        "2062": 157,
        "2063": 147,
        "2064": 115,
        "2065": 112,
        "2066": 44,
        "2067": 221,
        "2068": 18,
        "2069": 241,
        "2070": 142,
        "2071": 202,
        "2072": 231,
        "2073": 241,
        "2074": 139,
        "2075": 204,
        "2076": 148,
        "2077": 60,
        "2078": 153,
        "2079": 5,
        "2080": 221,
        "2081": 181,
        "2082": 235,
        "2083": 110,
        "2084": 105,
        "2085": 200,
        "2086": 207,
        "2087": 222,
        "2088": 180,
        "2089": 101,
        "2090": 128,
        "2091": 222,
        "2092": 229,
        "2093": 192,
        "2094": 50,
        "2095": 188,
        "2096": 42,
        "2097": 125,
        "2098": 132,
        "2099": 100,
        "2100": 7,
        "2101": 145,
        "2102": 209,
        "2103": 54,
        "2104": 78,
        "2105": 19,
        "2106": 167,
        "2107": 64,
        "2108": 164,
        "2109": 158,
        "2110": 46,
        "2111": 167,
        "2112": 69,
        "2113": 86,
        "2114": 155,
        "2115": 179,
        "2116": 195,
        "2117": 152,
        "2118": 33,
        "2119": 198,
        "2120": 177,
        "2121": 245,
        "2122": 72,
        "2123": 34,
        "2124": 94,
        "2125": 81,
        "2126": 243,
        "2127": 228,
        "2128": 247,
        "2129": 220,
        "2130": 225,
        "2131": 201,
        "2132": 189,
        "2133": 49,
        "2134": 106,
        "2135": 79,
        "2136": 217,
        "2137": 20,
        "2138": 88,
        "2139": 4,
        "2140": 111,
        "2141": 42,
        "2142": 170,
        "2143": 54,
        "2144": 76,
        "2145": 225,
        "2146": 175,
        "2147": 154,
        "2148": 129,
        "2149": 70,
        "2150": 59,
        "2151": 217,
        "2152": 59,
        "2153": 173,
        "2154": 202,
        "2155": 191,
        "2156": 246,
        "2157": 6,
        "2158": 18,
        "2159": 224,
        "2160": 221,
        "2161": 235,
        "2162": 111,
        "2163": 116,
        "2164": 37,
        "2165": 233,
        "2166": 108,
        "2167": 42,
        "2168": 164,
        "2169": 84,
        "2170": 109,
        "2171": 138,
        "2172": 70,
        "2173": 6,
        "2174": 198,
        "2175": 9,
        "2176": 208,
        "2177": 209,
        "2178": 126,
        "2179": 141,
        "2180": 119,
        "2181": 92,
        "2182": 196,
        "2183": 94,
        "2184": 190,
        "2185": 208,
        "2186": 60,
        "2187": 74,
        "2188": 248,
        "2189": 78,
        "2190": 17,
        "2191": 161,
        "2192": 95,
        "2193": 205,
        "2194": 209,
        "2195": 20,
        "2196": 146,
        "2197": 84,
        "2198": 174,
        "2199": 105,
        "2200": 69,
        "2201": 20,
        "2202": 240,
        "2203": 37,
        "2204": 230,
        "2205": 127,
        "2206": 144,
        "2207": 60,
        "2208": 148,
        "2209": 152,
        "2210": 84,
        "2211": 167,
        "2212": 51,
        "2213": 201,
        "2214": 133,
        "2215": 98,
        "2216": 41,
        "2217": 116,
        "2218": 108,
        "2219": 224,
        "2220": 213,
        "2221": 112,
        "2222": 232,
        "2223": 201,
        "2224": 232,
        "2225": 79,
        "2226": 38,
        "2227": 134,
        "2228": 48,
        "2229": 191,
        "2230": 229,
        "2231": 199,
        "2232": 142,
        "2233": 143,
        "2234": 86,
        "2235": 74,
        "2236": 251,
        "2237": 154,
        "2238": 186,
        "2239": 142,
        "2240": 142,
        "2241": 140,
        "2242": 108,
        "2243": 243,
        "2244": 114,
        "2245": 127,
        "2246": 179,
        "2247": 135,
        "2248": 141,
        "2249": 210,
        "2250": 173,
        "2251": 63,
        "2252": 52,
        "2253": 14,
        "2254": 149,
        "2255": 184,
        "2256": 136,
        "2257": 163,
        "2258": 86,
        "2259": 2,
        "2260": 16,
        "2261": 102,
        "2262": 64,
        "2263": 201,
        "2264": 202,
        "2265": 27,
        "2266": 15,
        "2267": 31,
        "2268": 130,
        "2269": 204,
        "2270": 17,
        "2271": 199,
        "2272": 250,
        "2273": 243,
        "2274": 210,
        "2275": 190,
        "2276": 50,
        "2277": 250,
        "2278": 146,
        "2279": 22,
        "2280": 248,
        "2281": 155,
        "2282": 237,
        "2283": 30,
        "2284": 56,
        "2285": 238,
        "2286": 242,
        "2287": 231,
        "2288": 72,
        "2289": 238,
        "2290": 185,
        "2291": 27,
        "2292": 161,
        "2293": 141,
        "2294": 236,
        "2295": 48,
        "2296": 36,
        "2297": 139,
        "2298": 123,
        "2299": 228,
        "2300": 93,
        "2301": 224,
        "2302": 208,
        "2303": 136,
        "2304": 157,
        "2305": 152,
        "2306": 127,
        "2307": 76,
        "2308": 11,
        "2309": 231,
        "2310": 175,
        "2311": 184,
        "2312": 123,
        "2313": 170,
        "2314": 242,
        "2315": 142,
        "2316": 79,
        "2317": 12,
        "2318": 7,
        "2319": 12,
        "2320": 178,
        "2321": 88,
        "2322": 187,
        "2323": 26,
        "2324": 52,
        "2325": 49,
        "2326": 151,
        "2327": 86,
        "2328": 248,
        "2329": 9,
        "2330": 181,
        "2331": 5,
        "2332": 143,
        "2333": 64,
        "2334": 108,
        "2335": 101,
        "2336": 52,
        "2337": 132,
        "2338": 55,
        "2339": 187,
        "2340": 68,
        "2341": 136,
        "2342": 156,
        "2343": 41,
        "2344": 182,
        "2345": 67,
        "2346": 22,
        "2347": 76,
        "2348": 139,
        "2349": 148,
        "2350": 68,
        "2351": 172,
        "2352": 0,
        "2353": 31,
        "2354": 187,
        "2355": 37,
        "2356": 1,
        "2357": 152,
        "2358": 128,
        "2359": 113,
        "2360": 159,
        "2361": 152,
        "2362": 128,
        "2363": 164,
        "2364": 193,
        "2365": 251,
        "2366": 51,
        "2367": 51,
        "2368": 67,
        "2369": 239,
        "2370": 98,
        "2371": 31,
        "2372": 108,
        "2373": 250,
        "2374": 168,
        "2375": 96,
        "2376": 134,
        "2377": 234,
        "2378": 250,
        "2379": 88,
        "2380": 126,
        "2381": 79,
        "2382": 246,
        "2383": 150,
        "2384": 141,
        "2385": 153,
        "2386": 187,
        "2387": 153,
        "2388": 89,
        "2389": 238,
        "2390": 216,
        "2391": 82,
        "2392": 49,
        "2393": 125,
        "2394": 153,
        "2395": 235,
        "2396": 150,
        "2397": 80,
        "2398": 240,
        "2399": 89,
        "2400": 231,
        "2401": 8,
        "2402": 72,
        "2403": 241,
        "2404": 25,
        "2405": 49,
        "2406": 197,
        "2407": 107,
        "2408": 154,
        "2409": 248,
        "2410": 37,
        "2411": 44,
        "2412": 58,
        "2413": 194,
        "2414": 59,
        "2415": 17,
        "2416": 133,
        "2417": 109,
        "2418": 0,
        "2419": 29,
        "2420": 247,
        "2421": 72,
        "2422": 78,
        "2423": 112,
        "2424": 146,
        "2425": 157,
        "2426": 230,
        "2427": 244,
        "2428": 166,
        "2429": 179,
        "2430": 133,
        "2431": 179,
        "2432": 142,
        "2433": 218,
        "2434": 95,
        "2435": 171,
        "2436": 255,
        "2437": 133,
        "2438": 107,
        "2439": 89,
        "2440": 32,
        "2441": 69,
        "2442": 14,
        "2443": 56,
        "2444": 221,
        "2445": 52,
        "2446": 43,
        "2447": 25,
        "2448": 160,
        "2449": 10,
        "2450": 37,
        "2451": 188,
        "2452": 123,
        "2453": 229,
        "2454": 178,
        "2455": 99,
        "2456": 84,
        "2457": 200,
        "2458": 47,
        "2459": 29,
        "2460": 7,
        "2461": 212,
        "2462": 27,
        "2463": 12,
        "2464": 135,
        "2465": 49,
        "2466": 85,
        "2467": 114,
        "2468": 221,
        "2469": 244,
        "2470": 80,
        "2471": 48,
        "2472": 0,
        "2473": 18,
        "2474": 181,
        "2475": 252,
        "2476": 63,
        "2477": 155,
        "2478": 121,
        "2479": 207,
        "2480": 179,
        "2481": 94,
        "2482": 19,
        "2483": 130,
        "2484": 246,
        "2485": 181,
        "2486": 64,
        "2487": 166,
        "2488": 78,
        "2489": 41,
        "2490": 31,
        "2491": 88,
        "2492": 163,
        "2493": 176,
        "2494": 154,
        "2495": 195,
        "2496": 84,
        "2497": 156,
        "2498": 61,
        "2499": 193,
        "2500": 79,
        "2501": 151,
        "2502": 84,
        "2503": 124,
        "2504": 237,
        "2505": 171,
        "2506": 138,
        "2507": 100,
        "2508": 0,
        "2509": 159,
        "2510": 48,
        "2511": 50,
        "2512": 138,
        "2513": 108,
        "2514": 178,
        "2515": 125,
        "2516": 124,
        "2517": 9,
        "2518": 53,
        "2519": 218,
        "2520": 64,
        "2521": 55,
        "2522": 87,
        "2523": 220,
        "2524": 249,
        "2525": 240,
        "2526": 128,
        "2527": 180,
        "2528": 32,
        "2529": 70,
        "2530": 96,
        "2531": 130,
        "2532": 191,
        "2533": 26,
        "2534": 56,
        "2535": 246,
        "2536": 210,
        "2537": 91,
        "2538": 46,
        "2539": 196,
        "2540": 94,
        "2541": 100,
        "2542": 148,
        "2543": 70,
        "2544": 229,
        "2545": 3,
        "2546": 17,
        "2547": 190,
        "2548": 140,
        "2549": 129,
        "2550": 68,
        "2551": 36,
        "2552": 157,
        "2553": 93,
        "2554": 64,
        "2555": 85,
        "2556": 238,
        "2557": 160,
        "2558": 237,
        "2559": 101,
        "2560": 190,
        "2561": 137,
        "2562": 16,
        "2563": 236,
        "2564": 189,
        "2565": 62,
        "2566": 5,
        "2567": 68,
        "2568": 138,
        "2569": 221,
        "2570": 130,
        "2571": 125,
        "2572": 115,
        "2573": 96,
        "2574": 13,
        "2575": 250,
        "2576": 17,
        "2577": 106,
        "2578": 217,
        "2579": 81,
        "2580": 198,
        "2581": 166,
        "2582": 93,
        "2583": 231,
        "2584": 2,
        "2585": 178,
        "2586": 255,
        "2587": 113,
        "2588": 204,
        "2589": 186,
        "2590": 255,
        "2591": 104,
        "2592": 221,
        "2593": 219,
        "2594": 17,
        "2595": 21,
        "2596": 219,
        "2597": 38,
        "2598": 169,
        "2599": 222,
        "2600": 228,
        "2601": 235,
        "2602": 43,
        "2603": 90,
        "2604": 191,
        "2605": 71,
        "2606": 215,
        "2607": 7,
        "2608": 248,
        "2609": 242,
        "2610": 27,
        "2611": 117,
        "2612": 168,
        "2613": 133,
        "2614": 58,
        "2615": 92,
        "2616": 92,
        "2617": 53,
        "2618": 76,
        "2619": 82,
        "2620": 61,
        "2621": 80,
        "2622": 45,
        "2623": 251,
        "2624": 64,
        "2625": 62,
        "2626": 156,
        "2627": 238,
        "2628": 92,
        "2629": 52,
        "2630": 175,
        "2631": 134,
        "2632": 70,
        "2633": 157,
        "2634": 59,
        "2635": 164,
        "2636": 27,
        "2637": 204,
        "2638": 172,
        "2639": 74,
        "2640": 68,
        "2641": 189,
        "2642": 184,
        "2643": 179,
        "2644": 10,
        "2645": 107,
        "2646": 194,
        "2647": 209,
        "2648": 147,
        "2649": 47,
        "2650": 71,
        "2651": 172,
        "2652": 144,
        "2653": 113,
        "2654": 155,
        "2655": 209,
        "2656": 216,
        "2657": 168,
        "2658": 41,
        "2659": 10,
        "2660": 187,
        "2661": 203,
        "2662": 182,
        "2663": 39,
        "2664": 74,
        "2665": 73,
        "2666": 105,
        "2667": 157,
        "2668": 23,
        "2669": 1,
        "2670": 182,
        "2671": 82,
        "2672": 41,
        "2673": 143,
        "2674": 89,
        "2675": 211,
        "2676": 45,
        "2677": 104,
        "2678": 230,
        "2679": 147,
        "2680": 30,
        "2681": 121,
        "2682": 40,
        "2683": 81,
        "2684": 88,
        "2685": 107,
        "2686": 163,
        "2687": 120,
        "2688": 205,
        "2689": 76,
        "2690": 128,
        "2691": 229,
        "2692": 173,
        "2693": 211,
        "2694": 136,
        "2695": 240,
        "2696": 158,
        "2697": 246,
        "2698": 228,
        "2699": 14,
        "2700": 103,
        "2701": 209,
        "2702": 190,
        "2703": 58,
        "2704": 119,
        "2705": 104,
        "2706": 32,
        "2707": 143,
        "2708": 254,
        "2709": 45,
        "2710": 64,
        "2711": 51,
        "2712": 66,
        "2713": 248,
        "2714": 179,
        "2715": 240,
        "2716": 182,
        "2717": 212,
        "2718": 202,
        "2719": 61,
        "2720": 45,
        "2721": 2,
        "2722": 219,
        "2723": 147,
        "2724": 237,
        "2725": 7,
        "2726": 116,
        "2727": 24,
        "2728": 125,
        "2729": 178,
        "2730": 151,
        "2731": 55,
        "2732": 224,
        "2733": 171,
        "2734": 14,
        "2735": 75,
        "2736": 50,
        "2737": 64,
        "2738": 182,
        "2739": 219,
        "2740": 20,
        "2741": 84,
        "2742": 229,
        "2743": 117,
        "2744": 4,
        "2745": 35,
        "2746": 50,
        "2747": 202,
        "2748": 180,
        "2749": 143,
        "2750": 119,
        "2751": 16,
        "2752": 46,
        "2753": 219,
        "2754": 214,
        "2755": 7,
        "2756": 253,
        "2757": 172,
        "2758": 57,
        "2759": 5,
        "2760": 87,
        "2761": 244,
        "2762": 160,
        "2763": 240,
        "2764": 240,
        "2765": 211,
        "2766": 14,
        "2767": 201,
        "2768": 125,
        "2769": 100,
        "2770": 200,
        "2771": 49,
        "2772": 188,
        "2773": 100,
        "2774": 180,
        "2775": 64,
        "2776": 128,
        "2777": 26,
        "2778": 3,
        "2779": 93,
        "2780": 58,
        "2781": 83,
        "2782": 93,
        "2783": 160,
        "2784": 32,
        "2785": 112,
        "2786": 216,
        "2787": 87,
        "2788": 61,
        "2789": 255,
        "2790": 218,
        "2791": 78,
        "2792": 112,
        "2793": 129,
        "2794": 3,
        "2795": 92,
        "2796": 245,
        "2797": 36,
        "2798": 21,
        "2799": 230,
        "2800": 205,
        "2801": 25,
        "2802": 83,
        "2803": 87,
        "2804": 28,
        "2805": 115,
        "2806": 219,
        "2807": 117,
        "2808": 230,
        "2809": 214,
        "2810": 143,
        "2811": 48,
        "2812": 30,
        "2813": 66,
        "2814": 205,
        "2815": 26,
        "2816": 28,
        "2817": 216,
        "2818": 116,
        "2819": 145,
        "2820": 56,
        "2821": 208,
        "2822": 48,
        "2823": 118,
        "2824": 20,
        "2825": 205,
        "2826": 39,
        "2827": 84,
        "2828": 93,
        "2829": 106,
        "2830": 133,
        "2831": 167,
        "2832": 252,
        "2833": 143,
        "2834": 49,
        "2835": 166,
        "2836": 244,
        "2837": 180,
        "2838": 14,
        "2839": 42,
        "2840": 44,
        "2841": 219,
        "2842": 248,
        "2843": 209,
        "2844": 88,
        "2845": 168,
        "2846": 13,
        "2847": 76,
        "2848": 35,
        "2849": 179,
        "2850": 201,
        "2851": 184,
        "2852": 192,
        "2853": 51,
        "2854": 79,
        "2855": 74,
        "2856": 152,
        "2857": 166,
        "2858": 132,
        "2859": 43,
        "2860": 142,
        "2861": 13,
        "2862": 126,
        "2863": 225,
        "2864": 18,
        "2865": 92,
        "2866": 68,
        "2867": 128,
        "2868": 212,
        "2869": 35,
        "2870": 93,
        "2871": 211,
        "2872": 225,
        "2873": 139,
        "2874": 13,
        "2875": 231,
        "2876": 19,
        "2877": 252,
        "2878": 58,
        "2879": 52,
        "2880": 75,
        "2881": 201,
        "2882": 244,
        "2883": 69,
        "2884": 190,
        "2885": 123,
        "2886": 245,
        "2887": 178,
        "2888": 148,
        "2889": 225,
        "2890": 210,
        "2891": 206,
        "2892": 55,
        "2893": 66,
        "2894": 126,
        "2895": 244,
        "2896": 216,
        "2897": 182,
        "2898": 63,
        "2899": 100,
        "2900": 226,
        "2901": 109,
        "2902": 203,
        "2903": 116,
        "2904": 61,
        "2905": 208,
        "2906": 132,
        "2907": 91,
        "2908": 4,
        "2909": 130,
        "2910": 247,
        "2911": 45,
        "2912": 106,
        "2913": 80,
        "2914": 3,
        "2915": 212,
        "2916": 77,
        "2917": 98,
        "2918": 155,
        "2919": 67,
        "2920": 215,
        "2921": 23,
        "2922": 171,
        "2923": 140,
        "2924": 147,
        "2925": 205,
        "2926": 41,
        "2927": 23,
        "2928": 167,
        "2929": 237,
        "2930": 73,
        "2931": 181,
        "2932": 73,
        "2933": 136,
        "2934": 128,
        "2935": 181,
        "2936": 19,
        "2937": 204,
        "2938": 12,
        "2939": 97,
        "2940": 4,
        "2941": 121,
        "2942": 11,
        "2943": 204,
        "2944": 213,
        "2945": 183,
        "2946": 86,
        "2947": 181,
        "2948": 220,
        "2949": 104,
        "2950": 9,
        "2951": 44,
        "2952": 8,
        "2953": 182,
        "2954": 227,
        "2955": 14,
        "2956": 24,
        "2957": 26,
        "2958": 53,
        "2959": 225,
        "2960": 205,
        "2961": 117,
        "2962": 47,
        "2963": 100,
        "2964": 171,
        "2965": 119,
        "2966": 254,
        "2967": 138,
        "2968": 85,
        "2969": 50,
        "2970": 101,
        "2971": 135,
        "2972": 162,
        "2973": 93,
        "2974": 165,
        "2975": 168,
        "2976": 188,
        "2977": 21,
        "2978": 186,
        "2979": 32,
        "2980": 175,
        "2981": 25,
        "2982": 100,
        "2983": 157,
        "2984": 50,
        "2985": 182,
        "2986": 35,
        "2987": 26,
        "2988": 151,
        "2989": 123,
        "2990": 122,
        "2991": 104,
        "2992": 155,
        "2993": 96,
        "2994": 41,
        "2995": 28,
        "2996": 221,
        "2997": 164,
        "2998": 162,
        "2999": 144,
        "3000": 143,
        "3001": 40,
        "3002": 208,
        "3003": 207,
        "3004": 56,
        "3005": 125,
        "3006": 67,
        "3007": 113,
        "3008": 28,
        "3009": 193,
        "3010": 183,
        "3011": 125,
        "3012": 61,
        "3013": 247,
        "3014": 34,
        "3015": 93,
        "3016": 114,
        "3017": 65,
        "3018": 239,
        "3019": 15,
        "3020": 15,
        "3021": 254,
        "3022": 121,
        "3023": 1,
        "3024": 106,
        "3025": 194,
        "3026": 248,
        "3027": 231,
        "3028": 108,
        "3029": 63,
        "3030": 233,
        "3031": 177,
        "3032": 23,
        "3033": 234,
        "3034": 140,
        "3035": 157,
        "3036": 229,
        "3037": 130,
        "3038": 72,
        "3039": 144,
        "3040": 62,
        "3041": 81,
        "3042": 132,
        "3043": 40,
        "3044": 5,
        "3045": 147,
        "3046": 28,
        "3047": 157,
        "3048": 65,
        "3049": 54,
        "3050": 208,
        "3051": 80,
        "3052": 10,
        "3053": 173,
        "3054": 251,
        "3055": 10,
        "3056": 242,
        "3057": 207,
        "3058": 254,
        "3059": 177,
        "3060": 172,
        "3061": 28,
        "3062": 94,
        "3063": 72,
        "3064": 68,
        "3065": 17,
        "3066": 16,
        "3067": 239,
        "3068": 206,
        "3069": 117,
        "3070": 34,
        "3071": 128,
        "3072": 192,
        "3073": 123,
        "3074": 36,
        "3075": 250,
        "3076": 204,
        "3077": 3,
        "3078": 30,
        "3079": 118,
        "3080": 121,
        "3081": 148,
        "3082": 128,
        "3083": 73,
        "3084": 222,
        "3085": 38,
        "3086": 64,
        "3087": 120,
        "3088": 103,
        "3089": 98,
        "3090": 51,
        "3091": 145,
        "3092": 34,
        "3093": 17,
        "3094": 159,
        "3095": 88,
        "3096": 213,
        "3097": 142,
        "3098": 49,
        "3099": 73,
        "3100": 171,
        "3101": 99,
        "3102": 140,
        "3103": 72,
        "3104": 1,
        "3105": 200,
        "3106": 226,
        "3107": 4,
        "3108": 14,
        "3109": 43,
        "3110": 175,
        "3111": 92,
        "3112": 117,
        "3113": 7,
        "3114": 186,
        "3115": 235,
        "3116": 32,
        "3117": 151,
        "3118": 114,
        "3119": 112,
        "3120": 255,
        "3121": 107,
        "3122": 225,
        "3123": 198,
        "3124": 199,
        "3125": 180,
        "3126": 61,
        "3127": 108,
        "3128": 140,
        "3129": 201,
        "3130": 17,
        "3131": 147,
        "3132": 65,
        "3133": 229,
        "3134": 128,
        "3135": 49,
        "3136": 220,
        "3137": 148,
        "3138": 11,
        "3139": 231,
        "3140": 130,
        "3141": 92,
        "3142": 34,
        "3143": 94,
        "3144": 213,
        "3145": 162,
        "3146": 14,
        "3147": 48,
        "3148": 214,
        "3149": 239,
        "3150": 94,
        "3151": 71,
        "3152": 19,
        "3153": 38,
        "3154": 196,
        "3155": 17,
        "3156": 97,
        "3157": 111,
        "3158": 0,
        "3159": 63,
        "3160": 218,
        "3161": 119,
        "3162": 188,
        "3163": 105,
        "3164": 226,
        "3165": 187,
        "3166": 215,
        "3167": 110,
        "3168": 14,
        "3169": 18,
        "3170": 85,
        "3171": 192,
        "3172": 64,
        "3173": 124,
        "3174": 107,
        "3175": 138,
        "3176": 82,
        "3177": 183,
        "3178": 133,
        "3179": 119,
        "3180": 1,
        "3181": 142,
        "3182": 28,
        "3183": 207,
        "3184": 135,
        "3185": 37,
        "3186": 24,
        "3187": 201,
        "3188": 245,
        "3189": 19,
        "3190": 203,
        "3191": 149,
        "3192": 38,
        "3193": 239,
        "3194": 118,
        "3195": 128,
        "3196": 178,
        "3197": 143,
        "3198": 16,
        "3199": 89,
        "3200": 29,
        "3201": 203,
        "3202": 175,
        "3203": 126,
        "3204": 144,
        "3205": 5,
        "3206": 30,
        "3207": 68,
        "3208": 225,
        "3209": 6,
        "3210": 89,
        "3211": 245,
        "3212": 150,
        "3213": 48,
        "3214": 155,
        "3215": 238,
        "3216": 239,
        "3217": 77,
        "3218": 234,
        "3219": 235,
        "3220": 89,
        "3221": 129,
        "3222": 133,
        "3223": 142,
        "3224": 20,
        "3225": 230,
        "3226": 44,
        "3227": 106,
        "3228": 212,
        "3229": 198,
        "3230": 220,
        "3231": 103,
        "3232": 51,
        "3233": 133,
        "3234": 62,
        "3235": 110,
        "3236": 133,
        "3237": 224,
        "3238": 5,
        "3239": 97,
        "3240": 42,
        "3241": 155,
        "3242": 221,
        "3243": 176,
        "3244": 3,
        "3245": 187,
        "3246": 163,
        "3247": 222,
        "3248": 59,
        "3249": 16,
        "3250": 85,
        "3251": 254,
        "3252": 13,
        "3253": 217,
        "3254": 174,
        "3255": 100,
        "3256": 254,
        "3257": 213,
        "3258": 137,
        "3259": 230,
        "3260": 138,
        "3261": 189,
        "3262": 128,
        "3263": 110,
        "3264": 76,
        "3265": 91,
        "3266": 105,
        "3267": 163,
        "3268": 74,
        "3269": 128,
        "3270": 32,
        "3271": 148,
        "3272": 38,
        "3273": 192,
        "3274": 159,
        "3275": 114,
        "3276": 196,
        "3277": 32,
        "3278": 163,
        "3279": 110,
        "3280": 12,
        "3281": 8,
        "3282": 252,
        "3283": 121,
        "3284": 157,
        "3285": 28,
        "3286": 75,
        "3287": 219,
        "3288": 164,
        "3289": 246,
        "3290": 254,
        "3291": 252,
        "3292": 70,
        "3293": 171,
        "3294": 34,
        "3295": 59,
        "3296": 12,
        "3297": 92,
        "3298": 243,
        "3299": 234,
        "3300": 214,
        "3301": 209,
        "3302": 2,
        "3303": 8,
        "3304": 69,
        "3305": 245,
        "3306": 105,
        "3307": 17,
        "3308": 10,
        "3309": 100,
        "3310": 174,
        "3311": 235,
        "3312": 71,
        "3313": 46,
        "3314": 242,
        "3315": 133,
        "3316": 61,
        "3317": 108,
        "3318": 20,
        "3319": 247,
        "3320": 78,
        "3321": 15,
        "3322": 64,
        "3323": 246,
        "3324": 149,
        "3325": 154,
        "3326": 205,
        "3327": 170,
        "3328": 190,
        "3329": 114,
        "3330": 155,
        "3331": 91,
        "3332": 236,
        "3333": 68,
        "3334": 80,
        "3335": 98,
        "3336": 70,
        "3337": 136,
        "3338": 191,
        "3339": 17,
        "3340": 111,
        "3341": 162,
        "3342": 131,
        "3343": 107,
        "3344": 226,
        "3345": 186,
        "3346": 115,
        "3347": 81,
        "3348": 198,
        "3349": 6,
        "3350": 39,
        "3351": 215,
        "3352": 217,
        "3353": 198,
        "3354": 149,
        "3355": 96,
        "3356": 106,
        "3357": 244,
        "3358": 67,
        "3359": 0,
        "3360": 71,
        "3361": 30,
        "3362": 159,
        "3363": 44,
        "3364": 235,
        "3365": 192,
        "3366": 107,
        "3367": 215,
        "3368": 33,
        "3369": 57,
        "3370": 65,
        "3371": 45,
        "3372": 63,
        "3373": 98,
        "3374": 8,
        "3375": 169,
        "3376": 140,
        "3377": 29,
        "3378": 49,
        "3379": 117,
        "3380": 207,
        "3381": 28,
        "3382": 172,
        "3383": 94,
        "3384": 183,
        "3385": 60,
        "3386": 149,
        "3387": 22,
        "3388": 185,
        "3389": 121,
        "3390": 30,
        "3391": 229,
        "3392": 169,
        "3393": 0,
        "3394": 236,
        "3395": 115,
        "3396": 33,
        "3397": 162,
        "3398": 208,
        "3399": 215,
        "3400": 126,
        "3401": 44,
        "3402": 153,
        "3403": 218,
        "3404": 249,
        "3405": 68,
        "3406": 246,
        "3407": 160,
        "3408": 254,
        "3409": 49,
        "3410": 142,
        "3411": 179,
        "3412": 239,
        "3413": 233,
        "3414": 32,
        "3415": 193,
        "3416": 149,
        "3417": 21,
        "3418": 216,
        "3419": 216,
        "3420": 116,
        "3421": 240,
        "3422": 213,
        "3423": 43,
        "3424": 220,
        "3425": 87,
        "3426": 250,
        "3427": 145,
        "3428": 184,
        "3429": 223,
        "3430": 8,
        "3431": 17,
        "3432": 119,
        "3433": 215,
        "3434": 238,
        "3435": 193,
        "3436": 45,
        "3437": 49,
        "3438": 64,
        "3439": 20,
        "3440": 13,
        "3441": 129,
        "3442": 2,
        "3443": 240,
        "3444": 50,
        "3445": 129,
        "3446": 109,
        "3447": 255,
        "3448": 64,
        "3449": 143,
        "3450": 131,
        "3451": 249,
        "3452": 18,
        "3453": 154,
        "3454": 207,
        "3455": 247,
        "3456": 40,
        "3457": 209,
        "3458": 151,
        "3459": 10,
        "3460": 118,
        "3461": 252,
        "3462": 11,
        "3463": 14,
        "3464": 199,
        "3465": 205,
        "3466": 48,
        "3467": 72,
        "3468": 58,
        "3469": 222,
        "3470": 98,
        "3471": 80,
        "3472": 104,
        "3473": 233,
        "3474": 240,
        "3475": 180,
        "3476": 112,
        "3477": 21,
        "3478": 8,
        "3479": 173,
        "3480": 80,
        "3481": 96,
        "3482": 97,
        "3483": 45,
        "3484": 174,
        "3485": 188,
        "3486": 238,
        "3487": 232,
        "3488": 49,
        "3489": 239,
        "3490": 208,
        "3491": 242,
        "3492": 53,
        "3493": 167,
        "3494": 63,
        "3495": 15,
        "3496": 50,
        "3497": 221,
        "3498": 198,
        "3499": 245,
        "3500": 59,
        "3501": 5,
        "3502": 254,
        "3503": 32,
        "3504": 61,
        "3505": 174,
        "3506": 164,
        "3507": 241,
        "3508": 157,
        "3509": 215,
        "3510": 233,
        "3511": 106,
        "3512": 132,
        "3513": 20,
        "3514": 244,
        "3515": 208,
        "3516": 19,
        "3517": 20,
        "3518": 241,
        "3519": 197,
        "3520": 236,
        "3521": 198,
        "3522": 23,
        "3523": 102,
        "3524": 11,
        "3525": 138,
        "3526": 166,
        "3527": 225,
        "3528": 246,
        "3529": 2,
        "3530": 112,
        "3531": 221,
        "3532": 245,
        "3533": 236,
        "3534": 173,
        "3535": 121,
        "3536": 205,
        "3537": 138,
        "3538": 184,
        "3539": 164,
        "3540": 18,
        "3541": 159,
        "3542": 162,
        "3543": 247,
        "3544": 164,
        "3545": 14,
        "3546": 129,
        "3547": 155,
        "3548": 106,
        "3549": 218,
        "3550": 151,
        "3551": 33,
        "3552": 186,
        "3553": 108,
        "3554": 175,
        "3555": 233,
        "3556": 78,
        "3557": 160,
        "3558": 228,
        "3559": 209,
        "3560": 152,
        "3561": 19,
        "3562": 187,
        "3563": 15,
        "3564": 29,
        "3565": 145,
        "3566": 211,
        "3567": 120,
        "3568": 219,
        "3569": 69,
        "3570": 91,
        "3571": 12,
        "3572": 150,
        "3573": 202,
        "3574": 135,
        "3575": 237,
        "3576": 170,
        "3577": 196,
        "3578": 235,
        "3579": 102,
        "3580": 161,
        "3581": 169,
        "3582": 112,
        "3583": 2,
        "3584": 27,
        "3585": 85,
        "3586": 125,
        "3587": 179,
        "3588": 14,
        "3589": 130,
        "3590": 241,
        "3591": 45,
        "3592": 83,
        "3593": 105,
        "3594": 1,
        "3595": 168,
        "3596": 217,
        "3597": 192,
        "3598": 130,
        "3599": 147,
        "3600": 127,
        "3601": 168,
        "3602": 118,
        "3603": 245,
        "3604": 115,
        "3605": 66,
        "3606": 203,
        "3607": 38,
        "3608": 167,
        "3609": 203,
        "3610": 72,
        "3611": 254,
        "3612": 178,
        "3613": 82,
        "3614": 82,
        "3615": 159,
        "3616": 91,
        "3617": 110,
        "3618": 68,
        "3619": 21,
        "3620": 227,
        "3621": 36,
        "3622": 3,
        "3623": 208,
        "3624": 250,
        "3625": 120,
        "3626": 56,
        "3627": 199,
        "3628": 230,
        "3629": 135,
        "3630": 70,
        "3631": 127,
        "3632": 16,
        "3633": 58,
        "3634": 126,
        "3635": 224,
        "3636": 77,
        "3637": 233,
        "3638": 68,
        "3639": 19,
        "3640": 94,
        "3641": 166,
        "3642": 186,
        "3643": 171,
        "3644": 172,
        "3645": 222,
        "3646": 90,
        "3647": 146,
        "3648": 190,
        "3649": 176,
        "3650": 182,
        "3651": 214,
        "3652": 28,
        "3653": 37,
        "3654": 138,
        "3655": 83,
        "3656": 84,
        "3657": 139,
        "3658": 16,
        "3659": 55,
        "3660": 150,
        "3661": 51,
        "3662": 177,
        "3663": 39,
        "3664": 46,
        "3665": 223,
        "3666": 165,
        "3667": 22,
        "3668": 219,
        "3669": 1,
        "3670": 34,
        "3671": 148,
        "3672": 52,
        "3673": 251,
        "3674": 133,
        "3675": 11,
        "3676": 104,
        "3677": 138,
        "3678": 37,
        "3679": 144,
        "3680": 180,
        "3681": 186,
        "3682": 219,
        "3683": 53,
        "3684": 204,
        "3685": 120,
        "3686": 17,
        "3687": 242,
        "3688": 14,
        "3689": 185,
        "3690": 216,
        "3691": 224,
        "3692": 14,
        "3693": 174,
        "3694": 85,
        "3695": 184,
        "3696": 98,
        "3697": 215,
        "3698": 69,
        "3699": 75,
        "3700": 59,
        "3701": 230,
        "3702": 1,
        "3703": 200,
        "3704": 255,
        "3705": 169,
        "3706": 167,
        "3707": 69,
        "3708": 184,
        "3709": 207,
        "3710": 204,
        "3711": 251,
        "3712": 59,
        "3713": 121,
        "3714": 197,
        "3715": 78,
        "3716": 175,
        "3717": 99,
        "3718": 48,
        "3719": 31,
        "3720": 103,
        "3721": 196,
        "3722": 147,
        "3723": 95,
        "3724": 76,
        "3725": 220,
        "3726": 3,
        "3727": 213,
        "3728": 190,
        "3729": 236,
        "3730": 134,
        "3731": 83,
        "3732": 118,
        "3733": 217,
        "3734": 199,
        "3735": 97,
        "3736": 177,
        "3737": 187,
        "3738": 45,
        "3739": 171,
        "3740": 33,
        "3741": 136,
        "3742": 33,
        "3743": 62,
        "3744": 42,
        "3745": 33,
        "3746": 170,
        "3747": 85,
        "3748": 58,
        "3749": 188,
        "3750": 193,
        "3751": 76,
        "3752": 70,
        "3753": 61,
        "3754": 179,
        "3755": 147,
        "3756": 227,
        "3757": 7,
        "3758": 179,
        "3759": 145,
        "3760": 61,
        "3761": 13,
        "3762": 37,
        "3763": 117,
        "3764": 11,
        "3765": 43,
        "3766": 49,
        "3767": 80,
        "3768": 39,
        "3769": 231,
        "3770": 2,
        "3771": 159,
        "3772": 48,
        "3773": 215,
        "3774": 193,
        "3775": 29,
        "3776": 165,
        "3777": 42,
        "3778": 70,
        "3779": 194,
        "3780": 94,
        "3781": 209,
        "3782": 63,
        "3783": 100,
        "3784": 248,
        "3785": 216,
        "3786": 254,
        "3787": 227,
        "3788": 163,
        "3789": 168,
        "3790": 236,
        "3791": 250,
        "3792": 126,
        "3793": 148,
        "3794": 201,
        "3795": 62,
        "3796": 200,
        "3797": 221,
        "3798": 24,
        "3799": 96,
        "3800": 12,
        "3801": 226,
        "3802": 240,
        "3803": 242,
        "3804": 31,
        "3805": 170,
        "3806": 57,
        "3807": 129,
        "3808": 15,
        "3809": 23,
        "3810": 18,
        "3811": 233,
        "3812": 120,
        "3813": 32,
        "3814": 229,
        "3815": 246,
        "3816": 90,
        "3817": 166,
        "3818": 250,
        "3819": 212,
        "3820": 67,
        "3821": 65,
        "3822": 217,
        "3823": 142,
        "3824": 21,
        "3825": 160,
        "3826": 5,
        "3827": 121,
        "3828": 209,
        "3829": 181,
        "3830": 234,
        "3831": 45,
        "3832": 101,
        "3833": 99,
        "3834": 13,
        "3835": 102,
        "3836": 162,
        "3837": 28,
        "3838": 62,
        "3839": 222,
        "3840": 115,
        "3841": 223,
        "3842": 154,
        "3843": 33,
        "3844": 153,
        "3845": 74,
        "3846": 126,
        "3847": 209,
        "3848": 219,
        "3849": 80,
        "3850": 101,
        "3851": 184,
        "3852": 70,
        "3853": 150,
        "3854": 53,
        "3855": 32,
        "3856": 82,
        "3857": 47,
        "3858": 157,
        "3859": 32,
        "3860": 137,
        "3861": 97,
        "3862": 92,
        "3863": 154,
        "3864": 167,
        "3865": 52,
        "3866": 125,
        "3867": 100,
        "3868": 108,
        "3869": 223,
        "3870": 137,
        "3871": 77,
        "3872": 27,
        "3873": 45,
        "3874": 59,
        "3875": 26,
        "3876": 182,
        "3877": 144,
        "3878": 202,
        "3879": 86,
        "3880": 158,
        "3881": 126,
        "3882": 153,
        "3883": 28,
        "3884": 128,
        "3885": 80,
        "3886": 9,
        "3887": 185,
        "3888": 41,
        "3889": 74,
        "3890": 161,
        "3891": 92,
        "3892": 5,
        "3893": 111,
        "3894": 249,
        "3895": 150,
        "3896": 57,
        "3897": 243,
        "3898": 5,
        "3899": 28,
        "3900": 35,
        "3901": 69,
        "3902": 37,
        "3903": 127,
        "3904": 79,
        "3905": 231,
        "3906": 115,
        "3907": 35,
        "3908": 71,
        "3909": 58,
        "3910": 126,
        "3911": 150,
        "3912": 108,
        "3913": 219,
        "3914": 97,
        "3915": 130,
        "3916": 183,
        "3917": 222,
        "3918": 251,
        "3919": 204,
        "3920": 126,
        "3921": 46,
        "3922": 89,
        "3923": 183,
        "3924": 74,
        "3925": 29,
        "3926": 119,
        "3927": 252,
        "3928": 149,
        "3929": 168,
        "3930": 142,
        "3931": 241,
        "3932": 82,
        "3933": 88,
        "3934": 186,
        "3935": 105,
        "3936": 191,
        "3937": 220,
        "3938": 140,
        "3939": 175,
        "3940": 249,
        "3941": 172,
        "3942": 180,
        "3943": 230,
        "3944": 45,
        "3945": 49,
        "3946": 216,
        "3947": 132,
        "3948": 231,
        "3949": 166,
        "3950": 92,
        "3951": 44,
        "3952": 174,
        "3953": 241,
        "3954": 196,
        "3955": 85,
        "3956": 146,
        "3957": 255,
        "3958": 125,
        "3959": 181,
        "3960": 45,
        "3961": 41,
        "3962": 10,
        "3963": 223,
        "3964": 95,
        "3965": 131,
        "3966": 132,
        "3967": 181,
        "3968": 249,
        "3969": 74,
        "3970": 122,
        "3971": 205,
        "3972": 205,
        "3973": 169,
        "3974": 230,
        "3975": 183,
        "3976": 114,
        "3977": 229,
        "3978": 141,
        "3979": 224,
        "3980": 206,
        "3981": 188,
        "3982": 77,
        "3983": 27,
        "3984": 48,
        "3985": 79,
        "3986": 207,
        "3987": 45,
        "3988": 90,
        "3989": 34,
        "3990": 91,
        "3991": 231,
        "3992": 154,
        "3993": 225,
        "3994": 189,
        "3995": 237,
        "3996": 86,
        "3997": 27,
        "3998": 191,
        "3999": 73,
        "4000": 72,
        "4001": 35,
        "4002": 145,
        "4003": 235,
        "4004": 111,
        "4005": 115,
        "4006": 84,
        "4007": 2,
        "4008": 19,
        "4009": 235,
        "4010": 22,
        "4011": 82,
        "4012": 182,
        "4013": 175,
        "4014": 207,
        "4015": 74,
        "4016": 171,
        "4017": 163,
        "4018": 122,
        "4019": 196,
        "4020": 36,
        "4021": 108,
        "4022": 23,
        "4023": 136,
        "4024": 1,
        "4025": 80,
        "4026": 111,
        "4027": 44,
        "4028": 112,
        "4029": 149,
        "4030": 204,
        "4031": 195,
        "4032": 233,
        "4033": 101,
        "4034": 20,
        "4035": 43,
        "4036": 2,
        "4037": 74,
        "4038": 89,
        "4039": 25,
        "4040": 238,
        "4041": 125,
        "4042": 167,
        "4043": 95,
        "4044": 55,
        "4045": 193,
        "4046": 186,
        "4047": 35,
        "4048": 96,
        "4049": 233,
        "4050": 127,
        "4051": 110,
        "4052": 9,
        "4053": 184,
        "4054": 202,
        "4055": 208,
        "4056": 135,
        "4057": 68,
        "4058": 228,
        "4059": 84,
        "4060": 67,
        "4061": 241,
        "4062": 121,
        "4063": 1,
        "4064": 201,
        "4065": 99,
        "4066": 175,
        "4067": 212,
        "4068": 229,
        "4069": 148,
        "4070": 230,
        "4071": 29,
        "4072": 126,
        "4073": 87,
        "4074": 207,
        "4075": 67,
        "4076": 102,
        "4077": 196,
        "4078": 236,
        "4079": 248,
        "4080": 251,
        "4081": 226,
        "4082": 107,
        "4083": 239,
        "4084": 251,
        "4085": 51,
        "4086": 39,
        "4087": 114,
        "4088": 218,
        "4089": 225,
        "4090": 222,
        "4091": 216,
        "4092": 68,
        "4093": 189,
        "4094": 66,
        "4095": 31,
        "4096": 136,
        "4097": 222,
        "4098": 222,
        "4099": 248,
        "4100": 63,
        "4101": 38,
        "4102": 58,
        "4103": 175,
        "4104": 136,
        "4105": 196,
        "4106": 188,
        "4107": 85,
        "4108": 122,
        "4109": 70,
        "4110": 29,
        "4111": 163,
        "4112": 6,
        "4113": 173,
        "4114": 140,
        "4115": 166,
        "4116": 129,
        "4117": 52,
        "4118": 214,
        "4119": 92,
        "4120": 181,
        "4121": 203,
        "4122": 251,
        "4123": 128,
        "4124": 10,
        "4125": 157,
        "4126": 11,
        "4127": 106,
        "4128": 227,
        "4129": 174,
        "4130": 202,
        "4131": 241,
        "4132": 0,
        "4133": 126,
        "4134": 168,
        "4135": 34,
        "4136": 163,
        "4137": 148,
        "4138": 153,
        "4139": 115,
        "4140": 173,
        "4141": 16,
        "4142": 122,
        "4143": 116,
        "4144": 150,
        "4145": 92,
        "4146": 227,
        "4147": 245,
        "4148": 241,
        "4149": 218,
        "4150": 211,
        "4151": 86,
        "4152": 78,
        "4153": 43,
        "4154": 81,
        "4155": 40,
        "4156": 54,
        "4157": 219,
        "4158": 185,
        "4159": 69,
        "4160": 232,
        "4161": 151,
        "4162": 82,
        "4163": 190,
        "4164": 88,
        "4165": 75,
        "4166": 75,
        "4167": 47,
        "4168": 115,
        "4169": 72,
        "4170": 14,
        "4171": 224,
        "4172": 40,
        "4173": 182,
        "4174": 83,
        "4175": 147,
        "4176": 43,
        "4177": 214,
        "4178": 108,
        "4179": 105,
        "4180": 180,
        "4181": 205,
        "4182": 21,
        "4183": 253,
        "4184": 182,
        "4185": 252,
        "4186": 58,
        "4187": 135,
        "4188": 169,
        "4189": 41,
        "4190": 78,
        "4191": 173,
        "4192": 56,
        "4193": 93,
        "4194": 165,
        "4195": 55,
        "4196": 248,
        "4197": 121,
        "4198": 195,
        "4199": 67,
        "4200": 184,
        "4201": 168,
        "4202": 137,
        "4203": 35,
        "4204": 243,
        "4205": 24,
        "4206": 194,
        "4207": 70,
        "4208": 103,
        "4209": 70,
        "4210": 41,
        "4211": 233,
        "4212": 167,
        "4213": 118,
        "4214": 211,
        "4215": 68,
        "4216": 93,
        "4217": 82,
        "4218": 24,
        "4219": 93,
        "4220": 99,
        "4221": 31,
        "4222": 209,
        "4223": 246,
        "4224": 224,
        "4225": 248,
        "4226": 62,
        "4227": 76,
        "4228": 219,
        "4229": 116,
        "4230": 153,
        "4231": 139,
        "4232": 84,
        "4233": 85,
        "4234": 36,
        "4235": 245,
        "4236": 59,
        "4237": 206,
        "4238": 231,
        "4239": 240,
        "4240": 255,
        "4241": 90,
        "4242": 37,
        "4243": 81,
        "4244": 4,
        "4245": 9,
        "4246": 142,
        "4247": 128,
        "4248": 160,
        "4249": 10,
        "4250": 102,
        "4251": 139,
        "4252": 12,
        "4253": 168,
        "4254": 48,
        "4255": 115,
        "4256": 172,
        "4257": 35,
        "4258": 27,
        "4259": 219,
        "4260": 125,
        "4261": 218,
        "4262": 245,
        "4263": 50,
        "4264": 50,
        "4265": 71,
        "4266": 93,
        "4267": 219,
        "4268": 226,
        "4269": 89,
        "4270": 205,
        "4271": 122,
        "4272": 232,
        "4273": 29,
        "4274": 195,
        "4275": 240,
        "4276": 122,
        "4277": 188,
        "4278": 73,
        "4279": 248,
        "4280": 116,
        "4281": 70,
        "4282": 193,
        "4283": 118,
        "4284": 95,
        "4285": 133,
        "4286": 235,
        "4287": 95,
        "4288": 78,
        "4289": 150,
        "4290": 205,
        "4291": 180,
        "4292": 118,
        "4293": 146,
        "4294": 168,
        "4295": 124,
        "4296": 188,
        "4297": 241,
        "4298": 197,
        "4299": 170,
        "4300": 21,
        "4301": 160,
        "4302": 212,
        "4303": 237,
        "4304": 99,
        "4305": 129,
        "4306": 173,
        "4307": 161,
        "4308": 112,
        "4309": 202,
        "4310": 152,
        "4311": 132,
        "4312": 236,
        "4313": 30,
        "4314": 64,
        "4315": 38,
        "4316": 134,
        "4317": 91,
        "4318": 21,
        "4319": 251,
        "4320": 56,
        "4321": 0,
        "4322": 148,
        "4323": 116,
        "4324": 9,
        "4325": 27,
        "4326": 170,
        "4327": 33,
        "4328": 10,
        "4329": 48,
        "4330": 85,
        "4331": 24,
        "4332": 160,
        "4333": 43,
        "4334": 221,
        "4335": 235,
        "4336": 10,
        "4337": 155,
        "4338": 143,
        "4339": 217,
        "4340": 43,
        "4341": 118,
        "4342": 72,
        "4343": 21,
        "4344": 75,
        "4345": 207,
        "4346": 73,
        "4347": 110,
        "4348": 229,
        "4349": 48,
        "4350": 123,
        "4351": 217,
        "4352": 206,
        "4353": 219,
        "4354": 151,
        "4355": 171,
        "4356": 88,
        "4357": 225,
        "4358": 208,
        "4359": 139,
        "4360": 8,
        "4361": 89,
        "4362": 213,
        "4363": 244,
        "4364": 130,
        "4365": 167,
        "4366": 28,
        "4367": 211,
        "4368": 213,
        "4369": 89,
        "4370": 194,
        "4371": 163,
        "4372": 164,
        "4373": 194,
        "4374": 246,
        "4375": 191,
        "4376": 178,
        "4377": 38,
        "4378": 38,
        "4379": 240,
        "4380": 128,
        "4381": 80,
        "4382": 128,
        "4383": 177,
        "4384": 70,
        "4385": 179,
        "4386": 71,
        "4387": 193,
        "4388": 138,
        "4389": 152,
        "4390": 4,
        "4391": 16,
        "4392": 171,
        "4393": 228,
        "4394": 4,
        "4395": 191,
        "4396": 124,
        "4397": 60,
        "4398": 193,
        "4399": 115,
        "4400": 80,
        "4401": 103,
        "4402": 89,
        "4403": 143,
        "4404": 99,
        "4405": 173,
        "4406": 168,
        "4407": 148,
        "4408": 74,
        "4409": 218,
        "4410": 245,
        "4411": 136,
        "4412": 9,
        "4413": 96,
        "4414": 129,
        "4415": 217,
        "4416": 69,
        "4417": 27,
        "4418": 238,
        "4419": 237,
        "4420": 220,
        "4421": 35,
        "4422": 75,
        "4423": 165,
        "4424": 103,
        "4425": 203,
        "4426": 67,
        "4427": 160,
        "4428": 28,
        "4429": 125,
        "4430": 114,
        "4431": 121,
        "4432": 21,
        "4433": 58,
        "4434": 226,
        "4435": 72,
        "4436": 71,
        "4437": 195,
        "4438": 173,
        "4439": 110,
        "4440": 48,
        "4441": 76,
        "4442": 198,
        "4443": 127,
        "4444": 2,
        "4445": 59,
        "4446": 181,
        "4447": 102,
        "4448": 148,
        "4449": 56,
        "4450": 193,
        "4451": 57,
        "4452": 169,
        "4453": 194,
        "4454": 23,
        "4455": 3,
        "4456": 220,
        "4457": 11,
        "4458": 145,
        "4459": 9,
        "4460": 95,
        "4461": 5,
        "4462": 133,
        "4463": 127,
        "4464": 161,
        "4465": 255,
        "4466": 63,
        "4467": 252,
        "4468": 76,
        "4469": 109,
        "4470": 35,
        "4471": 5,
        "4472": 31,
        "4473": 78,
        "4474": 191,
        "4475": 205,
        "4476": 191,
        "4477": 125,
        "4478": 11,
        "4479": 37,
        "4480": 125,
        "4481": 254,
        "4482": 165,
        "4483": 139,
        "4484": 14,
        "4485": 135,
        "4486": 190,
        "4487": 251,
        "4488": 164,
        "4489": 195,
        "4490": 36,
        "4491": 18,
        "4492": 245,
        "4493": 197,
        "4494": 210,
        "4495": 233,
        "4496": 131,
        "4497": 187,
        "4498": 77,
        "4499": 37,
        "4500": 229,
        "4501": 117,
        "4502": 226,
        "4503": 220,
        "4504": 84,
        "4505": 162,
        "4506": 88,
        "4507": 228,
        "4508": 201,
        "4509": 165,
        "4510": 253,
        "4511": 180,
        "4512": 156,
        "4513": 69,
        "4514": 141,
        "4515": 76,
        "4516": 6,
        "4517": 224,
        "4518": 8,
        "4519": 35,
        "4520": 253,
        "4521": 117,
        "4522": 131,
        "4523": 21,
        "4524": 197,
        "4525": 39,
        "4526": 52,
        "4527": 168,
        "4528": 254,
        "4529": 68,
        "4530": 171,
        "4531": 188,
        "4532": 139,
        "4533": 43,
        "4534": 251,
        "4535": 9,
        "4536": 46,
        "4537": 232,
        "4538": 222,
        "4539": 171,
        "4540": 158,
        "4541": 194,
        "4542": 143,
        "4543": 48,
        "4544": 126,
        "4545": 216,
        "4546": 6,
        "4547": 35,
        "4548": 196,
        "4549": 180,
        "4550": 27,
        "4551": 146,
        "4552": 137,
        "4553": 247,
        "4554": 147,
        "4555": 104,
        "4556": 175,
        "4557": 134,
        "4558": 71,
        "4559": 81,
        "4560": 18,
        "4561": 11,
        "4562": 59,
        "4563": 60,
        "4564": 34,
        "4565": 170,
        "4566": 82,
        "4567": 162,
        "4568": 237,
        "4569": 64,
        "4570": 22,
        "4571": 110,
        "4572": 174,
        "4573": 249,
        "4574": 158,
        "4575": 63,
        "4576": 244,
        "4577": 136,
        "4578": 213,
        "4579": 213,
        "4580": 48,
        "4581": 59,
        "4582": 1,
        "4583": 71,
        "4584": 192,
        "4585": 76,
        "4586": 179,
        "4587": 97,
        "4588": 127,
        "4589": 186,
        "4590": 187,
        "4591": 5,
        "4592": 95,
        "4593": 168,
        "4594": 138,
        "4595": 163,
        "4596": 156,
        "4597": 213,
        "4598": 12,
        "4599": 187,
        "4600": 235,
        "4601": 127,
        "4602": 26,
        "4603": 127,
        "4604": 176,
        "4605": 82,
        "4606": 126,
        "4607": 11,
        "4608": 214,
        "4609": 181,
        "4610": 173,
        "4611": 75,
        "4612": 236,
        "4613": 144,
        "4614": 99,
        "4615": 114,
        "4616": 40,
        "4617": 233,
        "4618": 79,
        "4619": 194,
        "4620": 232,
        "4621": 170,
        "4622": 20,
        "4623": 159,
        "4624": 39,
        "4625": 147,
        "4626": 46,
        "4627": 206,
        "4628": 83,
        "4629": 50,
        "4630": 8,
        "4631": 107,
        "4632": 253,
        "4633": 119,
        "4634": 33,
        "4635": 102,
        "4636": 220,
        "4637": 232,
        "4638": 178,
        "4639": 166,
        "4640": 140,
        "4641": 194,
        "4642": 43,
        "4643": 254,
        "4644": 21,
        "4645": 21,
        "4646": 180,
        "4647": 239,
        "4648": 13,
        "4649": 55,
        "4650": 199,
        "4651": 131,
        "4652": 150,
        "4653": 155,
        "4654": 77,
        "4655": 124,
        "4656": 117,
        "4657": 20,
        "4658": 233,
        "4659": 112,
        "4660": 159,
        "4661": 119,
        "4662": 58,
        "4663": 72,
        "4664": 81,
        "4665": 61,
        "4666": 99,
        "4667": 25,
        "4668": 152,
        "4669": 208,
        "4670": 62,
        "4671": 142,
        "4672": 186,
        "4673": 223,
        "4674": 170,
        "4675": 20,
        "4676": 156,
        "4677": 132,
        "4678": 39,
        "4679": 128,
        "4680": 182,
        "4681": 5,
        "4682": 135,
        "4683": 232,
        "4684": 118,
        "4685": 66,
        "4686": 173,
        "4687": 129,
        "4688": 169,
        "4689": 42,
        "4690": 143,
        "4691": 13,
        "4692": 73,
        "4693": 133,
        "4694": 210,
        "4695": 7,
        "4696": 75,
        "4697": 144,
        "4698": 115,
        "4699": 49,
        "4700": 2,
        "4701": 154,
        "4702": 180,
        "4703": 182,
        "4704": 50,
        "4705": 28,
        "4706": 49,
        "4707": 93,
        "4708": 127,
        "4709": 130,
        "4710": 124,
        "4711": 43,
        "4712": 156,
        "4713": 102,
        "4714": 114,
        "4715": 226,
        "4716": 122,
        "4717": 119,
        "4718": 149,
        "4719": 204,
        "4720": 118,
        "4721": 85,
        "4722": 38,
        "4723": 157,
        "4724": 21,
        "4725": 149,
        "4726": 220,
        "4727": 229,
        "4728": 11,
        "4729": 1,
        "4730": 94,
        "4731": 1,
        "4732": 252,
        "4733": 40,
        "4734": 206,
        "4735": 91,
        "4736": 188,
        "4737": 202,
        "4738": 57,
        "4739": 238,
        "4740": 51,
        "4741": 33,
        "4742": 229,
        "4743": 153,
        "4744": 29,
        "4745": 176,
        "4746": 156,
        "4747": 56,
        "4748": 179,
        "4749": 194,
        "4750": 200,
        "4751": 5,
        "4752": 150,
        "4753": 180,
        "4754": 23,
        "4755": 245,
        "4756": 23,
        "4757": 138,
        "4758": 233,
        "4759": 148,
        "4760": 132,
        "4761": 133,
        "4762": 69,
        "4763": 188,
        "4764": 170,
        "4765": 25,
        "4766": 249,
        "4767": 51,
        "4768": 17,
        "4769": 190,
        "4770": 151,
        "4771": 222,
        "4772": 170,
        "4773": 81,
        "4774": 42,
        "4775": 37,
        "4776": 49,
        "4777": 57,
        "4778": 241,
        "4779": 41,
        "4780": 36,
        "4781": 47,
        "4782": 167,
        "4783": 171,
        "4784": 147,
        "4785": 192,
        "4786": 183,
        "4787": 31,
        "4788": 121,
        "4789": 171,
        "4790": 2,
        "4791": 109,
        "4792": 188,
        "4793": 118,
        "4794": 179,
        "4795": 25,
        "4796": 101,
        "4797": 70,
        "4798": 158,
        "4799": 209,
        "4800": 71,
        "4801": 230,
        "4802": 6,
        "4803": 4,
        "4804": 61,
        "4805": 180,
        "4806": 192,
        "4807": 57,
        "4808": 114,
        "4809": 12,
        "4810": 96,
        "4811": 141,
        "4812": 21,
        "4813": 218,
        "4814": 172,
        "4815": 223,
        "4816": 1,
        "4817": 238,
        "4818": 166,
        "4819": 14,
        "4820": 204,
        "4821": 46,
        "4822": 63,
        "4823": 165,
        "4824": 187,
        "4825": 118,
        "4826": 95,
        "4827": 222,
        "4828": 99,
        "4829": 198,
        "4830": 255,
        "4831": 46,
        "4832": 15,
        "4833": 77,
        "4834": 237,
        "4835": 208,
        "4836": 224,
        "4837": 228,
        "4838": 34,
        "4839": 113,
        "4840": 212,
        "4841": 48,
        "4842": 64,
        "4843": 64,
        "4844": 85,
        "4845": 93,
        "4846": 175,
        "4847": 140,
        "4848": 250,
        "4849": 24,
        "4850": 88,
        "4851": 199,
        "4852": 91,
        "4853": 55,
        "4854": 81,
        "4855": 144,
        "4856": 205,
        "4857": 227,
        "4858": 158,
        "4859": 254,
        "4860": 199,
        "4861": 31,
        "4862": 162,
        "4863": 248,
        "4864": 136,
        "4865": 205,
        "4866": 89,
        "4867": 187,
        "4868": 239,
        "4869": 120,
        "4870": 59,
        "4871": 232,
        "4872": 45,
        "4873": 183,
        "4874": 108,
        "4875": 215,
        "4876": 76,
        "4877": 203,
        "4878": 132,
        "4879": 103,
        "4880": 219,
        "4881": 128,
        "4882": 66,
        "4883": 132,
        "4884": 80,
        "4885": 8,
        "4886": 210,
        "4887": 65,
        "4888": 9,
        "4889": 208,
        "4890": 193,
        "4891": 82,
        "4892": 24,
        "4893": 82,
        "4894": 53,
        "4895": 49,
        "4896": 166,
        "4897": 57,
        "4898": 206,
        "4899": 9,
        "4900": 111,
        "4901": 45,
        "4902": 147,
        "4903": 120,
        "4904": 26,
        "4905": 39,
        "4906": 161,
        "4907": 234,
        "4908": 84,
        "4909": 240,
        "4910": 121,
        "4911": 167,
        "4912": 62,
        "4913": 64,
        "4914": 158,
        "4915": 123,
        "4916": 200,
        "4917": 172,
        "4918": 33,
        "4919": 23,
        "4920": 206,
        "4921": 225,
        "4922": 5,
        "4923": 148,
        "4924": 81,
        "4925": 167,
        "4926": 227,
        "4927": 217,
        "4928": 62,
        "4929": 113,
        "4930": 25,
        "4931": 242,
        "4932": 153,
        "4933": 82,
        "4934": 54,
        "4935": 197,
        "4936": 221,
        "4937": 8,
        "4938": 148,
        "4939": 246,
        "4940": 181,
        "4941": 162,
        "4942": 75,
        "4943": 84,
        "4944": 5,
        "4945": 21,
        "4946": 217,
        "4947": 21,
        "4948": 58,
        "4949": 194,
        "4950": 204,
        "4951": 93,
        "4952": 39,
        "4953": 105,
        "4954": 173,
        "4955": 208,
        "4956": 255,
        "4957": 27,
        "4958": 16,
        "4959": 236,
        "4960": 82,
        "4961": 38,
        "4962": 63,
        "4963": 83,
        "4964": 181,
        "4965": 48,
        "4966": 222,
        "4967": 204,
        "4968": 157,
        "4969": 193,
        "4970": 222,
        "4971": 214,
        "4972": 84,
        "4973": 232,
        "4974": 170,
        "4975": 149,
        "4976": 129,
        "4977": 180,
        "4978": 2,
        "4979": 151,
        "4980": 73,
        "4981": 225,
        "4982": 214,
        "4983": 133,
        "4984": 120,
        "4985": 112,
        "4986": 250,
        "4987": 40,
        "4988": 113,
        "4989": 144,
        "4990": 28,
        "4991": 109,
        "4992": 133,
        "4993": 128,
        "4994": 230,
        "4995": 252,
        "4996": 57,
        "4997": 234,
        "4998": 91,
        "4999": 137,
        "5000": 205,
        "5001": 33,
        "5002": 117,
        "5003": 38,
        "5004": 9,
        "5005": 200,
        "5006": 205,
        "5007": 92,
        "5008": 141,
        "5009": 62,
        "5010": 120,
        "5011": 249,
        "5012": 28,
        "5013": 21,
        "5014": 198,
        "5015": 52,
        "5016": 23,
        "5017": 14,
        "5018": 162,
        "5019": 229,
        "5020": 103,
        "5021": 41,
        "5022": 8,
        "5023": 138,
        "5024": 183,
        "5025": 163,
        "5026": 59,
        "5027": 49,
        "5028": 123,
        "5029": 90,
        "5030": 235,
        "5031": 146,
        "5032": 38,
        "5033": 28,
        "5034": 92,
        "5035": 4,
        "5036": 33,
        "5037": 73,
        "5038": 34,
        "5039": 17,
        "5040": 33,
        "5041": 38,
        "5042": 29,
        "5043": 64,
        "5044": 26,
        "5045": 215,
        "5046": 108,
        "5047": 248,
        "5048": 245,
        "5049": 93,
        "5050": 212,
        "5051": 108,
        "5052": 171,
        "5053": 111,
        "5054": 137,
        "5055": 53,
        "5056": 74,
        "5057": 170,
        "5058": 121,
        "5059": 20,
        "5060": 61,
        "5061": 14,
        "5062": 157,
        "5063": 113,
        "5064": 119,
        "5065": 233,
        "5066": 2,
        "5067": 228,
        "5068": 83,
        "5069": 237,
        "5070": 191,
        "5071": 194,
        "5072": 11,
        "5073": 14,
        "5074": 34,
        "5075": 34,
        "5076": 165,
        "5077": 121,
        "5078": 74,
        "5079": 123,
        "5080": 248,
        "5081": 227,
        "5082": 45,
        "5083": 83,
        "5084": 30,
        "5085": 140,
        "5086": 6,
        "5087": 13,
        "5088": 54,
        "5089": 138,
        "5090": 232,
        "5091": 206,
        "5092": 174,
        "5093": 106,
        "5094": 141,
        "5095": 109,
        "5096": 192,
        "5097": 57,
        "5098": 47,
        "5099": 127,
        "5100": 154,
        "5101": 150,
        "5102": 71,
        "5103": 235,
        "5104": 144,
        "5105": 63,
        "5106": 78,
        "5107": 231,
        "5108": 63,
        "5109": 59,
        "5110": 40,
        "5111": 228,
        "5112": 60,
        "5113": 238,
        "5114": 252,
        "5115": 149,
        "5116": 24,
        "5117": 150,
        "5118": 95,
        "5119": 70,
        "5120": 243,
        "5121": 44,
        "5122": 23,
        "5123": 90,
        "5124": 97,
        "5125": 48,
        "5126": 192,
        "5127": 107,
        "5128": 211,
        "5129": 203,
        "5130": 65,
        "5131": 140,
        "5132": 208,
        "5133": 246,
        "5134": 145,
        "5135": 166,
        "5136": 59,
        "5137": 63,
        "5138": 5,
        "5139": 62,
        "5140": 40,
        "5141": 37,
        "5142": 31,
        "5143": 29,
        "5144": 122,
        "5145": 137,
        "5146": 146,
        "5147": 19,
        "5148": 81,
        "5149": 51,
        "5150": 169,
        "5151": 150,
        "5152": 246,
        "5153": 112,
        "5154": 36,
        "5155": 40,
        "5156": 9,
        "5157": 26,
        "5158": 218,
        "5159": 94,
        "5160": 122,
        "5161": 191,
        "5162": 252,
        "5163": 228,
        "5164": 79,
        "5165": 22,
        "5166": 48,
        "5167": 211,
        "5168": 223,
        "5169": 133,
        "5170": 242,
        "5171": 40,
        "5172": 184,
        "5173": 114,
        "5174": 99,
        "5175": 133,
        "5176": 203,
        "5177": 178,
        "5178": 243,
        "5179": 245,
        "5180": 71,
        "5181": 89,
        "5182": 103,
        "5183": 109,
        "5184": 161,
        "5185": 81,
        "5186": 254,
        "5187": 48,
        "5188": 213,
        "5189": 197,
        "5190": 245,
        "5191": 208,
        "5192": 63,
        "5193": 253,
        "5194": 101,
        "5195": 237,
        "5196": 238,
        "5197": 97,
        "5198": 109,
        "5199": 119,
        "5200": 130,
        "5201": 177,
        "5202": 65,
        "5203": 27,
        "5204": 45,
        "5205": 74,
        "5206": 75,
        "5207": 175,
        "5208": 63,
        "5209": 240,
        "5210": 112,
        "5211": 180,
        "5212": 50,
        "5213": 16,
        "5214": 168,
        "5215": 242,
        "5216": 92,
        "5217": 175,
        "5218": 71,
        "5219": 84,
        "5220": 34,
        "5221": 43,
        "5222": 142,
        "5223": 79,
        "5224": 247,
        "5225": 145,
        "5226": 54,
        "5227": 36,
        "5228": 62,
        "5229": 122,
        "5230": 74,
        "5231": 126,
        "5232": 37,
        "5233": 183,
        "5234": 106,
        "5235": 118,
        "5236": 176,
        "5237": 254,
        "5238": 166,
        "5239": 104,
        "5240": 21,
        "5241": 108,
        "5242": 65,
        "5243": 54,
        "5244": 108,
        "5245": 56,
        "5246": 201,
        "5247": 92,
        "5248": 148,
        "5249": 110,
        "5250": 27,
        "5251": 188,
        "5252": 194,
        "5253": 179,
        "5254": 114,
        "5255": 136,
        "5256": 52,
        "5257": 144,
        "5258": 71,
        "5259": 54,
        "5260": 129,
        "5261": 73,
        "5262": 248,
        "5263": 187,
        "5264": 136,
        "5265": 27,
        "5266": 24,
        "5267": 73,
        "5268": 174,
        "5269": 239,
        "5270": 37,
        "5271": 208,
        "5272": 30,
        "5273": 105,
        "5274": 0,
        "5275": 190,
        "5276": 47,
        "5277": 137,
        "5278": 83,
        "5279": 61,
        "5280": 3,
        "5281": 104,
        "5282": 70,
        "5283": 11,
        "5284": 42,
        "5285": 109,
        "5286": 122,
        "5287": 25,
        "5288": 188,
        "5289": 127,
        "5290": 172,
        "5291": 166,
        "5292": 194,
        "5293": 193,
        "5294": 140,
        "5295": 26,
        "5296": 255,
        "5297": 115,
        "5298": 27,
        "5299": 67,
        "5300": 38,
        "5301": 117,
        "5302": 248,
        "5303": 97,
        "5304": 152,
        "5305": 245,
        "5306": 116,
        "5307": 95,
        "5308": 182,
        "5309": 75,
        "5310": 47,
        "5311": 170,
        "5312": 242,
        "5313": 75,
        "5314": 241,
        "5315": 4,
        "5316": 158,
        "5317": 18,
        "5318": 104,
        "5319": 205,
        "5320": 171,
        "5321": 226,
        "5322": 21,
        "5323": 25,
        "5324": 120,
        "5325": 147,
        "5326": 180,
        "5327": 13,
        "5328": 115,
        "5329": 22,
        "5330": 247,
        "5331": 84,
        "5332": 177,
        "5333": 204,
        "5334": 96,
        "5335": 119,
        "5336": 180,
        "5337": 148,
        "5338": 25,
        "5339": 3,
        "5340": 146,
        "5341": 7,
        "5342": 231,
        "5343": 111,
        "5344": 46,
        "5345": 113,
        "5346": 43,
        "5347": 197,
        "5348": 165,
        "5349": 100,
        "5350": 11,
        "5351": 49,
        "5352": 25,
        "5353": 105,
        "5354": 146,
        "5355": 132,
        "5356": 99,
        "5357": 81,
        "5358": 143,
        "5359": 226,
        "5360": 73,
        "5361": 154,
        "5362": 6,
        "5363": 238,
        "5364": 164,
        "5365": 25,
        "5366": 23,
        "5367": 107,
        "5368": 15,
        "5369": 56,
        "5370": 33,
        "5371": 23,
        "5372": 13,
        "5373": 44,
        "5374": 143,
        "5375": 89,
        "5376": 164,
        "5377": 108,
        "5378": 200,
        "5379": 255,
        "5380": 222,
        "5381": 207,
        "5382": 215,
        "5383": 151,
        "5384": 73,
        "5385": 144,
        "5386": 119,
        "5387": 198,
        "5388": 90,
        "5389": 159,
        "5390": 183,
        "5391": 61,
        "5392": 44,
        "5393": 209,
        "5394": 3,
        "5395": 59,
        "5396": 202,
        "5397": 226,
        "5398": 55,
        "5399": 217,
        "5400": 115,
        "5401": 13,
        "5402": 250,
        "5403": 116,
        "5404": 141,
        "5405": 115,
        "5406": 150,
        "5407": 67,
        "5408": 22,
        "5409": 88,
        "5410": 141,
        "5411": 210,
        "5412": 45,
        "5413": 33,
        "5414": 59,
        "5415": 53,
        "5416": 128,
        "5417": 251,
        "5418": 167,
        "5419": 96,
        "5420": 173,
        "5421": 155,
        "5422": 219,
        "5423": 152,
        "5424": 120,
        "5425": 181,
        "5426": 60,
        "5427": 172,
        "5428": 183,
        "5429": 223,
        "5430": 26,
        "5431": 83,
        "5432": 38,
        "5433": 56,
        "5434": 209,
        "5435": 46,
        "5436": 44,
        "5437": 213,
        "5438": 72,
        "5439": 121,
        "5440": 39,
        "5441": 104,
        "5442": 192,
        "5443": 130,
        "5444": 176,
        "5445": 145,
        "5446": 152,
        "5447": 168,
        "5448": 45,
        "5449": 193,
        "5450": 236,
        "5451": 47,
        "5452": 75,
        "5453": 166,
        "5454": 118,
        "5455": 190,
        "5456": 10,
        "5457": 29,
        "5458": 159,
        "5459": 167,
        "5460": 35,
        "5461": 9,
        "5462": 55,
        "5463": 163,
        "5464": 74,
        "5465": 134,
        "5466": 91,
        "5467": 168,
        "5468": 25,
        "5469": 69,
        "5470": 61,
        "5471": 219,
        "5472": 55,
        "5473": 130,
        "5474": 85,
        "5475": 24,
        "5476": 50,
        "5477": 0,
        "5478": 101,
        "5479": 162,
        "5480": 210,
        "5481": 21,
        "5482": 120,
        "5483": 199,
        "5484": 181,
        "5485": 57,
        "5486": 121,
        "5487": 4,
        "5488": 99,
        "5489": 193,
        "5490": 158,
        "5491": 58,
        "5492": 169,
        "5493": 209,
        "5494": 200,
        "5495": 239,
        "5496": 35,
        "5497": 143,
        "5498": 12,
        "5499": 230,
        "5500": 233,
        "5501": 76,
        "5502": 114,
        "5503": 128,
        "5504": 132,
        "5505": 209,
        "5506": 213,
        "5507": 24,
        "5508": 114,
        "5509": 8,
        "5510": 42,
        "5511": 70,
        "5512": 228,
        "5513": 218,
        "5514": 229,
        "5515": 27,
        "5516": 159,
        "5517": 70,
        "5518": 225,
        "5519": 237,
        "5520": 255,
        "5521": 44,
        "5522": 130,
        "5523": 171,
        "5524": 226,
        "5525": 111,
        "5526": 94,
        "5527": 55,
        "5528": 119,
        "5529": 198,
        "5530": 173,
        "5531": 47,
        "5532": 1,
        "5533": 248,
        "5534": 96,
        "5535": 112,
        "5536": 41,
        "5537": 67,
        "5538": 25,
        "5539": 202,
        "5540": 78,
        "5541": 155,
        "5542": 73,
        "5543": 182,
        "5544": 192,
        "5545": 48,
        "5546": 68,
        "5547": 164,
        "5548": 198,
        "5549": 20,
        "5550": 159,
        "5551": 190,
        "5552": 23,
        "5553": 127,
        "5554": 249,
        "5555": 32,
        "5556": 178,
        "5557": 36,
        "5558": 0,
        "5559": 49,
        "5560": 62,
        "5561": 203,
        "5562": 67,
        "5563": 198,
        "5564": 191,
        "5565": 89,
        "5566": 72,
        "5567": 103,
        "5568": 247,
        "5569": 6,
        "5570": 111,
        "5571": 5,
        "5572": 129,
        "5573": 90,
        "5574": 15,
        "5575": 80,
        "5576": 171,
        "5577": 4,
        "5578": 133,
        "5579": 148,
        "5580": 43,
        "5581": 225,
        "5582": 170,
        "5583": 245,
        "5584": 63,
        "5585": 179,
        "5586": 241,
        "5587": 20,
        "5588": 151,
        "5589": 230,
        "5590": 227,
        "5591": 26,
        "5592": 165,
        "5593": 139,
        "5594": 13,
        "5595": 18,
        "5596": 64,
        "5597": 190,
        "5598": 98,
        "5599": 156,
        "5600": 156,
        "5601": 6,
        "5602": 120,
        "5603": 225,
        "5604": 85,
        "5605": 110,
        "5606": 156,
        "5607": 111,
        "5608": 200,
        "5609": 162,
        "5610": 83,
        "5611": 126,
        "5612": 103,
        "5613": 86,
        "5614": 107,
        "5615": 75,
        "5616": 39,
        "5617": 111,
        "5618": 39,
        "5619": 41,
        "5620": 36,
        "5621": 123,
        "5622": 241,
        "5623": 70,
        "5624": 118,
        "5625": 106,
        "5626": 6,
        "5627": 95,
        "5628": 163,
        "5629": 73,
        "5630": 175,
        "5631": 134,
        "5632": 83,
        "5633": 221,
        "5634": 178,
        "5635": 177,
        "5636": 162,
        "5637": 87,
        "5638": 230,
        "5639": 2,
        "5640": 158,
        "5641": 183,
        "5642": 230,
        "5643": 234,
        "5644": 146,
        "5645": 76,
        "5646": 108,
        "5647": 167,
        "5648": 181,
        "5649": 77,
        "5650": 5,
        "5651": 65,
        "5652": 133,
        "5653": 245,
        "5654": 50,
        "5655": 144,
        "5656": 44,
        "5657": 213,
        "5658": 69,
        "5659": 12,
        "5660": 85,
        "5661": 222,
        "5662": 250,
        "5663": 118,
        "5664": 2,
        "5665": 114,
        "5666": 69,
        "5667": 167,
        "5668": 118,
        "5669": 140,
        "5670": 187,
        "5671": 114,
        "5672": 156,
        "5673": 198,
        "5674": 28,
        "5675": 95,
        "5676": 163,
        "5677": 234,
        "5678": 132,
        "5679": 107,
        "5680": 67,
        "5681": 0,
        "5682": 180,
        "5683": 29,
        "5684": 4,
        "5685": 20,
        "5686": 169,
        "5687": 245,
        "5688": 165,
        "5689": 112,
        "5690": 97,
        "5691": 63,
        "5692": 168,
        "5693": 240,
        "5694": 13,
        "5695": 87,
        "5696": 9,
        "5697": 222,
        "5698": 160,
        "5699": 89,
        "5700": 55,
        "5701": 208,
        "5702": 179,
        "5703": 106,
        "5704": 36,
        "5705": 70,
        "5706": 246,
        "5707": 121,
        "5708": 201,
        "5709": 183,
        "5710": 153,
        "5711": 156,
        "5712": 109,
        "5713": 242,
        "5714": 233,
        "5715": 179,
        "5716": 76,
        "5717": 37,
        "5718": 79,
        "5719": 191,
        "5720": 77,
        "5721": 216,
        "5722": 110,
        "5723": 41,
        "5724": 197,
        "5725": 255,
        "5726": 133,
        "5727": 62,
        "5728": 98,
        "5729": 69,
        "5730": 172,
        "5731": 122,
        "5732": 8,
        "5733": 153,
        "5734": 244,
        "5735": 1,
        "5736": 97,
        "5737": 209,
        "5738": 69,
        "5739": 177,
        "5740": 9,
        "5741": 180,
        "5742": 38,
        "5743": 161,
        "5744": 176,
        "5745": 211,
        "5746": 122,
        "5747": 78,
        "5748": 244,
        "5749": 100,
        "5750": 39,
        "5751": 149,
        "5752": 25,
        "5753": 148,
        "5754": 232,
        "5755": 71,
        "5756": 85,
        "5757": 172,
        "5758": 238,
        "5759": 103,
        "5760": 208,
        "5761": 237,
        "5762": 30,
        "5763": 124,
        "5764": 109,
        "5765": 32,
        "5766": 40,
        "5767": 132,
        "5768": 192,
        "5769": 229,
        "5770": 255,
        "5771": 42,
        "5772": 192,
        "5773": 152,
        "5774": 5,
        "5775": 179,
        "5776": 125,
        "5777": 112,
        "5778": 217,
        "5779": 250,
        "5780": 107,
        "5781": 236,
        "5782": 28,
        "5783": 70,
        "5784": 135,
        "5785": 209,
        "5786": 47,
        "5787": 60,
        "5788": 177,
        "5789": 29,
        "5790": 147,
        "5791": 201,
        "5792": 249,
        "5793": 202,
        "5794": 61,
        "5795": 172,
        "5796": 198,
        "5797": 188,
        "5798": 24,
        "5799": 67,
        "5800": 37,
        "5801": 85,
        "5802": 215,
        "5803": 77,
        "5804": 82,
        "5805": 164,
        "5806": 82,
        "5807": 104,
        "5808": 178,
        "5809": 145,
        "5810": 242,
        "5811": 50,
        "5812": 240,
        "5813": 104,
        "5814": 126,
        "5815": 242,
        "5816": 253,
        "5817": 202,
        "5818": 236,
        "5819": 224,
        "5820": 19,
        "5821": 111,
        "5822": 0,
        "5823": 45,
        "5824": 126,
        "5825": 11,
        "5826": 221,
        "5827": 218,
        "5828": 77,
        "5829": 49,
        "5830": 8,
        "5831": 186,
        "5832": 25,
        "5833": 115,
        "5834": 144,
        "5835": 136,
        "5836": 155,
        "5837": 68,
        "5838": 248,
        "5839": 172,
        "5840": 88,
        "5841": 198,
        "5842": 186,
        "5843": 235,
        "5844": 109,
        "5845": 133,
        "5846": 164,
        "5847": 177,
        "5848": 128,
        "5849": 23,
        "5850": 71,
        "5851": 3,
        "5852": 217,
        "5853": 139,
        "5854": 136,
        "5855": 120,
        "5856": 177,
        "5857": 34,
        "5858": 110,
        "5859": 23,
        "5860": 165,
        "5861": 16,
        "5862": 229,
        "5863": 48,
        "5864": 224,
        "5865": 235,
        "5866": 165,
        "5867": 215,
        "5868": 186,
        "5869": 124,
        "5870": 166,
        "5871": 123,
        "5872": 157,
        "5873": 19,
        "5874": 73,
        "5875": 74,
        "5876": 64,
        "5877": 97,
        "5878": 115,
        "5879": 184,
        "5880": 93,
        "5881": 85,
        "5882": 237,
        "5883": 141,
        "5884": 69,
        "5885": 138,
        "5886": 39,
        "5887": 244,
        "5888": 27,
        "5889": 89,
        "5890": 39,
        "5891": 97,
        "5892": 195,
        "5893": 209,
        "5894": 89,
        "5895": 99,
        "5896": 90,
        "5897": 109,
        "5898": 237,
        "5899": 12,
        "5900": 170,
        "5901": 53,
        "5902": 7,
        "5903": 209,
        "5904": 145,
        "5905": 227,
        "5906": 245,
        "5907": 53,
        "5908": 33,
        "5909": 118,
        "5910": 120,
        "5911": 6,
        "5912": 182,
        "5913": 135,
        "5914": 230,
        "5915": 112,
        "5916": 62,
        "5917": 218,
        "5918": 118,
        "5919": 211,
        "5920": 215,
        "5921": 30,
        "5922": 9,
        "5923": 102,
        "5924": 66,
        "5925": 37,
        "5926": 148,
        "5927": 65,
        "5928": 139,
        "5929": 200,
        "5930": 79,
        "5931": 235,
        "5932": 11,
        "5933": 58,
        "5934": 13,
        "5935": 136,
        "5936": 237,
        "5937": 204,
        "5938": 49,
        "5939": 63,
        "5940": 245,
        "5941": 52,
        "5942": 148,
        "5943": 20,
        "5944": 248,
        "5945": 210,
        "5946": 223,
        "5947": 140,
        "5948": 41,
        "5949": 210,
        "5950": 117,
        "5951": 57,
        "5952": 3,
        "5953": 109,
        "5954": 136,
        "5955": 234,
        "5956": 196,
        "5957": 142,
        "5958": 28,
        "5959": 106,
        "5960": 204,
        "5961": 77,
        "5962": 19,
        "5963": 5,
        "5964": 253,
        "5965": 135,
        "5966": 111,
        "5967": 164,
        "5968": 34,
        "5969": 78,
        "5970": 196,
        "5971": 223,
        "5972": 10,
        "5973": 66,
        "5974": 244,
        "5975": 151,
        "5976": 211,
        "5977": 225,
        "5978": 173,
        "5979": 139,
        "5980": 148,
        "5981": 202,
        "5982": 13,
        "5983": 219,
        "5984": 165,
        "5985": 66,
        "5986": 21,
        "5987": 83,
        "5988": 59,
        "5989": 71,
        "5990": 157,
        "5991": 135,
        "5992": 201,
        "5993": 154,
        "5994": 196,
        "5995": 35,
        "5996": 144,
        "5997": 78,
        "5998": 56,
        "5999": 79,
        "6000": 34,
        "6001": 250,
        "6002": 6,
        "6003": 137,
        "6004": 90,
        "6005": 242,
        "6006": 99,
        "6007": 83,
        "6008": 89,
        "6009": 81,
        "6010": 235,
        "6011": 97,
        "6012": 156,
        "6013": 182,
        "6014": 166,
        "6015": 100,
        "6016": 76,
        "6017": 234,
        "6018": 131,
        "6019": 244,
        "6020": 55,
        "6021": 131,
        "6022": 221,
        "6023": 13,
        "6024": 191,
        "6025": 246,
        "6026": 212,
        "6027": 10,
        "6028": 87,
        "6029": 98,
        "6030": 59,
        "6031": 242,
        "6032": 51,
        "6033": 23,
        "6034": 26,
        "6035": 79,
        "6036": 242,
        "6037": 214,
        "6038": 148,
        "6039": 82,
        "6040": 5,
        "6041": 3,
        "6042": 178,
        "6043": 65,
        "6044": 133,
        "6045": 247,
        "6046": 183,
        "6047": 121,
        "6048": 42,
        "6049": 147,
        "6050": 212,
        "6051": 5,
        "6052": 159,
        "6053": 81,
        "6054": 219,
        "6055": 158,
        "6056": 187,
        "6057": 242,
        "6058": 100,
        "6059": 105,
        "6060": 144,
        "6061": 94,
        "6062": 161,
        "6063": 144,
        "6064": 188,
        "6065": 207,
        "6066": 118,
        "6067": 38,
        "6068": 13,
        "6069": 11,
        "6070": 196,
        "6071": 198,
        "6072": 109,
        "6073": 30,
        "6074": 72,
        "6075": 15,
        "6076": 61,
        "6077": 131,
        "6078": 175,
        "6079": 224,
        "6080": 29,
        "6081": 3,
        "6082": 34,
        "6083": 57,
        "6084": 126,
        "6085": 66,
        "6086": 244,
        "6087": 90,
        "6088": 0,
        "6089": 221,
        "6090": 85,
        "6091": 198,
        "6092": 50,
        "6093": 51,
        "6094": 137,
        "6095": 106,
        "6096": 41,
        "6097": 177,
        "6098": 48,
        "6099": 98,
        "6100": 252,
        "6101": 5,
        "6102": 92,
        "6103": 31,
        "6104": 144,
        "6105": 219,
        "6106": 169,
        "6107": 201,
        "6108": 184,
        "6109": 115,
        "6110": 62,
        "6111": 89,
        "6112": 58,
        "6113": 204,
        "6114": 186,
        "6115": 232,
        "6116": 80,
        "6117": 244,
        "6118": 192,
        "6119": 93,
        "6120": 243,
        "6121": 23,
        "6122": 79,
        "6123": 7,
        "6124": 248,
        "6125": 165,
        "6126": 118,
        "6127": 11,
        "6128": 71,
        "6129": 13,
        "6130": 216,
        "6131": 70,
        "6132": 243,
        "6133": 204,
        "6134": 69,
        "6135": 100,
        "6136": 86,
        "6137": 45,
        "6138": 49,
        "6139": 187,
        "6140": 182,
        "6141": 15,
        "6142": 208,
        "6143": 62,
        "6144": 43,
        "6145": 65,
        "6146": 72,
        "6147": 178,
        "6148": 9,
        "6149": 9,
        "6150": 211,
        "6151": 131,
        "6152": 13,
        "6153": 19,
        "6154": 110,
        "6155": 10,
        "6156": 240,
        "6157": 21,
        "6158": 123,
        "6159": 86,
        "6160": 10,
        "6161": 79,
        "6162": 184,
        "6163": 248,
        "6164": 103,
        "6165": 94,
        "6166": 35,
        "6167": 203,
        "6168": 233,
        "6169": 28,
        "6170": 254,
        "6171": 20,
        "6172": 242,
        "6173": 177,
        "6174": 242,
        "6175": 93,
        "6176": 190,
        "6177": 103,
        "6178": 157,
        "6179": 246,
        "6180": 3,
        "6181": 69,
        "6182": 130,
        "6183": 15,
        "6184": 108,
        "6185": 41,
        "6186": 115,
        "6187": 142,
        "6188": 99,
        "6189": 213,
        "6190": 74,
        "6191": 232,
        "6192": 100,
        "6193": 50,
        "6194": 152,
        "6195": 49,
        "6196": 55,
        "6197": 9,
        "6198": 188,
        "6199": 30,
        "6200": 102,
        "6201": 230,
        "6202": 10,
        "6203": 136,
        "6204": 154,
        "6205": 65,
        "6206": 89,
        "6207": 65,
        "6208": 245,
        "6209": 65,
        "6210": 71,
        "6211": 0,
        "6212": 11,
        "6213": 200,
        "6214": 224,
        "6215": 42,
        "6216": 209,
        "6217": 162,
        "6218": 198,
        "6219": 41,
        "6220": 179,
        "6221": 222,
        "6222": 32,
        "6223": 10,
        "6224": 221,
        "6225": 235,
        "6226": 234,
        "6227": 41,
        "6228": 168,
        "6229": 231,
        "6230": 225,
        "6231": 110,
        "6232": 46,
        "6233": 118,
        "6234": 36,
        "6235": 203,
        "6236": 229,
        "6237": 11,
        "6238": 211,
        "6239": 108,
        "6240": 34,
        "6241": 174,
        "6242": 242,
        "6243": 7,
        "6244": 139,
        "6245": 118,
        "6246": 152,
        "6247": 59,
        "6248": 95,
        "6249": 254,
        "6250": 96,
        "6251": 206,
        "6252": 238,
        "6253": 227,
        "6254": 182,
        "6255": 0,
        "6256": 46,
        "6257": 95,
        "6258": 59,
        "6259": 86,
        "6260": 153,
        "6261": 147,
        "6262": 64,
        "6263": 78,
        "6264": 224,
        "6265": 246,
        "6266": 125,
        "6267": 113,
        "6268": 72,
        "6269": 171,
        "6270": 13,
        "6271": 151,
        "6272": 76,
        "6273": 30,
        "6274": 168,
        "6275": 4,
        "6276": 192,
        "6277": 95,
        "6278": 221,
        "6279": 55,
        "6280": 223,
        "6281": 50,
        "6282": 55,
        "6283": 2,
        "6284": 170,
        "6285": 44,
        "6286": 112,
        "6287": 89,
        "6288": 159,
        "6289": 69,
        "6290": 155,
        "6291": 242,
        "6292": 164,
        "6293": 118,
        "6294": 223,
        "6295": 210,
        "6296": 196,
        "6297": 234,
        "6298": 139,
        "6299": 225,
        "6300": 104,
        "6301": 164,
        "6302": 205,
        "6303": 109,
        "6304": 65,
        "6305": 71,
        "6306": 94,
        "6307": 177,
        "6308": 122,
        "6309": 63,
        "6310": 83,
        "6311": 136,
        "6312": 103,
        "6313": 137,
        "6314": 193,
        "6315": 183,
        "6316": 196,
        "6317": 243,
        "6318": 59,
        "6319": 238,
        "6320": 158,
        "6321": 216,
        "6322": 13,
        "6323": 101,
        "6324": 165,
        "6325": 155,
        "6326": 192,
        "6327": 205,
        "6328": 130,
        "6329": 241,
        "6330": 98,
        "6331": 252,
        "6332": 93,
        "6333": 36,
        "6334": 187,
        "6335": 232,
        "6336": 60,
        "6337": 220,
        "6338": 191,
        "6339": 141,
        "6340": 71,
        "6341": 255,
        "6342": 83,
        "6343": 212,
        "6344": 236,
        "6345": 93,
        "6346": 43,
        "6347": 80,
        "6348": 182,
        "6349": 180,
        "6350": 111,
        "6351": 128,
        "6352": 98,
        "6353": 169,
        "6354": 54,
        "6355": 164,
        "6356": 173,
        "6357": 214,
        "6358": 85,
        "6359": 156,
        "6360": 203,
        "6361": 17,
        "6362": 190,
        "6363": 227,
        "6364": 176,
        "6365": 139,
        "6366": 199,
        "6367": 32,
        "6368": 142,
        "6369": 150,
        "6370": 80,
        "6371": 45,
        "6372": 173,
        "6373": 122,
        "6374": 158,
        "6375": 25,
        "6376": 39,
        "6377": 197,
        "6378": 120,
        "6379": 246,
        "6380": 222,
        "6381": 4,
        "6382": 129,
        "6383": 248,
        "6384": 138,
        "6385": 46,
        "6386": 39,
        "6387": 40,
        "6388": 83,
        "6389": 140,
        "6390": 227,
        "6391": 195,
        "6392": 106,
        "6393": 209,
        "6394": 5,
        "6395": 190,
        "6396": 251,
        "6397": 22,
        "6398": 40,
        "6399": 154,
        "6400": 161,
        "6401": 32,
        "6402": 106,
        "6403": 72,
        "6404": 128,
        "6405": 63,
        "6406": 22,
        "6407": 9,
        "6408": 89,
        "6409": 190,
        "6410": 200,
        "6411": 124,
        "6412": 51,
        "6413": 50,
        "6414": 87,
        "6415": 163,
        "6416": 162,
        "6417": 56,
        "6418": 34,
        "6419": 49,
        "6420": 10,
        "6421": 230,
        "6422": 114,
        "6423": 252,
        "6424": 147,
        "6425": 211,
        "6426": 77,
        "6427": 20,
        "6428": 117,
        "6429": 54,
        "6430": 129,
        "6431": 138,
        "6432": 26,
        "6433": 13,
        "6434": 22,
        "6435": 203,
        "6436": 167,
        "6437": 162,
        "6438": 98,
        "6439": 221,
        "6440": 195,
        "6441": 202,
        "6442": 61,
        "6443": 38,
        "6444": 125,
        "6445": 136,
        "6446": 211,
        "6447": 101,
        "6448": 50,
        "6449": 192,
        "6450": 53,
        "6451": 195,
        "6452": 220,
        "6453": 79,
        "6454": 13,
        "6455": 91,
        "6456": 110,
        "6457": 53,
        "6458": 127,
        "6459": 101,
        "6460": 171,
        "6461": 154,
        "6462": 165,
        "6463": 110,
        "6464": 143,
        "6465": 82,
        "6466": 12,
        "6467": 163,
        "6468": 140,
        "6469": 108,
        "6470": 162,
        "6471": 27,
        "6472": 245,
        "6473": 162,
        "6474": 150,
        "6475": 119,
        "6476": 18,
        "6477": 97,
        "6478": 192,
        "6479": 136,
        "6480": 152,
        "6481": 111,
        "6482": 137,
        "6483": 76,
        "6484": 69,
        "6485": 76,
        "6486": 192,
        "6487": 30,
        "6488": 112,
        "6489": 84,
        "6490": 60,
        "6491": 18,
        "6492": 158,
        "6493": 94,
        "6494": 99,
        "6495": 236,
        "6496": 176,
        "6497": 246,
        "6498": 189,
        "6499": 82,
        "6500": 193,
        "6501": 80,
        "6502": 230,
        "6503": 77,
        "6504": 87,
        "6505": 168,
        "6506": 104,
        "6507": 66,
        "6508": 67,
        "6509": 65,
        "6510": 123,
        "6511": 105,
        "6512": 25,
        "6513": 7,
        "6514": 185,
        "6515": 29,
        "6516": 105,
        "6517": 128,
        "6518": 213,
        "6519": 223,
        "6520": 92,
        "6521": 188,
        "6522": 86,
        "6523": 165,
        "6524": 68,
        "6525": 233,
        "6526": 199,
        "6527": 62,
        "6528": 190,
        "6529": 52,
        "6530": 36,
        "6531": 198,
        "6532": 158,
        "6533": 7,
        "6534": 133,
        "6535": 158,
        "6536": 145,
        "6537": 159,
        "6538": 113,
        "6539": 39,
        "6540": 169,
        "6541": 218,
        "6542": 169,
        "6543": 159,
        "6544": 234,
        "6545": 186,
        "6546": 10,
        "6547": 247,
        "6548": 152,
        "6549": 220,
        "6550": 162,
        "6551": 1,
        "6552": 53,
        "6553": 74,
        "6554": 88,
        "6555": 152,
        "6556": 103,
        "6557": 170,
        "6558": 45,
        "6559": 234,
        "6560": 54,
        "6561": 244,
        "6562": 51,
        "6563": 255,
        "6564": 7,
        "6565": 130,
        "6566": 76,
        "6567": 108,
        "6568": 40,
        "6569": 43,
        "6570": 106,
        "6571": 59,
        "6572": 22,
        "6573": 38,
        "6574": 88,
        "6575": 166,
        "6576": 33,
        "6577": 15,
        "6578": 110,
        "6579": 50,
        "6580": 174,
        "6581": 39,
        "6582": 20,
        "6583": 71,
        "6584": 44,
        "6585": 3,
        "6586": 127,
        "6587": 106,
        "6588": 100,
        "6589": 172,
        "6590": 223,
        "6591": 16,
        "6592": 59,
        "6593": 213,
        "6594": 198,
        "6595": 82,
        "6596": 103,
        "6597": 5,
        "6598": 232,
        "6599": 181,
        "6600": 22,
        "6601": 95,
        "6602": 147,
        "6603": 171,
        "6604": 65,
        "6605": 132,
        "6606": 208,
        "6607": 129,
        "6608": 3,
        "6609": 57,
        "6610": 98,
        "6611": 224,
        "6612": 44,
        "6613": 153,
        "6614": 32,
        "6615": 21,
        "6616": 46,
        "6617": 246,
        "6618": 225,
        "6619": 32,
        "6620": 92,
        "6621": 19,
        "6622": 95,
        "6623": 162,
        "6624": 44,
        "6625": 198,
        "6626": 95,
        "6627": 162,
        "6628": 224,
        "6629": 122,
        "6630": 168,
        "6631": 172,
        "6632": 81,
        "6633": 229,
        "6634": 160,
        "6635": 75,
        "6636": 123,
        "6637": 182,
        "6638": 19,
        "6639": 214,
        "6640": 222,
        "6641": 184,
        "6642": 195,
        "6643": 70,
        "6644": 146,
        "6645": 50,
        "6646": 160,
        "6647": 11,
        "6648": 204,
        "6649": 138,
        "6650": 214,
        "6651": 170,
        "6652": 143,
        "6653": 26,
        "6654": 204,
        "6655": 138,
        "6656": 18,
        "6657": 179,
        "6658": 170,
        "6659": 38,
        "6660": 19,
        "6661": 232,
        "6662": 76,
        "6663": 104,
        "6664": 209,
        "6665": 146,
        "6666": 204,
        "6667": 105,
        "6668": 68,
        "6669": 121,
        "6670": 192,
        "6671": 184,
        "6672": 211,
        "6673": 185,
        "6674": 250,
        "6675": 175,
        "6676": 213,
        "6677": 8,
        "6678": 13,
        "6679": 65,
        "6680": 47,
        "6681": 182,
        "6682": 51,
        "6683": 245,
        "6684": 179,
        "6685": 82,
        "6686": 70,
        "6687": 197,
        "6688": 54,
        "6689": 217,
        "6690": 138,
        "6691": 22,
        "6692": 232,
        "6693": 114,
        "6694": 121,
        "6695": 215,
        "6696": 16,
        "6697": 190,
        "6698": 248,
        "6699": 194,
        "6700": 189,
        "6701": 157,
        "6702": 39,
        "6703": 68,
        "6704": 210,
        "6705": 166,
        "6706": 53,
        "6707": 41,
        "6708": 0,
        "6709": 135,
        "6710": 162,
        "6711": 184,
        "6712": 107,
        "6713": 191,
        "6714": 205,
        "6715": 44,
        "6716": 68,
        "6717": 90,
        "6718": 82,
        "6719": 200,
        "6720": 104,
        "6721": 247,
        "6722": 24,
        "6723": 230,
        "6724": 80,
        "6725": 69,
        "6726": 33,
        "6727": 172,
        "6728": 240,
        "6729": 189,
        "6730": 7,
        "6731": 254,
        "6732": 25,
        "6733": 97,
        "6734": 224,
        "6735": 10,
        "6736": 198,
        "6737": 237,
        "6738": 45,
        "6739": 157,
        "6740": 22,
        "6741": 155,
        "6742": 177,
        "6743": 42,
        "6744": 27,
        "6745": 222,
        "6746": 108,
        "6747": 229,
        "6748": 241,
        "6749": 127,
        "6750": 66,
        "6751": 132,
        "6752": 128,
        "6753": 23,
        "6754": 188,
        "6755": 182,
        "6756": 17,
        "6757": 56,
        "6758": 10,
        "6759": 127,
        "6760": 126,
        "6761": 241,
        "6762": 51,
        "6763": 138,
        "6764": 216,
        "6765": 171,
        "6766": 154,
        "6767": 0,
        "6768": 72,
        "6769": 30,
        "6770": 140,
        "6771": 210,
        "6772": 245,
        "6773": 66,
        "6774": 79,
        "6775": 160,
        "6776": 248,
        "6777": 194,
        "6778": 92,
        "6779": 242,
        "6780": 71,
        "6781": 77,
        "6782": 95,
        "6783": 40,
        "6784": 17,
        "6785": 89,
        "6786": 53,
        "6787": 115,
        "6788": 187,
        "6789": 189,
        "6790": 55,
        "6791": 40,
        "6792": 176,
        "6793": 16,
        "6794": 28,
        "6795": 131,
        "6796": 7,
        "6797": 101,
        "6798": 3,
        "6799": 145,
        "6800": 59,
        "6801": 223,
        "6802": 178,
        "6803": 134,
        "6804": 64,
        "6805": 200,
        "6806": 90,
        "6807": 118,
        "6808": 81,
        "6809": 205,
        "6810": 155,
        "6811": 231,
        "6812": 213,
        "6813": 26,
        "6814": 198,
        "6815": 184,
        "6816": 100,
        "6817": 16,
        "6818": 18,
        "6819": 118,
        "6820": 221,
        "6821": 104,
        "6822": 137,
        "6823": 192,
        "6824": 118,
        "6825": 90,
        "6826": 206,
        "6827": 175,
        "6828": 225,
        "6829": 116,
        "6830": 202,
        "6831": 190,
        "6832": 29,
        "6833": 189,
        "6834": 2,
        "6835": 246,
        "6836": 58,
        "6837": 97,
        "6838": 60,
        "6839": 49,
        "6840": 38,
        "6841": 134,
        "6842": 223,
        "6843": 95,
        "6844": 64,
        "6845": 61,
        "6846": 1,
        "6847": 51,
        "6848": 86,
        "6849": 152,
        "6850": 32,
        "6851": 104,
        "6852": 127,
        "6853": 198,
        "6854": 242,
        "6855": 60,
        "6856": 3,
        "6857": 85,
        "6858": 71,
        "6859": 207,
        "6860": 130,
        "6861": 98,
        "6862": 223,
        "6863": 61,
        "6864": 19,
        "6865": 109,
        "6866": 180,
        "6867": 7,
        "6868": 192,
        "6869": 79,
        "6870": 39,
        "6871": 243,
        "6872": 155,
        "6873": 195,
        "6874": 58,
        "6875": 80,
        "6876": 108,
        "6877": 73,
        "6878": 109,
        "6879": 227,
        "6880": 44,
        "6881": 141,
        "6882": 209,
        "6883": 221,
        "6884": 105,
        "6885": 141,
        "6886": 128,
        "6887": 91,
        "6888": 76,
        "6889": 8,
        "6890": 245,
        "6891": 211,
        "6892": 216,
        "6893": 231,
        "6894": 169,
        "6895": 242,
        "6896": 37,
        "6897": 93,
        "6898": 153,
        "6899": 154,
        "6900": 123,
        "6901": 138,
        "6902": 151,
        "6903": 28,
        "6904": 8,
        "6905": 159,
        "6906": 232,
        "6907": 233,
        "6908": 60,
        "6909": 222,
        "6910": 255,
        "6911": 58,
        "6912": 45,
        "6913": 42,
        "6914": 68,
        "6915": 230,
        "6916": 97,
        "6917": 228,
        "6918": 212,
        "6919": 187,
        "6920": 7,
        "6921": 88,
        "6922": 195,
        "6923": 171,
        "6924": 7,
        "6925": 208,
        "6926": 143,
        "6927": 102,
        "6928": 148,
        "6929": 19,
        "6930": 81,
        "6931": 93,
        "6932": 251,
        "6933": 162,
        "6934": 203,
        "6935": 83,
        "6936": 226,
        "6937": 53,
        "6938": 39,
        "6939": 83,
        "6940": 114,
        "6941": 152,
        "6942": 81,
        "6943": 156,
        "6944": 119,
        "6945": 45,
        "6946": 37,
        "6947": 190,
        "6948": 152,
        "6949": 154,
        "6950": 164,
        "6951": 188,
        "6952": 33,
        "6953": 148,
        "6954": 149,
        "6955": 189,
        "6956": 133,
        "6957": 206,
        "6958": 207,
        "6959": 121,
        "6960": 61,
        "6961": 80,
        "6962": 72,
        "6963": 78,
        "6964": 23,
        "6965": 28,
        "6966": 30,
        "6967": 250,
        "6968": 61,
        "6969": 2,
        "6970": 154,
        "6971": 59,
        "6972": 76,
        "6973": 20,
        "6974": 173,
        "6975": 79,
        "6976": 67,
        "6977": 108,
        "6978": 79,
        "6979": 131,
        "6980": 202,
        "6981": 240,
        "6982": 68,
        "6983": 98,
        "6984": 18,
        "6985": 23,
        "6986": 242,
        "6987": 91,
        "6988": 178,
        "6989": 172,
        "6990": 137,
        "6991": 50,
        "6992": 252,
        "6993": 39,
        "6994": 218,
        "6995": 13,
        "6996": 136,
        "6997": 77,
        "6998": 59,
        "6999": 110,
        "7000": 144,
        "7001": 15,
        "7002": 94,
        "7003": 181,
        "7004": 21,
        "7005": 240,
        "7006": 93,
        "7007": 245,
        "7008": 170,
        "7009": 185,
        "7010": 177,
        "7011": 103,
        "7012": 20,
        "7013": 23,
        "7014": 213,
        "7015": 215,
        "7016": 247,
        "7017": 39,
        "7018": 232,
        "7019": 104,
        "7020": 112,
        "7021": 98,
        "7022": 137,
        "7023": 95,
        "7024": 216,
        "7025": 226,
        "7026": 94,
        "7027": 215,
        "7028": 14,
        "7029": 191,
        "7030": 92,
        "7031": 88,
        "7032": 144,
        "7033": 38,
        "7034": 245,
        "7035": 96,
        "7036": 200,
        "7037": 33,
        "7038": 254,
        "7039": 20,
        "7040": 54,
        "7041": 87,
        "7042": 224,
        "7043": 137,
        "7044": 105,
        "7045": 67,
        "7046": 114,
        "7047": 36,
        "7048": 151,
        "7049": 43,
        "7050": 37,
        "7051": 7,
        "7052": 242,
        "7053": 64,
        "7054": 54,
        "7055": 225,
        "7056": 152,
        "7057": 204,
        "7058": 1,
        "7059": 60,
        "7060": 98,
        "7061": 124,
        "7062": 210,
        "7063": 6,
        "7064": 118,
        "7065": 229,
        "7066": 125,
        "7067": 88,
        "7068": 253,
        "7069": 198,
        "7070": 136,
        "7071": 185,
        "7072": 195,
        "7073": 197,
        "7074": 237,
        "7075": 4,
        "7076": 203,
        "7077": 38,
        "7078": 206,
        "7079": 55,
        "7080": 150,
        "7081": 207,
        "7082": 31,
        "7083": 164,
        "7084": 79,
        "7085": 67,
        "7086": 72,
        "7087": 80,
        "7088": 199,
        "7089": 154,
        "7090": 9,
        "7091": 104,
        "7092": 55,
        "7093": 16,
        "7094": 151,
        "7095": 239,
        "7096": 85,
        "7097": 57,
        "7098": 47,
        "7099": 98,
        "7100": 154,
        "7101": 155,
        "7102": 116,
        "7103": 39,
        "7104": 99,
        "7105": 94,
        "7106": 132,
        "7107": 132,
        "7108": 154,
        "7109": 110,
        "7110": 204,
        "7111": 119,
        "7112": 122,
        "7113": 160,
        "7114": 227,
        "7115": 137,
        "7116": 117,
        "7117": 113,
        "7118": 45,
        "7119": 63,
        "7120": 123,
        "7121": 8,
        "7122": 41,
        "7123": 197,
        "7124": 132,
        "7125": 218,
        "7126": 18,
        "7127": 64,
        "7128": 111,
        "7129": 115,
        "7130": 234,
        "7131": 9,
        "7132": 105,
        "7133": 200,
        "7134": 184,
        "7135": 78,
        "7136": 166,
        "7137": 4,
        "7138": 167,
        "7139": 61,
        "7140": 122,
        "7141": 113,
        "7142": 115,
        "7143": 30,
        "7144": 210,
        "7145": 196,
        "7146": 66,
        "7147": 79,
        "7148": 122,
        "7149": 244,
        "7150": 155,
        "7151": 253,
        "7152": 148,
        "7153": 124,
        "7154": 8,
        "7155": 12,
        "7156": 253,
        "7157": 123,
        "7158": 11,
        "7159": 48,
        "7160": 8,
        "7161": 170,
        "7162": 233,
        "7163": 244,
        "7164": 107,
        "7165": 21,
        "7166": 241,
        "7167": 66,
        "7168": 119,
        "7169": 242,
        "7170": 150,
        "7171": 58,
        "7172": 50,
        "7173": 126,
        "7174": 164,
        "7175": 44,
        "7176": 163,
        "7177": 27,
        "7178": 164,
        "7179": 127,
        "7180": 227,
        "7181": 158,
        "7182": 141,
        "7183": 18,
        "7184": 40,
        "7185": 88,
        "7186": 98,
        "7187": 118,
        "7188": 94,
        "7189": 33,
        "7190": 219,
        "7191": 216,
        "7192": 43,
        "7193": 40,
        "7194": 112,
        "7195": 168,
        "7196": 57,
        "7197": 124,
        "7198": 53,
        "7199": 14,
        "7200": 50,
        "7201": 161,
        "7202": 33,
        "7203": 38,
        "7204": 64,
        "7205": 174,
        "7206": 174,
        "7207": 67,
        "7208": 90,
        "7209": 196,
        "7210": 255,
        "7211": 130,
        "7212": 24,
        "7213": 241,
        "7214": 101,
        "7215": 10,
        "7216": 201,
        "7217": 246,
        "7218": 40,
        "7219": 96,
        "7220": 198,
        "7221": 207,
        "7222": 36,
        "7223": 243,
        "7224": 65,
        "7225": 119,
        "7226": 94,
        "7227": 40,
        "7228": 98,
        "7229": 173,
        "7230": 166,
        "7231": 247,
        "7232": 177,
        "7233": 161,
        "7234": 208,
        "7235": 26,
        "7236": 254,
        "7237": 13,
        "7238": 44,
        "7239": 86,
        "7240": 104,
        "7241": 100,
        "7242": 138,
        "7243": 132,
        "7244": 28,
        "7245": 124,
        "7246": 117,
        "7247": 204,
        "7248": 218,
        "7249": 96,
        "7250": 125,
        "7251": 58,
        "7252": 181,
        "7253": 176,
        "7254": 51,
        "7255": 217,
        "7256": 177,
        "7257": 203,
        "7258": 206,
        "7259": 12,
        "7260": 15,
        "7261": 217,
        "7262": 37,
        "7263": 215,
        "7264": 247,
        "7265": 81,
        "7266": 30,
        "7267": 0,
        "7268": 27,
        "7269": 94,
        "7270": 152,
        "7271": 2,
        "7272": 218,
        "7273": 112,
        "7274": 163,
        "7275": 30,
        "7276": 248,
        "7277": 171,
        "7278": 241,
        "7279": 179,
        "7280": 255,
        "7281": 213,
        "7282": 143,
        "7283": 190,
        "7284": 15,
        "7285": 160,
        "7286": 152,
        "7287": 236,
        "7288": 69,
        "7289": 170,
        "7290": 78,
        "7291": 90,
        "7292": 226,
        "7293": 149,
        "7294": 135,
        "7295": 239,
        "7296": 215,
        "7297": 134,
        "7298": 168,
        "7299": 158,
        "7300": 169,
        "7301": 156,
        "7302": 133,
        "7303": 163,
        "7304": 134,
        "7305": 32,
        "7306": 53,
        "7307": 146,
        "7308": 74,
        "7309": 68,
        "7310": 36,
        "7311": 86,
        "7312": 70,
        "7313": 211,
        "7314": 138,
        "7315": 161,
        "7316": 180,
        "7317": 248,
        "7318": 69,
        "7319": 2,
        "7320": 233,
        "7321": 14,
        "7322": 153,
        "7323": 189,
        "7324": 55,
        "7325": 253,
        "7326": 193,
        "7327": 206,
        "7328": 158,
        "7329": 201,
        "7330": 151,
        "7331": 250,
        "7332": 238,
        "7333": 18,
        "7334": 118,
        "7335": 105,
        "7336": 154,
        "7337": 226,
        "7338": 226,
        "7339": 82,
        "7340": 49,
        "7341": 169,
        "7342": 153,
        "7343": 100,
        "7344": 165,
        "7345": 249,
        "7346": 36,
        "7347": 147,
        "7348": 243,
        "7349": 148,
        "7350": 12,
        "7351": 128,
        "7352": 53,
        "7353": 161,
        "7354": 237,
        "7355": 78,
        "7356": 216,
        "7357": 171,
        "7358": 248,
        "7359": 251,
        "7360": 147,
        "7361": 142,
        "7362": 64,
        "7363": 32,
        "7364": 193,
        "7365": 28,
        "7366": 121,
        "7367": 150,
        "7368": 136,
        "7369": 152,
        "7370": 59,
        "7371": 130,
        "7372": 32,
        "7373": 32,
        "7374": 128,
        "7375": 81,
        "7376": 80,
        "7377": 161,
        "7378": 149,
        "7379": 47,
        "7380": 56,
        "7381": 105,
        "7382": 6,
        "7383": 71,
        "7384": 132,
        "7385": 97,
        "7386": 99,
        "7387": 191,
        "7388": 219,
        "7389": 155,
        "7390": 247,
        "7391": 229,
        "7392": 188,
        "7393": 64,
        "7394": 180,
        "7395": 249,
        "7396": 84,
        "7397": 69,
        "7398": 214,
        "7399": 38,
        "7400": 232,
        "7401": 158,
        "7402": 86,
        "7403": 230,
        "7404": 245,
        "7405": 185,
        "7406": 223,
        "7407": 115,
        "7408": 122,
        "7409": 61,
        "7410": 121,
        "7411": 171,
        "7412": 104,
        "7413": 197,
        "7414": 224,
        "7415": 120,
        "7416": 82,
        "7417": 242,
        "7418": 243,
        "7419": 123,
        "7420": 84,
        "7421": 31,
        "7422": 89,
        "7423": 92,
        "7424": 179,
        "7425": 158,
        "7426": 188,
        "7427": 120,
        "7428": 18,
        "7429": 203,
        "7430": 238,
        "7431": 60,
        "7432": 60,
        "7433": 162,
        "7434": 176,
        "7435": 230,
        "7436": 134,
        "7437": 194,
        "7438": 215,
        "7439": 19,
        "7440": 65,
        "7441": 221,
        "7442": 50,
        "7443": 222,
        "7444": 51,
        "7445": 64,
        "7446": 150,
        "7447": 158,
        "7448": 237,
        "7449": 122,
        "7450": 171,
        "7451": 66,
        "7452": 159,
        "7453": 15,
        "7454": 79,
        "7455": 227,
        "7456": 31,
        "7457": 102,
        "7458": 222,
        "7459": 167,
        "7460": 107,
        "7461": 67,
        "7462": 219,
        "7463": 223,
        "7464": 75,
        "7465": 255,
        "7466": 12,
        "7467": 189,
        "7468": 26,
        "7469": 187,
        "7470": 218,
        "7471": 7,
        "7472": 253,
        "7473": 216,
        "7474": 192,
        "7475": 90,
        "7476": 157,
        "7477": 17,
        "7478": 214,
        "7479": 48,
        "7480": 11,
        "7481": 41,
        "7482": 103,
        "7483": 107,
        "7484": 238,
        "7485": 230,
        "7486": 150,
        "7487": 130,
        "7488": 221,
        "7489": 168,
        "7490": 59,
        "7491": 196,
        "7492": 61,
        "7493": 27,
        "7494": 17,
        "7495": 234,
        "7496": 22,
        "7497": 109,
        "7498": 219,
        "7499": 26,
        "7500": 196,
        "7501": 116,
        "7502": 24,
        "7503": 81,
        "7504": 138,
        "7505": 240,
        "7506": 123,
        "7507": 117,
        "7508": 0,
        "7509": 179,
        "7510": 77,
        "7511": 132,
        "7512": 127,
        "7513": 215,
        "7514": 225,
        "7515": 166,
        "7516": 167,
        "7517": 229,
        "7518": 220,
        "7519": 104,
        "7520": 35,
        "7521": 237,
        "7522": 139,
        "7523": 205,
        "7524": 26,
        "7525": 207,
        "7526": 119,
        "7527": 89,
        "7528": 27,
        "7529": 177,
        "7530": 157,
        "7531": 240,
        "7532": 161,
        "7533": 113,
        "7534": 104,
        "7535": 4,
        "7536": 252,
        "7537": 164,
        "7538": 131,
        "7539": 225,
        "7540": 19,
        "7541": 46,
        "7542": 13,
        "7543": 219,
        "7544": 134,
        "7545": 152,
        "7546": 236,
        "7547": 140,
        "7548": 65,
        "7549": 253,
        "7550": 92,
        "7551": 66,
        "7552": 155,
        "7553": 56,
        "7554": 21,
        "7555": 167,
        "7556": 84,
        "7557": 67,
        "7558": 49,
        "7559": 5,
        "7560": 27,
        "7561": 101,
        "7562": 238,
        "7563": 107,
        "7564": 52,
        "7565": 12,
        "7566": 49,
        "7567": 38,
        "7568": 115,
        "7569": 13,
        "7570": 211,
        "7571": 237,
        "7572": 112,
        "7573": 138,
        "7574": 34,
        "7575": 2,
        "7576": 29,
        "7577": 52,
        "7578": 155,
        "7579": 153,
        "7580": 80,
        "7581": 180,
        "7582": 57,
        "7583": 74,
        "7584": 93,
        "7585": 222,
        "7586": 206,
        "7587": 218,
        "7588": 190,
        "7589": 20,
        "7590": 244,
        "7591": 153,
        "7592": 5,
        "7593": 80,
        "7594": 148,
        "7595": 7,
        "7596": 113,
        "7597": 84,
        "7598": 131,
        "7599": 208,
        "7600": 17,
        "7601": 56,
        "7602": 71,
        "7603": 92,
        "7604": 172,
        "7605": 231,
        "7606": 219,
        "7607": 181,
        "7608": 2,
        "7609": 79,
        "7610": 132,
        "7611": 131,
        "7612": 240,
        "7613": 93,
        "7614": 15,
        "7615": 221,
        "7616": 22,
        "7617": 140,
        "7618": 70,
        "7619": 13,
        "7620": 101,
        "7621": 22,
        "7622": 64,
        "7623": 92,
        "7624": 196,
        "7625": 107,
        "7626": 246,
        "7627": 231,
        "7628": 224,
        "7629": 185,
        "7630": 157,
        "7631": 183,
        "7632": 116,
        "7633": 169,
        "7634": 192,
        "7635": 18,
        "7636": 47,
        "7637": 181,
        "7638": 209,
        "7639": 118,
        "7640": 33,
        "7641": 121,
        "7642": 27,
        "7643": 5,
        "7644": 47,
        "7645": 190,
        "7646": 26,
        "7647": 62,
        "7648": 235,
        "7649": 137,
        "7650": 174,
        "7651": 16,
        "7652": 47,
        "7653": 236,
        "7654": 46,
        "7655": 220,
        "7656": 233,
        "7657": 38,
        "7658": 68,
        "7659": 203,
        "7660": 159,
        "7661": 115,
        "7662": 194,
        "7663": 134,
        "7664": 134,
        "7665": 120,
        "7666": 33,
        "7667": 196,
        "7668": 241,
        "7669": 36,
        "7670": 157,
        "7671": 248,
        "7672": 95,
        "7673": 214,
        "7674": 24,
        "7675": 162,
        "7676": 51,
        "7677": 168,
        "7678": 112,
        "7679": 56,
        "7680": 224,
        "7681": 46,
        "7682": 102,
        "7683": 157,
        "7684": 246,
        "7685": 190,
        "7686": 203,
        "7687": 6,
        "7688": 123,
        "7689": 68,
        "7690": 251,
        "7691": 5,
        "7692": 195,
        "7693": 142,
        "7694": 189,
        "7695": 188,
        "7696": 250,
        "7697": 102,
        "7698": 135,
        "7699": 195,
        "7700": 45,
        "7701": 62,
        "7702": 76,
        "7703": 15,
        "7704": 159,
        "7705": 165,
        "7706": 126,
        "7707": 224,
        "7708": 87,
        "7709": 0,
        "7710": 171,
        "7711": 32,
        "7712": 108,
        "7713": 230,
        "7714": 71,
        "7715": 100,
        "7716": 252,
        "7717": 234,
        "7718": 58,
        "7719": 210,
        "7720": 61,
        "7721": 86,
        "7722": 165,
        "7723": 72,
        "7724": 135,
        "7725": 153,
        "7726": 230,
        "7727": 200,
        "7728": 66,
        "7729": 207,
        "7730": 91,
        "7731": 63,
        "7732": 135,
        "7733": 216,
        "7734": 122,
        "7735": 192,
        "7736": 11,
        "7737": 227,
        "7738": 211,
        "7739": 77,
        "7740": 233,
        "7741": 215,
        "7742": 134,
        "7743": 7,
        "7744": 37,
        "7745": 64,
        "7746": 61,
        "7747": 54,
        "7748": 150,
        "7749": 195,
        "7750": 157,
        "7751": 135,
        "7752": 74,
        "7753": 225,
        "7754": 76,
        "7755": 27,
        "7756": 114,
        "7757": 117,
        "7758": 35,
        "7759": 134,
        "7760": 50,
        "7761": 99,
        "7762": 173,
        "7763": 241,
        "7764": 88,
        "7765": 230,
        "7766": 63,
        "7767": 169,
        "7768": 85,
        "7769": 235,
        "7770": 191,
        "7771": 229,
        "7772": 106,
        "7773": 194,
        "7774": 218,
        "7775": 46,
        "7776": 105,
        "7777": 186,
        "7778": 80,
        "7779": 147,
        "7780": 121,
        "7781": 137,
        "7782": 23,
        "7783": 85,
        "7784": 28,
        "7785": 205,
        "7786": 160,
        "7787": 145,
        "7788": 0,
        "7789": 220,
        "7790": 116,
        "7791": 192,
        "7792": 242,
        "7793": 9,
        "7794": 53,
        "7795": 139,
        "7796": 109,
        "7797": 218,
        "7798": 148,
        "7799": 79,
        "7800": 93,
        "7801": 243,
        "7802": 237,
        "7803": 191,
        "7804": 211,
        "7805": 208,
        "7806": 197,
        "7807": 149,
        "7808": 134,
        "7809": 8,
        "7810": 173,
        "7811": 198,
        "7812": 61,
        "7813": 70,
        "7814": 167,
        "7815": 136,
        "7816": 178,
        "7817": 22,
        "7818": 14,
        "7819": 126,
        "7820": 19,
        "7821": 53,
        "7822": 0,
        "7823": 241,
        "7824": 19,
        "7825": 4,
        "7826": 39,
        "7827": 226,
        "7828": 92,
        "7829": 23,
        "7830": 27,
        "7831": 126,
        "7832": 186,
        "7833": 216,
        "7834": 97,
        "7835": 42,
        "7836": 253,
        "7837": 99,
        "7838": 133,
        "7839": 146,
        "7840": 247,
        "7841": 197,
        "7842": 186,
        "7843": 86,
        "7844": 79,
        "7845": 223,
        "7846": 176,
        "7847": 202,
        "7848": 112,
        "7849": 0,
        "7850": 167,
        "7851": 43,
        "7852": 125,
        "7853": 244,
        "7854": 154,
        "7855": 135,
        "7856": 66,
        "7857": 158,
        "7858": 92,
        "7859": 64,
        "7860": 112,
        "7861": 223,
        "7862": 198,
        "7863": 94,
        "7864": 251,
        "7865": 99,
        "7866": 64,
        "7867": 182,
        "7868": 165,
        "7869": 166,
        "7870": 66,
        "7871": 5,
        "7872": 45,
        "7873": 21,
        "7874": 56,
        "7875": 208,
        "7876": 221,
        "7877": 62,
        "7878": 140,
        "7879": 185,
        "7880": 89,
        "7881": 129,
        "7882": 151,
        "7883": 28,
        "7884": 27,
        "7885": 73,
        "7886": 133,
        "7887": 246,
        "7888": 129,
        "7889": 243,
        "7890": 183,
        "7891": 116,
        "7892": 27,
        "7893": 232,
        "7894": 111,
        "7895": 204,
        "7896": 67,
        "7897": 252,
        "7898": 16,
        "7899": 232,
        "7900": 24,
        "7901": 84,
        "7902": 172,
        "7903": 253,
        "7904": 93,
        "7905": 202,
        "7906": 66,
        "7907": 179,
        "7908": 179,
        "7909": 167,
        "7910": 131,
        "7911": 93,
        "7912": 119,
        "7913": 226,
        "7914": 241,
        "7915": 5,
        "7916": 253,
        "7917": 42,
        "7918": 224,
        "7919": 159,
        "7920": 3,
        "7921": 70,
        "7922": 86,
        "7923": 183,
        "7924": 218,
        "7925": 43,
        "7926": 172,
        "7927": 1,
        "7928": 37,
        "7929": 64,
        "7930": 49,
        "7931": 235,
        "7932": 90,
        "7933": 25,
        "7934": 48,
        "7935": 231,
        "7936": 23,
        "7937": 220,
        "7938": 146,
        "7939": 217,
        "7940": 212,
        "7941": 107,
        "7942": 223,
        "7943": 22,
        "7944": 39,
        "7945": 201,
        "7946": 10,
        "7947": 80,
        "7948": 25,
        "7949": 11,
        "7950": 26,
        "7951": 235,
        "7952": 20,
        "7953": 75,
        "7954": 158,
        "7955": 201,
        "7956": 81,
        "7957": 123,
        "7958": 54,
        "7959": 157,
        "7960": 111,
        "7961": 206,
        "7962": 98,
        "7963": 241,
        "7964": 129,
        "7965": 175,
        "7966": 93,
        "7967": 80,
        "7968": 181,
        "7969": 47,
        "7970": 23,
        "7971": 139,
        "7972": 137,
        "7973": 182,
        "7974": 48,
        "7975": 175,
        "7976": 113,
        "7977": 111,
        "7978": 230,
        "7979": 122,
        "7980": 210,
        "7981": 39,
        "7982": 186,
        "7983": 190,
        "7984": 225,
        "7985": 42,
        "7986": 234,
        "7987": 207,
        "7988": 113,
        "7989": 144,
        "7990": 231,
        "7991": 120,
        "7992": 206,
        "7993": 62,
        "7994": 197,
        "7995": 162,
        "7996": 48,
        "7997": 67,
        "7998": 250,
        "7999": 83,
        "8000": 239,
        "8001": 88,
        "8002": 77,
        "8003": 165,
        "8004": 131,
        "8005": 254,
        "8006": 206,
        "8007": 79,
        "8008": 221,
        "8009": 163,
        "8010": 242,
        "8011": 185,
        "8012": 32,
        "8013": 173,
        "8014": 143,
        "8015": 167,
        "8016": 221,
        "8017": 87,
        "8018": 63,
        "8019": 255,
        "8020": 170,
        "8021": 171,
        "8022": 160,
        "8023": 24,
        "8024": 144,
        "8025": 188,
        "8026": 58,
        "8027": 107,
        "8028": 58,
        "8029": 185,
        "8030": 82,
        "8031": 168,
        "8032": 15,
        "8033": 236,
        "8034": 216,
        "8035": 242,
        "8036": 82,
        "8037": 45,
        "8038": 222,
        "8039": 87,
        "8040": 198,
        "8041": 66,
        "8042": 194,
        "8043": 63,
        "8044": 17,
        "8045": 241,
        "8046": 88,
        "8047": 62,
        "8048": 233,
        "8049": 132,
        "8050": 5,
        "8051": 38,
        "8052": 117,
        "8053": 133,
        "8054": 143,
        "8055": 44,
        "8056": 12,
        "8057": 77,
        "8058": 189,
        "8059": 13,
        "8060": 178,
        "8061": 249,
        "8062": 223,
        "8063": 216,
        "8064": 60,
        "8065": 144,
        "8066": 179,
        "8067": 61,
        "8068": 112,
        "8069": 186,
        "8070": 102,
        "8071": 91,
        "8072": 106,
        "8073": 243,
        "8074": 224,
        "8075": 226,
        "8076": 248,
        "8077": 15,
        "8078": 77,
        "8079": 64,
        "8080": 191,
        "8081": 86,
        "8082": 76,
        "8083": 53,
        "8084": 69,
        "8085": 55,
        "8086": 13,
        "8087": 252,
        "8088": 92,
        "8089": 122,
        "8090": 96,
        "8091": 119,
        "8092": 114,
        "8093": 246,
        "8094": 161,
        "8095": 243,
        "8096": 122,
        "8097": 227,
        "8098": 155,
        "8099": 9,
        "8100": 84,
        "8101": 96,
        "8102": 123,
        "8103": 204,
        "8104": 7,
        "8105": 185,
        "8106": 30,
        "8107": 66,
        "8108": 156,
        "8109": 67,
        "8110": 104,
        "8111": 32,
        "8112": 251,
        "8113": 202,
        "8114": 215,
        "8115": 242,
        "8116": 187,
        "8117": 103,
        "8118": 203,
        "8119": 253,
        "8120": 58,
        "8121": 41,
        "8122": 156,
        "8123": 45,
        "8124": 189,
        "8125": 60,
        "8126": 237,
        "8127": 13,
        "8128": 34,
        "8129": 179,
        "8130": 21,
        "8131": 65,
        "8132": 60,
        "8133": 5,
        "8134": 33,
        "8135": 151,
        "8136": 42,
        "8137": 219,
        "8138": 3,
        "8139": 228,
        "8140": 238,
        "8141": 229,
        "8142": 150,
        "8143": 99,
        "8144": 78,
        "8145": 156,
        "8146": 247,
        "8147": 147,
        "8148": 20,
        "8149": 161,
        "8150": 98,
        "8151": 184,
        "8152": 72,
        "8153": 204,
        "8154": 117,
        "8155": 164,
        "8156": 165,
        "8157": 31,
        "8158": 39,
        "8159": 26,
        "8160": 7,
        "8161": 176,
        "8162": 129,
        "8163": 9,
        "8164": 143,
        "8165": 156,
        "8166": 62,
        "8167": 171,
        "8168": 203,
        "8169": 106,
        "8170": 237,
        "8171": 134,
        "8172": 213,
        "8173": 96,
        "8174": 124,
        "8175": 215,
        "8176": 50,
        "8177": 15,
        "8178": 100,
        "8179": 75,
        "8180": 102,
        "8181": 215,
        "8182": 193,
        "8183": 112,
        "8184": 27,
        "8185": 214,
        "8186": 57,
        "8187": 218,
        "8188": 48,
        "8189": 5,
        "8190": 190,
        "8191": 157,
        "8192": 161,
        "8193": 1,
        "8194": 210,
        "8195": 17,
        "8196": 66,
        "8197": 134,
        "8198": 119,
        "8199": 139,
        "8200": 250,
        "8201": 113,
        "8202": 55,
        "8203": 235,
        "8204": 37,
        "8205": 2,
        "8206": 174,
        "8207": 107,
        "8208": 212,
        "8209": 83,
        "8210": 224,
        "8211": 236,
        "8212": 50,
        "8213": 174,
        "8214": 225,
        "8215": 66,
        "8216": 139,
        "8217": 3,
        "8218": 197,
        "8219": 199,
        "8220": 18,
        "8221": 162,
        "8222": 189,
        "8223": 84,
        "8224": 118,
        "8225": 74,
        "8226": 61,
        "8227": 233,
        "8228": 27,
        "8229": 86,
        "8230": 209,
        "8231": 18,
        "8232": 247,
        "8233": 200,
        "8234": 79,
        "8235": 190,
        "8236": 187,
        "8237": 249,
        "8238": 205,
        "8239": 14,
        "8240": 189,
        "8241": 242,
        "8242": 120,
        "8243": 49,
        "8244": 54,
        "8245": 13,
        "8246": 195,
        "8247": 239,
        "8248": 59,
        "8249": 208,
        "8250": 174,
        "8251": 36,
        "8252": 143,
        "8253": 59,
        "8254": 33,
        "8255": 178,
        "8256": 28,
        "8257": 20,
        "8258": 39,
        "8259": 180,
        "8260": 69,
        "8261": 114,
        "8262": 90,
        "8263": 188,
        "8264": 78,
        "8265": 150,
        "8266": 51,
        "8267": 164,
        "8268": 166,
        "8269": 227,
        "8270": 189,
        "8271": 181,
        "8272": 118,
        "8273": 133,
        "8274": 47,
        "8275": 187,
        "8276": 157,
        "8277": 68,
        "8278": 111,
        "8279": 193,
        "8280": 240,
        "8281": 198,
        "8282": 85,
        "8283": 88,
        "8284": 97,
        "8285": 121,
        "8286": 179,
        "8287": 20,
        "8288": 69,
        "8289": 80,
        "8290": 194,
        "8291": 186,
        "8292": 150,
        "8293": 123,
        "8294": 67,
        "8295": 19,
        "8296": 11,
        "8297": 186,
        "8298": 98,
        "8299": 78,
        "8300": 213,
        "8301": 251,
        "8302": 209,
        "8303": 247,
        "8304": 5,
        "8305": 213,
        "8306": 216,
        "8307": 97,
        "8308": 158,
        "8309": 142,
        "8310": 185,
        "8311": 127,
        "8312": 232,
        "8313": 85,
        "8314": 231,
        "8315": 142,
        "8316": 71,
        "8317": 80,
        "8318": 22,
        "8319": 252,
        "8320": 11,
        "8321": 16,
        "8322": 123,
        "8323": 188,
        "8324": 241,
        "8325": 128,
        "8326": 40,
        "8327": 232,
        "8328": 9,
        "8329": 235,
        "8330": 108,
        "8331": 57,
        "8332": 135,
        "8333": 144,
        "8334": 108,
        "8335": 156,
        "8336": 206,
        "8337": 221,
        "8338": 70,
        "8339": 83,
        "8340": 253,
        "8341": 254,
        "8342": 79,
        "8343": 37,
        "8344": 161,
        "8345": 204,
        "8346": 134,
        "8347": 43,
        "8348": 139,
        "8349": 248,
        "8350": 182,
        "8351": 30,
        "8352": 118,
        "8353": 64,
        "8354": 236,
        "8355": 142,
        "8356": 60,
        "8357": 162,
        "8358": 23,
        "8359": 44,
        "8360": 203,
        "8361": 10,
        "8362": 111,
        "8363": 57,
        "8364": 187,
        "8365": 149,
        "8366": 199,
        "8367": 23,
        "8368": 57,
        "8369": 105,
        "8370": 176,
        "8371": 192,
        "8372": 70,
        "8373": 29,
        "8374": 252,
        "8375": 191,
        "8376": 176,
        "8377": 221,
        "8378": 213,
        "8379": 25,
        "8380": 103,
        "8381": 243,
        "8382": 171,
        "8383": 172,
        "8384": 80,
        "8385": 124,
        "8386": 190,
        "8387": 88,
        "8388": 214,
        "8389": 55,
        "8390": 135,
        "8391": 129,
        "8392": 60,
        "8393": 114,
        "8394": 38,
        "8395": 64,
        "8396": 184,
        "8397": 201,
        "8398": 123,
        "8399": 125,
        "8400": 27,
        "8401": 10,
        "8402": 92,
        "8403": 65,
        "8404": 40,
        "8405": 191,
        "8406": 91,
        "8407": 144,
        "8408": 153,
        "8409": 163,
        "8410": 140,
        "8411": 144,
        "8412": 11,
        "8413": 219,
        "8414": 119,
        "8415": 100,
        "8416": 237,
        "8417": 144,
        "8418": 52,
        "8419": 196,
        "8420": 247,
        "8421": 103,
        "8422": 164,
        "8423": 225,
        "8424": 17,
        "8425": 209,
        "8426": 130,
        "8427": 75,
        "8428": 28,
        "8429": 254,
        "8430": 67,
        "8431": 80,
        "8432": 100,
        "8433": 138,
        "8434": 93,
        "8435": 146,
        "8436": 241,
        "8437": 22,
        "8438": 203,
        "8439": 254,
        "8440": 17,
        "8441": 82,
        "8442": 251,
        "8443": 250,
        "8444": 15,
        "8445": 246,
        "8446": 197,
        "8447": 43,
        "8448": 223,
        "8449": 137,
        "8450": 35,
        "8451": 81,
        "8452": 170,
        "8453": 148,
        "8454": 41,
        "8455": 116,
        "8456": 26,
        "8457": 108,
        "8458": 30,
        "8459": 255,
        "8460": 153,
        "8461": 22,
        "8462": 175,
        "8463": 158,
        "8464": 53,
        "8465": 173,
        "8466": 203,
        "8467": 93,
        "8468": 78,
        "8469": 10,
        "8470": 238,
        "8471": 72,
        "8472": 235,
        "8473": 80,
        "8474": 208,
        "8475": 91,
        "8476": 243,
        "8477": 117,
        "8478": 46,
        "8479": 141,
        "8480": 242,
        "8481": 140,
        "8482": 8,
        "8483": 232,
        "8484": 68,
        "8485": 98,
        "8486": 121,
        "8487": 73,
        "8488": 9,
        "8489": 193,
        "8490": 42,
        "8491": 15,
        "8492": 25,
        "8493": 199,
        "8494": 115,
        "8495": 210,
        "8496": 17,
        "8497": 245,
        "8498": 24,
        "8499": 110,
        "8500": 49,
        "8501": 115,
        "8502": 249,
        "8503": 134,
        "8504": 207,
        "8505": 42,
        "8506": 65,
        "8507": 45,
        "8508": 133,
        "8509": 63,
        "8510": 172,
        "8511": 198,
        "8512": 132,
        "8513": 53,
        "8514": 227,
        "8515": 138,
        "8516": 81,
        "8517": 31,
        "8518": 36,
        "8519": 144,
        "8520": 153,
        "8521": 220,
        "8522": 161,
        "8523": 84,
        "8524": 247,
        "8525": 16,
        "8526": 241,
        "8527": 77,
        "8528": 22,
        "8529": 153,
        "8530": 2,
        "8531": 174,
        "8532": 162,
        "8533": 246,
        "8534": 137,
        "8535": 166,
        "8536": 24,
        "8537": 35,
        "8538": 225,
        "8539": 239,
        "8540": 80,
        "8541": 58,
        "8542": 215,
        "8543": 41,
        "8544": 143,
        "8545": 232,
        "8546": 219,
        "8547": 35,
        "8548": 108,
        "8549": 90,
        "8550": 95,
        "8551": 213,
        "8552": 48,
        "8553": 80,
        "8554": 160,
        "8555": 27,
        "8556": 154,
        "8557": 168,
        "8558": 181,
        "8559": 182,
        "8560": 171,
        "8561": 77,
        "8562": 78,
        "8563": 167,
        "8564": 3,
        "8565": 171,
        "8566": 22,
        "8567": 42,
        "8568": 253,
        "8569": 146,
        "8570": 135,
        "8571": 208,
        "8572": 179,
        "8573": 221,
        "8574": 106,
        "8575": 208,
        "8576": 60,
        "8577": 244,
        "8578": 79,
        "8579": 85,
        "8580": 205,
        "8581": 35,
        "8582": 212,
        "8583": 63,
        "8584": 162,
        "8585": 180,
        "8586": 166,
        "8587": 65,
        "8588": 11,
        "8589": 61,
        "8590": 145,
        "8591": 210,
        "8592": 136,
        "8593": 31,
        "8594": 251,
        "8595": 180,
        "8596": 38,
        "8597": 242,
        "8598": 166,
        "8599": 244,
        "8600": 181,
        "8601": 111,
        "8602": 31,
        "8603": 156,
        "8604": 160,
        "8605": 90,
        "8606": 117,
        "8607": 248,
        "8608": 64,
        "8609": 70,
        "8610": 192,
        "8611": 236,
        "8612": 15,
        "8613": 139,
        "8614": 82,
        "8615": 8,
        "8616": 229,
        "8617": 130,
        "8618": 26,
        "8619": 31,
        "8620": 156,
        "8621": 102,
        "8622": 232,
        "8623": 193,
        "8624": 24,
        "8625": 7,
        "8626": 153,
        "8627": 153,
        "8628": 125,
        "8629": 0,
        "8630": 95,
        "8631": 170,
        "8632": 123,
        "8633": 81,
        "8634": 162,
        "8635": 101,
        "8636": 167,
        "8637": 55,
        "8638": 23,
        "8639": 208,
        "8640": 117,
        "8641": 147,
        "8642": 158,
        "8643": 193,
        "8644": 1,
        "8645": 83,
        "8646": 183,
        "8647": 120,
        "8648": 160,
        "8649": 149,
        "8650": 113,
        "8651": 59,
        "8652": 208,
        "8653": 104,
        "8654": 239,
        "8655": 196,
        "8656": 118,
        "8657": 7,
        "8658": 135,
        "8659": 104,
        "8660": 51,
        "8661": 7,
        "8662": 33,
        "8663": 121,
        "8664": 224,
        "8665": 1,
        "8666": 15,
        "8667": 99,
        "8668": 62,
        "8669": 190,
        "8670": 150,
        "8671": 234,
        "8672": 41,
        "8673": 227,
        "8674": 148,
        "8675": 64,
        "8676": 163,
        "8677": 113,
        "8678": 238,
        "8679": 242,
        "8680": 172,
        "8681": 184,
        "8682": 139,
        "8683": 196,
        "8684": 146,
        "8685": 190,
        "8686": 172,
        "8687": 145,
        "8688": 163,
        "8689": 185,
        "8690": 60,
        "8691": 150,
        "8692": 77,
        "8693": 158,
        "8694": 158,
        "8695": 95,
        "8696": 235,
        "8697": 139,
        "8698": 15,
        "8699": 196,
        "8700": 124,
        "8701": 211,
        "8702": 67,
        "8703": 186,
        "8704": 164,
        "8705": 59,
        "8706": 58,
        "8707": 227,
        "8708": 181,
        "8709": 58,
        "8710": 208,
        "8711": 175,
        "8712": 153,
        "8713": 146,
        "8714": 128,
        "8715": 137,
        "8716": 252,
        "8717": 86,
        "8718": 21,
        "8719": 171,
        "8720": 47,
        "8721": 92,
        "8722": 32,
        "8723": 113,
        "8724": 184,
        "8725": 221,
        "8726": 129,
        "8727": 153,
        "8728": 215,
        "8729": 240,
        "8730": 197,
        "8731": 29,
        "8732": 4,
        "8733": 163,
        "8734": 166,
        "8735": 150,
        "8736": 88,
        "8737": 0,
        "8738": 217,
        "8739": 250,
        "8740": 44,
        "8741": 123,
        "8742": 44,
        "8743": 27,
        "8744": 39,
        "8745": 32,
        "8746": 151,
        "8747": 193,
        "8748": 58,
        "8749": 255,
        "8750": 14,
        "8751": 253,
        "8752": 210,
        "8753": 146,
        "8754": 200,
        "8755": 234,
        "8756": 255,
        "8757": 77,
        "8758": 95,
        "8759": 138,
        "8760": 16,
        "8761": 88,
        "8762": 93,
        "8763": 153,
        "8764": 131,
        "8765": 147,
        "8766": 231,
        "8767": 12,
        "8768": 168,
        "8769": 93,
        "8770": 33,
        "8771": 19,
        "8772": 32,
        "8773": 60,
        "8774": 6,
        "8775": 42,
        "8776": 133,
        "8777": 52,
        "8778": 182,
        "8779": 137,
        "8780": 43,
        "8781": 118,
        "8782": 152,
        "8783": 106,
        "8784": 122,
        "8785": 199,
        "8786": 29,
        "8787": 50,
        "8788": 206,
        "8789": 156,
        "8790": 15,
        "8791": 89,
        "8792": 214,
        "8793": 100,
        "8794": 46,
        "8795": 49,
        "8796": 53,
        "8797": 157,
        "8798": 24,
        "8799": 123,
        "8800": 114,
        "8801": 151,
        "8802": 153,
        "8803": 79,
        "8804": 147,
        "8805": 105,
        "8806": 119,
        "8807": 208,
        "8808": 221,
        "8809": 69,
        "8810": 234,
        "8811": 17,
        "8812": 152,
        "8813": 108,
        "8814": 235,
        "8815": 151,
        "8816": 226,
        "8817": 1,
        "8818": 228,
        "8819": 203,
        "8820": 147,
        "8821": 49,
        "8822": 86,
        "8823": 133,
        "8824": 87,
        "8825": 13,
        "8826": 137,
        "8827": 252,
        "8828": 129,
        "8829": 248,
        "8830": 56,
        "8831": 137,
        "8832": 227,
        "8833": 188,
        "8834": 37,
        "8835": 250,
        "8836": 190,
        "8837": 251,
        "8838": 77,
        "8839": 62,
        "8840": 130,
        "8841": 152,
        "8842": 54,
        "8843": 127,
        "8844": 200,
        "8845": 194,
        "8846": 222,
        "8847": 7,
        "8848": 95,
        "8849": 57,
        "8850": 235,
        "8851": 70,
        "8852": 173,
        "8853": 205,
        "8854": 32,
        "8855": 111,
        "8856": 169,
        "8857": 238,
        "8858": 28,
        "8859": 124,
        "8860": 111,
        "8861": 71,
        "8862": 214,
        "8863": 157,
        "8864": 213,
        "8865": 134,
        "8866": 139,
        "8867": 77,
        "8868": 244,
        "8869": 55,
        "8870": 203,
        "8871": 124,
        "8872": 132,
        "8873": 143,
        "8874": 92,
        "8875": 44,
        "8876": 76,
        "8877": 193,
        "8878": 243,
        "8879": 8,
        "8880": 17,
        "8881": 37,
        "8882": 217,
        "8883": 224,
        "8884": 138,
        "8885": 90,
        "8886": 65,
        "8887": 194,
        "8888": 202,
        "8889": 245,
        "8890": 124,
        "8891": 115,
        "8892": 138,
        "8893": 252,
        "8894": 230,
        "8895": 56,
        "8896": 216,
        "8897": 185,
        "8898": 70,
        "8899": 122,
        "8900": 255,
        "8901": 245,
        "8902": 8,
        "8903": 192,
        "8904": 135,
        "8905": 158,
        "8906": 83,
        "8907": 23,
        "8908": 211,
        "8909": 246,
        "8910": 5,
        "8911": 25,
        "8912": 207,
        "8913": 12,
        "8914": 153,
        "8915": 252,
        "8916": 52,
        "8917": 220,
        "8918": 237,
        "8919": 60,
        "8920": 214,
        "8921": 247,
        "8922": 3,
        "8923": 141,
        "8924": 209,
        "8925": 99,
        "8926": 96,
        "8927": 122,
        "8928": 162,
        "8929": 249,
        "8930": 94,
        "8931": 207,
        "8932": 5,
        "8933": 139,
        "8934": 76,
        "8935": 132,
        "8936": 254,
        "8937": 11,
        "8938": 101,
        "8939": 35,
        "8940": 145,
        "8941": 175,
        "8942": 239,
        "8943": 180,
        "8944": 39,
        "8945": 55,
        "8946": 176,
        "8947": 70,
        "8948": 193,
        "8949": 186,
        "8950": 253,
        "8951": 195,
        "8952": 224,
        "8953": 190,
        "8954": 0,
        "8955": 221,
        "8956": 126,
        "8957": 32,
        "8958": 10,
        "8959": 201,
        "8960": 65,
        "8961": 53,
        "8962": 213,
        "8963": 236,
        "8964": 180,
        "8965": 35,
        "8966": 185,
        "8967": 175,
        "8968": 59,
        "8969": 124,
        "8970": 135,
        "8971": 91,
        "8972": 181,
        "8973": 100,
        "8974": 66,
        "8975": 84,
        "8976": 178,
        "8977": 226,
        "8978": 133,
        "8979": 13,
        "8980": 65,
        "8981": 116,
        "8982": 15,
        "8983": 5,
        "8984": 153,
        "8985": 98,
        "8986": 36,
        "8987": 95,
        "8988": 57,
        "8989": 45,
        "8990": 71,
        "8991": 41,
        "8992": 180,
        "8993": 216,
        "8994": 0,
        "8995": 51,
        "8996": 145,
        "8997": 215,
        "8998": 181,
        "8999": 43,
        "9000": 107,
        "9001": 241,
        "9002": 4,
        "9003": 240,
        "9004": 155,
        "9005": 19,
        "9006": 0,
        "9007": 167,
        "9008": 4,
        "9009": 162,
        "9010": 184,
        "9011": 201,
        "9012": 92,
        "9013": 225,
        "9014": 38,
        "9015": 122,
        "9016": 90,
        "9017": 249,
        "9018": 74,
        "9019": 218,
        "9020": 229,
        "9021": 230,
        "9022": 0,
        "9023": 195,
        "9024": 48,
        "9025": 106,
        "9026": 53,
        "9027": 49,
        "9028": 9,
        "9029": 69,
        "9030": 236,
        "9031": 115,
        "9032": 131,
        "9033": 85,
        "9034": 156,
        "9035": 86,
        "9036": 237,
        "9037": 40,
        "9038": 69,
        "9039": 254,
        "9040": 230,
        "9041": 247,
        "9042": 83,
        "9043": 173,
        "9044": 72,
        "9045": 174,
        "9046": 219,
        "9047": 96,
        "9048": 149,
        "9049": 157,
        "9050": 190,
        "9051": 68,
        "9052": 37,
        "9053": 187,
        "9054": 179,
        "9055": 114,
        "9056": 63,
        "9057": 122,
        "9058": 105,
        "9059": 20,
        "9060": 203,
        "9061": 71,
        "9062": 196,
        "9063": 254,
        "9064": 213,
        "9065": 126,
        "9066": 49,
        "9067": 88,
        "9068": 222,
        "9069": 163,
        "9070": 209,
        "9071": 146,
        "9072": 176,
        "9073": 214,
        "9074": 164,
        "9075": 194,
        "9076": 249,
        "9077": 101,
        "9078": 250,
        "9079": 131,
        "9080": 29,
        "9081": 68,
        "9082": 50,
        "9083": 80,
        "9084": 223,
        "9085": 193,
        "9086": 115,
        "9087": 128,
        "9088": 140,
        "9089": 13,
        "9090": 95,
        "9091": 169,
        "9092": 40,
        "9093": 255,
        "9094": 52,
        "9095": 167,
        "9096": 212,
        "9097": 199,
        "9098": 84,
        "9099": 53,
        "9100": 229,
        "9101": 62,
        "9102": 122,
        "9103": 140,
        "9104": 74,
        "9105": 137,
        "9106": 144,
        "9107": 124,
        "9108": 250,
        "9109": 155,
        "9110": 249,
        "9111": 203,
        "9112": 95,
        "9113": 13,
        "9114": 104,
        "9115": 32,
        "9116": 174,
        "9117": 185,
        "9118": 76,
        "9119": 50,
        "9120": 130,
        "9121": 214,
        "9122": 185,
        "9123": 149,
        "9124": 144,
        "9125": 120,
        "9126": 219,
        "9127": 31,
        "9128": 210,
        "9129": 165,
        "9130": 6,
        "9131": 154,
        "9132": 36,
        "9133": 95,
        "9134": 179,
        "9135": 71,
        "9136": 252,
        "9137": 166,
        "9138": 152,
        "9139": 195,
        "9140": 182,
        "9141": 11,
        "9142": 114,
        "9143": 53,
        "9144": 74,
        "9145": 167,
        "9146": 196,
        "9147": 104,
        "9148": 181,
        "9149": 200,
        "9150": 199,
        "9151": 205,
        "9152": 46,
        "9153": 228,
        "9154": 204,
        "9155": 230,
        "9156": 125,
        "9157": 245,
        "9158": 83,
        "9159": 134,
        "9160": 122,
        "9161": 115,
        "9162": 148,
        "9163": 199,
        "9164": 82,
        "9165": 45,
        "9166": 53,
        "9167": 77,
        "9168": 116,
        "9169": 37,
        "9170": 200,
        "9171": 165,
        "9172": 44,
        "9173": 189,
        "9174": 186,
        "9175": 121,
        "9176": 12,
        "9177": 87,
        "9178": 45,
        "9179": 244,
        "9180": 53,
        "9181": 219,
        "9182": 24,
        "9183": 30,
        "9184": 229,
        "9185": 174,
        "9186": 211,
        "9187": 217,
        "9188": 86,
        "9189": 88,
        "9190": 32,
        "9191": 131,
        "9192": 235,
        "9193": 179,
        "9194": 212,
        "9195": 71,
        "9196": 6,
        "9197": 213,
        "9198": 96,
        "9199": 143,
        "9200": 216,
        "9201": 249,
        "9202": 229,
        "9203": 219,
        "9204": 183,
        "9205": 111,
        "9206": 178,
        "9207": 219,
        "9208": 199,
        "9209": 51,
        "9210": 97,
        "9211": 84,
        "9212": 78,
        "9213": 155,
        "9214": 226,
        "9215": 122,
        "9216": 9,
        "9217": 52,
        "9218": 139,
        "9219": 36,
        "9220": 34,
        "9221": 235,
        "9222": 66,
        "9223": 3,
        "9224": 98,
        "9225": 78,
        "9226": 6,
        "9227": 61,
        "9228": 162,
        "9229": 249,
        "9230": 202,
        "9231": 92,
        "9232": 223,
        "9233": 113,
        "9234": 246,
        "9235": 103,
        "9236": 20,
        "9237": 83,
        "9238": 76,
        "9239": 236,
        "9240": 48,
        "9241": 227,
        "9242": 163,
        "9243": 161,
        "9244": 195,
        "9245": 17,
        "9246": 59,
        "9247": 119,
        "9248": 154,
        "9249": 218,
        "9250": 131,
        "9251": 150,
        "9252": 29,
        "9253": 200,
        "9254": 9,
        "9255": 151,
        "9256": 239,
        "9257": 151,
        "9258": 110,
        "9259": 244,
        "9260": 137,
        "9261": 45,
        "9262": 227,
        "9263": 128,
        "9264": 93,
        "9265": 247,
        "9266": 63,
        "9267": 135,
        "9268": 43,
        "9269": 164,
        "9270": 41,
        "9271": 23,
        "9272": 138,
        "9273": 191,
        "9274": 40,
        "9275": 155,
        "9276": 99,
        "9277": 8,
        "9278": 253,
        "9279": 239,
        "9280": 226,
        "9281": 20,
        "9282": 129,
        "9283": 24,
        "9284": 62,
        "9285": 193,
        "9286": 156,
        "9287": 180,
        "9288": 132,
        "9289": 169,
        "9290": 168,
        "9291": 215,
        "9292": 171,
        "9293": 36,
        "9294": 129,
        "9295": 131,
        "9296": 240,
        "9297": 11,
        "9298": 187,
        "9299": 78,
        "9300": 127,
        "9301": 25,
        "9302": 129,
        "9303": 221,
        "9304": 30,
        "9305": 57,
        "9306": 219,
        "9307": 255,
        "9308": 95,
        "9309": 46,
        "9310": 154,
        "9311": 191,
        "9312": 180,
        "9313": 49,
        "9314": 232,
        "9315": 115,
        "9316": 102,
        "9317": 82,
        "9318": 22,
        "9319": 17,
        "9320": 65,
        "9321": 167,
        "9322": 158,
        "9323": 215,
        "9324": 177,
        "9325": 175,
        "9326": 11,
        "9327": 72,
        "9328": 42,
        "9329": 68,
        "9330": 150,
        "9331": 83,
        "9332": 220,
        "9333": 161,
        "9334": 167,
        "9335": 118,
        "9336": 96,
        "9337": 90,
        "9338": 76,
        "9339": 125,
        "9340": 134,
        "9341": 106,
        "9342": 194,
        "9343": 142,
        "9344": 220,
        "9345": 142,
        "9346": 245,
        "9347": 241,
        "9348": 200,
        "9349": 213,
        "9350": 139,
        "9351": 107,
        "9352": 230,
        "9353": 225,
        "9354": 113,
        "9355": 80,
        "9356": 58,
        "9357": 60,
        "9358": 251,
        "9359": 117,
        "9360": 36,
        "9361": 78,
        "9362": 249,
        "9363": 108,
        "9364": 158,
        "9365": 16,
        "9366": 238,
        "9367": 76,
        "9368": 230,
        "9369": 45,
        "9370": 238,
        "9371": 69,
        "9372": 123,
        "9373": 200,
        "9374": 36,
        "9375": 251,
        "9376": 141,
        "9377": 160,
        "9378": 213,
        "9379": 134,
        "9380": 216,
        "9381": 83,
        "9382": 226,
        "9383": 112,
        "9384": 193,
        "9385": 105,
        "9386": 169,
        "9387": 144,
        "9388": 107,
        "9389": 253,
        "9390": 80,
        "9391": 245,
        "9392": 176,
        "9393": 214,
        "9394": 43,
        "9395": 7,
        "9396": 123,
        "9397": 73,
        "9398": 223,
        "9399": 194,
        "9400": 207,
        "9401": 226,
        "9402": 110,
        "9403": 132,
        "9404": 172,
        "9405": 213,
        "9406": 52,
        "9407": 23,
        "9408": 24,
        "9409": 144,
        "9410": 185,
        "9411": 176,
        "9412": 254,
        "9413": 16,
        "9414": 177,
        "9415": 130,
        "9416": 141,
        "9417": 253,
        "9418": 62,
        "9419": 28,
        "9420": 29,
        "9421": 253,
        "9422": 194,
        "9423": 95,
        "9424": 245,
        "9425": 62,
        "9426": 33,
        "9427": 245,
        "9428": 152,
        "9429": 227,
        "9430": 179,
        "9431": 142,
        "9432": 16,
        "9433": 240,
        "9434": 154,
        "9435": 215,
        "9436": 145,
        "9437": 148,
        "9438": 120,
        "9439": 102,
        "9440": 77,
        "9441": 71,
        "9442": 190,
        "9443": 54,
        "9444": 38,
        "9445": 112,
        "9446": 108,
        "9447": 136,
        "9448": 117,
        "9449": 35,
        "9450": 110,
        "9451": 124,
        "9452": 34,
        "9453": 49,
        "9454": 106,
        "9455": 66,
        "9456": 123,
        "9457": 121,
        "9458": 86,
        "9459": 145,
        "9460": 151,
        "9461": 102,
        "9462": 145,
        "9463": 239,
        "9464": 205,
        "9465": 32,
        "9466": 107,
        "9467": 179,
        "9468": 170,
        "9469": 224,
        "9470": 54,
        "9471": 28,
        "9472": 186,
        "9473": 114,
        "9474": 137,
        "9475": 243,
        "9476": 229,
        "9477": 46,
        "9478": 129,
        "9479": 47,
        "9480": 34,
        "9481": 12,
        "9482": 248,
        "9483": 132,
        "9484": 164,
        "9485": 201,
        "9486": 169,
        "9487": 133,
        "9488": 60,
        "9489": 165,
        "9490": 154,
        "9491": 52,
        "9492": 100,
        "9493": 61,
        "9494": 65,
        "9495": 59,
        "9496": 138,
        "9497": 93,
        "9498": 179,
        "9499": 236,
        "9500": 24,
        "9501": 218,
        "9502": 168,
        "9503": 234,
        "9504": 110,
        "9505": 172,
        "9506": 139,
        "9507": 172,
        "9508": 160,
        "9509": 239,
        "9510": 194,
        "9511": 243,
        "9512": 31,
        "9513": 164,
        "9514": 233,
        "9515": 175,
        "9516": 171,
        "9517": 248,
        "9518": 154,
        "9519": 192,
        "9520": 214,
        "9521": 117,
        "9522": 249,
        "9523": 127,
        "9524": 51,
        "9525": 122,
        "9526": 46,
        "9527": 41,
        "9528": 183,
        "9529": 39,
        "9530": 134,
        "9531": 135,
        "9532": 167,
        "9533": 137,
        "9534": 126,
        "9535": 205,
        "9536": 69,
        "9537": 9,
        "9538": 166,
        "9539": 31,
        "9540": 57,
        "9541": 31,
        "9542": 172,
        "9543": 47,
        "9544": 130,
        "9545": 189,
        "9546": 16,
        "9547": 243,
        "9548": 247,
        "9549": 2,
        "9550": 196,
        "9551": 22,
        "9552": 226,
        "9553": 188,
        "9554": 134,
        "9555": 142,
        "9556": 12,
        "9557": 31,
        "9558": 75,
        "9559": 188,
        "9560": 80,
        "9561": 243,
        "9562": 251,
        "9563": 176,
        "9564": 129,
        "9565": 247,
        "9566": 122,
        "9567": 162,
        "9568": 113,
        "9569": 110,
        "9570": 2,
        "9571": 250,
        "9572": 142,
        "9573": 246,
        "9574": 95,
        "9575": 58,
        "9576": 10,
        "9577": 137,
        "9578": 235,
        "9579": 59,
        "9580": 27,
        "9581": 63,
        "9582": 136,
        "9583": 46,
        "9584": 174,
        "9585": 202,
        "9586": 219,
        "9587": 74,
        "9588": 180,
        "9589": 3,
        "9590": 134,
        "9591": 119,
        "9592": 215,
        "9593": 122,
        "9594": 32,
        "9595": 192,
        "9596": 245,
        "9597": 207,
        "9598": 95,
        "9599": 35,
        "9600": 239,
        "9601": 83,
        "9602": 215,
        "9603": 40,
        "9604": 83,
        "9605": 115,
        "9606": 86,
        "9607": 108,
        "9608": 190,
        "9609": 39,
        "9610": 139,
        "9611": 226,
        "9612": 68,
        "9613": 34,
        "9614": 92,
        "9615": 249,
        "9616": 218,
        "9617": 181,
        "9618": 57,
        "9619": 97,
        "9620": 224,
        "9621": 129,
        "9622": 54,
        "9623": 172,
        "9624": 248,
        "9625": 211,
        "9626": 170,
        "9627": 193,
        "9628": 147,
        "9629": 189,
        "9630": 209,
        "9631": 227,
        "9632": 127,
        "9633": 67,
        "9634": 204,
        "9635": 23,
        "9636": 198,
        "9637": 127,
        "9638": 50,
        "9639": 38,
        "9640": 64,
        "9641": 217,
        "9642": 217,
        "9643": 118,
        "9644": 23,
        "9645": 31,
        "9646": 187,
        "9647": 180,
        "9648": 18,
        "9649": 104,
        "9650": 246,
        "9651": 120,
        "9652": 6,
        "9653": 75,
        "9654": 184,
        "9655": 240,
        "9656": 160,
        "9657": 219,
        "9658": 254,
        "9659": 94,
        "9660": 162,
        "9661": 220,
        "9662": 212,
        "9663": 242,
        "9664": 223,
        "9665": 54,
        "9666": 147,
        "9667": 157,
        "9668": 177,
        "9669": 64,
        "9670": 109,
        "9671": 146,
        "9672": 69,
        "9673": 144,
        "9674": 137,
        "9675": 82,
        "9676": 2,
        "9677": 98,
        "9678": 215,
        "9679": 139,
        "9680": 225,
        "9681": 103,
        "9682": 11,
        "9683": 133,
        "9684": 110,
        "9685": 124,
        "9686": 13,
        "9687": 227,
        "9688": 174,
        "9689": 61,
        "9690": 210,
        "9691": 135,
        "9692": 97,
        "9693": 48,
        "9694": 203,
        "9695": 255,
        "9696": 116,
        "9697": 182,
        "9698": 199,
        "9699": 58,
        "9700": 214,
        "9701": 228,
        "9702": 74,
        "9703": 22,
        "9704": 247,
        "9705": 213,
        "9706": 157,
        "9707": 228,
        "9708": 72,
        "9709": 31,
        "9710": 21,
        "9711": 210,
        "9712": 42,
        "9713": 129,
        "9714": 51,
        "9715": 107,
        "9716": 159,
        "9717": 244,
        "9718": 150,
        "9719": 30,
        "9720": 228,
        "9721": 54,
        "9722": 81,
        "9723": 113,
        "9724": 110,
        "9725": 119,
        "9726": 49,
        "9727": 156,
        "9728": 12,
        "9729": 54,
        "9730": 222,
        "9731": 31,
        "9732": 194,
        "9733": 13,
        "9734": 227,
        "9735": 13,
        "9736": 130,
        "9737": 170,
        "9738": 39,
        "9739": 21,
        "9740": 247,
        "9741": 136,
        "9742": 74,
        "9743": 1,
        "9744": 70,
        "9745": 209,
        "9746": 174,
        "9747": 126,
        "9748": 209,
        "9749": 185,
        "9750": 77,
        "9751": 191,
        "9752": 163,
        "9753": 247,
        "9754": 194,
        "9755": 22,
        "9756": 210,
        "9757": 21,
        "9758": 22,
        "9759": 168,
        "9760": 162,
        "9761": 236,
        "9762": 79,
        "9763": 131,
        "9764": 121,
        "9765": 216,
        "9766": 235,
        "9767": 4,
        "9768": 142,
        "9769": 215,
        "9770": 52,
        "9771": 97,
        "9772": 182,
        "9773": 92,
        "9774": 63,
        "9775": 20,
        "9776": 178,
        "9777": 93,
        "9778": 22,
        "9779": 12,
        "9780": 46,
        "9781": 187,
        "9782": 171,
        "9783": 27,
        "9784": 38,
        "9785": 89,
        "9786": 45,
        "9787": 247,
        "9788": 190,
        "9789": 44,
        "9790": 32,
        "9791": 177,
        "9792": 178,
        "9793": 3,
        "9794": 62,
        "9795": 136,
        "9796": 66,
        "9797": 208,
        "9798": 170,
        "9799": 65,
        "9800": 138,
        "9801": 235,
        "9802": 154,
        "9803": 225,
        "9804": 161,
        "9805": 133,
        "9806": 42,
        "9807": 229,
        "9808": 235,
        "9809": 35,
        "9810": 129,
        "9811": 20,
        "9812": 69,
        "9813": 98,
        "9814": 126,
        "9815": 69,
        "9816": 218,
        "9817": 52,
        "9818": 35,
        "9819": 132,
        "9820": 191,
        "9821": 11,
        "9822": 223,
        "9823": 10,
        "9824": 252,
        "9825": 56,
        "9826": 76,
        "9827": 197,
        "9828": 230,
        "9829": 228,
        "9830": 173,
        "9831": 186,
        "9832": 135,
        "9833": 2,
        "9834": 51,
        "9835": 60,
        "9836": 128,
        "9837": 52,
        "9838": 109,
        "9839": 174,
        "9840": 63,
        "9841": 134,
        "9842": 244,
        "9843": 129,
        "9844": 169,
        "9845": 69,
        "9846": 99,
        "9847": 223,
        "9848": 73,
        "9849": 40,
        "9850": 238,
        "9851": 129,
        "9852": 228,
        "9853": 41,
        "9854": 129,
        "9855": 118,
        "9856": 173,
        "9857": 34,
        "9858": 58,
        "9859": 126,
        "9860": 44,
        "9861": 102,
        "9862": 109,
        "9863": 8,
        "9864": 53,
        "9865": 22,
        "9866": 214,
        "9867": 209,
        "9868": 127,
        "9869": 74,
        "9870": 79,
        "9871": 130,
        "9872": 45,
        "9873": 247,
        "9874": 234,
        "9875": 85,
        "9876": 210,
        "9877": 24,
        "9878": 47,
        "9879": 227,
        "9880": 88,
        "9881": 118,
        "9882": 105,
        "9883": 141,
        "9884": 184,
        "9885": 3,
        "9886": 224,
        "9887": 116,
        "9888": 55,
        "9889": 79,
        "9890": 71,
        "9891": 18,
        "9892": 239,
        "9893": 230,
        "9894": 59,
        "9895": 19,
        "9896": 56,
        "9897": 44,
        "9898": 6,
        "9899": 147,
        "9900": 46,
        "9901": 192,
        "9902": 96,
        "9903": 202,
        "9904": 14,
        "9905": 222,
        "9906": 88,
        "9907": 45,
        "9908": 192,
        "9909": 93,
        "9910": 27,
        "9911": 222,
        "9912": 100,
        "9913": 24,
        "9914": 71,
        "9915": 145,
        "9916": 19,
        "9917": 64,
        "9918": 255,
        "9919": 114,
        "9920": 204,
        "9921": 102,
        "9922": 249,
        "9923": 10,
        "9924": 239,
        "9925": 93,
        "9926": 54,
        "9927": 8,
        "9928": 211,
        "9929": 14,
        "9930": 245,
        "9931": 20,
        "9932": 19,
        "9933": 12,
        "9934": 138,
        "9935": 27,
        "9936": 126,
        "9937": 179,
        "9938": 107,
        "9939": 196,
        "9940": 242,
        "9941": 23,
        "9942": 24,
        "9943": 88,
        "9944": 180,
        "9945": 107,
        "9946": 148,
        "9947": 90,
        "9948": 4,
        "9949": 112,
        "9950": 94,
        "9951": 205,
        "9952": 22,
        "9953": 209,
        "9954": 135,
        "9955": 180,
        "9956": 162,
        "9957": 74,
        "9958": 255,
        "9959": 40,
        "9960": 47,
        "9961": 112,
        "9962": 19,
        "9963": 180,
        "9964": 218,
        "9965": 16,
        "9966": 197,
        "9967": 180,
        "9968": 159,
        "9969": 239,
        "9970": 244,
        "9971": 159,
        "9972": 184,
        "9973": 212,
        "9974": 110,
        "9975": 154,
        "9976": 25,
        "9977": 144,
        "9978": 85,
        "9979": 42,
        "9980": 116,
        "9981": 207,
        "9982": 17,
        "9983": 73,
        "9984": 46,
        "9985": 194,
        "9986": 30,
        "9987": 101,
        "9988": 221,
        "9989": 147,
        "9990": 167,
        "9991": 51,
        "9992": 187,
        "9993": 65,
        "9994": 244,
        "9995": 10,
        "9996": 24,
        "9997": 189,
        "9998": 9,
        "9999": 104,
        "10000": 250,
        "10001": 212,
        "10002": 107,
        "10003": 210,
        "10004": 161,
        "10005": 86,
        "10006": 153,
        "10007": 164,
        "10008": 137,
        "10009": 218,
        "10010": 149,
        "10011": 255,
        "10012": 191,
        "10013": 86,
        "10014": 73,
        "10015": 223,
        "10016": 98,
        "10017": 33,
        "10018": 185,
        "10019": 229,
        "10020": 205,
        "10021": 163,
        "10022": 84,
        "10023": 114,
        "10024": 193,
        "10025": 52,
        "10026": 195,
        "10027": 99,
        "10028": 74,
        "10029": 228,
        "10030": 255,
        "10031": 64,
        "10032": 177,
        "10033": 206,
        "10034": 24,
        "10035": 191,
        "10036": 232,
        "10037": 170,
        "10038": 47,
        "10039": 126,
        "10040": 221,
        "10041": 73,
        "10042": 215,
        "10043": 184,
        "10044": 72,
        "10045": 34,
        "10046": 142,
        "10047": 142,
        "10048": 147,
        "10049": 5,
        "10050": 231,
        "10051": 113,
        "10052": 130,
        "10053": 114,
        "10054": 204,
        "10055": 127,
        "10056": 56,
        "10057": 203,
        "10058": 236,
        "10059": 70,
        "10060": 153,
        "10061": 218,
        "10062": 254,
        "10063": 111,
        "10064": 87,
        "10065": 250,
        "10066": 23,
        "10067": 230,
        "10068": 212,
        "10069": 234,
        "10070": 67,
        "10071": 145,
        "10072": 251,
        "10073": 51,
        "10074": 249,
        "10075": 111,
        "10076": 171,
        "10077": 19,
        "10078": 227,
        "10079": 33,
        "10080": 70,
        "10081": 11,
        "10082": 199,
        "10083": 216,
        "10084": 151,
        "10085": 22,
        "10086": 3,
        "10087": 181,
        "10088": 149,
        "10089": 182,
        "10090": 115,
        "10091": 160,
        "10092": 255,
        "10093": 37,
        "10094": 188,
        "10095": 12,
        "10096": 233,
        "10097": 190,
        "10098": 113,
        "10099": 220,
        "10100": 63,
        "10101": 167,
        "10102": 185,
        "10103": 193,
        "10104": 52,
        "10105": 154,
        "10106": 31,
        "10107": 7,
        "10108": 247,
        "10109": 200,
        "10110": 154,
        "10111": 239,
        "10112": 201,
        "10113": 47,
        "10114": 182,
        "10115": 241,
        "10116": 176,
        "10117": 151,
        "10118": 8,
        "10119": 47,
        "10120": 244,
        "10121": 197,
        "10122": 198,
        "10123": 134,
        "10124": 243,
        "10125": 99,
        "10126": 37,
        "10127": 193,
        "10128": 19,
        "10129": 31,
        "10130": 47,
        "10131": 63,
        "10132": 144,
        "10133": 20,
        "10134": 34,
        "10135": 58,
        "10136": 150,
        "10137": 227,
        "10138": 234,
        "10139": 159,
        "10140": 134,
        "10141": 208,
        "10142": 67,
        "10143": 80,
        "10144": 48,
        "10145": 86,
        "10146": 52,
        "10147": 36,
        "10148": 119,
        "10149": 54,
        "10150": 223,
        "10151": 250,
        "10152": 229,
        "10153": 114,
        "10154": 50,
        "10155": 212,
        "10156": 217,
        "10157": 254,
        "10158": 159,
        "10159": 85,
        "10160": 232,
        "10161": 233,
        "10162": 156,
        "10163": 209,
        "10164": 49,
        "10165": 131,
        "10166": 56,
        "10167": 187,
        "10168": 189,
        "10169": 203,
        "10170": 4,
        "10171": 54,
        "10172": 20,
        "10173": 173,
        "10174": 74,
        "10175": 51,
        "10176": 191,
        "10177": 162,
        "10178": 21,
        "10179": 199,
        "10180": 179,
        "10181": 3,
        "10182": 67,
        "10183": 36,
        "10184": 57,
        "10185": 117,
        "10186": 105,
        "10187": 79,
        "10188": 148,
        "10189": 14,
        "10190": 33,
        "10191": 227,
        "10192": 98,
        "10193": 238,
        "10194": 43,
        "10195": 119,
        "10196": 248,
        "10197": 52,
        "10198": 180,
        "10199": 38,
        "10200": 114,
        "10201": 145,
        "10202": 30,
        "10203": 108,
        "10204": 72,
        "10205": 7,
        "10206": 9,
        "10207": 137,
        "10208": 114,
        "10209": 104,
        "10210": 186,
        "10211": 0,
        "10212": 162,
        "10213": 131,
        "10214": 5,
        "10215": 237,
        "10216": 96,
        "10217": 26,
        "10218": 14,
        "10219": 3,
        "10220": 142,
        "10221": 73,
        "10222": 18,
        "10223": 62,
        "10224": 113,
        "10225": 146,
        "10226": 228,
        "10227": 23,
        "10228": 25,
        "10229": 253,
        "10230": 121,
        "10231": 82,
        "10232": 120,
        "10233": 223,
        "10234": 175,
        "10235": 9,
        "10236": 145,
        "10237": 6,
        "10238": 59,
        "10239": 88,
        "10240": 107,
        "10241": 56,
        "10242": 66,
        "10243": 39,
        "10244": 122,
        "10245": 44,
        "10246": 239,
        "10247": 141,
        "10248": 114,
        "10249": 37,
        "10250": 4,
        "10251": 183,
        "10252": 1,
        "10253": 240,
        "10254": 161,
        "10255": 21,
        "10256": 176,
        "10257": 229,
        "10258": 130,
        "10259": 16,
        "10260": 19,
        "10261": 217,
        "10262": 211,
        "10263": 200,
        "10264": 123,
        "10265": 113,
        "10266": 219,
        "10267": 26,
        "10268": 78,
        "10269": 215,
        "10270": 58,
        "10271": 175,
        "10272": 41,
        "10273": 77,
        "10274": 179,
        "10275": 8,
        "10276": 152,
        "10277": 127,
        "10278": 190,
        "10279": 147,
        "10280": 90,
        "10281": 157,
        "10282": 233,
        "10283": 158,
        "10284": 4,
        "10285": 255,
        "10286": 187,
        "10287": 60,
        "10288": 61,
        "10289": 29,
        "10290": 66,
        "10291": 154,
        "10292": 88,
        "10293": 63,
        "10294": 17,
        "10295": 157,
        "10296": 62,
        "10297": 35,
        "10298": 242,
        "10299": 25,
        "10300": 5,
        "10301": 179,
        "10302": 240,
        "10303": 63,
        "10304": 162,
        "10305": 11,
        "10306": 66,
        "10307": 105,
        "10308": 122,
        "10309": 199,
        "10310": 115,
        "10311": 114,
        "10312": 15,
        "10313": 152,
        "10314": 240,
        "10315": 157,
        "10316": 50,
        "10317": 185,
        "10318": 44,
        "10319": 160,
        "10320": 40,
        "10321": 244,
        "10322": 27,
        "10323": 11,
        "10324": 187,
        "10325": 147,
        "10326": 35,
        "10327": 187,
        "10328": 89,
        "10329": 249,
        "10330": 140,
        "10331": 127,
        "10332": 132,
        "10333": 218,
        "10334": 141,
        "10335": 65,
        "10336": 58,
        "10337": 153,
        "10338": 137,
        "10339": 225,
        "10340": 142,
        "10341": 53,
        "10342": 153,
        "10343": 48,
        "10344": 84,
        "10345": 33,
        "10346": 118,
        "10347": 180,
        "10348": 62,
        "10349": 82,
        "10350": 31,
        "10351": 175,
        "10352": 247,
        "10353": 136,
        "10354": 146,
        "10355": 143,
        "10356": 217,
        "10357": 85,
        "10358": 175,
        "10359": 184,
        "10360": 201,
        "10361": 84,
        "10362": 123,
        "10363": 78,
        "10364": 148,
        "10365": 12,
        "10366": 234,
        "10367": 221,
        "10368": 151,
        "10369": 159,
        "10370": 41,
        "10371": 209,
        "10372": 89,
        "10373": 124,
        "10374": 253,
        "10375": 39,
        "10376": 76,
        "10377": 195,
        "10378": 183,
        "10379": 104,
        "10380": 213,
        "10381": 122,
        "10382": 135,
        "10383": 72,
        "10384": 249,
        "10385": 202,
        "10386": 249,
        "10387": 149,
        "10388": 103,
        "10389": 94,
        "10390": 150,
        "10391": 70,
        "10392": 106,
        "10393": 145,
        "10394": 248,
        "10395": 5,
        "10396": 187,
        "10397": 56,
        "10398": 212,
        "10399": 70,
        "10400": 78,
        "10401": 149,
        "10402": 169,
        "10403": 197,
        "10404": 183,
        "10405": 61,
        "10406": 100,
        "10407": 99,
        "10408": 188,
        "10409": 183,
        "10410": 73,
        "10411": 7,
        "10412": 206,
        "10413": 8,
        "10414": 234,
        "10415": 78,
        "10416": 112,
        "10417": 199,
        "10418": 7,
        "10419": 38,
        "10420": 149,
        "10421": 177,
        "10422": 216,
        "10423": 196,
        "10424": 13,
        "10425": 243,
        "10426": 73,
        "10427": 75,
        "10428": 148,
        "10429": 76,
        "10430": 222,
        "10431": 48,
        "10432": 84,
        "10433": 97,
        "10434": 203,
        "10435": 5,
        "10436": 5,
        "10437": 101,
        "10438": 101,
        "10439": 72,
        "10440": 216,
        "10441": 140,
        "10442": 31,
        "10443": 92,
        "10444": 38,
        "10445": 189,
        "10446": 27,
        "10447": 243,
        "10448": 231,
        "10449": 132,
        "10450": 229,
        "10451": 18,
        "10452": 245,
        "10453": 81,
        "10454": 6,
        "10455": 204,
        "10456": 193,
        "10457": 6,
        "10458": 254,
        "10459": 208,
        "10460": 97,
        "10461": 152,
        "10462": 81,
        "10463": 141,
        "10464": 115,
        "10465": 109,
        "10466": 246,
        "10467": 245,
        "10468": 253,
        "10469": 243,
        "10470": 214,
        "10471": 127,
        "10472": 225,
        "10473": 123,
        "10474": 54,
        "10475": 225,
        "10476": 179,
        "10477": 24,
        "10478": 0,
        "10479": 200,
        "10480": 131,
        "10481": 211,
        "10482": 146,
        "10483": 69,
        "10484": 205,
        "10485": 174,
        "10486": 60,
        "10487": 102,
        "10488": 14,
        "10489": 66,
        "10490": 206,
        "10491": 183,
        "10492": 222,
        "10493": 148,
        "10494": 203,
        "10495": 179,
        "10496": 18,
        "10497": 74,
        "10498": 91,
        "10499": 186,
        "10500": 208,
        "10501": 221,
        "10502": 133,
        "10503": 225,
        "10504": 59,
        "10505": 168,
        "10506": 210,
        "10507": 177,
        "10508": 66,
        "10509": 128,
        "10510": 201,
        "10511": 83,
        "10512": 123,
        "10513": 218,
        "10514": 112,
        "10515": 214,
        "10516": 228,
        "10517": 170,
        "10518": 233,
        "10519": 203,
        "10520": 109,
        "10521": 212,
        "10522": 202,
        "10523": 98,
        "10524": 76,
        "10525": 40,
        "10526": 81,
        "10527": 67,
        "10528": 100,
        "10529": 228,
        "10530": 221,
        "10531": 110,
        "10532": 181,
        "10533": 55,
        "10534": 4,
        "10535": 27,
        "10536": 99,
        "10537": 53,
        "10538": 101,
        "10539": 162,
        "10540": 232,
        "10541": 18,
        "10542": 147,
        "10543": 246,
        "10544": 28,
        "10545": 105,
        "10546": 147,
        "10547": 42,
        "10548": 42,
        "10549": 71,
        "10550": 151,
        "10551": 177,
        "10552": 141,
        "10553": 84,
        "10554": 242,
        "10555": 129,
        "10556": 111,
        "10557": 71,
        "10558": 219,
        "10559": 42,
        "10560": 86,
        "10561": 123,
        "10562": 5,
        "10563": 95,
        "10564": 149,
        "10565": 235,
        "10566": 176,
        "10567": 115,
        "10568": 163,
        "10569": 126,
        "10570": 85,
        "10571": 198,
        "10572": 199,
        "10573": 88,
        "10574": 12,
        "10575": 51,
        "10576": 252,
        "10577": 2,
        "10578": 6,
        "10579": 139,
        "10580": 135,
        "10581": 237,
        "10582": 188,
        "10583": 105,
        "10584": 251,
        "10585": 175,
        "10586": 170,
        "10587": 66,
        "10588": 19,
        "10589": 181,
        "10590": 54,
        "10591": 125,
        "10592": 84,
        "10593": 171,
        "10594": 221,
        "10595": 35,
        "10596": 132,
        "10597": 208,
        "10598": 90,
        "10599": 74,
        "10600": 120,
        "10601": 251,
        "10602": 55,
        "10603": 131,
        "10604": 76,
        "10605": 231,
        "10606": 225,
        "10607": 221,
        "10608": 146,
        "10609": 148,
        "10610": 128,
        "10611": 100,
        "10612": 91,
        "10613": 63,
        "10614": 36,
        "10615": 106,
        "10616": 89,
        "10617": 143,
        "10618": 221,
        "10619": 206,
        "10620": 87,
        "10621": 156,
        "10622": 184,
        "10623": 236,
        "10624": 213,
        "10625": 252,
        "10626": 24,
        "10627": 63,
        "10628": 137,
        "10629": 122,
        "10630": 32,
        "10631": 41,
        "10632": 242,
        "10633": 97,
        "10634": 169,
        "10635": 6,
        "10636": 49,
        "10637": 161,
        "10638": 70,
        "10639": 12,
        "10640": 122,
        "10641": 215,
        "10642": 122,
        "10643": 197,
        "10644": 75,
        "10645": 80,
        "10646": 56,
        "10647": 165,
        "10648": 112,
        "10649": 118,
        "10650": 151,
        "10651": 118,
        "10652": 84,
        "10653": 159,
        "10654": 205,
        "10655": 72,
        "10656": 195,
        "10657": 251,
        "10658": 168,
        "10659": 206,
        "10660": 7,
        "10661": 38,
        "10662": 199,
        "10663": 164,
        "10664": 116,
        "10665": 107,
        "10666": 147,
        "10667": 166,
        "10668": 237,
        "10669": 198,
        "10670": 244,
        "10671": 180,
        "10672": 176,
        "10673": 102,
        "10674": 173,
        "10675": 88,
        "10676": 189,
        "10677": 210,
        "10678": 167,
        "10679": 138,
        "10680": 229,
        "10681": 29,
        "10682": 238,
        "10683": 138,
        "10684": 226,
        "10685": 104,
        "10686": 166,
        "10687": 123,
        "10688": 8,
        "10689": 95,
        "10690": 57,
        "10691": 179,
        "10692": 142,
        "10693": 8,
        "10694": 227,
        "10695": 249,
        "10696": 30,
        "10697": 244,
        "10698": 1,
        "10699": 208,
        "10700": 6,
        "10701": 23,
        "10702": 105,
        "10703": 120,
        "10704": 227,
        "10705": 174,
        "10706": 45,
        "10707": 173,
        "10708": 96,
        "10709": 183,
        "10710": 152,
        "10711": 108,
        "10712": 11,
        "10713": 92,
        "10714": 79,
        "10715": 194,
        "10716": 146,
        "10717": 253,
        "10718": 88,
        "10719": 87,
        "10720": 72,
        "10721": 30,
        "10722": 159,
        "10723": 3,
        "10724": 196,
        "10725": 13,
        "10726": 183,
        "10727": 14,
        "10728": 78,
        "10729": 14,
        "10730": 125,
        "10731": 251,
        "10732": 215,
        "10733": 59,
        "10734": 19,
        "10735": 87,
        "10736": 227,
        "10737": 209,
        "10738": 135,
        "10739": 128,
        "10740": 43,
        "10741": 181,
        "10742": 74,
        "10743": 34,
        "10744": 7,
        "10745": 40,
        "10746": 171,
        "10747": 5,
        "10748": 139,
        "10749": 140,
        "10750": 79,
        "10751": 163,
        "10752": 196,
        "10753": 179,
        "10754": 221,
        "10755": 115,
        "10756": 92,
        "10757": 48,
        "10758": 118,
        "10759": 159,
        "10760": 66,
        "10761": 92,
        "10762": 97,
        "10763": 232,
        "10764": 201,
        "10765": 64,
        "10766": 176,
        "10767": 74,
        "10768": 26,
        "10769": 141,
        "10770": 188,
        "10771": 88,
        "10772": 192,
        "10773": 57,
        "10774": 24,
        "10775": 18,
        "10776": 172,
        "10777": 16,
        "10778": 57,
        "10779": 138,
        "10780": 8,
        "10781": 213,
        "10782": 74,
        "10783": 133,
        "10784": 31,
        "10785": 138,
        "10786": 12,
        "10787": 10,
        "10788": 202,
        "10789": 34,
        "10790": 119,
        "10791": 139,
        "10792": 237,
        "10793": 2,
        "10794": 136,
        "10795": 4,
        "10796": 96,
        "10797": 40,
        "10798": 121,
        "10799": 240,
        "10800": 23,
        "10801": 32,
        "10802": 117,
        "10803": 5,
        "10804": 94,
        "10805": 114,
        "10806": 103,
        "10807": 141,
        "10808": 151,
        "10809": 233,
        "10810": 138,
        "10811": 172,
        "10812": 151,
        "10813": 192,
        "10814": 58,
        "10815": 87,
        "10816": 221,
        "10817": 253,
        "10818": 172,
        "10819": 47,
        "10820": 202,
        "10821": 86,
        "10822": 113,
        "10823": 100,
        "10824": 190,
        "10825": 128,
        "10826": 103,
        "10827": 250,
        "10828": 18,
        "10829": 230,
        "10830": 169,
        "10831": 60,
        "10832": 216,
        "10833": 158,
        "10834": 30,
        "10835": 109,
        "10836": 173,
        "10837": 132,
        "10838": 230,
        "10839": 18,
        "10840": 70,
        "10841": 186,
        "10842": 231,
        "10843": 37,
        "10844": 5,
        "10845": 125,
        "10846": 42,
        "10847": 145,
        "10848": 245,
        "10849": 164,
        "10850": 92,
        "10851": 29,
        "10852": 168,
        "10853": 175,
        "10854": 19,
        "10855": 228,
        "10856": 36,
        "10857": 216,
        "10858": 204,
        "10859": 174,
        "10860": 75,
        "10861": 165,
        "10862": 191,
        "10863": 88,
        "10864": 157,
        "10865": 171,
        "10866": 38,
        "10867": 32,
        "10868": 205,
        "10869": 50,
        "10870": 175,
        "10871": 60,
        "10872": 97,
        "10873": 146,
        "10874": 2,
        "10875": 12,
        "10876": 72,
        "10877": 26,
        "10878": 42,
        "10879": 3,
        "10880": 250,
        "10881": 96,
        "10882": 28,
        "10883": 122,
        "10884": 179,
        "10885": 101,
        "10886": 138,
        "10887": 129,
        "10888": 148,
        "10889": 74,
        "10890": 69,
        "10891": 234,
        "10892": 14,
        "10893": 224,
        "10894": 0,
        "10895": 68,
        "10896": 125,
        "10897": 148,
        "10898": 87,
        "10899": 125,
        "10900": 151,
        "10901": 116,
        "10902": 130,
        "10903": 62,
        "10904": 246,
        "10905": 138,
        "10906": 131,
        "10907": 173,
        "10908": 138,
        "10909": 236,
        "10910": 91,
        "10911": 11,
        "10912": 132,
        "10913": 2,
        "10914": 211,
        "10915": 150,
        "10916": 147,
        "10917": 224,
        "10918": 74,
        "10919": 123,
        "10920": 154,
        "10921": 55,
        "10922": 210,
        "10923": 65,
        "10924": 1,
        "10925": 190,
        "10926": 255,
        "10927": 30,
        "10928": 104,
        "10929": 87,
        "10930": 102,
        "10931": 198,
        "10932": 24,
        "10933": 43,
        "10934": 157,
        "10935": 127,
        "10936": 39,
        "10937": 183,
        "10938": 177,
        "10939": 165,
        "10940": 114,
        "10941": 99,
        "10942": 119,
        "10943": 242,
        "10944": 17,
        "10945": 168,
        "10946": 41,
        "10947": 216,
        "10948": 176,
        "10949": 32,
        "10950": 22,
        "10951": 86,
        "10952": 28,
        "10953": 65,
        "10954": 171,
        "10955": 98,
        "10956": 245,
        "10957": 217,
        "10958": 105,
        "10959": 147,
        "10960": 133,
        "10961": 228,
        "10962": 130,
        "10963": 197,
        "10964": 217,
        "10965": 179,
        "10966": 170,
        "10967": 157,
        "10968": 85,
        "10969": 216,
        "10970": 26,
        "10971": 243,
        "10972": 49,
        "10973": 9,
        "10974": 251,
        "10975": 132,
        "10976": 14,
        "10977": 179,
        "10978": 87,
        "10979": 64,
        "10980": 151,
        "10981": 163,
        "10982": 179,
        "10983": 54,
        "10984": 159,
        "10985": 0,
        "10986": 84,
        "10987": 102,
        "10988": 18,
        "10989": 254,
        "10990": 98,
        "10991": 189,
        "10992": 35,
        "10993": 139,
        "10994": 212,
        "10995": 61,
        "10996": 179,
        "10997": 166,
        "10998": 98,
        "10999": 35,
        "11000": 124,
        "11001": 117,
        "11002": 150,
        "11003": 137,
        "11004": 107,
        "11005": 129,
        "11006": 150,
        "11007": 179,
        "11008": 207,
        "11009": 140,
        "11010": 50,
        "11011": 49,
        "11012": 111,
        "11013": 94,
        "11014": 142,
        "11015": 104,
        "11016": 48,
        "11017": 153,
        "11018": 197,
        "11019": 233,
        "11020": 106,
        "11021": 166,
        "11022": 167,
        "11023": 247,
        "11024": 61,
        "11025": 105,
        "11026": 17,
        "11027": 20,
        "11028": 9,
        "11029": 57,
        "11030": 165,
        "11031": 84,
        "11032": 165,
        "11033": 87,
        "11034": 37,
        "11035": 15,
        "11036": 124,
        "11037": 51,
        "11038": 174,
        "11039": 152,
        "11040": 120,
        "11041": 36,
        "11042": 128,
        "11043": 181,
        "11044": 63,
        "11045": 146,
        "11046": 180,
        "11047": 75,
        "11048": 105,
        "11049": 165,
        "11050": 144,
        "11051": 182,
        "11052": 46,
        "11053": 76,
        "11054": 73,
        "11055": 136,
        "11056": 60,
        "11057": 85,
        "11058": 216,
        "11059": 43,
        "11060": 165,
        "11061": 11,
        "11062": 95,
        "11063": 224,
        "11064": 15,
        "11065": 145,
        "11066": 95,
        "11067": 43,
        "11068": 180,
        "11069": 159,
        "11070": 5,
        "11071": 63,
        "11072": 88,
        "11073": 224,
        "11074": 245,
        "11075": 39,
        "11076": 26,
        "11077": 125,
        "11078": 127,
        "11079": 254,
        "11080": 169,
        "11081": 16,
        "11082": 31,
        "11083": 152,
        "11084": 124,
        "11085": 207,
        "11086": 202,
        "11087": 79,
        "11088": 152,
        "11089": 79,
        "11090": 53,
        "11091": 67,
        "11092": 101,
        "11093": 171,
        "11094": 156,
        "11095": 212,
        "11096": 175,
        "11097": 183,
        "11098": 33,
        "11099": 14,
        "11100": 62,
        "11101": 57,
        "11102": 76,
        "11103": 203,
        "11104": 228,
        "11105": 120,
        "11106": 66,
        "11107": 200,
        "11108": 178,
        "11109": 190,
        "11110": 46,
        "11111": 222,
        "11112": 198,
        "11113": 101,
        "11114": 56,
        "11115": 193,
        "11116": 197,
        "11117": 81,
        "11118": 155,
        "11119": 195,
        "11120": 25,
        "11121": 230,
        "11122": 14,
        "11123": 95,
        "11124": 84,
        "11125": 45,
        "11126": 90,
        "11127": 225,
        "11128": 159,
        "11129": 42,
        "11130": 72,
        "11131": 87,
        "11132": 49,
        "11133": 87,
        "11134": 73,
        "11135": 133,
        "11136": 104,
        "11137": 91,
        "11138": 28,
        "11139": 77,
        "11140": 232,
        "11141": 193,
        "11142": 27,
        "11143": 101,
        "11144": 185,
        "11145": 123,
        "11146": 40,
        "11147": 214,
        "11148": 159,
        "11149": 212,
        "11150": 68,
        "11151": 165,
        "11152": 242,
        "11153": 203,
        "11154": 129,
        "11155": 198,
        "11156": 161,
        "11157": 200,
        "11158": 251,
        "11159": 95,
        "11160": 80,
        "11161": 162,
        "11162": 14,
        "11163": 199,
        "11164": 177,
        "11165": 238,
        "11166": 68,
        "11167": 105,
        "11168": 11,
        "11169": 178,
        "11170": 217,
        "11171": 210,
        "11172": 31,
        "11173": 22,
        "11174": 8,
        "11175": 41,
        "11176": 77,
        "11177": 94,
        "11178": 206,
        "11179": 111,
        "11180": 108,
        "11181": 7,
        "11182": 150,
        "11183": 179,
        "11184": 48,
        "11185": 191,
        "11186": 75,
        "11187": 201,
        "11188": 151,
        "11189": 30,
        "11190": 88,
        "11191": 168,
        "11192": 151,
        "11193": 224,
        "11194": 45,
        "11195": 221,
        "11196": 229,
        "11197": 253,
        "11198": 148,
        "11199": 254,
        "11200": 226,
        "11201": 11,
        "11202": 176,
        "11203": 235,
        "11204": 242,
        "11205": 241,
        "11206": 205,
        "11207": 147,
        "11208": 101,
        "11209": 69,
        "11210": 72,
        "11211": 220,
        "11212": 93,
        "11213": 252,
        "11214": 220,
        "11215": 160,
        "11216": 13,
        "11217": 199,
        "11218": 138,
        "11219": 126,
        "11220": 247,
        "11221": 66,
        "11222": 69,
        "11223": 237,
        "11224": 224,
        "11225": 203,
        "11226": 202,
        "11227": 104,
        "11228": 207,
        "11229": 242,
        "11230": 115,
        "11231": 109,
        "11232": 75,
        "11233": 191,
        "11234": 189,
        "11235": 240,
        "11236": 127,
        "11237": 193,
        "11238": 135,
        "11239": 175,
        "11240": 51,
        "11241": 193,
        "11242": 102,
        "11243": 115,
        "11244": 54,
        "11245": 38,
        "11246": 192,
        "11247": 72,
        "11248": 219,
        "11249": 20,
        "11250": 211,
        "11251": 207,
        "11252": 74,
        "11253": 30,
        "11254": 132,
        "11255": 139,
        "11256": 138,
        "11257": 223,
        "11258": 133,
        "11259": 124,
        "11260": 137,
        "11261": 20,
        "11262": 187,
        "11263": 47,
        "11264": 32,
        "11265": 41,
        "11266": 201,
        "11267": 146,
        "11268": 216,
        "11269": 98,
        "11270": 146,
        "11271": 147,
        "11272": 197,
        "11273": 74,
        "11274": 73,
        "11275": 60,
        "11276": 75,
        "11277": 222,
        "11278": 141,
        "11279": 53,
        "11280": 98,
        "11281": 27,
        "11282": 121,
        "11283": 135,
        "11284": 62,
        "11285": 222,
        "11286": 223,
        "11287": 105,
        "11288": 110,
        "11289": 92,
        "11290": 154,
        "11291": 51,
        "11292": 181,
        "11293": 150,
        "11294": 48,
        "11295": 63,
        "11296": 242,
        "11297": 164,
        "11298": 82,
        "11299": 180,
        "11300": 49,
        "11301": 114,
        "11302": 15,
        "11303": 81,
        "11304": 67,
        "11305": 32,
        "11306": 209,
        "11307": 216,
        "11308": 47,
        "11309": 55,
        "11310": 161,
        "11311": 56,
        "11312": 209,
        "11313": 136,
        "11314": 167,
        "11315": 69,
        "11316": 26,
        "11317": 244,
        "11318": 155,
        "11319": 76,
        "11320": 152,
        "11321": 59,
        "11322": 103,
        "11323": 125,
        "11324": 234,
        "11325": 230,
        "11326": 100,
        "11327": 206,
        "11328": 141,
        "11329": 27,
        "11330": 247,
        "11331": 227,
        "11332": 20,
        "11333": 212,
        "11334": 6,
        "11335": 244,
        "11336": 200,
        "11337": 117,
        "11338": 229,
        "11339": 57,
        "11340": 54,
        "11341": 85,
        "11342": 123,
        "11343": 193,
        "11344": 73,
        "11345": 55,
        "11346": 246,
        "11347": 115,
        "11348": 61,
        "11349": 8,
        "11350": 79,
        "11351": 75,
        "11352": 51,
        "11353": 219,
        "11354": 231,
        "11355": 158,
        "11356": 57,
        "11357": 95,
        "11358": 74,
        "11359": 157,
        "11360": 53,
        "11361": 93,
        "11362": 173,
        "11363": 38,
        "11364": 5,
        "11365": 107,
        "11366": 34,
        "11367": 57,
        "11368": 89,
        "11369": 168,
        "11370": 112,
        "11371": 207,
        "11372": 100,
        "11373": 85,
        "11374": 7,
        "11375": 223,
        "11376": 153,
        "11377": 126,
        "11378": 48,
        "11379": 246,
        "11380": 0,
        "11381": 220,
        "11382": 147,
        "11383": 162,
        "11384": 109,
        "11385": 101,
        "11386": 176,
        "11387": 32,
        "11388": 192,
        "11389": 187,
        "11390": 19,
        "11391": 131,
        "11392": 19,
        "11393": 251,
        "11394": 75,
        "11395": 161,
        "11396": 111,
        "11397": 227,
        "11398": 58,
        "11399": 137,
        "11400": 0,
        "11401": 151,
        "11402": 135,
        "11403": 247,
        "11404": 224,
        "11405": 148,
        "11406": 237,
        "11407": 234,
        "11408": 157,
        "11409": 244,
        "11410": 63,
        "11411": 142,
        "11412": 216,
        "11413": 27,
        "11414": 160,
        "11415": 123,
        "11416": 122,
        "11417": 180,
        "11418": 121,
        "11419": 136,
        "11420": 53,
        "11421": 181,
        "11422": 98,
        "11423": 3,
        "11424": 217,
        "11425": 0,
        "11426": 149,
        "11427": 242,
        "11428": 200,
        "11429": 35,
        "11430": 71,
        "11431": 91,
        "11432": 139,
        "11433": 0,
        "11434": 159,
        "11435": 195,
        "11436": 213,
        "11437": 56,
        "11438": 74,
        "11439": 65,
        "11440": 40,
        "11441": 151,
        "11442": 210,
        "11443": 85,
        "11444": 233,
        "11445": 92,
        "11446": 117,
        "11447": 109,
        "11448": 254,
        "11449": 191,
        "11450": 182,
        "11451": 222,
        "11452": 46,
        "11453": 203,
        "11454": 223,
        "11455": 67,
        "11456": 12,
        "11457": 63,
        "11458": 127,
        "11459": 120,
        "11460": 226,
        "11461": 92,
        "11462": 170,
        "11463": 28,
        "11464": 117,
        "11465": 250,
        "11466": 62,
        "11467": 151,
        "11468": 217,
        "11469": 212,
        "11470": 30,
        "11471": 150,
        "11472": 74,
        "11473": 32,
        "11474": 136,
        "11475": 143,
        "11476": 237,
        "11477": 93,
        "11478": 94,
        "11479": 215,
        "11480": 246,
        "11481": 209,
        "11482": 223,
        "11483": 24,
        "11484": 162,
        "11485": 64,
        "11486": 82,
        "11487": 163,
        "11488": 99,
        "11489": 158,
        "11490": 100,
        "11491": 44,
        "11492": 63,
        "11493": 80,
        "11494": 240,
        "11495": 221,
        "11496": 51,
        "11497": 111,
        "11498": 26,
        "11499": 136,
        "11500": 183,
        "11501": 173,
        "11502": 215,
        "11503": 253,
        "11504": 88,
        "11505": 15,
        "11506": 137,
        "11507": 199,
        "11508": 211,
        "11509": 58,
        "11510": 163,
        "11511": 213,
        "11512": 136,
        "11513": 183,
        "11514": 171,
        "11515": 198,
        "11516": 29,
        "11517": 42,
        "11518": 97,
        "11519": 217,
        "11520": 249,
        "11521": 126,
        "11522": 107,
        "11523": 140,
        "11524": 156,
        "11525": 169,
        "11526": 98,
        "11527": 170,
        "11528": 150,
        "11529": 70,
        "11530": 187,
        "11531": 151,
        "11532": 109,
        "11533": 9,
        "11534": 55,
        "11535": 84,
        "11536": 87,
        "11537": 173,
        "11538": 103,
        "11539": 139,
        "11540": 116,
        "11541": 167,
        "11542": 4,
        "11543": 189,
        "11544": 116,
        "11545": 5,
        "11546": 7,
        "11547": 213,
        "11548": 134,
        "11549": 11,
        "11550": 192,
        "11551": 214,
        "11552": 173,
        "11553": 245,
        "11554": 84,
        "11555": 195,
        "11556": 166,
        "11557": 54,
        "11558": 249,
        "11559": 211,
        "11560": 233,
        "11561": 100,
        "11562": 127,
        "11563": 143,
        "11564": 115,
        "11565": 214,
        "11566": 71,
        "11567": 23,
        "11568": 150,
        "11569": 193,
        "11570": 161,
        "11571": 42,
        "11572": 157,
        "11573": 247,
        "11574": 210,
        "11575": 164,
        "11576": 95,
        "11577": 254,
        "11578": 59,
        "11579": 148,
        "11580": 171,
        "11581": 135,
        "11582": 77,
        "11583": 202,
        "11584": 91,
        "11585": 51,
        "11586": 193,
        "11587": 88,
        "11588": 216,
        "11589": 30,
        "11590": 76,
        "11591": 41,
        "11592": 227,
        "11593": 226,
        "11594": 84,
        "11595": 146,
        "11596": 227,
        "11597": 167,
        "11598": 109,
        "11599": 24,
        "11600": 57,
        "11601": 53,
        "11602": 236,
        "11603": 206,
        "11604": 22,
        "11605": 135,
        "11606": 241,
        "11607": 253,
        "11608": 150,
        "11609": 31,
        "11610": 211,
        "11611": 107,
        "11612": 97,
        "11613": 114,
        "11614": 200,
        "11615": 9,
        "11616": 18,
        "11617": 239,
        "11618": 20,
        "11619": 73,
        "11620": 77,
        "11621": 193,
        "11622": 79,
        "11623": 154,
        "11624": 213,
        "11625": 158,
        "11626": 86,
        "11627": 196,
        "11628": 214,
        "11629": 120,
        "11630": 36,
        "11631": 85,
        "11632": 150,
        "11633": 224,
        "11634": 216,
        "11635": 168,
        "11636": 141,
        "11637": 251,
        "11638": 77,
        "11639": 1,
        "11640": 125,
        "11641": 158,
        "11642": 161,
        "11643": 184,
        "11644": 211,
        "11645": 199,
        "11646": 159,
        "11647": 80,
        "11648": 246,
        "11649": 217,
        "11650": 228,
        "11651": 242,
        "11652": 10,
        "11653": 45,
        "11654": 157,
        "11655": 73,
        "11656": 221,
        "11657": 44,
        "11658": 200,
        "11659": 245,
        "11660": 75,
        "11661": 195,
        "11662": 221,
        "11663": 197,
        "11664": 56,
        "11665": 244,
        "11666": 179,
        "11667": 36,
        "11668": 27,
        "11669": 175,
        "11670": 207,
        "11671": 225,
        "11672": 245,
        "11673": 87,
        "11674": 248,
        "11675": 152,
        "11676": 184,
        "11677": 124,
        "11678": 6,
        "11679": 169,
        "11680": 172,
        "11681": 172,
        "11682": 239,
        "11683": 136,
        "11684": 50,
        "11685": 42,
        "11686": 203,
        "11687": 22,
        "11688": 28,
        "11689": 3,
        "11690": 77,
        "11691": 75,
        "11692": 231,
        "11693": 128,
        "11694": 231,
        "11695": 236,
        "11696": 198,
        "11697": 67,
        "11698": 129,
        "11699": 97,
        "11700": 181,
        "11701": 242,
        "11702": 40,
        "11703": 192,
        "11704": 104,
        "11705": 170,
        "11706": 194,
        "11707": 187,
        "11708": 200,
        "11709": 42,
        "11710": 18,
        "11711": 29,
        "11712": 3,
        "11713": 71,
        "11714": 157,
        "11715": 198,
        "11716": 152,
        "11717": 244,
        "11718": 62,
        "11719": 252,
        "11720": 231,
        "11721": 125,
        "11722": 90,
        "11723": 247,
        "11724": 233,
        "11725": 252,
        "11726": 46,
        "11727": 188,
        "11728": 104,
        "11729": 246,
        "11730": 174,
        "11731": 245,
        "11732": 135,
        "11733": 17,
        "11734": 191,
        "11735": 191,
        "11736": 80,
        "11737": 82,
        "11738": 21,
        "11739": 56,
        "11740": 240,
        "11741": 71,
        "11742": 64,
        "11743": 73,
        "11744": 56,
        "11745": 18,
        "11746": 118,
        "11747": 4,
        "11748": 108,
        "11749": 208,
        "11750": 212,
        "11751": 189,
        "11752": 168,
        "11753": 83,
        "11754": 220,
        "11755": 155,
        "11756": 69,
        "11757": 224,
        "11758": 113,
        "11759": 230,
        "11760": 224,
        "11761": 254,
        "11762": 157,
        "11763": 130,
        "11764": 125,
        "11765": 250,
        "11766": 91,
        "11767": 211,
        "11768": 191,
        "11769": 243,
        "11770": 134,
        "11771": 247,
        "11772": 223,
        "11773": 79,
        "11774": 189,
        "11775": 177,
        "11776": 19,
        "11777": 224,
        "11778": 120,
        "11779": 18,
        "11780": 191,
        "11781": 158,
        "11782": 37,
        "11783": 107,
        "11784": 133,
        "11785": 235,
        "11786": 62,
        "11787": 119,
        "11788": 244,
        "11789": 190,
        "11790": 141,
        "11791": 218,
        "11792": 1,
        "11793": 10,
        "11794": 151,
        "11795": 114,
        "11796": 56,
        "11797": 23,
        "11798": 139,
        "11799": 105,
        "11800": 252,
        "11801": 193,
        "11802": 182,
        "11803": 91,
        "11804": 133,
        "11805": 211,
        "11806": 236,
        "11807": 147,
        "11808": 253,
        "11809": 103,
        "11810": 149,
        "11811": 52,
        "11812": 195,
        "11813": 134,
        "11814": 83,
        "11815": 96,
        "11816": 153,
        "11817": 224,
        "11818": 131,
        "11819": 98,
        "11820": 162,
        "11821": 50,
        "11822": 243,
        "11823": 173,
        "11824": 213,
        "11825": 250,
        "11826": 3,
        "11827": 100,
        "11828": 159,
        "11829": 29,
        "11830": 80,
        "11831": 73,
        "11832": 144,
        "11833": 149,
        "11834": 13,
        "11835": 35,
        "11836": 11,
        "11837": 9,
        "11838": 165,
        "11839": 151,
        "11840": 22,
        "11841": 201,
        "11842": 110,
        "11843": 254,
        "11844": 199,
        "11845": 4,
        "11846": 60,
        "11847": 2,
        "11848": 192,
        "11849": 252,
        "11850": 157,
        "11851": 172,
        "11852": 245,
        "11853": 248,
        "11854": 135,
        "11855": 8,
        "11856": 146,
        "11857": 74,
        "11858": 112,
        "11859": 75,
        "11860": 104,
        "11861": 54,
        "11862": 38,
        "11863": 82,
        "11864": 232,
        "11865": 242,
        "11866": 47,
        "11867": 232,
        "11868": 227,
        "11869": 115,
        "11870": 215,
        "11871": 160,
        "11872": 216,
        "11873": 252,
        "11874": 76,
        "11875": 204,
        "11876": 212,
        "11877": 221,
        "11878": 116,
        "11879": 96,
        "11880": 232,
        "11881": 150,
        "11882": 206,
        "11883": 213,
        "11884": 9,
        "11885": 109,
        "11886": 185,
        "11887": 76,
        "11888": 40,
        "11889": 159,
        "11890": 40,
        "11891": 192,
        "11892": 9,
        "11893": 144,
        "11894": 95,
        "11895": 252,
        "11896": 198,
        "11897": 55,
        "11898": 125,
        "11899": 175,
        "11900": 161,
        "11901": 143,
        "11902": 32,
        "11903": 67,
        "11904": 154,
        "11905": 133,
        "11906": 11,
        "11907": 251,
        "11908": 194,
        "11909": 178,
        "11910": 20,
        "11911": 48,
        "11912": 9,
        "11913": 247,
        "11914": 6,
        "11915": 89,
        "11916": 110,
        "11917": 173,
        "11918": 220,
        "11919": 240,
        "11920": 252,
        "11921": 12,
        "11922": 249,
        "11923": 194,
        "11924": 152,
        "11925": 35,
        "11926": 111,
        "11927": 134,
        "11928": 18,
        "11929": 157,
        "11930": 73,
        "11931": 33,
        "11932": 15,
        "11933": 161,
        "11934": 246,
        "11935": 79,
        "11936": 13,
        "11937": 16,
        "11938": 187,
        "11939": 165,
        "11940": 92,
        "11941": 106,
        "11942": 211,
        "11943": 185,
        "11944": 224,
        "11945": 190,
        "11946": 9,
        "11947": 109,
        "11948": 255,
        "11949": 107,
        "11950": 176,
        "11951": 29,
        "11952": 235,
        "11953": 146,
        "11954": 128,
        "11955": 112,
        "11956": 171,
        "11957": 142,
        "11958": 221,
        "11959": 54,
        "11960": 50,
        "11961": 37,
        "11962": 253,
        "11963": 126,
        "11964": 150,
        "11965": 150,
        "11966": 56,
        "11967": 219,
        "11968": 142,
        "11969": 128,
        "11970": 40,
        "11971": 96,
        "11972": 201,
        "11973": 184,
        "11974": 169,
        "11975": 176,
        "11976": 41,
        "11977": 254,
        "11978": 23,
        "11979": 75,
        "11980": 32,
        "11981": 217,
        "11982": 209,
        "11983": 75,
        "11984": 225,
        "11985": 49,
        "11986": 184,
        "11987": 217,
        "11988": 197,
        "11989": 215,
        "11990": 241,
        "11991": 143,
        "11992": 173,
        "11993": 243,
        "11994": 255,
        "11995": 145,
        "11996": 51,
        "11997": 198,
        "11998": 94,
        "11999": 199,
        "12000": 2,
        "12001": 109,
        "12002": 179,
        "12003": 88,
        "12004": 8,
        "12005": 175,
        "12006": 95,
        "12007": 120,
        "12008": 64,
        "12009": 127,
        "12010": 221,
        "12011": 52,
        "12012": 104,
        "12013": 88,
        "12014": 12,
        "12015": 29,
        "12016": 162,
        "12017": 90,
        "12018": 250,
        "12019": 255,
        "12020": 8,
        "12021": 212,
        "12022": 86,
        "12023": 234,
        "12024": 254,
        "12025": 253,
        "12026": 189,
        "12027": 36,
        "12028": 250,
        "12029": 242,
        "12030": 49,
        "12031": 132,
        "12032": 227,
        "12033": 207,
        "12034": 213,
        "12035": 140,
        "12036": 176,
        "12037": 22,
        "12038": 54,
        "12039": 111,
        "12040": 84,
        "12041": 164,
        "12042": 82,
        "12043": 254,
        "12044": 61,
        "12045": 145,
        "12046": 53,
        "12047": 183,
        "12048": 15,
        "12049": 180,
        "12050": 108,
        "12051": 103,
        "12052": 138,
        "12053": 234,
        "12054": 148,
        "12055": 67,
        "12056": 26,
        "12057": 81,
        "12058": 102,
        "12059": 195,
        "12060": 222,
        "12061": 11,
        "12062": 130,
        "12063": 6,
        "12064": 0,
        "12065": 145,
        "12066": 45,
        "12067": 19,
        "12068": 223,
        "12069": 109,
        "12070": 183,
        "12071": 93,
        "12072": 244,
        "12073": 234,
        "12074": 75,
        "12075": 111,
        "12076": 249,
        "12077": 146,
        "12078": 128,
        "12079": 203,
        "12080": 35,
        "12081": 207,
        "12082": 211,
        "12083": 198,
        "12084": 189,
        "12085": 60,
        "12086": 188,
        "12087": 218,
        "12088": 156,
        "12089": 80,
        "12090": 1,
        "12091": 114,
        "12092": 224,
        "12093": 29,
        "12094": 129,
        "12095": 37,
        "12096": 34,
        "12097": 229,
        "12098": 57,
        "12099": 176,
        "12100": 226,
        "12101": 138,
        "12102": 42,
        "12103": 204,
        "12104": 35,
        "12105": 75,
        "12106": 128,
        "12107": 2,
        "12108": 100,
        "12109": 205,
        "12110": 151,
        "12111": 134,
        "12112": 158,
        "12113": 92,
        "12114": 247,
        "12115": 1,
        "12116": 164,
        "12117": 81,
        "12118": 54,
        "12119": 225,
        "12120": 125,
        "12121": 87,
        "12122": 109,
        "12123": 34,
        "12124": 168,
        "12125": 46,
        "12126": 148,
        "12127": 172,
        "12128": 113,
        "12129": 95,
        "12130": 28,
        "12131": 167,
        "12132": 243,
        "12133": 168,
        "12134": 235,
        "12135": 255,
        "12136": 21,
        "12137": 37,
        "12138": 32,
        "12139": 188,
        "12140": 245,
        "12141": 30,
        "12142": 207,
        "12143": 154,
        "12144": 146,
        "12145": 28,
        "12146": 80,
        "12147": 97,
        "12148": 148,
        "12149": 47,
        "12150": 202,
        "12151": 92,
        "12152": 8,
        "12153": 254,
        "12154": 59,
        "12155": 33,
        "12156": 8,
        "12157": 166,
        "12158": 114,
        "12159": 3,
        "12160": 136,
        "12161": 41,
        "12162": 82,
        "12163": 244,
        "12164": 72,
        "12165": 241,
        "12166": 123,
        "12167": 112,
        "12168": 20,
        "12169": 220,
        "12170": 194,
        "12171": 95,
        "12172": 129,
        "12173": 25,
        "12174": 48,
        "12175": 153,
        "12176": 245,
        "12177": 225,
        "12178": 235,
        "12179": 82,
        "12180": 241,
        "12181": 68,
        "12182": 47,
        "12183": 238,
        "12184": 8,
        "12185": 132,
        "12186": 103,
        "12187": 94,
        "12188": 180,
        "12189": 198,
        "12190": 149,
        "12191": 68,
        "12192": 163,
        "12193": 131,
        "12194": 205,
        "12195": 55,
        "12196": 233,
        "12197": 225,
        "12198": 144,
        "12199": 25,
        "12200": 115,
        "12201": 151,
        "12202": 173,
        "12203": 176,
        "12204": 250,
        "12205": 21,
        "12206": 26,
        "12207": 254,
        "12208": 250,
        "12209": 61,
        "12210": 176,
        "12211": 103,
        "12212": 52,
        "12213": 69,
        "12214": 190,
        "12215": 78,
        "12216": 15,
        "12217": 203,
        "12218": 203,
        "12219": 58,
        "12220": 29,
        "12221": 67,
        "12222": 25,
        "12223": 129,
        "12224": 240,
        "12225": 50,
        "12226": 114,
        "12227": 110,
        "12228": 154,
        "12229": 111,
        "12230": 211,
        "12231": 54,
        "12232": 74,
        "12233": 71,
        "12234": 168,
        "12235": 104,
        "12236": 51,
        "12237": 36,
        "12238": 5,
        "12239": 43,
        "12240": 92,
        "12241": 39,
        "12242": 135,
        "12243": 13,
        "12244": 15,
        "12245": 209,
        "12246": 123,
        "12247": 4,
        "12248": 83,
        "12249": 144,
        "12250": 50,
        "12251": 190,
        "12252": 0,
        "12253": 182,
        "12254": 91,
        "12255": 24,
        "12256": 30,
        "12257": 204,
        "12258": 160,
        "12259": 191,
        "12260": 166,
        "12261": 222,
        "12262": 74,
        "12263": 172,
        "12264": 42,
        "12265": 14,
        "12266": 156,
        "12267": 85,
        "12268": 159,
        "12269": 15,
        "12270": 4,
        "12271": 28,
        "12272": 174,
        "12273": 205,
        "12274": 192,
        "12275": 228,
        "12276": 215,
        "12277": 63,
        "12278": 47,
        "12279": 18,
        "12280": 236,
        "12281": 172,
        "12282": 82,
        "12283": 124,
        "12284": 12,
        "12285": 249,
        "12286": 90,
        "12287": 183,
        "12288": 187,
        "12289": 118,
        "12290": 184,
        "12291": 38,
        "12292": 135,
        "12293": 249,
        "12294": 33,
        "12295": 14,
        "12296": 238,
        "12297": 19,
        "12298": 51,
        "12299": 58,
        "12300": 28,
        "12301": 121,
        "12302": 159,
        "12303": 96,
        "12304": 65,
        "12305": 175,
        "12306": 43,
        "12307": 15,
        "12308": 138,
        "12309": 164,
        "12310": 77,
        "12311": 213,
        "12312": 74,
        "12313": 158,
        "12314": 225,
        "12315": 76,
        "12316": 100,
        "12317": 8,
        "12318": 149,
        "12319": 110,
        "12320": 142,
        "12321": 211,
        "12322": 81,
        "12323": 140,
        "12324": 29,
        "12325": 185,
        "12326": 243,
        "12327": 143,
        "12328": 205,
        "12329": 128,
        "12330": 205,
        "12331": 139,
        "12332": 216,
        "12333": 251,
        "12334": 225,
        "12335": 185,
        "12336": 147,
        "12337": 198,
        "12338": 170,
        "12339": 187,
        "12340": 28,
        "12341": 25,
        "12342": 158,
        "12343": 43,
        "12344": 96,
        "12345": 89,
        "12346": 168,
        "12347": 193,
        "12348": 83,
        "12349": 94,
        "12350": 131,
        "12351": 124,
        "12352": 204,
        "12353": 32,
        "12354": 87,
        "12355": 110,
        "12356": 59,
        "12357": 17,
        "12358": 49,
        "12359": 255,
        "12360": 172,
        "12361": 132,
        "12362": 145,
        "12363": 72,
        "12364": 79,
        "12365": 192,
        "12366": 21,
        "12367": 110,
        "12368": 169,
        "12369": 174,
        "12370": 193,
        "12371": 27,
        "12372": 201,
        "12373": 47,
        "12374": 92,
        "12375": 153,
        "12376": 251,
        "12377": 112,
        "12378": 63,
        "12379": 135,
        "12380": 39,
        "12381": 66,
        "12382": 195,
        "12383": 171,
        "12384": 100,
        "12385": 160,
        "12386": 211,
        "12387": 22,
        "12388": 87,
        "12389": 208,
        "12390": 127,
        "12391": 155,
        "12392": 89,
        "12393": 14,
        "12394": 62,
        "12395": 65,
        "12396": 109,
        "12397": 225,
        "12398": 21,
        "12399": 128,
        "12400": 163,
        "12401": 207,
        "12402": 39,
        "12403": 83,
        "12404": 161,
        "12405": 180,
        "12406": 130,
        "12407": 76,
        "12408": 60,
        "12409": 3,
        "12410": 40,
        "12411": 254,
        "12412": 252,
        "12413": 212,
        "12414": 243,
        "12415": 157,
        "12416": 72,
        "12417": 39,
        "12418": 182,
        "12419": 165,
        "12420": 71,
        "12421": 128,
        "12422": 88,
        "12423": 16,
        "12424": 72,
        "12425": 27,
        "12426": 106,
        "12427": 247,
        "12428": 148,
        "12429": 98,
        "12430": 96,
        "12431": 111,
        "12432": 91,
        "12433": 111,
        "12434": 129,
        "12435": 109,
        "12436": 231,
        "12437": 175,
        "12438": 58,
        "12439": 226,
        "12440": 97,
        "12441": 195,
        "12442": 245,
        "12443": 216,
        "12444": 34,
        "12445": 149,
        "12446": 200,
        "12447": 32,
        "12448": 116,
        "12449": 72,
        "12450": 225,
        "12451": 59,
        "12452": 6,
        "12453": 146,
        "12454": 251,
        "12455": 9,
        "12456": 207,
        "12457": 170,
        "12458": 156,
        "12459": 247,
        "12460": 80,
        "12461": 121,
        "12462": 24,
        "12463": 234,
        "12464": 90,
        "12465": 145,
        "12466": 83,
        "12467": 109,
        "12468": 152,
        "12469": 108,
        "12470": 227,
        "12471": 73,
        "12472": 172,
        "12473": 145,
        "12474": 112,
        "12475": 49,
        "12476": 99,
        "12477": 196,
        "12478": 63,
        "12479": 155,
        "12480": 254,
        "12481": 209,
        "12482": 120,
        "12483": 173,
        "12484": 4,
        "12485": 246,
        "12486": 145,
        "12487": 183,
        "12488": 209,
        "12489": 221,
        "12490": 212,
        "12491": 62,
        "12492": 108,
        "12493": 68,
        "12494": 85,
        "12495": 117,
        "12496": 137,
        "12497": 56,
        "12498": 13,
        "12499": 113,
        "12500": 3,
        "12501": 209,
        "12502": 181,
        "12503": 207,
        "12504": 120,
        "12505": 145,
        "12506": 212,
        "12507": 87,
        "12508": 82,
        "12509": 245,
        "12510": 50,
        "12511": 116,
        "12512": 239,
        "12513": 39,
        "12514": 156,
        "12515": 73,
        "12516": 13,
        "12517": 88,
        "12518": 138,
        "12519": 141,
        "12520": 187,
        "12521": 51,
        "12522": 84,
        "12523": 20,
        "12524": 213,
        "12525": 234,
        "12526": 159,
        "12527": 74,
        "12528": 117,
        "12529": 242,
        "12530": 81,
        "12531": 85,
        "12532": 53,
        "12533": 63,
        "12534": 87,
        "12535": 18,
        "12536": 34,
        "12537": 173,
        "12538": 134,
        "12539": 30,
        "12540": 32,
        "12541": 159,
        "12542": 188,
        "12543": 252,
        "12544": 9,
        "12545": 194,
        "12546": 171,
        "12547": 141,
        "12548": 192,
        "12549": 75,
        "12550": 238,
        "12551": 226,
        "12552": 232,
        "12553": 58,
        "12554": 207,
        "12555": 141,
        "12556": 149,
        "12557": 30,
        "12558": 112,
        "12559": 234,
        "12560": 124,
        "12561": 80,
        "12562": 217,
        "12563": 118,
        "12564": 116,
        "12565": 158,
        "12566": 133,
        "12567": 94,
        "12568": 63,
        "12569": 86,
        "12570": 23,
        "12571": 170,
        "12572": 234,
        "12573": 45,
        "12574": 210,
        "12575": 180,
        "12576": 217,
        "12577": 252,
        "12578": 70,
        "12579": 82,
        "12580": 206,
        "12581": 211,
        "12582": 111,
        "12583": 219,
        "12584": 39,
        "12585": 95,
        "12586": 45,
        "12587": 41,
        "12588": 175,
        "12589": 6,
        "12590": 207,
        "12591": 206,
        "12592": 146,
        "12593": 161,
        "12594": 222,
        "12595": 212,
        "12596": 61,
        "12597": 203,
        "12598": 113,
        "12599": 146,
        "12600": 95,
        "12601": 165,
        "12602": 12,
        "12603": 40,
        "12604": 83,
        "12605": 5,
        "12606": 211,
        "12607": 75,
        "12608": 74,
        "12609": 206,
        "12610": 235,
        "12611": 24,
        "12612": 204,
        "12613": 102,
        "12614": 225,
        "12615": 129,
        "12616": 122,
        "12617": 146,
        "12618": 255,
        "12619": 64,
        "12620": 3,
        "12621": 73,
        "12622": 163,
        "12623": 104,
        "12624": 36,
        "12625": 86,
        "12626": 29,
        "12627": 243,
        "12628": 66,
        "12629": 59,
        "12630": 202,
        "12631": 19,
        "12632": 29,
        "12633": 163,
        "12634": 2,
        "12635": 120,
        "12636": 246,
        "12637": 129,
        "12638": 204,
        "12639": 54,
        "12640": 194,
        "12641": 253,
        "12642": 50,
        "12643": 46,
        "12644": 165,
        "12645": 61,
        "12646": 75,
        "12647": 127,
        "12648": 109,
        "12649": 63,
        "12650": 131,
        "12651": 246,
        "12652": 119,
        "12653": 115,
        "12654": 3,
        "12655": 170,
        "12656": 147,
        "12657": 139,
        "12658": 152,
        "12659": 8,
        "12660": 208,
        "12661": 86,
        "12662": 222,
        "12663": 179,
        "12664": 231,
        "12665": 27,
        "12666": 103,
        "12667": 208,
        "12668": 229,
        "12669": 0,
        "12670": 233,
        "12671": 247,
        "12672": 91,
        "12673": 94,
        "12674": 153,
        "12675": 199,
        "12676": 156,
        "12677": 187,
        "12678": 206,
        "12679": 211,
        "12680": 120,
        "12681": 128,
        "12682": 129,
        "12683": 192,
        "12684": 150,
        "12685": 1,
        "12686": 67,
        "12687": 192,
        "12688": 20,
        "12689": 243,
        "12690": 28,
        "12691": 47,
        "12692": 34,
        "12693": 149,
        "12694": 173,
        "12695": 104,
        "12696": 146,
        "12697": 0,
        "12698": 90,
        "12699": 120,
        "12700": 31,
        "12701": 7,
        "12702": 24,
        "12703": 142,
        "12704": 110,
        "12705": 174,
        "12706": 42,
        "12707": 197,
        "12708": 138,
        "12709": 244,
        "12710": 168,
        "12711": 205,
        "12712": 10,
        "12713": 177,
        "12714": 100,
        "12715": 54,
        "12716": 31,
        "12717": 46,
        "12718": 151,
        "12719": 64,
        "12720": 197,
        "12721": 171,
        "12722": 85,
        "12723": 20,
        "12724": 239,
        "12725": 218,
        "12726": 203,
        "12727": 240,
        "12728": 217,
        "12729": 241,
        "12730": 236,
        "12731": 100,
        "12732": 67,
        "12733": 245,
        "12734": 133,
        "12735": 6,
        "12736": 205,
        "12737": 225,
        "12738": 83,
        "12739": 198,
        "12740": 197,
        "12741": 7,
        "12742": 43,
        "12743": 138,
        "12744": 151,
        "12745": 33,
        "12746": 198,
        "12747": 73,
        "12748": 81,
        "12749": 216,
        "12750": 58,
        "12751": 230,
        "12752": 82,
        "12753": 139,
        "12754": 202,
        "12755": 224,
        "12756": 71,
        "12757": 13,
        "12758": 115,
        "12759": 162,
        "12760": 165,
        "12761": 48,
        "12762": 244,
        "12763": 247,
        "12764": 203,
        "12765": 38,
        "12766": 107,
        "12767": 100,
        "12768": 9,
        "12769": 119,
        "12770": 113,
        "12771": 149,
        "12772": 211,
        "12773": 111,
        "12774": 158,
        "12775": 41,
        "12776": 92,
        "12777": 159,
        "12778": 180,
        "12779": 46,
        "12780": 7,
        "12781": 71,
        "12782": 145,
        "12783": 248,
        "12784": 13,
        "12785": 16,
        "12786": 199,
        "12787": 4,
        "12788": 29,
        "12789": 86,
        "12790": 137,
        "12791": 221,
        "12792": 129,
        "12793": 192,
        "12794": 84,
        "12795": 205,
        "12796": 53,
        "12797": 18,
        "12798": 118,
        "12799": 244,
        "12800": 91,
        "12801": 86,
        "12802": 105,
        "12803": 151,
        "12804": 218,
        "12805": 79,
        "12806": 131,
        "12807": 169,
        "12808": 206,
        "12809": 3,
        "12810": 231,
        "12811": 141,
        "12812": 15,
        "12813": 150,
        "12814": 235,
        "12815": 59,
        "12816": 59,
        "12817": 26,
        "12818": 151,
        "12819": 53,
        "12820": 129,
        "12821": 56,
        "12822": 153,
        "12823": 19,
        "12824": 215,
        "12825": 234,
        "12826": 116,
        "12827": 54,
        "12828": 72,
        "12829": 13,
        "12830": 203,
        "12831": 251,
        "12832": 76,
        "12833": 14,
        "12834": 112,
        "12835": 149,
        "12836": 139,
        "12837": 51,
        "12838": 110,
        "12839": 214,
        "12840": 98,
        "12841": 31,
        "12842": 8,
        "12843": 92,
        "12844": 222,
        "12845": 44,
        "12846": 230,
        "12847": 206,
        "12848": 9,
        "12849": 193,
        "12850": 128,
        "12851": 72,
        "12852": 8,
        "12853": 213,
        "12854": 8,
        "12855": 5,
        "12856": 76,
        "12857": 129,
        "12858": 112,
        "12859": 59,
        "12860": 164,
        "12861": 91,
        "12862": 74,
        "12863": 179,
        "12864": 1,
        "12865": 188,
        "12866": 181,
        "12867": 148,
        "12868": 210,
        "12869": 19,
        "12870": 135,
        "12871": 226,
        "12872": 187,
        "12873": 223,
        "12874": 241,
        "12875": 207,
        "12876": 112,
        "12877": 18,
        "12878": 146,
        "12879": 179,
        "12880": 35,
        "12881": 67,
        "12882": 73,
        "12883": 4,
        "12884": 109,
        "12885": 249,
        "12886": 150,
        "12887": 252,
        "12888": 182,
        "12889": 140,
        "12890": 198,
        "12891": 17,
        "12892": 91,
        "12893": 80,
        "12894": 35,
        "12895": 122,
        "12896": 56,
        "12897": 44,
        "12898": 44,
        "12899": 75,
        "12900": 210,
        "12901": 189,
        "12902": 209,
        "12903": 231,
        "12904": 208,
        "12905": 200,
        "12906": 103,
        "12907": 67,
        "12908": 158,
        "12909": 180,
        "12910": 43,
        "12911": 145,
        "12912": 225,
        "12913": 162,
        "12914": 105,
        "12915": 78,
        "12916": 56,
        "12917": 77,
        "12918": 163,
        "12919": 87,
        "12920": 0,
        "12921": 77,
        "12922": 171,
        "12923": 136,
        "12924": 233,
        "12925": 154,
        "12926": 54,
        "12927": 96,
        "12928": 129,
        "12929": 67,
        "12930": 48,
        "12931": 251,
        "12932": 243,
        "12933": 203,
        "12934": 53,
        "12935": 183,
        "12936": 30,
        "12937": 116,
        "12938": 180,
        "12939": 20,
        "12940": 227,
        "12941": 92,
        "12942": 241,
        "12943": 133,
        "12944": 89,
        "12945": 40,
        "12946": 54,
        "12947": 116,
        "12948": 211,
        "12949": 23,
        "12950": 153,
        "12951": 53,
        "12952": 200,
        "12953": 0,
        "12954": 55,
        "12955": 136,
        "12956": 147,
        "12957": 91,
        "12958": 26,
        "12959": 24,
        "12960": 189,
        "12961": 185,
        "12962": 237,
        "12963": 204,
        "12964": 23,
        "12965": 50,
        "12966": 167,
        "12967": 153,
        "12968": 113,
        "12969": 121,
        "12970": 222,
        "12971": 159,
        "12972": 146,
        "12973": 134,
        "12974": 214,
        "12975": 56,
        "12976": 46,
        "12977": 241,
        "12978": 240,
        "12979": 119,
        "12980": 56,
        "12981": 74,
        "12982": 181,
        "12983": 16,
        "12984": 86,
        "12985": 86,
        "12986": 252,
        "12987": 78,
        "12988": 106,
        "12989": 52,
        "12990": 12,
        "12991": 77,
        "12992": 121,
        "12993": 163,
        "12994": 241,
        "12995": 214,
        "12996": 5,
        "12997": 253,
        "12998": 118,
        "12999": 134,
        "13000": 133,
        "13001": 74,
        "13002": 61,
        "13003": 231,
        "13004": 156,
        "13005": 66,
        "13006": 193,
        "13007": 216,
        "13008": 69,
        "13009": 128,
        "13010": 203,
        "13011": 212,
        "13012": 125,
        "13013": 166,
        "13014": 188,
        "13015": 106,
        "13016": 50,
        "13017": 111,
        "13018": 88,
        "13019": 36,
        "13020": 27,
        "13021": 150,
        "13022": 197,
        "13023": 146,
        "13024": 5,
        "13025": 99,
        "13026": 29,
        "13027": 53,
        "13028": 213,
        "13029": 226,
        "13030": 47,
        "13031": 22,
        "13032": 18,
        "13033": 174,
        "13034": 255,
        "13035": 217,
        "13036": 156,
        "13037": 142,
        "13038": 166,
        "13039": 7,
        "13040": 252,
        "13041": 155,
        "13042": 136,
        "13043": 235,
        "13044": 222,
        "13045": 5,
        "13046": 194,
        "13047": 249,
        "13048": 17,
        "13049": 154,
        "13050": 101,
        "13051": 219,
        "13052": 143,
        "13053": 164,
        "13054": 47,
        "13055": 109,
        "13056": 76,
        "13057": 112,
        "13058": 131,
        "13059": 80,
        "13060": 228,
        "13061": 144,
        "13062": 153,
        "13063": 216,
        "13064": 94,
        "13065": 150,
        "13066": 149,
        "13067": 238,
        "13068": 80,
        "13069": 159,
        "13070": 47,
        "13071": 54,
        "13072": 48,
        "13073": 64,
        "13074": 35,
        "13075": 49,
        "13076": 110,
        "13077": 28,
        "13078": 83,
        "13079": 48,
        "13080": 198,
        "13081": 51,
        "13082": 0,
        "13083": 43,
        "13084": 33,
        "13085": 19,
        "13086": 152,
        "13087": 16,
        "13088": 18,
        "13089": 127,
        "13090": 139,
        "13091": 19,
        "13092": 67,
        "13093": 22,
        "13094": 25,
        "13095": 59,
        "13096": 148,
        "13097": 164,
        "13098": 127,
        "13099": 120,
        "13100": 141,
        "13101": 135,
        "13102": 243,
        "13103": 239,
        "13104": 247,
        "13105": 68,
        "13106": 43,
        "13107": 228,
        "13108": 149,
        "13109": 124,
        "13110": 244,
        "13111": 26,
        "13112": 108,
        "13113": 41,
        "13114": 99,
        "13115": 144,
        "13116": 95,
        "13117": 218,
        "13118": 163,
        "13119": 120,
        "13120": 158,
        "13121": 111,
        "13122": 171,
        "13123": 236,
        "13124": 189,
        "13125": 84,
        "13126": 199,
        "13127": 174,
        "13128": 217,
        "13129": 149,
        "13130": 36,
        "13131": 27,
        "13132": 129,
        "13133": 33,
        "13134": 233,
        "13135": 115,
        "13136": 243,
        "13137": 208,
        "13138": 7,
        "13139": 45,
        "13140": 82,
        "13141": 188,
        "13142": 37,
        "13143": 85,
        "13144": 24,
        "13145": 186,
        "13146": 127,
        "13147": 176,
        "13148": 147,
        "13149": 113,
        "13150": 172,
        "13151": 190,
        "13152": 140,
        "13153": 227,
        "13154": 126,
        "13155": 50,
        "13156": 109,
        "13157": 237,
        "13158": 194,
        "13159": 221,
        "13160": 8,
        "13161": 66,
        "13162": 223,
        "13163": 187,
        "13164": 215,
        "13165": 163,
        "13166": 83,
        "13167": 218,
        "13168": 7,
        "13169": 183,
        "13170": 204,
        "13171": 234,
        "13172": 248,
        "13173": 190,
        "13174": 206,
        "13175": 72,
        "13176": 104,
        "13177": 50,
        "13178": 48,
        "13179": 184,
        "13180": 150,
        "13181": 160,
        "13182": 147,
        "13183": 67,
        "13184": 165,
        "13185": 4,
        "13186": 134,
        "13187": 57,
        "13188": 205,
        "13189": 24,
        "13190": 253,
        "13191": 218,
        "13192": 95,
        "13193": 173,
        "13194": 105,
        "13195": 62,
        "13196": 170,
        "13197": 185,
        "13198": 213,
        "13199": 194,
        "13200": 71,
        "13201": 242,
        "13202": 185,
        "13203": 100,
        "13204": 18,
        "13205": 230,
        "13206": 115,
        "13207": 88,
        "13208": 99,
        "13209": 13,
        "13210": 31,
        "13211": 5,
        "13212": 71,
        "13213": 121,
        "13214": 63,
        "13215": 32,
        "13216": 152,
        "13217": 82,
        "13218": 158,
        "13219": 17,
        "13220": 38,
        "13221": 152,
        "13222": 159,
        "13223": 221,
        "13224": 82,
        "13225": 17,
        "13226": 112,
        "13227": 134,
        "13228": 203,
        "13229": 193,
        "13230": 44,
        "13231": 17,
        "13232": 63,
        "13233": 223,
        "13234": 235,
        "13235": 108,
        "13236": 59,
        "13237": 67,
        "13238": 63,
        "13239": 194,
        "13240": 126,
        "13241": 44,
        "13242": 211,
        "13243": 251,
        "13244": 12,
        "13245": 164,
        "13246": 138,
        "13247": 99,
        "13248": 214,
        "13249": 112,
        "13250": 228,
        "13251": 91,
        "13252": 61,
        "13253": 161,
        "13254": 115,
        "13255": 78,
        "13256": 107,
        "13257": 2,
        "13258": 172,
        "13259": 94,
        "13260": 60,
        "13261": 99,
        "13262": 146,
        "13263": 34,
        "13264": 106,
        "13265": 213,
        "13266": 210,
        "13267": 54,
        "13268": 217,
        "13269": 194,
        "13270": 45,
        "13271": 183,
        "13272": 206,
        "13273": 82,
        "13274": 16,
        "13275": 162,
        "13276": 161,
        "13277": 159,
        "13278": 80,
        "13279": 77,
        "13280": 41,
        "13281": 119,
        "13282": 247,
        "13283": 51,
        "13284": 83,
        "13285": 25,
        "13286": 38,
        "13287": 100,
        "13288": 168,
        "13289": 72,
        "13290": 59,
        "13291": 89,
        "13292": 239,
        "13293": 53,
        "13294": 27,
        "13295": 87,
        "13296": 173,
        "13297": 216,
        "13298": 67,
        "13299": 28,
        "13300": 191,
        "13301": 17,
        "13302": 68,
        "13303": 207,
        "13304": 32,
        "13305": 25,
        "13306": 72,
        "13307": 218,
        "13308": 72,
        "13309": 161,
        "13310": 58,
        "13311": 102,
        "13312": 189,
        "13313": 65,
        "13314": 63,
        "13315": 142,
        "13316": 180,
        "13317": 250,
        "13318": 200,
        "13319": 213,
        "13320": 13,
        "13321": 191,
        "13322": 168,
        "13323": 91,
        "13324": 45,
        "13325": 180,
        "13326": 97,
        "13327": 11,
        "13328": 152,
        "13329": 244,
        "13330": 223,
        "13331": 244,
        "13332": 159,
        "13333": 2,
        "13334": 138,
        "13335": 26,
        "13336": 62,
        "13337": 113,
        "13338": 73,
        "13339": 255,
        "13340": 236,
        "13341": 122,
        "13342": 209,
        "13343": 180,
        "13344": 49,
        "13345": 62,
        "13346": 28,
        "13347": 92,
        "13348": 146,
        "13349": 116,
        "13350": 213,
        "13351": 118,
        "13352": 202,
        "13353": 218,
        "13354": 61,
        "13355": 109,
        "13356": 44,
        "13357": 238,
        "13358": 36,
        "13359": 202,
        "13360": 220,
        "13361": 191,
        "13362": 203,
        "13363": 49,
        "13364": 238,
        "13365": 201,
        "13366": 0,
        "13367": 20,
        "13368": 11,
        "13369": 210,
        "13370": 225,
        "13371": 75,
        "13372": 136,
        "13373": 230,
        "13374": 159,
        "13375": 9,
        "13376": 76,
        "13377": 129,
        "13378": 218,
        "13379": 87,
        "13380": 80,
        "13381": 53,
        "13382": 190,
        "13383": 23,
        "13384": 33,
        "13385": 37,
        "13386": 57,
        "13387": 7,
        "13388": 88,
        "13389": 54,
        "13390": 218,
        "13391": 12,
        "13392": 254,
        "13393": 203,
        "13394": 139,
        "13395": 5,
        "13396": 236,
        "13397": 91,
        "13398": 96,
        "13399": 38,
        "13400": 153,
        "13401": 5,
        "13402": 134,
        "13403": 24,
        "13404": 189,
        "13405": 162,
        "13406": 117,
        "13407": 230,
        "13408": 10,
        "13409": 132,
        "13410": 130,
        "13411": 65,
        "13412": 162,
        "13413": 17,
        "13414": 166,
        "13415": 56,
        "13416": 52,
        "13417": 224,
        "13418": 64,
        "13419": 137,
        "13420": 73,
        "13421": 1,
        "13422": 107,
        "13423": 86,
        "13424": 247,
        "13425": 133,
        "13426": 131,
        "13427": 25,
        "13428": 185,
        "13429": 117,
        "13430": 184,
        "13431": 171,
        "13432": 165,
        "13433": 117,
        "13434": 84,
        "13435": 106,
        "13436": 131,
        "13437": 224,
        "13438": 36,
        "13439": 24,
        "13440": 198,
        "13441": 241,
        "13442": 188,
        "13443": 41,
        "13444": 106,
        "13445": 146,
        "13446": 165,
        "13447": 86,
        "13448": 231,
        "13449": 207,
        "13450": 154,
        "13451": 217,
        "13452": 90,
        "13453": 173,
        "13454": 152,
        "13455": 20,
        "13456": 191,
        "13457": 228,
        "13458": 177,
        "13459": 161,
        "13460": 179,
        "13461": 88,
        "13462": 173,
        "13463": 122,
        "13464": 114,
        "13465": 143,
        "13466": 100,
        "13467": 26,
        "13468": 223,
        "13469": 189,
        "13470": 214,
        "13471": 53,
        "13472": 172,
        "13473": 39,
        "13474": 100,
        "13475": 25,
        "13476": 166,
        "13477": 138,
        "13478": 122,
        "13479": 155,
        "13480": 117,
        "13481": 225,
        "13482": 35,
        "13483": 168,
        "13484": 37,
        "13485": 88,
        "13486": 25,
        "13487": 79,
        "13488": 82,
        "13489": 215,
        "13490": 33,
        "13491": 255,
        "13492": 66,
        "13493": 102,
        "13494": 193,
        "13495": 223,
        "13496": 227,
        "13497": 11,
        "13498": 224,
        "13499": 4,
        "13500": 175,
        "13501": 23,
        "13502": 152,
        "13503": 99,
        "13504": 158,
        "13505": 177,
        "13506": 195,
        "13507": 97,
        "13508": 133,
        "13509": 38,
        "13510": 195,
        "13511": 177,
        "13512": 214,
        "13513": 18,
        "13514": 221,
        "13515": 161,
        "13516": 79,
        "13517": 71,
        "13518": 236,
        "13519": 206,
        "13520": 247,
        "13521": 175,
        "13522": 177,
        "13523": 172,
        "13524": 221,
        "13525": 149,
        "13526": 168,
        "13527": 193,
        "13528": 152,
        "13529": 48,
        "13530": 244,
        "13531": 158,
        "13532": 67,
        "13533": 195,
        "13534": 197,
        "13535": 8,
        "13536": 150,
        "13537": 49,
        "13538": 172,
        "13539": 238,
        "13540": 81,
        "13541": 160,
        "13542": 75,
        "13543": 100,
        "13544": 240,
        "13545": 19,
        "13546": 100,
        "13547": 7,
        "13548": 238,
        "13549": 105,
        "13550": 102,
        "13551": 103,
        "13552": 132,
        "13553": 8,
        "13554": 32,
        "13555": 146,
        "13556": 253,
        "13557": 128,
        "13558": 243,
        "13559": 30,
        "13560": 243,
        "13561": 253,
        "13562": 107,
        "13563": 121,
        "13564": 201,
        "13565": 128,
        "13566": 247,
        "13567": 209,
        "13568": 158,
        "13569": 104,
        "13570": 144,
        "13571": 162,
        "13572": 154,
        "13573": 60,
        "13574": 168,
        "13575": 45,
        "13576": 137,
        "13577": 84,
        "13578": 1,
        "13579": 78,
        "13580": 182,
        "13581": 173,
        "13582": 9,
        "13583": 59,
        "13584": 122,
        "13585": 222,
        "13586": 248,
        "13587": 92,
        "13588": 114,
        "13589": 217,
        "13590": 125,
        "13591": 208,
        "13592": 181,
        "13593": 70,
        "13594": 85,
        "13595": 48,
        "13596": 119,
        "13597": 219,
        "13598": 98,
        "13599": 214,
        "13600": 185,
        "13601": 130,
        "13602": 62,
        "13603": 103,
        "13604": 98,
        "13605": 68,
        "13606": 72,
        "13607": 176,
        "13608": 213,
        "13609": 37,
        "13610": 47,
        "13611": 250,
        "13612": 165,
        "13613": 77,
        "13614": 169,
        "13615": 44,
        "13616": 124,
        "13617": 128,
        "13618": 155,
        "13619": 210,
        "13620": 200,
        "13621": 185,
        "13622": 215,
        "13623": 208,
        "13624": 42,
        "13625": 12,
        "13626": 149,
        "13627": 107,
        "13628": 91,
        "13629": 21,
        "13630": 154,
        "13631": 170,
        "13632": 112,
        "13633": 45,
        "13634": 88,
        "13635": 0,
        "13636": 189,
        "13637": 162,
        "13638": 141,
        "13639": 142,
        "13640": 94,
        "13641": 102,
        "13642": 18,
        "13643": 116,
        "13644": 61,
        "13645": 26,
        "13646": 205,
        "13647": 21,
        "13648": 41,
        "13649": 62,
        "13650": 118,
        "13651": 45,
        "13652": 16,
        "13653": 160,
        "13654": 135,
        "13655": 94,
        "13656": 252,
        "13657": 223,
        "13658": 227,
        "13659": 150,
        "13660": 204,
        "13661": 51,
        "13662": 166,
        "13663": 120,
        "13664": 224,
        "13665": 197,
        "13666": 235,
        "13667": 226,
        "13668": 62,
        "13669": 38,
        "13670": 54,
        "13671": 232,
        "13672": 143,
        "13673": 187,
        "13674": 53,
        "13675": 109,
        "13676": 227,
        "13677": 77,
        "13678": 74,
        "13679": 139,
        "13680": 34,
        "13681": 183,
        "13682": 100,
        "13683": 30,
        "13684": 115,
        "13685": 69,
        "13686": 53,
        "13687": 204,
        "13688": 187,
        "13689": 114,
        "13690": 151,
        "13691": 166,
        "13692": 49,
        "13693": 29,
        "13694": 191,
        "13695": 119,
        "13696": 234,
        "13697": 0,
        "13698": 188,
        "13699": 91,
        "13700": 54,
        "13701": 48,
        "13702": 142,
        "13703": 118,
        "13704": 43,
        "13705": 5,
        "13706": 112,
        "13707": 107,
        "13708": 37,
        "13709": 252,
        "13710": 76,
        "13711": 85,
        "13712": 66,
        "13713": 119,
        "13714": 247,
        "13715": 137,
        "13716": 225,
        "13717": 19,
        "13718": 134,
        "13719": 92,
        "13720": 24,
        "13721": 81,
        "13722": 165,
        "13723": 240,
        "13724": 198,
        "13725": 175,
        "13726": 79,
        "13727": 203,
        "13728": 190,
        "13729": 101,
        "13730": 131,
        "13731": 252,
        "13732": 25,
        "13733": 111,
        "13734": 250,
        "13735": 22,
        "13736": 102,
        "13737": 53,
        "13738": 79,
        "13739": 240,
        "13740": 26,
        "13741": 62,
        "13742": 66,
        "13743": 182,
        "13744": 19,
        "13745": 124,
        "13746": 63,
        "13747": 99,
        "13748": 121,
        "13749": 118,
        "13750": 193,
        "13751": 169,
        "13752": 211,
        "13753": 45,
        "13754": 130,
        "13755": 45,
        "13756": 201,
        "13757": 229,
        "13758": 12,
        "13759": 55,
        "13760": 241,
        "13761": 22,
        "13762": 130,
        "13763": 237,
        "13764": 108,
        "13765": 102,
        "13766": 214,
        "13767": 23,
        "13768": 247,
        "13769": 246,
        "13770": 150,
        "13771": 207,
        "13772": 13,
        "13773": 68,
        "13774": 60,
        "13775": 109,
        "13776": 122,
        "13777": 78,
        "13778": 194,
        "13779": 96,
        "13780": 150,
        "13781": 120,
        "13782": 30,
        "13783": 43,
        "13784": 4,
        "13785": 214,
        "13786": 109,
        "13787": 254,
        "13788": 81,
        "13789": 146,
        "13790": 26,
        "13791": 231,
        "13792": 245,
        "13793": 40,
        "13794": 37,
        "13795": 222,
        "13796": 142,
        "13797": 117,
        "13798": 195,
        "13799": 215,
        "13800": 175,
        "13801": 100,
        "13802": 103,
        "13803": 57,
        "13804": 198,
        "13805": 230,
        "13806": 132,
        "13807": 222,
        "13808": 65,
        "13809": 34,
        "13810": 68,
        "13811": 95,
        "13812": 248,
        "13813": 11,
        "13814": 44,
        "13815": 18,
        "13816": 220,
        "13817": 215,
        "13818": 104,
        "13819": 180,
        "13820": 116,
        "13821": 24,
        "13822": 203,
        "13823": 78,
        "13824": 250,
        "13825": 72,
        "13826": 161,
        "13827": 113,
        "13828": 51,
        "13829": 211,
        "13830": 19,
        "13831": 206,
        "13832": 199,
        "13833": 70,
        "13834": 190,
        "13835": 180,
        "13836": 154,
        "13837": 90,
        "13838": 59,
        "13839": 239,
        "13840": 167,
        "13841": 210,
        "13842": 148,
        "13843": 224,
        "13844": 96,
        "13845": 51,
        "13846": 142,
        "13847": 224,
        "13848": 127,
        "13849": 197,
        "13850": 198,
        "13851": 244,
        "13852": 114,
        "13853": 46,
        "13854": 188,
        "13855": 198,
        "13856": 84,
        "13857": 176,
        "13858": 118,
        "13859": 44,
        "13860": 249,
        "13861": 79,
        "13862": 241,
        "13863": 122,
        "13864": 56,
        "13865": 251,
        "13866": 119,
        "13867": 18,
        "13868": 135,
        "13869": 183,
        "13870": 183,
        "13871": 44,
        "13872": 130,
        "13873": 120,
        "13874": 244,
        "13875": 48,
        "13876": 169,
        "13877": 211,
        "13878": 25,
        "13879": 128,
        "13880": 46,
        "13881": 100,
        "13882": 7,
        "13883": 153,
        "13884": 129,
        "13885": 129,
        "13886": 39,
        "13887": 183,
        "13888": 120,
        "13889": 176,
        "13890": 219,
        "13891": 68,
        "13892": 158,
        "13893": 54,
        "13894": 68,
        "13895": 56,
        "13896": 4,
        "13897": 195,
        "13898": 91,
        "13899": 218,
        "13900": 197,
        "13901": 10,
        "13902": 225,
        "13903": 116,
        "13904": 21,
        "13905": 253,
        "13906": 12,
        "13907": 194,
        "13908": 242,
        "13909": 217,
        "13910": 160,
        "13911": 176,
        "13912": 204,
        "13913": 244,
        "13914": 125,
        "13915": 27,
        "13916": 187,
        "13917": 197,
        "13918": 185,
        "13919": 0,
        "13920": 117,
        "13921": 127,
        "13922": 175,
        "13923": 23,
        "13924": 251,
        "13925": 52,
        "13926": 49,
        "13927": 135,
        "13928": 21,
        "13929": 123,
        "13930": 171,
        "13931": 38,
        "13932": 62,
        "13933": 94,
        "13934": 163,
        "13935": 81,
        "13936": 59,
        "13937": 76,
        "13938": 206,
        "13939": 95,
        "13940": 241,
        "13941": 45,
        "13942": 200,
        "13943": 62,
        "13944": 38,
        "13945": 159,
        "13946": 8,
        "13947": 42,
        "13948": 239,
        "13949": 29,
        "13950": 193,
        "13951": 27,
        "13952": 117,
        "13953": 119,
        "13954": 232,
        "13955": 123,
        "13956": 96,
        "13957": 97,
        "13958": 250,
        "13959": 92,
        "13960": 216,
        "13961": 116,
        "13962": 20,
        "13963": 170,
        "13964": 126,
        "13965": 173,
        "13966": 36,
        "13967": 165,
        "13968": 246,
        "13969": 237,
        "13970": 89,
        "13971": 29,
        "13972": 28,
        "13973": 53,
        "13974": 225,
        "13975": 15,
        "13976": 135,
        "13977": 163,
        "13978": 225,
        "13979": 112,
        "13980": 110,
        "13981": 157,
        "13982": 89,
        "13983": 49,
        "13984": 113,
        "13985": 35,
        "13986": 146,
        "13987": 245,
        "13988": 164,
        "13989": 92,
        "13990": 113,
        "13991": 190,
        "13992": 0,
        "13993": 111,
        "13994": 245,
        "13995": 171,
        "13996": 214,
        "13997": 80,
        "13998": 140,
        "13999": 45,
        "14000": 48,
        "14001": 207,
        "14002": 68,
        "14003": 240,
        "14004": 124,
        "14005": 227,
        "14006": 50,
        "14007": 183,
        "14008": 159,
        "14009": 104,
        "14010": 161,
        "14011": 236,
        "14012": 129,
        "14013": 52,
        "14014": 154,
        "14015": 182,
        "14016": 33,
        "14017": 146,
        "14018": 200,
        "14019": 6,
        "14020": 29,
        "14021": 36,
        "14022": 67,
        "14023": 52,
        "14024": 17,
        "14025": 46,
        "14026": 187,
        "14027": 50,
        "14028": 211,
        "14029": 176,
        "14030": 240,
        "14031": 133,
        "14032": 197,
        "14033": 62,
        "14034": 44,
        "14035": 22,
        "14036": 67,
        "14037": 137,
        "14038": 190,
        "14039": 60,
        "14040": 170,
        "14041": 30,
        "14042": 153,
        "14043": 242,
        "14044": 38,
        "14045": 175,
        "14046": 27,
        "14047": 117,
        "14048": 105,
        "14049": 145,
        "14050": 28,
        "14051": 9,
        "14052": 131,
        "14053": 153,
        "14054": 177,
        "14055": 171,
        "14056": 241,
        "14057": 6,
        "14058": 251,
        "14059": 217,
        "14060": 13,
        "14061": 180,
        "14062": 153,
        "14063": 33,
        "14064": 12,
        "14065": 140,
        "14066": 142,
        "14067": 220,
        "14068": 82,
        "14069": 229,
        "14070": 219,
        "14071": 66,
        "14072": 1,
        "14073": 113,
        "14074": 98,
        "14075": 206,
        "14076": 157,
        "14077": 143,
        "14078": 65,
        "14079": 66,
        "14080": 102,
        "14081": 41,
        "14082": 233,
        "14083": 33,
        "14084": 234,
        "14085": 163,
        "14086": 84,
        "14087": 241,
        "14088": 166,
        "14089": 132,
        "14090": 183,
        "14091": 27,
        "14092": 226,
        "14093": 8,
        "14094": 81,
        "14095": 38,
        "14096": 129,
        "14097": 28,
        "14098": 34,
        "14099": 9,
        "14100": 133,
        "14101": 5,
        "14102": 96,
        "14103": 209,
        "14104": 229,
        "14105": 211,
        "14106": 195,
        "14107": 162,
        "14108": 251,
        "14109": 45,
        "14110": 116,
        "14111": 41,
        "14112": 191,
        "14113": 177,
        "14114": 223,
        "14115": 81,
        "14116": 89,
        "14117": 168,
        "14118": 240,
        "14119": 43,
        "14120": 102,
        "14121": 184,
        "14122": 63,
        "14123": 228,
        "14124": 98,
        "14125": 156,
        "14126": 28,
        "14127": 103,
        "14128": 197,
        "14129": 214,
        "14130": 211,
        "14131": 49,
        "14132": 227,
        "14133": 31,
        "14134": 113,
        "14135": 125,
        "14136": 62,
        "14137": 113,
        "14138": 162,
        "14139": 75,
        "14140": 44,
        "14141": 213,
        "14142": 94,
        "14143": 198,
        "14144": 77,
        "14145": 238,
        "14146": 227,
        "14147": 133,
        "14148": 252,
        "14149": 136,
        "14150": 48,
        "14151": 39,
        "14152": 164,
        "14153": 76,
        "14154": 127,
        "14155": 92,
        "14156": 101,
        "14157": 46,
        "14158": 116,
        "14159": 108,
        "14160": 83,
        "14161": 94,
        "14162": 69,
        "14163": 231,
        "14164": 208,
        "14165": 254,
        "14166": 132,
        "14167": 100,
        "14168": 16,
        "14169": 249,
        "14170": 63,
        "14171": 232,
        "14172": 241,
        "14173": 198,
        "14174": 22,
        "14175": 59,
        "14176": 51,
        "14177": 122,
        "14178": 160,
        "14179": 47,
        "14180": 26,
        "14181": 228,
        "14182": 38,
        "14183": 85,
        "14184": 243,
        "14185": 90,
        "14186": 85,
        "14187": 180,
        "14188": 228,
        "14189": 146,
        "14190": 79,
        "14191": 135,
        "14192": 183,
        "14193": 131,
        "14194": 11,
        "14195": 121,
        "14196": 6,
        "14197": 196,
        "14198": 18,
        "14199": 255,
        "14200": 229,
        "14201": 50,
        "14202": 187,
        "14203": 76,
        "14204": 184,
        "14205": 12,
        "14206": 107,
        "14207": 173,
        "14208": 39,
        "14209": 105,
        "14210": 106,
        "14211": 95,
        "14212": 159,
        "14213": 92,
        "14214": 62,
        "14215": 37,
        "14216": 251,
        "14217": 21,
        "14218": 6,
        "14219": 119,
        "14220": 129,
        "14221": 220,
        "14222": 57,
        "14223": 167,
        "14224": 224,
        "14225": 22,
        "14226": 240,
        "14227": 117,
        "14228": 16,
        "14229": 122,
        "14230": 75,
        "14231": 148,
        "14232": 19,
        "14233": 101,
        "14234": 196,
        "14235": 128,
        "14236": 64,
        "14237": 237,
        "14238": 40,
        "14239": 31,
        "14240": 204,
        "14241": 40,
        "14242": 158,
        "14243": 238,
        "14244": 186,
        "14245": 18,
        "14246": 242,
        "14247": 6,
        "14248": 227,
        "14249": 149,
        "14250": 74,
        "14251": 174,
        "14252": 69,
        "14253": 12,
        "14254": 25,
        "14255": 129,
        "14256": 56,
        "14257": 195,
        "14258": 29,
        "14259": 83,
        "14260": 98,
        "14261": 54,
        "14262": 171,
        "14263": 160,
        "14264": 23,
        "14265": 131,
        "14266": 187,
        "14267": 83,
        "14268": 116,
        "14269": 88,
        "14270": 45,
        "14271": 64,
        "14272": 74,
        "14273": 178,
        "14274": 191,
        "14275": 52,
        "14276": 162,
        "14277": 113,
        "14278": 111,
        "14279": 250,
        "14280": 53,
        "14281": 101,
        "14282": 152,
        "14283": 173,
        "14284": 60,
        "14285": 199,
        "14286": 20,
        "14287": 74,
        "14288": 214,
        "14289": 232,
        "14290": 62,
        "14291": 169,
        "14292": 41,
        "14293": 254,
        "14294": 46,
        "14295": 136,
        "14296": 253,
        "14297": 241,
        "14298": 93,
        "14299": 253,
        "14300": 106,
        "14301": 21,
        "14302": 85,
        "14303": 244,
        "14304": 177,
        "14305": 198,
        "14306": 149,
        "14307": 135,
        "14308": 252,
        "14309": 9,
        "14310": 238,
        "14311": 44,
        "14312": 106,
        "14313": 45,
        "14314": 173,
        "14315": 108,
        "14316": 201,
        "14317": 69,
        "14318": 69,
        "14319": 255,
        "14320": 102,
        "14321": 200,
        "14322": 178,
        "14323": 15,
        "14324": 55,
        "14325": 7,
        "14326": 255,
        "14327": 54,
        "14328": 191,
        "14329": 229,
        "14330": 250,
        "14331": 24,
        "14332": 22,
        "14333": 187,
        "14334": 44,
        "14335": 61,
        "14336": 179,
        "14337": 140,
        "14338": 21,
        "14339": 130,
        "14340": 115,
        "14341": 4,
        "14342": 234,
        "14343": 202,
        "14344": 16,
        "14345": 249,
        "14346": 97,
        "14347": 100,
        "14348": 102,
        "14349": 159,
        "14350": 50,
        "14351": 82,
        "14352": 126,
        "14353": 180,
        "14354": 238,
        "14355": 135,
        "14356": 95,
        "14357": 40,
        "14358": 224,
        "14359": 34,
        "14360": 0,
        "14361": 249,
        "14362": 112,
        "14363": 168,
        "14364": 143,
        "14365": 207,
        "14366": 233,
        "14367": 233,
        "14368": 223,
        "14369": 14,
        "14370": 155,
        "14371": 147,
        "14372": 205,
        "14373": 64,
        "14374": 126,
        "14375": 28,
        "14376": 148,
        "14377": 63,
        "14378": 81,
        "14379": 71,
        "14380": 241,
        "14381": 147,
        "14382": 214,
        "14383": 74,
        "14384": 193,
        "14385": 249,
        "14386": 49,
        "14387": 24,
        "14388": 37,
        "14389": 214,
        "14390": 147,
        "14391": 150,
        "14392": 115,
        "14393": 122,
        "14394": 220,
        "14395": 209,
        "14396": 71,
        "14397": 135,
        "14398": 101,
        "14399": 206,
        "14400": 163,
        "14401": 57,
        "14402": 250,
        "14403": 18,
        "14404": 201,
        "14405": 138,
        "14406": 197,
        "14407": 109,
        "14408": 18,
        "14409": 36,
        "14410": 178,
        "14411": 252,
        "14412": 142,
        "14413": 183,
        "14414": 164,
        "14415": 97,
        "14416": 189,
        "14417": 24,
        "14418": 252,
        "14419": 243,
        "14420": 91,
        "14421": 53,
        "14422": 233,
        "14423": 87,
        "14424": 54,
        "14425": 92,
        "14426": 67,
        "14427": 206,
        "14428": 153,
        "14429": 64,
        "14430": 61,
        "14431": 88,
        "14432": 169,
        "14433": 149,
        "14434": 44,
        "14435": 74,
        "14436": 214,
        "14437": 244,
        "14438": 195,
        "14439": 19,
        "14440": 250,
        "14441": 143,
        "14442": 173,
        "14443": 60,
        "14444": 139,
        "14445": 12,
        "14446": 217,
        "14447": 39,
        "14448": 43,
        "14449": 74,
        "14450": 237,
        "14451": 213,
        "14452": 139,
        "14453": 44,
        "14454": 121,
        "14455": 181,
        "14456": 168,
        "14457": 29,
        "14458": 16,
        "14459": 195,
        "14460": 70,
        "14461": 136,
        "14462": 218,
        "14463": 87,
        "14464": 250,
        "14465": 32,
        "14466": 180,
        "14467": 70,
        "14468": 184,
        "14469": 110,
        "14470": 185,
        "14471": 165,
        "14472": 218,
        "14473": 201,
        "14474": 103,
        "14475": 146,
        "14476": 174,
        "14477": 65,
        "14478": 88,
        "14479": 30,
        "14480": 28,
        "14481": 109,
        "14482": 154,
        "14483": 249,
        "14484": 220,
        "14485": 87,
        "14486": 56,
        "14487": 19,
        "14488": 83,
        "14489": 120,
        "14490": 164,
        "14491": 11,
        "14492": 66,
        "14493": 201,
        "14494": 69,
        "14495": 16,
        "14496": 64,
        "14497": 49,
        "14498": 85,
        "14499": 92,
        "14500": 194,
        "14501": 43,
        "14502": 127,
        "14503": 0,
        "14504": 197,
        "14505": 0,
        "14506": 71,
        "14507": 135,
        "14508": 85,
        "14509": 57,
        "14510": 0,
        "14511": 195,
        "14512": 175,
        "14513": 179,
        "14514": 211,
        "14515": 121,
        "14516": 255,
        "14517": 111,
        "14518": 138,
        "14519": 103,
        "14520": 16,
        "14521": 56,
        "14522": 41,
        "14523": 45,
        "14524": 194,
        "14525": 230,
        "14526": 110,
        "14527": 56,
        "14528": 178,
        "14529": 4,
        "14530": 23,
        "14531": 11,
        "14532": 153,
        "14533": 11,
        "14534": 184,
        "14535": 159,
        "14536": 187,
        "14537": 227,
        "14538": 134,
        "14539": 240,
        "14540": 195,
        "14541": 130,
        "14542": 154,
        "14543": 203,
        "14544": 12,
        "14545": 228,
        "14546": 149,
        "14547": 8,
        "14548": 39,
        "14549": 216,
        "14550": 133,
        "14551": 157,
        "14552": 229,
        "14553": 216,
        "14554": 162,
        "14555": 0,
        "14556": 203,
        "14557": 83,
        "14558": 67,
        "14559": 74,
        "14560": 200,
        "14561": 195,
        "14562": 246,
        "14563": 25,
        "14564": 42,
        "14565": 0,
        "14566": 227,
        "14567": 143,
        "14568": 106,
        "14569": 67,
        "14570": 8,
        "14571": 174,
        "14572": 150,
        "14573": 204,
        "14574": 231,
        "14575": 197,
        "14576": 30,
        "14577": 107,
        "14578": 121,
        "14579": 155,
        "14580": 72,
        "14581": 4,
        "14582": 82,
        "14583": 244,
        "14584": 71,
        "14585": 26,
        "14586": 62,
        "14587": 51,
        "14588": 57,
        "14589": 111,
        "14590": 48,
        "14591": 24,
        "14592": 198,
        "14593": 132,
        "14594": 205,
        "14595": 219,
        "14596": 182,
        "14597": 34,
        "14598": 59,
        "14599": 214,
        "14600": 62,
        "14601": 217,
        "14602": 181,
        "14603": 229,
        "14604": 117,
        "14605": 89,
        "14606": 202,
        "14607": 162,
        "14608": 172,
        "14609": 91,
        "14610": 209,
        "14611": 28,
        "14612": 113,
        "14613": 196,
        "14614": 122,
        "14615": 224,
        "14616": 101,
        "14617": 110,
        "14618": 209,
        "14619": 118,
        "14620": 114,
        "14621": 35,
        "14622": 52,
        "14623": 57,
        "14624": 92,
        "14625": 219,
        "14626": 11,
        "14627": 23,
        "14628": 53,
        "14629": 14,
        "14630": 0,
        "14631": 190,
        "14632": 128,
        "14633": 148,
        "14634": 126,
        "14635": 78,
        "14636": 108,
        "14637": 254,
        "14638": 169,
        "14639": 76,
        "14640": 40,
        "14641": 31,
        "14642": 130,
        "14643": 128,
        "14644": 136,
        "14645": 138,
        "14646": 160,
        "14647": 13,
        "14648": 168,
        "14649": 190,
        "14650": 85,
        "14651": 67,
        "14652": 203,
        "14653": 110,
        "14654": 9,
        "14655": 14,
        "14656": 196,
        "14657": 142,
        "14658": 105,
        "14659": 1,
        "14660": 100,
        "14661": 251,
        "14662": 129,
        "14663": 211,
        "14664": 122,
        "14665": 87,
        "14666": 58,
        "14667": 41,
        "14668": 202,
        "14669": 52,
        "14670": 162,
        "14671": 78,
        "14672": 102,
        "14673": 223,
        "14674": 179,
        "14675": 143,
        "14676": 82,
        "14677": 202,
        "14678": 226,
        "14679": 74,
        "14680": 224,
        "14681": 107,
        "14682": 188,
        "14683": 58,
        "14684": 252,
        "14685": 210,
        "14686": 238,
        "14687": 133,
        "14688": 134,
        "14689": 93,
        "14690": 0,
        "14691": 65,
        "14692": 200,
        "14693": 43,
        "14694": 113,
        "14695": 245,
        "14696": 46,
        "14697": 249,
        "14698": 113,
        "14699": 203,
        "14700": 251,
        "14701": 141,
        "14702": 12,
        "14703": 150,
        "14704": 116,
        "14705": 185,
        "14706": 55,
        "14707": 201,
        "14708": 46,
        "14709": 21,
        "14710": 37,
        "14711": 146,
        "14712": 149,
        "14713": 201,
        "14714": 43,
        "14715": 210,
        "14716": 221,
        "14717": 17,
        "14718": 118,
        "14719": 41,
        "14720": 204,
        "14721": 243,
        "14722": 76,
        "14723": 66,
        "14724": 53,
        "14725": 105,
        "14726": 153,
        "14727": 125,
        "14728": 248,
        "14729": 33,
        "14730": 220,
        "14731": 185,
        "14732": 154,
        "14733": 240,
        "14734": 81,
        "14735": 82,
        "14736": 11,
        "14737": 98,
        "14738": 4,
        "14739": 102,
        "14740": 130,
        "14741": 221,
        "14742": 166,
        "14743": 191,
        "14744": 184,
        "14745": 195,
        "14746": 104,
        "14747": 9,
        "14748": 153,
        "14749": 62,
        "14750": 147,
        "14751": 78,
        "14752": 26,
        "14753": 196,
        "14754": 145,
        "14755": 75,
        "14756": 16,
        "14757": 5,
        "14758": 53,
        "14759": 18,
        "14760": 201,
        "14761": 180,
        "14762": 126,
        "14763": 152,
        "14764": 108,
        "14765": 136,
        "14766": 175,
        "14767": 247,
        "14768": 248,
        "14769": 102,
        "14770": 181,
        "14771": 179,
        "14772": 200,
        "14773": 207,
        "14774": 218,
        "14775": 175,
        "14776": 178,
        "14777": 171,
        "14778": 115,
        "14779": 29,
        "14780": 126,
        "14781": 163,
        "14782": 19,
        "14783": 58,
        "14784": 159,
        "14785": 87,
        "14786": 242,
        "14787": 87,
        "14788": 155,
        "14789": 3,
        "14790": 35,
        "14791": 224,
        "14792": 66,
        "14793": 208,
        "14794": 243,
        "14795": 45,
        "14796": 99,
        "14797": 148,
        "14798": 200,
        "14799": 209,
        "14800": 43,
        "14801": 236,
        "14802": 63,
        "14803": 250,
        "14804": 40,
        "14805": 128,
        "14806": 128,
        "14807": 27,
        "14808": 214,
        "14809": 235,
        "14810": 232,
        "14811": 110,
        "14812": 116,
        "14813": 61,
        "14814": 57,
        "14815": 34,
        "14816": 106,
        "14817": 121,
        "14818": 214,
        "14819": 1,
        "14820": 147,
        "14821": 251,
        "14822": 169,
        "14823": 162,
        "14824": 63,
        "14825": 73,
        "14826": 35,
        "14827": 124,
        "14828": 27,
        "14829": 215,
        "14830": 139,
        "14831": 158,
        "14832": 111,
        "14833": 108,
        "14834": 70,
        "14835": 44,
        "14836": 226,
        "14837": 78,
        "14838": 222,
        "14839": 44,
        "14840": 205,
        "14841": 235,
        "14842": 197,
        "14843": 37,
        "14844": 108,
        "14845": 159,
        "14846": 120,
        "14847": 161,
        "14848": 204,
        "14849": 245,
        "14850": 249,
        "14851": 142,
        "14852": 4,
        "14853": 186,
        "14854": 194,
        "14855": 25,
        "14856": 102,
        "14857": 122,
        "14858": 151,
        "14859": 199,
        "14860": 15,
        "14861": 52,
        "14862": 147,
        "14863": 204,
        "14864": 215,
        "14865": 231,
        "14866": 161,
        "14867": 223,
        "14868": 147,
        "14869": 36,
        "14870": 120,
        "14871": 22,
        "14872": 166,
        "14873": 126,
        "14874": 67,
        "14875": 175,
        "14876": 10,
        "14877": 48,
        "14878": 88,
        "14879": 18,
        "14880": 222,
        "14881": 167,
        "14882": 65,
        "14883": 74,
        "14884": 144,
        "14885": 15,
        "14886": 130,
        "14887": 189,
        "14888": 232,
        "14889": 226,
        "14890": 139,
        "14891": 161,
        "14892": 153,
        "14893": 42,
        "14894": 167,
        "14895": 113,
        "14896": 164,
        "14897": 174,
        "14898": 51,
        "14899": 12,
        "14900": 109,
        "14901": 91,
        "14902": 61,
        "14903": 98,
        "14904": 67,
        "14905": 37,
        "14906": 71,
        "14907": 100,
        "14908": 135,
        "14909": 108,
        "14910": 49,
        "14911": 78,
        "14912": 210,
        "14913": 146,
        "14914": 226,
        "14915": 144,
        "14916": 217,
        "14917": 54,
        "14918": 48,
        "14919": 95,
        "14920": 192,
        "14921": 195,
        "14922": 88,
        "14923": 178,
        "14924": 77,
        "14925": 240,
        "14926": 133,
        "14927": 49,
        "14928": 110,
        "14929": 162,
        "14930": 186,
        "14931": 249,
        "14932": 33,
        "14933": 139,
        "14934": 78,
        "14935": 166,
        "14936": 131,
        "14937": 27,
        "14938": 147,
        "14939": 211,
        "14940": 109,
        "14941": 171,
        "14942": 175,
        "14943": 141,
        "14944": 146,
        "14945": 86,
        "14946": 122,
        "14947": 97,
        "14948": 242,
        "14949": 167,
        "14950": 124,
        "14951": 53,
        "14952": 82,
        "14953": 145,
        "14954": 77,
        "14955": 141,
        "14956": 35,
        "14957": 178,
        "14958": 246,
        "14959": 231,
        "14960": 253,
        "14961": 255,
        "14962": 27,
        "14963": 71,
        "14964": 208,
        "14965": 67,
        "14966": 67,
        "14967": 130,
        "14968": 85,
        "14969": 100,
        "14970": 68,
        "14971": 56,
        "14972": 253,
        "14973": 27,
        "14974": 209,
        "14975": 226,
        "14976": 239,
        "14977": 226,
        "14978": 227,
        "14979": 106,
        "14980": 225,
        "14981": 144,
        "14982": 98,
        "14983": 117,
        "14984": 124,
        "14985": 14,
        "14986": 49,
        "14987": 87,
        "14988": 13,
        "14989": 146,
        "14990": 121,
        "14991": 100,
        "14992": 139,
        "14993": 103,
        "14994": 18,
        "14995": 3,
        "14996": 8,
        "14997": 193,
        "14998": 133,
        "14999": 227,
        "15000": 81,
        "15001": 164,
        "15002": 148,
        "15003": 221,
        "15004": 14,
        "15005": 109,
        "15006": 200,
        "15007": 180,
        "15008": 158,
        "15009": 199,
        "15010": 46,
        "15011": 95,
        "15012": 198,
        "15013": 42,
        "15014": 71,
        "15015": 135,
        "15016": 105,
        "15017": 241,
        "15018": 25,
        "15019": 116,
        "15020": 209,
        "15021": 191,
        "15022": 210,
        "15023": 239,
        "15024": 1,
        "15025": 185,
        "15026": 44,
        "15027": 10,
        "15028": 152,
        "15029": 123,
        "15030": 56,
        "15031": 130,
        "15032": 197,
        "15033": 232,
        "15034": 228,
        "15035": 228,
        "15036": 228,
        "15037": 190,
        "15038": 141,
        "15039": 112,
        "15040": 45,
        "15041": 230,
        "15042": 113,
        "15043": 51,
        "15044": 243,
        "15045": 39,
        "15046": 245,
        "15047": 211,
        "15048": 98,
        "15049": 147,
        "15050": 14,
        "15051": 229,
        "15052": 198,
        "15053": 224,
        "15054": 220,
        "15055": 100,
        "15056": 139,
        "15057": 190,
        "15058": 81,
        "15059": 168,
        "15060": 82,
        "15061": 114,
        "15062": 61,
        "15063": 3,
        "15064": 12,
        "15065": 145,
        "15066": 135,
        "15067": 120,
        "15068": 119,
        "15069": 117,
        "15070": 32,
        "15071": 63,
        "15072": 170,
        "15073": 143,
        "15074": 41,
        "15075": 31,
        "15076": 1,
        "15077": 44,
        "15078": 117,
        "15079": 177,
        "15080": 211,
        "15081": 243,
        "15082": 241,
        "15083": 170,
        "15084": 61,
        "15085": 177,
        "15086": 234,
        "15087": 43,
        "15088": 203,
        "15089": 141,
        "15090": 31,
        "15091": 23,
        "15092": 241,
        "15093": 67,
        "15094": 169,
        "15095": 129,
        "15096": 101,
        "15097": 8,
        "15098": 152,
        "15099": 70,
        "15100": 36,
        "15101": 103,
        "15102": 200,
        "15103": 246,
        "15104": 115,
        "15105": 113,
        "15106": 161,
        "15107": 245,
        "15108": 27,
        "15109": 195,
        "15110": 110,
        "15111": 255,
        "15112": 147,
        "15113": 30,
        "15114": 41,
        "15115": 158,
        "15116": 3,
        "15117": 95,
        "15118": 31,
        "15119": 181,
        "15120": 68,
        "15121": 108,
        "15122": 183,
        "15123": 148,
        "15124": 238,
        "15125": 153,
        "15126": 165,
        "15127": 78,
        "15128": 234,
        "15129": 93,
        "15130": 148,
        "15131": 35,
        "15132": 63,
        "15133": 45,
        "15134": 35,
        "15135": 187,
        "15136": 68,
        "15137": 70,
        "15138": 165,
        "15139": 175,
        "15140": 59,
        "15141": 118,
        "15142": 29,
        "15143": 210,
        "15144": 209,
        "15145": 36,
        "15146": 84,
        "15147": 110,
        "15148": 242,
        "15149": 109,
        "15150": 223,
        "15151": 94,
        "15152": 110,
        "15153": 192,
        "15154": 254,
        "15155": 214,
        "15156": 199,
        "15157": 159,
        "15158": 107,
        "15159": 129,
        "15160": 102,
        "15161": 72,
        "15162": 153,
        "15163": 241,
        "15164": 176,
        "15165": 160,
        "15166": 242,
        "15167": 127,
        "15168": 201,
        "15169": 105,
        "15170": 146,
        "15171": 144,
        "15172": 233,
        "15173": 47,
        "15174": 130,
        "15175": 128,
        "15176": 185,
        "15177": 251,
        "15178": 1,
        "15179": 47,
        "15180": 123,
        "15181": 17,
        "15182": 16,
        "15183": 39,
        "15184": 114,
        "15185": 74,
        "15186": 97,
        "15187": 44,
        "15188": 137,
        "15189": 102,
        "15190": 244,
        "15191": 82,
        "15192": 187,
        "15193": 170,
        "15194": 119,
        "15195": 31,
        "15196": 216,
        "15197": 29,
        "15198": 29,
        "15199": 194,
        "15200": 172,
        "15201": 47,
        "15202": 118,
        "15203": 164,
        "15204": 83,
        "15205": 180,
        "15206": 3,
        "15207": 122,
        "15208": 120,
        "15209": 106,
        "15210": 233,
        "15211": 27,
        "15212": 239,
        "15213": 102,
        "15214": 152,
        "15215": 100,
        "15216": 163,
        "15217": 53,
        "15218": 252,
        "15219": 66,
        "15220": 219,
        "15221": 81,
        "15222": 116,
        "15223": 248,
        "15224": 62,
        "15225": 176,
        "15226": 150,
        "15227": 235,
        "15228": 134,
        "15229": 100,
        "15230": 37,
        "15231": 212,
        "15232": 27,
        "15233": 198,
        "15234": 7,
        "15235": 250,
        "15236": 114,
        "15237": 217,
        "15238": 40,
        "15239": 226,
        "15240": 217,
        "15241": 68,
        "15242": 160,
        "15243": 109,
        "15244": 157,
        "15245": 28,
        "15246": 30,
        "15247": 120,
        "15248": 111,
        "15249": 95,
        "15250": 233,
        "15251": 93,
        "15252": 99,
        "15253": 172,
        "15254": 162,
        "15255": 96,
        "15256": 135,
        "15257": 176,
        "15258": 60,
        "15259": 225,
        "15260": 30,
        "15261": 79,
        "15262": 61,
        "15263": 191,
        "15264": 110,
        "15265": 82,
        "15266": 64,
        "15267": 56,
        "15268": 176,
        "15269": 69,
        "15270": 150,
        "15271": 52,
        "15272": 246,
        "15273": 126,
        "15274": 21,
        "15275": 245,
        "15276": 247,
        "15277": 43,
        "15278": 203,
        "15279": 105,
        "15280": 242,
        "15281": 227,
        "15282": 26,
        "15283": 156,
        "15284": 59,
        "15285": 172,
        "15286": 151,
        "15287": 118,
        "15288": 57,
        "15289": 255,
        "15290": 155,
        "15291": 176,
        "15292": 189,
        "15293": 56,
        "15294": 140,
        "15295": 80,
        "15296": 117,
        "15297": 168,
        "15298": 34,
        "15299": 39,
        "15300": 238,
        "15301": 30,
        "15302": 108,
        "15303": 51,
        "15304": 86,
        "15305": 75,
        "15306": 186,
        "15307": 13,
        "15308": 188,
        "15309": 133,
        "15310": 7,
        "15311": 104,
        "15312": 116,
        "15313": 191,
        "15314": 127,
        "15315": 70,
        "15316": 240,
        "15317": 168,
        "15318": 44,
        "15319": 101,
        "15320": 213,
        "15321": 41,
        "15322": 52,
        "15323": 224,
        "15324": 209,
        "15325": 114,
        "15326": 247,
        "15327": 167,
        "15328": 20,
        "15329": 51,
        "15330": 67,
        "15331": 84,
        "15332": 174,
        "15333": 9,
        "15334": 137,
        "15335": 21,
        "15336": 103,
        "15337": 203,
        "15338": 23,
        "15339": 118,
        "15340": 78,
        "15341": 100,
        "15342": 44,
        "15343": 43,
        "15344": 39,
        "15345": 109,
        "15346": 194,
        "15347": 12,
        "15348": 131,
        "15349": 33,
        "15350": 19,
        "15351": 202,
        "15352": 42,
        "15353": 147,
        "15354": 196,
        "15355": 93,
        "15356": 249,
        "15357": 177,
        "15358": 71,
        "15359": 154,
        "15360": 239,
        "15361": 95,
        "15362": 179,
        "15363": 159,
        "15364": 110,
        "15365": 170,
        "15366": 201,
        "15367": 42,
        "15368": 172,
        "15369": 13,
        "15370": 162,
        "15371": 26,
        "15372": 227,
        "15373": 147,
        "15374": 187,
        "15375": 142,
        "15376": 187,
        "15377": 205,
        "15378": 205,
        "15379": 241,
        "15380": 35,
        "15381": 220,
        "15382": 97,
        "15383": 174,
        "15384": 217,
        "15385": 58,
        "15386": 192,
        "15387": 177,
        "15388": 215,
        "15389": 37,
        "15390": 145,
        "15391": 6,
        "15392": 159,
        "15393": 220,
        "15394": 10,
        "15395": 211,
        "15396": 186,
        "15397": 180,
        "15398": 133,
        "15399": 94,
        "15400": 8,
        "15401": 77,
        "15402": 152,
        "15403": 34,
        "15404": 150,
        "15405": 193,
        "15406": 28,
        "15407": 179,
        "15408": 179,
        "15409": 74,
        "15410": 60,
        "15411": 56,
        "15412": 254,
        "15413": 75,
        "15414": 72,
        "15415": 19,
        "15416": 198,
        "15417": 226,
        "15418": 250,
        "15419": 126,
        "15420": 168,
        "15421": 253,
        "15422": 228,
        "15423": 99,
        "15424": 92,
        "15425": 118,
        "15426": 225,
        "15427": 64,
        "15428": 175,
        "15429": 163,
        "15430": 9,
        "15431": 87,
        "15432": 214,
        "15433": 38,
        "15434": 70,
        "15435": 197,
        "15436": 5,
        "15437": 196,
        "15438": 156,
        "15439": 92,
        "15440": 55,
        "15441": 165,
        "15442": 210,
        "15443": 136,
        "15444": 124,
        "15445": 115,
        "15446": 218,
        "15447": 226,
        "15448": 200,
        "15449": 73,
        "15450": 244,
        "15451": 223,
        "15452": 231,
        "15453": 179,
        "15454": 155,
        "15455": 48,
        "15456": 42,
        "15457": 56,
        "15458": 203,
        "15459": 135,
        "15460": 7,
        "15461": 178,
        "15462": 198,
        "15463": 162,
        "15464": 51,
        "15465": 23,
        "15466": 255,
        "15467": 118,
        "15468": 61,
        "15469": 103,
        "15470": 58,
        "15471": 215,
        "15472": 122,
        "15473": 137,
        "15474": 109,
        "15475": 56,
        "15476": 86,
        "15477": 222,
        "15478": 45,
        "15479": 193,
        "15480": 72,
        "15481": 108,
        "15482": 92,
        "15483": 116,
        "15484": 77,
        "15485": 58,
        "15486": 95,
        "15487": 121,
        "15488": 181,
        "15489": 123,
        "15490": 172,
        "15491": 113,
        "15492": 37,
        "15493": 167,
        "15494": 59,
        "15495": 241,
        "15496": 225,
        "15497": 27,
        "15498": 38,
        "15499": 47,
        "15500": 70,
        "15501": 39,
        "15502": 180,
        "15503": 135,
        "15504": 84,
        "15505": 81,
        "15506": 107,
        "15507": 131,
        "15508": 210,
        "15509": 125,
        "15510": 103,
        "15511": 138,
        "15512": 49,
        "15513": 166,
        "15514": 103,
        "15515": 112,
        "15516": 186,
        "15517": 241,
        "15518": 189,
        "15519": 166,
        "15520": 215,
        "15521": 216,
        "15522": 56,
        "15523": 41,
        "15524": 202,
        "15525": 201,
        "15526": 148,
        "15527": 106,
        "15528": 220,
        "15529": 219,
        "15530": 32,
        "15531": 249,
        "15532": 69,
        "15533": 221,
        "15534": 164,
        "15535": 5,
        "15536": 58,
        "15537": 7,
        "15538": 188,
        "15539": 220,
        "15540": 155,
        "15541": 231,
        "15542": 93,
        "15543": 225,
        "15544": 24,
        "15545": 124,
        "15546": 251,
        "15547": 178,
        "15548": 77,
        "15549": 29,
        "15550": 115,
        "15551": 134,
        "15552": 87,
        "15553": 142,
        "15554": 23,
        "15555": 95,
        "15556": 9,
        "15557": 79,
        "15558": 149,
        "15559": 83,
        "15560": 12,
        "15561": 112,
        "15562": 14,
        "15563": 61,
        "15564": 126,
        "15565": 214,
        "15566": 43,
        "15567": 155,
        "15568": 2,
        "15569": 116,
        "15570": 209,
        "15571": 114,
        "15572": 55,
        "15573": 112,
        "15574": 213,
        "15575": 179,
        "15576": 180,
        "15577": 143,
        "15578": 154,
        "15579": 1,
        "15580": 221,
        "15581": 40,
        "15582": 160,
        "15583": 43,
        "15584": 93,
        "15585": 63,
        "15586": 215,
        "15587": 20,
        "15588": 26,
        "15589": 11,
        "15590": 121,
        "15591": 103,
        "15592": 230,
        "15593": 210,
        "15594": 252,
        "15595": 243,
        "15596": 224,
        "15597": 197,
        "15598": 161,
        "15599": 222,
        "15600": 251,
        "15601": 21,
        "15602": 114,
        "15603": 132,
        "15604": 112,
        "15605": 77,
        "15606": 144,
        "15607": 234,
        "15608": 202,
        "15609": 231,
        "15610": 237,
        "15611": 238,
        "15612": 151,
        "15613": 59,
        "15614": 27,
        "15615": 131,
        "15616": 56,
        "15617": 69,
        "15618": 141,
        "15619": 121,
        "15620": 138,
        "15621": 74,
        "15622": 45,
        "15623": 175,
        "15624": 122,
        "15625": 122,
        "15626": 138,
        "15627": 227,
        "15628": 103,
        "15629": 112,
        "15630": 211,
        "15631": 190,
        "15632": 244,
        "15633": 174,
        "15634": 54,
        "15635": 71,
        "15636": 156,
        "15637": 123,
        "15638": 128,
        "15639": 202,
        "15640": 204,
        "15641": 142,
        "15642": 196,
        "15643": 19,
        "15644": 231,
        "15645": 61,
        "15646": 140,
        "15647": 7,
        "15648": 253,
        "15649": 134,
        "15650": 172,
        "15651": 154,
        "15652": 86,
        "15653": 169,
        "15654": 112,
        "15655": 39,
        "15656": 170,
        "15657": 38,
        "15658": 129,
        "15659": 113,
        "15660": 164,
        "15661": 141,
        "15662": 17,
        "15663": 135,
        "15664": 137,
        "15665": 61,
        "15666": 177,
        "15667": 231,
        "15668": 119,
        "15669": 48,
        "15670": 238,
        "15671": 43,
        "15672": 220,
        "15673": 64,
        "15674": 174,
        "15675": 230,
        "15676": 120,
        "15677": 2,
        "15678": 8,
        "15679": 200,
        "15680": 47,
        "15681": 36,
        "15682": 72,
        "15683": 168,
        "15684": 250,
        "15685": 76,
        "15686": 63,
        "15687": 197,
        "15688": 168,
        "15689": 20,
        "15690": 27,
        "15691": 170,
        "15692": 159,
        "15693": 221,
        "15694": 2,
        "15695": 30,
        "15696": 195,
        "15697": 187,
        "15698": 168,
        "15699": 64,
        "15700": 162,
        "15701": 168,
        "15702": 32,
        "15703": 175,
        "15704": 6,
        "15705": 12,
        "15706": 166,
        "15707": 142,
        "15708": 166,
        "15709": 4,
        "15710": 121,
        "15711": 232,
        "15712": 153,
        "15713": 148,
        "15714": 83,
        "15715": 18,
        "15716": 54,
        "15717": 34,
        "15718": 122,
        "15719": 106,
        "15720": 167,
        "15721": 222,
        "15722": 19,
        "15723": 143,
        "15724": 77,
        "15725": 134,
        "15726": 224,
        "15727": 77,
        "15728": 173,
        "15729": 170,
        "15730": 24,
        "15731": 119,
        "15732": 235,
        "15733": 102,
        "15734": 9,
        "15735": 180,
        "15736": 207,
        "15737": 129,
        "15738": 103,
        "15739": 251,
        "15740": 243,
        "15741": 209,
        "15742": 9,
        "15743": 107,
        "15744": 196,
        "15745": 200,
        "15746": 31,
        "15747": 13,
        "15748": 51,
        "15749": 139,
        "15750": 54,
        "15751": 64,
        "15752": 199,
        "15753": 42,
        "15754": 63,
        "15755": 165,
        "15756": 58,
        "15757": 109,
        "15758": 127,
        "15759": 172,
        "15760": 82,
        "15761": 188,
        "15762": 67,
        "15763": 32,
        "15764": 113,
        "15765": 125,
        "15766": 144,
        "15767": 145,
        "15768": 218,
        "15769": 90,
        "15770": 176,
        "15771": 74,
        "15772": 206,
        "15773": 171,
        "15774": 11,
        "15775": 83,
        "15776": 230,
        "15777": 129,
        "15778": 77,
        "15779": 154,
        "15780": 201,
        "15781": 45,
        "15782": 242,
        "15783": 15,
        "15784": 233,
        "15785": 58,
        "15786": 220,
        "15787": 157,
        "15788": 181,
        "15789": 11,
        "15790": 67,
        "15791": 243,
        "15792": 7,
        "15793": 231,
        "15794": 1,
        "15795": 9,
        "15796": 196,
        "15797": 132,
        "15798": 171,
        "15799": 220,
        "15800": 148,
        "15801": 153,
        "15802": 25,
        "15803": 144,
        "15804": 146,
        "15805": 81,
        "15806": 3,
        "15807": 238,
        "15808": 26,
        "15809": 14,
        "15810": 41,
        "15811": 91,
        "15812": 157,
        "15813": 88,
        "15814": 255,
        "15815": 139,
        "15816": 206,
        "15817": 115,
        "15818": 226,
        "15819": 101,
        "15820": 141,
        "15821": 86,
        "15822": 9,
        "15823": 220,
        "15824": 104,
        "15825": 87,
        "15826": 182,
        "15827": 4,
        "15828": 235,
        "15829": 199,
        "15830": 146,
        "15831": 73,
        "15832": 91,
        "15833": 10,
        "15834": 57,
        "15835": 126,
        "15836": 34,
        "15837": 145,
        "15838": 89,
        "15839": 153,
        "15840": 54,
        "15841": 236,
        "15842": 158,
        "15843": 76,
        "15844": 31,
        "15845": 15,
        "15846": 24,
        "15847": 45,
        "15848": 25,
        "15849": 220,
        "15850": 204,
        "15851": 203,
        "15852": 247,
        "15853": 7,
        "15854": 117,
        "15855": 143,
        "15856": 102,
        "15857": 235,
        "15858": 7,
        "15859": 243,
        "15860": 201,
        "15861": 21,
        "15862": 118,
        "15863": 153,
        "15864": 48,
        "15865": 95,
        "15866": 64,
        "15867": 131,
        "15868": 171,
        "15869": 201,
        "15870": 118,
        "15871": 1,
        "15872": 54,
        "15873": 224,
        "15874": 112,
        "15875": 31,
        "15876": 30,
        "15877": 40,
        "15878": 175,
        "15879": 75,
        "15880": 195,
        "15881": 175,
        "15882": 225,
        "15883": 249,
        "15884": 244,
        "15885": 6,
        "15886": 151,
        "15887": 114,
        "15888": 210,
        "15889": 251,
        "15890": 227,
        "15891": 204,
        "15892": 198,
        "15893": 132,
        "15894": 150,
        "15895": 4,
        "15896": 154,
        "15897": 64,
        "15898": 99,
        "15899": 84,
        "15900": 220,
        "15901": 65,
        "15902": 168,
        "15903": 27,
        "15904": 148,
        "15905": 248,
        "15906": 76,
        "15907": 232,
        "15908": 90,
        "15909": 142,
        "15910": 123,
        "15911": 22,
        "15912": 180,
        "15913": 185,
        "15914": 150,
        "15915": 182,
        "15916": 50,
        "15917": 119,
        "15918": 183,
        "15919": 27,
        "15920": 4,
        "15921": 233,
        "15922": 191,
        "15923": 108,
        "15924": 192,
        "15925": 21,
        "15926": 76,
        "15927": 195,
        "15928": 103,
        "15929": 202,
        "15930": 249,
        "15931": 33,
        "15932": 14,
        "15933": 222,
        "15934": 30,
        "15935": 231,
        "15936": 215,
        "15937": 43,
        "15938": 151,
        "15939": 31,
        "15940": 221,
        "15941": 56,
        "15942": 231,
        "15943": 173,
        "15944": 35,
        "15945": 112,
        "15946": 17,
        "15947": 239,
        "15948": 146,
        "15949": 9,
        "15950": 3,
        "15951": 193,
        "15952": 30,
        "15953": 107,
        "15954": 72,
        "15955": 240,
        "15956": 68,
        "15957": 127,
        "15958": 76,
        "15959": 165,
        "15960": 210,
        "15961": 210,
        "15962": 4,
        "15963": 45,
        "15964": 180,
        "15965": 92,
        "15966": 48,
        "15967": 226,
        "15968": 79,
        "15969": 154,
        "15970": 117,
        "15971": 216,
        "15972": 41,
        "15973": 133,
        "15974": 220,
        "15975": 6,
        "15976": 74,
        "15977": 129,
        "15978": 194,
        "15979": 59,
        "15980": 6,
        "15981": 212,
        "15982": 23,
        "15983": 124,
        "15984": 198,
        "15985": 119,
        "15986": 143,
        "15987": 84,
        "15988": 98,
        "15989": 67,
        "15990": 251,
        "15991": 107,
        "15992": 47,
        "15993": 201,
        "15994": 139,
        "15995": 219,
        "15996": 59,
        "15997": 91,
        "15998": 47,
        "15999": 180,
        "16000": 209,
        "16001": 76,
        "16002": 224,
        "16003": 244,
        "16004": 11,
        "16005": 227,
        "16006": 200,
        "16007": 228,
        "16008": 177,
        "16009": 179,
        "16010": 123,
        "16011": 187,
        "16012": 255,
        "16013": 230,
        "16014": 98,
        "16015": 181,
        "16016": 122,
        "16017": 52,
        "16018": 240,
        "16019": 50,
        "16020": 179,
        "16021": 144,
        "16022": 4,
        "16023": 175,
        "16024": 63,
        "16025": 165,
        "16026": 181,
        "16027": 240,
        "16028": 70,
        "16029": 128,
        "16030": 213,
        "16031": 244,
        "16032": 166,
        "16033": 53,
        "16034": 176,
        "16035": 110,
        "16036": 84,
        "16037": 134,
        "16038": 222,
        "16039": 100,
        "16040": 85,
        "16041": 234,
        "16042": 65,
        "16043": 254,
        "16044": 182,
        "16045": 232,
        "16046": 44,
        "16047": 134,
        "16048": 209,
        "16049": 141,
        "16050": 227,
        "16051": 8,
        "16052": 140,
        "16053": 229,
        "16054": 181,
        "16055": 178,
        "16056": 151,
        "16057": 53,
        "16058": 24,
        "16059": 54,
        "16060": 246,
        "16061": 235,
        "16062": 169,
        "16063": 40,
        "16064": 187,
        "16065": 135,
        "16066": 6,
        "16067": 54,
        "16068": 206,
        "16069": 254,
        "16070": 66,
        "16071": 149,
        "16072": 163,
        "16073": 25,
        "16074": 242,
        "16075": 62,
        "16076": 129,
        "16077": 156,
        "16078": 137,
        "16079": 109,
        "16080": 5,
        "16081": 181,
        "16082": 139,
        "16083": 232,
        "16084": 182,
        "16085": 70,
        "16086": 194,
        "16087": 9,
        "16088": 104,
        "16089": 115,
        "16090": 242,
        "16091": 211,
        "16092": 40,
        "16093": 139,
        "16094": 171,
        "16095": 4,
        "16096": 32,
        "16097": 43,
        "16098": 132,
        "16099": 32,
        "16100": 4,
        "16101": 11,
        "16102": 104,
        "16103": 202,
        "16104": 77,
        "16105": 220,
        "16106": 178,
        "16107": 116,
        "16108": 233,
        "16109": 6,
        "16110": 84,
        "16111": 181,
        "16112": 18,
        "16113": 109,
        "16114": 107,
        "16115": 16,
        "16116": 165,
        "16117": 222,
        "16118": 122,
        "16119": 11,
        "16120": 150,
        "16121": 7,
        "16122": 46,
        "16123": 206,
        "16124": 189,
        "16125": 178,
        "16126": 35,
        "16127": 168,
        "16128": 193,
        "16129": 236,
        "16130": 65,
        "16131": 134,
        "16132": 53,
        "16133": 177,
        "16134": 151,
        "16135": 205,
        "16136": 182,
        "16137": 132,
        "16138": 79,
        "16139": 60,
        "16140": 11,
        "16141": 235,
        "16142": 130,
        "16143": 68,
        "16144": 4,
        "16145": 151,
        "16146": 202,
        "16147": 43,
        "16148": 128,
        "16149": 20,
        "16150": 78,
        "16151": 7,
        "16152": 105,
        "16153": 166,
        "16154": 86,
        "16155": 182,
        "16156": 185,
        "16157": 48,
        "16158": 136,
        "16159": 140,
        "16160": 146,
        "16161": 116,
        "16162": 61,
        "16163": 7,
        "16164": 105,
        "16165": 216,
        "16166": 172,
        "16167": 201,
        "16168": 197,
        "16169": 35,
        "16170": 187,
        "16171": 210,
        "16172": 47,
        "16173": 242,
        "16174": 137,
        "16175": 147,
        "16176": 251,
        "16177": 71,
        "16178": 24,
        "16179": 16,
        "16180": 238,
        "16181": 148,
        "16182": 231,
        "16183": 254,
        "16184": 86,
        "16185": 35,
        "16186": 71,
        "16187": 2,
        "16188": 168,
        "16189": 192,
        "16190": 15,
        "16191": 203,
        "16192": 136,
        "16193": 115,
        "16194": 209,
        "16195": 255,
        "16196": 190,
        "16197": 109,
        "16198": 178,
        "16199": 0,
        "16200": 62,
        "16201": 88,
        "16202": 240,
        "16203": 174,
        "16204": 5,
        "16205": 32,
        "16206": 190,
        "16207": 101,
        "16208": 194,
        "16209": 238,
        "16210": 18,
        "16211": 11,
        "16212": 37,
        "16213": 217,
        "16214": 100,
        "16215": 172,
        "16216": 93,
        "16217": 100,
        "16218": 43,
        "16219": 30,
        "16220": 59,
        "16221": 31,
        "16222": 84,
        "16223": 220,
        "16224": 158,
        "16225": 241,
        "16226": 42,
        "16227": 13,
        "16228": 152,
        "16229": 88,
        "16230": 126,
        "16231": 223,
        "16232": 71,
        "16233": 236,
        "16234": 172,
        "16235": 6,
        "16236": 193,
        "16237": 225,
        "16238": 219,
        "16239": 144,
        "16240": 161,
        "16241": 132,
        "16242": 142,
        "16243": 230,
        "16244": 97,
        "16245": 133,
        "16246": 130,
        "16247": 218,
        "16248": 119,
        "16249": 99,
        "16250": 157,
        "16251": 175,
        "16252": 15,
        "16253": 220,
        "16254": 215,
        "16255": 145,
        "16256": 13,
        "16257": 48,
        "16258": 115,
        "16259": 252,
        "16260": 88,
        "16261": 206,
        "16262": 246,
        "16263": 42,
        "16264": 82,
        "16265": 199,
        "16266": 184,
        "16267": 131,
        "16268": 54,
        "16269": 118,
        "16270": 57,
        "16271": 193,
        "16272": 74,
        "16273": 197,
        "16274": 254,
        "16275": 131,
        "16276": 204,
        "16277": 151,
        "16278": 209,
        "16279": 132,
        "16280": 113,
        "16281": 61,
        "16282": 4,
        "16283": 156,
        "16284": 188,
        "16285": 184,
        "16286": 253,
        "16287": 118,
        "16288": 53,
        "16289": 7,
        "16290": 3,
        "16291": 242,
        "16292": 62,
        "16293": 138,
        "16294": 47,
        "16295": 21,
        "16296": 146,
        "16297": 194,
        "16298": 162,
        "16299": 221,
        "16300": 45,
        "16301": 244,
        "16302": 29,
        "16303": 201,
        "16304": 116,
        "16305": 89,
        "16306": 49,
        "16307": 142,
        "16308": 175,
        "16309": 227,
        "16310": 39,
        "16311": 244,
        "16312": 249,
        "16313": 80,
        "16314": 115,
        "16315": 54,
        "16316": 74,
        "16317": 66,
        "16318": 39,
        "16319": 56,
        "16320": 111,
        "16321": 248,
        "16322": 191,
        "16323": 208,
        "16324": 196,
        "16325": 8,
        "16326": 0,
        "16327": 30,
        "16328": 92,
        "16329": 36,
        "16330": 115,
        "16331": 167,
        "16332": 59,
        "16333": 187,
        "16334": 129,
        "16335": 193,
        "16336": 46,
        "16337": 169,
        "16338": 72,
        "16339": 95,
        "16340": 194,
        "16341": 180,
        "16342": 152,
        "16343": 9,
        "16344": 21,
        "16345": 76,
        "16346": 249,
        "16347": 228,
        "16348": 65,
        "16349": 80,
        "16350": 50,
        "16351": 221,
        "16352": 56,
        "16353": 98,
        "16354": 116,
        "16355": 25,
        "16356": 123,
        "16357": 88,
        "16358": 111,
        "16359": 32,
        "16360": 222,
        "16361": 88,
        "16362": 34,
        "16363": 226,
        "16364": 168,
        "16365": 181,
        "16366": 193,
        "16367": 9,
        "16368": 13,
        "16369": 28,
        "16370": 120,
        "16371": 114,
        "16372": 164,
        "16373": 32,
        "16374": 170,
        "16375": 56,
        "16376": 23,
        "16377": 125,
        "16378": 225,
        "16379": 3,
        "16380": 126,
        "16381": 186,
        "16382": 81,
        "16383": 217,
        "16384": 134,
        "16385": 243,
        "16386": 129,
        "16387": 203,
        "16388": 126,
        "16389": 148,
        "16390": 124,
        "16391": 87,
        "16392": 156,
        "16393": 244,
        "16394": 10,
        "16395": 137,
        "16396": 110,
        "16397": 194,
        "16398": 189,
        "16399": 100,
        "16400": 100,
        "16401": 254,
        "16402": 102,
        "16403": 43,
        "16404": 246,
        "16405": 164,
        "16406": 169,
        "16407": 179,
        "16408": 37,
        "16409": 211,
        "16410": 10,
        "16411": 158,
        "16412": 236,
        "16413": 92,
        "16414": 199,
        "16415": 146,
        "16416": 91,
        "16417": 117,
        "16418": 33,
        "16419": 219,
        "16420": 89,
        "16421": 120,
        "16422": 224,
        "16423": 156,
        "16424": 207,
        "16425": 134,
        "16426": 154,
        "16427": 126,
        "16428": 118,
        "16429": 100,
        "16430": 237,
        "16431": 69,
        "16432": 111,
        "16433": 57,
        "16434": 239,
        "16435": 134,
        "16436": 38,
        "16437": 15,
        "16438": 190,
        "16439": 255,
        "16440": 134,
        "16441": 171,
        "16442": 206,
        "16443": 113,
        "16444": 89,
        "16445": 198,
        "16446": 13,
        "16447": 63,
        "16448": 43,
        "16449": 252,
        "16450": 2,
        "16451": 253,
        "16452": 226,
        "16453": 60,
        "16454": 216,
        "16455": 23,
        "16456": 72,
        "16457": 102,
        "16458": 217,
        "16459": 8,
        "16460": 224,
        "16461": 22,
        "16462": 39,
        "16463": 225,
        "16464": 129,
        "16465": 204,
        "16466": 212,
        "16467": 72,
        "16468": 232,
        "16469": 78,
        "16470": 5,
        "16471": 111,
        "16472": 132,
        "16473": 191,
        "16474": 102,
        "16475": 92,
        "16476": 230,
        "16477": 52,
        "16478": 156,
        "16479": 95,
        "16480": 152,
        "16481": 231,
        "16482": 131,
        "16483": 229,
        "16484": 156,
        "16485": 141,
        "16486": 60,
        "16487": 153,
        "16488": 169,
        "16489": 73,
        "16490": 54,
        "16491": 103,
        "16492": 233,
        "16493": 208,
        "16494": 235,
        "16495": 15,
        "16496": 143,
        "16497": 238,
        "16498": 182,
        "16499": 89,
        "16500": 58,
        "16501": 236,
        "16502": 230,
        "16503": 107,
        "16504": 219,
        "16505": 24,
        "16506": 4,
        "16507": 48,
        "16508": 231,
        "16509": 95,
        "16510": 66,
        "16511": 160,
        "16512": 59,
        "16513": 125,
        "16514": 124,
        "16515": 148,
        "16516": 235,
        "16517": 217,
        "16518": 33,
        "16519": 107,
        "16520": 1,
        "16521": 8,
        "16522": 0,
        "16523": 0,
        "16524": 0,
        "16525": 0,
        "16526": 0,
        "16527": 0,
        "16528": 16,
        "16529": 0,
        "16530": 0,
        "16531": 0,
        "16532": 0,
        "16533": 0,
        "16534": 0,
        "16535": 0,
        "16536": 0,
        "16537": 0,
        "16538": 0,
        "16539": 0,
        "16540": 0,
        "16541": 0,
        "16542": 0,
        "16543": 0,
        "16544": 0,
        "16545": 0,
        "16546": 0,
        "16547": 0,
        "16548": 0,
        "16549": 0,
        "16550": 0,
        "16551": 0,
        "16552": 64,
        "16553": 0,
        "16554": 0,
        "16555": 0,
        "16556": 0,
        "16557": 0,
        "16558": 0,
        "16559": 0,
        "16560": 3,
        "16561": 0,
        "16562": 0,
        "16563": 0,
        "16564": 0,
        "16565": 0,
        "16566": 0,
        "16567": 0,
        "16568": 4,
        "16569": 0,
        "16570": 0,
        "16571": 0,
        "16572": 0,
        "16573": 0,
        "16574": 0,
        "16575": 0,
        "16576": 4,
        "16577": 0,
        "16578": 0,
        "16579": 0,
        "16580": 0,
        "16581": 0,
        "16582": 0,
        "16583": 0,
        "16584": 0,
        "16585": 0,
        "16586": 0,
        "16587": 0,
        "16588": 1,
        "16589": 0,
        "16590": 0,
        "16591": 0,
        "16592": 0,
        "16593": 0,
        "16594": 0,
        "16595": 0,
        "16596": 16,
        "16597": 0,
        "16598": 0,
        "16599": 0,
        "16600": 0,
        "16601": 0,
        "16602": 0,
        "16603": 0
      }
    }
  ],
  "numDeployments": 1,
  "solcInputHash": "f1c4819dff4901f932bc09041517ddc1",
  "bytecode": "0x6101606040526200001760006200026660201b60201c565b6004553480156200002757600080fd5b50604051620046ed380380620046ed83398181016040528101906200004d919062000b83565b6040518060400160405280600881526020017f46616b652046475a0000000000000000000000000000000000000000000000008152506040518060400160405280600481526020017f6646475a00000000000000000000000000000000000000000000000000000000815250338383836040518060400160405280601181526020017f4668656e6978205065726d697373696f6e0000000000000000000000000000008152506040518060400160405280600381526020017f312e3000000000000000000000000000000000000000000000000000000000008152506200013f6000836200028260201b90919060201c565b61012081815250506200015d6001826200028260201b90919060201c565b6101408181525050818051906020012060e08181525050808051906020012061010081815250504660a081815250506200019c620002da60201b60201c565b608081815250503073ffffffffffffffffffffffffffffffffffffffff1660c08173ffffffffffffffffffffffffffffffffffffffff168152505050508160059081620001ea919062000e1f565b508060069081620001fc919062000e1f565b505050600062000212826200033760201b60201c565b9050620002486200023c8262000230617fff6200026660201b60201c565b6200035560201b60201c565b620003f860201b60201c565b6200025a8382620004cb60201b60201c565b50505050505062001260565b60006200027b8260026200057160201b60201c565b9050919050565b6000602083511015620002a857620002a0836200062860201b60201c565b9050620002d4565b82620002ba836200069560201b60201c565b6000019081620002cb919062000e1f565b5060ff60001b90505b92915050565b60007f8b73c3c69bb8fe3d512ecc4cf759cc79239f7b179b0ffacaa9a75d522b39400f60e0516101005146306040516020016200031c95949392919062000f77565b60405160208183030381529060405280519060200120905090565b60006200034e82600001516200069f60201b60201c565b9050919050565b60006200036883620006bb60201b60201c565b62000382576200037f60006200026660201b60201c565b92505b6200039382620006bb60201b60201c565b620003ad57620003aa60006200026660201b60201c565b91505b600083905060008390506000620003ea60028484608073ffffffffffffffffffffffffffffffffffffffff1663eb274b77620006c860201b60201c565b905080935050505092915050565b62000409816200077960201b60201c565b62000423576200042060006200078660201b60201c565b90505b600081905060006200043b82620007a260201b60201c565b9050608073ffffffffffffffffffffffffffffffffffffffff16637d23f1db600d836040518363ffffffff1660e01b81526004016200047c9291906200104f565b600060405180830381865afa1580156200049a573d6000803e3d6000fd5b505050506040513d6000823e3d601f19601f82011682018060405250810190620004c5919062001083565b50505050565b62000516600260008473ffffffffffffffffffffffffffffffffffffffff1673ffffffffffffffffffffffffffffffffffffffff168152602001908152602001600020548262000803565b600260008473ffffffffffffffffffffffffffffffffffffffff1673ffffffffffffffffffffffffffffffffffffffff16815260200190815260200160002081905550620005676004548262000803565b6004819055505050565b60006060608073ffffffffffffffffffffffffffffffffffffffff166319e1c5c4620005a386620007a260201b60201c565b856040518363ffffffff1660e01b8152600401620005c3929190620010d4565b600060405180830381865afa158015620005e1573d6000803e3d6000fd5b505050506040513d6000823e3d601f19601f820116820180604052508101906200060c919062001083565b90506200061f816200081f60201b60201c565b91505092915050565b600080829050601f815111156200067857826040517f305a27a90000000000000000000000000000000000000000000000000000000081526004016200066f91906200115a565b60405180910390fd5b8051816200068690620011a5565b60001c1760001b915050919050565b6000819050919050565b6000620006b48260026200082d60201b60201c565b9050919050565b6000808214159050919050565b60006060838388620006e089620007a260201b60201c565b620006f189620007a260201b60201c565b6040518463ffffffff1660e01b8152600401620007119392919062001215565b600060405180830381865afa1580156200072f573d6000803e3d6000fd5b505050506040513d6000823e3d601f19601f820116820180604052508101906200075a919062001083565b90506200076d81620008d460201b60201c565b91505095945050505050565b6000808214159050919050565b60006200079b82600d6200057160201b60201c565b9050919050565b6060602067ffffffffffffffff811115620007c257620007c1620009ae565b5b6040519080825280601f01601f191660200182016040528015620007f55781602001600182028036833780820191505090505b509050816020820152919050565b6000620008178383620008e260201b60201c565b905092915050565b600060208201519050919050565b60006060608073ffffffffffffffffffffffffffffffffffffffff16635fa55ca784866040518363ffffffff1660e01b81526004016200086f9291906200104f565b600060405180830381865afa1580156200088d573d6000803e3d6000fd5b505050506040513d6000823e3d601f19601f82011682018060405250810190620008b8919062001083565b9050620008cb816200081f60201b60201c565b91505092915050565b600060208201519050919050565b6000620008f583620006bb60201b60201c565b6200090f576200090c60006200026660201b60201c565b92505b6200092082620006bb60201b60201c565b6200093a576200093760006200026660201b60201c565b91505b6000839050600083905060006200097660028484608073ffffffffffffffffffffffffffffffffffffffff16622df619620006c860201b60201c565b905080935050505092915050565b6000604051905090565b600080fd5b600080fd5b600080fd5b6000601f19601f8301169050919050565b7f4e487b7100000000000000000000000000000000000000000000000000000000600052604160045260246000fd5b620009e8826200099d565b810181811067ffffffffffffffff8211171562000a0a5762000a09620009ae565b5b80604052505050565b600062000a1f62000984565b905062000a2d8282620009dd565b919050565b600080fd5b600080fd5b600080fd5b600067ffffffffffffffff82111562000a5f5762000a5e620009ae565b5b62000a6a826200099d565b9050602081019050919050565b60005b8381101562000a9757808201518184015260208101905062000a7a565b60008484015250505050565b600062000aba62000ab48462000a41565b62000a13565b90508281526020810184848401111562000ad95762000ad862000a3c565b5b62000ae684828562000a77565b509392505050565b600082601f83011262000b065762000b0562000a37565b5b815162000b1884826020860162000aa3565b91505092915050565b60006020828403121562000b3a5762000b3962000998565b5b62000b46602062000a13565b9050600082015167ffffffffffffffff81111562000b695762000b6862000a32565b5b62000b778482850162000aee565b60008301525092915050565b60006020828403121562000b9c5762000b9b6200098e565b5b600082015167ffffffffffffffff81111562000bbd5762000bbc62000993565b5b62000bcb8482850162000b21565b91505092915050565b600081519050919050565b7f4e487b7100000000000000000000000000000000000000000000000000000000600052602260045260246000fd5b6000600282049050600182168062000c2757607f821691505b60208210810362000c3d5762000c3c62000bdf565b5b50919050565b60008190508160005260206000209050919050565b60006020601f8301049050919050565b600082821b905092915050565b60006008830262000ca77fffffffffffffffffffffffffffffffffffffffffffffffffffffffffffffffff8262000c68565b62000cb3868362000c68565b95508019841693508086168417925050509392505050565b6000819050919050565b6000819050919050565b600062000d0062000cfa62000cf48462000ccb565b62000cd5565b62000ccb565b9050919050565b6000819050919050565b62000d1c8362000cdf565b62000d3462000d2b8262000d07565b84845462000c75565b825550505050565b600090565b62000d4b62000d3c565b62000d5881848462000d11565b505050565b5b8181101562000d805762000d7460008262000d41565b60018101905062000d5e565b5050565b601f82111562000dcf5762000d998162000c43565b62000da48462000c58565b8101602085101562000db4578190505b62000dcc62000dc38562000c58565b83018262000d5d565b50505b505050565b600082821c905092915050565b600062000df46000198460080262000dd4565b1980831691505092915050565b600062000e0f838362000de1565b9150826002028217905092915050565b62000e2a8262000bd4565b67ffffffffffffffff81111562000e465762000e45620009ae565b5b62000e52825462000c0e565b62000e5f82828562000d84565b600060209050601f83116001811462000e97576000841562000e82578287015190505b62000e8e858262000e01565b86555062000efe565b601f19841662000ea78662000c43565b60005b8281101562000ed15784890151825560018201915060208501945060208101905062000eaa565b8683101562000ef1578489015162000eed601f89168262000de1565b8355505b6001600288020188555050505b505050505050565b6000819050919050565b62000f1b8162000f06565b82525050565b62000f2c8162000ccb565b82525050565b600073ffffffffffffffffffffffffffffffffffffffff82169050919050565b600062000f5f8262000f32565b9050919050565b62000f718162000f52565b82525050565b600060a08201905062000f8e600083018862000f10565b62000f9d602083018762000f10565b62000fac604083018662000f10565b62000fbb606083018562000f21565b62000fca608083018462000f66565b9695505050505050565b600060ff82169050919050565b62000fec8162000fd4565b82525050565b600081519050919050565b600082825260208201905092915050565b60006200101b8262000ff2565b62001027818562000ffd565b93506200103981856020860162000a77565b62001044816200099d565b840191505092915050565b600060408201905062001066600083018562000fe1565b81810360208301526200107a81846200100e565b90509392505050565b6000602082840312156200109c576200109b6200098e565b5b600082015167ffffffffffffffff811115620010bd57620010bc62000993565b5b620010cb8482850162000aee565b91505092915050565b60006040820190508181036000830152620010f081856200100e565b905062001101602083018462000fe1565b9392505050565b600082825260208201905092915050565b6000620011268262000bd4565b62001132818562001108565b93506200114481856020860162000a77565b6200114f816200099d565b840191505092915050565b6000602082019050818103600083015262001176818462001119565b905092915050565b6000819050602082019050919050565b60006200119c825162000f06565b80915050919050565b6000620011b28262000ff2565b82620011be846200117e565b9050620011cb816200118e565b925060208210156200120e57620012097fffffffffffffffffffffffffffffffffffffffffffffffffffffffffffffffff8360200360080262000c68565b831692505b5050919050565b60006060820190506200122c600083018662000fe1565b81810360208301526200124081856200100e565b905081810360408301526200125681846200100e565b9050949350505050565b60805160a05160c05160e051610100516101205161014051613432620012bb60003960006113ca0152600061138f015260006120d3015260006120b2015260006117f3015260006118490152600061187201526134326000f3fe608060405234801561001057600080fd5b50600436106101425760003560e01c80637ecebe00116100b8578063a9059cbb1161007c578063a9059cbb146103b9578063af575a00146103e9578063c4224c1914610419578063d505accf14610449578063d918156e14610465578063dd62ed3e1461049557610142565b80637ecebe00146102fb57806384b0196e1461032b5780638624a3491461034f57806395d89b411461037f5780639f284be71461039d57610142565b80633644e5151161010a5780633644e5151461020157806339c217f71461021f5780635356c4291461024f578063602772041461027f5780636e0505e1146102af57806370a08231146102cb57610142565b806306fdde0314610147578063095ea7b31461016557806318160ddd1461019557806323b872dd146101b3578063313ce567146101e3575b600080fd5b61014f6104c5565b60405161015c9190612494565b60405180910390f35b61017f600480360381019061017a919061255e565b610557565b60405161018c91906125b9565b60405180910390f35b61019d6105ab565b6040516101aa91906125e3565b60405180910390f35b6101cd60048036038101906101c891906125fe565b6105bd565b6040516101da91906125b9565b60405180910390f35b6101eb610692565b6040516101f8919061266d565b60405180910390f35b610209610697565b60405161021691906126a1565b60405180910390f35b610239600480360381019061023491906126e0565b610729565b6040516102469190612777565b60405180910390f35b610269600480360381019061026491906127b1565b61074e565b6040516102769190612494565b60405180910390f35b610299600480360381019061029491906129e4565b61084c565b6040516102a69190612494565b60405180910390f35b6102c960048036038101906102c49190612a7c565b610982565b005b6102e560048036038101906102e09190612aa9565b610ab9565b6040516102f291906125e3565b60405180910390f35b61031560048036038101906103109190612aa9565b610ad4565b60405161032291906125e3565b60405180910390f35b610333610aef565b6040516103469796959493929190612bde565b60405180910390f35b61036960048036038101906103649190612c62565b610b99565b6040516103769190612777565b60405180910390f35b610387610bd7565b6040516103949190612494565b60405180910390f35b6103b760048036038101906103b29190612a7c565b610c69565b005b6103d360048036038101906103ce919061255e565b610d76565b6040516103e091906125b9565b60405180910390f35b61040360048036038101906103fe9190612cfd565b610e08565b6040516104109190612777565b60405180910390f35b610433600480360381019061042e9190612d50565b610e35565b6040516104409190612777565b60405180910390f35b610463600480360381019061045e9190612dbc565b610e4a565b005b61047f600480360381019061047a91906126e0565b610fee565b60405161048c91906125b9565b60405180910390f35b6104af60048036038101906104aa9190612e5e565b611016565b6040516104bc91906125e3565b60405180910390f35b6060600580546104d490612ecd565b80601f016020809104026020016040519081016040528092919081815260200182805461050090612ecd565b801561054d5780601f106105225761010080835404028352916020019161054d565b820191906000526020600020905b81548152906001019060200180831161053057829003601f168201915b5050505050905090565b600082602052637f5e9f20600c5233600052816034600c205581600052602c5160601c337f8c5be1e5ebec7d5bd14f71427d1e84f3dd0314c0f7b2291e5b200ac8c7c3b92560206000a36001905092915050565b60006805345cdf77eb68f44c54905090565b60006105ca848484611036565b8360601b33602052637f5e9f208117600c526034600c20805460018101156106085780851115610602576313be252b6000526004601cfd5b84810382555b6387a211a28317600c526020600c2080548087111561062f5763f4d678b86000526004601cfd5b8681038255876000526020600c2087815401815587602052600c5160601c8660601c7fddf252ad1be2c89b69c2b068fc378daa952ba7f163c4a11628f55a4df523b3ef602080a350505050505061068784848461103b565b600190509392505050565b600090565b6000806106a2611040565b90506000801b81036106c0576106b66104c5565b8051906020012090505b6040517f8b73c3c69bb8fe3d512ecc4cf759cc79239f7b179b0ffacaa9a75d522b39400f81528160208201527fc89efdaa54c0f20c7adf612882df0950f5a951637e0307cdcb4c672f298b8bc6604082015246606082015230608082015260a081209250505090565b6000610746836107418461073c90612f56565b611045565b610e35565b905092915050565b60608161075a90612f69565b60006107b17f6bdaeb2d29561f159c7ef98b16b27015fb2aeb87209c7ee656226d912f59927d8360000151604051602001610796929190612f7c565b6040516020818303038152906040528051906020012061105b565b905060006107c3828460200151611075565b90503373ffffffffffffffffffffffffffffffffffffffff168173ffffffffffffffffffffffffffffffffffffffff161461082a576040517f3093a27700000000000000000000000000000000000000000000000000000000815260040160405180910390fd5b61084161083733886110a1565b8660000135611128565b935050505092915050565b6060818360006108a77f6bdaeb2d29561f159c7ef98b16b27015fb2aeb87209c7ee656226d912f59927d846000015160405160200161088c929190612f7c565b6040516020818303038152906040528051906020012061105b565b905060006108b9828560200151611075565b90508273ffffffffffffffffffffffffffffffffffffffff168173ffffffffffffffffffffffffffffffffffffffff1614610920576040517f51c65eae00000000000000000000000000000000000000000000000000000000815260040160405180910390fd5b6109768660000151600260008a73ffffffffffffffffffffffffffffffffffffffff1673ffffffffffffffffffffffffffffffffffffffff1681526020019081526020016000205461115e90919063ffffffff16565b94505050505092915050565b60006109938263ffffffff16611172565b905060006109fc6109ec83600260003373ffffffffffffffffffffffffffffffffffffffff1673ffffffffffffffffffffffffffffffffffffffff1681526020019081526020016000205461118690919063ffffffff16565b836109f76000611172565b61119a565b9050610a47600260003373ffffffffffffffffffffffffffffffffffffffff1673ffffffffffffffffffffffffffffffffffffffff1681526020019081526020016000205482611218565b600260003373ffffffffffffffffffffffffffffffffffffffff1673ffffffffffffffffffffffffffffffffffffffff16815260200190815260200160002081905550610a9660045482611218565b600481905550610ab433610aa98361122c565b63ffffffff166112ef565b505050565b60006387a211a2600c52816000526020600c20549050919050565b60006338377508600c52816000526020600c20549050919050565b600060608060008060006060610b03611386565b610b0b6113c1565b46306000801b600067ffffffffffffffff811115610b2c57610b2b612812565b5b604051908082528060200260200182016040528015610b5a5781602001602082028036833780820191505090505b507f0f00000000000000000000000000000000000000000000000000000000000000959493929190965096509650965096509650965090919293949596565b600080610bae83610ba990612f56565b611045565b90506000610bbd8633846113fc565b9050610bca868683611439565b5080925050509392505050565b606060068054610be690612ecd565b80601f0160208091040260200160405190810160405280929190818152602001828054610c1290612ecd565b8015610c5f5780601f10610c3457610100808354040283529160200191610c5f565b820191906000526020600020905b815481529060010190602001808311610c4257829003601f168201915b5050505050905090565b8063ffffffff16610c7933610ab9565b1015610cb1576040517ffda7bbda00000000000000000000000000000000000000000000000000000000815260040160405180910390fd5b610cc1338263ffffffff166115c6565b6000610cd28263ffffffff16611172565b9050610d1d600260003373ffffffffffffffffffffffffffffffffffffffff1673ffffffffffffffffffffffffffffffffffffffff168152602001908152602001600020548261165d565b600260003373ffffffffffffffffffffffffffffffffffffffff1673ffffffffffffffffffffffffffffffffffffffff16815260200190815260200160002081905550610d6c6004548261165d565b6004819055505050565b6000610d83338484611036565b6387a211a2600c52336000526020600c20805480841115610dac5763f4d678b86000526004601cfd5b8381038255846000526020600c2084815401815584602052600c5160601c337fddf252ad1be2c89b69c2b068fc378daa952ba7f163c4a11628f55a4df523b3ef602080a3505050610dfe33848461103b565b6001905092915050565b6000808290506000610e1b8633846113fc565b9050610e28868683611439565b5080925050509392505050565b6000610e42338484611439565b905092915050565b6000610e54611040565b90506000801b8103610e7257610e686104c5565b8051906020012090505b84421115610e8857631a15a3cc6000526004601cfd5b6040518860601b60601c98508760601b60601c975065383775081901600e52886000526020600c2080547f8b73c3c69bb8fe3d512ecc4cf759cc79239f7b179b0ffacaa9a75d522b39400f83528360208401527fc89efdaa54c0f20c7adf612882df0950f5a951637e0307cdcb4c672f298b8bc6604084015246606084015230608084015260a08320602e527f6e71edae12b1b97f4d1f60370fef10105fa2faae0126114a169c64845d6126c983528a60208401528960408401528860608401528060808401528760a084015260c08320604e526042602c206000528660ff1660205285604052846060526020806080600060015afa8b3d5114610f945763ddafbaef6000526004601cfd5b80820183558a637f5e9f2060a01b17604052896034602c20558a8c7f8c5be1e5ebec7d5bd14f71427d1e84f3dd0314c0f7b2291e5b200ac8c7c3b925602060608801a3836040526000606052505050505050505050505050565b600061100c33846110078561100290612f56565b611045565b611671565b6001905092915050565b600081602052637f5e9f20600c52826000526034600c2054905092915050565b505050565b505050565b600090565b600061105482600001516117db565b9050919050565b600061106e6110686117ef565b836118a6565b9050919050565b60008060008061108586866118e7565b9250925092506110958282611943565b82935050505092915050565b6000600360008473ffffffffffffffffffffffffffffffffffffffff1673ffffffffffffffffffffffffffffffffffffffff16815260200190815260200160002060008373ffffffffffffffffffffffffffffffffffffffff1673ffffffffffffffffffffffffffffffffffffffff16815260200190815260200160002054905092915050565b606061113383611aa7565b611144576111416000611172565b92505b600083905061115560028285611ab4565b91505092915050565b606061116a8383611128565b905092915050565b600061117f826002611b6a565b9050919050565b60006111928383611c0c565b905092915050565b60006111a584611c85565b6111b6576111b36000611c92565b93505b6111bf83611aa7565b6111d0576111cd6000611172565b92505b6111d982611aa7565b6111ea576111e76000611172565b91505b60008490506000849050600084905060006112086002858585611ca6565b9050809450505050509392505050565b60006112248383611d5e565b905092915050565b600061123782611aa7565b611248576112456000611172565b91505b6000829050600061125882611dd7565b90506000608073ffffffffffffffffffffffffffffffffffffffff166373cc01546002846040518363ffffffff1660e01b8152600401611299929190612ffa565b602060405180830381865afa1580156112b6573d6000803e3d6000fd5b505050506040513d601f19601f820116820180604052508101906112da919061303f565b90506112e581611e34565b9350505050919050565b6112fb60008383611036565b6805345cdf77eb68f44c548181018181101561131f5763e5cfe9576000526004601cfd5b806805345cdf77eb68f44c556387a211a2600c52836000526020600c2083815401815583602052600c5160601c60007fddf252ad1be2c89b69c2b068fc378daa952ba7f163c4a11628f55a4df523b3ef602080a35050506113826000838361103b565b5050565b60606113bc60007f0000000000000000000000000000000000000000000000000000000000000000611e3e90919063ffffffff16565b905090565b60606113f760017f0000000000000000000000000000000000000000000000000000000000000000611e3e90919063ffffffff16565b905090565b60008061140985856110a1565b905060006114178285611eee565b905061142d86866114288585611218565b611671565b80925050509392505050565b6000806114a1611491600260008873ffffffffffffffffffffffffffffffffffffffff1673ffffffffffffffffffffffffffffffffffffffff1681526020019081526020016000205485611f6790919063ffffffff16565b8461149c6000611172565b61119a565b90506114ec600260008673ffffffffffffffffffffffffffffffffffffffff1673ffffffffffffffffffffffffffffffffffffffff168152602001908152602001600020548261165d565b600260008673ffffffffffffffffffffffffffffffffffffffff1673ffffffffffffffffffffffffffffffffffffffff16815260200190815260200160002081905550611578600260008773ffffffffffffffffffffffffffffffffffffffff1673ffffffffffffffffffffffffffffffffffffffff1681526020019081526020016000205482611218565b600260008773ffffffffffffffffffffffffffffffffffffffff1673ffffffffffffffffffffffffffffffffffffffff16815260200190815260200160002081905550809150509392505050565b6115d282600083611036565b6387a211a2600c52816000526020600c208054808311156115fb5763f4d678b86000526004601cfd5b8281038255826805345cdf77eb68f44c54036805345cdf77eb68f44c558260005260008460601b60601c7fddf252ad1be2c89b69c2b068fc378daa952ba7f163c4a11628f55a4df523b3ef60206000a350506116598260008361103b565b5050565b60006116698383611f7b565b905092915050565b600073ffffffffffffffffffffffffffffffffffffffff168373ffffffffffffffffffffffffffffffffffffffff16036116e35760006040517fe602df050000000000000000000000000000000000000000000000000000000081526004016116da919061306c565b60405180910390fd5b600073ffffffffffffffffffffffffffffffffffffffff168273ffffffffffffffffffffffffffffffffffffffff16036117555760006040517f94280d6200000000000000000000000000000000000000000000000000000000815260040161174c919061306c565b60405180910390fd5b80600360008573ffffffffffffffffffffffffffffffffffffffff1673ffffffffffffffffffffffffffffffffffffffff16815260200190815260200160002060008473ffffffffffffffffffffffffffffffffffffffff1673ffffffffffffffffffffffffffffffffffffffff16815260200190815260200160002081905550505050565b60006117e8826002611ff3565b9050919050565b60007f000000000000000000000000000000000000000000000000000000000000000073ffffffffffffffffffffffffffffffffffffffff163073ffffffffffffffffffffffffffffffffffffffff1614801561186b57507f000000000000000000000000000000000000000000000000000000000000000046145b15611898577f000000000000000000000000000000000000000000000000000000000000000090506118a3565b6118a061208d565b90505b90565b60006040517f190100000000000000000000000000000000000000000000000000000000000081528360028201528260228201526042812091505092915050565b6000806000604184510361192c5760008060006020870151925060408701519150606087015160001a905061191e88828585612123565b95509550955050505061193c565b60006002855160001b9250925092505b9250925092565b6000600381111561195757611956613087565b5b82600381111561196a57611969613087565b5b0315611aa3576001600381111561198457611983613087565b5b82600381111561199757611996613087565b5b036119ce576040517ff645eedf00000000000000000000000000000000000000000000000000000000815260040160405180910390fd5b600260038111156119e2576119e1613087565b5b8260038111156119f5576119f4613087565b5b03611a3a578060001c6040517ffce698f7000000000000000000000000000000000000000000000000000000008152600401611a3191906125e3565b60405180910390fd5b600380811115611a4d57611a4c613087565b5b826003811115611a6057611a5f613087565b5b03611aa257806040517fd78bce0c000000000000000000000000000000000000000000000000000000008152600401611a9991906126a1565b60405180910390fd5b5b5050565b6000808214159050919050565b6060608073ffffffffffffffffffffffffffffffffffffffff1663a1848ff385611add86611dd7565b85604051602001611aee91906130d7565b6040516020818303038152906040526040518463ffffffff1660e01b8152600401611b1b939291906130f2565b600060405180830381865afa158015611b38573d6000803e3d6000fd5b505050506040513d6000823e3d601f19601f82011682018060405250810190611b6191906131d8565b90509392505050565b60006060608073ffffffffffffffffffffffffffffffffffffffff166319e1c5c4611b9486611dd7565b856040518363ffffffff1660e01b8152600401611bb2929190613221565b600060405180830381865afa158015611bcf573d6000803e3d6000fd5b505050506040513d6000823e3d601f19601f82011682018060405250810190611bf891906132c1565b9050611c0381612217565b91505092915050565b6000611c1783611aa7565b611c2857611c256000611172565b92505b611c3182611aa7565b611c4257611c3f6000611172565b91505b600083905060008390506000611c7760028484608073ffffffffffffffffffffffffffffffffffffffff1663650de1cf612225565b905080935050505092915050565b6000808214159050919050565b6000611c9f82600d611b6a565b9050919050565b60006060608073ffffffffffffffffffffffffffffffffffffffff1663c2d9695287611cd188611dd7565b611cda88611dd7565b611ce388611dd7565b6040518563ffffffff1660e01b8152600401611d02949392919061330a565b600060405180830381865afa158015611d1f573d6000803e3d6000fd5b505050506040513d6000823e3d601f19601f82011682018060405250810190611d4891906132c1565b9050611d5381612217565b915050949350505050565b6000611d6983611aa7565b611d7a57611d776000611172565b92505b611d8382611aa7565b611d9457611d916000611172565b91505b600083905060008390506000611dc960028484608073ffffffffffffffffffffffffffffffffffffffff1663cc2cbeff612225565b905080935050505092915050565b6060602067ffffffffffffffff811115611df457611df3612812565b5b6040519080825280601f01601f191660200182016040528015611e265781602001600182028036833780820191505090505b509050816020820152919050565b6000819050919050565b606060ff60001b8314611e5b57611e54836122b9565b9050611ee8565b818054611e6790612ecd565b80601f0160208091040260200160405190810160405280929190818152602001828054611e9390612ecd565b8015611ee05780601f10611eb557610100808354040283529160200191611ee0565b820191906000526020600020905b815481529060010190602001808311611ec357829003601f168201915b505050505090505b92915050565b6000611ef983611aa7565b611f0a57611f076000611172565b92505b611f1382611aa7565b611f2457611f216000611172565b91505b600083905060008390506000611f5960028484608073ffffffffffffffffffffffffffffffffffffffff16635211c679612225565b905080935050505092915050565b6000611f73838361232d565b905092915050565b6000611f8683611aa7565b611f9757611f946000611172565b92505b611fa082611aa7565b611fb157611fae6000611172565b91505b600083905060008390506000611fe560028484608073ffffffffffffffffffffffffffffffffffffffff16622df619612225565b905080935050505092915050565b60006060608073ffffffffffffffffffffffffffffffffffffffff16635fa55ca784866040518363ffffffff1660e01b8152600401612033929190612ffa565b600060405180830381865afa158015612050573d6000803e3d6000fd5b505050506040513d6000823e3d601f19601f8201168201806040525081019061207991906132c1565b905061208481612217565b91505092915050565b60007f8b73c3c69bb8fe3d512ecc4cf759cc79239f7b179b0ffacaa9a75d522b39400f7f00000000000000000000000000000000000000000000000000000000000000007f00000000000000000000000000000000000000000000000000000000000000004630604051602001612108959493929190613364565b60405160208183030381529060405280519060200120905090565b60008060007f7fffffffffffffffffffffffffffffff5d576e7357a4501ddfe92f46681b20a08460001c111561216357600060038592509250925061220d565b60006001888888886040516000815260200160405260405161218894939291906133b7565b6020604051602081039080840390855afa1580156121aa573d6000803e3d6000fd5b505050602060405103519050600073ffffffffffffffffffffffffffffffffffffffff168173ffffffffffffffffffffffffffffffffffffffff16036121fe57600060016000801b9350935093505061220d565b8060008060001b935093509350505b9450945094915050565b600060208201519050919050565b6000606083838861223589611dd7565b61223e89611dd7565b6040518463ffffffff1660e01b815260040161225c939291906130f2565b600060405180830381865afa158015612279573d6000803e3d6000fd5b505050506040513d6000823e3d601f19601f820116820180604052508101906122a291906132c1565b90506122ad816123a6565b91505095945050505050565b606060006122c6836123b4565b90506000602067ffffffffffffffff8111156122e5576122e4612812565b5b6040519080825280601f01601f1916602001820160405280156123175781602001600182028036833780820191505090505b5090508181528360208201528092505050919050565b600061233883611aa7565b612349576123466000611172565b92505b61235282611aa7565b612363576123606000611172565b91505b60008390506000839050600061239860028484608073ffffffffffffffffffffffffffffffffffffffff1663eb274b77612225565b905080935050505092915050565b600060208201519050919050565b60008060ff8360001c169050601f8111156123fb576040517fb3512b0c00000000000000000000000000000000000000000000000000000000815260040160405180910390fd5b80915050919050565b600081519050919050565b600082825260208201905092915050565b60005b8381101561243e578082015181840152602081019050612423565b60008484015250505050565b6000601f19601f8301169050919050565b600061246682612404565b612470818561240f565b9350612480818560208601612420565b6124898161244a565b840191505092915050565b600060208201905081810360008301526124ae818461245b565b905092915050565b6000604051905090565b600080fd5b600080fd5b600073ffffffffffffffffffffffffffffffffffffffff82169050919050565b60006124f5826124ca565b9050919050565b612505816124ea565b811461251057600080fd5b50565b600081359050612522816124fc565b92915050565b6000819050919050565b61253b81612528565b811461254657600080fd5b50565b60008135905061255881612532565b92915050565b60008060408385031215612575576125746124c0565b5b600061258385828601612513565b925050602061259485828601612549565b9150509250929050565b60008115159050919050565b6125b38161259e565b82525050565b60006020820190506125ce60008301846125aa565b92915050565b6125dd81612528565b82525050565b60006020820190506125f860008301846125d4565b92915050565b600080600060608486031215612617576126166124c0565b5b600061262586828701612513565b935050602061263686828701612513565b925050604061264786828701612549565b9150509250925092565b600060ff82169050919050565b61266781612651565b82525050565b6000602082019050612682600083018461265e565b92915050565b6000819050919050565b61269b81612688565b82525050565b60006020820190506126b66000830184612692565b92915050565b600080fd5b6000602082840312156126d7576126d66126bc565b5b81905092915050565b600080604083850312156126f7576126f66124c0565b5b600061270585828601612513565b925050602083013567ffffffffffffffff811115612726576127256124c5565b5b612732858286016126c1565b9150509250929050565b6000819050919050565b600061276161275c61275784612528565b61273c565b612528565b9050919050565b61277181612746565b82525050565b600060208201905061278c6000830184612768565b92915050565b6000604082840312156127a8576127a76126bc565b5b81905092915050565b600080604083850312156127c8576127c76124c0565b5b60006127d685828601612513565b925050602083013567ffffffffffffffff8111156127f7576127f66124c5565b5b61280385828601612792565b9150509250929050565b600080fd5b7f4e487b7100000000000000000000000000000000000000000000000000000000600052604160045260246000fd5b61284a8261244a565b810181811067ffffffffffffffff8211171561286957612868612812565b5b80604052505050565b600061287c6124b6565b90506128888282612841565b919050565b600080fd5b61289b81612688565b81146128a657600080fd5b50565b6000813590506128b881612892565b92915050565b600080fd5b600080fd5b600067ffffffffffffffff8211156128e3576128e2612812565b5b6128ec8261244a565b9050602081019050919050565b82818337600083830152505050565b600061291b612916846128c8565b612872565b905082815260208101848484011115612937576129366128c3565b5b6129428482856128f9565b509392505050565b600082601f83011261295f5761295e6128be565b5b813561296f848260208601612908565b91505092915050565b60006040828403121561298e5761298d61280d565b5b6129986040612872565b905060006129a8848285016128a9565b600083015250602082013567ffffffffffffffff8111156129cc576129cb61288d565b5b6129d88482850161294a565b60208301525092915050565b600080604083850312156129fb576129fa6124c0565b5b6000612a0985828601612513565b925050602083013567ffffffffffffffff811115612a2a57612a296124c5565b5b612a3685828601612978565b9150509250929050565b600063ffffffff82169050919050565b612a5981612a40565b8114612a6457600080fd5b50565b600081359050612a7681612a50565b92915050565b600060208284031215612a9257612a916124c0565b5b6000612aa084828501612a67565b91505092915050565b600060208284031215612abf57612abe6124c0565b5b6000612acd84828501612513565b91505092915050565b60007fff0000000000000000000000000000000000000000000000000000000000000082169050919050565b612b0b81612ad6565b82525050565b612b1a816124ea565b82525050565b600081519050919050565b600082825260208201905092915050565b6000819050602082019050919050565b612b5581612528565b82525050565b6000612b678383612b4c565b60208301905092915050565b6000602082019050919050565b6000612b8b82612b20565b612b958185612b2b565b9350612ba083612b3c565b8060005b83811015612bd1578151612bb88882612b5b565b9750612bc383612b73565b925050600181019050612ba4565b5085935050505092915050565b600060e082019050612bf3600083018a612b02565b8181036020830152612c05818961245b565b90508181036040830152612c19818861245b565b9050612c2860608301876125d4565b612c356080830186612b11565b612c4260a0830185612692565b81810360c0830152612c548184612b80565b905098975050505050505050565b600080600060608486031215612c7b57612c7a6124c0565b5b6000612c8986828701612513565b9350506020612c9a86828701612513565b925050604084013567ffffffffffffffff811115612cbb57612cba6124c5565b5b612cc7868287016126c1565b9150509250925092565b612cda81612528565b8114612ce557600080fd5b50565b600081359050612cf781612cd1565b92915050565b600080600060608486031215612d1657612d156124c0565b5b6000612d2486828701612513565b9350506020612d3586828701612513565b9250506040612d4686828701612ce8565b9150509250925092565b60008060408385031215612d6757612d666124c0565b5b6000612d7585828601612513565b9250506020612d8685828601612ce8565b9150509250929050565b612d9981612651565b8114612da457600080fd5b50565b600081359050612db681612d90565b92915050565b600080600080600080600060e0888a031215612ddb57612dda6124c0565b5b6000612de98a828b01612513565b9750506020612dfa8a828b01612513565b9650506040612e0b8a828b01612549565b9550506060612e1c8a828b01612549565b9450506080612e2d8a828b01612da7565b93505060a0612e3e8a828b016128a9565b92505060c0612e4f8a828b016128a9565b91505092959891949750929550565b60008060408385031215612e7557612e746124c0565b5b6000612e8385828601612513565b9250506020612e9485828601612513565b9150509250929050565b7f4e487b7100000000000000000000000000000000000000000000000000000000600052602260045260246000fd5b60006002820490506001821680612ee557607f821691505b602082108103612ef857612ef7612e9e565b5b50919050565b600060208284031215612f1457612f1361280d565b5b612f1e6020612872565b9050600082013567ffffffffffffffff811115612f3e57612f3d61288d565b5b612f4a8482850161294a565b60008301525092915050565b6000612f623683612efe565b9050919050565b6000612f753683612978565b9050919050565b6000604082019050612f916000830185612692565b612f9e6020830184612692565b9392505050565b600081519050919050565b600082825260208201905092915050565b6000612fcc82612fa5565b612fd68185612fb0565b9350612fe6818560208601612420565b612fef8161244a565b840191505092915050565b600060408201905061300f600083018561265e565b81810360208301526130218184612fc1565b90509392505050565b60008151905061303981612532565b92915050565b600060208284031215613055576130546124c0565b5b60006130638482850161302a565b91505092915050565b60006020820190506130816000830184612b11565b92915050565b7f4e487b7100000000000000000000000000000000000000000000000000000000600052602160045260246000fd5b6000819050919050565b6130d16130cc82612688565b6130b6565b82525050565b60006130e382846130c0565b60208201915081905092915050565b6000606082019050613107600083018661265e565b81810360208301526131198185612fc1565b9050818103604083015261312d8184612fc1565b9050949350505050565b600067ffffffffffffffff82111561315257613151612812565b5b61315b8261244a565b9050602081019050919050565b600061317b61317684613137565b612872565b905082815260208101848484011115613197576131966128c3565b5b6131a2848285612420565b509392505050565b600082601f8301126131bf576131be6128be565b5b81516131cf848260208601613168565b91505092915050565b6000602082840312156131ee576131ed6124c0565b5b600082015167ffffffffffffffff81111561320c5761320b6124c5565b5b613218848285016131aa565b91505092915050565b6000604082019050818103600083015261323b8185612fc1565b905061324a602083018461265e565b9392505050565b600061326461325f846128c8565b612872565b9050828152602081018484840111156132805761327f6128c3565b5b61328b848285612420565b509392505050565b600082601f8301126132a8576132a76128be565b5b81516132b8848260208601613251565b91505092915050565b6000602082840312156132d7576132d66124c0565b5b600082015167ffffffffffffffff8111156132f5576132f46124c5565b5b61330184828501613293565b91505092915050565b600060808201905061331f600083018761265e565b81810360208301526133318186612fc1565b905081810360408301526133458185612fc1565b905081810360608301526133598184612fc1565b905095945050505050565b600060a0820190506133796000830188612692565b6133866020830187612692565b6133936040830186612692565b6133a060608301856125d4565b6133ad6080830184612b11565b9695505050505050565b60006080820190506133cc6000830187612692565b6133d9602083018661265e565b6133e66040830185612692565b6133f36060830184612692565b9594505050505056fea2646970667358221220f43418bc421ac601da920d9a2dbd898ce285419d3a4d06fac273d0a111cb562a64736f6c63430008180033",
  "devdoc": {
    "errors": {
      "AllowanceOverflow()": [
        {
          "details": "The allowance has overflowed."
        }
      ],
      "AllowanceUnderflow()": [
        {
          "details": "The allowance has underflowed."
        }
      ],
      "ECDSAInvalidSignature()": [
        {
          "details": "The signature derives the `address(0)`."
        }
      ],
      "ECDSAInvalidSignatureLength(uint256)": [
        {
          "details": "The signature has an invalid length."
        }
      ],
      "ECDSAInvalidSignatureS(bytes32)": [
        {
          "details": "The signature has an S value that is in the upper half order."
        }
      ],
      "InsufficientAllowance()": [
        {
          "details": "Insufficient allowance."
        }
      ],
      "InsufficientBalance()": [
        {
          "details": "Insufficient balance."
        }
      ],
      "InvalidPermit()": [
        {
          "details": "The permit is invalid."
        }
      ],
      "PermitExpired()": [
        {
          "details": "The permit has expired."
        }
      ],
      "TotalSupplyOverflow()": [
        {
          "details": "The total supply has overflowed."
        }
      ]
    },
    "events": {
      "Approval(address,address,uint256)": {
        "details": "Emitted when `amount` tokens is approved by `owner` to be used by `spender`."
      },
      "ApprovalEncrypted(address,address)": {
        "details": "Emitted when the allowance of a `spender` for an `owner` is set by a call to {approveEncrypted}. `value` is the new allowance."
      },
      "EIP712DomainChanged()": {
        "details": "MAY be emitted to signal that the domain could have changed."
      },
      "Transfer(address,address,uint256)": {
        "details": "Emitted when `amount` tokens is transferred from `from` to `to`."
      },
      "TransferEncrypted(address,address)": {
        "details": "Emitted when `value` tokens are moved from one account (`from`) to another (`to`). Note that `value` may be zero."
      }
    },
    "kind": "dev",
    "methods": {
      "DOMAIN_SEPARATOR()": {
        "details": "Returns the EIP-712 domain separator for the EIP-2612 permit."
      },
      "allowance(address,address)": {
        "details": "Returns the amount of tokens that `spender` can spend on behalf of `owner`."
      },
      "allowanceEncrypted(address,(bytes32,bytes))": {
        "details": "Returns the remaining number of tokens that `spender` will be allowed to spend on behalf of `owner` through {transferFrom}. This is zero by default. This value changes when {approve} or {transferFrom} are called."
      },
      "approve(address,uint256)": {
        "details": "Sets `amount` as the allowance of `spender` over the caller's tokens. Emits a {Approval} event."
      },
      "approveEncrypted(address,(bytes))": {
        "details": "Sets a `value` amount of tokens as the allowance of `spender` over the caller's tokens. Returns a boolean value indicating whether the operation succeeded. IMPORTANT: Beware that changing an allowance with this method brings the risk that someone may use both the old and the new allowance by unfortunate transaction ordering. One possible solution to mitigate this race condition is to first reduce the spender's allowance to 0 and set the desired value afterwards: https://github.com/ethereum/EIPs/issues/20#issuecomment-263524729 Emits an {ApprovalEncrypted} event."
      },
      "balanceOf(address)": {
        "details": "Returns the amount of tokens owned by `owner`."
      },
      "balanceOfEncrypted(address,(bytes32,bytes))": {
        "details": "Returns the value of tokens owned by `account`, sealed and encrypted for the caller."
      },
      "decimals()": {
        "details": "Returns the decimals places of the token."
      },
      "eip712Domain()": {
        "details": "See {IERC-5267}."
      },
      "name()": {
        "details": "Returns the name of the token."
      },
      "nonces(address)": {
        "details": "Returns the current nonce for `owner`. This value is used to compute the signature for EIP-2612 permit."
      },
      "permit(address,address,uint256,uint256,uint8,bytes32,bytes32)": {
        "details": "Sets `value` as the allowance of `spender` over the tokens of `owner`, authorized by a signed approval by `owner`. Emits a {Approval} event."
      },
      "symbol()": {
        "details": "Returns the symbol of the token."
      },
      "totalSupply()": {
        "details": "Returns the amount of tokens in existence."
      },
      "transfer(address,uint256)": {
        "details": "Transfer `amount` tokens from the caller to `to`. Requirements: - `from` must at least have `amount`. Emits a {Transfer} event."
      },
      "transferFrom(address,address,uint256)": {
        "details": "Transfers `amount` tokens from `from` to `to`. Note: Does not update the allowance if it is the maximum uint256 value. Requirements: - `from` must at least have `amount`. - The caller must have at least `amount` of allowance to transfer the tokens of `from`. Emits a {Transfer} event."
      },
      "transferFromEncrypted(address,address,(bytes))": {
        "details": "Moves a `value` amount of tokens from `from` to `to` using the allowance mechanism. `value` is then deducted from the caller's allowance. Returns a boolean value indicating whether the operation succeeded. Emits a {TransferEncrypted} event."
      }
    },
    "version": 1
  },
  "userdoc": {
    "errors": {
      "SignerNotMessageSender()": [
        {
          "notice": "Emitted when the signer is not the message sender"
        }
      ],
      "SignerNotOwner()": [
        {
          "notice": "Emitted when the signer is not the specified owner"
        }
      ]
    },
    "kind": "user",
    "methods": {},
    "version": 1
  },
  "storageLayout": {
    "storage": [
      {
        "astId": 16568,
        "contract": "contracts/FakeFGZ.sol:FakeFGZ",
        "label": "_nameFallback",
        "offset": 0,
        "slot": "0",
        "type": "t_string_storage"
      },
      {
        "astId": 16570,
        "contract": "contracts/FakeFGZ.sol:FakeFGZ",
        "label": "_versionFallback",
        "offset": 0,
        "slot": "1",
        "type": "t_string_storage"
      },
      {
        "astId": 18151,
        "contract": "contracts/FakeFGZ.sol:FakeFGZ",
        "label": "_encBalances",
        "offset": 0,
        "slot": "2",
        "type": "t_mapping(t_address,t_userDefinedValueType(euint32)12)"
      },
      {
        "astId": 18158,
        "contract": "contracts/FakeFGZ.sol:FakeFGZ",
        "label": "_allowed",
        "offset": 0,
        "slot": "3",
        "type": "t_mapping(t_address,t_mapping(t_address,t_userDefinedValueType(euint32)12))"
      },
      {
        "astId": 18165,
        "contract": "contracts/FakeFGZ.sol:FakeFGZ",
        "label": "totalEncryptedSupply",
        "offset": 0,
        "slot": "4",
        "type": "t_userDefinedValueType(euint32)12"
      },
      {
        "astId": 18167,
        "contract": "contracts/FakeFGZ.sol:FakeFGZ",
        "label": "_name",
        "offset": 0,
        "slot": "5",
        "type": "t_string_storage"
      },
      {
        "astId": 18169,
        "contract": "contracts/FakeFGZ.sol:FakeFGZ",
        "label": "_symbol",
        "offset": 0,
        "slot": "6",
        "type": "t_string_storage"
      }
    ],
    "types": {
      "t_address": {
        "encoding": "inplace",
        "label": "address",
        "numberOfBytes": "20"
      },
      "t_mapping(t_address,t_mapping(t_address,t_userDefinedValueType(euint32)12))": {
        "encoding": "mapping",
        "key": "t_address",
        "label": "mapping(address => mapping(address => euint32))",
        "numberOfBytes": "32",
        "value": "t_mapping(t_address,t_userDefinedValueType(euint32)12)"
      },
      "t_mapping(t_address,t_userDefinedValueType(euint32)12)": {
        "encoding": "mapping",
        "key": "t_address",
        "label": "mapping(address => euint32)",
        "numberOfBytes": "32",
        "value": "t_userDefinedValueType(euint32)12"
      },
      "t_string_storage": {
        "encoding": "bytes",
        "label": "string",
        "numberOfBytes": "32"
      },
      "t_userDefinedValueType(euint32)12": {
        "encoding": "inplace",
        "label": "euint32",
        "numberOfBytes": "32"
      }
    }
  }
}