{
  "address": "0x0E3EaCFB2a7b171913840Cb66DE455FCD982FD77",
  "abi": [
    {
      "inputs": [
        {
          "components": [
            {
              "internalType": "bytes",
              "name": "data",
              "type": "bytes"
            }
          ],
          "internalType": "struct inEuint32",
          "name": "_initialSupply",
          "type": "tuple"
        }
      ],
      "stateMutability": "nonpayable",
      "type": "constructor"
    },
    {
      "inputs": [],
      "name": "AllowanceOverflow",
      "type": "error"
    },
    {
      "inputs": [],
      "name": "AllowanceUnderflow",
      "type": "error"
    },
    {
      "inputs": [],
      "name": "ECDSAInvalidSignature",
      "type": "error"
    },
    {
      "inputs": [
        {
          "internalType": "uint256",
          "name": "length",
          "type": "uint256"
        }
      ],
      "name": "ECDSAInvalidSignatureLength",
      "type": "error"
    },
    {
      "inputs": [
        {
          "internalType": "bytes32",
          "name": "s",
          "type": "bytes32"
        }
      ],
      "name": "ECDSAInvalidSignatureS",
      "type": "error"
    },
    {
      "inputs": [
        {
          "internalType": "address",
          "name": "",
          "type": "address"
        }
      ],
      "name": "ERC20InvalidApprover",
      "type": "error"
    },
    {
      "inputs": [
        {
          "internalType": "address",
          "name": "",
          "type": "address"
        }
      ],
      "name": "ERC20InvalidSpender",
      "type": "error"
    },
    {
      "inputs": [],
      "name": "ErrorInsufficientFunds",
      "type": "error"
    },
    {
      "inputs": [],
      "name": "InsufficientAllowance",
      "type": "error"
    },
    {
      "inputs": [],
      "name": "InsufficientBalance",
      "type": "error"
    },
    {
      "inputs": [],
      "name": "InvalidPermit",
      "type": "error"
    },
    {
      "inputs": [],
      "name": "InvalidShortString",
      "type": "error"
    },
    {
      "inputs": [],
      "name": "PermitExpired",
      "type": "error"
    },
    {
      "inputs": [],
      "name": "SignerNotMessageSender",
      "type": "error"
    },
    {
      "inputs": [],
      "name": "SignerNotOwner",
      "type": "error"
    },
    {
      "inputs": [
        {
          "internalType": "string",
          "name": "str",
          "type": "string"
        }
      ],
      "name": "StringTooLong",
      "type": "error"
    },
    {
      "inputs": [],
      "name": "TotalSupplyOverflow",
      "type": "error"
    },
    {
      "anonymous": false,
      "inputs": [
        {
          "indexed": true,
          "internalType": "address",
          "name": "owner",
          "type": "address"
        },
        {
          "indexed": true,
          "internalType": "address",
          "name": "spender",
          "type": "address"
        },
        {
          "indexed": false,
          "internalType": "uint256",
          "name": "amount",
          "type": "uint256"
        }
      ],
      "name": "Approval",
      "type": "event"
    },
    {
      "anonymous": false,
      "inputs": [
        {
          "indexed": true,
          "internalType": "address",
          "name": "owner",
          "type": "address"
        },
        {
          "indexed": true,
          "internalType": "address",
          "name": "spender",
          "type": "address"
        }
      ],
      "name": "ApprovalEncrypted",
      "type": "event"
    },
    {
      "anonymous": false,
      "inputs": [],
      "name": "EIP712DomainChanged",
      "type": "event"
    },
    {
      "anonymous": false,
      "inputs": [
        {
          "indexed": true,
          "internalType": "address",
          "name": "from",
          "type": "address"
        },
        {
          "indexed": true,
          "internalType": "address",
          "name": "to",
          "type": "address"
        },
        {
          "indexed": false,
          "internalType": "uint256",
          "name": "amount",
          "type": "uint256"
        }
      ],
      "name": "Transfer",
      "type": "event"
    },
    {
      "anonymous": false,
      "inputs": [
        {
          "indexed": true,
          "internalType": "address",
          "name": "from",
          "type": "address"
        },
        {
          "indexed": true,
          "internalType": "address",
          "name": "to",
          "type": "address"
        }
      ],
      "name": "TransferEncrypted",
      "type": "event"
    },
    {
      "inputs": [],
      "name": "DOMAIN_SEPARATOR",
      "outputs": [
        {
          "internalType": "bytes32",
          "name": "result",
          "type": "bytes32"
        }
      ],
      "stateMutability": "view",
      "type": "function"
    },
    {
      "inputs": [
        {
          "internalType": "address",
          "name": "owner",
          "type": "address"
        },
        {
          "internalType": "address",
          "name": "spender",
          "type": "address"
        }
      ],
      "name": "allowance",
      "outputs": [
        {
          "internalType": "uint256",
          "name": "result",
          "type": "uint256"
        }
      ],
      "stateMutability": "view",
      "type": "function"
    },
    {
      "inputs": [
        {
          "internalType": "address",
          "name": "spender",
          "type": "address"
        },
        {
          "components": [
            {
              "internalType": "bytes32",
              "name": "publicKey",
              "type": "bytes32"
            },
            {
              "internalType": "bytes",
              "name": "signature",
              "type": "bytes"
            }
          ],
          "internalType": "struct Permission",
          "name": "permission",
          "type": "tuple"
        }
      ],
      "name": "allowanceEncrypted",
      "outputs": [
        {
          "internalType": "string",
          "name": "",
          "type": "string"
        }
      ],
      "stateMutability": "view",
      "type": "function"
    },
    {
      "inputs": [
        {
          "internalType": "address",
          "name": "spender",
          "type": "address"
        },
        {
          "internalType": "uint256",
          "name": "amount",
          "type": "uint256"
        }
      ],
      "name": "approve",
      "outputs": [
        {
          "internalType": "bool",
          "name": "",
          "type": "bool"
        }
      ],
      "stateMutability": "nonpayable",
      "type": "function"
    },
    {
      "inputs": [
        {
          "internalType": "address",
          "name": "spender",
          "type": "address"
        },
        {
          "components": [
            {
              "internalType": "bytes",
              "name": "data",
              "type": "bytes"
            }
          ],
          "internalType": "struct inEuint32",
          "name": "value",
          "type": "tuple"
        }
      ],
      "name": "approveEncrypted",
      "outputs": [
        {
          "internalType": "bool",
          "name": "",
          "type": "bool"
        }
      ],
      "stateMutability": "nonpayable",
      "type": "function"
    },
    {
      "inputs": [
        {
          "internalType": "address",
          "name": "owner",
          "type": "address"
        }
      ],
      "name": "balanceOf",
      "outputs": [
        {
          "internalType": "uint256",
          "name": "result",
          "type": "uint256"
        }
      ],
      "stateMutability": "view",
      "type": "function"
    },
    {
      "inputs": [
        {
          "internalType": "address",
          "name": "account",
          "type": "address"
        },
        {
          "components": [
            {
              "internalType": "bytes32",
              "name": "publicKey",
              "type": "bytes32"
            },
            {
              "internalType": "bytes",
              "name": "signature",
              "type": "bytes"
            }
          ],
          "internalType": "struct Permission",
          "name": "auth",
          "type": "tuple"
        }
      ],
      "name": "balanceOfEncrypted",
      "outputs": [
        {
          "internalType": "string",
          "name": "",
          "type": "string"
        }
      ],
      "stateMutability": "view",
      "type": "function"
    },
    {
      "inputs": [],
      "name": "decimals",
      "outputs": [
        {
          "internalType": "uint8",
          "name": "",
          "type": "uint8"
        }
      ],
      "stateMutability": "pure",
      "type": "function"
    },
    {
      "inputs": [],
      "name": "eip712Domain",
      "outputs": [
        {
          "internalType": "bytes1",
          "name": "fields",
          "type": "bytes1"
        },
        {
          "internalType": "string",
          "name": "name",
          "type": "string"
        },
        {
          "internalType": "string",
          "name": "version",
          "type": "string"
        },
        {
          "internalType": "uint256",
          "name": "chainId",
          "type": "uint256"
        },
        {
          "internalType": "address",
          "name": "verifyingContract",
          "type": "address"
        },
        {
          "internalType": "bytes32",
          "name": "salt",
          "type": "bytes32"
        },
        {
          "internalType": "uint256[]",
          "name": "extensions",
          "type": "uint256[]"
        }
      ],
      "stateMutability": "view",
      "type": "function"
    },
    {
      "inputs": [],
      "name": "name",
      "outputs": [
        {
          "internalType": "string",
          "name": "",
          "type": "string"
        }
      ],
      "stateMutability": "view",
      "type": "function"
    },
    {
      "inputs": [
        {
          "internalType": "address",
          "name": "owner",
          "type": "address"
        }
      ],
      "name": "nonces",
      "outputs": [
        {
          "internalType": "uint256",
          "name": "result",
          "type": "uint256"
        }
      ],
      "stateMutability": "view",
      "type": "function"
    },
    {
      "inputs": [
        {
          "internalType": "address",
          "name": "owner",
          "type": "address"
        },
        {
          "internalType": "address",
          "name": "spender",
          "type": "address"
        },
        {
          "internalType": "uint256",
          "name": "value",
          "type": "uint256"
        },
        {
          "internalType": "uint256",
          "name": "deadline",
          "type": "uint256"
        },
        {
          "internalType": "uint8",
          "name": "v",
          "type": "uint8"
        },
        {
          "internalType": "bytes32",
          "name": "r",
          "type": "bytes32"
        },
        {
          "internalType": "bytes32",
          "name": "s",
          "type": "bytes32"
        }
      ],
      "name": "permit",
      "outputs": [],
      "stateMutability": "nonpayable",
      "type": "function"
    },
    {
      "inputs": [],
      "name": "symbol",
      "outputs": [
        {
          "internalType": "string",
          "name": "",
          "type": "string"
        }
      ],
      "stateMutability": "view",
      "type": "function"
    },
    {
      "inputs": [],
      "name": "totalSupply",
      "outputs": [
        {
          "internalType": "uint256",
          "name": "result",
          "type": "uint256"
        }
      ],
      "stateMutability": "view",
      "type": "function"
    },
    {
      "inputs": [
        {
          "internalType": "address",
          "name": "to",
          "type": "address"
        },
        {
          "internalType": "uint256",
          "name": "amount",
          "type": "uint256"
        }
      ],
      "name": "transfer",
      "outputs": [
        {
          "internalType": "bool",
          "name": "",
          "type": "bool"
        }
      ],
      "stateMutability": "nonpayable",
      "type": "function"
    },
    {
      "inputs": [
        {
          "internalType": "address",
          "name": "to",
          "type": "address"
        },
        {
          "components": [
            {
              "internalType": "bytes",
              "name": "data",
              "type": "bytes"
            }
          ],
          "internalType": "struct inEuint32",
          "name": "encryptedAmount",
          "type": "tuple"
        }
      ],
      "name": "transferEncrypted",
      "outputs": [
        {
          "internalType": "euint32",
          "name": "",
          "type": "uint256"
        }
      ],
      "stateMutability": "nonpayable",
      "type": "function"
    },
    {
      "inputs": [
        {
          "internalType": "address",
          "name": "to",
          "type": "address"
        },
        {
          "internalType": "euint32",
          "name": "amount",
          "type": "uint256"
        }
      ],
      "name": "transferEncrypted",
      "outputs": [
        {
          "internalType": "euint32",
          "name": "",
          "type": "uint256"
        }
      ],
      "stateMutability": "nonpayable",
      "type": "function"
    },
    {
      "inputs": [
        {
          "internalType": "address",
          "name": "from",
          "type": "address"
        },
        {
          "internalType": "address",
          "name": "to",
          "type": "address"
        },
        {
          "internalType": "uint256",
          "name": "amount",
          "type": "uint256"
        }
      ],
      "name": "transferFrom",
      "outputs": [
        {
          "internalType": "bool",
          "name": "",
          "type": "bool"
        }
      ],
      "stateMutability": "nonpayable",
      "type": "function"
    },
    {
      "inputs": [
        {
          "internalType": "address",
          "name": "from",
          "type": "address"
        },
        {
          "internalType": "address",
          "name": "to",
          "type": "address"
        },
        {
          "components": [
            {
              "internalType": "bytes",
              "name": "data",
              "type": "bytes"
            }
          ],
          "internalType": "struct inEuint32",
          "name": "value",
          "type": "tuple"
        }
      ],
      "name": "transferFromEncrypted",
      "outputs": [
        {
          "internalType": "euint32",
          "name": "",
          "type": "uint256"
        }
      ],
      "stateMutability": "nonpayable",
      "type": "function"
    },
    {
      "inputs": [
        {
          "internalType": "address",
          "name": "from",
          "type": "address"
        },
        {
          "internalType": "address",
          "name": "to",
          "type": "address"
        },
        {
          "internalType": "euint32",
          "name": "value",
          "type": "uint256"
        }
      ],
      "name": "transferFromEncrypted",
      "outputs": [
        {
          "internalType": "euint32",
          "name": "",
          "type": "uint256"
        }
      ],
      "stateMutability": "nonpayable",
      "type": "function"
    },
    {
      "inputs": [
        {
          "internalType": "uint32",
          "name": "amount",
          "type": "uint32"
        }
      ],
      "name": "unwrap",
      "outputs": [],
      "stateMutability": "nonpayable",
      "type": "function"
    },
    {
      "inputs": [
        {
          "internalType": "uint32",
          "name": "amount",
          "type": "uint32"
        }
      ],
      "name": "wrap",
      "outputs": [],
      "stateMutability": "nonpayable",
      "type": "function"
    }
  ],
  "transactionHash": "0xf2b604cbf1cdd97d1a09d4e693e15ff2f27a30ec3d87fdb9d0ae2126319ea13f",
  "args": [
    {
      "data": {
        "0": 16,
        "1": 8,
        "2": 0,
        "3": 0,
        "4": 0,
        "5": 0,
        "6": 0,
        "7": 0,
        "8": 214,
        "9": 121,
        "10": 65,
        "11": 1,
        "12": 166,
        "13": 65,
        "14": 87,
        "15": 81,
        "16": 206,
        "17": 166,
        "18": 8,
        "19": 64,
        "20": 227,
        "21": 240,
        "22": 57,
        "23": 150,
        "24": 126,
        "25": 245,
        "26": 218,
        "27": 59,
        "28": 229,
        "29": 112,
        "30": 200,
        "31": 109,
        "32": 214,
        "33": 73,
        "34": 167,
        "35": 0,
        "36": 61,
        "37": 111,
        "38": 140,
        "39": 235,
        "40": 124,
        "41": 30,
        "42": 251,
        "43": 152,
        "44": 149,
        "45": 191,
        "46": 143,
        "47": 3,
        "48": 160,
        "49": 98,
        "50": 8,
        "51": 170,
        "52": 227,
        "53": 138,
        "54": 114,
        "55": 180,
        "56": 57,
        "57": 41,
        "58": 195,
        "59": 219,
        "60": 234,
        "61": 242,
        "62": 207,
        "63": 215,
        "64": 51,
        "65": 17,
        "66": 191,
        "67": 238,
        "68": 5,
        "69": 121,
        "70": 97,
        "71": 66,
        "72": 206,
        "73": 20,
        "74": 231,
        "75": 193,
        "76": 244,
        "77": 200,
        "78": 13,
        "79": 95,
        "80": 133,
        "81": 151,
        "82": 131,
        "83": 13,
        "84": 166,
        "85": 67,
        "86": 98,
        "87": 173,
        "88": 74,
        "89": 202,
        "90": 245,
        "91": 130,
        "92": 61,
        "93": 141,
        "94": 226,
        "95": 197,
        "96": 178,
        "97": 139,
        "98": 171,
        "99": 138,
        "100": 69,
        "101": 170,
        "102": 113,
        "103": 112,
        "104": 149,
        "105": 215,
        "106": 100,
        "107": 175,
        "108": 145,
        "109": 219,
        "110": 243,
        "111": 41,
        "112": 183,
        "113": 182,
        "114": 28,
        "115": 154,
        "116": 4,
        "117": 128,
        "118": 40,
        "119": 73,
        "120": 217,
        "121": 188,
        "122": 92,
        "123": 71,
        "124": 235,
        "125": 172,
        "126": 123,
        "127": 207,
        "128": 233,
        "129": 248,
        "130": 139,
        "131": 25,
        "132": 28,
        "133": 182,
        "134": 206,
        "135": 37,
        "136": 6,
        "137": 213,
        "138": 129,
        "139": 132,
        "140": 52,
        "141": 10,
        "142": 143,
        "143": 116,
        "144": 217,
        "145": 62,
        "146": 45,
        "147": 167,
        "148": 155,
        "149": 208,
        "150": 233,
        "151": 251,
        "152": 191,
        "153": 191,
        "154": 73,
        "155": 86,
        "156": 161,
        "157": 131,
        "158": 0,
        "159": 255,
        "160": 153,
        "161": 103,
        "162": 239,
        "163": 39,
        "164": 191,
        "165": 49,
        "166": 102,
        "167": 115,
        "168": 84,
        "169": 223,
        "170": 221,
        "171": 197,
        "172": 149,
        "173": 166,
        "174": 98,
        "175": 31,
        "176": 85,
        "177": 181,
        "178": 108,
        "179": 171,
        "180": 29,
        "181": 188,
        "182": 192,
        "183": 132,
        "184": 249,
        "185": 36,
        "186": 172,
        "187": 8,
        "188": 26,
        "189": 189,
        "190": 69,
        "191": 2,
        "192": 68,
        "193": 221,
        "194": 138,
        "195": 46,
        "196": 99,
        "197": 198,
        "198": 160,
        "199": 127,
        "200": 4,
        "201": 182,
        "202": 238,
        "203": 95,
        "204": 77,
        "205": 74,
        "206": 9,
        "207": 78,
        "208": 63,
        "209": 112,
        "210": 214,
        "211": 54,
        "212": 18,
        "213": 217,
        "214": 57,
        "215": 88,
        "216": 54,
        "217": 229,
        "218": 144,
        "219": 52,
        "220": 246,
        "221": 49,
        "222": 221,
        "223": 229,
        "224": 75,
        "225": 35,
        "226": 26,
        "227": 96,
        "228": 236,
        "229": 94,
        "230": 218,
        "231": 195,
        "232": 182,
        "233": 115,
        "234": 222,
        "235": 242,
        "236": 182,
        "237": 246,
        "238": 245,
        "239": 57,
        "240": 100,
        "241": 32,
        "242": 3,
        "243": 148,
        "244": 250,
        "245": 226,
        "246": 86,
        "247": 236,
        "248": 151,
        "249": 235,
        "250": 238,
        "251": 183,
        "252": 157,
        "253": 229,
        "254": 101,
        "255": 103,
        "256": 80,
        "257": 104,
        "258": 89,
        "259": 163,
        "260": 42,
        "261": 110,
        "262": 118,
        "263": 162,
        "264": 143,
        "265": 128,
        "266": 171,
        "267": 19,
        "268": 154,
        "269": 44,
        "270": 166,
        "271": 22,
        "272": 50,
        "273": 244,
        "274": 240,
        "275": 57,
        "276": 54,
        "277": 23,
        "278": 75,
        "279": 46,
        "280": 193,
        "281": 35,
        "282": 0,
        "283": 192,
        "284": 174,
        "285": 223,
        "286": 76,
        "287": 24,
        "288": 111,
        "289": 46,
        "290": 149,
        "291": 132,
        "292": 128,
        "293": 205,
        "294": 9,
        "295": 25,
        "296": 12,
        "297": 139,
        "298": 244,
        "299": 216,
        "300": 145,
        "301": 42,
        "302": 155,
        "303": 38,
        "304": 44,
        "305": 81,
        "306": 117,
        "307": 72,
        "308": 219,
        "309": 6,
        "310": 232,
        "311": 250,
        "312": 69,
        "313": 193,
        "314": 244,
        "315": 223,
        "316": 217,
        "317": 119,
        "318": 198,
        "319": 72,
        "320": 195,
        "321": 199,
        "322": 218,
        "323": 143,
        "324": 213,
        "325": 5,
        "326": 27,
        "327": 27,
        "328": 122,
        "329": 178,
        "330": 210,
        "331": 211,
        "332": 85,
        "333": 25,
        "334": 68,
        "335": 92,
        "336": 17,
        "337": 171,
        "338": 4,
        "339": 89,
        "340": 247,
        "341": 13,
        "342": 240,
        "343": 119,
        "344": 154,
        "345": 7,
        "346": 58,
        "347": 41,
        "348": 81,
        "349": 22,
        "350": 42,
        "351": 112,
        "352": 1,
        "353": 120,
        "354": 232,
        "355": 193,
        "356": 114,
        "357": 27,
        "358": 27,
        "359": 88,
        "360": 34,
        "361": 83,
        "362": 64,
        "363": 151,
        "364": 34,
        "365": 214,
        "366": 41,
        "367": 28,
        "368": 226,
        "369": 25,
        "370": 206,
        "371": 49,
        "372": 233,
        "373": 115,
        "374": 174,
        "375": 5,
        "376": 175,
        "377": 240,
        "378": 241,
        "379": 96,
        "380": 117,
        "381": 46,
        "382": 132,
        "383": 129,
        "384": 142,
        "385": 60,
        "386": 32,
        "387": 53,
        "388": 214,
        "389": 45,
        "390": 121,
        "391": 50,
        "392": 45,
        "393": 119,
        "394": 254,
        "395": 124,
        "396": 131,
        "397": 117,
        "398": 151,
        "399": 234,
        "400": 139,
        "401": 89,
        "402": 166,
        "403": 102,
        "404": 39,
        "405": 124,
        "406": 69,
        "407": 228,
        "408": 247,
        "409": 226,
        "410": 201,
        "411": 21,
        "412": 157,
        "413": 178,
        "414": 16,
        "415": 113,
        "416": 27,
        "417": 45,
        "418": 11,
        "419": 161,
        "420": 133,
        "421": 125,
        "422": 24,
        "423": 50,
        "424": 238,
        "425": 13,
        "426": 168,
        "427": 224,
        "428": 86,
        "429": 207,
        "430": 26,
        "431": 123,
        "432": 80,
        "433": 8,
        "434": 81,
        "435": 1,
        "436": 99,
        "437": 194,
        "438": 247,
        "439": 86,
        "440": 224,
        "441": 196,
        "442": 177,
        "443": 241,
        "444": 181,
        "445": 219,
        "446": 237,
        "447": 94,
        "448": 232,
        "449": 167,
        "450": 42,
        "451": 15,
        "452": 119,
        "453": 246,
        "454": 223,
        "455": 9,
        "456": 66,
        "457": 76,
        "458": 139,
        "459": 161,
        "460": 227,
        "461": 108,
        "462": 105,
        "463": 191,
        "464": 126,
        "465": 39,
        "466": 161,
        "467": 144,
        "468": 93,
        "469": 153,
        "470": 56,
        "471": 58,
        "472": 179,
        "473": 181,
        "474": 47,
        "475": 243,
        "476": 140,
        "477": 60,
        "478": 252,
        "479": 29,
        "480": 166,
        "481": 253,
        "482": 111,
        "483": 199,
        "484": 160,
        "485": 17,
        "486": 229,
        "487": 18,
        "488": 45,
        "489": 233,
        "490": 244,
        "491": 232,
        "492": 233,
        "493": 60,
        "494": 14,
        "495": 15,
        "496": 240,
        "497": 254,
        "498": 97,
        "499": 38,
        "500": 209,
        "501": 162,
        "502": 141,
        "503": 219,
        "504": 104,
        "505": 81,
        "506": 208,
        "507": 12,
        "508": 39,
        "509": 219,
        "510": 245,
        "511": 207,
        "512": 22,
        "513": 180,
        "514": 218,
        "515": 46,
        "516": 151,
        "517": 23,
        "518": 29,
        "519": 27,
        "520": 175,
        "521": 211,
        "522": 12,
        "523": 16,
        "524": 140,
        "525": 219,
        "526": 8,
        "527": 34,
        "528": 238,
        "529": 156,
        "530": 175,
        "531": 75,
        "532": 133,
        "533": 204,
        "534": 228,
        "535": 106,
        "536": 146,
        "537": 239,
        "538": 201,
        "539": 235,
        "540": 249,
        "541": 39,
        "542": 129,
        "543": 229,
        "544": 171,
        "545": 91,
        "546": 158,
        "547": 249,
        "548": 132,
        "549": 30,
        "550": 238,
        "551": 75,
        "552": 168,
        "553": 199,
        "554": 98,
        "555": 28,
        "556": 92,
        "557": 0,
        "558": 118,
        "559": 62,
        "560": 159,
        "561": 80,
        "562": 225,
        "563": 94,
        "564": 144,
        "565": 150,
        "566": 16,
        "567": 193,
        "568": 125,
        "569": 93,
        "570": 112,
        "571": 116,
        "572": 60,
        "573": 175,
        "574": 64,
        "575": 179,
        "576": 142,
        "577": 106,
        "578": 228,
        "579": 185,
        "580": 33,
        "581": 78,
        "582": 57,
        "583": 190,
        "584": 24,
        "585": 252,
        "586": 134,
        "587": 229,
        "588": 71,
        "589": 231,
        "590": 219,
        "591": 238,
        "592": 201,
        "593": 24,
        "594": 29,
        "595": 201,
        "596": 126,
        "597": 44,
        "598": 164,
        "599": 83,
        "600": 214,
        "601": 58,
        "602": 208,
        "603": 176,
        "604": 137,
        "605": 20,
        "606": 64,
        "607": 168,
        "608": 240,
        "609": 88,
        "610": 212,
        "611": 29,
        "612": 8,
        "613": 0,
        "614": 184,
        "615": 17,
        "616": 233,
        "617": 27,
        "618": 65,
        "619": 252,
        "620": 174,
        "621": 116,
        "622": 121,
        "623": 124,
        "624": 220,
        "625": 147,
        "626": 72,
        "627": 189,
        "628": 5,
        "629": 121,
        "630": 94,
        "631": 150,
        "632": 121,
        "633": 165,
        "634": 182,
        "635": 21,
        "636": 236,
        "637": 44,
        "638": 58,
        "639": 13,
        "640": 55,
        "641": 95,
        "642": 47,
        "643": 53,
        "644": 94,
        "645": 217,
        "646": 22,
        "647": 7,
        "648": 142,
        "649": 198,
        "650": 229,
        "651": 118,
        "652": 162,
        "653": 87,
        "654": 0,
        "655": 85,
        "656": 193,
        "657": 173,
        "658": 5,
        "659": 68,
        "660": 146,
        "661": 168,
        "662": 246,
        "663": 154,
        "664": 16,
        "665": 243,
        "666": 98,
        "667": 221,
        "668": 153,
        "669": 250,
        "670": 97,
        "671": 43,
        "672": 71,
        "673": 205,
        "674": 81,
        "675": 145,
        "676": 238,
        "677": 34,
        "678": 229,
        "679": 67,
        "680": 74,
        "681": 136,
        "682": 11,
        "683": 75,
        "684": 128,
        "685": 221,
        "686": 252,
        "687": 103,
        "688": 62,
        "689": 245,
        "690": 150,
        "691": 124,
        "692": 231,
        "693": 68,
        "694": 12,
        "695": 216,
        "696": 75,
        "697": 160,
        "698": 126,
        "699": 234,
        "700": 147,
        "701": 214,
        "702": 237,
        "703": 89,
        "704": 20,
        "705": 99,
        "706": 55,
        "707": 12,
        "708": 51,
        "709": 143,
        "710": 80,
        "711": 241,
        "712": 243,
        "713": 72,
        "714": 11,
        "715": 30,
        "716": 218,
        "717": 32,
        "718": 202,
        "719": 21,
        "720": 28,
        "721": 66,
        "722": 127,
        "723": 90,
        "724": 49,
        "725": 21,
        "726": 189,
        "727": 246,
        "728": 231,
        "729": 217,
        "730": 14,
        "731": 203,
        "732": 86,
        "733": 72,
        "734": 123,
        "735": 64,
        "736": 234,
        "737": 116,
        "738": 204,
        "739": 251,
        "740": 37,
        "741": 148,
        "742": 36,
        "743": 93,
        "744": 118,
        "745": 1,
        "746": 54,
        "747": 2,
        "748": 195,
        "749": 165,
        "750": 153,
        "751": 127,
        "752": 86,
        "753": 82,
        "754": 91,
        "755": 26,
        "756": 21,
        "757": 20,
        "758": 122,
        "759": 241,
        "760": 105,
        "761": 248,
        "762": 223,
        "763": 1,
        "764": 227,
        "765": 220,
        "766": 97,
        "767": 194,
        "768": 145,
        "769": 38,
        "770": 184,
        "771": 69,
        "772": 99,
        "773": 19,
        "774": 160,
        "775": 133,
        "776": 65,
        "777": 214,
        "778": 163,
        "779": 8,
        "780": 138,
        "781": 87,
        "782": 74,
        "783": 210,
        "784": 135,
        "785": 208,
        "786": 181,
        "787": 158,
        "788": 174,
        "789": 60,
        "790": 43,
        "791": 97,
        "792": 55,
        "793": 100,
        "794": 25,
        "795": 36,
        "796": 155,
        "797": 249,
        "798": 169,
        "799": 243,
        "800": 167,
        "801": 123,
        "802": 85,
        "803": 83,
        "804": 239,
        "805": 71,
        "806": 198,
        "807": 178,
        "808": 113,
        "809": 7,
        "810": 254,
        "811": 246,
        "812": 241,
        "813": 242,
        "814": 21,
        "815": 0,
        "816": 253,
        "817": 29,
        "818": 136,
        "819": 72,
        "820": 1,
        "821": 92,
        "822": 72,
        "823": 219,
        "824": 229,
        "825": 38,
        "826": 119,
        "827": 39,
        "828": 78,
        "829": 65,
        "830": 50,
        "831": 3,
        "832": 58,
        "833": 179,
        "834": 248,
        "835": 87,
        "836": 199,
        "837": 0,
        "838": 236,
        "839": 68,
        "840": 29,
        "841": 244,
        "842": 247,
        "843": 32,
        "844": 16,
        "845": 160,
        "846": 83,
        "847": 145,
        "848": 36,
        "849": 189,
        "850": 48,
        "851": 181,
        "852": 105,
        "853": 26,
        "854": 35,
        "855": 243,
        "856": 83,
        "857": 220,
        "858": 0,
        "859": 133,
        "860": 198,
        "861": 56,
        "862": 107,
        "863": 96,
        "864": 75,
        "865": 9,
        "866": 112,
        "867": 58,
        "868": 241,
        "869": 216,
        "870": 132,
        "871": 191,
        "872": 113,
        "873": 54,
        "874": 164,
        "875": 154,
        "876": 174,
        "877": 9,
        "878": 240,
        "879": 253,
        "880": 231,
        "881": 32,
        "882": 177,
        "883": 13,
        "884": 246,
        "885": 95,
        "886": 6,
        "887": 176,
        "888": 181,
        "889": 92,
        "890": 59,
        "891": 164,
        "892": 13,
        "893": 233,
        "894": 45,
        "895": 151,
        "896": 95,
        "897": 167,
        "898": 213,
        "899": 2,
        "900": 113,
        "901": 88,
        "902": 153,
        "903": 11,
        "904": 250,
        "905": 157,
        "906": 232,
        "907": 182,
        "908": 173,
        "909": 16,
        "910": 37,
        "911": 189,
        "912": 135,
        "913": 109,
        "914": 60,
        "915": 160,
        "916": 44,
        "917": 186,
        "918": 97,
        "919": 21,
        "920": 70,
        "921": 192,
        "922": 221,
        "923": 221,
        "924": 185,
        "925": 217,
        "926": 226,
        "927": 243,
        "928": 208,
        "929": 183,
        "930": 75,
        "931": 120,
        "932": 50,
        "933": 6,
        "934": 52,
        "935": 130,
        "936": 201,
        "937": 240,
        "938": 61,
        "939": 236,
        "940": 194,
        "941": 207,
        "942": 46,
        "943": 175,
        "944": 117,
        "945": 116,
        "946": 178,
        "947": 95,
        "948": 239,
        "949": 226,
        "950": 222,
        "951": 98,
        "952": 171,
        "953": 213,
        "954": 213,
        "955": 16,
        "956": 198,
        "957": 161,
        "958": 179,
        "959": 100,
        "960": 180,
        "961": 121,
        "962": 174,
        "963": 184,
        "964": 152,
        "965": 139,
        "966": 174,
        "967": 165,
        "968": 220,
        "969": 0,
        "970": 184,
        "971": 255,
        "972": 188,
        "973": 55,
        "974": 181,
        "975": 97,
        "976": 82,
        "977": 148,
        "978": 6,
        "979": 76,
        "980": 185,
        "981": 2,
        "982": 209,
        "983": 121,
        "984": 222,
        "985": 211,
        "986": 171,
        "987": 28,
        "988": 228,
        "989": 115,
        "990": 100,
        "991": 200,
        "992": 193,
        "993": 15,
        "994": 131,
        "995": 164,
        "996": 54,
        "997": 10,
        "998": 18,
        "999": 88,
        "1000": 243,
        "1001": 85,
        "1002": 233,
        "1003": 125,
        "1004": 194,
        "1005": 80,
        "1006": 56,
        "1007": 32,
        "1008": 213,
        "1009": 156,
        "1010": 82,
        "1011": 19,
        "1012": 168,
        "1013": 237,
        "1014": 182,
        "1015": 107,
        "1016": 199,
        "1017": 108,
        "1018": 14,
        "1019": 80,
        "1020": 38,
        "1021": 203,
        "1022": 89,
        "1023": 27,
        "1024": 168,
        "1025": 68,
        "1026": 77,
        "1027": 35,
        "1028": 143,
        "1029": 33,
        "1030": 131,
        "1031": 193,
        "1032": 13,
        "1033": 85,
        "1034": 198,
        "1035": 198,
        "1036": 59,
        "1037": 62,
        "1038": 95,
        "1039": 80,
        "1040": 130,
        "1041": 197,
        "1042": 13,
        "1043": 9,
        "1044": 222,
        "1045": 153,
        "1046": 208,
        "1047": 164,
        "1048": 77,
        "1049": 157,
        "1050": 248,
        "1051": 255,
        "1052": 75,
        "1053": 10,
        "1054": 80,
        "1055": 124,
        "1056": 22,
        "1057": 198,
        "1058": 234,
        "1059": 212,
        "1060": 102,
        "1061": 208,
        "1062": 109,
        "1063": 130,
        "1064": 187,
        "1065": 240,
        "1066": 173,
        "1067": 186,
        "1068": 249,
        "1069": 6,
        "1070": 69,
        "1071": 191,
        "1072": 246,
        "1073": 216,
        "1074": 235,
        "1075": 204,
        "1076": 231,
        "1077": 33,
        "1078": 176,
        "1079": 59,
        "1080": 214,
        "1081": 196,
        "1082": 165,
        "1083": 40,
        "1084": 41,
        "1085": 169,
        "1086": 65,
        "1087": 112,
        "1088": 45,
        "1089": 55,
        "1090": 155,
        "1091": 68,
        "1092": 91,
        "1093": 194,
        "1094": 255,
        "1095": 138,
        "1096": 24,
        "1097": 182,
        "1098": 220,
        "1099": 59,
        "1100": 135,
        "1101": 200,
        "1102": 123,
        "1103": 59,
        "1104": 12,
        "1105": 112,
        "1106": 129,
        "1107": 20,
        "1108": 22,
        "1109": 39,
        "1110": 132,
        "1111": 134,
        "1112": 213,
        "1113": 186,
        "1114": 16,
        "1115": 232,
        "1116": 199,
        "1117": 22,
        "1118": 130,
        "1119": 177,
        "1120": 77,
        "1121": 30,
        "1122": 171,
        "1123": 184,
        "1124": 152,
        "1125": 87,
        "1126": 229,
        "1127": 204,
        "1128": 51,
        "1129": 19,
        "1130": 80,
        "1131": 96,
        "1132": 169,
        "1133": 78,
        "1134": 172,
        "1135": 113,
        "1136": 18,
        "1137": 250,
        "1138": 160,
        "1139": 73,
        "1140": 85,
        "1141": 14,
        "1142": 225,
        "1143": 128,
        "1144": 157,
        "1145": 65,
        "1146": 3,
        "1147": 21,
        "1148": 49,
        "1149": 146,
        "1150": 13,
        "1151": 9,
        "1152": 209,
        "1153": 33,
        "1154": 15,
        "1155": 58,
        "1156": 192,
        "1157": 176,
        "1158": 11,
        "1159": 133,
        "1160": 133,
        "1161": 238,
        "1162": 139,
        "1163": 21,
        "1164": 76,
        "1165": 117,
        "1166": 210,
        "1167": 8,
        "1168": 215,
        "1169": 98,
        "1170": 33,
        "1171": 18,
        "1172": 228,
        "1173": 141,
        "1174": 232,
        "1175": 249,
        "1176": 26,
        "1177": 248,
        "1178": 239,
        "1179": 78,
        "1180": 69,
        "1181": 68,
        "1182": 131,
        "1183": 59,
        "1184": 7,
        "1185": 220,
        "1186": 120,
        "1187": 34,
        "1188": 155,
        "1189": 27,
        "1190": 243,
        "1191": 174,
        "1192": 133,
        "1193": 9,
        "1194": 172,
        "1195": 183,
        "1196": 40,
        "1197": 229,
        "1198": 21,
        "1199": 90,
        "1200": 130,
        "1201": 74,
        "1202": 254,
        "1203": 109,
        "1204": 118,
        "1205": 180,
        "1206": 215,
        "1207": 97,
        "1208": 227,
        "1209": 19,
        "1210": 151,
        "1211": 99,
        "1212": 223,
        "1213": 154,
        "1214": 46,
        "1215": 227,
        "1216": 148,
        "1217": 213,
        "1218": 64,
        "1219": 147,
        "1220": 26,
        "1221": 100,
        "1222": 74,
        "1223": 73,
        "1224": 83,
        "1225": 206,
        "1226": 156,
        "1227": 255,
        "1228": 237,
        "1229": 196,
        "1230": 254,
        "1231": 176,
        "1232": 253,
        "1233": 200,
        "1234": 219,
        "1235": 29,
        "1236": 19,
        "1237": 247,
        "1238": 79,
        "1239": 192,
        "1240": 126,
        "1241": 94,
        "1242": 174,
        "1243": 196,
        "1244": 159,
        "1245": 60,
        "1246": 28,
        "1247": 92,
        "1248": 83,
        "1249": 173,
        "1250": 228,
        "1251": 62,
        "1252": 196,
        "1253": 131,
        "1254": 229,
        "1255": 158,
        "1256": 129,
        "1257": 47,
        "1258": 94,
        "1259": 98,
        "1260": 225,
        "1261": 53,
        "1262": 102,
        "1263": 225,
        "1264": 28,
        "1265": 88,
        "1266": 179,
        "1267": 138,
        "1268": 27,
        "1269": 166,
        "1270": 155,
        "1271": 151,
        "1272": 232,
        "1273": 10,
        "1274": 12,
        "1275": 189,
        "1276": 77,
        "1277": 144,
        "1278": 150,
        "1279": 6,
        "1280": 255,
        "1281": 141,
        "1282": 183,
        "1283": 128,
        "1284": 45,
        "1285": 197,
        "1286": 164,
        "1287": 95,
        "1288": 132,
        "1289": 22,
        "1290": 86,
        "1291": 9,
        "1292": 75,
        "1293": 204,
        "1294": 138,
        "1295": 35,
        "1296": 121,
        "1297": 114,
        "1298": 73,
        "1299": 252,
        "1300": 41,
        "1301": 194,
        "1302": 42,
        "1303": 4,
        "1304": 175,
        "1305": 19,
        "1306": 163,
        "1307": 9,
        "1308": 247,
        "1309": 31,
        "1310": 93,
        "1311": 70,
        "1312": 224,
        "1313": 175,
        "1314": 195,
        "1315": 168,
        "1316": 223,
        "1317": 75,
        "1318": 9,
        "1319": 170,
        "1320": 64,
        "1321": 161,
        "1322": 13,
        "1323": 101,
        "1324": 42,
        "1325": 58,
        "1326": 144,
        "1327": 158,
        "1328": 181,
        "1329": 49,
        "1330": 197,
        "1331": 24,
        "1332": 142,
        "1333": 172,
        "1334": 155,
        "1335": 251,
        "1336": 215,
        "1337": 214,
        "1338": 92,
        "1339": 142,
        "1340": 194,
        "1341": 14,
        "1342": 36,
        "1343": 166,
        "1344": 72,
        "1345": 118,
        "1346": 157,
        "1347": 225,
        "1348": 174,
        "1349": 36,
        "1350": 104,
        "1351": 67,
        "1352": 1,
        "1353": 252,
        "1354": 119,
        "1355": 25,
        "1356": 54,
        "1357": 199,
        "1358": 100,
        "1359": 190,
        "1360": 3,
        "1361": 217,
        "1362": 69,
        "1363": 7,
        "1364": 162,
        "1365": 200,
        "1366": 67,
        "1367": 179,
        "1368": 232,
        "1369": 17,
        "1370": 46,
        "1371": 136,
        "1372": 167,
        "1373": 250,
        "1374": 136,
        "1375": 48,
        "1376": 1,
        "1377": 235,
        "1378": 218,
        "1379": 206,
        "1380": 155,
        "1381": 175,
        "1382": 27,
        "1383": 106,
        "1384": 23,
        "1385": 105,
        "1386": 53,
        "1387": 160,
        "1388": 60,
        "1389": 193,
        "1390": 79,
        "1391": 227,
        "1392": 231,
        "1393": 179,
        "1394": 29,
        "1395": 158,
        "1396": 214,
        "1397": 214,
        "1398": 236,
        "1399": 59,
        "1400": 158,
        "1401": 139,
        "1402": 250,
        "1403": 144,
        "1404": 228,
        "1405": 147,
        "1406": 125,
        "1407": 136,
        "1408": 100,
        "1409": 120,
        "1410": 225,
        "1411": 105,
        "1412": 216,
        "1413": 25,
        "1414": 168,
        "1415": 4,
        "1416": 81,
        "1417": 178,
        "1418": 248,
        "1419": 88,
        "1420": 226,
        "1421": 112,
        "1422": 108,
        "1423": 114,
        "1424": 55,
        "1425": 111,
        "1426": 69,
        "1427": 155,
        "1428": 127,
        "1429": 184,
        "1430": 25,
        "1431": 14,
        "1432": 239,
        "1433": 13,
        "1434": 176,
        "1435": 206,
        "1436": 5,
        "1437": 50,
        "1438": 138,
        "1439": 57,
        "1440": 227,
        "1441": 14,
        "1442": 50,
        "1443": 26,
        "1444": 135,
        "1445": 172,
        "1446": 207,
        "1447": 240,
        "1448": 228,
        "1449": 30,
        "1450": 240,
        "1451": 200,
        "1452": 35,
        "1453": 180,
        "1454": 92,
        "1455": 67,
        "1456": 241,
        "1457": 154,
        "1458": 73,
        "1459": 1,
        "1460": 17,
        "1461": 190,
        "1462": 190,
        "1463": 184,
        "1464": 51,
        "1465": 21,
        "1466": 29,
        "1467": 151,
        "1468": 237,
        "1469": 69,
        "1470": 173,
        "1471": 28,
        "1472": 63,
        "1473": 156,
        "1474": 215,
        "1475": 9,
        "1476": 120,
        "1477": 81,
        "1478": 43,
        "1479": 17,
        "1480": 17,
        "1481": 71,
        "1482": 18,
        "1483": 236,
        "1484": 12,
        "1485": 60,
        "1486": 211,
        "1487": 152,
        "1488": 97,
        "1489": 88,
        "1490": 119,
        "1491": 170,
        "1492": 68,
        "1493": 116,
        "1494": 41,
        "1495": 224,
        "1496": 21,
        "1497": 129,
        "1498": 25,
        "1499": 191,
        "1500": 133,
        "1501": 240,
        "1502": 92,
        "1503": 24,
        "1504": 4,
        "1505": 200,
        "1506": 95,
        "1507": 9,
        "1508": 59,
        "1509": 50,
        "1510": 54,
        "1511": 49,
        "1512": 29,
        "1513": 135,
        "1514": 146,
        "1515": 141,
        "1516": 139,
        "1517": 244,
        "1518": 191,
        "1519": 176,
        "1520": 218,
        "1521": 34,
        "1522": 240,
        "1523": 61,
        "1524": 209,
        "1525": 254,
        "1526": 10,
        "1527": 85,
        "1528": 152,
        "1529": 176,
        "1530": 184,
        "1531": 48,
        "1532": 134,
        "1533": 177,
        "1534": 205,
        "1535": 248,
        "1536": 137,
        "1537": 97,
        "1538": 77,
        "1539": 133,
        "1540": 70,
        "1541": 252,
        "1542": 199,
        "1543": 177,
        "1544": 28,
        "1545": 232,
        "1546": 15,
        "1547": 192,
        "1548": 176,
        "1549": 2,
        "1550": 207,
        "1551": 38,
        "1552": 142,
        "1553": 157,
        "1554": 205,
        "1555": 247,
        "1556": 243,
        "1557": 188,
        "1558": 18,
        "1559": 173,
        "1560": 100,
        "1561": 36,
        "1562": 43,
        "1563": 98,
        "1564": 85,
        "1565": 193,
        "1566": 234,
        "1567": 82,
        "1568": 76,
        "1569": 117,
        "1570": 109,
        "1571": 163,
        "1572": 131,
        "1573": 121,
        "1574": 21,
        "1575": 149,
        "1576": 94,
        "1577": 10,
        "1578": 105,
        "1579": 236,
        "1580": 120,
        "1581": 33,
        "1582": 201,
        "1583": 176,
        "1584": 107,
        "1585": 125,
        "1586": 215,
        "1587": 243,
        "1588": 15,
        "1589": 212,
        "1590": 65,
        "1591": 204,
        "1592": 40,
        "1593": 143,
        "1594": 183,
        "1595": 7,
        "1596": 203,
        "1597": 55,
        "1598": 92,
        "1599": 158,
        "1600": 28,
        "1601": 43,
        "1602": 239,
        "1603": 134,
        "1604": 43,
        "1605": 174,
        "1606": 107,
        "1607": 135,
        "1608": 253,
        "1609": 40,
        "1610": 192,
        "1611": 166,
        "1612": 123,
        "1613": 159,
        "1614": 42,
        "1615": 201,
        "1616": 189,
        "1617": 210,
        "1618": 230,
        "1619": 109,
        "1620": 102,
        "1621": 62,
        "1622": 227,
        "1623": 200,
        "1624": 24,
        "1625": 203,
        "1626": 100,
        "1627": 215,
        "1628": 52,
        "1629": 164,
        "1630": 13,
        "1631": 112,
        "1632": 65,
        "1633": 24,
        "1634": 239,
        "1635": 86,
        "1636": 58,
        "1637": 72,
        "1638": 130,
        "1639": 181,
        "1640": 124,
        "1641": 222,
        "1642": 42,
        "1643": 227,
        "1644": 13,
        "1645": 2,
        "1646": 36,
        "1647": 188,
        "1648": 166,
        "1649": 35,
        "1650": 182,
        "1651": 78,
        "1652": 188,
        "1653": 101,
        "1654": 202,
        "1655": 53,
        "1656": 182,
        "1657": 50,
        "1658": 15,
        "1659": 126,
        "1660": 143,
        "1661": 153,
        "1662": 242,
        "1663": 66,
        "1664": 239,
        "1665": 8,
        "1666": 19,
        "1667": 90,
        "1668": 98,
        "1669": 64,
        "1670": 19,
        "1671": 94,
        "1672": 204,
        "1673": 153,
        "1674": 214,
        "1675": 149,
        "1676": 156,
        "1677": 127,
        "1678": 127,
        "1679": 80,
        "1680": 146,
        "1681": 233,
        "1682": 45,
        "1683": 121,
        "1684": 7,
        "1685": 97,
        "1686": 21,
        "1687": 174,
        "1688": 195,
        "1689": 93,
        "1690": 52,
        "1691": 7,
        "1692": 194,
        "1693": 234,
        "1694": 133,
        "1695": 219,
        "1696": 103,
        "1697": 40,
        "1698": 164,
        "1699": 137,
        "1700": 161,
        "1701": 198,
        "1702": 112,
        "1703": 8,
        "1704": 148,
        "1705": 217,
        "1706": 70,
        "1707": 20,
        "1708": 82,
        "1709": 241,
        "1710": 239,
        "1711": 119,
        "1712": 246,
        "1713": 17,
        "1714": 207,
        "1715": 188,
        "1716": 174,
        "1717": 203,
        "1718": 252,
        "1719": 42,
        "1720": 0,
        "1721": 154,
        "1722": 128,
        "1723": 77,
        "1724": 51,
        "1725": 61,
        "1726": 147,
        "1727": 108,
        "1728": 119,
        "1729": 160,
        "1730": 187,
        "1731": 160,
        "1732": 51,
        "1733": 28,
        "1734": 191,
        "1735": 209,
        "1736": 189,
        "1737": 58,
        "1738": 182,
        "1739": 141,
        "1740": 217,
        "1741": 197,
        "1742": 87,
        "1743": 21,
        "1744": 213,
        "1745": 230,
        "1746": 158,
        "1747": 148,
        "1748": 135,
        "1749": 145,
        "1750": 86,
        "1751": 92,
        "1752": 169,
        "1753": 68,
        "1754": 56,
        "1755": 200,
        "1756": 187,
        "1757": 132,
        "1758": 14,
        "1759": 196,
        "1760": 235,
        "1761": 66,
        "1762": 114,
        "1763": 124,
        "1764": 124,
        "1765": 180,
        "1766": 193,
        "1767": 33,
        "1768": 210,
        "1769": 220,
        "1770": 104,
        "1771": 202,
        "1772": 18,
        "1773": 182,
        "1774": 189,
        "1775": 118,
        "1776": 208,
        "1777": 200,
        "1778": 178,
        "1779": 234,
        "1780": 240,
        "1781": 223,
        "1782": 136,
        "1783": 142,
        "1784": 181,
        "1785": 87,
        "1786": 163,
        "1787": 178,
        "1788": 29,
        "1789": 90,
        "1790": 208,
        "1791": 164,
        "1792": 236,
        "1793": 13,
        "1794": 117,
        "1795": 195,
        "1796": 122,
        "1797": 9,
        "1798": 163,
        "1799": 2,
        "1800": 223,
        "1801": 195,
        "1802": 183,
        "1803": 16,
        "1804": 199,
        "1805": 46,
        "1806": 17,
        "1807": 202,
        "1808": 253,
        "1809": 81,
        "1810": 171,
        "1811": 151,
        "1812": 105,
        "1813": 70,
        "1814": 176,
        "1815": 212,
        "1816": 39,
        "1817": 41,
        "1818": 225,
        "1819": 227,
        "1820": 113,
        "1821": 189,
        "1822": 131,
        "1823": 213,
        "1824": 50,
        "1825": 48,
        "1826": 42,
        "1827": 42,
        "1828": 250,
        "1829": 201,
        "1830": 209,
        "1831": 122,
        "1832": 235,
        "1833": 48,
        "1834": 188,
        "1835": 19,
        "1836": 224,
        "1837": 105,
        "1838": 36,
        "1839": 46,
        "1840": 146,
        "1841": 165,
        "1842": 209,
        "1843": 48,
        "1844": 175,
        "1845": 114,
        "1846": 5,
        "1847": 158,
        "1848": 38,
        "1849": 92,
        "1850": 90,
        "1851": 84,
        "1852": 162,
        "1853": 80,
        "1854": 2,
        "1855": 173,
        "1856": 254,
        "1857": 5,
        "1858": 232,
        "1859": 3,
        "1860": 241,
        "1861": 75,
        "1862": 236,
        "1863": 48,
        "1864": 86,
        "1865": 191,
        "1866": 41,
        "1867": 110,
        "1868": 198,
        "1869": 120,
        "1870": 132,
        "1871": 61,
        "1872": 92,
        "1873": 131,
        "1874": 39,
        "1875": 214,
        "1876": 90,
        "1877": 134,
        "1878": 240,
        "1879": 29,
        "1880": 206,
        "1881": 53,
        "1882": 9,
        "1883": 39,
        "1884": 235,
        "1885": 146,
        "1886": 182,
        "1887": 57,
        "1888": 8,
        "1889": 51,
        "1890": 194,
        "1891": 64,
        "1892": 131,
        "1893": 209,
        "1894": 95,
        "1895": 4,
        "1896": 81,
        "1897": 253,
        "1898": 55,
        "1899": 192,
        "1900": 180,
        "1901": 190,
        "1902": 185,
        "1903": 246,
        "1904": 239,
        "1905": 211,
        "1906": 150,
        "1907": 17,
        "1908": 200,
        "1909": 66,
        "1910": 218,
        "1911": 112,
        "1912": 168,
        "1913": 30,
        "1914": 191,
        "1915": 111,
        "1916": 32,
        "1917": 138,
        "1918": 25,
        "1919": 221,
        "1920": 85,
        "1921": 144,
        "1922": 230,
        "1923": 244,
        "1924": 6,
        "1925": 184,
        "1926": 198,
        "1927": 182,
        "1928": 6,
        "1929": 199,
        "1930": 45,
        "1931": 224,
        "1932": 209,
        "1933": 179,
        "1934": 203,
        "1935": 20,
        "1936": 142,
        "1937": 86,
        "1938": 1,
        "1939": 29,
        "1940": 243,
        "1941": 76,
        "1942": 211,
        "1943": 230,
        "1944": 96,
        "1945": 136,
        "1946": 233,
        "1947": 146,
        "1948": 142,
        "1949": 105,
        "1950": 229,
        "1951": 55,
        "1952": 220,
        "1953": 223,
        "1954": 30,
        "1955": 237,
        "1956": 124,
        "1957": 73,
        "1958": 219,
        "1959": 146,
        "1960": 89,
        "1961": 147,
        "1962": 110,
        "1963": 137,
        "1964": 86,
        "1965": 20,
        "1966": 33,
        "1967": 80,
        "1968": 236,
        "1969": 234,
        "1970": 46,
        "1971": 217,
        "1972": 138,
        "1973": 198,
        "1974": 147,
        "1975": 226,
        "1976": 244,
        "1977": 105,
        "1978": 83,
        "1979": 175,
        "1980": 137,
        "1981": 213,
        "1982": 238,
        "1983": 1,
        "1984": 86,
        "1985": 214,
        "1986": 106,
        "1987": 126,
        "1988": 30,
        "1989": 33,
        "1990": 230,
        "1991": 109,
        "1992": 171,
        "1993": 145,
        "1994": 120,
        "1995": 84,
        "1996": 203,
        "1997": 7,
        "1998": 50,
        "1999": 250,
        "2000": 13,
        "2001": 160,
        "2002": 98,
        "2003": 82,
        "2004": 124,
        "2005": 237,
        "2006": 100,
        "2007": 88,
        "2008": 200,
        "2009": 106,
        "2010": 36,
        "2011": 243,
        "2012": 84,
        "2013": 239,
        "2014": 41,
        "2015": 254,
        "2016": 179,
        "2017": 124,
        "2018": 169,
        "2019": 88,
        "2020": 180,
        "2021": 248,
        "2022": 176,
        "2023": 210,
        "2024": 242,
        "2025": 73,
        "2026": 113,
        "2027": 44,
        "2028": 97,
        "2029": 122,
        "2030": 95,
        "2031": 240,
        "2032": 200,
        "2033": 181,
        "2034": 151,
        "2035": 60,
        "2036": 45,
        "2037": 162,
        "2038": 41,
        "2039": 56,
        "2040": 94,
        "2041": 52,
        "2042": 127,
        "2043": 9,
        "2044": 231,
        "2045": 151,
        "2046": 160,
        "2047": 7,
        "2048": 84,
        "2049": 182,
        "2050": 85,
        "2051": 36,
        "2052": 19,
        "2053": 114,
        "2054": 22,
        "2055": 112,
        "2056": 2,
        "2057": 108,
        "2058": 104,
        "2059": 50,
        "2060": 36,
        "2061": 55,
        "2062": 13,
        "2063": 124,
        "2064": 6,
        "2065": 0,
        "2066": 241,
        "2067": 101,
        "2068": 174,
        "2069": 157,
        "2070": 230,
        "2071": 102,
        "2072": 224,
        "2073": 192,
        "2074": 36,
        "2075": 98,
        "2076": 68,
        "2077": 36,
        "2078": 45,
        "2079": 121,
        "2080": 50,
        "2081": 121,
        "2082": 232,
        "2083": 48,
        "2084": 204,
        "2085": 61,
        "2086": 21,
        "2087": 197,
        "2088": 11,
        "2089": 138,
        "2090": 162,
        "2091": 174,
        "2092": 175,
        "2093": 229,
        "2094": 83,
        "2095": 119,
        "2096": 110,
        "2097": 179,
        "2098": 100,
        "2099": 101,
        "2100": 73,
        "2101": 16,
        "2102": 236,
        "2103": 128,
        "2104": 250,
        "2105": 15,
        "2106": 119,
        "2107": 33,
        "2108": 228,
        "2109": 65,
        "2110": 36,
        "2111": 20,
        "2112": 100,
        "2113": 235,
        "2114": 41,
        "2115": 107,
        "2116": 238,
        "2117": 97,
        "2118": 123,
        "2119": 14,
        "2120": 139,
        "2121": 107,
        "2122": 18,
        "2123": 246,
        "2124": 46,
        "2125": 61,
        "2126": 152,
        "2127": 36,
        "2128": 176,
        "2129": 27,
        "2130": 208,
        "2131": 155,
        "2132": 234,
        "2133": 144,
        "2134": 181,
        "2135": 200,
        "2136": 170,
        "2137": 43,
        "2138": 168,
        "2139": 160,
        "2140": 175,
        "2141": 164,
        "2142": 113,
        "2143": 12,
        "2144": 124,
        "2145": 16,
        "2146": 213,
        "2147": 197,
        "2148": 24,
        "2149": 134,
        "2150": 226,
        "2151": 40,
        "2152": 14,
        "2153": 10,
        "2154": 236,
        "2155": 158,
        "2156": 221,
        "2157": 190,
        "2158": 66,
        "2159": 224,
        "2160": 221,
        "2161": 41,
        "2162": 147,
        "2163": 4,
        "2164": 242,
        "2165": 250,
        "2166": 103,
        "2167": 249,
        "2168": 190,
        "2169": 146,
        "2170": 103,
        "2171": 177,
        "2172": 110,
        "2173": 72,
        "2174": 37,
        "2175": 50,
        "2176": 96,
        "2177": 182,
        "2178": 0,
        "2179": 130,
        "2180": 201,
        "2181": 114,
        "2182": 88,
        "2183": 182,
        "2184": 139,
        "2185": 44,
        "2186": 200,
        "2187": 55,
        "2188": 79,
        "2189": 68,
        "2190": 164,
        "2191": 20,
        "2192": 222,
        "2193": 244,
        "2194": 77,
        "2195": 123,
        "2196": 180,
        "2197": 84,
        "2198": 128,
        "2199": 81,
        "2200": 248,
        "2201": 78,
        "2202": 31,
        "2203": 152,
        "2204": 241,
        "2205": 214,
        "2206": 254,
        "2207": 103,
        "2208": 251,
        "2209": 233,
        "2210": 160,
        "2211": 50,
        "2212": 28,
        "2213": 10,
        "2214": 162,
        "2215": 94,
        "2216": 118,
        "2217": 253,
        "2218": 101,
        "2219": 77,
        "2220": 184,
        "2221": 234,
        "2222": 170,
        "2223": 41,
        "2224": 242,
        "2225": 57,
        "2226": 23,
        "2227": 204,
        "2228": 48,
        "2229": 61,
        "2230": 114,
        "2231": 82,
        "2232": 159,
        "2233": 173,
        "2234": 83,
        "2235": 165,
        "2236": 33,
        "2237": 24,
        "2238": 153,
        "2239": 24,
        "2240": 40,
        "2241": 242,
        "2242": 134,
        "2243": 38,
        "2244": 226,
        "2245": 119,
        "2246": 33,
        "2247": 113,
        "2248": 164,
        "2249": 210,
        "2250": 61,
        "2251": 227,
        "2252": 237,
        "2253": 112,
        "2254": 5,
        "2255": 157,
        "2256": 124,
        "2257": 133,
        "2258": 108,
        "2259": 167,
        "2260": 94,
        "2261": 164,
        "2262": 72,
        "2263": 118,
        "2264": 109,
        "2265": 159,
        "2266": 28,
        "2267": 0,
        "2268": 166,
        "2269": 195,
        "2270": 112,
        "2271": 114,
        "2272": 163,
        "2273": 63,
        "2274": 100,
        "2275": 3,
        "2276": 236,
        "2277": 195,
        "2278": 14,
        "2279": 148,
        "2280": 43,
        "2281": 5,
        "2282": 140,
        "2283": 49,
        "2284": 25,
        "2285": 78,
        "2286": 252,
        "2287": 139,
        "2288": 61,
        "2289": 125,
        "2290": 77,
        "2291": 170,
        "2292": 245,
        "2293": 171,
        "2294": 129,
        "2295": 1,
        "2296": 88,
        "2297": 223,
        "2298": 246,
        "2299": 194,
        "2300": 140,
        "2301": 234,
        "2302": 47,
        "2303": 213,
        "2304": 140,
        "2305": 3,
        "2306": 59,
        "2307": 143,
        "2308": 22,
        "2309": 181,
        "2310": 155,
        "2311": 0,
        "2312": 12,
        "2313": 12,
        "2314": 222,
        "2315": 199,
        "2316": 171,
        "2317": 123,
        "2318": 5,
        "2319": 95,
        "2320": 76,
        "2321": 221,
        "2322": 223,
        "2323": 13,
        "2324": 79,
        "2325": 188,
        "2326": 253,
        "2327": 41,
        "2328": 27,
        "2329": 27,
        "2330": 190,
        "2331": 180,
        "2332": 253,
        "2333": 173,
        "2334": 235,
        "2335": 107,
        "2336": 243,
        "2337": 163,
        "2338": 80,
        "2339": 19,
        "2340": 24,
        "2341": 183,
        "2342": 253,
        "2343": 18,
        "2344": 147,
        "2345": 41,
        "2346": 246,
        "2347": 106,
        "2348": 228,
        "2349": 250,
        "2350": 98,
        "2351": 213,
        "2352": 4,
        "2353": 134,
        "2354": 246,
        "2355": 27,
        "2356": 160,
        "2357": 123,
        "2358": 249,
        "2359": 190,
        "2360": 33,
        "2361": 41,
        "2362": 60,
        "2363": 104,
        "2364": 149,
        "2365": 59,
        "2366": 167,
        "2367": 205,
        "2368": 135,
        "2369": 12,
        "2370": 199,
        "2371": 217,
        "2372": 23,
        "2373": 187,
        "2374": 129,
        "2375": 174,
        "2376": 243,
        "2377": 136,
        "2378": 153,
        "2379": 240,
        "2380": 239,
        "2381": 164,
        "2382": 32,
        "2383": 104,
        "2384": 36,
        "2385": 77,
        "2386": 196,
        "2387": 32,
        "2388": 135,
        "2389": 111,
        "2390": 13,
        "2391": 129,
        "2392": 247,
        "2393": 214,
        "2394": 122,
        "2395": 52,
        "2396": 214,
        "2397": 244,
        "2398": 109,
        "2399": 244,
        "2400": 11,
        "2401": 11,
        "2402": 110,
        "2403": 116,
        "2404": 104,
        "2405": 31,
        "2406": 163,
        "2407": 225,
        "2408": 177,
        "2409": 233,
        "2410": 104,
        "2411": 195,
        "2412": 109,
        "2413": 73,
        "2414": 193,
        "2415": 13,
        "2416": 84,
        "2417": 251,
        "2418": 233,
        "2419": 71,
        "2420": 71,
        "2421": 164,
        "2422": 238,
        "2423": 36,
        "2424": 227,
        "2425": 227,
        "2426": 80,
        "2427": 208,
        "2428": 109,
        "2429": 197,
        "2430": 185,
        "2431": 65,
        "2432": 66,
        "2433": 202,
        "2434": 244,
        "2435": 226,
        "2436": 230,
        "2437": 91,
        "2438": 215,
        "2439": 159,
        "2440": 99,
        "2441": 89,
        "2442": 106,
        "2443": 223,
        "2444": 161,
        "2445": 251,
        "2446": 130,
        "2447": 185,
        "2448": 24,
        "2449": 243,
        "2450": 101,
        "2451": 28,
        "2452": 75,
        "2453": 246,
        "2454": 197,
        "2455": 179,
        "2456": 58,
        "2457": 178,
        "2458": 181,
        "2459": 53,
        "2460": 33,
        "2461": 212,
        "2462": 22,
        "2463": 68,
        "2464": 49,
        "2465": 125,
        "2466": 64,
        "2467": 22,
        "2468": 30,
        "2469": 117,
        "2470": 191,
        "2471": 136,
        "2472": 124,
        "2473": 57,
        "2474": 199,
        "2475": 46,
        "2476": 212,
        "2477": 242,
        "2478": 158,
        "2479": 17,
        "2480": 140,
        "2481": 110,
        "2482": 79,
        "2483": 196,
        "2484": 145,
        "2485": 116,
        "2486": 210,
        "2487": 189,
        "2488": 74,
        "2489": 251,
        "2490": 235,
        "2491": 51,
        "2492": 0,
        "2493": 15,
        "2494": 8,
        "2495": 173,
        "2496": 73,
        "2497": 208,
        "2498": 103,
        "2499": 118,
        "2500": 192,
        "2501": 159,
        "2502": 141,
        "2503": 236,
        "2504": 28,
        "2505": 189,
        "2506": 108,
        "2507": 175,
        "2508": 103,
        "2509": 101,
        "2510": 253,
        "2511": 224,
        "2512": 133,
        "2513": 49,
        "2514": 50,
        "2515": 200,
        "2516": 137,
        "2517": 184,
        "2518": 48,
        "2519": 60,
        "2520": 190,
        "2521": 1,
        "2522": 64,
        "2523": 82,
        "2524": 220,
        "2525": 131,
        "2526": 255,
        "2527": 141,
        "2528": 174,
        "2529": 183,
        "2530": 16,
        "2531": 162,
        "2532": 203,
        "2533": 71,
        "2534": 248,
        "2535": 11,
        "2536": 169,
        "2537": 142,
        "2538": 71,
        "2539": 159,
        "2540": 83,
        "2541": 236,
        "2542": 174,
        "2543": 91,
        "2544": 191,
        "2545": 136,
        "2546": 26,
        "2547": 222,
        "2548": 218,
        "2549": 153,
        "2550": 187,
        "2551": 16,
        "2552": 254,
        "2553": 63,
        "2554": 242,
        "2555": 67,
        "2556": 159,
        "2557": 80,
        "2558": 34,
        "2559": 167,
        "2560": 119,
        "2561": 243,
        "2562": 239,
        "2563": 216,
        "2564": 93,
        "2565": 200,
        "2566": 182,
        "2567": 172,
        "2568": 146,
        "2569": 81,
        "2570": 120,
        "2571": 42,
        "2572": 168,
        "2573": 60,
        "2574": 18,
        "2575": 116,
        "2576": 222,
        "2577": 155,
        "2578": 22,
        "2579": 218,
        "2580": 82,
        "2581": 151,
        "2582": 48,
        "2583": 210,
        "2584": 229,
        "2585": 118,
        "2586": 214,
        "2587": 181,
        "2588": 193,
        "2589": 166,
        "2590": 118,
        "2591": 204,
        "2592": 20,
        "2593": 23,
        "2594": 255,
        "2595": 87,
        "2596": 133,
        "2597": 131,
        "2598": 136,
        "2599": 144,
        "2600": 109,
        "2601": 21,
        "2602": 42,
        "2603": 78,
        "2604": 134,
        "2605": 18,
        "2606": 248,
        "2607": 16,
        "2608": 211,
        "2609": 149,
        "2610": 80,
        "2611": 130,
        "2612": 204,
        "2613": 111,
        "2614": 144,
        "2615": 7,
        "2616": 53,
        "2617": 106,
        "2618": 91,
        "2619": 2,
        "2620": 247,
        "2621": 38,
        "2622": 231,
        "2623": 170,
        "2624": 11,
        "2625": 55,
        "2626": 246,
        "2627": 137,
        "2628": 14,
        "2629": 105,
        "2630": 115,
        "2631": 238,
        "2632": 191,
        "2633": 176,
        "2634": 67,
        "2635": 42,
        "2636": 172,
        "2637": 163,
        "2638": 96,
        "2639": 49,
        "2640": 108,
        "2641": 122,
        "2642": 211,
        "2643": 184,
        "2644": 10,
        "2645": 78,
        "2646": 167,
        "2647": 122,
        "2648": 104,
        "2649": 244,
        "2650": 139,
        "2651": 30,
        "2652": 151,
        "2653": 115,
        "2654": 2,
        "2655": 85,
        "2656": 253,
        "2657": 132,
        "2658": 11,
        "2659": 83,
        "2660": 30,
        "2661": 23,
        "2662": 8,
        "2663": 170,
        "2664": 9,
        "2665": 245,
        "2666": 81,
        "2667": 145,
        "2668": 37,
        "2669": 20,
        "2670": 169,
        "2671": 43,
        "2672": 203,
        "2673": 54,
        "2674": 62,
        "2675": 5,
        "2676": 159,
        "2677": 0,
        "2678": 28,
        "2679": 87,
        "2680": 98,
        "2681": 106,
        "2682": 168,
        "2683": 2,
        "2684": 251,
        "2685": 92,
        "2686": 127,
        "2687": 24,
        "2688": 94,
        "2689": 170,
        "2690": 200,
        "2691": 134,
        "2692": 182,
        "2693": 98,
        "2694": 23,
        "2695": 249,
        "2696": 169,
        "2697": 209,
        "2698": 2,
        "2699": 185,
        "2700": 10,
        "2701": 227,
        "2702": 13,
        "2703": 183,
        "2704": 61,
        "2705": 47,
        "2706": 109,
        "2707": 247,
        "2708": 88,
        "2709": 216,
        "2710": 72,
        "2711": 123,
        "2712": 57,
        "2713": 240,
        "2714": 55,
        "2715": 161,
        "2716": 244,
        "2717": 36,
        "2718": 1,
        "2719": 81,
        "2720": 253,
        "2721": 145,
        "2722": 202,
        "2723": 75,
        "2724": 61,
        "2725": 217,
        "2726": 153,
        "2727": 240,
        "2728": 30,
        "2729": 108,
        "2730": 246,
        "2731": 112,
        "2732": 8,
        "2733": 21,
        "2734": 133,
        "2735": 198,
        "2736": 123,
        "2737": 166,
        "2738": 168,
        "2739": 213,
        "2740": 98,
        "2741": 116,
        "2742": 226,
        "2743": 252,
        "2744": 248,
        "2745": 166,
        "2746": 189,
        "2747": 85,
        "2748": 174,
        "2749": 32,
        "2750": 12,
        "2751": 230,
        "2752": 205,
        "2753": 75,
        "2754": 66,
        "2755": 56,
        "2756": 52,
        "2757": 51,
        "2758": 88,
        "2759": 51,
        "2760": 185,
        "2761": 79,
        "2762": 122,
        "2763": 94,
        "2764": 102,
        "2765": 113,
        "2766": 29,
        "2767": 198,
        "2768": 171,
        "2769": 141,
        "2770": 117,
        "2771": 134,
        "2772": 225,
        "2773": 74,
        "2774": 63,
        "2775": 29,
        "2776": 26,
        "2777": 189,
        "2778": 169,
        "2779": 94,
        "2780": 138,
        "2781": 188,
        "2782": 64,
        "2783": 213,
        "2784": 145,
        "2785": 1,
        "2786": 251,
        "2787": 137,
        "2788": 171,
        "2789": 48,
        "2790": 14,
        "2791": 19,
        "2792": 101,
        "2793": 27,
        "2794": 41,
        "2795": 194,
        "2796": 227,
        "2797": 121,
        "2798": 156,
        "2799": 117,
        "2800": 95,
        "2801": 210,
        "2802": 254,
        "2803": 244,
        "2804": 12,
        "2805": 138,
        "2806": 190,
        "2807": 21,
        "2808": 26,
        "2809": 90,
        "2810": 188,
        "2811": 232,
        "2812": 87,
        "2813": 119,
        "2814": 189,
        "2815": 205,
        "2816": 112,
        "2817": 253,
        "2818": 3,
        "2819": 73,
        "2820": 247,
        "2821": 115,
        "2822": 189,
        "2823": 1,
        "2824": 32,
        "2825": 57,
        "2826": 216,
        "2827": 131,
        "2828": 165,
        "2829": 13,
        "2830": 162,
        "2831": 180,
        "2832": 226,
        "2833": 249,
        "2834": 69,
        "2835": 234,
        "2836": 216,
        "2837": 32,
        "2838": 245,
        "2839": 225,
        "2840": 43,
        "2841": 165,
        "2842": 128,
        "2843": 234,
        "2844": 12,
        "2845": 26,
        "2846": 27,
        "2847": 157,
        "2848": 83,
        "2849": 207,
        "2850": 175,
        "2851": 146,
        "2852": 22,
        "2853": 180,
        "2854": 220,
        "2855": 72,
        "2856": 182,
        "2857": 115,
        "2858": 17,
        "2859": 90,
        "2860": 16,
        "2861": 169,
        "2862": 45,
        "2863": 155,
        "2864": 253,
        "2865": 185,
        "2866": 25,
        "2867": 112,
        "2868": 243,
        "2869": 17,
        "2870": 183,
        "2871": 13,
        "2872": 242,
        "2873": 124,
        "2874": 196,
        "2875": 252,
        "2876": 96,
        "2877": 251,
        "2878": 11,
        "2879": 224,
        "2880": 208,
        "2881": 217,
        "2882": 18,
        "2883": 160,
        "2884": 155,
        "2885": 128,
        "2886": 46,
        "2887": 225,
        "2888": 145,
        "2889": 203,
        "2890": 239,
        "2891": 100,
        "2892": 75,
        "2893": 222,
        "2894": 67,
        "2895": 189,
        "2896": 103,
        "2897": 111,
        "2898": 78,
        "2899": 238,
        "2900": 218,
        "2901": 220,
        "2902": 191,
        "2903": 79,
        "2904": 45,
        "2905": 175,
        "2906": 164,
        "2907": 70,
        "2908": 228,
        "2909": 163,
        "2910": 4,
        "2911": 149,
        "2912": 67,
        "2913": 177,
        "2914": 127,
        "2915": 69,
        "2916": 140,
        "2917": 179,
        "2918": 4,
        "2919": 110,
        "2920": 56,
        "2921": 161,
        "2922": 252,
        "2923": 147,
        "2924": 198,
        "2925": 92,
        "2926": 93,
        "2927": 96,
        "2928": 219,
        "2929": 209,
        "2930": 170,
        "2931": 141,
        "2932": 7,
        "2933": 75,
        "2934": 29,
        "2935": 36,
        "2936": 155,
        "2937": 185,
        "2938": 12,
        "2939": 124,
        "2940": 137,
        "2941": 128,
        "2942": 183,
        "2943": 217,
        "2944": 120,
        "2945": 133,
        "2946": 112,
        "2947": 216,
        "2948": 228,
        "2949": 238,
        "2950": 59,
        "2951": 198,
        "2952": 89,
        "2953": 149,
        "2954": 250,
        "2955": 226,
        "2956": 202,
        "2957": 238,
        "2958": 206,
        "2959": 254,
        "2960": 113,
        "2961": 67,
        "2962": 79,
        "2963": 203,
        "2964": 248,
        "2965": 204,
        "2966": 20,
        "2967": 155,
        "2968": 123,
        "2969": 140,
        "2970": 67,
        "2971": 248,
        "2972": 76,
        "2973": 172,
        "2974": 16,
        "2975": 43,
        "2976": 125,
        "2977": 200,
        "2978": 204,
        "2979": 184,
        "2980": 126,
        "2981": 109,
        "2982": 24,
        "2983": 84,
        "2984": 223,
        "2985": 22,
        "2986": 2,
        "2987": 228,
        "2988": 130,
        "2989": 73,
        "2990": 23,
        "2991": 103,
        "2992": 225,
        "2993": 123,
        "2994": 25,
        "2995": 197,
        "2996": 183,
        "2997": 41,
        "2998": 215,
        "2999": 94,
        "3000": 61,
        "3001": 247,
        "3002": 50,
        "3003": 74,
        "3004": 229,
        "3005": 29,
        "3006": 199,
        "3007": 98,
        "3008": 19,
        "3009": 48,
        "3010": 140,
        "3011": 23,
        "3012": 20,
        "3013": 220,
        "3014": 12,
        "3015": 59,
        "3016": 132,
        "3017": 66,
        "3018": 239,
        "3019": 38,
        "3020": 249,
        "3021": 66,
        "3022": 188,
        "3023": 161,
        "3024": 156,
        "3025": 121,
        "3026": 197,
        "3027": 252,
        "3028": 25,
        "3029": 72,
        "3030": 185,
        "3031": 65,
        "3032": 214,
        "3033": 158,
        "3034": 192,
        "3035": 182,
        "3036": 209,
        "3037": 232,
        "3038": 89,
        "3039": 104,
        "3040": 227,
        "3041": 144,
        "3042": 184,
        "3043": 185,
        "3044": 105,
        "3045": 241,
        "3046": 204,
        "3047": 89,
        "3048": 148,
        "3049": 80,
        "3050": 2,
        "3051": 109,
        "3052": 232,
        "3053": 118,
        "3054": 197,
        "3055": 222,
        "3056": 53,
        "3057": 216,
        "3058": 118,
        "3059": 119,
        "3060": 19,
        "3061": 1,
        "3062": 84,
        "3063": 118,
        "3064": 126,
        "3065": 57,
        "3066": 150,
        "3067": 171,
        "3068": 198,
        "3069": 150,
        "3070": 104,
        "3071": 36,
        "3072": 225,
        "3073": 89,
        "3074": 207,
        "3075": 149,
        "3076": 145,
        "3077": 69,
        "3078": 221,
        "3079": 69,
        "3080": 249,
        "3081": 211,
        "3082": 65,
        "3083": 34,
        "3084": 219,
        "3085": 130,
        "3086": 231,
        "3087": 49,
        "3088": 95,
        "3089": 75,
        "3090": 254,
        "3091": 83,
        "3092": 207,
        "3093": 53,
        "3094": 61,
        "3095": 16,
        "3096": 7,
        "3097": 198,
        "3098": 248,
        "3099": 238,
        "3100": 195,
        "3101": 140,
        "3102": 8,
        "3103": 154,
        "3104": 211,
        "3105": 35,
        "3106": 205,
        "3107": 123,
        "3108": 76,
        "3109": 155,
        "3110": 209,
        "3111": 69,
        "3112": 138,
        "3113": 167,
        "3114": 20,
        "3115": 166,
        "3116": 113,
        "3117": 32,
        "3118": 227,
        "3119": 49,
        "3120": 125,
        "3121": 5,
        "3122": 223,
        "3123": 12,
        "3124": 65,
        "3125": 49,
        "3126": 50,
        "3127": 122,
        "3128": 168,
        "3129": 136,
        "3130": 134,
        "3131": 206,
        "3132": 130,
        "3133": 220,
        "3134": 201,
        "3135": 129,
        "3136": 190,
        "3137": 162,
        "3138": 236,
        "3139": 229,
        "3140": 47,
        "3141": 143,
        "3142": 119,
        "3143": 22,
        "3144": 249,
        "3145": 133,
        "3146": 200,
        "3147": 133,
        "3148": 110,
        "3149": 143,
        "3150": 191,
        "3151": 78,
        "3152": 255,
        "3153": 231,
        "3154": 102,
        "3155": 254,
        "3156": 27,
        "3157": 217,
        "3158": 89,
        "3159": 64,
        "3160": 51,
        "3161": 53,
        "3162": 146,
        "3163": 156,
        "3164": 69,
        "3165": 249,
        "3166": 150,
        "3167": 124,
        "3168": 7,
        "3169": 82,
        "3170": 210,
        "3171": 167,
        "3172": 160,
        "3173": 133,
        "3174": 10,
        "3175": 196,
        "3176": 63,
        "3177": 219,
        "3178": 192,
        "3179": 15,
        "3180": 169,
        "3181": 69,
        "3182": 15,
        "3183": 154,
        "3184": 81,
        "3185": 61,
        "3186": 172,
        "3187": 157,
        "3188": 38,
        "3189": 236,
        "3190": 95,
        "3191": 181,
        "3192": 117,
        "3193": 149,
        "3194": 183,
        "3195": 200,
        "3196": 178,
        "3197": 216,
        "3198": 21,
        "3199": 144,
        "3200": 79,
        "3201": 129,
        "3202": 86,
        "3203": 88,
        "3204": 91,
        "3205": 9,
        "3206": 188,
        "3207": 232,
        "3208": 95,
        "3209": 230,
        "3210": 38,
        "3211": 44,
        "3212": 134,
        "3213": 91,
        "3214": 250,
        "3215": 199,
        "3216": 92,
        "3217": 245,
        "3218": 19,
        "3219": 209,
        "3220": 230,
        "3221": 44,
        "3222": 74,
        "3223": 77,
        "3224": 112,
        "3225": 103,
        "3226": 46,
        "3227": 188,
        "3228": 5,
        "3229": 189,
        "3230": 102,
        "3231": 9,
        "3232": 80,
        "3233": 58,
        "3234": 72,
        "3235": 53,
        "3236": 53,
        "3237": 75,
        "3238": 147,
        "3239": 40,
        "3240": 2,
        "3241": 252,
        "3242": 175,
        "3243": 112,
        "3244": 41,
        "3245": 211,
        "3246": 133,
        "3247": 155,
        "3248": 208,
        "3249": 197,
        "3250": 6,
        "3251": 199,
        "3252": 220,
        "3253": 213,
        "3254": 148,
        "3255": 235,
        "3256": 250,
        "3257": 73,
        "3258": 172,
        "3259": 224,
        "3260": 126,
        "3261": 68,
        "3262": 14,
        "3263": 161,
        "3264": 1,
        "3265": 155,
        "3266": 169,
        "3267": 242,
        "3268": 94,
        "3269": 132,
        "3270": 99,
        "3271": 18,
        "3272": 83,
        "3273": 150,
        "3274": 102,
        "3275": 76,
        "3276": 54,
        "3277": 253,
        "3278": 1,
        "3279": 104,
        "3280": 121,
        "3281": 92,
        "3282": 183,
        "3283": 84,
        "3284": 131,
        "3285": 80,
        "3286": 246,
        "3287": 90,
        "3288": 113,
        "3289": 200,
        "3290": 108,
        "3291": 78,
        "3292": 112,
        "3293": 139,
        "3294": 83,
        "3295": 183,
        "3296": 115,
        "3297": 233,
        "3298": 135,
        "3299": 252,
        "3300": 228,
        "3301": 175,
        "3302": 210,
        "3303": 102,
        "3304": 20,
        "3305": 130,
        "3306": 11,
        "3307": 128,
        "3308": 86,
        "3309": 140,
        "3310": 227,
        "3311": 181,
        "3312": 147,
        "3313": 166,
        "3314": 148,
        "3315": 153,
        "3316": 96,
        "3317": 196,
        "3318": 134,
        "3319": 207,
        "3320": 178,
        "3321": 42,
        "3322": 245,
        "3323": 89,
        "3324": 229,
        "3325": 86,
        "3326": 141,
        "3327": 104,
        "3328": 231,
        "3329": 101,
        "3330": 23,
        "3331": 209,
        "3332": 181,
        "3333": 71,
        "3334": 50,
        "3335": 216,
        "3336": 11,
        "3337": 123,
        "3338": 31,
        "3339": 63,
        "3340": 101,
        "3341": 192,
        "3342": 90,
        "3343": 250,
        "3344": 76,
        "3345": 201,
        "3346": 128,
        "3347": 242,
        "3348": 186,
        "3349": 133,
        "3350": 85,
        "3351": 60,
        "3352": 151,
        "3353": 19,
        "3354": 172,
        "3355": 58,
        "3356": 51,
        "3357": 244,
        "3358": 149,
        "3359": 37,
        "3360": 94,
        "3361": 52,
        "3362": 47,
        "3363": 2,
        "3364": 238,
        "3365": 207,
        "3366": 43,
        "3367": 189,
        "3368": 5,
        "3369": 188,
        "3370": 96,
        "3371": 181,
        "3372": 97,
        "3373": 39,
        "3374": 21,
        "3375": 81,
        "3376": 156,
        "3377": 255,
        "3378": 252,
        "3379": 24,
        "3380": 208,
        "3381": 186,
        "3382": 56,
        "3383": 28,
        "3384": 17,
        "3385": 81,
        "3386": 179,
        "3387": 19,
        "3388": 126,
        "3389": 175,
        "3390": 204,
        "3391": 100,
        "3392": 125,
        "3393": 19,
        "3394": 234,
        "3395": 30,
        "3396": 130,
        "3397": 114,
        "3398": 128,
        "3399": 91,
        "3400": 81,
        "3401": 10,
        "3402": 129,
        "3403": 183,
        "3404": 87,
        "3405": 207,
        "3406": 138,
        "3407": 169,
        "3408": 147,
        "3409": 58,
        "3410": 241,
        "3411": 152,
        "3412": 242,
        "3413": 198,
        "3414": 243,
        "3415": 11,
        "3416": 46,
        "3417": 252,
        "3418": 244,
        "3419": 95,
        "3420": 182,
        "3421": 83,
        "3422": 77,
        "3423": 17,
        "3424": 216,
        "3425": 250,
        "3426": 150,
        "3427": 209,
        "3428": 11,
        "3429": 68,
        "3430": 205,
        "3431": 124,
        "3432": 224,
        "3433": 21,
        "3434": 162,
        "3435": 240,
        "3436": 40,
        "3437": 13,
        "3438": 3,
        "3439": 169,
        "3440": 18,
        "3441": 43,
        "3442": 243,
        "3443": 34,
        "3444": 6,
        "3445": 172,
        "3446": 197,
        "3447": 100,
        "3448": 115,
        "3449": 112,
        "3450": 130,
        "3451": 205,
        "3452": 171,
        "3453": 58,
        "3454": 60,
        "3455": 32,
        "3456": 76,
        "3457": 139,
        "3458": 83,
        "3459": 151,
        "3460": 239,
        "3461": 173,
        "3462": 237,
        "3463": 236,
        "3464": 133,
        "3465": 191,
        "3466": 17,
        "3467": 117,
        "3468": 195,
        "3469": 215,
        "3470": 240,
        "3471": 12,
        "3472": 211,
        "3473": 76,
        "3474": 33,
        "3475": 131,
        "3476": 0,
        "3477": 213,
        "3478": 188,
        "3479": 44,
        "3480": 176,
        "3481": 58,
        "3482": 223,
        "3483": 153,
        "3484": 37,
        "3485": 59,
        "3486": 8,
        "3487": 99,
        "3488": 207,
        "3489": 188,
        "3490": 248,
        "3491": 167,
        "3492": 152,
        "3493": 186,
        "3494": 186,
        "3495": 188,
        "3496": 97,
        "3497": 93,
        "3498": 10,
        "3499": 17,
        "3500": 39,
        "3501": 141,
        "3502": 251,
        "3503": 21,
        "3504": 3,
        "3505": 73,
        "3506": 217,
        "3507": 211,
        "3508": 236,
        "3509": 124,
        "3510": 178,
        "3511": 253,
        "3512": 115,
        "3513": 132,
        "3514": 195,
        "3515": 132,
        "3516": 78,
        "3517": 174,
        "3518": 110,
        "3519": 179,
        "3520": 129,
        "3521": 34,
        "3522": 18,
        "3523": 27,
        "3524": 79,
        "3525": 202,
        "3526": 45,
        "3527": 79,
        "3528": 21,
        "3529": 210,
        "3530": 90,
        "3531": 95,
        "3532": 146,
        "3533": 21,
        "3534": 157,
        "3535": 145,
        "3536": 78,
        "3537": 72,
        "3538": 46,
        "3539": 138,
        "3540": 24,
        "3541": 134,
        "3542": 236,
        "3543": 165,
        "3544": 28,
        "3545": 89,
        "3546": 28,
        "3547": 73,
        "3548": 107,
        "3549": 226,
        "3550": 135,
        "3551": 220,
        "3552": 33,
        "3553": 242,
        "3554": 171,
        "3555": 149,
        "3556": 92,
        "3557": 88,
        "3558": 135,
        "3559": 61,
        "3560": 165,
        "3561": 154,
        "3562": 18,
        "3563": 61,
        "3564": 25,
        "3565": 114,
        "3566": 207,
        "3567": 26,
        "3568": 38,
        "3569": 203,
        "3570": 175,
        "3571": 228,
        "3572": 209,
        "3573": 214,
        "3574": 147,
        "3575": 28,
        "3576": 180,
        "3577": 36,
        "3578": 75,
        "3579": 109,
        "3580": 83,
        "3581": 185,
        "3582": 95,
        "3583": 214,
        "3584": 92,
        "3585": 219,
        "3586": 166,
        "3587": 170,
        "3588": 243,
        "3589": 28,
        "3590": 123,
        "3591": 195,
        "3592": 204,
        "3593": 55,
        "3594": 190,
        "3595": 145,
        "3596": 171,
        "3597": 98,
        "3598": 1,
        "3599": 179,
        "3600": 80,
        "3601": 177,
        "3602": 107,
        "3603": 130,
        "3604": 89,
        "3605": 249,
        "3606": 109,
        "3607": 95,
        "3608": 86,
        "3609": 187,
        "3610": 129,
        "3611": 32,
        "3612": 223,
        "3613": 34,
        "3614": 195,
        "3615": 197,
        "3616": 65,
        "3617": 171,
        "3618": 195,
        "3619": 229,
        "3620": 200,
        "3621": 134,
        "3622": 177,
        "3623": 144,
        "3624": 226,
        "3625": 160,
        "3626": 217,
        "3627": 210,
        "3628": 10,
        "3629": 255,
        "3630": 112,
        "3631": 248,
        "3632": 233,
        "3633": 215,
        "3634": 124,
        "3635": 151,
        "3636": 140,
        "3637": 162,
        "3638": 215,
        "3639": 185,
        "3640": 72,
        "3641": 160,
        "3642": 207,
        "3643": 5,
        "3644": 107,
        "3645": 101,
        "3646": 103,
        "3647": 72,
        "3648": 240,
        "3649": 248,
        "3650": 76,
        "3651": 243,
        "3652": 88,
        "3653": 110,
        "3654": 99,
        "3655": 140,
        "3656": 133,
        "3657": 201,
        "3658": 60,
        "3659": 191,
        "3660": 106,
        "3661": 78,
        "3662": 151,
        "3663": 38,
        "3664": 151,
        "3665": 19,
        "3666": 107,
        "3667": 137,
        "3668": 23,
        "3669": 105,
        "3670": 44,
        "3671": 13,
        "3672": 117,
        "3673": 164,
        "3674": 0,
        "3675": 184,
        "3676": 194,
        "3677": 80,
        "3678": 248,
        "3679": 42,
        "3680": 230,
        "3681": 0,
        "3682": 76,
        "3683": 127,
        "3684": 189,
        "3685": 107,
        "3686": 47,
        "3687": 3,
        "3688": 19,
        "3689": 113,
        "3690": 248,
        "3691": 40,
        "3692": 234,
        "3693": 110,
        "3694": 91,
        "3695": 21,
        "3696": 166,
        "3697": 59,
        "3698": 4,
        "3699": 102,
        "3700": 172,
        "3701": 213,
        "3702": 45,
        "3703": 236,
        "3704": 251,
        "3705": 144,
        "3706": 29,
        "3707": 14,
        "3708": 126,
        "3709": 58,
        "3710": 44,
        "3711": 90,
        "3712": 214,
        "3713": 56,
        "3714": 27,
        "3715": 245,
        "3716": 254,
        "3717": 15,
        "3718": 112,
        "3719": 140,
        "3720": 87,
        "3721": 32,
        "3722": 38,
        "3723": 95,
        "3724": 32,
        "3725": 164,
        "3726": 247,
        "3727": 143,
        "3728": 31,
        "3729": 103,
        "3730": 194,
        "3731": 63,
        "3732": 131,
        "3733": 83,
        "3734": 66,
        "3735": 236,
        "3736": 112,
        "3737": 144,
        "3738": 137,
        "3739": 212,
        "3740": 181,
        "3741": 18,
        "3742": 237,
        "3743": 201,
        "3744": 58,
        "3745": 165,
        "3746": 77,
        "3747": 7,
        "3748": 163,
        "3749": 16,
        "3750": 90,
        "3751": 166,
        "3752": 216,
        "3753": 124,
        "3754": 215,
        "3755": 151,
        "3756": 56,
        "3757": 37,
        "3758": 200,
        "3759": 29,
        "3760": 116,
        "3761": 18,
        "3762": 150,
        "3763": 113,
        "3764": 146,
        "3765": 78,
        "3766": 14,
        "3767": 48,
        "3768": 2,
        "3769": 24,
        "3770": 250,
        "3771": 91,
        "3772": 183,
        "3773": 240,
        "3774": 30,
        "3775": 87,
        "3776": 19,
        "3777": 95,
        "3778": 244,
        "3779": 117,
        "3780": 100,
        "3781": 48,
        "3782": 171,
        "3783": 183,
        "3784": 24,
        "3785": 157,
        "3786": 106,
        "3787": 241,
        "3788": 176,
        "3789": 77,
        "3790": 120,
        "3791": 221,
        "3792": 120,
        "3793": 3,
        "3794": 250,
        "3795": 129,
        "3796": 150,
        "3797": 206,
        "3798": 125,
        "3799": 186,
        "3800": 119,
        "3801": 226,
        "3802": 53,
        "3803": 148,
        "3804": 27,
        "3805": 176,
        "3806": 65,
        "3807": 132,
        "3808": 61,
        "3809": 142,
        "3810": 216,
        "3811": 163,
        "3812": 218,
        "3813": 115,
        "3814": 177,
        "3815": 116,
        "3816": 121,
        "3817": 195,
        "3818": 211,
        "3819": 160,
        "3820": 160,
        "3821": 141,
        "3822": 115,
        "3823": 17,
        "3824": 238,
        "3825": 193,
        "3826": 244,
        "3827": 147,
        "3828": 134,
        "3829": 253,
        "3830": 106,
        "3831": 57,
        "3832": 14,
        "3833": 99,
        "3834": 89,
        "3835": 19,
        "3836": 218,
        "3837": 172,
        "3838": 52,
        "3839": 247,
        "3840": 174,
        "3841": 151,
        "3842": 225,
        "3843": 105,
        "3844": 186,
        "3845": 106,
        "3846": 64,
        "3847": 10,
        "3848": 66,
        "3849": 119,
        "3850": 2,
        "3851": 54,
        "3852": 251,
        "3853": 156,
        "3854": 55,
        "3855": 2,
        "3856": 126,
        "3857": 9,
        "3858": 198,
        "3859": 130,
        "3860": 69,
        "3861": 138,
        "3862": 85,
        "3863": 93,
        "3864": 25,
        "3865": 18,
        "3866": 202,
        "3867": 92,
        "3868": 94,
        "3869": 220,
        "3870": 61,
        "3871": 50,
        "3872": 137,
        "3873": 182,
        "3874": 121,
        "3875": 165,
        "3876": 49,
        "3877": 42,
        "3878": 93,
        "3879": 252,
        "3880": 58,
        "3881": 23,
        "3882": 40,
        "3883": 30,
        "3884": 79,
        "3885": 82,
        "3886": 20,
        "3887": 120,
        "3888": 105,
        "3889": 79,
        "3890": 106,
        "3891": 196,
        "3892": 117,
        "3893": 202,
        "3894": 155,
        "3895": 216,
        "3896": 123,
        "3897": 130,
        "3898": 9,
        "3899": 20,
        "3900": 78,
        "3901": 21,
        "3902": 26,
        "3903": 176,
        "3904": 78,
        "3905": 213,
        "3906": 48,
        "3907": 2,
        "3908": 122,
        "3909": 237,
        "3910": 188,
        "3911": 197,
        "3912": 97,
        "3913": 63,
        "3914": 222,
        "3915": 144,
        "3916": 59,
        "3917": 81,
        "3918": 197,
        "3919": 169,
        "3920": 212,
        "3921": 110,
        "3922": 97,
        "3923": 46,
        "3924": 131,
        "3925": 7,
        "3926": 43,
        "3927": 20,
        "3928": 128,
        "3929": 41,
        "3930": 83,
        "3931": 246,
        "3932": 46,
        "3933": 36,
        "3934": 241,
        "3935": 239,
        "3936": 162,
        "3937": 164,
        "3938": 242,
        "3939": 211,
        "3940": 175,
        "3941": 8,
        "3942": 92,
        "3943": 123,
        "3944": 176,
        "3945": 53,
        "3946": 195,
        "3947": 135,
        "3948": 118,
        "3949": 167,
        "3950": 95,
        "3951": 50,
        "3952": 103,
        "3953": 59,
        "3954": 81,
        "3955": 147,
        "3956": 169,
        "3957": 67,
        "3958": 101,
        "3959": 73,
        "3960": 150,
        "3961": 80,
        "3962": 17,
        "3963": 178,
        "3964": 124,
        "3965": 245,
        "3966": 45,
        "3967": 251,
        "3968": 7,
        "3969": 90,
        "3970": 160,
        "3971": 77,
        "3972": 17,
        "3973": 115,
        "3974": 197,
        "3975": 140,
        "3976": 224,
        "3977": 218,
        "3978": 53,
        "3979": 175,
        "3980": 85,
        "3981": 176,
        "3982": 133,
        "3983": 176,
        "3984": 205,
        "3985": 232,
        "3986": 164,
        "3987": 53,
        "3988": 27,
        "3989": 6,
        "3990": 81,
        "3991": 138,
        "3992": 141,
        "3993": 133,
        "3994": 254,
        "3995": 13,
        "3996": 65,
        "3997": 224,
        "3998": 191,
        "3999": 99,
        "4000": 13,
        "4001": 200,
        "4002": 239,
        "4003": 168,
        "4004": 254,
        "4005": 106,
        "4006": 6,
        "4007": 63,
        "4008": 104,
        "4009": 180,
        "4010": 237,
        "4011": 4,
        "4012": 56,
        "4013": 235,
        "4014": 15,
        "4015": 175,
        "4016": 142,
        "4017": 129,
        "4018": 83,
        "4019": 37,
        "4020": 14,
        "4021": 66,
        "4022": 141,
        "4023": 27,
        "4024": 214,
        "4025": 201,
        "4026": 185,
        "4027": 29,
        "4028": 183,
        "4029": 68,
        "4030": 222,
        "4031": 104,
        "4032": 21,
        "4033": 158,
        "4034": 65,
        "4035": 196,
        "4036": 31,
        "4037": 234,
        "4038": 194,
        "4039": 35,
        "4040": 241,
        "4041": 210,
        "4042": 193,
        "4043": 226,
        "4044": 35,
        "4045": 127,
        "4046": 122,
        "4047": 16,
        "4048": 213,
        "4049": 135,
        "4050": 239,
        "4051": 248,
        "4052": 254,
        "4053": 20,
        "4054": 82,
        "4055": 160,
        "4056": 115,
        "4057": 237,
        "4058": 143,
        "4059": 128,
        "4060": 19,
        "4061": 235,
        "4062": 129,
        "4063": 108,
        "4064": 161,
        "4065": 142,
        "4066": 139,
        "4067": 5,
        "4068": 164,
        "4069": 38,
        "4070": 20,
        "4071": 55,
        "4072": 1,
        "4073": 25,
        "4074": 31,
        "4075": 101,
        "4076": 139,
        "4077": 178,
        "4078": 22,
        "4079": 255,
        "4080": 113,
        "4081": 27,
        "4082": 134,
        "4083": 129,
        "4084": 145,
        "4085": 105,
        "4086": 22,
        "4087": 254,
        "4088": 247,
        "4089": 213,
        "4090": 5,
        "4091": 1,
        "4092": 244,
        "4093": 176,
        "4094": 31,
        "4095": 55,
        "4096": 68,
        "4097": 42,
        "4098": 197,
        "4099": 207,
        "4100": 190,
        "4101": 65,
        "4102": 201,
        "4103": 103,
        "4104": 68,
        "4105": 215,
        "4106": 117,
        "4107": 132,
        "4108": 201,
        "4109": 94,
        "4110": 21,
        "4111": 178,
        "4112": 174,
        "4113": 97,
        "4114": 124,
        "4115": 65,
        "4116": 147,
        "4117": 250,
        "4118": 75,
        "4119": 250,
        "4120": 63,
        "4121": 198,
        "4122": 21,
        "4123": 153,
        "4124": 198,
        "4125": 183,
        "4126": 216,
        "4127": 76,
        "4128": 132,
        "4129": 235,
        "4130": 116,
        "4131": 64,
        "4132": 182,
        "4133": 107,
        "4134": 165,
        "4135": 119,
        "4136": 169,
        "4137": 10,
        "4138": 239,
        "4139": 144,
        "4140": 158,
        "4141": 77,
        "4142": 246,
        "4143": 69,
        "4144": 195,
        "4145": 77,
        "4146": 70,
        "4147": 1,
        "4148": 72,
        "4149": 213,
        "4150": 143,
        "4151": 10,
        "4152": 6,
        "4153": 216,
        "4154": 85,
        "4155": 182,
        "4156": 24,
        "4157": 143,
        "4158": 142,
        "4159": 119,
        "4160": 21,
        "4161": 242,
        "4162": 108,
        "4163": 67,
        "4164": 193,
        "4165": 59,
        "4166": 111,
        "4167": 97,
        "4168": 226,
        "4169": 193,
        "4170": 106,
        "4171": 189,
        "4172": 225,
        "4173": 25,
        "4174": 183,
        "4175": 229,
        "4176": 198,
        "4177": 48,
        "4178": 81,
        "4179": 223,
        "4180": 1,
        "4181": 140,
        "4182": 168,
        "4183": 255,
        "4184": 120,
        "4185": 64,
        "4186": 226,
        "4187": 142,
        "4188": 108,
        "4189": 219,
        "4190": 93,
        "4191": 172,
        "4192": 167,
        "4193": 181,
        "4194": 117,
        "4195": 142,
        "4196": 136,
        "4197": 3,
        "4198": 64,
        "4199": 166,
        "4200": 218,
        "4201": 252,
        "4202": 190,
        "4203": 172,
        "4204": 18,
        "4205": 207,
        "4206": 0,
        "4207": 253,
        "4208": 213,
        "4209": 225,
        "4210": 75,
        "4211": 229,
        "4212": 29,
        "4213": 6,
        "4214": 119,
        "4215": 50,
        "4216": 74,
        "4217": 8,
        "4218": 130,
        "4219": 21,
        "4220": 185,
        "4221": 111,
        "4222": 210,
        "4223": 201,
        "4224": 116,
        "4225": 152,
        "4226": 10,
        "4227": 27,
        "4228": 168,
        "4229": 118,
        "4230": 32,
        "4231": 60,
        "4232": 56,
        "4233": 109,
        "4234": 189,
        "4235": 184,
        "4236": 174,
        "4237": 161,
        "4238": 201,
        "4239": 249,
        "4240": 122,
        "4241": 193,
        "4242": 28,
        "4243": 51,
        "4244": 193,
        "4245": 183,
        "4246": 91,
        "4247": 112,
        "4248": 253,
        "4249": 106,
        "4250": 194,
        "4251": 47,
        "4252": 20,
        "4253": 63,
        "4254": 235,
        "4255": 238,
        "4256": 236,
        "4257": 21,
        "4258": 45,
        "4259": 201,
        "4260": 132,
        "4261": 86,
        "4262": 214,
        "4263": 218,
        "4264": 56,
        "4265": 174,
        "4266": 35,
        "4267": 122,
        "4268": 228,
        "4269": 173,
        "4270": 128,
        "4271": 205,
        "4272": 46,
        "4273": 153,
        "4274": 13,
        "4275": 209,
        "4276": 127,
        "4277": 169,
        "4278": 42,
        "4279": 250,
        "4280": 207,
        "4281": 116,
        "4282": 94,
        "4283": 114,
        "4284": 68,
        "4285": 59,
        "4286": 84,
        "4287": 186,
        "4288": 165,
        "4289": 63,
        "4290": 229,
        "4291": 62,
        "4292": 167,
        "4293": 246,
        "4294": 177,
        "4295": 132,
        "4296": 99,
        "4297": 24,
        "4298": 58,
        "4299": 61,
        "4300": 107,
        "4301": 216,
        "4302": 220,
        "4303": 130,
        "4304": 173,
        "4305": 250,
        "4306": 57,
        "4307": 117,
        "4308": 38,
        "4309": 246,
        "4310": 187,
        "4311": 168,
        "4312": 196,
        "4313": 98,
        "4314": 172,
        "4315": 111,
        "4316": 23,
        "4317": 130,
        "4318": 32,
        "4319": 9,
        "4320": 45,
        "4321": 26,
        "4322": 109,
        "4323": 134,
        "4324": 216,
        "4325": 156,
        "4326": 115,
        "4327": 33,
        "4328": 126,
        "4329": 83,
        "4330": 140,
        "4331": 132,
        "4332": 167,
        "4333": 186,
        "4334": 5,
        "4335": 25,
        "4336": 168,
        "4337": 122,
        "4338": 124,
        "4339": 84,
        "4340": 106,
        "4341": 99,
        "4342": 121,
        "4343": 59,
        "4344": 28,
        "4345": 179,
        "4346": 177,
        "4347": 60,
        "4348": 12,
        "4349": 77,
        "4350": 176,
        "4351": 6,
        "4352": 228,
        "4353": 244,
        "4354": 242,
        "4355": 191,
        "4356": 56,
        "4357": 12,
        "4358": 35,
        "4359": 133,
        "4360": 203,
        "4361": 6,
        "4362": 83,
        "4363": 195,
        "4364": 95,
        "4365": 198,
        "4366": 22,
        "4367": 149,
        "4368": 32,
        "4369": 83,
        "4370": 128,
        "4371": 3,
        "4372": 102,
        "4373": 9,
        "4374": 37,
        "4375": 245,
        "4376": 124,
        "4377": 45,
        "4378": 185,
        "4379": 164,
        "4380": 105,
        "4381": 34,
        "4382": 150,
        "4383": 151,
        "4384": 35,
        "4385": 224,
        "4386": 114,
        "4387": 9,
        "4388": 46,
        "4389": 243,
        "4390": 191,
        "4391": 75,
        "4392": 238,
        "4393": 62,
        "4394": 208,
        "4395": 179,
        "4396": 82,
        "4397": 238,
        "4398": 21,
        "4399": 173,
        "4400": 84,
        "4401": 26,
        "4402": 129,
        "4403": 204,
        "4404": 120,
        "4405": 166,
        "4406": 123,
        "4407": 15,
        "4408": 58,
        "4409": 107,
        "4410": 48,
        "4411": 82,
        "4412": 125,
        "4413": 242,
        "4414": 208,
        "4415": 241,
        "4416": 193,
        "4417": 201,
        "4418": 204,
        "4419": 24,
        "4420": 248,
        "4421": 169,
        "4422": 134,
        "4423": 197,
        "4424": 235,
        "4425": 126,
        "4426": 133,
        "4427": 225,
        "4428": 85,
        "4429": 155,
        "4430": 82,
        "4431": 3,
        "4432": 24,
        "4433": 243,
        "4434": 251,
        "4435": 181,
        "4436": 224,
        "4437": 4,
        "4438": 71,
        "4439": 194,
        "4440": 68,
        "4441": 119,
        "4442": 249,
        "4443": 98,
        "4444": 156,
        "4445": 81,
        "4446": 235,
        "4447": 48,
        "4448": 19,
        "4449": 40,
        "4450": 48,
        "4451": 181,
        "4452": 24,
        "4453": 118,
        "4454": 242,
        "4455": 225,
        "4456": 226,
        "4457": 40,
        "4458": 199,
        "4459": 44,
        "4460": 99,
        "4461": 18,
        "4462": 179,
        "4463": 76,
        "4464": 41,
        "4465": 45,
        "4466": 108,
        "4467": 105,
        "4468": 28,
        "4469": 210,
        "4470": 253,
        "4471": 81,
        "4472": 67,
        "4473": 53,
        "4474": 219,
        "4475": 232,
        "4476": 191,
        "4477": 130,
        "4478": 14,
        "4479": 85,
        "4480": 111,
        "4481": 67,
        "4482": 21,
        "4483": 68,
        "4484": 75,
        "4485": 5,
        "4486": 250,
        "4487": 254,
        "4488": 78,
        "4489": 105,
        "4490": 75,
        "4491": 34,
        "4492": 214,
        "4493": 237,
        "4494": 113,
        "4495": 226,
        "4496": 108,
        "4497": 206,
        "4498": 109,
        "4499": 254,
        "4500": 237,
        "4501": 35,
        "4502": 166,
        "4503": 118,
        "4504": 198,
        "4505": 194,
        "4506": 52,
        "4507": 155,
        "4508": 8,
        "4509": 40,
        "4510": 48,
        "4511": 21,
        "4512": 189,
        "4513": 207,
        "4514": 116,
        "4515": 175,
        "4516": 131,
        "4517": 203,
        "4518": 118,
        "4519": 25,
        "4520": 248,
        "4521": 67,
        "4522": 244,
        "4523": 65,
        "4524": 223,
        "4525": 215,
        "4526": 57,
        "4527": 110,
        "4528": 95,
        "4529": 92,
        "4530": 67,
        "4531": 51,
        "4532": 228,
        "4533": 56,
        "4534": 207,
        "4535": 76,
        "4536": 83,
        "4537": 37,
        "4538": 26,
        "4539": 242,
        "4540": 104,
        "4541": 65,
        "4542": 102,
        "4543": 126,
        "4544": 60,
        "4545": 75,
        "4546": 231,
        "4547": 14,
        "4548": 29,
        "4549": 102,
        "4550": 124,
        "4551": 199,
        "4552": 8,
        "4553": 113,
        "4554": 172,
        "4555": 150,
        "4556": 241,
        "4557": 213,
        "4558": 210,
        "4559": 22,
        "4560": 201,
        "4561": 231,
        "4562": 64,
        "4563": 80,
        "4564": 240,
        "4565": 232,
        "4566": 190,
        "4567": 205,
        "4568": 5,
        "4569": 102,
        "4570": 254,
        "4571": 172,
        "4572": 24,
        "4573": 94,
        "4574": 148,
        "4575": 90,
        "4576": 40,
        "4577": 154,
        "4578": 12,
        "4579": 2,
        "4580": 128,
        "4581": 28,
        "4582": 86,
        "4583": 94,
        "4584": 166,
        "4585": 214,
        "4586": 38,
        "4587": 103,
        "4588": 85,
        "4589": 215,
        "4590": 73,
        "4591": 1,
        "4592": 18,
        "4593": 215,
        "4594": 32,
        "4595": 100,
        "4596": 45,
        "4597": 242,
        "4598": 163,
        "4599": 233,
        "4600": 227,
        "4601": 185,
        "4602": 209,
        "4603": 214,
        "4604": 4,
        "4605": 61,
        "4606": 114,
        "4607": 85,
        "4608": 248,
        "4609": 119,
        "4610": 94,
        "4611": 165,
        "4612": 151,
        "4613": 237,
        "4614": 147,
        "4615": 69,
        "4616": 39,
        "4617": 215,
        "4618": 171,
        "4619": 213,
        "4620": 110,
        "4621": 141,
        "4622": 208,
        "4623": 74,
        "4624": 237,
        "4625": 170,
        "4626": 68,
        "4627": 132,
        "4628": 160,
        "4629": 34,
        "4630": 172,
        "4631": 95,
        "4632": 137,
        "4633": 64,
        "4634": 211,
        "4635": 249,
        "4636": 216,
        "4637": 243,
        "4638": 213,
        "4639": 168,
        "4640": 229,
        "4641": 119,
        "4642": 76,
        "4643": 38,
        "4644": 159,
        "4645": 230,
        "4646": 225,
        "4647": 51,
        "4648": 13,
        "4649": 6,
        "4650": 156,
        "4651": 155,
        "4652": 25,
        "4653": 121,
        "4654": 40,
        "4655": 1,
        "4656": 99,
        "4657": 208,
        "4658": 207,
        "4659": 33,
        "4660": 43,
        "4661": 29,
        "4662": 189,
        "4663": 104,
        "4664": 95,
        "4665": 161,
        "4666": 231,
        "4667": 86,
        "4668": 87,
        "4669": 135,
        "4670": 236,
        "4671": 48,
        "4672": 22,
        "4673": 37,
        "4674": 224,
        "4675": 120,
        "4676": 119,
        "4677": 208,
        "4678": 15,
        "4679": 81,
        "4680": 168,
        "4681": 77,
        "4682": 235,
        "4683": 104,
        "4684": 155,
        "4685": 193,
        "4686": 61,
        "4687": 145,
        "4688": 119,
        "4689": 234,
        "4690": 84,
        "4691": 14,
        "4692": 255,
        "4693": 59,
        "4694": 132,
        "4695": 244,
        "4696": 34,
        "4697": 8,
        "4698": 246,
        "4699": 97,
        "4700": 167,
        "4701": 79,
        "4702": 244,
        "4703": 248,
        "4704": 30,
        "4705": 37,
        "4706": 72,
        "4707": 10,
        "4708": 161,
        "4709": 118,
        "4710": 73,
        "4711": 142,
        "4712": 92,
        "4713": 201,
        "4714": 194,
        "4715": 94,
        "4716": 5,
        "4717": 223,
        "4718": 236,
        "4719": 108,
        "4720": 133,
        "4721": 106,
        "4722": 56,
        "4723": 39,
        "4724": 148,
        "4725": 29,
        "4726": 228,
        "4727": 192,
        "4728": 200,
        "4729": 70,
        "4730": 189,
        "4731": 134,
        "4732": 201,
        "4733": 90,
        "4734": 162,
        "4735": 118,
        "4736": 112,
        "4737": 176,
        "4738": 62,
        "4739": 176,
        "4740": 184,
        "4741": 145,
        "4742": 154,
        "4743": 185,
        "4744": 180,
        "4745": 9,
        "4746": 90,
        "4747": 138,
        "4748": 202,
        "4749": 66,
        "4750": 61,
        "4751": 146,
        "4752": 254,
        "4753": 124,
        "4754": 29,
        "4755": 216,
        "4756": 46,
        "4757": 144,
        "4758": 179,
        "4759": 148,
        "4760": 65,
        "4761": 71,
        "4762": 196,
        "4763": 21,
        "4764": 247,
        "4765": 111,
        "4766": 93,
        "4767": 9,
        "4768": 8,
        "4769": 29,
        "4770": 231,
        "4771": 103,
        "4772": 161,
        "4773": 252,
        "4774": 109,
        "4775": 164,
        "4776": 117,
        "4777": 12,
        "4778": 241,
        "4779": 97,
        "4780": 180,
        "4781": 79,
        "4782": 108,
        "4783": 207,
        "4784": 116,
        "4785": 164,
        "4786": 45,
        "4787": 130,
        "4788": 74,
        "4789": 162,
        "4790": 129,
        "4791": 20,
        "4792": 15,
        "4793": 76,
        "4794": 161,
        "4795": 55,
        "4796": 89,
        "4797": 194,
        "4798": 1,
        "4799": 114,
        "4800": 157,
        "4801": 57,
        "4802": 12,
        "4803": 106,
        "4804": 102,
        "4805": 136,
        "4806": 183,
        "4807": 249,
        "4808": 81,
        "4809": 14,
        "4810": 162,
        "4811": 35,
        "4812": 219,
        "4813": 243,
        "4814": 4,
        "4815": 132,
        "4816": 140,
        "4817": 159,
        "4818": 34,
        "4819": 145,
        "4820": 203,
        "4821": 110,
        "4822": 113,
        "4823": 98,
        "4824": 179,
        "4825": 121,
        "4826": 113,
        "4827": 81,
        "4828": 85,
        "4829": 131,
        "4830": 235,
        "4831": 114,
        "4832": 26,
        "4833": 222,
        "4834": 80,
        "4835": 10,
        "4836": 180,
        "4837": 94,
        "4838": 113,
        "4839": 242,
        "4840": 128,
        "4841": 157,
        "4842": 147,
        "4843": 108,
        "4844": 211,
        "4845": 185,
        "4846": 129,
        "4847": 250,
        "4848": 138,
        "4849": 121,
        "4850": 61,
        "4851": 54,
        "4852": 173,
        "4853": 206,
        "4854": 209,
        "4855": 41,
        "4856": 129,
        "4857": 218,
        "4858": 15,
        "4859": 202,
        "4860": 40,
        "4861": 164,
        "4862": 241,
        "4863": 55,
        "4864": 39,
        "4865": 8,
        "4866": 54,
        "4867": 4,
        "4868": 236,
        "4869": 62,
        "4870": 98,
        "4871": 97,
        "4872": 137,
        "4873": 82,
        "4874": 245,
        "4875": 171,
        "4876": 241,
        "4877": 190,
        "4878": 205,
        "4879": 85,
        "4880": 120,
        "4881": 76,
        "4882": 25,
        "4883": 209,
        "4884": 87,
        "4885": 39,
        "4886": 167,
        "4887": 2,
        "4888": 155,
        "4889": 39,
        "4890": 226,
        "4891": 204,
        "4892": 184,
        "4893": 251,
        "4894": 198,
        "4895": 183,
        "4896": 155,
        "4897": 86,
        "4898": 36,
        "4899": 156,
        "4900": 250,
        "4901": 145,
        "4902": 201,
        "4903": 148,
        "4904": 51,
        "4905": 127,
        "4906": 56,
        "4907": 174,
        "4908": 121,
        "4909": 172,
        "4910": 55,
        "4911": 173,
        "4912": 26,
        "4913": 213,
        "4914": 255,
        "4915": 89,
        "4916": 20,
        "4917": 205,
        "4918": 127,
        "4919": 252,
        "4920": 75,
        "4921": 175,
        "4922": 11,
        "4923": 221,
        "4924": 183,
        "4925": 70,
        "4926": 29,
        "4927": 96,
        "4928": 41,
        "4929": 103,
        "4930": 128,
        "4931": 216,
        "4932": 97,
        "4933": 85,
        "4934": 173,
        "4935": 35,
        "4936": 8,
        "4937": 96,
        "4938": 247,
        "4939": 121,
        "4940": 59,
        "4941": 238,
        "4942": 114,
        "4943": 71,
        "4944": 125,
        "4945": 39,
        "4946": 166,
        "4947": 225,
        "4948": 97,
        "4949": 145,
        "4950": 219,
        "4951": 5,
        "4952": 166,
        "4953": 241,
        "4954": 91,
        "4955": 169,
        "4956": 120,
        "4957": 27,
        "4958": 196,
        "4959": 207,
        "4960": 160,
        "4961": 148,
        "4962": 35,
        "4963": 183,
        "4964": 1,
        "4965": 124,
        "4966": 5,
        "4967": 253,
        "4968": 227,
        "4969": 244,
        "4970": 156,
        "4971": 72,
        "4972": 250,
        "4973": 38,
        "4974": 120,
        "4975": 100,
        "4976": 111,
        "4977": 236,
        "4978": 112,
        "4979": 13,
        "4980": 41,
        "4981": 51,
        "4982": 43,
        "4983": 255,
        "4984": 90,
        "4985": 158,
        "4986": 194,
        "4987": 167,
        "4988": 85,
        "4989": 250,
        "4990": 201,
        "4991": 208,
        "4992": 236,
        "4993": 123,
        "4994": 163,
        "4995": 186,
        "4996": 159,
        "4997": 115,
        "4998": 217,
        "4999": 149,
        "5000": 81,
        "5001": 123,
        "5002": 88,
        "5003": 91,
        "5004": 225,
        "5005": 197,
        "5006": 52,
        "5007": 213,
        "5008": 29,
        "5009": 87,
        "5010": 66,
        "5011": 45,
        "5012": 195,
        "5013": 2,
        "5014": 52,
        "5015": 38,
        "5016": 173,
        "5017": 220,
        "5018": 48,
        "5019": 7,
        "5020": 173,
        "5021": 75,
        "5022": 65,
        "5023": 110,
        "5024": 76,
        "5025": 168,
        "5026": 247,
        "5027": 201,
        "5028": 53,
        "5029": 36,
        "5030": 41,
        "5031": 201,
        "5032": 143,
        "5033": 253,
        "5034": 226,
        "5035": 64,
        "5036": 38,
        "5037": 226,
        "5038": 198,
        "5039": 240,
        "5040": 211,
        "5041": 151,
        "5042": 49,
        "5043": 18,
        "5044": 247,
        "5045": 168,
        "5046": 235,
        "5047": 24,
        "5048": 147,
        "5049": 56,
        "5050": 144,
        "5051": 47,
        "5052": 254,
        "5053": 14,
        "5054": 128,
        "5055": 243,
        "5056": 225,
        "5057": 241,
        "5058": 160,
        "5059": 112,
        "5060": 164,
        "5061": 62,
        "5062": 0,
        "5063": 234,
        "5064": 69,
        "5065": 22,
        "5066": 90,
        "5067": 245,
        "5068": 186,
        "5069": 121,
        "5070": 153,
        "5071": 252,
        "5072": 56,
        "5073": 92,
        "5074": 91,
        "5075": 197,
        "5076": 182,
        "5077": 48,
        "5078": 255,
        "5079": 208,
        "5080": 228,
        "5081": 93,
        "5082": 50,
        "5083": 89,
        "5084": 236,
        "5085": 97,
        "5086": 76,
        "5087": 162,
        "5088": 179,
        "5089": 145,
        "5090": 127,
        "5091": 146,
        "5092": 29,
        "5093": 80,
        "5094": 89,
        "5095": 223,
        "5096": 114,
        "5097": 37,
        "5098": 127,
        "5099": 13,
        "5100": 24,
        "5101": 191,
        "5102": 0,
        "5103": 25,
        "5104": 176,
        "5105": 3,
        "5106": 124,
        "5107": 27,
        "5108": 170,
        "5109": 121,
        "5110": 48,
        "5111": 207,
        "5112": 37,
        "5113": 229,
        "5114": 37,
        "5115": 151,
        "5116": 133,
        "5117": 163,
        "5118": 147,
        "5119": 37,
        "5120": 106,
        "5121": 24,
        "5122": 208,
        "5123": 53,
        "5124": 102,
        "5125": 15,
        "5126": 190,
        "5127": 86,
        "5128": 253,
        "5129": 97,
        "5130": 126,
        "5131": 115,
        "5132": 116,
        "5133": 218,
        "5134": 240,
        "5135": 8,
        "5136": 96,
        "5137": 153,
        "5138": 105,
        "5139": 55,
        "5140": 116,
        "5141": 252,
        "5142": 25,
        "5143": 171,
        "5144": 208,
        "5145": 103,
        "5146": 112,
        "5147": 124,
        "5148": 155,
        "5149": 78,
        "5150": 110,
        "5151": 226,
        "5152": 178,
        "5153": 152,
        "5154": 231,
        "5155": 190,
        "5156": 134,
        "5157": 101,
        "5158": 121,
        "5159": 38,
        "5160": 47,
        "5161": 190,
        "5162": 101,
        "5163": 182,
        "5164": 84,
        "5165": 108,
        "5166": 77,
        "5167": 13,
        "5168": 159,
        "5169": 156,
        "5170": 185,
        "5171": 199,
        "5172": 30,
        "5173": 110,
        "5174": 9,
        "5175": 228,
        "5176": 105,
        "5177": 193,
        "5178": 137,
        "5179": 10,
        "5180": 127,
        "5181": 85,
        "5182": 166,
        "5183": 178,
        "5184": 226,
        "5185": 198,
        "5186": 247,
        "5187": 166,
        "5188": 109,
        "5189": 192,
        "5190": 173,
        "5191": 129,
        "5192": 246,
        "5193": 144,
        "5194": 29,
        "5195": 221,
        "5196": 64,
        "5197": 9,
        "5198": 218,
        "5199": 236,
        "5200": 30,
        "5201": 236,
        "5202": 220,
        "5203": 97,
        "5204": 254,
        "5205": 202,
        "5206": 125,
        "5207": 5,
        "5208": 230,
        "5209": 73,
        "5210": 13,
        "5211": 22,
        "5212": 160,
        "5213": 87,
        "5214": 26,
        "5215": 121,
        "5216": 65,
        "5217": 52,
        "5218": 40,
        "5219": 220,
        "5220": 68,
        "5221": 183,
        "5222": 46,
        "5223": 213,
        "5224": 253,
        "5225": 200,
        "5226": 175,
        "5227": 101,
        "5228": 208,
        "5229": 240,
        "5230": 36,
        "5231": 10,
        "5232": 66,
        "5233": 104,
        "5234": 229,
        "5235": 48,
        "5236": 76,
        "5237": 71,
        "5238": 111,
        "5239": 245,
        "5240": 52,
        "5241": 48,
        "5242": 199,
        "5243": 64,
        "5244": 252,
        "5245": 245,
        "5246": 200,
        "5247": 132,
        "5248": 56,
        "5249": 117,
        "5250": 20,
        "5251": 80,
        "5252": 84,
        "5253": 235,
        "5254": 28,
        "5255": 100,
        "5256": 107,
        "5257": 194,
        "5258": 147,
        "5259": 237,
        "5260": 62,
        "5261": 25,
        "5262": 116,
        "5263": 151,
        "5264": 166,
        "5265": 14,
        "5266": 66,
        "5267": 107,
        "5268": 101,
        "5269": 232,
        "5270": 112,
        "5271": 56,
        "5272": 2,
        "5273": 93,
        "5274": 167,
        "5275": 225,
        "5276": 212,
        "5277": 43,
        "5278": 250,
        "5279": 86,
        "5280": 58,
        "5281": 42,
        "5282": 228,
        "5283": 236,
        "5284": 66,
        "5285": 220,
        "5286": 253,
        "5287": 209,
        "5288": 173,
        "5289": 156,
        "5290": 48,
        "5291": 177,
        "5292": 107,
        "5293": 87,
        "5294": 172,
        "5295": 226,
        "5296": 255,
        "5297": 127,
        "5298": 142,
        "5299": 120,
        "5300": 172,
        "5301": 85,
        "5302": 102,
        "5303": 29,
        "5304": 217,
        "5305": 176,
        "5306": 187,
        "5307": 197,
        "5308": 58,
        "5309": 92,
        "5310": 248,
        "5311": 252,
        "5312": 56,
        "5313": 160,
        "5314": 249,
        "5315": 223,
        "5316": 73,
        "5317": 29,
        "5318": 53,
        "5319": 3,
        "5320": 248,
        "5321": 48,
        "5322": 190,
        "5323": 37,
        "5324": 12,
        "5325": 190,
        "5326": 76,
        "5327": 73,
        "5328": 177,
        "5329": 208,
        "5330": 247,
        "5331": 175,
        "5332": 180,
        "5333": 35,
        "5334": 218,
        "5335": 17,
        "5336": 160,
        "5337": 100,
        "5338": 69,
        "5339": 40,
        "5340": 208,
        "5341": 201,
        "5342": 17,
        "5343": 121,
        "5344": 97,
        "5345": 181,
        "5346": 116,
        "5347": 151,
        "5348": 205,
        "5349": 208,
        "5350": 252,
        "5351": 105,
        "5352": 164,
        "5353": 154,
        "5354": 85,
        "5355": 70,
        "5356": 232,
        "5357": 177,
        "5358": 233,
        "5359": 214,
        "5360": 186,
        "5361": 202,
        "5362": 132,
        "5363": 231,
        "5364": 11,
        "5365": 158,
        "5366": 203,
        "5367": 109,
        "5368": 75,
        "5369": 116,
        "5370": 219,
        "5371": 45,
        "5372": 3,
        "5373": 172,
        "5374": 190,
        "5375": 113,
        "5376": 189,
        "5377": 63,
        "5378": 61,
        "5379": 17,
        "5380": 220,
        "5381": 209,
        "5382": 192,
        "5383": 40,
        "5384": 56,
        "5385": 62,
        "5386": 116,
        "5387": 9,
        "5388": 246,
        "5389": 101,
        "5390": 116,
        "5391": 45,
        "5392": 111,
        "5393": 168,
        "5394": 217,
        "5395": 65,
        "5396": 16,
        "5397": 203,
        "5398": 193,
        "5399": 39,
        "5400": 240,
        "5401": 0,
        "5402": 50,
        "5403": 229,
        "5404": 208,
        "5405": 205,
        "5406": 90,
        "5407": 14,
        "5408": 172,
        "5409": 163,
        "5410": 191,
        "5411": 198,
        "5412": 198,
        "5413": 236,
        "5414": 220,
        "5415": 1,
        "5416": 5,
        "5417": 20,
        "5418": 234,
        "5419": 56,
        "5420": 54,
        "5421": 207,
        "5422": 202,
        "5423": 185,
        "5424": 59,
        "5425": 147,
        "5426": 180,
        "5427": 12,
        "5428": 3,
        "5429": 127,
        "5430": 46,
        "5431": 195,
        "5432": 92,
        "5433": 58,
        "5434": 225,
        "5435": 241,
        "5436": 231,
        "5437": 19,
        "5438": 139,
        "5439": 84,
        "5440": 170,
        "5441": 129,
        "5442": 252,
        "5443": 46,
        "5444": 87,
        "5445": 151,
        "5446": 12,
        "5447": 198,
        "5448": 117,
        "5449": 23,
        "5450": 65,
        "5451": 13,
        "5452": 144,
        "5453": 26,
        "5454": 146,
        "5455": 140,
        "5456": 133,
        "5457": 38,
        "5458": 149,
        "5459": 29,
        "5460": 66,
        "5461": 110,
        "5462": 13,
        "5463": 0,
        "5464": 94,
        "5465": 91,
        "5466": 229,
        "5467": 34,
        "5468": 217,
        "5469": 207,
        "5470": 80,
        "5471": 22,
        "5472": 66,
        "5473": 43,
        "5474": 51,
        "5475": 211,
        "5476": 146,
        "5477": 30,
        "5478": 249,
        "5479": 57,
        "5480": 72,
        "5481": 39,
        "5482": 46,
        "5483": 136,
        "5484": 6,
        "5485": 200,
        "5486": 238,
        "5487": 85,
        "5488": 51,
        "5489": 169,
        "5490": 181,
        "5491": 42,
        "5492": 93,
        "5493": 114,
        "5494": 187,
        "5495": 154,
        "5496": 10,
        "5497": 198,
        "5498": 46,
        "5499": 135,
        "5500": 149,
        "5501": 160,
        "5502": 164,
        "5503": 4,
        "5504": 123,
        "5505": 225,
        "5506": 7,
        "5507": 148,
        "5508": 84,
        "5509": 251,
        "5510": 190,
        "5511": 103,
        "5512": 237,
        "5513": 237,
        "5514": 130,
        "5515": 76,
        "5516": 39,
        "5517": 209,
        "5518": 46,
        "5519": 92,
        "5520": 232,
        "5521": 144,
        "5522": 40,
        "5523": 98,
        "5524": 217,
        "5525": 17,
        "5526": 180,
        "5527": 87,
        "5528": 65,
        "5529": 47,
        "5530": 103,
        "5531": 123,
        "5532": 127,
        "5533": 133,
        "5534": 113,
        "5535": 156,
        "5536": 201,
        "5537": 85,
        "5538": 47,
        "5539": 209,
        "5540": 104,
        "5541": 192,
        "5542": 139,
        "5543": 16,
        "5544": 100,
        "5545": 62,
        "5546": 224,
        "5547": 242,
        "5548": 13,
        "5549": 123,
        "5550": 89,
        "5551": 150,
        "5552": 68,
        "5553": 134,
        "5554": 102,
        "5555": 233,
        "5556": 10,
        "5557": 184,
        "5558": 203,
        "5559": 39,
        "5560": 97,
        "5561": 211,
        "5562": 86,
        "5563": 156,
        "5564": 40,
        "5565": 222,
        "5566": 133,
        "5567": 100,
        "5568": 92,
        "5569": 235,
        "5570": 8,
        "5571": 237,
        "5572": 24,
        "5573": 226,
        "5574": 12,
        "5575": 246,
        "5576": 107,
        "5577": 14,
        "5578": 188,
        "5579": 20,
        "5580": 126,
        "5581": 226,
        "5582": 4,
        "5583": 4,
        "5584": 9,
        "5585": 254,
        "5586": 164,
        "5587": 165,
        "5588": 213,
        "5589": 12,
        "5590": 100,
        "5591": 132,
        "5592": 81,
        "5593": 31,
        "5594": 14,
        "5595": 31,
        "5596": 0,
        "5597": 83,
        "5598": 206,
        "5599": 178,
        "5600": 80,
        "5601": 189,
        "5602": 113,
        "5603": 219,
        "5604": 70,
        "5605": 200,
        "5606": 47,
        "5607": 170,
        "5608": 234,
        "5609": 59,
        "5610": 56,
        "5611": 42,
        "5612": 177,
        "5613": 37,
        "5614": 230,
        "5615": 149,
        "5616": 40,
        "5617": 148,
        "5618": 80,
        "5619": 183,
        "5620": 111,
        "5621": 10,
        "5622": 94,
        "5623": 212,
        "5624": 100,
        "5625": 46,
        "5626": 80,
        "5627": 150,
        "5628": 13,
        "5629": 187,
        "5630": 116,
        "5631": 250,
        "5632": 8,
        "5633": 209,
        "5634": 191,
        "5635": 87,
        "5636": 44,
        "5637": 44,
        "5638": 52,
        "5639": 132,
        "5640": 136,
        "5641": 42,
        "5642": 59,
        "5643": 49,
        "5644": 22,
        "5645": 20,
        "5646": 80,
        "5647": 193,
        "5648": 182,
        "5649": 66,
        "5650": 157,
        "5651": 188,
        "5652": 118,
        "5653": 68,
        "5654": 134,
        "5655": 236,
        "5656": 5,
        "5657": 57,
        "5658": 62,
        "5659": 244,
        "5660": 11,
        "5661": 171,
        "5662": 23,
        "5663": 10,
        "5664": 68,
        "5665": 72,
        "5666": 14,
        "5667": 91,
        "5668": 73,
        "5669": 220,
        "5670": 39,
        "5671": 202,
        "5672": 156,
        "5673": 70,
        "5674": 99,
        "5675": 76,
        "5676": 14,
        "5677": 185,
        "5678": 119,
        "5679": 180,
        "5680": 32,
        "5681": 15,
        "5682": 79,
        "5683": 172,
        "5684": 154,
        "5685": 123,
        "5686": 126,
        "5687": 203,
        "5688": 129,
        "5689": 53,
        "5690": 142,
        "5691": 217,
        "5692": 246,
        "5693": 71,
        "5694": 22,
        "5695": 188,
        "5696": 193,
        "5697": 96,
        "5698": 70,
        "5699": 201,
        "5700": 220,
        "5701": 80,
        "5702": 208,
        "5703": 136,
        "5704": 35,
        "5705": 48,
        "5706": 80,
        "5707": 91,
        "5708": 77,
        "5709": 124,
        "5710": 87,
        "5711": 219,
        "5712": 26,
        "5713": 107,
        "5714": 119,
        "5715": 211,
        "5716": 132,
        "5717": 220,
        "5718": 156,
        "5719": 122,
        "5720": 108,
        "5721": 133,
        "5722": 138,
        "5723": 119,
        "5724": 44,
        "5725": 241,
        "5726": 5,
        "5727": 217,
        "5728": 204,
        "5729": 99,
        "5730": 102,
        "5731": 142,
        "5732": 100,
        "5733": 110,
        "5734": 38,
        "5735": 146,
        "5736": 241,
        "5737": 235,
        "5738": 165,
        "5739": 166,
        "5740": 203,
        "5741": 191,
        "5742": 204,
        "5743": 235,
        "5744": 239,
        "5745": 89,
        "5746": 66,
        "5747": 55,
        "5748": 150,
        "5749": 25,
        "5750": 237,
        "5751": 4,
        "5752": 175,
        "5753": 213,
        "5754": 253,
        "5755": 205,
        "5756": 244,
        "5757": 241,
        "5758": 247,
        "5759": 235,
        "5760": 171,
        "5761": 196,
        "5762": 104,
        "5763": 131,
        "5764": 178,
        "5765": 198,
        "5766": 202,
        "5767": 31,
        "5768": 104,
        "5769": 64,
        "5770": 85,
        "5771": 93,
        "5772": 163,
        "5773": 181,
        "5774": 29,
        "5775": 160,
        "5776": 175,
        "5777": 172,
        "5778": 81,
        "5779": 6,
        "5780": 84,
        "5781": 8,
        "5782": 7,
        "5783": 7,
        "5784": 49,
        "5785": 71,
        "5786": 121,
        "5787": 17,
        "5788": 25,
        "5789": 28,
        "5790": 118,
        "5791": 44,
        "5792": 94,
        "5793": 12,
        "5794": 131,
        "5795": 47,
        "5796": 27,
        "5797": 163,
        "5798": 70,
        "5799": 220,
        "5800": 159,
        "5801": 115,
        "5802": 202,
        "5803": 176,
        "5804": 179,
        "5805": 132,
        "5806": 13,
        "5807": 208,
        "5808": 242,
        "5809": 96,
        "5810": 43,
        "5811": 171,
        "5812": 236,
        "5813": 19,
        "5814": 73,
        "5815": 170,
        "5816": 210,
        "5817": 137,
        "5818": 41,
        "5819": 177,
        "5820": 31,
        "5821": 16,
        "5822": 221,
        "5823": 61,
        "5824": 215,
        "5825": 242,
        "5826": 165,
        "5827": 205,
        "5828": 242,
        "5829": 196,
        "5830": 163,
        "5831": 104,
        "5832": 225,
        "5833": 187,
        "5834": 246,
        "5835": 188,
        "5836": 209,
        "5837": 14,
        "5838": 129,
        "5839": 200,
        "5840": 180,
        "5841": 111,
        "5842": 156,
        "5843": 26,
        "5844": 112,
        "5845": 189,
        "5846": 74,
        "5847": 248,
        "5848": 122,
        "5849": 60,
        "5850": 79,
        "5851": 31,
        "5852": 12,
        "5853": 97,
        "5854": 25,
        "5855": 251,
        "5856": 252,
        "5857": 213,
        "5858": 54,
        "5859": 46,
        "5860": 206,
        "5861": 163,
        "5862": 240,
        "5863": 80,
        "5864": 88,
        "5865": 44,
        "5866": 140,
        "5867": 59,
        "5868": 173,
        "5869": 88,
        "5870": 109,
        "5871": 60,
        "5872": 255,
        "5873": 91,
        "5874": 98,
        "5875": 218,
        "5876": 30,
        "5877": 74,
        "5878": 46,
        "5879": 22,
        "5880": 58,
        "5881": 41,
        "5882": 199,
        "5883": 137,
        "5884": 13,
        "5885": 66,
        "5886": 131,
        "5887": 126,
        "5888": 230,
        "5889": 86,
        "5890": 61,
        "5891": 89,
        "5892": 174,
        "5893": 10,
        "5894": 140,
        "5895": 71,
        "5896": 231,
        "5897": 0,
        "5898": 49,
        "5899": 5,
        "5900": 239,
        "5901": 25,
        "5902": 47,
        "5903": 244,
        "5904": 221,
        "5905": 60,
        "5906": 165,
        "5907": 116,
        "5908": 95,
        "5909": 238,
        "5910": 248,
        "5911": 228,
        "5912": 127,
        "5913": 65,
        "5914": 220,
        "5915": 157,
        "5916": 185,
        "5917": 112,
        "5918": 28,
        "5919": 219,
        "5920": 207,
        "5921": 110,
        "5922": 158,
        "5923": 31,
        "5924": 231,
        "5925": 49,
        "5926": 213,
        "5927": 32,
        "5928": 241,
        "5929": 119,
        "5930": 0,
        "5931": 177,
        "5932": 144,
        "5933": 185,
        "5934": 22,
        "5935": 71,
        "5936": 38,
        "5937": 25,
        "5938": 240,
        "5939": 69,
        "5940": 73,
        "5941": 175,
        "5942": 250,
        "5943": 3,
        "5944": 123,
        "5945": 38,
        "5946": 183,
        "5947": 63,
        "5948": 68,
        "5949": 74,
        "5950": 138,
        "5951": 16,
        "5952": 19,
        "5953": 224,
        "5954": 161,
        "5955": 131,
        "5956": 213,
        "5957": 56,
        "5958": 66,
        "5959": 33,
        "5960": 104,
        "5961": 240,
        "5962": 74,
        "5963": 116,
        "5964": 203,
        "5965": 39,
        "5966": 225,
        "5967": 186,
        "5968": 181,
        "5969": 88,
        "5970": 247,
        "5971": 252,
        "5972": 103,
        "5973": 188,
        "5974": 216,
        "5975": 121,
        "5976": 106,
        "5977": 43,
        "5978": 137,
        "5979": 104,
        "5980": 12,
        "5981": 216,
        "5982": 134,
        "5983": 33,
        "5984": 57,
        "5985": 120,
        "5986": 164,
        "5987": 40,
        "5988": 46,
        "5989": 115,
        "5990": 182,
        "5991": 24,
        "5992": 151,
        "5993": 113,
        "5994": 71,
        "5995": 189,
        "5996": 255,
        "5997": 54,
        "5998": 23,
        "5999": 4,
        "6000": 172,
        "6001": 174,
        "6002": 213,
        "6003": 184,
        "6004": 187,
        "6005": 227,
        "6006": 178,
        "6007": 46,
        "6008": 183,
        "6009": 144,
        "6010": 237,
        "6011": 95,
        "6012": 182,
        "6013": 191,
        "6014": 93,
        "6015": 123,
        "6016": 228,
        "6017": 80,
        "6018": 208,
        "6019": 109,
        "6020": 99,
        "6021": 229,
        "6022": 253,
        "6023": 1,
        "6024": 31,
        "6025": 55,
        "6026": 134,
        "6027": 36,
        "6028": 39,
        "6029": 138,
        "6030": 203,
        "6031": 250,
        "6032": 4,
        "6033": 116,
        "6034": 36,
        "6035": 4,
        "6036": 153,
        "6037": 12,
        "6038": 169,
        "6039": 18,
        "6040": 133,
        "6041": 219,
        "6042": 175,
        "6043": 92,
        "6044": 229,
        "6045": 156,
        "6046": 133,
        "6047": 229,
        "6048": 172,
        "6049": 199,
        "6050": 193,
        "6051": 155,
        "6052": 155,
        "6053": 180,
        "6054": 30,
        "6055": 51,
        "6056": 86,
        "6057": 255,
        "6058": 222,
        "6059": 199,
        "6060": 128,
        "6061": 126,
        "6062": 97,
        "6063": 140,
        "6064": 142,
        "6065": 192,
        "6066": 118,
        "6067": 164,
        "6068": 88,
        "6069": 94,
        "6070": 204,
        "6071": 28,
        "6072": 218,
        "6073": 6,
        "6074": 161,
        "6075": 142,
        "6076": 34,
        "6077": 92,
        "6078": 242,
        "6079": 255,
        "6080": 185,
        "6081": 14,
        "6082": 228,
        "6083": 181,
        "6084": 224,
        "6085": 225,
        "6086": 194,
        "6087": 81,
        "6088": 41,
        "6089": 146,
        "6090": 242,
        "6091": 202,
        "6092": 162,
        "6093": 168,
        "6094": 202,
        "6095": 120,
        "6096": 6,
        "6097": 199,
        "6098": 35,
        "6099": 62,
        "6100": 162,
        "6101": 209,
        "6102": 169,
        "6103": 127,
        "6104": 67,
        "6105": 18,
        "6106": 59,
        "6107": 252,
        "6108": 203,
        "6109": 135,
        "6110": 253,
        "6111": 207,
        "6112": 17,
        "6113": 10,
        "6114": 69,
        "6115": 165,
        "6116": 129,
        "6117": 58,
        "6118": 174,
        "6119": 135,
        "6120": 59,
        "6121": 222,
        "6122": 245,
        "6123": 74,
        "6124": 95,
        "6125": 177,
        "6126": 39,
        "6127": 219,
        "6128": 115,
        "6129": 58,
        "6130": 73,
        "6131": 143,
        "6132": 128,
        "6133": 237,
        "6134": 187,
        "6135": 128,
        "6136": 111,
        "6137": 156,
        "6138": 158,
        "6139": 184,
        "6140": 247,
        "6141": 238,
        "6142": 192,
        "6143": 160,
        "6144": 99,
        "6145": 88,
        "6146": 56,
        "6147": 0,
        "6148": 30,
        "6149": 17,
        "6150": 33,
        "6151": 4,
        "6152": 127,
        "6153": 191,
        "6154": 168,
        "6155": 245,
        "6156": 230,
        "6157": 230,
        "6158": 148,
        "6159": 183,
        "6160": 128,
        "6161": 202,
        "6162": 183,
        "6163": 173,
        "6164": 253,
        "6165": 32,
        "6166": 184,
        "6167": 69,
        "6168": 74,
        "6169": 226,
        "6170": 117,
        "6171": 230,
        "6172": 244,
        "6173": 167,
        "6174": 129,
        "6175": 212,
        "6176": 53,
        "6177": 184,
        "6178": 41,
        "6179": 111,
        "6180": 7,
        "6181": 154,
        "6182": 227,
        "6183": 170,
        "6184": 33,
        "6185": 241,
        "6186": 221,
        "6187": 16,
        "6188": 224,
        "6189": 177,
        "6190": 173,
        "6191": 247,
        "6192": 223,
        "6193": 161,
        "6194": 141,
        "6195": 143,
        "6196": 228,
        "6197": 131,
        "6198": 235,
        "6199": 79,
        "6200": 236,
        "6201": 2,
        "6202": 59,
        "6203": 138,
        "6204": 55,
        "6205": 44,
        "6206": 119,
        "6207": 203,
        "6208": 106,
        "6209": 150,
        "6210": 148,
        "6211": 98,
        "6212": 172,
        "6213": 182,
        "6214": 75,
        "6215": 247,
        "6216": 157,
        "6217": 165,
        "6218": 72,
        "6219": 244,
        "6220": 178,
        "6221": 3,
        "6222": 8,
        "6223": 223,
        "6224": 117,
        "6225": 182,
        "6226": 52,
        "6227": 231,
        "6228": 146,
        "6229": 237,
        "6230": 34,
        "6231": 63,
        "6232": 203,
        "6233": 54,
        "6234": 46,
        "6235": 39,
        "6236": 11,
        "6237": 253,
        "6238": 97,
        "6239": 196,
        "6240": 247,
        "6241": 126,
        "6242": 183,
        "6243": 55,
        "6244": 106,
        "6245": 246,
        "6246": 6,
        "6247": 21,
        "6248": 83,
        "6249": 59,
        "6250": 77,
        "6251": 102,
        "6252": 238,
        "6253": 177,
        "6254": 162,
        "6255": 150,
        "6256": 240,
        "6257": 82,
        "6258": 211,
        "6259": 46,
        "6260": 65,
        "6261": 134,
        "6262": 176,
        "6263": 46,
        "6264": 211,
        "6265": 10,
        "6266": 106,
        "6267": 77,
        "6268": 141,
        "6269": 62,
        "6270": 143,
        "6271": 244,
        "6272": 245,
        "6273": 145,
        "6274": 33,
        "6275": 141,
        "6276": 159,
        "6277": 140,
        "6278": 34,
        "6279": 238,
        "6280": 14,
        "6281": 248,
        "6282": 231,
        "6283": 104,
        "6284": 130,
        "6285": 165,
        "6286": 213,
        "6287": 220,
        "6288": 150,
        "6289": 29,
        "6290": 157,
        "6291": 85,
        "6292": 110,
        "6293": 29,
        "6294": 89,
        "6295": 217,
        "6296": 172,
        "6297": 174,
        "6298": 10,
        "6299": 131,
        "6300": 151,
        "6301": 139,
        "6302": 159,
        "6303": 210,
        "6304": 47,
        "6305": 253,
        "6306": 252,
        "6307": 137,
        "6308": 118,
        "6309": 2,
        "6310": 6,
        "6311": 125,
        "6312": 228,
        "6313": 105,
        "6314": 142,
        "6315": 238,
        "6316": 114,
        "6317": 207,
        "6318": 115,
        "6319": 235,
        "6320": 84,
        "6321": 126,
        "6322": 40,
        "6323": 177,
        "6324": 242,
        "6325": 6,
        "6326": 11,
        "6327": 168,
        "6328": 166,
        "6329": 143,
        "6330": 87,
        "6331": 153,
        "6332": 23,
        "6333": 183,
        "6334": 150,
        "6335": 67,
        "6336": 49,
        "6337": 77,
        "6338": 77,
        "6339": 77,
        "6340": 29,
        "6341": 96,
        "6342": 255,
        "6343": 171,
        "6344": 215,
        "6345": 74,
        "6346": 146,
        "6347": 163,
        "6348": 181,
        "6349": 5,
        "6350": 250,
        "6351": 137,
        "6352": 251,
        "6353": 95,
        "6354": 116,
        "6355": 48,
        "6356": 49,
        "6357": 107,
        "6358": 43,
        "6359": 65,
        "6360": 106,
        "6361": 48,
        "6362": 67,
        "6363": 196,
        "6364": 218,
        "6365": 96,
        "6366": 45,
        "6367": 199,
        "6368": 17,
        "6369": 248,
        "6370": 180,
        "6371": 0,
        "6372": 160,
        "6373": 7,
        "6374": 64,
        "6375": 82,
        "6376": 192,
        "6377": 149,
        "6378": 133,
        "6379": 197,
        "6380": 24,
        "6381": 221,
        "6382": 92,
        "6383": 97,
        "6384": 57,
        "6385": 100,
        "6386": 251,
        "6387": 229,
        "6388": 85,
        "6389": 210,
        "6390": 226,
        "6391": 81,
        "6392": 206,
        "6393": 81,
        "6394": 39,
        "6395": 4,
        "6396": 161,
        "6397": 186,
        "6398": 105,
        "6399": 36,
        "6400": 136,
        "6401": 155,
        "6402": 82,
        "6403": 51,
        "6404": 212,
        "6405": 4,
        "6406": 214,
        "6407": 55,
        "6408": 224,
        "6409": 169,
        "6410": 255,
        "6411": 51,
        "6412": 254,
        "6413": 87,
        "6414": 230,
        "6415": 67,
        "6416": 252,
        "6417": 88,
        "6418": 186,
        "6419": 243,
        "6420": 40,
        "6421": 80,
        "6422": 2,
        "6423": 85,
        "6424": 234,
        "6425": 155,
        "6426": 228,
        "6427": 193,
        "6428": 193,
        "6429": 124,
        "6430": 133,
        "6431": 22,
        "6432": 95,
        "6433": 154,
        "6434": 100,
        "6435": 87,
        "6436": 111,
        "6437": 137,
        "6438": 212,
        "6439": 30,
        "6440": 35,
        "6441": 226,
        "6442": 127,
        "6443": 91,
        "6444": 11,
        "6445": 94,
        "6446": 107,
        "6447": 129,
        "6448": 58,
        "6449": 42,
        "6450": 207,
        "6451": 35,
        "6452": 111,
        "6453": 103,
        "6454": 79,
        "6455": 159,
        "6456": 102,
        "6457": 243,
        "6458": 169,
        "6459": 233,
        "6460": 148,
        "6461": 178,
        "6462": 1,
        "6463": 176,
        "6464": 83,
        "6465": 86,
        "6466": 101,
        "6467": 139,
        "6468": 40,
        "6469": 139,
        "6470": 19,
        "6471": 93,
        "6472": 58,
        "6473": 114,
        "6474": 233,
        "6475": 61,
        "6476": 228,
        "6477": 113,
        "6478": 246,
        "6479": 30,
        "6480": 231,
        "6481": 235,
        "6482": 234,
        "6483": 156,
        "6484": 244,
        "6485": 77,
        "6486": 82,
        "6487": 211,
        "6488": 8,
        "6489": 17,
        "6490": 247,
        "6491": 68,
        "6492": 204,
        "6493": 250,
        "6494": 139,
        "6495": 162,
        "6496": 52,
        "6497": 170,
        "6498": 90,
        "6499": 191,
        "6500": 7,
        "6501": 22,
        "6502": 247,
        "6503": 252,
        "6504": 194,
        "6505": 180,
        "6506": 190,
        "6507": 33,
        "6508": 249,
        "6509": 124,
        "6510": 105,
        "6511": 17,
        "6512": 32,
        "6513": 50,
        "6514": 78,
        "6515": 90,
        "6516": 72,
        "6517": 93,
        "6518": 75,
        "6519": 190,
        "6520": 123,
        "6521": 94,
        "6522": 120,
        "6523": 231,
        "6524": 154,
        "6525": 230,
        "6526": 108,
        "6527": 68,
        "6528": 40,
        "6529": 165,
        "6530": 124,
        "6531": 224,
        "6532": 158,
        "6533": 141,
        "6534": 148,
        "6535": 215,
        "6536": 117,
        "6537": 15,
        "6538": 198,
        "6539": 101,
        "6540": 181,
        "6541": 60,
        "6542": 223,
        "6543": 57,
        "6544": 254,
        "6545": 209,
        "6546": 80,
        "6547": 222,
        "6548": 212,
        "6549": 253,
        "6550": 246,
        "6551": 186,
        "6552": 2,
        "6553": 58,
        "6554": 67,
        "6555": 72,
        "6556": 250,
        "6557": 50,
        "6558": 38,
        "6559": 99,
        "6560": 101,
        "6561": 137,
        "6562": 50,
        "6563": 164,
        "6564": 136,
        "6565": 31,
        "6566": 114,
        "6567": 124,
        "6568": 195,
        "6569": 236,
        "6570": 202,
        "6571": 55,
        "6572": 119,
        "6573": 185,
        "6574": 218,
        "6575": 68,
        "6576": 130,
        "6577": 189,
        "6578": 145,
        "6579": 90,
        "6580": 29,
        "6581": 140,
        "6582": 99,
        "6583": 107,
        "6584": 45,
        "6585": 62,
        "6586": 44,
        "6587": 240,
        "6588": 215,
        "6589": 68,
        "6590": 73,
        "6591": 98,
        "6592": 198,
        "6593": 147,
        "6594": 0,
        "6595": 214,
        "6596": 44,
        "6597": 233,
        "6598": 254,
        "6599": 152,
        "6600": 35,
        "6601": 224,
        "6602": 14,
        "6603": 251,
        "6604": 20,
        "6605": 168,
        "6606": 174,
        "6607": 81,
        "6608": 183,
        "6609": 83,
        "6610": 162,
        "6611": 248,
        "6612": 3,
        "6613": 129,
        "6614": 7,
        "6615": 108,
        "6616": 220,
        "6617": 210,
        "6618": 119,
        "6619": 199,
        "6620": 149,
        "6621": 152,
        "6622": 52,
        "6623": 161,
        "6624": 115,
        "6625": 27,
        "6626": 232,
        "6627": 103,
        "6628": 210,
        "6629": 83,
        "6630": 124,
        "6631": 64,
        "6632": 150,
        "6633": 210,
        "6634": 247,
        "6635": 149,
        "6636": 95,
        "6637": 221,
        "6638": 93,
        "6639": 59,
        "6640": 87,
        "6641": 217,
        "6642": 30,
        "6643": 252,
        "6644": 177,
        "6645": 160,
        "6646": 177,
        "6647": 100,
        "6648": 245,
        "6649": 229,
        "6650": 173,
        "6651": 86,
        "6652": 112,
        "6653": 88,
        "6654": 159,
        "6655": 137,
        "6656": 33,
        "6657": 159,
        "6658": 10,
        "6659": 65,
        "6660": 216,
        "6661": 129,
        "6662": 59,
        "6663": 34,
        "6664": 217,
        "6665": 199,
        "6666": 117,
        "6667": 52,
        "6668": 14,
        "6669": 140,
        "6670": 96,
        "6671": 136,
        "6672": 148,
        "6673": 117,
        "6674": 87,
        "6675": 248,
        "6676": 72,
        "6677": 17,
        "6678": 64,
        "6679": 57,
        "6680": 151,
        "6681": 55,
        "6682": 76,
        "6683": 154,
        "6684": 5,
        "6685": 43,
        "6686": 121,
        "6687": 92,
        "6688": 21,
        "6689": 82,
        "6690": 139,
        "6691": 70,
        "6692": 24,
        "6693": 203,
        "6694": 156,
        "6695": 104,
        "6696": 144,
        "6697": 250,
        "6698": 213,
        "6699": 178,
        "6700": 68,
        "6701": 137,
        "6702": 75,
        "6703": 209,
        "6704": 223,
        "6705": 12,
        "6706": 35,
        "6707": 238,
        "6708": 64,
        "6709": 93,
        "6710": 127,
        "6711": 182,
        "6712": 42,
        "6713": 57,
        "6714": 143,
        "6715": 200,
        "6716": 70,
        "6717": 173,
        "6718": 255,
        "6719": 128,
        "6720": 56,
        "6721": 201,
        "6722": 63,
        "6723": 10,
        "6724": 6,
        "6725": 75,
        "6726": 199,
        "6727": 21,
        "6728": 92,
        "6729": 171,
        "6730": 226,
        "6731": 108,
        "6732": 173,
        "6733": 238,
        "6734": 76,
        "6735": 64,
        "6736": 138,
        "6737": 146,
        "6738": 25,
        "6739": 8,
        "6740": 213,
        "6741": 136,
        "6742": 92,
        "6743": 213,
        "6744": 75,
        "6745": 155,
        "6746": 190,
        "6747": 37,
        "6748": 81,
        "6749": 125,
        "6750": 107,
        "6751": 107,
        "6752": 202,
        "6753": 214,
        "6754": 12,
        "6755": 96,
        "6756": 157,
        "6757": 221,
        "6758": 149,
        "6759": 126,
        "6760": 93,
        "6761": 209,
        "6762": 90,
        "6763": 188,
        "6764": 174,
        "6765": 103,
        "6766": 112,
        "6767": 59,
        "6768": 117,
        "6769": 168,
        "6770": 164,
        "6771": 107,
        "6772": 215,
        "6773": 165,
        "6774": 177,
        "6775": 34,
        "6776": 18,
        "6777": 189,
        "6778": 240,
        "6779": 91,
        "6780": 151,
        "6781": 194,
        "6782": 178,
        "6783": 57,
        "6784": 221,
        "6785": 195,
        "6786": 60,
        "6787": 96,
        "6788": 117,
        "6789": 188,
        "6790": 178,
        "6791": 61,
        "6792": 7,
        "6793": 241,
        "6794": 181,
        "6795": 157,
        "6796": 175,
        "6797": 45,
        "6798": 89,
        "6799": 171,
        "6800": 19,
        "6801": 18,
        "6802": 115,
        "6803": 130,
        "6804": 124,
        "6805": 236,
        "6806": 175,
        "6807": 0,
        "6808": 213,
        "6809": 35,
        "6810": 78,
        "6811": 59,
        "6812": 143,
        "6813": 96,
        "6814": 239,
        "6815": 54,
        "6816": 230,
        "6817": 18,
        "6818": 127,
        "6819": 61,
        "6820": 171,
        "6821": 146,
        "6822": 206,
        "6823": 135,
        "6824": 134,
        "6825": 11,
        "6826": 15,
        "6827": 47,
        "6828": 103,
        "6829": 109,
        "6830": 245,
        "6831": 241,
        "6832": 73,
        "6833": 219,
        "6834": 228,
        "6835": 117,
        "6836": 190,
        "6837": 105,
        "6838": 1,
        "6839": 54,
        "6840": 130,
        "6841": 17,
        "6842": 115,
        "6843": 59,
        "6844": 58,
        "6845": 98,
        "6846": 229,
        "6847": 254,
        "6848": 117,
        "6849": 95,
        "6850": 247,
        "6851": 51,
        "6852": 152,
        "6853": 151,
        "6854": 66,
        "6855": 58,
        "6856": 225,
        "6857": 184,
        "6858": 53,
        "6859": 164,
        "6860": 15,
        "6861": 234,
        "6862": 222,
        "6863": 113,
        "6864": 15,
        "6865": 201,
        "6866": 64,
        "6867": 246,
        "6868": 219,
        "6869": 123,
        "6870": 185,
        "6871": 36,
        "6872": 66,
        "6873": 20,
        "6874": 251,
        "6875": 146,
        "6876": 223,
        "6877": 66,
        "6878": 39,
        "6879": 13,
        "6880": 37,
        "6881": 193,
        "6882": 152,
        "6883": 0,
        "6884": 196,
        "6885": 37,
        "6886": 174,
        "6887": 179,
        "6888": 198,
        "6889": 43,
        "6890": 6,
        "6891": 156,
        "6892": 111,
        "6893": 64,
        "6894": 198,
        "6895": 99,
        "6896": 244,
        "6897": 37,
        "6898": 142,
        "6899": 125,
        "6900": 48,
        "6901": 86,
        "6902": 126,
        "6903": 98,
        "6904": 74,
        "6905": 252,
        "6906": 27,
        "6907": 62,
        "6908": 137,
        "6909": 170,
        "6910": 10,
        "6911": 54,
        "6912": 48,
        "6913": 245,
        "6914": 209,
        "6915": 180,
        "6916": 59,
        "6917": 62,
        "6918": 152,
        "6919": 12,
        "6920": 79,
        "6921": 165,
        "6922": 215,
        "6923": 170,
        "6924": 133,
        "6925": 31,
        "6926": 185,
        "6927": 65,
        "6928": 201,
        "6929": 179,
        "6930": 132,
        "6931": 237,
        "6932": 16,
        "6933": 58,
        "6934": 245,
        "6935": 131,
        "6936": 226,
        "6937": 145,
        "6938": 202,
        "6939": 200,
        "6940": 135,
        "6941": 143,
        "6942": 0,
        "6943": 45,
        "6944": 190,
        "6945": 7,
        "6946": 186,
        "6947": 77,
        "6948": 49,
        "6949": 128,
        "6950": 220,
        "6951": 178,
        "6952": 244,
        "6953": 102,
        "6954": 247,
        "6955": 238,
        "6956": 95,
        "6957": 66,
        "6958": 37,
        "6959": 149,
        "6960": 212,
        "6961": 61,
        "6962": 108,
        "6963": 29,
        "6964": 42,
        "6965": 93,
        "6966": 64,
        "6967": 37,
        "6968": 78,
        "6969": 123,
        "6970": 178,
        "6971": 228,
        "6972": 194,
        "6973": 159,
        "6974": 163,
        "6975": 76,
        "6976": 24,
        "6977": 220,
        "6978": 102,
        "6979": 104,
        "6980": 136,
        "6981": 128,
        "6982": 198,
        "6983": 143,
        "6984": 97,
        "6985": 121,
        "6986": 128,
        "6987": 129,
        "6988": 23,
        "6989": 81,
        "6990": 139,
        "6991": 29,
        "6992": 245,
        "6993": 178,
        "6994": 184,
        "6995": 235,
        "6996": 40,
        "6997": 190,
        "6998": 50,
        "6999": 126,
        "7000": 140,
        "7001": 31,
        "7002": 42,
        "7003": 93,
        "7004": 181,
        "7005": 98,
        "7006": 203,
        "7007": 66,
        "7008": 162,
        "7009": 133,
        "7010": 205,
        "7011": 113,
        "7012": 44,
        "7013": 238,
        "7014": 13,
        "7015": 59,
        "7016": 150,
        "7017": 82,
        "7018": 188,
        "7019": 129,
        "7020": 15,
        "7021": 222,
        "7022": 34,
        "7023": 45,
        "7024": 52,
        "7025": 223,
        "7026": 138,
        "7027": 229,
        "7028": 144,
        "7029": 28,
        "7030": 151,
        "7031": 0,
        "7032": 176,
        "7033": 248,
        "7034": 7,
        "7035": 207,
        "7036": 199,
        "7037": 130,
        "7038": 148,
        "7039": 44,
        "7040": 20,
        "7041": 135,
        "7042": 2,
        "7043": 115,
        "7044": 103,
        "7045": 183,
        "7046": 180,
        "7047": 48,
        "7048": 60,
        "7049": 47,
        "7050": 224,
        "7051": 134,
        "7052": 19,
        "7053": 56,
        "7054": 14,
        "7055": 22,
        "7056": 213,
        "7057": 119,
        "7058": 33,
        "7059": 66,
        "7060": 11,
        "7061": 44,
        "7062": 223,
        "7063": 43,
        "7064": 114,
        "7065": 160,
        "7066": 129,
        "7067": 61,
        "7068": 36,
        "7069": 63,
        "7070": 52,
        "7071": 232,
        "7072": 95,
        "7073": 178,
        "7074": 165,
        "7075": 217,
        "7076": 141,
        "7077": 66,
        "7078": 196,
        "7079": 151,
        "7080": 42,
        "7081": 59,
        "7082": 136,
        "7083": 125,
        "7084": 22,
        "7085": 112,
        "7086": 255,
        "7087": 72,
        "7088": 146,
        "7089": 181,
        "7090": 3,
        "7091": 136,
        "7092": 37,
        "7093": 41,
        "7094": 185,
        "7095": 92,
        "7096": 166,
        "7097": 143,
        "7098": 227,
        "7099": 173,
        "7100": 71,
        "7101": 199,
        "7102": 47,
        "7103": 189,
        "7104": 177,
        "7105": 49,
        "7106": 182,
        "7107": 2,
        "7108": 114,
        "7109": 181,
        "7110": 172,
        "7111": 56,
        "7112": 175,
        "7113": 85,
        "7114": 25,
        "7115": 116,
        "7116": 22,
        "7117": 15,
        "7118": 130,
        "7119": 83,
        "7120": 133,
        "7121": 227,
        "7122": 155,
        "7123": 127,
        "7124": 151,
        "7125": 90,
        "7126": 23,
        "7127": 188,
        "7128": 77,
        "7129": 99,
        "7130": 125,
        "7131": 53,
        "7132": 22,
        "7133": 224,
        "7134": 7,
        "7135": 10,
        "7136": 121,
        "7137": 105,
        "7138": 232,
        "7139": 115,
        "7140": 52,
        "7141": 72,
        "7142": 74,
        "7143": 174,
        "7144": 145,
        "7145": 37,
        "7146": 36,
        "7147": 42,
        "7148": 147,
        "7149": 17,
        "7150": 84,
        "7151": 201,
        "7152": 205,
        "7153": 97,
        "7154": 1,
        "7155": 61,
        "7156": 55,
        "7157": 7,
        "7158": 236,
        "7159": 160,
        "7160": 213,
        "7161": 25,
        "7162": 50,
        "7163": 127,
        "7164": 57,
        "7165": 4,
        "7166": 17,
        "7167": 168,
        "7168": 193,
        "7169": 209,
        "7170": 221,
        "7171": 50,
        "7172": 241,
        "7173": 255,
        "7174": 178,
        "7175": 141,
        "7176": 136,
        "7177": 130,
        "7178": 33,
        "7179": 97,
        "7180": 34,
        "7181": 120,
        "7182": 118,
        "7183": 142,
        "7184": 48,
        "7185": 232,
        "7186": 167,
        "7187": 214,
        "7188": 97,
        "7189": 12,
        "7190": 39,
        "7191": 45,
        "7192": 13,
        "7193": 202,
        "7194": 121,
        "7195": 162,
        "7196": 227,
        "7197": 137,
        "7198": 65,
        "7199": 134,
        "7200": 16,
        "7201": 138,
        "7202": 173,
        "7203": 95,
        "7204": 41,
        "7205": 210,
        "7206": 252,
        "7207": 141,
        "7208": 9,
        "7209": 141,
        "7210": 36,
        "7211": 85,
        "7212": 48,
        "7213": 59,
        "7214": 186,
        "7215": 92,
        "7216": 59,
        "7217": 23,
        "7218": 119,
        "7219": 18,
        "7220": 111,
        "7221": 106,
        "7222": 93,
        "7223": 68,
        "7224": 105,
        "7225": 183,
        "7226": 141,
        "7227": 149,
        "7228": 189,
        "7229": 146,
        "7230": 106,
        "7231": 219,
        "7232": 193,
        "7233": 171,
        "7234": 108,
        "7235": 155,
        "7236": 213,
        "7237": 41,
        "7238": 227,
        "7239": 230,
        "7240": 185,
        "7241": 115,
        "7242": 114,
        "7243": 43,
        "7244": 250,
        "7245": 72,
        "7246": 50,
        "7247": 250,
        "7248": 139,
        "7249": 90,
        "7250": 237,
        "7251": 119,
        "7252": 235,
        "7253": 109,
        "7254": 87,
        "7255": 171,
        "7256": 102,
        "7257": 81,
        "7258": 102,
        "7259": 224,
        "7260": 244,
        "7261": 252,
        "7262": 94,
        "7263": 225,
        "7264": 143,
        "7265": 177,
        "7266": 111,
        "7267": 170,
        "7268": 114,
        "7269": 225,
        "7270": 7,
        "7271": 17,
        "7272": 195,
        "7273": 152,
        "7274": 210,
        "7275": 121,
        "7276": 173,
        "7277": 229,
        "7278": 59,
        "7279": 101,
        "7280": 132,
        "7281": 234,
        "7282": 24,
        "7283": 83,
        "7284": 59,
        "7285": 37,
        "7286": 118,
        "7287": 180,
        "7288": 206,
        "7289": 27,
        "7290": 65,
        "7291": 128,
        "7292": 2,
        "7293": 6,
        "7294": 82,
        "7295": 22,
        "7296": 173,
        "7297": 38,
        "7298": 43,
        "7299": 111,
        "7300": 82,
        "7301": 113,
        "7302": 32,
        "7303": 92,
        "7304": 140,
        "7305": 239,
        "7306": 224,
        "7307": 74,
        "7308": 177,
        "7309": 150,
        "7310": 125,
        "7311": 231,
        "7312": 123,
        "7313": 113,
        "7314": 48,
        "7315": 28,
        "7316": 233,
        "7317": 78,
        "7318": 240,
        "7319": 194,
        "7320": 214,
        "7321": 63,
        "7322": 6,
        "7323": 106,
        "7324": 126,
        "7325": 203,
        "7326": 91,
        "7327": 226,
        "7328": 204,
        "7329": 221,
        "7330": 127,
        "7331": 222,
        "7332": 243,
        "7333": 18,
        "7334": 215,
        "7335": 133,
        "7336": 0,
        "7337": 28,
        "7338": 192,
        "7339": 84,
        "7340": 2,
        "7341": 88,
        "7342": 63,
        "7343": 183,
        "7344": 126,
        "7345": 11,
        "7346": 166,
        "7347": 44,
        "7348": 208,
        "7349": 239,
        "7350": 107,
        "7351": 96,
        "7352": 115,
        "7353": 40,
        "7354": 126,
        "7355": 158,
        "7356": 72,
        "7357": 170,
        "7358": 216,
        "7359": 123,
        "7360": 131,
        "7361": 73,
        "7362": 182,
        "7363": 82,
        "7364": 109,
        "7365": 141,
        "7366": 38,
        "7367": 237,
        "7368": 72,
        "7369": 113,
        "7370": 79,
        "7371": 162,
        "7372": 81,
        "7373": 68,
        "7374": 199,
        "7375": 26,
        "7376": 0,
        "7377": 203,
        "7378": 245,
        "7379": 62,
        "7380": 55,
        "7381": 57,
        "7382": 218,
        "7383": 247,
        "7384": 205,
        "7385": 170,
        "7386": 87,
        "7387": 150,
        "7388": 106,
        "7389": 67,
        "7390": 108,
        "7391": 155,
        "7392": 82,
        "7393": 73,
        "7394": 140,
        "7395": 200,
        "7396": 81,
        "7397": 158,
        "7398": 148,
        "7399": 162,
        "7400": 161,
        "7401": 117,
        "7402": 129,
        "7403": 239,
        "7404": 245,
        "7405": 48,
        "7406": 190,
        "7407": 42,
        "7408": 226,
        "7409": 38,
        "7410": 100,
        "7411": 246,
        "7412": 239,
        "7413": 174,
        "7414": 76,
        "7415": 55,
        "7416": 232,
        "7417": 160,
        "7418": 53,
        "7419": 185,
        "7420": 232,
        "7421": 12,
        "7422": 192,
        "7423": 20,
        "7424": 75,
        "7425": 64,
        "7426": 202,
        "7427": 64,
        "7428": 128,
        "7429": 112,
        "7430": 161,
        "7431": 81,
        "7432": 38,
        "7433": 151,
        "7434": 179,
        "7435": 216,
        "7436": 118,
        "7437": 138,
        "7438": 202,
        "7439": 25,
        "7440": 22,
        "7441": 93,
        "7442": 168,
        "7443": 149,
        "7444": 80,
        "7445": 17,
        "7446": 61,
        "7447": 151,
        "7448": 234,
        "7449": 217,
        "7450": 65,
        "7451": 18,
        "7452": 221,
        "7453": 92,
        "7454": 137,
        "7455": 182,
        "7456": 179,
        "7457": 113,
        "7458": 130,
        "7459": 237,
        "7460": 177,
        "7461": 229,
        "7462": 157,
        "7463": 198,
        "7464": 247,
        "7465": 99,
        "7466": 205,
        "7467": 12,
        "7468": 49,
        "7469": 203,
        "7470": 223,
        "7471": 107,
        "7472": 248,
        "7473": 122,
        "7474": 193,
        "7475": 127,
        "7476": 239,
        "7477": 148,
        "7478": 154,
        "7479": 89,
        "7480": 63,
        "7481": 123,
        "7482": 41,
        "7483": 123,
        "7484": 183,
        "7485": 100,
        "7486": 190,
        "7487": 136,
        "7488": 91,
        "7489": 241,
        "7490": 87,
        "7491": 182,
        "7492": 204,
        "7493": 230,
        "7494": 129,
        "7495": 96,
        "7496": 161,
        "7497": 177,
        "7498": 254,
        "7499": 218,
        "7500": 136,
        "7501": 101,
        "7502": 15,
        "7503": 200,
        "7504": 101,
        "7505": 146,
        "7506": 245,
        "7507": 165,
        "7508": 215,
        "7509": 8,
        "7510": 59,
        "7511": 86,
        "7512": 230,
        "7513": 46,
        "7514": 150,
        "7515": 59,
        "7516": 127,
        "7517": 35,
        "7518": 238,
        "7519": 209,
        "7520": 139,
        "7521": 135,
        "7522": 249,
        "7523": 172,
        "7524": 118,
        "7525": 181,
        "7526": 216,
        "7527": 71,
        "7528": 72,
        "7529": 89,
        "7530": 191,
        "7531": 61,
        "7532": 59,
        "7533": 14,
        "7534": 66,
        "7535": 148,
        "7536": 84,
        "7537": 140,
        "7538": 163,
        "7539": 102,
        "7540": 251,
        "7541": 22,
        "7542": 5,
        "7543": 182,
        "7544": 115,
        "7545": 62,
        "7546": 13,
        "7547": 125,
        "7548": 122,
        "7549": 203,
        "7550": 117,
        "7551": 47,
        "7552": 146,
        "7553": 181,
        "7554": 246,
        "7555": 66,
        "7556": 90,
        "7557": 66,
        "7558": 61,
        "7559": 137,
        "7560": 130,
        "7561": 135,
        "7562": 138,
        "7563": 207,
        "7564": 144,
        "7565": 242,
        "7566": 10,
        "7567": 183,
        "7568": 91,
        "7569": 2,
        "7570": 146,
        "7571": 141,
        "7572": 148,
        "7573": 129,
        "7574": 30,
        "7575": 41,
        "7576": 168,
        "7577": 179,
        "7578": 225,
        "7579": 184,
        "7580": 218,
        "7581": 212,
        "7582": 19,
        "7583": 96,
        "7584": 173,
        "7585": 173,
        "7586": 30,
        "7587": 128,
        "7588": 203,
        "7589": 249,
        "7590": 148,
        "7591": 129,
        "7592": 220,
        "7593": 221,
        "7594": 174,
        "7595": 60,
        "7596": 65,
        "7597": 70,
        "7598": 153,
        "7599": 47,
        "7600": 225,
        "7601": 170,
        "7602": 246,
        "7603": 211,
        "7604": 42,
        "7605": 37,
        "7606": 59,
        "7607": 105,
        "7608": 80,
        "7609": 81,
        "7610": 14,
        "7611": 54,
        "7612": 24,
        "7613": 236,
        "7614": 98,
        "7615": 208,
        "7616": 249,
        "7617": 41,
        "7618": 49,
        "7619": 53,
        "7620": 103,
        "7621": 18,
        "7622": 141,
        "7623": 171,
        "7624": 128,
        "7625": 164,
        "7626": 159,
        "7627": 221,
        "7628": 75,
        "7629": 197,
        "7630": 105,
        "7631": 240,
        "7632": 136,
        "7633": 135,
        "7634": 74,
        "7635": 122,
        "7636": 42,
        "7637": 243,
        "7638": 56,
        "7639": 63,
        "7640": 178,
        "7641": 70,
        "7642": 160,
        "7643": 9,
        "7644": 143,
        "7645": 27,
        "7646": 114,
        "7647": 37,
        "7648": 225,
        "7649": 114,
        "7650": 239,
        "7651": 220,
        "7652": 190,
        "7653": 249,
        "7654": 41,
        "7655": 194,
        "7656": 152,
        "7657": 51,
        "7658": 226,
        "7659": 247,
        "7660": 236,
        "7661": 187,
        "7662": 176,
        "7663": 139,
        "7664": 150,
        "7665": 67,
        "7666": 86,
        "7667": 67,
        "7668": 100,
        "7669": 168,
        "7670": 212,
        "7671": 188,
        "7672": 106,
        "7673": 33,
        "7674": 12,
        "7675": 27,
        "7676": 233,
        "7677": 157,
        "7678": 165,
        "7679": 107,
        "7680": 204,
        "7681": 198,
        "7682": 214,
        "7683": 145,
        "7684": 44,
        "7685": 247,
        "7686": 40,
        "7687": 154,
        "7688": 169,
        "7689": 177,
        "7690": 26,
        "7691": 138,
        "7692": 73,
        "7693": 15,
        "7694": 201,
        "7695": 6,
        "7696": 43,
        "7697": 129,
        "7698": 236,
        "7699": 195,
        "7700": 49,
        "7701": 16,
        "7702": 194,
        "7703": 106,
        "7704": 240,
        "7705": 12,
        "7706": 38,
        "7707": 181,
        "7708": 42,
        "7709": 107,
        "7710": 32,
        "7711": 254,
        "7712": 79,
        "7713": 165,
        "7714": 133,
        "7715": 61,
        "7716": 17,
        "7717": 237,
        "7718": 30,
        "7719": 164,
        "7720": 206,
        "7721": 95,
        "7722": 101,
        "7723": 94,
        "7724": 218,
        "7725": 161,
        "7726": 151,
        "7727": 92,
        "7728": 126,
        "7729": 135,
        "7730": 54,
        "7731": 235,
        "7732": 123,
        "7733": 233,
        "7734": 78,
        "7735": 113,
        "7736": 19,
        "7737": 160,
        "7738": 233,
        "7739": 144,
        "7740": 38,
        "7741": 113,
        "7742": 247,
        "7743": 47,
        "7744": 116,
        "7745": 4,
        "7746": 32,
        "7747": 235,
        "7748": 12,
        "7749": 35,
        "7750": 64,
        "7751": 247,
        "7752": 107,
        "7753": 123,
        "7754": 76,
        "7755": 81,
        "7756": 178,
        "7757": 157,
        "7758": 227,
        "7759": 84,
        "7760": 154,
        "7761": 193,
        "7762": 152,
        "7763": 73,
        "7764": 98,
        "7765": 120,
        "7766": 81,
        "7767": 196,
        "7768": 60,
        "7769": 36,
        "7770": 197,
        "7771": 8,
        "7772": 55,
        "7773": 254,
        "7774": 119,
        "7775": 54,
        "7776": 136,
        "7777": 195,
        "7778": 209,
        "7779": 130,
        "7780": 208,
        "7781": 134,
        "7782": 17,
        "7783": 121,
        "7784": 146,
        "7785": 142,
        "7786": 216,
        "7787": 219,
        "7788": 34,
        "7789": 91,
        "7790": 110,
        "7791": 233,
        "7792": 34,
        "7793": 134,
        "7794": 213,
        "7795": 5,
        "7796": 227,
        "7797": 77,
        "7798": 124,
        "7799": 239,
        "7800": 254,
        "7801": 202,
        "7802": 165,
        "7803": 156,
        "7804": 97,
        "7805": 224,
        "7806": 85,
        "7807": 153,
        "7808": 126,
        "7809": 49,
        "7810": 70,
        "7811": 51,
        "7812": 142,
        "7813": 161,
        "7814": 53,
        "7815": 151,
        "7816": 74,
        "7817": 10,
        "7818": 40,
        "7819": 58,
        "7820": 92,
        "7821": 180,
        "7822": 146,
        "7823": 220,
        "7824": 212,
        "7825": 216,
        "7826": 190,
        "7827": 162,
        "7828": 146,
        "7829": 218,
        "7830": 179,
        "7831": 198,
        "7832": 212,
        "7833": 54,
        "7834": 81,
        "7835": 4,
        "7836": 85,
        "7837": 246,
        "7838": 132,
        "7839": 187,
        "7840": 178,
        "7841": 239,
        "7842": 16,
        "7843": 172,
        "7844": 4,
        "7845": 213,
        "7846": 37,
        "7847": 171,
        "7848": 11,
        "7849": 253,
        "7850": 158,
        "7851": 125,
        "7852": 79,
        "7853": 221,
        "7854": 170,
        "7855": 89,
        "7856": 232,
        "7857": 244,
        "7858": 3,
        "7859": 146,
        "7860": 240,
        "7861": 50,
        "7862": 233,
        "7863": 210,
        "7864": 247,
        "7865": 100,
        "7866": 142,
        "7867": 80,
        "7868": 221,
        "7869": 224,
        "7870": 198,
        "7871": 217,
        "7872": 46,
        "7873": 176,
        "7874": 70,
        "7875": 127,
        "7876": 100,
        "7877": 8,
        "7878": 168,
        "7879": 139,
        "7880": 253,
        "7881": 142,
        "7882": 162,
        "7883": 112,
        "7884": 17,
        "7885": 57,
        "7886": 114,
        "7887": 254,
        "7888": 153,
        "7889": 78,
        "7890": 229,
        "7891": 216,
        "7892": 210,
        "7893": 2,
        "7894": 224,
        "7895": 149,
        "7896": 241,
        "7897": 240,
        "7898": 217,
        "7899": 86,
        "7900": 41,
        "7901": 144,
        "7902": 210,
        "7903": 220,
        "7904": 49,
        "7905": 176,
        "7906": 250,
        "7907": 163,
        "7908": 165,
        "7909": 8,
        "7910": 1,
        "7911": 237,
        "7912": 169,
        "7913": 179,
        "7914": 158,
        "7915": 239,
        "7916": 43,
        "7917": 29,
        "7918": 95,
        "7919": 67,
        "7920": 34,
        "7921": 68,
        "7922": 23,
        "7923": 26,
        "7924": 148,
        "7925": 189,
        "7926": 12,
        "7927": 95,
        "7928": 168,
        "7929": 250,
        "7930": 134,
        "7931": 40,
        "7932": 123,
        "7933": 88,
        "7934": 170,
        "7935": 8,
        "7936": 92,
        "7937": 128,
        "7938": 11,
        "7939": 230,
        "7940": 8,
        "7941": 96,
        "7942": 237,
        "7943": 23,
        "7944": 132,
        "7945": 253,
        "7946": 65,
        "7947": 120,
        "7948": 143,
        "7949": 234,
        "7950": 117,
        "7951": 105,
        "7952": 52,
        "7953": 125,
        "7954": 101,
        "7955": 35,
        "7956": 39,
        "7957": 117,
        "7958": 167,
        "7959": 28,
        "7960": 200,
        "7961": 60,
        "7962": 224,
        "7963": 22,
        "7964": 144,
        "7965": 2,
        "7966": 32,
        "7967": 169,
        "7968": 6,
        "7969": 128,
        "7970": 136,
        "7971": 169,
        "7972": 142,
        "7973": 34,
        "7974": 84,
        "7975": 161,
        "7976": 119,
        "7977": 190,
        "7978": 156,
        "7979": 96,
        "7980": 143,
        "7981": 248,
        "7982": 157,
        "7983": 38,
        "7984": 67,
        "7985": 209,
        "7986": 174,
        "7987": 147,
        "7988": 9,
        "7989": 206,
        "7990": 195,
        "7991": 219,
        "7992": 73,
        "7993": 186,
        "7994": 252,
        "7995": 96,
        "7996": 152,
        "7997": 89,
        "7998": 121,
        "7999": 211,
        "8000": 97,
        "8001": 231,
        "8002": 17,
        "8003": 249,
        "8004": 145,
        "8005": 35,
        "8006": 255,
        "8007": 175,
        "8008": 168,
        "8009": 204,
        "8010": 208,
        "8011": 173,
        "8012": 145,
        "8013": 2,
        "8014": 141,
        "8015": 225,
        "8016": 222,
        "8017": 214,
        "8018": 63,
        "8019": 248,
        "8020": 242,
        "8021": 51,
        "8022": 208,
        "8023": 105,
        "8024": 137,
        "8025": 130,
        "8026": 154,
        "8027": 0,
        "8028": 183,
        "8029": 96,
        "8030": 97,
        "8031": 93,
        "8032": 84,
        "8033": 138,
        "8034": 134,
        "8035": 113,
        "8036": 172,
        "8037": 114,
        "8038": 159,
        "8039": 203,
        "8040": 190,
        "8041": 153,
        "8042": 203,
        "8043": 46,
        "8044": 12,
        "8045": 25,
        "8046": 70,
        "8047": 70,
        "8048": 246,
        "8049": 154,
        "8050": 235,
        "8051": 238,
        "8052": 45,
        "8053": 204,
        "8054": 242,
        "8055": 0,
        "8056": 61,
        "8057": 69,
        "8058": 242,
        "8059": 224,
        "8060": 73,
        "8061": 137,
        "8062": 130,
        "8063": 98,
        "8064": 57,
        "8065": 144,
        "8066": 217,
        "8067": 135,
        "8068": 227,
        "8069": 242,
        "8070": 249,
        "8071": 200,
        "8072": 107,
        "8073": 199,
        "8074": 171,
        "8075": 158,
        "8076": 239,
        "8077": 62,
        "8078": 39,
        "8079": 86,
        "8080": 104,
        "8081": 178,
        "8082": 240,
        "8083": 149,
        "8084": 95,
        "8085": 38,
        "8086": 214,
        "8087": 68,
        "8088": 139,
        "8089": 190,
        "8090": 175,
        "8091": 120,
        "8092": 210,
        "8093": 225,
        "8094": 212,
        "8095": 121,
        "8096": 150,
        "8097": 177,
        "8098": 146,
        "8099": 247,
        "8100": 79,
        "8101": 35,
        "8102": 64,
        "8103": 1,
        "8104": 71,
        "8105": 229,
        "8106": 92,
        "8107": 154,
        "8108": 135,
        "8109": 45,
        "8110": 39,
        "8111": 165,
        "8112": 81,
        "8113": 103,
        "8114": 201,
        "8115": 198,
        "8116": 192,
        "8117": 219,
        "8118": 14,
        "8119": 129,
        "8120": 163,
        "8121": 35,
        "8122": 41,
        "8123": 141,
        "8124": 126,
        "8125": 127,
        "8126": 253,
        "8127": 10,
        "8128": 111,
        "8129": 149,
        "8130": 45,
        "8131": 206,
        "8132": 217,
        "8133": 237,
        "8134": 73,
        "8135": 117,
        "8136": 61,
        "8137": 229,
        "8138": 50,
        "8139": 65,
        "8140": 5,
        "8141": 138,
        "8142": 116,
        "8143": 230,
        "8144": 95,
        "8145": 8,
        "8146": 24,
        "8147": 97,
        "8148": 142,
        "8149": 179,
        "8150": 43,
        "8151": 121,
        "8152": 138,
        "8153": 85,
        "8154": 178,
        "8155": 116,
        "8156": 47,
        "8157": 100,
        "8158": 114,
        "8159": 148,
        "8160": 239,
        "8161": 135,
        "8162": 163,
        "8163": 91,
        "8164": 148,
        "8165": 172,
        "8166": 35,
        "8167": 142,
        "8168": 111,
        "8169": 19,
        "8170": 170,
        "8171": 89,
        "8172": 208,
        "8173": 231,
        "8174": 65,
        "8175": 84,
        "8176": 7,
        "8177": 181,
        "8178": 225,
        "8179": 24,
        "8180": 153,
        "8181": 142,
        "8182": 32,
        "8183": 8,
        "8184": 16,
        "8185": 179,
        "8186": 6,
        "8187": 27,
        "8188": 146,
        "8189": 108,
        "8190": 47,
        "8191": 177,
        "8192": 69,
        "8193": 7,
        "8194": 25,
        "8195": 81,
        "8196": 58,
        "8197": 219,
        "8198": 26,
        "8199": 6,
        "8200": 222,
        "8201": 189,
        "8202": 153,
        "8203": 176,
        "8204": 153,
        "8205": 79,
        "8206": 247,
        "8207": 213,
        "8208": 139,
        "8209": 253,
        "8210": 150,
        "8211": 66,
        "8212": 104,
        "8213": 96,
        "8214": 139,
        "8215": 250,
        "8216": 249,
        "8217": 44,
        "8218": 48,
        "8219": 176,
        "8220": 137,
        "8221": 200,
        "8222": 61,
        "8223": 165,
        "8224": 217,
        "8225": 134,
        "8226": 176,
        "8227": 90,
        "8228": 26,
        "8229": 55,
        "8230": 24,
        "8231": 2,
        "8232": 115,
        "8233": 211,
        "8234": 63,
        "8235": 181,
        "8236": 217,
        "8237": 255,
        "8238": 174,
        "8239": 219,
        "8240": 166,
        "8241": 174,
        "8242": 166,
        "8243": 250,
        "8244": 22,
        "8245": 3,
        "8246": 209,
        "8247": 200,
        "8248": 77,
        "8249": 228,
        "8250": 122,
        "8251": 165,
        "8252": 195,
        "8253": 100,
        "8254": 139,
        "8255": 229,
        "8256": 174,
        "8257": 76,
        "8258": 191,
        "8259": 121,
        "8260": 159,
        "8261": 93,
        "8262": 168,
        "8263": 127,
        "8264": 36,
        "8265": 75,
        "8266": 5,
        "8267": 73,
        "8268": 22,
        "8269": 33,
        "8270": 113,
        "8271": 88,
        "8272": 221,
        "8273": 236,
        "8274": 54,
        "8275": 126,
        "8276": 118,
        "8277": 155,
        "8278": 234,
        "8279": 77,
        "8280": 252,
        "8281": 189,
        "8282": 61,
        "8283": 198,
        "8284": 29,
        "8285": 112,
        "8286": 55,
        "8287": 247,
        "8288": 67,
        "8289": 198,
        "8290": 70,
        "8291": 225,
        "8292": 159,
        "8293": 191,
        "8294": 50,
        "8295": 134,
        "8296": 149,
        "8297": 212,
        "8298": 130,
        "8299": 239,
        "8300": 225,
        "8301": 177,
        "8302": 143,
        "8303": 102,
        "8304": 127,
        "8305": 234,
        "8306": 16,
        "8307": 247,
        "8308": 70,
        "8309": 139,
        "8310": 27,
        "8311": 119,
        "8312": 177,
        "8313": 54,
        "8314": 90,
        "8315": 163,
        "8316": 179,
        "8317": 45,
        "8318": 202,
        "8319": 116,
        "8320": 66,
        "8321": 210,
        "8322": 165,
        "8323": 35,
        "8324": 164,
        "8325": 152,
        "8326": 116,
        "8327": 217,
        "8328": 215,
        "8329": 194,
        "8330": 109,
        "8331": 228,
        "8332": 30,
        "8333": 242,
        "8334": 99,
        "8335": 126,
        "8336": 83,
        "8337": 25,
        "8338": 199,
        "8339": 5,
        "8340": 143,
        "8341": 189,
        "8342": 250,
        "8343": 228,
        "8344": 85,
        "8345": 125,
        "8346": 167,
        "8347": 202,
        "8348": 204,
        "8349": 18,
        "8350": 189,
        "8351": 217,
        "8352": 30,
        "8353": 172,
        "8354": 246,
        "8355": 5,
        "8356": 110,
        "8357": 119,
        "8358": 132,
        "8359": 22,
        "8360": 72,
        "8361": 79,
        "8362": 159,
        "8363": 136,
        "8364": 210,
        "8365": 28,
        "8366": 252,
        "8367": 226,
        "8368": 61,
        "8369": 9,
        "8370": 33,
        "8371": 197,
        "8372": 83,
        "8373": 15,
        "8374": 250,
        "8375": 209,
        "8376": 198,
        "8377": 71,
        "8378": 23,
        "8379": 18,
        "8380": 76,
        "8381": 154,
        "8382": 24,
        "8383": 114,
        "8384": 198,
        "8385": 230,
        "8386": 28,
        "8387": 163,
        "8388": 80,
        "8389": 238,
        "8390": 121,
        "8391": 26,
        "8392": 143,
        "8393": 111,
        "8394": 229,
        "8395": 89,
        "8396": 132,
        "8397": 92,
        "8398": 92,
        "8399": 42,
        "8400": 184,
        "8401": 172,
        "8402": 88,
        "8403": 210,
        "8404": 33,
        "8405": 183,
        "8406": 212,
        "8407": 233,
        "8408": 234,
        "8409": 55,
        "8410": 104,
        "8411": 76,
        "8412": 111,
        "8413": 82,
        "8414": 38,
        "8415": 84,
        "8416": 101,
        "8417": 157,
        "8418": 0,
        "8419": 184,
        "8420": 133,
        "8421": 212,
        "8422": 41,
        "8423": 68,
        "8424": 175,
        "8425": 88,
        "8426": 103,
        "8427": 113,
        "8428": 109,
        "8429": 62,
        "8430": 255,
        "8431": 128,
        "8432": 175,
        "8433": 64,
        "8434": 149,
        "8435": 165,
        "8436": 201,
        "8437": 146,
        "8438": 195,
        "8439": 213,
        "8440": 53,
        "8441": 198,
        "8442": 246,
        "8443": 3,
        "8444": 121,
        "8445": 71,
        "8446": 105,
        "8447": 148,
        "8448": 196,
        "8449": 58,
        "8450": 104,
        "8451": 55,
        "8452": 170,
        "8453": 146,
        "8454": 14,
        "8455": 119,
        "8456": 62,
        "8457": 181,
        "8458": 135,
        "8459": 115,
        "8460": 4,
        "8461": 52,
        "8462": 114,
        "8463": 172,
        "8464": 216,
        "8465": 140,
        "8466": 216,
        "8467": 62,
        "8468": 230,
        "8469": 216,
        "8470": 218,
        "8471": 101,
        "8472": 1,
        "8473": 188,
        "8474": 66,
        "8475": 31,
        "8476": 171,
        "8477": 111,
        "8478": 201,
        "8479": 254,
        "8480": 247,
        "8481": 237,
        "8482": 89,
        "8483": 58,
        "8484": 205,
        "8485": 83,
        "8486": 3,
        "8487": 57,
        "8488": 43,
        "8489": 147,
        "8490": 135,
        "8491": 97,
        "8492": 133,
        "8493": 45,
        "8494": 96,
        "8495": 149,
        "8496": 240,
        "8497": 39,
        "8498": 89,
        "8499": 176,
        "8500": 63,
        "8501": 199,
        "8502": 251,
        "8503": 227,
        "8504": 85,
        "8505": 57,
        "8506": 134,
        "8507": 198,
        "8508": 193,
        "8509": 249,
        "8510": 66,
        "8511": 151,
        "8512": 150,
        "8513": 206,
        "8514": 38,
        "8515": 192,
        "8516": 181,
        "8517": 64,
        "8518": 33,
        "8519": 122,
        "8520": 41,
        "8521": 131,
        "8522": 222,
        "8523": 187,
        "8524": 218,
        "8525": 237,
        "8526": 52,
        "8527": 164,
        "8528": 252,
        "8529": 189,
        "8530": 122,
        "8531": 11,
        "8532": 72,
        "8533": 87,
        "8534": 99,
        "8535": 40,
        "8536": 213,
        "8537": 220,
        "8538": 104,
        "8539": 175,
        "8540": 61,
        "8541": 189,
        "8542": 254,
        "8543": 252,
        "8544": 190,
        "8545": 54,
        "8546": 187,
        "8547": 108,
        "8548": 65,
        "8549": 191,
        "8550": 165,
        "8551": 34,
        "8552": 211,
        "8553": 21,
        "8554": 174,
        "8555": 230,
        "8556": 9,
        "8557": 46,
        "8558": 64,
        "8559": 70,
        "8560": 211,
        "8561": 155,
        "8562": 20,
        "8563": 87,
        "8564": 126,
        "8565": 193,
        "8566": 73,
        "8567": 143,
        "8568": 182,
        "8569": 69,
        "8570": 77,
        "8571": 153,
        "8572": 237,
        "8573": 157,
        "8574": 232,
        "8575": 155,
        "8576": 104,
        "8577": 41,
        "8578": 31,
        "8579": 238,
        "8580": 7,
        "8581": 217,
        "8582": 229,
        "8583": 42,
        "8584": 53,
        "8585": 181,
        "8586": 176,
        "8587": 147,
        "8588": 197,
        "8589": 124,
        "8590": 164,
        "8591": 178,
        "8592": 120,
        "8593": 250,
        "8594": 97,
        "8595": 177,
        "8596": 120,
        "8597": 80,
        "8598": 243,
        "8599": 223,
        "8600": 66,
        "8601": 110,
        "8602": 188,
        "8603": 69,
        "8604": 141,
        "8605": 170,
        "8606": 133,
        "8607": 69,
        "8608": 189,
        "8609": 254,
        "8610": 217,
        "8611": 169,
        "8612": 72,
        "8613": 84,
        "8614": 142,
        "8615": 120,
        "8616": 85,
        "8617": 198,
        "8618": 99,
        "8619": 233,
        "8620": 251,
        "8621": 144,
        "8622": 75,
        "8623": 166,
        "8624": 56,
        "8625": 232,
        "8626": 123,
        "8627": 220,
        "8628": 93,
        "8629": 134,
        "8630": 178,
        "8631": 234,
        "8632": 199,
        "8633": 114,
        "8634": 57,
        "8635": 63,
        "8636": 225,
        "8637": 88,
        "8638": 40,
        "8639": 6,
        "8640": 127,
        "8641": 172,
        "8642": 222,
        "8643": 56,
        "8644": 4,
        "8645": 195,
        "8646": 131,
        "8647": 5,
        "8648": 85,
        "8649": 42,
        "8650": 169,
        "8651": 220,
        "8652": 77,
        "8653": 197,
        "8654": 196,
        "8655": 238,
        "8656": 18,
        "8657": 144,
        "8658": 88,
        "8659": 204,
        "8660": 103,
        "8661": 76,
        "8662": 67,
        "8663": 115,
        "8664": 204,
        "8665": 2,
        "8666": 230,
        "8667": 75,
        "8668": 143,
        "8669": 38,
        "8670": 174,
        "8671": 194,
        "8672": 198,
        "8673": 59,
        "8674": 76,
        "8675": 66,
        "8676": 232,
        "8677": 80,
        "8678": 53,
        "8679": 165,
        "8680": 16,
        "8681": 15,
        "8682": 68,
        "8683": 46,
        "8684": 191,
        "8685": 81,
        "8686": 129,
        "8687": 121,
        "8688": 203,
        "8689": 86,
        "8690": 165,
        "8691": 76,
        "8692": 244,
        "8693": 239,
        "8694": 14,
        "8695": 234,
        "8696": 148,
        "8697": 35,
        "8698": 126,
        "8699": 166,
        "8700": 220,
        "8701": 93,
        "8702": 133,
        "8703": 146,
        "8704": 241,
        "8705": 214,
        "8706": 130,
        "8707": 206,
        "8708": 207,
        "8709": 237,
        "8710": 229,
        "8711": 8,
        "8712": 181,
        "8713": 128,
        "8714": 203,
        "8715": 147,
        "8716": 104,
        "8717": 24,
        "8718": 226,
        "8719": 180,
        "8720": 4,
        "8721": 101,
        "8722": 38,
        "8723": 97,
        "8724": 160,
        "8725": 235,
        "8726": 254,
        "8727": 215,
        "8728": 159,
        "8729": 156,
        "8730": 161,
        "8731": 10,
        "8732": 159,
        "8733": 46,
        "8734": 14,
        "8735": 176,
        "8736": 116,
        "8737": 157,
        "8738": 69,
        "8739": 145,
        "8740": 45,
        "8741": 186,
        "8742": 148,
        "8743": 164,
        "8744": 82,
        "8745": 162,
        "8746": 20,
        "8747": 30,
        "8748": 216,
        "8749": 48,
        "8750": 150,
        "8751": 83,
        "8752": 18,
        "8753": 191,
        "8754": 71,
        "8755": 50,
        "8756": 45,
        "8757": 133,
        "8758": 82,
        "8759": 254,
        "8760": 200,
        "8761": 215,
        "8762": 198,
        "8763": 188,
        "8764": 137,
        "8765": 202,
        "8766": 27,
        "8767": 148,
        "8768": 168,
        "8769": 150,
        "8770": 233,
        "8771": 79,
        "8772": 106,
        "8773": 135,
        "8774": 128,
        "8775": 158,
        "8776": 12,
        "8777": 56,
        "8778": 204,
        "8779": 183,
        "8780": 229,
        "8781": 193,
        "8782": 92,
        "8783": 218,
        "8784": 61,
        "8785": 146,
        "8786": 20,
        "8787": 255,
        "8788": 208,
        "8789": 232,
        "8790": 41,
        "8791": 251,
        "8792": 220,
        "8793": 99,
        "8794": 73,
        "8795": 224,
        "8796": 67,
        "8797": 196,
        "8798": 229,
        "8799": 228,
        "8800": 23,
        "8801": 169,
        "8802": 145,
        "8803": 97,
        "8804": 109,
        "8805": 208,
        "8806": 144,
        "8807": 73,
        "8808": 175,
        "8809": 173,
        "8810": 78,
        "8811": 153,
        "8812": 203,
        "8813": 113,
        "8814": 27,
        "8815": 220,
        "8816": 127,
        "8817": 110,
        "8818": 211,
        "8819": 27,
        "8820": 60,
        "8821": 196,
        "8822": 27,
        "8823": 95,
        "8824": 68,
        "8825": 125,
        "8826": 254,
        "8827": 185,
        "8828": 236,
        "8829": 208,
        "8830": 33,
        "8831": 35,
        "8832": 77,
        "8833": 32,
        "8834": 179,
        "8835": 61,
        "8836": 234,
        "8837": 255,
        "8838": 185,
        "8839": 37,
        "8840": 187,
        "8841": 86,
        "8842": 63,
        "8843": 250,
        "8844": 135,
        "8845": 193,
        "8846": 211,
        "8847": 121,
        "8848": 200,
        "8849": 16,
        "8850": 237,
        "8851": 131,
        "8852": 97,
        "8853": 168,
        "8854": 39,
        "8855": 231,
        "8856": 157,
        "8857": 189,
        "8858": 110,
        "8859": 204,
        "8860": 29,
        "8861": 100,
        "8862": 95,
        "8863": 185,
        "8864": 216,
        "8865": 155,
        "8866": 230,
        "8867": 27,
        "8868": 213,
        "8869": 52,
        "8870": 144,
        "8871": 175,
        "8872": 79,
        "8873": 90,
        "8874": 30,
        "8875": 206,
        "8876": 64,
        "8877": 187,
        "8878": 169,
        "8879": 176,
        "8880": 236,
        "8881": 218,
        "8882": 102,
        "8883": 140,
        "8884": 229,
        "8885": 38,
        "8886": 233,
        "8887": 218,
        "8888": 194,
        "8889": 52,
        "8890": 236,
        "8891": 75,
        "8892": 57,
        "8893": 75,
        "8894": 144,
        "8895": 230,
        "8896": 5,
        "8897": 22,
        "8898": 51,
        "8899": 17,
        "8900": 32,
        "8901": 220,
        "8902": 121,
        "8903": 42,
        "8904": 247,
        "8905": 84,
        "8906": 58,
        "8907": 235,
        "8908": 207,
        "8909": 157,
        "8910": 248,
        "8911": 127,
        "8912": 243,
        "8913": 175,
        "8914": 46,
        "8915": 58,
        "8916": 173,
        "8917": 12,
        "8918": 118,
        "8919": 120,
        "8920": 191,
        "8921": 228,
        "8922": 254,
        "8923": 199,
        "8924": 175,
        "8925": 90,
        "8926": 248,
        "8927": 138,
        "8928": 167,
        "8929": 131,
        "8930": 55,
        "8931": 216,
        "8932": 135,
        "8933": 109,
        "8934": 78,
        "8935": 182,
        "8936": 198,
        "8937": 140,
        "8938": 34,
        "8939": 243,
        "8940": 130,
        "8941": 159,
        "8942": 156,
        "8943": 234,
        "8944": 25,
        "8945": 47,
        "8946": 40,
        "8947": 79,
        "8948": 106,
        "8949": 129,
        "8950": 59,
        "8951": 96,
        "8952": 243,
        "8953": 51,
        "8954": 55,
        "8955": 16,
        "8956": 197,
        "8957": 47,
        "8958": 76,
        "8959": 228,
        "8960": 201,
        "8961": 107,
        "8962": 230,
        "8963": 55,
        "8964": 209,
        "8965": 137,
        "8966": 241,
        "8967": 149,
        "8968": 36,
        "8969": 207,
        "8970": 149,
        "8971": 154,
        "8972": 26,
        "8973": 203,
        "8974": 15,
        "8975": 19,
        "8976": 231,
        "8977": 123,
        "8978": 91,
        "8979": 140,
        "8980": 213,
        "8981": 120,
        "8982": 43,
        "8983": 193,
        "8984": 166,
        "8985": 53,
        "8986": 55,
        "8987": 19,
        "8988": 37,
        "8989": 220,
        "8990": 146,
        "8991": 240,
        "8992": 136,
        "8993": 7,
        "8994": 202,
        "8995": 182,
        "8996": 215,
        "8997": 254,
        "8998": 248,
        "8999": 121,
        "9000": 234,
        "9001": 85,
        "9002": 39,
        "9003": 105,
        "9004": 252,
        "9005": 54,
        "9006": 249,
        "9007": 74,
        "9008": 106,
        "9009": 92,
        "9010": 155,
        "9011": 224,
        "9012": 170,
        "9013": 34,
        "9014": 108,
        "9015": 197,
        "9016": 161,
        "9017": 252,
        "9018": 255,
        "9019": 212,
        "9020": 175,
        "9021": 123,
        "9022": 204,
        "9023": 177,
        "9024": 27,
        "9025": 113,
        "9026": 117,
        "9027": 39,
        "9028": 1,
        "9029": 208,
        "9030": 14,
        "9031": 108,
        "9032": 122,
        "9033": 162,
        "9034": 255,
        "9035": 35,
        "9036": 55,
        "9037": 224,
        "9038": 207,
        "9039": 215,
        "9040": 52,
        "9041": 71,
        "9042": 143,
        "9043": 202,
        "9044": 73,
        "9045": 37,
        "9046": 227,
        "9047": 85,
        "9048": 123,
        "9049": 254,
        "9050": 7,
        "9051": 250,
        "9052": 70,
        "9053": 173,
        "9054": 68,
        "9055": 220,
        "9056": 171,
        "9057": 191,
        "9058": 132,
        "9059": 11,
        "9060": 214,
        "9061": 214,
        "9062": 43,
        "9063": 137,
        "9064": 40,
        "9065": 65,
        "9066": 179,
        "9067": 238,
        "9068": 30,
        "9069": 151,
        "9070": 13,
        "9071": 52,
        "9072": 244,
        "9073": 231,
        "9074": 248,
        "9075": 194,
        "9076": 238,
        "9077": 229,
        "9078": 249,
        "9079": 193,
        "9080": 157,
        "9081": 84,
        "9082": 176,
        "9083": 192,
        "9084": 14,
        "9085": 198,
        "9086": 173,
        "9087": 166,
        "9088": 245,
        "9089": 212,
        "9090": 140,
        "9091": 7,
        "9092": 97,
        "9093": 133,
        "9094": 249,
        "9095": 122,
        "9096": 130,
        "9097": 183,
        "9098": 27,
        "9099": 110,
        "9100": 232,
        "9101": 34,
        "9102": 195,
        "9103": 224,
        "9104": 72,
        "9105": 165,
        "9106": 35,
        "9107": 10,
        "9108": 132,
        "9109": 80,
        "9110": 116,
        "9111": 37,
        "9112": 24,
        "9113": 153,
        "9114": 176,
        "9115": 79,
        "9116": 228,
        "9117": 51,
        "9118": 200,
        "9119": 81,
        "9120": 199,
        "9121": 199,
        "9122": 113,
        "9123": 33,
        "9124": 206,
        "9125": 143,
        "9126": 53,
        "9127": 107,
        "9128": 212,
        "9129": 15,
        "9130": 163,
        "9131": 104,
        "9132": 83,
        "9133": 215,
        "9134": 38,
        "9135": 141,
        "9136": 13,
        "9137": 221,
        "9138": 211,
        "9139": 15,
        "9140": 80,
        "9141": 101,
        "9142": 160,
        "9143": 240,
        "9144": 124,
        "9145": 72,
        "9146": 252,
        "9147": 81,
        "9148": 90,
        "9149": 27,
        "9150": 56,
        "9151": 112,
        "9152": 216,
        "9153": 167,
        "9154": 244,
        "9155": 160,
        "9156": 53,
        "9157": 31,
        "9158": 28,
        "9159": 156,
        "9160": 128,
        "9161": 100,
        "9162": 176,
        "9163": 103,
        "9164": 103,
        "9165": 163,
        "9166": 107,
        "9167": 176,
        "9168": 250,
        "9169": 163,
        "9170": 7,
        "9171": 18,
        "9172": 252,
        "9173": 178,
        "9174": 63,
        "9175": 51,
        "9176": 220,
        "9177": 122,
        "9178": 235,
        "9179": 185,
        "9180": 72,
        "9181": 26,
        "9182": 80,
        "9183": 38,
        "9184": 80,
        "9185": 69,
        "9186": 225,
        "9187": 122,
        "9188": 84,
        "9189": 98,
        "9190": 123,
        "9191": 121,
        "9192": 7,
        "9193": 60,
        "9194": 223,
        "9195": 203,
        "9196": 235,
        "9197": 193,
        "9198": 193,
        "9199": 71,
        "9200": 77,
        "9201": 190,
        "9202": 206,
        "9203": 108,
        "9204": 4,
        "9205": 85,
        "9206": 177,
        "9207": 200,
        "9208": 109,
        "9209": 120,
        "9210": 181,
        "9211": 249,
        "9212": 113,
        "9213": 89,
        "9214": 156,
        "9215": 180,
        "9216": 247,
        "9217": 183,
        "9218": 69,
        "9219": 214,
        "9220": 6,
        "9221": 188,
        "9222": 58,
        "9223": 252,
        "9224": 197,
        "9225": 180,
        "9226": 68,
        "9227": 48,
        "9228": 153,
        "9229": 105,
        "9230": 144,
        "9231": 246,
        "9232": 96,
        "9233": 64,
        "9234": 143,
        "9235": 13,
        "9236": 56,
        "9237": 4,
        "9238": 2,
        "9239": 39,
        "9240": 225,
        "9241": 252,
        "9242": 245,
        "9243": 18,
        "9244": 207,
        "9245": 79,
        "9246": 217,
        "9247": 247,
        "9248": 157,
        "9249": 179,
        "9250": 176,
        "9251": 80,
        "9252": 157,
        "9253": 189,
        "9254": 186,
        "9255": 213,
        "9256": 58,
        "9257": 130,
        "9258": 193,
        "9259": 173,
        "9260": 198,
        "9261": 48,
        "9262": 250,
        "9263": 20,
        "9264": 103,
        "9265": 129,
        "9266": 114,
        "9267": 235,
        "9268": 211,
        "9269": 166,
        "9270": 48,
        "9271": 189,
        "9272": 203,
        "9273": 59,
        "9274": 77,
        "9275": 228,
        "9276": 127,
        "9277": 175,
        "9278": 204,
        "9279": 47,
        "9280": 134,
        "9281": 229,
        "9282": 118,
        "9283": 143,
        "9284": 166,
        "9285": 136,
        "9286": 51,
        "9287": 72,
        "9288": 155,
        "9289": 84,
        "9290": 125,
        "9291": 29,
        "9292": 11,
        "9293": 57,
        "9294": 96,
        "9295": 250,
        "9296": 190,
        "9297": 186,
        "9298": 95,
        "9299": 220,
        "9300": 26,
        "9301": 136,
        "9302": 30,
        "9303": 217,
        "9304": 23,
        "9305": 152,
        "9306": 62,
        "9307": 37,
        "9308": 112,
        "9309": 68,
        "9310": 18,
        "9311": 19,
        "9312": 134,
        "9313": 183,
        "9314": 4,
        "9315": 78,
        "9316": 40,
        "9317": 128,
        "9318": 136,
        "9319": 54,
        "9320": 137,
        "9321": 6,
        "9322": 19,
        "9323": 20,
        "9324": 38,
        "9325": 236,
        "9326": 19,
        "9327": 122,
        "9328": 172,
        "9329": 234,
        "9330": 47,
        "9331": 190,
        "9332": 40,
        "9333": 38,
        "9334": 207,
        "9335": 214,
        "9336": 31,
        "9337": 213,
        "9338": 93,
        "9339": 129,
        "9340": 90,
        "9341": 56,
        "9342": 191,
        "9343": 91,
        "9344": 226,
        "9345": 52,
        "9346": 81,
        "9347": 196,
        "9348": 87,
        "9349": 225,
        "9350": 216,
        "9351": 197,
        "9352": 226,
        "9353": 62,
        "9354": 132,
        "9355": 30,
        "9356": 16,
        "9357": 65,
        "9358": 66,
        "9359": 95,
        "9360": 11,
        "9361": 176,
        "9362": 125,
        "9363": 172,
        "9364": 89,
        "9365": 115,
        "9366": 192,
        "9367": 217,
        "9368": 163,
        "9369": 30,
        "9370": 66,
        "9371": 224,
        "9372": 177,
        "9373": 79,
        "9374": 115,
        "9375": 176,
        "9376": 104,
        "9377": 183,
        "9378": 85,
        "9379": 243,
        "9380": 201,
        "9381": 132,
        "9382": 191,
        "9383": 217,
        "9384": 59,
        "9385": 166,
        "9386": 123,
        "9387": 70,
        "9388": 110,
        "9389": 208,
        "9390": 105,
        "9391": 207,
        "9392": 235,
        "9393": 9,
        "9394": 178,
        "9395": 236,
        "9396": 138,
        "9397": 71,
        "9398": 113,
        "9399": 172,
        "9400": 239,
        "9401": 10,
        "9402": 34,
        "9403": 233,
        "9404": 226,
        "9405": 221,
        "9406": 170,
        "9407": 214,
        "9408": 22,
        "9409": 57,
        "9410": 248,
        "9411": 136,
        "9412": 158,
        "9413": 89,
        "9414": 244,
        "9415": 135,
        "9416": 112,
        "9417": 91,
        "9418": 57,
        "9419": 1,
        "9420": 108,
        "9421": 176,
        "9422": 117,
        "9423": 24,
        "9424": 151,
        "9425": 36,
        "9426": 32,
        "9427": 71,
        "9428": 161,
        "9429": 84,
        "9430": 10,
        "9431": 244,
        "9432": 86,
        "9433": 216,
        "9434": 105,
        "9435": 222,
        "9436": 244,
        "9437": 6,
        "9438": 61,
        "9439": 8,
        "9440": 170,
        "9441": 124,
        "9442": 109,
        "9443": 182,
        "9444": 141,
        "9445": 84,
        "9446": 112,
        "9447": 233,
        "9448": 115,
        "9449": 55,
        "9450": 224,
        "9451": 100,
        "9452": 206,
        "9453": 79,
        "9454": 251,
        "9455": 206,
        "9456": 100,
        "9457": 92,
        "9458": 58,
        "9459": 151,
        "9460": 250,
        "9461": 31,
        "9462": 242,
        "9463": 60,
        "9464": 117,
        "9465": 241,
        "9466": 7,
        "9467": 170,
        "9468": 192,
        "9469": 177,
        "9470": 240,
        "9471": 35,
        "9472": 215,
        "9473": 255,
        "9474": 234,
        "9475": 102,
        "9476": 139,
        "9477": 59,
        "9478": 13,
        "9479": 9,
        "9480": 6,
        "9481": 74,
        "9482": 30,
        "9483": 178,
        "9484": 13,
        "9485": 184,
        "9486": 247,
        "9487": 76,
        "9488": 196,
        "9489": 146,
        "9490": 158,
        "9491": 184,
        "9492": 178,
        "9493": 97,
        "9494": 107,
        "9495": 92,
        "9496": 187,
        "9497": 46,
        "9498": 98,
        "9499": 179,
        "9500": 25,
        "9501": 105,
        "9502": 137,
        "9503": 137,
        "9504": 203,
        "9505": 181,
        "9506": 88,
        "9507": 4,
        "9508": 153,
        "9509": 26,
        "9510": 72,
        "9511": 179,
        "9512": 176,
        "9513": 161,
        "9514": 242,
        "9515": 224,
        "9516": 80,
        "9517": 40,
        "9518": 228,
        "9519": 251,
        "9520": 251,
        "9521": 194,
        "9522": 252,
        "9523": 11,
        "9524": 219,
        "9525": 76,
        "9526": 161,
        "9527": 238,
        "9528": 207,
        "9529": 194,
        "9530": 47,
        "9531": 61,
        "9532": 78,
        "9533": 202,
        "9534": 8,
        "9535": 119,
        "9536": 83,
        "9537": 35,
        "9538": 182,
        "9539": 77,
        "9540": 225,
        "9541": 43,
        "9542": 46,
        "9543": 242,
        "9544": 24,
        "9545": 118,
        "9546": 206,
        "9547": 168,
        "9548": 38,
        "9549": 83,
        "9550": 132,
        "9551": 15,
        "9552": 30,
        "9553": 220,
        "9554": 64,
        "9555": 174,
        "9556": 236,
        "9557": 235,
        "9558": 75,
        "9559": 240,
        "9560": 207,
        "9561": 59,
        "9562": 43,
        "9563": 126,
        "9564": 83,
        "9565": 69,
        "9566": 250,
        "9567": 132,
        "9568": 62,
        "9569": 65,
        "9570": 72,
        "9571": 167,
        "9572": 60,
        "9573": 159,
        "9574": 207,
        "9575": 246,
        "9576": 195,
        "9577": 13,
        "9578": 17,
        "9579": 158,
        "9580": 33,
        "9581": 193,
        "9582": 132,
        "9583": 7,
        "9584": 72,
        "9585": 36,
        "9586": 144,
        "9587": 140,
        "9588": 218,
        "9589": 131,
        "9590": 96,
        "9591": 101,
        "9592": 105,
        "9593": 97,
        "9594": 171,
        "9595": 64,
        "9596": 57,
        "9597": 215,
        "9598": 219,
        "9599": 22,
        "9600": 246,
        "9601": 20,
        "9602": 251,
        "9603": 220,
        "9604": 66,
        "9605": 126,
        "9606": 208,
        "9607": 237,
        "9608": 59,
        "9609": 216,
        "9610": 180,
        "9611": 182,
        "9612": 44,
        "9613": 166,
        "9614": 18,
        "9615": 21,
        "9616": 196,
        "9617": 24,
        "9618": 214,
        "9619": 125,
        "9620": 57,
        "9621": 112,
        "9622": 19,
        "9623": 172,
        "9624": 30,
        "9625": 20,
        "9626": 34,
        "9627": 145,
        "9628": 38,
        "9629": 203,
        "9630": 237,
        "9631": 124,
        "9632": 11,
        "9633": 109,
        "9634": 18,
        "9635": 144,
        "9636": 203,
        "9637": 131,
        "9638": 78,
        "9639": 76,
        "9640": 194,
        "9641": 225,
        "9642": 139,
        "9643": 230,
        "9644": 41,
        "9645": 82,
        "9646": 3,
        "9647": 60,
        "9648": 72,
        "9649": 34,
        "9650": 69,
        "9651": 47,
        "9652": 26,
        "9653": 40,
        "9654": 196,
        "9655": 216,
        "9656": 83,
        "9657": 233,
        "9658": 215,
        "9659": 60,
        "9660": 173,
        "9661": 124,
        "9662": 38,
        "9663": 249,
        "9664": 114,
        "9665": 76,
        "9666": 28,
        "9667": 141,
        "9668": 116,
        "9669": 223,
        "9670": 57,
        "9671": 168,
        "9672": 215,
        "9673": 88,
        "9674": 87,
        "9675": 132,
        "9676": 178,
        "9677": 17,
        "9678": 80,
        "9679": 119,
        "9680": 102,
        "9681": 176,
        "9682": 255,
        "9683": 240,
        "9684": 119,
        "9685": 37,
        "9686": 29,
        "9687": 20,
        "9688": 23,
        "9689": 144,
        "9690": 247,
        "9691": 137,
        "9692": 34,
        "9693": 123,
        "9694": 5,
        "9695": 199,
        "9696": 31,
        "9697": 78,
        "9698": 183,
        "9699": 58,
        "9700": 25,
        "9701": 226,
        "9702": 180,
        "9703": 166,
        "9704": 222,
        "9705": 140,
        "9706": 34,
        "9707": 229,
        "9708": 59,
        "9709": 170,
        "9710": 198,
        "9711": 238,
        "9712": 16,
        "9713": 117,
        "9714": 32,
        "9715": 154,
        "9716": 130,
        "9717": 144,
        "9718": 162,
        "9719": 7,
        "9720": 246,
        "9721": 194,
        "9722": 98,
        "9723": 215,
        "9724": 122,
        "9725": 1,
        "9726": 48,
        "9727": 71,
        "9728": 154,
        "9729": 65,
        "9730": 101,
        "9731": 60,
        "9732": 79,
        "9733": 162,
        "9734": 192,
        "9735": 201,
        "9736": 231,
        "9737": 9,
        "9738": 206,
        "9739": 185,
        "9740": 221,
        "9741": 127,
        "9742": 178,
        "9743": 58,
        "9744": 208,
        "9745": 38,
        "9746": 79,
        "9747": 37,
        "9748": 242,
        "9749": 64,
        "9750": 1,
        "9751": 238,
        "9752": 98,
        "9753": 238,
        "9754": 61,
        "9755": 222,
        "9756": 148,
        "9757": 162,
        "9758": 104,
        "9759": 154,
        "9760": 253,
        "9761": 181,
        "9762": 127,
        "9763": 83,
        "9764": 22,
        "9765": 136,
        "9766": 206,
        "9767": 31,
        "9768": 41,
        "9769": 78,
        "9770": 99,
        "9771": 49,
        "9772": 123,
        "9773": 174,
        "9774": 75,
        "9775": 8,
        "9776": 46,
        "9777": 145,
        "9778": 131,
        "9779": 250,
        "9780": 51,
        "9781": 226,
        "9782": 33,
        "9783": 59,
        "9784": 228,
        "9785": 208,
        "9786": 239,
        "9787": 253,
        "9788": 116,
        "9789": 34,
        "9790": 202,
        "9791": 164,
        "9792": 245,
        "9793": 11,
        "9794": 38,
        "9795": 167,
        "9796": 23,
        "9797": 237,
        "9798": 6,
        "9799": 196,
        "9800": 24,
        "9801": 56,
        "9802": 1,
        "9803": 25,
        "9804": 247,
        "9805": 134,
        "9806": 72,
        "9807": 83,
        "9808": 192,
        "9809": 197,
        "9810": 46,
        "9811": 193,
        "9812": 16,
        "9813": 176,
        "9814": 114,
        "9815": 48,
        "9816": 89,
        "9817": 14,
        "9818": 56,
        "9819": 111,
        "9820": 176,
        "9821": 97,
        "9822": 93,
        "9823": 17,
        "9824": 34,
        "9825": 243,
        "9826": 5,
        "9827": 189,
        "9828": 249,
        "9829": 228,
        "9830": 53,
        "9831": 39,
        "9832": 191,
        "9833": 235,
        "9834": 183,
        "9835": 17,
        "9836": 18,
        "9837": 76,
        "9838": 64,
        "9839": 176,
        "9840": 173,
        "9841": 59,
        "9842": 3,
        "9843": 67,
        "9844": 18,
        "9845": 241,
        "9846": 100,
        "9847": 164,
        "9848": 171,
        "9849": 200,
        "9850": 52,
        "9851": 133,
        "9852": 62,
        "9853": 150,
        "9854": 111,
        "9855": 230,
        "9856": 85,
        "9857": 61,
        "9858": 165,
        "9859": 172,
        "9860": 43,
        "9861": 46,
        "9862": 28,
        "9863": 250,
        "9864": 139,
        "9865": 60,
        "9866": 42,
        "9867": 207,
        "9868": 96,
        "9869": 35,
        "9870": 59,
        "9871": 167,
        "9872": 253,
        "9873": 69,
        "9874": 17,
        "9875": 154,
        "9876": 176,
        "9877": 128,
        "9878": 252,
        "9879": 97,
        "9880": 196,
        "9881": 223,
        "9882": 186,
        "9883": 2,
        "9884": 79,
        "9885": 238,
        "9886": 25,
        "9887": 28,
        "9888": 252,
        "9889": 118,
        "9890": 193,
        "9891": 148,
        "9892": 230,
        "9893": 141,
        "9894": 10,
        "9895": 5,
        "9896": 63,
        "9897": 150,
        "9898": 115,
        "9899": 95,
        "9900": 188,
        "9901": 3,
        "9902": 32,
        "9903": 173,
        "9904": 127,
        "9905": 75,
        "9906": 207,
        "9907": 89,
        "9908": 48,
        "9909": 159,
        "9910": 31,
        "9911": 143,
        "9912": 60,
        "9913": 246,
        "9914": 209,
        "9915": 244,
        "9916": 147,
        "9917": 221,
        "9918": 207,
        "9919": 136,
        "9920": 148,
        "9921": 73,
        "9922": 33,
        "9923": 169,
        "9924": 166,
        "9925": 219,
        "9926": 136,
        "9927": 63,
        "9928": 89,
        "9929": 231,
        "9930": 115,
        "9931": 113,
        "9932": 236,
        "9933": 197,
        "9934": 216,
        "9935": 41,
        "9936": 20,
        "9937": 110,
        "9938": 51,
        "9939": 254,
        "9940": 16,
        "9941": 123,
        "9942": 3,
        "9943": 93,
        "9944": 83,
        "9945": 181,
        "9946": 21,
        "9947": 180,
        "9948": 46,
        "9949": 34,
        "9950": 237,
        "9951": 235,
        "9952": 128,
        "9953": 235,
        "9954": 158,
        "9955": 215,
        "9956": 209,
        "9957": 107,
        "9958": 214,
        "9959": 53,
        "9960": 12,
        "9961": 199,
        "9962": 113,
        "9963": 216,
        "9964": 253,
        "9965": 24,
        "9966": 193,
        "9967": 104,
        "9968": 169,
        "9969": 11,
        "9970": 161,
        "9971": 102,
        "9972": 133,
        "9973": 166,
        "9974": 9,
        "9975": 125,
        "9976": 66,
        "9977": 212,
        "9978": 130,
        "9979": 97,
        "9980": 77,
        "9981": 96,
        "9982": 94,
        "9983": 222,
        "9984": 92,
        "9985": 223,
        "9986": 2,
        "9987": 79,
        "9988": 195,
        "9989": 238,
        "9990": 217,
        "9991": 38,
        "9992": 202,
        "9993": 187,
        "9994": 88,
        "9995": 45,
        "9996": 79,
        "9997": 35,
        "9998": 76,
        "9999": 45,
        "10000": 87,
        "10001": 121,
        "10002": 203,
        "10003": 187,
        "10004": 56,
        "10005": 95,
        "10006": 77,
        "10007": 195,
        "10008": 117,
        "10009": 169,
        "10010": 215,
        "10011": 159,
        "10012": 133,
        "10013": 124,
        "10014": 162,
        "10015": 31,
        "10016": 225,
        "10017": 101,
        "10018": 83,
        "10019": 195,
        "10020": 213,
        "10021": 243,
        "10022": 180,
        "10023": 204,
        "10024": 87,
        "10025": 146,
        "10026": 69,
        "10027": 86,
        "10028": 187,
        "10029": 11,
        "10030": 149,
        "10031": 252,
        "10032": 21,
        "10033": 203,
        "10034": 18,
        "10035": 147,
        "10036": 51,
        "10037": 136,
        "10038": 4,
        "10039": 105,
        "10040": 252,
        "10041": 181,
        "10042": 243,
        "10043": 168,
        "10044": 251,
        "10045": 57,
        "10046": 219,
        "10047": 43,
        "10048": 22,
        "10049": 49,
        "10050": 62,
        "10051": 77,
        "10052": 159,
        "10053": 234,
        "10054": 67,
        "10055": 88,
        "10056": 247,
        "10057": 95,
        "10058": 9,
        "10059": 148,
        "10060": 193,
        "10061": 73,
        "10062": 84,
        "10063": 75,
        "10064": 251,
        "10065": 181,
        "10066": 242,
        "10067": 127,
        "10068": 143,
        "10069": 103,
        "10070": 52,
        "10071": 204,
        "10072": 228,
        "10073": 215,
        "10074": 241,
        "10075": 214,
        "10076": 232,
        "10077": 148,
        "10078": 107,
        "10079": 180,
        "10080": 85,
        "10081": 31,
        "10082": 140,
        "10083": 27,
        "10084": 65,
        "10085": 184,
        "10086": 120,
        "10087": 35,
        "10088": 65,
        "10089": 106,
        "10090": 149,
        "10091": 148,
        "10092": 44,
        "10093": 117,
        "10094": 216,
        "10095": 41,
        "10096": 95,
        "10097": 120,
        "10098": 0,
        "10099": 186,
        "10100": 221,
        "10101": 87,
        "10102": 56,
        "10103": 187,
        "10104": 163,
        "10105": 28,
        "10106": 154,
        "10107": 8,
        "10108": 11,
        "10109": 238,
        "10110": 20,
        "10111": 201,
        "10112": 233,
        "10113": 218,
        "10114": 134,
        "10115": 90,
        "10116": 51,
        "10117": 56,
        "10118": 146,
        "10119": 242,
        "10120": 99,
        "10121": 68,
        "10122": 202,
        "10123": 230,
        "10124": 173,
        "10125": 131,
        "10126": 112,
        "10127": 71,
        "10128": 216,
        "10129": 57,
        "10130": 73,
        "10131": 50,
        "10132": 170,
        "10133": 30,
        "10134": 236,
        "10135": 15,
        "10136": 152,
        "10137": 123,
        "10138": 186,
        "10139": 13,
        "10140": 114,
        "10141": 64,
        "10142": 73,
        "10143": 117,
        "10144": 231,
        "10145": 200,
        "10146": 81,
        "10147": 33,
        "10148": 41,
        "10149": 142,
        "10150": 89,
        "10151": 232,
        "10152": 98,
        "10153": 214,
        "10154": 79,
        "10155": 164,
        "10156": 227,
        "10157": 28,
        "10158": 106,
        "10159": 12,
        "10160": 25,
        "10161": 163,
        "10162": 213,
        "10163": 225,
        "10164": 129,
        "10165": 164,
        "10166": 171,
        "10167": 199,
        "10168": 248,
        "10169": 202,
        "10170": 197,
        "10171": 163,
        "10172": 116,
        "10173": 6,
        "10174": 63,
        "10175": 224,
        "10176": 109,
        "10177": 188,
        "10178": 125,
        "10179": 213,
        "10180": 52,
        "10181": 53,
        "10182": 83,
        "10183": 160,
        "10184": 85,
        "10185": 100,
        "10186": 192,
        "10187": 237,
        "10188": 185,
        "10189": 168,
        "10190": 243,
        "10191": 148,
        "10192": 243,
        "10193": 175,
        "10194": 236,
        "10195": 172,
        "10196": 206,
        "10197": 90,
        "10198": 38,
        "10199": 198,
        "10200": 196,
        "10201": 87,
        "10202": 120,
        "10203": 44,
        "10204": 248,
        "10205": 153,
        "10206": 119,
        "10207": 248,
        "10208": 28,
        "10209": 25,
        "10210": 212,
        "10211": 198,
        "10212": 97,
        "10213": 97,
        "10214": 196,
        "10215": 134,
        "10216": 153,
        "10217": 219,
        "10218": 100,
        "10219": 115,
        "10220": 116,
        "10221": 215,
        "10222": 49,
        "10223": 255,
        "10224": 142,
        "10225": 192,
        "10226": 13,
        "10227": 135,
        "10228": 79,
        "10229": 74,
        "10230": 78,
        "10231": 239,
        "10232": 32,
        "10233": 158,
        "10234": 78,
        "10235": 157,
        "10236": 160,
        "10237": 55,
        "10238": 67,
        "10239": 58,
        "10240": 221,
        "10241": 111,
        "10242": 40,
        "10243": 243,
        "10244": 226,
        "10245": 0,
        "10246": 103,
        "10247": 247,
        "10248": 144,
        "10249": 250,
        "10250": 97,
        "10251": 124,
        "10252": 173,
        "10253": 111,
        "10254": 224,
        "10255": 130,
        "10256": 201,
        "10257": 114,
        "10258": 59,
        "10259": 75,
        "10260": 67,
        "10261": 115,
        "10262": 86,
        "10263": 253,
        "10264": 13,
        "10265": 161,
        "10266": 48,
        "10267": 234,
        "10268": 174,
        "10269": 221,
        "10270": 31,
        "10271": 55,
        "10272": 116,
        "10273": 216,
        "10274": 236,
        "10275": 181,
        "10276": 237,
        "10277": 71,
        "10278": 235,
        "10279": 75,
        "10280": 118,
        "10281": 183,
        "10282": 253,
        "10283": 222,
        "10284": 236,
        "10285": 58,
        "10286": 165,
        "10287": 98,
        "10288": 12,
        "10289": 145,
        "10290": 97,
        "10291": 34,
        "10292": 24,
        "10293": 235,
        "10294": 133,
        "10295": 49,
        "10296": 61,
        "10297": 123,
        "10298": 32,
        "10299": 63,
        "10300": 248,
        "10301": 110,
        "10302": 63,
        "10303": 214,
        "10304": 139,
        "10305": 67,
        "10306": 38,
        "10307": 138,
        "10308": 58,
        "10309": 92,
        "10310": 210,
        "10311": 12,
        "10312": 60,
        "10313": 84,
        "10314": 72,
        "10315": 178,
        "10316": 0,
        "10317": 80,
        "10318": 54,
        "10319": 162,
        "10320": 213,
        "10321": 161,
        "10322": 29,
        "10323": 217,
        "10324": 17,
        "10325": 44,
        "10326": 97,
        "10327": 88,
        "10328": 136,
        "10329": 52,
        "10330": 172,
        "10331": 173,
        "10332": 174,
        "10333": 151,
        "10334": 207,
        "10335": 121,
        "10336": 116,
        "10337": 10,
        "10338": 246,
        "10339": 138,
        "10340": 213,
        "10341": 61,
        "10342": 49,
        "10343": 123,
        "10344": 20,
        "10345": 159,
        "10346": 178,
        "10347": 178,
        "10348": 247,
        "10349": 158,
        "10350": 165,
        "10351": 6,
        "10352": 92,
        "10353": 184,
        "10354": 160,
        "10355": 121,
        "10356": 138,
        "10357": 204,
        "10358": 188,
        "10359": 184,
        "10360": 28,
        "10361": 255,
        "10362": 64,
        "10363": 240,
        "10364": 100,
        "10365": 202,
        "10366": 73,
        "10367": 4,
        "10368": 149,
        "10369": 77,
        "10370": 44,
        "10371": 130,
        "10372": 136,
        "10373": 73,
        "10374": 181,
        "10375": 150,
        "10376": 33,
        "10377": 67,
        "10378": 104,
        "10379": 8,
        "10380": 92,
        "10381": 117,
        "10382": 44,
        "10383": 65,
        "10384": 139,
        "10385": 25,
        "10386": 145,
        "10387": 245,
        "10388": 134,
        "10389": 233,
        "10390": 3,
        "10391": 39,
        "10392": 115,
        "10393": 134,
        "10394": 95,
        "10395": 128,
        "10396": 194,
        "10397": 210,
        "10398": 107,
        "10399": 17,
        "10400": 40,
        "10401": 89,
        "10402": 121,
        "10403": 12,
        "10404": 156,
        "10405": 124,
        "10406": 26,
        "10407": 73,
        "10408": 51,
        "10409": 193,
        "10410": 94,
        "10411": 210,
        "10412": 116,
        "10413": 219,
        "10414": 167,
        "10415": 73,
        "10416": 26,
        "10417": 68,
        "10418": 108,
        "10419": 91,
        "10420": 204,
        "10421": 206,
        "10422": 167,
        "10423": 83,
        "10424": 7,
        "10425": 91,
        "10426": 177,
        "10427": 148,
        "10428": 134,
        "10429": 93,
        "10430": 236,
        "10431": 52,
        "10432": 238,
        "10433": 212,
        "10434": 171,
        "10435": 22,
        "10436": 11,
        "10437": 25,
        "10438": 36,
        "10439": 10,
        "10440": 19,
        "10441": 238,
        "10442": 86,
        "10443": 196,
        "10444": 4,
        "10445": 145,
        "10446": 76,
        "10447": 191,
        "10448": 232,
        "10449": 101,
        "10450": 111,
        "10451": 109,
        "10452": 212,
        "10453": 206,
        "10454": 213,
        "10455": 191,
        "10456": 165,
        "10457": 253,
        "10458": 161,
        "10459": 200,
        "10460": 22,
        "10461": 227,
        "10462": 62,
        "10463": 48,
        "10464": 75,
        "10465": 30,
        "10466": 178,
        "10467": 83,
        "10468": 92,
        "10469": 225,
        "10470": 190,
        "10471": 45,
        "10472": 153,
        "10473": 65,
        "10474": 255,
        "10475": 149,
        "10476": 132,
        "10477": 127,
        "10478": 115,
        "10479": 12,
        "10480": 22,
        "10481": 198,
        "10482": 65,
        "10483": 89,
        "10484": 216,
        "10485": 103,
        "10486": 202,
        "10487": 90,
        "10488": 223,
        "10489": 212,
        "10490": 17,
        "10491": 67,
        "10492": 179,
        "10493": 85,
        "10494": 150,
        "10495": 64,
        "10496": 232,
        "10497": 171,
        "10498": 46,
        "10499": 70,
        "10500": 238,
        "10501": 250,
        "10502": 220,
        "10503": 189,
        "10504": 37,
        "10505": 154,
        "10506": 199,
        "10507": 23,
        "10508": 183,
        "10509": 205,
        "10510": 87,
        "10511": 68,
        "10512": 49,
        "10513": 94,
        "10514": 107,
        "10515": 60,
        "10516": 34,
        "10517": 150,
        "10518": 153,
        "10519": 46,
        "10520": 208,
        "10521": 197,
        "10522": 64,
        "10523": 36,
        "10524": 10,
        "10525": 4,
        "10526": 83,
        "10527": 137,
        "10528": 34,
        "10529": 189,
        "10530": 136,
        "10531": 72,
        "10532": 221,
        "10533": 20,
        "10534": 141,
        "10535": 219,
        "10536": 38,
        "10537": 201,
        "10538": 109,
        "10539": 23,
        "10540": 51,
        "10541": 69,
        "10542": 139,
        "10543": 89,
        "10544": 0,
        "10545": 8,
        "10546": 34,
        "10547": 30,
        "10548": 73,
        "10549": 90,
        "10550": 147,
        "10551": 103,
        "10552": 98,
        "10553": 192,
        "10554": 15,
        "10555": 230,
        "10556": 0,
        "10557": 50,
        "10558": 52,
        "10559": 213,
        "10560": 74,
        "10561": 9,
        "10562": 238,
        "10563": 191,
        "10564": 81,
        "10565": 116,
        "10566": 211,
        "10567": 212,
        "10568": 184,
        "10569": 220,
        "10570": 129,
        "10571": 48,
        "10572": 36,
        "10573": 133,
        "10574": 30,
        "10575": 190,
        "10576": 170,
        "10577": 237,
        "10578": 246,
        "10579": 13,
        "10580": 58,
        "10581": 42,
        "10582": 88,
        "10583": 56,
        "10584": 38,
        "10585": 208,
        "10586": 230,
        "10587": 104,
        "10588": 109,
        "10589": 185,
        "10590": 244,
        "10591": 7,
        "10592": 133,
        "10593": 36,
        "10594": 100,
        "10595": 127,
        "10596": 247,
        "10597": 20,
        "10598": 88,
        "10599": 212,
        "10600": 118,
        "10601": 118,
        "10602": 42,
        "10603": 81,
        "10604": 33,
        "10605": 49,
        "10606": 68,
        "10607": 213,
        "10608": 144,
        "10609": 113,
        "10610": 131,
        "10611": 107,
        "10612": 43,
        "10613": 42,
        "10614": 58,
        "10615": 96,
        "10616": 91,
        "10617": 86,
        "10618": 41,
        "10619": 59,
        "10620": 56,
        "10621": 57,
        "10622": 241,
        "10623": 146,
        "10624": 180,
        "10625": 212,
        "10626": 147,
        "10627": 171,
        "10628": 36,
        "10629": 34,
        "10630": 237,
        "10631": 187,
        "10632": 225,
        "10633": 159,
        "10634": 230,
        "10635": 19,
        "10636": 217,
        "10637": 225,
        "10638": 100,
        "10639": 65,
        "10640": 170,
        "10641": 206,
        "10642": 62,
        "10643": 93,
        "10644": 73,
        "10645": 55,
        "10646": 65,
        "10647": 58,
        "10648": 215,
        "10649": 105,
        "10650": 39,
        "10651": 178,
        "10652": 191,
        "10653": 112,
        "10654": 168,
        "10655": 153,
        "10656": 190,
        "10657": 247,
        "10658": 21,
        "10659": 164,
        "10660": 85,
        "10661": 23,
        "10662": 68,
        "10663": 17,
        "10664": 148,
        "10665": 46,
        "10666": 108,
        "10667": 168,
        "10668": 155,
        "10669": 79,
        "10670": 235,
        "10671": 194,
        "10672": 38,
        "10673": 146,
        "10674": 81,
        "10675": 150,
        "10676": 140,
        "10677": 6,
        "10678": 0,
        "10679": 195,
        "10680": 228,
        "10681": 172,
        "10682": 242,
        "10683": 79,
        "10684": 240,
        "10685": 70,
        "10686": 198,
        "10687": 79,
        "10688": 212,
        "10689": 16,
        "10690": 51,
        "10691": 71,
        "10692": 99,
        "10693": 142,
        "10694": 108,
        "10695": 131,
        "10696": 41,
        "10697": 89,
        "10698": 221,
        "10699": 232,
        "10700": 110,
        "10701": 205,
        "10702": 51,
        "10703": 8,
        "10704": 194,
        "10705": 58,
        "10706": 185,
        "10707": 108,
        "10708": 217,
        "10709": 89,
        "10710": 240,
        "10711": 47,
        "10712": 202,
        "10713": 197,
        "10714": 232,
        "10715": 215,
        "10716": 239,
        "10717": 246,
        "10718": 123,
        "10719": 73,
        "10720": 108,
        "10721": 194,
        "10722": 98,
        "10723": 140,
        "10724": 97,
        "10725": 14,
        "10726": 61,
        "10727": 135,
        "10728": 128,
        "10729": 227,
        "10730": 115,
        "10731": 30,
        "10732": 130,
        "10733": 198,
        "10734": 236,
        "10735": 184,
        "10736": 197,
        "10737": 228,
        "10738": 246,
        "10739": 164,
        "10740": 223,
        "10741": 219,
        "10742": 121,
        "10743": 189,
        "10744": 202,
        "10745": 213,
        "10746": 165,
        "10747": 242,
        "10748": 44,
        "10749": 18,
        "10750": 82,
        "10751": 248,
        "10752": 123,
        "10753": 199,
        "10754": 57,
        "10755": 76,
        "10756": 43,
        "10757": 56,
        "10758": 25,
        "10759": 234,
        "10760": 3,
        "10761": 229,
        "10762": 197,
        "10763": 234,
        "10764": 91,
        "10765": 20,
        "10766": 143,
        "10767": 137,
        "10768": 120,
        "10769": 59,
        "10770": 231,
        "10771": 154,
        "10772": 221,
        "10773": 18,
        "10774": 129,
        "10775": 163,
        "10776": 90,
        "10777": 111,
        "10778": 244,
        "10779": 250,
        "10780": 12,
        "10781": 229,
        "10782": 146,
        "10783": 176,
        "10784": 163,
        "10785": 91,
        "10786": 87,
        "10787": 24,
        "10788": 81,
        "10789": 147,
        "10790": 121,
        "10791": 239,
        "10792": 189,
        "10793": 29,
        "10794": 2,
        "10795": 47,
        "10796": 116,
        "10797": 133,
        "10798": 206,
        "10799": 171,
        "10800": 24,
        "10801": 123,
        "10802": 166,
        "10803": 184,
        "10804": 136,
        "10805": 36,
        "10806": 217,
        "10807": 195,
        "10808": 146,
        "10809": 193,
        "10810": 158,
        "10811": 240,
        "10812": 183,
        "10813": 157,
        "10814": 76,
        "10815": 198,
        "10816": 242,
        "10817": 64,
        "10818": 1,
        "10819": 40,
        "10820": 255,
        "10821": 118,
        "10822": 228,
        "10823": 101,
        "10824": 84,
        "10825": 182,
        "10826": 140,
        "10827": 158,
        "10828": 211,
        "10829": 211,
        "10830": 182,
        "10831": 218,
        "10832": 217,
        "10833": 71,
        "10834": 165,
        "10835": 118,
        "10836": 89,
        "10837": 0,
        "10838": 42,
        "10839": 218,
        "10840": 84,
        "10841": 210,
        "10842": 8,
        "10843": 112,
        "10844": 56,
        "10845": 68,
        "10846": 252,
        "10847": 39,
        "10848": 203,
        "10849": 67,
        "10850": 98,
        "10851": 123,
        "10852": 65,
        "10853": 223,
        "10854": 79,
        "10855": 36,
        "10856": 81,
        "10857": 234,
        "10858": 152,
        "10859": 146,
        "10860": 79,
        "10861": 20,
        "10862": 133,
        "10863": 165,
        "10864": 215,
        "10865": 56,
        "10866": 13,
        "10867": 83,
        "10868": 166,
        "10869": 210,
        "10870": 198,
        "10871": 156,
        "10872": 155,
        "10873": 127,
        "10874": 190,
        "10875": 63,
        "10876": 248,
        "10877": 5,
        "10878": 253,
        "10879": 219,
        "10880": 59,
        "10881": 204,
        "10882": 89,
        "10883": 114,
        "10884": 208,
        "10885": 35,
        "10886": 204,
        "10887": 110,
        "10888": 111,
        "10889": 23,
        "10890": 248,
        "10891": 18,
        "10892": 151,
        "10893": 202,
        "10894": 33,
        "10895": 59,
        "10896": 106,
        "10897": 243,
        "10898": 23,
        "10899": 118,
        "10900": 44,
        "10901": 30,
        "10902": 134,
        "10903": 145,
        "10904": 143,
        "10905": 82,
        "10906": 190,
        "10907": 25,
        "10908": 207,
        "10909": 64,
        "10910": 248,
        "10911": 166,
        "10912": 197,
        "10913": 96,
        "10914": 69,
        "10915": 101,
        "10916": 24,
        "10917": 210,
        "10918": 178,
        "10919": 59,
        "10920": 252,
        "10921": 41,
        "10922": 104,
        "10923": 124,
        "10924": 82,
        "10925": 96,
        "10926": 11,
        "10927": 62,
        "10928": 224,
        "10929": 199,
        "10930": 206,
        "10931": 44,
        "10932": 244,
        "10933": 224,
        "10934": 166,
        "10935": 28,
        "10936": 178,
        "10937": 33,
        "10938": 61,
        "10939": 196,
        "10940": 49,
        "10941": 230,
        "10942": 101,
        "10943": 171,
        "10944": 1,
        "10945": 254,
        "10946": 33,
        "10947": 73,
        "10948": 251,
        "10949": 168,
        "10950": 133,
        "10951": 151,
        "10952": 243,
        "10953": 174,
        "10954": 149,
        "10955": 75,
        "10956": 97,
        "10957": 50,
        "10958": 247,
        "10959": 16,
        "10960": 38,
        "10961": 109,
        "10962": 128,
        "10963": 105,
        "10964": 117,
        "10965": 193,
        "10966": 239,
        "10967": 174,
        "10968": 228,
        "10969": 225,
        "10970": 12,
        "10971": 37,
        "10972": 159,
        "10973": 170,
        "10974": 43,
        "10975": 146,
        "10976": 64,
        "10977": 44,
        "10978": 128,
        "10979": 251,
        "10980": 12,
        "10981": 115,
        "10982": 28,
        "10983": 71,
        "10984": 132,
        "10985": 35,
        "10986": 7,
        "10987": 113,
        "10988": 55,
        "10989": 27,
        "10990": 234,
        "10991": 161,
        "10992": 45,
        "10993": 68,
        "10994": 149,
        "10995": 184,
        "10996": 24,
        "10997": 190,
        "10998": 210,
        "10999": 11,
        "11000": 78,
        "11001": 116,
        "11002": 144,
        "11003": 37,
        "11004": 88,
        "11005": 135,
        "11006": 81,
        "11007": 93,
        "11008": 201,
        "11009": 219,
        "11010": 97,
        "11011": 72,
        "11012": 75,
        "11013": 87,
        "11014": 161,
        "11015": 51,
        "11016": 156,
        "11017": 251,
        "11018": 180,
        "11019": 0,
        "11020": 143,
        "11021": 38,
        "11022": 254,
        "11023": 250,
        "11024": 147,
        "11025": 104,
        "11026": 69,
        "11027": 231,
        "11028": 226,
        "11029": 158,
        "11030": 56,
        "11031": 69,
        "11032": 205,
        "11033": 229,
        "11034": 99,
        "11035": 141,
        "11036": 220,
        "11037": 114,
        "11038": 82,
        "11039": 181,
        "11040": 230,
        "11041": 201,
        "11042": 19,
        "11043": 228,
        "11044": 145,
        "11045": 54,
        "11046": 76,
        "11047": 181,
        "11048": 180,
        "11049": 69,
        "11050": 19,
        "11051": 98,
        "11052": 254,
        "11053": 83,
        "11054": 135,
        "11055": 175,
        "11056": 6,
        "11057": 32,
        "11058": 25,
        "11059": 155,
        "11060": 222,
        "11061": 74,
        "11062": 129,
        "11063": 138,
        "11064": 32,
        "11065": 19,
        "11066": 141,
        "11067": 106,
        "11068": 249,
        "11069": 23,
        "11070": 22,
        "11071": 99,
        "11072": 100,
        "11073": 195,
        "11074": 252,
        "11075": 59,
        "11076": 222,
        "11077": 220,
        "11078": 207,
        "11079": 128,
        "11080": 80,
        "11081": 56,
        "11082": 120,
        "11083": 77,
        "11084": 159,
        "11085": 9,
        "11086": 244,
        "11087": 195,
        "11088": 64,
        "11089": 23,
        "11090": 8,
        "11091": 157,
        "11092": 219,
        "11093": 76,
        "11094": 226,
        "11095": 113,
        "11096": 191,
        "11097": 88,
        "11098": 54,
        "11099": 126,
        "11100": 35,
        "11101": 44,
        "11102": 172,
        "11103": 217,
        "11104": 104,
        "11105": 92,
        "11106": 59,
        "11107": 237,
        "11108": 122,
        "11109": 116,
        "11110": 10,
        "11111": 39,
        "11112": 43,
        "11113": 131,
        "11114": 101,
        "11115": 6,
        "11116": 50,
        "11117": 187,
        "11118": 86,
        "11119": 137,
        "11120": 24,
        "11121": 26,
        "11122": 189,
        "11123": 64,
        "11124": 15,
        "11125": 133,
        "11126": 87,
        "11127": 114,
        "11128": 91,
        "11129": 30,
        "11130": 223,
        "11131": 240,
        "11132": 29,
        "11133": 230,
        "11134": 123,
        "11135": 99,
        "11136": 110,
        "11137": 94,
        "11138": 81,
        "11139": 51,
        "11140": 41,
        "11141": 29,
        "11142": 211,
        "11143": 10,
        "11144": 84,
        "11145": 122,
        "11146": 177,
        "11147": 54,
        "11148": 20,
        "11149": 204,
        "11150": 167,
        "11151": 211,
        "11152": 40,
        "11153": 129,
        "11154": 139,
        "11155": 191,
        "11156": 187,
        "11157": 125,
        "11158": 91,
        "11159": 111,
        "11160": 154,
        "11161": 29,
        "11162": 132,
        "11163": 142,
        "11164": 73,
        "11165": 33,
        "11166": 126,
        "11167": 137,
        "11168": 54,
        "11169": 20,
        "11170": 191,
        "11171": 182,
        "11172": 120,
        "11173": 185,
        "11174": 161,
        "11175": 135,
        "11176": 214,
        "11177": 180,
        "11178": 240,
        "11179": 139,
        "11180": 62,
        "11181": 172,
        "11182": 215,
        "11183": 150,
        "11184": 198,
        "11185": 226,
        "11186": 199,
        "11187": 11,
        "11188": 175,
        "11189": 73,
        "11190": 133,
        "11191": 7,
        "11192": 210,
        "11193": 68,
        "11194": 166,
        "11195": 0,
        "11196": 128,
        "11197": 200,
        "11198": 254,
        "11199": 179,
        "11200": 162,
        "11201": 194,
        "11202": 199,
        "11203": 7,
        "11204": 62,
        "11205": 127,
        "11206": 146,
        "11207": 198,
        "11208": 35,
        "11209": 192,
        "11210": 47,
        "11211": 223,
        "11212": 132,
        "11213": 215,
        "11214": 64,
        "11215": 107,
        "11216": 82,
        "11217": 210,
        "11218": 112,
        "11219": 69,
        "11220": 132,
        "11221": 135,
        "11222": 167,
        "11223": 168,
        "11224": 246,
        "11225": 111,
        "11226": 15,
        "11227": 124,
        "11228": 86,
        "11229": 113,
        "11230": 178,
        "11231": 250,
        "11232": 1,
        "11233": 20,
        "11234": 228,
        "11235": 46,
        "11236": 123,
        "11237": 53,
        "11238": 73,
        "11239": 86,
        "11240": 152,
        "11241": 223,
        "11242": 197,
        "11243": 88,
        "11244": 115,
        "11245": 161,
        "11246": 165,
        "11247": 1,
        "11248": 131,
        "11249": 232,
        "11250": 136,
        "11251": 24,
        "11252": 125,
        "11253": 83,
        "11254": 246,
        "11255": 80,
        "11256": 238,
        "11257": 208,
        "11258": 49,
        "11259": 42,
        "11260": 219,
        "11261": 189,
        "11262": 224,
        "11263": 89,
        "11264": 252,
        "11265": 129,
        "11266": 18,
        "11267": 125,
        "11268": 169,
        "11269": 249,
        "11270": 172,
        "11271": 216,
        "11272": 20,
        "11273": 88,
        "11274": 193,
        "11275": 92,
        "11276": 98,
        "11277": 74,
        "11278": 78,
        "11279": 192,
        "11280": 75,
        "11281": 27,
        "11282": 195,
        "11283": 166,
        "11284": 6,
        "11285": 26,
        "11286": 131,
        "11287": 105,
        "11288": 166,
        "11289": 103,
        "11290": 33,
        "11291": 30,
        "11292": 188,
        "11293": 12,
        "11294": 243,
        "11295": 4,
        "11296": 231,
        "11297": 92,
        "11298": 54,
        "11299": 51,
        "11300": 81,
        "11301": 244,
        "11302": 249,
        "11303": 75,
        "11304": 227,
        "11305": 88,
        "11306": 191,
        "11307": 89,
        "11308": 144,
        "11309": 164,
        "11310": 139,
        "11311": 94,
        "11312": 192,
        "11313": 98,
        "11314": 142,
        "11315": 169,
        "11316": 75,
        "11317": 81,
        "11318": 179,
        "11319": 89,
        "11320": 71,
        "11321": 42,
        "11322": 16,
        "11323": 113,
        "11324": 246,
        "11325": 123,
        "11326": 21,
        "11327": 83,
        "11328": 235,
        "11329": 88,
        "11330": 54,
        "11331": 142,
        "11332": 124,
        "11333": 162,
        "11334": 216,
        "11335": 112,
        "11336": 85,
        "11337": 132,
        "11338": 254,
        "11339": 115,
        "11340": 134,
        "11341": 178,
        "11342": 59,
        "11343": 218,
        "11344": 168,
        "11345": 136,
        "11346": 44,
        "11347": 149,
        "11348": 109,
        "11349": 160,
        "11350": 49,
        "11351": 63,
        "11352": 214,
        "11353": 172,
        "11354": 236,
        "11355": 156,
        "11356": 155,
        "11357": 205,
        "11358": 151,
        "11359": 41,
        "11360": 66,
        "11361": 48,
        "11362": 25,
        "11363": 180,
        "11364": 120,
        "11365": 91,
        "11366": 172,
        "11367": 213,
        "11368": 205,
        "11369": 129,
        "11370": 35,
        "11371": 84,
        "11372": 212,
        "11373": 251,
        "11374": 214,
        "11375": 197,
        "11376": 17,
        "11377": 177,
        "11378": 15,
        "11379": 249,
        "11380": 44,
        "11381": 183,
        "11382": 74,
        "11383": 171,
        "11384": 160,
        "11385": 115,
        "11386": 114,
        "11387": 7,
        "11388": 91,
        "11389": 2,
        "11390": 20,
        "11391": 157,
        "11392": 150,
        "11393": 59,
        "11394": 76,
        "11395": 108,
        "11396": 43,
        "11397": 136,
        "11398": 80,
        "11399": 21,
        "11400": 64,
        "11401": 192,
        "11402": 219,
        "11403": 108,
        "11404": 115,
        "11405": 83,
        "11406": 195,
        "11407": 144,
        "11408": 90,
        "11409": 63,
        "11410": 131,
        "11411": 237,
        "11412": 241,
        "11413": 16,
        "11414": 167,
        "11415": 119,
        "11416": 168,
        "11417": 192,
        "11418": 187,
        "11419": 97,
        "11420": 243,
        "11421": 202,
        "11422": 126,
        "11423": 134,
        "11424": 240,
        "11425": 10,
        "11426": 93,
        "11427": 59,
        "11428": 199,
        "11429": 30,
        "11430": 195,
        "11431": 54,
        "11432": 114,
        "11433": 39,
        "11434": 66,
        "11435": 178,
        "11436": 248,
        "11437": 240,
        "11438": 194,
        "11439": 32,
        "11440": 40,
        "11441": 16,
        "11442": 20,
        "11443": 139,
        "11444": 212,
        "11445": 222,
        "11446": 183,
        "11447": 17,
        "11448": 133,
        "11449": 24,
        "11450": 251,
        "11451": 141,
        "11452": 249,
        "11453": 39,
        "11454": 172,
        "11455": 121,
        "11456": 193,
        "11457": 230,
        "11458": 238,
        "11459": 226,
        "11460": 192,
        "11461": 90,
        "11462": 203,
        "11463": 22,
        "11464": 0,
        "11465": 154,
        "11466": 165,
        "11467": 151,
        "11468": 126,
        "11469": 141,
        "11470": 206,
        "11471": 161,
        "11472": 63,
        "11473": 149,
        "11474": 135,
        "11475": 150,
        "11476": 203,
        "11477": 134,
        "11478": 73,
        "11479": 148,
        "11480": 74,
        "11481": 213,
        "11482": 235,
        "11483": 246,
        "11484": 227,
        "11485": 52,
        "11486": 23,
        "11487": 198,
        "11488": 28,
        "11489": 107,
        "11490": 25,
        "11491": 198,
        "11492": 25,
        "11493": 96,
        "11494": 124,
        "11495": 227,
        "11496": 31,
        "11497": 193,
        "11498": 195,
        "11499": 49,
        "11500": 49,
        "11501": 190,
        "11502": 171,
        "11503": 78,
        "11504": 45,
        "11505": 130,
        "11506": 172,
        "11507": 235,
        "11508": 85,
        "11509": 138,
        "11510": 154,
        "11511": 209,
        "11512": 109,
        "11513": 194,
        "11514": 67,
        "11515": 65,
        "11516": 71,
        "11517": 208,
        "11518": 170,
        "11519": 196,
        "11520": 154,
        "11521": 170,
        "11522": 124,
        "11523": 41,
        "11524": 41,
        "11525": 16,
        "11526": 48,
        "11527": 210,
        "11528": 64,
        "11529": 166,
        "11530": 42,
        "11531": 148,
        "11532": 97,
        "11533": 215,
        "11534": 167,
        "11535": 145,
        "11536": 175,
        "11537": 211,
        "11538": 184,
        "11539": 236,
        "11540": 30,
        "11541": 177,
        "11542": 18,
        "11543": 217,
        "11544": 22,
        "11545": 14,
        "11546": 123,
        "11547": 72,
        "11548": 112,
        "11549": 208,
        "11550": 114,
        "11551": 103,
        "11552": 15,
        "11553": 39,
        "11554": 222,
        "11555": 71,
        "11556": 214,
        "11557": 35,
        "11558": 109,
        "11559": 155,
        "11560": 111,
        "11561": 185,
        "11562": 140,
        "11563": 147,
        "11564": 23,
        "11565": 28,
        "11566": 163,
        "11567": 95,
        "11568": 53,
        "11569": 18,
        "11570": 104,
        "11571": 241,
        "11572": 113,
        "11573": 162,
        "11574": 209,
        "11575": 60,
        "11576": 158,
        "11577": 6,
        "11578": 162,
        "11579": 75,
        "11580": 211,
        "11581": 143,
        "11582": 136,
        "11583": 30,
        "11584": 65,
        "11585": 126,
        "11586": 174,
        "11587": 2,
        "11588": 75,
        "11589": 105,
        "11590": 189,
        "11591": 210,
        "11592": 49,
        "11593": 193,
        "11594": 75,
        "11595": 179,
        "11596": 69,
        "11597": 210,
        "11598": 93,
        "11599": 96,
        "11600": 66,
        "11601": 8,
        "11602": 9,
        "11603": 217,
        "11604": 206,
        "11605": 152,
        "11606": 236,
        "11607": 130,
        "11608": 125,
        "11609": 122,
        "11610": 74,
        "11611": 103,
        "11612": 174,
        "11613": 186,
        "11614": 35,
        "11615": 188,
        "11616": 163,
        "11617": 160,
        "11618": 2,
        "11619": 95,
        "11620": 64,
        "11621": 23,
        "11622": 57,
        "11623": 4,
        "11624": 103,
        "11625": 28,
        "11626": 192,
        "11627": 154,
        "11628": 240,
        "11629": 97,
        "11630": 192,
        "11631": 35,
        "11632": 182,
        "11633": 155,
        "11634": 91,
        "11635": 110,
        "11636": 59,
        "11637": 147,
        "11638": 193,
        "11639": 208,
        "11640": 173,
        "11641": 139,
        "11642": 255,
        "11643": 0,
        "11644": 33,
        "11645": 98,
        "11646": 198,
        "11647": 109,
        "11648": 156,
        "11649": 118,
        "11650": 131,
        "11651": 93,
        "11652": 58,
        "11653": 129,
        "11654": 93,
        "11655": 133,
        "11656": 71,
        "11657": 220,
        "11658": 171,
        "11659": 101,
        "11660": 144,
        "11661": 252,
        "11662": 134,
        "11663": 183,
        "11664": 50,
        "11665": 63,
        "11666": 155,
        "11667": 46,
        "11668": 69,
        "11669": 84,
        "11670": 214,
        "11671": 199,
        "11672": 183,
        "11673": 131,
        "11674": 54,
        "11675": 49,
        "11676": 153,
        "11677": 224,
        "11678": 80,
        "11679": 66,
        "11680": 8,
        "11681": 167,
        "11682": 94,
        "11683": 213,
        "11684": 88,
        "11685": 24,
        "11686": 145,
        "11687": 251,
        "11688": 181,
        "11689": 140,
        "11690": 234,
        "11691": 25,
        "11692": 231,
        "11693": 96,
        "11694": 244,
        "11695": 93,
        "11696": 146,
        "11697": 124,
        "11698": 63,
        "11699": 158,
        "11700": 133,
        "11701": 49,
        "11702": 239,
        "11703": 236,
        "11704": 32,
        "11705": 108,
        "11706": 154,
        "11707": 185,
        "11708": 111,
        "11709": 166,
        "11710": 31,
        "11711": 117,
        "11712": 5,
        "11713": 232,
        "11714": 142,
        "11715": 193,
        "11716": 159,
        "11717": 25,
        "11718": 164,
        "11719": 232,
        "11720": 192,
        "11721": 211,
        "11722": 75,
        "11723": 138,
        "11724": 64,
        "11725": 155,
        "11726": 4,
        "11727": 7,
        "11728": 198,
        "11729": 105,
        "11730": 82,
        "11731": 131,
        "11732": 164,
        "11733": 108,
        "11734": 23,
        "11735": 34,
        "11736": 185,
        "11737": 37,
        "11738": 96,
        "11739": 248,
        "11740": 134,
        "11741": 11,
        "11742": 193,
        "11743": 133,
        "11744": 168,
        "11745": 29,
        "11746": 72,
        "11747": 240,
        "11748": 4,
        "11749": 69,
        "11750": 71,
        "11751": 101,
        "11752": 136,
        "11753": 32,
        "11754": 12,
        "11755": 142,
        "11756": 177,
        "11757": 142,
        "11758": 167,
        "11759": 201,
        "11760": 179,
        "11761": 67,
        "11762": 216,
        "11763": 109,
        "11764": 34,
        "11765": 78,
        "11766": 146,
        "11767": 209,
        "11768": 25,
        "11769": 151,
        "11770": 126,
        "11771": 102,
        "11772": 118,
        "11773": 14,
        "11774": 105,
        "11775": 193,
        "11776": 35,
        "11777": 119,
        "11778": 252,
        "11779": 198,
        "11780": 105,
        "11781": 88,
        "11782": 9,
        "11783": 61,
        "11784": 117,
        "11785": 74,
        "11786": 87,
        "11787": 228,
        "11788": 169,
        "11789": 240,
        "11790": 149,
        "11791": 217,
        "11792": 155,
        "11793": 203,
        "11794": 78,
        "11795": 117,
        "11796": 221,
        "11797": 60,
        "11798": 44,
        "11799": 85,
        "11800": 117,
        "11801": 227,
        "11802": 198,
        "11803": 68,
        "11804": 85,
        "11805": 82,
        "11806": 22,
        "11807": 62,
        "11808": 118,
        "11809": 39,
        "11810": 98,
        "11811": 151,
        "11812": 255,
        "11813": 106,
        "11814": 235,
        "11815": 52,
        "11816": 251,
        "11817": 77,
        "11818": 178,
        "11819": 85,
        "11820": 21,
        "11821": 106,
        "11822": 214,
        "11823": 225,
        "11824": 120,
        "11825": 121,
        "11826": 253,
        "11827": 132,
        "11828": 96,
        "11829": 248,
        "11830": 163,
        "11831": 215,
        "11832": 118,
        "11833": 68,
        "11834": 91,
        "11835": 130,
        "11836": 188,
        "11837": 12,
        "11838": 79,
        "11839": 156,
        "11840": 115,
        "11841": 22,
        "11842": 18,
        "11843": 77,
        "11844": 20,
        "11845": 237,
        "11846": 128,
        "11847": 116,
        "11848": 100,
        "11849": 238,
        "11850": 38,
        "11851": 46,
        "11852": 100,
        "11853": 34,
        "11854": 138,
        "11855": 178,
        "11856": 181,
        "11857": 152,
        "11858": 165,
        "11859": 244,
        "11860": 37,
        "11861": 183,
        "11862": 121,
        "11863": 67,
        "11864": 235,
        "11865": 12,
        "11866": 246,
        "11867": 130,
        "11868": 83,
        "11869": 45,
        "11870": 157,
        "11871": 147,
        "11872": 24,
        "11873": 134,
        "11874": 43,
        "11875": 191,
        "11876": 213,
        "11877": 89,
        "11878": 104,
        "11879": 49,
        "11880": 119,
        "11881": 159,
        "11882": 118,
        "11883": 180,
        "11884": 177,
        "11885": 38,
        "11886": 189,
        "11887": 90,
        "11888": 33,
        "11889": 30,
        "11890": 252,
        "11891": 176,
        "11892": 154,
        "11893": 56,
        "11894": 19,
        "11895": 75,
        "11896": 66,
        "11897": 123,
        "11898": 7,
        "11899": 98,
        "11900": 8,
        "11901": 176,
        "11902": 217,
        "11903": 227,
        "11904": 119,
        "11905": 98,
        "11906": 160,
        "11907": 137,
        "11908": 196,
        "11909": 133,
        "11910": 80,
        "11911": 176,
        "11912": 185,
        "11913": 182,
        "11914": 170,
        "11915": 91,
        "11916": 238,
        "11917": 204,
        "11918": 240,
        "11919": 105,
        "11920": 126,
        "11921": 34,
        "11922": 251,
        "11923": 207,
        "11924": 50,
        "11925": 66,
        "11926": 53,
        "11927": 9,
        "11928": 195,
        "11929": 7,
        "11930": 141,
        "11931": 30,
        "11932": 47,
        "11933": 112,
        "11934": 48,
        "11935": 12,
        "11936": 209,
        "11937": 229,
        "11938": 47,
        "11939": 89,
        "11940": 132,
        "11941": 29,
        "11942": 189,
        "11943": 255,
        "11944": 133,
        "11945": 154,
        "11946": 249,
        "11947": 93,
        "11948": 164,
        "11949": 158,
        "11950": 3,
        "11951": 166,
        "11952": 107,
        "11953": 4,
        "11954": 218,
        "11955": 161,
        "11956": 54,
        "11957": 114,
        "11958": 52,
        "11959": 79,
        "11960": 246,
        "11961": 184,
        "11962": 197,
        "11963": 151,
        "11964": 2,
        "11965": 51,
        "11966": 195,
        "11967": 16,
        "11968": 139,
        "11969": 143,
        "11970": 40,
        "11971": 148,
        "11972": 253,
        "11973": 70,
        "11974": 206,
        "11975": 242,
        "11976": 179,
        "11977": 216,
        "11978": 240,
        "11979": 132,
        "11980": 27,
        "11981": 80,
        "11982": 47,
        "11983": 129,
        "11984": 214,
        "11985": 64,
        "11986": 216,
        "11987": 121,
        "11988": 157,
        "11989": 190,
        "11990": 13,
        "11991": 171,
        "11992": 68,
        "11993": 70,
        "11994": 114,
        "11995": 141,
        "11996": 29,
        "11997": 78,
        "11998": 68,
        "11999": 167,
        "12000": 1,
        "12001": 122,
        "12002": 120,
        "12003": 246,
        "12004": 163,
        "12005": 198,
        "12006": 144,
        "12007": 1,
        "12008": 95,
        "12009": 92,
        "12010": 80,
        "12011": 133,
        "12012": 206,
        "12013": 186,
        "12014": 226,
        "12015": 211,
        "12016": 84,
        "12017": 255,
        "12018": 15,
        "12019": 222,
        "12020": 22,
        "12021": 19,
        "12022": 232,
        "12023": 193,
        "12024": 148,
        "12025": 205,
        "12026": 96,
        "12027": 114,
        "12028": 37,
        "12029": 72,
        "12030": 83,
        "12031": 220,
        "12032": 250,
        "12033": 11,
        "12034": 253,
        "12035": 84,
        "12036": 232,
        "12037": 196,
        "12038": 186,
        "12039": 134,
        "12040": 88,
        "12041": 179,
        "12042": 160,
        "12043": 148,
        "12044": 41,
        "12045": 76,
        "12046": 179,
        "12047": 46,
        "12048": 56,
        "12049": 46,
        "12050": 163,
        "12051": 9,
        "12052": 210,
        "12053": 247,
        "12054": 140,
        "12055": 185,
        "12056": 170,
        "12057": 45,
        "12058": 176,
        "12059": 181,
        "12060": 34,
        "12061": 137,
        "12062": 127,
        "12063": 7,
        "12064": 115,
        "12065": 128,
        "12066": 186,
        "12067": 148,
        "12068": 191,
        "12069": 97,
        "12070": 88,
        "12071": 42,
        "12072": 192,
        "12073": 48,
        "12074": 156,
        "12075": 125,
        "12076": 27,
        "12077": 20,
        "12078": 117,
        "12079": 240,
        "12080": 214,
        "12081": 202,
        "12082": 130,
        "12083": 126,
        "12084": 167,
        "12085": 74,
        "12086": 239,
        "12087": 253,
        "12088": 100,
        "12089": 97,
        "12090": 169,
        "12091": 98,
        "12092": 52,
        "12093": 18,
        "12094": 53,
        "12095": 94,
        "12096": 58,
        "12097": 224,
        "12098": 152,
        "12099": 68,
        "12100": 242,
        "12101": 101,
        "12102": 243,
        "12103": 233,
        "12104": 52,
        "12105": 204,
        "12106": 45,
        "12107": 124,
        "12108": 255,
        "12109": 252,
        "12110": 127,
        "12111": 148,
        "12112": 35,
        "12113": 102,
        "12114": 64,
        "12115": 62,
        "12116": 45,
        "12117": 224,
        "12118": 103,
        "12119": 196,
        "12120": 141,
        "12121": 173,
        "12122": 227,
        "12123": 135,
        "12124": 204,
        "12125": 58,
        "12126": 101,
        "12127": 51,
        "12128": 54,
        "12129": 6,
        "12130": 184,
        "12131": 241,
        "12132": 10,
        "12133": 128,
        "12134": 30,
        "12135": 29,
        "12136": 231,
        "12137": 170,
        "12138": 186,
        "12139": 157,
        "12140": 227,
        "12141": 90,
        "12142": 194,
        "12143": 171,
        "12144": 112,
        "12145": 113,
        "12146": 112,
        "12147": 103,
        "12148": 228,
        "12149": 255,
        "12150": 119,
        "12151": 196,
        "12152": 167,
        "12153": 98,
        "12154": 81,
        "12155": 248,
        "12156": 48,
        "12157": 170,
        "12158": 154,
        "12159": 144,
        "12160": 230,
        "12161": 101,
        "12162": 212,
        "12163": 33,
        "12164": 247,
        "12165": 111,
        "12166": 24,
        "12167": 117,
        "12168": 235,
        "12169": 76,
        "12170": 65,
        "12171": 231,
        "12172": 192,
        "12173": 79,
        "12174": 254,
        "12175": 32,
        "12176": 232,
        "12177": 147,
        "12178": 187,
        "12179": 67,
        "12180": 240,
        "12181": 128,
        "12182": 55,
        "12183": 161,
        "12184": 46,
        "12185": 168,
        "12186": 28,
        "12187": 86,
        "12188": 160,
        "12189": 144,
        "12190": 130,
        "12191": 216,
        "12192": 165,
        "12193": 238,
        "12194": 204,
        "12195": 197,
        "12196": 97,
        "12197": 132,
        "12198": 38,
        "12199": 118,
        "12200": 237,
        "12201": 125,
        "12202": 206,
        "12203": 186,
        "12204": 148,
        "12205": 109,
        "12206": 121,
        "12207": 67,
        "12208": 127,
        "12209": 96,
        "12210": 196,
        "12211": 62,
        "12212": 29,
        "12213": 181,
        "12214": 52,
        "12215": 189,
        "12216": 133,
        "12217": 32,
        "12218": 26,
        "12219": 208,
        "12220": 182,
        "12221": 160,
        "12222": 125,
        "12223": 69,
        "12224": 107,
        "12225": 196,
        "12226": 194,
        "12227": 99,
        "12228": 3,
        "12229": 82,
        "12230": 116,
        "12231": 135,
        "12232": 160,
        "12233": 91,
        "12234": 173,
        "12235": 178,
        "12236": 188,
        "12237": 163,
        "12238": 210,
        "12239": 40,
        "12240": 239,
        "12241": 96,
        "12242": 27,
        "12243": 154,
        "12244": 110,
        "12245": 252,
        "12246": 172,
        "12247": 88,
        "12248": 63,
        "12249": 141,
        "12250": 209,
        "12251": 237,
        "12252": 234,
        "12253": 187,
        "12254": 41,
        "12255": 35,
        "12256": 150,
        "12257": 216,
        "12258": 8,
        "12259": 234,
        "12260": 116,
        "12261": 61,
        "12262": 201,
        "12263": 19,
        "12264": 189,
        "12265": 160,
        "12266": 67,
        "12267": 236,
        "12268": 58,
        "12269": 212,
        "12270": 128,
        "12271": 192,
        "12272": 67,
        "12273": 209,
        "12274": 125,
        "12275": 40,
        "12276": 127,
        "12277": 255,
        "12278": 222,
        "12279": 181,
        "12280": 195,
        "12281": 223,
        "12282": 75,
        "12283": 132,
        "12284": 4,
        "12285": 223,
        "12286": 112,
        "12287": 73,
        "12288": 144,
        "12289": 40,
        "12290": 67,
        "12291": 113,
        "12292": 4,
        "12293": 175,
        "12294": 242,
        "12295": 254,
        "12296": 102,
        "12297": 112,
        "12298": 79,
        "12299": 178,
        "12300": 172,
        "12301": 64,
        "12302": 224,
        "12303": 164,
        "12304": 115,
        "12305": 226,
        "12306": 22,
        "12307": 11,
        "12308": 240,
        "12309": 70,
        "12310": 2,
        "12311": 13,
        "12312": 146,
        "12313": 152,
        "12314": 192,
        "12315": 126,
        "12316": 244,
        "12317": 179,
        "12318": 118,
        "12319": 188,
        "12320": 90,
        "12321": 17,
        "12322": 187,
        "12323": 29,
        "12324": 226,
        "12325": 93,
        "12326": 53,
        "12327": 186,
        "12328": 116,
        "12329": 34,
        "12330": 88,
        "12331": 21,
        "12332": 95,
        "12333": 108,
        "12334": 175,
        "12335": 240,
        "12336": 138,
        "12337": 153,
        "12338": 157,
        "12339": 18,
        "12340": 244,
        "12341": 185,
        "12342": 34,
        "12343": 177,
        "12344": 225,
        "12345": 76,
        "12346": 57,
        "12347": 170,
        "12348": 199,
        "12349": 90,
        "12350": 188,
        "12351": 250,
        "12352": 6,
        "12353": 149,
        "12354": 193,
        "12355": 232,
        "12356": 47,
        "12357": 110,
        "12358": 41,
        "12359": 69,
        "12360": 34,
        "12361": 76,
        "12362": 195,
        "12363": 171,
        "12364": 40,
        "12365": 13,
        "12366": 210,
        "12367": 85,
        "12368": 35,
        "12369": 83,
        "12370": 56,
        "12371": 75,
        "12372": 92,
        "12373": 177,
        "12374": 255,
        "12375": 18,
        "12376": 190,
        "12377": 58,
        "12378": 8,
        "12379": 177,
        "12380": 129,
        "12381": 67,
        "12382": 1,
        "12383": 187,
        "12384": 200,
        "12385": 124,
        "12386": 53,
        "12387": 179,
        "12388": 203,
        "12389": 95,
        "12390": 79,
        "12391": 195,
        "12392": 255,
        "12393": 62,
        "12394": 212,
        "12395": 213,
        "12396": 107,
        "12397": 243,
        "12398": 141,
        "12399": 76,
        "12400": 193,
        "12401": 246,
        "12402": 213,
        "12403": 234,
        "12404": 204,
        "12405": 119,
        "12406": 238,
        "12407": 178,
        "12408": 145,
        "12409": 32,
        "12410": 202,
        "12411": 217,
        "12412": 201,
        "12413": 90,
        "12414": 56,
        "12415": 78,
        "12416": 160,
        "12417": 57,
        "12418": 27,
        "12419": 196,
        "12420": 227,
        "12421": 17,
        "12422": 90,
        "12423": 35,
        "12424": 186,
        "12425": 22,
        "12426": 22,
        "12427": 99,
        "12428": 100,
        "12429": 145,
        "12430": 67,
        "12431": 189,
        "12432": 47,
        "12433": 223,
        "12434": 44,
        "12435": 93,
        "12436": 56,
        "12437": 144,
        "12438": 22,
        "12439": 206,
        "12440": 166,
        "12441": 236,
        "12442": 118,
        "12443": 13,
        "12444": 165,
        "12445": 175,
        "12446": 18,
        "12447": 45,
        "12448": 186,
        "12449": 90,
        "12450": 11,
        "12451": 9,
        "12452": 115,
        "12453": 237,
        "12454": 9,
        "12455": 238,
        "12456": 219,
        "12457": 132,
        "12458": 7,
        "12459": 201,
        "12460": 101,
        "12461": 21,
        "12462": 167,
        "12463": 32,
        "12464": 180,
        "12465": 20,
        "12466": 157,
        "12467": 19,
        "12468": 56,
        "12469": 147,
        "12470": 227,
        "12471": 68,
        "12472": 150,
        "12473": 203,
        "12474": 119,
        "12475": 153,
        "12476": 170,
        "12477": 189,
        "12478": 236,
        "12479": 116,
        "12480": 16,
        "12481": 82,
        "12482": 147,
        "12483": 152,
        "12484": 94,
        "12485": 221,
        "12486": 144,
        "12487": 254,
        "12488": 119,
        "12489": 149,
        "12490": 195,
        "12491": 201,
        "12492": 106,
        "12493": 240,
        "12494": 179,
        "12495": 57,
        "12496": 80,
        "12497": 27,
        "12498": 172,
        "12499": 203,
        "12500": 14,
        "12501": 225,
        "12502": 39,
        "12503": 232,
        "12504": 239,
        "12505": 4,
        "12506": 1,
        "12507": 64,
        "12508": 113,
        "12509": 224,
        "12510": 213,
        "12511": 161,
        "12512": 222,
        "12513": 10,
        "12514": 225,
        "12515": 60,
        "12516": 226,
        "12517": 87,
        "12518": 94,
        "12519": 246,
        "12520": 77,
        "12521": 133,
        "12522": 120,
        "12523": 132,
        "12524": 156,
        "12525": 38,
        "12526": 90,
        "12527": 173,
        "12528": 173,
        "12529": 166,
        "12530": 228,
        "12531": 183,
        "12532": 21,
        "12533": 83,
        "12534": 111,
        "12535": 1,
        "12536": 255,
        "12537": 185,
        "12538": 232,
        "12539": 99,
        "12540": 229,
        "12541": 119,
        "12542": 135,
        "12543": 207,
        "12544": 119,
        "12545": 198,
        "12546": 116,
        "12547": 223,
        "12548": 104,
        "12549": 123,
        "12550": 151,
        "12551": 43,
        "12552": 167,
        "12553": 219,
        "12554": 242,
        "12555": 169,
        "12556": 99,
        "12557": 54,
        "12558": 65,
        "12559": 15,
        "12560": 252,
        "12561": 21,
        "12562": 52,
        "12563": 13,
        "12564": 94,
        "12565": 127,
        "12566": 253,
        "12567": 229,
        "12568": 108,
        "12569": 207,
        "12570": 100,
        "12571": 155,
        "12572": 233,
        "12573": 11,
        "12574": 93,
        "12575": 135,
        "12576": 10,
        "12577": 73,
        "12578": 228,
        "12579": 253,
        "12580": 182,
        "12581": 160,
        "12582": 217,
        "12583": 173,
        "12584": 86,
        "12585": 105,
        "12586": 80,
        "12587": 244,
        "12588": 206,
        "12589": 112,
        "12590": 184,
        "12591": 229,
        "12592": 131,
        "12593": 44,
        "12594": 125,
        "12595": 248,
        "12596": 199,
        "12597": 136,
        "12598": 7,
        "12599": 1,
        "12600": 108,
        "12601": 190,
        "12602": 172,
        "12603": 235,
        "12604": 100,
        "12605": 149,
        "12606": 228,
        "12607": 24,
        "12608": 186,
        "12609": 109,
        "12610": 154,
        "12611": 146,
        "12612": 127,
        "12613": 135,
        "12614": 47,
        "12615": 108,
        "12616": 113,
        "12617": 169,
        "12618": 218,
        "12619": 160,
        "12620": 24,
        "12621": 249,
        "12622": 109,
        "12623": 25,
        "12624": 28,
        "12625": 212,
        "12626": 24,
        "12627": 117,
        "12628": 130,
        "12629": 208,
        "12630": 201,
        "12631": 0,
        "12632": 131,
        "12633": 73,
        "12634": 201,
        "12635": 120,
        "12636": 215,
        "12637": 90,
        "12638": 153,
        "12639": 6,
        "12640": 72,
        "12641": 10,
        "12642": 238,
        "12643": 67,
        "12644": 104,
        "12645": 60,
        "12646": 186,
        "12647": 77,
        "12648": 238,
        "12649": 84,
        "12650": 29,
        "12651": 81,
        "12652": 82,
        "12653": 195,
        "12654": 173,
        "12655": 54,
        "12656": 251,
        "12657": 16,
        "12658": 19,
        "12659": 16,
        "12660": 49,
        "12661": 183,
        "12662": 108,
        "12663": 191,
        "12664": 142,
        "12665": 226,
        "12666": 41,
        "12667": 23,
        "12668": 153,
        "12669": 109,
        "12670": 237,
        "12671": 27,
        "12672": 253,
        "12673": 93,
        "12674": 13,
        "12675": 41,
        "12676": 66,
        "12677": 236,
        "12678": 209,
        "12679": 116,
        "12680": 101,
        "12681": 204,
        "12682": 76,
        "12683": 207,
        "12684": 105,
        "12685": 213,
        "12686": 132,
        "12687": 234,
        "12688": 78,
        "12689": 52,
        "12690": 46,
        "12691": 109,
        "12692": 166,
        "12693": 6,
        "12694": 235,
        "12695": 36,
        "12696": 156,
        "12697": 190,
        "12698": 13,
        "12699": 53,
        "12700": 43,
        "12701": 96,
        "12702": 63,
        "12703": 153,
        "12704": 134,
        "12705": 191,
        "12706": 240,
        "12707": 142,
        "12708": 99,
        "12709": 3,
        "12710": 226,
        "12711": 73,
        "12712": 0,
        "12713": 101,
        "12714": 165,
        "12715": 0,
        "12716": 140,
        "12717": 82,
        "12718": 75,
        "12719": 255,
        "12720": 253,
        "12721": 31,
        "12722": 171,
        "12723": 167,
        "12724": 231,
        "12725": 117,
        "12726": 70,
        "12727": 155,
        "12728": 213,
        "12729": 206,
        "12730": 252,
        "12731": 63,
        "12732": 30,
        "12733": 157,
        "12734": 148,
        "12735": 177,
        "12736": 120,
        "12737": 116,
        "12738": 38,
        "12739": 88,
        "12740": 107,
        "12741": 88,
        "12742": 114,
        "12743": 164,
        "12744": 99,
        "12745": 18,
        "12746": 218,
        "12747": 119,
        "12748": 78,
        "12749": 167,
        "12750": 236,
        "12751": 15,
        "12752": 85,
        "12753": 153,
        "12754": 4,
        "12755": 24,
        "12756": 147,
        "12757": 174,
        "12758": 10,
        "12759": 106,
        "12760": 199,
        "12761": 38,
        "12762": 138,
        "12763": 43,
        "12764": 153,
        "12765": 232,
        "12766": 77,
        "12767": 38,
        "12768": 140,
        "12769": 218,
        "12770": 48,
        "12771": 147,
        "12772": 147,
        "12773": 84,
        "12774": 88,
        "12775": 223,
        "12776": 5,
        "12777": 121,
        "12778": 244,
        "12779": 142,
        "12780": 143,
        "12781": 30,
        "12782": 244,
        "12783": 145,
        "12784": 67,
        "12785": 47,
        "12786": 150,
        "12787": 104,
        "12788": 249,
        "12789": 83,
        "12790": 239,
        "12791": 255,
        "12792": 199,
        "12793": 174,
        "12794": 40,
        "12795": 244,
        "12796": 230,
        "12797": 234,
        "12798": 112,
        "12799": 248,
        "12800": 17,
        "12801": 205,
        "12802": 56,
        "12803": 172,
        "12804": 124,
        "12805": 177,
        "12806": 176,
        "12807": 90,
        "12808": 178,
        "12809": 98,
        "12810": 237,
        "12811": 168,
        "12812": 217,
        "12813": 49,
        "12814": 59,
        "12815": 47,
        "12816": 159,
        "12817": 193,
        "12818": 222,
        "12819": 183,
        "12820": 115,
        "12821": 34,
        "12822": 67,
        "12823": 19,
        "12824": 129,
        "12825": 217,
        "12826": 114,
        "12827": 47,
        "12828": 8,
        "12829": 40,
        "12830": 140,
        "12831": 43,
        "12832": 30,
        "12833": 94,
        "12834": 127,
        "12835": 4,
        "12836": 1,
        "12837": 56,
        "12838": 127,
        "12839": 13,
        "12840": 72,
        "12841": 14,
        "12842": 193,
        "12843": 73,
        "12844": 149,
        "12845": 214,
        "12846": 142,
        "12847": 15,
        "12848": 53,
        "12849": 146,
        "12850": 74,
        "12851": 102,
        "12852": 28,
        "12853": 48,
        "12854": 143,
        "12855": 143,
        "12856": 63,
        "12857": 91,
        "12858": 221,
        "12859": 241,
        "12860": 22,
        "12861": 1,
        "12862": 9,
        "12863": 254,
        "12864": 216,
        "12865": 119,
        "12866": 76,
        "12867": 228,
        "12868": 106,
        "12869": 120,
        "12870": 229,
        "12871": 243,
        "12872": 88,
        "12873": 68,
        "12874": 202,
        "12875": 87,
        "12876": 218,
        "12877": 199,
        "12878": 114,
        "12879": 125,
        "12880": 74,
        "12881": 131,
        "12882": 61,
        "12883": 106,
        "12884": 122,
        "12885": 41,
        "12886": 60,
        "12887": 177,
        "12888": 208,
        "12889": 9,
        "12890": 132,
        "12891": 8,
        "12892": 166,
        "12893": 131,
        "12894": 133,
        "12895": 119,
        "12896": 132,
        "12897": 92,
        "12898": 239,
        "12899": 187,
        "12900": 15,
        "12901": 127,
        "12902": 192,
        "12903": 170,
        "12904": 207,
        "12905": 232,
        "12906": 118,
        "12907": 102,
        "12908": 160,
        "12909": 200,
        "12910": 229,
        "12911": 172,
        "12912": 92,
        "12913": 78,
        "12914": 152,
        "12915": 171,
        "12916": 42,
        "12917": 145,
        "12918": 114,
        "12919": 239,
        "12920": 135,
        "12921": 84,
        "12922": 180,
        "12923": 236,
        "12924": 92,
        "12925": 40,
        "12926": 247,
        "12927": 28,
        "12928": 213,
        "12929": 20,
        "12930": 172,
        "12931": 194,
        "12932": 93,
        "12933": 9,
        "12934": 84,
        "12935": 229,
        "12936": 151,
        "12937": 170,
        "12938": 176,
        "12939": 215,
        "12940": 80,
        "12941": 207,
        "12942": 180,
        "12943": 56,
        "12944": 8,
        "12945": 57,
        "12946": 127,
        "12947": 219,
        "12948": 14,
        "12949": 215,
        "12950": 10,
        "12951": 64,
        "12952": 136,
        "12953": 2,
        "12954": 220,
        "12955": 187,
        "12956": 179,
        "12957": 134,
        "12958": 226,
        "12959": 68,
        "12960": 198,
        "12961": 108,
        "12962": 106,
        "12963": 41,
        "12964": 101,
        "12965": 123,
        "12966": 148,
        "12967": 181,
        "12968": 158,
        "12969": 186,
        "12970": 15,
        "12971": 99,
        "12972": 10,
        "12973": 37,
        "12974": 44,
        "12975": 81,
        "12976": 45,
        "12977": 220,
        "12978": 95,
        "12979": 110,
        "12980": 104,
        "12981": 139,
        "12982": 84,
        "12983": 26,
        "12984": 216,
        "12985": 81,
        "12986": 181,
        "12987": 215,
        "12988": 120,
        "12989": 71,
        "12990": 49,
        "12991": 61,
        "12992": 71,
        "12993": 35,
        "12994": 186,
        "12995": 191,
        "12996": 132,
        "12997": 152,
        "12998": 83,
        "12999": 237,
        "13000": 150,
        "13001": 107,
        "13002": 114,
        "13003": 193,
        "13004": 87,
        "13005": 35,
        "13006": 38,
        "13007": 50,
        "13008": 89,
        "13009": 127,
        "13010": 25,
        "13011": 186,
        "13012": 219,
        "13013": 50,
        "13014": 93,
        "13015": 71,
        "13016": 119,
        "13017": 117,
        "13018": 181,
        "13019": 47,
        "13020": 90,
        "13021": 86,
        "13022": 97,
        "13023": 209,
        "13024": 30,
        "13025": 101,
        "13026": 77,
        "13027": 107,
        "13028": 85,
        "13029": 182,
        "13030": 2,
        "13031": 170,
        "13032": 127,
        "13033": 165,
        "13034": 242,
        "13035": 167,
        "13036": 197,
        "13037": 11,
        "13038": 137,
        "13039": 211,
        "13040": 8,
        "13041": 85,
        "13042": 118,
        "13043": 62,
        "13044": 200,
        "13045": 202,
        "13046": 214,
        "13047": 99,
        "13048": 217,
        "13049": 211,
        "13050": 44,
        "13051": 58,
        "13052": 191,
        "13053": 66,
        "13054": 104,
        "13055": 126,
        "13056": 174,
        "13057": 96,
        "13058": 183,
        "13059": 105,
        "13060": 1,
        "13061": 28,
        "13062": 175,
        "13063": 82,
        "13064": 130,
        "13065": 220,
        "13066": 27,
        "13067": 196,
        "13068": 129,
        "13069": 119,
        "13070": 251,
        "13071": 19,
        "13072": 219,
        "13073": 186,
        "13074": 156,
        "13075": 119,
        "13076": 197,
        "13077": 209,
        "13078": 156,
        "13079": 196,
        "13080": 145,
        "13081": 176,
        "13082": 100,
        "13083": 144,
        "13084": 223,
        "13085": 45,
        "13086": 249,
        "13087": 111,
        "13088": 38,
        "13089": 63,
        "13090": 129,
        "13091": 49,
        "13092": 131,
        "13093": 114,
        "13094": 131,
        "13095": 221,
        "13096": 179,
        "13097": 3,
        "13098": 33,
        "13099": 49,
        "13100": 87,
        "13101": 202,
        "13102": 32,
        "13103": 105,
        "13104": 187,
        "13105": 203,
        "13106": 98,
        "13107": 46,
        "13108": 230,
        "13109": 96,
        "13110": 215,
        "13111": 40,
        "13112": 179,
        "13113": 224,
        "13114": 65,
        "13115": 159,
        "13116": 202,
        "13117": 48,
        "13118": 8,
        "13119": 35,
        "13120": 70,
        "13121": 105,
        "13122": 174,
        "13123": 51,
        "13124": 40,
        "13125": 226,
        "13126": 1,
        "13127": 32,
        "13128": 201,
        "13129": 110,
        "13130": 194,
        "13131": 151,
        "13132": 161,
        "13133": 205,
        "13134": 176,
        "13135": 3,
        "13136": 36,
        "13137": 22,
        "13138": 90,
        "13139": 189,
        "13140": 135,
        "13141": 88,
        "13142": 199,
        "13143": 193,
        "13144": 162,
        "13145": 29,
        "13146": 144,
        "13147": 52,
        "13148": 214,
        "13149": 112,
        "13150": 230,
        "13151": 31,
        "13152": 29,
        "13153": 185,
        "13154": 88,
        "13155": 228,
        "13156": 85,
        "13157": 186,
        "13158": 249,
        "13159": 231,
        "13160": 180,
        "13161": 102,
        "13162": 57,
        "13163": 130,
        "13164": 150,
        "13165": 21,
        "13166": 165,
        "13167": 220,
        "13168": 104,
        "13169": 193,
        "13170": 58,
        "13171": 195,
        "13172": 121,
        "13173": 66,
        "13174": 98,
        "13175": 21,
        "13176": 105,
        "13177": 165,
        "13178": 227,
        "13179": 198,
        "13180": 94,
        "13181": 40,
        "13182": 144,
        "13183": 192,
        "13184": 103,
        "13185": 83,
        "13186": 212,
        "13187": 131,
        "13188": 0,
        "13189": 114,
        "13190": 56,
        "13191": 26,
        "13192": 94,
        "13193": 190,
        "13194": 196,
        "13195": 152,
        "13196": 45,
        "13197": 47,
        "13198": 206,
        "13199": 34,
        "13200": 101,
        "13201": 230,
        "13202": 26,
        "13203": 47,
        "13204": 9,
        "13205": 20,
        "13206": 186,
        "13207": 163,
        "13208": 100,
        "13209": 21,
        "13210": 116,
        "13211": 241,
        "13212": 73,
        "13213": 95,
        "13214": 193,
        "13215": 232,
        "13216": 6,
        "13217": 135,
        "13218": 38,
        "13219": 253,
        "13220": 213,
        "13221": 231,
        "13222": 153,
        "13223": 24,
        "13224": 198,
        "13225": 179,
        "13226": 167,
        "13227": 136,
        "13228": 46,
        "13229": 162,
        "13230": 12,
        "13231": 42,
        "13232": 178,
        "13233": 199,
        "13234": 91,
        "13235": 41,
        "13236": 236,
        "13237": 8,
        "13238": 113,
        "13239": 59,
        "13240": 89,
        "13241": 148,
        "13242": 19,
        "13243": 71,
        "13244": 189,
        "13245": 219,
        "13246": 211,
        "13247": 212,
        "13248": 229,
        "13249": 4,
        "13250": 66,
        "13251": 221,
        "13252": 248,
        "13253": 53,
        "13254": 64,
        "13255": 216,
        "13256": 163,
        "13257": 10,
        "13258": 219,
        "13259": 19,
        "13260": 110,
        "13261": 10,
        "13262": 77,
        "13263": 98,
        "13264": 179,
        "13265": 0,
        "13266": 239,
        "13267": 37,
        "13268": 127,
        "13269": 245,
        "13270": 158,
        "13271": 92,
        "13272": 217,
        "13273": 203,
        "13274": 133,
        "13275": 72,
        "13276": 227,
        "13277": 42,
        "13278": 233,
        "13279": 131,
        "13280": 238,
        "13281": 222,
        "13282": 139,
        "13283": 172,
        "13284": 39,
        "13285": 204,
        "13286": 187,
        "13287": 12,
        "13288": 69,
        "13289": 102,
        "13290": 73,
        "13291": 8,
        "13292": 112,
        "13293": 217,
        "13294": 161,
        "13295": 116,
        "13296": 225,
        "13297": 207,
        "13298": 220,
        "13299": 103,
        "13300": 133,
        "13301": 45,
        "13302": 57,
        "13303": 169,
        "13304": 95,
        "13305": 25,
        "13306": 42,
        "13307": 185,
        "13308": 252,
        "13309": 161,
        "13310": 158,
        "13311": 144,
        "13312": 179,
        "13313": 132,
        "13314": 191,
        "13315": 43,
        "13316": 91,
        "13317": 243,
        "13318": 47,
        "13319": 169,
        "13320": 168,
        "13321": 36,
        "13322": 160,
        "13323": 114,
        "13324": 244,
        "13325": 129,
        "13326": 103,
        "13327": 106,
        "13328": 90,
        "13329": 217,
        "13330": 118,
        "13331": 201,
        "13332": 252,
        "13333": 130,
        "13334": 115,
        "13335": 7,
        "13336": 171,
        "13337": 99,
        "13338": 146,
        "13339": 109,
        "13340": 215,
        "13341": 239,
        "13342": 77,
        "13343": 174,
        "13344": 31,
        "13345": 12,
        "13346": 90,
        "13347": 38,
        "13348": 195,
        "13349": 199,
        "13350": 244,
        "13351": 26,
        "13352": 118,
        "13353": 74,
        "13354": 81,
        "13355": 220,
        "13356": 155,
        "13357": 213,
        "13358": 195,
        "13359": 78,
        "13360": 22,
        "13361": 110,
        "13362": 177,
        "13363": 225,
        "13364": 15,
        "13365": 235,
        "13366": 132,
        "13367": 227,
        "13368": 86,
        "13369": 211,
        "13370": 5,
        "13371": 253,
        "13372": 28,
        "13373": 72,
        "13374": 158,
        "13375": 30,
        "13376": 134,
        "13377": 97,
        "13378": 120,
        "13379": 22,
        "13380": 187,
        "13381": 39,
        "13382": 109,
        "13383": 255,
        "13384": 237,
        "13385": 110,
        "13386": 61,
        "13387": 60,
        "13388": 173,
        "13389": 52,
        "13390": 201,
        "13391": 69,
        "13392": 5,
        "13393": 143,
        "13394": 142,
        "13395": 73,
        "13396": 106,
        "13397": 228,
        "13398": 115,
        "13399": 38,
        "13400": 224,
        "13401": 218,
        "13402": 31,
        "13403": 192,
        "13404": 41,
        "13405": 108,
        "13406": 102,
        "13407": 8,
        "13408": 71,
        "13409": 67,
        "13410": 54,
        "13411": 203,
        "13412": 52,
        "13413": 25,
        "13414": 156,
        "13415": 182,
        "13416": 241,
        "13417": 97,
        "13418": 238,
        "13419": 133,
        "13420": 235,
        "13421": 86,
        "13422": 230,
        "13423": 118,
        "13424": 164,
        "13425": 69,
        "13426": 76,
        "13427": 235,
        "13428": 172,
        "13429": 255,
        "13430": 159,
        "13431": 192,
        "13432": 175,
        "13433": 229,
        "13434": 228,
        "13435": 97,
        "13436": 0,
        "13437": 81,
        "13438": 78,
        "13439": 51,
        "13440": 112,
        "13441": 230,
        "13442": 82,
        "13443": 69,
        "13444": 77,
        "13445": 58,
        "13446": 162,
        "13447": 27,
        "13448": 79,
        "13449": 138,
        "13450": 9,
        "13451": 116,
        "13452": 18,
        "13453": 224,
        "13454": 38,
        "13455": 92,
        "13456": 17,
        "13457": 37,
        "13458": 31,
        "13459": 18,
        "13460": 132,
        "13461": 146,
        "13462": 124,
        "13463": 22,
        "13464": 109,
        "13465": 121,
        "13466": 159,
        "13467": 219,
        "13468": 239,
        "13469": 155,
        "13470": 180,
        "13471": 176,
        "13472": 218,
        "13473": 204,
        "13474": 119,
        "13475": 191,
        "13476": 18,
        "13477": 55,
        "13478": 99,
        "13479": 188,
        "13480": 85,
        "13481": 188,
        "13482": 88,
        "13483": 47,
        "13484": 243,
        "13485": 52,
        "13486": 160,
        "13487": 123,
        "13488": 82,
        "13489": 121,
        "13490": 3,
        "13491": 30,
        "13492": 161,
        "13493": 76,
        "13494": 196,
        "13495": 14,
        "13496": 146,
        "13497": 35,
        "13498": 34,
        "13499": 210,
        "13500": 75,
        "13501": 223,
        "13502": 118,
        "13503": 115,
        "13504": 33,
        "13505": 13,
        "13506": 122,
        "13507": 173,
        "13508": 191,
        "13509": 207,
        "13510": 22,
        "13511": 233,
        "13512": 119,
        "13513": 11,
        "13514": 40,
        "13515": 48,
        "13516": 81,
        "13517": 141,
        "13518": 65,
        "13519": 206,
        "13520": 114,
        "13521": 37,
        "13522": 190,
        "13523": 179,
        "13524": 183,
        "13525": 128,
        "13526": 46,
        "13527": 220,
        "13528": 224,
        "13529": 247,
        "13530": 199,
        "13531": 187,
        "13532": 58,
        "13533": 38,
        "13534": 253,
        "13535": 62,
        "13536": 118,
        "13537": 44,
        "13538": 170,
        "13539": 31,
        "13540": 250,
        "13541": 201,
        "13542": 160,
        "13543": 99,
        "13544": 237,
        "13545": 28,
        "13546": 229,
        "13547": 95,
        "13548": 184,
        "13549": 148,
        "13550": 23,
        "13551": 235,
        "13552": 46,
        "13553": 170,
        "13554": 230,
        "13555": 20,
        "13556": 189,
        "13557": 219,
        "13558": 185,
        "13559": 118,
        "13560": 107,
        "13561": 170,
        "13562": 68,
        "13563": 186,
        "13564": 89,
        "13565": 229,
        "13566": 189,
        "13567": 144,
        "13568": 87,
        "13569": 116,
        "13570": 203,
        "13571": 179,
        "13572": 224,
        "13573": 57,
        "13574": 122,
        "13575": 177,
        "13576": 227,
        "13577": 238,
        "13578": 80,
        "13579": 125,
        "13580": 233,
        "13581": 217,
        "13582": 64,
        "13583": 4,
        "13584": 233,
        "13585": 160,
        "13586": 245,
        "13587": 123,
        "13588": 223,
        "13589": 20,
        "13590": 167,
        "13591": 68,
        "13592": 203,
        "13593": 206,
        "13594": 237,
        "13595": 117,
        "13596": 178,
        "13597": 196,
        "13598": 210,
        "13599": 240,
        "13600": 163,
        "13601": 24,
        "13602": 57,
        "13603": 215,
        "13604": 121,
        "13605": 230,
        "13606": 223,
        "13607": 191,
        "13608": 80,
        "13609": 223,
        "13610": 236,
        "13611": 10,
        "13612": 10,
        "13613": 91,
        "13614": 218,
        "13615": 52,
        "13616": 61,
        "13617": 59,
        "13618": 52,
        "13619": 81,
        "13620": 126,
        "13621": 231,
        "13622": 246,
        "13623": 28,
        "13624": 141,
        "13625": 191,
        "13626": 71,
        "13627": 78,
        "13628": 117,
        "13629": 10,
        "13630": 29,
        "13631": 156,
        "13632": 225,
        "13633": 106,
        "13634": 166,
        "13635": 73,
        "13636": 97,
        "13637": 64,
        "13638": 141,
        "13639": 170,
        "13640": 41,
        "13641": 95,
        "13642": 43,
        "13643": 218,
        "13644": 45,
        "13645": 244,
        "13646": 122,
        "13647": 106,
        "13648": 185,
        "13649": 118,
        "13650": 172,
        "13651": 216,
        "13652": 102,
        "13653": 64,
        "13654": 234,
        "13655": 42,
        "13656": 49,
        "13657": 170,
        "13658": 64,
        "13659": 102,
        "13660": 222,
        "13661": 98,
        "13662": 147,
        "13663": 173,
        "13664": 87,
        "13665": 26,
        "13666": 249,
        "13667": 77,
        "13668": 16,
        "13669": 196,
        "13670": 95,
        "13671": 28,
        "13672": 47,
        "13673": 210,
        "13674": 13,
        "13675": 207,
        "13676": 143,
        "13677": 242,
        "13678": 177,
        "13679": 16,
        "13680": 59,
        "13681": 228,
        "13682": 20,
        "13683": 146,
        "13684": 211,
        "13685": 143,
        "13686": 163,
        "13687": 147,
        "13688": 192,
        "13689": 202,
        "13690": 197,
        "13691": 250,
        "13692": 136,
        "13693": 198,
        "13694": 133,
        "13695": 232,
        "13696": 198,
        "13697": 34,
        "13698": 187,
        "13699": 228,
        "13700": 81,
        "13701": 8,
        "13702": 239,
        "13703": 190,
        "13704": 129,
        "13705": 188,
        "13706": 22,
        "13707": 188,
        "13708": 246,
        "13709": 189,
        "13710": 79,
        "13711": 48,
        "13712": 68,
        "13713": 204,
        "13714": 241,
        "13715": 237,
        "13716": 48,
        "13717": 242,
        "13718": 144,
        "13719": 58,
        "13720": 68,
        "13721": 220,
        "13722": 120,
        "13723": 239,
        "13724": 230,
        "13725": 182,
        "13726": 61,
        "13727": 157,
        "13728": 88,
        "13729": 135,
        "13730": 121,
        "13731": 75,
        "13732": 145,
        "13733": 111,
        "13734": 0,
        "13735": 192,
        "13736": 138,
        "13737": 248,
        "13738": 118,
        "13739": 38,
        "13740": 125,
        "13741": 18,
        "13742": 46,
        "13743": 184,
        "13744": 81,
        "13745": 249,
        "13746": 6,
        "13747": 115,
        "13748": 0,
        "13749": 171,
        "13750": 7,
        "13751": 192,
        "13752": 29,
        "13753": 110,
        "13754": 18,
        "13755": 237,
        "13756": 85,
        "13757": 4,
        "13758": 142,
        "13759": 245,
        "13760": 122,
        "13761": 208,
        "13762": 254,
        "13763": 233,
        "13764": 134,
        "13765": 61,
        "13766": 85,
        "13767": 85,
        "13768": 42,
        "13769": 162,
        "13770": 51,
        "13771": 28,
        "13772": 45,
        "13773": 170,
        "13774": 247,
        "13775": 8,
        "13776": 20,
        "13777": 143,
        "13778": 166,
        "13779": 198,
        "13780": 157,
        "13781": 221,
        "13782": 227,
        "13783": 38,
        "13784": 122,
        "13785": 226,
        "13786": 135,
        "13787": 178,
        "13788": 240,
        "13789": 163,
        "13790": 144,
        "13791": 162,
        "13792": 6,
        "13793": 239,
        "13794": 148,
        "13795": 229,
        "13796": 34,
        "13797": 67,
        "13798": 249,
        "13799": 129,
        "13800": 71,
        "13801": 236,
        "13802": 36,
        "13803": 160,
        "13804": 21,
        "13805": 243,
        "13806": 123,
        "13807": 19,
        "13808": 245,
        "13809": 244,
        "13810": 229,
        "13811": 125,
        "13812": 71,
        "13813": 75,
        "13814": 80,
        "13815": 238,
        "13816": 94,
        "13817": 23,
        "13818": 73,
        "13819": 194,
        "13820": 111,
        "13821": 59,
        "13822": 231,
        "13823": 103,
        "13824": 246,
        "13825": 71,
        "13826": 211,
        "13827": 248,
        "13828": 22,
        "13829": 93,
        "13830": 174,
        "13831": 113,
        "13832": 187,
        "13833": 216,
        "13834": 223,
        "13835": 248,
        "13836": 69,
        "13837": 53,
        "13838": 103,
        "13839": 84,
        "13840": 152,
        "13841": 219,
        "13842": 164,
        "13843": 5,
        "13844": 186,
        "13845": 40,
        "13846": 171,
        "13847": 123,
        "13848": 195,
        "13849": 185,
        "13850": 169,
        "13851": 211,
        "13852": 116,
        "13853": 30,
        "13854": 57,
        "13855": 60,
        "13856": 200,
        "13857": 57,
        "13858": 65,
        "13859": 193,
        "13860": 2,
        "13861": 212,
        "13862": 150,
        "13863": 182,
        "13864": 54,
        "13865": 163,
        "13866": 33,
        "13867": 3,
        "13868": 233,
        "13869": 96,
        "13870": 217,
        "13871": 76,
        "13872": 154,
        "13873": 229,
        "13874": 130,
        "13875": 16,
        "13876": 134,
        "13877": 137,
        "13878": 30,
        "13879": 24,
        "13880": 94,
        "13881": 29,
        "13882": 20,
        "13883": 124,
        "13884": 124,
        "13885": 59,
        "13886": 25,
        "13887": 125,
        "13888": 86,
        "13889": 160,
        "13890": 252,
        "13891": 165,
        "13892": 176,
        "13893": 152,
        "13894": 242,
        "13895": 196,
        "13896": 225,
        "13897": 100,
        "13898": 160,
        "13899": 212,
        "13900": 154,
        "13901": 95,
        "13902": 213,
        "13903": 92,
        "13904": 178,
        "13905": 132,
        "13906": 63,
        "13907": 36,
        "13908": 101,
        "13909": 19,
        "13910": 245,
        "13911": 71,
        "13912": 93,
        "13913": 27,
        "13914": 61,
        "13915": 156,
        "13916": 13,
        "13917": 253,
        "13918": 170,
        "13919": 8,
        "13920": 128,
        "13921": 202,
        "13922": 84,
        "13923": 251,
        "13924": 20,
        "13925": 23,
        "13926": 183,
        "13927": 242,
        "13928": 8,
        "13929": 188,
        "13930": 227,
        "13931": 11,
        "13932": 52,
        "13933": 201,
        "13934": 59,
        "13935": 114,
        "13936": 12,
        "13937": 245,
        "13938": 170,
        "13939": 80,
        "13940": 94,
        "13941": 107,
        "13942": 146,
        "13943": 154,
        "13944": 50,
        "13945": 70,
        "13946": 79,
        "13947": 194,
        "13948": 202,
        "13949": 215,
        "13950": 22,
        "13951": 220,
        "13952": 205,
        "13953": 223,
        "13954": 91,
        "13955": 213,
        "13956": 253,
        "13957": 91,
        "13958": 77,
        "13959": 55,
        "13960": 228,
        "13961": 67,
        "13962": 132,
        "13963": 182,
        "13964": 251,
        "13965": 192,
        "13966": 164,
        "13967": 177,
        "13968": 89,
        "13969": 45,
        "13970": 117,
        "13971": 41,
        "13972": 11,
        "13973": 201,
        "13974": 11,
        "13975": 134,
        "13976": 208,
        "13977": 203,
        "13978": 11,
        "13979": 128,
        "13980": 220,
        "13981": 46,
        "13982": 141,
        "13983": 14,
        "13984": 62,
        "13985": 9,
        "13986": 153,
        "13987": 16,
        "13988": 196,
        "13989": 3,
        "13990": 5,
        "13991": 215,
        "13992": 165,
        "13993": 115,
        "13994": 160,
        "13995": 148,
        "13996": 64,
        "13997": 145,
        "13998": 226,
        "13999": 12,
        "14000": 91,
        "14001": 64,
        "14002": 133,
        "14003": 78,
        "14004": 87,
        "14005": 46,
        "14006": 225,
        "14007": 41,
        "14008": 198,
        "14009": 1,
        "14010": 163,
        "14011": 175,
        "14012": 118,
        "14013": 140,
        "14014": 253,
        "14015": 44,
        "14016": 112,
        "14017": 217,
        "14018": 209,
        "14019": 57,
        "14020": 84,
        "14021": 170,
        "14022": 27,
        "14023": 235,
        "14024": 74,
        "14025": 109,
        "14026": 20,
        "14027": 38,
        "14028": 187,
        "14029": 188,
        "14030": 93,
        "14031": 163,
        "14032": 150,
        "14033": 110,
        "14034": 249,
        "14035": 97,
        "14036": 25,
        "14037": 205,
        "14038": 44,
        "14039": 239,
        "14040": 245,
        "14041": 127,
        "14042": 53,
        "14043": 249,
        "14044": 247,
        "14045": 158,
        "14046": 99,
        "14047": 50,
        "14048": 87,
        "14049": 16,
        "14050": 99,
        "14051": 36,
        "14052": 223,
        "14053": 163,
        "14054": 20,
        "14055": 221,
        "14056": 142,
        "14057": 168,
        "14058": 228,
        "14059": 48,
        "14060": 103,
        "14061": 129,
        "14062": 144,
        "14063": 80,
        "14064": 45,
        "14065": 61,
        "14066": 99,
        "14067": 117,
        "14068": 216,
        "14069": 7,
        "14070": 197,
        "14071": 224,
        "14072": 245,
        "14073": 88,
        "14074": 47,
        "14075": 217,
        "14076": 158,
        "14077": 151,
        "14078": 86,
        "14079": 116,
        "14080": 229,
        "14081": 88,
        "14082": 58,
        "14083": 161,
        "14084": 50,
        "14085": 150,
        "14086": 102,
        "14087": 67,
        "14088": 208,
        "14089": 95,
        "14090": 163,
        "14091": 45,
        "14092": 233,
        "14093": 94,
        "14094": 65,
        "14095": 116,
        "14096": 98,
        "14097": 18,
        "14098": 171,
        "14099": 97,
        "14100": 175,
        "14101": 200,
        "14102": 214,
        "14103": 71,
        "14104": 111,
        "14105": 55,
        "14106": 92,
        "14107": 139,
        "14108": 239,
        "14109": 188,
        "14110": 167,
        "14111": 108,
        "14112": 110,
        "14113": 111,
        "14114": 20,
        "14115": 49,
        "14116": 158,
        "14117": 113,
        "14118": 118,
        "14119": 68,
        "14120": 20,
        "14121": 218,
        "14122": 135,
        "14123": 220,
        "14124": 217,
        "14125": 121,
        "14126": 159,
        "14127": 235,
        "14128": 33,
        "14129": 48,
        "14130": 176,
        "14131": 155,
        "14132": 35,
        "14133": 229,
        "14134": 202,
        "14135": 43,
        "14136": 3,
        "14137": 130,
        "14138": 134,
        "14139": 114,
        "14140": 65,
        "14141": 114,
        "14142": 59,
        "14143": 147,
        "14144": 188,
        "14145": 57,
        "14146": 9,
        "14147": 232,
        "14148": 206,
        "14149": 228,
        "14150": 196,
        "14151": 105,
        "14152": 14,
        "14153": 182,
        "14154": 188,
        "14155": 102,
        "14156": 180,
        "14157": 162,
        "14158": 193,
        "14159": 182,
        "14160": 144,
        "14161": 199,
        "14162": 250,
        "14163": 166,
        "14164": 181,
        "14165": 91,
        "14166": 136,
        "14167": 255,
        "14168": 141,
        "14169": 41,
        "14170": 25,
        "14171": 67,
        "14172": 74,
        "14173": 34,
        "14174": 107,
        "14175": 176,
        "14176": 41,
        "14177": 207,
        "14178": 57,
        "14179": 169,
        "14180": 221,
        "14181": 96,
        "14182": 152,
        "14183": 54,
        "14184": 153,
        "14185": 79,
        "14186": 24,
        "14187": 136,
        "14188": 192,
        "14189": 214,
        "14190": 181,
        "14191": 183,
        "14192": 125,
        "14193": 56,
        "14194": 180,
        "14195": 90,
        "14196": 14,
        "14197": 48,
        "14198": 133,
        "14199": 157,
        "14200": 20,
        "14201": 156,
        "14202": 66,
        "14203": 53,
        "14204": 82,
        "14205": 202,
        "14206": 76,
        "14207": 20,
        "14208": 139,
        "14209": 143,
        "14210": 203,
        "14211": 157,
        "14212": 119,
        "14213": 85,
        "14214": 109,
        "14215": 53,
        "14216": 32,
        "14217": 143,
        "14218": 17,
        "14219": 204,
        "14220": 56,
        "14221": 69,
        "14222": 186,
        "14223": 91,
        "14224": 113,
        "14225": 151,
        "14226": 131,
        "14227": 120,
        "14228": 23,
        "14229": 36,
        "14230": 45,
        "14231": 0,
        "14232": 147,
        "14233": 37,
        "14234": 177,
        "14235": 146,
        "14236": 65,
        "14237": 4,
        "14238": 161,
        "14239": 70,
        "14240": 34,
        "14241": 185,
        "14242": 223,
        "14243": 228,
        "14244": 213,
        "14245": 189,
        "14246": 223,
        "14247": 95,
        "14248": 151,
        "14249": 103,
        "14250": 97,
        "14251": 51,
        "14252": 168,
        "14253": 231,
        "14254": 232,
        "14255": 109,
        "14256": 252,
        "14257": 189,
        "14258": 49,
        "14259": 219,
        "14260": 202,
        "14261": 103,
        "14262": 45,
        "14263": 89,
        "14264": 95,
        "14265": 155,
        "14266": 18,
        "14267": 28,
        "14268": 5,
        "14269": 231,
        "14270": 48,
        "14271": 103,
        "14272": 219,
        "14273": 170,
        "14274": 164,
        "14275": 50,
        "14276": 42,
        "14277": 243,
        "14278": 82,
        "14279": 69,
        "14280": 241,
        "14281": 137,
        "14282": 83,
        "14283": 149,
        "14284": 153,
        "14285": 201,
        "14286": 212,
        "14287": 151,
        "14288": 210,
        "14289": 97,
        "14290": 147,
        "14291": 169,
        "14292": 5,
        "14293": 119,
        "14294": 5,
        "14295": 225,
        "14296": 154,
        "14297": 89,
        "14298": 11,
        "14299": 171,
        "14300": 24,
        "14301": 51,
        "14302": 244,
        "14303": 107,
        "14304": 169,
        "14305": 55,
        "14306": 111,
        "14307": 245,
        "14308": 160,
        "14309": 30,
        "14310": 38,
        "14311": 44,
        "14312": 30,
        "14313": 148,
        "14314": 64,
        "14315": 221,
        "14316": 88,
        "14317": 201,
        "14318": 16,
        "14319": 37,
        "14320": 57,
        "14321": 87,
        "14322": 165,
        "14323": 55,
        "14324": 227,
        "14325": 38,
        "14326": 143,
        "14327": 122,
        "14328": 220,
        "14329": 204,
        "14330": 3,
        "14331": 216,
        "14332": 189,
        "14333": 241,
        "14334": 164,
        "14335": 110,
        "14336": 119,
        "14337": 108,
        "14338": 86,
        "14339": 99,
        "14340": 1,
        "14341": 219,
        "14342": 2,
        "14343": 106,
        "14344": 17,
        "14345": 126,
        "14346": 207,
        "14347": 174,
        "14348": 43,
        "14349": 50,
        "14350": 95,
        "14351": 201,
        "14352": 138,
        "14353": 173,
        "14354": 115,
        "14355": 124,
        "14356": 105,
        "14357": 235,
        "14358": 6,
        "14359": 2,
        "14360": 201,
        "14361": 128,
        "14362": 80,
        "14363": 113,
        "14364": 141,
        "14365": 56,
        "14366": 141,
        "14367": 97,
        "14368": 158,
        "14369": 207,
        "14370": 162,
        "14371": 34,
        "14372": 226,
        "14373": 227,
        "14374": 200,
        "14375": 121,
        "14376": 203,
        "14377": 11,
        "14378": 177,
        "14379": 116,
        "14380": 76,
        "14381": 99,
        "14382": 189,
        "14383": 181,
        "14384": 133,
        "14385": 200,
        "14386": 131,
        "14387": 237,
        "14388": 244,
        "14389": 220,
        "14390": 114,
        "14391": 96,
        "14392": 46,
        "14393": 145,
        "14394": 133,
        "14395": 13,
        "14396": 20,
        "14397": 53,
        "14398": 139,
        "14399": 73,
        "14400": 243,
        "14401": 61,
        "14402": 222,
        "14403": 254,
        "14404": 62,
        "14405": 253,
        "14406": 22,
        "14407": 206,
        "14408": 194,
        "14409": 153,
        "14410": 86,
        "14411": 112,
        "14412": 193,
        "14413": 125,
        "14414": 168,
        "14415": 93,
        "14416": 64,
        "14417": 10,
        "14418": 162,
        "14419": 248,
        "14420": 245,
        "14421": 79,
        "14422": 169,
        "14423": 105,
        "14424": 10,
        "14425": 142,
        "14426": 206,
        "14427": 149,
        "14428": 178,
        "14429": 193,
        "14430": 0,
        "14431": 57,
        "14432": 5,
        "14433": 101,
        "14434": 166,
        "14435": 170,
        "14436": 113,
        "14437": 239,
        "14438": 144,
        "14439": 81,
        "14440": 82,
        "14441": 1,
        "14442": 59,
        "14443": 202,
        "14444": 248,
        "14445": 184,
        "14446": 227,
        "14447": 219,
        "14448": 72,
        "14449": 155,
        "14450": 121,
        "14451": 32,
        "14452": 2,
        "14453": 147,
        "14454": 165,
        "14455": 5,
        "14456": 193,
        "14457": 104,
        "14458": 247,
        "14459": 0,
        "14460": 23,
        "14461": 237,
        "14462": 6,
        "14463": 98,
        "14464": 27,
        "14465": 187,
        "14466": 9,
        "14467": 156,
        "14468": 238,
        "14469": 68,
        "14470": 93,
        "14471": 130,
        "14472": 254,
        "14473": 225,
        "14474": 176,
        "14475": 106,
        "14476": 49,
        "14477": 116,
        "14478": 205,
        "14479": 85,
        "14480": 209,
        "14481": 56,
        "14482": 83,
        "14483": 1,
        "14484": 235,
        "14485": 205,
        "14486": 58,
        "14487": 236,
        "14488": 239,
        "14489": 136,
        "14490": 197,
        "14491": 134,
        "14492": 229,
        "14493": 240,
        "14494": 213,
        "14495": 202,
        "14496": 138,
        "14497": 193,
        "14498": 133,
        "14499": 172,
        "14500": 236,
        "14501": 109,
        "14502": 157,
        "14503": 48,
        "14504": 197,
        "14505": 103,
        "14506": 203,
        "14507": 3,
        "14508": 26,
        "14509": 129,
        "14510": 48,
        "14511": 63,
        "14512": 150,
        "14513": 62,
        "14514": 232,
        "14515": 93,
        "14516": 145,
        "14517": 158,
        "14518": 216,
        "14519": 150,
        "14520": 144,
        "14521": 231,
        "14522": 205,
        "14523": 17,
        "14524": 154,
        "14525": 77,
        "14526": 224,
        "14527": 186,
        "14528": 35,
        "14529": 128,
        "14530": 118,
        "14531": 93,
        "14532": 17,
        "14533": 169,
        "14534": 199,
        "14535": 64,
        "14536": 25,
        "14537": 160,
        "14538": 94,
        "14539": 207,
        "14540": 194,
        "14541": 179,
        "14542": 98,
        "14543": 52,
        "14544": 192,
        "14545": 29,
        "14546": 182,
        "14547": 1,
        "14548": 164,
        "14549": 211,
        "14550": 43,
        "14551": 217,
        "14552": 151,
        "14553": 163,
        "14554": 216,
        "14555": 182,
        "14556": 117,
        "14557": 185,
        "14558": 129,
        "14559": 242,
        "14560": 88,
        "14561": 184,
        "14562": 7,
        "14563": 123,
        "14564": 242,
        "14565": 190,
        "14566": 187,
        "14567": 220,
        "14568": 84,
        "14569": 216,
        "14570": 36,
        "14571": 131,
        "14572": 101,
        "14573": 102,
        "14574": 207,
        "14575": 104,
        "14576": 220,
        "14577": 53,
        "14578": 164,
        "14579": 175,
        "14580": 70,
        "14581": 29,
        "14582": 190,
        "14583": 224,
        "14584": 5,
        "14585": 94,
        "14586": 118,
        "14587": 186,
        "14588": 55,
        "14589": 178,
        "14590": 138,
        "14591": 9,
        "14592": 100,
        "14593": 82,
        "14594": 66,
        "14595": 241,
        "14596": 142,
        "14597": 255,
        "14598": 246,
        "14599": 39,
        "14600": 135,
        "14601": 64,
        "14602": 104,
        "14603": 213,
        "14604": 139,
        "14605": 65,
        "14606": 152,
        "14607": 183,
        "14608": 162,
        "14609": 119,
        "14610": 183,
        "14611": 38,
        "14612": 172,
        "14613": 29,
        "14614": 76,
        "14615": 247,
        "14616": 160,
        "14617": 94,
        "14618": 153,
        "14619": 161,
        "14620": 95,
        "14621": 253,
        "14622": 69,
        "14623": 172,
        "14624": 110,
        "14625": 82,
        "14626": 109,
        "14627": 62,
        "14628": 136,
        "14629": 186,
        "14630": 22,
        "14631": 57,
        "14632": 179,
        "14633": 30,
        "14634": 237,
        "14635": 57,
        "14636": 76,
        "14637": 21,
        "14638": 11,
        "14639": 181,
        "14640": 78,
        "14641": 119,
        "14642": 28,
        "14643": 27,
        "14644": 203,
        "14645": 189,
        "14646": 190,
        "14647": 249,
        "14648": 36,
        "14649": 22,
        "14650": 52,
        "14651": 141,
        "14652": 11,
        "14653": 192,
        "14654": 42,
        "14655": 102,
        "14656": 241,
        "14657": 72,
        "14658": 34,
        "14659": 83,
        "14660": 127,
        "14661": 32,
        "14662": 88,
        "14663": 47,
        "14664": 239,
        "14665": 195,
        "14666": 229,
        "14667": 173,
        "14668": 216,
        "14669": 230,
        "14670": 9,
        "14671": 113,
        "14672": 239,
        "14673": 84,
        "14674": 127,
        "14675": 158,
        "14676": 204,
        "14677": 251,
        "14678": 192,
        "14679": 134,
        "14680": 232,
        "14681": 104,
        "14682": 83,
        "14683": 250,
        "14684": 19,
        "14685": 192,
        "14686": 13,
        "14687": 132,
        "14688": 217,
        "14689": 59,
        "14690": 39,
        "14691": 130,
        "14692": 180,
        "14693": 133,
        "14694": 174,
        "14695": 244,
        "14696": 229,
        "14697": 201,
        "14698": 6,
        "14699": 219,
        "14700": 159,
        "14701": 56,
        "14702": 123,
        "14703": 148,
        "14704": 54,
        "14705": 123,
        "14706": 244,
        "14707": 117,
        "14708": 59,
        "14709": 240,
        "14710": 142,
        "14711": 6,
        "14712": 245,
        "14713": 175,
        "14714": 70,
        "14715": 3,
        "14716": 15,
        "14717": 130,
        "14718": 124,
        "14719": 162,
        "14720": 114,
        "14721": 168,
        "14722": 171,
        "14723": 94,
        "14724": 5,
        "14725": 210,
        "14726": 76,
        "14727": 5,
        "14728": 163,
        "14729": 162,
        "14730": 188,
        "14731": 57,
        "14732": 25,
        "14733": 68,
        "14734": 71,
        "14735": 252,
        "14736": 167,
        "14737": 253,
        "14738": 92,
        "14739": 133,
        "14740": 48,
        "14741": 147,
        "14742": 136,
        "14743": 108,
        "14744": 169,
        "14745": 59,
        "14746": 19,
        "14747": 94,
        "14748": 121,
        "14749": 3,
        "14750": 31,
        "14751": 122,
        "14752": 185,
        "14753": 172,
        "14754": 56,
        "14755": 168,
        "14756": 12,
        "14757": 153,
        "14758": 137,
        "14759": 124,
        "14760": 122,
        "14761": 186,
        "14762": 41,
        "14763": 204,
        "14764": 6,
        "14765": 85,
        "14766": 35,
        "14767": 47,
        "14768": 248,
        "14769": 17,
        "14770": 122,
        "14771": 34,
        "14772": 23,
        "14773": 128,
        "14774": 154,
        "14775": 39,
        "14776": 68,
        "14777": 58,
        "14778": 234,
        "14779": 78,
        "14780": 93,
        "14781": 94,
        "14782": 33,
        "14783": 227,
        "14784": 144,
        "14785": 79,
        "14786": 181,
        "14787": 180,
        "14788": 176,
        "14789": 45,
        "14790": 111,
        "14791": 182,
        "14792": 30,
        "14793": 141,
        "14794": 211,
        "14795": 173,
        "14796": 211,
        "14797": 96,
        "14798": 59,
        "14799": 17,
        "14800": 50,
        "14801": 141,
        "14802": 88,
        "14803": 131,
        "14804": 113,
        "14805": 160,
        "14806": 192,
        "14807": 235,
        "14808": 133,
        "14809": 49,
        "14810": 55,
        "14811": 144,
        "14812": 23,
        "14813": 134,
        "14814": 70,
        "14815": 86,
        "14816": 31,
        "14817": 137,
        "14818": 226,
        "14819": 103,
        "14820": 61,
        "14821": 88,
        "14822": 121,
        "14823": 73,
        "14824": 255,
        "14825": 144,
        "14826": 15,
        "14827": 242,
        "14828": 238,
        "14829": 235,
        "14830": 223,
        "14831": 17,
        "14832": 46,
        "14833": 56,
        "14834": 202,
        "14835": 240,
        "14836": 165,
        "14837": 189,
        "14838": 15,
        "14839": 134,
        "14840": 229,
        "14841": 225,
        "14842": 255,
        "14843": 141,
        "14844": 214,
        "14845": 231,
        "14846": 55,
        "14847": 225,
        "14848": 27,
        "14849": 36,
        "14850": 254,
        "14851": 210,
        "14852": 240,
        "14853": 193,
        "14854": 49,
        "14855": 65,
        "14856": 67,
        "14857": 18,
        "14858": 183,
        "14859": 176,
        "14860": 128,
        "14861": 63,
        "14862": 224,
        "14863": 186,
        "14864": 168,
        "14865": 132,
        "14866": 219,
        "14867": 94,
        "14868": 236,
        "14869": 107,
        "14870": 109,
        "14871": 22,
        "14872": 141,
        "14873": 69,
        "14874": 19,
        "14875": 35,
        "14876": 253,
        "14877": 222,
        "14878": 112,
        "14879": 21,
        "14880": 243,
        "14881": 136,
        "14882": 22,
        "14883": 227,
        "14884": 135,
        "14885": 91,
        "14886": 125,
        "14887": 46,
        "14888": 22,
        "14889": 170,
        "14890": 196,
        "14891": 75,
        "14892": 170,
        "14893": 44,
        "14894": 58,
        "14895": 44,
        "14896": 228,
        "14897": 213,
        "14898": 136,
        "14899": 29,
        "14900": 14,
        "14901": 14,
        "14902": 210,
        "14903": 48,
        "14904": 177,
        "14905": 134,
        "14906": 72,
        "14907": 128,
        "14908": 156,
        "14909": 111,
        "14910": 42,
        "14911": 101,
        "14912": 63,
        "14913": 108,
        "14914": 182,
        "14915": 173,
        "14916": 71,
        "14917": 57,
        "14918": 27,
        "14919": 138,
        "14920": 255,
        "14921": 13,
        "14922": 175,
        "14923": 47,
        "14924": 161,
        "14925": 171,
        "14926": 171,
        "14927": 53,
        "14928": 155,
        "14929": 151,
        "14930": 182,
        "14931": 213,
        "14932": 148,
        "14933": 183,
        "14934": 31,
        "14935": 145,
        "14936": 137,
        "14937": 240,
        "14938": 8,
        "14939": 76,
        "14940": 37,
        "14941": 76,
        "14942": 43,
        "14943": 128,
        "14944": 207,
        "14945": 99,
        "14946": 240,
        "14947": 192,
        "14948": 119,
        "14949": 105,
        "14950": 118,
        "14951": 152,
        "14952": 246,
        "14953": 31,
        "14954": 234,
        "14955": 174,
        "14956": 150,
        "14957": 118,
        "14958": 175,
        "14959": 203,
        "14960": 87,
        "14961": 76,
        "14962": 48,
        "14963": 61,
        "14964": 128,
        "14965": 95,
        "14966": 87,
        "14967": 152,
        "14968": 65,
        "14969": 27,
        "14970": 156,
        "14971": 113,
        "14972": 79,
        "14973": 197,
        "14974": 48,
        "14975": 60,
        "14976": 166,
        "14977": 161,
        "14978": 252,
        "14979": 34,
        "14980": 222,
        "14981": 39,
        "14982": 43,
        "14983": 156,
        "14984": 90,
        "14985": 200,
        "14986": 199,
        "14987": 1,
        "14988": 249,
        "14989": 141,
        "14990": 72,
        "14991": 26,
        "14992": 97,
        "14993": 105,
        "14994": 242,
        "14995": 173,
        "14996": 23,
        "14997": 176,
        "14998": 37,
        "14999": 95,
        "15000": 155,
        "15001": 144,
        "15002": 131,
        "15003": 27,
        "15004": 20,
        "15005": 82,
        "15006": 244,
        "15007": 5,
        "15008": 183,
        "15009": 50,
        "15010": 164,
        "15011": 205,
        "15012": 198,
        "15013": 251,
        "15014": 29,
        "15015": 223,
        "15016": 193,
        "15017": 42,
        "15018": 130,
        "15019": 9,
        "15020": 236,
        "15021": 70,
        "15022": 90,
        "15023": 105,
        "15024": 61,
        "15025": 87,
        "15026": 52,
        "15027": 12,
        "15028": 80,
        "15029": 183,
        "15030": 19,
        "15031": 226,
        "15032": 196,
        "15033": 147,
        "15034": 11,
        "15035": 248,
        "15036": 158,
        "15037": 171,
        "15038": 57,
        "15039": 22,
        "15040": 253,
        "15041": 96,
        "15042": 177,
        "15043": 165,
        "15044": 33,
        "15045": 80,
        "15046": 149,
        "15047": 145,
        "15048": 144,
        "15049": 26,
        "15050": 55,
        "15051": 209,
        "15052": 218,
        "15053": 124,
        "15054": 16,
        "15055": 255,
        "15056": 241,
        "15057": 125,
        "15058": 95,
        "15059": 174,
        "15060": 198,
        "15061": 95,
        "15062": 118,
        "15063": 185,
        "15064": 49,
        "15065": 165,
        "15066": 2,
        "15067": 56,
        "15068": 166,
        "15069": 122,
        "15070": 227,
        "15071": 105,
        "15072": 125,
        "15073": 13,
        "15074": 93,
        "15075": 154,
        "15076": 130,
        "15077": 26,
        "15078": 29,
        "15079": 105,
        "15080": 162,
        "15081": 66,
        "15082": 60,
        "15083": 245,
        "15084": 193,
        "15085": 163,
        "15086": 79,
        "15087": 111,
        "15088": 244,
        "15089": 145,
        "15090": 204,
        "15091": 148,
        "15092": 3,
        "15093": 161,
        "15094": 204,
        "15095": 118,
        "15096": 200,
        "15097": 199,
        "15098": 168,
        "15099": 216,
        "15100": 135,
        "15101": 97,
        "15102": 199,
        "15103": 198,
        "15104": 143,
        "15105": 158,
        "15106": 75,
        "15107": 172,
        "15108": 230,
        "15109": 222,
        "15110": 246,
        "15111": 82,
        "15112": 149,
        "15113": 21,
        "15114": 189,
        "15115": 51,
        "15116": 93,
        "15117": 184,
        "15118": 102,
        "15119": 229,
        "15120": 197,
        "15121": 129,
        "15122": 100,
        "15123": 184,
        "15124": 53,
        "15125": 165,
        "15126": 73,
        "15127": 243,
        "15128": 37,
        "15129": 107,
        "15130": 13,
        "15131": 153,
        "15132": 200,
        "15133": 216,
        "15134": 182,
        "15135": 12,
        "15136": 1,
        "15137": 191,
        "15138": 84,
        "15139": 161,
        "15140": 221,
        "15141": 5,
        "15142": 175,
        "15143": 241,
        "15144": 235,
        "15145": 25,
        "15146": 142,
        "15147": 163,
        "15148": 216,
        "15149": 137,
        "15150": 251,
        "15151": 122,
        "15152": 146,
        "15153": 64,
        "15154": 108,
        "15155": 113,
        "15156": 99,
        "15157": 8,
        "15158": 43,
        "15159": 180,
        "15160": 225,
        "15161": 254,
        "15162": 108,
        "15163": 160,
        "15164": 196,
        "15165": 117,
        "15166": 162,
        "15167": 70,
        "15168": 140,
        "15169": 191,
        "15170": 254,
        "15171": 154,
        "15172": 14,
        "15173": 73,
        "15174": 209,
        "15175": 16,
        "15176": 189,
        "15177": 244,
        "15178": 71,
        "15179": 210,
        "15180": 11,
        "15181": 140,
        "15182": 53,
        "15183": 2,
        "15184": 177,
        "15185": 186,
        "15186": 73,
        "15187": 133,
        "15188": 49,
        "15189": 34,
        "15190": 210,
        "15191": 219,
        "15192": 160,
        "15193": 86,
        "15194": 8,
        "15195": 129,
        "15196": 216,
        "15197": 233,
        "15198": 183,
        "15199": 124,
        "15200": 69,
        "15201": 28,
        "15202": 209,
        "15203": 41,
        "15204": 18,
        "15205": 215,
        "15206": 243,
        "15207": 164,
        "15208": 199,
        "15209": 57,
        "15210": 128,
        "15211": 233,
        "15212": 244,
        "15213": 37,
        "15214": 70,
        "15215": 129,
        "15216": 10,
        "15217": 228,
        "15218": 107,
        "15219": 248,
        "15220": 156,
        "15221": 69,
        "15222": 125,
        "15223": 44,
        "15224": 17,
        "15225": 22,
        "15226": 15,
        "15227": 83,
        "15228": 188,
        "15229": 102,
        "15230": 174,
        "15231": 239,
        "15232": 56,
        "15233": 138,
        "15234": 13,
        "15235": 180,
        "15236": 30,
        "15237": 130,
        "15238": 76,
        "15239": 55,
        "15240": 242,
        "15241": 48,
        "15242": 255,
        "15243": 198,
        "15244": 188,
        "15245": 47,
        "15246": 200,
        "15247": 233,
        "15248": 63,
        "15249": 151,
        "15250": 173,
        "15251": 91,
        "15252": 186,
        "15253": 156,
        "15254": 226,
        "15255": 242,
        "15256": 21,
        "15257": 197,
        "15258": 12,
        "15259": 29,
        "15260": 221,
        "15261": 181,
        "15262": 51,
        "15263": 242,
        "15264": 160,
        "15265": 155,
        "15266": 81,
        "15267": 173,
        "15268": 95,
        "15269": 122,
        "15270": 252,
        "15271": 40,
        "15272": 213,
        "15273": 128,
        "15274": 231,
        "15275": 142,
        "15276": 27,
        "15277": 201,
        "15278": 215,
        "15279": 130,
        "15280": 147,
        "15281": 87,
        "15282": 71,
        "15283": 20,
        "15284": 248,
        "15285": 226,
        "15286": 195,
        "15287": 68,
        "15288": 16,
        "15289": 235,
        "15290": 105,
        "15291": 13,
        "15292": 102,
        "15293": 177,
        "15294": 182,
        "15295": 189,
        "15296": 28,
        "15297": 23,
        "15298": 11,
        "15299": 180,
        "15300": 221,
        "15301": 213,
        "15302": 29,
        "15303": 126,
        "15304": 48,
        "15305": 170,
        "15306": 130,
        "15307": 130,
        "15308": 232,
        "15309": 71,
        "15310": 81,
        "15311": 147,
        "15312": 105,
        "15313": 165,
        "15314": 165,
        "15315": 151,
        "15316": 4,
        "15317": 189,
        "15318": 51,
        "15319": 209,
        "15320": 6,
        "15321": 210,
        "15322": 62,
        "15323": 94,
        "15324": 48,
        "15325": 200,
        "15326": 38,
        "15327": 66,
        "15328": 188,
        "15329": 215,
        "15330": 90,
        "15331": 15,
        "15332": 70,
        "15333": 198,
        "15334": 252,
        "15335": 159,
        "15336": 139,
        "15337": 138,
        "15338": 156,
        "15339": 195,
        "15340": 27,
        "15341": 254,
        "15342": 70,
        "15343": 167,
        "15344": 47,
        "15345": 213,
        "15346": 202,
        "15347": 198,
        "15348": 179,
        "15349": 63,
        "15350": 29,
        "15351": 96,
        "15352": 200,
        "15353": 195,
        "15354": 125,
        "15355": 149,
        "15356": 86,
        "15357": 186,
        "15358": 77,
        "15359": 235,
        "15360": 3,
        "15361": 147,
        "15362": 128,
        "15363": 54,
        "15364": 251,
        "15365": 150,
        "15366": 149,
        "15367": 246,
        "15368": 104,
        "15369": 213,
        "15370": 196,
        "15371": 160,
        "15372": 247,
        "15373": 139,
        "15374": 232,
        "15375": 245,
        "15376": 17,
        "15377": 113,
        "15378": 201,
        "15379": 209,
        "15380": 82,
        "15381": 231,
        "15382": 61,
        "15383": 125,
        "15384": 71,
        "15385": 247,
        "15386": 72,
        "15387": 58,
        "15388": 96,
        "15389": 212,
        "15390": 122,
        "15391": 83,
        "15392": 253,
        "15393": 163,
        "15394": 92,
        "15395": 140,
        "15396": 232,
        "15397": 77,
        "15398": 105,
        "15399": 148,
        "15400": 15,
        "15401": 91,
        "15402": 38,
        "15403": 245,
        "15404": 71,
        "15405": 78,
        "15406": 196,
        "15407": 103,
        "15408": 18,
        "15409": 183,
        "15410": 157,
        "15411": 70,
        "15412": 65,
        "15413": 66,
        "15414": 44,
        "15415": 54,
        "15416": 47,
        "15417": 197,
        "15418": 19,
        "15419": 51,
        "15420": 63,
        "15421": 130,
        "15422": 219,
        "15423": 112,
        "15424": 207,
        "15425": 117,
        "15426": 140,
        "15427": 31,
        "15428": 171,
        "15429": 161,
        "15430": 37,
        "15431": 171,
        "15432": 174,
        "15433": 98,
        "15434": 58,
        "15435": 127,
        "15436": 98,
        "15437": 202,
        "15438": 167,
        "15439": 45,
        "15440": 199,
        "15441": 98,
        "15442": 197,
        "15443": 38,
        "15444": 51,
        "15445": 55,
        "15446": 162,
        "15447": 94,
        "15448": 15,
        "15449": 123,
        "15450": 100,
        "15451": 216,
        "15452": 14,
        "15453": 189,
        "15454": 39,
        "15455": 105,
        "15456": 211,
        "15457": 57,
        "15458": 150,
        "15459": 94,
        "15460": 186,
        "15461": 211,
        "15462": 93,
        "15463": 80,
        "15464": 19,
        "15465": 241,
        "15466": 183,
        "15467": 16,
        "15468": 88,
        "15469": 158,
        "15470": 148,
        "15471": 19,
        "15472": 176,
        "15473": 76,
        "15474": 38,
        "15475": 112,
        "15476": 235,
        "15477": 194,
        "15478": 255,
        "15479": 77,
        "15480": 143,
        "15481": 12,
        "15482": 114,
        "15483": 66,
        "15484": 183,
        "15485": 238,
        "15486": 50,
        "15487": 213,
        "15488": 134,
        "15489": 61,
        "15490": 237,
        "15491": 211,
        "15492": 181,
        "15493": 84,
        "15494": 161,
        "15495": 91,
        "15496": 231,
        "15497": 128,
        "15498": 9,
        "15499": 133,
        "15500": 32,
        "15501": 177,
        "15502": 117,
        "15503": 201,
        "15504": 249,
        "15505": 177,
        "15506": 183,
        "15507": 92,
        "15508": 182,
        "15509": 200,
        "15510": 58,
        "15511": 200,
        "15512": 39,
        "15513": 224,
        "15514": 96,
        "15515": 224,
        "15516": 228,
        "15517": 23,
        "15518": 40,
        "15519": 53,
        "15520": 32,
        "15521": 184,
        "15522": 81,
        "15523": 249,
        "15524": 235,
        "15525": 3,
        "15526": 118,
        "15527": 43,
        "15528": 52,
        "15529": 254,
        "15530": 24,
        "15531": 135,
        "15532": 136,
        "15533": 213,
        "15534": 13,
        "15535": 127,
        "15536": 79,
        "15537": 129,
        "15538": 63,
        "15539": 240,
        "15540": 56,
        "15541": 193,
        "15542": 248,
        "15543": 13,
        "15544": 47,
        "15545": 225,
        "15546": 14,
        "15547": 58,
        "15548": 76,
        "15549": 120,
        "15550": 180,
        "15551": 171,
        "15552": 84,
        "15553": 37,
        "15554": 81,
        "15555": 171,
        "15556": 147,
        "15557": 180,
        "15558": 8,
        "15559": 138,
        "15560": 140,
        "15561": 18,
        "15562": 8,
        "15563": 207,
        "15564": 133,
        "15565": 41,
        "15566": 149,
        "15567": 45,
        "15568": 68,
        "15569": 129,
        "15570": 65,
        "15571": 219,
        "15572": 1,
        "15573": 143,
        "15574": 179,
        "15575": 160,
        "15576": 230,
        "15577": 152,
        "15578": 122,
        "15579": 89,
        "15580": 135,
        "15581": 103,
        "15582": 122,
        "15583": 136,
        "15584": 254,
        "15585": 221,
        "15586": 254,
        "15587": 3,
        "15588": 176,
        "15589": 250,
        "15590": 149,
        "15591": 231,
        "15592": 210,
        "15593": 198,
        "15594": 5,
        "15595": 179,
        "15596": 203,
        "15597": 18,
        "15598": 118,
        "15599": 158,
        "15600": 34,
        "15601": 94,
        "15602": 21,
        "15603": 175,
        "15604": 206,
        "15605": 162,
        "15606": 38,
        "15607": 4,
        "15608": 163,
        "15609": 196,
        "15610": 167,
        "15611": 120,
        "15612": 38,
        "15613": 178,
        "15614": 163,
        "15615": 108,
        "15616": 189,
        "15617": 166,
        "15618": 0,
        "15619": 84,
        "15620": 169,
        "15621": 58,
        "15622": 74,
        "15623": 42,
        "15624": 48,
        "15625": 29,
        "15626": 23,
        "15627": 14,
        "15628": 235,
        "15629": 110,
        "15630": 199,
        "15631": 145,
        "15632": 147,
        "15633": 167,
        "15634": 190,
        "15635": 249,
        "15636": 19,
        "15637": 75,
        "15638": 95,
        "15639": 223,
        "15640": 138,
        "15641": 247,
        "15642": 26,
        "15643": 215,
        "15644": 148,
        "15645": 105,
        "15646": 1,
        "15647": 119,
        "15648": 44,
        "15649": 86,
        "15650": 212,
        "15651": 204,
        "15652": 118,
        "15653": 121,
        "15654": 122,
        "15655": 236,
        "15656": 162,
        "15657": 190,
        "15658": 55,
        "15659": 144,
        "15660": 148,
        "15661": 220,
        "15662": 119,
        "15663": 176,
        "15664": 109,
        "15665": 53,
        "15666": 100,
        "15667": 110,
        "15668": 138,
        "15669": 54,
        "15670": 225,
        "15671": 176,
        "15672": 137,
        "15673": 231,
        "15674": 157,
        "15675": 243,
        "15676": 151,
        "15677": 69,
        "15678": 254,
        "15679": 42,
        "15680": 209,
        "15681": 139,
        "15682": 145,
        "15683": 30,
        "15684": 16,
        "15685": 18,
        "15686": 124,
        "15687": 226,
        "15688": 84,
        "15689": 85,
        "15690": 243,
        "15691": 236,
        "15692": 142,
        "15693": 28,
        "15694": 79,
        "15695": 54,
        "15696": 196,
        "15697": 116,
        "15698": 222,
        "15699": 168,
        "15700": 248,
        "15701": 136,
        "15702": 137,
        "15703": 0,
        "15704": 104,
        "15705": 17,
        "15706": 255,
        "15707": 96,
        "15708": 192,
        "15709": 99,
        "15710": 165,
        "15711": 80,
        "15712": 93,
        "15713": 55,
        "15714": 216,
        "15715": 30,
        "15716": 166,
        "15717": 167,
        "15718": 63,
        "15719": 32,
        "15720": 21,
        "15721": 8,
        "15722": 226,
        "15723": 252,
        "15724": 139,
        "15725": 242,
        "15726": 211,
        "15727": 55,
        "15728": 205,
        "15729": 26,
        "15730": 193,
        "15731": 27,
        "15732": 92,
        "15733": 176,
        "15734": 134,
        "15735": 70,
        "15736": 244,
        "15737": 162,
        "15738": 145,
        "15739": 149,
        "15740": 5,
        "15741": 42,
        "15742": 214,
        "15743": 21,
        "15744": 24,
        "15745": 53,
        "15746": 225,
        "15747": 81,
        "15748": 201,
        "15749": 8,
        "15750": 233,
        "15751": 69,
        "15752": 41,
        "15753": 76,
        "15754": 176,
        "15755": 149,
        "15756": 52,
        "15757": 36,
        "15758": 33,
        "15759": 40,
        "15760": 210,
        "15761": 90,
        "15762": 63,
        "15763": 56,
        "15764": 126,
        "15765": 229,
        "15766": 233,
        "15767": 173,
        "15768": 94,
        "15769": 124,
        "15770": 44,
        "15771": 1,
        "15772": 113,
        "15773": 191,
        "15774": 54,
        "15775": 139,
        "15776": 186,
        "15777": 252,
        "15778": 48,
        "15779": 220,
        "15780": 182,
        "15781": 179,
        "15782": 138,
        "15783": 242,
        "15784": 166,
        "15785": 69,
        "15786": 41,
        "15787": 37,
        "15788": 208,
        "15789": 229,
        "15790": 247,
        "15791": 152,
        "15792": 89,
        "15793": 239,
        "15794": 79,
        "15795": 110,
        "15796": 48,
        "15797": 13,
        "15798": 16,
        "15799": 54,
        "15800": 46,
        "15801": 114,
        "15802": 216,
        "15803": 86,
        "15804": 15,
        "15805": 98,
        "15806": 6,
        "15807": 90,
        "15808": 195,
        "15809": 183,
        "15810": 162,
        "15811": 8,
        "15812": 236,
        "15813": 9,
        "15814": 136,
        "15815": 103,
        "15816": 90,
        "15817": 58,
        "15818": 1,
        "15819": 187,
        "15820": 243,
        "15821": 44,
        "15822": 89,
        "15823": 22,
        "15824": 246,
        "15825": 144,
        "15826": 69,
        "15827": 129,
        "15828": 121,
        "15829": 195,
        "15830": 13,
        "15831": 227,
        "15832": 167,
        "15833": 65,
        "15834": 51,
        "15835": 52,
        "15836": 249,
        "15837": 159,
        "15838": 113,
        "15839": 17,
        "15840": 17,
        "15841": 178,
        "15842": 217,
        "15843": 42,
        "15844": 21,
        "15845": 93,
        "15846": 212,
        "15847": 247,
        "15848": 228,
        "15849": 103,
        "15850": 123,
        "15851": 200,
        "15852": 47,
        "15853": 164,
        "15854": 60,
        "15855": 74,
        "15856": 163,
        "15857": 104,
        "15858": 223,
        "15859": 170,
        "15860": 205,
        "15861": 108,
        "15862": 38,
        "15863": 102,
        "15864": 194,
        "15865": 132,
        "15866": 219,
        "15867": 1,
        "15868": 134,
        "15869": 21,
        "15870": 139,
        "15871": 92,
        "15872": 131,
        "15873": 182,
        "15874": 22,
        "15875": 66,
        "15876": 157,
        "15877": 82,
        "15878": 162,
        "15879": 252,
        "15880": 251,
        "15881": 110,
        "15882": 131,
        "15883": 148,
        "15884": 180,
        "15885": 239,
        "15886": 89,
        "15887": 37,
        "15888": 50,
        "15889": 55,
        "15890": 31,
        "15891": 86,
        "15892": 158,
        "15893": 93,
        "15894": 43,
        "15895": 28,
        "15896": 251,
        "15897": 141,
        "15898": 199,
        "15899": 2,
        "15900": 247,
        "15901": 110,
        "15902": 240,
        "15903": 10,
        "15904": 20,
        "15905": 144,
        "15906": 4,
        "15907": 133,
        "15908": 58,
        "15909": 97,
        "15910": 187,
        "15911": 112,
        "15912": 44,
        "15913": 138,
        "15914": 213,
        "15915": 145,
        "15916": 109,
        "15917": 235,
        "15918": 176,
        "15919": 1,
        "15920": 141,
        "15921": 5,
        "15922": 248,
        "15923": 23,
        "15924": 23,
        "15925": 145,
        "15926": 219,
        "15927": 13,
        "15928": 249,
        "15929": 162,
        "15930": 205,
        "15931": 147,
        "15932": 54,
        "15933": 82,
        "15934": 215,
        "15935": 220,
        "15936": 229,
        "15937": 223,
        "15938": 222,
        "15939": 92,
        "15940": 248,
        "15941": 217,
        "15942": 68,
        "15943": 79,
        "15944": 142,
        "15945": 57,
        "15946": 122,
        "15947": 189,
        "15948": 90,
        "15949": 129,
        "15950": 184,
        "15951": 109,
        "15952": 33,
        "15953": 55,
        "15954": 157,
        "15955": 12,
        "15956": 221,
        "15957": 48,
        "15958": 40,
        "15959": 73,
        "15960": 248,
        "15961": 182,
        "15962": 210,
        "15963": 98,
        "15964": 149,
        "15965": 142,
        "15966": 12,
        "15967": 210,
        "15968": 218,
        "15969": 83,
        "15970": 157,
        "15971": 137,
        "15972": 250,
        "15973": 142,
        "15974": 209,
        "15975": 68,
        "15976": 66,
        "15977": 179,
        "15978": 205,
        "15979": 234,
        "15980": 71,
        "15981": 169,
        "15982": 36,
        "15983": 25,
        "15984": 60,
        "15985": 106,
        "15986": 243,
        "15987": 18,
        "15988": 101,
        "15989": 237,
        "15990": 57,
        "15991": 44,
        "15992": 60,
        "15993": 207,
        "15994": 136,
        "15995": 74,
        "15996": 239,
        "15997": 231,
        "15998": 57,
        "15999": 198,
        "16000": 50,
        "16001": 18,
        "16002": 20,
        "16003": 19,
        "16004": 175,
        "16005": 223,
        "16006": 49,
        "16007": 225,
        "16008": 165,
        "16009": 134,
        "16010": 31,
        "16011": 162,
        "16012": 86,
        "16013": 22,
        "16014": 127,
        "16015": 34,
        "16016": 7,
        "16017": 194,
        "16018": 10,
        "16019": 235,
        "16020": 224,
        "16021": 60,
        "16022": 96,
        "16023": 191,
        "16024": 21,
        "16025": 211,
        "16026": 161,
        "16027": 215,
        "16028": 66,
        "16029": 38,
        "16030": 183,
        "16031": 46,
        "16032": 197,
        "16033": 16,
        "16034": 51,
        "16035": 165,
        "16036": 253,
        "16037": 57,
        "16038": 100,
        "16039": 71,
        "16040": 135,
        "16041": 24,
        "16042": 147,
        "16043": 81,
        "16044": 111,
        "16045": 97,
        "16046": 49,
        "16047": 17,
        "16048": 74,
        "16049": 0,
        "16050": 34,
        "16051": 61,
        "16052": 181,
        "16053": 147,
        "16054": 102,
        "16055": 170,
        "16056": 48,
        "16057": 237,
        "16058": 195,
        "16059": 49,
        "16060": 24,
        "16061": 155,
        "16062": 15,
        "16063": 41,
        "16064": 183,
        "16065": 207,
        "16066": 161,
        "16067": 221,
        "16068": 184,
        "16069": 245,
        "16070": 83,
        "16071": 149,
        "16072": 69,
        "16073": 232,
        "16074": 15,
        "16075": 141,
        "16076": 109,
        "16077": 63,
        "16078": 145,
        "16079": 149,
        "16080": 144,
        "16081": 62,
        "16082": 79,
        "16083": 200,
        "16084": 142,
        "16085": 87,
        "16086": 154,
        "16087": 111,
        "16088": 252,
        "16089": 167,
        "16090": 232,
        "16091": 128,
        "16092": 62,
        "16093": 94,
        "16094": 196,
        "16095": 129,
        "16096": 79,
        "16097": 10,
        "16098": 47,
        "16099": 187,
        "16100": 61,
        "16101": 16,
        "16102": 207,
        "16103": 168,
        "16104": 72,
        "16105": 53,
        "16106": 107,
        "16107": 17,
        "16108": 240,
        "16109": 94,
        "16110": 37,
        "16111": 25,
        "16112": 124,
        "16113": 245,
        "16114": 166,
        "16115": 192,
        "16116": 219,
        "16117": 76,
        "16118": 61,
        "16119": 246,
        "16120": 233,
        "16121": 13,
        "16122": 1,
        "16123": 72,
        "16124": 33,
        "16125": 143,
        "16126": 218,
        "16127": 106,
        "16128": 159,
        "16129": 244,
        "16130": 75,
        "16131": 228,
        "16132": 68,
        "16133": 88,
        "16134": 101,
        "16135": 170,
        "16136": 110,
        "16137": 48,
        "16138": 109,
        "16139": 41,
        "16140": 54,
        "16141": 45,
        "16142": 90,
        "16143": 143,
        "16144": 172,
        "16145": 30,
        "16146": 115,
        "16147": 137,
        "16148": 17,
        "16149": 216,
        "16150": 37,
        "16151": 227,
        "16152": 205,
        "16153": 238,
        "16154": 214,
        "16155": 211,
        "16156": 28,
        "16157": 34,
        "16158": 144,
        "16159": 211,
        "16160": 38,
        "16161": 215,
        "16162": 141,
        "16163": 224,
        "16164": 204,
        "16165": 205,
        "16166": 102,
        "16167": 108,
        "16168": 65,
        "16169": 16,
        "16170": 1,
        "16171": 196,
        "16172": 217,
        "16173": 61,
        "16174": 30,
        "16175": 18,
        "16176": 32,
        "16177": 1,
        "16178": 195,
        "16179": 166,
        "16180": 99,
        "16181": 42,
        "16182": 34,
        "16183": 52,
        "16184": 119,
        "16185": 2,
        "16186": 162,
        "16187": 74,
        "16188": 59,
        "16189": 179,
        "16190": 209,
        "16191": 76,
        "16192": 38,
        "16193": 201,
        "16194": 53,
        "16195": 250,
        "16196": 238,
        "16197": 161,
        "16198": 129,
        "16199": 230,
        "16200": 183,
        "16201": 33,
        "16202": 19,
        "16203": 238,
        "16204": 32,
        "16205": 92,
        "16206": 44,
        "16207": 6,
        "16208": 108,
        "16209": 205,
        "16210": 129,
        "16211": 248,
        "16212": 196,
        "16213": 168,
        "16214": 17,
        "16215": 148,
        "16216": 190,
        "16217": 135,
        "16218": 48,
        "16219": 119,
        "16220": 85,
        "16221": 161,
        "16222": 85,
        "16223": 23,
        "16224": 157,
        "16225": 66,
        "16226": 4,
        "16227": 66,
        "16228": 36,
        "16229": 44,
        "16230": 72,
        "16231": 199,
        "16232": 35,
        "16233": 68,
        "16234": 77,
        "16235": 42,
        "16236": 251,
        "16237": 222,
        "16238": 234,
        "16239": 250,
        "16240": 205,
        "16241": 210,
        "16242": 171,
        "16243": 139,
        "16244": 168,
        "16245": 142,
        "16246": 51,
        "16247": 102,
        "16248": 92,
        "16249": 109,
        "16250": 16,
        "16251": 228,
        "16252": 143,
        "16253": 139,
        "16254": 168,
        "16255": 234,
        "16256": 49,
        "16257": 170,
        "16258": 53,
        "16259": 114,
        "16260": 98,
        "16261": 150,
        "16262": 93,
        "16263": 35,
        "16264": 226,
        "16265": 248,
        "16266": 245,
        "16267": 125,
        "16268": 219,
        "16269": 97,
        "16270": 1,
        "16271": 22,
        "16272": 228,
        "16273": 124,
        "16274": 132,
        "16275": 114,
        "16276": 46,
        "16277": 41,
        "16278": 137,
        "16279": 38,
        "16280": 36,
        "16281": 186,
        "16282": 140,
        "16283": 249,
        "16284": 184,
        "16285": 134,
        "16286": 68,
        "16287": 30,
        "16288": 237,
        "16289": 163,
        "16290": 65,
        "16291": 124,
        "16292": 68,
        "16293": 7,
        "16294": 140,
        "16295": 60,
        "16296": 46,
        "16297": 172,
        "16298": 113,
        "16299": 9,
        "16300": 171,
        "16301": 15,
        "16302": 247,
        "16303": 43,
        "16304": 27,
        "16305": 89,
        "16306": 160,
        "16307": 3,
        "16308": 74,
        "16309": 121,
        "16310": 224,
        "16311": 4,
        "16312": 242,
        "16313": 75,
        "16314": 122,
        "16315": 195,
        "16316": 176,
        "16317": 181,
        "16318": 137,
        "16319": 69,
        "16320": 192,
        "16321": 72,
        "16322": 77,
        "16323": 102,
        "16324": 156,
        "16325": 91,
        "16326": 22,
        "16327": 123,
        "16328": 135,
        "16329": 58,
        "16330": 119,
        "16331": 6,
        "16332": 210,
        "16333": 74,
        "16334": 164,
        "16335": 11,
        "16336": 132,
        "16337": 103,
        "16338": 120,
        "16339": 90,
        "16340": 59,
        "16341": 129,
        "16342": 30,
        "16343": 31,
        "16344": 172,
        "16345": 32,
        "16346": 29,
        "16347": 103,
        "16348": 10,
        "16349": 150,
        "16350": 1,
        "16351": 70,
        "16352": 119,
        "16353": 148,
        "16354": 198,
        "16355": 18,
        "16356": 9,
        "16357": 168,
        "16358": 88,
        "16359": 253,
        "16360": 54,
        "16361": 7,
        "16362": 80,
        "16363": 69,
        "16364": 23,
        "16365": 242,
        "16366": 4,
        "16367": 124,
        "16368": 16,
        "16369": 182,
        "16370": 88,
        "16371": 79,
        "16372": 129,
        "16373": 236,
        "16374": 106,
        "16375": 116,
        "16376": 254,
        "16377": 83,
        "16378": 253,
        "16379": 63,
        "16380": 125,
        "16381": 113,
        "16382": 85,
        "16383": 181,
        "16384": 228,
        "16385": 82,
        "16386": 27,
        "16387": 111,
        "16388": 127,
        "16389": 9,
        "16390": 177,
        "16391": 66,
        "16392": 126,
        "16393": 221,
        "16394": 2,
        "16395": 54,
        "16396": 2,
        "16397": 127,
        "16398": 245,
        "16399": 185,
        "16400": 68,
        "16401": 158,
        "16402": 236,
        "16403": 9,
        "16404": 155,
        "16405": 128,
        "16406": 77,
        "16407": 112,
        "16408": 91,
        "16409": 27,
        "16410": 167,
        "16411": 29,
        "16412": 196,
        "16413": 207,
        "16414": 41,
        "16415": 40,
        "16416": 109,
        "16417": 11,
        "16418": 184,
        "16419": 112,
        "16420": 210,
        "16421": 172,
        "16422": 96,
        "16423": 149,
        "16424": 253,
        "16425": 193,
        "16426": 7,
        "16427": 120,
        "16428": 2,
        "16429": 116,
        "16430": 191,
        "16431": 16,
        "16432": 151,
        "16433": 0,
        "16434": 40,
        "16435": 9,
        "16436": 0,
        "16437": 145,
        "16438": 128,
        "16439": 162,
        "16440": 149,
        "16441": 18,
        "16442": 157,
        "16443": 100,
        "16444": 210,
        "16445": 250,
        "16446": 90,
        "16447": 14,
        "16448": 121,
        "16449": 142,
        "16450": 14,
        "16451": 125,
        "16452": 91,
        "16453": 232,
        "16454": 16,
        "16455": 110,
        "16456": 170,
        "16457": 48,
        "16458": 215,
        "16459": 190,
        "16460": 67,
        "16461": 201,
        "16462": 232,
        "16463": 192,
        "16464": 145,
        "16465": 240,
        "16466": 35,
        "16467": 148,
        "16468": 125,
        "16469": 159,
        "16470": 224,
        "16471": 192,
        "16472": 9,
        "16473": 215,
        "16474": 113,
        "16475": 103,
        "16476": 38,
        "16477": 136,
        "16478": 88,
        "16479": 158,
        "16480": 232,
        "16481": 77,
        "16482": 24,
        "16483": 158,
        "16484": 240,
        "16485": 251,
        "16486": 186,
        "16487": 57,
        "16488": 207,
        "16489": 12,
        "16490": 59,
        "16491": 251,
        "16492": 6,
        "16493": 221,
        "16494": 184,
        "16495": 203,
        "16496": 215,
        "16497": 31,
        "16498": 63,
        "16499": 176,
        "16500": 93,
        "16501": 12,
        "16502": 202,
        "16503": 178,
        "16504": 212,
        "16505": 59,
        "16506": 229,
        "16507": 14,
        "16508": 174,
        "16509": 49,
        "16510": 109,
        "16511": 73,
        "16512": 41,
        "16513": 1,
        "16514": 142,
        "16515": 23,
        "16516": 55,
        "16517": 36,
        "16518": 143,
        "16519": 100,
        "16520": 1,
        "16521": 8,
        "16522": 0,
        "16523": 0,
        "16524": 0,
        "16525": 0,
        "16526": 0,
        "16527": 0,
        "16528": 16,
        "16529": 0,
        "16530": 0,
        "16531": 0,
        "16532": 0,
        "16533": 0,
        "16534": 0,
        "16535": 0,
        "16536": 0,
        "16537": 0,
        "16538": 0,
        "16539": 0,
        "16540": 0,
        "16541": 0,
        "16542": 0,
        "16543": 0,
        "16544": 0,
        "16545": 0,
        "16546": 0,
        "16547": 0,
        "16548": 0,
        "16549": 0,
        "16550": 0,
        "16551": 0,
        "16552": 64,
        "16553": 0,
        "16554": 0,
        "16555": 0,
        "16556": 0,
        "16557": 0,
        "16558": 0,
        "16559": 0,
        "16560": 3,
        "16561": 0,
        "16562": 0,
        "16563": 0,
        "16564": 0,
        "16565": 0,
        "16566": 0,
        "16567": 0,
        "16568": 4,
        "16569": 0,
        "16570": 0,
        "16571": 0,
        "16572": 0,
        "16573": 0,
        "16574": 0,
        "16575": 0,
        "16576": 4,
        "16577": 0,
        "16578": 0,
        "16579": 0,
        "16580": 0,
        "16581": 0,
        "16582": 0,
        "16583": 0,
        "16584": 0,
        "16585": 0,
        "16586": 0,
        "16587": 0,
        "16588": 1,
        "16589": 0,
        "16590": 0,
        "16591": 0,
        "16592": 0,
        "16593": 0,
        "16594": 0,
        "16595": 0,
        "16596": 16,
        "16597": 0,
        "16598": 0,
        "16599": 0,
        "16600": 0,
        "16601": 0,
        "16602": 0,
        "16603": 0
      }
    }
  ],
  "numDeployments": 6,
  "solcInputHash": "09a7d0cc9d86bf34232eac8ae9cb8154",
  "bytecode": "0x6101606040526200001760006200026660201b60201c565b6004553480156200002757600080fd5b50604051620046ed380380620046ed83398181016040528101906200004d919062000b83565b6040518060400160405280600881526020017f46616b652046475a0000000000000000000000000000000000000000000000008152506040518060400160405280600481526020017f6646475a00000000000000000000000000000000000000000000000000000000815250338383836040518060400160405280601181526020017f4668656e6978205065726d697373696f6e0000000000000000000000000000008152506040518060400160405280600381526020017f312e3000000000000000000000000000000000000000000000000000000000008152506200013f6000836200028260201b90919060201c565b61012081815250506200015d6001826200028260201b90919060201c565b6101408181525050818051906020012060e08181525050808051906020012061010081815250504660a081815250506200019c620002da60201b60201c565b608081815250503073ffffffffffffffffffffffffffffffffffffffff1660c08173ffffffffffffffffffffffffffffffffffffffff168152505050508160059081620001ea919062000e1f565b508060069081620001fc919062000e1f565b505050600062000212826200033760201b60201c565b9050620002486200023c8262000230617fff6200026660201b60201c565b6200035560201b60201c565b620003f860201b60201c565b6200025a8382620004cb60201b60201c565b50505050505062001260565b60006200027b8260026200057160201b60201c565b9050919050565b6000602083511015620002a857620002a0836200062860201b60201c565b9050620002d4565b82620002ba836200069560201b60201c565b6000019081620002cb919062000e1f565b5060ff60001b90505b92915050565b60007f8b73c3c69bb8fe3d512ecc4cf759cc79239f7b179b0ffacaa9a75d522b39400f60e0516101005146306040516020016200031c95949392919062000f77565b60405160208183030381529060405280519060200120905090565b60006200034e82600001516200069f60201b60201c565b9050919050565b60006200036883620006bb60201b60201c565b62000382576200037f60006200026660201b60201c565b92505b6200039382620006bb60201b60201c565b620003ad57620003aa60006200026660201b60201c565b91505b600083905060008390506000620003ea60028484608073ffffffffffffffffffffffffffffffffffffffff1663eb274b77620006c860201b60201c565b905080935050505092915050565b62000409816200077960201b60201c565b62000423576200042060006200078660201b60201c565b90505b600081905060006200043b82620007a260201b60201c565b9050608073ffffffffffffffffffffffffffffffffffffffff16637d23f1db600d836040518363ffffffff1660e01b81526004016200047c9291906200104f565b600060405180830381865afa1580156200049a573d6000803e3d6000fd5b505050506040513d6000823e3d601f19601f82011682018060405250810190620004c5919062001083565b50505050565b62000516600260008473ffffffffffffffffffffffffffffffffffffffff1673ffffffffffffffffffffffffffffffffffffffff168152602001908152602001600020548262000803565b600260008473ffffffffffffffffffffffffffffffffffffffff1673ffffffffffffffffffffffffffffffffffffffff16815260200190815260200160002081905550620005676004548262000803565b6004819055505050565b60006060608073ffffffffffffffffffffffffffffffffffffffff166319e1c5c4620005a386620007a260201b60201c565b856040518363ffffffff1660e01b8152600401620005c3929190620010d4565b600060405180830381865afa158015620005e1573d6000803e3d6000fd5b505050506040513d6000823e3d601f19601f820116820180604052508101906200060c919062001083565b90506200061f816200081f60201b60201c565b91505092915050565b600080829050601f815111156200067857826040517f305a27a90000000000000000000000000000000000000000000000000000000081526004016200066f91906200115a565b60405180910390fd5b8051816200068690620011a5565b60001c1760001b915050919050565b6000819050919050565b6000620006b48260026200082d60201b60201c565b9050919050565b6000808214159050919050565b60006060838388620006e089620007a260201b60201c565b620006f189620007a260201b60201c565b6040518463ffffffff1660e01b8152600401620007119392919062001215565b600060405180830381865afa1580156200072f573d6000803e3d6000fd5b505050506040513d6000823e3d601f19601f820116820180604052508101906200075a919062001083565b90506200076d81620008d460201b60201c565b91505095945050505050565b6000808214159050919050565b60006200079b82600d6200057160201b60201c565b9050919050565b6060602067ffffffffffffffff811115620007c257620007c1620009ae565b5b6040519080825280601f01601f191660200182016040528015620007f55781602001600182028036833780820191505090505b509050816020820152919050565b6000620008178383620008e260201b60201c565b905092915050565b600060208201519050919050565b60006060608073ffffffffffffffffffffffffffffffffffffffff16635fa55ca784866040518363ffffffff1660e01b81526004016200086f9291906200104f565b600060405180830381865afa1580156200088d573d6000803e3d6000fd5b505050506040513d6000823e3d601f19601f82011682018060405250810190620008b8919062001083565b9050620008cb816200081f60201b60201c565b91505092915050565b600060208201519050919050565b6000620008f583620006bb60201b60201c565b6200090f576200090c60006200026660201b60201c565b92505b6200092082620006bb60201b60201c565b6200093a576200093760006200026660201b60201c565b91505b6000839050600083905060006200097660028484608073ffffffffffffffffffffffffffffffffffffffff16622df619620006c860201b60201c565b905080935050505092915050565b6000604051905090565b600080fd5b600080fd5b600080fd5b6000601f19601f8301169050919050565b7f4e487b7100000000000000000000000000000000000000000000000000000000600052604160045260246000fd5b620009e8826200099d565b810181811067ffffffffffffffff8211171562000a0a5762000a09620009ae565b5b80604052505050565b600062000a1f62000984565b905062000a2d8282620009dd565b919050565b600080fd5b600080fd5b600080fd5b600067ffffffffffffffff82111562000a5f5762000a5e620009ae565b5b62000a6a826200099d565b9050602081019050919050565b60005b8381101562000a9757808201518184015260208101905062000a7a565b60008484015250505050565b600062000aba62000ab48462000a41565b62000a13565b90508281526020810184848401111562000ad95762000ad862000a3c565b5b62000ae684828562000a77565b509392505050565b600082601f83011262000b065762000b0562000a37565b5b815162000b1884826020860162000aa3565b91505092915050565b60006020828403121562000b3a5762000b3962000998565b5b62000b46602062000a13565b9050600082015167ffffffffffffffff81111562000b695762000b6862000a32565b5b62000b778482850162000aee565b60008301525092915050565b60006020828403121562000b9c5762000b9b6200098e565b5b600082015167ffffffffffffffff81111562000bbd5762000bbc62000993565b5b62000bcb8482850162000b21565b91505092915050565b600081519050919050565b7f4e487b7100000000000000000000000000000000000000000000000000000000600052602260045260246000fd5b6000600282049050600182168062000c2757607f821691505b60208210810362000c3d5762000c3c62000bdf565b5b50919050565b60008190508160005260206000209050919050565b60006020601f8301049050919050565b600082821b905092915050565b60006008830262000ca77fffffffffffffffffffffffffffffffffffffffffffffffffffffffffffffffff8262000c68565b62000cb3868362000c68565b95508019841693508086168417925050509392505050565b6000819050919050565b6000819050919050565b600062000d0062000cfa62000cf48462000ccb565b62000cd5565b62000ccb565b9050919050565b6000819050919050565b62000d1c8362000cdf565b62000d3462000d2b8262000d07565b84845462000c75565b825550505050565b600090565b62000d4b62000d3c565b62000d5881848462000d11565b505050565b5b8181101562000d805762000d7460008262000d41565b60018101905062000d5e565b5050565b601f82111562000dcf5762000d998162000c43565b62000da48462000c58565b8101602085101562000db4578190505b62000dcc62000dc38562000c58565b83018262000d5d565b50505b505050565b600082821c905092915050565b600062000df46000198460080262000dd4565b1980831691505092915050565b600062000e0f838362000de1565b9150826002028217905092915050565b62000e2a8262000bd4565b67ffffffffffffffff81111562000e465762000e45620009ae565b5b62000e52825462000c0e565b62000e5f82828562000d84565b600060209050601f83116001811462000e97576000841562000e82578287015190505b62000e8e858262000e01565b86555062000efe565b601f19841662000ea78662000c43565b60005b8281101562000ed15784890151825560018201915060208501945060208101905062000eaa565b8683101562000ef1578489015162000eed601f89168262000de1565b8355505b6001600288020188555050505b505050505050565b6000819050919050565b62000f1b8162000f06565b82525050565b62000f2c8162000ccb565b82525050565b600073ffffffffffffffffffffffffffffffffffffffff82169050919050565b600062000f5f8262000f32565b9050919050565b62000f718162000f52565b82525050565b600060a08201905062000f8e600083018862000f10565b62000f9d602083018762000f10565b62000fac604083018662000f10565b62000fbb606083018562000f21565b62000fca608083018462000f66565b9695505050505050565b600060ff82169050919050565b62000fec8162000fd4565b82525050565b600081519050919050565b600082825260208201905092915050565b60006200101b8262000ff2565b62001027818562000ffd565b93506200103981856020860162000a77565b62001044816200099d565b840191505092915050565b600060408201905062001066600083018562000fe1565b81810360208301526200107a81846200100e565b90509392505050565b6000602082840312156200109c576200109b6200098e565b5b600082015167ffffffffffffffff811115620010bd57620010bc62000993565b5b620010cb8482850162000aee565b91505092915050565b60006040820190508181036000830152620010f081856200100e565b905062001101602083018462000fe1565b9392505050565b600082825260208201905092915050565b6000620011268262000bd4565b62001132818562001108565b93506200114481856020860162000a77565b6200114f816200099d565b840191505092915050565b6000602082019050818103600083015262001176818462001119565b905092915050565b6000819050602082019050919050565b60006200119c825162000f06565b80915050919050565b6000620011b28262000ff2565b82620011be846200117e565b9050620011cb816200118e565b925060208210156200120e57620012097fffffffffffffffffffffffffffffffffffffffffffffffffffffffffffffffff8360200360080262000c68565b831692505b5050919050565b60006060820190506200122c600083018662000fe1565b81810360208301526200124081856200100e565b905081810360408301526200125681846200100e565b9050949350505050565b60805160a05160c05160e051610100516101205161014051613432620012bb60003960006113ca0152600061138f015260006120d3015260006120b2015260006117f3015260006118490152600061187201526134326000f3fe608060405234801561001057600080fd5b50600436106101425760003560e01c80637ecebe00116100b8578063a9059cbb1161007c578063a9059cbb146103b9578063af575a00146103e9578063c4224c1914610419578063d505accf14610449578063d918156e14610465578063dd62ed3e1461049557610142565b80637ecebe00146102fb57806384b0196e1461032b5780638624a3491461034f57806395d89b411461037f5780639f284be71461039d57610142565b80633644e5151161010a5780633644e5151461020157806339c217f71461021f5780635356c4291461024f578063602772041461027f5780636e0505e1146102af57806370a08231146102cb57610142565b806306fdde0314610147578063095ea7b31461016557806318160ddd1461019557806323b872dd146101b3578063313ce567146101e3575b600080fd5b61014f6104c5565b60405161015c9190612494565b60405180910390f35b61017f600480360381019061017a919061255e565b610557565b60405161018c91906125b9565b60405180910390f35b61019d6105ab565b6040516101aa91906125e3565b60405180910390f35b6101cd60048036038101906101c891906125fe565b6105bd565b6040516101da91906125b9565b60405180910390f35b6101eb610692565b6040516101f8919061266d565b60405180910390f35b610209610697565b60405161021691906126a1565b60405180910390f35b610239600480360381019061023491906126e0565b610729565b6040516102469190612777565b60405180910390f35b610269600480360381019061026491906127b1565b61074e565b6040516102769190612494565b60405180910390f35b610299600480360381019061029491906129e4565b61084c565b6040516102a69190612494565b60405180910390f35b6102c960048036038101906102c49190612a7c565b610982565b005b6102e560048036038101906102e09190612aa9565b610ab9565b6040516102f291906125e3565b60405180910390f35b61031560048036038101906103109190612aa9565b610ad4565b60405161032291906125e3565b60405180910390f35b610333610aef565b6040516103469796959493929190612bde565b60405180910390f35b61036960048036038101906103649190612c62565b610b99565b6040516103769190612777565b60405180910390f35b610387610bd7565b6040516103949190612494565b60405180910390f35b6103b760048036038101906103b29190612a7c565b610c69565b005b6103d360048036038101906103ce919061255e565b610d76565b6040516103e091906125b9565b60405180910390f35b61040360048036038101906103fe9190612cfd565b610e08565b6040516104109190612777565b60405180910390f35b610433600480360381019061042e9190612d50565b610e35565b6040516104409190612777565b60405180910390f35b610463600480360381019061045e9190612dbc565b610e4a565b005b61047f600480360381019061047a91906126e0565b610fee565b60405161048c91906125b9565b60405180910390f35b6104af60048036038101906104aa9190612e5e565b611016565b6040516104bc91906125e3565b60405180910390f35b6060600580546104d490612ecd565b80601f016020809104026020016040519081016040528092919081815260200182805461050090612ecd565b801561054d5780601f106105225761010080835404028352916020019161054d565b820191906000526020600020905b81548152906001019060200180831161053057829003601f168201915b5050505050905090565b600082602052637f5e9f20600c5233600052816034600c205581600052602c5160601c337f8c5be1e5ebec7d5bd14f71427d1e84f3dd0314c0f7b2291e5b200ac8c7c3b92560206000a36001905092915050565b60006805345cdf77eb68f44c54905090565b60006105ca848484611036565b8360601b33602052637f5e9f208117600c526034600c20805460018101156106085780851115610602576313be252b6000526004601cfd5b84810382555b6387a211a28317600c526020600c2080548087111561062f5763f4d678b86000526004601cfd5b8681038255876000526020600c2087815401815587602052600c5160601c8660601c7fddf252ad1be2c89b69c2b068fc378daa952ba7f163c4a11628f55a4df523b3ef602080a350505050505061068784848461103b565b600190509392505050565b600090565b6000806106a2611040565b90506000801b81036106c0576106b66104c5565b8051906020012090505b6040517f8b73c3c69bb8fe3d512ecc4cf759cc79239f7b179b0ffacaa9a75d522b39400f81528160208201527fc89efdaa54c0f20c7adf612882df0950f5a951637e0307cdcb4c672f298b8bc6604082015246606082015230608082015260a081209250505090565b6000610746836107418461073c90612f56565b611045565b610e35565b905092915050565b60608161075a90612f69565b60006107b17f6bdaeb2d29561f159c7ef98b16b27015fb2aeb87209c7ee656226d912f59927d8360000151604051602001610796929190612f7c565b6040516020818303038152906040528051906020012061105b565b905060006107c3828460200151611075565b90503373ffffffffffffffffffffffffffffffffffffffff168173ffffffffffffffffffffffffffffffffffffffff161461082a576040517f3093a27700000000000000000000000000000000000000000000000000000000815260040160405180910390fd5b61084161083733886110a1565b8660000135611128565b935050505092915050565b6060818360006108a77f6bdaeb2d29561f159c7ef98b16b27015fb2aeb87209c7ee656226d912f59927d846000015160405160200161088c929190612f7c565b6040516020818303038152906040528051906020012061105b565b905060006108b9828560200151611075565b90508273ffffffffffffffffffffffffffffffffffffffff168173ffffffffffffffffffffffffffffffffffffffff1614610920576040517f51c65eae00000000000000000000000000000000000000000000000000000000815260040160405180910390fd5b6109768660000151600260008a73ffffffffffffffffffffffffffffffffffffffff1673ffffffffffffffffffffffffffffffffffffffff1681526020019081526020016000205461115e90919063ffffffff16565b94505050505092915050565b60006109938263ffffffff16611172565b905060006109fc6109ec83600260003373ffffffffffffffffffffffffffffffffffffffff1673ffffffffffffffffffffffffffffffffffffffff1681526020019081526020016000205461118690919063ffffffff16565b836109f76000611172565b61119a565b9050610a47600260003373ffffffffffffffffffffffffffffffffffffffff1673ffffffffffffffffffffffffffffffffffffffff1681526020019081526020016000205482611218565b600260003373ffffffffffffffffffffffffffffffffffffffff1673ffffffffffffffffffffffffffffffffffffffff16815260200190815260200160002081905550610a9660045482611218565b600481905550610ab433610aa98361122c565b63ffffffff166112ef565b505050565b60006387a211a2600c52816000526020600c20549050919050565b60006338377508600c52816000526020600c20549050919050565b600060608060008060006060610b03611386565b610b0b6113c1565b46306000801b600067ffffffffffffffff811115610b2c57610b2b612812565b5b604051908082528060200260200182016040528015610b5a5781602001602082028036833780820191505090505b507f0f00000000000000000000000000000000000000000000000000000000000000959493929190965096509650965096509650965090919293949596565b600080610bae83610ba990612f56565b611045565b90506000610bbd8633846113fc565b9050610bca868683611439565b5080925050509392505050565b606060068054610be690612ecd565b80601f0160208091040260200160405190810160405280929190818152602001828054610c1290612ecd565b8015610c5f5780601f10610c3457610100808354040283529160200191610c5f565b820191906000526020600020905b815481529060010190602001808311610c4257829003601f168201915b5050505050905090565b8063ffffffff16610c7933610ab9565b1015610cb1576040517ffda7bbda00000000000000000000000000000000000000000000000000000000815260040160405180910390fd5b610cc1338263ffffffff166115c6565b6000610cd28263ffffffff16611172565b9050610d1d600260003373ffffffffffffffffffffffffffffffffffffffff1673ffffffffffffffffffffffffffffffffffffffff168152602001908152602001600020548261165d565b600260003373ffffffffffffffffffffffffffffffffffffffff1673ffffffffffffffffffffffffffffffffffffffff16815260200190815260200160002081905550610d6c6004548261165d565b6004819055505050565b6000610d83338484611036565b6387a211a2600c52336000526020600c20805480841115610dac5763f4d678b86000526004601cfd5b8381038255846000526020600c2084815401815584602052600c5160601c337fddf252ad1be2c89b69c2b068fc378daa952ba7f163c4a11628f55a4df523b3ef602080a3505050610dfe33848461103b565b6001905092915050565b6000808290506000610e1b8633846113fc565b9050610e28868683611439565b5080925050509392505050565b6000610e42338484611439565b905092915050565b6000610e54611040565b90506000801b8103610e7257610e686104c5565b8051906020012090505b84421115610e8857631a15a3cc6000526004601cfd5b6040518860601b60601c98508760601b60601c975065383775081901600e52886000526020600c2080547f8b73c3c69bb8fe3d512ecc4cf759cc79239f7b179b0ffacaa9a75d522b39400f83528360208401527fc89efdaa54c0f20c7adf612882df0950f5a951637e0307cdcb4c672f298b8bc6604084015246606084015230608084015260a08320602e527f6e71edae12b1b97f4d1f60370fef10105fa2faae0126114a169c64845d6126c983528a60208401528960408401528860608401528060808401528760a084015260c08320604e526042602c206000528660ff1660205285604052846060526020806080600060015afa8b3d5114610f945763ddafbaef6000526004601cfd5b80820183558a637f5e9f2060a01b17604052896034602c20558a8c7f8c5be1e5ebec7d5bd14f71427d1e84f3dd0314c0f7b2291e5b200ac8c7c3b925602060608801a3836040526000606052505050505050505050505050565b600061100c33846110078561100290612f56565b611045565b611671565b6001905092915050565b600081602052637f5e9f20600c52826000526034600c2054905092915050565b505050565b505050565b600090565b600061105482600001516117db565b9050919050565b600061106e6110686117ef565b836118a6565b9050919050565b60008060008061108586866118e7565b9250925092506110958282611943565b82935050505092915050565b6000600360008473ffffffffffffffffffffffffffffffffffffffff1673ffffffffffffffffffffffffffffffffffffffff16815260200190815260200160002060008373ffffffffffffffffffffffffffffffffffffffff1673ffffffffffffffffffffffffffffffffffffffff16815260200190815260200160002054905092915050565b606061113383611aa7565b611144576111416000611172565b92505b600083905061115560028285611ab4565b91505092915050565b606061116a8383611128565b905092915050565b600061117f826002611b6a565b9050919050565b60006111928383611c0c565b905092915050565b60006111a584611c85565b6111b6576111b36000611c92565b93505b6111bf83611aa7565b6111d0576111cd6000611172565b92505b6111d982611aa7565b6111ea576111e76000611172565b91505b60008490506000849050600084905060006112086002858585611ca6565b9050809450505050509392505050565b60006112248383611d5e565b905092915050565b600061123782611aa7565b611248576112456000611172565b91505b6000829050600061125882611dd7565b90506000608073ffffffffffffffffffffffffffffffffffffffff166373cc01546002846040518363ffffffff1660e01b8152600401611299929190612ffa565b602060405180830381865afa1580156112b6573d6000803e3d6000fd5b505050506040513d601f19601f820116820180604052508101906112da919061303f565b90506112e581611e34565b9350505050919050565b6112fb60008383611036565b6805345cdf77eb68f44c548181018181101561131f5763e5cfe9576000526004601cfd5b806805345cdf77eb68f44c556387a211a2600c52836000526020600c2083815401815583602052600c5160601c60007fddf252ad1be2c89b69c2b068fc378daa952ba7f163c4a11628f55a4df523b3ef602080a35050506113826000838361103b565b5050565b60606113bc60007f0000000000000000000000000000000000000000000000000000000000000000611e3e90919063ffffffff16565b905090565b60606113f760017f0000000000000000000000000000000000000000000000000000000000000000611e3e90919063ffffffff16565b905090565b60008061140985856110a1565b905060006114178285611eee565b905061142d86866114288585611218565b611671565b80925050509392505050565b6000806114a1611491600260008873ffffffffffffffffffffffffffffffffffffffff1673ffffffffffffffffffffffffffffffffffffffff1681526020019081526020016000205485611f6790919063ffffffff16565b8461149c6000611172565b61119a565b90506114ec600260008673ffffffffffffffffffffffffffffffffffffffff1673ffffffffffffffffffffffffffffffffffffffff168152602001908152602001600020548261165d565b600260008673ffffffffffffffffffffffffffffffffffffffff1673ffffffffffffffffffffffffffffffffffffffff16815260200190815260200160002081905550611578600260008773ffffffffffffffffffffffffffffffffffffffff1673ffffffffffffffffffffffffffffffffffffffff1681526020019081526020016000205482611218565b600260008773ffffffffffffffffffffffffffffffffffffffff1673ffffffffffffffffffffffffffffffffffffffff16815260200190815260200160002081905550809150509392505050565b6115d282600083611036565b6387a211a2600c52816000526020600c208054808311156115fb5763f4d678b86000526004601cfd5b8281038255826805345cdf77eb68f44c54036805345cdf77eb68f44c558260005260008460601b60601c7fddf252ad1be2c89b69c2b068fc378daa952ba7f163c4a11628f55a4df523b3ef60206000a350506116598260008361103b565b5050565b60006116698383611f7b565b905092915050565b600073ffffffffffffffffffffffffffffffffffffffff168373ffffffffffffffffffffffffffffffffffffffff16036116e35760006040517fe602df050000000000000000000000000000000000000000000000000000000081526004016116da919061306c565b60405180910390fd5b600073ffffffffffffffffffffffffffffffffffffffff168273ffffffffffffffffffffffffffffffffffffffff16036117555760006040517f94280d6200000000000000000000000000000000000000000000000000000000815260040161174c919061306c565b60405180910390fd5b80600360008573ffffffffffffffffffffffffffffffffffffffff1673ffffffffffffffffffffffffffffffffffffffff16815260200190815260200160002060008473ffffffffffffffffffffffffffffffffffffffff1673ffffffffffffffffffffffffffffffffffffffff16815260200190815260200160002081905550505050565b60006117e8826002611ff3565b9050919050565b60007f000000000000000000000000000000000000000000000000000000000000000073ffffffffffffffffffffffffffffffffffffffff163073ffffffffffffffffffffffffffffffffffffffff1614801561186b57507f000000000000000000000000000000000000000000000000000000000000000046145b15611898577f000000000000000000000000000000000000000000000000000000000000000090506118a3565b6118a061208d565b90505b90565b60006040517f190100000000000000000000000000000000000000000000000000000000000081528360028201528260228201526042812091505092915050565b6000806000604184510361192c5760008060006020870151925060408701519150606087015160001a905061191e88828585612123565b95509550955050505061193c565b60006002855160001b9250925092505b9250925092565b6000600381111561195757611956613087565b5b82600381111561196a57611969613087565b5b0315611aa3576001600381111561198457611983613087565b5b82600381111561199757611996613087565b5b036119ce576040517ff645eedf00000000000000000000000000000000000000000000000000000000815260040160405180910390fd5b600260038111156119e2576119e1613087565b5b8260038111156119f5576119f4613087565b5b03611a3a578060001c6040517ffce698f7000000000000000000000000000000000000000000000000000000008152600401611a3191906125e3565b60405180910390fd5b600380811115611a4d57611a4c613087565b5b826003811115611a6057611a5f613087565b5b03611aa257806040517fd78bce0c000000000000000000000000000000000000000000000000000000008152600401611a9991906126a1565b60405180910390fd5b5b5050565b6000808214159050919050565b6060608073ffffffffffffffffffffffffffffffffffffffff1663a1848ff385611add86611dd7565b85604051602001611aee91906130d7565b6040516020818303038152906040526040518463ffffffff1660e01b8152600401611b1b939291906130f2565b600060405180830381865afa158015611b38573d6000803e3d6000fd5b505050506040513d6000823e3d601f19601f82011682018060405250810190611b6191906131d8565b90509392505050565b60006060608073ffffffffffffffffffffffffffffffffffffffff166319e1c5c4611b9486611dd7565b856040518363ffffffff1660e01b8152600401611bb2929190613221565b600060405180830381865afa158015611bcf573d6000803e3d6000fd5b505050506040513d6000823e3d601f19601f82011682018060405250810190611bf891906132c1565b9050611c0381612217565b91505092915050565b6000611c1783611aa7565b611c2857611c256000611172565b92505b611c3182611aa7565b611c4257611c3f6000611172565b91505b600083905060008390506000611c7760028484608073ffffffffffffffffffffffffffffffffffffffff1663650de1cf612225565b905080935050505092915050565b6000808214159050919050565b6000611c9f82600d611b6a565b9050919050565b60006060608073ffffffffffffffffffffffffffffffffffffffff1663c2d9695287611cd188611dd7565b611cda88611dd7565b611ce388611dd7565b6040518563ffffffff1660e01b8152600401611d02949392919061330a565b600060405180830381865afa158015611d1f573d6000803e3d6000fd5b505050506040513d6000823e3d601f19601f82011682018060405250810190611d4891906132c1565b9050611d5381612217565b915050949350505050565b6000611d6983611aa7565b611d7a57611d776000611172565b92505b611d8382611aa7565b611d9457611d916000611172565b91505b600083905060008390506000611dc960028484608073ffffffffffffffffffffffffffffffffffffffff1663cc2cbeff612225565b905080935050505092915050565b6060602067ffffffffffffffff811115611df457611df3612812565b5b6040519080825280601f01601f191660200182016040528015611e265781602001600182028036833780820191505090505b509050816020820152919050565b6000819050919050565b606060ff60001b8314611e5b57611e54836122b9565b9050611ee8565b818054611e6790612ecd565b80601f0160208091040260200160405190810160405280929190818152602001828054611e9390612ecd565b8015611ee05780601f10611eb557610100808354040283529160200191611ee0565b820191906000526020600020905b815481529060010190602001808311611ec357829003601f168201915b505050505090505b92915050565b6000611ef983611aa7565b611f0a57611f076000611172565b92505b611f1382611aa7565b611f2457611f216000611172565b91505b600083905060008390506000611f5960028484608073ffffffffffffffffffffffffffffffffffffffff16635211c679612225565b905080935050505092915050565b6000611f73838361232d565b905092915050565b6000611f8683611aa7565b611f9757611f946000611172565b92505b611fa082611aa7565b611fb157611fae6000611172565b91505b600083905060008390506000611fe560028484608073ffffffffffffffffffffffffffffffffffffffff16622df619612225565b905080935050505092915050565b60006060608073ffffffffffffffffffffffffffffffffffffffff16635fa55ca784866040518363ffffffff1660e01b8152600401612033929190612ffa565b600060405180830381865afa158015612050573d6000803e3d6000fd5b505050506040513d6000823e3d601f19601f8201168201806040525081019061207991906132c1565b905061208481612217565b91505092915050565b60007f8b73c3c69bb8fe3d512ecc4cf759cc79239f7b179b0ffacaa9a75d522b39400f7f00000000000000000000000000000000000000000000000000000000000000007f00000000000000000000000000000000000000000000000000000000000000004630604051602001612108959493929190613364565b60405160208183030381529060405280519060200120905090565b60008060007f7fffffffffffffffffffffffffffffff5d576e7357a4501ddfe92f46681b20a08460001c111561216357600060038592509250925061220d565b60006001888888886040516000815260200160405260405161218894939291906133b7565b6020604051602081039080840390855afa1580156121aa573d6000803e3d6000fd5b505050602060405103519050600073ffffffffffffffffffffffffffffffffffffffff168173ffffffffffffffffffffffffffffffffffffffff16036121fe57600060016000801b9350935093505061220d565b8060008060001b935093509350505b9450945094915050565b600060208201519050919050565b6000606083838861223589611dd7565b61223e89611dd7565b6040518463ffffffff1660e01b815260040161225c939291906130f2565b600060405180830381865afa158015612279573d6000803e3d6000fd5b505050506040513d6000823e3d601f19601f820116820180604052508101906122a291906132c1565b90506122ad816123a6565b91505095945050505050565b606060006122c6836123b4565b90506000602067ffffffffffffffff8111156122e5576122e4612812565b5b6040519080825280601f01601f1916602001820160405280156123175781602001600182028036833780820191505090505b5090508181528360208201528092505050919050565b600061233883611aa7565b612349576123466000611172565b92505b61235282611aa7565b612363576123606000611172565b91505b60008390506000839050600061239860028484608073ffffffffffffffffffffffffffffffffffffffff1663eb274b77612225565b905080935050505092915050565b600060208201519050919050565b60008060ff8360001c169050601f8111156123fb576040517fb3512b0c00000000000000000000000000000000000000000000000000000000815260040160405180910390fd5b80915050919050565b600081519050919050565b600082825260208201905092915050565b60005b8381101561243e578082015181840152602081019050612423565b60008484015250505050565b6000601f19601f8301169050919050565b600061246682612404565b612470818561240f565b9350612480818560208601612420565b6124898161244a565b840191505092915050565b600060208201905081810360008301526124ae818461245b565b905092915050565b6000604051905090565b600080fd5b600080fd5b600073ffffffffffffffffffffffffffffffffffffffff82169050919050565b60006124f5826124ca565b9050919050565b612505816124ea565b811461251057600080fd5b50565b600081359050612522816124fc565b92915050565b6000819050919050565b61253b81612528565b811461254657600080fd5b50565b60008135905061255881612532565b92915050565b60008060408385031215612575576125746124c0565b5b600061258385828601612513565b925050602061259485828601612549565b9150509250929050565b60008115159050919050565b6125b38161259e565b82525050565b60006020820190506125ce60008301846125aa565b92915050565b6125dd81612528565b82525050565b60006020820190506125f860008301846125d4565b92915050565b600080600060608486031215612617576126166124c0565b5b600061262586828701612513565b935050602061263686828701612513565b925050604061264786828701612549565b9150509250925092565b600060ff82169050919050565b61266781612651565b82525050565b6000602082019050612682600083018461265e565b92915050565b6000819050919050565b61269b81612688565b82525050565b60006020820190506126b66000830184612692565b92915050565b600080fd5b6000602082840312156126d7576126d66126bc565b5b81905092915050565b600080604083850312156126f7576126f66124c0565b5b600061270585828601612513565b925050602083013567ffffffffffffffff811115612726576127256124c5565b5b612732858286016126c1565b9150509250929050565b6000819050919050565b600061276161275c61275784612528565b61273c565b612528565b9050919050565b61277181612746565b82525050565b600060208201905061278c6000830184612768565b92915050565b6000604082840312156127a8576127a76126bc565b5b81905092915050565b600080604083850312156127c8576127c76124c0565b5b60006127d685828601612513565b925050602083013567ffffffffffffffff8111156127f7576127f66124c5565b5b61280385828601612792565b9150509250929050565b600080fd5b7f4e487b7100000000000000000000000000000000000000000000000000000000600052604160045260246000fd5b61284a8261244a565b810181811067ffffffffffffffff8211171561286957612868612812565b5b80604052505050565b600061287c6124b6565b90506128888282612841565b919050565b600080fd5b61289b81612688565b81146128a657600080fd5b50565b6000813590506128b881612892565b92915050565b600080fd5b600080fd5b600067ffffffffffffffff8211156128e3576128e2612812565b5b6128ec8261244a565b9050602081019050919050565b82818337600083830152505050565b600061291b612916846128c8565b612872565b905082815260208101848484011115612937576129366128c3565b5b6129428482856128f9565b509392505050565b600082601f83011261295f5761295e6128be565b5b813561296f848260208601612908565b91505092915050565b60006040828403121561298e5761298d61280d565b5b6129986040612872565b905060006129a8848285016128a9565b600083015250602082013567ffffffffffffffff8111156129cc576129cb61288d565b5b6129d88482850161294a565b60208301525092915050565b600080604083850312156129fb576129fa6124c0565b5b6000612a0985828601612513565b925050602083013567ffffffffffffffff811115612a2a57612a296124c5565b5b612a3685828601612978565b9150509250929050565b600063ffffffff82169050919050565b612a5981612a40565b8114612a6457600080fd5b50565b600081359050612a7681612a50565b92915050565b600060208284031215612a9257612a916124c0565b5b6000612aa084828501612a67565b91505092915050565b600060208284031215612abf57612abe6124c0565b5b6000612acd84828501612513565b91505092915050565b60007fff0000000000000000000000000000000000000000000000000000000000000082169050919050565b612b0b81612ad6565b82525050565b612b1a816124ea565b82525050565b600081519050919050565b600082825260208201905092915050565b6000819050602082019050919050565b612b5581612528565b82525050565b6000612b678383612b4c565b60208301905092915050565b6000602082019050919050565b6000612b8b82612b20565b612b958185612b2b565b9350612ba083612b3c565b8060005b83811015612bd1578151612bb88882612b5b565b9750612bc383612b73565b925050600181019050612ba4565b5085935050505092915050565b600060e082019050612bf3600083018a612b02565b8181036020830152612c05818961245b565b90508181036040830152612c19818861245b565b9050612c2860608301876125d4565b612c356080830186612b11565b612c4260a0830185612692565b81810360c0830152612c548184612b80565b905098975050505050505050565b600080600060608486031215612c7b57612c7a6124c0565b5b6000612c8986828701612513565b9350506020612c9a86828701612513565b925050604084013567ffffffffffffffff811115612cbb57612cba6124c5565b5b612cc7868287016126c1565b9150509250925092565b612cda81612528565b8114612ce557600080fd5b50565b600081359050612cf781612cd1565b92915050565b600080600060608486031215612d1657612d156124c0565b5b6000612d2486828701612513565b9350506020612d3586828701612513565b9250506040612d4686828701612ce8565b9150509250925092565b60008060408385031215612d6757612d666124c0565b5b6000612d7585828601612513565b9250506020612d8685828601612ce8565b9150509250929050565b612d9981612651565b8114612da457600080fd5b50565b600081359050612db681612d90565b92915050565b600080600080600080600060e0888a031215612ddb57612dda6124c0565b5b6000612de98a828b01612513565b9750506020612dfa8a828b01612513565b9650506040612e0b8a828b01612549565b9550506060612e1c8a828b01612549565b9450506080612e2d8a828b01612da7565b93505060a0612e3e8a828b016128a9565b92505060c0612e4f8a828b016128a9565b91505092959891949750929550565b60008060408385031215612e7557612e746124c0565b5b6000612e8385828601612513565b9250506020612e9485828601612513565b9150509250929050565b7f4e487b7100000000000000000000000000000000000000000000000000000000600052602260045260246000fd5b60006002820490506001821680612ee557607f821691505b602082108103612ef857612ef7612e9e565b5b50919050565b600060208284031215612f1457612f1361280d565b5b612f1e6020612872565b9050600082013567ffffffffffffffff811115612f3e57612f3d61288d565b5b612f4a8482850161294a565b60008301525092915050565b6000612f623683612efe565b9050919050565b6000612f753683612978565b9050919050565b6000604082019050612f916000830185612692565b612f9e6020830184612692565b9392505050565b600081519050919050565b600082825260208201905092915050565b6000612fcc82612fa5565b612fd68185612fb0565b9350612fe6818560208601612420565b612fef8161244a565b840191505092915050565b600060408201905061300f600083018561265e565b81810360208301526130218184612fc1565b90509392505050565b60008151905061303981612532565b92915050565b600060208284031215613055576130546124c0565b5b60006130638482850161302a565b91505092915050565b60006020820190506130816000830184612b11565b92915050565b7f4e487b7100000000000000000000000000000000000000000000000000000000600052602160045260246000fd5b6000819050919050565b6130d16130cc82612688565b6130b6565b82525050565b60006130e382846130c0565b60208201915081905092915050565b6000606082019050613107600083018661265e565b81810360208301526131198185612fc1565b9050818103604083015261312d8184612fc1565b9050949350505050565b600067ffffffffffffffff82111561315257613151612812565b5b61315b8261244a565b9050602081019050919050565b600061317b61317684613137565b612872565b905082815260208101848484011115613197576131966128c3565b5b6131a2848285612420565b509392505050565b600082601f8301126131bf576131be6128be565b5b81516131cf848260208601613168565b91505092915050565b6000602082840312156131ee576131ed6124c0565b5b600082015167ffffffffffffffff81111561320c5761320b6124c5565b5b613218848285016131aa565b91505092915050565b6000604082019050818103600083015261323b8185612fc1565b905061324a602083018461265e565b9392505050565b600061326461325f846128c8565b612872565b9050828152602081018484840111156132805761327f6128c3565b5b61328b848285612420565b509392505050565b600082601f8301126132a8576132a76128be565b5b81516132b8848260208601613251565b91505092915050565b6000602082840312156132d7576132d66124c0565b5b600082015167ffffffffffffffff8111156132f5576132f46124c5565b5b61330184828501613293565b91505092915050565b600060808201905061331f600083018761265e565b81810360208301526133318186612fc1565b905081810360408301526133458185612fc1565b905081810360608301526133598184612fc1565b905095945050505050565b600060a0820190506133796000830188612692565b6133866020830187612692565b6133936040830186612692565b6133a060608301856125d4565b6133ad6080830184612b11565b9695505050505050565b60006080820190506133cc6000830187612692565b6133d9602083018661265e565b6133e66040830185612692565b6133f36060830184612692565b9594505050505056fea26469706673582212206999aac1c1a78e07b057cf816e3f5f6d0fa3599f5e1c86ab42aa95c8960d94b164736f6c63430008180033",
  "devdoc": {
    "errors": {
      "AllowanceOverflow()": [
        {
          "details": "The allowance has overflowed."
        }
      ],
      "AllowanceUnderflow()": [
        {
          "details": "The allowance has underflowed."
        }
      ],
      "ECDSAInvalidSignature()": [
        {
          "details": "The signature derives the `address(0)`."
        }
      ],
      "ECDSAInvalidSignatureLength(uint256)": [
        {
          "details": "The signature has an invalid length."
        }
      ],
      "ECDSAInvalidSignatureS(bytes32)": [
        {
          "details": "The signature has an S value that is in the upper half order."
        }
      ],
      "InsufficientAllowance()": [
        {
          "details": "Insufficient allowance."
        }
      ],
      "InsufficientBalance()": [
        {
          "details": "Insufficient balance."
        }
      ],
      "InvalidPermit()": [
        {
          "details": "The permit is invalid."
        }
      ],
      "PermitExpired()": [
        {
          "details": "The permit has expired."
        }
      ],
      "TotalSupplyOverflow()": [
        {
          "details": "The total supply has overflowed."
        }
      ]
    },
    "events": {
      "Approval(address,address,uint256)": {
        "details": "Emitted when `amount` tokens is approved by `owner` to be used by `spender`."
      },
      "ApprovalEncrypted(address,address)": {
        "details": "Emitted when the allowance of a `spender` for an `owner` is set by a call to {approveEncrypted}. `value` is the new allowance."
      },
      "EIP712DomainChanged()": {
        "details": "MAY be emitted to signal that the domain could have changed."
      },
      "Transfer(address,address,uint256)": {
        "details": "Emitted when `amount` tokens is transferred from `from` to `to`."
      },
      "TransferEncrypted(address,address)": {
        "details": "Emitted when `value` tokens are moved from one account (`from`) to another (`to`). Note that `value` may be zero."
      }
    },
    "kind": "dev",
    "methods": {
      "DOMAIN_SEPARATOR()": {
        "details": "Returns the EIP-712 domain separator for the EIP-2612 permit."
      },
      "allowance(address,address)": {
        "details": "Returns the amount of tokens that `spender` can spend on behalf of `owner`."
      },
      "allowanceEncrypted(address,(bytes32,bytes))": {
        "details": "Returns the remaining number of tokens that `spender` will be allowed to spend on behalf of `owner` through {transferFrom}. This is zero by default. This value changes when {approve} or {transferFrom} are called."
      },
      "approve(address,uint256)": {
        "details": "Sets `amount` as the allowance of `spender` over the caller's tokens. Emits a {Approval} event."
      },
      "approveEncrypted(address,(bytes))": {
        "details": "Sets a `value` amount of tokens as the allowance of `spender` over the caller's tokens. Returns a boolean value indicating whether the operation succeeded. IMPORTANT: Beware that changing an allowance with this method brings the risk that someone may use both the old and the new allowance by unfortunate transaction ordering. One possible solution to mitigate this race condition is to first reduce the spender's allowance to 0 and set the desired value afterwards: https://github.com/ethereum/EIPs/issues/20#issuecomment-263524729 Emits an {ApprovalEncrypted} event."
      },
      "balanceOf(address)": {
        "details": "Returns the amount of tokens owned by `owner`."
      },
      "balanceOfEncrypted(address,(bytes32,bytes))": {
        "details": "Returns the value of tokens owned by `account`, sealed and encrypted for the caller."
      },
      "decimals()": {
        "details": "Returns the decimals places of the token."
      },
      "eip712Domain()": {
        "details": "See {IERC-5267}."
      },
      "name()": {
        "details": "Returns the name of the token."
      },
      "nonces(address)": {
        "details": "Returns the current nonce for `owner`. This value is used to compute the signature for EIP-2612 permit."
      },
      "permit(address,address,uint256,uint256,uint8,bytes32,bytes32)": {
        "details": "Sets `value` as the allowance of `spender` over the tokens of `owner`, authorized by a signed approval by `owner`. Emits a {Approval} event."
      },
      "symbol()": {
        "details": "Returns the symbol of the token."
      },
      "totalSupply()": {
        "details": "Returns the amount of tokens in existence."
      },
      "transfer(address,uint256)": {
        "details": "Transfer `amount` tokens from the caller to `to`. Requirements: - `from` must at least have `amount`. Emits a {Transfer} event."
      },
      "transferFrom(address,address,uint256)": {
        "details": "Transfers `amount` tokens from `from` to `to`. Note: Does not update the allowance if it is the maximum uint256 value. Requirements: - `from` must at least have `amount`. - The caller must have at least `amount` of allowance to transfer the tokens of `from`. Emits a {Transfer} event."
      },
      "transferFromEncrypted(address,address,(bytes))": {
        "details": "Moves a `value` amount of tokens from `from` to `to` using the allowance mechanism. `value` is then deducted from the caller's allowance. Returns a boolean value indicating whether the operation succeeded. Emits a {TransferEncrypted} event."
      }
    },
    "version": 1
  },
  "userdoc": {
    "errors": {
      "SignerNotMessageSender()": [
        {
          "notice": "Emitted when the signer is not the message sender"
        }
      ],
      "SignerNotOwner()": [
        {
          "notice": "Emitted when the signer is not the specified owner"
        }
      ]
    },
    "kind": "user",
    "methods": {},
    "version": 1
  },
  "storageLayout": {
    "storage": [
      {
        "astId": 16568,
        "contract": "contracts/FakeFGZ.sol:FakeFGZ",
        "label": "_nameFallback",
        "offset": 0,
        "slot": "0",
        "type": "t_string_storage"
      },
      {
        "astId": 16570,
        "contract": "contracts/FakeFGZ.sol:FakeFGZ",
        "label": "_versionFallback",
        "offset": 0,
        "slot": "1",
        "type": "t_string_storage"
      },
      {
        "astId": 20751,
        "contract": "contracts/FakeFGZ.sol:FakeFGZ",
        "label": "_encBalances",
        "offset": 0,
        "slot": "2",
        "type": "t_mapping(t_address,t_userDefinedValueType(euint32)12)"
      },
      {
        "astId": 20758,
        "contract": "contracts/FakeFGZ.sol:FakeFGZ",
        "label": "_allowed",
        "offset": 0,
        "slot": "3",
        "type": "t_mapping(t_address,t_mapping(t_address,t_userDefinedValueType(euint32)12))"
      },
      {
        "astId": 20765,
        "contract": "contracts/FakeFGZ.sol:FakeFGZ",
        "label": "totalEncryptedSupply",
        "offset": 0,
        "slot": "4",
        "type": "t_userDefinedValueType(euint32)12"
      },
      {
        "astId": 20767,
        "contract": "contracts/FakeFGZ.sol:FakeFGZ",
        "label": "_name",
        "offset": 0,
        "slot": "5",
        "type": "t_string_storage"
      },
      {
        "astId": 20769,
        "contract": "contracts/FakeFGZ.sol:FakeFGZ",
        "label": "_symbol",
        "offset": 0,
        "slot": "6",
        "type": "t_string_storage"
      }
    ],
    "types": {
      "t_address": {
        "encoding": "inplace",
        "label": "address",
        "numberOfBytes": "20"
      },
      "t_mapping(t_address,t_mapping(t_address,t_userDefinedValueType(euint32)12))": {
        "encoding": "mapping",
        "key": "t_address",
        "label": "mapping(address => mapping(address => euint32))",
        "numberOfBytes": "32",
        "value": "t_mapping(t_address,t_userDefinedValueType(euint32)12)"
      },
      "t_mapping(t_address,t_userDefinedValueType(euint32)12)": {
        "encoding": "mapping",
        "key": "t_address",
        "label": "mapping(address => euint32)",
        "numberOfBytes": "32",
        "value": "t_userDefinedValueType(euint32)12"
      },
      "t_string_storage": {
        "encoding": "bytes",
        "label": "string",
        "numberOfBytes": "32"
      },
      "t_userDefinedValueType(euint32)12": {
        "encoding": "inplace",
        "label": "euint32",
        "numberOfBytes": "32"
      }
    }
  }
}