{
  "address": "0x319bf1e8A5a5b853a22f6f9D1500C620b3c6A720",
  "abi": [
    {
      "inputs": [
        {
          "components": [
            {
              "internalType": "bytes",
              "name": "data",
              "type": "bytes"
            }
          ],
          "internalType": "struct inEuint32",
          "name": "_initialSupply",
          "type": "tuple"
        }
      ],
      "stateMutability": "nonpayable",
      "type": "constructor"
    },
    {
      "inputs": [],
      "name": "AllowanceOverflow",
      "type": "error"
    },
    {
      "inputs": [],
      "name": "AllowanceUnderflow",
      "type": "error"
    },
    {
      "inputs": [],
      "name": "ECDSAInvalidSignature",
      "type": "error"
    },
    {
      "inputs": [
        {
          "internalType": "uint256",
          "name": "length",
          "type": "uint256"
        }
      ],
      "name": "ECDSAInvalidSignatureLength",
      "type": "error"
    },
    {
      "inputs": [
        {
          "internalType": "bytes32",
          "name": "s",
          "type": "bytes32"
        }
      ],
      "name": "ECDSAInvalidSignatureS",
      "type": "error"
    },
    {
      "inputs": [
        {
          "internalType": "address",
          "name": "",
          "type": "address"
        }
      ],
      "name": "ERC20InvalidApprover",
      "type": "error"
    },
    {
      "inputs": [
        {
          "internalType": "address",
          "name": "",
          "type": "address"
        }
      ],
      "name": "ERC20InvalidSpender",
      "type": "error"
    },
    {
      "inputs": [],
      "name": "ErrorInsufficientFunds",
      "type": "error"
    },
    {
      "inputs": [],
      "name": "InsufficientAllowance",
      "type": "error"
    },
    {
      "inputs": [],
      "name": "InsufficientBalance",
      "type": "error"
    },
    {
      "inputs": [],
      "name": "InvalidPermit",
      "type": "error"
    },
    {
      "inputs": [],
      "name": "InvalidShortString",
      "type": "error"
    },
    {
      "inputs": [],
      "name": "PermitExpired",
      "type": "error"
    },
    {
      "inputs": [],
      "name": "SignerNotMessageSender",
      "type": "error"
    },
    {
      "inputs": [],
      "name": "SignerNotOwner",
      "type": "error"
    },
    {
      "inputs": [
        {
          "internalType": "string",
          "name": "str",
          "type": "string"
        }
      ],
      "name": "StringTooLong",
      "type": "error"
    },
    {
      "inputs": [],
      "name": "TotalSupplyOverflow",
      "type": "error"
    },
    {
      "anonymous": false,
      "inputs": [
        {
          "indexed": true,
          "internalType": "address",
          "name": "owner",
          "type": "address"
        },
        {
          "indexed": true,
          "internalType": "address",
          "name": "spender",
          "type": "address"
        },
        {
          "indexed": false,
          "internalType": "uint256",
          "name": "amount",
          "type": "uint256"
        }
      ],
      "name": "Approval",
      "type": "event"
    },
    {
      "anonymous": false,
      "inputs": [
        {
          "indexed": true,
          "internalType": "address",
          "name": "owner",
          "type": "address"
        },
        {
          "indexed": true,
          "internalType": "address",
          "name": "spender",
          "type": "address"
        }
      ],
      "name": "ApprovalEncrypted",
      "type": "event"
    },
    {
      "anonymous": false,
      "inputs": [],
      "name": "EIP712DomainChanged",
      "type": "event"
    },
    {
      "anonymous": false,
      "inputs": [
        {
          "indexed": true,
          "internalType": "address",
          "name": "from",
          "type": "address"
        },
        {
          "indexed": true,
          "internalType": "address",
          "name": "to",
          "type": "address"
        },
        {
          "indexed": false,
          "internalType": "uint256",
          "name": "amount",
          "type": "uint256"
        }
      ],
      "name": "Transfer",
      "type": "event"
    },
    {
      "anonymous": false,
      "inputs": [
        {
          "indexed": true,
          "internalType": "address",
          "name": "from",
          "type": "address"
        },
        {
          "indexed": true,
          "internalType": "address",
          "name": "to",
          "type": "address"
        }
      ],
      "name": "TransferEncrypted",
      "type": "event"
    },
    {
      "inputs": [],
      "name": "DOMAIN_SEPARATOR",
      "outputs": [
        {
          "internalType": "bytes32",
          "name": "result",
          "type": "bytes32"
        }
      ],
      "stateMutability": "view",
      "type": "function"
    },
    {
      "inputs": [
        {
          "internalType": "address",
          "name": "owner",
          "type": "address"
        },
        {
          "internalType": "address",
          "name": "spender",
          "type": "address"
        }
      ],
      "name": "allowance",
      "outputs": [
        {
          "internalType": "uint256",
          "name": "result",
          "type": "uint256"
        }
      ],
      "stateMutability": "view",
      "type": "function"
    },
    {
      "inputs": [
        {
          "internalType": "address",
          "name": "spender",
          "type": "address"
        },
        {
          "components": [
            {
              "internalType": "bytes32",
              "name": "publicKey",
              "type": "bytes32"
            },
            {
              "internalType": "bytes",
              "name": "signature",
              "type": "bytes"
            }
          ],
          "internalType": "struct Permission",
          "name": "permission",
          "type": "tuple"
        }
      ],
      "name": "allowanceEncrypted",
      "outputs": [
        {
          "internalType": "string",
          "name": "",
          "type": "string"
        }
      ],
      "stateMutability": "view",
      "type": "function"
    },
    {
      "inputs": [
        {
          "internalType": "address",
          "name": "spender",
          "type": "address"
        },
        {
          "internalType": "uint256",
          "name": "amount",
          "type": "uint256"
        }
      ],
      "name": "approve",
      "outputs": [
        {
          "internalType": "bool",
          "name": "",
          "type": "bool"
        }
      ],
      "stateMutability": "nonpayable",
      "type": "function"
    },
    {
      "inputs": [
        {
          "internalType": "address",
          "name": "spender",
          "type": "address"
        },
        {
          "components": [
            {
              "internalType": "bytes",
              "name": "data",
              "type": "bytes"
            }
          ],
          "internalType": "struct inEuint32",
          "name": "value",
          "type": "tuple"
        }
      ],
      "name": "approveEncrypted",
      "outputs": [
        {
          "internalType": "bool",
          "name": "",
          "type": "bool"
        }
      ],
      "stateMutability": "nonpayable",
      "type": "function"
    },
    {
      "inputs": [
        {
          "internalType": "address",
          "name": "owner",
          "type": "address"
        }
      ],
      "name": "balanceOf",
      "outputs": [
        {
          "internalType": "uint256",
          "name": "result",
          "type": "uint256"
        }
      ],
      "stateMutability": "view",
      "type": "function"
    },
    {
      "inputs": [
        {
          "internalType": "address",
          "name": "account",
          "type": "address"
        },
        {
          "components": [
            {
              "internalType": "bytes32",
              "name": "publicKey",
              "type": "bytes32"
            },
            {
              "internalType": "bytes",
              "name": "signature",
              "type": "bytes"
            }
          ],
          "internalType": "struct Permission",
          "name": "auth",
          "type": "tuple"
        }
      ],
      "name": "balanceOfEncrypted",
      "outputs": [
        {
          "internalType": "string",
          "name": "",
          "type": "string"
        }
      ],
      "stateMutability": "view",
      "type": "function"
    },
    {
      "inputs": [],
      "name": "decimals",
      "outputs": [
        {
          "internalType": "uint8",
          "name": "",
          "type": "uint8"
        }
      ],
      "stateMutability": "pure",
      "type": "function"
    },
    {
      "inputs": [],
      "name": "eip712Domain",
      "outputs": [
        {
          "internalType": "bytes1",
          "name": "fields",
          "type": "bytes1"
        },
        {
          "internalType": "string",
          "name": "name",
          "type": "string"
        },
        {
          "internalType": "string",
          "name": "version",
          "type": "string"
        },
        {
          "internalType": "uint256",
          "name": "chainId",
          "type": "uint256"
        },
        {
          "internalType": "address",
          "name": "verifyingContract",
          "type": "address"
        },
        {
          "internalType": "bytes32",
          "name": "salt",
          "type": "bytes32"
        },
        {
          "internalType": "uint256[]",
          "name": "extensions",
          "type": "uint256[]"
        }
      ],
      "stateMutability": "view",
      "type": "function"
    },
    {
      "inputs": [],
      "name": "name",
      "outputs": [
        {
          "internalType": "string",
          "name": "",
          "type": "string"
        }
      ],
      "stateMutability": "view",
      "type": "function"
    },
    {
      "inputs": [
        {
          "internalType": "address",
          "name": "owner",
          "type": "address"
        }
      ],
      "name": "nonces",
      "outputs": [
        {
          "internalType": "uint256",
          "name": "result",
          "type": "uint256"
        }
      ],
      "stateMutability": "view",
      "type": "function"
    },
    {
      "inputs": [
        {
          "internalType": "address",
          "name": "owner",
          "type": "address"
        },
        {
          "internalType": "address",
          "name": "spender",
          "type": "address"
        },
        {
          "internalType": "uint256",
          "name": "value",
          "type": "uint256"
        },
        {
          "internalType": "uint256",
          "name": "deadline",
          "type": "uint256"
        },
        {
          "internalType": "uint8",
          "name": "v",
          "type": "uint8"
        },
        {
          "internalType": "bytes32",
          "name": "r",
          "type": "bytes32"
        },
        {
          "internalType": "bytes32",
          "name": "s",
          "type": "bytes32"
        }
      ],
      "name": "permit",
      "outputs": [],
      "stateMutability": "nonpayable",
      "type": "function"
    },
    {
      "inputs": [],
      "name": "symbol",
      "outputs": [
        {
          "internalType": "string",
          "name": "",
          "type": "string"
        }
      ],
      "stateMutability": "view",
      "type": "function"
    },
    {
      "inputs": [],
      "name": "totalSupply",
      "outputs": [
        {
          "internalType": "uint256",
          "name": "result",
          "type": "uint256"
        }
      ],
      "stateMutability": "view",
      "type": "function"
    },
    {
      "inputs": [
        {
          "internalType": "address",
          "name": "to",
          "type": "address"
        },
        {
          "internalType": "uint256",
          "name": "amount",
          "type": "uint256"
        }
      ],
      "name": "transfer",
      "outputs": [
        {
          "internalType": "bool",
          "name": "",
          "type": "bool"
        }
      ],
      "stateMutability": "nonpayable",
      "type": "function"
    },
    {
      "inputs": [
        {
          "internalType": "address",
          "name": "to",
          "type": "address"
        },
        {
          "components": [
            {
              "internalType": "bytes",
              "name": "data",
              "type": "bytes"
            }
          ],
          "internalType": "struct inEuint32",
          "name": "encryptedAmount",
          "type": "tuple"
        }
      ],
      "name": "transferEncrypted",
      "outputs": [
        {
          "internalType": "euint32",
          "name": "",
          "type": "uint256"
        }
      ],
      "stateMutability": "nonpayable",
      "type": "function"
    },
    {
      "inputs": [
        {
          "internalType": "address",
          "name": "to",
          "type": "address"
        },
        {
          "internalType": "euint32",
          "name": "amount",
          "type": "uint256"
        }
      ],
      "name": "transferEncrypted",
      "outputs": [
        {
          "internalType": "euint32",
          "name": "",
          "type": "uint256"
        }
      ],
      "stateMutability": "nonpayable",
      "type": "function"
    },
    {
      "inputs": [
        {
          "internalType": "address",
          "name": "from",
          "type": "address"
        },
        {
          "internalType": "address",
          "name": "to",
          "type": "address"
        },
        {
          "internalType": "uint256",
          "name": "amount",
          "type": "uint256"
        }
      ],
      "name": "transferFrom",
      "outputs": [
        {
          "internalType": "bool",
          "name": "",
          "type": "bool"
        }
      ],
      "stateMutability": "nonpayable",
      "type": "function"
    },
    {
      "inputs": [
        {
          "internalType": "address",
          "name": "from",
          "type": "address"
        },
        {
          "internalType": "address",
          "name": "to",
          "type": "address"
        },
        {
          "components": [
            {
              "internalType": "bytes",
              "name": "data",
              "type": "bytes"
            }
          ],
          "internalType": "struct inEuint32",
          "name": "value",
          "type": "tuple"
        }
      ],
      "name": "transferFromEncrypted",
      "outputs": [
        {
          "internalType": "euint32",
          "name": "",
          "type": "uint256"
        }
      ],
      "stateMutability": "nonpayable",
      "type": "function"
    },
    {
      "inputs": [
        {
          "internalType": "address",
          "name": "from",
          "type": "address"
        },
        {
          "internalType": "address",
          "name": "to",
          "type": "address"
        },
        {
          "internalType": "euint32",
          "name": "value",
          "type": "uint256"
        }
      ],
      "name": "transferFromEncrypted",
      "outputs": [
        {
          "internalType": "euint32",
          "name": "",
          "type": "uint256"
        }
      ],
      "stateMutability": "nonpayable",
      "type": "function"
    },
    {
      "inputs": [
        {
          "internalType": "uint32",
          "name": "amount",
          "type": "uint32"
        }
      ],
      "name": "unwrap",
      "outputs": [],
      "stateMutability": "nonpayable",
      "type": "function"
    },
    {
      "inputs": [
        {
          "internalType": "uint32",
          "name": "amount",
          "type": "uint32"
        }
      ],
      "name": "wrap",
      "outputs": [],
      "stateMutability": "nonpayable",
      "type": "function"
    }
  ],
  "transactionHash": "0x5acabbade40df00271a73b6111f4bd5f47dd1d1f6d581b0960eb4717bdebf22e",
  "args": [
    {
      "data": {
        "0": 16,
        "1": 8,
        "2": 0,
        "3": 0,
        "4": 0,
        "5": 0,
        "6": 0,
        "7": 0,
        "8": 229,
        "9": 84,
        "10": 219,
        "11": 144,
        "12": 100,
        "13": 43,
        "14": 50,
        "15": 32,
        "16": 93,
        "17": 155,
        "18": 82,
        "19": 56,
        "20": 138,
        "21": 148,
        "22": 170,
        "23": 53,
        "24": 239,
        "25": 108,
        "26": 142,
        "27": 137,
        "28": 144,
        "29": 40,
        "30": 128,
        "31": 167,
        "32": 164,
        "33": 5,
        "34": 6,
        "35": 68,
        "36": 244,
        "37": 10,
        "38": 23,
        "39": 184,
        "40": 4,
        "41": 126,
        "42": 212,
        "43": 20,
        "44": 91,
        "45": 208,
        "46": 247,
        "47": 43,
        "48": 128,
        "49": 139,
        "50": 10,
        "51": 248,
        "52": 182,
        "53": 99,
        "54": 245,
        "55": 73,
        "56": 203,
        "57": 52,
        "58": 116,
        "59": 108,
        "60": 43,
        "61": 192,
        "62": 204,
        "63": 20,
        "64": 1,
        "65": 48,
        "66": 241,
        "67": 16,
        "68": 66,
        "69": 111,
        "70": 194,
        "71": 183,
        "72": 81,
        "73": 145,
        "74": 180,
        "75": 92,
        "76": 35,
        "77": 119,
        "78": 188,
        "79": 242,
        "80": 187,
        "81": 243,
        "82": 236,
        "83": 0,
        "84": 92,
        "85": 38,
        "86": 113,
        "87": 24,
        "88": 138,
        "89": 226,
        "90": 48,
        "91": 195,
        "92": 20,
        "93": 94,
        "94": 24,
        "95": 66,
        "96": 193,
        "97": 179,
        "98": 16,
        "99": 15,
        "100": 132,
        "101": 136,
        "102": 139,
        "103": 130,
        "104": 132,
        "105": 111,
        "106": 161,
        "107": 66,
        "108": 157,
        "109": 34,
        "110": 119,
        "111": 33,
        "112": 49,
        "113": 78,
        "114": 140,
        "115": 227,
        "116": 15,
        "117": 146,
        "118": 170,
        "119": 68,
        "120": 149,
        "121": 235,
        "122": 165,
        "123": 221,
        "124": 138,
        "125": 143,
        "126": 139,
        "127": 87,
        "128": 240,
        "129": 134,
        "130": 97,
        "131": 54,
        "132": 117,
        "133": 6,
        "134": 178,
        "135": 105,
        "136": 239,
        "137": 18,
        "138": 237,
        "139": 107,
        "140": 73,
        "141": 45,
        "142": 83,
        "143": 165,
        "144": 39,
        "145": 98,
        "146": 234,
        "147": 28,
        "148": 55,
        "149": 40,
        "150": 207,
        "151": 177,
        "152": 121,
        "153": 217,
        "154": 64,
        "155": 11,
        "156": 159,
        "157": 139,
        "158": 76,
        "159": 240,
        "160": 7,
        "161": 104,
        "162": 27,
        "163": 190,
        "164": 53,
        "165": 151,
        "166": 182,
        "167": 141,
        "168": 233,
        "169": 52,
        "170": 67,
        "171": 2,
        "172": 23,
        "173": 158,
        "174": 82,
        "175": 236,
        "176": 160,
        "177": 70,
        "178": 147,
        "179": 98,
        "180": 241,
        "181": 58,
        "182": 212,
        "183": 215,
        "184": 225,
        "185": 218,
        "186": 72,
        "187": 188,
        "188": 193,
        "189": 140,
        "190": 19,
        "191": 34,
        "192": 156,
        "193": 196,
        "194": 102,
        "195": 141,
        "196": 5,
        "197": 217,
        "198": 39,
        "199": 35,
        "200": 0,
        "201": 115,
        "202": 178,
        "203": 95,
        "204": 128,
        "205": 81,
        "206": 191,
        "207": 150,
        "208": 23,
        "209": 183,
        "210": 115,
        "211": 126,
        "212": 90,
        "213": 225,
        "214": 141,
        "215": 125,
        "216": 251,
        "217": 145,
        "218": 229,
        "219": 98,
        "220": 250,
        "221": 38,
        "222": 3,
        "223": 31,
        "224": 214,
        "225": 220,
        "226": 131,
        "227": 223,
        "228": 107,
        "229": 108,
        "230": 223,
        "231": 14,
        "232": 213,
        "233": 189,
        "234": 162,
        "235": 157,
        "236": 10,
        "237": 151,
        "238": 157,
        "239": 127,
        "240": 143,
        "241": 93,
        "242": 166,
        "243": 167,
        "244": 230,
        "245": 243,
        "246": 15,
        "247": 157,
        "248": 209,
        "249": 132,
        "250": 4,
        "251": 245,
        "252": 128,
        "253": 128,
        "254": 23,
        "255": 167,
        "256": 60,
        "257": 169,
        "258": 248,
        "259": 205,
        "260": 91,
        "261": 238,
        "262": 190,
        "263": 24,
        "264": 201,
        "265": 58,
        "266": 48,
        "267": 16,
        "268": 53,
        "269": 105,
        "270": 168,
        "271": 93,
        "272": 119,
        "273": 77,
        "274": 217,
        "275": 16,
        "276": 12,
        "277": 111,
        "278": 122,
        "279": 204,
        "280": 141,
        "281": 159,
        "282": 82,
        "283": 93,
        "284": 147,
        "285": 110,
        "286": 174,
        "287": 28,
        "288": 100,
        "289": 139,
        "290": 158,
        "291": 166,
        "292": 162,
        "293": 102,
        "294": 134,
        "295": 55,
        "296": 198,
        "297": 127,
        "298": 96,
        "299": 14,
        "300": 177,
        "301": 100,
        "302": 96,
        "303": 88,
        "304": 185,
        "305": 75,
        "306": 16,
        "307": 89,
        "308": 174,
        "309": 185,
        "310": 80,
        "311": 31,
        "312": 18,
        "313": 175,
        "314": 43,
        "315": 229,
        "316": 173,
        "317": 67,
        "318": 215,
        "319": 115,
        "320": 195,
        "321": 210,
        "322": 223,
        "323": 82,
        "324": 9,
        "325": 80,
        "326": 129,
        "327": 86,
        "328": 139,
        "329": 48,
        "330": 69,
        "331": 71,
        "332": 174,
        "333": 130,
        "334": 105,
        "335": 186,
        "336": 199,
        "337": 211,
        "338": 92,
        "339": 88,
        "340": 137,
        "341": 92,
        "342": 70,
        "343": 14,
        "344": 75,
        "345": 119,
        "346": 51,
        "347": 129,
        "348": 7,
        "349": 118,
        "350": 172,
        "351": 90,
        "352": 55,
        "353": 212,
        "354": 54,
        "355": 6,
        "356": 162,
        "357": 65,
        "358": 179,
        "359": 229,
        "360": 21,
        "361": 162,
        "362": 23,
        "363": 189,
        "364": 151,
        "365": 61,
        "366": 224,
        "367": 225,
        "368": 21,
        "369": 240,
        "370": 190,
        "371": 120,
        "372": 185,
        "373": 41,
        "374": 118,
        "375": 2,
        "376": 25,
        "377": 61,
        "378": 235,
        "379": 226,
        "380": 94,
        "381": 204,
        "382": 123,
        "383": 76,
        "384": 99,
        "385": 102,
        "386": 101,
        "387": 151,
        "388": 68,
        "389": 28,
        "390": 155,
        "391": 93,
        "392": 17,
        "393": 113,
        "394": 112,
        "395": 68,
        "396": 144,
        "397": 229,
        "398": 148,
        "399": 172,
        "400": 103,
        "401": 11,
        "402": 134,
        "403": 172,
        "404": 87,
        "405": 180,
        "406": 140,
        "407": 166,
        "408": 175,
        "409": 212,
        "410": 13,
        "411": 135,
        "412": 244,
        "413": 144,
        "414": 45,
        "415": 247,
        "416": 212,
        "417": 132,
        "418": 59,
        "419": 4,
        "420": 87,
        "421": 62,
        "422": 10,
        "423": 22,
        "424": 82,
        "425": 143,
        "426": 41,
        "427": 21,
        "428": 97,
        "429": 178,
        "430": 187,
        "431": 226,
        "432": 128,
        "433": 149,
        "434": 126,
        "435": 178,
        "436": 215,
        "437": 100,
        "438": 88,
        "439": 138,
        "440": 21,
        "441": 231,
        "442": 137,
        "443": 13,
        "444": 132,
        "445": 145,
        "446": 246,
        "447": 66,
        "448": 226,
        "449": 106,
        "450": 60,
        "451": 27,
        "452": 69,
        "453": 95,
        "454": 159,
        "455": 206,
        "456": 166,
        "457": 156,
        "458": 177,
        "459": 154,
        "460": 177,
        "461": 22,
        "462": 110,
        "463": 111,
        "464": 129,
        "465": 27,
        "466": 56,
        "467": 142,
        "468": 160,
        "469": 210,
        "470": 144,
        "471": 122,
        "472": 71,
        "473": 1,
        "474": 46,
        "475": 48,
        "476": 110,
        "477": 161,
        "478": 58,
        "479": 125,
        "480": 182,
        "481": 78,
        "482": 75,
        "483": 254,
        "484": 145,
        "485": 255,
        "486": 204,
        "487": 55,
        "488": 203,
        "489": 22,
        "490": 68,
        "491": 239,
        "492": 167,
        "493": 157,
        "494": 44,
        "495": 158,
        "496": 233,
        "497": 61,
        "498": 184,
        "499": 97,
        "500": 202,
        "501": 2,
        "502": 127,
        "503": 93,
        "504": 9,
        "505": 78,
        "506": 152,
        "507": 191,
        "508": 103,
        "509": 29,
        "510": 189,
        "511": 93,
        "512": 197,
        "513": 219,
        "514": 163,
        "515": 114,
        "516": 58,
        "517": 103,
        "518": 97,
        "519": 132,
        "520": 185,
        "521": 213,
        "522": 135,
        "523": 137,
        "524": 15,
        "525": 20,
        "526": 15,
        "527": 161,
        "528": 69,
        "529": 71,
        "530": 94,
        "531": 252,
        "532": 242,
        "533": 68,
        "534": 15,
        "535": 162,
        "536": 8,
        "537": 0,
        "538": 125,
        "539": 169,
        "540": 57,
        "541": 127,
        "542": 252,
        "543": 9,
        "544": 81,
        "545": 29,
        "546": 209,
        "547": 196,
        "548": 238,
        "549": 97,
        "550": 248,
        "551": 165,
        "552": 167,
        "553": 15,
        "554": 60,
        "555": 152,
        "556": 142,
        "557": 146,
        "558": 97,
        "559": 222,
        "560": 242,
        "561": 186,
        "562": 132,
        "563": 69,
        "564": 77,
        "565": 121,
        "566": 99,
        "567": 221,
        "568": 24,
        "569": 198,
        "570": 112,
        "571": 87,
        "572": 204,
        "573": 169,
        "574": 219,
        "575": 51,
        "576": 55,
        "577": 1,
        "578": 144,
        "579": 253,
        "580": 155,
        "581": 165,
        "582": 41,
        "583": 63,
        "584": 24,
        "585": 196,
        "586": 170,
        "587": 62,
        "588": 192,
        "589": 50,
        "590": 119,
        "591": 68,
        "592": 111,
        "593": 122,
        "594": 219,
        "595": 222,
        "596": 143,
        "597": 86,
        "598": 232,
        "599": 53,
        "600": 105,
        "601": 57,
        "602": 111,
        "603": 83,
        "604": 222,
        "605": 76,
        "606": 71,
        "607": 184,
        "608": 130,
        "609": 133,
        "610": 98,
        "611": 159,
        "612": 148,
        "613": 209,
        "614": 153,
        "615": 253,
        "616": 90,
        "617": 161,
        "618": 223,
        "619": 1,
        "620": 143,
        "621": 212,
        "622": 3,
        "623": 13,
        "624": 130,
        "625": 100,
        "626": 44,
        "627": 129,
        "628": 208,
        "629": 17,
        "630": 247,
        "631": 230,
        "632": 173,
        "633": 209,
        "634": 176,
        "635": 157,
        "636": 82,
        "637": 22,
        "638": 176,
        "639": 55,
        "640": 128,
        "641": 165,
        "642": 41,
        "643": 172,
        "644": 95,
        "645": 94,
        "646": 216,
        "647": 8,
        "648": 255,
        "649": 177,
        "650": 239,
        "651": 84,
        "652": 78,
        "653": 189,
        "654": 79,
        "655": 16,
        "656": 20,
        "657": 236,
        "658": 134,
        "659": 128,
        "660": 200,
        "661": 205,
        "662": 91,
        "663": 133,
        "664": 88,
        "665": 33,
        "666": 222,
        "667": 34,
        "668": 127,
        "669": 103,
        "670": 67,
        "671": 14,
        "672": 127,
        "673": 73,
        "674": 72,
        "675": 225,
        "676": 132,
        "677": 178,
        "678": 56,
        "679": 10,
        "680": 4,
        "681": 155,
        "682": 77,
        "683": 225,
        "684": 98,
        "685": 210,
        "686": 220,
        "687": 154,
        "688": 131,
        "689": 4,
        "690": 12,
        "691": 84,
        "692": 118,
        "693": 131,
        "694": 245,
        "695": 84,
        "696": 209,
        "697": 231,
        "698": 221,
        "699": 203,
        "700": 103,
        "701": 233,
        "702": 222,
        "703": 16,
        "704": 138,
        "705": 93,
        "706": 38,
        "707": 17,
        "708": 86,
        "709": 2,
        "710": 113,
        "711": 19,
        "712": 133,
        "713": 139,
        "714": 8,
        "715": 88,
        "716": 52,
        "717": 104,
        "718": 254,
        "719": 55,
        "720": 168,
        "721": 107,
        "722": 169,
        "723": 136,
        "724": 71,
        "725": 213,
        "726": 101,
        "727": 150,
        "728": 198,
        "729": 180,
        "730": 214,
        "731": 46,
        "732": 120,
        "733": 221,
        "734": 24,
        "735": 84,
        "736": 167,
        "737": 86,
        "738": 223,
        "739": 115,
        "740": 238,
        "741": 188,
        "742": 9,
        "743": 243,
        "744": 31,
        "745": 90,
        "746": 141,
        "747": 166,
        "748": 156,
        "749": 35,
        "750": 154,
        "751": 87,
        "752": 197,
        "753": 217,
        "754": 23,
        "755": 178,
        "756": 234,
        "757": 105,
        "758": 97,
        "759": 89,
        "760": 137,
        "761": 98,
        "762": 225,
        "763": 110,
        "764": 169,
        "765": 108,
        "766": 210,
        "767": 22,
        "768": 86,
        "769": 187,
        "770": 25,
        "771": 212,
        "772": 196,
        "773": 120,
        "774": 115,
        "775": 121,
        "776": 131,
        "777": 128,
        "778": 123,
        "779": 138,
        "780": 189,
        "781": 178,
        "782": 131,
        "783": 255,
        "784": 203,
        "785": 28,
        "786": 66,
        "787": 21,
        "788": 226,
        "789": 62,
        "790": 39,
        "791": 240,
        "792": 43,
        "793": 49,
        "794": 235,
        "795": 150,
        "796": 152,
        "797": 222,
        "798": 150,
        "799": 77,
        "800": 6,
        "801": 67,
        "802": 166,
        "803": 201,
        "804": 62,
        "805": 138,
        "806": 255,
        "807": 128,
        "808": 145,
        "809": 32,
        "810": 205,
        "811": 153,
        "812": 118,
        "813": 50,
        "814": 164,
        "815": 33,
        "816": 4,
        "817": 160,
        "818": 238,
        "819": 36,
        "820": 143,
        "821": 39,
        "822": 36,
        "823": 248,
        "824": 88,
        "825": 195,
        "826": 133,
        "827": 68,
        "828": 62,
        "829": 235,
        "830": 189,
        "831": 95,
        "832": 194,
        "833": 152,
        "834": 71,
        "835": 73,
        "836": 37,
        "837": 99,
        "838": 53,
        "839": 115,
        "840": 168,
        "841": 188,
        "842": 134,
        "843": 181,
        "844": 198,
        "845": 37,
        "846": 123,
        "847": 254,
        "848": 204,
        "849": 186,
        "850": 167,
        "851": 97,
        "852": 204,
        "853": 227,
        "854": 185,
        "855": 75,
        "856": 8,
        "857": 59,
        "858": 227,
        "859": 90,
        "860": 39,
        "861": 179,
        "862": 96,
        "863": 163,
        "864": 0,
        "865": 192,
        "866": 192,
        "867": 70,
        "868": 30,
        "869": 34,
        "870": 212,
        "871": 157,
        "872": 252,
        "873": 59,
        "874": 251,
        "875": 93,
        "876": 64,
        "877": 182,
        "878": 164,
        "879": 22,
        "880": 176,
        "881": 154,
        "882": 193,
        "883": 151,
        "884": 233,
        "885": 198,
        "886": 242,
        "887": 72,
        "888": 18,
        "889": 84,
        "890": 167,
        "891": 50,
        "892": 180,
        "893": 80,
        "894": 177,
        "895": 242,
        "896": 109,
        "897": 113,
        "898": 30,
        "899": 40,
        "900": 185,
        "901": 68,
        "902": 246,
        "903": 223,
        "904": 146,
        "905": 43,
        "906": 61,
        "907": 164,
        "908": 86,
        "909": 42,
        "910": 236,
        "911": 7,
        "912": 174,
        "913": 98,
        "914": 133,
        "915": 241,
        "916": 113,
        "917": 154,
        "918": 94,
        "919": 68,
        "920": 233,
        "921": 175,
        "922": 138,
        "923": 201,
        "924": 48,
        "925": 246,
        "926": 106,
        "927": 255,
        "928": 35,
        "929": 196,
        "930": 122,
        "931": 152,
        "932": 232,
        "933": 132,
        "934": 124,
        "935": 14,
        "936": 80,
        "937": 115,
        "938": 90,
        "939": 114,
        "940": 29,
        "941": 197,
        "942": 148,
        "943": 100,
        "944": 253,
        "945": 240,
        "946": 138,
        "947": 87,
        "948": 129,
        "949": 84,
        "950": 63,
        "951": 28,
        "952": 96,
        "953": 121,
        "954": 58,
        "955": 215,
        "956": 92,
        "957": 99,
        "958": 140,
        "959": 110,
        "960": 10,
        "961": 192,
        "962": 96,
        "963": 99,
        "964": 149,
        "965": 53,
        "966": 170,
        "967": 91,
        "968": 55,
        "969": 62,
        "970": 128,
        "971": 245,
        "972": 227,
        "973": 44,
        "974": 113,
        "975": 178,
        "976": 169,
        "977": 159,
        "978": 42,
        "979": 168,
        "980": 208,
        "981": 86,
        "982": 195,
        "983": 194,
        "984": 40,
        "985": 83,
        "986": 149,
        "987": 39,
        "988": 79,
        "989": 253,
        "990": 195,
        "991": 92,
        "992": 32,
        "993": 35,
        "994": 74,
        "995": 76,
        "996": 76,
        "997": 84,
        "998": 114,
        "999": 85,
        "1000": 99,
        "1001": 131,
        "1002": 157,
        "1003": 132,
        "1004": 174,
        "1005": 171,
        "1006": 111,
        "1007": 192,
        "1008": 166,
        "1009": 80,
        "1010": 186,
        "1011": 18,
        "1012": 188,
        "1013": 2,
        "1014": 21,
        "1015": 117,
        "1016": 165,
        "1017": 122,
        "1018": 53,
        "1019": 114,
        "1020": 169,
        "1021": 122,
        "1022": 159,
        "1023": 119,
        "1024": 194,
        "1025": 111,
        "1026": 160,
        "1027": 195,
        "1028": 114,
        "1029": 182,
        "1030": 86,
        "1031": 140,
        "1032": 12,
        "1033": 181,
        "1034": 139,
        "1035": 93,
        "1036": 83,
        "1037": 80,
        "1038": 122,
        "1039": 154,
        "1040": 226,
        "1041": 152,
        "1042": 17,
        "1043": 4,
        "1044": 97,
        "1045": 56,
        "1046": 25,
        "1047": 49,
        "1048": 130,
        "1049": 76,
        "1050": 74,
        "1051": 73,
        "1052": 5,
        "1053": 151,
        "1054": 137,
        "1055": 159,
        "1056": 135,
        "1057": 59,
        "1058": 113,
        "1059": 148,
        "1060": 80,
        "1061": 202,
        "1062": 68,
        "1063": 39,
        "1064": 112,
        "1065": 211,
        "1066": 31,
        "1067": 87,
        "1068": 2,
        "1069": 204,
        "1070": 29,
        "1071": 135,
        "1072": 244,
        "1073": 166,
        "1074": 196,
        "1075": 50,
        "1076": 231,
        "1077": 14,
        "1078": 105,
        "1079": 63,
        "1080": 207,
        "1081": 144,
        "1082": 17,
        "1083": 15,
        "1084": 243,
        "1085": 157,
        "1086": 56,
        "1087": 148,
        "1088": 226,
        "1089": 241,
        "1090": 179,
        "1091": 165,
        "1092": 176,
        "1093": 198,
        "1094": 39,
        "1095": 40,
        "1096": 133,
        "1097": 171,
        "1098": 78,
        "1099": 249,
        "1100": 217,
        "1101": 72,
        "1102": 188,
        "1103": 52,
        "1104": 89,
        "1105": 168,
        "1106": 119,
        "1107": 128,
        "1108": 62,
        "1109": 254,
        "1110": 34,
        "1111": 53,
        "1112": 238,
        "1113": 96,
        "1114": 2,
        "1115": 234,
        "1116": 15,
        "1117": 29,
        "1118": 31,
        "1119": 163,
        "1120": 115,
        "1121": 198,
        "1122": 5,
        "1123": 235,
        "1124": 143,
        "1125": 211,
        "1126": 157,
        "1127": 195,
        "1128": 205,
        "1129": 255,
        "1130": 78,
        "1131": 2,
        "1132": 255,
        "1133": 29,
        "1134": 115,
        "1135": 97,
        "1136": 83,
        "1137": 47,
        "1138": 25,
        "1139": 186,
        "1140": 73,
        "1141": 8,
        "1142": 237,
        "1143": 99,
        "1144": 168,
        "1145": 86,
        "1146": 5,
        "1147": 171,
        "1148": 47,
        "1149": 163,
        "1150": 37,
        "1151": 5,
        "1152": 183,
        "1153": 103,
        "1154": 157,
        "1155": 55,
        "1156": 174,
        "1157": 249,
        "1158": 127,
        "1159": 119,
        "1160": 23,
        "1161": 185,
        "1162": 228,
        "1163": 102,
        "1164": 0,
        "1165": 102,
        "1166": 170,
        "1167": 180,
        "1168": 237,
        "1169": 224,
        "1170": 124,
        "1171": 215,
        "1172": 2,
        "1173": 16,
        "1174": 9,
        "1175": 202,
        "1176": 121,
        "1177": 107,
        "1178": 103,
        "1179": 44,
        "1180": 167,
        "1181": 48,
        "1182": 220,
        "1183": 57,
        "1184": 198,
        "1185": 48,
        "1186": 87,
        "1187": 70,
        "1188": 190,
        "1189": 17,
        "1190": 226,
        "1191": 173,
        "1192": 2,
        "1193": 57,
        "1194": 151,
        "1195": 54,
        "1196": 112,
        "1197": 132,
        "1198": 143,
        "1199": 62,
        "1200": 72,
        "1201": 236,
        "1202": 181,
        "1203": 10,
        "1204": 4,
        "1205": 30,
        "1206": 150,
        "1207": 83,
        "1208": 49,
        "1209": 252,
        "1210": 69,
        "1211": 3,
        "1212": 44,
        "1213": 187,
        "1214": 14,
        "1215": 49,
        "1216": 16,
        "1217": 221,
        "1218": 25,
        "1219": 219,
        "1220": 173,
        "1221": 42,
        "1222": 90,
        "1223": 152,
        "1224": 35,
        "1225": 61,
        "1226": 162,
        "1227": 91,
        "1228": 140,
        "1229": 123,
        "1230": 250,
        "1231": 230,
        "1232": 157,
        "1233": 24,
        "1234": 203,
        "1235": 33,
        "1236": 83,
        "1237": 237,
        "1238": 111,
        "1239": 168,
        "1240": 238,
        "1241": 246,
        "1242": 87,
        "1243": 162,
        "1244": 203,
        "1245": 229,
        "1246": 121,
        "1247": 129,
        "1248": 196,
        "1249": 225,
        "1250": 213,
        "1251": 40,
        "1252": 155,
        "1253": 70,
        "1254": 25,
        "1255": 111,
        "1256": 229,
        "1257": 40,
        "1258": 50,
        "1259": 97,
        "1260": 4,
        "1261": 112,
        "1262": 158,
        "1263": 219,
        "1264": 52,
        "1265": 137,
        "1266": 0,
        "1267": 100,
        "1268": 233,
        "1269": 236,
        "1270": 166,
        "1271": 227,
        "1272": 70,
        "1273": 225,
        "1274": 222,
        "1275": 172,
        "1276": 41,
        "1277": 83,
        "1278": 178,
        "1279": 74,
        "1280": 41,
        "1281": 72,
        "1282": 90,
        "1283": 92,
        "1284": 160,
        "1285": 118,
        "1286": 246,
        "1287": 39,
        "1288": 195,
        "1289": 80,
        "1290": 144,
        "1291": 67,
        "1292": 4,
        "1293": 107,
        "1294": 147,
        "1295": 153,
        "1296": 76,
        "1297": 154,
        "1298": 198,
        "1299": 89,
        "1300": 25,
        "1301": 87,
        "1302": 79,
        "1303": 86,
        "1304": 143,
        "1305": 36,
        "1306": 69,
        "1307": 58,
        "1308": 115,
        "1309": 140,
        "1310": 220,
        "1311": 177,
        "1312": 247,
        "1313": 245,
        "1314": 94,
        "1315": 148,
        "1316": 225,
        "1317": 81,
        "1318": 22,
        "1319": 184,
        "1320": 181,
        "1321": 191,
        "1322": 243,
        "1323": 6,
        "1324": 34,
        "1325": 102,
        "1326": 169,
        "1327": 140,
        "1328": 112,
        "1329": 215,
        "1330": 37,
        "1331": 41,
        "1332": 148,
        "1333": 61,
        "1334": 140,
        "1335": 210,
        "1336": 181,
        "1337": 233,
        "1338": 19,
        "1339": 168,
        "1340": 172,
        "1341": 49,
        "1342": 15,
        "1343": 208,
        "1344": 247,
        "1345": 176,
        "1346": 151,
        "1347": 98,
        "1348": 111,
        "1349": 233,
        "1350": 61,
        "1351": 28,
        "1352": 28,
        "1353": 185,
        "1354": 201,
        "1355": 219,
        "1356": 61,
        "1357": 134,
        "1358": 131,
        "1359": 7,
        "1360": 135,
        "1361": 228,
        "1362": 196,
        "1363": 148,
        "1364": 216,
        "1365": 25,
        "1366": 254,
        "1367": 187,
        "1368": 177,
        "1369": 107,
        "1370": 26,
        "1371": 232,
        "1372": 188,
        "1373": 35,
        "1374": 18,
        "1375": 252,
        "1376": 147,
        "1377": 107,
        "1378": 133,
        "1379": 214,
        "1380": 107,
        "1381": 231,
        "1382": 89,
        "1383": 101,
        "1384": 63,
        "1385": 59,
        "1386": 235,
        "1387": 70,
        "1388": 14,
        "1389": 13,
        "1390": 100,
        "1391": 178,
        "1392": 97,
        "1393": 108,
        "1394": 185,
        "1395": 165,
        "1396": 207,
        "1397": 86,
        "1398": 17,
        "1399": 191,
        "1400": 189,
        "1401": 212,
        "1402": 121,
        "1403": 63,
        "1404": 190,
        "1405": 12,
        "1406": 70,
        "1407": 241,
        "1408": 216,
        "1409": 209,
        "1410": 162,
        "1411": 88,
        "1412": 58,
        "1413": 238,
        "1414": 112,
        "1415": 185,
        "1416": 243,
        "1417": 202,
        "1418": 52,
        "1419": 151,
        "1420": 159,
        "1421": 71,
        "1422": 236,
        "1423": 102,
        "1424": 135,
        "1425": 61,
        "1426": 46,
        "1427": 137,
        "1428": 157,
        "1429": 159,
        "1430": 89,
        "1431": 210,
        "1432": 146,
        "1433": 110,
        "1434": 156,
        "1435": 197,
        "1436": 103,
        "1437": 36,
        "1438": 140,
        "1439": 28,
        "1440": 247,
        "1441": 194,
        "1442": 208,
        "1443": 28,
        "1444": 160,
        "1445": 69,
        "1446": 140,
        "1447": 50,
        "1448": 201,
        "1449": 51,
        "1450": 39,
        "1451": 30,
        "1452": 140,
        "1453": 222,
        "1454": 193,
        "1455": 86,
        "1456": 231,
        "1457": 199,
        "1458": 213,
        "1459": 73,
        "1460": 116,
        "1461": 59,
        "1462": 183,
        "1463": 243,
        "1464": 216,
        "1465": 91,
        "1466": 178,
        "1467": 249,
        "1468": 15,
        "1469": 99,
        "1470": 154,
        "1471": 9,
        "1472": 98,
        "1473": 88,
        "1474": 245,
        "1475": 36,
        "1476": 92,
        "1477": 75,
        "1478": 150,
        "1479": 119,
        "1480": 250,
        "1481": 115,
        "1482": 68,
        "1483": 42,
        "1484": 57,
        "1485": 75,
        "1486": 149,
        "1487": 195,
        "1488": 246,
        "1489": 17,
        "1490": 183,
        "1491": 249,
        "1492": 162,
        "1493": 60,
        "1494": 8,
        "1495": 63,
        "1496": 116,
        "1497": 84,
        "1498": 110,
        "1499": 114,
        "1500": 212,
        "1501": 86,
        "1502": 22,
        "1503": 59,
        "1504": 87,
        "1505": 210,
        "1506": 187,
        "1507": 80,
        "1508": 60,
        "1509": 201,
        "1510": 187,
        "1511": 243,
        "1512": 116,
        "1513": 29,
        "1514": 122,
        "1515": 164,
        "1516": 78,
        "1517": 131,
        "1518": 23,
        "1519": 106,
        "1520": 49,
        "1521": 152,
        "1522": 16,
        "1523": 192,
        "1524": 96,
        "1525": 157,
        "1526": 51,
        "1527": 250,
        "1528": 243,
        "1529": 226,
        "1530": 22,
        "1531": 126,
        "1532": 104,
        "1533": 183,
        "1534": 22,
        "1535": 138,
        "1536": 82,
        "1537": 17,
        "1538": 225,
        "1539": 154,
        "1540": 175,
        "1541": 71,
        "1542": 224,
        "1543": 69,
        "1544": 214,
        "1545": 172,
        "1546": 92,
        "1547": 76,
        "1548": 53,
        "1549": 167,
        "1550": 134,
        "1551": 213,
        "1552": 131,
        "1553": 17,
        "1554": 122,
        "1555": 156,
        "1556": 50,
        "1557": 106,
        "1558": 56,
        "1559": 72,
        "1560": 174,
        "1561": 208,
        "1562": 134,
        "1563": 70,
        "1564": 76,
        "1565": 190,
        "1566": 56,
        "1567": 22,
        "1568": 12,
        "1569": 228,
        "1570": 134,
        "1571": 190,
        "1572": 38,
        "1573": 79,
        "1574": 35,
        "1575": 125,
        "1576": 192,
        "1577": 26,
        "1578": 153,
        "1579": 9,
        "1580": 108,
        "1581": 18,
        "1582": 9,
        "1583": 162,
        "1584": 72,
        "1585": 82,
        "1586": 79,
        "1587": 49,
        "1588": 106,
        "1589": 134,
        "1590": 112,
        "1591": 235,
        "1592": 193,
        "1593": 212,
        "1594": 3,
        "1595": 210,
        "1596": 152,
        "1597": 254,
        "1598": 185,
        "1599": 43,
        "1600": 169,
        "1601": 63,
        "1602": 208,
        "1603": 72,
        "1604": 109,
        "1605": 106,
        "1606": 140,
        "1607": 49,
        "1608": 146,
        "1609": 224,
        "1610": 229,
        "1611": 49,
        "1612": 66,
        "1613": 246,
        "1614": 165,
        "1615": 26,
        "1616": 217,
        "1617": 244,
        "1618": 35,
        "1619": 140,
        "1620": 126,
        "1621": 65,
        "1622": 112,
        "1623": 51,
        "1624": 69,
        "1625": 150,
        "1626": 17,
        "1627": 17,
        "1628": 180,
        "1629": 201,
        "1630": 181,
        "1631": 136,
        "1632": 125,
        "1633": 48,
        "1634": 17,
        "1635": 49,
        "1636": 215,
        "1637": 12,
        "1638": 201,
        "1639": 49,
        "1640": 150,
        "1641": 65,
        "1642": 93,
        "1643": 122,
        "1644": 210,
        "1645": 176,
        "1646": 246,
        "1647": 84,
        "1648": 19,
        "1649": 59,
        "1650": 219,
        "1651": 152,
        "1652": 85,
        "1653": 206,
        "1654": 38,
        "1655": 34,
        "1656": 189,
        "1657": 100,
        "1658": 98,
        "1659": 174,
        "1660": 156,
        "1661": 232,
        "1662": 56,
        "1663": 232,
        "1664": 112,
        "1665": 36,
        "1666": 57,
        "1667": 107,
        "1668": 52,
        "1669": 106,
        "1670": 239,
        "1671": 238,
        "1672": 42,
        "1673": 91,
        "1674": 168,
        "1675": 204,
        "1676": 117,
        "1677": 201,
        "1678": 10,
        "1679": 251,
        "1680": 114,
        "1681": 22,
        "1682": 126,
        "1683": 67,
        "1684": 71,
        "1685": 59,
        "1686": 137,
        "1687": 243,
        "1688": 176,
        "1689": 32,
        "1690": 200,
        "1691": 15,
        "1692": 30,
        "1693": 137,
        "1694": 78,
        "1695": 167,
        "1696": 157,
        "1697": 109,
        "1698": 168,
        "1699": 114,
        "1700": 200,
        "1701": 150,
        "1702": 115,
        "1703": 236,
        "1704": 39,
        "1705": 42,
        "1706": 241,
        "1707": 127,
        "1708": 112,
        "1709": 178,
        "1710": 51,
        "1711": 78,
        "1712": 72,
        "1713": 150,
        "1714": 224,
        "1715": 132,
        "1716": 176,
        "1717": 80,
        "1718": 23,
        "1719": 147,
        "1720": 189,
        "1721": 229,
        "1722": 194,
        "1723": 123,
        "1724": 25,
        "1725": 34,
        "1726": 48,
        "1727": 214,
        "1728": 66,
        "1729": 10,
        "1730": 96,
        "1731": 253,
        "1732": 3,
        "1733": 108,
        "1734": 158,
        "1735": 188,
        "1736": 175,
        "1737": 140,
        "1738": 205,
        "1739": 246,
        "1740": 180,
        "1741": 227,
        "1742": 13,
        "1743": 85,
        "1744": 229,
        "1745": 183,
        "1746": 35,
        "1747": 62,
        "1748": 123,
        "1749": 30,
        "1750": 134,
        "1751": 177,
        "1752": 23,
        "1753": 47,
        "1754": 235,
        "1755": 171,
        "1756": 66,
        "1757": 70,
        "1758": 13,
        "1759": 52,
        "1760": 200,
        "1761": 182,
        "1762": 13,
        "1763": 245,
        "1764": 204,
        "1765": 96,
        "1766": 89,
        "1767": 67,
        "1768": 81,
        "1769": 141,
        "1770": 147,
        "1771": 172,
        "1772": 179,
        "1773": 28,
        "1774": 112,
        "1775": 3,
        "1776": 252,
        "1777": 215,
        "1778": 121,
        "1779": 109,
        "1780": 242,
        "1781": 218,
        "1782": 129,
        "1783": 152,
        "1784": 205,
        "1785": 67,
        "1786": 136,
        "1787": 162,
        "1788": 119,
        "1789": 181,
        "1790": 42,
        "1791": 67,
        "1792": 3,
        "1793": 216,
        "1794": 105,
        "1795": 63,
        "1796": 19,
        "1797": 5,
        "1798": 45,
        "1799": 41,
        "1800": 53,
        "1801": 233,
        "1802": 139,
        "1803": 54,
        "1804": 1,
        "1805": 148,
        "1806": 134,
        "1807": 202,
        "1808": 173,
        "1809": 56,
        "1810": 248,
        "1811": 9,
        "1812": 195,
        "1813": 216,
        "1814": 52,
        "1815": 142,
        "1816": 146,
        "1817": 245,
        "1818": 54,
        "1819": 120,
        "1820": 66,
        "1821": 5,
        "1822": 171,
        "1823": 165,
        "1824": 230,
        "1825": 194,
        "1826": 3,
        "1827": 242,
        "1828": 126,
        "1829": 129,
        "1830": 96,
        "1831": 220,
        "1832": 71,
        "1833": 29,
        "1834": 228,
        "1835": 59,
        "1836": 10,
        "1837": 47,
        "1838": 104,
        "1839": 236,
        "1840": 133,
        "1841": 204,
        "1842": 237,
        "1843": 169,
        "1844": 158,
        "1845": 106,
        "1846": 210,
        "1847": 248,
        "1848": 190,
        "1849": 201,
        "1850": 233,
        "1851": 189,
        "1852": 139,
        "1853": 95,
        "1854": 240,
        "1855": 128,
        "1856": 37,
        "1857": 71,
        "1858": 89,
        "1859": 127,
        "1860": 197,
        "1861": 202,
        "1862": 137,
        "1863": 238,
        "1864": 58,
        "1865": 59,
        "1866": 110,
        "1867": 124,
        "1868": 73,
        "1869": 161,
        "1870": 18,
        "1871": 129,
        "1872": 218,
        "1873": 161,
        "1874": 72,
        "1875": 87,
        "1876": 139,
        "1877": 131,
        "1878": 26,
        "1879": 51,
        "1880": 156,
        "1881": 61,
        "1882": 178,
        "1883": 78,
        "1884": 129,
        "1885": 96,
        "1886": 199,
        "1887": 30,
        "1888": 116,
        "1889": 222,
        "1890": 137,
        "1891": 255,
        "1892": 41,
        "1893": 93,
        "1894": 198,
        "1895": 214,
        "1896": 117,
        "1897": 233,
        "1898": 178,
        "1899": 192,
        "1900": 7,
        "1901": 85,
        "1902": 194,
        "1903": 96,
        "1904": 150,
        "1905": 70,
        "1906": 174,
        "1907": 237,
        "1908": 173,
        "1909": 227,
        "1910": 20,
        "1911": 188,
        "1912": 146,
        "1913": 40,
        "1914": 136,
        "1915": 13,
        "1916": 212,
        "1917": 36,
        "1918": 80,
        "1919": 255,
        "1920": 33,
        "1921": 249,
        "1922": 112,
        "1923": 59,
        "1924": 175,
        "1925": 250,
        "1926": 145,
        "1927": 143,
        "1928": 181,
        "1929": 169,
        "1930": 81,
        "1931": 68,
        "1932": 33,
        "1933": 190,
        "1934": 211,
        "1935": 39,
        "1936": 7,
        "1937": 91,
        "1938": 175,
        "1939": 90,
        "1940": 87,
        "1941": 137,
        "1942": 78,
        "1943": 132,
        "1944": 157,
        "1945": 51,
        "1946": 71,
        "1947": 105,
        "1948": 92,
        "1949": 225,
        "1950": 111,
        "1951": 80,
        "1952": 234,
        "1953": 203,
        "1954": 187,
        "1955": 138,
        "1956": 165,
        "1957": 20,
        "1958": 132,
        "1959": 171,
        "1960": 248,
        "1961": 222,
        "1962": 227,
        "1963": 54,
        "1964": 106,
        "1965": 144,
        "1966": 85,
        "1967": 88,
        "1968": 37,
        "1969": 196,
        "1970": 202,
        "1971": 203,
        "1972": 137,
        "1973": 55,
        "1974": 50,
        "1975": 232,
        "1976": 85,
        "1977": 227,
        "1978": 73,
        "1979": 54,
        "1980": 175,
        "1981": 146,
        "1982": 223,
        "1983": 35,
        "1984": 26,
        "1985": 30,
        "1986": 249,
        "1987": 22,
        "1988": 230,
        "1989": 67,
        "1990": 36,
        "1991": 14,
        "1992": 205,
        "1993": 1,
        "1994": 240,
        "1995": 40,
        "1996": 190,
        "1997": 251,
        "1998": 77,
        "1999": 26,
        "2000": 201,
        "2001": 20,
        "2002": 73,
        "2003": 184,
        "2004": 212,
        "2005": 80,
        "2006": 240,
        "2007": 18,
        "2008": 209,
        "2009": 254,
        "2010": 4,
        "2011": 239,
        "2012": 132,
        "2013": 142,
        "2014": 165,
        "2015": 189,
        "2016": 249,
        "2017": 64,
        "2018": 60,
        "2019": 3,
        "2020": 111,
        "2021": 13,
        "2022": 115,
        "2023": 182,
        "2024": 151,
        "2025": 65,
        "2026": 249,
        "2027": 14,
        "2028": 97,
        "2029": 122,
        "2030": 244,
        "2031": 128,
        "2032": 186,
        "2033": 248,
        "2034": 169,
        "2035": 41,
        "2036": 94,
        "2037": 187,
        "2038": 28,
        "2039": 123,
        "2040": 98,
        "2041": 31,
        "2042": 27,
        "2043": 254,
        "2044": 55,
        "2045": 39,
        "2046": 177,
        "2047": 17,
        "2048": 97,
        "2049": 62,
        "2050": 181,
        "2051": 63,
        "2052": 245,
        "2053": 56,
        "2054": 83,
        "2055": 108,
        "2056": 221,
        "2057": 136,
        "2058": 83,
        "2059": 134,
        "2060": 174,
        "2061": 104,
        "2062": 197,
        "2063": 53,
        "2064": 31,
        "2065": 238,
        "2066": 10,
        "2067": 36,
        "2068": 141,
        "2069": 26,
        "2070": 185,
        "2071": 92,
        "2072": 84,
        "2073": 36,
        "2074": 225,
        "2075": 235,
        "2076": 48,
        "2077": 112,
        "2078": 220,
        "2079": 226,
        "2080": 76,
        "2081": 168,
        "2082": 245,
        "2083": 5,
        "2084": 105,
        "2085": 168,
        "2086": 77,
        "2087": 195,
        "2088": 177,
        "2089": 148,
        "2090": 59,
        "2091": 95,
        "2092": 117,
        "2093": 3,
        "2094": 138,
        "2095": 108,
        "2096": 150,
        "2097": 114,
        "2098": 129,
        "2099": 154,
        "2100": 124,
        "2101": 15,
        "2102": 151,
        "2103": 20,
        "2104": 127,
        "2105": 42,
        "2106": 28,
        "2107": 100,
        "2108": 229,
        "2109": 93,
        "2110": 5,
        "2111": 236,
        "2112": 131,
        "2113": 50,
        "2114": 187,
        "2115": 84,
        "2116": 216,
        "2117": 38,
        "2118": 225,
        "2119": 23,
        "2120": 30,
        "2121": 212,
        "2122": 68,
        "2123": 171,
        "2124": 126,
        "2125": 117,
        "2126": 247,
        "2127": 87,
        "2128": 254,
        "2129": 156,
        "2130": 184,
        "2131": 111,
        "2132": 177,
        "2133": 40,
        "2134": 145,
        "2135": 98,
        "2136": 0,
        "2137": 175,
        "2138": 199,
        "2139": 217,
        "2140": 196,
        "2141": 160,
        "2142": 129,
        "2143": 96,
        "2144": 174,
        "2145": 204,
        "2146": 96,
        "2147": 51,
        "2148": 231,
        "2149": 203,
        "2150": 40,
        "2151": 58,
        "2152": 28,
        "2153": 146,
        "2154": 33,
        "2155": 39,
        "2156": 63,
        "2157": 255,
        "2158": 230,
        "2159": 252,
        "2160": 59,
        "2161": 251,
        "2162": 144,
        "2163": 149,
        "2164": 94,
        "2165": 227,
        "2166": 79,
        "2167": 32,
        "2168": 94,
        "2169": 3,
        "2170": 150,
        "2171": 134,
        "2172": 227,
        "2173": 53,
        "2174": 24,
        "2175": 229,
        "2176": 252,
        "2177": 94,
        "2178": 127,
        "2179": 234,
        "2180": 115,
        "2181": 130,
        "2182": 6,
        "2183": 221,
        "2184": 193,
        "2185": 31,
        "2186": 64,
        "2187": 91,
        "2188": 186,
        "2189": 112,
        "2190": 156,
        "2191": 174,
        "2192": 5,
        "2193": 37,
        "2194": 155,
        "2195": 20,
        "2196": 26,
        "2197": 76,
        "2198": 177,
        "2199": 122,
        "2200": 155,
        "2201": 128,
        "2202": 96,
        "2203": 183,
        "2204": 120,
        "2205": 211,
        "2206": 236,
        "2207": 153,
        "2208": 226,
        "2209": 58,
        "2210": 194,
        "2211": 53,
        "2212": 10,
        "2213": 150,
        "2214": 37,
        "2215": 235,
        "2216": 100,
        "2217": 105,
        "2218": 56,
        "2219": 250,
        "2220": 18,
        "2221": 100,
        "2222": 102,
        "2223": 126,
        "2224": 156,
        "2225": 190,
        "2226": 122,
        "2227": 121,
        "2228": 148,
        "2229": 109,
        "2230": 138,
        "2231": 52,
        "2232": 132,
        "2233": 227,
        "2234": 23,
        "2235": 184,
        "2236": 114,
        "2237": 106,
        "2238": 242,
        "2239": 153,
        "2240": 130,
        "2241": 164,
        "2242": 158,
        "2243": 15,
        "2244": 27,
        "2245": 208,
        "2246": 110,
        "2247": 241,
        "2248": 34,
        "2249": 172,
        "2250": 126,
        "2251": 27,
        "2252": 127,
        "2253": 112,
        "2254": 122,
        "2255": 217,
        "2256": 158,
        "2257": 218,
        "2258": 192,
        "2259": 182,
        "2260": 105,
        "2261": 216,
        "2262": 203,
        "2263": 128,
        "2264": 114,
        "2265": 205,
        "2266": 223,
        "2267": 154,
        "2268": 15,
        "2269": 168,
        "2270": 173,
        "2271": 104,
        "2272": 182,
        "2273": 65,
        "2274": 190,
        "2275": 24,
        "2276": 76,
        "2277": 203,
        "2278": 135,
        "2279": 246,
        "2280": 220,
        "2281": 158,
        "2282": 162,
        "2283": 133,
        "2284": 165,
        "2285": 126,
        "2286": 236,
        "2287": 156,
        "2288": 65,
        "2289": 54,
        "2290": 41,
        "2291": 211,
        "2292": 236,
        "2293": 48,
        "2294": 221,
        "2295": 236,
        "2296": 244,
        "2297": 8,
        "2298": 20,
        "2299": 153,
        "2300": 190,
        "2301": 253,
        "2302": 3,
        "2303": 53,
        "2304": 212,
        "2305": 43,
        "2306": 245,
        "2307": 12,
        "2308": 157,
        "2309": 50,
        "2310": 238,
        "2311": 255,
        "2312": 250,
        "2313": 157,
        "2314": 63,
        "2315": 64,
        "2316": 78,
        "2317": 244,
        "2318": 129,
        "2319": 54,
        "2320": 74,
        "2321": 181,
        "2322": 37,
        "2323": 173,
        "2324": 87,
        "2325": 12,
        "2326": 42,
        "2327": 251,
        "2328": 130,
        "2329": 242,
        "2330": 112,
        "2331": 241,
        "2332": 111,
        "2333": 167,
        "2334": 116,
        "2335": 178,
        "2336": 16,
        "2337": 80,
        "2338": 110,
        "2339": 240,
        "2340": 1,
        "2341": 65,
        "2342": 196,
        "2343": 132,
        "2344": 96,
        "2345": 171,
        "2346": 199,
        "2347": 106,
        "2348": 119,
        "2349": 170,
        "2350": 11,
        "2351": 62,
        "2352": 164,
        "2353": 228,
        "2354": 230,
        "2355": 181,
        "2356": 199,
        "2357": 86,
        "2358": 132,
        "2359": 21,
        "2360": 16,
        "2361": 236,
        "2362": 139,
        "2363": 96,
        "2364": 241,
        "2365": 167,
        "2366": 6,
        "2367": 32,
        "2368": 6,
        "2369": 61,
        "2370": 17,
        "2371": 95,
        "2372": 90,
        "2373": 181,
        "2374": 4,
        "2375": 131,
        "2376": 204,
        "2377": 9,
        "2378": 29,
        "2379": 207,
        "2380": 112,
        "2381": 105,
        "2382": 241,
        "2383": 37,
        "2384": 62,
        "2385": 100,
        "2386": 233,
        "2387": 139,
        "2388": 240,
        "2389": 158,
        "2390": 241,
        "2391": 250,
        "2392": 214,
        "2393": 68,
        "2394": 193,
        "2395": 182,
        "2396": 78,
        "2397": 9,
        "2398": 48,
        "2399": 47,
        "2400": 180,
        "2401": 241,
        "2402": 245,
        "2403": 115,
        "2404": 104,
        "2405": 185,
        "2406": 175,
        "2407": 122,
        "2408": 21,
        "2409": 95,
        "2410": 90,
        "2411": 74,
        "2412": 90,
        "2413": 196,
        "2414": 32,
        "2415": 95,
        "2416": 110,
        "2417": 105,
        "2418": 59,
        "2419": 191,
        "2420": 34,
        "2421": 243,
        "2422": 48,
        "2423": 173,
        "2424": 130,
        "2425": 62,
        "2426": 112,
        "2427": 31,
        "2428": 85,
        "2429": 37,
        "2430": 62,
        "2431": 179,
        "2432": 113,
        "2433": 47,
        "2434": 236,
        "2435": 56,
        "2436": 247,
        "2437": 130,
        "2438": 148,
        "2439": 167,
        "2440": 106,
        "2441": 3,
        "2442": 223,
        "2443": 86,
        "2444": 189,
        "2445": 61,
        "2446": 40,
        "2447": 210,
        "2448": 99,
        "2449": 166,
        "2450": 22,
        "2451": 251,
        "2452": 226,
        "2453": 195,
        "2454": 243,
        "2455": 106,
        "2456": 166,
        "2457": 104,
        "2458": 78,
        "2459": 213,
        "2460": 147,
        "2461": 109,
        "2462": 237,
        "2463": 88,
        "2464": 94,
        "2465": 23,
        "2466": 186,
        "2467": 200,
        "2468": 238,
        "2469": 152,
        "2470": 84,
        "2471": 114,
        "2472": 237,
        "2473": 200,
        "2474": 59,
        "2475": 40,
        "2476": 122,
        "2477": 7,
        "2478": 63,
        "2479": 23,
        "2480": 182,
        "2481": 45,
        "2482": 149,
        "2483": 66,
        "2484": 153,
        "2485": 219,
        "2486": 43,
        "2487": 145,
        "2488": 2,
        "2489": 98,
        "2490": 196,
        "2491": 188,
        "2492": 60,
        "2493": 237,
        "2494": 51,
        "2495": 229,
        "2496": 109,
        "2497": 221,
        "2498": 204,
        "2499": 107,
        "2500": 239,
        "2501": 100,
        "2502": 182,
        "2503": 119,
        "2504": 142,
        "2505": 76,
        "2506": 121,
        "2507": 186,
        "2508": 56,
        "2509": 153,
        "2510": 105,
        "2511": 87,
        "2512": 147,
        "2513": 218,
        "2514": 118,
        "2515": 174,
        "2516": 68,
        "2517": 139,
        "2518": 41,
        "2519": 109,
        "2520": 217,
        "2521": 214,
        "2522": 70,
        "2523": 20,
        "2524": 240,
        "2525": 222,
        "2526": 191,
        "2527": 200,
        "2528": 207,
        "2529": 121,
        "2530": 202,
        "2531": 85,
        "2532": 185,
        "2533": 39,
        "2534": 125,
        "2535": 245,
        "2536": 35,
        "2537": 153,
        "2538": 204,
        "2539": 242,
        "2540": 112,
        "2541": 123,
        "2542": 154,
        "2543": 144,
        "2544": 123,
        "2545": 204,
        "2546": 117,
        "2547": 136,
        "2548": 237,
        "2549": 83,
        "2550": 223,
        "2551": 66,
        "2552": 236,
        "2553": 147,
        "2554": 153,
        "2555": 177,
        "2556": 151,
        "2557": 61,
        "2558": 131,
        "2559": 237,
        "2560": 200,
        "2561": 169,
        "2562": 122,
        "2563": 80,
        "2564": 47,
        "2565": 48,
        "2566": 154,
        "2567": 180,
        "2568": 44,
        "2569": 82,
        "2570": 12,
        "2571": 7,
        "2572": 36,
        "2573": 238,
        "2574": 84,
        "2575": 204,
        "2576": 20,
        "2577": 248,
        "2578": 154,
        "2579": 154,
        "2580": 169,
        "2581": 55,
        "2582": 91,
        "2583": 42,
        "2584": 165,
        "2585": 195,
        "2586": 77,
        "2587": 85,
        "2588": 176,
        "2589": 198,
        "2590": 28,
        "2591": 251,
        "2592": 122,
        "2593": 156,
        "2594": 243,
        "2595": 159,
        "2596": 103,
        "2597": 189,
        "2598": 217,
        "2599": 221,
        "2600": 141,
        "2601": 45,
        "2602": 200,
        "2603": 185,
        "2604": 137,
        "2605": 136,
        "2606": 154,
        "2607": 35,
        "2608": 222,
        "2609": 221,
        "2610": 211,
        "2611": 146,
        "2612": 172,
        "2613": 219,
        "2614": 75,
        "2615": 221,
        "2616": 37,
        "2617": 168,
        "2618": 81,
        "2619": 114,
        "2620": 17,
        "2621": 195,
        "2622": 141,
        "2623": 208,
        "2624": 81,
        "2625": 17,
        "2626": 131,
        "2627": 124,
        "2628": 182,
        "2629": 39,
        "2630": 8,
        "2631": 203,
        "2632": 46,
        "2633": 110,
        "2634": 84,
        "2635": 231,
        "2636": 240,
        "2637": 248,
        "2638": 249,
        "2639": 48,
        "2640": 195,
        "2641": 233,
        "2642": 86,
        "2643": 0,
        "2644": 123,
        "2645": 25,
        "2646": 164,
        "2647": 45,
        "2648": 254,
        "2649": 236,
        "2650": 59,
        "2651": 246,
        "2652": 83,
        "2653": 186,
        "2654": 198,
        "2655": 112,
        "2656": 185,
        "2657": 138,
        "2658": 75,
        "2659": 96,
        "2660": 145,
        "2661": 232,
        "2662": 193,
        "2663": 162,
        "2664": 19,
        "2665": 30,
        "2666": 147,
        "2667": 19,
        "2668": 238,
        "2669": 204,
        "2670": 69,
        "2671": 128,
        "2672": 133,
        "2673": 236,
        "2674": 182,
        "2675": 103,
        "2676": 138,
        "2677": 240,
        "2678": 92,
        "2679": 152,
        "2680": 83,
        "2681": 76,
        "2682": 218,
        "2683": 215,
        "2684": 204,
        "2685": 8,
        "2686": 67,
        "2687": 144,
        "2688": 204,
        "2689": 21,
        "2690": 235,
        "2691": 72,
        "2692": 24,
        "2693": 66,
        "2694": 152,
        "2695": 195,
        "2696": 59,
        "2697": 194,
        "2698": 68,
        "2699": 37,
        "2700": 56,
        "2701": 184,
        "2702": 224,
        "2703": 39,
        "2704": 174,
        "2705": 28,
        "2706": 190,
        "2707": 94,
        "2708": 188,
        "2709": 141,
        "2710": 250,
        "2711": 1,
        "2712": 226,
        "2713": 174,
        "2714": 78,
        "2715": 145,
        "2716": 68,
        "2717": 218,
        "2718": 45,
        "2719": 105,
        "2720": 20,
        "2721": 202,
        "2722": 41,
        "2723": 176,
        "2724": 95,
        "2725": 2,
        "2726": 18,
        "2727": 137,
        "2728": 173,
        "2729": 167,
        "2730": 211,
        "2731": 47,
        "2732": 4,
        "2733": 97,
        "2734": 83,
        "2735": 16,
        "2736": 168,
        "2737": 183,
        "2738": 204,
        "2739": 39,
        "2740": 252,
        "2741": 209,
        "2742": 228,
        "2743": 0,
        "2744": 111,
        "2745": 166,
        "2746": 52,
        "2747": 254,
        "2748": 59,
        "2749": 202,
        "2750": 7,
        "2751": 207,
        "2752": 92,
        "2753": 192,
        "2754": 105,
        "2755": 136,
        "2756": 26,
        "2757": 28,
        "2758": 197,
        "2759": 246,
        "2760": 48,
        "2761": 51,
        "2762": 242,
        "2763": 13,
        "2764": 172,
        "2765": 74,
        "2766": 1,
        "2767": 248,
        "2768": 236,
        "2769": 46,
        "2770": 248,
        "2771": 218,
        "2772": 149,
        "2773": 79,
        "2774": 88,
        "2775": 3,
        "2776": 6,
        "2777": 137,
        "2778": 210,
        "2779": 169,
        "2780": 92,
        "2781": 129,
        "2782": 201,
        "2783": 167,
        "2784": 215,
        "2785": 124,
        "2786": 138,
        "2787": 161,
        "2788": 38,
        "2789": 206,
        "2790": 65,
        "2791": 164,
        "2792": 251,
        "2793": 193,
        "2794": 129,
        "2795": 47,
        "2796": 37,
        "2797": 191,
        "2798": 176,
        "2799": 51,
        "2800": 101,
        "2801": 193,
        "2802": 213,
        "2803": 112,
        "2804": 99,
        "2805": 187,
        "2806": 210,
        "2807": 33,
        "2808": 89,
        "2809": 52,
        "2810": 151,
        "2811": 126,
        "2812": 252,
        "2813": 152,
        "2814": 145,
        "2815": 74,
        "2816": 218,
        "2817": 239,
        "2818": 17,
        "2819": 58,
        "2820": 168,
        "2821": 85,
        "2822": 75,
        "2823": 111,
        "2824": 79,
        "2825": 91,
        "2826": 48,
        "2827": 162,
        "2828": 21,
        "2829": 144,
        "2830": 249,
        "2831": 254,
        "2832": 205,
        "2833": 187,
        "2834": 242,
        "2835": 41,
        "2836": 105,
        "2837": 215,
        "2838": 58,
        "2839": 186,
        "2840": 118,
        "2841": 125,
        "2842": 203,
        "2843": 162,
        "2844": 184,
        "2845": 169,
        "2846": 106,
        "2847": 146,
        "2848": 70,
        "2849": 53,
        "2850": 92,
        "2851": 254,
        "2852": 247,
        "2853": 101,
        "2854": 32,
        "2855": 171,
        "2856": 125,
        "2857": 200,
        "2858": 125,
        "2859": 86,
        "2860": 127,
        "2861": 207,
        "2862": 136,
        "2863": 236,
        "2864": 112,
        "2865": 163,
        "2866": 232,
        "2867": 194,
        "2868": 117,
        "2869": 206,
        "2870": 237,
        "2871": 210,
        "2872": 77,
        "2873": 50,
        "2874": 14,
        "2875": 154,
        "2876": 36,
        "2877": 47,
        "2878": 85,
        "2879": 238,
        "2880": 219,
        "2881": 153,
        "2882": 101,
        "2883": 149,
        "2884": 172,
        "2885": 222,
        "2886": 235,
        "2887": 208,
        "2888": 89,
        "2889": 109,
        "2890": 15,
        "2891": 159,
        "2892": 26,
        "2893": 1,
        "2894": 99,
        "2895": 22,
        "2896": 190,
        "2897": 242,
        "2898": 97,
        "2899": 157,
        "2900": 19,
        "2901": 175,
        "2902": 142,
        "2903": 159,
        "2904": 62,
        "2905": 130,
        "2906": 135,
        "2907": 38,
        "2908": 11,
        "2909": 193,
        "2910": 187,
        "2911": 3,
        "2912": 126,
        "2913": 109,
        "2914": 74,
        "2915": 89,
        "2916": 253,
        "2917": 216,
        "2918": 72,
        "2919": 148,
        "2920": 85,
        "2921": 122,
        "2922": 205,
        "2923": 221,
        "2924": 171,
        "2925": 60,
        "2926": 47,
        "2927": 166,
        "2928": 253,
        "2929": 152,
        "2930": 170,
        "2931": 133,
        "2932": 152,
        "2933": 179,
        "2934": 127,
        "2935": 25,
        "2936": 30,
        "2937": 32,
        "2938": 120,
        "2939": 177,
        "2940": 157,
        "2941": 231,
        "2942": 105,
        "2943": 21,
        "2944": 81,
        "2945": 92,
        "2946": 41,
        "2947": 168,
        "2948": 179,
        "2949": 136,
        "2950": 0,
        "2951": 125,
        "2952": 96,
        "2953": 239,
        "2954": 118,
        "2955": 143,
        "2956": 65,
        "2957": 214,
        "2958": 120,
        "2959": 38,
        "2960": 67,
        "2961": 16,
        "2962": 222,
        "2963": 209,
        "2964": 10,
        "2965": 237,
        "2966": 184,
        "2967": 144,
        "2968": 144,
        "2969": 131,
        "2970": 58,
        "2971": 154,
        "2972": 202,
        "2973": 92,
        "2974": 139,
        "2975": 97,
        "2976": 95,
        "2977": 24,
        "2978": 88,
        "2979": 55,
        "2980": 235,
        "2981": 122,
        "2982": 35,
        "2983": 164,
        "2984": 238,
        "2985": 55,
        "2986": 56,
        "2987": 215,
        "2988": 220,
        "2989": 177,
        "2990": 238,
        "2991": 170,
        "2992": 30,
        "2993": 240,
        "2994": 82,
        "2995": 153,
        "2996": 112,
        "2997": 161,
        "2998": 115,
        "2999": 227,
        "3000": 203,
        "3001": 58,
        "3002": 131,
        "3003": 3,
        "3004": 34,
        "3005": 43,
        "3006": 39,
        "3007": 230,
        "3008": 222,
        "3009": 150,
        "3010": 177,
        "3011": 120,
        "3012": 146,
        "3013": 95,
        "3014": 80,
        "3015": 252,
        "3016": 116,
        "3017": 155,
        "3018": 181,
        "3019": 85,
        "3020": 137,
        "3021": 241,
        "3022": 189,
        "3023": 181,
        "3024": 126,
        "3025": 119,
        "3026": 172,
        "3027": 3,
        "3028": 16,
        "3029": 90,
        "3030": 84,
        "3031": 213,
        "3032": 223,
        "3033": 224,
        "3034": 157,
        "3035": 61,
        "3036": 36,
        "3037": 113,
        "3038": 189,
        "3039": 146,
        "3040": 209,
        "3041": 60,
        "3042": 103,
        "3043": 47,
        "3044": 140,
        "3045": 77,
        "3046": 116,
        "3047": 53,
        "3048": 63,
        "3049": 91,
        "3050": 117,
        "3051": 178,
        "3052": 82,
        "3053": 51,
        "3054": 45,
        "3055": 18,
        "3056": 91,
        "3057": 52,
        "3058": 155,
        "3059": 205,
        "3060": 161,
        "3061": 211,
        "3062": 244,
        "3063": 98,
        "3064": 113,
        "3065": 8,
        "3066": 99,
        "3067": 52,
        "3068": 10,
        "3069": 73,
        "3070": 243,
        "3071": 143,
        "3072": 156,
        "3073": 111,
        "3074": 182,
        "3075": 132,
        "3076": 184,
        "3077": 198,
        "3078": 108,
        "3079": 153,
        "3080": 23,
        "3081": 232,
        "3082": 43,
        "3083": 218,
        "3084": 80,
        "3085": 46,
        "3086": 184,
        "3087": 13,
        "3088": 72,
        "3089": 237,
        "3090": 181,
        "3091": 99,
        "3092": 99,
        "3093": 107,
        "3094": 245,
        "3095": 161,
        "3096": 221,
        "3097": 38,
        "3098": 80,
        "3099": 231,
        "3100": 41,
        "3101": 41,
        "3102": 96,
        "3103": 157,
        "3104": 123,
        "3105": 194,
        "3106": 61,
        "3107": 66,
        "3108": 79,
        "3109": 152,
        "3110": 192,
        "3111": 27,
        "3112": 13,
        "3113": 221,
        "3114": 176,
        "3115": 39,
        "3116": 178,
        "3117": 174,
        "3118": 246,
        "3119": 255,
        "3120": 195,
        "3121": 120,
        "3122": 47,
        "3123": 30,
        "3124": 107,
        "3125": 199,
        "3126": 88,
        "3127": 53,
        "3128": 16,
        "3129": 49,
        "3130": 243,
        "3131": 203,
        "3132": 167,
        "3133": 58,
        "3134": 250,
        "3135": 104,
        "3136": 241,
        "3137": 4,
        "3138": 132,
        "3139": 63,
        "3140": 71,
        "3141": 89,
        "3142": 135,
        "3143": 38,
        "3144": 239,
        "3145": 210,
        "3146": 42,
        "3147": 9,
        "3148": 163,
        "3149": 238,
        "3150": 143,
        "3151": 160,
        "3152": 238,
        "3153": 131,
        "3154": 106,
        "3155": 93,
        "3156": 206,
        "3157": 43,
        "3158": 23,
        "3159": 182,
        "3160": 57,
        "3161": 154,
        "3162": 10,
        "3163": 20,
        "3164": 85,
        "3165": 84,
        "3166": 66,
        "3167": 178,
        "3168": 83,
        "3169": 211,
        "3170": 80,
        "3171": 108,
        "3172": 142,
        "3173": 10,
        "3174": 170,
        "3175": 60,
        "3176": 176,
        "3177": 60,
        "3178": 150,
        "3179": 128,
        "3180": 85,
        "3181": 207,
        "3182": 57,
        "3183": 208,
        "3184": 116,
        "3185": 65,
        "3186": 4,
        "3187": 70,
        "3188": 249,
        "3189": 95,
        "3190": 96,
        "3191": 213,
        "3192": 6,
        "3193": 169,
        "3194": 239,
        "3195": 62,
        "3196": 53,
        "3197": 229,
        "3198": 131,
        "3199": 190,
        "3200": 128,
        "3201": 186,
        "3202": 48,
        "3203": 42,
        "3204": 87,
        "3205": 208,
        "3206": 226,
        "3207": 191,
        "3208": 170,
        "3209": 222,
        "3210": 253,
        "3211": 70,
        "3212": 97,
        "3213": 81,
        "3214": 167,
        "3215": 46,
        "3216": 66,
        "3217": 107,
        "3218": 166,
        "3219": 62,
        "3220": 11,
        "3221": 134,
        "3222": 146,
        "3223": 63,
        "3224": 216,
        "3225": 25,
        "3226": 216,
        "3227": 10,
        "3228": 17,
        "3229": 83,
        "3230": 147,
        "3231": 74,
        "3232": 252,
        "3233": 240,
        "3234": 225,
        "3235": 102,
        "3236": 95,
        "3237": 4,
        "3238": 5,
        "3239": 229,
        "3240": 158,
        "3241": 32,
        "3242": 159,
        "3243": 232,
        "3244": 149,
        "3245": 130,
        "3246": 250,
        "3247": 137,
        "3248": 181,
        "3249": 125,
        "3250": 181,
        "3251": 248,
        "3252": 176,
        "3253": 187,
        "3254": 221,
        "3255": 229,
        "3256": 63,
        "3257": 31,
        "3258": 46,
        "3259": 161,
        "3260": 74,
        "3261": 137,
        "3262": 219,
        "3263": 120,
        "3264": 126,
        "3265": 241,
        "3266": 192,
        "3267": 184,
        "3268": 161,
        "3269": 42,
        "3270": 133,
        "3271": 60,
        "3272": 51,
        "3273": 219,
        "3274": 92,
        "3275": 114,
        "3276": 39,
        "3277": 242,
        "3278": 155,
        "3279": 60,
        "3280": 209,
        "3281": 150,
        "3282": 2,
        "3283": 207,
        "3284": 213,
        "3285": 84,
        "3286": 214,
        "3287": 162,
        "3288": 95,
        "3289": 181,
        "3290": 180,
        "3291": 179,
        "3292": 75,
        "3293": 17,
        "3294": 18,
        "3295": 161,
        "3296": 231,
        "3297": 161,
        "3298": 107,
        "3299": 64,
        "3300": 161,
        "3301": 89,
        "3302": 229,
        "3303": 168,
        "3304": 105,
        "3305": 25,
        "3306": 50,
        "3307": 71,
        "3308": 39,
        "3309": 141,
        "3310": 114,
        "3311": 98,
        "3312": 19,
        "3313": 197,
        "3314": 149,
        "3315": 137,
        "3316": 144,
        "3317": 81,
        "3318": 79,
        "3319": 254,
        "3320": 248,
        "3321": 127,
        "3322": 132,
        "3323": 182,
        "3324": 106,
        "3325": 198,
        "3326": 238,
        "3327": 244,
        "3328": 76,
        "3329": 69,
        "3330": 247,
        "3331": 135,
        "3332": 12,
        "3333": 108,
        "3334": 5,
        "3335": 151,
        "3336": 224,
        "3337": 76,
        "3338": 192,
        "3339": 196,
        "3340": 81,
        "3341": 65,
        "3342": 88,
        "3343": 128,
        "3344": 233,
        "3345": 232,
        "3346": 242,
        "3347": 237,
        "3348": 92,
        "3349": 232,
        "3350": 196,
        "3351": 17,
        "3352": 146,
        "3353": 118,
        "3354": 203,
        "3355": 246,
        "3356": 33,
        "3357": 152,
        "3358": 134,
        "3359": 126,
        "3360": 125,
        "3361": 215,
        "3362": 156,
        "3363": 100,
        "3364": 52,
        "3365": 176,
        "3366": 93,
        "3367": 81,
        "3368": 45,
        "3369": 137,
        "3370": 237,
        "3371": 214,
        "3372": 22,
        "3373": 52,
        "3374": 21,
        "3375": 177,
        "3376": 90,
        "3377": 208,
        "3378": 117,
        "3379": 16,
        "3380": 58,
        "3381": 135,
        "3382": 152,
        "3383": 122,
        "3384": 226,
        "3385": 185,
        "3386": 68,
        "3387": 26,
        "3388": 100,
        "3389": 83,
        "3390": 67,
        "3391": 226,
        "3392": 31,
        "3393": 43,
        "3394": 165,
        "3395": 214,
        "3396": 83,
        "3397": 142,
        "3398": 155,
        "3399": 11,
        "3400": 245,
        "3401": 67,
        "3402": 169,
        "3403": 161,
        "3404": 105,
        "3405": 58,
        "3406": 169,
        "3407": 46,
        "3408": 46,
        "3409": 98,
        "3410": 221,
        "3411": 88,
        "3412": 36,
        "3413": 4,
        "3414": 211,
        "3415": 71,
        "3416": 178,
        "3417": 52,
        "3418": 30,
        "3419": 162,
        "3420": 215,
        "3421": 104,
        "3422": 142,
        "3423": 209,
        "3424": 78,
        "3425": 66,
        "3426": 92,
        "3427": 89,
        "3428": 113,
        "3429": 71,
        "3430": 147,
        "3431": 175,
        "3432": 177,
        "3433": 190,
        "3434": 171,
        "3435": 65,
        "3436": 202,
        "3437": 204,
        "3438": 206,
        "3439": 142,
        "3440": 87,
        "3441": 255,
        "3442": 219,
        "3443": 186,
        "3444": 226,
        "3445": 180,
        "3446": 251,
        "3447": 60,
        "3448": 55,
        "3449": 239,
        "3450": 19,
        "3451": 201,
        "3452": 167,
        "3453": 180,
        "3454": 144,
        "3455": 151,
        "3456": 62,
        "3457": 181,
        "3458": 168,
        "3459": 197,
        "3460": 174,
        "3461": 253,
        "3462": 226,
        "3463": 137,
        "3464": 144,
        "3465": 15,
        "3466": 143,
        "3467": 195,
        "3468": 252,
        "3469": 150,
        "3470": 223,
        "3471": 38,
        "3472": 4,
        "3473": 90,
        "3474": 110,
        "3475": 134,
        "3476": 241,
        "3477": 244,
        "3478": 76,
        "3479": 153,
        "3480": 200,
        "3481": 33,
        "3482": 66,
        "3483": 98,
        "3484": 239,
        "3485": 100,
        "3486": 43,
        "3487": 152,
        "3488": 21,
        "3489": 71,
        "3490": 7,
        "3491": 229,
        "3492": 132,
        "3493": 19,
        "3494": 9,
        "3495": 178,
        "3496": 200,
        "3497": 4,
        "3498": 198,
        "3499": 209,
        "3500": 71,
        "3501": 247,
        "3502": 195,
        "3503": 73,
        "3504": 248,
        "3505": 193,
        "3506": 222,
        "3507": 24,
        "3508": 205,
        "3509": 135,
        "3510": 85,
        "3511": 188,
        "3512": 84,
        "3513": 119,
        "3514": 147,
        "3515": 32,
        "3516": 115,
        "3517": 38,
        "3518": 61,
        "3519": 10,
        "3520": 82,
        "3521": 175,
        "3522": 16,
        "3523": 84,
        "3524": 68,
        "3525": 171,
        "3526": 198,
        "3527": 115,
        "3528": 29,
        "3529": 242,
        "3530": 129,
        "3531": 71,
        "3532": 9,
        "3533": 14,
        "3534": 193,
        "3535": 21,
        "3536": 219,
        "3537": 33,
        "3538": 207,
        "3539": 58,
        "3540": 101,
        "3541": 178,
        "3542": 35,
        "3543": 135,
        "3544": 147,
        "3545": 153,
        "3546": 173,
        "3547": 48,
        "3548": 211,
        "3549": 141,
        "3550": 160,
        "3551": 91,
        "3552": 243,
        "3553": 77,
        "3554": 187,
        "3555": 156,
        "3556": 138,
        "3557": 22,
        "3558": 123,
        "3559": 6,
        "3560": 65,
        "3561": 53,
        "3562": 200,
        "3563": 90,
        "3564": 62,
        "3565": 208,
        "3566": 241,
        "3567": 65,
        "3568": 10,
        "3569": 221,
        "3570": 71,
        "3571": 173,
        "3572": 164,
        "3573": 43,
        "3574": 188,
        "3575": 73,
        "3576": 30,
        "3577": 107,
        "3578": 170,
        "3579": 13,
        "3580": 161,
        "3581": 96,
        "3582": 133,
        "3583": 79,
        "3584": 225,
        "3585": 170,
        "3586": 33,
        "3587": 117,
        "3588": 227,
        "3589": 95,
        "3590": 174,
        "3591": 151,
        "3592": 148,
        "3593": 34,
        "3594": 168,
        "3595": 125,
        "3596": 102,
        "3597": 96,
        "3598": 232,
        "3599": 183,
        "3600": 207,
        "3601": 33,
        "3602": 76,
        "3603": 99,
        "3604": 78,
        "3605": 210,
        "3606": 60,
        "3607": 236,
        "3608": 172,
        "3609": 19,
        "3610": 250,
        "3611": 22,
        "3612": 138,
        "3613": 175,
        "3614": 124,
        "3615": 131,
        "3616": 20,
        "3617": 133,
        "3618": 215,
        "3619": 241,
        "3620": 189,
        "3621": 19,
        "3622": 20,
        "3623": 134,
        "3624": 42,
        "3625": 202,
        "3626": 214,
        "3627": 176,
        "3628": 148,
        "3629": 27,
        "3630": 101,
        "3631": 138,
        "3632": 151,
        "3633": 164,
        "3634": 163,
        "3635": 125,
        "3636": 170,
        "3637": 227,
        "3638": 118,
        "3639": 158,
        "3640": 47,
        "3641": 134,
        "3642": 65,
        "3643": 77,
        "3644": 59,
        "3645": 234,
        "3646": 243,
        "3647": 201,
        "3648": 36,
        "3649": 96,
        "3650": 212,
        "3651": 35,
        "3652": 39,
        "3653": 115,
        "3654": 203,
        "3655": 48,
        "3656": 223,
        "3657": 49,
        "3658": 32,
        "3659": 171,
        "3660": 96,
        "3661": 29,
        "3662": 22,
        "3663": 149,
        "3664": 71,
        "3665": 89,
        "3666": 106,
        "3667": 13,
        "3668": 253,
        "3669": 186,
        "3670": 233,
        "3671": 26,
        "3672": 34,
        "3673": 11,
        "3674": 190,
        "3675": 42,
        "3676": 78,
        "3677": 72,
        "3678": 52,
        "3679": 82,
        "3680": 147,
        "3681": 189,
        "3682": 171,
        "3683": 55,
        "3684": 112,
        "3685": 29,
        "3686": 69,
        "3687": 166,
        "3688": 59,
        "3689": 99,
        "3690": 220,
        "3691": 61,
        "3692": 93,
        "3693": 56,
        "3694": 165,
        "3695": 249,
        "3696": 234,
        "3697": 170,
        "3698": 34,
        "3699": 236,
        "3700": 141,
        "3701": 135,
        "3702": 153,
        "3703": 8,
        "3704": 230,
        "3705": 215,
        "3706": 127,
        "3707": 166,
        "3708": 15,
        "3709": 207,
        "3710": 221,
        "3711": 160,
        "3712": 153,
        "3713": 168,
        "3714": 179,
        "3715": 15,
        "3716": 155,
        "3717": 43,
        "3718": 170,
        "3719": 53,
        "3720": 255,
        "3721": 158,
        "3722": 208,
        "3723": 231,
        "3724": 231,
        "3725": 81,
        "3726": 8,
        "3727": 119,
        "3728": 169,
        "3729": 209,
        "3730": 0,
        "3731": 75,
        "3732": 134,
        "3733": 154,
        "3734": 113,
        "3735": 144,
        "3736": 169,
        "3737": 210,
        "3738": 255,
        "3739": 219,
        "3740": 82,
        "3741": 3,
        "3742": 162,
        "3743": 253,
        "3744": 229,
        "3745": 204,
        "3746": 214,
        "3747": 202,
        "3748": 193,
        "3749": 240,
        "3750": 19,
        "3751": 204,
        "3752": 200,
        "3753": 82,
        "3754": 225,
        "3755": 68,
        "3756": 9,
        "3757": 94,
        "3758": 105,
        "3759": 111,
        "3760": 231,
        "3761": 29,
        "3762": 157,
        "3763": 184,
        "3764": 147,
        "3765": 213,
        "3766": 61,
        "3767": 33,
        "3768": 155,
        "3769": 124,
        "3770": 237,
        "3771": 219,
        "3772": 79,
        "3773": 58,
        "3774": 220,
        "3775": 4,
        "3776": 243,
        "3777": 193,
        "3778": 117,
        "3779": 106,
        "3780": 32,
        "3781": 94,
        "3782": 119,
        "3783": 173,
        "3784": 180,
        "3785": 243,
        "3786": 236,
        "3787": 194,
        "3788": 25,
        "3789": 144,
        "3790": 31,
        "3791": 156,
        "3792": 243,
        "3793": 103,
        "3794": 113,
        "3795": 127,
        "3796": 160,
        "3797": 199,
        "3798": 103,
        "3799": 8,
        "3800": 192,
        "3801": 86,
        "3802": 20,
        "3803": 45,
        "3804": 175,
        "3805": 134,
        "3806": 144,
        "3807": 93,
        "3808": 60,
        "3809": 156,
        "3810": 192,
        "3811": 255,
        "3812": 44,
        "3813": 151,
        "3814": 243,
        "3815": 207,
        "3816": 72,
        "3817": 47,
        "3818": 85,
        "3819": 133,
        "3820": 31,
        "3821": 115,
        "3822": 107,
        "3823": 81,
        "3824": 238,
        "3825": 100,
        "3826": 213,
        "3827": 206,
        "3828": 239,
        "3829": 169,
        "3830": 231,
        "3831": 164,
        "3832": 219,
        "3833": 236,
        "3834": 7,
        "3835": 169,
        "3836": 167,
        "3837": 164,
        "3838": 58,
        "3839": 200,
        "3840": 142,
        "3841": 86,
        "3842": 53,
        "3843": 219,
        "3844": 58,
        "3845": 210,
        "3846": 41,
        "3847": 161,
        "3848": 36,
        "3849": 236,
        "3850": 180,
        "3851": 31,
        "3852": 196,
        "3853": 174,
        "3854": 151,
        "3855": 213,
        "3856": 81,
        "3857": 75,
        "3858": 39,
        "3859": 45,
        "3860": 218,
        "3861": 140,
        "3862": 222,
        "3863": 185,
        "3864": 87,
        "3865": 19,
        "3866": 235,
        "3867": 111,
        "3868": 138,
        "3869": 123,
        "3870": 164,
        "3871": 176,
        "3872": 73,
        "3873": 85,
        "3874": 16,
        "3875": 88,
        "3876": 175,
        "3877": 99,
        "3878": 226,
        "3879": 26,
        "3880": 160,
        "3881": 25,
        "3882": 224,
        "3883": 22,
        "3884": 220,
        "3885": 188,
        "3886": 46,
        "3887": 243,
        "3888": 138,
        "3889": 2,
        "3890": 16,
        "3891": 241,
        "3892": 4,
        "3893": 219,
        "3894": 138,
        "3895": 250,
        "3896": 247,
        "3897": 254,
        "3898": 109,
        "3899": 222,
        "3900": 18,
        "3901": 2,
        "3902": 120,
        "3903": 247,
        "3904": 89,
        "3905": 206,
        "3906": 56,
        "3907": 195,
        "3908": 103,
        "3909": 33,
        "3910": 234,
        "3911": 170,
        "3912": 179,
        "3913": 221,
        "3914": 39,
        "3915": 124,
        "3916": 29,
        "3917": 10,
        "3918": 18,
        "3919": 189,
        "3920": 158,
        "3921": 158,
        "3922": 134,
        "3923": 19,
        "3924": 47,
        "3925": 141,
        "3926": 54,
        "3927": 192,
        "3928": 252,
        "3929": 153,
        "3930": 62,
        "3931": 246,
        "3932": 68,
        "3933": 24,
        "3934": 175,
        "3935": 131,
        "3936": 34,
        "3937": 32,
        "3938": 64,
        "3939": 29,
        "3940": 109,
        "3941": 41,
        "3942": 97,
        "3943": 67,
        "3944": 92,
        "3945": 94,
        "3946": 40,
        "3947": 83,
        "3948": 83,
        "3949": 120,
        "3950": 255,
        "3951": 251,
        "3952": 183,
        "3953": 62,
        "3954": 216,
        "3955": 140,
        "3956": 172,
        "3957": 216,
        "3958": 78,
        "3959": 63,
        "3960": 166,
        "3961": 67,
        "3962": 113,
        "3963": 168,
        "3964": 204,
        "3965": 186,
        "3966": 212,
        "3967": 0,
        "3968": 147,
        "3969": 186,
        "3970": 155,
        "3971": 162,
        "3972": 203,
        "3973": 49,
        "3974": 102,
        "3975": 250,
        "3976": 85,
        "3977": 246,
        "3978": 175,
        "3979": 253,
        "3980": 180,
        "3981": 68,
        "3982": 243,
        "3983": 16,
        "3984": 232,
        "3985": 5,
        "3986": 57,
        "3987": 206,
        "3988": 168,
        "3989": 246,
        "3990": 215,
        "3991": 55,
        "3992": 123,
        "3993": 165,
        "3994": 243,
        "3995": 19,
        "3996": 81,
        "3997": 253,
        "3998": 144,
        "3999": 170,
        "4000": 40,
        "4001": 202,
        "4002": 147,
        "4003": 14,
        "4004": 165,
        "4005": 113,
        "4006": 188,
        "4007": 194,
        "4008": 130,
        "4009": 131,
        "4010": 150,
        "4011": 98,
        "4012": 177,
        "4013": 142,
        "4014": 15,
        "4015": 83,
        "4016": 70,
        "4017": 216,
        "4018": 151,
        "4019": 27,
        "4020": 1,
        "4021": 84,
        "4022": 133,
        "4023": 78,
        "4024": 59,
        "4025": 132,
        "4026": 181,
        "4027": 8,
        "4028": 242,
        "4029": 131,
        "4030": 183,
        "4031": 179,
        "4032": 95,
        "4033": 199,
        "4034": 178,
        "4035": 117,
        "4036": 240,
        "4037": 217,
        "4038": 165,
        "4039": 143,
        "4040": 159,
        "4041": 87,
        "4042": 92,
        "4043": 109,
        "4044": 216,
        "4045": 178,
        "4046": 68,
        "4047": 228,
        "4048": 17,
        "4049": 128,
        "4050": 234,
        "4051": 73,
        "4052": 69,
        "4053": 162,
        "4054": 188,
        "4055": 33,
        "4056": 7,
        "4057": 40,
        "4058": 12,
        "4059": 143,
        "4060": 21,
        "4061": 198,
        "4062": 17,
        "4063": 154,
        "4064": 75,
        "4065": 87,
        "4066": 65,
        "4067": 23,
        "4068": 127,
        "4069": 235,
        "4070": 241,
        "4071": 67,
        "4072": 167,
        "4073": 179,
        "4074": 36,
        "4075": 104,
        "4076": 17,
        "4077": 18,
        "4078": 160,
        "4079": 82,
        "4080": 158,
        "4081": 177,
        "4082": 230,
        "4083": 136,
        "4084": 83,
        "4085": 116,
        "4086": 222,
        "4087": 1,
        "4088": 12,
        "4089": 77,
        "4090": 86,
        "4091": 170,
        "4092": 81,
        "4093": 232,
        "4094": 27,
        "4095": 69,
        "4096": 20,
        "4097": 182,
        "4098": 212,
        "4099": 50,
        "4100": 58,
        "4101": 167,
        "4102": 176,
        "4103": 221,
        "4104": 98,
        "4105": 144,
        "4106": 149,
        "4107": 141,
        "4108": 87,
        "4109": 29,
        "4110": 10,
        "4111": 38,
        "4112": 118,
        "4113": 58,
        "4114": 90,
        "4115": 208,
        "4116": 128,
        "4117": 180,
        "4118": 116,
        "4119": 87,
        "4120": 248,
        "4121": 112,
        "4122": 17,
        "4123": 195,
        "4124": 76,
        "4125": 206,
        "4126": 36,
        "4127": 123,
        "4128": 207,
        "4129": 233,
        "4130": 156,
        "4131": 154,
        "4132": 175,
        "4133": 146,
        "4134": 10,
        "4135": 221,
        "4136": 224,
        "4137": 8,
        "4138": 214,
        "4139": 205,
        "4140": 215,
        "4141": 145,
        "4142": 207,
        "4143": 231,
        "4144": 155,
        "4145": 133,
        "4146": 247,
        "4147": 206,
        "4148": 108,
        "4149": 179,
        "4150": 4,
        "4151": 65,
        "4152": 55,
        "4153": 132,
        "4154": 207,
        "4155": 130,
        "4156": 8,
        "4157": 243,
        "4158": 49,
        "4159": 105,
        "4160": 89,
        "4161": 132,
        "4162": 30,
        "4163": 78,
        "4164": 108,
        "4165": 127,
        "4166": 117,
        "4167": 203,
        "4168": 167,
        "4169": 130,
        "4170": 207,
        "4171": 153,
        "4172": 172,
        "4173": 180,
        "4174": 150,
        "4175": 228,
        "4176": 118,
        "4177": 236,
        "4178": 70,
        "4179": 252,
        "4180": 36,
        "4181": 179,
        "4182": 235,
        "4183": 212,
        "4184": 30,
        "4185": 82,
        "4186": 51,
        "4187": 29,
        "4188": 240,
        "4189": 41,
        "4190": 78,
        "4191": 82,
        "4192": 10,
        "4193": 94,
        "4194": 177,
        "4195": 174,
        "4196": 191,
        "4197": 216,
        "4198": 164,
        "4199": 170,
        "4200": 214,
        "4201": 245,
        "4202": 214,
        "4203": 24,
        "4204": 126,
        "4205": 75,
        "4206": 2,
        "4207": 185,
        "4208": 243,
        "4209": 108,
        "4210": 108,
        "4211": 115,
        "4212": 53,
        "4213": 17,
        "4214": 231,
        "4215": 41,
        "4216": 137,
        "4217": 230,
        "4218": 51,
        "4219": 80,
        "4220": 187,
        "4221": 143,
        "4222": 81,
        "4223": 106,
        "4224": 82,
        "4225": 157,
        "4226": 158,
        "4227": 100,
        "4228": 97,
        "4229": 57,
        "4230": 243,
        "4231": 203,
        "4232": 194,
        "4233": 193,
        "4234": 138,
        "4235": 217,
        "4236": 38,
        "4237": 66,
        "4238": 28,
        "4239": 164,
        "4240": 119,
        "4241": 134,
        "4242": 1,
        "4243": 190,
        "4244": 221,
        "4245": 59,
        "4246": 60,
        "4247": 172,
        "4248": 187,
        "4249": 83,
        "4250": 193,
        "4251": 92,
        "4252": 133,
        "4253": 22,
        "4254": 191,
        "4255": 107,
        "4256": 217,
        "4257": 139,
        "4258": 18,
        "4259": 99,
        "4260": 102,
        "4261": 217,
        "4262": 94,
        "4263": 111,
        "4264": 71,
        "4265": 153,
        "4266": 173,
        "4267": 5,
        "4268": 23,
        "4269": 61,
        "4270": 251,
        "4271": 222,
        "4272": 81,
        "4273": 118,
        "4274": 67,
        "4275": 120,
        "4276": 243,
        "4277": 0,
        "4278": 96,
        "4279": 5,
        "4280": 213,
        "4281": 103,
        "4282": 119,
        "4283": 218,
        "4284": 240,
        "4285": 199,
        "4286": 104,
        "4287": 111,
        "4288": 228,
        "4289": 237,
        "4290": 76,
        "4291": 175,
        "4292": 136,
        "4293": 132,
        "4294": 252,
        "4295": 79,
        "4296": 152,
        "4297": 73,
        "4298": 221,
        "4299": 61,
        "4300": 204,
        "4301": 141,
        "4302": 198,
        "4303": 95,
        "4304": 20,
        "4305": 62,
        "4306": 17,
        "4307": 32,
        "4308": 111,
        "4309": 164,
        "4310": 165,
        "4311": 76,
        "4312": 240,
        "4313": 100,
        "4314": 94,
        "4315": 169,
        "4316": 31,
        "4317": 25,
        "4318": 220,
        "4319": 193,
        "4320": 118,
        "4321": 233,
        "4322": 2,
        "4323": 17,
        "4324": 178,
        "4325": 240,
        "4326": 3,
        "4327": 120,
        "4328": 93,
        "4329": 185,
        "4330": 255,
        "4331": 131,
        "4332": 80,
        "4333": 17,
        "4334": 128,
        "4335": 92,
        "4336": 228,
        "4337": 22,
        "4338": 161,
        "4339": 5,
        "4340": 141,
        "4341": 247,
        "4342": 231,
        "4343": 207,
        "4344": 104,
        "4345": 31,
        "4346": 29,
        "4347": 126,
        "4348": 201,
        "4349": 189,
        "4350": 254,
        "4351": 140,
        "4352": 229,
        "4353": 147,
        "4354": 23,
        "4355": 111,
        "4356": 115,
        "4357": 246,
        "4358": 38,
        "4359": 123,
        "4360": 14,
        "4361": 236,
        "4362": 246,
        "4363": 187,
        "4364": 197,
        "4365": 50,
        "4366": 188,
        "4367": 170,
        "4368": 155,
        "4369": 171,
        "4370": 29,
        "4371": 158,
        "4372": 127,
        "4373": 26,
        "4374": 46,
        "4375": 240,
        "4376": 87,
        "4377": 222,
        "4378": 74,
        "4379": 85,
        "4380": 237,
        "4381": 42,
        "4382": 39,
        "4383": 112,
        "4384": 128,
        "4385": 120,
        "4386": 201,
        "4387": 194,
        "4388": 165,
        "4389": 88,
        "4390": 129,
        "4391": 88,
        "4392": 147,
        "4393": 110,
        "4394": 152,
        "4395": 238,
        "4396": 143,
        "4397": 121,
        "4398": 44,
        "4399": 227,
        "4400": 62,
        "4401": 190,
        "4402": 56,
        "4403": 254,
        "4404": 76,
        "4405": 198,
        "4406": 27,
        "4407": 220,
        "4408": 179,
        "4409": 246,
        "4410": 123,
        "4411": 119,
        "4412": 169,
        "4413": 160,
        "4414": 47,
        "4415": 96,
        "4416": 140,
        "4417": 19,
        "4418": 209,
        "4419": 195,
        "4420": 129,
        "4421": 126,
        "4422": 224,
        "4423": 242,
        "4424": 76,
        "4425": 157,
        "4426": 35,
        "4427": 222,
        "4428": 211,
        "4429": 133,
        "4430": 151,
        "4431": 136,
        "4432": 88,
        "4433": 246,
        "4434": 163,
        "4435": 88,
        "4436": 214,
        "4437": 85,
        "4438": 137,
        "4439": 95,
        "4440": 192,
        "4441": 141,
        "4442": 12,
        "4443": 211,
        "4444": 239,
        "4445": 47,
        "4446": 174,
        "4447": 129,
        "4448": 98,
        "4449": 104,
        "4450": 163,
        "4451": 177,
        "4452": 80,
        "4453": 244,
        "4454": 241,
        "4455": 48,
        "4456": 253,
        "4457": 142,
        "4458": 24,
        "4459": 112,
        "4460": 130,
        "4461": 182,
        "4462": 68,
        "4463": 78,
        "4464": 112,
        "4465": 34,
        "4466": 137,
        "4467": 183,
        "4468": 40,
        "4469": 202,
        "4470": 20,
        "4471": 81,
        "4472": 188,
        "4473": 128,
        "4474": 224,
        "4475": 183,
        "4476": 100,
        "4477": 16,
        "4478": 37,
        "4479": 102,
        "4480": 69,
        "4481": 15,
        "4482": 86,
        "4483": 216,
        "4484": 8,
        "4485": 166,
        "4486": 84,
        "4487": 85,
        "4488": 124,
        "4489": 187,
        "4490": 47,
        "4491": 238,
        "4492": 179,
        "4493": 107,
        "4494": 169,
        "4495": 244,
        "4496": 32,
        "4497": 111,
        "4498": 204,
        "4499": 213,
        "4500": 114,
        "4501": 247,
        "4502": 90,
        "4503": 140,
        "4504": 233,
        "4505": 235,
        "4506": 15,
        "4507": 229,
        "4508": 84,
        "4509": 47,
        "4510": 224,
        "4511": 245,
        "4512": 131,
        "4513": 226,
        "4514": 154,
        "4515": 147,
        "4516": 179,
        "4517": 228,
        "4518": 82,
        "4519": 213,
        "4520": 196,
        "4521": 17,
        "4522": 249,
        "4523": 28,
        "4524": 73,
        "4525": 233,
        "4526": 152,
        "4527": 93,
        "4528": 255,
        "4529": 83,
        "4530": 68,
        "4531": 18,
        "4532": 212,
        "4533": 76,
        "4534": 94,
        "4535": 81,
        "4536": 139,
        "4537": 139,
        "4538": 27,
        "4539": 144,
        "4540": 120,
        "4541": 119,
        "4542": 81,
        "4543": 19,
        "4544": 240,
        "4545": 138,
        "4546": 80,
        "4547": 104,
        "4548": 114,
        "4549": 96,
        "4550": 21,
        "4551": 138,
        "4552": 215,
        "4553": 32,
        "4554": 97,
        "4555": 118,
        "4556": 63,
        "4557": 53,
        "4558": 136,
        "4559": 42,
        "4560": 248,
        "4561": 9,
        "4562": 10,
        "4563": 217,
        "4564": 0,
        "4565": 70,
        "4566": 137,
        "4567": 143,
        "4568": 90,
        "4569": 222,
        "4570": 220,
        "4571": 85,
        "4572": 251,
        "4573": 141,
        "4574": 173,
        "4575": 185,
        "4576": 11,
        "4577": 146,
        "4578": 146,
        "4579": 250,
        "4580": 97,
        "4581": 245,
        "4582": 231,
        "4583": 187,
        "4584": 129,
        "4585": 119,
        "4586": 156,
        "4587": 217,
        "4588": 58,
        "4589": 24,
        "4590": 226,
        "4591": 21,
        "4592": 102,
        "4593": 41,
        "4594": 82,
        "4595": 136,
        "4596": 11,
        "4597": 15,
        "4598": 242,
        "4599": 254,
        "4600": 38,
        "4601": 241,
        "4602": 210,
        "4603": 53,
        "4604": 91,
        "4605": 11,
        "4606": 83,
        "4607": 131,
        "4608": 250,
        "4609": 40,
        "4610": 146,
        "4611": 107,
        "4612": 17,
        "4613": 19,
        "4614": 125,
        "4615": 108,
        "4616": 236,
        "4617": 189,
        "4618": 45,
        "4619": 176,
        "4620": 157,
        "4621": 35,
        "4622": 152,
        "4623": 200,
        "4624": 124,
        "4625": 177,
        "4626": 248,
        "4627": 48,
        "4628": 83,
        "4629": 131,
        "4630": 174,
        "4631": 40,
        "4632": 31,
        "4633": 50,
        "4634": 213,
        "4635": 76,
        "4636": 31,
        "4637": 131,
        "4638": 157,
        "4639": 159,
        "4640": 158,
        "4641": 187,
        "4642": 111,
        "4643": 134,
        "4644": 46,
        "4645": 67,
        "4646": 226,
        "4647": 147,
        "4648": 75,
        "4649": 146,
        "4650": 93,
        "4651": 140,
        "4652": 110,
        "4653": 30,
        "4654": 96,
        "4655": 153,
        "4656": 118,
        "4657": 91,
        "4658": 211,
        "4659": 29,
        "4660": 157,
        "4661": 107,
        "4662": 114,
        "4663": 34,
        "4664": 20,
        "4665": 14,
        "4666": 67,
        "4667": 6,
        "4668": 239,
        "4669": 125,
        "4670": 141,
        "4671": 141,
        "4672": 246,
        "4673": 137,
        "4674": 156,
        "4675": 229,
        "4676": 119,
        "4677": 126,
        "4678": 14,
        "4679": 244,
        "4680": 203,
        "4681": 127,
        "4682": 206,
        "4683": 26,
        "4684": 146,
        "4685": 191,
        "4686": 29,
        "4687": 3,
        "4688": 106,
        "4689": 87,
        "4690": 137,
        "4691": 12,
        "4692": 222,
        "4693": 3,
        "4694": 182,
        "4695": 209,
        "4696": 247,
        "4697": 107,
        "4698": 242,
        "4699": 34,
        "4700": 32,
        "4701": 45,
        "4702": 7,
        "4703": 60,
        "4704": 13,
        "4705": 253,
        "4706": 208,
        "4707": 220,
        "4708": 89,
        "4709": 238,
        "4710": 252,
        "4711": 154,
        "4712": 52,
        "4713": 200,
        "4714": 250,
        "4715": 179,
        "4716": 130,
        "4717": 83,
        "4718": 124,
        "4719": 226,
        "4720": 113,
        "4721": 218,
        "4722": 222,
        "4723": 183,
        "4724": 198,
        "4725": 23,
        "4726": 129,
        "4727": 2,
        "4728": 134,
        "4729": 209,
        "4730": 101,
        "4731": 171,
        "4732": 199,
        "4733": 81,
        "4734": 26,
        "4735": 138,
        "4736": 97,
        "4737": 151,
        "4738": 157,
        "4739": 65,
        "4740": 59,
        "4741": 42,
        "4742": 170,
        "4743": 219,
        "4744": 20,
        "4745": 65,
        "4746": 62,
        "4747": 103,
        "4748": 100,
        "4749": 19,
        "4750": 52,
        "4751": 53,
        "4752": 178,
        "4753": 213,
        "4754": 133,
        "4755": 149,
        "4756": 72,
        "4757": 24,
        "4758": 151,
        "4759": 254,
        "4760": 248,
        "4761": 73,
        "4762": 183,
        "4763": 170,
        "4764": 199,
        "4765": 128,
        "4766": 112,
        "4767": 183,
        "4768": 202,
        "4769": 75,
        "4770": 243,
        "4771": 133,
        "4772": 139,
        "4773": 151,
        "4774": 243,
        "4775": 126,
        "4776": 123,
        "4777": 253,
        "4778": 129,
        "4779": 123,
        "4780": 30,
        "4781": 70,
        "4782": 246,
        "4783": 7,
        "4784": 54,
        "4785": 156,
        "4786": 125,
        "4787": 105,
        "4788": 118,
        "4789": 158,
        "4790": 36,
        "4791": 59,
        "4792": 19,
        "4793": 9,
        "4794": 223,
        "4795": 11,
        "4796": 92,
        "4797": 46,
        "4798": 156,
        "4799": 209,
        "4800": 246,
        "4801": 230,
        "4802": 118,
        "4803": 62,
        "4804": 93,
        "4805": 145,
        "4806": 110,
        "4807": 2,
        "4808": 219,
        "4809": 184,
        "4810": 150,
        "4811": 76,
        "4812": 93,
        "4813": 75,
        "4814": 29,
        "4815": 2,
        "4816": 214,
        "4817": 142,
        "4818": 67,
        "4819": 60,
        "4820": 121,
        "4821": 143,
        "4822": 226,
        "4823": 104,
        "4824": 250,
        "4825": 11,
        "4826": 100,
        "4827": 75,
        "4828": 217,
        "4829": 73,
        "4830": 192,
        "4831": 49,
        "4832": 97,
        "4833": 118,
        "4834": 149,
        "4835": 24,
        "4836": 75,
        "4837": 85,
        "4838": 203,
        "4839": 93,
        "4840": 123,
        "4841": 177,
        "4842": 180,
        "4843": 228,
        "4844": 30,
        "4845": 133,
        "4846": 210,
        "4847": 129,
        "4848": 126,
        "4849": 161,
        "4850": 189,
        "4851": 227,
        "4852": 26,
        "4853": 141,
        "4854": 219,
        "4855": 117,
        "4856": 190,
        "4857": 120,
        "4858": 130,
        "4859": 118,
        "4860": 37,
        "4861": 113,
        "4862": 19,
        "4863": 219,
        "4864": 47,
        "4865": 120,
        "4866": 230,
        "4867": 65,
        "4868": 20,
        "4869": 163,
        "4870": 220,
        "4871": 201,
        "4872": 42,
        "4873": 247,
        "4874": 179,
        "4875": 114,
        "4876": 153,
        "4877": 109,
        "4878": 52,
        "4879": 90,
        "4880": 38,
        "4881": 225,
        "4882": 101,
        "4883": 187,
        "4884": 251,
        "4885": 206,
        "4886": 179,
        "4887": 80,
        "4888": 108,
        "4889": 175,
        "4890": 47,
        "4891": 138,
        "4892": 61,
        "4893": 64,
        "4894": 0,
        "4895": 198,
        "4896": 110,
        "4897": 231,
        "4898": 207,
        "4899": 169,
        "4900": 102,
        "4901": 192,
        "4902": 195,
        "4903": 57,
        "4904": 243,
        "4905": 231,
        "4906": 36,
        "4907": 70,
        "4908": 106,
        "4909": 22,
        "4910": 32,
        "4911": 63,
        "4912": 90,
        "4913": 247,
        "4914": 23,
        "4915": 210,
        "4916": 180,
        "4917": 211,
        "4918": 198,
        "4919": 77,
        "4920": 90,
        "4921": 145,
        "4922": 233,
        "4923": 212,
        "4924": 255,
        "4925": 220,
        "4926": 82,
        "4927": 119,
        "4928": 128,
        "4929": 208,
        "4930": 166,
        "4931": 159,
        "4932": 236,
        "4933": 81,
        "4934": 160,
        "4935": 68,
        "4936": 179,
        "4937": 54,
        "4938": 4,
        "4939": 6,
        "4940": 196,
        "4941": 207,
        "4942": 130,
        "4943": 80,
        "4944": 143,
        "4945": 155,
        "4946": 118,
        "4947": 26,
        "4948": 191,
        "4949": 73,
        "4950": 194,
        "4951": 200,
        "4952": 250,
        "4953": 177,
        "4954": 210,
        "4955": 171,
        "4956": 0,
        "4957": 63,
        "4958": 47,
        "4959": 242,
        "4960": 32,
        "4961": 163,
        "4962": 138,
        "4963": 133,
        "4964": 18,
        "4965": 200,
        "4966": 83,
        "4967": 89,
        "4968": 170,
        "4969": 86,
        "4970": 251,
        "4971": 3,
        "4972": 88,
        "4973": 81,
        "4974": 114,
        "4975": 170,
        "4976": 7,
        "4977": 86,
        "4978": 139,
        "4979": 218,
        "4980": 48,
        "4981": 241,
        "4982": 175,
        "4983": 91,
        "4984": 196,
        "4985": 34,
        "4986": 37,
        "4987": 147,
        "4988": 91,
        "4989": 254,
        "4990": 34,
        "4991": 245,
        "4992": 14,
        "4993": 225,
        "4994": 21,
        "4995": 118,
        "4996": 166,
        "4997": 145,
        "4998": 126,
        "4999": 159,
        "5000": 172,
        "5001": 6,
        "5002": 125,
        "5003": 85,
        "5004": 143,
        "5005": 182,
        "5006": 122,
        "5007": 46,
        "5008": 113,
        "5009": 246,
        "5010": 110,
        "5011": 135,
        "5012": 73,
        "5013": 86,
        "5014": 100,
        "5015": 111,
        "5016": 213,
        "5017": 207,
        "5018": 70,
        "5019": 217,
        "5020": 137,
        "5021": 242,
        "5022": 182,
        "5023": 194,
        "5024": 47,
        "5025": 15,
        "5026": 85,
        "5027": 237,
        "5028": 98,
        "5029": 10,
        "5030": 159,
        "5031": 217,
        "5032": 245,
        "5033": 193,
        "5034": 189,
        "5035": 158,
        "5036": 231,
        "5037": 157,
        "5038": 24,
        "5039": 10,
        "5040": 16,
        "5041": 83,
        "5042": 235,
        "5043": 52,
        "5044": 57,
        "5045": 208,
        "5046": 192,
        "5047": 65,
        "5048": 96,
        "5049": 177,
        "5050": 194,
        "5051": 168,
        "5052": 138,
        "5053": 73,
        "5054": 114,
        "5055": 196,
        "5056": 98,
        "5057": 109,
        "5058": 241,
        "5059": 192,
        "5060": 133,
        "5061": 147,
        "5062": 246,
        "5063": 233,
        "5064": 59,
        "5065": 129,
        "5066": 200,
        "5067": 200,
        "5068": 223,
        "5069": 45,
        "5070": 105,
        "5071": 221,
        "5072": 31,
        "5073": 237,
        "5074": 183,
        "5075": 177,
        "5076": 222,
        "5077": 98,
        "5078": 137,
        "5079": 96,
        "5080": 72,
        "5081": 32,
        "5082": 206,
        "5083": 78,
        "5084": 4,
        "5085": 74,
        "5086": 138,
        "5087": 73,
        "5088": 186,
        "5089": 83,
        "5090": 103,
        "5091": 99,
        "5092": 183,
        "5093": 76,
        "5094": 62,
        "5095": 86,
        "5096": 33,
        "5097": 246,
        "5098": 106,
        "5099": 148,
        "5100": 179,
        "5101": 91,
        "5102": 55,
        "5103": 125,
        "5104": 236,
        "5105": 130,
        "5106": 2,
        "5107": 220,
        "5108": 204,
        "5109": 167,
        "5110": 79,
        "5111": 192,
        "5112": 45,
        "5113": 221,
        "5114": 47,
        "5115": 240,
        "5116": 2,
        "5117": 171,
        "5118": 196,
        "5119": 151,
        "5120": 172,
        "5121": 217,
        "5122": 225,
        "5123": 166,
        "5124": 239,
        "5125": 236,
        "5126": 63,
        "5127": 38,
        "5128": 236,
        "5129": 236,
        "5130": 57,
        "5131": 47,
        "5132": 160,
        "5133": 214,
        "5134": 250,
        "5135": 220,
        "5136": 68,
        "5137": 56,
        "5138": 197,
        "5139": 77,
        "5140": 55,
        "5141": 102,
        "5142": 34,
        "5143": 235,
        "5144": 156,
        "5145": 117,
        "5146": 140,
        "5147": 73,
        "5148": 93,
        "5149": 90,
        "5150": 103,
        "5151": 188,
        "5152": 99,
        "5153": 84,
        "5154": 204,
        "5155": 203,
        "5156": 245,
        "5157": 142,
        "5158": 98,
        "5159": 85,
        "5160": 252,
        "5161": 84,
        "5162": 171,
        "5163": 59,
        "5164": 234,
        "5165": 220,
        "5166": 198,
        "5167": 119,
        "5168": 166,
        "5169": 83,
        "5170": 16,
        "5171": 250,
        "5172": 50,
        "5173": 134,
        "5174": 43,
        "5175": 228,
        "5176": 123,
        "5177": 199,
        "5178": 224,
        "5179": 139,
        "5180": 245,
        "5181": 89,
        "5182": 37,
        "5183": 193,
        "5184": 68,
        "5185": 64,
        "5186": 53,
        "5187": 63,
        "5188": 37,
        "5189": 7,
        "5190": 71,
        "5191": 242,
        "5192": 108,
        "5193": 132,
        "5194": 76,
        "5195": 166,
        "5196": 105,
        "5197": 211,
        "5198": 18,
        "5199": 217,
        "5200": 59,
        "5201": 34,
        "5202": 133,
        "5203": 81,
        "5204": 89,
        "5205": 101,
        "5206": 174,
        "5207": 196,
        "5208": 76,
        "5209": 94,
        "5210": 167,
        "5211": 61,
        "5212": 21,
        "5213": 104,
        "5214": 204,
        "5215": 75,
        "5216": 28,
        "5217": 98,
        "5218": 222,
        "5219": 68,
        "5220": 142,
        "5221": 167,
        "5222": 250,
        "5223": 83,
        "5224": 239,
        "5225": 202,
        "5226": 178,
        "5227": 64,
        "5228": 230,
        "5229": 80,
        "5230": 101,
        "5231": 239,
        "5232": 80,
        "5233": 68,
        "5234": 144,
        "5235": 218,
        "5236": 66,
        "5237": 82,
        "5238": 115,
        "5239": 2,
        "5240": 40,
        "5241": 43,
        "5242": 89,
        "5243": 57,
        "5244": 221,
        "5245": 10,
        "5246": 250,
        "5247": 104,
        "5248": 116,
        "5249": 78,
        "5250": 173,
        "5251": 252,
        "5252": 22,
        "5253": 104,
        "5254": 195,
        "5255": 16,
        "5256": 123,
        "5257": 221,
        "5258": 89,
        "5259": 226,
        "5260": 39,
        "5261": 112,
        "5262": 204,
        "5263": 213,
        "5264": 31,
        "5265": 21,
        "5266": 200,
        "5267": 41,
        "5268": 5,
        "5269": 146,
        "5270": 173,
        "5271": 89,
        "5272": 34,
        "5273": 3,
        "5274": 74,
        "5275": 111,
        "5276": 238,
        "5277": 169,
        "5278": 152,
        "5279": 174,
        "5280": 187,
        "5281": 39,
        "5282": 121,
        "5283": 241,
        "5284": 143,
        "5285": 172,
        "5286": 230,
        "5287": 98,
        "5288": 0,
        "5289": 66,
        "5290": 105,
        "5291": 140,
        "5292": 231,
        "5293": 224,
        "5294": 94,
        "5295": 101,
        "5296": 185,
        "5297": 192,
        "5298": 117,
        "5299": 221,
        "5300": 109,
        "5301": 81,
        "5302": 10,
        "5303": 253,
        "5304": 128,
        "5305": 73,
        "5306": 59,
        "5307": 176,
        "5308": 248,
        "5309": 97,
        "5310": 99,
        "5311": 229,
        "5312": 157,
        "5313": 87,
        "5314": 244,
        "5315": 227,
        "5316": 190,
        "5317": 148,
        "5318": 105,
        "5319": 219,
        "5320": 80,
        "5321": 167,
        "5322": 61,
        "5323": 97,
        "5324": 234,
        "5325": 137,
        "5326": 251,
        "5327": 67,
        "5328": 41,
        "5329": 133,
        "5330": 244,
        "5331": 168,
        "5332": 65,
        "5333": 166,
        "5334": 83,
        "5335": 179,
        "5336": 200,
        "5337": 255,
        "5338": 164,
        "5339": 213,
        "5340": 82,
        "5341": 109,
        "5342": 176,
        "5343": 194,
        "5344": 55,
        "5345": 140,
        "5346": 95,
        "5347": 210,
        "5348": 179,
        "5349": 39,
        "5350": 4,
        "5351": 175,
        "5352": 205,
        "5353": 244,
        "5354": 160,
        "5355": 176,
        "5356": 243,
        "5357": 128,
        "5358": 212,
        "5359": 53,
        "5360": 179,
        "5361": 234,
        "5362": 251,
        "5363": 249,
        "5364": 109,
        "5365": 225,
        "5366": 119,
        "5367": 166,
        "5368": 49,
        "5369": 4,
        "5370": 158,
        "5371": 96,
        "5372": 139,
        "5373": 214,
        "5374": 80,
        "5375": 26,
        "5376": 196,
        "5377": 102,
        "5378": 9,
        "5379": 104,
        "5380": 173,
        "5381": 182,
        "5382": 71,
        "5383": 191,
        "5384": 90,
        "5385": 74,
        "5386": 197,
        "5387": 59,
        "5388": 182,
        "5389": 44,
        "5390": 67,
        "5391": 131,
        "5392": 249,
        "5393": 1,
        "5394": 98,
        "5395": 131,
        "5396": 170,
        "5397": 225,
        "5398": 87,
        "5399": 134,
        "5400": 225,
        "5401": 106,
        "5402": 134,
        "5403": 229,
        "5404": 91,
        "5405": 244,
        "5406": 179,
        "5407": 241,
        "5408": 63,
        "5409": 118,
        "5410": 155,
        "5411": 132,
        "5412": 253,
        "5413": 147,
        "5414": 22,
        "5415": 178,
        "5416": 143,
        "5417": 95,
        "5418": 91,
        "5419": 73,
        "5420": 16,
        "5421": 175,
        "5422": 119,
        "5423": 157,
        "5424": 220,
        "5425": 111,
        "5426": 63,
        "5427": 153,
        "5428": 123,
        "5429": 16,
        "5430": 80,
        "5431": 235,
        "5432": 46,
        "5433": 116,
        "5434": 97,
        "5435": 101,
        "5436": 156,
        "5437": 42,
        "5438": 244,
        "5439": 174,
        "5440": 47,
        "5441": 83,
        "5442": 119,
        "5443": 62,
        "5444": 138,
        "5445": 144,
        "5446": 5,
        "5447": 109,
        "5448": 75,
        "5449": 208,
        "5450": 28,
        "5451": 117,
        "5452": 92,
        "5453": 228,
        "5454": 14,
        "5455": 188,
        "5456": 200,
        "5457": 182,
        "5458": 122,
        "5459": 217,
        "5460": 183,
        "5461": 213,
        "5462": 26,
        "5463": 191,
        "5464": 237,
        "5465": 180,
        "5466": 174,
        "5467": 154,
        "5468": 18,
        "5469": 232,
        "5470": 4,
        "5471": 64,
        "5472": 208,
        "5473": 222,
        "5474": 1,
        "5475": 239,
        "5476": 157,
        "5477": 124,
        "5478": 55,
        "5479": 239,
        "5480": 189,
        "5481": 129,
        "5482": 183,
        "5483": 72,
        "5484": 14,
        "5485": 50,
        "5486": 147,
        "5487": 66,
        "5488": 6,
        "5489": 4,
        "5490": 194,
        "5491": 75,
        "5492": 189,
        "5493": 116,
        "5494": 52,
        "5495": 243,
        "5496": 173,
        "5497": 168,
        "5498": 6,
        "5499": 23,
        "5500": 110,
        "5501": 108,
        "5502": 80,
        "5503": 52,
        "5504": 43,
        "5505": 145,
        "5506": 30,
        "5507": 76,
        "5508": 175,
        "5509": 189,
        "5510": 28,
        "5511": 160,
        "5512": 203,
        "5513": 142,
        "5514": 204,
        "5515": 255,
        "5516": 34,
        "5517": 185,
        "5518": 118,
        "5519": 185,
        "5520": 16,
        "5521": 118,
        "5522": 192,
        "5523": 54,
        "5524": 226,
        "5525": 221,
        "5526": 173,
        "5527": 85,
        "5528": 5,
        "5529": 33,
        "5530": 199,
        "5531": 159,
        "5532": 33,
        "5533": 38,
        "5534": 197,
        "5535": 21,
        "5536": 122,
        "5537": 112,
        "5538": 91,
        "5539": 202,
        "5540": 164,
        "5541": 180,
        "5542": 246,
        "5543": 93,
        "5544": 123,
        "5545": 66,
        "5546": 141,
        "5547": 5,
        "5548": 33,
        "5549": 215,
        "5550": 79,
        "5551": 83,
        "5552": 160,
        "5553": 212,
        "5554": 0,
        "5555": 130,
        "5556": 141,
        "5557": 66,
        "5558": 140,
        "5559": 20,
        "5560": 225,
        "5561": 51,
        "5562": 46,
        "5563": 84,
        "5564": 189,
        "5565": 148,
        "5566": 9,
        "5567": 162,
        "5568": 147,
        "5569": 65,
        "5570": 148,
        "5571": 0,
        "5572": 255,
        "5573": 183,
        "5574": 21,
        "5575": 128,
        "5576": 226,
        "5577": 30,
        "5578": 62,
        "5579": 9,
        "5580": 87,
        "5581": 159,
        "5582": 45,
        "5583": 219,
        "5584": 193,
        "5585": 70,
        "5586": 51,
        "5587": 107,
        "5588": 80,
        "5589": 145,
        "5590": 135,
        "5591": 64,
        "5592": 19,
        "5593": 62,
        "5594": 13,
        "5595": 30,
        "5596": 121,
        "5597": 175,
        "5598": 155,
        "5599": 168,
        "5600": 88,
        "5601": 199,
        "5602": 202,
        "5603": 231,
        "5604": 203,
        "5605": 236,
        "5606": 72,
        "5607": 196,
        "5608": 99,
        "5609": 180,
        "5610": 155,
        "5611": 175,
        "5612": 213,
        "5613": 154,
        "5614": 51,
        "5615": 109,
        "5616": 148,
        "5617": 126,
        "5618": 32,
        "5619": 255,
        "5620": 163,
        "5621": 89,
        "5622": 38,
        "5623": 72,
        "5624": 177,
        "5625": 13,
        "5626": 187,
        "5627": 31,
        "5628": 21,
        "5629": 204,
        "5630": 211,
        "5631": 110,
        "5632": 145,
        "5633": 212,
        "5634": 254,
        "5635": 180,
        "5636": 56,
        "5637": 97,
        "5638": 132,
        "5639": 142,
        "5640": 26,
        "5641": 63,
        "5642": 202,
        "5643": 237,
        "5644": 149,
        "5645": 203,
        "5646": 191,
        "5647": 179,
        "5648": 32,
        "5649": 37,
        "5650": 14,
        "5651": 78,
        "5652": 104,
        "5653": 87,
        "5654": 208,
        "5655": 5,
        "5656": 167,
        "5657": 200,
        "5658": 133,
        "5659": 149,
        "5660": 28,
        "5661": 111,
        "5662": 223,
        "5663": 12,
        "5664": 165,
        "5665": 236,
        "5666": 59,
        "5667": 138,
        "5668": 197,
        "5669": 191,
        "5670": 71,
        "5671": 193,
        "5672": 59,
        "5673": 216,
        "5674": 44,
        "5675": 57,
        "5676": 205,
        "5677": 120,
        "5678": 245,
        "5679": 89,
        "5680": 96,
        "5681": 180,
        "5682": 168,
        "5683": 81,
        "5684": 38,
        "5685": 229,
        "5686": 28,
        "5687": 79,
        "5688": 242,
        "5689": 124,
        "5690": 13,
        "5691": 171,
        "5692": 86,
        "5693": 113,
        "5694": 193,
        "5695": 204,
        "5696": 47,
        "5697": 84,
        "5698": 192,
        "5699": 61,
        "5700": 179,
        "5701": 229,
        "5702": 178,
        "5703": 202,
        "5704": 210,
        "5705": 14,
        "5706": 242,
        "5707": 237,
        "5708": 185,
        "5709": 185,
        "5710": 245,
        "5711": 111,
        "5712": 27,
        "5713": 95,
        "5714": 222,
        "5715": 43,
        "5716": 173,
        "5717": 161,
        "5718": 186,
        "5719": 130,
        "5720": 253,
        "5721": 53,
        "5722": 94,
        "5723": 82,
        "5724": 53,
        "5725": 182,
        "5726": 234,
        "5727": 211,
        "5728": 133,
        "5729": 34,
        "5730": 192,
        "5731": 65,
        "5732": 206,
        "5733": 90,
        "5734": 226,
        "5735": 172,
        "5736": 206,
        "5737": 167,
        "5738": 151,
        "5739": 76,
        "5740": 113,
        "5741": 214,
        "5742": 184,
        "5743": 158,
        "5744": 44,
        "5745": 54,
        "5746": 52,
        "5747": 113,
        "5748": 149,
        "5749": 81,
        "5750": 236,
        "5751": 44,
        "5752": 164,
        "5753": 80,
        "5754": 10,
        "5755": 191,
        "5756": 64,
        "5757": 1,
        "5758": 253,
        "5759": 169,
        "5760": 120,
        "5761": 63,
        "5762": 133,
        "5763": 65,
        "5764": 224,
        "5765": 158,
        "5766": 0,
        "5767": 182,
        "5768": 138,
        "5769": 102,
        "5770": 251,
        "5771": 50,
        "5772": 142,
        "5773": 109,
        "5774": 57,
        "5775": 145,
        "5776": 45,
        "5777": 52,
        "5778": 208,
        "5779": 96,
        "5780": 242,
        "5781": 92,
        "5782": 197,
        "5783": 236,
        "5784": 138,
        "5785": 86,
        "5786": 153,
        "5787": 78,
        "5788": 145,
        "5789": 73,
        "5790": 187,
        "5791": 91,
        "5792": 156,
        "5793": 174,
        "5794": 217,
        "5795": 214,
        "5796": 208,
        "5797": 106,
        "5798": 140,
        "5799": 189,
        "5800": 56,
        "5801": 161,
        "5802": 41,
        "5803": 29,
        "5804": 78,
        "5805": 127,
        "5806": 5,
        "5807": 36,
        "5808": 238,
        "5809": 18,
        "5810": 234,
        "5811": 145,
        "5812": 137,
        "5813": 241,
        "5814": 207,
        "5815": 215,
        "5816": 251,
        "5817": 251,
        "5818": 20,
        "5819": 113,
        "5820": 137,
        "5821": 86,
        "5822": 163,
        "5823": 54,
        "5824": 193,
        "5825": 67,
        "5826": 9,
        "5827": 198,
        "5828": 38,
        "5829": 233,
        "5830": 234,
        "5831": 202,
        "5832": 201,
        "5833": 229,
        "5834": 239,
        "5835": 223,
        "5836": 37,
        "5837": 248,
        "5838": 226,
        "5839": 113,
        "5840": 64,
        "5841": 75,
        "5842": 14,
        "5843": 117,
        "5844": 250,
        "5845": 59,
        "5846": 89,
        "5847": 119,
        "5848": 161,
        "5849": 5,
        "5850": 154,
        "5851": 188,
        "5852": 229,
        "5853": 108,
        "5854": 113,
        "5855": 115,
        "5856": 42,
        "5857": 250,
        "5858": 218,
        "5859": 43,
        "5860": 189,
        "5861": 171,
        "5862": 52,
        "5863": 196,
        "5864": 47,
        "5865": 6,
        "5866": 211,
        "5867": 137,
        "5868": 37,
        "5869": 145,
        "5870": 69,
        "5871": 42,
        "5872": 65,
        "5873": 235,
        "5874": 239,
        "5875": 58,
        "5876": 112,
        "5877": 55,
        "5878": 131,
        "5879": 165,
        "5880": 72,
        "5881": 215,
        "5882": 243,
        "5883": 85,
        "5884": 180,
        "5885": 213,
        "5886": 239,
        "5887": 183,
        "5888": 83,
        "5889": 52,
        "5890": 96,
        "5891": 86,
        "5892": 67,
        "5893": 25,
        "5894": 157,
        "5895": 50,
        "5896": 234,
        "5897": 90,
        "5898": 101,
        "5899": 11,
        "5900": 160,
        "5901": 168,
        "5902": 135,
        "5903": 1,
        "5904": 209,
        "5905": 115,
        "5906": 106,
        "5907": 240,
        "5908": 179,
        "5909": 192,
        "5910": 228,
        "5911": 174,
        "5912": 48,
        "5913": 163,
        "5914": 162,
        "5915": 97,
        "5916": 40,
        "5917": 221,
        "5918": 172,
        "5919": 184,
        "5920": 131,
        "5921": 158,
        "5922": 140,
        "5923": 170,
        "5924": 194,
        "5925": 123,
        "5926": 141,
        "5927": 182,
        "5928": 243,
        "5929": 100,
        "5930": 20,
        "5931": 235,
        "5932": 247,
        "5933": 145,
        "5934": 76,
        "5935": 160,
        "5936": 17,
        "5937": 196,
        "5938": 226,
        "5939": 93,
        "5940": 248,
        "5941": 15,
        "5942": 178,
        "5943": 21,
        "5944": 242,
        "5945": 40,
        "5946": 238,
        "5947": 250,
        "5948": 215,
        "5949": 107,
        "5950": 243,
        "5951": 191,
        "5952": 102,
        "5953": 210,
        "5954": 69,
        "5955": 100,
        "5956": 160,
        "5957": 178,
        "5958": 18,
        "5959": 121,
        "5960": 86,
        "5961": 70,
        "5962": 106,
        "5963": 82,
        "5964": 142,
        "5965": 178,
        "5966": 94,
        "5967": 183,
        "5968": 147,
        "5969": 182,
        "5970": 138,
        "5971": 176,
        "5972": 71,
        "5973": 197,
        "5974": 252,
        "5975": 208,
        "5976": 166,
        "5977": 254,
        "5978": 141,
        "5979": 29,
        "5980": 184,
        "5981": 26,
        "5982": 161,
        "5983": 230,
        "5984": 219,
        "5985": 85,
        "5986": 109,
        "5987": 224,
        "5988": 47,
        "5989": 75,
        "5990": 157,
        "5991": 122,
        "5992": 144,
        "5993": 197,
        "5994": 231,
        "5995": 55,
        "5996": 8,
        "5997": 211,
        "5998": 69,
        "5999": 48,
        "6000": 126,
        "6001": 251,
        "6002": 221,
        "6003": 244,
        "6004": 184,
        "6005": 209,
        "6006": 21,
        "6007": 156,
        "6008": 10,
        "6009": 251,
        "6010": 159,
        "6011": 166,
        "6012": 28,
        "6013": 97,
        "6014": 233,
        "6015": 239,
        "6016": 25,
        "6017": 104,
        "6018": 215,
        "6019": 145,
        "6020": 252,
        "6021": 130,
        "6022": 194,
        "6023": 191,
        "6024": 204,
        "6025": 216,
        "6026": 77,
        "6027": 227,
        "6028": 191,
        "6029": 175,
        "6030": 153,
        "6031": 81,
        "6032": 148,
        "6033": 185,
        "6034": 253,
        "6035": 87,
        "6036": 90,
        "6037": 224,
        "6038": 51,
        "6039": 183,
        "6040": 174,
        "6041": 80,
        "6042": 197,
        "6043": 225,
        "6044": 115,
        "6045": 58,
        "6046": 58,
        "6047": 56,
        "6048": 39,
        "6049": 240,
        "6050": 71,
        "6051": 1,
        "6052": 126,
        "6053": 37,
        "6054": 75,
        "6055": 157,
        "6056": 84,
        "6057": 194,
        "6058": 120,
        "6059": 217,
        "6060": 215,
        "6061": 127,
        "6062": 143,
        "6063": 108,
        "6064": 247,
        "6065": 252,
        "6066": 155,
        "6067": 133,
        "6068": 46,
        "6069": 191,
        "6070": 66,
        "6071": 254,
        "6072": 135,
        "6073": 124,
        "6074": 38,
        "6075": 217,
        "6076": 88,
        "6077": 142,
        "6078": 183,
        "6079": 116,
        "6080": 85,
        "6081": 197,
        "6082": 32,
        "6083": 51,
        "6084": 224,
        "6085": 4,
        "6086": 107,
        "6087": 45,
        "6088": 25,
        "6089": 34,
        "6090": 211,
        "6091": 92,
        "6092": 180,
        "6093": 73,
        "6094": 6,
        "6095": 156,
        "6096": 147,
        "6097": 187,
        "6098": 251,
        "6099": 17,
        "6100": 36,
        "6101": 27,
        "6102": 5,
        "6103": 230,
        "6104": 111,
        "6105": 245,
        "6106": 121,
        "6107": 182,
        "6108": 117,
        "6109": 29,
        "6110": 29,
        "6111": 223,
        "6112": 154,
        "6113": 203,
        "6114": 215,
        "6115": 222,
        "6116": 242,
        "6117": 134,
        "6118": 204,
        "6119": 175,
        "6120": 255,
        "6121": 119,
        "6122": 147,
        "6123": 228,
        "6124": 128,
        "6125": 133,
        "6126": 181,
        "6127": 38,
        "6128": 232,
        "6129": 104,
        "6130": 146,
        "6131": 156,
        "6132": 231,
        "6133": 70,
        "6134": 63,
        "6135": 13,
        "6136": 112,
        "6137": 48,
        "6138": 5,
        "6139": 3,
        "6140": 247,
        "6141": 178,
        "6142": 222,
        "6143": 171,
        "6144": 129,
        "6145": 88,
        "6146": 124,
        "6147": 82,
        "6148": 62,
        "6149": 195,
        "6150": 166,
        "6151": 83,
        "6152": 18,
        "6153": 33,
        "6154": 242,
        "6155": 145,
        "6156": 227,
        "6157": 231,
        "6158": 251,
        "6159": 28,
        "6160": 39,
        "6161": 70,
        "6162": 3,
        "6163": 215,
        "6164": 155,
        "6165": 244,
        "6166": 100,
        "6167": 181,
        "6168": 236,
        "6169": 163,
        "6170": 240,
        "6171": 6,
        "6172": 26,
        "6173": 216,
        "6174": 219,
        "6175": 64,
        "6176": 80,
        "6177": 71,
        "6178": 117,
        "6179": 142,
        "6180": 84,
        "6181": 239,
        "6182": 126,
        "6183": 201,
        "6184": 81,
        "6185": 239,
        "6186": 163,
        "6187": 32,
        "6188": 75,
        "6189": 232,
        "6190": 10,
        "6191": 132,
        "6192": 116,
        "6193": 36,
        "6194": 164,
        "6195": 180,
        "6196": 158,
        "6197": 87,
        "6198": 204,
        "6199": 170,
        "6200": 16,
        "6201": 19,
        "6202": 78,
        "6203": 67,
        "6204": 64,
        "6205": 163,
        "6206": 141,
        "6207": 140,
        "6208": 239,
        "6209": 100,
        "6210": 74,
        "6211": 41,
        "6212": 219,
        "6213": 246,
        "6214": 182,
        "6215": 172,
        "6216": 91,
        "6217": 189,
        "6218": 105,
        "6219": 70,
        "6220": 100,
        "6221": 49,
        "6222": 7,
        "6223": 66,
        "6224": 94,
        "6225": 38,
        "6226": 129,
        "6227": 228,
        "6228": 227,
        "6229": 13,
        "6230": 103,
        "6231": 68,
        "6232": 53,
        "6233": 67,
        "6234": 41,
        "6235": 34,
        "6236": 177,
        "6237": 23,
        "6238": 3,
        "6239": 44,
        "6240": 106,
        "6241": 6,
        "6242": 191,
        "6243": 163,
        "6244": 123,
        "6245": 98,
        "6246": 77,
        "6247": 52,
        "6248": 166,
        "6249": 238,
        "6250": 246,
        "6251": 193,
        "6252": 237,
        "6253": 85,
        "6254": 120,
        "6255": 179,
        "6256": 94,
        "6257": 49,
        "6258": 236,
        "6259": 205,
        "6260": 193,
        "6261": 176,
        "6262": 236,
        "6263": 255,
        "6264": 192,
        "6265": 173,
        "6266": 130,
        "6267": 206,
        "6268": 32,
        "6269": 1,
        "6270": 219,
        "6271": 76,
        "6272": 231,
        "6273": 109,
        "6274": 83,
        "6275": 73,
        "6276": 90,
        "6277": 184,
        "6278": 25,
        "6279": 113,
        "6280": 116,
        "6281": 69,
        "6282": 46,
        "6283": 220,
        "6284": 34,
        "6285": 136,
        "6286": 158,
        "6287": 114,
        "6288": 205,
        "6289": 43,
        "6290": 233,
        "6291": 215,
        "6292": 196,
        "6293": 121,
        "6294": 168,
        "6295": 68,
        "6296": 131,
        "6297": 238,
        "6298": 6,
        "6299": 164,
        "6300": 9,
        "6301": 224,
        "6302": 168,
        "6303": 247,
        "6304": 81,
        "6305": 89,
        "6306": 222,
        "6307": 189,
        "6308": 104,
        "6309": 100,
        "6310": 51,
        "6311": 29,
        "6312": 102,
        "6313": 25,
        "6314": 72,
        "6315": 58,
        "6316": 137,
        "6317": 29,
        "6318": 174,
        "6319": 61,
        "6320": 102,
        "6321": 159,
        "6322": 186,
        "6323": 153,
        "6324": 77,
        "6325": 111,
        "6326": 211,
        "6327": 110,
        "6328": 235,
        "6329": 80,
        "6330": 159,
        "6331": 108,
        "6332": 91,
        "6333": 124,
        "6334": 45,
        "6335": 242,
        "6336": 247,
        "6337": 164,
        "6338": 111,
        "6339": 214,
        "6340": 206,
        "6341": 67,
        "6342": 39,
        "6343": 145,
        "6344": 65,
        "6345": 48,
        "6346": 183,
        "6347": 44,
        "6348": 180,
        "6349": 184,
        "6350": 11,
        "6351": 5,
        "6352": 228,
        "6353": 94,
        "6354": 111,
        "6355": 237,
        "6356": 170,
        "6357": 245,
        "6358": 221,
        "6359": 35,
        "6360": 167,
        "6361": 74,
        "6362": 54,
        "6363": 194,
        "6364": 30,
        "6365": 126,
        "6366": 58,
        "6367": 181,
        "6368": 8,
        "6369": 181,
        "6370": 90,
        "6371": 180,
        "6372": 176,
        "6373": 224,
        "6374": 200,
        "6375": 23,
        "6376": 86,
        "6377": 238,
        "6378": 139,
        "6379": 126,
        "6380": 88,
        "6381": 162,
        "6382": 115,
        "6383": 52,
        "6384": 154,
        "6385": 208,
        "6386": 163,
        "6387": 26,
        "6388": 144,
        "6389": 120,
        "6390": 108,
        "6391": 144,
        "6392": 66,
        "6393": 155,
        "6394": 71,
        "6395": 51,
        "6396": 50,
        "6397": 110,
        "6398": 206,
        "6399": 166,
        "6400": 143,
        "6401": 165,
        "6402": 153,
        "6403": 38,
        "6404": 245,
        "6405": 134,
        "6406": 190,
        "6407": 216,
        "6408": 103,
        "6409": 165,
        "6410": 94,
        "6411": 171,
        "6412": 176,
        "6413": 103,
        "6414": 71,
        "6415": 142,
        "6416": 34,
        "6417": 57,
        "6418": 206,
        "6419": 226,
        "6420": 221,
        "6421": 46,
        "6422": 169,
        "6423": 5,
        "6424": 191,
        "6425": 138,
        "6426": 176,
        "6427": 142,
        "6428": 195,
        "6429": 126,
        "6430": 23,
        "6431": 5,
        "6432": 3,
        "6433": 195,
        "6434": 254,
        "6435": 151,
        "6436": 84,
        "6437": 43,
        "6438": 224,
        "6439": 183,
        "6440": 32,
        "6441": 220,
        "6442": 171,
        "6443": 198,
        "6444": 174,
        "6445": 92,
        "6446": 65,
        "6447": 137,
        "6448": 234,
        "6449": 158,
        "6450": 219,
        "6451": 223,
        "6452": 13,
        "6453": 104,
        "6454": 237,
        "6455": 12,
        "6456": 50,
        "6457": 83,
        "6458": 153,
        "6459": 228,
        "6460": 147,
        "6461": 252,
        "6462": 77,
        "6463": 20,
        "6464": 19,
        "6465": 91,
        "6466": 209,
        "6467": 218,
        "6468": 22,
        "6469": 216,
        "6470": 0,
        "6471": 72,
        "6472": 111,
        "6473": 0,
        "6474": 37,
        "6475": 255,
        "6476": 33,
        "6477": 21,
        "6478": 195,
        "6479": 154,
        "6480": 205,
        "6481": 128,
        "6482": 224,
        "6483": 173,
        "6484": 136,
        "6485": 211,
        "6486": 31,
        "6487": 214,
        "6488": 239,
        "6489": 174,
        "6490": 216,
        "6491": 184,
        "6492": 105,
        "6493": 190,
        "6494": 210,
        "6495": 28,
        "6496": 65,
        "6497": 144,
        "6498": 158,
        "6499": 33,
        "6500": 255,
        "6501": 70,
        "6502": 130,
        "6503": 67,
        "6504": 232,
        "6505": 121,
        "6506": 217,
        "6507": 116,
        "6508": 54,
        "6509": 133,
        "6510": 99,
        "6511": 210,
        "6512": 52,
        "6513": 62,
        "6514": 145,
        "6515": 0,
        "6516": 167,
        "6517": 24,
        "6518": 136,
        "6519": 203,
        "6520": 132,
        "6521": 186,
        "6522": 155,
        "6523": 120,
        "6524": 60,
        "6525": 33,
        "6526": 174,
        "6527": 163,
        "6528": 73,
        "6529": 210,
        "6530": 123,
        "6531": 250,
        "6532": 200,
        "6533": 56,
        "6534": 47,
        "6535": 167,
        "6536": 174,
        "6537": 244,
        "6538": 235,
        "6539": 231,
        "6540": 100,
        "6541": 191,
        "6542": 234,
        "6543": 158,
        "6544": 157,
        "6545": 209,
        "6546": 115,
        "6547": 242,
        "6548": 32,
        "6549": 216,
        "6550": 202,
        "6551": 183,
        "6552": 4,
        "6553": 193,
        "6554": 219,
        "6555": 211,
        "6556": 250,
        "6557": 96,
        "6558": 19,
        "6559": 24,
        "6560": 141,
        "6561": 146,
        "6562": 28,
        "6563": 173,
        "6564": 140,
        "6565": 250,
        "6566": 124,
        "6567": 64,
        "6568": 116,
        "6569": 59,
        "6570": 108,
        "6571": 203,
        "6572": 184,
        "6573": 95,
        "6574": 237,
        "6575": 144,
        "6576": 12,
        "6577": 247,
        "6578": 162,
        "6579": 177,
        "6580": 152,
        "6581": 161,
        "6582": 135,
        "6583": 129,
        "6584": 68,
        "6585": 117,
        "6586": 150,
        "6587": 244,
        "6588": 76,
        "6589": 202,
        "6590": 91,
        "6591": 93,
        "6592": 131,
        "6593": 30,
        "6594": 251,
        "6595": 231,
        "6596": 113,
        "6597": 96,
        "6598": 60,
        "6599": 246,
        "6600": 31,
        "6601": 101,
        "6602": 139,
        "6603": 89,
        "6604": 0,
        "6605": 140,
        "6606": 40,
        "6607": 252,
        "6608": 241,
        "6609": 129,
        "6610": 139,
        "6611": 88,
        "6612": 41,
        "6613": 232,
        "6614": 35,
        "6615": 250,
        "6616": 254,
        "6617": 72,
        "6618": 131,
        "6619": 2,
        "6620": 97,
        "6621": 165,
        "6622": 27,
        "6623": 205,
        "6624": 10,
        "6625": 99,
        "6626": 173,
        "6627": 138,
        "6628": 8,
        "6629": 148,
        "6630": 21,
        "6631": 48,
        "6632": 104,
        "6633": 102,
        "6634": 129,
        "6635": 79,
        "6636": 251,
        "6637": 188,
        "6638": 180,
        "6639": 236,
        "6640": 68,
        "6641": 59,
        "6642": 11,
        "6643": 231,
        "6644": 165,
        "6645": 62,
        "6646": 90,
        "6647": 233,
        "6648": 183,
        "6649": 253,
        "6650": 29,
        "6651": 127,
        "6652": 10,
        "6653": 115,
        "6654": 235,
        "6655": 67,
        "6656": 181,
        "6657": 85,
        "6658": 183,
        "6659": 203,
        "6660": 125,
        "6661": 219,
        "6662": 209,
        "6663": 98,
        "6664": 140,
        "6665": 245,
        "6666": 202,
        "6667": 126,
        "6668": 5,
        "6669": 162,
        "6670": 40,
        "6671": 215,
        "6672": 123,
        "6673": 148,
        "6674": 207,
        "6675": 182,
        "6676": 243,
        "6677": 35,
        "6678": 133,
        "6679": 139,
        "6680": 74,
        "6681": 37,
        "6682": 7,
        "6683": 26,
        "6684": 118,
        "6685": 192,
        "6686": 201,
        "6687": 17,
        "6688": 161,
        "6689": 116,
        "6690": 85,
        "6691": 71,
        "6692": 117,
        "6693": 92,
        "6694": 221,
        "6695": 252,
        "6696": 19,
        "6697": 148,
        "6698": 8,
        "6699": 102,
        "6700": 228,
        "6701": 20,
        "6702": 163,
        "6703": 106,
        "6704": 123,
        "6705": 45,
        "6706": 81,
        "6707": 107,
        "6708": 32,
        "6709": 255,
        "6710": 215,
        "6711": 213,
        "6712": 177,
        "6713": 48,
        "6714": 95,
        "6715": 192,
        "6716": 205,
        "6717": 194,
        "6718": 98,
        "6719": 175,
        "6720": 199,
        "6721": 161,
        "6722": 69,
        "6723": 146,
        "6724": 85,
        "6725": 249,
        "6726": 130,
        "6727": 140,
        "6728": 50,
        "6729": 185,
        "6730": 28,
        "6731": 87,
        "6732": 67,
        "6733": 143,
        "6734": 247,
        "6735": 93,
        "6736": 192,
        "6737": 82,
        "6738": 90,
        "6739": 100,
        "6740": 210,
        "6741": 216,
        "6742": 42,
        "6743": 3,
        "6744": 233,
        "6745": 170,
        "6746": 7,
        "6747": 24,
        "6748": 74,
        "6749": 232,
        "6750": 240,
        "6751": 4,
        "6752": 117,
        "6753": 134,
        "6754": 6,
        "6755": 37,
        "6756": 247,
        "6757": 78,
        "6758": 111,
        "6759": 203,
        "6760": 254,
        "6761": 70,
        "6762": 43,
        "6763": 129,
        "6764": 83,
        "6765": 38,
        "6766": 221,
        "6767": 157,
        "6768": 245,
        "6769": 195,
        "6770": 42,
        "6771": 100,
        "6772": 21,
        "6773": 185,
        "6774": 219,
        "6775": 246,
        "6776": 183,
        "6777": 41,
        "6778": 71,
        "6779": 67,
        "6780": 132,
        "6781": 94,
        "6782": 126,
        "6783": 13,
        "6784": 145,
        "6785": 105,
        "6786": 104,
        "6787": 97,
        "6788": 108,
        "6789": 200,
        "6790": 189,
        "6791": 50,
        "6792": 166,
        "6793": 25,
        "6794": 151,
        "6795": 25,
        "6796": 201,
        "6797": 122,
        "6798": 127,
        "6799": 58,
        "6800": 175,
        "6801": 104,
        "6802": 226,
        "6803": 94,
        "6804": 237,
        "6805": 136,
        "6806": 202,
        "6807": 176,
        "6808": 210,
        "6809": 59,
        "6810": 128,
        "6811": 137,
        "6812": 35,
        "6813": 82,
        "6814": 200,
        "6815": 174,
        "6816": 102,
        "6817": 79,
        "6818": 118,
        "6819": 153,
        "6820": 186,
        "6821": 89,
        "6822": 207,
        "6823": 108,
        "6824": 212,
        "6825": 60,
        "6826": 128,
        "6827": 73,
        "6828": 165,
        "6829": 15,
        "6830": 19,
        "6831": 106,
        "6832": 54,
        "6833": 25,
        "6834": 35,
        "6835": 48,
        "6836": 50,
        "6837": 35,
        "6838": 153,
        "6839": 186,
        "6840": 173,
        "6841": 252,
        "6842": 7,
        "6843": 154,
        "6844": 68,
        "6845": 192,
        "6846": 239,
        "6847": 66,
        "6848": 185,
        "6849": 193,
        "6850": 254,
        "6851": 196,
        "6852": 43,
        "6853": 101,
        "6854": 121,
        "6855": 207,
        "6856": 251,
        "6857": 49,
        "6858": 180,
        "6859": 184,
        "6860": 155,
        "6861": 236,
        "6862": 60,
        "6863": 92,
        "6864": 98,
        "6865": 215,
        "6866": 185,
        "6867": 127,
        "6868": 92,
        "6869": 129,
        "6870": 55,
        "6871": 189,
        "6872": 196,
        "6873": 5,
        "6874": 199,
        "6875": 156,
        "6876": 204,
        "6877": 133,
        "6878": 110,
        "6879": 153,
        "6880": 112,
        "6881": 39,
        "6882": 232,
        "6883": 123,
        "6884": 153,
        "6885": 127,
        "6886": 211,
        "6887": 164,
        "6888": 122,
        "6889": 12,
        "6890": 170,
        "6891": 51,
        "6892": 79,
        "6893": 143,
        "6894": 190,
        "6895": 214,
        "6896": 196,
        "6897": 199,
        "6898": 20,
        "6899": 3,
        "6900": 62,
        "6901": 29,
        "6902": 47,
        "6903": 68,
        "6904": 74,
        "6905": 248,
        "6906": 254,
        "6907": 221,
        "6908": 81,
        "6909": 73,
        "6910": 31,
        "6911": 38,
        "6912": 122,
        "6913": 41,
        "6914": 74,
        "6915": 46,
        "6916": 255,
        "6917": 248,
        "6918": 227,
        "6919": 126,
        "6920": 43,
        "6921": 227,
        "6922": 80,
        "6923": 13,
        "6924": 211,
        "6925": 136,
        "6926": 103,
        "6927": 218,
        "6928": 177,
        "6929": 77,
        "6930": 73,
        "6931": 35,
        "6932": 249,
        "6933": 205,
        "6934": 253,
        "6935": 243,
        "6936": 180,
        "6937": 176,
        "6938": 223,
        "6939": 219,
        "6940": 164,
        "6941": 183,
        "6942": 157,
        "6943": 40,
        "6944": 176,
        "6945": 99,
        "6946": 2,
        "6947": 199,
        "6948": 123,
        "6949": 182,
        "6950": 149,
        "6951": 189,
        "6952": 164,
        "6953": 7,
        "6954": 58,
        "6955": 224,
        "6956": 19,
        "6957": 237,
        "6958": 22,
        "6959": 16,
        "6960": 176,
        "6961": 77,
        "6962": 138,
        "6963": 236,
        "6964": 175,
        "6965": 119,
        "6966": 143,
        "6967": 126,
        "6968": 236,
        "6969": 137,
        "6970": 173,
        "6971": 251,
        "6972": 45,
        "6973": 47,
        "6974": 246,
        "6975": 236,
        "6976": 187,
        "6977": 89,
        "6978": 23,
        "6979": 231,
        "6980": 16,
        "6981": 231,
        "6982": 254,
        "6983": 119,
        "6984": 227,
        "6985": 8,
        "6986": 65,
        "6987": 180,
        "6988": 224,
        "6989": 124,
        "6990": 218,
        "6991": 242,
        "6992": 78,
        "6993": 12,
        "6994": 72,
        "6995": 180,
        "6996": 67,
        "6997": 189,
        "6998": 117,
        "6999": 74,
        "7000": 162,
        "7001": 141,
        "7002": 1,
        "7003": 255,
        "7004": 181,
        "7005": 252,
        "7006": 139,
        "7007": 62,
        "7008": 204,
        "7009": 134,
        "7010": 123,
        "7011": 11,
        "7012": 85,
        "7013": 85,
        "7014": 52,
        "7015": 42,
        "7016": 29,
        "7017": 9,
        "7018": 199,
        "7019": 100,
        "7020": 43,
        "7021": 196,
        "7022": 138,
        "7023": 121,
        "7024": 171,
        "7025": 29,
        "7026": 232,
        "7027": 22,
        "7028": 14,
        "7029": 110,
        "7030": 166,
        "7031": 254,
        "7032": 125,
        "7033": 87,
        "7034": 171,
        "7035": 73,
        "7036": 219,
        "7037": 114,
        "7038": 212,
        "7039": 175,
        "7040": 90,
        "7041": 173,
        "7042": 223,
        "7043": 177,
        "7044": 130,
        "7045": 201,
        "7046": 52,
        "7047": 229,
        "7048": 124,
        "7049": 131,
        "7050": 32,
        "7051": 120,
        "7052": 252,
        "7053": 189,
        "7054": 205,
        "7055": 84,
        "7056": 69,
        "7057": 142,
        "7058": 192,
        "7059": 121,
        "7060": 235,
        "7061": 222,
        "7062": 224,
        "7063": 192,
        "7064": 138,
        "7065": 18,
        "7066": 192,
        "7067": 67,
        "7068": 226,
        "7069": 38,
        "7070": 118,
        "7071": 153,
        "7072": 113,
        "7073": 101,
        "7074": 207,
        "7075": 188,
        "7076": 119,
        "7077": 134,
        "7078": 145,
        "7079": 181,
        "7080": 23,
        "7081": 254,
        "7082": 63,
        "7083": 31,
        "7084": 193,
        "7085": 81,
        "7086": 205,
        "7087": 209,
        "7088": 40,
        "7089": 145,
        "7090": 136,
        "7091": 184,
        "7092": 95,
        "7093": 255,
        "7094": 184,
        "7095": 94,
        "7096": 247,
        "7097": 83,
        "7098": 83,
        "7099": 160,
        "7100": 120,
        "7101": 89,
        "7102": 139,
        "7103": 224,
        "7104": 34,
        "7105": 201,
        "7106": 225,
        "7107": 168,
        "7108": 51,
        "7109": 98,
        "7110": 24,
        "7111": 187,
        "7112": 132,
        "7113": 110,
        "7114": 27,
        "7115": 57,
        "7116": 165,
        "7117": 11,
        "7118": 182,
        "7119": 77,
        "7120": 55,
        "7121": 68,
        "7122": 77,
        "7123": 123,
        "7124": 59,
        "7125": 123,
        "7126": 172,
        "7127": 104,
        "7128": 133,
        "7129": 88,
        "7130": 9,
        "7131": 78,
        "7132": 10,
        "7133": 90,
        "7134": 173,
        "7135": 120,
        "7136": 187,
        "7137": 100,
        "7138": 230,
        "7139": 33,
        "7140": 241,
        "7141": 75,
        "7142": 180,
        "7143": 21,
        "7144": 3,
        "7145": 160,
        "7146": 100,
        "7147": 131,
        "7148": 60,
        "7149": 186,
        "7150": 160,
        "7151": 151,
        "7152": 107,
        "7153": 184,
        "7154": 12,
        "7155": 198,
        "7156": 206,
        "7157": 129,
        "7158": 220,
        "7159": 156,
        "7160": 138,
        "7161": 139,
        "7162": 243,
        "7163": 98,
        "7164": 180,
        "7165": 160,
        "7166": 190,
        "7167": 42,
        "7168": 220,
        "7169": 100,
        "7170": 20,
        "7171": 252,
        "7172": 144,
        "7173": 68,
        "7174": 40,
        "7175": 0,
        "7176": 68,
        "7177": 252,
        "7178": 25,
        "7179": 241,
        "7180": 75,
        "7181": 200,
        "7182": 140,
        "7183": 240,
        "7184": 136,
        "7185": 234,
        "7186": 180,
        "7187": 3,
        "7188": 158,
        "7189": 86,
        "7190": 135,
        "7191": 176,
        "7192": 106,
        "7193": 22,
        "7194": 206,
        "7195": 51,
        "7196": 101,
        "7197": 35,
        "7198": 198,
        "7199": 240,
        "7200": 230,
        "7201": 99,
        "7202": 81,
        "7203": 252,
        "7204": 56,
        "7205": 183,
        "7206": 219,
        "7207": 213,
        "7208": 46,
        "7209": 253,
        "7210": 64,
        "7211": 6,
        "7212": 109,
        "7213": 102,
        "7214": 126,
        "7215": 109,
        "7216": 16,
        "7217": 58,
        "7218": 113,
        "7219": 195,
        "7220": 67,
        "7221": 241,
        "7222": 57,
        "7223": 87,
        "7224": 109,
        "7225": 210,
        "7226": 150,
        "7227": 109,
        "7228": 34,
        "7229": 25,
        "7230": 166,
        "7231": 119,
        "7232": 140,
        "7233": 197,
        "7234": 171,
        "7235": 53,
        "7236": 239,
        "7237": 246,
        "7238": 32,
        "7239": 87,
        "7240": 204,
        "7241": 69,
        "7242": 144,
        "7243": 243,
        "7244": 78,
        "7245": 185,
        "7246": 170,
        "7247": 110,
        "7248": 173,
        "7249": 145,
        "7250": 146,
        "7251": 191,
        "7252": 133,
        "7253": 64,
        "7254": 175,
        "7255": 112,
        "7256": 50,
        "7257": 35,
        "7258": 8,
        "7259": 5,
        "7260": 76,
        "7261": 156,
        "7262": 117,
        "7263": 128,
        "7264": 187,
        "7265": 210,
        "7266": 62,
        "7267": 72,
        "7268": 216,
        "7269": 202,
        "7270": 161,
        "7271": 235,
        "7272": 154,
        "7273": 210,
        "7274": 27,
        "7275": 172,
        "7276": 232,
        "7277": 62,
        "7278": 47,
        "7279": 144,
        "7280": 157,
        "7281": 67,
        "7282": 63,
        "7283": 21,
        "7284": 68,
        "7285": 246,
        "7286": 112,
        "7287": 136,
        "7288": 51,
        "7289": 8,
        "7290": 51,
        "7291": 93,
        "7292": 154,
        "7293": 3,
        "7294": 146,
        "7295": 208,
        "7296": 34,
        "7297": 37,
        "7298": 5,
        "7299": 230,
        "7300": 180,
        "7301": 58,
        "7302": 195,
        "7303": 179,
        "7304": 164,
        "7305": 152,
        "7306": 125,
        "7307": 29,
        "7308": 65,
        "7309": 88,
        "7310": 70,
        "7311": 106,
        "7312": 140,
        "7313": 232,
        "7314": 33,
        "7315": 149,
        "7316": 106,
        "7317": 159,
        "7318": 115,
        "7319": 32,
        "7320": 87,
        "7321": 220,
        "7322": 8,
        "7323": 185,
        "7324": 177,
        "7325": 47,
        "7326": 236,
        "7327": 205,
        "7328": 150,
        "7329": 2,
        "7330": 113,
        "7331": 218,
        "7332": 196,
        "7333": 148,
        "7334": 86,
        "7335": 64,
        "7336": 78,
        "7337": 252,
        "7338": 97,
        "7339": 137,
        "7340": 201,
        "7341": 136,
        "7342": 206,
        "7343": 46,
        "7344": 2,
        "7345": 119,
        "7346": 95,
        "7347": 119,
        "7348": 18,
        "7349": 119,
        "7350": 203,
        "7351": 63,
        "7352": 159,
        "7353": 163,
        "7354": 33,
        "7355": 222,
        "7356": 142,
        "7357": 27,
        "7358": 83,
        "7359": 143,
        "7360": 15,
        "7361": 72,
        "7362": 127,
        "7363": 221,
        "7364": 200,
        "7365": 55,
        "7366": 146,
        "7367": 201,
        "7368": 59,
        "7369": 36,
        "7370": 84,
        "7371": 224,
        "7372": 146,
        "7373": 171,
        "7374": 180,
        "7375": 120,
        "7376": 15,
        "7377": 253,
        "7378": 110,
        "7379": 56,
        "7380": 128,
        "7381": 124,
        "7382": 244,
        "7383": 159,
        "7384": 89,
        "7385": 211,
        "7386": 255,
        "7387": 169,
        "7388": 43,
        "7389": 240,
        "7390": 18,
        "7391": 247,
        "7392": 48,
        "7393": 13,
        "7394": 191,
        "7395": 219,
        "7396": 74,
        "7397": 159,
        "7398": 242,
        "7399": 33,
        "7400": 228,
        "7401": 126,
        "7402": 189,
        "7403": 214,
        "7404": 111,
        "7405": 5,
        "7406": 171,
        "7407": 31,
        "7408": 124,
        "7409": 217,
        "7410": 192,
        "7411": 42,
        "7412": 19,
        "7413": 173,
        "7414": 38,
        "7415": 75,
        "7416": 66,
        "7417": 199,
        "7418": 44,
        "7419": 228,
        "7420": 159,
        "7421": 33,
        "7422": 133,
        "7423": 12,
        "7424": 169,
        "7425": 216,
        "7426": 118,
        "7427": 37,
        "7428": 58,
        "7429": 48,
        "7430": 252,
        "7431": 233,
        "7432": 215,
        "7433": 21,
        "7434": 93,
        "7435": 232,
        "7436": 133,
        "7437": 126,
        "7438": 7,
        "7439": 207,
        "7440": 125,
        "7441": 99,
        "7442": 141,
        "7443": 253,
        "7444": 174,
        "7445": 72,
        "7446": 22,
        "7447": 146,
        "7448": 241,
        "7449": 216,
        "7450": 236,
        "7451": 60,
        "7452": 122,
        "7453": 8,
        "7454": 39,
        "7455": 34,
        "7456": 31,
        "7457": 187,
        "7458": 130,
        "7459": 150,
        "7460": 129,
        "7461": 179,
        "7462": 30,
        "7463": 252,
        "7464": 73,
        "7465": 129,
        "7466": 14,
        "7467": 11,
        "7468": 230,
        "7469": 160,
        "7470": 123,
        "7471": 184,
        "7472": 15,
        "7473": 234,
        "7474": 131,
        "7475": 123,
        "7476": 208,
        "7477": 198,
        "7478": 243,
        "7479": 77,
        "7480": 219,
        "7481": 90,
        "7482": 69,
        "7483": 249,
        "7484": 140,
        "7485": 163,
        "7486": 78,
        "7487": 184,
        "7488": 99,
        "7489": 127,
        "7490": 149,
        "7491": 133,
        "7492": 24,
        "7493": 24,
        "7494": 180,
        "7495": 202,
        "7496": 182,
        "7497": 63,
        "7498": 129,
        "7499": 104,
        "7500": 57,
        "7501": 137,
        "7502": 6,
        "7503": 61,
        "7504": 79,
        "7505": 157,
        "7506": 149,
        "7507": 18,
        "7508": 3,
        "7509": 144,
        "7510": 209,
        "7511": 36,
        "7512": 20,
        "7513": 105,
        "7514": 163,
        "7515": 57,
        "7516": 61,
        "7517": 156,
        "7518": 95,
        "7519": 6,
        "7520": 233,
        "7521": 27,
        "7522": 125,
        "7523": 103,
        "7524": 141,
        "7525": 92,
        "7526": 138,
        "7527": 237,
        "7528": 244,
        "7529": 237,
        "7530": 68,
        "7531": 167,
        "7532": 232,
        "7533": 130,
        "7534": 208,
        "7535": 214,
        "7536": 121,
        "7537": 100,
        "7538": 119,
        "7539": 99,
        "7540": 14,
        "7541": 65,
        "7542": 98,
        "7543": 50,
        "7544": 163,
        "7545": 31,
        "7546": 87,
        "7547": 120,
        "7548": 176,
        "7549": 102,
        "7550": 175,
        "7551": 36,
        "7552": 1,
        "7553": 203,
        "7554": 122,
        "7555": 69,
        "7556": 170,
        "7557": 174,
        "7558": 40,
        "7559": 165,
        "7560": 170,
        "7561": 54,
        "7562": 89,
        "7563": 240,
        "7564": 59,
        "7565": 115,
        "7566": 198,
        "7567": 5,
        "7568": 34,
        "7569": 155,
        "7570": 163,
        "7571": 247,
        "7572": 141,
        "7573": 90,
        "7574": 164,
        "7575": 2,
        "7576": 16,
        "7577": 27,
        "7578": 227,
        "7579": 112,
        "7580": 32,
        "7581": 187,
        "7582": 7,
        "7583": 102,
        "7584": 48,
        "7585": 8,
        "7586": 111,
        "7587": 107,
        "7588": 48,
        "7589": 40,
        "7590": 28,
        "7591": 241,
        "7592": 250,
        "7593": 66,
        "7594": 232,
        "7595": 44,
        "7596": 234,
        "7597": 50,
        "7598": 190,
        "7599": 64,
        "7600": 178,
        "7601": 41,
        "7602": 135,
        "7603": 149,
        "7604": 135,
        "7605": 150,
        "7606": 32,
        "7607": 5,
        "7608": 28,
        "7609": 18,
        "7610": 2,
        "7611": 250,
        "7612": 59,
        "7613": 53,
        "7614": 72,
        "7615": 44,
        "7616": 58,
        "7617": 52,
        "7618": 197,
        "7619": 110,
        "7620": 120,
        "7621": 29,
        "7622": 167,
        "7623": 89,
        "7624": 206,
        "7625": 75,
        "7626": 238,
        "7627": 18,
        "7628": 22,
        "7629": 244,
        "7630": 0,
        "7631": 191,
        "7632": 40,
        "7633": 202,
        "7634": 58,
        "7635": 248,
        "7636": 112,
        "7637": 20,
        "7638": 3,
        "7639": 190,
        "7640": 210,
        "7641": 91,
        "7642": 9,
        "7643": 37,
        "7644": 1,
        "7645": 185,
        "7646": 113,
        "7647": 126,
        "7648": 75,
        "7649": 134,
        "7650": 152,
        "7651": 13,
        "7652": 142,
        "7653": 110,
        "7654": 182,
        "7655": 169,
        "7656": 254,
        "7657": 63,
        "7658": 25,
        "7659": 250,
        "7660": 32,
        "7661": 180,
        "7662": 61,
        "7663": 130,
        "7664": 208,
        "7665": 183,
        "7666": 182,
        "7667": 43,
        "7668": 198,
        "7669": 35,
        "7670": 80,
        "7671": 221,
        "7672": 83,
        "7673": 195,
        "7674": 128,
        "7675": 199,
        "7676": 75,
        "7677": 165,
        "7678": 152,
        "7679": 198,
        "7680": 65,
        "7681": 115,
        "7682": 141,
        "7683": 62,
        "7684": 155,
        "7685": 2,
        "7686": 216,
        "7687": 40,
        "7688": 38,
        "7689": 151,
        "7690": 45,
        "7691": 101,
        "7692": 84,
        "7693": 156,
        "7694": 192,
        "7695": 238,
        "7696": 244,
        "7697": 122,
        "7698": 8,
        "7699": 143,
        "7700": 168,
        "7701": 77,
        "7702": 117,
        "7703": 57,
        "7704": 100,
        "7705": 67,
        "7706": 252,
        "7707": 112,
        "7708": 164,
        "7709": 157,
        "7710": 217,
        "7711": 153,
        "7712": 10,
        "7713": 96,
        "7714": 183,
        "7715": 82,
        "7716": 113,
        "7717": 82,
        "7718": 204,
        "7719": 144,
        "7720": 92,
        "7721": 41,
        "7722": 95,
        "7723": 9,
        "7724": 245,
        "7725": 197,
        "7726": 178,
        "7727": 88,
        "7728": 5,
        "7729": 119,
        "7730": 116,
        "7731": 135,
        "7732": 108,
        "7733": 198,
        "7734": 192,
        "7735": 209,
        "7736": 64,
        "7737": 47,
        "7738": 95,
        "7739": 4,
        "7740": 188,
        "7741": 81,
        "7742": 15,
        "7743": 203,
        "7744": 190,
        "7745": 204,
        "7746": 209,
        "7747": 119,
        "7748": 188,
        "7749": 250,
        "7750": 14,
        "7751": 70,
        "7752": 178,
        "7753": 70,
        "7754": 131,
        "7755": 117,
        "7756": 36,
        "7757": 161,
        "7758": 216,
        "7759": 182,
        "7760": 216,
        "7761": 67,
        "7762": 78,
        "7763": 61,
        "7764": 224,
        "7765": 102,
        "7766": 146,
        "7767": 199,
        "7768": 68,
        "7769": 246,
        "7770": 178,
        "7771": 170,
        "7772": 100,
        "7773": 75,
        "7774": 69,
        "7775": 175,
        "7776": 22,
        "7777": 25,
        "7778": 13,
        "7779": 110,
        "7780": 24,
        "7781": 106,
        "7782": 92,
        "7783": 201,
        "7784": 221,
        "7785": 145,
        "7786": 132,
        "7787": 90,
        "7788": 224,
        "7789": 171,
        "7790": 37,
        "7791": 29,
        "7792": 236,
        "7793": 239,
        "7794": 187,
        "7795": 134,
        "7796": 254,
        "7797": 120,
        "7798": 118,
        "7799": 45,
        "7800": 255,
        "7801": 250,
        "7802": 207,
        "7803": 144,
        "7804": 227,
        "7805": 89,
        "7806": 210,
        "7807": 33,
        "7808": 137,
        "7809": 205,
        "7810": 22,
        "7811": 205,
        "7812": 194,
        "7813": 67,
        "7814": 104,
        "7815": 0,
        "7816": 194,
        "7817": 18,
        "7818": 9,
        "7819": 7,
        "7820": 23,
        "7821": 216,
        "7822": 56,
        "7823": 66,
        "7824": 141,
        "7825": 27,
        "7826": 1,
        "7827": 128,
        "7828": 210,
        "7829": 140,
        "7830": 194,
        "7831": 9,
        "7832": 135,
        "7833": 180,
        "7834": 25,
        "7835": 131,
        "7836": 230,
        "7837": 25,
        "7838": 175,
        "7839": 201,
        "7840": 33,
        "7841": 60,
        "7842": 10,
        "7843": 104,
        "7844": 174,
        "7845": 164,
        "7846": 24,
        "7847": 170,
        "7848": 10,
        "7849": 65,
        "7850": 68,
        "7851": 230,
        "7852": 164,
        "7853": 194,
        "7854": 2,
        "7855": 187,
        "7856": 121,
        "7857": 35,
        "7858": 206,
        "7859": 12,
        "7860": 87,
        "7861": 173,
        "7862": 187,
        "7863": 254,
        "7864": 100,
        "7865": 14,
        "7866": 105,
        "7867": 50,
        "7868": 94,
        "7869": 81,
        "7870": 116,
        "7871": 189,
        "7872": 150,
        "7873": 72,
        "7874": 138,
        "7875": 103,
        "7876": 64,
        "7877": 56,
        "7878": 213,
        "7879": 232,
        "7880": 130,
        "7881": 237,
        "7882": 128,
        "7883": 125,
        "7884": 143,
        "7885": 186,
        "7886": 48,
        "7887": 132,
        "7888": 189,
        "7889": 254,
        "7890": 194,
        "7891": 250,
        "7892": 4,
        "7893": 180,
        "7894": 163,
        "7895": 18,
        "7896": 120,
        "7897": 189,
        "7898": 127,
        "7899": 212,
        "7900": 55,
        "7901": 174,
        "7902": 195,
        "7903": 149,
        "7904": 8,
        "7905": 118,
        "7906": 108,
        "7907": 82,
        "7908": 93,
        "7909": 198,
        "7910": 87,
        "7911": 90,
        "7912": 40,
        "7913": 88,
        "7914": 193,
        "7915": 52,
        "7916": 212,
        "7917": 62,
        "7918": 3,
        "7919": 166,
        "7920": 77,
        "7921": 45,
        "7922": 165,
        "7923": 230,
        "7924": 8,
        "7925": 66,
        "7926": 68,
        "7927": 24,
        "7928": 123,
        "7929": 151,
        "7930": 50,
        "7931": 153,
        "7932": 212,
        "7933": 27,
        "7934": 114,
        "7935": 9,
        "7936": 205,
        "7937": 51,
        "7938": 224,
        "7939": 159,
        "7940": 180,
        "7941": 198,
        "7942": 236,
        "7943": 112,
        "7944": 200,
        "7945": 22,
        "7946": 73,
        "7947": 237,
        "7948": 31,
        "7949": 80,
        "7950": 18,
        "7951": 194,
        "7952": 134,
        "7953": 75,
        "7954": 193,
        "7955": 152,
        "7956": 1,
        "7957": 91,
        "7958": 92,
        "7959": 211,
        "7960": 96,
        "7961": 53,
        "7962": 26,
        "7963": 116,
        "7964": 171,
        "7965": 202,
        "7966": 157,
        "7967": 218,
        "7968": 209,
        "7969": 120,
        "7970": 142,
        "7971": 56,
        "7972": 98,
        "7973": 145,
        "7974": 23,
        "7975": 84,
        "7976": 208,
        "7977": 143,
        "7978": 221,
        "7979": 142,
        "7980": 152,
        "7981": 158,
        "7982": 179,
        "7983": 112,
        "7984": 235,
        "7985": 136,
        "7986": 251,
        "7987": 134,
        "7988": 107,
        "7989": 53,
        "7990": 223,
        "7991": 92,
        "7992": 41,
        "7993": 104,
        "7994": 159,
        "7995": 245,
        "7996": 105,
        "7997": 24,
        "7998": 131,
        "7999": 246,
        "8000": 180,
        "8001": 206,
        "8002": 90,
        "8003": 24,
        "8004": 149,
        "8005": 196,
        "8006": 150,
        "8007": 228,
        "8008": 171,
        "8009": 202,
        "8010": 168,
        "8011": 239,
        "8012": 53,
        "8013": 55,
        "8014": 42,
        "8015": 49,
        "8016": 45,
        "8017": 12,
        "8018": 151,
        "8019": 17,
        "8020": 156,
        "8021": 11,
        "8022": 110,
        "8023": 231,
        "8024": 235,
        "8025": 135,
        "8026": 84,
        "8027": 254,
        "8028": 134,
        "8029": 16,
        "8030": 86,
        "8031": 32,
        "8032": 121,
        "8033": 64,
        "8034": 140,
        "8035": 34,
        "8036": 101,
        "8037": 108,
        "8038": 236,
        "8039": 15,
        "8040": 221,
        "8041": 123,
        "8042": 201,
        "8043": 46,
        "8044": 77,
        "8045": 99,
        "8046": 65,
        "8047": 131,
        "8048": 233,
        "8049": 132,
        "8050": 210,
        "8051": 47,
        "8052": 17,
        "8053": 89,
        "8054": 249,
        "8055": 114,
        "8056": 224,
        "8057": 76,
        "8058": 3,
        "8059": 180,
        "8060": 152,
        "8061": 255,
        "8062": 254,
        "8063": 153,
        "8064": 213,
        "8065": 74,
        "8066": 52,
        "8067": 115,
        "8068": 237,
        "8069": 103,
        "8070": 17,
        "8071": 95,
        "8072": 189,
        "8073": 191,
        "8074": 159,
        "8075": 7,
        "8076": 123,
        "8077": 44,
        "8078": 24,
        "8079": 58,
        "8080": 216,
        "8081": 26,
        "8082": 123,
        "8083": 58,
        "8084": 0,
        "8085": 100,
        "8086": 155,
        "8087": 177,
        "8088": 149,
        "8089": 209,
        "8090": 121,
        "8091": 83,
        "8092": 189,
        "8093": 7,
        "8094": 179,
        "8095": 162,
        "8096": 138,
        "8097": 47,
        "8098": 143,
        "8099": 227,
        "8100": 122,
        "8101": 91,
        "8102": 11,
        "8103": 31,
        "8104": 240,
        "8105": 86,
        "8106": 23,
        "8107": 68,
        "8108": 231,
        "8109": 160,
        "8110": 110,
        "8111": 61,
        "8112": 24,
        "8113": 6,
        "8114": 195,
        "8115": 209,
        "8116": 245,
        "8117": 141,
        "8118": 79,
        "8119": 156,
        "8120": 124,
        "8121": 32,
        "8122": 104,
        "8123": 111,
        "8124": 224,
        "8125": 89,
        "8126": 37,
        "8127": 170,
        "8128": 14,
        "8129": 159,
        "8130": 124,
        "8131": 195,
        "8132": 65,
        "8133": 148,
        "8134": 117,
        "8135": 173,
        "8136": 240,
        "8137": 214,
        "8138": 19,
        "8139": 232,
        "8140": 228,
        "8141": 230,
        "8142": 57,
        "8143": 237,
        "8144": 128,
        "8145": 172,
        "8146": 124,
        "8147": 206,
        "8148": 4,
        "8149": 39,
        "8150": 188,
        "8151": 199,
        "8152": 71,
        "8153": 88,
        "8154": 120,
        "8155": 59,
        "8156": 62,
        "8157": 236,
        "8158": 142,
        "8159": 148,
        "8160": 241,
        "8161": 114,
        "8162": 59,
        "8163": 133,
        "8164": 199,
        "8165": 28,
        "8166": 137,
        "8167": 133,
        "8168": 0,
        "8169": 115,
        "8170": 78,
        "8171": 53,
        "8172": 215,
        "8173": 155,
        "8174": 130,
        "8175": 192,
        "8176": 222,
        "8177": 136,
        "8178": 100,
        "8179": 34,
        "8180": 200,
        "8181": 169,
        "8182": 65,
        "8183": 137,
        "8184": 27,
        "8185": 120,
        "8186": 41,
        "8187": 101,
        "8188": 10,
        "8189": 43,
        "8190": 227,
        "8191": 217,
        "8192": 184,
        "8193": 103,
        "8194": 224,
        "8195": 134,
        "8196": 113,
        "8197": 240,
        "8198": 93,
        "8199": 217,
        "8200": 248,
        "8201": 69,
        "8202": 157,
        "8203": 217,
        "8204": 249,
        "8205": 70,
        "8206": 38,
        "8207": 123,
        "8208": 66,
        "8209": 189,
        "8210": 251,
        "8211": 6,
        "8212": 79,
        "8213": 84,
        "8214": 223,
        "8215": 90,
        "8216": 4,
        "8217": 184,
        "8218": 237,
        "8219": 194,
        "8220": 37,
        "8221": 162,
        "8222": 213,
        "8223": 202,
        "8224": 46,
        "8225": 28,
        "8226": 26,
        "8227": 182,
        "8228": 142,
        "8229": 105,
        "8230": 249,
        "8231": 194,
        "8232": 73,
        "8233": 48,
        "8234": 64,
        "8235": 101,
        "8236": 82,
        "8237": 30,
        "8238": 114,
        "8239": 216,
        "8240": 188,
        "8241": 0,
        "8242": 57,
        "8243": 46,
        "8244": 28,
        "8245": 210,
        "8246": 219,
        "8247": 237,
        "8248": 41,
        "8249": 243,
        "8250": 82,
        "8251": 28,
        "8252": 161,
        "8253": 253,
        "8254": 168,
        "8255": 31,
        "8256": 232,
        "8257": 163,
        "8258": 245,
        "8259": 91,
        "8260": 46,
        "8261": 222,
        "8262": 180,
        "8263": 0,
        "8264": 67,
        "8265": 220,
        "8266": 60,
        "8267": 40,
        "8268": 195,
        "8269": 169,
        "8270": 221,
        "8271": 89,
        "8272": 44,
        "8273": 47,
        "8274": 94,
        "8275": 175,
        "8276": 45,
        "8277": 8,
        "8278": 165,
        "8279": 93,
        "8280": 94,
        "8281": 212,
        "8282": 76,
        "8283": 184,
        "8284": 66,
        "8285": 107,
        "8286": 228,
        "8287": 203,
        "8288": 242,
        "8289": 177,
        "8290": 68,
        "8291": 179,
        "8292": 32,
        "8293": 0,
        "8294": 176,
        "8295": 172,
        "8296": 144,
        "8297": 199,
        "8298": 177,
        "8299": 41,
        "8300": 229,
        "8301": 51,
        "8302": 127,
        "8303": 166,
        "8304": 98,
        "8305": 162,
        "8306": 150,
        "8307": 204,
        "8308": 254,
        "8309": 159,
        "8310": 161,
        "8311": 81,
        "8312": 126,
        "8313": 15,
        "8314": 117,
        "8315": 54,
        "8316": 116,
        "8317": 5,
        "8318": 163,
        "8319": 25,
        "8320": 21,
        "8321": 226,
        "8322": 76,
        "8323": 10,
        "8324": 213,
        "8325": 219,
        "8326": 164,
        "8327": 123,
        "8328": 97,
        "8329": 208,
        "8330": 134,
        "8331": 228,
        "8332": 46,
        "8333": 18,
        "8334": 32,
        "8335": 153,
        "8336": 67,
        "8337": 119,
        "8338": 192,
        "8339": 213,
        "8340": 237,
        "8341": 255,
        "8342": 132,
        "8343": 241,
        "8344": 188,
        "8345": 187,
        "8346": 148,
        "8347": 149,
        "8348": 229,
        "8349": 129,
        "8350": 207,
        "8351": 186,
        "8352": 62,
        "8353": 62,
        "8354": 58,
        "8355": 151,
        "8356": 159,
        "8357": 51,
        "8358": 30,
        "8359": 17,
        "8360": 9,
        "8361": 128,
        "8362": 72,
        "8363": 231,
        "8364": 76,
        "8365": 234,
        "8366": 4,
        "8367": 10,
        "8368": 28,
        "8369": 176,
        "8370": 202,
        "8371": 146,
        "8372": 64,
        "8373": 106,
        "8374": 184,
        "8375": 186,
        "8376": 225,
        "8377": 228,
        "8378": 80,
        "8379": 132,
        "8380": 233,
        "8381": 99,
        "8382": 190,
        "8383": 127,
        "8384": 236,
        "8385": 125,
        "8386": 12,
        "8387": 206,
        "8388": 31,
        "8389": 37,
        "8390": 105,
        "8391": 216,
        "8392": 129,
        "8393": 214,
        "8394": 245,
        "8395": 215,
        "8396": 106,
        "8397": 90,
        "8398": 128,
        "8399": 190,
        "8400": 155,
        "8401": 65,
        "8402": 56,
        "8403": 94,
        "8404": 211,
        "8405": 188,
        "8406": 8,
        "8407": 179,
        "8408": 225,
        "8409": 123,
        "8410": 24,
        "8411": 21,
        "8412": 84,
        "8413": 89,
        "8414": 234,
        "8415": 105,
        "8416": 8,
        "8417": 21,
        "8418": 35,
        "8419": 70,
        "8420": 94,
        "8421": 23,
        "8422": 69,
        "8423": 235,
        "8424": 169,
        "8425": 135,
        "8426": 173,
        "8427": 173,
        "8428": 234,
        "8429": 17,
        "8430": 183,
        "8431": 162,
        "8432": 98,
        "8433": 170,
        "8434": 110,
        "8435": 250,
        "8436": 176,
        "8437": 193,
        "8438": 118,
        "8439": 250,
        "8440": 155,
        "8441": 135,
        "8442": 243,
        "8443": 181,
        "8444": 200,
        "8445": 113,
        "8446": 197,
        "8447": 142,
        "8448": 236,
        "8449": 111,
        "8450": 250,
        "8451": 96,
        "8452": 85,
        "8453": 164,
        "8454": 233,
        "8455": 57,
        "8456": 129,
        "8457": 208,
        "8458": 213,
        "8459": 216,
        "8460": 19,
        "8461": 189,
        "8462": 51,
        "8463": 120,
        "8464": 175,
        "8465": 141,
        "8466": 10,
        "8467": 225,
        "8468": 9,
        "8469": 250,
        "8470": 239,
        "8471": 233,
        "8472": 72,
        "8473": 108,
        "8474": 179,
        "8475": 57,
        "8476": 205,
        "8477": 195,
        "8478": 156,
        "8479": 97,
        "8480": 63,
        "8481": 249,
        "8482": 35,
        "8483": 194,
        "8484": 126,
        "8485": 171,
        "8486": 0,
        "8487": 106,
        "8488": 66,
        "8489": 111,
        "8490": 74,
        "8491": 104,
        "8492": 161,
        "8493": 54,
        "8494": 242,
        "8495": 184,
        "8496": 153,
        "8497": 244,
        "8498": 255,
        "8499": 205,
        "8500": 216,
        "8501": 208,
        "8502": 18,
        "8503": 81,
        "8504": 115,
        "8505": 225,
        "8506": 78,
        "8507": 106,
        "8508": 230,
        "8509": 10,
        "8510": 172,
        "8511": 179,
        "8512": 36,
        "8513": 33,
        "8514": 112,
        "8515": 56,
        "8516": 109,
        "8517": 209,
        "8518": 56,
        "8519": 177,
        "8520": 218,
        "8521": 23,
        "8522": 127,
        "8523": 215,
        "8524": 120,
        "8525": 152,
        "8526": 125,
        "8527": 168,
        "8528": 95,
        "8529": 75,
        "8530": 243,
        "8531": 152,
        "8532": 248,
        "8533": 239,
        "8534": 204,
        "8535": 121,
        "8536": 101,
        "8537": 237,
        "8538": 8,
        "8539": 127,
        "8540": 224,
        "8541": 37,
        "8542": 166,
        "8543": 23,
        "8544": 205,
        "8545": 184,
        "8546": 74,
        "8547": 240,
        "8548": 17,
        "8549": 141,
        "8550": 180,
        "8551": 6,
        "8552": 48,
        "8553": 128,
        "8554": 172,
        "8555": 65,
        "8556": 32,
        "8557": 22,
        "8558": 240,
        "8559": 253,
        "8560": 44,
        "8561": 68,
        "8562": 195,
        "8563": 217,
        "8564": 102,
        "8565": 186,
        "8566": 139,
        "8567": 174,
        "8568": 77,
        "8569": 194,
        "8570": 128,
        "8571": 99,
        "8572": 145,
        "8573": 217,
        "8574": 57,
        "8575": 61,
        "8576": 169,
        "8577": 72,
        "8578": 2,
        "8579": 103,
        "8580": 169,
        "8581": 176,
        "8582": 47,
        "8583": 26,
        "8584": 125,
        "8585": 239,
        "8586": 56,
        "8587": 34,
        "8588": 178,
        "8589": 84,
        "8590": 111,
        "8591": 112,
        "8592": 112,
        "8593": 206,
        "8594": 143,
        "8595": 69,
        "8596": 200,
        "8597": 16,
        "8598": 195,
        "8599": 57,
        "8600": 240,
        "8601": 94,
        "8602": 222,
        "8603": 181,
        "8604": 94,
        "8605": 137,
        "8606": 246,
        "8607": 37,
        "8608": 180,
        "8609": 117,
        "8610": 214,
        "8611": 190,
        "8612": 16,
        "8613": 228,
        "8614": 27,
        "8615": 126,
        "8616": 107,
        "8617": 11,
        "8618": 155,
        "8619": 213,
        "8620": 93,
        "8621": 5,
        "8622": 137,
        "8623": 54,
        "8624": 160,
        "8625": 38,
        "8626": 216,
        "8627": 229,
        "8628": 21,
        "8629": 117,
        "8630": 16,
        "8631": 71,
        "8632": 189,
        "8633": 22,
        "8634": 222,
        "8635": 95,
        "8636": 7,
        "8637": 234,
        "8638": 23,
        "8639": 44,
        "8640": 27,
        "8641": 0,
        "8642": 44,
        "8643": 193,
        "8644": 35,
        "8645": 244,
        "8646": 211,
        "8647": 169,
        "8648": 222,
        "8649": 241,
        "8650": 121,
        "8651": 101,
        "8652": 220,
        "8653": 153,
        "8654": 113,
        "8655": 184,
        "8656": 47,
        "8657": 171,
        "8658": 199,
        "8659": 183,
        "8660": 124,
        "8661": 95,
        "8662": 29,
        "8663": 193,
        "8664": 179,
        "8665": 154,
        "8666": 14,
        "8667": 6,
        "8668": 174,
        "8669": 4,
        "8670": 251,
        "8671": 111,
        "8672": 143,
        "8673": 164,
        "8674": 151,
        "8675": 20,
        "8676": 225,
        "8677": 88,
        "8678": 4,
        "8679": 224,
        "8680": 31,
        "8681": 171,
        "8682": 105,
        "8683": 174,
        "8684": 80,
        "8685": 130,
        "8686": 255,
        "8687": 172,
        "8688": 77,
        "8689": 173,
        "8690": 218,
        "8691": 102,
        "8692": 21,
        "8693": 27,
        "8694": 104,
        "8695": 195,
        "8696": 189,
        "8697": 251,
        "8698": 11,
        "8699": 124,
        "8700": 232,
        "8701": 64,
        "8702": 163,
        "8703": 59,
        "8704": 247,
        "8705": 146,
        "8706": 31,
        "8707": 228,
        "8708": 221,
        "8709": 213,
        "8710": 52,
        "8711": 246,
        "8712": 190,
        "8713": 197,
        "8714": 88,
        "8715": 2,
        "8716": 93,
        "8717": 91,
        "8718": 7,
        "8719": 154,
        "8720": 155,
        "8721": 201,
        "8722": 52,
        "8723": 128,
        "8724": 131,
        "8725": 73,
        "8726": 100,
        "8727": 159,
        "8728": 91,
        "8729": 224,
        "8730": 211,
        "8731": 64,
        "8732": 161,
        "8733": 88,
        "8734": 233,
        "8735": 65,
        "8736": 247,
        "8737": 30,
        "8738": 55,
        "8739": 100,
        "8740": 170,
        "8741": 54,
        "8742": 232,
        "8743": 67,
        "8744": 71,
        "8745": 173,
        "8746": 118,
        "8747": 151,
        "8748": 221,
        "8749": 168,
        "8750": 23,
        "8751": 103,
        "8752": 203,
        "8753": 153,
        "8754": 103,
        "8755": 93,
        "8756": 101,
        "8757": 179,
        "8758": 42,
        "8759": 182,
        "8760": 198,
        "8761": 242,
        "8762": 239,
        "8763": 53,
        "8764": 226,
        "8765": 250,
        "8766": 229,
        "8767": 245,
        "8768": 184,
        "8769": 70,
        "8770": 8,
        "8771": 89,
        "8772": 90,
        "8773": 213,
        "8774": 137,
        "8775": 184,
        "8776": 14,
        "8777": 135,
        "8778": 82,
        "8779": 122,
        "8780": 157,
        "8781": 119,
        "8782": 181,
        "8783": 12,
        "8784": 221,
        "8785": 125,
        "8786": 148,
        "8787": 78,
        "8788": 223,
        "8789": 216,
        "8790": 88,
        "8791": 40,
        "8792": 12,
        "8793": 19,
        "8794": 142,
        "8795": 155,
        "8796": 59,
        "8797": 47,
        "8798": 25,
        "8799": 243,
        "8800": 243,
        "8801": 199,
        "8802": 242,
        "8803": 214,
        "8804": 210,
        "8805": 212,
        "8806": 178,
        "8807": 136,
        "8808": 9,
        "8809": 146,
        "8810": 249,
        "8811": 135,
        "8812": 169,
        "8813": 45,
        "8814": 186,
        "8815": 90,
        "8816": 73,
        "8817": 164,
        "8818": 139,
        "8819": 167,
        "8820": 105,
        "8821": 221,
        "8822": 80,
        "8823": 114,
        "8824": 63,
        "8825": 244,
        "8826": 75,
        "8827": 223,
        "8828": 197,
        "8829": 131,
        "8830": 32,
        "8831": 139,
        "8832": 169,
        "8833": 179,
        "8834": 120,
        "8835": 30,
        "8836": 121,
        "8837": 170,
        "8838": 177,
        "8839": 209,
        "8840": 145,
        "8841": 250,
        "8842": 178,
        "8843": 166,
        "8844": 198,
        "8845": 243,
        "8846": 37,
        "8847": 38,
        "8848": 194,
        "8849": 232,
        "8850": 206,
        "8851": 188,
        "8852": 51,
        "8853": 49,
        "8854": 189,
        "8855": 62,
        "8856": 255,
        "8857": 194,
        "8858": 36,
        "8859": 140,
        "8860": 21,
        "8861": 70,
        "8862": 187,
        "8863": 80,
        "8864": 50,
        "8865": 84,
        "8866": 20,
        "8867": 136,
        "8868": 99,
        "8869": 214,
        "8870": 33,
        "8871": 2,
        "8872": 107,
        "8873": 41,
        "8874": 122,
        "8875": 169,
        "8876": 220,
        "8877": 99,
        "8878": 39,
        "8879": 119,
        "8880": 62,
        "8881": 150,
        "8882": 5,
        "8883": 29,
        "8884": 45,
        "8885": 64,
        "8886": 201,
        "8887": 248,
        "8888": 100,
        "8889": 148,
        "8890": 99,
        "8891": 89,
        "8892": 17,
        "8893": 206,
        "8894": 230,
        "8895": 68,
        "8896": 25,
        "8897": 123,
        "8898": 4,
        "8899": 8,
        "8900": 227,
        "8901": 149,
        "8902": 132,
        "8903": 205,
        "8904": 242,
        "8905": 94,
        "8906": 40,
        "8907": 242,
        "8908": 154,
        "8909": 229,
        "8910": 216,
        "8911": 26,
        "8912": 27,
        "8913": 200,
        "8914": 140,
        "8915": 220,
        "8916": 253,
        "8917": 146,
        "8918": 198,
        "8919": 165,
        "8920": 133,
        "8921": 152,
        "8922": 143,
        "8923": 217,
        "8924": 187,
        "8925": 202,
        "8926": 35,
        "8927": 147,
        "8928": 118,
        "8929": 237,
        "8930": 127,
        "8931": 0,
        "8932": 225,
        "8933": 23,
        "8934": 126,
        "8935": 247,
        "8936": 116,
        "8937": 68,
        "8938": 84,
        "8939": 245,
        "8940": 39,
        "8941": 198,
        "8942": 173,
        "8943": 251,
        "8944": 9,
        "8945": 41,
        "8946": 122,
        "8947": 51,
        "8948": 171,
        "8949": 99,
        "8950": 104,
        "8951": 22,
        "8952": 217,
        "8953": 200,
        "8954": 218,
        "8955": 168,
        "8956": 12,
        "8957": 97,
        "8958": 108,
        "8959": 230,
        "8960": 77,
        "8961": 85,
        "8962": 207,
        "8963": 15,
        "8964": 93,
        "8965": 57,
        "8966": 136,
        "8967": 112,
        "8968": 198,
        "8969": 44,
        "8970": 164,
        "8971": 188,
        "8972": 2,
        "8973": 48,
        "8974": 149,
        "8975": 78,
        "8976": 71,
        "8977": 242,
        "8978": 23,
        "8979": 161,
        "8980": 126,
        "8981": 69,
        "8982": 163,
        "8983": 28,
        "8984": 243,
        "8985": 185,
        "8986": 211,
        "8987": 205,
        "8988": 109,
        "8989": 218,
        "8990": 166,
        "8991": 96,
        "8992": 85,
        "8993": 255,
        "8994": 41,
        "8995": 136,
        "8996": 122,
        "8997": 228,
        "8998": 96,
        "8999": 185,
        "9000": 59,
        "9001": 193,
        "9002": 47,
        "9003": 189,
        "9004": 108,
        "9005": 241,
        "9006": 57,
        "9007": 162,
        "9008": 244,
        "9009": 127,
        "9010": 46,
        "9011": 223,
        "9012": 172,
        "9013": 173,
        "9014": 57,
        "9015": 236,
        "9016": 59,
        "9017": 134,
        "9018": 66,
        "9019": 162,
        "9020": 38,
        "9021": 31,
        "9022": 0,
        "9023": 64,
        "9024": 4,
        "9025": 247,
        "9026": 227,
        "9027": 156,
        "9028": 157,
        "9029": 243,
        "9030": 52,
        "9031": 164,
        "9032": 148,
        "9033": 124,
        "9034": 252,
        "9035": 143,
        "9036": 238,
        "9037": 128,
        "9038": 106,
        "9039": 15,
        "9040": 19,
        "9041": 102,
        "9042": 254,
        "9043": 154,
        "9044": 50,
        "9045": 221,
        "9046": 103,
        "9047": 41,
        "9048": 169,
        "9049": 47,
        "9050": 169,
        "9051": 100,
        "9052": 27,
        "9053": 47,
        "9054": 134,
        "9055": 149,
        "9056": 108,
        "9057": 130,
        "9058": 1,
        "9059": 225,
        "9060": 247,
        "9061": 57,
        "9062": 68,
        "9063": 18,
        "9064": 45,
        "9065": 67,
        "9066": 32,
        "9067": 31,
        "9068": 172,
        "9069": 238,
        "9070": 144,
        "9071": 32,
        "9072": 219,
        "9073": 39,
        "9074": 191,
        "9075": 88,
        "9076": 223,
        "9077": 191,
        "9078": 138,
        "9079": 70,
        "9080": 189,
        "9081": 251,
        "9082": 223,
        "9083": 168,
        "9084": 121,
        "9085": 236,
        "9086": 9,
        "9087": 18,
        "9088": 198,
        "9089": 27,
        "9090": 22,
        "9091": 121,
        "9092": 217,
        "9093": 249,
        "9094": 91,
        "9095": 129,
        "9096": 101,
        "9097": 55,
        "9098": 85,
        "9099": 25,
        "9100": 190,
        "9101": 203,
        "9102": 75,
        "9103": 152,
        "9104": 83,
        "9105": 250,
        "9106": 3,
        "9107": 20,
        "9108": 22,
        "9109": 213,
        "9110": 65,
        "9111": 252,
        "9112": 112,
        "9113": 73,
        "9114": 223,
        "9115": 27,
        "9116": 112,
        "9117": 94,
        "9118": 35,
        "9119": 236,
        "9120": 137,
        "9121": 194,
        "9122": 63,
        "9123": 204,
        "9124": 157,
        "9125": 204,
        "9126": 78,
        "9127": 161,
        "9128": 149,
        "9129": 225,
        "9130": 30,
        "9131": 207,
        "9132": 179,
        "9133": 174,
        "9134": 202,
        "9135": 141,
        "9136": 233,
        "9137": 206,
        "9138": 6,
        "9139": 12,
        "9140": 126,
        "9141": 128,
        "9142": 100,
        "9143": 223,
        "9144": 108,
        "9145": 86,
        "9146": 135,
        "9147": 104,
        "9148": 218,
        "9149": 226,
        "9150": 106,
        "9151": 156,
        "9152": 222,
        "9153": 125,
        "9154": 54,
        "9155": 54,
        "9156": 143,
        "9157": 153,
        "9158": 140,
        "9159": 136,
        "9160": 240,
        "9161": 205,
        "9162": 182,
        "9163": 129,
        "9164": 174,
        "9165": 162,
        "9166": 113,
        "9167": 236,
        "9168": 184,
        "9169": 1,
        "9170": 80,
        "9171": 91,
        "9172": 55,
        "9173": 142,
        "9174": 47,
        "9175": 100,
        "9176": 34,
        "9177": 221,
        "9178": 129,
        "9179": 205,
        "9180": 194,
        "9181": 232,
        "9182": 79,
        "9183": 246,
        "9184": 221,
        "9185": 55,
        "9186": 82,
        "9187": 114,
        "9188": 116,
        "9189": 112,
        "9190": 83,
        "9191": 66,
        "9192": 150,
        "9193": 0,
        "9194": 234,
        "9195": 107,
        "9196": 153,
        "9197": 20,
        "9198": 2,
        "9199": 237,
        "9200": 57,
        "9201": 240,
        "9202": 96,
        "9203": 116,
        "9204": 120,
        "9205": 18,
        "9206": 247,
        "9207": 38,
        "9208": 83,
        "9209": 29,
        "9210": 215,
        "9211": 149,
        "9212": 232,
        "9213": 71,
        "9214": 26,
        "9215": 44,
        "9216": 150,
        "9217": 193,
        "9218": 82,
        "9219": 128,
        "9220": 177,
        "9221": 83,
        "9222": 240,
        "9223": 181,
        "9224": 232,
        "9225": 233,
        "9226": 49,
        "9227": 198,
        "9228": 76,
        "9229": 4,
        "9230": 5,
        "9231": 225,
        "9232": 203,
        "9233": 138,
        "9234": 148,
        "9235": 67,
        "9236": 113,
        "9237": 64,
        "9238": 62,
        "9239": 141,
        "9240": 89,
        "9241": 150,
        "9242": 174,
        "9243": 187,
        "9244": 26,
        "9245": 51,
        "9246": 187,
        "9247": 228,
        "9248": 161,
        "9249": 133,
        "9250": 124,
        "9251": 123,
        "9252": 43,
        "9253": 249,
        "9254": 237,
        "9255": 154,
        "9256": 236,
        "9257": 123,
        "9258": 185,
        "9259": 166,
        "9260": 247,
        "9261": 139,
        "9262": 70,
        "9263": 29,
        "9264": 245,
        "9265": 234,
        "9266": 226,
        "9267": 222,
        "9268": 243,
        "9269": 248,
        "9270": 105,
        "9271": 253,
        "9272": 249,
        "9273": 118,
        "9274": 86,
        "9275": 155,
        "9276": 155,
        "9277": 13,
        "9278": 118,
        "9279": 129,
        "9280": 113,
        "9281": 222,
        "9282": 3,
        "9283": 94,
        "9284": 129,
        "9285": 69,
        "9286": 250,
        "9287": 69,
        "9288": 243,
        "9289": 213,
        "9290": 79,
        "9291": 223,
        "9292": 67,
        "9293": 138,
        "9294": 206,
        "9295": 173,
        "9296": 37,
        "9297": 86,
        "9298": 89,
        "9299": 94,
        "9300": 13,
        "9301": 98,
        "9302": 93,
        "9303": 40,
        "9304": 189,
        "9305": 155,
        "9306": 73,
        "9307": 61,
        "9308": 122,
        "9309": 63,
        "9310": 190,
        "9311": 15,
        "9312": 169,
        "9313": 128,
        "9314": 144,
        "9315": 226,
        "9316": 251,
        "9317": 131,
        "9318": 226,
        "9319": 71,
        "9320": 207,
        "9321": 20,
        "9322": 24,
        "9323": 49,
        "9324": 34,
        "9325": 96,
        "9326": 54,
        "9327": 0,
        "9328": 31,
        "9329": 84,
        "9330": 198,
        "9331": 226,
        "9332": 101,
        "9333": 243,
        "9334": 36,
        "9335": 117,
        "9336": 175,
        "9337": 166,
        "9338": 120,
        "9339": 94,
        "9340": 34,
        "9341": 16,
        "9342": 3,
        "9343": 28,
        "9344": 9,
        "9345": 68,
        "9346": 53,
        "9347": 171,
        "9348": 61,
        "9349": 50,
        "9350": 98,
        "9351": 197,
        "9352": 5,
        "9353": 37,
        "9354": 103,
        "9355": 104,
        "9356": 244,
        "9357": 97,
        "9358": 36,
        "9359": 94,
        "9360": 227,
        "9361": 68,
        "9362": 73,
        "9363": 11,
        "9364": 13,
        "9365": 194,
        "9366": 66,
        "9367": 97,
        "9368": 72,
        "9369": 179,
        "9370": 201,
        "9371": 179,
        "9372": 130,
        "9373": 35,
        "9374": 204,
        "9375": 60,
        "9376": 234,
        "9377": 35,
        "9378": 50,
        "9379": 61,
        "9380": 118,
        "9381": 243,
        "9382": 114,
        "9383": 58,
        "9384": 30,
        "9385": 230,
        "9386": 149,
        "9387": 238,
        "9388": 232,
        "9389": 14,
        "9390": 90,
        "9391": 203,
        "9392": 146,
        "9393": 184,
        "9394": 207,
        "9395": 16,
        "9396": 124,
        "9397": 184,
        "9398": 32,
        "9399": 46,
        "9400": 87,
        "9401": 3,
        "9402": 18,
        "9403": 77,
        "9404": 88,
        "9405": 100,
        "9406": 248,
        "9407": 203,
        "9408": 250,
        "9409": 199,
        "9410": 247,
        "9411": 15,
        "9412": 30,
        "9413": 79,
        "9414": 177,
        "9415": 118,
        "9416": 201,
        "9417": 68,
        "9418": 46,
        "9419": 104,
        "9420": 167,
        "9421": 234,
        "9422": 99,
        "9423": 140,
        "9424": 164,
        "9425": 115,
        "9426": 226,
        "9427": 107,
        "9428": 128,
        "9429": 45,
        "9430": 101,
        "9431": 110,
        "9432": 132,
        "9433": 113,
        "9434": 135,
        "9435": 102,
        "9436": 235,
        "9437": 243,
        "9438": 234,
        "9439": 92,
        "9440": 144,
        "9441": 254,
        "9442": 16,
        "9443": 23,
        "9444": 179,
        "9445": 66,
        "9446": 200,
        "9447": 1,
        "9448": 3,
        "9449": 138,
        "9450": 83,
        "9451": 16,
        "9452": 199,
        "9453": 180,
        "9454": 163,
        "9455": 122,
        "9456": 142,
        "9457": 69,
        "9458": 51,
        "9459": 214,
        "9460": 212,
        "9461": 182,
        "9462": 190,
        "9463": 233,
        "9464": 188,
        "9465": 161,
        "9466": 117,
        "9467": 226,
        "9468": 157,
        "9469": 51,
        "9470": 87,
        "9471": 171,
        "9472": 38,
        "9473": 38,
        "9474": 139,
        "9475": 75,
        "9476": 192,
        "9477": 254,
        "9478": 161,
        "9479": 66,
        "9480": 167,
        "9481": 249,
        "9482": 11,
        "9483": 86,
        "9484": 230,
        "9485": 7,
        "9486": 176,
        "9487": 197,
        "9488": 195,
        "9489": 229,
        "9490": 173,
        "9491": 12,
        "9492": 45,
        "9493": 107,
        "9494": 32,
        "9495": 39,
        "9496": 20,
        "9497": 210,
        "9498": 3,
        "9499": 42,
        "9500": 49,
        "9501": 43,
        "9502": 108,
        "9503": 179,
        "9504": 108,
        "9505": 102,
        "9506": 50,
        "9507": 236,
        "9508": 161,
        "9509": 165,
        "9510": 152,
        "9511": 4,
        "9512": 42,
        "9513": 66,
        "9514": 174,
        "9515": 44,
        "9516": 16,
        "9517": 142,
        "9518": 154,
        "9519": 131,
        "9520": 187,
        "9521": 153,
        "9522": 107,
        "9523": 110,
        "9524": 78,
        "9525": 66,
        "9526": 222,
        "9527": 158,
        "9528": 95,
        "9529": 120,
        "9530": 92,
        "9531": 144,
        "9532": 194,
        "9533": 255,
        "9534": 23,
        "9535": 32,
        "9536": 174,
        "9537": 231,
        "9538": 132,
        "9539": 142,
        "9540": 250,
        "9541": 72,
        "9542": 239,
        "9543": 186,
        "9544": 0,
        "9545": 1,
        "9546": 65,
        "9547": 252,
        "9548": 176,
        "9549": 53,
        "9550": 107,
        "9551": 112,
        "9552": 215,
        "9553": 149,
        "9554": 136,
        "9555": 60,
        "9556": 167,
        "9557": 42,
        "9558": 123,
        "9559": 194,
        "9560": 144,
        "9561": 151,
        "9562": 140,
        "9563": 19,
        "9564": 238,
        "9565": 166,
        "9566": 20,
        "9567": 34,
        "9568": 39,
        "9569": 220,
        "9570": 170,
        "9571": 23,
        "9572": 88,
        "9573": 21,
        "9574": 235,
        "9575": 70,
        "9576": 142,
        "9577": 253,
        "9578": 9,
        "9579": 114,
        "9580": 203,
        "9581": 164,
        "9582": 230,
        "9583": 192,
        "9584": 239,
        "9585": 182,
        "9586": 240,
        "9587": 163,
        "9588": 184,
        "9589": 50,
        "9590": 245,
        "9591": 218,
        "9592": 77,
        "9593": 222,
        "9594": 9,
        "9595": 164,
        "9596": 151,
        "9597": 105,
        "9598": 171,
        "9599": 242,
        "9600": 208,
        "9601": 74,
        "9602": 207,
        "9603": 177,
        "9604": 42,
        "9605": 158,
        "9606": 160,
        "9607": 132,
        "9608": 148,
        "9609": 220,
        "9610": 121,
        "9611": 83,
        "9612": 55,
        "9613": 154,
        "9614": 2,
        "9615": 125,
        "9616": 227,
        "9617": 192,
        "9618": 5,
        "9619": 41,
        "9620": 77,
        "9621": 166,
        "9622": 164,
        "9623": 145,
        "9624": 87,
        "9625": 42,
        "9626": 71,
        "9627": 161,
        "9628": 5,
        "9629": 65,
        "9630": 183,
        "9631": 133,
        "9632": 166,
        "9633": 99,
        "9634": 26,
        "9635": 201,
        "9636": 231,
        "9637": 187,
        "9638": 155,
        "9639": 18,
        "9640": 193,
        "9641": 22,
        "9642": 123,
        "9643": 171,
        "9644": 79,
        "9645": 105,
        "9646": 46,
        "9647": 9,
        "9648": 152,
        "9649": 8,
        "9650": 199,
        "9651": 81,
        "9652": 137,
        "9653": 250,
        "9654": 8,
        "9655": 62,
        "9656": 255,
        "9657": 69,
        "9658": 5,
        "9659": 136,
        "9660": 0,
        "9661": 126,
        "9662": 222,
        "9663": 121,
        "9664": 39,
        "9665": 74,
        "9666": 98,
        "9667": 141,
        "9668": 42,
        "9669": 206,
        "9670": 217,
        "9671": 136,
        "9672": 91,
        "9673": 178,
        "9674": 218,
        "9675": 133,
        "9676": 60,
        "9677": 157,
        "9678": 210,
        "9679": 159,
        "9680": 88,
        "9681": 128,
        "9682": 68,
        "9683": 237,
        "9684": 85,
        "9685": 193,
        "9686": 196,
        "9687": 222,
        "9688": 24,
        "9689": 163,
        "9690": 133,
        "9691": 21,
        "9692": 220,
        "9693": 47,
        "9694": 49,
        "9695": 43,
        "9696": 34,
        "9697": 113,
        "9698": 217,
        "9699": 202,
        "9700": 248,
        "9701": 160,
        "9702": 155,
        "9703": 87,
        "9704": 213,
        "9705": 135,
        "9706": 77,
        "9707": 178,
        "9708": 117,
        "9709": 233,
        "9710": 41,
        "9711": 26,
        "9712": 240,
        "9713": 89,
        "9714": 164,
        "9715": 80,
        "9716": 54,
        "9717": 156,
        "9718": 211,
        "9719": 213,
        "9720": 23,
        "9721": 85,
        "9722": 197,
        "9723": 17,
        "9724": 234,
        "9725": 255,
        "9726": 245,
        "9727": 78,
        "9728": 121,
        "9729": 13,
        "9730": 158,
        "9731": 47,
        "9732": 121,
        "9733": 228,
        "9734": 161,
        "9735": 27,
        "9736": 135,
        "9737": 216,
        "9738": 85,
        "9739": 198,
        "9740": 142,
        "9741": 104,
        "9742": 79,
        "9743": 13,
        "9744": 2,
        "9745": 245,
        "9746": 105,
        "9747": 103,
        "9748": 68,
        "9749": 233,
        "9750": 159,
        "9751": 24,
        "9752": 255,
        "9753": 202,
        "9754": 70,
        "9755": 137,
        "9756": 201,
        "9757": 141,
        "9758": 190,
        "9759": 163,
        "9760": 163,
        "9761": 231,
        "9762": 75,
        "9763": 184,
        "9764": 94,
        "9765": 178,
        "9766": 117,
        "9767": 242,
        "9768": 74,
        "9769": 131,
        "9770": 37,
        "9771": 212,
        "9772": 113,
        "9773": 48,
        "9774": 59,
        "9775": 78,
        "9776": 91,
        "9777": 24,
        "9778": 213,
        "9779": 95,
        "9780": 232,
        "9781": 224,
        "9782": 101,
        "9783": 123,
        "9784": 36,
        "9785": 16,
        "9786": 5,
        "9787": 170,
        "9788": 55,
        "9789": 248,
        "9790": 11,
        "9791": 241,
        "9792": 50,
        "9793": 248,
        "9794": 79,
        "9795": 170,
        "9796": 132,
        "9797": 148,
        "9798": 49,
        "9799": 223,
        "9800": 93,
        "9801": 190,
        "9802": 76,
        "9803": 31,
        "9804": 93,
        "9805": 213,
        "9806": 186,
        "9807": 53,
        "9808": 172,
        "9809": 88,
        "9810": 124,
        "9811": 221,
        "9812": 250,
        "9813": 39,
        "9814": 26,
        "9815": 226,
        "9816": 156,
        "9817": 154,
        "9818": 114,
        "9819": 188,
        "9820": 138,
        "9821": 59,
        "9822": 33,
        "9823": 191,
        "9824": 3,
        "9825": 220,
        "9826": 105,
        "9827": 159,
        "9828": 207,
        "9829": 7,
        "9830": 193,
        "9831": 7,
        "9832": 225,
        "9833": 108,
        "9834": 124,
        "9835": 110,
        "9836": 194,
        "9837": 231,
        "9838": 60,
        "9839": 148,
        "9840": 210,
        "9841": 114,
        "9842": 246,
        "9843": 112,
        "9844": 183,
        "9845": 231,
        "9846": 183,
        "9847": 183,
        "9848": 40,
        "9849": 169,
        "9850": 221,
        "9851": 152,
        "9852": 167,
        "9853": 10,
        "9854": 201,
        "9855": 57,
        "9856": 121,
        "9857": 192,
        "9858": 234,
        "9859": 249,
        "9860": 112,
        "9861": 32,
        "9862": 237,
        "9863": 163,
        "9864": 155,
        "9865": 110,
        "9866": 101,
        "9867": 187,
        "9868": 111,
        "9869": 227,
        "9870": 82,
        "9871": 250,
        "9872": 109,
        "9873": 198,
        "9874": 180,
        "9875": 196,
        "9876": 245,
        "9877": 104,
        "9878": 180,
        "9879": 184,
        "9880": 116,
        "9881": 5,
        "9882": 208,
        "9883": 19,
        "9884": 81,
        "9885": 66,
        "9886": 201,
        "9887": 49,
        "9888": 132,
        "9889": 83,
        "9890": 104,
        "9891": 94,
        "9892": 218,
        "9893": 245,
        "9894": 9,
        "9895": 52,
        "9896": 102,
        "9897": 28,
        "9898": 61,
        "9899": 183,
        "9900": 32,
        "9901": 13,
        "9902": 96,
        "9903": 61,
        "9904": 50,
        "9905": 81,
        "9906": 192,
        "9907": 153,
        "9908": 223,
        "9909": 104,
        "9910": 215,
        "9911": 23,
        "9912": 22,
        "9913": 14,
        "9914": 17,
        "9915": 199,
        "9916": 16,
        "9917": 166,
        "9918": 225,
        "9919": 51,
        "9920": 1,
        "9921": 244,
        "9922": 143,
        "9923": 240,
        "9924": 133,
        "9925": 232,
        "9926": 192,
        "9927": 154,
        "9928": 222,
        "9929": 131,
        "9930": 23,
        "9931": 128,
        "9932": 164,
        "9933": 187,
        "9934": 35,
        "9935": 196,
        "9936": 251,
        "9937": 91,
        "9938": 173,
        "9939": 69,
        "9940": 252,
        "9941": 131,
        "9942": 240,
        "9943": 52,
        "9944": 158,
        "9945": 203,
        "9946": 219,
        "9947": 87,
        "9948": 106,
        "9949": 168,
        "9950": 114,
        "9951": 6,
        "9952": 146,
        "9953": 224,
        "9954": 254,
        "9955": 227,
        "9956": 218,
        "9957": 81,
        "9958": 198,
        "9959": 88,
        "9960": 136,
        "9961": 103,
        "9962": 111,
        "9963": 99,
        "9964": 26,
        "9965": 27,
        "9966": 96,
        "9967": 15,
        "9968": 161,
        "9969": 62,
        "9970": 87,
        "9971": 69,
        "9972": 19,
        "9973": 156,
        "9974": 71,
        "9975": 84,
        "9976": 97,
        "9977": 196,
        "9978": 92,
        "9979": 124,
        "9980": 188,
        "9981": 30,
        "9982": 30,
        "9983": 149,
        "9984": 65,
        "9985": 140,
        "9986": 102,
        "9987": 146,
        "9988": 40,
        "9989": 62,
        "9990": 46,
        "9991": 106,
        "9992": 35,
        "9993": 10,
        "9994": 161,
        "9995": 163,
        "9996": 166,
        "9997": 102,
        "9998": 146,
        "9999": 123,
        "10000": 11,
        "10001": 232,
        "10002": 117,
        "10003": 99,
        "10004": 28,
        "10005": 252,
        "10006": 175,
        "10007": 196,
        "10008": 119,
        "10009": 159,
        "10010": 89,
        "10011": 135,
        "10012": 166,
        "10013": 78,
        "10014": 0,
        "10015": 91,
        "10016": 114,
        "10017": 16,
        "10018": 243,
        "10019": 213,
        "10020": 214,
        "10021": 212,
        "10022": 62,
        "10023": 71,
        "10024": 122,
        "10025": 238,
        "10026": 119,
        "10027": 67,
        "10028": 74,
        "10029": 191,
        "10030": 12,
        "10031": 177,
        "10032": 64,
        "10033": 11,
        "10034": 8,
        "10035": 251,
        "10036": 67,
        "10037": 27,
        "10038": 199,
        "10039": 246,
        "10040": 82,
        "10041": 75,
        "10042": 40,
        "10043": 117,
        "10044": 68,
        "10045": 73,
        "10046": 177,
        "10047": 211,
        "10048": 43,
        "10049": 239,
        "10050": 103,
        "10051": 78,
        "10052": 205,
        "10053": 255,
        "10054": 192,
        "10055": 84,
        "10056": 103,
        "10057": 211,
        "10058": 149,
        "10059": 158,
        "10060": 68,
        "10061": 65,
        "10062": 29,
        "10063": 178,
        "10064": 131,
        "10065": 124,
        "10066": 171,
        "10067": 184,
        "10068": 97,
        "10069": 166,
        "10070": 205,
        "10071": 86,
        "10072": 242,
        "10073": 41,
        "10074": 31,
        "10075": 172,
        "10076": 187,
        "10077": 210,
        "10078": 30,
        "10079": 165,
        "10080": 1,
        "10081": 23,
        "10082": 106,
        "10083": 153,
        "10084": 12,
        "10085": 207,
        "10086": 103,
        "10087": 197,
        "10088": 210,
        "10089": 168,
        "10090": 162,
        "10091": 36,
        "10092": 214,
        "10093": 102,
        "10094": 143,
        "10095": 205,
        "10096": 12,
        "10097": 30,
        "10098": 255,
        "10099": 112,
        "10100": 163,
        "10101": 12,
        "10102": 1,
        "10103": 89,
        "10104": 209,
        "10105": 8,
        "10106": 123,
        "10107": 99,
        "10108": 255,
        "10109": 113,
        "10110": 24,
        "10111": 152,
        "10112": 152,
        "10113": 57,
        "10114": 52,
        "10115": 52,
        "10116": 237,
        "10117": 96,
        "10118": 29,
        "10119": 63,
        "10120": 185,
        "10121": 133,
        "10122": 199,
        "10123": 209,
        "10124": 37,
        "10125": 157,
        "10126": 49,
        "10127": 9,
        "10128": 20,
        "10129": 232,
        "10130": 157,
        "10131": 51,
        "10132": 192,
        "10133": 167,
        "10134": 146,
        "10135": 194,
        "10136": 17,
        "10137": 8,
        "10138": 142,
        "10139": 10,
        "10140": 240,
        "10141": 97,
        "10142": 20,
        "10143": 230,
        "10144": 83,
        "10145": 73,
        "10146": 28,
        "10147": 253,
        "10148": 252,
        "10149": 4,
        "10150": 234,
        "10151": 87,
        "10152": 168,
        "10153": 149,
        "10154": 9,
        "10155": 70,
        "10156": 99,
        "10157": 62,
        "10158": 48,
        "10159": 163,
        "10160": 65,
        "10161": 114,
        "10162": 35,
        "10163": 241,
        "10164": 233,
        "10165": 118,
        "10166": 208,
        "10167": 80,
        "10168": 180,
        "10169": 125,
        "10170": 180,
        "10171": 176,
        "10172": 193,
        "10173": 36,
        "10174": 125,
        "10175": 35,
        "10176": 70,
        "10177": 87,
        "10178": 21,
        "10179": 6,
        "10180": 179,
        "10181": 232,
        "10182": 32,
        "10183": 144,
        "10184": 188,
        "10185": 54,
        "10186": 122,
        "10187": 134,
        "10188": 99,
        "10189": 92,
        "10190": 57,
        "10191": 228,
        "10192": 76,
        "10193": 78,
        "10194": 241,
        "10195": 248,
        "10196": 104,
        "10197": 61,
        "10198": 60,
        "10199": 129,
        "10200": 254,
        "10201": 136,
        "10202": 16,
        "10203": 46,
        "10204": 144,
        "10205": 100,
        "10206": 28,
        "10207": 188,
        "10208": 245,
        "10209": 19,
        "10210": 250,
        "10211": 44,
        "10212": 43,
        "10213": 189,
        "10214": 148,
        "10215": 230,
        "10216": 193,
        "10217": 181,
        "10218": 215,
        "10219": 137,
        "10220": 92,
        "10221": 86,
        "10222": 29,
        "10223": 87,
        "10224": 69,
        "10225": 8,
        "10226": 249,
        "10227": 179,
        "10228": 168,
        "10229": 57,
        "10230": 230,
        "10231": 58,
        "10232": 130,
        "10233": 35,
        "10234": 94,
        "10235": 115,
        "10236": 124,
        "10237": 124,
        "10238": 102,
        "10239": 212,
        "10240": 238,
        "10241": 14,
        "10242": 5,
        "10243": 150,
        "10244": 7,
        "10245": 167,
        "10246": 254,
        "10247": 77,
        "10248": 216,
        "10249": 203,
        "10250": 55,
        "10251": 239,
        "10252": 153,
        "10253": 57,
        "10254": 100,
        "10255": 49,
        "10256": 252,
        "10257": 166,
        "10258": 207,
        "10259": 4,
        "10260": 140,
        "10261": 250,
        "10262": 5,
        "10263": 167,
        "10264": 100,
        "10265": 110,
        "10266": 144,
        "10267": 35,
        "10268": 7,
        "10269": 132,
        "10270": 10,
        "10271": 184,
        "10272": 84,
        "10273": 154,
        "10274": 30,
        "10275": 6,
        "10276": 155,
        "10277": 95,
        "10278": 179,
        "10279": 108,
        "10280": 210,
        "10281": 96,
        "10282": 143,
        "10283": 158,
        "10284": 201,
        "10285": 224,
        "10286": 196,
        "10287": 253,
        "10288": 161,
        "10289": 53,
        "10290": 18,
        "10291": 156,
        "10292": 155,
        "10293": 135,
        "10294": 151,
        "10295": 89,
        "10296": 86,
        "10297": 225,
        "10298": 240,
        "10299": 242,
        "10300": 51,
        "10301": 94,
        "10302": 19,
        "10303": 132,
        "10304": 4,
        "10305": 118,
        "10306": 222,
        "10307": 27,
        "10308": 100,
        "10309": 218,
        "10310": 48,
        "10311": 172,
        "10312": 112,
        "10313": 144,
        "10314": 147,
        "10315": 98,
        "10316": 149,
        "10317": 253,
        "10318": 247,
        "10319": 85,
        "10320": 251,
        "10321": 88,
        "10322": 249,
        "10323": 244,
        "10324": 49,
        "10325": 20,
        "10326": 254,
        "10327": 198,
        "10328": 10,
        "10329": 210,
        "10330": 203,
        "10331": 97,
        "10332": 253,
        "10333": 128,
        "10334": 247,
        "10335": 114,
        "10336": 43,
        "10337": 104,
        "10338": 178,
        "10339": 125,
        "10340": 151,
        "10341": 112,
        "10342": 159,
        "10343": 71,
        "10344": 69,
        "10345": 62,
        "10346": 198,
        "10347": 63,
        "10348": 108,
        "10349": 221,
        "10350": 9,
        "10351": 91,
        "10352": 130,
        "10353": 125,
        "10354": 139,
        "10355": 84,
        "10356": 249,
        "10357": 76,
        "10358": 33,
        "10359": 63,
        "10360": 210,
        "10361": 25,
        "10362": 120,
        "10363": 229,
        "10364": 178,
        "10365": 91,
        "10366": 193,
        "10367": 245,
        "10368": 205,
        "10369": 232,
        "10370": 136,
        "10371": 93,
        "10372": 232,
        "10373": 159,
        "10374": 101,
        "10375": 157,
        "10376": 148,
        "10377": 119,
        "10378": 47,
        "10379": 134,
        "10380": 144,
        "10381": 193,
        "10382": 60,
        "10383": 112,
        "10384": 142,
        "10385": 17,
        "10386": 35,
        "10387": 93,
        "10388": 57,
        "10389": 251,
        "10390": 211,
        "10391": 109,
        "10392": 232,
        "10393": 152,
        "10394": 97,
        "10395": 144,
        "10396": 228,
        "10397": 153,
        "10398": 234,
        "10399": 249,
        "10400": 64,
        "10401": 91,
        "10402": 196,
        "10403": 127,
        "10404": 152,
        "10405": 55,
        "10406": 216,
        "10407": 229,
        "10408": 216,
        "10409": 0,
        "10410": 255,
        "10411": 185,
        "10412": 131,
        "10413": 45,
        "10414": 40,
        "10415": 95,
        "10416": 134,
        "10417": 241,
        "10418": 133,
        "10419": 128,
        "10420": 172,
        "10421": 221,
        "10422": 94,
        "10423": 149,
        "10424": 8,
        "10425": 0,
        "10426": 184,
        "10427": 145,
        "10428": 182,
        "10429": 118,
        "10430": 116,
        "10431": 227,
        "10432": 108,
        "10433": 231,
        "10434": 49,
        "10435": 43,
        "10436": 246,
        "10437": 38,
        "10438": 204,
        "10439": 11,
        "10440": 94,
        "10441": 148,
        "10442": 11,
        "10443": 132,
        "10444": 96,
        "10445": 107,
        "10446": 107,
        "10447": 163,
        "10448": 204,
        "10449": 255,
        "10450": 103,
        "10451": 146,
        "10452": 72,
        "10453": 144,
        "10454": 146,
        "10455": 186,
        "10456": 10,
        "10457": 117,
        "10458": 101,
        "10459": 89,
        "10460": 35,
        "10461": 92,
        "10462": 166,
        "10463": 111,
        "10464": 238,
        "10465": 89,
        "10466": 117,
        "10467": 93,
        "10468": 42,
        "10469": 113,
        "10470": 129,
        "10471": 152,
        "10472": 113,
        "10473": 228,
        "10474": 119,
        "10475": 3,
        "10476": 179,
        "10477": 123,
        "10478": 112,
        "10479": 186,
        "10480": 173,
        "10481": 222,
        "10482": 111,
        "10483": 59,
        "10484": 11,
        "10485": 19,
        "10486": 132,
        "10487": 214,
        "10488": 171,
        "10489": 67,
        "10490": 150,
        "10491": 144,
        "10492": 186,
        "10493": 142,
        "10494": 9,
        "10495": 27,
        "10496": 65,
        "10497": 161,
        "10498": 70,
        "10499": 99,
        "10500": 251,
        "10501": 98,
        "10502": 243,
        "10503": 93,
        "10504": 217,
        "10505": 182,
        "10506": 94,
        "10507": 156,
        "10508": 39,
        "10509": 46,
        "10510": 250,
        "10511": 12,
        "10512": 160,
        "10513": 204,
        "10514": 237,
        "10515": 143,
        "10516": 150,
        "10517": 106,
        "10518": 229,
        "10519": 229,
        "10520": 73,
        "10521": 175,
        "10522": 125,
        "10523": 24,
        "10524": 131,
        "10525": 175,
        "10526": 60,
        "10527": 2,
        "10528": 145,
        "10529": 239,
        "10530": 79,
        "10531": 145,
        "10532": 44,
        "10533": 2,
        "10534": 118,
        "10535": 180,
        "10536": 162,
        "10537": 146,
        "10538": 237,
        "10539": 189,
        "10540": 249,
        "10541": 202,
        "10542": 134,
        "10543": 121,
        "10544": 108,
        "10545": 159,
        "10546": 37,
        "10547": 133,
        "10548": 213,
        "10549": 69,
        "10550": 36,
        "10551": 244,
        "10552": 246,
        "10553": 6,
        "10554": 140,
        "10555": 127,
        "10556": 40,
        "10557": 31,
        "10558": 46,
        "10559": 116,
        "10560": 80,
        "10561": 155,
        "10562": 198,
        "10563": 50,
        "10564": 113,
        "10565": 27,
        "10566": 249,
        "10567": 231,
        "10568": 197,
        "10569": 61,
        "10570": 110,
        "10571": 43,
        "10572": 53,
        "10573": 219,
        "10574": 180,
        "10575": 56,
        "10576": 144,
        "10577": 66,
        "10578": 249,
        "10579": 128,
        "10580": 55,
        "10581": 94,
        "10582": 72,
        "10583": 29,
        "10584": 213,
        "10585": 157,
        "10586": 14,
        "10587": 238,
        "10588": 157,
        "10589": 70,
        "10590": 175,
        "10591": 217,
        "10592": 177,
        "10593": 189,
        "10594": 223,
        "10595": 222,
        "10596": 221,
        "10597": 21,
        "10598": 206,
        "10599": 172,
        "10600": 221,
        "10601": 50,
        "10602": 40,
        "10603": 175,
        "10604": 213,
        "10605": 117,
        "10606": 105,
        "10607": 106,
        "10608": 102,
        "10609": 39,
        "10610": 103,
        "10611": 88,
        "10612": 223,
        "10613": 201,
        "10614": 73,
        "10615": 45,
        "10616": 198,
        "10617": 68,
        "10618": 19,
        "10619": 14,
        "10620": 132,
        "10621": 123,
        "10622": 116,
        "10623": 46,
        "10624": 30,
        "10625": 127,
        "10626": 51,
        "10627": 99,
        "10628": 112,
        "10629": 239,
        "10630": 89,
        "10631": 130,
        "10632": 91,
        "10633": 148,
        "10634": 94,
        "10635": 179,
        "10636": 197,
        "10637": 46,
        "10638": 111,
        "10639": 87,
        "10640": 93,
        "10641": 32,
        "10642": 81,
        "10643": 130,
        "10644": 109,
        "10645": 131,
        "10646": 132,
        "10647": 158,
        "10648": 2,
        "10649": 10,
        "10650": 87,
        "10651": 162,
        "10652": 223,
        "10653": 207,
        "10654": 100,
        "10655": 89,
        "10656": 229,
        "10657": 108,
        "10658": 244,
        "10659": 202,
        "10660": 25,
        "10661": 48,
        "10662": 216,
        "10663": 50,
        "10664": 102,
        "10665": 235,
        "10666": 215,
        "10667": 189,
        "10668": 137,
        "10669": 167,
        "10670": 217,
        "10671": 86,
        "10672": 128,
        "10673": 177,
        "10674": 62,
        "10675": 2,
        "10676": 160,
        "10677": 194,
        "10678": 211,
        "10679": 171,
        "10680": 62,
        "10681": 228,
        "10682": 71,
        "10683": 225,
        "10684": 41,
        "10685": 230,
        "10686": 222,
        "10687": 38,
        "10688": 48,
        "10689": 206,
        "10690": 89,
        "10691": 221,
        "10692": 177,
        "10693": 56,
        "10694": 164,
        "10695": 203,
        "10696": 39,
        "10697": 13,
        "10698": 97,
        "10699": 126,
        "10700": 214,
        "10701": 127,
        "10702": 231,
        "10703": 181,
        "10704": 192,
        "10705": 28,
        "10706": 141,
        "10707": 176,
        "10708": 251,
        "10709": 122,
        "10710": 237,
        "10711": 101,
        "10712": 236,
        "10713": 56,
        "10714": 61,
        "10715": 114,
        "10716": 235,
        "10717": 117,
        "10718": 113,
        "10719": 32,
        "10720": 164,
        "10721": 93,
        "10722": 109,
        "10723": 133,
        "10724": 204,
        "10725": 252,
        "10726": 36,
        "10727": 198,
        "10728": 185,
        "10729": 83,
        "10730": 216,
        "10731": 41,
        "10732": 10,
        "10733": 59,
        "10734": 159,
        "10735": 64,
        "10736": 204,
        "10737": 28,
        "10738": 99,
        "10739": 88,
        "10740": 119,
        "10741": 65,
        "10742": 159,
        "10743": 9,
        "10744": 145,
        "10745": 182,
        "10746": 13,
        "10747": 186,
        "10748": 141,
        "10749": 183,
        "10750": 186,
        "10751": 6,
        "10752": 133,
        "10753": 141,
        "10754": 232,
        "10755": 44,
        "10756": 224,
        "10757": 231,
        "10758": 37,
        "10759": 118,
        "10760": 229,
        "10761": 189,
        "10762": 166,
        "10763": 61,
        "10764": 210,
        "10765": 130,
        "10766": 149,
        "10767": 53,
        "10768": 88,
        "10769": 195,
        "10770": 186,
        "10771": 145,
        "10772": 252,
        "10773": 213,
        "10774": 141,
        "10775": 14,
        "10776": 49,
        "10777": 57,
        "10778": 169,
        "10779": 215,
        "10780": 234,
        "10781": 236,
        "10782": 78,
        "10783": 0,
        "10784": 204,
        "10785": 101,
        "10786": 48,
        "10787": 22,
        "10788": 229,
        "10789": 82,
        "10790": 43,
        "10791": 60,
        "10792": 100,
        "10793": 173,
        "10794": 150,
        "10795": 139,
        "10796": 83,
        "10797": 183,
        "10798": 161,
        "10799": 83,
        "10800": 33,
        "10801": 29,
        "10802": 158,
        "10803": 130,
        "10804": 152,
        "10805": 103,
        "10806": 247,
        "10807": 183,
        "10808": 57,
        "10809": 202,
        "10810": 184,
        "10811": 206,
        "10812": 45,
        "10813": 145,
        "10814": 224,
        "10815": 240,
        "10816": 35,
        "10817": 85,
        "10818": 199,
        "10819": 141,
        "10820": 185,
        "10821": 107,
        "10822": 172,
        "10823": 21,
        "10824": 148,
        "10825": 215,
        "10826": 12,
        "10827": 224,
        "10828": 98,
        "10829": 216,
        "10830": 116,
        "10831": 182,
        "10832": 219,
        "10833": 27,
        "10834": 86,
        "10835": 91,
        "10836": 122,
        "10837": 70,
        "10838": 21,
        "10839": 83,
        "10840": 131,
        "10841": 221,
        "10842": 184,
        "10843": 67,
        "10844": 43,
        "10845": 70,
        "10846": 132,
        "10847": 42,
        "10848": 177,
        "10849": 250,
        "10850": 224,
        "10851": 7,
        "10852": 229,
        "10853": 157,
        "10854": 251,
        "10855": 202,
        "10856": 77,
        "10857": 39,
        "10858": 245,
        "10859": 96,
        "10860": 246,
        "10861": 90,
        "10862": 232,
        "10863": 29,
        "10864": 211,
        "10865": 224,
        "10866": 240,
        "10867": 249,
        "10868": 77,
        "10869": 148,
        "10870": 173,
        "10871": 61,
        "10872": 58,
        "10873": 37,
        "10874": 11,
        "10875": 9,
        "10876": 252,
        "10877": 176,
        "10878": 161,
        "10879": 53,
        "10880": 93,
        "10881": 101,
        "10882": 131,
        "10883": 43,
        "10884": 248,
        "10885": 7,
        "10886": 111,
        "10887": 146,
        "10888": 149,
        "10889": 234,
        "10890": 238,
        "10891": 222,
        "10892": 145,
        "10893": 137,
        "10894": 75,
        "10895": 125,
        "10896": 75,
        "10897": 169,
        "10898": 166,
        "10899": 124,
        "10900": 119,
        "10901": 75,
        "10902": 244,
        "10903": 213,
        "10904": 133,
        "10905": 245,
        "10906": 100,
        "10907": 84,
        "10908": 90,
        "10909": 146,
        "10910": 29,
        "10911": 162,
        "10912": 149,
        "10913": 71,
        "10914": 194,
        "10915": 231,
        "10916": 23,
        "10917": 24,
        "10918": 182,
        "10919": 239,
        "10920": 46,
        "10921": 147,
        "10922": 226,
        "10923": 38,
        "10924": 130,
        "10925": 26,
        "10926": 237,
        "10927": 136,
        "10928": 178,
        "10929": 157,
        "10930": 53,
        "10931": 42,
        "10932": 241,
        "10933": 46,
        "10934": 242,
        "10935": 23,
        "10936": 171,
        "10937": 159,
        "10938": 170,
        "10939": 31,
        "10940": 238,
        "10941": 43,
        "10942": 205,
        "10943": 187,
        "10944": 223,
        "10945": 0,
        "10946": 111,
        "10947": 219,
        "10948": 246,
        "10949": 210,
        "10950": 88,
        "10951": 190,
        "10952": 225,
        "10953": 211,
        "10954": 32,
        "10955": 152,
        "10956": 84,
        "10957": 69,
        "10958": 72,
        "10959": 210,
        "10960": 101,
        "10961": 114,
        "10962": 244,
        "10963": 59,
        "10964": 74,
        "10965": 178,
        "10966": 108,
        "10967": 49,
        "10968": 169,
        "10969": 112,
        "10970": 189,
        "10971": 24,
        "10972": 78,
        "10973": 155,
        "10974": 120,
        "10975": 124,
        "10976": 20,
        "10977": 79,
        "10978": 7,
        "10979": 157,
        "10980": 210,
        "10981": 134,
        "10982": 236,
        "10983": 5,
        "10984": 170,
        "10985": 211,
        "10986": 178,
        "10987": 230,
        "10988": 146,
        "10989": 185,
        "10990": 78,
        "10991": 161,
        "10992": 14,
        "10993": 138,
        "10994": 217,
        "10995": 146,
        "10996": 122,
        "10997": 124,
        "10998": 225,
        "10999": 117,
        "11000": 130,
        "11001": 4,
        "11002": 94,
        "11003": 189,
        "11004": 66,
        "11005": 24,
        "11006": 30,
        "11007": 115,
        "11008": 63,
        "11009": 164,
        "11010": 200,
        "11011": 239,
        "11012": 111,
        "11013": 186,
        "11014": 37,
        "11015": 61,
        "11016": 60,
        "11017": 187,
        "11018": 99,
        "11019": 111,
        "11020": 192,
        "11021": 206,
        "11022": 237,
        "11023": 34,
        "11024": 15,
        "11025": 82,
        "11026": 227,
        "11027": 50,
        "11028": 175,
        "11029": 112,
        "11030": 223,
        "11031": 128,
        "11032": 103,
        "11033": 19,
        "11034": 219,
        "11035": 30,
        "11036": 68,
        "11037": 178,
        "11038": 217,
        "11039": 221,
        "11040": 198,
        "11041": 64,
        "11042": 66,
        "11043": 133,
        "11044": 101,
        "11045": 170,
        "11046": 240,
        "11047": 185,
        "11048": 163,
        "11049": 221,
        "11050": 192,
        "11051": 37,
        "11052": 7,
        "11053": 12,
        "11054": 8,
        "11055": 23,
        "11056": 127,
        "11057": 188,
        "11058": 82,
        "11059": 44,
        "11060": 234,
        "11061": 75,
        "11062": 244,
        "11063": 148,
        "11064": 13,
        "11065": 208,
        "11066": 75,
        "11067": 97,
        "11068": 63,
        "11069": 162,
        "11070": 158,
        "11071": 29,
        "11072": 127,
        "11073": 148,
        "11074": 38,
        "11075": 190,
        "11076": 167,
        "11077": 31,
        "11078": 55,
        "11079": 30,
        "11080": 165,
        "11081": 253,
        "11082": 200,
        "11083": 78,
        "11084": 26,
        "11085": 154,
        "11086": 187,
        "11087": 233,
        "11088": 49,
        "11089": 180,
        "11090": 186,
        "11091": 185,
        "11092": 175,
        "11093": 32,
        "11094": 234,
        "11095": 15,
        "11096": 36,
        "11097": 85,
        "11098": 41,
        "11099": 82,
        "11100": 181,
        "11101": 78,
        "11102": 183,
        "11103": 56,
        "11104": 61,
        "11105": 192,
        "11106": 220,
        "11107": 228,
        "11108": 210,
        "11109": 69,
        "11110": 30,
        "11111": 121,
        "11112": 8,
        "11113": 179,
        "11114": 134,
        "11115": 178,
        "11116": 64,
        "11117": 234,
        "11118": 75,
        "11119": 45,
        "11120": 235,
        "11121": 149,
        "11122": 169,
        "11123": 3,
        "11124": 51,
        "11125": 17,
        "11126": 183,
        "11127": 42,
        "11128": 133,
        "11129": 164,
        "11130": 17,
        "11131": 0,
        "11132": 240,
        "11133": 135,
        "11134": 83,
        "11135": 171,
        "11136": 75,
        "11137": 71,
        "11138": 208,
        "11139": 155,
        "11140": 240,
        "11141": 188,
        "11142": 48,
        "11143": 208,
        "11144": 66,
        "11145": 228,
        "11146": 214,
        "11147": 232,
        "11148": 139,
        "11149": 29,
        "11150": 66,
        "11151": 94,
        "11152": 63,
        "11153": 209,
        "11154": 152,
        "11155": 101,
        "11156": 56,
        "11157": 69,
        "11158": 211,
        "11159": 104,
        "11160": 100,
        "11161": 41,
        "11162": 163,
        "11163": 181,
        "11164": 11,
        "11165": 43,
        "11166": 28,
        "11167": 223,
        "11168": 90,
        "11169": 3,
        "11170": 207,
        "11171": 22,
        "11172": 31,
        "11173": 105,
        "11174": 58,
        "11175": 96,
        "11176": 0,
        "11177": 204,
        "11178": 81,
        "11179": 114,
        "11180": 143,
        "11181": 107,
        "11182": 67,
        "11183": 179,
        "11184": 105,
        "11185": 121,
        "11186": 68,
        "11187": 247,
        "11188": 165,
        "11189": 212,
        "11190": 24,
        "11191": 198,
        "11192": 47,
        "11193": 99,
        "11194": 86,
        "11195": 50,
        "11196": 140,
        "11197": 68,
        "11198": 245,
        "11199": 163,
        "11200": 212,
        "11201": 240,
        "11202": 36,
        "11203": 115,
        "11204": 206,
        "11205": 192,
        "11206": 63,
        "11207": 137,
        "11208": 221,
        "11209": 0,
        "11210": 100,
        "11211": 180,
        "11212": 115,
        "11213": 42,
        "11214": 38,
        "11215": 148,
        "11216": 95,
        "11217": 76,
        "11218": 106,
        "11219": 141,
        "11220": 109,
        "11221": 94,
        "11222": 62,
        "11223": 6,
        "11224": 34,
        "11225": 169,
        "11226": 82,
        "11227": 125,
        "11228": 156,
        "11229": 240,
        "11230": 109,
        "11231": 140,
        "11232": 151,
        "11233": 233,
        "11234": 48,
        "11235": 101,
        "11236": 139,
        "11237": 24,
        "11238": 162,
        "11239": 6,
        "11240": 222,
        "11241": 141,
        "11242": 101,
        "11243": 19,
        "11244": 9,
        "11245": 165,
        "11246": 57,
        "11247": 19,
        "11248": 161,
        "11249": 48,
        "11250": 254,
        "11251": 51,
        "11252": 183,
        "11253": 52,
        "11254": 53,
        "11255": 99,
        "11256": 87,
        "11257": 37,
        "11258": 225,
        "11259": 210,
        "11260": 195,
        "11261": 48,
        "11262": 250,
        "11263": 221,
        "11264": 88,
        "11265": 107,
        "11266": 218,
        "11267": 44,
        "11268": 99,
        "11269": 80,
        "11270": 17,
        "11271": 234,
        "11272": 255,
        "11273": 191,
        "11274": 147,
        "11275": 221,
        "11276": 229,
        "11277": 61,
        "11278": 247,
        "11279": 75,
        "11280": 88,
        "11281": 30,
        "11282": 9,
        "11283": 41,
        "11284": 159,
        "11285": 30,
        "11286": 180,
        "11287": 181,
        "11288": 210,
        "11289": 48,
        "11290": 38,
        "11291": 80,
        "11292": 2,
        "11293": 143,
        "11294": 138,
        "11295": 99,
        "11296": 9,
        "11297": 105,
        "11298": 112,
        "11299": 218,
        "11300": 68,
        "11301": 99,
        "11302": 93,
        "11303": 200,
        "11304": 23,
        "11305": 48,
        "11306": 57,
        "11307": 65,
        "11308": 10,
        "11309": 230,
        "11310": 172,
        "11311": 85,
        "11312": 119,
        "11313": 103,
        "11314": 87,
        "11315": 188,
        "11316": 187,
        "11317": 199,
        "11318": 24,
        "11319": 219,
        "11320": 88,
        "11321": 196,
        "11322": 68,
        "11323": 39,
        "11324": 199,
        "11325": 121,
        "11326": 117,
        "11327": 78,
        "11328": 238,
        "11329": 91,
        "11330": 95,
        "11331": 178,
        "11332": 211,
        "11333": 226,
        "11334": 157,
        "11335": 199,
        "11336": 61,
        "11337": 209,
        "11338": 216,
        "11339": 147,
        "11340": 79,
        "11341": 9,
        "11342": 44,
        "11343": 199,
        "11344": 120,
        "11345": 192,
        "11346": 13,
        "11347": 47,
        "11348": 224,
        "11349": 255,
        "11350": 47,
        "11351": 223,
        "11352": 204,
        "11353": 132,
        "11354": 104,
        "11355": 127,
        "11356": 145,
        "11357": 80,
        "11358": 188,
        "11359": 24,
        "11360": 135,
        "11361": 156,
        "11362": 220,
        "11363": 198,
        "11364": 236,
        "11365": 140,
        "11366": 202,
        "11367": 42,
        "11368": 5,
        "11369": 195,
        "11370": 83,
        "11371": 1,
        "11372": 232,
        "11373": 188,
        "11374": 84,
        "11375": 28,
        "11376": 216,
        "11377": 254,
        "11378": 167,
        "11379": 210,
        "11380": 88,
        "11381": 220,
        "11382": 159,
        "11383": 131,
        "11384": 229,
        "11385": 247,
        "11386": 1,
        "11387": 133,
        "11388": 244,
        "11389": 67,
        "11390": 150,
        "11391": 72,
        "11392": 202,
        "11393": 35,
        "11394": 115,
        "11395": 73,
        "11396": 113,
        "11397": 144,
        "11398": 92,
        "11399": 140,
        "11400": 140,
        "11401": 108,
        "11402": 40,
        "11403": 75,
        "11404": 146,
        "11405": 73,
        "11406": 135,
        "11407": 3,
        "11408": 134,
        "11409": 4,
        "11410": 37,
        "11411": 30,
        "11412": 43,
        "11413": 127,
        "11414": 11,
        "11415": 137,
        "11416": 24,
        "11417": 112,
        "11418": 165,
        "11419": 243,
        "11420": 38,
        "11421": 37,
        "11422": 30,
        "11423": 35,
        "11424": 131,
        "11425": 53,
        "11426": 177,
        "11427": 90,
        "11428": 102,
        "11429": 183,
        "11430": 161,
        "11431": 72,
        "11432": 5,
        "11433": 85,
        "11434": 29,
        "11435": 144,
        "11436": 6,
        "11437": 187,
        "11438": 148,
        "11439": 175,
        "11440": 133,
        "11441": 164,
        "11442": 98,
        "11443": 210,
        "11444": 238,
        "11445": 142,
        "11446": 12,
        "11447": 100,
        "11448": 108,
        "11449": 220,
        "11450": 0,
        "11451": 252,
        "11452": 216,
        "11453": 254,
        "11454": 92,
        "11455": 167,
        "11456": 142,
        "11457": 87,
        "11458": 188,
        "11459": 55,
        "11460": 153,
        "11461": 70,
        "11462": 113,
        "11463": 200,
        "11464": 233,
        "11465": 163,
        "11466": 155,
        "11467": 9,
        "11468": 153,
        "11469": 208,
        "11470": 156,
        "11471": 125,
        "11472": 249,
        "11473": 229,
        "11474": 168,
        "11475": 116,
        "11476": 202,
        "11477": 245,
        "11478": 37,
        "11479": 215,
        "11480": 157,
        "11481": 57,
        "11482": 37,
        "11483": 71,
        "11484": 1,
        "11485": 78,
        "11486": 252,
        "11487": 201,
        "11488": 184,
        "11489": 91,
        "11490": 101,
        "11491": 11,
        "11492": 246,
        "11493": 182,
        "11494": 96,
        "11495": 150,
        "11496": 169,
        "11497": 41,
        "11498": 197,
        "11499": 211,
        "11500": 116,
        "11501": 248,
        "11502": 202,
        "11503": 224,
        "11504": 182,
        "11505": 70,
        "11506": 41,
        "11507": 39,
        "11508": 255,
        "11509": 162,
        "11510": 91,
        "11511": 236,
        "11512": 199,
        "11513": 248,
        "11514": 124,
        "11515": 251,
        "11516": 216,
        "11517": 211,
        "11518": 25,
        "11519": 72,
        "11520": 37,
        "11521": 136,
        "11522": 30,
        "11523": 69,
        "11524": 93,
        "11525": 109,
        "11526": 249,
        "11527": 158,
        "11528": 186,
        "11529": 33,
        "11530": 244,
        "11531": 19,
        "11532": 6,
        "11533": 24,
        "11534": 65,
        "11535": 203,
        "11536": 66,
        "11537": 27,
        "11538": 235,
        "11539": 89,
        "11540": 141,
        "11541": 207,
        "11542": 8,
        "11543": 26,
        "11544": 217,
        "11545": 122,
        "11546": 168,
        "11547": 42,
        "11548": 40,
        "11549": 230,
        "11550": 181,
        "11551": 82,
        "11552": 95,
        "11553": 24,
        "11554": 61,
        "11555": 247,
        "11556": 145,
        "11557": 162,
        "11558": 93,
        "11559": 106,
        "11560": 235,
        "11561": 246,
        "11562": 71,
        "11563": 81,
        "11564": 88,
        "11565": 75,
        "11566": 199,
        "11567": 30,
        "11568": 231,
        "11569": 172,
        "11570": 133,
        "11571": 188,
        "11572": 48,
        "11573": 48,
        "11574": 213,
        "11575": 202,
        "11576": 213,
        "11577": 50,
        "11578": 212,
        "11579": 192,
        "11580": 81,
        "11581": 244,
        "11582": 5,
        "11583": 228,
        "11584": 146,
        "11585": 236,
        "11586": 7,
        "11587": 201,
        "11588": 198,
        "11589": 38,
        "11590": 228,
        "11591": 166,
        "11592": 242,
        "11593": 227,
        "11594": 249,
        "11595": 152,
        "11596": 95,
        "11597": 236,
        "11598": 4,
        "11599": 134,
        "11600": 200,
        "11601": 84,
        "11602": 240,
        "11603": 97,
        "11604": 161,
        "11605": 91,
        "11606": 25,
        "11607": 139,
        "11608": 28,
        "11609": 74,
        "11610": 26,
        "11611": 28,
        "11612": 147,
        "11613": 189,
        "11614": 243,
        "11615": 152,
        "11616": 170,
        "11617": 130,
        "11618": 81,
        "11619": 148,
        "11620": 249,
        "11621": 32,
        "11622": 177,
        "11623": 198,
        "11624": 136,
        "11625": 128,
        "11626": 146,
        "11627": 166,
        "11628": 200,
        "11629": 24,
        "11630": 41,
        "11631": 127,
        "11632": 65,
        "11633": 12,
        "11634": 25,
        "11635": 30,
        "11636": 171,
        "11637": 201,
        "11638": 219,
        "11639": 62,
        "11640": 209,
        "11641": 4,
        "11642": 21,
        "11643": 226,
        "11644": 239,
        "11645": 97,
        "11646": 92,
        "11647": 48,
        "11648": 254,
        "11649": 123,
        "11650": 74,
        "11651": 151,
        "11652": 177,
        "11653": 134,
        "11654": 84,
        "11655": 23,
        "11656": 107,
        "11657": 109,
        "11658": 172,
        "11659": 114,
        "11660": 135,
        "11661": 137,
        "11662": 52,
        "11663": 245,
        "11664": 228,
        "11665": 72,
        "11666": 93,
        "11667": 254,
        "11668": 158,
        "11669": 135,
        "11670": 14,
        "11671": 241,
        "11672": 151,
        "11673": 34,
        "11674": 56,
        "11675": 182,
        "11676": 65,
        "11677": 220,
        "11678": 91,
        "11679": 102,
        "11680": 44,
        "11681": 249,
        "11682": 111,
        "11683": 36,
        "11684": 84,
        "11685": 34,
        "11686": 9,
        "11687": 237,
        "11688": 123,
        "11689": 130,
        "11690": 204,
        "11691": 156,
        "11692": 223,
        "11693": 53,
        "11694": 146,
        "11695": 224,
        "11696": 33,
        "11697": 16,
        "11698": 32,
        "11699": 6,
        "11700": 193,
        "11701": 76,
        "11702": 190,
        "11703": 130,
        "11704": 231,
        "11705": 119,
        "11706": 51,
        "11707": 8,
        "11708": 131,
        "11709": 127,
        "11710": 92,
        "11711": 16,
        "11712": 171,
        "11713": 231,
        "11714": 209,
        "11715": 29,
        "11716": 106,
        "11717": 191,
        "11718": 12,
        "11719": 185,
        "11720": 164,
        "11721": 217,
        "11722": 134,
        "11723": 238,
        "11724": 121,
        "11725": 163,
        "11726": 245,
        "11727": 115,
        "11728": 254,
        "11729": 141,
        "11730": 8,
        "11731": 73,
        "11732": 71,
        "11733": 107,
        "11734": 115,
        "11735": 169,
        "11736": 61,
        "11737": 231,
        "11738": 160,
        "11739": 241,
        "11740": 212,
        "11741": 106,
        "11742": 238,
        "11743": 90,
        "11744": 233,
        "11745": 94,
        "11746": 178,
        "11747": 185,
        "11748": 65,
        "11749": 215,
        "11750": 62,
        "11751": 56,
        "11752": 0,
        "11753": 78,
        "11754": 80,
        "11755": 72,
        "11756": 228,
        "11757": 186,
        "11758": 0,
        "11759": 25,
        "11760": 152,
        "11761": 215,
        "11762": 141,
        "11763": 71,
        "11764": 152,
        "11765": 133,
        "11766": 150,
        "11767": 112,
        "11768": 113,
        "11769": 156,
        "11770": 175,
        "11771": 52,
        "11772": 91,
        "11773": 53,
        "11774": 205,
        "11775": 244,
        "11776": 154,
        "11777": 11,
        "11778": 135,
        "11779": 125,
        "11780": 161,
        "11781": 85,
        "11782": 92,
        "11783": 212,
        "11784": 123,
        "11785": 201,
        "11786": 248,
        "11787": 169,
        "11788": 235,
        "11789": 140,
        "11790": 36,
        "11791": 7,
        "11792": 7,
        "11793": 72,
        "11794": 64,
        "11795": 161,
        "11796": 194,
        "11797": 159,
        "11798": 230,
        "11799": 124,
        "11800": 230,
        "11801": 123,
        "11802": 182,
        "11803": 97,
        "11804": 216,
        "11805": 144,
        "11806": 255,
        "11807": 35,
        "11808": 244,
        "11809": 88,
        "11810": 125,
        "11811": 207,
        "11812": 204,
        "11813": 146,
        "11814": 42,
        "11815": 171,
        "11816": 146,
        "11817": 235,
        "11818": 105,
        "11819": 143,
        "11820": 128,
        "11821": 56,
        "11822": 178,
        "11823": 38,
        "11824": 189,
        "11825": 210,
        "11826": 152,
        "11827": 75,
        "11828": 233,
        "11829": 20,
        "11830": 58,
        "11831": 151,
        "11832": 183,
        "11833": 172,
        "11834": 62,
        "11835": 162,
        "11836": 79,
        "11837": 168,
        "11838": 225,
        "11839": 36,
        "11840": 180,
        "11841": 69,
        "11842": 199,
        "11843": 74,
        "11844": 133,
        "11845": 118,
        "11846": 106,
        "11847": 108,
        "11848": 95,
        "11849": 137,
        "11850": 218,
        "11851": 172,
        "11852": 4,
        "11853": 108,
        "11854": 96,
        "11855": 12,
        "11856": 214,
        "11857": 139,
        "11858": 220,
        "11859": 217,
        "11860": 149,
        "11861": 225,
        "11862": 139,
        "11863": 106,
        "11864": 219,
        "11865": 1,
        "11866": 213,
        "11867": 192,
        "11868": 18,
        "11869": 246,
        "11870": 27,
        "11871": 189,
        "11872": 16,
        "11873": 141,
        "11874": 116,
        "11875": 172,
        "11876": 31,
        "11877": 210,
        "11878": 245,
        "11879": 132,
        "11880": 29,
        "11881": 101,
        "11882": 224,
        "11883": 19,
        "11884": 211,
        "11885": 219,
        "11886": 98,
        "11887": 5,
        "11888": 210,
        "11889": 106,
        "11890": 237,
        "11891": 185,
        "11892": 174,
        "11893": 160,
        "11894": 45,
        "11895": 208,
        "11896": 62,
        "11897": 228,
        "11898": 178,
        "11899": 104,
        "11900": 19,
        "11901": 162,
        "11902": 35,
        "11903": 66,
        "11904": 175,
        "11905": 217,
        "11906": 169,
        "11907": 185,
        "11908": 219,
        "11909": 219,
        "11910": 214,
        "11911": 127,
        "11912": 245,
        "11913": 8,
        "11914": 224,
        "11915": 237,
        "11916": 143,
        "11917": 133,
        "11918": 35,
        "11919": 108,
        "11920": 4,
        "11921": 86,
        "11922": 150,
        "11923": 248,
        "11924": 166,
        "11925": 63,
        "11926": 245,
        "11927": 132,
        "11928": 171,
        "11929": 102,
        "11930": 52,
        "11931": 213,
        "11932": 10,
        "11933": 202,
        "11934": 190,
        "11935": 229,
        "11936": 172,
        "11937": 139,
        "11938": 42,
        "11939": 232,
        "11940": 117,
        "11941": 123,
        "11942": 157,
        "11943": 73,
        "11944": 199,
        "11945": 124,
        "11946": 23,
        "11947": 10,
        "11948": 99,
        "11949": 218,
        "11950": 38,
        "11951": 186,
        "11952": 161,
        "11953": 28,
        "11954": 167,
        "11955": 54,
        "11956": 119,
        "11957": 46,
        "11958": 11,
        "11959": 31,
        "11960": 84,
        "11961": 119,
        "11962": 108,
        "11963": 177,
        "11964": 103,
        "11965": 150,
        "11966": 246,
        "11967": 254,
        "11968": 175,
        "11969": 217,
        "11970": 11,
        "11971": 94,
        "11972": 127,
        "11973": 10,
        "11974": 102,
        "11975": 230,
        "11976": 45,
        "11977": 75,
        "11978": 91,
        "11979": 15,
        "11980": 50,
        "11981": 77,
        "11982": 221,
        "11983": 213,
        "11984": 21,
        "11985": 194,
        "11986": 177,
        "11987": 143,
        "11988": 251,
        "11989": 147,
        "11990": 18,
        "11991": 171,
        "11992": 33,
        "11993": 129,
        "11994": 168,
        "11995": 242,
        "11996": 241,
        "11997": 236,
        "11998": 80,
        "11999": 243,
        "12000": 190,
        "12001": 108,
        "12002": 82,
        "12003": 215,
        "12004": 94,
        "12005": 246,
        "12006": 44,
        "12007": 140,
        "12008": 36,
        "12009": 143,
        "12010": 94,
        "12011": 103,
        "12012": 78,
        "12013": 148,
        "12014": 9,
        "12015": 143,
        "12016": 247,
        "12017": 31,
        "12018": 93,
        "12019": 148,
        "12020": 201,
        "12021": 53,
        "12022": 170,
        "12023": 31,
        "12024": 164,
        "12025": 52,
        "12026": 116,
        "12027": 230,
        "12028": 221,
        "12029": 0,
        "12030": 125,
        "12031": 121,
        "12032": 12,
        "12033": 11,
        "12034": 131,
        "12035": 34,
        "12036": 197,
        "12037": 131,
        "12038": 170,
        "12039": 146,
        "12040": 209,
        "12041": 103,
        "12042": 194,
        "12043": 28,
        "12044": 187,
        "12045": 57,
        "12046": 237,
        "12047": 246,
        "12048": 131,
        "12049": 122,
        "12050": 55,
        "12051": 234,
        "12052": 105,
        "12053": 251,
        "12054": 118,
        "12055": 63,
        "12056": 172,
        "12057": 187,
        "12058": 81,
        "12059": 203,
        "12060": 88,
        "12061": 58,
        "12062": 80,
        "12063": 55,
        "12064": 38,
        "12065": 177,
        "12066": 6,
        "12067": 111,
        "12068": 25,
        "12069": 238,
        "12070": 55,
        "12071": 12,
        "12072": 254,
        "12073": 123,
        "12074": 132,
        "12075": 45,
        "12076": 135,
        "12077": 184,
        "12078": 128,
        "12079": 21,
        "12080": 81,
        "12081": 164,
        "12082": 54,
        "12083": 40,
        "12084": 98,
        "12085": 42,
        "12086": 147,
        "12087": 75,
        "12088": 67,
        "12089": 55,
        "12090": 239,
        "12091": 69,
        "12092": 218,
        "12093": 253,
        "12094": 120,
        "12095": 187,
        "12096": 152,
        "12097": 49,
        "12098": 145,
        "12099": 133,
        "12100": 62,
        "12101": 216,
        "12102": 192,
        "12103": 75,
        "12104": 141,
        "12105": 105,
        "12106": 6,
        "12107": 48,
        "12108": 136,
        "12109": 51,
        "12110": 57,
        "12111": 197,
        "12112": 189,
        "12113": 44,
        "12114": 13,
        "12115": 29,
        "12116": 135,
        "12117": 195,
        "12118": 17,
        "12119": 110,
        "12120": 75,
        "12121": 36,
        "12122": 105,
        "12123": 83,
        "12124": 221,
        "12125": 228,
        "12126": 22,
        "12127": 128,
        "12128": 213,
        "12129": 177,
        "12130": 247,
        "12131": 37,
        "12132": 143,
        "12133": 28,
        "12134": 255,
        "12135": 178,
        "12136": 209,
        "12137": 119,
        "12138": 161,
        "12139": 145,
        "12140": 146,
        "12141": 9,
        "12142": 110,
        "12143": 177,
        "12144": 230,
        "12145": 155,
        "12146": 114,
        "12147": 121,
        "12148": 174,
        "12149": 41,
        "12150": 196,
        "12151": 250,
        "12152": 16,
        "12153": 245,
        "12154": 139,
        "12155": 191,
        "12156": 90,
        "12157": 51,
        "12158": 73,
        "12159": 165,
        "12160": 115,
        "12161": 83,
        "12162": 236,
        "12163": 230,
        "12164": 221,
        "12165": 125,
        "12166": 92,
        "12167": 194,
        "12168": 110,
        "12169": 203,
        "12170": 138,
        "12171": 42,
        "12172": 127,
        "12173": 135,
        "12174": 17,
        "12175": 172,
        "12176": 48,
        "12177": 85,
        "12178": 97,
        "12179": 223,
        "12180": 186,
        "12181": 137,
        "12182": 94,
        "12183": 36,
        "12184": 163,
        "12185": 23,
        "12186": 114,
        "12187": 176,
        "12188": 106,
        "12189": 119,
        "12190": 127,
        "12191": 106,
        "12192": 215,
        "12193": 189,
        "12194": 42,
        "12195": 54,
        "12196": 145,
        "12197": 37,
        "12198": 25,
        "12199": 41,
        "12200": 215,
        "12201": 50,
        "12202": 174,
        "12203": 157,
        "12204": 94,
        "12205": 141,
        "12206": 176,
        "12207": 59,
        "12208": 250,
        "12209": 128,
        "12210": 47,
        "12211": 169,
        "12212": 242,
        "12213": 120,
        "12214": 252,
        "12215": 35,
        "12216": 56,
        "12217": 142,
        "12218": 179,
        "12219": 240,
        "12220": 106,
        "12221": 125,
        "12222": 205,
        "12223": 57,
        "12224": 154,
        "12225": 28,
        "12226": 246,
        "12227": 182,
        "12228": 205,
        "12229": 246,
        "12230": 184,
        "12231": 92,
        "12232": 170,
        "12233": 136,
        "12234": 113,
        "12235": 209,
        "12236": 40,
        "12237": 0,
        "12238": 138,
        "12239": 216,
        "12240": 92,
        "12241": 204,
        "12242": 78,
        "12243": 90,
        "12244": 122,
        "12245": 29,
        "12246": 128,
        "12247": 132,
        "12248": 178,
        "12249": 146,
        "12250": 88,
        "12251": 39,
        "12252": 253,
        "12253": 165,
        "12254": 40,
        "12255": 230,
        "12256": 179,
        "12257": 206,
        "12258": 28,
        "12259": 84,
        "12260": 175,
        "12261": 133,
        "12262": 117,
        "12263": 69,
        "12264": 233,
        "12265": 28,
        "12266": 251,
        "12267": 254,
        "12268": 130,
        "12269": 153,
        "12270": 58,
        "12271": 229,
        "12272": 207,
        "12273": 144,
        "12274": 71,
        "12275": 208,
        "12276": 192,
        "12277": 223,
        "12278": 147,
        "12279": 38,
        "12280": 15,
        "12281": 24,
        "12282": 164,
        "12283": 61,
        "12284": 89,
        "12285": 46,
        "12286": 247,
        "12287": 186,
        "12288": 202,
        "12289": 165,
        "12290": 102,
        "12291": 240,
        "12292": 167,
        "12293": 141,
        "12294": 19,
        "12295": 59,
        "12296": 27,
        "12297": 46,
        "12298": 212,
        "12299": 88,
        "12300": 189,
        "12301": 247,
        "12302": 50,
        "12303": 127,
        "12304": 73,
        "12305": 199,
        "12306": 42,
        "12307": 1,
        "12308": 170,
        "12309": 47,
        "12310": 41,
        "12311": 102,
        "12312": 9,
        "12313": 27,
        "12314": 123,
        "12315": 163,
        "12316": 204,
        "12317": 52,
        "12318": 176,
        "12319": 170,
        "12320": 236,
        "12321": 68,
        "12322": 51,
        "12323": 239,
        "12324": 252,
        "12325": 19,
        "12326": 53,
        "12327": 179,
        "12328": 99,
        "12329": 185,
        "12330": 173,
        "12331": 88,
        "12332": 46,
        "12333": 190,
        "12334": 55,
        "12335": 22,
        "12336": 155,
        "12337": 192,
        "12338": 227,
        "12339": 220,
        "12340": 16,
        "12341": 23,
        "12342": 38,
        "12343": 107,
        "12344": 20,
        "12345": 57,
        "12346": 104,
        "12347": 41,
        "12348": 205,
        "12349": 45,
        "12350": 122,
        "12351": 114,
        "12352": 230,
        "12353": 44,
        "12354": 136,
        "12355": 80,
        "12356": 79,
        "12357": 94,
        "12358": 109,
        "12359": 190,
        "12360": 217,
        "12361": 7,
        "12362": 26,
        "12363": 46,
        "12364": 41,
        "12365": 66,
        "12366": 45,
        "12367": 109,
        "12368": 108,
        "12369": 242,
        "12370": 243,
        "12371": 155,
        "12372": 59,
        "12373": 197,
        "12374": 27,
        "12375": 193,
        "12376": 212,
        "12377": 169,
        "12378": 193,
        "12379": 93,
        "12380": 1,
        "12381": 201,
        "12382": 216,
        "12383": 148,
        "12384": 170,
        "12385": 192,
        "12386": 59,
        "12387": 39,
        "12388": 241,
        "12389": 0,
        "12390": 52,
        "12391": 181,
        "12392": 159,
        "12393": 193,
        "12394": 104,
        "12395": 58,
        "12396": 97,
        "12397": 189,
        "12398": 56,
        "12399": 42,
        "12400": 224,
        "12401": 94,
        "12402": 14,
        "12403": 221,
        "12404": 173,
        "12405": 155,
        "12406": 174,
        "12407": 72,
        "12408": 60,
        "12409": 49,
        "12410": 205,
        "12411": 74,
        "12412": 213,
        "12413": 37,
        "12414": 205,
        "12415": 247,
        "12416": 45,
        "12417": 54,
        "12418": 46,
        "12419": 222,
        "12420": 201,
        "12421": 67,
        "12422": 68,
        "12423": 32,
        "12424": 100,
        "12425": 133,
        "12426": 62,
        "12427": 81,
        "12428": 240,
        "12429": 234,
        "12430": 195,
        "12431": 4,
        "12432": 165,
        "12433": 53,
        "12434": 101,
        "12435": 133,
        "12436": 117,
        "12437": 56,
        "12438": 53,
        "12439": 213,
        "12440": 125,
        "12441": 22,
        "12442": 155,
        "12443": 103,
        "12444": 125,
        "12445": 41,
        "12446": 184,
        "12447": 239,
        "12448": 139,
        "12449": 42,
        "12450": 155,
        "12451": 106,
        "12452": 25,
        "12453": 134,
        "12454": 58,
        "12455": 72,
        "12456": 31,
        "12457": 212,
        "12458": 105,
        "12459": 181,
        "12460": 100,
        "12461": 164,
        "12462": 17,
        "12463": 164,
        "12464": 254,
        "12465": 218,
        "12466": 113,
        "12467": 163,
        "12468": 184,
        "12469": 225,
        "12470": 28,
        "12471": 48,
        "12472": 150,
        "12473": 247,
        "12474": 185,
        "12475": 4,
        "12476": 244,
        "12477": 60,
        "12478": 95,
        "12479": 117,
        "12480": 63,
        "12481": 255,
        "12482": 90,
        "12483": 194,
        "12484": 156,
        "12485": 249,
        "12486": 193,
        "12487": 58,
        "12488": 59,
        "12489": 56,
        "12490": 49,
        "12491": 144,
        "12492": 62,
        "12493": 24,
        "12494": 127,
        "12495": 37,
        "12496": 105,
        "12497": 196,
        "12498": 178,
        "12499": 158,
        "12500": 81,
        "12501": 189,
        "12502": 180,
        "12503": 166,
        "12504": 139,
        "12505": 231,
        "12506": 243,
        "12507": 63,
        "12508": 242,
        "12509": 21,
        "12510": 74,
        "12511": 32,
        "12512": 227,
        "12513": 168,
        "12514": 91,
        "12515": 132,
        "12516": 251,
        "12517": 213,
        "12518": 21,
        "12519": 79,
        "12520": 214,
        "12521": 1,
        "12522": 10,
        "12523": 56,
        "12524": 106,
        "12525": 110,
        "12526": 235,
        "12527": 72,
        "12528": 91,
        "12529": 160,
        "12530": 244,
        "12531": 221,
        "12532": 76,
        "12533": 36,
        "12534": 141,
        "12535": 130,
        "12536": 78,
        "12537": 240,
        "12538": 34,
        "12539": 205,
        "12540": 67,
        "12541": 192,
        "12542": 255,
        "12543": 77,
        "12544": 247,
        "12545": 92,
        "12546": 250,
        "12547": 255,
        "12548": 201,
        "12549": 216,
        "12550": 58,
        "12551": 192,
        "12552": 210,
        "12553": 186,
        "12554": 40,
        "12555": 175,
        "12556": 145,
        "12557": 156,
        "12558": 189,
        "12559": 213,
        "12560": 15,
        "12561": 153,
        "12562": 47,
        "12563": 101,
        "12564": 26,
        "12565": 213,
        "12566": 195,
        "12567": 219,
        "12568": 50,
        "12569": 205,
        "12570": 57,
        "12571": 244,
        "12572": 237,
        "12573": 157,
        "12574": 43,
        "12575": 124,
        "12576": 21,
        "12577": 31,
        "12578": 209,
        "12579": 176,
        "12580": 178,
        "12581": 101,
        "12582": 151,
        "12583": 97,
        "12584": 191,
        "12585": 172,
        "12586": 138,
        "12587": 255,
        "12588": 138,
        "12589": 54,
        "12590": 172,
        "12591": 86,
        "12592": 152,
        "12593": 214,
        "12594": 123,
        "12595": 50,
        "12596": 146,
        "12597": 96,
        "12598": 123,
        "12599": 59,
        "12600": 115,
        "12601": 172,
        "12602": 208,
        "12603": 113,
        "12604": 155,
        "12605": 208,
        "12606": 115,
        "12607": 40,
        "12608": 249,
        "12609": 219,
        "12610": 183,
        "12611": 234,
        "12612": 225,
        "12613": 59,
        "12614": 219,
        "12615": 70,
        "12616": 125,
        "12617": 253,
        "12618": 123,
        "12619": 40,
        "12620": 179,
        "12621": 60,
        "12622": 168,
        "12623": 1,
        "12624": 171,
        "12625": 71,
        "12626": 91,
        "12627": 82,
        "12628": 143,
        "12629": 10,
        "12630": 202,
        "12631": 242,
        "12632": 13,
        "12633": 106,
        "12634": 153,
        "12635": 16,
        "12636": 249,
        "12637": 53,
        "12638": 26,
        "12639": 137,
        "12640": 35,
        "12641": 47,
        "12642": 88,
        "12643": 116,
        "12644": 46,
        "12645": 42,
        "12646": 138,
        "12647": 127,
        "12648": 38,
        "12649": 204,
        "12650": 175,
        "12651": 201,
        "12652": 135,
        "12653": 107,
        "12654": 208,
        "12655": 68,
        "12656": 23,
        "12657": 16,
        "12658": 131,
        "12659": 142,
        "12660": 115,
        "12661": 116,
        "12662": 47,
        "12663": 65,
        "12664": 43,
        "12665": 130,
        "12666": 230,
        "12667": 171,
        "12668": 209,
        "12669": 190,
        "12670": 124,
        "12671": 5,
        "12672": 151,
        "12673": 81,
        "12674": 242,
        "12675": 21,
        "12676": 100,
        "12677": 106,
        "12678": 37,
        "12679": 62,
        "12680": 251,
        "12681": 96,
        "12682": 253,
        "12683": 174,
        "12684": 153,
        "12685": 152,
        "12686": 41,
        "12687": 4,
        "12688": 218,
        "12689": 114,
        "12690": 226,
        "12691": 130,
        "12692": 201,
        "12693": 33,
        "12694": 128,
        "12695": 218,
        "12696": 9,
        "12697": 160,
        "12698": 168,
        "12699": 214,
        "12700": 106,
        "12701": 182,
        "12702": 56,
        "12703": 110,
        "12704": 236,
        "12705": 51,
        "12706": 88,
        "12707": 167,
        "12708": 191,
        "12709": 138,
        "12710": 111,
        "12711": 6,
        "12712": 123,
        "12713": 162,
        "12714": 190,
        "12715": 157,
        "12716": 87,
        "12717": 94,
        "12718": 243,
        "12719": 39,
        "12720": 77,
        "12721": 111,
        "12722": 234,
        "12723": 200,
        "12724": 220,
        "12725": 184,
        "12726": 42,
        "12727": 50,
        "12728": 3,
        "12729": 123,
        "12730": 124,
        "12731": 237,
        "12732": 78,
        "12733": 218,
        "12734": 219,
        "12735": 94,
        "12736": 61,
        "12737": 68,
        "12738": 92,
        "12739": 42,
        "12740": 149,
        "12741": 134,
        "12742": 174,
        "12743": 247,
        "12744": 199,
        "12745": 155,
        "12746": 129,
        "12747": 31,
        "12748": 222,
        "12749": 114,
        "12750": 11,
        "12751": 169,
        "12752": 208,
        "12753": 51,
        "12754": 154,
        "12755": 221,
        "12756": 228,
        "12757": 127,
        "12758": 189,
        "12759": 240,
        "12760": 218,
        "12761": 46,
        "12762": 92,
        "12763": 149,
        "12764": 88,
        "12765": 246,
        "12766": 220,
        "12767": 170,
        "12768": 184,
        "12769": 79,
        "12770": 11,
        "12771": 24,
        "12772": 57,
        "12773": 50,
        "12774": 67,
        "12775": 69,
        "12776": 238,
        "12777": 11,
        "12778": 184,
        "12779": 159,
        "12780": 233,
        "12781": 159,
        "12782": 226,
        "12783": 199,
        "12784": 205,
        "12785": 92,
        "12786": 113,
        "12787": 32,
        "12788": 47,
        "12789": 56,
        "12790": 161,
        "12791": 205,
        "12792": 149,
        "12793": 91,
        "12794": 113,
        "12795": 233,
        "12796": 127,
        "12797": 224,
        "12798": 59,
        "12799": 69,
        "12800": 123,
        "12801": 225,
        "12802": 212,
        "12803": 184,
        "12804": 85,
        "12805": 133,
        "12806": 111,
        "12807": 77,
        "12808": 29,
        "12809": 168,
        "12810": 243,
        "12811": 232,
        "12812": 152,
        "12813": 178,
        "12814": 64,
        "12815": 36,
        "12816": 3,
        "12817": 201,
        "12818": 174,
        "12819": 79,
        "12820": 79,
        "12821": 217,
        "12822": 211,
        "12823": 16,
        "12824": 246,
        "12825": 251,
        "12826": 96,
        "12827": 111,
        "12828": 17,
        "12829": 71,
        "12830": 58,
        "12831": 91,
        "12832": 128,
        "12833": 138,
        "12834": 96,
        "12835": 153,
        "12836": 126,
        "12837": 163,
        "12838": 27,
        "12839": 51,
        "12840": 0,
        "12841": 185,
        "12842": 23,
        "12843": 212,
        "12844": 126,
        "12845": 2,
        "12846": 129,
        "12847": 11,
        "12848": 255,
        "12849": 114,
        "12850": 54,
        "12851": 114,
        "12852": 34,
        "12853": 234,
        "12854": 76,
        "12855": 109,
        "12856": 221,
        "12857": 149,
        "12858": 20,
        "12859": 45,
        "12860": 227,
        "12861": 202,
        "12862": 28,
        "12863": 220,
        "12864": 125,
        "12865": 3,
        "12866": 101,
        "12867": 201,
        "12868": 237,
        "12869": 49,
        "12870": 207,
        "12871": 4,
        "12872": 53,
        "12873": 164,
        "12874": 52,
        "12875": 184,
        "12876": 5,
        "12877": 101,
        "12878": 133,
        "12879": 253,
        "12880": 41,
        "12881": 191,
        "12882": 190,
        "12883": 186,
        "12884": 16,
        "12885": 98,
        "12886": 185,
        "12887": 28,
        "12888": 232,
        "12889": 132,
        "12890": 211,
        "12891": 131,
        "12892": 232,
        "12893": 240,
        "12894": 48,
        "12895": 214,
        "12896": 122,
        "12897": 75,
        "12898": 81,
        "12899": 92,
        "12900": 57,
        "12901": 28,
        "12902": 145,
        "12903": 188,
        "12904": 217,
        "12905": 209,
        "12906": 238,
        "12907": 121,
        "12908": 9,
        "12909": 232,
        "12910": 115,
        "12911": 165,
        "12912": 95,
        "12913": 19,
        "12914": 120,
        "12915": 240,
        "12916": 104,
        "12917": 126,
        "12918": 243,
        "12919": 44,
        "12920": 23,
        "12921": 51,
        "12922": 213,
        "12923": 186,
        "12924": 224,
        "12925": 8,
        "12926": 233,
        "12927": 235,
        "12928": 214,
        "12929": 7,
        "12930": 239,
        "12931": 31,
        "12932": 222,
        "12933": 230,
        "12934": 46,
        "12935": 240,
        "12936": 202,
        "12937": 248,
        "12938": 147,
        "12939": 79,
        "12940": 222,
        "12941": 153,
        "12942": 181,
        "12943": 214,
        "12944": 9,
        "12945": 27,
        "12946": 67,
        "12947": 226,
        "12948": 176,
        "12949": 151,
        "12950": 64,
        "12951": 202,
        "12952": 164,
        "12953": 255,
        "12954": 164,
        "12955": 215,
        "12956": 36,
        "12957": 63,
        "12958": 243,
        "12959": 216,
        "12960": 185,
        "12961": 249,
        "12962": 88,
        "12963": 201,
        "12964": 118,
        "12965": 225,
        "12966": 147,
        "12967": 165,
        "12968": 111,
        "12969": 30,
        "12970": 100,
        "12971": 92,
        "12972": 31,
        "12973": 195,
        "12974": 235,
        "12975": 157,
        "12976": 160,
        "12977": 57,
        "12978": 186,
        "12979": 14,
        "12980": 14,
        "12981": 227,
        "12982": 255,
        "12983": 221,
        "12984": 122,
        "12985": 128,
        "12986": 39,
        "12987": 155,
        "12988": 170,
        "12989": 132,
        "12990": 207,
        "12991": 158,
        "12992": 37,
        "12993": 110,
        "12994": 120,
        "12995": 2,
        "12996": 24,
        "12997": 44,
        "12998": 187,
        "12999": 99,
        "13000": 169,
        "13001": 49,
        "13002": 6,
        "13003": 176,
        "13004": 177,
        "13005": 92,
        "13006": 9,
        "13007": 2,
        "13008": 228,
        "13009": 106,
        "13010": 8,
        "13011": 241,
        "13012": 31,
        "13013": 124,
        "13014": 98,
        "13015": 95,
        "13016": 95,
        "13017": 160,
        "13018": 68,
        "13019": 18,
        "13020": 133,
        "13021": 8,
        "13022": 100,
        "13023": 177,
        "13024": 26,
        "13025": 166,
        "13026": 223,
        "13027": 221,
        "13028": 122,
        "13029": 241,
        "13030": 166,
        "13031": 240,
        "13032": 9,
        "13033": 19,
        "13034": 35,
        "13035": 226,
        "13036": 131,
        "13037": 104,
        "13038": 121,
        "13039": 230,
        "13040": 65,
        "13041": 216,
        "13042": 11,
        "13043": 249,
        "13044": 181,
        "13045": 120,
        "13046": 141,
        "13047": 121,
        "13048": 85,
        "13049": 221,
        "13050": 253,
        "13051": 27,
        "13052": 128,
        "13053": 219,
        "13054": 19,
        "13055": 4,
        "13056": 234,
        "13057": 230,
        "13058": 161,
        "13059": 107,
        "13060": 54,
        "13061": 28,
        "13062": 59,
        "13063": 224,
        "13064": 133,
        "13065": 103,
        "13066": 189,
        "13067": 235,
        "13068": 77,
        "13069": 173,
        "13070": 100,
        "13071": 150,
        "13072": 200,
        "13073": 37,
        "13074": 129,
        "13075": 188,
        "13076": 69,
        "13077": 59,
        "13078": 99,
        "13079": 128,
        "13080": 227,
        "13081": 148,
        "13082": 84,
        "13083": 202,
        "13084": 152,
        "13085": 97,
        "13086": 230,
        "13087": 195,
        "13088": 202,
        "13089": 27,
        "13090": 85,
        "13091": 157,
        "13092": 125,
        "13093": 199,
        "13094": 193,
        "13095": 181,
        "13096": 163,
        "13097": 83,
        "13098": 189,
        "13099": 27,
        "13100": 160,
        "13101": 242,
        "13102": 237,
        "13103": 92,
        "13104": 158,
        "13105": 75,
        "13106": 204,
        "13107": 54,
        "13108": 139,
        "13109": 133,
        "13110": 59,
        "13111": 121,
        "13112": 151,
        "13113": 152,
        "13114": 249,
        "13115": 207,
        "13116": 220,
        "13117": 197,
        "13118": 65,
        "13119": 251,
        "13120": 207,
        "13121": 181,
        "13122": 250,
        "13123": 83,
        "13124": 43,
        "13125": 74,
        "13126": 204,
        "13127": 38,
        "13128": 160,
        "13129": 201,
        "13130": 25,
        "13131": 165,
        "13132": 93,
        "13133": 50,
        "13134": 184,
        "13135": 241,
        "13136": 196,
        "13137": 128,
        "13138": 98,
        "13139": 6,
        "13140": 230,
        "13141": 55,
        "13142": 253,
        "13143": 60,
        "13144": 89,
        "13145": 221,
        "13146": 61,
        "13147": 160,
        "13148": 208,
        "13149": 115,
        "13150": 166,
        "13151": 124,
        "13152": 202,
        "13153": 106,
        "13154": 46,
        "13155": 154,
        "13156": 58,
        "13157": 224,
        "13158": 202,
        "13159": 140,
        "13160": 86,
        "13161": 41,
        "13162": 247,
        "13163": 104,
        "13164": 66,
        "13165": 79,
        "13166": 186,
        "13167": 240,
        "13168": 139,
        "13169": 75,
        "13170": 202,
        "13171": 57,
        "13172": 50,
        "13173": 216,
        "13174": 223,
        "13175": 248,
        "13176": 7,
        "13177": 246,
        "13178": 21,
        "13179": 172,
        "13180": 25,
        "13181": 138,
        "13182": 113,
        "13183": 214,
        "13184": 92,
        "13185": 128,
        "13186": 34,
        "13187": 118,
        "13188": 145,
        "13189": 54,
        "13190": 180,
        "13191": 105,
        "13192": 228,
        "13193": 239,
        "13194": 219,
        "13195": 150,
        "13196": 147,
        "13197": 131,
        "13198": 94,
        "13199": 201,
        "13200": 210,
        "13201": 113,
        "13202": 245,
        "13203": 210,
        "13204": 92,
        "13205": 209,
        "13206": 86,
        "13207": 28,
        "13208": 59,
        "13209": 111,
        "13210": 54,
        "13211": 240,
        "13212": 170,
        "13213": 228,
        "13214": 177,
        "13215": 90,
        "13216": 216,
        "13217": 137,
        "13218": 141,
        "13219": 234,
        "13220": 61,
        "13221": 10,
        "13222": 251,
        "13223": 179,
        "13224": 58,
        "13225": 173,
        "13226": 77,
        "13227": 137,
        "13228": 217,
        "13229": 99,
        "13230": 16,
        "13231": 78,
        "13232": 233,
        "13233": 18,
        "13234": 60,
        "13235": 185,
        "13236": 222,
        "13237": 141,
        "13238": 39,
        "13239": 150,
        "13240": 17,
        "13241": 29,
        "13242": 131,
        "13243": 139,
        "13244": 218,
        "13245": 56,
        "13246": 208,
        "13247": 14,
        "13248": 113,
        "13249": 226,
        "13250": 190,
        "13251": 43,
        "13252": 108,
        "13253": 204,
        "13254": 9,
        "13255": 19,
        "13256": 65,
        "13257": 138,
        "13258": 12,
        "13259": 50,
        "13260": 109,
        "13261": 165,
        "13262": 152,
        "13263": 29,
        "13264": 19,
        "13265": 121,
        "13266": 145,
        "13267": 79,
        "13268": 125,
        "13269": 49,
        "13270": 104,
        "13271": 213,
        "13272": 73,
        "13273": 125,
        "13274": 232,
        "13275": 171,
        "13276": 158,
        "13277": 88,
        "13278": 126,
        "13279": 181,
        "13280": 219,
        "13281": 95,
        "13282": 54,
        "13283": 132,
        "13284": 17,
        "13285": 30,
        "13286": 53,
        "13287": 166,
        "13288": 54,
        "13289": 240,
        "13290": 98,
        "13291": 130,
        "13292": 27,
        "13293": 48,
        "13294": 27,
        "13295": 159,
        "13296": 2,
        "13297": 223,
        "13298": 237,
        "13299": 83,
        "13300": 50,
        "13301": 241,
        "13302": 207,
        "13303": 54,
        "13304": 57,
        "13305": 49,
        "13306": 181,
        "13307": 144,
        "13308": 144,
        "13309": 72,
        "13310": 62,
        "13311": 178,
        "13312": 158,
        "13313": 94,
        "13314": 185,
        "13315": 184,
        "13316": 125,
        "13317": 234,
        "13318": 177,
        "13319": 173,
        "13320": 47,
        "13321": 171,
        "13322": 162,
        "13323": 195,
        "13324": 14,
        "13325": 122,
        "13326": 134,
        "13327": 255,
        "13328": 2,
        "13329": 203,
        "13330": 161,
        "13331": 67,
        "13332": 198,
        "13333": 132,
        "13334": 29,
        "13335": 205,
        "13336": 92,
        "13337": 178,
        "13338": 25,
        "13339": 242,
        "13340": 131,
        "13341": 50,
        "13342": 186,
        "13343": 248,
        "13344": 253,
        "13345": 84,
        "13346": 201,
        "13347": 35,
        "13348": 224,
        "13349": 184,
        "13350": 211,
        "13351": 12,
        "13352": 206,
        "13353": 114,
        "13354": 235,
        "13355": 36,
        "13356": 126,
        "13357": 106,
        "13358": 116,
        "13359": 176,
        "13360": 108,
        "13361": 182,
        "13362": 102,
        "13363": 146,
        "13364": 216,
        "13365": 99,
        "13366": 154,
        "13367": 38,
        "13368": 72,
        "13369": 138,
        "13370": 139,
        "13371": 109,
        "13372": 195,
        "13373": 20,
        "13374": 87,
        "13375": 32,
        "13376": 226,
        "13377": 181,
        "13378": 5,
        "13379": 9,
        "13380": 130,
        "13381": 88,
        "13382": 167,
        "13383": 105,
        "13384": 244,
        "13385": 243,
        "13386": 98,
        "13387": 80,
        "13388": 138,
        "13389": 24,
        "13390": 228,
        "13391": 67,
        "13392": 114,
        "13393": 87,
        "13394": 57,
        "13395": 114,
        "13396": 66,
        "13397": 193,
        "13398": 8,
        "13399": 161,
        "13400": 143,
        "13401": 196,
        "13402": 135,
        "13403": 84,
        "13404": 159,
        "13405": 31,
        "13406": 7,
        "13407": 120,
        "13408": 68,
        "13409": 19,
        "13410": 9,
        "13411": 194,
        "13412": 170,
        "13413": 90,
        "13414": 214,
        "13415": 40,
        "13416": 30,
        "13417": 38,
        "13418": 76,
        "13419": 95,
        "13420": 154,
        "13421": 169,
        "13422": 231,
        "13423": 167,
        "13424": 54,
        "13425": 212,
        "13426": 173,
        "13427": 173,
        "13428": 167,
        "13429": 25,
        "13430": 170,
        "13431": 45,
        "13432": 88,
        "13433": 9,
        "13434": 187,
        "13435": 234,
        "13436": 195,
        "13437": 15,
        "13438": 116,
        "13439": 251,
        "13440": 87,
        "13441": 202,
        "13442": 138,
        "13443": 127,
        "13444": 83,
        "13445": 23,
        "13446": 116,
        "13447": 190,
        "13448": 58,
        "13449": 161,
        "13450": 141,
        "13451": 35,
        "13452": 171,
        "13453": 165,
        "13454": 26,
        "13455": 58,
        "13456": 56,
        "13457": 237,
        "13458": 98,
        "13459": 192,
        "13460": 58,
        "13461": 107,
        "13462": 96,
        "13463": 11,
        "13464": 42,
        "13465": 125,
        "13466": 231,
        "13467": 57,
        "13468": 230,
        "13469": 143,
        "13470": 61,
        "13471": 64,
        "13472": 105,
        "13473": 231,
        "13474": 48,
        "13475": 129,
        "13476": 195,
        "13477": 202,
        "13478": 191,
        "13479": 242,
        "13480": 143,
        "13481": 67,
        "13482": 171,
        "13483": 9,
        "13484": 174,
        "13485": 21,
        "13486": 242,
        "13487": 40,
        "13488": 184,
        "13489": 142,
        "13490": 2,
        "13491": 182,
        "13492": 114,
        "13493": 224,
        "13494": 253,
        "13495": 194,
        "13496": 210,
        "13497": 207,
        "13498": 194,
        "13499": 243,
        "13500": 140,
        "13501": 37,
        "13502": 232,
        "13503": 87,
        "13504": 16,
        "13505": 27,
        "13506": 45,
        "13507": 114,
        "13508": 151,
        "13509": 156,
        "13510": 41,
        "13511": 149,
        "13512": 244,
        "13513": 184,
        "13514": 255,
        "13515": 49,
        "13516": 55,
        "13517": 173,
        "13518": 53,
        "13519": 5,
        "13520": 158,
        "13521": 51,
        "13522": 68,
        "13523": 187,
        "13524": 181,
        "13525": 207,
        "13526": 66,
        "13527": 99,
        "13528": 68,
        "13529": 172,
        "13530": 181,
        "13531": 233,
        "13532": 171,
        "13533": 27,
        "13534": 247,
        "13535": 33,
        "13536": 18,
        "13537": 56,
        "13538": 30,
        "13539": 33,
        "13540": 13,
        "13541": 251,
        "13542": 169,
        "13543": 103,
        "13544": 235,
        "13545": 132,
        "13546": 236,
        "13547": 39,
        "13548": 173,
        "13549": 46,
        "13550": 75,
        "13551": 12,
        "13552": 124,
        "13553": 214,
        "13554": 53,
        "13555": 82,
        "13556": 23,
        "13557": 238,
        "13558": 58,
        "13559": 189,
        "13560": 54,
        "13561": 207,
        "13562": 6,
        "13563": 151,
        "13564": 206,
        "13565": 195,
        "13566": 245,
        "13567": 73,
        "13568": 202,
        "13569": 51,
        "13570": 126,
        "13571": 49,
        "13572": 198,
        "13573": 182,
        "13574": 202,
        "13575": 92,
        "13576": 29,
        "13577": 13,
        "13578": 60,
        "13579": 163,
        "13580": 69,
        "13581": 148,
        "13582": 185,
        "13583": 181,
        "13584": 181,
        "13585": 104,
        "13586": 101,
        "13587": 77,
        "13588": 77,
        "13589": 249,
        "13590": 60,
        "13591": 37,
        "13592": 200,
        "13593": 63,
        "13594": 169,
        "13595": 254,
        "13596": 189,
        "13597": 112,
        "13598": 176,
        "13599": 146,
        "13600": 78,
        "13601": 87,
        "13602": 20,
        "13603": 35,
        "13604": 140,
        "13605": 87,
        "13606": 181,
        "13607": 95,
        "13608": 16,
        "13609": 132,
        "13610": 235,
        "13611": 169,
        "13612": 85,
        "13613": 189,
        "13614": 177,
        "13615": 31,
        "13616": 155,
        "13617": 240,
        "13618": 141,
        "13619": 66,
        "13620": 61,
        "13621": 174,
        "13622": 228,
        "13623": 115,
        "13624": 220,
        "13625": 153,
        "13626": 6,
        "13627": 148,
        "13628": 21,
        "13629": 100,
        "13630": 43,
        "13631": 10,
        "13632": 161,
        "13633": 103,
        "13634": 3,
        "13635": 121,
        "13636": 200,
        "13637": 6,
        "13638": 237,
        "13639": 197,
        "13640": 84,
        "13641": 130,
        "13642": 198,
        "13643": 230,
        "13644": 131,
        "13645": 236,
        "13646": 130,
        "13647": 182,
        "13648": 157,
        "13649": 45,
        "13650": 218,
        "13651": 46,
        "13652": 180,
        "13653": 173,
        "13654": 130,
        "13655": 221,
        "13656": 122,
        "13657": 79,
        "13658": 104,
        "13659": 108,
        "13660": 212,
        "13661": 86,
        "13662": 24,
        "13663": 217,
        "13664": 212,
        "13665": 97,
        "13666": 51,
        "13667": 183,
        "13668": 135,
        "13669": 71,
        "13670": 191,
        "13671": 238,
        "13672": 150,
        "13673": 67,
        "13674": 249,
        "13675": 115,
        "13676": 109,
        "13677": 46,
        "13678": 161,
        "13679": 31,
        "13680": 174,
        "13681": 153,
        "13682": 44,
        "13683": 182,
        "13684": 235,
        "13685": 189,
        "13686": 1,
        "13687": 152,
        "13688": 136,
        "13689": 66,
        "13690": 141,
        "13691": 165,
        "13692": 153,
        "13693": 108,
        "13694": 95,
        "13695": 213,
        "13696": 55,
        "13697": 75,
        "13698": 44,
        "13699": 48,
        "13700": 168,
        "13701": 230,
        "13702": 179,
        "13703": 209,
        "13704": 47,
        "13705": 45,
        "13706": 178,
        "13707": 24,
        "13708": 60,
        "13709": 126,
        "13710": 59,
        "13711": 176,
        "13712": 53,
        "13713": 196,
        "13714": 33,
        "13715": 238,
        "13716": 60,
        "13717": 12,
        "13718": 219,
        "13719": 35,
        "13720": 77,
        "13721": 209,
        "13722": 140,
        "13723": 17,
        "13724": 54,
        "13725": 209,
        "13726": 80,
        "13727": 106,
        "13728": 73,
        "13729": 152,
        "13730": 50,
        "13731": 34,
        "13732": 0,
        "13733": 141,
        "13734": 44,
        "13735": 225,
        "13736": 42,
        "13737": 26,
        "13738": 93,
        "13739": 34,
        "13740": 203,
        "13741": 78,
        "13742": 226,
        "13743": 201,
        "13744": 93,
        "13745": 9,
        "13746": 213,
        "13747": 196,
        "13748": 41,
        "13749": 82,
        "13750": 213,
        "13751": 108,
        "13752": 87,
        "13753": 65,
        "13754": 187,
        "13755": 46,
        "13756": 86,
        "13757": 120,
        "13758": 231,
        "13759": 87,
        "13760": 125,
        "13761": 143,
        "13762": 116,
        "13763": 95,
        "13764": 210,
        "13765": 4,
        "13766": 23,
        "13767": 193,
        "13768": 32,
        "13769": 58,
        "13770": 21,
        "13771": 173,
        "13772": 131,
        "13773": 138,
        "13774": 233,
        "13775": 77,
        "13776": 41,
        "13777": 124,
        "13778": 159,
        "13779": 247,
        "13780": 158,
        "13781": 195,
        "13782": 46,
        "13783": 44,
        "13784": 30,
        "13785": 43,
        "13786": 233,
        "13787": 48,
        "13788": 77,
        "13789": 208,
        "13790": 158,
        "13791": 124,
        "13792": 235,
        "13793": 131,
        "13794": 239,
        "13795": 212,
        "13796": 52,
        "13797": 187,
        "13798": 78,
        "13799": 27,
        "13800": 1,
        "13801": 153,
        "13802": 208,
        "13803": 188,
        "13804": 93,
        "13805": 245,
        "13806": 136,
        "13807": 127,
        "13808": 83,
        "13809": 159,
        "13810": 37,
        "13811": 171,
        "13812": 67,
        "13813": 22,
        "13814": 164,
        "13815": 134,
        "13816": 247,
        "13817": 202,
        "13818": 28,
        "13819": 131,
        "13820": 7,
        "13821": 227,
        "13822": 139,
        "13823": 3,
        "13824": 249,
        "13825": 13,
        "13826": 35,
        "13827": 124,
        "13828": 12,
        "13829": 176,
        "13830": 246,
        "13831": 139,
        "13832": 121,
        "13833": 93,
        "13834": 240,
        "13835": 223,
        "13836": 214,
        "13837": 146,
        "13838": 225,
        "13839": 244,
        "13840": 63,
        "13841": 2,
        "13842": 219,
        "13843": 220,
        "13844": 185,
        "13845": 32,
        "13846": 60,
        "13847": 44,
        "13848": 231,
        "13849": 68,
        "13850": 42,
        "13851": 200,
        "13852": 207,
        "13853": 59,
        "13854": 155,
        "13855": 161,
        "13856": 150,
        "13857": 190,
        "13858": 95,
        "13859": 169,
        "13860": 198,
        "13861": 194,
        "13862": 182,
        "13863": 232,
        "13864": 30,
        "13865": 100,
        "13866": 31,
        "13867": 29,
        "13868": 118,
        "13869": 202,
        "13870": 17,
        "13871": 113,
        "13872": 70,
        "13873": 149,
        "13874": 196,
        "13875": 217,
        "13876": 139,
        "13877": 149,
        "13878": 76,
        "13879": 249,
        "13880": 176,
        "13881": 251,
        "13882": 184,
        "13883": 72,
        "13884": 6,
        "13885": 8,
        "13886": 66,
        "13887": 126,
        "13888": 31,
        "13889": 193,
        "13890": 0,
        "13891": 110,
        "13892": 85,
        "13893": 58,
        "13894": 233,
        "13895": 87,
        "13896": 239,
        "13897": 206,
        "13898": 224,
        "13899": 157,
        "13900": 221,
        "13901": 18,
        "13902": 26,
        "13903": 243,
        "13904": 220,
        "13905": 231,
        "13906": 168,
        "13907": 88,
        "13908": 95,
        "13909": 147,
        "13910": 232,
        "13911": 186,
        "13912": 184,
        "13913": 36,
        "13914": 228,
        "13915": 144,
        "13916": 148,
        "13917": 2,
        "13918": 163,
        "13919": 41,
        "13920": 65,
        "13921": 82,
        "13922": 233,
        "13923": 219,
        "13924": 208,
        "13925": 37,
        "13926": 235,
        "13927": 211,
        "13928": 93,
        "13929": 123,
        "13930": 137,
        "13931": 218,
        "13932": 150,
        "13933": 75,
        "13934": 61,
        "13935": 151,
        "13936": 210,
        "13937": 97,
        "13938": 61,
        "13939": 204,
        "13940": 218,
        "13941": 62,
        "13942": 57,
        "13943": 145,
        "13944": 120,
        "13945": 182,
        "13946": 217,
        "13947": 159,
        "13948": 165,
        "13949": 155,
        "13950": 219,
        "13951": 3,
        "13952": 209,
        "13953": 232,
        "13954": 128,
        "13955": 223,
        "13956": 187,
        "13957": 24,
        "13958": 144,
        "13959": 74,
        "13960": 127,
        "13961": 238,
        "13962": 82,
        "13963": 151,
        "13964": 9,
        "13965": 180,
        "13966": 38,
        "13967": 59,
        "13968": 43,
        "13969": 105,
        "13970": 102,
        "13971": 248,
        "13972": 209,
        "13973": 148,
        "13974": 108,
        "13975": 30,
        "13976": 175,
        "13977": 121,
        "13978": 115,
        "13979": 103,
        "13980": 64,
        "13981": 153,
        "13982": 216,
        "13983": 210,
        "13984": 194,
        "13985": 164,
        "13986": 55,
        "13987": 227,
        "13988": 37,
        "13989": 6,
        "13990": 206,
        "13991": 1,
        "13992": 171,
        "13993": 1,
        "13994": 74,
        "13995": 53,
        "13996": 17,
        "13997": 229,
        "13998": 160,
        "13999": 158,
        "14000": 158,
        "14001": 27,
        "14002": 94,
        "14003": 140,
        "14004": 84,
        "14005": 37,
        "14006": 14,
        "14007": 132,
        "14008": 106,
        "14009": 3,
        "14010": 104,
        "14011": 17,
        "14012": 213,
        "14013": 175,
        "14014": 130,
        "14015": 116,
        "14016": 198,
        "14017": 14,
        "14018": 194,
        "14019": 64,
        "14020": 119,
        "14021": 5,
        "14022": 241,
        "14023": 88,
        "14024": 227,
        "14025": 189,
        "14026": 199,
        "14027": 111,
        "14028": 139,
        "14029": 192,
        "14030": 221,
        "14031": 139,
        "14032": 92,
        "14033": 152,
        "14034": 252,
        "14035": 75,
        "14036": 212,
        "14037": 88,
        "14038": 107,
        "14039": 91,
        "14040": 156,
        "14041": 250,
        "14042": 237,
        "14043": 97,
        "14044": 227,
        "14045": 51,
        "14046": 135,
        "14047": 15,
        "14048": 10,
        "14049": 126,
        "14050": 113,
        "14051": 126,
        "14052": 252,
        "14053": 175,
        "14054": 151,
        "14055": 97,
        "14056": 83,
        "14057": 216,
        "14058": 221,
        "14059": 43,
        "14060": 99,
        "14061": 183,
        "14062": 182,
        "14063": 248,
        "14064": 66,
        "14065": 77,
        "14066": 52,
        "14067": 24,
        "14068": 132,
        "14069": 76,
        "14070": 14,
        "14071": 235,
        "14072": 8,
        "14073": 227,
        "14074": 183,
        "14075": 14,
        "14076": 139,
        "14077": 236,
        "14078": 236,
        "14079": 158,
        "14080": 46,
        "14081": 206,
        "14082": 252,
        "14083": 228,
        "14084": 208,
        "14085": 196,
        "14086": 128,
        "14087": 232,
        "14088": 53,
        "14089": 187,
        "14090": 28,
        "14091": 205,
        "14092": 74,
        "14093": 154,
        "14094": 180,
        "14095": 17,
        "14096": 145,
        "14097": 118,
        "14098": 216,
        "14099": 49,
        "14100": 158,
        "14101": 5,
        "14102": 216,
        "14103": 119,
        "14104": 246,
        "14105": 72,
        "14106": 47,
        "14107": 185,
        "14108": 10,
        "14109": 43,
        "14110": 233,
        "14111": 105,
        "14112": 31,
        "14113": 68,
        "14114": 139,
        "14115": 250,
        "14116": 238,
        "14117": 138,
        "14118": 64,
        "14119": 254,
        "14120": 133,
        "14121": 230,
        "14122": 176,
        "14123": 114,
        "14124": 68,
        "14125": 146,
        "14126": 174,
        "14127": 233,
        "14128": 148,
        "14129": 93,
        "14130": 59,
        "14131": 147,
        "14132": 132,
        "14133": 94,
        "14134": 192,
        "14135": 35,
        "14136": 255,
        "14137": 13,
        "14138": 187,
        "14139": 16,
        "14140": 107,
        "14141": 149,
        "14142": 172,
        "14143": 183,
        "14144": 26,
        "14145": 101,
        "14146": 7,
        "14147": 73,
        "14148": 112,
        "14149": 229,
        "14150": 90,
        "14151": 3,
        "14152": 37,
        "14153": 65,
        "14154": 99,
        "14155": 225,
        "14156": 204,
        "14157": 128,
        "14158": 95,
        "14159": 146,
        "14160": 106,
        "14161": 247,
        "14162": 11,
        "14163": 139,
        "14164": 251,
        "14165": 112,
        "14166": 120,
        "14167": 8,
        "14168": 206,
        "14169": 172,
        "14170": 8,
        "14171": 241,
        "14172": 240,
        "14173": 255,
        "14174": 108,
        "14175": 43,
        "14176": 166,
        "14177": 97,
        "14178": 180,
        "14179": 199,
        "14180": 125,
        "14181": 217,
        "14182": 191,
        "14183": 210,
        "14184": 243,
        "14185": 165,
        "14186": 147,
        "14187": 247,
        "14188": 175,
        "14189": 234,
        "14190": 69,
        "14191": 225,
        "14192": 206,
        "14193": 61,
        "14194": 216,
        "14195": 115,
        "14196": 114,
        "14197": 212,
        "14198": 41,
        "14199": 165,
        "14200": 157,
        "14201": 220,
        "14202": 151,
        "14203": 243,
        "14204": 25,
        "14205": 15,
        "14206": 4,
        "14207": 163,
        "14208": 163,
        "14209": 202,
        "14210": 187,
        "14211": 204,
        "14212": 133,
        "14213": 79,
        "14214": 249,
        "14215": 217,
        "14216": 207,
        "14217": 228,
        "14218": 18,
        "14219": 78,
        "14220": 158,
        "14221": 44,
        "14222": 214,
        "14223": 63,
        "14224": 162,
        "14225": 92,
        "14226": 45,
        "14227": 77,
        "14228": 95,
        "14229": 19,
        "14230": 221,
        "14231": 96,
        "14232": 99,
        "14233": 21,
        "14234": 253,
        "14235": 229,
        "14236": 71,
        "14237": 129,
        "14238": 63,
        "14239": 33,
        "14240": 85,
        "14241": 179,
        "14242": 87,
        "14243": 218,
        "14244": 54,
        "14245": 205,
        "14246": 129,
        "14247": 119,
        "14248": 37,
        "14249": 51,
        "14250": 137,
        "14251": 147,
        "14252": 153,
        "14253": 119,
        "14254": 163,
        "14255": 29,
        "14256": 146,
        "14257": 161,
        "14258": 161,
        "14259": 25,
        "14260": 241,
        "14261": 224,
        "14262": 33,
        "14263": 7,
        "14264": 142,
        "14265": 223,
        "14266": 215,
        "14267": 93,
        "14268": 217,
        "14269": 102,
        "14270": 212,
        "14271": 73,
        "14272": 84,
        "14273": 214,
        "14274": 157,
        "14275": 106,
        "14276": 59,
        "14277": 172,
        "14278": 107,
        "14279": 63,
        "14280": 162,
        "14281": 44,
        "14282": 130,
        "14283": 174,
        "14284": 160,
        "14285": 41,
        "14286": 183,
        "14287": 218,
        "14288": 175,
        "14289": 253,
        "14290": 121,
        "14291": 13,
        "14292": 11,
        "14293": 240,
        "14294": 2,
        "14295": 134,
        "14296": 15,
        "14297": 98,
        "14298": 214,
        "14299": 113,
        "14300": 64,
        "14301": 28,
        "14302": 229,
        "14303": 254,
        "14304": 69,
        "14305": 125,
        "14306": 101,
        "14307": 180,
        "14308": 112,
        "14309": 99,
        "14310": 239,
        "14311": 89,
        "14312": 196,
        "14313": 239,
        "14314": 12,
        "14315": 108,
        "14316": 198,
        "14317": 137,
        "14318": 224,
        "14319": 79,
        "14320": 29,
        "14321": 204,
        "14322": 108,
        "14323": 202,
        "14324": 245,
        "14325": 242,
        "14326": 9,
        "14327": 40,
        "14328": 9,
        "14329": 53,
        "14330": 54,
        "14331": 52,
        "14332": 26,
        "14333": 244,
        "14334": 121,
        "14335": 237,
        "14336": 141,
        "14337": 90,
        "14338": 183,
        "14339": 233,
        "14340": 74,
        "14341": 211,
        "14342": 115,
        "14343": 6,
        "14344": 215,
        "14345": 230,
        "14346": 28,
        "14347": 173,
        "14348": 237,
        "14349": 31,
        "14350": 49,
        "14351": 147,
        "14352": 74,
        "14353": 220,
        "14354": 118,
        "14355": 166,
        "14356": 4,
        "14357": 241,
        "14358": 214,
        "14359": 206,
        "14360": 180,
        "14361": 168,
        "14362": 213,
        "14363": 72,
        "14364": 242,
        "14365": 42,
        "14366": 80,
        "14367": 75,
        "14368": 31,
        "14369": 96,
        "14370": 102,
        "14371": 170,
        "14372": 174,
        "14373": 151,
        "14374": 161,
        "14375": 38,
        "14376": 117,
        "14377": 208,
        "14378": 137,
        "14379": 97,
        "14380": 63,
        "14381": 170,
        "14382": 191,
        "14383": 134,
        "14384": 126,
        "14385": 137,
        "14386": 26,
        "14387": 248,
        "14388": 52,
        "14389": 183,
        "14390": 112,
        "14391": 123,
        "14392": 7,
        "14393": 133,
        "14394": 51,
        "14395": 192,
        "14396": 39,
        "14397": 85,
        "14398": 250,
        "14399": 170,
        "14400": 255,
        "14401": 72,
        "14402": 182,
        "14403": 163,
        "14404": 150,
        "14405": 178,
        "14406": 142,
        "14407": 65,
        "14408": 161,
        "14409": 156,
        "14410": 161,
        "14411": 235,
        "14412": 119,
        "14413": 23,
        "14414": 244,
        "14415": 86,
        "14416": 192,
        "14417": 80,
        "14418": 235,
        "14419": 33,
        "14420": 249,
        "14421": 32,
        "14422": 118,
        "14423": 44,
        "14424": 60,
        "14425": 102,
        "14426": 113,
        "14427": 79,
        "14428": 243,
        "14429": 237,
        "14430": 73,
        "14431": 21,
        "14432": 174,
        "14433": 234,
        "14434": 139,
        "14435": 55,
        "14436": 42,
        "14437": 20,
        "14438": 15,
        "14439": 70,
        "14440": 74,
        "14441": 42,
        "14442": 84,
        "14443": 245,
        "14444": 126,
        "14445": 94,
        "14446": 46,
        "14447": 216,
        "14448": 226,
        "14449": 249,
        "14450": 77,
        "14451": 121,
        "14452": 2,
        "14453": 228,
        "14454": 116,
        "14455": 125,
        "14456": 33,
        "14457": 199,
        "14458": 26,
        "14459": 234,
        "14460": 61,
        "14461": 52,
        "14462": 44,
        "14463": 166,
        "14464": 134,
        "14465": 214,
        "14466": 126,
        "14467": 44,
        "14468": 125,
        "14469": 80,
        "14470": 58,
        "14471": 87,
        "14472": 13,
        "14473": 85,
        "14474": 87,
        "14475": 9,
        "14476": 199,
        "14477": 99,
        "14478": 193,
        "14479": 214,
        "14480": 90,
        "14481": 252,
        "14482": 57,
        "14483": 207,
        "14484": 152,
        "14485": 57,
        "14486": 33,
        "14487": 120,
        "14488": 247,
        "14489": 220,
        "14490": 137,
        "14491": 138,
        "14492": 79,
        "14493": 66,
        "14494": 125,
        "14495": 223,
        "14496": 74,
        "14497": 65,
        "14498": 193,
        "14499": 49,
        "14500": 7,
        "14501": 202,
        "14502": 180,
        "14503": 61,
        "14504": 102,
        "14505": 202,
        "14506": 73,
        "14507": 172,
        "14508": 75,
        "14509": 167,
        "14510": 37,
        "14511": 52,
        "14512": 236,
        "14513": 49,
        "14514": 171,
        "14515": 223,
        "14516": 211,
        "14517": 79,
        "14518": 232,
        "14519": 119,
        "14520": 226,
        "14521": 97,
        "14522": 237,
        "14523": 52,
        "14524": 117,
        "14525": 122,
        "14526": 129,
        "14527": 249,
        "14528": 92,
        "14529": 125,
        "14530": 28,
        "14531": 34,
        "14532": 117,
        "14533": 95,
        "14534": 230,
        "14535": 252,
        "14536": 108,
        "14537": 120,
        "14538": 156,
        "14539": 229,
        "14540": 60,
        "14541": 31,
        "14542": 242,
        "14543": 212,
        "14544": 21,
        "14545": 140,
        "14546": 205,
        "14547": 124,
        "14548": 4,
        "14549": 63,
        "14550": 21,
        "14551": 123,
        "14552": 90,
        "14553": 134,
        "14554": 125,
        "14555": 96,
        "14556": 214,
        "14557": 143,
        "14558": 196,
        "14559": 253,
        "14560": 87,
        "14561": 169,
        "14562": 227,
        "14563": 222,
        "14564": 25,
        "14565": 191,
        "14566": 238,
        "14567": 152,
        "14568": 12,
        "14569": 198,
        "14570": 157,
        "14571": 240,
        "14572": 32,
        "14573": 3,
        "14574": 62,
        "14575": 143,
        "14576": 129,
        "14577": 160,
        "14578": 41,
        "14579": 241,
        "14580": 160,
        "14581": 72,
        "14582": 235,
        "14583": 123,
        "14584": 196,
        "14585": 83,
        "14586": 43,
        "14587": 145,
        "14588": 25,
        "14589": 237,
        "14590": 40,
        "14591": 114,
        "14592": 63,
        "14593": 93,
        "14594": 230,
        "14595": 27,
        "14596": 165,
        "14597": 47,
        "14598": 118,
        "14599": 94,
        "14600": 166,
        "14601": 151,
        "14602": 158,
        "14603": 84,
        "14604": 81,
        "14605": 31,
        "14606": 215,
        "14607": 206,
        "14608": 227,
        "14609": 214,
        "14610": 21,
        "14611": 13,
        "14612": 213,
        "14613": 189,
        "14614": 21,
        "14615": 120,
        "14616": 210,
        "14617": 101,
        "14618": 127,
        "14619": 75,
        "14620": 196,
        "14621": 131,
        "14622": 86,
        "14623": 103,
        "14624": 80,
        "14625": 172,
        "14626": 41,
        "14627": 207,
        "14628": 141,
        "14629": 104,
        "14630": 86,
        "14631": 78,
        "14632": 230,
        "14633": 138,
        "14634": 72,
        "14635": 84,
        "14636": 240,
        "14637": 111,
        "14638": 146,
        "14639": 205,
        "14640": 218,
        "14641": 226,
        "14642": 140,
        "14643": 173,
        "14644": 188,
        "14645": 6,
        "14646": 160,
        "14647": 130,
        "14648": 131,
        "14649": 20,
        "14650": 85,
        "14651": 22,
        "14652": 140,
        "14653": 32,
        "14654": 215,
        "14655": 71,
        "14656": 36,
        "14657": 160,
        "14658": 84,
        "14659": 7,
        "14660": 140,
        "14661": 203,
        "14662": 32,
        "14663": 67,
        "14664": 164,
        "14665": 206,
        "14666": 47,
        "14667": 162,
        "14668": 27,
        "14669": 227,
        "14670": 85,
        "14671": 236,
        "14672": 60,
        "14673": 76,
        "14674": 13,
        "14675": 140,
        "14676": 158,
        "14677": 18,
        "14678": 103,
        "14679": 13,
        "14680": 117,
        "14681": 177,
        "14682": 221,
        "14683": 136,
        "14684": 143,
        "14685": 59,
        "14686": 251,
        "14687": 188,
        "14688": 87,
        "14689": 243,
        "14690": 144,
        "14691": 184,
        "14692": 108,
        "14693": 145,
        "14694": 32,
        "14695": 159,
        "14696": 118,
        "14697": 6,
        "14698": 240,
        "14699": 89,
        "14700": 173,
        "14701": 7,
        "14702": 192,
        "14703": 179,
        "14704": 251,
        "14705": 98,
        "14706": 7,
        "14707": 149,
        "14708": 50,
        "14709": 74,
        "14710": 171,
        "14711": 200,
        "14712": 146,
        "14713": 120,
        "14714": 229,
        "14715": 178,
        "14716": 122,
        "14717": 133,
        "14718": 76,
        "14719": 236,
        "14720": 208,
        "14721": 144,
        "14722": 54,
        "14723": 120,
        "14724": 54,
        "14725": 180,
        "14726": 241,
        "14727": 95,
        "14728": 126,
        "14729": 52,
        "14730": 65,
        "14731": 87,
        "14732": 141,
        "14733": 181,
        "14734": 45,
        "14735": 157,
        "14736": 85,
        "14737": 52,
        "14738": 169,
        "14739": 254,
        "14740": 199,
        "14741": 193,
        "14742": 203,
        "14743": 181,
        "14744": 198,
        "14745": 250,
        "14746": 100,
        "14747": 183,
        "14748": 47,
        "14749": 105,
        "14750": 138,
        "14751": 85,
        "14752": 98,
        "14753": 240,
        "14754": 142,
        "14755": 249,
        "14756": 248,
        "14757": 12,
        "14758": 80,
        "14759": 237,
        "14760": 216,
        "14761": 210,
        "14762": 32,
        "14763": 235,
        "14764": 108,
        "14765": 17,
        "14766": 67,
        "14767": 219,
        "14768": 120,
        "14769": 131,
        "14770": 238,
        "14771": 19,
        "14772": 165,
        "14773": 154,
        "14774": 75,
        "14775": 120,
        "14776": 135,
        "14777": 30,
        "14778": 208,
        "14779": 68,
        "14780": 23,
        "14781": 241,
        "14782": 118,
        "14783": 156,
        "14784": 95,
        "14785": 3,
        "14786": 222,
        "14787": 81,
        "14788": 224,
        "14789": 156,
        "14790": 38,
        "14791": 181,
        "14792": 17,
        "14793": 250,
        "14794": 3,
        "14795": 27,
        "14796": 198,
        "14797": 129,
        "14798": 172,
        "14799": 5,
        "14800": 91,
        "14801": 203,
        "14802": 190,
        "14803": 28,
        "14804": 221,
        "14805": 154,
        "14806": 14,
        "14807": 19,
        "14808": 17,
        "14809": 25,
        "14810": 81,
        "14811": 144,
        "14812": 31,
        "14813": 165,
        "14814": 134,
        "14815": 140,
        "14816": 2,
        "14817": 229,
        "14818": 253,
        "14819": 226,
        "14820": 199,
        "14821": 191,
        "14822": 77,
        "14823": 203,
        "14824": 3,
        "14825": 104,
        "14826": 93,
        "14827": 100,
        "14828": 218,
        "14829": 200,
        "14830": 249,
        "14831": 245,
        "14832": 128,
        "14833": 10,
        "14834": 70,
        "14835": 51,
        "14836": 20,
        "14837": 13,
        "14838": 224,
        "14839": 234,
        "14840": 158,
        "14841": 4,
        "14842": 231,
        "14843": 218,
        "14844": 51,
        "14845": 241,
        "14846": 184,
        "14847": 151,
        "14848": 161,
        "14849": 102,
        "14850": 13,
        "14851": 24,
        "14852": 7,
        "14853": 186,
        "14854": 77,
        "14855": 77,
        "14856": 242,
        "14857": 0,
        "14858": 119,
        "14859": 143,
        "14860": 203,
        "14861": 74,
        "14862": 148,
        "14863": 8,
        "14864": 80,
        "14865": 141,
        "14866": 84,
        "14867": 255,
        "14868": 210,
        "14869": 208,
        "14870": 12,
        "14871": 79,
        "14872": 87,
        "14873": 97,
        "14874": 228,
        "14875": 133,
        "14876": 81,
        "14877": 37,
        "14878": 152,
        "14879": 67,
        "14880": 17,
        "14881": 71,
        "14882": 138,
        "14883": 51,
        "14884": 141,
        "14885": 112,
        "14886": 65,
        "14887": 4,
        "14888": 120,
        "14889": 252,
        "14890": 242,
        "14891": 47,
        "14892": 141,
        "14893": 12,
        "14894": 98,
        "14895": 56,
        "14896": 89,
        "14897": 230,
        "14898": 226,
        "14899": 110,
        "14900": 34,
        "14901": 84,
        "14902": 26,
        "14903": 18,
        "14904": 83,
        "14905": 91,
        "14906": 92,
        "14907": 238,
        "14908": 200,
        "14909": 241,
        "14910": 120,
        "14911": 93,
        "14912": 253,
        "14913": 233,
        "14914": 255,
        "14915": 53,
        "14916": 66,
        "14917": 108,
        "14918": 52,
        "14919": 180,
        "14920": 204,
        "14921": 169,
        "14922": 84,
        "14923": 239,
        "14924": 26,
        "14925": 117,
        "14926": 34,
        "14927": 45,
        "14928": 218,
        "14929": 199,
        "14930": 42,
        "14931": 94,
        "14932": 189,
        "14933": 210,
        "14934": 200,
        "14935": 58,
        "14936": 84,
        "14937": 181,
        "14938": 241,
        "14939": 159,
        "14940": 185,
        "14941": 85,
        "14942": 240,
        "14943": 132,
        "14944": 156,
        "14945": 222,
        "14946": 234,
        "14947": 27,
        "14948": 7,
        "14949": 165,
        "14950": 41,
        "14951": 241,
        "14952": 46,
        "14953": 184,
        "14954": 183,
        "14955": 42,
        "14956": 253,
        "14957": 171,
        "14958": 75,
        "14959": 233,
        "14960": 106,
        "14961": 0,
        "14962": 122,
        "14963": 59,
        "14964": 125,
        "14965": 152,
        "14966": 239,
        "14967": 34,
        "14968": 232,
        "14969": 165,
        "14970": 173,
        "14971": 111,
        "14972": 183,
        "14973": 139,
        "14974": 148,
        "14975": 167,
        "14976": 27,
        "14977": 204,
        "14978": 195,
        "14979": 189,
        "14980": 150,
        "14981": 45,
        "14982": 254,
        "14983": 225,
        "14984": 239,
        "14985": 54,
        "14986": 230,
        "14987": 217,
        "14988": 146,
        "14989": 156,
        "14990": 48,
        "14991": 211,
        "14992": 198,
        "14993": 5,
        "14994": 61,
        "14995": 8,
        "14996": 189,
        "14997": 113,
        "14998": 147,
        "14999": 67,
        "15000": 137,
        "15001": 196,
        "15002": 74,
        "15003": 44,
        "15004": 26,
        "15005": 74,
        "15006": 75,
        "15007": 220,
        "15008": 53,
        "15009": 182,
        "15010": 22,
        "15011": 215,
        "15012": 158,
        "15013": 72,
        "15014": 100,
        "15015": 166,
        "15016": 155,
        "15017": 108,
        "15018": 16,
        "15019": 74,
        "15020": 254,
        "15021": 96,
        "15022": 220,
        "15023": 142,
        "15024": 198,
        "15025": 206,
        "15026": 94,
        "15027": 190,
        "15028": 178,
        "15029": 109,
        "15030": 116,
        "15031": 253,
        "15032": 228,
        "15033": 82,
        "15034": 206,
        "15035": 6,
        "15036": 247,
        "15037": 41,
        "15038": 26,
        "15039": 24,
        "15040": 92,
        "15041": 35,
        "15042": 225,
        "15043": 67,
        "15044": 154,
        "15045": 228,
        "15046": 28,
        "15047": 25,
        "15048": 22,
        "15049": 126,
        "15050": 193,
        "15051": 137,
        "15052": 82,
        "15053": 129,
        "15054": 7,
        "15055": 157,
        "15056": 8,
        "15057": 121,
        "15058": 44,
        "15059": 2,
        "15060": 70,
        "15061": 46,
        "15062": 2,
        "15063": 202,
        "15064": 50,
        "15065": 183,
        "15066": 148,
        "15067": 41,
        "15068": 93,
        "15069": 13,
        "15070": 178,
        "15071": 233,
        "15072": 27,
        "15073": 25,
        "15074": 110,
        "15075": 67,
        "15076": 226,
        "15077": 170,
        "15078": 19,
        "15079": 107,
        "15080": 247,
        "15081": 202,
        "15082": 220,
        "15083": 57,
        "15084": 91,
        "15085": 177,
        "15086": 42,
        "15087": 205,
        "15088": 237,
        "15089": 129,
        "15090": 192,
        "15091": 28,
        "15092": 209,
        "15093": 42,
        "15094": 126,
        "15095": 81,
        "15096": 128,
        "15097": 134,
        "15098": 228,
        "15099": 160,
        "15100": 115,
        "15101": 169,
        "15102": 31,
        "15103": 172,
        "15104": 64,
        "15105": 231,
        "15106": 22,
        "15107": 211,
        "15108": 63,
        "15109": 147,
        "15110": 55,
        "15111": 181,
        "15112": 65,
        "15113": 136,
        "15114": 191,
        "15115": 108,
        "15116": 206,
        "15117": 71,
        "15118": 231,
        "15119": 85,
        "15120": 71,
        "15121": 190,
        "15122": 160,
        "15123": 10,
        "15124": 229,
        "15125": 62,
        "15126": 215,
        "15127": 216,
        "15128": 86,
        "15129": 50,
        "15130": 136,
        "15131": 13,
        "15132": 1,
        "15133": 208,
        "15134": 76,
        "15135": 195,
        "15136": 82,
        "15137": 158,
        "15138": 29,
        "15139": 150,
        "15140": 129,
        "15141": 17,
        "15142": 69,
        "15143": 144,
        "15144": 200,
        "15145": 161,
        "15146": 117,
        "15147": 211,
        "15148": 245,
        "15149": 106,
        "15150": 82,
        "15151": 128,
        "15152": 97,
        "15153": 240,
        "15154": 99,
        "15155": 145,
        "15156": 195,
        "15157": 55,
        "15158": 167,
        "15159": 182,
        "15160": 52,
        "15161": 194,
        "15162": 212,
        "15163": 139,
        "15164": 7,
        "15165": 214,
        "15166": 185,
        "15167": 91,
        "15168": 12,
        "15169": 206,
        "15170": 127,
        "15171": 60,
        "15172": 220,
        "15173": 223,
        "15174": 159,
        "15175": 75,
        "15176": 146,
        "15177": 149,
        "15178": 91,
        "15179": 7,
        "15180": 23,
        "15181": 160,
        "15182": 220,
        "15183": 80,
        "15184": 11,
        "15185": 234,
        "15186": 224,
        "15187": 4,
        "15188": 128,
        "15189": 1,
        "15190": 238,
        "15191": 87,
        "15192": 146,
        "15193": 123,
        "15194": 14,
        "15195": 19,
        "15196": 49,
        "15197": 226,
        "15198": 190,
        "15199": 0,
        "15200": 243,
        "15201": 135,
        "15202": 199,
        "15203": 165,
        "15204": 27,
        "15205": 236,
        "15206": 170,
        "15207": 13,
        "15208": 46,
        "15209": 0,
        "15210": 137,
        "15211": 18,
        "15212": 91,
        "15213": 126,
        "15214": 1,
        "15215": 194,
        "15216": 237,
        "15217": 0,
        "15218": 76,
        "15219": 12,
        "15220": 102,
        "15221": 148,
        "15222": 209,
        "15223": 5,
        "15224": 157,
        "15225": 188,
        "15226": 161,
        "15227": 11,
        "15228": 148,
        "15229": 28,
        "15230": 192,
        "15231": 240,
        "15232": 171,
        "15233": 136,
        "15234": 28,
        "15235": 43,
        "15236": 75,
        "15237": 23,
        "15238": 173,
        "15239": 95,
        "15240": 111,
        "15241": 159,
        "15242": 161,
        "15243": 43,
        "15244": 87,
        "15245": 36,
        "15246": 181,
        "15247": 24,
        "15248": 7,
        "15249": 82,
        "15250": 209,
        "15251": 236,
        "15252": 143,
        "15253": 28,
        "15254": 28,
        "15255": 222,
        "15256": 166,
        "15257": 64,
        "15258": 73,
        "15259": 137,
        "15260": 169,
        "15261": 246,
        "15262": 51,
        "15263": 198,
        "15264": 166,
        "15265": 93,
        "15266": 168,
        "15267": 30,
        "15268": 229,
        "15269": 27,
        "15270": 218,
        "15271": 12,
        "15272": 235,
        "15273": 252,
        "15274": 80,
        "15275": 78,
        "15276": 176,
        "15277": 96,
        "15278": 4,
        "15279": 165,
        "15280": 211,
        "15281": 238,
        "15282": 126,
        "15283": 63,
        "15284": 174,
        "15285": 98,
        "15286": 228,
        "15287": 165,
        "15288": 49,
        "15289": 182,
        "15290": 8,
        "15291": 181,
        "15292": 143,
        "15293": 208,
        "15294": 184,
        "15295": 215,
        "15296": 118,
        "15297": 130,
        "15298": 103,
        "15299": 20,
        "15300": 238,
        "15301": 115,
        "15302": 224,
        "15303": 237,
        "15304": 78,
        "15305": 95,
        "15306": 228,
        "15307": 212,
        "15308": 197,
        "15309": 166,
        "15310": 142,
        "15311": 251,
        "15312": 72,
        "15313": 187,
        "15314": 112,
        "15315": 221,
        "15316": 56,
        "15317": 19,
        "15318": 159,
        "15319": 151,
        "15320": 100,
        "15321": 128,
        "15322": 17,
        "15323": 64,
        "15324": 163,
        "15325": 215,
        "15326": 116,
        "15327": 235,
        "15328": 150,
        "15329": 212,
        "15330": 216,
        "15331": 3,
        "15332": 215,
        "15333": 170,
        "15334": 255,
        "15335": 214,
        "15336": 6,
        "15337": 32,
        "15338": 22,
        "15339": 23,
        "15340": 97,
        "15341": 98,
        "15342": 25,
        "15343": 111,
        "15344": 233,
        "15345": 145,
        "15346": 104,
        "15347": 1,
        "15348": 21,
        "15349": 187,
        "15350": 164,
        "15351": 136,
        "15352": 10,
        "15353": 34,
        "15354": 174,
        "15355": 25,
        "15356": 36,
        "15357": 189,
        "15358": 127,
        "15359": 66,
        "15360": 106,
        "15361": 27,
        "15362": 245,
        "15363": 181,
        "15364": 193,
        "15365": 203,
        "15366": 33,
        "15367": 157,
        "15368": 55,
        "15369": 169,
        "15370": 28,
        "15371": 245,
        "15372": 175,
        "15373": 154,
        "15374": 112,
        "15375": 97,
        "15376": 222,
        "15377": 118,
        "15378": 26,
        "15379": 165,
        "15380": 239,
        "15381": 83,
        "15382": 185,
        "15383": 60,
        "15384": 67,
        "15385": 83,
        "15386": 224,
        "15387": 95,
        "15388": 110,
        "15389": 73,
        "15390": 123,
        "15391": 191,
        "15392": 216,
        "15393": 90,
        "15394": 200,
        "15395": 174,
        "15396": 159,
        "15397": 202,
        "15398": 6,
        "15399": 95,
        "15400": 91,
        "15401": 196,
        "15402": 31,
        "15403": 100,
        "15404": 112,
        "15405": 170,
        "15406": 181,
        "15407": 161,
        "15408": 104,
        "15409": 233,
        "15410": 10,
        "15411": 126,
        "15412": 99,
        "15413": 51,
        "15414": 49,
        "15415": 87,
        "15416": 78,
        "15417": 195,
        "15418": 112,
        "15419": 37,
        "15420": 28,
        "15421": 188,
        "15422": 12,
        "15423": 25,
        "15424": 28,
        "15425": 245,
        "15426": 36,
        "15427": 248,
        "15428": 94,
        "15429": 116,
        "15430": 52,
        "15431": 213,
        "15432": 234,
        "15433": 179,
        "15434": 13,
        "15435": 37,
        "15436": 46,
        "15437": 172,
        "15438": 47,
        "15439": 133,
        "15440": 207,
        "15441": 9,
        "15442": 91,
        "15443": 169,
        "15444": 176,
        "15445": 65,
        "15446": 197,
        "15447": 16,
        "15448": 75,
        "15449": 147,
        "15450": 28,
        "15451": 58,
        "15452": 40,
        "15453": 186,
        "15454": 184,
        "15455": 251,
        "15456": 251,
        "15457": 240,
        "15458": 16,
        "15459": 232,
        "15460": 241,
        "15461": 25,
        "15462": 18,
        "15463": 97,
        "15464": 204,
        "15465": 72,
        "15466": 91,
        "15467": 30,
        "15468": 146,
        "15469": 14,
        "15470": 24,
        "15471": 24,
        "15472": 18,
        "15473": 241,
        "15474": 209,
        "15475": 128,
        "15476": 24,
        "15477": 45,
        "15478": 128,
        "15479": 150,
        "15480": 169,
        "15481": 94,
        "15482": 36,
        "15483": 11,
        "15484": 93,
        "15485": 195,
        "15486": 212,
        "15487": 231,
        "15488": 67,
        "15489": 182,
        "15490": 153,
        "15491": 126,
        "15492": 0,
        "15493": 2,
        "15494": 174,
        "15495": 61,
        "15496": 158,
        "15497": 91,
        "15498": 246,
        "15499": 18,
        "15500": 25,
        "15501": 43,
        "15502": 140,
        "15503": 84,
        "15504": 43,
        "15505": 2,
        "15506": 186,
        "15507": 140,
        "15508": 68,
        "15509": 103,
        "15510": 91,
        "15511": 52,
        "15512": 64,
        "15513": 87,
        "15514": 248,
        "15515": 19,
        "15516": 202,
        "15517": 222,
        "15518": 157,
        "15519": 35,
        "15520": 76,
        "15521": 102,
        "15522": 54,
        "15523": 89,
        "15524": 139,
        "15525": 168,
        "15526": 41,
        "15527": 122,
        "15528": 186,
        "15529": 30,
        "15530": 4,
        "15531": 97,
        "15532": 155,
        "15533": 110,
        "15534": 220,
        "15535": 63,
        "15536": 78,
        "15537": 253,
        "15538": 224,
        "15539": 162,
        "15540": 40,
        "15541": 252,
        "15542": 20,
        "15543": 16,
        "15544": 145,
        "15545": 50,
        "15546": 6,
        "15547": 106,
        "15548": 1,
        "15549": 68,
        "15550": 159,
        "15551": 82,
        "15552": 177,
        "15553": 147,
        "15554": 9,
        "15555": 251,
        "15556": 121,
        "15557": 132,
        "15558": 24,
        "15559": 118,
        "15560": 156,
        "15561": 187,
        "15562": 53,
        "15563": 209,
        "15564": 118,
        "15565": 131,
        "15566": 111,
        "15567": 195,
        "15568": 243,
        "15569": 58,
        "15570": 99,
        "15571": 131,
        "15572": 69,
        "15573": 174,
        "15574": 237,
        "15575": 143,
        "15576": 185,
        "15577": 244,
        "15578": 132,
        "15579": 198,
        "15580": 229,
        "15581": 173,
        "15582": 226,
        "15583": 102,
        "15584": 17,
        "15585": 187,
        "15586": 163,
        "15587": 243,
        "15588": 101,
        "15589": 194,
        "15590": 85,
        "15591": 132,
        "15592": 150,
        "15593": 254,
        "15594": 121,
        "15595": 69,
        "15596": 192,
        "15597": 134,
        "15598": 53,
        "15599": 246,
        "15600": 172,
        "15601": 70,
        "15602": 134,
        "15603": 160,
        "15604": 91,
        "15605": 64,
        "15606": 197,
        "15607": 122,
        "15608": 17,
        "15609": 164,
        "15610": 16,
        "15611": 95,
        "15612": 129,
        "15613": 174,
        "15614": 197,
        "15615": 78,
        "15616": 161,
        "15617": 42,
        "15618": 241,
        "15619": 50,
        "15620": 38,
        "15621": 203,
        "15622": 232,
        "15623": 104,
        "15624": 81,
        "15625": 29,
        "15626": 153,
        "15627": 245,
        "15628": 194,
        "15629": 211,
        "15630": 55,
        "15631": 158,
        "15632": 40,
        "15633": 96,
        "15634": 185,
        "15635": 237,
        "15636": 152,
        "15637": 7,
        "15638": 225,
        "15639": 112,
        "15640": 41,
        "15641": 175,
        "15642": 214,
        "15643": 16,
        "15644": 137,
        "15645": 211,
        "15646": 175,
        "15647": 191,
        "15648": 91,
        "15649": 34,
        "15650": 108,
        "15651": 161,
        "15652": 97,
        "15653": 105,
        "15654": 144,
        "15655": 239,
        "15656": 244,
        "15657": 24,
        "15658": 131,
        "15659": 234,
        "15660": 108,
        "15661": 1,
        "15662": 117,
        "15663": 81,
        "15664": 132,
        "15665": 161,
        "15666": 164,
        "15667": 222,
        "15668": 196,
        "15669": 22,
        "15670": 212,
        "15671": 220,
        "15672": 162,
        "15673": 187,
        "15674": 234,
        "15675": 235,
        "15676": 99,
        "15677": 172,
        "15678": 230,
        "15679": 179,
        "15680": 156,
        "15681": 227,
        "15682": 186,
        "15683": 177,
        "15684": 223,
        "15685": 41,
        "15686": 17,
        "15687": 169,
        "15688": 158,
        "15689": 250,
        "15690": 163,
        "15691": 207,
        "15692": 222,
        "15693": 48,
        "15694": 184,
        "15695": 70,
        "15696": 198,
        "15697": 190,
        "15698": 125,
        "15699": 239,
        "15700": 248,
        "15701": 119,
        "15702": 92,
        "15703": 182,
        "15704": 249,
        "15705": 99,
        "15706": 168,
        "15707": 70,
        "15708": 166,
        "15709": 66,
        "15710": 204,
        "15711": 188,
        "15712": 100,
        "15713": 46,
        "15714": 90,
        "15715": 90,
        "15716": 7,
        "15717": 166,
        "15718": 210,
        "15719": 93,
        "15720": 103,
        "15721": 215,
        "15722": 33,
        "15723": 194,
        "15724": 178,
        "15725": 83,
        "15726": 44,
        "15727": 99,
        "15728": 164,
        "15729": 75,
        "15730": 235,
        "15731": 214,
        "15732": 234,
        "15733": 94,
        "15734": 53,
        "15735": 212,
        "15736": 72,
        "15737": 253,
        "15738": 210,
        "15739": 52,
        "15740": 175,
        "15741": 102,
        "15742": 17,
        "15743": 210,
        "15744": 238,
        "15745": 14,
        "15746": 24,
        "15747": 4,
        "15748": 165,
        "15749": 241,
        "15750": 243,
        "15751": 136,
        "15752": 218,
        "15753": 245,
        "15754": 38,
        "15755": 204,
        "15756": 81,
        "15757": 24,
        "15758": 155,
        "15759": 24,
        "15760": 148,
        "15761": 230,
        "15762": 101,
        "15763": 157,
        "15764": 52,
        "15765": 228,
        "15766": 186,
        "15767": 159,
        "15768": 0,
        "15769": 157,
        "15770": 188,
        "15771": 106,
        "15772": 169,
        "15773": 65,
        "15774": 43,
        "15775": 101,
        "15776": 203,
        "15777": 0,
        "15778": 33,
        "15779": 123,
        "15780": 136,
        "15781": 165,
        "15782": 208,
        "15783": 81,
        "15784": 216,
        "15785": 13,
        "15786": 24,
        "15787": 158,
        "15788": 163,
        "15789": 96,
        "15790": 236,
        "15791": 193,
        "15792": 130,
        "15793": 165,
        "15794": 25,
        "15795": 169,
        "15796": 228,
        "15797": 2,
        "15798": 222,
        "15799": 199,
        "15800": 105,
        "15801": 238,
        "15802": 95,
        "15803": 47,
        "15804": 23,
        "15805": 227,
        "15806": 23,
        "15807": 234,
        "15808": 119,
        "15809": 125,
        "15810": 196,
        "15811": 100,
        "15812": 138,
        "15813": 110,
        "15814": 179,
        "15815": 156,
        "15816": 102,
        "15817": 162,
        "15818": 161,
        "15819": 231,
        "15820": 177,
        "15821": 71,
        "15822": 64,
        "15823": 73,
        "15824": 42,
        "15825": 93,
        "15826": 237,
        "15827": 112,
        "15828": 164,
        "15829": 79,
        "15830": 81,
        "15831": 218,
        "15832": 84,
        "15833": 187,
        "15834": 185,
        "15835": 163,
        "15836": 222,
        "15837": 38,
        "15838": 46,
        "15839": 251,
        "15840": 175,
        "15841": 247,
        "15842": 0,
        "15843": 255,
        "15844": 124,
        "15845": 124,
        "15846": 14,
        "15847": 23,
        "15848": 176,
        "15849": 71,
        "15850": 204,
        "15851": 193,
        "15852": 222,
        "15853": 191,
        "15854": 245,
        "15855": 74,
        "15856": 253,
        "15857": 174,
        "15858": 253,
        "15859": 35,
        "15860": 20,
        "15861": 232,
        "15862": 172,
        "15863": 201,
        "15864": 86,
        "15865": 72,
        "15866": 70,
        "15867": 154,
        "15868": 135,
        "15869": 171,
        "15870": 90,
        "15871": 216,
        "15872": 209,
        "15873": 131,
        "15874": 141,
        "15875": 254,
        "15876": 95,
        "15877": 26,
        "15878": 133,
        "15879": 104,
        "15880": 44,
        "15881": 203,
        "15882": 218,
        "15883": 74,
        "15884": 170,
        "15885": 236,
        "15886": 228,
        "15887": 179,
        "15888": 147,
        "15889": 57,
        "15890": 141,
        "15891": 165,
        "15892": 205,
        "15893": 66,
        "15894": 86,
        "15895": 84,
        "15896": 19,
        "15897": 216,
        "15898": 227,
        "15899": 209,
        "15900": 7,
        "15901": 91,
        "15902": 34,
        "15903": 231,
        "15904": 50,
        "15905": 166,
        "15906": 77,
        "15907": 157,
        "15908": 35,
        "15909": 111,
        "15910": 31,
        "15911": 156,
        "15912": 250,
        "15913": 209,
        "15914": 90,
        "15915": 89,
        "15916": 65,
        "15917": 110,
        "15918": 176,
        "15919": 93,
        "15920": 119,
        "15921": 110,
        "15922": 248,
        "15923": 11,
        "15924": 92,
        "15925": 196,
        "15926": 204,
        "15927": 52,
        "15928": 152,
        "15929": 219,
        "15930": 58,
        "15931": 36,
        "15932": 44,
        "15933": 142,
        "15934": 204,
        "15935": 80,
        "15936": 216,
        "15937": 188,
        "15938": 233,
        "15939": 242,
        "15940": 113,
        "15941": 46,
        "15942": 29,
        "15943": 122,
        "15944": 249,
        "15945": 163,
        "15946": 116,
        "15947": 222,
        "15948": 69,
        "15949": 163,
        "15950": 207,
        "15951": 187,
        "15952": 191,
        "15953": 171,
        "15954": 42,
        "15955": 122,
        "15956": 41,
        "15957": 163,
        "15958": 244,
        "15959": 128,
        "15960": 63,
        "15961": 210,
        "15962": 71,
        "15963": 23,
        "15964": 47,
        "15965": 12,
        "15966": 69,
        "15967": 145,
        "15968": 189,
        "15969": 133,
        "15970": 222,
        "15971": 207,
        "15972": 7,
        "15973": 10,
        "15974": 150,
        "15975": 156,
        "15976": 81,
        "15977": 127,
        "15978": 148,
        "15979": 113,
        "15980": 105,
        "15981": 33,
        "15982": 107,
        "15983": 111,
        "15984": 181,
        "15985": 188,
        "15986": 228,
        "15987": 226,
        "15988": 239,
        "15989": 243,
        "15990": 214,
        "15991": 139,
        "15992": 227,
        "15993": 129,
        "15994": 112,
        "15995": 145,
        "15996": 209,
        "15997": 86,
        "15998": 55,
        "15999": 8,
        "16000": 130,
        "16001": 51,
        "16002": 124,
        "16003": 223,
        "16004": 214,
        "16005": 205,
        "16006": 16,
        "16007": 215,
        "16008": 37,
        "16009": 8,
        "16010": 177,
        "16011": 249,
        "16012": 47,
        "16013": 208,
        "16014": 136,
        "16015": 153,
        "16016": 187,
        "16017": 229,
        "16018": 218,
        "16019": 73,
        "16020": 46,
        "16021": 140,
        "16022": 97,
        "16023": 83,
        "16024": 18,
        "16025": 88,
        "16026": 51,
        "16027": 129,
        "16028": 198,
        "16029": 223,
        "16030": 163,
        "16031": 71,
        "16032": 14,
        "16033": 190,
        "16034": 36,
        "16035": 230,
        "16036": 4,
        "16037": 46,
        "16038": 168,
        "16039": 15,
        "16040": 218,
        "16041": 156,
        "16042": 181,
        "16043": 51,
        "16044": 89,
        "16045": 221,
        "16046": 95,
        "16047": 87,
        "16048": 183,
        "16049": 67,
        "16050": 53,
        "16051": 94,
        "16052": 224,
        "16053": 223,
        "16054": 13,
        "16055": 21,
        "16056": 6,
        "16057": 137,
        "16058": 139,
        "16059": 105,
        "16060": 185,
        "16061": 241,
        "16062": 250,
        "16063": 89,
        "16064": 210,
        "16065": 222,
        "16066": 179,
        "16067": 89,
        "16068": 154,
        "16069": 217,
        "16070": 103,
        "16071": 143,
        "16072": 80,
        "16073": 11,
        "16074": 14,
        "16075": 221,
        "16076": 201,
        "16077": 200,
        "16078": 198,
        "16079": 8,
        "16080": 206,
        "16081": 187,
        "16082": 112,
        "16083": 167,
        "16084": 30,
        "16085": 223,
        "16086": 157,
        "16087": 45,
        "16088": 149,
        "16089": 55,
        "16090": 155,
        "16091": 59,
        "16092": 245,
        "16093": 242,
        "16094": 92,
        "16095": 159,
        "16096": 78,
        "16097": 23,
        "16098": 57,
        "16099": 1,
        "16100": 167,
        "16101": 67,
        "16102": 110,
        "16103": 191,
        "16104": 240,
        "16105": 7,
        "16106": 87,
        "16107": 111,
        "16108": 50,
        "16109": 32,
        "16110": 85,
        "16111": 225,
        "16112": 194,
        "16113": 166,
        "16114": 60,
        "16115": 71,
        "16116": 132,
        "16117": 239,
        "16118": 72,
        "16119": 151,
        "16120": 37,
        "16121": 192,
        "16122": 9,
        "16123": 219,
        "16124": 11,
        "16125": 219,
        "16126": 98,
        "16127": 70,
        "16128": 221,
        "16129": 41,
        "16130": 253,
        "16131": 90,
        "16132": 208,
        "16133": 152,
        "16134": 189,
        "16135": 3,
        "16136": 221,
        "16137": 187,
        "16138": 3,
        "16139": 177,
        "16140": 40,
        "16141": 217,
        "16142": 145,
        "16143": 8,
        "16144": 74,
        "16145": 131,
        "16146": 229,
        "16147": 12,
        "16148": 51,
        "16149": 33,
        "16150": 74,
        "16151": 228,
        "16152": 162,
        "16153": 20,
        "16154": 55,
        "16155": 52,
        "16156": 190,
        "16157": 10,
        "16158": 50,
        "16159": 67,
        "16160": 147,
        "16161": 112,
        "16162": 30,
        "16163": 203,
        "16164": 170,
        "16165": 64,
        "16166": 234,
        "16167": 180,
        "16168": 237,
        "16169": 104,
        "16170": 236,
        "16171": 63,
        "16172": 173,
        "16173": 231,
        "16174": 184,
        "16175": 55,
        "16176": 123,
        "16177": 181,
        "16178": 200,
        "16179": 157,
        "16180": 42,
        "16181": 241,
        "16182": 43,
        "16183": 117,
        "16184": 116,
        "16185": 190,
        "16186": 200,
        "16187": 246,
        "16188": 82,
        "16189": 239,
        "16190": 213,
        "16191": 50,
        "16192": 71,
        "16193": 179,
        "16194": 135,
        "16195": 57,
        "16196": 241,
        "16197": 158,
        "16198": 112,
        "16199": 219,
        "16200": 105,
        "16201": 160,
        "16202": 11,
        "16203": 104,
        "16204": 211,
        "16205": 212,
        "16206": 45,
        "16207": 121,
        "16208": 185,
        "16209": 26,
        "16210": 250,
        "16211": 122,
        "16212": 38,
        "16213": 62,
        "16214": 243,
        "16215": 151,
        "16216": 146,
        "16217": 104,
        "16218": 223,
        "16219": 74,
        "16220": 163,
        "16221": 211,
        "16222": 93,
        "16223": 71,
        "16224": 94,
        "16225": 105,
        "16226": 37,
        "16227": 244,
        "16228": 173,
        "16229": 116,
        "16230": 4,
        "16231": 93,
        "16232": 18,
        "16233": 141,
        "16234": 53,
        "16235": 202,
        "16236": 252,
        "16237": 76,
        "16238": 212,
        "16239": 82,
        "16240": 62,
        "16241": 176,
        "16242": 186,
        "16243": 213,
        "16244": 75,
        "16245": 2,
        "16246": 175,
        "16247": 15,
        "16248": 88,
        "16249": 123,
        "16250": 127,
        "16251": 129,
        "16252": 60,
        "16253": 196,
        "16254": 101,
        "16255": 188,
        "16256": 174,
        "16257": 24,
        "16258": 123,
        "16259": 136,
        "16260": 192,
        "16261": 50,
        "16262": 47,
        "16263": 103,
        "16264": 209,
        "16265": 217,
        "16266": 21,
        "16267": 74,
        "16268": 142,
        "16269": 151,
        "16270": 85,
        "16271": 255,
        "16272": 138,
        "16273": 159,
        "16274": 159,
        "16275": 32,
        "16276": 72,
        "16277": 45,
        "16278": 153,
        "16279": 197,
        "16280": 0,
        "16281": 55,
        "16282": 58,
        "16283": 191,
        "16284": 87,
        "16285": 176,
        "16286": 69,
        "16287": 209,
        "16288": 198,
        "16289": 24,
        "16290": 88,
        "16291": 198,
        "16292": 106,
        "16293": 201,
        "16294": 94,
        "16295": 60,
        "16296": 30,
        "16297": 33,
        "16298": 170,
        "16299": 166,
        "16300": 201,
        "16301": 155,
        "16302": 71,
        "16303": 217,
        "16304": 141,
        "16305": 179,
        "16306": 231,
        "16307": 150,
        "16308": 163,
        "16309": 131,
        "16310": 172,
        "16311": 79,
        "16312": 157,
        "16313": 67,
        "16314": 215,
        "16315": 53,
        "16316": 17,
        "16317": 170,
        "16318": 204,
        "16319": 19,
        "16320": 181,
        "16321": 5,
        "16322": 141,
        "16323": 26,
        "16324": 71,
        "16325": 179,
        "16326": 226,
        "16327": 0,
        "16328": 184,
        "16329": 172,
        "16330": 152,
        "16331": 75,
        "16332": 255,
        "16333": 73,
        "16334": 215,
        "16335": 33,
        "16336": 254,
        "16337": 228,
        "16338": 141,
        "16339": 237,
        "16340": 255,
        "16341": 27,
        "16342": 117,
        "16343": 108,
        "16344": 9,
        "16345": 254,
        "16346": 237,
        "16347": 61,
        "16348": 48,
        "16349": 69,
        "16350": 118,
        "16351": 135,
        "16352": 9,
        "16353": 252,
        "16354": 16,
        "16355": 123,
        "16356": 178,
        "16357": 95,
        "16358": 253,
        "16359": 194,
        "16360": 177,
        "16361": 0,
        "16362": 231,
        "16363": 1,
        "16364": 162,
        "16365": 74,
        "16366": 65,
        "16367": 7,
        "16368": 253,
        "16369": 173,
        "16370": 223,
        "16371": 124,
        "16372": 76,
        "16373": 28,
        "16374": 192,
        "16375": 148,
        "16376": 78,
        "16377": 246,
        "16378": 194,
        "16379": 231,
        "16380": 9,
        "16381": 1,
        "16382": 187,
        "16383": 201,
        "16384": 201,
        "16385": 77,
        "16386": 121,
        "16387": 252,
        "16388": 242,
        "16389": 229,
        "16390": 2,
        "16391": 228,
        "16392": 236,
        "16393": 206,
        "16394": 14,
        "16395": 53,
        "16396": 97,
        "16397": 21,
        "16398": 220,
        "16399": 114,
        "16400": 135,
        "16401": 174,
        "16402": 248,
        "16403": 147,
        "16404": 209,
        "16405": 193,
        "16406": 251,
        "16407": 118,
        "16408": 78,
        "16409": 118,
        "16410": 155,
        "16411": 58,
        "16412": 197,
        "16413": 199,
        "16414": 249,
        "16415": 79,
        "16416": 29,
        "16417": 175,
        "16418": 139,
        "16419": 13,
        "16420": 71,
        "16421": 136,
        "16422": 57,
        "16423": 204,
        "16424": 232,
        "16425": 168,
        "16426": 23,
        "16427": 179,
        "16428": 189,
        "16429": 244,
        "16430": 219,
        "16431": 137,
        "16432": 13,
        "16433": 217,
        "16434": 69,
        "16435": 223,
        "16436": 1,
        "16437": 37,
        "16438": 240,
        "16439": 76,
        "16440": 186,
        "16441": 40,
        "16442": 64,
        "16443": 79,
        "16444": 213,
        "16445": 149,
        "16446": 219,
        "16447": 76,
        "16448": 98,
        "16449": 109,
        "16450": 176,
        "16451": 41,
        "16452": 217,
        "16453": 19,
        "16454": 235,
        "16455": 189,
        "16456": 239,
        "16457": 102,
        "16458": 128,
        "16459": 245,
        "16460": 147,
        "16461": 180,
        "16462": 127,
        "16463": 71,
        "16464": 252,
        "16465": 31,
        "16466": 200,
        "16467": 254,
        "16468": 100,
        "16469": 15,
        "16470": 55,
        "16471": 196,
        "16472": 191,
        "16473": 141,
        "16474": 37,
        "16475": 177,
        "16476": 133,
        "16477": 246,
        "16478": 113,
        "16479": 33,
        "16480": 205,
        "16481": 212,
        "16482": 11,
        "16483": 155,
        "16484": 29,
        "16485": 206,
        "16486": 62,
        "16487": 191,
        "16488": 85,
        "16489": 194,
        "16490": 69,
        "16491": 112,
        "16492": 1,
        "16493": 107,
        "16494": 180,
        "16495": 178,
        "16496": 231,
        "16497": 157,
        "16498": 99,
        "16499": 114,
        "16500": 179,
        "16501": 115,
        "16502": 109,
        "16503": 233,
        "16504": 56,
        "16505": 39,
        "16506": 96,
        "16507": 253,
        "16508": 88,
        "16509": 81,
        "16510": 191,
        "16511": 163,
        "16512": 55,
        "16513": 194,
        "16514": 179,
        "16515": 74,
        "16516": 92,
        "16517": 19,
        "16518": 185,
        "16519": 230,
        "16520": 1,
        "16521": 8,
        "16522": 0,
        "16523": 0,
        "16524": 0,
        "16525": 0,
        "16526": 0,
        "16527": 0,
        "16528": 16,
        "16529": 0,
        "16530": 0,
        "16531": 0,
        "16532": 0,
        "16533": 0,
        "16534": 0,
        "16535": 0,
        "16536": 0,
        "16537": 0,
        "16538": 0,
        "16539": 0,
        "16540": 0,
        "16541": 0,
        "16542": 0,
        "16543": 0,
        "16544": 0,
        "16545": 0,
        "16546": 0,
        "16547": 0,
        "16548": 0,
        "16549": 0,
        "16550": 0,
        "16551": 0,
        "16552": 64,
        "16553": 0,
        "16554": 0,
        "16555": 0,
        "16556": 0,
        "16557": 0,
        "16558": 0,
        "16559": 0,
        "16560": 3,
        "16561": 0,
        "16562": 0,
        "16563": 0,
        "16564": 0,
        "16565": 0,
        "16566": 0,
        "16567": 0,
        "16568": 4,
        "16569": 0,
        "16570": 0,
        "16571": 0,
        "16572": 0,
        "16573": 0,
        "16574": 0,
        "16575": 0,
        "16576": 4,
        "16577": 0,
        "16578": 0,
        "16579": 0,
        "16580": 0,
        "16581": 0,
        "16582": 0,
        "16583": 0,
        "16584": 0,
        "16585": 0,
        "16586": 0,
        "16587": 0,
        "16588": 1,
        "16589": 0,
        "16590": 0,
        "16591": 0,
        "16592": 0,
        "16593": 0,
        "16594": 0,
        "16595": 0,
        "16596": 16,
        "16597": 0,
        "16598": 0,
        "16599": 0,
        "16600": 0,
        "16601": 0,
        "16602": 0,
        "16603": 0
      }
    }
  ],
  "numDeployments": 1,
  "solcInputHash": "2b3b26b5800f3ade8d68442c8333c36d",
  "bytecode": "0x6101606040526200001760006200026660201b60201c565b6004553480156200002757600080fd5b50604051620046ed380380620046ed83398181016040528101906200004d919062000b83565b6040518060400160405280600881526020017f46616b652046475a0000000000000000000000000000000000000000000000008152506040518060400160405280600481526020017f6646475a00000000000000000000000000000000000000000000000000000000815250338383836040518060400160405280601181526020017f4668656e6978205065726d697373696f6e0000000000000000000000000000008152506040518060400160405280600381526020017f312e3000000000000000000000000000000000000000000000000000000000008152506200013f6000836200028260201b90919060201c565b61012081815250506200015d6001826200028260201b90919060201c565b6101408181525050818051906020012060e08181525050808051906020012061010081815250504660a081815250506200019c620002da60201b60201c565b608081815250503073ffffffffffffffffffffffffffffffffffffffff1660c08173ffffffffffffffffffffffffffffffffffffffff168152505050508160059081620001ea919062000e1f565b508060069081620001fc919062000e1f565b505050600062000212826200033760201b60201c565b9050620002486200023c8262000230617fff6200026660201b60201c565b6200035560201b60201c565b620003f860201b60201c565b6200025a8382620004cb60201b60201c565b50505050505062001260565b60006200027b8260026200057160201b60201c565b9050919050565b6000602083511015620002a857620002a0836200062860201b60201c565b9050620002d4565b82620002ba836200069560201b60201c565b6000019081620002cb919062000e1f565b5060ff60001b90505b92915050565b60007f8b73c3c69bb8fe3d512ecc4cf759cc79239f7b179b0ffacaa9a75d522b39400f60e0516101005146306040516020016200031c95949392919062000f77565b60405160208183030381529060405280519060200120905090565b60006200034e82600001516200069f60201b60201c565b9050919050565b60006200036883620006bb60201b60201c565b62000382576200037f60006200026660201b60201c565b92505b6200039382620006bb60201b60201c565b620003ad57620003aa60006200026660201b60201c565b91505b600083905060008390506000620003ea60028484608073ffffffffffffffffffffffffffffffffffffffff1663eb274b77620006c860201b60201c565b905080935050505092915050565b62000409816200077960201b60201c565b62000423576200042060006200078660201b60201c565b90505b600081905060006200043b82620007a260201b60201c565b9050608073ffffffffffffffffffffffffffffffffffffffff16637d23f1db600d836040518363ffffffff1660e01b81526004016200047c9291906200104f565b600060405180830381865afa1580156200049a573d6000803e3d6000fd5b505050506040513d6000823e3d601f19601f82011682018060405250810190620004c5919062001083565b50505050565b62000516600260008473ffffffffffffffffffffffffffffffffffffffff1673ffffffffffffffffffffffffffffffffffffffff168152602001908152602001600020548262000803565b600260008473ffffffffffffffffffffffffffffffffffffffff1673ffffffffffffffffffffffffffffffffffffffff16815260200190815260200160002081905550620005676004548262000803565b6004819055505050565b60006060608073ffffffffffffffffffffffffffffffffffffffff166319e1c5c4620005a386620007a260201b60201c565b856040518363ffffffff1660e01b8152600401620005c3929190620010d4565b600060405180830381865afa158015620005e1573d6000803e3d6000fd5b505050506040513d6000823e3d601f19601f820116820180604052508101906200060c919062001083565b90506200061f816200081f60201b60201c565b91505092915050565b600080829050601f815111156200067857826040517f305a27a90000000000000000000000000000000000000000000000000000000081526004016200066f91906200115a565b60405180910390fd5b8051816200068690620011a5565b60001c1760001b915050919050565b6000819050919050565b6000620006b48260026200082d60201b60201c565b9050919050565b6000808214159050919050565b60006060838388620006e089620007a260201b60201c565b620006f189620007a260201b60201c565b6040518463ffffffff1660e01b8152600401620007119392919062001215565b600060405180830381865afa1580156200072f573d6000803e3d6000fd5b505050506040513d6000823e3d601f19601f820116820180604052508101906200075a919062001083565b90506200076d81620008d460201b60201c565b91505095945050505050565b6000808214159050919050565b60006200079b82600d6200057160201b60201c565b9050919050565b6060602067ffffffffffffffff811115620007c257620007c1620009ae565b5b6040519080825280601f01601f191660200182016040528015620007f55781602001600182028036833780820191505090505b509050816020820152919050565b6000620008178383620008e260201b60201c565b905092915050565b600060208201519050919050565b60006060608073ffffffffffffffffffffffffffffffffffffffff16635fa55ca784866040518363ffffffff1660e01b81526004016200086f9291906200104f565b600060405180830381865afa1580156200088d573d6000803e3d6000fd5b505050506040513d6000823e3d601f19601f82011682018060405250810190620008b8919062001083565b9050620008cb816200081f60201b60201c565b91505092915050565b600060208201519050919050565b6000620008f583620006bb60201b60201c565b6200090f576200090c60006200026660201b60201c565b92505b6200092082620006bb60201b60201c565b6200093a576200093760006200026660201b60201c565b91505b6000839050600083905060006200097660028484608073ffffffffffffffffffffffffffffffffffffffff16622df619620006c860201b60201c565b905080935050505092915050565b6000604051905090565b600080fd5b600080fd5b600080fd5b6000601f19601f8301169050919050565b7f4e487b7100000000000000000000000000000000000000000000000000000000600052604160045260246000fd5b620009e8826200099d565b810181811067ffffffffffffffff8211171562000a0a5762000a09620009ae565b5b80604052505050565b600062000a1f62000984565b905062000a2d8282620009dd565b919050565b600080fd5b600080fd5b600080fd5b600067ffffffffffffffff82111562000a5f5762000a5e620009ae565b5b62000a6a826200099d565b9050602081019050919050565b60005b8381101562000a9757808201518184015260208101905062000a7a565b60008484015250505050565b600062000aba62000ab48462000a41565b62000a13565b90508281526020810184848401111562000ad95762000ad862000a3c565b5b62000ae684828562000a77565b509392505050565b600082601f83011262000b065762000b0562000a37565b5b815162000b1884826020860162000aa3565b91505092915050565b60006020828403121562000b3a5762000b3962000998565b5b62000b46602062000a13565b9050600082015167ffffffffffffffff81111562000b695762000b6862000a32565b5b62000b778482850162000aee565b60008301525092915050565b60006020828403121562000b9c5762000b9b6200098e565b5b600082015167ffffffffffffffff81111562000bbd5762000bbc62000993565b5b62000bcb8482850162000b21565b91505092915050565b600081519050919050565b7f4e487b7100000000000000000000000000000000000000000000000000000000600052602260045260246000fd5b6000600282049050600182168062000c2757607f821691505b60208210810362000c3d5762000c3c62000bdf565b5b50919050565b60008190508160005260206000209050919050565b60006020601f8301049050919050565b600082821b905092915050565b60006008830262000ca77fffffffffffffffffffffffffffffffffffffffffffffffffffffffffffffffff8262000c68565b62000cb3868362000c68565b95508019841693508086168417925050509392505050565b6000819050919050565b6000819050919050565b600062000d0062000cfa62000cf48462000ccb565b62000cd5565b62000ccb565b9050919050565b6000819050919050565b62000d1c8362000cdf565b62000d3462000d2b8262000d07565b84845462000c75565b825550505050565b600090565b62000d4b62000d3c565b62000d5881848462000d11565b505050565b5b8181101562000d805762000d7460008262000d41565b60018101905062000d5e565b5050565b601f82111562000dcf5762000d998162000c43565b62000da48462000c58565b8101602085101562000db4578190505b62000dcc62000dc38562000c58565b83018262000d5d565b50505b505050565b600082821c905092915050565b600062000df46000198460080262000dd4565b1980831691505092915050565b600062000e0f838362000de1565b9150826002028217905092915050565b62000e2a8262000bd4565b67ffffffffffffffff81111562000e465762000e45620009ae565b5b62000e52825462000c0e565b62000e5f82828562000d84565b600060209050601f83116001811462000e97576000841562000e82578287015190505b62000e8e858262000e01565b86555062000efe565b601f19841662000ea78662000c43565b60005b8281101562000ed15784890151825560018201915060208501945060208101905062000eaa565b8683101562000ef1578489015162000eed601f89168262000de1565b8355505b6001600288020188555050505b505050505050565b6000819050919050565b62000f1b8162000f06565b82525050565b62000f2c8162000ccb565b82525050565b600073ffffffffffffffffffffffffffffffffffffffff82169050919050565b600062000f5f8262000f32565b9050919050565b62000f718162000f52565b82525050565b600060a08201905062000f8e600083018862000f10565b62000f9d602083018762000f10565b62000fac604083018662000f10565b62000fbb606083018562000f21565b62000fca608083018462000f66565b9695505050505050565b600060ff82169050919050565b62000fec8162000fd4565b82525050565b600081519050919050565b600082825260208201905092915050565b60006200101b8262000ff2565b62001027818562000ffd565b93506200103981856020860162000a77565b62001044816200099d565b840191505092915050565b600060408201905062001066600083018562000fe1565b81810360208301526200107a81846200100e565b90509392505050565b6000602082840312156200109c576200109b6200098e565b5b600082015167ffffffffffffffff811115620010bd57620010bc62000993565b5b620010cb8482850162000aee565b91505092915050565b60006040820190508181036000830152620010f081856200100e565b905062001101602083018462000fe1565b9392505050565b600082825260208201905092915050565b6000620011268262000bd4565b62001132818562001108565b93506200114481856020860162000a77565b6200114f816200099d565b840191505092915050565b6000602082019050818103600083015262001176818462001119565b905092915050565b6000819050602082019050919050565b60006200119c825162000f06565b80915050919050565b6000620011b28262000ff2565b82620011be846200117e565b9050620011cb816200118e565b925060208210156200120e57620012097fffffffffffffffffffffffffffffffffffffffffffffffffffffffffffffffff8360200360080262000c68565b831692505b5050919050565b60006060820190506200122c600083018662000fe1565b81810360208301526200124081856200100e565b905081810360408301526200125681846200100e565b9050949350505050565b60805160a05160c05160e051610100516101205161014051613432620012bb60003960006113ca0152600061138f015260006120d3015260006120b2015260006117f3015260006118490152600061187201526134326000f3fe608060405234801561001057600080fd5b50600436106101425760003560e01c80637ecebe00116100b8578063a9059cbb1161007c578063a9059cbb146103b9578063af575a00146103e9578063c4224c1914610419578063d505accf14610449578063d918156e14610465578063dd62ed3e1461049557610142565b80637ecebe00146102fb57806384b0196e1461032b5780638624a3491461034f57806395d89b411461037f5780639f284be71461039d57610142565b80633644e5151161010a5780633644e5151461020157806339c217f71461021f5780635356c4291461024f578063602772041461027f5780636e0505e1146102af57806370a08231146102cb57610142565b806306fdde0314610147578063095ea7b31461016557806318160ddd1461019557806323b872dd146101b3578063313ce567146101e3575b600080fd5b61014f6104c5565b60405161015c9190612494565b60405180910390f35b61017f600480360381019061017a919061255e565b610557565b60405161018c91906125b9565b60405180910390f35b61019d6105ab565b6040516101aa91906125e3565b60405180910390f35b6101cd60048036038101906101c891906125fe565b6105bd565b6040516101da91906125b9565b60405180910390f35b6101eb610692565b6040516101f8919061266d565b60405180910390f35b610209610697565b60405161021691906126a1565b60405180910390f35b610239600480360381019061023491906126e0565b610729565b6040516102469190612777565b60405180910390f35b610269600480360381019061026491906127b1565b61074e565b6040516102769190612494565b60405180910390f35b610299600480360381019061029491906129e4565b61084c565b6040516102a69190612494565b60405180910390f35b6102c960048036038101906102c49190612a7c565b610982565b005b6102e560048036038101906102e09190612aa9565b610ab9565b6040516102f291906125e3565b60405180910390f35b61031560048036038101906103109190612aa9565b610ad4565b60405161032291906125e3565b60405180910390f35b610333610aef565b6040516103469796959493929190612bde565b60405180910390f35b61036960048036038101906103649190612c62565b610b99565b6040516103769190612777565b60405180910390f35b610387610bd7565b6040516103949190612494565b60405180910390f35b6103b760048036038101906103b29190612a7c565b610c69565b005b6103d360048036038101906103ce919061255e565b610d76565b6040516103e091906125b9565b60405180910390f35b61040360048036038101906103fe9190612cfd565b610e08565b6040516104109190612777565b60405180910390f35b610433600480360381019061042e9190612d50565b610e35565b6040516104409190612777565b60405180910390f35b610463600480360381019061045e9190612dbc565b610e4a565b005b61047f600480360381019061047a91906126e0565b610fee565b60405161048c91906125b9565b60405180910390f35b6104af60048036038101906104aa9190612e5e565b611016565b6040516104bc91906125e3565b60405180910390f35b6060600580546104d490612ecd565b80601f016020809104026020016040519081016040528092919081815260200182805461050090612ecd565b801561054d5780601f106105225761010080835404028352916020019161054d565b820191906000526020600020905b81548152906001019060200180831161053057829003601f168201915b5050505050905090565b600082602052637f5e9f20600c5233600052816034600c205581600052602c5160601c337f8c5be1e5ebec7d5bd14f71427d1e84f3dd0314c0f7b2291e5b200ac8c7c3b92560206000a36001905092915050565b60006805345cdf77eb68f44c54905090565b60006105ca848484611036565b8360601b33602052637f5e9f208117600c526034600c20805460018101156106085780851115610602576313be252b6000526004601cfd5b84810382555b6387a211a28317600c526020600c2080548087111561062f5763f4d678b86000526004601cfd5b8681038255876000526020600c2087815401815587602052600c5160601c8660601c7fddf252ad1be2c89b69c2b068fc378daa952ba7f163c4a11628f55a4df523b3ef602080a350505050505061068784848461103b565b600190509392505050565b600090565b6000806106a2611040565b90506000801b81036106c0576106b66104c5565b8051906020012090505b6040517f8b73c3c69bb8fe3d512ecc4cf759cc79239f7b179b0ffacaa9a75d522b39400f81528160208201527fc89efdaa54c0f20c7adf612882df0950f5a951637e0307cdcb4c672f298b8bc6604082015246606082015230608082015260a081209250505090565b6000610746836107418461073c90612f56565b611045565b610e35565b905092915050565b60608161075a90612f69565b60006107b17f6bdaeb2d29561f159c7ef98b16b27015fb2aeb87209c7ee656226d912f59927d8360000151604051602001610796929190612f7c565b6040516020818303038152906040528051906020012061105b565b905060006107c3828460200151611075565b90503373ffffffffffffffffffffffffffffffffffffffff168173ffffffffffffffffffffffffffffffffffffffff161461082a576040517f3093a27700000000000000000000000000000000000000000000000000000000815260040160405180910390fd5b61084161083733886110a1565b8660000135611128565b935050505092915050565b6060818360006108a77f6bdaeb2d29561f159c7ef98b16b27015fb2aeb87209c7ee656226d912f59927d846000015160405160200161088c929190612f7c565b6040516020818303038152906040528051906020012061105b565b905060006108b9828560200151611075565b90508273ffffffffffffffffffffffffffffffffffffffff168173ffffffffffffffffffffffffffffffffffffffff1614610920576040517f51c65eae00000000000000000000000000000000000000000000000000000000815260040160405180910390fd5b6109768660000151600260008a73ffffffffffffffffffffffffffffffffffffffff1673ffffffffffffffffffffffffffffffffffffffff1681526020019081526020016000205461115e90919063ffffffff16565b94505050505092915050565b60006109938263ffffffff16611172565b905060006109fc6109ec83600260003373ffffffffffffffffffffffffffffffffffffffff1673ffffffffffffffffffffffffffffffffffffffff1681526020019081526020016000205461118690919063ffffffff16565b836109f76000611172565b61119a565b9050610a47600260003373ffffffffffffffffffffffffffffffffffffffff1673ffffffffffffffffffffffffffffffffffffffff1681526020019081526020016000205482611218565b600260003373ffffffffffffffffffffffffffffffffffffffff1673ffffffffffffffffffffffffffffffffffffffff16815260200190815260200160002081905550610a9660045482611218565b600481905550610ab433610aa98361122c565b63ffffffff166112ef565b505050565b60006387a211a2600c52816000526020600c20549050919050565b60006338377508600c52816000526020600c20549050919050565b600060608060008060006060610b03611386565b610b0b6113c1565b46306000801b600067ffffffffffffffff811115610b2c57610b2b612812565b5b604051908082528060200260200182016040528015610b5a5781602001602082028036833780820191505090505b507f0f00000000000000000000000000000000000000000000000000000000000000959493929190965096509650965096509650965090919293949596565b600080610bae83610ba990612f56565b611045565b90506000610bbd8633846113fc565b9050610bca868683611439565b5080925050509392505050565b606060068054610be690612ecd565b80601f0160208091040260200160405190810160405280929190818152602001828054610c1290612ecd565b8015610c5f5780601f10610c3457610100808354040283529160200191610c5f565b820191906000526020600020905b815481529060010190602001808311610c4257829003601f168201915b5050505050905090565b8063ffffffff16610c7933610ab9565b1015610cb1576040517ffda7bbda00000000000000000000000000000000000000000000000000000000815260040160405180910390fd5b610cc1338263ffffffff166115c6565b6000610cd28263ffffffff16611172565b9050610d1d600260003373ffffffffffffffffffffffffffffffffffffffff1673ffffffffffffffffffffffffffffffffffffffff168152602001908152602001600020548261165d565b600260003373ffffffffffffffffffffffffffffffffffffffff1673ffffffffffffffffffffffffffffffffffffffff16815260200190815260200160002081905550610d6c6004548261165d565b6004819055505050565b6000610d83338484611036565b6387a211a2600c52336000526020600c20805480841115610dac5763f4d678b86000526004601cfd5b8381038255846000526020600c2084815401815584602052600c5160601c337fddf252ad1be2c89b69c2b068fc378daa952ba7f163c4a11628f55a4df523b3ef602080a3505050610dfe33848461103b565b6001905092915050565b6000808290506000610e1b8633846113fc565b9050610e28868683611439565b5080925050509392505050565b6000610e42338484611439565b905092915050565b6000610e54611040565b90506000801b8103610e7257610e686104c5565b8051906020012090505b84421115610e8857631a15a3cc6000526004601cfd5b6040518860601b60601c98508760601b60601c975065383775081901600e52886000526020600c2080547f8b73c3c69bb8fe3d512ecc4cf759cc79239f7b179b0ffacaa9a75d522b39400f83528360208401527fc89efdaa54c0f20c7adf612882df0950f5a951637e0307cdcb4c672f298b8bc6604084015246606084015230608084015260a08320602e527f6e71edae12b1b97f4d1f60370fef10105fa2faae0126114a169c64845d6126c983528a60208401528960408401528860608401528060808401528760a084015260c08320604e526042602c206000528660ff1660205285604052846060526020806080600060015afa8b3d5114610f945763ddafbaef6000526004601cfd5b80820183558a637f5e9f2060a01b17604052896034602c20558a8c7f8c5be1e5ebec7d5bd14f71427d1e84f3dd0314c0f7b2291e5b200ac8c7c3b925602060608801a3836040526000606052505050505050505050505050565b600061100c33846110078561100290612f56565b611045565b611671565b6001905092915050565b600081602052637f5e9f20600c52826000526034600c2054905092915050565b505050565b505050565b600090565b600061105482600001516117db565b9050919050565b600061106e6110686117ef565b836118a6565b9050919050565b60008060008061108586866118e7565b9250925092506110958282611943565b82935050505092915050565b6000600360008473ffffffffffffffffffffffffffffffffffffffff1673ffffffffffffffffffffffffffffffffffffffff16815260200190815260200160002060008373ffffffffffffffffffffffffffffffffffffffff1673ffffffffffffffffffffffffffffffffffffffff16815260200190815260200160002054905092915050565b606061113383611aa7565b611144576111416000611172565b92505b600083905061115560028285611ab4565b91505092915050565b606061116a8383611128565b905092915050565b600061117f826002611b6a565b9050919050565b60006111928383611c0c565b905092915050565b60006111a584611c85565b6111b6576111b36000611c92565b93505b6111bf83611aa7565b6111d0576111cd6000611172565b92505b6111d982611aa7565b6111ea576111e76000611172565b91505b60008490506000849050600084905060006112086002858585611ca6565b9050809450505050509392505050565b60006112248383611d5e565b905092915050565b600061123782611aa7565b611248576112456000611172565b91505b6000829050600061125882611dd7565b90506000608073ffffffffffffffffffffffffffffffffffffffff166373cc01546002846040518363ffffffff1660e01b8152600401611299929190612ffa565b602060405180830381865afa1580156112b6573d6000803e3d6000fd5b505050506040513d601f19601f820116820180604052508101906112da919061303f565b90506112e581611e34565b9350505050919050565b6112fb60008383611036565b6805345cdf77eb68f44c548181018181101561131f5763e5cfe9576000526004601cfd5b806805345cdf77eb68f44c556387a211a2600c52836000526020600c2083815401815583602052600c5160601c60007fddf252ad1be2c89b69c2b068fc378daa952ba7f163c4a11628f55a4df523b3ef602080a35050506113826000838361103b565b5050565b60606113bc60007f0000000000000000000000000000000000000000000000000000000000000000611e3e90919063ffffffff16565b905090565b60606113f760017f0000000000000000000000000000000000000000000000000000000000000000611e3e90919063ffffffff16565b905090565b60008061140985856110a1565b905060006114178285611eee565b905061142d86866114288585611218565b611671565b80925050509392505050565b6000806114a1611491600260008873ffffffffffffffffffffffffffffffffffffffff1673ffffffffffffffffffffffffffffffffffffffff1681526020019081526020016000205485611f6790919063ffffffff16565b8461149c6000611172565b61119a565b90506114ec600260008673ffffffffffffffffffffffffffffffffffffffff1673ffffffffffffffffffffffffffffffffffffffff168152602001908152602001600020548261165d565b600260008673ffffffffffffffffffffffffffffffffffffffff1673ffffffffffffffffffffffffffffffffffffffff16815260200190815260200160002081905550611578600260008773ffffffffffffffffffffffffffffffffffffffff1673ffffffffffffffffffffffffffffffffffffffff1681526020019081526020016000205482611218565b600260008773ffffffffffffffffffffffffffffffffffffffff1673ffffffffffffffffffffffffffffffffffffffff16815260200190815260200160002081905550809150509392505050565b6115d282600083611036565b6387a211a2600c52816000526020600c208054808311156115fb5763f4d678b86000526004601cfd5b8281038255826805345cdf77eb68f44c54036805345cdf77eb68f44c558260005260008460601b60601c7fddf252ad1be2c89b69c2b068fc378daa952ba7f163c4a11628f55a4df523b3ef60206000a350506116598260008361103b565b5050565b60006116698383611f7b565b905092915050565b600073ffffffffffffffffffffffffffffffffffffffff168373ffffffffffffffffffffffffffffffffffffffff16036116e35760006040517fe602df050000000000000000000000000000000000000000000000000000000081526004016116da919061306c565b60405180910390fd5b600073ffffffffffffffffffffffffffffffffffffffff168273ffffffffffffffffffffffffffffffffffffffff16036117555760006040517f94280d6200000000000000000000000000000000000000000000000000000000815260040161174c919061306c565b60405180910390fd5b80600360008573ffffffffffffffffffffffffffffffffffffffff1673ffffffffffffffffffffffffffffffffffffffff16815260200190815260200160002060008473ffffffffffffffffffffffffffffffffffffffff1673ffffffffffffffffffffffffffffffffffffffff16815260200190815260200160002081905550505050565b60006117e8826002611ff3565b9050919050565b60007f000000000000000000000000000000000000000000000000000000000000000073ffffffffffffffffffffffffffffffffffffffff163073ffffffffffffffffffffffffffffffffffffffff1614801561186b57507f000000000000000000000000000000000000000000000000000000000000000046145b15611898577f000000000000000000000000000000000000000000000000000000000000000090506118a3565b6118a061208d565b90505b90565b60006040517f190100000000000000000000000000000000000000000000000000000000000081528360028201528260228201526042812091505092915050565b6000806000604184510361192c5760008060006020870151925060408701519150606087015160001a905061191e88828585612123565b95509550955050505061193c565b60006002855160001b9250925092505b9250925092565b6000600381111561195757611956613087565b5b82600381111561196a57611969613087565b5b0315611aa3576001600381111561198457611983613087565b5b82600381111561199757611996613087565b5b036119ce576040517ff645eedf00000000000000000000000000000000000000000000000000000000815260040160405180910390fd5b600260038111156119e2576119e1613087565b5b8260038111156119f5576119f4613087565b5b03611a3a578060001c6040517ffce698f7000000000000000000000000000000000000000000000000000000008152600401611a3191906125e3565b60405180910390fd5b600380811115611a4d57611a4c613087565b5b826003811115611a6057611a5f613087565b5b03611aa257806040517fd78bce0c000000000000000000000000000000000000000000000000000000008152600401611a9991906126a1565b60405180910390fd5b5b5050565b6000808214159050919050565b6060608073ffffffffffffffffffffffffffffffffffffffff1663a1848ff385611add86611dd7565b85604051602001611aee91906130d7565b6040516020818303038152906040526040518463ffffffff1660e01b8152600401611b1b939291906130f2565b600060405180830381865afa158015611b38573d6000803e3d6000fd5b505050506040513d6000823e3d601f19601f82011682018060405250810190611b6191906131d8565b90509392505050565b60006060608073ffffffffffffffffffffffffffffffffffffffff166319e1c5c4611b9486611dd7565b856040518363ffffffff1660e01b8152600401611bb2929190613221565b600060405180830381865afa158015611bcf573d6000803e3d6000fd5b505050506040513d6000823e3d601f19601f82011682018060405250810190611bf891906132c1565b9050611c0381612217565b91505092915050565b6000611c1783611aa7565b611c2857611c256000611172565b92505b611c3182611aa7565b611c4257611c3f6000611172565b91505b600083905060008390506000611c7760028484608073ffffffffffffffffffffffffffffffffffffffff1663650de1cf612225565b905080935050505092915050565b6000808214159050919050565b6000611c9f82600d611b6a565b9050919050565b60006060608073ffffffffffffffffffffffffffffffffffffffff1663c2d9695287611cd188611dd7565b611cda88611dd7565b611ce388611dd7565b6040518563ffffffff1660e01b8152600401611d02949392919061330a565b600060405180830381865afa158015611d1f573d6000803e3d6000fd5b505050506040513d6000823e3d601f19601f82011682018060405250810190611d4891906132c1565b9050611d5381612217565b915050949350505050565b6000611d6983611aa7565b611d7a57611d776000611172565b92505b611d8382611aa7565b611d9457611d916000611172565b91505b600083905060008390506000611dc960028484608073ffffffffffffffffffffffffffffffffffffffff1663cc2cbeff612225565b905080935050505092915050565b6060602067ffffffffffffffff811115611df457611df3612812565b5b6040519080825280601f01601f191660200182016040528015611e265781602001600182028036833780820191505090505b509050816020820152919050565b6000819050919050565b606060ff60001b8314611e5b57611e54836122b9565b9050611ee8565b818054611e6790612ecd565b80601f0160208091040260200160405190810160405280929190818152602001828054611e9390612ecd565b8015611ee05780601f10611eb557610100808354040283529160200191611ee0565b820191906000526020600020905b815481529060010190602001808311611ec357829003601f168201915b505050505090505b92915050565b6000611ef983611aa7565b611f0a57611f076000611172565b92505b611f1382611aa7565b611f2457611f216000611172565b91505b600083905060008390506000611f5960028484608073ffffffffffffffffffffffffffffffffffffffff16635211c679612225565b905080935050505092915050565b6000611f73838361232d565b905092915050565b6000611f8683611aa7565b611f9757611f946000611172565b92505b611fa082611aa7565b611fb157611fae6000611172565b91505b600083905060008390506000611fe560028484608073ffffffffffffffffffffffffffffffffffffffff16622df619612225565b905080935050505092915050565b60006060608073ffffffffffffffffffffffffffffffffffffffff16635fa55ca784866040518363ffffffff1660e01b8152600401612033929190612ffa565b600060405180830381865afa158015612050573d6000803e3d6000fd5b505050506040513d6000823e3d601f19601f8201168201806040525081019061207991906132c1565b905061208481612217565b91505092915050565b60007f8b73c3c69bb8fe3d512ecc4cf759cc79239f7b179b0ffacaa9a75d522b39400f7f00000000000000000000000000000000000000000000000000000000000000007f00000000000000000000000000000000000000000000000000000000000000004630604051602001612108959493929190613364565b60405160208183030381529060405280519060200120905090565b60008060007f7fffffffffffffffffffffffffffffff5d576e7357a4501ddfe92f46681b20a08460001c111561216357600060038592509250925061220d565b60006001888888886040516000815260200160405260405161218894939291906133b7565b6020604051602081039080840390855afa1580156121aa573d6000803e3d6000fd5b505050602060405103519050600073ffffffffffffffffffffffffffffffffffffffff168173ffffffffffffffffffffffffffffffffffffffff16036121fe57600060016000801b9350935093505061220d565b8060008060001b935093509350505b9450945094915050565b600060208201519050919050565b6000606083838861223589611dd7565b61223e89611dd7565b6040518463ffffffff1660e01b815260040161225c939291906130f2565b600060405180830381865afa158015612279573d6000803e3d6000fd5b505050506040513d6000823e3d601f19601f820116820180604052508101906122a291906132c1565b90506122ad816123a6565b91505095945050505050565b606060006122c6836123b4565b90506000602067ffffffffffffffff8111156122e5576122e4612812565b5b6040519080825280601f01601f1916602001820160405280156123175781602001600182028036833780820191505090505b5090508181528360208201528092505050919050565b600061233883611aa7565b612349576123466000611172565b92505b61235282611aa7565b612363576123606000611172565b91505b60008390506000839050600061239860028484608073ffffffffffffffffffffffffffffffffffffffff1663eb274b77612225565b905080935050505092915050565b600060208201519050919050565b60008060ff8360001c169050601f8111156123fb576040517fb3512b0c00000000000000000000000000000000000000000000000000000000815260040160405180910390fd5b80915050919050565b600081519050919050565b600082825260208201905092915050565b60005b8381101561243e578082015181840152602081019050612423565b60008484015250505050565b6000601f19601f8301169050919050565b600061246682612404565b612470818561240f565b9350612480818560208601612420565b6124898161244a565b840191505092915050565b600060208201905081810360008301526124ae818461245b565b905092915050565b6000604051905090565b600080fd5b600080fd5b600073ffffffffffffffffffffffffffffffffffffffff82169050919050565b60006124f5826124ca565b9050919050565b612505816124ea565b811461251057600080fd5b50565b600081359050612522816124fc565b92915050565b6000819050919050565b61253b81612528565b811461254657600080fd5b50565b60008135905061255881612532565b92915050565b60008060408385031215612575576125746124c0565b5b600061258385828601612513565b925050602061259485828601612549565b9150509250929050565b60008115159050919050565b6125b38161259e565b82525050565b60006020820190506125ce60008301846125aa565b92915050565b6125dd81612528565b82525050565b60006020820190506125f860008301846125d4565b92915050565b600080600060608486031215612617576126166124c0565b5b600061262586828701612513565b935050602061263686828701612513565b925050604061264786828701612549565b9150509250925092565b600060ff82169050919050565b61266781612651565b82525050565b6000602082019050612682600083018461265e565b92915050565b6000819050919050565b61269b81612688565b82525050565b60006020820190506126b66000830184612692565b92915050565b600080fd5b6000602082840312156126d7576126d66126bc565b5b81905092915050565b600080604083850312156126f7576126f66124c0565b5b600061270585828601612513565b925050602083013567ffffffffffffffff811115612726576127256124c5565b5b612732858286016126c1565b9150509250929050565b6000819050919050565b600061276161275c61275784612528565b61273c565b612528565b9050919050565b61277181612746565b82525050565b600060208201905061278c6000830184612768565b92915050565b6000604082840312156127a8576127a76126bc565b5b81905092915050565b600080604083850312156127c8576127c76124c0565b5b60006127d685828601612513565b925050602083013567ffffffffffffffff8111156127f7576127f66124c5565b5b61280385828601612792565b9150509250929050565b600080fd5b7f4e487b7100000000000000000000000000000000000000000000000000000000600052604160045260246000fd5b61284a8261244a565b810181811067ffffffffffffffff8211171561286957612868612812565b5b80604052505050565b600061287c6124b6565b90506128888282612841565b919050565b600080fd5b61289b81612688565b81146128a657600080fd5b50565b6000813590506128b881612892565b92915050565b600080fd5b600080fd5b600067ffffffffffffffff8211156128e3576128e2612812565b5b6128ec8261244a565b9050602081019050919050565b82818337600083830152505050565b600061291b612916846128c8565b612872565b905082815260208101848484011115612937576129366128c3565b5b6129428482856128f9565b509392505050565b600082601f83011261295f5761295e6128be565b5b813561296f848260208601612908565b91505092915050565b60006040828403121561298e5761298d61280d565b5b6129986040612872565b905060006129a8848285016128a9565b600083015250602082013567ffffffffffffffff8111156129cc576129cb61288d565b5b6129d88482850161294a565b60208301525092915050565b600080604083850312156129fb576129fa6124c0565b5b6000612a0985828601612513565b925050602083013567ffffffffffffffff811115612a2a57612a296124c5565b5b612a3685828601612978565b9150509250929050565b600063ffffffff82169050919050565b612a5981612a40565b8114612a6457600080fd5b50565b600081359050612a7681612a50565b92915050565b600060208284031215612a9257612a916124c0565b5b6000612aa084828501612a67565b91505092915050565b600060208284031215612abf57612abe6124c0565b5b6000612acd84828501612513565b91505092915050565b60007fff0000000000000000000000000000000000000000000000000000000000000082169050919050565b612b0b81612ad6565b82525050565b612b1a816124ea565b82525050565b600081519050919050565b600082825260208201905092915050565b6000819050602082019050919050565b612b5581612528565b82525050565b6000612b678383612b4c565b60208301905092915050565b6000602082019050919050565b6000612b8b82612b20565b612b958185612b2b565b9350612ba083612b3c565b8060005b83811015612bd1578151612bb88882612b5b565b9750612bc383612b73565b925050600181019050612ba4565b5085935050505092915050565b600060e082019050612bf3600083018a612b02565b8181036020830152612c05818961245b565b90508181036040830152612c19818861245b565b9050612c2860608301876125d4565b612c356080830186612b11565b612c4260a0830185612692565b81810360c0830152612c548184612b80565b905098975050505050505050565b600080600060608486031215612c7b57612c7a6124c0565b5b6000612c8986828701612513565b9350506020612c9a86828701612513565b925050604084013567ffffffffffffffff811115612cbb57612cba6124c5565b5b612cc7868287016126c1565b9150509250925092565b612cda81612528565b8114612ce557600080fd5b50565b600081359050612cf781612cd1565b92915050565b600080600060608486031215612d1657612d156124c0565b5b6000612d2486828701612513565b9350506020612d3586828701612513565b9250506040612d4686828701612ce8565b9150509250925092565b60008060408385031215612d6757612d666124c0565b5b6000612d7585828601612513565b9250506020612d8685828601612ce8565b9150509250929050565b612d9981612651565b8114612da457600080fd5b50565b600081359050612db681612d90565b92915050565b600080600080600080600060e0888a031215612ddb57612dda6124c0565b5b6000612de98a828b01612513565b9750506020612dfa8a828b01612513565b9650506040612e0b8a828b01612549565b9550506060612e1c8a828b01612549565b9450506080612e2d8a828b01612da7565b93505060a0612e3e8a828b016128a9565b92505060c0612e4f8a828b016128a9565b91505092959891949750929550565b60008060408385031215612e7557612e746124c0565b5b6000612e8385828601612513565b9250506020612e9485828601612513565b9150509250929050565b7f4e487b7100000000000000000000000000000000000000000000000000000000600052602260045260246000fd5b60006002820490506001821680612ee557607f821691505b602082108103612ef857612ef7612e9e565b5b50919050565b600060208284031215612f1457612f1361280d565b5b612f1e6020612872565b9050600082013567ffffffffffffffff811115612f3e57612f3d61288d565b5b612f4a8482850161294a565b60008301525092915050565b6000612f623683612efe565b9050919050565b6000612f753683612978565b9050919050565b6000604082019050612f916000830185612692565b612f9e6020830184612692565b9392505050565b600081519050919050565b600082825260208201905092915050565b6000612fcc82612fa5565b612fd68185612fb0565b9350612fe6818560208601612420565b612fef8161244a565b840191505092915050565b600060408201905061300f600083018561265e565b81810360208301526130218184612fc1565b90509392505050565b60008151905061303981612532565b92915050565b600060208284031215613055576130546124c0565b5b60006130638482850161302a565b91505092915050565b60006020820190506130816000830184612b11565b92915050565b7f4e487b7100000000000000000000000000000000000000000000000000000000600052602160045260246000fd5b6000819050919050565b6130d16130cc82612688565b6130b6565b82525050565b60006130e382846130c0565b60208201915081905092915050565b6000606082019050613107600083018661265e565b81810360208301526131198185612fc1565b9050818103604083015261312d8184612fc1565b9050949350505050565b600067ffffffffffffffff82111561315257613151612812565b5b61315b8261244a565b9050602081019050919050565b600061317b61317684613137565b612872565b905082815260208101848484011115613197576131966128c3565b5b6131a2848285612420565b509392505050565b600082601f8301126131bf576131be6128be565b5b81516131cf848260208601613168565b91505092915050565b6000602082840312156131ee576131ed6124c0565b5b600082015167ffffffffffffffff81111561320c5761320b6124c5565b5b613218848285016131aa565b91505092915050565b6000604082019050818103600083015261323b8185612fc1565b905061324a602083018461265e565b9392505050565b600061326461325f846128c8565b612872565b9050828152602081018484840111156132805761327f6128c3565b5b61328b848285612420565b509392505050565b600082601f8301126132a8576132a76128be565b5b81516132b8848260208601613251565b91505092915050565b6000602082840312156132d7576132d66124c0565b5b600082015167ffffffffffffffff8111156132f5576132f46124c5565b5b61330184828501613293565b91505092915050565b600060808201905061331f600083018761265e565b81810360208301526133318186612fc1565b905081810360408301526133458185612fc1565b905081810360608301526133598184612fc1565b905095945050505050565b600060a0820190506133796000830188612692565b6133866020830187612692565b6133936040830186612692565b6133a060608301856125d4565b6133ad6080830184612b11565b9695505050505050565b60006080820190506133cc6000830187612692565b6133d9602083018661265e565b6133e66040830185612692565b6133f36060830184612692565b9594505050505056fea26469706673582212206999aac1c1a78e07b057cf816e3f5f6d0fa3599f5e1c86ab42aa95c8960d94b164736f6c63430008180033",
  "devdoc": {
    "errors": {
      "AllowanceOverflow()": [
        {
          "details": "The allowance has overflowed."
        }
      ],
      "AllowanceUnderflow()": [
        {
          "details": "The allowance has underflowed."
        }
      ],
      "ECDSAInvalidSignature()": [
        {
          "details": "The signature derives the `address(0)`."
        }
      ],
      "ECDSAInvalidSignatureLength(uint256)": [
        {
          "details": "The signature has an invalid length."
        }
      ],
      "ECDSAInvalidSignatureS(bytes32)": [
        {
          "details": "The signature has an S value that is in the upper half order."
        }
      ],
      "InsufficientAllowance()": [
        {
          "details": "Insufficient allowance."
        }
      ],
      "InsufficientBalance()": [
        {
          "details": "Insufficient balance."
        }
      ],
      "InvalidPermit()": [
        {
          "details": "The permit is invalid."
        }
      ],
      "PermitExpired()": [
        {
          "details": "The permit has expired."
        }
      ],
      "TotalSupplyOverflow()": [
        {
          "details": "The total supply has overflowed."
        }
      ]
    },
    "events": {
      "Approval(address,address,uint256)": {
        "details": "Emitted when `amount` tokens is approved by `owner` to be used by `spender`."
      },
      "ApprovalEncrypted(address,address)": {
        "details": "Emitted when the allowance of a `spender` for an `owner` is set by a call to {approveEncrypted}. `value` is the new allowance."
      },
      "EIP712DomainChanged()": {
        "details": "MAY be emitted to signal that the domain could have changed."
      },
      "Transfer(address,address,uint256)": {
        "details": "Emitted when `amount` tokens is transferred from `from` to `to`."
      },
      "TransferEncrypted(address,address)": {
        "details": "Emitted when `value` tokens are moved from one account (`from`) to another (`to`). Note that `value` may be zero."
      }
    },
    "kind": "dev",
    "methods": {
      "DOMAIN_SEPARATOR()": {
        "details": "Returns the EIP-712 domain separator for the EIP-2612 permit."
      },
      "allowance(address,address)": {
        "details": "Returns the amount of tokens that `spender` can spend on behalf of `owner`."
      },
      "allowanceEncrypted(address,(bytes32,bytes))": {
        "details": "Returns the remaining number of tokens that `spender` will be allowed to spend on behalf of `owner` through {transferFrom}. This is zero by default. This value changes when {approve} or {transferFrom} are called."
      },
      "approve(address,uint256)": {
        "details": "Sets `amount` as the allowance of `spender` over the caller's tokens. Emits a {Approval} event."
      },
      "approveEncrypted(address,(bytes))": {
        "details": "Sets a `value` amount of tokens as the allowance of `spender` over the caller's tokens. Returns a boolean value indicating whether the operation succeeded. IMPORTANT: Beware that changing an allowance with this method brings the risk that someone may use both the old and the new allowance by unfortunate transaction ordering. One possible solution to mitigate this race condition is to first reduce the spender's allowance to 0 and set the desired value afterwards: https://github.com/ethereum/EIPs/issues/20#issuecomment-263524729 Emits an {ApprovalEncrypted} event."
      },
      "balanceOf(address)": {
        "details": "Returns the amount of tokens owned by `owner`."
      },
      "balanceOfEncrypted(address,(bytes32,bytes))": {
        "details": "Returns the value of tokens owned by `account`, sealed and encrypted for the caller."
      },
      "decimals()": {
        "details": "Returns the decimals places of the token."
      },
      "eip712Domain()": {
        "details": "See {IERC-5267}."
      },
      "name()": {
        "details": "Returns the name of the token."
      },
      "nonces(address)": {
        "details": "Returns the current nonce for `owner`. This value is used to compute the signature for EIP-2612 permit."
      },
      "permit(address,address,uint256,uint256,uint8,bytes32,bytes32)": {
        "details": "Sets `value` as the allowance of `spender` over the tokens of `owner`, authorized by a signed approval by `owner`. Emits a {Approval} event."
      },
      "symbol()": {
        "details": "Returns the symbol of the token."
      },
      "totalSupply()": {
        "details": "Returns the amount of tokens in existence."
      },
      "transfer(address,uint256)": {
        "details": "Transfer `amount` tokens from the caller to `to`. Requirements: - `from` must at least have `amount`. Emits a {Transfer} event."
      },
      "transferFrom(address,address,uint256)": {
        "details": "Transfers `amount` tokens from `from` to `to`. Note: Does not update the allowance if it is the maximum uint256 value. Requirements: - `from` must at least have `amount`. - The caller must have at least `amount` of allowance to transfer the tokens of `from`. Emits a {Transfer} event."
      },
      "transferFromEncrypted(address,address,(bytes))": {
        "details": "Moves a `value` amount of tokens from `from` to `to` using the allowance mechanism. `value` is then deducted from the caller's allowance. Returns a boolean value indicating whether the operation succeeded. Emits a {TransferEncrypted} event."
      }
    },
    "version": 1
  },
  "userdoc": {
    "errors": {
      "SignerNotMessageSender()": [
        {
          "notice": "Emitted when the signer is not the message sender"
        }
      ],
      "SignerNotOwner()": [
        {
          "notice": "Emitted when the signer is not the specified owner"
        }
      ]
    },
    "kind": "user",
    "methods": {},
    "version": 1
  },
  "storageLayout": {
    "storage": [
      {
        "astId": 16568,
        "contract": "contracts/FakeFGZ.sol:FakeFGZ",
        "label": "_nameFallback",
        "offset": 0,
        "slot": "0",
        "type": "t_string_storage"
      },
      {
        "astId": 16570,
        "contract": "contracts/FakeFGZ.sol:FakeFGZ",
        "label": "_versionFallback",
        "offset": 0,
        "slot": "1",
        "type": "t_string_storage"
      },
      {
        "astId": 19966,
        "contract": "contracts/FakeFGZ.sol:FakeFGZ",
        "label": "_encBalances",
        "offset": 0,
        "slot": "2",
        "type": "t_mapping(t_address,t_userDefinedValueType(euint32)12)"
      },
      {
        "astId": 19973,
        "contract": "contracts/FakeFGZ.sol:FakeFGZ",
        "label": "_allowed",
        "offset": 0,
        "slot": "3",
        "type": "t_mapping(t_address,t_mapping(t_address,t_userDefinedValueType(euint32)12))"
      },
      {
        "astId": 19980,
        "contract": "contracts/FakeFGZ.sol:FakeFGZ",
        "label": "totalEncryptedSupply",
        "offset": 0,
        "slot": "4",
        "type": "t_userDefinedValueType(euint32)12"
      },
      {
        "astId": 19982,
        "contract": "contracts/FakeFGZ.sol:FakeFGZ",
        "label": "_name",
        "offset": 0,
        "slot": "5",
        "type": "t_string_storage"
      },
      {
        "astId": 19984,
        "contract": "contracts/FakeFGZ.sol:FakeFGZ",
        "label": "_symbol",
        "offset": 0,
        "slot": "6",
        "type": "t_string_storage"
      }
    ],
    "types": {
      "t_address": {
        "encoding": "inplace",
        "label": "address",
        "numberOfBytes": "20"
      },
      "t_mapping(t_address,t_mapping(t_address,t_userDefinedValueType(euint32)12))": {
        "encoding": "mapping",
        "key": "t_address",
        "label": "mapping(address => mapping(address => euint32))",
        "numberOfBytes": "32",
        "value": "t_mapping(t_address,t_userDefinedValueType(euint32)12)"
      },
      "t_mapping(t_address,t_userDefinedValueType(euint32)12)": {
        "encoding": "mapping",
        "key": "t_address",
        "label": "mapping(address => euint32)",
        "numberOfBytes": "32",
        "value": "t_userDefinedValueType(euint32)12"
      },
      "t_string_storage": {
        "encoding": "bytes",
        "label": "string",
        "numberOfBytes": "32"
      },
      "t_userDefinedValueType(euint32)12": {
        "encoding": "inplace",
        "label": "euint32",
        "numberOfBytes": "32"
      }
    }
  }
}