{
  "address": "0x439a35185812F37114c53D290611D2e14AA54856",
  "abi": [
    {
      "inputs": [
        {
          "components": [
            {
              "internalType": "bytes",
              "name": "data",
              "type": "bytes"
            }
          ],
          "internalType": "struct inEuint32",
          "name": "_initialSupply",
          "type": "tuple"
        }
      ],
      "stateMutability": "nonpayable",
      "type": "constructor"
    },
    {
      "inputs": [],
      "name": "AllowanceOverflow",
      "type": "error"
    },
    {
      "inputs": [],
      "name": "AllowanceUnderflow",
      "type": "error"
    },
    {
      "inputs": [],
      "name": "ECDSAInvalidSignature",
      "type": "error"
    },
    {
      "inputs": [
        {
          "internalType": "uint256",
          "name": "length",
          "type": "uint256"
        }
      ],
      "name": "ECDSAInvalidSignatureLength",
      "type": "error"
    },
    {
      "inputs": [
        {
          "internalType": "bytes32",
          "name": "s",
          "type": "bytes32"
        }
      ],
      "name": "ECDSAInvalidSignatureS",
      "type": "error"
    },
    {
      "inputs": [
        {
          "internalType": "address",
          "name": "",
          "type": "address"
        }
      ],
      "name": "ERC20InvalidApprover",
      "type": "error"
    },
    {
      "inputs": [
        {
          "internalType": "address",
          "name": "",
          "type": "address"
        }
      ],
      "name": "ERC20InvalidSpender",
      "type": "error"
    },
    {
      "inputs": [],
      "name": "ErrorInsufficientFunds",
      "type": "error"
    },
    {
      "inputs": [],
      "name": "InsufficientAllowance",
      "type": "error"
    },
    {
      "inputs": [],
      "name": "InsufficientBalance",
      "type": "error"
    },
    {
      "inputs": [],
      "name": "InvalidPermit",
      "type": "error"
    },
    {
      "inputs": [],
      "name": "InvalidShortString",
      "type": "error"
    },
    {
      "inputs": [],
      "name": "PermitExpired",
      "type": "error"
    },
    {
      "inputs": [],
      "name": "SignerNotMessageSender",
      "type": "error"
    },
    {
      "inputs": [],
      "name": "SignerNotOwner",
      "type": "error"
    },
    {
      "inputs": [
        {
          "internalType": "string",
          "name": "str",
          "type": "string"
        }
      ],
      "name": "StringTooLong",
      "type": "error"
    },
    {
      "inputs": [],
      "name": "TotalSupplyOverflow",
      "type": "error"
    },
    {
      "anonymous": false,
      "inputs": [
        {
          "indexed": true,
          "internalType": "address",
          "name": "owner",
          "type": "address"
        },
        {
          "indexed": true,
          "internalType": "address",
          "name": "spender",
          "type": "address"
        },
        {
          "indexed": false,
          "internalType": "uint256",
          "name": "amount",
          "type": "uint256"
        }
      ],
      "name": "Approval",
      "type": "event"
    },
    {
      "anonymous": false,
      "inputs": [
        {
          "indexed": true,
          "internalType": "address",
          "name": "owner",
          "type": "address"
        },
        {
          "indexed": true,
          "internalType": "address",
          "name": "spender",
          "type": "address"
        }
      ],
      "name": "ApprovalEncrypted",
      "type": "event"
    },
    {
      "anonymous": false,
      "inputs": [],
      "name": "EIP712DomainChanged",
      "type": "event"
    },
    {
      "anonymous": false,
      "inputs": [
        {
          "indexed": true,
          "internalType": "address",
          "name": "from",
          "type": "address"
        },
        {
          "indexed": true,
          "internalType": "address",
          "name": "to",
          "type": "address"
        },
        {
          "indexed": false,
          "internalType": "uint256",
          "name": "amount",
          "type": "uint256"
        }
      ],
      "name": "Transfer",
      "type": "event"
    },
    {
      "anonymous": false,
      "inputs": [
        {
          "indexed": true,
          "internalType": "address",
          "name": "from",
          "type": "address"
        },
        {
          "indexed": true,
          "internalType": "address",
          "name": "to",
          "type": "address"
        }
      ],
      "name": "TransferEncrypted",
      "type": "event"
    },
    {
      "inputs": [],
      "name": "DOMAIN_SEPARATOR",
      "outputs": [
        {
          "internalType": "bytes32",
          "name": "result",
          "type": "bytes32"
        }
      ],
      "stateMutability": "view",
      "type": "function"
    },
    {
      "inputs": [
        {
          "internalType": "address",
          "name": "owner",
          "type": "address"
        },
        {
          "internalType": "address",
          "name": "spender",
          "type": "address"
        }
      ],
      "name": "allowance",
      "outputs": [
        {
          "internalType": "uint256",
          "name": "result",
          "type": "uint256"
        }
      ],
      "stateMutability": "view",
      "type": "function"
    },
    {
      "inputs": [
        {
          "internalType": "address",
          "name": "spender",
          "type": "address"
        },
        {
          "components": [
            {
              "internalType": "bytes32",
              "name": "publicKey",
              "type": "bytes32"
            },
            {
              "internalType": "bytes",
              "name": "signature",
              "type": "bytes"
            }
          ],
          "internalType": "struct Permission",
          "name": "permission",
          "type": "tuple"
        }
      ],
      "name": "allowanceEncrypted",
      "outputs": [
        {
          "internalType": "string",
          "name": "",
          "type": "string"
        }
      ],
      "stateMutability": "view",
      "type": "function"
    },
    {
      "inputs": [
        {
          "internalType": "address",
          "name": "spender",
          "type": "address"
        },
        {
          "internalType": "uint256",
          "name": "amount",
          "type": "uint256"
        }
      ],
      "name": "approve",
      "outputs": [
        {
          "internalType": "bool",
          "name": "",
          "type": "bool"
        }
      ],
      "stateMutability": "nonpayable",
      "type": "function"
    },
    {
      "inputs": [
        {
          "internalType": "address",
          "name": "spender",
          "type": "address"
        },
        {
          "components": [
            {
              "internalType": "bytes",
              "name": "data",
              "type": "bytes"
            }
          ],
          "internalType": "struct inEuint32",
          "name": "value",
          "type": "tuple"
        }
      ],
      "name": "approveEncrypted",
      "outputs": [
        {
          "internalType": "bool",
          "name": "",
          "type": "bool"
        }
      ],
      "stateMutability": "nonpayable",
      "type": "function"
    },
    {
      "inputs": [
        {
          "internalType": "address",
          "name": "owner",
          "type": "address"
        }
      ],
      "name": "balanceOf",
      "outputs": [
        {
          "internalType": "uint256",
          "name": "result",
          "type": "uint256"
        }
      ],
      "stateMutability": "view",
      "type": "function"
    },
    {
      "inputs": [
        {
          "internalType": "address",
          "name": "account",
          "type": "address"
        },
        {
          "components": [
            {
              "internalType": "bytes32",
              "name": "publicKey",
              "type": "bytes32"
            },
            {
              "internalType": "bytes",
              "name": "signature",
              "type": "bytes"
            }
          ],
          "internalType": "struct Permission",
          "name": "auth",
          "type": "tuple"
        }
      ],
      "name": "balanceOfEncrypted",
      "outputs": [
        {
          "internalType": "string",
          "name": "",
          "type": "string"
        }
      ],
      "stateMutability": "view",
      "type": "function"
    },
    {
      "inputs": [],
      "name": "decimals",
      "outputs": [
        {
          "internalType": "uint8",
          "name": "",
          "type": "uint8"
        }
      ],
      "stateMutability": "pure",
      "type": "function"
    },
    {
      "inputs": [],
      "name": "eip712Domain",
      "outputs": [
        {
          "internalType": "bytes1",
          "name": "fields",
          "type": "bytes1"
        },
        {
          "internalType": "string",
          "name": "name",
          "type": "string"
        },
        {
          "internalType": "string",
          "name": "version",
          "type": "string"
        },
        {
          "internalType": "uint256",
          "name": "chainId",
          "type": "uint256"
        },
        {
          "internalType": "address",
          "name": "verifyingContract",
          "type": "address"
        },
        {
          "internalType": "bytes32",
          "name": "salt",
          "type": "bytes32"
        },
        {
          "internalType": "uint256[]",
          "name": "extensions",
          "type": "uint256[]"
        }
      ],
      "stateMutability": "view",
      "type": "function"
    },
    {
      "inputs": [],
      "name": "name",
      "outputs": [
        {
          "internalType": "string",
          "name": "",
          "type": "string"
        }
      ],
      "stateMutability": "view",
      "type": "function"
    },
    {
      "inputs": [
        {
          "internalType": "address",
          "name": "owner",
          "type": "address"
        }
      ],
      "name": "nonces",
      "outputs": [
        {
          "internalType": "uint256",
          "name": "result",
          "type": "uint256"
        }
      ],
      "stateMutability": "view",
      "type": "function"
    },
    {
      "inputs": [
        {
          "internalType": "address",
          "name": "owner",
          "type": "address"
        },
        {
          "internalType": "address",
          "name": "spender",
          "type": "address"
        },
        {
          "internalType": "uint256",
          "name": "value",
          "type": "uint256"
        },
        {
          "internalType": "uint256",
          "name": "deadline",
          "type": "uint256"
        },
        {
          "internalType": "uint8",
          "name": "v",
          "type": "uint8"
        },
        {
          "internalType": "bytes32",
          "name": "r",
          "type": "bytes32"
        },
        {
          "internalType": "bytes32",
          "name": "s",
          "type": "bytes32"
        }
      ],
      "name": "permit",
      "outputs": [],
      "stateMutability": "nonpayable",
      "type": "function"
    },
    {
      "inputs": [],
      "name": "symbol",
      "outputs": [
        {
          "internalType": "string",
          "name": "",
          "type": "string"
        }
      ],
      "stateMutability": "view",
      "type": "function"
    },
    {
      "inputs": [],
      "name": "totalSupply",
      "outputs": [
        {
          "internalType": "uint256",
          "name": "result",
          "type": "uint256"
        }
      ],
      "stateMutability": "view",
      "type": "function"
    },
    {
      "inputs": [
        {
          "internalType": "address",
          "name": "to",
          "type": "address"
        },
        {
          "internalType": "uint256",
          "name": "amount",
          "type": "uint256"
        }
      ],
      "name": "transfer",
      "outputs": [
        {
          "internalType": "bool",
          "name": "",
          "type": "bool"
        }
      ],
      "stateMutability": "nonpayable",
      "type": "function"
    },
    {
      "inputs": [
        {
          "internalType": "address",
          "name": "to",
          "type": "address"
        },
        {
          "components": [
            {
              "internalType": "bytes",
              "name": "data",
              "type": "bytes"
            }
          ],
          "internalType": "struct inEuint32",
          "name": "encryptedAmount",
          "type": "tuple"
        }
      ],
      "name": "transferEncrypted",
      "outputs": [
        {
          "internalType": "euint32",
          "name": "",
          "type": "uint256"
        }
      ],
      "stateMutability": "nonpayable",
      "type": "function"
    },
    {
      "inputs": [
        {
          "internalType": "address",
          "name": "to",
          "type": "address"
        },
        {
          "internalType": "euint32",
          "name": "amount",
          "type": "uint256"
        }
      ],
      "name": "transferEncrypted",
      "outputs": [
        {
          "internalType": "euint32",
          "name": "",
          "type": "uint256"
        }
      ],
      "stateMutability": "nonpayable",
      "type": "function"
    },
    {
      "inputs": [
        {
          "internalType": "address",
          "name": "from",
          "type": "address"
        },
        {
          "internalType": "address",
          "name": "to",
          "type": "address"
        },
        {
          "internalType": "uint256",
          "name": "amount",
          "type": "uint256"
        }
      ],
      "name": "transferFrom",
      "outputs": [
        {
          "internalType": "bool",
          "name": "",
          "type": "bool"
        }
      ],
      "stateMutability": "nonpayable",
      "type": "function"
    },
    {
      "inputs": [
        {
          "internalType": "address",
          "name": "from",
          "type": "address"
        },
        {
          "internalType": "address",
          "name": "to",
          "type": "address"
        },
        {
          "components": [
            {
              "internalType": "bytes",
              "name": "data",
              "type": "bytes"
            }
          ],
          "internalType": "struct inEuint32",
          "name": "value",
          "type": "tuple"
        }
      ],
      "name": "transferFromEncrypted",
      "outputs": [
        {
          "internalType": "euint32",
          "name": "",
          "type": "uint256"
        }
      ],
      "stateMutability": "nonpayable",
      "type": "function"
    },
    {
      "inputs": [
        {
          "internalType": "address",
          "name": "from",
          "type": "address"
        },
        {
          "internalType": "address",
          "name": "to",
          "type": "address"
        },
        {
          "internalType": "euint32",
          "name": "value",
          "type": "uint256"
        }
      ],
      "name": "transferFromEncrypted",
      "outputs": [
        {
          "internalType": "euint32",
          "name": "",
          "type": "uint256"
        }
      ],
      "stateMutability": "nonpayable",
      "type": "function"
    },
    {
      "inputs": [
        {
          "internalType": "uint32",
          "name": "amount",
          "type": "uint32"
        }
      ],
      "name": "unwrap",
      "outputs": [],
      "stateMutability": "nonpayable",
      "type": "function"
    },
    {
      "inputs": [
        {
          "internalType": "uint32",
          "name": "amount",
          "type": "uint32"
        }
      ],
      "name": "wrap",
      "outputs": [],
      "stateMutability": "nonpayable",
      "type": "function"
    }
  ],
  "transactionHash": "0x134ecfb4dc25b3fe9e0c7fcbb491c25c9c48b4c549c88375f745b828a9424101",
  "args": [
    {
      "data": {
        "0": 16,
        "1": 8,
        "2": 0,
        "3": 0,
        "4": 0,
        "5": 0,
        "6": 0,
        "7": 0,
        "8": 57,
        "9": 85,
        "10": 157,
        "11": 153,
        "12": 204,
        "13": 81,
        "14": 120,
        "15": 130,
        "16": 254,
        "17": 157,
        "18": 57,
        "19": 165,
        "20": 244,
        "21": 255,
        "22": 145,
        "23": 104,
        "24": 243,
        "25": 206,
        "26": 166,
        "27": 175,
        "28": 44,
        "29": 230,
        "30": 240,
        "31": 56,
        "32": 212,
        "33": 20,
        "34": 95,
        "35": 106,
        "36": 128,
        "37": 133,
        "38": 7,
        "39": 238,
        "40": 138,
        "41": 43,
        "42": 12,
        "43": 183,
        "44": 132,
        "45": 4,
        "46": 139,
        "47": 193,
        "48": 93,
        "49": 26,
        "50": 191,
        "51": 124,
        "52": 254,
        "53": 31,
        "54": 243,
        "55": 91,
        "56": 95,
        "57": 98,
        "58": 195,
        "59": 123,
        "60": 65,
        "61": 77,
        "62": 26,
        "63": 32,
        "64": 149,
        "65": 63,
        "66": 129,
        "67": 226,
        "68": 234,
        "69": 195,
        "70": 87,
        "71": 221,
        "72": 44,
        "73": 226,
        "74": 42,
        "75": 191,
        "76": 136,
        "77": 26,
        "78": 167,
        "79": 201,
        "80": 200,
        "81": 97,
        "82": 104,
        "83": 218,
        "84": 136,
        "85": 64,
        "86": 82,
        "87": 227,
        "88": 253,
        "89": 213,
        "90": 159,
        "91": 170,
        "92": 114,
        "93": 22,
        "94": 236,
        "95": 23,
        "96": 90,
        "97": 86,
        "98": 239,
        "99": 236,
        "100": 196,
        "101": 139,
        "102": 117,
        "103": 244,
        "104": 184,
        "105": 238,
        "106": 126,
        "107": 41,
        "108": 226,
        "109": 23,
        "110": 83,
        "111": 138,
        "112": 220,
        "113": 57,
        "114": 46,
        "115": 243,
        "116": 210,
        "117": 248,
        "118": 73,
        "119": 178,
        "120": 184,
        "121": 107,
        "122": 203,
        "123": 85,
        "124": 125,
        "125": 114,
        "126": 46,
        "127": 74,
        "128": 214,
        "129": 144,
        "130": 95,
        "131": 169,
        "132": 63,
        "133": 240,
        "134": 239,
        "135": 49,
        "136": 118,
        "137": 251,
        "138": 150,
        "139": 80,
        "140": 35,
        "141": 112,
        "142": 81,
        "143": 28,
        "144": 174,
        "145": 120,
        "146": 224,
        "147": 31,
        "148": 88,
        "149": 91,
        "150": 75,
        "151": 141,
        "152": 17,
        "153": 160,
        "154": 253,
        "155": 236,
        "156": 40,
        "157": 161,
        "158": 96,
        "159": 216,
        "160": 51,
        "161": 10,
        "162": 220,
        "163": 98,
        "164": 179,
        "165": 199,
        "166": 223,
        "167": 49,
        "168": 200,
        "169": 20,
        "170": 141,
        "171": 56,
        "172": 212,
        "173": 222,
        "174": 33,
        "175": 33,
        "176": 54,
        "177": 186,
        "178": 56,
        "179": 223,
        "180": 13,
        "181": 137,
        "182": 89,
        "183": 253,
        "184": 146,
        "185": 37,
        "186": 242,
        "187": 243,
        "188": 232,
        "189": 65,
        "190": 25,
        "191": 15,
        "192": 197,
        "193": 63,
        "194": 57,
        "195": 187,
        "196": 231,
        "197": 147,
        "198": 251,
        "199": 179,
        "200": 255,
        "201": 238,
        "202": 47,
        "203": 42,
        "204": 131,
        "205": 134,
        "206": 133,
        "207": 164,
        "208": 47,
        "209": 164,
        "210": 168,
        "211": 148,
        "212": 46,
        "213": 190,
        "214": 26,
        "215": 184,
        "216": 129,
        "217": 214,
        "218": 148,
        "219": 251,
        "220": 188,
        "221": 141,
        "222": 195,
        "223": 88,
        "224": 9,
        "225": 155,
        "226": 154,
        "227": 17,
        "228": 229,
        "229": 26,
        "230": 245,
        "231": 43,
        "232": 7,
        "233": 72,
        "234": 198,
        "235": 34,
        "236": 71,
        "237": 8,
        "238": 145,
        "239": 131,
        "240": 156,
        "241": 96,
        "242": 115,
        "243": 100,
        "244": 132,
        "245": 63,
        "246": 40,
        "247": 239,
        "248": 8,
        "249": 202,
        "250": 47,
        "251": 109,
        "252": 1,
        "253": 220,
        "254": 241,
        "255": 28,
        "256": 80,
        "257": 9,
        "258": 76,
        "259": 115,
        "260": 195,
        "261": 191,
        "262": 169,
        "263": 225,
        "264": 59,
        "265": 56,
        "266": 38,
        "267": 193,
        "268": 85,
        "269": 152,
        "270": 18,
        "271": 49,
        "272": 229,
        "273": 9,
        "274": 76,
        "275": 132,
        "276": 151,
        "277": 28,
        "278": 176,
        "279": 123,
        "280": 73,
        "281": 161,
        "282": 183,
        "283": 144,
        "284": 248,
        "285": 9,
        "286": 221,
        "287": 124,
        "288": 208,
        "289": 210,
        "290": 112,
        "291": 230,
        "292": 127,
        "293": 26,
        "294": 245,
        "295": 186,
        "296": 6,
        "297": 245,
        "298": 171,
        "299": 15,
        "300": 155,
        "301": 43,
        "302": 224,
        "303": 65,
        "304": 97,
        "305": 206,
        "306": 226,
        "307": 254,
        "308": 219,
        "309": 219,
        "310": 5,
        "311": 93,
        "312": 184,
        "313": 179,
        "314": 183,
        "315": 243,
        "316": 92,
        "317": 252,
        "318": 24,
        "319": 22,
        "320": 179,
        "321": 167,
        "322": 100,
        "323": 100,
        "324": 252,
        "325": 168,
        "326": 235,
        "327": 144,
        "328": 157,
        "329": 62,
        "330": 9,
        "331": 35,
        "332": 110,
        "333": 76,
        "334": 199,
        "335": 44,
        "336": 33,
        "337": 14,
        "338": 199,
        "339": 194,
        "340": 202,
        "341": 113,
        "342": 133,
        "343": 176,
        "344": 115,
        "345": 146,
        "346": 71,
        "347": 240,
        "348": 202,
        "349": 142,
        "350": 20,
        "351": 147,
        "352": 140,
        "353": 162,
        "354": 219,
        "355": 198,
        "356": 225,
        "357": 221,
        "358": 72,
        "359": 122,
        "360": 81,
        "361": 172,
        "362": 8,
        "363": 103,
        "364": 18,
        "365": 178,
        "366": 26,
        "367": 132,
        "368": 123,
        "369": 67,
        "370": 57,
        "371": 255,
        "372": 230,
        "373": 127,
        "374": 216,
        "375": 140,
        "376": 232,
        "377": 16,
        "378": 235,
        "379": 98,
        "380": 0,
        "381": 163,
        "382": 26,
        "383": 236,
        "384": 10,
        "385": 104,
        "386": 179,
        "387": 195,
        "388": 143,
        "389": 144,
        "390": 235,
        "391": 134,
        "392": 206,
        "393": 249,
        "394": 83,
        "395": 57,
        "396": 25,
        "397": 31,
        "398": 143,
        "399": 115,
        "400": 60,
        "401": 202,
        "402": 242,
        "403": 76,
        "404": 191,
        "405": 97,
        "406": 123,
        "407": 171,
        "408": 129,
        "409": 219,
        "410": 7,
        "411": 232,
        "412": 207,
        "413": 0,
        "414": 65,
        "415": 120,
        "416": 206,
        "417": 125,
        "418": 58,
        "419": 129,
        "420": 57,
        "421": 103,
        "422": 133,
        "423": 152,
        "424": 33,
        "425": 255,
        "426": 224,
        "427": 37,
        "428": 252,
        "429": 247,
        "430": 1,
        "431": 253,
        "432": 107,
        "433": 172,
        "434": 45,
        "435": 54,
        "436": 72,
        "437": 90,
        "438": 36,
        "439": 2,
        "440": 164,
        "441": 29,
        "442": 190,
        "443": 249,
        "444": 75,
        "445": 11,
        "446": 217,
        "447": 183,
        "448": 156,
        "449": 202,
        "450": 191,
        "451": 127,
        "452": 229,
        "453": 51,
        "454": 203,
        "455": 210,
        "456": 40,
        "457": 41,
        "458": 57,
        "459": 119,
        "460": 96,
        "461": 101,
        "462": 195,
        "463": 221,
        "464": 176,
        "465": 57,
        "466": 5,
        "467": 61,
        "468": 110,
        "469": 85,
        "470": 28,
        "471": 219,
        "472": 74,
        "473": 219,
        "474": 177,
        "475": 23,
        "476": 64,
        "477": 112,
        "478": 228,
        "479": 223,
        "480": 70,
        "481": 132,
        "482": 72,
        "483": 66,
        "484": 12,
        "485": 238,
        "486": 214,
        "487": 224,
        "488": 107,
        "489": 229,
        "490": 104,
        "491": 47,
        "492": 20,
        "493": 101,
        "494": 212,
        "495": 52,
        "496": 162,
        "497": 157,
        "498": 89,
        "499": 15,
        "500": 229,
        "501": 86,
        "502": 28,
        "503": 236,
        "504": 252,
        "505": 77,
        "506": 15,
        "507": 95,
        "508": 91,
        "509": 108,
        "510": 198,
        "511": 25,
        "512": 134,
        "513": 178,
        "514": 67,
        "515": 77,
        "516": 146,
        "517": 148,
        "518": 183,
        "519": 39,
        "520": 230,
        "521": 152,
        "522": 148,
        "523": 33,
        "524": 201,
        "525": 164,
        "526": 8,
        "527": 101,
        "528": 61,
        "529": 184,
        "530": 182,
        "531": 98,
        "532": 136,
        "533": 103,
        "534": 81,
        "535": 51,
        "536": 223,
        "537": 250,
        "538": 160,
        "539": 149,
        "540": 83,
        "541": 228,
        "542": 120,
        "543": 139,
        "544": 26,
        "545": 135,
        "546": 99,
        "547": 174,
        "548": 240,
        "549": 0,
        "550": 217,
        "551": 36,
        "552": 34,
        "553": 184,
        "554": 53,
        "555": 59,
        "556": 211,
        "557": 66,
        "558": 217,
        "559": 91,
        "560": 177,
        "561": 98,
        "562": 126,
        "563": 17,
        "564": 67,
        "565": 169,
        "566": 103,
        "567": 251,
        "568": 247,
        "569": 224,
        "570": 13,
        "571": 82,
        "572": 7,
        "573": 89,
        "574": 251,
        "575": 45,
        "576": 124,
        "577": 2,
        "578": 217,
        "579": 149,
        "580": 250,
        "581": 69,
        "582": 114,
        "583": 118,
        "584": 166,
        "585": 101,
        "586": 226,
        "587": 143,
        "588": 172,
        "589": 129,
        "590": 3,
        "591": 206,
        "592": 128,
        "593": 205,
        "594": 15,
        "595": 161,
        "596": 169,
        "597": 193,
        "598": 28,
        "599": 156,
        "600": 137,
        "601": 174,
        "602": 136,
        "603": 115,
        "604": 83,
        "605": 187,
        "606": 94,
        "607": 246,
        "608": 118,
        "609": 27,
        "610": 175,
        "611": 145,
        "612": 42,
        "613": 26,
        "614": 189,
        "615": 59,
        "616": 77,
        "617": 39,
        "618": 51,
        "619": 165,
        "620": 90,
        "621": 87,
        "622": 124,
        "623": 247,
        "624": 73,
        "625": 128,
        "626": 171,
        "627": 184,
        "628": 148,
        "629": 251,
        "630": 69,
        "631": 114,
        "632": 93,
        "633": 152,
        "634": 201,
        "635": 224,
        "636": 24,
        "637": 202,
        "638": 79,
        "639": 126,
        "640": 241,
        "641": 32,
        "642": 222,
        "643": 168,
        "644": 62,
        "645": 215,
        "646": 7,
        "647": 7,
        "648": 245,
        "649": 190,
        "650": 31,
        "651": 193,
        "652": 92,
        "653": 102,
        "654": 124,
        "655": 70,
        "656": 226,
        "657": 61,
        "658": 184,
        "659": 28,
        "660": 189,
        "661": 157,
        "662": 151,
        "663": 157,
        "664": 184,
        "665": 136,
        "666": 195,
        "667": 191,
        "668": 163,
        "669": 180,
        "670": 214,
        "671": 161,
        "672": 230,
        "673": 14,
        "674": 242,
        "675": 145,
        "676": 128,
        "677": 166,
        "678": 236,
        "679": 127,
        "680": 57,
        "681": 80,
        "682": 9,
        "683": 109,
        "684": 51,
        "685": 83,
        "686": 189,
        "687": 4,
        "688": 21,
        "689": 160,
        "690": 237,
        "691": 53,
        "692": 127,
        "693": 217,
        "694": 245,
        "695": 8,
        "696": 37,
        "697": 193,
        "698": 138,
        "699": 143,
        "700": 241,
        "701": 221,
        "702": 243,
        "703": 95,
        "704": 188,
        "705": 85,
        "706": 118,
        "707": 27,
        "708": 105,
        "709": 20,
        "710": 65,
        "711": 208,
        "712": 74,
        "713": 222,
        "714": 161,
        "715": 100,
        "716": 18,
        "717": 190,
        "718": 106,
        "719": 180,
        "720": 127,
        "721": 252,
        "722": 164,
        "723": 45,
        "724": 190,
        "725": 157,
        "726": 62,
        "727": 11,
        "728": 44,
        "729": 102,
        "730": 202,
        "731": 134,
        "732": 92,
        "733": 164,
        "734": 71,
        "735": 80,
        "736": 241,
        "737": 185,
        "738": 119,
        "739": 10,
        "740": 196,
        "741": 81,
        "742": 235,
        "743": 190,
        "744": 175,
        "745": 53,
        "746": 65,
        "747": 118,
        "748": 247,
        "749": 179,
        "750": 47,
        "751": 220,
        "752": 222,
        "753": 117,
        "754": 178,
        "755": 69,
        "756": 171,
        "757": 229,
        "758": 192,
        "759": 160,
        "760": 54,
        "761": 145,
        "762": 32,
        "763": 73,
        "764": 230,
        "765": 150,
        "766": 239,
        "767": 81,
        "768": 48,
        "769": 247,
        "770": 209,
        "771": 69,
        "772": 209,
        "773": 203,
        "774": 29,
        "775": 14,
        "776": 133,
        "777": 213,
        "778": 43,
        "779": 100,
        "780": 211,
        "781": 241,
        "782": 22,
        "783": 194,
        "784": 40,
        "785": 185,
        "786": 222,
        "787": 239,
        "788": 38,
        "789": 26,
        "790": 15,
        "791": 163,
        "792": 206,
        "793": 121,
        "794": 85,
        "795": 157,
        "796": 145,
        "797": 218,
        "798": 91,
        "799": 150,
        "800": 145,
        "801": 242,
        "802": 33,
        "803": 26,
        "804": 78,
        "805": 24,
        "806": 166,
        "807": 107,
        "808": 215,
        "809": 145,
        "810": 22,
        "811": 227,
        "812": 249,
        "813": 209,
        "814": 169,
        "815": 169,
        "816": 229,
        "817": 117,
        "818": 56,
        "819": 230,
        "820": 41,
        "821": 225,
        "822": 139,
        "823": 125,
        "824": 167,
        "825": 225,
        "826": 208,
        "827": 174,
        "828": 101,
        "829": 115,
        "830": 66,
        "831": 8,
        "832": 121,
        "833": 176,
        "834": 31,
        "835": 10,
        "836": 109,
        "837": 57,
        "838": 149,
        "839": 185,
        "840": 140,
        "841": 29,
        "842": 154,
        "843": 226,
        "844": 133,
        "845": 58,
        "846": 252,
        "847": 242,
        "848": 97,
        "849": 102,
        "850": 220,
        "851": 134,
        "852": 145,
        "853": 163,
        "854": 48,
        "855": 249,
        "856": 143,
        "857": 135,
        "858": 154,
        "859": 17,
        "860": 33,
        "861": 130,
        "862": 166,
        "863": 75,
        "864": 188,
        "865": 155,
        "866": 159,
        "867": 66,
        "868": 63,
        "869": 118,
        "870": 211,
        "871": 211,
        "872": 59,
        "873": 251,
        "874": 153,
        "875": 206,
        "876": 134,
        "877": 7,
        "878": 152,
        "879": 95,
        "880": 44,
        "881": 221,
        "882": 55,
        "883": 255,
        "884": 86,
        "885": 86,
        "886": 97,
        "887": 123,
        "888": 5,
        "889": 33,
        "890": 107,
        "891": 163,
        "892": 255,
        "893": 63,
        "894": 125,
        "895": 159,
        "896": 131,
        "897": 216,
        "898": 0,
        "899": 28,
        "900": 209,
        "901": 35,
        "902": 17,
        "903": 172,
        "904": 177,
        "905": 11,
        "906": 207,
        "907": 228,
        "908": 227,
        "909": 100,
        "910": 19,
        "911": 91,
        "912": 229,
        "913": 115,
        "914": 215,
        "915": 232,
        "916": 40,
        "917": 90,
        "918": 246,
        "919": 247,
        "920": 111,
        "921": 236,
        "922": 165,
        "923": 20,
        "924": 184,
        "925": 194,
        "926": 146,
        "927": 176,
        "928": 195,
        "929": 108,
        "930": 204,
        "931": 237,
        "932": 9,
        "933": 171,
        "934": 105,
        "935": 72,
        "936": 100,
        "937": 57,
        "938": 23,
        "939": 191,
        "940": 153,
        "941": 28,
        "942": 44,
        "943": 47,
        "944": 214,
        "945": 122,
        "946": 101,
        "947": 120,
        "948": 46,
        "949": 166,
        "950": 28,
        "951": 87,
        "952": 110,
        "953": 120,
        "954": 78,
        "955": 45,
        "956": 191,
        "957": 13,
        "958": 251,
        "959": 4,
        "960": 245,
        "961": 51,
        "962": 214,
        "963": 149,
        "964": 152,
        "965": 243,
        "966": 215,
        "967": 0,
        "968": 99,
        "969": 171,
        "970": 249,
        "971": 143,
        "972": 15,
        "973": 156,
        "974": 221,
        "975": 123,
        "976": 83,
        "977": 4,
        "978": 129,
        "979": 34,
        "980": 122,
        "981": 64,
        "982": 227,
        "983": 107,
        "984": 193,
        "985": 227,
        "986": 14,
        "987": 68,
        "988": 20,
        "989": 74,
        "990": 79,
        "991": 9,
        "992": 134,
        "993": 24,
        "994": 27,
        "995": 190,
        "996": 22,
        "997": 172,
        "998": 22,
        "999": 26,
        "1000": 84,
        "1001": 122,
        "1002": 210,
        "1003": 93,
        "1004": 77,
        "1005": 3,
        "1006": 107,
        "1007": 69,
        "1008": 197,
        "1009": 102,
        "1010": 212,
        "1011": 52,
        "1012": 50,
        "1013": 40,
        "1014": 23,
        "1015": 91,
        "1016": 59,
        "1017": 161,
        "1018": 125,
        "1019": 160,
        "1020": 22,
        "1021": 111,
        "1022": 150,
        "1023": 29,
        "1024": 128,
        "1025": 174,
        "1026": 77,
        "1027": 0,
        "1028": 41,
        "1029": 88,
        "1030": 164,
        "1031": 32,
        "1032": 7,
        "1033": 152,
        "1034": 122,
        "1035": 168,
        "1036": 142,
        "1037": 160,
        "1038": 250,
        "1039": 158,
        "1040": 58,
        "1041": 164,
        "1042": 129,
        "1043": 9,
        "1044": 178,
        "1045": 211,
        "1046": 77,
        "1047": 239,
        "1048": 89,
        "1049": 50,
        "1050": 39,
        "1051": 165,
        "1052": 154,
        "1053": 188,
        "1054": 193,
        "1055": 202,
        "1056": 85,
        "1057": 99,
        "1058": 238,
        "1059": 106,
        "1060": 208,
        "1061": 115,
        "1062": 79,
        "1063": 146,
        "1064": 20,
        "1065": 6,
        "1066": 168,
        "1067": 73,
        "1068": 48,
        "1069": 95,
        "1070": 191,
        "1071": 207,
        "1072": 145,
        "1073": 166,
        "1074": 161,
        "1075": 202,
        "1076": 104,
        "1077": 173,
        "1078": 240,
        "1079": 191,
        "1080": 104,
        "1081": 113,
        "1082": 15,
        "1083": 228,
        "1084": 164,
        "1085": 108,
        "1086": 172,
        "1087": 57,
        "1088": 231,
        "1089": 171,
        "1090": 43,
        "1091": 102,
        "1092": 254,
        "1093": 132,
        "1094": 63,
        "1095": 163,
        "1096": 133,
        "1097": 111,
        "1098": 154,
        "1099": 102,
        "1100": 50,
        "1101": 30,
        "1102": 79,
        "1103": 108,
        "1104": 209,
        "1105": 145,
        "1106": 175,
        "1107": 1,
        "1108": 254,
        "1109": 170,
        "1110": 233,
        "1111": 96,
        "1112": 45,
        "1113": 174,
        "1114": 134,
        "1115": 60,
        "1116": 43,
        "1117": 17,
        "1118": 229,
        "1119": 61,
        "1120": 63,
        "1121": 5,
        "1122": 142,
        "1123": 188,
        "1124": 92,
        "1125": 87,
        "1126": 8,
        "1127": 47,
        "1128": 0,
        "1129": 9,
        "1130": 34,
        "1131": 73,
        "1132": 154,
        "1133": 97,
        "1134": 50,
        "1135": 176,
        "1136": 136,
        "1137": 244,
        "1138": 98,
        "1139": 189,
        "1140": 89,
        "1141": 225,
        "1142": 174,
        "1143": 33,
        "1144": 157,
        "1145": 234,
        "1146": 102,
        "1147": 157,
        "1148": 178,
        "1149": 140,
        "1150": 175,
        "1151": 76,
        "1152": 215,
        "1153": 47,
        "1154": 229,
        "1155": 84,
        "1156": 124,
        "1157": 113,
        "1158": 191,
        "1159": 210,
        "1160": 79,
        "1161": 151,
        "1162": 59,
        "1163": 81,
        "1164": 247,
        "1165": 53,
        "1166": 11,
        "1167": 121,
        "1168": 54,
        "1169": 231,
        "1170": 249,
        "1171": 239,
        "1172": 200,
        "1173": 119,
        "1174": 168,
        "1175": 68,
        "1176": 207,
        "1177": 158,
        "1178": 103,
        "1179": 16,
        "1180": 236,
        "1181": 171,
        "1182": 92,
        "1183": 162,
        "1184": 114,
        "1185": 168,
        "1186": 107,
        "1187": 51,
        "1188": 241,
        "1189": 93,
        "1190": 109,
        "1191": 244,
        "1192": 87,
        "1193": 130,
        "1194": 124,
        "1195": 53,
        "1196": 199,
        "1197": 245,
        "1198": 135,
        "1199": 195,
        "1200": 241,
        "1201": 98,
        "1202": 252,
        "1203": 15,
        "1204": 203,
        "1205": 162,
        "1206": 133,
        "1207": 188,
        "1208": 140,
        "1209": 34,
        "1210": 11,
        "1211": 184,
        "1212": 216,
        "1213": 225,
        "1214": 132,
        "1215": 117,
        "1216": 12,
        "1217": 194,
        "1218": 219,
        "1219": 90,
        "1220": 224,
        "1221": 192,
        "1222": 138,
        "1223": 115,
        "1224": 206,
        "1225": 12,
        "1226": 62,
        "1227": 61,
        "1228": 103,
        "1229": 131,
        "1230": 106,
        "1231": 215,
        "1232": 140,
        "1233": 30,
        "1234": 168,
        "1235": 188,
        "1236": 0,
        "1237": 26,
        "1238": 88,
        "1239": 54,
        "1240": 234,
        "1241": 203,
        "1242": 61,
        "1243": 86,
        "1244": 230,
        "1245": 204,
        "1246": 43,
        "1247": 103,
        "1248": 15,
        "1249": 74,
        "1250": 66,
        "1251": 174,
        "1252": 42,
        "1253": 239,
        "1254": 70,
        "1255": 250,
        "1256": 184,
        "1257": 73,
        "1258": 62,
        "1259": 228,
        "1260": 122,
        "1261": 142,
        "1262": 118,
        "1263": 232,
        "1264": 20,
        "1265": 56,
        "1266": 51,
        "1267": 176,
        "1268": 121,
        "1269": 7,
        "1270": 99,
        "1271": 247,
        "1272": 44,
        "1273": 201,
        "1274": 123,
        "1275": 10,
        "1276": 50,
        "1277": 29,
        "1278": 133,
        "1279": 54,
        "1280": 233,
        "1281": 130,
        "1282": 231,
        "1283": 12,
        "1284": 0,
        "1285": 12,
        "1286": 165,
        "1287": 20,
        "1288": 189,
        "1289": 95,
        "1290": 6,
        "1291": 60,
        "1292": 73,
        "1293": 239,
        "1294": 25,
        "1295": 223,
        "1296": 165,
        "1297": 253,
        "1298": 24,
        "1299": 24,
        "1300": 100,
        "1301": 236,
        "1302": 49,
        "1303": 221,
        "1304": 105,
        "1305": 131,
        "1306": 56,
        "1307": 135,
        "1308": 209,
        "1309": 151,
        "1310": 159,
        "1311": 112,
        "1312": 12,
        "1313": 133,
        "1314": 53,
        "1315": 4,
        "1316": 82,
        "1317": 139,
        "1318": 45,
        "1319": 38,
        "1320": 76,
        "1321": 116,
        "1322": 46,
        "1323": 236,
        "1324": 136,
        "1325": 1,
        "1326": 221,
        "1327": 65,
        "1328": 67,
        "1329": 226,
        "1330": 197,
        "1331": 65,
        "1332": 59,
        "1333": 138,
        "1334": 140,
        "1335": 251,
        "1336": 30,
        "1337": 78,
        "1338": 1,
        "1339": 54,
        "1340": 60,
        "1341": 212,
        "1342": 107,
        "1343": 67,
        "1344": 217,
        "1345": 170,
        "1346": 34,
        "1347": 212,
        "1348": 62,
        "1349": 224,
        "1350": 160,
        "1351": 121,
        "1352": 226,
        "1353": 225,
        "1354": 236,
        "1355": 151,
        "1356": 102,
        "1357": 144,
        "1358": 172,
        "1359": 51,
        "1360": 4,
        "1361": 183,
        "1362": 225,
        "1363": 173,
        "1364": 211,
        "1365": 156,
        "1366": 209,
        "1367": 43,
        "1368": 42,
        "1369": 200,
        "1370": 215,
        "1371": 80,
        "1372": 119,
        "1373": 244,
        "1374": 65,
        "1375": 126,
        "1376": 92,
        "1377": 203,
        "1378": 135,
        "1379": 207,
        "1380": 19,
        "1381": 194,
        "1382": 36,
        "1383": 222,
        "1384": 61,
        "1385": 5,
        "1386": 114,
        "1387": 191,
        "1388": 200,
        "1389": 238,
        "1390": 12,
        "1391": 105,
        "1392": 12,
        "1393": 3,
        "1394": 61,
        "1395": 21,
        "1396": 177,
        "1397": 80,
        "1398": 236,
        "1399": 42,
        "1400": 228,
        "1401": 227,
        "1402": 139,
        "1403": 62,
        "1404": 244,
        "1405": 189,
        "1406": 19,
        "1407": 149,
        "1408": 194,
        "1409": 18,
        "1410": 196,
        "1411": 193,
        "1412": 63,
        "1413": 193,
        "1414": 66,
        "1415": 10,
        "1416": 58,
        "1417": 51,
        "1418": 136,
        "1419": 251,
        "1420": 224,
        "1421": 153,
        "1422": 192,
        "1423": 250,
        "1424": 186,
        "1425": 164,
        "1426": 131,
        "1427": 73,
        "1428": 66,
        "1429": 128,
        "1430": 250,
        "1431": 193,
        "1432": 236,
        "1433": 12,
        "1434": 121,
        "1435": 133,
        "1436": 244,
        "1437": 97,
        "1438": 194,
        "1439": 153,
        "1440": 162,
        "1441": 3,
        "1442": 219,
        "1443": 99,
        "1444": 156,
        "1445": 142,
        "1446": 6,
        "1447": 132,
        "1448": 135,
        "1449": 179,
        "1450": 54,
        "1451": 72,
        "1452": 40,
        "1453": 5,
        "1454": 53,
        "1455": 66,
        "1456": 42,
        "1457": 173,
        "1458": 21,
        "1459": 154,
        "1460": 36,
        "1461": 253,
        "1462": 157,
        "1463": 70,
        "1464": 158,
        "1465": 4,
        "1466": 211,
        "1467": 33,
        "1468": 177,
        "1469": 184,
        "1470": 33,
        "1471": 143,
        "1472": 79,
        "1473": 220,
        "1474": 136,
        "1475": 54,
        "1476": 161,
        "1477": 192,
        "1478": 154,
        "1479": 130,
        "1480": 222,
        "1481": 1,
        "1482": 99,
        "1483": 201,
        "1484": 71,
        "1485": 59,
        "1486": 110,
        "1487": 205,
        "1488": 21,
        "1489": 169,
        "1490": 228,
        "1491": 129,
        "1492": 142,
        "1493": 95,
        "1494": 250,
        "1495": 35,
        "1496": 230,
        "1497": 73,
        "1498": 31,
        "1499": 135,
        "1500": 35,
        "1501": 55,
        "1502": 133,
        "1503": 78,
        "1504": 17,
        "1505": 196,
        "1506": 247,
        "1507": 69,
        "1508": 66,
        "1509": 104,
        "1510": 232,
        "1511": 153,
        "1512": 90,
        "1513": 59,
        "1514": 207,
        "1515": 26,
        "1516": 213,
        "1517": 168,
        "1518": 133,
        "1519": 18,
        "1520": 187,
        "1521": 33,
        "1522": 157,
        "1523": 33,
        "1524": 139,
        "1525": 245,
        "1526": 37,
        "1527": 244,
        "1528": 55,
        "1529": 170,
        "1530": 165,
        "1531": 211,
        "1532": 166,
        "1533": 147,
        "1534": 200,
        "1535": 187,
        "1536": 87,
        "1537": 212,
        "1538": 3,
        "1539": 1,
        "1540": 138,
        "1541": 18,
        "1542": 41,
        "1543": 145,
        "1544": 1,
        "1545": 234,
        "1546": 22,
        "1547": 240,
        "1548": 128,
        "1549": 182,
        "1550": 84,
        "1551": 137,
        "1552": 17,
        "1553": 234,
        "1554": 176,
        "1555": 199,
        "1556": 22,
        "1557": 89,
        "1558": 37,
        "1559": 184,
        "1560": 131,
        "1561": 14,
        "1562": 70,
        "1563": 237,
        "1564": 33,
        "1565": 196,
        "1566": 75,
        "1567": 121,
        "1568": 90,
        "1569": 59,
        "1570": 197,
        "1571": 54,
        "1572": 183,
        "1573": 119,
        "1574": 7,
        "1575": 132,
        "1576": 172,
        "1577": 202,
        "1578": 121,
        "1579": 214,
        "1580": 101,
        "1581": 94,
        "1582": 217,
        "1583": 255,
        "1584": 158,
        "1585": 106,
        "1586": 100,
        "1587": 146,
        "1588": 218,
        "1589": 31,
        "1590": 241,
        "1591": 166,
        "1592": 121,
        "1593": 134,
        "1594": 248,
        "1595": 25,
        "1596": 245,
        "1597": 217,
        "1598": 249,
        "1599": 202,
        "1600": 96,
        "1601": 23,
        "1602": 244,
        "1603": 130,
        "1604": 203,
        "1605": 42,
        "1606": 146,
        "1607": 239,
        "1608": 176,
        "1609": 218,
        "1610": 252,
        "1611": 48,
        "1612": 127,
        "1613": 91,
        "1614": 128,
        "1615": 97,
        "1616": 190,
        "1617": 109,
        "1618": 65,
        "1619": 111,
        "1620": 85,
        "1621": 88,
        "1622": 4,
        "1623": 57,
        "1624": 162,
        "1625": 169,
        "1626": 203,
        "1627": 142,
        "1628": 192,
        "1629": 113,
        "1630": 83,
        "1631": 163,
        "1632": 234,
        "1633": 231,
        "1634": 251,
        "1635": 180,
        "1636": 192,
        "1637": 92,
        "1638": 108,
        "1639": 145,
        "1640": 62,
        "1641": 114,
        "1642": 128,
        "1643": 110,
        "1644": 117,
        "1645": 158,
        "1646": 46,
        "1647": 65,
        "1648": 231,
        "1649": 68,
        "1650": 210,
        "1651": 42,
        "1652": 54,
        "1653": 25,
        "1654": 140,
        "1655": 237,
        "1656": 45,
        "1657": 96,
        "1658": 209,
        "1659": 133,
        "1660": 228,
        "1661": 51,
        "1662": 202,
        "1663": 170,
        "1664": 72,
        "1665": 249,
        "1666": 178,
        "1667": 56,
        "1668": 246,
        "1669": 92,
        "1670": 81,
        "1671": 137,
        "1672": 194,
        "1673": 223,
        "1674": 21,
        "1675": 123,
        "1676": 216,
        "1677": 79,
        "1678": 50,
        "1679": 224,
        "1680": 174,
        "1681": 125,
        "1682": 242,
        "1683": 135,
        "1684": 217,
        "1685": 17,
        "1686": 185,
        "1687": 16,
        "1688": 99,
        "1689": 148,
        "1690": 215,
        "1691": 154,
        "1692": 33,
        "1693": 45,
        "1694": 184,
        "1695": 148,
        "1696": 39,
        "1697": 105,
        "1698": 48,
        "1699": 90,
        "1700": 29,
        "1701": 160,
        "1702": 131,
        "1703": 77,
        "1704": 102,
        "1705": 210,
        "1706": 100,
        "1707": 144,
        "1708": 100,
        "1709": 38,
        "1710": 131,
        "1711": 75,
        "1712": 59,
        "1713": 7,
        "1714": 165,
        "1715": 215,
        "1716": 225,
        "1717": 129,
        "1718": 175,
        "1719": 91,
        "1720": 131,
        "1721": 109,
        "1722": 233,
        "1723": 176,
        "1724": 102,
        "1725": 151,
        "1726": 233,
        "1727": 208,
        "1728": 80,
        "1729": 14,
        "1730": 6,
        "1731": 60,
        "1732": 148,
        "1733": 53,
        "1734": 70,
        "1735": 70,
        "1736": 169,
        "1737": 172,
        "1738": 71,
        "1739": 247,
        "1740": 8,
        "1741": 38,
        "1742": 166,
        "1743": 209,
        "1744": 45,
        "1745": 81,
        "1746": 98,
        "1747": 58,
        "1748": 241,
        "1749": 72,
        "1750": 32,
        "1751": 62,
        "1752": 10,
        "1753": 70,
        "1754": 101,
        "1755": 237,
        "1756": 155,
        "1757": 64,
        "1758": 9,
        "1759": 79,
        "1760": 33,
        "1761": 130,
        "1762": 57,
        "1763": 209,
        "1764": 152,
        "1765": 34,
        "1766": 220,
        "1767": 139,
        "1768": 51,
        "1769": 160,
        "1770": 47,
        "1771": 227,
        "1772": 147,
        "1773": 1,
        "1774": 104,
        "1775": 103,
        "1776": 74,
        "1777": 223,
        "1778": 252,
        "1779": 200,
        "1780": 130,
        "1781": 143,
        "1782": 221,
        "1783": 33,
        "1784": 88,
        "1785": 236,
        "1786": 199,
        "1787": 148,
        "1788": 240,
        "1789": 115,
        "1790": 124,
        "1791": 175,
        "1792": 216,
        "1793": 168,
        "1794": 41,
        "1795": 135,
        "1796": 127,
        "1797": 50,
        "1798": 236,
        "1799": 47,
        "1800": 79,
        "1801": 152,
        "1802": 254,
        "1803": 66,
        "1804": 166,
        "1805": 122,
        "1806": 241,
        "1807": 36,
        "1808": 57,
        "1809": 181,
        "1810": 144,
        "1811": 68,
        "1812": 214,
        "1813": 157,
        "1814": 20,
        "1815": 29,
        "1816": 44,
        "1817": 52,
        "1818": 38,
        "1819": 191,
        "1820": 198,
        "1821": 146,
        "1822": 52,
        "1823": 231,
        "1824": 110,
        "1825": 59,
        "1826": 140,
        "1827": 198,
        "1828": 197,
        "1829": 214,
        "1830": 104,
        "1831": 208,
        "1832": 111,
        "1833": 166,
        "1834": 32,
        "1835": 39,
        "1836": 3,
        "1837": 250,
        "1838": 57,
        "1839": 210,
        "1840": 171,
        "1841": 246,
        "1842": 240,
        "1843": 72,
        "1844": 194,
        "1845": 170,
        "1846": 225,
        "1847": 177,
        "1848": 189,
        "1849": 120,
        "1850": 143,
        "1851": 120,
        "1852": 111,
        "1853": 124,
        "1854": 145,
        "1855": 12,
        "1856": 253,
        "1857": 68,
        "1858": 91,
        "1859": 105,
        "1860": 148,
        "1861": 236,
        "1862": 236,
        "1863": 194,
        "1864": 166,
        "1865": 203,
        "1866": 77,
        "1867": 129,
        "1868": 7,
        "1869": 125,
        "1870": 23,
        "1871": 96,
        "1872": 55,
        "1873": 13,
        "1874": 203,
        "1875": 82,
        "1876": 37,
        "1877": 213,
        "1878": 240,
        "1879": 45,
        "1880": 171,
        "1881": 205,
        "1882": 68,
        "1883": 70,
        "1884": 222,
        "1885": 90,
        "1886": 62,
        "1887": 54,
        "1888": 199,
        "1889": 42,
        "1890": 131,
        "1891": 69,
        "1892": 164,
        "1893": 219,
        "1894": 16,
        "1895": 123,
        "1896": 50,
        "1897": 192,
        "1898": 85,
        "1899": 167,
        "1900": 3,
        "1901": 134,
        "1902": 233,
        "1903": 243,
        "1904": 159,
        "1905": 213,
        "1906": 165,
        "1907": 233,
        "1908": 10,
        "1909": 136,
        "1910": 13,
        "1911": 160,
        "1912": 169,
        "1913": 205,
        "1914": 96,
        "1915": 66,
        "1916": 13,
        "1917": 161,
        "1918": 227,
        "1919": 107,
        "1920": 22,
        "1921": 96,
        "1922": 158,
        "1923": 28,
        "1924": 203,
        "1925": 43,
        "1926": 45,
        "1927": 156,
        "1928": 9,
        "1929": 70,
        "1930": 37,
        "1931": 210,
        "1932": 202,
        "1933": 97,
        "1934": 153,
        "1935": 192,
        "1936": 16,
        "1937": 80,
        "1938": 70,
        "1939": 172,
        "1940": 232,
        "1941": 105,
        "1942": 57,
        "1943": 237,
        "1944": 89,
        "1945": 51,
        "1946": 224,
        "1947": 176,
        "1948": 224,
        "1949": 24,
        "1950": 19,
        "1951": 129,
        "1952": 212,
        "1953": 252,
        "1954": 31,
        "1955": 84,
        "1956": 117,
        "1957": 14,
        "1958": 142,
        "1959": 131,
        "1960": 3,
        "1961": 186,
        "1962": 127,
        "1963": 44,
        "1964": 102,
        "1965": 76,
        "1966": 50,
        "1967": 23,
        "1968": 136,
        "1969": 108,
        "1970": 226,
        "1971": 226,
        "1972": 219,
        "1973": 241,
        "1974": 29,
        "1975": 106,
        "1976": 21,
        "1977": 23,
        "1978": 194,
        "1979": 136,
        "1980": 232,
        "1981": 125,
        "1982": 58,
        "1983": 67,
        "1984": 146,
        "1985": 175,
        "1986": 34,
        "1987": 243,
        "1988": 102,
        "1989": 194,
        "1990": 47,
        "1991": 71,
        "1992": 148,
        "1993": 29,
        "1994": 252,
        "1995": 216,
        "1996": 108,
        "1997": 237,
        "1998": 104,
        "1999": 185,
        "2000": 197,
        "2001": 254,
        "2002": 197,
        "2003": 22,
        "2004": 40,
        "2005": 193,
        "2006": 95,
        "2007": 167,
        "2008": 70,
        "2009": 102,
        "2010": 220,
        "2011": 107,
        "2012": 79,
        "2013": 35,
        "2014": 37,
        "2015": 16,
        "2016": 174,
        "2017": 52,
        "2018": 51,
        "2019": 159,
        "2020": 237,
        "2021": 125,
        "2022": 217,
        "2023": 174,
        "2024": 118,
        "2025": 31,
        "2026": 19,
        "2027": 69,
        "2028": 177,
        "2029": 78,
        "2030": 136,
        "2031": 93,
        "2032": 231,
        "2033": 135,
        "2034": 18,
        "2035": 45,
        "2036": 148,
        "2037": 14,
        "2038": 62,
        "2039": 60,
        "2040": 161,
        "2041": 17,
        "2042": 251,
        "2043": 199,
        "2044": 176,
        "2045": 187,
        "2046": 75,
        "2047": 208,
        "2048": 226,
        "2049": 130,
        "2050": 253,
        "2051": 233,
        "2052": 214,
        "2053": 128,
        "2054": 39,
        "2055": 68,
        "2056": 214,
        "2057": 190,
        "2058": 223,
        "2059": 86,
        "2060": 51,
        "2061": 225,
        "2062": 115,
        "2063": 151,
        "2064": 141,
        "2065": 33,
        "2066": 3,
        "2067": 142,
        "2068": 229,
        "2069": 250,
        "2070": 106,
        "2071": 133,
        "2072": 159,
        "2073": 126,
        "2074": 198,
        "2075": 68,
        "2076": 82,
        "2077": 101,
        "2078": 224,
        "2079": 182,
        "2080": 157,
        "2081": 113,
        "2082": 203,
        "2083": 114,
        "2084": 214,
        "2085": 140,
        "2086": 0,
        "2087": 40,
        "2088": 67,
        "2089": 241,
        "2090": 53,
        "2091": 63,
        "2092": 144,
        "2093": 200,
        "2094": 108,
        "2095": 216,
        "2096": 218,
        "2097": 192,
        "2098": 13,
        "2099": 3,
        "2100": 198,
        "2101": 33,
        "2102": 213,
        "2103": 143,
        "2104": 203,
        "2105": 65,
        "2106": 186,
        "2107": 156,
        "2108": 208,
        "2109": 144,
        "2110": 222,
        "2111": 80,
        "2112": 223,
        "2113": 65,
        "2114": 169,
        "2115": 125,
        "2116": 243,
        "2117": 218,
        "2118": 134,
        "2119": 0,
        "2120": 111,
        "2121": 34,
        "2122": 39,
        "2123": 16,
        "2124": 94,
        "2125": 155,
        "2126": 180,
        "2127": 245,
        "2128": 249,
        "2129": 121,
        "2130": 20,
        "2131": 27,
        "2132": 135,
        "2133": 118,
        "2134": 18,
        "2135": 196,
        "2136": 132,
        "2137": 0,
        "2138": 229,
        "2139": 13,
        "2140": 137,
        "2141": 42,
        "2142": 6,
        "2143": 21,
        "2144": 88,
        "2145": 182,
        "2146": 67,
        "2147": 242,
        "2148": 50,
        "2149": 238,
        "2150": 40,
        "2151": 157,
        "2152": 84,
        "2153": 72,
        "2154": 32,
        "2155": 176,
        "2156": 95,
        "2157": 204,
        "2158": 37,
        "2159": 237,
        "2160": 98,
        "2161": 23,
        "2162": 181,
        "2163": 134,
        "2164": 207,
        "2165": 165,
        "2166": 57,
        "2167": 2,
        "2168": 57,
        "2169": 209,
        "2170": 133,
        "2171": 46,
        "2172": 234,
        "2173": 163,
        "2174": 45,
        "2175": 15,
        "2176": 83,
        "2177": 250,
        "2178": 157,
        "2179": 172,
        "2180": 157,
        "2181": 161,
        "2182": 66,
        "2183": 247,
        "2184": 199,
        "2185": 219,
        "2186": 114,
        "2187": 75,
        "2188": 183,
        "2189": 64,
        "2190": 242,
        "2191": 233,
        "2192": 214,
        "2193": 178,
        "2194": 174,
        "2195": 23,
        "2196": 93,
        "2197": 183,
        "2198": 222,
        "2199": 12,
        "2200": 134,
        "2201": 144,
        "2202": 148,
        "2203": 93,
        "2204": 207,
        "2205": 192,
        "2206": 58,
        "2207": 97,
        "2208": 62,
        "2209": 163,
        "2210": 90,
        "2211": 167,
        "2212": 92,
        "2213": 60,
        "2214": 35,
        "2215": 67,
        "2216": 137,
        "2217": 127,
        "2218": 58,
        "2219": 237,
        "2220": 120,
        "2221": 205,
        "2222": 110,
        "2223": 94,
        "2224": 177,
        "2225": 32,
        "2226": 62,
        "2227": 146,
        "2228": 180,
        "2229": 201,
        "2230": 161,
        "2231": 91,
        "2232": 252,
        "2233": 248,
        "2234": 226,
        "2235": 20,
        "2236": 222,
        "2237": 201,
        "2238": 220,
        "2239": 81,
        "2240": 116,
        "2241": 162,
        "2242": 161,
        "2243": 150,
        "2244": 111,
        "2245": 15,
        "2246": 21,
        "2247": 237,
        "2248": 211,
        "2249": 65,
        "2250": 180,
        "2251": 130,
        "2252": 221,
        "2253": 241,
        "2254": 15,
        "2255": 88,
        "2256": 171,
        "2257": 61,
        "2258": 255,
        "2259": 38,
        "2260": 228,
        "2261": 37,
        "2262": 228,
        "2263": 224,
        "2264": 183,
        "2265": 231,
        "2266": 145,
        "2267": 164,
        "2268": 90,
        "2269": 89,
        "2270": 111,
        "2271": 103,
        "2272": 44,
        "2273": 35,
        "2274": 194,
        "2275": 152,
        "2276": 116,
        "2277": 119,
        "2278": 218,
        "2279": 30,
        "2280": 224,
        "2281": 45,
        "2282": 186,
        "2283": 33,
        "2284": 25,
        "2285": 10,
        "2286": 195,
        "2287": 126,
        "2288": 11,
        "2289": 3,
        "2290": 196,
        "2291": 74,
        "2292": 32,
        "2293": 43,
        "2294": 92,
        "2295": 23,
        "2296": 212,
        "2297": 197,
        "2298": 91,
        "2299": 131,
        "2300": 12,
        "2301": 170,
        "2302": 45,
        "2303": 169,
        "2304": 42,
        "2305": 21,
        "2306": 239,
        "2307": 158,
        "2308": 158,
        "2309": 139,
        "2310": 77,
        "2311": 255,
        "2312": 113,
        "2313": 34,
        "2314": 235,
        "2315": 204,
        "2316": 12,
        "2317": 232,
        "2318": 103,
        "2319": 209,
        "2320": 104,
        "2321": 241,
        "2322": 225,
        "2323": 145,
        "2324": 111,
        "2325": 254,
        "2326": 61,
        "2327": 76,
        "2328": 214,
        "2329": 19,
        "2330": 143,
        "2331": 37,
        "2332": 250,
        "2333": 158,
        "2334": 93,
        "2335": 42,
        "2336": 71,
        "2337": 223,
        "2338": 68,
        "2339": 249,
        "2340": 181,
        "2341": 75,
        "2342": 171,
        "2343": 234,
        "2344": 148,
        "2345": 140,
        "2346": 226,
        "2347": 90,
        "2348": 224,
        "2349": 76,
        "2350": 79,
        "2351": 135,
        "2352": 18,
        "2353": 126,
        "2354": 41,
        "2355": 125,
        "2356": 139,
        "2357": 115,
        "2358": 27,
        "2359": 32,
        "2360": 134,
        "2361": 250,
        "2362": 19,
        "2363": 81,
        "2364": 32,
        "2365": 178,
        "2366": 200,
        "2367": 113,
        "2368": 148,
        "2369": 246,
        "2370": 56,
        "2371": 211,
        "2372": 17,
        "2373": 110,
        "2374": 197,
        "2375": 228,
        "2376": 144,
        "2377": 37,
        "2378": 113,
        "2379": 201,
        "2380": 57,
        "2381": 183,
        "2382": 240,
        "2383": 247,
        "2384": 65,
        "2385": 146,
        "2386": 183,
        "2387": 66,
        "2388": 162,
        "2389": 7,
        "2390": 60,
        "2391": 59,
        "2392": 191,
        "2393": 0,
        "2394": 8,
        "2395": 66,
        "2396": 205,
        "2397": 28,
        "2398": 89,
        "2399": 111,
        "2400": 102,
        "2401": 67,
        "2402": 204,
        "2403": 191,
        "2404": 9,
        "2405": 46,
        "2406": 4,
        "2407": 255,
        "2408": 204,
        "2409": 97,
        "2410": 252,
        "2411": 237,
        "2412": 61,
        "2413": 195,
        "2414": 38,
        "2415": 36,
        "2416": 133,
        "2417": 160,
        "2418": 163,
        "2419": 65,
        "2420": 72,
        "2421": 209,
        "2422": 143,
        "2423": 71,
        "2424": 155,
        "2425": 214,
        "2426": 89,
        "2427": 69,
        "2428": 13,
        "2429": 198,
        "2430": 103,
        "2431": 244,
        "2432": 79,
        "2433": 155,
        "2434": 17,
        "2435": 124,
        "2436": 71,
        "2437": 237,
        "2438": 162,
        "2439": 152,
        "2440": 182,
        "2441": 116,
        "2442": 115,
        "2443": 63,
        "2444": 80,
        "2445": 243,
        "2446": 103,
        "2447": 248,
        "2448": 225,
        "2449": 239,
        "2450": 209,
        "2451": 216,
        "2452": 181,
        "2453": 212,
        "2454": 230,
        "2455": 226,
        "2456": 85,
        "2457": 165,
        "2458": 221,
        "2459": 218,
        "2460": 96,
        "2461": 145,
        "2462": 189,
        "2463": 13,
        "2464": 111,
        "2465": 143,
        "2466": 124,
        "2467": 115,
        "2468": 133,
        "2469": 37,
        "2470": 1,
        "2471": 51,
        "2472": 139,
        "2473": 67,
        "2474": 105,
        "2475": 214,
        "2476": 154,
        "2477": 128,
        "2478": 69,
        "2479": 66,
        "2480": 184,
        "2481": 153,
        "2482": 253,
        "2483": 129,
        "2484": 9,
        "2485": 150,
        "2486": 165,
        "2487": 208,
        "2488": 235,
        "2489": 66,
        "2490": 64,
        "2491": 249,
        "2492": 190,
        "2493": 32,
        "2494": 211,
        "2495": 181,
        "2496": 112,
        "2497": 29,
        "2498": 164,
        "2499": 60,
        "2500": 56,
        "2501": 241,
        "2502": 70,
        "2503": 163,
        "2504": 140,
        "2505": 12,
        "2506": 247,
        "2507": 199,
        "2508": 87,
        "2509": 75,
        "2510": 0,
        "2511": 71,
        "2512": 7,
        "2513": 11,
        "2514": 142,
        "2515": 81,
        "2516": 148,
        "2517": 201,
        "2518": 238,
        "2519": 22,
        "2520": 209,
        "2521": 110,
        "2522": 249,
        "2523": 174,
        "2524": 112,
        "2525": 85,
        "2526": 65,
        "2527": 233,
        "2528": 252,
        "2529": 130,
        "2530": 203,
        "2531": 190,
        "2532": 53,
        "2533": 255,
        "2534": 156,
        "2535": 187,
        "2536": 185,
        "2537": 39,
        "2538": 11,
        "2539": 168,
        "2540": 53,
        "2541": 134,
        "2542": 163,
        "2543": 163,
        "2544": 6,
        "2545": 246,
        "2546": 127,
        "2547": 43,
        "2548": 19,
        "2549": 255,
        "2550": 102,
        "2551": 147,
        "2552": 10,
        "2553": 76,
        "2554": 215,
        "2555": 252,
        "2556": 206,
        "2557": 241,
        "2558": 165,
        "2559": 132,
        "2560": 241,
        "2561": 96,
        "2562": 240,
        "2563": 216,
        "2564": 91,
        "2565": 108,
        "2566": 115,
        "2567": 104,
        "2568": 103,
        "2569": 24,
        "2570": 236,
        "2571": 235,
        "2572": 128,
        "2573": 74,
        "2574": 194,
        "2575": 29,
        "2576": 3,
        "2577": 20,
        "2578": 232,
        "2579": 86,
        "2580": 183,
        "2581": 210,
        "2582": 108,
        "2583": 146,
        "2584": 203,
        "2585": 107,
        "2586": 25,
        "2587": 92,
        "2588": 142,
        "2589": 43,
        "2590": 249,
        "2591": 18,
        "2592": 242,
        "2593": 148,
        "2594": 173,
        "2595": 162,
        "2596": 124,
        "2597": 113,
        "2598": 199,
        "2599": 140,
        "2600": 228,
        "2601": 205,
        "2602": 166,
        "2603": 115,
        "2604": 233,
        "2605": 176,
        "2606": 107,
        "2607": 4,
        "2608": 159,
        "2609": 236,
        "2610": 110,
        "2611": 222,
        "2612": 145,
        "2613": 158,
        "2614": 193,
        "2615": 65,
        "2616": 91,
        "2617": 22,
        "2618": 8,
        "2619": 168,
        "2620": 179,
        "2621": 124,
        "2622": 214,
        "2623": 195,
        "2624": 13,
        "2625": 147,
        "2626": 51,
        "2627": 85,
        "2628": 25,
        "2629": 31,
        "2630": 10,
        "2631": 225,
        "2632": 116,
        "2633": 241,
        "2634": 53,
        "2635": 113,
        "2636": 167,
        "2637": 253,
        "2638": 235,
        "2639": 212,
        "2640": 210,
        "2641": 10,
        "2642": 60,
        "2643": 207,
        "2644": 121,
        "2645": 201,
        "2646": 217,
        "2647": 244,
        "2648": 246,
        "2649": 158,
        "2650": 232,
        "2651": 125,
        "2652": 183,
        "2653": 59,
        "2654": 86,
        "2655": 45,
        "2656": 15,
        "2657": 119,
        "2658": 67,
        "2659": 255,
        "2660": 133,
        "2661": 244,
        "2662": 134,
        "2663": 154,
        "2664": 96,
        "2665": 179,
        "2666": 94,
        "2667": 112,
        "2668": 56,
        "2669": 202,
        "2670": 219,
        "2671": 166,
        "2672": 127,
        "2673": 214,
        "2674": 113,
        "2675": 28,
        "2676": 155,
        "2677": 52,
        "2678": 152,
        "2679": 139,
        "2680": 7,
        "2681": 73,
        "2682": 184,
        "2683": 106,
        "2684": 241,
        "2685": 218,
        "2686": 155,
        "2687": 105,
        "2688": 109,
        "2689": 135,
        "2690": 149,
        "2691": 228,
        "2692": 13,
        "2693": 235,
        "2694": 204,
        "2695": 111,
        "2696": 88,
        "2697": 154,
        "2698": 239,
        "2699": 17,
        "2700": 77,
        "2701": 2,
        "2702": 105,
        "2703": 120,
        "2704": 185,
        "2705": 15,
        "2706": 167,
        "2707": 250,
        "2708": 255,
        "2709": 135,
        "2710": 8,
        "2711": 225,
        "2712": 107,
        "2713": 180,
        "2714": 176,
        "2715": 28,
        "2716": 210,
        "2717": 156,
        "2718": 85,
        "2719": 181,
        "2720": 164,
        "2721": 133,
        "2722": 25,
        "2723": 209,
        "2724": 126,
        "2725": 127,
        "2726": 198,
        "2727": 55,
        "2728": 89,
        "2729": 81,
        "2730": 248,
        "2731": 79,
        "2732": 67,
        "2733": 249,
        "2734": 217,
        "2735": 86,
        "2736": 105,
        "2737": 227,
        "2738": 71,
        "2739": 162,
        "2740": 37,
        "2741": 178,
        "2742": 29,
        "2743": 170,
        "2744": 32,
        "2745": 68,
        "2746": 1,
        "2747": 203,
        "2748": 102,
        "2749": 216,
        "2750": 131,
        "2751": 203,
        "2752": 234,
        "2753": 40,
        "2754": 193,
        "2755": 49,
        "2756": 142,
        "2757": 126,
        "2758": 225,
        "2759": 244,
        "2760": 8,
        "2761": 217,
        "2762": 106,
        "2763": 21,
        "2764": 200,
        "2765": 149,
        "2766": 16,
        "2767": 136,
        "2768": 239,
        "2769": 167,
        "2770": 79,
        "2771": 38,
        "2772": 151,
        "2773": 150,
        "2774": 159,
        "2775": 70,
        "2776": 193,
        "2777": 148,
        "2778": 245,
        "2779": 204,
        "2780": 189,
        "2781": 130,
        "2782": 5,
        "2783": 77,
        "2784": 72,
        "2785": 40,
        "2786": 81,
        "2787": 113,
        "2788": 95,
        "2789": 165,
        "2790": 97,
        "2791": 151,
        "2792": 89,
        "2793": 183,
        "2794": 125,
        "2795": 201,
        "2796": 10,
        "2797": 118,
        "2798": 176,
        "2799": 138,
        "2800": 243,
        "2801": 10,
        "2802": 59,
        "2803": 238,
        "2804": 243,
        "2805": 172,
        "2806": 128,
        "2807": 61,
        "2808": 118,
        "2809": 148,
        "2810": 50,
        "2811": 23,
        "2812": 211,
        "2813": 125,
        "2814": 43,
        "2815": 167,
        "2816": 175,
        "2817": 236,
        "2818": 246,
        "2819": 6,
        "2820": 244,
        "2821": 155,
        "2822": 207,
        "2823": 208,
        "2824": 20,
        "2825": 241,
        "2826": 181,
        "2827": 196,
        "2828": 126,
        "2829": 189,
        "2830": 46,
        "2831": 174,
        "2832": 70,
        "2833": 78,
        "2834": 221,
        "2835": 163,
        "2836": 180,
        "2837": 14,
        "2838": 141,
        "2839": 136,
        "2840": 246,
        "2841": 72,
        "2842": 151,
        "2843": 117,
        "2844": 207,
        "2845": 205,
        "2846": 168,
        "2847": 249,
        "2848": 114,
        "2849": 43,
        "2850": 224,
        "2851": 187,
        "2852": 160,
        "2853": 197,
        "2854": 0,
        "2855": 10,
        "2856": 173,
        "2857": 162,
        "2858": 253,
        "2859": 232,
        "2860": 127,
        "2861": 73,
        "2862": 166,
        "2863": 126,
        "2864": 161,
        "2865": 216,
        "2866": 193,
        "2867": 201,
        "2868": 153,
        "2869": 50,
        "2870": 7,
        "2871": 167,
        "2872": 63,
        "2873": 94,
        "2874": 9,
        "2875": 82,
        "2876": 230,
        "2877": 169,
        "2878": 29,
        "2879": 165,
        "2880": 42,
        "2881": 193,
        "2882": 81,
        "2883": 198,
        "2884": 76,
        "2885": 174,
        "2886": 254,
        "2887": 135,
        "2888": 67,
        "2889": 237,
        "2890": 60,
        "2891": 73,
        "2892": 62,
        "2893": 76,
        "2894": 112,
        "2895": 113,
        "2896": 128,
        "2897": 126,
        "2898": 246,
        "2899": 217,
        "2900": 31,
        "2901": 240,
        "2902": 208,
        "2903": 215,
        "2904": 186,
        "2905": 96,
        "2906": 137,
        "2907": 252,
        "2908": 102,
        "2909": 43,
        "2910": 150,
        "2911": 199,
        "2912": 171,
        "2913": 112,
        "2914": 195,
        "2915": 206,
        "2916": 120,
        "2917": 196,
        "2918": 66,
        "2919": 222,
        "2920": 196,
        "2921": 89,
        "2922": 74,
        "2923": 98,
        "2924": 70,
        "2925": 124,
        "2926": 216,
        "2927": 190,
        "2928": 125,
        "2929": 22,
        "2930": 193,
        "2931": 104,
        "2932": 149,
        "2933": 23,
        "2934": 22,
        "2935": 75,
        "2936": 69,
        "2937": 110,
        "2938": 247,
        "2939": 69,
        "2940": 134,
        "2941": 11,
        "2942": 220,
        "2943": 98,
        "2944": 168,
        "2945": 244,
        "2946": 116,
        "2947": 167,
        "2948": 158,
        "2949": 184,
        "2950": 183,
        "2951": 219,
        "2952": 222,
        "2953": 219,
        "2954": 142,
        "2955": 55,
        "2956": 47,
        "2957": 236,
        "2958": 75,
        "2959": 146,
        "2960": 64,
        "2961": 217,
        "2962": 93,
        "2963": 106,
        "2964": 102,
        "2965": 108,
        "2966": 31,
        "2967": 207,
        "2968": 216,
        "2969": 148,
        "2970": 98,
        "2971": 164,
        "2972": 185,
        "2973": 192,
        "2974": 190,
        "2975": 242,
        "2976": 76,
        "2977": 158,
        "2978": 119,
        "2979": 87,
        "2980": 233,
        "2981": 172,
        "2982": 102,
        "2983": 20,
        "2984": 228,
        "2985": 229,
        "2986": 27,
        "2987": 191,
        "2988": 223,
        "2989": 235,
        "2990": 152,
        "2991": 113,
        "2992": 45,
        "2993": 242,
        "2994": 255,
        "2995": 116,
        "2996": 12,
        "2997": 122,
        "2998": 114,
        "2999": 238,
        "3000": 246,
        "3001": 191,
        "3002": 150,
        "3003": 241,
        "3004": 9,
        "3005": 60,
        "3006": 48,
        "3007": 92,
        "3008": 64,
        "3009": 29,
        "3010": 112,
        "3011": 61,
        "3012": 239,
        "3013": 124,
        "3014": 254,
        "3015": 241,
        "3016": 180,
        "3017": 240,
        "3018": 85,
        "3019": 250,
        "3020": 174,
        "3021": 155,
        "3022": 188,
        "3023": 86,
        "3024": 201,
        "3025": 103,
        "3026": 233,
        "3027": 160,
        "3028": 133,
        "3029": 49,
        "3030": 68,
        "3031": 110,
        "3032": 6,
        "3033": 34,
        "3034": 179,
        "3035": 1,
        "3036": 77,
        "3037": 56,
        "3038": 216,
        "3039": 73,
        "3040": 54,
        "3041": 244,
        "3042": 138,
        "3043": 114,
        "3044": 121,
        "3045": 87,
        "3046": 69,
        "3047": 241,
        "3048": 9,
        "3049": 214,
        "3050": 17,
        "3051": 156,
        "3052": 109,
        "3053": 202,
        "3054": 200,
        "3055": 251,
        "3056": 125,
        "3057": 87,
        "3058": 206,
        "3059": 22,
        "3060": 121,
        "3061": 87,
        "3062": 3,
        "3063": 79,
        "3064": 148,
        "3065": 222,
        "3066": 84,
        "3067": 193,
        "3068": 135,
        "3069": 165,
        "3070": 239,
        "3071": 94,
        "3072": 161,
        "3073": 192,
        "3074": 156,
        "3075": 164,
        "3076": 223,
        "3077": 171,
        "3078": 99,
        "3079": 216,
        "3080": 34,
        "3081": 55,
        "3082": 64,
        "3083": 18,
        "3084": 19,
        "3085": 169,
        "3086": 57,
        "3087": 72,
        "3088": 92,
        "3089": 236,
        "3090": 138,
        "3091": 240,
        "3092": 121,
        "3093": 58,
        "3094": 13,
        "3095": 29,
        "3096": 3,
        "3097": 97,
        "3098": 104,
        "3099": 185,
        "3100": 4,
        "3101": 142,
        "3102": 48,
        "3103": 241,
        "3104": 58,
        "3105": 252,
        "3106": 93,
        "3107": 88,
        "3108": 92,
        "3109": 149,
        "3110": 167,
        "3111": 123,
        "3112": 234,
        "3113": 156,
        "3114": 160,
        "3115": 56,
        "3116": 50,
        "3117": 110,
        "3118": 35,
        "3119": 63,
        "3120": 225,
        "3121": 247,
        "3122": 45,
        "3123": 225,
        "3124": 11,
        "3125": 98,
        "3126": 216,
        "3127": 245,
        "3128": 137,
        "3129": 140,
        "3130": 204,
        "3131": 136,
        "3132": 125,
        "3133": 102,
        "3134": 197,
        "3135": 41,
        "3136": 50,
        "3137": 60,
        "3138": 119,
        "3139": 223,
        "3140": 119,
        "3141": 117,
        "3142": 126,
        "3143": 74,
        "3144": 64,
        "3145": 242,
        "3146": 46,
        "3147": 164,
        "3148": 126,
        "3149": 84,
        "3150": 248,
        "3151": 104,
        "3152": 240,
        "3153": 238,
        "3154": 44,
        "3155": 200,
        "3156": 72,
        "3157": 229,
        "3158": 168,
        "3159": 117,
        "3160": 236,
        "3161": 62,
        "3162": 31,
        "3163": 77,
        "3164": 57,
        "3165": 35,
        "3166": 185,
        "3167": 171,
        "3168": 0,
        "3169": 97,
        "3170": 27,
        "3171": 169,
        "3172": 184,
        "3173": 45,
        "3174": 236,
        "3175": 3,
        "3176": 14,
        "3177": 209,
        "3178": 148,
        "3179": 87,
        "3180": 164,
        "3181": 240,
        "3182": 209,
        "3183": 211,
        "3184": 78,
        "3185": 94,
        "3186": 61,
        "3187": 245,
        "3188": 59,
        "3189": 109,
        "3190": 57,
        "3191": 167,
        "3192": 0,
        "3193": 31,
        "3194": 245,
        "3195": 12,
        "3196": 60,
        "3197": 125,
        "3198": 190,
        "3199": 67,
        "3200": 85,
        "3201": 218,
        "3202": 49,
        "3203": 246,
        "3204": 249,
        "3205": 165,
        "3206": 135,
        "3207": 57,
        "3208": 44,
        "3209": 200,
        "3210": 194,
        "3211": 196,
        "3212": 248,
        "3213": 131,
        "3214": 251,
        "3215": 223,
        "3216": 153,
        "3217": 247,
        "3218": 168,
        "3219": 195,
        "3220": 25,
        "3221": 150,
        "3222": 202,
        "3223": 200,
        "3224": 29,
        "3225": 73,
        "3226": 103,
        "3227": 59,
        "3228": 24,
        "3229": 83,
        "3230": 227,
        "3231": 119,
        "3232": 161,
        "3233": 222,
        "3234": 25,
        "3235": 68,
        "3236": 191,
        "3237": 237,
        "3238": 84,
        "3239": 227,
        "3240": 7,
        "3241": 223,
        "3242": 105,
        "3243": 209,
        "3244": 219,
        "3245": 55,
        "3246": 215,
        "3247": 193,
        "3248": 207,
        "3249": 163,
        "3250": 36,
        "3251": 108,
        "3252": 126,
        "3253": 139,
        "3254": 63,
        "3255": 8,
        "3256": 4,
        "3257": 217,
        "3258": 23,
        "3259": 23,
        "3260": 226,
        "3261": 120,
        "3262": 55,
        "3263": 157,
        "3264": 83,
        "3265": 54,
        "3266": 142,
        "3267": 184,
        "3268": 24,
        "3269": 211,
        "3270": 215,
        "3271": 60,
        "3272": 207,
        "3273": 210,
        "3274": 185,
        "3275": 123,
        "3276": 191,
        "3277": 220,
        "3278": 55,
        "3279": 253,
        "3280": 200,
        "3281": 138,
        "3282": 91,
        "3283": 102,
        "3284": 203,
        "3285": 100,
        "3286": 235,
        "3287": 228,
        "3288": 55,
        "3289": 141,
        "3290": 219,
        "3291": 117,
        "3292": 66,
        "3293": 126,
        "3294": 237,
        "3295": 66,
        "3296": 53,
        "3297": 76,
        "3298": 208,
        "3299": 27,
        "3300": 186,
        "3301": 33,
        "3302": 139,
        "3303": 253,
        "3304": 72,
        "3305": 118,
        "3306": 138,
        "3307": 104,
        "3308": 140,
        "3309": 208,
        "3310": 237,
        "3311": 153,
        "3312": 104,
        "3313": 170,
        "3314": 211,
        "3315": 194,
        "3316": 253,
        "3317": 120,
        "3318": 179,
        "3319": 58,
        "3320": 84,
        "3321": 120,
        "3322": 229,
        "3323": 182,
        "3324": 90,
        "3325": 188,
        "3326": 151,
        "3327": 30,
        "3328": 210,
        "3329": 142,
        "3330": 17,
        "3331": 135,
        "3332": 137,
        "3333": 36,
        "3334": 54,
        "3335": 67,
        "3336": 53,
        "3337": 39,
        "3338": 226,
        "3339": 232,
        "3340": 249,
        "3341": 142,
        "3342": 114,
        "3343": 14,
        "3344": 240,
        "3345": 85,
        "3346": 167,
        "3347": 253,
        "3348": 238,
        "3349": 239,
        "3350": 152,
        "3351": 122,
        "3352": 214,
        "3353": 138,
        "3354": 98,
        "3355": 44,
        "3356": 105,
        "3357": 145,
        "3358": 60,
        "3359": 94,
        "3360": 162,
        "3361": 232,
        "3362": 9,
        "3363": 115,
        "3364": 7,
        "3365": 3,
        "3366": 119,
        "3367": 156,
        "3368": 9,
        "3369": 224,
        "3370": 218,
        "3371": 207,
        "3372": 238,
        "3373": 251,
        "3374": 243,
        "3375": 237,
        "3376": 100,
        "3377": 170,
        "3378": 245,
        "3379": 94,
        "3380": 214,
        "3381": 179,
        "3382": 165,
        "3383": 220,
        "3384": 122,
        "3385": 97,
        "3386": 36,
        "3387": 103,
        "3388": 29,
        "3389": 147,
        "3390": 246,
        "3391": 200,
        "3392": 247,
        "3393": 28,
        "3394": 120,
        "3395": 0,
        "3396": 35,
        "3397": 215,
        "3398": 139,
        "3399": 12,
        "3400": 78,
        "3401": 140,
        "3402": 253,
        "3403": 157,
        "3404": 113,
        "3405": 63,
        "3406": 116,
        "3407": 212,
        "3408": 239,
        "3409": 33,
        "3410": 86,
        "3411": 251,
        "3412": 233,
        "3413": 17,
        "3414": 114,
        "3415": 100,
        "3416": 62,
        "3417": 101,
        "3418": 173,
        "3419": 117,
        "3420": 231,
        "3421": 8,
        "3422": 150,
        "3423": 146,
        "3424": 105,
        "3425": 94,
        "3426": 155,
        "3427": 73,
        "3428": 78,
        "3429": 74,
        "3430": 198,
        "3431": 139,
        "3432": 100,
        "3433": 85,
        "3434": 252,
        "3435": 144,
        "3436": 130,
        "3437": 117,
        "3438": 21,
        "3439": 89,
        "3440": 131,
        "3441": 72,
        "3442": 135,
        "3443": 236,
        "3444": 74,
        "3445": 208,
        "3446": 242,
        "3447": 151,
        "3448": 33,
        "3449": 172,
        "3450": 184,
        "3451": 145,
        "3452": 56,
        "3453": 47,
        "3454": 172,
        "3455": 52,
        "3456": 55,
        "3457": 46,
        "3458": 1,
        "3459": 157,
        "3460": 171,
        "3461": 2,
        "3462": 239,
        "3463": 160,
        "3464": 29,
        "3465": 119,
        "3466": 249,
        "3467": 86,
        "3468": 110,
        "3469": 225,
        "3470": 211,
        "3471": 151,
        "3472": 9,
        "3473": 220,
        "3474": 79,
        "3475": 62,
        "3476": 171,
        "3477": 177,
        "3478": 177,
        "3479": 240,
        "3480": 17,
        "3481": 140,
        "3482": 130,
        "3483": 126,
        "3484": 46,
        "3485": 148,
        "3486": 42,
        "3487": 219,
        "3488": 65,
        "3489": 90,
        "3490": 79,
        "3491": 129,
        "3492": 226,
        "3493": 162,
        "3494": 133,
        "3495": 97,
        "3496": 226,
        "3497": 161,
        "3498": 94,
        "3499": 5,
        "3500": 190,
        "3501": 184,
        "3502": 180,
        "3503": 223,
        "3504": 80,
        "3505": 168,
        "3506": 201,
        "3507": 33,
        "3508": 124,
        "3509": 96,
        "3510": 230,
        "3511": 119,
        "3512": 100,
        "3513": 163,
        "3514": 34,
        "3515": 214,
        "3516": 120,
        "3517": 225,
        "3518": 31,
        "3519": 78,
        "3520": 33,
        "3521": 36,
        "3522": 51,
        "3523": 67,
        "3524": 253,
        "3525": 87,
        "3526": 13,
        "3527": 242,
        "3528": 13,
        "3529": 23,
        "3530": 110,
        "3531": 89,
        "3532": 40,
        "3533": 205,
        "3534": 235,
        "3535": 119,
        "3536": 97,
        "3537": 187,
        "3538": 104,
        "3539": 5,
        "3540": 59,
        "3541": 151,
        "3542": 23,
        "3543": 234,
        "3544": 120,
        "3545": 191,
        "3546": 105,
        "3547": 177,
        "3548": 28,
        "3549": 112,
        "3550": 91,
        "3551": 192,
        "3552": 25,
        "3553": 106,
        "3554": 2,
        "3555": 167,
        "3556": 165,
        "3557": 95,
        "3558": 237,
        "3559": 202,
        "3560": 12,
        "3561": 141,
        "3562": 139,
        "3563": 181,
        "3564": 241,
        "3565": 55,
        "3566": 26,
        "3567": 98,
        "3568": 242,
        "3569": 225,
        "3570": 170,
        "3571": 74,
        "3572": 254,
        "3573": 62,
        "3574": 200,
        "3575": 44,
        "3576": 181,
        "3577": 200,
        "3578": 43,
        "3579": 158,
        "3580": 47,
        "3581": 129,
        "3582": 214,
        "3583": 182,
        "3584": 227,
        "3585": 161,
        "3586": 176,
        "3587": 222,
        "3588": 182,
        "3589": 49,
        "3590": 103,
        "3591": 147,
        "3592": 73,
        "3593": 49,
        "3594": 147,
        "3595": 215,
        "3596": 174,
        "3597": 43,
        "3598": 83,
        "3599": 189,
        "3600": 203,
        "3601": 78,
        "3602": 102,
        "3603": 7,
        "3604": 78,
        "3605": 85,
        "3606": 116,
        "3607": 148,
        "3608": 100,
        "3609": 181,
        "3610": 149,
        "3611": 96,
        "3612": 145,
        "3613": 184,
        "3614": 223,
        "3615": 217,
        "3616": 184,
        "3617": 21,
        "3618": 252,
        "3619": 131,
        "3620": 181,
        "3621": 137,
        "3622": 112,
        "3623": 248,
        "3624": 26,
        "3625": 200,
        "3626": 149,
        "3627": 245,
        "3628": 85,
        "3629": 165,
        "3630": 1,
        "3631": 93,
        "3632": 141,
        "3633": 71,
        "3634": 192,
        "3635": 1,
        "3636": 149,
        "3637": 109,
        "3638": 144,
        "3639": 94,
        "3640": 100,
        "3641": 60,
        "3642": 137,
        "3643": 209,
        "3644": 254,
        "3645": 193,
        "3646": 30,
        "3647": 128,
        "3648": 235,
        "3649": 83,
        "3650": 120,
        "3651": 214,
        "3652": 211,
        "3653": 244,
        "3654": 105,
        "3655": 151,
        "3656": 145,
        "3657": 212,
        "3658": 132,
        "3659": 27,
        "3660": 53,
        "3661": 162,
        "3662": 17,
        "3663": 13,
        "3664": 238,
        "3665": 192,
        "3666": 139,
        "3667": 100,
        "3668": 1,
        "3669": 52,
        "3670": 254,
        "3671": 172,
        "3672": 80,
        "3673": 59,
        "3674": 32,
        "3675": 74,
        "3676": 231,
        "3677": 231,
        "3678": 75,
        "3679": 228,
        "3680": 66,
        "3681": 31,
        "3682": 42,
        "3683": 55,
        "3684": 67,
        "3685": 51,
        "3686": 132,
        "3687": 101,
        "3688": 119,
        "3689": 98,
        "3690": 173,
        "3691": 137,
        "3692": 89,
        "3693": 93,
        "3694": 191,
        "3695": 213,
        "3696": 100,
        "3697": 221,
        "3698": 118,
        "3699": 77,
        "3700": 205,
        "3701": 131,
        "3702": 210,
        "3703": 1,
        "3704": 9,
        "3705": 248,
        "3706": 98,
        "3707": 219,
        "3708": 135,
        "3709": 172,
        "3710": 102,
        "3711": 129,
        "3712": 175,
        "3713": 92,
        "3714": 125,
        "3715": 52,
        "3716": 250,
        "3717": 202,
        "3718": 7,
        "3719": 166,
        "3720": 9,
        "3721": 87,
        "3722": 170,
        "3723": 250,
        "3724": 190,
        "3725": 217,
        "3726": 43,
        "3727": 94,
        "3728": 46,
        "3729": 74,
        "3730": 100,
        "3731": 144,
        "3732": 125,
        "3733": 101,
        "3734": 74,
        "3735": 59,
        "3736": 48,
        "3737": 50,
        "3738": 194,
        "3739": 231,
        "3740": 13,
        "3741": 4,
        "3742": 48,
        "3743": 40,
        "3744": 113,
        "3745": 221,
        "3746": 220,
        "3747": 218,
        "3748": 108,
        "3749": 24,
        "3750": 145,
        "3751": 203,
        "3752": 7,
        "3753": 135,
        "3754": 228,
        "3755": 51,
        "3756": 12,
        "3757": 197,
        "3758": 94,
        "3759": 5,
        "3760": 29,
        "3761": 162,
        "3762": 240,
        "3763": 65,
        "3764": 171,
        "3765": 73,
        "3766": 205,
        "3767": 21,
        "3768": 53,
        "3769": 158,
        "3770": 251,
        "3771": 176,
        "3772": 8,
        "3773": 144,
        "3774": 18,
        "3775": 229,
        "3776": 78,
        "3777": 98,
        "3778": 245,
        "3779": 9,
        "3780": 97,
        "3781": 132,
        "3782": 1,
        "3783": 169,
        "3784": 34,
        "3785": 26,
        "3786": 182,
        "3787": 176,
        "3788": 237,
        "3789": 167,
        "3790": 191,
        "3791": 69,
        "3792": 110,
        "3793": 220,
        "3794": 247,
        "3795": 198,
        "3796": 46,
        "3797": 113,
        "3798": 225,
        "3799": 229,
        "3800": 147,
        "3801": 18,
        "3802": 197,
        "3803": 209,
        "3804": 217,
        "3805": 68,
        "3806": 151,
        "3807": 202,
        "3808": 255,
        "3809": 227,
        "3810": 246,
        "3811": 77,
        "3812": 7,
        "3813": 244,
        "3814": 184,
        "3815": 53,
        "3816": 136,
        "3817": 248,
        "3818": 104,
        "3819": 0,
        "3820": 45,
        "3821": 164,
        "3822": 134,
        "3823": 56,
        "3824": 113,
        "3825": 37,
        "3826": 65,
        "3827": 107,
        "3828": 57,
        "3829": 104,
        "3830": 123,
        "3831": 193,
        "3832": 242,
        "3833": 158,
        "3834": 150,
        "3835": 169,
        "3836": 102,
        "3837": 164,
        "3838": 13,
        "3839": 117,
        "3840": 234,
        "3841": 37,
        "3842": 144,
        "3843": 0,
        "3844": 98,
        "3845": 41,
        "3846": 202,
        "3847": 75,
        "3848": 187,
        "3849": 74,
        "3850": 185,
        "3851": 87,
        "3852": 6,
        "3853": 30,
        "3854": 213,
        "3855": 214,
        "3856": 81,
        "3857": 188,
        "3858": 92,
        "3859": 88,
        "3860": 236,
        "3861": 62,
        "3862": 51,
        "3863": 37,
        "3864": 106,
        "3865": 56,
        "3866": 185,
        "3867": 182,
        "3868": 162,
        "3869": 154,
        "3870": 217,
        "3871": 164,
        "3872": 191,
        "3873": 30,
        "3874": 114,
        "3875": 148,
        "3876": 73,
        "3877": 197,
        "3878": 173,
        "3879": 211,
        "3880": 159,
        "3881": 29,
        "3882": 102,
        "3883": 252,
        "3884": 94,
        "3885": 133,
        "3886": 177,
        "3887": 224,
        "3888": 169,
        "3889": 61,
        "3890": 6,
        "3891": 191,
        "3892": 22,
        "3893": 119,
        "3894": 4,
        "3895": 116,
        "3896": 90,
        "3897": 103,
        "3898": 146,
        "3899": 196,
        "3900": 230,
        "3901": 223,
        "3902": 77,
        "3903": 49,
        "3904": 0,
        "3905": 92,
        "3906": 73,
        "3907": 165,
        "3908": 39,
        "3909": 45,
        "3910": 158,
        "3911": 125,
        "3912": 95,
        "3913": 129,
        "3914": 179,
        "3915": 6,
        "3916": 124,
        "3917": 166,
        "3918": 45,
        "3919": 72,
        "3920": 127,
        "3921": 42,
        "3922": 41,
        "3923": 210,
        "3924": 157,
        "3925": 49,
        "3926": 33,
        "3927": 174,
        "3928": 82,
        "3929": 66,
        "3930": 71,
        "3931": 113,
        "3932": 68,
        "3933": 156,
        "3934": 197,
        "3935": 105,
        "3936": 22,
        "3937": 103,
        "3938": 242,
        "3939": 236,
        "3940": 89,
        "3941": 151,
        "3942": 129,
        "3943": 6,
        "3944": 247,
        "3945": 197,
        "3946": 184,
        "3947": 216,
        "3948": 206,
        "3949": 195,
        "3950": 80,
        "3951": 181,
        "3952": 216,
        "3953": 34,
        "3954": 212,
        "3955": 184,
        "3956": 178,
        "3957": 235,
        "3958": 50,
        "3959": 20,
        "3960": 223,
        "3961": 143,
        "3962": 108,
        "3963": 15,
        "3964": 213,
        "3965": 195,
        "3966": 36,
        "3967": 183,
        "3968": 139,
        "3969": 129,
        "3970": 209,
        "3971": 55,
        "3972": 192,
        "3973": 27,
        "3974": 160,
        "3975": 28,
        "3976": 82,
        "3977": 77,
        "3978": 115,
        "3979": 0,
        "3980": 121,
        "3981": 225,
        "3982": 73,
        "3983": 254,
        "3984": 134,
        "3985": 22,
        "3986": 191,
        "3987": 83,
        "3988": 106,
        "3989": 227,
        "3990": 69,
        "3991": 193,
        "3992": 164,
        "3993": 32,
        "3994": 199,
        "3995": 144,
        "3996": 143,
        "3997": 66,
        "3998": 252,
        "3999": 230,
        "4000": 171,
        "4001": 212,
        "4002": 2,
        "4003": 158,
        "4004": 64,
        "4005": 27,
        "4006": 223,
        "4007": 131,
        "4008": 248,
        "4009": 217,
        "4010": 169,
        "4011": 228,
        "4012": 81,
        "4013": 66,
        "4014": 245,
        "4015": 164,
        "4016": 5,
        "4017": 234,
        "4018": 167,
        "4019": 56,
        "4020": 188,
        "4021": 212,
        "4022": 127,
        "4023": 193,
        "4024": 1,
        "4025": 203,
        "4026": 222,
        "4027": 148,
        "4028": 43,
        "4029": 135,
        "4030": 20,
        "4031": 215,
        "4032": 148,
        "4033": 10,
        "4034": 119,
        "4035": 200,
        "4036": 154,
        "4037": 123,
        "4038": 194,
        "4039": 44,
        "4040": 111,
        "4041": 219,
        "4042": 66,
        "4043": 150,
        "4044": 215,
        "4045": 232,
        "4046": 247,
        "4047": 94,
        "4048": 137,
        "4049": 4,
        "4050": 101,
        "4051": 199,
        "4052": 209,
        "4053": 180,
        "4054": 65,
        "4055": 190,
        "4056": 127,
        "4057": 139,
        "4058": 28,
        "4059": 255,
        "4060": 249,
        "4061": 40,
        "4062": 98,
        "4063": 136,
        "4064": 146,
        "4065": 14,
        "4066": 197,
        "4067": 59,
        "4068": 222,
        "4069": 165,
        "4070": 234,
        "4071": 34,
        "4072": 236,
        "4073": 156,
        "4074": 136,
        "4075": 97,
        "4076": 106,
        "4077": 242,
        "4078": 27,
        "4079": 234,
        "4080": 58,
        "4081": 185,
        "4082": 97,
        "4083": 200,
        "4084": 55,
        "4085": 199,
        "4086": 225,
        "4087": 187,
        "4088": 177,
        "4089": 209,
        "4090": 21,
        "4091": 225,
        "4092": 251,
        "4093": 104,
        "4094": 194,
        "4095": 38,
        "4096": 165,
        "4097": 91,
        "4098": 83,
        "4099": 75,
        "4100": 176,
        "4101": 131,
        "4102": 166,
        "4103": 250,
        "4104": 145,
        "4105": 219,
        "4106": 130,
        "4107": 54,
        "4108": 177,
        "4109": 134,
        "4110": 131,
        "4111": 165,
        "4112": 176,
        "4113": 28,
        "4114": 11,
        "4115": 92,
        "4116": 86,
        "4117": 15,
        "4118": 95,
        "4119": 210,
        "4120": 21,
        "4121": 15,
        "4122": 129,
        "4123": 145,
        "4124": 148,
        "4125": 137,
        "4126": 207,
        "4127": 80,
        "4128": 6,
        "4129": 131,
        "4130": 234,
        "4131": 48,
        "4132": 118,
        "4133": 55,
        "4134": 180,
        "4135": 193,
        "4136": 21,
        "4137": 36,
        "4138": 225,
        "4139": 195,
        "4140": 223,
        "4141": 200,
        "4142": 42,
        "4143": 59,
        "4144": 148,
        "4145": 160,
        "4146": 67,
        "4147": 36,
        "4148": 221,
        "4149": 176,
        "4150": 240,
        "4151": 24,
        "4152": 133,
        "4153": 34,
        "4154": 53,
        "4155": 248,
        "4156": 27,
        "4157": 57,
        "4158": 102,
        "4159": 59,
        "4160": 86,
        "4161": 157,
        "4162": 235,
        "4163": 44,
        "4164": 0,
        "4165": 125,
        "4166": 231,
        "4167": 100,
        "4168": 138,
        "4169": 53,
        "4170": 89,
        "4171": 54,
        "4172": 129,
        "4173": 131,
        "4174": 6,
        "4175": 152,
        "4176": 111,
        "4177": 166,
        "4178": 207,
        "4179": 65,
        "4180": 18,
        "4181": 64,
        "4182": 167,
        "4183": 50,
        "4184": 218,
        "4185": 112,
        "4186": 94,
        "4187": 88,
        "4188": 238,
        "4189": 241,
        "4190": 202,
        "4191": 232,
        "4192": 58,
        "4193": 49,
        "4194": 74,
        "4195": 43,
        "4196": 147,
        "4197": 177,
        "4198": 58,
        "4199": 230,
        "4200": 246,
        "4201": 217,
        "4202": 203,
        "4203": 97,
        "4204": 240,
        "4205": 145,
        "4206": 63,
        "4207": 80,
        "4208": 137,
        "4209": 175,
        "4210": 39,
        "4211": 74,
        "4212": 13,
        "4213": 88,
        "4214": 79,
        "4215": 226,
        "4216": 40,
        "4217": 69,
        "4218": 64,
        "4219": 243,
        "4220": 6,
        "4221": 237,
        "4222": 19,
        "4223": 124,
        "4224": 21,
        "4225": 150,
        "4226": 45,
        "4227": 128,
        "4228": 145,
        "4229": 218,
        "4230": 200,
        "4231": 232,
        "4232": 113,
        "4233": 77,
        "4234": 39,
        "4235": 8,
        "4236": 13,
        "4237": 15,
        "4238": 9,
        "4239": 120,
        "4240": 44,
        "4241": 48,
        "4242": 235,
        "4243": 161,
        "4244": 169,
        "4245": 102,
        "4246": 131,
        "4247": 53,
        "4248": 206,
        "4249": 38,
        "4250": 20,
        "4251": 40,
        "4252": 175,
        "4253": 86,
        "4254": 62,
        "4255": 95,
        "4256": 48,
        "4257": 181,
        "4258": 180,
        "4259": 66,
        "4260": 86,
        "4261": 65,
        "4262": 198,
        "4263": 236,
        "4264": 157,
        "4265": 36,
        "4266": 141,
        "4267": 59,
        "4268": 219,
        "4269": 110,
        "4270": 88,
        "4271": 250,
        "4272": 86,
        "4273": 54,
        "4274": 227,
        "4275": 243,
        "4276": 21,
        "4277": 215,
        "4278": 9,
        "4279": 5,
        "4280": 241,
        "4281": 17,
        "4282": 78,
        "4283": 178,
        "4284": 70,
        "4285": 211,
        "4286": 188,
        "4287": 95,
        "4288": 222,
        "4289": 159,
        "4290": 127,
        "4291": 83,
        "4292": 9,
        "4293": 57,
        "4294": 31,
        "4295": 190,
        "4296": 45,
        "4297": 106,
        "4298": 36,
        "4299": 188,
        "4300": 137,
        "4301": 206,
        "4302": 46,
        "4303": 189,
        "4304": 90,
        "4305": 201,
        "4306": 42,
        "4307": 58,
        "4308": 67,
        "4309": 125,
        "4310": 93,
        "4311": 20,
        "4312": 7,
        "4313": 138,
        "4314": 224,
        "4315": 95,
        "4316": 200,
        "4317": 80,
        "4318": 62,
        "4319": 49,
        "4320": 58,
        "4321": 174,
        "4322": 216,
        "4323": 10,
        "4324": 96,
        "4325": 120,
        "4326": 23,
        "4327": 252,
        "4328": 79,
        "4329": 51,
        "4330": 153,
        "4331": 65,
        "4332": 37,
        "4333": 252,
        "4334": 38,
        "4335": 110,
        "4336": 110,
        "4337": 240,
        "4338": 222,
        "4339": 150,
        "4340": 35,
        "4341": 123,
        "4342": 82,
        "4343": 243,
        "4344": 98,
        "4345": 246,
        "4346": 105,
        "4347": 188,
        "4348": 36,
        "4349": 187,
        "4350": 5,
        "4351": 163,
        "4352": 107,
        "4353": 116,
        "4354": 135,
        "4355": 145,
        "4356": 54,
        "4357": 131,
        "4358": 83,
        "4359": 57,
        "4360": 7,
        "4361": 116,
        "4362": 55,
        "4363": 74,
        "4364": 199,
        "4365": 40,
        "4366": 46,
        "4367": 140,
        "4368": 50,
        "4369": 160,
        "4370": 25,
        "4371": 73,
        "4372": 140,
        "4373": 133,
        "4374": 30,
        "4375": 126,
        "4376": 113,
        "4377": 6,
        "4378": 239,
        "4379": 78,
        "4380": 114,
        "4381": 211,
        "4382": 158,
        "4383": 119,
        "4384": 95,
        "4385": 202,
        "4386": 119,
        "4387": 177,
        "4388": 58,
        "4389": 73,
        "4390": 83,
        "4391": 19,
        "4392": 138,
        "4393": 83,
        "4394": 26,
        "4395": 63,
        "4396": 23,
        "4397": 247,
        "4398": 60,
        "4399": 143,
        "4400": 90,
        "4401": 145,
        "4402": 53,
        "4403": 215,
        "4404": 155,
        "4405": 119,
        "4406": 200,
        "4407": 243,
        "4408": 168,
        "4409": 224,
        "4410": 162,
        "4411": 30,
        "4412": 37,
        "4413": 247,
        "4414": 222,
        "4415": 135,
        "4416": 154,
        "4417": 129,
        "4418": 90,
        "4419": 214,
        "4420": 48,
        "4421": 118,
        "4422": 49,
        "4423": 190,
        "4424": 123,
        "4425": 246,
        "4426": 109,
        "4427": 14,
        "4428": 131,
        "4429": 45,
        "4430": 211,
        "4431": 197,
        "4432": 238,
        "4433": 24,
        "4434": 254,
        "4435": 234,
        "4436": 96,
        "4437": 240,
        "4438": 207,
        "4439": 151,
        "4440": 101,
        "4441": 24,
        "4442": 221,
        "4443": 134,
        "4444": 142,
        "4445": 123,
        "4446": 4,
        "4447": 235,
        "4448": 75,
        "4449": 91,
        "4450": 2,
        "4451": 190,
        "4452": 15,
        "4453": 126,
        "4454": 133,
        "4455": 207,
        "4456": 63,
        "4457": 110,
        "4458": 194,
        "4459": 175,
        "4460": 193,
        "4461": 36,
        "4462": 166,
        "4463": 106,
        "4464": 218,
        "4465": 247,
        "4466": 43,
        "4467": 78,
        "4468": 230,
        "4469": 232,
        "4470": 156,
        "4471": 37,
        "4472": 61,
        "4473": 155,
        "4474": 205,
        "4475": 46,
        "4476": 247,
        "4477": 173,
        "4478": 200,
        "4479": 89,
        "4480": 232,
        "4481": 45,
        "4482": 78,
        "4483": 220,
        "4484": 142,
        "4485": 96,
        "4486": 76,
        "4487": 154,
        "4488": 171,
        "4489": 216,
        "4490": 178,
        "4491": 217,
        "4492": 95,
        "4493": 136,
        "4494": 1,
        "4495": 251,
        "4496": 192,
        "4497": 228,
        "4498": 192,
        "4499": 96,
        "4500": 124,
        "4501": 167,
        "4502": 57,
        "4503": 35,
        "4504": 200,
        "4505": 110,
        "4506": 58,
        "4507": 82,
        "4508": 162,
        "4509": 236,
        "4510": 12,
        "4511": 98,
        "4512": 59,
        "4513": 224,
        "4514": 92,
        "4515": 155,
        "4516": 112,
        "4517": 82,
        "4518": 167,
        "4519": 96,
        "4520": 169,
        "4521": 127,
        "4522": 47,
        "4523": 89,
        "4524": 155,
        "4525": 9,
        "4526": 118,
        "4527": 85,
        "4528": 56,
        "4529": 69,
        "4530": 74,
        "4531": 224,
        "4532": 116,
        "4533": 143,
        "4534": 81,
        "4535": 90,
        "4536": 151,
        "4537": 200,
        "4538": 215,
        "4539": 21,
        "4540": 90,
        "4541": 157,
        "4542": 176,
        "4543": 233,
        "4544": 165,
        "4545": 68,
        "4546": 64,
        "4547": 32,
        "4548": 169,
        "4549": 122,
        "4550": 205,
        "4551": 215,
        "4552": 195,
        "4553": 68,
        "4554": 20,
        "4555": 192,
        "4556": 4,
        "4557": 98,
        "4558": 246,
        "4559": 65,
        "4560": 147,
        "4561": 205,
        "4562": 172,
        "4563": 148,
        "4564": 114,
        "4565": 50,
        "4566": 122,
        "4567": 92,
        "4568": 77,
        "4569": 95,
        "4570": 172,
        "4571": 104,
        "4572": 158,
        "4573": 66,
        "4574": 181,
        "4575": 47,
        "4576": 198,
        "4577": 12,
        "4578": 74,
        "4579": 182,
        "4580": 173,
        "4581": 247,
        "4582": 46,
        "4583": 191,
        "4584": 93,
        "4585": 79,
        "4586": 190,
        "4587": 251,
        "4588": 156,
        "4589": 215,
        "4590": 249,
        "4591": 24,
        "4592": 191,
        "4593": 30,
        "4594": 160,
        "4595": 74,
        "4596": 227,
        "4597": 89,
        "4598": 98,
        "4599": 27,
        "4600": 166,
        "4601": 21,
        "4602": 213,
        "4603": 159,
        "4604": 233,
        "4605": 12,
        "4606": 70,
        "4607": 187,
        "4608": 100,
        "4609": 159,
        "4610": 79,
        "4611": 124,
        "4612": 71,
        "4613": 188,
        "4614": 253,
        "4615": 144,
        "4616": 110,
        "4617": 47,
        "4618": 27,
        "4619": 179,
        "4620": 141,
        "4621": 203,
        "4622": 171,
        "4623": 115,
        "4624": 203,
        "4625": 22,
        "4626": 146,
        "4627": 2,
        "4628": 11,
        "4629": 118,
        "4630": 216,
        "4631": 167,
        "4632": 64,
        "4633": 125,
        "4634": 7,
        "4635": 173,
        "4636": 176,
        "4637": 34,
        "4638": 44,
        "4639": 96,
        "4640": 190,
        "4641": 236,
        "4642": 222,
        "4643": 64,
        "4644": 245,
        "4645": 163,
        "4646": 200,
        "4647": 203,
        "4648": 247,
        "4649": 235,
        "4650": 46,
        "4651": 159,
        "4652": 176,
        "4653": 209,
        "4654": 138,
        "4655": 180,
        "4656": 173,
        "4657": 61,
        "4658": 155,
        "4659": 133,
        "4660": 119,
        "4661": 39,
        "4662": 248,
        "4663": 136,
        "4664": 227,
        "4665": 226,
        "4666": 254,
        "4667": 33,
        "4668": 194,
        "4669": 70,
        "4670": 90,
        "4671": 122,
        "4672": 61,
        "4673": 164,
        "4674": 227,
        "4675": 46,
        "4676": 32,
        "4677": 78,
        "4678": 61,
        "4679": 20,
        "4680": 143,
        "4681": 221,
        "4682": 198,
        "4683": 122,
        "4684": 107,
        "4685": 40,
        "4686": 34,
        "4687": 239,
        "4688": 122,
        "4689": 141,
        "4690": 76,
        "4691": 19,
        "4692": 57,
        "4693": 49,
        "4694": 189,
        "4695": 84,
        "4696": 20,
        "4697": 44,
        "4698": 125,
        "4699": 152,
        "4700": 202,
        "4701": 84,
        "4702": 148,
        "4703": 214,
        "4704": 38,
        "4705": 124,
        "4706": 53,
        "4707": 10,
        "4708": 219,
        "4709": 204,
        "4710": 193,
        "4711": 17,
        "4712": 79,
        "4713": 250,
        "4714": 200,
        "4715": 207,
        "4716": 33,
        "4717": 127,
        "4718": 113,
        "4719": 136,
        "4720": 42,
        "4721": 19,
        "4722": 81,
        "4723": 64,
        "4724": 86,
        "4725": 123,
        "4726": 149,
        "4727": 167,
        "4728": 203,
        "4729": 171,
        "4730": 253,
        "4731": 174,
        "4732": 111,
        "4733": 173,
        "4734": 129,
        "4735": 125,
        "4736": 219,
        "4737": 116,
        "4738": 148,
        "4739": 96,
        "4740": 190,
        "4741": 229,
        "4742": 26,
        "4743": 167,
        "4744": 42,
        "4745": 220,
        "4746": 75,
        "4747": 62,
        "4748": 81,
        "4749": 193,
        "4750": 12,
        "4751": 3,
        "4752": 208,
        "4753": 132,
        "4754": 80,
        "4755": 178,
        "4756": 144,
        "4757": 129,
        "4758": 44,
        "4759": 208,
        "4760": 151,
        "4761": 176,
        "4762": 100,
        "4763": 203,
        "4764": 166,
        "4765": 15,
        "4766": 59,
        "4767": 96,
        "4768": 193,
        "4769": 5,
        "4770": 142,
        "4771": 113,
        "4772": 159,
        "4773": 157,
        "4774": 77,
        "4775": 82,
        "4776": 140,
        "4777": 10,
        "4778": 83,
        "4779": 123,
        "4780": 158,
        "4781": 127,
        "4782": 92,
        "4783": 22,
        "4784": 16,
        "4785": 149,
        "4786": 83,
        "4787": 33,
        "4788": 71,
        "4789": 161,
        "4790": 72,
        "4791": 95,
        "4792": 35,
        "4793": 58,
        "4794": 164,
        "4795": 240,
        "4796": 55,
        "4797": 98,
        "4798": 181,
        "4799": 6,
        "4800": 93,
        "4801": 142,
        "4802": 196,
        "4803": 250,
        "4804": 11,
        "4805": 229,
        "4806": 128,
        "4807": 65,
        "4808": 132,
        "4809": 93,
        "4810": 195,
        "4811": 0,
        "4812": 185,
        "4813": 6,
        "4814": 165,
        "4815": 16,
        "4816": 45,
        "4817": 122,
        "4818": 152,
        "4819": 55,
        "4820": 227,
        "4821": 238,
        "4822": 246,
        "4823": 127,
        "4824": 174,
        "4825": 17,
        "4826": 172,
        "4827": 53,
        "4828": 3,
        "4829": 207,
        "4830": 196,
        "4831": 225,
        "4832": 31,
        "4833": 31,
        "4834": 58,
        "4835": 183,
        "4836": 244,
        "4837": 234,
        "4838": 120,
        "4839": 176,
        "4840": 124,
        "4841": 178,
        "4842": 195,
        "4843": 140,
        "4844": 196,
        "4845": 112,
        "4846": 30,
        "4847": 159,
        "4848": 15,
        "4849": 202,
        "4850": 28,
        "4851": 152,
        "4852": 69,
        "4853": 230,
        "4854": 101,
        "4855": 130,
        "4856": 47,
        "4857": 11,
        "4858": 140,
        "4859": 238,
        "4860": 85,
        "4861": 53,
        "4862": 216,
        "4863": 108,
        "4864": 185,
        "4865": 248,
        "4866": 237,
        "4867": 84,
        "4868": 9,
        "4869": 90,
        "4870": 115,
        "4871": 66,
        "4872": 129,
        "4873": 138,
        "4874": 237,
        "4875": 141,
        "4876": 181,
        "4877": 29,
        "4878": 224,
        "4879": 56,
        "4880": 42,
        "4881": 222,
        "4882": 114,
        "4883": 3,
        "4884": 253,
        "4885": 88,
        "4886": 37,
        "4887": 0,
        "4888": 197,
        "4889": 35,
        "4890": 72,
        "4891": 220,
        "4892": 49,
        "4893": 206,
        "4894": 252,
        "4895": 222,
        "4896": 213,
        "4897": 15,
        "4898": 137,
        "4899": 89,
        "4900": 39,
        "4901": 141,
        "4902": 177,
        "4903": 90,
        "4904": 146,
        "4905": 197,
        "4906": 206,
        "4907": 28,
        "4908": 227,
        "4909": 106,
        "4910": 127,
        "4911": 179,
        "4912": 121,
        "4913": 117,
        "4914": 52,
        "4915": 163,
        "4916": 38,
        "4917": 60,
        "4918": 239,
        "4919": 182,
        "4920": 161,
        "4921": 235,
        "4922": 186,
        "4923": 247,
        "4924": 140,
        "4925": 24,
        "4926": 213,
        "4927": 128,
        "4928": 225,
        "4929": 173,
        "4930": 80,
        "4931": 91,
        "4932": 153,
        "4933": 54,
        "4934": 160,
        "4935": 175,
        "4936": 86,
        "4937": 116,
        "4938": 160,
        "4939": 131,
        "4940": 40,
        "4941": 195,
        "4942": 219,
        "4943": 76,
        "4944": 32,
        "4945": 206,
        "4946": 150,
        "4947": 141,
        "4948": 181,
        "4949": 69,
        "4950": 144,
        "4951": 212,
        "4952": 174,
        "4953": 239,
        "4954": 134,
        "4955": 158,
        "4956": 38,
        "4957": 77,
        "4958": 159,
        "4959": 154,
        "4960": 145,
        "4961": 205,
        "4962": 123,
        "4963": 169,
        "4964": 84,
        "4965": 14,
        "4966": 179,
        "4967": 10,
        "4968": 0,
        "4969": 140,
        "4970": 0,
        "4971": 125,
        "4972": 6,
        "4973": 28,
        "4974": 55,
        "4975": 201,
        "4976": 117,
        "4977": 118,
        "4978": 26,
        "4979": 192,
        "4980": 49,
        "4981": 225,
        "4982": 83,
        "4983": 223,
        "4984": 70,
        "4985": 238,
        "4986": 245,
        "4987": 226,
        "4988": 171,
        "4989": 246,
        "4990": 103,
        "4991": 23,
        "4992": 42,
        "4993": 82,
        "4994": 215,
        "4995": 103,
        "4996": 169,
        "4997": 182,
        "4998": 203,
        "4999": 71,
        "5000": 166,
        "5001": 109,
        "5002": 118,
        "5003": 193,
        "5004": 5,
        "5005": 141,
        "5006": 92,
        "5007": 233,
        "5008": 101,
        "5009": 89,
        "5010": 68,
        "5011": 64,
        "5012": 224,
        "5013": 226,
        "5014": 254,
        "5015": 141,
        "5016": 127,
        "5017": 158,
        "5018": 167,
        "5019": 202,
        "5020": 13,
        "5021": 213,
        "5022": 236,
        "5023": 27,
        "5024": 221,
        "5025": 235,
        "5026": 141,
        "5027": 31,
        "5028": 111,
        "5029": 117,
        "5030": 99,
        "5031": 8,
        "5032": 94,
        "5033": 86,
        "5034": 41,
        "5035": 156,
        "5036": 158,
        "5037": 81,
        "5038": 97,
        "5039": 114,
        "5040": 217,
        "5041": 177,
        "5042": 176,
        "5043": 126,
        "5044": 1,
        "5045": 59,
        "5046": 184,
        "5047": 92,
        "5048": 38,
        "5049": 177,
        "5050": 147,
        "5051": 137,
        "5052": 131,
        "5053": 124,
        "5054": 124,
        "5055": 201,
        "5056": 222,
        "5057": 214,
        "5058": 110,
        "5059": 43,
        "5060": 163,
        "5061": 30,
        "5062": 42,
        "5063": 204,
        "5064": 145,
        "5065": 55,
        "5066": 102,
        "5067": 217,
        "5068": 44,
        "5069": 99,
        "5070": 45,
        "5071": 114,
        "5072": 137,
        "5073": 87,
        "5074": 234,
        "5075": 171,
        "5076": 237,
        "5077": 83,
        "5078": 235,
        "5079": 118,
        "5080": 113,
        "5081": 111,
        "5082": 75,
        "5083": 105,
        "5084": 79,
        "5085": 188,
        "5086": 123,
        "5087": 213,
        "5088": 162,
        "5089": 193,
        "5090": 199,
        "5091": 78,
        "5092": 11,
        "5093": 131,
        "5094": 217,
        "5095": 92,
        "5096": 239,
        "5097": 16,
        "5098": 174,
        "5099": 12,
        "5100": 245,
        "5101": 17,
        "5102": 54,
        "5103": 26,
        "5104": 112,
        "5105": 64,
        "5106": 164,
        "5107": 51,
        "5108": 224,
        "5109": 224,
        "5110": 227,
        "5111": 221,
        "5112": 235,
        "5113": 130,
        "5114": 4,
        "5115": 2,
        "5116": 222,
        "5117": 109,
        "5118": 105,
        "5119": 94,
        "5120": 145,
        "5121": 11,
        "5122": 195,
        "5123": 154,
        "5124": 99,
        "5125": 5,
        "5126": 114,
        "5127": 213,
        "5128": 230,
        "5129": 180,
        "5130": 49,
        "5131": 149,
        "5132": 112,
        "5133": 136,
        "5134": 226,
        "5135": 164,
        "5136": 173,
        "5137": 118,
        "5138": 36,
        "5139": 117,
        "5140": 150,
        "5141": 125,
        "5142": 106,
        "5143": 96,
        "5144": 243,
        "5145": 99,
        "5146": 105,
        "5147": 81,
        "5148": 178,
        "5149": 144,
        "5150": 221,
        "5151": 163,
        "5152": 183,
        "5153": 89,
        "5154": 60,
        "5155": 107,
        "5156": 165,
        "5157": 242,
        "5158": 143,
        "5159": 173,
        "5160": 85,
        "5161": 105,
        "5162": 164,
        "5163": 72,
        "5164": 2,
        "5165": 184,
        "5166": 244,
        "5167": 20,
        "5168": 61,
        "5169": 64,
        "5170": 187,
        "5171": 252,
        "5172": 218,
        "5173": 152,
        "5174": 223,
        "5175": 106,
        "5176": 79,
        "5177": 28,
        "5178": 171,
        "5179": 240,
        "5180": 37,
        "5181": 223,
        "5182": 77,
        "5183": 119,
        "5184": 192,
        "5185": 179,
        "5186": 140,
        "5187": 180,
        "5188": 71,
        "5189": 30,
        "5190": 170,
        "5191": 111,
        "5192": 164,
        "5193": 109,
        "5194": 120,
        "5195": 128,
        "5196": 171,
        "5197": 95,
        "5198": 105,
        "5199": 120,
        "5200": 202,
        "5201": 108,
        "5202": 113,
        "5203": 172,
        "5204": 123,
        "5205": 214,
        "5206": 176,
        "5207": 195,
        "5208": 108,
        "5209": 177,
        "5210": 152,
        "5211": 174,
        "5212": 188,
        "5213": 127,
        "5214": 237,
        "5215": 192,
        "5216": 195,
        "5217": 171,
        "5218": 84,
        "5219": 215,
        "5220": 182,
        "5221": 158,
        "5222": 215,
        "5223": 96,
        "5224": 110,
        "5225": 138,
        "5226": 168,
        "5227": 55,
        "5228": 222,
        "5229": 214,
        "5230": 179,
        "5231": 162,
        "5232": 44,
        "5233": 182,
        "5234": 225,
        "5235": 156,
        "5236": 254,
        "5237": 6,
        "5238": 220,
        "5239": 45,
        "5240": 151,
        "5241": 22,
        "5242": 104,
        "5243": 65,
        "5244": 157,
        "5245": 16,
        "5246": 127,
        "5247": 22,
        "5248": 189,
        "5249": 217,
        "5250": 31,
        "5251": 105,
        "5252": 185,
        "5253": 227,
        "5254": 144,
        "5255": 89,
        "5256": 213,
        "5257": 5,
        "5258": 161,
        "5259": 13,
        "5260": 185,
        "5261": 49,
        "5262": 176,
        "5263": 146,
        "5264": 247,
        "5265": 207,
        "5266": 237,
        "5267": 162,
        "5268": 109,
        "5269": 189,
        "5270": 2,
        "5271": 89,
        "5272": 98,
        "5273": 1,
        "5274": 132,
        "5275": 148,
        "5276": 227,
        "5277": 45,
        "5278": 85,
        "5279": 9,
        "5280": 196,
        "5281": 124,
        "5282": 150,
        "5283": 113,
        "5284": 34,
        "5285": 188,
        "5286": 224,
        "5287": 34,
        "5288": 158,
        "5289": 34,
        "5290": 233,
        "5291": 76,
        "5292": 242,
        "5293": 177,
        "5294": 4,
        "5295": 221,
        "5296": 169,
        "5297": 165,
        "5298": 228,
        "5299": 59,
        "5300": 5,
        "5301": 6,
        "5302": 211,
        "5303": 21,
        "5304": 2,
        "5305": 135,
        "5306": 167,
        "5307": 199,
        "5308": 116,
        "5309": 227,
        "5310": 144,
        "5311": 219,
        "5312": 38,
        "5313": 39,
        "5314": 233,
        "5315": 82,
        "5316": 193,
        "5317": 41,
        "5318": 24,
        "5319": 186,
        "5320": 200,
        "5321": 67,
        "5322": 230,
        "5323": 229,
        "5324": 166,
        "5325": 157,
        "5326": 207,
        "5327": 199,
        "5328": 153,
        "5329": 155,
        "5330": 209,
        "5331": 44,
        "5332": 48,
        "5333": 127,
        "5334": 240,
        "5335": 43,
        "5336": 53,
        "5337": 180,
        "5338": 240,
        "5339": 3,
        "5340": 220,
        "5341": 165,
        "5342": 61,
        "5343": 75,
        "5344": 144,
        "5345": 68,
        "5346": 110,
        "5347": 208,
        "5348": 80,
        "5349": 193,
        "5350": 198,
        "5351": 12,
        "5352": 19,
        "5353": 182,
        "5354": 134,
        "5355": 8,
        "5356": 67,
        "5357": 108,
        "5358": 96,
        "5359": 92,
        "5360": 145,
        "5361": 131,
        "5362": 93,
        "5363": 53,
        "5364": 251,
        "5365": 131,
        "5366": 229,
        "5367": 246,
        "5368": 39,
        "5369": 137,
        "5370": 35,
        "5371": 165,
        "5372": 85,
        "5373": 14,
        "5374": 78,
        "5375": 135,
        "5376": 102,
        "5377": 151,
        "5378": 19,
        "5379": 1,
        "5380": 250,
        "5381": 42,
        "5382": 178,
        "5383": 202,
        "5384": 49,
        "5385": 71,
        "5386": 129,
        "5387": 118,
        "5388": 109,
        "5389": 63,
        "5390": 69,
        "5391": 44,
        "5392": 99,
        "5393": 28,
        "5394": 173,
        "5395": 30,
        "5396": 221,
        "5397": 81,
        "5398": 147,
        "5399": 133,
        "5400": 227,
        "5401": 55,
        "5402": 66,
        "5403": 1,
        "5404": 206,
        "5405": 14,
        "5406": 208,
        "5407": 219,
        "5408": 229,
        "5409": 236,
        "5410": 31,
        "5411": 112,
        "5412": 169,
        "5413": 233,
        "5414": 147,
        "5415": 200,
        "5416": 74,
        "5417": 120,
        "5418": 1,
        "5419": 210,
        "5420": 116,
        "5421": 45,
        "5422": 216,
        "5423": 104,
        "5424": 221,
        "5425": 236,
        "5426": 185,
        "5427": 146,
        "5428": 104,
        "5429": 248,
        "5430": 152,
        "5431": 56,
        "5432": 108,
        "5433": 82,
        "5434": 95,
        "5435": 255,
        "5436": 117,
        "5437": 63,
        "5438": 154,
        "5439": 86,
        "5440": 221,
        "5441": 60,
        "5442": 1,
        "5443": 71,
        "5444": 246,
        "5445": 108,
        "5446": 251,
        "5447": 104,
        "5448": 253,
        "5449": 49,
        "5450": 30,
        "5451": 14,
        "5452": 154,
        "5453": 248,
        "5454": 69,
        "5455": 207,
        "5456": 90,
        "5457": 227,
        "5458": 2,
        "5459": 238,
        "5460": 131,
        "5461": 80,
        "5462": 29,
        "5463": 135,
        "5464": 237,
        "5465": 44,
        "5466": 54,
        "5467": 52,
        "5468": 96,
        "5469": 36,
        "5470": 247,
        "5471": 34,
        "5472": 49,
        "5473": 191,
        "5474": 255,
        "5475": 119,
        "5476": 209,
        "5477": 177,
        "5478": 185,
        "5479": 140,
        "5480": 159,
        "5481": 20,
        "5482": 59,
        "5483": 90,
        "5484": 125,
        "5485": 158,
        "5486": 38,
        "5487": 248,
        "5488": 97,
        "5489": 59,
        "5490": 25,
        "5491": 230,
        "5492": 222,
        "5493": 180,
        "5494": 7,
        "5495": 181,
        "5496": 254,
        "5497": 134,
        "5498": 18,
        "5499": 253,
        "5500": 3,
        "5501": 21,
        "5502": 13,
        "5503": 99,
        "5504": 149,
        "5505": 5,
        "5506": 33,
        "5507": 96,
        "5508": 105,
        "5509": 169,
        "5510": 175,
        "5511": 120,
        "5512": 110,
        "5513": 79,
        "5514": 143,
        "5515": 79,
        "5516": 35,
        "5517": 12,
        "5518": 253,
        "5519": 130,
        "5520": 38,
        "5521": 13,
        "5522": 28,
        "5523": 224,
        "5524": 250,
        "5525": 1,
        "5526": 1,
        "5527": 186,
        "5528": 143,
        "5529": 28,
        "5530": 102,
        "5531": 173,
        "5532": 15,
        "5533": 57,
        "5534": 205,
        "5535": 136,
        "5536": 99,
        "5537": 35,
        "5538": 213,
        "5539": 124,
        "5540": 173,
        "5541": 211,
        "5542": 22,
        "5543": 145,
        "5544": 96,
        "5545": 102,
        "5546": 209,
        "5547": 23,
        "5548": 255,
        "5549": 222,
        "5550": 34,
        "5551": 109,
        "5552": 223,
        "5553": 163,
        "5554": 253,
        "5555": 60,
        "5556": 207,
        "5557": 127,
        "5558": 192,
        "5559": 236,
        "5560": 23,
        "5561": 71,
        "5562": 89,
        "5563": 183,
        "5564": 161,
        "5565": 61,
        "5566": 2,
        "5567": 220,
        "5568": 66,
        "5569": 99,
        "5570": 221,
        "5571": 81,
        "5572": 12,
        "5573": 175,
        "5574": 159,
        "5575": 232,
        "5576": 169,
        "5577": 241,
        "5578": 243,
        "5579": 146,
        "5580": 109,
        "5581": 185,
        "5582": 225,
        "5583": 176,
        "5584": 118,
        "5585": 19,
        "5586": 2,
        "5587": 202,
        "5588": 247,
        "5589": 170,
        "5590": 66,
        "5591": 225,
        "5592": 79,
        "5593": 72,
        "5594": 13,
        "5595": 155,
        "5596": 52,
        "5597": 107,
        "5598": 166,
        "5599": 66,
        "5600": 136,
        "5601": 131,
        "5602": 12,
        "5603": 90,
        "5604": 175,
        "5605": 145,
        "5606": 130,
        "5607": 20,
        "5608": 190,
        "5609": 102,
        "5610": 187,
        "5611": 68,
        "5612": 153,
        "5613": 238,
        "5614": 156,
        "5615": 95,
        "5616": 245,
        "5617": 213,
        "5618": 147,
        "5619": 144,
        "5620": 252,
        "5621": 179,
        "5622": 8,
        "5623": 6,
        "5624": 67,
        "5625": 10,
        "5626": 160,
        "5627": 178,
        "5628": 202,
        "5629": 142,
        "5630": 51,
        "5631": 126,
        "5632": 197,
        "5633": 108,
        "5634": 55,
        "5635": 12,
        "5636": 247,
        "5637": 210,
        "5638": 107,
        "5639": 36,
        "5640": 156,
        "5641": 124,
        "5642": 63,
        "5643": 59,
        "5644": 202,
        "5645": 205,
        "5646": 122,
        "5647": 55,
        "5648": 243,
        "5649": 37,
        "5650": 178,
        "5651": 89,
        "5652": 208,
        "5653": 183,
        "5654": 31,
        "5655": 3,
        "5656": 55,
        "5657": 216,
        "5658": 34,
        "5659": 165,
        "5660": 167,
        "5661": 218,
        "5662": 26,
        "5663": 82,
        "5664": 174,
        "5665": 100,
        "5666": 166,
        "5667": 60,
        "5668": 197,
        "5669": 224,
        "5670": 251,
        "5671": 210,
        "5672": 12,
        "5673": 84,
        "5674": 112,
        "5675": 177,
        "5676": 44,
        "5677": 52,
        "5678": 121,
        "5679": 92,
        "5680": 243,
        "5681": 144,
        "5682": 153,
        "5683": 212,
        "5684": 232,
        "5685": 67,
        "5686": 58,
        "5687": 103,
        "5688": 99,
        "5689": 178,
        "5690": 26,
        "5691": 252,
        "5692": 29,
        "5693": 172,
        "5694": 117,
        "5695": 50,
        "5696": 89,
        "5697": 25,
        "5698": 210,
        "5699": 188,
        "5700": 46,
        "5701": 3,
        "5702": 127,
        "5703": 245,
        "5704": 13,
        "5705": 133,
        "5706": 145,
        "5707": 91,
        "5708": 203,
        "5709": 187,
        "5710": 192,
        "5711": 52,
        "5712": 134,
        "5713": 204,
        "5714": 88,
        "5715": 121,
        "5716": 181,
        "5717": 38,
        "5718": 19,
        "5719": 95,
        "5720": 45,
        "5721": 130,
        "5722": 220,
        "5723": 227,
        "5724": 30,
        "5725": 150,
        "5726": 233,
        "5727": 71,
        "5728": 10,
        "5729": 24,
        "5730": 177,
        "5731": 245,
        "5732": 240,
        "5733": 174,
        "5734": 23,
        "5735": 238,
        "5736": 53,
        "5737": 12,
        "5738": 80,
        "5739": 77,
        "5740": 106,
        "5741": 115,
        "5742": 167,
        "5743": 88,
        "5744": 219,
        "5745": 118,
        "5746": 244,
        "5747": 93,
        "5748": 249,
        "5749": 186,
        "5750": 33,
        "5751": 178,
        "5752": 18,
        "5753": 131,
        "5754": 125,
        "5755": 114,
        "5756": 54,
        "5757": 115,
        "5758": 76,
        "5759": 26,
        "5760": 105,
        "5761": 25,
        "5762": 99,
        "5763": 183,
        "5764": 95,
        "5765": 223,
        "5766": 207,
        "5767": 165,
        "5768": 201,
        "5769": 105,
        "5770": 233,
        "5771": 217,
        "5772": 80,
        "5773": 4,
        "5774": 124,
        "5775": 34,
        "5776": 116,
        "5777": 113,
        "5778": 124,
        "5779": 213,
        "5780": 31,
        "5781": 71,
        "5782": 65,
        "5783": 28,
        "5784": 116,
        "5785": 125,
        "5786": 158,
        "5787": 70,
        "5788": 47,
        "5789": 126,
        "5790": 242,
        "5791": 218,
        "5792": 29,
        "5793": 118,
        "5794": 77,
        "5795": 65,
        "5796": 54,
        "5797": 81,
        "5798": 204,
        "5799": 60,
        "5800": 202,
        "5801": 33,
        "5802": 43,
        "5803": 11,
        "5804": 202,
        "5805": 250,
        "5806": 242,
        "5807": 223,
        "5808": 181,
        "5809": 222,
        "5810": 214,
        "5811": 52,
        "5812": 123,
        "5813": 148,
        "5814": 16,
        "5815": 68,
        "5816": 122,
        "5817": 68,
        "5818": 39,
        "5819": 37,
        "5820": 156,
        "5821": 80,
        "5822": 91,
        "5823": 139,
        "5824": 28,
        "5825": 23,
        "5826": 126,
        "5827": 163,
        "5828": 48,
        "5829": 163,
        "5830": 189,
        "5831": 27,
        "5832": 175,
        "5833": 42,
        "5834": 245,
        "5835": 236,
        "5836": 211,
        "5837": 245,
        "5838": 211,
        "5839": 185,
        "5840": 194,
        "5841": 172,
        "5842": 252,
        "5843": 137,
        "5844": 14,
        "5845": 8,
        "5846": 245,
        "5847": 169,
        "5848": 90,
        "5849": 246,
        "5850": 220,
        "5851": 116,
        "5852": 68,
        "5853": 64,
        "5854": 215,
        "5855": 195,
        "5856": 204,
        "5857": 148,
        "5858": 111,
        "5859": 192,
        "5860": 46,
        "5861": 207,
        "5862": 12,
        "5863": 144,
        "5864": 8,
        "5865": 132,
        "5866": 128,
        "5867": 15,
        "5868": 29,
        "5869": 178,
        "5870": 144,
        "5871": 131,
        "5872": 226,
        "5873": 117,
        "5874": 17,
        "5875": 125,
        "5876": 219,
        "5877": 85,
        "5878": 118,
        "5879": 211,
        "5880": 162,
        "5881": 92,
        "5882": 101,
        "5883": 93,
        "5884": 184,
        "5885": 23,
        "5886": 114,
        "5887": 103,
        "5888": 247,
        "5889": 191,
        "5890": 131,
        "5891": 57,
        "5892": 219,
        "5893": 53,
        "5894": 108,
        "5895": 67,
        "5896": 190,
        "5897": 242,
        "5898": 166,
        "5899": 185,
        "5900": 63,
        "5901": 61,
        "5902": 238,
        "5903": 230,
        "5904": 85,
        "5905": 128,
        "5906": 146,
        "5907": 55,
        "5908": 203,
        "5909": 125,
        "5910": 89,
        "5911": 219,
        "5912": 30,
        "5913": 188,
        "5914": 240,
        "5915": 172,
        "5916": 20,
        "5917": 155,
        "5918": 15,
        "5919": 87,
        "5920": 27,
        "5921": 115,
        "5922": 170,
        "5923": 233,
        "5924": 226,
        "5925": 50,
        "5926": 245,
        "5927": 123,
        "5928": 55,
        "5929": 57,
        "5930": 142,
        "5931": 78,
        "5932": 67,
        "5933": 62,
        "5934": 148,
        "5935": 218,
        "5936": 200,
        "5937": 22,
        "5938": 62,
        "5939": 13,
        "5940": 221,
        "5941": 109,
        "5942": 145,
        "5943": 90,
        "5944": 211,
        "5945": 237,
        "5946": 30,
        "5947": 149,
        "5948": 138,
        "5949": 143,
        "5950": 169,
        "5951": 143,
        "5952": 76,
        "5953": 100,
        "5954": 156,
        "5955": 136,
        "5956": 83,
        "5957": 97,
        "5958": 52,
        "5959": 227,
        "5960": 109,
        "5961": 83,
        "5962": 69,
        "5963": 235,
        "5964": 233,
        "5965": 43,
        "5966": 175,
        "5967": 28,
        "5968": 145,
        "5969": 112,
        "5970": 179,
        "5971": 214,
        "5972": 163,
        "5973": 159,
        "5974": 128,
        "5975": 41,
        "5976": 4,
        "5977": 59,
        "5978": 1,
        "5979": 117,
        "5980": 133,
        "5981": 167,
        "5982": 131,
        "5983": 89,
        "5984": 52,
        "5985": 145,
        "5986": 35,
        "5987": 229,
        "5988": 8,
        "5989": 62,
        "5990": 157,
        "5991": 98,
        "5992": 194,
        "5993": 55,
        "5994": 4,
        "5995": 179,
        "5996": 212,
        "5997": 60,
        "5998": 134,
        "5999": 12,
        "6000": 206,
        "6001": 162,
        "6002": 21,
        "6003": 219,
        "6004": 241,
        "6005": 164,
        "6006": 229,
        "6007": 14,
        "6008": 109,
        "6009": 206,
        "6010": 107,
        "6011": 82,
        "6012": 107,
        "6013": 85,
        "6014": 2,
        "6015": 219,
        "6016": 225,
        "6017": 84,
        "6018": 85,
        "6019": 157,
        "6020": 20,
        "6021": 255,
        "6022": 221,
        "6023": 218,
        "6024": 143,
        "6025": 0,
        "6026": 94,
        "6027": 170,
        "6028": 9,
        "6029": 196,
        "6030": 210,
        "6031": 143,
        "6032": 241,
        "6033": 160,
        "6034": 18,
        "6035": 187,
        "6036": 26,
        "6037": 254,
        "6038": 183,
        "6039": 108,
        "6040": 115,
        "6041": 22,
        "6042": 154,
        "6043": 177,
        "6044": 213,
        "6045": 156,
        "6046": 80,
        "6047": 145,
        "6048": 140,
        "6049": 233,
        "6050": 66,
        "6051": 55,
        "6052": 232,
        "6053": 163,
        "6054": 120,
        "6055": 73,
        "6056": 109,
        "6057": 18,
        "6058": 242,
        "6059": 163,
        "6060": 203,
        "6061": 250,
        "6062": 125,
        "6063": 74,
        "6064": 190,
        "6065": 6,
        "6066": 218,
        "6067": 245,
        "6068": 240,
        "6069": 170,
        "6070": 235,
        "6071": 66,
        "6072": 43,
        "6073": 244,
        "6074": 164,
        "6075": 86,
        "6076": 32,
        "6077": 161,
        "6078": 165,
        "6079": 12,
        "6080": 64,
        "6081": 80,
        "6082": 136,
        "6083": 41,
        "6084": 215,
        "6085": 212,
        "6086": 155,
        "6087": 111,
        "6088": 182,
        "6089": 240,
        "6090": 17,
        "6091": 215,
        "6092": 26,
        "6093": 78,
        "6094": 113,
        "6095": 184,
        "6096": 18,
        "6097": 195,
        "6098": 2,
        "6099": 191,
        "6100": 183,
        "6101": 110,
        "6102": 99,
        "6103": 180,
        "6104": 91,
        "6105": 51,
        "6106": 56,
        "6107": 131,
        "6108": 252,
        "6109": 248,
        "6110": 165,
        "6111": 189,
        "6112": 149,
        "6113": 172,
        "6114": 168,
        "6115": 87,
        "6116": 18,
        "6117": 176,
        "6118": 176,
        "6119": 102,
        "6120": 51,
        "6121": 171,
        "6122": 230,
        "6123": 130,
        "6124": 3,
        "6125": 116,
        "6126": 97,
        "6127": 163,
        "6128": 215,
        "6129": 206,
        "6130": 149,
        "6131": 110,
        "6132": 149,
        "6133": 102,
        "6134": 144,
        "6135": 241,
        "6136": 169,
        "6137": 6,
        "6138": 44,
        "6139": 9,
        "6140": 166,
        "6141": 240,
        "6142": 129,
        "6143": 120,
        "6144": 115,
        "6145": 239,
        "6146": 67,
        "6147": 38,
        "6148": 210,
        "6149": 40,
        "6150": 120,
        "6151": 104,
        "6152": 113,
        "6153": 111,
        "6154": 106,
        "6155": 140,
        "6156": 153,
        "6157": 234,
        "6158": 214,
        "6159": 57,
        "6160": 212,
        "6161": 166,
        "6162": 199,
        "6163": 93,
        "6164": 162,
        "6165": 133,
        "6166": 192,
        "6167": 252,
        "6168": 7,
        "6169": 224,
        "6170": 197,
        "6171": 220,
        "6172": 178,
        "6173": 28,
        "6174": 240,
        "6175": 15,
        "6176": 199,
        "6177": 212,
        "6178": 107,
        "6179": 52,
        "6180": 139,
        "6181": 77,
        "6182": 119,
        "6183": 32,
        "6184": 218,
        "6185": 92,
        "6186": 212,
        "6187": 107,
        "6188": 160,
        "6189": 15,
        "6190": 101,
        "6191": 166,
        "6192": 204,
        "6193": 181,
        "6194": 62,
        "6195": 137,
        "6196": 162,
        "6197": 2,
        "6198": 192,
        "6199": 60,
        "6200": 254,
        "6201": 196,
        "6202": 100,
        "6203": 197,
        "6204": 86,
        "6205": 77,
        "6206": 228,
        "6207": 199,
        "6208": 122,
        "6209": 109,
        "6210": 147,
        "6211": 174,
        "6212": 174,
        "6213": 101,
        "6214": 138,
        "6215": 14,
        "6216": 175,
        "6217": 78,
        "6218": 180,
        "6219": 199,
        "6220": 124,
        "6221": 97,
        "6222": 212,
        "6223": 134,
        "6224": 85,
        "6225": 168,
        "6226": 82,
        "6227": 72,
        "6228": 109,
        "6229": 216,
        "6230": 96,
        "6231": 24,
        "6232": 144,
        "6233": 233,
        "6234": 84,
        "6235": 49,
        "6236": 202,
        "6237": 99,
        "6238": 224,
        "6239": 136,
        "6240": 198,
        "6241": 185,
        "6242": 102,
        "6243": 98,
        "6244": 49,
        "6245": 69,
        "6246": 210,
        "6247": 211,
        "6248": 157,
        "6249": 33,
        "6250": 212,
        "6251": 35,
        "6252": 152,
        "6253": 19,
        "6254": 0,
        "6255": 36,
        "6256": 25,
        "6257": 15,
        "6258": 145,
        "6259": 11,
        "6260": 81,
        "6261": 199,
        "6262": 245,
        "6263": 30,
        "6264": 99,
        "6265": 2,
        "6266": 71,
        "6267": 151,
        "6268": 234,
        "6269": 212,
        "6270": 82,
        "6271": 160,
        "6272": 47,
        "6273": 250,
        "6274": 224,
        "6275": 155,
        "6276": 230,
        "6277": 142,
        "6278": 87,
        "6279": 58,
        "6280": 88,
        "6281": 97,
        "6282": 59,
        "6283": 41,
        "6284": 229,
        "6285": 188,
        "6286": 69,
        "6287": 84,
        "6288": 151,
        "6289": 155,
        "6290": 246,
        "6291": 236,
        "6292": 69,
        "6293": 89,
        "6294": 157,
        "6295": 166,
        "6296": 161,
        "6297": 90,
        "6298": 133,
        "6299": 112,
        "6300": 17,
        "6301": 57,
        "6302": 179,
        "6303": 113,
        "6304": 84,
        "6305": 153,
        "6306": 176,
        "6307": 202,
        "6308": 173,
        "6309": 223,
        "6310": 206,
        "6311": 148,
        "6312": 136,
        "6313": 104,
        "6314": 144,
        "6315": 209,
        "6316": 120,
        "6317": 7,
        "6318": 103,
        "6319": 136,
        "6320": 241,
        "6321": 218,
        "6322": 121,
        "6323": 218,
        "6324": 23,
        "6325": 87,
        "6326": 18,
        "6327": 128,
        "6328": 75,
        "6329": 58,
        "6330": 83,
        "6331": 29,
        "6332": 226,
        "6333": 30,
        "6334": 55,
        "6335": 34,
        "6336": 8,
        "6337": 246,
        "6338": 142,
        "6339": 87,
        "6340": 51,
        "6341": 95,
        "6342": 156,
        "6343": 4,
        "6344": 95,
        "6345": 166,
        "6346": 105,
        "6347": 157,
        "6348": 204,
        "6349": 91,
        "6350": 34,
        "6351": 162,
        "6352": 145,
        "6353": 177,
        "6354": 165,
        "6355": 174,
        "6356": 140,
        "6357": 202,
        "6358": 108,
        "6359": 113,
        "6360": 134,
        "6361": 199,
        "6362": 207,
        "6363": 94,
        "6364": 90,
        "6365": 203,
        "6366": 187,
        "6367": 52,
        "6368": 21,
        "6369": 175,
        "6370": 162,
        "6371": 137,
        "6372": 95,
        "6373": 95,
        "6374": 146,
        "6375": 254,
        "6376": 210,
        "6377": 181,
        "6378": 182,
        "6379": 140,
        "6380": 101,
        "6381": 238,
        "6382": 149,
        "6383": 48,
        "6384": 157,
        "6385": 245,
        "6386": 56,
        "6387": 183,
        "6388": 212,
        "6389": 152,
        "6390": 63,
        "6391": 215,
        "6392": 145,
        "6393": 96,
        "6394": 65,
        "6395": 124,
        "6396": 77,
        "6397": 34,
        "6398": 8,
        "6399": 187,
        "6400": 12,
        "6401": 5,
        "6402": 144,
        "6403": 40,
        "6404": 107,
        "6405": 69,
        "6406": 140,
        "6407": 246,
        "6408": 2,
        "6409": 194,
        "6410": 50,
        "6411": 67,
        "6412": 150,
        "6413": 253,
        "6414": 31,
        "6415": 58,
        "6416": 221,
        "6417": 3,
        "6418": 227,
        "6419": 100,
        "6420": 219,
        "6421": 119,
        "6422": 0,
        "6423": 43,
        "6424": 204,
        "6425": 50,
        "6426": 42,
        "6427": 234,
        "6428": 18,
        "6429": 244,
        "6430": 49,
        "6431": 213,
        "6432": 17,
        "6433": 69,
        "6434": 210,
        "6435": 207,
        "6436": 76,
        "6437": 58,
        "6438": 132,
        "6439": 170,
        "6440": 210,
        "6441": 167,
        "6442": 68,
        "6443": 192,
        "6444": 199,
        "6445": 33,
        "6446": 112,
        "6447": 140,
        "6448": 181,
        "6449": 126,
        "6450": 74,
        "6451": 124,
        "6452": 197,
        "6453": 74,
        "6454": 24,
        "6455": 47,
        "6456": 108,
        "6457": 197,
        "6458": 127,
        "6459": 50,
        "6460": 125,
        "6461": 234,
        "6462": 66,
        "6463": 122,
        "6464": 118,
        "6465": 127,
        "6466": 251,
        "6467": 156,
        "6468": 177,
        "6469": 50,
        "6470": 123,
        "6471": 71,
        "6472": 160,
        "6473": 49,
        "6474": 57,
        "6475": 27,
        "6476": 225,
        "6477": 71,
        "6478": 193,
        "6479": 12,
        "6480": 245,
        "6481": 220,
        "6482": 8,
        "6483": 50,
        "6484": 196,
        "6485": 131,
        "6486": 210,
        "6487": 154,
        "6488": 193,
        "6489": 38,
        "6490": 175,
        "6491": 74,
        "6492": 51,
        "6493": 107,
        "6494": 30,
        "6495": 81,
        "6496": 39,
        "6497": 59,
        "6498": 65,
        "6499": 192,
        "6500": 177,
        "6501": 181,
        "6502": 133,
        "6503": 78,
        "6504": 192,
        "6505": 160,
        "6506": 176,
        "6507": 112,
        "6508": 58,
        "6509": 101,
        "6510": 209,
        "6511": 202,
        "6512": 195,
        "6513": 39,
        "6514": 105,
        "6515": 168,
        "6516": 38,
        "6517": 237,
        "6518": 188,
        "6519": 235,
        "6520": 197,
        "6521": 134,
        "6522": 31,
        "6523": 177,
        "6524": 242,
        "6525": 33,
        "6526": 40,
        "6527": 150,
        "6528": 148,
        "6529": 211,
        "6530": 79,
        "6531": 192,
        "6532": 79,
        "6533": 76,
        "6534": 76,
        "6535": 85,
        "6536": 39,
        "6537": 110,
        "6538": 177,
        "6539": 63,
        "6540": 87,
        "6541": 12,
        "6542": 9,
        "6543": 211,
        "6544": 177,
        "6545": 45,
        "6546": 160,
        "6547": 30,
        "6548": 6,
        "6549": 118,
        "6550": 6,
        "6551": 45,
        "6552": 220,
        "6553": 127,
        "6554": 143,
        "6555": 13,
        "6556": 167,
        "6557": 198,
        "6558": 158,
        "6559": 224,
        "6560": 166,
        "6561": 143,
        "6562": 79,
        "6563": 240,
        "6564": 188,
        "6565": 115,
        "6566": 196,
        "6567": 12,
        "6568": 128,
        "6569": 73,
        "6570": 28,
        "6571": 78,
        "6572": 156,
        "6573": 162,
        "6574": 204,
        "6575": 120,
        "6576": 142,
        "6577": 191,
        "6578": 33,
        "6579": 131,
        "6580": 5,
        "6581": 31,
        "6582": 99,
        "6583": 104,
        "6584": 68,
        "6585": 79,
        "6586": 48,
        "6587": 210,
        "6588": 32,
        "6589": 206,
        "6590": 27,
        "6591": 35,
        "6592": 52,
        "6593": 248,
        "6594": 73,
        "6595": 34,
        "6596": 29,
        "6597": 36,
        "6598": 168,
        "6599": 200,
        "6600": 78,
        "6601": 154,
        "6602": 79,
        "6603": 241,
        "6604": 26,
        "6605": 65,
        "6606": 205,
        "6607": 132,
        "6608": 136,
        "6609": 237,
        "6610": 87,
        "6611": 126,
        "6612": 27,
        "6613": 70,
        "6614": 13,
        "6615": 218,
        "6616": 90,
        "6617": 34,
        "6618": 208,
        "6619": 159,
        "6620": 226,
        "6621": 129,
        "6622": 84,
        "6623": 239,
        "6624": 55,
        "6625": 128,
        "6626": 111,
        "6627": 169,
        "6628": 207,
        "6629": 203,
        "6630": 75,
        "6631": 242,
        "6632": 158,
        "6633": 255,
        "6634": 166,
        "6635": 158,
        "6636": 174,
        "6637": 227,
        "6638": 207,
        "6639": 58,
        "6640": 126,
        "6641": 179,
        "6642": 108,
        "6643": 7,
        "6644": 203,
        "6645": 195,
        "6646": 26,
        "6647": 5,
        "6648": 40,
        "6649": 53,
        "6650": 162,
        "6651": 220,
        "6652": 145,
        "6653": 118,
        "6654": 72,
        "6655": 1,
        "6656": 72,
        "6657": 36,
        "6658": 174,
        "6659": 81,
        "6660": 161,
        "6661": 5,
        "6662": 240,
        "6663": 139,
        "6664": 235,
        "6665": 179,
        "6666": 87,
        "6667": 186,
        "6668": 232,
        "6669": 70,
        "6670": 159,
        "6671": 13,
        "6672": 69,
        "6673": 17,
        "6674": 15,
        "6675": 28,
        "6676": 62,
        "6677": 14,
        "6678": 102,
        "6679": 118,
        "6680": 150,
        "6681": 132,
        "6682": 228,
        "6683": 28,
        "6684": 15,
        "6685": 246,
        "6686": 140,
        "6687": 183,
        "6688": 173,
        "6689": 72,
        "6690": 102,
        "6691": 164,
        "6692": 211,
        "6693": 222,
        "6694": 254,
        "6695": 207,
        "6696": 73,
        "6697": 179,
        "6698": 96,
        "6699": 245,
        "6700": 61,
        "6701": 60,
        "6702": 159,
        "6703": 134,
        "6704": 32,
        "6705": 106,
        "6706": 242,
        "6707": 0,
        "6708": 204,
        "6709": 64,
        "6710": 167,
        "6711": 175,
        "6712": 211,
        "6713": 178,
        "6714": 75,
        "6715": 248,
        "6716": 128,
        "6717": 85,
        "6718": 40,
        "6719": 57,
        "6720": 197,
        "6721": 172,
        "6722": 122,
        "6723": 117,
        "6724": 178,
        "6725": 37,
        "6726": 153,
        "6727": 55,
        "6728": 85,
        "6729": 134,
        "6730": 138,
        "6731": 128,
        "6732": 214,
        "6733": 159,
        "6734": 37,
        "6735": 97,
        "6736": 19,
        "6737": 139,
        "6738": 121,
        "6739": 23,
        "6740": 125,
        "6741": 247,
        "6742": 133,
        "6743": 194,
        "6744": 199,
        "6745": 19,
        "6746": 146,
        "6747": 33,
        "6748": 89,
        "6749": 21,
        "6750": 108,
        "6751": 117,
        "6752": 253,
        "6753": 46,
        "6754": 242,
        "6755": 220,
        "6756": 202,
        "6757": 167,
        "6758": 8,
        "6759": 34,
        "6760": 164,
        "6761": 6,
        "6762": 85,
        "6763": 113,
        "6764": 67,
        "6765": 197,
        "6766": 192,
        "6767": 244,
        "6768": 204,
        "6769": 149,
        "6770": 248,
        "6771": 10,
        "6772": 42,
        "6773": 85,
        "6774": 156,
        "6775": 13,
        "6776": 23,
        "6777": 80,
        "6778": 253,
        "6779": 115,
        "6780": 56,
        "6781": 95,
        "6782": 204,
        "6783": 80,
        "6784": 252,
        "6785": 8,
        "6786": 253,
        "6787": 166,
        "6788": 100,
        "6789": 19,
        "6790": 6,
        "6791": 74,
        "6792": 235,
        "6793": 1,
        "6794": 21,
        "6795": 238,
        "6796": 110,
        "6797": 110,
        "6798": 126,
        "6799": 25,
        "6800": 228,
        "6801": 224,
        "6802": 252,
        "6803": 240,
        "6804": 51,
        "6805": 232,
        "6806": 182,
        "6807": 206,
        "6808": 246,
        "6809": 165,
        "6810": 195,
        "6811": 133,
        "6812": 72,
        "6813": 167,
        "6814": 123,
        "6815": 182,
        "6816": 81,
        "6817": 190,
        "6818": 228,
        "6819": 249,
        "6820": 200,
        "6821": 251,
        "6822": 77,
        "6823": 101,
        "6824": 7,
        "6825": 189,
        "6826": 85,
        "6827": 186,
        "6828": 106,
        "6829": 123,
        "6830": 124,
        "6831": 151,
        "6832": 178,
        "6833": 22,
        "6834": 140,
        "6835": 125,
        "6836": 146,
        "6837": 216,
        "6838": 241,
        "6839": 155,
        "6840": 97,
        "6841": 243,
        "6842": 23,
        "6843": 148,
        "6844": 202,
        "6845": 51,
        "6846": 68,
        "6847": 185,
        "6848": 221,
        "6849": 182,
        "6850": 66,
        "6851": 139,
        "6852": 77,
        "6853": 155,
        "6854": 56,
        "6855": 120,
        "6856": 2,
        "6857": 168,
        "6858": 33,
        "6859": 37,
        "6860": 202,
        "6861": 44,
        "6862": 232,
        "6863": 86,
        "6864": 129,
        "6865": 70,
        "6866": 36,
        "6867": 74,
        "6868": 55,
        "6869": 39,
        "6870": 175,
        "6871": 29,
        "6872": 185,
        "6873": 152,
        "6874": 13,
        "6875": 251,
        "6876": 203,
        "6877": 216,
        "6878": 57,
        "6879": 153,
        "6880": 70,
        "6881": 120,
        "6882": 160,
        "6883": 176,
        "6884": 203,
        "6885": 209,
        "6886": 17,
        "6887": 49,
        "6888": 175,
        "6889": 72,
        "6890": 175,
        "6891": 157,
        "6892": 243,
        "6893": 174,
        "6894": 19,
        "6895": 100,
        "6896": 148,
        "6897": 16,
        "6898": 15,
        "6899": 18,
        "6900": 69,
        "6901": 21,
        "6902": 102,
        "6903": 236,
        "6904": 187,
        "6905": 188,
        "6906": 153,
        "6907": 20,
        "6908": 206,
        "6909": 234,
        "6910": 95,
        "6911": 95,
        "6912": 115,
        "6913": 202,
        "6914": 99,
        "6915": 242,
        "6916": 77,
        "6917": 46,
        "6918": 15,
        "6919": 38,
        "6920": 12,
        "6921": 207,
        "6922": 141,
        "6923": 29,
        "6924": 187,
        "6925": 129,
        "6926": 75,
        "6927": 180,
        "6928": 47,
        "6929": 245,
        "6930": 241,
        "6931": 35,
        "6932": 166,
        "6933": 1,
        "6934": 105,
        "6935": 145,
        "6936": 157,
        "6937": 26,
        "6938": 145,
        "6939": 41,
        "6940": 126,
        "6941": 214,
        "6942": 253,
        "6943": 71,
        "6944": 9,
        "6945": 242,
        "6946": 137,
        "6947": 15,
        "6948": 238,
        "6949": 151,
        "6950": 68,
        "6951": 191,
        "6952": 106,
        "6953": 53,
        "6954": 195,
        "6955": 1,
        "6956": 34,
        "6957": 136,
        "6958": 44,
        "6959": 103,
        "6960": 8,
        "6961": 109,
        "6962": 160,
        "6963": 46,
        "6964": 211,
        "6965": 116,
        "6966": 116,
        "6967": 23,
        "6968": 199,
        "6969": 147,
        "6970": 108,
        "6971": 185,
        "6972": 21,
        "6973": 13,
        "6974": 30,
        "6975": 153,
        "6976": 119,
        "6977": 88,
        "6978": 118,
        "6979": 196,
        "6980": 66,
        "6981": 244,
        "6982": 67,
        "6983": 135,
        "6984": 30,
        "6985": 109,
        "6986": 203,
        "6987": 140,
        "6988": 211,
        "6989": 78,
        "6990": 2,
        "6991": 15,
        "6992": 92,
        "6993": 72,
        "6994": 120,
        "6995": 204,
        "6996": 15,
        "6997": 88,
        "6998": 219,
        "6999": 249,
        "7000": 127,
        "7001": 117,
        "7002": 9,
        "7003": 9,
        "7004": 39,
        "7005": 54,
        "7006": 53,
        "7007": 224,
        "7008": 152,
        "7009": 216,
        "7010": 225,
        "7011": 121,
        "7012": 176,
        "7013": 106,
        "7014": 111,
        "7015": 246,
        "7016": 46,
        "7017": 153,
        "7018": 249,
        "7019": 73,
        "7020": 54,
        "7021": 192,
        "7022": 112,
        "7023": 178,
        "7024": 142,
        "7025": 244,
        "7026": 210,
        "7027": 6,
        "7028": 33,
        "7029": 213,
        "7030": 86,
        "7031": 185,
        "7032": 87,
        "7033": 90,
        "7034": 158,
        "7035": 13,
        "7036": 103,
        "7037": 214,
        "7038": 153,
        "7039": 73,
        "7040": 56,
        "7041": 127,
        "7042": 75,
        "7043": 255,
        "7044": 76,
        "7045": 197,
        "7046": 108,
        "7047": 216,
        "7048": 195,
        "7049": 94,
        "7050": 80,
        "7051": 196,
        "7052": 136,
        "7053": 60,
        "7054": 49,
        "7055": 183,
        "7056": 61,
        "7057": 163,
        "7058": 44,
        "7059": 76,
        "7060": 133,
        "7061": 243,
        "7062": 34,
        "7063": 179,
        "7064": 85,
        "7065": 88,
        "7066": 24,
        "7067": 240,
        "7068": 170,
        "7069": 162,
        "7070": 199,
        "7071": 104,
        "7072": 172,
        "7073": 15,
        "7074": 135,
        "7075": 22,
        "7076": 9,
        "7077": 89,
        "7078": 220,
        "7079": 207,
        "7080": 46,
        "7081": 31,
        "7082": 249,
        "7083": 48,
        "7084": 152,
        "7085": 192,
        "7086": 222,
        "7087": 62,
        "7088": 78,
        "7089": 229,
        "7090": 194,
        "7091": 60,
        "7092": 235,
        "7093": 215,
        "7094": 3,
        "7095": 127,
        "7096": 52,
        "7097": 175,
        "7098": 193,
        "7099": 38,
        "7100": 111,
        "7101": 140,
        "7102": 196,
        "7103": 16,
        "7104": 43,
        "7105": 96,
        "7106": 181,
        "7107": 221,
        "7108": 94,
        "7109": 166,
        "7110": 79,
        "7111": 57,
        "7112": 165,
        "7113": 105,
        "7114": 251,
        "7115": 83,
        "7116": 111,
        "7117": 201,
        "7118": 254,
        "7119": 194,
        "7120": 70,
        "7121": 202,
        "7122": 82,
        "7123": 222,
        "7124": 92,
        "7125": 69,
        "7126": 195,
        "7127": 208,
        "7128": 103,
        "7129": 36,
        "7130": 31,
        "7131": 89,
        "7132": 108,
        "7133": 186,
        "7134": 158,
        "7135": 46,
        "7136": 45,
        "7137": 238,
        "7138": 213,
        "7139": 225,
        "7140": 54,
        "7141": 38,
        "7142": 227,
        "7143": 137,
        "7144": 80,
        "7145": 197,
        "7146": 92,
        "7147": 184,
        "7148": 2,
        "7149": 18,
        "7150": 222,
        "7151": 31,
        "7152": 144,
        "7153": 255,
        "7154": 228,
        "7155": 73,
        "7156": 203,
        "7157": 170,
        "7158": 23,
        "7159": 196,
        "7160": 17,
        "7161": 81,
        "7162": 9,
        "7163": 24,
        "7164": 242,
        "7165": 204,
        "7166": 185,
        "7167": 107,
        "7168": 53,
        "7169": 179,
        "7170": 51,
        "7171": 230,
        "7172": 27,
        "7173": 26,
        "7174": 173,
        "7175": 109,
        "7176": 228,
        "7177": 168,
        "7178": 235,
        "7179": 147,
        "7180": 46,
        "7181": 252,
        "7182": 200,
        "7183": 124,
        "7184": 24,
        "7185": 186,
        "7186": 134,
        "7187": 111,
        "7188": 10,
        "7189": 133,
        "7190": 217,
        "7191": 172,
        "7192": 164,
        "7193": 3,
        "7194": 175,
        "7195": 239,
        "7196": 50,
        "7197": 67,
        "7198": 78,
        "7199": 48,
        "7200": 102,
        "7201": 223,
        "7202": 40,
        "7203": 223,
        "7204": 222,
        "7205": 195,
        "7206": 253,
        "7207": 250,
        "7208": 160,
        "7209": 184,
        "7210": 251,
        "7211": 251,
        "7212": 231,
        "7213": 96,
        "7214": 239,
        "7215": 121,
        "7216": 136,
        "7217": 248,
        "7218": 149,
        "7219": 211,
        "7220": 62,
        "7221": 231,
        "7222": 86,
        "7223": 128,
        "7224": 237,
        "7225": 60,
        "7226": 166,
        "7227": 10,
        "7228": 20,
        "7229": 67,
        "7230": 186,
        "7231": 113,
        "7232": 71,
        "7233": 188,
        "7234": 32,
        "7235": 105,
        "7236": 252,
        "7237": 185,
        "7238": 72,
        "7239": 7,
        "7240": 22,
        "7241": 118,
        "7242": 85,
        "7243": 190,
        "7244": 134,
        "7245": 150,
        "7246": 151,
        "7247": 27,
        "7248": 151,
        "7249": 90,
        "7250": 35,
        "7251": 70,
        "7252": 21,
        "7253": 99,
        "7254": 128,
        "7255": 223,
        "7256": 140,
        "7257": 173,
        "7258": 92,
        "7259": 158,
        "7260": 47,
        "7261": 226,
        "7262": 181,
        "7263": 105,
        "7264": 60,
        "7265": 104,
        "7266": 97,
        "7267": 128,
        "7268": 159,
        "7269": 35,
        "7270": 252,
        "7271": 102,
        "7272": 69,
        "7273": 211,
        "7274": 15,
        "7275": 97,
        "7276": 39,
        "7277": 54,
        "7278": 83,
        "7279": 252,
        "7280": 39,
        "7281": 223,
        "7282": 190,
        "7283": 119,
        "7284": 23,
        "7285": 8,
        "7286": 184,
        "7287": 205,
        "7288": 251,
        "7289": 162,
        "7290": 183,
        "7291": 250,
        "7292": 144,
        "7293": 180,
        "7294": 30,
        "7295": 63,
        "7296": 3,
        "7297": 227,
        "7298": 128,
        "7299": 167,
        "7300": 148,
        "7301": 219,
        "7302": 215,
        "7303": 25,
        "7304": 74,
        "7305": 152,
        "7306": 213,
        "7307": 198,
        "7308": 45,
        "7309": 8,
        "7310": 214,
        "7311": 210,
        "7312": 187,
        "7313": 12,
        "7314": 127,
        "7315": 217,
        "7316": 91,
        "7317": 78,
        "7318": 21,
        "7319": 187,
        "7320": 150,
        "7321": 161,
        "7322": 2,
        "7323": 5,
        "7324": 73,
        "7325": 214,
        "7326": 129,
        "7327": 153,
        "7328": 132,
        "7329": 125,
        "7330": 15,
        "7331": 4,
        "7332": 85,
        "7333": 39,
        "7334": 45,
        "7335": 159,
        "7336": 167,
        "7337": 114,
        "7338": 179,
        "7339": 110,
        "7340": 192,
        "7341": 220,
        "7342": 206,
        "7343": 89,
        "7344": 216,
        "7345": 191,
        "7346": 92,
        "7347": 38,
        "7348": 241,
        "7349": 216,
        "7350": 133,
        "7351": 241,
        "7352": 37,
        "7353": 216,
        "7354": 205,
        "7355": 219,
        "7356": 114,
        "7357": 15,
        "7358": 139,
        "7359": 168,
        "7360": 129,
        "7361": 108,
        "7362": 247,
        "7363": 158,
        "7364": 81,
        "7365": 4,
        "7366": 248,
        "7367": 253,
        "7368": 225,
        "7369": 217,
        "7370": 51,
        "7371": 188,
        "7372": 71,
        "7373": 141,
        "7374": 105,
        "7375": 100,
        "7376": 130,
        "7377": 138,
        "7378": 3,
        "7379": 145,
        "7380": 99,
        "7381": 63,
        "7382": 226,
        "7383": 241,
        "7384": 16,
        "7385": 16,
        "7386": 145,
        "7387": 160,
        "7388": 203,
        "7389": 5,
        "7390": 73,
        "7391": 243,
        "7392": 232,
        "7393": 90,
        "7394": 6,
        "7395": 18,
        "7396": 20,
        "7397": 254,
        "7398": 161,
        "7399": 171,
        "7400": 43,
        "7401": 1,
        "7402": 129,
        "7403": 24,
        "7404": 188,
        "7405": 167,
        "7406": 119,
        "7407": 122,
        "7408": 201,
        "7409": 95,
        "7410": 8,
        "7411": 139,
        "7412": 96,
        "7413": 12,
        "7414": 247,
        "7415": 188,
        "7416": 134,
        "7417": 83,
        "7418": 176,
        "7419": 161,
        "7420": 71,
        "7421": 231,
        "7422": 27,
        "7423": 38,
        "7424": 35,
        "7425": 200,
        "7426": 186,
        "7427": 213,
        "7428": 191,
        "7429": 36,
        "7430": 216,
        "7431": 109,
        "7432": 225,
        "7433": 4,
        "7434": 118,
        "7435": 182,
        "7436": 120,
        "7437": 243,
        "7438": 125,
        "7439": 54,
        "7440": 201,
        "7441": 218,
        "7442": 35,
        "7443": 28,
        "7444": 220,
        "7445": 206,
        "7446": 53,
        "7447": 157,
        "7448": 47,
        "7449": 235,
        "7450": 144,
        "7451": 215,
        "7452": 166,
        "7453": 111,
        "7454": 245,
        "7455": 106,
        "7456": 175,
        "7457": 140,
        "7458": 196,
        "7459": 28,
        "7460": 238,
        "7461": 132,
        "7462": 85,
        "7463": 248,
        "7464": 112,
        "7465": 69,
        "7466": 253,
        "7467": 202,
        "7468": 90,
        "7469": 81,
        "7470": 61,
        "7471": 253,
        "7472": 214,
        "7473": 69,
        "7474": 68,
        "7475": 190,
        "7476": 147,
        "7477": 125,
        "7478": 128,
        "7479": 169,
        "7480": 157,
        "7481": 5,
        "7482": 120,
        "7483": 189,
        "7484": 47,
        "7485": 86,
        "7486": 26,
        "7487": 122,
        "7488": 226,
        "7489": 144,
        "7490": 181,
        "7491": 25,
        "7492": 53,
        "7493": 155,
        "7494": 41,
        "7495": 171,
        "7496": 255,
        "7497": 56,
        "7498": 54,
        "7499": 34,
        "7500": 1,
        "7501": 201,
        "7502": 248,
        "7503": 131,
        "7504": 120,
        "7505": 242,
        "7506": 207,
        "7507": 138,
        "7508": 176,
        "7509": 219,
        "7510": 103,
        "7511": 213,
        "7512": 21,
        "7513": 221,
        "7514": 226,
        "7515": 136,
        "7516": 156,
        "7517": 87,
        "7518": 11,
        "7519": 45,
        "7520": 51,
        "7521": 12,
        "7522": 74,
        "7523": 249,
        "7524": 146,
        "7525": 249,
        "7526": 156,
        "7527": 166,
        "7528": 102,
        "7529": 80,
        "7530": 21,
        "7531": 161,
        "7532": 12,
        "7533": 187,
        "7534": 112,
        "7535": 124,
        "7536": 148,
        "7537": 111,
        "7538": 134,
        "7539": 59,
        "7540": 24,
        "7541": 25,
        "7542": 131,
        "7543": 152,
        "7544": 36,
        "7545": 138,
        "7546": 49,
        "7547": 193,
        "7548": 23,
        "7549": 98,
        "7550": 73,
        "7551": 138,
        "7552": 196,
        "7553": 9,
        "7554": 25,
        "7555": 134,
        "7556": 76,
        "7557": 2,
        "7558": 36,
        "7559": 228,
        "7560": 54,
        "7561": 59,
        "7562": 207,
        "7563": 105,
        "7564": 91,
        "7565": 110,
        "7566": 59,
        "7567": 87,
        "7568": 222,
        "7569": 92,
        "7570": 68,
        "7571": 120,
        "7572": 144,
        "7573": 160,
        "7574": 247,
        "7575": 221,
        "7576": 130,
        "7577": 53,
        "7578": 63,
        "7579": 239,
        "7580": 254,
        "7581": 205,
        "7582": 69,
        "7583": 239,
        "7584": 84,
        "7585": 92,
        "7586": 100,
        "7587": 12,
        "7588": 210,
        "7589": 66,
        "7590": 59,
        "7591": 49,
        "7592": 80,
        "7593": 198,
        "7594": 24,
        "7595": 203,
        "7596": 200,
        "7597": 206,
        "7598": 139,
        "7599": 11,
        "7600": 200,
        "7601": 190,
        "7602": 249,
        "7603": 110,
        "7604": 189,
        "7605": 213,
        "7606": 56,
        "7607": 36,
        "7608": 3,
        "7609": 76,
        "7610": 210,
        "7611": 106,
        "7612": 198,
        "7613": 195,
        "7614": 79,
        "7615": 32,
        "7616": 120,
        "7617": 180,
        "7618": 234,
        "7619": 50,
        "7620": 10,
        "7621": 29,
        "7622": 61,
        "7623": 40,
        "7624": 235,
        "7625": 21,
        "7626": 47,
        "7627": 163,
        "7628": 32,
        "7629": 38,
        "7630": 7,
        "7631": 76,
        "7632": 248,
        "7633": 140,
        "7634": 220,
        "7635": 9,
        "7636": 64,
        "7637": 35,
        "7638": 149,
        "7639": 227,
        "7640": 81,
        "7641": 85,
        "7642": 245,
        "7643": 231,
        "7644": 237,
        "7645": 180,
        "7646": 75,
        "7647": 255,
        "7648": 226,
        "7649": 10,
        "7650": 236,
        "7651": 24,
        "7652": 56,
        "7653": 110,
        "7654": 187,
        "7655": 140,
        "7656": 126,
        "7657": 36,
        "7658": 149,
        "7659": 209,
        "7660": 12,
        "7661": 200,
        "7662": 12,
        "7663": 147,
        "7664": 249,
        "7665": 12,
        "7666": 77,
        "7667": 15,
        "7668": 32,
        "7669": 136,
        "7670": 145,
        "7671": 171,
        "7672": 249,
        "7673": 158,
        "7674": 50,
        "7675": 94,
        "7676": 32,
        "7677": 31,
        "7678": 230,
        "7679": 152,
        "7680": 82,
        "7681": 141,
        "7682": 213,
        "7683": 62,
        "7684": 8,
        "7685": 40,
        "7686": 128,
        "7687": 82,
        "7688": 8,
        "7689": 193,
        "7690": 217,
        "7691": 135,
        "7692": 48,
        "7693": 242,
        "7694": 246,
        "7695": 116,
        "7696": 86,
        "7697": 174,
        "7698": 237,
        "7699": 217,
        "7700": 119,
        "7701": 69,
        "7702": 70,
        "7703": 157,
        "7704": 221,
        "7705": 76,
        "7706": 150,
        "7707": 150,
        "7708": 115,
        "7709": 2,
        "7710": 121,
        "7711": 198,
        "7712": 44,
        "7713": 108,
        "7714": 30,
        "7715": 113,
        "7716": 129,
        "7717": 246,
        "7718": 124,
        "7719": 193,
        "7720": 236,
        "7721": 218,
        "7722": 244,
        "7723": 87,
        "7724": 52,
        "7725": 38,
        "7726": 174,
        "7727": 32,
        "7728": 4,
        "7729": 241,
        "7730": 81,
        "7731": 240,
        "7732": 149,
        "7733": 68,
        "7734": 59,
        "7735": 86,
        "7736": 61,
        "7737": 37,
        "7738": 1,
        "7739": 85,
        "7740": 176,
        "7741": 178,
        "7742": 204,
        "7743": 251,
        "7744": 107,
        "7745": 98,
        "7746": 24,
        "7747": 102,
        "7748": 195,
        "7749": 189,
        "7750": 179,
        "7751": 19,
        "7752": 141,
        "7753": 75,
        "7754": 250,
        "7755": 56,
        "7756": 93,
        "7757": 93,
        "7758": 96,
        "7759": 143,
        "7760": 76,
        "7761": 8,
        "7762": 114,
        "7763": 112,
        "7764": 227,
        "7765": 146,
        "7766": 235,
        "7767": 1,
        "7768": 33,
        "7769": 81,
        "7770": 71,
        "7771": 118,
        "7772": 90,
        "7773": 12,
        "7774": 229,
        "7775": 194,
        "7776": 230,
        "7777": 209,
        "7778": 188,
        "7779": 134,
        "7780": 33,
        "7781": 8,
        "7782": 127,
        "7783": 74,
        "7784": 2,
        "7785": 29,
        "7786": 144,
        "7787": 93,
        "7788": 9,
        "7789": 174,
        "7790": 126,
        "7791": 219,
        "7792": 160,
        "7793": 7,
        "7794": 101,
        "7795": 55,
        "7796": 181,
        "7797": 231,
        "7798": 25,
        "7799": 68,
        "7800": 72,
        "7801": 49,
        "7802": 23,
        "7803": 93,
        "7804": 167,
        "7805": 194,
        "7806": 116,
        "7807": 107,
        "7808": 207,
        "7809": 36,
        "7810": 57,
        "7811": 73,
        "7812": 50,
        "7813": 235,
        "7814": 40,
        "7815": 3,
        "7816": 136,
        "7817": 171,
        "7818": 219,
        "7819": 240,
        "7820": 229,
        "7821": 208,
        "7822": 183,
        "7823": 77,
        "7824": 212,
        "7825": 74,
        "7826": 195,
        "7827": 153,
        "7828": 154,
        "7829": 108,
        "7830": 217,
        "7831": 194,
        "7832": 58,
        "7833": 22,
        "7834": 48,
        "7835": 118,
        "7836": 232,
        "7837": 122,
        "7838": 46,
        "7839": 235,
        "7840": 14,
        "7841": 72,
        "7842": 216,
        "7843": 51,
        "7844": 226,
        "7845": 12,
        "7846": 27,
        "7847": 161,
        "7848": 140,
        "7849": 0,
        "7850": 204,
        "7851": 7,
        "7852": 77,
        "7853": 25,
        "7854": 4,
        "7855": 123,
        "7856": 215,
        "7857": 240,
        "7858": 94,
        "7859": 48,
        "7860": 248,
        "7861": 193,
        "7862": 176,
        "7863": 129,
        "7864": 50,
        "7865": 119,
        "7866": 222,
        "7867": 44,
        "7868": 235,
        "7869": 122,
        "7870": 206,
        "7871": 24,
        "7872": 152,
        "7873": 44,
        "7874": 56,
        "7875": 196,
        "7876": 74,
        "7877": 95,
        "7878": 132,
        "7879": 144,
        "7880": 169,
        "7881": 218,
        "7882": 247,
        "7883": 19,
        "7884": 188,
        "7885": 134,
        "7886": 230,
        "7887": 180,
        "7888": 82,
        "7889": 169,
        "7890": 96,
        "7891": 252,
        "7892": 93,
        "7893": 227,
        "7894": 79,
        "7895": 225,
        "7896": 12,
        "7897": 229,
        "7898": 9,
        "7899": 60,
        "7900": 50,
        "7901": 220,
        "7902": 167,
        "7903": 216,
        "7904": 251,
        "7905": 218,
        "7906": 147,
        "7907": 243,
        "7908": 159,
        "7909": 211,
        "7910": 195,
        "7911": 112,
        "7912": 182,
        "7913": 4,
        "7914": 31,
        "7915": 87,
        "7916": 72,
        "7917": 121,
        "7918": 165,
        "7919": 197,
        "7920": 101,
        "7921": 47,
        "7922": 78,
        "7923": 33,
        "7924": 186,
        "7925": 45,
        "7926": 242,
        "7927": 83,
        "7928": 156,
        "7929": 123,
        "7930": 47,
        "7931": 83,
        "7932": 86,
        "7933": 45,
        "7934": 254,
        "7935": 57,
        "7936": 30,
        "7937": 202,
        "7938": 73,
        "7939": 32,
        "7940": 173,
        "7941": 4,
        "7942": 106,
        "7943": 47,
        "7944": 67,
        "7945": 122,
        "7946": 116,
        "7947": 180,
        "7948": 26,
        "7949": 48,
        "7950": 232,
        "7951": 40,
        "7952": 235,
        "7953": 8,
        "7954": 202,
        "7955": 26,
        "7956": 68,
        "7957": 33,
        "7958": 55,
        "7959": 51,
        "7960": 63,
        "7961": 126,
        "7962": 60,
        "7963": 114,
        "7964": 65,
        "7965": 211,
        "7966": 138,
        "7967": 40,
        "7968": 123,
        "7969": 33,
        "7970": 7,
        "7971": 190,
        "7972": 177,
        "7973": 230,
        "7974": 51,
        "7975": 8,
        "7976": 38,
        "7977": 85,
        "7978": 171,
        "7979": 120,
        "7980": 188,
        "7981": 229,
        "7982": 184,
        "7983": 235,
        "7984": 207,
        "7985": 59,
        "7986": 5,
        "7987": 187,
        "7988": 180,
        "7989": 60,
        "7990": 215,
        "7991": 74,
        "7992": 33,
        "7993": 21,
        "7994": 255,
        "7995": 143,
        "7996": 110,
        "7997": 202,
        "7998": 40,
        "7999": 145,
        "8000": 101,
        "8001": 21,
        "8002": 33,
        "8003": 117,
        "8004": 181,
        "8005": 213,
        "8006": 57,
        "8007": 133,
        "8008": 53,
        "8009": 161,
        "8010": 69,
        "8011": 213,
        "8012": 72,
        "8013": 114,
        "8014": 128,
        "8015": 143,
        "8016": 205,
        "8017": 184,
        "8018": 26,
        "8019": 37,
        "8020": 16,
        "8021": 217,
        "8022": 216,
        "8023": 76,
        "8024": 194,
        "8025": 165,
        "8026": 237,
        "8027": 132,
        "8028": 67,
        "8029": 78,
        "8030": 35,
        "8031": 234,
        "8032": 230,
        "8033": 196,
        "8034": 232,
        "8035": 75,
        "8036": 243,
        "8037": 17,
        "8038": 66,
        "8039": 77,
        "8040": 58,
        "8041": 205,
        "8042": 1,
        "8043": 130,
        "8044": 124,
        "8045": 215,
        "8046": 103,
        "8047": 248,
        "8048": 160,
        "8049": 92,
        "8050": 92,
        "8051": 74,
        "8052": 207,
        "8053": 52,
        "8054": 165,
        "8055": 183,
        "8056": 169,
        "8057": 254,
        "8058": 36,
        "8059": 77,
        "8060": 150,
        "8061": 126,
        "8062": 249,
        "8063": 193,
        "8064": 66,
        "8065": 128,
        "8066": 235,
        "8067": 62,
        "8068": 65,
        "8069": 190,
        "8070": 110,
        "8071": 243,
        "8072": 75,
        "8073": 22,
        "8074": 234,
        "8075": 158,
        "8076": 118,
        "8077": 104,
        "8078": 101,
        "8079": 17,
        "8080": 66,
        "8081": 89,
        "8082": 49,
        "8083": 228,
        "8084": 211,
        "8085": 48,
        "8086": 254,
        "8087": 236,
        "8088": 193,
        "8089": 73,
        "8090": 123,
        "8091": 170,
        "8092": 122,
        "8093": 67,
        "8094": 191,
        "8095": 16,
        "8096": 163,
        "8097": 128,
        "8098": 184,
        "8099": 172,
        "8100": 85,
        "8101": 86,
        "8102": 37,
        "8103": 20,
        "8104": 243,
        "8105": 154,
        "8106": 111,
        "8107": 3,
        "8108": 25,
        "8109": 250,
        "8110": 82,
        "8111": 78,
        "8112": 65,
        "8113": 47,
        "8114": 163,
        "8115": 78,
        "8116": 29,
        "8117": 233,
        "8118": 138,
        "8119": 129,
        "8120": 61,
        "8121": 118,
        "8122": 127,
        "8123": 158,
        "8124": 98,
        "8125": 253,
        "8126": 29,
        "8127": 180,
        "8128": 62,
        "8129": 29,
        "8130": 141,
        "8131": 54,
        "8132": 253,
        "8133": 137,
        "8134": 87,
        "8135": 56,
        "8136": 197,
        "8137": 59,
        "8138": 158,
        "8139": 158,
        "8140": 206,
        "8141": 55,
        "8142": 202,
        "8143": 239,
        "8144": 38,
        "8145": 143,
        "8146": 206,
        "8147": 23,
        "8148": 77,
        "8149": 196,
        "8150": 23,
        "8151": 167,
        "8152": 113,
        "8153": 81,
        "8154": 244,
        "8155": 72,
        "8156": 153,
        "8157": 153,
        "8158": 116,
        "8159": 81,
        "8160": 62,
        "8161": 123,
        "8162": 240,
        "8163": 184,
        "8164": 138,
        "8165": 231,
        "8166": 43,
        "8167": 22,
        "8168": 5,
        "8169": 101,
        "8170": 87,
        "8171": 117,
        "8172": 71,
        "8173": 167,
        "8174": 228,
        "8175": 25,
        "8176": 9,
        "8177": 166,
        "8178": 22,
        "8179": 151,
        "8180": 73,
        "8181": 220,
        "8182": 62,
        "8183": 128,
        "8184": 105,
        "8185": 178,
        "8186": 99,
        "8187": 135,
        "8188": 179,
        "8189": 59,
        "8190": 5,
        "8191": 100,
        "8192": 4,
        "8193": 115,
        "8194": 97,
        "8195": 201,
        "8196": 103,
        "8197": 16,
        "8198": 0,
        "8199": 71,
        "8200": 102,
        "8201": 180,
        "8202": 28,
        "8203": 144,
        "8204": 213,
        "8205": 172,
        "8206": 21,
        "8207": 204,
        "8208": 71,
        "8209": 159,
        "8210": 178,
        "8211": 147,
        "8212": 105,
        "8213": 13,
        "8214": 234,
        "8215": 58,
        "8216": 244,
        "8217": 162,
        "8218": 187,
        "8219": 232,
        "8220": 179,
        "8221": 44,
        "8222": 240,
        "8223": 3,
        "8224": 189,
        "8225": 60,
        "8226": 122,
        "8227": 127,
        "8228": 176,
        "8229": 229,
        "8230": 238,
        "8231": 172,
        "8232": 63,
        "8233": 188,
        "8234": 54,
        "8235": 122,
        "8236": 8,
        "8237": 140,
        "8238": 142,
        "8239": 79,
        "8240": 97,
        "8241": 227,
        "8242": 248,
        "8243": 47,
        "8244": 145,
        "8245": 243,
        "8246": 254,
        "8247": 15,
        "8248": 24,
        "8249": 159,
        "8250": 136,
        "8251": 61,
        "8252": 241,
        "8253": 69,
        "8254": 101,
        "8255": 228,
        "8256": 44,
        "8257": 184,
        "8258": 83,
        "8259": 26,
        "8260": 19,
        "8261": 155,
        "8262": 43,
        "8263": 187,
        "8264": 252,
        "8265": 110,
        "8266": 245,
        "8267": 221,
        "8268": 248,
        "8269": 19,
        "8270": 181,
        "8271": 16,
        "8272": 177,
        "8273": 201,
        "8274": 137,
        "8275": 151,
        "8276": 86,
        "8277": 128,
        "8278": 114,
        "8279": 219,
        "8280": 25,
        "8281": 40,
        "8282": 6,
        "8283": 192,
        "8284": 156,
        "8285": 249,
        "8286": 73,
        "8287": 78,
        "8288": 11,
        "8289": 63,
        "8290": 232,
        "8291": 146,
        "8292": 184,
        "8293": 43,
        "8294": 0,
        "8295": 244,
        "8296": 79,
        "8297": 99,
        "8298": 182,
        "8299": 243,
        "8300": 30,
        "8301": 167,
        "8302": 170,
        "8303": 17,
        "8304": 215,
        "8305": 238,
        "8306": 109,
        "8307": 246,
        "8308": 107,
        "8309": 144,
        "8310": 253,
        "8311": 53,
        "8312": 10,
        "8313": 24,
        "8314": 178,
        "8315": 33,
        "8316": 133,
        "8317": 118,
        "8318": 49,
        "8319": 18,
        "8320": 89,
        "8321": 122,
        "8322": 107,
        "8323": 76,
        "8324": 152,
        "8325": 119,
        "8326": 227,
        "8327": 11,
        "8328": 66,
        "8329": 222,
        "8330": 46,
        "8331": 236,
        "8332": 53,
        "8333": 105,
        "8334": 162,
        "8335": 183,
        "8336": 211,
        "8337": 40,
        "8338": 77,
        "8339": 195,
        "8340": 201,
        "8341": 138,
        "8342": 115,
        "8343": 87,
        "8344": 242,
        "8345": 92,
        "8346": 33,
        "8347": 119,
        "8348": 53,
        "8349": 90,
        "8350": 54,
        "8351": 195,
        "8352": 2,
        "8353": 212,
        "8354": 65,
        "8355": 166,
        "8356": 84,
        "8357": 127,
        "8358": 202,
        "8359": 238,
        "8360": 20,
        "8361": 29,
        "8362": 233,
        "8363": 117,
        "8364": 224,
        "8365": 42,
        "8366": 38,
        "8367": 200,
        "8368": 102,
        "8369": 184,
        "8370": 154,
        "8371": 238,
        "8372": 221,
        "8373": 47,
        "8374": 117,
        "8375": 184,
        "8376": 43,
        "8377": 111,
        "8378": 3,
        "8379": 61,
        "8380": 214,
        "8381": 252,
        "8382": 17,
        "8383": 244,
        "8384": 26,
        "8385": 230,
        "8386": 27,
        "8387": 207,
        "8388": 181,
        "8389": 0,
        "8390": 139,
        "8391": 203,
        "8392": 156,
        "8393": 180,
        "8394": 71,
        "8395": 213,
        "8396": 84,
        "8397": 34,
        "8398": 177,
        "8399": 0,
        "8400": 23,
        "8401": 250,
        "8402": 8,
        "8403": 184,
        "8404": 211,
        "8405": 227,
        "8406": 197,
        "8407": 253,
        "8408": 220,
        "8409": 249,
        "8410": 111,
        "8411": 116,
        "8412": 218,
        "8413": 121,
        "8414": 191,
        "8415": 46,
        "8416": 3,
        "8417": 104,
        "8418": 70,
        "8419": 214,
        "8420": 138,
        "8421": 102,
        "8422": 158,
        "8423": 72,
        "8424": 85,
        "8425": 215,
        "8426": 242,
        "8427": 8,
        "8428": 142,
        "8429": 111,
        "8430": 245,
        "8431": 52,
        "8432": 3,
        "8433": 80,
        "8434": 35,
        "8435": 94,
        "8436": 29,
        "8437": 91,
        "8438": 118,
        "8439": 169,
        "8440": 248,
        "8441": 191,
        "8442": 209,
        "8443": 212,
        "8444": 178,
        "8445": 215,
        "8446": 43,
        "8447": 15,
        "8448": 73,
        "8449": 184,
        "8450": 205,
        "8451": 113,
        "8452": 78,
        "8453": 133,
        "8454": 42,
        "8455": 26,
        "8456": 104,
        "8457": 134,
        "8458": 69,
        "8459": 169,
        "8460": 247,
        "8461": 112,
        "8462": 214,
        "8463": 72,
        "8464": 114,
        "8465": 194,
        "8466": 56,
        "8467": 218,
        "8468": 10,
        "8469": 37,
        "8470": 93,
        "8471": 149,
        "8472": 91,
        "8473": 228,
        "8474": 154,
        "8475": 125,
        "8476": 228,
        "8477": 195,
        "8478": 123,
        "8479": 24,
        "8480": 211,
        "8481": 203,
        "8482": 253,
        "8483": 222,
        "8484": 203,
        "8485": 46,
        "8486": 135,
        "8487": 235,
        "8488": 105,
        "8489": 14,
        "8490": 75,
        "8491": 235,
        "8492": 69,
        "8493": 211,
        "8494": 185,
        "8495": 207,
        "8496": 29,
        "8497": 71,
        "8498": 253,
        "8499": 239,
        "8500": 241,
        "8501": 153,
        "8502": 114,
        "8503": 211,
        "8504": 141,
        "8505": 65,
        "8506": 245,
        "8507": 168,
        "8508": 201,
        "8509": 95,
        "8510": 28,
        "8511": 20,
        "8512": 184,
        "8513": 128,
        "8514": 91,
        "8515": 246,
        "8516": 106,
        "8517": 230,
        "8518": 247,
        "8519": 95,
        "8520": 157,
        "8521": 100,
        "8522": 206,
        "8523": 61,
        "8524": 239,
        "8525": 99,
        "8526": 169,
        "8527": 1,
        "8528": 115,
        "8529": 164,
        "8530": 78,
        "8531": 16,
        "8532": 105,
        "8533": 204,
        "8534": 174,
        "8535": 58,
        "8536": 16,
        "8537": 30,
        "8538": 240,
        "8539": 120,
        "8540": 243,
        "8541": 235,
        "8542": 15,
        "8543": 198,
        "8544": 78,
        "8545": 213,
        "8546": 197,
        "8547": 221,
        "8548": 234,
        "8549": 139,
        "8550": 118,
        "8551": 178,
        "8552": 214,
        "8553": 65,
        "8554": 32,
        "8555": 207,
        "8556": 226,
        "8557": 77,
        "8558": 28,
        "8559": 81,
        "8560": 73,
        "8561": 87,
        "8562": 198,
        "8563": 222,
        "8564": 163,
        "8565": 105,
        "8566": 146,
        "8567": 38,
        "8568": 47,
        "8569": 81,
        "8570": 80,
        "8571": 52,
        "8572": 23,
        "8573": 59,
        "8574": 189,
        "8575": 173,
        "8576": 49,
        "8577": 17,
        "8578": 115,
        "8579": 117,
        "8580": 52,
        "8581": 34,
        "8582": 69,
        "8583": 167,
        "8584": 59,
        "8585": 213,
        "8586": 209,
        "8587": 172,
        "8588": 105,
        "8589": 175,
        "8590": 202,
        "8591": 181,
        "8592": 84,
        "8593": 135,
        "8594": 55,
        "8595": 255,
        "8596": 79,
        "8597": 133,
        "8598": 80,
        "8599": 165,
        "8600": 46,
        "8601": 164,
        "8602": 148,
        "8603": 103,
        "8604": 193,
        "8605": 130,
        "8606": 88,
        "8607": 212,
        "8608": 203,
        "8609": 96,
        "8610": 47,
        "8611": 176,
        "8612": 82,
        "8613": 226,
        "8614": 3,
        "8615": 66,
        "8616": 58,
        "8617": 11,
        "8618": 101,
        "8619": 31,
        "8620": 1,
        "8621": 48,
        "8622": 222,
        "8623": 150,
        "8624": 76,
        "8625": 97,
        "8626": 50,
        "8627": 208,
        "8628": 96,
        "8629": 125,
        "8630": 31,
        "8631": 235,
        "8632": 138,
        "8633": 8,
        "8634": 156,
        "8635": 147,
        "8636": 127,
        "8637": 142,
        "8638": 27,
        "8639": 78,
        "8640": 226,
        "8641": 227,
        "8642": 163,
        "8643": 74,
        "8644": 105,
        "8645": 139,
        "8646": 169,
        "8647": 199,
        "8648": 199,
        "8649": 169,
        "8650": 132,
        "8651": 160,
        "8652": 178,
        "8653": 177,
        "8654": 229,
        "8655": 224,
        "8656": 232,
        "8657": 102,
        "8658": 105,
        "8659": 202,
        "8660": 168,
        "8661": 7,
        "8662": 91,
        "8663": 252,
        "8664": 0,
        "8665": 73,
        "8666": 170,
        "8667": 73,
        "8668": 142,
        "8669": 143,
        "8670": 251,
        "8671": 221,
        "8672": 92,
        "8673": 210,
        "8674": 97,
        "8675": 25,
        "8676": 76,
        "8677": 150,
        "8678": 53,
        "8679": 126,
        "8680": 8,
        "8681": 165,
        "8682": 107,
        "8683": 64,
        "8684": 212,
        "8685": 185,
        "8686": 235,
        "8687": 60,
        "8688": 42,
        "8689": 200,
        "8690": 175,
        "8691": 48,
        "8692": 74,
        "8693": 89,
        "8694": 2,
        "8695": 151,
        "8696": 213,
        "8697": 137,
        "8698": 165,
        "8699": 172,
        "8700": 144,
        "8701": 124,
        "8702": 20,
        "8703": 8,
        "8704": 184,
        "8705": 86,
        "8706": 227,
        "8707": 125,
        "8708": 210,
        "8709": 120,
        "8710": 156,
        "8711": 241,
        "8712": 36,
        "8713": 121,
        "8714": 157,
        "8715": 59,
        "8716": 108,
        "8717": 50,
        "8718": 219,
        "8719": 241,
        "8720": 98,
        "8721": 18,
        "8722": 210,
        "8723": 90,
        "8724": 83,
        "8725": 84,
        "8726": 37,
        "8727": 251,
        "8728": 192,
        "8729": 228,
        "8730": 14,
        "8731": 150,
        "8732": 111,
        "8733": 217,
        "8734": 93,
        "8735": 227,
        "8736": 85,
        "8737": 58,
        "8738": 105,
        "8739": 51,
        "8740": 161,
        "8741": 211,
        "8742": 58,
        "8743": 53,
        "8744": 169,
        "8745": 89,
        "8746": 157,
        "8747": 41,
        "8748": 110,
        "8749": 41,
        "8750": 205,
        "8751": 83,
        "8752": 100,
        "8753": 67,
        "8754": 61,
        "8755": 138,
        "8756": 248,
        "8757": 4,
        "8758": 180,
        "8759": 205,
        "8760": 193,
        "8761": 97,
        "8762": 231,
        "8763": 45,
        "8764": 118,
        "8765": 158,
        "8766": 83,
        "8767": 77,
        "8768": 20,
        "8769": 205,
        "8770": 229,
        "8771": 211,
        "8772": 147,
        "8773": 23,
        "8774": 84,
        "8775": 19,
        "8776": 25,
        "8777": 74,
        "8778": 153,
        "8779": 21,
        "8780": 97,
        "8781": 6,
        "8782": 57,
        "8783": 47,
        "8784": 209,
        "8785": 194,
        "8786": 50,
        "8787": 190,
        "8788": 146,
        "8789": 235,
        "8790": 53,
        "8791": 171,
        "8792": 24,
        "8793": 37,
        "8794": 187,
        "8795": 254,
        "8796": 16,
        "8797": 142,
        "8798": 22,
        "8799": 81,
        "8800": 146,
        "8801": 161,
        "8802": 212,
        "8803": 172,
        "8804": 105,
        "8805": 46,
        "8806": 165,
        "8807": 101,
        "8808": 40,
        "8809": 245,
        "8810": 26,
        "8811": 182,
        "8812": 144,
        "8813": 75,
        "8814": 176,
        "8815": 0,
        "8816": 254,
        "8817": 31,
        "8818": 147,
        "8819": 252,
        "8820": 144,
        "8821": 14,
        "8822": 68,
        "8823": 137,
        "8824": 99,
        "8825": 29,
        "8826": 41,
        "8827": 137,
        "8828": 198,
        "8829": 244,
        "8830": 68,
        "8831": 238,
        "8832": 195,
        "8833": 81,
        "8834": 244,
        "8835": 152,
        "8836": 215,
        "8837": 138,
        "8838": 246,
        "8839": 50,
        "8840": 163,
        "8841": 103,
        "8842": 173,
        "8843": 6,
        "8844": 18,
        "8845": 134,
        "8846": 91,
        "8847": 68,
        "8848": 188,
        "8849": 39,
        "8850": 90,
        "8851": 203,
        "8852": 42,
        "8853": 52,
        "8854": 187,
        "8855": 209,
        "8856": 71,
        "8857": 106,
        "8858": 34,
        "8859": 166,
        "8860": 66,
        "8861": 3,
        "8862": 46,
        "8863": 158,
        "8864": 3,
        "8865": 28,
        "8866": 53,
        "8867": 169,
        "8868": 192,
        "8869": 3,
        "8870": 25,
        "8871": 61,
        "8872": 60,
        "8873": 4,
        "8874": 43,
        "8875": 238,
        "8876": 101,
        "8877": 132,
        "8878": 63,
        "8879": 205,
        "8880": 233,
        "8881": 127,
        "8882": 101,
        "8883": 31,
        "8884": 49,
        "8885": 17,
        "8886": 53,
        "8887": 58,
        "8888": 175,
        "8889": 94,
        "8890": 213,
        "8891": 213,
        "8892": 159,
        "8893": 87,
        "8894": 8,
        "8895": 102,
        "8896": 3,
        "8897": 1,
        "8898": 169,
        "8899": 217,
        "8900": 199,
        "8901": 73,
        "8902": 116,
        "8903": 145,
        "8904": 247,
        "8905": 44,
        "8906": 200,
        "8907": 30,
        "8908": 51,
        "8909": 141,
        "8910": 18,
        "8911": 195,
        "8912": 57,
        "8913": 251,
        "8914": 115,
        "8915": 212,
        "8916": 134,
        "8917": 78,
        "8918": 195,
        "8919": 168,
        "8920": 69,
        "8921": 51,
        "8922": 69,
        "8923": 183,
        "8924": 76,
        "8925": 142,
        "8926": 106,
        "8927": 28,
        "8928": 121,
        "8929": 36,
        "8930": 229,
        "8931": 35,
        "8932": 148,
        "8933": 63,
        "8934": 187,
        "8935": 68,
        "8936": 163,
        "8937": 182,
        "8938": 33,
        "8939": 147,
        "8940": 228,
        "8941": 91,
        "8942": 174,
        "8943": 175,
        "8944": 26,
        "8945": 0,
        "8946": 99,
        "8947": 128,
        "8948": 215,
        "8949": 106,
        "8950": 53,
        "8951": 217,
        "8952": 184,
        "8953": 55,
        "8954": 198,
        "8955": 88,
        "8956": 71,
        "8957": 194,
        "8958": 124,
        "8959": 157,
        "8960": 160,
        "8961": 193,
        "8962": 29,
        "8963": 44,
        "8964": 208,
        "8965": 155,
        "8966": 80,
        "8967": 242,
        "8968": 152,
        "8969": 240,
        "8970": 17,
        "8971": 157,
        "8972": 145,
        "8973": 245,
        "8974": 71,
        "8975": 50,
        "8976": 241,
        "8977": 214,
        "8978": 238,
        "8979": 196,
        "8980": 233,
        "8981": 36,
        "8982": 76,
        "8983": 124,
        "8984": 162,
        "8985": 1,
        "8986": 215,
        "8987": 70,
        "8988": 219,
        "8989": 208,
        "8990": 189,
        "8991": 233,
        "8992": 173,
        "8993": 114,
        "8994": 219,
        "8995": 204,
        "8996": 93,
        "8997": 63,
        "8998": 83,
        "8999": 251,
        "9000": 140,
        "9001": 180,
        "9002": 106,
        "9003": 23,
        "9004": 19,
        "9005": 153,
        "9006": 222,
        "9007": 26,
        "9008": 64,
        "9009": 77,
        "9010": 131,
        "9011": 204,
        "9012": 144,
        "9013": 212,
        "9014": 85,
        "9015": 41,
        "9016": 225,
        "9017": 221,
        "9018": 202,
        "9019": 167,
        "9020": 214,
        "9021": 72,
        "9022": 29,
        "9023": 12,
        "9024": 146,
        "9025": 153,
        "9026": 152,
        "9027": 239,
        "9028": 132,
        "9029": 191,
        "9030": 51,
        "9031": 169,
        "9032": 83,
        "9033": 189,
        "9034": 196,
        "9035": 30,
        "9036": 23,
        "9037": 222,
        "9038": 231,
        "9039": 60,
        "9040": 148,
        "9041": 110,
        "9042": 61,
        "9043": 2,
        "9044": 69,
        "9045": 49,
        "9046": 216,
        "9047": 37,
        "9048": 140,
        "9049": 182,
        "9050": 113,
        "9051": 0,
        "9052": 203,
        "9053": 85,
        "9054": 208,
        "9055": 21,
        "9056": 165,
        "9057": 216,
        "9058": 75,
        "9059": 49,
        "9060": 15,
        "9061": 185,
        "9062": 146,
        "9063": 175,
        "9064": 46,
        "9065": 193,
        "9066": 78,
        "9067": 50,
        "9068": 57,
        "9069": 81,
        "9070": 102,
        "9071": 60,
        "9072": 131,
        "9073": 19,
        "9074": 105,
        "9075": 169,
        "9076": 244,
        "9077": 214,
        "9078": 138,
        "9079": 84,
        "9080": 183,
        "9081": 241,
        "9082": 225,
        "9083": 126,
        "9084": 149,
        "9085": 198,
        "9086": 183,
        "9087": 110,
        "9088": 19,
        "9089": 123,
        "9090": 113,
        "9091": 83,
        "9092": 85,
        "9093": 164,
        "9094": 6,
        "9095": 246,
        "9096": 80,
        "9097": 39,
        "9098": 245,
        "9099": 45,
        "9100": 102,
        "9101": 182,
        "9102": 192,
        "9103": 89,
        "9104": 177,
        "9105": 98,
        "9106": 126,
        "9107": 88,
        "9108": 246,
        "9109": 92,
        "9110": 170,
        "9111": 176,
        "9112": 3,
        "9113": 183,
        "9114": 13,
        "9115": 78,
        "9116": 197,
        "9117": 68,
        "9118": 34,
        "9119": 152,
        "9120": 3,
        "9121": 242,
        "9122": 229,
        "9123": 176,
        "9124": 222,
        "9125": 79,
        "9126": 158,
        "9127": 93,
        "9128": 61,
        "9129": 186,
        "9130": 49,
        "9131": 36,
        "9132": 52,
        "9133": 208,
        "9134": 119,
        "9135": 227,
        "9136": 12,
        "9137": 250,
        "9138": 39,
        "9139": 64,
        "9140": 86,
        "9141": 8,
        "9142": 210,
        "9143": 180,
        "9144": 164,
        "9145": 38,
        "9146": 254,
        "9147": 114,
        "9148": 117,
        "9149": 72,
        "9150": 180,
        "9151": 91,
        "9152": 5,
        "9153": 194,
        "9154": 61,
        "9155": 125,
        "9156": 194,
        "9157": 194,
        "9158": 152,
        "9159": 25,
        "9160": 103,
        "9161": 76,
        "9162": 249,
        "9163": 235,
        "9164": 101,
        "9165": 130,
        "9166": 150,
        "9167": 18,
        "9168": 227,
        "9169": 146,
        "9170": 96,
        "9171": 157,
        "9172": 247,
        "9173": 75,
        "9174": 14,
        "9175": 47,
        "9176": 105,
        "9177": 168,
        "9178": 178,
        "9179": 238,
        "9180": 69,
        "9181": 91,
        "9182": 220,
        "9183": 133,
        "9184": 165,
        "9185": 136,
        "9186": 190,
        "9187": 213,
        "9188": 114,
        "9189": 143,
        "9190": 89,
        "9191": 114,
        "9192": 170,
        "9193": 171,
        "9194": 152,
        "9195": 247,
        "9196": 8,
        "9197": 252,
        "9198": 92,
        "9199": 177,
        "9200": 212,
        "9201": 42,
        "9202": 243,
        "9203": 114,
        "9204": 181,
        "9205": 193,
        "9206": 17,
        "9207": 124,
        "9208": 44,
        "9209": 118,
        "9210": 168,
        "9211": 51,
        "9212": 54,
        "9213": 210,
        "9214": 130,
        "9215": 48,
        "9216": 249,
        "9217": 139,
        "9218": 44,
        "9219": 252,
        "9220": 55,
        "9221": 36,
        "9222": 23,
        "9223": 33,
        "9224": 200,
        "9225": 197,
        "9226": 63,
        "9227": 148,
        "9228": 153,
        "9229": 138,
        "9230": 146,
        "9231": 53,
        "9232": 55,
        "9233": 62,
        "9234": 76,
        "9235": 73,
        "9236": 163,
        "9237": 207,
        "9238": 229,
        "9239": 221,
        "9240": 13,
        "9241": 111,
        "9242": 215,
        "9243": 139,
        "9244": 90,
        "9245": 120,
        "9246": 205,
        "9247": 120,
        "9248": 90,
        "9249": 22,
        "9250": 122,
        "9251": 30,
        "9252": 209,
        "9253": 52,
        "9254": 143,
        "9255": 58,
        "9256": 197,
        "9257": 57,
        "9258": 113,
        "9259": 42,
        "9260": 119,
        "9261": 178,
        "9262": 247,
        "9263": 230,
        "9264": 199,
        "9265": 231,
        "9266": 82,
        "9267": 212,
        "9268": 255,
        "9269": 237,
        "9270": 148,
        "9271": 190,
        "9272": 241,
        "9273": 207,
        "9274": 29,
        "9275": 174,
        "9276": 119,
        "9277": 126,
        "9278": 8,
        "9279": 26,
        "9280": 211,
        "9281": 249,
        "9282": 150,
        "9283": 114,
        "9284": 160,
        "9285": 210,
        "9286": 136,
        "9287": 207,
        "9288": 175,
        "9289": 232,
        "9290": 146,
        "9291": 75,
        "9292": 68,
        "9293": 129,
        "9294": 239,
        "9295": 58,
        "9296": 49,
        "9297": 67,
        "9298": 38,
        "9299": 217,
        "9300": 23,
        "9301": 87,
        "9302": 21,
        "9303": 25,
        "9304": 98,
        "9305": 67,
        "9306": 178,
        "9307": 197,
        "9308": 171,
        "9309": 204,
        "9310": 196,
        "9311": 98,
        "9312": 236,
        "9313": 248,
        "9314": 122,
        "9315": 250,
        "9316": 72,
        "9317": 37,
        "9318": 65,
        "9319": 6,
        "9320": 97,
        "9321": 202,
        "9322": 55,
        "9323": 84,
        "9324": 195,
        "9325": 57,
        "9326": 189,
        "9327": 76,
        "9328": 1,
        "9329": 145,
        "9330": 34,
        "9331": 38,
        "9332": 19,
        "9333": 34,
        "9334": 93,
        "9335": 238,
        "9336": 199,
        "9337": 0,
        "9338": 107,
        "9339": 4,
        "9340": 172,
        "9341": 160,
        "9342": 52,
        "9343": 170,
        "9344": 187,
        "9345": 180,
        "9346": 73,
        "9347": 12,
        "9348": 28,
        "9349": 25,
        "9350": 228,
        "9351": 118,
        "9352": 66,
        "9353": 126,
        "9354": 185,
        "9355": 237,
        "9356": 245,
        "9357": 15,
        "9358": 110,
        "9359": 27,
        "9360": 26,
        "9361": 148,
        "9362": 155,
        "9363": 93,
        "9364": 0,
        "9365": 219,
        "9366": 73,
        "9367": 101,
        "9368": 47,
        "9369": 202,
        "9370": 9,
        "9371": 51,
        "9372": 194,
        "9373": 251,
        "9374": 123,
        "9375": 54,
        "9376": 15,
        "9377": 228,
        "9378": 221,
        "9379": 116,
        "9380": 101,
        "9381": 191,
        "9382": 125,
        "9383": 210,
        "9384": 91,
        "9385": 98,
        "9386": 41,
        "9387": 176,
        "9388": 234,
        "9389": 156,
        "9390": 23,
        "9391": 33,
        "9392": 125,
        "9393": 19,
        "9394": 133,
        "9395": 120,
        "9396": 166,
        "9397": 56,
        "9398": 72,
        "9399": 17,
        "9400": 123,
        "9401": 215,
        "9402": 85,
        "9403": 168,
        "9404": 151,
        "9405": 32,
        "9406": 122,
        "9407": 226,
        "9408": 97,
        "9409": 12,
        "9410": 211,
        "9411": 86,
        "9412": 195,
        "9413": 122,
        "9414": 249,
        "9415": 179,
        "9416": 43,
        "9417": 113,
        "9418": 133,
        "9419": 53,
        "9420": 18,
        "9421": 196,
        "9422": 92,
        "9423": 251,
        "9424": 22,
        "9425": 248,
        "9426": 118,
        "9427": 172,
        "9428": 42,
        "9429": 12,
        "9430": 6,
        "9431": 222,
        "9432": 123,
        "9433": 114,
        "9434": 172,
        "9435": 197,
        "9436": 236,
        "9437": 164,
        "9438": 59,
        "9439": 184,
        "9440": 86,
        "9441": 227,
        "9442": 155,
        "9443": 243,
        "9444": 120,
        "9445": 148,
        "9446": 57,
        "9447": 29,
        "9448": 76,
        "9449": 191,
        "9450": 100,
        "9451": 172,
        "9452": 61,
        "9453": 221,
        "9454": 184,
        "9455": 83,
        "9456": 117,
        "9457": 229,
        "9458": 200,
        "9459": 211,
        "9460": 54,
        "9461": 120,
        "9462": 173,
        "9463": 165,
        "9464": 229,
        "9465": 76,
        "9466": 168,
        "9467": 189,
        "9468": 136,
        "9469": 214,
        "9470": 115,
        "9471": 169,
        "9472": 194,
        "9473": 105,
        "9474": 196,
        "9475": 74,
        "9476": 57,
        "9477": 157,
        "9478": 90,
        "9479": 150,
        "9480": 98,
        "9481": 158,
        "9482": 95,
        "9483": 163,
        "9484": 123,
        "9485": 91,
        "9486": 20,
        "9487": 178,
        "9488": 225,
        "9489": 9,
        "9490": 4,
        "9491": 161,
        "9492": 53,
        "9493": 127,
        "9494": 60,
        "9495": 57,
        "9496": 250,
        "9497": 226,
        "9498": 136,
        "9499": 206,
        "9500": 150,
        "9501": 176,
        "9502": 49,
        "9503": 207,
        "9504": 76,
        "9505": 64,
        "9506": 147,
        "9507": 101,
        "9508": 35,
        "9509": 128,
        "9510": 225,
        "9511": 163,
        "9512": 113,
        "9513": 239,
        "9514": 110,
        "9515": 93,
        "9516": 246,
        "9517": 39,
        "9518": 85,
        "9519": 210,
        "9520": 41,
        "9521": 147,
        "9522": 60,
        "9523": 49,
        "9524": 249,
        "9525": 80,
        "9526": 17,
        "9527": 224,
        "9528": 190,
        "9529": 172,
        "9530": 209,
        "9531": 254,
        "9532": 191,
        "9533": 13,
        "9534": 131,
        "9535": 111,
        "9536": 118,
        "9537": 122,
        "9538": 131,
        "9539": 162,
        "9540": 99,
        "9541": 166,
        "9542": 78,
        "9543": 255,
        "9544": 185,
        "9545": 176,
        "9546": 29,
        "9547": 195,
        "9548": 199,
        "9549": 108,
        "9550": 66,
        "9551": 29,
        "9552": 181,
        "9553": 106,
        "9554": 143,
        "9555": 78,
        "9556": 3,
        "9557": 0,
        "9558": 201,
        "9559": 211,
        "9560": 134,
        "9561": 221,
        "9562": 98,
        "9563": 177,
        "9564": 183,
        "9565": 31,
        "9566": 209,
        "9567": 5,
        "9568": 139,
        "9569": 114,
        "9570": 228,
        "9571": 131,
        "9572": 126,
        "9573": 158,
        "9574": 65,
        "9575": 122,
        "9576": 86,
        "9577": 132,
        "9578": 138,
        "9579": 167,
        "9580": 92,
        "9581": 58,
        "9582": 120,
        "9583": 130,
        "9584": 84,
        "9585": 177,
        "9586": 152,
        "9587": 252,
        "9588": 221,
        "9589": 197,
        "9590": 122,
        "9591": 188,
        "9592": 173,
        "9593": 217,
        "9594": 86,
        "9595": 87,
        "9596": 29,
        "9597": 208,
        "9598": 102,
        "9599": 75,
        "9600": 152,
        "9601": 244,
        "9602": 76,
        "9603": 224,
        "9604": 40,
        "9605": 127,
        "9606": 88,
        "9607": 199,
        "9608": 64,
        "9609": 188,
        "9610": 107,
        "9611": 225,
        "9612": 46,
        "9613": 186,
        "9614": 61,
        "9615": 58,
        "9616": 176,
        "9617": 234,
        "9618": 255,
        "9619": 43,
        "9620": 152,
        "9621": 117,
        "9622": 223,
        "9623": 14,
        "9624": 158,
        "9625": 227,
        "9626": 111,
        "9627": 3,
        "9628": 174,
        "9629": 15,
        "9630": 230,
        "9631": 3,
        "9632": 114,
        "9633": 243,
        "9634": 225,
        "9635": 143,
        "9636": 72,
        "9637": 135,
        "9638": 141,
        "9639": 71,
        "9640": 249,
        "9641": 3,
        "9642": 13,
        "9643": 60,
        "9644": 46,
        "9645": 233,
        "9646": 85,
        "9647": 254,
        "9648": 153,
        "9649": 190,
        "9650": 124,
        "9651": 108,
        "9652": 60,
        "9653": 145,
        "9654": 102,
        "9655": 66,
        "9656": 37,
        "9657": 103,
        "9658": 61,
        "9659": 18,
        "9660": 249,
        "9661": 21,
        "9662": 248,
        "9663": 47,
        "9664": 176,
        "9665": 253,
        "9666": 62,
        "9667": 41,
        "9668": 41,
        "9669": 184,
        "9670": 194,
        "9671": 179,
        "9672": 16,
        "9673": 200,
        "9674": 178,
        "9675": 50,
        "9676": 90,
        "9677": 224,
        "9678": 32,
        "9679": 64,
        "9680": 198,
        "9681": 81,
        "9682": 23,
        "9683": 95,
        "9684": 137,
        "9685": 208,
        "9686": 217,
        "9687": 69,
        "9688": 126,
        "9689": 181,
        "9690": 85,
        "9691": 225,
        "9692": 246,
        "9693": 38,
        "9694": 187,
        "9695": 15,
        "9696": 56,
        "9697": 109,
        "9698": 88,
        "9699": 194,
        "9700": 170,
        "9701": 83,
        "9702": 9,
        "9703": 148,
        "9704": 146,
        "9705": 97,
        "9706": 62,
        "9707": 52,
        "9708": 116,
        "9709": 127,
        "9710": 222,
        "9711": 163,
        "9712": 31,
        "9713": 201,
        "9714": 234,
        "9715": 117,
        "9716": 152,
        "9717": 10,
        "9718": 129,
        "9719": 96,
        "9720": 16,
        "9721": 226,
        "9722": 200,
        "9723": 55,
        "9724": 241,
        "9725": 122,
        "9726": 222,
        "9727": 109,
        "9728": 96,
        "9729": 227,
        "9730": 236,
        "9731": 164,
        "9732": 22,
        "9733": 223,
        "9734": 11,
        "9735": 63,
        "9736": 12,
        "9737": 47,
        "9738": 254,
        "9739": 57,
        "9740": 98,
        "9741": 155,
        "9742": 84,
        "9743": 254,
        "9744": 43,
        "9745": 200,
        "9746": 235,
        "9747": 253,
        "9748": 82,
        "9749": 36,
        "9750": 31,
        "9751": 55,
        "9752": 30,
        "9753": 142,
        "9754": 13,
        "9755": 251,
        "9756": 126,
        "9757": 115,
        "9758": 88,
        "9759": 111,
        "9760": 253,
        "9761": 237,
        "9762": 144,
        "9763": 85,
        "9764": 208,
        "9765": 1,
        "9766": 150,
        "9767": 245,
        "9768": 217,
        "9769": 64,
        "9770": 173,
        "9771": 66,
        "9772": 82,
        "9773": 113,
        "9774": 190,
        "9775": 83,
        "9776": 7,
        "9777": 231,
        "9778": 240,
        "9779": 241,
        "9780": 57,
        "9781": 114,
        "9782": 22,
        "9783": 70,
        "9784": 77,
        "9785": 216,
        "9786": 148,
        "9787": 67,
        "9788": 44,
        "9789": 126,
        "9790": 103,
        "9791": 140,
        "9792": 136,
        "9793": 227,
        "9794": 214,
        "9795": 19,
        "9796": 242,
        "9797": 38,
        "9798": 206,
        "9799": 15,
        "9800": 240,
        "9801": 99,
        "9802": 22,
        "9803": 23,
        "9804": 97,
        "9805": 19,
        "9806": 88,
        "9807": 209,
        "9808": 207,
        "9809": 37,
        "9810": 176,
        "9811": 137,
        "9812": 1,
        "9813": 195,
        "9814": 15,
        "9815": 46,
        "9816": 68,
        "9817": 138,
        "9818": 13,
        "9819": 212,
        "9820": 53,
        "9821": 243,
        "9822": 80,
        "9823": 244,
        "9824": 82,
        "9825": 173,
        "9826": 73,
        "9827": 111,
        "9828": 90,
        "9829": 192,
        "9830": 90,
        "9831": 251,
        "9832": 126,
        "9833": 106,
        "9834": 234,
        "9835": 83,
        "9836": 18,
        "9837": 5,
        "9838": 173,
        "9839": 36,
        "9840": 5,
        "9841": 54,
        "9842": 134,
        "9843": 92,
        "9844": 54,
        "9845": 127,
        "9846": 241,
        "9847": 48,
        "9848": 150,
        "9849": 79,
        "9850": 169,
        "9851": 239,
        "9852": 90,
        "9853": 127,
        "9854": 2,
        "9855": 150,
        "9856": 15,
        "9857": 84,
        "9858": 221,
        "9859": 116,
        "9860": 202,
        "9861": 207,
        "9862": 203,
        "9863": 237,
        "9864": 98,
        "9865": 86,
        "9866": 186,
        "9867": 233,
        "9868": 181,
        "9869": 138,
        "9870": 241,
        "9871": 209,
        "9872": 84,
        "9873": 121,
        "9874": 216,
        "9875": 152,
        "9876": 23,
        "9877": 146,
        "9878": 140,
        "9879": 235,
        "9880": 29,
        "9881": 112,
        "9882": 35,
        "9883": 58,
        "9884": 51,
        "9885": 109,
        "9886": 232,
        "9887": 120,
        "9888": 129,
        "9889": 143,
        "9890": 33,
        "9891": 178,
        "9892": 148,
        "9893": 165,
        "9894": 18,
        "9895": 105,
        "9896": 79,
        "9897": 130,
        "9898": 238,
        "9899": 188,
        "9900": 216,
        "9901": 100,
        "9902": 191,
        "9903": 179,
        "9904": 142,
        "9905": 206,
        "9906": 217,
        "9907": 45,
        "9908": 100,
        "9909": 32,
        "9910": 87,
        "9911": 174,
        "9912": 148,
        "9913": 59,
        "9914": 203,
        "9915": 100,
        "9916": 111,
        "9917": 65,
        "9918": 195,
        "9919": 123,
        "9920": 79,
        "9921": 250,
        "9922": 160,
        "9923": 30,
        "9924": 206,
        "9925": 105,
        "9926": 162,
        "9927": 184,
        "9928": 218,
        "9929": 196,
        "9930": 148,
        "9931": 199,
        "9932": 52,
        "9933": 222,
        "9934": 254,
        "9935": 194,
        "9936": 193,
        "9937": 155,
        "9938": 85,
        "9939": 234,
        "9940": 46,
        "9941": 62,
        "9942": 207,
        "9943": 87,
        "9944": 28,
        "9945": 173,
        "9946": 238,
        "9947": 179,
        "9948": 67,
        "9949": 71,
        "9950": 82,
        "9951": 46,
        "9952": 21,
        "9953": 120,
        "9954": 22,
        "9955": 71,
        "9956": 201,
        "9957": 155,
        "9958": 55,
        "9959": 104,
        "9960": 211,
        "9961": 141,
        "9962": 56,
        "9963": 143,
        "9964": 93,
        "9965": 115,
        "9966": 99,
        "9967": 6,
        "9968": 56,
        "9969": 75,
        "9970": 69,
        "9971": 8,
        "9972": 118,
        "9973": 89,
        "9974": 78,
        "9975": 49,
        "9976": 26,
        "9977": 94,
        "9978": 155,
        "9979": 249,
        "9980": 152,
        "9981": 119,
        "9982": 136,
        "9983": 252,
        "9984": 42,
        "9985": 198,
        "9986": 246,
        "9987": 201,
        "9988": 68,
        "9989": 153,
        "9990": 47,
        "9991": 104,
        "9992": 251,
        "9993": 24,
        "9994": 254,
        "9995": 117,
        "9996": 222,
        "9997": 177,
        "9998": 167,
        "9999": 53,
        "10000": 41,
        "10001": 82,
        "10002": 188,
        "10003": 97,
        "10004": 21,
        "10005": 14,
        "10006": 238,
        "10007": 220,
        "10008": 134,
        "10009": 255,
        "10010": 107,
        "10011": 124,
        "10012": 45,
        "10013": 22,
        "10014": 104,
        "10015": 89,
        "10016": 83,
        "10017": 202,
        "10018": 243,
        "10019": 111,
        "10020": 141,
        "10021": 18,
        "10022": 93,
        "10023": 236,
        "10024": 167,
        "10025": 253,
        "10026": 211,
        "10027": 191,
        "10028": 59,
        "10029": 63,
        "10030": 136,
        "10031": 85,
        "10032": 7,
        "10033": 136,
        "10034": 115,
        "10035": 210,
        "10036": 42,
        "10037": 164,
        "10038": 246,
        "10039": 229,
        "10040": 221,
        "10041": 159,
        "10042": 121,
        "10043": 237,
        "10044": 21,
        "10045": 34,
        "10046": 71,
        "10047": 110,
        "10048": 103,
        "10049": 32,
        "10050": 20,
        "10051": 156,
        "10052": 137,
        "10053": 94,
        "10054": 86,
        "10055": 13,
        "10056": 71,
        "10057": 220,
        "10058": 195,
        "10059": 250,
        "10060": 245,
        "10061": 133,
        "10062": 27,
        "10063": 2,
        "10064": 161,
        "10065": 242,
        "10066": 209,
        "10067": 138,
        "10068": 167,
        "10069": 198,
        "10070": 22,
        "10071": 180,
        "10072": 126,
        "10073": 44,
        "10074": 201,
        "10075": 123,
        "10076": 67,
        "10077": 46,
        "10078": 105,
        "10079": 3,
        "10080": 102,
        "10081": 249,
        "10082": 177,
        "10083": 233,
        "10084": 181,
        "10085": 159,
        "10086": 250,
        "10087": 29,
        "10088": 217,
        "10089": 87,
        "10090": 52,
        "10091": 211,
        "10092": 211,
        "10093": 49,
        "10094": 90,
        "10095": 126,
        "10096": 50,
        "10097": 32,
        "10098": 43,
        "10099": 192,
        "10100": 70,
        "10101": 217,
        "10102": 229,
        "10103": 176,
        "10104": 24,
        "10105": 166,
        "10106": 224,
        "10107": 169,
        "10108": 193,
        "10109": 241,
        "10110": 129,
        "10111": 187,
        "10112": 139,
        "10113": 56,
        "10114": 240,
        "10115": 212,
        "10116": 35,
        "10117": 120,
        "10118": 96,
        "10119": 161,
        "10120": 120,
        "10121": 75,
        "10122": 176,
        "10123": 103,
        "10124": 118,
        "10125": 68,
        "10126": 236,
        "10127": 1,
        "10128": 18,
        "10129": 104,
        "10130": 155,
        "10131": 64,
        "10132": 231,
        "10133": 82,
        "10134": 13,
        "10135": 89,
        "10136": 168,
        "10137": 73,
        "10138": 147,
        "10139": 46,
        "10140": 221,
        "10141": 189,
        "10142": 175,
        "10143": 8,
        "10144": 164,
        "10145": 233,
        "10146": 159,
        "10147": 152,
        "10148": 151,
        "10149": 58,
        "10150": 162,
        "10151": 152,
        "10152": 106,
        "10153": 71,
        "10154": 195,
        "10155": 243,
        "10156": 6,
        "10157": 124,
        "10158": 202,
        "10159": 12,
        "10160": 21,
        "10161": 9,
        "10162": 18,
        "10163": 72,
        "10164": 196,
        "10165": 174,
        "10166": 211,
        "10167": 166,
        "10168": 134,
        "10169": 166,
        "10170": 194,
        "10171": 122,
        "10172": 203,
        "10173": 42,
        "10174": 61,
        "10175": 228,
        "10176": 92,
        "10177": 86,
        "10178": 11,
        "10179": 46,
        "10180": 228,
        "10181": 155,
        "10182": 102,
        "10183": 65,
        "10184": 11,
        "10185": 198,
        "10186": 80,
        "10187": 251,
        "10188": 20,
        "10189": 58,
        "10190": 85,
        "10191": 91,
        "10192": 123,
        "10193": 81,
        "10194": 80,
        "10195": 15,
        "10196": 186,
        "10197": 126,
        "10198": 218,
        "10199": 197,
        "10200": 71,
        "10201": 216,
        "10202": 186,
        "10203": 177,
        "10204": 42,
        "10205": 108,
        "10206": 243,
        "10207": 109,
        "10208": 83,
        "10209": 178,
        "10210": 242,
        "10211": 77,
        "10212": 97,
        "10213": 220,
        "10214": 89,
        "10215": 3,
        "10216": 203,
        "10217": 193,
        "10218": 82,
        "10219": 100,
        "10220": 193,
        "10221": 9,
        "10222": 136,
        "10223": 141,
        "10224": 88,
        "10225": 49,
        "10226": 50,
        "10227": 233,
        "10228": 231,
        "10229": 29,
        "10230": 92,
        "10231": 182,
        "10232": 247,
        "10233": 11,
        "10234": 79,
        "10235": 34,
        "10236": 13,
        "10237": 126,
        "10238": 162,
        "10239": 41,
        "10240": 45,
        "10241": 248,
        "10242": 177,
        "10243": 74,
        "10244": 215,
        "10245": 36,
        "10246": 131,
        "10247": 33,
        "10248": 116,
        "10249": 212,
        "10250": 97,
        "10251": 101,
        "10252": 82,
        "10253": 72,
        "10254": 141,
        "10255": 164,
        "10256": 221,
        "10257": 6,
        "10258": 103,
        "10259": 188,
        "10260": 64,
        "10261": 59,
        "10262": 156,
        "10263": 132,
        "10264": 81,
        "10265": 128,
        "10266": 109,
        "10267": 140,
        "10268": 30,
        "10269": 203,
        "10270": 45,
        "10271": 147,
        "10272": 146,
        "10273": 164,
        "10274": 113,
        "10275": 39,
        "10276": 38,
        "10277": 91,
        "10278": 172,
        "10279": 184,
        "10280": 94,
        "10281": 148,
        "10282": 106,
        "10283": 116,
        "10284": 124,
        "10285": 197,
        "10286": 207,
        "10287": 214,
        "10288": 214,
        "10289": 81,
        "10290": 60,
        "10291": 199,
        "10292": 108,
        "10293": 233,
        "10294": 143,
        "10295": 23,
        "10296": 111,
        "10297": 10,
        "10298": 221,
        "10299": 35,
        "10300": 127,
        "10301": 212,
        "10302": 160,
        "10303": 193,
        "10304": 127,
        "10305": 5,
        "10306": 203,
        "10307": 110,
        "10308": 73,
        "10309": 43,
        "10310": 182,
        "10311": 232,
        "10312": 25,
        "10313": 172,
        "10314": 115,
        "10315": 237,
        "10316": 82,
        "10317": 132,
        "10318": 241,
        "10319": 77,
        "10320": 85,
        "10321": 162,
        "10322": 160,
        "10323": 243,
        "10324": 203,
        "10325": 203,
        "10326": 217,
        "10327": 3,
        "10328": 124,
        "10329": 16,
        "10330": 23,
        "10331": 165,
        "10332": 186,
        "10333": 129,
        "10334": 237,
        "10335": 180,
        "10336": 253,
        "10337": 12,
        "10338": 129,
        "10339": 185,
        "10340": 169,
        "10341": 191,
        "10342": 252,
        "10343": 233,
        "10344": 173,
        "10345": 9,
        "10346": 252,
        "10347": 176,
        "10348": 161,
        "10349": 178,
        "10350": 105,
        "10351": 114,
        "10352": 75,
        "10353": 240,
        "10354": 16,
        "10355": 208,
        "10356": 112,
        "10357": 245,
        "10358": 178,
        "10359": 91,
        "10360": 139,
        "10361": 149,
        "10362": 22,
        "10363": 36,
        "10364": 111,
        "10365": 250,
        "10366": 183,
        "10367": 221,
        "10368": 87,
        "10369": 142,
        "10370": 171,
        "10371": 94,
        "10372": 85,
        "10373": 197,
        "10374": 145,
        "10375": 132,
        "10376": 3,
        "10377": 135,
        "10378": 94,
        "10379": 40,
        "10380": 26,
        "10381": 51,
        "10382": 251,
        "10383": 215,
        "10384": 10,
        "10385": 167,
        "10386": 164,
        "10387": 235,
        "10388": 232,
        "10389": 247,
        "10390": 135,
        "10391": 95,
        "10392": 195,
        "10393": 177,
        "10394": 43,
        "10395": 182,
        "10396": 88,
        "10397": 34,
        "10398": 97,
        "10399": 225,
        "10400": 155,
        "10401": 222,
        "10402": 30,
        "10403": 96,
        "10404": 124,
        "10405": 156,
        "10406": 207,
        "10407": 207,
        "10408": 111,
        "10409": 90,
        "10410": 176,
        "10411": 112,
        "10412": 109,
        "10413": 106,
        "10414": 37,
        "10415": 236,
        "10416": 27,
        "10417": 244,
        "10418": 244,
        "10419": 29,
        "10420": 97,
        "10421": 214,
        "10422": 38,
        "10423": 173,
        "10424": 94,
        "10425": 24,
        "10426": 250,
        "10427": 119,
        "10428": 230,
        "10429": 95,
        "10430": 245,
        "10431": 1,
        "10432": 114,
        "10433": 81,
        "10434": 10,
        "10435": 30,
        "10436": 232,
        "10437": 204,
        "10438": 249,
        "10439": 208,
        "10440": 162,
        "10441": 172,
        "10442": 255,
        "10443": 49,
        "10444": 194,
        "10445": 70,
        "10446": 49,
        "10447": 237,
        "10448": 128,
        "10449": 173,
        "10450": 56,
        "10451": 64,
        "10452": 27,
        "10453": 61,
        "10454": 49,
        "10455": 75,
        "10456": 114,
        "10457": 131,
        "10458": 50,
        "10459": 227,
        "10460": 228,
        "10461": 193,
        "10462": 1,
        "10463": 177,
        "10464": 21,
        "10465": 220,
        "10466": 78,
        "10467": 48,
        "10468": 240,
        "10469": 127,
        "10470": 216,
        "10471": 18,
        "10472": 42,
        "10473": 250,
        "10474": 62,
        "10475": 129,
        "10476": 20,
        "10477": 123,
        "10478": 110,
        "10479": 44,
        "10480": 149,
        "10481": 136,
        "10482": 6,
        "10483": 93,
        "10484": 114,
        "10485": 167,
        "10486": 241,
        "10487": 85,
        "10488": 72,
        "10489": 141,
        "10490": 70,
        "10491": 42,
        "10492": 55,
        "10493": 135,
        "10494": 86,
        "10495": 218,
        "10496": 190,
        "10497": 235,
        "10498": 181,
        "10499": 90,
        "10500": 111,
        "10501": 61,
        "10502": 121,
        "10503": 232,
        "10504": 60,
        "10505": 192,
        "10506": 126,
        "10507": 153,
        "10508": 42,
        "10509": 207,
        "10510": 71,
        "10511": 239,
        "10512": 136,
        "10513": 91,
        "10514": 176,
        "10515": 104,
        "10516": 224,
        "10517": 182,
        "10518": 88,
        "10519": 62,
        "10520": 101,
        "10521": 152,
        "10522": 188,
        "10523": 162,
        "10524": 136,
        "10525": 187,
        "10526": 121,
        "10527": 248,
        "10528": 198,
        "10529": 80,
        "10530": 160,
        "10531": 86,
        "10532": 49,
        "10533": 14,
        "10534": 16,
        "10535": 238,
        "10536": 199,
        "10537": 148,
        "10538": 20,
        "10539": 237,
        "10540": 243,
        "10541": 86,
        "10542": 183,
        "10543": 82,
        "10544": 233,
        "10545": 21,
        "10546": 74,
        "10547": 41,
        "10548": 242,
        "10549": 49,
        "10550": 123,
        "10551": 128,
        "10552": 176,
        "10553": 238,
        "10554": 46,
        "10555": 109,
        "10556": 12,
        "10557": 255,
        "10558": 113,
        "10559": 41,
        "10560": 91,
        "10561": 3,
        "10562": 223,
        "10563": 68,
        "10564": 178,
        "10565": 201,
        "10566": 110,
        "10567": 124,
        "10568": 181,
        "10569": 157,
        "10570": 44,
        "10571": 196,
        "10572": 86,
        "10573": 100,
        "10574": 15,
        "10575": 136,
        "10576": 18,
        "10577": 225,
        "10578": 56,
        "10579": 38,
        "10580": 214,
        "10581": 215,
        "10582": 109,
        "10583": 173,
        "10584": 126,
        "10585": 33,
        "10586": 215,
        "10587": 19,
        "10588": 143,
        "10589": 94,
        "10590": 236,
        "10591": 165,
        "10592": 165,
        "10593": 49,
        "10594": 8,
        "10595": 97,
        "10596": 146,
        "10597": 56,
        "10598": 245,
        "10599": 233,
        "10600": 249,
        "10601": 18,
        "10602": 148,
        "10603": 8,
        "10604": 140,
        "10605": 59,
        "10606": 24,
        "10607": 241,
        "10608": 163,
        "10609": 179,
        "10610": 38,
        "10611": 131,
        "10612": 178,
        "10613": 115,
        "10614": 218,
        "10615": 114,
        "10616": 114,
        "10617": 235,
        "10618": 150,
        "10619": 87,
        "10620": 242,
        "10621": 197,
        "10622": 122,
        "10623": 118,
        "10624": 37,
        "10625": 126,
        "10626": 49,
        "10627": 149,
        "10628": 49,
        "10629": 54,
        "10630": 163,
        "10631": 86,
        "10632": 254,
        "10633": 157,
        "10634": 94,
        "10635": 80,
        "10636": 252,
        "10637": 213,
        "10638": 165,
        "10639": 131,
        "10640": 186,
        "10641": 43,
        "10642": 52,
        "10643": 189,
        "10644": 35,
        "10645": 205,
        "10646": 209,
        "10647": 216,
        "10648": 95,
        "10649": 36,
        "10650": 8,
        "10651": 125,
        "10652": 23,
        "10653": 1,
        "10654": 13,
        "10655": 130,
        "10656": 180,
        "10657": 56,
        "10658": 163,
        "10659": 50,
        "10660": 79,
        "10661": 187,
        "10662": 255,
        "10663": 149,
        "10664": 193,
        "10665": 46,
        "10666": 8,
        "10667": 155,
        "10668": 70,
        "10669": 128,
        "10670": 146,
        "10671": 227,
        "10672": 224,
        "10673": 72,
        "10674": 120,
        "10675": 126,
        "10676": 9,
        "10677": 84,
        "10678": 108,
        "10679": 172,
        "10680": 232,
        "10681": 31,
        "10682": 230,
        "10683": 137,
        "10684": 56,
        "10685": 14,
        "10686": 40,
        "10687": 42,
        "10688": 81,
        "10689": 205,
        "10690": 149,
        "10691": 83,
        "10692": 247,
        "10693": 145,
        "10694": 222,
        "10695": 9,
        "10696": 187,
        "10697": 39,
        "10698": 73,
        "10699": 105,
        "10700": 119,
        "10701": 5,
        "10702": 163,
        "10703": 134,
        "10704": 134,
        "10705": 6,
        "10706": 25,
        "10707": 144,
        "10708": 185,
        "10709": 153,
        "10710": 199,
        "10711": 51,
        "10712": 84,
        "10713": 240,
        "10714": 156,
        "10715": 12,
        "10716": 215,
        "10717": 224,
        "10718": 103,
        "10719": 199,
        "10720": 230,
        "10721": 213,
        "10722": 101,
        "10723": 199,
        "10724": 189,
        "10725": 69,
        "10726": 136,
        "10727": 213,
        "10728": 35,
        "10729": 213,
        "10730": 188,
        "10731": 7,
        "10732": 191,
        "10733": 161,
        "10734": 217,
        "10735": 228,
        "10736": 145,
        "10737": 52,
        "10738": 85,
        "10739": 157,
        "10740": 197,
        "10741": 49,
        "10742": 37,
        "10743": 70,
        "10744": 69,
        "10745": 24,
        "10746": 157,
        "10747": 103,
        "10748": 194,
        "10749": 232,
        "10750": 193,
        "10751": 227,
        "10752": 226,
        "10753": 126,
        "10754": 14,
        "10755": 102,
        "10756": 10,
        "10757": 117,
        "10758": 184,
        "10759": 33,
        "10760": 9,
        "10761": 172,
        "10762": 182,
        "10763": 48,
        "10764": 174,
        "10765": 96,
        "10766": 24,
        "10767": 177,
        "10768": 56,
        "10769": 55,
        "10770": 81,
        "10771": 22,
        "10772": 221,
        "10773": 12,
        "10774": 192,
        "10775": 165,
        "10776": 198,
        "10777": 65,
        "10778": 208,
        "10779": 96,
        "10780": 58,
        "10781": 136,
        "10782": 107,
        "10783": 47,
        "10784": 53,
        "10785": 38,
        "10786": 57,
        "10787": 32,
        "10788": 196,
        "10789": 176,
        "10790": 61,
        "10791": 150,
        "10792": 117,
        "10793": 22,
        "10794": 165,
        "10795": 147,
        "10796": 87,
        "10797": 47,
        "10798": 133,
        "10799": 134,
        "10800": 72,
        "10801": 91,
        "10802": 97,
        "10803": 2,
        "10804": 108,
        "10805": 17,
        "10806": 221,
        "10807": 187,
        "10808": 225,
        "10809": 204,
        "10810": 121,
        "10811": 143,
        "10812": 92,
        "10813": 72,
        "10814": 227,
        "10815": 196,
        "10816": 53,
        "10817": 197,
        "10818": 163,
        "10819": 161,
        "10820": 113,
        "10821": 170,
        "10822": 175,
        "10823": 9,
        "10824": 119,
        "10825": 185,
        "10826": 36,
        "10827": 217,
        "10828": 131,
        "10829": 115,
        "10830": 189,
        "10831": 100,
        "10832": 169,
        "10833": 43,
        "10834": 43,
        "10835": 172,
        "10836": 4,
        "10837": 68,
        "10838": 82,
        "10839": 65,
        "10840": 208,
        "10841": 203,
        "10842": 120,
        "10843": 57,
        "10844": 173,
        "10845": 24,
        "10846": 174,
        "10847": 116,
        "10848": 14,
        "10849": 214,
        "10850": 160,
        "10851": 213,
        "10852": 189,
        "10853": 104,
        "10854": 44,
        "10855": 248,
        "10856": 64,
        "10857": 222,
        "10858": 142,
        "10859": 242,
        "10860": 164,
        "10861": 247,
        "10862": 47,
        "10863": 120,
        "10864": 230,
        "10865": 214,
        "10866": 231,
        "10867": 205,
        "10868": 34,
        "10869": 230,
        "10870": 33,
        "10871": 107,
        "10872": 231,
        "10873": 233,
        "10874": 138,
        "10875": 184,
        "10876": 79,
        "10877": 50,
        "10878": 36,
        "10879": 75,
        "10880": 198,
        "10881": 168,
        "10882": 187,
        "10883": 150,
        "10884": 109,
        "10885": 54,
        "10886": 177,
        "10887": 188,
        "10888": 231,
        "10889": 73,
        "10890": 120,
        "10891": 36,
        "10892": 142,
        "10893": 49,
        "10894": 117,
        "10895": 149,
        "10896": 138,
        "10897": 42,
        "10898": 105,
        "10899": 87,
        "10900": 124,
        "10901": 142,
        "10902": 219,
        "10903": 93,
        "10904": 158,
        "10905": 75,
        "10906": 127,
        "10907": 249,
        "10908": 57,
        "10909": 98,
        "10910": 201,
        "10911": 16,
        "10912": 213,
        "10913": 61,
        "10914": 63,
        "10915": 60,
        "10916": 103,
        "10917": 158,
        "10918": 138,
        "10919": 147,
        "10920": 200,
        "10921": 37,
        "10922": 5,
        "10923": 95,
        "10924": 76,
        "10925": 23,
        "10926": 240,
        "10927": 233,
        "10928": 138,
        "10929": 128,
        "10930": 140,
        "10931": 77,
        "10932": 189,
        "10933": 102,
        "10934": 229,
        "10935": 7,
        "10936": 78,
        "10937": 87,
        "10938": 90,
        "10939": 85,
        "10940": 145,
        "10941": 166,
        "10942": 130,
        "10943": 229,
        "10944": 130,
        "10945": 252,
        "10946": 151,
        "10947": 59,
        "10948": 161,
        "10949": 159,
        "10950": 134,
        "10951": 151,
        "10952": 254,
        "10953": 36,
        "10954": 80,
        "10955": 234,
        "10956": 106,
        "10957": 81,
        "10958": 168,
        "10959": 252,
        "10960": 29,
        "10961": 78,
        "10962": 97,
        "10963": 200,
        "10964": 28,
        "10965": 235,
        "10966": 228,
        "10967": 60,
        "10968": 104,
        "10969": 171,
        "10970": 230,
        "10971": 218,
        "10972": 167,
        "10973": 161,
        "10974": 165,
        "10975": 115,
        "10976": 54,
        "10977": 76,
        "10978": 98,
        "10979": 153,
        "10980": 216,
        "10981": 4,
        "10982": 57,
        "10983": 8,
        "10984": 50,
        "10985": 158,
        "10986": 236,
        "10987": 86,
        "10988": 242,
        "10989": 32,
        "10990": 124,
        "10991": 246,
        "10992": 70,
        "10993": 9,
        "10994": 144,
        "10995": 0,
        "10996": 122,
        "10997": 59,
        "10998": 132,
        "10999": 255,
        "11000": 220,
        "11001": 110,
        "11002": 246,
        "11003": 255,
        "11004": 4,
        "11005": 152,
        "11006": 184,
        "11007": 63,
        "11008": 154,
        "11009": 227,
        "11010": 177,
        "11011": 251,
        "11012": 141,
        "11013": 80,
        "11014": 247,
        "11015": 97,
        "11016": 91,
        "11017": 52,
        "11018": 107,
        "11019": 82,
        "11020": 215,
        "11021": 106,
        "11022": 103,
        "11023": 151,
        "11024": 139,
        "11025": 161,
        "11026": 83,
        "11027": 81,
        "11028": 57,
        "11029": 45,
        "11030": 219,
        "11031": 215,
        "11032": 70,
        "11033": 20,
        "11034": 160,
        "11035": 249,
        "11036": 114,
        "11037": 183,
        "11038": 76,
        "11039": 11,
        "11040": 50,
        "11041": 130,
        "11042": 20,
        "11043": 128,
        "11044": 133,
        "11045": 149,
        "11046": 215,
        "11047": 95,
        "11048": 254,
        "11049": 237,
        "11050": 163,
        "11051": 20,
        "11052": 129,
        "11053": 172,
        "11054": 183,
        "11055": 252,
        "11056": 68,
        "11057": 161,
        "11058": 71,
        "11059": 202,
        "11060": 21,
        "11061": 89,
        "11062": 108,
        "11063": 92,
        "11064": 173,
        "11065": 51,
        "11066": 39,
        "11067": 255,
        "11068": 238,
        "11069": 79,
        "11070": 222,
        "11071": 116,
        "11072": 242,
        "11073": 196,
        "11074": 255,
        "11075": 249,
        "11076": 60,
        "11077": 226,
        "11078": 152,
        "11079": 246,
        "11080": 52,
        "11081": 169,
        "11082": 204,
        "11083": 232,
        "11084": 96,
        "11085": 82,
        "11086": 89,
        "11087": 157,
        "11088": 217,
        "11089": 115,
        "11090": 220,
        "11091": 172,
        "11092": 65,
        "11093": 118,
        "11094": 239,
        "11095": 53,
        "11096": 70,
        "11097": 89,
        "11098": 141,
        "11099": 156,
        "11100": 160,
        "11101": 244,
        "11102": 109,
        "11103": 135,
        "11104": 136,
        "11105": 89,
        "11106": 108,
        "11107": 206,
        "11108": 112,
        "11109": 107,
        "11110": 152,
        "11111": 219,
        "11112": 82,
        "11113": 154,
        "11114": 22,
        "11115": 60,
        "11116": 65,
        "11117": 135,
        "11118": 63,
        "11119": 57,
        "11120": 140,
        "11121": 188,
        "11122": 137,
        "11123": 46,
        "11124": 4,
        "11125": 148,
        "11126": 0,
        "11127": 160,
        "11128": 105,
        "11129": 198,
        "11130": 210,
        "11131": 31,
        "11132": 226,
        "11133": 214,
        "11134": 134,
        "11135": 217,
        "11136": 147,
        "11137": 33,
        "11138": 161,
        "11139": 81,
        "11140": 58,
        "11141": 128,
        "11142": 47,
        "11143": 168,
        "11144": 55,
        "11145": 163,
        "11146": 230,
        "11147": 43,
        "11148": 247,
        "11149": 34,
        "11150": 122,
        "11151": 121,
        "11152": 252,
        "11153": 15,
        "11154": 192,
        "11155": 227,
        "11156": 195,
        "11157": 132,
        "11158": 68,
        "11159": 58,
        "11160": 245,
        "11161": 118,
        "11162": 115,
        "11163": 251,
        "11164": 174,
        "11165": 110,
        "11166": 126,
        "11167": 69,
        "11168": 17,
        "11169": 91,
        "11170": 104,
        "11171": 14,
        "11172": 43,
        "11173": 91,
        "11174": 45,
        "11175": 150,
        "11176": 234,
        "11177": 137,
        "11178": 89,
        "11179": 235,
        "11180": 93,
        "11181": 129,
        "11182": 95,
        "11183": 233,
        "11184": 9,
        "11185": 64,
        "11186": 100,
        "11187": 100,
        "11188": 157,
        "11189": 34,
        "11190": 169,
        "11191": 126,
        "11192": 87,
        "11193": 109,
        "11194": 11,
        "11195": 183,
        "11196": 25,
        "11197": 44,
        "11198": 219,
        "11199": 239,
        "11200": 59,
        "11201": 119,
        "11202": 192,
        "11203": 192,
        "11204": 14,
        "11205": 124,
        "11206": 64,
        "11207": 52,
        "11208": 239,
        "11209": 17,
        "11210": 195,
        "11211": 85,
        "11212": 76,
        "11213": 191,
        "11214": 120,
        "11215": 116,
        "11216": 175,
        "11217": 255,
        "11218": 2,
        "11219": 197,
        "11220": 152,
        "11221": 62,
        "11222": 49,
        "11223": 255,
        "11224": 217,
        "11225": 37,
        "11226": 248,
        "11227": 112,
        "11228": 207,
        "11229": 143,
        "11230": 185,
        "11231": 168,
        "11232": 208,
        "11233": 147,
        "11234": 246,
        "11235": 22,
        "11236": 239,
        "11237": 51,
        "11238": 143,
        "11239": 189,
        "11240": 35,
        "11241": 123,
        "11242": 185,
        "11243": 193,
        "11244": 158,
        "11245": 38,
        "11246": 177,
        "11247": 26,
        "11248": 11,
        "11249": 181,
        "11250": 214,
        "11251": 178,
        "11252": 144,
        "11253": 139,
        "11254": 192,
        "11255": 76,
        "11256": 46,
        "11257": 127,
        "11258": 63,
        "11259": 98,
        "11260": 208,
        "11261": 110,
        "11262": 119,
        "11263": 149,
        "11264": 116,
        "11265": 97,
        "11266": 90,
        "11267": 135,
        "11268": 186,
        "11269": 43,
        "11270": 205,
        "11271": 87,
        "11272": 210,
        "11273": 137,
        "11274": 2,
        "11275": 73,
        "11276": 225,
        "11277": 24,
        "11278": 210,
        "11279": 144,
        "11280": 89,
        "11281": 218,
        "11282": 212,
        "11283": 132,
        "11284": 198,
        "11285": 68,
        "11286": 54,
        "11287": 70,
        "11288": 81,
        "11289": 156,
        "11290": 52,
        "11291": 226,
        "11292": 160,
        "11293": 25,
        "11294": 212,
        "11295": 175,
        "11296": 82,
        "11297": 56,
        "11298": 47,
        "11299": 22,
        "11300": 1,
        "11301": 128,
        "11302": 97,
        "11303": 3,
        "11304": 114,
        "11305": 85,
        "11306": 2,
        "11307": 196,
        "11308": 248,
        "11309": 56,
        "11310": 217,
        "11311": 180,
        "11312": 75,
        "11313": 235,
        "11314": 47,
        "11315": 13,
        "11316": 178,
        "11317": 50,
        "11318": 154,
        "11319": 28,
        "11320": 150,
        "11321": 93,
        "11322": 152,
        "11323": 208,
        "11324": 252,
        "11325": 72,
        "11326": 115,
        "11327": 154,
        "11328": 215,
        "11329": 25,
        "11330": 119,
        "11331": 215,
        "11332": 180,
        "11333": 212,
        "11334": 27,
        "11335": 35,
        "11336": 10,
        "11337": 157,
        "11338": 152,
        "11339": 226,
        "11340": 134,
        "11341": 100,
        "11342": 62,
        "11343": 150,
        "11344": 111,
        "11345": 185,
        "11346": 118,
        "11347": 172,
        "11348": 249,
        "11349": 144,
        "11350": 117,
        "11351": 15,
        "11352": 75,
        "11353": 220,
        "11354": 53,
        "11355": 182,
        "11356": 103,
        "11357": 53,
        "11358": 98,
        "11359": 90,
        "11360": 159,
        "11361": 202,
        "11362": 170,
        "11363": 148,
        "11364": 69,
        "11365": 66,
        "11366": 190,
        "11367": 209,
        "11368": 201,
        "11369": 116,
        "11370": 213,
        "11371": 11,
        "11372": 198,
        "11373": 106,
        "11374": 59,
        "11375": 186,
        "11376": 24,
        "11377": 113,
        "11378": 227,
        "11379": 154,
        "11380": 24,
        "11381": 115,
        "11382": 57,
        "11383": 196,
        "11384": 23,
        "11385": 163,
        "11386": 35,
        "11387": 105,
        "11388": 119,
        "11389": 54,
        "11390": 209,
        "11391": 246,
        "11392": 77,
        "11393": 188,
        "11394": 51,
        "11395": 226,
        "11396": 184,
        "11397": 64,
        "11398": 90,
        "11399": 186,
        "11400": 121,
        "11401": 215,
        "11402": 12,
        "11403": 125,
        "11404": 0,
        "11405": 147,
        "11406": 192,
        "11407": 108,
        "11408": 133,
        "11409": 4,
        "11410": 208,
        "11411": 21,
        "11412": 46,
        "11413": 63,
        "11414": 49,
        "11415": 192,
        "11416": 196,
        "11417": 88,
        "11418": 24,
        "11419": 108,
        "11420": 168,
        "11421": 21,
        "11422": 245,
        "11423": 50,
        "11424": 90,
        "11425": 62,
        "11426": 120,
        "11427": 236,
        "11428": 130,
        "11429": 233,
        "11430": 52,
        "11431": 14,
        "11432": 45,
        "11433": 105,
        "11434": 193,
        "11435": 163,
        "11436": 247,
        "11437": 139,
        "11438": 83,
        "11439": 1,
        "11440": 45,
        "11441": 50,
        "11442": 46,
        "11443": 35,
        "11444": 181,
        "11445": 114,
        "11446": 42,
        "11447": 48,
        "11448": 147,
        "11449": 116,
        "11450": 226,
        "11451": 202,
        "11452": 137,
        "11453": 73,
        "11454": 24,
        "11455": 251,
        "11456": 191,
        "11457": 201,
        "11458": 39,
        "11459": 190,
        "11460": 9,
        "11461": 161,
        "11462": 84,
        "11463": 25,
        "11464": 67,
        "11465": 204,
        "11466": 8,
        "11467": 55,
        "11468": 104,
        "11469": 206,
        "11470": 213,
        "11471": 183,
        "11472": 121,
        "11473": 52,
        "11474": 154,
        "11475": 143,
        "11476": 200,
        "11477": 72,
        "11478": 20,
        "11479": 146,
        "11480": 210,
        "11481": 227,
        "11482": 178,
        "11483": 211,
        "11484": 88,
        "11485": 149,
        "11486": 88,
        "11487": 92,
        "11488": 191,
        "11489": 4,
        "11490": 62,
        "11491": 246,
        "11492": 79,
        "11493": 207,
        "11494": 122,
        "11495": 254,
        "11496": 180,
        "11497": 248,
        "11498": 49,
        "11499": 101,
        "11500": 10,
        "11501": 173,
        "11502": 212,
        "11503": 255,
        "11504": 136,
        "11505": 97,
        "11506": 85,
        "11507": 189,
        "11508": 143,
        "11509": 224,
        "11510": 67,
        "11511": 2,
        "11512": 72,
        "11513": 205,
        "11514": 222,
        "11515": 120,
        "11516": 44,
        "11517": 71,
        "11518": 4,
        "11519": 127,
        "11520": 40,
        "11521": 80,
        "11522": 194,
        "11523": 176,
        "11524": 243,
        "11525": 125,
        "11526": 252,
        "11527": 218,
        "11528": 73,
        "11529": 124,
        "11530": 66,
        "11531": 155,
        "11532": 206,
        "11533": 13,
        "11534": 179,
        "11535": 83,
        "11536": 59,
        "11537": 124,
        "11538": 42,
        "11539": 74,
        "11540": 56,
        "11541": 26,
        "11542": 144,
        "11543": 132,
        "11544": 2,
        "11545": 160,
        "11546": 85,
        "11547": 63,
        "11548": 4,
        "11549": 252,
        "11550": 229,
        "11551": 229,
        "11552": 221,
        "11553": 182,
        "11554": 202,
        "11555": 132,
        "11556": 242,
        "11557": 162,
        "11558": 93,
        "11559": 104,
        "11560": 61,
        "11561": 139,
        "11562": 63,
        "11563": 250,
        "11564": 144,
        "11565": 49,
        "11566": 196,
        "11567": 137,
        "11568": 210,
        "11569": 79,
        "11570": 254,
        "11571": 119,
        "11572": 46,
        "11573": 90,
        "11574": 88,
        "11575": 3,
        "11576": 182,
        "11577": 51,
        "11578": 173,
        "11579": 57,
        "11580": 11,
        "11581": 163,
        "11582": 181,
        "11583": 91,
        "11584": 40,
        "11585": 173,
        "11586": 33,
        "11587": 143,
        "11588": 109,
        "11589": 171,
        "11590": 107,
        "11591": 123,
        "11592": 125,
        "11593": 90,
        "11594": 153,
        "11595": 89,
        "11596": 213,
        "11597": 180,
        "11598": 31,
        "11599": 65,
        "11600": 140,
        "11601": 32,
        "11602": 127,
        "11603": 97,
        "11604": 67,
        "11605": 100,
        "11606": 72,
        "11607": 139,
        "11608": 251,
        "11609": 47,
        "11610": 124,
        "11611": 45,
        "11612": 249,
        "11613": 3,
        "11614": 254,
        "11615": 9,
        "11616": 236,
        "11617": 225,
        "11618": 158,
        "11619": 234,
        "11620": 63,
        "11621": 38,
        "11622": 245,
        "11623": 96,
        "11624": 146,
        "11625": 50,
        "11626": 72,
        "11627": 217,
        "11628": 27,
        "11629": 230,
        "11630": 100,
        "11631": 23,
        "11632": 192,
        "11633": 248,
        "11634": 201,
        "11635": 146,
        "11636": 11,
        "11637": 118,
        "11638": 80,
        "11639": 247,
        "11640": 10,
        "11641": 153,
        "11642": 171,
        "11643": 185,
        "11644": 221,
        "11645": 127,
        "11646": 2,
        "11647": 227,
        "11648": 143,
        "11649": 182,
        "11650": 40,
        "11651": 211,
        "11652": 59,
        "11653": 137,
        "11654": 228,
        "11655": 254,
        "11656": 19,
        "11657": 161,
        "11658": 49,
        "11659": 219,
        "11660": 32,
        "11661": 164,
        "11662": 147,
        "11663": 153,
        "11664": 23,
        "11665": 226,
        "11666": 49,
        "11667": 107,
        "11668": 181,
        "11669": 116,
        "11670": 183,
        "11671": 35,
        "11672": 143,
        "11673": 254,
        "11674": 162,
        "11675": 81,
        "11676": 244,
        "11677": 197,
        "11678": 17,
        "11679": 107,
        "11680": 158,
        "11681": 89,
        "11682": 195,
        "11683": 237,
        "11684": 227,
        "11685": 18,
        "11686": 13,
        "11687": 66,
        "11688": 131,
        "11689": 192,
        "11690": 47,
        "11691": 113,
        "11692": 254,
        "11693": 210,
        "11694": 183,
        "11695": 255,
        "11696": 24,
        "11697": 208,
        "11698": 98,
        "11699": 9,
        "11700": 148,
        "11701": 153,
        "11702": 34,
        "11703": 249,
        "11704": 51,
        "11705": 63,
        "11706": 243,
        "11707": 244,
        "11708": 119,
        "11709": 124,
        "11710": 159,
        "11711": 141,
        "11712": 134,
        "11713": 8,
        "11714": 130,
        "11715": 144,
        "11716": 50,
        "11717": 33,
        "11718": 223,
        "11719": 123,
        "11720": 170,
        "11721": 60,
        "11722": 5,
        "11723": 101,
        "11724": 184,
        "11725": 188,
        "11726": 68,
        "11727": 61,
        "11728": 87,
        "11729": 202,
        "11730": 224,
        "11731": 175,
        "11732": 102,
        "11733": 205,
        "11734": 182,
        "11735": 26,
        "11736": 34,
        "11737": 0,
        "11738": 168,
        "11739": 155,
        "11740": 254,
        "11741": 148,
        "11742": 137,
        "11743": 85,
        "11744": 243,
        "11745": 38,
        "11746": 37,
        "11747": 186,
        "11748": 224,
        "11749": 38,
        "11750": 60,
        "11751": 159,
        "11752": 116,
        "11753": 241,
        "11754": 64,
        "11755": 101,
        "11756": 174,
        "11757": 95,
        "11758": 89,
        "11759": 119,
        "11760": 169,
        "11761": 183,
        "11762": 121,
        "11763": 1,
        "11764": 90,
        "11765": 99,
        "11766": 242,
        "11767": 44,
        "11768": 129,
        "11769": 53,
        "11770": 145,
        "11771": 203,
        "11772": 210,
        "11773": 144,
        "11774": 196,
        "11775": 112,
        "11776": 154,
        "11777": 74,
        "11778": 27,
        "11779": 150,
        "11780": 126,
        "11781": 246,
        "11782": 160,
        "11783": 196,
        "11784": 99,
        "11785": 236,
        "11786": 172,
        "11787": 159,
        "11788": 20,
        "11789": 164,
        "11790": 194,
        "11791": 174,
        "11792": 157,
        "11793": 82,
        "11794": 45,
        "11795": 235,
        "11796": 83,
        "11797": 83,
        "11798": 247,
        "11799": 9,
        "11800": 79,
        "11801": 196,
        "11802": 136,
        "11803": 1,
        "11804": 243,
        "11805": 75,
        "11806": 100,
        "11807": 235,
        "11808": 65,
        "11809": 142,
        "11810": 183,
        "11811": 82,
        "11812": 132,
        "11813": 149,
        "11814": 14,
        "11815": 188,
        "11816": 77,
        "11817": 236,
        "11818": 80,
        "11819": 158,
        "11820": 194,
        "11821": 225,
        "11822": 124,
        "11823": 235,
        "11824": 40,
        "11825": 132,
        "11826": 174,
        "11827": 135,
        "11828": 109,
        "11829": 255,
        "11830": 76,
        "11831": 200,
        "11832": 6,
        "11833": 199,
        "11834": 167,
        "11835": 158,
        "11836": 6,
        "11837": 233,
        "11838": 251,
        "11839": 3,
        "11840": 36,
        "11841": 249,
        "11842": 32,
        "11843": 7,
        "11844": 5,
        "11845": 19,
        "11846": 77,
        "11847": 86,
        "11848": 133,
        "11849": 12,
        "11850": 245,
        "11851": 28,
        "11852": 41,
        "11853": 203,
        "11854": 177,
        "11855": 8,
        "11856": 214,
        "11857": 15,
        "11858": 199,
        "11859": 20,
        "11860": 179,
        "11861": 253,
        "11862": 216,
        "11863": 163,
        "11864": 77,
        "11865": 189,
        "11866": 112,
        "11867": 9,
        "11868": 88,
        "11869": 76,
        "11870": 124,
        "11871": 95,
        "11872": 201,
        "11873": 236,
        "11874": 203,
        "11875": 4,
        "11876": 101,
        "11877": 113,
        "11878": 241,
        "11879": 33,
        "11880": 205,
        "11881": 161,
        "11882": 7,
        "11883": 135,
        "11884": 49,
        "11885": 168,
        "11886": 36,
        "11887": 180,
        "11888": 73,
        "11889": 172,
        "11890": 61,
        "11891": 218,
        "11892": 120,
        "11893": 105,
        "11894": 81,
        "11895": 251,
        "11896": 180,
        "11897": 244,
        "11898": 186,
        "11899": 14,
        "11900": 252,
        "11901": 218,
        "11902": 67,
        "11903": 189,
        "11904": 161,
        "11905": 9,
        "11906": 223,
        "11907": 76,
        "11908": 126,
        "11909": 144,
        "11910": 24,
        "11911": 91,
        "11912": 242,
        "11913": 179,
        "11914": 48,
        "11915": 89,
        "11916": 128,
        "11917": 254,
        "11918": 63,
        "11919": 219,
        "11920": 166,
        "11921": 123,
        "11922": 87,
        "11923": 147,
        "11924": 128,
        "11925": 239,
        "11926": 241,
        "11927": 184,
        "11928": 135,
        "11929": 62,
        "11930": 163,
        "11931": 43,
        "11932": 75,
        "11933": 129,
        "11934": 60,
        "11935": 134,
        "11936": 65,
        "11937": 211,
        "11938": 103,
        "11939": 31,
        "11940": 212,
        "11941": 0,
        "11942": 179,
        "11943": 243,
        "11944": 10,
        "11945": 146,
        "11946": 160,
        "11947": 183,
        "11948": 135,
        "11949": 21,
        "11950": 4,
        "11951": 36,
        "11952": 73,
        "11953": 122,
        "11954": 224,
        "11955": 33,
        "11956": 79,
        "11957": 221,
        "11958": 83,
        "11959": 244,
        "11960": 46,
        "11961": 162,
        "11962": 28,
        "11963": 255,
        "11964": 185,
        "11965": 149,
        "11966": 101,
        "11967": 59,
        "11968": 244,
        "11969": 168,
        "11970": 232,
        "11971": 218,
        "11972": 4,
        "11973": 117,
        "11974": 206,
        "11975": 199,
        "11976": 17,
        "11977": 189,
        "11978": 216,
        "11979": 102,
        "11980": 220,
        "11981": 104,
        "11982": 23,
        "11983": 29,
        "11984": 74,
        "11985": 190,
        "11986": 7,
        "11987": 160,
        "11988": 236,
        "11989": 115,
        "11990": 243,
        "11991": 220,
        "11992": 147,
        "11993": 151,
        "11994": 120,
        "11995": 220,
        "11996": 125,
        "11997": 121,
        "11998": 143,
        "11999": 227,
        "12000": 232,
        "12001": 58,
        "12002": 241,
        "12003": 100,
        "12004": 137,
        "12005": 61,
        "12006": 94,
        "12007": 112,
        "12008": 117,
        "12009": 242,
        "12010": 98,
        "12011": 41,
        "12012": 204,
        "12013": 150,
        "12014": 52,
        "12015": 39,
        "12016": 144,
        "12017": 243,
        "12018": 79,
        "12019": 212,
        "12020": 141,
        "12021": 200,
        "12022": 37,
        "12023": 25,
        "12024": 96,
        "12025": 252,
        "12026": 62,
        "12027": 142,
        "12028": 167,
        "12029": 248,
        "12030": 49,
        "12031": 84,
        "12032": 115,
        "12033": 172,
        "12034": 75,
        "12035": 118,
        "12036": 227,
        "12037": 102,
        "12038": 194,
        "12039": 116,
        "12040": 186,
        "12041": 174,
        "12042": 92,
        "12043": 118,
        "12044": 152,
        "12045": 155,
        "12046": 210,
        "12047": 209,
        "12048": 132,
        "12049": 253,
        "12050": 183,
        "12051": 123,
        "12052": 177,
        "12053": 73,
        "12054": 150,
        "12055": 23,
        "12056": 26,
        "12057": 92,
        "12058": 142,
        "12059": 202,
        "12060": 115,
        "12061": 158,
        "12062": 237,
        "12063": 204,
        "12064": 240,
        "12065": 121,
        "12066": 200,
        "12067": 202,
        "12068": 204,
        "12069": 127,
        "12070": 144,
        "12071": 26,
        "12072": 144,
        "12073": 75,
        "12074": 122,
        "12075": 122,
        "12076": 188,
        "12077": 112,
        "12078": 198,
        "12079": 164,
        "12080": 25,
        "12081": 34,
        "12082": 106,
        "12083": 83,
        "12084": 5,
        "12085": 7,
        "12086": 137,
        "12087": 206,
        "12088": 237,
        "12089": 127,
        "12090": 47,
        "12091": 246,
        "12092": 48,
        "12093": 126,
        "12094": 176,
        "12095": 207,
        "12096": 204,
        "12097": 38,
        "12098": 110,
        "12099": 206,
        "12100": 62,
        "12101": 104,
        "12102": 205,
        "12103": 31,
        "12104": 236,
        "12105": 123,
        "12106": 207,
        "12107": 244,
        "12108": 127,
        "12109": 88,
        "12110": 83,
        "12111": 58,
        "12112": 35,
        "12113": 242,
        "12114": 138,
        "12115": 88,
        "12116": 255,
        "12117": 74,
        "12118": 135,
        "12119": 120,
        "12120": 223,
        "12121": 26,
        "12122": 138,
        "12123": 141,
        "12124": 71,
        "12125": 19,
        "12126": 12,
        "12127": 232,
        "12128": 216,
        "12129": 159,
        "12130": 104,
        "12131": 191,
        "12132": 162,
        "12133": 247,
        "12134": 143,
        "12135": 147,
        "12136": 37,
        "12137": 135,
        "12138": 158,
        "12139": 74,
        "12140": 199,
        "12141": 151,
        "12142": 127,
        "12143": 243,
        "12144": 24,
        "12145": 195,
        "12146": 141,
        "12147": 77,
        "12148": 152,
        "12149": 229,
        "12150": 154,
        "12151": 67,
        "12152": 112,
        "12153": 172,
        "12154": 17,
        "12155": 198,
        "12156": 58,
        "12157": 88,
        "12158": 177,
        "12159": 94,
        "12160": 243,
        "12161": 0,
        "12162": 13,
        "12163": 174,
        "12164": 70,
        "12165": 33,
        "12166": 33,
        "12167": 124,
        "12168": 92,
        "12169": 144,
        "12170": 156,
        "12171": 8,
        "12172": 98,
        "12173": 160,
        "12174": 225,
        "12175": 72,
        "12176": 107,
        "12177": 115,
        "12178": 11,
        "12179": 131,
        "12180": 179,
        "12181": 137,
        "12182": 221,
        "12183": 13,
        "12184": 192,
        "12185": 179,
        "12186": 152,
        "12187": 129,
        "12188": 180,
        "12189": 225,
        "12190": 90,
        "12191": 160,
        "12192": 104,
        "12193": 178,
        "12194": 40,
        "12195": 155,
        "12196": 200,
        "12197": 220,
        "12198": 17,
        "12199": 26,
        "12200": 51,
        "12201": 87,
        "12202": 70,
        "12203": 4,
        "12204": 15,
        "12205": 100,
        "12206": 163,
        "12207": 210,
        "12208": 226,
        "12209": 1,
        "12210": 95,
        "12211": 154,
        "12212": 157,
        "12213": 57,
        "12214": 255,
        "12215": 158,
        "12216": 122,
        "12217": 23,
        "12218": 154,
        "12219": 29,
        "12220": 39,
        "12221": 32,
        "12222": 71,
        "12223": 159,
        "12224": 31,
        "12225": 221,
        "12226": 175,
        "12227": 53,
        "12228": 165,
        "12229": 153,
        "12230": 255,
        "12231": 53,
        "12232": 26,
        "12233": 65,
        "12234": 222,
        "12235": 247,
        "12236": 231,
        "12237": 134,
        "12238": 223,
        "12239": 138,
        "12240": 20,
        "12241": 132,
        "12242": 140,
        "12243": 2,
        "12244": 16,
        "12245": 131,
        "12246": 59,
        "12247": 201,
        "12248": 129,
        "12249": 28,
        "12250": 127,
        "12251": 195,
        "12252": 37,
        "12253": 72,
        "12254": 104,
        "12255": 174,
        "12256": 237,
        "12257": 71,
        "12258": 29,
        "12259": 225,
        "12260": 32,
        "12261": 95,
        "12262": 181,
        "12263": 121,
        "12264": 12,
        "12265": 26,
        "12266": 185,
        "12267": 203,
        "12268": 41,
        "12269": 92,
        "12270": 113,
        "12271": 208,
        "12272": 47,
        "12273": 71,
        "12274": 87,
        "12275": 21,
        "12276": 255,
        "12277": 243,
        "12278": 9,
        "12279": 119,
        "12280": 153,
        "12281": 235,
        "12282": 11,
        "12283": 254,
        "12284": 42,
        "12285": 114,
        "12286": 67,
        "12287": 194,
        "12288": 202,
        "12289": 161,
        "12290": 37,
        "12291": 58,
        "12292": 71,
        "12293": 176,
        "12294": 47,
        "12295": 53,
        "12296": 241,
        "12297": 54,
        "12298": 122,
        "12299": 64,
        "12300": 212,
        "12301": 207,
        "12302": 248,
        "12303": 80,
        "12304": 205,
        "12305": 172,
        "12306": 66,
        "12307": 255,
        "12308": 217,
        "12309": 65,
        "12310": 227,
        "12311": 62,
        "12312": 91,
        "12313": 16,
        "12314": 150,
        "12315": 130,
        "12316": 177,
        "12317": 119,
        "12318": 116,
        "12319": 218,
        "12320": 248,
        "12321": 159,
        "12322": 98,
        "12323": 186,
        "12324": 76,
        "12325": 26,
        "12326": 232,
        "12327": 227,
        "12328": 93,
        "12329": 28,
        "12330": 221,
        "12331": 224,
        "12332": 83,
        "12333": 109,
        "12334": 155,
        "12335": 230,
        "12336": 164,
        "12337": 122,
        "12338": 252,
        "12339": 18,
        "12340": 85,
        "12341": 2,
        "12342": 85,
        "12343": 253,
        "12344": 56,
        "12345": 141,
        "12346": 0,
        "12347": 11,
        "12348": 56,
        "12349": 162,
        "12350": 71,
        "12351": 205,
        "12352": 16,
        "12353": 235,
        "12354": 148,
        "12355": 55,
        "12356": 153,
        "12357": 174,
        "12358": 186,
        "12359": 74,
        "12360": 183,
        "12361": 212,
        "12362": 173,
        "12363": 89,
        "12364": 23,
        "12365": 226,
        "12366": 35,
        "12367": 17,
        "12368": 188,
        "12369": 79,
        "12370": 0,
        "12371": 136,
        "12372": 206,
        "12373": 35,
        "12374": 233,
        "12375": 117,
        "12376": 95,
        "12377": 57,
        "12378": 205,
        "12379": 14,
        "12380": 46,
        "12381": 60,
        "12382": 156,
        "12383": 31,
        "12384": 202,
        "12385": 174,
        "12386": 119,
        "12387": 165,
        "12388": 83,
        "12389": 240,
        "12390": 37,
        "12391": 128,
        "12392": 249,
        "12393": 171,
        "12394": 199,
        "12395": 112,
        "12396": 65,
        "12397": 78,
        "12398": 149,
        "12399": 6,
        "12400": 190,
        "12401": 87,
        "12402": 224,
        "12403": 157,
        "12404": 60,
        "12405": 35,
        "12406": 200,
        "12407": 183,
        "12408": 217,
        "12409": 74,
        "12410": 14,
        "12411": 161,
        "12412": 253,
        "12413": 124,
        "12414": 145,
        "12415": 253,
        "12416": 24,
        "12417": 252,
        "12418": 84,
        "12419": 245,
        "12420": 116,
        "12421": 102,
        "12422": 50,
        "12423": 252,
        "12424": 19,
        "12425": 110,
        "12426": 144,
        "12427": 64,
        "12428": 111,
        "12429": 173,
        "12430": 30,
        "12431": 5,
        "12432": 55,
        "12433": 112,
        "12434": 212,
        "12435": 156,
        "12436": 121,
        "12437": 177,
        "12438": 180,
        "12439": 114,
        "12440": 114,
        "12441": 163,
        "12442": 183,
        "12443": 62,
        "12444": 185,
        "12445": 168,
        "12446": 144,
        "12447": 5,
        "12448": 234,
        "12449": 161,
        "12450": 87,
        "12451": 243,
        "12452": 189,
        "12453": 244,
        "12454": 200,
        "12455": 143,
        "12456": 136,
        "12457": 142,
        "12458": 236,
        "12459": 252,
        "12460": 238,
        "12461": 106,
        "12462": 3,
        "12463": 74,
        "12464": 209,
        "12465": 61,
        "12466": 168,
        "12467": 59,
        "12468": 20,
        "12469": 98,
        "12470": 176,
        "12471": 40,
        "12472": 54,
        "12473": 248,
        "12474": 236,
        "12475": 76,
        "12476": 151,
        "12477": 211,
        "12478": 161,
        "12479": 176,
        "12480": 234,
        "12481": 42,
        "12482": 77,
        "12483": 95,
        "12484": 135,
        "12485": 102,
        "12486": 174,
        "12487": 113,
        "12488": 188,
        "12489": 185,
        "12490": 89,
        "12491": 23,
        "12492": 93,
        "12493": 251,
        "12494": 129,
        "12495": 36,
        "12496": 141,
        "12497": 19,
        "12498": 77,
        "12499": 133,
        "12500": 113,
        "12501": 174,
        "12502": 105,
        "12503": 250,
        "12504": 81,
        "12505": 133,
        "12506": 52,
        "12507": 213,
        "12508": 6,
        "12509": 39,
        "12510": 132,
        "12511": 75,
        "12512": 206,
        "12513": 167,
        "12514": 108,
        "12515": 129,
        "12516": 215,
        "12517": 214,
        "12518": 243,
        "12519": 197,
        "12520": 122,
        "12521": 33,
        "12522": 54,
        "12523": 241,
        "12524": 69,
        "12525": 39,
        "12526": 88,
        "12527": 90,
        "12528": 229,
        "12529": 171,
        "12530": 137,
        "12531": 183,
        "12532": 31,
        "12533": 84,
        "12534": 215,
        "12535": 47,
        "12536": 4,
        "12537": 43,
        "12538": 253,
        "12539": 216,
        "12540": 155,
        "12541": 155,
        "12542": 92,
        "12543": 229,
        "12544": 148,
        "12545": 125,
        "12546": 200,
        "12547": 50,
        "12548": 129,
        "12549": 125,
        "12550": 184,
        "12551": 204,
        "12552": 153,
        "12553": 3,
        "12554": 144,
        "12555": 151,
        "12556": 203,
        "12557": 27,
        "12558": 80,
        "12559": 192,
        "12560": 42,
        "12561": 82,
        "12562": 107,
        "12563": 58,
        "12564": 78,
        "12565": 116,
        "12566": 162,
        "12567": 15,
        "12568": 153,
        "12569": 117,
        "12570": 122,
        "12571": 109,
        "12572": 75,
        "12573": 88,
        "12574": 7,
        "12575": 102,
        "12576": 217,
        "12577": 168,
        "12578": 207,
        "12579": 203,
        "12580": 138,
        "12581": 131,
        "12582": 217,
        "12583": 229,
        "12584": 185,
        "12585": 61,
        "12586": 112,
        "12587": 230,
        "12588": 209,
        "12589": 86,
        "12590": 169,
        "12591": 173,
        "12592": 29,
        "12593": 244,
        "12594": 67,
        "12595": 196,
        "12596": 58,
        "12597": 38,
        "12598": 81,
        "12599": 122,
        "12600": 141,
        "12601": 83,
        "12602": 83,
        "12603": 30,
        "12604": 192,
        "12605": 126,
        "12606": 99,
        "12607": 110,
        "12608": 179,
        "12609": 124,
        "12610": 135,
        "12611": 99,
        "12612": 110,
        "12613": 160,
        "12614": 111,
        "12615": 235,
        "12616": 216,
        "12617": 85,
        "12618": 220,
        "12619": 113,
        "12620": 189,
        "12621": 215,
        "12622": 79,
        "12623": 91,
        "12624": 88,
        "12625": 92,
        "12626": 159,
        "12627": 49,
        "12628": 139,
        "12629": 215,
        "12630": 33,
        "12631": 109,
        "12632": 246,
        "12633": 54,
        "12634": 2,
        "12635": 250,
        "12636": 220,
        "12637": 190,
        "12638": 223,
        "12639": 217,
        "12640": 208,
        "12641": 192,
        "12642": 202,
        "12643": 83,
        "12644": 6,
        "12645": 92,
        "12646": 1,
        "12647": 133,
        "12648": 193,
        "12649": 157,
        "12650": 65,
        "12651": 129,
        "12652": 99,
        "12653": 35,
        "12654": 204,
        "12655": 247,
        "12656": 188,
        "12657": 153,
        "12658": 94,
        "12659": 37,
        "12660": 120,
        "12661": 212,
        "12662": 226,
        "12663": 67,
        "12664": 5,
        "12665": 135,
        "12666": 255,
        "12667": 67,
        "12668": 176,
        "12669": 93,
        "12670": 195,
        "12671": 59,
        "12672": 69,
        "12673": 207,
        "12674": 67,
        "12675": 147,
        "12676": 201,
        "12677": 67,
        "12678": 131,
        "12679": 19,
        "12680": 153,
        "12681": 83,
        "12682": 84,
        "12683": 183,
        "12684": 218,
        "12685": 181,
        "12686": 84,
        "12687": 76,
        "12688": 87,
        "12689": 143,
        "12690": 226,
        "12691": 23,
        "12692": 197,
        "12693": 120,
        "12694": 121,
        "12695": 66,
        "12696": 50,
        "12697": 13,
        "12698": 222,
        "12699": 120,
        "12700": 75,
        "12701": 194,
        "12702": 67,
        "12703": 84,
        "12704": 238,
        "12705": 247,
        "12706": 228,
        "12707": 122,
        "12708": 241,
        "12709": 172,
        "12710": 252,
        "12711": 90,
        "12712": 164,
        "12713": 251,
        "12714": 203,
        "12715": 27,
        "12716": 72,
        "12717": 36,
        "12718": 111,
        "12719": 198,
        "12720": 98,
        "12721": 4,
        "12722": 236,
        "12723": 226,
        "12724": 246,
        "12725": 18,
        "12726": 88,
        "12727": 250,
        "12728": 202,
        "12729": 160,
        "12730": 189,
        "12731": 45,
        "12732": 9,
        "12733": 105,
        "12734": 148,
        "12735": 16,
        "12736": 43,
        "12737": 122,
        "12738": 4,
        "12739": 24,
        "12740": 83,
        "12741": 99,
        "12742": 80,
        "12743": 206,
        "12744": 73,
        "12745": 3,
        "12746": 97,
        "12747": 152,
        "12748": 186,
        "12749": 11,
        "12750": 30,
        "12751": 22,
        "12752": 66,
        "12753": 48,
        "12754": 255,
        "12755": 229,
        "12756": 253,
        "12757": 170,
        "12758": 174,
        "12759": 56,
        "12760": 191,
        "12761": 117,
        "12762": 106,
        "12763": 143,
        "12764": 139,
        "12765": 63,
        "12766": 56,
        "12767": 128,
        "12768": 6,
        "12769": 26,
        "12770": 246,
        "12771": 62,
        "12772": 1,
        "12773": 132,
        "12774": 129,
        "12775": 162,
        "12776": 16,
        "12777": 153,
        "12778": 254,
        "12779": 249,
        "12780": 132,
        "12781": 77,
        "12782": 96,
        "12783": 208,
        "12784": 211,
        "12785": 200,
        "12786": 37,
        "12787": 218,
        "12788": 136,
        "12789": 212,
        "12790": 195,
        "12791": 140,
        "12792": 178,
        "12793": 244,
        "12794": 17,
        "12795": 250,
        "12796": 16,
        "12797": 234,
        "12798": 137,
        "12799": 13,
        "12800": 34,
        "12801": 80,
        "12802": 29,
        "12803": 43,
        "12804": 50,
        "12805": 170,
        "12806": 8,
        "12807": 10,
        "12808": 197,
        "12809": 18,
        "12810": 59,
        "12811": 200,
        "12812": 186,
        "12813": 2,
        "12814": 104,
        "12815": 10,
        "12816": 3,
        "12817": 123,
        "12818": 102,
        "12819": 148,
        "12820": 80,
        "12821": 135,
        "12822": 254,
        "12823": 157,
        "12824": 99,
        "12825": 79,
        "12826": 128,
        "12827": 94,
        "12828": 56,
        "12829": 82,
        "12830": 236,
        "12831": 67,
        "12832": 117,
        "12833": 48,
        "12834": 159,
        "12835": 80,
        "12836": 84,
        "12837": 45,
        "12838": 59,
        "12839": 46,
        "12840": 231,
        "12841": 0,
        "12842": 220,
        "12843": 35,
        "12844": 98,
        "12845": 118,
        "12846": 199,
        "12847": 14,
        "12848": 248,
        "12849": 40,
        "12850": 189,
        "12851": 156,
        "12852": 253,
        "12853": 11,
        "12854": 194,
        "12855": 195,
        "12856": 22,
        "12857": 17,
        "12858": 152,
        "12859": 138,
        "12860": 107,
        "12861": 249,
        "12862": 240,
        "12863": 155,
        "12864": 170,
        "12865": 91,
        "12866": 150,
        "12867": 63,
        "12868": 52,
        "12869": 250,
        "12870": 187,
        "12871": 67,
        "12872": 131,
        "12873": 80,
        "12874": 108,
        "12875": 99,
        "12876": 241,
        "12877": 38,
        "12878": 127,
        "12879": 96,
        "12880": 168,
        "12881": 1,
        "12882": 240,
        "12883": 222,
        "12884": 50,
        "12885": 158,
        "12886": 187,
        "12887": 10,
        "12888": 230,
        "12889": 207,
        "12890": 56,
        "12891": 237,
        "12892": 232,
        "12893": 153,
        "12894": 52,
        "12895": 181,
        "12896": 85,
        "12897": 231,
        "12898": 248,
        "12899": 37,
        "12900": 149,
        "12901": 138,
        "12902": 239,
        "12903": 27,
        "12904": 135,
        "12905": 60,
        "12906": 22,
        "12907": 141,
        "12908": 219,
        "12909": 38,
        "12910": 152,
        "12911": 96,
        "12912": 45,
        "12913": 135,
        "12914": 47,
        "12915": 26,
        "12916": 79,
        "12917": 124,
        "12918": 199,
        "12919": 16,
        "12920": 134,
        "12921": 52,
        "12922": 6,
        "12923": 236,
        "12924": 124,
        "12925": 19,
        "12926": 68,
        "12927": 38,
        "12928": 58,
        "12929": 202,
        "12930": 77,
        "12931": 10,
        "12932": 139,
        "12933": 224,
        "12934": 75,
        "12935": 184,
        "12936": 52,
        "12937": 225,
        "12938": 214,
        "12939": 138,
        "12940": 83,
        "12941": 162,
        "12942": 245,
        "12943": 79,
        "12944": 246,
        "12945": 185,
        "12946": 255,
        "12947": 222,
        "12948": 179,
        "12949": 132,
        "12950": 68,
        "12951": 12,
        "12952": 15,
        "12953": 212,
        "12954": 225,
        "12955": 1,
        "12956": 3,
        "12957": 217,
        "12958": 98,
        "12959": 123,
        "12960": 144,
        "12961": 194,
        "12962": 192,
        "12963": 18,
        "12964": 247,
        "12965": 4,
        "12966": 75,
        "12967": 116,
        "12968": 212,
        "12969": 120,
        "12970": 206,
        "12971": 39,
        "12972": 233,
        "12973": 193,
        "12974": 251,
        "12975": 104,
        "12976": 169,
        "12977": 250,
        "12978": 81,
        "12979": 219,
        "12980": 41,
        "12981": 11,
        "12982": 124,
        "12983": 149,
        "12984": 90,
        "12985": 122,
        "12986": 247,
        "12987": 212,
        "12988": 10,
        "12989": 162,
        "12990": 24,
        "12991": 186,
        "12992": 119,
        "12993": 212,
        "12994": 245,
        "12995": 45,
        "12996": 126,
        "12997": 28,
        "12998": 87,
        "12999": 214,
        "13000": 60,
        "13001": 61,
        "13002": 248,
        "13003": 29,
        "13004": 197,
        "13005": 35,
        "13006": 110,
        "13007": 240,
        "13008": 138,
        "13009": 133,
        "13010": 79,
        "13011": 64,
        "13012": 41,
        "13013": 1,
        "13014": 164,
        "13015": 176,
        "13016": 114,
        "13017": 136,
        "13018": 7,
        "13019": 110,
        "13020": 198,
        "13021": 56,
        "13022": 244,
        "13023": 199,
        "13024": 80,
        "13025": 238,
        "13026": 8,
        "13027": 53,
        "13028": 51,
        "13029": 157,
        "13030": 126,
        "13031": 125,
        "13032": 94,
        "13033": 194,
        "13034": 195,
        "13035": 140,
        "13036": 23,
        "13037": 167,
        "13038": 44,
        "13039": 239,
        "13040": 253,
        "13041": 231,
        "13042": 218,
        "13043": 170,
        "13044": 113,
        "13045": 234,
        "13046": 65,
        "13047": 183,
        "13048": 203,
        "13049": 172,
        "13050": 211,
        "13051": 159,
        "13052": 182,
        "13053": 8,
        "13054": 157,
        "13055": 200,
        "13056": 211,
        "13057": 129,
        "13058": 132,
        "13059": 110,
        "13060": 249,
        "13061": 213,
        "13062": 202,
        "13063": 25,
        "13064": 75,
        "13065": 251,
        "13066": 245,
        "13067": 213,
        "13068": 165,
        "13069": 83,
        "13070": 218,
        "13071": 121,
        "13072": 126,
        "13073": 204,
        "13074": 217,
        "13075": 52,
        "13076": 191,
        "13077": 165,
        "13078": 107,
        "13079": 237,
        "13080": 44,
        "13081": 152,
        "13082": 112,
        "13083": 62,
        "13084": 112,
        "13085": 98,
        "13086": 121,
        "13087": 208,
        "13088": 205,
        "13089": 155,
        "13090": 86,
        "13091": 217,
        "13092": 194,
        "13093": 50,
        "13094": 24,
        "13095": 9,
        "13096": 216,
        "13097": 150,
        "13098": 210,
        "13099": 195,
        "13100": 48,
        "13101": 125,
        "13102": 129,
        "13103": 68,
        "13104": 194,
        "13105": 207,
        "13106": 119,
        "13107": 103,
        "13108": 121,
        "13109": 37,
        "13110": 220,
        "13111": 146,
        "13112": 12,
        "13113": 215,
        "13114": 11,
        "13115": 52,
        "13116": 45,
        "13117": 247,
        "13118": 0,
        "13119": 150,
        "13120": 66,
        "13121": 95,
        "13122": 180,
        "13123": 133,
        "13124": 121,
        "13125": 175,
        "13126": 230,
        "13127": 153,
        "13128": 47,
        "13129": 244,
        "13130": 165,
        "13131": 102,
        "13132": 7,
        "13133": 59,
        "13134": 55,
        "13135": 115,
        "13136": 57,
        "13137": 89,
        "13138": 157,
        "13139": 93,
        "13140": 88,
        "13141": 159,
        "13142": 242,
        "13143": 157,
        "13144": 142,
        "13145": 54,
        "13146": 83,
        "13147": 190,
        "13148": 144,
        "13149": 66,
        "13150": 33,
        "13151": 243,
        "13152": 66,
        "13153": 45,
        "13154": 119,
        "13155": 70,
        "13156": 232,
        "13157": 8,
        "13158": 222,
        "13159": 100,
        "13160": 42,
        "13161": 44,
        "13162": 219,
        "13163": 46,
        "13164": 84,
        "13165": 166,
        "13166": 178,
        "13167": 126,
        "13168": 161,
        "13169": 249,
        "13170": 111,
        "13171": 123,
        "13172": 43,
        "13173": 49,
        "13174": 215,
        "13175": 197,
        "13176": 106,
        "13177": 118,
        "13178": 253,
        "13179": 22,
        "13180": 180,
        "13181": 211,
        "13182": 199,
        "13183": 248,
        "13184": 84,
        "13185": 184,
        "13186": 220,
        "13187": 101,
        "13188": 176,
        "13189": 217,
        "13190": 220,
        "13191": 218,
        "13192": 107,
        "13193": 193,
        "13194": 151,
        "13195": 61,
        "13196": 110,
        "13197": 248,
        "13198": 241,
        "13199": 166,
        "13200": 104,
        "13201": 195,
        "13202": 126,
        "13203": 145,
        "13204": 104,
        "13205": 82,
        "13206": 226,
        "13207": 142,
        "13208": 98,
        "13209": 70,
        "13210": 63,
        "13211": 235,
        "13212": 242,
        "13213": 30,
        "13214": 123,
        "13215": 44,
        "13216": 108,
        "13217": 186,
        "13218": 147,
        "13219": 6,
        "13220": 77,
        "13221": 167,
        "13222": 117,
        "13223": 221,
        "13224": 119,
        "13225": 72,
        "13226": 237,
        "13227": 34,
        "13228": 193,
        "13229": 56,
        "13230": 236,
        "13231": 35,
        "13232": 113,
        "13233": 122,
        "13234": 14,
        "13235": 141,
        "13236": 184,
        "13237": 103,
        "13238": 197,
        "13239": 170,
        "13240": 34,
        "13241": 156,
        "13242": 222,
        "13243": 246,
        "13244": 27,
        "13245": 188,
        "13246": 120,
        "13247": 177,
        "13248": 227,
        "13249": 25,
        "13250": 200,
        "13251": 243,
        "13252": 86,
        "13253": 21,
        "13254": 106,
        "13255": 37,
        "13256": 211,
        "13257": 213,
        "13258": 114,
        "13259": 147,
        "13260": 83,
        "13261": 180,
        "13262": 128,
        "13263": 130,
        "13264": 241,
        "13265": 21,
        "13266": 79,
        "13267": 195,
        "13268": 113,
        "13269": 49,
        "13270": 28,
        "13271": 77,
        "13272": 92,
        "13273": 252,
        "13274": 209,
        "13275": 64,
        "13276": 131,
        "13277": 62,
        "13278": 133,
        "13279": 225,
        "13280": 221,
        "13281": 94,
        "13282": 68,
        "13283": 227,
        "13284": 206,
        "13285": 190,
        "13286": 17,
        "13287": 177,
        "13288": 108,
        "13289": 160,
        "13290": 248,
        "13291": 96,
        "13292": 28,
        "13293": 110,
        "13294": 68,
        "13295": 52,
        "13296": 156,
        "13297": 73,
        "13298": 2,
        "13299": 18,
        "13300": 119,
        "13301": 214,
        "13302": 54,
        "13303": 107,
        "13304": 56,
        "13305": 114,
        "13306": 124,
        "13307": 106,
        "13308": 95,
        "13309": 59,
        "13310": 95,
        "13311": 8,
        "13312": 18,
        "13313": 109,
        "13314": 128,
        "13315": 209,
        "13316": 233,
        "13317": 81,
        "13318": 159,
        "13319": 152,
        "13320": 45,
        "13321": 209,
        "13322": 32,
        "13323": 146,
        "13324": 220,
        "13325": 153,
        "13326": 87,
        "13327": 106,
        "13328": 195,
        "13329": 253,
        "13330": 216,
        "13331": 20,
        "13332": 207,
        "13333": 114,
        "13334": 220,
        "13335": 92,
        "13336": 96,
        "13337": 104,
        "13338": 141,
        "13339": 168,
        "13340": 221,
        "13341": 46,
        "13342": 131,
        "13343": 231,
        "13344": 70,
        "13345": 199,
        "13346": 139,
        "13347": 143,
        "13348": 68,
        "13349": 18,
        "13350": 55,
        "13351": 71,
        "13352": 89,
        "13353": 97,
        "13354": 221,
        "13355": 206,
        "13356": 237,
        "13357": 237,
        "13358": 13,
        "13359": 221,
        "13360": 114,
        "13361": 68,
        "13362": 36,
        "13363": 154,
        "13364": 245,
        "13365": 104,
        "13366": 38,
        "13367": 125,
        "13368": 71,
        "13369": 74,
        "13370": 87,
        "13371": 98,
        "13372": 230,
        "13373": 142,
        "13374": 232,
        "13375": 80,
        "13376": 215,
        "13377": 15,
        "13378": 114,
        "13379": 189,
        "13380": 40,
        "13381": 136,
        "13382": 170,
        "13383": 126,
        "13384": 6,
        "13385": 12,
        "13386": 174,
        "13387": 202,
        "13388": 96,
        "13389": 230,
        "13390": 151,
        "13391": 132,
        "13392": 255,
        "13393": 6,
        "13394": 227,
        "13395": 193,
        "13396": 210,
        "13397": 141,
        "13398": 199,
        "13399": 88,
        "13400": 102,
        "13401": 124,
        "13402": 45,
        "13403": 90,
        "13404": 146,
        "13405": 192,
        "13406": 117,
        "13407": 228,
        "13408": 198,
        "13409": 50,
        "13410": 20,
        "13411": 190,
        "13412": 123,
        "13413": 36,
        "13414": 204,
        "13415": 242,
        "13416": 128,
        "13417": 225,
        "13418": 95,
        "13419": 34,
        "13420": 155,
        "13421": 151,
        "13422": 16,
        "13423": 116,
        "13424": 142,
        "13425": 13,
        "13426": 60,
        "13427": 131,
        "13428": 240,
        "13429": 73,
        "13430": 86,
        "13431": 126,
        "13432": 109,
        "13433": 170,
        "13434": 216,
        "13435": 185,
        "13436": 124,
        "13437": 117,
        "13438": 161,
        "13439": 28,
        "13440": 96,
        "13441": 18,
        "13442": 244,
        "13443": 163,
        "13444": 115,
        "13445": 187,
        "13446": 206,
        "13447": 175,
        "13448": 64,
        "13449": 223,
        "13450": 117,
        "13451": 212,
        "13452": 98,
        "13453": 65,
        "13454": 210,
        "13455": 197,
        "13456": 91,
        "13457": 62,
        "13458": 182,
        "13459": 130,
        "13460": 150,
        "13461": 8,
        "13462": 152,
        "13463": 76,
        "13464": 46,
        "13465": 63,
        "13466": 160,
        "13467": 228,
        "13468": 85,
        "13469": 171,
        "13470": 203,
        "13471": 83,
        "13472": 25,
        "13473": 213,
        "13474": 177,
        "13475": 242,
        "13476": 112,
        "13477": 136,
        "13478": 76,
        "13479": 78,
        "13480": 153,
        "13481": 1,
        "13482": 89,
        "13483": 119,
        "13484": 189,
        "13485": 203,
        "13486": 36,
        "13487": 25,
        "13488": 15,
        "13489": 133,
        "13490": 217,
        "13491": 150,
        "13492": 197,
        "13493": 144,
        "13494": 138,
        "13495": 54,
        "13496": 191,
        "13497": 161,
        "13498": 38,
        "13499": 179,
        "13500": 203,
        "13501": 130,
        "13502": 131,
        "13503": 51,
        "13504": 160,
        "13505": 90,
        "13506": 157,
        "13507": 17,
        "13508": 214,
        "13509": 233,
        "13510": 30,
        "13511": 160,
        "13512": 14,
        "13513": 238,
        "13514": 227,
        "13515": 152,
        "13516": 244,
        "13517": 150,
        "13518": 46,
        "13519": 63,
        "13520": 142,
        "13521": 227,
        "13522": 177,
        "13523": 174,
        "13524": 17,
        "13525": 62,
        "13526": 142,
        "13527": 48,
        "13528": 27,
        "13529": 147,
        "13530": 40,
        "13531": 118,
        "13532": 135,
        "13533": 24,
        "13534": 240,
        "13535": 126,
        "13536": 187,
        "13537": 122,
        "13538": 158,
        "13539": 172,
        "13540": 226,
        "13541": 233,
        "13542": 81,
        "13543": 133,
        "13544": 1,
        "13545": 248,
        "13546": 72,
        "13547": 142,
        "13548": 194,
        "13549": 128,
        "13550": 243,
        "13551": 212,
        "13552": 30,
        "13553": 80,
        "13554": 133,
        "13555": 151,
        "13556": 228,
        "13557": 27,
        "13558": 59,
        "13559": 210,
        "13560": 3,
        "13561": 22,
        "13562": 21,
        "13563": 161,
        "13564": 170,
        "13565": 80,
        "13566": 88,
        "13567": 26,
        "13568": 243,
        "13569": 197,
        "13570": 180,
        "13571": 56,
        "13572": 139,
        "13573": 98,
        "13574": 192,
        "13575": 252,
        "13576": 246,
        "13577": 21,
        "13578": 21,
        "13579": 205,
        "13580": 59,
        "13581": 232,
        "13582": 100,
        "13583": 227,
        "13584": 200,
        "13585": 82,
        "13586": 6,
        "13587": 120,
        "13588": 192,
        "13589": 28,
        "13590": 39,
        "13591": 139,
        "13592": 35,
        "13593": 76,
        "13594": 25,
        "13595": 190,
        "13596": 155,
        "13597": 75,
        "13598": 145,
        "13599": 114,
        "13600": 36,
        "13601": 10,
        "13602": 207,
        "13603": 13,
        "13604": 56,
        "13605": 191,
        "13606": 136,
        "13607": 244,
        "13608": 63,
        "13609": 48,
        "13610": 145,
        "13611": 36,
        "13612": 238,
        "13613": 196,
        "13614": 254,
        "13615": 16,
        "13616": 205,
        "13617": 237,
        "13618": 198,
        "13619": 194,
        "13620": 108,
        "13621": 208,
        "13622": 185,
        "13623": 202,
        "13624": 231,
        "13625": 76,
        "13626": 51,
        "13627": 1,
        "13628": 255,
        "13629": 236,
        "13630": 30,
        "13631": 56,
        "13632": 148,
        "13633": 11,
        "13634": 14,
        "13635": 188,
        "13636": 14,
        "13637": 185,
        "13638": 50,
        "13639": 164,
        "13640": 209,
        "13641": 170,
        "13642": 200,
        "13643": 223,
        "13644": 136,
        "13645": 224,
        "13646": 213,
        "13647": 55,
        "13648": 142,
        "13649": 255,
        "13650": 196,
        "13651": 253,
        "13652": 113,
        "13653": 202,
        "13654": 216,
        "13655": 29,
        "13656": 77,
        "13657": 133,
        "13658": 37,
        "13659": 142,
        "13660": 140,
        "13661": 161,
        "13662": 102,
        "13663": 242,
        "13664": 187,
        "13665": 81,
        "13666": 55,
        "13667": 176,
        "13668": 246,
        "13669": 168,
        "13670": 194,
        "13671": 35,
        "13672": 105,
        "13673": 71,
        "13674": 102,
        "13675": 15,
        "13676": 89,
        "13677": 1,
        "13678": 149,
        "13679": 108,
        "13680": 63,
        "13681": 216,
        "13682": 94,
        "13683": 228,
        "13684": 39,
        "13685": 185,
        "13686": 38,
        "13687": 132,
        "13688": 164,
        "13689": 150,
        "13690": 40,
        "13691": 8,
        "13692": 101,
        "13693": 132,
        "13694": 79,
        "13695": 158,
        "13696": 222,
        "13697": 130,
        "13698": 208,
        "13699": 179,
        "13700": 129,
        "13701": 29,
        "13702": 88,
        "13703": 207,
        "13704": 37,
        "13705": 190,
        "13706": 29,
        "13707": 27,
        "13708": 146,
        "13709": 10,
        "13710": 255,
        "13711": 114,
        "13712": 214,
        "13713": 20,
        "13714": 198,
        "13715": 83,
        "13716": 123,
        "13717": 243,
        "13718": 17,
        "13719": 149,
        "13720": 49,
        "13721": 79,
        "13722": 91,
        "13723": 146,
        "13724": 15,
        "13725": 184,
        "13726": 142,
        "13727": 47,
        "13728": 110,
        "13729": 146,
        "13730": 196,
        "13731": 113,
        "13732": 101,
        "13733": 90,
        "13734": 138,
        "13735": 87,
        "13736": 38,
        "13737": 129,
        "13738": 82,
        "13739": 170,
        "13740": 63,
        "13741": 103,
        "13742": 164,
        "13743": 178,
        "13744": 193,
        "13745": 190,
        "13746": 15,
        "13747": 246,
        "13748": 35,
        "13749": 44,
        "13750": 0,
        "13751": 181,
        "13752": 165,
        "13753": 207,
        "13754": 124,
        "13755": 175,
        "13756": 59,
        "13757": 44,
        "13758": 17,
        "13759": 208,
        "13760": 41,
        "13761": 17,
        "13762": 182,
        "13763": 59,
        "13764": 119,
        "13765": 16,
        "13766": 145,
        "13767": 186,
        "13768": 74,
        "13769": 193,
        "13770": 130,
        "13771": 3,
        "13772": 215,
        "13773": 165,
        "13774": 69,
        "13775": 91,
        "13776": 77,
        "13777": 139,
        "13778": 199,
        "13779": 93,
        "13780": 163,
        "13781": 125,
        "13782": 46,
        "13783": 127,
        "13784": 53,
        "13785": 212,
        "13786": 94,
        "13787": 145,
        "13788": 68,
        "13789": 207,
        "13790": 163,
        "13791": 255,
        "13792": 60,
        "13793": 110,
        "13794": 149,
        "13795": 182,
        "13796": 231,
        "13797": 247,
        "13798": 4,
        "13799": 137,
        "13800": 239,
        "13801": 134,
        "13802": 57,
        "13803": 136,
        "13804": 42,
        "13805": 93,
        "13806": 202,
        "13807": 191,
        "13808": 89,
        "13809": 60,
        "13810": 98,
        "13811": 111,
        "13812": 153,
        "13813": 193,
        "13814": 137,
        "13815": 67,
        "13816": 90,
        "13817": 145,
        "13818": 20,
        "13819": 16,
        "13820": 212,
        "13821": 16,
        "13822": 99,
        "13823": 59,
        "13824": 155,
        "13825": 131,
        "13826": 219,
        "13827": 178,
        "13828": 58,
        "13829": 105,
        "13830": 78,
        "13831": 176,
        "13832": 177,
        "13833": 162,
        "13834": 38,
        "13835": 39,
        "13836": 176,
        "13837": 156,
        "13838": 13,
        "13839": 30,
        "13840": 130,
        "13841": 161,
        "13842": 36,
        "13843": 126,
        "13844": 155,
        "13845": 140,
        "13846": 161,
        "13847": 9,
        "13848": 104,
        "13849": 173,
        "13850": 198,
        "13851": 176,
        "13852": 167,
        "13853": 187,
        "13854": 246,
        "13855": 66,
        "13856": 9,
        "13857": 195,
        "13858": 138,
        "13859": 234,
        "13860": 158,
        "13861": 133,
        "13862": 35,
        "13863": 250,
        "13864": 119,
        "13865": 31,
        "13866": 174,
        "13867": 49,
        "13868": 82,
        "13869": 161,
        "13870": 105,
        "13871": 141,
        "13872": 38,
        "13873": 203,
        "13874": 13,
        "13875": 34,
        "13876": 120,
        "13877": 246,
        "13878": 92,
        "13879": 37,
        "13880": 14,
        "13881": 74,
        "13882": 239,
        "13883": 40,
        "13884": 6,
        "13885": 9,
        "13886": 155,
        "13887": 50,
        "13888": 26,
        "13889": 3,
        "13890": 180,
        "13891": 70,
        "13892": 73,
        "13893": 225,
        "13894": 213,
        "13895": 58,
        "13896": 227,
        "13897": 229,
        "13898": 29,
        "13899": 110,
        "13900": 145,
        "13901": 1,
        "13902": 216,
        "13903": 57,
        "13904": 57,
        "13905": 162,
        "13906": 174,
        "13907": 238,
        "13908": 88,
        "13909": 119,
        "13910": 220,
        "13911": 69,
        "13912": 135,
        "13913": 34,
        "13914": 171,
        "13915": 135,
        "13916": 5,
        "13917": 60,
        "13918": 236,
        "13919": 123,
        "13920": 167,
        "13921": 203,
        "13922": 96,
        "13923": 99,
        "13924": 77,
        "13925": 137,
        "13926": 213,
        "13927": 86,
        "13928": 245,
        "13929": 42,
        "13930": 95,
        "13931": 26,
        "13932": 209,
        "13933": 119,
        "13934": 82,
        "13935": 99,
        "13936": 255,
        "13937": 157,
        "13938": 133,
        "13939": 23,
        "13940": 153,
        "13941": 27,
        "13942": 201,
        "13943": 88,
        "13944": 123,
        "13945": 151,
        "13946": 153,
        "13947": 95,
        "13948": 170,
        "13949": 225,
        "13950": 136,
        "13951": 154,
        "13952": 98,
        "13953": 173,
        "13954": 25,
        "13955": 77,
        "13956": 108,
        "13957": 207,
        "13958": 221,
        "13959": 53,
        "13960": 44,
        "13961": 215,
        "13962": 144,
        "13963": 112,
        "13964": 177,
        "13965": 210,
        "13966": 105,
        "13967": 166,
        "13968": 129,
        "13969": 136,
        "13970": 203,
        "13971": 28,
        "13972": 59,
        "13973": 6,
        "13974": 49,
        "13975": 61,
        "13976": 251,
        "13977": 39,
        "13978": 147,
        "13979": 72,
        "13980": 118,
        "13981": 179,
        "13982": 24,
        "13983": 130,
        "13984": 191,
        "13985": 96,
        "13986": 128,
        "13987": 235,
        "13988": 7,
        "13989": 44,
        "13990": 186,
        "13991": 209,
        "13992": 75,
        "13993": 72,
        "13994": 38,
        "13995": 69,
        "13996": 62,
        "13997": 115,
        "13998": 64,
        "13999": 86,
        "14000": 58,
        "14001": 14,
        "14002": 65,
        "14003": 232,
        "14004": 177,
        "14005": 196,
        "14006": 161,
        "14007": 220,
        "14008": 2,
        "14009": 166,
        "14010": 66,
        "14011": 248,
        "14012": 52,
        "14013": 75,
        "14014": 186,
        "14015": 212,
        "14016": 67,
        "14017": 1,
        "14018": 115,
        "14019": 243,
        "14020": 14,
        "14021": 72,
        "14022": 247,
        "14023": 157,
        "14024": 106,
        "14025": 120,
        "14026": 183,
        "14027": 91,
        "14028": 214,
        "14029": 169,
        "14030": 67,
        "14031": 216,
        "14032": 138,
        "14033": 22,
        "14034": 126,
        "14035": 74,
        "14036": 231,
        "14037": 184,
        "14038": 136,
        "14039": 28,
        "14040": 140,
        "14041": 154,
        "14042": 137,
        "14043": 6,
        "14044": 146,
        "14045": 39,
        "14046": 160,
        "14047": 1,
        "14048": 191,
        "14049": 174,
        "14050": 132,
        "14051": 92,
        "14052": 93,
        "14053": 148,
        "14054": 130,
        "14055": 19,
        "14056": 13,
        "14057": 42,
        "14058": 63,
        "14059": 118,
        "14060": 136,
        "14061": 138,
        "14062": 63,
        "14063": 9,
        "14064": 80,
        "14065": 127,
        "14066": 164,
        "14067": 150,
        "14068": 134,
        "14069": 79,
        "14070": 62,
        "14071": 175,
        "14072": 201,
        "14073": 145,
        "14074": 19,
        "14075": 166,
        "14076": 223,
        "14077": 191,
        "14078": 78,
        "14079": 84,
        "14080": 197,
        "14081": 208,
        "14082": 191,
        "14083": 224,
        "14084": 30,
        "14085": 246,
        "14086": 73,
        "14087": 60,
        "14088": 8,
        "14089": 147,
        "14090": 6,
        "14091": 195,
        "14092": 228,
        "14093": 186,
        "14094": 206,
        "14095": 174,
        "14096": 145,
        "14097": 221,
        "14098": 219,
        "14099": 118,
        "14100": 9,
        "14101": 233,
        "14102": 148,
        "14103": 14,
        "14104": 66,
        "14105": 84,
        "14106": 152,
        "14107": 135,
        "14108": 156,
        "14109": 171,
        "14110": 135,
        "14111": 21,
        "14112": 211,
        "14113": 212,
        "14114": 128,
        "14115": 23,
        "14116": 224,
        "14117": 232,
        "14118": 93,
        "14119": 238,
        "14120": 210,
        "14121": 90,
        "14122": 192,
        "14123": 75,
        "14124": 203,
        "14125": 104,
        "14126": 185,
        "14127": 194,
        "14128": 42,
        "14129": 13,
        "14130": 254,
        "14131": 118,
        "14132": 138,
        "14133": 190,
        "14134": 46,
        "14135": 196,
        "14136": 134,
        "14137": 155,
        "14138": 116,
        "14139": 224,
        "14140": 2,
        "14141": 82,
        "14142": 113,
        "14143": 54,
        "14144": 156,
        "14145": 74,
        "14146": 17,
        "14147": 168,
        "14148": 133,
        "14149": 221,
        "14150": 105,
        "14151": 158,
        "14152": 6,
        "14153": 140,
        "14154": 195,
        "14155": 229,
        "14156": 162,
        "14157": 145,
        "14158": 210,
        "14159": 98,
        "14160": 169,
        "14161": 232,
        "14162": 9,
        "14163": 174,
        "14164": 3,
        "14165": 182,
        "14166": 173,
        "14167": 46,
        "14168": 100,
        "14169": 122,
        "14170": 130,
        "14171": 125,
        "14172": 253,
        "14173": 56,
        "14174": 54,
        "14175": 186,
        "14176": 77,
        "14177": 249,
        "14178": 98,
        "14179": 89,
        "14180": 77,
        "14181": 29,
        "14182": 153,
        "14183": 205,
        "14184": 230,
        "14185": 171,
        "14186": 147,
        "14187": 209,
        "14188": 13,
        "14189": 204,
        "14190": 250,
        "14191": 5,
        "14192": 69,
        "14193": 82,
        "14194": 102,
        "14195": 143,
        "14196": 161,
        "14197": 195,
        "14198": 11,
        "14199": 220,
        "14200": 180,
        "14201": 197,
        "14202": 14,
        "14203": 51,
        "14204": 15,
        "14205": 166,
        "14206": 159,
        "14207": 109,
        "14208": 224,
        "14209": 237,
        "14210": 165,
        "14211": 7,
        "14212": 130,
        "14213": 67,
        "14214": 188,
        "14215": 165,
        "14216": 255,
        "14217": 223,
        "14218": 250,
        "14219": 62,
        "14220": 15,
        "14221": 61,
        "14222": 10,
        "14223": 73,
        "14224": 240,
        "14225": 54,
        "14226": 87,
        "14227": 90,
        "14228": 220,
        "14229": 99,
        "14230": 248,
        "14231": 143,
        "14232": 150,
        "14233": 181,
        "14234": 157,
        "14235": 34,
        "14236": 79,
        "14237": 18,
        "14238": 137,
        "14239": 20,
        "14240": 218,
        "14241": 221,
        "14242": 37,
        "14243": 170,
        "14244": 44,
        "14245": 251,
        "14246": 37,
        "14247": 48,
        "14248": 216,
        "14249": 18,
        "14250": 21,
        "14251": 152,
        "14252": 200,
        "14253": 251,
        "14254": 221,
        "14255": 129,
        "14256": 92,
        "14257": 72,
        "14258": 244,
        "14259": 58,
        "14260": 217,
        "14261": 152,
        "14262": 92,
        "14263": 186,
        "14264": 243,
        "14265": 25,
        "14266": 87,
        "14267": 207,
        "14268": 138,
        "14269": 187,
        "14270": 55,
        "14271": 187,
        "14272": 104,
        "14273": 169,
        "14274": 65,
        "14275": 95,
        "14276": 193,
        "14277": 14,
        "14278": 53,
        "14279": 167,
        "14280": 176,
        "14281": 64,
        "14282": 188,
        "14283": 125,
        "14284": 16,
        "14285": 150,
        "14286": 18,
        "14287": 132,
        "14288": 207,
        "14289": 137,
        "14290": 156,
        "14291": 28,
        "14292": 74,
        "14293": 176,
        "14294": 156,
        "14295": 51,
        "14296": 177,
        "14297": 77,
        "14298": 134,
        "14299": 101,
        "14300": 136,
        "14301": 134,
        "14302": 176,
        "14303": 87,
        "14304": 14,
        "14305": 85,
        "14306": 63,
        "14307": 121,
        "14308": 42,
        "14309": 171,
        "14310": 127,
        "14311": 169,
        "14312": 185,
        "14313": 171,
        "14314": 240,
        "14315": 136,
        "14316": 172,
        "14317": 238,
        "14318": 222,
        "14319": 84,
        "14320": 138,
        "14321": 176,
        "14322": 22,
        "14323": 161,
        "14324": 184,
        "14325": 153,
        "14326": 217,
        "14327": 138,
        "14328": 197,
        "14329": 231,
        "14330": 185,
        "14331": 188,
        "14332": 115,
        "14333": 233,
        "14334": 199,
        "14335": 125,
        "14336": 3,
        "14337": 233,
        "14338": 49,
        "14339": 85,
        "14340": 233,
        "14341": 30,
        "14342": 22,
        "14343": 69,
        "14344": 238,
        "14345": 254,
        "14346": 15,
        "14347": 201,
        "14348": 233,
        "14349": 21,
        "14350": 239,
        "14351": 218,
        "14352": 218,
        "14353": 222,
        "14354": 24,
        "14355": 2,
        "14356": 183,
        "14357": 227,
        "14358": 247,
        "14359": 45,
        "14360": 141,
        "14361": 125,
        "14362": 196,
        "14363": 248,
        "14364": 130,
        "14365": 15,
        "14366": 51,
        "14367": 203,
        "14368": 95,
        "14369": 63,
        "14370": 152,
        "14371": 58,
        "14372": 218,
        "14373": 41,
        "14374": 174,
        "14375": 20,
        "14376": 70,
        "14377": 175,
        "14378": 147,
        "14379": 39,
        "14380": 200,
        "14381": 95,
        "14382": 171,
        "14383": 97,
        "14384": 68,
        "14385": 107,
        "14386": 204,
        "14387": 73,
        "14388": 230,
        "14389": 164,
        "14390": 219,
        "14391": 206,
        "14392": 108,
        "14393": 5,
        "14394": 113,
        "14395": 36,
        "14396": 133,
        "14397": 189,
        "14398": 168,
        "14399": 99,
        "14400": 136,
        "14401": 38,
        "14402": 151,
        "14403": 33,
        "14404": 200,
        "14405": 66,
        "14406": 212,
        "14407": 33,
        "14408": 134,
        "14409": 146,
        "14410": 62,
        "14411": 140,
        "14412": 96,
        "14413": 81,
        "14414": 66,
        "14415": 229,
        "14416": 22,
        "14417": 119,
        "14418": 69,
        "14419": 30,
        "14420": 165,
        "14421": 54,
        "14422": 69,
        "14423": 247,
        "14424": 127,
        "14425": 175,
        "14426": 28,
        "14427": 26,
        "14428": 227,
        "14429": 219,
        "14430": 136,
        "14431": 226,
        "14432": 244,
        "14433": 164,
        "14434": 228,
        "14435": 59,
        "14436": 1,
        "14437": 208,
        "14438": 15,
        "14439": 99,
        "14440": 98,
        "14441": 52,
        "14442": 222,
        "14443": 209,
        "14444": 14,
        "14445": 186,
        "14446": 11,
        "14447": 8,
        "14448": 118,
        "14449": 116,
        "14450": 255,
        "14451": 126,
        "14452": 119,
        "14453": 233,
        "14454": 178,
        "14455": 101,
        "14456": 196,
        "14457": 140,
        "14458": 124,
        "14459": 182,
        "14460": 247,
        "14461": 166,
        "14462": 11,
        "14463": 185,
        "14464": 120,
        "14465": 99,
        "14466": 53,
        "14467": 235,
        "14468": 128,
        "14469": 226,
        "14470": 86,
        "14471": 211,
        "14472": 97,
        "14473": 111,
        "14474": 66,
        "14475": 61,
        "14476": 11,
        "14477": 52,
        "14478": 74,
        "14479": 68,
        "14480": 48,
        "14481": 149,
        "14482": 199,
        "14483": 182,
        "14484": 160,
        "14485": 5,
        "14486": 207,
        "14487": 40,
        "14488": 143,
        "14489": 186,
        "14490": 96,
        "14491": 192,
        "14492": 73,
        "14493": 155,
        "14494": 121,
        "14495": 195,
        "14496": 108,
        "14497": 111,
        "14498": 50,
        "14499": 251,
        "14500": 190,
        "14501": 22,
        "14502": 8,
        "14503": 138,
        "14504": 4,
        "14505": 247,
        "14506": 71,
        "14507": 172,
        "14508": 57,
        "14509": 149,
        "14510": 92,
        "14511": 162,
        "14512": 103,
        "14513": 231,
        "14514": 95,
        "14515": 113,
        "14516": 58,
        "14517": 76,
        "14518": 145,
        "14519": 218,
        "14520": 221,
        "14521": 141,
        "14522": 40,
        "14523": 44,
        "14524": 185,
        "14525": 255,
        "14526": 191,
        "14527": 170,
        "14528": 13,
        "14529": 127,
        "14530": 179,
        "14531": 254,
        "14532": 130,
        "14533": 70,
        "14534": 194,
        "14535": 157,
        "14536": 207,
        "14537": 11,
        "14538": 227,
        "14539": 164,
        "14540": 200,
        "14541": 254,
        "14542": 122,
        "14543": 124,
        "14544": 182,
        "14545": 202,
        "14546": 140,
        "14547": 223,
        "14548": 139,
        "14549": 12,
        "14550": 74,
        "14551": 28,
        "14552": 118,
        "14553": 85,
        "14554": 159,
        "14555": 100,
        "14556": 12,
        "14557": 0,
        "14558": 71,
        "14559": 160,
        "14560": 105,
        "14561": 214,
        "14562": 116,
        "14563": 244,
        "14564": 50,
        "14565": 3,
        "14566": 144,
        "14567": 102,
        "14568": 7,
        "14569": 43,
        "14570": 42,
        "14571": 130,
        "14572": 150,
        "14573": 89,
        "14574": 37,
        "14575": 8,
        "14576": 74,
        "14577": 63,
        "14578": 178,
        "14579": 71,
        "14580": 152,
        "14581": 185,
        "14582": 30,
        "14583": 100,
        "14584": 75,
        "14585": 19,
        "14586": 46,
        "14587": 39,
        "14588": 110,
        "14589": 185,
        "14590": 193,
        "14591": 19,
        "14592": 13,
        "14593": 115,
        "14594": 189,
        "14595": 0,
        "14596": 18,
        "14597": 207,
        "14598": 229,
        "14599": 132,
        "14600": 234,
        "14601": 23,
        "14602": 199,
        "14603": 83,
        "14604": 166,
        "14605": 80,
        "14606": 226,
        "14607": 111,
        "14608": 133,
        "14609": 245,
        "14610": 116,
        "14611": 90,
        "14612": 144,
        "14613": 84,
        "14614": 152,
        "14615": 162,
        "14616": 67,
        "14617": 10,
        "14618": 102,
        "14619": 226,
        "14620": 87,
        "14621": 6,
        "14622": 78,
        "14623": 97,
        "14624": 232,
        "14625": 230,
        "14626": 137,
        "14627": 135,
        "14628": 158,
        "14629": 134,
        "14630": 8,
        "14631": 179,
        "14632": 55,
        "14633": 172,
        "14634": 98,
        "14635": 142,
        "14636": 89,
        "14637": 113,
        "14638": 55,
        "14639": 145,
        "14640": 69,
        "14641": 159,
        "14642": 106,
        "14643": 134,
        "14644": 108,
        "14645": 176,
        "14646": 162,
        "14647": 85,
        "14648": 12,
        "14649": 218,
        "14650": 167,
        "14651": 150,
        "14652": 15,
        "14653": 102,
        "14654": 155,
        "14655": 175,
        "14656": 119,
        "14657": 29,
        "14658": 172,
        "14659": 156,
        "14660": 204,
        "14661": 76,
        "14662": 225,
        "14663": 39,
        "14664": 240,
        "14665": 201,
        "14666": 206,
        "14667": 240,
        "14668": 229,
        "14669": 221,
        "14670": 241,
        "14671": 81,
        "14672": 101,
        "14673": 222,
        "14674": 179,
        "14675": 62,
        "14676": 152,
        "14677": 23,
        "14678": 83,
        "14679": 66,
        "14680": 126,
        "14681": 84,
        "14682": 217,
        "14683": 115,
        "14684": 5,
        "14685": 73,
        "14686": 252,
        "14687": 106,
        "14688": 234,
        "14689": 75,
        "14690": 193,
        "14691": 57,
        "14692": 219,
        "14693": 58,
        "14694": 147,
        "14695": 86,
        "14696": 242,
        "14697": 208,
        "14698": 51,
        "14699": 188,
        "14700": 117,
        "14701": 231,
        "14702": 159,
        "14703": 160,
        "14704": 229,
        "14705": 235,
        "14706": 73,
        "14707": 182,
        "14708": 225,
        "14709": 106,
        "14710": 82,
        "14711": 9,
        "14712": 46,
        "14713": 153,
        "14714": 39,
        "14715": 64,
        "14716": 235,
        "14717": 127,
        "14718": 60,
        "14719": 73,
        "14720": 138,
        "14721": 69,
        "14722": 84,
        "14723": 16,
        "14724": 64,
        "14725": 90,
        "14726": 230,
        "14727": 76,
        "14728": 253,
        "14729": 130,
        "14730": 8,
        "14731": 56,
        "14732": 228,
        "14733": 244,
        "14734": 167,
        "14735": 65,
        "14736": 91,
        "14737": 31,
        "14738": 126,
        "14739": 23,
        "14740": 206,
        "14741": 102,
        "14742": 183,
        "14743": 178,
        "14744": 6,
        "14745": 175,
        "14746": 18,
        "14747": 154,
        "14748": 176,
        "14749": 0,
        "14750": 91,
        "14751": 143,
        "14752": 181,
        "14753": 139,
        "14754": 103,
        "14755": 108,
        "14756": 73,
        "14757": 188,
        "14758": 137,
        "14759": 50,
        "14760": 215,
        "14761": 83,
        "14762": 1,
        "14763": 174,
        "14764": 18,
        "14765": 108,
        "14766": 228,
        "14767": 135,
        "14768": 23,
        "14769": 202,
        "14770": 181,
        "14771": 39,
        "14772": 100,
        "14773": 76,
        "14774": 2,
        "14775": 22,
        "14776": 94,
        "14777": 134,
        "14778": 212,
        "14779": 148,
        "14780": 222,
        "14781": 255,
        "14782": 15,
        "14783": 53,
        "14784": 79,
        "14785": 18,
        "14786": 231,
        "14787": 118,
        "14788": 198,
        "14789": 237,
        "14790": 154,
        "14791": 130,
        "14792": 211,
        "14793": 132,
        "14794": 220,
        "14795": 117,
        "14796": 78,
        "14797": 109,
        "14798": 245,
        "14799": 10,
        "14800": 203,
        "14801": 28,
        "14802": 108,
        "14803": 56,
        "14804": 57,
        "14805": 167,
        "14806": 29,
        "14807": 41,
        "14808": 83,
        "14809": 163,
        "14810": 8,
        "14811": 17,
        "14812": 39,
        "14813": 196,
        "14814": 167,
        "14815": 110,
        "14816": 12,
        "14817": 220,
        "14818": 95,
        "14819": 238,
        "14820": 254,
        "14821": 6,
        "14822": 74,
        "14823": 59,
        "14824": 63,
        "14825": 47,
        "14826": 219,
        "14827": 246,
        "14828": 108,
        "14829": 177,
        "14830": 168,
        "14831": 204,
        "14832": 35,
        "14833": 235,
        "14834": 83,
        "14835": 83,
        "14836": 255,
        "14837": 53,
        "14838": 76,
        "14839": 18,
        "14840": 10,
        "14841": 95,
        "14842": 204,
        "14843": 88,
        "14844": 11,
        "14845": 48,
        "14846": 102,
        "14847": 70,
        "14848": 89,
        "14849": 59,
        "14850": 186,
        "14851": 190,
        "14852": 49,
        "14853": 217,
        "14854": 135,
        "14855": 72,
        "14856": 8,
        "14857": 59,
        "14858": 22,
        "14859": 142,
        "14860": 153,
        "14861": 147,
        "14862": 35,
        "14863": 163,
        "14864": 145,
        "14865": 52,
        "14866": 135,
        "14867": 205,
        "14868": 0,
        "14869": 72,
        "14870": 33,
        "14871": 25,
        "14872": 204,
        "14873": 113,
        "14874": 73,
        "14875": 3,
        "14876": 75,
        "14877": 4,
        "14878": 82,
        "14879": 42,
        "14880": 230,
        "14881": 137,
        "14882": 185,
        "14883": 87,
        "14884": 113,
        "14885": 52,
        "14886": 109,
        "14887": 255,
        "14888": 93,
        "14889": 62,
        "14890": 26,
        "14891": 126,
        "14892": 73,
        "14893": 177,
        "14894": 172,
        "14895": 241,
        "14896": 185,
        "14897": 140,
        "14898": 216,
        "14899": 89,
        "14900": 207,
        "14901": 212,
        "14902": 36,
        "14903": 233,
        "14904": 67,
        "14905": 88,
        "14906": 33,
        "14907": 177,
        "14908": 58,
        "14909": 156,
        "14910": 170,
        "14911": 138,
        "14912": 88,
        "14913": 96,
        "14914": 128,
        "14915": 184,
        "14916": 133,
        "14917": 73,
        "14918": 134,
        "14919": 180,
        "14920": 229,
        "14921": 120,
        "14922": 204,
        "14923": 152,
        "14924": 125,
        "14925": 58,
        "14926": 97,
        "14927": 201,
        "14928": 184,
        "14929": 130,
        "14930": 27,
        "14931": 95,
        "14932": 183,
        "14933": 145,
        "14934": 155,
        "14935": 200,
        "14936": 149,
        "14937": 43,
        "14938": 20,
        "14939": 130,
        "14940": 147,
        "14941": 67,
        "14942": 170,
        "14943": 55,
        "14944": 104,
        "14945": 144,
        "14946": 36,
        "14947": 207,
        "14948": 47,
        "14949": 95,
        "14950": 210,
        "14951": 241,
        "14952": 84,
        "14953": 13,
        "14954": 2,
        "14955": 74,
        "14956": 86,
        "14957": 175,
        "14958": 193,
        "14959": 170,
        "14960": 116,
        "14961": 82,
        "14962": 227,
        "14963": 127,
        "14964": 221,
        "14965": 77,
        "14966": 52,
        "14967": 53,
        "14968": 51,
        "14969": 106,
        "14970": 69,
        "14971": 59,
        "14972": 138,
        "14973": 127,
        "14974": 8,
        "14975": 88,
        "14976": 219,
        "14977": 54,
        "14978": 150,
        "14979": 222,
        "14980": 100,
        "14981": 239,
        "14982": 230,
        "14983": 162,
        "14984": 55,
        "14985": 104,
        "14986": 239,
        "14987": 201,
        "14988": 10,
        "14989": 198,
        "14990": 117,
        "14991": 6,
        "14992": 157,
        "14993": 59,
        "14994": 174,
        "14995": 74,
        "14996": 36,
        "14997": 169,
        "14998": 235,
        "14999": 196,
        "15000": 17,
        "15001": 234,
        "15002": 221,
        "15003": 238,
        "15004": 178,
        "15005": 47,
        "15006": 130,
        "15007": 124,
        "15008": 12,
        "15009": 7,
        "15010": 15,
        "15011": 44,
        "15012": 6,
        "15013": 92,
        "15014": 37,
        "15015": 246,
        "15016": 17,
        "15017": 197,
        "15018": 151,
        "15019": 172,
        "15020": 59,
        "15021": 45,
        "15022": 10,
        "15023": 186,
        "15024": 109,
        "15025": 155,
        "15026": 78,
        "15027": 223,
        "15028": 232,
        "15029": 255,
        "15030": 190,
        "15031": 150,
        "15032": 235,
        "15033": 69,
        "15034": 90,
        "15035": 91,
        "15036": 202,
        "15037": 143,
        "15038": 76,
        "15039": 161,
        "15040": 119,
        "15041": 64,
        "15042": 134,
        "15043": 184,
        "15044": 114,
        "15045": 144,
        "15046": 61,
        "15047": 192,
        "15048": 181,
        "15049": 133,
        "15050": 50,
        "15051": 176,
        "15052": 134,
        "15053": 202,
        "15054": 125,
        "15055": 69,
        "15056": 64,
        "15057": 16,
        "15058": 116,
        "15059": 5,
        "15060": 95,
        "15061": 23,
        "15062": 32,
        "15063": 47,
        "15064": 0,
        "15065": 224,
        "15066": 47,
        "15067": 48,
        "15068": 173,
        "15069": 117,
        "15070": 250,
        "15071": 95,
        "15072": 58,
        "15073": 152,
        "15074": 208,
        "15075": 116,
        "15076": 244,
        "15077": 165,
        "15078": 199,
        "15079": 73,
        "15080": 81,
        "15081": 99,
        "15082": 147,
        "15083": 234,
        "15084": 134,
        "15085": 88,
        "15086": 55,
        "15087": 167,
        "15088": 147,
        "15089": 131,
        "15090": 87,
        "15091": 167,
        "15092": 42,
        "15093": 222,
        "15094": 30,
        "15095": 252,
        "15096": 34,
        "15097": 196,
        "15098": 231,
        "15099": 121,
        "15100": 243,
        "15101": 165,
        "15102": 146,
        "15103": 141,
        "15104": 218,
        "15105": 81,
        "15106": 106,
        "15107": 72,
        "15108": 219,
        "15109": 156,
        "15110": 99,
        "15111": 35,
        "15112": 196,
        "15113": 181,
        "15114": 35,
        "15115": 208,
        "15116": 168,
        "15117": 40,
        "15118": 99,
        "15119": 156,
        "15120": 66,
        "15121": 153,
        "15122": 139,
        "15123": 27,
        "15124": 11,
        "15125": 221,
        "15126": 18,
        "15127": 80,
        "15128": 9,
        "15129": 134,
        "15130": 121,
        "15131": 80,
        "15132": 61,
        "15133": 61,
        "15134": 5,
        "15135": 176,
        "15136": 233,
        "15137": 208,
        "15138": 231,
        "15139": 218,
        "15140": 1,
        "15141": 29,
        "15142": 34,
        "15143": 248,
        "15144": 40,
        "15145": 75,
        "15146": 89,
        "15147": 61,
        "15148": 214,
        "15149": 13,
        "15150": 52,
        "15151": 162,
        "15152": 74,
        "15153": 151,
        "15154": 51,
        "15155": 77,
        "15156": 159,
        "15157": 95,
        "15158": 87,
        "15159": 104,
        "15160": 145,
        "15161": 67,
        "15162": 186,
        "15163": 190,
        "15164": 125,
        "15165": 127,
        "15166": 54,
        "15167": 123,
        "15168": 224,
        "15169": 66,
        "15170": 81,
        "15171": 6,
        "15172": 196,
        "15173": 204,
        "15174": 203,
        "15175": 22,
        "15176": 183,
        "15177": 64,
        "15178": 50,
        "15179": 1,
        "15180": 34,
        "15181": 17,
        "15182": 144,
        "15183": 108,
        "15184": 253,
        "15185": 223,
        "15186": 128,
        "15187": 220,
        "15188": 136,
        "15189": 221,
        "15190": 46,
        "15191": 200,
        "15192": 101,
        "15193": 240,
        "15194": 19,
        "15195": 247,
        "15196": 71,
        "15197": 178,
        "15198": 143,
        "15199": 32,
        "15200": 17,
        "15201": 227,
        "15202": 130,
        "15203": 178,
        "15204": 0,
        "15205": 238,
        "15206": 227,
        "15207": 143,
        "15208": 142,
        "15209": 106,
        "15210": 184,
        "15211": 107,
        "15212": 23,
        "15213": 247,
        "15214": 190,
        "15215": 221,
        "15216": 60,
        "15217": 83,
        "15218": 211,
        "15219": 75,
        "15220": 59,
        "15221": 24,
        "15222": 96,
        "15223": 6,
        "15224": 97,
        "15225": 210,
        "15226": 102,
        "15227": 188,
        "15228": 173,
        "15229": 177,
        "15230": 204,
        "15231": 213,
        "15232": 147,
        "15233": 26,
        "15234": 213,
        "15235": 101,
        "15236": 212,
        "15237": 71,
        "15238": 156,
        "15239": 31,
        "15240": 141,
        "15241": 148,
        "15242": 16,
        "15243": 71,
        "15244": 117,
        "15245": 195,
        "15246": 158,
        "15247": 22,
        "15248": 161,
        "15249": 125,
        "15250": 242,
        "15251": 169,
        "15252": 77,
        "15253": 190,
        "15254": 167,
        "15255": 5,
        "15256": 147,
        "15257": 39,
        "15258": 94,
        "15259": 184,
        "15260": 176,
        "15261": 77,
        "15262": 113,
        "15263": 12,
        "15264": 223,
        "15265": 126,
        "15266": 220,
        "15267": 190,
        "15268": 195,
        "15269": 125,
        "15270": 140,
        "15271": 99,
        "15272": 192,
        "15273": 245,
        "15274": 148,
        "15275": 79,
        "15276": 17,
        "15277": 41,
        "15278": 49,
        "15279": 222,
        "15280": 41,
        "15281": 99,
        "15282": 138,
        "15283": 53,
        "15284": 158,
        "15285": 101,
        "15286": 4,
        "15287": 231,
        "15288": 158,
        "15289": 59,
        "15290": 111,
        "15291": 56,
        "15292": 48,
        "15293": 151,
        "15294": 243,
        "15295": 239,
        "15296": 4,
        "15297": 54,
        "15298": 15,
        "15299": 227,
        "15300": 12,
        "15301": 236,
        "15302": 155,
        "15303": 56,
        "15304": 123,
        "15305": 138,
        "15306": 1,
        "15307": 134,
        "15308": 91,
        "15309": 220,
        "15310": 94,
        "15311": 201,
        "15312": 149,
        "15313": 7,
        "15314": 185,
        "15315": 130,
        "15316": 212,
        "15317": 4,
        "15318": 9,
        "15319": 219,
        "15320": 91,
        "15321": 233,
        "15322": 149,
        "15323": 54,
        "15324": 114,
        "15325": 45,
        "15326": 79,
        "15327": 63,
        "15328": 220,
        "15329": 225,
        "15330": 181,
        "15331": 91,
        "15332": 154,
        "15333": 193,
        "15334": 250,
        "15335": 217,
        "15336": 36,
        "15337": 160,
        "15338": 82,
        "15339": 6,
        "15340": 249,
        "15341": 224,
        "15342": 182,
        "15343": 34,
        "15344": 77,
        "15345": 11,
        "15346": 39,
        "15347": 81,
        "15348": 205,
        "15349": 181,
        "15350": 8,
        "15351": 140,
        "15352": 114,
        "15353": 109,
        "15354": 146,
        "15355": 255,
        "15356": 247,
        "15357": 133,
        "15358": 135,
        "15359": 41,
        "15360": 104,
        "15361": 88,
        "15362": 19,
        "15363": 97,
        "15364": 166,
        "15365": 150,
        "15366": 71,
        "15367": 115,
        "15368": 108,
        "15369": 131,
        "15370": 143,
        "15371": 9,
        "15372": 182,
        "15373": 125,
        "15374": 148,
        "15375": 30,
        "15376": 106,
        "15377": 95,
        "15378": 31,
        "15379": 163,
        "15380": 115,
        "15381": 73,
        "15382": 23,
        "15383": 238,
        "15384": 219,
        "15385": 37,
        "15386": 56,
        "15387": 29,
        "15388": 19,
        "15389": 127,
        "15390": 108,
        "15391": 143,
        "15392": 31,
        "15393": 81,
        "15394": 125,
        "15395": 55,
        "15396": 64,
        "15397": 3,
        "15398": 120,
        "15399": 82,
        "15400": 218,
        "15401": 243,
        "15402": 127,
        "15403": 157,
        "15404": 43,
        "15405": 129,
        "15406": 103,
        "15407": 96,
        "15408": 201,
        "15409": 201,
        "15410": 243,
        "15411": 111,
        "15412": 13,
        "15413": 228,
        "15414": 98,
        "15415": 26,
        "15416": 45,
        "15417": 181,
        "15418": 205,
        "15419": 192,
        "15420": 116,
        "15421": 178,
        "15422": 124,
        "15423": 140,
        "15424": 35,
        "15425": 229,
        "15426": 94,
        "15427": 85,
        "15428": 21,
        "15429": 147,
        "15430": 172,
        "15431": 1,
        "15432": 18,
        "15433": 62,
        "15434": 26,
        "15435": 48,
        "15436": 252,
        "15437": 158,
        "15438": 30,
        "15439": 197,
        "15440": 5,
        "15441": 38,
        "15442": 194,
        "15443": 209,
        "15444": 189,
        "15445": 101,
        "15446": 111,
        "15447": 36,
        "15448": 102,
        "15449": 232,
        "15450": 166,
        "15451": 182,
        "15452": 192,
        "15453": 75,
        "15454": 7,
        "15455": 26,
        "15456": 171,
        "15457": 144,
        "15458": 102,
        "15459": 80,
        "15460": 210,
        "15461": 82,
        "15462": 165,
        "15463": 146,
        "15464": 45,
        "15465": 114,
        "15466": 242,
        "15467": 89,
        "15468": 166,
        "15469": 151,
        "15470": 122,
        "15471": 123,
        "15472": 158,
        "15473": 115,
        "15474": 223,
        "15475": 203,
        "15476": 49,
        "15477": 253,
        "15478": 201,
        "15479": 229,
        "15480": 126,
        "15481": 74,
        "15482": 146,
        "15483": 57,
        "15484": 118,
        "15485": 78,
        "15486": 67,
        "15487": 236,
        "15488": 16,
        "15489": 149,
        "15490": 255,
        "15491": 152,
        "15492": 75,
        "15493": 251,
        "15494": 88,
        "15495": 98,
        "15496": 213,
        "15497": 2,
        "15498": 255,
        "15499": 37,
        "15500": 60,
        "15501": 175,
        "15502": 240,
        "15503": 107,
        "15504": 58,
        "15505": 78,
        "15506": 1,
        "15507": 130,
        "15508": 188,
        "15509": 238,
        "15510": 122,
        "15511": 227,
        "15512": 65,
        "15513": 167,
        "15514": 174,
        "15515": 96,
        "15516": 6,
        "15517": 45,
        "15518": 14,
        "15519": 39,
        "15520": 39,
        "15521": 122,
        "15522": 180,
        "15523": 200,
        "15524": 147,
        "15525": 157,
        "15526": 170,
        "15527": 185,
        "15528": 247,
        "15529": 160,
        "15530": 118,
        "15531": 143,
        "15532": 218,
        "15533": 101,
        "15534": 186,
        "15535": 182,
        "15536": 109,
        "15537": 103,
        "15538": 146,
        "15539": 188,
        "15540": 159,
        "15541": 62,
        "15542": 106,
        "15543": 110,
        "15544": 206,
        "15545": 179,
        "15546": 254,
        "15547": 198,
        "15548": 163,
        "15549": 79,
        "15550": 236,
        "15551": 211,
        "15552": 129,
        "15553": 72,
        "15554": 206,
        "15555": 220,
        "15556": 199,
        "15557": 31,
        "15558": 193,
        "15559": 68,
        "15560": 133,
        "15561": 199,
        "15562": 206,
        "15563": 100,
        "15564": 54,
        "15565": 87,
        "15566": 172,
        "15567": 0,
        "15568": 107,
        "15569": 224,
        "15570": 142,
        "15571": 173,
        "15572": 178,
        "15573": 92,
        "15574": 33,
        "15575": 201,
        "15576": 26,
        "15577": 226,
        "15578": 154,
        "15579": 186,
        "15580": 94,
        "15581": 189,
        "15582": 250,
        "15583": 249,
        "15584": 47,
        "15585": 88,
        "15586": 255,
        "15587": 167,
        "15588": 129,
        "15589": 253,
        "15590": 168,
        "15591": 63,
        "15592": 42,
        "15593": 255,
        "15594": 232,
        "15595": 156,
        "15596": 205,
        "15597": 5,
        "15598": 209,
        "15599": 223,
        "15600": 73,
        "15601": 71,
        "15602": 164,
        "15603": 158,
        "15604": 49,
        "15605": 37,
        "15606": 11,
        "15607": 244,
        "15608": 122,
        "15609": 43,
        "15610": 127,
        "15611": 249,
        "15612": 226,
        "15613": 159,
        "15614": 116,
        "15615": 232,
        "15616": 5,
        "15617": 171,
        "15618": 159,
        "15619": 115,
        "15620": 106,
        "15621": 230,
        "15622": 63,
        "15623": 231,
        "15624": 190,
        "15625": 53,
        "15626": 169,
        "15627": 127,
        "15628": 193,
        "15629": 159,
        "15630": 251,
        "15631": 153,
        "15632": 129,
        "15633": 71,
        "15634": 247,
        "15635": 34,
        "15636": 106,
        "15637": 202,
        "15638": 223,
        "15639": 96,
        "15640": 66,
        "15641": 56,
        "15642": 85,
        "15643": 21,
        "15644": 119,
        "15645": 204,
        "15646": 127,
        "15647": 195,
        "15648": 175,
        "15649": 115,
        "15650": 171,
        "15651": 211,
        "15652": 139,
        "15653": 221,
        "15654": 43,
        "15655": 63,
        "15656": 7,
        "15657": 66,
        "15658": 5,
        "15659": 235,
        "15660": 114,
        "15661": 179,
        "15662": 120,
        "15663": 58,
        "15664": 214,
        "15665": 179,
        "15666": 56,
        "15667": 28,
        "15668": 120,
        "15669": 130,
        "15670": 204,
        "15671": 249,
        "15672": 116,
        "15673": 115,
        "15674": 199,
        "15675": 183,
        "15676": 252,
        "15677": 158,
        "15678": 101,
        "15679": 81,
        "15680": 113,
        "15681": 22,
        "15682": 149,
        "15683": 193,
        "15684": 185,
        "15685": 238,
        "15686": 120,
        "15687": 102,
        "15688": 27,
        "15689": 250,
        "15690": 80,
        "15691": 240,
        "15692": 61,
        "15693": 9,
        "15694": 73,
        "15695": 200,
        "15696": 141,
        "15697": 57,
        "15698": 158,
        "15699": 244,
        "15700": 149,
        "15701": 193,
        "15702": 152,
        "15703": 125,
        "15704": 185,
        "15705": 72,
        "15706": 30,
        "15707": 198,
        "15708": 239,
        "15709": 113,
        "15710": 229,
        "15711": 133,
        "15712": 22,
        "15713": 192,
        "15714": 252,
        "15715": 166,
        "15716": 229,
        "15717": 162,
        "15718": 102,
        "15719": 210,
        "15720": 153,
        "15721": 219,
        "15722": 117,
        "15723": 19,
        "15724": 163,
        "15725": 62,
        "15726": 152,
        "15727": 165,
        "15728": 44,
        "15729": 252,
        "15730": 152,
        "15731": 121,
        "15732": 22,
        "15733": 39,
        "15734": 155,
        "15735": 15,
        "15736": 15,
        "15737": 201,
        "15738": 249,
        "15739": 179,
        "15740": 161,
        "15741": 161,
        "15742": 15,
        "15743": 156,
        "15744": 73,
        "15745": 245,
        "15746": 222,
        "15747": 152,
        "15748": 111,
        "15749": 103,
        "15750": 228,
        "15751": 246,
        "15752": 174,
        "15753": 227,
        "15754": 0,
        "15755": 81,
        "15756": 132,
        "15757": 75,
        "15758": 19,
        "15759": 218,
        "15760": 81,
        "15761": 138,
        "15762": 249,
        "15763": 199,
        "15764": 130,
        "15765": 132,
        "15766": 252,
        "15767": 68,
        "15768": 25,
        "15769": 196,
        "15770": 136,
        "15771": 76,
        "15772": 4,
        "15773": 165,
        "15774": 214,
        "15775": 86,
        "15776": 20,
        "15777": 199,
        "15778": 33,
        "15779": 71,
        "15780": 58,
        "15781": 241,
        "15782": 82,
        "15783": 225,
        "15784": 195,
        "15785": 56,
        "15786": 236,
        "15787": 165,
        "15788": 68,
        "15789": 99,
        "15790": 116,
        "15791": 203,
        "15792": 30,
        "15793": 160,
        "15794": 15,
        "15795": 58,
        "15796": 38,
        "15797": 50,
        "15798": 132,
        "15799": 41,
        "15800": 14,
        "15801": 205,
        "15802": 90,
        "15803": 88,
        "15804": 115,
        "15805": 87,
        "15806": 225,
        "15807": 198,
        "15808": 254,
        "15809": 150,
        "15810": 192,
        "15811": 164,
        "15812": 158,
        "15813": 106,
        "15814": 12,
        "15815": 103,
        "15816": 17,
        "15817": 19,
        "15818": 69,
        "15819": 130,
        "15820": 222,
        "15821": 214,
        "15822": 101,
        "15823": 136,
        "15824": 35,
        "15825": 236,
        "15826": 143,
        "15827": 23,
        "15828": 80,
        "15829": 253,
        "15830": 166,
        "15831": 95,
        "15832": 7,
        "15833": 237,
        "15834": 207,
        "15835": 229,
        "15836": 233,
        "15837": 137,
        "15838": 96,
        "15839": 166,
        "15840": 249,
        "15841": 92,
        "15842": 47,
        "15843": 247,
        "15844": 20,
        "15845": 207,
        "15846": 101,
        "15847": 17,
        "15848": 192,
        "15849": 110,
        "15850": 92,
        "15851": 74,
        "15852": 249,
        "15853": 55,
        "15854": 157,
        "15855": 165,
        "15856": 74,
        "15857": 120,
        "15858": 31,
        "15859": 22,
        "15860": 86,
        "15861": 1,
        "15862": 187,
        "15863": 73,
        "15864": 243,
        "15865": 21,
        "15866": 124,
        "15867": 245,
        "15868": 109,
        "15869": 67,
        "15870": 252,
        "15871": 20,
        "15872": 131,
        "15873": 56,
        "15874": 86,
        "15875": 232,
        "15876": 184,
        "15877": 187,
        "15878": 240,
        "15879": 160,
        "15880": 237,
        "15881": 127,
        "15882": 180,
        "15883": 70,
        "15884": 87,
        "15885": 110,
        "15886": 134,
        "15887": 89,
        "15888": 158,
        "15889": 240,
        "15890": 63,
        "15891": 41,
        "15892": 222,
        "15893": 75,
        "15894": 69,
        "15895": 252,
        "15896": 29,
        "15897": 234,
        "15898": 175,
        "15899": 93,
        "15900": 15,
        "15901": 65,
        "15902": 192,
        "15903": 37,
        "15904": 67,
        "15905": 190,
        "15906": 1,
        "15907": 75,
        "15908": 76,
        "15909": 88,
        "15910": 227,
        "15911": 135,
        "15912": 120,
        "15913": 53,
        "15914": 68,
        "15915": 162,
        "15916": 205,
        "15917": 159,
        "15918": 147,
        "15919": 151,
        "15920": 141,
        "15921": 183,
        "15922": 91,
        "15923": 99,
        "15924": 234,
        "15925": 139,
        "15926": 131,
        "15927": 147,
        "15928": 119,
        "15929": 146,
        "15930": 47,
        "15931": 8,
        "15932": 158,
        "15933": 157,
        "15934": 22,
        "15935": 235,
        "15936": 250,
        "15937": 122,
        "15938": 105,
        "15939": 216,
        "15940": 47,
        "15941": 159,
        "15942": 108,
        "15943": 194,
        "15944": 122,
        "15945": 209,
        "15946": 100,
        "15947": 79,
        "15948": 166,
        "15949": 245,
        "15950": 215,
        "15951": 208,
        "15952": 158,
        "15953": 35,
        "15954": 157,
        "15955": 79,
        "15956": 36,
        "15957": 159,
        "15958": 25,
        "15959": 140,
        "15960": 95,
        "15961": 221,
        "15962": 212,
        "15963": 128,
        "15964": 143,
        "15965": 59,
        "15966": 154,
        "15967": 196,
        "15968": 207,
        "15969": 205,
        "15970": 208,
        "15971": 67,
        "15972": 184,
        "15973": 99,
        "15974": 42,
        "15975": 235,
        "15976": 78,
        "15977": 80,
        "15978": 101,
        "15979": 232,
        "15980": 191,
        "15981": 52,
        "15982": 156,
        "15983": 119,
        "15984": 228,
        "15985": 189,
        "15986": 112,
        "15987": 119,
        "15988": 118,
        "15989": 226,
        "15990": 103,
        "15991": 89,
        "15992": 133,
        "15993": 177,
        "15994": 52,
        "15995": 155,
        "15996": 44,
        "15997": 182,
        "15998": 167,
        "15999": 125,
        "16000": 228,
        "16001": 182,
        "16002": 210,
        "16003": 24,
        "16004": 137,
        "16005": 57,
        "16006": 127,
        "16007": 70,
        "16008": 56,
        "16009": 107,
        "16010": 60,
        "16011": 208,
        "16012": 227,
        "16013": 12,
        "16014": 146,
        "16015": 4,
        "16016": 39,
        "16017": 219,
        "16018": 116,
        "16019": 53,
        "16020": 249,
        "16021": 234,
        "16022": 193,
        "16023": 94,
        "16024": 104,
        "16025": 254,
        "16026": 239,
        "16027": 192,
        "16028": 126,
        "16029": 201,
        "16030": 112,
        "16031": 123,
        "16032": 112,
        "16033": 168,
        "16034": 214,
        "16035": 8,
        "16036": 24,
        "16037": 87,
        "16038": 190,
        "16039": 246,
        "16040": 101,
        "16041": 95,
        "16042": 236,
        "16043": 208,
        "16044": 237,
        "16045": 188,
        "16046": 175,
        "16047": 248,
        "16048": 238,
        "16049": 150,
        "16050": 51,
        "16051": 226,
        "16052": 92,
        "16053": 88,
        "16054": 233,
        "16055": 99,
        "16056": 206,
        "16057": 27,
        "16058": 121,
        "16059": 54,
        "16060": 152,
        "16061": 145,
        "16062": 211,
        "16063": 83,
        "16064": 11,
        "16065": 186,
        "16066": 149,
        "16067": 128,
        "16068": 220,
        "16069": 14,
        "16070": 78,
        "16071": 235,
        "16072": 242,
        "16073": 0,
        "16074": 23,
        "16075": 172,
        "16076": 8,
        "16077": 90,
        "16078": 37,
        "16079": 167,
        "16080": 21,
        "16081": 95,
        "16082": 222,
        "16083": 25,
        "16084": 121,
        "16085": 184,
        "16086": 57,
        "16087": 139,
        "16088": 184,
        "16089": 45,
        "16090": 214,
        "16091": 55,
        "16092": 182,
        "16093": 152,
        "16094": 216,
        "16095": 76,
        "16096": 94,
        "16097": 130,
        "16098": 143,
        "16099": 184,
        "16100": 140,
        "16101": 84,
        "16102": 153,
        "16103": 134,
        "16104": 123,
        "16105": 165,
        "16106": 207,
        "16107": 88,
        "16108": 199,
        "16109": 178,
        "16110": 103,
        "16111": 255,
        "16112": 50,
        "16113": 3,
        "16114": 78,
        "16115": 148,
        "16116": 210,
        "16117": 214,
        "16118": 177,
        "16119": 252,
        "16120": 116,
        "16121": 137,
        "16122": 75,
        "16123": 127,
        "16124": 213,
        "16125": 129,
        "16126": 109,
        "16127": 12,
        "16128": 202,
        "16129": 195,
        "16130": 34,
        "16131": 151,
        "16132": 81,
        "16133": 214,
        "16134": 116,
        "16135": 2,
        "16136": 241,
        "16137": 119,
        "16138": 142,
        "16139": 124,
        "16140": 24,
        "16141": 52,
        "16142": 47,
        "16143": 48,
        "16144": 246,
        "16145": 40,
        "16146": 15,
        "16147": 149,
        "16148": 210,
        "16149": 172,
        "16150": 27,
        "16151": 177,
        "16152": 80,
        "16153": 244,
        "16154": 249,
        "16155": 146,
        "16156": 144,
        "16157": 103,
        "16158": 38,
        "16159": 116,
        "16160": 55,
        "16161": 88,
        "16162": 17,
        "16163": 36,
        "16164": 113,
        "16165": 130,
        "16166": 161,
        "16167": 151,
        "16168": 87,
        "16169": 81,
        "16170": 32,
        "16171": 135,
        "16172": 140,
        "16173": 98,
        "16174": 252,
        "16175": 21,
        "16176": 12,
        "16177": 10,
        "16178": 243,
        "16179": 55,
        "16180": 114,
        "16181": 121,
        "16182": 189,
        "16183": 138,
        "16184": 78,
        "16185": 29,
        "16186": 212,
        "16187": 150,
        "16188": 77,
        "16189": 240,
        "16190": 148,
        "16191": 227,
        "16192": 211,
        "16193": 44,
        "16194": 9,
        "16195": 137,
        "16196": 71,
        "16197": 147,
        "16198": 206,
        "16199": 106,
        "16200": 215,
        "16201": 145,
        "16202": 4,
        "16203": 113,
        "16204": 13,
        "16205": 191,
        "16206": 178,
        "16207": 178,
        "16208": 178,
        "16209": 250,
        "16210": 54,
        "16211": 237,
        "16212": 108,
        "16213": 197,
        "16214": 18,
        "16215": 132,
        "16216": 44,
        "16217": 29,
        "16218": 82,
        "16219": 140,
        "16220": 230,
        "16221": 68,
        "16222": 14,
        "16223": 84,
        "16224": 221,
        "16225": 251,
        "16226": 242,
        "16227": 221,
        "16228": 136,
        "16229": 108,
        "16230": 99,
        "16231": 107,
        "16232": 215,
        "16233": 253,
        "16234": 167,
        "16235": 211,
        "16236": 146,
        "16237": 0,
        "16238": 147,
        "16239": 196,
        "16240": 116,
        "16241": 242,
        "16242": 51,
        "16243": 101,
        "16244": 42,
        "16245": 83,
        "16246": 195,
        "16247": 203,
        "16248": 230,
        "16249": 193,
        "16250": 175,
        "16251": 239,
        "16252": 199,
        "16253": 114,
        "16254": 117,
        "16255": 207,
        "16256": 132,
        "16257": 131,
        "16258": 16,
        "16259": 63,
        "16260": 186,
        "16261": 231,
        "16262": 11,
        "16263": 81,
        "16264": 250,
        "16265": 122,
        "16266": 20,
        "16267": 212,
        "16268": 49,
        "16269": 176,
        "16270": 39,
        "16271": 210,
        "16272": 136,
        "16273": 38,
        "16274": 232,
        "16275": 106,
        "16276": 38,
        "16277": 89,
        "16278": 177,
        "16279": 174,
        "16280": 123,
        "16281": 230,
        "16282": 209,
        "16283": 220,
        "16284": 50,
        "16285": 10,
        "16286": 106,
        "16287": 93,
        "16288": 178,
        "16289": 177,
        "16290": 136,
        "16291": 187,
        "16292": 238,
        "16293": 121,
        "16294": 73,
        "16295": 168,
        "16296": 241,
        "16297": 181,
        "16298": 44,
        "16299": 186,
        "16300": 238,
        "16301": 22,
        "16302": 157,
        "16303": 230,
        "16304": 103,
        "16305": 40,
        "16306": 26,
        "16307": 88,
        "16308": 128,
        "16309": 75,
        "16310": 120,
        "16311": 120,
        "16312": 72,
        "16313": 172,
        "16314": 40,
        "16315": 39,
        "16316": 85,
        "16317": 193,
        "16318": 221,
        "16319": 78,
        "16320": 101,
        "16321": 230,
        "16322": 232,
        "16323": 62,
        "16324": 37,
        "16325": 34,
        "16326": 109,
        "16327": 214,
        "16328": 178,
        "16329": 19,
        "16330": 216,
        "16331": 22,
        "16332": 200,
        "16333": 191,
        "16334": 68,
        "16335": 156,
        "16336": 52,
        "16337": 96,
        "16338": 131,
        "16339": 49,
        "16340": 228,
        "16341": 20,
        "16342": 33,
        "16343": 128,
        "16344": 175,
        "16345": 57,
        "16346": 98,
        "16347": 148,
        "16348": 235,
        "16349": 93,
        "16350": 93,
        "16351": 117,
        "16352": 68,
        "16353": 147,
        "16354": 229,
        "16355": 99,
        "16356": 53,
        "16357": 203,
        "16358": 11,
        "16359": 229,
        "16360": 13,
        "16361": 111,
        "16362": 90,
        "16363": 75,
        "16364": 102,
        "16365": 226,
        "16366": 207,
        "16367": 214,
        "16368": 197,
        "16369": 191,
        "16370": 10,
        "16371": 180,
        "16372": 205,
        "16373": 57,
        "16374": 180,
        "16375": 221,
        "16376": 121,
        "16377": 224,
        "16378": 197,
        "16379": 62,
        "16380": 24,
        "16381": 121,
        "16382": 90,
        "16383": 213,
        "16384": 42,
        "16385": 240,
        "16386": 16,
        "16387": 49,
        "16388": 120,
        "16389": 43,
        "16390": 57,
        "16391": 135,
        "16392": 98,
        "16393": 128,
        "16394": 234,
        "16395": 41,
        "16396": 5,
        "16397": 134,
        "16398": 122,
        "16399": 93,
        "16400": 40,
        "16401": 36,
        "16402": 8,
        "16403": 37,
        "16404": 168,
        "16405": 126,
        "16406": 182,
        "16407": 171,
        "16408": 192,
        "16409": 40,
        "16410": 167,
        "16411": 127,
        "16412": 80,
        "16413": 7,
        "16414": 174,
        "16415": 151,
        "16416": 68,
        "16417": 211,
        "16418": 236,
        "16419": 239,
        "16420": 170,
        "16421": 62,
        "16422": 157,
        "16423": 18,
        "16424": 164,
        "16425": 40,
        "16426": 251,
        "16427": 205,
        "16428": 119,
        "16429": 184,
        "16430": 157,
        "16431": 102,
        "16432": 89,
        "16433": 219,
        "16434": 109,
        "16435": 149,
        "16436": 217,
        "16437": 205,
        "16438": 34,
        "16439": 123,
        "16440": 218,
        "16441": 216,
        "16442": 137,
        "16443": 183,
        "16444": 252,
        "16445": 144,
        "16446": 4,
        "16447": 177,
        "16448": 169,
        "16449": 3,
        "16450": 208,
        "16451": 194,
        "16452": 137,
        "16453": 29,
        "16454": 149,
        "16455": 198,
        "16456": 71,
        "16457": 149,
        "16458": 0,
        "16459": 238,
        "16460": 37,
        "16461": 143,
        "16462": 134,
        "16463": 118,
        "16464": 83,
        "16465": 234,
        "16466": 133,
        "16467": 62,
        "16468": 1,
        "16469": 164,
        "16470": 154,
        "16471": 225,
        "16472": 150,
        "16473": 148,
        "16474": 7,
        "16475": 182,
        "16476": 167,
        "16477": 248,
        "16478": 169,
        "16479": 145,
        "16480": 83,
        "16481": 139,
        "16482": 164,
        "16483": 144,
        "16484": 177,
        "16485": 132,
        "16486": 48,
        "16487": 174,
        "16488": 126,
        "16489": 153,
        "16490": 81,
        "16491": 149,
        "16492": 60,
        "16493": 86,
        "16494": 93,
        "16495": 207,
        "16496": 25,
        "16497": 31,
        "16498": 54,
        "16499": 157,
        "16500": 195,
        "16501": 162,
        "16502": 242,
        "16503": 72,
        "16504": 220,
        "16505": 12,
        "16506": 76,
        "16507": 191,
        "16508": 94,
        "16509": 106,
        "16510": 84,
        "16511": 49,
        "16512": 63,
        "16513": 3,
        "16514": 79,
        "16515": 54,
        "16516": 151,
        "16517": 124,
        "16518": 84,
        "16519": 19,
        "16520": 1,
        "16521": 8,
        "16522": 0,
        "16523": 0,
        "16524": 0,
        "16525": 0,
        "16526": 0,
        "16527": 0,
        "16528": 16,
        "16529": 0,
        "16530": 0,
        "16531": 0,
        "16532": 0,
        "16533": 0,
        "16534": 0,
        "16535": 0,
        "16536": 0,
        "16537": 0,
        "16538": 0,
        "16539": 0,
        "16540": 0,
        "16541": 0,
        "16542": 0,
        "16543": 0,
        "16544": 0,
        "16545": 0,
        "16546": 0,
        "16547": 0,
        "16548": 0,
        "16549": 0,
        "16550": 0,
        "16551": 0,
        "16552": 64,
        "16553": 0,
        "16554": 0,
        "16555": 0,
        "16556": 0,
        "16557": 0,
        "16558": 0,
        "16559": 0,
        "16560": 3,
        "16561": 0,
        "16562": 0,
        "16563": 0,
        "16564": 0,
        "16565": 0,
        "16566": 0,
        "16567": 0,
        "16568": 4,
        "16569": 0,
        "16570": 0,
        "16571": 0,
        "16572": 0,
        "16573": 0,
        "16574": 0,
        "16575": 0,
        "16576": 4,
        "16577": 0,
        "16578": 0,
        "16579": 0,
        "16580": 0,
        "16581": 0,
        "16582": 0,
        "16583": 0,
        "16584": 0,
        "16585": 0,
        "16586": 0,
        "16587": 0,
        "16588": 1,
        "16589": 0,
        "16590": 0,
        "16591": 0,
        "16592": 0,
        "16593": 0,
        "16594": 0,
        "16595": 0,
        "16596": 16,
        "16597": 0,
        "16598": 0,
        "16599": 0,
        "16600": 0,
        "16601": 0,
        "16602": 0,
        "16603": 0
      }
    }
  ],
  "numDeployments": 1,
  "solcInputHash": "2b3b26b5800f3ade8d68442c8333c36d",
  "bytecode": "0x6101606040526200001760006200026660201b60201c565b6004553480156200002757600080fd5b50604051620046ed380380620046ed83398181016040528101906200004d919062000b83565b6040518060400160405280600881526020017f46616b65205553440000000000000000000000000000000000000000000000008152506040518060400160405280600481526020017f6655534400000000000000000000000000000000000000000000000000000000815250338383836040518060400160405280601181526020017f4668656e6978205065726d697373696f6e0000000000000000000000000000008152506040518060400160405280600381526020017f312e3000000000000000000000000000000000000000000000000000000000008152506200013f6000836200028260201b90919060201c565b61012081815250506200015d6001826200028260201b90919060201c565b6101408181525050818051906020012060e08181525050808051906020012061010081815250504660a081815250506200019c620002da60201b60201c565b608081815250503073ffffffffffffffffffffffffffffffffffffffff1660c08173ffffffffffffffffffffffffffffffffffffffff168152505050508160059081620001ea919062000e1f565b508060069081620001fc919062000e1f565b505050600062000212826200033760201b60201c565b9050620002486200023c8262000230617fff6200026660201b60201c565b6200035560201b60201c565b620003f860201b60201c565b6200025a8382620004cb60201b60201c565b50505050505062001260565b60006200027b8260026200057160201b60201c565b9050919050565b6000602083511015620002a857620002a0836200062860201b60201c565b9050620002d4565b82620002ba836200069560201b60201c565b6000019081620002cb919062000e1f565b5060ff60001b90505b92915050565b60007f8b73c3c69bb8fe3d512ecc4cf759cc79239f7b179b0ffacaa9a75d522b39400f60e0516101005146306040516020016200031c95949392919062000f77565b60405160208183030381529060405280519060200120905090565b60006200034e82600001516200069f60201b60201c565b9050919050565b60006200036883620006bb60201b60201c565b62000382576200037f60006200026660201b60201c565b92505b6200039382620006bb60201b60201c565b620003ad57620003aa60006200026660201b60201c565b91505b600083905060008390506000620003ea60028484608073ffffffffffffffffffffffffffffffffffffffff1663eb274b77620006c860201b60201c565b905080935050505092915050565b62000409816200077960201b60201c565b62000423576200042060006200078660201b60201c565b90505b600081905060006200043b82620007a260201b60201c565b9050608073ffffffffffffffffffffffffffffffffffffffff16637d23f1db600d836040518363ffffffff1660e01b81526004016200047c9291906200104f565b600060405180830381865afa1580156200049a573d6000803e3d6000fd5b505050506040513d6000823e3d601f19601f82011682018060405250810190620004c5919062001083565b50505050565b62000516600260008473ffffffffffffffffffffffffffffffffffffffff1673ffffffffffffffffffffffffffffffffffffffff168152602001908152602001600020548262000803565b600260008473ffffffffffffffffffffffffffffffffffffffff1673ffffffffffffffffffffffffffffffffffffffff16815260200190815260200160002081905550620005676004548262000803565b6004819055505050565b60006060608073ffffffffffffffffffffffffffffffffffffffff166319e1c5c4620005a386620007a260201b60201c565b856040518363ffffffff1660e01b8152600401620005c3929190620010d4565b600060405180830381865afa158015620005e1573d6000803e3d6000fd5b505050506040513d6000823e3d601f19601f820116820180604052508101906200060c919062001083565b90506200061f816200081f60201b60201c565b91505092915050565b600080829050601f815111156200067857826040517f305a27a90000000000000000000000000000000000000000000000000000000081526004016200066f91906200115a565b60405180910390fd5b8051816200068690620011a5565b60001c1760001b915050919050565b6000819050919050565b6000620006b48260026200082d60201b60201c565b9050919050565b6000808214159050919050565b60006060838388620006e089620007a260201b60201c565b620006f189620007a260201b60201c565b6040518463ffffffff1660e01b8152600401620007119392919062001215565b600060405180830381865afa1580156200072f573d6000803e3d6000fd5b505050506040513d6000823e3d601f19601f820116820180604052508101906200075a919062001083565b90506200076d81620008d460201b60201c565b91505095945050505050565b6000808214159050919050565b60006200079b82600d6200057160201b60201c565b9050919050565b6060602067ffffffffffffffff811115620007c257620007c1620009ae565b5b6040519080825280601f01601f191660200182016040528015620007f55781602001600182028036833780820191505090505b509050816020820152919050565b6000620008178383620008e260201b60201c565b905092915050565b600060208201519050919050565b60006060608073ffffffffffffffffffffffffffffffffffffffff16635fa55ca784866040518363ffffffff1660e01b81526004016200086f9291906200104f565b600060405180830381865afa1580156200088d573d6000803e3d6000fd5b505050506040513d6000823e3d601f19601f82011682018060405250810190620008b8919062001083565b9050620008cb816200081f60201b60201c565b91505092915050565b600060208201519050919050565b6000620008f583620006bb60201b60201c565b6200090f576200090c60006200026660201b60201c565b92505b6200092082620006bb60201b60201c565b6200093a576200093760006200026660201b60201c565b91505b6000839050600083905060006200097660028484608073ffffffffffffffffffffffffffffffffffffffff16622df619620006c860201b60201c565b905080935050505092915050565b6000604051905090565b600080fd5b600080fd5b600080fd5b6000601f19601f8301169050919050565b7f4e487b7100000000000000000000000000000000000000000000000000000000600052604160045260246000fd5b620009e8826200099d565b810181811067ffffffffffffffff8211171562000a0a5762000a09620009ae565b5b80604052505050565b600062000a1f62000984565b905062000a2d8282620009dd565b919050565b600080fd5b600080fd5b600080fd5b600067ffffffffffffffff82111562000a5f5762000a5e620009ae565b5b62000a6a826200099d565b9050602081019050919050565b60005b8381101562000a9757808201518184015260208101905062000a7a565b60008484015250505050565b600062000aba62000ab48462000a41565b62000a13565b90508281526020810184848401111562000ad95762000ad862000a3c565b5b62000ae684828562000a77565b509392505050565b600082601f83011262000b065762000b0562000a37565b5b815162000b1884826020860162000aa3565b91505092915050565b60006020828403121562000b3a5762000b3962000998565b5b62000b46602062000a13565b9050600082015167ffffffffffffffff81111562000b695762000b6862000a32565b5b62000b778482850162000aee565b60008301525092915050565b60006020828403121562000b9c5762000b9b6200098e565b5b600082015167ffffffffffffffff81111562000bbd5762000bbc62000993565b5b62000bcb8482850162000b21565b91505092915050565b600081519050919050565b7f4e487b7100000000000000000000000000000000000000000000000000000000600052602260045260246000fd5b6000600282049050600182168062000c2757607f821691505b60208210810362000c3d5762000c3c62000bdf565b5b50919050565b60008190508160005260206000209050919050565b60006020601f8301049050919050565b600082821b905092915050565b60006008830262000ca77fffffffffffffffffffffffffffffffffffffffffffffffffffffffffffffffff8262000c68565b62000cb3868362000c68565b95508019841693508086168417925050509392505050565b6000819050919050565b6000819050919050565b600062000d0062000cfa62000cf48462000ccb565b62000cd5565b62000ccb565b9050919050565b6000819050919050565b62000d1c8362000cdf565b62000d3462000d2b8262000d07565b84845462000c75565b825550505050565b600090565b62000d4b62000d3c565b62000d5881848462000d11565b505050565b5b8181101562000d805762000d7460008262000d41565b60018101905062000d5e565b5050565b601f82111562000dcf5762000d998162000c43565b62000da48462000c58565b8101602085101562000db4578190505b62000dcc62000dc38562000c58565b83018262000d5d565b50505b505050565b600082821c905092915050565b600062000df46000198460080262000dd4565b1980831691505092915050565b600062000e0f838362000de1565b9150826002028217905092915050565b62000e2a8262000bd4565b67ffffffffffffffff81111562000e465762000e45620009ae565b5b62000e52825462000c0e565b62000e5f82828562000d84565b600060209050601f83116001811462000e97576000841562000e82578287015190505b62000e8e858262000e01565b86555062000efe565b601f19841662000ea78662000c43565b60005b8281101562000ed15784890151825560018201915060208501945060208101905062000eaa565b8683101562000ef1578489015162000eed601f89168262000de1565b8355505b6001600288020188555050505b505050505050565b6000819050919050565b62000f1b8162000f06565b82525050565b62000f2c8162000ccb565b82525050565b600073ffffffffffffffffffffffffffffffffffffffff82169050919050565b600062000f5f8262000f32565b9050919050565b62000f718162000f52565b82525050565b600060a08201905062000f8e600083018862000f10565b62000f9d602083018762000f10565b62000fac604083018662000f10565b62000fbb606083018562000f21565b62000fca608083018462000f66565b9695505050505050565b600060ff82169050919050565b62000fec8162000fd4565b82525050565b600081519050919050565b600082825260208201905092915050565b60006200101b8262000ff2565b62001027818562000ffd565b93506200103981856020860162000a77565b62001044816200099d565b840191505092915050565b600060408201905062001066600083018562000fe1565b81810360208301526200107a81846200100e565b90509392505050565b6000602082840312156200109c576200109b6200098e565b5b600082015167ffffffffffffffff811115620010bd57620010bc62000993565b5b620010cb8482850162000aee565b91505092915050565b60006040820190508181036000830152620010f081856200100e565b905062001101602083018462000fe1565b9392505050565b600082825260208201905092915050565b6000620011268262000bd4565b62001132818562001108565b93506200114481856020860162000a77565b6200114f816200099d565b840191505092915050565b6000602082019050818103600083015262001176818462001119565b905092915050565b6000819050602082019050919050565b60006200119c825162000f06565b80915050919050565b6000620011b28262000ff2565b82620011be846200117e565b9050620011cb816200118e565b925060208210156200120e57620012097fffffffffffffffffffffffffffffffffffffffffffffffffffffffffffffffff8360200360080262000c68565b831692505b5050919050565b60006060820190506200122c600083018662000fe1565b81810360208301526200124081856200100e565b905081810360408301526200125681846200100e565b9050949350505050565b60805160a05160c05160e051610100516101205161014051613432620012bb60003960006113ca0152600061138f015260006120d3015260006120b2015260006117f3015260006118490152600061187201526134326000f3fe608060405234801561001057600080fd5b50600436106101425760003560e01c80637ecebe00116100b8578063a9059cbb1161007c578063a9059cbb146103b9578063af575a00146103e9578063c4224c1914610419578063d505accf14610449578063d918156e14610465578063dd62ed3e1461049557610142565b80637ecebe00146102fb57806384b0196e1461032b5780638624a3491461034f57806395d89b411461037f5780639f284be71461039d57610142565b80633644e5151161010a5780633644e5151461020157806339c217f71461021f5780635356c4291461024f578063602772041461027f5780636e0505e1146102af57806370a08231146102cb57610142565b806306fdde0314610147578063095ea7b31461016557806318160ddd1461019557806323b872dd146101b3578063313ce567146101e3575b600080fd5b61014f6104c5565b60405161015c9190612494565b60405180910390f35b61017f600480360381019061017a919061255e565b610557565b60405161018c91906125b9565b60405180910390f35b61019d6105ab565b6040516101aa91906125e3565b60405180910390f35b6101cd60048036038101906101c891906125fe565b6105bd565b6040516101da91906125b9565b60405180910390f35b6101eb610692565b6040516101f8919061266d565b60405180910390f35b610209610697565b60405161021691906126a1565b60405180910390f35b610239600480360381019061023491906126e0565b610729565b6040516102469190612777565b60405180910390f35b610269600480360381019061026491906127b1565b61074e565b6040516102769190612494565b60405180910390f35b610299600480360381019061029491906129e4565b61084c565b6040516102a69190612494565b60405180910390f35b6102c960048036038101906102c49190612a7c565b610982565b005b6102e560048036038101906102e09190612aa9565b610ab9565b6040516102f291906125e3565b60405180910390f35b61031560048036038101906103109190612aa9565b610ad4565b60405161032291906125e3565b60405180910390f35b610333610aef565b6040516103469796959493929190612bde565b60405180910390f35b61036960048036038101906103649190612c62565b610b99565b6040516103769190612777565b60405180910390f35b610387610bd7565b6040516103949190612494565b60405180910390f35b6103b760048036038101906103b29190612a7c565b610c69565b005b6103d360048036038101906103ce919061255e565b610d76565b6040516103e091906125b9565b60405180910390f35b61040360048036038101906103fe9190612cfd565b610e08565b6040516104109190612777565b60405180910390f35b610433600480360381019061042e9190612d50565b610e35565b6040516104409190612777565b60405180910390f35b610463600480360381019061045e9190612dbc565b610e4a565b005b61047f600480360381019061047a91906126e0565b610fee565b60405161048c91906125b9565b60405180910390f35b6104af60048036038101906104aa9190612e5e565b611016565b6040516104bc91906125e3565b60405180910390f35b6060600580546104d490612ecd565b80601f016020809104026020016040519081016040528092919081815260200182805461050090612ecd565b801561054d5780601f106105225761010080835404028352916020019161054d565b820191906000526020600020905b81548152906001019060200180831161053057829003601f168201915b5050505050905090565b600082602052637f5e9f20600c5233600052816034600c205581600052602c5160601c337f8c5be1e5ebec7d5bd14f71427d1e84f3dd0314c0f7b2291e5b200ac8c7c3b92560206000a36001905092915050565b60006805345cdf77eb68f44c54905090565b60006105ca848484611036565b8360601b33602052637f5e9f208117600c526034600c20805460018101156106085780851115610602576313be252b6000526004601cfd5b84810382555b6387a211a28317600c526020600c2080548087111561062f5763f4d678b86000526004601cfd5b8681038255876000526020600c2087815401815587602052600c5160601c8660601c7fddf252ad1be2c89b69c2b068fc378daa952ba7f163c4a11628f55a4df523b3ef602080a350505050505061068784848461103b565b600190509392505050565b600090565b6000806106a2611040565b90506000801b81036106c0576106b66104c5565b8051906020012090505b6040517f8b73c3c69bb8fe3d512ecc4cf759cc79239f7b179b0ffacaa9a75d522b39400f81528160208201527fc89efdaa54c0f20c7adf612882df0950f5a951637e0307cdcb4c672f298b8bc6604082015246606082015230608082015260a081209250505090565b6000610746836107418461073c90612f56565b611045565b610e35565b905092915050565b60608161075a90612f69565b60006107b17f6bdaeb2d29561f159c7ef98b16b27015fb2aeb87209c7ee656226d912f59927d8360000151604051602001610796929190612f7c565b6040516020818303038152906040528051906020012061105b565b905060006107c3828460200151611075565b90503373ffffffffffffffffffffffffffffffffffffffff168173ffffffffffffffffffffffffffffffffffffffff161461082a576040517f3093a27700000000000000000000000000000000000000000000000000000000815260040160405180910390fd5b61084161083733886110a1565b8660000135611128565b935050505092915050565b6060818360006108a77f6bdaeb2d29561f159c7ef98b16b27015fb2aeb87209c7ee656226d912f59927d846000015160405160200161088c929190612f7c565b6040516020818303038152906040528051906020012061105b565b905060006108b9828560200151611075565b90508273ffffffffffffffffffffffffffffffffffffffff168173ffffffffffffffffffffffffffffffffffffffff1614610920576040517f51c65eae00000000000000000000000000000000000000000000000000000000815260040160405180910390fd5b6109768660000151600260008a73ffffffffffffffffffffffffffffffffffffffff1673ffffffffffffffffffffffffffffffffffffffff1681526020019081526020016000205461115e90919063ffffffff16565b94505050505092915050565b60006109938263ffffffff16611172565b905060006109fc6109ec83600260003373ffffffffffffffffffffffffffffffffffffffff1673ffffffffffffffffffffffffffffffffffffffff1681526020019081526020016000205461118690919063ffffffff16565b836109f76000611172565b61119a565b9050610a47600260003373ffffffffffffffffffffffffffffffffffffffff1673ffffffffffffffffffffffffffffffffffffffff1681526020019081526020016000205482611218565b600260003373ffffffffffffffffffffffffffffffffffffffff1673ffffffffffffffffffffffffffffffffffffffff16815260200190815260200160002081905550610a9660045482611218565b600481905550610ab433610aa98361122c565b63ffffffff166112ef565b505050565b60006387a211a2600c52816000526020600c20549050919050565b60006338377508600c52816000526020600c20549050919050565b600060608060008060006060610b03611386565b610b0b6113c1565b46306000801b600067ffffffffffffffff811115610b2c57610b2b612812565b5b604051908082528060200260200182016040528015610b5a5781602001602082028036833780820191505090505b507f0f00000000000000000000000000000000000000000000000000000000000000959493929190965096509650965096509650965090919293949596565b600080610bae83610ba990612f56565b611045565b90506000610bbd8633846113fc565b9050610bca868683611439565b5080925050509392505050565b606060068054610be690612ecd565b80601f0160208091040260200160405190810160405280929190818152602001828054610c1290612ecd565b8015610c5f5780601f10610c3457610100808354040283529160200191610c5f565b820191906000526020600020905b815481529060010190602001808311610c4257829003601f168201915b5050505050905090565b8063ffffffff16610c7933610ab9565b1015610cb1576040517ffda7bbda00000000000000000000000000000000000000000000000000000000815260040160405180910390fd5b610cc1338263ffffffff166115c6565b6000610cd28263ffffffff16611172565b9050610d1d600260003373ffffffffffffffffffffffffffffffffffffffff1673ffffffffffffffffffffffffffffffffffffffff168152602001908152602001600020548261165d565b600260003373ffffffffffffffffffffffffffffffffffffffff1673ffffffffffffffffffffffffffffffffffffffff16815260200190815260200160002081905550610d6c6004548261165d565b6004819055505050565b6000610d83338484611036565b6387a211a2600c52336000526020600c20805480841115610dac5763f4d678b86000526004601cfd5b8381038255846000526020600c2084815401815584602052600c5160601c337fddf252ad1be2c89b69c2b068fc378daa952ba7f163c4a11628f55a4df523b3ef602080a3505050610dfe33848461103b565b6001905092915050565b6000808290506000610e1b8633846113fc565b9050610e28868683611439565b5080925050509392505050565b6000610e42338484611439565b905092915050565b6000610e54611040565b90506000801b8103610e7257610e686104c5565b8051906020012090505b84421115610e8857631a15a3cc6000526004601cfd5b6040518860601b60601c98508760601b60601c975065383775081901600e52886000526020600c2080547f8b73c3c69bb8fe3d512ecc4cf759cc79239f7b179b0ffacaa9a75d522b39400f83528360208401527fc89efdaa54c0f20c7adf612882df0950f5a951637e0307cdcb4c672f298b8bc6604084015246606084015230608084015260a08320602e527f6e71edae12b1b97f4d1f60370fef10105fa2faae0126114a169c64845d6126c983528a60208401528960408401528860608401528060808401528760a084015260c08320604e526042602c206000528660ff1660205285604052846060526020806080600060015afa8b3d5114610f945763ddafbaef6000526004601cfd5b80820183558a637f5e9f2060a01b17604052896034602c20558a8c7f8c5be1e5ebec7d5bd14f71427d1e84f3dd0314c0f7b2291e5b200ac8c7c3b925602060608801a3836040526000606052505050505050505050505050565b600061100c33846110078561100290612f56565b611045565b611671565b6001905092915050565b600081602052637f5e9f20600c52826000526034600c2054905092915050565b505050565b505050565b600090565b600061105482600001516117db565b9050919050565b600061106e6110686117ef565b836118a6565b9050919050565b60008060008061108586866118e7565b9250925092506110958282611943565b82935050505092915050565b6000600360008473ffffffffffffffffffffffffffffffffffffffff1673ffffffffffffffffffffffffffffffffffffffff16815260200190815260200160002060008373ffffffffffffffffffffffffffffffffffffffff1673ffffffffffffffffffffffffffffffffffffffff16815260200190815260200160002054905092915050565b606061113383611aa7565b611144576111416000611172565b92505b600083905061115560028285611ab4565b91505092915050565b606061116a8383611128565b905092915050565b600061117f826002611b6a565b9050919050565b60006111928383611c0c565b905092915050565b60006111a584611c85565b6111b6576111b36000611c92565b93505b6111bf83611aa7565b6111d0576111cd6000611172565b92505b6111d982611aa7565b6111ea576111e76000611172565b91505b60008490506000849050600084905060006112086002858585611ca6565b9050809450505050509392505050565b60006112248383611d5e565b905092915050565b600061123782611aa7565b611248576112456000611172565b91505b6000829050600061125882611dd7565b90506000608073ffffffffffffffffffffffffffffffffffffffff166373cc01546002846040518363ffffffff1660e01b8152600401611299929190612ffa565b602060405180830381865afa1580156112b6573d6000803e3d6000fd5b505050506040513d601f19601f820116820180604052508101906112da919061303f565b90506112e581611e34565b9350505050919050565b6112fb60008383611036565b6805345cdf77eb68f44c548181018181101561131f5763e5cfe9576000526004601cfd5b806805345cdf77eb68f44c556387a211a2600c52836000526020600c2083815401815583602052600c5160601c60007fddf252ad1be2c89b69c2b068fc378daa952ba7f163c4a11628f55a4df523b3ef602080a35050506113826000838361103b565b5050565b60606113bc60007f0000000000000000000000000000000000000000000000000000000000000000611e3e90919063ffffffff16565b905090565b60606113f760017f0000000000000000000000000000000000000000000000000000000000000000611e3e90919063ffffffff16565b905090565b60008061140985856110a1565b905060006114178285611eee565b905061142d86866114288585611218565b611671565b80925050509392505050565b6000806114a1611491600260008873ffffffffffffffffffffffffffffffffffffffff1673ffffffffffffffffffffffffffffffffffffffff1681526020019081526020016000205485611f6790919063ffffffff16565b8461149c6000611172565b61119a565b90506114ec600260008673ffffffffffffffffffffffffffffffffffffffff1673ffffffffffffffffffffffffffffffffffffffff168152602001908152602001600020548261165d565b600260008673ffffffffffffffffffffffffffffffffffffffff1673ffffffffffffffffffffffffffffffffffffffff16815260200190815260200160002081905550611578600260008773ffffffffffffffffffffffffffffffffffffffff1673ffffffffffffffffffffffffffffffffffffffff1681526020019081526020016000205482611218565b600260008773ffffffffffffffffffffffffffffffffffffffff1673ffffffffffffffffffffffffffffffffffffffff16815260200190815260200160002081905550809150509392505050565b6115d282600083611036565b6387a211a2600c52816000526020600c208054808311156115fb5763f4d678b86000526004601cfd5b8281038255826805345cdf77eb68f44c54036805345cdf77eb68f44c558260005260008460601b60601c7fddf252ad1be2c89b69c2b068fc378daa952ba7f163c4a11628f55a4df523b3ef60206000a350506116598260008361103b565b5050565b60006116698383611f7b565b905092915050565b600073ffffffffffffffffffffffffffffffffffffffff168373ffffffffffffffffffffffffffffffffffffffff16036116e35760006040517fe602df050000000000000000000000000000000000000000000000000000000081526004016116da919061306c565b60405180910390fd5b600073ffffffffffffffffffffffffffffffffffffffff168273ffffffffffffffffffffffffffffffffffffffff16036117555760006040517f94280d6200000000000000000000000000000000000000000000000000000000815260040161174c919061306c565b60405180910390fd5b80600360008573ffffffffffffffffffffffffffffffffffffffff1673ffffffffffffffffffffffffffffffffffffffff16815260200190815260200160002060008473ffffffffffffffffffffffffffffffffffffffff1673ffffffffffffffffffffffffffffffffffffffff16815260200190815260200160002081905550505050565b60006117e8826002611ff3565b9050919050565b60007f000000000000000000000000000000000000000000000000000000000000000073ffffffffffffffffffffffffffffffffffffffff163073ffffffffffffffffffffffffffffffffffffffff1614801561186b57507f000000000000000000000000000000000000000000000000000000000000000046145b15611898577f000000000000000000000000000000000000000000000000000000000000000090506118a3565b6118a061208d565b90505b90565b60006040517f190100000000000000000000000000000000000000000000000000000000000081528360028201528260228201526042812091505092915050565b6000806000604184510361192c5760008060006020870151925060408701519150606087015160001a905061191e88828585612123565b95509550955050505061193c565b60006002855160001b9250925092505b9250925092565b6000600381111561195757611956613087565b5b82600381111561196a57611969613087565b5b0315611aa3576001600381111561198457611983613087565b5b82600381111561199757611996613087565b5b036119ce576040517ff645eedf00000000000000000000000000000000000000000000000000000000815260040160405180910390fd5b600260038111156119e2576119e1613087565b5b8260038111156119f5576119f4613087565b5b03611a3a578060001c6040517ffce698f7000000000000000000000000000000000000000000000000000000008152600401611a3191906125e3565b60405180910390fd5b600380811115611a4d57611a4c613087565b5b826003811115611a6057611a5f613087565b5b03611aa257806040517fd78bce0c000000000000000000000000000000000000000000000000000000008152600401611a9991906126a1565b60405180910390fd5b5b5050565b6000808214159050919050565b6060608073ffffffffffffffffffffffffffffffffffffffff1663a1848ff385611add86611dd7565b85604051602001611aee91906130d7565b6040516020818303038152906040526040518463ffffffff1660e01b8152600401611b1b939291906130f2565b600060405180830381865afa158015611b38573d6000803e3d6000fd5b505050506040513d6000823e3d601f19601f82011682018060405250810190611b6191906131d8565b90509392505050565b60006060608073ffffffffffffffffffffffffffffffffffffffff166319e1c5c4611b9486611dd7565b856040518363ffffffff1660e01b8152600401611bb2929190613221565b600060405180830381865afa158015611bcf573d6000803e3d6000fd5b505050506040513d6000823e3d601f19601f82011682018060405250810190611bf891906132c1565b9050611c0381612217565b91505092915050565b6000611c1783611aa7565b611c2857611c256000611172565b92505b611c3182611aa7565b611c4257611c3f6000611172565b91505b600083905060008390506000611c7760028484608073ffffffffffffffffffffffffffffffffffffffff1663650de1cf612225565b905080935050505092915050565b6000808214159050919050565b6000611c9f82600d611b6a565b9050919050565b60006060608073ffffffffffffffffffffffffffffffffffffffff1663c2d9695287611cd188611dd7565b611cda88611dd7565b611ce388611dd7565b6040518563ffffffff1660e01b8152600401611d02949392919061330a565b600060405180830381865afa158015611d1f573d6000803e3d6000fd5b505050506040513d6000823e3d601f19601f82011682018060405250810190611d4891906132c1565b9050611d5381612217565b915050949350505050565b6000611d6983611aa7565b611d7a57611d776000611172565b92505b611d8382611aa7565b611d9457611d916000611172565b91505b600083905060008390506000611dc960028484608073ffffffffffffffffffffffffffffffffffffffff1663cc2cbeff612225565b905080935050505092915050565b6060602067ffffffffffffffff811115611df457611df3612812565b5b6040519080825280601f01601f191660200182016040528015611e265781602001600182028036833780820191505090505b509050816020820152919050565b6000819050919050565b606060ff60001b8314611e5b57611e54836122b9565b9050611ee8565b818054611e6790612ecd565b80601f0160208091040260200160405190810160405280929190818152602001828054611e9390612ecd565b8015611ee05780601f10611eb557610100808354040283529160200191611ee0565b820191906000526020600020905b815481529060010190602001808311611ec357829003601f168201915b505050505090505b92915050565b6000611ef983611aa7565b611f0a57611f076000611172565b92505b611f1382611aa7565b611f2457611f216000611172565b91505b600083905060008390506000611f5960028484608073ffffffffffffffffffffffffffffffffffffffff16635211c679612225565b905080935050505092915050565b6000611f73838361232d565b905092915050565b6000611f8683611aa7565b611f9757611f946000611172565b92505b611fa082611aa7565b611fb157611fae6000611172565b91505b600083905060008390506000611fe560028484608073ffffffffffffffffffffffffffffffffffffffff16622df619612225565b905080935050505092915050565b60006060608073ffffffffffffffffffffffffffffffffffffffff16635fa55ca784866040518363ffffffff1660e01b8152600401612033929190612ffa565b600060405180830381865afa158015612050573d6000803e3d6000fd5b505050506040513d6000823e3d601f19601f8201168201806040525081019061207991906132c1565b905061208481612217565b91505092915050565b60007f8b73c3c69bb8fe3d512ecc4cf759cc79239f7b179b0ffacaa9a75d522b39400f7f00000000000000000000000000000000000000000000000000000000000000007f00000000000000000000000000000000000000000000000000000000000000004630604051602001612108959493929190613364565b60405160208183030381529060405280519060200120905090565b60008060007f7fffffffffffffffffffffffffffffff5d576e7357a4501ddfe92f46681b20a08460001c111561216357600060038592509250925061220d565b60006001888888886040516000815260200160405260405161218894939291906133b7565b6020604051602081039080840390855afa1580156121aa573d6000803e3d6000fd5b505050602060405103519050600073ffffffffffffffffffffffffffffffffffffffff168173ffffffffffffffffffffffffffffffffffffffff16036121fe57600060016000801b9350935093505061220d565b8060008060001b935093509350505b9450945094915050565b600060208201519050919050565b6000606083838861223589611dd7565b61223e89611dd7565b6040518463ffffffff1660e01b815260040161225c939291906130f2565b600060405180830381865afa158015612279573d6000803e3d6000fd5b505050506040513d6000823e3d601f19601f820116820180604052508101906122a291906132c1565b90506122ad816123a6565b91505095945050505050565b606060006122c6836123b4565b90506000602067ffffffffffffffff8111156122e5576122e4612812565b5b6040519080825280601f01601f1916602001820160405280156123175781602001600182028036833780820191505090505b5090508181528360208201528092505050919050565b600061233883611aa7565b612349576123466000611172565b92505b61235282611aa7565b612363576123606000611172565b91505b60008390506000839050600061239860028484608073ffffffffffffffffffffffffffffffffffffffff1663eb274b77612225565b905080935050505092915050565b600060208201519050919050565b60008060ff8360001c169050601f8111156123fb576040517fb3512b0c00000000000000000000000000000000000000000000000000000000815260040160405180910390fd5b80915050919050565b600081519050919050565b600082825260208201905092915050565b60005b8381101561243e578082015181840152602081019050612423565b60008484015250505050565b6000601f19601f8301169050919050565b600061246682612404565b612470818561240f565b9350612480818560208601612420565b6124898161244a565b840191505092915050565b600060208201905081810360008301526124ae818461245b565b905092915050565b6000604051905090565b600080fd5b600080fd5b600073ffffffffffffffffffffffffffffffffffffffff82169050919050565b60006124f5826124ca565b9050919050565b612505816124ea565b811461251057600080fd5b50565b600081359050612522816124fc565b92915050565b6000819050919050565b61253b81612528565b811461254657600080fd5b50565b60008135905061255881612532565b92915050565b60008060408385031215612575576125746124c0565b5b600061258385828601612513565b925050602061259485828601612549565b9150509250929050565b60008115159050919050565b6125b38161259e565b82525050565b60006020820190506125ce60008301846125aa565b92915050565b6125dd81612528565b82525050565b60006020820190506125f860008301846125d4565b92915050565b600080600060608486031215612617576126166124c0565b5b600061262586828701612513565b935050602061263686828701612513565b925050604061264786828701612549565b9150509250925092565b600060ff82169050919050565b61266781612651565b82525050565b6000602082019050612682600083018461265e565b92915050565b6000819050919050565b61269b81612688565b82525050565b60006020820190506126b66000830184612692565b92915050565b600080fd5b6000602082840312156126d7576126d66126bc565b5b81905092915050565b600080604083850312156126f7576126f66124c0565b5b600061270585828601612513565b925050602083013567ffffffffffffffff811115612726576127256124c5565b5b612732858286016126c1565b9150509250929050565b6000819050919050565b600061276161275c61275784612528565b61273c565b612528565b9050919050565b61277181612746565b82525050565b600060208201905061278c6000830184612768565b92915050565b6000604082840312156127a8576127a76126bc565b5b81905092915050565b600080604083850312156127c8576127c76124c0565b5b60006127d685828601612513565b925050602083013567ffffffffffffffff8111156127f7576127f66124c5565b5b61280385828601612792565b9150509250929050565b600080fd5b7f4e487b7100000000000000000000000000000000000000000000000000000000600052604160045260246000fd5b61284a8261244a565b810181811067ffffffffffffffff8211171561286957612868612812565b5b80604052505050565b600061287c6124b6565b90506128888282612841565b919050565b600080fd5b61289b81612688565b81146128a657600080fd5b50565b6000813590506128b881612892565b92915050565b600080fd5b600080fd5b600067ffffffffffffffff8211156128e3576128e2612812565b5b6128ec8261244a565b9050602081019050919050565b82818337600083830152505050565b600061291b612916846128c8565b612872565b905082815260208101848484011115612937576129366128c3565b5b6129428482856128f9565b509392505050565b600082601f83011261295f5761295e6128be565b5b813561296f848260208601612908565b91505092915050565b60006040828403121561298e5761298d61280d565b5b6129986040612872565b905060006129a8848285016128a9565b600083015250602082013567ffffffffffffffff8111156129cc576129cb61288d565b5b6129d88482850161294a565b60208301525092915050565b600080604083850312156129fb576129fa6124c0565b5b6000612a0985828601612513565b925050602083013567ffffffffffffffff811115612a2a57612a296124c5565b5b612a3685828601612978565b9150509250929050565b600063ffffffff82169050919050565b612a5981612a40565b8114612a6457600080fd5b50565b600081359050612a7681612a50565b92915050565b600060208284031215612a9257612a916124c0565b5b6000612aa084828501612a67565b91505092915050565b600060208284031215612abf57612abe6124c0565b5b6000612acd84828501612513565b91505092915050565b60007fff0000000000000000000000000000000000000000000000000000000000000082169050919050565b612b0b81612ad6565b82525050565b612b1a816124ea565b82525050565b600081519050919050565b600082825260208201905092915050565b6000819050602082019050919050565b612b5581612528565b82525050565b6000612b678383612b4c565b60208301905092915050565b6000602082019050919050565b6000612b8b82612b20565b612b958185612b2b565b9350612ba083612b3c565b8060005b83811015612bd1578151612bb88882612b5b565b9750612bc383612b73565b925050600181019050612ba4565b5085935050505092915050565b600060e082019050612bf3600083018a612b02565b8181036020830152612c05818961245b565b90508181036040830152612c19818861245b565b9050612c2860608301876125d4565b612c356080830186612b11565b612c4260a0830185612692565b81810360c0830152612c548184612b80565b905098975050505050505050565b600080600060608486031215612c7b57612c7a6124c0565b5b6000612c8986828701612513565b9350506020612c9a86828701612513565b925050604084013567ffffffffffffffff811115612cbb57612cba6124c5565b5b612cc7868287016126c1565b9150509250925092565b612cda81612528565b8114612ce557600080fd5b50565b600081359050612cf781612cd1565b92915050565b600080600060608486031215612d1657612d156124c0565b5b6000612d2486828701612513565b9350506020612d3586828701612513565b9250506040612d4686828701612ce8565b9150509250925092565b60008060408385031215612d6757612d666124c0565b5b6000612d7585828601612513565b9250506020612d8685828601612ce8565b9150509250929050565b612d9981612651565b8114612da457600080fd5b50565b600081359050612db681612d90565b92915050565b600080600080600080600060e0888a031215612ddb57612dda6124c0565b5b6000612de98a828b01612513565b9750506020612dfa8a828b01612513565b9650506040612e0b8a828b01612549565b9550506060612e1c8a828b01612549565b9450506080612e2d8a828b01612da7565b93505060a0612e3e8a828b016128a9565b92505060c0612e4f8a828b016128a9565b91505092959891949750929550565b60008060408385031215612e7557612e746124c0565b5b6000612e8385828601612513565b9250506020612e9485828601612513565b9150509250929050565b7f4e487b7100000000000000000000000000000000000000000000000000000000600052602260045260246000fd5b60006002820490506001821680612ee557607f821691505b602082108103612ef857612ef7612e9e565b5b50919050565b600060208284031215612f1457612f1361280d565b5b612f1e6020612872565b9050600082013567ffffffffffffffff811115612f3e57612f3d61288d565b5b612f4a8482850161294a565b60008301525092915050565b6000612f623683612efe565b9050919050565b6000612f753683612978565b9050919050565b6000604082019050612f916000830185612692565b612f9e6020830184612692565b9392505050565b600081519050919050565b600082825260208201905092915050565b6000612fcc82612fa5565b612fd68185612fb0565b9350612fe6818560208601612420565b612fef8161244a565b840191505092915050565b600060408201905061300f600083018561265e565b81810360208301526130218184612fc1565b90509392505050565b60008151905061303981612532565b92915050565b600060208284031215613055576130546124c0565b5b60006130638482850161302a565b91505092915050565b60006020820190506130816000830184612b11565b92915050565b7f4e487b7100000000000000000000000000000000000000000000000000000000600052602160045260246000fd5b6000819050919050565b6130d16130cc82612688565b6130b6565b82525050565b60006130e382846130c0565b60208201915081905092915050565b6000606082019050613107600083018661265e565b81810360208301526131198185612fc1565b9050818103604083015261312d8184612fc1565b9050949350505050565b600067ffffffffffffffff82111561315257613151612812565b5b61315b8261244a565b9050602081019050919050565b600061317b61317684613137565b612872565b905082815260208101848484011115613197576131966128c3565b5b6131a2848285612420565b509392505050565b600082601f8301126131bf576131be6128be565b5b81516131cf848260208601613168565b91505092915050565b6000602082840312156131ee576131ed6124c0565b5b600082015167ffffffffffffffff81111561320c5761320b6124c5565b5b613218848285016131aa565b91505092915050565b6000604082019050818103600083015261323b8185612fc1565b905061324a602083018461265e565b9392505050565b600061326461325f846128c8565b612872565b9050828152602081018484840111156132805761327f6128c3565b5b61328b848285612420565b509392505050565b600082601f8301126132a8576132a76128be565b5b81516132b8848260208601613251565b91505092915050565b6000602082840312156132d7576132d66124c0565b5b600082015167ffffffffffffffff8111156132f5576132f46124c5565b5b61330184828501613293565b91505092915050565b600060808201905061331f600083018761265e565b81810360208301526133318186612fc1565b905081810360408301526133458185612fc1565b905081810360608301526133598184612fc1565b905095945050505050565b600060a0820190506133796000830188612692565b6133866020830187612692565b6133936040830186612692565b6133a060608301856125d4565b6133ad6080830184612b11565b9695505050505050565b60006080820190506133cc6000830187612692565b6133d9602083018661265e565b6133e66040830185612692565b6133f36060830184612692565b9594505050505056fea26469706673582212206fbeb8e1ec3f02417977449b5aeaa49948b06e45fb35839779a0eb78b912ebec64736f6c63430008180033",
  "devdoc": {
    "errors": {
      "AllowanceOverflow()": [
        {
          "details": "The allowance has overflowed."
        }
      ],
      "AllowanceUnderflow()": [
        {
          "details": "The allowance has underflowed."
        }
      ],
      "ECDSAInvalidSignature()": [
        {
          "details": "The signature derives the `address(0)`."
        }
      ],
      "ECDSAInvalidSignatureLength(uint256)": [
        {
          "details": "The signature has an invalid length."
        }
      ],
      "ECDSAInvalidSignatureS(bytes32)": [
        {
          "details": "The signature has an S value that is in the upper half order."
        }
      ],
      "InsufficientAllowance()": [
        {
          "details": "Insufficient allowance."
        }
      ],
      "InsufficientBalance()": [
        {
          "details": "Insufficient balance."
        }
      ],
      "InvalidPermit()": [
        {
          "details": "The permit is invalid."
        }
      ],
      "PermitExpired()": [
        {
          "details": "The permit has expired."
        }
      ],
      "TotalSupplyOverflow()": [
        {
          "details": "The total supply has overflowed."
        }
      ]
    },
    "events": {
      "Approval(address,address,uint256)": {
        "details": "Emitted when `amount` tokens is approved by `owner` to be used by `spender`."
      },
      "ApprovalEncrypted(address,address)": {
        "details": "Emitted when the allowance of a `spender` for an `owner` is set by a call to {approveEncrypted}. `value` is the new allowance."
      },
      "EIP712DomainChanged()": {
        "details": "MAY be emitted to signal that the domain could have changed."
      },
      "Transfer(address,address,uint256)": {
        "details": "Emitted when `amount` tokens is transferred from `from` to `to`."
      },
      "TransferEncrypted(address,address)": {
        "details": "Emitted when `value` tokens are moved from one account (`from`) to another (`to`). Note that `value` may be zero."
      }
    },
    "kind": "dev",
    "methods": {
      "DOMAIN_SEPARATOR()": {
        "details": "Returns the EIP-712 domain separator for the EIP-2612 permit."
      },
      "allowance(address,address)": {
        "details": "Returns the amount of tokens that `spender` can spend on behalf of `owner`."
      },
      "allowanceEncrypted(address,(bytes32,bytes))": {
        "details": "Returns the remaining number of tokens that `spender` will be allowed to spend on behalf of `owner` through {transferFrom}. This is zero by default. This value changes when {approve} or {transferFrom} are called."
      },
      "approve(address,uint256)": {
        "details": "Sets `amount` as the allowance of `spender` over the caller's tokens. Emits a {Approval} event."
      },
      "approveEncrypted(address,(bytes))": {
        "details": "Sets a `value` amount of tokens as the allowance of `spender` over the caller's tokens. Returns a boolean value indicating whether the operation succeeded. IMPORTANT: Beware that changing an allowance with this method brings the risk that someone may use both the old and the new allowance by unfortunate transaction ordering. One possible solution to mitigate this race condition is to first reduce the spender's allowance to 0 and set the desired value afterwards: https://github.com/ethereum/EIPs/issues/20#issuecomment-263524729 Emits an {ApprovalEncrypted} event."
      },
      "balanceOf(address)": {
        "details": "Returns the amount of tokens owned by `owner`."
      },
      "balanceOfEncrypted(address,(bytes32,bytes))": {
        "details": "Returns the value of tokens owned by `account`, sealed and encrypted for the caller."
      },
      "decimals()": {
        "details": "Returns the decimals places of the token."
      },
      "eip712Domain()": {
        "details": "See {IERC-5267}."
      },
      "name()": {
        "details": "Returns the name of the token."
      },
      "nonces(address)": {
        "details": "Returns the current nonce for `owner`. This value is used to compute the signature for EIP-2612 permit."
      },
      "permit(address,address,uint256,uint256,uint8,bytes32,bytes32)": {
        "details": "Sets `value` as the allowance of `spender` over the tokens of `owner`, authorized by a signed approval by `owner`. Emits a {Approval} event."
      },
      "symbol()": {
        "details": "Returns the symbol of the token."
      },
      "totalSupply()": {
        "details": "Returns the amount of tokens in existence."
      },
      "transfer(address,uint256)": {
        "details": "Transfer `amount` tokens from the caller to `to`. Requirements: - `from` must at least have `amount`. Emits a {Transfer} event."
      },
      "transferFrom(address,address,uint256)": {
        "details": "Transfers `amount` tokens from `from` to `to`. Note: Does not update the allowance if it is the maximum uint256 value. Requirements: - `from` must at least have `amount`. - The caller must have at least `amount` of allowance to transfer the tokens of `from`. Emits a {Transfer} event."
      },
      "transferFromEncrypted(address,address,(bytes))": {
        "details": "Moves a `value` amount of tokens from `from` to `to` using the allowance mechanism. `value` is then deducted from the caller's allowance. Returns a boolean value indicating whether the operation succeeded. Emits a {TransferEncrypted} event."
      }
    },
    "version": 1
  },
  "userdoc": {
    "errors": {
      "SignerNotMessageSender()": [
        {
          "notice": "Emitted when the signer is not the message sender"
        }
      ],
      "SignerNotOwner()": [
        {
          "notice": "Emitted when the signer is not the specified owner"
        }
      ]
    },
    "kind": "user",
    "methods": {},
    "version": 1
  },
  "storageLayout": {
    "storage": [
      {
        "astId": 16568,
        "contract": "contracts/FakeUSD.sol:FakeUSD",
        "label": "_nameFallback",
        "offset": 0,
        "slot": "0",
        "type": "t_string_storage"
      },
      {
        "astId": 16570,
        "contract": "contracts/FakeUSD.sol:FakeUSD",
        "label": "_versionFallback",
        "offset": 0,
        "slot": "1",
        "type": "t_string_storage"
      },
      {
        "astId": 19966,
        "contract": "contracts/FakeUSD.sol:FakeUSD",
        "label": "_encBalances",
        "offset": 0,
        "slot": "2",
        "type": "t_mapping(t_address,t_userDefinedValueType(euint32)12)"
      },
      {
        "astId": 19973,
        "contract": "contracts/FakeUSD.sol:FakeUSD",
        "label": "_allowed",
        "offset": 0,
        "slot": "3",
        "type": "t_mapping(t_address,t_mapping(t_address,t_userDefinedValueType(euint32)12))"
      },
      {
        "astId": 19980,
        "contract": "contracts/FakeUSD.sol:FakeUSD",
        "label": "totalEncryptedSupply",
        "offset": 0,
        "slot": "4",
        "type": "t_userDefinedValueType(euint32)12"
      },
      {
        "astId": 19982,
        "contract": "contracts/FakeUSD.sol:FakeUSD",
        "label": "_name",
        "offset": 0,
        "slot": "5",
        "type": "t_string_storage"
      },
      {
        "astId": 19984,
        "contract": "contracts/FakeUSD.sol:FakeUSD",
        "label": "_symbol",
        "offset": 0,
        "slot": "6",
        "type": "t_string_storage"
      }
    ],
    "types": {
      "t_address": {
        "encoding": "inplace",
        "label": "address",
        "numberOfBytes": "20"
      },
      "t_mapping(t_address,t_mapping(t_address,t_userDefinedValueType(euint32)12))": {
        "encoding": "mapping",
        "key": "t_address",
        "label": "mapping(address => mapping(address => euint32))",
        "numberOfBytes": "32",
        "value": "t_mapping(t_address,t_userDefinedValueType(euint32)12)"
      },
      "t_mapping(t_address,t_userDefinedValueType(euint32)12)": {
        "encoding": "mapping",
        "key": "t_address",
        "label": "mapping(address => euint32)",
        "numberOfBytes": "32",
        "value": "t_userDefinedValueType(euint32)12"
      },
      "t_string_storage": {
        "encoding": "bytes",
        "label": "string",
        "numberOfBytes": "32"
      },
      "t_userDefinedValueType(euint32)12": {
        "encoding": "inplace",
        "label": "euint32",
        "numberOfBytes": "32"
      }
    }
  }
}