{
  "address": "0x9bAf0ff9d1ccD7119F8fFCF8733b0cFD4BE9cDaF",
  "abi": [
    {
      "inputs": [
        {
          "components": [
            {
              "internalType": "bytes",
              "name": "data",
              "type": "bytes"
            }
          ],
          "internalType": "struct inEuint32",
          "name": "_initialSupply",
          "type": "tuple"
        }
      ],
      "stateMutability": "nonpayable",
      "type": "constructor"
    },
    {
      "inputs": [],
      "name": "AllowanceOverflow",
      "type": "error"
    },
    {
      "inputs": [],
      "name": "AllowanceUnderflow",
      "type": "error"
    },
    {
      "inputs": [],
      "name": "ECDSAInvalidSignature",
      "type": "error"
    },
    {
      "inputs": [
        {
          "internalType": "uint256",
          "name": "length",
          "type": "uint256"
        }
      ],
      "name": "ECDSAInvalidSignatureLength",
      "type": "error"
    },
    {
      "inputs": [
        {
          "internalType": "bytes32",
          "name": "s",
          "type": "bytes32"
        }
      ],
      "name": "ECDSAInvalidSignatureS",
      "type": "error"
    },
    {
      "inputs": [],
      "name": "ErrorInsufficientFunds",
      "type": "error"
    },
    {
      "inputs": [],
      "name": "InsufficientAllowance",
      "type": "error"
    },
    {
      "inputs": [],
      "name": "InsufficientBalance",
      "type": "error"
    },
    {
      "inputs": [],
      "name": "InvalidPermit",
      "type": "error"
    },
    {
      "inputs": [],
      "name": "InvalidShortString",
      "type": "error"
    },
    {
      "inputs": [],
      "name": "PermitExpired",
      "type": "error"
    },
    {
      "inputs": [],
      "name": "SignerNotMessageSender",
      "type": "error"
    },
    {
      "inputs": [],
      "name": "SignerNotOwner",
      "type": "error"
    },
    {
      "inputs": [
        {
          "internalType": "string",
          "name": "str",
          "type": "string"
        }
      ],
      "name": "StringTooLong",
      "type": "error"
    },
    {
      "inputs": [],
      "name": "TotalSupplyOverflow",
      "type": "error"
    },
    {
      "anonymous": false,
      "inputs": [
        {
          "indexed": true,
          "internalType": "address",
          "name": "owner",
          "type": "address"
        },
        {
          "indexed": true,
          "internalType": "address",
          "name": "spender",
          "type": "address"
        },
        {
          "indexed": false,
          "internalType": "uint256",
          "name": "amount",
          "type": "uint256"
        }
      ],
      "name": "Approval",
      "type": "event"
    },
    {
      "anonymous": false,
      "inputs": [
        {
          "indexed": true,
          "internalType": "address",
          "name": "owner",
          "type": "address"
        },
        {
          "indexed": true,
          "internalType": "address",
          "name": "spender",
          "type": "address"
        }
      ],
      "name": "ApprovalEncrypted",
      "type": "event"
    },
    {
      "anonymous": false,
      "inputs": [],
      "name": "EIP712DomainChanged",
      "type": "event"
    },
    {
      "anonymous": false,
      "inputs": [
        {
          "indexed": true,
          "internalType": "address",
          "name": "from",
          "type": "address"
        },
        {
          "indexed": true,
          "internalType": "address",
          "name": "to",
          "type": "address"
        },
        {
          "indexed": false,
          "internalType": "uint256",
          "name": "amount",
          "type": "uint256"
        }
      ],
      "name": "Transfer",
      "type": "event"
    },
    {
      "anonymous": false,
      "inputs": [
        {
          "indexed": true,
          "internalType": "address",
          "name": "from",
          "type": "address"
        },
        {
          "indexed": true,
          "internalType": "address",
          "name": "to",
          "type": "address"
        }
      ],
      "name": "TransferEncrypted",
      "type": "event"
    },
    {
      "inputs": [],
      "name": "DOMAIN_SEPARATOR",
      "outputs": [
        {
          "internalType": "bytes32",
          "name": "result",
          "type": "bytes32"
        }
      ],
      "stateMutability": "view",
      "type": "function"
    },
    {
      "inputs": [
        {
          "internalType": "address",
          "name": "owner",
          "type": "address"
        },
        {
          "internalType": "address",
          "name": "spender",
          "type": "address"
        }
      ],
      "name": "allowance",
      "outputs": [
        {
          "internalType": "uint256",
          "name": "result",
          "type": "uint256"
        }
      ],
      "stateMutability": "view",
      "type": "function"
    },
    {
      "inputs": [
        {
          "internalType": "address",
          "name": "spender",
          "type": "address"
        },
        {
          "components": [
            {
              "internalType": "bytes32",
              "name": "publicKey",
              "type": "bytes32"
            },
            {
              "internalType": "bytes",
              "name": "signature",
              "type": "bytes"
            }
          ],
          "internalType": "struct Permission",
          "name": "permission",
          "type": "tuple"
        }
      ],
      "name": "allowanceEncrypted",
      "outputs": [
        {
          "internalType": "string",
          "name": "",
          "type": "string"
        }
      ],
      "stateMutability": "view",
      "type": "function"
    },
    {
      "inputs": [
        {
          "internalType": "address",
          "name": "spender",
          "type": "address"
        },
        {
          "internalType": "uint256",
          "name": "amount",
          "type": "uint256"
        }
      ],
      "name": "approve",
      "outputs": [
        {
          "internalType": "bool",
          "name": "",
          "type": "bool"
        }
      ],
      "stateMutability": "nonpayable",
      "type": "function"
    },
    {
      "inputs": [
        {
          "internalType": "address",
          "name": "spender",
          "type": "address"
        },
        {
          "components": [
            {
              "internalType": "bytes",
              "name": "data",
              "type": "bytes"
            }
          ],
          "internalType": "struct inEuint32",
          "name": "value",
          "type": "tuple"
        }
      ],
      "name": "approveEncrypted",
      "outputs": [
        {
          "internalType": "bool",
          "name": "",
          "type": "bool"
        }
      ],
      "stateMutability": "nonpayable",
      "type": "function"
    },
    {
      "inputs": [
        {
          "internalType": "address",
          "name": "owner",
          "type": "address"
        }
      ],
      "name": "balanceOf",
      "outputs": [
        {
          "internalType": "uint256",
          "name": "result",
          "type": "uint256"
        }
      ],
      "stateMutability": "view",
      "type": "function"
    },
    {
      "inputs": [
        {
          "internalType": "address",
          "name": "account",
          "type": "address"
        },
        {
          "components": [
            {
              "internalType": "bytes32",
              "name": "publicKey",
              "type": "bytes32"
            },
            {
              "internalType": "bytes",
              "name": "signature",
              "type": "bytes"
            }
          ],
          "internalType": "struct Permission",
          "name": "auth",
          "type": "tuple"
        }
      ],
      "name": "balanceOfEncrypted",
      "outputs": [
        {
          "internalType": "string",
          "name": "",
          "type": "string"
        }
      ],
      "stateMutability": "view",
      "type": "function"
    },
    {
      "inputs": [],
      "name": "decimals",
      "outputs": [
        {
          "internalType": "uint8",
          "name": "",
          "type": "uint8"
        }
      ],
      "stateMutability": "pure",
      "type": "function"
    },
    {
      "inputs": [],
      "name": "eip712Domain",
      "outputs": [
        {
          "internalType": "bytes1",
          "name": "fields",
          "type": "bytes1"
        },
        {
          "internalType": "string",
          "name": "name",
          "type": "string"
        },
        {
          "internalType": "string",
          "name": "version",
          "type": "string"
        },
        {
          "internalType": "uint256",
          "name": "chainId",
          "type": "uint256"
        },
        {
          "internalType": "address",
          "name": "verifyingContract",
          "type": "address"
        },
        {
          "internalType": "bytes32",
          "name": "salt",
          "type": "bytes32"
        },
        {
          "internalType": "uint256[]",
          "name": "extensions",
          "type": "uint256[]"
        }
      ],
      "stateMutability": "view",
      "type": "function"
    },
    {
      "inputs": [],
      "name": "name",
      "outputs": [
        {
          "internalType": "string",
          "name": "",
          "type": "string"
        }
      ],
      "stateMutability": "view",
      "type": "function"
    },
    {
      "inputs": [
        {
          "internalType": "address",
          "name": "owner",
          "type": "address"
        }
      ],
      "name": "nonces",
      "outputs": [
        {
          "internalType": "uint256",
          "name": "result",
          "type": "uint256"
        }
      ],
      "stateMutability": "view",
      "type": "function"
    },
    {
      "inputs": [
        {
          "internalType": "address",
          "name": "owner",
          "type": "address"
        },
        {
          "internalType": "address",
          "name": "spender",
          "type": "address"
        },
        {
          "internalType": "uint256",
          "name": "value",
          "type": "uint256"
        },
        {
          "internalType": "uint256",
          "name": "deadline",
          "type": "uint256"
        },
        {
          "internalType": "uint8",
          "name": "v",
          "type": "uint8"
        },
        {
          "internalType": "bytes32",
          "name": "r",
          "type": "bytes32"
        },
        {
          "internalType": "bytes32",
          "name": "s",
          "type": "bytes32"
        }
      ],
      "name": "permit",
      "outputs": [],
      "stateMutability": "nonpayable",
      "type": "function"
    },
    {
      "inputs": [],
      "name": "symbol",
      "outputs": [
        {
          "internalType": "string",
          "name": "",
          "type": "string"
        }
      ],
      "stateMutability": "view",
      "type": "function"
    },
    {
      "inputs": [],
      "name": "totalSupply",
      "outputs": [
        {
          "internalType": "uint256",
          "name": "result",
          "type": "uint256"
        }
      ],
      "stateMutability": "view",
      "type": "function"
    },
    {
      "inputs": [
        {
          "internalType": "address",
          "name": "to",
          "type": "address"
        },
        {
          "internalType": "uint256",
          "name": "amount",
          "type": "uint256"
        }
      ],
      "name": "transfer",
      "outputs": [
        {
          "internalType": "bool",
          "name": "",
          "type": "bool"
        }
      ],
      "stateMutability": "nonpayable",
      "type": "function"
    },
    {
      "inputs": [
        {
          "internalType": "address",
          "name": "to",
          "type": "address"
        },
        {
          "components": [
            {
              "internalType": "bytes",
              "name": "data",
              "type": "bytes"
            }
          ],
          "internalType": "struct inEuint32",
          "name": "encryptedAmount",
          "type": "tuple"
        }
      ],
      "name": "transferEncrypted",
      "outputs": [
        {
          "internalType": "euint32",
          "name": "",
          "type": "uint256"
        }
      ],
      "stateMutability": "nonpayable",
      "type": "function"
    },
    {
      "inputs": [
        {
          "internalType": "address",
          "name": "to",
          "type": "address"
        },
        {
          "internalType": "euint32",
          "name": "amount",
          "type": "uint256"
        }
      ],
      "name": "transferEncrypted",
      "outputs": [
        {
          "internalType": "euint32",
          "name": "",
          "type": "uint256"
        }
      ],
      "stateMutability": "nonpayable",
      "type": "function"
    },
    {
      "inputs": [
        {
          "internalType": "address",
          "name": "from",
          "type": "address"
        },
        {
          "internalType": "address",
          "name": "to",
          "type": "address"
        },
        {
          "internalType": "uint256",
          "name": "amount",
          "type": "uint256"
        }
      ],
      "name": "transferFrom",
      "outputs": [
        {
          "internalType": "bool",
          "name": "",
          "type": "bool"
        }
      ],
      "stateMutability": "nonpayable",
      "type": "function"
    },
    {
      "inputs": [
        {
          "internalType": "address",
          "name": "from",
          "type": "address"
        },
        {
          "internalType": "address",
          "name": "to",
          "type": "address"
        },
        {
          "components": [
            {
              "internalType": "bytes",
              "name": "data",
              "type": "bytes"
            }
          ],
          "internalType": "struct inEuint32",
          "name": "value",
          "type": "tuple"
        }
      ],
      "name": "transferFromEncrypted",
      "outputs": [
        {
          "internalType": "euint32",
          "name": "",
          "type": "uint256"
        }
      ],
      "stateMutability": "nonpayable",
      "type": "function"
    },
    {
      "inputs": [
        {
          "internalType": "address",
          "name": "from",
          "type": "address"
        },
        {
          "internalType": "address",
          "name": "to",
          "type": "address"
        },
        {
          "internalType": "euint32",
          "name": "value",
          "type": "uint256"
        }
      ],
      "name": "transferFromEncrypted",
      "outputs": [
        {
          "internalType": "euint32",
          "name": "",
          "type": "uint256"
        }
      ],
      "stateMutability": "nonpayable",
      "type": "function"
    },
    {
      "inputs": [
        {
          "internalType": "uint32",
          "name": "amount",
          "type": "uint32"
        }
      ],
      "name": "unwrap",
      "outputs": [],
      "stateMutability": "nonpayable",
      "type": "function"
    },
    {
      "inputs": [
        {
          "internalType": "uint32",
          "name": "amount",
          "type": "uint32"
        }
      ],
      "name": "wrap",
      "outputs": [],
      "stateMutability": "nonpayable",
      "type": "function"
    }
  ],
  "transactionHash": "0x0b3d0eca386ed16a7871ced15fe86dfc5fe30120d103d0c5b668145ae2853413",
  "args": [
    {
      "data": {
        "0": 16,
        "1": 8,
        "2": 0,
        "3": 0,
        "4": 0,
        "5": 0,
        "6": 0,
        "7": 0,
        "8": 101,
        "9": 47,
        "10": 230,
        "11": 14,
        "12": 51,
        "13": 61,
        "14": 41,
        "15": 16,
        "16": 170,
        "17": 133,
        "18": 62,
        "19": 216,
        "20": 121,
        "21": 19,
        "22": 109,
        "23": 158,
        "24": 153,
        "25": 75,
        "26": 23,
        "27": 65,
        "28": 34,
        "29": 94,
        "30": 99,
        "31": 45,
        "32": 225,
        "33": 98,
        "34": 178,
        "35": 170,
        "36": 49,
        "37": 184,
        "38": 80,
        "39": 160,
        "40": 128,
        "41": 222,
        "42": 116,
        "43": 39,
        "44": 38,
        "45": 119,
        "46": 96,
        "47": 184,
        "48": 163,
        "49": 8,
        "50": 138,
        "51": 18,
        "52": 201,
        "53": 48,
        "54": 136,
        "55": 224,
        "56": 181,
        "57": 4,
        "58": 36,
        "59": 18,
        "60": 177,
        "61": 46,
        "62": 127,
        "63": 136,
        "64": 196,
        "65": 84,
        "66": 62,
        "67": 209,
        "68": 99,
        "69": 49,
        "70": 163,
        "71": 93,
        "72": 179,
        "73": 129,
        "74": 146,
        "75": 103,
        "76": 136,
        "77": 215,
        "78": 63,
        "79": 105,
        "80": 221,
        "81": 124,
        "82": 38,
        "83": 53,
        "84": 194,
        "85": 251,
        "86": 161,
        "87": 99,
        "88": 38,
        "89": 106,
        "90": 112,
        "91": 92,
        "92": 97,
        "93": 182,
        "94": 156,
        "95": 64,
        "96": 208,
        "97": 233,
        "98": 19,
        "99": 86,
        "100": 88,
        "101": 213,
        "102": 221,
        "103": 72,
        "104": 67,
        "105": 106,
        "106": 118,
        "107": 143,
        "108": 64,
        "109": 74,
        "110": 112,
        "111": 241,
        "112": 86,
        "113": 122,
        "114": 112,
        "115": 236,
        "116": 125,
        "117": 221,
        "118": 185,
        "119": 30,
        "120": 166,
        "121": 170,
        "122": 222,
        "123": 26,
        "124": 104,
        "125": 40,
        "126": 142,
        "127": 186,
        "128": 176,
        "129": 146,
        "130": 3,
        "131": 194,
        "132": 126,
        "133": 93,
        "134": 215,
        "135": 90,
        "136": 105,
        "137": 242,
        "138": 219,
        "139": 28,
        "140": 145,
        "141": 89,
        "142": 223,
        "143": 98,
        "144": 73,
        "145": 220,
        "146": 187,
        "147": 32,
        "148": 109,
        "149": 32,
        "150": 59,
        "151": 51,
        "152": 178,
        "153": 145,
        "154": 62,
        "155": 33,
        "156": 101,
        "157": 123,
        "158": 212,
        "159": 62,
        "160": 83,
        "161": 57,
        "162": 36,
        "163": 228,
        "164": 179,
        "165": 59,
        "166": 129,
        "167": 70,
        "168": 151,
        "169": 154,
        "170": 162,
        "171": 185,
        "172": 23,
        "173": 218,
        "174": 134,
        "175": 172,
        "176": 124,
        "177": 191,
        "178": 192,
        "179": 53,
        "180": 23,
        "181": 143,
        "182": 141,
        "183": 45,
        "184": 61,
        "185": 249,
        "186": 76,
        "187": 158,
        "188": 114,
        "189": 173,
        "190": 43,
        "191": 93,
        "192": 252,
        "193": 185,
        "194": 82,
        "195": 246,
        "196": 145,
        "197": 217,
        "198": 172,
        "199": 7,
        "200": 156,
        "201": 150,
        "202": 238,
        "203": 9,
        "204": 20,
        "205": 184,
        "206": 52,
        "207": 136,
        "208": 91,
        "209": 180,
        "210": 255,
        "211": 68,
        "212": 211,
        "213": 171,
        "214": 227,
        "215": 63,
        "216": 140,
        "217": 71,
        "218": 222,
        "219": 164,
        "220": 89,
        "221": 155,
        "222": 33,
        "223": 50,
        "224": 169,
        "225": 227,
        "226": 211,
        "227": 9,
        "228": 39,
        "229": 40,
        "230": 49,
        "231": 222,
        "232": 141,
        "233": 207,
        "234": 16,
        "235": 84,
        "236": 152,
        "237": 111,
        "238": 103,
        "239": 161,
        "240": 54,
        "241": 241,
        "242": 64,
        "243": 118,
        "244": 78,
        "245": 202,
        "246": 172,
        "247": 97,
        "248": 128,
        "249": 59,
        "250": 251,
        "251": 169,
        "252": 253,
        "253": 230,
        "254": 196,
        "255": 180,
        "256": 255,
        "257": 34,
        "258": 94,
        "259": 6,
        "260": 49,
        "261": 24,
        "262": 84,
        "263": 124,
        "264": 148,
        "265": 132,
        "266": 8,
        "267": 150,
        "268": 155,
        "269": 223,
        "270": 39,
        "271": 165,
        "272": 195,
        "273": 102,
        "274": 100,
        "275": 100,
        "276": 229,
        "277": 92,
        "278": 89,
        "279": 186,
        "280": 144,
        "281": 133,
        "282": 92,
        "283": 3,
        "284": 72,
        "285": 169,
        "286": 85,
        "287": 158,
        "288": 200,
        "289": 207,
        "290": 49,
        "291": 46,
        "292": 28,
        "293": 227,
        "294": 159,
        "295": 156,
        "296": 150,
        "297": 229,
        "298": 230,
        "299": 116,
        "300": 193,
        "301": 204,
        "302": 21,
        "303": 41,
        "304": 21,
        "305": 41,
        "306": 71,
        "307": 85,
        "308": 108,
        "309": 123,
        "310": 166,
        "311": 255,
        "312": 237,
        "313": 0,
        "314": 8,
        "315": 118,
        "316": 77,
        "317": 156,
        "318": 204,
        "319": 224,
        "320": 64,
        "321": 75,
        "322": 189,
        "323": 30,
        "324": 189,
        "325": 210,
        "326": 111,
        "327": 43,
        "328": 172,
        "329": 107,
        "330": 151,
        "331": 242,
        "332": 47,
        "333": 2,
        "334": 16,
        "335": 140,
        "336": 104,
        "337": 70,
        "338": 239,
        "339": 234,
        "340": 134,
        "341": 135,
        "342": 135,
        "343": 19,
        "344": 101,
        "345": 231,
        "346": 115,
        "347": 159,
        "348": 167,
        "349": 184,
        "350": 36,
        "351": 6,
        "352": 14,
        "353": 30,
        "354": 82,
        "355": 46,
        "356": 56,
        "357": 79,
        "358": 114,
        "359": 186,
        "360": 56,
        "361": 111,
        "362": 67,
        "363": 103,
        "364": 249,
        "365": 15,
        "366": 102,
        "367": 208,
        "368": 43,
        "369": 180,
        "370": 110,
        "371": 122,
        "372": 176,
        "373": 252,
        "374": 3,
        "375": 99,
        "376": 234,
        "377": 177,
        "378": 216,
        "379": 126,
        "380": 100,
        "381": 43,
        "382": 132,
        "383": 220,
        "384": 21,
        "385": 215,
        "386": 186,
        "387": 212,
        "388": 14,
        "389": 207,
        "390": 168,
        "391": 109,
        "392": 244,
        "393": 38,
        "394": 126,
        "395": 155,
        "396": 194,
        "397": 59,
        "398": 84,
        "399": 196,
        "400": 78,
        "401": 167,
        "402": 103,
        "403": 227,
        "404": 6,
        "405": 231,
        "406": 115,
        "407": 84,
        "408": 161,
        "409": 169,
        "410": 183,
        "411": 173,
        "412": 167,
        "413": 155,
        "414": 226,
        "415": 118,
        "416": 96,
        "417": 236,
        "418": 167,
        "419": 181,
        "420": 238,
        "421": 47,
        "422": 44,
        "423": 204,
        "424": 34,
        "425": 219,
        "426": 213,
        "427": 14,
        "428": 28,
        "429": 203,
        "430": 199,
        "431": 50,
        "432": 2,
        "433": 112,
        "434": 202,
        "435": 198,
        "436": 86,
        "437": 128,
        "438": 122,
        "439": 127,
        "440": 248,
        "441": 153,
        "442": 100,
        "443": 159,
        "444": 234,
        "445": 36,
        "446": 115,
        "447": 212,
        "448": 152,
        "449": 131,
        "450": 237,
        "451": 255,
        "452": 47,
        "453": 99,
        "454": 125,
        "455": 162,
        "456": 33,
        "457": 36,
        "458": 80,
        "459": 9,
        "460": 24,
        "461": 64,
        "462": 199,
        "463": 136,
        "464": 43,
        "465": 172,
        "466": 96,
        "467": 252,
        "468": 197,
        "469": 115,
        "470": 103,
        "471": 5,
        "472": 71,
        "473": 106,
        "474": 240,
        "475": 83,
        "476": 176,
        "477": 89,
        "478": 162,
        "479": 79,
        "480": 7,
        "481": 151,
        "482": 240,
        "483": 251,
        "484": 224,
        "485": 228,
        "486": 66,
        "487": 235,
        "488": 119,
        "489": 139,
        "490": 92,
        "491": 174,
        "492": 144,
        "493": 59,
        "494": 111,
        "495": 142,
        "496": 198,
        "497": 211,
        "498": 162,
        "499": 122,
        "500": 19,
        "501": 73,
        "502": 223,
        "503": 71,
        "504": 53,
        "505": 234,
        "506": 90,
        "507": 23,
        "508": 226,
        "509": 249,
        "510": 190,
        "511": 138,
        "512": 124,
        "513": 192,
        "514": 97,
        "515": 243,
        "516": 241,
        "517": 77,
        "518": 153,
        "519": 39,
        "520": 156,
        "521": 160,
        "522": 94,
        "523": 157,
        "524": 185,
        "525": 85,
        "526": 246,
        "527": 76,
        "528": 8,
        "529": 115,
        "530": 37,
        "531": 146,
        "532": 207,
        "533": 125,
        "534": 199,
        "535": 18,
        "536": 106,
        "537": 46,
        "538": 210,
        "539": 98,
        "540": 21,
        "541": 136,
        "542": 168,
        "543": 186,
        "544": 163,
        "545": 87,
        "546": 180,
        "547": 80,
        "548": 3,
        "549": 54,
        "550": 107,
        "551": 254,
        "552": 168,
        "553": 7,
        "554": 152,
        "555": 131,
        "556": 164,
        "557": 17,
        "558": 163,
        "559": 190,
        "560": 216,
        "561": 82,
        "562": 131,
        "563": 78,
        "564": 126,
        "565": 155,
        "566": 199,
        "567": 147,
        "568": 209,
        "569": 52,
        "570": 39,
        "571": 187,
        "572": 73,
        "573": 25,
        "574": 204,
        "575": 191,
        "576": 60,
        "577": 200,
        "578": 93,
        "579": 217,
        "580": 229,
        "581": 1,
        "582": 33,
        "583": 53,
        "584": 82,
        "585": 150,
        "586": 180,
        "587": 246,
        "588": 179,
        "589": 64,
        "590": 112,
        "591": 155,
        "592": 69,
        "593": 216,
        "594": 80,
        "595": 209,
        "596": 197,
        "597": 197,
        "598": 225,
        "599": 103,
        "600": 193,
        "601": 30,
        "602": 45,
        "603": 42,
        "604": 167,
        "605": 46,
        "606": 220,
        "607": 117,
        "608": 141,
        "609": 19,
        "610": 65,
        "611": 95,
        "612": 202,
        "613": 236,
        "614": 225,
        "615": 181,
        "616": 25,
        "617": 22,
        "618": 145,
        "619": 225,
        "620": 234,
        "621": 43,
        "622": 16,
        "623": 30,
        "624": 126,
        "625": 96,
        "626": 113,
        "627": 90,
        "628": 5,
        "629": 190,
        "630": 251,
        "631": 247,
        "632": 85,
        "633": 2,
        "634": 54,
        "635": 39,
        "636": 254,
        "637": 235,
        "638": 191,
        "639": 143,
        "640": 167,
        "641": 53,
        "642": 19,
        "643": 59,
        "644": 157,
        "645": 183,
        "646": 1,
        "647": 173,
        "648": 39,
        "649": 89,
        "650": 214,
        "651": 174,
        "652": 32,
        "653": 195,
        "654": 178,
        "655": 244,
        "656": 160,
        "657": 232,
        "658": 230,
        "659": 165,
        "660": 12,
        "661": 14,
        "662": 234,
        "663": 179,
        "664": 25,
        "665": 26,
        "666": 224,
        "667": 163,
        "668": 118,
        "669": 220,
        "670": 181,
        "671": 236,
        "672": 227,
        "673": 202,
        "674": 208,
        "675": 239,
        "676": 34,
        "677": 64,
        "678": 81,
        "679": 19,
        "680": 220,
        "681": 72,
        "682": 206,
        "683": 151,
        "684": 120,
        "685": 211,
        "686": 111,
        "687": 206,
        "688": 223,
        "689": 130,
        "690": 123,
        "691": 42,
        "692": 122,
        "693": 6,
        "694": 87,
        "695": 20,
        "696": 144,
        "697": 236,
        "698": 223,
        "699": 99,
        "700": 147,
        "701": 120,
        "702": 24,
        "703": 107,
        "704": 4,
        "705": 49,
        "706": 224,
        "707": 253,
        "708": 108,
        "709": 182,
        "710": 7,
        "711": 169,
        "712": 56,
        "713": 70,
        "714": 57,
        "715": 200,
        "716": 109,
        "717": 69,
        "718": 141,
        "719": 77,
        "720": 180,
        "721": 69,
        "722": 211,
        "723": 148,
        "724": 79,
        "725": 191,
        "726": 195,
        "727": 192,
        "728": 39,
        "729": 179,
        "730": 190,
        "731": 145,
        "732": 203,
        "733": 201,
        "734": 235,
        "735": 62,
        "736": 176,
        "737": 66,
        "738": 78,
        "739": 117,
        "740": 97,
        "741": 246,
        "742": 83,
        "743": 87,
        "744": 250,
        "745": 79,
        "746": 238,
        "747": 102,
        "748": 85,
        "749": 111,
        "750": 146,
        "751": 59,
        "752": 88,
        "753": 197,
        "754": 101,
        "755": 32,
        "756": 97,
        "757": 143,
        "758": 232,
        "759": 95,
        "760": 54,
        "761": 137,
        "762": 67,
        "763": 29,
        "764": 136,
        "765": 115,
        "766": 149,
        "767": 123,
        "768": 171,
        "769": 81,
        "770": 13,
        "771": 152,
        "772": 43,
        "773": 128,
        "774": 31,
        "775": 113,
        "776": 68,
        "777": 113,
        "778": 43,
        "779": 203,
        "780": 48,
        "781": 129,
        "782": 14,
        "783": 228,
        "784": 126,
        "785": 46,
        "786": 70,
        "787": 21,
        "788": 151,
        "789": 147,
        "790": 38,
        "791": 17,
        "792": 200,
        "793": 27,
        "794": 122,
        "795": 66,
        "796": 84,
        "797": 169,
        "798": 233,
        "799": 241,
        "800": 8,
        "801": 218,
        "802": 228,
        "803": 4,
        "804": 149,
        "805": 94,
        "806": 201,
        "807": 71,
        "808": 179,
        "809": 75,
        "810": 225,
        "811": 18,
        "812": 202,
        "813": 83,
        "814": 168,
        "815": 32,
        "816": 131,
        "817": 49,
        "818": 162,
        "819": 168,
        "820": 19,
        "821": 182,
        "822": 84,
        "823": 118,
        "824": 193,
        "825": 82,
        "826": 112,
        "827": 31,
        "828": 18,
        "829": 253,
        "830": 19,
        "831": 38,
        "832": 127,
        "833": 65,
        "834": 98,
        "835": 164,
        "836": 226,
        "837": 64,
        "838": 82,
        "839": 236,
        "840": 253,
        "841": 68,
        "842": 97,
        "843": 200,
        "844": 42,
        "845": 233,
        "846": 68,
        "847": 66,
        "848": 220,
        "849": 140,
        "850": 245,
        "851": 29,
        "852": 40,
        "853": 19,
        "854": 67,
        "855": 249,
        "856": 172,
        "857": 133,
        "858": 21,
        "859": 211,
        "860": 218,
        "861": 212,
        "862": 108,
        "863": 141,
        "864": 135,
        "865": 151,
        "866": 16,
        "867": 238,
        "868": 106,
        "869": 231,
        "870": 110,
        "871": 174,
        "872": 149,
        "873": 84,
        "874": 138,
        "875": 198,
        "876": 31,
        "877": 203,
        "878": 127,
        "879": 224,
        "880": 156,
        "881": 162,
        "882": 127,
        "883": 194,
        "884": 182,
        "885": 58,
        "886": 43,
        "887": 75,
        "888": 20,
        "889": 185,
        "890": 250,
        "891": 44,
        "892": 69,
        "893": 10,
        "894": 107,
        "895": 148,
        "896": 241,
        "897": 237,
        "898": 194,
        "899": 81,
        "900": 70,
        "901": 243,
        "902": 5,
        "903": 187,
        "904": 9,
        "905": 62,
        "906": 107,
        "907": 157,
        "908": 52,
        "909": 125,
        "910": 61,
        "911": 80,
        "912": 192,
        "913": 42,
        "914": 122,
        "915": 87,
        "916": 79,
        "917": 142,
        "918": 216,
        "919": 20,
        "920": 97,
        "921": 218,
        "922": 9,
        "923": 178,
        "924": 148,
        "925": 135,
        "926": 203,
        "927": 202,
        "928": 241,
        "929": 8,
        "930": 134,
        "931": 252,
        "932": 213,
        "933": 14,
        "934": 88,
        "935": 109,
        "936": 104,
        "937": 209,
        "938": 168,
        "939": 201,
        "940": 11,
        "941": 249,
        "942": 12,
        "943": 50,
        "944": 253,
        "945": 27,
        "946": 187,
        "947": 249,
        "948": 189,
        "949": 216,
        "950": 133,
        "951": 36,
        "952": 181,
        "953": 206,
        "954": 84,
        "955": 39,
        "956": 93,
        "957": 163,
        "958": 168,
        "959": 50,
        "960": 155,
        "961": 103,
        "962": 63,
        "963": 166,
        "964": 12,
        "965": 73,
        "966": 237,
        "967": 141,
        "968": 192,
        "969": 196,
        "970": 116,
        "971": 80,
        "972": 172,
        "973": 39,
        "974": 200,
        "975": 143,
        "976": 233,
        "977": 223,
        "978": 208,
        "979": 180,
        "980": 51,
        "981": 132,
        "982": 61,
        "983": 147,
        "984": 115,
        "985": 33,
        "986": 146,
        "987": 28,
        "988": 229,
        "989": 57,
        "990": 119,
        "991": 69,
        "992": 237,
        "993": 23,
        "994": 51,
        "995": 119,
        "996": 202,
        "997": 109,
        "998": 54,
        "999": 209,
        "1000": 46,
        "1001": 109,
        "1002": 252,
        "1003": 72,
        "1004": 228,
        "1005": 174,
        "1006": 78,
        "1007": 156,
        "1008": 103,
        "1009": 136,
        "1010": 50,
        "1011": 100,
        "1012": 29,
        "1013": 239,
        "1014": 249,
        "1015": 188,
        "1016": 223,
        "1017": 186,
        "1018": 118,
        "1019": 7,
        "1020": 40,
        "1021": 209,
        "1022": 226,
        "1023": 239,
        "1024": 246,
        "1025": 138,
        "1026": 35,
        "1027": 160,
        "1028": 101,
        "1029": 45,
        "1030": 33,
        "1031": 186,
        "1032": 24,
        "1033": 40,
        "1034": 247,
        "1035": 37,
        "1036": 155,
        "1037": 181,
        "1038": 98,
        "1039": 205,
        "1040": 221,
        "1041": 42,
        "1042": 214,
        "1043": 228,
        "1044": 155,
        "1045": 75,
        "1046": 131,
        "1047": 10,
        "1048": 29,
        "1049": 65,
        "1050": 129,
        "1051": 68,
        "1052": 217,
        "1053": 141,
        "1054": 35,
        "1055": 188,
        "1056": 88,
        "1057": 168,
        "1058": 98,
        "1059": 28,
        "1060": 110,
        "1061": 137,
        "1062": 72,
        "1063": 120,
        "1064": 245,
        "1065": 174,
        "1066": 31,
        "1067": 110,
        "1068": 67,
        "1069": 219,
        "1070": 76,
        "1071": 233,
        "1072": 232,
        "1073": 235,
        "1074": 187,
        "1075": 72,
        "1076": 250,
        "1077": 63,
        "1078": 24,
        "1079": 5,
        "1080": 154,
        "1081": 212,
        "1082": 175,
        "1083": 26,
        "1084": 114,
        "1085": 78,
        "1086": 152,
        "1087": 20,
        "1088": 47,
        "1089": 20,
        "1090": 69,
        "1091": 36,
        "1092": 66,
        "1093": 125,
        "1094": 69,
        "1095": 230,
        "1096": 37,
        "1097": 146,
        "1098": 221,
        "1099": 105,
        "1100": 238,
        "1101": 194,
        "1102": 160,
        "1103": 244,
        "1104": 225,
        "1105": 110,
        "1106": 191,
        "1107": 6,
        "1108": 238,
        "1109": 214,
        "1110": 9,
        "1111": 198,
        "1112": 81,
        "1113": 37,
        "1114": 246,
        "1115": 98,
        "1116": 97,
        "1117": 169,
        "1118": 168,
        "1119": 34,
        "1120": 86,
        "1121": 204,
        "1122": 87,
        "1123": 174,
        "1124": 36,
        "1125": 72,
        "1126": 99,
        "1127": 134,
        "1128": 84,
        "1129": 175,
        "1130": 214,
        "1131": 112,
        "1132": 117,
        "1133": 180,
        "1134": 48,
        "1135": 161,
        "1136": 65,
        "1137": 65,
        "1138": 135,
        "1139": 69,
        "1140": 40,
        "1141": 2,
        "1142": 93,
        "1143": 109,
        "1144": 143,
        "1145": 83,
        "1146": 166,
        "1147": 86,
        "1148": 238,
        "1149": 125,
        "1150": 7,
        "1151": 34,
        "1152": 196,
        "1153": 158,
        "1154": 129,
        "1155": 136,
        "1156": 9,
        "1157": 17,
        "1158": 132,
        "1159": 131,
        "1160": 187,
        "1161": 108,
        "1162": 120,
        "1163": 22,
        "1164": 74,
        "1165": 202,
        "1166": 75,
        "1167": 165,
        "1168": 158,
        "1169": 91,
        "1170": 50,
        "1171": 216,
        "1172": 233,
        "1173": 174,
        "1174": 113,
        "1175": 202,
        "1176": 189,
        "1177": 131,
        "1178": 96,
        "1179": 110,
        "1180": 231,
        "1181": 213,
        "1182": 200,
        "1183": 221,
        "1184": 16,
        "1185": 47,
        "1186": 236,
        "1187": 17,
        "1188": 110,
        "1189": 143,
        "1190": 111,
        "1191": 165,
        "1192": 238,
        "1193": 95,
        "1194": 155,
        "1195": 90,
        "1196": 168,
        "1197": 92,
        "1198": 115,
        "1199": 160,
        "1200": 132,
        "1201": 221,
        "1202": 127,
        "1203": 51,
        "1204": 229,
        "1205": 254,
        "1206": 49,
        "1207": 106,
        "1208": 22,
        "1209": 76,
        "1210": 72,
        "1211": 36,
        "1212": 106,
        "1213": 187,
        "1214": 20,
        "1215": 173,
        "1216": 198,
        "1217": 99,
        "1218": 167,
        "1219": 171,
        "1220": 0,
        "1221": 133,
        "1222": 116,
        "1223": 100,
        "1224": 235,
        "1225": 127,
        "1226": 31,
        "1227": 149,
        "1228": 23,
        "1229": 21,
        "1230": 236,
        "1231": 177,
        "1232": 122,
        "1233": 15,
        "1234": 83,
        "1235": 230,
        "1236": 210,
        "1237": 189,
        "1238": 178,
        "1239": 18,
        "1240": 33,
        "1241": 166,
        "1242": 242,
        "1243": 189,
        "1244": 186,
        "1245": 179,
        "1246": 5,
        "1247": 148,
        "1248": 67,
        "1249": 121,
        "1250": 54,
        "1251": 190,
        "1252": 191,
        "1253": 7,
        "1254": 146,
        "1255": 162,
        "1256": 194,
        "1257": 26,
        "1258": 58,
        "1259": 198,
        "1260": 19,
        "1261": 201,
        "1262": 198,
        "1263": 57,
        "1264": 93,
        "1265": 166,
        "1266": 130,
        "1267": 224,
        "1268": 132,
        "1269": 91,
        "1270": 125,
        "1271": 179,
        "1272": 222,
        "1273": 211,
        "1274": 246,
        "1275": 251,
        "1276": 110,
        "1277": 195,
        "1278": 38,
        "1279": 141,
        "1280": 93,
        "1281": 218,
        "1282": 121,
        "1283": 176,
        "1284": 22,
        "1285": 105,
        "1286": 62,
        "1287": 188,
        "1288": 31,
        "1289": 116,
        "1290": 246,
        "1291": 44,
        "1292": 237,
        "1293": 151,
        "1294": 173,
        "1295": 121,
        "1296": 171,
        "1297": 216,
        "1298": 118,
        "1299": 112,
        "1300": 201,
        "1301": 80,
        "1302": 220,
        "1303": 156,
        "1304": 81,
        "1305": 136,
        "1306": 29,
        "1307": 225,
        "1308": 73,
        "1309": 85,
        "1310": 242,
        "1311": 35,
        "1312": 186,
        "1313": 219,
        "1314": 38,
        "1315": 54,
        "1316": 55,
        "1317": 36,
        "1318": 31,
        "1319": 70,
        "1320": 140,
        "1321": 173,
        "1322": 197,
        "1323": 160,
        "1324": 12,
        "1325": 179,
        "1326": 160,
        "1327": 253,
        "1328": 144,
        "1329": 187,
        "1330": 71,
        "1331": 44,
        "1332": 186,
        "1333": 2,
        "1334": 115,
        "1335": 14,
        "1336": 45,
        "1337": 91,
        "1338": 191,
        "1339": 128,
        "1340": 149,
        "1341": 230,
        "1342": 74,
        "1343": 82,
        "1344": 120,
        "1345": 219,
        "1346": 65,
        "1347": 71,
        "1348": 192,
        "1349": 180,
        "1350": 91,
        "1351": 240,
        "1352": 214,
        "1353": 143,
        "1354": 206,
        "1355": 4,
        "1356": 181,
        "1357": 171,
        "1358": 192,
        "1359": 158,
        "1360": 125,
        "1361": 247,
        "1362": 133,
        "1363": 26,
        "1364": 156,
        "1365": 66,
        "1366": 231,
        "1367": 184,
        "1368": 250,
        "1369": 34,
        "1370": 24,
        "1371": 40,
        "1372": 26,
        "1373": 46,
        "1374": 148,
        "1375": 80,
        "1376": 70,
        "1377": 243,
        "1378": 182,
        "1379": 95,
        "1380": 41,
        "1381": 124,
        "1382": 7,
        "1383": 179,
        "1384": 213,
        "1385": 145,
        "1386": 75,
        "1387": 2,
        "1388": 185,
        "1389": 92,
        "1390": 165,
        "1391": 66,
        "1392": 138,
        "1393": 207,
        "1394": 253,
        "1395": 251,
        "1396": 87,
        "1397": 6,
        "1398": 187,
        "1399": 84,
        "1400": 51,
        "1401": 94,
        "1402": 54,
        "1403": 13,
        "1404": 13,
        "1405": 175,
        "1406": 118,
        "1407": 107,
        "1408": 164,
        "1409": 72,
        "1410": 230,
        "1411": 20,
        "1412": 69,
        "1413": 137,
        "1414": 236,
        "1415": 121,
        "1416": 101,
        "1417": 48,
        "1418": 63,
        "1419": 249,
        "1420": 147,
        "1421": 161,
        "1422": 63,
        "1423": 166,
        "1424": 211,
        "1425": 239,
        "1426": 241,
        "1427": 170,
        "1428": 15,
        "1429": 55,
        "1430": 101,
        "1431": 116,
        "1432": 227,
        "1433": 42,
        "1434": 49,
        "1435": 188,
        "1436": 161,
        "1437": 65,
        "1438": 92,
        "1439": 169,
        "1440": 106,
        "1441": 67,
        "1442": 182,
        "1443": 176,
        "1444": 72,
        "1445": 135,
        "1446": 183,
        "1447": 30,
        "1448": 192,
        "1449": 251,
        "1450": 52,
        "1451": 147,
        "1452": 48,
        "1453": 119,
        "1454": 92,
        "1455": 65,
        "1456": 127,
        "1457": 129,
        "1458": 172,
        "1459": 197,
        "1460": 203,
        "1461": 69,
        "1462": 206,
        "1463": 7,
        "1464": 181,
        "1465": 146,
        "1466": 123,
        "1467": 219,
        "1468": 232,
        "1469": 160,
        "1470": 17,
        "1471": 145,
        "1472": 160,
        "1473": 56,
        "1474": 252,
        "1475": 7,
        "1476": 234,
        "1477": 8,
        "1478": 215,
        "1479": 42,
        "1480": 244,
        "1481": 140,
        "1482": 33,
        "1483": 190,
        "1484": 22,
        "1485": 89,
        "1486": 90,
        "1487": 58,
        "1488": 209,
        "1489": 233,
        "1490": 168,
        "1491": 128,
        "1492": 121,
        "1493": 12,
        "1494": 238,
        "1495": 141,
        "1496": 226,
        "1497": 232,
        "1498": 106,
        "1499": 107,
        "1500": 10,
        "1501": 37,
        "1502": 27,
        "1503": 240,
        "1504": 188,
        "1505": 71,
        "1506": 131,
        "1507": 198,
        "1508": 11,
        "1509": 76,
        "1510": 39,
        "1511": 68,
        "1512": 86,
        "1513": 93,
        "1514": 88,
        "1515": 43,
        "1516": 57,
        "1517": 6,
        "1518": 232,
        "1519": 123,
        "1520": 83,
        "1521": 31,
        "1522": 173,
        "1523": 150,
        "1524": 162,
        "1525": 75,
        "1526": 229,
        "1527": 150,
        "1528": 219,
        "1529": 102,
        "1530": 197,
        "1531": 242,
        "1532": 55,
        "1533": 135,
        "1534": 16,
        "1535": 31,
        "1536": 68,
        "1537": 66,
        "1538": 216,
        "1539": 233,
        "1540": 170,
        "1541": 109,
        "1542": 31,
        "1543": 129,
        "1544": 105,
        "1545": 123,
        "1546": 118,
        "1547": 55,
        "1548": 120,
        "1549": 182,
        "1550": 212,
        "1551": 224,
        "1552": 11,
        "1553": 182,
        "1554": 2,
        "1555": 171,
        "1556": 86,
        "1557": 180,
        "1558": 38,
        "1559": 58,
        "1560": 240,
        "1561": 204,
        "1562": 253,
        "1563": 29,
        "1564": 73,
        "1565": 195,
        "1566": 137,
        "1567": 87,
        "1568": 20,
        "1569": 47,
        "1570": 235,
        "1571": 159,
        "1572": 48,
        "1573": 154,
        "1574": 26,
        "1575": 60,
        "1576": 140,
        "1577": 199,
        "1578": 95,
        "1579": 4,
        "1580": 170,
        "1581": 91,
        "1582": 251,
        "1583": 163,
        "1584": 129,
        "1585": 130,
        "1586": 38,
        "1587": 169,
        "1588": 3,
        "1589": 88,
        "1590": 143,
        "1591": 22,
        "1592": 61,
        "1593": 11,
        "1594": 44,
        "1595": 26,
        "1596": 65,
        "1597": 32,
        "1598": 140,
        "1599": 47,
        "1600": 206,
        "1601": 11,
        "1602": 123,
        "1603": 175,
        "1604": 60,
        "1605": 149,
        "1606": 173,
        "1607": 189,
        "1608": 44,
        "1609": 176,
        "1610": 17,
        "1611": 143,
        "1612": 155,
        "1613": 206,
        "1614": 255,
        "1615": 218,
        "1616": 233,
        "1617": 48,
        "1618": 248,
        "1619": 210,
        "1620": 141,
        "1621": 250,
        "1622": 70,
        "1623": 133,
        "1624": 110,
        "1625": 86,
        "1626": 140,
        "1627": 87,
        "1628": 241,
        "1629": 160,
        "1630": 250,
        "1631": 102,
        "1632": 126,
        "1633": 181,
        "1634": 219,
        "1635": 8,
        "1636": 62,
        "1637": 104,
        "1638": 135,
        "1639": 73,
        "1640": 108,
        "1641": 228,
        "1642": 80,
        "1643": 142,
        "1644": 70,
        "1645": 23,
        "1646": 44,
        "1647": 66,
        "1648": 89,
        "1649": 149,
        "1650": 1,
        "1651": 91,
        "1652": 245,
        "1653": 167,
        "1654": 70,
        "1655": 151,
        "1656": 31,
        "1657": 95,
        "1658": 82,
        "1659": 127,
        "1660": 213,
        "1661": 127,
        "1662": 156,
        "1663": 113,
        "1664": 228,
        "1665": 226,
        "1666": 206,
        "1667": 163,
        "1668": 20,
        "1669": 38,
        "1670": 74,
        "1671": 60,
        "1672": 248,
        "1673": 0,
        "1674": 235,
        "1675": 159,
        "1676": 78,
        "1677": 14,
        "1678": 117,
        "1679": 172,
        "1680": 215,
        "1681": 127,
        "1682": 49,
        "1683": 100,
        "1684": 183,
        "1685": 191,
        "1686": 70,
        "1687": 141,
        "1688": 201,
        "1689": 191,
        "1690": 63,
        "1691": 0,
        "1692": 221,
        "1693": 220,
        "1694": 38,
        "1695": 193,
        "1696": 185,
        "1697": 101,
        "1698": 206,
        "1699": 125,
        "1700": 244,
        "1701": 242,
        "1702": 179,
        "1703": 64,
        "1704": 245,
        "1705": 160,
        "1706": 122,
        "1707": 146,
        "1708": 118,
        "1709": 185,
        "1710": 103,
        "1711": 54,
        "1712": 92,
        "1713": 166,
        "1714": 42,
        "1715": 32,
        "1716": 201,
        "1717": 119,
        "1718": 52,
        "1719": 124,
        "1720": 15,
        "1721": 110,
        "1722": 173,
        "1723": 146,
        "1724": 74,
        "1725": 100,
        "1726": 253,
        "1727": 23,
        "1728": 44,
        "1729": 139,
        "1730": 221,
        "1731": 57,
        "1732": 135,
        "1733": 180,
        "1734": 190,
        "1735": 152,
        "1736": 143,
        "1737": 241,
        "1738": 111,
        "1739": 110,
        "1740": 137,
        "1741": 149,
        "1742": 165,
        "1743": 88,
        "1744": 13,
        "1745": 0,
        "1746": 149,
        "1747": 119,
        "1748": 251,
        "1749": 75,
        "1750": 47,
        "1751": 10,
        "1752": 148,
        "1753": 66,
        "1754": 228,
        "1755": 166,
        "1756": 118,
        "1757": 125,
        "1758": 46,
        "1759": 127,
        "1760": 214,
        "1761": 192,
        "1762": 251,
        "1763": 12,
        "1764": 48,
        "1765": 143,
        "1766": 0,
        "1767": 132,
        "1768": 92,
        "1769": 114,
        "1770": 39,
        "1771": 171,
        "1772": 254,
        "1773": 42,
        "1774": 62,
        "1775": 115,
        "1776": 206,
        "1777": 42,
        "1778": 61,
        "1779": 156,
        "1780": 33,
        "1781": 16,
        "1782": 129,
        "1783": 47,
        "1784": 191,
        "1785": 17,
        "1786": 238,
        "1787": 71,
        "1788": 67,
        "1789": 5,
        "1790": 73,
        "1791": 253,
        "1792": 106,
        "1793": 162,
        "1794": 121,
        "1795": 30,
        "1796": 218,
        "1797": 248,
        "1798": 32,
        "1799": 125,
        "1800": 214,
        "1801": 42,
        "1802": 56,
        "1803": 141,
        "1804": 122,
        "1805": 249,
        "1806": 55,
        "1807": 178,
        "1808": 12,
        "1809": 52,
        "1810": 93,
        "1811": 142,
        "1812": 105,
        "1813": 15,
        "1814": 24,
        "1815": 181,
        "1816": 199,
        "1817": 82,
        "1818": 26,
        "1819": 175,
        "1820": 147,
        "1821": 73,
        "1822": 70,
        "1823": 175,
        "1824": 89,
        "1825": 25,
        "1826": 12,
        "1827": 25,
        "1828": 8,
        "1829": 2,
        "1830": 208,
        "1831": 148,
        "1832": 60,
        "1833": 49,
        "1834": 226,
        "1835": 102,
        "1836": 75,
        "1837": 76,
        "1838": 230,
        "1839": 70,
        "1840": 210,
        "1841": 212,
        "1842": 250,
        "1843": 101,
        "1844": 217,
        "1845": 136,
        "1846": 230,
        "1847": 17,
        "1848": 25,
        "1849": 145,
        "1850": 142,
        "1851": 112,
        "1852": 146,
        "1853": 120,
        "1854": 67,
        "1855": 246,
        "1856": 17,
        "1857": 211,
        "1858": 81,
        "1859": 110,
        "1860": 172,
        "1861": 203,
        "1862": 219,
        "1863": 102,
        "1864": 4,
        "1865": 77,
        "1866": 119,
        "1867": 244,
        "1868": 91,
        "1869": 221,
        "1870": 154,
        "1871": 76,
        "1872": 43,
        "1873": 199,
        "1874": 106,
        "1875": 197,
        "1876": 37,
        "1877": 210,
        "1878": 74,
        "1879": 48,
        "1880": 33,
        "1881": 51,
        "1882": 138,
        "1883": 106,
        "1884": 234,
        "1885": 207,
        "1886": 217,
        "1887": 71,
        "1888": 48,
        "1889": 84,
        "1890": 156,
        "1891": 17,
        "1892": 21,
        "1893": 1,
        "1894": 85,
        "1895": 177,
        "1896": 112,
        "1897": 66,
        "1898": 45,
        "1899": 53,
        "1900": 182,
        "1901": 28,
        "1902": 78,
        "1903": 142,
        "1904": 20,
        "1905": 83,
        "1906": 89,
        "1907": 0,
        "1908": 5,
        "1909": 187,
        "1910": 93,
        "1911": 143,
        "1912": 214,
        "1913": 161,
        "1914": 40,
        "1915": 101,
        "1916": 121,
        "1917": 7,
        "1918": 165,
        "1919": 198,
        "1920": 225,
        "1921": 47,
        "1922": 162,
        "1923": 204,
        "1924": 197,
        "1925": 130,
        "1926": 30,
        "1927": 54,
        "1928": 68,
        "1929": 120,
        "1930": 216,
        "1931": 232,
        "1932": 123,
        "1933": 64,
        "1934": 82,
        "1935": 45,
        "1936": 153,
        "1937": 158,
        "1938": 173,
        "1939": 189,
        "1940": 203,
        "1941": 147,
        "1942": 35,
        "1943": 52,
        "1944": 176,
        "1945": 173,
        "1946": 243,
        "1947": 76,
        "1948": 143,
        "1949": 124,
        "1950": 75,
        "1951": 49,
        "1952": 241,
        "1953": 44,
        "1954": 161,
        "1955": 66,
        "1956": 11,
        "1957": 9,
        "1958": 77,
        "1959": 119,
        "1960": 176,
        "1961": 179,
        "1962": 185,
        "1963": 24,
        "1964": 79,
        "1965": 198,
        "1966": 52,
        "1967": 40,
        "1968": 61,
        "1969": 64,
        "1970": 93,
        "1971": 21,
        "1972": 167,
        "1973": 107,
        "1974": 32,
        "1975": 91,
        "1976": 133,
        "1977": 121,
        "1978": 33,
        "1979": 15,
        "1980": 96,
        "1981": 148,
        "1982": 233,
        "1983": 74,
        "1984": 170,
        "1985": 192,
        "1986": 238,
        "1987": 141,
        "1988": 154,
        "1989": 103,
        "1990": 240,
        "1991": 218,
        "1992": 213,
        "1993": 55,
        "1994": 138,
        "1995": 104,
        "1996": 209,
        "1997": 124,
        "1998": 93,
        "1999": 254,
        "2000": 26,
        "2001": 162,
        "2002": 220,
        "2003": 116,
        "2004": 240,
        "2005": 71,
        "2006": 88,
        "2007": 57,
        "2008": 3,
        "2009": 21,
        "2010": 148,
        "2011": 150,
        "2012": 48,
        "2013": 8,
        "2014": 99,
        "2015": 217,
        "2016": 11,
        "2017": 98,
        "2018": 84,
        "2019": 120,
        "2020": 189,
        "2021": 243,
        "2022": 154,
        "2023": 130,
        "2024": 18,
        "2025": 100,
        "2026": 165,
        "2027": 124,
        "2028": 230,
        "2029": 224,
        "2030": 62,
        "2031": 137,
        "2032": 221,
        "2033": 92,
        "2034": 3,
        "2035": 115,
        "2036": 21,
        "2037": 56,
        "2038": 69,
        "2039": 172,
        "2040": 24,
        "2041": 176,
        "2042": 44,
        "2043": 24,
        "2044": 134,
        "2045": 53,
        "2046": 189,
        "2047": 161,
        "2048": 244,
        "2049": 196,
        "2050": 191,
        "2051": 201,
        "2052": 226,
        "2053": 50,
        "2054": 189,
        "2055": 211,
        "2056": 14,
        "2057": 6,
        "2058": 134,
        "2059": 231,
        "2060": 234,
        "2061": 253,
        "2062": 99,
        "2063": 197,
        "2064": 237,
        "2065": 71,
        "2066": 124,
        "2067": 176,
        "2068": 38,
        "2069": 106,
        "2070": 94,
        "2071": 119,
        "2072": 120,
        "2073": 79,
        "2074": 132,
        "2075": 54,
        "2076": 6,
        "2077": 19,
        "2078": 8,
        "2079": 40,
        "2080": 182,
        "2081": 249,
        "2082": 79,
        "2083": 63,
        "2084": 236,
        "2085": 15,
        "2086": 22,
        "2087": 226,
        "2088": 41,
        "2089": 7,
        "2090": 222,
        "2091": 46,
        "2092": 82,
        "2093": 123,
        "2094": 112,
        "2095": 71,
        "2096": 209,
        "2097": 42,
        "2098": 91,
        "2099": 254,
        "2100": 233,
        "2101": 136,
        "2102": 101,
        "2103": 207,
        "2104": 32,
        "2105": 79,
        "2106": 200,
        "2107": 226,
        "2108": 232,
        "2109": 58,
        "2110": 144,
        "2111": 98,
        "2112": 161,
        "2113": 106,
        "2114": 110,
        "2115": 37,
        "2116": 80,
        "2117": 186,
        "2118": 66,
        "2119": 12,
        "2120": 153,
        "2121": 184,
        "2122": 105,
        "2123": 229,
        "2124": 33,
        "2125": 71,
        "2126": 157,
        "2127": 179,
        "2128": 135,
        "2129": 60,
        "2130": 93,
        "2131": 207,
        "2132": 10,
        "2133": 161,
        "2134": 97,
        "2135": 157,
        "2136": 99,
        "2137": 119,
        "2138": 119,
        "2139": 170,
        "2140": 241,
        "2141": 156,
        "2142": 201,
        "2143": 115,
        "2144": 235,
        "2145": 171,
        "2146": 6,
        "2147": 120,
        "2148": 152,
        "2149": 119,
        "2150": 179,
        "2151": 53,
        "2152": 84,
        "2153": 145,
        "2154": 90,
        "2155": 19,
        "2156": 169,
        "2157": 16,
        "2158": 242,
        "2159": 49,
        "2160": 243,
        "2161": 192,
        "2162": 102,
        "2163": 185,
        "2164": 168,
        "2165": 9,
        "2166": 55,
        "2167": 158,
        "2168": 164,
        "2169": 212,
        "2170": 154,
        "2171": 200,
        "2172": 118,
        "2173": 159,
        "2174": 27,
        "2175": 212,
        "2176": 76,
        "2177": 16,
        "2178": 123,
        "2179": 207,
        "2180": 240,
        "2181": 130,
        "2182": 216,
        "2183": 49,
        "2184": 127,
        "2185": 253,
        "2186": 199,
        "2187": 245,
        "2188": 150,
        "2189": 154,
        "2190": 8,
        "2191": 103,
        "2192": 56,
        "2193": 134,
        "2194": 85,
        "2195": 172,
        "2196": 29,
        "2197": 135,
        "2198": 153,
        "2199": 186,
        "2200": 30,
        "2201": 247,
        "2202": 134,
        "2203": 90,
        "2204": 156,
        "2205": 209,
        "2206": 219,
        "2207": 248,
        "2208": 224,
        "2209": 219,
        "2210": 62,
        "2211": 120,
        "2212": 6,
        "2213": 96,
        "2214": 100,
        "2215": 141,
        "2216": 231,
        "2217": 26,
        "2218": 185,
        "2219": 55,
        "2220": 110,
        "2221": 184,
        "2222": 51,
        "2223": 115,
        "2224": 60,
        "2225": 41,
        "2226": 80,
        "2227": 223,
        "2228": 68,
        "2229": 182,
        "2230": 5,
        "2231": 242,
        "2232": 195,
        "2233": 168,
        "2234": 36,
        "2235": 133,
        "2236": 78,
        "2237": 218,
        "2238": 120,
        "2239": 117,
        "2240": 91,
        "2241": 160,
        "2242": 182,
        "2243": 6,
        "2244": 145,
        "2245": 166,
        "2246": 22,
        "2247": 136,
        "2248": 169,
        "2249": 174,
        "2250": 52,
        "2251": 232,
        "2252": 26,
        "2253": 241,
        "2254": 156,
        "2255": 114,
        "2256": 112,
        "2257": 53,
        "2258": 107,
        "2259": 222,
        "2260": 130,
        "2261": 165,
        "2262": 185,
        "2263": 235,
        "2264": 129,
        "2265": 211,
        "2266": 99,
        "2267": 109,
        "2268": 192,
        "2269": 120,
        "2270": 17,
        "2271": 78,
        "2272": 216,
        "2273": 214,
        "2274": 34,
        "2275": 36,
        "2276": 22,
        "2277": 11,
        "2278": 137,
        "2279": 136,
        "2280": 29,
        "2281": 88,
        "2282": 3,
        "2283": 57,
        "2284": 34,
        "2285": 246,
        "2286": 103,
        "2287": 44,
        "2288": 73,
        "2289": 45,
        "2290": 19,
        "2291": 187,
        "2292": 225,
        "2293": 206,
        "2294": 167,
        "2295": 78,
        "2296": 148,
        "2297": 63,
        "2298": 122,
        "2299": 85,
        "2300": 227,
        "2301": 227,
        "2302": 68,
        "2303": 113,
        "2304": 218,
        "2305": 210,
        "2306": 167,
        "2307": 66,
        "2308": 107,
        "2309": 194,
        "2310": 128,
        "2311": 73,
        "2312": 16,
        "2313": 80,
        "2314": 124,
        "2315": 97,
        "2316": 186,
        "2317": 152,
        "2318": 34,
        "2319": 221,
        "2320": 187,
        "2321": 175,
        "2322": 131,
        "2323": 145,
        "2324": 36,
        "2325": 113,
        "2326": 140,
        "2327": 210,
        "2328": 60,
        "2329": 26,
        "2330": 51,
        "2331": 3,
        "2332": 190,
        "2333": 217,
        "2334": 7,
        "2335": 57,
        "2336": 236,
        "2337": 218,
        "2338": 186,
        "2339": 83,
        "2340": 2,
        "2341": 144,
        "2342": 217,
        "2343": 59,
        "2344": 80,
        "2345": 43,
        "2346": 29,
        "2347": 105,
        "2348": 180,
        "2349": 1,
        "2350": 110,
        "2351": 221,
        "2352": 74,
        "2353": 25,
        "2354": 65,
        "2355": 102,
        "2356": 233,
        "2357": 20,
        "2358": 20,
        "2359": 55,
        "2360": 254,
        "2361": 65,
        "2362": 87,
        "2363": 101,
        "2364": 171,
        "2365": 153,
        "2366": 231,
        "2367": 3,
        "2368": 7,
        "2369": 81,
        "2370": 25,
        "2371": 214,
        "2372": 139,
        "2373": 43,
        "2374": 187,
        "2375": 144,
        "2376": 134,
        "2377": 43,
        "2378": 121,
        "2379": 113,
        "2380": 143,
        "2381": 161,
        "2382": 63,
        "2383": 84,
        "2384": 123,
        "2385": 192,
        "2386": 239,
        "2387": 29,
        "2388": 45,
        "2389": 105,
        "2390": 8,
        "2391": 195,
        "2392": 217,
        "2393": 166,
        "2394": 195,
        "2395": 48,
        "2396": 102,
        "2397": 28,
        "2398": 185,
        "2399": 106,
        "2400": 238,
        "2401": 36,
        "2402": 101,
        "2403": 16,
        "2404": 57,
        "2405": 160,
        "2406": 175,
        "2407": 176,
        "2408": 24,
        "2409": 201,
        "2410": 31,
        "2411": 173,
        "2412": 246,
        "2413": 185,
        "2414": 23,
        "2415": 218,
        "2416": 219,
        "2417": 233,
        "2418": 139,
        "2419": 220,
        "2420": 216,
        "2421": 88,
        "2422": 118,
        "2423": 183,
        "2424": 230,
        "2425": 52,
        "2426": 10,
        "2427": 48,
        "2428": 112,
        "2429": 28,
        "2430": 220,
        "2431": 68,
        "2432": 19,
        "2433": 11,
        "2434": 169,
        "2435": 117,
        "2436": 214,
        "2437": 58,
        "2438": 82,
        "2439": 233,
        "2440": 211,
        "2441": 107,
        "2442": 164,
        "2443": 215,
        "2444": 108,
        "2445": 235,
        "2446": 81,
        "2447": 76,
        "2448": 46,
        "2449": 251,
        "2450": 183,
        "2451": 56,
        "2452": 13,
        "2453": 173,
        "2454": 4,
        "2455": 12,
        "2456": 190,
        "2457": 133,
        "2458": 92,
        "2459": 32,
        "2460": 68,
        "2461": 139,
        "2462": 57,
        "2463": 86,
        "2464": 94,
        "2465": 134,
        "2466": 235,
        "2467": 182,
        "2468": 239,
        "2469": 141,
        "2470": 213,
        "2471": 233,
        "2472": 91,
        "2473": 209,
        "2474": 15,
        "2475": 120,
        "2476": 119,
        "2477": 132,
        "2478": 231,
        "2479": 240,
        "2480": 56,
        "2481": 86,
        "2482": 60,
        "2483": 133,
        "2484": 161,
        "2485": 51,
        "2486": 177,
        "2487": 236,
        "2488": 192,
        "2489": 199,
        "2490": 155,
        "2491": 110,
        "2492": 116,
        "2493": 15,
        "2494": 142,
        "2495": 170,
        "2496": 82,
        "2497": 136,
        "2498": 178,
        "2499": 239,
        "2500": 157,
        "2501": 140,
        "2502": 237,
        "2503": 200,
        "2504": 171,
        "2505": 204,
        "2506": 119,
        "2507": 167,
        "2508": 186,
        "2509": 43,
        "2510": 232,
        "2511": 49,
        "2512": 66,
        "2513": 171,
        "2514": 122,
        "2515": 202,
        "2516": 62,
        "2517": 199,
        "2518": 49,
        "2519": 140,
        "2520": 213,
        "2521": 151,
        "2522": 241,
        "2523": 164,
        "2524": 64,
        "2525": 37,
        "2526": 215,
        "2527": 181,
        "2528": 152,
        "2529": 55,
        "2530": 168,
        "2531": 66,
        "2532": 127,
        "2533": 161,
        "2534": 138,
        "2535": 215,
        "2536": 35,
        "2537": 235,
        "2538": 9,
        "2539": 126,
        "2540": 247,
        "2541": 27,
        "2542": 145,
        "2543": 121,
        "2544": 29,
        "2545": 169,
        "2546": 228,
        "2547": 101,
        "2548": 61,
        "2549": 126,
        "2550": 144,
        "2551": 103,
        "2552": 17,
        "2553": 215,
        "2554": 44,
        "2555": 50,
        "2556": 171,
        "2557": 62,
        "2558": 20,
        "2559": 6,
        "2560": 91,
        "2561": 202,
        "2562": 219,
        "2563": 170,
        "2564": 151,
        "2565": 223,
        "2566": 192,
        "2567": 217,
        "2568": 160,
        "2569": 230,
        "2570": 45,
        "2571": 244,
        "2572": 210,
        "2573": 164,
        "2574": 36,
        "2575": 78,
        "2576": 40,
        "2577": 7,
        "2578": 255,
        "2579": 99,
        "2580": 110,
        "2581": 80,
        "2582": 172,
        "2583": 171,
        "2584": 61,
        "2585": 228,
        "2586": 86,
        "2587": 76,
        "2588": 149,
        "2589": 218,
        "2590": 53,
        "2591": 131,
        "2592": 13,
        "2593": 4,
        "2594": 185,
        "2595": 2,
        "2596": 167,
        "2597": 84,
        "2598": 153,
        "2599": 79,
        "2600": 192,
        "2601": 77,
        "2602": 157,
        "2603": 151,
        "2604": 115,
        "2605": 108,
        "2606": 167,
        "2607": 247,
        "2608": 21,
        "2609": 68,
        "2610": 5,
        "2611": 7,
        "2612": 156,
        "2613": 60,
        "2614": 82,
        "2615": 234,
        "2616": 78,
        "2617": 160,
        "2618": 156,
        "2619": 37,
        "2620": 37,
        "2621": 101,
        "2622": 69,
        "2623": 27,
        "2624": 178,
        "2625": 242,
        "2626": 2,
        "2627": 71,
        "2628": 8,
        "2629": 1,
        "2630": 178,
        "2631": 36,
        "2632": 178,
        "2633": 238,
        "2634": 10,
        "2635": 16,
        "2636": 244,
        "2637": 103,
        "2638": 96,
        "2639": 156,
        "2640": 79,
        "2641": 221,
        "2642": 41,
        "2643": 69,
        "2644": 66,
        "2645": 232,
        "2646": 241,
        "2647": 64,
        "2648": 230,
        "2649": 167,
        "2650": 188,
        "2651": 144,
        "2652": 100,
        "2653": 10,
        "2654": 76,
        "2655": 15,
        "2656": 91,
        "2657": 218,
        "2658": 35,
        "2659": 63,
        "2660": 90,
        "2661": 125,
        "2662": 121,
        "2663": 102,
        "2664": 244,
        "2665": 184,
        "2666": 159,
        "2667": 169,
        "2668": 158,
        "2669": 165,
        "2670": 53,
        "2671": 183,
        "2672": 66,
        "2673": 47,
        "2674": 205,
        "2675": 2,
        "2676": 220,
        "2677": 196,
        "2678": 170,
        "2679": 115,
        "2680": 23,
        "2681": 10,
        "2682": 66,
        "2683": 133,
        "2684": 156,
        "2685": 49,
        "2686": 134,
        "2687": 255,
        "2688": 90,
        "2689": 188,
        "2690": 62,
        "2691": 135,
        "2692": 176,
        "2693": 203,
        "2694": 168,
        "2695": 41,
        "2696": 94,
        "2697": 49,
        "2698": 103,
        "2699": 140,
        "2700": 218,
        "2701": 101,
        "2702": 190,
        "2703": 252,
        "2704": 247,
        "2705": 33,
        "2706": 185,
        "2707": 217,
        "2708": 62,
        "2709": 57,
        "2710": 203,
        "2711": 255,
        "2712": 145,
        "2713": 37,
        "2714": 157,
        "2715": 21,
        "2716": 253,
        "2717": 197,
        "2718": 14,
        "2719": 126,
        "2720": 174,
        "2721": 20,
        "2722": 160,
        "2723": 255,
        "2724": 203,
        "2725": 103,
        "2726": 47,
        "2727": 162,
        "2728": 77,
        "2729": 66,
        "2730": 229,
        "2731": 80,
        "2732": 83,
        "2733": 170,
        "2734": 116,
        "2735": 213,
        "2736": 86,
        "2737": 19,
        "2738": 10,
        "2739": 161,
        "2740": 114,
        "2741": 165,
        "2742": 240,
        "2743": 43,
        "2744": 7,
        "2745": 189,
        "2746": 145,
        "2747": 159,
        "2748": 210,
        "2749": 102,
        "2750": 55,
        "2751": 242,
        "2752": 107,
        "2753": 108,
        "2754": 250,
        "2755": 74,
        "2756": 35,
        "2757": 104,
        "2758": 110,
        "2759": 69,
        "2760": 40,
        "2761": 88,
        "2762": 77,
        "2763": 194,
        "2764": 129,
        "2765": 175,
        "2766": 159,
        "2767": 252,
        "2768": 75,
        "2769": 64,
        "2770": 125,
        "2771": 203,
        "2772": 64,
        "2773": 66,
        "2774": 100,
        "2775": 163,
        "2776": 175,
        "2777": 118,
        "2778": 96,
        "2779": 63,
        "2780": 178,
        "2781": 243,
        "2782": 117,
        "2783": 18,
        "2784": 209,
        "2785": 108,
        "2786": 8,
        "2787": 147,
        "2788": 34,
        "2789": 29,
        "2790": 107,
        "2791": 105,
        "2792": 110,
        "2793": 110,
        "2794": 28,
        "2795": 90,
        "2796": 74,
        "2797": 215,
        "2798": 58,
        "2799": 12,
        "2800": 141,
        "2801": 247,
        "2802": 181,
        "2803": 15,
        "2804": 38,
        "2805": 217,
        "2806": 39,
        "2807": 124,
        "2808": 145,
        "2809": 152,
        "2810": 123,
        "2811": 183,
        "2812": 235,
        "2813": 141,
        "2814": 92,
        "2815": 3,
        "2816": 75,
        "2817": 209,
        "2818": 228,
        "2819": 40,
        "2820": 111,
        "2821": 134,
        "2822": 226,
        "2823": 148,
        "2824": 160,
        "2825": 201,
        "2826": 26,
        "2827": 75,
        "2828": 96,
        "2829": 91,
        "2830": 213,
        "2831": 28,
        "2832": 55,
        "2833": 189,
        "2834": 185,
        "2835": 102,
        "2836": 75,
        "2837": 150,
        "2838": 156,
        "2839": 73,
        "2840": 56,
        "2841": 143,
        "2842": 202,
        "2843": 93,
        "2844": 95,
        "2845": 242,
        "2846": 103,
        "2847": 233,
        "2848": 35,
        "2849": 156,
        "2850": 251,
        "2851": 216,
        "2852": 43,
        "2853": 190,
        "2854": 53,
        "2855": 76,
        "2856": 0,
        "2857": 205,
        "2858": 25,
        "2859": 150,
        "2860": 66,
        "2861": 107,
        "2862": 190,
        "2863": 48,
        "2864": 73,
        "2865": 127,
        "2866": 6,
        "2867": 128,
        "2868": 89,
        "2869": 242,
        "2870": 64,
        "2871": 175,
        "2872": 146,
        "2873": 89,
        "2874": 232,
        "2875": 28,
        "2876": 113,
        "2877": 233,
        "2878": 206,
        "2879": 233,
        "2880": 28,
        "2881": 227,
        "2882": 189,
        "2883": 20,
        "2884": 59,
        "2885": 198,
        "2886": 216,
        "2887": 138,
        "2888": 211,
        "2889": 205,
        "2890": 140,
        "2891": 72,
        "2892": 93,
        "2893": 53,
        "2894": 24,
        "2895": 134,
        "2896": 225,
        "2897": 190,
        "2898": 248,
        "2899": 193,
        "2900": 44,
        "2901": 102,
        "2902": 234,
        "2903": 187,
        "2904": 121,
        "2905": 70,
        "2906": 180,
        "2907": 249,
        "2908": 1,
        "2909": 177,
        "2910": 115,
        "2911": 84,
        "2912": 60,
        "2913": 125,
        "2914": 7,
        "2915": 207,
        "2916": 138,
        "2917": 115,
        "2918": 80,
        "2919": 53,
        "2920": 20,
        "2921": 99,
        "2922": 70,
        "2923": 77,
        "2924": 184,
        "2925": 90,
        "2926": 160,
        "2927": 98,
        "2928": 36,
        "2929": 132,
        "2930": 177,
        "2931": 118,
        "2932": 31,
        "2933": 147,
        "2934": 205,
        "2935": 128,
        "2936": 45,
        "2937": 148,
        "2938": 26,
        "2939": 54,
        "2940": 80,
        "2941": 176,
        "2942": 133,
        "2943": 114,
        "2944": 122,
        "2945": 62,
        "2946": 191,
        "2947": 20,
        "2948": 221,
        "2949": 28,
        "2950": 205,
        "2951": 145,
        "2952": 53,
        "2953": 131,
        "2954": 133,
        "2955": 209,
        "2956": 210,
        "2957": 1,
        "2958": 204,
        "2959": 237,
        "2960": 116,
        "2961": 201,
        "2962": 189,
        "2963": 218,
        "2964": 119,
        "2965": 223,
        "2966": 248,
        "2967": 125,
        "2968": 170,
        "2969": 102,
        "2970": 228,
        "2971": 195,
        "2972": 124,
        "2973": 92,
        "2974": 38,
        "2975": 161,
        "2976": 40,
        "2977": 109,
        "2978": 13,
        "2979": 124,
        "2980": 125,
        "2981": 22,
        "2982": 233,
        "2983": 35,
        "2984": 68,
        "2985": 12,
        "2986": 25,
        "2987": 115,
        "2988": 70,
        "2989": 229,
        "2990": 239,
        "2991": 189,
        "2992": 10,
        "2993": 1,
        "2994": 89,
        "2995": 68,
        "2996": 20,
        "2997": 34,
        "2998": 176,
        "2999": 1,
        "3000": 17,
        "3001": 130,
        "3002": 216,
        "3003": 39,
        "3004": 111,
        "3005": 52,
        "3006": 87,
        "3007": 243,
        "3008": 107,
        "3009": 247,
        "3010": 199,
        "3011": 39,
        "3012": 7,
        "3013": 245,
        "3014": 20,
        "3015": 113,
        "3016": 106,
        "3017": 153,
        "3018": 238,
        "3019": 48,
        "3020": 189,
        "3021": 131,
        "3022": 49,
        "3023": 115,
        "3024": 155,
        "3025": 172,
        "3026": 237,
        "3027": 3,
        "3028": 33,
        "3029": 253,
        "3030": 238,
        "3031": 140,
        "3032": 157,
        "3033": 204,
        "3034": 96,
        "3035": 209,
        "3036": 27,
        "3037": 137,
        "3038": 208,
        "3039": 24,
        "3040": 173,
        "3041": 102,
        "3042": 100,
        "3043": 202,
        "3044": 223,
        "3045": 216,
        "3046": 155,
        "3047": 185,
        "3048": 76,
        "3049": 26,
        "3050": 124,
        "3051": 69,
        "3052": 184,
        "3053": 55,
        "3054": 117,
        "3055": 17,
        "3056": 4,
        "3057": 244,
        "3058": 143,
        "3059": 224,
        "3060": 92,
        "3061": 6,
        "3062": 231,
        "3063": 236,
        "3064": 173,
        "3065": 63,
        "3066": 67,
        "3067": 177,
        "3068": 5,
        "3069": 14,
        "3070": 72,
        "3071": 76,
        "3072": 11,
        "3073": 146,
        "3074": 199,
        "3075": 52,
        "3076": 99,
        "3077": 211,
        "3078": 240,
        "3079": 235,
        "3080": 101,
        "3081": 73,
        "3082": 35,
        "3083": 41,
        "3084": 170,
        "3085": 22,
        "3086": 205,
        "3087": 250,
        "3088": 207,
        "3089": 228,
        "3090": 113,
        "3091": 28,
        "3092": 251,
        "3093": 161,
        "3094": 153,
        "3095": 220,
        "3096": 26,
        "3097": 180,
        "3098": 235,
        "3099": 64,
        "3100": 227,
        "3101": 1,
        "3102": 100,
        "3103": 105,
        "3104": 189,
        "3105": 117,
        "3106": 122,
        "3107": 214,
        "3108": 37,
        "3109": 197,
        "3110": 134,
        "3111": 106,
        "3112": 15,
        "3113": 98,
        "3114": 189,
        "3115": 172,
        "3116": 167,
        "3117": 52,
        "3118": 90,
        "3119": 251,
        "3120": 89,
        "3121": 70,
        "3122": 114,
        "3123": 235,
        "3124": 176,
        "3125": 155,
        "3126": 16,
        "3127": 222,
        "3128": 61,
        "3129": 41,
        "3130": 89,
        "3131": 117,
        "3132": 112,
        "3133": 118,
        "3134": 146,
        "3135": 39,
        "3136": 176,
        "3137": 250,
        "3138": 19,
        "3139": 162,
        "3140": 223,
        "3141": 209,
        "3142": 46,
        "3143": 219,
        "3144": 167,
        "3145": 149,
        "3146": 252,
        "3147": 179,
        "3148": 27,
        "3149": 125,
        "3150": 235,
        "3151": 97,
        "3152": 147,
        "3153": 68,
        "3154": 136,
        "3155": 194,
        "3156": 213,
        "3157": 10,
        "3158": 211,
        "3159": 22,
        "3160": 141,
        "3161": 72,
        "3162": 175,
        "3163": 199,
        "3164": 241,
        "3165": 224,
        "3166": 250,
        "3167": 134,
        "3168": 41,
        "3169": 124,
        "3170": 220,
        "3171": 208,
        "3172": 79,
        "3173": 20,
        "3174": 94,
        "3175": 112,
        "3176": 68,
        "3177": 133,
        "3178": 44,
        "3179": 167,
        "3180": 25,
        "3181": 201,
        "3182": 55,
        "3183": 250,
        "3184": 50,
        "3185": 161,
        "3186": 74,
        "3187": 34,
        "3188": 93,
        "3189": 133,
        "3190": 60,
        "3191": 68,
        "3192": 68,
        "3193": 17,
        "3194": 95,
        "3195": 60,
        "3196": 43,
        "3197": 127,
        "3198": 82,
        "3199": 61,
        "3200": 29,
        "3201": 38,
        "3202": 164,
        "3203": 191,
        "3204": 145,
        "3205": 26,
        "3206": 184,
        "3207": 181,
        "3208": 79,
        "3209": 205,
        "3210": 169,
        "3211": 92,
        "3212": 215,
        "3213": 52,
        "3214": 247,
        "3215": 101,
        "3216": 5,
        "3217": 56,
        "3218": 135,
        "3219": 124,
        "3220": 155,
        "3221": 41,
        "3222": 163,
        "3223": 233,
        "3224": 132,
        "3225": 166,
        "3226": 136,
        "3227": 244,
        "3228": 152,
        "3229": 218,
        "3230": 244,
        "3231": 179,
        "3232": 224,
        "3233": 53,
        "3234": 107,
        "3235": 59,
        "3236": 148,
        "3237": 25,
        "3238": 156,
        "3239": 202,
        "3240": 196,
        "3241": 107,
        "3242": 144,
        "3243": 203,
        "3244": 153,
        "3245": 55,
        "3246": 254,
        "3247": 22,
        "3248": 4,
        "3249": 191,
        "3250": 46,
        "3251": 129,
        "3252": 97,
        "3253": 208,
        "3254": 143,
        "3255": 87,
        "3256": 71,
        "3257": 107,
        "3258": 163,
        "3259": 78,
        "3260": 76,
        "3261": 44,
        "3262": 202,
        "3263": 90,
        "3264": 7,
        "3265": 225,
        "3266": 97,
        "3267": 171,
        "3268": 195,
        "3269": 209,
        "3270": 99,
        "3271": 85,
        "3272": 0,
        "3273": 10,
        "3274": 18,
        "3275": 29,
        "3276": 228,
        "3277": 33,
        "3278": 236,
        "3279": 110,
        "3280": 168,
        "3281": 167,
        "3282": 94,
        "3283": 226,
        "3284": 167,
        "3285": 76,
        "3286": 113,
        "3287": 192,
        "3288": 208,
        "3289": 137,
        "3290": 112,
        "3291": 14,
        "3292": 73,
        "3293": 166,
        "3294": 132,
        "3295": 236,
        "3296": 137,
        "3297": 145,
        "3298": 78,
        "3299": 122,
        "3300": 226,
        "3301": 56,
        "3302": 54,
        "3303": 177,
        "3304": 178,
        "3305": 108,
        "3306": 251,
        "3307": 34,
        "3308": 197,
        "3309": 10,
        "3310": 192,
        "3311": 114,
        "3312": 132,
        "3313": 106,
        "3314": 236,
        "3315": 103,
        "3316": 157,
        "3317": 35,
        "3318": 167,
        "3319": 29,
        "3320": 105,
        "3321": 42,
        "3322": 191,
        "3323": 241,
        "3324": 29,
        "3325": 193,
        "3326": 100,
        "3327": 160,
        "3328": 177,
        "3329": 97,
        "3330": 229,
        "3331": 118,
        "3332": 60,
        "3333": 165,
        "3334": 141,
        "3335": 189,
        "3336": 137,
        "3337": 137,
        "3338": 46,
        "3339": 202,
        "3340": 224,
        "3341": 239,
        "3342": 92,
        "3343": 180,
        "3344": 242,
        "3345": 181,
        "3346": 186,
        "3347": 125,
        "3348": 246,
        "3349": 189,
        "3350": 118,
        "3351": 202,
        "3352": 33,
        "3353": 161,
        "3354": 107,
        "3355": 240,
        "3356": 82,
        "3357": 169,
        "3358": 72,
        "3359": 49,
        "3360": 40,
        "3361": 19,
        "3362": 185,
        "3363": 195,
        "3364": 149,
        "3365": 114,
        "3366": 161,
        "3367": 156,
        "3368": 250,
        "3369": 226,
        "3370": 67,
        "3371": 0,
        "3372": 73,
        "3373": 112,
        "3374": 215,
        "3375": 108,
        "3376": 249,
        "3377": 171,
        "3378": 29,
        "3379": 137,
        "3380": 113,
        "3381": 79,
        "3382": 123,
        "3383": 69,
        "3384": 209,
        "3385": 49,
        "3386": 39,
        "3387": 136,
        "3388": 29,
        "3389": 154,
        "3390": 4,
        "3391": 120,
        "3392": 181,
        "3393": 44,
        "3394": 105,
        "3395": 252,
        "3396": 177,
        "3397": 36,
        "3398": 77,
        "3399": 88,
        "3400": 20,
        "3401": 105,
        "3402": 148,
        "3403": 34,
        "3404": 218,
        "3405": 89,
        "3406": 19,
        "3407": 19,
        "3408": 61,
        "3409": 202,
        "3410": 89,
        "3411": 200,
        "3412": 143,
        "3413": 154,
        "3414": 54,
        "3415": 94,
        "3416": 222,
        "3417": 123,
        "3418": 138,
        "3419": 146,
        "3420": 159,
        "3421": 69,
        "3422": 184,
        "3423": 67,
        "3424": 184,
        "3425": 75,
        "3426": 34,
        "3427": 255,
        "3428": 170,
        "3429": 32,
        "3430": 86,
        "3431": 176,
        "3432": 203,
        "3433": 109,
        "3434": 147,
        "3435": 230,
        "3436": 37,
        "3437": 117,
        "3438": 120,
        "3439": 221,
        "3440": 144,
        "3441": 227,
        "3442": 91,
        "3443": 48,
        "3444": 176,
        "3445": 97,
        "3446": 202,
        "3447": 206,
        "3448": 4,
        "3449": 96,
        "3450": 128,
        "3451": 16,
        "3452": 143,
        "3453": 79,
        "3454": 206,
        "3455": 41,
        "3456": 112,
        "3457": 155,
        "3458": 236,
        "3459": 105,
        "3460": 183,
        "3461": 45,
        "3462": 201,
        "3463": 122,
        "3464": 235,
        "3465": 238,
        "3466": 69,
        "3467": 10,
        "3468": 91,
        "3469": 170,
        "3470": 158,
        "3471": 31,
        "3472": 214,
        "3473": 231,
        "3474": 202,
        "3475": 24,
        "3476": 174,
        "3477": 117,
        "3478": 17,
        "3479": 239,
        "3480": 39,
        "3481": 31,
        "3482": 16,
        "3483": 21,
        "3484": 199,
        "3485": 209,
        "3486": 73,
        "3487": 246,
        "3488": 90,
        "3489": 162,
        "3490": 118,
        "3491": 231,
        "3492": 115,
        "3493": 76,
        "3494": 248,
        "3495": 223,
        "3496": 36,
        "3497": 83,
        "3498": 187,
        "3499": 133,
        "3500": 167,
        "3501": 102,
        "3502": 181,
        "3503": 188,
        "3504": 142,
        "3505": 245,
        "3506": 167,
        "3507": 13,
        "3508": 94,
        "3509": 142,
        "3510": 145,
        "3511": 115,
        "3512": 203,
        "3513": 235,
        "3514": 49,
        "3515": 21,
        "3516": 54,
        "3517": 103,
        "3518": 238,
        "3519": 190,
        "3520": 38,
        "3521": 228,
        "3522": 102,
        "3523": 137,
        "3524": 101,
        "3525": 62,
        "3526": 111,
        "3527": 223,
        "3528": 241,
        "3529": 98,
        "3530": 157,
        "3531": 35,
        "3532": 183,
        "3533": 85,
        "3534": 163,
        "3535": 52,
        "3536": 37,
        "3537": 102,
        "3538": 161,
        "3539": 47,
        "3540": 138,
        "3541": 153,
        "3542": 114,
        "3543": 165,
        "3544": 113,
        "3545": 151,
        "3546": 35,
        "3547": 129,
        "3548": 90,
        "3549": 245,
        "3550": 126,
        "3551": 81,
        "3552": 91,
        "3553": 140,
        "3554": 127,
        "3555": 10,
        "3556": 225,
        "3557": 49,
        "3558": 8,
        "3559": 29,
        "3560": 167,
        "3561": 225,
        "3562": 185,
        "3563": 134,
        "3564": 187,
        "3565": 211,
        "3566": 147,
        "3567": 59,
        "3568": 172,
        "3569": 214,
        "3570": 169,
        "3571": 82,
        "3572": 91,
        "3573": 160,
        "3574": 148,
        "3575": 122,
        "3576": 41,
        "3577": 235,
        "3578": 255,
        "3579": 15,
        "3580": 154,
        "3581": 90,
        "3582": 35,
        "3583": 78,
        "3584": 166,
        "3585": 168,
        "3586": 81,
        "3587": 95,
        "3588": 181,
        "3589": 22,
        "3590": 78,
        "3591": 45,
        "3592": 77,
        "3593": 42,
        "3594": 93,
        "3595": 67,
        "3596": 196,
        "3597": 63,
        "3598": 83,
        "3599": 122,
        "3600": 254,
        "3601": 99,
        "3602": 47,
        "3603": 185,
        "3604": 58,
        "3605": 184,
        "3606": 230,
        "3607": 149,
        "3608": 11,
        "3609": 247,
        "3610": 231,
        "3611": 55,
        "3612": 235,
        "3613": 175,
        "3614": 89,
        "3615": 238,
        "3616": 83,
        "3617": 193,
        "3618": 192,
        "3619": 169,
        "3620": 17,
        "3621": 244,
        "3622": 251,
        "3623": 42,
        "3624": 99,
        "3625": 78,
        "3626": 71,
        "3627": 251,
        "3628": 181,
        "3629": 145,
        "3630": 214,
        "3631": 15,
        "3632": 162,
        "3633": 13,
        "3634": 75,
        "3635": 117,
        "3636": 203,
        "3637": 251,
        "3638": 169,
        "3639": 240,
        "3640": 50,
        "3641": 154,
        "3642": 24,
        "3643": 153,
        "3644": 82,
        "3645": 204,
        "3646": 222,
        "3647": 24,
        "3648": 172,
        "3649": 166,
        "3650": 98,
        "3651": 94,
        "3652": 208,
        "3653": 255,
        "3654": 121,
        "3655": 100,
        "3656": 92,
        "3657": 8,
        "3658": 29,
        "3659": 99,
        "3660": 50,
        "3661": 103,
        "3662": 76,
        "3663": 83,
        "3664": 217,
        "3665": 92,
        "3666": 160,
        "3667": 122,
        "3668": 178,
        "3669": 154,
        "3670": 117,
        "3671": 214,
        "3672": 141,
        "3673": 98,
        "3674": 56,
        "3675": 12,
        "3676": 164,
        "3677": 142,
        "3678": 77,
        "3679": 35,
        "3680": 45,
        "3681": 191,
        "3682": 207,
        "3683": 239,
        "3684": 146,
        "3685": 124,
        "3686": 186,
        "3687": 51,
        "3688": 251,
        "3689": 197,
        "3690": 27,
        "3691": 207,
        "3692": 156,
        "3693": 224,
        "3694": 72,
        "3695": 224,
        "3696": 98,
        "3697": 185,
        "3698": 198,
        "3699": 55,
        "3700": 85,
        "3701": 214,
        "3702": 12,
        "3703": 101,
        "3704": 144,
        "3705": 141,
        "3706": 97,
        "3707": 182,
        "3708": 114,
        "3709": 105,
        "3710": 177,
        "3711": 37,
        "3712": 69,
        "3713": 184,
        "3714": 186,
        "3715": 137,
        "3716": 97,
        "3717": 64,
        "3718": 150,
        "3719": 90,
        "3720": 46,
        "3721": 16,
        "3722": 172,
        "3723": 241,
        "3724": 154,
        "3725": 230,
        "3726": 158,
        "3727": 196,
        "3728": 217,
        "3729": 221,
        "3730": 51,
        "3731": 173,
        "3732": 125,
        "3733": 194,
        "3734": 106,
        "3735": 101,
        "3736": 163,
        "3737": 174,
        "3738": 172,
        "3739": 129,
        "3740": 130,
        "3741": 68,
        "3742": 234,
        "3743": 80,
        "3744": 242,
        "3745": 144,
        "3746": 251,
        "3747": 112,
        "3748": 157,
        "3749": 131,
        "3750": 52,
        "3751": 59,
        "3752": 126,
        "3753": 125,
        "3754": 87,
        "3755": 145,
        "3756": 209,
        "3757": 236,
        "3758": 142,
        "3759": 237,
        "3760": 1,
        "3761": 30,
        "3762": 212,
        "3763": 113,
        "3764": 217,
        "3765": 51,
        "3766": 30,
        "3767": 239,
        "3768": 184,
        "3769": 202,
        "3770": 200,
        "3771": 39,
        "3772": 84,
        "3773": 7,
        "3774": 115,
        "3775": 114,
        "3776": 37,
        "3777": 37,
        "3778": 112,
        "3779": 139,
        "3780": 219,
        "3781": 75,
        "3782": 127,
        "3783": 14,
        "3784": 248,
        "3785": 228,
        "3786": 143,
        "3787": 145,
        "3788": 127,
        "3789": 72,
        "3790": 179,
        "3791": 161,
        "3792": 132,
        "3793": 133,
        "3794": 203,
        "3795": 82,
        "3796": 141,
        "3797": 20,
        "3798": 123,
        "3799": 31,
        "3800": 60,
        "3801": 158,
        "3802": 76,
        "3803": 5,
        "3804": 9,
        "3805": 26,
        "3806": 154,
        "3807": 50,
        "3808": 182,
        "3809": 156,
        "3810": 143,
        "3811": 24,
        "3812": 2,
        "3813": 1,
        "3814": 46,
        "3815": 177,
        "3816": 197,
        "3817": 84,
        "3818": 56,
        "3819": 240,
        "3820": 165,
        "3821": 80,
        "3822": 115,
        "3823": 55,
        "3824": 171,
        "3825": 204,
        "3826": 81,
        "3827": 95,
        "3828": 137,
        "3829": 62,
        "3830": 172,
        "3831": 71,
        "3832": 194,
        "3833": 162,
        "3834": 235,
        "3835": 132,
        "3836": 204,
        "3837": 54,
        "3838": 78,
        "3839": 23,
        "3840": 18,
        "3841": 1,
        "3842": 63,
        "3843": 178,
        "3844": 190,
        "3845": 213,
        "3846": 147,
        "3847": 87,
        "3848": 33,
        "3849": 122,
        "3850": 200,
        "3851": 120,
        "3852": 179,
        "3853": 139,
        "3854": 183,
        "3855": 237,
        "3856": 223,
        "3857": 113,
        "3858": 219,
        "3859": 185,
        "3860": 40,
        "3861": 69,
        "3862": 192,
        "3863": 34,
        "3864": 189,
        "3865": 212,
        "3866": 5,
        "3867": 137,
        "3868": 113,
        "3869": 191,
        "3870": 66,
        "3871": 34,
        "3872": 97,
        "3873": 219,
        "3874": 101,
        "3875": 226,
        "3876": 96,
        "3877": 145,
        "3878": 246,
        "3879": 253,
        "3880": 212,
        "3881": 176,
        "3882": 137,
        "3883": 177,
        "3884": 225,
        "3885": 205,
        "3886": 95,
        "3887": 58,
        "3888": 226,
        "3889": 89,
        "3890": 169,
        "3891": 47,
        "3892": 8,
        "3893": 225,
        "3894": 233,
        "3895": 128,
        "3896": 195,
        "3897": 156,
        "3898": 25,
        "3899": 38,
        "3900": 28,
        "3901": 159,
        "3902": 218,
        "3903": 24,
        "3904": 144,
        "3905": 39,
        "3906": 47,
        "3907": 170,
        "3908": 197,
        "3909": 19,
        "3910": 154,
        "3911": 146,
        "3912": 141,
        "3913": 223,
        "3914": 234,
        "3915": 9,
        "3916": 226,
        "3917": 230,
        "3918": 235,
        "3919": 222,
        "3920": 122,
        "3921": 115,
        "3922": 44,
        "3923": 75,
        "3924": 113,
        "3925": 175,
        "3926": 241,
        "3927": 128,
        "3928": 4,
        "3929": 123,
        "3930": 117,
        "3931": 163,
        "3932": 164,
        "3933": 244,
        "3934": 181,
        "3935": 164,
        "3936": 8,
        "3937": 23,
        "3938": 235,
        "3939": 66,
        "3940": 128,
        "3941": 111,
        "3942": 92,
        "3943": 72,
        "3944": 239,
        "3945": 41,
        "3946": 123,
        "3947": 126,
        "3948": 69,
        "3949": 82,
        "3950": 163,
        "3951": 110,
        "3952": 62,
        "3953": 9,
        "3954": 128,
        "3955": 243,
        "3956": 33,
        "3957": 75,
        "3958": 124,
        "3959": 181,
        "3960": 32,
        "3961": 74,
        "3962": 62,
        "3963": 143,
        "3964": 195,
        "3965": 209,
        "3966": 209,
        "3967": 98,
        "3968": 172,
        "3969": 158,
        "3970": 22,
        "3971": 61,
        "3972": 34,
        "3973": 213,
        "3974": 16,
        "3975": 11,
        "3976": 31,
        "3977": 27,
        "3978": 132,
        "3979": 87,
        "3980": 32,
        "3981": 172,
        "3982": 209,
        "3983": 99,
        "3984": 168,
        "3985": 154,
        "3986": 164,
        "3987": 8,
        "3988": 156,
        "3989": 25,
        "3990": 89,
        "3991": 126,
        "3992": 168,
        "3993": 192,
        "3994": 110,
        "3995": 163,
        "3996": 56,
        "3997": 33,
        "3998": 81,
        "3999": 72,
        "4000": 45,
        "4001": 105,
        "4002": 120,
        "4003": 143,
        "4004": 125,
        "4005": 75,
        "4006": 188,
        "4007": 98,
        "4008": 12,
        "4009": 104,
        "4010": 40,
        "4011": 4,
        "4012": 73,
        "4013": 127,
        "4014": 6,
        "4015": 250,
        "4016": 177,
        "4017": 200,
        "4018": 198,
        "4019": 124,
        "4020": 179,
        "4021": 23,
        "4022": 36,
        "4023": 193,
        "4024": 109,
        "4025": 135,
        "4026": 152,
        "4027": 119,
        "4028": 52,
        "4029": 237,
        "4030": 194,
        "4031": 247,
        "4032": 198,
        "4033": 86,
        "4034": 71,
        "4035": 46,
        "4036": 22,
        "4037": 135,
        "4038": 154,
        "4039": 215,
        "4040": 10,
        "4041": 142,
        "4042": 235,
        "4043": 122,
        "4044": 83,
        "4045": 168,
        "4046": 244,
        "4047": 252,
        "4048": 174,
        "4049": 195,
        "4050": 122,
        "4051": 105,
        "4052": 236,
        "4053": 94,
        "4054": 97,
        "4055": 219,
        "4056": 228,
        "4057": 238,
        "4058": 177,
        "4059": 12,
        "4060": 215,
        "4061": 82,
        "4062": 7,
        "4063": 251,
        "4064": 9,
        "4065": 187,
        "4066": 211,
        "4067": 12,
        "4068": 15,
        "4069": 58,
        "4070": 27,
        "4071": 43,
        "4072": 78,
        "4073": 44,
        "4074": 114,
        "4075": 48,
        "4076": 32,
        "4077": 181,
        "4078": 148,
        "4079": 96,
        "4080": 121,
        "4081": 86,
        "4082": 69,
        "4083": 186,
        "4084": 173,
        "4085": 136,
        "4086": 123,
        "4087": 140,
        "4088": 171,
        "4089": 181,
        "4090": 150,
        "4091": 223,
        "4092": 46,
        "4093": 75,
        "4094": 83,
        "4095": 71,
        "4096": 140,
        "4097": 107,
        "4098": 72,
        "4099": 57,
        "4100": 228,
        "4101": 68,
        "4102": 35,
        "4103": 245,
        "4104": 201,
        "4105": 85,
        "4106": 137,
        "4107": 93,
        "4108": 98,
        "4109": 186,
        "4110": 157,
        "4111": 131,
        "4112": 163,
        "4113": 248,
        "4114": 58,
        "4115": 66,
        "4116": 155,
        "4117": 23,
        "4118": 64,
        "4119": 82,
        "4120": 186,
        "4121": 33,
        "4122": 135,
        "4123": 96,
        "4124": 77,
        "4125": 166,
        "4126": 23,
        "4127": 252,
        "4128": 200,
        "4129": 170,
        "4130": 87,
        "4131": 54,
        "4132": 248,
        "4133": 213,
        "4134": 46,
        "4135": 151,
        "4136": 152,
        "4137": 21,
        "4138": 221,
        "4139": 109,
        "4140": 107,
        "4141": 7,
        "4142": 141,
        "4143": 50,
        "4144": 254,
        "4145": 60,
        "4146": 242,
        "4147": 66,
        "4148": 194,
        "4149": 4,
        "4150": 196,
        "4151": 250,
        "4152": 138,
        "4153": 131,
        "4154": 64,
        "4155": 210,
        "4156": 134,
        "4157": 218,
        "4158": 236,
        "4159": 195,
        "4160": 198,
        "4161": 117,
        "4162": 176,
        "4163": 83,
        "4164": 169,
        "4165": 222,
        "4166": 186,
        "4167": 40,
        "4168": 244,
        "4169": 110,
        "4170": 183,
        "4171": 58,
        "4172": 113,
        "4173": 111,
        "4174": 129,
        "4175": 226,
        "4176": 113,
        "4177": 26,
        "4178": 103,
        "4179": 59,
        "4180": 9,
        "4181": 12,
        "4182": 244,
        "4183": 103,
        "4184": 87,
        "4185": 56,
        "4186": 100,
        "4187": 215,
        "4188": 32,
        "4189": 185,
        "4190": 60,
        "4191": 107,
        "4192": 156,
        "4193": 72,
        "4194": 31,
        "4195": 102,
        "4196": 66,
        "4197": 8,
        "4198": 6,
        "4199": 241,
        "4200": 229,
        "4201": 23,
        "4202": 223,
        "4203": 31,
        "4204": 196,
        "4205": 22,
        "4206": 96,
        "4207": 190,
        "4208": 198,
        "4209": 114,
        "4210": 66,
        "4211": 41,
        "4212": 19,
        "4213": 104,
        "4214": 108,
        "4215": 240,
        "4216": 63,
        "4217": 14,
        "4218": 255,
        "4219": 226,
        "4220": 83,
        "4221": 57,
        "4222": 109,
        "4223": 85,
        "4224": 254,
        "4225": 217,
        "4226": 133,
        "4227": 101,
        "4228": 138,
        "4229": 34,
        "4230": 146,
        "4231": 181,
        "4232": 175,
        "4233": 87,
        "4234": 27,
        "4235": 88,
        "4236": 120,
        "4237": 211,
        "4238": 59,
        "4239": 11,
        "4240": 247,
        "4241": 80,
        "4242": 84,
        "4243": 208,
        "4244": 85,
        "4245": 208,
        "4246": 252,
        "4247": 60,
        "4248": 21,
        "4249": 157,
        "4250": 110,
        "4251": 225,
        "4252": 114,
        "4253": 31,
        "4254": 93,
        "4255": 19,
        "4256": 109,
        "4257": 241,
        "4258": 198,
        "4259": 220,
        "4260": 34,
        "4261": 252,
        "4262": 132,
        "4263": 33,
        "4264": 160,
        "4265": 182,
        "4266": 195,
        "4267": 39,
        "4268": 112,
        "4269": 206,
        "4270": 161,
        "4271": 44,
        "4272": 130,
        "4273": 12,
        "4274": 66,
        "4275": 121,
        "4276": 47,
        "4277": 211,
        "4278": 17,
        "4279": 30,
        "4280": 22,
        "4281": 239,
        "4282": 26,
        "4283": 43,
        "4284": 7,
        "4285": 215,
        "4286": 79,
        "4287": 234,
        "4288": 20,
        "4289": 73,
        "4290": 32,
        "4291": 30,
        "4292": 43,
        "4293": 141,
        "4294": 201,
        "4295": 204,
        "4296": 158,
        "4297": 68,
        "4298": 86,
        "4299": 113,
        "4300": 57,
        "4301": 60,
        "4302": 128,
        "4303": 209,
        "4304": 2,
        "4305": 147,
        "4306": 195,
        "4307": 115,
        "4308": 8,
        "4309": 219,
        "4310": 16,
        "4311": 212,
        "4312": 126,
        "4313": 45,
        "4314": 34,
        "4315": 92,
        "4316": 85,
        "4317": 42,
        "4318": 196,
        "4319": 2,
        "4320": 98,
        "4321": 233,
        "4322": 151,
        "4323": 84,
        "4324": 50,
        "4325": 246,
        "4326": 184,
        "4327": 128,
        "4328": 126,
        "4329": 39,
        "4330": 204,
        "4331": 148,
        "4332": 88,
        "4333": 7,
        "4334": 58,
        "4335": 9,
        "4336": 72,
        "4337": 207,
        "4338": 73,
        "4339": 49,
        "4340": 148,
        "4341": 52,
        "4342": 5,
        "4343": 59,
        "4344": 14,
        "4345": 147,
        "4346": 36,
        "4347": 219,
        "4348": 141,
        "4349": 27,
        "4350": 94,
        "4351": 84,
        "4352": 36,
        "4353": 110,
        "4354": 143,
        "4355": 195,
        "4356": 170,
        "4357": 162,
        "4358": 203,
        "4359": 15,
        "4360": 71,
        "4361": 76,
        "4362": 228,
        "4363": 41,
        "4364": 79,
        "4365": 162,
        "4366": 180,
        "4367": 190,
        "4368": 196,
        "4369": 145,
        "4370": 60,
        "4371": 71,
        "4372": 7,
        "4373": 105,
        "4374": 139,
        "4375": 189,
        "4376": 40,
        "4377": 62,
        "4378": 40,
        "4379": 58,
        "4380": 81,
        "4381": 57,
        "4382": 220,
        "4383": 63,
        "4384": 44,
        "4385": 1,
        "4386": 162,
        "4387": 228,
        "4388": 237,
        "4389": 45,
        "4390": 251,
        "4391": 224,
        "4392": 184,
        "4393": 213,
        "4394": 98,
        "4395": 84,
        "4396": 25,
        "4397": 36,
        "4398": 112,
        "4399": 61,
        "4400": 34,
        "4401": 55,
        "4402": 198,
        "4403": 86,
        "4404": 145,
        "4405": 46,
        "4406": 238,
        "4407": 66,
        "4408": 210,
        "4409": 173,
        "4410": 122,
        "4411": 120,
        "4412": 252,
        "4413": 181,
        "4414": 68,
        "4415": 109,
        "4416": 147,
        "4417": 12,
        "4418": 50,
        "4419": 107,
        "4420": 165,
        "4421": 79,
        "4422": 34,
        "4423": 51,
        "4424": 202,
        "4425": 110,
        "4426": 8,
        "4427": 209,
        "4428": 75,
        "4429": 240,
        "4430": 160,
        "4431": 84,
        "4432": 240,
        "4433": 44,
        "4434": 185,
        "4435": 89,
        "4436": 34,
        "4437": 228,
        "4438": 160,
        "4439": 82,
        "4440": 170,
        "4441": 42,
        "4442": 147,
        "4443": 160,
        "4444": 223,
        "4445": 129,
        "4446": 244,
        "4447": 155,
        "4448": 101,
        "4449": 154,
        "4450": 11,
        "4451": 233,
        "4452": 11,
        "4453": 131,
        "4454": 156,
        "4455": 200,
        "4456": 174,
        "4457": 224,
        "4458": 105,
        "4459": 90,
        "4460": 98,
        "4461": 120,
        "4462": 95,
        "4463": 100,
        "4464": 155,
        "4465": 175,
        "4466": 0,
        "4467": 4,
        "4468": 250,
        "4469": 105,
        "4470": 161,
        "4471": 186,
        "4472": 72,
        "4473": 249,
        "4474": 247,
        "4475": 44,
        "4476": 166,
        "4477": 247,
        "4478": 50,
        "4479": 138,
        "4480": 88,
        "4481": 169,
        "4482": 85,
        "4483": 69,
        "4484": 159,
        "4485": 120,
        "4486": 239,
        "4487": 139,
        "4488": 133,
        "4489": 198,
        "4490": 83,
        "4491": 78,
        "4492": 219,
        "4493": 15,
        "4494": 45,
        "4495": 249,
        "4496": 181,
        "4497": 81,
        "4498": 229,
        "4499": 176,
        "4500": 209,
        "4501": 35,
        "4502": 125,
        "4503": 97,
        "4504": 78,
        "4505": 184,
        "4506": 135,
        "4507": 157,
        "4508": 101,
        "4509": 58,
        "4510": 50,
        "4511": 221,
        "4512": 202,
        "4513": 211,
        "4514": 17,
        "4515": 22,
        "4516": 201,
        "4517": 150,
        "4518": 38,
        "4519": 123,
        "4520": 103,
        "4521": 139,
        "4522": 38,
        "4523": 251,
        "4524": 53,
        "4525": 13,
        "4526": 127,
        "4527": 9,
        "4528": 204,
        "4529": 0,
        "4530": 34,
        "4531": 199,
        "4532": 198,
        "4533": 176,
        "4534": 18,
        "4535": 221,
        "4536": 117,
        "4537": 234,
        "4538": 119,
        "4539": 201,
        "4540": 123,
        "4541": 32,
        "4542": 154,
        "4543": 246,
        "4544": 205,
        "4545": 67,
        "4546": 215,
        "4547": 7,
        "4548": 35,
        "4549": 151,
        "4550": 62,
        "4551": 191,
        "4552": 33,
        "4553": 228,
        "4554": 141,
        "4555": 138,
        "4556": 36,
        "4557": 30,
        "4558": 102,
        "4559": 61,
        "4560": 252,
        "4561": 126,
        "4562": 117,
        "4563": 176,
        "4564": 134,
        "4565": 84,
        "4566": 193,
        "4567": 164,
        "4568": 190,
        "4569": 213,
        "4570": 143,
        "4571": 89,
        "4572": 49,
        "4573": 186,
        "4574": 40,
        "4575": 26,
        "4576": 183,
        "4577": 83,
        "4578": 207,
        "4579": 127,
        "4580": 114,
        "4581": 228,
        "4582": 17,
        "4583": 63,
        "4584": 173,
        "4585": 53,
        "4586": 202,
        "4587": 105,
        "4588": 207,
        "4589": 215,
        "4590": 180,
        "4591": 29,
        "4592": 22,
        "4593": 190,
        "4594": 16,
        "4595": 2,
        "4596": 52,
        "4597": 216,
        "4598": 242,
        "4599": 101,
        "4600": 189,
        "4601": 38,
        "4602": 189,
        "4603": 240,
        "4604": 212,
        "4605": 93,
        "4606": 64,
        "4607": 11,
        "4608": 246,
        "4609": 100,
        "4610": 19,
        "4611": 91,
        "4612": 211,
        "4613": 183,
        "4614": 63,
        "4615": 7,
        "4616": 43,
        "4617": 132,
        "4618": 106,
        "4619": 45,
        "4620": 101,
        "4621": 117,
        "4622": 22,
        "4623": 13,
        "4624": 247,
        "4625": 183,
        "4626": 73,
        "4627": 139,
        "4628": 80,
        "4629": 13,
        "4630": 215,
        "4631": 121,
        "4632": 50,
        "4633": 128,
        "4634": 167,
        "4635": 199,
        "4636": 145,
        "4637": 191,
        "4638": 35,
        "4639": 104,
        "4640": 97,
        "4641": 7,
        "4642": 75,
        "4643": 218,
        "4644": 74,
        "4645": 79,
        "4646": 172,
        "4647": 108,
        "4648": 132,
        "4649": 224,
        "4650": 41,
        "4651": 53,
        "4652": 190,
        "4653": 43,
        "4654": 166,
        "4655": 89,
        "4656": 85,
        "4657": 93,
        "4658": 102,
        "4659": 218,
        "4660": 75,
        "4661": 183,
        "4662": 79,
        "4663": 107,
        "4664": 50,
        "4665": 252,
        "4666": 29,
        "4667": 186,
        "4668": 122,
        "4669": 91,
        "4670": 213,
        "4671": 130,
        "4672": 36,
        "4673": 30,
        "4674": 170,
        "4675": 4,
        "4676": 35,
        "4677": 12,
        "4678": 119,
        "4679": 160,
        "4680": 220,
        "4681": 71,
        "4682": 184,
        "4683": 83,
        "4684": 23,
        "4685": 49,
        "4686": 225,
        "4687": 27,
        "4688": 18,
        "4689": 212,
        "4690": 40,
        "4691": 14,
        "4692": 9,
        "4693": 209,
        "4694": 133,
        "4695": 33,
        "4696": 172,
        "4697": 22,
        "4698": 6,
        "4699": 162,
        "4700": 182,
        "4701": 111,
        "4702": 154,
        "4703": 185,
        "4704": 135,
        "4705": 83,
        "4706": 118,
        "4707": 124,
        "4708": 126,
        "4709": 138,
        "4710": 13,
        "4711": 5,
        "4712": 175,
        "4713": 40,
        "4714": 28,
        "4715": 160,
        "4716": 253,
        "4717": 122,
        "4718": 64,
        "4719": 193,
        "4720": 33,
        "4721": 81,
        "4722": 1,
        "4723": 116,
        "4724": 11,
        "4725": 23,
        "4726": 40,
        "4727": 205,
        "4728": 118,
        "4729": 107,
        "4730": 167,
        "4731": 135,
        "4732": 83,
        "4733": 227,
        "4734": 199,
        "4735": 86,
        "4736": 246,
        "4737": 186,
        "4738": 190,
        "4739": 247,
        "4740": 95,
        "4741": 222,
        "4742": 19,
        "4743": 28,
        "4744": 255,
        "4745": 54,
        "4746": 136,
        "4747": 159,
        "4748": 58,
        "4749": 82,
        "4750": 203,
        "4751": 255,
        "4752": 117,
        "4753": 69,
        "4754": 82,
        "4755": 188,
        "4756": 143,
        "4757": 15,
        "4758": 177,
        "4759": 27,
        "4760": 115,
        "4761": 98,
        "4762": 56,
        "4763": 172,
        "4764": 236,
        "4765": 74,
        "4766": 118,
        "4767": 220,
        "4768": 226,
        "4769": 20,
        "4770": 168,
        "4771": 57,
        "4772": 46,
        "4773": 200,
        "4774": 60,
        "4775": 250,
        "4776": 222,
        "4777": 16,
        "4778": 2,
        "4779": 5,
        "4780": 85,
        "4781": 142,
        "4782": 255,
        "4783": 97,
        "4784": 80,
        "4785": 172,
        "4786": 170,
        "4787": 5,
        "4788": 50,
        "4789": 114,
        "4790": 115,
        "4791": 220,
        "4792": 2,
        "4793": 78,
        "4794": 197,
        "4795": 138,
        "4796": 133,
        "4797": 115,
        "4798": 33,
        "4799": 129,
        "4800": 226,
        "4801": 76,
        "4802": 49,
        "4803": 164,
        "4804": 134,
        "4805": 133,
        "4806": 48,
        "4807": 252,
        "4808": 66,
        "4809": 113,
        "4810": 165,
        "4811": 154,
        "4812": 149,
        "4813": 189,
        "4814": 81,
        "4815": 41,
        "4816": 206,
        "4817": 210,
        "4818": 99,
        "4819": 210,
        "4820": 93,
        "4821": 191,
        "4822": 103,
        "4823": 36,
        "4824": 31,
        "4825": 38,
        "4826": 140,
        "4827": 224,
        "4828": 74,
        "4829": 24,
        "4830": 201,
        "4831": 121,
        "4832": 228,
        "4833": 156,
        "4834": 117,
        "4835": 86,
        "4836": 15,
        "4837": 217,
        "4838": 134,
        "4839": 177,
        "4840": 202,
        "4841": 192,
        "4842": 172,
        "4843": 98,
        "4844": 199,
        "4845": 53,
        "4846": 177,
        "4847": 214,
        "4848": 81,
        "4849": 161,
        "4850": 100,
        "4851": 209,
        "4852": 0,
        "4853": 57,
        "4854": 7,
        "4855": 202,
        "4856": 185,
        "4857": 80,
        "4858": 13,
        "4859": 17,
        "4860": 139,
        "4861": 143,
        "4862": 177,
        "4863": 12,
        "4864": 145,
        "4865": 127,
        "4866": 249,
        "4867": 204,
        "4868": 39,
        "4869": 183,
        "4870": 77,
        "4871": 137,
        "4872": 53,
        "4873": 111,
        "4874": 73,
        "4875": 231,
        "4876": 149,
        "4877": 238,
        "4878": 203,
        "4879": 61,
        "4880": 14,
        "4881": 120,
        "4882": 116,
        "4883": 122,
        "4884": 185,
        "4885": 244,
        "4886": 215,
        "4887": 134,
        "4888": 80,
        "4889": 99,
        "4890": 244,
        "4891": 240,
        "4892": 101,
        "4893": 10,
        "4894": 210,
        "4895": 1,
        "4896": 117,
        "4897": 125,
        "4898": 94,
        "4899": 245,
        "4900": 198,
        "4901": 44,
        "4902": 144,
        "4903": 84,
        "4904": 71,
        "4905": 25,
        "4906": 90,
        "4907": 31,
        "4908": 43,
        "4909": 250,
        "4910": 183,
        "4911": 164,
        "4912": 178,
        "4913": 171,
        "4914": 169,
        "4915": 151,
        "4916": 8,
        "4917": 127,
        "4918": 155,
        "4919": 64,
        "4920": 177,
        "4921": 198,
        "4922": 88,
        "4923": 144,
        "4924": 101,
        "4925": 109,
        "4926": 125,
        "4927": 139,
        "4928": 189,
        "4929": 224,
        "4930": 29,
        "4931": 148,
        "4932": 160,
        "4933": 93,
        "4934": 238,
        "4935": 79,
        "4936": 13,
        "4937": 99,
        "4938": 203,
        "4939": 153,
        "4940": 111,
        "4941": 215,
        "4942": 91,
        "4943": 115,
        "4944": 148,
        "4945": 42,
        "4946": 142,
        "4947": 244,
        "4948": 51,
        "4949": 106,
        "4950": 81,
        "4951": 123,
        "4952": 187,
        "4953": 65,
        "4954": 228,
        "4955": 61,
        "4956": 180,
        "4957": 233,
        "4958": 64,
        "4959": 176,
        "4960": 169,
        "4961": 124,
        "4962": 155,
        "4963": 208,
        "4964": 237,
        "4965": 231,
        "4966": 212,
        "4967": 232,
        "4968": 73,
        "4969": 184,
        "4970": 78,
        "4971": 205,
        "4972": 23,
        "4973": 127,
        "4974": 251,
        "4975": 40,
        "4976": 174,
        "4977": 122,
        "4978": 174,
        "4979": 136,
        "4980": 25,
        "4981": 161,
        "4982": 234,
        "4983": 249,
        "4984": 23,
        "4985": 38,
        "4986": 196,
        "4987": 132,
        "4988": 211,
        "4989": 168,
        "4990": 108,
        "4991": 87,
        "4992": 91,
        "4993": 173,
        "4994": 116,
        "4995": 204,
        "4996": 4,
        "4997": 210,
        "4998": 148,
        "4999": 2,
        "5000": 111,
        "5001": 27,
        "5002": 84,
        "5003": 114,
        "5004": 36,
        "5005": 252,
        "5006": 52,
        "5007": 144,
        "5008": 230,
        "5009": 175,
        "5010": 60,
        "5011": 115,
        "5012": 125,
        "5013": 58,
        "5014": 219,
        "5015": 107,
        "5016": 229,
        "5017": 222,
        "5018": 203,
        "5019": 143,
        "5020": 75,
        "5021": 203,
        "5022": 146,
        "5023": 2,
        "5024": 147,
        "5025": 59,
        "5026": 15,
        "5027": 104,
        "5028": 13,
        "5029": 192,
        "5030": 7,
        "5031": 42,
        "5032": 2,
        "5033": 197,
        "5034": 35,
        "5035": 233,
        "5036": 180,
        "5037": 232,
        "5038": 103,
        "5039": 203,
        "5040": 114,
        "5041": 105,
        "5042": 81,
        "5043": 223,
        "5044": 222,
        "5045": 221,
        "5046": 178,
        "5047": 108,
        "5048": 192,
        "5049": 105,
        "5050": 198,
        "5051": 84,
        "5052": 50,
        "5053": 197,
        "5054": 204,
        "5055": 25,
        "5056": 214,
        "5057": 104,
        "5058": 0,
        "5059": 12,
        "5060": 248,
        "5061": 112,
        "5062": 72,
        "5063": 140,
        "5064": 25,
        "5065": 114,
        "5066": 67,
        "5067": 77,
        "5068": 89,
        "5069": 6,
        "5070": 28,
        "5071": 195,
        "5072": 154,
        "5073": 15,
        "5074": 25,
        "5075": 115,
        "5076": 195,
        "5077": 243,
        "5078": 107,
        "5079": 213,
        "5080": 168,
        "5081": 127,
        "5082": 43,
        "5083": 22,
        "5084": 19,
        "5085": 137,
        "5086": 11,
        "5087": 129,
        "5088": 133,
        "5089": 199,
        "5090": 119,
        "5091": 4,
        "5092": 169,
        "5093": 133,
        "5094": 72,
        "5095": 201,
        "5096": 116,
        "5097": 164,
        "5098": 56,
        "5099": 29,
        "5100": 79,
        "5101": 172,
        "5102": 237,
        "5103": 19,
        "5104": 247,
        "5105": 58,
        "5106": 247,
        "5107": 131,
        "5108": 52,
        "5109": 195,
        "5110": 254,
        "5111": 241,
        "5112": 66,
        "5113": 109,
        "5114": 157,
        "5115": 236,
        "5116": 98,
        "5117": 107,
        "5118": 70,
        "5119": 40,
        "5120": 103,
        "5121": 46,
        "5122": 124,
        "5123": 38,
        "5124": 107,
        "5125": 63,
        "5126": 252,
        "5127": 170,
        "5128": 100,
        "5129": 189,
        "5130": 140,
        "5131": 153,
        "5132": 24,
        "5133": 116,
        "5134": 244,
        "5135": 209,
        "5136": 33,
        "5137": 150,
        "5138": 42,
        "5139": 226,
        "5140": 69,
        "5141": 237,
        "5142": 175,
        "5143": 136,
        "5144": 88,
        "5145": 207,
        "5146": 206,
        "5147": 254,
        "5148": 25,
        "5149": 192,
        "5150": 233,
        "5151": 29,
        "5152": 120,
        "5153": 248,
        "5154": 163,
        "5155": 34,
        "5156": 32,
        "5157": 118,
        "5158": 211,
        "5159": 42,
        "5160": 52,
        "5161": 7,
        "5162": 145,
        "5163": 167,
        "5164": 89,
        "5165": 185,
        "5166": 237,
        "5167": 242,
        "5168": 161,
        "5169": 85,
        "5170": 127,
        "5171": 105,
        "5172": 59,
        "5173": 14,
        "5174": 183,
        "5175": 115,
        "5176": 156,
        "5177": 209,
        "5178": 237,
        "5179": 214,
        "5180": 153,
        "5181": 15,
        "5182": 40,
        "5183": 18,
        "5184": 240,
        "5185": 19,
        "5186": 107,
        "5187": 140,
        "5188": 140,
        "5189": 189,
        "5190": 32,
        "5191": 84,
        "5192": 114,
        "5193": 17,
        "5194": 202,
        "5195": 202,
        "5196": 34,
        "5197": 227,
        "5198": 245,
        "5199": 56,
        "5200": 116,
        "5201": 247,
        "5202": 206,
        "5203": 130,
        "5204": 116,
        "5205": 175,
        "5206": 235,
        "5207": 193,
        "5208": 55,
        "5209": 219,
        "5210": 64,
        "5211": 34,
        "5212": 227,
        "5213": 124,
        "5214": 55,
        "5215": 198,
        "5216": 148,
        "5217": 42,
        "5218": 193,
        "5219": 188,
        "5220": 5,
        "5221": 42,
        "5222": 26,
        "5223": 102,
        "5224": 221,
        "5225": 28,
        "5226": 95,
        "5227": 189,
        "5228": 76,
        "5229": 76,
        "5230": 29,
        "5231": 255,
        "5232": 58,
        "5233": 235,
        "5234": 70,
        "5235": 227,
        "5236": 202,
        "5237": 70,
        "5238": 160,
        "5239": 183,
        "5240": 145,
        "5241": 49,
        "5242": 211,
        "5243": 226,
        "5244": 151,
        "5245": 147,
        "5246": 39,
        "5247": 144,
        "5248": 125,
        "5249": 90,
        "5250": 139,
        "5251": 101,
        "5252": 57,
        "5253": 237,
        "5254": 252,
        "5255": 143,
        "5256": 121,
        "5257": 165,
        "5258": 21,
        "5259": 77,
        "5260": 90,
        "5261": 251,
        "5262": 45,
        "5263": 144,
        "5264": 96,
        "5265": 135,
        "5266": 177,
        "5267": 167,
        "5268": 85,
        "5269": 225,
        "5270": 142,
        "5271": 172,
        "5272": 219,
        "5273": 157,
        "5274": 79,
        "5275": 59,
        "5276": 60,
        "5277": 195,
        "5278": 115,
        "5279": 34,
        "5280": 8,
        "5281": 204,
        "5282": 190,
        "5283": 182,
        "5284": 151,
        "5285": 115,
        "5286": 157,
        "5287": 199,
        "5288": 134,
        "5289": 219,
        "5290": 91,
        "5291": 147,
        "5292": 192,
        "5293": 84,
        "5294": 68,
        "5295": 245,
        "5296": 106,
        "5297": 78,
        "5298": 250,
        "5299": 59,
        "5300": 62,
        "5301": 53,
        "5302": 41,
        "5303": 192,
        "5304": 77,
        "5305": 154,
        "5306": 134,
        "5307": 28,
        "5308": 75,
        "5309": 181,
        "5310": 114,
        "5311": 12,
        "5312": 171,
        "5313": 191,
        "5314": 143,
        "5315": 215,
        "5316": 221,
        "5317": 211,
        "5318": 109,
        "5319": 125,
        "5320": 211,
        "5321": 195,
        "5322": 152,
        "5323": 51,
        "5324": 70,
        "5325": 153,
        "5326": 10,
        "5327": 121,
        "5328": 184,
        "5329": 164,
        "5330": 35,
        "5331": 61,
        "5332": 16,
        "5333": 140,
        "5334": 246,
        "5335": 186,
        "5336": 95,
        "5337": 32,
        "5338": 209,
        "5339": 125,
        "5340": 200,
        "5341": 44,
        "5342": 75,
        "5343": 38,
        "5344": 29,
        "5345": 123,
        "5346": 244,
        "5347": 69,
        "5348": 134,
        "5349": 79,
        "5350": 239,
        "5351": 29,
        "5352": 28,
        "5353": 226,
        "5354": 147,
        "5355": 255,
        "5356": 0,
        "5357": 35,
        "5358": 191,
        "5359": 72,
        "5360": 73,
        "5361": 209,
        "5362": 38,
        "5363": 82,
        "5364": 192,
        "5365": 18,
        "5366": 215,
        "5367": 167,
        "5368": 202,
        "5369": 82,
        "5370": 104,
        "5371": 42,
        "5372": 197,
        "5373": 88,
        "5374": 234,
        "5375": 59,
        "5376": 106,
        "5377": 158,
        "5378": 46,
        "5379": 250,
        "5380": 254,
        "5381": 12,
        "5382": 58,
        "5383": 36,
        "5384": 163,
        "5385": 165,
        "5386": 241,
        "5387": 194,
        "5388": 145,
        "5389": 108,
        "5390": 118,
        "5391": 100,
        "5392": 206,
        "5393": 82,
        "5394": 208,
        "5395": 219,
        "5396": 49,
        "5397": 134,
        "5398": 113,
        "5399": 183,
        "5400": 28,
        "5401": 46,
        "5402": 49,
        "5403": 123,
        "5404": 147,
        "5405": 197,
        "5406": 163,
        "5407": 163,
        "5408": 193,
        "5409": 149,
        "5410": 29,
        "5411": 211,
        "5412": 237,
        "5413": 29,
        "5414": 218,
        "5415": 255,
        "5416": 19,
        "5417": 122,
        "5418": 152,
        "5419": 68,
        "5420": 175,
        "5421": 100,
        "5422": 38,
        "5423": 101,
        "5424": 186,
        "5425": 194,
        "5426": 197,
        "5427": 234,
        "5428": 48,
        "5429": 240,
        "5430": 128,
        "5431": 182,
        "5432": 69,
        "5433": 217,
        "5434": 112,
        "5435": 226,
        "5436": 52,
        "5437": 0,
        "5438": 249,
        "5439": 117,
        "5440": 64,
        "5441": 177,
        "5442": 218,
        "5443": 25,
        "5444": 174,
        "5445": 209,
        "5446": 74,
        "5447": 236,
        "5448": 76,
        "5449": 230,
        "5450": 14,
        "5451": 122,
        "5452": 42,
        "5453": 243,
        "5454": 78,
        "5455": 166,
        "5456": 62,
        "5457": 71,
        "5458": 253,
        "5459": 38,
        "5460": 119,
        "5461": 126,
        "5462": 236,
        "5463": 101,
        "5464": 37,
        "5465": 128,
        "5466": 198,
        "5467": 165,
        "5468": 171,
        "5469": 2,
        "5470": 135,
        "5471": 148,
        "5472": 87,
        "5473": 195,
        "5474": 184,
        "5475": 132,
        "5476": 147,
        "5477": 179,
        "5478": 77,
        "5479": 103,
        "5480": 208,
        "5481": 204,
        "5482": 199,
        "5483": 29,
        "5484": 161,
        "5485": 155,
        "5486": 247,
        "5487": 222,
        "5488": 125,
        "5489": 58,
        "5490": 174,
        "5491": 215,
        "5492": 215,
        "5493": 216,
        "5494": 235,
        "5495": 91,
        "5496": 186,
        "5497": 103,
        "5498": 69,
        "5499": 72,
        "5500": 25,
        "5501": 172,
        "5502": 115,
        "5503": 21,
        "5504": 184,
        "5505": 79,
        "5506": 104,
        "5507": 129,
        "5508": 239,
        "5509": 98,
        "5510": 120,
        "5511": 237,
        "5512": 78,
        "5513": 104,
        "5514": 225,
        "5515": 159,
        "5516": 122,
        "5517": 152,
        "5518": 65,
        "5519": 90,
        "5520": 1,
        "5521": 138,
        "5522": 42,
        "5523": 203,
        "5524": 176,
        "5525": 133,
        "5526": 5,
        "5527": 228,
        "5528": 145,
        "5529": 133,
        "5530": 26,
        "5531": 167,
        "5532": 116,
        "5533": 206,
        "5534": 190,
        "5535": 248,
        "5536": 118,
        "5537": 1,
        "5538": 91,
        "5539": 116,
        "5540": 116,
        "5541": 92,
        "5542": 108,
        "5543": 175,
        "5544": 41,
        "5545": 223,
        "5546": 42,
        "5547": 214,
        "5548": 206,
        "5549": 211,
        "5550": 146,
        "5551": 110,
        "5552": 227,
        "5553": 26,
        "5554": 27,
        "5555": 172,
        "5556": 156,
        "5557": 63,
        "5558": 76,
        "5559": 40,
        "5560": 244,
        "5561": 224,
        "5562": 20,
        "5563": 0,
        "5564": 198,
        "5565": 222,
        "5566": 156,
        "5567": 198,
        "5568": 164,
        "5569": 115,
        "5570": 154,
        "5571": 140,
        "5572": 33,
        "5573": 19,
        "5574": 66,
        "5575": 155,
        "5576": 24,
        "5577": 222,
        "5578": 82,
        "5579": 11,
        "5580": 139,
        "5581": 161,
        "5582": 93,
        "5583": 253,
        "5584": 236,
        "5585": 92,
        "5586": 21,
        "5587": 239,
        "5588": 229,
        "5589": 155,
        "5590": 194,
        "5591": 240,
        "5592": 88,
        "5593": 28,
        "5594": 62,
        "5595": 144,
        "5596": 95,
        "5597": 91,
        "5598": 134,
        "5599": 200,
        "5600": 126,
        "5601": 83,
        "5602": 48,
        "5603": 2,
        "5604": 221,
        "5605": 224,
        "5606": 9,
        "5607": 201,
        "5608": 0,
        "5609": 111,
        "5610": 23,
        "5611": 26,
        "5612": 201,
        "5613": 51,
        "5614": 223,
        "5615": 104,
        "5616": 249,
        "5617": 76,
        "5618": 88,
        "5619": 11,
        "5620": 116,
        "5621": 243,
        "5622": 199,
        "5623": 116,
        "5624": 138,
        "5625": 143,
        "5626": 110,
        "5627": 109,
        "5628": 73,
        "5629": 137,
        "5630": 118,
        "5631": 189,
        "5632": 171,
        "5633": 38,
        "5634": 155,
        "5635": 219,
        "5636": 17,
        "5637": 99,
        "5638": 167,
        "5639": 224,
        "5640": 21,
        "5641": 1,
        "5642": 78,
        "5643": 24,
        "5644": 77,
        "5645": 27,
        "5646": 64,
        "5647": 18,
        "5648": 69,
        "5649": 140,
        "5650": 187,
        "5651": 178,
        "5652": 187,
        "5653": 72,
        "5654": 33,
        "5655": 209,
        "5656": 67,
        "5657": 185,
        "5658": 132,
        "5659": 126,
        "5660": 95,
        "5661": 144,
        "5662": 35,
        "5663": 45,
        "5664": 253,
        "5665": 49,
        "5666": 191,
        "5667": 4,
        "5668": 44,
        "5669": 157,
        "5670": 30,
        "5671": 152,
        "5672": 165,
        "5673": 84,
        "5674": 126,
        "5675": 225,
        "5676": 66,
        "5677": 241,
        "5678": 125,
        "5679": 16,
        "5680": 221,
        "5681": 116,
        "5682": 217,
        "5683": 88,
        "5684": 9,
        "5685": 19,
        "5686": 41,
        "5687": 97,
        "5688": 66,
        "5689": 23,
        "5690": 90,
        "5691": 153,
        "5692": 239,
        "5693": 190,
        "5694": 146,
        "5695": 232,
        "5696": 87,
        "5697": 105,
        "5698": 156,
        "5699": 207,
        "5700": 117,
        "5701": 205,
        "5702": 29,
        "5703": 204,
        "5704": 220,
        "5705": 42,
        "5706": 232,
        "5707": 237,
        "5708": 71,
        "5709": 104,
        "5710": 77,
        "5711": 244,
        "5712": 220,
        "5713": 233,
        "5714": 17,
        "5715": 71,
        "5716": 16,
        "5717": 244,
        "5718": 180,
        "5719": 47,
        "5720": 53,
        "5721": 241,
        "5722": 94,
        "5723": 40,
        "5724": 81,
        "5725": 61,
        "5726": 147,
        "5727": 13,
        "5728": 14,
        "5729": 57,
        "5730": 191,
        "5731": 45,
        "5732": 204,
        "5733": 116,
        "5734": 250,
        "5735": 178,
        "5736": 232,
        "5737": 184,
        "5738": 68,
        "5739": 100,
        "5740": 220,
        "5741": 218,
        "5742": 158,
        "5743": 181,
        "5744": 25,
        "5745": 202,
        "5746": 196,
        "5747": 227,
        "5748": 248,
        "5749": 117,
        "5750": 23,
        "5751": 248,
        "5752": 147,
        "5753": 237,
        "5754": 184,
        "5755": 97,
        "5756": 252,
        "5757": 82,
        "5758": 30,
        "5759": 50,
        "5760": 232,
        "5761": 151,
        "5762": 186,
        "5763": 178,
        "5764": 129,
        "5765": 45,
        "5766": 49,
        "5767": 56,
        "5768": 226,
        "5769": 33,
        "5770": 130,
        "5771": 230,
        "5772": 225,
        "5773": 171,
        "5774": 164,
        "5775": 134,
        "5776": 100,
        "5777": 143,
        "5778": 171,
        "5779": 184,
        "5780": 183,
        "5781": 244,
        "5782": 247,
        "5783": 120,
        "5784": 80,
        "5785": 160,
        "5786": 193,
        "5787": 239,
        "5788": 51,
        "5789": 122,
        "5790": 119,
        "5791": 5,
        "5792": 229,
        "5793": 52,
        "5794": 99,
        "5795": 156,
        "5796": 93,
        "5797": 60,
        "5798": 119,
        "5799": 144,
        "5800": 144,
        "5801": 133,
        "5802": 125,
        "5803": 14,
        "5804": 140,
        "5805": 209,
        "5806": 10,
        "5807": 233,
        "5808": 138,
        "5809": 244,
        "5810": 189,
        "5811": 133,
        "5812": 73,
        "5813": 155,
        "5814": 193,
        "5815": 160,
        "5816": 146,
        "5817": 74,
        "5818": 114,
        "5819": 76,
        "5820": 147,
        "5821": 3,
        "5822": 124,
        "5823": 206,
        "5824": 72,
        "5825": 232,
        "5826": 84,
        "5827": 170,
        "5828": 27,
        "5829": 74,
        "5830": 38,
        "5831": 55,
        "5832": 168,
        "5833": 106,
        "5834": 157,
        "5835": 135,
        "5836": 34,
        "5837": 54,
        "5838": 231,
        "5839": 35,
        "5840": 217,
        "5841": 193,
        "5842": 23,
        "5843": 64,
        "5844": 179,
        "5845": 221,
        "5846": 109,
        "5847": 121,
        "5848": 108,
        "5849": 116,
        "5850": 234,
        "5851": 137,
        "5852": 46,
        "5853": 240,
        "5854": 187,
        "5855": 205,
        "5856": 133,
        "5857": 146,
        "5858": 215,
        "5859": 92,
        "5860": 157,
        "5861": 249,
        "5862": 61,
        "5863": 241,
        "5864": 170,
        "5865": 228,
        "5866": 240,
        "5867": 18,
        "5868": 195,
        "5869": 128,
        "5870": 199,
        "5871": 198,
        "5872": 10,
        "5873": 194,
        "5874": 235,
        "5875": 219,
        "5876": 1,
        "5877": 65,
        "5878": 103,
        "5879": 10,
        "5880": 227,
        "5881": 141,
        "5882": 227,
        "5883": 158,
        "5884": 6,
        "5885": 244,
        "5886": 78,
        "5887": 6,
        "5888": 106,
        "5889": 49,
        "5890": 216,
        "5891": 158,
        "5892": 220,
        "5893": 56,
        "5894": 160,
        "5895": 34,
        "5896": 155,
        "5897": 165,
        "5898": 164,
        "5899": 183,
        "5900": 218,
        "5901": 7,
        "5902": 208,
        "5903": 159,
        "5904": 240,
        "5905": 37,
        "5906": 18,
        "5907": 82,
        "5908": 243,
        "5909": 52,
        "5910": 135,
        "5911": 196,
        "5912": 76,
        "5913": 48,
        "5914": 119,
        "5915": 158,
        "5916": 57,
        "5917": 103,
        "5918": 125,
        "5919": 248,
        "5920": 38,
        "5921": 217,
        "5922": 96,
        "5923": 51,
        "5924": 181,
        "5925": 57,
        "5926": 5,
        "5927": 142,
        "5928": 209,
        "5929": 175,
        "5930": 188,
        "5931": 250,
        "5932": 178,
        "5933": 141,
        "5934": 129,
        "5935": 104,
        "5936": 112,
        "5937": 138,
        "5938": 164,
        "5939": 48,
        "5940": 131,
        "5941": 237,
        "5942": 219,
        "5943": 59,
        "5944": 211,
        "5945": 239,
        "5946": 153,
        "5947": 128,
        "5948": 219,
        "5949": 57,
        "5950": 220,
        "5951": 208,
        "5952": 212,
        "5953": 111,
        "5954": 161,
        "5955": 111,
        "5956": 187,
        "5957": 113,
        "5958": 204,
        "5959": 243,
        "5960": 94,
        "5961": 236,
        "5962": 158,
        "5963": 25,
        "5964": 9,
        "5965": 26,
        "5966": 4,
        "5967": 250,
        "5968": 42,
        "5969": 117,
        "5970": 28,
        "5971": 15,
        "5972": 43,
        "5973": 239,
        "5974": 35,
        "5975": 203,
        "5976": 170,
        "5977": 91,
        "5978": 108,
        "5979": 119,
        "5980": 198,
        "5981": 112,
        "5982": 227,
        "5983": 234,
        "5984": 117,
        "5985": 214,
        "5986": 38,
        "5987": 247,
        "5988": 162,
        "5989": 28,
        "5990": 40,
        "5991": 203,
        "5992": 199,
        "5993": 54,
        "5994": 89,
        "5995": 39,
        "5996": 205,
        "5997": 164,
        "5998": 137,
        "5999": 180,
        "6000": 117,
        "6001": 7,
        "6002": 205,
        "6003": 51,
        "6004": 154,
        "6005": 163,
        "6006": 232,
        "6007": 197,
        "6008": 82,
        "6009": 59,
        "6010": 35,
        "6011": 128,
        "6012": 152,
        "6013": 224,
        "6014": 153,
        "6015": 24,
        "6016": 1,
        "6017": 122,
        "6018": 125,
        "6019": 109,
        "6020": 162,
        "6021": 114,
        "6022": 186,
        "6023": 250,
        "6024": 203,
        "6025": 121,
        "6026": 227,
        "6027": 243,
        "6028": 251,
        "6029": 125,
        "6030": 174,
        "6031": 27,
        "6032": 29,
        "6033": 65,
        "6034": 73,
        "6035": 112,
        "6036": 26,
        "6037": 130,
        "6038": 66,
        "6039": 25,
        "6040": 27,
        "6041": 207,
        "6042": 112,
        "6043": 32,
        "6044": 103,
        "6045": 206,
        "6046": 85,
        "6047": 254,
        "6048": 170,
        "6049": 175,
        "6050": 233,
        "6051": 50,
        "6052": 20,
        "6053": 252,
        "6054": 210,
        "6055": 53,
        "6056": 166,
        "6057": 21,
        "6058": 24,
        "6059": 23,
        "6060": 187,
        "6061": 186,
        "6062": 28,
        "6063": 144,
        "6064": 249,
        "6065": 99,
        "6066": 6,
        "6067": 125,
        "6068": 16,
        "6069": 188,
        "6070": 21,
        "6071": 161,
        "6072": 98,
        "6073": 175,
        "6074": 51,
        "6075": 187,
        "6076": 84,
        "6077": 130,
        "6078": 107,
        "6079": 37,
        "6080": 242,
        "6081": 107,
        "6082": 242,
        "6083": 140,
        "6084": 111,
        "6085": 64,
        "6086": 222,
        "6087": 169,
        "6088": 205,
        "6089": 125,
        "6090": 76,
        "6091": 24,
        "6092": 38,
        "6093": 223,
        "6094": 131,
        "6095": 14,
        "6096": 247,
        "6097": 165,
        "6098": 78,
        "6099": 220,
        "6100": 59,
        "6101": 85,
        "6102": 57,
        "6103": 135,
        "6104": 131,
        "6105": 155,
        "6106": 45,
        "6107": 219,
        "6108": 88,
        "6109": 42,
        "6110": 131,
        "6111": 57,
        "6112": 251,
        "6113": 236,
        "6114": 129,
        "6115": 42,
        "6116": 48,
        "6117": 68,
        "6118": 23,
        "6119": 175,
        "6120": 76,
        "6121": 40,
        "6122": 202,
        "6123": 119,
        "6124": 218,
        "6125": 92,
        "6126": 158,
        "6127": 3,
        "6128": 81,
        "6129": 183,
        "6130": 208,
        "6131": 183,
        "6132": 106,
        "6133": 170,
        "6134": 56,
        "6135": 240,
        "6136": 94,
        "6137": 58,
        "6138": 168,
        "6139": 145,
        "6140": 4,
        "6141": 193,
        "6142": 177,
        "6143": 7,
        "6144": 113,
        "6145": 116,
        "6146": 222,
        "6147": 196,
        "6148": 159,
        "6149": 171,
        "6150": 177,
        "6151": 126,
        "6152": 59,
        "6153": 121,
        "6154": 198,
        "6155": 59,
        "6156": 120,
        "6157": 136,
        "6158": 158,
        "6159": 103,
        "6160": 129,
        "6161": 183,
        "6162": 42,
        "6163": 212,
        "6164": 32,
        "6165": 65,
        "6166": 171,
        "6167": 242,
        "6168": 46,
        "6169": 60,
        "6170": 124,
        "6171": 228,
        "6172": 89,
        "6173": 62,
        "6174": 17,
        "6175": 82,
        "6176": 36,
        "6177": 118,
        "6178": 102,
        "6179": 88,
        "6180": 2,
        "6181": 102,
        "6182": 209,
        "6183": 7,
        "6184": 237,
        "6185": 84,
        "6186": 205,
        "6187": 6,
        "6188": 209,
        "6189": 40,
        "6190": 105,
        "6191": 214,
        "6192": 190,
        "6193": 161,
        "6194": 20,
        "6195": 115,
        "6196": 127,
        "6197": 52,
        "6198": 4,
        "6199": 0,
        "6200": 70,
        "6201": 175,
        "6202": 161,
        "6203": 27,
        "6204": 223,
        "6205": 9,
        "6206": 148,
        "6207": 24,
        "6208": 210,
        "6209": 203,
        "6210": 120,
        "6211": 69,
        "6212": 130,
        "6213": 72,
        "6214": 231,
        "6215": 191,
        "6216": 86,
        "6217": 5,
        "6218": 213,
        "6219": 172,
        "6220": 223,
        "6221": 105,
        "6222": 103,
        "6223": 26,
        "6224": 165,
        "6225": 191,
        "6226": 146,
        "6227": 227,
        "6228": 203,
        "6229": 236,
        "6230": 206,
        "6231": 66,
        "6232": 157,
        "6233": 49,
        "6234": 252,
        "6235": 68,
        "6236": 195,
        "6237": 2,
        "6238": 90,
        "6239": 91,
        "6240": 251,
        "6241": 211,
        "6242": 152,
        "6243": 66,
        "6244": 178,
        "6245": 65,
        "6246": 181,
        "6247": 198,
        "6248": 73,
        "6249": 72,
        "6250": 76,
        "6251": 185,
        "6252": 200,
        "6253": 148,
        "6254": 180,
        "6255": 5,
        "6256": 200,
        "6257": 97,
        "6258": 3,
        "6259": 89,
        "6260": 149,
        "6261": 73,
        "6262": 94,
        "6263": 232,
        "6264": 133,
        "6265": 46,
        "6266": 6,
        "6267": 247,
        "6268": 215,
        "6269": 185,
        "6270": 92,
        "6271": 111,
        "6272": 98,
        "6273": 121,
        "6274": 123,
        "6275": 232,
        "6276": 13,
        "6277": 142,
        "6278": 73,
        "6279": 152,
        "6280": 230,
        "6281": 70,
        "6282": 181,
        "6283": 24,
        "6284": 56,
        "6285": 221,
        "6286": 146,
        "6287": 173,
        "6288": 40,
        "6289": 166,
        "6290": 246,
        "6291": 214,
        "6292": 221,
        "6293": 225,
        "6294": 151,
        "6295": 223,
        "6296": 210,
        "6297": 176,
        "6298": 46,
        "6299": 109,
        "6300": 230,
        "6301": 176,
        "6302": 131,
        "6303": 187,
        "6304": 56,
        "6305": 229,
        "6306": 250,
        "6307": 171,
        "6308": 92,
        "6309": 61,
        "6310": 35,
        "6311": 191,
        "6312": 42,
        "6313": 34,
        "6314": 234,
        "6315": 53,
        "6316": 204,
        "6317": 64,
        "6318": 47,
        "6319": 79,
        "6320": 217,
        "6321": 113,
        "6322": 173,
        "6323": 130,
        "6324": 163,
        "6325": 28,
        "6326": 48,
        "6327": 214,
        "6328": 54,
        "6329": 192,
        "6330": 120,
        "6331": 167,
        "6332": 138,
        "6333": 93,
        "6334": 231,
        "6335": 220,
        "6336": 53,
        "6337": 54,
        "6338": 98,
        "6339": 203,
        "6340": 129,
        "6341": 7,
        "6342": 158,
        "6343": 94,
        "6344": 32,
        "6345": 213,
        "6346": 178,
        "6347": 185,
        "6348": 111,
        "6349": 94,
        "6350": 42,
        "6351": 190,
        "6352": 26,
        "6353": 159,
        "6354": 58,
        "6355": 192,
        "6356": 230,
        "6357": 35,
        "6358": 134,
        "6359": 28,
        "6360": 24,
        "6361": 58,
        "6362": 55,
        "6363": 82,
        "6364": 189,
        "6365": 131,
        "6366": 90,
        "6367": 69,
        "6368": 49,
        "6369": 231,
        "6370": 29,
        "6371": 23,
        "6372": 219,
        "6373": 205,
        "6374": 45,
        "6375": 97,
        "6376": 182,
        "6377": 234,
        "6378": 200,
        "6379": 106,
        "6380": 98,
        "6381": 149,
        "6382": 251,
        "6383": 82,
        "6384": 94,
        "6385": 207,
        "6386": 195,
        "6387": 140,
        "6388": 84,
        "6389": 1,
        "6390": 251,
        "6391": 141,
        "6392": 113,
        "6393": 49,
        "6394": 94,
        "6395": 63,
        "6396": 11,
        "6397": 216,
        "6398": 40,
        "6399": 130,
        "6400": 222,
        "6401": 145,
        "6402": 193,
        "6403": 9,
        "6404": 142,
        "6405": 234,
        "6406": 225,
        "6407": 48,
        "6408": 154,
        "6409": 27,
        "6410": 118,
        "6411": 118,
        "6412": 221,
        "6413": 43,
        "6414": 109,
        "6415": 43,
        "6416": 77,
        "6417": 252,
        "6418": 5,
        "6419": 49,
        "6420": 244,
        "6421": 75,
        "6422": 121,
        "6423": 7,
        "6424": 34,
        "6425": 237,
        "6426": 179,
        "6427": 222,
        "6428": 80,
        "6429": 112,
        "6430": 152,
        "6431": 155,
        "6432": 201,
        "6433": 1,
        "6434": 180,
        "6435": 25,
        "6436": 139,
        "6437": 180,
        "6438": 159,
        "6439": 47,
        "6440": 11,
        "6441": 7,
        "6442": 105,
        "6443": 180,
        "6444": 38,
        "6445": 221,
        "6446": 207,
        "6447": 69,
        "6448": 173,
        "6449": 137,
        "6450": 160,
        "6451": 2,
        "6452": 245,
        "6453": 3,
        "6454": 148,
        "6455": 7,
        "6456": 40,
        "6457": 44,
        "6458": 255,
        "6459": 73,
        "6460": 131,
        "6461": 36,
        "6462": 39,
        "6463": 173,
        "6464": 119,
        "6465": 167,
        "6466": 190,
        "6467": 58,
        "6468": 156,
        "6469": 154,
        "6470": 80,
        "6471": 125,
        "6472": 122,
        "6473": 24,
        "6474": 192,
        "6475": 67,
        "6476": 43,
        "6477": 119,
        "6478": 121,
        "6479": 57,
        "6480": 234,
        "6481": 187,
        "6482": 114,
        "6483": 147,
        "6484": 9,
        "6485": 129,
        "6486": 207,
        "6487": 59,
        "6488": 82,
        "6489": 248,
        "6490": 213,
        "6491": 1,
        "6492": 214,
        "6493": 198,
        "6494": 201,
        "6495": 203,
        "6496": 117,
        "6497": 233,
        "6498": 29,
        "6499": 50,
        "6500": 43,
        "6501": 14,
        "6502": 228,
        "6503": 107,
        "6504": 31,
        "6505": 106,
        "6506": 83,
        "6507": 101,
        "6508": 132,
        "6509": 102,
        "6510": 230,
        "6511": 199,
        "6512": 123,
        "6513": 55,
        "6514": 238,
        "6515": 96,
        "6516": 124,
        "6517": 130,
        "6518": 86,
        "6519": 103,
        "6520": 201,
        "6521": 14,
        "6522": 69,
        "6523": 144,
        "6524": 204,
        "6525": 207,
        "6526": 47,
        "6527": 14,
        "6528": 166,
        "6529": 145,
        "6530": 35,
        "6531": 117,
        "6532": 137,
        "6533": 43,
        "6534": 128,
        "6535": 182,
        "6536": 103,
        "6537": 99,
        "6538": 88,
        "6539": 192,
        "6540": 79,
        "6541": 44,
        "6542": 217,
        "6543": 92,
        "6544": 35,
        "6545": 121,
        "6546": 30,
        "6547": 19,
        "6548": 87,
        "6549": 105,
        "6550": 197,
        "6551": 2,
        "6552": 76,
        "6553": 162,
        "6554": 53,
        "6555": 84,
        "6556": 107,
        "6557": 166,
        "6558": 175,
        "6559": 161,
        "6560": 157,
        "6561": 135,
        "6562": 115,
        "6563": 62,
        "6564": 192,
        "6565": 52,
        "6566": 49,
        "6567": 172,
        "6568": 72,
        "6569": 135,
        "6570": 205,
        "6571": 236,
        "6572": 251,
        "6573": 121,
        "6574": 45,
        "6575": 79,
        "6576": 122,
        "6577": 212,
        "6578": 37,
        "6579": 87,
        "6580": 80,
        "6581": 20,
        "6582": 18,
        "6583": 111,
        "6584": 38,
        "6585": 50,
        "6586": 206,
        "6587": 147,
        "6588": 38,
        "6589": 244,
        "6590": 77,
        "6591": 60,
        "6592": 43,
        "6593": 82,
        "6594": 200,
        "6595": 212,
        "6596": 23,
        "6597": 93,
        "6598": 172,
        "6599": 86,
        "6600": 252,
        "6601": 133,
        "6602": 144,
        "6603": 52,
        "6604": 6,
        "6605": 175,
        "6606": 180,
        "6607": 165,
        "6608": 152,
        "6609": 109,
        "6610": 218,
        "6611": 227,
        "6612": 254,
        "6613": 138,
        "6614": 82,
        "6615": 79,
        "6616": 67,
        "6617": 198,
        "6618": 139,
        "6619": 58,
        "6620": 103,
        "6621": 191,
        "6622": 242,
        "6623": 66,
        "6624": 179,
        "6625": 9,
        "6626": 11,
        "6627": 218,
        "6628": 169,
        "6629": 73,
        "6630": 55,
        "6631": 142,
        "6632": 168,
        "6633": 30,
        "6634": 248,
        "6635": 121,
        "6636": 27,
        "6637": 86,
        "6638": 224,
        "6639": 100,
        "6640": 244,
        "6641": 68,
        "6642": 93,
        "6643": 194,
        "6644": 234,
        "6645": 136,
        "6646": 153,
        "6647": 97,
        "6648": 78,
        "6649": 76,
        "6650": 56,
        "6651": 152,
        "6652": 241,
        "6653": 0,
        "6654": 6,
        "6655": 41,
        "6656": 70,
        "6657": 93,
        "6658": 233,
        "6659": 180,
        "6660": 64,
        "6661": 32,
        "6662": 114,
        "6663": 4,
        "6664": 45,
        "6665": 161,
        "6666": 66,
        "6667": 35,
        "6668": 150,
        "6669": 12,
        "6670": 166,
        "6671": 26,
        "6672": 57,
        "6673": 117,
        "6674": 52,
        "6675": 46,
        "6676": 172,
        "6677": 101,
        "6678": 200,
        "6679": 157,
        "6680": 26,
        "6681": 141,
        "6682": 10,
        "6683": 115,
        "6684": 139,
        "6685": 231,
        "6686": 187,
        "6687": 193,
        "6688": 108,
        "6689": 216,
        "6690": 174,
        "6691": 15,
        "6692": 13,
        "6693": 68,
        "6694": 213,
        "6695": 65,
        "6696": 146,
        "6697": 19,
        "6698": 107,
        "6699": 19,
        "6700": 181,
        "6701": 43,
        "6702": 249,
        "6703": 253,
        "6704": 243,
        "6705": 51,
        "6706": 59,
        "6707": 42,
        "6708": 130,
        "6709": 107,
        "6710": 172,
        "6711": 158,
        "6712": 135,
        "6713": 226,
        "6714": 235,
        "6715": 78,
        "6716": 190,
        "6717": 133,
        "6718": 29,
        "6719": 18,
        "6720": 43,
        "6721": 205,
        "6722": 202,
        "6723": 95,
        "6724": 89,
        "6725": 254,
        "6726": 183,
        "6727": 31,
        "6728": 114,
        "6729": 230,
        "6730": 209,
        "6731": 167,
        "6732": 201,
        "6733": 145,
        "6734": 128,
        "6735": 129,
        "6736": 73,
        "6737": 201,
        "6738": 177,
        "6739": 91,
        "6740": 187,
        "6741": 115,
        "6742": 60,
        "6743": 136,
        "6744": 60,
        "6745": 59,
        "6746": 180,
        "6747": 107,
        "6748": 221,
        "6749": 217,
        "6750": 143,
        "6751": 20,
        "6752": 166,
        "6753": 1,
        "6754": 101,
        "6755": 153,
        "6756": 197,
        "6757": 147,
        "6758": 177,
        "6759": 120,
        "6760": 1,
        "6761": 22,
        "6762": 155,
        "6763": 2,
        "6764": 216,
        "6765": 94,
        "6766": 31,
        "6767": 127,
        "6768": 207,
        "6769": 195,
        "6770": 97,
        "6771": 55,
        "6772": 101,
        "6773": 252,
        "6774": 55,
        "6775": 40,
        "6776": 57,
        "6777": 210,
        "6778": 228,
        "6779": 235,
        "6780": 74,
        "6781": 173,
        "6782": 147,
        "6783": 66,
        "6784": 193,
        "6785": 75,
        "6786": 1,
        "6787": 54,
        "6788": 207,
        "6789": 117,
        "6790": 87,
        "6791": 199,
        "6792": 221,
        "6793": 93,
        "6794": 70,
        "6795": 40,
        "6796": 180,
        "6797": 192,
        "6798": 240,
        "6799": 173,
        "6800": 58,
        "6801": 182,
        "6802": 9,
        "6803": 70,
        "6804": 9,
        "6805": 136,
        "6806": 239,
        "6807": 237,
        "6808": 52,
        "6809": 174,
        "6810": 75,
        "6811": 108,
        "6812": 100,
        "6813": 243,
        "6814": 238,
        "6815": 161,
        "6816": 38,
        "6817": 184,
        "6818": 240,
        "6819": 229,
        "6820": 131,
        "6821": 19,
        "6822": 39,
        "6823": 32,
        "6824": 109,
        "6825": 109,
        "6826": 44,
        "6827": 231,
        "6828": 185,
        "6829": 177,
        "6830": 58,
        "6831": 170,
        "6832": 152,
        "6833": 195,
        "6834": 112,
        "6835": 80,
        "6836": 121,
        "6837": 252,
        "6838": 32,
        "6839": 160,
        "6840": 76,
        "6841": 128,
        "6842": 39,
        "6843": 88,
        "6844": 112,
        "6845": 19,
        "6846": 249,
        "6847": 80,
        "6848": 129,
        "6849": 13,
        "6850": 20,
        "6851": 114,
        "6852": 28,
        "6853": 187,
        "6854": 128,
        "6855": 94,
        "6856": 156,
        "6857": 213,
        "6858": 74,
        "6859": 5,
        "6860": 0,
        "6861": 4,
        "6862": 111,
        "6863": 100,
        "6864": 107,
        "6865": 244,
        "6866": 142,
        "6867": 80,
        "6868": 252,
        "6869": 70,
        "6870": 134,
        "6871": 227,
        "6872": 223,
        "6873": 170,
        "6874": 23,
        "6875": 210,
        "6876": 219,
        "6877": 239,
        "6878": 21,
        "6879": 117,
        "6880": 115,
        "6881": 209,
        "6882": 19,
        "6883": 75,
        "6884": 97,
        "6885": 169,
        "6886": 221,
        "6887": 166,
        "6888": 36,
        "6889": 14,
        "6890": 76,
        "6891": 32,
        "6892": 214,
        "6893": 203,
        "6894": 18,
        "6895": 118,
        "6896": 154,
        "6897": 194,
        "6898": 94,
        "6899": 158,
        "6900": 216,
        "6901": 13,
        "6902": 248,
        "6903": 8,
        "6904": 251,
        "6905": 232,
        "6906": 199,
        "6907": 192,
        "6908": 51,
        "6909": 22,
        "6910": 144,
        "6911": 122,
        "6912": 49,
        "6913": 146,
        "6914": 140,
        "6915": 248,
        "6916": 163,
        "6917": 5,
        "6918": 179,
        "6919": 63,
        "6920": 122,
        "6921": 36,
        "6922": 76,
        "6923": 174,
        "6924": 11,
        "6925": 111,
        "6926": 21,
        "6927": 147,
        "6928": 60,
        "6929": 241,
        "6930": 200,
        "6931": 100,
        "6932": 46,
        "6933": 67,
        "6934": 219,
        "6935": 255,
        "6936": 87,
        "6937": 59,
        "6938": 94,
        "6939": 250,
        "6940": 95,
        "6941": 201,
        "6942": 184,
        "6943": 170,
        "6944": 134,
        "6945": 65,
        "6946": 63,
        "6947": 125,
        "6948": 12,
        "6949": 157,
        "6950": 106,
        "6951": 155,
        "6952": 136,
        "6953": 123,
        "6954": 191,
        "6955": 205,
        "6956": 200,
        "6957": 1,
        "6958": 222,
        "6959": 105,
        "6960": 53,
        "6961": 84,
        "6962": 76,
        "6963": 7,
        "6964": 19,
        "6965": 98,
        "6966": 62,
        "6967": 125,
        "6968": 0,
        "6969": 34,
        "6970": 64,
        "6971": 32,
        "6972": 102,
        "6973": 179,
        "6974": 97,
        "6975": 84,
        "6976": 204,
        "6977": 55,
        "6978": 53,
        "6979": 181,
        "6980": 15,
        "6981": 236,
        "6982": 15,
        "6983": 133,
        "6984": 41,
        "6985": 162,
        "6986": 205,
        "6987": 74,
        "6988": 45,
        "6989": 60,
        "6990": 226,
        "6991": 106,
        "6992": 169,
        "6993": 39,
        "6994": 196,
        "6995": 241,
        "6996": 225,
        "6997": 255,
        "6998": 104,
        "6999": 207,
        "7000": 126,
        "7001": 133,
        "7002": 144,
        "7003": 20,
        "7004": 68,
        "7005": 125,
        "7006": 71,
        "7007": 223,
        "7008": 91,
        "7009": 84,
        "7010": 88,
        "7011": 33,
        "7012": 219,
        "7013": 59,
        "7014": 223,
        "7015": 172,
        "7016": 17,
        "7017": 221,
        "7018": 99,
        "7019": 139,
        "7020": 2,
        "7021": 60,
        "7022": 148,
        "7023": 46,
        "7024": 65,
        "7025": 94,
        "7026": 247,
        "7027": 239,
        "7028": 215,
        "7029": 34,
        "7030": 224,
        "7031": 114,
        "7032": 205,
        "7033": 68,
        "7034": 176,
        "7035": 62,
        "7036": 74,
        "7037": 251,
        "7038": 191,
        "7039": 75,
        "7040": 112,
        "7041": 234,
        "7042": 247,
        "7043": 216,
        "7044": 238,
        "7045": 70,
        "7046": 217,
        "7047": 250,
        "7048": 132,
        "7049": 121,
        "7050": 237,
        "7051": 103,
        "7052": 72,
        "7053": 71,
        "7054": 125,
        "7055": 253,
        "7056": 26,
        "7057": 202,
        "7058": 112,
        "7059": 216,
        "7060": 202,
        "7061": 145,
        "7062": 76,
        "7063": 195,
        "7064": 213,
        "7065": 97,
        "7066": 240,
        "7067": 241,
        "7068": 10,
        "7069": 91,
        "7070": 5,
        "7071": 244,
        "7072": 254,
        "7073": 84,
        "7074": 57,
        "7075": 66,
        "7076": 2,
        "7077": 89,
        "7078": 100,
        "7079": 8,
        "7080": 91,
        "7081": 104,
        "7082": 146,
        "7083": 19,
        "7084": 229,
        "7085": 67,
        "7086": 31,
        "7087": 206,
        "7088": 101,
        "7089": 145,
        "7090": 46,
        "7091": 45,
        "7092": 186,
        "7093": 232,
        "7094": 188,
        "7095": 145,
        "7096": 125,
        "7097": 59,
        "7098": 121,
        "7099": 237,
        "7100": 227,
        "7101": 0,
        "7102": 131,
        "7103": 37,
        "7104": 86,
        "7105": 119,
        "7106": 219,
        "7107": 12,
        "7108": 111,
        "7109": 41,
        "7110": 220,
        "7111": 206,
        "7112": 79,
        "7113": 170,
        "7114": 158,
        "7115": 152,
        "7116": 120,
        "7117": 116,
        "7118": 239,
        "7119": 91,
        "7120": 16,
        "7121": 218,
        "7122": 82,
        "7123": 227,
        "7124": 115,
        "7125": 168,
        "7126": 182,
        "7127": 254,
        "7128": 136,
        "7129": 208,
        "7130": 9,
        "7131": 250,
        "7132": 99,
        "7133": 5,
        "7134": 157,
        "7135": 123,
        "7136": 75,
        "7137": 165,
        "7138": 28,
        "7139": 122,
        "7140": 229,
        "7141": 105,
        "7142": 223,
        "7143": 65,
        "7144": 221,
        "7145": 132,
        "7146": 192,
        "7147": 34,
        "7148": 251,
        "7149": 245,
        "7150": 181,
        "7151": 18,
        "7152": 51,
        "7153": 229,
        "7154": 151,
        "7155": 130,
        "7156": 68,
        "7157": 215,
        "7158": 214,
        "7159": 67,
        "7160": 147,
        "7161": 206,
        "7162": 230,
        "7163": 208,
        "7164": 40,
        "7165": 118,
        "7166": 61,
        "7167": 234,
        "7168": 64,
        "7169": 91,
        "7170": 125,
        "7171": 81,
        "7172": 54,
        "7173": 15,
        "7174": 131,
        "7175": 55,
        "7176": 238,
        "7177": 11,
        "7178": 38,
        "7179": 145,
        "7180": 66,
        "7181": 248,
        "7182": 40,
        "7183": 19,
        "7184": 156,
        "7185": 226,
        "7186": 53,
        "7187": 238,
        "7188": 214,
        "7189": 221,
        "7190": 88,
        "7191": 143,
        "7192": 137,
        "7193": 199,
        "7194": 161,
        "7195": 22,
        "7196": 252,
        "7197": 243,
        "7198": 116,
        "7199": 15,
        "7200": 126,
        "7201": 121,
        "7202": 247,
        "7203": 226,
        "7204": 69,
        "7205": 190,
        "7206": 248,
        "7207": 1,
        "7208": 163,
        "7209": 140,
        "7210": 241,
        "7211": 157,
        "7212": 36,
        "7213": 74,
        "7214": 46,
        "7215": 101,
        "7216": 246,
        "7217": 245,
        "7218": 21,
        "7219": 124,
        "7220": 80,
        "7221": 167,
        "7222": 11,
        "7223": 126,
        "7224": 15,
        "7225": 161,
        "7226": 118,
        "7227": 200,
        "7228": 70,
        "7229": 144,
        "7230": 60,
        "7231": 83,
        "7232": 195,
        "7233": 242,
        "7234": 18,
        "7235": 108,
        "7236": 5,
        "7237": 84,
        "7238": 160,
        "7239": 150,
        "7240": 177,
        "7241": 215,
        "7242": 152,
        "7243": 23,
        "7244": 196,
        "7245": 123,
        "7246": 45,
        "7247": 101,
        "7248": 183,
        "7249": 229,
        "7250": 46,
        "7251": 82,
        "7252": 218,
        "7253": 78,
        "7254": 91,
        "7255": 182,
        "7256": 105,
        "7257": 201,
        "7258": 133,
        "7259": 218,
        "7260": 117,
        "7261": 125,
        "7262": 35,
        "7263": 245,
        "7264": 30,
        "7265": 22,
        "7266": 210,
        "7267": 84,
        "7268": 160,
        "7269": 124,
        "7270": 115,
        "7271": 168,
        "7272": 129,
        "7273": 230,
        "7274": 235,
        "7275": 119,
        "7276": 64,
        "7277": 160,
        "7278": 215,
        "7279": 232,
        "7280": 11,
        "7281": 79,
        "7282": 252,
        "7283": 82,
        "7284": 47,
        "7285": 176,
        "7286": 183,
        "7287": 40,
        "7288": 61,
        "7289": 113,
        "7290": 255,
        "7291": 52,
        "7292": 13,
        "7293": 224,
        "7294": 203,
        "7295": 68,
        "7296": 63,
        "7297": 78,
        "7298": 203,
        "7299": 191,
        "7300": 94,
        "7301": 41,
        "7302": 39,
        "7303": 197,
        "7304": 19,
        "7305": 107,
        "7306": 83,
        "7307": 206,
        "7308": 140,
        "7309": 231,
        "7310": 171,
        "7311": 149,
        "7312": 184,
        "7313": 24,
        "7314": 168,
        "7315": 183,
        "7316": 194,
        "7317": 28,
        "7318": 77,
        "7319": 126,
        "7320": 158,
        "7321": 139,
        "7322": 84,
        "7323": 182,
        "7324": 253,
        "7325": 172,
        "7326": 175,
        "7327": 190,
        "7328": 129,
        "7329": 24,
        "7330": 42,
        "7331": 73,
        "7332": 71,
        "7333": 232,
        "7334": 157,
        "7335": 97,
        "7336": 250,
        "7337": 152,
        "7338": 34,
        "7339": 72,
        "7340": 73,
        "7341": 168,
        "7342": 245,
        "7343": 129,
        "7344": 89,
        "7345": 163,
        "7346": 179,
        "7347": 65,
        "7348": 64,
        "7349": 30,
        "7350": 210,
        "7351": 3,
        "7352": 149,
        "7353": 149,
        "7354": 14,
        "7355": 131,
        "7356": 174,
        "7357": 214,
        "7358": 164,
        "7359": 197,
        "7360": 181,
        "7361": 138,
        "7362": 127,
        "7363": 21,
        "7364": 95,
        "7365": 71,
        "7366": 118,
        "7367": 114,
        "7368": 250,
        "7369": 254,
        "7370": 210,
        "7371": 199,
        "7372": 177,
        "7373": 171,
        "7374": 129,
        "7375": 58,
        "7376": 104,
        "7377": 18,
        "7378": 217,
        "7379": 176,
        "7380": 180,
        "7381": 74,
        "7382": 174,
        "7383": 61,
        "7384": 44,
        "7385": 40,
        "7386": 121,
        "7387": 244,
        "7388": 237,
        "7389": 253,
        "7390": 80,
        "7391": 67,
        "7392": 156,
        "7393": 113,
        "7394": 105,
        "7395": 230,
        "7396": 88,
        "7397": 15,
        "7398": 249,
        "7399": 141,
        "7400": 174,
        "7401": 115,
        "7402": 32,
        "7403": 143,
        "7404": 104,
        "7405": 154,
        "7406": 23,
        "7407": 158,
        "7408": 147,
        "7409": 22,
        "7410": 33,
        "7411": 18,
        "7412": 100,
        "7413": 218,
        "7414": 93,
        "7415": 158,
        "7416": 96,
        "7417": 23,
        "7418": 77,
        "7419": 61,
        "7420": 30,
        "7421": 63,
        "7422": 171,
        "7423": 250,
        "7424": 117,
        "7425": 62,
        "7426": 57,
        "7427": 183,
        "7428": 172,
        "7429": 204,
        "7430": 97,
        "7431": 130,
        "7432": 179,
        "7433": 43,
        "7434": 42,
        "7435": 8,
        "7436": 71,
        "7437": 164,
        "7438": 198,
        "7439": 59,
        "7440": 144,
        "7441": 93,
        "7442": 136,
        "7443": 173,
        "7444": 168,
        "7445": 240,
        "7446": 205,
        "7447": 202,
        "7448": 143,
        "7449": 110,
        "7450": 150,
        "7451": 142,
        "7452": 254,
        "7453": 42,
        "7454": 194,
        "7455": 44,
        "7456": 87,
        "7457": 0,
        "7458": 88,
        "7459": 131,
        "7460": 185,
        "7461": 2,
        "7462": 250,
        "7463": 134,
        "7464": 75,
        "7465": 249,
        "7466": 123,
        "7467": 153,
        "7468": 69,
        "7469": 110,
        "7470": 228,
        "7471": 93,
        "7472": 144,
        "7473": 186,
        "7474": 139,
        "7475": 193,
        "7476": 104,
        "7477": 116,
        "7478": 0,
        "7479": 153,
        "7480": 142,
        "7481": 125,
        "7482": 68,
        "7483": 36,
        "7484": 135,
        "7485": 244,
        "7486": 90,
        "7487": 128,
        "7488": 170,
        "7489": 240,
        "7490": 225,
        "7491": 29,
        "7492": 80,
        "7493": 42,
        "7494": 219,
        "7495": 220,
        "7496": 103,
        "7497": 146,
        "7498": 250,
        "7499": 94,
        "7500": 61,
        "7501": 20,
        "7502": 97,
        "7503": 118,
        "7504": 182,
        "7505": 213,
        "7506": 129,
        "7507": 3,
        "7508": 242,
        "7509": 5,
        "7510": 62,
        "7511": 196,
        "7512": 220,
        "7513": 205,
        "7514": 130,
        "7515": 8,
        "7516": 10,
        "7517": 119,
        "7518": 66,
        "7519": 194,
        "7520": 203,
        "7521": 104,
        "7522": 141,
        "7523": 33,
        "7524": 25,
        "7525": 72,
        "7526": 121,
        "7527": 204,
        "7528": 86,
        "7529": 235,
        "7530": 245,
        "7531": 69,
        "7532": 101,
        "7533": 253,
        "7534": 166,
        "7535": 66,
        "7536": 149,
        "7537": 71,
        "7538": 220,
        "7539": 154,
        "7540": 136,
        "7541": 148,
        "7542": 188,
        "7543": 242,
        "7544": 85,
        "7545": 223,
        "7546": 221,
        "7547": 229,
        "7548": 36,
        "7549": 30,
        "7550": 67,
        "7551": 239,
        "7552": 99,
        "7553": 24,
        "7554": 120,
        "7555": 140,
        "7556": 45,
        "7557": 141,
        "7558": 113,
        "7559": 4,
        "7560": 250,
        "7561": 73,
        "7562": 117,
        "7563": 138,
        "7564": 120,
        "7565": 214,
        "7566": 153,
        "7567": 210,
        "7568": 191,
        "7569": 2,
        "7570": 129,
        "7571": 255,
        "7572": 45,
        "7573": 72,
        "7574": 143,
        "7575": 42,
        "7576": 226,
        "7577": 142,
        "7578": 111,
        "7579": 48,
        "7580": 223,
        "7581": 23,
        "7582": 57,
        "7583": 168,
        "7584": 104,
        "7585": 168,
        "7586": 123,
        "7587": 222,
        "7588": 187,
        "7589": 224,
        "7590": 108,
        "7591": 87,
        "7592": 226,
        "7593": 40,
        "7594": 228,
        "7595": 142,
        "7596": 137,
        "7597": 57,
        "7598": 169,
        "7599": 158,
        "7600": 4,
        "7601": 60,
        "7602": 85,
        "7603": 180,
        "7604": 39,
        "7605": 176,
        "7606": 70,
        "7607": 75,
        "7608": 221,
        "7609": 9,
        "7610": 205,
        "7611": 31,
        "7612": 140,
        "7613": 189,
        "7614": 237,
        "7615": 31,
        "7616": 97,
        "7617": 67,
        "7618": 105,
        "7619": 57,
        "7620": 251,
        "7621": 15,
        "7622": 76,
        "7623": 214,
        "7624": 218,
        "7625": 109,
        "7626": 67,
        "7627": 229,
        "7628": 86,
        "7629": 58,
        "7630": 139,
        "7631": 5,
        "7632": 53,
        "7633": 29,
        "7634": 124,
        "7635": 186,
        "7636": 28,
        "7637": 77,
        "7638": 111,
        "7639": 48,
        "7640": 110,
        "7641": 183,
        "7642": 140,
        "7643": 41,
        "7644": 122,
        "7645": 240,
        "7646": 187,
        "7647": 185,
        "7648": 12,
        "7649": 52,
        "7650": 162,
        "7651": 238,
        "7652": 29,
        "7653": 181,
        "7654": 169,
        "7655": 10,
        "7656": 117,
        "7657": 157,
        "7658": 127,
        "7659": 211,
        "7660": 71,
        "7661": 200,
        "7662": 27,
        "7663": 27,
        "7664": 252,
        "7665": 158,
        "7666": 188,
        "7667": 181,
        "7668": 103,
        "7669": 174,
        "7670": 50,
        "7671": 170,
        "7672": 165,
        "7673": 7,
        "7674": 197,
        "7675": 142,
        "7676": 109,
        "7677": 143,
        "7678": 29,
        "7679": 227,
        "7680": 160,
        "7681": 16,
        "7682": 144,
        "7683": 10,
        "7684": 172,
        "7685": 99,
        "7686": 78,
        "7687": 223,
        "7688": 61,
        "7689": 218,
        "7690": 217,
        "7691": 3,
        "7692": 185,
        "7693": 210,
        "7694": 0,
        "7695": 202,
        "7696": 222,
        "7697": 195,
        "7698": 253,
        "7699": 62,
        "7700": 98,
        "7701": 197,
        "7702": 58,
        "7703": 63,
        "7704": 106,
        "7705": 65,
        "7706": 185,
        "7707": 179,
        "7708": 76,
        "7709": 248,
        "7710": 175,
        "7711": 53,
        "7712": 178,
        "7713": 85,
        "7714": 37,
        "7715": 115,
        "7716": 165,
        "7717": 114,
        "7718": 253,
        "7719": 184,
        "7720": 216,
        "7721": 27,
        "7722": 187,
        "7723": 15,
        "7724": 59,
        "7725": 142,
        "7726": 193,
        "7727": 109,
        "7728": 57,
        "7729": 151,
        "7730": 250,
        "7731": 158,
        "7732": 255,
        "7733": 8,
        "7734": 126,
        "7735": 219,
        "7736": 94,
        "7737": 45,
        "7738": 241,
        "7739": 146,
        "7740": 136,
        "7741": 113,
        "7742": 61,
        "7743": 84,
        "7744": 240,
        "7745": 133,
        "7746": 212,
        "7747": 228,
        "7748": 197,
        "7749": 44,
        "7750": 125,
        "7751": 134,
        "7752": 59,
        "7753": 252,
        "7754": 212,
        "7755": 41,
        "7756": 141,
        "7757": 153,
        "7758": 234,
        "7759": 86,
        "7760": 251,
        "7761": 133,
        "7762": 199,
        "7763": 160,
        "7764": 5,
        "7765": 225,
        "7766": 152,
        "7767": 36,
        "7768": 243,
        "7769": 248,
        "7770": 138,
        "7771": 102,
        "7772": 6,
        "7773": 81,
        "7774": 90,
        "7775": 75,
        "7776": 113,
        "7777": 20,
        "7778": 227,
        "7779": 26,
        "7780": 103,
        "7781": 129,
        "7782": 116,
        "7783": 103,
        "7784": 62,
        "7785": 23,
        "7786": 107,
        "7787": 204,
        "7788": 38,
        "7789": 106,
        "7790": 151,
        "7791": 66,
        "7792": 140,
        "7793": 111,
        "7794": 232,
        "7795": 94,
        "7796": 71,
        "7797": 14,
        "7798": 52,
        "7799": 9,
        "7800": 24,
        "7801": 238,
        "7802": 113,
        "7803": 123,
        "7804": 166,
        "7805": 223,
        "7806": 70,
        "7807": 27,
        "7808": 196,
        "7809": 19,
        "7810": 90,
        "7811": 118,
        "7812": 6,
        "7813": 21,
        "7814": 177,
        "7815": 2,
        "7816": 137,
        "7817": 154,
        "7818": 161,
        "7819": 131,
        "7820": 86,
        "7821": 131,
        "7822": 188,
        "7823": 244,
        "7824": 112,
        "7825": 141,
        "7826": 8,
        "7827": 112,
        "7828": 131,
        "7829": 115,
        "7830": 217,
        "7831": 36,
        "7832": 179,
        "7833": 32,
        "7834": 137,
        "7835": 131,
        "7836": 238,
        "7837": 183,
        "7838": 64,
        "7839": 127,
        "7840": 184,
        "7841": 163,
        "7842": 24,
        "7843": 49,
        "7844": 240,
        "7845": 10,
        "7846": 243,
        "7847": 16,
        "7848": 157,
        "7849": 205,
        "7850": 79,
        "7851": 233,
        "7852": 24,
        "7853": 245,
        "7854": 211,
        "7855": 182,
        "7856": 55,
        "7857": 112,
        "7858": 138,
        "7859": 210,
        "7860": 1,
        "7861": 169,
        "7862": 132,
        "7863": 171,
        "7864": 187,
        "7865": 17,
        "7866": 40,
        "7867": 229,
        "7868": 192,
        "7869": 177,
        "7870": 148,
        "7871": 129,
        "7872": 72,
        "7873": 35,
        "7874": 21,
        "7875": 190,
        "7876": 62,
        "7877": 34,
        "7878": 153,
        "7879": 151,
        "7880": 191,
        "7881": 166,
        "7882": 203,
        "7883": 30,
        "7884": 34,
        "7885": 5,
        "7886": 134,
        "7887": 54,
        "7888": 41,
        "7889": 133,
        "7890": 201,
        "7891": 204,
        "7892": 96,
        "7893": 179,
        "7894": 63,
        "7895": 216,
        "7896": 188,
        "7897": 38,
        "7898": 58,
        "7899": 7,
        "7900": 146,
        "7901": 225,
        "7902": 233,
        "7903": 163,
        "7904": 153,
        "7905": 183,
        "7906": 77,
        "7907": 48,
        "7908": 144,
        "7909": 148,
        "7910": 55,
        "7911": 215,
        "7912": 58,
        "7913": 38,
        "7914": 134,
        "7915": 86,
        "7916": 185,
        "7917": 247,
        "7918": 71,
        "7919": 40,
        "7920": 141,
        "7921": 84,
        "7922": 33,
        "7923": 35,
        "7924": 95,
        "7925": 78,
        "7926": 155,
        "7927": 72,
        "7928": 91,
        "7929": 16,
        "7930": 24,
        "7931": 43,
        "7932": 244,
        "7933": 0,
        "7934": 173,
        "7935": 22,
        "7936": 11,
        "7937": 54,
        "7938": 97,
        "7939": 170,
        "7940": 182,
        "7941": 233,
        "7942": 230,
        "7943": 203,
        "7944": 110,
        "7945": 166,
        "7946": 245,
        "7947": 98,
        "7948": 151,
        "7949": 118,
        "7950": 227,
        "7951": 237,
        "7952": 245,
        "7953": 153,
        "7954": 153,
        "7955": 112,
        "7956": 80,
        "7957": 226,
        "7958": 243,
        "7959": 88,
        "7960": 63,
        "7961": 89,
        "7962": 22,
        "7963": 116,
        "7964": 130,
        "7965": 181,
        "7966": 104,
        "7967": 203,
        "7968": 185,
        "7969": 209,
        "7970": 203,
        "7971": 74,
        "7972": 66,
        "7973": 71,
        "7974": 217,
        "7975": 74,
        "7976": 40,
        "7977": 80,
        "7978": 19,
        "7979": 63,
        "7980": 7,
        "7981": 179,
        "7982": 144,
        "7983": 247,
        "7984": 84,
        "7985": 68,
        "7986": 184,
        "7987": 142,
        "7988": 89,
        "7989": 127,
        "7990": 91,
        "7991": 186,
        "7992": 239,
        "7993": 40,
        "7994": 168,
        "7995": 86,
        "7996": 85,
        "7997": 78,
        "7998": 107,
        "7999": 8,
        "8000": 96,
        "8001": 13,
        "8002": 62,
        "8003": 162,
        "8004": 6,
        "8005": 24,
        "8006": 84,
        "8007": 57,
        "8008": 176,
        "8009": 206,
        "8010": 218,
        "8011": 22,
        "8012": 20,
        "8013": 11,
        "8014": 42,
        "8015": 191,
        "8016": 230,
        "8017": 80,
        "8018": 93,
        "8019": 127,
        "8020": 65,
        "8021": 86,
        "8022": 71,
        "8023": 108,
        "8024": 233,
        "8025": 186,
        "8026": 34,
        "8027": 119,
        "8028": 248,
        "8029": 244,
        "8030": 99,
        "8031": 15,
        "8032": 212,
        "8033": 54,
        "8034": 56,
        "8035": 162,
        "8036": 71,
        "8037": 160,
        "8038": 72,
        "8039": 133,
        "8040": 6,
        "8041": 49,
        "8042": 48,
        "8043": 206,
        "8044": 164,
        "8045": 49,
        "8046": 214,
        "8047": 83,
        "8048": 165,
        "8049": 132,
        "8050": 137,
        "8051": 1,
        "8052": 3,
        "8053": 251,
        "8054": 63,
        "8055": 64,
        "8056": 67,
        "8057": 117,
        "8058": 64,
        "8059": 244,
        "8060": 44,
        "8061": 17,
        "8062": 252,
        "8063": 85,
        "8064": 54,
        "8065": 102,
        "8066": 120,
        "8067": 170,
        "8068": 9,
        "8069": 50,
        "8070": 196,
        "8071": 172,
        "8072": 101,
        "8073": 15,
        "8074": 8,
        "8075": 95,
        "8076": 82,
        "8077": 139,
        "8078": 163,
        "8079": 181,
        "8080": 134,
        "8081": 229,
        "8082": 39,
        "8083": 12,
        "8084": 72,
        "8085": 67,
        "8086": 50,
        "8087": 250,
        "8088": 55,
        "8089": 52,
        "8090": 223,
        "8091": 105,
        "8092": 27,
        "8093": 37,
        "8094": 143,
        "8095": 182,
        "8096": 104,
        "8097": 246,
        "8098": 235,
        "8099": 209,
        "8100": 120,
        "8101": 208,
        "8102": 77,
        "8103": 43,
        "8104": 27,
        "8105": 165,
        "8106": 24,
        "8107": 207,
        "8108": 140,
        "8109": 71,
        "8110": 243,
        "8111": 208,
        "8112": 222,
        "8113": 178,
        "8114": 220,
        "8115": 20,
        "8116": 199,
        "8117": 91,
        "8118": 37,
        "8119": 181,
        "8120": 45,
        "8121": 36,
        "8122": 61,
        "8123": 70,
        "8124": 23,
        "8125": 101,
        "8126": 83,
        "8127": 191,
        "8128": 82,
        "8129": 1,
        "8130": 16,
        "8131": 24,
        "8132": 186,
        "8133": 54,
        "8134": 183,
        "8135": 143,
        "8136": 83,
        "8137": 17,
        "8138": 43,
        "8139": 152,
        "8140": 170,
        "8141": 37,
        "8142": 208,
        "8143": 186,
        "8144": 21,
        "8145": 112,
        "8146": 213,
        "8147": 2,
        "8148": 70,
        "8149": 225,
        "8150": 184,
        "8151": 122,
        "8152": 202,
        "8153": 239,
        "8154": 201,
        "8155": 244,
        "8156": 124,
        "8157": 233,
        "8158": 43,
        "8159": 122,
        "8160": 190,
        "8161": 218,
        "8162": 43,
        "8163": 251,
        "8164": 176,
        "8165": 40,
        "8166": 68,
        "8167": 206,
        "8168": 187,
        "8169": 16,
        "8170": 35,
        "8171": 162,
        "8172": 81,
        "8173": 47,
        "8174": 249,
        "8175": 23,
        "8176": 67,
        "8177": 161,
        "8178": 15,
        "8179": 43,
        "8180": 73,
        "8181": 63,
        "8182": 238,
        "8183": 190,
        "8184": 208,
        "8185": 235,
        "8186": 166,
        "8187": 143,
        "8188": 39,
        "8189": 185,
        "8190": 163,
        "8191": 224,
        "8192": 162,
        "8193": 150,
        "8194": 156,
        "8195": 158,
        "8196": 161,
        "8197": 219,
        "8198": 114,
        "8199": 104,
        "8200": 67,
        "8201": 64,
        "8202": 250,
        "8203": 194,
        "8204": 235,
        "8205": 230,
        "8206": 190,
        "8207": 121,
        "8208": 216,
        "8209": 123,
        "8210": 197,
        "8211": 48,
        "8212": 30,
        "8213": 251,
        "8214": 166,
        "8215": 16,
        "8216": 238,
        "8217": 195,
        "8218": 132,
        "8219": 186,
        "8220": 74,
        "8221": 95,
        "8222": 69,
        "8223": 143,
        "8224": 68,
        "8225": 129,
        "8226": 7,
        "8227": 18,
        "8228": 254,
        "8229": 159,
        "8230": 32,
        "8231": 180,
        "8232": 196,
        "8233": 248,
        "8234": 42,
        "8235": 207,
        "8236": 124,
        "8237": 40,
        "8238": 138,
        "8239": 143,
        "8240": 50,
        "8241": 129,
        "8242": 178,
        "8243": 216,
        "8244": 245,
        "8245": 40,
        "8246": 42,
        "8247": 228,
        "8248": 139,
        "8249": 109,
        "8250": 193,
        "8251": 233,
        "8252": 74,
        "8253": 54,
        "8254": 196,
        "8255": 109,
        "8256": 112,
        "8257": 174,
        "8258": 73,
        "8259": 79,
        "8260": 8,
        "8261": 218,
        "8262": 50,
        "8263": 27,
        "8264": 215,
        "8265": 28,
        "8266": 135,
        "8267": 132,
        "8268": 62,
        "8269": 166,
        "8270": 95,
        "8271": 139,
        "8272": 55,
        "8273": 162,
        "8274": 249,
        "8275": 8,
        "8276": 211,
        "8277": 149,
        "8278": 182,
        "8279": 219,
        "8280": 155,
        "8281": 119,
        "8282": 72,
        "8283": 198,
        "8284": 25,
        "8285": 243,
        "8286": 156,
        "8287": 17,
        "8288": 4,
        "8289": 8,
        "8290": 55,
        "8291": 86,
        "8292": 127,
        "8293": 176,
        "8294": 242,
        "8295": 128,
        "8296": 115,
        "8297": 115,
        "8298": 112,
        "8299": 115,
        "8300": 113,
        "8301": 180,
        "8302": 137,
        "8303": 39,
        "8304": 38,
        "8305": 137,
        "8306": 41,
        "8307": 168,
        "8308": 120,
        "8309": 72,
        "8310": 44,
        "8311": 135,
        "8312": 230,
        "8313": 156,
        "8314": 202,
        "8315": 57,
        "8316": 66,
        "8317": 42,
        "8318": 93,
        "8319": 140,
        "8320": 232,
        "8321": 148,
        "8322": 253,
        "8323": 11,
        "8324": 15,
        "8325": 16,
        "8326": 229,
        "8327": 9,
        "8328": 199,
        "8329": 2,
        "8330": 152,
        "8331": 176,
        "8332": 183,
        "8333": 138,
        "8334": 44,
        "8335": 107,
        "8336": 254,
        "8337": 65,
        "8338": 152,
        "8339": 196,
        "8340": 203,
        "8341": 79,
        "8342": 169,
        "8343": 159,
        "8344": 62,
        "8345": 81,
        "8346": 220,
        "8347": 133,
        "8348": 81,
        "8349": 200,
        "8350": 67,
        "8351": 64,
        "8352": 155,
        "8353": 33,
        "8354": 114,
        "8355": 79,
        "8356": 61,
        "8357": 55,
        "8358": 6,
        "8359": 43,
        "8360": 131,
        "8361": 192,
        "8362": 35,
        "8363": 84,
        "8364": 88,
        "8365": 208,
        "8366": 191,
        "8367": 217,
        "8368": 58,
        "8369": 153,
        "8370": 29,
        "8371": 214,
        "8372": 17,
        "8373": 211,
        "8374": 147,
        "8375": 125,
        "8376": 109,
        "8377": 125,
        "8378": 214,
        "8379": 153,
        "8380": 157,
        "8381": 194,
        "8382": 58,
        "8383": 83,
        "8384": 27,
        "8385": 47,
        "8386": 231,
        "8387": 24,
        "8388": 180,
        "8389": 77,
        "8390": 238,
        "8391": 223,
        "8392": 70,
        "8393": 29,
        "8394": 76,
        "8395": 54,
        "8396": 34,
        "8397": 139,
        "8398": 39,
        "8399": 32,
        "8400": 90,
        "8401": 108,
        "8402": 46,
        "8403": 234,
        "8404": 187,
        "8405": 226,
        "8406": 204,
        "8407": 169,
        "8408": 69,
        "8409": 217,
        "8410": 105,
        "8411": 230,
        "8412": 154,
        "8413": 38,
        "8414": 249,
        "8415": 198,
        "8416": 90,
        "8417": 14,
        "8418": 157,
        "8419": 203,
        "8420": 34,
        "8421": 130,
        "8422": 234,
        "8423": 116,
        "8424": 146,
        "8425": 231,
        "8426": 34,
        "8427": 29,
        "8428": 153,
        "8429": 238,
        "8430": 104,
        "8431": 110,
        "8432": 75,
        "8433": 124,
        "8434": 79,
        "8435": 184,
        "8436": 146,
        "8437": 71,
        "8438": 29,
        "8439": 165,
        "8440": 82,
        "8441": 15,
        "8442": 134,
        "8443": 11,
        "8444": 229,
        "8445": 174,
        "8446": 8,
        "8447": 41,
        "8448": 106,
        "8449": 252,
        "8450": 251,
        "8451": 218,
        "8452": 150,
        "8453": 240,
        "8454": 254,
        "8455": 169,
        "8456": 72,
        "8457": 95,
        "8458": 74,
        "8459": 201,
        "8460": 172,
        "8461": 129,
        "8462": 168,
        "8463": 160,
        "8464": 21,
        "8465": 83,
        "8466": 156,
        "8467": 24,
        "8468": 156,
        "8469": 229,
        "8470": 190,
        "8471": 211,
        "8472": 68,
        "8473": 248,
        "8474": 2,
        "8475": 14,
        "8476": 140,
        "8477": 121,
        "8478": 250,
        "8479": 232,
        "8480": 22,
        "8481": 20,
        "8482": 137,
        "8483": 185,
        "8484": 187,
        "8485": 227,
        "8486": 74,
        "8487": 48,
        "8488": 241,
        "8489": 152,
        "8490": 140,
        "8491": 5,
        "8492": 210,
        "8493": 50,
        "8494": 27,
        "8495": 6,
        "8496": 123,
        "8497": 187,
        "8498": 30,
        "8499": 116,
        "8500": 15,
        "8501": 243,
        "8502": 141,
        "8503": 16,
        "8504": 203,
        "8505": 239,
        "8506": 44,
        "8507": 6,
        "8508": 61,
        "8509": 53,
        "8510": 252,
        "8511": 37,
        "8512": 59,
        "8513": 42,
        "8514": 199,
        "8515": 31,
        "8516": 93,
        "8517": 216,
        "8518": 129,
        "8519": 139,
        "8520": 200,
        "8521": 91,
        "8522": 135,
        "8523": 222,
        "8524": 143,
        "8525": 176,
        "8526": 1,
        "8527": 227,
        "8528": 161,
        "8529": 254,
        "8530": 199,
        "8531": 170,
        "8532": 5,
        "8533": 154,
        "8534": 66,
        "8535": 185,
        "8536": 66,
        "8537": 183,
        "8538": 178,
        "8539": 99,
        "8540": 72,
        "8541": 110,
        "8542": 9,
        "8543": 195,
        "8544": 62,
        "8545": 118,
        "8546": 191,
        "8547": 55,
        "8548": 112,
        "8549": 9,
        "8550": 81,
        "8551": 160,
        "8552": 11,
        "8553": 88,
        "8554": 116,
        "8555": 73,
        "8556": 109,
        "8557": 71,
        "8558": 79,
        "8559": 223,
        "8560": 43,
        "8561": 218,
        "8562": 121,
        "8563": 216,
        "8564": 21,
        "8565": 37,
        "8566": 73,
        "8567": 23,
        "8568": 39,
        "8569": 224,
        "8570": 147,
        "8571": 43,
        "8572": 243,
        "8573": 137,
        "8574": 106,
        "8575": 12,
        "8576": 39,
        "8577": 250,
        "8578": 165,
        "8579": 36,
        "8580": 218,
        "8581": 245,
        "8582": 231,
        "8583": 162,
        "8584": 96,
        "8585": 241,
        "8586": 95,
        "8587": 59,
        "8588": 119,
        "8589": 206,
        "8590": 29,
        "8591": 176,
        "8592": 54,
        "8593": 112,
        "8594": 235,
        "8595": 2,
        "8596": 191,
        "8597": 138,
        "8598": 248,
        "8599": 123,
        "8600": 126,
        "8601": 79,
        "8602": 98,
        "8603": 164,
        "8604": 108,
        "8605": 226,
        "8606": 244,
        "8607": 24,
        "8608": 9,
        "8609": 52,
        "8610": 4,
        "8611": 68,
        "8612": 3,
        "8613": 202,
        "8614": 173,
        "8615": 173,
        "8616": 77,
        "8617": 207,
        "8618": 85,
        "8619": 209,
        "8620": 234,
        "8621": 244,
        "8622": 78,
        "8623": 211,
        "8624": 214,
        "8625": 82,
        "8626": 216,
        "8627": 209,
        "8628": 37,
        "8629": 167,
        "8630": 186,
        "8631": 104,
        "8632": 41,
        "8633": 179,
        "8634": 120,
        "8635": 51,
        "8636": 14,
        "8637": 165,
        "8638": 228,
        "8639": 227,
        "8640": 49,
        "8641": 155,
        "8642": 16,
        "8643": 56,
        "8644": 86,
        "8645": 49,
        "8646": 128,
        "8647": 0,
        "8648": 12,
        "8649": 225,
        "8650": 72,
        "8651": 253,
        "8652": 149,
        "8653": 139,
        "8654": 178,
        "8655": 119,
        "8656": 95,
        "8657": 246,
        "8658": 13,
        "8659": 127,
        "8660": 34,
        "8661": 143,
        "8662": 248,
        "8663": 100,
        "8664": 5,
        "8665": 52,
        "8666": 226,
        "8667": 80,
        "8668": 215,
        "8669": 2,
        "8670": 58,
        "8671": 80,
        "8672": 206,
        "8673": 184,
        "8674": 175,
        "8675": 194,
        "8676": 172,
        "8677": 84,
        "8678": 0,
        "8679": 142,
        "8680": 167,
        "8681": 3,
        "8682": 188,
        "8683": 197,
        "8684": 108,
        "8685": 3,
        "8686": 82,
        "8687": 239,
        "8688": 68,
        "8689": 82,
        "8690": 215,
        "8691": 121,
        "8692": 240,
        "8693": 240,
        "8694": 31,
        "8695": 59,
        "8696": 42,
        "8697": 224,
        "8698": 99,
        "8699": 34,
        "8700": 37,
        "8701": 11,
        "8702": 80,
        "8703": 42,
        "8704": 41,
        "8705": 145,
        "8706": 10,
        "8707": 172,
        "8708": 212,
        "8709": 8,
        "8710": 5,
        "8711": 210,
        "8712": 77,
        "8713": 91,
        "8714": 236,
        "8715": 217,
        "8716": 127,
        "8717": 82,
        "8718": 63,
        "8719": 142,
        "8720": 180,
        "8721": 193,
        "8722": 124,
        "8723": 178,
        "8724": 123,
        "8725": 188,
        "8726": 111,
        "8727": 121,
        "8728": 107,
        "8729": 58,
        "8730": 225,
        "8731": 239,
        "8732": 78,
        "8733": 78,
        "8734": 251,
        "8735": 170,
        "8736": 50,
        "8737": 90,
        "8738": 58,
        "8739": 94,
        "8740": 241,
        "8741": 206,
        "8742": 113,
        "8743": 211,
        "8744": 25,
        "8745": 175,
        "8746": 34,
        "8747": 220,
        "8748": 101,
        "8749": 30,
        "8750": 254,
        "8751": 89,
        "8752": 151,
        "8753": 108,
        "8754": 231,
        "8755": 53,
        "8756": 167,
        "8757": 160,
        "8758": 220,
        "8759": 29,
        "8760": 32,
        "8761": 181,
        "8762": 13,
        "8763": 122,
        "8764": 205,
        "8765": 83,
        "8766": 48,
        "8767": 106,
        "8768": 74,
        "8769": 127,
        "8770": 186,
        "8771": 220,
        "8772": 32,
        "8773": 243,
        "8774": 41,
        "8775": 236,
        "8776": 251,
        "8777": 252,
        "8778": 228,
        "8779": 249,
        "8780": 119,
        "8781": 214,
        "8782": 208,
        "8783": 140,
        "8784": 0,
        "8785": 231,
        "8786": 235,
        "8787": 216,
        "8788": 44,
        "8789": 229,
        "8790": 241,
        "8791": 217,
        "8792": 186,
        "8793": 6,
        "8794": 26,
        "8795": 180,
        "8796": 88,
        "8797": 203,
        "8798": 122,
        "8799": 123,
        "8800": 33,
        "8801": 255,
        "8802": 214,
        "8803": 105,
        "8804": 170,
        "8805": 9,
        "8806": 189,
        "8807": 60,
        "8808": 111,
        "8809": 65,
        "8810": 75,
        "8811": 174,
        "8812": 41,
        "8813": 218,
        "8814": 24,
        "8815": 202,
        "8816": 246,
        "8817": 68,
        "8818": 84,
        "8819": 139,
        "8820": 43,
        "8821": 13,
        "8822": 93,
        "8823": 63,
        "8824": 17,
        "8825": 139,
        "8826": 16,
        "8827": 130,
        "8828": 143,
        "8829": 162,
        "8830": 189,
        "8831": 28,
        "8832": 118,
        "8833": 90,
        "8834": 73,
        "8835": 107,
        "8836": 221,
        "8837": 12,
        "8838": 237,
        "8839": 208,
        "8840": 70,
        "8841": 133,
        "8842": 19,
        "8843": 139,
        "8844": 247,
        "8845": 65,
        "8846": 133,
        "8847": 122,
        "8848": 121,
        "8849": 231,
        "8850": 232,
        "8851": 227,
        "8852": 98,
        "8853": 225,
        "8854": 71,
        "8855": 79,
        "8856": 24,
        "8857": 26,
        "8858": 201,
        "8859": 122,
        "8860": 131,
        "8861": 58,
        "8862": 95,
        "8863": 61,
        "8864": 152,
        "8865": 84,
        "8866": 115,
        "8867": 17,
        "8868": 240,
        "8869": 221,
        "8870": 239,
        "8871": 148,
        "8872": 175,
        "8873": 250,
        "8874": 100,
        "8875": 59,
        "8876": 54,
        "8877": 34,
        "8878": 141,
        "8879": 212,
        "8880": 39,
        "8881": 110,
        "8882": 240,
        "8883": 223,
        "8884": 200,
        "8885": 50,
        "8886": 128,
        "8887": 169,
        "8888": 14,
        "8889": 83,
        "8890": 24,
        "8891": 125,
        "8892": 154,
        "8893": 8,
        "8894": 20,
        "8895": 104,
        "8896": 77,
        "8897": 173,
        "8898": 166,
        "8899": 47,
        "8900": 203,
        "8901": 17,
        "8902": 101,
        "8903": 88,
        "8904": 149,
        "8905": 172,
        "8906": 31,
        "8907": 9,
        "8908": 248,
        "8909": 213,
        "8910": 144,
        "8911": 44,
        "8912": 119,
        "8913": 201,
        "8914": 9,
        "8915": 79,
        "8916": 14,
        "8917": 115,
        "8918": 129,
        "8919": 100,
        "8920": 33,
        "8921": 190,
        "8922": 251,
        "8923": 110,
        "8924": 196,
        "8925": 47,
        "8926": 65,
        "8927": 241,
        "8928": 53,
        "8929": 248,
        "8930": 45,
        "8931": 148,
        "8932": 4,
        "8933": 63,
        "8934": 175,
        "8935": 123,
        "8936": 239,
        "8937": 184,
        "8938": 176,
        "8939": 187,
        "8940": 158,
        "8941": 221,
        "8942": 21,
        "8943": 7,
        "8944": 213,
        "8945": 205,
        "8946": 253,
        "8947": 237,
        "8948": 3,
        "8949": 218,
        "8950": 10,
        "8951": 123,
        "8952": 181,
        "8953": 26,
        "8954": 194,
        "8955": 242,
        "8956": 225,
        "8957": 236,
        "8958": 255,
        "8959": 13,
        "8960": 240,
        "8961": 49,
        "8962": 29,
        "8963": 10,
        "8964": 206,
        "8965": 4,
        "8966": 51,
        "8967": 34,
        "8968": 241,
        "8969": 133,
        "8970": 201,
        "8971": 218,
        "8972": 226,
        "8973": 237,
        "8974": 193,
        "8975": 216,
        "8976": 25,
        "8977": 178,
        "8978": 110,
        "8979": 130,
        "8980": 170,
        "8981": 165,
        "8982": 251,
        "8983": 204,
        "8984": 40,
        "8985": 48,
        "8986": 221,
        "8987": 148,
        "8988": 255,
        "8989": 60,
        "8990": 87,
        "8991": 159,
        "8992": 94,
        "8993": 196,
        "8994": 105,
        "8995": 111,
        "8996": 16,
        "8997": 28,
        "8998": 192,
        "8999": 235,
        "9000": 128,
        "9001": 3,
        "9002": 89,
        "9003": 155,
        "9004": 100,
        "9005": 255,
        "9006": 102,
        "9007": 49,
        "9008": 223,
        "9009": 121,
        "9010": 249,
        "9011": 243,
        "9012": 172,
        "9013": 132,
        "9014": 26,
        "9015": 142,
        "9016": 65,
        "9017": 75,
        "9018": 178,
        "9019": 18,
        "9020": 188,
        "9021": 190,
        "9022": 163,
        "9023": 242,
        "9024": 198,
        "9025": 79,
        "9026": 148,
        "9027": 106,
        "9028": 109,
        "9029": 114,
        "9030": 238,
        "9031": 233,
        "9032": 97,
        "9033": 252,
        "9034": 127,
        "9035": 42,
        "9036": 88,
        "9037": 23,
        "9038": 149,
        "9039": 22,
        "9040": 144,
        "9041": 244,
        "9042": 95,
        "9043": 155,
        "9044": 70,
        "9045": 122,
        "9046": 103,
        "9047": 76,
        "9048": 33,
        "9049": 28,
        "9050": 209,
        "9051": 191,
        "9052": 52,
        "9053": 146,
        "9054": 64,
        "9055": 105,
        "9056": 155,
        "9057": 40,
        "9058": 115,
        "9059": 0,
        "9060": 6,
        "9061": 179,
        "9062": 153,
        "9063": 131,
        "9064": 124,
        "9065": 194,
        "9066": 184,
        "9067": 53,
        "9068": 24,
        "9069": 54,
        "9070": 4,
        "9071": 187,
        "9072": 115,
        "9073": 224,
        "9074": 101,
        "9075": 235,
        "9076": 125,
        "9077": 49,
        "9078": 115,
        "9079": 69,
        "9080": 197,
        "9081": 254,
        "9082": 153,
        "9083": 125,
        "9084": 52,
        "9085": 76,
        "9086": 221,
        "9087": 214,
        "9088": 156,
        "9089": 7,
        "9090": 241,
        "9091": 250,
        "9092": 194,
        "9093": 72,
        "9094": 200,
        "9095": 192,
        "9096": 153,
        "9097": 127,
        "9098": 168,
        "9099": 150,
        "9100": 218,
        "9101": 201,
        "9102": 23,
        "9103": 58,
        "9104": 52,
        "9105": 144,
        "9106": 185,
        "9107": 196,
        "9108": 39,
        "9109": 111,
        "9110": 70,
        "9111": 137,
        "9112": 155,
        "9113": 113,
        "9114": 92,
        "9115": 112,
        "9116": 221,
        "9117": 201,
        "9118": 112,
        "9119": 131,
        "9120": 107,
        "9121": 220,
        "9122": 42,
        "9123": 45,
        "9124": 82,
        "9125": 255,
        "9126": 40,
        "9127": 39,
        "9128": 117,
        "9129": 50,
        "9130": 78,
        "9131": 215,
        "9132": 112,
        "9133": 28,
        "9134": 123,
        "9135": 17,
        "9136": 209,
        "9137": 44,
        "9138": 34,
        "9139": 43,
        "9140": 218,
        "9141": 15,
        "9142": 77,
        "9143": 42,
        "9144": 39,
        "9145": 14,
        "9146": 3,
        "9147": 81,
        "9148": 158,
        "9149": 132,
        "9150": 233,
        "9151": 69,
        "9152": 218,
        "9153": 33,
        "9154": 234,
        "9155": 103,
        "9156": 117,
        "9157": 225,
        "9158": 164,
        "9159": 232,
        "9160": 119,
        "9161": 197,
        "9162": 34,
        "9163": 33,
        "9164": 216,
        "9165": 209,
        "9166": 222,
        "9167": 151,
        "9168": 238,
        "9169": 243,
        "9170": 113,
        "9171": 212,
        "9172": 118,
        "9173": 255,
        "9174": 232,
        "9175": 59,
        "9176": 197,
        "9177": 232,
        "9178": 18,
        "9179": 90,
        "9180": 126,
        "9181": 94,
        "9182": 16,
        "9183": 198,
        "9184": 1,
        "9185": 239,
        "9186": 185,
        "9187": 53,
        "9188": 67,
        "9189": 246,
        "9190": 67,
        "9191": 32,
        "9192": 132,
        "9193": 70,
        "9194": 63,
        "9195": 25,
        "9196": 17,
        "9197": 120,
        "9198": 44,
        "9199": 71,
        "9200": 111,
        "9201": 166,
        "9202": 109,
        "9203": 161,
        "9204": 139,
        "9205": 88,
        "9206": 25,
        "9207": 189,
        "9208": 10,
        "9209": 214,
        "9210": 75,
        "9211": 69,
        "9212": 180,
        "9213": 18,
        "9214": 187,
        "9215": 214,
        "9216": 20,
        "9217": 98,
        "9218": 3,
        "9219": 192,
        "9220": 23,
        "9221": 234,
        "9222": 111,
        "9223": 135,
        "9224": 191,
        "9225": 177,
        "9226": 231,
        "9227": 115,
        "9228": 39,
        "9229": 125,
        "9230": 97,
        "9231": 246,
        "9232": 203,
        "9233": 97,
        "9234": 86,
        "9235": 97,
        "9236": 178,
        "9237": 168,
        "9238": 176,
        "9239": 189,
        "9240": 70,
        "9241": 33,
        "9242": 8,
        "9243": 201,
        "9244": 14,
        "9245": 236,
        "9246": 86,
        "9247": 143,
        "9248": 179,
        "9249": 71,
        "9250": 186,
        "9251": 37,
        "9252": 228,
        "9253": 204,
        "9254": 115,
        "9255": 168,
        "9256": 81,
        "9257": 169,
        "9258": 170,
        "9259": 105,
        "9260": 214,
        "9261": 88,
        "9262": 201,
        "9263": 146,
        "9264": 55,
        "9265": 248,
        "9266": 210,
        "9267": 235,
        "9268": 235,
        "9269": 118,
        "9270": 234,
        "9271": 166,
        "9272": 198,
        "9273": 0,
        "9274": 83,
        "9275": 171,
        "9276": 154,
        "9277": 50,
        "9278": 86,
        "9279": 78,
        "9280": 140,
        "9281": 251,
        "9282": 36,
        "9283": 25,
        "9284": 216,
        "9285": 172,
        "9286": 213,
        "9287": 149,
        "9288": 28,
        "9289": 100,
        "9290": 192,
        "9291": 243,
        "9292": 108,
        "9293": 217,
        "9294": 220,
        "9295": 22,
        "9296": 101,
        "9297": 191,
        "9298": 13,
        "9299": 109,
        "9300": 153,
        "9301": 157,
        "9302": 151,
        "9303": 1,
        "9304": 203,
        "9305": 146,
        "9306": 236,
        "9307": 88,
        "9308": 212,
        "9309": 172,
        "9310": 68,
        "9311": 215,
        "9312": 3,
        "9313": 57,
        "9314": 157,
        "9315": 159,
        "9316": 83,
        "9317": 95,
        "9318": 38,
        "9319": 49,
        "9320": 184,
        "9321": 213,
        "9322": 133,
        "9323": 97,
        "9324": 167,
        "9325": 252,
        "9326": 157,
        "9327": 44,
        "9328": 117,
        "9329": 205,
        "9330": 46,
        "9331": 231,
        "9332": 210,
        "9333": 159,
        "9334": 190,
        "9335": 140,
        "9336": 53,
        "9337": 89,
        "9338": 98,
        "9339": 135,
        "9340": 219,
        "9341": 124,
        "9342": 2,
        "9343": 125,
        "9344": 53,
        "9345": 210,
        "9346": 19,
        "9347": 8,
        "9348": 235,
        "9349": 134,
        "9350": 146,
        "9351": 117,
        "9352": 248,
        "9353": 165,
        "9354": 168,
        "9355": 69,
        "9356": 146,
        "9357": 130,
        "9358": 158,
        "9359": 35,
        "9360": 163,
        "9361": 109,
        "9362": 122,
        "9363": 17,
        "9364": 163,
        "9365": 222,
        "9366": 68,
        "9367": 236,
        "9368": 121,
        "9369": 229,
        "9370": 86,
        "9371": 1,
        "9372": 104,
        "9373": 33,
        "9374": 157,
        "9375": 238,
        "9376": 208,
        "9377": 35,
        "9378": 121,
        "9379": 9,
        "9380": 112,
        "9381": 129,
        "9382": 39,
        "9383": 13,
        "9384": 229,
        "9385": 245,
        "9386": 179,
        "9387": 152,
        "9388": 130,
        "9389": 23,
        "9390": 76,
        "9391": 56,
        "9392": 80,
        "9393": 189,
        "9394": 159,
        "9395": 247,
        "9396": 166,
        "9397": 133,
        "9398": 55,
        "9399": 153,
        "9400": 77,
        "9401": 118,
        "9402": 52,
        "9403": 107,
        "9404": 84,
        "9405": 64,
        "9406": 134,
        "9407": 53,
        "9408": 167,
        "9409": 95,
        "9410": 13,
        "9411": 101,
        "9412": 108,
        "9413": 248,
        "9414": 218,
        "9415": 60,
        "9416": 132,
        "9417": 105,
        "9418": 47,
        "9419": 212,
        "9420": 151,
        "9421": 154,
        "9422": 94,
        "9423": 63,
        "9424": 115,
        "9425": 63,
        "9426": 234,
        "9427": 159,
        "9428": 0,
        "9429": 151,
        "9430": 204,
        "9431": 234,
        "9432": 53,
        "9433": 200,
        "9434": 170,
        "9435": 183,
        "9436": 141,
        "9437": 178,
        "9438": 92,
        "9439": 49,
        "9440": 93,
        "9441": 241,
        "9442": 17,
        "9443": 86,
        "9444": 35,
        "9445": 164,
        "9446": 217,
        "9447": 131,
        "9448": 169,
        "9449": 172,
        "9450": 74,
        "9451": 175,
        "9452": 205,
        "9453": 201,
        "9454": 182,
        "9455": 163,
        "9456": 202,
        "9457": 130,
        "9458": 29,
        "9459": 230,
        "9460": 136,
        "9461": 17,
        "9462": 236,
        "9463": 139,
        "9464": 146,
        "9465": 21,
        "9466": 164,
        "9467": 74,
        "9468": 184,
        "9469": 193,
        "9470": 89,
        "9471": 157,
        "9472": 133,
        "9473": 19,
        "9474": 1,
        "9475": 178,
        "9476": 47,
        "9477": 144,
        "9478": 157,
        "9479": 233,
        "9480": 188,
        "9481": 212,
        "9482": 130,
        "9483": 59,
        "9484": 159,
        "9485": 47,
        "9486": 39,
        "9487": 235,
        "9488": 175,
        "9489": 252,
        "9490": 25,
        "9491": 75,
        "9492": 123,
        "9493": 145,
        "9494": 147,
        "9495": 215,
        "9496": 197,
        "9497": 75,
        "9498": 56,
        "9499": 91,
        "9500": 70,
        "9501": 49,
        "9502": 126,
        "9503": 201,
        "9504": 225,
        "9505": 244,
        "9506": 153,
        "9507": 180,
        "9508": 131,
        "9509": 183,
        "9510": 71,
        "9511": 96,
        "9512": 129,
        "9513": 17,
        "9514": 140,
        "9515": 214,
        "9516": 126,
        "9517": 122,
        "9518": 101,
        "9519": 5,
        "9520": 224,
        "9521": 82,
        "9522": 81,
        "9523": 37,
        "9524": 196,
        "9525": 22,
        "9526": 117,
        "9527": 39,
        "9528": 248,
        "9529": 239,
        "9530": 83,
        "9531": 170,
        "9532": 85,
        "9533": 1,
        "9534": 246,
        "9535": 212,
        "9536": 205,
        "9537": 114,
        "9538": 104,
        "9539": 211,
        "9540": 116,
        "9541": 216,
        "9542": 239,
        "9543": 92,
        "9544": 162,
        "9545": 254,
        "9546": 240,
        "9547": 82,
        "9548": 93,
        "9549": 122,
        "9550": 92,
        "9551": 137,
        "9552": 226,
        "9553": 32,
        "9554": 186,
        "9555": 139,
        "9556": 147,
        "9557": 91,
        "9558": 9,
        "9559": 202,
        "9560": 26,
        "9561": 10,
        "9562": 76,
        "9563": 208,
        "9564": 167,
        "9565": 173,
        "9566": 219,
        "9567": 225,
        "9568": 54,
        "9569": 251,
        "9570": 216,
        "9571": 194,
        "9572": 217,
        "9573": 151,
        "9574": 248,
        "9575": 191,
        "9576": 2,
        "9577": 240,
        "9578": 57,
        "9579": 208,
        "9580": 15,
        "9581": 85,
        "9582": 238,
        "9583": 199,
        "9584": 244,
        "9585": 117,
        "9586": 225,
        "9587": 62,
        "9588": 203,
        "9589": 206,
        "9590": 226,
        "9591": 170,
        "9592": 229,
        "9593": 172,
        "9594": 252,
        "9595": 223,
        "9596": 164,
        "9597": 50,
        "9598": 6,
        "9599": 149,
        "9600": 250,
        "9601": 78,
        "9602": 5,
        "9603": 65,
        "9604": 123,
        "9605": 118,
        "9606": 16,
        "9607": 250,
        "9608": 22,
        "9609": 170,
        "9610": 19,
        "9611": 175,
        "9612": 69,
        "9613": 19,
        "9614": 15,
        "9615": 2,
        "9616": 151,
        "9617": 236,
        "9618": 76,
        "9619": 43,
        "9620": 143,
        "9621": 1,
        "9622": 106,
        "9623": 86,
        "9624": 106,
        "9625": 254,
        "9626": 49,
        "9627": 22,
        "9628": 75,
        "9629": 133,
        "9630": 34,
        "9631": 86,
        "9632": 233,
        "9633": 234,
        "9634": 174,
        "9635": 240,
        "9636": 3,
        "9637": 120,
        "9638": 105,
        "9639": 30,
        "9640": 154,
        "9641": 12,
        "9642": 53,
        "9643": 106,
        "9644": 208,
        "9645": 14,
        "9646": 3,
        "9647": 156,
        "9648": 33,
        "9649": 114,
        "9650": 46,
        "9651": 108,
        "9652": 66,
        "9653": 237,
        "9654": 46,
        "9655": 179,
        "9656": 244,
        "9657": 8,
        "9658": 37,
        "9659": 126,
        "9660": 18,
        "9661": 184,
        "9662": 118,
        "9663": 53,
        "9664": 203,
        "9665": 175,
        "9666": 89,
        "9667": 75,
        "9668": 14,
        "9669": 200,
        "9670": 61,
        "9671": 68,
        "9672": 118,
        "9673": 133,
        "9674": 76,
        "9675": 168,
        "9676": 121,
        "9677": 231,
        "9678": 185,
        "9679": 0,
        "9680": 147,
        "9681": 187,
        "9682": 71,
        "9683": 85,
        "9684": 153,
        "9685": 227,
        "9686": 197,
        "9687": 178,
        "9688": 3,
        "9689": 210,
        "9690": 93,
        "9691": 189,
        "9692": 168,
        "9693": 11,
        "9694": 31,
        "9695": 245,
        "9696": 102,
        "9697": 29,
        "9698": 248,
        "9699": 165,
        "9700": 57,
        "9701": 207,
        "9702": 203,
        "9703": 76,
        "9704": 107,
        "9705": 99,
        "9706": 84,
        "9707": 206,
        "9708": 140,
        "9709": 244,
        "9710": 152,
        "9711": 5,
        "9712": 19,
        "9713": 144,
        "9714": 252,
        "9715": 139,
        "9716": 126,
        "9717": 94,
        "9718": 25,
        "9719": 51,
        "9720": 113,
        "9721": 228,
        "9722": 134,
        "9723": 78,
        "9724": 54,
        "9725": 119,
        "9726": 100,
        "9727": 116,
        "9728": 159,
        "9729": 25,
        "9730": 179,
        "9731": 152,
        "9732": 245,
        "9733": 199,
        "9734": 156,
        "9735": 238,
        "9736": 65,
        "9737": 49,
        "9738": 15,
        "9739": 68,
        "9740": 51,
        "9741": 249,
        "9742": 99,
        "9743": 125,
        "9744": 29,
        "9745": 250,
        "9746": 94,
        "9747": 236,
        "9748": 120,
        "9749": 109,
        "9750": 82,
        "9751": 214,
        "9752": 95,
        "9753": 126,
        "9754": 253,
        "9755": 247,
        "9756": 111,
        "9757": 134,
        "9758": 224,
        "9759": 53,
        "9760": 3,
        "9761": 85,
        "9762": 129,
        "9763": 58,
        "9764": 172,
        "9765": 70,
        "9766": 165,
        "9767": 83,
        "9768": 251,
        "9769": 6,
        "9770": 253,
        "9771": 102,
        "9772": 217,
        "9773": 82,
        "9774": 168,
        "9775": 31,
        "9776": 34,
        "9777": 122,
        "9778": 230,
        "9779": 234,
        "9780": 64,
        "9781": 125,
        "9782": 148,
        "9783": 250,
        "9784": 196,
        "9785": 16,
        "9786": 156,
        "9787": 218,
        "9788": 55,
        "9789": 8,
        "9790": 205,
        "9791": 145,
        "9792": 160,
        "9793": 110,
        "9794": 191,
        "9795": 224,
        "9796": 168,
        "9797": 238,
        "9798": 80,
        "9799": 143,
        "9800": 144,
        "9801": 86,
        "9802": 12,
        "9803": 82,
        "9804": 71,
        "9805": 155,
        "9806": 191,
        "9807": 83,
        "9808": 221,
        "9809": 155,
        "9810": 222,
        "9811": 25,
        "9812": 248,
        "9813": 98,
        "9814": 74,
        "9815": 19,
        "9816": 1,
        "9817": 180,
        "9818": 19,
        "9819": 99,
        "9820": 52,
        "9821": 97,
        "9822": 21,
        "9823": 16,
        "9824": 16,
        "9825": 224,
        "9826": 142,
        "9827": 232,
        "9828": 237,
        "9829": 76,
        "9830": 205,
        "9831": 205,
        "9832": 168,
        "9833": 82,
        "9834": 44,
        "9835": 185,
        "9836": 85,
        "9837": 8,
        "9838": 22,
        "9839": 55,
        "9840": 203,
        "9841": 75,
        "9842": 7,
        "9843": 249,
        "9844": 182,
        "9845": 125,
        "9846": 66,
        "9847": 210,
        "9848": 57,
        "9849": 172,
        "9850": 30,
        "9851": 144,
        "9852": 153,
        "9853": 67,
        "9854": 95,
        "9855": 41,
        "9856": 243,
        "9857": 249,
        "9858": 168,
        "9859": 2,
        "9860": 190,
        "9861": 106,
        "9862": 89,
        "9863": 20,
        "9864": 216,
        "9865": 140,
        "9866": 224,
        "9867": 55,
        "9868": 179,
        "9869": 127,
        "9870": 183,
        "9871": 163,
        "9872": 38,
        "9873": 140,
        "9874": 174,
        "9875": 202,
        "9876": 74,
        "9877": 130,
        "9878": 62,
        "9879": 149,
        "9880": 6,
        "9881": 17,
        "9882": 106,
        "9883": 72,
        "9884": 65,
        "9885": 147,
        "9886": 255,
        "9887": 41,
        "9888": 36,
        "9889": 179,
        "9890": 183,
        "9891": 60,
        "9892": 255,
        "9893": 136,
        "9894": 180,
        "9895": 214,
        "9896": 228,
        "9897": 167,
        "9898": 102,
        "9899": 9,
        "9900": 20,
        "9901": 231,
        "9902": 237,
        "9903": 210,
        "9904": 143,
        "9905": 84,
        "9906": 54,
        "9907": 153,
        "9908": 131,
        "9909": 202,
        "9910": 32,
        "9911": 73,
        "9912": 35,
        "9913": 169,
        "9914": 214,
        "9915": 250,
        "9916": 75,
        "9917": 124,
        "9918": 248,
        "9919": 235,
        "9920": 130,
        "9921": 116,
        "9922": 39,
        "9923": 233,
        "9924": 29,
        "9925": 223,
        "9926": 252,
        "9927": 57,
        "9928": 224,
        "9929": 214,
        "9930": 205,
        "9931": 150,
        "9932": 194,
        "9933": 86,
        "9934": 91,
        "9935": 167,
        "9936": 131,
        "9937": 81,
        "9938": 180,
        "9939": 179,
        "9940": 164,
        "9941": 134,
        "9942": 100,
        "9943": 136,
        "9944": 226,
        "9945": 250,
        "9946": 151,
        "9947": 214,
        "9948": 114,
        "9949": 61,
        "9950": 121,
        "9951": 4,
        "9952": 154,
        "9953": 164,
        "9954": 119,
        "9955": 204,
        "9956": 101,
        "9957": 149,
        "9958": 177,
        "9959": 183,
        "9960": 231,
        "9961": 246,
        "9962": 82,
        "9963": 117,
        "9964": 142,
        "9965": 152,
        "9966": 156,
        "9967": 52,
        "9968": 218,
        "9969": 215,
        "9970": 95,
        "9971": 180,
        "9972": 65,
        "9973": 72,
        "9974": 91,
        "9975": 181,
        "9976": 112,
        "9977": 166,
        "9978": 255,
        "9979": 141,
        "9980": 224,
        "9981": 10,
        "9982": 153,
        "9983": 189,
        "9984": 168,
        "9985": 87,
        "9986": 79,
        "9987": 30,
        "9988": 69,
        "9989": 230,
        "9990": 229,
        "9991": 230,
        "9992": 39,
        "9993": 84,
        "9994": 102,
        "9995": 136,
        "9996": 54,
        "9997": 176,
        "9998": 166,
        "9999": 139,
        "10000": 207,
        "10001": 7,
        "10002": 109,
        "10003": 13,
        "10004": 69,
        "10005": 168,
        "10006": 239,
        "10007": 167,
        "10008": 159,
        "10009": 105,
        "10010": 91,
        "10011": 103,
        "10012": 107,
        "10013": 64,
        "10014": 155,
        "10015": 108,
        "10016": 223,
        "10017": 250,
        "10018": 235,
        "10019": 31,
        "10020": 81,
        "10021": 25,
        "10022": 240,
        "10023": 14,
        "10024": 223,
        "10025": 80,
        "10026": 201,
        "10027": 151,
        "10028": 152,
        "10029": 177,
        "10030": 48,
        "10031": 118,
        "10032": 72,
        "10033": 47,
        "10034": 128,
        "10035": 140,
        "10036": 32,
        "10037": 59,
        "10038": 183,
        "10039": 115,
        "10040": 162,
        "10041": 246,
        "10042": 68,
        "10043": 29,
        "10044": 4,
        "10045": 241,
        "10046": 71,
        "10047": 209,
        "10048": 49,
        "10049": 201,
        "10050": 14,
        "10051": 168,
        "10052": 248,
        "10053": 150,
        "10054": 72,
        "10055": 121,
        "10056": 68,
        "10057": 107,
        "10058": 219,
        "10059": 99,
        "10060": 229,
        "10061": 89,
        "10062": 112,
        "10063": 90,
        "10064": 173,
        "10065": 59,
        "10066": 73,
        "10067": 242,
        "10068": 81,
        "10069": 116,
        "10070": 101,
        "10071": 117,
        "10072": 9,
        "10073": 109,
        "10074": 141,
        "10075": 180,
        "10076": 76,
        "10077": 152,
        "10078": 254,
        "10079": 205,
        "10080": 93,
        "10081": 34,
        "10082": 209,
        "10083": 98,
        "10084": 205,
        "10085": 2,
        "10086": 224,
        "10087": 191,
        "10088": 245,
        "10089": 137,
        "10090": 12,
        "10091": 254,
        "10092": 226,
        "10093": 31,
        "10094": 163,
        "10095": 254,
        "10096": 124,
        "10097": 34,
        "10098": 32,
        "10099": 144,
        "10100": 255,
        "10101": 87,
        "10102": 180,
        "10103": 18,
        "10104": 116,
        "10105": 159,
        "10106": 119,
        "10107": 183,
        "10108": 77,
        "10109": 103,
        "10110": 64,
        "10111": 99,
        "10112": 27,
        "10113": 249,
        "10114": 207,
        "10115": 162,
        "10116": 94,
        "10117": 127,
        "10118": 184,
        "10119": 50,
        "10120": 36,
        "10121": 57,
        "10122": 148,
        "10123": 191,
        "10124": 181,
        "10125": 132,
        "10126": 113,
        "10127": 169,
        "10128": 238,
        "10129": 25,
        "10130": 152,
        "10131": 109,
        "10132": 178,
        "10133": 109,
        "10134": 77,
        "10135": 71,
        "10136": 196,
        "10137": 162,
        "10138": 245,
        "10139": 77,
        "10140": 233,
        "10141": 166,
        "10142": 181,
        "10143": 20,
        "10144": 131,
        "10145": 142,
        "10146": 213,
        "10147": 122,
        "10148": 131,
        "10149": 85,
        "10150": 81,
        "10151": 115,
        "10152": 22,
        "10153": 20,
        "10154": 193,
        "10155": 81,
        "10156": 102,
        "10157": 165,
        "10158": 53,
        "10159": 3,
        "10160": 186,
        "10161": 33,
        "10162": 131,
        "10163": 167,
        "10164": 6,
        "10165": 181,
        "10166": 129,
        "10167": 136,
        "10168": 160,
        "10169": 29,
        "10170": 250,
        "10171": 88,
        "10172": 0,
        "10173": 171,
        "10174": 189,
        "10175": 18,
        "10176": 204,
        "10177": 231,
        "10178": 0,
        "10179": 184,
        "10180": 196,
        "10181": 20,
        "10182": 7,
        "10183": 45,
        "10184": 148,
        "10185": 21,
        "10186": 219,
        "10187": 52,
        "10188": 87,
        "10189": 164,
        "10190": 184,
        "10191": 90,
        "10192": 171,
        "10193": 126,
        "10194": 31,
        "10195": 73,
        "10196": 27,
        "10197": 177,
        "10198": 231,
        "10199": 179,
        "10200": 85,
        "10201": 104,
        "10202": 110,
        "10203": 123,
        "10204": 227,
        "10205": 226,
        "10206": 110,
        "10207": 70,
        "10208": 89,
        "10209": 254,
        "10210": 221,
        "10211": 219,
        "10212": 158,
        "10213": 254,
        "10214": 245,
        "10215": 122,
        "10216": 203,
        "10217": 136,
        "10218": 48,
        "10219": 10,
        "10220": 199,
        "10221": 32,
        "10222": 237,
        "10223": 37,
        "10224": 110,
        "10225": 47,
        "10226": 136,
        "10227": 56,
        "10228": 241,
        "10229": 8,
        "10230": 165,
        "10231": 13,
        "10232": 230,
        "10233": 176,
        "10234": 173,
        "10235": 88,
        "10236": 31,
        "10237": 63,
        "10238": 222,
        "10239": 18,
        "10240": 163,
        "10241": 9,
        "10242": 50,
        "10243": 254,
        "10244": 167,
        "10245": 209,
        "10246": 214,
        "10247": 33,
        "10248": 48,
        "10249": 83,
        "10250": 221,
        "10251": 175,
        "10252": 230,
        "10253": 60,
        "10254": 135,
        "10255": 239,
        "10256": 109,
        "10257": 72,
        "10258": 184,
        "10259": 32,
        "10260": 227,
        "10261": 156,
        "10262": 152,
        "10263": 11,
        "10264": 67,
        "10265": 228,
        "10266": 191,
        "10267": 87,
        "10268": 162,
        "10269": 27,
        "10270": 126,
        "10271": 197,
        "10272": 110,
        "10273": 179,
        "10274": 194,
        "10275": 24,
        "10276": 47,
        "10277": 23,
        "10278": 226,
        "10279": 185,
        "10280": 244,
        "10281": 42,
        "10282": 173,
        "10283": 210,
        "10284": 44,
        "10285": 72,
        "10286": 159,
        "10287": 88,
        "10288": 155,
        "10289": 187,
        "10290": 115,
        "10291": 21,
        "10292": 187,
        "10293": 189,
        "10294": 26,
        "10295": 54,
        "10296": 194,
        "10297": 217,
        "10298": 43,
        "10299": 6,
        "10300": 201,
        "10301": 238,
        "10302": 143,
        "10303": 221,
        "10304": 32,
        "10305": 189,
        "10306": 94,
        "10307": 69,
        "10308": 158,
        "10309": 12,
        "10310": 131,
        "10311": 145,
        "10312": 91,
        "10313": 209,
        "10314": 164,
        "10315": 212,
        "10316": 181,
        "10317": 219,
        "10318": 131,
        "10319": 245,
        "10320": 172,
        "10321": 182,
        "10322": 115,
        "10323": 67,
        "10324": 174,
        "10325": 49,
        "10326": 98,
        "10327": 141,
        "10328": 182,
        "10329": 214,
        "10330": 75,
        "10331": 70,
        "10332": 136,
        "10333": 187,
        "10334": 213,
        "10335": 136,
        "10336": 237,
        "10337": 141,
        "10338": 84,
        "10339": 112,
        "10340": 254,
        "10341": 103,
        "10342": 193,
        "10343": 244,
        "10344": 104,
        "10345": 116,
        "10346": 197,
        "10347": 170,
        "10348": 180,
        "10349": 79,
        "10350": 228,
        "10351": 128,
        "10352": 90,
        "10353": 211,
        "10354": 169,
        "10355": 103,
        "10356": 80,
        "10357": 243,
        "10358": 173,
        "10359": 153,
        "10360": 125,
        "10361": 210,
        "10362": 131,
        "10363": 190,
        "10364": 79,
        "10365": 216,
        "10366": 148,
        "10367": 67,
        "10368": 132,
        "10369": 53,
        "10370": 20,
        "10371": 149,
        "10372": 121,
        "10373": 133,
        "10374": 149,
        "10375": 56,
        "10376": 221,
        "10377": 244,
        "10378": 28,
        "10379": 112,
        "10380": 192,
        "10381": 135,
        "10382": 245,
        "10383": 192,
        "10384": 20,
        "10385": 217,
        "10386": 46,
        "10387": 129,
        "10388": 179,
        "10389": 201,
        "10390": 142,
        "10391": 14,
        "10392": 215,
        "10393": 41,
        "10394": 166,
        "10395": 45,
        "10396": 76,
        "10397": 1,
        "10398": 132,
        "10399": 95,
        "10400": 166,
        "10401": 32,
        "10402": 30,
        "10403": 247,
        "10404": 125,
        "10405": 228,
        "10406": 8,
        "10407": 124,
        "10408": 25,
        "10409": 226,
        "10410": 187,
        "10411": 85,
        "10412": 41,
        "10413": 144,
        "10414": 100,
        "10415": 123,
        "10416": 180,
        "10417": 8,
        "10418": 59,
        "10419": 140,
        "10420": 155,
        "10421": 84,
        "10422": 12,
        "10423": 75,
        "10424": 181,
        "10425": 248,
        "10426": 228,
        "10427": 59,
        "10428": 113,
        "10429": 188,
        "10430": 7,
        "10431": 149,
        "10432": 205,
        "10433": 233,
        "10434": 113,
        "10435": 40,
        "10436": 40,
        "10437": 114,
        "10438": 181,
        "10439": 158,
        "10440": 97,
        "10441": 143,
        "10442": 46,
        "10443": 169,
        "10444": 14,
        "10445": 169,
        "10446": 226,
        "10447": 238,
        "10448": 117,
        "10449": 16,
        "10450": 245,
        "10451": 51,
        "10452": 87,
        "10453": 223,
        "10454": 251,
        "10455": 23,
        "10456": 147,
        "10457": 81,
        "10458": 68,
        "10459": 195,
        "10460": 191,
        "10461": 95,
        "10462": 240,
        "10463": 175,
        "10464": 132,
        "10465": 214,
        "10466": 63,
        "10467": 72,
        "10468": 0,
        "10469": 13,
        "10470": 159,
        "10471": 110,
        "10472": 115,
        "10473": 171,
        "10474": 163,
        "10475": 47,
        "10476": 146,
        "10477": 237,
        "10478": 57,
        "10479": 121,
        "10480": 18,
        "10481": 200,
        "10482": 91,
        "10483": 254,
        "10484": 74,
        "10485": 110,
        "10486": 194,
        "10487": 44,
        "10488": 0,
        "10489": 136,
        "10490": 246,
        "10491": 53,
        "10492": 235,
        "10493": 27,
        "10494": 254,
        "10495": 75,
        "10496": 254,
        "10497": 244,
        "10498": 159,
        "10499": 161,
        "10500": 228,
        "10501": 208,
        "10502": 184,
        "10503": 241,
        "10504": 242,
        "10505": 223,
        "10506": 247,
        "10507": 30,
        "10508": 33,
        "10509": 216,
        "10510": 97,
        "10511": 129,
        "10512": 41,
        "10513": 126,
        "10514": 25,
        "10515": 58,
        "10516": 51,
        "10517": 225,
        "10518": 189,
        "10519": 38,
        "10520": 119,
        "10521": 43,
        "10522": 105,
        "10523": 186,
        "10524": 138,
        "10525": 101,
        "10526": 149,
        "10527": 241,
        "10528": 5,
        "10529": 3,
        "10530": 241,
        "10531": 173,
        "10532": 254,
        "10533": 134,
        "10534": 191,
        "10535": 172,
        "10536": 152,
        "10537": 190,
        "10538": 45,
        "10539": 19,
        "10540": 102,
        "10541": 50,
        "10542": 206,
        "10543": 124,
        "10544": 45,
        "10545": 30,
        "10546": 0,
        "10547": 38,
        "10548": 129,
        "10549": 67,
        "10550": 104,
        "10551": 181,
        "10552": 138,
        "10553": 223,
        "10554": 132,
        "10555": 46,
        "10556": 188,
        "10557": 95,
        "10558": 207,
        "10559": 243,
        "10560": 5,
        "10561": 187,
        "10562": 214,
        "10563": 145,
        "10564": 4,
        "10565": 210,
        "10566": 185,
        "10567": 206,
        "10568": 38,
        "10569": 8,
        "10570": 53,
        "10571": 199,
        "10572": 2,
        "10573": 47,
        "10574": 208,
        "10575": 236,
        "10576": 22,
        "10577": 230,
        "10578": 183,
        "10579": 252,
        "10580": 63,
        "10581": 211,
        "10582": 48,
        "10583": 200,
        "10584": 5,
        "10585": 80,
        "10586": 63,
        "10587": 226,
        "10588": 244,
        "10589": 169,
        "10590": 151,
        "10591": 251,
        "10592": 28,
        "10593": 85,
        "10594": 28,
        "10595": 230,
        "10596": 3,
        "10597": 95,
        "10598": 156,
        "10599": 116,
        "10600": 233,
        "10601": 97,
        "10602": 98,
        "10603": 248,
        "10604": 168,
        "10605": 193,
        "10606": 183,
        "10607": 53,
        "10608": 214,
        "10609": 167,
        "10610": 235,
        "10611": 234,
        "10612": 63,
        "10613": 121,
        "10614": 65,
        "10615": 239,
        "10616": 114,
        "10617": 4,
        "10618": 250,
        "10619": 207,
        "10620": 80,
        "10621": 115,
        "10622": 65,
        "10623": 111,
        "10624": 159,
        "10625": 205,
        "10626": 49,
        "10627": 137,
        "10628": 4,
        "10629": 0,
        "10630": 237,
        "10631": 227,
        "10632": 245,
        "10633": 203,
        "10634": 37,
        "10635": 250,
        "10636": 162,
        "10637": 94,
        "10638": 175,
        "10639": 141,
        "10640": 178,
        "10641": 30,
        "10642": 104,
        "10643": 155,
        "10644": 165,
        "10645": 68,
        "10646": 76,
        "10647": 93,
        "10648": 73,
        "10649": 137,
        "10650": 82,
        "10651": 73,
        "10652": 69,
        "10653": 49,
        "10654": 172,
        "10655": 177,
        "10656": 134,
        "10657": 105,
        "10658": 199,
        "10659": 17,
        "10660": 204,
        "10661": 139,
        "10662": 129,
        "10663": 111,
        "10664": 12,
        "10665": 41,
        "10666": 211,
        "10667": 201,
        "10668": 110,
        "10669": 58,
        "10670": 101,
        "10671": 131,
        "10672": 78,
        "10673": 144,
        "10674": 38,
        "10675": 13,
        "10676": 246,
        "10677": 0,
        "10678": 224,
        "10679": 101,
        "10680": 27,
        "10681": 1,
        "10682": 48,
        "10683": 227,
        "10684": 88,
        "10685": 195,
        "10686": 76,
        "10687": 203,
        "10688": 96,
        "10689": 38,
        "10690": 216,
        "10691": 211,
        "10692": 176,
        "10693": 204,
        "10694": 56,
        "10695": 100,
        "10696": 204,
        "10697": 7,
        "10698": 90,
        "10699": 65,
        "10700": 149,
        "10701": 238,
        "10702": 202,
        "10703": 169,
        "10704": 195,
        "10705": 58,
        "10706": 97,
        "10707": 161,
        "10708": 36,
        "10709": 149,
        "10710": 42,
        "10711": 38,
        "10712": 152,
        "10713": 130,
        "10714": 107,
        "10715": 147,
        "10716": 83,
        "10717": 124,
        "10718": 86,
        "10719": 247,
        "10720": 197,
        "10721": 69,
        "10722": 169,
        "10723": 241,
        "10724": 176,
        "10725": 0,
        "10726": 142,
        "10727": 238,
        "10728": 75,
        "10729": 165,
        "10730": 228,
        "10731": 161,
        "10732": 230,
        "10733": 157,
        "10734": 130,
        "10735": 187,
        "10736": 72,
        "10737": 130,
        "10738": 169,
        "10739": 114,
        "10740": 249,
        "10741": 83,
        "10742": 201,
        "10743": 188,
        "10744": 76,
        "10745": 161,
        "10746": 217,
        "10747": 136,
        "10748": 173,
        "10749": 76,
        "10750": 132,
        "10751": 139,
        "10752": 113,
        "10753": 38,
        "10754": 19,
        "10755": 41,
        "10756": 0,
        "10757": 250,
        "10758": 109,
        "10759": 174,
        "10760": 234,
        "10761": 38,
        "10762": 251,
        "10763": 100,
        "10764": 67,
        "10765": 78,
        "10766": 196,
        "10767": 57,
        "10768": 246,
        "10769": 145,
        "10770": 71,
        "10771": 90,
        "10772": 67,
        "10773": 172,
        "10774": 20,
        "10775": 79,
        "10776": 150,
        "10777": 229,
        "10778": 227,
        "10779": 152,
        "10780": 59,
        "10781": 0,
        "10782": 47,
        "10783": 165,
        "10784": 70,
        "10785": 221,
        "10786": 26,
        "10787": 207,
        "10788": 81,
        "10789": 202,
        "10790": 104,
        "10791": 26,
        "10792": 201,
        "10793": 26,
        "10794": 230,
        "10795": 108,
        "10796": 242,
        "10797": 67,
        "10798": 165,
        "10799": 163,
        "10800": 199,
        "10801": 172,
        "10802": 230,
        "10803": 21,
        "10804": 78,
        "10805": 137,
        "10806": 107,
        "10807": 161,
        "10808": 93,
        "10809": 82,
        "10810": 184,
        "10811": 99,
        "10812": 21,
        "10813": 99,
        "10814": 125,
        "10815": 118,
        "10816": 252,
        "10817": 137,
        "10818": 76,
        "10819": 213,
        "10820": 154,
        "10821": 141,
        "10822": 139,
        "10823": 3,
        "10824": 3,
        "10825": 249,
        "10826": 240,
        "10827": 153,
        "10828": 135,
        "10829": 239,
        "10830": 194,
        "10831": 253,
        "10832": 229,
        "10833": 183,
        "10834": 127,
        "10835": 163,
        "10836": 6,
        "10837": 75,
        "10838": 200,
        "10839": 73,
        "10840": 64,
        "10841": 70,
        "10842": 227,
        "10843": 36,
        "10844": 146,
        "10845": 254,
        "10846": 9,
        "10847": 192,
        "10848": 179,
        "10849": 55,
        "10850": 176,
        "10851": 180,
        "10852": 47,
        "10853": 178,
        "10854": 182,
        "10855": 132,
        "10856": 36,
        "10857": 30,
        "10858": 225,
        "10859": 143,
        "10860": 234,
        "10861": 59,
        "10862": 5,
        "10863": 75,
        "10864": 90,
        "10865": 46,
        "10866": 103,
        "10867": 63,
        "10868": 0,
        "10869": 10,
        "10870": 208,
        "10871": 130,
        "10872": 33,
        "10873": 25,
        "10874": 22,
        "10875": 247,
        "10876": 144,
        "10877": 60,
        "10878": 122,
        "10879": 166,
        "10880": 43,
        "10881": 23,
        "10882": 96,
        "10883": 98,
        "10884": 104,
        "10885": 20,
        "10886": 166,
        "10887": 164,
        "10888": 135,
        "10889": 121,
        "10890": 89,
        "10891": 138,
        "10892": 78,
        "10893": 13,
        "10894": 251,
        "10895": 63,
        "10896": 91,
        "10897": 113,
        "10898": 88,
        "10899": 73,
        "10900": 246,
        "10901": 180,
        "10902": 202,
        "10903": 177,
        "10904": 187,
        "10905": 219,
        "10906": 10,
        "10907": 221,
        "10908": 166,
        "10909": 124,
        "10910": 163,
        "10911": 217,
        "10912": 178,
        "10913": 152,
        "10914": 161,
        "10915": 194,
        "10916": 160,
        "10917": 172,
        "10918": 219,
        "10919": 143,
        "10920": 14,
        "10921": 194,
        "10922": 72,
        "10923": 136,
        "10924": 1,
        "10925": 68,
        "10926": 125,
        "10927": 134,
        "10928": 69,
        "10929": 73,
        "10930": 8,
        "10931": 221,
        "10932": 189,
        "10933": 190,
        "10934": 134,
        "10935": 206,
        "10936": 229,
        "10937": 158,
        "10938": 200,
        "10939": 111,
        "10940": 151,
        "10941": 51,
        "10942": 182,
        "10943": 129,
        "10944": 58,
        "10945": 118,
        "10946": 61,
        "10947": 107,
        "10948": 150,
        "10949": 141,
        "10950": 227,
        "10951": 4,
        "10952": 229,
        "10953": 37,
        "10954": 75,
        "10955": 148,
        "10956": 210,
        "10957": 140,
        "10958": 165,
        "10959": 151,
        "10960": 221,
        "10961": 63,
        "10962": 221,
        "10963": 161,
        "10964": 166,
        "10965": 230,
        "10966": 106,
        "10967": 160,
        "10968": 139,
        "10969": 132,
        "10970": 143,
        "10971": 158,
        "10972": 199,
        "10973": 224,
        "10974": 112,
        "10975": 79,
        "10976": 178,
        "10977": 101,
        "10978": 37,
        "10979": 243,
        "10980": 20,
        "10981": 244,
        "10982": 105,
        "10983": 200,
        "10984": 77,
        "10985": 226,
        "10986": 176,
        "10987": 86,
        "10988": 238,
        "10989": 42,
        "10990": 203,
        "10991": 162,
        "10992": 104,
        "10993": 44,
        "10994": 162,
        "10995": 115,
        "10996": 116,
        "10997": 226,
        "10998": 213,
        "10999": 176,
        "11000": 80,
        "11001": 161,
        "11002": 209,
        "11003": 96,
        "11004": 111,
        "11005": 127,
        "11006": 16,
        "11007": 231,
        "11008": 55,
        "11009": 163,
        "11010": 78,
        "11011": 55,
        "11012": 110,
        "11013": 173,
        "11014": 235,
        "11015": 85,
        "11016": 203,
        "11017": 243,
        "11018": 137,
        "11019": 143,
        "11020": 224,
        "11021": 99,
        "11022": 214,
        "11023": 167,
        "11024": 243,
        "11025": 0,
        "11026": 185,
        "11027": 89,
        "11028": 27,
        "11029": 71,
        "11030": 105,
        "11031": 166,
        "11032": 1,
        "11033": 8,
        "11034": 124,
        "11035": 30,
        "11036": 34,
        "11037": 57,
        "11038": 55,
        "11039": 63,
        "11040": 133,
        "11041": 16,
        "11042": 141,
        "11043": 70,
        "11044": 39,
        "11045": 122,
        "11046": 27,
        "11047": 108,
        "11048": 78,
        "11049": 205,
        "11050": 94,
        "11051": 31,
        "11052": 173,
        "11053": 169,
        "11054": 55,
        "11055": 152,
        "11056": 22,
        "11057": 59,
        "11058": 102,
        "11059": 34,
        "11060": 9,
        "11061": 59,
        "11062": 144,
        "11063": 66,
        "11064": 196,
        "11065": 193,
        "11066": 46,
        "11067": 17,
        "11068": 154,
        "11069": 195,
        "11070": 10,
        "11071": 155,
        "11072": 45,
        "11073": 106,
        "11074": 188,
        "11075": 107,
        "11076": 77,
        "11077": 190,
        "11078": 211,
        "11079": 230,
        "11080": 139,
        "11081": 88,
        "11082": 252,
        "11083": 202,
        "11084": 230,
        "11085": 135,
        "11086": 66,
        "11087": 68,
        "11088": 241,
        "11089": 123,
        "11090": 206,
        "11091": 74,
        "11092": 20,
        "11093": 197,
        "11094": 48,
        "11095": 254,
        "11096": 55,
        "11097": 116,
        "11098": 234,
        "11099": 16,
        "11100": 90,
        "11101": 235,
        "11102": 20,
        "11103": 92,
        "11104": 167,
        "11105": 79,
        "11106": 226,
        "11107": 91,
        "11108": 124,
        "11109": 203,
        "11110": 198,
        "11111": 164,
        "11112": 136,
        "11113": 126,
        "11114": 213,
        "11115": 158,
        "11116": 205,
        "11117": 174,
        "11118": 157,
        "11119": 251,
        "11120": 186,
        "11121": 186,
        "11122": 247,
        "11123": 242,
        "11124": 28,
        "11125": 94,
        "11126": 39,
        "11127": 237,
        "11128": 145,
        "11129": 60,
        "11130": 125,
        "11131": 254,
        "11132": 49,
        "11133": 48,
        "11134": 229,
        "11135": 252,
        "11136": 150,
        "11137": 145,
        "11138": 114,
        "11139": 74,
        "11140": 99,
        "11141": 229,
        "11142": 84,
        "11143": 66,
        "11144": 142,
        "11145": 238,
        "11146": 118,
        "11147": 21,
        "11148": 103,
        "11149": 132,
        "11150": 149,
        "11151": 159,
        "11152": 62,
        "11153": 92,
        "11154": 10,
        "11155": 83,
        "11156": 2,
        "11157": 189,
        "11158": 240,
        "11159": 69,
        "11160": 221,
        "11161": 112,
        "11162": 78,
        "11163": 3,
        "11164": 28,
        "11165": 254,
        "11166": 133,
        "11167": 85,
        "11168": 226,
        "11169": 4,
        "11170": 193,
        "11171": 40,
        "11172": 113,
        "11173": 151,
        "11174": 104,
        "11175": 27,
        "11176": 58,
        "11177": 189,
        "11178": 219,
        "11179": 226,
        "11180": 196,
        "11181": 119,
        "11182": 155,
        "11183": 120,
        "11184": 119,
        "11185": 230,
        "11186": 255,
        "11187": 28,
        "11188": 30,
        "11189": 248,
        "11190": 216,
        "11191": 135,
        "11192": 230,
        "11193": 88,
        "11194": 94,
        "11195": 159,
        "11196": 208,
        "11197": 146,
        "11198": 51,
        "11199": 150,
        "11200": 73,
        "11201": 96,
        "11202": 100,
        "11203": 88,
        "11204": 113,
        "11205": 44,
        "11206": 183,
        "11207": 1,
        "11208": 133,
        "11209": 101,
        "11210": 47,
        "11211": 155,
        "11212": 236,
        "11213": 161,
        "11214": 224,
        "11215": 122,
        "11216": 64,
        "11217": 232,
        "11218": 214,
        "11219": 28,
        "11220": 104,
        "11221": 66,
        "11222": 167,
        "11223": 191,
        "11224": 235,
        "11225": 92,
        "11226": 18,
        "11227": 120,
        "11228": 13,
        "11229": 134,
        "11230": 48,
        "11231": 234,
        "11232": 137,
        "11233": 234,
        "11234": 211,
        "11235": 235,
        "11236": 70,
        "11237": 117,
        "11238": 117,
        "11239": 238,
        "11240": 169,
        "11241": 186,
        "11242": 69,
        "11243": 69,
        "11244": 78,
        "11245": 216,
        "11246": 92,
        "11247": 194,
        "11248": 116,
        "11249": 113,
        "11250": 20,
        "11251": 49,
        "11252": 237,
        "11253": 111,
        "11254": 206,
        "11255": 153,
        "11256": 55,
        "11257": 109,
        "11258": 64,
        "11259": 85,
        "11260": 190,
        "11261": 28,
        "11262": 248,
        "11263": 246,
        "11264": 199,
        "11265": 211,
        "11266": 94,
        "11267": 251,
        "11268": 34,
        "11269": 116,
        "11270": 128,
        "11271": 1,
        "11272": 39,
        "11273": 167,
        "11274": 198,
        "11275": 156,
        "11276": 127,
        "11277": 39,
        "11278": 111,
        "11279": 181,
        "11280": 252,
        "11281": 194,
        "11282": 1,
        "11283": 23,
        "11284": 255,
        "11285": 118,
        "11286": 244,
        "11287": 108,
        "11288": 156,
        "11289": 214,
        "11290": 98,
        "11291": 165,
        "11292": 219,
        "11293": 132,
        "11294": 52,
        "11295": 191,
        "11296": 243,
        "11297": 239,
        "11298": 90,
        "11299": 236,
        "11300": 42,
        "11301": 119,
        "11302": 120,
        "11303": 40,
        "11304": 204,
        "11305": 255,
        "11306": 215,
        "11307": 132,
        "11308": 179,
        "11309": 89,
        "11310": 210,
        "11311": 44,
        "11312": 36,
        "11313": 20,
        "11314": 7,
        "11315": 226,
        "11316": 72,
        "11317": 92,
        "11318": 211,
        "11319": 116,
        "11320": 188,
        "11321": 100,
        "11322": 20,
        "11323": 123,
        "11324": 100,
        "11325": 36,
        "11326": 217,
        "11327": 30,
        "11328": 214,
        "11329": 207,
        "11330": 251,
        "11331": 198,
        "11332": 40,
        "11333": 54,
        "11334": 43,
        "11335": 13,
        "11336": 190,
        "11337": 94,
        "11338": 96,
        "11339": 249,
        "11340": 62,
        "11341": 43,
        "11342": 111,
        "11343": 237,
        "11344": 98,
        "11345": 177,
        "11346": 19,
        "11347": 42,
        "11348": 207,
        "11349": 10,
        "11350": 242,
        "11351": 181,
        "11352": 233,
        "11353": 132,
        "11354": 29,
        "11355": 185,
        "11356": 227,
        "11357": 34,
        "11358": 129,
        "11359": 165,
        "11360": 104,
        "11361": 124,
        "11362": 154,
        "11363": 150,
        "11364": 93,
        "11365": 138,
        "11366": 231,
        "11367": 49,
        "11368": 170,
        "11369": 4,
        "11370": 122,
        "11371": 57,
        "11372": 48,
        "11373": 236,
        "11374": 17,
        "11375": 195,
        "11376": 16,
        "11377": 51,
        "11378": 129,
        "11379": 237,
        "11380": 140,
        "11381": 172,
        "11382": 245,
        "11383": 58,
        "11384": 99,
        "11385": 82,
        "11386": 222,
        "11387": 214,
        "11388": 165,
        "11389": 248,
        "11390": 64,
        "11391": 97,
        "11392": 16,
        "11393": 1,
        "11394": 224,
        "11395": 67,
        "11396": 100,
        "11397": 105,
        "11398": 98,
        "11399": 179,
        "11400": 114,
        "11401": 231,
        "11402": 22,
        "11403": 225,
        "11404": 5,
        "11405": 50,
        "11406": 107,
        "11407": 254,
        "11408": 41,
        "11409": 99,
        "11410": 190,
        "11411": 129,
        "11412": 70,
        "11413": 107,
        "11414": 214,
        "11415": 235,
        "11416": 90,
        "11417": 29,
        "11418": 22,
        "11419": 134,
        "11420": 205,
        "11421": 13,
        "11422": 249,
        "11423": 68,
        "11424": 140,
        "11425": 31,
        "11426": 92,
        "11427": 33,
        "11428": 48,
        "11429": 151,
        "11430": 177,
        "11431": 90,
        "11432": 171,
        "11433": 95,
        "11434": 0,
        "11435": 248,
        "11436": 106,
        "11437": 67,
        "11438": 39,
        "11439": 77,
        "11440": 95,
        "11441": 194,
        "11442": 140,
        "11443": 228,
        "11444": 73,
        "11445": 45,
        "11446": 73,
        "11447": 118,
        "11448": 177,
        "11449": 213,
        "11450": 57,
        "11451": 58,
        "11452": 82,
        "11453": 15,
        "11454": 124,
        "11455": 120,
        "11456": 238,
        "11457": 195,
        "11458": 65,
        "11459": 95,
        "11460": 181,
        "11461": 28,
        "11462": 20,
        "11463": 84,
        "11464": 155,
        "11465": 98,
        "11466": 254,
        "11467": 158,
        "11468": 88,
        "11469": 67,
        "11470": 150,
        "11471": 123,
        "11472": 116,
        "11473": 25,
        "11474": 147,
        "11475": 2,
        "11476": 226,
        "11477": 96,
        "11478": 124,
        "11479": 250,
        "11480": 99,
        "11481": 105,
        "11482": 160,
        "11483": 174,
        "11484": 7,
        "11485": 34,
        "11486": 237,
        "11487": 111,
        "11488": 78,
        "11489": 250,
        "11490": 30,
        "11491": 142,
        "11492": 85,
        "11493": 127,
        "11494": 199,
        "11495": 111,
        "11496": 155,
        "11497": 235,
        "11498": 123,
        "11499": 224,
        "11500": 232,
        "11501": 185,
        "11502": 131,
        "11503": 93,
        "11504": 151,
        "11505": 191,
        "11506": 22,
        "11507": 168,
        "11508": 228,
        "11509": 171,
        "11510": 94,
        "11511": 95,
        "11512": 112,
        "11513": 101,
        "11514": 27,
        "11515": 59,
        "11516": 117,
        "11517": 248,
        "11518": 3,
        "11519": 34,
        "11520": 125,
        "11521": 12,
        "11522": 40,
        "11523": 247,
        "11524": 148,
        "11525": 185,
        "11526": 249,
        "11527": 57,
        "11528": 49,
        "11529": 26,
        "11530": 2,
        "11531": 121,
        "11532": 174,
        "11533": 7,
        "11534": 145,
        "11535": 189,
        "11536": 71,
        "11537": 110,
        "11538": 7,
        "11539": 1,
        "11540": 196,
        "11541": 194,
        "11542": 207,
        "11543": 110,
        "11544": 132,
        "11545": 148,
        "11546": 58,
        "11547": 159,
        "11548": 208,
        "11549": 105,
        "11550": 132,
        "11551": 199,
        "11552": 208,
        "11553": 180,
        "11554": 79,
        "11555": 207,
        "11556": 179,
        "11557": 165,
        "11558": 40,
        "11559": 149,
        "11560": 225,
        "11561": 247,
        "11562": 234,
        "11563": 227,
        "11564": 65,
        "11565": 203,
        "11566": 86,
        "11567": 198,
        "11568": 94,
        "11569": 37,
        "11570": 243,
        "11571": 5,
        "11572": 117,
        "11573": 186,
        "11574": 80,
        "11575": 35,
        "11576": 145,
        "11577": 163,
        "11578": 49,
        "11579": 199,
        "11580": 84,
        "11581": 128,
        "11582": 142,
        "11583": 169,
        "11584": 107,
        "11585": 10,
        "11586": 208,
        "11587": 179,
        "11588": 75,
        "11589": 4,
        "11590": 64,
        "11591": 67,
        "11592": 178,
        "11593": 21,
        "11594": 32,
        "11595": 119,
        "11596": 223,
        "11597": 216,
        "11598": 18,
        "11599": 55,
        "11600": 165,
        "11601": 255,
        "11602": 52,
        "11603": 176,
        "11604": 156,
        "11605": 166,
        "11606": 100,
        "11607": 88,
        "11608": 162,
        "11609": 31,
        "11610": 244,
        "11611": 84,
        "11612": 28,
        "11613": 140,
        "11614": 117,
        "11615": 138,
        "11616": 18,
        "11617": 59,
        "11618": 232,
        "11619": 148,
        "11620": 82,
        "11621": 15,
        "11622": 80,
        "11623": 139,
        "11624": 202,
        "11625": 248,
        "11626": 177,
        "11627": 13,
        "11628": 209,
        "11629": 38,
        "11630": 2,
        "11631": 183,
        "11632": 93,
        "11633": 131,
        "11634": 58,
        "11635": 128,
        "11636": 140,
        "11637": 167,
        "11638": 75,
        "11639": 29,
        "11640": 147,
        "11641": 222,
        "11642": 163,
        "11643": 151,
        "11644": 214,
        "11645": 148,
        "11646": 232,
        "11647": 251,
        "11648": 3,
        "11649": 247,
        "11650": 171,
        "11651": 217,
        "11652": 49,
        "11653": 172,
        "11654": 48,
        "11655": 167,
        "11656": 241,
        "11657": 74,
        "11658": 135,
        "11659": 0,
        "11660": 28,
        "11661": 37,
        "11662": 130,
        "11663": 65,
        "11664": 134,
        "11665": 82,
        "11666": 58,
        "11667": 161,
        "11668": 231,
        "11669": 233,
        "11670": 218,
        "11671": 205,
        "11672": 130,
        "11673": 65,
        "11674": 76,
        "11675": 23,
        "11676": 130,
        "11677": 24,
        "11678": 138,
        "11679": 73,
        "11680": 139,
        "11681": 8,
        "11682": 141,
        "11683": 80,
        "11684": 83,
        "11685": 191,
        "11686": 100,
        "11687": 17,
        "11688": 215,
        "11689": 54,
        "11690": 25,
        "11691": 17,
        "11692": 82,
        "11693": 49,
        "11694": 175,
        "11695": 196,
        "11696": 113,
        "11697": 83,
        "11698": 197,
        "11699": 49,
        "11700": 100,
        "11701": 230,
        "11702": 117,
        "11703": 13,
        "11704": 26,
        "11705": 176,
        "11706": 80,
        "11707": 138,
        "11708": 142,
        "11709": 41,
        "11710": 10,
        "11711": 135,
        "11712": 110,
        "11713": 213,
        "11714": 145,
        "11715": 139,
        "11716": 107,
        "11717": 118,
        "11718": 213,
        "11719": 155,
        "11720": 53,
        "11721": 209,
        "11722": 118,
        "11723": 173,
        "11724": 71,
        "11725": 151,
        "11726": 59,
        "11727": 59,
        "11728": 195,
        "11729": 75,
        "11730": 236,
        "11731": 66,
        "11732": 219,
        "11733": 236,
        "11734": 240,
        "11735": 60,
        "11736": 37,
        "11737": 203,
        "11738": 75,
        "11739": 237,
        "11740": 249,
        "11741": 71,
        "11742": 124,
        "11743": 193,
        "11744": 115,
        "11745": 61,
        "11746": 132,
        "11747": 14,
        "11748": 240,
        "11749": 244,
        "11750": 48,
        "11751": 6,
        "11752": 134,
        "11753": 133,
        "11754": 68,
        "11755": 124,
        "11756": 117,
        "11757": 109,
        "11758": 176,
        "11759": 130,
        "11760": 89,
        "11761": 229,
        "11762": 200,
        "11763": 170,
        "11764": 188,
        "11765": 76,
        "11766": 43,
        "11767": 102,
        "11768": 161,
        "11769": 195,
        "11770": 63,
        "11771": 216,
        "11772": 6,
        "11773": 220,
        "11774": 154,
        "11775": 228,
        "11776": 222,
        "11777": 102,
        "11778": 119,
        "11779": 156,
        "11780": 13,
        "11781": 35,
        "11782": 158,
        "11783": 162,
        "11784": 60,
        "11785": 36,
        "11786": 217,
        "11787": 167,
        "11788": 52,
        "11789": 119,
        "11790": 213,
        "11791": 132,
        "11792": 130,
        "11793": 123,
        "11794": 15,
        "11795": 161,
        "11796": 160,
        "11797": 136,
        "11798": 48,
        "11799": 70,
        "11800": 227,
        "11801": 140,
        "11802": 223,
        "11803": 152,
        "11804": 83,
        "11805": 82,
        "11806": 25,
        "11807": 237,
        "11808": 97,
        "11809": 8,
        "11810": 116,
        "11811": 129,
        "11812": 24,
        "11813": 45,
        "11814": 66,
        "11815": 104,
        "11816": 16,
        "11817": 118,
        "11818": 50,
        "11819": 52,
        "11820": 42,
        "11821": 189,
        "11822": 79,
        "11823": 14,
        "11824": 165,
        "11825": 128,
        "11826": 231,
        "11827": 17,
        "11828": 53,
        "11829": 162,
        "11830": 57,
        "11831": 156,
        "11832": 48,
        "11833": 2,
        "11834": 51,
        "11835": 29,
        "11836": 210,
        "11837": 171,
        "11838": 31,
        "11839": 78,
        "11840": 82,
        "11841": 46,
        "11842": 17,
        "11843": 199,
        "11844": 32,
        "11845": 242,
        "11846": 90,
        "11847": 203,
        "11848": 36,
        "11849": 230,
        "11850": 63,
        "11851": 88,
        "11852": 125,
        "11853": 180,
        "11854": 149,
        "11855": 12,
        "11856": 219,
        "11857": 144,
        "11858": 242,
        "11859": 199,
        "11860": 73,
        "11861": 181,
        "11862": 175,
        "11863": 174,
        "11864": 58,
        "11865": 132,
        "11866": 137,
        "11867": 231,
        "11868": 135,
        "11869": 111,
        "11870": 193,
        "11871": 20,
        "11872": 225,
        "11873": 239,
        "11874": 30,
        "11875": 30,
        "11876": 229,
        "11877": 106,
        "11878": 7,
        "11879": 108,
        "11880": 139,
        "11881": 96,
        "11882": 83,
        "11883": 143,
        "11884": 99,
        "11885": 13,
        "11886": 175,
        "11887": 175,
        "11888": 187,
        "11889": 162,
        "11890": 39,
        "11891": 222,
        "11892": 229,
        "11893": 253,
        "11894": 214,
        "11895": 77,
        "11896": 163,
        "11897": 69,
        "11898": 79,
        "11899": 19,
        "11900": 240,
        "11901": 41,
        "11902": 62,
        "11903": 136,
        "11904": 4,
        "11905": 249,
        "11906": 114,
        "11907": 13,
        "11908": 163,
        "11909": 172,
        "11910": 191,
        "11911": 0,
        "11912": 82,
        "11913": 82,
        "11914": 194,
        "11915": 61,
        "11916": 215,
        "11917": 105,
        "11918": 9,
        "11919": 93,
        "11920": 71,
        "11921": 125,
        "11922": 187,
        "11923": 149,
        "11924": 226,
        "11925": 70,
        "11926": 39,
        "11927": 137,
        "11928": 175,
        "11929": 1,
        "11930": 218,
        "11931": 12,
        "11932": 72,
        "11933": 215,
        "11934": 207,
        "11935": 225,
        "11936": 126,
        "11937": 124,
        "11938": 152,
        "11939": 202,
        "11940": 22,
        "11941": 52,
        "11942": 158,
        "11943": 40,
        "11944": 173,
        "11945": 155,
        "11946": 66,
        "11947": 235,
        "11948": 232,
        "11949": 125,
        "11950": 127,
        "11951": 71,
        "11952": 198,
        "11953": 88,
        "11954": 5,
        "11955": 50,
        "11956": 200,
        "11957": 212,
        "11958": 178,
        "11959": 184,
        "11960": 173,
        "11961": 3,
        "11962": 25,
        "11963": 66,
        "11964": 107,
        "11965": 91,
        "11966": 220,
        "11967": 241,
        "11968": 120,
        "11969": 188,
        "11970": 80,
        "11971": 27,
        "11972": 192,
        "11973": 21,
        "11974": 123,
        "11975": 183,
        "11976": 50,
        "11977": 8,
        "11978": 174,
        "11979": 181,
        "11980": 83,
        "11981": 161,
        "11982": 129,
        "11983": 185,
        "11984": 123,
        "11985": 149,
        "11986": 238,
        "11987": 128,
        "11988": 218,
        "11989": 213,
        "11990": 32,
        "11991": 232,
        "11992": 187,
        "11993": 195,
        "11994": 217,
        "11995": 83,
        "11996": 217,
        "11997": 110,
        "11998": 236,
        "11999": 25,
        "12000": 134,
        "12001": 249,
        "12002": 154,
        "12003": 194,
        "12004": 52,
        "12005": 41,
        "12006": 224,
        "12007": 180,
        "12008": 43,
        "12009": 129,
        "12010": 191,
        "12011": 242,
        "12012": 23,
        "12013": 121,
        "12014": 27,
        "12015": 66,
        "12016": 210,
        "12017": 214,
        "12018": 81,
        "12019": 244,
        "12020": 164,
        "12021": 28,
        "12022": 178,
        "12023": 55,
        "12024": 247,
        "12025": 81,
        "12026": 34,
        "12027": 246,
        "12028": 33,
        "12029": 62,
        "12030": 247,
        "12031": 146,
        "12032": 177,
        "12033": 4,
        "12034": 91,
        "12035": 20,
        "12036": 91,
        "12037": 172,
        "12038": 35,
        "12039": 111,
        "12040": 194,
        "12041": 188,
        "12042": 139,
        "12043": 245,
        "12044": 97,
        "12045": 45,
        "12046": 161,
        "12047": 77,
        "12048": 198,
        "12049": 151,
        "12050": 103,
        "12051": 60,
        "12052": 109,
        "12053": 122,
        "12054": 187,
        "12055": 51,
        "12056": 46,
        "12057": 4,
        "12058": 66,
        "12059": 57,
        "12060": 75,
        "12061": 108,
        "12062": 197,
        "12063": 93,
        "12064": 70,
        "12065": 92,
        "12066": 211,
        "12067": 227,
        "12068": 81,
        "12069": 31,
        "12070": 236,
        "12071": 2,
        "12072": 175,
        "12073": 181,
        "12074": 228,
        "12075": 171,
        "12076": 173,
        "12077": 152,
        "12078": 88,
        "12079": 82,
        "12080": 242,
        "12081": 251,
        "12082": 27,
        "12083": 110,
        "12084": 254,
        "12085": 70,
        "12086": 81,
        "12087": 55,
        "12088": 109,
        "12089": 25,
        "12090": 59,
        "12091": 177,
        "12092": 18,
        "12093": 39,
        "12094": 28,
        "12095": 172,
        "12096": 197,
        "12097": 135,
        "12098": 59,
        "12099": 60,
        "12100": 86,
        "12101": 109,
        "12102": 126,
        "12103": 232,
        "12104": 26,
        "12105": 12,
        "12106": 146,
        "12107": 40,
        "12108": 137,
        "12109": 80,
        "12110": 203,
        "12111": 92,
        "12112": 91,
        "12113": 246,
        "12114": 175,
        "12115": 54,
        "12116": 207,
        "12117": 75,
        "12118": 201,
        "12119": 21,
        "12120": 204,
        "12121": 154,
        "12122": 25,
        "12123": 143,
        "12124": 230,
        "12125": 33,
        "12126": 110,
        "12127": 128,
        "12128": 15,
        "12129": 113,
        "12130": 228,
        "12131": 220,
        "12132": 113,
        "12133": 56,
        "12134": 50,
        "12135": 216,
        "12136": 116,
        "12137": 228,
        "12138": 90,
        "12139": 45,
        "12140": 92,
        "12141": 43,
        "12142": 153,
        "12143": 75,
        "12144": 222,
        "12145": 108,
        "12146": 61,
        "12147": 122,
        "12148": 15,
        "12149": 19,
        "12150": 77,
        "12151": 151,
        "12152": 106,
        "12153": 230,
        "12154": 48,
        "12155": 107,
        "12156": 0,
        "12157": 53,
        "12158": 139,
        "12159": 65,
        "12160": 122,
        "12161": 5,
        "12162": 212,
        "12163": 8,
        "12164": 217,
        "12165": 125,
        "12166": 202,
        "12167": 180,
        "12168": 231,
        "12169": 91,
        "12170": 159,
        "12171": 187,
        "12172": 39,
        "12173": 3,
        "12174": 114,
        "12175": 42,
        "12176": 112,
        "12177": 158,
        "12178": 110,
        "12179": 37,
        "12180": 152,
        "12181": 210,
        "12182": 54,
        "12183": 189,
        "12184": 207,
        "12185": 125,
        "12186": 7,
        "12187": 164,
        "12188": 252,
        "12189": 19,
        "12190": 217,
        "12191": 61,
        "12192": 119,
        "12193": 82,
        "12194": 152,
        "12195": 72,
        "12196": 159,
        "12197": 8,
        "12198": 4,
        "12199": 3,
        "12200": 175,
        "12201": 157,
        "12202": 51,
        "12203": 114,
        "12204": 195,
        "12205": 194,
        "12206": 147,
        "12207": 130,
        "12208": 130,
        "12209": 94,
        "12210": 104,
        "12211": 108,
        "12212": 105,
        "12213": 215,
        "12214": 180,
        "12215": 157,
        "12216": 179,
        "12217": 210,
        "12218": 242,
        "12219": 121,
        "12220": 144,
        "12221": 63,
        "12222": 154,
        "12223": 116,
        "12224": 236,
        "12225": 37,
        "12226": 152,
        "12227": 27,
        "12228": 208,
        "12229": 202,
        "12230": 236,
        "12231": 223,
        "12232": 166,
        "12233": 232,
        "12234": 27,
        "12235": 207,
        "12236": 149,
        "12237": 252,
        "12238": 162,
        "12239": 22,
        "12240": 155,
        "12241": 168,
        "12242": 1,
        "12243": 166,
        "12244": 205,
        "12245": 236,
        "12246": 241,
        "12247": 3,
        "12248": 212,
        "12249": 89,
        "12250": 177,
        "12251": 192,
        "12252": 82,
        "12253": 206,
        "12254": 117,
        "12255": 240,
        "12256": 155,
        "12257": 239,
        "12258": 80,
        "12259": 35,
        "12260": 118,
        "12261": 68,
        "12262": 34,
        "12263": 29,
        "12264": 244,
        "12265": 43,
        "12266": 17,
        "12267": 215,
        "12268": 208,
        "12269": 104,
        "12270": 35,
        "12271": 247,
        "12272": 160,
        "12273": 86,
        "12274": 109,
        "12275": 144,
        "12276": 140,
        "12277": 250,
        "12278": 33,
        "12279": 108,
        "12280": 98,
        "12281": 146,
        "12282": 129,
        "12283": 20,
        "12284": 38,
        "12285": 153,
        "12286": 177,
        "12287": 196,
        "12288": 84,
        "12289": 112,
        "12290": 254,
        "12291": 181,
        "12292": 44,
        "12293": 167,
        "12294": 141,
        "12295": 56,
        "12296": 95,
        "12297": 24,
        "12298": 203,
        "12299": 113,
        "12300": 207,
        "12301": 216,
        "12302": 55,
        "12303": 10,
        "12304": 43,
        "12305": 168,
        "12306": 192,
        "12307": 49,
        "12308": 94,
        "12309": 12,
        "12310": 62,
        "12311": 26,
        "12312": 151,
        "12313": 125,
        "12314": 66,
        "12315": 218,
        "12316": 229,
        "12317": 134,
        "12318": 19,
        "12319": 31,
        "12320": 71,
        "12321": 224,
        "12322": 174,
        "12323": 14,
        "12324": 204,
        "12325": 229,
        "12326": 53,
        "12327": 102,
        "12328": 201,
        "12329": 32,
        "12330": 168,
        "12331": 173,
        "12332": 158,
        "12333": 232,
        "12334": 81,
        "12335": 180,
        "12336": 3,
        "12337": 134,
        "12338": 102,
        "12339": 172,
        "12340": 201,
        "12341": 203,
        "12342": 8,
        "12343": 131,
        "12344": 72,
        "12345": 183,
        "12346": 186,
        "12347": 89,
        "12348": 189,
        "12349": 185,
        "12350": 143,
        "12351": 216,
        "12352": 176,
        "12353": 102,
        "12354": 75,
        "12355": 30,
        "12356": 156,
        "12357": 118,
        "12358": 199,
        "12359": 184,
        "12360": 123,
        "12361": 7,
        "12362": 52,
        "12363": 180,
        "12364": 167,
        "12365": 170,
        "12366": 89,
        "12367": 114,
        "12368": 180,
        "12369": 112,
        "12370": 148,
        "12371": 3,
        "12372": 219,
        "12373": 135,
        "12374": 155,
        "12375": 135,
        "12376": 227,
        "12377": 86,
        "12378": 244,
        "12379": 243,
        "12380": 193,
        "12381": 43,
        "12382": 63,
        "12383": 247,
        "12384": 216,
        "12385": 231,
        "12386": 13,
        "12387": 173,
        "12388": 182,
        "12389": 80,
        "12390": 250,
        "12391": 116,
        "12392": 104,
        "12393": 248,
        "12394": 160,
        "12395": 119,
        "12396": 222,
        "12397": 55,
        "12398": 43,
        "12399": 32,
        "12400": 141,
        "12401": 49,
        "12402": 108,
        "12403": 161,
        "12404": 43,
        "12405": 123,
        "12406": 201,
        "12407": 136,
        "12408": 197,
        "12409": 190,
        "12410": 212,
        "12411": 30,
        "12412": 183,
        "12413": 183,
        "12414": 188,
        "12415": 166,
        "12416": 136,
        "12417": 139,
        "12418": 116,
        "12419": 105,
        "12420": 85,
        "12421": 61,
        "12422": 93,
        "12423": 68,
        "12424": 124,
        "12425": 243,
        "12426": 196,
        "12427": 19,
        "12428": 249,
        "12429": 30,
        "12430": 63,
        "12431": 166,
        "12432": 112,
        "12433": 57,
        "12434": 198,
        "12435": 184,
        "12436": 252,
        "12437": 159,
        "12438": 113,
        "12439": 178,
        "12440": 228,
        "12441": 55,
        "12442": 23,
        "12443": 215,
        "12444": 39,
        "12445": 73,
        "12446": 120,
        "12447": 224,
        "12448": 238,
        "12449": 146,
        "12450": 136,
        "12451": 219,
        "12452": 200,
        "12453": 11,
        "12454": 76,
        "12455": 85,
        "12456": 211,
        "12457": 86,
        "12458": 63,
        "12459": 138,
        "12460": 4,
        "12461": 60,
        "12462": 151,
        "12463": 137,
        "12464": 111,
        "12465": 186,
        "12466": 64,
        "12467": 65,
        "12468": 22,
        "12469": 209,
        "12470": 114,
        "12471": 170,
        "12472": 39,
        "12473": 88,
        "12474": 1,
        "12475": 214,
        "12476": 12,
        "12477": 255,
        "12478": 159,
        "12479": 58,
        "12480": 121,
        "12481": 158,
        "12482": 98,
        "12483": 202,
        "12484": 173,
        "12485": 9,
        "12486": 168,
        "12487": 170,
        "12488": 148,
        "12489": 34,
        "12490": 91,
        "12491": 210,
        "12492": 159,
        "12493": 140,
        "12494": 69,
        "12495": 190,
        "12496": 116,
        "12497": 91,
        "12498": 87,
        "12499": 238,
        "12500": 183,
        "12501": 147,
        "12502": 174,
        "12503": 121,
        "12504": 73,
        "12505": 144,
        "12506": 130,
        "12507": 175,
        "12508": 110,
        "12509": 17,
        "12510": 227,
        "12511": 93,
        "12512": 78,
        "12513": 187,
        "12514": 120,
        "12515": 210,
        "12516": 114,
        "12517": 120,
        "12518": 197,
        "12519": 152,
        "12520": 94,
        "12521": 232,
        "12522": 212,
        "12523": 82,
        "12524": 20,
        "12525": 239,
        "12526": 121,
        "12527": 220,
        "12528": 239,
        "12529": 242,
        "12530": 178,
        "12531": 56,
        "12532": 174,
        "12533": 29,
        "12534": 201,
        "12535": 86,
        "12536": 167,
        "12537": 14,
        "12538": 32,
        "12539": 31,
        "12540": 32,
        "12541": 108,
        "12542": 84,
        "12543": 46,
        "12544": 116,
        "12545": 231,
        "12546": 153,
        "12547": 97,
        "12548": 11,
        "12549": 146,
        "12550": 6,
        "12551": 42,
        "12552": 113,
        "12553": 88,
        "12554": 243,
        "12555": 161,
        "12556": 239,
        "12557": 58,
        "12558": 115,
        "12559": 9,
        "12560": 49,
        "12561": 108,
        "12562": 95,
        "12563": 242,
        "12564": 209,
        "12565": 39,
        "12566": 39,
        "12567": 252,
        "12568": 204,
        "12569": 107,
        "12570": 51,
        "12571": 107,
        "12572": 152,
        "12573": 63,
        "12574": 111,
        "12575": 41,
        "12576": 90,
        "12577": 96,
        "12578": 217,
        "12579": 149,
        "12580": 102,
        "12581": 78,
        "12582": 178,
        "12583": 9,
        "12584": 243,
        "12585": 202,
        "12586": 190,
        "12587": 57,
        "12588": 198,
        "12589": 100,
        "12590": 124,
        "12591": 151,
        "12592": 133,
        "12593": 132,
        "12594": 25,
        "12595": 36,
        "12596": 79,
        "12597": 64,
        "12598": 150,
        "12599": 185,
        "12600": 170,
        "12601": 215,
        "12602": 165,
        "12603": 110,
        "12604": 95,
        "12605": 168,
        "12606": 134,
        "12607": 72,
        "12608": 148,
        "12609": 15,
        "12610": 172,
        "12611": 21,
        "12612": 209,
        "12613": 42,
        "12614": 70,
        "12615": 132,
        "12616": 41,
        "12617": 184,
        "12618": 245,
        "12619": 204,
        "12620": 210,
        "12621": 174,
        "12622": 136,
        "12623": 238,
        "12624": 58,
        "12625": 56,
        "12626": 159,
        "12627": 221,
        "12628": 209,
        "12629": 185,
        "12630": 107,
        "12631": 143,
        "12632": 232,
        "12633": 122,
        "12634": 45,
        "12635": 210,
        "12636": 163,
        "12637": 222,
        "12638": 69,
        "12639": 60,
        "12640": 167,
        "12641": 250,
        "12642": 232,
        "12643": 124,
        "12644": 235,
        "12645": 58,
        "12646": 24,
        "12647": 152,
        "12648": 101,
        "12649": 236,
        "12650": 168,
        "12651": 112,
        "12652": 238,
        "12653": 201,
        "12654": 213,
        "12655": 216,
        "12656": 90,
        "12657": 22,
        "12658": 239,
        "12659": 174,
        "12660": 100,
        "12661": 195,
        "12662": 122,
        "12663": 170,
        "12664": 22,
        "12665": 105,
        "12666": 216,
        "12667": 245,
        "12668": 118,
        "12669": 233,
        "12670": 238,
        "12671": 54,
        "12672": 100,
        "12673": 152,
        "12674": 235,
        "12675": 7,
        "12676": 99,
        "12677": 81,
        "12678": 95,
        "12679": 201,
        "12680": 79,
        "12681": 208,
        "12682": 173,
        "12683": 220,
        "12684": 226,
        "12685": 118,
        "12686": 104,
        "12687": 141,
        "12688": 54,
        "12689": 54,
        "12690": 66,
        "12691": 173,
        "12692": 134,
        "12693": 51,
        "12694": 127,
        "12695": 95,
        "12696": 94,
        "12697": 196,
        "12698": 1,
        "12699": 137,
        "12700": 191,
        "12701": 234,
        "12702": 146,
        "12703": 187,
        "12704": 240,
        "12705": 15,
        "12706": 178,
        "12707": 215,
        "12708": 231,
        "12709": 55,
        "12710": 131,
        "12711": 202,
        "12712": 90,
        "12713": 181,
        "12714": 98,
        "12715": 152,
        "12716": 34,
        "12717": 90,
        "12718": 13,
        "12719": 94,
        "12720": 12,
        "12721": 53,
        "12722": 17,
        "12723": 43,
        "12724": 67,
        "12725": 154,
        "12726": 96,
        "12727": 134,
        "12728": 101,
        "12729": 69,
        "12730": 10,
        "12731": 202,
        "12732": 242,
        "12733": 250,
        "12734": 121,
        "12735": 7,
        "12736": 91,
        "12737": 28,
        "12738": 183,
        "12739": 158,
        "12740": 193,
        "12741": 219,
        "12742": 183,
        "12743": 185,
        "12744": 100,
        "12745": 69,
        "12746": 31,
        "12747": 209,
        "12748": 50,
        "12749": 218,
        "12750": 122,
        "12751": 125,
        "12752": 49,
        "12753": 141,
        "12754": 217,
        "12755": 169,
        "12756": 133,
        "12757": 134,
        "12758": 71,
        "12759": 129,
        "12760": 77,
        "12761": 221,
        "12762": 123,
        "12763": 90,
        "12764": 140,
        "12765": 202,
        "12766": 245,
        "12767": 222,
        "12768": 159,
        "12769": 195,
        "12770": 39,
        "12771": 205,
        "12772": 94,
        "12773": 251,
        "12774": 120,
        "12775": 133,
        "12776": 24,
        "12777": 222,
        "12778": 104,
        "12779": 146,
        "12780": 197,
        "12781": 91,
        "12782": 150,
        "12783": 131,
        "12784": 46,
        "12785": 197,
        "12786": 208,
        "12787": 144,
        "12788": 133,
        "12789": 192,
        "12790": 102,
        "12791": 180,
        "12792": 110,
        "12793": 150,
        "12794": 85,
        "12795": 226,
        "12796": 200,
        "12797": 48,
        "12798": 235,
        "12799": 151,
        "12800": 161,
        "12801": 115,
        "12802": 214,
        "12803": 21,
        "12804": 7,
        "12805": 34,
        "12806": 214,
        "12807": 126,
        "12808": 113,
        "12809": 95,
        "12810": 25,
        "12811": 145,
        "12812": 185,
        "12813": 84,
        "12814": 132,
        "12815": 50,
        "12816": 32,
        "12817": 129,
        "12818": 200,
        "12819": 64,
        "12820": 45,
        "12821": 152,
        "12822": 190,
        "12823": 81,
        "12824": 228,
        "12825": 174,
        "12826": 157,
        "12827": 251,
        "12828": 161,
        "12829": 138,
        "12830": 248,
        "12831": 166,
        "12832": 9,
        "12833": 109,
        "12834": 176,
        "12835": 242,
        "12836": 179,
        "12837": 130,
        "12838": 30,
        "12839": 106,
        "12840": 108,
        "12841": 31,
        "12842": 141,
        "12843": 233,
        "12844": 103,
        "12845": 179,
        "12846": 3,
        "12847": 106,
        "12848": 18,
        "12849": 35,
        "12850": 169,
        "12851": 177,
        "12852": 167,
        "12853": 131,
        "12854": 112,
        "12855": 174,
        "12856": 156,
        "12857": 135,
        "12858": 131,
        "12859": 201,
        "12860": 99,
        "12861": 175,
        "12862": 170,
        "12863": 213,
        "12864": 126,
        "12865": 162,
        "12866": 196,
        "12867": 82,
        "12868": 91,
        "12869": 153,
        "12870": 136,
        "12871": 187,
        "12872": 80,
        "12873": 223,
        "12874": 21,
        "12875": 173,
        "12876": 96,
        "12877": 10,
        "12878": 117,
        "12879": 43,
        "12880": 132,
        "12881": 75,
        "12882": 136,
        "12883": 12,
        "12884": 80,
        "12885": 116,
        "12886": 60,
        "12887": 135,
        "12888": 188,
        "12889": 54,
        "12890": 89,
        "12891": 228,
        "12892": 229,
        "12893": 31,
        "12894": 128,
        "12895": 226,
        "12896": 9,
        "12897": 168,
        "12898": 13,
        "12899": 207,
        "12900": 118,
        "12901": 69,
        "12902": 57,
        "12903": 195,
        "12904": 74,
        "12905": 56,
        "12906": 48,
        "12907": 164,
        "12908": 51,
        "12909": 45,
        "12910": 138,
        "12911": 86,
        "12912": 113,
        "12913": 200,
        "12914": 106,
        "12915": 229,
        "12916": 240,
        "12917": 212,
        "12918": 154,
        "12919": 126,
        "12920": 250,
        "12921": 161,
        "12922": 72,
        "12923": 28,
        "12924": 148,
        "12925": 55,
        "12926": 246,
        "12927": 114,
        "12928": 118,
        "12929": 17,
        "12930": 236,
        "12931": 163,
        "12932": 88,
        "12933": 187,
        "12934": 204,
        "12935": 213,
        "12936": 135,
        "12937": 54,
        "12938": 24,
        "12939": 175,
        "12940": 85,
        "12941": 213,
        "12942": 115,
        "12943": 20,
        "12944": 246,
        "12945": 247,
        "12946": 216,
        "12947": 238,
        "12948": 246,
        "12949": 99,
        "12950": 174,
        "12951": 75,
        "12952": 88,
        "12953": 76,
        "12954": 55,
        "12955": 120,
        "12956": 7,
        "12957": 99,
        "12958": 21,
        "12959": 38,
        "12960": 89,
        "12961": 238,
        "12962": 162,
        "12963": 28,
        "12964": 182,
        "12965": 92,
        "12966": 119,
        "12967": 129,
        "12968": 226,
        "12969": 88,
        "12970": 28,
        "12971": 191,
        "12972": 134,
        "12973": 47,
        "12974": 103,
        "12975": 226,
        "12976": 68,
        "12977": 27,
        "12978": 38,
        "12979": 80,
        "12980": 210,
        "12981": 231,
        "12982": 234,
        "12983": 29,
        "12984": 94,
        "12985": 65,
        "12986": 98,
        "12987": 103,
        "12988": 159,
        "12989": 56,
        "12990": 123,
        "12991": 3,
        "12992": 130,
        "12993": 191,
        "12994": 97,
        "12995": 254,
        "12996": 219,
        "12997": 88,
        "12998": 249,
        "12999": 225,
        "13000": 82,
        "13001": 80,
        "13002": 157,
        "13003": 128,
        "13004": 235,
        "13005": 236,
        "13006": 81,
        "13007": 188,
        "13008": 216,
        "13009": 178,
        "13010": 8,
        "13011": 158,
        "13012": 150,
        "13013": 249,
        "13014": 106,
        "13015": 254,
        "13016": 202,
        "13017": 95,
        "13018": 209,
        "13019": 14,
        "13020": 1,
        "13021": 148,
        "13022": 84,
        "13023": 79,
        "13024": 21,
        "13025": 21,
        "13026": 137,
        "13027": 44,
        "13028": 51,
        "13029": 208,
        "13030": 240,
        "13031": 28,
        "13032": 248,
        "13033": 141,
        "13034": 183,
        "13035": 45,
        "13036": 177,
        "13037": 48,
        "13038": 114,
        "13039": 39,
        "13040": 220,
        "13041": 72,
        "13042": 125,
        "13043": 85,
        "13044": 21,
        "13045": 8,
        "13046": 163,
        "13047": 90,
        "13048": 203,
        "13049": 134,
        "13050": 51,
        "13051": 121,
        "13052": 55,
        "13053": 169,
        "13054": 145,
        "13055": 9,
        "13056": 90,
        "13057": 213,
        "13058": 178,
        "13059": 236,
        "13060": 0,
        "13061": 5,
        "13062": 30,
        "13063": 135,
        "13064": 147,
        "13065": 200,
        "13066": 180,
        "13067": 159,
        "13068": 131,
        "13069": 4,
        "13070": 216,
        "13071": 243,
        "13072": 110,
        "13073": 101,
        "13074": 184,
        "13075": 186,
        "13076": 77,
        "13077": 70,
        "13078": 217,
        "13079": 203,
        "13080": 141,
        "13081": 121,
        "13082": 140,
        "13083": 2,
        "13084": 218,
        "13085": 218,
        "13086": 124,
        "13087": 64,
        "13088": 151,
        "13089": 67,
        "13090": 121,
        "13091": 92,
        "13092": 137,
        "13093": 22,
        "13094": 130,
        "13095": 73,
        "13096": 219,
        "13097": 138,
        "13098": 0,
        "13099": 128,
        "13100": 63,
        "13101": 95,
        "13102": 18,
        "13103": 128,
        "13104": 84,
        "13105": 243,
        "13106": 108,
        "13107": 176,
        "13108": 58,
        "13109": 166,
        "13110": 167,
        "13111": 160,
        "13112": 189,
        "13113": 46,
        "13114": 44,
        "13115": 214,
        "13116": 39,
        "13117": 198,
        "13118": 175,
        "13119": 73,
        "13120": 148,
        "13121": 101,
        "13122": 132,
        "13123": 222,
        "13124": 232,
        "13125": 108,
        "13126": 33,
        "13127": 136,
        "13128": 217,
        "13129": 188,
        "13130": 149,
        "13131": 245,
        "13132": 13,
        "13133": 25,
        "13134": 250,
        "13135": 136,
        "13136": 82,
        "13137": 246,
        "13138": 145,
        "13139": 49,
        "13140": 56,
        "13141": 241,
        "13142": 21,
        "13143": 89,
        "13144": 163,
        "13145": 147,
        "13146": 231,
        "13147": 77,
        "13148": 98,
        "13149": 22,
        "13150": 156,
        "13151": 83,
        "13152": 215,
        "13153": 24,
        "13154": 50,
        "13155": 147,
        "13156": 228,
        "13157": 63,
        "13158": 14,
        "13159": 76,
        "13160": 128,
        "13161": 173,
        "13162": 78,
        "13163": 58,
        "13164": 74,
        "13165": 213,
        "13166": 170,
        "13167": 223,
        "13168": 189,
        "13169": 185,
        "13170": 8,
        "13171": 103,
        "13172": 152,
        "13173": 216,
        "13174": 19,
        "13175": 54,
        "13176": 244,
        "13177": 192,
        "13178": 44,
        "13179": 175,
        "13180": 2,
        "13181": 195,
        "13182": 200,
        "13183": 24,
        "13184": 103,
        "13185": 109,
        "13186": 10,
        "13187": 180,
        "13188": 130,
        "13189": 79,
        "13190": 131,
        "13191": 208,
        "13192": 161,
        "13193": 84,
        "13194": 154,
        "13195": 0,
        "13196": 99,
        "13197": 112,
        "13198": 253,
        "13199": 8,
        "13200": 188,
        "13201": 103,
        "13202": 144,
        "13203": 246,
        "13204": 47,
        "13205": 40,
        "13206": 151,
        "13207": 81,
        "13208": 162,
        "13209": 245,
        "13210": 253,
        "13211": 20,
        "13212": 21,
        "13213": 151,
        "13214": 242,
        "13215": 73,
        "13216": 26,
        "13217": 28,
        "13218": 33,
        "13219": 19,
        "13220": 175,
        "13221": 143,
        "13222": 240,
        "13223": 193,
        "13224": 144,
        "13225": 137,
        "13226": 230,
        "13227": 0,
        "13228": 197,
        "13229": 118,
        "13230": 250,
        "13231": 51,
        "13232": 139,
        "13233": 243,
        "13234": 85,
        "13235": 6,
        "13236": 30,
        "13237": 217,
        "13238": 12,
        "13239": 79,
        "13240": 87,
        "13241": 146,
        "13242": 84,
        "13243": 12,
        "13244": 132,
        "13245": 140,
        "13246": 24,
        "13247": 19,
        "13248": 138,
        "13249": 61,
        "13250": 7,
        "13251": 86,
        "13252": 104,
        "13253": 82,
        "13254": 157,
        "13255": 51,
        "13256": 135,
        "13257": 160,
        "13258": 94,
        "13259": 53,
        "13260": 190,
        "13261": 237,
        "13262": 37,
        "13263": 215,
        "13264": 38,
        "13265": 195,
        "13266": 221,
        "13267": 51,
        "13268": 9,
        "13269": 221,
        "13270": 188,
        "13271": 225,
        "13272": 128,
        "13273": 196,
        "13274": 234,
        "13275": 201,
        "13276": 49,
        "13277": 215,
        "13278": 98,
        "13279": 43,
        "13280": 51,
        "13281": 192,
        "13282": 122,
        "13283": 137,
        "13284": 4,
        "13285": 65,
        "13286": 2,
        "13287": 67,
        "13288": 19,
        "13289": 57,
        "13290": 217,
        "13291": 204,
        "13292": 29,
        "13293": 174,
        "13294": 103,
        "13295": 194,
        "13296": 100,
        "13297": 153,
        "13298": 119,
        "13299": 184,
        "13300": 109,
        "13301": 68,
        "13302": 56,
        "13303": 134,
        "13304": 188,
        "13305": 109,
        "13306": 43,
        "13307": 168,
        "13308": 26,
        "13309": 206,
        "13310": 189,
        "13311": 35,
        "13312": 56,
        "13313": 182,
        "13314": 217,
        "13315": 52,
        "13316": 216,
        "13317": 46,
        "13318": 205,
        "13319": 18,
        "13320": 49,
        "13321": 236,
        "13322": 38,
        "13323": 51,
        "13324": 235,
        "13325": 97,
        "13326": 145,
        "13327": 58,
        "13328": 137,
        "13329": 132,
        "13330": 139,
        "13331": 61,
        "13332": 51,
        "13333": 251,
        "13334": 15,
        "13335": 146,
        "13336": 135,
        "13337": 143,
        "13338": 186,
        "13339": 59,
        "13340": 99,
        "13341": 100,
        "13342": 30,
        "13343": 31,
        "13344": 65,
        "13345": 54,
        "13346": 117,
        "13347": 58,
        "13348": 245,
        "13349": 202,
        "13350": 56,
        "13351": 153,
        "13352": 41,
        "13353": 40,
        "13354": 209,
        "13355": 118,
        "13356": 192,
        "13357": 71,
        "13358": 85,
        "13359": 85,
        "13360": 109,
        "13361": 65,
        "13362": 216,
        "13363": 180,
        "13364": 219,
        "13365": 132,
        "13366": 37,
        "13367": 170,
        "13368": 63,
        "13369": 243,
        "13370": 27,
        "13371": 250,
        "13372": 239,
        "13373": 15,
        "13374": 194,
        "13375": 193,
        "13376": 198,
        "13377": 118,
        "13378": 152,
        "13379": 2,
        "13380": 253,
        "13381": 156,
        "13382": 11,
        "13383": 107,
        "13384": 101,
        "13385": 143,
        "13386": 66,
        "13387": 103,
        "13388": 81,
        "13389": 151,
        "13390": 42,
        "13391": 45,
        "13392": 97,
        "13393": 237,
        "13394": 79,
        "13395": 174,
        "13396": 189,
        "13397": 105,
        "13398": 186,
        "13399": 73,
        "13400": 112,
        "13401": 170,
        "13402": 14,
        "13403": 244,
        "13404": 90,
        "13405": 228,
        "13406": 230,
        "13407": 185,
        "13408": 167,
        "13409": 251,
        "13410": 43,
        "13411": 173,
        "13412": 122,
        "13413": 159,
        "13414": 50,
        "13415": 86,
        "13416": 21,
        "13417": 173,
        "13418": 243,
        "13419": 179,
        "13420": 247,
        "13421": 91,
        "13422": 161,
        "13423": 200,
        "13424": 73,
        "13425": 170,
        "13426": 164,
        "13427": 124,
        "13428": 191,
        "13429": 24,
        "13430": 61,
        "13431": 182,
        "13432": 30,
        "13433": 88,
        "13434": 174,
        "13435": 82,
        "13436": 217,
        "13437": 33,
        "13438": 148,
        "13439": 219,
        "13440": 128,
        "13441": 253,
        "13442": 234,
        "13443": 179,
        "13444": 143,
        "13445": 43,
        "13446": 103,
        "13447": 93,
        "13448": 21,
        "13449": 82,
        "13450": 193,
        "13451": 124,
        "13452": 80,
        "13453": 253,
        "13454": 254,
        "13455": 52,
        "13456": 116,
        "13457": 60,
        "13458": 209,
        "13459": 160,
        "13460": 240,
        "13461": 204,
        "13462": 109,
        "13463": 41,
        "13464": 16,
        "13465": 235,
        "13466": 87,
        "13467": 204,
        "13468": 55,
        "13469": 191,
        "13470": 157,
        "13471": 214,
        "13472": 250,
        "13473": 121,
        "13474": 56,
        "13475": 187,
        "13476": 117,
        "13477": 118,
        "13478": 11,
        "13479": 242,
        "13480": 177,
        "13481": 125,
        "13482": 80,
        "13483": 136,
        "13484": 213,
        "13485": 53,
        "13486": 211,
        "13487": 5,
        "13488": 120,
        "13489": 243,
        "13490": 35,
        "13491": 171,
        "13492": 73,
        "13493": 107,
        "13494": 205,
        "13495": 177,
        "13496": 88,
        "13497": 199,
        "13498": 236,
        "13499": 85,
        "13500": 126,
        "13501": 98,
        "13502": 107,
        "13503": 72,
        "13504": 43,
        "13505": 81,
        "13506": 6,
        "13507": 240,
        "13508": 227,
        "13509": 198,
        "13510": 106,
        "13511": 241,
        "13512": 138,
        "13513": 34,
        "13514": 195,
        "13515": 41,
        "13516": 72,
        "13517": 79,
        "13518": 112,
        "13519": 81,
        "13520": 247,
        "13521": 211,
        "13522": 114,
        "13523": 141,
        "13524": 165,
        "13525": 0,
        "13526": 133,
        "13527": 23,
        "13528": 230,
        "13529": 42,
        "13530": 153,
        "13531": 189,
        "13532": 99,
        "13533": 193,
        "13534": 103,
        "13535": 224,
        "13536": 164,
        "13537": 26,
        "13538": 101,
        "13539": 56,
        "13540": 123,
        "13541": 17,
        "13542": 249,
        "13543": 67,
        "13544": 109,
        "13545": 16,
        "13546": 214,
        "13547": 28,
        "13548": 63,
        "13549": 189,
        "13550": 138,
        "13551": 28,
        "13552": 35,
        "13553": 197,
        "13554": 198,
        "13555": 219,
        "13556": 116,
        "13557": 160,
        "13558": 35,
        "13559": 181,
        "13560": 20,
        "13561": 19,
        "13562": 201,
        "13563": 16,
        "13564": 45,
        "13565": 243,
        "13566": 38,
        "13567": 244,
        "13568": 1,
        "13569": 6,
        "13570": 139,
        "13571": 78,
        "13572": 192,
        "13573": 213,
        "13574": 104,
        "13575": 235,
        "13576": 209,
        "13577": 88,
        "13578": 15,
        "13579": 118,
        "13580": 16,
        "13581": 122,
        "13582": 248,
        "13583": 249,
        "13584": 74,
        "13585": 76,
        "13586": 20,
        "13587": 224,
        "13588": 135,
        "13589": 92,
        "13590": 144,
        "13591": 130,
        "13592": 102,
        "13593": 139,
        "13594": 234,
        "13595": 13,
        "13596": 46,
        "13597": 224,
        "13598": 106,
        "13599": 153,
        "13600": 186,
        "13601": 239,
        "13602": 167,
        "13603": 134,
        "13604": 52,
        "13605": 197,
        "13606": 101,
        "13607": 33,
        "13608": 1,
        "13609": 74,
        "13610": 33,
        "13611": 5,
        "13612": 135,
        "13613": 42,
        "13614": 60,
        "13615": 53,
        "13616": 133,
        "13617": 246,
        "13618": 223,
        "13619": 66,
        "13620": 188,
        "13621": 68,
        "13622": 202,
        "13623": 31,
        "13624": 123,
        "13625": 179,
        "13626": 135,
        "13627": 41,
        "13628": 57,
        "13629": 244,
        "13630": 39,
        "13631": 236,
        "13632": 96,
        "13633": 134,
        "13634": 141,
        "13635": 56,
        "13636": 199,
        "13637": 168,
        "13638": 54,
        "13639": 176,
        "13640": 189,
        "13641": 24,
        "13642": 15,
        "13643": 31,
        "13644": 26,
        "13645": 102,
        "13646": 206,
        "13647": 125,
        "13648": 124,
        "13649": 241,
        "13650": 221,
        "13651": 77,
        "13652": 55,
        "13653": 175,
        "13654": 92,
        "13655": 182,
        "13656": 227,
        "13657": 43,
        "13658": 168,
        "13659": 29,
        "13660": 72,
        "13661": 70,
        "13662": 56,
        "13663": 224,
        "13664": 81,
        "13665": 133,
        "13666": 78,
        "13667": 114,
        "13668": 107,
        "13669": 10,
        "13670": 176,
        "13671": 188,
        "13672": 84,
        "13673": 92,
        "13674": 86,
        "13675": 20,
        "13676": 143,
        "13677": 129,
        "13678": 154,
        "13679": 127,
        "13680": 185,
        "13681": 197,
        "13682": 188,
        "13683": 88,
        "13684": 145,
        "13685": 153,
        "13686": 46,
        "13687": 249,
        "13688": 84,
        "13689": 253,
        "13690": 107,
        "13691": 130,
        "13692": 192,
        "13693": 245,
        "13694": 52,
        "13695": 92,
        "13696": 193,
        "13697": 155,
        "13698": 102,
        "13699": 11,
        "13700": 23,
        "13701": 235,
        "13702": 173,
        "13703": 68,
        "13704": 76,
        "13705": 174,
        "13706": 132,
        "13707": 213,
        "13708": 94,
        "13709": 94,
        "13710": 145,
        "13711": 249,
        "13712": 220,
        "13713": 177,
        "13714": 82,
        "13715": 31,
        "13716": 177,
        "13717": 115,
        "13718": 176,
        "13719": 61,
        "13720": 14,
        "13721": 17,
        "13722": 98,
        "13723": 75,
        "13724": 59,
        "13725": 197,
        "13726": 224,
        "13727": 255,
        "13728": 149,
        "13729": 197,
        "13730": 52,
        "13731": 111,
        "13732": 36,
        "13733": 6,
        "13734": 170,
        "13735": 59,
        "13736": 119,
        "13737": 93,
        "13738": 242,
        "13739": 152,
        "13740": 47,
        "13741": 174,
        "13742": 114,
        "13743": 173,
        "13744": 103,
        "13745": 110,
        "13746": 195,
        "13747": 26,
        "13748": 147,
        "13749": 237,
        "13750": 210,
        "13751": 88,
        "13752": 108,
        "13753": 103,
        "13754": 10,
        "13755": 63,
        "13756": 158,
        "13757": 26,
        "13758": 97,
        "13759": 139,
        "13760": 194,
        "13761": 106,
        "13762": 133,
        "13763": 196,
        "13764": 130,
        "13765": 172,
        "13766": 138,
        "13767": 32,
        "13768": 177,
        "13769": 226,
        "13770": 195,
        "13771": 47,
        "13772": 71,
        "13773": 238,
        "13774": 6,
        "13775": 246,
        "13776": 249,
        "13777": 97,
        "13778": 120,
        "13779": 18,
        "13780": 228,
        "13781": 113,
        "13782": 57,
        "13783": 53,
        "13784": 165,
        "13785": 82,
        "13786": 121,
        "13787": 106,
        "13788": 21,
        "13789": 219,
        "13790": 6,
        "13791": 106,
        "13792": 26,
        "13793": 125,
        "13794": 240,
        "13795": 221,
        "13796": 13,
        "13797": 112,
        "13798": 220,
        "13799": 65,
        "13800": 191,
        "13801": 68,
        "13802": 206,
        "13803": 0,
        "13804": 174,
        "13805": 198,
        "13806": 40,
        "13807": 164,
        "13808": 108,
        "13809": 201,
        "13810": 72,
        "13811": 29,
        "13812": 126,
        "13813": 253,
        "13814": 145,
        "13815": 13,
        "13816": 94,
        "13817": 47,
        "13818": 216,
        "13819": 137,
        "13820": 159,
        "13821": 85,
        "13822": 192,
        "13823": 142,
        "13824": 197,
        "13825": 48,
        "13826": 67,
        "13827": 77,
        "13828": 218,
        "13829": 135,
        "13830": 33,
        "13831": 206,
        "13832": 141,
        "13833": 5,
        "13834": 165,
        "13835": 105,
        "13836": 198,
        "13837": 79,
        "13838": 41,
        "13839": 123,
        "13840": 192,
        "13841": 124,
        "13842": 24,
        "13843": 42,
        "13844": 16,
        "13845": 195,
        "13846": 134,
        "13847": 63,
        "13848": 49,
        "13849": 112,
        "13850": 206,
        "13851": 198,
        "13852": 212,
        "13853": 143,
        "13854": 67,
        "13855": 20,
        "13856": 211,
        "13857": 184,
        "13858": 240,
        "13859": 120,
        "13860": 86,
        "13861": 240,
        "13862": 145,
        "13863": 206,
        "13864": 216,
        "13865": 87,
        "13866": 92,
        "13867": 3,
        "13868": 158,
        "13869": 164,
        "13870": 51,
        "13871": 216,
        "13872": 182,
        "13873": 216,
        "13874": 182,
        "13875": 160,
        "13876": 189,
        "13877": 41,
        "13878": 253,
        "13879": 169,
        "13880": 15,
        "13881": 129,
        "13882": 179,
        "13883": 74,
        "13884": 82,
        "13885": 129,
        "13886": 90,
        "13887": 176,
        "13888": 81,
        "13889": 62,
        "13890": 147,
        "13891": 52,
        "13892": 167,
        "13893": 175,
        "13894": 113,
        "13895": 41,
        "13896": 122,
        "13897": 151,
        "13898": 40,
        "13899": 35,
        "13900": 11,
        "13901": 78,
        "13902": 7,
        "13903": 214,
        "13904": 125,
        "13905": 219,
        "13906": 107,
        "13907": 188,
        "13908": 52,
        "13909": 189,
        "13910": 54,
        "13911": 236,
        "13912": 124,
        "13913": 54,
        "13914": 8,
        "13915": 252,
        "13916": 150,
        "13917": 205,
        "13918": 89,
        "13919": 110,
        "13920": 19,
        "13921": 246,
        "13922": 185,
        "13923": 95,
        "13924": 2,
        "13925": 87,
        "13926": 98,
        "13927": 182,
        "13928": 53,
        "13929": 202,
        "13930": 79,
        "13931": 189,
        "13932": 20,
        "13933": 101,
        "13934": 101,
        "13935": 161,
        "13936": 4,
        "13937": 91,
        "13938": 193,
        "13939": 204,
        "13940": 49,
        "13941": 102,
        "13942": 50,
        "13943": 222,
        "13944": 133,
        "13945": 233,
        "13946": 189,
        "13947": 211,
        "13948": 141,
        "13949": 25,
        "13950": 190,
        "13951": 36,
        "13952": 155,
        "13953": 125,
        "13954": 73,
        "13955": 0,
        "13956": 226,
        "13957": 100,
        "13958": 54,
        "13959": 118,
        "13960": 197,
        "13961": 212,
        "13962": 168,
        "13963": 146,
        "13964": 143,
        "13965": 248,
        "13966": 171,
        "13967": 97,
        "13968": 67,
        "13969": 156,
        "13970": 137,
        "13971": 72,
        "13972": 107,
        "13973": 128,
        "13974": 172,
        "13975": 165,
        "13976": 122,
        "13977": 107,
        "13978": 126,
        "13979": 95,
        "13980": 136,
        "13981": 55,
        "13982": 232,
        "13983": 76,
        "13984": 11,
        "13985": 31,
        "13986": 226,
        "13987": 228,
        "13988": 105,
        "13989": 148,
        "13990": 206,
        "13991": 88,
        "13992": 183,
        "13993": 155,
        "13994": 198,
        "13995": 180,
        "13996": 67,
        "13997": 95,
        "13998": 143,
        "13999": 232,
        "14000": 92,
        "14001": 28,
        "14002": 245,
        "14003": 82,
        "14004": 228,
        "14005": 151,
        "14006": 59,
        "14007": 190,
        "14008": 70,
        "14009": 232,
        "14010": 245,
        "14011": 159,
        "14012": 152,
        "14013": 10,
        "14014": 94,
        "14015": 126,
        "14016": 69,
        "14017": 78,
        "14018": 144,
        "14019": 131,
        "14020": 84,
        "14021": 77,
        "14022": 242,
        "14023": 11,
        "14024": 46,
        "14025": 111,
        "14026": 154,
        "14027": 11,
        "14028": 113,
        "14029": 146,
        "14030": 9,
        "14031": 97,
        "14032": 107,
        "14033": 130,
        "14034": 167,
        "14035": 214,
        "14036": 198,
        "14037": 10,
        "14038": 100,
        "14039": 116,
        "14040": 120,
        "14041": 31,
        "14042": 8,
        "14043": 128,
        "14044": 102,
        "14045": 5,
        "14046": 50,
        "14047": 135,
        "14048": 214,
        "14049": 242,
        "14050": 184,
        "14051": 149,
        "14052": 148,
        "14053": 224,
        "14054": 96,
        "14055": 3,
        "14056": 230,
        "14057": 106,
        "14058": 176,
        "14059": 70,
        "14060": 244,
        "14061": 254,
        "14062": 229,
        "14063": 249,
        "14064": 126,
        "14065": 87,
        "14066": 106,
        "14067": 47,
        "14068": 116,
        "14069": 33,
        "14070": 187,
        "14071": 193,
        "14072": 185,
        "14073": 218,
        "14074": 139,
        "14075": 26,
        "14076": 76,
        "14077": 93,
        "14078": 154,
        "14079": 176,
        "14080": 63,
        "14081": 160,
        "14082": 76,
        "14083": 222,
        "14084": 223,
        "14085": 114,
        "14086": 38,
        "14087": 187,
        "14088": 101,
        "14089": 26,
        "14090": 144,
        "14091": 49,
        "14092": 181,
        "14093": 158,
        "14094": 173,
        "14095": 144,
        "14096": 226,
        "14097": 64,
        "14098": 87,
        "14099": 102,
        "14100": 154,
        "14101": 28,
        "14102": 195,
        "14103": 122,
        "14104": 96,
        "14105": 10,
        "14106": 31,
        "14107": 213,
        "14108": 33,
        "14109": 106,
        "14110": 241,
        "14111": 205,
        "14112": 225,
        "14113": 6,
        "14114": 195,
        "14115": 185,
        "14116": 216,
        "14117": 138,
        "14118": 98,
        "14119": 192,
        "14120": 71,
        "14121": 160,
        "14122": 237,
        "14123": 74,
        "14124": 142,
        "14125": 181,
        "14126": 181,
        "14127": 140,
        "14128": 39,
        "14129": 3,
        "14130": 60,
        "14131": 239,
        "14132": 94,
        "14133": 31,
        "14134": 144,
        "14135": 205,
        "14136": 92,
        "14137": 182,
        "14138": 150,
        "14139": 244,
        "14140": 221,
        "14141": 7,
        "14142": 173,
        "14143": 138,
        "14144": 137,
        "14145": 77,
        "14146": 237,
        "14147": 2,
        "14148": 41,
        "14149": 179,
        "14150": 229,
        "14151": 227,
        "14152": 83,
        "14153": 62,
        "14154": 129,
        "14155": 188,
        "14156": 6,
        "14157": 241,
        "14158": 83,
        "14159": 202,
        "14160": 254,
        "14161": 84,
        "14162": 135,
        "14163": 123,
        "14164": 147,
        "14165": 79,
        "14166": 57,
        "14167": 75,
        "14168": 185,
        "14169": 49,
        "14170": 34,
        "14171": 145,
        "14172": 0,
        "14173": 121,
        "14174": 148,
        "14175": 107,
        "14176": 241,
        "14177": 31,
        "14178": 148,
        "14179": 200,
        "14180": 216,
        "14181": 87,
        "14182": 45,
        "14183": 234,
        "14184": 30,
        "14185": 141,
        "14186": 46,
        "14187": 31,
        "14188": 113,
        "14189": 250,
        "14190": 111,
        "14191": 160,
        "14192": 102,
        "14193": 250,
        "14194": 118,
        "14195": 227,
        "14196": 192,
        "14197": 3,
        "14198": 23,
        "14199": 116,
        "14200": 176,
        "14201": 127,
        "14202": 183,
        "14203": 190,
        "14204": 73,
        "14205": 13,
        "14206": 19,
        "14207": 214,
        "14208": 125,
        "14209": 106,
        "14210": 226,
        "14211": 220,
        "14212": 92,
        "14213": 184,
        "14214": 129,
        "14215": 71,
        "14216": 224,
        "14217": 63,
        "14218": 242,
        "14219": 106,
        "14220": 20,
        "14221": 7,
        "14222": 205,
        "14223": 89,
        "14224": 8,
        "14225": 180,
        "14226": 125,
        "14227": 175,
        "14228": 35,
        "14229": 3,
        "14230": 119,
        "14231": 116,
        "14232": 106,
        "14233": 179,
        "14234": 116,
        "14235": 136,
        "14236": 121,
        "14237": 43,
        "14238": 199,
        "14239": 246,
        "14240": 142,
        "14241": 176,
        "14242": 145,
        "14243": 157,
        "14244": 206,
        "14245": 22,
        "14246": 154,
        "14247": 88,
        "14248": 16,
        "14249": 128,
        "14250": 70,
        "14251": 101,
        "14252": 42,
        "14253": 179,
        "14254": 247,
        "14255": 90,
        "14256": 63,
        "14257": 9,
        "14258": 124,
        "14259": 60,
        "14260": 127,
        "14261": 40,
        "14262": 68,
        "14263": 42,
        "14264": 2,
        "14265": 170,
        "14266": 134,
        "14267": 76,
        "14268": 197,
        "14269": 32,
        "14270": 110,
        "14271": 252,
        "14272": 11,
        "14273": 236,
        "14274": 32,
        "14275": 166,
        "14276": 8,
        "14277": 225,
        "14278": 239,
        "14279": 223,
        "14280": 117,
        "14281": 135,
        "14282": 207,
        "14283": 61,
        "14284": 236,
        "14285": 102,
        "14286": 243,
        "14287": 34,
        "14288": 114,
        "14289": 205,
        "14290": 153,
        "14291": 176,
        "14292": 25,
        "14293": 81,
        "14294": 253,
        "14295": 37,
        "14296": 213,
        "14297": 214,
        "14298": 209,
        "14299": 232,
        "14300": 23,
        "14301": 239,
        "14302": 234,
        "14303": 231,
        "14304": 95,
        "14305": 84,
        "14306": 181,
        "14307": 87,
        "14308": 246,
        "14309": 92,
        "14310": 255,
        "14311": 178,
        "14312": 76,
        "14313": 162,
        "14314": 14,
        "14315": 107,
        "14316": 191,
        "14317": 242,
        "14318": 74,
        "14319": 141,
        "14320": 78,
        "14321": 51,
        "14322": 227,
        "14323": 237,
        "14324": 252,
        "14325": 22,
        "14326": 108,
        "14327": 36,
        "14328": 217,
        "14329": 88,
        "14330": 58,
        "14331": 87,
        "14332": 98,
        "14333": 174,
        "14334": 127,
        "14335": 114,
        "14336": 52,
        "14337": 102,
        "14338": 2,
        "14339": 228,
        "14340": 244,
        "14341": 14,
        "14342": 82,
        "14343": 101,
        "14344": 171,
        "14345": 163,
        "14346": 78,
        "14347": 49,
        "14348": 100,
        "14349": 42,
        "14350": 162,
        "14351": 248,
        "14352": 13,
        "14353": 70,
        "14354": 0,
        "14355": 234,
        "14356": 29,
        "14357": 15,
        "14358": 134,
        "14359": 69,
        "14360": 36,
        "14361": 156,
        "14362": 150,
        "14363": 37,
        "14364": 237,
        "14365": 147,
        "14366": 149,
        "14367": 242,
        "14368": 237,
        "14369": 238,
        "14370": 107,
        "14371": 38,
        "14372": 241,
        "14373": 180,
        "14374": 223,
        "14375": 21,
        "14376": 115,
        "14377": 202,
        "14378": 245,
        "14379": 63,
        "14380": 111,
        "14381": 176,
        "14382": 126,
        "14383": 134,
        "14384": 6,
        "14385": 127,
        "14386": 227,
        "14387": 176,
        "14388": 222,
        "14389": 195,
        "14390": 45,
        "14391": 218,
        "14392": 211,
        "14393": 164,
        "14394": 184,
        "14395": 72,
        "14396": 164,
        "14397": 243,
        "14398": 195,
        "14399": 47,
        "14400": 182,
        "14401": 90,
        "14402": 50,
        "14403": 185,
        "14404": 230,
        "14405": 70,
        "14406": 22,
        "14407": 72,
        "14408": 63,
        "14409": 148,
        "14410": 193,
        "14411": 254,
        "14412": 96,
        "14413": 73,
        "14414": 42,
        "14415": 225,
        "14416": 221,
        "14417": 3,
        "14418": 167,
        "14419": 220,
        "14420": 144,
        "14421": 39,
        "14422": 1,
        "14423": 255,
        "14424": 167,
        "14425": 54,
        "14426": 149,
        "14427": 9,
        "14428": 37,
        "14429": 30,
        "14430": 167,
        "14431": 240,
        "14432": 76,
        "14433": 103,
        "14434": 63,
        "14435": 38,
        "14436": 250,
        "14437": 220,
        "14438": 138,
        "14439": 244,
        "14440": 99,
        "14441": 29,
        "14442": 39,
        "14443": 86,
        "14444": 155,
        "14445": 231,
        "14446": 251,
        "14447": 108,
        "14448": 7,
        "14449": 56,
        "14450": 144,
        "14451": 86,
        "14452": 40,
        "14453": 140,
        "14454": 11,
        "14455": 216,
        "14456": 110,
        "14457": 64,
        "14458": 230,
        "14459": 88,
        "14460": 150,
        "14461": 133,
        "14462": 83,
        "14463": 26,
        "14464": 199,
        "14465": 237,
        "14466": 237,
        "14467": 241,
        "14468": 165,
        "14469": 114,
        "14470": 201,
        "14471": 71,
        "14472": 77,
        "14473": 237,
        "14474": 44,
        "14475": 78,
        "14476": 17,
        "14477": 1,
        "14478": 236,
        "14479": 185,
        "14480": 15,
        "14481": 113,
        "14482": 204,
        "14483": 144,
        "14484": 79,
        "14485": 137,
        "14486": 184,
        "14487": 58,
        "14488": 143,
        "14489": 138,
        "14490": 7,
        "14491": 109,
        "14492": 140,
        "14493": 4,
        "14494": 33,
        "14495": 171,
        "14496": 195,
        "14497": 135,
        "14498": 35,
        "14499": 221,
        "14500": 83,
        "14501": 254,
        "14502": 3,
        "14503": 215,
        "14504": 72,
        "14505": 71,
        "14506": 232,
        "14507": 2,
        "14508": 194,
        "14509": 182,
        "14510": 140,
        "14511": 221,
        "14512": 249,
        "14513": 109,
        "14514": 108,
        "14515": 48,
        "14516": 128,
        "14517": 212,
        "14518": 16,
        "14519": 57,
        "14520": 101,
        "14521": 184,
        "14522": 167,
        "14523": 29,
        "14524": 16,
        "14525": 227,
        "14526": 106,
        "14527": 200,
        "14528": 244,
        "14529": 47,
        "14530": 218,
        "14531": 76,
        "14532": 17,
        "14533": 224,
        "14534": 124,
        "14535": 56,
        "14536": 191,
        "14537": 17,
        "14538": 199,
        "14539": 95,
        "14540": 72,
        "14541": 155,
        "14542": 241,
        "14543": 27,
        "14544": 198,
        "14545": 185,
        "14546": 115,
        "14547": 114,
        "14548": 126,
        "14549": 18,
        "14550": 27,
        "14551": 102,
        "14552": 143,
        "14553": 139,
        "14554": 141,
        "14555": 187,
        "14556": 232,
        "14557": 147,
        "14558": 229,
        "14559": 248,
        "14560": 236,
        "14561": 227,
        "14562": 147,
        "14563": 247,
        "14564": 241,
        "14565": 26,
        "14566": 55,
        "14567": 225,
        "14568": 90,
        "14569": 47,
        "14570": 230,
        "14571": 165,
        "14572": 194,
        "14573": 58,
        "14574": 172,
        "14575": 240,
        "14576": 153,
        "14577": 24,
        "14578": 82,
        "14579": 221,
        "14580": 246,
        "14581": 2,
        "14582": 136,
        "14583": 101,
        "14584": 82,
        "14585": 87,
        "14586": 207,
        "14587": 203,
        "14588": 132,
        "14589": 98,
        "14590": 52,
        "14591": 133,
        "14592": 249,
        "14593": 114,
        "14594": 49,
        "14595": 107,
        "14596": 210,
        "14597": 92,
        "14598": 51,
        "14599": 103,
        "14600": 20,
        "14601": 151,
        "14602": 128,
        "14603": 153,
        "14604": 230,
        "14605": 195,
        "14606": 5,
        "14607": 172,
        "14608": 178,
        "14609": 53,
        "14610": 204,
        "14611": 38,
        "14612": 77,
        "14613": 172,
        "14614": 126,
        "14615": 244,
        "14616": 251,
        "14617": 216,
        "14618": 96,
        "14619": 122,
        "14620": 220,
        "14621": 125,
        "14622": 26,
        "14623": 6,
        "14624": 248,
        "14625": 63,
        "14626": 8,
        "14627": 131,
        "14628": 247,
        "14629": 100,
        "14630": 14,
        "14631": 123,
        "14632": 154,
        "14633": 235,
        "14634": 180,
        "14635": 177,
        "14636": 140,
        "14637": 193,
        "14638": 1,
        "14639": 168,
        "14640": 151,
        "14641": 140,
        "14642": 5,
        "14643": 213,
        "14644": 85,
        "14645": 185,
        "14646": 69,
        "14647": 33,
        "14648": 210,
        "14649": 104,
        "14650": 206,
        "14651": 209,
        "14652": 81,
        "14653": 97,
        "14654": 33,
        "14655": 180,
        "14656": 241,
        "14657": 68,
        "14658": 76,
        "14659": 15,
        "14660": 14,
        "14661": 232,
        "14662": 245,
        "14663": 166,
        "14664": 115,
        "14665": 253,
        "14666": 84,
        "14667": 34,
        "14668": 62,
        "14669": 120,
        "14670": 59,
        "14671": 5,
        "14672": 30,
        "14673": 185,
        "14674": 169,
        "14675": 115,
        "14676": 242,
        "14677": 247,
        "14678": 85,
        "14679": 210,
        "14680": 63,
        "14681": 69,
        "14682": 82,
        "14683": 6,
        "14684": 78,
        "14685": 90,
        "14686": 68,
        "14687": 232,
        "14688": 243,
        "14689": 68,
        "14690": 18,
        "14691": 222,
        "14692": 236,
        "14693": 136,
        "14694": 51,
        "14695": 10,
        "14696": 149,
        "14697": 87,
        "14698": 50,
        "14699": 61,
        "14700": 190,
        "14701": 76,
        "14702": 171,
        "14703": 134,
        "14704": 41,
        "14705": 122,
        "14706": 93,
        "14707": 27,
        "14708": 33,
        "14709": 172,
        "14710": 247,
        "14711": 148,
        "14712": 228,
        "14713": 121,
        "14714": 205,
        "14715": 255,
        "14716": 187,
        "14717": 243,
        "14718": 223,
        "14719": 152,
        "14720": 157,
        "14721": 24,
        "14722": 160,
        "14723": 248,
        "14724": 97,
        "14725": 76,
        "14726": 98,
        "14727": 65,
        "14728": 71,
        "14729": 34,
        "14730": 170,
        "14731": 255,
        "14732": 181,
        "14733": 218,
        "14734": 241,
        "14735": 18,
        "14736": 124,
        "14737": 154,
        "14738": 186,
        "14739": 119,
        "14740": 149,
        "14741": 210,
        "14742": 146,
        "14743": 77,
        "14744": 147,
        "14745": 135,
        "14746": 206,
        "14747": 90,
        "14748": 132,
        "14749": 100,
        "14750": 195,
        "14751": 66,
        "14752": 85,
        "14753": 72,
        "14754": 184,
        "14755": 45,
        "14756": 223,
        "14757": 201,
        "14758": 48,
        "14759": 99,
        "14760": 42,
        "14761": 97,
        "14762": 215,
        "14763": 229,
        "14764": 210,
        "14765": 194,
        "14766": 105,
        "14767": 126,
        "14768": 95,
        "14769": 172,
        "14770": 139,
        "14771": 217,
        "14772": 130,
        "14773": 37,
        "14774": 78,
        "14775": 249,
        "14776": 69,
        "14777": 91,
        "14778": 189,
        "14779": 206,
        "14780": 176,
        "14781": 163,
        "14782": 62,
        "14783": 236,
        "14784": 183,
        "14785": 233,
        "14786": 208,
        "14787": 135,
        "14788": 72,
        "14789": 89,
        "14790": 225,
        "14791": 171,
        "14792": 227,
        "14793": 188,
        "14794": 21,
        "14795": 112,
        "14796": 26,
        "14797": 97,
        "14798": 155,
        "14799": 180,
        "14800": 16,
        "14801": 239,
        "14802": 196,
        "14803": 6,
        "14804": 123,
        "14805": 138,
        "14806": 8,
        "14807": 29,
        "14808": 186,
        "14809": 95,
        "14810": 124,
        "14811": 175,
        "14812": 188,
        "14813": 109,
        "14814": 222,
        "14815": 99,
        "14816": 167,
        "14817": 49,
        "14818": 157,
        "14819": 192,
        "14820": 178,
        "14821": 192,
        "14822": 102,
        "14823": 93,
        "14824": 4,
        "14825": 8,
        "14826": 249,
        "14827": 93,
        "14828": 210,
        "14829": 188,
        "14830": 143,
        "14831": 8,
        "14832": 106,
        "14833": 124,
        "14834": 71,
        "14835": 142,
        "14836": 46,
        "14837": 94,
        "14838": 114,
        "14839": 143,
        "14840": 24,
        "14841": 113,
        "14842": 120,
        "14843": 206,
        "14844": 98,
        "14845": 41,
        "14846": 39,
        "14847": 254,
        "14848": 118,
        "14849": 30,
        "14850": 38,
        "14851": 101,
        "14852": 192,
        "14853": 10,
        "14854": 42,
        "14855": 149,
        "14856": 28,
        "14857": 122,
        "14858": 144,
        "14859": 113,
        "14860": 57,
        "14861": 104,
        "14862": 81,
        "14863": 142,
        "14864": 181,
        "14865": 76,
        "14866": 118,
        "14867": 89,
        "14868": 228,
        "14869": 252,
        "14870": 95,
        "14871": 198,
        "14872": 78,
        "14873": 66,
        "14874": 248,
        "14875": 67,
        "14876": 229,
        "14877": 65,
        "14878": 29,
        "14879": 137,
        "14880": 12,
        "14881": 160,
        "14882": 204,
        "14883": 133,
        "14884": 134,
        "14885": 233,
        "14886": 183,
        "14887": 19,
        "14888": 232,
        "14889": 75,
        "14890": 69,
        "14891": 219,
        "14892": 43,
        "14893": 230,
        "14894": 164,
        "14895": 15,
        "14896": 241,
        "14897": 221,
        "14898": 64,
        "14899": 203,
        "14900": 76,
        "14901": 196,
        "14902": 13,
        "14903": 98,
        "14904": 249,
        "14905": 150,
        "14906": 91,
        "14907": 111,
        "14908": 117,
        "14909": 87,
        "14910": 87,
        "14911": 239,
        "14912": 116,
        "14913": 42,
        "14914": 175,
        "14915": 253,
        "14916": 17,
        "14917": 209,
        "14918": 209,
        "14919": 106,
        "14920": 213,
        "14921": 15,
        "14922": 34,
        "14923": 170,
        "14924": 230,
        "14925": 182,
        "14926": 235,
        "14927": 154,
        "14928": 7,
        "14929": 181,
        "14930": 32,
        "14931": 17,
        "14932": 248,
        "14933": 71,
        "14934": 197,
        "14935": 64,
        "14936": 155,
        "14937": 122,
        "14938": 93,
        "14939": 86,
        "14940": 209,
        "14941": 152,
        "14942": 171,
        "14943": 190,
        "14944": 177,
        "14945": 82,
        "14946": 93,
        "14947": 178,
        "14948": 6,
        "14949": 37,
        "14950": 92,
        "14951": 181,
        "14952": 48,
        "14953": 152,
        "14954": 21,
        "14955": 251,
        "14956": 25,
        "14957": 181,
        "14958": 78,
        "14959": 46,
        "14960": 36,
        "14961": 63,
        "14962": 56,
        "14963": 118,
        "14964": 188,
        "14965": 157,
        "14966": 100,
        "14967": 52,
        "14968": 182,
        "14969": 153,
        "14970": 6,
        "14971": 210,
        "14972": 126,
        "14973": 123,
        "14974": 11,
        "14975": 131,
        "14976": 180,
        "14977": 121,
        "14978": 77,
        "14979": 21,
        "14980": 138,
        "14981": 168,
        "14982": 184,
        "14983": 86,
        "14984": 164,
        "14985": 161,
        "14986": 158,
        "14987": 158,
        "14988": 76,
        "14989": 249,
        "14990": 41,
        "14991": 243,
        "14992": 36,
        "14993": 162,
        "14994": 28,
        "14995": 81,
        "14996": 217,
        "14997": 41,
        "14998": 204,
        "14999": 241,
        "15000": 188,
        "15001": 34,
        "15002": 156,
        "15003": 69,
        "15004": 245,
        "15005": 65,
        "15006": 31,
        "15007": 250,
        "15008": 125,
        "15009": 13,
        "15010": 68,
        "15011": 55,
        "15012": 14,
        "15013": 12,
        "15014": 120,
        "15015": 143,
        "15016": 6,
        "15017": 35,
        "15018": 125,
        "15019": 178,
        "15020": 121,
        "15021": 14,
        "15022": 173,
        "15023": 127,
        "15024": 95,
        "15025": 100,
        "15026": 158,
        "15027": 199,
        "15028": 232,
        "15029": 111,
        "15030": 5,
        "15031": 143,
        "15032": 138,
        "15033": 170,
        "15034": 244,
        "15035": 91,
        "15036": 224,
        "15037": 93,
        "15038": 180,
        "15039": 124,
        "15040": 232,
        "15041": 49,
        "15042": 70,
        "15043": 11,
        "15044": 14,
        "15045": 184,
        "15046": 94,
        "15047": 122,
        "15048": 106,
        "15049": 142,
        "15050": 107,
        "15051": 19,
        "15052": 231,
        "15053": 95,
        "15054": 219,
        "15055": 111,
        "15056": 191,
        "15057": 155,
        "15058": 243,
        "15059": 95,
        "15060": 253,
        "15061": 48,
        "15062": 237,
        "15063": 189,
        "15064": 219,
        "15065": 188,
        "15066": 41,
        "15067": 187,
        "15068": 65,
        "15069": 200,
        "15070": 148,
        "15071": 0,
        "15072": 22,
        "15073": 146,
        "15074": 238,
        "15075": 251,
        "15076": 222,
        "15077": 12,
        "15078": 201,
        "15079": 112,
        "15080": 81,
        "15081": 114,
        "15082": 17,
        "15083": 168,
        "15084": 114,
        "15085": 121,
        "15086": 226,
        "15087": 181,
        "15088": 113,
        "15089": 189,
        "15090": 160,
        "15091": 218,
        "15092": 139,
        "15093": 9,
        "15094": 12,
        "15095": 116,
        "15096": 32,
        "15097": 92,
        "15098": 183,
        "15099": 38,
        "15100": 254,
        "15101": 74,
        "15102": 87,
        "15103": 202,
        "15104": 129,
        "15105": 137,
        "15106": 216,
        "15107": 91,
        "15108": 108,
        "15109": 100,
        "15110": 252,
        "15111": 30,
        "15112": 217,
        "15113": 52,
        "15114": 138,
        "15115": 170,
        "15116": 182,
        "15117": 84,
        "15118": 139,
        "15119": 61,
        "15120": 157,
        "15121": 131,
        "15122": 180,
        "15123": 68,
        "15124": 85,
        "15125": 34,
        "15126": 132,
        "15127": 53,
        "15128": 140,
        "15129": 15,
        "15130": 130,
        "15131": 158,
        "15132": 164,
        "15133": 101,
        "15134": 78,
        "15135": 148,
        "15136": 26,
        "15137": 76,
        "15138": 209,
        "15139": 120,
        "15140": 167,
        "15141": 163,
        "15142": 30,
        "15143": 120,
        "15144": 26,
        "15145": 160,
        "15146": 155,
        "15147": 34,
        "15148": 236,
        "15149": 196,
        "15150": 109,
        "15151": 145,
        "15152": 147,
        "15153": 126,
        "15154": 28,
        "15155": 162,
        "15156": 115,
        "15157": 231,
        "15158": 108,
        "15159": 85,
        "15160": 80,
        "15161": 113,
        "15162": 166,
        "15163": 211,
        "15164": 174,
        "15165": 220,
        "15166": 167,
        "15167": 108,
        "15168": 230,
        "15169": 71,
        "15170": 95,
        "15171": 169,
        "15172": 186,
        "15173": 213,
        "15174": 77,
        "15175": 9,
        "15176": 93,
        "15177": 3,
        "15178": 207,
        "15179": 115,
        "15180": 250,
        "15181": 127,
        "15182": 227,
        "15183": 167,
        "15184": 121,
        "15185": 37,
        "15186": 88,
        "15187": 157,
        "15188": 97,
        "15189": 208,
        "15190": 16,
        "15191": 67,
        "15192": 161,
        "15193": 221,
        "15194": 173,
        "15195": 99,
        "15196": 173,
        "15197": 236,
        "15198": 71,
        "15199": 45,
        "15200": 134,
        "15201": 34,
        "15202": 21,
        "15203": 241,
        "15204": 215,
        "15205": 204,
        "15206": 58,
        "15207": 59,
        "15208": 22,
        "15209": 47,
        "15210": 102,
        "15211": 159,
        "15212": 171,
        "15213": 96,
        "15214": 34,
        "15215": 172,
        "15216": 132,
        "15217": 173,
        "15218": 133,
        "15219": 120,
        "15220": 12,
        "15221": 52,
        "15222": 34,
        "15223": 34,
        "15224": 204,
        "15225": 129,
        "15226": 239,
        "15227": 6,
        "15228": 183,
        "15229": 81,
        "15230": 237,
        "15231": 220,
        "15232": 244,
        "15233": 141,
        "15234": 153,
        "15235": 186,
        "15236": 69,
        "15237": 107,
        "15238": 21,
        "15239": 87,
        "15240": 191,
        "15241": 209,
        "15242": 127,
        "15243": 21,
        "15244": 7,
        "15245": 50,
        "15246": 21,
        "15247": 99,
        "15248": 128,
        "15249": 109,
        "15250": 115,
        "15251": 251,
        "15252": 82,
        "15253": 103,
        "15254": 181,
        "15255": 62,
        "15256": 97,
        "15257": 123,
        "15258": 149,
        "15259": 119,
        "15260": 89,
        "15261": 120,
        "15262": 184,
        "15263": 24,
        "15264": 44,
        "15265": 24,
        "15266": 202,
        "15267": 143,
        "15268": 133,
        "15269": 11,
        "15270": 138,
        "15271": 150,
        "15272": 53,
        "15273": 51,
        "15274": 141,
        "15275": 37,
        "15276": 110,
        "15277": 115,
        "15278": 27,
        "15279": 94,
        "15280": 195,
        "15281": 102,
        "15282": 233,
        "15283": 63,
        "15284": 72,
        "15285": 31,
        "15286": 18,
        "15287": 232,
        "15288": 163,
        "15289": 135,
        "15290": 76,
        "15291": 56,
        "15292": 148,
        "15293": 87,
        "15294": 197,
        "15295": 20,
        "15296": 170,
        "15297": 72,
        "15298": 57,
        "15299": 18,
        "15300": 71,
        "15301": 167,
        "15302": 17,
        "15303": 37,
        "15304": 125,
        "15305": 83,
        "15306": 56,
        "15307": 232,
        "15308": 189,
        "15309": 210,
        "15310": 83,
        "15311": 108,
        "15312": 87,
        "15313": 158,
        "15314": 68,
        "15315": 86,
        "15316": 191,
        "15317": 77,
        "15318": 225,
        "15319": 55,
        "15320": 24,
        "15321": 9,
        "15322": 176,
        "15323": 29,
        "15324": 69,
        "15325": 174,
        "15326": 134,
        "15327": 59,
        "15328": 123,
        "15329": 13,
        "15330": 152,
        "15331": 255,
        "15332": 46,
        "15333": 176,
        "15334": 154,
        "15335": 9,
        "15336": 46,
        "15337": 85,
        "15338": 155,
        "15339": 203,
        "15340": 161,
        "15341": 11,
        "15342": 54,
        "15343": 156,
        "15344": 244,
        "15345": 76,
        "15346": 111,
        "15347": 75,
        "15348": 200,
        "15349": 157,
        "15350": 233,
        "15351": 151,
        "15352": 67,
        "15353": 40,
        "15354": 116,
        "15355": 62,
        "15356": 138,
        "15357": 235,
        "15358": 46,
        "15359": 51,
        "15360": 160,
        "15361": 35,
        "15362": 20,
        "15363": 97,
        "15364": 154,
        "15365": 159,
        "15366": 211,
        "15367": 104,
        "15368": 149,
        "15369": 189,
        "15370": 139,
        "15371": 235,
        "15372": 65,
        "15373": 43,
        "15374": 22,
        "15375": 159,
        "15376": 200,
        "15377": 24,
        "15378": 177,
        "15379": 73,
        "15380": 154,
        "15381": 253,
        "15382": 10,
        "15383": 23,
        "15384": 61,
        "15385": 215,
        "15386": 33,
        "15387": 218,
        "15388": 35,
        "15389": 50,
        "15390": 137,
        "15391": 177,
        "15392": 172,
        "15393": 39,
        "15394": 185,
        "15395": 73,
        "15396": 22,
        "15397": 126,
        "15398": 75,
        "15399": 114,
        "15400": 235,
        "15401": 172,
        "15402": 72,
        "15403": 160,
        "15404": 37,
        "15405": 108,
        "15406": 35,
        "15407": 113,
        "15408": 228,
        "15409": 247,
        "15410": 114,
        "15411": 210,
        "15412": 113,
        "15413": 32,
        "15414": 4,
        "15415": 167,
        "15416": 1,
        "15417": 130,
        "15418": 199,
        "15419": 208,
        "15420": 72,
        "15421": 148,
        "15422": 197,
        "15423": 190,
        "15424": 246,
        "15425": 197,
        "15426": 12,
        "15427": 90,
        "15428": 84,
        "15429": 6,
        "15430": 133,
        "15431": 129,
        "15432": 111,
        "15433": 37,
        "15434": 212,
        "15435": 111,
        "15436": 90,
        "15437": 5,
        "15438": 54,
        "15439": 223,
        "15440": 2,
        "15441": 40,
        "15442": 82,
        "15443": 244,
        "15444": 115,
        "15445": 183,
        "15446": 81,
        "15447": 13,
        "15448": 70,
        "15449": 151,
        "15450": 110,
        "15451": 178,
        "15452": 191,
        "15453": 154,
        "15454": 156,
        "15455": 83,
        "15456": 18,
        "15457": 250,
        "15458": 226,
        "15459": 92,
        "15460": 255,
        "15461": 224,
        "15462": 185,
        "15463": 14,
        "15464": 64,
        "15465": 10,
        "15466": 216,
        "15467": 159,
        "15468": 53,
        "15469": 120,
        "15470": 92,
        "15471": 174,
        "15472": 123,
        "15473": 181,
        "15474": 223,
        "15475": 242,
        "15476": 114,
        "15477": 10,
        "15478": 6,
        "15479": 248,
        "15480": 52,
        "15481": 58,
        "15482": 126,
        "15483": 14,
        "15484": 185,
        "15485": 205,
        "15486": 128,
        "15487": 29,
        "15488": 216,
        "15489": 110,
        "15490": 37,
        "15491": 177,
        "15492": 45,
        "15493": 23,
        "15494": 244,
        "15495": 214,
        "15496": 137,
        "15497": 133,
        "15498": 82,
        "15499": 113,
        "15500": 191,
        "15501": 58,
        "15502": 182,
        "15503": 151,
        "15504": 53,
        "15505": 66,
        "15506": 4,
        "15507": 208,
        "15508": 22,
        "15509": 168,
        "15510": 119,
        "15511": 111,
        "15512": 65,
        "15513": 139,
        "15514": 171,
        "15515": 13,
        "15516": 22,
        "15517": 142,
        "15518": 158,
        "15519": 176,
        "15520": 166,
        "15521": 149,
        "15522": 6,
        "15523": 219,
        "15524": 247,
        "15525": 254,
        "15526": 169,
        "15527": 212,
        "15528": 245,
        "15529": 223,
        "15530": 63,
        "15531": 38,
        "15532": 20,
        "15533": 45,
        "15534": 196,
        "15535": 19,
        "15536": 149,
        "15537": 122,
        "15538": 141,
        "15539": 203,
        "15540": 100,
        "15541": 147,
        "15542": 153,
        "15543": 63,
        "15544": 193,
        "15545": 20,
        "15546": 179,
        "15547": 221,
        "15548": 245,
        "15549": 241,
        "15550": 120,
        "15551": 103,
        "15552": 20,
        "15553": 67,
        "15554": 0,
        "15555": 141,
        "15556": 12,
        "15557": 76,
        "15558": 182,
        "15559": 155,
        "15560": 20,
        "15561": 146,
        "15562": 22,
        "15563": 167,
        "15564": 194,
        "15565": 219,
        "15566": 156,
        "15567": 48,
        "15568": 29,
        "15569": 223,
        "15570": 30,
        "15571": 29,
        "15572": 119,
        "15573": 126,
        "15574": 146,
        "15575": 161,
        "15576": 74,
        "15577": 30,
        "15578": 86,
        "15579": 175,
        "15580": 203,
        "15581": 142,
        "15582": 25,
        "15583": 71,
        "15584": 55,
        "15585": 108,
        "15586": 6,
        "15587": 130,
        "15588": 183,
        "15589": 192,
        "15590": 180,
        "15591": 252,
        "15592": 188,
        "15593": 114,
        "15594": 163,
        "15595": 219,
        "15596": 16,
        "15597": 40,
        "15598": 33,
        "15599": 15,
        "15600": 70,
        "15601": 44,
        "15602": 157,
        "15603": 26,
        "15604": 23,
        "15605": 247,
        "15606": 241,
        "15607": 204,
        "15608": 170,
        "15609": 57,
        "15610": 249,
        "15611": 108,
        "15612": 85,
        "15613": 4,
        "15614": 206,
        "15615": 82,
        "15616": 88,
        "15617": 74,
        "15618": 228,
        "15619": 199,
        "15620": 25,
        "15621": 29,
        "15622": 181,
        "15623": 130,
        "15624": 129,
        "15625": 30,
        "15626": 162,
        "15627": 38,
        "15628": 17,
        "15629": 110,
        "15630": 102,
        "15631": 210,
        "15632": 189,
        "15633": 184,
        "15634": 100,
        "15635": 78,
        "15636": 50,
        "15637": 0,
        "15638": 18,
        "15639": 85,
        "15640": 205,
        "15641": 84,
        "15642": 149,
        "15643": 72,
        "15644": 37,
        "15645": 70,
        "15646": 214,
        "15647": 71,
        "15648": 94,
        "15649": 187,
        "15650": 31,
        "15651": 151,
        "15652": 10,
        "15653": 204,
        "15654": 201,
        "15655": 89,
        "15656": 176,
        "15657": 128,
        "15658": 221,
        "15659": 101,
        "15660": 160,
        "15661": 56,
        "15662": 1,
        "15663": 161,
        "15664": 28,
        "15665": 253,
        "15666": 42,
        "15667": 87,
        "15668": 138,
        "15669": 167,
        "15670": 87,
        "15671": 166,
        "15672": 107,
        "15673": 118,
        "15674": 19,
        "15675": 239,
        "15676": 24,
        "15677": 91,
        "15678": 129,
        "15679": 174,
        "15680": 146,
        "15681": 60,
        "15682": 80,
        "15683": 111,
        "15684": 3,
        "15685": 68,
        "15686": 58,
        "15687": 181,
        "15688": 45,
        "15689": 178,
        "15690": 77,
        "15691": 128,
        "15692": 32,
        "15693": 107,
        "15694": 54,
        "15695": 44,
        "15696": 199,
        "15697": 213,
        "15698": 165,
        "15699": 35,
        "15700": 129,
        "15701": 68,
        "15702": 240,
        "15703": 169,
        "15704": 169,
        "15705": 227,
        "15706": 185,
        "15707": 119,
        "15708": 163,
        "15709": 249,
        "15710": 126,
        "15711": 171,
        "15712": 8,
        "15713": 127,
        "15714": 119,
        "15715": 132,
        "15716": 9,
        "15717": 251,
        "15718": 14,
        "15719": 179,
        "15720": 126,
        "15721": 47,
        "15722": 110,
        "15723": 54,
        "15724": 67,
        "15725": 154,
        "15726": 159,
        "15727": 92,
        "15728": 235,
        "15729": 223,
        "15730": 159,
        "15731": 173,
        "15732": 92,
        "15733": 233,
        "15734": 234,
        "15735": 97,
        "15736": 119,
        "15737": 173,
        "15738": 87,
        "15739": 22,
        "15740": 197,
        "15741": 148,
        "15742": 247,
        "15743": 81,
        "15744": 23,
        "15745": 51,
        "15746": 176,
        "15747": 210,
        "15748": 72,
        "15749": 88,
        "15750": 56,
        "15751": 216,
        "15752": 110,
        "15753": 176,
        "15754": 156,
        "15755": 174,
        "15756": 82,
        "15757": 48,
        "15758": 210,
        "15759": 247,
        "15760": 201,
        "15761": 219,
        "15762": 77,
        "15763": 48,
        "15764": 135,
        "15765": 243,
        "15766": 198,
        "15767": 91,
        "15768": 52,
        "15769": 46,
        "15770": 239,
        "15771": 136,
        "15772": 189,
        "15773": 137,
        "15774": 108,
        "15775": 101,
        "15776": 245,
        "15777": 207,
        "15778": 109,
        "15779": 157,
        "15780": 11,
        "15781": 26,
        "15782": 254,
        "15783": 205,
        "15784": 58,
        "15785": 207,
        "15786": 240,
        "15787": 44,
        "15788": 216,
        "15789": 190,
        "15790": 198,
        "15791": 211,
        "15792": 131,
        "15793": 20,
        "15794": 183,
        "15795": 41,
        "15796": 197,
        "15797": 37,
        "15798": 225,
        "15799": 124,
        "15800": 204,
        "15801": 51,
        "15802": 32,
        "15803": 166,
        "15804": 123,
        "15805": 101,
        "15806": 204,
        "15807": 196,
        "15808": 231,
        "15809": 178,
        "15810": 198,
        "15811": 169,
        "15812": 164,
        "15813": 86,
        "15814": 97,
        "15815": 57,
        "15816": 170,
        "15817": 211,
        "15818": 219,
        "15819": 216,
        "15820": 132,
        "15821": 188,
        "15822": 51,
        "15823": 70,
        "15824": 3,
        "15825": 237,
        "15826": 152,
        "15827": 83,
        "15828": 171,
        "15829": 4,
        "15830": 238,
        "15831": 77,
        "15832": 189,
        "15833": 146,
        "15834": 55,
        "15835": 185,
        "15836": 116,
        "15837": 5,
        "15838": 54,
        "15839": 250,
        "15840": 161,
        "15841": 1,
        "15842": 51,
        "15843": 78,
        "15844": 206,
        "15845": 247,
        "15846": 235,
        "15847": 221,
        "15848": 200,
        "15849": 43,
        "15850": 2,
        "15851": 152,
        "15852": 84,
        "15853": 213,
        "15854": 104,
        "15855": 79,
        "15856": 147,
        "15857": 131,
        "15858": 85,
        "15859": 88,
        "15860": 235,
        "15861": 51,
        "15862": 208,
        "15863": 76,
        "15864": 109,
        "15865": 181,
        "15866": 94,
        "15867": 170,
        "15868": 185,
        "15869": 100,
        "15870": 111,
        "15871": 125,
        "15872": 171,
        "15873": 144,
        "15874": 41,
        "15875": 134,
        "15876": 206,
        "15877": 187,
        "15878": 177,
        "15879": 126,
        "15880": 200,
        "15881": 222,
        "15882": 242,
        "15883": 19,
        "15884": 74,
        "15885": 4,
        "15886": 30,
        "15887": 230,
        "15888": 255,
        "15889": 148,
        "15890": 91,
        "15891": 108,
        "15892": 29,
        "15893": 219,
        "15894": 24,
        "15895": 119,
        "15896": 83,
        "15897": 137,
        "15898": 159,
        "15899": 246,
        "15900": 97,
        "15901": 111,
        "15902": 102,
        "15903": 119,
        "15904": 182,
        "15905": 200,
        "15906": 234,
        "15907": 188,
        "15908": 55,
        "15909": 150,
        "15910": 147,
        "15911": 173,
        "15912": 198,
        "15913": 226,
        "15914": 67,
        "15915": 163,
        "15916": 173,
        "15917": 200,
        "15918": 212,
        "15919": 245,
        "15920": 195,
        "15921": 65,
        "15922": 253,
        "15923": 55,
        "15924": 153,
        "15925": 111,
        "15926": 237,
        "15927": 137,
        "15928": 211,
        "15929": 63,
        "15930": 38,
        "15931": 77,
        "15932": 151,
        "15933": 232,
        "15934": 113,
        "15935": 207,
        "15936": 12,
        "15937": 242,
        "15938": 130,
        "15939": 98,
        "15940": 56,
        "15941": 101,
        "15942": 250,
        "15943": 16,
        "15944": 100,
        "15945": 159,
        "15946": 156,
        "15947": 37,
        "15948": 109,
        "15949": 172,
        "15950": 249,
        "15951": 240,
        "15952": 32,
        "15953": 53,
        "15954": 151,
        "15955": 164,
        "15956": 187,
        "15957": 248,
        "15958": 135,
        "15959": 82,
        "15960": 131,
        "15961": 130,
        "15962": 22,
        "15963": 154,
        "15964": 25,
        "15965": 3,
        "15966": 43,
        "15967": 206,
        "15968": 193,
        "15969": 210,
        "15970": 45,
        "15971": 168,
        "15972": 224,
        "15973": 233,
        "15974": 246,
        "15975": 107,
        "15976": 78,
        "15977": 234,
        "15978": 37,
        "15979": 169,
        "15980": 15,
        "15981": 76,
        "15982": 226,
        "15983": 37,
        "15984": 205,
        "15985": 157,
        "15986": 208,
        "15987": 11,
        "15988": 115,
        "15989": 214,
        "15990": 21,
        "15991": 164,
        "15992": 99,
        "15993": 224,
        "15994": 162,
        "15995": 0,
        "15996": 238,
        "15997": 228,
        "15998": 31,
        "15999": 71,
        "16000": 141,
        "16001": 72,
        "16002": 163,
        "16003": 75,
        "16004": 59,
        "16005": 189,
        "16006": 164,
        "16007": 2,
        "16008": 27,
        "16009": 219,
        "16010": 19,
        "16011": 157,
        "16012": 143,
        "16013": 195,
        "16014": 227,
        "16015": 101,
        "16016": 56,
        "16017": 251,
        "16018": 87,
        "16019": 162,
        "16020": 3,
        "16021": 238,
        "16022": 157,
        "16023": 122,
        "16024": 199,
        "16025": 111,
        "16026": 112,
        "16027": 196,
        "16028": 20,
        "16029": 235,
        "16030": 219,
        "16031": 152,
        "16032": 22,
        "16033": 17,
        "16034": 235,
        "16035": 12,
        "16036": 82,
        "16037": 131,
        "16038": 100,
        "16039": 164,
        "16040": 128,
        "16041": 23,
        "16042": 205,
        "16043": 19,
        "16044": 187,
        "16045": 22,
        "16046": 210,
        "16047": 235,
        "16048": 121,
        "16049": 96,
        "16050": 53,
        "16051": 235,
        "16052": 31,
        "16053": 167,
        "16054": 213,
        "16055": 170,
        "16056": 211,
        "16057": 159,
        "16058": 37,
        "16059": 143,
        "16060": 183,
        "16061": 150,
        "16062": 231,
        "16063": 228,
        "16064": 39,
        "16065": 206,
        "16066": 72,
        "16067": 124,
        "16068": 247,
        "16069": 72,
        "16070": 203,
        "16071": 98,
        "16072": 184,
        "16073": 226,
        "16074": 25,
        "16075": 231,
        "16076": 166,
        "16077": 170,
        "16078": 222,
        "16079": 104,
        "16080": 101,
        "16081": 180,
        "16082": 63,
        "16083": 144,
        "16084": 112,
        "16085": 71,
        "16086": 25,
        "16087": 29,
        "16088": 20,
        "16089": 234,
        "16090": 62,
        "16091": 92,
        "16092": 72,
        "16093": 135,
        "16094": 61,
        "16095": 197,
        "16096": 33,
        "16097": 252,
        "16098": 141,
        "16099": 148,
        "16100": 210,
        "16101": 122,
        "16102": 22,
        "16103": 60,
        "16104": 64,
        "16105": 78,
        "16106": 162,
        "16107": 253,
        "16108": 182,
        "16109": 74,
        "16110": 50,
        "16111": 171,
        "16112": 218,
        "16113": 7,
        "16114": 78,
        "16115": 113,
        "16116": 38,
        "16117": 103,
        "16118": 205,
        "16119": 119,
        "16120": 26,
        "16121": 175,
        "16122": 158,
        "16123": 151,
        "16124": 4,
        "16125": 239,
        "16126": 118,
        "16127": 34,
        "16128": 182,
        "16129": 138,
        "16130": 157,
        "16131": 34,
        "16132": 157,
        "16133": 8,
        "16134": 254,
        "16135": 87,
        "16136": 40,
        "16137": 99,
        "16138": 1,
        "16139": 213,
        "16140": 119,
        "16141": 222,
        "16142": 218,
        "16143": 78,
        "16144": 224,
        "16145": 189,
        "16146": 103,
        "16147": 240,
        "16148": 25,
        "16149": 92,
        "16150": 181,
        "16151": 58,
        "16152": 101,
        "16153": 127,
        "16154": 77,
        "16155": 140,
        "16156": 96,
        "16157": 139,
        "16158": 72,
        "16159": 75,
        "16160": 73,
        "16161": 145,
        "16162": 78,
        "16163": 31,
        "16164": 173,
        "16165": 204,
        "16166": 0,
        "16167": 243,
        "16168": 15,
        "16169": 70,
        "16170": 128,
        "16171": 116,
        "16172": 51,
        "16173": 151,
        "16174": 157,
        "16175": 218,
        "16176": 131,
        "16177": 172,
        "16178": 12,
        "16179": 90,
        "16180": 184,
        "16181": 27,
        "16182": 51,
        "16183": 58,
        "16184": 171,
        "16185": 209,
        "16186": 10,
        "16187": 191,
        "16188": 53,
        "16189": 91,
        "16190": 162,
        "16191": 4,
        "16192": 159,
        "16193": 244,
        "16194": 239,
        "16195": 187,
        "16196": 201,
        "16197": 67,
        "16198": 178,
        "16199": 168,
        "16200": 136,
        "16201": 253,
        "16202": 190,
        "16203": 110,
        "16204": 146,
        "16205": 209,
        "16206": 210,
        "16207": 72,
        "16208": 219,
        "16209": 85,
        "16210": 254,
        "16211": 135,
        "16212": 161,
        "16213": 185,
        "16214": 192,
        "16215": 6,
        "16216": 54,
        "16217": 216,
        "16218": 46,
        "16219": 46,
        "16220": 116,
        "16221": 64,
        "16222": 228,
        "16223": 150,
        "16224": 11,
        "16225": 205,
        "16226": 80,
        "16227": 202,
        "16228": 179,
        "16229": 213,
        "16230": 227,
        "16231": 244,
        "16232": 169,
        "16233": 38,
        "16234": 53,
        "16235": 140,
        "16236": 117,
        "16237": 100,
        "16238": 101,
        "16239": 72,
        "16240": 24,
        "16241": 85,
        "16242": 92,
        "16243": 85,
        "16244": 47,
        "16245": 235,
        "16246": 53,
        "16247": 198,
        "16248": 19,
        "16249": 52,
        "16250": 92,
        "16251": 85,
        "16252": 42,
        "16253": 49,
        "16254": 45,
        "16255": 185,
        "16256": 213,
        "16257": 202,
        "16258": 146,
        "16259": 202,
        "16260": 13,
        "16261": 211,
        "16262": 193,
        "16263": 121,
        "16264": 215,
        "16265": 30,
        "16266": 68,
        "16267": 73,
        "16268": 148,
        "16269": 71,
        "16270": 220,
        "16271": 77,
        "16272": 44,
        "16273": 51,
        "16274": 198,
        "16275": 136,
        "16276": 17,
        "16277": 181,
        "16278": 182,
        "16279": 110,
        "16280": 237,
        "16281": 45,
        "16282": 84,
        "16283": 122,
        "16284": 199,
        "16285": 109,
        "16286": 128,
        "16287": 123,
        "16288": 30,
        "16289": 246,
        "16290": 176,
        "16291": 59,
        "16292": 76,
        "16293": 61,
        "16294": 26,
        "16295": 6,
        "16296": 248,
        "16297": 33,
        "16298": 6,
        "16299": 6,
        "16300": 221,
        "16301": 138,
        "16302": 36,
        "16303": 162,
        "16304": 115,
        "16305": 125,
        "16306": 181,
        "16307": 55,
        "16308": 185,
        "16309": 2,
        "16310": 19,
        "16311": 54,
        "16312": 172,
        "16313": 76,
        "16314": 170,
        "16315": 79,
        "16316": 227,
        "16317": 142,
        "16318": 209,
        "16319": 78,
        "16320": 71,
        "16321": 3,
        "16322": 29,
        "16323": 100,
        "16324": 116,
        "16325": 176,
        "16326": 20,
        "16327": 185,
        "16328": 177,
        "16329": 157,
        "16330": 143,
        "16331": 5,
        "16332": 249,
        "16333": 2,
        "16334": 237,
        "16335": 207,
        "16336": 211,
        "16337": 93,
        "16338": 223,
        "16339": 30,
        "16340": 156,
        "16341": 179,
        "16342": 111,
        "16343": 213,
        "16344": 94,
        "16345": 62,
        "16346": 218,
        "16347": 173,
        "16348": 19,
        "16349": 136,
        "16350": 247,
        "16351": 237,
        "16352": 89,
        "16353": 10,
        "16354": 58,
        "16355": 189,
        "16356": 85,
        "16357": 52,
        "16358": 192,
        "16359": 36,
        "16360": 220,
        "16361": 118,
        "16362": 224,
        "16363": 245,
        "16364": 239,
        "16365": 219,
        "16366": 106,
        "16367": 191,
        "16368": 57,
        "16369": 34,
        "16370": 46,
        "16371": 84,
        "16372": 49,
        "16373": 150,
        "16374": 63,
        "16375": 19,
        "16376": 78,
        "16377": 0,
        "16378": 93,
        "16379": 153,
        "16380": 117,
        "16381": 77,
        "16382": 189,
        "16383": 242,
        "16384": 138,
        "16385": 151,
        "16386": 231,
        "16387": 201,
        "16388": 32,
        "16389": 3,
        "16390": 203,
        "16391": 93,
        "16392": 24,
        "16393": 223,
        "16394": 134,
        "16395": 7,
        "16396": 4,
        "16397": 71,
        "16398": 171,
        "16399": 2,
        "16400": 63,
        "16401": 46,
        "16402": 78,
        "16403": 159,
        "16404": 228,
        "16405": 52,
        "16406": 140,
        "16407": 182,
        "16408": 45,
        "16409": 208,
        "16410": 15,
        "16411": 248,
        "16412": 191,
        "16413": 232,
        "16414": 29,
        "16415": 3,
        "16416": 149,
        "16417": 71,
        "16418": 239,
        "16419": 205,
        "16420": 118,
        "16421": 93,
        "16422": 156,
        "16423": 25,
        "16424": 143,
        "16425": 106,
        "16426": 190,
        "16427": 27,
        "16428": 211,
        "16429": 56,
        "16430": 169,
        "16431": 55,
        "16432": 149,
        "16433": 22,
        "16434": 3,
        "16435": 13,
        "16436": 82,
        "16437": 65,
        "16438": 126,
        "16439": 3,
        "16440": 26,
        "16441": 157,
        "16442": 214,
        "16443": 229,
        "16444": 180,
        "16445": 239,
        "16446": 246,
        "16447": 50,
        "16448": 187,
        "16449": 70,
        "16450": 31,
        "16451": 201,
        "16452": 7,
        "16453": 63,
        "16454": 178,
        "16455": 238,
        "16456": 232,
        "16457": 244,
        "16458": 138,
        "16459": 239,
        "16460": 207,
        "16461": 64,
        "16462": 7,
        "16463": 109,
        "16464": 8,
        "16465": 185,
        "16466": 133,
        "16467": 170,
        "16468": 156,
        "16469": 64,
        "16470": 237,
        "16471": 182,
        "16472": 95,
        "16473": 121,
        "16474": 197,
        "16475": 129,
        "16476": 76,
        "16477": 156,
        "16478": 1,
        "16479": 76,
        "16480": 29,
        "16481": 182,
        "16482": 15,
        "16483": 195,
        "16484": 232,
        "16485": 92,
        "16486": 178,
        "16487": 9,
        "16488": 21,
        "16489": 110,
        "16490": 23,
        "16491": 51,
        "16492": 211,
        "16493": 37,
        "16494": 67,
        "16495": 22,
        "16496": 73,
        "16497": 157,
        "16498": 35,
        "16499": 2,
        "16500": 93,
        "16501": 29,
        "16502": 90,
        "16503": 219,
        "16504": 193,
        "16505": 51,
        "16506": 45,
        "16507": 86,
        "16508": 204,
        "16509": 225,
        "16510": 18,
        "16511": 183,
        "16512": 104,
        "16513": 159,
        "16514": 60,
        "16515": 21,
        "16516": 11,
        "16517": 162,
        "16518": 43,
        "16519": 9,
        "16520": 1,
        "16521": 8,
        "16522": 0,
        "16523": 0,
        "16524": 0,
        "16525": 0,
        "16526": 0,
        "16527": 0,
        "16528": 16,
        "16529": 0,
        "16530": 0,
        "16531": 0,
        "16532": 0,
        "16533": 0,
        "16534": 0,
        "16535": 0,
        "16536": 0,
        "16537": 0,
        "16538": 0,
        "16539": 0,
        "16540": 0,
        "16541": 0,
        "16542": 0,
        "16543": 0,
        "16544": 0,
        "16545": 0,
        "16546": 0,
        "16547": 0,
        "16548": 0,
        "16549": 0,
        "16550": 0,
        "16551": 0,
        "16552": 64,
        "16553": 0,
        "16554": 0,
        "16555": 0,
        "16556": 0,
        "16557": 0,
        "16558": 0,
        "16559": 0,
        "16560": 3,
        "16561": 0,
        "16562": 0,
        "16563": 0,
        "16564": 0,
        "16565": 0,
        "16566": 0,
        "16567": 0,
        "16568": 4,
        "16569": 0,
        "16570": 0,
        "16571": 0,
        "16572": 0,
        "16573": 0,
        "16574": 0,
        "16575": 0,
        "16576": 4,
        "16577": 0,
        "16578": 0,
        "16579": 0,
        "16580": 0,
        "16581": 0,
        "16582": 0,
        "16583": 0,
        "16584": 0,
        "16585": 0,
        "16586": 0,
        "16587": 0,
        "16588": 1,
        "16589": 0,
        "16590": 0,
        "16591": 0,
        "16592": 0,
        "16593": 0,
        "16594": 0,
        "16595": 0,
        "16596": 16,
        "16597": 0,
        "16598": 0,
        "16599": 0,
        "16600": 0,
        "16601": 0,
        "16602": 0,
        "16603": 0
      }
    }
  ],
  "numDeployments": 8,
  "solcInputHash": "291cf64def2066c7e76507ea7caba91d",
  "bytecode": "0x6101606040526200001760006200026660201b60201c565b6002553480156200002757600080fd5b50604051620046173803806200461783398181016040528101906200004d919062000b83565b6040518060400160405280600881526020017f46616b65205553440000000000000000000000000000000000000000000000008152506040518060400160405280600481526020017f6655534400000000000000000000000000000000000000000000000000000000815250338383836040518060400160405280601181526020017f4668656e6978205065726d697373696f6e0000000000000000000000000000008152506040518060400160405280600381526020017f312e3000000000000000000000000000000000000000000000000000000000008152506200013f6000836200028260201b90919060201c565b61012081815250506200015d6001826200028260201b90919060201c565b6101408181525050818051906020012060e08181525050808051906020012061010081815250504660a081815250506200019c620002da60201b60201c565b608081815250503073ffffffffffffffffffffffffffffffffffffffff1660c08173ffffffffffffffffffffffffffffffffffffffff168152505050508160059081620001ea919062000e1f565b508060069081620001fc919062000e1f565b505050600062000212826200033760201b60201c565b9050620002486200023c8262000230617fff6200026660201b60201c565b6200035560201b60201c565b620003f860201b60201c565b6200025a8382620004cb60201b60201c565b50505050505062001260565b60006200027b8260026200057160201b60201c565b9050919050565b6000602083511015620002a857620002a0836200062860201b60201c565b9050620002d4565b82620002ba836200069560201b60201c565b6000019081620002cb919062000e1f565b5060ff60001b90505b92915050565b60007f8b73c3c69bb8fe3d512ecc4cf759cc79239f7b179b0ffacaa9a75d522b39400f60e0516101005146306040516020016200031c95949392919062000f77565b60405160208183030381529060405280519060200120905090565b60006200034e82600001516200069f60201b60201c565b9050919050565b60006200036883620006bb60201b60201c565b62000382576200037f60006200026660201b60201c565b92505b6200039382620006bb60201b60201c565b620003ad57620003aa60006200026660201b60201c565b91505b600083905060008390506000620003ea60028484608073ffffffffffffffffffffffffffffffffffffffff1663eb274b77620006c860201b60201c565b905080935050505092915050565b62000409816200077960201b60201c565b62000423576200042060006200078660201b60201c565b90505b600081905060006200043b82620007a260201b60201c565b9050608073ffffffffffffffffffffffffffffffffffffffff16637d23f1db600d836040518363ffffffff1660e01b81526004016200047c9291906200104f565b600060405180830381865afa1580156200049a573d6000803e3d6000fd5b505050506040513d6000823e3d601f19601f82011682018060405250810190620004c5919062001083565b50505050565b62000516600360008473ffffffffffffffffffffffffffffffffffffffff1673ffffffffffffffffffffffffffffffffffffffff168152602001908152602001600020548262000803565b600360008473ffffffffffffffffffffffffffffffffffffffff1673ffffffffffffffffffffffffffffffffffffffff16815260200190815260200160002081905550620005676002548262000803565b6002819055505050565b60006060608073ffffffffffffffffffffffffffffffffffffffff166319e1c5c4620005a386620007a260201b60201c565b856040518363ffffffff1660e01b8152600401620005c3929190620010d4565b600060405180830381865afa158015620005e1573d6000803e3d6000fd5b505050506040513d6000823e3d601f19601f820116820180604052508101906200060c919062001083565b90506200061f816200081f60201b60201c565b91505092915050565b600080829050601f815111156200067857826040517f305a27a90000000000000000000000000000000000000000000000000000000081526004016200066f91906200115a565b60405180910390fd5b8051816200068690620011a5565b60001c1760001b915050919050565b6000819050919050565b6000620006b48260026200082d60201b60201c565b9050919050565b6000808214159050919050565b60006060838388620006e089620007a260201b60201c565b620006f189620007a260201b60201c565b6040518463ffffffff1660e01b8152600401620007119392919062001215565b600060405180830381865afa1580156200072f573d6000803e3d6000fd5b505050506040513d6000823e3d601f19601f820116820180604052508101906200075a919062001083565b90506200076d81620008d460201b60201c565b91505095945050505050565b6000808214159050919050565b60006200079b82600d6200057160201b60201c565b9050919050565b6060602067ffffffffffffffff811115620007c257620007c1620009ae565b5b6040519080825280601f01601f191660200182016040528015620007f55781602001600182028036833780820191505090505b509050816020820152919050565b6000620008178383620008e260201b60201c565b905092915050565b600060208201519050919050565b60006060608073ffffffffffffffffffffffffffffffffffffffff16635fa55ca784866040518363ffffffff1660e01b81526004016200086f9291906200104f565b600060405180830381865afa1580156200088d573d6000803e3d6000fd5b505050506040513d6000823e3d601f19601f82011682018060405250810190620008b8919062001083565b9050620008cb816200081f60201b60201c565b91505092915050565b600060208201519050919050565b6000620008f583620006bb60201b60201c565b6200090f576200090c60006200026660201b60201c565b92505b6200092082620006bb60201b60201c565b6200093a576200093760006200026660201b60201c565b91505b6000839050600083905060006200097660028484608073ffffffffffffffffffffffffffffffffffffffff16622df619620006c860201b60201c565b905080935050505092915050565b6000604051905090565b600080fd5b600080fd5b600080fd5b6000601f19601f8301169050919050565b7f4e487b7100000000000000000000000000000000000000000000000000000000600052604160045260246000fd5b620009e8826200099d565b810181811067ffffffffffffffff8211171562000a0a5762000a09620009ae565b5b80604052505050565b600062000a1f62000984565b905062000a2d8282620009dd565b919050565b600080fd5b600080fd5b600080fd5b600067ffffffffffffffff82111562000a5f5762000a5e620009ae565b5b62000a6a826200099d565b9050602081019050919050565b60005b8381101562000a9757808201518184015260208101905062000a7a565b60008484015250505050565b600062000aba62000ab48462000a41565b62000a13565b90508281526020810184848401111562000ad95762000ad862000a3c565b5b62000ae684828562000a77565b509392505050565b600082601f83011262000b065762000b0562000a37565b5b815162000b1884826020860162000aa3565b91505092915050565b60006020828403121562000b3a5762000b3962000998565b5b62000b46602062000a13565b9050600082015167ffffffffffffffff81111562000b695762000b6862000a32565b5b62000b778482850162000aee565b60008301525092915050565b60006020828403121562000b9c5762000b9b6200098e565b5b600082015167ffffffffffffffff81111562000bbd5762000bbc62000993565b5b62000bcb8482850162000b21565b91505092915050565b600081519050919050565b7f4e487b7100000000000000000000000000000000000000000000000000000000600052602260045260246000fd5b6000600282049050600182168062000c2757607f821691505b60208210810362000c3d5762000c3c62000bdf565b5b50919050565b60008190508160005260206000209050919050565b60006020601f8301049050919050565b600082821b905092915050565b60006008830262000ca77fffffffffffffffffffffffffffffffffffffffffffffffffffffffffffffffff8262000c68565b62000cb3868362000c68565b95508019841693508086168417925050509392505050565b6000819050919050565b6000819050919050565b600062000d0062000cfa62000cf48462000ccb565b62000cd5565b62000ccb565b9050919050565b6000819050919050565b62000d1c8362000cdf565b62000d3462000d2b8262000d07565b84845462000c75565b825550505050565b600090565b62000d4b62000d3c565b62000d5881848462000d11565b505050565b5b8181101562000d805762000d7460008262000d41565b60018101905062000d5e565b5050565b601f82111562000dcf5762000d998162000c43565b62000da48462000c58565b8101602085101562000db4578190505b62000dcc62000dc38562000c58565b83018262000d5d565b50505b505050565b600082821c905092915050565b600062000df46000198460080262000dd4565b1980831691505092915050565b600062000e0f838362000de1565b9150826002028217905092915050565b62000e2a8262000bd4565b67ffffffffffffffff81111562000e465762000e45620009ae565b5b62000e52825462000c0e565b62000e5f82828562000d84565b600060209050601f83116001811462000e97576000841562000e82578287015190505b62000e8e858262000e01565b86555062000efe565b601f19841662000ea78662000c43565b60005b8281101562000ed15784890151825560018201915060208501945060208101905062000eaa565b8683101562000ef1578489015162000eed601f89168262000de1565b8355505b6001600288020188555050505b505050505050565b6000819050919050565b62000f1b8162000f06565b82525050565b62000f2c8162000ccb565b82525050565b600073ffffffffffffffffffffffffffffffffffffffff82169050919050565b600062000f5f8262000f32565b9050919050565b62000f718162000f52565b82525050565b600060a08201905062000f8e600083018862000f10565b62000f9d602083018762000f10565b62000fac604083018662000f10565b62000fbb606083018562000f21565b62000fca608083018462000f66565b9695505050505050565b600060ff82169050919050565b62000fec8162000fd4565b82525050565b600081519050919050565b600082825260208201905092915050565b60006200101b8262000ff2565b62001027818562000ffd565b93506200103981856020860162000a77565b62001044816200099d565b840191505092915050565b600060408201905062001066600083018562000fe1565b81810360208301526200107a81846200100e565b90509392505050565b6000602082840312156200109c576200109b6200098e565b5b600082015167ffffffffffffffff811115620010bd57620010bc62000993565b5b620010cb8482850162000aee565b91505092915050565b60006040820190508181036000830152620010f081856200100e565b905062001101602083018462000fe1565b9392505050565b600082825260208201905092915050565b6000620011268262000bd4565b62001132818562001108565b93506200114481856020860162000a77565b6200114f816200099d565b840191505092915050565b6000602082019050818103600083015262001176818462001119565b905092915050565b6000819050602082019050919050565b60006200119c825162000f06565b80915050919050565b6000620011b28262000ff2565b82620011be846200117e565b9050620011cb816200118e565b925060208210156200120e57620012097fffffffffffffffffffffffffffffffffffffffffffffffffffffffffffffffff8360200360080262000c68565b831692505b5050919050565b60006060820190506200122c600083018662000fe1565b81810360208301526200124081856200100e565b905081810360408301526200125681846200100e565b9050949350505050565b60805160a05160c05160e05161010051610120516101405161335c620012bb60003960006118f5015260006118ba0152600061217f0152600061215e015260006119ea01526000611a4001526000611a69015261335c6000f3fe608060405234801561001057600080fd5b50600436106101425760003560e01c80637ecebe00116100b8578063a9059cbb1161007c578063a9059cbb146103b9578063af575a00146103e9578063c4224c1914610419578063d505accf14610449578063d918156e14610465578063dd62ed3e1461049557610142565b80637ecebe00146102fb57806384b0196e1461032b5780638624a3491461034f57806395d89b411461037f5780639f284be71461039d57610142565b80633644e5151161010a5780633644e5151461020157806339c217f71461021f5780635356c4291461024f578063602772041461027f5780636e0505e1146102af57806370a08231146102cb57610142565b806306fdde0314610147578063095ea7b31461016557806318160ddd1461019557806323b872dd146101b3578063313ce567146101e3575b600080fd5b61014f6104c5565b60405161015c9190612433565b60405180910390f35b61017f600480360381019061017a91906124fd565b610557565b60405161018c9190612558565b60405180910390f35b61019d6105ab565b6040516101aa9190612582565b60405180910390f35b6101cd60048036038101906101c8919061259d565b6105bd565b6040516101da9190612558565b60405180910390f35b6101eb610692565b6040516101f8919061260c565b60405180910390f35b610209610697565b6040516102169190612640565b60405180910390f35b6102396004803603810190610234919061267f565b610729565b6040516102469190612716565b60405180910390f35b61026960048036038101906102649190612750565b61074e565b6040516102769190612433565b60405180910390f35b61029960048036038101906102949190612983565b6108bf565b6040516102a69190612433565b60405180910390f35b6102c960048036038101906102c49190612a1b565b6109ec565b005b6102e560048036038101906102e09190612a48565b610b01565b6040516102f29190612582565b60405180910390f35b61031560048036038101906103109190612a48565b610b1c565b6040516103229190612582565b60405180910390f35b610333610b37565b6040516103469796959493929190612b7d565b60405180910390f35b61036960048036038101906103649190612c01565b610be1565b6040516103769190612716565b60405180910390f35b610387610c08565b6040516103949190612433565b60405180910390f35b6103b760048036038101906103b29190612a1b565b610c9a565b005b6103d360048036038101906103ce91906124fd565b610da7565b6040516103e09190612558565b60405180910390f35b61040360048036038101906103fe9190612c9c565b610e39565b6040516104109190612716565b60405180910390f35b610433600480360381019061042e9190612cef565b61118f565b6040516104409190612716565b60405180910390f35b610463600480360381019061045e9190612d5b565b611359565b005b61047f600480360381019061047a919061267f565b6114fd565b60405161048c9190612558565b60405180910390f35b6104af60048036038101906104aa9190612dfd565b6115f5565b6040516104bc9190612582565b60405180910390f35b6060600580546104d490612e6c565b80601f016020809104026020016040519081016040528092919081815260200182805461050090612e6c565b801561054d5780601f106105225761010080835404028352916020019161054d565b820191906000526020600020905b81548152906001019060200180831161053057829003601f168201915b5050505050905090565b600082602052637f5e9f20600c5233600052816034600c205581600052602c5160601c337f8c5be1e5ebec7d5bd14f71427d1e84f3dd0314c0f7b2291e5b200ac8c7c3b92560206000a36001905092915050565b60006805345cdf77eb68f44c54905090565b60006105ca848484611615565b8360601b33602052637f5e9f208117600c526034600c20805460018101156106085780851115610602576313be252b6000526004601cfd5b84810382555b6387a211a28317600c526020600c2080548087111561062f5763f4d678b86000526004601cfd5b8681038255876000526020600c2087815401815587602052600c5160601c8660601c7fddf252ad1be2c89b69c2b068fc378daa952ba7f163c4a11628f55a4df523b3ef602080a350505050505061068784848461161a565b600190509392505050565b600090565b6000806106a261161f565b90506000801b81036106c0576106b66104c5565b8051906020012090505b6040517f8b73c3c69bb8fe3d512ecc4cf759cc79239f7b179b0ffacaa9a75d522b39400f81528160208201527fc89efdaa54c0f20c7adf612882df0950f5a951637e0307cdcb4c672f298b8bc6604082015246606082015230608082015260a081209250505090565b6000610746836107418461073c90612ef5565b611624565b61118f565b905092915050565b60608161075a90612f08565b60006107b17f6bdaeb2d29561f159c7ef98b16b27015fb2aeb87209c7ee656226d912f59927d8360000151604051602001610796929190612f1b565b6040516020818303038152906040528051906020012061163a565b905060006107c3828460200151611654565b90503373ffffffffffffffffffffffffffffffffffffffff168173ffffffffffffffffffffffffffffffffffffffff161461082a576040517f3093a27700000000000000000000000000000000000000000000000000000000815260040160405180910390fd5b6108b4600460003373ffffffffffffffffffffffffffffffffffffffff1673ffffffffffffffffffffffffffffffffffffffff16815260200190815260200160002060008873ffffffffffffffffffffffffffffffffffffffff1673ffffffffffffffffffffffffffffffffffffffff168152602001908152602001600020548660000135611680565b935050505092915050565b60608183600061091a7f6bdaeb2d29561f159c7ef98b16b27015fb2aeb87209c7ee656226d912f59927d84600001516040516020016108ff929190612f1b565b6040516020818303038152906040528051906020012061163a565b9050600061092c828560200151611654565b90508273ffffffffffffffffffffffffffffffffffffffff168173ffffffffffffffffffffffffffffffffffffffff1614610993576040517f51c65eae00000000000000000000000000000000000000000000000000000000815260040160405180910390fd5b6109e0600360008973ffffffffffffffffffffffffffffffffffffffff1673ffffffffffffffffffffffffffffffffffffffff168152602001908152602001600020548760000151611680565b94505050505092915050565b6000610a45610a008363ffffffff166116b6565b600360003373ffffffffffffffffffffffffffffffffffffffff1673ffffffffffffffffffffffffffffffffffffffff168152602001908152602001600020546116ca565b9050610a90600360003373ffffffffffffffffffffffffffffffffffffffff1673ffffffffffffffffffffffffffffffffffffffff1681526020019081526020016000205482611743565b600360003373ffffffffffffffffffffffffffffffffffffffff1673ffffffffffffffffffffffffffffffffffffffff16815260200190815260200160002081905550610adf60025482611743565b600281905550610afd33610af283611757565b63ffffffff1661181a565b5050565b60006387a211a2600c52816000526020600c20549050919050565b60006338377508600c52816000526020600c20549050919050565b600060608060008060006060610b4b6118b1565b610b536118ec565b46306000801b600067ffffffffffffffff811115610b7457610b736127b1565b5b604051908082528060200260200182016040528015610ba25781602001602082028036833780820191505090505b507f0f00000000000000000000000000000000000000000000000000000000000000959493929190965096509650965096509650965090919293949596565b6000610bff8484610bfa85610bf590612ef5565b611624565b610e39565b90509392505050565b606060068054610c1790612e6c565b80601f0160208091040260200160405190810160405280929190818152602001828054610c4390612e6c565b8015610c905780601f10610c6557610100808354040283529160200191610c90565b820191906000526020600020905b815481529060010190602001808311610c7357829003601f168201915b5050505050905090565b8063ffffffff16610caa33610b01565b1015610ce2576040517ffda7bbda00000000000000000000000000000000000000000000000000000000815260040160405180910390fd5b610cf2338263ffffffff16611927565b6000610d038263ffffffff166116b6565b9050610d4e600360003373ffffffffffffffffffffffffffffffffffffffff1673ffffffffffffffffffffffffffffffffffffffff16815260200190815260200160002054826119be565b600360003373ffffffffffffffffffffffffffffffffffffffff1673ffffffffffffffffffffffffffffffffffffffff16815260200190815260200160002081905550610d9d600254826119be565b6002819055505050565b6000610db4338484611615565b6387a211a2600c52336000526020600c20805480841115610ddd5763f4d678b86000526004601cfd5b8381038255846000526020600c2084815401815584602052600c5160601c337fddf252ad1be2c89b69c2b068fc378daa952ba7f163c4a11628f55a4df523b3ef602080a3505050610e2f33848461161a565b6001905092915050565b600080610f0a83610f05600360008973ffffffffffffffffffffffffffffffffffffffff1673ffffffffffffffffffffffffffffffffffffffff16815260200190815260200160002054600460008a73ffffffffffffffffffffffffffffffffffffffff1673ffffffffffffffffffffffffffffffffffffffff16815260200190815260200160002060003373ffffffffffffffffffffffffffffffffffffffff1673ffffffffffffffffffffffffffffffffffffffff168152602001908152602001600020546116ca565b6116ca565b9050610f92600460008773ffffffffffffffffffffffffffffffffffffffff1673ffffffffffffffffffffffffffffffffffffffff16815260200190815260200160002060003373ffffffffffffffffffffffffffffffffffffffff1673ffffffffffffffffffffffffffffffffffffffff1681526020019081526020016000205482611743565b600460008773ffffffffffffffffffffffffffffffffffffffff1673ffffffffffffffffffffffffffffffffffffffff16815260200190815260200160002060003373ffffffffffffffffffffffffffffffffffffffff1673ffffffffffffffffffffffffffffffffffffffff1681526020019081526020016000208190555061105b600360008773ffffffffffffffffffffffffffffffffffffffff1673ffffffffffffffffffffffffffffffffffffffff1681526020019081526020016000205482611743565b600360008773ffffffffffffffffffffffffffffffffffffffff1673ffffffffffffffffffffffffffffffffffffffff168152602001908152602001600020819055506110e7600360008673ffffffffffffffffffffffffffffffffffffffff1673ffffffffffffffffffffffffffffffffffffffff16815260200190815260200160002054826119be565b600360008673ffffffffffffffffffffffffffffffffffffffff1673ffffffffffffffffffffffffffffffffffffffff168152602001908152602001600020819055508373ffffffffffffffffffffffffffffffffffffffff168573ffffffffffffffffffffffffffffffffffffffff167f7612539b010127d1a2f810eeff1131de23a28ecfa8228f92a9606a879300fbb560405160405180910390a3809150509392505050565b6000806111db83600360003373ffffffffffffffffffffffffffffffffffffffff1673ffffffffffffffffffffffffffffffffffffffff168152602001908152602001600020546116ca565b9050611226600360003373ffffffffffffffffffffffffffffffffffffffff1673ffffffffffffffffffffffffffffffffffffffff1681526020019081526020016000205482611743565b600360003373ffffffffffffffffffffffffffffffffffffffff1673ffffffffffffffffffffffffffffffffffffffff168152602001908152602001600020819055506112b2600360008673ffffffffffffffffffffffffffffffffffffffff1673ffffffffffffffffffffffffffffffffffffffff16815260200190815260200160002054826119be565b600360008673ffffffffffffffffffffffffffffffffffffffff1673ffffffffffffffffffffffffffffffffffffffff168152602001908152602001600020819055508373ffffffffffffffffffffffffffffffffffffffff163373ffffffffffffffffffffffffffffffffffffffff167f7612539b010127d1a2f810eeff1131de23a28ecfa8228f92a9606a879300fbb560405160405180910390a38091505092915050565b600061136361161f565b90506000801b8103611381576113776104c5565b8051906020012090505b8442111561139757631a15a3cc6000526004601cfd5b6040518860601b60601c98508760601b60601c975065383775081901600e52886000526020600c2080547f8b73c3c69bb8fe3d512ecc4cf759cc79239f7b179b0ffacaa9a75d522b39400f83528360208401527fc89efdaa54c0f20c7adf612882df0950f5a951637e0307cdcb4c672f298b8bc6604084015246606084015230608084015260a08320602e527f6e71edae12b1b97f4d1f60370fef10105fa2faae0126114a169c64845d6126c983528a60208401528960408401528860608401528060808401528760a084015260c08320604e526042602c206000528660ff1660205285604052846060526020806080600060015afa8b3d51146114a35763ddafbaef6000526004601cfd5b80820183558a637f5e9f2060a01b17604052896034602c20558a8c7f8c5be1e5ebec7d5bd14f71427d1e84f3dd0314c0f7b2291e5b200ac8c7c3b925602060608801a3836040526000606052505050505050505050505050565b60006115118261150c90612ef5565b611624565b600460003373ffffffffffffffffffffffffffffffffffffffff1673ffffffffffffffffffffffffffffffffffffffff16815260200190815260200160002060008573ffffffffffffffffffffffffffffffffffffffff1673ffffffffffffffffffffffffffffffffffffffff168152602001908152602001600020819055508273ffffffffffffffffffffffffffffffffffffffff163373ffffffffffffffffffffffffffffffffffffffff167f46f92913a39019d68e630493d23e0cf39761bf253f7b3f8eae384b33e393ed4e60405160405180910390a36001905092915050565b600081602052637f5e9f20600c52826000526034600c2054905092915050565b505050565b505050565b600090565b600061163382600001516119d2565b9050919050565b600061164d6116476119e6565b83611a9d565b9050919050565b6000806000806116648686611ade565b9250925092506116748282611b3a565b82935050505092915050565b606061168b83611c9e565b61169c5761169960006116b6565b92505b60008390506116ad60028285611cab565b91505092915050565b60006116c3826002611d61565b9050919050565b60006116d583611c9e565b6116e6576116e360006116b6565b92505b6116ef82611c9e565b611700576116fd60006116b6565b91505b60008390506000839050600061173560028484608073ffffffffffffffffffffffffffffffffffffffff16635211c679611e03565b905080935050505092915050565b600061174f8383611e97565b905092915050565b600061176282611c9e565b6117735761177060006116b6565b91505b6000829050600061178382611f10565b90506000608073ffffffffffffffffffffffffffffffffffffffff166373cc01546002846040518363ffffffff1660e01b81526004016117c4929190612f99565b602060405180830381865afa1580156117e1573d6000803e3d6000fd5b505050506040513d601f19601f820116820180604052508101906118059190612fde565b905061181081611f6d565b9350505050919050565b61182660008383611615565b6805345cdf77eb68f44c548181018181101561184a5763e5cfe9576000526004601cfd5b806805345cdf77eb68f44c556387a211a2600c52836000526020600c2083815401815583602052600c5160601c60007fddf252ad1be2c89b69c2b068fc378daa952ba7f163c4a11628f55a4df523b3ef602080a35050506118ad6000838361161a565b5050565b60606118e760007f0000000000000000000000000000000000000000000000000000000000000000611f7790919063ffffffff16565b905090565b606061192260017f0000000000000000000000000000000000000000000000000000000000000000611f7790919063ffffffff16565b905090565b61193382600083611615565b6387a211a2600c52816000526020600c2080548083111561195c5763f4d678b86000526004601cfd5b8281038255826805345cdf77eb68f44c54036805345cdf77eb68f44c558260005260008460601b60601c7fddf252ad1be2c89b69c2b068fc378daa952ba7f163c4a11628f55a4df523b3ef60206000a350506119ba8260008361161a565b5050565b60006119ca8383612027565b905092915050565b60006119df82600261209f565b9050919050565b60007f000000000000000000000000000000000000000000000000000000000000000073ffffffffffffffffffffffffffffffffffffffff163073ffffffffffffffffffffffffffffffffffffffff16148015611a6257507f000000000000000000000000000000000000000000000000000000000000000046145b15611a8f577f00000000000000000000000000000000000000000000000000000000000000009050611a9a565b611a97612139565b90505b90565b60006040517f190100000000000000000000000000000000000000000000000000000000000081528360028201528260228201526042812091505092915050565b60008060006041845103611b235760008060006020870151925060408701519150606087015160001a9050611b15888285856121cf565b955095509550505050611b33565b60006002855160001b9250925092505b9250925092565b60006003811115611b4e57611b4d61300b565b5b826003811115611b6157611b6061300b565b5b0315611c9a5760016003811115611b7b57611b7a61300b565b5b826003811115611b8e57611b8d61300b565b5b03611bc5576040517ff645eedf00000000000000000000000000000000000000000000000000000000815260040160405180910390fd5b60026003811115611bd957611bd861300b565b5b826003811115611bec57611beb61300b565b5b03611c31578060001c6040517ffce698f7000000000000000000000000000000000000000000000000000000008152600401611c289190612582565b60405180910390fd5b600380811115611c4457611c4361300b565b5b826003811115611c5757611c5661300b565b5b03611c9957806040517fd78bce0c000000000000000000000000000000000000000000000000000000008152600401611c909190612640565b60405180910390fd5b5b5050565b6000808214159050919050565b6060608073ffffffffffffffffffffffffffffffffffffffff1663a1848ff385611cd486611f10565b85604051602001611ce5919061305b565b6040516020818303038152906040526040518463ffffffff1660e01b8152600401611d1293929190613076565b600060405180830381865afa158015611d2f573d6000803e3d6000fd5b505050506040513d6000823e3d601f19601f82011682018060405250810190611d58919061315c565b90509392505050565b60006060608073ffffffffffffffffffffffffffffffffffffffff166319e1c5c4611d8b86611f10565b856040518363ffffffff1660e01b8152600401611da99291906131a5565b600060405180830381865afa158015611dc6573d6000803e3d6000fd5b505050506040513d6000823e3d601f19601f82011682018060405250810190611def9190613245565b9050611dfa816122c3565b91505092915050565b60006060838388611e1389611f10565b611e1c89611f10565b6040518463ffffffff1660e01b8152600401611e3a93929190613076565b600060405180830381865afa158015611e57573d6000803e3d6000fd5b505050506040513d6000823e3d601f19601f82011682018060405250810190611e809190613245565b9050611e8b816122d1565b91505095945050505050565b6000611ea283611c9e565b611eb357611eb060006116b6565b92505b611ebc82611c9e565b611ecd57611eca60006116b6565b91505b600083905060008390506000611f0260028484608073ffffffffffffffffffffffffffffffffffffffff1663cc2cbeff611e03565b905080935050505092915050565b6060602067ffffffffffffffff811115611f2d57611f2c6127b1565b5b6040519080825280601f01601f191660200182016040528015611f5f5781602001600182028036833780820191505090505b509050816020820152919050565b6000819050919050565b606060ff60001b8314611f9457611f8d836122df565b9050612021565b818054611fa090612e6c565b80601f0160208091040260200160405190810160405280929190818152602001828054611fcc90612e6c565b80156120195780601f10611fee57610100808354040283529160200191612019565b820191906000526020600020905b815481529060010190602001808311611ffc57829003601f168201915b505050505090505b92915050565b600061203283611c9e565b6120435761204060006116b6565b92505b61204c82611c9e565b61205d5761205a60006116b6565b91505b60008390506000839050600061209160028484608073ffffffffffffffffffffffffffffffffffffffff16622df619611e03565b905080935050505092915050565b60006060608073ffffffffffffffffffffffffffffffffffffffff16635fa55ca784866040518363ffffffff1660e01b81526004016120df929190612f99565b600060405180830381865afa1580156120fc573d6000803e3d6000fd5b505050506040513d6000823e3d601f19601f820116820180604052508101906121259190613245565b9050612130816122c3565b91505092915050565b60007f8b73c3c69bb8fe3d512ecc4cf759cc79239f7b179b0ffacaa9a75d522b39400f7f00000000000000000000000000000000000000000000000000000000000000007f000000000000000000000000000000000000000000000000000000000000000046306040516020016121b495949392919061328e565b60405160208183030381529060405280519060200120905090565b60008060007f7fffffffffffffffffffffffffffffff5d576e7357a4501ddfe92f46681b20a08460001c111561220f5760006003859250925092506122b9565b60006001888888886040516000815260200160405260405161223494939291906132e1565b6020604051602081039080840390855afa158015612256573d6000803e3d6000fd5b505050602060405103519050600073ffffffffffffffffffffffffffffffffffffffff168173ffffffffffffffffffffffffffffffffffffffff16036122aa57600060016000801b935093509350506122b9565b8060008060001b935093509350505b9450945094915050565b600060208201519050919050565b600060208201519050919050565b606060006122ec83612353565b90506000602067ffffffffffffffff81111561230b5761230a6127b1565b5b6040519080825280601f01601f19166020018201604052801561233d5781602001600182028036833780820191505090505b5090508181528360208201528092505050919050565b60008060ff8360001c169050601f81111561239a576040517fb3512b0c00000000000000000000000000000000000000000000000000000000815260040160405180910390fd5b80915050919050565b600081519050919050565b600082825260208201905092915050565b60005b838110156123dd5780820151818401526020810190506123c2565b60008484015250505050565b6000601f19601f8301169050919050565b6000612405826123a3565b61240f81856123ae565b935061241f8185602086016123bf565b612428816123e9565b840191505092915050565b6000602082019050818103600083015261244d81846123fa565b905092915050565b6000604051905090565b600080fd5b600080fd5b600073ffffffffffffffffffffffffffffffffffffffff82169050919050565b600061249482612469565b9050919050565b6124a481612489565b81146124af57600080fd5b50565b6000813590506124c18161249b565b92915050565b6000819050919050565b6124da816124c7565b81146124e557600080fd5b50565b6000813590506124f7816124d1565b92915050565b600080604083850312156125145761251361245f565b5b6000612522858286016124b2565b9250506020612533858286016124e8565b9150509250929050565b60008115159050919050565b6125528161253d565b82525050565b600060208201905061256d6000830184612549565b92915050565b61257c816124c7565b82525050565b60006020820190506125976000830184612573565b92915050565b6000806000606084860312156125b6576125b561245f565b5b60006125c4868287016124b2565b93505060206125d5868287016124b2565b92505060406125e6868287016124e8565b9150509250925092565b600060ff82169050919050565b612606816125f0565b82525050565b600060208201905061262160008301846125fd565b92915050565b6000819050919050565b61263a81612627565b82525050565b60006020820190506126556000830184612631565b92915050565b600080fd5b6000602082840312156126765761267561265b565b5b81905092915050565b600080604083850312156126965761269561245f565b5b60006126a4858286016124b2565b925050602083013567ffffffffffffffff8111156126c5576126c4612464565b5b6126d185828601612660565b9150509250929050565b6000819050919050565b60006127006126fb6126f6846124c7565b6126db565b6124c7565b9050919050565b612710816126e5565b82525050565b600060208201905061272b6000830184612707565b92915050565b6000604082840312156127475761274661265b565b5b81905092915050565b600080604083850312156127675761276661245f565b5b6000612775858286016124b2565b925050602083013567ffffffffffffffff81111561279657612795612464565b5b6127a285828601612731565b9150509250929050565b600080fd5b7f4e487b7100000000000000000000000000000000000000000000000000000000600052604160045260246000fd5b6127e9826123e9565b810181811067ffffffffffffffff82111715612808576128076127b1565b5b80604052505050565b600061281b612455565b905061282782826127e0565b919050565b600080fd5b61283a81612627565b811461284557600080fd5b50565b60008135905061285781612831565b92915050565b600080fd5b600080fd5b600067ffffffffffffffff821115612882576128816127b1565b5b61288b826123e9565b9050602081019050919050565b82818337600083830152505050565b60006128ba6128b584612867565b612811565b9050828152602081018484840111156128d6576128d5612862565b5b6128e1848285612898565b509392505050565b600082601f8301126128fe576128fd61285d565b5b813561290e8482602086016128a7565b91505092915050565b60006040828403121561292d5761292c6127ac565b5b6129376040612811565b9050600061294784828501612848565b600083015250602082013567ffffffffffffffff81111561296b5761296a61282c565b5b612977848285016128e9565b60208301525092915050565b6000806040838503121561299a5761299961245f565b5b60006129a8858286016124b2565b925050602083013567ffffffffffffffff8111156129c9576129c8612464565b5b6129d585828601612917565b9150509250929050565b600063ffffffff82169050919050565b6129f8816129df565b8114612a0357600080fd5b50565b600081359050612a15816129ef565b92915050565b600060208284031215612a3157612a3061245f565b5b6000612a3f84828501612a06565b91505092915050565b600060208284031215612a5e57612a5d61245f565b5b6000612a6c848285016124b2565b91505092915050565b60007fff0000000000000000000000000000000000000000000000000000000000000082169050919050565b612aaa81612a75565b82525050565b612ab981612489565b82525050565b600081519050919050565b600082825260208201905092915050565b6000819050602082019050919050565b612af4816124c7565b82525050565b6000612b068383612aeb565b60208301905092915050565b6000602082019050919050565b6000612b2a82612abf565b612b348185612aca565b9350612b3f83612adb565b8060005b83811015612b70578151612b578882612afa565b9750612b6283612b12565b925050600181019050612b43565b5085935050505092915050565b600060e082019050612b92600083018a612aa1565b8181036020830152612ba481896123fa565b90508181036040830152612bb881886123fa565b9050612bc76060830187612573565b612bd46080830186612ab0565b612be160a0830185612631565b81810360c0830152612bf38184612b1f565b905098975050505050505050565b600080600060608486031215612c1a57612c1961245f565b5b6000612c28868287016124b2565b9350506020612c39868287016124b2565b925050604084013567ffffffffffffffff811115612c5a57612c59612464565b5b612c6686828701612660565b9150509250925092565b612c79816124c7565b8114612c8457600080fd5b50565b600081359050612c9681612c70565b92915050565b600080600060608486031215612cb557612cb461245f565b5b6000612cc3868287016124b2565b9350506020612cd4868287016124b2565b9250506040612ce586828701612c87565b9150509250925092565b60008060408385031215612d0657612d0561245f565b5b6000612d14858286016124b2565b9250506020612d2585828601612c87565b9150509250929050565b612d38816125f0565b8114612d4357600080fd5b50565b600081359050612d5581612d2f565b92915050565b600080600080600080600060e0888a031215612d7a57612d7961245f565b5b6000612d888a828b016124b2565b9750506020612d998a828b016124b2565b9650506040612daa8a828b016124e8565b9550506060612dbb8a828b016124e8565b9450506080612dcc8a828b01612d46565b93505060a0612ddd8a828b01612848565b92505060c0612dee8a828b01612848565b91505092959891949750929550565b60008060408385031215612e1457612e1361245f565b5b6000612e22858286016124b2565b9250506020612e33858286016124b2565b9150509250929050565b7f4e487b7100000000000000000000000000000000000000000000000000000000600052602260045260246000fd5b60006002820490506001821680612e8457607f821691505b602082108103612e9757612e96612e3d565b5b50919050565b600060208284031215612eb357612eb26127ac565b5b612ebd6020612811565b9050600082013567ffffffffffffffff811115612edd57612edc61282c565b5b612ee9848285016128e9565b60008301525092915050565b6000612f013683612e9d565b9050919050565b6000612f143683612917565b9050919050565b6000604082019050612f306000830185612631565b612f3d6020830184612631565b9392505050565b600081519050919050565b600082825260208201905092915050565b6000612f6b82612f44565b612f758185612f4f565b9350612f858185602086016123bf565b612f8e816123e9565b840191505092915050565b6000604082019050612fae60008301856125fd565b8181036020830152612fc08184612f60565b90509392505050565b600081519050612fd8816124d1565b92915050565b600060208284031215612ff457612ff361245f565b5b600061300284828501612fc9565b91505092915050565b7f4e487b7100000000000000000000000000000000000000000000000000000000600052602160045260246000fd5b6000819050919050565b61305561305082612627565b61303a565b82525050565b60006130678284613044565b60208201915081905092915050565b600060608201905061308b60008301866125fd565b818103602083015261309d8185612f60565b905081810360408301526130b18184612f60565b9050949350505050565b600067ffffffffffffffff8211156130d6576130d56127b1565b5b6130df826123e9565b9050602081019050919050565b60006130ff6130fa846130bb565b612811565b90508281526020810184848401111561311b5761311a612862565b5b6131268482856123bf565b509392505050565b600082601f8301126131435761314261285d565b5b81516131538482602086016130ec565b91505092915050565b6000602082840312156131725761317161245f565b5b600082015167ffffffffffffffff8111156131905761318f612464565b5b61319c8482850161312e565b91505092915050565b600060408201905081810360008301526131bf8185612f60565b90506131ce60208301846125fd565b9392505050565b60006131e86131e384612867565b612811565b90508281526020810184848401111561320457613203612862565b5b61320f8482856123bf565b509392505050565b600082601f83011261322c5761322b61285d565b5b815161323c8482602086016131d5565b91505092915050565b60006020828403121561325b5761325a61245f565b5b600082015167ffffffffffffffff81111561327957613278612464565b5b61328584828501613217565b91505092915050565b600060a0820190506132a36000830188612631565b6132b06020830187612631565b6132bd6040830186612631565b6132ca6060830185612573565b6132d76080830184612ab0565b9695505050505050565b60006080820190506132f66000830187612631565b61330360208301866125fd565b6133106040830185612631565b61331d6060830184612631565b9594505050505056fea26469706673582212203ee1da1627c2f718007ad9ac1200322dba5c5566775b546c7c5441df94e3bf4164736f6c63430008180033",
  "devdoc": {
    "errors": {
      "AllowanceOverflow()": [
        {
          "details": "The allowance has overflowed."
        }
      ],
      "AllowanceUnderflow()": [
        {
          "details": "The allowance has underflowed."
        }
      ],
      "ECDSAInvalidSignature()": [
        {
          "details": "The signature derives the `address(0)`."
        }
      ],
      "ECDSAInvalidSignatureLength(uint256)": [
        {
          "details": "The signature has an invalid length."
        }
      ],
      "ECDSAInvalidSignatureS(bytes32)": [
        {
          "details": "The signature has an S value that is in the upper half order."
        }
      ],
      "InsufficientAllowance()": [
        {
          "details": "Insufficient allowance."
        }
      ],
      "InsufficientBalance()": [
        {
          "details": "Insufficient balance."
        }
      ],
      "InvalidPermit()": [
        {
          "details": "The permit is invalid."
        }
      ],
      "PermitExpired()": [
        {
          "details": "The permit has expired."
        }
      ],
      "TotalSupplyOverflow()": [
        {
          "details": "The total supply has overflowed."
        }
      ]
    },
    "events": {
      "Approval(address,address,uint256)": {
        "details": "Emitted when `amount` tokens is approved by `owner` to be used by `spender`."
      },
      "ApprovalEncrypted(address,address)": {
        "details": "Emitted when the allowance of a `spender` for an `owner` is set by a call to {approveEncrypted}. `value` is the new allowance."
      },
      "EIP712DomainChanged()": {
        "details": "MAY be emitted to signal that the domain could have changed."
      },
      "Transfer(address,address,uint256)": {
        "details": "Emitted when `amount` tokens is transferred from `from` to `to`."
      },
      "TransferEncrypted(address,address)": {
        "details": "Emitted when `value` tokens are moved from one account (`from`) to another (`to`). Note that `value` may be zero."
      }
    },
    "kind": "dev",
    "methods": {
      "DOMAIN_SEPARATOR()": {
        "details": "Returns the EIP-712 domain separator for the EIP-2612 permit."
      },
      "allowance(address,address)": {
        "details": "Returns the amount of tokens that `spender` can spend on behalf of `owner`."
      },
      "allowanceEncrypted(address,(bytes32,bytes))": {
        "details": "Returns the remaining number of tokens that `spender` will be allowed to spend on behalf of `owner` through {transferFrom}. This is zero by default. This value changes when {approve} or {transferFrom} are called."
      },
      "approve(address,uint256)": {
        "details": "Sets `amount` as the allowance of `spender` over the caller's tokens. Emits a {Approval} event."
      },
      "approveEncrypted(address,(bytes))": {
        "details": "Sets a `value` amount of tokens as the allowance of `spender` over the caller's tokens. Returns a boolean value indicating whether the operation succeeded. IMPORTANT: Beware that changing an allowance with this method brings the risk that someone may use both the old and the new allowance by unfortunate transaction ordering. One possible solution to mitigate this race condition is to first reduce the spender's allowance to 0 and set the desired value afterwards: https://github.com/ethereum/EIPs/issues/20#issuecomment-263524729 Emits an {ApprovalEncrypted} event."
      },
      "balanceOf(address)": {
        "details": "Returns the amount of tokens owned by `owner`."
      },
      "balanceOfEncrypted(address,(bytes32,bytes))": {
        "details": "Returns the value of tokens owned by `account`, sealed and encrypted for the caller."
      },
      "decimals()": {
        "details": "Returns the decimals places of the token."
      },
      "eip712Domain()": {
        "details": "See {IERC-5267}."
      },
      "name()": {
        "details": "Returns the name of the token."
      },
      "nonces(address)": {
        "details": "Returns the current nonce for `owner`. This value is used to compute the signature for EIP-2612 permit."
      },
      "permit(address,address,uint256,uint256,uint8,bytes32,bytes32)": {
        "details": "Sets `value` as the allowance of `spender` over the tokens of `owner`, authorized by a signed approval by `owner`. Emits a {Approval} event."
      },
      "symbol()": {
        "details": "Returns the symbol of the token."
      },
      "totalSupply()": {
        "details": "Returns the amount of tokens in existence."
      },
      "transfer(address,uint256)": {
        "details": "Transfer `amount` tokens from the caller to `to`. Requirements: - `from` must at least have `amount`. Emits a {Transfer} event."
      },
      "transferFrom(address,address,uint256)": {
        "details": "Transfers `amount` tokens from `from` to `to`. Note: Does not update the allowance if it is the maximum uint256 value. Requirements: - `from` must at least have `amount`. - The caller must have at least `amount` of allowance to transfer the tokens of `from`. Emits a {Transfer} event."
      },
      "transferFromEncrypted(address,address,(bytes))": {
        "details": "Moves a `value` amount of tokens from `from` to `to` using the allowance mechanism. `value` is then deducted from the caller's allowance. Returns a boolean value indicating whether the operation succeeded. Emits a {TransferEncrypted} event."
      }
    },
    "version": 1
  },
  "userdoc": {
    "errors": {
      "SignerNotMessageSender()": [
        {
          "notice": "Emitted when the signer is not the message sender"
        }
      ],
      "SignerNotOwner()": [
        {
          "notice": "Emitted when the signer is not the specified owner"
        }
      ]
    },
    "kind": "user",
    "methods": {},
    "version": 1
  },
  "storageLayout": {
    "storage": [
      {
        "astId": 16568,
        "contract": "contracts/tokens/FakeUSD.sol:FakeUSD",
        "label": "_nameFallback",
        "offset": 0,
        "slot": "0",
        "type": "t_string_storage"
      },
      {
        "astId": 16570,
        "contract": "contracts/tokens/FakeUSD.sol:FakeUSD",
        "label": "_versionFallback",
        "offset": 0,
        "slot": "1",
        "type": "t_string_storage"
      },
      {
        "astId": 20527,
        "contract": "contracts/tokens/FakeUSD.sol:FakeUSD",
        "label": "_encTotalSupply",
        "offset": 0,
        "slot": "2",
        "type": "t_userDefinedValueType(euint32)12"
      },
      {
        "astId": 20532,
        "contract": "contracts/tokens/FakeUSD.sol:FakeUSD",
        "label": "_encBalanceOf",
        "offset": 0,
        "slot": "3",
        "type": "t_mapping(t_address,t_userDefinedValueType(euint32)12)"
      },
      {
        "astId": 20539,
        "contract": "contracts/tokens/FakeUSD.sol:FakeUSD",
        "label": "_encAllowance",
        "offset": 0,
        "slot": "4",
        "type": "t_mapping(t_address,t_mapping(t_address,t_userDefinedValueType(euint32)12))"
      },
      {
        "astId": 20541,
        "contract": "contracts/tokens/FakeUSD.sol:FakeUSD",
        "label": "_name",
        "offset": 0,
        "slot": "5",
        "type": "t_string_storage"
      },
      {
        "astId": 20543,
        "contract": "contracts/tokens/FakeUSD.sol:FakeUSD",
        "label": "_symbol",
        "offset": 0,
        "slot": "6",
        "type": "t_string_storage"
      }
    ],
    "types": {
      "t_address": {
        "encoding": "inplace",
        "label": "address",
        "numberOfBytes": "20"
      },
      "t_mapping(t_address,t_mapping(t_address,t_userDefinedValueType(euint32)12))": {
        "encoding": "mapping",
        "key": "t_address",
        "label": "mapping(address => mapping(address => euint32))",
        "numberOfBytes": "32",
        "value": "t_mapping(t_address,t_userDefinedValueType(euint32)12)"
      },
      "t_mapping(t_address,t_userDefinedValueType(euint32)12)": {
        "encoding": "mapping",
        "key": "t_address",
        "label": "mapping(address => euint32)",
        "numberOfBytes": "32",
        "value": "t_userDefinedValueType(euint32)12"
      },
      "t_string_storage": {
        "encoding": "bytes",
        "label": "string",
        "numberOfBytes": "32"
      },
      "t_userDefinedValueType(euint32)12": {
        "encoding": "inplace",
        "label": "euint32",
        "numberOfBytes": "32"
      }
    }
  }
}