{
  "address": "0x094466953cb0AAEd237db2DE3207d4E40799aD80",
  "abi": [
    {
      "inputs": [
        {
          "components": [
            {
              "internalType": "bytes",
              "name": "data",
              "type": "bytes"
            }
          ],
          "internalType": "struct inEuint32",
          "name": "_initialSupply",
          "type": "tuple"
        }
      ],
      "stateMutability": "nonpayable",
      "type": "constructor"
    },
    {
      "inputs": [],
      "name": "AllowanceOverflow",
      "type": "error"
    },
    {
      "inputs": [],
      "name": "AllowanceUnderflow",
      "type": "error"
    },
    {
      "inputs": [],
      "name": "ECDSAInvalidSignature",
      "type": "error"
    },
    {
      "inputs": [
        {
          "internalType": "uint256",
          "name": "length",
          "type": "uint256"
        }
      ],
      "name": "ECDSAInvalidSignatureLength",
      "type": "error"
    },
    {
      "inputs": [
        {
          "internalType": "bytes32",
          "name": "s",
          "type": "bytes32"
        }
      ],
      "name": "ECDSAInvalidSignatureS",
      "type": "error"
    },
    {
      "inputs": [],
      "name": "ErrorInsufficientFunds",
      "type": "error"
    },
    {
      "inputs": [],
      "name": "InsufficientAllowance",
      "type": "error"
    },
    {
      "inputs": [],
      "name": "InsufficientBalance",
      "type": "error"
    },
    {
      "inputs": [],
      "name": "InvalidPermit",
      "type": "error"
    },
    {
      "inputs": [],
      "name": "InvalidShortString",
      "type": "error"
    },
    {
      "inputs": [],
      "name": "PermitExpired",
      "type": "error"
    },
    {
      "inputs": [],
      "name": "SignerNotMessageSender",
      "type": "error"
    },
    {
      "inputs": [],
      "name": "SignerNotOwner",
      "type": "error"
    },
    {
      "inputs": [
        {
          "internalType": "string",
          "name": "str",
          "type": "string"
        }
      ],
      "name": "StringTooLong",
      "type": "error"
    },
    {
      "inputs": [],
      "name": "TotalSupplyOverflow",
      "type": "error"
    },
    {
      "anonymous": false,
      "inputs": [
        {
          "indexed": true,
          "internalType": "address",
          "name": "owner",
          "type": "address"
        },
        {
          "indexed": true,
          "internalType": "address",
          "name": "spender",
          "type": "address"
        },
        {
          "indexed": false,
          "internalType": "uint256",
          "name": "amount",
          "type": "uint256"
        }
      ],
      "name": "Approval",
      "type": "event"
    },
    {
      "anonymous": false,
      "inputs": [
        {
          "indexed": true,
          "internalType": "address",
          "name": "owner",
          "type": "address"
        },
        {
          "indexed": true,
          "internalType": "address",
          "name": "spender",
          "type": "address"
        }
      ],
      "name": "ApprovalEncrypted",
      "type": "event"
    },
    {
      "anonymous": false,
      "inputs": [],
      "name": "EIP712DomainChanged",
      "type": "event"
    },
    {
      "anonymous": false,
      "inputs": [
        {
          "indexed": true,
          "internalType": "address",
          "name": "from",
          "type": "address"
        },
        {
          "indexed": true,
          "internalType": "address",
          "name": "to",
          "type": "address"
        },
        {
          "indexed": false,
          "internalType": "uint256",
          "name": "amount",
          "type": "uint256"
        }
      ],
      "name": "Transfer",
      "type": "event"
    },
    {
      "anonymous": false,
      "inputs": [
        {
          "indexed": true,
          "internalType": "address",
          "name": "from",
          "type": "address"
        },
        {
          "indexed": true,
          "internalType": "address",
          "name": "to",
          "type": "address"
        }
      ],
      "name": "TransferEncrypted",
      "type": "event"
    },
    {
      "inputs": [],
      "name": "DOMAIN_SEPARATOR",
      "outputs": [
        {
          "internalType": "bytes32",
          "name": "result",
          "type": "bytes32"
        }
      ],
      "stateMutability": "view",
      "type": "function"
    },
    {
      "inputs": [
        {
          "internalType": "address",
          "name": "owner",
          "type": "address"
        },
        {
          "internalType": "address",
          "name": "spender",
          "type": "address"
        }
      ],
      "name": "allowance",
      "outputs": [
        {
          "internalType": "uint256",
          "name": "result",
          "type": "uint256"
        }
      ],
      "stateMutability": "view",
      "type": "function"
    },
    {
      "inputs": [
        {
          "internalType": "address",
          "name": "spender",
          "type": "address"
        },
        {
          "components": [
            {
              "internalType": "bytes32",
              "name": "publicKey",
              "type": "bytes32"
            },
            {
              "internalType": "bytes",
              "name": "signature",
              "type": "bytes"
            }
          ],
          "internalType": "struct Permission",
          "name": "permission",
          "type": "tuple"
        }
      ],
      "name": "allowanceEncrypted",
      "outputs": [
        {
          "internalType": "string",
          "name": "",
          "type": "string"
        }
      ],
      "stateMutability": "view",
      "type": "function"
    },
    {
      "inputs": [
        {
          "internalType": "address",
          "name": "spender",
          "type": "address"
        },
        {
          "internalType": "uint256",
          "name": "amount",
          "type": "uint256"
        }
      ],
      "name": "approve",
      "outputs": [
        {
          "internalType": "bool",
          "name": "",
          "type": "bool"
        }
      ],
      "stateMutability": "nonpayable",
      "type": "function"
    },
    {
      "inputs": [
        {
          "internalType": "address",
          "name": "spender",
          "type": "address"
        },
        {
          "components": [
            {
              "internalType": "bytes",
              "name": "data",
              "type": "bytes"
            }
          ],
          "internalType": "struct inEuint32",
          "name": "value",
          "type": "tuple"
        }
      ],
      "name": "approveEncrypted",
      "outputs": [
        {
          "internalType": "bool",
          "name": "",
          "type": "bool"
        }
      ],
      "stateMutability": "nonpayable",
      "type": "function"
    },
    {
      "inputs": [
        {
          "internalType": "address",
          "name": "owner",
          "type": "address"
        }
      ],
      "name": "balanceOf",
      "outputs": [
        {
          "internalType": "uint256",
          "name": "result",
          "type": "uint256"
        }
      ],
      "stateMutability": "view",
      "type": "function"
    },
    {
      "inputs": [
        {
          "internalType": "address",
          "name": "account",
          "type": "address"
        },
        {
          "components": [
            {
              "internalType": "bytes32",
              "name": "publicKey",
              "type": "bytes32"
            },
            {
              "internalType": "bytes",
              "name": "signature",
              "type": "bytes"
            }
          ],
          "internalType": "struct Permission",
          "name": "auth",
          "type": "tuple"
        }
      ],
      "name": "balanceOfEncrypted",
      "outputs": [
        {
          "internalType": "string",
          "name": "",
          "type": "string"
        }
      ],
      "stateMutability": "view",
      "type": "function"
    },
    {
      "inputs": [],
      "name": "decimals",
      "outputs": [
        {
          "internalType": "uint8",
          "name": "",
          "type": "uint8"
        }
      ],
      "stateMutability": "pure",
      "type": "function"
    },
    {
      "inputs": [],
      "name": "eip712Domain",
      "outputs": [
        {
          "internalType": "bytes1",
          "name": "fields",
          "type": "bytes1"
        },
        {
          "internalType": "string",
          "name": "name",
          "type": "string"
        },
        {
          "internalType": "string",
          "name": "version",
          "type": "string"
        },
        {
          "internalType": "uint256",
          "name": "chainId",
          "type": "uint256"
        },
        {
          "internalType": "address",
          "name": "verifyingContract",
          "type": "address"
        },
        {
          "internalType": "bytes32",
          "name": "salt",
          "type": "bytes32"
        },
        {
          "internalType": "uint256[]",
          "name": "extensions",
          "type": "uint256[]"
        }
      ],
      "stateMutability": "view",
      "type": "function"
    },
    {
      "inputs": [],
      "name": "name",
      "outputs": [
        {
          "internalType": "string",
          "name": "",
          "type": "string"
        }
      ],
      "stateMutability": "view",
      "type": "function"
    },
    {
      "inputs": [
        {
          "internalType": "address",
          "name": "owner",
          "type": "address"
        }
      ],
      "name": "nonces",
      "outputs": [
        {
          "internalType": "uint256",
          "name": "result",
          "type": "uint256"
        }
      ],
      "stateMutability": "view",
      "type": "function"
    },
    {
      "inputs": [
        {
          "internalType": "address",
          "name": "owner",
          "type": "address"
        },
        {
          "internalType": "address",
          "name": "spender",
          "type": "address"
        },
        {
          "internalType": "uint256",
          "name": "value",
          "type": "uint256"
        },
        {
          "internalType": "uint256",
          "name": "deadline",
          "type": "uint256"
        },
        {
          "internalType": "uint8",
          "name": "v",
          "type": "uint8"
        },
        {
          "internalType": "bytes32",
          "name": "r",
          "type": "bytes32"
        },
        {
          "internalType": "bytes32",
          "name": "s",
          "type": "bytes32"
        }
      ],
      "name": "permit",
      "outputs": [],
      "stateMutability": "nonpayable",
      "type": "function"
    },
    {
      "inputs": [],
      "name": "symbol",
      "outputs": [
        {
          "internalType": "string",
          "name": "",
          "type": "string"
        }
      ],
      "stateMutability": "view",
      "type": "function"
    },
    {
      "inputs": [],
      "name": "totalSupply",
      "outputs": [
        {
          "internalType": "uint256",
          "name": "result",
          "type": "uint256"
        }
      ],
      "stateMutability": "view",
      "type": "function"
    },
    {
      "inputs": [
        {
          "internalType": "address",
          "name": "to",
          "type": "address"
        },
        {
          "internalType": "uint256",
          "name": "amount",
          "type": "uint256"
        }
      ],
      "name": "transfer",
      "outputs": [
        {
          "internalType": "bool",
          "name": "",
          "type": "bool"
        }
      ],
      "stateMutability": "nonpayable",
      "type": "function"
    },
    {
      "inputs": [
        {
          "internalType": "address",
          "name": "to",
          "type": "address"
        },
        {
          "components": [
            {
              "internalType": "bytes",
              "name": "data",
              "type": "bytes"
            }
          ],
          "internalType": "struct inEuint32",
          "name": "encryptedAmount",
          "type": "tuple"
        }
      ],
      "name": "transferEncrypted",
      "outputs": [
        {
          "internalType": "euint32",
          "name": "",
          "type": "uint256"
        }
      ],
      "stateMutability": "nonpayable",
      "type": "function"
    },
    {
      "inputs": [
        {
          "internalType": "address",
          "name": "to",
          "type": "address"
        },
        {
          "internalType": "euint32",
          "name": "amount",
          "type": "uint256"
        }
      ],
      "name": "transferEncrypted",
      "outputs": [
        {
          "internalType": "euint32",
          "name": "",
          "type": "uint256"
        }
      ],
      "stateMutability": "nonpayable",
      "type": "function"
    },
    {
      "inputs": [
        {
          "internalType": "address",
          "name": "from",
          "type": "address"
        },
        {
          "internalType": "address",
          "name": "to",
          "type": "address"
        },
        {
          "internalType": "uint256",
          "name": "amount",
          "type": "uint256"
        }
      ],
      "name": "transferFrom",
      "outputs": [
        {
          "internalType": "bool",
          "name": "",
          "type": "bool"
        }
      ],
      "stateMutability": "nonpayable",
      "type": "function"
    },
    {
      "inputs": [
        {
          "internalType": "address",
          "name": "from",
          "type": "address"
        },
        {
          "internalType": "address",
          "name": "to",
          "type": "address"
        },
        {
          "components": [
            {
              "internalType": "bytes",
              "name": "data",
              "type": "bytes"
            }
          ],
          "internalType": "struct inEuint32",
          "name": "value",
          "type": "tuple"
        }
      ],
      "name": "transferFromEncrypted",
      "outputs": [
        {
          "internalType": "euint32",
          "name": "",
          "type": "uint256"
        }
      ],
      "stateMutability": "nonpayable",
      "type": "function"
    },
    {
      "inputs": [
        {
          "internalType": "address",
          "name": "from",
          "type": "address"
        },
        {
          "internalType": "address",
          "name": "to",
          "type": "address"
        },
        {
          "internalType": "euint32",
          "name": "value",
          "type": "uint256"
        }
      ],
      "name": "transferFromEncrypted",
      "outputs": [
        {
          "internalType": "euint32",
          "name": "",
          "type": "uint256"
        }
      ],
      "stateMutability": "nonpayable",
      "type": "function"
    },
    {
      "inputs": [
        {
          "internalType": "uint32",
          "name": "amount",
          "type": "uint32"
        }
      ],
      "name": "unwrap",
      "outputs": [],
      "stateMutability": "nonpayable",
      "type": "function"
    },
    {
      "inputs": [
        {
          "internalType": "uint32",
          "name": "amount",
          "type": "uint32"
        }
      ],
      "name": "wrap",
      "outputs": [],
      "stateMutability": "nonpayable",
      "type": "function"
    }
  ],
  "transactionHash": "0x5432482aab71cd3334685ba946998bd31057bfca9f2fcbd19464fbbf5d2c6775",
  "args": [
    {
      "data": {
        "0": 16,
        "1": 8,
        "2": 0,
        "3": 0,
        "4": 0,
        "5": 0,
        "6": 0,
        "7": 0,
        "8": 214,
        "9": 75,
        "10": 204,
        "11": 51,
        "12": 84,
        "13": 198,
        "14": 161,
        "15": 232,
        "16": 99,
        "17": 193,
        "18": 216,
        "19": 224,
        "20": 225,
        "21": 234,
        "22": 70,
        "23": 65,
        "24": 168,
        "25": 68,
        "26": 213,
        "27": 46,
        "28": 167,
        "29": 59,
        "30": 19,
        "31": 142,
        "32": 82,
        "33": 154,
        "34": 52,
        "35": 62,
        "36": 116,
        "37": 168,
        "38": 74,
        "39": 249,
        "40": 81,
        "41": 113,
        "42": 18,
        "43": 161,
        "44": 158,
        "45": 204,
        "46": 178,
        "47": 177,
        "48": 165,
        "49": 135,
        "50": 211,
        "51": 232,
        "52": 97,
        "53": 125,
        "54": 177,
        "55": 163,
        "56": 99,
        "57": 206,
        "58": 193,
        "59": 245,
        "60": 251,
        "61": 178,
        "62": 206,
        "63": 69,
        "64": 3,
        "65": 182,
        "66": 127,
        "67": 37,
        "68": 191,
        "69": 233,
        "70": 224,
        "71": 135,
        "72": 218,
        "73": 85,
        "74": 182,
        "75": 128,
        "76": 243,
        "77": 33,
        "78": 250,
        "79": 108,
        "80": 29,
        "81": 75,
        "82": 17,
        "83": 203,
        "84": 44,
        "85": 221,
        "86": 237,
        "87": 25,
        "88": 20,
        "89": 217,
        "90": 200,
        "91": 91,
        "92": 67,
        "93": 252,
        "94": 71,
        "95": 4,
        "96": 106,
        "97": 54,
        "98": 69,
        "99": 13,
        "100": 99,
        "101": 251,
        "102": 205,
        "103": 11,
        "104": 5,
        "105": 197,
        "106": 81,
        "107": 202,
        "108": 96,
        "109": 170,
        "110": 162,
        "111": 176,
        "112": 12,
        "113": 96,
        "114": 88,
        "115": 174,
        "116": 170,
        "117": 115,
        "118": 135,
        "119": 33,
        "120": 18,
        "121": 245,
        "122": 168,
        "123": 171,
        "124": 107,
        "125": 205,
        "126": 128,
        "127": 11,
        "128": 128,
        "129": 4,
        "130": 8,
        "131": 50,
        "132": 94,
        "133": 186,
        "134": 166,
        "135": 78,
        "136": 27,
        "137": 135,
        "138": 206,
        "139": 211,
        "140": 78,
        "141": 122,
        "142": 183,
        "143": 220,
        "144": 91,
        "145": 224,
        "146": 35,
        "147": 97,
        "148": 253,
        "149": 110,
        "150": 101,
        "151": 32,
        "152": 232,
        "153": 47,
        "154": 137,
        "155": 176,
        "156": 96,
        "157": 163,
        "158": 48,
        "159": 247,
        "160": 97,
        "161": 11,
        "162": 73,
        "163": 49,
        "164": 247,
        "165": 119,
        "166": 73,
        "167": 193,
        "168": 165,
        "169": 117,
        "170": 91,
        "171": 223,
        "172": 17,
        "173": 61,
        "174": 222,
        "175": 45,
        "176": 37,
        "177": 13,
        "178": 84,
        "179": 128,
        "180": 83,
        "181": 5,
        "182": 95,
        "183": 105,
        "184": 98,
        "185": 73,
        "186": 140,
        "187": 90,
        "188": 55,
        "189": 29,
        "190": 63,
        "191": 72,
        "192": 97,
        "193": 252,
        "194": 67,
        "195": 40,
        "196": 202,
        "197": 143,
        "198": 195,
        "199": 3,
        "200": 55,
        "201": 70,
        "202": 209,
        "203": 14,
        "204": 218,
        "205": 112,
        "206": 13,
        "207": 171,
        "208": 43,
        "209": 251,
        "210": 244,
        "211": 18,
        "212": 245,
        "213": 36,
        "214": 70,
        "215": 123,
        "216": 179,
        "217": 96,
        "218": 99,
        "219": 252,
        "220": 135,
        "221": 0,
        "222": 240,
        "223": 154,
        "224": 219,
        "225": 224,
        "226": 220,
        "227": 191,
        "228": 62,
        "229": 77,
        "230": 167,
        "231": 126,
        "232": 118,
        "233": 200,
        "234": 158,
        "235": 250,
        "236": 164,
        "237": 254,
        "238": 124,
        "239": 104,
        "240": 143,
        "241": 30,
        "242": 62,
        "243": 187,
        "244": 122,
        "245": 220,
        "246": 186,
        "247": 38,
        "248": 157,
        "249": 239,
        "250": 170,
        "251": 252,
        "252": 54,
        "253": 249,
        "254": 107,
        "255": 75,
        "256": 99,
        "257": 255,
        "258": 227,
        "259": 201,
        "260": 82,
        "261": 100,
        "262": 4,
        "263": 224,
        "264": 178,
        "265": 221,
        "266": 225,
        "267": 227,
        "268": 138,
        "269": 189,
        "270": 161,
        "271": 219,
        "272": 18,
        "273": 188,
        "274": 236,
        "275": 10,
        "276": 231,
        "277": 129,
        "278": 239,
        "279": 230,
        "280": 238,
        "281": 139,
        "282": 147,
        "283": 33,
        "284": 247,
        "285": 222,
        "286": 46,
        "287": 118,
        "288": 224,
        "289": 142,
        "290": 213,
        "291": 174,
        "292": 51,
        "293": 87,
        "294": 193,
        "295": 254,
        "296": 225,
        "297": 158,
        "298": 166,
        "299": 129,
        "300": 10,
        "301": 199,
        "302": 211,
        "303": 96,
        "304": 137,
        "305": 176,
        "306": 235,
        "307": 164,
        "308": 34,
        "309": 109,
        "310": 82,
        "311": 59,
        "312": 184,
        "313": 49,
        "314": 139,
        "315": 106,
        "316": 158,
        "317": 82,
        "318": 110,
        "319": 208,
        "320": 235,
        "321": 82,
        "322": 210,
        "323": 222,
        "324": 98,
        "325": 4,
        "326": 14,
        "327": 55,
        "328": 229,
        "329": 123,
        "330": 185,
        "331": 11,
        "332": 242,
        "333": 232,
        "334": 158,
        "335": 251,
        "336": 40,
        "337": 225,
        "338": 13,
        "339": 61,
        "340": 100,
        "341": 46,
        "342": 40,
        "343": 224,
        "344": 112,
        "345": 93,
        "346": 203,
        "347": 139,
        "348": 145,
        "349": 190,
        "350": 218,
        "351": 252,
        "352": 205,
        "353": 182,
        "354": 112,
        "355": 85,
        "356": 8,
        "357": 132,
        "358": 35,
        "359": 47,
        "360": 61,
        "361": 82,
        "362": 173,
        "363": 39,
        "364": 121,
        "365": 46,
        "366": 148,
        "367": 68,
        "368": 21,
        "369": 160,
        "370": 216,
        "371": 229,
        "372": 88,
        "373": 76,
        "374": 213,
        "375": 56,
        "376": 184,
        "377": 114,
        "378": 135,
        "379": 64,
        "380": 45,
        "381": 158,
        "382": 84,
        "383": 76,
        "384": 189,
        "385": 92,
        "386": 35,
        "387": 39,
        "388": 183,
        "389": 227,
        "390": 184,
        "391": 213,
        "392": 113,
        "393": 130,
        "394": 236,
        "395": 253,
        "396": 253,
        "397": 70,
        "398": 78,
        "399": 99,
        "400": 134,
        "401": 25,
        "402": 175,
        "403": 87,
        "404": 136,
        "405": 1,
        "406": 129,
        "407": 234,
        "408": 75,
        "409": 102,
        "410": 159,
        "411": 187,
        "412": 167,
        "413": 108,
        "414": 140,
        "415": 198,
        "416": 81,
        "417": 162,
        "418": 86,
        "419": 254,
        "420": 208,
        "421": 250,
        "422": 167,
        "423": 74,
        "424": 159,
        "425": 16,
        "426": 247,
        "427": 35,
        "428": 147,
        "429": 201,
        "430": 70,
        "431": 228,
        "432": 45,
        "433": 61,
        "434": 114,
        "435": 160,
        "436": 90,
        "437": 107,
        "438": 187,
        "439": 51,
        "440": 226,
        "441": 159,
        "442": 57,
        "443": 38,
        "444": 135,
        "445": 136,
        "446": 243,
        "447": 68,
        "448": 246,
        "449": 12,
        "450": 228,
        "451": 8,
        "452": 187,
        "453": 211,
        "454": 68,
        "455": 156,
        "456": 139,
        "457": 46,
        "458": 241,
        "459": 12,
        "460": 235,
        "461": 178,
        "462": 153,
        "463": 202,
        "464": 81,
        "465": 233,
        "466": 78,
        "467": 206,
        "468": 10,
        "469": 112,
        "470": 169,
        "471": 220,
        "472": 10,
        "473": 209,
        "474": 200,
        "475": 194,
        "476": 163,
        "477": 158,
        "478": 46,
        "479": 189,
        "480": 3,
        "481": 97,
        "482": 209,
        "483": 241,
        "484": 183,
        "485": 57,
        "486": 28,
        "487": 236,
        "488": 231,
        "489": 107,
        "490": 33,
        "491": 253,
        "492": 36,
        "493": 162,
        "494": 251,
        "495": 166,
        "496": 22,
        "497": 32,
        "498": 180,
        "499": 243,
        "500": 50,
        "501": 140,
        "502": 23,
        "503": 194,
        "504": 44,
        "505": 198,
        "506": 192,
        "507": 187,
        "508": 175,
        "509": 228,
        "510": 50,
        "511": 220,
        "512": 180,
        "513": 85,
        "514": 200,
        "515": 16,
        "516": 204,
        "517": 214,
        "518": 174,
        "519": 244,
        "520": 44,
        "521": 102,
        "522": 120,
        "523": 127,
        "524": 51,
        "525": 182,
        "526": 121,
        "527": 82,
        "528": 38,
        "529": 157,
        "530": 80,
        "531": 174,
        "532": 150,
        "533": 120,
        "534": 229,
        "535": 55,
        "536": 227,
        "537": 153,
        "538": 229,
        "539": 18,
        "540": 55,
        "541": 191,
        "542": 188,
        "543": 221,
        "544": 158,
        "545": 39,
        "546": 49,
        "547": 148,
        "548": 150,
        "549": 222,
        "550": 56,
        "551": 211,
        "552": 184,
        "553": 42,
        "554": 247,
        "555": 206,
        "556": 255,
        "557": 227,
        "558": 25,
        "559": 53,
        "560": 193,
        "561": 45,
        "562": 185,
        "563": 36,
        "564": 177,
        "565": 86,
        "566": 141,
        "567": 45,
        "568": 20,
        "569": 207,
        "570": 189,
        "571": 140,
        "572": 203,
        "573": 41,
        "574": 109,
        "575": 191,
        "576": 105,
        "577": 9,
        "578": 20,
        "579": 111,
        "580": 151,
        "581": 216,
        "582": 133,
        "583": 5,
        "584": 246,
        "585": 24,
        "586": 13,
        "587": 29,
        "588": 47,
        "589": 91,
        "590": 170,
        "591": 205,
        "592": 6,
        "593": 201,
        "594": 61,
        "595": 56,
        "596": 180,
        "597": 24,
        "598": 197,
        "599": 1,
        "600": 22,
        "601": 103,
        "602": 57,
        "603": 254,
        "604": 225,
        "605": 194,
        "606": 151,
        "607": 155,
        "608": 50,
        "609": 116,
        "610": 231,
        "611": 60,
        "612": 19,
        "613": 29,
        "614": 93,
        "615": 120,
        "616": 144,
        "617": 217,
        "618": 17,
        "619": 111,
        "620": 71,
        "621": 247,
        "622": 232,
        "623": 193,
        "624": 91,
        "625": 201,
        "626": 242,
        "627": 86,
        "628": 252,
        "629": 47,
        "630": 152,
        "631": 24,
        "632": 10,
        "633": 245,
        "634": 144,
        "635": 218,
        "636": 62,
        "637": 108,
        "638": 135,
        "639": 224,
        "640": 8,
        "641": 89,
        "642": 126,
        "643": 254,
        "644": 230,
        "645": 236,
        "646": 22,
        "647": 55,
        "648": 10,
        "649": 94,
        "650": 93,
        "651": 44,
        "652": 0,
        "653": 95,
        "654": 88,
        "655": 93,
        "656": 94,
        "657": 48,
        "658": 62,
        "659": 67,
        "660": 97,
        "661": 140,
        "662": 174,
        "663": 106,
        "664": 144,
        "665": 219,
        "666": 50,
        "667": 33,
        "668": 229,
        "669": 211,
        "670": 21,
        "671": 88,
        "672": 217,
        "673": 108,
        "674": 205,
        "675": 253,
        "676": 245,
        "677": 153,
        "678": 155,
        "679": 119,
        "680": 154,
        "681": 132,
        "682": 74,
        "683": 233,
        "684": 253,
        "685": 143,
        "686": 168,
        "687": 43,
        "688": 82,
        "689": 139,
        "690": 75,
        "691": 37,
        "692": 125,
        "693": 25,
        "694": 251,
        "695": 21,
        "696": 133,
        "697": 79,
        "698": 87,
        "699": 25,
        "700": 39,
        "701": 182,
        "702": 161,
        "703": 51,
        "704": 246,
        "705": 76,
        "706": 98,
        "707": 111,
        "708": 214,
        "709": 118,
        "710": 73,
        "711": 191,
        "712": 37,
        "713": 213,
        "714": 65,
        "715": 79,
        "716": 139,
        "717": 109,
        "718": 254,
        "719": 220,
        "720": 221,
        "721": 114,
        "722": 197,
        "723": 65,
        "724": 96,
        "725": 168,
        "726": 42,
        "727": 147,
        "728": 151,
        "729": 220,
        "730": 232,
        "731": 12,
        "732": 48,
        "733": 247,
        "734": 226,
        "735": 22,
        "736": 199,
        "737": 133,
        "738": 65,
        "739": 243,
        "740": 24,
        "741": 180,
        "742": 243,
        "743": 75,
        "744": 230,
        "745": 122,
        "746": 90,
        "747": 213,
        "748": 219,
        "749": 44,
        "750": 207,
        "751": 248,
        "752": 245,
        "753": 161,
        "754": 88,
        "755": 220,
        "756": 38,
        "757": 243,
        "758": 54,
        "759": 69,
        "760": 12,
        "761": 1,
        "762": 246,
        "763": 48,
        "764": 176,
        "765": 215,
        "766": 245,
        "767": 67,
        "768": 194,
        "769": 37,
        "770": 183,
        "771": 251,
        "772": 15,
        "773": 162,
        "774": 112,
        "775": 25,
        "776": 150,
        "777": 161,
        "778": 91,
        "779": 225,
        "780": 226,
        "781": 19,
        "782": 117,
        "783": 238,
        "784": 151,
        "785": 125,
        "786": 167,
        "787": 48,
        "788": 185,
        "789": 30,
        "790": 225,
        "791": 227,
        "792": 181,
        "793": 201,
        "794": 14,
        "795": 149,
        "796": 172,
        "797": 235,
        "798": 23,
        "799": 105,
        "800": 234,
        "801": 242,
        "802": 237,
        "803": 93,
        "804": 125,
        "805": 235,
        "806": 66,
        "807": 151,
        "808": 97,
        "809": 44,
        "810": 151,
        "811": 173,
        "812": 242,
        "813": 2,
        "814": 93,
        "815": 111,
        "816": 90,
        "817": 90,
        "818": 151,
        "819": 190,
        "820": 4,
        "821": 79,
        "822": 57,
        "823": 17,
        "824": 4,
        "825": 214,
        "826": 232,
        "827": 178,
        "828": 4,
        "829": 126,
        "830": 132,
        "831": 85,
        "832": 93,
        "833": 42,
        "834": 159,
        "835": 159,
        "836": 189,
        "837": 29,
        "838": 197,
        "839": 136,
        "840": 229,
        "841": 112,
        "842": 178,
        "843": 233,
        "844": 105,
        "845": 75,
        "846": 167,
        "847": 2,
        "848": 1,
        "849": 33,
        "850": 119,
        "851": 48,
        "852": 248,
        "853": 154,
        "854": 245,
        "855": 101,
        "856": 42,
        "857": 200,
        "858": 0,
        "859": 246,
        "860": 64,
        "861": 246,
        "862": 75,
        "863": 112,
        "864": 29,
        "865": 64,
        "866": 13,
        "867": 150,
        "868": 91,
        "869": 45,
        "870": 97,
        "871": 168,
        "872": 6,
        "873": 212,
        "874": 173,
        "875": 89,
        "876": 231,
        "877": 100,
        "878": 62,
        "879": 39,
        "880": 197,
        "881": 71,
        "882": 154,
        "883": 183,
        "884": 84,
        "885": 45,
        "886": 86,
        "887": 189,
        "888": 16,
        "889": 56,
        "890": 74,
        "891": 231,
        "892": 43,
        "893": 238,
        "894": 215,
        "895": 56,
        "896": 28,
        "897": 125,
        "898": 114,
        "899": 51,
        "900": 136,
        "901": 224,
        "902": 41,
        "903": 213,
        "904": 110,
        "905": 51,
        "906": 115,
        "907": 128,
        "908": 222,
        "909": 156,
        "910": 61,
        "911": 89,
        "912": 145,
        "913": 132,
        "914": 151,
        "915": 58,
        "916": 205,
        "917": 233,
        "918": 8,
        "919": 252,
        "920": 109,
        "921": 142,
        "922": 67,
        "923": 213,
        "924": 142,
        "925": 237,
        "926": 1,
        "927": 153,
        "928": 186,
        "929": 194,
        "930": 98,
        "931": 231,
        "932": 126,
        "933": 19,
        "934": 27,
        "935": 175,
        "936": 27,
        "937": 13,
        "938": 152,
        "939": 145,
        "940": 153,
        "941": 10,
        "942": 243,
        "943": 39,
        "944": 253,
        "945": 45,
        "946": 111,
        "947": 80,
        "948": 68,
        "949": 164,
        "950": 40,
        "951": 136,
        "952": 135,
        "953": 210,
        "954": 207,
        "955": 141,
        "956": 27,
        "957": 20,
        "958": 62,
        "959": 199,
        "960": 250,
        "961": 87,
        "962": 231,
        "963": 69,
        "964": 9,
        "965": 240,
        "966": 206,
        "967": 141,
        "968": 253,
        "969": 94,
        "970": 61,
        "971": 19,
        "972": 19,
        "973": 51,
        "974": 126,
        "975": 81,
        "976": 224,
        "977": 244,
        "978": 59,
        "979": 205,
        "980": 4,
        "981": 169,
        "982": 191,
        "983": 238,
        "984": 210,
        "985": 56,
        "986": 203,
        "987": 63,
        "988": 253,
        "989": 124,
        "990": 166,
        "991": 172,
        "992": 240,
        "993": 254,
        "994": 148,
        "995": 4,
        "996": 181,
        "997": 142,
        "998": 193,
        "999": 209,
        "1000": 196,
        "1001": 237,
        "1002": 181,
        "1003": 118,
        "1004": 31,
        "1005": 179,
        "1006": 164,
        "1007": 68,
        "1008": 208,
        "1009": 177,
        "1010": 2,
        "1011": 12,
        "1012": 45,
        "1013": 185,
        "1014": 135,
        "1015": 97,
        "1016": 138,
        "1017": 170,
        "1018": 14,
        "1019": 46,
        "1020": 208,
        "1021": 111,
        "1022": 242,
        "1023": 125,
        "1024": 216,
        "1025": 12,
        "1026": 238,
        "1027": 131,
        "1028": 169,
        "1029": 40,
        "1030": 184,
        "1031": 61,
        "1032": 254,
        "1033": 12,
        "1034": 212,
        "1035": 133,
        "1036": 13,
        "1037": 133,
        "1038": 109,
        "1039": 220,
        "1040": 173,
        "1041": 100,
        "1042": 52,
        "1043": 225,
        "1044": 203,
        "1045": 94,
        "1046": 214,
        "1047": 173,
        "1048": 182,
        "1049": 157,
        "1050": 145,
        "1051": 152,
        "1052": 162,
        "1053": 137,
        "1054": 252,
        "1055": 139,
        "1056": 37,
        "1057": 101,
        "1058": 30,
        "1059": 115,
        "1060": 178,
        "1061": 113,
        "1062": 221,
        "1063": 212,
        "1064": 77,
        "1065": 170,
        "1066": 161,
        "1067": 252,
        "1068": 75,
        "1069": 245,
        "1070": 123,
        "1071": 100,
        "1072": 115,
        "1073": 53,
        "1074": 219,
        "1075": 197,
        "1076": 45,
        "1077": 84,
        "1078": 84,
        "1079": 34,
        "1080": 237,
        "1081": 135,
        "1082": 133,
        "1083": 6,
        "1084": 33,
        "1085": 155,
        "1086": 231,
        "1087": 203,
        "1088": 157,
        "1089": 80,
        "1090": 66,
        "1091": 15,
        "1092": 217,
        "1093": 242,
        "1094": 198,
        "1095": 79,
        "1096": 118,
        "1097": 121,
        "1098": 84,
        "1099": 40,
        "1100": 61,
        "1101": 70,
        "1102": 32,
        "1103": 219,
        "1104": 82,
        "1105": 55,
        "1106": 222,
        "1107": 97,
        "1108": 133,
        "1109": 141,
        "1110": 129,
        "1111": 185,
        "1112": 182,
        "1113": 12,
        "1114": 107,
        "1115": 131,
        "1116": 23,
        "1117": 143,
        "1118": 203,
        "1119": 15,
        "1120": 59,
        "1121": 90,
        "1122": 76,
        "1123": 130,
        "1124": 224,
        "1125": 212,
        "1126": 129,
        "1127": 41,
        "1128": 187,
        "1129": 251,
        "1130": 87,
        "1131": 122,
        "1132": 183,
        "1133": 223,
        "1134": 121,
        "1135": 250,
        "1136": 36,
        "1137": 147,
        "1138": 48,
        "1139": 206,
        "1140": 169,
        "1141": 64,
        "1142": 23,
        "1143": 6,
        "1144": 80,
        "1145": 155,
        "1146": 48,
        "1147": 129,
        "1148": 175,
        "1149": 130,
        "1150": 95,
        "1151": 142,
        "1152": 113,
        "1153": 217,
        "1154": 203,
        "1155": 238,
        "1156": 127,
        "1157": 62,
        "1158": 186,
        "1159": 72,
        "1160": 211,
        "1161": 46,
        "1162": 201,
        "1163": 193,
        "1164": 243,
        "1165": 88,
        "1166": 181,
        "1167": 206,
        "1168": 134,
        "1169": 146,
        "1170": 131,
        "1171": 156,
        "1172": 57,
        "1173": 164,
        "1174": 219,
        "1175": 207,
        "1176": 97,
        "1177": 184,
        "1178": 249,
        "1179": 169,
        "1180": 136,
        "1181": 76,
        "1182": 20,
        "1183": 15,
        "1184": 65,
        "1185": 3,
        "1186": 192,
        "1187": 87,
        "1188": 225,
        "1189": 76,
        "1190": 53,
        "1191": 27,
        "1192": 87,
        "1193": 197,
        "1194": 35,
        "1195": 186,
        "1196": 254,
        "1197": 155,
        "1198": 48,
        "1199": 161,
        "1200": 17,
        "1201": 210,
        "1202": 129,
        "1203": 78,
        "1204": 184,
        "1205": 62,
        "1206": 112,
        "1207": 93,
        "1208": 198,
        "1209": 74,
        "1210": 0,
        "1211": 252,
        "1212": 136,
        "1213": 183,
        "1214": 50,
        "1215": 114,
        "1216": 204,
        "1217": 26,
        "1218": 254,
        "1219": 199,
        "1220": 45,
        "1221": 84,
        "1222": 97,
        "1223": 228,
        "1224": 224,
        "1225": 172,
        "1226": 199,
        "1227": 251,
        "1228": 241,
        "1229": 243,
        "1230": 66,
        "1231": 251,
        "1232": 123,
        "1233": 153,
        "1234": 105,
        "1235": 67,
        "1236": 206,
        "1237": 223,
        "1238": 162,
        "1239": 50,
        "1240": 75,
        "1241": 133,
        "1242": 16,
        "1243": 229,
        "1244": 28,
        "1245": 200,
        "1246": 65,
        "1247": 145,
        "1248": 125,
        "1249": 9,
        "1250": 114,
        "1251": 148,
        "1252": 37,
        "1253": 40,
        "1254": 161,
        "1255": 97,
        "1256": 138,
        "1257": 165,
        "1258": 26,
        "1259": 55,
        "1260": 28,
        "1261": 37,
        "1262": 99,
        "1263": 214,
        "1264": 252,
        "1265": 15,
        "1266": 85,
        "1267": 233,
        "1268": 200,
        "1269": 106,
        "1270": 242,
        "1271": 221,
        "1272": 115,
        "1273": 122,
        "1274": 113,
        "1275": 237,
        "1276": 131,
        "1277": 157,
        "1278": 129,
        "1279": 238,
        "1280": 111,
        "1281": 218,
        "1282": 240,
        "1283": 111,
        "1284": 33,
        "1285": 46,
        "1286": 43,
        "1287": 47,
        "1288": 158,
        "1289": 201,
        "1290": 164,
        "1291": 86,
        "1292": 72,
        "1293": 183,
        "1294": 109,
        "1295": 152,
        "1296": 96,
        "1297": 217,
        "1298": 240,
        "1299": 28,
        "1300": 253,
        "1301": 129,
        "1302": 224,
        "1303": 132,
        "1304": 200,
        "1305": 34,
        "1306": 211,
        "1307": 144,
        "1308": 39,
        "1309": 135,
        "1310": 189,
        "1311": 222,
        "1312": 59,
        "1313": 19,
        "1314": 220,
        "1315": 137,
        "1316": 156,
        "1317": 250,
        "1318": 253,
        "1319": 130,
        "1320": 155,
        "1321": 14,
        "1322": 149,
        "1323": 208,
        "1324": 167,
        "1325": 146,
        "1326": 106,
        "1327": 149,
        "1328": 75,
        "1329": 203,
        "1330": 223,
        "1331": 108,
        "1332": 103,
        "1333": 42,
        "1334": 139,
        "1335": 165,
        "1336": 15,
        "1337": 230,
        "1338": 16,
        "1339": 108,
        "1340": 58,
        "1341": 88,
        "1342": 16,
        "1343": 6,
        "1344": 83,
        "1345": 212,
        "1346": 186,
        "1347": 70,
        "1348": 11,
        "1349": 212,
        "1350": 72,
        "1351": 44,
        "1352": 125,
        "1353": 0,
        "1354": 130,
        "1355": 149,
        "1356": 141,
        "1357": 123,
        "1358": 27,
        "1359": 78,
        "1360": 133,
        "1361": 88,
        "1362": 250,
        "1363": 227,
        "1364": 239,
        "1365": 108,
        "1366": 130,
        "1367": 138,
        "1368": 134,
        "1369": 66,
        "1370": 3,
        "1371": 7,
        "1372": 38,
        "1373": 115,
        "1374": 253,
        "1375": 93,
        "1376": 237,
        "1377": 16,
        "1378": 87,
        "1379": 47,
        "1380": 123,
        "1381": 187,
        "1382": 156,
        "1383": 12,
        "1384": 49,
        "1385": 126,
        "1386": 72,
        "1387": 201,
        "1388": 88,
        "1389": 180,
        "1390": 98,
        "1391": 63,
        "1392": 57,
        "1393": 19,
        "1394": 217,
        "1395": 215,
        "1396": 220,
        "1397": 84,
        "1398": 132,
        "1399": 7,
        "1400": 65,
        "1401": 109,
        "1402": 214,
        "1403": 189,
        "1404": 179,
        "1405": 6,
        "1406": 160,
        "1407": 194,
        "1408": 178,
        "1409": 166,
        "1410": 73,
        "1411": 79,
        "1412": 77,
        "1413": 38,
        "1414": 133,
        "1415": 77,
        "1416": 242,
        "1417": 107,
        "1418": 182,
        "1419": 55,
        "1420": 103,
        "1421": 235,
        "1422": 12,
        "1423": 66,
        "1424": 168,
        "1425": 228,
        "1426": 109,
        "1427": 100,
        "1428": 159,
        "1429": 82,
        "1430": 140,
        "1431": 21,
        "1432": 200,
        "1433": 104,
        "1434": 67,
        "1435": 209,
        "1436": 8,
        "1437": 144,
        "1438": 93,
        "1439": 225,
        "1440": 127,
        "1441": 172,
        "1442": 58,
        "1443": 20,
        "1444": 33,
        "1445": 239,
        "1446": 232,
        "1447": 237,
        "1448": 68,
        "1449": 166,
        "1450": 86,
        "1451": 196,
        "1452": 99,
        "1453": 97,
        "1454": 246,
        "1455": 227,
        "1456": 131,
        "1457": 62,
        "1458": 248,
        "1459": 132,
        "1460": 57,
        "1461": 220,
        "1462": 18,
        "1463": 233,
        "1464": 161,
        "1465": 218,
        "1466": 16,
        "1467": 110,
        "1468": 240,
        "1469": 1,
        "1470": 6,
        "1471": 127,
        "1472": 111,
        "1473": 127,
        "1474": 121,
        "1475": 0,
        "1476": 191,
        "1477": 194,
        "1478": 88,
        "1479": 37,
        "1480": 104,
        "1481": 118,
        "1482": 70,
        "1483": 103,
        "1484": 20,
        "1485": 184,
        "1486": 240,
        "1487": 105,
        "1488": 59,
        "1489": 145,
        "1490": 237,
        "1491": 215,
        "1492": 117,
        "1493": 233,
        "1494": 89,
        "1495": 30,
        "1496": 196,
        "1497": 70,
        "1498": 51,
        "1499": 4,
        "1500": 231,
        "1501": 255,
        "1502": 112,
        "1503": 55,
        "1504": 188,
        "1505": 37,
        "1506": 181,
        "1507": 217,
        "1508": 247,
        "1509": 64,
        "1510": 167,
        "1511": 124,
        "1512": 117,
        "1513": 79,
        "1514": 172,
        "1515": 153,
        "1516": 54,
        "1517": 38,
        "1518": 18,
        "1519": 182,
        "1520": 12,
        "1521": 4,
        "1522": 100,
        "1523": 94,
        "1524": 126,
        "1525": 155,
        "1526": 189,
        "1527": 135,
        "1528": 187,
        "1529": 94,
        "1530": 245,
        "1531": 112,
        "1532": 202,
        "1533": 249,
        "1534": 221,
        "1535": 24,
        "1536": 25,
        "1537": 138,
        "1538": 138,
        "1539": 88,
        "1540": 173,
        "1541": 0,
        "1542": 254,
        "1543": 130,
        "1544": 210,
        "1545": 29,
        "1546": 48,
        "1547": 108,
        "1548": 156,
        "1549": 69,
        "1550": 64,
        "1551": 76,
        "1552": 240,
        "1553": 7,
        "1554": 105,
        "1555": 184,
        "1556": 16,
        "1557": 118,
        "1558": 232,
        "1559": 19,
        "1560": 115,
        "1561": 123,
        "1562": 251,
        "1563": 207,
        "1564": 155,
        "1565": 15,
        "1566": 248,
        "1567": 91,
        "1568": 245,
        "1569": 222,
        "1570": 217,
        "1571": 75,
        "1572": 183,
        "1573": 4,
        "1574": 166,
        "1575": 102,
        "1576": 122,
        "1577": 53,
        "1578": 120,
        "1579": 228,
        "1580": 149,
        "1581": 141,
        "1582": 153,
        "1583": 156,
        "1584": 233,
        "1585": 36,
        "1586": 214,
        "1587": 133,
        "1588": 168,
        "1589": 247,
        "1590": 184,
        "1591": 222,
        "1592": 23,
        "1593": 111,
        "1594": 112,
        "1595": 217,
        "1596": 116,
        "1597": 31,
        "1598": 32,
        "1599": 33,
        "1600": 96,
        "1601": 136,
        "1602": 139,
        "1603": 204,
        "1604": 86,
        "1605": 82,
        "1606": 190,
        "1607": 44,
        "1608": 244,
        "1609": 2,
        "1610": 155,
        "1611": 57,
        "1612": 183,
        "1613": 44,
        "1614": 74,
        "1615": 184,
        "1616": 79,
        "1617": 79,
        "1618": 31,
        "1619": 55,
        "1620": 95,
        "1621": 13,
        "1622": 148,
        "1623": 55,
        "1624": 176,
        "1625": 133,
        "1626": 68,
        "1627": 18,
        "1628": 205,
        "1629": 192,
        "1630": 187,
        "1631": 31,
        "1632": 21,
        "1633": 104,
        "1634": 147,
        "1635": 95,
        "1636": 181,
        "1637": 204,
        "1638": 254,
        "1639": 52,
        "1640": 32,
        "1641": 157,
        "1642": 57,
        "1643": 179,
        "1644": 152,
        "1645": 199,
        "1646": 240,
        "1647": 82,
        "1648": 124,
        "1649": 201,
        "1650": 175,
        "1651": 110,
        "1652": 32,
        "1653": 234,
        "1654": 159,
        "1655": 66,
        "1656": 243,
        "1657": 119,
        "1658": 154,
        "1659": 235,
        "1660": 255,
        "1661": 144,
        "1662": 196,
        "1663": 206,
        "1664": 118,
        "1665": 171,
        "1666": 168,
        "1667": 18,
        "1668": 43,
        "1669": 20,
        "1670": 154,
        "1671": 151,
        "1672": 175,
        "1673": 171,
        "1674": 11,
        "1675": 92,
        "1676": 206,
        "1677": 5,
        "1678": 154,
        "1679": 240,
        "1680": 176,
        "1681": 186,
        "1682": 250,
        "1683": 121,
        "1684": 163,
        "1685": 202,
        "1686": 96,
        "1687": 15,
        "1688": 230,
        "1689": 47,
        "1690": 137,
        "1691": 244,
        "1692": 204,
        "1693": 154,
        "1694": 226,
        "1695": 124,
        "1696": 84,
        "1697": 170,
        "1698": 14,
        "1699": 51,
        "1700": 101,
        "1701": 172,
        "1702": 4,
        "1703": 215,
        "1704": 19,
        "1705": 248,
        "1706": 209,
        "1707": 134,
        "1708": 135,
        "1709": 44,
        "1710": 63,
        "1711": 252,
        "1712": 251,
        "1713": 230,
        "1714": 143,
        "1715": 252,
        "1716": 199,
        "1717": 54,
        "1718": 219,
        "1719": 179,
        "1720": 106,
        "1721": 174,
        "1722": 46,
        "1723": 98,
        "1724": 74,
        "1725": 220,
        "1726": 111,
        "1727": 221,
        "1728": 107,
        "1729": 33,
        "1730": 19,
        "1731": 173,
        "1732": 243,
        "1733": 13,
        "1734": 53,
        "1735": 215,
        "1736": 0,
        "1737": 128,
        "1738": 34,
        "1739": 59,
        "1740": 138,
        "1741": 245,
        "1742": 100,
        "1743": 19,
        "1744": 220,
        "1745": 120,
        "1746": 159,
        "1747": 34,
        "1748": 168,
        "1749": 52,
        "1750": 151,
        "1751": 90,
        "1752": 52,
        "1753": 123,
        "1754": 83,
        "1755": 156,
        "1756": 47,
        "1757": 83,
        "1758": 57,
        "1759": 177,
        "1760": 200,
        "1761": 89,
        "1762": 85,
        "1763": 204,
        "1764": 149,
        "1765": 214,
        "1766": 155,
        "1767": 150,
        "1768": 172,
        "1769": 188,
        "1770": 84,
        "1771": 179,
        "1772": 69,
        "1773": 20,
        "1774": 199,
        "1775": 171,
        "1776": 87,
        "1777": 195,
        "1778": 102,
        "1779": 199,
        "1780": 166,
        "1781": 149,
        "1782": 151,
        "1783": 232,
        "1784": 241,
        "1785": 43,
        "1786": 241,
        "1787": 61,
        "1788": 222,
        "1789": 22,
        "1790": 179,
        "1791": 207,
        "1792": 73,
        "1793": 157,
        "1794": 154,
        "1795": 58,
        "1796": 235,
        "1797": 97,
        "1798": 53,
        "1799": 95,
        "1800": 211,
        "1801": 161,
        "1802": 195,
        "1803": 110,
        "1804": 185,
        "1805": 134,
        "1806": 35,
        "1807": 55,
        "1808": 226,
        "1809": 164,
        "1810": 172,
        "1811": 2,
        "1812": 32,
        "1813": 66,
        "1814": 60,
        "1815": 66,
        "1816": 249,
        "1817": 87,
        "1818": 2,
        "1819": 155,
        "1820": 59,
        "1821": 124,
        "1822": 186,
        "1823": 81,
        "1824": 79,
        "1825": 126,
        "1826": 196,
        "1827": 27,
        "1828": 184,
        "1829": 138,
        "1830": 87,
        "1831": 16,
        "1832": 72,
        "1833": 208,
        "1834": 254,
        "1835": 57,
        "1836": 212,
        "1837": 216,
        "1838": 163,
        "1839": 3,
        "1840": 12,
        "1841": 228,
        "1842": 104,
        "1843": 102,
        "1844": 191,
        "1845": 168,
        "1846": 29,
        "1847": 127,
        "1848": 60,
        "1849": 184,
        "1850": 105,
        "1851": 42,
        "1852": 3,
        "1853": 195,
        "1854": 63,
        "1855": 66,
        "1856": 137,
        "1857": 222,
        "1858": 227,
        "1859": 49,
        "1860": 241,
        "1861": 124,
        "1862": 216,
        "1863": 15,
        "1864": 44,
        "1865": 93,
        "1866": 12,
        "1867": 102,
        "1868": 174,
        "1869": 236,
        "1870": 179,
        "1871": 23,
        "1872": 38,
        "1873": 227,
        "1874": 44,
        "1875": 103,
        "1876": 216,
        "1877": 245,
        "1878": 30,
        "1879": 209,
        "1880": 182,
        "1881": 119,
        "1882": 49,
        "1883": 144,
        "1884": 25,
        "1885": 26,
        "1886": 40,
        "1887": 94,
        "1888": 132,
        "1889": 167,
        "1890": 105,
        "1891": 117,
        "1892": 230,
        "1893": 88,
        "1894": 213,
        "1895": 48,
        "1896": 236,
        "1897": 213,
        "1898": 48,
        "1899": 144,
        "1900": 115,
        "1901": 9,
        "1902": 250,
        "1903": 157,
        "1904": 53,
        "1905": 169,
        "1906": 245,
        "1907": 8,
        "1908": 238,
        "1909": 92,
        "1910": 17,
        "1911": 112,
        "1912": 102,
        "1913": 164,
        "1914": 192,
        "1915": 237,
        "1916": 227,
        "1917": 240,
        "1918": 129,
        "1919": 150,
        "1920": 102,
        "1921": 48,
        "1922": 170,
        "1923": 105,
        "1924": 121,
        "1925": 175,
        "1926": 141,
        "1927": 106,
        "1928": 76,
        "1929": 8,
        "1930": 122,
        "1931": 127,
        "1932": 3,
        "1933": 214,
        "1934": 15,
        "1935": 25,
        "1936": 70,
        "1937": 233,
        "1938": 227,
        "1939": 125,
        "1940": 44,
        "1941": 23,
        "1942": 9,
        "1943": 54,
        "1944": 32,
        "1945": 150,
        "1946": 138,
        "1947": 149,
        "1948": 250,
        "1949": 238,
        "1950": 208,
        "1951": 12,
        "1952": 62,
        "1953": 33,
        "1954": 92,
        "1955": 156,
        "1956": 191,
        "1957": 159,
        "1958": 185,
        "1959": 80,
        "1960": 75,
        "1961": 34,
        "1962": 219,
        "1963": 114,
        "1964": 18,
        "1965": 146,
        "1966": 23,
        "1967": 42,
        "1968": 171,
        "1969": 239,
        "1970": 205,
        "1971": 108,
        "1972": 192,
        "1973": 126,
        "1974": 40,
        "1975": 226,
        "1976": 136,
        "1977": 23,
        "1978": 32,
        "1979": 12,
        "1980": 82,
        "1981": 88,
        "1982": 84,
        "1983": 156,
        "1984": 210,
        "1985": 76,
        "1986": 74,
        "1987": 45,
        "1988": 170,
        "1989": 104,
        "1990": 193,
        "1991": 211,
        "1992": 65,
        "1993": 104,
        "1994": 199,
        "1995": 3,
        "1996": 84,
        "1997": 22,
        "1998": 210,
        "1999": 44,
        "2000": 103,
        "2001": 25,
        "2002": 137,
        "2003": 171,
        "2004": 206,
        "2005": 55,
        "2006": 160,
        "2007": 85,
        "2008": 145,
        "2009": 106,
        "2010": 105,
        "2011": 229,
        "2012": 66,
        "2013": 141,
        "2014": 251,
        "2015": 8,
        "2016": 158,
        "2017": 232,
        "2018": 170,
        "2019": 112,
        "2020": 52,
        "2021": 245,
        "2022": 85,
        "2023": 165,
        "2024": 125,
        "2025": 110,
        "2026": 127,
        "2027": 57,
        "2028": 28,
        "2029": 115,
        "2030": 171,
        "2031": 118,
        "2032": 149,
        "2033": 238,
        "2034": 214,
        "2035": 116,
        "2036": 97,
        "2037": 52,
        "2038": 125,
        "2039": 185,
        "2040": 150,
        "2041": 116,
        "2042": 27,
        "2043": 8,
        "2044": 55,
        "2045": 45,
        "2046": 100,
        "2047": 244,
        "2048": 187,
        "2049": 215,
        "2050": 160,
        "2051": 147,
        "2052": 74,
        "2053": 46,
        "2054": 58,
        "2055": 19,
        "2056": 207,
        "2057": 17,
        "2058": 93,
        "2059": 172,
        "2060": 31,
        "2061": 157,
        "2062": 2,
        "2063": 225,
        "2064": 210,
        "2065": 181,
        "2066": 174,
        "2067": 99,
        "2068": 159,
        "2069": 57,
        "2070": 123,
        "2071": 7,
        "2072": 56,
        "2073": 80,
        "2074": 123,
        "2075": 197,
        "2076": 44,
        "2077": 99,
        "2078": 138,
        "2079": 52,
        "2080": 158,
        "2081": 148,
        "2082": 177,
        "2083": 166,
        "2084": 214,
        "2085": 44,
        "2086": 27,
        "2087": 168,
        "2088": 132,
        "2089": 207,
        "2090": 173,
        "2091": 23,
        "2092": 88,
        "2093": 230,
        "2094": 204,
        "2095": 97,
        "2096": 115,
        "2097": 239,
        "2098": 88,
        "2099": 55,
        "2100": 84,
        "2101": 36,
        "2102": 42,
        "2103": 215,
        "2104": 71,
        "2105": 253,
        "2106": 135,
        "2107": 216,
        "2108": 150,
        "2109": 155,
        "2110": 126,
        "2111": 19,
        "2112": 105,
        "2113": 113,
        "2114": 199,
        "2115": 195,
        "2116": 72,
        "2117": 231,
        "2118": 74,
        "2119": 253,
        "2120": 254,
        "2121": 171,
        "2122": 2,
        "2123": 232,
        "2124": 59,
        "2125": 39,
        "2126": 217,
        "2127": 93,
        "2128": 215,
        "2129": 31,
        "2130": 139,
        "2131": 172,
        "2132": 59,
        "2133": 43,
        "2134": 191,
        "2135": 203,
        "2136": 203,
        "2137": 29,
        "2138": 106,
        "2139": 234,
        "2140": 211,
        "2141": 117,
        "2142": 59,
        "2143": 73,
        "2144": 84,
        "2145": 235,
        "2146": 26,
        "2147": 114,
        "2148": 211,
        "2149": 139,
        "2150": 112,
        "2151": 210,
        "2152": 152,
        "2153": 188,
        "2154": 89,
        "2155": 129,
        "2156": 146,
        "2157": 142,
        "2158": 52,
        "2159": 232,
        "2160": 200,
        "2161": 191,
        "2162": 245,
        "2163": 73,
        "2164": 4,
        "2165": 5,
        "2166": 14,
        "2167": 2,
        "2168": 140,
        "2169": 97,
        "2170": 157,
        "2171": 26,
        "2172": 11,
        "2173": 66,
        "2174": 33,
        "2175": 207,
        "2176": 34,
        "2177": 107,
        "2178": 153,
        "2179": 203,
        "2180": 233,
        "2181": 170,
        "2182": 51,
        "2183": 16,
        "2184": 144,
        "2185": 87,
        "2186": 153,
        "2187": 3,
        "2188": 66,
        "2189": 124,
        "2190": 177,
        "2191": 223,
        "2192": 201,
        "2193": 146,
        "2194": 134,
        "2195": 107,
        "2196": 244,
        "2197": 145,
        "2198": 140,
        "2199": 211,
        "2200": 129,
        "2201": 147,
        "2202": 212,
        "2203": 103,
        "2204": 143,
        "2205": 38,
        "2206": 33,
        "2207": 139,
        "2208": 217,
        "2209": 125,
        "2210": 115,
        "2211": 3,
        "2212": 140,
        "2213": 93,
        "2214": 131,
        "2215": 138,
        "2216": 176,
        "2217": 65,
        "2218": 250,
        "2219": 157,
        "2220": 60,
        "2221": 242,
        "2222": 165,
        "2223": 154,
        "2224": 225,
        "2225": 178,
        "2226": 124,
        "2227": 29,
        "2228": 151,
        "2229": 45,
        "2230": 59,
        "2231": 182,
        "2232": 69,
        "2233": 42,
        "2234": 3,
        "2235": 172,
        "2236": 80,
        "2237": 54,
        "2238": 140,
        "2239": 31,
        "2240": 165,
        "2241": 198,
        "2242": 194,
        "2243": 145,
        "2244": 209,
        "2245": 212,
        "2246": 138,
        "2247": 122,
        "2248": 87,
        "2249": 151,
        "2250": 73,
        "2251": 37,
        "2252": 77,
        "2253": 192,
        "2254": 27,
        "2255": 128,
        "2256": 223,
        "2257": 213,
        "2258": 216,
        "2259": 158,
        "2260": 86,
        "2261": 146,
        "2262": 214,
        "2263": 97,
        "2264": 142,
        "2265": 167,
        "2266": 91,
        "2267": 239,
        "2268": 152,
        "2269": 190,
        "2270": 243,
        "2271": 51,
        "2272": 156,
        "2273": 66,
        "2274": 138,
        "2275": 126,
        "2276": 104,
        "2277": 182,
        "2278": 90,
        "2279": 36,
        "2280": 61,
        "2281": 247,
        "2282": 49,
        "2283": 128,
        "2284": 208,
        "2285": 122,
        "2286": 41,
        "2287": 32,
        "2288": 35,
        "2289": 92,
        "2290": 41,
        "2291": 18,
        "2292": 9,
        "2293": 25,
        "2294": 140,
        "2295": 64,
        "2296": 194,
        "2297": 84,
        "2298": 40,
        "2299": 108,
        "2300": 245,
        "2301": 99,
        "2302": 83,
        "2303": 224,
        "2304": 118,
        "2305": 232,
        "2306": 146,
        "2307": 40,
        "2308": 146,
        "2309": 15,
        "2310": 18,
        "2311": 171,
        "2312": 245,
        "2313": 135,
        "2314": 190,
        "2315": 132,
        "2316": 143,
        "2317": 15,
        "2318": 111,
        "2319": 49,
        "2320": 138,
        "2321": 97,
        "2322": 91,
        "2323": 152,
        "2324": 172,
        "2325": 230,
        "2326": 54,
        "2327": 116,
        "2328": 169,
        "2329": 99,
        "2330": 246,
        "2331": 97,
        "2332": 11,
        "2333": 120,
        "2334": 181,
        "2335": 61,
        "2336": 99,
        "2337": 173,
        "2338": 37,
        "2339": 55,
        "2340": 57,
        "2341": 156,
        "2342": 95,
        "2343": 199,
        "2344": 104,
        "2345": 105,
        "2346": 182,
        "2347": 31,
        "2348": 56,
        "2349": 156,
        "2350": 131,
        "2351": 58,
        "2352": 254,
        "2353": 247,
        "2354": 57,
        "2355": 52,
        "2356": 233,
        "2357": 130,
        "2358": 178,
        "2359": 10,
        "2360": 177,
        "2361": 111,
        "2362": 19,
        "2363": 171,
        "2364": 238,
        "2365": 51,
        "2366": 94,
        "2367": 166,
        "2368": 169,
        "2369": 161,
        "2370": 191,
        "2371": 3,
        "2372": 106,
        "2373": 246,
        "2374": 113,
        "2375": 86,
        "2376": 7,
        "2377": 196,
        "2378": 109,
        "2379": 64,
        "2380": 45,
        "2381": 97,
        "2382": 83,
        "2383": 162,
        "2384": 217,
        "2385": 111,
        "2386": 192,
        "2387": 206,
        "2388": 152,
        "2389": 64,
        "2390": 86,
        "2391": 174,
        "2392": 132,
        "2393": 72,
        "2394": 36,
        "2395": 151,
        "2396": 12,
        "2397": 238,
        "2398": 34,
        "2399": 153,
        "2400": 192,
        "2401": 165,
        "2402": 81,
        "2403": 11,
        "2404": 157,
        "2405": 162,
        "2406": 99,
        "2407": 133,
        "2408": 16,
        "2409": 150,
        "2410": 160,
        "2411": 122,
        "2412": 143,
        "2413": 50,
        "2414": 236,
        "2415": 82,
        "2416": 204,
        "2417": 93,
        "2418": 146,
        "2419": 36,
        "2420": 86,
        "2421": 192,
        "2422": 205,
        "2423": 42,
        "2424": 219,
        "2425": 182,
        "2426": 220,
        "2427": 169,
        "2428": 240,
        "2429": 80,
        "2430": 217,
        "2431": 228,
        "2432": 23,
        "2433": 255,
        "2434": 22,
        "2435": 39,
        "2436": 89,
        "2437": 137,
        "2438": 148,
        "2439": 1,
        "2440": 51,
        "2441": 116,
        "2442": 171,
        "2443": 208,
        "2444": 58,
        "2445": 188,
        "2446": 42,
        "2447": 252,
        "2448": 232,
        "2449": 149,
        "2450": 57,
        "2451": 39,
        "2452": 155,
        "2453": 77,
        "2454": 199,
        "2455": 168,
        "2456": 239,
        "2457": 60,
        "2458": 44,
        "2459": 16,
        "2460": 189,
        "2461": 48,
        "2462": 122,
        "2463": 4,
        "2464": 5,
        "2465": 113,
        "2466": 58,
        "2467": 188,
        "2468": 139,
        "2469": 32,
        "2470": 217,
        "2471": 50,
        "2472": 52,
        "2473": 83,
        "2474": 44,
        "2475": 27,
        "2476": 78,
        "2477": 162,
        "2478": 172,
        "2479": 45,
        "2480": 91,
        "2481": 96,
        "2482": 27,
        "2483": 46,
        "2484": 205,
        "2485": 31,
        "2486": 179,
        "2487": 115,
        "2488": 208,
        "2489": 9,
        "2490": 251,
        "2491": 179,
        "2492": 223,
        "2493": 181,
        "2494": 158,
        "2495": 251,
        "2496": 172,
        "2497": 89,
        "2498": 59,
        "2499": 95,
        "2500": 181,
        "2501": 40,
        "2502": 19,
        "2503": 146,
        "2504": 65,
        "2505": 205,
        "2506": 28,
        "2507": 171,
        "2508": 181,
        "2509": 142,
        "2510": 16,
        "2511": 252,
        "2512": 55,
        "2513": 194,
        "2514": 159,
        "2515": 20,
        "2516": 46,
        "2517": 67,
        "2518": 40,
        "2519": 222,
        "2520": 197,
        "2521": 89,
        "2522": 136,
        "2523": 141,
        "2524": 20,
        "2525": 133,
        "2526": 28,
        "2527": 71,
        "2528": 47,
        "2529": 163,
        "2530": 82,
        "2531": 251,
        "2532": 254,
        "2533": 152,
        "2534": 120,
        "2535": 1,
        "2536": 52,
        "2537": 150,
        "2538": 217,
        "2539": 129,
        "2540": 234,
        "2541": 210,
        "2542": 134,
        "2543": 25,
        "2544": 137,
        "2545": 59,
        "2546": 94,
        "2547": 66,
        "2548": 1,
        "2549": 160,
        "2550": 242,
        "2551": 101,
        "2552": 242,
        "2553": 7,
        "2554": 17,
        "2555": 162,
        "2556": 62,
        "2557": 34,
        "2558": 101,
        "2559": 73,
        "2560": 126,
        "2561": 91,
        "2562": 168,
        "2563": 79,
        "2564": 61,
        "2565": 135,
        "2566": 252,
        "2567": 250,
        "2568": 96,
        "2569": 4,
        "2570": 30,
        "2571": 0,
        "2572": 75,
        "2573": 136,
        "2574": 208,
        "2575": 25,
        "2576": 174,
        "2577": 65,
        "2578": 234,
        "2579": 167,
        "2580": 146,
        "2581": 241,
        "2582": 198,
        "2583": 239,
        "2584": 1,
        "2585": 30,
        "2586": 93,
        "2587": 51,
        "2588": 84,
        "2589": 112,
        "2590": 174,
        "2591": 102,
        "2592": 57,
        "2593": 222,
        "2594": 146,
        "2595": 146,
        "2596": 101,
        "2597": 218,
        "2598": 91,
        "2599": 18,
        "2600": 1,
        "2601": 229,
        "2602": 114,
        "2603": 57,
        "2604": 60,
        "2605": 98,
        "2606": 129,
        "2607": 99,
        "2608": 238,
        "2609": 177,
        "2610": 61,
        "2611": 10,
        "2612": 173,
        "2613": 49,
        "2614": 97,
        "2615": 125,
        "2616": 57,
        "2617": 71,
        "2618": 186,
        "2619": 118,
        "2620": 104,
        "2621": 136,
        "2622": 194,
        "2623": 1,
        "2624": 162,
        "2625": 83,
        "2626": 59,
        "2627": 34,
        "2628": 200,
        "2629": 196,
        "2630": 43,
        "2631": 17,
        "2632": 15,
        "2633": 155,
        "2634": 247,
        "2635": 10,
        "2636": 233,
        "2637": 236,
        "2638": 141,
        "2639": 87,
        "2640": 7,
        "2641": 167,
        "2642": 167,
        "2643": 68,
        "2644": 96,
        "2645": 175,
        "2646": 61,
        "2647": 77,
        "2648": 226,
        "2649": 67,
        "2650": 20,
        "2651": 128,
        "2652": 165,
        "2653": 119,
        "2654": 90,
        "2655": 44,
        "2656": 227,
        "2657": 229,
        "2658": 115,
        "2659": 109,
        "2660": 233,
        "2661": 238,
        "2662": 158,
        "2663": 206,
        "2664": 236,
        "2665": 14,
        "2666": 238,
        "2667": 182,
        "2668": 74,
        "2669": 111,
        "2670": 63,
        "2671": 252,
        "2672": 171,
        "2673": 111,
        "2674": 74,
        "2675": 7,
        "2676": 77,
        "2677": 85,
        "2678": 99,
        "2679": 26,
        "2680": 120,
        "2681": 214,
        "2682": 52,
        "2683": 232,
        "2684": 14,
        "2685": 71,
        "2686": 191,
        "2687": 20,
        "2688": 252,
        "2689": 174,
        "2690": 156,
        "2691": 192,
        "2692": 180,
        "2693": 62,
        "2694": 23,
        "2695": 6,
        "2696": 230,
        "2697": 37,
        "2698": 30,
        "2699": 245,
        "2700": 16,
        "2701": 46,
        "2702": 82,
        "2703": 38,
        "2704": 255,
        "2705": 135,
        "2706": 64,
        "2707": 76,
        "2708": 15,
        "2709": 124,
        "2710": 45,
        "2711": 243,
        "2712": 30,
        "2713": 215,
        "2714": 173,
        "2715": 100,
        "2716": 21,
        "2717": 146,
        "2718": 40,
        "2719": 202,
        "2720": 86,
        "2721": 37,
        "2722": 214,
        "2723": 57,
        "2724": 69,
        "2725": 65,
        "2726": 142,
        "2727": 196,
        "2728": 18,
        "2729": 7,
        "2730": 62,
        "2731": 204,
        "2732": 178,
        "2733": 130,
        "2734": 199,
        "2735": 44,
        "2736": 250,
        "2737": 241,
        "2738": 12,
        "2739": 138,
        "2740": 57,
        "2741": 240,
        "2742": 142,
        "2743": 221,
        "2744": 31,
        "2745": 81,
        "2746": 132,
        "2747": 175,
        "2748": 31,
        "2749": 82,
        "2750": 253,
        "2751": 179,
        "2752": 92,
        "2753": 29,
        "2754": 101,
        "2755": 165,
        "2756": 90,
        "2757": 161,
        "2758": 179,
        "2759": 221,
        "2760": 75,
        "2761": 116,
        "2762": 74,
        "2763": 106,
        "2764": 200,
        "2765": 161,
        "2766": 64,
        "2767": 154,
        "2768": 238,
        "2769": 66,
        "2770": 85,
        "2771": 163,
        "2772": 82,
        "2773": 179,
        "2774": 192,
        "2775": 187,
        "2776": 248,
        "2777": 58,
        "2778": 96,
        "2779": 98,
        "2780": 37,
        "2781": 147,
        "2782": 132,
        "2783": 231,
        "2784": 200,
        "2785": 206,
        "2786": 23,
        "2787": 79,
        "2788": 81,
        "2789": 32,
        "2790": 68,
        "2791": 176,
        "2792": 185,
        "2793": 151,
        "2794": 195,
        "2795": 59,
        "2796": 154,
        "2797": 1,
        "2798": 155,
        "2799": 162,
        "2800": 16,
        "2801": 37,
        "2802": 47,
        "2803": 220,
        "2804": 181,
        "2805": 40,
        "2806": 187,
        "2807": 29,
        "2808": 212,
        "2809": 69,
        "2810": 239,
        "2811": 162,
        "2812": 34,
        "2813": 134,
        "2814": 176,
        "2815": 155,
        "2816": 28,
        "2817": 93,
        "2818": 56,
        "2819": 194,
        "2820": 230,
        "2821": 141,
        "2822": 203,
        "2823": 136,
        "2824": 211,
        "2825": 236,
        "2826": 59,
        "2827": 210,
        "2828": 95,
        "2829": 143,
        "2830": 216,
        "2831": 106,
        "2832": 169,
        "2833": 205,
        "2834": 114,
        "2835": 133,
        "2836": 241,
        "2837": 223,
        "2838": 16,
        "2839": 209,
        "2840": 177,
        "2841": 72,
        "2842": 49,
        "2843": 172,
        "2844": 224,
        "2845": 206,
        "2846": 41,
        "2847": 115,
        "2848": 192,
        "2849": 121,
        "2850": 202,
        "2851": 150,
        "2852": 230,
        "2853": 61,
        "2854": 107,
        "2855": 205,
        "2856": 0,
        "2857": 151,
        "2858": 196,
        "2859": 181,
        "2860": 114,
        "2861": 39,
        "2862": 154,
        "2863": 145,
        "2864": 199,
        "2865": 67,
        "2866": 240,
        "2867": 160,
        "2868": 113,
        "2869": 232,
        "2870": 78,
        "2871": 131,
        "2872": 132,
        "2873": 146,
        "2874": 77,
        "2875": 145,
        "2876": 87,
        "2877": 161,
        "2878": 252,
        "2879": 221,
        "2880": 117,
        "2881": 130,
        "2882": 63,
        "2883": 1,
        "2884": 50,
        "2885": 43,
        "2886": 57,
        "2887": 178,
        "2888": 210,
        "2889": 87,
        "2890": 79,
        "2891": 187,
        "2892": 91,
        "2893": 213,
        "2894": 134,
        "2895": 41,
        "2896": 12,
        "2897": 70,
        "2898": 8,
        "2899": 70,
        "2900": 103,
        "2901": 215,
        "2902": 112,
        "2903": 87,
        "2904": 20,
        "2905": 40,
        "2906": 24,
        "2907": 33,
        "2908": 165,
        "2909": 207,
        "2910": 17,
        "2911": 183,
        "2912": 7,
        "2913": 11,
        "2914": 53,
        "2915": 165,
        "2916": 19,
        "2917": 140,
        "2918": 246,
        "2919": 242,
        "2920": 128,
        "2921": 192,
        "2922": 151,
        "2923": 186,
        "2924": 121,
        "2925": 181,
        "2926": 26,
        "2927": 56,
        "2928": 37,
        "2929": 73,
        "2930": 166,
        "2931": 71,
        "2932": 127,
        "2933": 159,
        "2934": 243,
        "2935": 226,
        "2936": 107,
        "2937": 112,
        "2938": 154,
        "2939": 63,
        "2940": 84,
        "2941": 169,
        "2942": 19,
        "2943": 86,
        "2944": 71,
        "2945": 62,
        "2946": 160,
        "2947": 135,
        "2948": 58,
        "2949": 65,
        "2950": 132,
        "2951": 46,
        "2952": 26,
        "2953": 32,
        "2954": 127,
        "2955": 246,
        "2956": 172,
        "2957": 160,
        "2958": 140,
        "2959": 9,
        "2960": 193,
        "2961": 162,
        "2962": 186,
        "2963": 38,
        "2964": 114,
        "2965": 79,
        "2966": 13,
        "2967": 136,
        "2968": 26,
        "2969": 154,
        "2970": 86,
        "2971": 189,
        "2972": 245,
        "2973": 145,
        "2974": 200,
        "2975": 148,
        "2976": 80,
        "2977": 26,
        "2978": 29,
        "2979": 221,
        "2980": 67,
        "2981": 199,
        "2982": 23,
        "2983": 90,
        "2984": 184,
        "2985": 45,
        "2986": 215,
        "2987": 226,
        "2988": 222,
        "2989": 252,
        "2990": 131,
        "2991": 35,
        "2992": 116,
        "2993": 229,
        "2994": 164,
        "2995": 147,
        "2996": 33,
        "2997": 37,
        "2998": 67,
        "2999": 46,
        "3000": 195,
        "3001": 138,
        "3002": 43,
        "3003": 63,
        "3004": 244,
        "3005": 5,
        "3006": 194,
        "3007": 238,
        "3008": 112,
        "3009": 198,
        "3010": 62,
        "3011": 207,
        "3012": 200,
        "3013": 41,
        "3014": 133,
        "3015": 21,
        "3016": 241,
        "3017": 246,
        "3018": 68,
        "3019": 61,
        "3020": 31,
        "3021": 114,
        "3022": 1,
        "3023": 58,
        "3024": 228,
        "3025": 184,
        "3026": 40,
        "3027": 175,
        "3028": 84,
        "3029": 242,
        "3030": 66,
        "3031": 25,
        "3032": 175,
        "3033": 3,
        "3034": 124,
        "3035": 96,
        "3036": 32,
        "3037": 192,
        "3038": 196,
        "3039": 113,
        "3040": 223,
        "3041": 9,
        "3042": 181,
        "3043": 46,
        "3044": 156,
        "3045": 92,
        "3046": 188,
        "3047": 241,
        "3048": 160,
        "3049": 156,
        "3050": 167,
        "3051": 195,
        "3052": 168,
        "3053": 147,
        "3054": 160,
        "3055": 195,
        "3056": 242,
        "3057": 30,
        "3058": 140,
        "3059": 99,
        "3060": 252,
        "3061": 79,
        "3062": 34,
        "3063": 154,
        "3064": 145,
        "3065": 132,
        "3066": 185,
        "3067": 66,
        "3068": 1,
        "3069": 192,
        "3070": 225,
        "3071": 81,
        "3072": 49,
        "3073": 194,
        "3074": 178,
        "3075": 54,
        "3076": 92,
        "3077": 0,
        "3078": 250,
        "3079": 26,
        "3080": 240,
        "3081": 152,
        "3082": 8,
        "3083": 33,
        "3084": 47,
        "3085": 52,
        "3086": 178,
        "3087": 163,
        "3088": 217,
        "3089": 208,
        "3090": 238,
        "3091": 205,
        "3092": 80,
        "3093": 190,
        "3094": 5,
        "3095": 156,
        "3096": 250,
        "3097": 219,
        "3098": 138,
        "3099": 172,
        "3100": 51,
        "3101": 132,
        "3102": 220,
        "3103": 16,
        "3104": 136,
        "3105": 245,
        "3106": 199,
        "3107": 1,
        "3108": 25,
        "3109": 79,
        "3110": 0,
        "3111": 76,
        "3112": 131,
        "3113": 78,
        "3114": 254,
        "3115": 23,
        "3116": 157,
        "3117": 211,
        "3118": 233,
        "3119": 39,
        "3120": 191,
        "3121": 155,
        "3122": 122,
        "3123": 181,
        "3124": 101,
        "3125": 152,
        "3126": 79,
        "3127": 113,
        "3128": 182,
        "3129": 7,
        "3130": 219,
        "3131": 232,
        "3132": 125,
        "3133": 251,
        "3134": 90,
        "3135": 216,
        "3136": 57,
        "3137": 13,
        "3138": 186,
        "3139": 188,
        "3140": 219,
        "3141": 60,
        "3142": 165,
        "3143": 147,
        "3144": 245,
        "3145": 119,
        "3146": 1,
        "3147": 200,
        "3148": 116,
        "3149": 243,
        "3150": 140,
        "3151": 144,
        "3152": 128,
        "3153": 103,
        "3154": 196,
        "3155": 39,
        "3156": 253,
        "3157": 168,
        "3158": 252,
        "3159": 223,
        "3160": 44,
        "3161": 205,
        "3162": 49,
        "3163": 80,
        "3164": 96,
        "3165": 174,
        "3166": 33,
        "3167": 252,
        "3168": 60,
        "3169": 105,
        "3170": 120,
        "3171": 2,
        "3172": 50,
        "3173": 14,
        "3174": 84,
        "3175": 240,
        "3176": 60,
        "3177": 77,
        "3178": 43,
        "3179": 207,
        "3180": 190,
        "3181": 14,
        "3182": 13,
        "3183": 58,
        "3184": 66,
        "3185": 53,
        "3186": 101,
        "3187": 209,
        "3188": 120,
        "3189": 164,
        "3190": 105,
        "3191": 152,
        "3192": 184,
        "3193": 98,
        "3194": 21,
        "3195": 109,
        "3196": 200,
        "3197": 115,
        "3198": 89,
        "3199": 149,
        "3200": 10,
        "3201": 17,
        "3202": 233,
        "3203": 234,
        "3204": 189,
        "3205": 35,
        "3206": 171,
        "3207": 100,
        "3208": 79,
        "3209": 250,
        "3210": 153,
        "3211": 43,
        "3212": 141,
        "3213": 85,
        "3214": 54,
        "3215": 189,
        "3216": 63,
        "3217": 191,
        "3218": 182,
        "3219": 12,
        "3220": 117,
        "3221": 142,
        "3222": 215,
        "3223": 240,
        "3224": 196,
        "3225": 23,
        "3226": 20,
        "3227": 84,
        "3228": 163,
        "3229": 65,
        "3230": 171,
        "3231": 111,
        "3232": 135,
        "3233": 86,
        "3234": 50,
        "3235": 141,
        "3236": 189,
        "3237": 183,
        "3238": 66,
        "3239": 4,
        "3240": 24,
        "3241": 233,
        "3242": 224,
        "3243": 123,
        "3244": 43,
        "3245": 214,
        "3246": 92,
        "3247": 171,
        "3248": 178,
        "3249": 178,
        "3250": 104,
        "3251": 147,
        "3252": 239,
        "3253": 1,
        "3254": 122,
        "3255": 184,
        "3256": 162,
        "3257": 74,
        "3258": 108,
        "3259": 28,
        "3260": 126,
        "3261": 16,
        "3262": 148,
        "3263": 104,
        "3264": 155,
        "3265": 82,
        "3266": 50,
        "3267": 143,
        "3268": 162,
        "3269": 127,
        "3270": 15,
        "3271": 97,
        "3272": 241,
        "3273": 29,
        "3274": 215,
        "3275": 178,
        "3276": 37,
        "3277": 116,
        "3278": 88,
        "3279": 145,
        "3280": 118,
        "3281": 207,
        "3282": 198,
        "3283": 218,
        "3284": 52,
        "3285": 121,
        "3286": 86,
        "3287": 63,
        "3288": 68,
        "3289": 177,
        "3290": 57,
        "3291": 141,
        "3292": 18,
        "3293": 12,
        "3294": 174,
        "3295": 129,
        "3296": 237,
        "3297": 144,
        "3298": 216,
        "3299": 2,
        "3300": 52,
        "3301": 144,
        "3302": 93,
        "3303": 130,
        "3304": 251,
        "3305": 56,
        "3306": 239,
        "3307": 57,
        "3308": 78,
        "3309": 64,
        "3310": 204,
        "3311": 80,
        "3312": 124,
        "3313": 51,
        "3314": 230,
        "3315": 176,
        "3316": 140,
        "3317": 208,
        "3318": 151,
        "3319": 34,
        "3320": 246,
        "3321": 125,
        "3322": 15,
        "3323": 25,
        "3324": 250,
        "3325": 9,
        "3326": 122,
        "3327": 44,
        "3328": 250,
        "3329": 253,
        "3330": 248,
        "3331": 0,
        "3332": 252,
        "3333": 248,
        "3334": 229,
        "3335": 142,
        "3336": 35,
        "3337": 52,
        "3338": 77,
        "3339": 212,
        "3340": 128,
        "3341": 104,
        "3342": 87,
        "3343": 93,
        "3344": 146,
        "3345": 146,
        "3346": 76,
        "3347": 63,
        "3348": 81,
        "3349": 162,
        "3350": 225,
        "3351": 190,
        "3352": 45,
        "3353": 8,
        "3354": 180,
        "3355": 228,
        "3356": 137,
        "3357": 108,
        "3358": 196,
        "3359": 99,
        "3360": 25,
        "3361": 150,
        "3362": 27,
        "3363": 128,
        "3364": 143,
        "3365": 62,
        "3366": 153,
        "3367": 220,
        "3368": 195,
        "3369": 236,
        "3370": 232,
        "3371": 108,
        "3372": 59,
        "3373": 191,
        "3374": 187,
        "3375": 248,
        "3376": 158,
        "3377": 176,
        "3378": 62,
        "3379": 185,
        "3380": 197,
        "3381": 188,
        "3382": 235,
        "3383": 18,
        "3384": 192,
        "3385": 160,
        "3386": 166,
        "3387": 152,
        "3388": 196,
        "3389": 244,
        "3390": 142,
        "3391": 54,
        "3392": 184,
        "3393": 88,
        "3394": 90,
        "3395": 88,
        "3396": 103,
        "3397": 250,
        "3398": 143,
        "3399": 107,
        "3400": 14,
        "3401": 125,
        "3402": 43,
        "3403": 22,
        "3404": 205,
        "3405": 249,
        "3406": 136,
        "3407": 23,
        "3408": 223,
        "3409": 36,
        "3410": 254,
        "3411": 108,
        "3412": 120,
        "3413": 137,
        "3414": 94,
        "3415": 20,
        "3416": 31,
        "3417": 186,
        "3418": 196,
        "3419": 21,
        "3420": 2,
        "3421": 7,
        "3422": 223,
        "3423": 2,
        "3424": 90,
        "3425": 213,
        "3426": 202,
        "3427": 79,
        "3428": 186,
        "3429": 192,
        "3430": 137,
        "3431": 121,
        "3432": 50,
        "3433": 41,
        "3434": 0,
        "3435": 48,
        "3436": 126,
        "3437": 232,
        "3438": 22,
        "3439": 122,
        "3440": 107,
        "3441": 249,
        "3442": 173,
        "3443": 32,
        "3444": 99,
        "3445": 94,
        "3446": 38,
        "3447": 50,
        "3448": 254,
        "3449": 185,
        "3450": 121,
        "3451": 82,
        "3452": 138,
        "3453": 171,
        "3454": 161,
        "3455": 1,
        "3456": 175,
        "3457": 225,
        "3458": 52,
        "3459": 143,
        "3460": 234,
        "3461": 17,
        "3462": 72,
        "3463": 17,
        "3464": 113,
        "3465": 63,
        "3466": 166,
        "3467": 6,
        "3468": 67,
        "3469": 48,
        "3470": 123,
        "3471": 251,
        "3472": 101,
        "3473": 5,
        "3474": 106,
        "3475": 95,
        "3476": 67,
        "3477": 178,
        "3478": 111,
        "3479": 77,
        "3480": 71,
        "3481": 137,
        "3482": 33,
        "3483": 70,
        "3484": 0,
        "3485": 45,
        "3486": 208,
        "3487": 79,
        "3488": 137,
        "3489": 88,
        "3490": 222,
        "3491": 54,
        "3492": 244,
        "3493": 72,
        "3494": 2,
        "3495": 187,
        "3496": 238,
        "3497": 165,
        "3498": 102,
        "3499": 161,
        "3500": 186,
        "3501": 203,
        "3502": 24,
        "3503": 226,
        "3504": 77,
        "3505": 138,
        "3506": 232,
        "3507": 127,
        "3508": 160,
        "3509": 104,
        "3510": 174,
        "3511": 141,
        "3512": 83,
        "3513": 155,
        "3514": 197,
        "3515": 159,
        "3516": 118,
        "3517": 145,
        "3518": 154,
        "3519": 123,
        "3520": 215,
        "3521": 173,
        "3522": 44,
        "3523": 103,
        "3524": 194,
        "3525": 75,
        "3526": 197,
        "3527": 219,
        "3528": 175,
        "3529": 157,
        "3530": 216,
        "3531": 188,
        "3532": 59,
        "3533": 35,
        "3534": 36,
        "3535": 243,
        "3536": 198,
        "3537": 115,
        "3538": 184,
        "3539": 229,
        "3540": 197,
        "3541": 129,
        "3542": 50,
        "3543": 78,
        "3544": 197,
        "3545": 117,
        "3546": 151,
        "3547": 92,
        "3548": 101,
        "3549": 27,
        "3550": 130,
        "3551": 183,
        "3552": 109,
        "3553": 109,
        "3554": 21,
        "3555": 135,
        "3556": 117,
        "3557": 56,
        "3558": 169,
        "3559": 192,
        "3560": 23,
        "3561": 164,
        "3562": 126,
        "3563": 14,
        "3564": 110,
        "3565": 149,
        "3566": 200,
        "3567": 234,
        "3568": 254,
        "3569": 49,
        "3570": 188,
        "3571": 125,
        "3572": 81,
        "3573": 106,
        "3574": 203,
        "3575": 109,
        "3576": 221,
        "3577": 233,
        "3578": 218,
        "3579": 166,
        "3580": 249,
        "3581": 135,
        "3582": 80,
        "3583": 29,
        "3584": 244,
        "3585": 209,
        "3586": 132,
        "3587": 117,
        "3588": 233,
        "3589": 77,
        "3590": 208,
        "3591": 110,
        "3592": 80,
        "3593": 255,
        "3594": 3,
        "3595": 86,
        "3596": 223,
        "3597": 200,
        "3598": 83,
        "3599": 47,
        "3600": 190,
        "3601": 113,
        "3602": 159,
        "3603": 56,
        "3604": 175,
        "3605": 59,
        "3606": 255,
        "3607": 67,
        "3608": 156,
        "3609": 80,
        "3610": 116,
        "3611": 141,
        "3612": 209,
        "3613": 151,
        "3614": 24,
        "3615": 171,
        "3616": 242,
        "3617": 120,
        "3618": 43,
        "3619": 220,
        "3620": 208,
        "3621": 68,
        "3622": 3,
        "3623": 182,
        "3624": 35,
        "3625": 102,
        "3626": 44,
        "3627": 193,
        "3628": 64,
        "3629": 64,
        "3630": 10,
        "3631": 170,
        "3632": 73,
        "3633": 214,
        "3634": 31,
        "3635": 42,
        "3636": 18,
        "3637": 54,
        "3638": 102,
        "3639": 11,
        "3640": 41,
        "3641": 130,
        "3642": 161,
        "3643": 134,
        "3644": 48,
        "3645": 203,
        "3646": 208,
        "3647": 108,
        "3648": 212,
        "3649": 247,
        "3650": 71,
        "3651": 247,
        "3652": 74,
        "3653": 204,
        "3654": 173,
        "3655": 101,
        "3656": 124,
        "3657": 5,
        "3658": 204,
        "3659": 70,
        "3660": 125,
        "3661": 222,
        "3662": 155,
        "3663": 104,
        "3664": 215,
        "3665": 146,
        "3666": 48,
        "3667": 157,
        "3668": 217,
        "3669": 31,
        "3670": 192,
        "3671": 41,
        "3672": 192,
        "3673": 142,
        "3674": 70,
        "3675": 77,
        "3676": 81,
        "3677": 142,
        "3678": 184,
        "3679": 143,
        "3680": 72,
        "3681": 3,
        "3682": 86,
        "3683": 250,
        "3684": 202,
        "3685": 190,
        "3686": 103,
        "3687": 143,
        "3688": 37,
        "3689": 211,
        "3690": 143,
        "3691": 37,
        "3692": 48,
        "3693": 144,
        "3694": 40,
        "3695": 111,
        "3696": 242,
        "3697": 143,
        "3698": 114,
        "3699": 169,
        "3700": 198,
        "3701": 197,
        "3702": 199,
        "3703": 86,
        "3704": 191,
        "3705": 112,
        "3706": 15,
        "3707": 98,
        "3708": 184,
        "3709": 21,
        "3710": 246,
        "3711": 190,
        "3712": 250,
        "3713": 33,
        "3714": 21,
        "3715": 155,
        "3716": 17,
        "3717": 206,
        "3718": 79,
        "3719": 30,
        "3720": 23,
        "3721": 237,
        "3722": 195,
        "3723": 26,
        "3724": 88,
        "3725": 129,
        "3726": 134,
        "3727": 141,
        "3728": 13,
        "3729": 160,
        "3730": 216,
        "3731": 70,
        "3732": 5,
        "3733": 173,
        "3734": 200,
        "3735": 197,
        "3736": 225,
        "3737": 238,
        "3738": 200,
        "3739": 119,
        "3740": 250,
        "3741": 66,
        "3742": 151,
        "3743": 220,
        "3744": 247,
        "3745": 213,
        "3746": 58,
        "3747": 230,
        "3748": 153,
        "3749": 111,
        "3750": 156,
        "3751": 40,
        "3752": 44,
        "3753": 49,
        "3754": 9,
        "3755": 90,
        "3756": 104,
        "3757": 68,
        "3758": 93,
        "3759": 67,
        "3760": 149,
        "3761": 169,
        "3762": 34,
        "3763": 26,
        "3764": 240,
        "3765": 59,
        "3766": 151,
        "3767": 224,
        "3768": 126,
        "3769": 224,
        "3770": 88,
        "3771": 28,
        "3772": 240,
        "3773": 249,
        "3774": 84,
        "3775": 31,
        "3776": 116,
        "3777": 160,
        "3778": 115,
        "3779": 211,
        "3780": 218,
        "3781": 246,
        "3782": 101,
        "3783": 203,
        "3784": 151,
        "3785": 74,
        "3786": 99,
        "3787": 127,
        "3788": 168,
        "3789": 105,
        "3790": 22,
        "3791": 252,
        "3792": 160,
        "3793": 79,
        "3794": 7,
        "3795": 27,
        "3796": 143,
        "3797": 199,
        "3798": 209,
        "3799": 20,
        "3800": 232,
        "3801": 45,
        "3802": 154,
        "3803": 13,
        "3804": 171,
        "3805": 79,
        "3806": 198,
        "3807": 143,
        "3808": 131,
        "3809": 159,
        "3810": 140,
        "3811": 20,
        "3812": 26,
        "3813": 137,
        "3814": 116,
        "3815": 217,
        "3816": 200,
        "3817": 185,
        "3818": 95,
        "3819": 190,
        "3820": 50,
        "3821": 114,
        "3822": 167,
        "3823": 95,
        "3824": 141,
        "3825": 62,
        "3826": 70,
        "3827": 33,
        "3828": 210,
        "3829": 1,
        "3830": 82,
        "3831": 47,
        "3832": 172,
        "3833": 251,
        "3834": 20,
        "3835": 183,
        "3836": 159,
        "3837": 182,
        "3838": 9,
        "3839": 243,
        "3840": 54,
        "3841": 55,
        "3842": 110,
        "3843": 183,
        "3844": 59,
        "3845": 124,
        "3846": 241,
        "3847": 178,
        "3848": 103,
        "3849": 118,
        "3850": 37,
        "3851": 194,
        "3852": 218,
        "3853": 32,
        "3854": 246,
        "3855": 202,
        "3856": 205,
        "3857": 109,
        "3858": 183,
        "3859": 44,
        "3860": 137,
        "3861": 104,
        "3862": 31,
        "3863": 227,
        "3864": 89,
        "3865": 229,
        "3866": 142,
        "3867": 7,
        "3868": 115,
        "3869": 61,
        "3870": 54,
        "3871": 78,
        "3872": 251,
        "3873": 5,
        "3874": 1,
        "3875": 33,
        "3876": 30,
        "3877": 54,
        "3878": 120,
        "3879": 56,
        "3880": 175,
        "3881": 42,
        "3882": 107,
        "3883": 243,
        "3884": 50,
        "3885": 241,
        "3886": 230,
        "3887": 4,
        "3888": 148,
        "3889": 38,
        "3890": 125,
        "3891": 246,
        "3892": 181,
        "3893": 168,
        "3894": 71,
        "3895": 141,
        "3896": 36,
        "3897": 55,
        "3898": 109,
        "3899": 172,
        "3900": 122,
        "3901": 76,
        "3902": 238,
        "3903": 107,
        "3904": 22,
        "3905": 189,
        "3906": 59,
        "3907": 108,
        "3908": 70,
        "3909": 209,
        "3910": 61,
        "3911": 182,
        "3912": 118,
        "3913": 21,
        "3914": 76,
        "3915": 17,
        "3916": 33,
        "3917": 38,
        "3918": 3,
        "3919": 236,
        "3920": 38,
        "3921": 27,
        "3922": 178,
        "3923": 128,
        "3924": 0,
        "3925": 93,
        "3926": 104,
        "3927": 227,
        "3928": 45,
        "3929": 210,
        "3930": 188,
        "3931": 138,
        "3932": 194,
        "3933": 173,
        "3934": 244,
        "3935": 93,
        "3936": 51,
        "3937": 46,
        "3938": 49,
        "3939": 12,
        "3940": 2,
        "3941": 170,
        "3942": 117,
        "3943": 174,
        "3944": 72,
        "3945": 200,
        "3946": 131,
        "3947": 31,
        "3948": 7,
        "3949": 252,
        "3950": 71,
        "3951": 250,
        "3952": 175,
        "3953": 116,
        "3954": 138,
        "3955": 128,
        "3956": 151,
        "3957": 11,
        "3958": 20,
        "3959": 87,
        "3960": 253,
        "3961": 34,
        "3962": 47,
        "3963": 232,
        "3964": 218,
        "3965": 220,
        "3966": 208,
        "3967": 114,
        "3968": 201,
        "3969": 89,
        "3970": 97,
        "3971": 40,
        "3972": 17,
        "3973": 159,
        "3974": 156,
        "3975": 129,
        "3976": 215,
        "3977": 207,
        "3978": 211,
        "3979": 254,
        "3980": 247,
        "3981": 187,
        "3982": 244,
        "3983": 216,
        "3984": 225,
        "3985": 21,
        "3986": 111,
        "3987": 113,
        "3988": 77,
        "3989": 180,
        "3990": 213,
        "3991": 8,
        "3992": 190,
        "3993": 126,
        "3994": 245,
        "3995": 132,
        "3996": 49,
        "3997": 172,
        "3998": 152,
        "3999": 127,
        "4000": 148,
        "4001": 99,
        "4002": 211,
        "4003": 58,
        "4004": 142,
        "4005": 109,
        "4006": 127,
        "4007": 169,
        "4008": 153,
        "4009": 8,
        "4010": 97,
        "4011": 61,
        "4012": 111,
        "4013": 56,
        "4014": 77,
        "4015": 78,
        "4016": 245,
        "4017": 149,
        "4018": 252,
        "4019": 232,
        "4020": 22,
        "4021": 223,
        "4022": 222,
        "4023": 194,
        "4024": 14,
        "4025": 145,
        "4026": 49,
        "4027": 78,
        "4028": 153,
        "4029": 4,
        "4030": 77,
        "4031": 121,
        "4032": 52,
        "4033": 149,
        "4034": 41,
        "4035": 120,
        "4036": 194,
        "4037": 183,
        "4038": 137,
        "4039": 19,
        "4040": 178,
        "4041": 175,
        "4042": 11,
        "4043": 172,
        "4044": 212,
        "4045": 219,
        "4046": 211,
        "4047": 217,
        "4048": 234,
        "4049": 163,
        "4050": 131,
        "4051": 249,
        "4052": 102,
        "4053": 211,
        "4054": 152,
        "4055": 244,
        "4056": 168,
        "4057": 180,
        "4058": 117,
        "4059": 233,
        "4060": 126,
        "4061": 48,
        "4062": 110,
        "4063": 65,
        "4064": 56,
        "4065": 142,
        "4066": 160,
        "4067": 242,
        "4068": 116,
        "4069": 41,
        "4070": 9,
        "4071": 213,
        "4072": 110,
        "4073": 86,
        "4074": 88,
        "4075": 40,
        "4076": 163,
        "4077": 113,
        "4078": 24,
        "4079": 35,
        "4080": 173,
        "4081": 46,
        "4082": 43,
        "4083": 200,
        "4084": 45,
        "4085": 96,
        "4086": 233,
        "4087": 192,
        "4088": 79,
        "4089": 96,
        "4090": 24,
        "4091": 79,
        "4092": 153,
        "4093": 101,
        "4094": 178,
        "4095": 137,
        "4096": 109,
        "4097": 201,
        "4098": 126,
        "4099": 190,
        "4100": 176,
        "4101": 222,
        "4102": 250,
        "4103": 229,
        "4104": 143,
        "4105": 235,
        "4106": 214,
        "4107": 3,
        "4108": 95,
        "4109": 228,
        "4110": 111,
        "4111": 139,
        "4112": 44,
        "4113": 171,
        "4114": 153,
        "4115": 191,
        "4116": 230,
        "4117": 140,
        "4118": 28,
        "4119": 161,
        "4120": 10,
        "4121": 111,
        "4122": 240,
        "4123": 176,
        "4124": 196,
        "4125": 102,
        "4126": 15,
        "4127": 214,
        "4128": 97,
        "4129": 140,
        "4130": 249,
        "4131": 54,
        "4132": 159,
        "4133": 108,
        "4134": 72,
        "4135": 159,
        "4136": 200,
        "4137": 47,
        "4138": 182,
        "4139": 32,
        "4140": 156,
        "4141": 182,
        "4142": 221,
        "4143": 104,
        "4144": 186,
        "4145": 218,
        "4146": 25,
        "4147": 31,
        "4148": 69,
        "4149": 141,
        "4150": 190,
        "4151": 221,
        "4152": 233,
        "4153": 205,
        "4154": 7,
        "4155": 178,
        "4156": 94,
        "4157": 191,
        "4158": 220,
        "4159": 115,
        "4160": 249,
        "4161": 98,
        "4162": 2,
        "4163": 136,
        "4164": 54,
        "4165": 60,
        "4166": 41,
        "4167": 217,
        "4168": 182,
        "4169": 152,
        "4170": 209,
        "4171": 87,
        "4172": 214,
        "4173": 253,
        "4174": 169,
        "4175": 98,
        "4176": 54,
        "4177": 192,
        "4178": 170,
        "4179": 191,
        "4180": 37,
        "4181": 29,
        "4182": 96,
        "4183": 34,
        "4184": 15,
        "4185": 187,
        "4186": 254,
        "4187": 49,
        "4188": 220,
        "4189": 90,
        "4190": 128,
        "4191": 245,
        "4192": 72,
        "4193": 158,
        "4194": 53,
        "4195": 127,
        "4196": 106,
        "4197": 193,
        "4198": 85,
        "4199": 175,
        "4200": 74,
        "4201": 238,
        "4202": 41,
        "4203": 29,
        "4204": 177,
        "4205": 71,
        "4206": 87,
        "4207": 137,
        "4208": 59,
        "4209": 192,
        "4210": 16,
        "4211": 131,
        "4212": 134,
        "4213": 108,
        "4214": 70,
        "4215": 47,
        "4216": 187,
        "4217": 17,
        "4218": 72,
        "4219": 3,
        "4220": 249,
        "4221": 56,
        "4222": 138,
        "4223": 183,
        "4224": 251,
        "4225": 14,
        "4226": 123,
        "4227": 84,
        "4228": 37,
        "4229": 144,
        "4230": 231,
        "4231": 132,
        "4232": 14,
        "4233": 85,
        "4234": 121,
        "4235": 126,
        "4236": 199,
        "4237": 143,
        "4238": 180,
        "4239": 175,
        "4240": 235,
        "4241": 179,
        "4242": 17,
        "4243": 175,
        "4244": 2,
        "4245": 91,
        "4246": 22,
        "4247": 53,
        "4248": 207,
        "4249": 58,
        "4250": 2,
        "4251": 112,
        "4252": 188,
        "4253": 138,
        "4254": 33,
        "4255": 206,
        "4256": 138,
        "4257": 166,
        "4258": 62,
        "4259": 237,
        "4260": 253,
        "4261": 71,
        "4262": 21,
        "4263": 236,
        "4264": 12,
        "4265": 151,
        "4266": 111,
        "4267": 40,
        "4268": 130,
        "4269": 35,
        "4270": 103,
        "4271": 10,
        "4272": 120,
        "4273": 195,
        "4274": 74,
        "4275": 202,
        "4276": 159,
        "4277": 207,
        "4278": 94,
        "4279": 200,
        "4280": 242,
        "4281": 209,
        "4282": 117,
        "4283": 96,
        "4284": 179,
        "4285": 170,
        "4286": 6,
        "4287": 184,
        "4288": 33,
        "4289": 153,
        "4290": 141,
        "4291": 220,
        "4292": 135,
        "4293": 50,
        "4294": 155,
        "4295": 25,
        "4296": 204,
        "4297": 142,
        "4298": 53,
        "4299": 11,
        "4300": 154,
        "4301": 16,
        "4302": 111,
        "4303": 231,
        "4304": 1,
        "4305": 90,
        "4306": 125,
        "4307": 143,
        "4308": 61,
        "4309": 152,
        "4310": 217,
        "4311": 31,
        "4312": 156,
        "4313": 112,
        "4314": 64,
        "4315": 207,
        "4316": 135,
        "4317": 253,
        "4318": 205,
        "4319": 141,
        "4320": 201,
        "4321": 24,
        "4322": 166,
        "4323": 29,
        "4324": 24,
        "4325": 67,
        "4326": 187,
        "4327": 31,
        "4328": 180,
        "4329": 178,
        "4330": 190,
        "4331": 85,
        "4332": 55,
        "4333": 112,
        "4334": 207,
        "4335": 10,
        "4336": 30,
        "4337": 25,
        "4338": 45,
        "4339": 125,
        "4340": 101,
        "4341": 15,
        "4342": 104,
        "4343": 197,
        "4344": 36,
        "4345": 206,
        "4346": 199,
        "4347": 61,
        "4348": 84,
        "4349": 39,
        "4350": 249,
        "4351": 26,
        "4352": 22,
        "4353": 44,
        "4354": 231,
        "4355": 125,
        "4356": 89,
        "4357": 48,
        "4358": 111,
        "4359": 184,
        "4360": 72,
        "4361": 128,
        "4362": 135,
        "4363": 44,
        "4364": 78,
        "4365": 97,
        "4366": 231,
        "4367": 252,
        "4368": 182,
        "4369": 240,
        "4370": 127,
        "4371": 235,
        "4372": 74,
        "4373": 81,
        "4374": 242,
        "4375": 105,
        "4376": 253,
        "4377": 141,
        "4378": 125,
        "4379": 43,
        "4380": 187,
        "4381": 199,
        "4382": 141,
        "4383": 188,
        "4384": 48,
        "4385": 246,
        "4386": 27,
        "4387": 187,
        "4388": 79,
        "4389": 248,
        "4390": 98,
        "4391": 165,
        "4392": 213,
        "4393": 196,
        "4394": 131,
        "4395": 164,
        "4396": 37,
        "4397": 136,
        "4398": 112,
        "4399": 29,
        "4400": 235,
        "4401": 251,
        "4402": 244,
        "4403": 184,
        "4404": 109,
        "4405": 174,
        "4406": 128,
        "4407": 220,
        "4408": 251,
        "4409": 211,
        "4410": 202,
        "4411": 249,
        "4412": 153,
        "4413": 147,
        "4414": 64,
        "4415": 102,
        "4416": 128,
        "4417": 3,
        "4418": 143,
        "4419": 204,
        "4420": 150,
        "4421": 35,
        "4422": 219,
        "4423": 200,
        "4424": 93,
        "4425": 40,
        "4426": 4,
        "4427": 132,
        "4428": 161,
        "4429": 129,
        "4430": 110,
        "4431": 236,
        "4432": 211,
        "4433": 240,
        "4434": 40,
        "4435": 74,
        "4436": 197,
        "4437": 225,
        "4438": 27,
        "4439": 100,
        "4440": 229,
        "4441": 14,
        "4442": 190,
        "4443": 59,
        "4444": 243,
        "4445": 243,
        "4446": 21,
        "4447": 255,
        "4448": 31,
        "4449": 255,
        "4450": 124,
        "4451": 60,
        "4452": 85,
        "4453": 144,
        "4454": 230,
        "4455": 196,
        "4456": 90,
        "4457": 88,
        "4458": 97,
        "4459": 57,
        "4460": 75,
        "4461": 203,
        "4462": 109,
        "4463": 116,
        "4464": 205,
        "4465": 186,
        "4466": 204,
        "4467": 69,
        "4468": 2,
        "4469": 61,
        "4470": 201,
        "4471": 28,
        "4472": 181,
        "4473": 241,
        "4474": 28,
        "4475": 22,
        "4476": 137,
        "4477": 234,
        "4478": 152,
        "4479": 234,
        "4480": 75,
        "4481": 164,
        "4482": 34,
        "4483": 138,
        "4484": 251,
        "4485": 215,
        "4486": 121,
        "4487": 220,
        "4488": 38,
        "4489": 53,
        "4490": 24,
        "4491": 252,
        "4492": 206,
        "4493": 169,
        "4494": 170,
        "4495": 167,
        "4496": 234,
        "4497": 29,
        "4498": 18,
        "4499": 52,
        "4500": 112,
        "4501": 210,
        "4502": 70,
        "4503": 42,
        "4504": 119,
        "4505": 152,
        "4506": 90,
        "4507": 111,
        "4508": 23,
        "4509": 123,
        "4510": 241,
        "4511": 84,
        "4512": 122,
        "4513": 103,
        "4514": 41,
        "4515": 161,
        "4516": 173,
        "4517": 42,
        "4518": 108,
        "4519": 116,
        "4520": 84,
        "4521": 169,
        "4522": 79,
        "4523": 152,
        "4524": 251,
        "4525": 172,
        "4526": 42,
        "4527": 30,
        "4528": 53,
        "4529": 90,
        "4530": 245,
        "4531": 114,
        "4532": 87,
        "4533": 116,
        "4534": 55,
        "4535": 225,
        "4536": 99,
        "4537": 34,
        "4538": 235,
        "4539": 60,
        "4540": 123,
        "4541": 151,
        "4542": 216,
        "4543": 201,
        "4544": 63,
        "4545": 19,
        "4546": 218,
        "4547": 238,
        "4548": 53,
        "4549": 227,
        "4550": 67,
        "4551": 191,
        "4552": 148,
        "4553": 121,
        "4554": 83,
        "4555": 178,
        "4556": 88,
        "4557": 14,
        "4558": 168,
        "4559": 92,
        "4560": 172,
        "4561": 114,
        "4562": 161,
        "4563": 173,
        "4564": 161,
        "4565": 255,
        "4566": 183,
        "4567": 163,
        "4568": 39,
        "4569": 75,
        "4570": 40,
        "4571": 65,
        "4572": 250,
        "4573": 130,
        "4574": 171,
        "4575": 200,
        "4576": 99,
        "4577": 192,
        "4578": 83,
        "4579": 120,
        "4580": 255,
        "4581": 90,
        "4582": 251,
        "4583": 190,
        "4584": 19,
        "4585": 147,
        "4586": 66,
        "4587": 232,
        "4588": 184,
        "4589": 49,
        "4590": 253,
        "4591": 64,
        "4592": 188,
        "4593": 162,
        "4594": 129,
        "4595": 51,
        "4596": 24,
        "4597": 189,
        "4598": 147,
        "4599": 48,
        "4600": 93,
        "4601": 5,
        "4602": 175,
        "4603": 245,
        "4604": 36,
        "4605": 123,
        "4606": 218,
        "4607": 0,
        "4608": 235,
        "4609": 75,
        "4610": 164,
        "4611": 1,
        "4612": 24,
        "4613": 213,
        "4614": 46,
        "4615": 246,
        "4616": 255,
        "4617": 71,
        "4618": 255,
        "4619": 218,
        "4620": 161,
        "4621": 21,
        "4622": 206,
        "4623": 5,
        "4624": 118,
        "4625": 223,
        "4626": 36,
        "4627": 123,
        "4628": 232,
        "4629": 114,
        "4630": 56,
        "4631": 16,
        "4632": 37,
        "4633": 178,
        "4634": 8,
        "4635": 43,
        "4636": 216,
        "4637": 161,
        "4638": 209,
        "4639": 12,
        "4640": 81,
        "4641": 108,
        "4642": 77,
        "4643": 16,
        "4644": 24,
        "4645": 65,
        "4646": 201,
        "4647": 183,
        "4648": 176,
        "4649": 156,
        "4650": 113,
        "4651": 30,
        "4652": 79,
        "4653": 161,
        "4654": 250,
        "4655": 6,
        "4656": 233,
        "4657": 41,
        "4658": 65,
        "4659": 115,
        "4660": 50,
        "4661": 58,
        "4662": 177,
        "4663": 177,
        "4664": 177,
        "4665": 198,
        "4666": 253,
        "4667": 133,
        "4668": 70,
        "4669": 217,
        "4670": 217,
        "4671": 18,
        "4672": 36,
        "4673": 57,
        "4674": 84,
        "4675": 248,
        "4676": 84,
        "4677": 242,
        "4678": 155,
        "4679": 232,
        "4680": 96,
        "4681": 51,
        "4682": 119,
        "4683": 67,
        "4684": 36,
        "4685": 68,
        "4686": 132,
        "4687": 172,
        "4688": 25,
        "4689": 46,
        "4690": 255,
        "4691": 140,
        "4692": 149,
        "4693": 117,
        "4694": 250,
        "4695": 3,
        "4696": 220,
        "4697": 53,
        "4698": 190,
        "4699": 224,
        "4700": 233,
        "4701": 138,
        "4702": 107,
        "4703": 224,
        "4704": 227,
        "4705": 93,
        "4706": 158,
        "4707": 148,
        "4708": 35,
        "4709": 225,
        "4710": 66,
        "4711": 101,
        "4712": 30,
        "4713": 70,
        "4714": 144,
        "4715": 190,
        "4716": 37,
        "4717": 12,
        "4718": 59,
        "4719": 66,
        "4720": 35,
        "4721": 183,
        "4722": 240,
        "4723": 24,
        "4724": 120,
        "4725": 3,
        "4726": 95,
        "4727": 161,
        "4728": 61,
        "4729": 236,
        "4730": 182,
        "4731": 142,
        "4732": 226,
        "4733": 46,
        "4734": 3,
        "4735": 187,
        "4736": 148,
        "4737": 165,
        "4738": 58,
        "4739": 68,
        "4740": 129,
        "4741": 143,
        "4742": 132,
        "4743": 34,
        "4744": 69,
        "4745": 255,
        "4746": 10,
        "4747": 31,
        "4748": 138,
        "4749": 30,
        "4750": 51,
        "4751": 127,
        "4752": 243,
        "4753": 165,
        "4754": 183,
        "4755": 103,
        "4756": 240,
        "4757": 195,
        "4758": 47,
        "4759": 32,
        "4760": 252,
        "4761": 146,
        "4762": 135,
        "4763": 194,
        "4764": 165,
        "4765": 117,
        "4766": 207,
        "4767": 212,
        "4768": 36,
        "4769": 29,
        "4770": 60,
        "4771": 93,
        "4772": 192,
        "4773": 31,
        "4774": 97,
        "4775": 50,
        "4776": 164,
        "4777": 141,
        "4778": 69,
        "4779": 194,
        "4780": 153,
        "4781": 45,
        "4782": 234,
        "4783": 160,
        "4784": 38,
        "4785": 39,
        "4786": 140,
        "4787": 189,
        "4788": 228,
        "4789": 35,
        "4790": 174,
        "4791": 136,
        "4792": 194,
        "4793": 84,
        "4794": 211,
        "4795": 60,
        "4796": 222,
        "4797": 36,
        "4798": 125,
        "4799": 144,
        "4800": 131,
        "4801": 192,
        "4802": 94,
        "4803": 62,
        "4804": 44,
        "4805": 228,
        "4806": 35,
        "4807": 220,
        "4808": 235,
        "4809": 232,
        "4810": 189,
        "4811": 232,
        "4812": 97,
        "4813": 73,
        "4814": 80,
        "4815": 63,
        "4816": 199,
        "4817": 21,
        "4818": 93,
        "4819": 17,
        "4820": 158,
        "4821": 32,
        "4822": 244,
        "4823": 232,
        "4824": 221,
        "4825": 249,
        "4826": 165,
        "4827": 220,
        "4828": 217,
        "4829": 124,
        "4830": 243,
        "4831": 177,
        "4832": 153,
        "4833": 181,
        "4834": 97,
        "4835": 239,
        "4836": 111,
        "4837": 60,
        "4838": 164,
        "4839": 230,
        "4840": 254,
        "4841": 138,
        "4842": 195,
        "4843": 180,
        "4844": 232,
        "4845": 119,
        "4846": 98,
        "4847": 168,
        "4848": 121,
        "4849": 186,
        "4850": 172,
        "4851": 73,
        "4852": 63,
        "4853": 54,
        "4854": 107,
        "4855": 132,
        "4856": 165,
        "4857": 143,
        "4858": 227,
        "4859": 135,
        "4860": 181,
        "4861": 92,
        "4862": 187,
        "4863": 96,
        "4864": 223,
        "4865": 125,
        "4866": 55,
        "4867": 152,
        "4868": 193,
        "4869": 49,
        "4870": 231,
        "4871": 24,
        "4872": 17,
        "4873": 77,
        "4874": 77,
        "4875": 162,
        "4876": 232,
        "4877": 155,
        "4878": 224,
        "4879": 88,
        "4880": 193,
        "4881": 170,
        "4882": 254,
        "4883": 145,
        "4884": 215,
        "4885": 134,
        "4886": 119,
        "4887": 127,
        "4888": 130,
        "4889": 7,
        "4890": 155,
        "4891": 68,
        "4892": 175,
        "4893": 24,
        "4894": 24,
        "4895": 46,
        "4896": 65,
        "4897": 201,
        "4898": 202,
        "4899": 177,
        "4900": 181,
        "4901": 10,
        "4902": 162,
        "4903": 187,
        "4904": 244,
        "4905": 47,
        "4906": 87,
        "4907": 213,
        "4908": 188,
        "4909": 217,
        "4910": 223,
        "4911": 87,
        "4912": 37,
        "4913": 226,
        "4914": 97,
        "4915": 116,
        "4916": 65,
        "4917": 94,
        "4918": 93,
        "4919": 186,
        "4920": 25,
        "4921": 239,
        "4922": 189,
        "4923": 186,
        "4924": 1,
        "4925": 19,
        "4926": 77,
        "4927": 225,
        "4928": 253,
        "4929": 152,
        "4930": 251,
        "4931": 108,
        "4932": 186,
        "4933": 182,
        "4934": 83,
        "4935": 33,
        "4936": 149,
        "4937": 56,
        "4938": 241,
        "4939": 56,
        "4940": 156,
        "4941": 117,
        "4942": 63,
        "4943": 49,
        "4944": 50,
        "4945": 130,
        "4946": 217,
        "4947": 233,
        "4948": 112,
        "4949": 103,
        "4950": 78,
        "4951": 67,
        "4952": 145,
        "4953": 153,
        "4954": 229,
        "4955": 178,
        "4956": 91,
        "4957": 76,
        "4958": 211,
        "4959": 10,
        "4960": 142,
        "4961": 96,
        "4962": 254,
        "4963": 215,
        "4964": 139,
        "4965": 243,
        "4966": 210,
        "4967": 89,
        "4968": 56,
        "4969": 77,
        "4970": 221,
        "4971": 126,
        "4972": 103,
        "4973": 109,
        "4974": 139,
        "4975": 69,
        "4976": 82,
        "4977": 154,
        "4978": 78,
        "4979": 70,
        "4980": 20,
        "4981": 254,
        "4982": 41,
        "4983": 255,
        "4984": 218,
        "4985": 238,
        "4986": 234,
        "4987": 216,
        "4988": 162,
        "4989": 147,
        "4990": 158,
        "4991": 209,
        "4992": 97,
        "4993": 16,
        "4994": 230,
        "4995": 176,
        "4996": 96,
        "4997": 134,
        "4998": 90,
        "4999": 12,
        "5000": 28,
        "5001": 49,
        "5002": 87,
        "5003": 150,
        "5004": 156,
        "5005": 0,
        "5006": 82,
        "5007": 110,
        "5008": 242,
        "5009": 20,
        "5010": 25,
        "5011": 58,
        "5012": 169,
        "5013": 255,
        "5014": 14,
        "5015": 105,
        "5016": 161,
        "5017": 200,
        "5018": 63,
        "5019": 230,
        "5020": 83,
        "5021": 89,
        "5022": 138,
        "5023": 94,
        "5024": 243,
        "5025": 206,
        "5026": 104,
        "5027": 75,
        "5028": 199,
        "5029": 189,
        "5030": 77,
        "5031": 146,
        "5032": 205,
        "5033": 68,
        "5034": 65,
        "5035": 72,
        "5036": 98,
        "5037": 171,
        "5038": 199,
        "5039": 43,
        "5040": 61,
        "5041": 48,
        "5042": 96,
        "5043": 102,
        "5044": 80,
        "5045": 235,
        "5046": 63,
        "5047": 161,
        "5048": 230,
        "5049": 180,
        "5050": 150,
        "5051": 217,
        "5052": 101,
        "5053": 241,
        "5054": 90,
        "5055": 161,
        "5056": 17,
        "5057": 131,
        "5058": 103,
        "5059": 149,
        "5060": 76,
        "5061": 214,
        "5062": 6,
        "5063": 81,
        "5064": 184,
        "5065": 80,
        "5066": 45,
        "5067": 52,
        "5068": 92,
        "5069": 230,
        "5070": 84,
        "5071": 204,
        "5072": 76,
        "5073": 15,
        "5074": 25,
        "5075": 54,
        "5076": 247,
        "5077": 116,
        "5078": 106,
        "5079": 79,
        "5080": 130,
        "5081": 15,
        "5082": 9,
        "5083": 58,
        "5084": 200,
        "5085": 154,
        "5086": 59,
        "5087": 14,
        "5088": 79,
        "5089": 91,
        "5090": 243,
        "5091": 106,
        "5092": 43,
        "5093": 171,
        "5094": 187,
        "5095": 74,
        "5096": 163,
        "5097": 160,
        "5098": 143,
        "5099": 152,
        "5100": 28,
        "5101": 101,
        "5102": 177,
        "5103": 252,
        "5104": 238,
        "5105": 82,
        "5106": 247,
        "5107": 210,
        "5108": 234,
        "5109": 172,
        "5110": 20,
        "5111": 215,
        "5112": 197,
        "5113": 114,
        "5114": 166,
        "5115": 132,
        "5116": 138,
        "5117": 195,
        "5118": 232,
        "5119": 80,
        "5120": 180,
        "5121": 80,
        "5122": 151,
        "5123": 117,
        "5124": 112,
        "5125": 218,
        "5126": 78,
        "5127": 50,
        "5128": 67,
        "5129": 157,
        "5130": 69,
        "5131": 61,
        "5132": 182,
        "5133": 15,
        "5134": 70,
        "5135": 52,
        "5136": 2,
        "5137": 175,
        "5138": 207,
        "5139": 54,
        "5140": 35,
        "5141": 132,
        "5142": 177,
        "5143": 126,
        "5144": 108,
        "5145": 216,
        "5146": 98,
        "5147": 102,
        "5148": 92,
        "5149": 245,
        "5150": 238,
        "5151": 44,
        "5152": 109,
        "5153": 76,
        "5154": 113,
        "5155": 224,
        "5156": 16,
        "5157": 206,
        "5158": 101,
        "5159": 96,
        "5160": 179,
        "5161": 45,
        "5162": 254,
        "5163": 98,
        "5164": 16,
        "5165": 171,
        "5166": 241,
        "5167": 250,
        "5168": 38,
        "5169": 218,
        "5170": 217,
        "5171": 48,
        "5172": 64,
        "5173": 163,
        "5174": 208,
        "5175": 148,
        "5176": 83,
        "5177": 96,
        "5178": 81,
        "5179": 129,
        "5180": 221,
        "5181": 248,
        "5182": 97,
        "5183": 68,
        "5184": 138,
        "5185": 163,
        "5186": 223,
        "5187": 234,
        "5188": 188,
        "5189": 16,
        "5190": 139,
        "5191": 65,
        "5192": 22,
        "5193": 203,
        "5194": 40,
        "5195": 251,
        "5196": 251,
        "5197": 53,
        "5198": 55,
        "5199": 191,
        "5200": 84,
        "5201": 83,
        "5202": 247,
        "5203": 43,
        "5204": 200,
        "5205": 113,
        "5206": 61,
        "5207": 254,
        "5208": 180,
        "5209": 145,
        "5210": 106,
        "5211": 83,
        "5212": 119,
        "5213": 232,
        "5214": 34,
        "5215": 35,
        "5216": 78,
        "5217": 224,
        "5218": 88,
        "5219": 223,
        "5220": 162,
        "5221": 252,
        "5222": 116,
        "5223": 195,
        "5224": 107,
        "5225": 35,
        "5226": 219,
        "5227": 167,
        "5228": 153,
        "5229": 29,
        "5230": 190,
        "5231": 62,
        "5232": 15,
        "5233": 206,
        "5234": 124,
        "5235": 236,
        "5236": 178,
        "5237": 62,
        "5238": 21,
        "5239": 144,
        "5240": 144,
        "5241": 100,
        "5242": 23,
        "5243": 205,
        "5244": 9,
        "5245": 106,
        "5246": 84,
        "5247": 118,
        "5248": 150,
        "5249": 183,
        "5250": 58,
        "5251": 139,
        "5252": 126,
        "5253": 142,
        "5254": 13,
        "5255": 190,
        "5256": 14,
        "5257": 64,
        "5258": 218,
        "5259": 63,
        "5260": 37,
        "5261": 234,
        "5262": 60,
        "5263": 54,
        "5264": 103,
        "5265": 128,
        "5266": 252,
        "5267": 120,
        "5268": 210,
        "5269": 164,
        "5270": 94,
        "5271": 166,
        "5272": 71,
        "5273": 154,
        "5274": 21,
        "5275": 108,
        "5276": 67,
        "5277": 113,
        "5278": 112,
        "5279": 20,
        "5280": 87,
        "5281": 176,
        "5282": 98,
        "5283": 222,
        "5284": 194,
        "5285": 151,
        "5286": 83,
        "5287": 161,
        "5288": 81,
        "5289": 170,
        "5290": 37,
        "5291": 17,
        "5292": 103,
        "5293": 200,
        "5294": 59,
        "5295": 122,
        "5296": 28,
        "5297": 90,
        "5298": 233,
        "5299": 142,
        "5300": 225,
        "5301": 116,
        "5302": 177,
        "5303": 220,
        "5304": 95,
        "5305": 124,
        "5306": 154,
        "5307": 180,
        "5308": 131,
        "5309": 39,
        "5310": 154,
        "5311": 218,
        "5312": 16,
        "5313": 127,
        "5314": 233,
        "5315": 227,
        "5316": 18,
        "5317": 215,
        "5318": 6,
        "5319": 160,
        "5320": 245,
        "5321": 234,
        "5322": 147,
        "5323": 56,
        "5324": 87,
        "5325": 208,
        "5326": 193,
        "5327": 240,
        "5328": 195,
        "5329": 164,
        "5330": 196,
        "5331": 64,
        "5332": 180,
        "5333": 5,
        "5334": 246,
        "5335": 205,
        "5336": 161,
        "5337": 237,
        "5338": 171,
        "5339": 89,
        "5340": 52,
        "5341": 130,
        "5342": 238,
        "5343": 239,
        "5344": 48,
        "5345": 177,
        "5346": 153,
        "5347": 68,
        "5348": 189,
        "5349": 165,
        "5350": 92,
        "5351": 176,
        "5352": 85,
        "5353": 239,
        "5354": 5,
        "5355": 255,
        "5356": 32,
        "5357": 28,
        "5358": 52,
        "5359": 125,
        "5360": 118,
        "5361": 101,
        "5362": 250,
        "5363": 115,
        "5364": 80,
        "5365": 111,
        "5366": 87,
        "5367": 92,
        "5368": 182,
        "5369": 207,
        "5370": 226,
        "5371": 222,
        "5372": 231,
        "5373": 249,
        "5374": 157,
        "5375": 9,
        "5376": 44,
        "5377": 43,
        "5378": 3,
        "5379": 75,
        "5380": 221,
        "5381": 246,
        "5382": 50,
        "5383": 149,
        "5384": 149,
        "5385": 150,
        "5386": 92,
        "5387": 122,
        "5388": 1,
        "5389": 61,
        "5390": 4,
        "5391": 165,
        "5392": 57,
        "5393": 236,
        "5394": 106,
        "5395": 165,
        "5396": 79,
        "5397": 38,
        "5398": 76,
        "5399": 104,
        "5400": 191,
        "5401": 188,
        "5402": 10,
        "5403": 125,
        "5404": 213,
        "5405": 228,
        "5406": 85,
        "5407": 148,
        "5408": 175,
        "5409": 121,
        "5410": 67,
        "5411": 71,
        "5412": 216,
        "5413": 205,
        "5414": 254,
        "5415": 39,
        "5416": 14,
        "5417": 213,
        "5418": 130,
        "5419": 21,
        "5420": 81,
        "5421": 58,
        "5422": 5,
        "5423": 230,
        "5424": 157,
        "5425": 238,
        "5426": 192,
        "5427": 142,
        "5428": 16,
        "5429": 184,
        "5430": 81,
        "5431": 186,
        "5432": 72,
        "5433": 30,
        "5434": 145,
        "5435": 61,
        "5436": 99,
        "5437": 148,
        "5438": 60,
        "5439": 46,
        "5440": 195,
        "5441": 148,
        "5442": 49,
        "5443": 85,
        "5444": 90,
        "5445": 98,
        "5446": 44,
        "5447": 100,
        "5448": 107,
        "5449": 171,
        "5450": 167,
        "5451": 229,
        "5452": 205,
        "5453": 2,
        "5454": 77,
        "5455": 143,
        "5456": 80,
        "5457": 190,
        "5458": 190,
        "5459": 56,
        "5460": 106,
        "5461": 38,
        "5462": 79,
        "5463": 237,
        "5464": 3,
        "5465": 160,
        "5466": 24,
        "5467": 19,
        "5468": 192,
        "5469": 250,
        "5470": 144,
        "5471": 148,
        "5472": 255,
        "5473": 41,
        "5474": 51,
        "5475": 118,
        "5476": 209,
        "5477": 213,
        "5478": 140,
        "5479": 245,
        "5480": 171,
        "5481": 201,
        "5482": 14,
        "5483": 13,
        "5484": 30,
        "5485": 103,
        "5486": 160,
        "5487": 194,
        "5488": 76,
        "5489": 206,
        "5490": 141,
        "5491": 234,
        "5492": 89,
        "5493": 36,
        "5494": 248,
        "5495": 85,
        "5496": 187,
        "5497": 140,
        "5498": 44,
        "5499": 174,
        "5500": 162,
        "5501": 91,
        "5502": 165,
        "5503": 68,
        "5504": 215,
        "5505": 225,
        "5506": 68,
        "5507": 197,
        "5508": 66,
        "5509": 99,
        "5510": 213,
        "5511": 34,
        "5512": 137,
        "5513": 112,
        "5514": 3,
        "5515": 22,
        "5516": 46,
        "5517": 112,
        "5518": 178,
        "5519": 42,
        "5520": 108,
        "5521": 73,
        "5522": 19,
        "5523": 73,
        "5524": 175,
        "5525": 250,
        "5526": 37,
        "5527": 76,
        "5528": 198,
        "5529": 135,
        "5530": 153,
        "5531": 184,
        "5532": 107,
        "5533": 184,
        "5534": 56,
        "5535": 118,
        "5536": 125,
        "5537": 236,
        "5538": 199,
        "5539": 77,
        "5540": 99,
        "5541": 36,
        "5542": 190,
        "5543": 157,
        "5544": 153,
        "5545": 151,
        "5546": 110,
        "5547": 75,
        "5548": 76,
        "5549": 231,
        "5550": 176,
        "5551": 57,
        "5552": 236,
        "5553": 197,
        "5554": 74,
        "5555": 30,
        "5556": 45,
        "5557": 60,
        "5558": 79,
        "5559": 230,
        "5560": 213,
        "5561": 10,
        "5562": 112,
        "5563": 103,
        "5564": 23,
        "5565": 20,
        "5566": 169,
        "5567": 109,
        "5568": 139,
        "5569": 230,
        "5570": 236,
        "5571": 114,
        "5572": 192,
        "5573": 79,
        "5574": 225,
        "5575": 86,
        "5576": 94,
        "5577": 17,
        "5578": 25,
        "5579": 140,
        "5580": 87,
        "5581": 125,
        "5582": 95,
        "5583": 141,
        "5584": 209,
        "5585": 114,
        "5586": 138,
        "5587": 55,
        "5588": 216,
        "5589": 54,
        "5590": 112,
        "5591": 236,
        "5592": 148,
        "5593": 188,
        "5594": 22,
        "5595": 5,
        "5596": 146,
        "5597": 126,
        "5598": 142,
        "5599": 27,
        "5600": 177,
        "5601": 67,
        "5602": 116,
        "5603": 108,
        "5604": 253,
        "5605": 62,
        "5606": 90,
        "5607": 231,
        "5608": 180,
        "5609": 228,
        "5610": 254,
        "5611": 196,
        "5612": 65,
        "5613": 184,
        "5614": 140,
        "5615": 209,
        "5616": 29,
        "5617": 215,
        "5618": 136,
        "5619": 25,
        "5620": 225,
        "5621": 183,
        "5622": 108,
        "5623": 182,
        "5624": 150,
        "5625": 240,
        "5626": 214,
        "5627": 123,
        "5628": 192,
        "5629": 182,
        "5630": 218,
        "5631": 8,
        "5632": 59,
        "5633": 59,
        "5634": 210,
        "5635": 245,
        "5636": 38,
        "5637": 213,
        "5638": 240,
        "5639": 160,
        "5640": 233,
        "5641": 116,
        "5642": 199,
        "5643": 217,
        "5644": 2,
        "5645": 208,
        "5646": 178,
        "5647": 252,
        "5648": 6,
        "5649": 67,
        "5650": 115,
        "5651": 208,
        "5652": 228,
        "5653": 11,
        "5654": 154,
        "5655": 205,
        "5656": 201,
        "5657": 117,
        "5658": 224,
        "5659": 27,
        "5660": 0,
        "5661": 241,
        "5662": 16,
        "5663": 206,
        "5664": 203,
        "5665": 38,
        "5666": 59,
        "5667": 86,
        "5668": 88,
        "5669": 167,
        "5670": 41,
        "5671": 149,
        "5672": 16,
        "5673": 120,
        "5674": 185,
        "5675": 110,
        "5676": 191,
        "5677": 215,
        "5678": 194,
        "5679": 190,
        "5680": 74,
        "5681": 18,
        "5682": 35,
        "5683": 137,
        "5684": 83,
        "5685": 14,
        "5686": 64,
        "5687": 126,
        "5688": 194,
        "5689": 247,
        "5690": 208,
        "5691": 250,
        "5692": 152,
        "5693": 196,
        "5694": 13,
        "5695": 98,
        "5696": 115,
        "5697": 255,
        "5698": 251,
        "5699": 234,
        "5700": 12,
        "5701": 146,
        "5702": 140,
        "5703": 238,
        "5704": 161,
        "5705": 250,
        "5706": 74,
        "5707": 62,
        "5708": 172,
        "5709": 248,
        "5710": 152,
        "5711": 14,
        "5712": 44,
        "5713": 38,
        "5714": 58,
        "5715": 8,
        "5716": 169,
        "5717": 231,
        "5718": 205,
        "5719": 92,
        "5720": 74,
        "5721": 9,
        "5722": 79,
        "5723": 124,
        "5724": 4,
        "5725": 130,
        "5726": 31,
        "5727": 27,
        "5728": 142,
        "5729": 29,
        "5730": 43,
        "5731": 19,
        "5732": 24,
        "5733": 39,
        "5734": 230,
        "5735": 124,
        "5736": 21,
        "5737": 45,
        "5738": 81,
        "5739": 232,
        "5740": 155,
        "5741": 75,
        "5742": 57,
        "5743": 243,
        "5744": 211,
        "5745": 29,
        "5746": 70,
        "5747": 223,
        "5748": 2,
        "5749": 69,
        "5750": 218,
        "5751": 226,
        "5752": 117,
        "5753": 83,
        "5754": 44,
        "5755": 202,
        "5756": 63,
        "5757": 9,
        "5758": 98,
        "5759": 213,
        "5760": 85,
        "5761": 156,
        "5762": 163,
        "5763": 109,
        "5764": 95,
        "5765": 48,
        "5766": 44,
        "5767": 70,
        "5768": 175,
        "5769": 62,
        "5770": 181,
        "5771": 117,
        "5772": 23,
        "5773": 24,
        "5774": 103,
        "5775": 236,
        "5776": 223,
        "5777": 62,
        "5778": 125,
        "5779": 90,
        "5780": 176,
        "5781": 161,
        "5782": 171,
        "5783": 166,
        "5784": 9,
        "5785": 57,
        "5786": 210,
        "5787": 22,
        "5788": 7,
        "5789": 169,
        "5790": 121,
        "5791": 98,
        "5792": 173,
        "5793": 14,
        "5794": 33,
        "5795": 75,
        "5796": 49,
        "5797": 27,
        "5798": 192,
        "5799": 99,
        "5800": 54,
        "5801": 223,
        "5802": 99,
        "5803": 52,
        "5804": 61,
        "5805": 81,
        "5806": 78,
        "5807": 224,
        "5808": 139,
        "5809": 1,
        "5810": 214,
        "5811": 59,
        "5812": 173,
        "5813": 160,
        "5814": 205,
        "5815": 109,
        "5816": 235,
        "5817": 194,
        "5818": 87,
        "5819": 204,
        "5820": 42,
        "5821": 128,
        "5822": 64,
        "5823": 117,
        "5824": 184,
        "5825": 126,
        "5826": 21,
        "5827": 126,
        "5828": 183,
        "5829": 91,
        "5830": 53,
        "5831": 32,
        "5832": 31,
        "5833": 154,
        "5834": 139,
        "5835": 84,
        "5836": 110,
        "5837": 86,
        "5838": 113,
        "5839": 17,
        "5840": 232,
        "5841": 27,
        "5842": 101,
        "5843": 79,
        "5844": 26,
        "5845": 201,
        "5846": 109,
        "5847": 134,
        "5848": 98,
        "5849": 185,
        "5850": 105,
        "5851": 237,
        "5852": 47,
        "5853": 127,
        "5854": 139,
        "5855": 103,
        "5856": 247,
        "5857": 20,
        "5858": 54,
        "5859": 180,
        "5860": 94,
        "5861": 249,
        "5862": 207,
        "5863": 205,
        "5864": 16,
        "5865": 69,
        "5866": 128,
        "5867": 43,
        "5868": 198,
        "5869": 42,
        "5870": 58,
        "5871": 212,
        "5872": 232,
        "5873": 228,
        "5874": 152,
        "5875": 199,
        "5876": 32,
        "5877": 65,
        "5878": 173,
        "5879": 162,
        "5880": 214,
        "5881": 173,
        "5882": 248,
        "5883": 48,
        "5884": 250,
        "5885": 191,
        "5886": 39,
        "5887": 86,
        "5888": 147,
        "5889": 116,
        "5890": 208,
        "5891": 33,
        "5892": 205,
        "5893": 206,
        "5894": 124,
        "5895": 100,
        "5896": 167,
        "5897": 225,
        "5898": 196,
        "5899": 173,
        "5900": 140,
        "5901": 104,
        "5902": 177,
        "5903": 48,
        "5904": 155,
        "5905": 26,
        "5906": 88,
        "5907": 183,
        "5908": 228,
        "5909": 194,
        "5910": 117,
        "5911": 73,
        "5912": 220,
        "5913": 46,
        "5914": 5,
        "5915": 180,
        "5916": 121,
        "5917": 216,
        "5918": 174,
        "5919": 55,
        "5920": 29,
        "5921": 80,
        "5922": 137,
        "5923": 38,
        "5924": 15,
        "5925": 56,
        "5926": 244,
        "5927": 176,
        "5928": 213,
        "5929": 153,
        "5930": 183,
        "5931": 24,
        "5932": 27,
        "5933": 86,
        "5934": 201,
        "5935": 0,
        "5936": 65,
        "5937": 206,
        "5938": 36,
        "5939": 4,
        "5940": 166,
        "5941": 2,
        "5942": 58,
        "5943": 147,
        "5944": 30,
        "5945": 17,
        "5946": 242,
        "5947": 21,
        "5948": 148,
        "5949": 152,
        "5950": 254,
        "5951": 44,
        "5952": 64,
        "5953": 109,
        "5954": 32,
        "5955": 26,
        "5956": 168,
        "5957": 178,
        "5958": 113,
        "5959": 89,
        "5960": 107,
        "5961": 77,
        "5962": 68,
        "5963": 158,
        "5964": 233,
        "5965": 15,
        "5966": 227,
        "5967": 175,
        "5968": 209,
        "5969": 193,
        "5970": 87,
        "5971": 153,
        "5972": 136,
        "5973": 62,
        "5974": 122,
        "5975": 12,
        "5976": 223,
        "5977": 56,
        "5978": 140,
        "5979": 233,
        "5980": 2,
        "5981": 39,
        "5982": 37,
        "5983": 141,
        "5984": 218,
        "5985": 115,
        "5986": 160,
        "5987": 70,
        "5988": 94,
        "5989": 170,
        "5990": 104,
        "5991": 187,
        "5992": 50,
        "5993": 200,
        "5994": 192,
        "5995": 165,
        "5996": 190,
        "5997": 117,
        "5998": 251,
        "5999": 3,
        "6000": 186,
        "6001": 199,
        "6002": 3,
        "6003": 96,
        "6004": 58,
        "6005": 77,
        "6006": 51,
        "6007": 251,
        "6008": 247,
        "6009": 129,
        "6010": 161,
        "6011": 9,
        "6012": 18,
        "6013": 54,
        "6014": 133,
        "6015": 255,
        "6016": 105,
        "6017": 254,
        "6018": 17,
        "6019": 243,
        "6020": 145,
        "6021": 228,
        "6022": 92,
        "6023": 21,
        "6024": 182,
        "6025": 14,
        "6026": 176,
        "6027": 157,
        "6028": 207,
        "6029": 113,
        "6030": 104,
        "6031": 161,
        "6032": 156,
        "6033": 31,
        "6034": 26,
        "6035": 49,
        "6036": 247,
        "6037": 204,
        "6038": 149,
        "6039": 115,
        "6040": 131,
        "6041": 112,
        "6042": 95,
        "6043": 64,
        "6044": 240,
        "6045": 173,
        "6046": 187,
        "6047": 75,
        "6048": 140,
        "6049": 4,
        "6050": 192,
        "6051": 142,
        "6052": 128,
        "6053": 194,
        "6054": 34,
        "6055": 92,
        "6056": 194,
        "6057": 221,
        "6058": 3,
        "6059": 164,
        "6060": 116,
        "6061": 12,
        "6062": 234,
        "6063": 8,
        "6064": 52,
        "6065": 209,
        "6066": 46,
        "6067": 193,
        "6068": 22,
        "6069": 188,
        "6070": 5,
        "6071": 162,
        "6072": 44,
        "6073": 253,
        "6074": 132,
        "6075": 220,
        "6076": 35,
        "6077": 22,
        "6078": 78,
        "6079": 56,
        "6080": 204,
        "6081": 63,
        "6082": 226,
        "6083": 239,
        "6084": 243,
        "6085": 194,
        "6086": 223,
        "6087": 220,
        "6088": 56,
        "6089": 216,
        "6090": 176,
        "6091": 248,
        "6092": 156,
        "6093": 155,
        "6094": 176,
        "6095": 97,
        "6096": 15,
        "6097": 243,
        "6098": 45,
        "6099": 229,
        "6100": 112,
        "6101": 8,
        "6102": 222,
        "6103": 83,
        "6104": 54,
        "6105": 50,
        "6106": 249,
        "6107": 214,
        "6108": 164,
        "6109": 51,
        "6110": 188,
        "6111": 6,
        "6112": 151,
        "6113": 15,
        "6114": 161,
        "6115": 153,
        "6116": 139,
        "6117": 223,
        "6118": 97,
        "6119": 214,
        "6120": 224,
        "6121": 185,
        "6122": 119,
        "6123": 19,
        "6124": 46,
        "6125": 220,
        "6126": 166,
        "6127": 114,
        "6128": 15,
        "6129": 150,
        "6130": 72,
        "6131": 145,
        "6132": 229,
        "6133": 95,
        "6134": 62,
        "6135": 211,
        "6136": 204,
        "6137": 229,
        "6138": 147,
        "6139": 43,
        "6140": 162,
        "6141": 179,
        "6142": 245,
        "6143": 73,
        "6144": 102,
        "6145": 187,
        "6146": 220,
        "6147": 25,
        "6148": 198,
        "6149": 121,
        "6150": 99,
        "6151": 96,
        "6152": 233,
        "6153": 7,
        "6154": 254,
        "6155": 231,
        "6156": 135,
        "6157": 1,
        "6158": 121,
        "6159": 240,
        "6160": 230,
        "6161": 251,
        "6162": 140,
        "6163": 10,
        "6164": 33,
        "6165": 94,
        "6166": 147,
        "6167": 134,
        "6168": 164,
        "6169": 95,
        "6170": 223,
        "6171": 241,
        "6172": 130,
        "6173": 111,
        "6174": 92,
        "6175": 92,
        "6176": 35,
        "6177": 248,
        "6178": 168,
        "6179": 36,
        "6180": 246,
        "6181": 253,
        "6182": 209,
        "6183": 202,
        "6184": 54,
        "6185": 152,
        "6186": 242,
        "6187": 67,
        "6188": 238,
        "6189": 23,
        "6190": 169,
        "6191": 243,
        "6192": 226,
        "6193": 116,
        "6194": 11,
        "6195": 143,
        "6196": 52,
        "6197": 235,
        "6198": 156,
        "6199": 121,
        "6200": 84,
        "6201": 79,
        "6202": 21,
        "6203": 173,
        "6204": 193,
        "6205": 126,
        "6206": 19,
        "6207": 186,
        "6208": 208,
        "6209": 19,
        "6210": 92,
        "6211": 132,
        "6212": 130,
        "6213": 16,
        "6214": 49,
        "6215": 64,
        "6216": 37,
        "6217": 31,
        "6218": 116,
        "6219": 106,
        "6220": 21,
        "6221": 213,
        "6222": 216,
        "6223": 27,
        "6224": 156,
        "6225": 6,
        "6226": 119,
        "6227": 151,
        "6228": 183,
        "6229": 194,
        "6230": 121,
        "6231": 240,
        "6232": 239,
        "6233": 5,
        "6234": 153,
        "6235": 143,
        "6236": 243,
        "6237": 228,
        "6238": 38,
        "6239": 71,
        "6240": 70,
        "6241": 129,
        "6242": 64,
        "6243": 73,
        "6244": 75,
        "6245": 129,
        "6246": 53,
        "6247": 157,
        "6248": 25,
        "6249": 130,
        "6250": 108,
        "6251": 162,
        "6252": 205,
        "6253": 48,
        "6254": 60,
        "6255": 119,
        "6256": 209,
        "6257": 129,
        "6258": 19,
        "6259": 222,
        "6260": 49,
        "6261": 195,
        "6262": 157,
        "6263": 35,
        "6264": 84,
        "6265": 125,
        "6266": 196,
        "6267": 233,
        "6268": 146,
        "6269": 68,
        "6270": 16,
        "6271": 94,
        "6272": 164,
        "6273": 129,
        "6274": 242,
        "6275": 56,
        "6276": 84,
        "6277": 61,
        "6278": 219,
        "6279": 20,
        "6280": 64,
        "6281": 158,
        "6282": 240,
        "6283": 161,
        "6284": 96,
        "6285": 143,
        "6286": 43,
        "6287": 116,
        "6288": 245,
        "6289": 16,
        "6290": 220,
        "6291": 46,
        "6292": 232,
        "6293": 230,
        "6294": 207,
        "6295": 202,
        "6296": 29,
        "6297": 28,
        "6298": 249,
        "6299": 182,
        "6300": 255,
        "6301": 221,
        "6302": 178,
        "6303": 87,
        "6304": 243,
        "6305": 230,
        "6306": 154,
        "6307": 177,
        "6308": 253,
        "6309": 66,
        "6310": 66,
        "6311": 27,
        "6312": 162,
        "6313": 127,
        "6314": 142,
        "6315": 35,
        "6316": 140,
        "6317": 194,
        "6318": 176,
        "6319": 118,
        "6320": 171,
        "6321": 22,
        "6322": 202,
        "6323": 209,
        "6324": 160,
        "6325": 238,
        "6326": 117,
        "6327": 28,
        "6328": 121,
        "6329": 237,
        "6330": 225,
        "6331": 249,
        "6332": 206,
        "6333": 190,
        "6334": 144,
        "6335": 34,
        "6336": 115,
        "6337": 204,
        "6338": 238,
        "6339": 107,
        "6340": 102,
        "6341": 250,
        "6342": 135,
        "6343": 63,
        "6344": 252,
        "6345": 151,
        "6346": 0,
        "6347": 87,
        "6348": 255,
        "6349": 103,
        "6350": 243,
        "6351": 231,
        "6352": 161,
        "6353": 233,
        "6354": 208,
        "6355": 153,
        "6356": 159,
        "6357": 128,
        "6358": 54,
        "6359": 224,
        "6360": 165,
        "6361": 253,
        "6362": 216,
        "6363": 63,
        "6364": 36,
        "6365": 230,
        "6366": 94,
        "6367": 199,
        "6368": 225,
        "6369": 210,
        "6370": 234,
        "6371": 33,
        "6372": 147,
        "6373": 202,
        "6374": 36,
        "6375": 38,
        "6376": 70,
        "6377": 207,
        "6378": 69,
        "6379": 105,
        "6380": 229,
        "6381": 134,
        "6382": 108,
        "6383": 40,
        "6384": 136,
        "6385": 21,
        "6386": 126,
        "6387": 81,
        "6388": 64,
        "6389": 81,
        "6390": 99,
        "6391": 242,
        "6392": 116,
        "6393": 203,
        "6394": 186,
        "6395": 228,
        "6396": 87,
        "6397": 174,
        "6398": 96,
        "6399": 75,
        "6400": 200,
        "6401": 77,
        "6402": 159,
        "6403": 77,
        "6404": 77,
        "6405": 199,
        "6406": 79,
        "6407": 245,
        "6408": 59,
        "6409": 12,
        "6410": 163,
        "6411": 32,
        "6412": 119,
        "6413": 52,
        "6414": 189,
        "6415": 72,
        "6416": 149,
        "6417": 61,
        "6418": 219,
        "6419": 62,
        "6420": 171,
        "6421": 136,
        "6422": 90,
        "6423": 31,
        "6424": 177,
        "6425": 15,
        "6426": 0,
        "6427": 2,
        "6428": 190,
        "6429": 103,
        "6430": 143,
        "6431": 109,
        "6432": 130,
        "6433": 192,
        "6434": 169,
        "6435": 208,
        "6436": 7,
        "6437": 115,
        "6438": 63,
        "6439": 18,
        "6440": 1,
        "6441": 62,
        "6442": 45,
        "6443": 244,
        "6444": 59,
        "6445": 223,
        "6446": 17,
        "6447": 48,
        "6448": 228,
        "6449": 253,
        "6450": 107,
        "6451": 80,
        "6452": 170,
        "6453": 133,
        "6454": 178,
        "6455": 198,
        "6456": 190,
        "6457": 109,
        "6458": 176,
        "6459": 59,
        "6460": 23,
        "6461": 119,
        "6462": 13,
        "6463": 168,
        "6464": 141,
        "6465": 84,
        "6466": 7,
        "6467": 147,
        "6468": 114,
        "6469": 91,
        "6470": 215,
        "6471": 14,
        "6472": 194,
        "6473": 86,
        "6474": 43,
        "6475": 234,
        "6476": 61,
        "6477": 43,
        "6478": 215,
        "6479": 164,
        "6480": 223,
        "6481": 153,
        "6482": 74,
        "6483": 164,
        "6484": 222,
        "6485": 250,
        "6486": 29,
        "6487": 184,
        "6488": 164,
        "6489": 237,
        "6490": 244,
        "6491": 175,
        "6492": 246,
        "6493": 237,
        "6494": 164,
        "6495": 116,
        "6496": 162,
        "6497": 254,
        "6498": 96,
        "6499": 179,
        "6500": 11,
        "6501": 191,
        "6502": 95,
        "6503": 138,
        "6504": 169,
        "6505": 68,
        "6506": 140,
        "6507": 13,
        "6508": 232,
        "6509": 170,
        "6510": 137,
        "6511": 38,
        "6512": 138,
        "6513": 231,
        "6514": 12,
        "6515": 216,
        "6516": 175,
        "6517": 94,
        "6518": 25,
        "6519": 82,
        "6520": 97,
        "6521": 221,
        "6522": 160,
        "6523": 50,
        "6524": 223,
        "6525": 200,
        "6526": 159,
        "6527": 149,
        "6528": 106,
        "6529": 126,
        "6530": 130,
        "6531": 211,
        "6532": 149,
        "6533": 148,
        "6534": 166,
        "6535": 30,
        "6536": 183,
        "6537": 185,
        "6538": 194,
        "6539": 134,
        "6540": 30,
        "6541": 90,
        "6542": 100,
        "6543": 237,
        "6544": 131,
        "6545": 106,
        "6546": 122,
        "6547": 198,
        "6548": 14,
        "6549": 114,
        "6550": 179,
        "6551": 198,
        "6552": 13,
        "6553": 99,
        "6554": 14,
        "6555": 92,
        "6556": 165,
        "6557": 18,
        "6558": 81,
        "6559": 23,
        "6560": 173,
        "6561": 66,
        "6562": 253,
        "6563": 114,
        "6564": 67,
        "6565": 104,
        "6566": 134,
        "6567": 0,
        "6568": 31,
        "6569": 230,
        "6570": 221,
        "6571": 246,
        "6572": 53,
        "6573": 30,
        "6574": 180,
        "6575": 160,
        "6576": 196,
        "6577": 210,
        "6578": 77,
        "6579": 42,
        "6580": 117,
        "6581": 100,
        "6582": 215,
        "6583": 190,
        "6584": 13,
        "6585": 251,
        "6586": 201,
        "6587": 204,
        "6588": 231,
        "6589": 38,
        "6590": 150,
        "6591": 9,
        "6592": 250,
        "6593": 123,
        "6594": 100,
        "6595": 151,
        "6596": 123,
        "6597": 16,
        "6598": 216,
        "6599": 132,
        "6600": 36,
        "6601": 253,
        "6602": 26,
        "6603": 142,
        "6604": 201,
        "6605": 194,
        "6606": 42,
        "6607": 153,
        "6608": 165,
        "6609": 42,
        "6610": 232,
        "6611": 182,
        "6612": 114,
        "6613": 190,
        "6614": 69,
        "6615": 185,
        "6616": 21,
        "6617": 235,
        "6618": 5,
        "6619": 243,
        "6620": 143,
        "6621": 207,
        "6622": 35,
        "6623": 175,
        "6624": 97,
        "6625": 163,
        "6626": 139,
        "6627": 89,
        "6628": 98,
        "6629": 94,
        "6630": 4,
        "6631": 82,
        "6632": 165,
        "6633": 141,
        "6634": 1,
        "6635": 98,
        "6636": 70,
        "6637": 207,
        "6638": 123,
        "6639": 75,
        "6640": 10,
        "6641": 181,
        "6642": 6,
        "6643": 89,
        "6644": 171,
        "6645": 109,
        "6646": 241,
        "6647": 116,
        "6648": 166,
        "6649": 78,
        "6650": 115,
        "6651": 196,
        "6652": 200,
        "6653": 182,
        "6654": 140,
        "6655": 125,
        "6656": 111,
        "6657": 244,
        "6658": 182,
        "6659": 49,
        "6660": 168,
        "6661": 165,
        "6662": 191,
        "6663": 178,
        "6664": 99,
        "6665": 22,
        "6666": 122,
        "6667": 10,
        "6668": 193,
        "6669": 61,
        "6670": 90,
        "6671": 168,
        "6672": 197,
        "6673": 204,
        "6674": 253,
        "6675": 61,
        "6676": 144,
        "6677": 67,
        "6678": 234,
        "6679": 108,
        "6680": 206,
        "6681": 51,
        "6682": 151,
        "6683": 120,
        "6684": 227,
        "6685": 156,
        "6686": 62,
        "6687": 128,
        "6688": 207,
        "6689": 240,
        "6690": 248,
        "6691": 166,
        "6692": 84,
        "6693": 149,
        "6694": 153,
        "6695": 123,
        "6696": 1,
        "6697": 29,
        "6698": 54,
        "6699": 214,
        "6700": 223,
        "6701": 98,
        "6702": 114,
        "6703": 29,
        "6704": 150,
        "6705": 70,
        "6706": 138,
        "6707": 160,
        "6708": 168,
        "6709": 184,
        "6710": 176,
        "6711": 138,
        "6712": 164,
        "6713": 48,
        "6714": 82,
        "6715": 169,
        "6716": 130,
        "6717": 224,
        "6718": 171,
        "6719": 69,
        "6720": 127,
        "6721": 64,
        "6722": 83,
        "6723": 15,
        "6724": 199,
        "6725": 49,
        "6726": 84,
        "6727": 195,
        "6728": 110,
        "6729": 19,
        "6730": 12,
        "6731": 34,
        "6732": 54,
        "6733": 42,
        "6734": 249,
        "6735": 114,
        "6736": 106,
        "6737": 178,
        "6738": 75,
        "6739": 176,
        "6740": 191,
        "6741": 190,
        "6742": 208,
        "6743": 98,
        "6744": 51,
        "6745": 187,
        "6746": 77,
        "6747": 236,
        "6748": 228,
        "6749": 191,
        "6750": 139,
        "6751": 120,
        "6752": 237,
        "6753": 39,
        "6754": 233,
        "6755": 41,
        "6756": 7,
        "6757": 240,
        "6758": 247,
        "6759": 254,
        "6760": 213,
        "6761": 50,
        "6762": 228,
        "6763": 172,
        "6764": 99,
        "6765": 217,
        "6766": 44,
        "6767": 229,
        "6768": 167,
        "6769": 166,
        "6770": 71,
        "6771": 88,
        "6772": 29,
        "6773": 62,
        "6774": 67,
        "6775": 145,
        "6776": 214,
        "6777": 82,
        "6778": 223,
        "6779": 70,
        "6780": 247,
        "6781": 165,
        "6782": 145,
        "6783": 238,
        "6784": 240,
        "6785": 144,
        "6786": 212,
        "6787": 68,
        "6788": 32,
        "6789": 164,
        "6790": 195,
        "6791": 216,
        "6792": 255,
        "6793": 138,
        "6794": 36,
        "6795": 14,
        "6796": 162,
        "6797": 192,
        "6798": 31,
        "6799": 107,
        "6800": 43,
        "6801": 200,
        "6802": 123,
        "6803": 243,
        "6804": 123,
        "6805": 178,
        "6806": 224,
        "6807": 119,
        "6808": 29,
        "6809": 52,
        "6810": 99,
        "6811": 117,
        "6812": 31,
        "6813": 27,
        "6814": 44,
        "6815": 47,
        "6816": 95,
        "6817": 9,
        "6818": 138,
        "6819": 90,
        "6820": 169,
        "6821": 20,
        "6822": 99,
        "6823": 29,
        "6824": 164,
        "6825": 253,
        "6826": 43,
        "6827": 223,
        "6828": 194,
        "6829": 67,
        "6830": 207,
        "6831": 129,
        "6832": 59,
        "6833": 160,
        "6834": 38,
        "6835": 240,
        "6836": 90,
        "6837": 113,
        "6838": 107,
        "6839": 120,
        "6840": 207,
        "6841": 217,
        "6842": 126,
        "6843": 42,
        "6844": 142,
        "6845": 119,
        "6846": 119,
        "6847": 131,
        "6848": 132,
        "6849": 33,
        "6850": 85,
        "6851": 233,
        "6852": 225,
        "6853": 171,
        "6854": 159,
        "6855": 195,
        "6856": 105,
        "6857": 222,
        "6858": 244,
        "6859": 5,
        "6860": 160,
        "6861": 19,
        "6862": 117,
        "6863": 7,
        "6864": 142,
        "6865": 185,
        "6866": 30,
        "6867": 97,
        "6868": 109,
        "6869": 59,
        "6870": 117,
        "6871": 63,
        "6872": 60,
        "6873": 157,
        "6874": 229,
        "6875": 202,
        "6876": 168,
        "6877": 35,
        "6878": 178,
        "6879": 133,
        "6880": 39,
        "6881": 214,
        "6882": 35,
        "6883": 227,
        "6884": 190,
        "6885": 110,
        "6886": 218,
        "6887": 207,
        "6888": 142,
        "6889": 231,
        "6890": 233,
        "6891": 176,
        "6892": 230,
        "6893": 25,
        "6894": 117,
        "6895": 113,
        "6896": 156,
        "6897": 217,
        "6898": 167,
        "6899": 151,
        "6900": 177,
        "6901": 102,
        "6902": 102,
        "6903": 28,
        "6904": 6,
        "6905": 51,
        "6906": 245,
        "6907": 243,
        "6908": 5,
        "6909": 16,
        "6910": 210,
        "6911": 168,
        "6912": 104,
        "6913": 47,
        "6914": 114,
        "6915": 46,
        "6916": 76,
        "6917": 13,
        "6918": 250,
        "6919": 225,
        "6920": 113,
        "6921": 142,
        "6922": 173,
        "6923": 127,
        "6924": 157,
        "6925": 10,
        "6926": 107,
        "6927": 208,
        "6928": 101,
        "6929": 161,
        "6930": 201,
        "6931": 50,
        "6932": 250,
        "6933": 69,
        "6934": 49,
        "6935": 204,
        "6936": 61,
        "6937": 3,
        "6938": 241,
        "6939": 69,
        "6940": 176,
        "6941": 79,
        "6942": 134,
        "6943": 128,
        "6944": 115,
        "6945": 189,
        "6946": 102,
        "6947": 33,
        "6948": 49,
        "6949": 93,
        "6950": 41,
        "6951": 143,
        "6952": 90,
        "6953": 17,
        "6954": 204,
        "6955": 244,
        "6956": 44,
        "6957": 211,
        "6958": 163,
        "6959": 237,
        "6960": 36,
        "6961": 4,
        "6962": 225,
        "6963": 191,
        "6964": 233,
        "6965": 57,
        "6966": 235,
        "6967": 202,
        "6968": 21,
        "6969": 249,
        "6970": 79,
        "6971": 218,
        "6972": 14,
        "6973": 206,
        "6974": 218,
        "6975": 125,
        "6976": 144,
        "6977": 177,
        "6978": 10,
        "6979": 231,
        "6980": 42,
        "6981": 72,
        "6982": 105,
        "6983": 146,
        "6984": 143,
        "6985": 163,
        "6986": 55,
        "6987": 226,
        "6988": 208,
        "6989": 222,
        "6990": 35,
        "6991": 151,
        "6992": 112,
        "6993": 163,
        "6994": 100,
        "6995": 127,
        "6996": 9,
        "6997": 41,
        "6998": 94,
        "6999": 130,
        "7000": 21,
        "7001": 40,
        "7002": 211,
        "7003": 229,
        "7004": 98,
        "7005": 245,
        "7006": 152,
        "7007": 188,
        "7008": 98,
        "7009": 41,
        "7010": 98,
        "7011": 47,
        "7012": 48,
        "7013": 16,
        "7014": 96,
        "7015": 54,
        "7016": 47,
        "7017": 184,
        "7018": 202,
        "7019": 126,
        "7020": 227,
        "7021": 210,
        "7022": 50,
        "7023": 13,
        "7024": 150,
        "7025": 178,
        "7026": 158,
        "7027": 196,
        "7028": 201,
        "7029": 188,
        "7030": 126,
        "7031": 26,
        "7032": 51,
        "7033": 131,
        "7034": 47,
        "7035": 247,
        "7036": 173,
        "7037": 90,
        "7038": 101,
        "7039": 21,
        "7040": 67,
        "7041": 139,
        "7042": 225,
        "7043": 54,
        "7044": 239,
        "7045": 2,
        "7046": 213,
        "7047": 119,
        "7048": 123,
        "7049": 245,
        "7050": 227,
        "7051": 2,
        "7052": 201,
        "7053": 235,
        "7054": 148,
        "7055": 29,
        "7056": 238,
        "7057": 192,
        "7058": 188,
        "7059": 134,
        "7060": 77,
        "7061": 227,
        "7062": 232,
        "7063": 70,
        "7064": 221,
        "7065": 222,
        "7066": 159,
        "7067": 111,
        "7068": 161,
        "7069": 132,
        "7070": 68,
        "7071": 124,
        "7072": 81,
        "7073": 35,
        "7074": 168,
        "7075": 238,
        "7076": 245,
        "7077": 188,
        "7078": 206,
        "7079": 154,
        "7080": 58,
        "7081": 229,
        "7082": 89,
        "7083": 93,
        "7084": 179,
        "7085": 40,
        "7086": 20,
        "7087": 52,
        "7088": 197,
        "7089": 108,
        "7090": 49,
        "7091": 169,
        "7092": 3,
        "7093": 155,
        "7094": 32,
        "7095": 229,
        "7096": 0,
        "7097": 53,
        "7098": 68,
        "7099": 98,
        "7100": 107,
        "7101": 160,
        "7102": 231,
        "7103": 52,
        "7104": 206,
        "7105": 12,
        "7106": 38,
        "7107": 249,
        "7108": 67,
        "7109": 246,
        "7110": 203,
        "7111": 70,
        "7112": 18,
        "7113": 24,
        "7114": 250,
        "7115": 95,
        "7116": 41,
        "7117": 237,
        "7118": 46,
        "7119": 227,
        "7120": 49,
        "7121": 209,
        "7122": 201,
        "7123": 20,
        "7124": 139,
        "7125": 231,
        "7126": 145,
        "7127": 193,
        "7128": 249,
        "7129": 143,
        "7130": 70,
        "7131": 57,
        "7132": 252,
        "7133": 194,
        "7134": 76,
        "7135": 131,
        "7136": 228,
        "7137": 255,
        "7138": 12,
        "7139": 5,
        "7140": 102,
        "7141": 111,
        "7142": 61,
        "7143": 141,
        "7144": 158,
        "7145": 29,
        "7146": 228,
        "7147": 110,
        "7148": 213,
        "7149": 196,
        "7150": 36,
        "7151": 1,
        "7152": 233,
        "7153": 212,
        "7154": 212,
        "7155": 246,
        "7156": 131,
        "7157": 217,
        "7158": 126,
        "7159": 9,
        "7160": 124,
        "7161": 4,
        "7162": 26,
        "7163": 161,
        "7164": 49,
        "7165": 126,
        "7166": 94,
        "7167": 126,
        "7168": 226,
        "7169": 24,
        "7170": 0,
        "7171": 202,
        "7172": 225,
        "7173": 200,
        "7174": 202,
        "7175": 109,
        "7176": 40,
        "7177": 170,
        "7178": 231,
        "7179": 188,
        "7180": 18,
        "7181": 27,
        "7182": 237,
        "7183": 135,
        "7184": 218,
        "7185": 113,
        "7186": 30,
        "7187": 198,
        "7188": 182,
        "7189": 227,
        "7190": 49,
        "7191": 69,
        "7192": 226,
        "7193": 38,
        "7194": 109,
        "7195": 209,
        "7196": 76,
        "7197": 69,
        "7198": 101,
        "7199": 178,
        "7200": 241,
        "7201": 195,
        "7202": 154,
        "7203": 127,
        "7204": 61,
        "7205": 224,
        "7206": 123,
        "7207": 96,
        "7208": 232,
        "7209": 14,
        "7210": 203,
        "7211": 177,
        "7212": 12,
        "7213": 232,
        "7214": 57,
        "7215": 92,
        "7216": 218,
        "7217": 147,
        "7218": 213,
        "7219": 81,
        "7220": 116,
        "7221": 17,
        "7222": 227,
        "7223": 132,
        "7224": 101,
        "7225": 124,
        "7226": 190,
        "7227": 220,
        "7228": 185,
        "7229": 126,
        "7230": 74,
        "7231": 99,
        "7232": 54,
        "7233": 228,
        "7234": 32,
        "7235": 139,
        "7236": 115,
        "7237": 111,
        "7238": 188,
        "7239": 211,
        "7240": 78,
        "7241": 176,
        "7242": 168,
        "7243": 12,
        "7244": 188,
        "7245": 175,
        "7246": 86,
        "7247": 18,
        "7248": 127,
        "7249": 53,
        "7250": 126,
        "7251": 6,
        "7252": 180,
        "7253": 142,
        "7254": 174,
        "7255": 85,
        "7256": 200,
        "7257": 42,
        "7258": 219,
        "7259": 81,
        "7260": 107,
        "7261": 74,
        "7262": 146,
        "7263": 30,
        "7264": 143,
        "7265": 58,
        "7266": 153,
        "7267": 4,
        "7268": 110,
        "7269": 44,
        "7270": 28,
        "7271": 224,
        "7272": 234,
        "7273": 239,
        "7274": 8,
        "7275": 159,
        "7276": 245,
        "7277": 134,
        "7278": 115,
        "7279": 201,
        "7280": 86,
        "7281": 63,
        "7282": 180,
        "7283": 151,
        "7284": 30,
        "7285": 83,
        "7286": 162,
        "7287": 129,
        "7288": 147,
        "7289": 211,
        "7290": 15,
        "7291": 242,
        "7292": 176,
        "7293": 9,
        "7294": 205,
        "7295": 42,
        "7296": 98,
        "7297": 167,
        "7298": 173,
        "7299": 195,
        "7300": 201,
        "7301": 25,
        "7302": 137,
        "7303": 63,
        "7304": 246,
        "7305": 214,
        "7306": 185,
        "7307": 244,
        "7308": 200,
        "7309": 237,
        "7310": 51,
        "7311": 3,
        "7312": 177,
        "7313": 117,
        "7314": 76,
        "7315": 68,
        "7316": 52,
        "7317": 111,
        "7318": 153,
        "7319": 159,
        "7320": 132,
        "7321": 42,
        "7322": 133,
        "7323": 203,
        "7324": 71,
        "7325": 135,
        "7326": 6,
        "7327": 33,
        "7328": 92,
        "7329": 79,
        "7330": 163,
        "7331": 75,
        "7332": 9,
        "7333": 90,
        "7334": 183,
        "7335": 231,
        "7336": 129,
        "7337": 25,
        "7338": 131,
        "7339": 249,
        "7340": 142,
        "7341": 226,
        "7342": 243,
        "7343": 89,
        "7344": 22,
        "7345": 72,
        "7346": 61,
        "7347": 132,
        "7348": 81,
        "7349": 220,
        "7350": 168,
        "7351": 9,
        "7352": 63,
        "7353": 192,
        "7354": 40,
        "7355": 98,
        "7356": 133,
        "7357": 101,
        "7358": 18,
        "7359": 106,
        "7360": 161,
        "7361": 15,
        "7362": 105,
        "7363": 205,
        "7364": 215,
        "7365": 32,
        "7366": 46,
        "7367": 138,
        "7368": 55,
        "7369": 187,
        "7370": 80,
        "7371": 94,
        "7372": 36,
        "7373": 151,
        "7374": 250,
        "7375": 61,
        "7376": 108,
        "7377": 54,
        "7378": 251,
        "7379": 11,
        "7380": 181,
        "7381": 141,
        "7382": 39,
        "7383": 79,
        "7384": 46,
        "7385": 172,
        "7386": 23,
        "7387": 191,
        "7388": 131,
        "7389": 216,
        "7390": 89,
        "7391": 56,
        "7392": 132,
        "7393": 237,
        "7394": 181,
        "7395": 142,
        "7396": 23,
        "7397": 249,
        "7398": 3,
        "7399": 90,
        "7400": 70,
        "7401": 117,
        "7402": 40,
        "7403": 72,
        "7404": 222,
        "7405": 220,
        "7406": 110,
        "7407": 69,
        "7408": 152,
        "7409": 151,
        "7410": 107,
        "7411": 254,
        "7412": 21,
        "7413": 52,
        "7414": 244,
        "7415": 170,
        "7416": 178,
        "7417": 241,
        "7418": 150,
        "7419": 200,
        "7420": 16,
        "7421": 22,
        "7422": 216,
        "7423": 183,
        "7424": 160,
        "7425": 219,
        "7426": 103,
        "7427": 20,
        "7428": 94,
        "7429": 40,
        "7430": 158,
        "7431": 62,
        "7432": 116,
        "7433": 160,
        "7434": 56,
        "7435": 140,
        "7436": 220,
        "7437": 72,
        "7438": 225,
        "7439": 152,
        "7440": 49,
        "7441": 13,
        "7442": 35,
        "7443": 248,
        "7444": 14,
        "7445": 27,
        "7446": 182,
        "7447": 101,
        "7448": 227,
        "7449": 106,
        "7450": 187,
        "7451": 225,
        "7452": 161,
        "7453": 200,
        "7454": 2,
        "7455": 189,
        "7456": 199,
        "7457": 241,
        "7458": 19,
        "7459": 163,
        "7460": 207,
        "7461": 150,
        "7462": 185,
        "7463": 69,
        "7464": 86,
        "7465": 13,
        "7466": 200,
        "7467": 224,
        "7468": 4,
        "7469": 72,
        "7470": 197,
        "7471": 120,
        "7472": 194,
        "7473": 40,
        "7474": 241,
        "7475": 58,
        "7476": 193,
        "7477": 75,
        "7478": 68,
        "7479": 148,
        "7480": 30,
        "7481": 224,
        "7482": 231,
        "7483": 108,
        "7484": 43,
        "7485": 100,
        "7486": 48,
        "7487": 164,
        "7488": 51,
        "7489": 166,
        "7490": 51,
        "7491": 211,
        "7492": 214,
        "7493": 178,
        "7494": 73,
        "7495": 194,
        "7496": 118,
        "7497": 89,
        "7498": 144,
        "7499": 93,
        "7500": 97,
        "7501": 61,
        "7502": 134,
        "7503": 66,
        "7504": 72,
        "7505": 18,
        "7506": 182,
        "7507": 93,
        "7508": 140,
        "7509": 50,
        "7510": 224,
        "7511": 200,
        "7512": 55,
        "7513": 204,
        "7514": 97,
        "7515": 18,
        "7516": 79,
        "7517": 95,
        "7518": 52,
        "7519": 158,
        "7520": 35,
        "7521": 51,
        "7522": 52,
        "7523": 247,
        "7524": 44,
        "7525": 170,
        "7526": 158,
        "7527": 77,
        "7528": 235,
        "7529": 80,
        "7530": 55,
        "7531": 192,
        "7532": 201,
        "7533": 189,
        "7534": 127,
        "7535": 156,
        "7536": 239,
        "7537": 77,
        "7538": 51,
        "7539": 125,
        "7540": 120,
        "7541": 41,
        "7542": 174,
        "7543": 76,
        "7544": 215,
        "7545": 162,
        "7546": 86,
        "7547": 70,
        "7548": 67,
        "7549": 124,
        "7550": 103,
        "7551": 244,
        "7552": 145,
        "7553": 173,
        "7554": 239,
        "7555": 170,
        "7556": 104,
        "7557": 130,
        "7558": 254,
        "7559": 86,
        "7560": 28,
        "7561": 150,
        "7562": 3,
        "7563": 211,
        "7564": 54,
        "7565": 121,
        "7566": 158,
        "7567": 115,
        "7568": 46,
        "7569": 118,
        "7570": 180,
        "7571": 117,
        "7572": 21,
        "7573": 154,
        "7574": 147,
        "7575": 222,
        "7576": 125,
        "7577": 165,
        "7578": 213,
        "7579": 242,
        "7580": 230,
        "7581": 138,
        "7582": 49,
        "7583": 60,
        "7584": 109,
        "7585": 159,
        "7586": 55,
        "7587": 253,
        "7588": 166,
        "7589": 185,
        "7590": 181,
        "7591": 30,
        "7592": 51,
        "7593": 112,
        "7594": 166,
        "7595": 155,
        "7596": 243,
        "7597": 137,
        "7598": 200,
        "7599": 37,
        "7600": 98,
        "7601": 127,
        "7602": 89,
        "7603": 195,
        "7604": 97,
        "7605": 22,
        "7606": 219,
        "7607": 186,
        "7608": 73,
        "7609": 157,
        "7610": 159,
        "7611": 14,
        "7612": 177,
        "7613": 81,
        "7614": 246,
        "7615": 151,
        "7616": 127,
        "7617": 75,
        "7618": 138,
        "7619": 46,
        "7620": 44,
        "7621": 1,
        "7622": 32,
        "7623": 46,
        "7624": 51,
        "7625": 61,
        "7626": 60,
        "7627": 244,
        "7628": 172,
        "7629": 216,
        "7630": 204,
        "7631": 147,
        "7632": 105,
        "7633": 110,
        "7634": 112,
        "7635": 42,
        "7636": 25,
        "7637": 170,
        "7638": 26,
        "7639": 58,
        "7640": 241,
        "7641": 24,
        "7642": 109,
        "7643": 144,
        "7644": 150,
        "7645": 67,
        "7646": 62,
        "7647": 251,
        "7648": 160,
        "7649": 219,
        "7650": 81,
        "7651": 119,
        "7652": 179,
        "7653": 113,
        "7654": 26,
        "7655": 178,
        "7656": 123,
        "7657": 238,
        "7658": 125,
        "7659": 230,
        "7660": 116,
        "7661": 202,
        "7662": 85,
        "7663": 58,
        "7664": 223,
        "7665": 3,
        "7666": 81,
        "7667": 159,
        "7668": 252,
        "7669": 212,
        "7670": 129,
        "7671": 175,
        "7672": 91,
        "7673": 240,
        "7674": 144,
        "7675": 129,
        "7676": 224,
        "7677": 186,
        "7678": 121,
        "7679": 40,
        "7680": 93,
        "7681": 182,
        "7682": 172,
        "7683": 198,
        "7684": 180,
        "7685": 94,
        "7686": 213,
        "7687": 168,
        "7688": 222,
        "7689": 120,
        "7690": 199,
        "7691": 15,
        "7692": 204,
        "7693": 202,
        "7694": 70,
        "7695": 110,
        "7696": 124,
        "7697": 213,
        "7698": 79,
        "7699": 67,
        "7700": 204,
        "7701": 231,
        "7702": 187,
        "7703": 43,
        "7704": 70,
        "7705": 75,
        "7706": 123,
        "7707": 206,
        "7708": 41,
        "7709": 40,
        "7710": 246,
        "7711": 3,
        "7712": 111,
        "7713": 80,
        "7714": 131,
        "7715": 113,
        "7716": 107,
        "7717": 16,
        "7718": 2,
        "7719": 162,
        "7720": 178,
        "7721": 84,
        "7722": 135,
        "7723": 13,
        "7724": 215,
        "7725": 188,
        "7726": 198,
        "7727": 57,
        "7728": 45,
        "7729": 131,
        "7730": 126,
        "7731": 238,
        "7732": 209,
        "7733": 6,
        "7734": 214,
        "7735": 211,
        "7736": 105,
        "7737": 240,
        "7738": 231,
        "7739": 37,
        "7740": 33,
        "7741": 78,
        "7742": 245,
        "7743": 25,
        "7744": 101,
        "7745": 142,
        "7746": 119,
        "7747": 174,
        "7748": 249,
        "7749": 212,
        "7750": 81,
        "7751": 181,
        "7752": 255,
        "7753": 24,
        "7754": 137,
        "7755": 104,
        "7756": 244,
        "7757": 21,
        "7758": 150,
        "7759": 214,
        "7760": 138,
        "7761": 112,
        "7762": 226,
        "7763": 174,
        "7764": 76,
        "7765": 233,
        "7766": 56,
        "7767": 42,
        "7768": 166,
        "7769": 146,
        "7770": 164,
        "7771": 46,
        "7772": 189,
        "7773": 207,
        "7774": 215,
        "7775": 116,
        "7776": 251,
        "7777": 21,
        "7778": 162,
        "7779": 190,
        "7780": 130,
        "7781": 224,
        "7782": 81,
        "7783": 228,
        "7784": 247,
        "7785": 13,
        "7786": 47,
        "7787": 201,
        "7788": 205,
        "7789": 163,
        "7790": 41,
        "7791": 169,
        "7792": 198,
        "7793": 19,
        "7794": 5,
        "7795": 80,
        "7796": 175,
        "7797": 72,
        "7798": 222,
        "7799": 240,
        "7800": 168,
        "7801": 225,
        "7802": 79,
        "7803": 135,
        "7804": 199,
        "7805": 152,
        "7806": 110,
        "7807": 219,
        "7808": 25,
        "7809": 106,
        "7810": 190,
        "7811": 195,
        "7812": 161,
        "7813": 98,
        "7814": 189,
        "7815": 206,
        "7816": 198,
        "7817": 159,
        "7818": 199,
        "7819": 23,
        "7820": 69,
        "7821": 12,
        "7822": 134,
        "7823": 142,
        "7824": 146,
        "7825": 179,
        "7826": 176,
        "7827": 172,
        "7828": 35,
        "7829": 162,
        "7830": 89,
        "7831": 15,
        "7832": 249,
        "7833": 198,
        "7834": 177,
        "7835": 220,
        "7836": 95,
        "7837": 122,
        "7838": 168,
        "7839": 178,
        "7840": 117,
        "7841": 67,
        "7842": 133,
        "7843": 197,
        "7844": 181,
        "7845": 94,
        "7846": 153,
        "7847": 3,
        "7848": 218,
        "7849": 69,
        "7850": 35,
        "7851": 177,
        "7852": 164,
        "7853": 98,
        "7854": 78,
        "7855": 128,
        "7856": 218,
        "7857": 0,
        "7858": 92,
        "7859": 243,
        "7860": 75,
        "7861": 6,
        "7862": 191,
        "7863": 78,
        "7864": 173,
        "7865": 249,
        "7866": 164,
        "7867": 228,
        "7868": 45,
        "7869": 69,
        "7870": 189,
        "7871": 116,
        "7872": 221,
        "7873": 219,
        "7874": 132,
        "7875": 89,
        "7876": 131,
        "7877": 193,
        "7878": 140,
        "7879": 109,
        "7880": 248,
        "7881": 163,
        "7882": 172,
        "7883": 78,
        "7884": 210,
        "7885": 79,
        "7886": 74,
        "7887": 41,
        "7888": 111,
        "7889": 38,
        "7890": 138,
        "7891": 59,
        "7892": 28,
        "7893": 223,
        "7894": 208,
        "7895": 208,
        "7896": 241,
        "7897": 198,
        "7898": 79,
        "7899": 6,
        "7900": 85,
        "7901": 212,
        "7902": 22,
        "7903": 51,
        "7904": 253,
        "7905": 121,
        "7906": 97,
        "7907": 184,
        "7908": 232,
        "7909": 173,
        "7910": 131,
        "7911": 155,
        "7912": 209,
        "7913": 9,
        "7914": 62,
        "7915": 176,
        "7916": 80,
        "7917": 104,
        "7918": 35,
        "7919": 133,
        "7920": 55,
        "7921": 217,
        "7922": 92,
        "7923": 9,
        "7924": 13,
        "7925": 67,
        "7926": 83,
        "7927": 198,
        "7928": 7,
        "7929": 156,
        "7930": 54,
        "7931": 220,
        "7932": 190,
        "7933": 212,
        "7934": 144,
        "7935": 182,
        "7936": 91,
        "7937": 88,
        "7938": 50,
        "7939": 69,
        "7940": 76,
        "7941": 221,
        "7942": 198,
        "7943": 212,
        "7944": 26,
        "7945": 44,
        "7946": 42,
        "7947": 10,
        "7948": 230,
        "7949": 187,
        "7950": 212,
        "7951": 136,
        "7952": 252,
        "7953": 43,
        "7954": 237,
        "7955": 182,
        "7956": 18,
        "7957": 133,
        "7958": 216,
        "7959": 123,
        "7960": 170,
        "7961": 156,
        "7962": 186,
        "7963": 161,
        "7964": 69,
        "7965": 174,
        "7966": 124,
        "7967": 228,
        "7968": 196,
        "7969": 233,
        "7970": 15,
        "7971": 66,
        "7972": 28,
        "7973": 121,
        "7974": 202,
        "7975": 2,
        "7976": 214,
        "7977": 83,
        "7978": 61,
        "7979": 176,
        "7980": 204,
        "7981": 41,
        "7982": 178,
        "7983": 211,
        "7984": 60,
        "7985": 181,
        "7986": 190,
        "7987": 190,
        "7988": 149,
        "7989": 20,
        "7990": 43,
        "7991": 158,
        "7992": 118,
        "7993": 56,
        "7994": 233,
        "7995": 126,
        "7996": 194,
        "7997": 78,
        "7998": 201,
        "7999": 147,
        "8000": 141,
        "8001": 145,
        "8002": 4,
        "8003": 1,
        "8004": 71,
        "8005": 191,
        "8006": 185,
        "8007": 3,
        "8008": 117,
        "8009": 106,
        "8010": 157,
        "8011": 90,
        "8012": 1,
        "8013": 137,
        "8014": 245,
        "8015": 18,
        "8016": 99,
        "8017": 84,
        "8018": 23,
        "8019": 92,
        "8020": 27,
        "8021": 155,
        "8022": 250,
        "8023": 61,
        "8024": 131,
        "8025": 255,
        "8026": 59,
        "8027": 246,
        "8028": 45,
        "8029": 244,
        "8030": 102,
        "8031": 157,
        "8032": 48,
        "8033": 3,
        "8034": 234,
        "8035": 177,
        "8036": 163,
        "8037": 40,
        "8038": 129,
        "8039": 33,
        "8040": 239,
        "8041": 35,
        "8042": 125,
        "8043": 206,
        "8044": 102,
        "8045": 192,
        "8046": 74,
        "8047": 54,
        "8048": 76,
        "8049": 121,
        "8050": 124,
        "8051": 26,
        "8052": 27,
        "8053": 145,
        "8054": 147,
        "8055": 198,
        "8056": 18,
        "8057": 96,
        "8058": 172,
        "8059": 133,
        "8060": 129,
        "8061": 50,
        "8062": 245,
        "8063": 50,
        "8064": 215,
        "8065": 123,
        "8066": 112,
        "8067": 167,
        "8068": 67,
        "8069": 50,
        "8070": 65,
        "8071": 90,
        "8072": 65,
        "8073": 2,
        "8074": 110,
        "8075": 43,
        "8076": 131,
        "8077": 52,
        "8078": 4,
        "8079": 150,
        "8080": 155,
        "8081": 52,
        "8082": 174,
        "8083": 135,
        "8084": 110,
        "8085": 183,
        "8086": 48,
        "8087": 133,
        "8088": 223,
        "8089": 53,
        "8090": 234,
        "8091": 137,
        "8092": 153,
        "8093": 246,
        "8094": 218,
        "8095": 88,
        "8096": 145,
        "8097": 79,
        "8098": 179,
        "8099": 30,
        "8100": 43,
        "8101": 11,
        "8102": 213,
        "8103": 103,
        "8104": 13,
        "8105": 211,
        "8106": 172,
        "8107": 86,
        "8108": 144,
        "8109": 219,
        "8110": 49,
        "8111": 238,
        "8112": 138,
        "8113": 207,
        "8114": 83,
        "8115": 214,
        "8116": 57,
        "8117": 197,
        "8118": 66,
        "8119": 158,
        "8120": 9,
        "8121": 150,
        "8122": 57,
        "8123": 127,
        "8124": 13,
        "8125": 193,
        "8126": 115,
        "8127": 175,
        "8128": 8,
        "8129": 153,
        "8130": 139,
        "8131": 8,
        "8132": 84,
        "8133": 208,
        "8134": 130,
        "8135": 245,
        "8136": 115,
        "8137": 212,
        "8138": 58,
        "8139": 174,
        "8140": 149,
        "8141": 96,
        "8142": 153,
        "8143": 104,
        "8144": 181,
        "8145": 229,
        "8146": 24,
        "8147": 168,
        "8148": 223,
        "8149": 25,
        "8150": 223,
        "8151": 113,
        "8152": 148,
        "8153": 178,
        "8154": 206,
        "8155": 135,
        "8156": 111,
        "8157": 7,
        "8158": 84,
        "8159": 218,
        "8160": 66,
        "8161": 148,
        "8162": 23,
        "8163": 27,
        "8164": 211,
        "8165": 239,
        "8166": 243,
        "8167": 100,
        "8168": 227,
        "8169": 146,
        "8170": 106,
        "8171": 148,
        "8172": 203,
        "8173": 213,
        "8174": 107,
        "8175": 47,
        "8176": 235,
        "8177": 42,
        "8178": 61,
        "8179": 23,
        "8180": 86,
        "8181": 193,
        "8182": 225,
        "8183": 34,
        "8184": 176,
        "8185": 223,
        "8186": 127,
        "8187": 148,
        "8188": 120,
        "8189": 130,
        "8190": 121,
        "8191": 219,
        "8192": 156,
        "8193": 146,
        "8194": 42,
        "8195": 107,
        "8196": 226,
        "8197": 116,
        "8198": 215,
        "8199": 250,
        "8200": 157,
        "8201": 74,
        "8202": 9,
        "8203": 54,
        "8204": 219,
        "8205": 102,
        "8206": 48,
        "8207": 194,
        "8208": 70,
        "8209": 233,
        "8210": 42,
        "8211": 137,
        "8212": 217,
        "8213": 18,
        "8214": 178,
        "8215": 64,
        "8216": 95,
        "8217": 89,
        "8218": 110,
        "8219": 152,
        "8220": 18,
        "8221": 39,
        "8222": 37,
        "8223": 201,
        "8224": 31,
        "8225": 234,
        "8226": 254,
        "8227": 247,
        "8228": 66,
        "8229": 129,
        "8230": 99,
        "8231": 16,
        "8232": 213,
        "8233": 167,
        "8234": 239,
        "8235": 229,
        "8236": 153,
        "8237": 164,
        "8238": 127,
        "8239": 69,
        "8240": 34,
        "8241": 27,
        "8242": 241,
        "8243": 69,
        "8244": 71,
        "8245": 3,
        "8246": 186,
        "8247": 68,
        "8248": 25,
        "8249": 26,
        "8250": 10,
        "8251": 136,
        "8252": 235,
        "8253": 157,
        "8254": 66,
        "8255": 70,
        "8256": 43,
        "8257": 255,
        "8258": 128,
        "8259": 160,
        "8260": 47,
        "8261": 148,
        "8262": 174,
        "8263": 50,
        "8264": 181,
        "8265": 168,
        "8266": 137,
        "8267": 251,
        "8268": 205,
        "8269": 244,
        "8270": 246,
        "8271": 30,
        "8272": 141,
        "8273": 111,
        "8274": 193,
        "8275": 236,
        "8276": 214,
        "8277": 67,
        "8278": 133,
        "8279": 21,
        "8280": 121,
        "8281": 8,
        "8282": 144,
        "8283": 12,
        "8284": 209,
        "8285": 247,
        "8286": 197,
        "8287": 145,
        "8288": 219,
        "8289": 6,
        "8290": 124,
        "8291": 124,
        "8292": 4,
        "8293": 151,
        "8294": 165,
        "8295": 148,
        "8296": 222,
        "8297": 13,
        "8298": 204,
        "8299": 219,
        "8300": 87,
        "8301": 202,
        "8302": 1,
        "8303": 1,
        "8304": 25,
        "8305": 205,
        "8306": 29,
        "8307": 91,
        "8308": 15,
        "8309": 56,
        "8310": 242,
        "8311": 245,
        "8312": 77,
        "8313": 98,
        "8314": 77,
        "8315": 82,
        "8316": 6,
        "8317": 34,
        "8318": 27,
        "8319": 110,
        "8320": 160,
        "8321": 226,
        "8322": 194,
        "8323": 188,
        "8324": 175,
        "8325": 134,
        "8326": 158,
        "8327": 147,
        "8328": 35,
        "8329": 169,
        "8330": 210,
        "8331": 239,
        "8332": 127,
        "8333": 1,
        "8334": 243,
        "8335": 217,
        "8336": 209,
        "8337": 52,
        "8338": 85,
        "8339": 164,
        "8340": 153,
        "8341": 141,
        "8342": 111,
        "8343": 11,
        "8344": 147,
        "8345": 223,
        "8346": 80,
        "8347": 149,
        "8348": 59,
        "8349": 67,
        "8350": 29,
        "8351": 94,
        "8352": 66,
        "8353": 107,
        "8354": 147,
        "8355": 154,
        "8356": 10,
        "8357": 27,
        "8358": 48,
        "8359": 49,
        "8360": 174,
        "8361": 220,
        "8362": 191,
        "8363": 247,
        "8364": 165,
        "8365": 103,
        "8366": 21,
        "8367": 123,
        "8368": 82,
        "8369": 148,
        "8370": 210,
        "8371": 108,
        "8372": 229,
        "8373": 142,
        "8374": 71,
        "8375": 135,
        "8376": 52,
        "8377": 166,
        "8378": 177,
        "8379": 29,
        "8380": 129,
        "8381": 6,
        "8382": 201,
        "8383": 110,
        "8384": 154,
        "8385": 142,
        "8386": 48,
        "8387": 94,
        "8388": 81,
        "8389": 222,
        "8390": 32,
        "8391": 248,
        "8392": 178,
        "8393": 190,
        "8394": 253,
        "8395": 95,
        "8396": 63,
        "8397": 93,
        "8398": 169,
        "8399": 131,
        "8400": 170,
        "8401": 170,
        "8402": 5,
        "8403": 109,
        "8404": 187,
        "8405": 224,
        "8406": 211,
        "8407": 33,
        "8408": 120,
        "8409": 131,
        "8410": 106,
        "8411": 28,
        "8412": 155,
        "8413": 123,
        "8414": 8,
        "8415": 157,
        "8416": 100,
        "8417": 120,
        "8418": 103,
        "8419": 144,
        "8420": 41,
        "8421": 58,
        "8422": 7,
        "8423": 8,
        "8424": 17,
        "8425": 75,
        "8426": 241,
        "8427": 176,
        "8428": 20,
        "8429": 222,
        "8430": 146,
        "8431": 18,
        "8432": 153,
        "8433": 71,
        "8434": 123,
        "8435": 186,
        "8436": 219,
        "8437": 88,
        "8438": 100,
        "8439": 209,
        "8440": 166,
        "8441": 2,
        "8442": 144,
        "8443": 181,
        "8444": 224,
        "8445": 190,
        "8446": 105,
        "8447": 61,
        "8448": 128,
        "8449": 59,
        "8450": 255,
        "8451": 165,
        "8452": 202,
        "8453": 36,
        "8454": 186,
        "8455": 166,
        "8456": 72,
        "8457": 152,
        "8458": 209,
        "8459": 19,
        "8460": 142,
        "8461": 156,
        "8462": 251,
        "8463": 216,
        "8464": 178,
        "8465": 56,
        "8466": 204,
        "8467": 213,
        "8468": 64,
        "8469": 41,
        "8470": 31,
        "8471": 170,
        "8472": 121,
        "8473": 243,
        "8474": 28,
        "8475": 84,
        "8476": 203,
        "8477": 235,
        "8478": 67,
        "8479": 103,
        "8480": 51,
        "8481": 147,
        "8482": 181,
        "8483": 14,
        "8484": 79,
        "8485": 114,
        "8486": 13,
        "8487": 249,
        "8488": 47,
        "8489": 199,
        "8490": 63,
        "8491": 28,
        "8492": 106,
        "8493": 244,
        "8494": 72,
        "8495": 20,
        "8496": 76,
        "8497": 80,
        "8498": 239,
        "8499": 203,
        "8500": 42,
        "8501": 105,
        "8502": 86,
        "8503": 38,
        "8504": 246,
        "8505": 129,
        "8506": 170,
        "8507": 247,
        "8508": 231,
        "8509": 201,
        "8510": 32,
        "8511": 248,
        "8512": 175,
        "8513": 207,
        "8514": 118,
        "8515": 241,
        "8516": 101,
        "8517": 76,
        "8518": 32,
        "8519": 164,
        "8520": 66,
        "8521": 144,
        "8522": 24,
        "8523": 30,
        "8524": 208,
        "8525": 127,
        "8526": 127,
        "8527": 193,
        "8528": 244,
        "8529": 59,
        "8530": 117,
        "8531": 98,
        "8532": 239,
        "8533": 218,
        "8534": 190,
        "8535": 41,
        "8536": 236,
        "8537": 2,
        "8538": 120,
        "8539": 85,
        "8540": 132,
        "8541": 231,
        "8542": 244,
        "8543": 186,
        "8544": 35,
        "8545": 188,
        "8546": 173,
        "8547": 36,
        "8548": 59,
        "8549": 15,
        "8550": 70,
        "8551": 90,
        "8552": 37,
        "8553": 62,
        "8554": 4,
        "8555": 72,
        "8556": 85,
        "8557": 118,
        "8558": 137,
        "8559": 52,
        "8560": 88,
        "8561": 243,
        "8562": 16,
        "8563": 114,
        "8564": 131,
        "8565": 223,
        "8566": 155,
        "8567": 146,
        "8568": 157,
        "8569": 151,
        "8570": 116,
        "8571": 19,
        "8572": 194,
        "8573": 141,
        "8574": 17,
        "8575": 168,
        "8576": 15,
        "8577": 210,
        "8578": 246,
        "8579": 56,
        "8580": 45,
        "8581": 94,
        "8582": 221,
        "8583": 81,
        "8584": 180,
        "8585": 200,
        "8586": 115,
        "8587": 205,
        "8588": 114,
        "8589": 127,
        "8590": 211,
        "8591": 67,
        "8592": 152,
        "8593": 141,
        "8594": 57,
        "8595": 11,
        "8596": 61,
        "8597": 204,
        "8598": 163,
        "8599": 31,
        "8600": 131,
        "8601": 0,
        "8602": 12,
        "8603": 166,
        "8604": 248,
        "8605": 75,
        "8606": 72,
        "8607": 100,
        "8608": 154,
        "8609": 197,
        "8610": 39,
        "8611": 19,
        "8612": 49,
        "8613": 217,
        "8614": 166,
        "8615": 74,
        "8616": 115,
        "8617": 133,
        "8618": 40,
        "8619": 203,
        "8620": 13,
        "8621": 65,
        "8622": 41,
        "8623": 44,
        "8624": 9,
        "8625": 36,
        "8626": 21,
        "8627": 95,
        "8628": 72,
        "8629": 242,
        "8630": 249,
        "8631": 55,
        "8632": 167,
        "8633": 45,
        "8634": 112,
        "8635": 47,
        "8636": 173,
        "8637": 122,
        "8638": 255,
        "8639": 232,
        "8640": 195,
        "8641": 112,
        "8642": 229,
        "8643": 32,
        "8644": 182,
        "8645": 67,
        "8646": 245,
        "8647": 118,
        "8648": 40,
        "8649": 158,
        "8650": 203,
        "8651": 55,
        "8652": 122,
        "8653": 104,
        "8654": 87,
        "8655": 37,
        "8656": 211,
        "8657": 13,
        "8658": 93,
        "8659": 59,
        "8660": 230,
        "8661": 186,
        "8662": 45,
        "8663": 161,
        "8664": 198,
        "8665": 91,
        "8666": 161,
        "8667": 105,
        "8668": 223,
        "8669": 103,
        "8670": 73,
        "8671": 222,
        "8672": 70,
        "8673": 149,
        "8674": 85,
        "8675": 156,
        "8676": 142,
        "8677": 235,
        "8678": 223,
        "8679": 163,
        "8680": 82,
        "8681": 111,
        "8682": 99,
        "8683": 134,
        "8684": 180,
        "8685": 11,
        "8686": 83,
        "8687": 37,
        "8688": 175,
        "8689": 201,
        "8690": 95,
        "8691": 22,
        "8692": 232,
        "8693": 107,
        "8694": 27,
        "8695": 172,
        "8696": 232,
        "8697": 180,
        "8698": 84,
        "8699": 135,
        "8700": 198,
        "8701": 213,
        "8702": 115,
        "8703": 98,
        "8704": 143,
        "8705": 24,
        "8706": 34,
        "8707": 62,
        "8708": 48,
        "8709": 125,
        "8710": 255,
        "8711": 188,
        "8712": 162,
        "8713": 152,
        "8714": 82,
        "8715": 20,
        "8716": 4,
        "8717": 160,
        "8718": 241,
        "8719": 159,
        "8720": 219,
        "8721": 182,
        "8722": 46,
        "8723": 93,
        "8724": 240,
        "8725": 98,
        "8726": 157,
        "8727": 134,
        "8728": 11,
        "8729": 111,
        "8730": 143,
        "8731": 82,
        "8732": 9,
        "8733": 111,
        "8734": 124,
        "8735": 54,
        "8736": 85,
        "8737": 188,
        "8738": 218,
        "8739": 60,
        "8740": 167,
        "8741": 243,
        "8742": 46,
        "8743": 209,
        "8744": 162,
        "8745": 176,
        "8746": 111,
        "8747": 33,
        "8748": 61,
        "8749": 95,
        "8750": 214,
        "8751": 144,
        "8752": 181,
        "8753": 120,
        "8754": 110,
        "8755": 96,
        "8756": 30,
        "8757": 72,
        "8758": 95,
        "8759": 70,
        "8760": 2,
        "8761": 110,
        "8762": 144,
        "8763": 94,
        "8764": 185,
        "8765": 194,
        "8766": 22,
        "8767": 72,
        "8768": 209,
        "8769": 12,
        "8770": 39,
        "8771": 14,
        "8772": 86,
        "8773": 111,
        "8774": 39,
        "8775": 123,
        "8776": 215,
        "8777": 243,
        "8778": 137,
        "8779": 252,
        "8780": 46,
        "8781": 206,
        "8782": 224,
        "8783": 45,
        "8784": 69,
        "8785": 86,
        "8786": 85,
        "8787": 227,
        "8788": 18,
        "8789": 241,
        "8790": 24,
        "8791": 237,
        "8792": 110,
        "8793": 220,
        "8794": 130,
        "8795": 100,
        "8796": 219,
        "8797": 28,
        "8798": 99,
        "8799": 119,
        "8800": 159,
        "8801": 205,
        "8802": 99,
        "8803": 227,
        "8804": 111,
        "8805": 102,
        "8806": 240,
        "8807": 92,
        "8808": 80,
        "8809": 228,
        "8810": 167,
        "8811": 37,
        "8812": 0,
        "8813": 152,
        "8814": 228,
        "8815": 17,
        "8816": 207,
        "8817": 72,
        "8818": 74,
        "8819": 186,
        "8820": 82,
        "8821": 146,
        "8822": 187,
        "8823": 147,
        "8824": 62,
        "8825": 244,
        "8826": 70,
        "8827": 194,
        "8828": 210,
        "8829": 171,
        "8830": 108,
        "8831": 68,
        "8832": 206,
        "8833": 131,
        "8834": 128,
        "8835": 43,
        "8836": 127,
        "8837": 17,
        "8838": 185,
        "8839": 70,
        "8840": 15,
        "8841": 55,
        "8842": 80,
        "8843": 113,
        "8844": 94,
        "8845": 45,
        "8846": 42,
        "8847": 140,
        "8848": 157,
        "8849": 108,
        "8850": 195,
        "8851": 0,
        "8852": 130,
        "8853": 229,
        "8854": 74,
        "8855": 149,
        "8856": 46,
        "8857": 152,
        "8858": 91,
        "8859": 86,
        "8860": 84,
        "8861": 96,
        "8862": 58,
        "8863": 17,
        "8864": 142,
        "8865": 84,
        "8866": 240,
        "8867": 255,
        "8868": 211,
        "8869": 226,
        "8870": 6,
        "8871": 61,
        "8872": 209,
        "8873": 19,
        "8874": 117,
        "8875": 8,
        "8876": 28,
        "8877": 149,
        "8878": 109,
        "8879": 88,
        "8880": 146,
        "8881": 60,
        "8882": 94,
        "8883": 105,
        "8884": 58,
        "8885": 205,
        "8886": 159,
        "8887": 194,
        "8888": 241,
        "8889": 221,
        "8890": 30,
        "8891": 228,
        "8892": 0,
        "8893": 191,
        "8894": 154,
        "8895": 6,
        "8896": 55,
        "8897": 109,
        "8898": 93,
        "8899": 196,
        "8900": 179,
        "8901": 97,
        "8902": 117,
        "8903": 90,
        "8904": 111,
        "8905": 135,
        "8906": 75,
        "8907": 186,
        "8908": 17,
        "8909": 10,
        "8910": 34,
        "8911": 218,
        "8912": 113,
        "8913": 156,
        "8914": 12,
        "8915": 160,
        "8916": 203,
        "8917": 79,
        "8918": 1,
        "8919": 217,
        "8920": 242,
        "8921": 137,
        "8922": 7,
        "8923": 18,
        "8924": 52,
        "8925": 212,
        "8926": 12,
        "8927": 140,
        "8928": 3,
        "8929": 28,
        "8930": 230,
        "8931": 55,
        "8932": 178,
        "8933": 249,
        "8934": 93,
        "8935": 129,
        "8936": 150,
        "8937": 50,
        "8938": 192,
        "8939": 55,
        "8940": 31,
        "8941": 212,
        "8942": 110,
        "8943": 168,
        "8944": 74,
        "8945": 7,
        "8946": 98,
        "8947": 177,
        "8948": 148,
        "8949": 237,
        "8950": 98,
        "8951": 233,
        "8952": 192,
        "8953": 186,
        "8954": 182,
        "8955": 4,
        "8956": 135,
        "8957": 86,
        "8958": 84,
        "8959": 88,
        "8960": 182,
        "8961": 37,
        "8962": 34,
        "8963": 231,
        "8964": 45,
        "8965": 0,
        "8966": 58,
        "8967": 92,
        "8968": 211,
        "8969": 75,
        "8970": 78,
        "8971": 28,
        "8972": 70,
        "8973": 197,
        "8974": 11,
        "8975": 81,
        "8976": 238,
        "8977": 180,
        "8978": 74,
        "8979": 210,
        "8980": 104,
        "8981": 110,
        "8982": 30,
        "8983": 69,
        "8984": 109,
        "8985": 149,
        "8986": 229,
        "8987": 12,
        "8988": 151,
        "8989": 214,
        "8990": 87,
        "8991": 203,
        "8992": 246,
        "8993": 63,
        "8994": 253,
        "8995": 133,
        "8996": 255,
        "8997": 144,
        "8998": 254,
        "8999": 170,
        "9000": 203,
        "9001": 145,
        "9002": 0,
        "9003": 129,
        "9004": 201,
        "9005": 174,
        "9006": 84,
        "9007": 64,
        "9008": 179,
        "9009": 99,
        "9010": 114,
        "9011": 149,
        "9012": 174,
        "9013": 197,
        "9014": 251,
        "9015": 241,
        "9016": 199,
        "9017": 49,
        "9018": 86,
        "9019": 47,
        "9020": 224,
        "9021": 153,
        "9022": 130,
        "9023": 0,
        "9024": 118,
        "9025": 201,
        "9026": 51,
        "9027": 61,
        "9028": 223,
        "9029": 58,
        "9030": 147,
        "9031": 231,
        "9032": 86,
        "9033": 215,
        "9034": 239,
        "9035": 253,
        "9036": 91,
        "9037": 178,
        "9038": 140,
        "9039": 234,
        "9040": 4,
        "9041": 35,
        "9042": 90,
        "9043": 254,
        "9044": 151,
        "9045": 82,
        "9046": 212,
        "9047": 194,
        "9048": 126,
        "9049": 0,
        "9050": 100,
        "9051": 196,
        "9052": 226,
        "9053": 179,
        "9054": 10,
        "9055": 161,
        "9056": 70,
        "9057": 44,
        "9058": 205,
        "9059": 184,
        "9060": 45,
        "9061": 183,
        "9062": 208,
        "9063": 180,
        "9064": 96,
        "9065": 157,
        "9066": 143,
        "9067": 233,
        "9068": 199,
        "9069": 50,
        "9070": 109,
        "9071": 249,
        "9072": 43,
        "9073": 167,
        "9074": 120,
        "9075": 59,
        "9076": 241,
        "9077": 248,
        "9078": 119,
        "9079": 125,
        "9080": 138,
        "9081": 193,
        "9082": 194,
        "9083": 76,
        "9084": 13,
        "9085": 140,
        "9086": 19,
        "9087": 75,
        "9088": 50,
        "9089": 212,
        "9090": 62,
        "9091": 94,
        "9092": 129,
        "9093": 84,
        "9094": 47,
        "9095": 221,
        "9096": 212,
        "9097": 190,
        "9098": 35,
        "9099": 230,
        "9100": 226,
        "9101": 39,
        "9102": 9,
        "9103": 219,
        "9104": 59,
        "9105": 26,
        "9106": 35,
        "9107": 83,
        "9108": 5,
        "9109": 221,
        "9110": 217,
        "9111": 3,
        "9112": 188,
        "9113": 74,
        "9114": 158,
        "9115": 209,
        "9116": 27,
        "9117": 63,
        "9118": 205,
        "9119": 3,
        "9120": 89,
        "9121": 252,
        "9122": 56,
        "9123": 250,
        "9124": 62,
        "9125": 140,
        "9126": 230,
        "9127": 238,
        "9128": 136,
        "9129": 233,
        "9130": 207,
        "9131": 143,
        "9132": 254,
        "9133": 233,
        "9134": 169,
        "9135": 251,
        "9136": 118,
        "9137": 37,
        "9138": 163,
        "9139": 10,
        "9140": 77,
        "9141": 6,
        "9142": 111,
        "9143": 224,
        "9144": 64,
        "9145": 111,
        "9146": 214,
        "9147": 126,
        "9148": 186,
        "9149": 66,
        "9150": 39,
        "9151": 40,
        "9152": 29,
        "9153": 84,
        "9154": 128,
        "9155": 236,
        "9156": 42,
        "9157": 236,
        "9158": 72,
        "9159": 46,
        "9160": 16,
        "9161": 249,
        "9162": 64,
        "9163": 240,
        "9164": 158,
        "9165": 73,
        "9166": 167,
        "9167": 252,
        "9168": 232,
        "9169": 192,
        "9170": 13,
        "9171": 18,
        "9172": 105,
        "9173": 7,
        "9174": 147,
        "9175": 35,
        "9176": 54,
        "9177": 68,
        "9178": 253,
        "9179": 153,
        "9180": 79,
        "9181": 32,
        "9182": 202,
        "9183": 224,
        "9184": 185,
        "9185": 124,
        "9186": 125,
        "9187": 250,
        "9188": 67,
        "9189": 168,
        "9190": 102,
        "9191": 189,
        "9192": 130,
        "9193": 11,
        "9194": 107,
        "9195": 148,
        "9196": 37,
        "9197": 125,
        "9198": 157,
        "9199": 217,
        "9200": 136,
        "9201": 232,
        "9202": 102,
        "9203": 29,
        "9204": 146,
        "9205": 52,
        "9206": 35,
        "9207": 163,
        "9208": 241,
        "9209": 38,
        "9210": 223,
        "9211": 72,
        "9212": 79,
        "9213": 133,
        "9214": 196,
        "9215": 203,
        "9216": 13,
        "9217": 4,
        "9218": 136,
        "9219": 26,
        "9220": 181,
        "9221": 231,
        "9222": 36,
        "9223": 203,
        "9224": 146,
        "9225": 160,
        "9226": 229,
        "9227": 247,
        "9228": 195,
        "9229": 139,
        "9230": 110,
        "9231": 21,
        "9232": 81,
        "9233": 60,
        "9234": 40,
        "9235": 192,
        "9236": 40,
        "9237": 38,
        "9238": 137,
        "9239": 47,
        "9240": 165,
        "9241": 211,
        "9242": 165,
        "9243": 220,
        "9244": 147,
        "9245": 217,
        "9246": 1,
        "9247": 243,
        "9248": 98,
        "9249": 39,
        "9250": 173,
        "9251": 172,
        "9252": 176,
        "9253": 241,
        "9254": 29,
        "9255": 204,
        "9256": 147,
        "9257": 120,
        "9258": 195,
        "9259": 246,
        "9260": 122,
        "9261": 151,
        "9262": 52,
        "9263": 122,
        "9264": 224,
        "9265": 67,
        "9266": 25,
        "9267": 182,
        "9268": 156,
        "9269": 142,
        "9270": 224,
        "9271": 120,
        "9272": 22,
        "9273": 66,
        "9274": 124,
        "9275": 118,
        "9276": 7,
        "9277": 210,
        "9278": 160,
        "9279": 136,
        "9280": 49,
        "9281": 112,
        "9282": 191,
        "9283": 31,
        "9284": 54,
        "9285": 161,
        "9286": 251,
        "9287": 2,
        "9288": 56,
        "9289": 97,
        "9290": 203,
        "9291": 47,
        "9292": 181,
        "9293": 24,
        "9294": 214,
        "9295": 5,
        "9296": 29,
        "9297": 132,
        "9298": 97,
        "9299": 192,
        "9300": 109,
        "9301": 11,
        "9302": 149,
        "9303": 126,
        "9304": 104,
        "9305": 141,
        "9306": 18,
        "9307": 145,
        "9308": 58,
        "9309": 102,
        "9310": 20,
        "9311": 62,
        "9312": 81,
        "9313": 81,
        "9314": 162,
        "9315": 148,
        "9316": 48,
        "9317": 133,
        "9318": 196,
        "9319": 7,
        "9320": 248,
        "9321": 31,
        "9322": 28,
        "9323": 171,
        "9324": 177,
        "9325": 128,
        "9326": 244,
        "9327": 247,
        "9328": 6,
        "9329": 170,
        "9330": 51,
        "9331": 254,
        "9332": 179,
        "9333": 112,
        "9334": 168,
        "9335": 126,
        "9336": 253,
        "9337": 95,
        "9338": 233,
        "9339": 13,
        "9340": 167,
        "9341": 57,
        "9342": 139,
        "9343": 230,
        "9344": 66,
        "9345": 139,
        "9346": 220,
        "9347": 17,
        "9348": 198,
        "9349": 175,
        "9350": 93,
        "9351": 113,
        "9352": 163,
        "9353": 115,
        "9354": 37,
        "9355": 187,
        "9356": 36,
        "9357": 32,
        "9358": 25,
        "9359": 219,
        "9360": 34,
        "9361": 90,
        "9362": 216,
        "9363": 135,
        "9364": 234,
        "9365": 177,
        "9366": 57,
        "9367": 74,
        "9368": 124,
        "9369": 242,
        "9370": 133,
        "9371": 144,
        "9372": 197,
        "9373": 171,
        "9374": 85,
        "9375": 66,
        "9376": 240,
        "9377": 138,
        "9378": 206,
        "9379": 72,
        "9380": 151,
        "9381": 236,
        "9382": 31,
        "9383": 237,
        "9384": 160,
        "9385": 1,
        "9386": 0,
        "9387": 103,
        "9388": 113,
        "9389": 177,
        "9390": 12,
        "9391": 9,
        "9392": 45,
        "9393": 122,
        "9394": 134,
        "9395": 171,
        "9396": 227,
        "9397": 196,
        "9398": 12,
        "9399": 97,
        "9400": 153,
        "9401": 75,
        "9402": 202,
        "9403": 201,
        "9404": 14,
        "9405": 67,
        "9406": 192,
        "9407": 153,
        "9408": 167,
        "9409": 82,
        "9410": 112,
        "9411": 87,
        "9412": 159,
        "9413": 146,
        "9414": 181,
        "9415": 47,
        "9416": 221,
        "9417": 41,
        "9418": 188,
        "9419": 4,
        "9420": 158,
        "9421": 175,
        "9422": 12,
        "9423": 240,
        "9424": 240,
        "9425": 25,
        "9426": 167,
        "9427": 255,
        "9428": 122,
        "9429": 180,
        "9430": 32,
        "9431": 28,
        "9432": 190,
        "9433": 248,
        "9434": 93,
        "9435": 92,
        "9436": 160,
        "9437": 212,
        "9438": 31,
        "9439": 230,
        "9440": 114,
        "9441": 107,
        "9442": 154,
        "9443": 89,
        "9444": 82,
        "9445": 63,
        "9446": 221,
        "9447": 172,
        "9448": 207,
        "9449": 143,
        "9450": 232,
        "9451": 29,
        "9452": 8,
        "9453": 49,
        "9454": 127,
        "9455": 100,
        "9456": 126,
        "9457": 120,
        "9458": 139,
        "9459": 216,
        "9460": 117,
        "9461": 41,
        "9462": 191,
        "9463": 28,
        "9464": 188,
        "9465": 7,
        "9466": 252,
        "9467": 66,
        "9468": 200,
        "9469": 75,
        "9470": 118,
        "9471": 204,
        "9472": 38,
        "9473": 162,
        "9474": 173,
        "9475": 24,
        "9476": 146,
        "9477": 109,
        "9478": 64,
        "9479": 201,
        "9480": 199,
        "9481": 209,
        "9482": 109,
        "9483": 111,
        "9484": 182,
        "9485": 152,
        "9486": 155,
        "9487": 108,
        "9488": 56,
        "9489": 239,
        "9490": 55,
        "9491": 137,
        "9492": 71,
        "9493": 154,
        "9494": 35,
        "9495": 243,
        "9496": 178,
        "9497": 34,
        "9498": 132,
        "9499": 168,
        "9500": 157,
        "9501": 167,
        "9502": 67,
        "9503": 116,
        "9504": 205,
        "9505": 107,
        "9506": 174,
        "9507": 229,
        "9508": 53,
        "9509": 75,
        "9510": 25,
        "9511": 250,
        "9512": 167,
        "9513": 167,
        "9514": 85,
        "9515": 94,
        "9516": 10,
        "9517": 243,
        "9518": 200,
        "9519": 203,
        "9520": 162,
        "9521": 134,
        "9522": 126,
        "9523": 89,
        "9524": 47,
        "9525": 172,
        "9526": 90,
        "9527": 157,
        "9528": 57,
        "9529": 195,
        "9530": 14,
        "9531": 64,
        "9532": 167,
        "9533": 127,
        "9534": 207,
        "9535": 192,
        "9536": 196,
        "9537": 113,
        "9538": 102,
        "9539": 59,
        "9540": 102,
        "9541": 74,
        "9542": 178,
        "9543": 118,
        "9544": 158,
        "9545": 178,
        "9546": 212,
        "9547": 99,
        "9548": 62,
        "9549": 22,
        "9550": 12,
        "9551": 89,
        "9552": 68,
        "9553": 224,
        "9554": 67,
        "9555": 142,
        "9556": 79,
        "9557": 60,
        "9558": 252,
        "9559": 233,
        "9560": 225,
        "9561": 196,
        "9562": 22,
        "9563": 7,
        "9564": 164,
        "9565": 249,
        "9566": 97,
        "9567": 223,
        "9568": 59,
        "9569": 200,
        "9570": 211,
        "9571": 228,
        "9572": 177,
        "9573": 29,
        "9574": 38,
        "9575": 204,
        "9576": 6,
        "9577": 185,
        "9578": 97,
        "9579": 76,
        "9580": 109,
        "9581": 188,
        "9582": 229,
        "9583": 86,
        "9584": 87,
        "9585": 52,
        "9586": 250,
        "9587": 218,
        "9588": 174,
        "9589": 160,
        "9590": 59,
        "9591": 152,
        "9592": 25,
        "9593": 207,
        "9594": 60,
        "9595": 172,
        "9596": 6,
        "9597": 103,
        "9598": 72,
        "9599": 218,
        "9600": 5,
        "9601": 38,
        "9602": 41,
        "9603": 65,
        "9604": 12,
        "9605": 170,
        "9606": 171,
        "9607": 129,
        "9608": 50,
        "9609": 100,
        "9610": 120,
        "9611": 0,
        "9612": 89,
        "9613": 219,
        "9614": 151,
        "9615": 95,
        "9616": 96,
        "9617": 149,
        "9618": 125,
        "9619": 77,
        "9620": 152,
        "9621": 229,
        "9622": 254,
        "9623": 13,
        "9624": 31,
        "9625": 34,
        "9626": 80,
        "9627": 154,
        "9628": 91,
        "9629": 203,
        "9630": 62,
        "9631": 16,
        "9632": 215,
        "9633": 231,
        "9634": 4,
        "9635": 202,
        "9636": 86,
        "9637": 32,
        "9638": 8,
        "9639": 139,
        "9640": 60,
        "9641": 180,
        "9642": 6,
        "9643": 220,
        "9644": 237,
        "9645": 165,
        "9646": 255,
        "9647": 198,
        "9648": 245,
        "9649": 197,
        "9650": 126,
        "9651": 15,
        "9652": 118,
        "9653": 169,
        "9654": 222,
        "9655": 207,
        "9656": 74,
        "9657": 106,
        "9658": 27,
        "9659": 52,
        "9660": 121,
        "9661": 176,
        "9662": 169,
        "9663": 251,
        "9664": 41,
        "9665": 181,
        "9666": 33,
        "9667": 51,
        "9668": 206,
        "9669": 243,
        "9670": 87,
        "9671": 193,
        "9672": 41,
        "9673": 229,
        "9674": 178,
        "9675": 134,
        "9676": 225,
        "9677": 177,
        "9678": 17,
        "9679": 114,
        "9680": 156,
        "9681": 232,
        "9682": 59,
        "9683": 0,
        "9684": 81,
        "9685": 33,
        "9686": 149,
        "9687": 94,
        "9688": 133,
        "9689": 97,
        "9690": 79,
        "9691": 44,
        "9692": 47,
        "9693": 168,
        "9694": 2,
        "9695": 147,
        "9696": 198,
        "9697": 15,
        "9698": 52,
        "9699": 65,
        "9700": 238,
        "9701": 93,
        "9702": 199,
        "9703": 41,
        "9704": 117,
        "9705": 10,
        "9706": 241,
        "9707": 28,
        "9708": 208,
        "9709": 192,
        "9710": 142,
        "9711": 238,
        "9712": 74,
        "9713": 64,
        "9714": 218,
        "9715": 168,
        "9716": 46,
        "9717": 154,
        "9718": 157,
        "9719": 152,
        "9720": 188,
        "9721": 62,
        "9722": 30,
        "9723": 252,
        "9724": 86,
        "9725": 174,
        "9726": 78,
        "9727": 59,
        "9728": 137,
        "9729": 45,
        "9730": 115,
        "9731": 20,
        "9732": 156,
        "9733": 153,
        "9734": 74,
        "9735": 238,
        "9736": 19,
        "9737": 214,
        "9738": 194,
        "9739": 83,
        "9740": 8,
        "9741": 163,
        "9742": 188,
        "9743": 42,
        "9744": 140,
        "9745": 235,
        "9746": 2,
        "9747": 194,
        "9748": 129,
        "9749": 240,
        "9750": 17,
        "9751": 236,
        "9752": 151,
        "9753": 148,
        "9754": 2,
        "9755": 7,
        "9756": 106,
        "9757": 232,
        "9758": 53,
        "9759": 15,
        "9760": 26,
        "9761": 188,
        "9762": 94,
        "9763": 111,
        "9764": 127,
        "9765": 222,
        "9766": 247,
        "9767": 62,
        "9768": 79,
        "9769": 42,
        "9770": 73,
        "9771": 66,
        "9772": 14,
        "9773": 27,
        "9774": 242,
        "9775": 48,
        "9776": 168,
        "9777": 49,
        "9778": 238,
        "9779": 37,
        "9780": 103,
        "9781": 119,
        "9782": 161,
        "9783": 30,
        "9784": 104,
        "9785": 54,
        "9786": 176,
        "9787": 242,
        "9788": 136,
        "9789": 184,
        "9790": 235,
        "9791": 36,
        "9792": 186,
        "9793": 25,
        "9794": 169,
        "9795": 200,
        "9796": 115,
        "9797": 189,
        "9798": 109,
        "9799": 88,
        "9800": 214,
        "9801": 249,
        "9802": 92,
        "9803": 228,
        "9804": 232,
        "9805": 167,
        "9806": 61,
        "9807": 72,
        "9808": 198,
        "9809": 92,
        "9810": 79,
        "9811": 124,
        "9812": 215,
        "9813": 173,
        "9814": 4,
        "9815": 74,
        "9816": 1,
        "9817": 98,
        "9818": 136,
        "9819": 101,
        "9820": 254,
        "9821": 220,
        "9822": 58,
        "9823": 80,
        "9824": 171,
        "9825": 228,
        "9826": 98,
        "9827": 32,
        "9828": 210,
        "9829": 253,
        "9830": 15,
        "9831": 221,
        "9832": 90,
        "9833": 53,
        "9834": 164,
        "9835": 147,
        "9836": 210,
        "9837": 245,
        "9838": 142,
        "9839": 19,
        "9840": 174,
        "9841": 228,
        "9842": 50,
        "9843": 27,
        "9844": 43,
        "9845": 147,
        "9846": 241,
        "9847": 89,
        "9848": 201,
        "9849": 101,
        "9850": 193,
        "9851": 159,
        "9852": 13,
        "9853": 110,
        "9854": 29,
        "9855": 94,
        "9856": 61,
        "9857": 12,
        "9858": 83,
        "9859": 22,
        "9860": 153,
        "9861": 48,
        "9862": 73,
        "9863": 181,
        "9864": 26,
        "9865": 40,
        "9866": 27,
        "9867": 150,
        "9868": 113,
        "9869": 59,
        "9870": 2,
        "9871": 101,
        "9872": 189,
        "9873": 102,
        "9874": 26,
        "9875": 64,
        "9876": 110,
        "9877": 111,
        "9878": 247,
        "9879": 181,
        "9880": 118,
        "9881": 34,
        "9882": 200,
        "9883": 14,
        "9884": 199,
        "9885": 1,
        "9886": 5,
        "9887": 10,
        "9888": 168,
        "9889": 15,
        "9890": 5,
        "9891": 89,
        "9892": 55,
        "9893": 77,
        "9894": 98,
        "9895": 251,
        "9896": 144,
        "9897": 46,
        "9898": 190,
        "9899": 7,
        "9900": 71,
        "9901": 192,
        "9902": 84,
        "9903": 112,
        "9904": 187,
        "9905": 224,
        "9906": 127,
        "9907": 181,
        "9908": 148,
        "9909": 237,
        "9910": 228,
        "9911": 56,
        "9912": 39,
        "9913": 226,
        "9914": 78,
        "9915": 167,
        "9916": 213,
        "9917": 125,
        "9918": 24,
        "9919": 101,
        "9920": 237,
        "9921": 25,
        "9922": 250,
        "9923": 90,
        "9924": 2,
        "9925": 28,
        "9926": 198,
        "9927": 151,
        "9928": 227,
        "9929": 30,
        "9930": 248,
        "9931": 247,
        "9932": 42,
        "9933": 24,
        "9934": 224,
        "9935": 205,
        "9936": 147,
        "9937": 233,
        "9938": 141,
        "9939": 249,
        "9940": 26,
        "9941": 121,
        "9942": 16,
        "9943": 78,
        "9944": 239,
        "9945": 117,
        "9946": 125,
        "9947": 80,
        "9948": 34,
        "9949": 190,
        "9950": 49,
        "9951": 68,
        "9952": 28,
        "9953": 211,
        "9954": 99,
        "9955": 178,
        "9956": 245,
        "9957": 147,
        "9958": 222,
        "9959": 71,
        "9960": 42,
        "9961": 230,
        "9962": 161,
        "9963": 22,
        "9964": 157,
        "9965": 10,
        "9966": 223,
        "9967": 148,
        "9968": 191,
        "9969": 100,
        "9970": 145,
        "9971": 235,
        "9972": 168,
        "9973": 161,
        "9974": 110,
        "9975": 124,
        "9976": 20,
        "9977": 148,
        "9978": 1,
        "9979": 232,
        "9980": 165,
        "9981": 39,
        "9982": 106,
        "9983": 228,
        "9984": 106,
        "9985": 171,
        "9986": 142,
        "9987": 182,
        "9988": 222,
        "9989": 247,
        "9990": 167,
        "9991": 136,
        "9992": 78,
        "9993": 164,
        "9994": 78,
        "9995": 159,
        "9996": 15,
        "9997": 215,
        "9998": 251,
        "9999": 176,
        "10000": 201,
        "10001": 193,
        "10002": 62,
        "10003": 179,
        "10004": 187,
        "10005": 125,
        "10006": 187,
        "10007": 101,
        "10008": 211,
        "10009": 246,
        "10010": 158,
        "10011": 148,
        "10012": 228,
        "10013": 81,
        "10014": 18,
        "10015": 85,
        "10016": 171,
        "10017": 26,
        "10018": 17,
        "10019": 78,
        "10020": 240,
        "10021": 253,
        "10022": 121,
        "10023": 154,
        "10024": 44,
        "10025": 183,
        "10026": 50,
        "10027": 114,
        "10028": 251,
        "10029": 3,
        "10030": 171,
        "10031": 13,
        "10032": 167,
        "10033": 7,
        "10034": 233,
        "10035": 90,
        "10036": 239,
        "10037": 195,
        "10038": 123,
        "10039": 134,
        "10040": 63,
        "10041": 108,
        "10042": 234,
        "10043": 86,
        "10044": 79,
        "10045": 90,
        "10046": 184,
        "10047": 80,
        "10048": 233,
        "10049": 232,
        "10050": 192,
        "10051": 172,
        "10052": 244,
        "10053": 157,
        "10054": 195,
        "10055": 15,
        "10056": 108,
        "10057": 254,
        "10058": 217,
        "10059": 105,
        "10060": 22,
        "10061": 180,
        "10062": 88,
        "10063": 109,
        "10064": 28,
        "10065": 113,
        "10066": 159,
        "10067": 135,
        "10068": 164,
        "10069": 117,
        "10070": 70,
        "10071": 42,
        "10072": 227,
        "10073": 59,
        "10074": 16,
        "10075": 59,
        "10076": 8,
        "10077": 88,
        "10078": 27,
        "10079": 68,
        "10080": 239,
        "10081": 252,
        "10082": 172,
        "10083": 114,
        "10084": 10,
        "10085": 52,
        "10086": 40,
        "10087": 181,
        "10088": 236,
        "10089": 53,
        "10090": 216,
        "10091": 244,
        "10092": 170,
        "10093": 61,
        "10094": 135,
        "10095": 168,
        "10096": 140,
        "10097": 97,
        "10098": 188,
        "10099": 169,
        "10100": 214,
        "10101": 7,
        "10102": 138,
        "10103": 24,
        "10104": 98,
        "10105": 46,
        "10106": 56,
        "10107": 218,
        "10108": 96,
        "10109": 242,
        "10110": 109,
        "10111": 6,
        "10112": 101,
        "10113": 114,
        "10114": 231,
        "10115": 106,
        "10116": 203,
        "10117": 154,
        "10118": 98,
        "10119": 92,
        "10120": 201,
        "10121": 244,
        "10122": 173,
        "10123": 134,
        "10124": 126,
        "10125": 171,
        "10126": 192,
        "10127": 116,
        "10128": 57,
        "10129": 202,
        "10130": 26,
        "10131": 89,
        "10132": 15,
        "10133": 116,
        "10134": 145,
        "10135": 124,
        "10136": 170,
        "10137": 177,
        "10138": 118,
        "10139": 104,
        "10140": 47,
        "10141": 182,
        "10142": 58,
        "10143": 87,
        "10144": 254,
        "10145": 15,
        "10146": 22,
        "10147": 103,
        "10148": 192,
        "10149": 0,
        "10150": 56,
        "10151": 224,
        "10152": 161,
        "10153": 6,
        "10154": 15,
        "10155": 136,
        "10156": 168,
        "10157": 131,
        "10158": 216,
        "10159": 204,
        "10160": 31,
        "10161": 179,
        "10162": 90,
        "10163": 72,
        "10164": 158,
        "10165": 139,
        "10166": 134,
        "10167": 70,
        "10168": 234,
        "10169": 76,
        "10170": 70,
        "10171": 186,
        "10172": 233,
        "10173": 147,
        "10174": 27,
        "10175": 216,
        "10176": 214,
        "10177": 164,
        "10178": 185,
        "10179": 254,
        "10180": 165,
        "10181": 0,
        "10182": 196,
        "10183": 102,
        "10184": 153,
        "10185": 122,
        "10186": 116,
        "10187": 193,
        "10188": 35,
        "10189": 147,
        "10190": 132,
        "10191": 71,
        "10192": 251,
        "10193": 110,
        "10194": 82,
        "10195": 221,
        "10196": 129,
        "10197": 231,
        "10198": 204,
        "10199": 38,
        "10200": 75,
        "10201": 218,
        "10202": 83,
        "10203": 152,
        "10204": 249,
        "10205": 81,
        "10206": 255,
        "10207": 250,
        "10208": 130,
        "10209": 5,
        "10210": 181,
        "10211": 110,
        "10212": 206,
        "10213": 28,
        "10214": 26,
        "10215": 180,
        "10216": 78,
        "10217": 123,
        "10218": 138,
        "10219": 210,
        "10220": 132,
        "10221": 75,
        "10222": 53,
        "10223": 1,
        "10224": 254,
        "10225": 112,
        "10226": 140,
        "10227": 121,
        "10228": 98,
        "10229": 80,
        "10230": 111,
        "10231": 192,
        "10232": 40,
        "10233": 77,
        "10234": 16,
        "10235": 117,
        "10236": 100,
        "10237": 154,
        "10238": 135,
        "10239": 24,
        "10240": 45,
        "10241": 191,
        "10242": 93,
        "10243": 213,
        "10244": 182,
        "10245": 243,
        "10246": 193,
        "10247": 178,
        "10248": 191,
        "10249": 155,
        "10250": 84,
        "10251": 36,
        "10252": 37,
        "10253": 190,
        "10254": 189,
        "10255": 116,
        "10256": 242,
        "10257": 199,
        "10258": 171,
        "10259": 210,
        "10260": 23,
        "10261": 55,
        "10262": 26,
        "10263": 73,
        "10264": 248,
        "10265": 127,
        "10266": 80,
        "10267": 78,
        "10268": 51,
        "10269": 221,
        "10270": 216,
        "10271": 143,
        "10272": 180,
        "10273": 94,
        "10274": 46,
        "10275": 49,
        "10276": 72,
        "10277": 133,
        "10278": 79,
        "10279": 125,
        "10280": 161,
        "10281": 181,
        "10282": 91,
        "10283": 224,
        "10284": 247,
        "10285": 246,
        "10286": 95,
        "10287": 223,
        "10288": 165,
        "10289": 104,
        "10290": 186,
        "10291": 198,
        "10292": 102,
        "10293": 225,
        "10294": 34,
        "10295": 216,
        "10296": 30,
        "10297": 230,
        "10298": 96,
        "10299": 142,
        "10300": 148,
        "10301": 110,
        "10302": 61,
        "10303": 44,
        "10304": 129,
        "10305": 114,
        "10306": 247,
        "10307": 6,
        "10308": 44,
        "10309": 68,
        "10310": 63,
        "10311": 219,
        "10312": 197,
        "10313": 192,
        "10314": 244,
        "10315": 63,
        "10316": 119,
        "10317": 161,
        "10318": 250,
        "10319": 230,
        "10320": 246,
        "10321": 129,
        "10322": 62,
        "10323": 150,
        "10324": 99,
        "10325": 46,
        "10326": 218,
        "10327": 145,
        "10328": 155,
        "10329": 93,
        "10330": 249,
        "10331": 193,
        "10332": 122,
        "10333": 220,
        "10334": 100,
        "10335": 81,
        "10336": 27,
        "10337": 200,
        "10338": 27,
        "10339": 179,
        "10340": 27,
        "10341": 248,
        "10342": 204,
        "10343": 5,
        "10344": 211,
        "10345": 90,
        "10346": 108,
        "10347": 213,
        "10348": 171,
        "10349": 164,
        "10350": 68,
        "10351": 77,
        "10352": 142,
        "10353": 207,
        "10354": 201,
        "10355": 72,
        "10356": 192,
        "10357": 135,
        "10358": 41,
        "10359": 149,
        "10360": 15,
        "10361": 103,
        "10362": 219,
        "10363": 74,
        "10364": 138,
        "10365": 168,
        "10366": 209,
        "10367": 30,
        "10368": 173,
        "10369": 228,
        "10370": 216,
        "10371": 102,
        "10372": 24,
        "10373": 131,
        "10374": 173,
        "10375": 171,
        "10376": 116,
        "10377": 140,
        "10378": 212,
        "10379": 245,
        "10380": 251,
        "10381": 189,
        "10382": 242,
        "10383": 228,
        "10384": 140,
        "10385": 27,
        "10386": 167,
        "10387": 252,
        "10388": 188,
        "10389": 99,
        "10390": 241,
        "10391": 56,
        "10392": 9,
        "10393": 133,
        "10394": 148,
        "10395": 56,
        "10396": 12,
        "10397": 101,
        "10398": 58,
        "10399": 136,
        "10400": 211,
        "10401": 35,
        "10402": 112,
        "10403": 189,
        "10404": 191,
        "10405": 218,
        "10406": 101,
        "10407": 5,
        "10408": 79,
        "10409": 32,
        "10410": 33,
        "10411": 144,
        "10412": 90,
        "10413": 98,
        "10414": 73,
        "10415": 11,
        "10416": 14,
        "10417": 239,
        "10418": 193,
        "10419": 200,
        "10420": 157,
        "10421": 179,
        "10422": 212,
        "10423": 247,
        "10424": 79,
        "10425": 255,
        "10426": 247,
        "10427": 38,
        "10428": 232,
        "10429": 181,
        "10430": 55,
        "10431": 43,
        "10432": 191,
        "10433": 18,
        "10434": 2,
        "10435": 36,
        "10436": 144,
        "10437": 214,
        "10438": 86,
        "10439": 116,
        "10440": 155,
        "10441": 59,
        "10442": 254,
        "10443": 32,
        "10444": 220,
        "10445": 221,
        "10446": 124,
        "10447": 179,
        "10448": 127,
        "10449": 128,
        "10450": 62,
        "10451": 36,
        "10452": 147,
        "10453": 162,
        "10454": 48,
        "10455": 101,
        "10456": 188,
        "10457": 139,
        "10458": 250,
        "10459": 89,
        "10460": 131,
        "10461": 120,
        "10462": 172,
        "10463": 218,
        "10464": 143,
        "10465": 40,
        "10466": 252,
        "10467": 98,
        "10468": 175,
        "10469": 132,
        "10470": 72,
        "10471": 170,
        "10472": 19,
        "10473": 207,
        "10474": 90,
        "10475": 70,
        "10476": 8,
        "10477": 115,
        "10478": 242,
        "10479": 100,
        "10480": 64,
        "10481": 121,
        "10482": 209,
        "10483": 184,
        "10484": 40,
        "10485": 231,
        "10486": 163,
        "10487": 241,
        "10488": 229,
        "10489": 8,
        "10490": 76,
        "10491": 4,
        "10492": 76,
        "10493": 105,
        "10494": 250,
        "10495": 166,
        "10496": 125,
        "10497": 82,
        "10498": 37,
        "10499": 188,
        "10500": 252,
        "10501": 201,
        "10502": 101,
        "10503": 177,
        "10504": 219,
        "10505": 71,
        "10506": 116,
        "10507": 8,
        "10508": 24,
        "10509": 54,
        "10510": 123,
        "10511": 255,
        "10512": 226,
        "10513": 209,
        "10514": 34,
        "10515": 205,
        "10516": 246,
        "10517": 120,
        "10518": 123,
        "10519": 213,
        "10520": 168,
        "10521": 249,
        "10522": 167,
        "10523": 90,
        "10524": 165,
        "10525": 52,
        "10526": 81,
        "10527": 64,
        "10528": 127,
        "10529": 91,
        "10530": 145,
        "10531": 68,
        "10532": 102,
        "10533": 6,
        "10534": 46,
        "10535": 47,
        "10536": 114,
        "10537": 4,
        "10538": 75,
        "10539": 69,
        "10540": 9,
        "10541": 37,
        "10542": 104,
        "10543": 171,
        "10544": 172,
        "10545": 87,
        "10546": 172,
        "10547": 176,
        "10548": 73,
        "10549": 163,
        "10550": 94,
        "10551": 38,
        "10552": 199,
        "10553": 224,
        "10554": 139,
        "10555": 169,
        "10556": 65,
        "10557": 174,
        "10558": 222,
        "10559": 36,
        "10560": 94,
        "10561": 141,
        "10562": 187,
        "10563": 173,
        "10564": 203,
        "10565": 12,
        "10566": 3,
        "10567": 196,
        "10568": 78,
        "10569": 170,
        "10570": 165,
        "10571": 34,
        "10572": 68,
        "10573": 28,
        "10574": 158,
        "10575": 188,
        "10576": 137,
        "10577": 166,
        "10578": 2,
        "10579": 227,
        "10580": 216,
        "10581": 184,
        "10582": 35,
        "10583": 72,
        "10584": 136,
        "10585": 233,
        "10586": 115,
        "10587": 124,
        "10588": 158,
        "10589": 141,
        "10590": 156,
        "10591": 57,
        "10592": 59,
        "10593": 77,
        "10594": 209,
        "10595": 217,
        "10596": 89,
        "10597": 69,
        "10598": 102,
        "10599": 29,
        "10600": 130,
        "10601": 53,
        "10602": 96,
        "10603": 218,
        "10604": 40,
        "10605": 184,
        "10606": 103,
        "10607": 15,
        "10608": 207,
        "10609": 201,
        "10610": 142,
        "10611": 225,
        "10612": 9,
        "10613": 231,
        "10614": 30,
        "10615": 187,
        "10616": 199,
        "10617": 88,
        "10618": 100,
        "10619": 214,
        "10620": 91,
        "10621": 255,
        "10622": 85,
        "10623": 126,
        "10624": 254,
        "10625": 194,
        "10626": 17,
        "10627": 124,
        "10628": 241,
        "10629": 41,
        "10630": 103,
        "10631": 12,
        "10632": 216,
        "10633": 251,
        "10634": 126,
        "10635": 200,
        "10636": 220,
        "10637": 49,
        "10638": 219,
        "10639": 135,
        "10640": 38,
        "10641": 79,
        "10642": 94,
        "10643": 165,
        "10644": 212,
        "10645": 24,
        "10646": 182,
        "10647": 221,
        "10648": 216,
        "10649": 199,
        "10650": 73,
        "10651": 149,
        "10652": 81,
        "10653": 135,
        "10654": 79,
        "10655": 142,
        "10656": 230,
        "10657": 150,
        "10658": 222,
        "10659": 228,
        "10660": 255,
        "10661": 120,
        "10662": 232,
        "10663": 53,
        "10664": 117,
        "10665": 49,
        "10666": 124,
        "10667": 0,
        "10668": 127,
        "10669": 70,
        "10670": 125,
        "10671": 142,
        "10672": 106,
        "10673": 198,
        "10674": 106,
        "10675": 90,
        "10676": 32,
        "10677": 117,
        "10678": 252,
        "10679": 20,
        "10680": 50,
        "10681": 34,
        "10682": 15,
        "10683": 240,
        "10684": 138,
        "10685": 5,
        "10686": 40,
        "10687": 0,
        "10688": 225,
        "10689": 12,
        "10690": 197,
        "10691": 64,
        "10692": 163,
        "10693": 76,
        "10694": 172,
        "10695": 222,
        "10696": 93,
        "10697": 70,
        "10698": 194,
        "10699": 27,
        "10700": 127,
        "10701": 162,
        "10702": 49,
        "10703": 57,
        "10704": 59,
        "10705": 12,
        "10706": 253,
        "10707": 58,
        "10708": 240,
        "10709": 200,
        "10710": 38,
        "10711": 220,
        "10712": 170,
        "10713": 90,
        "10714": 65,
        "10715": 74,
        "10716": 142,
        "10717": 182,
        "10718": 234,
        "10719": 2,
        "10720": 228,
        "10721": 14,
        "10722": 87,
        "10723": 204,
        "10724": 143,
        "10725": 222,
        "10726": 233,
        "10727": 231,
        "10728": 234,
        "10729": 87,
        "10730": 221,
        "10731": 101,
        "10732": 125,
        "10733": 116,
        "10734": 244,
        "10735": 46,
        "10736": 225,
        "10737": 101,
        "10738": 86,
        "10739": 48,
        "10740": 169,
        "10741": 47,
        "10742": 211,
        "10743": 7,
        "10744": 104,
        "10745": 185,
        "10746": 168,
        "10747": 49,
        "10748": 252,
        "10749": 52,
        "10750": 172,
        "10751": 212,
        "10752": 238,
        "10753": 25,
        "10754": 175,
        "10755": 135,
        "10756": 31,
        "10757": 223,
        "10758": 80,
        "10759": 251,
        "10760": 99,
        "10761": 95,
        "10762": 196,
        "10763": 47,
        "10764": 113,
        "10765": 64,
        "10766": 254,
        "10767": 76,
        "10768": 48,
        "10769": 135,
        "10770": 97,
        "10771": 172,
        "10772": 80,
        "10773": 100,
        "10774": 117,
        "10775": 109,
        "10776": 141,
        "10777": 54,
        "10778": 233,
        "10779": 77,
        "10780": 59,
        "10781": 213,
        "10782": 178,
        "10783": 54,
        "10784": 83,
        "10785": 147,
        "10786": 250,
        "10787": 69,
        "10788": 36,
        "10789": 160,
        "10790": 8,
        "10791": 43,
        "10792": 188,
        "10793": 254,
        "10794": 1,
        "10795": 77,
        "10796": 150,
        "10797": 237,
        "10798": 150,
        "10799": 178,
        "10800": 64,
        "10801": 46,
        "10802": 59,
        "10803": 143,
        "10804": 36,
        "10805": 185,
        "10806": 81,
        "10807": 51,
        "10808": 81,
        "10809": 242,
        "10810": 92,
        "10811": 110,
        "10812": 249,
        "10813": 78,
        "10814": 46,
        "10815": 152,
        "10816": 195,
        "10817": 144,
        "10818": 56,
        "10819": 251,
        "10820": 68,
        "10821": 124,
        "10822": 254,
        "10823": 132,
        "10824": 240,
        "10825": 21,
        "10826": 5,
        "10827": 151,
        "10828": 9,
        "10829": 196,
        "10830": 124,
        "10831": 203,
        "10832": 7,
        "10833": 218,
        "10834": 37,
        "10835": 102,
        "10836": 68,
        "10837": 221,
        "10838": 126,
        "10839": 86,
        "10840": 0,
        "10841": 207,
        "10842": 151,
        "10843": 253,
        "10844": 220,
        "10845": 180,
        "10846": 1,
        "10847": 7,
        "10848": 99,
        "10849": 139,
        "10850": 4,
        "10851": 76,
        "10852": 230,
        "10853": 106,
        "10854": 83,
        "10855": 118,
        "10856": 126,
        "10857": 230,
        "10858": 179,
        "10859": 161,
        "10860": 255,
        "10861": 36,
        "10862": 26,
        "10863": 36,
        "10864": 16,
        "10865": 221,
        "10866": 12,
        "10867": 12,
        "10868": 214,
        "10869": 107,
        "10870": 142,
        "10871": 160,
        "10872": 165,
        "10873": 206,
        "10874": 187,
        "10875": 75,
        "10876": 35,
        "10877": 179,
        "10878": 33,
        "10879": 202,
        "10880": 59,
        "10881": 49,
        "10882": 85,
        "10883": 5,
        "10884": 32,
        "10885": 243,
        "10886": 218,
        "10887": 55,
        "10888": 45,
        "10889": 200,
        "10890": 34,
        "10891": 107,
        "10892": 142,
        "10893": 64,
        "10894": 0,
        "10895": 6,
        "10896": 151,
        "10897": 129,
        "10898": 129,
        "10899": 151,
        "10900": 6,
        "10901": 82,
        "10902": 35,
        "10903": 241,
        "10904": 228,
        "10905": 24,
        "10906": 87,
        "10907": 63,
        "10908": 85,
        "10909": 204,
        "10910": 24,
        "10911": 208,
        "10912": 77,
        "10913": 111,
        "10914": 80,
        "10915": 249,
        "10916": 96,
        "10917": 116,
        "10918": 170,
        "10919": 48,
        "10920": 51,
        "10921": 68,
        "10922": 89,
        "10923": 112,
        "10924": 50,
        "10925": 241,
        "10926": 40,
        "10927": 116,
        "10928": 57,
        "10929": 44,
        "10930": 216,
        "10931": 185,
        "10932": 160,
        "10933": 138,
        "10934": 181,
        "10935": 74,
        "10936": 196,
        "10937": 192,
        "10938": 146,
        "10939": 80,
        "10940": 86,
        "10941": 245,
        "10942": 19,
        "10943": 57,
        "10944": 123,
        "10945": 115,
        "10946": 189,
        "10947": 100,
        "10948": 58,
        "10949": 238,
        "10950": 1,
        "10951": 40,
        "10952": 33,
        "10953": 85,
        "10954": 79,
        "10955": 4,
        "10956": 96,
        "10957": 123,
        "10958": 1,
        "10959": 42,
        "10960": 213,
        "10961": 194,
        "10962": 220,
        "10963": 143,
        "10964": 57,
        "10965": 82,
        "10966": 251,
        "10967": 181,
        "10968": 130,
        "10969": 53,
        "10970": 196,
        "10971": 102,
        "10972": 190,
        "10973": 78,
        "10974": 69,
        "10975": 164,
        "10976": 153,
        "10977": 111,
        "10978": 174,
        "10979": 147,
        "10980": 198,
        "10981": 5,
        "10982": 80,
        "10983": 15,
        "10984": 28,
        "10985": 170,
        "10986": 54,
        "10987": 179,
        "10988": 160,
        "10989": 136,
        "10990": 78,
        "10991": 110,
        "10992": 7,
        "10993": 133,
        "10994": 168,
        "10995": 154,
        "10996": 195,
        "10997": 161,
        "10998": 106,
        "10999": 111,
        "11000": 15,
        "11001": 142,
        "11002": 249,
        "11003": 148,
        "11004": 74,
        "11005": 172,
        "11006": 136,
        "11007": 78,
        "11008": 183,
        "11009": 66,
        "11010": 199,
        "11011": 0,
        "11012": 146,
        "11013": 208,
        "11014": 106,
        "11015": 170,
        "11016": 189,
        "11017": 157,
        "11018": 115,
        "11019": 248,
        "11020": 108,
        "11021": 137,
        "11022": 236,
        "11023": 41,
        "11024": 88,
        "11025": 143,
        "11026": 121,
        "11027": 56,
        "11028": 240,
        "11029": 239,
        "11030": 39,
        "11031": 1,
        "11032": 26,
        "11033": 141,
        "11034": 38,
        "11035": 227,
        "11036": 4,
        "11037": 116,
        "11038": 128,
        "11039": 255,
        "11040": 119,
        "11041": 117,
        "11042": 169,
        "11043": 57,
        "11044": 227,
        "11045": 249,
        "11046": 129,
        "11047": 70,
        "11048": 83,
        "11049": 39,
        "11050": 83,
        "11051": 26,
        "11052": 181,
        "11053": 40,
        "11054": 125,
        "11055": 77,
        "11056": 63,
        "11057": 18,
        "11058": 176,
        "11059": 117,
        "11060": 90,
        "11061": 42,
        "11062": 60,
        "11063": 184,
        "11064": 89,
        "11065": 35,
        "11066": 190,
        "11067": 19,
        "11068": 110,
        "11069": 60,
        "11070": 162,
        "11071": 182,
        "11072": 71,
        "11073": 218,
        "11074": 70,
        "11075": 5,
        "11076": 100,
        "11077": 233,
        "11078": 126,
        "11079": 99,
        "11080": 20,
        "11081": 75,
        "11082": 124,
        "11083": 152,
        "11084": 155,
        "11085": 225,
        "11086": 244,
        "11087": 35,
        "11088": 178,
        "11089": 198,
        "11090": 110,
        "11091": 200,
        "11092": 160,
        "11093": 89,
        "11094": 1,
        "11095": 245,
        "11096": 159,
        "11097": 233,
        "11098": 252,
        "11099": 253,
        "11100": 157,
        "11101": 37,
        "11102": 9,
        "11103": 50,
        "11104": 202,
        "11105": 67,
        "11106": 155,
        "11107": 193,
        "11108": 234,
        "11109": 38,
        "11110": 58,
        "11111": 52,
        "11112": 145,
        "11113": 43,
        "11114": 146,
        "11115": 238,
        "11116": 27,
        "11117": 65,
        "11118": 194,
        "11119": 107,
        "11120": 4,
        "11121": 153,
        "11122": 43,
        "11123": 180,
        "11124": 247,
        "11125": 222,
        "11126": 251,
        "11127": 170,
        "11128": 49,
        "11129": 51,
        "11130": 1,
        "11131": 207,
        "11132": 241,
        "11133": 219,
        "11134": 131,
        "11135": 11,
        "11136": 124,
        "11137": 156,
        "11138": 146,
        "11139": 203,
        "11140": 162,
        "11141": 141,
        "11142": 6,
        "11143": 164,
        "11144": 146,
        "11145": 137,
        "11146": 209,
        "11147": 42,
        "11148": 33,
        "11149": 54,
        "11150": 18,
        "11151": 98,
        "11152": 107,
        "11153": 253,
        "11154": 130,
        "11155": 7,
        "11156": 67,
        "11157": 230,
        "11158": 149,
        "11159": 88,
        "11160": 48,
        "11161": 3,
        "11162": 187,
        "11163": 148,
        "11164": 167,
        "11165": 190,
        "11166": 86,
        "11167": 224,
        "11168": 134,
        "11169": 159,
        "11170": 150,
        "11171": 62,
        "11172": 56,
        "11173": 89,
        "11174": 53,
        "11175": 23,
        "11176": 168,
        "11177": 92,
        "11178": 146,
        "11179": 252,
        "11180": 195,
        "11181": 167,
        "11182": 162,
        "11183": 154,
        "11184": 209,
        "11185": 216,
        "11186": 12,
        "11187": 152,
        "11188": 11,
        "11189": 7,
        "11190": 138,
        "11191": 102,
        "11192": 44,
        "11193": 39,
        "11194": 61,
        "11195": 57,
        "11196": 27,
        "11197": 176,
        "11198": 225,
        "11199": 149,
        "11200": 171,
        "11201": 184,
        "11202": 114,
        "11203": 1,
        "11204": 106,
        "11205": 37,
        "11206": 161,
        "11207": 136,
        "11208": 46,
        "11209": 136,
        "11210": 97,
        "11211": 197,
        "11212": 100,
        "11213": 2,
        "11214": 194,
        "11215": 39,
        "11216": 234,
        "11217": 13,
        "11218": 174,
        "11219": 181,
        "11220": 66,
        "11221": 68,
        "11222": 155,
        "11223": 198,
        "11224": 24,
        "11225": 238,
        "11226": 111,
        "11227": 124,
        "11228": 249,
        "11229": 226,
        "11230": 225,
        "11231": 67,
        "11232": 9,
        "11233": 215,
        "11234": 168,
        "11235": 255,
        "11236": 230,
        "11237": 173,
        "11238": 4,
        "11239": 240,
        "11240": 78,
        "11241": 0,
        "11242": 86,
        "11243": 215,
        "11244": 75,
        "11245": 16,
        "11246": 31,
        "11247": 153,
        "11248": 82,
        "11249": 126,
        "11250": 254,
        "11251": 60,
        "11252": 36,
        "11253": 157,
        "11254": 186,
        "11255": 37,
        "11256": 106,
        "11257": 39,
        "11258": 132,
        "11259": 105,
        "11260": 154,
        "11261": 151,
        "11262": 254,
        "11263": 174,
        "11264": 102,
        "11265": 91,
        "11266": 44,
        "11267": 127,
        "11268": 36,
        "11269": 58,
        "11270": 212,
        "11271": 99,
        "11272": 76,
        "11273": 210,
        "11274": 5,
        "11275": 218,
        "11276": 60,
        "11277": 206,
        "11278": 217,
        "11279": 58,
        "11280": 198,
        "11281": 13,
        "11282": 205,
        "11283": 81,
        "11284": 195,
        "11285": 132,
        "11286": 190,
        "11287": 1,
        "11288": 26,
        "11289": 93,
        "11290": 58,
        "11291": 131,
        "11292": 156,
        "11293": 141,
        "11294": 159,
        "11295": 215,
        "11296": 5,
        "11297": 193,
        "11298": 10,
        "11299": 107,
        "11300": 9,
        "11301": 80,
        "11302": 168,
        "11303": 17,
        "11304": 123,
        "11305": 105,
        "11306": 226,
        "11307": 84,
        "11308": 154,
        "11309": 157,
        "11310": 13,
        "11311": 5,
        "11312": 225,
        "11313": 28,
        "11314": 184,
        "11315": 255,
        "11316": 176,
        "11317": 170,
        "11318": 11,
        "11319": 199,
        "11320": 8,
        "11321": 142,
        "11322": 24,
        "11323": 80,
        "11324": 56,
        "11325": 42,
        "11326": 18,
        "11327": 93,
        "11328": 127,
        "11329": 178,
        "11330": 69,
        "11331": 226,
        "11332": 236,
        "11333": 111,
        "11334": 70,
        "11335": 120,
        "11336": 74,
        "11337": 234,
        "11338": 40,
        "11339": 161,
        "11340": 41,
        "11341": 126,
        "11342": 51,
        "11343": 119,
        "11344": 204,
        "11345": 204,
        "11346": 253,
        "11347": 119,
        "11348": 153,
        "11349": 132,
        "11350": 34,
        "11351": 87,
        "11352": 202,
        "11353": 15,
        "11354": 105,
        "11355": 193,
        "11356": 116,
        "11357": 74,
        "11358": 182,
        "11359": 42,
        "11360": 51,
        "11361": 212,
        "11362": 144,
        "11363": 147,
        "11364": 17,
        "11365": 217,
        "11366": 254,
        "11367": 220,
        "11368": 244,
        "11369": 82,
        "11370": 124,
        "11371": 205,
        "11372": 160,
        "11373": 137,
        "11374": 32,
        "11375": 217,
        "11376": 206,
        "11377": 50,
        "11378": 107,
        "11379": 13,
        "11380": 237,
        "11381": 48,
        "11382": 85,
        "11383": 220,
        "11384": 10,
        "11385": 95,
        "11386": 198,
        "11387": 189,
        "11388": 202,
        "11389": 36,
        "11390": 168,
        "11391": 240,
        "11392": 73,
        "11393": 31,
        "11394": 184,
        "11395": 159,
        "11396": 55,
        "11397": 0,
        "11398": 241,
        "11399": 27,
        "11400": 1,
        "11401": 43,
        "11402": 26,
        "11403": 87,
        "11404": 128,
        "11405": 150,
        "11406": 205,
        "11407": 36,
        "11408": 14,
        "11409": 8,
        "11410": 3,
        "11411": 6,
        "11412": 101,
        "11413": 75,
        "11414": 246,
        "11415": 91,
        "11416": 39,
        "11417": 61,
        "11418": 225,
        "11419": 43,
        "11420": 14,
        "11421": 193,
        "11422": 232,
        "11423": 162,
        "11424": 111,
        "11425": 28,
        "11426": 230,
        "11427": 164,
        "11428": 145,
        "11429": 230,
        "11430": 169,
        "11431": 1,
        "11432": 77,
        "11433": 161,
        "11434": 15,
        "11435": 165,
        "11436": 233,
        "11437": 76,
        "11438": 43,
        "11439": 3,
        "11440": 200,
        "11441": 173,
        "11442": 91,
        "11443": 25,
        "11444": 166,
        "11445": 110,
        "11446": 50,
        "11447": 14,
        "11448": 133,
        "11449": 58,
        "11450": 24,
        "11451": 36,
        "11452": 14,
        "11453": 47,
        "11454": 100,
        "11455": 10,
        "11456": 201,
        "11457": 154,
        "11458": 59,
        "11459": 38,
        "11460": 252,
        "11461": 184,
        "11462": 14,
        "11463": 206,
        "11464": 173,
        "11465": 254,
        "11466": 209,
        "11467": 28,
        "11468": 27,
        "11469": 93,
        "11470": 19,
        "11471": 202,
        "11472": 185,
        "11473": 248,
        "11474": 240,
        "11475": 157,
        "11476": 88,
        "11477": 120,
        "11478": 184,
        "11479": 12,
        "11480": 163,
        "11481": 107,
        "11482": 164,
        "11483": 114,
        "11484": 95,
        "11485": 68,
        "11486": 123,
        "11487": 204,
        "11488": 255,
        "11489": 200,
        "11490": 76,
        "11491": 253,
        "11492": 82,
        "11493": 63,
        "11494": 9,
        "11495": 120,
        "11496": 14,
        "11497": 82,
        "11498": 87,
        "11499": 199,
        "11500": 151,
        "11501": 48,
        "11502": 179,
        "11503": 168,
        "11504": 40,
        "11505": 119,
        "11506": 198,
        "11507": 219,
        "11508": 0,
        "11509": 35,
        "11510": 67,
        "11511": 232,
        "11512": 158,
        "11513": 206,
        "11514": 157,
        "11515": 189,
        "11516": 120,
        "11517": 151,
        "11518": 57,
        "11519": 217,
        "11520": 221,
        "11521": 207,
        "11522": 83,
        "11523": 67,
        "11524": 14,
        "11525": 206,
        "11526": 67,
        "11527": 86,
        "11528": 81,
        "11529": 170,
        "11530": 102,
        "11531": 17,
        "11532": 216,
        "11533": 107,
        "11534": 22,
        "11535": 221,
        "11536": 155,
        "11537": 253,
        "11538": 22,
        "11539": 231,
        "11540": 220,
        "11541": 108,
        "11542": 55,
        "11543": 189,
        "11544": 86,
        "11545": 86,
        "11546": 241,
        "11547": 47,
        "11548": 46,
        "11549": 87,
        "11550": 136,
        "11551": 207,
        "11552": 250,
        "11553": 155,
        "11554": 63,
        "11555": 246,
        "11556": 243,
        "11557": 136,
        "11558": 174,
        "11559": 189,
        "11560": 136,
        "11561": 232,
        "11562": 137,
        "11563": 145,
        "11564": 50,
        "11565": 230,
        "11566": 60,
        "11567": 151,
        "11568": 127,
        "11569": 201,
        "11570": 225,
        "11571": 246,
        "11572": 159,
        "11573": 229,
        "11574": 241,
        "11575": 182,
        "11576": 187,
        "11577": 221,
        "11578": 79,
        "11579": 203,
        "11580": 176,
        "11581": 166,
        "11582": 110,
        "11583": 52,
        "11584": 103,
        "11585": 227,
        "11586": 141,
        "11587": 181,
        "11588": 231,
        "11589": 229,
        "11590": 138,
        "11591": 38,
        "11592": 252,
        "11593": 146,
        "11594": 252,
        "11595": 174,
        "11596": 195,
        "11597": 141,
        "11598": 83,
        "11599": 113,
        "11600": 65,
        "11601": 74,
        "11602": 191,
        "11603": 93,
        "11604": 115,
        "11605": 248,
        "11606": 214,
        "11607": 145,
        "11608": 0,
        "11609": 192,
        "11610": 155,
        "11611": 41,
        "11612": 66,
        "11613": 151,
        "11614": 255,
        "11615": 29,
        "11616": 219,
        "11617": 239,
        "11618": 79,
        "11619": 134,
        "11620": 17,
        "11621": 99,
        "11622": 117,
        "11623": 255,
        "11624": 140,
        "11625": 10,
        "11626": 201,
        "11627": 227,
        "11628": 91,
        "11629": 163,
        "11630": 15,
        "11631": 115,
        "11632": 205,
        "11633": 157,
        "11634": 206,
        "11635": 231,
        "11636": 38,
        "11637": 206,
        "11638": 171,
        "11639": 173,
        "11640": 186,
        "11641": 251,
        "11642": 197,
        "11643": 200,
        "11644": 194,
        "11645": 103,
        "11646": 199,
        "11647": 153,
        "11648": 210,
        "11649": 250,
        "11650": 117,
        "11651": 25,
        "11652": 177,
        "11653": 83,
        "11654": 234,
        "11655": 226,
        "11656": 203,
        "11657": 187,
        "11658": 67,
        "11659": 65,
        "11660": 197,
        "11661": 76,
        "11662": 209,
        "11663": 201,
        "11664": 166,
        "11665": 48,
        "11666": 155,
        "11667": 154,
        "11668": 112,
        "11669": 15,
        "11670": 6,
        "11671": 159,
        "11672": 4,
        "11673": 13,
        "11674": 5,
        "11675": 76,
        "11676": 136,
        "11677": 164,
        "11678": 31,
        "11679": 228,
        "11680": 151,
        "11681": 143,
        "11682": 235,
        "11683": 178,
        "11684": 27,
        "11685": 214,
        "11686": 183,
        "11687": 170,
        "11688": 219,
        "11689": 123,
        "11690": 42,
        "11691": 49,
        "11692": 4,
        "11693": 54,
        "11694": 2,
        "11695": 184,
        "11696": 212,
        "11697": 43,
        "11698": 37,
        "11699": 201,
        "11700": 124,
        "11701": 23,
        "11702": 117,
        "11703": 198,
        "11704": 106,
        "11705": 254,
        "11706": 190,
        "11707": 25,
        "11708": 17,
        "11709": 162,
        "11710": 245,
        "11711": 151,
        "11712": 159,
        "11713": 44,
        "11714": 44,
        "11715": 16,
        "11716": 146,
        "11717": 28,
        "11718": 139,
        "11719": 139,
        "11720": 83,
        "11721": 168,
        "11722": 234,
        "11723": 158,
        "11724": 216,
        "11725": 199,
        "11726": 194,
        "11727": 237,
        "11728": 220,
        "11729": 36,
        "11730": 114,
        "11731": 14,
        "11732": 60,
        "11733": 174,
        "11734": 229,
        "11735": 71,
        "11736": 232,
        "11737": 63,
        "11738": 198,
        "11739": 241,
        "11740": 119,
        "11741": 210,
        "11742": 78,
        "11743": 206,
        "11744": 122,
        "11745": 228,
        "11746": 93,
        "11747": 193,
        "11748": 25,
        "11749": 3,
        "11750": 166,
        "11751": 28,
        "11752": 114,
        "11753": 193,
        "11754": 165,
        "11755": 204,
        "11756": 6,
        "11757": 62,
        "11758": 241,
        "11759": 234,
        "11760": 201,
        "11761": 119,
        "11762": 235,
        "11763": 245,
        "11764": 102,
        "11765": 179,
        "11766": 16,
        "11767": 153,
        "11768": 150,
        "11769": 114,
        "11770": 88,
        "11771": 140,
        "11772": 25,
        "11773": 108,
        "11774": 222,
        "11775": 144,
        "11776": 156,
        "11777": 254,
        "11778": 117,
        "11779": 86,
        "11780": 16,
        "11781": 148,
        "11782": 140,
        "11783": 108,
        "11784": 2,
        "11785": 238,
        "11786": 53,
        "11787": 255,
        "11788": 237,
        "11789": 45,
        "11790": 53,
        "11791": 242,
        "11792": 90,
        "11793": 72,
        "11794": 67,
        "11795": 173,
        "11796": 48,
        "11797": 251,
        "11798": 235,
        "11799": 251,
        "11800": 243,
        "11801": 238,
        "11802": 110,
        "11803": 229,
        "11804": 165,
        "11805": 108,
        "11806": 149,
        "11807": 139,
        "11808": 106,
        "11809": 194,
        "11810": 251,
        "11811": 97,
        "11812": 170,
        "11813": 187,
        "11814": 108,
        "11815": 228,
        "11816": 48,
        "11817": 199,
        "11818": 105,
        "11819": 18,
        "11820": 31,
        "11821": 220,
        "11822": 201,
        "11823": 97,
        "11824": 210,
        "11825": 50,
        "11826": 56,
        "11827": 75,
        "11828": 163,
        "11829": 84,
        "11830": 61,
        "11831": 214,
        "11832": 168,
        "11833": 53,
        "11834": 253,
        "11835": 95,
        "11836": 189,
        "11837": 147,
        "11838": 110,
        "11839": 154,
        "11840": 158,
        "11841": 31,
        "11842": 6,
        "11843": 36,
        "11844": 247,
        "11845": 62,
        "11846": 137,
        "11847": 248,
        "11848": 49,
        "11849": 133,
        "11850": 38,
        "11851": 164,
        "11852": 90,
        "11853": 83,
        "11854": 226,
        "11855": 108,
        "11856": 3,
        "11857": 52,
        "11858": 234,
        "11859": 245,
        "11860": 179,
        "11861": 31,
        "11862": 26,
        "11863": 240,
        "11864": 83,
        "11865": 104,
        "11866": 74,
        "11867": 25,
        "11868": 197,
        "11869": 30,
        "11870": 249,
        "11871": 44,
        "11872": 24,
        "11873": 199,
        "11874": 39,
        "11875": 56,
        "11876": 144,
        "11877": 153,
        "11878": 183,
        "11879": 196,
        "11880": 91,
        "11881": 145,
        "11882": 61,
        "11883": 1,
        "11884": 236,
        "11885": 79,
        "11886": 188,
        "11887": 20,
        "11888": 145,
        "11889": 176,
        "11890": 185,
        "11891": 244,
        "11892": 215,
        "11893": 245,
        "11894": 255,
        "11895": 73,
        "11896": 176,
        "11897": 29,
        "11898": 100,
        "11899": 161,
        "11900": 144,
        "11901": 81,
        "11902": 19,
        "11903": 176,
        "11904": 173,
        "11905": 83,
        "11906": 237,
        "11907": 39,
        "11908": 51,
        "11909": 30,
        "11910": 239,
        "11911": 144,
        "11912": 125,
        "11913": 45,
        "11914": 205,
        "11915": 8,
        "11916": 140,
        "11917": 208,
        "11918": 12,
        "11919": 227,
        "11920": 252,
        "11921": 202,
        "11922": 169,
        "11923": 102,
        "11924": 130,
        "11925": 52,
        "11926": 150,
        "11927": 153,
        "11928": 48,
        "11929": 45,
        "11930": 196,
        "11931": 19,
        "11932": 151,
        "11933": 94,
        "11934": 47,
        "11935": 74,
        "11936": 75,
        "11937": 214,
        "11938": 55,
        "11939": 148,
        "11940": 146,
        "11941": 210,
        "11942": 235,
        "11943": 37,
        "11944": 47,
        "11945": 30,
        "11946": 79,
        "11947": 127,
        "11948": 137,
        "11949": 17,
        "11950": 162,
        "11951": 46,
        "11952": 247,
        "11953": 113,
        "11954": 241,
        "11955": 49,
        "11956": 104,
        "11957": 235,
        "11958": 183,
        "11959": 158,
        "11960": 70,
        "11961": 234,
        "11962": 248,
        "11963": 42,
        "11964": 230,
        "11965": 103,
        "11966": 231,
        "11967": 48,
        "11968": 104,
        "11969": 151,
        "11970": 94,
        "11971": 108,
        "11972": 194,
        "11973": 65,
        "11974": 147,
        "11975": 45,
        "11976": 92,
        "11977": 127,
        "11978": 21,
        "11979": 59,
        "11980": 148,
        "11981": 239,
        "11982": 14,
        "11983": 251,
        "11984": 215,
        "11985": 245,
        "11986": 136,
        "11987": 161,
        "11988": 205,
        "11989": 167,
        "11990": 39,
        "11991": 11,
        "11992": 201,
        "11993": 49,
        "11994": 240,
        "11995": 187,
        "11996": 85,
        "11997": 157,
        "11998": 162,
        "11999": 250,
        "12000": 93,
        "12001": 65,
        "12002": 153,
        "12003": 150,
        "12004": 57,
        "12005": 40,
        "12006": 42,
        "12007": 169,
        "12008": 81,
        "12009": 5,
        "12010": 167,
        "12011": 244,
        "12012": 52,
        "12013": 13,
        "12014": 61,
        "12015": 247,
        "12016": 201,
        "12017": 147,
        "12018": 153,
        "12019": 237,
        "12020": 77,
        "12021": 25,
        "12022": 149,
        "12023": 46,
        "12024": 98,
        "12025": 150,
        "12026": 164,
        "12027": 101,
        "12028": 27,
        "12029": 179,
        "12030": 42,
        "12031": 49,
        "12032": 14,
        "12033": 79,
        "12034": 130,
        "12035": 213,
        "12036": 155,
        "12037": 78,
        "12038": 24,
        "12039": 23,
        "12040": 200,
        "12041": 20,
        "12042": 78,
        "12043": 139,
        "12044": 136,
        "12045": 180,
        "12046": 160,
        "12047": 20,
        "12048": 135,
        "12049": 195,
        "12050": 28,
        "12051": 223,
        "12052": 60,
        "12053": 253,
        "12054": 218,
        "12055": 22,
        "12056": 110,
        "12057": 246,
        "12058": 229,
        "12059": 91,
        "12060": 6,
        "12061": 235,
        "12062": 69,
        "12063": 126,
        "12064": 202,
        "12065": 224,
        "12066": 225,
        "12067": 254,
        "12068": 147,
        "12069": 135,
        "12070": 76,
        "12071": 66,
        "12072": 217,
        "12073": 240,
        "12074": 192,
        "12075": 201,
        "12076": 98,
        "12077": 97,
        "12078": 133,
        "12079": 76,
        "12080": 238,
        "12081": 3,
        "12082": 166,
        "12083": 155,
        "12084": 225,
        "12085": 35,
        "12086": 89,
        "12087": 18,
        "12088": 80,
        "12089": 213,
        "12090": 119,
        "12091": 150,
        "12092": 75,
        "12093": 27,
        "12094": 131,
        "12095": 226,
        "12096": 141,
        "12097": 95,
        "12098": 233,
        "12099": 167,
        "12100": 190,
        "12101": 249,
        "12102": 52,
        "12103": 14,
        "12104": 59,
        "12105": 129,
        "12106": 74,
        "12107": 91,
        "12108": 218,
        "12109": 233,
        "12110": 90,
        "12111": 69,
        "12112": 19,
        "12113": 255,
        "12114": 215,
        "12115": 150,
        "12116": 27,
        "12117": 1,
        "12118": 84,
        "12119": 100,
        "12120": 73,
        "12121": 137,
        "12122": 41,
        "12123": 189,
        "12124": 182,
        "12125": 111,
        "12126": 104,
        "12127": 129,
        "12128": 5,
        "12129": 147,
        "12130": 244,
        "12131": 123,
        "12132": 214,
        "12133": 255,
        "12134": 145,
        "12135": 55,
        "12136": 216,
        "12137": 248,
        "12138": 70,
        "12139": 90,
        "12140": 141,
        "12141": 245,
        "12142": 217,
        "12143": 10,
        "12144": 195,
        "12145": 244,
        "12146": 253,
        "12147": 83,
        "12148": 30,
        "12149": 203,
        "12150": 93,
        "12151": 128,
        "12152": 197,
        "12153": 185,
        "12154": 221,
        "12155": 19,
        "12156": 7,
        "12157": 163,
        "12158": 127,
        "12159": 102,
        "12160": 50,
        "12161": 106,
        "12162": 134,
        "12163": 209,
        "12164": 79,
        "12165": 7,
        "12166": 185,
        "12167": 165,
        "12168": 33,
        "12169": 85,
        "12170": 194,
        "12171": 251,
        "12172": 175,
        "12173": 59,
        "12174": 119,
        "12175": 45,
        "12176": 93,
        "12177": 233,
        "12178": 222,
        "12179": 211,
        "12180": 137,
        "12181": 76,
        "12182": 12,
        "12183": 231,
        "12184": 162,
        "12185": 203,
        "12186": 150,
        "12187": 58,
        "12188": 203,
        "12189": 165,
        "12190": 14,
        "12191": 250,
        "12192": 251,
        "12193": 206,
        "12194": 74,
        "12195": 75,
        "12196": 95,
        "12197": 35,
        "12198": 139,
        "12199": 234,
        "12200": 192,
        "12201": 17,
        "12202": 73,
        "12203": 149,
        "12204": 248,
        "12205": 113,
        "12206": 118,
        "12207": 179,
        "12208": 77,
        "12209": 52,
        "12210": 239,
        "12211": 224,
        "12212": 96,
        "12213": 121,
        "12214": 69,
        "12215": 67,
        "12216": 38,
        "12217": 79,
        "12218": 38,
        "12219": 194,
        "12220": 180,
        "12221": 202,
        "12222": 47,
        "12223": 26,
        "12224": 70,
        "12225": 94,
        "12226": 104,
        "12227": 40,
        "12228": 111,
        "12229": 153,
        "12230": 72,
        "12231": 163,
        "12232": 208,
        "12233": 147,
        "12234": 71,
        "12235": 205,
        "12236": 215,
        "12237": 151,
        "12238": 202,
        "12239": 247,
        "12240": 40,
        "12241": 55,
        "12242": 192,
        "12243": 86,
        "12244": 19,
        "12245": 242,
        "12246": 253,
        "12247": 1,
        "12248": 209,
        "12249": 70,
        "12250": 160,
        "12251": 134,
        "12252": 222,
        "12253": 41,
        "12254": 70,
        "12255": 91,
        "12256": 197,
        "12257": 84,
        "12258": 36,
        "12259": 179,
        "12260": 189,
        "12261": 244,
        "12262": 42,
        "12263": 7,
        "12264": 170,
        "12265": 6,
        "12266": 41,
        "12267": 91,
        "12268": 120,
        "12269": 31,
        "12270": 141,
        "12271": 25,
        "12272": 238,
        "12273": 73,
        "12274": 80,
        "12275": 239,
        "12276": 239,
        "12277": 247,
        "12278": 145,
        "12279": 151,
        "12280": 56,
        "12281": 38,
        "12282": 156,
        "12283": 88,
        "12284": 35,
        "12285": 35,
        "12286": 54,
        "12287": 187,
        "12288": 208,
        "12289": 227,
        "12290": 186,
        "12291": 78,
        "12292": 117,
        "12293": 55,
        "12294": 253,
        "12295": 176,
        "12296": 134,
        "12297": 12,
        "12298": 217,
        "12299": 4,
        "12300": 43,
        "12301": 136,
        "12302": 233,
        "12303": 191,
        "12304": 156,
        "12305": 141,
        "12306": 174,
        "12307": 239,
        "12308": 97,
        "12309": 103,
        "12310": 157,
        "12311": 207,
        "12312": 97,
        "12313": 246,
        "12314": 23,
        "12315": 120,
        "12316": 153,
        "12317": 117,
        "12318": 223,
        "12319": 47,
        "12320": 61,
        "12321": 197,
        "12322": 235,
        "12323": 112,
        "12324": 195,
        "12325": 79,
        "12326": 48,
        "12327": 136,
        "12328": 116,
        "12329": 216,
        "12330": 77,
        "12331": 112,
        "12332": 186,
        "12333": 198,
        "12334": 176,
        "12335": 226,
        "12336": 118,
        "12337": 171,
        "12338": 26,
        "12339": 192,
        "12340": 166,
        "12341": 225,
        "12342": 254,
        "12343": 223,
        "12344": 180,
        "12345": 119,
        "12346": 140,
        "12347": 12,
        "12348": 249,
        "12349": 18,
        "12350": 225,
        "12351": 233,
        "12352": 180,
        "12353": 10,
        "12354": 189,
        "12355": 7,
        "12356": 235,
        "12357": 22,
        "12358": 43,
        "12359": 70,
        "12360": 92,
        "12361": 13,
        "12362": 185,
        "12363": 144,
        "12364": 245,
        "12365": 76,
        "12366": 103,
        "12367": 236,
        "12368": 54,
        "12369": 111,
        "12370": 42,
        "12371": 67,
        "12372": 113,
        "12373": 82,
        "12374": 223,
        "12375": 223,
        "12376": 234,
        "12377": 208,
        "12378": 105,
        "12379": 222,
        "12380": 52,
        "12381": 42,
        "12382": 193,
        "12383": 70,
        "12384": 215,
        "12385": 63,
        "12386": 192,
        "12387": 217,
        "12388": 123,
        "12389": 16,
        "12390": 0,
        "12391": 13,
        "12392": 59,
        "12393": 249,
        "12394": 6,
        "12395": 0,
        "12396": 182,
        "12397": 109,
        "12398": 5,
        "12399": 177,
        "12400": 217,
        "12401": 9,
        "12402": 75,
        "12403": 162,
        "12404": 111,
        "12405": 36,
        "12406": 216,
        "12407": 20,
        "12408": 180,
        "12409": 82,
        "12410": 223,
        "12411": 76,
        "12412": 5,
        "12413": 129,
        "12414": 119,
        "12415": 86,
        "12416": 0,
        "12417": 14,
        "12418": 128,
        "12419": 85,
        "12420": 95,
        "12421": 69,
        "12422": 119,
        "12423": 133,
        "12424": 247,
        "12425": 47,
        "12426": 94,
        "12427": 154,
        "12428": 58,
        "12429": 135,
        "12430": 69,
        "12431": 207,
        "12432": 123,
        "12433": 147,
        "12434": 234,
        "12435": 160,
        "12436": 49,
        "12437": 41,
        "12438": 236,
        "12439": 83,
        "12440": 193,
        "12441": 199,
        "12442": 230,
        "12443": 229,
        "12444": 88,
        "12445": 102,
        "12446": 199,
        "12447": 48,
        "12448": 252,
        "12449": 180,
        "12450": 117,
        "12451": 205,
        "12452": 103,
        "12453": 168,
        "12454": 175,
        "12455": 102,
        "12456": 189,
        "12457": 59,
        "12458": 1,
        "12459": 28,
        "12460": 206,
        "12461": 89,
        "12462": 80,
        "12463": 143,
        "12464": 2,
        "12465": 217,
        "12466": 84,
        "12467": 156,
        "12468": 111,
        "12469": 107,
        "12470": 251,
        "12471": 205,
        "12472": 209,
        "12473": 36,
        "12474": 206,
        "12475": 81,
        "12476": 109,
        "12477": 148,
        "12478": 86,
        "12479": 105,
        "12480": 176,
        "12481": 60,
        "12482": 106,
        "12483": 69,
        "12484": 4,
        "12485": 34,
        "12486": 48,
        "12487": 17,
        "12488": 134,
        "12489": 193,
        "12490": 48,
        "12491": 29,
        "12492": 218,
        "12493": 243,
        "12494": 33,
        "12495": 57,
        "12496": 13,
        "12497": 64,
        "12498": 254,
        "12499": 249,
        "12500": 231,
        "12501": 55,
        "12502": 219,
        "12503": 52,
        "12504": 243,
        "12505": 226,
        "12506": 37,
        "12507": 187,
        "12508": 150,
        "12509": 49,
        "12510": 211,
        "12511": 40,
        "12512": 204,
        "12513": 27,
        "12514": 122,
        "12515": 138,
        "12516": 72,
        "12517": 169,
        "12518": 40,
        "12519": 253,
        "12520": 13,
        "12521": 134,
        "12522": 252,
        "12523": 63,
        "12524": 26,
        "12525": 41,
        "12526": 37,
        "12527": 90,
        "12528": 224,
        "12529": 88,
        "12530": 148,
        "12531": 130,
        "12532": 12,
        "12533": 91,
        "12534": 197,
        "12535": 215,
        "12536": 49,
        "12537": 221,
        "12538": 57,
        "12539": 85,
        "12540": 104,
        "12541": 46,
        "12542": 27,
        "12543": 121,
        "12544": 249,
        "12545": 113,
        "12546": 141,
        "12547": 16,
        "12548": 206,
        "12549": 30,
        "12550": 80,
        "12551": 23,
        "12552": 253,
        "12553": 177,
        "12554": 126,
        "12555": 139,
        "12556": 146,
        "12557": 29,
        "12558": 15,
        "12559": 123,
        "12560": 38,
        "12561": 2,
        "12562": 208,
        "12563": 118,
        "12564": 189,
        "12565": 142,
        "12566": 137,
        "12567": 12,
        "12568": 246,
        "12569": 103,
        "12570": 114,
        "12571": 45,
        "12572": 147,
        "12573": 19,
        "12574": 27,
        "12575": 149,
        "12576": 239,
        "12577": 196,
        "12578": 161,
        "12579": 116,
        "12580": 116,
        "12581": 245,
        "12582": 121,
        "12583": 228,
        "12584": 26,
        "12585": 13,
        "12586": 103,
        "12587": 7,
        "12588": 170,
        "12589": 157,
        "12590": 84,
        "12591": 16,
        "12592": 216,
        "12593": 60,
        "12594": 249,
        "12595": 9,
        "12596": 158,
        "12597": 13,
        "12598": 249,
        "12599": 215,
        "12600": 47,
        "12601": 85,
        "12602": 254,
        "12603": 122,
        "12604": 152,
        "12605": 221,
        "12606": 116,
        "12607": 166,
        "12608": 118,
        "12609": 133,
        "12610": 10,
        "12611": 174,
        "12612": 246,
        "12613": 86,
        "12614": 54,
        "12615": 214,
        "12616": 245,
        "12617": 82,
        "12618": 42,
        "12619": 131,
        "12620": 83,
        "12621": 189,
        "12622": 9,
        "12623": 254,
        "12624": 225,
        "12625": 2,
        "12626": 4,
        "12627": 161,
        "12628": 112,
        "12629": 132,
        "12630": 88,
        "12631": 107,
        "12632": 144,
        "12633": 51,
        "12634": 16,
        "12635": 87,
        "12636": 231,
        "12637": 161,
        "12638": 152,
        "12639": 63,
        "12640": 162,
        "12641": 72,
        "12642": 78,
        "12643": 179,
        "12644": 236,
        "12645": 216,
        "12646": 140,
        "12647": 80,
        "12648": 169,
        "12649": 124,
        "12650": 224,
        "12651": 215,
        "12652": 144,
        "12653": 69,
        "12654": 160,
        "12655": 78,
        "12656": 24,
        "12657": 136,
        "12658": 154,
        "12659": 43,
        "12660": 247,
        "12661": 150,
        "12662": 70,
        "12663": 229,
        "12664": 28,
        "12665": 255,
        "12666": 134,
        "12667": 61,
        "12668": 24,
        "12669": 209,
        "12670": 150,
        "12671": 131,
        "12672": 111,
        "12673": 50,
        "12674": 143,
        "12675": 141,
        "12676": 116,
        "12677": 220,
        "12678": 150,
        "12679": 15,
        "12680": 171,
        "12681": 152,
        "12682": 117,
        "12683": 26,
        "12684": 147,
        "12685": 195,
        "12686": 232,
        "12687": 153,
        "12688": 240,
        "12689": 238,
        "12690": 175,
        "12691": 15,
        "12692": 247,
        "12693": 215,
        "12694": 191,
        "12695": 152,
        "12696": 201,
        "12697": 7,
        "12698": 110,
        "12699": 4,
        "12700": 125,
        "12701": 217,
        "12702": 11,
        "12703": 115,
        "12704": 66,
        "12705": 172,
        "12706": 143,
        "12707": 3,
        "12708": 187,
        "12709": 14,
        "12710": 28,
        "12711": 181,
        "12712": 110,
        "12713": 98,
        "12714": 124,
        "12715": 222,
        "12716": 196,
        "12717": 226,
        "12718": 143,
        "12719": 210,
        "12720": 129,
        "12721": 70,
        "12722": 248,
        "12723": 168,
        "12724": 238,
        "12725": 132,
        "12726": 145,
        "12727": 105,
        "12728": 128,
        "12729": 34,
        "12730": 65,
        "12731": 70,
        "12732": 217,
        "12733": 28,
        "12734": 197,
        "12735": 155,
        "12736": 152,
        "12737": 169,
        "12738": 7,
        "12739": 214,
        "12740": 99,
        "12741": 189,
        "12742": 65,
        "12743": 190,
        "12744": 134,
        "12745": 144,
        "12746": 226,
        "12747": 45,
        "12748": 19,
        "12749": 131,
        "12750": 138,
        "12751": 197,
        "12752": 17,
        "12753": 91,
        "12754": 236,
        "12755": 205,
        "12756": 24,
        "12757": 32,
        "12758": 132,
        "12759": 89,
        "12760": 34,
        "12761": 163,
        "12762": 72,
        "12763": 205,
        "12764": 217,
        "12765": 240,
        "12766": 38,
        "12767": 187,
        "12768": 185,
        "12769": 156,
        "12770": 241,
        "12771": 200,
        "12772": 123,
        "12773": 130,
        "12774": 160,
        "12775": 204,
        "12776": 101,
        "12777": 30,
        "12778": 175,
        "12779": 139,
        "12780": 68,
        "12781": 55,
        "12782": 175,
        "12783": 166,
        "12784": 120,
        "12785": 109,
        "12786": 127,
        "12787": 158,
        "12788": 233,
        "12789": 107,
        "12790": 173,
        "12791": 45,
        "12792": 42,
        "12793": 63,
        "12794": 77,
        "12795": 61,
        "12796": 235,
        "12797": 9,
        "12798": 6,
        "12799": 137,
        "12800": 233,
        "12801": 144,
        "12802": 55,
        "12803": 106,
        "12804": 211,
        "12805": 29,
        "12806": 191,
        "12807": 244,
        "12808": 58,
        "12809": 97,
        "12810": 147,
        "12811": 93,
        "12812": 80,
        "12813": 24,
        "12814": 38,
        "12815": 55,
        "12816": 119,
        "12817": 55,
        "12818": 189,
        "12819": 65,
        "12820": 139,
        "12821": 112,
        "12822": 253,
        "12823": 182,
        "12824": 206,
        "12825": 84,
        "12826": 35,
        "12827": 141,
        "12828": 3,
        "12829": 29,
        "12830": 171,
        "12831": 170,
        "12832": 153,
        "12833": 239,
        "12834": 115,
        "12835": 73,
        "12836": 51,
        "12837": 37,
        "12838": 180,
        "12839": 148,
        "12840": 202,
        "12841": 172,
        "12842": 225,
        "12843": 127,
        "12844": 128,
        "12845": 101,
        "12846": 200,
        "12847": 90,
        "12848": 164,
        "12849": 189,
        "12850": 123,
        "12851": 158,
        "12852": 36,
        "12853": 28,
        "12854": 180,
        "12855": 67,
        "12856": 70,
        "12857": 85,
        "12858": 55,
        "12859": 152,
        "12860": 9,
        "12861": 156,
        "12862": 180,
        "12863": 172,
        "12864": 246,
        "12865": 22,
        "12866": 80,
        "12867": 44,
        "12868": 214,
        "12869": 94,
        "12870": 160,
        "12871": 68,
        "12872": 170,
        "12873": 239,
        "12874": 224,
        "12875": 70,
        "12876": 224,
        "12877": 145,
        "12878": 31,
        "12879": 218,
        "12880": 66,
        "12881": 83,
        "12882": 85,
        "12883": 137,
        "12884": 1,
        "12885": 33,
        "12886": 28,
        "12887": 108,
        "12888": 237,
        "12889": 183,
        "12890": 89,
        "12891": 131,
        "12892": 88,
        "12893": 27,
        "12894": 183,
        "12895": 93,
        "12896": 198,
        "12897": 213,
        "12898": 76,
        "12899": 82,
        "12900": 161,
        "12901": 10,
        "12902": 250,
        "12903": 156,
        "12904": 106,
        "12905": 137,
        "12906": 42,
        "12907": 203,
        "12908": 139,
        "12909": 223,
        "12910": 123,
        "12911": 233,
        "12912": 102,
        "12913": 116,
        "12914": 184,
        "12915": 206,
        "12916": 150,
        "12917": 83,
        "12918": 161,
        "12919": 118,
        "12920": 22,
        "12921": 208,
        "12922": 125,
        "12923": 47,
        "12924": 144,
        "12925": 130,
        "12926": 92,
        "12927": 53,
        "12928": 43,
        "12929": 196,
        "12930": 33,
        "12931": 175,
        "12932": 137,
        "12933": 186,
        "12934": 212,
        "12935": 236,
        "12936": 16,
        "12937": 190,
        "12938": 250,
        "12939": 135,
        "12940": 61,
        "12941": 74,
        "12942": 187,
        "12943": 98,
        "12944": 2,
        "12945": 10,
        "12946": 218,
        "12947": 248,
        "12948": 179,
        "12949": 40,
        "12950": 3,
        "12951": 116,
        "12952": 203,
        "12953": 216,
        "12954": 222,
        "12955": 39,
        "12956": 35,
        "12957": 15,
        "12958": 225,
        "12959": 195,
        "12960": 211,
        "12961": 162,
        "12962": 119,
        "12963": 86,
        "12964": 188,
        "12965": 139,
        "12966": 242,
        "12967": 126,
        "12968": 30,
        "12969": 68,
        "12970": 60,
        "12971": 115,
        "12972": 115,
        "12973": 99,
        "12974": 140,
        "12975": 30,
        "12976": 255,
        "12977": 208,
        "12978": 4,
        "12979": 51,
        "12980": 156,
        "12981": 222,
        "12982": 96,
        "12983": 221,
        "12984": 56,
        "12985": 217,
        "12986": 157,
        "12987": 148,
        "12988": 211,
        "12989": 54,
        "12990": 94,
        "12991": 107,
        "12992": 204,
        "12993": 26,
        "12994": 72,
        "12995": 110,
        "12996": 6,
        "12997": 116,
        "12998": 149,
        "12999": 151,
        "13000": 36,
        "13001": 128,
        "13002": 88,
        "13003": 184,
        "13004": 208,
        "13005": 252,
        "13006": 162,
        "13007": 69,
        "13008": 228,
        "13009": 42,
        "13010": 117,
        "13011": 161,
        "13012": 44,
        "13013": 39,
        "13014": 196,
        "13015": 22,
        "13016": 101,
        "13017": 100,
        "13018": 7,
        "13019": 15,
        "13020": 226,
        "13021": 110,
        "13022": 40,
        "13023": 61,
        "13024": 144,
        "13025": 243,
        "13026": 211,
        "13027": 52,
        "13028": 141,
        "13029": 102,
        "13030": 129,
        "13031": 112,
        "13032": 76,
        "13033": 1,
        "13034": 67,
        "13035": 11,
        "13036": 100,
        "13037": 74,
        "13038": 177,
        "13039": 166,
        "13040": 85,
        "13041": 253,
        "13042": 212,
        "13043": 94,
        "13044": 178,
        "13045": 137,
        "13046": 142,
        "13047": 147,
        "13048": 211,
        "13049": 81,
        "13050": 105,
        "13051": 181,
        "13052": 93,
        "13053": 47,
        "13054": 231,
        "13055": 115,
        "13056": 10,
        "13057": 61,
        "13058": 9,
        "13059": 231,
        "13060": 4,
        "13061": 152,
        "13062": 152,
        "13063": 175,
        "13064": 8,
        "13065": 249,
        "13066": 93,
        "13067": 95,
        "13068": 36,
        "13069": 160,
        "13070": 136,
        "13071": 212,
        "13072": 252,
        "13073": 156,
        "13074": 190,
        "13075": 149,
        "13076": 114,
        "13077": 138,
        "13078": 181,
        "13079": 59,
        "13080": 132,
        "13081": 97,
        "13082": 75,
        "13083": 44,
        "13084": 224,
        "13085": 0,
        "13086": 110,
        "13087": 37,
        "13088": 141,
        "13089": 33,
        "13090": 103,
        "13091": 27,
        "13092": 220,
        "13093": 12,
        "13094": 227,
        "13095": 83,
        "13096": 160,
        "13097": 251,
        "13098": 41,
        "13099": 80,
        "13100": 155,
        "13101": 74,
        "13102": 69,
        "13103": 49,
        "13104": 43,
        "13105": 30,
        "13106": 82,
        "13107": 9,
        "13108": 116,
        "13109": 98,
        "13110": 174,
        "13111": 205,
        "13112": 142,
        "13113": 212,
        "13114": 180,
        "13115": 84,
        "13116": 255,
        "13117": 17,
        "13118": 252,
        "13119": 20,
        "13120": 148,
        "13121": 52,
        "13122": 243,
        "13123": 37,
        "13124": 220,
        "13125": 207,
        "13126": 149,
        "13127": 210,
        "13128": 38,
        "13129": 9,
        "13130": 172,
        "13131": 56,
        "13132": 2,
        "13133": 14,
        "13134": 246,
        "13135": 55,
        "13136": 212,
        "13137": 197,
        "13138": 69,
        "13139": 147,
        "13140": 230,
        "13141": 10,
        "13142": 106,
        "13143": 68,
        "13144": 235,
        "13145": 93,
        "13146": 173,
        "13147": 162,
        "13148": 175,
        "13149": 141,
        "13150": 48,
        "13151": 130,
        "13152": 224,
        "13153": 205,
        "13154": 165,
        "13155": 153,
        "13156": 63,
        "13157": 41,
        "13158": 255,
        "13159": 127,
        "13160": 160,
        "13161": 103,
        "13162": 20,
        "13163": 250,
        "13164": 169,
        "13165": 94,
        "13166": 144,
        "13167": 113,
        "13168": 16,
        "13169": 95,
        "13170": 99,
        "13171": 169,
        "13172": 158,
        "13173": 244,
        "13174": 205,
        "13175": 126,
        "13176": 89,
        "13177": 129,
        "13178": 26,
        "13179": 237,
        "13180": 242,
        "13181": 60,
        "13182": 107,
        "13183": 61,
        "13184": 223,
        "13185": 165,
        "13186": 92,
        "13187": 67,
        "13188": 199,
        "13189": 174,
        "13190": 159,
        "13191": 39,
        "13192": 68,
        "13193": 239,
        "13194": 69,
        "13195": 253,
        "13196": 102,
        "13197": 145,
        "13198": 223,
        "13199": 92,
        "13200": 184,
        "13201": 72,
        "13202": 145,
        "13203": 101,
        "13204": 194,
        "13205": 220,
        "13206": 2,
        "13207": 231,
        "13208": 28,
        "13209": 213,
        "13210": 130,
        "13211": 231,
        "13212": 135,
        "13213": 167,
        "13214": 49,
        "13215": 103,
        "13216": 36,
        "13217": 37,
        "13218": 116,
        "13219": 180,
        "13220": 248,
        "13221": 171,
        "13222": 113,
        "13223": 193,
        "13224": 165,
        "13225": 95,
        "13226": 37,
        "13227": 174,
        "13228": 227,
        "13229": 103,
        "13230": 34,
        "13231": 1,
        "13232": 157,
        "13233": 57,
        "13234": 40,
        "13235": 219,
        "13236": 178,
        "13237": 176,
        "13238": 71,
        "13239": 253,
        "13240": 247,
        "13241": 4,
        "13242": 225,
        "13243": 22,
        "13244": 82,
        "13245": 8,
        "13246": 221,
        "13247": 14,
        "13248": 0,
        "13249": 10,
        "13250": 66,
        "13251": 246,
        "13252": 20,
        "13253": 1,
        "13254": 54,
        "13255": 171,
        "13256": 68,
        "13257": 103,
        "13258": 252,
        "13259": 229,
        "13260": 142,
        "13261": 197,
        "13262": 51,
        "13263": 223,
        "13264": 3,
        "13265": 83,
        "13266": 193,
        "13267": 160,
        "13268": 30,
        "13269": 70,
        "13270": 218,
        "13271": 147,
        "13272": 42,
        "13273": 149,
        "13274": 60,
        "13275": 5,
        "13276": 151,
        "13277": 138,
        "13278": 160,
        "13279": 140,
        "13280": 108,
        "13281": 74,
        "13282": 64,
        "13283": 11,
        "13284": 168,
        "13285": 199,
        "13286": 39,
        "13287": 156,
        "13288": 43,
        "13289": 241,
        "13290": 190,
        "13291": 232,
        "13292": 115,
        "13293": 12,
        "13294": 60,
        "13295": 122,
        "13296": 7,
        "13297": 39,
        "13298": 102,
        "13299": 111,
        "13300": 211,
        "13301": 67,
        "13302": 235,
        "13303": 27,
        "13304": 167,
        "13305": 251,
        "13306": 234,
        "13307": 203,
        "13308": 224,
        "13309": 155,
        "13310": 100,
        "13311": 116,
        "13312": 198,
        "13313": 242,
        "13314": 23,
        "13315": 185,
        "13316": 11,
        "13317": 179,
        "13318": 224,
        "13319": 134,
        "13320": 93,
        "13321": 154,
        "13322": 4,
        "13323": 125,
        "13324": 47,
        "13325": 23,
        "13326": 7,
        "13327": 187,
        "13328": 92,
        "13329": 140,
        "13330": 43,
        "13331": 55,
        "13332": 169,
        "13333": 12,
        "13334": 166,
        "13335": 130,
        "13336": 253,
        "13337": 40,
        "13338": 25,
        "13339": 194,
        "13340": 181,
        "13341": 40,
        "13342": 49,
        "13343": 98,
        "13344": 122,
        "13345": 17,
        "13346": 201,
        "13347": 155,
        "13348": 99,
        "13349": 52,
        "13350": 255,
        "13351": 247,
        "13352": 128,
        "13353": 200,
        "13354": 210,
        "13355": 215,
        "13356": 244,
        "13357": 208,
        "13358": 45,
        "13359": 252,
        "13360": 222,
        "13361": 2,
        "13362": 34,
        "13363": 82,
        "13364": 103,
        "13365": 122,
        "13366": 233,
        "13367": 200,
        "13368": 50,
        "13369": 87,
        "13370": 26,
        "13371": 75,
        "13372": 182,
        "13373": 97,
        "13374": 35,
        "13375": 75,
        "13376": 203,
        "13377": 177,
        "13378": 50,
        "13379": 36,
        "13380": 27,
        "13381": 144,
        "13382": 207,
        "13383": 102,
        "13384": 168,
        "13385": 244,
        "13386": 244,
        "13387": 106,
        "13388": 161,
        "13389": 64,
        "13390": 186,
        "13391": 104,
        "13392": 68,
        "13393": 102,
        "13394": 225,
        "13395": 166,
        "13396": 193,
        "13397": 38,
        "13398": 25,
        "13399": 213,
        "13400": 209,
        "13401": 130,
        "13402": 138,
        "13403": 246,
        "13404": 236,
        "13405": 58,
        "13406": 152,
        "13407": 22,
        "13408": 180,
        "13409": 32,
        "13410": 104,
        "13411": 108,
        "13412": 148,
        "13413": 22,
        "13414": 141,
        "13415": 228,
        "13416": 224,
        "13417": 77,
        "13418": 130,
        "13419": 21,
        "13420": 40,
        "13421": 34,
        "13422": 80,
        "13423": 212,
        "13424": 118,
        "13425": 32,
        "13426": 181,
        "13427": 104,
        "13428": 19,
        "13429": 166,
        "13430": 67,
        "13431": 171,
        "13432": 68,
        "13433": 30,
        "13434": 232,
        "13435": 174,
        "13436": 184,
        "13437": 218,
        "13438": 149,
        "13439": 167,
        "13440": 185,
        "13441": 172,
        "13442": 153,
        "13443": 62,
        "13444": 26,
        "13445": 39,
        "13446": 28,
        "13447": 143,
        "13448": 3,
        "13449": 113,
        "13450": 191,
        "13451": 25,
        "13452": 102,
        "13453": 98,
        "13454": 83,
        "13455": 135,
        "13456": 194,
        "13457": 30,
        "13458": 72,
        "13459": 131,
        "13460": 161,
        "13461": 111,
        "13462": 131,
        "13463": 96,
        "13464": 65,
        "13465": 26,
        "13466": 246,
        "13467": 147,
        "13468": 4,
        "13469": 255,
        "13470": 20,
        "13471": 81,
        "13472": 127,
        "13473": 100,
        "13474": 215,
        "13475": 42,
        "13476": 200,
        "13477": 141,
        "13478": 66,
        "13479": 132,
        "13480": 6,
        "13481": 45,
        "13482": 12,
        "13483": 32,
        "13484": 159,
        "13485": 232,
        "13486": 24,
        "13487": 164,
        "13488": 0,
        "13489": 241,
        "13490": 143,
        "13491": 7,
        "13492": 146,
        "13493": 38,
        "13494": 187,
        "13495": 21,
        "13496": 155,
        "13497": 191,
        "13498": 194,
        "13499": 22,
        "13500": 8,
        "13501": 254,
        "13502": 255,
        "13503": 190,
        "13504": 204,
        "13505": 79,
        "13506": 246,
        "13507": 49,
        "13508": 252,
        "13509": 119,
        "13510": 168,
        "13511": 226,
        "13512": 180,
        "13513": 10,
        "13514": 221,
        "13515": 163,
        "13516": 44,
        "13517": 212,
        "13518": 51,
        "13519": 173,
        "13520": 255,
        "13521": 43,
        "13522": 208,
        "13523": 172,
        "13524": 189,
        "13525": 83,
        "13526": 200,
        "13527": 102,
        "13528": 191,
        "13529": 78,
        "13530": 52,
        "13531": 219,
        "13532": 126,
        "13533": 240,
        "13534": 166,
        "13535": 235,
        "13536": 48,
        "13537": 64,
        "13538": 238,
        "13539": 196,
        "13540": 197,
        "13541": 180,
        "13542": 208,
        "13543": 136,
        "13544": 70,
        "13545": 58,
        "13546": 71,
        "13547": 166,
        "13548": 62,
        "13549": 115,
        "13550": 234,
        "13551": 240,
        "13552": 30,
        "13553": 209,
        "13554": 233,
        "13555": 49,
        "13556": 143,
        "13557": 137,
        "13558": 234,
        "13559": 106,
        "13560": 187,
        "13561": 22,
        "13562": 135,
        "13563": 78,
        "13564": 116,
        "13565": 142,
        "13566": 20,
        "13567": 199,
        "13568": 177,
        "13569": 132,
        "13570": 198,
        "13571": 182,
        "13572": 221,
        "13573": 88,
        "13574": 237,
        "13575": 134,
        "13576": 11,
        "13577": 160,
        "13578": 119,
        "13579": 27,
        "13580": 196,
        "13581": 250,
        "13582": 74,
        "13583": 36,
        "13584": 1,
        "13585": 151,
        "13586": 220,
        "13587": 11,
        "13588": 45,
        "13589": 213,
        "13590": 166,
        "13591": 250,
        "13592": 167,
        "13593": 49,
        "13594": 59,
        "13595": 115,
        "13596": 249,
        "13597": 109,
        "13598": 243,
        "13599": 94,
        "13600": 134,
        "13601": 208,
        "13602": 199,
        "13603": 192,
        "13604": 4,
        "13605": 49,
        "13606": 11,
        "13607": 215,
        "13608": 196,
        "13609": 209,
        "13610": 73,
        "13611": 87,
        "13612": 61,
        "13613": 173,
        "13614": 189,
        "13615": 89,
        "13616": 91,
        "13617": 149,
        "13618": 124,
        "13619": 203,
        "13620": 237,
        "13621": 51,
        "13622": 182,
        "13623": 21,
        "13624": 43,
        "13625": 1,
        "13626": 186,
        "13627": 11,
        "13628": 130,
        "13629": 136,
        "13630": 169,
        "13631": 86,
        "13632": 6,
        "13633": 244,
        "13634": 80,
        "13635": 134,
        "13636": 124,
        "13637": 117,
        "13638": 187,
        "13639": 135,
        "13640": 167,
        "13641": 243,
        "13642": 63,
        "13643": 227,
        "13644": 114,
        "13645": 204,
        "13646": 78,
        "13647": 116,
        "13648": 92,
        "13649": 68,
        "13650": 157,
        "13651": 71,
        "13652": 237,
        "13653": 206,
        "13654": 139,
        "13655": 199,
        "13656": 9,
        "13657": 85,
        "13658": 178,
        "13659": 27,
        "13660": 73,
        "13661": 199,
        "13662": 68,
        "13663": 231,
        "13664": 89,
        "13665": 5,
        "13666": 125,
        "13667": 234,
        "13668": 104,
        "13669": 181,
        "13670": 27,
        "13671": 108,
        "13672": 235,
        "13673": 198,
        "13674": 147,
        "13675": 114,
        "13676": 11,
        "13677": 135,
        "13678": 183,
        "13679": 13,
        "13680": 98,
        "13681": 254,
        "13682": 243,
        "13683": 239,
        "13684": 13,
        "13685": 158,
        "13686": 218,
        "13687": 78,
        "13688": 95,
        "13689": 179,
        "13690": 125,
        "13691": 149,
        "13692": 7,
        "13693": 37,
        "13694": 220,
        "13695": 75,
        "13696": 232,
        "13697": 110,
        "13698": 139,
        "13699": 80,
        "13700": 156,
        "13701": 199,
        "13702": 51,
        "13703": 78,
        "13704": 167,
        "13705": 128,
        "13706": 70,
        "13707": 26,
        "13708": 120,
        "13709": 71,
        "13710": 103,
        "13711": 218,
        "13712": 6,
        "13713": 229,
        "13714": 26,
        "13715": 24,
        "13716": 5,
        "13717": 172,
        "13718": 113,
        "13719": 248,
        "13720": 36,
        "13721": 254,
        "13722": 43,
        "13723": 172,
        "13724": 45,
        "13725": 128,
        "13726": 227,
        "13727": 182,
        "13728": 186,
        "13729": 162,
        "13730": 48,
        "13731": 98,
        "13732": 170,
        "13733": 16,
        "13734": 110,
        "13735": 121,
        "13736": 157,
        "13737": 25,
        "13738": 41,
        "13739": 40,
        "13740": 113,
        "13741": 248,
        "13742": 45,
        "13743": 143,
        "13744": 142,
        "13745": 219,
        "13746": 39,
        "13747": 221,
        "13748": 78,
        "13749": 60,
        "13750": 157,
        "13751": 44,
        "13752": 69,
        "13753": 51,
        "13754": 157,
        "13755": 146,
        "13756": 35,
        "13757": 138,
        "13758": 48,
        "13759": 70,
        "13760": 86,
        "13761": 213,
        "13762": 92,
        "13763": 34,
        "13764": 209,
        "13765": 226,
        "13766": 244,
        "13767": 102,
        "13768": 237,
        "13769": 19,
        "13770": 179,
        "13771": 152,
        "13772": 185,
        "13773": 146,
        "13774": 138,
        "13775": 73,
        "13776": 158,
        "13777": 45,
        "13778": 27,
        "13779": 7,
        "13780": 118,
        "13781": 43,
        "13782": 48,
        "13783": 80,
        "13784": 245,
        "13785": 217,
        "13786": 182,
        "13787": 141,
        "13788": 42,
        "13789": 21,
        "13790": 103,
        "13791": 155,
        "13792": 18,
        "13793": 104,
        "13794": 49,
        "13795": 116,
        "13796": 125,
        "13797": 147,
        "13798": 141,
        "13799": 191,
        "13800": 30,
        "13801": 68,
        "13802": 118,
        "13803": 58,
        "13804": 56,
        "13805": 206,
        "13806": 53,
        "13807": 134,
        "13808": 14,
        "13809": 172,
        "13810": 247,
        "13811": 93,
        "13812": 82,
        "13813": 183,
        "13814": 116,
        "13815": 55,
        "13816": 36,
        "13817": 255,
        "13818": 188,
        "13819": 58,
        "13820": 126,
        "13821": 0,
        "13822": 221,
        "13823": 227,
        "13824": 165,
        "13825": 164,
        "13826": 0,
        "13827": 15,
        "13828": 192,
        "13829": 110,
        "13830": 95,
        "13831": 147,
        "13832": 127,
        "13833": 180,
        "13834": 2,
        "13835": 236,
        "13836": 7,
        "13837": 248,
        "13838": 147,
        "13839": 249,
        "13840": 157,
        "13841": 249,
        "13842": 21,
        "13843": 201,
        "13844": 226,
        "13845": 0,
        "13846": 237,
        "13847": 101,
        "13848": 205,
        "13849": 50,
        "13850": 173,
        "13851": 226,
        "13852": 119,
        "13853": 84,
        "13854": 135,
        "13855": 27,
        "13856": 216,
        "13857": 36,
        "13858": 30,
        "13859": 181,
        "13860": 182,
        "13861": 183,
        "13862": 215,
        "13863": 50,
        "13864": 186,
        "13865": 188,
        "13866": 129,
        "13867": 205,
        "13868": 136,
        "13869": 10,
        "13870": 78,
        "13871": 199,
        "13872": 75,
        "13873": 209,
        "13874": 246,
        "13875": 171,
        "13876": 220,
        "13877": 246,
        "13878": 171,
        "13879": 141,
        "13880": 208,
        "13881": 13,
        "13882": 199,
        "13883": 118,
        "13884": 133,
        "13885": 94,
        "13886": 29,
        "13887": 47,
        "13888": 162,
        "13889": 115,
        "13890": 207,
        "13891": 34,
        "13892": 220,
        "13893": 20,
        "13894": 99,
        "13895": 239,
        "13896": 169,
        "13897": 225,
        "13898": 203,
        "13899": 61,
        "13900": 155,
        "13901": 104,
        "13902": 23,
        "13903": 83,
        "13904": 172,
        "13905": 214,
        "13906": 15,
        "13907": 218,
        "13908": 140,
        "13909": 178,
        "13910": 98,
        "13911": 110,
        "13912": 96,
        "13913": 73,
        "13914": 107,
        "13915": 215,
        "13916": 28,
        "13917": 143,
        "13918": 106,
        "13919": 153,
        "13920": 33,
        "13921": 241,
        "13922": 38,
        "13923": 200,
        "13924": 137,
        "13925": 187,
        "13926": 96,
        "13927": 192,
        "13928": 198,
        "13929": 91,
        "13930": 58,
        "13931": 60,
        "13932": 180,
        "13933": 78,
        "13934": 126,
        "13935": 10,
        "13936": 156,
        "13937": 172,
        "13938": 8,
        "13939": 190,
        "13940": 10,
        "13941": 15,
        "13942": 100,
        "13943": 181,
        "13944": 122,
        "13945": 171,
        "13946": 18,
        "13947": 45,
        "13948": 200,
        "13949": 252,
        "13950": 2,
        "13951": 206,
        "13952": 16,
        "13953": 103,
        "13954": 6,
        "13955": 35,
        "13956": 72,
        "13957": 163,
        "13958": 242,
        "13959": 196,
        "13960": 209,
        "13961": 225,
        "13962": 17,
        "13963": 115,
        "13964": 248,
        "13965": 168,
        "13966": 86,
        "13967": 111,
        "13968": 70,
        "13969": 55,
        "13970": 88,
        "13971": 49,
        "13972": 95,
        "13973": 48,
        "13974": 132,
        "13975": 10,
        "13976": 189,
        "13977": 243,
        "13978": 75,
        "13979": 115,
        "13980": 198,
        "13981": 148,
        "13982": 130,
        "13983": 14,
        "13984": 148,
        "13985": 252,
        "13986": 200,
        "13987": 240,
        "13988": 207,
        "13989": 218,
        "13990": 187,
        "13991": 245,
        "13992": 108,
        "13993": 255,
        "13994": 45,
        "13995": 244,
        "13996": 18,
        "13997": 113,
        "13998": 158,
        "13999": 226,
        "14000": 29,
        "14001": 18,
        "14002": 147,
        "14003": 20,
        "14004": 142,
        "14005": 77,
        "14006": 111,
        "14007": 11,
        "14008": 63,
        "14009": 61,
        "14010": 118,
        "14011": 186,
        "14012": 19,
        "14013": 82,
        "14014": 18,
        "14015": 18,
        "14016": 5,
        "14017": 76,
        "14018": 206,
        "14019": 136,
        "14020": 64,
        "14021": 32,
        "14022": 44,
        "14023": 71,
        "14024": 78,
        "14025": 168,
        "14026": 235,
        "14027": 188,
        "14028": 191,
        "14029": 46,
        "14030": 124,
        "14031": 159,
        "14032": 80,
        "14033": 95,
        "14034": 103,
        "14035": 158,
        "14036": 175,
        "14037": 148,
        "14038": 12,
        "14039": 23,
        "14040": 156,
        "14041": 133,
        "14042": 205,
        "14043": 86,
        "14044": 155,
        "14045": 228,
        "14046": 194,
        "14047": 113,
        "14048": 87,
        "14049": 195,
        "14050": 226,
        "14051": 197,
        "14052": 6,
        "14053": 102,
        "14054": 155,
        "14055": 91,
        "14056": 199,
        "14057": 10,
        "14058": 28,
        "14059": 147,
        "14060": 250,
        "14061": 220,
        "14062": 128,
        "14063": 227,
        "14064": 192,
        "14065": 155,
        "14066": 23,
        "14067": 249,
        "14068": 58,
        "14069": 220,
        "14070": 67,
        "14071": 237,
        "14072": 26,
        "14073": 29,
        "14074": 243,
        "14075": 184,
        "14076": 110,
        "14077": 191,
        "14078": 212,
        "14079": 73,
        "14080": 254,
        "14081": 132,
        "14082": 66,
        "14083": 175,
        "14084": 142,
        "14085": 179,
        "14086": 24,
        "14087": 1,
        "14088": 84,
        "14089": 217,
        "14090": 60,
        "14091": 155,
        "14092": 178,
        "14093": 251,
        "14094": 63,
        "14095": 50,
        "14096": 109,
        "14097": 100,
        "14098": 12,
        "14099": 221,
        "14100": 240,
        "14101": 45,
        "14102": 143,
        "14103": 225,
        "14104": 216,
        "14105": 183,
        "14106": 41,
        "14107": 95,
        "14108": 28,
        "14109": 169,
        "14110": 142,
        "14111": 168,
        "14112": 117,
        "14113": 221,
        "14114": 255,
        "14115": 174,
        "14116": 246,
        "14117": 186,
        "14118": 175,
        "14119": 106,
        "14120": 227,
        "14121": 243,
        "14122": 37,
        "14123": 104,
        "14124": 15,
        "14125": 150,
        "14126": 167,
        "14127": 93,
        "14128": 17,
        "14129": 12,
        "14130": 59,
        "14131": 30,
        "14132": 112,
        "14133": 107,
        "14134": 219,
        "14135": 186,
        "14136": 152,
        "14137": 3,
        "14138": 206,
        "14139": 2,
        "14140": 214,
        "14141": 115,
        "14142": 117,
        "14143": 96,
        "14144": 245,
        "14145": 6,
        "14146": 108,
        "14147": 20,
        "14148": 159,
        "14149": 96,
        "14150": 49,
        "14151": 248,
        "14152": 186,
        "14153": 132,
        "14154": 188,
        "14155": 48,
        "14156": 206,
        "14157": 208,
        "14158": 63,
        "14159": 21,
        "14160": 92,
        "14161": 175,
        "14162": 199,
        "14163": 179,
        "14164": 1,
        "14165": 131,
        "14166": 245,
        "14167": 244,
        "14168": 213,
        "14169": 77,
        "14170": 111,
        "14171": 117,
        "14172": 80,
        "14173": 202,
        "14174": 154,
        "14175": 61,
        "14176": 106,
        "14177": 195,
        "14178": 214,
        "14179": 209,
        "14180": 54,
        "14181": 249,
        "14182": 126,
        "14183": 124,
        "14184": 183,
        "14185": 126,
        "14186": 99,
        "14187": 219,
        "14188": 30,
        "14189": 124,
        "14190": 215,
        "14191": 224,
        "14192": 109,
        "14193": 65,
        "14194": 93,
        "14195": 66,
        "14196": 142,
        "14197": 88,
        "14198": 161,
        "14199": 221,
        "14200": 52,
        "14201": 67,
        "14202": 76,
        "14203": 148,
        "14204": 182,
        "14205": 155,
        "14206": 187,
        "14207": 213,
        "14208": 33,
        "14209": 186,
        "14210": 230,
        "14211": 47,
        "14212": 58,
        "14213": 163,
        "14214": 14,
        "14215": 55,
        "14216": 14,
        "14217": 217,
        "14218": 125,
        "14219": 165,
        "14220": 158,
        "14221": 63,
        "14222": 95,
        "14223": 93,
        "14224": 78,
        "14225": 112,
        "14226": 189,
        "14227": 81,
        "14228": 174,
        "14229": 134,
        "14230": 189,
        "14231": 63,
        "14232": 155,
        "14233": 214,
        "14234": 100,
        "14235": 164,
        "14236": 39,
        "14237": 39,
        "14238": 108,
        "14239": 243,
        "14240": 39,
        "14241": 123,
        "14242": 176,
        "14243": 233,
        "14244": 72,
        "14245": 15,
        "14246": 251,
        "14247": 37,
        "14248": 195,
        "14249": 72,
        "14250": 194,
        "14251": 179,
        "14252": 22,
        "14253": 83,
        "14254": 22,
        "14255": 231,
        "14256": 122,
        "14257": 6,
        "14258": 43,
        "14259": 144,
        "14260": 201,
        "14261": 241,
        "14262": 54,
        "14263": 215,
        "14264": 27,
        "14265": 20,
        "14266": 81,
        "14267": 15,
        "14268": 218,
        "14269": 212,
        "14270": 210,
        "14271": 104,
        "14272": 111,
        "14273": 25,
        "14274": 98,
        "14275": 12,
        "14276": 135,
        "14277": 168,
        "14278": 11,
        "14279": 137,
        "14280": 167,
        "14281": 168,
        "14282": 31,
        "14283": 182,
        "14284": 213,
        "14285": 144,
        "14286": 74,
        "14287": 94,
        "14288": 52,
        "14289": 30,
        "14290": 201,
        "14291": 134,
        "14292": 240,
        "14293": 241,
        "14294": 12,
        "14295": 99,
        "14296": 215,
        "14297": 97,
        "14298": 119,
        "14299": 31,
        "14300": 126,
        "14301": 90,
        "14302": 227,
        "14303": 13,
        "14304": 31,
        "14305": 6,
        "14306": 240,
        "14307": 33,
        "14308": 71,
        "14309": 237,
        "14310": 193,
        "14311": 225,
        "14312": 167,
        "14313": 240,
        "14314": 125,
        "14315": 106,
        "14316": 105,
        "14317": 185,
        "14318": 36,
        "14319": 124,
        "14320": 1,
        "14321": 126,
        "14322": 238,
        "14323": 81,
        "14324": 203,
        "14325": 63,
        "14326": 58,
        "14327": 186,
        "14328": 86,
        "14329": 59,
        "14330": 25,
        "14331": 129,
        "14332": 94,
        "14333": 151,
        "14334": 201,
        "14335": 134,
        "14336": 91,
        "14337": 201,
        "14338": 52,
        "14339": 115,
        "14340": 218,
        "14341": 183,
        "14342": 104,
        "14343": 59,
        "14344": 6,
        "14345": 181,
        "14346": 176,
        "14347": 47,
        "14348": 232,
        "14349": 52,
        "14350": 254,
        "14351": 56,
        "14352": 253,
        "14353": 120,
        "14354": 37,
        "14355": 12,
        "14356": 34,
        "14357": 144,
        "14358": 44,
        "14359": 49,
        "14360": 44,
        "14361": 215,
        "14362": 177,
        "14363": 195,
        "14364": 89,
        "14365": 82,
        "14366": 232,
        "14367": 239,
        "14368": 42,
        "14369": 68,
        "14370": 144,
        "14371": 21,
        "14372": 166,
        "14373": 162,
        "14374": 210,
        "14375": 139,
        "14376": 190,
        "14377": 28,
        "14378": 129,
        "14379": 152,
        "14380": 202,
        "14381": 72,
        "14382": 112,
        "14383": 65,
        "14384": 96,
        "14385": 60,
        "14386": 75,
        "14387": 61,
        "14388": 66,
        "14389": 9,
        "14390": 44,
        "14391": 252,
        "14392": 71,
        "14393": 109,
        "14394": 17,
        "14395": 19,
        "14396": 55,
        "14397": 82,
        "14398": 150,
        "14399": 238,
        "14400": 93,
        "14401": 224,
        "14402": 141,
        "14403": 37,
        "14404": 86,
        "14405": 50,
        "14406": 129,
        "14407": 70,
        "14408": 171,
        "14409": 5,
        "14410": 50,
        "14411": 28,
        "14412": 109,
        "14413": 233,
        "14414": 67,
        "14415": 6,
        "14416": 167,
        "14417": 236,
        "14418": 249,
        "14419": 160,
        "14420": 149,
        "14421": 92,
        "14422": 158,
        "14423": 133,
        "14424": 95,
        "14425": 251,
        "14426": 136,
        "14427": 26,
        "14428": 216,
        "14429": 173,
        "14430": 92,
        "14431": 8,
        "14432": 189,
        "14433": 158,
        "14434": 204,
        "14435": 198,
        "14436": 112,
        "14437": 216,
        "14438": 60,
        "14439": 178,
        "14440": 96,
        "14441": 177,
        "14442": 230,
        "14443": 37,
        "14444": 43,
        "14445": 14,
        "14446": 33,
        "14447": 9,
        "14448": 232,
        "14449": 233,
        "14450": 12,
        "14451": 50,
        "14452": 238,
        "14453": 115,
        "14454": 132,
        "14455": 192,
        "14456": 112,
        "14457": 228,
        "14458": 128,
        "14459": 199,
        "14460": 226,
        "14461": 205,
        "14462": 204,
        "14463": 20,
        "14464": 2,
        "14465": 19,
        "14466": 101,
        "14467": 67,
        "14468": 184,
        "14469": 142,
        "14470": 247,
        "14471": 28,
        "14472": 173,
        "14473": 119,
        "14474": 147,
        "14475": 113,
        "14476": 114,
        "14477": 84,
        "14478": 229,
        "14479": 182,
        "14480": 29,
        "14481": 205,
        "14482": 162,
        "14483": 225,
        "14484": 23,
        "14485": 158,
        "14486": 164,
        "14487": 9,
        "14488": 236,
        "14489": 56,
        "14490": 119,
        "14491": 15,
        "14492": 168,
        "14493": 39,
        "14494": 230,
        "14495": 202,
        "14496": 5,
        "14497": 207,
        "14498": 12,
        "14499": 140,
        "14500": 195,
        "14501": 78,
        "14502": 237,
        "14503": 106,
        "14504": 58,
        "14505": 127,
        "14506": 67,
        "14507": 105,
        "14508": 139,
        "14509": 104,
        "14510": 117,
        "14511": 16,
        "14512": 41,
        "14513": 193,
        "14514": 83,
        "14515": 25,
        "14516": 35,
        "14517": 3,
        "14518": 152,
        "14519": 214,
        "14520": 254,
        "14521": 21,
        "14522": 223,
        "14523": 69,
        "14524": 64,
        "14525": 216,
        "14526": 76,
        "14527": 62,
        "14528": 236,
        "14529": 32,
        "14530": 250,
        "14531": 206,
        "14532": 11,
        "14533": 186,
        "14534": 171,
        "14535": 35,
        "14536": 59,
        "14537": 50,
        "14538": 59,
        "14539": 149,
        "14540": 114,
        "14541": 32,
        "14542": 94,
        "14543": 101,
        "14544": 138,
        "14545": 153,
        "14546": 129,
        "14547": 35,
        "14548": 159,
        "14549": 213,
        "14550": 215,
        "14551": 75,
        "14552": 185,
        "14553": 66,
        "14554": 244,
        "14555": 65,
        "14556": 145,
        "14557": 255,
        "14558": 168,
        "14559": 234,
        "14560": 252,
        "14561": 242,
        "14562": 144,
        "14563": 242,
        "14564": 148,
        "14565": 192,
        "14566": 220,
        "14567": 180,
        "14568": 217,
        "14569": 104,
        "14570": 228,
        "14571": 137,
        "14572": 223,
        "14573": 139,
        "14574": 150,
        "14575": 22,
        "14576": 60,
        "14577": 82,
        "14578": 62,
        "14579": 133,
        "14580": 135,
        "14581": 85,
        "14582": 172,
        "14583": 99,
        "14584": 254,
        "14585": 127,
        "14586": 196,
        "14587": 192,
        "14588": 84,
        "14589": 245,
        "14590": 132,
        "14591": 184,
        "14592": 112,
        "14593": 166,
        "14594": 29,
        "14595": 163,
        "14596": 129,
        "14597": 24,
        "14598": 70,
        "14599": 73,
        "14600": 70,
        "14601": 87,
        "14602": 214,
        "14603": 17,
        "14604": 16,
        "14605": 247,
        "14606": 126,
        "14607": 217,
        "14608": 160,
        "14609": 195,
        "14610": 213,
        "14611": 172,
        "14612": 38,
        "14613": 245,
        "14614": 219,
        "14615": 13,
        "14616": 195,
        "14617": 124,
        "14618": 230,
        "14619": 141,
        "14620": 8,
        "14621": 96,
        "14622": 2,
        "14623": 39,
        "14624": 238,
        "14625": 63,
        "14626": 192,
        "14627": 43,
        "14628": 246,
        "14629": 132,
        "14630": 237,
        "14631": 72,
        "14632": 71,
        "14633": 13,
        "14634": 168,
        "14635": 62,
        "14636": 5,
        "14637": 40,
        "14638": 71,
        "14639": 180,
        "14640": 15,
        "14641": 111,
        "14642": 54,
        "14643": 64,
        "14644": 87,
        "14645": 36,
        "14646": 83,
        "14647": 184,
        "14648": 235,
        "14649": 253,
        "14650": 247,
        "14651": 113,
        "14652": 192,
        "14653": 10,
        "14654": 172,
        "14655": 84,
        "14656": 130,
        "14657": 31,
        "14658": 186,
        "14659": 180,
        "14660": 220,
        "14661": 221,
        "14662": 122,
        "14663": 41,
        "14664": 47,
        "14665": 0,
        "14666": 113,
        "14667": 146,
        "14668": 101,
        "14669": 18,
        "14670": 157,
        "14671": 207,
        "14672": 142,
        "14673": 232,
        "14674": 183,
        "14675": 223,
        "14676": 49,
        "14677": 26,
        "14678": 179,
        "14679": 12,
        "14680": 204,
        "14681": 35,
        "14682": 213,
        "14683": 249,
        "14684": 133,
        "14685": 38,
        "14686": 21,
        "14687": 212,
        "14688": 53,
        "14689": 25,
        "14690": 63,
        "14691": 163,
        "14692": 82,
        "14693": 168,
        "14694": 79,
        "14695": 161,
        "14696": 124,
        "14697": 243,
        "14698": 213,
        "14699": 197,
        "14700": 14,
        "14701": 5,
        "14702": 113,
        "14703": 84,
        "14704": 137,
        "14705": 114,
        "14706": 207,
        "14707": 63,
        "14708": 135,
        "14709": 200,
        "14710": 216,
        "14711": 167,
        "14712": 177,
        "14713": 216,
        "14714": 222,
        "14715": 168,
        "14716": 194,
        "14717": 143,
        "14718": 235,
        "14719": 87,
        "14720": 103,
        "14721": 78,
        "14722": 59,
        "14723": 2,
        "14724": 224,
        "14725": 112,
        "14726": 134,
        "14727": 127,
        "14728": 38,
        "14729": 130,
        "14730": 92,
        "14731": 70,
        "14732": 189,
        "14733": 124,
        "14734": 94,
        "14735": 238,
        "14736": 33,
        "14737": 30,
        "14738": 138,
        "14739": 95,
        "14740": 70,
        "14741": 31,
        "14742": 2,
        "14743": 22,
        "14744": 30,
        "14745": 0,
        "14746": 162,
        "14747": 83,
        "14748": 37,
        "14749": 172,
        "14750": 225,
        "14751": 242,
        "14752": 76,
        "14753": 170,
        "14754": 194,
        "14755": 32,
        "14756": 93,
        "14757": 42,
        "14758": 215,
        "14759": 90,
        "14760": 252,
        "14761": 181,
        "14762": 84,
        "14763": 146,
        "14764": 173,
        "14765": 153,
        "14766": 135,
        "14767": 35,
        "14768": 229,
        "14769": 131,
        "14770": 185,
        "14771": 231,
        "14772": 113,
        "14773": 210,
        "14774": 67,
        "14775": 50,
        "14776": 193,
        "14777": 66,
        "14778": 155,
        "14779": 148,
        "14780": 110,
        "14781": 131,
        "14782": 194,
        "14783": 58,
        "14784": 168,
        "14785": 183,
        "14786": 30,
        "14787": 121,
        "14788": 174,
        "14789": 130,
        "14790": 78,
        "14791": 20,
        "14792": 165,
        "14793": 135,
        "14794": 76,
        "14795": 184,
        "14796": 139,
        "14797": 198,
        "14798": 128,
        "14799": 223,
        "14800": 175,
        "14801": 54,
        "14802": 139,
        "14803": 206,
        "14804": 29,
        "14805": 247,
        "14806": 217,
        "14807": 82,
        "14808": 137,
        "14809": 66,
        "14810": 132,
        "14811": 211,
        "14812": 234,
        "14813": 182,
        "14814": 1,
        "14815": 226,
        "14816": 152,
        "14817": 249,
        "14818": 186,
        "14819": 59,
        "14820": 247,
        "14821": 119,
        "14822": 6,
        "14823": 190,
        "14824": 213,
        "14825": 66,
        "14826": 55,
        "14827": 147,
        "14828": 160,
        "14829": 235,
        "14830": 164,
        "14831": 245,
        "14832": 74,
        "14833": 51,
        "14834": 21,
        "14835": 249,
        "14836": 123,
        "14837": 220,
        "14838": 10,
        "14839": 76,
        "14840": 65,
        "14841": 244,
        "14842": 141,
        "14843": 60,
        "14844": 228,
        "14845": 51,
        "14846": 142,
        "14847": 116,
        "14848": 71,
        "14849": 236,
        "14850": 255,
        "14851": 143,
        "14852": 147,
        "14853": 66,
        "14854": 250,
        "14855": 2,
        "14856": 69,
        "14857": 1,
        "14858": 184,
        "14859": 220,
        "14860": 62,
        "14861": 147,
        "14862": 177,
        "14863": 17,
        "14864": 77,
        "14865": 133,
        "14866": 26,
        "14867": 195,
        "14868": 30,
        "14869": 210,
        "14870": 70,
        "14871": 134,
        "14872": 173,
        "14873": 47,
        "14874": 47,
        "14875": 156,
        "14876": 3,
        "14877": 234,
        "14878": 84,
        "14879": 154,
        "14880": 61,
        "14881": 10,
        "14882": 13,
        "14883": 19,
        "14884": 66,
        "14885": 152,
        "14886": 235,
        "14887": 148,
        "14888": 215,
        "14889": 98,
        "14890": 200,
        "14891": 22,
        "14892": 0,
        "14893": 76,
        "14894": 142,
        "14895": 67,
        "14896": 119,
        "14897": 11,
        "14898": 241,
        "14899": 98,
        "14900": 161,
        "14901": 192,
        "14902": 94,
        "14903": 71,
        "14904": 123,
        "14905": 254,
        "14906": 45,
        "14907": 33,
        "14908": 121,
        "14909": 221,
        "14910": 93,
        "14911": 149,
        "14912": 153,
        "14913": 187,
        "14914": 255,
        "14915": 35,
        "14916": 240,
        "14917": 129,
        "14918": 119,
        "14919": 91,
        "14920": 104,
        "14921": 80,
        "14922": 149,
        "14923": 26,
        "14924": 97,
        "14925": 48,
        "14926": 210,
        "14927": 249,
        "14928": 112,
        "14929": 26,
        "14930": 234,
        "14931": 32,
        "14932": 12,
        "14933": 167,
        "14934": 9,
        "14935": 66,
        "14936": 123,
        "14937": 124,
        "14938": 239,
        "14939": 92,
        "14940": 130,
        "14941": 71,
        "14942": 133,
        "14943": 93,
        "14944": 72,
        "14945": 116,
        "14946": 113,
        "14947": 218,
        "14948": 191,
        "14949": 99,
        "14950": 201,
        "14951": 23,
        "14952": 27,
        "14953": 115,
        "14954": 168,
        "14955": 216,
        "14956": 109,
        "14957": 205,
        "14958": 194,
        "14959": 64,
        "14960": 12,
        "14961": 138,
        "14962": 74,
        "14963": 127,
        "14964": 192,
        "14965": 103,
        "14966": 187,
        "14967": 105,
        "14968": 206,
        "14969": 217,
        "14970": 70,
        "14971": 79,
        "14972": 188,
        "14973": 79,
        "14974": 28,
        "14975": 64,
        "14976": 252,
        "14977": 111,
        "14978": 23,
        "14979": 58,
        "14980": 200,
        "14981": 128,
        "14982": 255,
        "14983": 98,
        "14984": 6,
        "14985": 37,
        "14986": 209,
        "14987": 93,
        "14988": 49,
        "14989": 177,
        "14990": 173,
        "14991": 236,
        "14992": 146,
        "14993": 21,
        "14994": 237,
        "14995": 108,
        "14996": 0,
        "14997": 27,
        "14998": 41,
        "14999": 170,
        "15000": 63,
        "15001": 88,
        "15002": 22,
        "15003": 96,
        "15004": 172,
        "15005": 96,
        "15006": 254,
        "15007": 133,
        "15008": 15,
        "15009": 246,
        "15010": 123,
        "15011": 212,
        "15012": 108,
        "15013": 198,
        "15014": 28,
        "15015": 17,
        "15016": 227,
        "15017": 79,
        "15018": 146,
        "15019": 101,
        "15020": 42,
        "15021": 118,
        "15022": 105,
        "15023": 198,
        "15024": 154,
        "15025": 5,
        "15026": 236,
        "15027": 83,
        "15028": 49,
        "15029": 169,
        "15030": 15,
        "15031": 83,
        "15032": 250,
        "15033": 137,
        "15034": 246,
        "15035": 150,
        "15036": 4,
        "15037": 238,
        "15038": 131,
        "15039": 69,
        "15040": 72,
        "15041": 100,
        "15042": 7,
        "15043": 9,
        "15044": 185,
        "15045": 138,
        "15046": 100,
        "15047": 180,
        "15048": 229,
        "15049": 222,
        "15050": 75,
        "15051": 79,
        "15052": 244,
        "15053": 190,
        "15054": 76,
        "15055": 103,
        "15056": 224,
        "15057": 101,
        "15058": 95,
        "15059": 69,
        "15060": 7,
        "15061": 156,
        "15062": 230,
        "15063": 124,
        "15064": 53,
        "15065": 94,
        "15066": 135,
        "15067": 62,
        "15068": 121,
        "15069": 129,
        "15070": 152,
        "15071": 213,
        "15072": 145,
        "15073": 151,
        "15074": 1,
        "15075": 111,
        "15076": 181,
        "15077": 146,
        "15078": 4,
        "15079": 143,
        "15080": 186,
        "15081": 23,
        "15082": 21,
        "15083": 137,
        "15084": 245,
        "15085": 19,
        "15086": 188,
        "15087": 29,
        "15088": 223,
        "15089": 72,
        "15090": 179,
        "15091": 175,
        "15092": 79,
        "15093": 156,
        "15094": 27,
        "15095": 118,
        "15096": 1,
        "15097": 54,
        "15098": 252,
        "15099": 9,
        "15100": 201,
        "15101": 147,
        "15102": 29,
        "15103": 170,
        "15104": 95,
        "15105": 16,
        "15106": 28,
        "15107": 221,
        "15108": 226,
        "15109": 106,
        "15110": 138,
        "15111": 109,
        "15112": 13,
        "15113": 90,
        "15114": 242,
        "15115": 3,
        "15116": 124,
        "15117": 40,
        "15118": 117,
        "15119": 42,
        "15120": 17,
        "15121": 5,
        "15122": 36,
        "15123": 26,
        "15124": 24,
        "15125": 87,
        "15126": 106,
        "15127": 50,
        "15128": 19,
        "15129": 176,
        "15130": 204,
        "15131": 169,
        "15132": 145,
        "15133": 183,
        "15134": 251,
        "15135": 246,
        "15136": 252,
        "15137": 183,
        "15138": 178,
        "15139": 241,
        "15140": 122,
        "15141": 117,
        "15142": 194,
        "15143": 105,
        "15144": 163,
        "15145": 183,
        "15146": 255,
        "15147": 78,
        "15148": 88,
        "15149": 189,
        "15150": 35,
        "15151": 232,
        "15152": 127,
        "15153": 40,
        "15154": 136,
        "15155": 115,
        "15156": 145,
        "15157": 97,
        "15158": 94,
        "15159": 173,
        "15160": 18,
        "15161": 112,
        "15162": 211,
        "15163": 42,
        "15164": 95,
        "15165": 222,
        "15166": 24,
        "15167": 109,
        "15168": 203,
        "15169": 177,
        "15170": 155,
        "15171": 22,
        "15172": 211,
        "15173": 90,
        "15174": 55,
        "15175": 213,
        "15176": 20,
        "15177": 95,
        "15178": 253,
        "15179": 235,
        "15180": 25,
        "15181": 84,
        "15182": 178,
        "15183": 100,
        "15184": 195,
        "15185": 195,
        "15186": 220,
        "15187": 20,
        "15188": 92,
        "15189": 149,
        "15190": 147,
        "15191": 37,
        "15192": 191,
        "15193": 210,
        "15194": 207,
        "15195": 242,
        "15196": 97,
        "15197": 71,
        "15198": 71,
        "15199": 29,
        "15200": 141,
        "15201": 210,
        "15202": 10,
        "15203": 86,
        "15204": 243,
        "15205": 1,
        "15206": 203,
        "15207": 99,
        "15208": 157,
        "15209": 109,
        "15210": 135,
        "15211": 144,
        "15212": 172,
        "15213": 199,
        "15214": 83,
        "15215": 253,
        "15216": 72,
        "15217": 21,
        "15218": 112,
        "15219": 144,
        "15220": 225,
        "15221": 49,
        "15222": 240,
        "15223": 203,
        "15224": 80,
        "15225": 82,
        "15226": 152,
        "15227": 171,
        "15228": 49,
        "15229": 173,
        "15230": 60,
        "15231": 203,
        "15232": 180,
        "15233": 162,
        "15234": 14,
        "15235": 45,
        "15236": 213,
        "15237": 10,
        "15238": 1,
        "15239": 152,
        "15240": 163,
        "15241": 83,
        "15242": 49,
        "15243": 65,
        "15244": 75,
        "15245": 179,
        "15246": 62,
        "15247": 61,
        "15248": 138,
        "15249": 123,
        "15250": 119,
        "15251": 206,
        "15252": 85,
        "15253": 104,
        "15254": 102,
        "15255": 60,
        "15256": 61,
        "15257": 173,
        "15258": 191,
        "15259": 52,
        "15260": 228,
        "15261": 10,
        "15262": 39,
        "15263": 75,
        "15264": 188,
        "15265": 122,
        "15266": 169,
        "15267": 1,
        "15268": 159,
        "15269": 185,
        "15270": 117,
        "15271": 195,
        "15272": 179,
        "15273": 19,
        "15274": 60,
        "15275": 234,
        "15276": 219,
        "15277": 87,
        "15278": 196,
        "15279": 195,
        "15280": 22,
        "15281": 133,
        "15282": 11,
        "15283": 140,
        "15284": 168,
        "15285": 73,
        "15286": 48,
        "15287": 41,
        "15288": 124,
        "15289": 221,
        "15290": 175,
        "15291": 24,
        "15292": 16,
        "15293": 29,
        "15294": 159,
        "15295": 181,
        "15296": 227,
        "15297": 3,
        "15298": 0,
        "15299": 23,
        "15300": 228,
        "15301": 217,
        "15302": 10,
        "15303": 59,
        "15304": 225,
        "15305": 190,
        "15306": 74,
        "15307": 182,
        "15308": 28,
        "15309": 210,
        "15310": 50,
        "15311": 253,
        "15312": 183,
        "15313": 114,
        "15314": 203,
        "15315": 115,
        "15316": 25,
        "15317": 200,
        "15318": 169,
        "15319": 95,
        "15320": 41,
        "15321": 154,
        "15322": 233,
        "15323": 139,
        "15324": 249,
        "15325": 223,
        "15326": 45,
        "15327": 223,
        "15328": 134,
        "15329": 98,
        "15330": 109,
        "15331": 212,
        "15332": 137,
        "15333": 77,
        "15334": 167,
        "15335": 190,
        "15336": 49,
        "15337": 127,
        "15338": 50,
        "15339": 55,
        "15340": 34,
        "15341": 130,
        "15342": 131,
        "15343": 26,
        "15344": 142,
        "15345": 1,
        "15346": 0,
        "15347": 152,
        "15348": 156,
        "15349": 244,
        "15350": 69,
        "15351": 64,
        "15352": 61,
        "15353": 114,
        "15354": 215,
        "15355": 142,
        "15356": 190,
        "15357": 29,
        "15358": 204,
        "15359": 195,
        "15360": 164,
        "15361": 240,
        "15362": 18,
        "15363": 81,
        "15364": 32,
        "15365": 140,
        "15366": 3,
        "15367": 153,
        "15368": 200,
        "15369": 194,
        "15370": 246,
        "15371": 249,
        "15372": 112,
        "15373": 125,
        "15374": 157,
        "15375": 42,
        "15376": 46,
        "15377": 126,
        "15378": 17,
        "15379": 176,
        "15380": 46,
        "15381": 96,
        "15382": 133,
        "15383": 241,
        "15384": 188,
        "15385": 59,
        "15386": 109,
        "15387": 163,
        "15388": 207,
        "15389": 234,
        "15390": 71,
        "15391": 221,
        "15392": 53,
        "15393": 250,
        "15394": 69,
        "15395": 61,
        "15396": 155,
        "15397": 214,
        "15398": 108,
        "15399": 169,
        "15400": 66,
        "15401": 31,
        "15402": 233,
        "15403": 220,
        "15404": 239,
        "15405": 223,
        "15406": 48,
        "15407": 197,
        "15408": 5,
        "15409": 91,
        "15410": 64,
        "15411": 147,
        "15412": 40,
        "15413": 222,
        "15414": 52,
        "15415": 6,
        "15416": 199,
        "15417": 211,
        "15418": 27,
        "15419": 148,
        "15420": 194,
        "15421": 116,
        "15422": 163,
        "15423": 211,
        "15424": 254,
        "15425": 66,
        "15426": 245,
        "15427": 54,
        "15428": 211,
        "15429": 0,
        "15430": 180,
        "15431": 20,
        "15432": 37,
        "15433": 105,
        "15434": 61,
        "15435": 116,
        "15436": 223,
        "15437": 24,
        "15438": 248,
        "15439": 166,
        "15440": 157,
        "15441": 45,
        "15442": 132,
        "15443": 159,
        "15444": 193,
        "15445": 26,
        "15446": 186,
        "15447": 1,
        "15448": 175,
        "15449": 88,
        "15450": 30,
        "15451": 0,
        "15452": 127,
        "15453": 161,
        "15454": 213,
        "15455": 155,
        "15456": 14,
        "15457": 252,
        "15458": 88,
        "15459": 174,
        "15460": 53,
        "15461": 133,
        "15462": 252,
        "15463": 198,
        "15464": 232,
        "15465": 107,
        "15466": 0,
        "15467": 124,
        "15468": 136,
        "15469": 231,
        "15470": 166,
        "15471": 71,
        "15472": 66,
        "15473": 249,
        "15474": 15,
        "15475": 104,
        "15476": 25,
        "15477": 143,
        "15478": 242,
        "15479": 234,
        "15480": 204,
        "15481": 56,
        "15482": 174,
        "15483": 40,
        "15484": 168,
        "15485": 130,
        "15486": 151,
        "15487": 52,
        "15488": 140,
        "15489": 180,
        "15490": 110,
        "15491": 79,
        "15492": 3,
        "15493": 212,
        "15494": 240,
        "15495": 187,
        "15496": 1,
        "15497": 176,
        "15498": 155,
        "15499": 83,
        "15500": 112,
        "15501": 148,
        "15502": 120,
        "15503": 234,
        "15504": 65,
        "15505": 44,
        "15506": 17,
        "15507": 80,
        "15508": 44,
        "15509": 44,
        "15510": 160,
        "15511": 103,
        "15512": 189,
        "15513": 52,
        "15514": 235,
        "15515": 164,
        "15516": 243,
        "15517": 197,
        "15518": 3,
        "15519": 117,
        "15520": 80,
        "15521": 35,
        "15522": 80,
        "15523": 198,
        "15524": 180,
        "15525": 97,
        "15526": 251,
        "15527": 41,
        "15528": 160,
        "15529": 144,
        "15530": 33,
        "15531": 151,
        "15532": 61,
        "15533": 218,
        "15534": 254,
        "15535": 51,
        "15536": 23,
        "15537": 133,
        "15538": 239,
        "15539": 162,
        "15540": 43,
        "15541": 91,
        "15542": 59,
        "15543": 53,
        "15544": 21,
        "15545": 23,
        "15546": 227,
        "15547": 128,
        "15548": 58,
        "15549": 44,
        "15550": 174,
        "15551": 43,
        "15552": 122,
        "15553": 104,
        "15554": 210,
        "15555": 75,
        "15556": 213,
        "15557": 188,
        "15558": 61,
        "15559": 183,
        "15560": 246,
        "15561": 25,
        "15562": 155,
        "15563": 162,
        "15564": 164,
        "15565": 109,
        "15566": 253,
        "15567": 53,
        "15568": 58,
        "15569": 29,
        "15570": 71,
        "15571": 14,
        "15572": 175,
        "15573": 143,
        "15574": 170,
        "15575": 97,
        "15576": 134,
        "15577": 60,
        "15578": 224,
        "15579": 81,
        "15580": 0,
        "15581": 209,
        "15582": 230,
        "15583": 169,
        "15584": 23,
        "15585": 241,
        "15586": 98,
        "15587": 68,
        "15588": 16,
        "15589": 152,
        "15590": 21,
        "15591": 17,
        "15592": 244,
        "15593": 136,
        "15594": 237,
        "15595": 120,
        "15596": 108,
        "15597": 149,
        "15598": 48,
        "15599": 63,
        "15600": 208,
        "15601": 163,
        "15602": 108,
        "15603": 99,
        "15604": 17,
        "15605": 78,
        "15606": 146,
        "15607": 39,
        "15608": 47,
        "15609": 64,
        "15610": 118,
        "15611": 226,
        "15612": 62,
        "15613": 65,
        "15614": 145,
        "15615": 22,
        "15616": 80,
        "15617": 199,
        "15618": 8,
        "15619": 216,
        "15620": 161,
        "15621": 234,
        "15622": 107,
        "15623": 207,
        "15624": 236,
        "15625": 229,
        "15626": 80,
        "15627": 75,
        "15628": 23,
        "15629": 155,
        "15630": 8,
        "15631": 226,
        "15632": 141,
        "15633": 148,
        "15634": 123,
        "15635": 234,
        "15636": 62,
        "15637": 230,
        "15638": 27,
        "15639": 225,
        "15640": 255,
        "15641": 248,
        "15642": 193,
        "15643": 83,
        "15644": 216,
        "15645": 214,
        "15646": 227,
        "15647": 174,
        "15648": 108,
        "15649": 168,
        "15650": 108,
        "15651": 253,
        "15652": 122,
        "15653": 181,
        "15654": 147,
        "15655": 70,
        "15656": 248,
        "15657": 141,
        "15658": 3,
        "15659": 48,
        "15660": 3,
        "15661": 124,
        "15662": 227,
        "15663": 235,
        "15664": 192,
        "15665": 143,
        "15666": 189,
        "15667": 78,
        "15668": 115,
        "15669": 192,
        "15670": 140,
        "15671": 116,
        "15672": 222,
        "15673": 211,
        "15674": 153,
        "15675": 84,
        "15676": 150,
        "15677": 250,
        "15678": 122,
        "15679": 129,
        "15680": 121,
        "15681": 64,
        "15682": 250,
        "15683": 51,
        "15684": 159,
        "15685": 2,
        "15686": 29,
        "15687": 143,
        "15688": 30,
        "15689": 73,
        "15690": 42,
        "15691": 202,
        "15692": 50,
        "15693": 154,
        "15694": 182,
        "15695": 221,
        "15696": 48,
        "15697": 4,
        "15698": 7,
        "15699": 118,
        "15700": 174,
        "15701": 234,
        "15702": 182,
        "15703": 238,
        "15704": 198,
        "15705": 217,
        "15706": 52,
        "15707": 72,
        "15708": 215,
        "15709": 147,
        "15710": 190,
        "15711": 171,
        "15712": 169,
        "15713": 248,
        "15714": 219,
        "15715": 227,
        "15716": 165,
        "15717": 177,
        "15718": 75,
        "15719": 29,
        "15720": 131,
        "15721": 12,
        "15722": 79,
        "15723": 16,
        "15724": 99,
        "15725": 138,
        "15726": 234,
        "15727": 20,
        "15728": 13,
        "15729": 247,
        "15730": 107,
        "15731": 23,
        "15732": 178,
        "15733": 3,
        "15734": 26,
        "15735": 212,
        "15736": 30,
        "15737": 89,
        "15738": 75,
        "15739": 234,
        "15740": 189,
        "15741": 205,
        "15742": 92,
        "15743": 196,
        "15744": 106,
        "15745": 139,
        "15746": 17,
        "15747": 203,
        "15748": 50,
        "15749": 52,
        "15750": 46,
        "15751": 75,
        "15752": 61,
        "15753": 227,
        "15754": 29,
        "15755": 82,
        "15756": 252,
        "15757": 146,
        "15758": 225,
        "15759": 222,
        "15760": 43,
        "15761": 164,
        "15762": 61,
        "15763": 145,
        "15764": 17,
        "15765": 31,
        "15766": 237,
        "15767": 142,
        "15768": 41,
        "15769": 235,
        "15770": 138,
        "15771": 103,
        "15772": 19,
        "15773": 224,
        "15774": 185,
        "15775": 176,
        "15776": 69,
        "15777": 163,
        "15778": 64,
        "15779": 247,
        "15780": 66,
        "15781": 190,
        "15782": 31,
        "15783": 190,
        "15784": 41,
        "15785": 225,
        "15786": 191,
        "15787": 102,
        "15788": 42,
        "15789": 119,
        "15790": 111,
        "15791": 218,
        "15792": 30,
        "15793": 98,
        "15794": 193,
        "15795": 249,
        "15796": 21,
        "15797": 167,
        "15798": 244,
        "15799": 39,
        "15800": 108,
        "15801": 151,
        "15802": 158,
        "15803": 137,
        "15804": 183,
        "15805": 177,
        "15806": 23,
        "15807": 105,
        "15808": 52,
        "15809": 127,
        "15810": 14,
        "15811": 208,
        "15812": 249,
        "15813": 99,
        "15814": 13,
        "15815": 70,
        "15816": 213,
        "15817": 127,
        "15818": 180,
        "15819": 106,
        "15820": 40,
        "15821": 171,
        "15822": 21,
        "15823": 92,
        "15824": 207,
        "15825": 90,
        "15826": 244,
        "15827": 133,
        "15828": 138,
        "15829": 165,
        "15830": 10,
        "15831": 163,
        "15832": 148,
        "15833": 220,
        "15834": 203,
        "15835": 25,
        "15836": 56,
        "15837": 100,
        "15838": 205,
        "15839": 204,
        "15840": 172,
        "15841": 185,
        "15842": 218,
        "15843": 124,
        "15844": 240,
        "15845": 243,
        "15846": 247,
        "15847": 216,
        "15848": 127,
        "15849": 233,
        "15850": 69,
        "15851": 75,
        "15852": 225,
        "15853": 188,
        "15854": 60,
        "15855": 38,
        "15856": 2,
        "15857": 75,
        "15858": 207,
        "15859": 7,
        "15860": 211,
        "15861": 61,
        "15862": 31,
        "15863": 35,
        "15864": 200,
        "15865": 5,
        "15866": 47,
        "15867": 176,
        "15868": 216,
        "15869": 179,
        "15870": 95,
        "15871": 203,
        "15872": 245,
        "15873": 215,
        "15874": 166,
        "15875": 242,
        "15876": 102,
        "15877": 198,
        "15878": 212,
        "15879": 117,
        "15880": 1,
        "15881": 173,
        "15882": 150,
        "15883": 117,
        "15884": 97,
        "15885": 240,
        "15886": 240,
        "15887": 230,
        "15888": 88,
        "15889": 61,
        "15890": 46,
        "15891": 190,
        "15892": 104,
        "15893": 168,
        "15894": 146,
        "15895": 164,
        "15896": 144,
        "15897": 5,
        "15898": 118,
        "15899": 63,
        "15900": 211,
        "15901": 122,
        "15902": 236,
        "15903": 112,
        "15904": 100,
        "15905": 117,
        "15906": 8,
        "15907": 139,
        "15908": 45,
        "15909": 124,
        "15910": 180,
        "15911": 194,
        "15912": 4,
        "15913": 175,
        "15914": 144,
        "15915": 180,
        "15916": 219,
        "15917": 147,
        "15918": 224,
        "15919": 209,
        "15920": 73,
        "15921": 127,
        "15922": 103,
        "15923": 51,
        "15924": 228,
        "15925": 90,
        "15926": 135,
        "15927": 148,
        "15928": 14,
        "15929": 38,
        "15930": 54,
        "15931": 198,
        "15932": 113,
        "15933": 202,
        "15934": 148,
        "15935": 188,
        "15936": 200,
        "15937": 121,
        "15938": 125,
        "15939": 47,
        "15940": 23,
        "15941": 2,
        "15942": 244,
        "15943": 186,
        "15944": 45,
        "15945": 72,
        "15946": 4,
        "15947": 6,
        "15948": 4,
        "15949": 80,
        "15950": 65,
        "15951": 35,
        "15952": 183,
        "15953": 197,
        "15954": 214,
        "15955": 226,
        "15956": 48,
        "15957": 47,
        "15958": 102,
        "15959": 116,
        "15960": 248,
        "15961": 184,
        "15962": 175,
        "15963": 58,
        "15964": 144,
        "15965": 124,
        "15966": 60,
        "15967": 158,
        "15968": 57,
        "15969": 245,
        "15970": 212,
        "15971": 224,
        "15972": 52,
        "15973": 5,
        "15974": 50,
        "15975": 169,
        "15976": 7,
        "15977": 207,
        "15978": 19,
        "15979": 213,
        "15980": 27,
        "15981": 167,
        "15982": 57,
        "15983": 127,
        "15984": 219,
        "15985": 23,
        "15986": 138,
        "15987": 248,
        "15988": 105,
        "15989": 99,
        "15990": 0,
        "15991": 75,
        "15992": 21,
        "15993": 89,
        "15994": 93,
        "15995": 92,
        "15996": 101,
        "15997": 225,
        "15998": 187,
        "15999": 124,
        "16000": 199,
        "16001": 123,
        "16002": 225,
        "16003": 62,
        "16004": 185,
        "16005": 123,
        "16006": 128,
        "16007": 21,
        "16008": 146,
        "16009": 219,
        "16010": 20,
        "16011": 39,
        "16012": 94,
        "16013": 33,
        "16014": 202,
        "16015": 198,
        "16016": 204,
        "16017": 132,
        "16018": 184,
        "16019": 24,
        "16020": 103,
        "16021": 224,
        "16022": 160,
        "16023": 1,
        "16024": 170,
        "16025": 127,
        "16026": 73,
        "16027": 239,
        "16028": 25,
        "16029": 8,
        "16030": 141,
        "16031": 81,
        "16032": 79,
        "16033": 155,
        "16034": 43,
        "16035": 133,
        "16036": 136,
        "16037": 106,
        "16038": 139,
        "16039": 93,
        "16040": 0,
        "16041": 49,
        "16042": 19,
        "16043": 135,
        "16044": 163,
        "16045": 69,
        "16046": 172,
        "16047": 31,
        "16048": 71,
        "16049": 4,
        "16050": 139,
        "16051": 50,
        "16052": 20,
        "16053": 246,
        "16054": 105,
        "16055": 81,
        "16056": 142,
        "16057": 121,
        "16058": 213,
        "16059": 103,
        "16060": 71,
        "16061": 147,
        "16062": 62,
        "16063": 215,
        "16064": 104,
        "16065": 36,
        "16066": 17,
        "16067": 119,
        "16068": 132,
        "16069": 30,
        "16070": 5,
        "16071": 130,
        "16072": 231,
        "16073": 105,
        "16074": 86,
        "16075": 202,
        "16076": 113,
        "16077": 235,
        "16078": 143,
        "16079": 195,
        "16080": 223,
        "16081": 233,
        "16082": 16,
        "16083": 39,
        "16084": 183,
        "16085": 105,
        "16086": 10,
        "16087": 217,
        "16088": 200,
        "16089": 48,
        "16090": 217,
        "16091": 209,
        "16092": 238,
        "16093": 68,
        "16094": 99,
        "16095": 38,
        "16096": 220,
        "16097": 60,
        "16098": 24,
        "16099": 164,
        "16100": 4,
        "16101": 239,
        "16102": 100,
        "16103": 123,
        "16104": 146,
        "16105": 124,
        "16106": 56,
        "16107": 223,
        "16108": 49,
        "16109": 134,
        "16110": 235,
        "16111": 101,
        "16112": 189,
        "16113": 98,
        "16114": 71,
        "16115": 93,
        "16116": 203,
        "16117": 16,
        "16118": 244,
        "16119": 218,
        "16120": 239,
        "16121": 158,
        "16122": 61,
        "16123": 112,
        "16124": 108,
        "16125": 9,
        "16126": 255,
        "16127": 109,
        "16128": 214,
        "16129": 46,
        "16130": 160,
        "16131": 200,
        "16132": 58,
        "16133": 185,
        "16134": 79,
        "16135": 185,
        "16136": 53,
        "16137": 158,
        "16138": 68,
        "16139": 254,
        "16140": 85,
        "16141": 68,
        "16142": 181,
        "16143": 236,
        "16144": 254,
        "16145": 238,
        "16146": 112,
        "16147": 118,
        "16148": 180,
        "16149": 213,
        "16150": 49,
        "16151": 184,
        "16152": 163,
        "16153": 196,
        "16154": 90,
        "16155": 170,
        "16156": 161,
        "16157": 171,
        "16158": 117,
        "16159": 127,
        "16160": 82,
        "16161": 110,
        "16162": 2,
        "16163": 74,
        "16164": 76,
        "16165": 185,
        "16166": 204,
        "16167": 49,
        "16168": 232,
        "16169": 90,
        "16170": 139,
        "16171": 14,
        "16172": 35,
        "16173": 57,
        "16174": 124,
        "16175": 34,
        "16176": 88,
        "16177": 134,
        "16178": 89,
        "16179": 173,
        "16180": 200,
        "16181": 88,
        "16182": 220,
        "16183": 156,
        "16184": 97,
        "16185": 31,
        "16186": 82,
        "16187": 241,
        "16188": 18,
        "16189": 126,
        "16190": 113,
        "16191": 10,
        "16192": 79,
        "16193": 252,
        "16194": 111,
        "16195": 224,
        "16196": 200,
        "16197": 10,
        "16198": 31,
        "16199": 48,
        "16200": 30,
        "16201": 242,
        "16202": 255,
        "16203": 149,
        "16204": 60,
        "16205": 37,
        "16206": 211,
        "16207": 226,
        "16208": 148,
        "16209": 33,
        "16210": 48,
        "16211": 175,
        "16212": 170,
        "16213": 142,
        "16214": 246,
        "16215": 14,
        "16216": 125,
        "16217": 66,
        "16218": 59,
        "16219": 16,
        "16220": 99,
        "16221": 250,
        "16222": 128,
        "16223": 95,
        "16224": 96,
        "16225": 21,
        "16226": 25,
        "16227": 61,
        "16228": 191,
        "16229": 220,
        "16230": 55,
        "16231": 153,
        "16232": 49,
        "16233": 246,
        "16234": 79,
        "16235": 164,
        "16236": 241,
        "16237": 91,
        "16238": 99,
        "16239": 230,
        "16240": 150,
        "16241": 90,
        "16242": 158,
        "16243": 78,
        "16244": 75,
        "16245": 17,
        "16246": 170,
        "16247": 214,
        "16248": 4,
        "16249": 202,
        "16250": 39,
        "16251": 53,
        "16252": 179,
        "16253": 0,
        "16254": 236,
        "16255": 21,
        "16256": 100,
        "16257": 118,
        "16258": 79,
        "16259": 200,
        "16260": 13,
        "16261": 112,
        "16262": 197,
        "16263": 161,
        "16264": 83,
        "16265": 68,
        "16266": 91,
        "16267": 199,
        "16268": 188,
        "16269": 10,
        "16270": 4,
        "16271": 162,
        "16272": 189,
        "16273": 198,
        "16274": 103,
        "16275": 63,
        "16276": 116,
        "16277": 154,
        "16278": 250,
        "16279": 231,
        "16280": 71,
        "16281": 130,
        "16282": 9,
        "16283": 118,
        "16284": 209,
        "16285": 188,
        "16286": 84,
        "16287": 96,
        "16288": 105,
        "16289": 244,
        "16290": 62,
        "16291": 102,
        "16292": 207,
        "16293": 155,
        "16294": 79,
        "16295": 56,
        "16296": 153,
        "16297": 109,
        "16298": 89,
        "16299": 201,
        "16300": 129,
        "16301": 98,
        "16302": 160,
        "16303": 61,
        "16304": 102,
        "16305": 219,
        "16306": 0,
        "16307": 95,
        "16308": 126,
        "16309": 208,
        "16310": 134,
        "16311": 142,
        "16312": 54,
        "16313": 58,
        "16314": 40,
        "16315": 19,
        "16316": 216,
        "16317": 148,
        "16318": 240,
        "16319": 232,
        "16320": 32,
        "16321": 203,
        "16322": 197,
        "16323": 19,
        "16324": 180,
        "16325": 136,
        "16326": 183,
        "16327": 220,
        "16328": 253,
        "16329": 167,
        "16330": 95,
        "16331": 231,
        "16332": 226,
        "16333": 105,
        "16334": 68,
        "16335": 58,
        "16336": 123,
        "16337": 212,
        "16338": 209,
        "16339": 16,
        "16340": 204,
        "16341": 230,
        "16342": 175,
        "16343": 6,
        "16344": 109,
        "16345": 104,
        "16346": 167,
        "16347": 243,
        "16348": 79,
        "16349": 145,
        "16350": 254,
        "16351": 145,
        "16352": 85,
        "16353": 173,
        "16354": 157,
        "16355": 49,
        "16356": 7,
        "16357": 51,
        "16358": 145,
        "16359": 110,
        "16360": 91,
        "16361": 47,
        "16362": 13,
        "16363": 127,
        "16364": 23,
        "16365": 36,
        "16366": 62,
        "16367": 191,
        "16368": 251,
        "16369": 84,
        "16370": 237,
        "16371": 184,
        "16372": 116,
        "16373": 215,
        "16374": 145,
        "16375": 170,
        "16376": 86,
        "16377": 97,
        "16378": 82,
        "16379": 158,
        "16380": 40,
        "16381": 140,
        "16382": 136,
        "16383": 20,
        "16384": 31,
        "16385": 168,
        "16386": 179,
        "16387": 115,
        "16388": 95,
        "16389": 167,
        "16390": 231,
        "16391": 125,
        "16392": 227,
        "16393": 125,
        "16394": 229,
        "16395": 104,
        "16396": 79,
        "16397": 133,
        "16398": 126,
        "16399": 233,
        "16400": 101,
        "16401": 83,
        "16402": 240,
        "16403": 222,
        "16404": 210,
        "16405": 83,
        "16406": 91,
        "16407": 157,
        "16408": 225,
        "16409": 74,
        "16410": 200,
        "16411": 103,
        "16412": 24,
        "16413": 89,
        "16414": 200,
        "16415": 168,
        "16416": 188,
        "16417": 74,
        "16418": 140,
        "16419": 51,
        "16420": 190,
        "16421": 62,
        "16422": 10,
        "16423": 190,
        "16424": 34,
        "16425": 40,
        "16426": 13,
        "16427": 124,
        "16428": 141,
        "16429": 13,
        "16430": 144,
        "16431": 206,
        "16432": 82,
        "16433": 172,
        "16434": 123,
        "16435": 238,
        "16436": 5,
        "16437": 61,
        "16438": 214,
        "16439": 129,
        "16440": 112,
        "16441": 191,
        "16442": 237,
        "16443": 133,
        "16444": 241,
        "16445": 93,
        "16446": 68,
        "16447": 82,
        "16448": 14,
        "16449": 10,
        "16450": 127,
        "16451": 35,
        "16452": 205,
        "16453": 80,
        "16454": 68,
        "16455": 18,
        "16456": 72,
        "16457": 43,
        "16458": 245,
        "16459": 248,
        "16460": 173,
        "16461": 143,
        "16462": 109,
        "16463": 30,
        "16464": 168,
        "16465": 92,
        "16466": 76,
        "16467": 104,
        "16468": 54,
        "16469": 5,
        "16470": 246,
        "16471": 34,
        "16472": 161,
        "16473": 122,
        "16474": 35,
        "16475": 77,
        "16476": 106,
        "16477": 42,
        "16478": 204,
        "16479": 216,
        "16480": 204,
        "16481": 50,
        "16482": 59,
        "16483": 238,
        "16484": 102,
        "16485": 76,
        "16486": 126,
        "16487": 83,
        "16488": 16,
        "16489": 228,
        "16490": 114,
        "16491": 250,
        "16492": 140,
        "16493": 17,
        "16494": 133,
        "16495": 61,
        "16496": 152,
        "16497": 100,
        "16498": 82,
        "16499": 242,
        "16500": 245,
        "16501": 17,
        "16502": 80,
        "16503": 95,
        "16504": 170,
        "16505": 187,
        "16506": 24,
        "16507": 253,
        "16508": 170,
        "16509": 174,
        "16510": 18,
        "16511": 130,
        "16512": 85,
        "16513": 14,
        "16514": 155,
        "16515": 46,
        "16516": 196,
        "16517": 255,
        "16518": 19,
        "16519": 32,
        "16520": 1,
        "16521": 8,
        "16522": 0,
        "16523": 0,
        "16524": 0,
        "16525": 0,
        "16526": 0,
        "16527": 0,
        "16528": 16,
        "16529": 0,
        "16530": 0,
        "16531": 0,
        "16532": 0,
        "16533": 0,
        "16534": 0,
        "16535": 0,
        "16536": 0,
        "16537": 0,
        "16538": 0,
        "16539": 0,
        "16540": 0,
        "16541": 0,
        "16542": 0,
        "16543": 0,
        "16544": 0,
        "16545": 0,
        "16546": 0,
        "16547": 0,
        "16548": 0,
        "16549": 0,
        "16550": 0,
        "16551": 0,
        "16552": 64,
        "16553": 0,
        "16554": 0,
        "16555": 0,
        "16556": 0,
        "16557": 0,
        "16558": 0,
        "16559": 0,
        "16560": 3,
        "16561": 0,
        "16562": 0,
        "16563": 0,
        "16564": 0,
        "16565": 0,
        "16566": 0,
        "16567": 0,
        "16568": 4,
        "16569": 0,
        "16570": 0,
        "16571": 0,
        "16572": 0,
        "16573": 0,
        "16574": 0,
        "16575": 0,
        "16576": 4,
        "16577": 0,
        "16578": 0,
        "16579": 0,
        "16580": 0,
        "16581": 0,
        "16582": 0,
        "16583": 0,
        "16584": 0,
        "16585": 0,
        "16586": 0,
        "16587": 0,
        "16588": 1,
        "16589": 0,
        "16590": 0,
        "16591": 0,
        "16592": 0,
        "16593": 0,
        "16594": 0,
        "16595": 0,
        "16596": 16,
        "16597": 0,
        "16598": 0,
        "16599": 0,
        "16600": 0,
        "16601": 0,
        "16602": 0,
        "16603": 0
      }
    }
  ],
  "numDeployments": 8,
  "solcInputHash": "291cf64def2066c7e76507ea7caba91d",
  "bytecode": "0x6101606040526200001760006200026660201b60201c565b6002553480156200002757600080fd5b50604051620046173803806200461783398181016040528101906200004d919062000b83565b6040518060400160405280600881526020017f46616b652046475a0000000000000000000000000000000000000000000000008152506040518060400160405280600481526020017f6646475a00000000000000000000000000000000000000000000000000000000815250338383836040518060400160405280601181526020017f4668656e6978205065726d697373696f6e0000000000000000000000000000008152506040518060400160405280600381526020017f312e3000000000000000000000000000000000000000000000000000000000008152506200013f6000836200028260201b90919060201c565b61012081815250506200015d6001826200028260201b90919060201c565b6101408181525050818051906020012060e08181525050808051906020012061010081815250504660a081815250506200019c620002da60201b60201c565b608081815250503073ffffffffffffffffffffffffffffffffffffffff1660c08173ffffffffffffffffffffffffffffffffffffffff168152505050508160059081620001ea919062000e1f565b508060069081620001fc919062000e1f565b505050600062000212826200033760201b60201c565b9050620002486200023c8262000230617fff6200026660201b60201c565b6200035560201b60201c565b620003f860201b60201c565b6200025a8382620004cb60201b60201c565b50505050505062001260565b60006200027b8260026200057160201b60201c565b9050919050565b6000602083511015620002a857620002a0836200062860201b60201c565b9050620002d4565b82620002ba836200069560201b60201c565b6000019081620002cb919062000e1f565b5060ff60001b90505b92915050565b60007f8b73c3c69bb8fe3d512ecc4cf759cc79239f7b179b0ffacaa9a75d522b39400f60e0516101005146306040516020016200031c95949392919062000f77565b60405160208183030381529060405280519060200120905090565b60006200034e82600001516200069f60201b60201c565b9050919050565b60006200036883620006bb60201b60201c565b62000382576200037f60006200026660201b60201c565b92505b6200039382620006bb60201b60201c565b620003ad57620003aa60006200026660201b60201c565b91505b600083905060008390506000620003ea60028484608073ffffffffffffffffffffffffffffffffffffffff1663eb274b77620006c860201b60201c565b905080935050505092915050565b62000409816200077960201b60201c565b62000423576200042060006200078660201b60201c565b90505b600081905060006200043b82620007a260201b60201c565b9050608073ffffffffffffffffffffffffffffffffffffffff16637d23f1db600d836040518363ffffffff1660e01b81526004016200047c9291906200104f565b600060405180830381865afa1580156200049a573d6000803e3d6000fd5b505050506040513d6000823e3d601f19601f82011682018060405250810190620004c5919062001083565b50505050565b62000516600360008473ffffffffffffffffffffffffffffffffffffffff1673ffffffffffffffffffffffffffffffffffffffff168152602001908152602001600020548262000803565b600360008473ffffffffffffffffffffffffffffffffffffffff1673ffffffffffffffffffffffffffffffffffffffff16815260200190815260200160002081905550620005676002548262000803565b6002819055505050565b60006060608073ffffffffffffffffffffffffffffffffffffffff166319e1c5c4620005a386620007a260201b60201c565b856040518363ffffffff1660e01b8152600401620005c3929190620010d4565b600060405180830381865afa158015620005e1573d6000803e3d6000fd5b505050506040513d6000823e3d601f19601f820116820180604052508101906200060c919062001083565b90506200061f816200081f60201b60201c565b91505092915050565b600080829050601f815111156200067857826040517f305a27a90000000000000000000000000000000000000000000000000000000081526004016200066f91906200115a565b60405180910390fd5b8051816200068690620011a5565b60001c1760001b915050919050565b6000819050919050565b6000620006b48260026200082d60201b60201c565b9050919050565b6000808214159050919050565b60006060838388620006e089620007a260201b60201c565b620006f189620007a260201b60201c565b6040518463ffffffff1660e01b8152600401620007119392919062001215565b600060405180830381865afa1580156200072f573d6000803e3d6000fd5b505050506040513d6000823e3d601f19601f820116820180604052508101906200075a919062001083565b90506200076d81620008d460201b60201c565b91505095945050505050565b6000808214159050919050565b60006200079b82600d6200057160201b60201c565b9050919050565b6060602067ffffffffffffffff811115620007c257620007c1620009ae565b5b6040519080825280601f01601f191660200182016040528015620007f55781602001600182028036833780820191505090505b509050816020820152919050565b6000620008178383620008e260201b60201c565b905092915050565b600060208201519050919050565b60006060608073ffffffffffffffffffffffffffffffffffffffff16635fa55ca784866040518363ffffffff1660e01b81526004016200086f9291906200104f565b600060405180830381865afa1580156200088d573d6000803e3d6000fd5b505050506040513d6000823e3d601f19601f82011682018060405250810190620008b8919062001083565b9050620008cb816200081f60201b60201c565b91505092915050565b600060208201519050919050565b6000620008f583620006bb60201b60201c565b6200090f576200090c60006200026660201b60201c565b92505b6200092082620006bb60201b60201c565b6200093a576200093760006200026660201b60201c565b91505b6000839050600083905060006200097660028484608073ffffffffffffffffffffffffffffffffffffffff16622df619620006c860201b60201c565b905080935050505092915050565b6000604051905090565b600080fd5b600080fd5b600080fd5b6000601f19601f8301169050919050565b7f4e487b7100000000000000000000000000000000000000000000000000000000600052604160045260246000fd5b620009e8826200099d565b810181811067ffffffffffffffff8211171562000a0a5762000a09620009ae565b5b80604052505050565b600062000a1f62000984565b905062000a2d8282620009dd565b919050565b600080fd5b600080fd5b600080fd5b600067ffffffffffffffff82111562000a5f5762000a5e620009ae565b5b62000a6a826200099d565b9050602081019050919050565b60005b8381101562000a9757808201518184015260208101905062000a7a565b60008484015250505050565b600062000aba62000ab48462000a41565b62000a13565b90508281526020810184848401111562000ad95762000ad862000a3c565b5b62000ae684828562000a77565b509392505050565b600082601f83011262000b065762000b0562000a37565b5b815162000b1884826020860162000aa3565b91505092915050565b60006020828403121562000b3a5762000b3962000998565b5b62000b46602062000a13565b9050600082015167ffffffffffffffff81111562000b695762000b6862000a32565b5b62000b778482850162000aee565b60008301525092915050565b60006020828403121562000b9c5762000b9b6200098e565b5b600082015167ffffffffffffffff81111562000bbd5762000bbc62000993565b5b62000bcb8482850162000b21565b91505092915050565b600081519050919050565b7f4e487b7100000000000000000000000000000000000000000000000000000000600052602260045260246000fd5b6000600282049050600182168062000c2757607f821691505b60208210810362000c3d5762000c3c62000bdf565b5b50919050565b60008190508160005260206000209050919050565b60006020601f8301049050919050565b600082821b905092915050565b60006008830262000ca77fffffffffffffffffffffffffffffffffffffffffffffffffffffffffffffffff8262000c68565b62000cb3868362000c68565b95508019841693508086168417925050509392505050565b6000819050919050565b6000819050919050565b600062000d0062000cfa62000cf48462000ccb565b62000cd5565b62000ccb565b9050919050565b6000819050919050565b62000d1c8362000cdf565b62000d3462000d2b8262000d07565b84845462000c75565b825550505050565b600090565b62000d4b62000d3c565b62000d5881848462000d11565b505050565b5b8181101562000d805762000d7460008262000d41565b60018101905062000d5e565b5050565b601f82111562000dcf5762000d998162000c43565b62000da48462000c58565b8101602085101562000db4578190505b62000dcc62000dc38562000c58565b83018262000d5d565b50505b505050565b600082821c905092915050565b600062000df46000198460080262000dd4565b1980831691505092915050565b600062000e0f838362000de1565b9150826002028217905092915050565b62000e2a8262000bd4565b67ffffffffffffffff81111562000e465762000e45620009ae565b5b62000e52825462000c0e565b62000e5f82828562000d84565b600060209050601f83116001811462000e97576000841562000e82578287015190505b62000e8e858262000e01565b86555062000efe565b601f19841662000ea78662000c43565b60005b8281101562000ed15784890151825560018201915060208501945060208101905062000eaa565b8683101562000ef1578489015162000eed601f89168262000de1565b8355505b6001600288020188555050505b505050505050565b6000819050919050565b62000f1b8162000f06565b82525050565b62000f2c8162000ccb565b82525050565b600073ffffffffffffffffffffffffffffffffffffffff82169050919050565b600062000f5f8262000f32565b9050919050565b62000f718162000f52565b82525050565b600060a08201905062000f8e600083018862000f10565b62000f9d602083018762000f10565b62000fac604083018662000f10565b62000fbb606083018562000f21565b62000fca608083018462000f66565b9695505050505050565b600060ff82169050919050565b62000fec8162000fd4565b82525050565b600081519050919050565b600082825260208201905092915050565b60006200101b8262000ff2565b62001027818562000ffd565b93506200103981856020860162000a77565b62001044816200099d565b840191505092915050565b600060408201905062001066600083018562000fe1565b81810360208301526200107a81846200100e565b90509392505050565b6000602082840312156200109c576200109b6200098e565b5b600082015167ffffffffffffffff811115620010bd57620010bc62000993565b5b620010cb8482850162000aee565b91505092915050565b60006040820190508181036000830152620010f081856200100e565b905062001101602083018462000fe1565b9392505050565b600082825260208201905092915050565b6000620011268262000bd4565b62001132818562001108565b93506200114481856020860162000a77565b6200114f816200099d565b840191505092915050565b6000602082019050818103600083015262001176818462001119565b905092915050565b6000819050602082019050919050565b60006200119c825162000f06565b80915050919050565b6000620011b28262000ff2565b82620011be846200117e565b9050620011cb816200118e565b925060208210156200120e57620012097fffffffffffffffffffffffffffffffffffffffffffffffffffffffffffffffff8360200360080262000c68565b831692505b5050919050565b60006060820190506200122c600083018662000fe1565b81810360208301526200124081856200100e565b905081810360408301526200125681846200100e565b9050949350505050565b60805160a05160c05160e05161010051610120516101405161335c620012bb60003960006118f5015260006118ba0152600061217f0152600061215e015260006119ea01526000611a4001526000611a69015261335c6000f3fe608060405234801561001057600080fd5b50600436106101425760003560e01c80637ecebe00116100b8578063a9059cbb1161007c578063a9059cbb146103b9578063af575a00146103e9578063c4224c1914610419578063d505accf14610449578063d918156e14610465578063dd62ed3e1461049557610142565b80637ecebe00146102fb57806384b0196e1461032b5780638624a3491461034f57806395d89b411461037f5780639f284be71461039d57610142565b80633644e5151161010a5780633644e5151461020157806339c217f71461021f5780635356c4291461024f578063602772041461027f5780636e0505e1146102af57806370a08231146102cb57610142565b806306fdde0314610147578063095ea7b31461016557806318160ddd1461019557806323b872dd146101b3578063313ce567146101e3575b600080fd5b61014f6104c5565b60405161015c9190612433565b60405180910390f35b61017f600480360381019061017a91906124fd565b610557565b60405161018c9190612558565b60405180910390f35b61019d6105ab565b6040516101aa9190612582565b60405180910390f35b6101cd60048036038101906101c8919061259d565b6105bd565b6040516101da9190612558565b60405180910390f35b6101eb610692565b6040516101f8919061260c565b60405180910390f35b610209610697565b6040516102169190612640565b60405180910390f35b6102396004803603810190610234919061267f565b610729565b6040516102469190612716565b60405180910390f35b61026960048036038101906102649190612750565b61074e565b6040516102769190612433565b60405180910390f35b61029960048036038101906102949190612983565b6108bf565b6040516102a69190612433565b60405180910390f35b6102c960048036038101906102c49190612a1b565b6109ec565b005b6102e560048036038101906102e09190612a48565b610b01565b6040516102f29190612582565b60405180910390f35b61031560048036038101906103109190612a48565b610b1c565b6040516103229190612582565b60405180910390f35b610333610b37565b6040516103469796959493929190612b7d565b60405180910390f35b61036960048036038101906103649190612c01565b610be1565b6040516103769190612716565b60405180910390f35b610387610c08565b6040516103949190612433565b60405180910390f35b6103b760048036038101906103b29190612a1b565b610c9a565b005b6103d360048036038101906103ce91906124fd565b610da7565b6040516103e09190612558565b60405180910390f35b61040360048036038101906103fe9190612c9c565b610e39565b6040516104109190612716565b60405180910390f35b610433600480360381019061042e9190612cef565b61118f565b6040516104409190612716565b60405180910390f35b610463600480360381019061045e9190612d5b565b611359565b005b61047f600480360381019061047a919061267f565b6114fd565b60405161048c9190612558565b60405180910390f35b6104af60048036038101906104aa9190612dfd565b6115f5565b6040516104bc9190612582565b60405180910390f35b6060600580546104d490612e6c565b80601f016020809104026020016040519081016040528092919081815260200182805461050090612e6c565b801561054d5780601f106105225761010080835404028352916020019161054d565b820191906000526020600020905b81548152906001019060200180831161053057829003601f168201915b5050505050905090565b600082602052637f5e9f20600c5233600052816034600c205581600052602c5160601c337f8c5be1e5ebec7d5bd14f71427d1e84f3dd0314c0f7b2291e5b200ac8c7c3b92560206000a36001905092915050565b60006805345cdf77eb68f44c54905090565b60006105ca848484611615565b8360601b33602052637f5e9f208117600c526034600c20805460018101156106085780851115610602576313be252b6000526004601cfd5b84810382555b6387a211a28317600c526020600c2080548087111561062f5763f4d678b86000526004601cfd5b8681038255876000526020600c2087815401815587602052600c5160601c8660601c7fddf252ad1be2c89b69c2b068fc378daa952ba7f163c4a11628f55a4df523b3ef602080a350505050505061068784848461161a565b600190509392505050565b600090565b6000806106a261161f565b90506000801b81036106c0576106b66104c5565b8051906020012090505b6040517f8b73c3c69bb8fe3d512ecc4cf759cc79239f7b179b0ffacaa9a75d522b39400f81528160208201527fc89efdaa54c0f20c7adf612882df0950f5a951637e0307cdcb4c672f298b8bc6604082015246606082015230608082015260a081209250505090565b6000610746836107418461073c90612ef5565b611624565b61118f565b905092915050565b60608161075a90612f08565b60006107b17f6bdaeb2d29561f159c7ef98b16b27015fb2aeb87209c7ee656226d912f59927d8360000151604051602001610796929190612f1b565b6040516020818303038152906040528051906020012061163a565b905060006107c3828460200151611654565b90503373ffffffffffffffffffffffffffffffffffffffff168173ffffffffffffffffffffffffffffffffffffffff161461082a576040517f3093a27700000000000000000000000000000000000000000000000000000000815260040160405180910390fd5b6108b4600460003373ffffffffffffffffffffffffffffffffffffffff1673ffffffffffffffffffffffffffffffffffffffff16815260200190815260200160002060008873ffffffffffffffffffffffffffffffffffffffff1673ffffffffffffffffffffffffffffffffffffffff168152602001908152602001600020548660000135611680565b935050505092915050565b60608183600061091a7f6bdaeb2d29561f159c7ef98b16b27015fb2aeb87209c7ee656226d912f59927d84600001516040516020016108ff929190612f1b565b6040516020818303038152906040528051906020012061163a565b9050600061092c828560200151611654565b90508273ffffffffffffffffffffffffffffffffffffffff168173ffffffffffffffffffffffffffffffffffffffff1614610993576040517f51c65eae00000000000000000000000000000000000000000000000000000000815260040160405180910390fd5b6109e0600360008973ffffffffffffffffffffffffffffffffffffffff1673ffffffffffffffffffffffffffffffffffffffff168152602001908152602001600020548760000151611680565b94505050505092915050565b6000610a45610a008363ffffffff166116b6565b600360003373ffffffffffffffffffffffffffffffffffffffff1673ffffffffffffffffffffffffffffffffffffffff168152602001908152602001600020546116ca565b9050610a90600360003373ffffffffffffffffffffffffffffffffffffffff1673ffffffffffffffffffffffffffffffffffffffff1681526020019081526020016000205482611743565b600360003373ffffffffffffffffffffffffffffffffffffffff1673ffffffffffffffffffffffffffffffffffffffff16815260200190815260200160002081905550610adf60025482611743565b600281905550610afd33610af283611757565b63ffffffff1661181a565b5050565b60006387a211a2600c52816000526020600c20549050919050565b60006338377508600c52816000526020600c20549050919050565b600060608060008060006060610b4b6118b1565b610b536118ec565b46306000801b600067ffffffffffffffff811115610b7457610b736127b1565b5b604051908082528060200260200182016040528015610ba25781602001602082028036833780820191505090505b507f0f00000000000000000000000000000000000000000000000000000000000000959493929190965096509650965096509650965090919293949596565b6000610bff8484610bfa85610bf590612ef5565b611624565b610e39565b90509392505050565b606060068054610c1790612e6c565b80601f0160208091040260200160405190810160405280929190818152602001828054610c4390612e6c565b8015610c905780601f10610c6557610100808354040283529160200191610c90565b820191906000526020600020905b815481529060010190602001808311610c7357829003601f168201915b5050505050905090565b8063ffffffff16610caa33610b01565b1015610ce2576040517ffda7bbda00000000000000000000000000000000000000000000000000000000815260040160405180910390fd5b610cf2338263ffffffff16611927565b6000610d038263ffffffff166116b6565b9050610d4e600360003373ffffffffffffffffffffffffffffffffffffffff1673ffffffffffffffffffffffffffffffffffffffff16815260200190815260200160002054826119be565b600360003373ffffffffffffffffffffffffffffffffffffffff1673ffffffffffffffffffffffffffffffffffffffff16815260200190815260200160002081905550610d9d600254826119be565b6002819055505050565b6000610db4338484611615565b6387a211a2600c52336000526020600c20805480841115610ddd5763f4d678b86000526004601cfd5b8381038255846000526020600c2084815401815584602052600c5160601c337fddf252ad1be2c89b69c2b068fc378daa952ba7f163c4a11628f55a4df523b3ef602080a3505050610e2f33848461161a565b6001905092915050565b600080610f0a83610f05600360008973ffffffffffffffffffffffffffffffffffffffff1673ffffffffffffffffffffffffffffffffffffffff16815260200190815260200160002054600460008a73ffffffffffffffffffffffffffffffffffffffff1673ffffffffffffffffffffffffffffffffffffffff16815260200190815260200160002060003373ffffffffffffffffffffffffffffffffffffffff1673ffffffffffffffffffffffffffffffffffffffff168152602001908152602001600020546116ca565b6116ca565b9050610f92600460008773ffffffffffffffffffffffffffffffffffffffff1673ffffffffffffffffffffffffffffffffffffffff16815260200190815260200160002060003373ffffffffffffffffffffffffffffffffffffffff1673ffffffffffffffffffffffffffffffffffffffff1681526020019081526020016000205482611743565b600460008773ffffffffffffffffffffffffffffffffffffffff1673ffffffffffffffffffffffffffffffffffffffff16815260200190815260200160002060003373ffffffffffffffffffffffffffffffffffffffff1673ffffffffffffffffffffffffffffffffffffffff1681526020019081526020016000208190555061105b600360008773ffffffffffffffffffffffffffffffffffffffff1673ffffffffffffffffffffffffffffffffffffffff1681526020019081526020016000205482611743565b600360008773ffffffffffffffffffffffffffffffffffffffff1673ffffffffffffffffffffffffffffffffffffffff168152602001908152602001600020819055506110e7600360008673ffffffffffffffffffffffffffffffffffffffff1673ffffffffffffffffffffffffffffffffffffffff16815260200190815260200160002054826119be565b600360008673ffffffffffffffffffffffffffffffffffffffff1673ffffffffffffffffffffffffffffffffffffffff168152602001908152602001600020819055508373ffffffffffffffffffffffffffffffffffffffff168573ffffffffffffffffffffffffffffffffffffffff167f7612539b010127d1a2f810eeff1131de23a28ecfa8228f92a9606a879300fbb560405160405180910390a3809150509392505050565b6000806111db83600360003373ffffffffffffffffffffffffffffffffffffffff1673ffffffffffffffffffffffffffffffffffffffff168152602001908152602001600020546116ca565b9050611226600360003373ffffffffffffffffffffffffffffffffffffffff1673ffffffffffffffffffffffffffffffffffffffff1681526020019081526020016000205482611743565b600360003373ffffffffffffffffffffffffffffffffffffffff1673ffffffffffffffffffffffffffffffffffffffff168152602001908152602001600020819055506112b2600360008673ffffffffffffffffffffffffffffffffffffffff1673ffffffffffffffffffffffffffffffffffffffff16815260200190815260200160002054826119be565b600360008673ffffffffffffffffffffffffffffffffffffffff1673ffffffffffffffffffffffffffffffffffffffff168152602001908152602001600020819055508373ffffffffffffffffffffffffffffffffffffffff163373ffffffffffffffffffffffffffffffffffffffff167f7612539b010127d1a2f810eeff1131de23a28ecfa8228f92a9606a879300fbb560405160405180910390a38091505092915050565b600061136361161f565b90506000801b8103611381576113776104c5565b8051906020012090505b8442111561139757631a15a3cc6000526004601cfd5b6040518860601b60601c98508760601b60601c975065383775081901600e52886000526020600c2080547f8b73c3c69bb8fe3d512ecc4cf759cc79239f7b179b0ffacaa9a75d522b39400f83528360208401527fc89efdaa54c0f20c7adf612882df0950f5a951637e0307cdcb4c672f298b8bc6604084015246606084015230608084015260a08320602e527f6e71edae12b1b97f4d1f60370fef10105fa2faae0126114a169c64845d6126c983528a60208401528960408401528860608401528060808401528760a084015260c08320604e526042602c206000528660ff1660205285604052846060526020806080600060015afa8b3d51146114a35763ddafbaef6000526004601cfd5b80820183558a637f5e9f2060a01b17604052896034602c20558a8c7f8c5be1e5ebec7d5bd14f71427d1e84f3dd0314c0f7b2291e5b200ac8c7c3b925602060608801a3836040526000606052505050505050505050505050565b60006115118261150c90612ef5565b611624565b600460003373ffffffffffffffffffffffffffffffffffffffff1673ffffffffffffffffffffffffffffffffffffffff16815260200190815260200160002060008573ffffffffffffffffffffffffffffffffffffffff1673ffffffffffffffffffffffffffffffffffffffff168152602001908152602001600020819055508273ffffffffffffffffffffffffffffffffffffffff163373ffffffffffffffffffffffffffffffffffffffff167f46f92913a39019d68e630493d23e0cf39761bf253f7b3f8eae384b33e393ed4e60405160405180910390a36001905092915050565b600081602052637f5e9f20600c52826000526034600c2054905092915050565b505050565b505050565b600090565b600061163382600001516119d2565b9050919050565b600061164d6116476119e6565b83611a9d565b9050919050565b6000806000806116648686611ade565b9250925092506116748282611b3a565b82935050505092915050565b606061168b83611c9e565b61169c5761169960006116b6565b92505b60008390506116ad60028285611cab565b91505092915050565b60006116c3826002611d61565b9050919050565b60006116d583611c9e565b6116e6576116e360006116b6565b92505b6116ef82611c9e565b611700576116fd60006116b6565b91505b60008390506000839050600061173560028484608073ffffffffffffffffffffffffffffffffffffffff16635211c679611e03565b905080935050505092915050565b600061174f8383611e97565b905092915050565b600061176282611c9e565b6117735761177060006116b6565b91505b6000829050600061178382611f10565b90506000608073ffffffffffffffffffffffffffffffffffffffff166373cc01546002846040518363ffffffff1660e01b81526004016117c4929190612f99565b602060405180830381865afa1580156117e1573d6000803e3d6000fd5b505050506040513d601f19601f820116820180604052508101906118059190612fde565b905061181081611f6d565b9350505050919050565b61182660008383611615565b6805345cdf77eb68f44c548181018181101561184a5763e5cfe9576000526004601cfd5b806805345cdf77eb68f44c556387a211a2600c52836000526020600c2083815401815583602052600c5160601c60007fddf252ad1be2c89b69c2b068fc378daa952ba7f163c4a11628f55a4df523b3ef602080a35050506118ad6000838361161a565b5050565b60606118e760007f0000000000000000000000000000000000000000000000000000000000000000611f7790919063ffffffff16565b905090565b606061192260017f0000000000000000000000000000000000000000000000000000000000000000611f7790919063ffffffff16565b905090565b61193382600083611615565b6387a211a2600c52816000526020600c2080548083111561195c5763f4d678b86000526004601cfd5b8281038255826805345cdf77eb68f44c54036805345cdf77eb68f44c558260005260008460601b60601c7fddf252ad1be2c89b69c2b068fc378daa952ba7f163c4a11628f55a4df523b3ef60206000a350506119ba8260008361161a565b5050565b60006119ca8383612027565b905092915050565b60006119df82600261209f565b9050919050565b60007f000000000000000000000000000000000000000000000000000000000000000073ffffffffffffffffffffffffffffffffffffffff163073ffffffffffffffffffffffffffffffffffffffff16148015611a6257507f000000000000000000000000000000000000000000000000000000000000000046145b15611a8f577f00000000000000000000000000000000000000000000000000000000000000009050611a9a565b611a97612139565b90505b90565b60006040517f190100000000000000000000000000000000000000000000000000000000000081528360028201528260228201526042812091505092915050565b60008060006041845103611b235760008060006020870151925060408701519150606087015160001a9050611b15888285856121cf565b955095509550505050611b33565b60006002855160001b9250925092505b9250925092565b60006003811115611b4e57611b4d61300b565b5b826003811115611b6157611b6061300b565b5b0315611c9a5760016003811115611b7b57611b7a61300b565b5b826003811115611b8e57611b8d61300b565b5b03611bc5576040517ff645eedf00000000000000000000000000000000000000000000000000000000815260040160405180910390fd5b60026003811115611bd957611bd861300b565b5b826003811115611bec57611beb61300b565b5b03611c31578060001c6040517ffce698f7000000000000000000000000000000000000000000000000000000008152600401611c289190612582565b60405180910390fd5b600380811115611c4457611c4361300b565b5b826003811115611c5757611c5661300b565b5b03611c9957806040517fd78bce0c000000000000000000000000000000000000000000000000000000008152600401611c909190612640565b60405180910390fd5b5b5050565b6000808214159050919050565b6060608073ffffffffffffffffffffffffffffffffffffffff1663a1848ff385611cd486611f10565b85604051602001611ce5919061305b565b6040516020818303038152906040526040518463ffffffff1660e01b8152600401611d1293929190613076565b600060405180830381865afa158015611d2f573d6000803e3d6000fd5b505050506040513d6000823e3d601f19601f82011682018060405250810190611d58919061315c565b90509392505050565b60006060608073ffffffffffffffffffffffffffffffffffffffff166319e1c5c4611d8b86611f10565b856040518363ffffffff1660e01b8152600401611da99291906131a5565b600060405180830381865afa158015611dc6573d6000803e3d6000fd5b505050506040513d6000823e3d601f19601f82011682018060405250810190611def9190613245565b9050611dfa816122c3565b91505092915050565b60006060838388611e1389611f10565b611e1c89611f10565b6040518463ffffffff1660e01b8152600401611e3a93929190613076565b600060405180830381865afa158015611e57573d6000803e3d6000fd5b505050506040513d6000823e3d601f19601f82011682018060405250810190611e809190613245565b9050611e8b816122d1565b91505095945050505050565b6000611ea283611c9e565b611eb357611eb060006116b6565b92505b611ebc82611c9e565b611ecd57611eca60006116b6565b91505b600083905060008390506000611f0260028484608073ffffffffffffffffffffffffffffffffffffffff1663cc2cbeff611e03565b905080935050505092915050565b6060602067ffffffffffffffff811115611f2d57611f2c6127b1565b5b6040519080825280601f01601f191660200182016040528015611f5f5781602001600182028036833780820191505090505b509050816020820152919050565b6000819050919050565b606060ff60001b8314611f9457611f8d836122df565b9050612021565b818054611fa090612e6c565b80601f0160208091040260200160405190810160405280929190818152602001828054611fcc90612e6c565b80156120195780601f10611fee57610100808354040283529160200191612019565b820191906000526020600020905b815481529060010190602001808311611ffc57829003601f168201915b505050505090505b92915050565b600061203283611c9e565b6120435761204060006116b6565b92505b61204c82611c9e565b61205d5761205a60006116b6565b91505b60008390506000839050600061209160028484608073ffffffffffffffffffffffffffffffffffffffff16622df619611e03565b905080935050505092915050565b60006060608073ffffffffffffffffffffffffffffffffffffffff16635fa55ca784866040518363ffffffff1660e01b81526004016120df929190612f99565b600060405180830381865afa1580156120fc573d6000803e3d6000fd5b505050506040513d6000823e3d601f19601f820116820180604052508101906121259190613245565b9050612130816122c3565b91505092915050565b60007f8b73c3c69bb8fe3d512ecc4cf759cc79239f7b179b0ffacaa9a75d522b39400f7f00000000000000000000000000000000000000000000000000000000000000007f000000000000000000000000000000000000000000000000000000000000000046306040516020016121b495949392919061328e565b60405160208183030381529060405280519060200120905090565b60008060007f7fffffffffffffffffffffffffffffff5d576e7357a4501ddfe92f46681b20a08460001c111561220f5760006003859250925092506122b9565b60006001888888886040516000815260200160405260405161223494939291906132e1565b6020604051602081039080840390855afa158015612256573d6000803e3d6000fd5b505050602060405103519050600073ffffffffffffffffffffffffffffffffffffffff168173ffffffffffffffffffffffffffffffffffffffff16036122aa57600060016000801b935093509350506122b9565b8060008060001b935093509350505b9450945094915050565b600060208201519050919050565b600060208201519050919050565b606060006122ec83612353565b90506000602067ffffffffffffffff81111561230b5761230a6127b1565b5b6040519080825280601f01601f19166020018201604052801561233d5781602001600182028036833780820191505090505b5090508181528360208201528092505050919050565b60008060ff8360001c169050601f81111561239a576040517fb3512b0c00000000000000000000000000000000000000000000000000000000815260040160405180910390fd5b80915050919050565b600081519050919050565b600082825260208201905092915050565b60005b838110156123dd5780820151818401526020810190506123c2565b60008484015250505050565b6000601f19601f8301169050919050565b6000612405826123a3565b61240f81856123ae565b935061241f8185602086016123bf565b612428816123e9565b840191505092915050565b6000602082019050818103600083015261244d81846123fa565b905092915050565b6000604051905090565b600080fd5b600080fd5b600073ffffffffffffffffffffffffffffffffffffffff82169050919050565b600061249482612469565b9050919050565b6124a481612489565b81146124af57600080fd5b50565b6000813590506124c18161249b565b92915050565b6000819050919050565b6124da816124c7565b81146124e557600080fd5b50565b6000813590506124f7816124d1565b92915050565b600080604083850312156125145761251361245f565b5b6000612522858286016124b2565b9250506020612533858286016124e8565b9150509250929050565b60008115159050919050565b6125528161253d565b82525050565b600060208201905061256d6000830184612549565b92915050565b61257c816124c7565b82525050565b60006020820190506125976000830184612573565b92915050565b6000806000606084860312156125b6576125b561245f565b5b60006125c4868287016124b2565b93505060206125d5868287016124b2565b92505060406125e6868287016124e8565b9150509250925092565b600060ff82169050919050565b612606816125f0565b82525050565b600060208201905061262160008301846125fd565b92915050565b6000819050919050565b61263a81612627565b82525050565b60006020820190506126556000830184612631565b92915050565b600080fd5b6000602082840312156126765761267561265b565b5b81905092915050565b600080604083850312156126965761269561245f565b5b60006126a4858286016124b2565b925050602083013567ffffffffffffffff8111156126c5576126c4612464565b5b6126d185828601612660565b9150509250929050565b6000819050919050565b60006127006126fb6126f6846124c7565b6126db565b6124c7565b9050919050565b612710816126e5565b82525050565b600060208201905061272b6000830184612707565b92915050565b6000604082840312156127475761274661265b565b5b81905092915050565b600080604083850312156127675761276661245f565b5b6000612775858286016124b2565b925050602083013567ffffffffffffffff81111561279657612795612464565b5b6127a285828601612731565b9150509250929050565b600080fd5b7f4e487b7100000000000000000000000000000000000000000000000000000000600052604160045260246000fd5b6127e9826123e9565b810181811067ffffffffffffffff82111715612808576128076127b1565b5b80604052505050565b600061281b612455565b905061282782826127e0565b919050565b600080fd5b61283a81612627565b811461284557600080fd5b50565b60008135905061285781612831565b92915050565b600080fd5b600080fd5b600067ffffffffffffffff821115612882576128816127b1565b5b61288b826123e9565b9050602081019050919050565b82818337600083830152505050565b60006128ba6128b584612867565b612811565b9050828152602081018484840111156128d6576128d5612862565b5b6128e1848285612898565b509392505050565b600082601f8301126128fe576128fd61285d565b5b813561290e8482602086016128a7565b91505092915050565b60006040828403121561292d5761292c6127ac565b5b6129376040612811565b9050600061294784828501612848565b600083015250602082013567ffffffffffffffff81111561296b5761296a61282c565b5b612977848285016128e9565b60208301525092915050565b6000806040838503121561299a5761299961245f565b5b60006129a8858286016124b2565b925050602083013567ffffffffffffffff8111156129c9576129c8612464565b5b6129d585828601612917565b9150509250929050565b600063ffffffff82169050919050565b6129f8816129df565b8114612a0357600080fd5b50565b600081359050612a15816129ef565b92915050565b600060208284031215612a3157612a3061245f565b5b6000612a3f84828501612a06565b91505092915050565b600060208284031215612a5e57612a5d61245f565b5b6000612a6c848285016124b2565b91505092915050565b60007fff0000000000000000000000000000000000000000000000000000000000000082169050919050565b612aaa81612a75565b82525050565b612ab981612489565b82525050565b600081519050919050565b600082825260208201905092915050565b6000819050602082019050919050565b612af4816124c7565b82525050565b6000612b068383612aeb565b60208301905092915050565b6000602082019050919050565b6000612b2a82612abf565b612b348185612aca565b9350612b3f83612adb565b8060005b83811015612b70578151612b578882612afa565b9750612b6283612b12565b925050600181019050612b43565b5085935050505092915050565b600060e082019050612b92600083018a612aa1565b8181036020830152612ba481896123fa565b90508181036040830152612bb881886123fa565b9050612bc76060830187612573565b612bd46080830186612ab0565b612be160a0830185612631565b81810360c0830152612bf38184612b1f565b905098975050505050505050565b600080600060608486031215612c1a57612c1961245f565b5b6000612c28868287016124b2565b9350506020612c39868287016124b2565b925050604084013567ffffffffffffffff811115612c5a57612c59612464565b5b612c6686828701612660565b9150509250925092565b612c79816124c7565b8114612c8457600080fd5b50565b600081359050612c9681612c70565b92915050565b600080600060608486031215612cb557612cb461245f565b5b6000612cc3868287016124b2565b9350506020612cd4868287016124b2565b9250506040612ce586828701612c87565b9150509250925092565b60008060408385031215612d0657612d0561245f565b5b6000612d14858286016124b2565b9250506020612d2585828601612c87565b9150509250929050565b612d38816125f0565b8114612d4357600080fd5b50565b600081359050612d5581612d2f565b92915050565b600080600080600080600060e0888a031215612d7a57612d7961245f565b5b6000612d888a828b016124b2565b9750506020612d998a828b016124b2565b9650506040612daa8a828b016124e8565b9550506060612dbb8a828b016124e8565b9450506080612dcc8a828b01612d46565b93505060a0612ddd8a828b01612848565b92505060c0612dee8a828b01612848565b91505092959891949750929550565b60008060408385031215612e1457612e1361245f565b5b6000612e22858286016124b2565b9250506020612e33858286016124b2565b9150509250929050565b7f4e487b7100000000000000000000000000000000000000000000000000000000600052602260045260246000fd5b60006002820490506001821680612e8457607f821691505b602082108103612e9757612e96612e3d565b5b50919050565b600060208284031215612eb357612eb26127ac565b5b612ebd6020612811565b9050600082013567ffffffffffffffff811115612edd57612edc61282c565b5b612ee9848285016128e9565b60008301525092915050565b6000612f013683612e9d565b9050919050565b6000612f143683612917565b9050919050565b6000604082019050612f306000830185612631565b612f3d6020830184612631565b9392505050565b600081519050919050565b600082825260208201905092915050565b6000612f6b82612f44565b612f758185612f4f565b9350612f858185602086016123bf565b612f8e816123e9565b840191505092915050565b6000604082019050612fae60008301856125fd565b8181036020830152612fc08184612f60565b90509392505050565b600081519050612fd8816124d1565b92915050565b600060208284031215612ff457612ff361245f565b5b600061300284828501612fc9565b91505092915050565b7f4e487b7100000000000000000000000000000000000000000000000000000000600052602160045260246000fd5b6000819050919050565b61305561305082612627565b61303a565b82525050565b60006130678284613044565b60208201915081905092915050565b600060608201905061308b60008301866125fd565b818103602083015261309d8185612f60565b905081810360408301526130b18184612f60565b9050949350505050565b600067ffffffffffffffff8211156130d6576130d56127b1565b5b6130df826123e9565b9050602081019050919050565b60006130ff6130fa846130bb565b612811565b90508281526020810184848401111561311b5761311a612862565b5b6131268482856123bf565b509392505050565b600082601f8301126131435761314261285d565b5b81516131538482602086016130ec565b91505092915050565b6000602082840312156131725761317161245f565b5b600082015167ffffffffffffffff8111156131905761318f612464565b5b61319c8482850161312e565b91505092915050565b600060408201905081810360008301526131bf8185612f60565b90506131ce60208301846125fd565b9392505050565b60006131e86131e384612867565b612811565b90508281526020810184848401111561320457613203612862565b5b61320f8482856123bf565b509392505050565b600082601f83011261322c5761322b61285d565b5b815161323c8482602086016131d5565b91505092915050565b60006020828403121561325b5761325a61245f565b5b600082015167ffffffffffffffff81111561327957613278612464565b5b61328584828501613217565b91505092915050565b600060a0820190506132a36000830188612631565b6132b06020830187612631565b6132bd6040830186612631565b6132ca6060830185612573565b6132d76080830184612ab0565b9695505050505050565b60006080820190506132f66000830187612631565b61330360208301866125fd565b6133106040830185612631565b61331d6060830184612631565b9594505050505056fea2646970667358221220e42dbdeebf087ea0ee047333ff97a718a513717710c9f95d1221077dd91cbfbf64736f6c63430008180033",
  "devdoc": {
    "errors": {
      "AllowanceOverflow()": [
        {
          "details": "The allowance has overflowed."
        }
      ],
      "AllowanceUnderflow()": [
        {
          "details": "The allowance has underflowed."
        }
      ],
      "ECDSAInvalidSignature()": [
        {
          "details": "The signature derives the `address(0)`."
        }
      ],
      "ECDSAInvalidSignatureLength(uint256)": [
        {
          "details": "The signature has an invalid length."
        }
      ],
      "ECDSAInvalidSignatureS(bytes32)": [
        {
          "details": "The signature has an S value that is in the upper half order."
        }
      ],
      "InsufficientAllowance()": [
        {
          "details": "Insufficient allowance."
        }
      ],
      "InsufficientBalance()": [
        {
          "details": "Insufficient balance."
        }
      ],
      "InvalidPermit()": [
        {
          "details": "The permit is invalid."
        }
      ],
      "PermitExpired()": [
        {
          "details": "The permit has expired."
        }
      ],
      "TotalSupplyOverflow()": [
        {
          "details": "The total supply has overflowed."
        }
      ]
    },
    "events": {
      "Approval(address,address,uint256)": {
        "details": "Emitted when `amount` tokens is approved by `owner` to be used by `spender`."
      },
      "ApprovalEncrypted(address,address)": {
        "details": "Emitted when the allowance of a `spender` for an `owner` is set by a call to {approveEncrypted}. `value` is the new allowance."
      },
      "EIP712DomainChanged()": {
        "details": "MAY be emitted to signal that the domain could have changed."
      },
      "Transfer(address,address,uint256)": {
        "details": "Emitted when `amount` tokens is transferred from `from` to `to`."
      },
      "TransferEncrypted(address,address)": {
        "details": "Emitted when `value` tokens are moved from one account (`from`) to another (`to`). Note that `value` may be zero."
      }
    },
    "kind": "dev",
    "methods": {
      "DOMAIN_SEPARATOR()": {
        "details": "Returns the EIP-712 domain separator for the EIP-2612 permit."
      },
      "allowance(address,address)": {
        "details": "Returns the amount of tokens that `spender` can spend on behalf of `owner`."
      },
      "allowanceEncrypted(address,(bytes32,bytes))": {
        "details": "Returns the remaining number of tokens that `spender` will be allowed to spend on behalf of `owner` through {transferFrom}. This is zero by default. This value changes when {approve} or {transferFrom} are called."
      },
      "approve(address,uint256)": {
        "details": "Sets `amount` as the allowance of `spender` over the caller's tokens. Emits a {Approval} event."
      },
      "approveEncrypted(address,(bytes))": {
        "details": "Sets a `value` amount of tokens as the allowance of `spender` over the caller's tokens. Returns a boolean value indicating whether the operation succeeded. IMPORTANT: Beware that changing an allowance with this method brings the risk that someone may use both the old and the new allowance by unfortunate transaction ordering. One possible solution to mitigate this race condition is to first reduce the spender's allowance to 0 and set the desired value afterwards: https://github.com/ethereum/EIPs/issues/20#issuecomment-263524729 Emits an {ApprovalEncrypted} event."
      },
      "balanceOf(address)": {
        "details": "Returns the amount of tokens owned by `owner`."
      },
      "balanceOfEncrypted(address,(bytes32,bytes))": {
        "details": "Returns the value of tokens owned by `account`, sealed and encrypted for the caller."
      },
      "decimals()": {
        "details": "Returns the decimals places of the token."
      },
      "eip712Domain()": {
        "details": "See {IERC-5267}."
      },
      "name()": {
        "details": "Returns the name of the token."
      },
      "nonces(address)": {
        "details": "Returns the current nonce for `owner`. This value is used to compute the signature for EIP-2612 permit."
      },
      "permit(address,address,uint256,uint256,uint8,bytes32,bytes32)": {
        "details": "Sets `value` as the allowance of `spender` over the tokens of `owner`, authorized by a signed approval by `owner`. Emits a {Approval} event."
      },
      "symbol()": {
        "details": "Returns the symbol of the token."
      },
      "totalSupply()": {
        "details": "Returns the amount of tokens in existence."
      },
      "transfer(address,uint256)": {
        "details": "Transfer `amount` tokens from the caller to `to`. Requirements: - `from` must at least have `amount`. Emits a {Transfer} event."
      },
      "transferFrom(address,address,uint256)": {
        "details": "Transfers `amount` tokens from `from` to `to`. Note: Does not update the allowance if it is the maximum uint256 value. Requirements: - `from` must at least have `amount`. - The caller must have at least `amount` of allowance to transfer the tokens of `from`. Emits a {Transfer} event."
      },
      "transferFromEncrypted(address,address,(bytes))": {
        "details": "Moves a `value` amount of tokens from `from` to `to` using the allowance mechanism. `value` is then deducted from the caller's allowance. Returns a boolean value indicating whether the operation succeeded. Emits a {TransferEncrypted} event."
      }
    },
    "version": 1
  },
  "userdoc": {
    "errors": {
      "SignerNotMessageSender()": [
        {
          "notice": "Emitted when the signer is not the message sender"
        }
      ],
      "SignerNotOwner()": [
        {
          "notice": "Emitted when the signer is not the specified owner"
        }
      ]
    },
    "kind": "user",
    "methods": {},
    "version": 1
  },
  "storageLayout": {
    "storage": [
      {
        "astId": 16568,
        "contract": "contracts/tokens/FakeFGZ.sol:FakeFGZ",
        "label": "_nameFallback",
        "offset": 0,
        "slot": "0",
        "type": "t_string_storage"
      },
      {
        "astId": 16570,
        "contract": "contracts/tokens/FakeFGZ.sol:FakeFGZ",
        "label": "_versionFallback",
        "offset": 0,
        "slot": "1",
        "type": "t_string_storage"
      },
      {
        "astId": 20527,
        "contract": "contracts/tokens/FakeFGZ.sol:FakeFGZ",
        "label": "_encTotalSupply",
        "offset": 0,
        "slot": "2",
        "type": "t_userDefinedValueType(euint32)12"
      },
      {
        "astId": 20532,
        "contract": "contracts/tokens/FakeFGZ.sol:FakeFGZ",
        "label": "_encBalanceOf",
        "offset": 0,
        "slot": "3",
        "type": "t_mapping(t_address,t_userDefinedValueType(euint32)12)"
      },
      {
        "astId": 20539,
        "contract": "contracts/tokens/FakeFGZ.sol:FakeFGZ",
        "label": "_encAllowance",
        "offset": 0,
        "slot": "4",
        "type": "t_mapping(t_address,t_mapping(t_address,t_userDefinedValueType(euint32)12))"
      },
      {
        "astId": 20541,
        "contract": "contracts/tokens/FakeFGZ.sol:FakeFGZ",
        "label": "_name",
        "offset": 0,
        "slot": "5",
        "type": "t_string_storage"
      },
      {
        "astId": 20543,
        "contract": "contracts/tokens/FakeFGZ.sol:FakeFGZ",
        "label": "_symbol",
        "offset": 0,
        "slot": "6",
        "type": "t_string_storage"
      }
    ],
    "types": {
      "t_address": {
        "encoding": "inplace",
        "label": "address",
        "numberOfBytes": "20"
      },
      "t_mapping(t_address,t_mapping(t_address,t_userDefinedValueType(euint32)12))": {
        "encoding": "mapping",
        "key": "t_address",
        "label": "mapping(address => mapping(address => euint32))",
        "numberOfBytes": "32",
        "value": "t_mapping(t_address,t_userDefinedValueType(euint32)12)"
      },
      "t_mapping(t_address,t_userDefinedValueType(euint32)12)": {
        "encoding": "mapping",
        "key": "t_address",
        "label": "mapping(address => euint32)",
        "numberOfBytes": "32",
        "value": "t_userDefinedValueType(euint32)12"
      },
      "t_string_storage": {
        "encoding": "bytes",
        "label": "string",
        "numberOfBytes": "32"
      },
      "t_userDefinedValueType(euint32)12": {
        "encoding": "inplace",
        "label": "euint32",
        "numberOfBytes": "32"
      }
    }
  }
}