{
  "address": "0xA5df7DC0bFcf292e64d793Ad4b3E94b65ae65f94",
  "abi": [
    {
      "inputs": [
        {
          "components": [
            {
              "internalType": "bytes",
              "name": "data",
              "type": "bytes"
            }
          ],
          "internalType": "struct inEuint32",
          "name": "_initialSupply",
          "type": "tuple"
        }
      ],
      "stateMutability": "nonpayable",
      "type": "constructor"
    },
    {
      "inputs": [],
      "name": "AllowanceOverflow",
      "type": "error"
    },
    {
      "inputs": [],
      "name": "AllowanceUnderflow",
      "type": "error"
    },
    {
      "inputs": [],
      "name": "ECDSAInvalidSignature",
      "type": "error"
    },
    {
      "inputs": [
        {
          "internalType": "uint256",
          "name": "length",
          "type": "uint256"
        }
      ],
      "name": "ECDSAInvalidSignatureLength",
      "type": "error"
    },
    {
      "inputs": [
        {
          "internalType": "bytes32",
          "name": "s",
          "type": "bytes32"
        }
      ],
      "name": "ECDSAInvalidSignatureS",
      "type": "error"
    },
    {
      "inputs": [],
      "name": "ErrorInsufficientFunds",
      "type": "error"
    },
    {
      "inputs": [],
      "name": "InsufficientAllowance",
      "type": "error"
    },
    {
      "inputs": [],
      "name": "InsufficientBalance",
      "type": "error"
    },
    {
      "inputs": [],
      "name": "InvalidPermit",
      "type": "error"
    },
    {
      "inputs": [],
      "name": "InvalidShortString",
      "type": "error"
    },
    {
      "inputs": [],
      "name": "PermitExpired",
      "type": "error"
    },
    {
      "inputs": [],
      "name": "SignerNotMessageSender",
      "type": "error"
    },
    {
      "inputs": [],
      "name": "SignerNotOwner",
      "type": "error"
    },
    {
      "inputs": [
        {
          "internalType": "string",
          "name": "str",
          "type": "string"
        }
      ],
      "name": "StringTooLong",
      "type": "error"
    },
    {
      "inputs": [],
      "name": "TotalSupplyOverflow",
      "type": "error"
    },
    {
      "anonymous": false,
      "inputs": [
        {
          "indexed": true,
          "internalType": "address",
          "name": "owner",
          "type": "address"
        },
        {
          "indexed": true,
          "internalType": "address",
          "name": "spender",
          "type": "address"
        },
        {
          "indexed": false,
          "internalType": "uint256",
          "name": "amount",
          "type": "uint256"
        }
      ],
      "name": "Approval",
      "type": "event"
    },
    {
      "anonymous": false,
      "inputs": [
        {
          "indexed": true,
          "internalType": "address",
          "name": "owner",
          "type": "address"
        },
        {
          "indexed": true,
          "internalType": "address",
          "name": "spender",
          "type": "address"
        }
      ],
      "name": "ApprovalEncrypted",
      "type": "event"
    },
    {
      "anonymous": false,
      "inputs": [],
      "name": "EIP712DomainChanged",
      "type": "event"
    },
    {
      "anonymous": false,
      "inputs": [
        {
          "indexed": true,
          "internalType": "address",
          "name": "from",
          "type": "address"
        },
        {
          "indexed": true,
          "internalType": "address",
          "name": "to",
          "type": "address"
        },
        {
          "indexed": false,
          "internalType": "uint256",
          "name": "amount",
          "type": "uint256"
        }
      ],
      "name": "Transfer",
      "type": "event"
    },
    {
      "anonymous": false,
      "inputs": [
        {
          "indexed": true,
          "internalType": "address",
          "name": "from",
          "type": "address"
        },
        {
          "indexed": true,
          "internalType": "address",
          "name": "to",
          "type": "address"
        }
      ],
      "name": "TransferEncrypted",
      "type": "event"
    },
    {
      "inputs": [],
      "name": "DOMAIN_SEPARATOR",
      "outputs": [
        {
          "internalType": "bytes32",
          "name": "result",
          "type": "bytes32"
        }
      ],
      "stateMutability": "view",
      "type": "function"
    },
    {
      "inputs": [
        {
          "internalType": "address",
          "name": "owner",
          "type": "address"
        },
        {
          "internalType": "address",
          "name": "spender",
          "type": "address"
        }
      ],
      "name": "allowance",
      "outputs": [
        {
          "internalType": "uint256",
          "name": "result",
          "type": "uint256"
        }
      ],
      "stateMutability": "view",
      "type": "function"
    },
    {
      "inputs": [
        {
          "internalType": "address",
          "name": "spender",
          "type": "address"
        },
        {
          "components": [
            {
              "internalType": "bytes32",
              "name": "publicKey",
              "type": "bytes32"
            },
            {
              "internalType": "bytes",
              "name": "signature",
              "type": "bytes"
            }
          ],
          "internalType": "struct Permission",
          "name": "permission",
          "type": "tuple"
        }
      ],
      "name": "allowanceEncrypted",
      "outputs": [
        {
          "internalType": "string",
          "name": "",
          "type": "string"
        }
      ],
      "stateMutability": "view",
      "type": "function"
    },
    {
      "inputs": [
        {
          "internalType": "address",
          "name": "spender",
          "type": "address"
        },
        {
          "internalType": "uint256",
          "name": "amount",
          "type": "uint256"
        }
      ],
      "name": "approve",
      "outputs": [
        {
          "internalType": "bool",
          "name": "",
          "type": "bool"
        }
      ],
      "stateMutability": "nonpayable",
      "type": "function"
    },
    {
      "inputs": [
        {
          "internalType": "address",
          "name": "spender",
          "type": "address"
        },
        {
          "components": [
            {
              "internalType": "bytes",
              "name": "data",
              "type": "bytes"
            }
          ],
          "internalType": "struct inEuint32",
          "name": "value",
          "type": "tuple"
        }
      ],
      "name": "approveEncrypted",
      "outputs": [
        {
          "internalType": "bool",
          "name": "",
          "type": "bool"
        }
      ],
      "stateMutability": "nonpayable",
      "type": "function"
    },
    {
      "inputs": [
        {
          "internalType": "address",
          "name": "owner",
          "type": "address"
        }
      ],
      "name": "balanceOf",
      "outputs": [
        {
          "internalType": "uint256",
          "name": "result",
          "type": "uint256"
        }
      ],
      "stateMutability": "view",
      "type": "function"
    },
    {
      "inputs": [
        {
          "internalType": "address",
          "name": "account",
          "type": "address"
        },
        {
          "components": [
            {
              "internalType": "bytes32",
              "name": "publicKey",
              "type": "bytes32"
            },
            {
              "internalType": "bytes",
              "name": "signature",
              "type": "bytes"
            }
          ],
          "internalType": "struct Permission",
          "name": "auth",
          "type": "tuple"
        }
      ],
      "name": "balanceOfEncrypted",
      "outputs": [
        {
          "internalType": "string",
          "name": "",
          "type": "string"
        }
      ],
      "stateMutability": "view",
      "type": "function"
    },
    {
      "inputs": [],
      "name": "decimals",
      "outputs": [
        {
          "internalType": "uint8",
          "name": "",
          "type": "uint8"
        }
      ],
      "stateMutability": "pure",
      "type": "function"
    },
    {
      "inputs": [],
      "name": "eip712Domain",
      "outputs": [
        {
          "internalType": "bytes1",
          "name": "fields",
          "type": "bytes1"
        },
        {
          "internalType": "string",
          "name": "name",
          "type": "string"
        },
        {
          "internalType": "string",
          "name": "version",
          "type": "string"
        },
        {
          "internalType": "uint256",
          "name": "chainId",
          "type": "uint256"
        },
        {
          "internalType": "address",
          "name": "verifyingContract",
          "type": "address"
        },
        {
          "internalType": "bytes32",
          "name": "salt",
          "type": "bytes32"
        },
        {
          "internalType": "uint256[]",
          "name": "extensions",
          "type": "uint256[]"
        }
      ],
      "stateMutability": "view",
      "type": "function"
    },
    {
      "inputs": [],
      "name": "name",
      "outputs": [
        {
          "internalType": "string",
          "name": "",
          "type": "string"
        }
      ],
      "stateMutability": "view",
      "type": "function"
    },
    {
      "inputs": [
        {
          "internalType": "address",
          "name": "owner",
          "type": "address"
        }
      ],
      "name": "nonces",
      "outputs": [
        {
          "internalType": "uint256",
          "name": "result",
          "type": "uint256"
        }
      ],
      "stateMutability": "view",
      "type": "function"
    },
    {
      "inputs": [
        {
          "internalType": "address",
          "name": "owner",
          "type": "address"
        },
        {
          "internalType": "address",
          "name": "spender",
          "type": "address"
        },
        {
          "internalType": "uint256",
          "name": "value",
          "type": "uint256"
        },
        {
          "internalType": "uint256",
          "name": "deadline",
          "type": "uint256"
        },
        {
          "internalType": "uint8",
          "name": "v",
          "type": "uint8"
        },
        {
          "internalType": "bytes32",
          "name": "r",
          "type": "bytes32"
        },
        {
          "internalType": "bytes32",
          "name": "s",
          "type": "bytes32"
        }
      ],
      "name": "permit",
      "outputs": [],
      "stateMutability": "nonpayable",
      "type": "function"
    },
    {
      "inputs": [],
      "name": "symbol",
      "outputs": [
        {
          "internalType": "string",
          "name": "",
          "type": "string"
        }
      ],
      "stateMutability": "view",
      "type": "function"
    },
    {
      "inputs": [],
      "name": "totalSupply",
      "outputs": [
        {
          "internalType": "uint256",
          "name": "result",
          "type": "uint256"
        }
      ],
      "stateMutability": "view",
      "type": "function"
    },
    {
      "inputs": [
        {
          "internalType": "address",
          "name": "to",
          "type": "address"
        },
        {
          "internalType": "uint256",
          "name": "amount",
          "type": "uint256"
        }
      ],
      "name": "transfer",
      "outputs": [
        {
          "internalType": "bool",
          "name": "",
          "type": "bool"
        }
      ],
      "stateMutability": "nonpayable",
      "type": "function"
    },
    {
      "inputs": [
        {
          "internalType": "address",
          "name": "to",
          "type": "address"
        },
        {
          "components": [
            {
              "internalType": "bytes",
              "name": "data",
              "type": "bytes"
            }
          ],
          "internalType": "struct inEuint32",
          "name": "encryptedAmount",
          "type": "tuple"
        }
      ],
      "name": "transferEncrypted",
      "outputs": [
        {
          "internalType": "euint32",
          "name": "",
          "type": "uint256"
        }
      ],
      "stateMutability": "nonpayable",
      "type": "function"
    },
    {
      "inputs": [
        {
          "internalType": "address",
          "name": "to",
          "type": "address"
        },
        {
          "internalType": "euint32",
          "name": "amount",
          "type": "uint256"
        }
      ],
      "name": "transferEncrypted",
      "outputs": [
        {
          "internalType": "euint32",
          "name": "",
          "type": "uint256"
        }
      ],
      "stateMutability": "nonpayable",
      "type": "function"
    },
    {
      "inputs": [
        {
          "internalType": "address",
          "name": "from",
          "type": "address"
        },
        {
          "internalType": "address",
          "name": "to",
          "type": "address"
        },
        {
          "internalType": "uint256",
          "name": "amount",
          "type": "uint256"
        }
      ],
      "name": "transferFrom",
      "outputs": [
        {
          "internalType": "bool",
          "name": "",
          "type": "bool"
        }
      ],
      "stateMutability": "nonpayable",
      "type": "function"
    },
    {
      "inputs": [
        {
          "internalType": "address",
          "name": "from",
          "type": "address"
        },
        {
          "internalType": "address",
          "name": "to",
          "type": "address"
        },
        {
          "components": [
            {
              "internalType": "bytes",
              "name": "data",
              "type": "bytes"
            }
          ],
          "internalType": "struct inEuint32",
          "name": "value",
          "type": "tuple"
        }
      ],
      "name": "transferFromEncrypted",
      "outputs": [
        {
          "internalType": "euint32",
          "name": "",
          "type": "uint256"
        }
      ],
      "stateMutability": "nonpayable",
      "type": "function"
    },
    {
      "inputs": [
        {
          "internalType": "address",
          "name": "from",
          "type": "address"
        },
        {
          "internalType": "address",
          "name": "to",
          "type": "address"
        },
        {
          "internalType": "euint32",
          "name": "value",
          "type": "uint256"
        }
      ],
      "name": "transferFromEncrypted",
      "outputs": [
        {
          "internalType": "euint32",
          "name": "",
          "type": "uint256"
        }
      ],
      "stateMutability": "nonpayable",
      "type": "function"
    },
    {
      "inputs": [
        {
          "internalType": "uint32",
          "name": "amount",
          "type": "uint32"
        }
      ],
      "name": "unwrap",
      "outputs": [],
      "stateMutability": "nonpayable",
      "type": "function"
    },
    {
      "inputs": [
        {
          "internalType": "uint32",
          "name": "amount",
          "type": "uint32"
        }
      ],
      "name": "wrap",
      "outputs": [],
      "stateMutability": "nonpayable",
      "type": "function"
    }
  ],
  "transactionHash": "0x029ee4709c8783e77046347c29473016bd14f49143bde5de0f1fb3682c38da73",
  "args": [
    {
      "data": {
        "0": 16,
        "1": 8,
        "2": 0,
        "3": 0,
        "4": 0,
        "5": 0,
        "6": 0,
        "7": 0,
        "8": 46,
        "9": 77,
        "10": 115,
        "11": 118,
        "12": 188,
        "13": 189,
        "14": 13,
        "15": 91,
        "16": 158,
        "17": 169,
        "18": 169,
        "19": 82,
        "20": 26,
        "21": 108,
        "22": 165,
        "23": 30,
        "24": 155,
        "25": 99,
        "26": 210,
        "27": 209,
        "28": 212,
        "29": 124,
        "30": 214,
        "31": 37,
        "32": 77,
        "33": 236,
        "34": 220,
        "35": 177,
        "36": 43,
        "37": 5,
        "38": 117,
        "39": 73,
        "40": 86,
        "41": 46,
        "42": 199,
        "43": 104,
        "44": 103,
        "45": 219,
        "46": 225,
        "47": 20,
        "48": 173,
        "49": 148,
        "50": 188,
        "51": 27,
        "52": 44,
        "53": 90,
        "54": 146,
        "55": 119,
        "56": 77,
        "57": 153,
        "58": 212,
        "59": 152,
        "60": 148,
        "61": 3,
        "62": 224,
        "63": 203,
        "64": 96,
        "65": 87,
        "66": 223,
        "67": 177,
        "68": 241,
        "69": 201,
        "70": 145,
        "71": 32,
        "72": 71,
        "73": 59,
        "74": 203,
        "75": 162,
        "76": 231,
        "77": 39,
        "78": 50,
        "79": 62,
        "80": 4,
        "81": 66,
        "82": 202,
        "83": 170,
        "84": 104,
        "85": 168,
        "86": 130,
        "87": 220,
        "88": 148,
        "89": 243,
        "90": 215,
        "91": 247,
        "92": 26,
        "93": 47,
        "94": 25,
        "95": 107,
        "96": 217,
        "97": 48,
        "98": 161,
        "99": 81,
        "100": 80,
        "101": 123,
        "102": 83,
        "103": 222,
        "104": 212,
        "105": 58,
        "106": 4,
        "107": 254,
        "108": 122,
        "109": 50,
        "110": 246,
        "111": 186,
        "112": 107,
        "113": 172,
        "114": 194,
        "115": 207,
        "116": 20,
        "117": 112,
        "118": 243,
        "119": 127,
        "120": 255,
        "121": 84,
        "122": 96,
        "123": 112,
        "124": 26,
        "125": 120,
        "126": 15,
        "127": 36,
        "128": 184,
        "129": 178,
        "130": 109,
        "131": 112,
        "132": 72,
        "133": 207,
        "134": 214,
        "135": 231,
        "136": 106,
        "137": 200,
        "138": 109,
        "139": 16,
        "140": 135,
        "141": 20,
        "142": 6,
        "143": 104,
        "144": 146,
        "145": 228,
        "146": 214,
        "147": 25,
        "148": 199,
        "149": 42,
        "150": 225,
        "151": 121,
        "152": 154,
        "153": 93,
        "154": 254,
        "155": 190,
        "156": 193,
        "157": 219,
        "158": 145,
        "159": 154,
        "160": 185,
        "161": 12,
        "162": 244,
        "163": 129,
        "164": 227,
        "165": 59,
        "166": 81,
        "167": 66,
        "168": 100,
        "169": 19,
        "170": 139,
        "171": 213,
        "172": 156,
        "173": 83,
        "174": 150,
        "175": 181,
        "176": 123,
        "177": 139,
        "178": 168,
        "179": 157,
        "180": 181,
        "181": 8,
        "182": 212,
        "183": 59,
        "184": 235,
        "185": 56,
        "186": 61,
        "187": 113,
        "188": 251,
        "189": 49,
        "190": 138,
        "191": 252,
        "192": 181,
        "193": 35,
        "194": 15,
        "195": 166,
        "196": 167,
        "197": 56,
        "198": 215,
        "199": 19,
        "200": 79,
        "201": 211,
        "202": 118,
        "203": 82,
        "204": 158,
        "205": 220,
        "206": 111,
        "207": 0,
        "208": 70,
        "209": 24,
        "210": 17,
        "211": 112,
        "212": 33,
        "213": 98,
        "214": 188,
        "215": 31,
        "216": 46,
        "217": 166,
        "218": 215,
        "219": 108,
        "220": 39,
        "221": 83,
        "222": 196,
        "223": 184,
        "224": 5,
        "225": 207,
        "226": 153,
        "227": 108,
        "228": 32,
        "229": 179,
        "230": 184,
        "231": 174,
        "232": 64,
        "233": 1,
        "234": 93,
        "235": 118,
        "236": 45,
        "237": 76,
        "238": 89,
        "239": 219,
        "240": 205,
        "241": 221,
        "242": 35,
        "243": 94,
        "244": 92,
        "245": 13,
        "246": 113,
        "247": 75,
        "248": 90,
        "249": 162,
        "250": 154,
        "251": 95,
        "252": 153,
        "253": 203,
        "254": 100,
        "255": 142,
        "256": 90,
        "257": 12,
        "258": 19,
        "259": 118,
        "260": 168,
        "261": 133,
        "262": 22,
        "263": 243,
        "264": 125,
        "265": 104,
        "266": 211,
        "267": 16,
        "268": 97,
        "269": 215,
        "270": 252,
        "271": 226,
        "272": 101,
        "273": 18,
        "274": 195,
        "275": 53,
        "276": 191,
        "277": 25,
        "278": 141,
        "279": 219,
        "280": 194,
        "281": 67,
        "282": 89,
        "283": 27,
        "284": 3,
        "285": 190,
        "286": 251,
        "287": 186,
        "288": 94,
        "289": 41,
        "290": 155,
        "291": 204,
        "292": 157,
        "293": 130,
        "294": 109,
        "295": 72,
        "296": 234,
        "297": 246,
        "298": 13,
        "299": 184,
        "300": 50,
        "301": 240,
        "302": 214,
        "303": 134,
        "304": 250,
        "305": 18,
        "306": 158,
        "307": 153,
        "308": 4,
        "309": 35,
        "310": 165,
        "311": 195,
        "312": 87,
        "313": 124,
        "314": 106,
        "315": 179,
        "316": 155,
        "317": 33,
        "318": 158,
        "319": 160,
        "320": 216,
        "321": 174,
        "322": 150,
        "323": 47,
        "324": 137,
        "325": 61,
        "326": 245,
        "327": 198,
        "328": 103,
        "329": 247,
        "330": 87,
        "331": 49,
        "332": 24,
        "333": 45,
        "334": 101,
        "335": 203,
        "336": 39,
        "337": 66,
        "338": 204,
        "339": 149,
        "340": 235,
        "341": 98,
        "342": 58,
        "343": 118,
        "344": 0,
        "345": 85,
        "346": 253,
        "347": 114,
        "348": 12,
        "349": 21,
        "350": 78,
        "351": 31,
        "352": 155,
        "353": 9,
        "354": 230,
        "355": 2,
        "356": 73,
        "357": 188,
        "358": 70,
        "359": 62,
        "360": 140,
        "361": 7,
        "362": 110,
        "363": 235,
        "364": 183,
        "365": 122,
        "366": 146,
        "367": 179,
        "368": 208,
        "369": 60,
        "370": 202,
        "371": 17,
        "372": 18,
        "373": 191,
        "374": 167,
        "375": 193,
        "376": 164,
        "377": 56,
        "378": 74,
        "379": 209,
        "380": 167,
        "381": 195,
        "382": 49,
        "383": 169,
        "384": 25,
        "385": 40,
        "386": 98,
        "387": 250,
        "388": 226,
        "389": 19,
        "390": 96,
        "391": 57,
        "392": 163,
        "393": 9,
        "394": 72,
        "395": 109,
        "396": 75,
        "397": 53,
        "398": 177,
        "399": 46,
        "400": 67,
        "401": 154,
        "402": 170,
        "403": 171,
        "404": 156,
        "405": 8,
        "406": 78,
        "407": 97,
        "408": 144,
        "409": 29,
        "410": 167,
        "411": 190,
        "412": 158,
        "413": 134,
        "414": 13,
        "415": 139,
        "416": 235,
        "417": 11,
        "418": 171,
        "419": 170,
        "420": 22,
        "421": 222,
        "422": 176,
        "423": 48,
        "424": 23,
        "425": 226,
        "426": 36,
        "427": 47,
        "428": 191,
        "429": 83,
        "430": 82,
        "431": 168,
        "432": 212,
        "433": 96,
        "434": 173,
        "435": 221,
        "436": 134,
        "437": 221,
        "438": 213,
        "439": 240,
        "440": 66,
        "441": 19,
        "442": 219,
        "443": 80,
        "444": 51,
        "445": 213,
        "446": 219,
        "447": 147,
        "448": 177,
        "449": 248,
        "450": 159,
        "451": 155,
        "452": 228,
        "453": 89,
        "454": 4,
        "455": 47,
        "456": 60,
        "457": 202,
        "458": 235,
        "459": 104,
        "460": 85,
        "461": 205,
        "462": 204,
        "463": 42,
        "464": 149,
        "465": 200,
        "466": 49,
        "467": 164,
        "468": 151,
        "469": 19,
        "470": 98,
        "471": 50,
        "472": 228,
        "473": 5,
        "474": 183,
        "475": 209,
        "476": 199,
        "477": 192,
        "478": 14,
        "479": 232,
        "480": 55,
        "481": 48,
        "482": 0,
        "483": 239,
        "484": 205,
        "485": 197,
        "486": 133,
        "487": 115,
        "488": 70,
        "489": 64,
        "490": 166,
        "491": 20,
        "492": 118,
        "493": 189,
        "494": 89,
        "495": 145,
        "496": 254,
        "497": 45,
        "498": 232,
        "499": 197,
        "500": 219,
        "501": 142,
        "502": 123,
        "503": 104,
        "504": 251,
        "505": 220,
        "506": 149,
        "507": 219,
        "508": 199,
        "509": 188,
        "510": 241,
        "511": 236,
        "512": 24,
        "513": 152,
        "514": 67,
        "515": 187,
        "516": 27,
        "517": 200,
        "518": 53,
        "519": 247,
        "520": 128,
        "521": 58,
        "522": 91,
        "523": 135,
        "524": 95,
        "525": 79,
        "526": 250,
        "527": 3,
        "528": 134,
        "529": 94,
        "530": 188,
        "531": 107,
        "532": 93,
        "533": 158,
        "534": 138,
        "535": 158,
        "536": 206,
        "537": 250,
        "538": 93,
        "539": 107,
        "540": 160,
        "541": 126,
        "542": 63,
        "543": 108,
        "544": 153,
        "545": 23,
        "546": 98,
        "547": 63,
        "548": 7,
        "549": 59,
        "550": 104,
        "551": 58,
        "552": 45,
        "553": 75,
        "554": 183,
        "555": 94,
        "556": 106,
        "557": 128,
        "558": 201,
        "559": 107,
        "560": 73,
        "561": 19,
        "562": 166,
        "563": 57,
        "564": 113,
        "565": 124,
        "566": 132,
        "567": 201,
        "568": 89,
        "569": 16,
        "570": 88,
        "571": 141,
        "572": 252,
        "573": 17,
        "574": 45,
        "575": 235,
        "576": 82,
        "577": 223,
        "578": 247,
        "579": 128,
        "580": 235,
        "581": 30,
        "582": 160,
        "583": 131,
        "584": 153,
        "585": 251,
        "586": 157,
        "587": 242,
        "588": 101,
        "589": 53,
        "590": 28,
        "591": 113,
        "592": 89,
        "593": 58,
        "594": 18,
        "595": 178,
        "596": 214,
        "597": 39,
        "598": 231,
        "599": 248,
        "600": 86,
        "601": 227,
        "602": 2,
        "603": 88,
        "604": 130,
        "605": 118,
        "606": 195,
        "607": 56,
        "608": 253,
        "609": 119,
        "610": 79,
        "611": 16,
        "612": 157,
        "613": 134,
        "614": 88,
        "615": 173,
        "616": 229,
        "617": 38,
        "618": 94,
        "619": 11,
        "620": 3,
        "621": 23,
        "622": 231,
        "623": 91,
        "624": 19,
        "625": 78,
        "626": 251,
        "627": 60,
        "628": 29,
        "629": 29,
        "630": 160,
        "631": 215,
        "632": 104,
        "633": 131,
        "634": 20,
        "635": 169,
        "636": 68,
        "637": 170,
        "638": 161,
        "639": 194,
        "640": 165,
        "641": 81,
        "642": 105,
        "643": 229,
        "644": 166,
        "645": 41,
        "646": 104,
        "647": 192,
        "648": 225,
        "649": 223,
        "650": 125,
        "651": 17,
        "652": 54,
        "653": 5,
        "654": 26,
        "655": 124,
        "656": 145,
        "657": 72,
        "658": 71,
        "659": 167,
        "660": 221,
        "661": 223,
        "662": 240,
        "663": 170,
        "664": 216,
        "665": 154,
        "666": 234,
        "667": 23,
        "668": 122,
        "669": 161,
        "670": 243,
        "671": 134,
        "672": 67,
        "673": 105,
        "674": 151,
        "675": 102,
        "676": 71,
        "677": 59,
        "678": 162,
        "679": 175,
        "680": 12,
        "681": 25,
        "682": 193,
        "683": 168,
        "684": 113,
        "685": 190,
        "686": 120,
        "687": 103,
        "688": 110,
        "689": 244,
        "690": 60,
        "691": 162,
        "692": 62,
        "693": 88,
        "694": 122,
        "695": 91,
        "696": 185,
        "697": 211,
        "698": 224,
        "699": 159,
        "700": 254,
        "701": 10,
        "702": 89,
        "703": 232,
        "704": 9,
        "705": 2,
        "706": 36,
        "707": 31,
        "708": 169,
        "709": 95,
        "710": 145,
        "711": 90,
        "712": 72,
        "713": 20,
        "714": 241,
        "715": 77,
        "716": 178,
        "717": 27,
        "718": 12,
        "719": 232,
        "720": 242,
        "721": 174,
        "722": 40,
        "723": 71,
        "724": 152,
        "725": 146,
        "726": 220,
        "727": 69,
        "728": 109,
        "729": 100,
        "730": 242,
        "731": 192,
        "732": 116,
        "733": 171,
        "734": 173,
        "735": 134,
        "736": 199,
        "737": 19,
        "738": 4,
        "739": 25,
        "740": 136,
        "741": 198,
        "742": 107,
        "743": 132,
        "744": 41,
        "745": 102,
        "746": 247,
        "747": 123,
        "748": 85,
        "749": 207,
        "750": 55,
        "751": 26,
        "752": 192,
        "753": 254,
        "754": 181,
        "755": 219,
        "756": 38,
        "757": 253,
        "758": 175,
        "759": 4,
        "760": 190,
        "761": 27,
        "762": 41,
        "763": 166,
        "764": 70,
        "765": 12,
        "766": 104,
        "767": 150,
        "768": 159,
        "769": 243,
        "770": 120,
        "771": 222,
        "772": 206,
        "773": 88,
        "774": 52,
        "775": 58,
        "776": 30,
        "777": 214,
        "778": 67,
        "779": 29,
        "780": 55,
        "781": 129,
        "782": 163,
        "783": 231,
        "784": 175,
        "785": 52,
        "786": 16,
        "787": 229,
        "788": 102,
        "789": 37,
        "790": 185,
        "791": 231,
        "792": 219,
        "793": 8,
        "794": 24,
        "795": 250,
        "796": 7,
        "797": 17,
        "798": 139,
        "799": 122,
        "800": 0,
        "801": 64,
        "802": 28,
        "803": 56,
        "804": 184,
        "805": 106,
        "806": 104,
        "807": 127,
        "808": 11,
        "809": 113,
        "810": 176,
        "811": 53,
        "812": 74,
        "813": 182,
        "814": 115,
        "815": 111,
        "816": 208,
        "817": 196,
        "818": 113,
        "819": 60,
        "820": 64,
        "821": 152,
        "822": 72,
        "823": 216,
        "824": 203,
        "825": 19,
        "826": 103,
        "827": 211,
        "828": 51,
        "829": 131,
        "830": 122,
        "831": 233,
        "832": 155,
        "833": 55,
        "834": 30,
        "835": 156,
        "836": 92,
        "837": 90,
        "838": 46,
        "839": 47,
        "840": 98,
        "841": 202,
        "842": 65,
        "843": 159,
        "844": 228,
        "845": 137,
        "846": 17,
        "847": 121,
        "848": 121,
        "849": 174,
        "850": 48,
        "851": 116,
        "852": 168,
        "853": 250,
        "854": 203,
        "855": 186,
        "856": 3,
        "857": 156,
        "858": 129,
        "859": 254,
        "860": 65,
        "861": 54,
        "862": 196,
        "863": 254,
        "864": 65,
        "865": 174,
        "866": 104,
        "867": 196,
        "868": 56,
        "869": 196,
        "870": 27,
        "871": 57,
        "872": 109,
        "873": 253,
        "874": 150,
        "875": 185,
        "876": 10,
        "877": 81,
        "878": 112,
        "879": 142,
        "880": 25,
        "881": 59,
        "882": 160,
        "883": 201,
        "884": 150,
        "885": 234,
        "886": 56,
        "887": 143,
        "888": 42,
        "889": 4,
        "890": 250,
        "891": 233,
        "892": 39,
        "893": 14,
        "894": 57,
        "895": 79,
        "896": 219,
        "897": 212,
        "898": 211,
        "899": 195,
        "900": 2,
        "901": 58,
        "902": 183,
        "903": 205,
        "904": 126,
        "905": 159,
        "906": 108,
        "907": 132,
        "908": 231,
        "909": 222,
        "910": 10,
        "911": 126,
        "912": 81,
        "913": 160,
        "914": 154,
        "915": 110,
        "916": 10,
        "917": 172,
        "918": 136,
        "919": 242,
        "920": 143,
        "921": 101,
        "922": 122,
        "923": 65,
        "924": 64,
        "925": 76,
        "926": 32,
        "927": 211,
        "928": 217,
        "929": 147,
        "930": 98,
        "931": 238,
        "932": 153,
        "933": 116,
        "934": 166,
        "935": 185,
        "936": 94,
        "937": 30,
        "938": 121,
        "939": 205,
        "940": 147,
        "941": 134,
        "942": 251,
        "943": 71,
        "944": 216,
        "945": 133,
        "946": 108,
        "947": 76,
        "948": 15,
        "949": 48,
        "950": 78,
        "951": 29,
        "952": 99,
        "953": 124,
        "954": 128,
        "955": 198,
        "956": 131,
        "957": 76,
        "958": 177,
        "959": 55,
        "960": 0,
        "961": 13,
        "962": 51,
        "963": 208,
        "964": 179,
        "965": 89,
        "966": 177,
        "967": 7,
        "968": 141,
        "969": 0,
        "970": 200,
        "971": 198,
        "972": 41,
        "973": 111,
        "974": 134,
        "975": 63,
        "976": 174,
        "977": 21,
        "978": 85,
        "979": 185,
        "980": 163,
        "981": 60,
        "982": 225,
        "983": 67,
        "984": 66,
        "985": 173,
        "986": 203,
        "987": 144,
        "988": 20,
        "989": 10,
        "990": 101,
        "991": 43,
        "992": 100,
        "993": 228,
        "994": 90,
        "995": 8,
        "996": 138,
        "997": 136,
        "998": 81,
        "999": 111,
        "1000": 230,
        "1001": 207,
        "1002": 220,
        "1003": 93,
        "1004": 152,
        "1005": 196,
        "1006": 88,
        "1007": 99,
        "1008": 23,
        "1009": 126,
        "1010": 81,
        "1011": 30,
        "1012": 19,
        "1013": 119,
        "1014": 21,
        "1015": 178,
        "1016": 193,
        "1017": 184,
        "1018": 100,
        "1019": 75,
        "1020": 24,
        "1021": 238,
        "1022": 164,
        "1023": 142,
        "1024": 75,
        "1025": 170,
        "1026": 121,
        "1027": 75,
        "1028": 4,
        "1029": 148,
        "1030": 148,
        "1031": 43,
        "1032": 85,
        "1033": 27,
        "1034": 41,
        "1035": 193,
        "1036": 90,
        "1037": 126,
        "1038": 8,
        "1039": 9,
        "1040": 124,
        "1041": 108,
        "1042": 135,
        "1043": 13,
        "1044": 193,
        "1045": 26,
        "1046": 228,
        "1047": 76,
        "1048": 36,
        "1049": 59,
        "1050": 172,
        "1051": 103,
        "1052": 32,
        "1053": 123,
        "1054": 130,
        "1055": 233,
        "1056": 161,
        "1057": 43,
        "1058": 109,
        "1059": 190,
        "1060": 156,
        "1061": 66,
        "1062": 242,
        "1063": 33,
        "1064": 179,
        "1065": 252,
        "1066": 211,
        "1067": 238,
        "1068": 161,
        "1069": 246,
        "1070": 94,
        "1071": 14,
        "1072": 19,
        "1073": 122,
        "1074": 195,
        "1075": 152,
        "1076": 88,
        "1077": 98,
        "1078": 163,
        "1079": 209,
        "1080": 144,
        "1081": 94,
        "1082": 209,
        "1083": 227,
        "1084": 73,
        "1085": 84,
        "1086": 158,
        "1087": 68,
        "1088": 139,
        "1089": 169,
        "1090": 254,
        "1091": 229,
        "1092": 85,
        "1093": 70,
        "1094": 144,
        "1095": 241,
        "1096": 177,
        "1097": 24,
        "1098": 220,
        "1099": 131,
        "1100": 183,
        "1101": 184,
        "1102": 0,
        "1103": 28,
        "1104": 137,
        "1105": 225,
        "1106": 50,
        "1107": 6,
        "1108": 117,
        "1109": 76,
        "1110": 122,
        "1111": 29,
        "1112": 72,
        "1113": 188,
        "1114": 255,
        "1115": 119,
        "1116": 18,
        "1117": 43,
        "1118": 184,
        "1119": 36,
        "1120": 220,
        "1121": 112,
        "1122": 72,
        "1123": 95,
        "1124": 208,
        "1125": 30,
        "1126": 101,
        "1127": 48,
        "1128": 254,
        "1129": 195,
        "1130": 214,
        "1131": 223,
        "1132": 16,
        "1133": 44,
        "1134": 26,
        "1135": 111,
        "1136": 86,
        "1137": 170,
        "1138": 249,
        "1139": 4,
        "1140": 67,
        "1141": 37,
        "1142": 73,
        "1143": 241,
        "1144": 194,
        "1145": 254,
        "1146": 1,
        "1147": 199,
        "1148": 89,
        "1149": 124,
        "1150": 173,
        "1151": 121,
        "1152": 34,
        "1153": 46,
        "1154": 94,
        "1155": 140,
        "1156": 34,
        "1157": 44,
        "1158": 196,
        "1159": 29,
        "1160": 107,
        "1161": 151,
        "1162": 235,
        "1163": 2,
        "1164": 52,
        "1165": 224,
        "1166": 47,
        "1167": 23,
        "1168": 72,
        "1169": 10,
        "1170": 119,
        "1171": 190,
        "1172": 29,
        "1173": 75,
        "1174": 146,
        "1175": 55,
        "1176": 133,
        "1177": 135,
        "1178": 119,
        "1179": 17,
        "1180": 136,
        "1181": 37,
        "1182": 68,
        "1183": 202,
        "1184": 47,
        "1185": 204,
        "1186": 171,
        "1187": 249,
        "1188": 51,
        "1189": 123,
        "1190": 8,
        "1191": 69,
        "1192": 223,
        "1193": 203,
        "1194": 111,
        "1195": 23,
        "1196": 207,
        "1197": 204,
        "1198": 133,
        "1199": 182,
        "1200": 225,
        "1201": 202,
        "1202": 91,
        "1203": 221,
        "1204": 81,
        "1205": 171,
        "1206": 205,
        "1207": 241,
        "1208": 84,
        "1209": 23,
        "1210": 202,
        "1211": 159,
        "1212": 215,
        "1213": 145,
        "1214": 207,
        "1215": 65,
        "1216": 143,
        "1217": 240,
        "1218": 174,
        "1219": 142,
        "1220": 119,
        "1221": 225,
        "1222": 77,
        "1223": 108,
        "1224": 102,
        "1225": 194,
        "1226": 83,
        "1227": 169,
        "1228": 41,
        "1229": 239,
        "1230": 28,
        "1231": 191,
        "1232": 55,
        "1233": 246,
        "1234": 85,
        "1235": 177,
        "1236": 213,
        "1237": 12,
        "1238": 86,
        "1239": 83,
        "1240": 156,
        "1241": 248,
        "1242": 176,
        "1243": 160,
        "1244": 179,
        "1245": 89,
        "1246": 135,
        "1247": 83,
        "1248": 51,
        "1249": 145,
        "1250": 46,
        "1251": 122,
        "1252": 32,
        "1253": 59,
        "1254": 155,
        "1255": 226,
        "1256": 150,
        "1257": 169,
        "1258": 154,
        "1259": 203,
        "1260": 184,
        "1261": 61,
        "1262": 39,
        "1263": 180,
        "1264": 161,
        "1265": 227,
        "1266": 240,
        "1267": 47,
        "1268": 51,
        "1269": 205,
        "1270": 17,
        "1271": 139,
        "1272": 145,
        "1273": 10,
        "1274": 40,
        "1275": 67,
        "1276": 13,
        "1277": 173,
        "1278": 4,
        "1279": 15,
        "1280": 97,
        "1281": 167,
        "1282": 201,
        "1283": 229,
        "1284": 201,
        "1285": 247,
        "1286": 153,
        "1287": 152,
        "1288": 200,
        "1289": 247,
        "1290": 218,
        "1291": 198,
        "1292": 131,
        "1293": 240,
        "1294": 4,
        "1295": 190,
        "1296": 115,
        "1297": 252,
        "1298": 38,
        "1299": 2,
        "1300": 214,
        "1301": 115,
        "1302": 63,
        "1303": 103,
        "1304": 106,
        "1305": 190,
        "1306": 36,
        "1307": 120,
        "1308": 0,
        "1309": 138,
        "1310": 52,
        "1311": 112,
        "1312": 202,
        "1313": 7,
        "1314": 239,
        "1315": 223,
        "1316": 196,
        "1317": 114,
        "1318": 135,
        "1319": 160,
        "1320": 106,
        "1321": 221,
        "1322": 95,
        "1323": 194,
        "1324": 69,
        "1325": 173,
        "1326": 165,
        "1327": 204,
        "1328": 174,
        "1329": 232,
        "1330": 45,
        "1331": 111,
        "1332": 70,
        "1333": 37,
        "1334": 1,
        "1335": 86,
        "1336": 219,
        "1337": 83,
        "1338": 36,
        "1339": 104,
        "1340": 49,
        "1341": 163,
        "1342": 86,
        "1343": 244,
        "1344": 123,
        "1345": 109,
        "1346": 141,
        "1347": 0,
        "1348": 129,
        "1349": 91,
        "1350": 129,
        "1351": 82,
        "1352": 136,
        "1353": 231,
        "1354": 24,
        "1355": 208,
        "1356": 243,
        "1357": 153,
        "1358": 128,
        "1359": 123,
        "1360": 20,
        "1361": 40,
        "1362": 23,
        "1363": 76,
        "1364": 45,
        "1365": 49,
        "1366": 112,
        "1367": 104,
        "1368": 193,
        "1369": 237,
        "1370": 172,
        "1371": 75,
        "1372": 205,
        "1373": 74,
        "1374": 203,
        "1375": 16,
        "1376": 79,
        "1377": 176,
        "1378": 26,
        "1379": 225,
        "1380": 196,
        "1381": 144,
        "1382": 196,
        "1383": 21,
        "1384": 200,
        "1385": 124,
        "1386": 182,
        "1387": 118,
        "1388": 149,
        "1389": 79,
        "1390": 202,
        "1391": 252,
        "1392": 13,
        "1393": 151,
        "1394": 169,
        "1395": 192,
        "1396": 167,
        "1397": 219,
        "1398": 181,
        "1399": 156,
        "1400": 213,
        "1401": 9,
        "1402": 87,
        "1403": 9,
        "1404": 185,
        "1405": 220,
        "1406": 85,
        "1407": 62,
        "1408": 235,
        "1409": 71,
        "1410": 139,
        "1411": 185,
        "1412": 49,
        "1413": 206,
        "1414": 56,
        "1415": 44,
        "1416": 127,
        "1417": 212,
        "1418": 224,
        "1419": 32,
        "1420": 221,
        "1421": 219,
        "1422": 44,
        "1423": 198,
        "1424": 198,
        "1425": 241,
        "1426": 19,
        "1427": 216,
        "1428": 162,
        "1429": 150,
        "1430": 177,
        "1431": 245,
        "1432": 167,
        "1433": 76,
        "1434": 53,
        "1435": 221,
        "1436": 115,
        "1437": 37,
        "1438": 85,
        "1439": 9,
        "1440": 74,
        "1441": 111,
        "1442": 170,
        "1443": 150,
        "1444": 34,
        "1445": 141,
        "1446": 80,
        "1447": 2,
        "1448": 75,
        "1449": 206,
        "1450": 29,
        "1451": 214,
        "1452": 237,
        "1453": 226,
        "1454": 242,
        "1455": 42,
        "1456": 72,
        "1457": 188,
        "1458": 74,
        "1459": 57,
        "1460": 137,
        "1461": 112,
        "1462": 149,
        "1463": 178,
        "1464": 73,
        "1465": 109,
        "1466": 4,
        "1467": 132,
        "1468": 127,
        "1469": 247,
        "1470": 194,
        "1471": 162,
        "1472": 149,
        "1473": 17,
        "1474": 255,
        "1475": 151,
        "1476": 116,
        "1477": 50,
        "1478": 225,
        "1479": 23,
        "1480": 230,
        "1481": 216,
        "1482": 53,
        "1483": 67,
        "1484": 191,
        "1485": 80,
        "1486": 202,
        "1487": 186,
        "1488": 232,
        "1489": 59,
        "1490": 250,
        "1491": 113,
        "1492": 195,
        "1493": 202,
        "1494": 87,
        "1495": 233,
        "1496": 88,
        "1497": 219,
        "1498": 222,
        "1499": 229,
        "1500": 93,
        "1501": 195,
        "1502": 11,
        "1503": 158,
        "1504": 50,
        "1505": 1,
        "1506": 237,
        "1507": 210,
        "1508": 182,
        "1509": 248,
        "1510": 248,
        "1511": 56,
        "1512": 168,
        "1513": 171,
        "1514": 177,
        "1515": 76,
        "1516": 212,
        "1517": 12,
        "1518": 3,
        "1519": 75,
        "1520": 120,
        "1521": 10,
        "1522": 61,
        "1523": 173,
        "1524": 34,
        "1525": 149,
        "1526": 150,
        "1527": 67,
        "1528": 12,
        "1529": 196,
        "1530": 137,
        "1531": 135,
        "1532": 167,
        "1533": 104,
        "1534": 156,
        "1535": 96,
        "1536": 40,
        "1537": 188,
        "1538": 129,
        "1539": 230,
        "1540": 220,
        "1541": 87,
        "1542": 143,
        "1543": 166,
        "1544": 117,
        "1545": 104,
        "1546": 71,
        "1547": 201,
        "1548": 118,
        "1549": 105,
        "1550": 250,
        "1551": 59,
        "1552": 3,
        "1553": 95,
        "1554": 215,
        "1555": 187,
        "1556": 58,
        "1557": 27,
        "1558": 26,
        "1559": 225,
        "1560": 14,
        "1561": 138,
        "1562": 37,
        "1563": 113,
        "1564": 156,
        "1565": 114,
        "1566": 3,
        "1567": 238,
        "1568": 52,
        "1569": 239,
        "1570": 38,
        "1571": 11,
        "1572": 102,
        "1573": 165,
        "1574": 14,
        "1575": 28,
        "1576": 92,
        "1577": 255,
        "1578": 70,
        "1579": 138,
        "1580": 162,
        "1581": 231,
        "1582": 142,
        "1583": 53,
        "1584": 67,
        "1585": 201,
        "1586": 51,
        "1587": 62,
        "1588": 237,
        "1589": 220,
        "1590": 103,
        "1591": 165,
        "1592": 59,
        "1593": 228,
        "1594": 251,
        "1595": 245,
        "1596": 104,
        "1597": 190,
        "1598": 71,
        "1599": 9,
        "1600": 115,
        "1601": 238,
        "1602": 145,
        "1603": 142,
        "1604": 76,
        "1605": 231,
        "1606": 170,
        "1607": 116,
        "1608": 213,
        "1609": 146,
        "1610": 173,
        "1611": 17,
        "1612": 151,
        "1613": 186,
        "1614": 155,
        "1615": 65,
        "1616": 75,
        "1617": 66,
        "1618": 124,
        "1619": 175,
        "1620": 114,
        "1621": 185,
        "1622": 188,
        "1623": 129,
        "1624": 116,
        "1625": 134,
        "1626": 101,
        "1627": 14,
        "1628": 228,
        "1629": 213,
        "1630": 146,
        "1631": 105,
        "1632": 234,
        "1633": 116,
        "1634": 93,
        "1635": 27,
        "1636": 62,
        "1637": 133,
        "1638": 30,
        "1639": 177,
        "1640": 169,
        "1641": 71,
        "1642": 61,
        "1643": 160,
        "1644": 235,
        "1645": 28,
        "1646": 245,
        "1647": 52,
        "1648": 38,
        "1649": 126,
        "1650": 108,
        "1651": 126,
        "1652": 168,
        "1653": 8,
        "1654": 115,
        "1655": 238,
        "1656": 56,
        "1657": 179,
        "1658": 153,
        "1659": 228,
        "1660": 42,
        "1661": 246,
        "1662": 165,
        "1663": 160,
        "1664": 176,
        "1665": 50,
        "1666": 75,
        "1667": 146,
        "1668": 151,
        "1669": 72,
        "1670": 222,
        "1671": 140,
        "1672": 92,
        "1673": 240,
        "1674": 197,
        "1675": 76,
        "1676": 118,
        "1677": 99,
        "1678": 81,
        "1679": 190,
        "1680": 206,
        "1681": 50,
        "1682": 55,
        "1683": 121,
        "1684": 84,
        "1685": 130,
        "1686": 214,
        "1687": 165,
        "1688": 99,
        "1689": 15,
        "1690": 44,
        "1691": 196,
        "1692": 113,
        "1693": 213,
        "1694": 111,
        "1695": 31,
        "1696": 65,
        "1697": 1,
        "1698": 127,
        "1699": 189,
        "1700": 229,
        "1701": 224,
        "1702": 60,
        "1703": 53,
        "1704": 11,
        "1705": 97,
        "1706": 201,
        "1707": 157,
        "1708": 228,
        "1709": 100,
        "1710": 183,
        "1711": 238,
        "1712": 199,
        "1713": 151,
        "1714": 143,
        "1715": 20,
        "1716": 89,
        "1717": 188,
        "1718": 217,
        "1719": 171,
        "1720": 84,
        "1721": 170,
        "1722": 54,
        "1723": 140,
        "1724": 140,
        "1725": 251,
        "1726": 127,
        "1727": 61,
        "1728": 172,
        "1729": 165,
        "1730": 160,
        "1731": 123,
        "1732": 9,
        "1733": 171,
        "1734": 166,
        "1735": 173,
        "1736": 229,
        "1737": 146,
        "1738": 0,
        "1739": 177,
        "1740": 27,
        "1741": 122,
        "1742": 4,
        "1743": 54,
        "1744": 8,
        "1745": 3,
        "1746": 235,
        "1747": 105,
        "1748": 60,
        "1749": 185,
        "1750": 128,
        "1751": 137,
        "1752": 142,
        "1753": 76,
        "1754": 156,
        "1755": 114,
        "1756": 127,
        "1757": 60,
        "1758": 186,
        "1759": 154,
        "1760": 241,
        "1761": 41,
        "1762": 179,
        "1763": 231,
        "1764": 80,
        "1765": 16,
        "1766": 132,
        "1767": 246,
        "1768": 79,
        "1769": 59,
        "1770": 113,
        "1771": 219,
        "1772": 82,
        "1773": 236,
        "1774": 21,
        "1775": 184,
        "1776": 128,
        "1777": 206,
        "1778": 211,
        "1779": 242,
        "1780": 151,
        "1781": 156,
        "1782": 95,
        "1783": 117,
        "1784": 72,
        "1785": 70,
        "1786": 45,
        "1787": 220,
        "1788": 98,
        "1789": 134,
        "1790": 68,
        "1791": 7,
        "1792": 121,
        "1793": 210,
        "1794": 196,
        "1795": 219,
        "1796": 7,
        "1797": 203,
        "1798": 78,
        "1799": 221,
        "1800": 109,
        "1801": 223,
        "1802": 148,
        "1803": 59,
        "1804": 244,
        "1805": 7,
        "1806": 59,
        "1807": 129,
        "1808": 17,
        "1809": 127,
        "1810": 132,
        "1811": 228,
        "1812": 24,
        "1813": 215,
        "1814": 164,
        "1815": 161,
        "1816": 115,
        "1817": 198,
        "1818": 49,
        "1819": 184,
        "1820": 118,
        "1821": 143,
        "1822": 89,
        "1823": 203,
        "1824": 228,
        "1825": 91,
        "1826": 28,
        "1827": 0,
        "1828": 85,
        "1829": 107,
        "1830": 40,
        "1831": 241,
        "1832": 2,
        "1833": 48,
        "1834": 228,
        "1835": 188,
        "1836": 17,
        "1837": 142,
        "1838": 69,
        "1839": 134,
        "1840": 71,
        "1841": 245,
        "1842": 88,
        "1843": 99,
        "1844": 179,
        "1845": 251,
        "1846": 103,
        "1847": 252,
        "1848": 53,
        "1849": 124,
        "1850": 73,
        "1851": 114,
        "1852": 155,
        "1853": 91,
        "1854": 143,
        "1855": 105,
        "1856": 161,
        "1857": 30,
        "1858": 214,
        "1859": 193,
        "1860": 4,
        "1861": 213,
        "1862": 27,
        "1863": 245,
        "1864": 153,
        "1865": 235,
        "1866": 223,
        "1867": 204,
        "1868": 229,
        "1869": 223,
        "1870": 217,
        "1871": 58,
        "1872": 218,
        "1873": 38,
        "1874": 218,
        "1875": 129,
        "1876": 169,
        "1877": 173,
        "1878": 93,
        "1879": 66,
        "1880": 106,
        "1881": 189,
        "1882": 183,
        "1883": 170,
        "1884": 164,
        "1885": 27,
        "1886": 181,
        "1887": 5,
        "1888": 199,
        "1889": 87,
        "1890": 143,
        "1891": 34,
        "1892": 154,
        "1893": 102,
        "1894": 148,
        "1895": 140,
        "1896": 231,
        "1897": 160,
        "1898": 147,
        "1899": 135,
        "1900": 149,
        "1901": 200,
        "1902": 222,
        "1903": 26,
        "1904": 190,
        "1905": 230,
        "1906": 103,
        "1907": 229,
        "1908": 215,
        "1909": 194,
        "1910": 237,
        "1911": 93,
        "1912": 92,
        "1913": 85,
        "1914": 136,
        "1915": 127,
        "1916": 181,
        "1917": 215,
        "1918": 30,
        "1919": 52,
        "1920": 159,
        "1921": 68,
        "1922": 101,
        "1923": 189,
        "1924": 157,
        "1925": 136,
        "1926": 164,
        "1927": 169,
        "1928": 234,
        "1929": 237,
        "1930": 225,
        "1931": 36,
        "1932": 59,
        "1933": 142,
        "1934": 246,
        "1935": 3,
        "1936": 19,
        "1937": 199,
        "1938": 179,
        "1939": 243,
        "1940": 152,
        "1941": 221,
        "1942": 136,
        "1943": 81,
        "1944": 120,
        "1945": 195,
        "1946": 20,
        "1947": 88,
        "1948": 23,
        "1949": 242,
        "1950": 165,
        "1951": 184,
        "1952": 115,
        "1953": 65,
        "1954": 137,
        "1955": 61,
        "1956": 225,
        "1957": 18,
        "1958": 18,
        "1959": 3,
        "1960": 238,
        "1961": 63,
        "1962": 31,
        "1963": 103,
        "1964": 166,
        "1965": 44,
        "1966": 56,
        "1967": 28,
        "1968": 76,
        "1969": 6,
        "1970": 180,
        "1971": 228,
        "1972": 209,
        "1973": 219,
        "1974": 241,
        "1975": 63,
        "1976": 228,
        "1977": 155,
        "1978": 150,
        "1979": 188,
        "1980": 154,
        "1981": 158,
        "1982": 85,
        "1983": 141,
        "1984": 93,
        "1985": 205,
        "1986": 121,
        "1987": 210,
        "1988": 238,
        "1989": 106,
        "1990": 111,
        "1991": 185,
        "1992": 151,
        "1993": 87,
        "1994": 252,
        "1995": 66,
        "1996": 155,
        "1997": 30,
        "1998": 210,
        "1999": 108,
        "2000": 116,
        "2001": 146,
        "2002": 98,
        "2003": 252,
        "2004": 204,
        "2005": 89,
        "2006": 135,
        "2007": 235,
        "2008": 154,
        "2009": 61,
        "2010": 167,
        "2011": 134,
        "2012": 170,
        "2013": 125,
        "2014": 66,
        "2015": 95,
        "2016": 14,
        "2017": 140,
        "2018": 68,
        "2019": 238,
        "2020": 100,
        "2021": 122,
        "2022": 17,
        "2023": 5,
        "2024": 14,
        "2025": 25,
        "2026": 60,
        "2027": 239,
        "2028": 167,
        "2029": 246,
        "2030": 143,
        "2031": 212,
        "2032": 186,
        "2033": 209,
        "2034": 146,
        "2035": 164,
        "2036": 68,
        "2037": 166,
        "2038": 53,
        "2039": 3,
        "2040": 119,
        "2041": 109,
        "2042": 60,
        "2043": 31,
        "2044": 25,
        "2045": 53,
        "2046": 237,
        "2047": 144,
        "2048": 240,
        "2049": 11,
        "2050": 239,
        "2051": 255,
        "2052": 150,
        "2053": 184,
        "2054": 132,
        "2055": 108,
        "2056": 139,
        "2057": 112,
        "2058": 183,
        "2059": 220,
        "2060": 136,
        "2061": 64,
        "2062": 145,
        "2063": 97,
        "2064": 103,
        "2065": 224,
        "2066": 130,
        "2067": 38,
        "2068": 208,
        "2069": 232,
        "2070": 240,
        "2071": 79,
        "2072": 28,
        "2073": 123,
        "2074": 184,
        "2075": 202,
        "2076": 121,
        "2077": 38,
        "2078": 208,
        "2079": 76,
        "2080": 96,
        "2081": 210,
        "2082": 140,
        "2083": 111,
        "2084": 127,
        "2085": 12,
        "2086": 10,
        "2087": 191,
        "2088": 153,
        "2089": 226,
        "2090": 102,
        "2091": 89,
        "2092": 152,
        "2093": 144,
        "2094": 156,
        "2095": 9,
        "2096": 64,
        "2097": 36,
        "2098": 78,
        "2099": 0,
        "2100": 19,
        "2101": 228,
        "2102": 198,
        "2103": 169,
        "2104": 236,
        "2105": 208,
        "2106": 201,
        "2107": 139,
        "2108": 99,
        "2109": 22,
        "2110": 243,
        "2111": 41,
        "2112": 136,
        "2113": 158,
        "2114": 162,
        "2115": 104,
        "2116": 32,
        "2117": 45,
        "2118": 52,
        "2119": 126,
        "2120": 88,
        "2121": 144,
        "2122": 188,
        "2123": 37,
        "2124": 96,
        "2125": 17,
        "2126": 247,
        "2127": 145,
        "2128": 235,
        "2129": 114,
        "2130": 21,
        "2131": 73,
        "2132": 185,
        "2133": 173,
        "2134": 128,
        "2135": 166,
        "2136": 86,
        "2137": 142,
        "2138": 117,
        "2139": 113,
        "2140": 81,
        "2141": 53,
        "2142": 214,
        "2143": 208,
        "2144": 49,
        "2145": 44,
        "2146": 26,
        "2147": 199,
        "2148": 187,
        "2149": 83,
        "2150": 128,
        "2151": 222,
        "2152": 16,
        "2153": 166,
        "2154": 103,
        "2155": 122,
        "2156": 235,
        "2157": 255,
        "2158": 77,
        "2159": 158,
        "2160": 7,
        "2161": 7,
        "2162": 26,
        "2163": 72,
        "2164": 80,
        "2165": 77,
        "2166": 87,
        "2167": 222,
        "2168": 151,
        "2169": 148,
        "2170": 92,
        "2171": 160,
        "2172": 237,
        "2173": 90,
        "2174": 73,
        "2175": 137,
        "2176": 74,
        "2177": 141,
        "2178": 187,
        "2179": 43,
        "2180": 136,
        "2181": 72,
        "2182": 215,
        "2183": 135,
        "2184": 59,
        "2185": 22,
        "2186": 26,
        "2187": 195,
        "2188": 214,
        "2189": 17,
        "2190": 174,
        "2191": 141,
        "2192": 149,
        "2193": 76,
        "2194": 90,
        "2195": 67,
        "2196": 6,
        "2197": 99,
        "2198": 189,
        "2199": 217,
        "2200": 66,
        "2201": 247,
        "2202": 254,
        "2203": 148,
        "2204": 196,
        "2205": 30,
        "2206": 127,
        "2207": 136,
        "2208": 119,
        "2209": 101,
        "2210": 78,
        "2211": 171,
        "2212": 152,
        "2213": 29,
        "2214": 227,
        "2215": 14,
        "2216": 183,
        "2217": 57,
        "2218": 1,
        "2219": 196,
        "2220": 131,
        "2221": 225,
        "2222": 130,
        "2223": 157,
        "2224": 109,
        "2225": 75,
        "2226": 57,
        "2227": 140,
        "2228": 115,
        "2229": 179,
        "2230": 210,
        "2231": 201,
        "2232": 109,
        "2233": 25,
        "2234": 246,
        "2235": 10,
        "2236": 36,
        "2237": 246,
        "2238": 127,
        "2239": 149,
        "2240": 87,
        "2241": 85,
        "2242": 29,
        "2243": 208,
        "2244": 119,
        "2245": 129,
        "2246": 69,
        "2247": 41,
        "2248": 197,
        "2249": 88,
        "2250": 179,
        "2251": 180,
        "2252": 65,
        "2253": 132,
        "2254": 5,
        "2255": 210,
        "2256": 198,
        "2257": 195,
        "2258": 119,
        "2259": 248,
        "2260": 142,
        "2261": 151,
        "2262": 21,
        "2263": 215,
        "2264": 117,
        "2265": 239,
        "2266": 180,
        "2267": 207,
        "2268": 225,
        "2269": 144,
        "2270": 255,
        "2271": 56,
        "2272": 28,
        "2273": 207,
        "2274": 54,
        "2275": 75,
        "2276": 180,
        "2277": 112,
        "2278": 51,
        "2279": 22,
        "2280": 185,
        "2281": 125,
        "2282": 119,
        "2283": 181,
        "2284": 41,
        "2285": 215,
        "2286": 33,
        "2287": 5,
        "2288": 111,
        "2289": 49,
        "2290": 7,
        "2291": 234,
        "2292": 201,
        "2293": 70,
        "2294": 43,
        "2295": 181,
        "2296": 16,
        "2297": 101,
        "2298": 145,
        "2299": 243,
        "2300": 127,
        "2301": 102,
        "2302": 183,
        "2303": 102,
        "2304": 39,
        "2305": 199,
        "2306": 33,
        "2307": 148,
        "2308": 160,
        "2309": 105,
        "2310": 14,
        "2311": 201,
        "2312": 120,
        "2313": 56,
        "2314": 243,
        "2315": 142,
        "2316": 69,
        "2317": 150,
        "2318": 70,
        "2319": 45,
        "2320": 150,
        "2321": 164,
        "2322": 115,
        "2323": 193,
        "2324": 15,
        "2325": 110,
        "2326": 18,
        "2327": 214,
        "2328": 154,
        "2329": 36,
        "2330": 103,
        "2331": 220,
        "2332": 168,
        "2333": 184,
        "2334": 72,
        "2335": 212,
        "2336": 180,
        "2337": 73,
        "2338": 11,
        "2339": 130,
        "2340": 90,
        "2341": 159,
        "2342": 58,
        "2343": 167,
        "2344": 2,
        "2345": 81,
        "2346": 68,
        "2347": 27,
        "2348": 152,
        "2349": 121,
        "2350": 2,
        "2351": 149,
        "2352": 118,
        "2353": 84,
        "2354": 162,
        "2355": 215,
        "2356": 39,
        "2357": 29,
        "2358": 24,
        "2359": 13,
        "2360": 151,
        "2361": 19,
        "2362": 80,
        "2363": 181,
        "2364": 13,
        "2365": 161,
        "2366": 141,
        "2367": 177,
        "2368": 143,
        "2369": 253,
        "2370": 215,
        "2371": 199,
        "2372": 83,
        "2373": 250,
        "2374": 136,
        "2375": 215,
        "2376": 10,
        "2377": 204,
        "2378": 95,
        "2379": 136,
        "2380": 131,
        "2381": 160,
        "2382": 247,
        "2383": 8,
        "2384": 43,
        "2385": 171,
        "2386": 211,
        "2387": 150,
        "2388": 242,
        "2389": 243,
        "2390": 253,
        "2391": 156,
        "2392": 170,
        "2393": 219,
        "2394": 199,
        "2395": 32,
        "2396": 250,
        "2397": 119,
        "2398": 150,
        "2399": 238,
        "2400": 224,
        "2401": 235,
        "2402": 100,
        "2403": 89,
        "2404": 250,
        "2405": 11,
        "2406": 240,
        "2407": 59,
        "2408": 183,
        "2409": 17,
        "2410": 22,
        "2411": 177,
        "2412": 26,
        "2413": 224,
        "2414": 255,
        "2415": 108,
        "2416": 245,
        "2417": 11,
        "2418": 112,
        "2419": 19,
        "2420": 244,
        "2421": 155,
        "2422": 155,
        "2423": 220,
        "2424": 188,
        "2425": 248,
        "2426": 7,
        "2427": 169,
        "2428": 67,
        "2429": 32,
        "2430": 245,
        "2431": 6,
        "2432": 124,
        "2433": 34,
        "2434": 43,
        "2435": 198,
        "2436": 27,
        "2437": 50,
        "2438": 172,
        "2439": 123,
        "2440": 81,
        "2441": 241,
        "2442": 101,
        "2443": 222,
        "2444": 220,
        "2445": 62,
        "2446": 247,
        "2447": 198,
        "2448": 208,
        "2449": 26,
        "2450": 233,
        "2451": 168,
        "2452": 70,
        "2453": 202,
        "2454": 45,
        "2455": 95,
        "2456": 65,
        "2457": 49,
        "2458": 90,
        "2459": 203,
        "2460": 245,
        "2461": 122,
        "2462": 73,
        "2463": 134,
        "2464": 25,
        "2465": 118,
        "2466": 175,
        "2467": 14,
        "2468": 65,
        "2469": 4,
        "2470": 43,
        "2471": 141,
        "2472": 119,
        "2473": 111,
        "2474": 45,
        "2475": 238,
        "2476": 250,
        "2477": 94,
        "2478": 252,
        "2479": 196,
        "2480": 24,
        "2481": 49,
        "2482": 223,
        "2483": 188,
        "2484": 124,
        "2485": 101,
        "2486": 193,
        "2487": 18,
        "2488": 234,
        "2489": 194,
        "2490": 6,
        "2491": 8,
        "2492": 157,
        "2493": 212,
        "2494": 120,
        "2495": 74,
        "2496": 118,
        "2497": 20,
        "2498": 127,
        "2499": 118,
        "2500": 226,
        "2501": 18,
        "2502": 156,
        "2503": 150,
        "2504": 150,
        "2505": 198,
        "2506": 10,
        "2507": 239,
        "2508": 126,
        "2509": 42,
        "2510": 148,
        "2511": 110,
        "2512": 125,
        "2513": 139,
        "2514": 43,
        "2515": 252,
        "2516": 157,
        "2517": 150,
        "2518": 34,
        "2519": 81,
        "2520": 71,
        "2521": 178,
        "2522": 170,
        "2523": 244,
        "2524": 75,
        "2525": 83,
        "2526": 189,
        "2527": 220,
        "2528": 87,
        "2529": 51,
        "2530": 180,
        "2531": 4,
        "2532": 205,
        "2533": 25,
        "2534": 186,
        "2535": 108,
        "2536": 176,
        "2537": 21,
        "2538": 189,
        "2539": 107,
        "2540": 101,
        "2541": 148,
        "2542": 10,
        "2543": 105,
        "2544": 51,
        "2545": 45,
        "2546": 46,
        "2547": 228,
        "2548": 205,
        "2549": 102,
        "2550": 169,
        "2551": 24,
        "2552": 37,
        "2553": 183,
        "2554": 183,
        "2555": 10,
        "2556": 90,
        "2557": 125,
        "2558": 208,
        "2559": 237,
        "2560": 162,
        "2561": 216,
        "2562": 223,
        "2563": 27,
        "2564": 1,
        "2565": 181,
        "2566": 216,
        "2567": 56,
        "2568": 215,
        "2569": 203,
        "2570": 56,
        "2571": 83,
        "2572": 14,
        "2573": 45,
        "2574": 44,
        "2575": 75,
        "2576": 95,
        "2577": 243,
        "2578": 221,
        "2579": 71,
        "2580": 23,
        "2581": 47,
        "2582": 9,
        "2583": 44,
        "2584": 91,
        "2585": 97,
        "2586": 143,
        "2587": 12,
        "2588": 203,
        "2589": 188,
        "2590": 227,
        "2591": 92,
        "2592": 206,
        "2593": 122,
        "2594": 137,
        "2595": 45,
        "2596": 60,
        "2597": 203,
        "2598": 20,
        "2599": 84,
        "2600": 233,
        "2601": 208,
        "2602": 56,
        "2603": 227,
        "2604": 25,
        "2605": 104,
        "2606": 113,
        "2607": 213,
        "2608": 9,
        "2609": 27,
        "2610": 72,
        "2611": 36,
        "2612": 98,
        "2613": 253,
        "2614": 187,
        "2615": 19,
        "2616": 240,
        "2617": 3,
        "2618": 255,
        "2619": 137,
        "2620": 223,
        "2621": 207,
        "2622": 244,
        "2623": 122,
        "2624": 22,
        "2625": 115,
        "2626": 204,
        "2627": 28,
        "2628": 115,
        "2629": 3,
        "2630": 68,
        "2631": 255,
        "2632": 74,
        "2633": 215,
        "2634": 140,
        "2635": 194,
        "2636": 228,
        "2637": 229,
        "2638": 223,
        "2639": 47,
        "2640": 84,
        "2641": 211,
        "2642": 199,
        "2643": 38,
        "2644": 36,
        "2645": 228,
        "2646": 5,
        "2647": 141,
        "2648": 134,
        "2649": 39,
        "2650": 137,
        "2651": 210,
        "2652": 118,
        "2653": 107,
        "2654": 207,
        "2655": 5,
        "2656": 131,
        "2657": 240,
        "2658": 135,
        "2659": 215,
        "2660": 46,
        "2661": 165,
        "2662": 136,
        "2663": 214,
        "2664": 16,
        "2665": 158,
        "2666": 41,
        "2667": 4,
        "2668": 222,
        "2669": 119,
        "2670": 40,
        "2671": 8,
        "2672": 21,
        "2673": 237,
        "2674": 164,
        "2675": 46,
        "2676": 105,
        "2677": 137,
        "2678": 93,
        "2679": 80,
        "2680": 179,
        "2681": 47,
        "2682": 183,
        "2683": 129,
        "2684": 57,
        "2685": 47,
        "2686": 151,
        "2687": 122,
        "2688": 123,
        "2689": 120,
        "2690": 252,
        "2691": 86,
        "2692": 110,
        "2693": 183,
        "2694": 65,
        "2695": 42,
        "2696": 60,
        "2697": 118,
        "2698": 247,
        "2699": 124,
        "2700": 58,
        "2701": 51,
        "2702": 252,
        "2703": 125,
        "2704": 144,
        "2705": 92,
        "2706": 59,
        "2707": 7,
        "2708": 17,
        "2709": 104,
        "2710": 250,
        "2711": 85,
        "2712": 38,
        "2713": 76,
        "2714": 195,
        "2715": 39,
        "2716": 248,
        "2717": 155,
        "2718": 242,
        "2719": 136,
        "2720": 75,
        "2721": 95,
        "2722": 207,
        "2723": 83,
        "2724": 168,
        "2725": 140,
        "2726": 202,
        "2727": 100,
        "2728": 241,
        "2729": 147,
        "2730": 131,
        "2731": 96,
        "2732": 166,
        "2733": 248,
        "2734": 63,
        "2735": 13,
        "2736": 79,
        "2737": 53,
        "2738": 65,
        "2739": 74,
        "2740": 97,
        "2741": 208,
        "2742": 23,
        "2743": 223,
        "2744": 182,
        "2745": 150,
        "2746": 46,
        "2747": 36,
        "2748": 177,
        "2749": 33,
        "2750": 18,
        "2751": 181,
        "2752": 7,
        "2753": 116,
        "2754": 204,
        "2755": 172,
        "2756": 89,
        "2757": 113,
        "2758": 85,
        "2759": 205,
        "2760": 17,
        "2761": 230,
        "2762": 233,
        "2763": 21,
        "2764": 72,
        "2765": 43,
        "2766": 2,
        "2767": 227,
        "2768": 17,
        "2769": 210,
        "2770": 211,
        "2771": 99,
        "2772": 59,
        "2773": 226,
        "2774": 176,
        "2775": 80,
        "2776": 17,
        "2777": 39,
        "2778": 57,
        "2779": 109,
        "2780": 49,
        "2781": 156,
        "2782": 179,
        "2783": 9,
        "2784": 242,
        "2785": 98,
        "2786": 181,
        "2787": 66,
        "2788": 42,
        "2789": 178,
        "2790": 168,
        "2791": 52,
        "2792": 140,
        "2793": 175,
        "2794": 15,
        "2795": 54,
        "2796": 191,
        "2797": 128,
        "2798": 228,
        "2799": 2,
        "2800": 40,
        "2801": 139,
        "2802": 37,
        "2803": 60,
        "2804": 204,
        "2805": 158,
        "2806": 128,
        "2807": 234,
        "2808": 132,
        "2809": 85,
        "2810": 200,
        "2811": 236,
        "2812": 175,
        "2813": 46,
        "2814": 4,
        "2815": 104,
        "2816": 33,
        "2817": 69,
        "2818": 127,
        "2819": 136,
        "2820": 234,
        "2821": 247,
        "2822": 186,
        "2823": 147,
        "2824": 255,
        "2825": 119,
        "2826": 122,
        "2827": 166,
        "2828": 65,
        "2829": 110,
        "2830": 225,
        "2831": 168,
        "2832": 8,
        "2833": 252,
        "2834": 178,
        "2835": 144,
        "2836": 197,
        "2837": 182,
        "2838": 95,
        "2839": 77,
        "2840": 160,
        "2841": 247,
        "2842": 149,
        "2843": 37,
        "2844": 154,
        "2845": 160,
        "2846": 185,
        "2847": 59,
        "2848": 229,
        "2849": 55,
        "2850": 30,
        "2851": 135,
        "2852": 118,
        "2853": 140,
        "2854": 239,
        "2855": 33,
        "2856": 33,
        "2857": 168,
        "2858": 157,
        "2859": 26,
        "2860": 165,
        "2861": 255,
        "2862": 71,
        "2863": 31,
        "2864": 10,
        "2865": 253,
        "2866": 117,
        "2867": 2,
        "2868": 67,
        "2869": 153,
        "2870": 9,
        "2871": 221,
        "2872": 97,
        "2873": 113,
        "2874": 150,
        "2875": 82,
        "2876": 125,
        "2877": 151,
        "2878": 161,
        "2879": 220,
        "2880": 80,
        "2881": 2,
        "2882": 120,
        "2883": 49,
        "2884": 216,
        "2885": 161,
        "2886": 44,
        "2887": 141,
        "2888": 7,
        "2889": 202,
        "2890": 239,
        "2891": 86,
        "2892": 42,
        "2893": 105,
        "2894": 47,
        "2895": 153,
        "2896": 45,
        "2897": 50,
        "2898": 98,
        "2899": 186,
        "2900": 173,
        "2901": 111,
        "2902": 15,
        "2903": 252,
        "2904": 100,
        "2905": 237,
        "2906": 108,
        "2907": 157,
        "2908": 45,
        "2909": 225,
        "2910": 115,
        "2911": 207,
        "2912": 118,
        "2913": 147,
        "2914": 232,
        "2915": 40,
        "2916": 223,
        "2917": 237,
        "2918": 70,
        "2919": 223,
        "2920": 45,
        "2921": 218,
        "2922": 23,
        "2923": 25,
        "2924": 185,
        "2925": 35,
        "2926": 42,
        "2927": 121,
        "2928": 210,
        "2929": 80,
        "2930": 123,
        "2931": 163,
        "2932": 104,
        "2933": 100,
        "2934": 42,
        "2935": 255,
        "2936": 31,
        "2937": 153,
        "2938": 223,
        "2939": 120,
        "2940": 21,
        "2941": 155,
        "2942": 173,
        "2943": 49,
        "2944": 145,
        "2945": 174,
        "2946": 75,
        "2947": 206,
        "2948": 45,
        "2949": 185,
        "2950": 57,
        "2951": 211,
        "2952": 227,
        "2953": 87,
        "2954": 193,
        "2955": 254,
        "2956": 4,
        "2957": 91,
        "2958": 39,
        "2959": 134,
        "2960": 120,
        "2961": 122,
        "2962": 208,
        "2963": 70,
        "2964": 9,
        "2965": 51,
        "2966": 146,
        "2967": 251,
        "2968": 133,
        "2969": 126,
        "2970": 33,
        "2971": 90,
        "2972": 23,
        "2973": 171,
        "2974": 2,
        "2975": 146,
        "2976": 13,
        "2977": 9,
        "2978": 21,
        "2979": 167,
        "2980": 209,
        "2981": 230,
        "2982": 29,
        "2983": 218,
        "2984": 51,
        "2985": 36,
        "2986": 9,
        "2987": 83,
        "2988": 9,
        "2989": 53,
        "2990": 214,
        "2991": 66,
        "2992": 16,
        "2993": 120,
        "2994": 164,
        "2995": 19,
        "2996": 224,
        "2997": 76,
        "2998": 170,
        "2999": 26,
        "3000": 192,
        "3001": 238,
        "3002": 155,
        "3003": 58,
        "3004": 106,
        "3005": 192,
        "3006": 170,
        "3007": 246,
        "3008": 119,
        "3009": 79,
        "3010": 92,
        "3011": 157,
        "3012": 215,
        "3013": 121,
        "3014": 198,
        "3015": 213,
        "3016": 118,
        "3017": 82,
        "3018": 3,
        "3019": 173,
        "3020": 200,
        "3021": 110,
        "3022": 74,
        "3023": 119,
        "3024": 112,
        "3025": 187,
        "3026": 26,
        "3027": 124,
        "3028": 115,
        "3029": 52,
        "3030": 194,
        "3031": 168,
        "3032": 181,
        "3033": 62,
        "3034": 27,
        "3035": 147,
        "3036": 75,
        "3037": 89,
        "3038": 28,
        "3039": 97,
        "3040": 62,
        "3041": 14,
        "3042": 173,
        "3043": 109,
        "3044": 112,
        "3045": 223,
        "3046": 222,
        "3047": 54,
        "3048": 235,
        "3049": 101,
        "3050": 102,
        "3051": 157,
        "3052": 182,
        "3053": 182,
        "3054": 27,
        "3055": 119,
        "3056": 158,
        "3057": 228,
        "3058": 80,
        "3059": 35,
        "3060": 72,
        "3061": 108,
        "3062": 175,
        "3063": 162,
        "3064": 5,
        "3065": 29,
        "3066": 81,
        "3067": 44,
        "3068": 197,
        "3069": 38,
        "3070": 99,
        "3071": 107,
        "3072": 133,
        "3073": 150,
        "3074": 203,
        "3075": 250,
        "3076": 7,
        "3077": 86,
        "3078": 47,
        "3079": 183,
        "3080": 25,
        "3081": 172,
        "3082": 24,
        "3083": 221,
        "3084": 149,
        "3085": 81,
        "3086": 161,
        "3087": 90,
        "3088": 89,
        "3089": 223,
        "3090": 226,
        "3091": 58,
        "3092": 158,
        "3093": 136,
        "3094": 142,
        "3095": 211,
        "3096": 191,
        "3097": 74,
        "3098": 149,
        "3099": 20,
        "3100": 152,
        "3101": 198,
        "3102": 121,
        "3103": 41,
        "3104": 215,
        "3105": 88,
        "3106": 251,
        "3107": 131,
        "3108": 174,
        "3109": 163,
        "3110": 237,
        "3111": 12,
        "3112": 125,
        "3113": 213,
        "3114": 147,
        "3115": 225,
        "3116": 232,
        "3117": 107,
        "3118": 220,
        "3119": 221,
        "3120": 242,
        "3121": 226,
        "3122": 223,
        "3123": 104,
        "3124": 138,
        "3125": 52,
        "3126": 20,
        "3127": 25,
        "3128": 114,
        "3129": 19,
        "3130": 147,
        "3131": 70,
        "3132": 188,
        "3133": 180,
        "3134": 113,
        "3135": 70,
        "3136": 64,
        "3137": 90,
        "3138": 135,
        "3139": 196,
        "3140": 233,
        "3141": 1,
        "3142": 56,
        "3143": 37,
        "3144": 237,
        "3145": 144,
        "3146": 120,
        "3147": 228,
        "3148": 130,
        "3149": 185,
        "3150": 42,
        "3151": 133,
        "3152": 64,
        "3153": 63,
        "3154": 225,
        "3155": 77,
        "3156": 34,
        "3157": 232,
        "3158": 55,
        "3159": 22,
        "3160": 2,
        "3161": 147,
        "3162": 142,
        "3163": 169,
        "3164": 180,
        "3165": 116,
        "3166": 171,
        "3167": 136,
        "3168": 197,
        "3169": 88,
        "3170": 87,
        "3171": 139,
        "3172": 196,
        "3173": 77,
        "3174": 80,
        "3175": 117,
        "3176": 227,
        "3177": 46,
        "3178": 126,
        "3179": 138,
        "3180": 124,
        "3181": 90,
        "3182": 102,
        "3183": 144,
        "3184": 224,
        "3185": 78,
        "3186": 154,
        "3187": 148,
        "3188": 184,
        "3189": 140,
        "3190": 121,
        "3191": 243,
        "3192": 190,
        "3193": 78,
        "3194": 99,
        "3195": 189,
        "3196": 42,
        "3197": 45,
        "3198": 233,
        "3199": 176,
        "3200": 92,
        "3201": 192,
        "3202": 55,
        "3203": 20,
        "3204": 71,
        "3205": 135,
        "3206": 153,
        "3207": 63,
        "3208": 124,
        "3209": 119,
        "3210": 21,
        "3211": 206,
        "3212": 36,
        "3213": 95,
        "3214": 61,
        "3215": 229,
        "3216": 205,
        "3217": 97,
        "3218": 138,
        "3219": 189,
        "3220": 9,
        "3221": 180,
        "3222": 83,
        "3223": 14,
        "3224": 97,
        "3225": 7,
        "3226": 31,
        "3227": 1,
        "3228": 25,
        "3229": 202,
        "3230": 60,
        "3231": 126,
        "3232": 247,
        "3233": 17,
        "3234": 205,
        "3235": 60,
        "3236": 114,
        "3237": 67,
        "3238": 197,
        "3239": 76,
        "3240": 169,
        "3241": 242,
        "3242": 221,
        "3243": 83,
        "3244": 154,
        "3245": 136,
        "3246": 79,
        "3247": 55,
        "3248": 117,
        "3249": 220,
        "3250": 219,
        "3251": 155,
        "3252": 24,
        "3253": 53,
        "3254": 52,
        "3255": 62,
        "3256": 221,
        "3257": 55,
        "3258": 82,
        "3259": 32,
        "3260": 208,
        "3261": 166,
        "3262": 172,
        "3263": 90,
        "3264": 182,
        "3265": 222,
        "3266": 165,
        "3267": 97,
        "3268": 182,
        "3269": 161,
        "3270": 69,
        "3271": 100,
        "3272": 250,
        "3273": 32,
        "3274": 172,
        "3275": 225,
        "3276": 230,
        "3277": 67,
        "3278": 197,
        "3279": 153,
        "3280": 204,
        "3281": 157,
        "3282": 140,
        "3283": 73,
        "3284": 255,
        "3285": 209,
        "3286": 226,
        "3287": 98,
        "3288": 227,
        "3289": 234,
        "3290": 20,
        "3291": 25,
        "3292": 83,
        "3293": 170,
        "3294": 229,
        "3295": 16,
        "3296": 109,
        "3297": 165,
        "3298": 202,
        "3299": 71,
        "3300": 150,
        "3301": 224,
        "3302": 142,
        "3303": 80,
        "3304": 197,
        "3305": 214,
        "3306": 218,
        "3307": 15,
        "3308": 181,
        "3309": 67,
        "3310": 62,
        "3311": 214,
        "3312": 227,
        "3313": 132,
        "3314": 51,
        "3315": 29,
        "3316": 64,
        "3317": 55,
        "3318": 136,
        "3319": 19,
        "3320": 195,
        "3321": 206,
        "3322": 102,
        "3323": 188,
        "3324": 54,
        "3325": 121,
        "3326": 24,
        "3327": 188,
        "3328": 196,
        "3329": 171,
        "3330": 207,
        "3331": 118,
        "3332": 30,
        "3333": 191,
        "3334": 8,
        "3335": 8,
        "3336": 56,
        "3337": 126,
        "3338": 5,
        "3339": 70,
        "3340": 76,
        "3341": 66,
        "3342": 1,
        "3343": 66,
        "3344": 179,
        "3345": 221,
        "3346": 33,
        "3347": 235,
        "3348": 173,
        "3349": 103,
        "3350": 38,
        "3351": 55,
        "3352": 122,
        "3353": 158,
        "3354": 245,
        "3355": 168,
        "3356": 188,
        "3357": 80,
        "3358": 103,
        "3359": 26,
        "3360": 243,
        "3361": 49,
        "3362": 32,
        "3363": 167,
        "3364": 97,
        "3365": 248,
        "3366": 34,
        "3367": 70,
        "3368": 190,
        "3369": 75,
        "3370": 114,
        "3371": 51,
        "3372": 1,
        "3373": 220,
        "3374": 45,
        "3375": 65,
        "3376": 179,
        "3377": 169,
        "3378": 241,
        "3379": 9,
        "3380": 133,
        "3381": 1,
        "3382": 91,
        "3383": 126,
        "3384": 226,
        "3385": 23,
        "3386": 101,
        "3387": 179,
        "3388": 64,
        "3389": 163,
        "3390": 179,
        "3391": 222,
        "3392": 108,
        "3393": 205,
        "3394": 30,
        "3395": 201,
        "3396": 124,
        "3397": 8,
        "3398": 55,
        "3399": 117,
        "3400": 249,
        "3401": 108,
        "3402": 126,
        "3403": 152,
        "3404": 185,
        "3405": 251,
        "3406": 53,
        "3407": 7,
        "3408": 99,
        "3409": 145,
        "3410": 103,
        "3411": 9,
        "3412": 85,
        "3413": 161,
        "3414": 74,
        "3415": 81,
        "3416": 14,
        "3417": 149,
        "3418": 162,
        "3419": 185,
        "3420": 189,
        "3421": 168,
        "3422": 248,
        "3423": 62,
        "3424": 151,
        "3425": 22,
        "3426": 101,
        "3427": 124,
        "3428": 65,
        "3429": 221,
        "3430": 100,
        "3431": 221,
        "3432": 109,
        "3433": 243,
        "3434": 212,
        "3435": 128,
        "3436": 36,
        "3437": 72,
        "3438": 255,
        "3439": 128,
        "3440": 8,
        "3441": 14,
        "3442": 143,
        "3443": 63,
        "3444": 129,
        "3445": 182,
        "3446": 195,
        "3447": 45,
        "3448": 205,
        "3449": 213,
        "3450": 4,
        "3451": 161,
        "3452": 142,
        "3453": 44,
        "3454": 56,
        "3455": 178,
        "3456": 206,
        "3457": 84,
        "3458": 252,
        "3459": 141,
        "3460": 142,
        "3461": 55,
        "3462": 0,
        "3463": 130,
        "3464": 212,
        "3465": 176,
        "3466": 194,
        "3467": 32,
        "3468": 4,
        "3469": 82,
        "3470": 226,
        "3471": 136,
        "3472": 180,
        "3473": 116,
        "3474": 251,
        "3475": 79,
        "3476": 173,
        "3477": 144,
        "3478": 124,
        "3479": 20,
        "3480": 5,
        "3481": 212,
        "3482": 250,
        "3483": 198,
        "3484": 53,
        "3485": 44,
        "3486": 138,
        "3487": 19,
        "3488": 52,
        "3489": 171,
        "3490": 57,
        "3491": 241,
        "3492": 145,
        "3493": 81,
        "3494": 226,
        "3495": 80,
        "3496": 127,
        "3497": 228,
        "3498": 242,
        "3499": 168,
        "3500": 214,
        "3501": 224,
        "3502": 211,
        "3503": 71,
        "3504": 52,
        "3505": 129,
        "3506": 16,
        "3507": 157,
        "3508": 91,
        "3509": 172,
        "3510": 243,
        "3511": 3,
        "3512": 21,
        "3513": 154,
        "3514": 112,
        "3515": 157,
        "3516": 242,
        "3517": 79,
        "3518": 163,
        "3519": 28,
        "3520": 144,
        "3521": 32,
        "3522": 248,
        "3523": 86,
        "3524": 36,
        "3525": 128,
        "3526": 49,
        "3527": 236,
        "3528": 153,
        "3529": 16,
        "3530": 253,
        "3531": 101,
        "3532": 6,
        "3533": 145,
        "3534": 186,
        "3535": 30,
        "3536": 42,
        "3537": 32,
        "3538": 176,
        "3539": 10,
        "3540": 147,
        "3541": 229,
        "3542": 202,
        "3543": 94,
        "3544": 133,
        "3545": 103,
        "3546": 244,
        "3547": 190,
        "3548": 196,
        "3549": 241,
        "3550": 92,
        "3551": 248,
        "3552": 251,
        "3553": 69,
        "3554": 228,
        "3555": 31,
        "3556": 193,
        "3557": 10,
        "3558": 92,
        "3559": 5,
        "3560": 208,
        "3561": 157,
        "3562": 92,
        "3563": 244,
        "3564": 189,
        "3565": 89,
        "3566": 138,
        "3567": 188,
        "3568": 71,
        "3569": 69,
        "3570": 107,
        "3571": 111,
        "3572": 29,
        "3573": 212,
        "3574": 97,
        "3575": 22,
        "3576": 55,
        "3577": 31,
        "3578": 1,
        "3579": 141,
        "3580": 122,
        "3581": 51,
        "3582": 174,
        "3583": 159,
        "3584": 149,
        "3585": 166,
        "3586": 236,
        "3587": 229,
        "3588": 16,
        "3589": 191,
        "3590": 118,
        "3591": 45,
        "3592": 67,
        "3593": 67,
        "3594": 127,
        "3595": 158,
        "3596": 99,
        "3597": 242,
        "3598": 178,
        "3599": 218,
        "3600": 25,
        "3601": 154,
        "3602": 125,
        "3603": 170,
        "3604": 209,
        "3605": 42,
        "3606": 212,
        "3607": 48,
        "3608": 160,
        "3609": 127,
        "3610": 107,
        "3611": 83,
        "3612": 119,
        "3613": 91,
        "3614": 53,
        "3615": 184,
        "3616": 134,
        "3617": 253,
        "3618": 98,
        "3619": 249,
        "3620": 155,
        "3621": 156,
        "3622": 13,
        "3623": 17,
        "3624": 81,
        "3625": 219,
        "3626": 190,
        "3627": 82,
        "3628": 130,
        "3629": 115,
        "3630": 136,
        "3631": 75,
        "3632": 138,
        "3633": 21,
        "3634": 33,
        "3635": 78,
        "3636": 251,
        "3637": 85,
        "3638": 178,
        "3639": 98,
        "3640": 34,
        "3641": 248,
        "3642": 67,
        "3643": 226,
        "3644": 233,
        "3645": 167,
        "3646": 154,
        "3647": 48,
        "3648": 117,
        "3649": 158,
        "3650": 182,
        "3651": 70,
        "3652": 117,
        "3653": 210,
        "3654": 192,
        "3655": 77,
        "3656": 210,
        "3657": 208,
        "3658": 67,
        "3659": 136,
        "3660": 151,
        "3661": 92,
        "3662": 64,
        "3663": 105,
        "3664": 65,
        "3665": 136,
        "3666": 135,
        "3667": 136,
        "3668": 40,
        "3669": 18,
        "3670": 216,
        "3671": 188,
        "3672": 222,
        "3673": 54,
        "3674": 190,
        "3675": 174,
        "3676": 117,
        "3677": 211,
        "3678": 61,
        "3679": 165,
        "3680": 251,
        "3681": 13,
        "3682": 124,
        "3683": 79,
        "3684": 98,
        "3685": 57,
        "3686": 128,
        "3687": 6,
        "3688": 54,
        "3689": 45,
        "3690": 135,
        "3691": 108,
        "3692": 22,
        "3693": 233,
        "3694": 34,
        "3695": 173,
        "3696": 105,
        "3697": 140,
        "3698": 200,
        "3699": 137,
        "3700": 107,
        "3701": 193,
        "3702": 34,
        "3703": 8,
        "3704": 115,
        "3705": 123,
        "3706": 143,
        "3707": 33,
        "3708": 201,
        "3709": 138,
        "3710": 227,
        "3711": 14,
        "3712": 65,
        "3713": 183,
        "3714": 136,
        "3715": 148,
        "3716": 23,
        "3717": 153,
        "3718": 235,
        "3719": 222,
        "3720": 239,
        "3721": 187,
        "3722": 139,
        "3723": 65,
        "3724": 129,
        "3725": 244,
        "3726": 228,
        "3727": 101,
        "3728": 218,
        "3729": 28,
        "3730": 245,
        "3731": 146,
        "3732": 200,
        "3733": 71,
        "3734": 230,
        "3735": 179,
        "3736": 23,
        "3737": 31,
        "3738": 207,
        "3739": 250,
        "3740": 70,
        "3741": 160,
        "3742": 154,
        "3743": 230,
        "3744": 80,
        "3745": 89,
        "3746": 20,
        "3747": 55,
        "3748": 238,
        "3749": 139,
        "3750": 75,
        "3751": 67,
        "3752": 221,
        "3753": 111,
        "3754": 22,
        "3755": 153,
        "3756": 217,
        "3757": 183,
        "3758": 65,
        "3759": 164,
        "3760": 168,
        "3761": 137,
        "3762": 209,
        "3763": 72,
        "3764": 97,
        "3765": 79,
        "3766": 167,
        "3767": 251,
        "3768": 130,
        "3769": 43,
        "3770": 137,
        "3771": 43,
        "3772": 220,
        "3773": 61,
        "3774": 40,
        "3775": 204,
        "3776": 33,
        "3777": 223,
        "3778": 154,
        "3779": 238,
        "3780": 52,
        "3781": 190,
        "3782": 15,
        "3783": 81,
        "3784": 115,
        "3785": 188,
        "3786": 254,
        "3787": 71,
        "3788": 190,
        "3789": 175,
        "3790": 24,
        "3791": 225,
        "3792": 41,
        "3793": 47,
        "3794": 220,
        "3795": 13,
        "3796": 63,
        "3797": 54,
        "3798": 57,
        "3799": 40,
        "3800": 7,
        "3801": 250,
        "3802": 195,
        "3803": 74,
        "3804": 199,
        "3805": 71,
        "3806": 31,
        "3807": 195,
        "3808": 90,
        "3809": 19,
        "3810": 33,
        "3811": 17,
        "3812": 89,
        "3813": 220,
        "3814": 191,
        "3815": 11,
        "3816": 48,
        "3817": 158,
        "3818": 176,
        "3819": 59,
        "3820": 249,
        "3821": 94,
        "3822": 187,
        "3823": 62,
        "3824": 220,
        "3825": 244,
        "3826": 83,
        "3827": 220,
        "3828": 158,
        "3829": 143,
        "3830": 76,
        "3831": 141,
        "3832": 82,
        "3833": 102,
        "3834": 33,
        "3835": 113,
        "3836": 246,
        "3837": 42,
        "3838": 223,
        "3839": 206,
        "3840": 51,
        "3841": 68,
        "3842": 138,
        "3843": 216,
        "3844": 3,
        "3845": 102,
        "3846": 201,
        "3847": 217,
        "3848": 28,
        "3849": 18,
        "3850": 213,
        "3851": 139,
        "3852": 5,
        "3853": 124,
        "3854": 72,
        "3855": 183,
        "3856": 122,
        "3857": 188,
        "3858": 7,
        "3859": 68,
        "3860": 97,
        "3861": 189,
        "3862": 248,
        "3863": 208,
        "3864": 100,
        "3865": 3,
        "3866": 118,
        "3867": 166,
        "3868": 92,
        "3869": 57,
        "3870": 133,
        "3871": 188,
        "3872": 69,
        "3873": 148,
        "3874": 102,
        "3875": 47,
        "3876": 175,
        "3877": 215,
        "3878": 21,
        "3879": 155,
        "3880": 6,
        "3881": 214,
        "3882": 173,
        "3883": 93,
        "3884": 112,
        "3885": 236,
        "3886": 180,
        "3887": 222,
        "3888": 27,
        "3889": 246,
        "3890": 182,
        "3891": 86,
        "3892": 252,
        "3893": 39,
        "3894": 201,
        "3895": 61,
        "3896": 7,
        "3897": 88,
        "3898": 58,
        "3899": 149,
        "3900": 2,
        "3901": 77,
        "3902": 30,
        "3903": 35,
        "3904": 83,
        "3905": 173,
        "3906": 0,
        "3907": 124,
        "3908": 180,
        "3909": 168,
        "3910": 66,
        "3911": 241,
        "3912": 128,
        "3913": 92,
        "3914": 19,
        "3915": 138,
        "3916": 202,
        "3917": 175,
        "3918": 14,
        "3919": 152,
        "3920": 200,
        "3921": 133,
        "3922": 196,
        "3923": 154,
        "3924": 115,
        "3925": 71,
        "3926": 148,
        "3927": 185,
        "3928": 90,
        "3929": 64,
        "3930": 27,
        "3931": 142,
        "3932": 64,
        "3933": 24,
        "3934": 180,
        "3935": 194,
        "3936": 109,
        "3937": 132,
        "3938": 196,
        "3939": 101,
        "3940": 47,
        "3941": 5,
        "3942": 131,
        "3943": 117,
        "3944": 206,
        "3945": 109,
        "3946": 199,
        "3947": 20,
        "3948": 196,
        "3949": 140,
        "3950": 172,
        "3951": 106,
        "3952": 6,
        "3953": 74,
        "3954": 227,
        "3955": 190,
        "3956": 176,
        "3957": 170,
        "3958": 249,
        "3959": 97,
        "3960": 34,
        "3961": 161,
        "3962": 98,
        "3963": 193,
        "3964": 117,
        "3965": 76,
        "3966": 27,
        "3967": 145,
        "3968": 125,
        "3969": 215,
        "3970": 154,
        "3971": 43,
        "3972": 148,
        "3973": 187,
        "3974": 125,
        "3975": 222,
        "3976": 85,
        "3977": 95,
        "3978": 158,
        "3979": 88,
        "3980": 193,
        "3981": 123,
        "3982": 30,
        "3983": 161,
        "3984": 11,
        "3985": 30,
        "3986": 106,
        "3987": 143,
        "3988": 168,
        "3989": 81,
        "3990": 253,
        "3991": 81,
        "3992": 59,
        "3993": 129,
        "3994": 65,
        "3995": 0,
        "3996": 218,
        "3997": 131,
        "3998": 238,
        "3999": 155,
        "4000": 236,
        "4001": 17,
        "4002": 162,
        "4003": 202,
        "4004": 192,
        "4005": 114,
        "4006": 10,
        "4007": 163,
        "4008": 117,
        "4009": 52,
        "4010": 181,
        "4011": 111,
        "4012": 36,
        "4013": 170,
        "4014": 110,
        "4015": 147,
        "4016": 7,
        "4017": 43,
        "4018": 248,
        "4019": 83,
        "4020": 30,
        "4021": 219,
        "4022": 47,
        "4023": 60,
        "4024": 240,
        "4025": 230,
        "4026": 131,
        "4027": 174,
        "4028": 244,
        "4029": 12,
        "4030": 251,
        "4031": 67,
        "4032": 102,
        "4033": 2,
        "4034": 213,
        "4035": 79,
        "4036": 23,
        "4037": 123,
        "4038": 224,
        "4039": 154,
        "4040": 23,
        "4041": 220,
        "4042": 85,
        "4043": 245,
        "4044": 154,
        "4045": 32,
        "4046": 240,
        "4047": 62,
        "4048": 61,
        "4049": 197,
        "4050": 150,
        "4051": 170,
        "4052": 86,
        "4053": 160,
        "4054": 102,
        "4055": 80,
        "4056": 80,
        "4057": 78,
        "4058": 166,
        "4059": 7,
        "4060": 50,
        "4061": 71,
        "4062": 213,
        "4063": 167,
        "4064": 243,
        "4065": 64,
        "4066": 169,
        "4067": 89,
        "4068": 77,
        "4069": 36,
        "4070": 82,
        "4071": 74,
        "4072": 94,
        "4073": 137,
        "4074": 177,
        "4075": 54,
        "4076": 139,
        "4077": 195,
        "4078": 59,
        "4079": 204,
        "4080": 160,
        "4081": 129,
        "4082": 188,
        "4083": 109,
        "4084": 217,
        "4085": 14,
        "4086": 50,
        "4087": 27,
        "4088": 128,
        "4089": 112,
        "4090": 13,
        "4091": 158,
        "4092": 141,
        "4093": 124,
        "4094": 101,
        "4095": 181,
        "4096": 166,
        "4097": 187,
        "4098": 135,
        "4099": 21,
        "4100": 155,
        "4101": 1,
        "4102": 193,
        "4103": 115,
        "4104": 175,
        "4105": 110,
        "4106": 62,
        "4107": 223,
        "4108": 66,
        "4109": 97,
        "4110": 203,
        "4111": 97,
        "4112": 174,
        "4113": 76,
        "4114": 227,
        "4115": 37,
        "4116": 5,
        "4117": 209,
        "4118": 73,
        "4119": 23,
        "4120": 159,
        "4121": 181,
        "4122": 38,
        "4123": 64,
        "4124": 213,
        "4125": 116,
        "4126": 152,
        "4127": 143,
        "4128": 115,
        "4129": 164,
        "4130": 60,
        "4131": 209,
        "4132": 201,
        "4133": 43,
        "4134": 236,
        "4135": 43,
        "4136": 21,
        "4137": 11,
        "4138": 13,
        "4139": 77,
        "4140": 116,
        "4141": 98,
        "4142": 120,
        "4143": 82,
        "4144": 252,
        "4145": 196,
        "4146": 3,
        "4147": 90,
        "4148": 4,
        "4149": 54,
        "4150": 57,
        "4151": 96,
        "4152": 181,
        "4153": 8,
        "4154": 200,
        "4155": 225,
        "4156": 86,
        "4157": 15,
        "4158": 87,
        "4159": 179,
        "4160": 232,
        "4161": 142,
        "4162": 197,
        "4163": 143,
        "4164": 66,
        "4165": 96,
        "4166": 35,
        "4167": 243,
        "4168": 253,
        "4169": 229,
        "4170": 131,
        "4171": 185,
        "4172": 29,
        "4173": 167,
        "4174": 124,
        "4175": 53,
        "4176": 229,
        "4177": 247,
        "4178": 104,
        "4179": 104,
        "4180": 110,
        "4181": 27,
        "4182": 14,
        "4183": 83,
        "4184": 232,
        "4185": 227,
        "4186": 160,
        "4187": 141,
        "4188": 42,
        "4189": 221,
        "4190": 186,
        "4191": 134,
        "4192": 181,
        "4193": 29,
        "4194": 103,
        "4195": 48,
        "4196": 55,
        "4197": 215,
        "4198": 119,
        "4199": 13,
        "4200": 194,
        "4201": 128,
        "4202": 147,
        "4203": 121,
        "4204": 170,
        "4205": 116,
        "4206": 100,
        "4207": 72,
        "4208": 29,
        "4209": 227,
        "4210": 219,
        "4211": 205,
        "4212": 107,
        "4213": 114,
        "4214": 91,
        "4215": 97,
        "4216": 241,
        "4217": 213,
        "4218": 27,
        "4219": 94,
        "4220": 191,
        "4221": 254,
        "4222": 204,
        "4223": 104,
        "4224": 191,
        "4225": 160,
        "4226": 118,
        "4227": 48,
        "4228": 180,
        "4229": 37,
        "4230": 115,
        "4231": 136,
        "4232": 73,
        "4233": 202,
        "4234": 214,
        "4235": 244,
        "4236": 7,
        "4237": 21,
        "4238": 143,
        "4239": 104,
        "4240": 216,
        "4241": 24,
        "4242": 3,
        "4243": 53,
        "4244": 206,
        "4245": 56,
        "4246": 156,
        "4247": 61,
        "4248": 119,
        "4249": 79,
        "4250": 4,
        "4251": 194,
        "4252": 243,
        "4253": 236,
        "4254": 135,
        "4255": 50,
        "4256": 175,
        "4257": 254,
        "4258": 132,
        "4259": 223,
        "4260": 243,
        "4261": 115,
        "4262": 190,
        "4263": 33,
        "4264": 83,
        "4265": 195,
        "4266": 62,
        "4267": 133,
        "4268": 158,
        "4269": 23,
        "4270": 52,
        "4271": 105,
        "4272": 187,
        "4273": 185,
        "4274": 47,
        "4275": 33,
        "4276": 227,
        "4277": 244,
        "4278": 245,
        "4279": 254,
        "4280": 0,
        "4281": 105,
        "4282": 161,
        "4283": 222,
        "4284": 57,
        "4285": 127,
        "4286": 180,
        "4287": 209,
        "4288": 195,
        "4289": 60,
        "4290": 85,
        "4291": 254,
        "4292": 59,
        "4293": 82,
        "4294": 246,
        "4295": 172,
        "4296": 48,
        "4297": 124,
        "4298": 137,
        "4299": 37,
        "4300": 241,
        "4301": 54,
        "4302": 48,
        "4303": 9,
        "4304": 50,
        "4305": 40,
        "4306": 181,
        "4307": 215,
        "4308": 240,
        "4309": 66,
        "4310": 181,
        "4311": 76,
        "4312": 73,
        "4313": 217,
        "4314": 119,
        "4315": 219,
        "4316": 196,
        "4317": 242,
        "4318": 176,
        "4319": 71,
        "4320": 58,
        "4321": 242,
        "4322": 255,
        "4323": 105,
        "4324": 231,
        "4325": 113,
        "4326": 179,
        "4327": 47,
        "4328": 132,
        "4329": 148,
        "4330": 105,
        "4331": 49,
        "4332": 93,
        "4333": 217,
        "4334": 178,
        "4335": 53,
        "4336": 95,
        "4337": 145,
        "4338": 203,
        "4339": 226,
        "4340": 155,
        "4341": 14,
        "4342": 198,
        "4343": 194,
        "4344": 213,
        "4345": 3,
        "4346": 5,
        "4347": 119,
        "4348": 225,
        "4349": 230,
        "4350": 172,
        "4351": 101,
        "4352": 202,
        "4353": 40,
        "4354": 44,
        "4355": 236,
        "4356": 225,
        "4357": 117,
        "4358": 246,
        "4359": 34,
        "4360": 63,
        "4361": 84,
        "4362": 116,
        "4363": 156,
        "4364": 75,
        "4365": 81,
        "4366": 210,
        "4367": 35,
        "4368": 48,
        "4369": 234,
        "4370": 199,
        "4371": 251,
        "4372": 17,
        "4373": 88,
        "4374": 214,
        "4375": 103,
        "4376": 70,
        "4377": 171,
        "4378": 95,
        "4379": 202,
        "4380": 142,
        "4381": 7,
        "4382": 19,
        "4383": 93,
        "4384": 24,
        "4385": 163,
        "4386": 143,
        "4387": 231,
        "4388": 227,
        "4389": 69,
        "4390": 255,
        "4391": 34,
        "4392": 0,
        "4393": 183,
        "4394": 219,
        "4395": 210,
        "4396": 74,
        "4397": 16,
        "4398": 97,
        "4399": 130,
        "4400": 30,
        "4401": 94,
        "4402": 108,
        "4403": 76,
        "4404": 208,
        "4405": 158,
        "4406": 130,
        "4407": 209,
        "4408": 78,
        "4409": 159,
        "4410": 60,
        "4411": 221,
        "4412": 140,
        "4413": 67,
        "4414": 26,
        "4415": 50,
        "4416": 122,
        "4417": 227,
        "4418": 85,
        "4419": 93,
        "4420": 240,
        "4421": 107,
        "4422": 144,
        "4423": 148,
        "4424": 204,
        "4425": 27,
        "4426": 4,
        "4427": 12,
        "4428": 192,
        "4429": 130,
        "4430": 120,
        "4431": 125,
        "4432": 40,
        "4433": 177,
        "4434": 225,
        "4435": 134,
        "4436": 94,
        "4437": 157,
        "4438": 111,
        "4439": 107,
        "4440": 90,
        "4441": 105,
        "4442": 91,
        "4443": 114,
        "4444": 101,
        "4445": 125,
        "4446": 59,
        "4447": 221,
        "4448": 194,
        "4449": 68,
        "4450": 255,
        "4451": 25,
        "4452": 60,
        "4453": 64,
        "4454": 192,
        "4455": 237,
        "4456": 112,
        "4457": 112,
        "4458": 137,
        "4459": 89,
        "4460": 149,
        "4461": 121,
        "4462": 218,
        "4463": 164,
        "4464": 11,
        "4465": 159,
        "4466": 225,
        "4467": 133,
        "4468": 82,
        "4469": 217,
        "4470": 220,
        "4471": 227,
        "4472": 162,
        "4473": 107,
        "4474": 83,
        "4475": 226,
        "4476": 253,
        "4477": 20,
        "4478": 50,
        "4479": 225,
        "4480": 62,
        "4481": 17,
        "4482": 241,
        "4483": 14,
        "4484": 133,
        "4485": 203,
        "4486": 24,
        "4487": 8,
        "4488": 165,
        "4489": 102,
        "4490": 221,
        "4491": 231,
        "4492": 128,
        "4493": 220,
        "4494": 41,
        "4495": 45,
        "4496": 213,
        "4497": 49,
        "4498": 79,
        "4499": 233,
        "4500": 251,
        "4501": 249,
        "4502": 100,
        "4503": 189,
        "4504": 251,
        "4505": 223,
        "4506": 41,
        "4507": 79,
        "4508": 116,
        "4509": 232,
        "4510": 56,
        "4511": 229,
        "4512": 9,
        "4513": 111,
        "4514": 42,
        "4515": 2,
        "4516": 15,
        "4517": 152,
        "4518": 69,
        "4519": 202,
        "4520": 29,
        "4521": 29,
        "4522": 84,
        "4523": 153,
        "4524": 125,
        "4525": 191,
        "4526": 35,
        "4527": 173,
        "4528": 133,
        "4529": 50,
        "4530": 158,
        "4531": 129,
        "4532": 28,
        "4533": 135,
        "4534": 86,
        "4535": 150,
        "4536": 205,
        "4537": 37,
        "4538": 203,
        "4539": 164,
        "4540": 175,
        "4541": 78,
        "4542": 171,
        "4543": 97,
        "4544": 104,
        "4545": 199,
        "4546": 204,
        "4547": 221,
        "4548": 119,
        "4549": 29,
        "4550": 81,
        "4551": 67,
        "4552": 19,
        "4553": 131,
        "4554": 63,
        "4555": 122,
        "4556": 254,
        "4557": 135,
        "4558": 26,
        "4559": 194,
        "4560": 108,
        "4561": 204,
        "4562": 157,
        "4563": 187,
        "4564": 6,
        "4565": 225,
        "4566": 183,
        "4567": 26,
        "4568": 48,
        "4569": 171,
        "4570": 246,
        "4571": 221,
        "4572": 108,
        "4573": 222,
        "4574": 160,
        "4575": 150,
        "4576": 136,
        "4577": 74,
        "4578": 247,
        "4579": 31,
        "4580": 80,
        "4581": 30,
        "4582": 64,
        "4583": 89,
        "4584": 211,
        "4585": 157,
        "4586": 175,
        "4587": 22,
        "4588": 54,
        "4589": 205,
        "4590": 133,
        "4591": 107,
        "4592": 128,
        "4593": 63,
        "4594": 236,
        "4595": 162,
        "4596": 180,
        "4597": 174,
        "4598": 217,
        "4599": 16,
        "4600": 3,
        "4601": 210,
        "4602": 214,
        "4603": 140,
        "4604": 63,
        "4605": 63,
        "4606": 39,
        "4607": 124,
        "4608": 33,
        "4609": 32,
        "4610": 9,
        "4611": 117,
        "4612": 191,
        "4613": 130,
        "4614": 80,
        "4615": 148,
        "4616": 162,
        "4617": 73,
        "4618": 188,
        "4619": 219,
        "4620": 245,
        "4621": 229,
        "4622": 176,
        "4623": 3,
        "4624": 228,
        "4625": 100,
        "4626": 230,
        "4627": 223,
        "4628": 73,
        "4629": 50,
        "4630": 78,
        "4631": 212,
        "4632": 62,
        "4633": 218,
        "4634": 142,
        "4635": 241,
        "4636": 212,
        "4637": 172,
        "4638": 233,
        "4639": 229,
        "4640": 245,
        "4641": 12,
        "4642": 55,
        "4643": 134,
        "4644": 116,
        "4645": 161,
        "4646": 65,
        "4647": 90,
        "4648": 227,
        "4649": 39,
        "4650": 100,
        "4651": 70,
        "4652": 62,
        "4653": 31,
        "4654": 7,
        "4655": 1,
        "4656": 224,
        "4657": 234,
        "4658": 152,
        "4659": 12,
        "4660": 226,
        "4661": 85,
        "4662": 15,
        "4663": 248,
        "4664": 105,
        "4665": 191,
        "4666": 59,
        "4667": 200,
        "4668": 85,
        "4669": 225,
        "4670": 205,
        "4671": 231,
        "4672": 166,
        "4673": 122,
        "4674": 87,
        "4675": 209,
        "4676": 164,
        "4677": 24,
        "4678": 165,
        "4679": 180,
        "4680": 96,
        "4681": 88,
        "4682": 246,
        "4683": 91,
        "4684": 79,
        "4685": 44,
        "4686": 130,
        "4687": 249,
        "4688": 241,
        "4689": 2,
        "4690": 153,
        "4691": 175,
        "4692": 179,
        "4693": 194,
        "4694": 96,
        "4695": 18,
        "4696": 74,
        "4697": 177,
        "4698": 162,
        "4699": 213,
        "4700": 68,
        "4701": 124,
        "4702": 138,
        "4703": 30,
        "4704": 57,
        "4705": 70,
        "4706": 233,
        "4707": 153,
        "4708": 229,
        "4709": 249,
        "4710": 17,
        "4711": 167,
        "4712": 224,
        "4713": 16,
        "4714": 27,
        "4715": 94,
        "4716": 156,
        "4717": 210,
        "4718": 205,
        "4719": 224,
        "4720": 201,
        "4721": 228,
        "4722": 232,
        "4723": 46,
        "4724": 205,
        "4725": 214,
        "4726": 123,
        "4727": 208,
        "4728": 198,
        "4729": 67,
        "4730": 206,
        "4731": 165,
        "4732": 96,
        "4733": 187,
        "4734": 150,
        "4735": 73,
        "4736": 11,
        "4737": 81,
        "4738": 201,
        "4739": 28,
        "4740": 131,
        "4741": 228,
        "4742": 78,
        "4743": 251,
        "4744": 228,
        "4745": 183,
        "4746": 193,
        "4747": 151,
        "4748": 65,
        "4749": 31,
        "4750": 110,
        "4751": 88,
        "4752": 233,
        "4753": 199,
        "4754": 53,
        "4755": 253,
        "4756": 133,
        "4757": 26,
        "4758": 253,
        "4759": 110,
        "4760": 117,
        "4761": 105,
        "4762": 57,
        "4763": 120,
        "4764": 84,
        "4765": 89,
        "4766": 162,
        "4767": 85,
        "4768": 63,
        "4769": 230,
        "4770": 218,
        "4771": 69,
        "4772": 76,
        "4773": 109,
        "4774": 183,
        "4775": 228,
        "4776": 140,
        "4777": 78,
        "4778": 207,
        "4779": 177,
        "4780": 59,
        "4781": 105,
        "4782": 20,
        "4783": 23,
        "4784": 63,
        "4785": 240,
        "4786": 169,
        "4787": 36,
        "4788": 67,
        "4789": 8,
        "4790": 50,
        "4791": 71,
        "4792": 184,
        "4793": 94,
        "4794": 103,
        "4795": 124,
        "4796": 97,
        "4797": 163,
        "4798": 26,
        "4799": 26,
        "4800": 139,
        "4801": 223,
        "4802": 97,
        "4803": 135,
        "4804": 98,
        "4805": 136,
        "4806": 108,
        "4807": 158,
        "4808": 182,
        "4809": 133,
        "4810": 244,
        "4811": 18,
        "4812": 254,
        "4813": 221,
        "4814": 236,
        "4815": 217,
        "4816": 35,
        "4817": 193,
        "4818": 97,
        "4819": 62,
        "4820": 31,
        "4821": 201,
        "4822": 64,
        "4823": 144,
        "4824": 236,
        "4825": 71,
        "4826": 185,
        "4827": 189,
        "4828": 42,
        "4829": 107,
        "4830": 27,
        "4831": 32,
        "4832": 126,
        "4833": 212,
        "4834": 14,
        "4835": 62,
        "4836": 182,
        "4837": 206,
        "4838": 188,
        "4839": 61,
        "4840": 76,
        "4841": 255,
        "4842": 251,
        "4843": 166,
        "4844": 178,
        "4845": 50,
        "4846": 169,
        "4847": 208,
        "4848": 119,
        "4849": 209,
        "4850": 136,
        "4851": 217,
        "4852": 39,
        "4853": 36,
        "4854": 96,
        "4855": 60,
        "4856": 218,
        "4857": 86,
        "4858": 187,
        "4859": 121,
        "4860": 206,
        "4861": 78,
        "4862": 193,
        "4863": 33,
        "4864": 30,
        "4865": 223,
        "4866": 142,
        "4867": 128,
        "4868": 55,
        "4869": 139,
        "4870": 188,
        "4871": 21,
        "4872": 237,
        "4873": 74,
        "4874": 185,
        "4875": 250,
        "4876": 186,
        "4877": 32,
        "4878": 189,
        "4879": 96,
        "4880": 104,
        "4881": 140,
        "4882": 0,
        "4883": 200,
        "4884": 166,
        "4885": 20,
        "4886": 254,
        "4887": 212,
        "4888": 164,
        "4889": 238,
        "4890": 222,
        "4891": 113,
        "4892": 124,
        "4893": 108,
        "4894": 17,
        "4895": 121,
        "4896": 171,
        "4897": 160,
        "4898": 127,
        "4899": 221,
        "4900": 173,
        "4901": 55,
        "4902": 12,
        "4903": 5,
        "4904": 17,
        "4905": 150,
        "4906": 188,
        "4907": 14,
        "4908": 46,
        "4909": 52,
        "4910": 180,
        "4911": 19,
        "4912": 100,
        "4913": 136,
        "4914": 234,
        "4915": 122,
        "4916": 84,
        "4917": 19,
        "4918": 220,
        "4919": 220,
        "4920": 106,
        "4921": 84,
        "4922": 102,
        "4923": 197,
        "4924": 33,
        "4925": 119,
        "4926": 193,
        "4927": 250,
        "4928": 109,
        "4929": 227,
        "4930": 161,
        "4931": 219,
        "4932": 217,
        "4933": 238,
        "4934": 248,
        "4935": 27,
        "4936": 187,
        "4937": 238,
        "4938": 80,
        "4939": 130,
        "4940": 160,
        "4941": 36,
        "4942": 183,
        "4943": 78,
        "4944": 127,
        "4945": 45,
        "4946": 33,
        "4947": 171,
        "4948": 66,
        "4949": 224,
        "4950": 144,
        "4951": 223,
        "4952": 192,
        "4953": 56,
        "4954": 206,
        "4955": 0,
        "4956": 125,
        "4957": 186,
        "4958": 110,
        "4959": 122,
        "4960": 184,
        "4961": 130,
        "4962": 36,
        "4963": 254,
        "4964": 187,
        "4965": 138,
        "4966": 136,
        "4967": 214,
        "4968": 209,
        "4969": 111,
        "4970": 48,
        "4971": 159,
        "4972": 118,
        "4973": 141,
        "4974": 133,
        "4975": 97,
        "4976": 45,
        "4977": 21,
        "4978": 54,
        "4979": 217,
        "4980": 148,
        "4981": 107,
        "4982": 241,
        "4983": 101,
        "4984": 166,
        "4985": 30,
        "4986": 12,
        "4987": 199,
        "4988": 213,
        "4989": 209,
        "4990": 157,
        "4991": 244,
        "4992": 252,
        "4993": 56,
        "4994": 76,
        "4995": 187,
        "4996": 198,
        "4997": 64,
        "4998": 59,
        "4999": 206,
        "5000": 69,
        "5001": 19,
        "5002": 199,
        "5003": 206,
        "5004": 2,
        "5005": 103,
        "5006": 108,
        "5007": 59,
        "5008": 169,
        "5009": 100,
        "5010": 104,
        "5011": 202,
        "5012": 48,
        "5013": 207,
        "5014": 82,
        "5015": 117,
        "5016": 4,
        "5017": 231,
        "5018": 69,
        "5019": 209,
        "5020": 73,
        "5021": 172,
        "5022": 28,
        "5023": 147,
        "5024": 186,
        "5025": 140,
        "5026": 131,
        "5027": 68,
        "5028": 91,
        "5029": 228,
        "5030": 153,
        "5031": 193,
        "5032": 244,
        "5033": 164,
        "5034": 239,
        "5035": 35,
        "5036": 21,
        "5037": 185,
        "5038": 18,
        "5039": 208,
        "5040": 245,
        "5041": 67,
        "5042": 222,
        "5043": 59,
        "5044": 44,
        "5045": 29,
        "5046": 236,
        "5047": 136,
        "5048": 155,
        "5049": 96,
        "5050": 125,
        "5051": 74,
        "5052": 110,
        "5053": 104,
        "5054": 46,
        "5055": 120,
        "5056": 135,
        "5057": 142,
        "5058": 192,
        "5059": 245,
        "5060": 9,
        "5061": 152,
        "5062": 252,
        "5063": 105,
        "5064": 114,
        "5065": 210,
        "5066": 52,
        "5067": 27,
        "5068": 132,
        "5069": 199,
        "5070": 48,
        "5071": 86,
        "5072": 93,
        "5073": 193,
        "5074": 46,
        "5075": 65,
        "5076": 198,
        "5077": 252,
        "5078": 204,
        "5079": 210,
        "5080": 44,
        "5081": 152,
        "5082": 81,
        "5083": 101,
        "5084": 103,
        "5085": 243,
        "5086": 42,
        "5087": 252,
        "5088": 80,
        "5089": 160,
        "5090": 159,
        "5091": 191,
        "5092": 231,
        "5093": 41,
        "5094": 96,
        "5095": 172,
        "5096": 92,
        "5097": 234,
        "5098": 186,
        "5099": 99,
        "5100": 25,
        "5101": 57,
        "5102": 20,
        "5103": 36,
        "5104": 203,
        "5105": 200,
        "5106": 90,
        "5107": 92,
        "5108": 145,
        "5109": 80,
        "5110": 173,
        "5111": 133,
        "5112": 152,
        "5113": 50,
        "5114": 26,
        "5115": 44,
        "5116": 142,
        "5117": 251,
        "5118": 136,
        "5119": 184,
        "5120": 213,
        "5121": 55,
        "5122": 251,
        "5123": 1,
        "5124": 109,
        "5125": 119,
        "5126": 5,
        "5127": 139,
        "5128": 209,
        "5129": 172,
        "5130": 7,
        "5131": 246,
        "5132": 232,
        "5133": 101,
        "5134": 42,
        "5135": 238,
        "5136": 121,
        "5137": 214,
        "5138": 242,
        "5139": 100,
        "5140": 170,
        "5141": 7,
        "5142": 176,
        "5143": 188,
        "5144": 151,
        "5145": 107,
        "5146": 34,
        "5147": 76,
        "5148": 67,
        "5149": 15,
        "5150": 49,
        "5151": 225,
        "5152": 1,
        "5153": 13,
        "5154": 120,
        "5155": 161,
        "5156": 172,
        "5157": 151,
        "5158": 85,
        "5159": 77,
        "5160": 160,
        "5161": 80,
        "5162": 153,
        "5163": 44,
        "5164": 198,
        "5165": 213,
        "5166": 33,
        "5167": 178,
        "5168": 246,
        "5169": 23,
        "5170": 76,
        "5171": 105,
        "5172": 219,
        "5173": 41,
        "5174": 159,
        "5175": 194,
        "5176": 236,
        "5177": 34,
        "5178": 63,
        "5179": 210,
        "5180": 197,
        "5181": 210,
        "5182": 118,
        "5183": 170,
        "5184": 62,
        "5185": 80,
        "5186": 120,
        "5187": 7,
        "5188": 54,
        "5189": 8,
        "5190": 112,
        "5191": 64,
        "5192": 33,
        "5193": 147,
        "5194": 204,
        "5195": 200,
        "5196": 105,
        "5197": 255,
        "5198": 34,
        "5199": 0,
        "5200": 66,
        "5201": 222,
        "5202": 52,
        "5203": 77,
        "5204": 226,
        "5205": 116,
        "5206": 57,
        "5207": 210,
        "5208": 33,
        "5209": 141,
        "5210": 91,
        "5211": 97,
        "5212": 123,
        "5213": 243,
        "5214": 188,
        "5215": 121,
        "5216": 213,
        "5217": 239,
        "5218": 72,
        "5219": 30,
        "5220": 189,
        "5221": 216,
        "5222": 203,
        "5223": 140,
        "5224": 199,
        "5225": 106,
        "5226": 109,
        "5227": 172,
        "5228": 144,
        "5229": 207,
        "5230": 37,
        "5231": 77,
        "5232": 134,
        "5233": 230,
        "5234": 151,
        "5235": 53,
        "5236": 245,
        "5237": 51,
        "5238": 104,
        "5239": 34,
        "5240": 28,
        "5241": 255,
        "5242": 118,
        "5243": 89,
        "5244": 117,
        "5245": 154,
        "5246": 184,
        "5247": 175,
        "5248": 116,
        "5249": 245,
        "5250": 233,
        "5251": 247,
        "5252": 154,
        "5253": 253,
        "5254": 27,
        "5255": 73,
        "5256": 2,
        "5257": 72,
        "5258": 67,
        "5259": 242,
        "5260": 187,
        "5261": 9,
        "5262": 63,
        "5263": 2,
        "5264": 120,
        "5265": 83,
        "5266": 79,
        "5267": 229,
        "5268": 167,
        "5269": 153,
        "5270": 149,
        "5271": 188,
        "5272": 4,
        "5273": 59,
        "5274": 213,
        "5275": 8,
        "5276": 54,
        "5277": 55,
        "5278": 8,
        "5279": 116,
        "5280": 93,
        "5281": 127,
        "5282": 2,
        "5283": 79,
        "5284": 194,
        "5285": 212,
        "5286": 207,
        "5287": 86,
        "5288": 228,
        "5289": 191,
        "5290": 76,
        "5291": 212,
        "5292": 135,
        "5293": 80,
        "5294": 130,
        "5295": 106,
        "5296": 98,
        "5297": 252,
        "5298": 61,
        "5299": 90,
        "5300": 194,
        "5301": 102,
        "5302": 156,
        "5303": 227,
        "5304": 51,
        "5305": 58,
        "5306": 66,
        "5307": 81,
        "5308": 19,
        "5309": 33,
        "5310": 54,
        "5311": 28,
        "5312": 91,
        "5313": 64,
        "5314": 35,
        "5315": 171,
        "5316": 138,
        "5317": 22,
        "5318": 195,
        "5319": 21,
        "5320": 119,
        "5321": 176,
        "5322": 200,
        "5323": 211,
        "5324": 185,
        "5325": 113,
        "5326": 190,
        "5327": 202,
        "5328": 164,
        "5329": 118,
        "5330": 10,
        "5331": 41,
        "5332": 67,
        "5333": 184,
        "5334": 155,
        "5335": 228,
        "5336": 128,
        "5337": 166,
        "5338": 147,
        "5339": 113,
        "5340": 247,
        "5341": 198,
        "5342": 155,
        "5343": 208,
        "5344": 230,
        "5345": 182,
        "5346": 50,
        "5347": 67,
        "5348": 183,
        "5349": 39,
        "5350": 196,
        "5351": 27,
        "5352": 76,
        "5353": 120,
        "5354": 237,
        "5355": 136,
        "5356": 193,
        "5357": 141,
        "5358": 180,
        "5359": 123,
        "5360": 189,
        "5361": 90,
        "5362": 185,
        "5363": 161,
        "5364": 245,
        "5365": 183,
        "5366": 68,
        "5367": 230,
        "5368": 166,
        "5369": 5,
        "5370": 147,
        "5371": 196,
        "5372": 118,
        "5373": 30,
        "5374": 183,
        "5375": 185,
        "5376": 40,
        "5377": 164,
        "5378": 124,
        "5379": 41,
        "5380": 120,
        "5381": 64,
        "5382": 61,
        "5383": 202,
        "5384": 195,
        "5385": 98,
        "5386": 85,
        "5387": 129,
        "5388": 182,
        "5389": 126,
        "5390": 56,
        "5391": 120,
        "5392": 12,
        "5393": 38,
        "5394": 149,
        "5395": 38,
        "5396": 82,
        "5397": 77,
        "5398": 59,
        "5399": 48,
        "5400": 45,
        "5401": 147,
        "5402": 94,
        "5403": 171,
        "5404": 9,
        "5405": 162,
        "5406": 227,
        "5407": 227,
        "5408": 93,
        "5409": 164,
        "5410": 154,
        "5411": 101,
        "5412": 212,
        "5413": 166,
        "5414": 24,
        "5415": 39,
        "5416": 59,
        "5417": 61,
        "5418": 140,
        "5419": 193,
        "5420": 32,
        "5421": 238,
        "5422": 72,
        "5423": 210,
        "5424": 240,
        "5425": 19,
        "5426": 252,
        "5427": 218,
        "5428": 85,
        "5429": 82,
        "5430": 228,
        "5431": 177,
        "5432": 221,
        "5433": 74,
        "5434": 151,
        "5435": 117,
        "5436": 118,
        "5437": 22,
        "5438": 134,
        "5439": 149,
        "5440": 91,
        "5441": 43,
        "5442": 206,
        "5443": 232,
        "5444": 194,
        "5445": 55,
        "5446": 254,
        "5447": 102,
        "5448": 60,
        "5449": 134,
        "5450": 223,
        "5451": 97,
        "5452": 116,
        "5453": 53,
        "5454": 13,
        "5455": 38,
        "5456": 191,
        "5457": 188,
        "5458": 52,
        "5459": 172,
        "5460": 217,
        "5461": 119,
        "5462": 213,
        "5463": 205,
        "5464": 63,
        "5465": 161,
        "5466": 103,
        "5467": 237,
        "5468": 61,
        "5469": 98,
        "5470": 149,
        "5471": 10,
        "5472": 120,
        "5473": 69,
        "5474": 172,
        "5475": 68,
        "5476": 116,
        "5477": 230,
        "5478": 58,
        "5479": 175,
        "5480": 220,
        "5481": 202,
        "5482": 90,
        "5483": 35,
        "5484": 199,
        "5485": 194,
        "5486": 73,
        "5487": 28,
        "5488": 96,
        "5489": 192,
        "5490": 206,
        "5491": 220,
        "5492": 2,
        "5493": 211,
        "5494": 169,
        "5495": 172,
        "5496": 81,
        "5497": 210,
        "5498": 239,
        "5499": 29,
        "5500": 187,
        "5501": 119,
        "5502": 187,
        "5503": 226,
        "5504": 204,
        "5505": 185,
        "5506": 40,
        "5507": 181,
        "5508": 120,
        "5509": 72,
        "5510": 146,
        "5511": 238,
        "5512": 107,
        "5513": 51,
        "5514": 0,
        "5515": 211,
        "5516": 67,
        "5517": 116,
        "5518": 32,
        "5519": 4,
        "5520": 155,
        "5521": 20,
        "5522": 232,
        "5523": 182,
        "5524": 90,
        "5525": 55,
        "5526": 116,
        "5527": 193,
        "5528": 137,
        "5529": 107,
        "5530": 115,
        "5531": 71,
        "5532": 243,
        "5533": 74,
        "5534": 222,
        "5535": 103,
        "5536": 46,
        "5537": 147,
        "5538": 232,
        "5539": 126,
        "5540": 177,
        "5541": 122,
        "5542": 192,
        "5543": 101,
        "5544": 220,
        "5545": 186,
        "5546": 89,
        "5547": 188,
        "5548": 56,
        "5549": 151,
        "5550": 194,
        "5551": 189,
        "5552": 93,
        "5553": 199,
        "5554": 45,
        "5555": 25,
        "5556": 216,
        "5557": 134,
        "5558": 24,
        "5559": 91,
        "5560": 143,
        "5561": 169,
        "5562": 100,
        "5563": 3,
        "5564": 173,
        "5565": 166,
        "5566": 94,
        "5567": 114,
        "5568": 104,
        "5569": 10,
        "5570": 82,
        "5571": 97,
        "5572": 107,
        "5573": 244,
        "5574": 98,
        "5575": 247,
        "5576": 184,
        "5577": 150,
        "5578": 199,
        "5579": 226,
        "5580": 71,
        "5581": 80,
        "5582": 27,
        "5583": 107,
        "5584": 62,
        "5585": 131,
        "5586": 204,
        "5587": 240,
        "5588": 33,
        "5589": 253,
        "5590": 166,
        "5591": 26,
        "5592": 213,
        "5593": 129,
        "5594": 121,
        "5595": 242,
        "5596": 73,
        "5597": 174,
        "5598": 21,
        "5599": 181,
        "5600": 142,
        "5601": 184,
        "5602": 49,
        "5603": 17,
        "5604": 171,
        "5605": 100,
        "5606": 74,
        "5607": 0,
        "5608": 65,
        "5609": 123,
        "5610": 100,
        "5611": 204,
        "5612": 55,
        "5613": 209,
        "5614": 140,
        "5615": 124,
        "5616": 178,
        "5617": 21,
        "5618": 38,
        "5619": 114,
        "5620": 49,
        "5621": 65,
        "5622": 146,
        "5623": 122,
        "5624": 53,
        "5625": 227,
        "5626": 86,
        "5627": 15,
        "5628": 127,
        "5629": 203,
        "5630": 74,
        "5631": 50,
        "5632": 50,
        "5633": 1,
        "5634": 230,
        "5635": 24,
        "5636": 86,
        "5637": 70,
        "5638": 192,
        "5639": 88,
        "5640": 42,
        "5641": 66,
        "5642": 149,
        "5643": 244,
        "5644": 48,
        "5645": 178,
        "5646": 213,
        "5647": 150,
        "5648": 215,
        "5649": 2,
        "5650": 127,
        "5651": 59,
        "5652": 112,
        "5653": 68,
        "5654": 250,
        "5655": 90,
        "5656": 158,
        "5657": 147,
        "5658": 3,
        "5659": 215,
        "5660": 41,
        "5661": 161,
        "5662": 188,
        "5663": 6,
        "5664": 83,
        "5665": 245,
        "5666": 201,
        "5667": 182,
        "5668": 218,
        "5669": 21,
        "5670": 212,
        "5671": 135,
        "5672": 216,
        "5673": 210,
        "5674": 51,
        "5675": 111,
        "5676": 26,
        "5677": 21,
        "5678": 69,
        "5679": 197,
        "5680": 3,
        "5681": 186,
        "5682": 228,
        "5683": 180,
        "5684": 116,
        "5685": 255,
        "5686": 87,
        "5687": 91,
        "5688": 251,
        "5689": 207,
        "5690": 1,
        "5691": 231,
        "5692": 78,
        "5693": 21,
        "5694": 104,
        "5695": 194,
        "5696": 119,
        "5697": 170,
        "5698": 90,
        "5699": 253,
        "5700": 118,
        "5701": 28,
        "5702": 156,
        "5703": 24,
        "5704": 164,
        "5705": 207,
        "5706": 68,
        "5707": 100,
        "5708": 59,
        "5709": 98,
        "5710": 223,
        "5711": 237,
        "5712": 107,
        "5713": 96,
        "5714": 174,
        "5715": 212,
        "5716": 234,
        "5717": 130,
        "5718": 149,
        "5719": 2,
        "5720": 165,
        "5721": 178,
        "5722": 10,
        "5723": 106,
        "5724": 6,
        "5725": 12,
        "5726": 28,
        "5727": 36,
        "5728": 225,
        "5729": 188,
        "5730": 224,
        "5731": 59,
        "5732": 50,
        "5733": 38,
        "5734": 218,
        "5735": 61,
        "5736": 128,
        "5737": 183,
        "5738": 231,
        "5739": 107,
        "5740": 158,
        "5741": 26,
        "5742": 137,
        "5743": 244,
        "5744": 118,
        "5745": 118,
        "5746": 110,
        "5747": 231,
        "5748": 7,
        "5749": 32,
        "5750": 165,
        "5751": 160,
        "5752": 73,
        "5753": 192,
        "5754": 185,
        "5755": 160,
        "5756": 98,
        "5757": 206,
        "5758": 102,
        "5759": 67,
        "5760": 8,
        "5761": 220,
        "5762": 14,
        "5763": 38,
        "5764": 6,
        "5765": 14,
        "5766": 136,
        "5767": 184,
        "5768": 61,
        "5769": 79,
        "5770": 219,
        "5771": 9,
        "5772": 23,
        "5773": 84,
        "5774": 97,
        "5775": 245,
        "5776": 96,
        "5777": 246,
        "5778": 245,
        "5779": 89,
        "5780": 174,
        "5781": 216,
        "5782": 41,
        "5783": 209,
        "5784": 144,
        "5785": 3,
        "5786": 54,
        "5787": 12,
        "5788": 201,
        "5789": 28,
        "5790": 9,
        "5791": 67,
        "5792": 200,
        "5793": 15,
        "5794": 114,
        "5795": 191,
        "5796": 49,
        "5797": 36,
        "5798": 81,
        "5799": 202,
        "5800": 60,
        "5801": 117,
        "5802": 157,
        "5803": 74,
        "5804": 63,
        "5805": 129,
        "5806": 46,
        "5807": 165,
        "5808": 87,
        "5809": 81,
        "5810": 45,
        "5811": 193,
        "5812": 181,
        "5813": 12,
        "5814": 116,
        "5815": 91,
        "5816": 24,
        "5817": 87,
        "5818": 238,
        "5819": 28,
        "5820": 196,
        "5821": 126,
        "5822": 60,
        "5823": 176,
        "5824": 114,
        "5825": 183,
        "5826": 45,
        "5827": 141,
        "5828": 202,
        "5829": 106,
        "5830": 125,
        "5831": 180,
        "5832": 41,
        "5833": 131,
        "5834": 163,
        "5835": 65,
        "5836": 169,
        "5837": 186,
        "5838": 22,
        "5839": 246,
        "5840": 1,
        "5841": 67,
        "5842": 73,
        "5843": 39,
        "5844": 57,
        "5845": 161,
        "5846": 220,
        "5847": 124,
        "5848": 54,
        "5849": 59,
        "5850": 77,
        "5851": 252,
        "5852": 176,
        "5853": 85,
        "5854": 82,
        "5855": 220,
        "5856": 90,
        "5857": 97,
        "5858": 153,
        "5859": 134,
        "5860": 217,
        "5861": 40,
        "5862": 156,
        "5863": 61,
        "5864": 150,
        "5865": 67,
        "5866": 156,
        "5867": 254,
        "5868": 238,
        "5869": 183,
        "5870": 255,
        "5871": 94,
        "5872": 148,
        "5873": 64,
        "5874": 149,
        "5875": 95,
        "5876": 231,
        "5877": 109,
        "5878": 121,
        "5879": 169,
        "5880": 197,
        "5881": 8,
        "5882": 42,
        "5883": 158,
        "5884": 208,
        "5885": 39,
        "5886": 40,
        "5887": 158,
        "5888": 95,
        "5889": 37,
        "5890": 47,
        "5891": 112,
        "5892": 150,
        "5893": 147,
        "5894": 159,
        "5895": 151,
        "5896": 77,
        "5897": 151,
        "5898": 251,
        "5899": 3,
        "5900": 24,
        "5901": 138,
        "5902": 220,
        "5903": 87,
        "5904": 66,
        "5905": 48,
        "5906": 225,
        "5907": 124,
        "5908": 248,
        "5909": 187,
        "5910": 24,
        "5911": 241,
        "5912": 148,
        "5913": 150,
        "5914": 244,
        "5915": 140,
        "5916": 236,
        "5917": 251,
        "5918": 37,
        "5919": 122,
        "5920": 179,
        "5921": 8,
        "5922": 98,
        "5923": 189,
        "5924": 151,
        "5925": 25,
        "5926": 15,
        "5927": 9,
        "5928": 205,
        "5929": 95,
        "5930": 238,
        "5931": 85,
        "5932": 163,
        "5933": 249,
        "5934": 197,
        "5935": 212,
        "5936": 5,
        "5937": 171,
        "5938": 117,
        "5939": 202,
        "5940": 107,
        "5941": 8,
        "5942": 83,
        "5943": 76,
        "5944": 7,
        "5945": 17,
        "5946": 95,
        "5947": 229,
        "5948": 241,
        "5949": 76,
        "5950": 112,
        "5951": 198,
        "5952": 87,
        "5953": 58,
        "5954": 234,
        "5955": 119,
        "5956": 70,
        "5957": 159,
        "5958": 81,
        "5959": 233,
        "5960": 19,
        "5961": 170,
        "5962": 130,
        "5963": 232,
        "5964": 97,
        "5965": 115,
        "5966": 0,
        "5967": 33,
        "5968": 153,
        "5969": 230,
        "5970": 7,
        "5971": 29,
        "5972": 191,
        "5973": 63,
        "5974": 120,
        "5975": 169,
        "5976": 118,
        "5977": 247,
        "5978": 180,
        "5979": 4,
        "5980": 184,
        "5981": 125,
        "5982": 176,
        "5983": 185,
        "5984": 88,
        "5985": 55,
        "5986": 197,
        "5987": 210,
        "5988": 8,
        "5989": 78,
        "5990": 195,
        "5991": 206,
        "5992": 235,
        "5993": 65,
        "5994": 111,
        "5995": 27,
        "5996": 15,
        "5997": 122,
        "5998": 180,
        "5999": 67,
        "6000": 7,
        "6001": 92,
        "6002": 105,
        "6003": 79,
        "6004": 107,
        "6005": 144,
        "6006": 162,
        "6007": 189,
        "6008": 245,
        "6009": 39,
        "6010": 249,
        "6011": 123,
        "6012": 160,
        "6013": 31,
        "6014": 57,
        "6015": 173,
        "6016": 54,
        "6017": 135,
        "6018": 218,
        "6019": 242,
        "6020": 236,
        "6021": 197,
        "6022": 84,
        "6023": 77,
        "6024": 196,
        "6025": 135,
        "6026": 46,
        "6027": 34,
        "6028": 241,
        "6029": 90,
        "6030": 22,
        "6031": 6,
        "6032": 252,
        "6033": 96,
        "6034": 99,
        "6035": 178,
        "6036": 21,
        "6037": 23,
        "6038": 218,
        "6039": 224,
        "6040": 15,
        "6041": 255,
        "6042": 248,
        "6043": 186,
        "6044": 75,
        "6045": 201,
        "6046": 165,
        "6047": 250,
        "6048": 134,
        "6049": 74,
        "6050": 99,
        "6051": 244,
        "6052": 70,
        "6053": 11,
        "6054": 245,
        "6055": 196,
        "6056": 69,
        "6057": 22,
        "6058": 110,
        "6059": 236,
        "6060": 186,
        "6061": 225,
        "6062": 28,
        "6063": 186,
        "6064": 70,
        "6065": 88,
        "6066": 76,
        "6067": 128,
        "6068": 17,
        "6069": 38,
        "6070": 6,
        "6071": 31,
        "6072": 255,
        "6073": 149,
        "6074": 96,
        "6075": 150,
        "6076": 114,
        "6077": 105,
        "6078": 198,
        "6079": 226,
        "6080": 26,
        "6081": 97,
        "6082": 231,
        "6083": 90,
        "6084": 132,
        "6085": 132,
        "6086": 56,
        "6087": 124,
        "6088": 236,
        "6089": 79,
        "6090": 18,
        "6091": 7,
        "6092": 10,
        "6093": 101,
        "6094": 74,
        "6095": 175,
        "6096": 200,
        "6097": 200,
        "6098": 172,
        "6099": 121,
        "6100": 74,
        "6101": 239,
        "6102": 86,
        "6103": 66,
        "6104": 186,
        "6105": 168,
        "6106": 16,
        "6107": 53,
        "6108": 188,
        "6109": 62,
        "6110": 201,
        "6111": 127,
        "6112": 223,
        "6113": 195,
        "6114": 251,
        "6115": 139,
        "6116": 42,
        "6117": 26,
        "6118": 239,
        "6119": 54,
        "6120": 146,
        "6121": 223,
        "6122": 117,
        "6123": 12,
        "6124": 62,
        "6125": 172,
        "6126": 167,
        "6127": 254,
        "6128": 158,
        "6129": 122,
        "6130": 222,
        "6131": 163,
        "6132": 27,
        "6133": 36,
        "6134": 123,
        "6135": 65,
        "6136": 119,
        "6137": 7,
        "6138": 131,
        "6139": 35,
        "6140": 221,
        "6141": 9,
        "6142": 91,
        "6143": 249,
        "6144": 18,
        "6145": 174,
        "6146": 246,
        "6147": 24,
        "6148": 219,
        "6149": 223,
        "6150": 161,
        "6151": 81,
        "6152": 80,
        "6153": 168,
        "6154": 192,
        "6155": 215,
        "6156": 161,
        "6157": 23,
        "6158": 1,
        "6159": 179,
        "6160": 219,
        "6161": 76,
        "6162": 135,
        "6163": 148,
        "6164": 171,
        "6165": 181,
        "6166": 103,
        "6167": 39,
        "6168": 192,
        "6169": 22,
        "6170": 226,
        "6171": 177,
        "6172": 85,
        "6173": 194,
        "6174": 214,
        "6175": 164,
        "6176": 58,
        "6177": 41,
        "6178": 222,
        "6179": 181,
        "6180": 150,
        "6181": 151,
        "6182": 80,
        "6183": 207,
        "6184": 104,
        "6185": 219,
        "6186": 26,
        "6187": 37,
        "6188": 32,
        "6189": 50,
        "6190": 41,
        "6191": 74,
        "6192": 158,
        "6193": 113,
        "6194": 57,
        "6195": 220,
        "6196": 245,
        "6197": 16,
        "6198": 230,
        "6199": 177,
        "6200": 42,
        "6201": 165,
        "6202": 104,
        "6203": 197,
        "6204": 59,
        "6205": 246,
        "6206": 49,
        "6207": 185,
        "6208": 249,
        "6209": 248,
        "6210": 216,
        "6211": 145,
        "6212": 8,
        "6213": 10,
        "6214": 227,
        "6215": 232,
        "6216": 138,
        "6217": 53,
        "6218": 157,
        "6219": 27,
        "6220": 251,
        "6221": 161,
        "6222": 72,
        "6223": 248,
        "6224": 119,
        "6225": 204,
        "6226": 136,
        "6227": 12,
        "6228": 150,
        "6229": 109,
        "6230": 47,
        "6231": 213,
        "6232": 227,
        "6233": 141,
        "6234": 206,
        "6235": 183,
        "6236": 236,
        "6237": 220,
        "6238": 77,
        "6239": 129,
        "6240": 85,
        "6241": 161,
        "6242": 49,
        "6243": 250,
        "6244": 73,
        "6245": 198,
        "6246": 99,
        "6247": 199,
        "6248": 23,
        "6249": 35,
        "6250": 91,
        "6251": 92,
        "6252": 196,
        "6253": 76,
        "6254": 12,
        "6255": 152,
        "6256": 38,
        "6257": 140,
        "6258": 243,
        "6259": 91,
        "6260": 33,
        "6261": 83,
        "6262": 207,
        "6263": 240,
        "6264": 60,
        "6265": 227,
        "6266": 1,
        "6267": 240,
        "6268": 13,
        "6269": 153,
        "6270": 73,
        "6271": 89,
        "6272": 226,
        "6273": 212,
        "6274": 179,
        "6275": 190,
        "6276": 130,
        "6277": 56,
        "6278": 76,
        "6279": 58,
        "6280": 188,
        "6281": 64,
        "6282": 208,
        "6283": 229,
        "6284": 169,
        "6285": 73,
        "6286": 227,
        "6287": 89,
        "6288": 1,
        "6289": 240,
        "6290": 28,
        "6291": 243,
        "6292": 129,
        "6293": 201,
        "6294": 36,
        "6295": 9,
        "6296": 28,
        "6297": 5,
        "6298": 93,
        "6299": 217,
        "6300": 211,
        "6301": 126,
        "6302": 136,
        "6303": 165,
        "6304": 240,
        "6305": 122,
        "6306": 131,
        "6307": 68,
        "6308": 80,
        "6309": 172,
        "6310": 192,
        "6311": 226,
        "6312": 182,
        "6313": 237,
        "6314": 248,
        "6315": 70,
        "6316": 211,
        "6317": 191,
        "6318": 115,
        "6319": 116,
        "6320": 153,
        "6321": 197,
        "6322": 196,
        "6323": 160,
        "6324": 31,
        "6325": 200,
        "6326": 5,
        "6327": 234,
        "6328": 17,
        "6329": 235,
        "6330": 172,
        "6331": 115,
        "6332": 121,
        "6333": 39,
        "6334": 43,
        "6335": 207,
        "6336": 198,
        "6337": 99,
        "6338": 93,
        "6339": 243,
        "6340": 41,
        "6341": 214,
        "6342": 90,
        "6343": 86,
        "6344": 221,
        "6345": 2,
        "6346": 44,
        "6347": 19,
        "6348": 48,
        "6349": 181,
        "6350": 231,
        "6351": 220,
        "6352": 66,
        "6353": 6,
        "6354": 38,
        "6355": 137,
        "6356": 158,
        "6357": 34,
        "6358": 64,
        "6359": 84,
        "6360": 141,
        "6361": 121,
        "6362": 2,
        "6363": 112,
        "6364": 22,
        "6365": 138,
        "6366": 101,
        "6367": 145,
        "6368": 62,
        "6369": 15,
        "6370": 223,
        "6371": 154,
        "6372": 144,
        "6373": 207,
        "6374": 205,
        "6375": 37,
        "6376": 244,
        "6377": 190,
        "6378": 103,
        "6379": 6,
        "6380": 21,
        "6381": 215,
        "6382": 241,
        "6383": 187,
        "6384": 122,
        "6385": 252,
        "6386": 21,
        "6387": 65,
        "6388": 134,
        "6389": 117,
        "6390": 14,
        "6391": 131,
        "6392": 222,
        "6393": 114,
        "6394": 255,
        "6395": 43,
        "6396": 7,
        "6397": 104,
        "6398": 110,
        "6399": 155,
        "6400": 11,
        "6401": 158,
        "6402": 119,
        "6403": 208,
        "6404": 108,
        "6405": 224,
        "6406": 237,
        "6407": 8,
        "6408": 148,
        "6409": 3,
        "6410": 57,
        "6411": 97,
        "6412": 243,
        "6413": 17,
        "6414": 124,
        "6415": 10,
        "6416": 12,
        "6417": 196,
        "6418": 253,
        "6419": 102,
        "6420": 48,
        "6421": 109,
        "6422": 154,
        "6423": 168,
        "6424": 63,
        "6425": 214,
        "6426": 36,
        "6427": 138,
        "6428": 213,
        "6429": 229,
        "6430": 159,
        "6431": 126,
        "6432": 255,
        "6433": 4,
        "6434": 145,
        "6435": 53,
        "6436": 243,
        "6437": 22,
        "6438": 198,
        "6439": 154,
        "6440": 29,
        "6441": 138,
        "6442": 159,
        "6443": 240,
        "6444": 132,
        "6445": 62,
        "6446": 4,
        "6447": 197,
        "6448": 156,
        "6449": 91,
        "6450": 108,
        "6451": 221,
        "6452": 50,
        "6453": 61,
        "6454": 15,
        "6455": 66,
        "6456": 53,
        "6457": 13,
        "6458": 152,
        "6459": 199,
        "6460": 88,
        "6461": 78,
        "6462": 118,
        "6463": 149,
        "6464": 206,
        "6465": 253,
        "6466": 140,
        "6467": 107,
        "6468": 42,
        "6469": 30,
        "6470": 216,
        "6471": 188,
        "6472": 194,
        "6473": 249,
        "6474": 236,
        "6475": 123,
        "6476": 124,
        "6477": 226,
        "6478": 97,
        "6479": 26,
        "6480": 76,
        "6481": 199,
        "6482": 199,
        "6483": 227,
        "6484": 69,
        "6485": 233,
        "6486": 87,
        "6487": 188,
        "6488": 29,
        "6489": 97,
        "6490": 230,
        "6491": 212,
        "6492": 161,
        "6493": 154,
        "6494": 63,
        "6495": 121,
        "6496": 8,
        "6497": 3,
        "6498": 121,
        "6499": 206,
        "6500": 34,
        "6501": 49,
        "6502": 214,
        "6503": 66,
        "6504": 32,
        "6505": 15,
        "6506": 186,
        "6507": 233,
        "6508": 32,
        "6509": 221,
        "6510": 114,
        "6511": 79,
        "6512": 32,
        "6513": 95,
        "6514": 209,
        "6515": 45,
        "6516": 224,
        "6517": 152,
        "6518": 212,
        "6519": 243,
        "6520": 157,
        "6521": 147,
        "6522": 179,
        "6523": 72,
        "6524": 25,
        "6525": 115,
        "6526": 62,
        "6527": 195,
        "6528": 214,
        "6529": 64,
        "6530": 40,
        "6531": 164,
        "6532": 176,
        "6533": 156,
        "6534": 238,
        "6535": 71,
        "6536": 208,
        "6537": 196,
        "6538": 46,
        "6539": 167,
        "6540": 160,
        "6541": 252,
        "6542": 145,
        "6543": 149,
        "6544": 90,
        "6545": 255,
        "6546": 37,
        "6547": 237,
        "6548": 140,
        "6549": 115,
        "6550": 93,
        "6551": 0,
        "6552": 145,
        "6553": 156,
        "6554": 20,
        "6555": 124,
        "6556": 58,
        "6557": 240,
        "6558": 225,
        "6559": 30,
        "6560": 202,
        "6561": 30,
        "6562": 221,
        "6563": 164,
        "6564": 150,
        "6565": 165,
        "6566": 138,
        "6567": 92,
        "6568": 14,
        "6569": 88,
        "6570": 225,
        "6571": 201,
        "6572": 189,
        "6573": 142,
        "6574": 16,
        "6575": 160,
        "6576": 102,
        "6577": 9,
        "6578": 65,
        "6579": 165,
        "6580": 71,
        "6581": 107,
        "6582": 50,
        "6583": 212,
        "6584": 253,
        "6585": 119,
        "6586": 26,
        "6587": 160,
        "6588": 13,
        "6589": 21,
        "6590": 248,
        "6591": 218,
        "6592": 227,
        "6593": 135,
        "6594": 1,
        "6595": 228,
        "6596": 84,
        "6597": 176,
        "6598": 169,
        "6599": 216,
        "6600": 210,
        "6601": 58,
        "6602": 67,
        "6603": 128,
        "6604": 10,
        "6605": 235,
        "6606": 211,
        "6607": 240,
        "6608": 165,
        "6609": 193,
        "6610": 85,
        "6611": 11,
        "6612": 207,
        "6613": 97,
        "6614": 215,
        "6615": 3,
        "6616": 59,
        "6617": 106,
        "6618": 38,
        "6619": 111,
        "6620": 6,
        "6621": 173,
        "6622": 176,
        "6623": 122,
        "6624": 216,
        "6625": 243,
        "6626": 135,
        "6627": 103,
        "6628": 104,
        "6629": 169,
        "6630": 26,
        "6631": 178,
        "6632": 51,
        "6633": 158,
        "6634": 68,
        "6635": 69,
        "6636": 25,
        "6637": 195,
        "6638": 116,
        "6639": 93,
        "6640": 241,
        "6641": 222,
        "6642": 243,
        "6643": 24,
        "6644": 251,
        "6645": 165,
        "6646": 94,
        "6647": 243,
        "6648": 14,
        "6649": 97,
        "6650": 24,
        "6651": 156,
        "6652": 254,
        "6653": 71,
        "6654": 130,
        "6655": 81,
        "6656": 10,
        "6657": 44,
        "6658": 242,
        "6659": 41,
        "6660": 114,
        "6661": 120,
        "6662": 93,
        "6663": 161,
        "6664": 251,
        "6665": 54,
        "6666": 148,
        "6667": 63,
        "6668": 248,
        "6669": 233,
        "6670": 71,
        "6671": 21,
        "6672": 145,
        "6673": 165,
        "6674": 104,
        "6675": 156,
        "6676": 236,
        "6677": 170,
        "6678": 61,
        "6679": 55,
        "6680": 116,
        "6681": 178,
        "6682": 62,
        "6683": 0,
        "6684": 207,
        "6685": 127,
        "6686": 184,
        "6687": 41,
        "6688": 59,
        "6689": 101,
        "6690": 215,
        "6691": 11,
        "6692": 131,
        "6693": 251,
        "6694": 89,
        "6695": 252,
        "6696": 50,
        "6697": 241,
        "6698": 221,
        "6699": 241,
        "6700": 243,
        "6701": 149,
        "6702": 48,
        "6703": 32,
        "6704": 174,
        "6705": 61,
        "6706": 240,
        "6707": 177,
        "6708": 121,
        "6709": 96,
        "6710": 23,
        "6711": 231,
        "6712": 34,
        "6713": 228,
        "6714": 195,
        "6715": 61,
        "6716": 117,
        "6717": 155,
        "6718": 66,
        "6719": 117,
        "6720": 14,
        "6721": 128,
        "6722": 64,
        "6723": 107,
        "6724": 13,
        "6725": 250,
        "6726": 108,
        "6727": 194,
        "6728": 253,
        "6729": 188,
        "6730": 253,
        "6731": 118,
        "6732": 153,
        "6733": 255,
        "6734": 9,
        "6735": 63,
        "6736": 106,
        "6737": 54,
        "6738": 39,
        "6739": 177,
        "6740": 90,
        "6741": 99,
        "6742": 152,
        "6743": 195,
        "6744": 46,
        "6745": 44,
        "6746": 48,
        "6747": 78,
        "6748": 242,
        "6749": 73,
        "6750": 178,
        "6751": 113,
        "6752": 110,
        "6753": 249,
        "6754": 163,
        "6755": 67,
        "6756": 103,
        "6757": 24,
        "6758": 2,
        "6759": 156,
        "6760": 16,
        "6761": 62,
        "6762": 65,
        "6763": 178,
        "6764": 111,
        "6765": 79,
        "6766": 182,
        "6767": 252,
        "6768": 253,
        "6769": 199,
        "6770": 16,
        "6771": 247,
        "6772": 53,
        "6773": 60,
        "6774": 105,
        "6775": 226,
        "6776": 52,
        "6777": 71,
        "6778": 176,
        "6779": 69,
        "6780": 5,
        "6781": 90,
        "6782": 161,
        "6783": 230,
        "6784": 28,
        "6785": 210,
        "6786": 125,
        "6787": 51,
        "6788": 43,
        "6789": 20,
        "6790": 244,
        "6791": 52,
        "6792": 205,
        "6793": 12,
        "6794": 217,
        "6795": 40,
        "6796": 39,
        "6797": 61,
        "6798": 163,
        "6799": 165,
        "6800": 42,
        "6801": 208,
        "6802": 15,
        "6803": 141,
        "6804": 150,
        "6805": 157,
        "6806": 218,
        "6807": 98,
        "6808": 158,
        "6809": 31,
        "6810": 184,
        "6811": 62,
        "6812": 83,
        "6813": 100,
        "6814": 105,
        "6815": 46,
        "6816": 107,
        "6817": 245,
        "6818": 66,
        "6819": 72,
        "6820": 3,
        "6821": 172,
        "6822": 37,
        "6823": 9,
        "6824": 143,
        "6825": 169,
        "6826": 172,
        "6827": 16,
        "6828": 82,
        "6829": 155,
        "6830": 75,
        "6831": 224,
        "6832": 86,
        "6833": 53,
        "6834": 79,
        "6835": 54,
        "6836": 115,
        "6837": 36,
        "6838": 15,
        "6839": 17,
        "6840": 155,
        "6841": 117,
        "6842": 199,
        "6843": 186,
        "6844": 35,
        "6845": 193,
        "6846": 181,
        "6847": 53,
        "6848": 20,
        "6849": 143,
        "6850": 0,
        "6851": 83,
        "6852": 85,
        "6853": 199,
        "6854": 16,
        "6855": 254,
        "6856": 75,
        "6857": 17,
        "6858": 211,
        "6859": 70,
        "6860": 18,
        "6861": 243,
        "6862": 62,
        "6863": 40,
        "6864": 156,
        "6865": 163,
        "6866": 141,
        "6867": 7,
        "6868": 63,
        "6869": 123,
        "6870": 0,
        "6871": 108,
        "6872": 218,
        "6873": 195,
        "6874": 134,
        "6875": 162,
        "6876": 172,
        "6877": 242,
        "6878": 80,
        "6879": 238,
        "6880": 64,
        "6881": 202,
        "6882": 125,
        "6883": 233,
        "6884": 168,
        "6885": 25,
        "6886": 81,
        "6887": 93,
        "6888": 176,
        "6889": 21,
        "6890": 210,
        "6891": 7,
        "6892": 125,
        "6893": 126,
        "6894": 21,
        "6895": 130,
        "6896": 192,
        "6897": 251,
        "6898": 111,
        "6899": 25,
        "6900": 214,
        "6901": 91,
        "6902": 2,
        "6903": 250,
        "6904": 145,
        "6905": 222,
        "6906": 17,
        "6907": 28,
        "6908": 24,
        "6909": 39,
        "6910": 170,
        "6911": 155,
        "6912": 91,
        "6913": 14,
        "6914": 25,
        "6915": 158,
        "6916": 129,
        "6917": 84,
        "6918": 219,
        "6919": 59,
        "6920": 57,
        "6921": 111,
        "6922": 9,
        "6923": 166,
        "6924": 1,
        "6925": 199,
        "6926": 183,
        "6927": 94,
        "6928": 80,
        "6929": 188,
        "6930": 251,
        "6931": 1,
        "6932": 173,
        "6933": 186,
        "6934": 14,
        "6935": 213,
        "6936": 214,
        "6937": 156,
        "6938": 177,
        "6939": 144,
        "6940": 179,
        "6941": 142,
        "6942": 185,
        "6943": 26,
        "6944": 241,
        "6945": 219,
        "6946": 154,
        "6947": 21,
        "6948": 135,
        "6949": 10,
        "6950": 48,
        "6951": 106,
        "6952": 220,
        "6953": 199,
        "6954": 148,
        "6955": 32,
        "6956": 93,
        "6957": 16,
        "6958": 208,
        "6959": 126,
        "6960": 34,
        "6961": 6,
        "6962": 110,
        "6963": 102,
        "6964": 84,
        "6965": 46,
        "6966": 236,
        "6967": 243,
        "6968": 96,
        "6969": 121,
        "6970": 23,
        "6971": 32,
        "6972": 153,
        "6973": 235,
        "6974": 3,
        "6975": 108,
        "6976": 141,
        "6977": 228,
        "6978": 49,
        "6979": 92,
        "6980": 36,
        "6981": 231,
        "6982": 191,
        "6983": 66,
        "6984": 26,
        "6985": 122,
        "6986": 230,
        "6987": 30,
        "6988": 60,
        "6989": 215,
        "6990": 57,
        "6991": 250,
        "6992": 111,
        "6993": 59,
        "6994": 84,
        "6995": 209,
        "6996": 206,
        "6997": 181,
        "6998": 120,
        "6999": 45,
        "7000": 157,
        "7001": 210,
        "7002": 30,
        "7003": 65,
        "7004": 64,
        "7005": 154,
        "7006": 181,
        "7007": 8,
        "7008": 252,
        "7009": 44,
        "7010": 16,
        "7011": 50,
        "7012": 38,
        "7013": 154,
        "7014": 20,
        "7015": 207,
        "7016": 159,
        "7017": 237,
        "7018": 114,
        "7019": 43,
        "7020": 173,
        "7021": 136,
        "7022": 202,
        "7023": 38,
        "7024": 131,
        "7025": 201,
        "7026": 69,
        "7027": 34,
        "7028": 144,
        "7029": 130,
        "7030": 85,
        "7031": 211,
        "7032": 67,
        "7033": 51,
        "7034": 96,
        "7035": 127,
        "7036": 123,
        "7037": 108,
        "7038": 209,
        "7039": 115,
        "7040": 190,
        "7041": 218,
        "7042": 139,
        "7043": 70,
        "7044": 175,
        "7045": 112,
        "7046": 231,
        "7047": 210,
        "7048": 168,
        "7049": 205,
        "7050": 187,
        "7051": 21,
        "7052": 188,
        "7053": 250,
        "7054": 172,
        "7055": 99,
        "7056": 155,
        "7057": 85,
        "7058": 59,
        "7059": 66,
        "7060": 191,
        "7061": 80,
        "7062": 104,
        "7063": 160,
        "7064": 124,
        "7065": 3,
        "7066": 175,
        "7067": 23,
        "7068": 66,
        "7069": 154,
        "7070": 161,
        "7071": 186,
        "7072": 90,
        "7073": 126,
        "7074": 96,
        "7075": 169,
        "7076": 188,
        "7077": 135,
        "7078": 108,
        "7079": 28,
        "7080": 150,
        "7081": 60,
        "7082": 113,
        "7083": 85,
        "7084": 229,
        "7085": 155,
        "7086": 137,
        "7087": 128,
        "7088": 130,
        "7089": 254,
        "7090": 253,
        "7091": 33,
        "7092": 114,
        "7093": 16,
        "7094": 108,
        "7095": 77,
        "7096": 63,
        "7097": 210,
        "7098": 118,
        "7099": 48,
        "7100": 156,
        "7101": 47,
        "7102": 196,
        "7103": 30,
        "7104": 148,
        "7105": 121,
        "7106": 167,
        "7107": 88,
        "7108": 175,
        "7109": 66,
        "7110": 134,
        "7111": 88,
        "7112": 113,
        "7113": 140,
        "7114": 233,
        "7115": 105,
        "7116": 230,
        "7117": 224,
        "7118": 30,
        "7119": 77,
        "7120": 146,
        "7121": 13,
        "7122": 32,
        "7123": 67,
        "7124": 54,
        "7125": 181,
        "7126": 247,
        "7127": 33,
        "7128": 144,
        "7129": 57,
        "7130": 26,
        "7131": 146,
        "7132": 234,
        "7133": 198,
        "7134": 176,
        "7135": 79,
        "7136": 146,
        "7137": 68,
        "7138": 202,
        "7139": 208,
        "7140": 236,
        "7141": 203,
        "7142": 221,
        "7143": 199,
        "7144": 74,
        "7145": 60,
        "7146": 212,
        "7147": 26,
        "7148": 85,
        "7149": 131,
        "7150": 105,
        "7151": 171,
        "7152": 38,
        "7153": 158,
        "7154": 178,
        "7155": 84,
        "7156": 135,
        "7157": 165,
        "7158": 177,
        "7159": 193,
        "7160": 100,
        "7161": 58,
        "7162": 79,
        "7163": 160,
        "7164": 7,
        "7165": 103,
        "7166": 101,
        "7167": 58,
        "7168": 60,
        "7169": 204,
        "7170": 255,
        "7171": 91,
        "7172": 110,
        "7173": 184,
        "7174": 160,
        "7175": 174,
        "7176": 179,
        "7177": 8,
        "7178": 82,
        "7179": 98,
        "7180": 96,
        "7181": 74,
        "7182": 226,
        "7183": 5,
        "7184": 246,
        "7185": 88,
        "7186": 74,
        "7187": 71,
        "7188": 58,
        "7189": 153,
        "7190": 114,
        "7191": 212,
        "7192": 127,
        "7193": 122,
        "7194": 30,
        "7195": 76,
        "7196": 161,
        "7197": 130,
        "7198": 235,
        "7199": 116,
        "7200": 88,
        "7201": 234,
        "7202": 210,
        "7203": 146,
        "7204": 163,
        "7205": 191,
        "7206": 70,
        "7207": 202,
        "7208": 255,
        "7209": 31,
        "7210": 160,
        "7211": 237,
        "7212": 74,
        "7213": 241,
        "7214": 252,
        "7215": 214,
        "7216": 84,
        "7217": 134,
        "7218": 97,
        "7219": 133,
        "7220": 117,
        "7221": 21,
        "7222": 15,
        "7223": 160,
        "7224": 175,
        "7225": 208,
        "7226": 69,
        "7227": 86,
        "7228": 248,
        "7229": 48,
        "7230": 65,
        "7231": 246,
        "7232": 61,
        "7233": 156,
        "7234": 138,
        "7235": 107,
        "7236": 83,
        "7237": 66,
        "7238": 95,
        "7239": 192,
        "7240": 143,
        "7241": 204,
        "7242": 214,
        "7243": 112,
        "7244": 169,
        "7245": 30,
        "7246": 20,
        "7247": 62,
        "7248": 111,
        "7249": 182,
        "7250": 46,
        "7251": 203,
        "7252": 28,
        "7253": 47,
        "7254": 237,
        "7255": 147,
        "7256": 79,
        "7257": 31,
        "7258": 197,
        "7259": 2,
        "7260": 207,
        "7261": 131,
        "7262": 120,
        "7263": 226,
        "7264": 8,
        "7265": 14,
        "7266": 210,
        "7267": 107,
        "7268": 51,
        "7269": 202,
        "7270": 5,
        "7271": 186,
        "7272": 109,
        "7273": 112,
        "7274": 118,
        "7275": 36,
        "7276": 57,
        "7277": 79,
        "7278": 59,
        "7279": 52,
        "7280": 225,
        "7281": 43,
        "7282": 190,
        "7283": 252,
        "7284": 177,
        "7285": 193,
        "7286": 110,
        "7287": 148,
        "7288": 122,
        "7289": 183,
        "7290": 169,
        "7291": 64,
        "7292": 169,
        "7293": 213,
        "7294": 107,
        "7295": 106,
        "7296": 255,
        "7297": 148,
        "7298": 171,
        "7299": 238,
        "7300": 29,
        "7301": 221,
        "7302": 206,
        "7303": 233,
        "7304": 252,
        "7305": 37,
        "7306": 61,
        "7307": 107,
        "7308": 94,
        "7309": 177,
        "7310": 221,
        "7311": 10,
        "7312": 28,
        "7313": 228,
        "7314": 131,
        "7315": 102,
        "7316": 53,
        "7317": 194,
        "7318": 91,
        "7319": 234,
        "7320": 109,
        "7321": 246,
        "7322": 234,
        "7323": 197,
        "7324": 60,
        "7325": 60,
        "7326": 30,
        "7327": 212,
        "7328": 152,
        "7329": 126,
        "7330": 108,
        "7331": 106,
        "7332": 215,
        "7333": 212,
        "7334": 174,
        "7335": 209,
        "7336": 35,
        "7337": 102,
        "7338": 57,
        "7339": 145,
        "7340": 125,
        "7341": 206,
        "7342": 94,
        "7343": 138,
        "7344": 87,
        "7345": 90,
        "7346": 70,
        "7347": 149,
        "7348": 181,
        "7349": 251,
        "7350": 112,
        "7351": 138,
        "7352": 159,
        "7353": 211,
        "7354": 44,
        "7355": 127,
        "7356": 156,
        "7357": 48,
        "7358": 122,
        "7359": 89,
        "7360": 188,
        "7361": 84,
        "7362": 222,
        "7363": 13,
        "7364": 95,
        "7365": 178,
        "7366": 242,
        "7367": 37,
        "7368": 220,
        "7369": 3,
        "7370": 119,
        "7371": 149,
        "7372": 236,
        "7373": 180,
        "7374": 152,
        "7375": 158,
        "7376": 194,
        "7377": 225,
        "7378": 27,
        "7379": 138,
        "7380": 188,
        "7381": 179,
        "7382": 32,
        "7383": 26,
        "7384": 16,
        "7385": 148,
        "7386": 187,
        "7387": 216,
        "7388": 185,
        "7389": 252,
        "7390": 136,
        "7391": 161,
        "7392": 10,
        "7393": 241,
        "7394": 240,
        "7395": 90,
        "7396": 47,
        "7397": 98,
        "7398": 133,
        "7399": 18,
        "7400": 215,
        "7401": 199,
        "7402": 244,
        "7403": 47,
        "7404": 75,
        "7405": 48,
        "7406": 100,
        "7407": 10,
        "7408": 95,
        "7409": 31,
        "7410": 110,
        "7411": 244,
        "7412": 66,
        "7413": 33,
        "7414": 104,
        "7415": 77,
        "7416": 13,
        "7417": 123,
        "7418": 210,
        "7419": 118,
        "7420": 120,
        "7421": 118,
        "7422": 140,
        "7423": 231,
        "7424": 187,
        "7425": 65,
        "7426": 74,
        "7427": 172,
        "7428": 29,
        "7429": 42,
        "7430": 22,
        "7431": 50,
        "7432": 199,
        "7433": 32,
        "7434": 191,
        "7435": 89,
        "7436": 89,
        "7437": 180,
        "7438": 132,
        "7439": 127,
        "7440": 58,
        "7441": 212,
        "7442": 209,
        "7443": 195,
        "7444": 44,
        "7445": 12,
        "7446": 11,
        "7447": 70,
        "7448": 24,
        "7449": 28,
        "7450": 36,
        "7451": 42,
        "7452": 38,
        "7453": 31,
        "7454": 22,
        "7455": 65,
        "7456": 68,
        "7457": 8,
        "7458": 94,
        "7459": 144,
        "7460": 65,
        "7461": 123,
        "7462": 83,
        "7463": 165,
        "7464": 175,
        "7465": 191,
        "7466": 129,
        "7467": 208,
        "7468": 217,
        "7469": 161,
        "7470": 199,
        "7471": 178,
        "7472": 252,
        "7473": 59,
        "7474": 181,
        "7475": 2,
        "7476": 21,
        "7477": 43,
        "7478": 189,
        "7479": 225,
        "7480": 126,
        "7481": 185,
        "7482": 251,
        "7483": 20,
        "7484": 92,
        "7485": 187,
        "7486": 59,
        "7487": 126,
        "7488": 162,
        "7489": 129,
        "7490": 55,
        "7491": 186,
        "7492": 13,
        "7493": 158,
        "7494": 142,
        "7495": 244,
        "7496": 185,
        "7497": 86,
        "7498": 7,
        "7499": 123,
        "7500": 105,
        "7501": 120,
        "7502": 206,
        "7503": 44,
        "7504": 33,
        "7505": 213,
        "7506": 22,
        "7507": 111,
        "7508": 109,
        "7509": 237,
        "7510": 10,
        "7511": 188,
        "7512": 31,
        "7513": 145,
        "7514": 8,
        "7515": 83,
        "7516": 219,
        "7517": 155,
        "7518": 40,
        "7519": 170,
        "7520": 241,
        "7521": 255,
        "7522": 131,
        "7523": 116,
        "7524": 113,
        "7525": 80,
        "7526": 140,
        "7527": 35,
        "7528": 69,
        "7529": 63,
        "7530": 148,
        "7531": 6,
        "7532": 54,
        "7533": 37,
        "7534": 8,
        "7535": 80,
        "7536": 153,
        "7537": 195,
        "7538": 59,
        "7539": 206,
        "7540": 66,
        "7541": 193,
        "7542": 30,
        "7543": 65,
        "7544": 233,
        "7545": 127,
        "7546": 238,
        "7547": 107,
        "7548": 165,
        "7549": 27,
        "7550": 15,
        "7551": 98,
        "7552": 170,
        "7553": 182,
        "7554": 205,
        "7555": 85,
        "7556": 184,
        "7557": 252,
        "7558": 220,
        "7559": 121,
        "7560": 110,
        "7561": 105,
        "7562": 255,
        "7563": 192,
        "7564": 77,
        "7565": 101,
        "7566": 236,
        "7567": 63,
        "7568": 39,
        "7569": 164,
        "7570": 80,
        "7571": 220,
        "7572": 226,
        "7573": 41,
        "7574": 249,
        "7575": 149,
        "7576": 188,
        "7577": 69,
        "7578": 150,
        "7579": 134,
        "7580": 111,
        "7581": 87,
        "7582": 141,
        "7583": 113,
        "7584": 128,
        "7585": 214,
        "7586": 4,
        "7587": 177,
        "7588": 225,
        "7589": 79,
        "7590": 95,
        "7591": 224,
        "7592": 176,
        "7593": 56,
        "7594": 165,
        "7595": 70,
        "7596": 221,
        "7597": 61,
        "7598": 69,
        "7599": 89,
        "7600": 198,
        "7601": 208,
        "7602": 14,
        "7603": 237,
        "7604": 214,
        "7605": 140,
        "7606": 8,
        "7607": 140,
        "7608": 231,
        "7609": 112,
        "7610": 145,
        "7611": 196,
        "7612": 60,
        "7613": 6,
        "7614": 232,
        "7615": 208,
        "7616": 110,
        "7617": 6,
        "7618": 22,
        "7619": 240,
        "7620": 254,
        "7621": 216,
        "7622": 97,
        "7623": 240,
        "7624": 46,
        "7625": 25,
        "7626": 113,
        "7627": 123,
        "7628": 53,
        "7629": 27,
        "7630": 121,
        "7631": 132,
        "7632": 177,
        "7633": 126,
        "7634": 89,
        "7635": 26,
        "7636": 5,
        "7637": 255,
        "7638": 172,
        "7639": 108,
        "7640": 88,
        "7641": 23,
        "7642": 126,
        "7643": 77,
        "7644": 6,
        "7645": 185,
        "7646": 12,
        "7647": 27,
        "7648": 97,
        "7649": 98,
        "7650": 22,
        "7651": 199,
        "7652": 248,
        "7653": 131,
        "7654": 42,
        "7655": 56,
        "7656": 77,
        "7657": 116,
        "7658": 190,
        "7659": 214,
        "7660": 147,
        "7661": 29,
        "7662": 4,
        "7663": 157,
        "7664": 165,
        "7665": 85,
        "7666": 131,
        "7667": 83,
        "7668": 43,
        "7669": 223,
        "7670": 193,
        "7671": 180,
        "7672": 70,
        "7673": 225,
        "7674": 163,
        "7675": 40,
        "7676": 16,
        "7677": 241,
        "7678": 80,
        "7679": 23,
        "7680": 133,
        "7681": 193,
        "7682": 253,
        "7683": 163,
        "7684": 44,
        "7685": 34,
        "7686": 242,
        "7687": 234,
        "7688": 98,
        "7689": 254,
        "7690": 12,
        "7691": 213,
        "7692": 227,
        "7693": 251,
        "7694": 44,
        "7695": 245,
        "7696": 163,
        "7697": 164,
        "7698": 195,
        "7699": 216,
        "7700": 249,
        "7701": 10,
        "7702": 220,
        "7703": 212,
        "7704": 118,
        "7705": 97,
        "7706": 172,
        "7707": 87,
        "7708": 30,
        "7709": 203,
        "7710": 207,
        "7711": 168,
        "7712": 225,
        "7713": 77,
        "7714": 206,
        "7715": 190,
        "7716": 110,
        "7717": 9,
        "7718": 220,
        "7719": 229,
        "7720": 194,
        "7721": 215,
        "7722": 146,
        "7723": 203,
        "7724": 121,
        "7725": 106,
        "7726": 215,
        "7727": 108,
        "7728": 26,
        "7729": 174,
        "7730": 167,
        "7731": 165,
        "7732": 16,
        "7733": 76,
        "7734": 191,
        "7735": 192,
        "7736": 64,
        "7737": 136,
        "7738": 173,
        "7739": 113,
        "7740": 223,
        "7741": 82,
        "7742": 191,
        "7743": 174,
        "7744": 231,
        "7745": 223,
        "7746": 45,
        "7747": 38,
        "7748": 197,
        "7749": 47,
        "7750": 15,
        "7751": 6,
        "7752": 180,
        "7753": 218,
        "7754": 37,
        "7755": 157,
        "7756": 11,
        "7757": 241,
        "7758": 43,
        "7759": 221,
        "7760": 135,
        "7761": 32,
        "7762": 54,
        "7763": 238,
        "7764": 241,
        "7765": 212,
        "7766": 39,
        "7767": 111,
        "7768": 64,
        "7769": 81,
        "7770": 47,
        "7771": 243,
        "7772": 206,
        "7773": 140,
        "7774": 153,
        "7775": 92,
        "7776": 250,
        "7777": 155,
        "7778": 141,
        "7779": 30,
        "7780": 95,
        "7781": 235,
        "7782": 227,
        "7783": 78,
        "7784": 156,
        "7785": 120,
        "7786": 57,
        "7787": 162,
        "7788": 164,
        "7789": 206,
        "7790": 84,
        "7791": 213,
        "7792": 125,
        "7793": 80,
        "7794": 251,
        "7795": 175,
        "7796": 97,
        "7797": 10,
        "7798": 88,
        "7799": 44,
        "7800": 236,
        "7801": 217,
        "7802": 187,
        "7803": 253,
        "7804": 20,
        "7805": 159,
        "7806": 47,
        "7807": 158,
        "7808": 74,
        "7809": 151,
        "7810": 7,
        "7811": 192,
        "7812": 105,
        "7813": 7,
        "7814": 140,
        "7815": 101,
        "7816": 26,
        "7817": 249,
        "7818": 174,
        "7819": 182,
        "7820": 210,
        "7821": 5,
        "7822": 126,
        "7823": 52,
        "7824": 187,
        "7825": 195,
        "7826": 71,
        "7827": 163,
        "7828": 238,
        "7829": 22,
        "7830": 45,
        "7831": 131,
        "7832": 32,
        "7833": 213,
        "7834": 9,
        "7835": 111,
        "7836": 145,
        "7837": 59,
        "7838": 155,
        "7839": 207,
        "7840": 67,
        "7841": 173,
        "7842": 25,
        "7843": 73,
        "7844": 148,
        "7845": 29,
        "7846": 253,
        "7847": 142,
        "7848": 162,
        "7849": 6,
        "7850": 27,
        "7851": 170,
        "7852": 83,
        "7853": 26,
        "7854": 113,
        "7855": 232,
        "7856": 208,
        "7857": 178,
        "7858": 46,
        "7859": 99,
        "7860": 30,
        "7861": 174,
        "7862": 168,
        "7863": 6,
        "7864": 96,
        "7865": 94,
        "7866": 246,
        "7867": 223,
        "7868": 111,
        "7869": 150,
        "7870": 85,
        "7871": 214,
        "7872": 99,
        "7873": 12,
        "7874": 196,
        "7875": 123,
        "7876": 109,
        "7877": 8,
        "7878": 227,
        "7879": 75,
        "7880": 218,
        "7881": 171,
        "7882": 118,
        "7883": 254,
        "7884": 116,
        "7885": 18,
        "7886": 127,
        "7887": 115,
        "7888": 46,
        "7889": 164,
        "7890": 241,
        "7891": 69,
        "7892": 215,
        "7893": 170,
        "7894": 10,
        "7895": 3,
        "7896": 15,
        "7897": 25,
        "7898": 212,
        "7899": 147,
        "7900": 229,
        "7901": 220,
        "7902": 52,
        "7903": 126,
        "7904": 249,
        "7905": 104,
        "7906": 233,
        "7907": 92,
        "7908": 252,
        "7909": 136,
        "7910": 240,
        "7911": 176,
        "7912": 236,
        "7913": 53,
        "7914": 236,
        "7915": 146,
        "7916": 178,
        "7917": 172,
        "7918": 190,
        "7919": 34,
        "7920": 53,
        "7921": 114,
        "7922": 208,
        "7923": 40,
        "7924": 208,
        "7925": 220,
        "7926": 167,
        "7927": 28,
        "7928": 192,
        "7929": 194,
        "7930": 128,
        "7931": 221,
        "7932": 225,
        "7933": 52,
        "7934": 123,
        "7935": 120,
        "7936": 135,
        "7937": 214,
        "7938": 6,
        "7939": 34,
        "7940": 117,
        "7941": 59,
        "7942": 111,
        "7943": 26,
        "7944": 249,
        "7945": 122,
        "7946": 127,
        "7947": 249,
        "7948": 6,
        "7949": 253,
        "7950": 241,
        "7951": 189,
        "7952": 190,
        "7953": 254,
        "7954": 243,
        "7955": 233,
        "7956": 94,
        "7957": 191,
        "7958": 3,
        "7959": 148,
        "7960": 98,
        "7961": 84,
        "7962": 201,
        "7963": 165,
        "7964": 87,
        "7965": 91,
        "7966": 151,
        "7967": 240,
        "7968": 139,
        "7969": 213,
        "7970": 118,
        "7971": 231,
        "7972": 66,
        "7973": 42,
        "7974": 53,
        "7975": 72,
        "7976": 28,
        "7977": 137,
        "7978": 59,
        "7979": 78,
        "7980": 190,
        "7981": 224,
        "7982": 228,
        "7983": 66,
        "7984": 46,
        "7985": 103,
        "7986": 192,
        "7987": 51,
        "7988": 46,
        "7989": 193,
        "7990": 68,
        "7991": 13,
        "7992": 72,
        "7993": 135,
        "7994": 247,
        "7995": 194,
        "7996": 93,
        "7997": 142,
        "7998": 229,
        "7999": 172,
        "8000": 152,
        "8001": 36,
        "8002": 226,
        "8003": 79,
        "8004": 53,
        "8005": 177,
        "8006": 92,
        "8007": 174,
        "8008": 200,
        "8009": 100,
        "8010": 153,
        "8011": 117,
        "8012": 225,
        "8013": 135,
        "8014": 56,
        "8015": 244,
        "8016": 232,
        "8017": 22,
        "8018": 7,
        "8019": 167,
        "8020": 7,
        "8021": 222,
        "8022": 238,
        "8023": 38,
        "8024": 142,
        "8025": 54,
        "8026": 120,
        "8027": 201,
        "8028": 140,
        "8029": 171,
        "8030": 146,
        "8031": 110,
        "8032": 30,
        "8033": 170,
        "8034": 67,
        "8035": 180,
        "8036": 134,
        "8037": 135,
        "8038": 40,
        "8039": 246,
        "8040": 224,
        "8041": 205,
        "8042": 225,
        "8043": 119,
        "8044": 27,
        "8045": 253,
        "8046": 91,
        "8047": 71,
        "8048": 10,
        "8049": 183,
        "8050": 49,
        "8051": 47,
        "8052": 251,
        "8053": 201,
        "8054": 26,
        "8055": 125,
        "8056": 81,
        "8057": 68,
        "8058": 122,
        "8059": 21,
        "8060": 129,
        "8061": 135,
        "8062": 224,
        "8063": 41,
        "8064": 220,
        "8065": 68,
        "8066": 80,
        "8067": 97,
        "8068": 70,
        "8069": 133,
        "8070": 148,
        "8071": 6,
        "8072": 174,
        "8073": 230,
        "8074": 248,
        "8075": 119,
        "8076": 33,
        "8077": 17,
        "8078": 80,
        "8079": 82,
        "8080": 160,
        "8081": 157,
        "8082": 2,
        "8083": 88,
        "8084": 114,
        "8085": 17,
        "8086": 209,
        "8087": 182,
        "8088": 96,
        "8089": 27,
        "8090": 35,
        "8091": 12,
        "8092": 115,
        "8093": 69,
        "8094": 10,
        "8095": 54,
        "8096": 108,
        "8097": 79,
        "8098": 180,
        "8099": 245,
        "8100": 64,
        "8101": 201,
        "8102": 229,
        "8103": 17,
        "8104": 40,
        "8105": 47,
        "8106": 130,
        "8107": 138,
        "8108": 238,
        "8109": 230,
        "8110": 91,
        "8111": 84,
        "8112": 80,
        "8113": 67,
        "8114": 12,
        "8115": 40,
        "8116": 212,
        "8117": 29,
        "8118": 118,
        "8119": 32,
        "8120": 118,
        "8121": 163,
        "8122": 198,
        "8123": 243,
        "8124": 82,
        "8125": 90,
        "8126": 105,
        "8127": 240,
        "8128": 192,
        "8129": 41,
        "8130": 77,
        "8131": 99,
        "8132": 146,
        "8133": 116,
        "8134": 186,
        "8135": 98,
        "8136": 88,
        "8137": 87,
        "8138": 22,
        "8139": 249,
        "8140": 151,
        "8141": 194,
        "8142": 86,
        "8143": 190,
        "8144": 9,
        "8145": 121,
        "8146": 176,
        "8147": 87,
        "8148": 106,
        "8149": 83,
        "8150": 48,
        "8151": 152,
        "8152": 193,
        "8153": 203,
        "8154": 31,
        "8155": 95,
        "8156": 23,
        "8157": 13,
        "8158": 181,
        "8159": 224,
        "8160": 197,
        "8161": 128,
        "8162": 179,
        "8163": 185,
        "8164": 141,
        "8165": 107,
        "8166": 142,
        "8167": 214,
        "8168": 216,
        "8169": 170,
        "8170": 75,
        "8171": 67,
        "8172": 40,
        "8173": 64,
        "8174": 35,
        "8175": 54,
        "8176": 249,
        "8177": 93,
        "8178": 175,
        "8179": 71,
        "8180": 1,
        "8181": 194,
        "8182": 45,
        "8183": 57,
        "8184": 227,
        "8185": 151,
        "8186": 88,
        "8187": 152,
        "8188": 7,
        "8189": 31,
        "8190": 46,
        "8191": 214,
        "8192": 141,
        "8193": 176,
        "8194": 113,
        "8195": 213,
        "8196": 192,
        "8197": 52,
        "8198": 124,
        "8199": 252,
        "8200": 10,
        "8201": 68,
        "8202": 190,
        "8203": 226,
        "8204": 119,
        "8205": 129,
        "8206": 24,
        "8207": 176,
        "8208": 161,
        "8209": 81,
        "8210": 182,
        "8211": 214,
        "8212": 215,
        "8213": 15,
        "8214": 191,
        "8215": 90,
        "8216": 236,
        "8217": 83,
        "8218": 62,
        "8219": 200,
        "8220": 59,
        "8221": 65,
        "8222": 125,
        "8223": 13,
        "8224": 94,
        "8225": 184,
        "8226": 44,
        "8227": 82,
        "8228": 14,
        "8229": 33,
        "8230": 172,
        "8231": 49,
        "8232": 106,
        "8233": 226,
        "8234": 79,
        "8235": 217,
        "8236": 59,
        "8237": 153,
        "8238": 177,
        "8239": 149,
        "8240": 57,
        "8241": 48,
        "8242": 250,
        "8243": 19,
        "8244": 220,
        "8245": 87,
        "8246": 255,
        "8247": 118,
        "8248": 214,
        "8249": 49,
        "8250": 16,
        "8251": 162,
        "8252": 47,
        "8253": 154,
        "8254": 50,
        "8255": 108,
        "8256": 225,
        "8257": 237,
        "8258": 17,
        "8259": 69,
        "8260": 73,
        "8261": 228,
        "8262": 180,
        "8263": 185,
        "8264": 250,
        "8265": 116,
        "8266": 106,
        "8267": 24,
        "8268": 229,
        "8269": 190,
        "8270": 177,
        "8271": 241,
        "8272": 5,
        "8273": 104,
        "8274": 30,
        "8275": 71,
        "8276": 86,
        "8277": 85,
        "8278": 122,
        "8279": 243,
        "8280": 174,
        "8281": 163,
        "8282": 63,
        "8283": 80,
        "8284": 93,
        "8285": 37,
        "8286": 72,
        "8287": 251,
        "8288": 243,
        "8289": 220,
        "8290": 149,
        "8291": 195,
        "8292": 120,
        "8293": 102,
        "8294": 13,
        "8295": 227,
        "8296": 62,
        "8297": 192,
        "8298": 130,
        "8299": 122,
        "8300": 127,
        "8301": 209,
        "8302": 15,
        "8303": 121,
        "8304": 239,
        "8305": 110,
        "8306": 96,
        "8307": 140,
        "8308": 14,
        "8309": 189,
        "8310": 137,
        "8311": 114,
        "8312": 232,
        "8313": 172,
        "8314": 37,
        "8315": 44,
        "8316": 139,
        "8317": 63,
        "8318": 102,
        "8319": 240,
        "8320": 211,
        "8321": 60,
        "8322": 124,
        "8323": 162,
        "8324": 105,
        "8325": 183,
        "8326": 73,
        "8327": 149,
        "8328": 178,
        "8329": 171,
        "8330": 249,
        "8331": 71,
        "8332": 116,
        "8333": 20,
        "8334": 31,
        "8335": 128,
        "8336": 197,
        "8337": 185,
        "8338": 26,
        "8339": 219,
        "8340": 32,
        "8341": 46,
        "8342": 192,
        "8343": 50,
        "8344": 43,
        "8345": 38,
        "8346": 36,
        "8347": 3,
        "8348": 125,
        "8349": 17,
        "8350": 3,
        "8351": 171,
        "8352": 186,
        "8353": 90,
        "8354": 62,
        "8355": 166,
        "8356": 140,
        "8357": 147,
        "8358": 86,
        "8359": 192,
        "8360": 10,
        "8361": 185,
        "8362": 95,
        "8363": 75,
        "8364": 149,
        "8365": 132,
        "8366": 145,
        "8367": 131,
        "8368": 11,
        "8369": 231,
        "8370": 52,
        "8371": 117,
        "8372": 160,
        "8373": 145,
        "8374": 202,
        "8375": 85,
        "8376": 40,
        "8377": 74,
        "8378": 15,
        "8379": 199,
        "8380": 47,
        "8381": 107,
        "8382": 243,
        "8383": 184,
        "8384": 38,
        "8385": 88,
        "8386": 143,
        "8387": 21,
        "8388": 160,
        "8389": 201,
        "8390": 59,
        "8391": 198,
        "8392": 240,
        "8393": 136,
        "8394": 42,
        "8395": 57,
        "8396": 171,
        "8397": 189,
        "8398": 66,
        "8399": 225,
        "8400": 83,
        "8401": 102,
        "8402": 208,
        "8403": 151,
        "8404": 52,
        "8405": 242,
        "8406": 87,
        "8407": 28,
        "8408": 247,
        "8409": 222,
        "8410": 182,
        "8411": 236,
        "8412": 8,
        "8413": 147,
        "8414": 138,
        "8415": 157,
        "8416": 80,
        "8417": 223,
        "8418": 63,
        "8419": 236,
        "8420": 105,
        "8421": 27,
        "8422": 243,
        "8423": 140,
        "8424": 236,
        "8425": 141,
        "8426": 173,
        "8427": 242,
        "8428": 246,
        "8429": 185,
        "8430": 75,
        "8431": 23,
        "8432": 110,
        "8433": 41,
        "8434": 141,
        "8435": 164,
        "8436": 53,
        "8437": 180,
        "8438": 91,
        "8439": 238,
        "8440": 208,
        "8441": 125,
        "8442": 7,
        "8443": 50,
        "8444": 77,
        "8445": 79,
        "8446": 27,
        "8447": 85,
        "8448": 59,
        "8449": 152,
        "8450": 193,
        "8451": 219,
        "8452": 99,
        "8453": 96,
        "8454": 70,
        "8455": 94,
        "8456": 44,
        "8457": 133,
        "8458": 80,
        "8459": 120,
        "8460": 143,
        "8461": 210,
        "8462": 92,
        "8463": 174,
        "8464": 144,
        "8465": 223,
        "8466": 5,
        "8467": 30,
        "8468": 140,
        "8469": 141,
        "8470": 238,
        "8471": 209,
        "8472": 66,
        "8473": 1,
        "8474": 146,
        "8475": 90,
        "8476": 142,
        "8477": 133,
        "8478": 248,
        "8479": 57,
        "8480": 202,
        "8481": 65,
        "8482": 2,
        "8483": 172,
        "8484": 243,
        "8485": 220,
        "8486": 213,
        "8487": 184,
        "8488": 76,
        "8489": 72,
        "8490": 242,
        "8491": 137,
        "8492": 133,
        "8493": 84,
        "8494": 251,
        "8495": 157,
        "8496": 1,
        "8497": 157,
        "8498": 169,
        "8499": 78,
        "8500": 248,
        "8501": 122,
        "8502": 126,
        "8503": 52,
        "8504": 6,
        "8505": 122,
        "8506": 138,
        "8507": 124,
        "8508": 148,
        "8509": 220,
        "8510": 182,
        "8511": 193,
        "8512": 84,
        "8513": 72,
        "8514": 92,
        "8515": 106,
        "8516": 146,
        "8517": 142,
        "8518": 126,
        "8519": 28,
        "8520": 156,
        "8521": 141,
        "8522": 85,
        "8523": 159,
        "8524": 166,
        "8525": 254,
        "8526": 201,
        "8527": 12,
        "8528": 33,
        "8529": 122,
        "8530": 238,
        "8531": 34,
        "8532": 17,
        "8533": 25,
        "8534": 176,
        "8535": 188,
        "8536": 41,
        "8537": 121,
        "8538": 130,
        "8539": 66,
        "8540": 139,
        "8541": 7,
        "8542": 197,
        "8543": 141,
        "8544": 215,
        "8545": 215,
        "8546": 236,
        "8547": 40,
        "8548": 71,
        "8549": 185,
        "8550": 6,
        "8551": 95,
        "8552": 14,
        "8553": 252,
        "8554": 52,
        "8555": 6,
        "8556": 217,
        "8557": 231,
        "8558": 52,
        "8559": 252,
        "8560": 85,
        "8561": 252,
        "8562": 78,
        "8563": 12,
        "8564": 210,
        "8565": 91,
        "8566": 48,
        "8567": 245,
        "8568": 98,
        "8569": 133,
        "8570": 69,
        "8571": 220,
        "8572": 53,
        "8573": 234,
        "8574": 151,
        "8575": 135,
        "8576": 36,
        "8577": 119,
        "8578": 143,
        "8579": 221,
        "8580": 95,
        "8581": 99,
        "8582": 140,
        "8583": 34,
        "8584": 243,
        "8585": 11,
        "8586": 126,
        "8587": 92,
        "8588": 77,
        "8589": 189,
        "8590": 62,
        "8591": 22,
        "8592": 149,
        "8593": 191,
        "8594": 218,
        "8595": 48,
        "8596": 12,
        "8597": 13,
        "8598": 254,
        "8599": 227,
        "8600": 115,
        "8601": 115,
        "8602": 38,
        "8603": 175,
        "8604": 112,
        "8605": 81,
        "8606": 223,
        "8607": 132,
        "8608": 26,
        "8609": 65,
        "8610": 162,
        "8611": 219,
        "8612": 232,
        "8613": 52,
        "8614": 59,
        "8615": 244,
        "8616": 40,
        "8617": 187,
        "8618": 177,
        "8619": 182,
        "8620": 84,
        "8621": 126,
        "8622": 251,
        "8623": 192,
        "8624": 232,
        "8625": 82,
        "8626": 20,
        "8627": 245,
        "8628": 202,
        "8629": 46,
        "8630": 101,
        "8631": 103,
        "8632": 82,
        "8633": 129,
        "8634": 106,
        "8635": 161,
        "8636": 215,
        "8637": 41,
        "8638": 222,
        "8639": 249,
        "8640": 244,
        "8641": 216,
        "8642": 227,
        "8643": 199,
        "8644": 187,
        "8645": 209,
        "8646": 158,
        "8647": 173,
        "8648": 222,
        "8649": 180,
        "8650": 84,
        "8651": 16,
        "8652": 251,
        "8653": 104,
        "8654": 202,
        "8655": 170,
        "8656": 18,
        "8657": 137,
        "8658": 236,
        "8659": 120,
        "8660": 36,
        "8661": 105,
        "8662": 154,
        "8663": 42,
        "8664": 168,
        "8665": 3,
        "8666": 234,
        "8667": 117,
        "8668": 193,
        "8669": 19,
        "8670": 187,
        "8671": 203,
        "8672": 180,
        "8673": 8,
        "8674": 26,
        "8675": 16,
        "8676": 255,
        "8677": 220,
        "8678": 219,
        "8679": 164,
        "8680": 19,
        "8681": 18,
        "8682": 42,
        "8683": 48,
        "8684": 17,
        "8685": 142,
        "8686": 138,
        "8687": 151,
        "8688": 173,
        "8689": 2,
        "8690": 15,
        "8691": 13,
        "8692": 91,
        "8693": 132,
        "8694": 226,
        "8695": 64,
        "8696": 239,
        "8697": 164,
        "8698": 5,
        "8699": 160,
        "8700": 209,
        "8701": 222,
        "8702": 225,
        "8703": 16,
        "8704": 203,
        "8705": 71,
        "8706": 1,
        "8707": 4,
        "8708": 17,
        "8709": 28,
        "8710": 21,
        "8711": 98,
        "8712": 124,
        "8713": 187,
        "8714": 230,
        "8715": 2,
        "8716": 212,
        "8717": 104,
        "8718": 246,
        "8719": 133,
        "8720": 134,
        "8721": 18,
        "8722": 35,
        "8723": 166,
        "8724": 247,
        "8725": 217,
        "8726": 198,
        "8727": 72,
        "8728": 52,
        "8729": 19,
        "8730": 170,
        "8731": 202,
        "8732": 65,
        "8733": 230,
        "8734": 209,
        "8735": 20,
        "8736": 39,
        "8737": 60,
        "8738": 127,
        "8739": 235,
        "8740": 132,
        "8741": 171,
        "8742": 47,
        "8743": 83,
        "8744": 107,
        "8745": 223,
        "8746": 173,
        "8747": 42,
        "8748": 164,
        "8749": 13,
        "8750": 110,
        "8751": 41,
        "8752": 26,
        "8753": 178,
        "8754": 140,
        "8755": 243,
        "8756": 13,
        "8757": 117,
        "8758": 159,
        "8759": 217,
        "8760": 209,
        "8761": 46,
        "8762": 159,
        "8763": 117,
        "8764": 6,
        "8765": 107,
        "8766": 224,
        "8767": 193,
        "8768": 200,
        "8769": 76,
        "8770": 214,
        "8771": 242,
        "8772": 211,
        "8773": 3,
        "8774": 230,
        "8775": 91,
        "8776": 200,
        "8777": 32,
        "8778": 74,
        "8779": 253,
        "8780": 242,
        "8781": 230,
        "8782": 153,
        "8783": 77,
        "8784": 231,
        "8785": 115,
        "8786": 119,
        "8787": 130,
        "8788": 135,
        "8789": 19,
        "8790": 117,
        "8791": 177,
        "8792": 160,
        "8793": 235,
        "8794": 148,
        "8795": 142,
        "8796": 116,
        "8797": 121,
        "8798": 153,
        "8799": 63,
        "8800": 106,
        "8801": 188,
        "8802": 38,
        "8803": 252,
        "8804": 232,
        "8805": 237,
        "8806": 199,
        "8807": 118,
        "8808": 161,
        "8809": 200,
        "8810": 3,
        "8811": 93,
        "8812": 43,
        "8813": 49,
        "8814": 114,
        "8815": 56,
        "8816": 43,
        "8817": 180,
        "8818": 168,
        "8819": 78,
        "8820": 228,
        "8821": 9,
        "8822": 12,
        "8823": 124,
        "8824": 114,
        "8825": 29,
        "8826": 235,
        "8827": 133,
        "8828": 63,
        "8829": 184,
        "8830": 5,
        "8831": 248,
        "8832": 3,
        "8833": 254,
        "8834": 167,
        "8835": 169,
        "8836": 50,
        "8837": 212,
        "8838": 204,
        "8839": 125,
        "8840": 138,
        "8841": 106,
        "8842": 219,
        "8843": 100,
        "8844": 154,
        "8845": 61,
        "8846": 209,
        "8847": 8,
        "8848": 187,
        "8849": 196,
        "8850": 48,
        "8851": 248,
        "8852": 180,
        "8853": 212,
        "8854": 103,
        "8855": 75,
        "8856": 214,
        "8857": 114,
        "8858": 27,
        "8859": 225,
        "8860": 75,
        "8861": 156,
        "8862": 127,
        "8863": 108,
        "8864": 164,
        "8865": 219,
        "8866": 149,
        "8867": 172,
        "8868": 129,
        "8869": 212,
        "8870": 57,
        "8871": 190,
        "8872": 144,
        "8873": 112,
        "8874": 52,
        "8875": 34,
        "8876": 124,
        "8877": 173,
        "8878": 132,
        "8879": 205,
        "8880": 139,
        "8881": 62,
        "8882": 125,
        "8883": 174,
        "8884": 186,
        "8885": 104,
        "8886": 95,
        "8887": 133,
        "8888": 237,
        "8889": 3,
        "8890": 245,
        "8891": 220,
        "8892": 211,
        "8893": 55,
        "8894": 170,
        "8895": 141,
        "8896": 60,
        "8897": 103,
        "8898": 127,
        "8899": 234,
        "8900": 171,
        "8901": 198,
        "8902": 239,
        "8903": 113,
        "8904": 89,
        "8905": 60,
        "8906": 196,
        "8907": 191,
        "8908": 138,
        "8909": 170,
        "8910": 49,
        "8911": 252,
        "8912": 74,
        "8913": 89,
        "8914": 159,
        "8915": 163,
        "8916": 68,
        "8917": 134,
        "8918": 236,
        "8919": 19,
        "8920": 108,
        "8921": 139,
        "8922": 159,
        "8923": 50,
        "8924": 242,
        "8925": 10,
        "8926": 12,
        "8927": 33,
        "8928": 85,
        "8929": 30,
        "8930": 48,
        "8931": 69,
        "8932": 121,
        "8933": 191,
        "8934": 140,
        "8935": 0,
        "8936": 245,
        "8937": 54,
        "8938": 12,
        "8939": 201,
        "8940": 26,
        "8941": 64,
        "8942": 184,
        "8943": 228,
        "8944": 252,
        "8945": 205,
        "8946": 42,
        "8947": 21,
        "8948": 214,
        "8949": 128,
        "8950": 52,
        "8951": 25,
        "8952": 89,
        "8953": 47,
        "8954": 25,
        "8955": 139,
        "8956": 181,
        "8957": 153,
        "8958": 59,
        "8959": 106,
        "8960": 153,
        "8961": 168,
        "8962": 97,
        "8963": 79,
        "8964": 31,
        "8965": 155,
        "8966": 31,
        "8967": 97,
        "8968": 56,
        "8969": 30,
        "8970": 168,
        "8971": 201,
        "8972": 179,
        "8973": 113,
        "8974": 72,
        "8975": 110,
        "8976": 77,
        "8977": 231,
        "8978": 41,
        "8979": 14,
        "8980": 120,
        "8981": 94,
        "8982": 77,
        "8983": 82,
        "8984": 192,
        "8985": 59,
        "8986": 28,
        "8987": 3,
        "8988": 44,
        "8989": 79,
        "8990": 123,
        "8991": 57,
        "8992": 218,
        "8993": 129,
        "8994": 154,
        "8995": 124,
        "8996": 77,
        "8997": 89,
        "8998": 131,
        "8999": 106,
        "9000": 179,
        "9001": 224,
        "9002": 226,
        "9003": 188,
        "9004": 164,
        "9005": 14,
        "9006": 215,
        "9007": 196,
        "9008": 126,
        "9009": 214,
        "9010": 238,
        "9011": 35,
        "9012": 165,
        "9013": 184,
        "9014": 240,
        "9015": 161,
        "9016": 120,
        "9017": 210,
        "9018": 178,
        "9019": 189,
        "9020": 18,
        "9021": 201,
        "9022": 141,
        "9023": 124,
        "9024": 46,
        "9025": 52,
        "9026": 116,
        "9027": 85,
        "9028": 138,
        "9029": 17,
        "9030": 23,
        "9031": 173,
        "9032": 193,
        "9033": 121,
        "9034": 206,
        "9035": 23,
        "9036": 104,
        "9037": 171,
        "9038": 17,
        "9039": 20,
        "9040": 113,
        "9041": 6,
        "9042": 153,
        "9043": 113,
        "9044": 26,
        "9045": 246,
        "9046": 227,
        "9047": 64,
        "9048": 115,
        "9049": 146,
        "9050": 71,
        "9051": 173,
        "9052": 90,
        "9053": 157,
        "9054": 86,
        "9055": 175,
        "9056": 154,
        "9057": 86,
        "9058": 148,
        "9059": 240,
        "9060": 63,
        "9061": 121,
        "9062": 142,
        "9063": 104,
        "9064": 134,
        "9065": 165,
        "9066": 178,
        "9067": 237,
        "9068": 204,
        "9069": 219,
        "9070": 0,
        "9071": 243,
        "9072": 197,
        "9073": 216,
        "9074": 75,
        "9075": 228,
        "9076": 47,
        "9077": 244,
        "9078": 133,
        "9079": 143,
        "9080": 192,
        "9081": 16,
        "9082": 82,
        "9083": 210,
        "9084": 100,
        "9085": 63,
        "9086": 26,
        "9087": 92,
        "9088": 166,
        "9089": 101,
        "9090": 72,
        "9091": 88,
        "9092": 73,
        "9093": 34,
        "9094": 209,
        "9095": 133,
        "9096": 239,
        "9097": 246,
        "9098": 158,
        "9099": 209,
        "9100": 41,
        "9101": 68,
        "9102": 50,
        "9103": 146,
        "9104": 81,
        "9105": 100,
        "9106": 170,
        "9107": 215,
        "9108": 97,
        "9109": 219,
        "9110": 234,
        "9111": 203,
        "9112": 125,
        "9113": 102,
        "9114": 169,
        "9115": 208,
        "9116": 1,
        "9117": 135,
        "9118": 250,
        "9119": 164,
        "9120": 254,
        "9121": 134,
        "9122": 208,
        "9123": 25,
        "9124": 20,
        "9125": 12,
        "9126": 94,
        "9127": 187,
        "9128": 204,
        "9129": 32,
        "9130": 246,
        "9131": 157,
        "9132": 204,
        "9133": 176,
        "9134": 55,
        "9135": 41,
        "9136": 177,
        "9137": 206,
        "9138": 164,
        "9139": 253,
        "9140": 20,
        "9141": 72,
        "9142": 210,
        "9143": 101,
        "9144": 156,
        "9145": 36,
        "9146": 220,
        "9147": 215,
        "9148": 227,
        "9149": 147,
        "9150": 97,
        "9151": 151,
        "9152": 122,
        "9153": 27,
        "9154": 112,
        "9155": 77,
        "9156": 164,
        "9157": 143,
        "9158": 30,
        "9159": 110,
        "9160": 31,
        "9161": 22,
        "9162": 133,
        "9163": 123,
        "9164": 146,
        "9165": 56,
        "9166": 31,
        "9167": 57,
        "9168": 104,
        "9169": 5,
        "9170": 69,
        "9171": 102,
        "9172": 207,
        "9173": 8,
        "9174": 177,
        "9175": 161,
        "9176": 117,
        "9177": 126,
        "9178": 53,
        "9179": 48,
        "9180": 129,
        "9181": 148,
        "9182": 140,
        "9183": 203,
        "9184": 133,
        "9185": 209,
        "9186": 240,
        "9187": 17,
        "9188": 33,
        "9189": 2,
        "9190": 214,
        "9191": 19,
        "9192": 41,
        "9193": 170,
        "9194": 214,
        "9195": 210,
        "9196": 248,
        "9197": 20,
        "9198": 42,
        "9199": 62,
        "9200": 49,
        "9201": 49,
        "9202": 131,
        "9203": 87,
        "9204": 226,
        "9205": 218,
        "9206": 71,
        "9207": 95,
        "9208": 31,
        "9209": 231,
        "9210": 234,
        "9211": 122,
        "9212": 216,
        "9213": 126,
        "9214": 232,
        "9215": 155,
        "9216": 149,
        "9217": 160,
        "9218": 93,
        "9219": 165,
        "9220": 130,
        "9221": 130,
        "9222": 159,
        "9223": 47,
        "9224": 127,
        "9225": 77,
        "9226": 130,
        "9227": 137,
        "9228": 95,
        "9229": 68,
        "9230": 136,
        "9231": 175,
        "9232": 163,
        "9233": 81,
        "9234": 221,
        "9235": 126,
        "9236": 156,
        "9237": 62,
        "9238": 113,
        "9239": 154,
        "9240": 43,
        "9241": 12,
        "9242": 212,
        "9243": 182,
        "9244": 213,
        "9245": 138,
        "9246": 110,
        "9247": 219,
        "9248": 22,
        "9249": 7,
        "9250": 151,
        "9251": 2,
        "9252": 47,
        "9253": 26,
        "9254": 175,
        "9255": 15,
        "9256": 38,
        "9257": 20,
        "9258": 224,
        "9259": 124,
        "9260": 142,
        "9261": 40,
        "9262": 1,
        "9263": 152,
        "9264": 43,
        "9265": 110,
        "9266": 229,
        "9267": 33,
        "9268": 231,
        "9269": 160,
        "9270": 101,
        "9271": 10,
        "9272": 35,
        "9273": 168,
        "9274": 15,
        "9275": 60,
        "9276": 229,
        "9277": 88,
        "9278": 159,
        "9279": 125,
        "9280": 99,
        "9281": 195,
        "9282": 229,
        "9283": 34,
        "9284": 227,
        "9285": 16,
        "9286": 185,
        "9287": 181,
        "9288": 180,
        "9289": 18,
        "9290": 213,
        "9291": 253,
        "9292": 175,
        "9293": 58,
        "9294": 249,
        "9295": 243,
        "9296": 231,
        "9297": 168,
        "9298": 187,
        "9299": 249,
        "9300": 136,
        "9301": 14,
        "9302": 87,
        "9303": 165,
        "9304": 240,
        "9305": 106,
        "9306": 179,
        "9307": 183,
        "9308": 17,
        "9309": 126,
        "9310": 16,
        "9311": 24,
        "9312": 169,
        "9313": 216,
        "9314": 42,
        "9315": 80,
        "9316": 173,
        "9317": 219,
        "9318": 125,
        "9319": 57,
        "9320": 246,
        "9321": 55,
        "9322": 31,
        "9323": 198,
        "9324": 52,
        "9325": 181,
        "9326": 112,
        "9327": 113,
        "9328": 27,
        "9329": 185,
        "9330": 31,
        "9331": 131,
        "9332": 17,
        "9333": 93,
        "9334": 64,
        "9335": 247,
        "9336": 108,
        "9337": 162,
        "9338": 69,
        "9339": 123,
        "9340": 67,
        "9341": 128,
        "9342": 130,
        "9343": 124,
        "9344": 58,
        "9345": 11,
        "9346": 252,
        "9347": 93,
        "9348": 204,
        "9349": 150,
        "9350": 73,
        "9351": 83,
        "9352": 206,
        "9353": 226,
        "9354": 171,
        "9355": 242,
        "9356": 12,
        "9357": 82,
        "9358": 38,
        "9359": 41,
        "9360": 154,
        "9361": 203,
        "9362": 220,
        "9363": 23,
        "9364": 174,
        "9365": 97,
        "9366": 28,
        "9367": 147,
        "9368": 216,
        "9369": 162,
        "9370": 133,
        "9371": 26,
        "9372": 177,
        "9373": 218,
        "9374": 223,
        "9375": 151,
        "9376": 46,
        "9377": 182,
        "9378": 214,
        "9379": 97,
        "9380": 233,
        "9381": 64,
        "9382": 126,
        "9383": 248,
        "9384": 62,
        "9385": 63,
        "9386": 8,
        "9387": 195,
        "9388": 124,
        "9389": 101,
        "9390": 148,
        "9391": 104,
        "9392": 234,
        "9393": 196,
        "9394": 14,
        "9395": 75,
        "9396": 145,
        "9397": 194,
        "9398": 158,
        "9399": 229,
        "9400": 67,
        "9401": 223,
        "9402": 28,
        "9403": 119,
        "9404": 108,
        "9405": 113,
        "9406": 16,
        "9407": 224,
        "9408": 51,
        "9409": 126,
        "9410": 249,
        "9411": 198,
        "9412": 90,
        "9413": 175,
        "9414": 3,
        "9415": 135,
        "9416": 128,
        "9417": 153,
        "9418": 225,
        "9419": 56,
        "9420": 66,
        "9421": 159,
        "9422": 240,
        "9423": 71,
        "9424": 50,
        "9425": 108,
        "9426": 112,
        "9427": 188,
        "9428": 157,
        "9429": 235,
        "9430": 247,
        "9431": 115,
        "9432": 99,
        "9433": 167,
        "9434": 240,
        "9435": 44,
        "9436": 160,
        "9437": 253,
        "9438": 243,
        "9439": 190,
        "9440": 61,
        "9441": 237,
        "9442": 45,
        "9443": 134,
        "9444": 20,
        "9445": 63,
        "9446": 207,
        "9447": 32,
        "9448": 77,
        "9449": 195,
        "9450": 72,
        "9451": 62,
        "9452": 136,
        "9453": 103,
        "9454": 97,
        "9455": 103,
        "9456": 134,
        "9457": 108,
        "9458": 1,
        "9459": 137,
        "9460": 167,
        "9461": 111,
        "9462": 241,
        "9463": 136,
        "9464": 90,
        "9465": 69,
        "9466": 141,
        "9467": 157,
        "9468": 113,
        "9469": 131,
        "9470": 226,
        "9471": 44,
        "9472": 38,
        "9473": 158,
        "9474": 78,
        "9475": 15,
        "9476": 221,
        "9477": 230,
        "9478": 154,
        "9479": 28,
        "9480": 209,
        "9481": 234,
        "9482": 165,
        "9483": 52,
        "9484": 47,
        "9485": 162,
        "9486": 99,
        "9487": 109,
        "9488": 204,
        "9489": 1,
        "9490": 170,
        "9491": 66,
        "9492": 124,
        "9493": 146,
        "9494": 173,
        "9495": 150,
        "9496": 110,
        "9497": 186,
        "9498": 19,
        "9499": 18,
        "9500": 235,
        "9501": 132,
        "9502": 61,
        "9503": 97,
        "9504": 2,
        "9505": 134,
        "9506": 201,
        "9507": 206,
        "9508": 1,
        "9509": 15,
        "9510": 18,
        "9511": 42,
        "9512": 165,
        "9513": 23,
        "9514": 168,
        "9515": 230,
        "9516": 222,
        "9517": 163,
        "9518": 45,
        "9519": 191,
        "9520": 161,
        "9521": 46,
        "9522": 216,
        "9523": 108,
        "9524": 110,
        "9525": 171,
        "9526": 163,
        "9527": 191,
        "9528": 83,
        "9529": 6,
        "9530": 14,
        "9531": 168,
        "9532": 238,
        "9533": 97,
        "9534": 210,
        "9535": 96,
        "9536": 203,
        "9537": 255,
        "9538": 116,
        "9539": 101,
        "9540": 239,
        "9541": 102,
        "9542": 100,
        "9543": 130,
        "9544": 98,
        "9545": 82,
        "9546": 241,
        "9547": 87,
        "9548": 193,
        "9549": 55,
        "9550": 18,
        "9551": 96,
        "9552": 160,
        "9553": 134,
        "9554": 253,
        "9555": 220,
        "9556": 33,
        "9557": 105,
        "9558": 201,
        "9559": 226,
        "9560": 244,
        "9561": 131,
        "9562": 185,
        "9563": 236,
        "9564": 246,
        "9565": 93,
        "9566": 158,
        "9567": 45,
        "9568": 61,
        "9569": 241,
        "9570": 124,
        "9571": 116,
        "9572": 226,
        "9573": 9,
        "9574": 233,
        "9575": 34,
        "9576": 201,
        "9577": 52,
        "9578": 120,
        "9579": 139,
        "9580": 44,
        "9581": 124,
        "9582": 142,
        "9583": 11,
        "9584": 58,
        "9585": 138,
        "9586": 107,
        "9587": 8,
        "9588": 29,
        "9589": 149,
        "9590": 170,
        "9591": 176,
        "9592": 16,
        "9593": 158,
        "9594": 137,
        "9595": 246,
        "9596": 87,
        "9597": 133,
        "9598": 247,
        "9599": 151,
        "9600": 95,
        "9601": 14,
        "9602": 29,
        "9603": 252,
        "9604": 126,
        "9605": 156,
        "9606": 163,
        "9607": 236,
        "9608": 146,
        "9609": 34,
        "9610": 111,
        "9611": 234,
        "9612": 212,
        "9613": 67,
        "9614": 31,
        "9615": 42,
        "9616": 138,
        "9617": 129,
        "9618": 203,
        "9619": 128,
        "9620": 182,
        "9621": 178,
        "9622": 213,
        "9623": 91,
        "9624": 129,
        "9625": 162,
        "9626": 195,
        "9627": 104,
        "9628": 74,
        "9629": 148,
        "9630": 125,
        "9631": 109,
        "9632": 22,
        "9633": 210,
        "9634": 141,
        "9635": 85,
        "9636": 93,
        "9637": 144,
        "9638": 248,
        "9639": 105,
        "9640": 118,
        "9641": 95,
        "9642": 205,
        "9643": 166,
        "9644": 228,
        "9645": 255,
        "9646": 187,
        "9647": 224,
        "9648": 74,
        "9649": 18,
        "9650": 25,
        "9651": 80,
        "9652": 217,
        "9653": 207,
        "9654": 8,
        "9655": 61,
        "9656": 254,
        "9657": 96,
        "9658": 207,
        "9659": 185,
        "9660": 94,
        "9661": 77,
        "9662": 111,
        "9663": 128,
        "9664": 218,
        "9665": 42,
        "9666": 199,
        "9667": 90,
        "9668": 71,
        "9669": 64,
        "9670": 58,
        "9671": 88,
        "9672": 85,
        "9673": 91,
        "9674": 222,
        "9675": 94,
        "9676": 116,
        "9677": 222,
        "9678": 136,
        "9679": 152,
        "9680": 90,
        "9681": 122,
        "9682": 92,
        "9683": 12,
        "9684": 15,
        "9685": 28,
        "9686": 103,
        "9687": 200,
        "9688": 226,
        "9689": 189,
        "9690": 208,
        "9691": 168,
        "9692": 242,
        "9693": 69,
        "9694": 41,
        "9695": 65,
        "9696": 200,
        "9697": 122,
        "9698": 16,
        "9699": 63,
        "9700": 200,
        "9701": 124,
        "9702": 126,
        "9703": 105,
        "9704": 85,
        "9705": 63,
        "9706": 10,
        "9707": 248,
        "9708": 187,
        "9709": 171,
        "9710": 13,
        "9711": 226,
        "9712": 13,
        "9713": 243,
        "9714": 155,
        "9715": 190,
        "9716": 61,
        "9717": 215,
        "9718": 190,
        "9719": 145,
        "9720": 87,
        "9721": 175,
        "9722": 150,
        "9723": 122,
        "9724": 147,
        "9725": 75,
        "9726": 146,
        "9727": 9,
        "9728": 52,
        "9729": 157,
        "9730": 226,
        "9731": 69,
        "9732": 215,
        "9733": 253,
        "9734": 11,
        "9735": 44,
        "9736": 66,
        "9737": 250,
        "9738": 106,
        "9739": 214,
        "9740": 128,
        "9741": 203,
        "9742": 66,
        "9743": 203,
        "9744": 0,
        "9745": 27,
        "9746": 215,
        "9747": 246,
        "9748": 192,
        "9749": 136,
        "9750": 124,
        "9751": 213,
        "9752": 124,
        "9753": 109,
        "9754": 64,
        "9755": 206,
        "9756": 135,
        "9757": 6,
        "9758": 60,
        "9759": 215,
        "9760": 171,
        "9761": 203,
        "9762": 136,
        "9763": 197,
        "9764": 253,
        "9765": 13,
        "9766": 197,
        "9767": 57,
        "9768": 57,
        "9769": 33,
        "9770": 173,
        "9771": 188,
        "9772": 8,
        "9773": 123,
        "9774": 183,
        "9775": 67,
        "9776": 121,
        "9777": 247,
        "9778": 121,
        "9779": 35,
        "9780": 177,
        "9781": 101,
        "9782": 91,
        "9783": 146,
        "9784": 127,
        "9785": 68,
        "9786": 181,
        "9787": 197,
        "9788": 113,
        "9789": 141,
        "9790": 104,
        "9791": 36,
        "9792": 201,
        "9793": 131,
        "9794": 60,
        "9795": 141,
        "9796": 139,
        "9797": 173,
        "9798": 213,
        "9799": 218,
        "9800": 110,
        "9801": 19,
        "9802": 107,
        "9803": 86,
        "9804": 61,
        "9805": 86,
        "9806": 68,
        "9807": 211,
        "9808": 157,
        "9809": 191,
        "9810": 55,
        "9811": 158,
        "9812": 212,
        "9813": 124,
        "9814": 123,
        "9815": 219,
        "9816": 105,
        "9817": 3,
        "9818": 23,
        "9819": 241,
        "9820": 195,
        "9821": 12,
        "9822": 68,
        "9823": 51,
        "9824": 220,
        "9825": 133,
        "9826": 247,
        "9827": 135,
        "9828": 129,
        "9829": 182,
        "9830": 241,
        "9831": 169,
        "9832": 142,
        "9833": 228,
        "9834": 80,
        "9835": 10,
        "9836": 129,
        "9837": 45,
        "9838": 16,
        "9839": 21,
        "9840": 233,
        "9841": 98,
        "9842": 245,
        "9843": 97,
        "9844": 76,
        "9845": 128,
        "9846": 230,
        "9847": 188,
        "9848": 128,
        "9849": 194,
        "9850": 24,
        "9851": 204,
        "9852": 119,
        "9853": 0,
        "9854": 119,
        "9855": 75,
        "9856": 179,
        "9857": 123,
        "9858": 146,
        "9859": 78,
        "9860": 98,
        "9861": 231,
        "9862": 187,
        "9863": 200,
        "9864": 130,
        "9865": 231,
        "9866": 2,
        "9867": 7,
        "9868": 6,
        "9869": 39,
        "9870": 201,
        "9871": 138,
        "9872": 245,
        "9873": 121,
        "9874": 111,
        "9875": 109,
        "9876": 89,
        "9877": 93,
        "9878": 2,
        "9879": 171,
        "9880": 194,
        "9881": 108,
        "9882": 17,
        "9883": 103,
        "9884": 134,
        "9885": 45,
        "9886": 184,
        "9887": 165,
        "9888": 94,
        "9889": 127,
        "9890": 145,
        "9891": 175,
        "9892": 242,
        "9893": 126,
        "9894": 127,
        "9895": 47,
        "9896": 116,
        "9897": 187,
        "9898": 215,
        "9899": 7,
        "9900": 198,
        "9901": 74,
        "9902": 159,
        "9903": 39,
        "9904": 133,
        "9905": 167,
        "9906": 121,
        "9907": 10,
        "9908": 253,
        "9909": 40,
        "9910": 31,
        "9911": 1,
        "9912": 225,
        "9913": 249,
        "9914": 34,
        "9915": 85,
        "9916": 37,
        "9917": 236,
        "9918": 110,
        "9919": 10,
        "9920": 144,
        "9921": 66,
        "9922": 218,
        "9923": 26,
        "9924": 4,
        "9925": 170,
        "9926": 189,
        "9927": 182,
        "9928": 27,
        "9929": 175,
        "9930": 250,
        "9931": 238,
        "9932": 128,
        "9933": 84,
        "9934": 95,
        "9935": 80,
        "9936": 134,
        "9937": 118,
        "9938": 24,
        "9939": 86,
        "9940": 148,
        "9941": 130,
        "9942": 31,
        "9943": 101,
        "9944": 83,
        "9945": 179,
        "9946": 228,
        "9947": 190,
        "9948": 219,
        "9949": 59,
        "9950": 129,
        "9951": 209,
        "9952": 185,
        "9953": 56,
        "9954": 102,
        "9955": 252,
        "9956": 144,
        "9957": 240,
        "9958": 178,
        "9959": 208,
        "9960": 98,
        "9961": 182,
        "9962": 18,
        "9963": 206,
        "9964": 0,
        "9965": 57,
        "9966": 98,
        "9967": 154,
        "9968": 82,
        "9969": 215,
        "9970": 81,
        "9971": 24,
        "9972": 195,
        "9973": 162,
        "9974": 88,
        "9975": 10,
        "9976": 140,
        "9977": 186,
        "9978": 162,
        "9979": 202,
        "9980": 41,
        "9981": 242,
        "9982": 159,
        "9983": 252,
        "9984": 216,
        "9985": 49,
        "9986": 193,
        "9987": 183,
        "9988": 105,
        "9989": 198,
        "9990": 195,
        "9991": 34,
        "9992": 77,
        "9993": 130,
        "9994": 186,
        "9995": 84,
        "9996": 50,
        "9997": 79,
        "9998": 44,
        "9999": 74,
        "10000": 18,
        "10001": 144,
        "10002": 64,
        "10003": 48,
        "10004": 32,
        "10005": 106,
        "10006": 22,
        "10007": 20,
        "10008": 52,
        "10009": 155,
        "10010": 37,
        "10011": 51,
        "10012": 190,
        "10013": 207,
        "10014": 154,
        "10015": 240,
        "10016": 159,
        "10017": 175,
        "10018": 83,
        "10019": 72,
        "10020": 253,
        "10021": 120,
        "10022": 188,
        "10023": 138,
        "10024": 236,
        "10025": 80,
        "10026": 13,
        "10027": 237,
        "10028": 41,
        "10029": 109,
        "10030": 159,
        "10031": 224,
        "10032": 151,
        "10033": 131,
        "10034": 79,
        "10035": 223,
        "10036": 221,
        "10037": 175,
        "10038": 69,
        "10039": 95,
        "10040": 4,
        "10041": 184,
        "10042": 172,
        "10043": 112,
        "10044": 170,
        "10045": 100,
        "10046": 230,
        "10047": 198,
        "10048": 4,
        "10049": 112,
        "10050": 237,
        "10051": 229,
        "10052": 183,
        "10053": 88,
        "10054": 208,
        "10055": 249,
        "10056": 101,
        "10057": 119,
        "10058": 76,
        "10059": 248,
        "10060": 112,
        "10061": 162,
        "10062": 122,
        "10063": 123,
        "10064": 252,
        "10065": 223,
        "10066": 238,
        "10067": 7,
        "10068": 136,
        "10069": 134,
        "10070": 118,
        "10071": 41,
        "10072": 254,
        "10073": 127,
        "10074": 255,
        "10075": 44,
        "10076": 239,
        "10077": 165,
        "10078": 49,
        "10079": 173,
        "10080": 35,
        "10081": 123,
        "10082": 155,
        "10083": 82,
        "10084": 61,
        "10085": 117,
        "10086": 22,
        "10087": 235,
        "10088": 154,
        "10089": 8,
        "10090": 25,
        "10091": 116,
        "10092": 35,
        "10093": 236,
        "10094": 2,
        "10095": 122,
        "10096": 59,
        "10097": 7,
        "10098": 148,
        "10099": 215,
        "10100": 127,
        "10101": 16,
        "10102": 126,
        "10103": 14,
        "10104": 252,
        "10105": 0,
        "10106": 130,
        "10107": 110,
        "10108": 164,
        "10109": 238,
        "10110": 206,
        "10111": 30,
        "10112": 193,
        "10113": 209,
        "10114": 7,
        "10115": 201,
        "10116": 32,
        "10117": 155,
        "10118": 32,
        "10119": 191,
        "10120": 163,
        "10121": 95,
        "10122": 0,
        "10123": 160,
        "10124": 44,
        "10125": 138,
        "10126": 178,
        "10127": 81,
        "10128": 179,
        "10129": 81,
        "10130": 89,
        "10131": 38,
        "10132": 21,
        "10133": 4,
        "10134": 184,
        "10135": 122,
        "10136": 119,
        "10137": 170,
        "10138": 159,
        "10139": 197,
        "10140": 232,
        "10141": 196,
        "10142": 123,
        "10143": 23,
        "10144": 73,
        "10145": 127,
        "10146": 241,
        "10147": 167,
        "10148": 174,
        "10149": 42,
        "10150": 200,
        "10151": 136,
        "10152": 113,
        "10153": 202,
        "10154": 131,
        "10155": 114,
        "10156": 176,
        "10157": 89,
        "10158": 181,
        "10159": 48,
        "10160": 132,
        "10161": 157,
        "10162": 53,
        "10163": 112,
        "10164": 13,
        "10165": 149,
        "10166": 152,
        "10167": 151,
        "10168": 111,
        "10169": 214,
        "10170": 88,
        "10171": 101,
        "10172": 251,
        "10173": 154,
        "10174": 226,
        "10175": 189,
        "10176": 85,
        "10177": 250,
        "10178": 109,
        "10179": 54,
        "10180": 47,
        "10181": 187,
        "10182": 210,
        "10183": 119,
        "10184": 175,
        "10185": 4,
        "10186": 119,
        "10187": 155,
        "10188": 135,
        "10189": 216,
        "10190": 82,
        "10191": 124,
        "10192": 118,
        "10193": 142,
        "10194": 245,
        "10195": 73,
        "10196": 3,
        "10197": 147,
        "10198": 195,
        "10199": 236,
        "10200": 195,
        "10201": 178,
        "10202": 127,
        "10203": 153,
        "10204": 135,
        "10205": 49,
        "10206": 95,
        "10207": 114,
        "10208": 29,
        "10209": 160,
        "10210": 207,
        "10211": 139,
        "10212": 235,
        "10213": 41,
        "10214": 17,
        "10215": 162,
        "10216": 32,
        "10217": 51,
        "10218": 152,
        "10219": 187,
        "10220": 0,
        "10221": 62,
        "10222": 44,
        "10223": 23,
        "10224": 138,
        "10225": 230,
        "10226": 93,
        "10227": 99,
        "10228": 215,
        "10229": 116,
        "10230": 139,
        "10231": 166,
        "10232": 30,
        "10233": 134,
        "10234": 72,
        "10235": 85,
        "10236": 7,
        "10237": 128,
        "10238": 72,
        "10239": 205,
        "10240": 115,
        "10241": 192,
        "10242": 147,
        "10243": 27,
        "10244": 17,
        "10245": 55,
        "10246": 136,
        "10247": 166,
        "10248": 169,
        "10249": 168,
        "10250": 50,
        "10251": 176,
        "10252": 38,
        "10253": 153,
        "10254": 235,
        "10255": 37,
        "10256": 35,
        "10257": 174,
        "10258": 106,
        "10259": 149,
        "10260": 18,
        "10261": 243,
        "10262": 210,
        "10263": 203,
        "10264": 179,
        "10265": 211,
        "10266": 188,
        "10267": 87,
        "10268": 213,
        "10269": 36,
        "10270": 43,
        "10271": 187,
        "10272": 43,
        "10273": 15,
        "10274": 20,
        "10275": 14,
        "10276": 39,
        "10277": 78,
        "10278": 29,
        "10279": 21,
        "10280": 49,
        "10281": 133,
        "10282": 31,
        "10283": 204,
        "10284": 212,
        "10285": 107,
        "10286": 250,
        "10287": 203,
        "10288": 22,
        "10289": 27,
        "10290": 171,
        "10291": 192,
        "10292": 40,
        "10293": 226,
        "10294": 61,
        "10295": 143,
        "10296": 78,
        "10297": 13,
        "10298": 92,
        "10299": 175,
        "10300": 218,
        "10301": 9,
        "10302": 30,
        "10303": 156,
        "10304": 227,
        "10305": 203,
        "10306": 178,
        "10307": 248,
        "10308": 46,
        "10309": 203,
        "10310": 150,
        "10311": 1,
        "10312": 61,
        "10313": 165,
        "10314": 26,
        "10315": 83,
        "10316": 119,
        "10317": 177,
        "10318": 66,
        "10319": 222,
        "10320": 46,
        "10321": 193,
        "10322": 137,
        "10323": 109,
        "10324": 243,
        "10325": 139,
        "10326": 241,
        "10327": 137,
        "10328": 127,
        "10329": 220,
        "10330": 99,
        "10331": 79,
        "10332": 68,
        "10333": 123,
        "10334": 213,
        "10335": 133,
        "10336": 30,
        "10337": 73,
        "10338": 28,
        "10339": 86,
        "10340": 23,
        "10341": 249,
        "10342": 207,
        "10343": 90,
        "10344": 109,
        "10345": 193,
        "10346": 133,
        "10347": 81,
        "10348": 65,
        "10349": 232,
        "10350": 244,
        "10351": 2,
        "10352": 216,
        "10353": 16,
        "10354": 64,
        "10355": 116,
        "10356": 146,
        "10357": 88,
        "10358": 201,
        "10359": 150,
        "10360": 23,
        "10361": 43,
        "10362": 184,
        "10363": 147,
        "10364": 137,
        "10365": 68,
        "10366": 100,
        "10367": 10,
        "10368": 217,
        "10369": 60,
        "10370": 249,
        "10371": 64,
        "10372": 251,
        "10373": 177,
        "10374": 164,
        "10375": 226,
        "10376": 7,
        "10377": 104,
        "10378": 225,
        "10379": 118,
        "10380": 122,
        "10381": 225,
        "10382": 19,
        "10383": 99,
        "10384": 220,
        "10385": 101,
        "10386": 208,
        "10387": 176,
        "10388": 201,
        "10389": 109,
        "10390": 140,
        "10391": 4,
        "10392": 220,
        "10393": 159,
        "10394": 221,
        "10395": 181,
        "10396": 76,
        "10397": 31,
        "10398": 220,
        "10399": 156,
        "10400": 128,
        "10401": 31,
        "10402": 110,
        "10403": 157,
        "10404": 52,
        "10405": 107,
        "10406": 77,
        "10407": 142,
        "10408": 159,
        "10409": 223,
        "10410": 253,
        "10411": 254,
        "10412": 232,
        "10413": 116,
        "10414": 100,
        "10415": 217,
        "10416": 44,
        "10417": 222,
        "10418": 35,
        "10419": 53,
        "10420": 252,
        "10421": 163,
        "10422": 221,
        "10423": 44,
        "10424": 99,
        "10425": 59,
        "10426": 84,
        "10427": 250,
        "10428": 153,
        "10429": 75,
        "10430": 208,
        "10431": 215,
        "10432": 27,
        "10433": 210,
        "10434": 8,
        "10435": 128,
        "10436": 34,
        "10437": 116,
        "10438": 165,
        "10439": 82,
        "10440": 51,
        "10441": 42,
        "10442": 197,
        "10443": 152,
        "10444": 17,
        "10445": 21,
        "10446": 134,
        "10447": 53,
        "10448": 149,
        "10449": 139,
        "10450": 125,
        "10451": 170,
        "10452": 196,
        "10453": 172,
        "10454": 251,
        "10455": 1,
        "10456": 78,
        "10457": 1,
        "10458": 46,
        "10459": 162,
        "10460": 8,
        "10461": 215,
        "10462": 94,
        "10463": 163,
        "10464": 43,
        "10465": 146,
        "10466": 70,
        "10467": 78,
        "10468": 222,
        "10469": 97,
        "10470": 39,
        "10471": 129,
        "10472": 115,
        "10473": 106,
        "10474": 251,
        "10475": 131,
        "10476": 153,
        "10477": 102,
        "10478": 142,
        "10479": 15,
        "10480": 170,
        "10481": 134,
        "10482": 73,
        "10483": 92,
        "10484": 167,
        "10485": 122,
        "10486": 191,
        "10487": 196,
        "10488": 107,
        "10489": 147,
        "10490": 83,
        "10491": 225,
        "10492": 53,
        "10493": 139,
        "10494": 57,
        "10495": 136,
        "10496": 211,
        "10497": 81,
        "10498": 141,
        "10499": 193,
        "10500": 70,
        "10501": 67,
        "10502": 181,
        "10503": 44,
        "10504": 99,
        "10505": 176,
        "10506": 66,
        "10507": 186,
        "10508": 178,
        "10509": 141,
        "10510": 165,
        "10511": 249,
        "10512": 16,
        "10513": 65,
        "10514": 175,
        "10515": 94,
        "10516": 202,
        "10517": 50,
        "10518": 92,
        "10519": 136,
        "10520": 46,
        "10521": 240,
        "10522": 156,
        "10523": 64,
        "10524": 60,
        "10525": 148,
        "10526": 159,
        "10527": 65,
        "10528": 198,
        "10529": 82,
        "10530": 121,
        "10531": 122,
        "10532": 231,
        "10533": 209,
        "10534": 106,
        "10535": 64,
        "10536": 61,
        "10537": 13,
        "10538": 245,
        "10539": 31,
        "10540": 129,
        "10541": 134,
        "10542": 111,
        "10543": 221,
        "10544": 150,
        "10545": 158,
        "10546": 248,
        "10547": 9,
        "10548": 109,
        "10549": 194,
        "10550": 193,
        "10551": 193,
        "10552": 68,
        "10553": 162,
        "10554": 228,
        "10555": 138,
        "10556": 32,
        "10557": 106,
        "10558": 61,
        "10559": 79,
        "10560": 232,
        "10561": 56,
        "10562": 10,
        "10563": 102,
        "10564": 227,
        "10565": 196,
        "10566": 197,
        "10567": 43,
        "10568": 119,
        "10569": 155,
        "10570": 1,
        "10571": 17,
        "10572": 220,
        "10573": 17,
        "10574": 235,
        "10575": 142,
        "10576": 98,
        "10577": 69,
        "10578": 50,
        "10579": 171,
        "10580": 128,
        "10581": 253,
        "10582": 66,
        "10583": 191,
        "10584": 84,
        "10585": 128,
        "10586": 161,
        "10587": 245,
        "10588": 196,
        "10589": 23,
        "10590": 202,
        "10591": 5,
        "10592": 213,
        "10593": 101,
        "10594": 78,
        "10595": 156,
        "10596": 249,
        "10597": 243,
        "10598": 225,
        "10599": 166,
        "10600": 175,
        "10601": 36,
        "10602": 230,
        "10603": 28,
        "10604": 71,
        "10605": 6,
        "10606": 207,
        "10607": 57,
        "10608": 38,
        "10609": 173,
        "10610": 58,
        "10611": 188,
        "10612": 255,
        "10613": 195,
        "10614": 92,
        "10615": 146,
        "10616": 185,
        "10617": 219,
        "10618": 74,
        "10619": 114,
        "10620": 82,
        "10621": 109,
        "10622": 18,
        "10623": 24,
        "10624": 209,
        "10625": 185,
        "10626": 197,
        "10627": 203,
        "10628": 21,
        "10629": 1,
        "10630": 228,
        "10631": 180,
        "10632": 136,
        "10633": 244,
        "10634": 38,
        "10635": 34,
        "10636": 6,
        "10637": 229,
        "10638": 207,
        "10639": 69,
        "10640": 211,
        "10641": 58,
        "10642": 212,
        "10643": 233,
        "10644": 27,
        "10645": 164,
        "10646": 242,
        "10647": 117,
        "10648": 195,
        "10649": 205,
        "10650": 12,
        "10651": 56,
        "10652": 172,
        "10653": 33,
        "10654": 85,
        "10655": 214,
        "10656": 184,
        "10657": 4,
        "10658": 248,
        "10659": 157,
        "10660": 156,
        "10661": 72,
        "10662": 234,
        "10663": 190,
        "10664": 27,
        "10665": 88,
        "10666": 88,
        "10667": 53,
        "10668": 20,
        "10669": 59,
        "10670": 58,
        "10671": 190,
        "10672": 72,
        "10673": 183,
        "10674": 130,
        "10675": 104,
        "10676": 177,
        "10677": 166,
        "10678": 199,
        "10679": 106,
        "10680": 237,
        "10681": 80,
        "10682": 251,
        "10683": 197,
        "10684": 65,
        "10685": 46,
        "10686": 17,
        "10687": 191,
        "10688": 53,
        "10689": 166,
        "10690": 65,
        "10691": 93,
        "10692": 2,
        "10693": 158,
        "10694": 38,
        "10695": 7,
        "10696": 213,
        "10697": 225,
        "10698": 88,
        "10699": 220,
        "10700": 111,
        "10701": 113,
        "10702": 239,
        "10703": 37,
        "10704": 231,
        "10705": 136,
        "10706": 216,
        "10707": 129,
        "10708": 188,
        "10709": 107,
        "10710": 84,
        "10711": 9,
        "10712": 179,
        "10713": 213,
        "10714": 32,
        "10715": 83,
        "10716": 129,
        "10717": 193,
        "10718": 112,
        "10719": 234,
        "10720": 253,
        "10721": 42,
        "10722": 114,
        "10723": 218,
        "10724": 184,
        "10725": 231,
        "10726": 127,
        "10727": 233,
        "10728": 210,
        "10729": 239,
        "10730": 5,
        "10731": 63,
        "10732": 101,
        "10733": 80,
        "10734": 233,
        "10735": 163,
        "10736": 24,
        "10737": 94,
        "10738": 225,
        "10739": 102,
        "10740": 219,
        "10741": 35,
        "10742": 41,
        "10743": 137,
        "10744": 81,
        "10745": 146,
        "10746": 144,
        "10747": 52,
        "10748": 138,
        "10749": 207,
        "10750": 84,
        "10751": 26,
        "10752": 155,
        "10753": 188,
        "10754": 249,
        "10755": 85,
        "10756": 29,
        "10757": 237,
        "10758": 13,
        "10759": 222,
        "10760": 69,
        "10761": 244,
        "10762": 29,
        "10763": 48,
        "10764": 205,
        "10765": 198,
        "10766": 114,
        "10767": 76,
        "10768": 134,
        "10769": 98,
        "10770": 131,
        "10771": 206,
        "10772": 115,
        "10773": 157,
        "10774": 224,
        "10775": 200,
        "10776": 7,
        "10777": 180,
        "10778": 96,
        "10779": 119,
        "10780": 133,
        "10781": 29,
        "10782": 152,
        "10783": 236,
        "10784": 239,
        "10785": 109,
        "10786": 22,
        "10787": 114,
        "10788": 15,
        "10789": 51,
        "10790": 84,
        "10791": 197,
        "10792": 77,
        "10793": 139,
        "10794": 112,
        "10795": 143,
        "10796": 57,
        "10797": 158,
        "10798": 94,
        "10799": 10,
        "10800": 161,
        "10801": 62,
        "10802": 57,
        "10803": 62,
        "10804": 93,
        "10805": 32,
        "10806": 89,
        "10807": 224,
        "10808": 183,
        "10809": 59,
        "10810": 140,
        "10811": 231,
        "10812": 107,
        "10813": 84,
        "10814": 166,
        "10815": 91,
        "10816": 149,
        "10817": 107,
        "10818": 236,
        "10819": 101,
        "10820": 125,
        "10821": 47,
        "10822": 151,
        "10823": 120,
        "10824": 39,
        "10825": 240,
        "10826": 254,
        "10827": 82,
        "10828": 66,
        "10829": 11,
        "10830": 250,
        "10831": 136,
        "10832": 22,
        "10833": 200,
        "10834": 227,
        "10835": 105,
        "10836": 50,
        "10837": 181,
        "10838": 192,
        "10839": 14,
        "10840": 78,
        "10841": 81,
        "10842": 85,
        "10843": 151,
        "10844": 23,
        "10845": 49,
        "10846": 154,
        "10847": 88,
        "10848": 38,
        "10849": 121,
        "10850": 13,
        "10851": 9,
        "10852": 185,
        "10853": 0,
        "10854": 225,
        "10855": 204,
        "10856": 82,
        "10857": 239,
        "10858": 255,
        "10859": 205,
        "10860": 180,
        "10861": 119,
        "10862": 218,
        "10863": 52,
        "10864": 238,
        "10865": 165,
        "10866": 246,
        "10867": 226,
        "10868": 135,
        "10869": 87,
        "10870": 46,
        "10871": 123,
        "10872": 40,
        "10873": 146,
        "10874": 169,
        "10875": 40,
        "10876": 120,
        "10877": 140,
        "10878": 64,
        "10879": 120,
        "10880": 240,
        "10881": 196,
        "10882": 151,
        "10883": 57,
        "10884": 66,
        "10885": 199,
        "10886": 45,
        "10887": 89,
        "10888": 68,
        "10889": 55,
        "10890": 234,
        "10891": 26,
        "10892": 252,
        "10893": 195,
        "10894": 243,
        "10895": 147,
        "10896": 7,
        "10897": 61,
        "10898": 123,
        "10899": 181,
        "10900": 41,
        "10901": 173,
        "10902": 250,
        "10903": 224,
        "10904": 166,
        "10905": 28,
        "10906": 241,
        "10907": 220,
        "10908": 94,
        "10909": 117,
        "10910": 247,
        "10911": 175,
        "10912": 228,
        "10913": 182,
        "10914": 74,
        "10915": 39,
        "10916": 146,
        "10917": 144,
        "10918": 96,
        "10919": 171,
        "10920": 231,
        "10921": 60,
        "10922": 244,
        "10923": 10,
        "10924": 221,
        "10925": 167,
        "10926": 14,
        "10927": 144,
        "10928": 172,
        "10929": 7,
        "10930": 190,
        "10931": 163,
        "10932": 198,
        "10933": 99,
        "10934": 216,
        "10935": 13,
        "10936": 53,
        "10937": 111,
        "10938": 76,
        "10939": 18,
        "10940": 61,
        "10941": 19,
        "10942": 32,
        "10943": 62,
        "10944": 58,
        "10945": 210,
        "10946": 97,
        "10947": 23,
        "10948": 248,
        "10949": 123,
        "10950": 104,
        "10951": 63,
        "10952": 10,
        "10953": 112,
        "10954": 56,
        "10955": 19,
        "10956": 53,
        "10957": 161,
        "10958": 247,
        "10959": 188,
        "10960": 18,
        "10961": 203,
        "10962": 67,
        "10963": 128,
        "10964": 99,
        "10965": 82,
        "10966": 202,
        "10967": 219,
        "10968": 99,
        "10969": 17,
        "10970": 80,
        "10971": 191,
        "10972": 163,
        "10973": 134,
        "10974": 236,
        "10975": 102,
        "10976": 59,
        "10977": 113,
        "10978": 139,
        "10979": 239,
        "10980": 10,
        "10981": 15,
        "10982": 84,
        "10983": 41,
        "10984": 233,
        "10985": 149,
        "10986": 132,
        "10987": 88,
        "10988": 206,
        "10989": 130,
        "10990": 129,
        "10991": 205,
        "10992": 176,
        "10993": 56,
        "10994": 70,
        "10995": 225,
        "10996": 16,
        "10997": 178,
        "10998": 245,
        "10999": 148,
        "11000": 131,
        "11001": 125,
        "11002": 135,
        "11003": 75,
        "11004": 153,
        "11005": 219,
        "11006": 118,
        "11007": 183,
        "11008": 42,
        "11009": 35,
        "11010": 229,
        "11011": 218,
        "11012": 222,
        "11013": 124,
        "11014": 22,
        "11015": 214,
        "11016": 22,
        "11017": 67,
        "11018": 7,
        "11019": 186,
        "11020": 73,
        "11021": 166,
        "11022": 146,
        "11023": 177,
        "11024": 200,
        "11025": 114,
        "11026": 215,
        "11027": 174,
        "11028": 242,
        "11029": 44,
        "11030": 43,
        "11031": 103,
        "11032": 200,
        "11033": 155,
        "11034": 150,
        "11035": 32,
        "11036": 93,
        "11037": 160,
        "11038": 116,
        "11039": 100,
        "11040": 223,
        "11041": 97,
        "11042": 218,
        "11043": 91,
        "11044": 7,
        "11045": 32,
        "11046": 218,
        "11047": 19,
        "11048": 79,
        "11049": 76,
        "11050": 40,
        "11051": 126,
        "11052": 49,
        "11053": 255,
        "11054": 54,
        "11055": 75,
        "11056": 113,
        "11057": 81,
        "11058": 78,
        "11059": 154,
        "11060": 98,
        "11061": 81,
        "11062": 229,
        "11063": 125,
        "11064": 71,
        "11065": 164,
        "11066": 34,
        "11067": 143,
        "11068": 106,
        "11069": 129,
        "11070": 20,
        "11071": 254,
        "11072": 113,
        "11073": 3,
        "11074": 159,
        "11075": 141,
        "11076": 67,
        "11077": 213,
        "11078": 123,
        "11079": 129,
        "11080": 127,
        "11081": 117,
        "11082": 233,
        "11083": 249,
        "11084": 61,
        "11085": 187,
        "11086": 166,
        "11087": 112,
        "11088": 202,
        "11089": 147,
        "11090": 68,
        "11091": 231,
        "11092": 63,
        "11093": 195,
        "11094": 100,
        "11095": 111,
        "11096": 192,
        "11097": 152,
        "11098": 71,
        "11099": 219,
        "11100": 20,
        "11101": 145,
        "11102": 135,
        "11103": 111,
        "11104": 96,
        "11105": 212,
        "11106": 46,
        "11107": 255,
        "11108": 224,
        "11109": 90,
        "11110": 27,
        "11111": 39,
        "11112": 76,
        "11113": 205,
        "11114": 253,
        "11115": 48,
        "11116": 152,
        "11117": 80,
        "11118": 1,
        "11119": 194,
        "11120": 205,
        "11121": 193,
        "11122": 85,
        "11123": 120,
        "11124": 71,
        "11125": 99,
        "11126": 156,
        "11127": 149,
        "11128": 166,
        "11129": 56,
        "11130": 158,
        "11131": 132,
        "11132": 157,
        "11133": 88,
        "11134": 169,
        "11135": 200,
        "11136": 157,
        "11137": 142,
        "11138": 109,
        "11139": 145,
        "11140": 207,
        "11141": 151,
        "11142": 189,
        "11143": 227,
        "11144": 151,
        "11145": 180,
        "11146": 31,
        "11147": 249,
        "11148": 165,
        "11149": 76,
        "11150": 197,
        "11151": 153,
        "11152": 48,
        "11153": 203,
        "11154": 225,
        "11155": 82,
        "11156": 159,
        "11157": 99,
        "11158": 130,
        "11159": 36,
        "11160": 119,
        "11161": 93,
        "11162": 8,
        "11163": 183,
        "11164": 131,
        "11165": 238,
        "11166": 152,
        "11167": 186,
        "11168": 209,
        "11169": 14,
        "11170": 130,
        "11171": 14,
        "11172": 229,
        "11173": 16,
        "11174": 2,
        "11175": 128,
        "11176": 31,
        "11177": 172,
        "11178": 250,
        "11179": 197,
        "11180": 161,
        "11181": 137,
        "11182": 172,
        "11183": 114,
        "11184": 187,
        "11185": 72,
        "11186": 35,
        "11187": 239,
        "11188": 44,
        "11189": 195,
        "11190": 13,
        "11191": 108,
        "11192": 164,
        "11193": 10,
        "11194": 153,
        "11195": 210,
        "11196": 2,
        "11197": 74,
        "11198": 35,
        "11199": 73,
        "11200": 224,
        "11201": 77,
        "11202": 91,
        "11203": 190,
        "11204": 227,
        "11205": 184,
        "11206": 70,
        "11207": 79,
        "11208": 16,
        "11209": 76,
        "11210": 169,
        "11211": 180,
        "11212": 101,
        "11213": 108,
        "11214": 47,
        "11215": 136,
        "11216": 75,
        "11217": 76,
        "11218": 112,
        "11219": 89,
        "11220": 7,
        "11221": 1,
        "11222": 204,
        "11223": 210,
        "11224": 155,
        "11225": 220,
        "11226": 56,
        "11227": 101,
        "11228": 180,
        "11229": 6,
        "11230": 171,
        "11231": 151,
        "11232": 132,
        "11233": 5,
        "11234": 82,
        "11235": 10,
        "11236": 32,
        "11237": 128,
        "11238": 24,
        "11239": 27,
        "11240": 58,
        "11241": 2,
        "11242": 229,
        "11243": 204,
        "11244": 122,
        "11245": 33,
        "11246": 177,
        "11247": 49,
        "11248": 56,
        "11249": 183,
        "11250": 232,
        "11251": 165,
        "11252": 74,
        "11253": 124,
        "11254": 236,
        "11255": 175,
        "11256": 150,
        "11257": 38,
        "11258": 116,
        "11259": 136,
        "11260": 204,
        "11261": 83,
        "11262": 25,
        "11263": 50,
        "11264": 161,
        "11265": 192,
        "11266": 229,
        "11267": 155,
        "11268": 150,
        "11269": 95,
        "11270": 69,
        "11271": 236,
        "11272": 118,
        "11273": 133,
        "11274": 171,
        "11275": 121,
        "11276": 22,
        "11277": 17,
        "11278": 133,
        "11279": 150,
        "11280": 206,
        "11281": 111,
        "11282": 25,
        "11283": 85,
        "11284": 242,
        "11285": 139,
        "11286": 16,
        "11287": 120,
        "11288": 27,
        "11289": 75,
        "11290": 222,
        "11291": 59,
        "11292": 80,
        "11293": 228,
        "11294": 165,
        "11295": 133,
        "11296": 126,
        "11297": 65,
        "11298": 149,
        "11299": 119,
        "11300": 231,
        "11301": 115,
        "11302": 12,
        "11303": 206,
        "11304": 89,
        "11305": 75,
        "11306": 99,
        "11307": 89,
        "11308": 237,
        "11309": 32,
        "11310": 41,
        "11311": 44,
        "11312": 211,
        "11313": 0,
        "11314": 9,
        "11315": 201,
        "11316": 29,
        "11317": 97,
        "11318": 213,
        "11319": 34,
        "11320": 228,
        "11321": 242,
        "11322": 177,
        "11323": 231,
        "11324": 93,
        "11325": 202,
        "11326": 67,
        "11327": 109,
        "11328": 196,
        "11329": 81,
        "11330": 32,
        "11331": 250,
        "11332": 60,
        "11333": 40,
        "11334": 31,
        "11335": 251,
        "11336": 62,
        "11337": 228,
        "11338": 7,
        "11339": 182,
        "11340": 82,
        "11341": 130,
        "11342": 23,
        "11343": 214,
        "11344": 79,
        "11345": 85,
        "11346": 200,
        "11347": 147,
        "11348": 131,
        "11349": 51,
        "11350": 241,
        "11351": 107,
        "11352": 113,
        "11353": 122,
        "11354": 195,
        "11355": 85,
        "11356": 89,
        "11357": 185,
        "11358": 164,
        "11359": 116,
        "11360": 93,
        "11361": 215,
        "11362": 52,
        "11363": 25,
        "11364": 127,
        "11365": 32,
        "11366": 107,
        "11367": 187,
        "11368": 9,
        "11369": 14,
        "11370": 64,
        "11371": 129,
        "11372": 157,
        "11373": 214,
        "11374": 162,
        "11375": 165,
        "11376": 7,
        "11377": 97,
        "11378": 109,
        "11379": 54,
        "11380": 171,
        "11381": 57,
        "11382": 97,
        "11383": 54,
        "11384": 84,
        "11385": 234,
        "11386": 147,
        "11387": 228,
        "11388": 110,
        "11389": 118,
        "11390": 190,
        "11391": 243,
        "11392": 207,
        "11393": 160,
        "11394": 168,
        "11395": 234,
        "11396": 107,
        "11397": 4,
        "11398": 45,
        "11399": 159,
        "11400": 84,
        "11401": 168,
        "11402": 89,
        "11403": 19,
        "11404": 159,
        "11405": 49,
        "11406": 116,
        "11407": 12,
        "11408": 137,
        "11409": 228,
        "11410": 222,
        "11411": 122,
        "11412": 125,
        "11413": 117,
        "11414": 125,
        "11415": 109,
        "11416": 135,
        "11417": 212,
        "11418": 218,
        "11419": 101,
        "11420": 182,
        "11421": 254,
        "11422": 41,
        "11423": 145,
        "11424": 234,
        "11425": 170,
        "11426": 189,
        "11427": 82,
        "11428": 122,
        "11429": 38,
        "11430": 53,
        "11431": 35,
        "11432": 189,
        "11433": 159,
        "11434": 196,
        "11435": 55,
        "11436": 98,
        "11437": 248,
        "11438": 62,
        "11439": 3,
        "11440": 66,
        "11441": 128,
        "11442": 185,
        "11443": 160,
        "11444": 121,
        "11445": 70,
        "11446": 240,
        "11447": 173,
        "11448": 20,
        "11449": 55,
        "11450": 218,
        "11451": 16,
        "11452": 193,
        "11453": 134,
        "11454": 76,
        "11455": 40,
        "11456": 236,
        "11457": 2,
        "11458": 161,
        "11459": 33,
        "11460": 211,
        "11461": 94,
        "11462": 236,
        "11463": 155,
        "11464": 215,
        "11465": 78,
        "11466": 68,
        "11467": 24,
        "11468": 31,
        "11469": 102,
        "11470": 143,
        "11471": 81,
        "11472": 253,
        "11473": 10,
        "11474": 145,
        "11475": 48,
        "11476": 166,
        "11477": 1,
        "11478": 187,
        "11479": 194,
        "11480": 8,
        "11481": 136,
        "11482": 217,
        "11483": 240,
        "11484": 20,
        "11485": 5,
        "11486": 118,
        "11487": 162,
        "11488": 149,
        "11489": 184,
        "11490": 254,
        "11491": 57,
        "11492": 154,
        "11493": 146,
        "11494": 0,
        "11495": 18,
        "11496": 27,
        "11497": 112,
        "11498": 45,
        "11499": 110,
        "11500": 142,
        "11501": 199,
        "11502": 54,
        "11503": 70,
        "11504": 153,
        "11505": 113,
        "11506": 146,
        "11507": 117,
        "11508": 191,
        "11509": 233,
        "11510": 212,
        "11511": 229,
        "11512": 38,
        "11513": 237,
        "11514": 30,
        "11515": 36,
        "11516": 127,
        "11517": 154,
        "11518": 200,
        "11519": 106,
        "11520": 178,
        "11521": 90,
        "11522": 195,
        "11523": 71,
        "11524": 235,
        "11525": 201,
        "11526": 148,
        "11527": 60,
        "11528": 52,
        "11529": 150,
        "11530": 71,
        "11531": 0,
        "11532": 28,
        "11533": 31,
        "11534": 150,
        "11535": 143,
        "11536": 132,
        "11537": 131,
        "11538": 252,
        "11539": 52,
        "11540": 127,
        "11541": 190,
        "11542": 45,
        "11543": 65,
        "11544": 76,
        "11545": 227,
        "11546": 181,
        "11547": 233,
        "11548": 15,
        "11549": 229,
        "11550": 58,
        "11551": 254,
        "11552": 121,
        "11553": 111,
        "11554": 97,
        "11555": 155,
        "11556": 243,
        "11557": 196,
        "11558": 244,
        "11559": 236,
        "11560": 200,
        "11561": 57,
        "11562": 218,
        "11563": 230,
        "11564": 22,
        "11565": 85,
        "11566": 154,
        "11567": 76,
        "11568": 238,
        "11569": 117,
        "11570": 43,
        "11571": 199,
        "11572": 234,
        "11573": 119,
        "11574": 38,
        "11575": 165,
        "11576": 249,
        "11577": 232,
        "11578": 232,
        "11579": 221,
        "11580": 255,
        "11581": 189,
        "11582": 82,
        "11583": 7,
        "11584": 138,
        "11585": 133,
        "11586": 53,
        "11587": 168,
        "11588": 27,
        "11589": 97,
        "11590": 152,
        "11591": 133,
        "11592": 203,
        "11593": 81,
        "11594": 55,
        "11595": 178,
        "11596": 100,
        "11597": 151,
        "11598": 240,
        "11599": 4,
        "11600": 117,
        "11601": 78,
        "11602": 193,
        "11603": 233,
        "11604": 105,
        "11605": 23,
        "11606": 20,
        "11607": 70,
        "11608": 242,
        "11609": 23,
        "11610": 19,
        "11611": 250,
        "11612": 231,
        "11613": 86,
        "11614": 45,
        "11615": 187,
        "11616": 195,
        "11617": 186,
        "11618": 76,
        "11619": 219,
        "11620": 42,
        "11621": 210,
        "11622": 87,
        "11623": 230,
        "11624": 208,
        "11625": 151,
        "11626": 140,
        "11627": 74,
        "11628": 60,
        "11629": 110,
        "11630": 163,
        "11631": 179,
        "11632": 113,
        "11633": 20,
        "11634": 136,
        "11635": 176,
        "11636": 224,
        "11637": 117,
        "11638": 245,
        "11639": 141,
        "11640": 122,
        "11641": 8,
        "11642": 147,
        "11643": 190,
        "11644": 247,
        "11645": 174,
        "11646": 224,
        "11647": 43,
        "11648": 80,
        "11649": 81,
        "11650": 188,
        "11651": 220,
        "11652": 122,
        "11653": 34,
        "11654": 162,
        "11655": 128,
        "11656": 158,
        "11657": 223,
        "11658": 116,
        "11659": 44,
        "11660": 132,
        "11661": 124,
        "11662": 220,
        "11663": 129,
        "11664": 189,
        "11665": 83,
        "11666": 67,
        "11667": 84,
        "11668": 58,
        "11669": 194,
        "11670": 29,
        "11671": 77,
        "11672": 57,
        "11673": 189,
        "11674": 212,
        "11675": 118,
        "11676": 36,
        "11677": 159,
        "11678": 167,
        "11679": 35,
        "11680": 31,
        "11681": 53,
        "11682": 52,
        "11683": 45,
        "11684": 213,
        "11685": 161,
        "11686": 152,
        "11687": 185,
        "11688": 96,
        "11689": 78,
        "11690": 0,
        "11691": 149,
        "11692": 209,
        "11693": 137,
        "11694": 194,
        "11695": 120,
        "11696": 166,
        "11697": 102,
        "11698": 74,
        "11699": 63,
        "11700": 100,
        "11701": 231,
        "11702": 230,
        "11703": 12,
        "11704": 9,
        "11705": 102,
        "11706": 205,
        "11707": 133,
        "11708": 21,
        "11709": 124,
        "11710": 233,
        "11711": 215,
        "11712": 153,
        "11713": 211,
        "11714": 148,
        "11715": 11,
        "11716": 246,
        "11717": 247,
        "11718": 79,
        "11719": 57,
        "11720": 52,
        "11721": 65,
        "11722": 167,
        "11723": 42,
        "11724": 20,
        "11725": 22,
        "11726": 8,
        "11727": 182,
        "11728": 101,
        "11729": 9,
        "11730": 82,
        "11731": 141,
        "11732": 173,
        "11733": 8,
        "11734": 129,
        "11735": 247,
        "11736": 238,
        "11737": 208,
        "11738": 104,
        "11739": 241,
        "11740": 159,
        "11741": 51,
        "11742": 133,
        "11743": 41,
        "11744": 134,
        "11745": 122,
        "11746": 77,
        "11747": 179,
        "11748": 204,
        "11749": 249,
        "11750": 230,
        "11751": 82,
        "11752": 126,
        "11753": 211,
        "11754": 205,
        "11755": 73,
        "11756": 63,
        "11757": 246,
        "11758": 209,
        "11759": 155,
        "11760": 207,
        "11761": 50,
        "11762": 94,
        "11763": 181,
        "11764": 44,
        "11765": 88,
        "11766": 175,
        "11767": 104,
        "11768": 38,
        "11769": 234,
        "11770": 6,
        "11771": 132,
        "11772": 96,
        "11773": 114,
        "11774": 12,
        "11775": 40,
        "11776": 248,
        "11777": 232,
        "11778": 230,
        "11779": 109,
        "11780": 60,
        "11781": 154,
        "11782": 107,
        "11783": 101,
        "11784": 51,
        "11785": 245,
        "11786": 195,
        "11787": 5,
        "11788": 118,
        "11789": 214,
        "11790": 60,
        "11791": 50,
        "11792": 163,
        "11793": 162,
        "11794": 183,
        "11795": 57,
        "11796": 193,
        "11797": 86,
        "11798": 255,
        "11799": 176,
        "11800": 227,
        "11801": 248,
        "11802": 129,
        "11803": 49,
        "11804": 8,
        "11805": 211,
        "11806": 4,
        "11807": 231,
        "11808": 209,
        "11809": 142,
        "11810": 234,
        "11811": 228,
        "11812": 199,
        "11813": 127,
        "11814": 193,
        "11815": 115,
        "11816": 23,
        "11817": 44,
        "11818": 152,
        "11819": 117,
        "11820": 138,
        "11821": 253,
        "11822": 103,
        "11823": 32,
        "11824": 168,
        "11825": 217,
        "11826": 97,
        "11827": 162,
        "11828": 163,
        "11829": 97,
        "11830": 65,
        "11831": 130,
        "11832": 196,
        "11833": 99,
        "11834": 114,
        "11835": 134,
        "11836": 13,
        "11837": 73,
        "11838": 1,
        "11839": 50,
        "11840": 50,
        "11841": 227,
        "11842": 130,
        "11843": 46,
        "11844": 27,
        "11845": 165,
        "11846": 15,
        "11847": 229,
        "11848": 26,
        "11849": 30,
        "11850": 172,
        "11851": 180,
        "11852": 70,
        "11853": 212,
        "11854": 155,
        "11855": 229,
        "11856": 175,
        "11857": 8,
        "11858": 168,
        "11859": 87,
        "11860": 166,
        "11861": 190,
        "11862": 235,
        "11863": 119,
        "11864": 249,
        "11865": 255,
        "11866": 117,
        "11867": 96,
        "11868": 181,
        "11869": 151,
        "11870": 47,
        "11871": 75,
        "11872": 67,
        "11873": 41,
        "11874": 213,
        "11875": 241,
        "11876": 110,
        "11877": 220,
        "11878": 103,
        "11879": 29,
        "11880": 158,
        "11881": 135,
        "11882": 33,
        "11883": 144,
        "11884": 186,
        "11885": 199,
        "11886": 67,
        "11887": 50,
        "11888": 230,
        "11889": 245,
        "11890": 50,
        "11891": 107,
        "11892": 211,
        "11893": 193,
        "11894": 42,
        "11895": 156,
        "11896": 137,
        "11897": 218,
        "11898": 9,
        "11899": 100,
        "11900": 248,
        "11901": 62,
        "11902": 217,
        "11903": 133,
        "11904": 143,
        "11905": 119,
        "11906": 118,
        "11907": 205,
        "11908": 151,
        "11909": 140,
        "11910": 5,
        "11911": 95,
        "11912": 144,
        "11913": 152,
        "11914": 73,
        "11915": 139,
        "11916": 117,
        "11917": 103,
        "11918": 14,
        "11919": 115,
        "11920": 238,
        "11921": 143,
        "11922": 66,
        "11923": 34,
        "11924": 15,
        "11925": 50,
        "11926": 94,
        "11927": 155,
        "11928": 121,
        "11929": 205,
        "11930": 141,
        "11931": 148,
        "11932": 254,
        "11933": 102,
        "11934": 170,
        "11935": 97,
        "11936": 89,
        "11937": 43,
        "11938": 155,
        "11939": 198,
        "11940": 148,
        "11941": 41,
        "11942": 149,
        "11943": 31,
        "11944": 40,
        "11945": 74,
        "11946": 241,
        "11947": 137,
        "11948": 112,
        "11949": 31,
        "11950": 30,
        "11951": 14,
        "11952": 240,
        "11953": 106,
        "11954": 201,
        "11955": 140,
        "11956": 208,
        "11957": 81,
        "11958": 129,
        "11959": 18,
        "11960": 203,
        "11961": 185,
        "11962": 67,
        "11963": 39,
        "11964": 86,
        "11965": 129,
        "11966": 22,
        "11967": 197,
        "11968": 53,
        "11969": 105,
        "11970": 16,
        "11971": 26,
        "11972": 203,
        "11973": 201,
        "11974": 9,
        "11975": 77,
        "11976": 161,
        "11977": 71,
        "11978": 208,
        "11979": 196,
        "11980": 160,
        "11981": 253,
        "11982": 115,
        "11983": 241,
        "11984": 100,
        "11985": 143,
        "11986": 77,
        "11987": 127,
        "11988": 160,
        "11989": 184,
        "11990": 120,
        "11991": 68,
        "11992": 65,
        "11993": 103,
        "11994": 100,
        "11995": 81,
        "11996": 252,
        "11997": 35,
        "11998": 205,
        "11999": 228,
        "12000": 30,
        "12001": 28,
        "12002": 94,
        "12003": 40,
        "12004": 241,
        "12005": 54,
        "12006": 85,
        "12007": 250,
        "12008": 65,
        "12009": 90,
        "12010": 61,
        "12011": 103,
        "12012": 131,
        "12013": 52,
        "12014": 133,
        "12015": 126,
        "12016": 162,
        "12017": 185,
        "12018": 119,
        "12019": 117,
        "12020": 15,
        "12021": 213,
        "12022": 194,
        "12023": 48,
        "12024": 147,
        "12025": 136,
        "12026": 220,
        "12027": 51,
        "12028": 204,
        "12029": 56,
        "12030": 228,
        "12031": 162,
        "12032": 193,
        "12033": 185,
        "12034": 210,
        "12035": 71,
        "12036": 43,
        "12037": 203,
        "12038": 49,
        "12039": 221,
        "12040": 129,
        "12041": 227,
        "12042": 8,
        "12043": 200,
        "12044": 117,
        "12045": 161,
        "12046": 172,
        "12047": 128,
        "12048": 41,
        "12049": 234,
        "12050": 74,
        "12051": 32,
        "12052": 74,
        "12053": 53,
        "12054": 232,
        "12055": 182,
        "12056": 198,
        "12057": 74,
        "12058": 35,
        "12059": 47,
        "12060": 64,
        "12061": 102,
        "12062": 80,
        "12063": 15,
        "12064": 178,
        "12065": 171,
        "12066": 22,
        "12067": 21,
        "12068": 109,
        "12069": 138,
        "12070": 61,
        "12071": 73,
        "12072": 14,
        "12073": 2,
        "12074": 249,
        "12075": 91,
        "12076": 114,
        "12077": 105,
        "12078": 187,
        "12079": 97,
        "12080": 128,
        "12081": 43,
        "12082": 222,
        "12083": 158,
        "12084": 67,
        "12085": 195,
        "12086": 108,
        "12087": 52,
        "12088": 94,
        "12089": 220,
        "12090": 168,
        "12091": 92,
        "12092": 103,
        "12093": 184,
        "12094": 245,
        "12095": 54,
        "12096": 180,
        "12097": 243,
        "12098": 226,
        "12099": 42,
        "12100": 169,
        "12101": 184,
        "12102": 38,
        "12103": 62,
        "12104": 89,
        "12105": 238,
        "12106": 233,
        "12107": 199,
        "12108": 237,
        "12109": 247,
        "12110": 183,
        "12111": 123,
        "12112": 99,
        "12113": 216,
        "12114": 153,
        "12115": 226,
        "12116": 247,
        "12117": 234,
        "12118": 151,
        "12119": 5,
        "12120": 204,
        "12121": 16,
        "12122": 46,
        "12123": 247,
        "12124": 128,
        "12125": 45,
        "12126": 167,
        "12127": 14,
        "12128": 66,
        "12129": 79,
        "12130": 133,
        "12131": 64,
        "12132": 216,
        "12133": 152,
        "12134": 98,
        "12135": 35,
        "12136": 202,
        "12137": 140,
        "12138": 208,
        "12139": 139,
        "12140": 40,
        "12141": 129,
        "12142": 208,
        "12143": 144,
        "12144": 192,
        "12145": 143,
        "12146": 43,
        "12147": 241,
        "12148": 53,
        "12149": 246,
        "12150": 81,
        "12151": 88,
        "12152": 102,
        "12153": 39,
        "12154": 122,
        "12155": 166,
        "12156": 46,
        "12157": 1,
        "12158": 9,
        "12159": 85,
        "12160": 201,
        "12161": 174,
        "12162": 175,
        "12163": 203,
        "12164": 95,
        "12165": 183,
        "12166": 160,
        "12167": 187,
        "12168": 108,
        "12169": 80,
        "12170": 15,
        "12171": 100,
        "12172": 116,
        "12173": 135,
        "12174": 14,
        "12175": 34,
        "12176": 47,
        "12177": 182,
        "12178": 201,
        "12179": 246,
        "12180": 52,
        "12181": 166,
        "12182": 182,
        "12183": 124,
        "12184": 73,
        "12185": 22,
        "12186": 136,
        "12187": 45,
        "12188": 185,
        "12189": 192,
        "12190": 125,
        "12191": 39,
        "12192": 242,
        "12193": 162,
        "12194": 245,
        "12195": 240,
        "12196": 133,
        "12197": 16,
        "12198": 85,
        "12199": 216,
        "12200": 204,
        "12201": 197,
        "12202": 66,
        "12203": 149,
        "12204": 129,
        "12205": 109,
        "12206": 87,
        "12207": 148,
        "12208": 229,
        "12209": 126,
        "12210": 172,
        "12211": 68,
        "12212": 243,
        "12213": 0,
        "12214": 24,
        "12215": 84,
        "12216": 234,
        "12217": 253,
        "12218": 222,
        "12219": 97,
        "12220": 171,
        "12221": 164,
        "12222": 108,
        "12223": 112,
        "12224": 240,
        "12225": 41,
        "12226": 185,
        "12227": 205,
        "12228": 21,
        "12229": 75,
        "12230": 204,
        "12231": 165,
        "12232": 55,
        "12233": 135,
        "12234": 44,
        "12235": 131,
        "12236": 237,
        "12237": 3,
        "12238": 80,
        "12239": 137,
        "12240": 53,
        "12241": 165,
        "12242": 55,
        "12243": 74,
        "12244": 127,
        "12245": 188,
        "12246": 20,
        "12247": 164,
        "12248": 85,
        "12249": 145,
        "12250": 50,
        "12251": 121,
        "12252": 44,
        "12253": 145,
        "12254": 208,
        "12255": 53,
        "12256": 71,
        "12257": 227,
        "12258": 217,
        "12259": 66,
        "12260": 98,
        "12261": 254,
        "12262": 189,
        "12263": 217,
        "12264": 210,
        "12265": 242,
        "12266": 128,
        "12267": 174,
        "12268": 31,
        "12269": 212,
        "12270": 6,
        "12271": 171,
        "12272": 212,
        "12273": 30,
        "12274": 219,
        "12275": 217,
        "12276": 6,
        "12277": 203,
        "12278": 66,
        "12279": 131,
        "12280": 68,
        "12281": 8,
        "12282": 10,
        "12283": 87,
        "12284": 242,
        "12285": 198,
        "12286": 117,
        "12287": 154,
        "12288": 176,
        "12289": 184,
        "12290": 54,
        "12291": 95,
        "12292": 27,
        "12293": 204,
        "12294": 247,
        "12295": 194,
        "12296": 249,
        "12297": 38,
        "12298": 164,
        "12299": 99,
        "12300": 193,
        "12301": 13,
        "12302": 241,
        "12303": 11,
        "12304": 48,
        "12305": 211,
        "12306": 157,
        "12307": 246,
        "12308": 139,
        "12309": 134,
        "12310": 143,
        "12311": 234,
        "12312": 169,
        "12313": 141,
        "12314": 15,
        "12315": 255,
        "12316": 7,
        "12317": 252,
        "12318": 67,
        "12319": 168,
        "12320": 189,
        "12321": 116,
        "12322": 203,
        "12323": 126,
        "12324": 236,
        "12325": 93,
        "12326": 252,
        "12327": 28,
        "12328": 56,
        "12329": 47,
        "12330": 118,
        "12331": 204,
        "12332": 81,
        "12333": 157,
        "12334": 100,
        "12335": 19,
        "12336": 206,
        "12337": 7,
        "12338": 66,
        "12339": 102,
        "12340": 33,
        "12341": 47,
        "12342": 84,
        "12343": 236,
        "12344": 164,
        "12345": 203,
        "12346": 109,
        "12347": 90,
        "12348": 96,
        "12349": 211,
        "12350": 246,
        "12351": 161,
        "12352": 58,
        "12353": 243,
        "12354": 98,
        "12355": 74,
        "12356": 76,
        "12357": 73,
        "12358": 152,
        "12359": 62,
        "12360": 55,
        "12361": 38,
        "12362": 134,
        "12363": 240,
        "12364": 253,
        "12365": 131,
        "12366": 143,
        "12367": 40,
        "12368": 108,
        "12369": 77,
        "12370": 125,
        "12371": 58,
        "12372": 44,
        "12373": 125,
        "12374": 140,
        "12375": 108,
        "12376": 95,
        "12377": 184,
        "12378": 48,
        "12379": 173,
        "12380": 194,
        "12381": 67,
        "12382": 103,
        "12383": 144,
        "12384": 197,
        "12385": 152,
        "12386": 167,
        "12387": 12,
        "12388": 152,
        "12389": 85,
        "12390": 17,
        "12391": 127,
        "12392": 98,
        "12393": 93,
        "12394": 16,
        "12395": 230,
        "12396": 82,
        "12397": 183,
        "12398": 194,
        "12399": 100,
        "12400": 167,
        "12401": 237,
        "12402": 209,
        "12403": 215,
        "12404": 132,
        "12405": 163,
        "12406": 184,
        "12407": 165,
        "12408": 69,
        "12409": 100,
        "12410": 139,
        "12411": 191,
        "12412": 174,
        "12413": 105,
        "12414": 105,
        "12415": 228,
        "12416": 235,
        "12417": 71,
        "12418": 211,
        "12419": 152,
        "12420": 243,
        "12421": 195,
        "12422": 212,
        "12423": 186,
        "12424": 100,
        "12425": 226,
        "12426": 152,
        "12427": 251,
        "12428": 188,
        "12429": 190,
        "12430": 169,
        "12431": 50,
        "12432": 199,
        "12433": 133,
        "12434": 57,
        "12435": 137,
        "12436": 143,
        "12437": 173,
        "12438": 95,
        "12439": 12,
        "12440": 112,
        "12441": 200,
        "12442": 195,
        "12443": 109,
        "12444": 82,
        "12445": 190,
        "12446": 199,
        "12447": 41,
        "12448": 239,
        "12449": 68,
        "12450": 150,
        "12451": 70,
        "12452": 128,
        "12453": 239,
        "12454": 157,
        "12455": 8,
        "12456": 27,
        "12457": 5,
        "12458": 40,
        "12459": 94,
        "12460": 217,
        "12461": 4,
        "12462": 195,
        "12463": 70,
        "12464": 58,
        "12465": 170,
        "12466": 190,
        "12467": 222,
        "12468": 243,
        "12469": 1,
        "12470": 112,
        "12471": 142,
        "12472": 157,
        "12473": 121,
        "12474": 3,
        "12475": 107,
        "12476": 115,
        "12477": 140,
        "12478": 46,
        "12479": 128,
        "12480": 1,
        "12481": 13,
        "12482": 78,
        "12483": 98,
        "12484": 17,
        "12485": 77,
        "12486": 146,
        "12487": 12,
        "12488": 76,
        "12489": 13,
        "12490": 110,
        "12491": 80,
        "12492": 86,
        "12493": 155,
        "12494": 149,
        "12495": 113,
        "12496": 32,
        "12497": 7,
        "12498": 107,
        "12499": 153,
        "12500": 186,
        "12501": 192,
        "12502": 234,
        "12503": 51,
        "12504": 62,
        "12505": 189,
        "12506": 85,
        "12507": 5,
        "12508": 202,
        "12509": 231,
        "12510": 244,
        "12511": 4,
        "12512": 207,
        "12513": 211,
        "12514": 133,
        "12515": 10,
        "12516": 97,
        "12517": 102,
        "12518": 148,
        "12519": 188,
        "12520": 98,
        "12521": 53,
        "12522": 167,
        "12523": 204,
        "12524": 169,
        "12525": 239,
        "12526": 39,
        "12527": 185,
        "12528": 79,
        "12529": 243,
        "12530": 66,
        "12531": 23,
        "12532": 228,
        "12533": 33,
        "12534": 73,
        "12535": 40,
        "12536": 99,
        "12537": 78,
        "12538": 123,
        "12539": 38,
        "12540": 65,
        "12541": 99,
        "12542": 148,
        "12543": 10,
        "12544": 30,
        "12545": 41,
        "12546": 233,
        "12547": 225,
        "12548": 111,
        "12549": 47,
        "12550": 34,
        "12551": 106,
        "12552": 225,
        "12553": 76,
        "12554": 130,
        "12555": 8,
        "12556": 101,
        "12557": 145,
        "12558": 99,
        "12559": 59,
        "12560": 154,
        "12561": 202,
        "12562": 120,
        "12563": 226,
        "12564": 210,
        "12565": 232,
        "12566": 174,
        "12567": 234,
        "12568": 137,
        "12569": 109,
        "12570": 228,
        "12571": 35,
        "12572": 98,
        "12573": 36,
        "12574": 212,
        "12575": 235,
        "12576": 39,
        "12577": 217,
        "12578": 234,
        "12579": 209,
        "12580": 124,
        "12581": 148,
        "12582": 192,
        "12583": 136,
        "12584": 5,
        "12585": 253,
        "12586": 91,
        "12587": 110,
        "12588": 113,
        "12589": 154,
        "12590": 127,
        "12591": 112,
        "12592": 17,
        "12593": 149,
        "12594": 150,
        "12595": 221,
        "12596": 248,
        "12597": 15,
        "12598": 212,
        "12599": 102,
        "12600": 20,
        "12601": 75,
        "12602": 157,
        "12603": 168,
        "12604": 192,
        "12605": 65,
        "12606": 248,
        "12607": 38,
        "12608": 177,
        "12609": 255,
        "12610": 137,
        "12611": 128,
        "12612": 246,
        "12613": 166,
        "12614": 161,
        "12615": 69,
        "12616": 91,
        "12617": 197,
        "12618": 224,
        "12619": 255,
        "12620": 173,
        "12621": 15,
        "12622": 94,
        "12623": 36,
        "12624": 78,
        "12625": 1,
        "12626": 246,
        "12627": 196,
        "12628": 26,
        "12629": 104,
        "12630": 42,
        "12631": 69,
        "12632": 238,
        "12633": 240,
        "12634": 205,
        "12635": 51,
        "12636": 137,
        "12637": 217,
        "12638": 131,
        "12639": 46,
        "12640": 45,
        "12641": 84,
        "12642": 210,
        "12643": 53,
        "12644": 90,
        "12645": 91,
        "12646": 195,
        "12647": 89,
        "12648": 42,
        "12649": 56,
        "12650": 42,
        "12651": 158,
        "12652": 213,
        "12653": 150,
        "12654": 10,
        "12655": 30,
        "12656": 8,
        "12657": 173,
        "12658": 231,
        "12659": 110,
        "12660": 173,
        "12661": 155,
        "12662": 15,
        "12663": 68,
        "12664": 170,
        "12665": 43,
        "12666": 220,
        "12667": 173,
        "12668": 246,
        "12669": 13,
        "12670": 73,
        "12671": 191,
        "12672": 17,
        "12673": 242,
        "12674": 32,
        "12675": 127,
        "12676": 76,
        "12677": 187,
        "12678": 154,
        "12679": 26,
        "12680": 201,
        "12681": 78,
        "12682": 211,
        "12683": 67,
        "12684": 5,
        "12685": 250,
        "12686": 237,
        "12687": 47,
        "12688": 189,
        "12689": 147,
        "12690": 237,
        "12691": 233,
        "12692": 24,
        "12693": 162,
        "12694": 28,
        "12695": 251,
        "12696": 42,
        "12697": 92,
        "12698": 6,
        "12699": 134,
        "12700": 213,
        "12701": 92,
        "12702": 99,
        "12703": 115,
        "12704": 207,
        "12705": 90,
        "12706": 134,
        "12707": 69,
        "12708": 249,
        "12709": 220,
        "12710": 150,
        "12711": 87,
        "12712": 107,
        "12713": 67,
        "12714": 238,
        "12715": 139,
        "12716": 117,
        "12717": 116,
        "12718": 143,
        "12719": 106,
        "12720": 186,
        "12721": 183,
        "12722": 228,
        "12723": 225,
        "12724": 189,
        "12725": 21,
        "12726": 172,
        "12727": 34,
        "12728": 150,
        "12729": 102,
        "12730": 158,
        "12731": 192,
        "12732": 227,
        "12733": 109,
        "12734": 53,
        "12735": 26,
        "12736": 229,
        "12737": 55,
        "12738": 155,
        "12739": 112,
        "12740": 72,
        "12741": 117,
        "12742": 35,
        "12743": 105,
        "12744": 42,
        "12745": 201,
        "12746": 9,
        "12747": 212,
        "12748": 104,
        "12749": 99,
        "12750": 20,
        "12751": 137,
        "12752": 203,
        "12753": 77,
        "12754": 207,
        "12755": 85,
        "12756": 103,
        "12757": 0,
        "12758": 102,
        "12759": 27,
        "12760": 69,
        "12761": 217,
        "12762": 49,
        "12763": 252,
        "12764": 212,
        "12765": 118,
        "12766": 43,
        "12767": 116,
        "12768": 248,
        "12769": 220,
        "12770": 20,
        "12771": 131,
        "12772": 120,
        "12773": 111,
        "12774": 230,
        "12775": 241,
        "12776": 219,
        "12777": 231,
        "12778": 67,
        "12779": 111,
        "12780": 97,
        "12781": 94,
        "12782": 213,
        "12783": 188,
        "12784": 22,
        "12785": 30,
        "12786": 199,
        "12787": 169,
        "12788": 83,
        "12789": 96,
        "12790": 131,
        "12791": 17,
        "12792": 9,
        "12793": 217,
        "12794": 55,
        "12795": 253,
        "12796": 238,
        "12797": 239,
        "12798": 169,
        "12799": 242,
        "12800": 162,
        "12801": 234,
        "12802": 252,
        "12803": 182,
        "12804": 70,
        "12805": 122,
        "12806": 56,
        "12807": 26,
        "12808": 12,
        "12809": 31,
        "12810": 171,
        "12811": 148,
        "12812": 70,
        "12813": 166,
        "12814": 252,
        "12815": 139,
        "12816": 108,
        "12817": 34,
        "12818": 139,
        "12819": 85,
        "12820": 11,
        "12821": 73,
        "12822": 182,
        "12823": 226,
        "12824": 80,
        "12825": 47,
        "12826": 142,
        "12827": 52,
        "12828": 18,
        "12829": 186,
        "12830": 28,
        "12831": 194,
        "12832": 200,
        "12833": 123,
        "12834": 96,
        "12835": 242,
        "12836": 27,
        "12837": 142,
        "12838": 28,
        "12839": 208,
        "12840": 105,
        "12841": 219,
        "12842": 212,
        "12843": 153,
        "12844": 6,
        "12845": 133,
        "12846": 66,
        "12847": 55,
        "12848": 120,
        "12849": 89,
        "12850": 57,
        "12851": 209,
        "12852": 48,
        "12853": 88,
        "12854": 52,
        "12855": 152,
        "12856": 158,
        "12857": 64,
        "12858": 220,
        "12859": 93,
        "12860": 208,
        "12861": 189,
        "12862": 13,
        "12863": 219,
        "12864": 250,
        "12865": 136,
        "12866": 233,
        "12867": 210,
        "12868": 133,
        "12869": 48,
        "12870": 221,
        "12871": 213,
        "12872": 6,
        "12873": 45,
        "12874": 234,
        "12875": 143,
        "12876": 87,
        "12877": 25,
        "12878": 55,
        "12879": 197,
        "12880": 163,
        "12881": 91,
        "12882": 96,
        "12883": 241,
        "12884": 35,
        "12885": 255,
        "12886": 36,
        "12887": 224,
        "12888": 126,
        "12889": 127,
        "12890": 196,
        "12891": 48,
        "12892": 66,
        "12893": 52,
        "12894": 222,
        "12895": 186,
        "12896": 4,
        "12897": 21,
        "12898": 183,
        "12899": 46,
        "12900": 155,
        "12901": 135,
        "12902": 114,
        "12903": 193,
        "12904": 100,
        "12905": 151,
        "12906": 141,
        "12907": 107,
        "12908": 7,
        "12909": 156,
        "12910": 176,
        "12911": 45,
        "12912": 255,
        "12913": 14,
        "12914": 228,
        "12915": 41,
        "12916": 230,
        "12917": 119,
        "12918": 102,
        "12919": 25,
        "12920": 119,
        "12921": 174,
        "12922": 141,
        "12923": 16,
        "12924": 253,
        "12925": 216,
        "12926": 14,
        "12927": 122,
        "12928": 69,
        "12929": 73,
        "12930": 45,
        "12931": 34,
        "12932": 152,
        "12933": 163,
        "12934": 17,
        "12935": 150,
        "12936": 68,
        "12937": 22,
        "12938": 187,
        "12939": 162,
        "12940": 121,
        "12941": 218,
        "12942": 85,
        "12943": 113,
        "12944": 91,
        "12945": 206,
        "12946": 240,
        "12947": 103,
        "12948": 179,
        "12949": 235,
        "12950": 136,
        "12951": 156,
        "12952": 169,
        "12953": 69,
        "12954": 138,
        "12955": 185,
        "12956": 74,
        "12957": 148,
        "12958": 43,
        "12959": 164,
        "12960": 159,
        "12961": 223,
        "12962": 235,
        "12963": 114,
        "12964": 105,
        "12965": 165,
        "12966": 237,
        "12967": 119,
        "12968": 27,
        "12969": 31,
        "12970": 177,
        "12971": 142,
        "12972": 87,
        "12973": 249,
        "12974": 27,
        "12975": 251,
        "12976": 150,
        "12977": 52,
        "12978": 68,
        "12979": 115,
        "12980": 54,
        "12981": 210,
        "12982": 227,
        "12983": 247,
        "12984": 52,
        "12985": 38,
        "12986": 105,
        "12987": 124,
        "12988": 99,
        "12989": 203,
        "12990": 133,
        "12991": 197,
        "12992": 217,
        "12993": 194,
        "12994": 255,
        "12995": 14,
        "12996": 243,
        "12997": 237,
        "12998": 77,
        "12999": 31,
        "13000": 3,
        "13001": 126,
        "13002": 168,
        "13003": 93,
        "13004": 99,
        "13005": 223,
        "13006": 161,
        "13007": 248,
        "13008": 28,
        "13009": 110,
        "13010": 176,
        "13011": 172,
        "13012": 227,
        "13013": 33,
        "13014": 207,
        "13015": 86,
        "13016": 149,
        "13017": 191,
        "13018": 237,
        "13019": 200,
        "13020": 97,
        "13021": 13,
        "13022": 117,
        "13023": 136,
        "13024": 204,
        "13025": 23,
        "13026": 182,
        "13027": 108,
        "13028": 186,
        "13029": 98,
        "13030": 89,
        "13031": 205,
        "13032": 59,
        "13033": 25,
        "13034": 103,
        "13035": 158,
        "13036": 149,
        "13037": 227,
        "13038": 196,
        "13039": 1,
        "13040": 62,
        "13041": 91,
        "13042": 9,
        "13043": 227,
        "13044": 166,
        "13045": 94,
        "13046": 102,
        "13047": 51,
        "13048": 155,
        "13049": 213,
        "13050": 117,
        "13051": 116,
        "13052": 239,
        "13053": 94,
        "13054": 81,
        "13055": 80,
        "13056": 122,
        "13057": 24,
        "13058": 228,
        "13059": 231,
        "13060": 46,
        "13061": 0,
        "13062": 174,
        "13063": 75,
        "13064": 13,
        "13065": 162,
        "13066": 64,
        "13067": 154,
        "13068": 222,
        "13069": 3,
        "13070": 2,
        "13071": 73,
        "13072": 163,
        "13073": 173,
        "13074": 34,
        "13075": 134,
        "13076": 157,
        "13077": 182,
        "13078": 215,
        "13079": 153,
        "13080": 132,
        "13081": 249,
        "13082": 184,
        "13083": 164,
        "13084": 44,
        "13085": 87,
        "13086": 19,
        "13087": 230,
        "13088": 233,
        "13089": 35,
        "13090": 149,
        "13091": 134,
        "13092": 105,
        "13093": 102,
        "13094": 150,
        "13095": 28,
        "13096": 231,
        "13097": 46,
        "13098": 117,
        "13099": 166,
        "13100": 249,
        "13101": 89,
        "13102": 182,
        "13103": 60,
        "13104": 122,
        "13105": 189,
        "13106": 97,
        "13107": 120,
        "13108": 74,
        "13109": 148,
        "13110": 247,
        "13111": 178,
        "13112": 41,
        "13113": 110,
        "13114": 18,
        "13115": 221,
        "13116": 14,
        "13117": 115,
        "13118": 105,
        "13119": 131,
        "13120": 183,
        "13121": 107,
        "13122": 42,
        "13123": 192,
        "13124": 138,
        "13125": 29,
        "13126": 156,
        "13127": 146,
        "13128": 132,
        "13129": 84,
        "13130": 17,
        "13131": 253,
        "13132": 204,
        "13133": 248,
        "13134": 57,
        "13135": 136,
        "13136": 70,
        "13137": 131,
        "13138": 10,
        "13139": 40,
        "13140": 147,
        "13141": 199,
        "13142": 165,
        "13143": 109,
        "13144": 161,
        "13145": 58,
        "13146": 83,
        "13147": 59,
        "13148": 137,
        "13149": 141,
        "13150": 23,
        "13151": 199,
        "13152": 6,
        "13153": 253,
        "13154": 187,
        "13155": 145,
        "13156": 9,
        "13157": 131,
        "13158": 226,
        "13159": 20,
        "13160": 66,
        "13161": 75,
        "13162": 215,
        "13163": 99,
        "13164": 48,
        "13165": 7,
        "13166": 232,
        "13167": 208,
        "13168": 184,
        "13169": 19,
        "13170": 3,
        "13171": 182,
        "13172": 163,
        "13173": 243,
        "13174": 132,
        "13175": 109,
        "13176": 161,
        "13177": 131,
        "13178": 127,
        "13179": 99,
        "13180": 58,
        "13181": 130,
        "13182": 142,
        "13183": 89,
        "13184": 39,
        "13185": 48,
        "13186": 94,
        "13187": 178,
        "13188": 148,
        "13189": 77,
        "13190": 252,
        "13191": 5,
        "13192": 202,
        "13193": 38,
        "13194": 85,
        "13195": 27,
        "13196": 14,
        "13197": 144,
        "13198": 91,
        "13199": 246,
        "13200": 58,
        "13201": 23,
        "13202": 72,
        "13203": 71,
        "13204": 128,
        "13205": 51,
        "13206": 172,
        "13207": 25,
        "13208": 191,
        "13209": 52,
        "13210": 138,
        "13211": 22,
        "13212": 145,
        "13213": 97,
        "13214": 64,
        "13215": 153,
        "13216": 159,
        "13217": 227,
        "13218": 36,
        "13219": 121,
        "13220": 113,
        "13221": 221,
        "13222": 238,
        "13223": 33,
        "13224": 22,
        "13225": 26,
        "13226": 241,
        "13227": 141,
        "13228": 203,
        "13229": 197,
        "13230": 155,
        "13231": 40,
        "13232": 62,
        "13233": 109,
        "13234": 173,
        "13235": 131,
        "13236": 234,
        "13237": 128,
        "13238": 59,
        "13239": 5,
        "13240": 159,
        "13241": 79,
        "13242": 41,
        "13243": 247,
        "13244": 198,
        "13245": 44,
        "13246": 28,
        "13247": 254,
        "13248": 181,
        "13249": 92,
        "13250": 196,
        "13251": 26,
        "13252": 235,
        "13253": 216,
        "13254": 246,
        "13255": 216,
        "13256": 22,
        "13257": 76,
        "13258": 195,
        "13259": 138,
        "13260": 80,
        "13261": 79,
        "13262": 126,
        "13263": 221,
        "13264": 63,
        "13265": 209,
        "13266": 111,
        "13267": 161,
        "13268": 41,
        "13269": 110,
        "13270": 207,
        "13271": 58,
        "13272": 15,
        "13273": 113,
        "13274": 35,
        "13275": 205,
        "13276": 177,
        "13277": 178,
        "13278": 105,
        "13279": 106,
        "13280": 232,
        "13281": 34,
        "13282": 181,
        "13283": 242,
        "13284": 171,
        "13285": 128,
        "13286": 219,
        "13287": 190,
        "13288": 86,
        "13289": 153,
        "13290": 251,
        "13291": 199,
        "13292": 84,
        "13293": 219,
        "13294": 31,
        "13295": 14,
        "13296": 98,
        "13297": 134,
        "13298": 30,
        "13299": 13,
        "13300": 47,
        "13301": 38,
        "13302": 15,
        "13303": 28,
        "13304": 123,
        "13305": 197,
        "13306": 64,
        "13307": 193,
        "13308": 83,
        "13309": 169,
        "13310": 170,
        "13311": 244,
        "13312": 243,
        "13313": 112,
        "13314": 162,
        "13315": 247,
        "13316": 59,
        "13317": 40,
        "13318": 14,
        "13319": 190,
        "13320": 89,
        "13321": 7,
        "13322": 191,
        "13323": 26,
        "13324": 82,
        "13325": 91,
        "13326": 182,
        "13327": 124,
        "13328": 19,
        "13329": 236,
        "13330": 255,
        "13331": 175,
        "13332": 125,
        "13333": 125,
        "13334": 207,
        "13335": 218,
        "13336": 15,
        "13337": 155,
        "13338": 121,
        "13339": 201,
        "13340": 171,
        "13341": 67,
        "13342": 6,
        "13343": 124,
        "13344": 197,
        "13345": 95,
        "13346": 68,
        "13347": 48,
        "13348": 212,
        "13349": 96,
        "13350": 120,
        "13351": 60,
        "13352": 157,
        "13353": 127,
        "13354": 84,
        "13355": 109,
        "13356": 245,
        "13357": 148,
        "13358": 238,
        "13359": 181,
        "13360": 148,
        "13361": 223,
        "13362": 148,
        "13363": 77,
        "13364": 45,
        "13365": 71,
        "13366": 105,
        "13367": 235,
        "13368": 169,
        "13369": 102,
        "13370": 6,
        "13371": 5,
        "13372": 119,
        "13373": 1,
        "13374": 111,
        "13375": 28,
        "13376": 83,
        "13377": 160,
        "13378": 94,
        "13379": 81,
        "13380": 222,
        "13381": 213,
        "13382": 122,
        "13383": 128,
        "13384": 229,
        "13385": 68,
        "13386": 186,
        "13387": 192,
        "13388": 4,
        "13389": 175,
        "13390": 90,
        "13391": 176,
        "13392": 65,
        "13393": 21,
        "13394": 41,
        "13395": 240,
        "13396": 54,
        "13397": 210,
        "13398": 158,
        "13399": 48,
        "13400": 41,
        "13401": 135,
        "13402": 221,
        "13403": 45,
        "13404": 108,
        "13405": 29,
        "13406": 75,
        "13407": 186,
        "13408": 119,
        "13409": 180,
        "13410": 196,
        "13411": 113,
        "13412": 23,
        "13413": 54,
        "13414": 20,
        "13415": 10,
        "13416": 227,
        "13417": 138,
        "13418": 198,
        "13419": 25,
        "13420": 54,
        "13421": 41,
        "13422": 140,
        "13423": 219,
        "13424": 36,
        "13425": 210,
        "13426": 181,
        "13427": 29,
        "13428": 46,
        "13429": 65,
        "13430": 72,
        "13431": 3,
        "13432": 155,
        "13433": 254,
        "13434": 91,
        "13435": 118,
        "13436": 235,
        "13437": 89,
        "13438": 208,
        "13439": 86,
        "13440": 252,
        "13441": 232,
        "13442": 144,
        "13443": 69,
        "13444": 80,
        "13445": 62,
        "13446": 90,
        "13447": 29,
        "13448": 54,
        "13449": 97,
        "13450": 15,
        "13451": 92,
        "13452": 96,
        "13453": 160,
        "13454": 199,
        "13455": 194,
        "13456": 30,
        "13457": 199,
        "13458": 19,
        "13459": 204,
        "13460": 11,
        "13461": 21,
        "13462": 1,
        "13463": 10,
        "13464": 245,
        "13465": 8,
        "13466": 224,
        "13467": 11,
        "13468": 89,
        "13469": 249,
        "13470": 228,
        "13471": 140,
        "13472": 74,
        "13473": 209,
        "13474": 214,
        "13475": 144,
        "13476": 211,
        "13477": 193,
        "13478": 20,
        "13479": 229,
        "13480": 209,
        "13481": 96,
        "13482": 7,
        "13483": 211,
        "13484": 159,
        "13485": 22,
        "13486": 249,
        "13487": 119,
        "13488": 233,
        "13489": 48,
        "13490": 98,
        "13491": 207,
        "13492": 99,
        "13493": 124,
        "13494": 165,
        "13495": 47,
        "13496": 215,
        "13497": 53,
        "13498": 225,
        "13499": 6,
        "13500": 107,
        "13501": 49,
        "13502": 90,
        "13503": 236,
        "13504": 110,
        "13505": 169,
        "13506": 112,
        "13507": 205,
        "13508": 226,
        "13509": 80,
        "13510": 204,
        "13511": 132,
        "13512": 220,
        "13513": 37,
        "13514": 111,
        "13515": 175,
        "13516": 10,
        "13517": 229,
        "13518": 173,
        "13519": 96,
        "13520": 103,
        "13521": 192,
        "13522": 44,
        "13523": 194,
        "13524": 61,
        "13525": 97,
        "13526": 160,
        "13527": 70,
        "13528": 154,
        "13529": 165,
        "13530": 173,
        "13531": 252,
        "13532": 80,
        "13533": 8,
        "13534": 1,
        "13535": 178,
        "13536": 27,
        "13537": 52,
        "13538": 184,
        "13539": 204,
        "13540": 27,
        "13541": 166,
        "13542": 41,
        "13543": 232,
        "13544": 177,
        "13545": 123,
        "13546": 203,
        "13547": 5,
        "13548": 102,
        "13549": 51,
        "13550": 238,
        "13551": 62,
        "13552": 210,
        "13553": 30,
        "13554": 0,
        "13555": 227,
        "13556": 145,
        "13557": 244,
        "13558": 92,
        "13559": 64,
        "13560": 169,
        "13561": 117,
        "13562": 0,
        "13563": 19,
        "13564": 199,
        "13565": 202,
        "13566": 250,
        "13567": 22,
        "13568": 99,
        "13569": 21,
        "13570": 117,
        "13571": 66,
        "13572": 145,
        "13573": 46,
        "13574": 77,
        "13575": 90,
        "13576": 202,
        "13577": 129,
        "13578": 127,
        "13579": 50,
        "13580": 136,
        "13581": 128,
        "13582": 92,
        "13583": 113,
        "13584": 105,
        "13585": 133,
        "13586": 80,
        "13587": 50,
        "13588": 224,
        "13589": 233,
        "13590": 198,
        "13591": 95,
        "13592": 3,
        "13593": 140,
        "13594": 7,
        "13595": 129,
        "13596": 228,
        "13597": 226,
        "13598": 95,
        "13599": 244,
        "13600": 35,
        "13601": 138,
        "13602": 229,
        "13603": 102,
        "13604": 28,
        "13605": 27,
        "13606": 127,
        "13607": 9,
        "13608": 118,
        "13609": 160,
        "13610": 212,
        "13611": 118,
        "13612": 204,
        "13613": 195,
        "13614": 229,
        "13615": 32,
        "13616": 211,
        "13617": 204,
        "13618": 100,
        "13619": 62,
        "13620": 65,
        "13621": 75,
        "13622": 173,
        "13623": 241,
        "13624": 99,
        "13625": 247,
        "13626": 161,
        "13627": 215,
        "13628": 42,
        "13629": 231,
        "13630": 165,
        "13631": 142,
        "13632": 139,
        "13633": 74,
        "13634": 205,
        "13635": 105,
        "13636": 23,
        "13637": 210,
        "13638": 95,
        "13639": 252,
        "13640": 10,
        "13641": 230,
        "13642": 122,
        "13643": 207,
        "13644": 213,
        "13645": 69,
        "13646": 167,
        "13647": 29,
        "13648": 139,
        "13649": 158,
        "13650": 209,
        "13651": 45,
        "13652": 145,
        "13653": 233,
        "13654": 240,
        "13655": 51,
        "13656": 57,
        "13657": 46,
        "13658": 201,
        "13659": 69,
        "13660": 55,
        "13661": 35,
        "13662": 30,
        "13663": 148,
        "13664": 151,
        "13665": 101,
        "13666": 99,
        "13667": 220,
        "13668": 110,
        "13669": 132,
        "13670": 141,
        "13671": 71,
        "13672": 187,
        "13673": 18,
        "13674": 3,
        "13675": 204,
        "13676": 61,
        "13677": 156,
        "13678": 255,
        "13679": 237,
        "13680": 136,
        "13681": 1,
        "13682": 149,
        "13683": 238,
        "13684": 203,
        "13685": 46,
        "13686": 235,
        "13687": 168,
        "13688": 204,
        "13689": 108,
        "13690": 21,
        "13691": 20,
        "13692": 182,
        "13693": 224,
        "13694": 187,
        "13695": 84,
        "13696": 78,
        "13697": 50,
        "13698": 145,
        "13699": 188,
        "13700": 24,
        "13701": 39,
        "13702": 3,
        "13703": 165,
        "13704": 68,
        "13705": 119,
        "13706": 147,
        "13707": 81,
        "13708": 52,
        "13709": 254,
        "13710": 42,
        "13711": 56,
        "13712": 88,
        "13713": 206,
        "13714": 121,
        "13715": 9,
        "13716": 64,
        "13717": 211,
        "13718": 47,
        "13719": 71,
        "13720": 149,
        "13721": 221,
        "13722": 66,
        "13723": 233,
        "13724": 11,
        "13725": 209,
        "13726": 41,
        "13727": 184,
        "13728": 139,
        "13729": 74,
        "13730": 157,
        "13731": 174,
        "13732": 71,
        "13733": 2,
        "13734": 97,
        "13735": 106,
        "13736": 146,
        "13737": 106,
        "13738": 10,
        "13739": 221,
        "13740": 74,
        "13741": 166,
        "13742": 219,
        "13743": 131,
        "13744": 126,
        "13745": 141,
        "13746": 81,
        "13747": 207,
        "13748": 56,
        "13749": 65,
        "13750": 33,
        "13751": 16,
        "13752": 234,
        "13753": 177,
        "13754": 254,
        "13755": 97,
        "13756": 207,
        "13757": 87,
        "13758": 210,
        "13759": 3,
        "13760": 206,
        "13761": 88,
        "13762": 193,
        "13763": 243,
        "13764": 205,
        "13765": 90,
        "13766": 240,
        "13767": 202,
        "13768": 238,
        "13769": 85,
        "13770": 46,
        "13771": 102,
        "13772": 244,
        "13773": 58,
        "13774": 129,
        "13775": 168,
        "13776": 96,
        "13777": 113,
        "13778": 253,
        "13779": 161,
        "13780": 189,
        "13781": 10,
        "13782": 46,
        "13783": 144,
        "13784": 227,
        "13785": 35,
        "13786": 246,
        "13787": 142,
        "13788": 49,
        "13789": 232,
        "13790": 163,
        "13791": 133,
        "13792": 153,
        "13793": 248,
        "13794": 217,
        "13795": 39,
        "13796": 32,
        "13797": 90,
        "13798": 173,
        "13799": 250,
        "13800": 64,
        "13801": 248,
        "13802": 14,
        "13803": 213,
        "13804": 232,
        "13805": 107,
        "13806": 103,
        "13807": 83,
        "13808": 38,
        "13809": 168,
        "13810": 84,
        "13811": 185,
        "13812": 222,
        "13813": 170,
        "13814": 160,
        "13815": 66,
        "13816": 105,
        "13817": 222,
        "13818": 232,
        "13819": 2,
        "13820": 106,
        "13821": 167,
        "13822": 95,
        "13823": 79,
        "13824": 83,
        "13825": 27,
        "13826": 104,
        "13827": 96,
        "13828": 213,
        "13829": 235,
        "13830": 228,
        "13831": 83,
        "13832": 57,
        "13833": 132,
        "13834": 194,
        "13835": 6,
        "13836": 76,
        "13837": 203,
        "13838": 11,
        "13839": 146,
        "13840": 187,
        "13841": 115,
        "13842": 26,
        "13843": 170,
        "13844": 193,
        "13845": 25,
        "13846": 217,
        "13847": 4,
        "13848": 126,
        "13849": 123,
        "13850": 116,
        "13851": 203,
        "13852": 87,
        "13853": 56,
        "13854": 185,
        "13855": 54,
        "13856": 240,
        "13857": 240,
        "13858": 31,
        "13859": 216,
        "13860": 109,
        "13861": 49,
        "13862": 42,
        "13863": 56,
        "13864": 164,
        "13865": 182,
        "13866": 59,
        "13867": 224,
        "13868": 92,
        "13869": 248,
        "13870": 155,
        "13871": 15,
        "13872": 38,
        "13873": 182,
        "13874": 31,
        "13875": 249,
        "13876": 66,
        "13877": 124,
        "13878": 209,
        "13879": 40,
        "13880": 118,
        "13881": 71,
        "13882": 96,
        "13883": 251,
        "13884": 177,
        "13885": 198,
        "13886": 76,
        "13887": 12,
        "13888": 187,
        "13889": 156,
        "13890": 206,
        "13891": 99,
        "13892": 217,
        "13893": 82,
        "13894": 166,
        "13895": 46,
        "13896": 143,
        "13897": 39,
        "13898": 8,
        "13899": 201,
        "13900": 24,
        "13901": 169,
        "13902": 59,
        "13903": 23,
        "13904": 94,
        "13905": 253,
        "13906": 230,
        "13907": 47,
        "13908": 165,
        "13909": 229,
        "13910": 29,
        "13911": 33,
        "13912": 21,
        "13913": 120,
        "13914": 137,
        "13915": 44,
        "13916": 75,
        "13917": 153,
        "13918": 89,
        "13919": 148,
        "13920": 180,
        "13921": 25,
        "13922": 204,
        "13923": 11,
        "13924": 239,
        "13925": 132,
        "13926": 110,
        "13927": 115,
        "13928": 67,
        "13929": 201,
        "13930": 0,
        "13931": 154,
        "13932": 175,
        "13933": 63,
        "13934": 183,
        "13935": 178,
        "13936": 123,
        "13937": 168,
        "13938": 162,
        "13939": 244,
        "13940": 166,
        "13941": 112,
        "13942": 143,
        "13943": 44,
        "13944": 43,
        "13945": 250,
        "13946": 0,
        "13947": 173,
        "13948": 122,
        "13949": 252,
        "13950": 96,
        "13951": 117,
        "13952": 149,
        "13953": 69,
        "13954": 150,
        "13955": 59,
        "13956": 130,
        "13957": 68,
        "13958": 251,
        "13959": 20,
        "13960": 240,
        "13961": 106,
        "13962": 95,
        "13963": 96,
        "13964": 141,
        "13965": 159,
        "13966": 87,
        "13967": 138,
        "13968": 188,
        "13969": 221,
        "13970": 176,
        "13971": 104,
        "13972": 28,
        "13973": 35,
        "13974": 18,
        "13975": 194,
        "13976": 119,
        "13977": 187,
        "13978": 95,
        "13979": 218,
        "13980": 93,
        "13981": 191,
        "13982": 210,
        "13983": 82,
        "13984": 50,
        "13985": 17,
        "13986": 223,
        "13987": 249,
        "13988": 165,
        "13989": 154,
        "13990": 74,
        "13991": 40,
        "13992": 220,
        "13993": 231,
        "13994": 75,
        "13995": 135,
        "13996": 160,
        "13997": 253,
        "13998": 160,
        "13999": 105,
        "14000": 184,
        "14001": 74,
        "14002": 7,
        "14003": 195,
        "14004": 173,
        "14005": 40,
        "14006": 187,
        "14007": 36,
        "14008": 130,
        "14009": 239,
        "14010": 235,
        "14011": 251,
        "14012": 63,
        "14013": 34,
        "14014": 30,
        "14015": 221,
        "14016": 9,
        "14017": 148,
        "14018": 36,
        "14019": 46,
        "14020": 25,
        "14021": 160,
        "14022": 202,
        "14023": 140,
        "14024": 8,
        "14025": 198,
        "14026": 83,
        "14027": 217,
        "14028": 211,
        "14029": 204,
        "14030": 161,
        "14031": 197,
        "14032": 92,
        "14033": 129,
        "14034": 133,
        "14035": 86,
        "14036": 158,
        "14037": 6,
        "14038": 146,
        "14039": 247,
        "14040": 6,
        "14041": 219,
        "14042": 185,
        "14043": 188,
        "14044": 106,
        "14045": 197,
        "14046": 180,
        "14047": 107,
        "14048": 101,
        "14049": 18,
        "14050": 141,
        "14051": 136,
        "14052": 30,
        "14053": 85,
        "14054": 255,
        "14055": 191,
        "14056": 106,
        "14057": 199,
        "14058": 86,
        "14059": 205,
        "14060": 233,
        "14061": 125,
        "14062": 146,
        "14063": 41,
        "14064": 48,
        "14065": 24,
        "14066": 106,
        "14067": 156,
        "14068": 239,
        "14069": 142,
        "14070": 91,
        "14071": 179,
        "14072": 235,
        "14073": 44,
        "14074": 72,
        "14075": 113,
        "14076": 127,
        "14077": 74,
        "14078": 234,
        "14079": 168,
        "14080": 114,
        "14081": 53,
        "14082": 220,
        "14083": 246,
        "14084": 112,
        "14085": 155,
        "14086": 151,
        "14087": 239,
        "14088": 162,
        "14089": 152,
        "14090": 78,
        "14091": 145,
        "14092": 203,
        "14093": 86,
        "14094": 50,
        "14095": 47,
        "14096": 151,
        "14097": 28,
        "14098": 184,
        "14099": 170,
        "14100": 93,
        "14101": 179,
        "14102": 48,
        "14103": 108,
        "14104": 11,
        "14105": 239,
        "14106": 106,
        "14107": 188,
        "14108": 127,
        "14109": 80,
        "14110": 164,
        "14111": 251,
        "14112": 3,
        "14113": 246,
        "14114": 40,
        "14115": 116,
        "14116": 234,
        "14117": 1,
        "14118": 23,
        "14119": 183,
        "14120": 152,
        "14121": 141,
        "14122": 232,
        "14123": 115,
        "14124": 165,
        "14125": 30,
        "14126": 18,
        "14127": 164,
        "14128": 57,
        "14129": 59,
        "14130": 205,
        "14131": 148,
        "14132": 129,
        "14133": 194,
        "14134": 79,
        "14135": 152,
        "14136": 247,
        "14137": 191,
        "14138": 62,
        "14139": 92,
        "14140": 221,
        "14141": 139,
        "14142": 207,
        "14143": 213,
        "14144": 208,
        "14145": 39,
        "14146": 102,
        "14147": 146,
        "14148": 62,
        "14149": 116,
        "14150": 11,
        "14151": 131,
        "14152": 185,
        "14153": 12,
        "14154": 122,
        "14155": 204,
        "14156": 60,
        "14157": 27,
        "14158": 176,
        "14159": 202,
        "14160": 217,
        "14161": 80,
        "14162": 7,
        "14163": 4,
        "14164": 53,
        "14165": 248,
        "14166": 53,
        "14167": 39,
        "14168": 79,
        "14169": 223,
        "14170": 71,
        "14171": 176,
        "14172": 20,
        "14173": 116,
        "14174": 7,
        "14175": 72,
        "14176": 224,
        "14177": 202,
        "14178": 36,
        "14179": 191,
        "14180": 149,
        "14181": 177,
        "14182": 80,
        "14183": 75,
        "14184": 198,
        "14185": 127,
        "14186": 230,
        "14187": 5,
        "14188": 237,
        "14189": 19,
        "14190": 204,
        "14191": 146,
        "14192": 195,
        "14193": 230,
        "14194": 199,
        "14195": 175,
        "14196": 163,
        "14197": 16,
        "14198": 7,
        "14199": 1,
        "14200": 225,
        "14201": 122,
        "14202": 72,
        "14203": 81,
        "14204": 120,
        "14205": 191,
        "14206": 200,
        "14207": 68,
        "14208": 210,
        "14209": 131,
        "14210": 213,
        "14211": 43,
        "14212": 109,
        "14213": 1,
        "14214": 39,
        "14215": 85,
        "14216": 191,
        "14217": 178,
        "14218": 16,
        "14219": 170,
        "14220": 171,
        "14221": 243,
        "14222": 53,
        "14223": 48,
        "14224": 173,
        "14225": 108,
        "14226": 142,
        "14227": 14,
        "14228": 30,
        "14229": 215,
        "14230": 177,
        "14231": 122,
        "14232": 100,
        "14233": 86,
        "14234": 145,
        "14235": 164,
        "14236": 13,
        "14237": 27,
        "14238": 85,
        "14239": 53,
        "14240": 212,
        "14241": 204,
        "14242": 148,
        "14243": 78,
        "14244": 167,
        "14245": 234,
        "14246": 172,
        "14247": 165,
        "14248": 202,
        "14249": 236,
        "14250": 244,
        "14251": 179,
        "14252": 153,
        "14253": 128,
        "14254": 123,
        "14255": 121,
        "14256": 172,
        "14257": 231,
        "14258": 131,
        "14259": 174,
        "14260": 182,
        "14261": 52,
        "14262": 124,
        "14263": 78,
        "14264": 65,
        "14265": 205,
        "14266": 30,
        "14267": 234,
        "14268": 127,
        "14269": 38,
        "14270": 200,
        "14271": 246,
        "14272": 28,
        "14273": 221,
        "14274": 132,
        "14275": 48,
        "14276": 182,
        "14277": 0,
        "14278": 230,
        "14279": 24,
        "14280": 77,
        "14281": 139,
        "14282": 204,
        "14283": 226,
        "14284": 16,
        "14285": 212,
        "14286": 198,
        "14287": 101,
        "14288": 166,
        "14289": 219,
        "14290": 199,
        "14291": 57,
        "14292": 89,
        "14293": 131,
        "14294": 2,
        "14295": 205,
        "14296": 183,
        "14297": 40,
        "14298": 2,
        "14299": 10,
        "14300": 150,
        "14301": 179,
        "14302": 100,
        "14303": 42,
        "14304": 25,
        "14305": 38,
        "14306": 132,
        "14307": 161,
        "14308": 46,
        "14309": 0,
        "14310": 153,
        "14311": 231,
        "14312": 240,
        "14313": 249,
        "14314": 15,
        "14315": 163,
        "14316": 72,
        "14317": 207,
        "14318": 64,
        "14319": 252,
        "14320": 108,
        "14321": 113,
        "14322": 140,
        "14323": 222,
        "14324": 244,
        "14325": 193,
        "14326": 187,
        "14327": 71,
        "14328": 215,
        "14329": 206,
        "14330": 141,
        "14331": 72,
        "14332": 54,
        "14333": 160,
        "14334": 136,
        "14335": 118,
        "14336": 213,
        "14337": 69,
        "14338": 132,
        "14339": 20,
        "14340": 52,
        "14341": 138,
        "14342": 83,
        "14343": 8,
        "14344": 180,
        "14345": 254,
        "14346": 70,
        "14347": 169,
        "14348": 20,
        "14349": 166,
        "14350": 138,
        "14351": 32,
        "14352": 205,
        "14353": 129,
        "14354": 225,
        "14355": 217,
        "14356": 53,
        "14357": 253,
        "14358": 201,
        "14359": 213,
        "14360": 57,
        "14361": 5,
        "14362": 67,
        "14363": 5,
        "14364": 227,
        "14365": 248,
        "14366": 67,
        "14367": 56,
        "14368": 4,
        "14369": 127,
        "14370": 73,
        "14371": 64,
        "14372": 138,
        "14373": 171,
        "14374": 106,
        "14375": 106,
        "14376": 246,
        "14377": 78,
        "14378": 79,
        "14379": 108,
        "14380": 14,
        "14381": 69,
        "14382": 219,
        "14383": 39,
        "14384": 64,
        "14385": 90,
        "14386": 39,
        "14387": 59,
        "14388": 196,
        "14389": 55,
        "14390": 22,
        "14391": 159,
        "14392": 87,
        "14393": 180,
        "14394": 214,
        "14395": 56,
        "14396": 242,
        "14397": 178,
        "14398": 59,
        "14399": 163,
        "14400": 249,
        "14401": 176,
        "14402": 39,
        "14403": 148,
        "14404": 104,
        "14405": 76,
        "14406": 107,
        "14407": 21,
        "14408": 96,
        "14409": 248,
        "14410": 90,
        "14411": 52,
        "14412": 163,
        "14413": 167,
        "14414": 79,
        "14415": 61,
        "14416": 14,
        "14417": 107,
        "14418": 89,
        "14419": 8,
        "14420": 59,
        "14421": 46,
        "14422": 171,
        "14423": 206,
        "14424": 175,
        "14425": 170,
        "14426": 193,
        "14427": 107,
        "14428": 53,
        "14429": 6,
        "14430": 251,
        "14431": 135,
        "14432": 232,
        "14433": 237,
        "14434": 194,
        "14435": 97,
        "14436": 10,
        "14437": 112,
        "14438": 75,
        "14439": 77,
        "14440": 61,
        "14441": 245,
        "14442": 194,
        "14443": 120,
        "14444": 57,
        "14445": 177,
        "14446": 2,
        "14447": 134,
        "14448": 136,
        "14449": 222,
        "14450": 238,
        "14451": 11,
        "14452": 137,
        "14453": 84,
        "14454": 154,
        "14455": 60,
        "14456": 122,
        "14457": 187,
        "14458": 251,
        "14459": 34,
        "14460": 247,
        "14461": 20,
        "14462": 119,
        "14463": 127,
        "14464": 183,
        "14465": 8,
        "14466": 41,
        "14467": 93,
        "14468": 137,
        "14469": 156,
        "14470": 111,
        "14471": 185,
        "14472": 254,
        "14473": 212,
        "14474": 91,
        "14475": 6,
        "14476": 71,
        "14477": 248,
        "14478": 173,
        "14479": 253,
        "14480": 55,
        "14481": 34,
        "14482": 78,
        "14483": 211,
        "14484": 191,
        "14485": 242,
        "14486": 40,
        "14487": 236,
        "14488": 134,
        "14489": 232,
        "14490": 32,
        "14491": 149,
        "14492": 123,
        "14493": 60,
        "14494": 103,
        "14495": 76,
        "14496": 27,
        "14497": 38,
        "14498": 26,
        "14499": 220,
        "14500": 184,
        "14501": 21,
        "14502": 40,
        "14503": 136,
        "14504": 10,
        "14505": 112,
        "14506": 74,
        "14507": 18,
        "14508": 245,
        "14509": 20,
        "14510": 63,
        "14511": 218,
        "14512": 10,
        "14513": 253,
        "14514": 58,
        "14515": 78,
        "14516": 116,
        "14517": 174,
        "14518": 195,
        "14519": 63,
        "14520": 245,
        "14521": 3,
        "14522": 17,
        "14523": 2,
        "14524": 152,
        "14525": 3,
        "14526": 86,
        "14527": 124,
        "14528": 241,
        "14529": 205,
        "14530": 113,
        "14531": 58,
        "14532": 112,
        "14533": 167,
        "14534": 156,
        "14535": 226,
        "14536": 200,
        "14537": 111,
        "14538": 209,
        "14539": 115,
        "14540": 97,
        "14541": 163,
        "14542": 83,
        "14543": 16,
        "14544": 144,
        "14545": 236,
        "14546": 69,
        "14547": 17,
        "14548": 20,
        "14549": 163,
        "14550": 167,
        "14551": 228,
        "14552": 189,
        "14553": 52,
        "14554": 73,
        "14555": 94,
        "14556": 150,
        "14557": 227,
        "14558": 240,
        "14559": 34,
        "14560": 245,
        "14561": 206,
        "14562": 172,
        "14563": 210,
        "14564": 178,
        "14565": 214,
        "14566": 43,
        "14567": 147,
        "14568": 42,
        "14569": 37,
        "14570": 190,
        "14571": 44,
        "14572": 73,
        "14573": 183,
        "14574": 10,
        "14575": 102,
        "14576": 41,
        "14577": 234,
        "14578": 141,
        "14579": 52,
        "14580": 167,
        "14581": 235,
        "14582": 82,
        "14583": 227,
        "14584": 142,
        "14585": 122,
        "14586": 126,
        "14587": 104,
        "14588": 28,
        "14589": 115,
        "14590": 18,
        "14591": 41,
        "14592": 127,
        "14593": 161,
        "14594": 200,
        "14595": 249,
        "14596": 181,
        "14597": 197,
        "14598": 166,
        "14599": 115,
        "14600": 111,
        "14601": 177,
        "14602": 83,
        "14603": 123,
        "14604": 58,
        "14605": 203,
        "14606": 203,
        "14607": 46,
        "14608": 213,
        "14609": 94,
        "14610": 150,
        "14611": 199,
        "14612": 219,
        "14613": 166,
        "14614": 142,
        "14615": 19,
        "14616": 63,
        "14617": 236,
        "14618": 207,
        "14619": 148,
        "14620": 236,
        "14621": 239,
        "14622": 213,
        "14623": 46,
        "14624": 92,
        "14625": 219,
        "14626": 51,
        "14627": 172,
        "14628": 48,
        "14629": 142,
        "14630": 209,
        "14631": 141,
        "14632": 150,
        "14633": 157,
        "14634": 16,
        "14635": 118,
        "14636": 74,
        "14637": 54,
        "14638": 233,
        "14639": 226,
        "14640": 248,
        "14641": 197,
        "14642": 82,
        "14643": 132,
        "14644": 203,
        "14645": 201,
        "14646": 22,
        "14647": 55,
        "14648": 26,
        "14649": 75,
        "14650": 97,
        "14651": 40,
        "14652": 63,
        "14653": 43,
        "14654": 83,
        "14655": 242,
        "14656": 127,
        "14657": 17,
        "14658": 190,
        "14659": 173,
        "14660": 7,
        "14661": 168,
        "14662": 114,
        "14663": 60,
        "14664": 240,
        "14665": 161,
        "14666": 139,
        "14667": 158,
        "14668": 147,
        "14669": 252,
        "14670": 110,
        "14671": 91,
        "14672": 82,
        "14673": 206,
        "14674": 217,
        "14675": 52,
        "14676": 0,
        "14677": 100,
        "14678": 67,
        "14679": 154,
        "14680": 113,
        "14681": 185,
        "14682": 59,
        "14683": 73,
        "14684": 72,
        "14685": 227,
        "14686": 143,
        "14687": 17,
        "14688": 13,
        "14689": 190,
        "14690": 249,
        "14691": 213,
        "14692": 220,
        "14693": 130,
        "14694": 21,
        "14695": 127,
        "14696": 65,
        "14697": 23,
        "14698": 81,
        "14699": 159,
        "14700": 166,
        "14701": 202,
        "14702": 50,
        "14703": 121,
        "14704": 173,
        "14705": 137,
        "14706": 77,
        "14707": 75,
        "14708": 137,
        "14709": 153,
        "14710": 17,
        "14711": 177,
        "14712": 131,
        "14713": 126,
        "14714": 225,
        "14715": 14,
        "14716": 201,
        "14717": 37,
        "14718": 198,
        "14719": 57,
        "14720": 105,
        "14721": 76,
        "14722": 203,
        "14723": 6,
        "14724": 38,
        "14725": 137,
        "14726": 179,
        "14727": 85,
        "14728": 229,
        "14729": 135,
        "14730": 23,
        "14731": 88,
        "14732": 0,
        "14733": 214,
        "14734": 174,
        "14735": 114,
        "14736": 102,
        "14737": 24,
        "14738": 42,
        "14739": 196,
        "14740": 138,
        "14741": 53,
        "14742": 138,
        "14743": 41,
        "14744": 198,
        "14745": 88,
        "14746": 222,
        "14747": 74,
        "14748": 170,
        "14749": 115,
        "14750": 91,
        "14751": 238,
        "14752": 31,
        "14753": 234,
        "14754": 17,
        "14755": 170,
        "14756": 191,
        "14757": 107,
        "14758": 227,
        "14759": 196,
        "14760": 193,
        "14761": 106,
        "14762": 2,
        "14763": 55,
        "14764": 77,
        "14765": 53,
        "14766": 196,
        "14767": 39,
        "14768": 17,
        "14769": 151,
        "14770": 99,
        "14771": 81,
        "14772": 255,
        "14773": 97,
        "14774": 143,
        "14775": 240,
        "14776": 57,
        "14777": 238,
        "14778": 64,
        "14779": 178,
        "14780": 125,
        "14781": 35,
        "14782": 70,
        "14783": 231,
        "14784": 252,
        "14785": 91,
        "14786": 203,
        "14787": 208,
        "14788": 105,
        "14789": 240,
        "14790": 162,
        "14791": 31,
        "14792": 238,
        "14793": 89,
        "14794": 103,
        "14795": 143,
        "14796": 242,
        "14797": 60,
        "14798": 247,
        "14799": 138,
        "14800": 112,
        "14801": 210,
        "14802": 185,
        "14803": 217,
        "14804": 69,
        "14805": 13,
        "14806": 120,
        "14807": 97,
        "14808": 80,
        "14809": 159,
        "14810": 122,
        "14811": 226,
        "14812": 32,
        "14813": 126,
        "14814": 92,
        "14815": 33,
        "14816": 28,
        "14817": 177,
        "14818": 172,
        "14819": 18,
        "14820": 201,
        "14821": 133,
        "14822": 53,
        "14823": 174,
        "14824": 254,
        "14825": 0,
        "14826": 187,
        "14827": 180,
        "14828": 139,
        "14829": 204,
        "14830": 86,
        "14831": 80,
        "14832": 223,
        "14833": 77,
        "14834": 61,
        "14835": 78,
        "14836": 17,
        "14837": 221,
        "14838": 195,
        "14839": 105,
        "14840": 249,
        "14841": 222,
        "14842": 169,
        "14843": 151,
        "14844": 219,
        "14845": 132,
        "14846": 119,
        "14847": 78,
        "14848": 55,
        "14849": 4,
        "14850": 105,
        "14851": 67,
        "14852": 25,
        "14853": 113,
        "14854": 202,
        "14855": 3,
        "14856": 158,
        "14857": 161,
        "14858": 155,
        "14859": 1,
        "14860": 40,
        "14861": 197,
        "14862": 166,
        "14863": 174,
        "14864": 144,
        "14865": 114,
        "14866": 120,
        "14867": 243,
        "14868": 66,
        "14869": 10,
        "14870": 237,
        "14871": 108,
        "14872": 170,
        "14873": 224,
        "14874": 197,
        "14875": 228,
        "14876": 226,
        "14877": 34,
        "14878": 113,
        "14879": 209,
        "14880": 130,
        "14881": 219,
        "14882": 170,
        "14883": 114,
        "14884": 234,
        "14885": 1,
        "14886": 203,
        "14887": 181,
        "14888": 205,
        "14889": 136,
        "14890": 124,
        "14891": 11,
        "14892": 147,
        "14893": 189,
        "14894": 144,
        "14895": 198,
        "14896": 93,
        "14897": 89,
        "14898": 46,
        "14899": 64,
        "14900": 97,
        "14901": 148,
        "14902": 251,
        "14903": 133,
        "14904": 172,
        "14905": 203,
        "14906": 97,
        "14907": 48,
        "14908": 193,
        "14909": 167,
        "14910": 242,
        "14911": 30,
        "14912": 239,
        "14913": 199,
        "14914": 16,
        "14915": 197,
        "14916": 97,
        "14917": 63,
        "14918": 74,
        "14919": 176,
        "14920": 114,
        "14921": 235,
        "14922": 9,
        "14923": 232,
        "14924": 120,
        "14925": 179,
        "14926": 168,
        "14927": 148,
        "14928": 83,
        "14929": 163,
        "14930": 119,
        "14931": 147,
        "14932": 239,
        "14933": 27,
        "14934": 192,
        "14935": 131,
        "14936": 10,
        "14937": 231,
        "14938": 112,
        "14939": 90,
        "14940": 42,
        "14941": 177,
        "14942": 150,
        "14943": 98,
        "14944": 139,
        "14945": 99,
        "14946": 239,
        "14947": 143,
        "14948": 52,
        "14949": 193,
        "14950": 250,
        "14951": 119,
        "14952": 232,
        "14953": 227,
        "14954": 147,
        "14955": 54,
        "14956": 49,
        "14957": 225,
        "14958": 186,
        "14959": 169,
        "14960": 66,
        "14961": 236,
        "14962": 170,
        "14963": 204,
        "14964": 231,
        "14965": 37,
        "14966": 183,
        "14967": 18,
        "14968": 89,
        "14969": 241,
        "14970": 56,
        "14971": 208,
        "14972": 146,
        "14973": 129,
        "14974": 15,
        "14975": 107,
        "14976": 253,
        "14977": 20,
        "14978": 88,
        "14979": 154,
        "14980": 162,
        "14981": 225,
        "14982": 226,
        "14983": 134,
        "14984": 229,
        "14985": 94,
        "14986": 104,
        "14987": 177,
        "14988": 48,
        "14989": 159,
        "14990": 154,
        "14991": 51,
        "14992": 185,
        "14993": 168,
        "14994": 180,
        "14995": 136,
        "14996": 164,
        "14997": 108,
        "14998": 18,
        "14999": 174,
        "15000": 54,
        "15001": 255,
        "15002": 177,
        "15003": 203,
        "15004": 39,
        "15005": 231,
        "15006": 131,
        "15007": 1,
        "15008": 7,
        "15009": 204,
        "15010": 109,
        "15011": 66,
        "15012": 226,
        "15013": 207,
        "15014": 30,
        "15015": 161,
        "15016": 212,
        "15017": 56,
        "15018": 45,
        "15019": 89,
        "15020": 105,
        "15021": 103,
        "15022": 220,
        "15023": 230,
        "15024": 71,
        "15025": 182,
        "15026": 21,
        "15027": 35,
        "15028": 159,
        "15029": 124,
        "15030": 48,
        "15031": 130,
        "15032": 134,
        "15033": 245,
        "15034": 57,
        "15035": 224,
        "15036": 72,
        "15037": 245,
        "15038": 55,
        "15039": 134,
        "15040": 139,
        "15041": 88,
        "15042": 188,
        "15043": 116,
        "15044": 122,
        "15045": 39,
        "15046": 127,
        "15047": 133,
        "15048": 63,
        "15049": 214,
        "15050": 113,
        "15051": 229,
        "15052": 245,
        "15053": 68,
        "15054": 50,
        "15055": 217,
        "15056": 148,
        "15057": 218,
        "15058": 50,
        "15059": 99,
        "15060": 108,
        "15061": 102,
        "15062": 169,
        "15063": 107,
        "15064": 115,
        "15065": 94,
        "15066": 249,
        "15067": 171,
        "15068": 131,
        "15069": 103,
        "15070": 162,
        "15071": 110,
        "15072": 204,
        "15073": 110,
        "15074": 181,
        "15075": 221,
        "15076": 155,
        "15077": 84,
        "15078": 72,
        "15079": 151,
        "15080": 99,
        "15081": 52,
        "15082": 31,
        "15083": 190,
        "15084": 246,
        "15085": 76,
        "15086": 23,
        "15087": 85,
        "15088": 84,
        "15089": 239,
        "15090": 126,
        "15091": 64,
        "15092": 169,
        "15093": 226,
        "15094": 73,
        "15095": 167,
        "15096": 224,
        "15097": 152,
        "15098": 61,
        "15099": 6,
        "15100": 237,
        "15101": 68,
        "15102": 39,
        "15103": 213,
        "15104": 18,
        "15105": 161,
        "15106": 216,
        "15107": 28,
        "15108": 8,
        "15109": 240,
        "15110": 225,
        "15111": 134,
        "15112": 16,
        "15113": 15,
        "15114": 203,
        "15115": 225,
        "15116": 50,
        "15117": 141,
        "15118": 128,
        "15119": 210,
        "15120": 26,
        "15121": 79,
        "15122": 72,
        "15123": 205,
        "15124": 75,
        "15125": 145,
        "15126": 95,
        "15127": 167,
        "15128": 105,
        "15129": 254,
        "15130": 150,
        "15131": 26,
        "15132": 207,
        "15133": 234,
        "15134": 81,
        "15135": 107,
        "15136": 159,
        "15137": 36,
        "15138": 110,
        "15139": 114,
        "15140": 200,
        "15141": 223,
        "15142": 191,
        "15143": 79,
        "15144": 74,
        "15145": 32,
        "15146": 109,
        "15147": 83,
        "15148": 237,
        "15149": 123,
        "15150": 30,
        "15151": 159,
        "15152": 134,
        "15153": 77,
        "15154": 253,
        "15155": 135,
        "15156": 52,
        "15157": 13,
        "15158": 202,
        "15159": 15,
        "15160": 9,
        "15161": 60,
        "15162": 95,
        "15163": 217,
        "15164": 154,
        "15165": 22,
        "15166": 192,
        "15167": 131,
        "15168": 13,
        "15169": 9,
        "15170": 241,
        "15171": 243,
        "15172": 238,
        "15173": 87,
        "15174": 120,
        "15175": 159,
        "15176": 41,
        "15177": 67,
        "15178": 83,
        "15179": 221,
        "15180": 28,
        "15181": 65,
        "15182": 23,
        "15183": 245,
        "15184": 122,
        "15185": 223,
        "15186": 18,
        "15187": 253,
        "15188": 20,
        "15189": 47,
        "15190": 155,
        "15191": 108,
        "15192": 255,
        "15193": 143,
        "15194": 213,
        "15195": 40,
        "15196": 184,
        "15197": 249,
        "15198": 32,
        "15199": 244,
        "15200": 198,
        "15201": 250,
        "15202": 61,
        "15203": 198,
        "15204": 13,
        "15205": 194,
        "15206": 48,
        "15207": 106,
        "15208": 40,
        "15209": 57,
        "15210": 75,
        "15211": 222,
        "15212": 208,
        "15213": 41,
        "15214": 113,
        "15215": 161,
        "15216": 149,
        "15217": 243,
        "15218": 237,
        "15219": 131,
        "15220": 181,
        "15221": 29,
        "15222": 156,
        "15223": 19,
        "15224": 204,
        "15225": 56,
        "15226": 101,
        "15227": 186,
        "15228": 154,
        "15229": 119,
        "15230": 9,
        "15231": 226,
        "15232": 203,
        "15233": 191,
        "15234": 49,
        "15235": 230,
        "15236": 1,
        "15237": 131,
        "15238": 191,
        "15239": 253,
        "15240": 168,
        "15241": 235,
        "15242": 142,
        "15243": 92,
        "15244": 43,
        "15245": 54,
        "15246": 38,
        "15247": 94,
        "15248": 19,
        "15249": 88,
        "15250": 47,
        "15251": 140,
        "15252": 64,
        "15253": 76,
        "15254": 197,
        "15255": 63,
        "15256": 212,
        "15257": 133,
        "15258": 81,
        "15259": 192,
        "15260": 177,
        "15261": 224,
        "15262": 82,
        "15263": 151,
        "15264": 114,
        "15265": 21,
        "15266": 178,
        "15267": 169,
        "15268": 10,
        "15269": 95,
        "15270": 98,
        "15271": 227,
        "15272": 11,
        "15273": 152,
        "15274": 91,
        "15275": 202,
        "15276": 51,
        "15277": 115,
        "15278": 94,
        "15279": 56,
        "15280": 86,
        "15281": 122,
        "15282": 179,
        "15283": 232,
        "15284": 172,
        "15285": 178,
        "15286": 237,
        "15287": 109,
        "15288": 131,
        "15289": 123,
        "15290": 234,
        "15291": 183,
        "15292": 75,
        "15293": 129,
        "15294": 8,
        "15295": 9,
        "15296": 54,
        "15297": 10,
        "15298": 220,
        "15299": 39,
        "15300": 213,
        "15301": 33,
        "15302": 129,
        "15303": 147,
        "15304": 235,
        "15305": 96,
        "15306": 157,
        "15307": 245,
        "15308": 46,
        "15309": 184,
        "15310": 37,
        "15311": 103,
        "15312": 36,
        "15313": 35,
        "15314": 86,
        "15315": 73,
        "15316": 8,
        "15317": 190,
        "15318": 25,
        "15319": 253,
        "15320": 245,
        "15321": 196,
        "15322": 54,
        "15323": 159,
        "15324": 26,
        "15325": 25,
        "15326": 207,
        "15327": 161,
        "15328": 92,
        "15329": 209,
        "15330": 131,
        "15331": 16,
        "15332": 114,
        "15333": 180,
        "15334": 33,
        "15335": 201,
        "15336": 40,
        "15337": 115,
        "15338": 55,
        "15339": 38,
        "15340": 125,
        "15341": 244,
        "15342": 40,
        "15343": 170,
        "15344": 105,
        "15345": 180,
        "15346": 135,
        "15347": 196,
        "15348": 108,
        "15349": 66,
        "15350": 115,
        "15351": 68,
        "15352": 215,
        "15353": 160,
        "15354": 121,
        "15355": 179,
        "15356": 190,
        "15357": 246,
        "15358": 140,
        "15359": 111,
        "15360": 67,
        "15361": 106,
        "15362": 7,
        "15363": 60,
        "15364": 58,
        "15365": 50,
        "15366": 171,
        "15367": 71,
        "15368": 100,
        "15369": 126,
        "15370": 155,
        "15371": 231,
        "15372": 116,
        "15373": 27,
        "15374": 5,
        "15375": 155,
        "15376": 218,
        "15377": 112,
        "15378": 156,
        "15379": 40,
        "15380": 123,
        "15381": 247,
        "15382": 137,
        "15383": 251,
        "15384": 131,
        "15385": 76,
        "15386": 149,
        "15387": 155,
        "15388": 48,
        "15389": 47,
        "15390": 111,
        "15391": 56,
        "15392": 117,
        "15393": 178,
        "15394": 104,
        "15395": 231,
        "15396": 238,
        "15397": 26,
        "15398": 212,
        "15399": 6,
        "15400": 16,
        "15401": 31,
        "15402": 232,
        "15403": 72,
        "15404": 45,
        "15405": 213,
        "15406": 94,
        "15407": 183,
        "15408": 5,
        "15409": 152,
        "15410": 87,
        "15411": 199,
        "15412": 130,
        "15413": 1,
        "15414": 72,
        "15415": 9,
        "15416": 190,
        "15417": 170,
        "15418": 255,
        "15419": 180,
        "15420": 26,
        "15421": 227,
        "15422": 212,
        "15423": 214,
        "15424": 30,
        "15425": 198,
        "15426": 127,
        "15427": 245,
        "15428": 100,
        "15429": 235,
        "15430": 11,
        "15431": 164,
        "15432": 178,
        "15433": 254,
        "15434": 84,
        "15435": 204,
        "15436": 41,
        "15437": 5,
        "15438": 212,
        "15439": 210,
        "15440": 91,
        "15441": 4,
        "15442": 153,
        "15443": 53,
        "15444": 136,
        "15445": 3,
        "15446": 184,
        "15447": 198,
        "15448": 70,
        "15449": 47,
        "15450": 225,
        "15451": 12,
        "15452": 223,
        "15453": 52,
        "15454": 69,
        "15455": 116,
        "15456": 190,
        "15457": 23,
        "15458": 8,
        "15459": 123,
        "15460": 102,
        "15461": 205,
        "15462": 103,
        "15463": 221,
        "15464": 81,
        "15465": 69,
        "15466": 234,
        "15467": 239,
        "15468": 35,
        "15469": 28,
        "15470": 19,
        "15471": 252,
        "15472": 183,
        "15473": 62,
        "15474": 223,
        "15475": 69,
        "15476": 188,
        "15477": 16,
        "15478": 83,
        "15479": 200,
        "15480": 4,
        "15481": 22,
        "15482": 199,
        "15483": 158,
        "15484": 54,
        "15485": 204,
        "15486": 6,
        "15487": 1,
        "15488": 62,
        "15489": 116,
        "15490": 33,
        "15491": 247,
        "15492": 212,
        "15493": 79,
        "15494": 231,
        "15495": 240,
        "15496": 13,
        "15497": 146,
        "15498": 141,
        "15499": 1,
        "15500": 3,
        "15501": 67,
        "15502": 147,
        "15503": 78,
        "15504": 167,
        "15505": 100,
        "15506": 209,
        "15507": 92,
        "15508": 2,
        "15509": 44,
        "15510": 132,
        "15511": 167,
        "15512": 136,
        "15513": 210,
        "15514": 159,
        "15515": 211,
        "15516": 129,
        "15517": 0,
        "15518": 35,
        "15519": 236,
        "15520": 231,
        "15521": 253,
        "15522": 41,
        "15523": 133,
        "15524": 238,
        "15525": 130,
        "15526": 17,
        "15527": 143,
        "15528": 47,
        "15529": 28,
        "15530": 134,
        "15531": 93,
        "15532": 201,
        "15533": 34,
        "15534": 10,
        "15535": 54,
        "15536": 43,
        "15537": 58,
        "15538": 165,
        "15539": 58,
        "15540": 148,
        "15541": 26,
        "15542": 205,
        "15543": 154,
        "15544": 12,
        "15545": 226,
        "15546": 222,
        "15547": 175,
        "15548": 224,
        "15549": 24,
        "15550": 187,
        "15551": 3,
        "15552": 238,
        "15553": 45,
        "15554": 198,
        "15555": 84,
        "15556": 172,
        "15557": 122,
        "15558": 245,
        "15559": 108,
        "15560": 182,
        "15561": 134,
        "15562": 151,
        "15563": 213,
        "15564": 52,
        "15565": 98,
        "15566": 6,
        "15567": 85,
        "15568": 218,
        "15569": 24,
        "15570": 235,
        "15571": 236,
        "15572": 236,
        "15573": 42,
        "15574": 175,
        "15575": 131,
        "15576": 45,
        "15577": 55,
        "15578": 227,
        "15579": 207,
        "15580": 171,
        "15581": 23,
        "15582": 123,
        "15583": 214,
        "15584": 68,
        "15585": 117,
        "15586": 10,
        "15587": 239,
        "15588": 147,
        "15589": 207,
        "15590": 97,
        "15591": 115,
        "15592": 50,
        "15593": 190,
        "15594": 45,
        "15595": 100,
        "15596": 57,
        "15597": 123,
        "15598": 201,
        "15599": 45,
        "15600": 93,
        "15601": 130,
        "15602": 230,
        "15603": 88,
        "15604": 38,
        "15605": 244,
        "15606": 22,
        "15607": 194,
        "15608": 251,
        "15609": 175,
        "15610": 106,
        "15611": 13,
        "15612": 73,
        "15613": 114,
        "15614": 102,
        "15615": 10,
        "15616": 148,
        "15617": 165,
        "15618": 149,
        "15619": 126,
        "15620": 255,
        "15621": 154,
        "15622": 68,
        "15623": 229,
        "15624": 27,
        "15625": 11,
        "15626": 140,
        "15627": 196,
        "15628": 65,
        "15629": 4,
        "15630": 22,
        "15631": 65,
        "15632": 227,
        "15633": 88,
        "15634": 238,
        "15635": 154,
        "15636": 38,
        "15637": 161,
        "15638": 246,
        "15639": 144,
        "15640": 208,
        "15641": 25,
        "15642": 27,
        "15643": 129,
        "15644": 86,
        "15645": 99,
        "15646": 184,
        "15647": 3,
        "15648": 91,
        "15649": 207,
        "15650": 14,
        "15651": 152,
        "15652": 125,
        "15653": 115,
        "15654": 189,
        "15655": 101,
        "15656": 156,
        "15657": 6,
        "15658": 214,
        "15659": 227,
        "15660": 169,
        "15661": 15,
        "15662": 132,
        "15663": 167,
        "15664": 129,
        "15665": 180,
        "15666": 161,
        "15667": 204,
        "15668": 205,
        "15669": 145,
        "15670": 44,
        "15671": 251,
        "15672": 61,
        "15673": 57,
        "15674": 236,
        "15675": 174,
        "15676": 145,
        "15677": 67,
        "15678": 226,
        "15679": 31,
        "15680": 219,
        "15681": 192,
        "15682": 168,
        "15683": 166,
        "15684": 98,
        "15685": 43,
        "15686": 118,
        "15687": 178,
        "15688": 173,
        "15689": 160,
        "15690": 149,
        "15691": 5,
        "15692": 29,
        "15693": 185,
        "15694": 104,
        "15695": 90,
        "15696": 19,
        "15697": 71,
        "15698": 115,
        "15699": 141,
        "15700": 10,
        "15701": 37,
        "15702": 90,
        "15703": 25,
        "15704": 196,
        "15705": 88,
        "15706": 114,
        "15707": 229,
        "15708": 76,
        "15709": 115,
        "15710": 113,
        "15711": 173,
        "15712": 130,
        "15713": 113,
        "15714": 31,
        "15715": 209,
        "15716": 198,
        "15717": 106,
        "15718": 47,
        "15719": 172,
        "15720": 202,
        "15721": 163,
        "15722": 84,
        "15723": 209,
        "15724": 252,
        "15725": 67,
        "15726": 185,
        "15727": 121,
        "15728": 18,
        "15729": 205,
        "15730": 253,
        "15731": 43,
        "15732": 43,
        "15733": 252,
        "15734": 100,
        "15735": 131,
        "15736": 74,
        "15737": 177,
        "15738": 214,
        "15739": 242,
        "15740": 42,
        "15741": 201,
        "15742": 212,
        "15743": 113,
        "15744": 204,
        "15745": 255,
        "15746": 224,
        "15747": 180,
        "15748": 30,
        "15749": 215,
        "15750": 156,
        "15751": 10,
        "15752": 45,
        "15753": 227,
        "15754": 67,
        "15755": 65,
        "15756": 225,
        "15757": 141,
        "15758": 20,
        "15759": 135,
        "15760": 100,
        "15761": 160,
        "15762": 235,
        "15763": 59,
        "15764": 128,
        "15765": 235,
        "15766": 38,
        "15767": 14,
        "15768": 0,
        "15769": 150,
        "15770": 122,
        "15771": 74,
        "15772": 111,
        "15773": 145,
        "15774": 100,
        "15775": 211,
        "15776": 128,
        "15777": 240,
        "15778": 254,
        "15779": 246,
        "15780": 71,
        "15781": 49,
        "15782": 168,
        "15783": 237,
        "15784": 59,
        "15785": 247,
        "15786": 91,
        "15787": 104,
        "15788": 41,
        "15789": 242,
        "15790": 191,
        "15791": 79,
        "15792": 247,
        "15793": 82,
        "15794": 231,
        "15795": 197,
        "15796": 61,
        "15797": 191,
        "15798": 187,
        "15799": 128,
        "15800": 113,
        "15801": 198,
        "15802": 159,
        "15803": 56,
        "15804": 12,
        "15805": 212,
        "15806": 139,
        "15807": 117,
        "15808": 196,
        "15809": 245,
        "15810": 132,
        "15811": 240,
        "15812": 107,
        "15813": 155,
        "15814": 33,
        "15815": 12,
        "15816": 62,
        "15817": 159,
        "15818": 36,
        "15819": 68,
        "15820": 235,
        "15821": 48,
        "15822": 61,
        "15823": 64,
        "15824": 4,
        "15825": 90,
        "15826": 170,
        "15827": 204,
        "15828": 198,
        "15829": 217,
        "15830": 145,
        "15831": 8,
        "15832": 216,
        "15833": 229,
        "15834": 86,
        "15835": 62,
        "15836": 160,
        "15837": 199,
        "15838": 85,
        "15839": 56,
        "15840": 133,
        "15841": 209,
        "15842": 95,
        "15843": 113,
        "15844": 77,
        "15845": 42,
        "15846": 189,
        "15847": 151,
        "15848": 224,
        "15849": 175,
        "15850": 231,
        "15851": 238,
        "15852": 196,
        "15853": 89,
        "15854": 23,
        "15855": 23,
        "15856": 210,
        "15857": 1,
        "15858": 33,
        "15859": 55,
        "15860": 192,
        "15861": 30,
        "15862": 126,
        "15863": 56,
        "15864": 8,
        "15865": 238,
        "15866": 58,
        "15867": 46,
        "15868": 74,
        "15869": 96,
        "15870": 169,
        "15871": 132,
        "15872": 197,
        "15873": 88,
        "15874": 210,
        "15875": 235,
        "15876": 135,
        "15877": 177,
        "15878": 152,
        "15879": 153,
        "15880": 201,
        "15881": 79,
        "15882": 252,
        "15883": 90,
        "15884": 126,
        "15885": 167,
        "15886": 49,
        "15887": 178,
        "15888": 107,
        "15889": 249,
        "15890": 187,
        "15891": 222,
        "15892": 189,
        "15893": 1,
        "15894": 244,
        "15895": 74,
        "15896": 172,
        "15897": 46,
        "15898": 152,
        "15899": 184,
        "15900": 168,
        "15901": 205,
        "15902": 38,
        "15903": 27,
        "15904": 208,
        "15905": 230,
        "15906": 36,
        "15907": 95,
        "15908": 164,
        "15909": 228,
        "15910": 149,
        "15911": 150,
        "15912": 58,
        "15913": 190,
        "15914": 33,
        "15915": 161,
        "15916": 81,
        "15917": 42,
        "15918": 133,
        "15919": 85,
        "15920": 249,
        "15921": 64,
        "15922": 164,
        "15923": 39,
        "15924": 166,
        "15925": 107,
        "15926": 66,
        "15927": 179,
        "15928": 237,
        "15929": 215,
        "15930": 158,
        "15931": 158,
        "15932": 224,
        "15933": 204,
        "15934": 204,
        "15935": 11,
        "15936": 19,
        "15937": 225,
        "15938": 229,
        "15939": 71,
        "15940": 127,
        "15941": 214,
        "15942": 89,
        "15943": 98,
        "15944": 237,
        "15945": 187,
        "15946": 242,
        "15947": 72,
        "15948": 213,
        "15949": 104,
        "15950": 28,
        "15951": 20,
        "15952": 191,
        "15953": 95,
        "15954": 59,
        "15955": 46,
        "15956": 99,
        "15957": 54,
        "15958": 151,
        "15959": 9,
        "15960": 15,
        "15961": 117,
        "15962": 148,
        "15963": 168,
        "15964": 157,
        "15965": 235,
        "15966": 166,
        "15967": 31,
        "15968": 96,
        "15969": 4,
        "15970": 216,
        "15971": 199,
        "15972": 219,
        "15973": 46,
        "15974": 78,
        "15975": 250,
        "15976": 55,
        "15977": 184,
        "15978": 149,
        "15979": 76,
        "15980": 213,
        "15981": 174,
        "15982": 124,
        "15983": 59,
        "15984": 31,
        "15985": 35,
        "15986": 6,
        "15987": 241,
        "15988": 41,
        "15989": 233,
        "15990": 182,
        "15991": 204,
        "15992": 135,
        "15993": 230,
        "15994": 231,
        "15995": 41,
        "15996": 135,
        "15997": 240,
        "15998": 155,
        "15999": 51,
        "16000": 142,
        "16001": 75,
        "16002": 170,
        "16003": 97,
        "16004": 238,
        "16005": 245,
        "16006": 64,
        "16007": 186,
        "16008": 240,
        "16009": 241,
        "16010": 231,
        "16011": 162,
        "16012": 202,
        "16013": 118,
        "16014": 85,
        "16015": 35,
        "16016": 56,
        "16017": 200,
        "16018": 186,
        "16019": 96,
        "16020": 236,
        "16021": 59,
        "16022": 16,
        "16023": 103,
        "16024": 21,
        "16025": 254,
        "16026": 82,
        "16027": 52,
        "16028": 63,
        "16029": 189,
        "16030": 195,
        "16031": 160,
        "16032": 79,
        "16033": 207,
        "16034": 93,
        "16035": 143,
        "16036": 234,
        "16037": 218,
        "16038": 174,
        "16039": 9,
        "16040": 230,
        "16041": 246,
        "16042": 96,
        "16043": 240,
        "16044": 9,
        "16045": 168,
        "16046": 107,
        "16047": 77,
        "16048": 234,
        "16049": 46,
        "16050": 187,
        "16051": 90,
        "16052": 163,
        "16053": 95,
        "16054": 64,
        "16055": 229,
        "16056": 159,
        "16057": 72,
        "16058": 32,
        "16059": 99,
        "16060": 147,
        "16061": 145,
        "16062": 72,
        "16063": 196,
        "16064": 114,
        "16065": 92,
        "16066": 133,
        "16067": 110,
        "16068": 254,
        "16069": 18,
        "16070": 106,
        "16071": 54,
        "16072": 113,
        "16073": 252,
        "16074": 129,
        "16075": 134,
        "16076": 129,
        "16077": 244,
        "16078": 80,
        "16079": 112,
        "16080": 7,
        "16081": 223,
        "16082": 4,
        "16083": 17,
        "16084": 133,
        "16085": 251,
        "16086": 44,
        "16087": 92,
        "16088": 56,
        "16089": 99,
        "16090": 112,
        "16091": 180,
        "16092": 78,
        "16093": 223,
        "16094": 178,
        "16095": 25,
        "16096": 55,
        "16097": 124,
        "16098": 141,
        "16099": 164,
        "16100": 85,
        "16101": 224,
        "16102": 48,
        "16103": 191,
        "16104": 59,
        "16105": 243,
        "16106": 169,
        "16107": 117,
        "16108": 150,
        "16109": 212,
        "16110": 125,
        "16111": 119,
        "16112": 151,
        "16113": 232,
        "16114": 162,
        "16115": 141,
        "16116": 203,
        "16117": 216,
        "16118": 210,
        "16119": 59,
        "16120": 135,
        "16121": 49,
        "16122": 163,
        "16123": 75,
        "16124": 108,
        "16125": 69,
        "16126": 254,
        "16127": 32,
        "16128": 18,
        "16129": 106,
        "16130": 38,
        "16131": 185,
        "16132": 170,
        "16133": 163,
        "16134": 88,
        "16135": 29,
        "16136": 246,
        "16137": 254,
        "16138": 183,
        "16139": 115,
        "16140": 28,
        "16141": 177,
        "16142": 218,
        "16143": 146,
        "16144": 246,
        "16145": 101,
        "16146": 69,
        "16147": 180,
        "16148": 243,
        "16149": 239,
        "16150": 191,
        "16151": 246,
        "16152": 251,
        "16153": 254,
        "16154": 72,
        "16155": 130,
        "16156": 51,
        "16157": 166,
        "16158": 230,
        "16159": 206,
        "16160": 135,
        "16161": 142,
        "16162": 45,
        "16163": 87,
        "16164": 242,
        "16165": 199,
        "16166": 0,
        "16167": 166,
        "16168": 166,
        "16169": 255,
        "16170": 245,
        "16171": 221,
        "16172": 223,
        "16173": 216,
        "16174": 56,
        "16175": 204,
        "16176": 63,
        "16177": 14,
        "16178": 125,
        "16179": 175,
        "16180": 42,
        "16181": 201,
        "16182": 46,
        "16183": 182,
        "16184": 9,
        "16185": 144,
        "16186": 203,
        "16187": 55,
        "16188": 198,
        "16189": 197,
        "16190": 10,
        "16191": 180,
        "16192": 100,
        "16193": 30,
        "16194": 194,
        "16195": 216,
        "16196": 163,
        "16197": 26,
        "16198": 24,
        "16199": 16,
        "16200": 19,
        "16201": 22,
        "16202": 215,
        "16203": 240,
        "16204": 32,
        "16205": 22,
        "16206": 56,
        "16207": 178,
        "16208": 249,
        "16209": 163,
        "16210": 96,
        "16211": 220,
        "16212": 75,
        "16213": 245,
        "16214": 244,
        "16215": 10,
        "16216": 109,
        "16217": 179,
        "16218": 198,
        "16219": 153,
        "16220": 57,
        "16221": 79,
        "16222": 123,
        "16223": 160,
        "16224": 61,
        "16225": 18,
        "16226": 88,
        "16227": 46,
        "16228": 81,
        "16229": 175,
        "16230": 170,
        "16231": 127,
        "16232": 67,
        "16233": 113,
        "16234": 56,
        "16235": 10,
        "16236": 153,
        "16237": 75,
        "16238": 241,
        "16239": 165,
        "16240": 30,
        "16241": 227,
        "16242": 90,
        "16243": 210,
        "16244": 36,
        "16245": 63,
        "16246": 134,
        "16247": 114,
        "16248": 7,
        "16249": 19,
        "16250": 140,
        "16251": 188,
        "16252": 246,
        "16253": 44,
        "16254": 120,
        "16255": 43,
        "16256": 87,
        "16257": 55,
        "16258": 170,
        "16259": 198,
        "16260": 150,
        "16261": 100,
        "16262": 244,
        "16263": 74,
        "16264": 5,
        "16265": 63,
        "16266": 194,
        "16267": 46,
        "16268": 158,
        "16269": 16,
        "16270": 26,
        "16271": 87,
        "16272": 49,
        "16273": 216,
        "16274": 254,
        "16275": 255,
        "16276": 219,
        "16277": 149,
        "16278": 67,
        "16279": 194,
        "16280": 106,
        "16281": 109,
        "16282": 202,
        "16283": 94,
        "16284": 237,
        "16285": 170,
        "16286": 155,
        "16287": 81,
        "16288": 246,
        "16289": 32,
        "16290": 20,
        "16291": 59,
        "16292": 45,
        "16293": 5,
        "16294": 57,
        "16295": 247,
        "16296": 227,
        "16297": 39,
        "16298": 102,
        "16299": 126,
        "16300": 101,
        "16301": 229,
        "16302": 221,
        "16303": 196,
        "16304": 201,
        "16305": 81,
        "16306": 182,
        "16307": 216,
        "16308": 144,
        "16309": 84,
        "16310": 24,
        "16311": 239,
        "16312": 79,
        "16313": 144,
        "16314": 30,
        "16315": 91,
        "16316": 38,
        "16317": 153,
        "16318": 244,
        "16319": 123,
        "16320": 15,
        "16321": 2,
        "16322": 95,
        "16323": 254,
        "16324": 209,
        "16325": 246,
        "16326": 44,
        "16327": 249,
        "16328": 249,
        "16329": 77,
        "16330": 18,
        "16331": 102,
        "16332": 34,
        "16333": 193,
        "16334": 184,
        "16335": 68,
        "16336": 124,
        "16337": 18,
        "16338": 217,
        "16339": 102,
        "16340": 54,
        "16341": 227,
        "16342": 11,
        "16343": 27,
        "16344": 226,
        "16345": 104,
        "16346": 4,
        "16347": 72,
        "16348": 43,
        "16349": 244,
        "16350": 53,
        "16351": 196,
        "16352": 167,
        "16353": 166,
        "16354": 54,
        "16355": 106,
        "16356": 244,
        "16357": 20,
        "16358": 43,
        "16359": 39,
        "16360": 61,
        "16361": 93,
        "16362": 30,
        "16363": 60,
        "16364": 193,
        "16365": 158,
        "16366": 192,
        "16367": 218,
        "16368": 224,
        "16369": 61,
        "16370": 235,
        "16371": 78,
        "16372": 181,
        "16373": 234,
        "16374": 209,
        "16375": 126,
        "16376": 13,
        "16377": 177,
        "16378": 64,
        "16379": 8,
        "16380": 48,
        "16381": 29,
        "16382": 23,
        "16383": 172,
        "16384": 188,
        "16385": 1,
        "16386": 5,
        "16387": 4,
        "16388": 37,
        "16389": 116,
        "16390": 128,
        "16391": 206,
        "16392": 8,
        "16393": 214,
        "16394": 73,
        "16395": 66,
        "16396": 171,
        "16397": 224,
        "16398": 4,
        "16399": 89,
        "16400": 130,
        "16401": 89,
        "16402": 10,
        "16403": 171,
        "16404": 154,
        "16405": 99,
        "16406": 68,
        "16407": 252,
        "16408": 111,
        "16409": 168,
        "16410": 167,
        "16411": 173,
        "16412": 236,
        "16413": 52,
        "16414": 236,
        "16415": 139,
        "16416": 161,
        "16417": 234,
        "16418": 115,
        "16419": 226,
        "16420": 215,
        "16421": 181,
        "16422": 229,
        "16423": 193,
        "16424": 236,
        "16425": 43,
        "16426": 191,
        "16427": 59,
        "16428": 142,
        "16429": 82,
        "16430": 40,
        "16431": 218,
        "16432": 146,
        "16433": 202,
        "16434": 8,
        "16435": 37,
        "16436": 151,
        "16437": 9,
        "16438": 248,
        "16439": 59,
        "16440": 172,
        "16441": 167,
        "16442": 33,
        "16443": 2,
        "16444": 48,
        "16445": 167,
        "16446": 5,
        "16447": 11,
        "16448": 120,
        "16449": 141,
        "16450": 23,
        "16451": 132,
        "16452": 45,
        "16453": 88,
        "16454": 132,
        "16455": 54,
        "16456": 9,
        "16457": 182,
        "16458": 213,
        "16459": 185,
        "16460": 59,
        "16461": 85,
        "16462": 186,
        "16463": 237,
        "16464": 51,
        "16465": 238,
        "16466": 163,
        "16467": 42,
        "16468": 23,
        "16469": 88,
        "16470": 14,
        "16471": 87,
        "16472": 27,
        "16473": 155,
        "16474": 136,
        "16475": 210,
        "16476": 147,
        "16477": 62,
        "16478": 48,
        "16479": 12,
        "16480": 46,
        "16481": 25,
        "16482": 147,
        "16483": 191,
        "16484": 252,
        "16485": 223,
        "16486": 188,
        "16487": 141,
        "16488": 178,
        "16489": 140,
        "16490": 231,
        "16491": 172,
        "16492": 27,
        "16493": 108,
        "16494": 167,
        "16495": 19,
        "16496": 133,
        "16497": 209,
        "16498": 122,
        "16499": 95,
        "16500": 108,
        "16501": 73,
        "16502": 96,
        "16503": 162,
        "16504": 138,
        "16505": 63,
        "16506": 68,
        "16507": 220,
        "16508": 27,
        "16509": 246,
        "16510": 186,
        "16511": 5,
        "16512": 96,
        "16513": 139,
        "16514": 122,
        "16515": 254,
        "16516": 119,
        "16517": 165,
        "16518": 37,
        "16519": 136,
        "16520": 1,
        "16521": 8,
        "16522": 0,
        "16523": 0,
        "16524": 0,
        "16525": 0,
        "16526": 0,
        "16527": 0,
        "16528": 16,
        "16529": 0,
        "16530": 0,
        "16531": 0,
        "16532": 0,
        "16533": 0,
        "16534": 0,
        "16535": 0,
        "16536": 0,
        "16537": 0,
        "16538": 0,
        "16539": 0,
        "16540": 0,
        "16541": 0,
        "16542": 0,
        "16543": 0,
        "16544": 0,
        "16545": 0,
        "16546": 0,
        "16547": 0,
        "16548": 0,
        "16549": 0,
        "16550": 0,
        "16551": 0,
        "16552": 64,
        "16553": 0,
        "16554": 0,
        "16555": 0,
        "16556": 0,
        "16557": 0,
        "16558": 0,
        "16559": 0,
        "16560": 3,
        "16561": 0,
        "16562": 0,
        "16563": 0,
        "16564": 0,
        "16565": 0,
        "16566": 0,
        "16567": 0,
        "16568": 4,
        "16569": 0,
        "16570": 0,
        "16571": 0,
        "16572": 0,
        "16573": 0,
        "16574": 0,
        "16575": 0,
        "16576": 4,
        "16577": 0,
        "16578": 0,
        "16579": 0,
        "16580": 0,
        "16581": 0,
        "16582": 0,
        "16583": 0,
        "16584": 0,
        "16585": 0,
        "16586": 0,
        "16587": 0,
        "16588": 1,
        "16589": 0,
        "16590": 0,
        "16591": 0,
        "16592": 0,
        "16593": 0,
        "16594": 0,
        "16595": 0,
        "16596": 16,
        "16597": 0,
        "16598": 0,
        "16599": 0,
        "16600": 0,
        "16601": 0,
        "16602": 0,
        "16603": 0
      }
    }
  ],
  "numDeployments": 2,
  "solcInputHash": "291cf64def2066c7e76507ea7caba91d",
  "bytecode": "0x6101606040526200001760006200026660201b60201c565b6002553480156200002757600080fd5b50604051620046173803806200461783398181016040528101906200004d919062000b83565b6040518060400160405280600881526020017f46616b65204555520000000000000000000000000000000000000000000000008152506040518060400160405280600481526020017f6645555200000000000000000000000000000000000000000000000000000000815250338383836040518060400160405280601181526020017f4668656e6978205065726d697373696f6e0000000000000000000000000000008152506040518060400160405280600381526020017f312e3000000000000000000000000000000000000000000000000000000000008152506200013f6000836200028260201b90919060201c565b61012081815250506200015d6001826200028260201b90919060201c565b6101408181525050818051906020012060e08181525050808051906020012061010081815250504660a081815250506200019c620002da60201b60201c565b608081815250503073ffffffffffffffffffffffffffffffffffffffff1660c08173ffffffffffffffffffffffffffffffffffffffff168152505050508160059081620001ea919062000e1f565b508060069081620001fc919062000e1f565b505050600062000212826200033760201b60201c565b9050620002486200023c8262000230617fff6200026660201b60201c565b6200035560201b60201c565b620003f860201b60201c565b6200025a8382620004cb60201b60201c565b50505050505062001260565b60006200027b8260026200057160201b60201c565b9050919050565b6000602083511015620002a857620002a0836200062860201b60201c565b9050620002d4565b82620002ba836200069560201b60201c565b6000019081620002cb919062000e1f565b5060ff60001b90505b92915050565b60007f8b73c3c69bb8fe3d512ecc4cf759cc79239f7b179b0ffacaa9a75d522b39400f60e0516101005146306040516020016200031c95949392919062000f77565b60405160208183030381529060405280519060200120905090565b60006200034e82600001516200069f60201b60201c565b9050919050565b60006200036883620006bb60201b60201c565b62000382576200037f60006200026660201b60201c565b92505b6200039382620006bb60201b60201c565b620003ad57620003aa60006200026660201b60201c565b91505b600083905060008390506000620003ea60028484608073ffffffffffffffffffffffffffffffffffffffff1663eb274b77620006c860201b60201c565b905080935050505092915050565b62000409816200077960201b60201c565b62000423576200042060006200078660201b60201c565b90505b600081905060006200043b82620007a260201b60201c565b9050608073ffffffffffffffffffffffffffffffffffffffff16637d23f1db600d836040518363ffffffff1660e01b81526004016200047c9291906200104f565b600060405180830381865afa1580156200049a573d6000803e3d6000fd5b505050506040513d6000823e3d601f19601f82011682018060405250810190620004c5919062001083565b50505050565b62000516600360008473ffffffffffffffffffffffffffffffffffffffff1673ffffffffffffffffffffffffffffffffffffffff168152602001908152602001600020548262000803565b600360008473ffffffffffffffffffffffffffffffffffffffff1673ffffffffffffffffffffffffffffffffffffffff16815260200190815260200160002081905550620005676002548262000803565b6002819055505050565b60006060608073ffffffffffffffffffffffffffffffffffffffff166319e1c5c4620005a386620007a260201b60201c565b856040518363ffffffff1660e01b8152600401620005c3929190620010d4565b600060405180830381865afa158015620005e1573d6000803e3d6000fd5b505050506040513d6000823e3d601f19601f820116820180604052508101906200060c919062001083565b90506200061f816200081f60201b60201c565b91505092915050565b600080829050601f815111156200067857826040517f305a27a90000000000000000000000000000000000000000000000000000000081526004016200066f91906200115a565b60405180910390fd5b8051816200068690620011a5565b60001c1760001b915050919050565b6000819050919050565b6000620006b48260026200082d60201b60201c565b9050919050565b6000808214159050919050565b60006060838388620006e089620007a260201b60201c565b620006f189620007a260201b60201c565b6040518463ffffffff1660e01b8152600401620007119392919062001215565b600060405180830381865afa1580156200072f573d6000803e3d6000fd5b505050506040513d6000823e3d601f19601f820116820180604052508101906200075a919062001083565b90506200076d81620008d460201b60201c565b91505095945050505050565b6000808214159050919050565b60006200079b82600d6200057160201b60201c565b9050919050565b6060602067ffffffffffffffff811115620007c257620007c1620009ae565b5b6040519080825280601f01601f191660200182016040528015620007f55781602001600182028036833780820191505090505b509050816020820152919050565b6000620008178383620008e260201b60201c565b905092915050565b600060208201519050919050565b60006060608073ffffffffffffffffffffffffffffffffffffffff16635fa55ca784866040518363ffffffff1660e01b81526004016200086f9291906200104f565b600060405180830381865afa1580156200088d573d6000803e3d6000fd5b505050506040513d6000823e3d601f19601f82011682018060405250810190620008b8919062001083565b9050620008cb816200081f60201b60201c565b91505092915050565b600060208201519050919050565b6000620008f583620006bb60201b60201c565b6200090f576200090c60006200026660201b60201c565b92505b6200092082620006bb60201b60201c565b6200093a576200093760006200026660201b60201c565b91505b6000839050600083905060006200097660028484608073ffffffffffffffffffffffffffffffffffffffff16622df619620006c860201b60201c565b905080935050505092915050565b6000604051905090565b600080fd5b600080fd5b600080fd5b6000601f19601f8301169050919050565b7f4e487b7100000000000000000000000000000000000000000000000000000000600052604160045260246000fd5b620009e8826200099d565b810181811067ffffffffffffffff8211171562000a0a5762000a09620009ae565b5b80604052505050565b600062000a1f62000984565b905062000a2d8282620009dd565b919050565b600080fd5b600080fd5b600080fd5b600067ffffffffffffffff82111562000a5f5762000a5e620009ae565b5b62000a6a826200099d565b9050602081019050919050565b60005b8381101562000a9757808201518184015260208101905062000a7a565b60008484015250505050565b600062000aba62000ab48462000a41565b62000a13565b90508281526020810184848401111562000ad95762000ad862000a3c565b5b62000ae684828562000a77565b509392505050565b600082601f83011262000b065762000b0562000a37565b5b815162000b1884826020860162000aa3565b91505092915050565b60006020828403121562000b3a5762000b3962000998565b5b62000b46602062000a13565b9050600082015167ffffffffffffffff81111562000b695762000b6862000a32565b5b62000b778482850162000aee565b60008301525092915050565b60006020828403121562000b9c5762000b9b6200098e565b5b600082015167ffffffffffffffff81111562000bbd5762000bbc62000993565b5b62000bcb8482850162000b21565b91505092915050565b600081519050919050565b7f4e487b7100000000000000000000000000000000000000000000000000000000600052602260045260246000fd5b6000600282049050600182168062000c2757607f821691505b60208210810362000c3d5762000c3c62000bdf565b5b50919050565b60008190508160005260206000209050919050565b60006020601f8301049050919050565b600082821b905092915050565b60006008830262000ca77fffffffffffffffffffffffffffffffffffffffffffffffffffffffffffffffff8262000c68565b62000cb3868362000c68565b95508019841693508086168417925050509392505050565b6000819050919050565b6000819050919050565b600062000d0062000cfa62000cf48462000ccb565b62000cd5565b62000ccb565b9050919050565b6000819050919050565b62000d1c8362000cdf565b62000d3462000d2b8262000d07565b84845462000c75565b825550505050565b600090565b62000d4b62000d3c565b62000d5881848462000d11565b505050565b5b8181101562000d805762000d7460008262000d41565b60018101905062000d5e565b5050565b601f82111562000dcf5762000d998162000c43565b62000da48462000c58565b8101602085101562000db4578190505b62000dcc62000dc38562000c58565b83018262000d5d565b50505b505050565b600082821c905092915050565b600062000df46000198460080262000dd4565b1980831691505092915050565b600062000e0f838362000de1565b9150826002028217905092915050565b62000e2a8262000bd4565b67ffffffffffffffff81111562000e465762000e45620009ae565b5b62000e52825462000c0e565b62000e5f82828562000d84565b600060209050601f83116001811462000e97576000841562000e82578287015190505b62000e8e858262000e01565b86555062000efe565b601f19841662000ea78662000c43565b60005b8281101562000ed15784890151825560018201915060208501945060208101905062000eaa565b8683101562000ef1578489015162000eed601f89168262000de1565b8355505b6001600288020188555050505b505050505050565b6000819050919050565b62000f1b8162000f06565b82525050565b62000f2c8162000ccb565b82525050565b600073ffffffffffffffffffffffffffffffffffffffff82169050919050565b600062000f5f8262000f32565b9050919050565b62000f718162000f52565b82525050565b600060a08201905062000f8e600083018862000f10565b62000f9d602083018762000f10565b62000fac604083018662000f10565b62000fbb606083018562000f21565b62000fca608083018462000f66565b9695505050505050565b600060ff82169050919050565b62000fec8162000fd4565b82525050565b600081519050919050565b600082825260208201905092915050565b60006200101b8262000ff2565b62001027818562000ffd565b93506200103981856020860162000a77565b62001044816200099d565b840191505092915050565b600060408201905062001066600083018562000fe1565b81810360208301526200107a81846200100e565b90509392505050565b6000602082840312156200109c576200109b6200098e565b5b600082015167ffffffffffffffff811115620010bd57620010bc62000993565b5b620010cb8482850162000aee565b91505092915050565b60006040820190508181036000830152620010f081856200100e565b905062001101602083018462000fe1565b9392505050565b600082825260208201905092915050565b6000620011268262000bd4565b62001132818562001108565b93506200114481856020860162000a77565b6200114f816200099d565b840191505092915050565b6000602082019050818103600083015262001176818462001119565b905092915050565b6000819050602082019050919050565b60006200119c825162000f06565b80915050919050565b6000620011b28262000ff2565b82620011be846200117e565b9050620011cb816200118e565b925060208210156200120e57620012097fffffffffffffffffffffffffffffffffffffffffffffffffffffffffffffffff8360200360080262000c68565b831692505b5050919050565b60006060820190506200122c600083018662000fe1565b81810360208301526200124081856200100e565b905081810360408301526200125681846200100e565b9050949350505050565b60805160a05160c05160e05161010051610120516101405161335c620012bb60003960006118f5015260006118ba0152600061217f0152600061215e015260006119ea01526000611a4001526000611a69015261335c6000f3fe608060405234801561001057600080fd5b50600436106101425760003560e01c80637ecebe00116100b8578063a9059cbb1161007c578063a9059cbb146103b9578063af575a00146103e9578063c4224c1914610419578063d505accf14610449578063d918156e14610465578063dd62ed3e1461049557610142565b80637ecebe00146102fb57806384b0196e1461032b5780638624a3491461034f57806395d89b411461037f5780639f284be71461039d57610142565b80633644e5151161010a5780633644e5151461020157806339c217f71461021f5780635356c4291461024f578063602772041461027f5780636e0505e1146102af57806370a08231146102cb57610142565b806306fdde0314610147578063095ea7b31461016557806318160ddd1461019557806323b872dd146101b3578063313ce567146101e3575b600080fd5b61014f6104c5565b60405161015c9190612433565b60405180910390f35b61017f600480360381019061017a91906124fd565b610557565b60405161018c9190612558565b60405180910390f35b61019d6105ab565b6040516101aa9190612582565b60405180910390f35b6101cd60048036038101906101c8919061259d565b6105bd565b6040516101da9190612558565b60405180910390f35b6101eb610692565b6040516101f8919061260c565b60405180910390f35b610209610697565b6040516102169190612640565b60405180910390f35b6102396004803603810190610234919061267f565b610729565b6040516102469190612716565b60405180910390f35b61026960048036038101906102649190612750565b61074e565b6040516102769190612433565b60405180910390f35b61029960048036038101906102949190612983565b6108bf565b6040516102a69190612433565b60405180910390f35b6102c960048036038101906102c49190612a1b565b6109ec565b005b6102e560048036038101906102e09190612a48565b610b01565b6040516102f29190612582565b60405180910390f35b61031560048036038101906103109190612a48565b610b1c565b6040516103229190612582565b60405180910390f35b610333610b37565b6040516103469796959493929190612b7d565b60405180910390f35b61036960048036038101906103649190612c01565b610be1565b6040516103769190612716565b60405180910390f35b610387610c08565b6040516103949190612433565b60405180910390f35b6103b760048036038101906103b29190612a1b565b610c9a565b005b6103d360048036038101906103ce91906124fd565b610da7565b6040516103e09190612558565b60405180910390f35b61040360048036038101906103fe9190612c9c565b610e39565b6040516104109190612716565b60405180910390f35b610433600480360381019061042e9190612cef565b61118f565b6040516104409190612716565b60405180910390f35b610463600480360381019061045e9190612d5b565b611359565b005b61047f600480360381019061047a919061267f565b6114fd565b60405161048c9190612558565b60405180910390f35b6104af60048036038101906104aa9190612dfd565b6115f5565b6040516104bc9190612582565b60405180910390f35b6060600580546104d490612e6c565b80601f016020809104026020016040519081016040528092919081815260200182805461050090612e6c565b801561054d5780601f106105225761010080835404028352916020019161054d565b820191906000526020600020905b81548152906001019060200180831161053057829003601f168201915b5050505050905090565b600082602052637f5e9f20600c5233600052816034600c205581600052602c5160601c337f8c5be1e5ebec7d5bd14f71427d1e84f3dd0314c0f7b2291e5b200ac8c7c3b92560206000a36001905092915050565b60006805345cdf77eb68f44c54905090565b60006105ca848484611615565b8360601b33602052637f5e9f208117600c526034600c20805460018101156106085780851115610602576313be252b6000526004601cfd5b84810382555b6387a211a28317600c526020600c2080548087111561062f5763f4d678b86000526004601cfd5b8681038255876000526020600c2087815401815587602052600c5160601c8660601c7fddf252ad1be2c89b69c2b068fc378daa952ba7f163c4a11628f55a4df523b3ef602080a350505050505061068784848461161a565b600190509392505050565b600090565b6000806106a261161f565b90506000801b81036106c0576106b66104c5565b8051906020012090505b6040517f8b73c3c69bb8fe3d512ecc4cf759cc79239f7b179b0ffacaa9a75d522b39400f81528160208201527fc89efdaa54c0f20c7adf612882df0950f5a951637e0307cdcb4c672f298b8bc6604082015246606082015230608082015260a081209250505090565b6000610746836107418461073c90612ef5565b611624565b61118f565b905092915050565b60608161075a90612f08565b60006107b17f6bdaeb2d29561f159c7ef98b16b27015fb2aeb87209c7ee656226d912f59927d8360000151604051602001610796929190612f1b565b6040516020818303038152906040528051906020012061163a565b905060006107c3828460200151611654565b90503373ffffffffffffffffffffffffffffffffffffffff168173ffffffffffffffffffffffffffffffffffffffff161461082a576040517f3093a27700000000000000000000000000000000000000000000000000000000815260040160405180910390fd5b6108b4600460003373ffffffffffffffffffffffffffffffffffffffff1673ffffffffffffffffffffffffffffffffffffffff16815260200190815260200160002060008873ffffffffffffffffffffffffffffffffffffffff1673ffffffffffffffffffffffffffffffffffffffff168152602001908152602001600020548660000135611680565b935050505092915050565b60608183600061091a7f6bdaeb2d29561f159c7ef98b16b27015fb2aeb87209c7ee656226d912f59927d84600001516040516020016108ff929190612f1b565b6040516020818303038152906040528051906020012061163a565b9050600061092c828560200151611654565b90508273ffffffffffffffffffffffffffffffffffffffff168173ffffffffffffffffffffffffffffffffffffffff1614610993576040517f51c65eae00000000000000000000000000000000000000000000000000000000815260040160405180910390fd5b6109e0600360008973ffffffffffffffffffffffffffffffffffffffff1673ffffffffffffffffffffffffffffffffffffffff168152602001908152602001600020548760000151611680565b94505050505092915050565b6000610a45610a008363ffffffff166116b6565b600360003373ffffffffffffffffffffffffffffffffffffffff1673ffffffffffffffffffffffffffffffffffffffff168152602001908152602001600020546116ca565b9050610a90600360003373ffffffffffffffffffffffffffffffffffffffff1673ffffffffffffffffffffffffffffffffffffffff1681526020019081526020016000205482611743565b600360003373ffffffffffffffffffffffffffffffffffffffff1673ffffffffffffffffffffffffffffffffffffffff16815260200190815260200160002081905550610adf60025482611743565b600281905550610afd33610af283611757565b63ffffffff1661181a565b5050565b60006387a211a2600c52816000526020600c20549050919050565b60006338377508600c52816000526020600c20549050919050565b600060608060008060006060610b4b6118b1565b610b536118ec565b46306000801b600067ffffffffffffffff811115610b7457610b736127b1565b5b604051908082528060200260200182016040528015610ba25781602001602082028036833780820191505090505b507f0f00000000000000000000000000000000000000000000000000000000000000959493929190965096509650965096509650965090919293949596565b6000610bff8484610bfa85610bf590612ef5565b611624565b610e39565b90509392505050565b606060068054610c1790612e6c565b80601f0160208091040260200160405190810160405280929190818152602001828054610c4390612e6c565b8015610c905780601f10610c6557610100808354040283529160200191610c90565b820191906000526020600020905b815481529060010190602001808311610c7357829003601f168201915b5050505050905090565b8063ffffffff16610caa33610b01565b1015610ce2576040517ffda7bbda00000000000000000000000000000000000000000000000000000000815260040160405180910390fd5b610cf2338263ffffffff16611927565b6000610d038263ffffffff166116b6565b9050610d4e600360003373ffffffffffffffffffffffffffffffffffffffff1673ffffffffffffffffffffffffffffffffffffffff16815260200190815260200160002054826119be565b600360003373ffffffffffffffffffffffffffffffffffffffff1673ffffffffffffffffffffffffffffffffffffffff16815260200190815260200160002081905550610d9d600254826119be565b6002819055505050565b6000610db4338484611615565b6387a211a2600c52336000526020600c20805480841115610ddd5763f4d678b86000526004601cfd5b8381038255846000526020600c2084815401815584602052600c5160601c337fddf252ad1be2c89b69c2b068fc378daa952ba7f163c4a11628f55a4df523b3ef602080a3505050610e2f33848461161a565b6001905092915050565b600080610f0a83610f05600360008973ffffffffffffffffffffffffffffffffffffffff1673ffffffffffffffffffffffffffffffffffffffff16815260200190815260200160002054600460008a73ffffffffffffffffffffffffffffffffffffffff1673ffffffffffffffffffffffffffffffffffffffff16815260200190815260200160002060003373ffffffffffffffffffffffffffffffffffffffff1673ffffffffffffffffffffffffffffffffffffffff168152602001908152602001600020546116ca565b6116ca565b9050610f92600460008773ffffffffffffffffffffffffffffffffffffffff1673ffffffffffffffffffffffffffffffffffffffff16815260200190815260200160002060003373ffffffffffffffffffffffffffffffffffffffff1673ffffffffffffffffffffffffffffffffffffffff1681526020019081526020016000205482611743565b600460008773ffffffffffffffffffffffffffffffffffffffff1673ffffffffffffffffffffffffffffffffffffffff16815260200190815260200160002060003373ffffffffffffffffffffffffffffffffffffffff1673ffffffffffffffffffffffffffffffffffffffff1681526020019081526020016000208190555061105b600360008773ffffffffffffffffffffffffffffffffffffffff1673ffffffffffffffffffffffffffffffffffffffff1681526020019081526020016000205482611743565b600360008773ffffffffffffffffffffffffffffffffffffffff1673ffffffffffffffffffffffffffffffffffffffff168152602001908152602001600020819055506110e7600360008673ffffffffffffffffffffffffffffffffffffffff1673ffffffffffffffffffffffffffffffffffffffff16815260200190815260200160002054826119be565b600360008673ffffffffffffffffffffffffffffffffffffffff1673ffffffffffffffffffffffffffffffffffffffff168152602001908152602001600020819055508373ffffffffffffffffffffffffffffffffffffffff168573ffffffffffffffffffffffffffffffffffffffff167f7612539b010127d1a2f810eeff1131de23a28ecfa8228f92a9606a879300fbb560405160405180910390a3809150509392505050565b6000806111db83600360003373ffffffffffffffffffffffffffffffffffffffff1673ffffffffffffffffffffffffffffffffffffffff168152602001908152602001600020546116ca565b9050611226600360003373ffffffffffffffffffffffffffffffffffffffff1673ffffffffffffffffffffffffffffffffffffffff1681526020019081526020016000205482611743565b600360003373ffffffffffffffffffffffffffffffffffffffff1673ffffffffffffffffffffffffffffffffffffffff168152602001908152602001600020819055506112b2600360008673ffffffffffffffffffffffffffffffffffffffff1673ffffffffffffffffffffffffffffffffffffffff16815260200190815260200160002054826119be565b600360008673ffffffffffffffffffffffffffffffffffffffff1673ffffffffffffffffffffffffffffffffffffffff168152602001908152602001600020819055508373ffffffffffffffffffffffffffffffffffffffff163373ffffffffffffffffffffffffffffffffffffffff167f7612539b010127d1a2f810eeff1131de23a28ecfa8228f92a9606a879300fbb560405160405180910390a38091505092915050565b600061136361161f565b90506000801b8103611381576113776104c5565b8051906020012090505b8442111561139757631a15a3cc6000526004601cfd5b6040518860601b60601c98508760601b60601c975065383775081901600e52886000526020600c2080547f8b73c3c69bb8fe3d512ecc4cf759cc79239f7b179b0ffacaa9a75d522b39400f83528360208401527fc89efdaa54c0f20c7adf612882df0950f5a951637e0307cdcb4c672f298b8bc6604084015246606084015230608084015260a08320602e527f6e71edae12b1b97f4d1f60370fef10105fa2faae0126114a169c64845d6126c983528a60208401528960408401528860608401528060808401528760a084015260c08320604e526042602c206000528660ff1660205285604052846060526020806080600060015afa8b3d51146114a35763ddafbaef6000526004601cfd5b80820183558a637f5e9f2060a01b17604052896034602c20558a8c7f8c5be1e5ebec7d5bd14f71427d1e84f3dd0314c0f7b2291e5b200ac8c7c3b925602060608801a3836040526000606052505050505050505050505050565b60006115118261150c90612ef5565b611624565b600460003373ffffffffffffffffffffffffffffffffffffffff1673ffffffffffffffffffffffffffffffffffffffff16815260200190815260200160002060008573ffffffffffffffffffffffffffffffffffffffff1673ffffffffffffffffffffffffffffffffffffffff168152602001908152602001600020819055508273ffffffffffffffffffffffffffffffffffffffff163373ffffffffffffffffffffffffffffffffffffffff167f46f92913a39019d68e630493d23e0cf39761bf253f7b3f8eae384b33e393ed4e60405160405180910390a36001905092915050565b600081602052637f5e9f20600c52826000526034600c2054905092915050565b505050565b505050565b600090565b600061163382600001516119d2565b9050919050565b600061164d6116476119e6565b83611a9d565b9050919050565b6000806000806116648686611ade565b9250925092506116748282611b3a565b82935050505092915050565b606061168b83611c9e565b61169c5761169960006116b6565b92505b60008390506116ad60028285611cab565b91505092915050565b60006116c3826002611d61565b9050919050565b60006116d583611c9e565b6116e6576116e360006116b6565b92505b6116ef82611c9e565b611700576116fd60006116b6565b91505b60008390506000839050600061173560028484608073ffffffffffffffffffffffffffffffffffffffff16635211c679611e03565b905080935050505092915050565b600061174f8383611e97565b905092915050565b600061176282611c9e565b6117735761177060006116b6565b91505b6000829050600061178382611f10565b90506000608073ffffffffffffffffffffffffffffffffffffffff166373cc01546002846040518363ffffffff1660e01b81526004016117c4929190612f99565b602060405180830381865afa1580156117e1573d6000803e3d6000fd5b505050506040513d601f19601f820116820180604052508101906118059190612fde565b905061181081611f6d565b9350505050919050565b61182660008383611615565b6805345cdf77eb68f44c548181018181101561184a5763e5cfe9576000526004601cfd5b806805345cdf77eb68f44c556387a211a2600c52836000526020600c2083815401815583602052600c5160601c60007fddf252ad1be2c89b69c2b068fc378daa952ba7f163c4a11628f55a4df523b3ef602080a35050506118ad6000838361161a565b5050565b60606118e760007f0000000000000000000000000000000000000000000000000000000000000000611f7790919063ffffffff16565b905090565b606061192260017f0000000000000000000000000000000000000000000000000000000000000000611f7790919063ffffffff16565b905090565b61193382600083611615565b6387a211a2600c52816000526020600c2080548083111561195c5763f4d678b86000526004601cfd5b8281038255826805345cdf77eb68f44c54036805345cdf77eb68f44c558260005260008460601b60601c7fddf252ad1be2c89b69c2b068fc378daa952ba7f163c4a11628f55a4df523b3ef60206000a350506119ba8260008361161a565b5050565b60006119ca8383612027565b905092915050565b60006119df82600261209f565b9050919050565b60007f000000000000000000000000000000000000000000000000000000000000000073ffffffffffffffffffffffffffffffffffffffff163073ffffffffffffffffffffffffffffffffffffffff16148015611a6257507f000000000000000000000000000000000000000000000000000000000000000046145b15611a8f577f00000000000000000000000000000000000000000000000000000000000000009050611a9a565b611a97612139565b90505b90565b60006040517f190100000000000000000000000000000000000000000000000000000000000081528360028201528260228201526042812091505092915050565b60008060006041845103611b235760008060006020870151925060408701519150606087015160001a9050611b15888285856121cf565b955095509550505050611b33565b60006002855160001b9250925092505b9250925092565b60006003811115611b4e57611b4d61300b565b5b826003811115611b6157611b6061300b565b5b0315611c9a5760016003811115611b7b57611b7a61300b565b5b826003811115611b8e57611b8d61300b565b5b03611bc5576040517ff645eedf00000000000000000000000000000000000000000000000000000000815260040160405180910390fd5b60026003811115611bd957611bd861300b565b5b826003811115611bec57611beb61300b565b5b03611c31578060001c6040517ffce698f7000000000000000000000000000000000000000000000000000000008152600401611c289190612582565b60405180910390fd5b600380811115611c4457611c4361300b565b5b826003811115611c5757611c5661300b565b5b03611c9957806040517fd78bce0c000000000000000000000000000000000000000000000000000000008152600401611c909190612640565b60405180910390fd5b5b5050565b6000808214159050919050565b6060608073ffffffffffffffffffffffffffffffffffffffff1663a1848ff385611cd486611f10565b85604051602001611ce5919061305b565b6040516020818303038152906040526040518463ffffffff1660e01b8152600401611d1293929190613076565b600060405180830381865afa158015611d2f573d6000803e3d6000fd5b505050506040513d6000823e3d601f19601f82011682018060405250810190611d58919061315c565b90509392505050565b60006060608073ffffffffffffffffffffffffffffffffffffffff166319e1c5c4611d8b86611f10565b856040518363ffffffff1660e01b8152600401611da99291906131a5565b600060405180830381865afa158015611dc6573d6000803e3d6000fd5b505050506040513d6000823e3d601f19601f82011682018060405250810190611def9190613245565b9050611dfa816122c3565b91505092915050565b60006060838388611e1389611f10565b611e1c89611f10565b6040518463ffffffff1660e01b8152600401611e3a93929190613076565b600060405180830381865afa158015611e57573d6000803e3d6000fd5b505050506040513d6000823e3d601f19601f82011682018060405250810190611e809190613245565b9050611e8b816122d1565b91505095945050505050565b6000611ea283611c9e565b611eb357611eb060006116b6565b92505b611ebc82611c9e565b611ecd57611eca60006116b6565b91505b600083905060008390506000611f0260028484608073ffffffffffffffffffffffffffffffffffffffff1663cc2cbeff611e03565b905080935050505092915050565b6060602067ffffffffffffffff811115611f2d57611f2c6127b1565b5b6040519080825280601f01601f191660200182016040528015611f5f5781602001600182028036833780820191505090505b509050816020820152919050565b6000819050919050565b606060ff60001b8314611f9457611f8d836122df565b9050612021565b818054611fa090612e6c565b80601f0160208091040260200160405190810160405280929190818152602001828054611fcc90612e6c565b80156120195780601f10611fee57610100808354040283529160200191612019565b820191906000526020600020905b815481529060010190602001808311611ffc57829003601f168201915b505050505090505b92915050565b600061203283611c9e565b6120435761204060006116b6565b92505b61204c82611c9e565b61205d5761205a60006116b6565b91505b60008390506000839050600061209160028484608073ffffffffffffffffffffffffffffffffffffffff16622df619611e03565b905080935050505092915050565b60006060608073ffffffffffffffffffffffffffffffffffffffff16635fa55ca784866040518363ffffffff1660e01b81526004016120df929190612f99565b600060405180830381865afa1580156120fc573d6000803e3d6000fd5b505050506040513d6000823e3d601f19601f820116820180604052508101906121259190613245565b9050612130816122c3565b91505092915050565b60007f8b73c3c69bb8fe3d512ecc4cf759cc79239f7b179b0ffacaa9a75d522b39400f7f00000000000000000000000000000000000000000000000000000000000000007f000000000000000000000000000000000000000000000000000000000000000046306040516020016121b495949392919061328e565b60405160208183030381529060405280519060200120905090565b60008060007f7fffffffffffffffffffffffffffffff5d576e7357a4501ddfe92f46681b20a08460001c111561220f5760006003859250925092506122b9565b60006001888888886040516000815260200160405260405161223494939291906132e1565b6020604051602081039080840390855afa158015612256573d6000803e3d6000fd5b505050602060405103519050600073ffffffffffffffffffffffffffffffffffffffff168173ffffffffffffffffffffffffffffffffffffffff16036122aa57600060016000801b935093509350506122b9565b8060008060001b935093509350505b9450945094915050565b600060208201519050919050565b600060208201519050919050565b606060006122ec83612353565b90506000602067ffffffffffffffff81111561230b5761230a6127b1565b5b6040519080825280601f01601f19166020018201604052801561233d5781602001600182028036833780820191505090505b5090508181528360208201528092505050919050565b60008060ff8360001c169050601f81111561239a576040517fb3512b0c00000000000000000000000000000000000000000000000000000000815260040160405180910390fd5b80915050919050565b600081519050919050565b600082825260208201905092915050565b60005b838110156123dd5780820151818401526020810190506123c2565b60008484015250505050565b6000601f19601f8301169050919050565b6000612405826123a3565b61240f81856123ae565b935061241f8185602086016123bf565b612428816123e9565b840191505092915050565b6000602082019050818103600083015261244d81846123fa565b905092915050565b6000604051905090565b600080fd5b600080fd5b600073ffffffffffffffffffffffffffffffffffffffff82169050919050565b600061249482612469565b9050919050565b6124a481612489565b81146124af57600080fd5b50565b6000813590506124c18161249b565b92915050565b6000819050919050565b6124da816124c7565b81146124e557600080fd5b50565b6000813590506124f7816124d1565b92915050565b600080604083850312156125145761251361245f565b5b6000612522858286016124b2565b9250506020612533858286016124e8565b9150509250929050565b60008115159050919050565b6125528161253d565b82525050565b600060208201905061256d6000830184612549565b92915050565b61257c816124c7565b82525050565b60006020820190506125976000830184612573565b92915050565b6000806000606084860312156125b6576125b561245f565b5b60006125c4868287016124b2565b93505060206125d5868287016124b2565b92505060406125e6868287016124e8565b9150509250925092565b600060ff82169050919050565b612606816125f0565b82525050565b600060208201905061262160008301846125fd565b92915050565b6000819050919050565b61263a81612627565b82525050565b60006020820190506126556000830184612631565b92915050565b600080fd5b6000602082840312156126765761267561265b565b5b81905092915050565b600080604083850312156126965761269561245f565b5b60006126a4858286016124b2565b925050602083013567ffffffffffffffff8111156126c5576126c4612464565b5b6126d185828601612660565b9150509250929050565b6000819050919050565b60006127006126fb6126f6846124c7565b6126db565b6124c7565b9050919050565b612710816126e5565b82525050565b600060208201905061272b6000830184612707565b92915050565b6000604082840312156127475761274661265b565b5b81905092915050565b600080604083850312156127675761276661245f565b5b6000612775858286016124b2565b925050602083013567ffffffffffffffff81111561279657612795612464565b5b6127a285828601612731565b9150509250929050565b600080fd5b7f4e487b7100000000000000000000000000000000000000000000000000000000600052604160045260246000fd5b6127e9826123e9565b810181811067ffffffffffffffff82111715612808576128076127b1565b5b80604052505050565b600061281b612455565b905061282782826127e0565b919050565b600080fd5b61283a81612627565b811461284557600080fd5b50565b60008135905061285781612831565b92915050565b600080fd5b600080fd5b600067ffffffffffffffff821115612882576128816127b1565b5b61288b826123e9565b9050602081019050919050565b82818337600083830152505050565b60006128ba6128b584612867565b612811565b9050828152602081018484840111156128d6576128d5612862565b5b6128e1848285612898565b509392505050565b600082601f8301126128fe576128fd61285d565b5b813561290e8482602086016128a7565b91505092915050565b60006040828403121561292d5761292c6127ac565b5b6129376040612811565b9050600061294784828501612848565b600083015250602082013567ffffffffffffffff81111561296b5761296a61282c565b5b612977848285016128e9565b60208301525092915050565b6000806040838503121561299a5761299961245f565b5b60006129a8858286016124b2565b925050602083013567ffffffffffffffff8111156129c9576129c8612464565b5b6129d585828601612917565b9150509250929050565b600063ffffffff82169050919050565b6129f8816129df565b8114612a0357600080fd5b50565b600081359050612a15816129ef565b92915050565b600060208284031215612a3157612a3061245f565b5b6000612a3f84828501612a06565b91505092915050565b600060208284031215612a5e57612a5d61245f565b5b6000612a6c848285016124b2565b91505092915050565b60007fff0000000000000000000000000000000000000000000000000000000000000082169050919050565b612aaa81612a75565b82525050565b612ab981612489565b82525050565b600081519050919050565b600082825260208201905092915050565b6000819050602082019050919050565b612af4816124c7565b82525050565b6000612b068383612aeb565b60208301905092915050565b6000602082019050919050565b6000612b2a82612abf565b612b348185612aca565b9350612b3f83612adb565b8060005b83811015612b70578151612b578882612afa565b9750612b6283612b12565b925050600181019050612b43565b5085935050505092915050565b600060e082019050612b92600083018a612aa1565b8181036020830152612ba481896123fa565b90508181036040830152612bb881886123fa565b9050612bc76060830187612573565b612bd46080830186612ab0565b612be160a0830185612631565b81810360c0830152612bf38184612b1f565b905098975050505050505050565b600080600060608486031215612c1a57612c1961245f565b5b6000612c28868287016124b2565b9350506020612c39868287016124b2565b925050604084013567ffffffffffffffff811115612c5a57612c59612464565b5b612c6686828701612660565b9150509250925092565b612c79816124c7565b8114612c8457600080fd5b50565b600081359050612c9681612c70565b92915050565b600080600060608486031215612cb557612cb461245f565b5b6000612cc3868287016124b2565b9350506020612cd4868287016124b2565b9250506040612ce586828701612c87565b9150509250925092565b60008060408385031215612d0657612d0561245f565b5b6000612d14858286016124b2565b9250506020612d2585828601612c87565b9150509250929050565b612d38816125f0565b8114612d4357600080fd5b50565b600081359050612d5581612d2f565b92915050565b600080600080600080600060e0888a031215612d7a57612d7961245f565b5b6000612d888a828b016124b2565b9750506020612d998a828b016124b2565b9650506040612daa8a828b016124e8565b9550506060612dbb8a828b016124e8565b9450506080612dcc8a828b01612d46565b93505060a0612ddd8a828b01612848565b92505060c0612dee8a828b01612848565b91505092959891949750929550565b60008060408385031215612e1457612e1361245f565b5b6000612e22858286016124b2565b9250506020612e33858286016124b2565b9150509250929050565b7f4e487b7100000000000000000000000000000000000000000000000000000000600052602260045260246000fd5b60006002820490506001821680612e8457607f821691505b602082108103612e9757612e96612e3d565b5b50919050565b600060208284031215612eb357612eb26127ac565b5b612ebd6020612811565b9050600082013567ffffffffffffffff811115612edd57612edc61282c565b5b612ee9848285016128e9565b60008301525092915050565b6000612f013683612e9d565b9050919050565b6000612f143683612917565b9050919050565b6000604082019050612f306000830185612631565b612f3d6020830184612631565b9392505050565b600081519050919050565b600082825260208201905092915050565b6000612f6b82612f44565b612f758185612f4f565b9350612f858185602086016123bf565b612f8e816123e9565b840191505092915050565b6000604082019050612fae60008301856125fd565b8181036020830152612fc08184612f60565b90509392505050565b600081519050612fd8816124d1565b92915050565b600060208284031215612ff457612ff361245f565b5b600061300284828501612fc9565b91505092915050565b7f4e487b7100000000000000000000000000000000000000000000000000000000600052602160045260246000fd5b6000819050919050565b61305561305082612627565b61303a565b82525050565b60006130678284613044565b60208201915081905092915050565b600060608201905061308b60008301866125fd565b818103602083015261309d8185612f60565b905081810360408301526130b18184612f60565b9050949350505050565b600067ffffffffffffffff8211156130d6576130d56127b1565b5b6130df826123e9565b9050602081019050919050565b60006130ff6130fa846130bb565b612811565b90508281526020810184848401111561311b5761311a612862565b5b6131268482856123bf565b509392505050565b600082601f8301126131435761314261285d565b5b81516131538482602086016130ec565b91505092915050565b6000602082840312156131725761317161245f565b5b600082015167ffffffffffffffff8111156131905761318f612464565b5b61319c8482850161312e565b91505092915050565b600060408201905081810360008301526131bf8185612f60565b90506131ce60208301846125fd565b9392505050565b60006131e86131e384612867565b612811565b90508281526020810184848401111561320457613203612862565b5b61320f8482856123bf565b509392505050565b600082601f83011261322c5761322b61285d565b5b815161323c8482602086016131d5565b91505092915050565b60006020828403121561325b5761325a61245f565b5b600082015167ffffffffffffffff81111561327957613278612464565b5b61328584828501613217565b91505092915050565b600060a0820190506132a36000830188612631565b6132b06020830187612631565b6132bd6040830186612631565b6132ca6060830185612573565b6132d76080830184612ab0565b9695505050505050565b60006080820190506132f66000830187612631565b61330360208301866125fd565b6133106040830185612631565b61331d6060830184612631565b9594505050505056fea2646970667358221220d652bb74ae9d4e47dbb2a9a7a6de924c59f91e86c96b3b3269047605518a29bf64736f6c63430008180033",
  "devdoc": {
    "errors": {
      "AllowanceOverflow()": [
        {
          "details": "The allowance has overflowed."
        }
      ],
      "AllowanceUnderflow()": [
        {
          "details": "The allowance has underflowed."
        }
      ],
      "ECDSAInvalidSignature()": [
        {
          "details": "The signature derives the `address(0)`."
        }
      ],
      "ECDSAInvalidSignatureLength(uint256)": [
        {
          "details": "The signature has an invalid length."
        }
      ],
      "ECDSAInvalidSignatureS(bytes32)": [
        {
          "details": "The signature has an S value that is in the upper half order."
        }
      ],
      "InsufficientAllowance()": [
        {
          "details": "Insufficient allowance."
        }
      ],
      "InsufficientBalance()": [
        {
          "details": "Insufficient balance."
        }
      ],
      "InvalidPermit()": [
        {
          "details": "The permit is invalid."
        }
      ],
      "PermitExpired()": [
        {
          "details": "The permit has expired."
        }
      ],
      "TotalSupplyOverflow()": [
        {
          "details": "The total supply has overflowed."
        }
      ]
    },
    "events": {
      "Approval(address,address,uint256)": {
        "details": "Emitted when `amount` tokens is approved by `owner` to be used by `spender`."
      },
      "ApprovalEncrypted(address,address)": {
        "details": "Emitted when the allowance of a `spender` for an `owner` is set by a call to {approveEncrypted}. `value` is the new allowance."
      },
      "EIP712DomainChanged()": {
        "details": "MAY be emitted to signal that the domain could have changed."
      },
      "Transfer(address,address,uint256)": {
        "details": "Emitted when `amount` tokens is transferred from `from` to `to`."
      },
      "TransferEncrypted(address,address)": {
        "details": "Emitted when `value` tokens are moved from one account (`from`) to another (`to`). Note that `value` may be zero."
      }
    },
    "kind": "dev",
    "methods": {
      "DOMAIN_SEPARATOR()": {
        "details": "Returns the EIP-712 domain separator for the EIP-2612 permit."
      },
      "allowance(address,address)": {
        "details": "Returns the amount of tokens that `spender` can spend on behalf of `owner`."
      },
      "allowanceEncrypted(address,(bytes32,bytes))": {
        "details": "Returns the remaining number of tokens that `spender` will be allowed to spend on behalf of `owner` through {transferFrom}. This is zero by default. This value changes when {approve} or {transferFrom} are called."
      },
      "approve(address,uint256)": {
        "details": "Sets `amount` as the allowance of `spender` over the caller's tokens. Emits a {Approval} event."
      },
      "approveEncrypted(address,(bytes))": {
        "details": "Sets a `value` amount of tokens as the allowance of `spender` over the caller's tokens. Returns a boolean value indicating whether the operation succeeded. IMPORTANT: Beware that changing an allowance with this method brings the risk that someone may use both the old and the new allowance by unfortunate transaction ordering. One possible solution to mitigate this race condition is to first reduce the spender's allowance to 0 and set the desired value afterwards: https://github.com/ethereum/EIPs/issues/20#issuecomment-263524729 Emits an {ApprovalEncrypted} event."
      },
      "balanceOf(address)": {
        "details": "Returns the amount of tokens owned by `owner`."
      },
      "balanceOfEncrypted(address,(bytes32,bytes))": {
        "details": "Returns the value of tokens owned by `account`, sealed and encrypted for the caller."
      },
      "decimals()": {
        "details": "Returns the decimals places of the token."
      },
      "eip712Domain()": {
        "details": "See {IERC-5267}."
      },
      "name()": {
        "details": "Returns the name of the token."
      },
      "nonces(address)": {
        "details": "Returns the current nonce for `owner`. This value is used to compute the signature for EIP-2612 permit."
      },
      "permit(address,address,uint256,uint256,uint8,bytes32,bytes32)": {
        "details": "Sets `value` as the allowance of `spender` over the tokens of `owner`, authorized by a signed approval by `owner`. Emits a {Approval} event."
      },
      "symbol()": {
        "details": "Returns the symbol of the token."
      },
      "totalSupply()": {
        "details": "Returns the amount of tokens in existence."
      },
      "transfer(address,uint256)": {
        "details": "Transfer `amount` tokens from the caller to `to`. Requirements: - `from` must at least have `amount`. Emits a {Transfer} event."
      },
      "transferFrom(address,address,uint256)": {
        "details": "Transfers `amount` tokens from `from` to `to`. Note: Does not update the allowance if it is the maximum uint256 value. Requirements: - `from` must at least have `amount`. - The caller must have at least `amount` of allowance to transfer the tokens of `from`. Emits a {Transfer} event."
      },
      "transferFromEncrypted(address,address,(bytes))": {
        "details": "Moves a `value` amount of tokens from `from` to `to` using the allowance mechanism. `value` is then deducted from the caller's allowance. Returns a boolean value indicating whether the operation succeeded. Emits a {TransferEncrypted} event."
      }
    },
    "version": 1
  },
  "userdoc": {
    "errors": {
      "SignerNotMessageSender()": [
        {
          "notice": "Emitted when the signer is not the message sender"
        }
      ],
      "SignerNotOwner()": [
        {
          "notice": "Emitted when the signer is not the specified owner"
        }
      ]
    },
    "kind": "user",
    "methods": {},
    "version": 1
  },
  "storageLayout": {
    "storage": [
      {
        "astId": 16568,
        "contract": "contracts/tokens/FakeEUR.sol:FakeEUR",
        "label": "_nameFallback",
        "offset": 0,
        "slot": "0",
        "type": "t_string_storage"
      },
      {
        "astId": 16570,
        "contract": "contracts/tokens/FakeEUR.sol:FakeEUR",
        "label": "_versionFallback",
        "offset": 0,
        "slot": "1",
        "type": "t_string_storage"
      },
      {
        "astId": 20527,
        "contract": "contracts/tokens/FakeEUR.sol:FakeEUR",
        "label": "_encTotalSupply",
        "offset": 0,
        "slot": "2",
        "type": "t_userDefinedValueType(euint32)12"
      },
      {
        "astId": 20532,
        "contract": "contracts/tokens/FakeEUR.sol:FakeEUR",
        "label": "_encBalanceOf",
        "offset": 0,
        "slot": "3",
        "type": "t_mapping(t_address,t_userDefinedValueType(euint32)12)"
      },
      {
        "astId": 20539,
        "contract": "contracts/tokens/FakeEUR.sol:FakeEUR",
        "label": "_encAllowance",
        "offset": 0,
        "slot": "4",
        "type": "t_mapping(t_address,t_mapping(t_address,t_userDefinedValueType(euint32)12))"
      },
      {
        "astId": 20541,
        "contract": "contracts/tokens/FakeEUR.sol:FakeEUR",
        "label": "_name",
        "offset": 0,
        "slot": "5",
        "type": "t_string_storage"
      },
      {
        "astId": 20543,
        "contract": "contracts/tokens/FakeEUR.sol:FakeEUR",
        "label": "_symbol",
        "offset": 0,
        "slot": "6",
        "type": "t_string_storage"
      }
    ],
    "types": {
      "t_address": {
        "encoding": "inplace",
        "label": "address",
        "numberOfBytes": "20"
      },
      "t_mapping(t_address,t_mapping(t_address,t_userDefinedValueType(euint32)12))": {
        "encoding": "mapping",
        "key": "t_address",
        "label": "mapping(address => mapping(address => euint32))",
        "numberOfBytes": "32",
        "value": "t_mapping(t_address,t_userDefinedValueType(euint32)12)"
      },
      "t_mapping(t_address,t_userDefinedValueType(euint32)12)": {
        "encoding": "mapping",
        "key": "t_address",
        "label": "mapping(address => euint32)",
        "numberOfBytes": "32",
        "value": "t_userDefinedValueType(euint32)12"
      },
      "t_string_storage": {
        "encoding": "bytes",
        "label": "string",
        "numberOfBytes": "32"
      },
      "t_userDefinedValueType(euint32)12": {
        "encoding": "inplace",
        "label": "euint32",
        "numberOfBytes": "32"
      }
    }
  }
}