{
  "address": "0x967BDe8D0c3b454fEac1Ea412bD6496e5021d8e9",
  "abi": [
    {
      "inputs": [
        {
          "components": [
            {
              "internalType": "bytes",
              "name": "data",
              "type": "bytes"
            }
          ],
          "internalType": "struct inEuint32",
          "name": "_initialSupply",
          "type": "tuple"
        }
      ],
      "stateMutability": "nonpayable",
      "type": "constructor"
    },
    {
      "inputs": [],
      "name": "AllowanceOverflow",
      "type": "error"
    },
    {
      "inputs": [],
      "name": "AllowanceUnderflow",
      "type": "error"
    },
    {
      "inputs": [],
      "name": "ECDSAInvalidSignature",
      "type": "error"
    },
    {
      "inputs": [
        {
          "internalType": "uint256",
          "name": "length",
          "type": "uint256"
        }
      ],
      "name": "ECDSAInvalidSignatureLength",
      "type": "error"
    },
    {
      "inputs": [
        {
          "internalType": "bytes32",
          "name": "s",
          "type": "bytes32"
        }
      ],
      "name": "ECDSAInvalidSignatureS",
      "type": "error"
    },
    {
      "inputs": [
        {
          "internalType": "address",
          "name": "",
          "type": "address"
        }
      ],
      "name": "ERC20InvalidApprover",
      "type": "error"
    },
    {
      "inputs": [
        {
          "internalType": "address",
          "name": "",
          "type": "address"
        }
      ],
      "name": "ERC20InvalidSpender",
      "type": "error"
    },
    {
      "inputs": [],
      "name": "ErrorInsufficientFunds",
      "type": "error"
    },
    {
      "inputs": [],
      "name": "InsufficientAllowance",
      "type": "error"
    },
    {
      "inputs": [],
      "name": "InsufficientBalance",
      "type": "error"
    },
    {
      "inputs": [],
      "name": "InvalidPermit",
      "type": "error"
    },
    {
      "inputs": [],
      "name": "InvalidShortString",
      "type": "error"
    },
    {
      "inputs": [],
      "name": "PermitExpired",
      "type": "error"
    },
    {
      "inputs": [],
      "name": "SignerNotMessageSender",
      "type": "error"
    },
    {
      "inputs": [],
      "name": "SignerNotOwner",
      "type": "error"
    },
    {
      "inputs": [
        {
          "internalType": "string",
          "name": "str",
          "type": "string"
        }
      ],
      "name": "StringTooLong",
      "type": "error"
    },
    {
      "inputs": [],
      "name": "TotalSupplyOverflow",
      "type": "error"
    },
    {
      "anonymous": false,
      "inputs": [
        {
          "indexed": true,
          "internalType": "address",
          "name": "owner",
          "type": "address"
        },
        {
          "indexed": true,
          "internalType": "address",
          "name": "spender",
          "type": "address"
        },
        {
          "indexed": false,
          "internalType": "uint256",
          "name": "amount",
          "type": "uint256"
        }
      ],
      "name": "Approval",
      "type": "event"
    },
    {
      "anonymous": false,
      "inputs": [
        {
          "indexed": true,
          "internalType": "address",
          "name": "owner",
          "type": "address"
        },
        {
          "indexed": true,
          "internalType": "address",
          "name": "spender",
          "type": "address"
        }
      ],
      "name": "ApprovalEncrypted",
      "type": "event"
    },
    {
      "anonymous": false,
      "inputs": [],
      "name": "EIP712DomainChanged",
      "type": "event"
    },
    {
      "anonymous": false,
      "inputs": [
        {
          "indexed": true,
          "internalType": "address",
          "name": "from",
          "type": "address"
        },
        {
          "indexed": true,
          "internalType": "address",
          "name": "to",
          "type": "address"
        },
        {
          "indexed": false,
          "internalType": "uint256",
          "name": "amount",
          "type": "uint256"
        }
      ],
      "name": "Transfer",
      "type": "event"
    },
    {
      "anonymous": false,
      "inputs": [
        {
          "indexed": true,
          "internalType": "address",
          "name": "from",
          "type": "address"
        },
        {
          "indexed": true,
          "internalType": "address",
          "name": "to",
          "type": "address"
        }
      ],
      "name": "TransferEncrypted",
      "type": "event"
    },
    {
      "inputs": [],
      "name": "DOMAIN_SEPARATOR",
      "outputs": [
        {
          "internalType": "bytes32",
          "name": "result",
          "type": "bytes32"
        }
      ],
      "stateMutability": "view",
      "type": "function"
    },
    {
      "inputs": [
        {
          "internalType": "address",
          "name": "owner",
          "type": "address"
        },
        {
          "internalType": "address",
          "name": "spender",
          "type": "address"
        }
      ],
      "name": "allowance",
      "outputs": [
        {
          "internalType": "uint256",
          "name": "result",
          "type": "uint256"
        }
      ],
      "stateMutability": "view",
      "type": "function"
    },
    {
      "inputs": [
        {
          "internalType": "address",
          "name": "spender",
          "type": "address"
        },
        {
          "components": [
            {
              "internalType": "bytes32",
              "name": "publicKey",
              "type": "bytes32"
            },
            {
              "internalType": "bytes",
              "name": "signature",
              "type": "bytes"
            }
          ],
          "internalType": "struct Permission",
          "name": "permission",
          "type": "tuple"
        }
      ],
      "name": "allowanceEncrypted",
      "outputs": [
        {
          "internalType": "string",
          "name": "",
          "type": "string"
        }
      ],
      "stateMutability": "view",
      "type": "function"
    },
    {
      "inputs": [
        {
          "internalType": "address",
          "name": "spender",
          "type": "address"
        },
        {
          "internalType": "uint256",
          "name": "amount",
          "type": "uint256"
        }
      ],
      "name": "approve",
      "outputs": [
        {
          "internalType": "bool",
          "name": "",
          "type": "bool"
        }
      ],
      "stateMutability": "nonpayable",
      "type": "function"
    },
    {
      "inputs": [
        {
          "internalType": "address",
          "name": "spender",
          "type": "address"
        },
        {
          "components": [
            {
              "internalType": "bytes",
              "name": "data",
              "type": "bytes"
            }
          ],
          "internalType": "struct inEuint32",
          "name": "value",
          "type": "tuple"
        }
      ],
      "name": "approveEncrypted",
      "outputs": [
        {
          "internalType": "bool",
          "name": "",
          "type": "bool"
        }
      ],
      "stateMutability": "nonpayable",
      "type": "function"
    },
    {
      "inputs": [
        {
          "internalType": "address",
          "name": "owner",
          "type": "address"
        }
      ],
      "name": "balanceOf",
      "outputs": [
        {
          "internalType": "uint256",
          "name": "result",
          "type": "uint256"
        }
      ],
      "stateMutability": "view",
      "type": "function"
    },
    {
      "inputs": [
        {
          "internalType": "address",
          "name": "account",
          "type": "address"
        },
        {
          "components": [
            {
              "internalType": "bytes32",
              "name": "publicKey",
              "type": "bytes32"
            },
            {
              "internalType": "bytes",
              "name": "signature",
              "type": "bytes"
            }
          ],
          "internalType": "struct Permission",
          "name": "auth",
          "type": "tuple"
        }
      ],
      "name": "balanceOfEncrypted",
      "outputs": [
        {
          "internalType": "string",
          "name": "",
          "type": "string"
        }
      ],
      "stateMutability": "view",
      "type": "function"
    },
    {
      "inputs": [],
      "name": "decimals",
      "outputs": [
        {
          "internalType": "uint8",
          "name": "",
          "type": "uint8"
        }
      ],
      "stateMutability": "pure",
      "type": "function"
    },
    {
      "inputs": [],
      "name": "eip712Domain",
      "outputs": [
        {
          "internalType": "bytes1",
          "name": "fields",
          "type": "bytes1"
        },
        {
          "internalType": "string",
          "name": "name",
          "type": "string"
        },
        {
          "internalType": "string",
          "name": "version",
          "type": "string"
        },
        {
          "internalType": "uint256",
          "name": "chainId",
          "type": "uint256"
        },
        {
          "internalType": "address",
          "name": "verifyingContract",
          "type": "address"
        },
        {
          "internalType": "bytes32",
          "name": "salt",
          "type": "bytes32"
        },
        {
          "internalType": "uint256[]",
          "name": "extensions",
          "type": "uint256[]"
        }
      ],
      "stateMutability": "view",
      "type": "function"
    },
    {
      "inputs": [],
      "name": "name",
      "outputs": [
        {
          "internalType": "string",
          "name": "",
          "type": "string"
        }
      ],
      "stateMutability": "view",
      "type": "function"
    },
    {
      "inputs": [
        {
          "internalType": "address",
          "name": "owner",
          "type": "address"
        }
      ],
      "name": "nonces",
      "outputs": [
        {
          "internalType": "uint256",
          "name": "result",
          "type": "uint256"
        }
      ],
      "stateMutability": "view",
      "type": "function"
    },
    {
      "inputs": [
        {
          "internalType": "address",
          "name": "owner",
          "type": "address"
        },
        {
          "internalType": "address",
          "name": "spender",
          "type": "address"
        },
        {
          "internalType": "uint256",
          "name": "value",
          "type": "uint256"
        },
        {
          "internalType": "uint256",
          "name": "deadline",
          "type": "uint256"
        },
        {
          "internalType": "uint8",
          "name": "v",
          "type": "uint8"
        },
        {
          "internalType": "bytes32",
          "name": "r",
          "type": "bytes32"
        },
        {
          "internalType": "bytes32",
          "name": "s",
          "type": "bytes32"
        }
      ],
      "name": "permit",
      "outputs": [],
      "stateMutability": "nonpayable",
      "type": "function"
    },
    {
      "inputs": [],
      "name": "symbol",
      "outputs": [
        {
          "internalType": "string",
          "name": "",
          "type": "string"
        }
      ],
      "stateMutability": "view",
      "type": "function"
    },
    {
      "inputs": [],
      "name": "totalSupply",
      "outputs": [
        {
          "internalType": "uint256",
          "name": "result",
          "type": "uint256"
        }
      ],
      "stateMutability": "view",
      "type": "function"
    },
    {
      "inputs": [
        {
          "internalType": "address",
          "name": "to",
          "type": "address"
        },
        {
          "internalType": "uint256",
          "name": "amount",
          "type": "uint256"
        }
      ],
      "name": "transfer",
      "outputs": [
        {
          "internalType": "bool",
          "name": "",
          "type": "bool"
        }
      ],
      "stateMutability": "nonpayable",
      "type": "function"
    },
    {
      "inputs": [
        {
          "internalType": "address",
          "name": "to",
          "type": "address"
        },
        {
          "components": [
            {
              "internalType": "bytes",
              "name": "data",
              "type": "bytes"
            }
          ],
          "internalType": "struct inEuint32",
          "name": "encryptedAmount",
          "type": "tuple"
        }
      ],
      "name": "transferEncrypted",
      "outputs": [
        {
          "internalType": "euint32",
          "name": "",
          "type": "uint256"
        }
      ],
      "stateMutability": "nonpayable",
      "type": "function"
    },
    {
      "inputs": [
        {
          "internalType": "address",
          "name": "to",
          "type": "address"
        },
        {
          "internalType": "euint32",
          "name": "amount",
          "type": "uint256"
        }
      ],
      "name": "transferEncrypted",
      "outputs": [
        {
          "internalType": "euint32",
          "name": "",
          "type": "uint256"
        }
      ],
      "stateMutability": "nonpayable",
      "type": "function"
    },
    {
      "inputs": [
        {
          "internalType": "address",
          "name": "from",
          "type": "address"
        },
        {
          "internalType": "address",
          "name": "to",
          "type": "address"
        },
        {
          "internalType": "uint256",
          "name": "amount",
          "type": "uint256"
        }
      ],
      "name": "transferFrom",
      "outputs": [
        {
          "internalType": "bool",
          "name": "",
          "type": "bool"
        }
      ],
      "stateMutability": "nonpayable",
      "type": "function"
    },
    {
      "inputs": [
        {
          "internalType": "address",
          "name": "from",
          "type": "address"
        },
        {
          "internalType": "address",
          "name": "to",
          "type": "address"
        },
        {
          "components": [
            {
              "internalType": "bytes",
              "name": "data",
              "type": "bytes"
            }
          ],
          "internalType": "struct inEuint32",
          "name": "value",
          "type": "tuple"
        }
      ],
      "name": "transferFromEncrypted",
      "outputs": [
        {
          "internalType": "euint32",
          "name": "",
          "type": "uint256"
        }
      ],
      "stateMutability": "nonpayable",
      "type": "function"
    },
    {
      "inputs": [
        {
          "internalType": "address",
          "name": "from",
          "type": "address"
        },
        {
          "internalType": "address",
          "name": "to",
          "type": "address"
        },
        {
          "internalType": "euint32",
          "name": "value",
          "type": "uint256"
        }
      ],
      "name": "transferFromEncrypted",
      "outputs": [
        {
          "internalType": "euint32",
          "name": "",
          "type": "uint256"
        }
      ],
      "stateMutability": "nonpayable",
      "type": "function"
    },
    {
      "inputs": [
        {
          "internalType": "uint32",
          "name": "amount",
          "type": "uint32"
        }
      ],
      "name": "unwrap",
      "outputs": [],
      "stateMutability": "nonpayable",
      "type": "function"
    },
    {
      "inputs": [
        {
          "internalType": "uint32",
          "name": "amount",
          "type": "uint32"
        }
      ],
      "name": "wrap",
      "outputs": [],
      "stateMutability": "nonpayable",
      "type": "function"
    }
  ],
  "transactionHash": "0x8c4fa8ceec9e97da77ee292a6d5c4151b04e9b18918de053961e27d9a1242438",
  "args": [
    {
      "data": {
        "0": 16,
        "1": 8,
        "2": 0,
        "3": 0,
        "4": 0,
        "5": 0,
        "6": 0,
        "7": 0,
        "8": 208,
        "9": 139,
        "10": 23,
        "11": 198,
        "12": 24,
        "13": 240,
        "14": 86,
        "15": 6,
        "16": 188,
        "17": 92,
        "18": 113,
        "19": 118,
        "20": 136,
        "21": 161,
        "22": 162,
        "23": 134,
        "24": 18,
        "25": 216,
        "26": 88,
        "27": 136,
        "28": 179,
        "29": 83,
        "30": 61,
        "31": 70,
        "32": 214,
        "33": 46,
        "34": 76,
        "35": 222,
        "36": 9,
        "37": 171,
        "38": 68,
        "39": 132,
        "40": 188,
        "41": 121,
        "42": 120,
        "43": 37,
        "44": 76,
        "45": 19,
        "46": 14,
        "47": 141,
        "48": 94,
        "49": 196,
        "50": 205,
        "51": 197,
        "52": 117,
        "53": 35,
        "54": 28,
        "55": 249,
        "56": 73,
        "57": 43,
        "58": 8,
        "59": 62,
        "60": 214,
        "61": 173,
        "62": 7,
        "63": 92,
        "64": 226,
        "65": 144,
        "66": 254,
        "67": 250,
        "68": 249,
        "69": 226,
        "70": 237,
        "71": 110,
        "72": 3,
        "73": 97,
        "74": 215,
        "75": 170,
        "76": 39,
        "77": 151,
        "78": 21,
        "79": 25,
        "80": 53,
        "81": 29,
        "82": 166,
        "83": 71,
        "84": 158,
        "85": 200,
        "86": 219,
        "87": 159,
        "88": 168,
        "89": 221,
        "90": 84,
        "91": 40,
        "92": 110,
        "93": 132,
        "94": 91,
        "95": 44,
        "96": 252,
        "97": 228,
        "98": 81,
        "99": 50,
        "100": 103,
        "101": 86,
        "102": 207,
        "103": 197,
        "104": 6,
        "105": 241,
        "106": 217,
        "107": 101,
        "108": 145,
        "109": 67,
        "110": 109,
        "111": 131,
        "112": 123,
        "113": 46,
        "114": 223,
        "115": 102,
        "116": 25,
        "117": 50,
        "118": 194,
        "119": 170,
        "120": 185,
        "121": 253,
        "122": 69,
        "123": 204,
        "124": 175,
        "125": 200,
        "126": 249,
        "127": 131,
        "128": 79,
        "129": 49,
        "130": 227,
        "131": 208,
        "132": 70,
        "133": 32,
        "134": 89,
        "135": 186,
        "136": 4,
        "137": 130,
        "138": 210,
        "139": 17,
        "140": 187,
        "141": 164,
        "142": 136,
        "143": 15,
        "144": 220,
        "145": 176,
        "146": 201,
        "147": 39,
        "148": 111,
        "149": 175,
        "150": 50,
        "151": 141,
        "152": 182,
        "153": 37,
        "154": 30,
        "155": 90,
        "156": 184,
        "157": 94,
        "158": 98,
        "159": 229,
        "160": 225,
        "161": 167,
        "162": 169,
        "163": 190,
        "164": 111,
        "165": 144,
        "166": 167,
        "167": 93,
        "168": 236,
        "169": 15,
        "170": 231,
        "171": 38,
        "172": 188,
        "173": 189,
        "174": 248,
        "175": 140,
        "176": 124,
        "177": 10,
        "178": 104,
        "179": 49,
        "180": 81,
        "181": 155,
        "182": 82,
        "183": 186,
        "184": 43,
        "185": 125,
        "186": 187,
        "187": 133,
        "188": 129,
        "189": 214,
        "190": 1,
        "191": 5,
        "192": 130,
        "193": 160,
        "194": 73,
        "195": 143,
        "196": 137,
        "197": 97,
        "198": 175,
        "199": 33,
        "200": 52,
        "201": 238,
        "202": 145,
        "203": 84,
        "204": 118,
        "205": 137,
        "206": 3,
        "207": 95,
        "208": 32,
        "209": 145,
        "210": 235,
        "211": 3,
        "212": 156,
        "213": 52,
        "214": 212,
        "215": 93,
        "216": 209,
        "217": 231,
        "218": 248,
        "219": 36,
        "220": 83,
        "221": 36,
        "222": 34,
        "223": 69,
        "224": 167,
        "225": 245,
        "226": 156,
        "227": 142,
        "228": 60,
        "229": 212,
        "230": 167,
        "231": 218,
        "232": 192,
        "233": 116,
        "234": 2,
        "235": 221,
        "236": 122,
        "237": 16,
        "238": 169,
        "239": 197,
        "240": 206,
        "241": 234,
        "242": 189,
        "243": 0,
        "244": 75,
        "245": 79,
        "246": 19,
        "247": 130,
        "248": 150,
        "249": 61,
        "250": 95,
        "251": 63,
        "252": 71,
        "253": 236,
        "254": 228,
        "255": 164,
        "256": 9,
        "257": 199,
        "258": 71,
        "259": 176,
        "260": 75,
        "261": 197,
        "262": 244,
        "263": 92,
        "264": 77,
        "265": 120,
        "266": 47,
        "267": 233,
        "268": 235,
        "269": 32,
        "270": 159,
        "271": 201,
        "272": 183,
        "273": 203,
        "274": 62,
        "275": 217,
        "276": 83,
        "277": 160,
        "278": 47,
        "279": 198,
        "280": 26,
        "281": 235,
        "282": 23,
        "283": 94,
        "284": 228,
        "285": 130,
        "286": 130,
        "287": 54,
        "288": 131,
        "289": 37,
        "290": 94,
        "291": 65,
        "292": 168,
        "293": 38,
        "294": 174,
        "295": 25,
        "296": 17,
        "297": 142,
        "298": 195,
        "299": 36,
        "300": 157,
        "301": 114,
        "302": 3,
        "303": 94,
        "304": 37,
        "305": 123,
        "306": 246,
        "307": 59,
        "308": 197,
        "309": 218,
        "310": 177,
        "311": 80,
        "312": 223,
        "313": 15,
        "314": 16,
        "315": 64,
        "316": 149,
        "317": 3,
        "318": 144,
        "319": 210,
        "320": 29,
        "321": 236,
        "322": 24,
        "323": 161,
        "324": 63,
        "325": 37,
        "326": 28,
        "327": 132,
        "328": 45,
        "329": 29,
        "330": 241,
        "331": 222,
        "332": 159,
        "333": 234,
        "334": 187,
        "335": 80,
        "336": 147,
        "337": 20,
        "338": 98,
        "339": 140,
        "340": 122,
        "341": 225,
        "342": 148,
        "343": 42,
        "344": 56,
        "345": 177,
        "346": 26,
        "347": 3,
        "348": 15,
        "349": 164,
        "350": 55,
        "351": 191,
        "352": 38,
        "353": 197,
        "354": 135,
        "355": 158,
        "356": 121,
        "357": 210,
        "358": 62,
        "359": 247,
        "360": 240,
        "361": 57,
        "362": 201,
        "363": 194,
        "364": 203,
        "365": 57,
        "366": 94,
        "367": 69,
        "368": 227,
        "369": 16,
        "370": 25,
        "371": 34,
        "372": 24,
        "373": 149,
        "374": 88,
        "375": 147,
        "376": 222,
        "377": 148,
        "378": 130,
        "379": 214,
        "380": 48,
        "381": 246,
        "382": 102,
        "383": 177,
        "384": 230,
        "385": 10,
        "386": 166,
        "387": 107,
        "388": 89,
        "389": 121,
        "390": 155,
        "391": 84,
        "392": 235,
        "393": 125,
        "394": 67,
        "395": 222,
        "396": 12,
        "397": 13,
        "398": 56,
        "399": 207,
        "400": 148,
        "401": 234,
        "402": 120,
        "403": 217,
        "404": 20,
        "405": 186,
        "406": 4,
        "407": 182,
        "408": 8,
        "409": 151,
        "410": 240,
        "411": 183,
        "412": 165,
        "413": 100,
        "414": 44,
        "415": 110,
        "416": 46,
        "417": 190,
        "418": 252,
        "419": 122,
        "420": 23,
        "421": 144,
        "422": 101,
        "423": 116,
        "424": 214,
        "425": 170,
        "426": 222,
        "427": 22,
        "428": 249,
        "429": 37,
        "430": 208,
        "431": 142,
        "432": 255,
        "433": 90,
        "434": 221,
        "435": 36,
        "436": 178,
        "437": 183,
        "438": 171,
        "439": 21,
        "440": 166,
        "441": 72,
        "442": 172,
        "443": 147,
        "444": 124,
        "445": 88,
        "446": 250,
        "447": 162,
        "448": 166,
        "449": 235,
        "450": 54,
        "451": 33,
        "452": 140,
        "453": 229,
        "454": 66,
        "455": 247,
        "456": 198,
        "457": 125,
        "458": 117,
        "459": 100,
        "460": 20,
        "461": 154,
        "462": 171,
        "463": 3,
        "464": 68,
        "465": 70,
        "466": 185,
        "467": 81,
        "468": 47,
        "469": 203,
        "470": 231,
        "471": 169,
        "472": 172,
        "473": 95,
        "474": 214,
        "475": 224,
        "476": 210,
        "477": 87,
        "478": 90,
        "479": 127,
        "480": 97,
        "481": 164,
        "482": 238,
        "483": 38,
        "484": 36,
        "485": 43,
        "486": 77,
        "487": 32,
        "488": 47,
        "489": 51,
        "490": 254,
        "491": 67,
        "492": 235,
        "493": 158,
        "494": 100,
        "495": 121,
        "496": 248,
        "497": 30,
        "498": 14,
        "499": 143,
        "500": 206,
        "501": 187,
        "502": 72,
        "503": 70,
        "504": 20,
        "505": 248,
        "506": 61,
        "507": 205,
        "508": 118,
        "509": 185,
        "510": 234,
        "511": 65,
        "512": 104,
        "513": 141,
        "514": 163,
        "515": 52,
        "516": 198,
        "517": 101,
        "518": 199,
        "519": 30,
        "520": 49,
        "521": 225,
        "522": 122,
        "523": 106,
        "524": 60,
        "525": 82,
        "526": 138,
        "527": 19,
        "528": 129,
        "529": 180,
        "530": 240,
        "531": 122,
        "532": 45,
        "533": 78,
        "534": 254,
        "535": 173,
        "536": 214,
        "537": 189,
        "538": 68,
        "539": 117,
        "540": 161,
        "541": 182,
        "542": 92,
        "543": 234,
        "544": 120,
        "545": 224,
        "546": 10,
        "547": 73,
        "548": 58,
        "549": 219,
        "550": 123,
        "551": 221,
        "552": 167,
        "553": 6,
        "554": 249,
        "555": 60,
        "556": 21,
        "557": 43,
        "558": 173,
        "559": 10,
        "560": 167,
        "561": 40,
        "562": 6,
        "563": 41,
        "564": 59,
        "565": 105,
        "566": 44,
        "567": 110,
        "568": 55,
        "569": 137,
        "570": 50,
        "571": 111,
        "572": 171,
        "573": 106,
        "574": 177,
        "575": 17,
        "576": 219,
        "577": 173,
        "578": 193,
        "579": 22,
        "580": 16,
        "581": 224,
        "582": 85,
        "583": 145,
        "584": 181,
        "585": 108,
        "586": 123,
        "587": 9,
        "588": 144,
        "589": 53,
        "590": 47,
        "591": 129,
        "592": 161,
        "593": 142,
        "594": 145,
        "595": 194,
        "596": 63,
        "597": 105,
        "598": 243,
        "599": 54,
        "600": 137,
        "601": 213,
        "602": 110,
        "603": 115,
        "604": 14,
        "605": 140,
        "606": 135,
        "607": 79,
        "608": 218,
        "609": 55,
        "610": 152,
        "611": 138,
        "612": 5,
        "613": 192,
        "614": 105,
        "615": 128,
        "616": 172,
        "617": 132,
        "618": 95,
        "619": 89,
        "620": 182,
        "621": 153,
        "622": 36,
        "623": 49,
        "624": 75,
        "625": 33,
        "626": 97,
        "627": 154,
        "628": 191,
        "629": 67,
        "630": 230,
        "631": 91,
        "632": 149,
        "633": 250,
        "634": 173,
        "635": 171,
        "636": 9,
        "637": 62,
        "638": 192,
        "639": 125,
        "640": 182,
        "641": 187,
        "642": 34,
        "643": 198,
        "644": 9,
        "645": 125,
        "646": 180,
        "647": 31,
        "648": 86,
        "649": 26,
        "650": 162,
        "651": 37,
        "652": 19,
        "653": 181,
        "654": 126,
        "655": 98,
        "656": 109,
        "657": 178,
        "658": 214,
        "659": 202,
        "660": 159,
        "661": 246,
        "662": 77,
        "663": 237,
        "664": 42,
        "665": 92,
        "666": 86,
        "667": 216,
        "668": 61,
        "669": 119,
        "670": 111,
        "671": 128,
        "672": 114,
        "673": 89,
        "674": 147,
        "675": 118,
        "676": 240,
        "677": 166,
        "678": 96,
        "679": 153,
        "680": 252,
        "681": 78,
        "682": 190,
        "683": 218,
        "684": 45,
        "685": 169,
        "686": 48,
        "687": 26,
        "688": 16,
        "689": 96,
        "690": 207,
        "691": 186,
        "692": 165,
        "693": 23,
        "694": 240,
        "695": 84,
        "696": 83,
        "697": 14,
        "698": 80,
        "699": 74,
        "700": 115,
        "701": 114,
        "702": 6,
        "703": 151,
        "704": 148,
        "705": 131,
        "706": 163,
        "707": 138,
        "708": 198,
        "709": 65,
        "710": 64,
        "711": 59,
        "712": 127,
        "713": 108,
        "714": 74,
        "715": 216,
        "716": 83,
        "717": 239,
        "718": 26,
        "719": 192,
        "720": 192,
        "721": 44,
        "722": 9,
        "723": 212,
        "724": 22,
        "725": 83,
        "726": 19,
        "727": 201,
        "728": 221,
        "729": 152,
        "730": 93,
        "731": 238,
        "732": 157,
        "733": 231,
        "734": 149,
        "735": 103,
        "736": 243,
        "737": 203,
        "738": 227,
        "739": 33,
        "740": 95,
        "741": 215,
        "742": 250,
        "743": 39,
        "744": 127,
        "745": 191,
        "746": 215,
        "747": 185,
        "748": 225,
        "749": 6,
        "750": 199,
        "751": 22,
        "752": 135,
        "753": 180,
        "754": 123,
        "755": 67,
        "756": 200,
        "757": 112,
        "758": 84,
        "759": 212,
        "760": 109,
        "761": 72,
        "762": 143,
        "763": 121,
        "764": 96,
        "765": 109,
        "766": 234,
        "767": 214,
        "768": 222,
        "769": 228,
        "770": 180,
        "771": 16,
        "772": 169,
        "773": 126,
        "774": 94,
        "775": 42,
        "776": 195,
        "777": 81,
        "778": 221,
        "779": 49,
        "780": 208,
        "781": 53,
        "782": 62,
        "783": 162,
        "784": 35,
        "785": 240,
        "786": 71,
        "787": 48,
        "788": 26,
        "789": 38,
        "790": 15,
        "791": 125,
        "792": 89,
        "793": 17,
        "794": 147,
        "795": 198,
        "796": 153,
        "797": 155,
        "798": 204,
        "799": 133,
        "800": 43,
        "801": 192,
        "802": 158,
        "803": 118,
        "804": 159,
        "805": 152,
        "806": 23,
        "807": 33,
        "808": 219,
        "809": 45,
        "810": 121,
        "811": 71,
        "812": 109,
        "813": 90,
        "814": 117,
        "815": 214,
        "816": 79,
        "817": 137,
        "818": 59,
        "819": 173,
        "820": 90,
        "821": 93,
        "822": 181,
        "823": 154,
        "824": 165,
        "825": 203,
        "826": 154,
        "827": 132,
        "828": 93,
        "829": 244,
        "830": 209,
        "831": 107,
        "832": 182,
        "833": 139,
        "834": 125,
        "835": 38,
        "836": 119,
        "837": 5,
        "838": 218,
        "839": 42,
        "840": 140,
        "841": 113,
        "842": 68,
        "843": 110,
        "844": 25,
        "845": 21,
        "846": 197,
        "847": 180,
        "848": 117,
        "849": 230,
        "850": 121,
        "851": 246,
        "852": 134,
        "853": 39,
        "854": 208,
        "855": 108,
        "856": 18,
        "857": 124,
        "858": 77,
        "859": 139,
        "860": 221,
        "861": 173,
        "862": 29,
        "863": 108,
        "864": 33,
        "865": 38,
        "866": 232,
        "867": 25,
        "868": 72,
        "869": 76,
        "870": 106,
        "871": 64,
        "872": 205,
        "873": 131,
        "874": 235,
        "875": 198,
        "876": 229,
        "877": 95,
        "878": 160,
        "879": 118,
        "880": 41,
        "881": 214,
        "882": 25,
        "883": 205,
        "884": 120,
        "885": 218,
        "886": 230,
        "887": 182,
        "888": 63,
        "889": 65,
        "890": 223,
        "891": 144,
        "892": 119,
        "893": 182,
        "894": 235,
        "895": 243,
        "896": 81,
        "897": 192,
        "898": 56,
        "899": 154,
        "900": 124,
        "901": 146,
        "902": 63,
        "903": 169,
        "904": 77,
        "905": 132,
        "906": 183,
        "907": 57,
        "908": 250,
        "909": 191,
        "910": 91,
        "911": 208,
        "912": 128,
        "913": 187,
        "914": 25,
        "915": 83,
        "916": 251,
        "917": 196,
        "918": 51,
        "919": 186,
        "920": 248,
        "921": 235,
        "922": 125,
        "923": 164,
        "924": 216,
        "925": 232,
        "926": 204,
        "927": 57,
        "928": 45,
        "929": 170,
        "930": 191,
        "931": 49,
        "932": 185,
        "933": 118,
        "934": 197,
        "935": 202,
        "936": 48,
        "937": 56,
        "938": 88,
        "939": 61,
        "940": 92,
        "941": 41,
        "942": 204,
        "943": 177,
        "944": 173,
        "945": 85,
        "946": 210,
        "947": 9,
        "948": 120,
        "949": 156,
        "950": 238,
        "951": 18,
        "952": 146,
        "953": 142,
        "954": 255,
        "955": 27,
        "956": 104,
        "957": 112,
        "958": 107,
        "959": 45,
        "960": 214,
        "961": 73,
        "962": 234,
        "963": 49,
        "964": 120,
        "965": 50,
        "966": 111,
        "967": 218,
        "968": 16,
        "969": 86,
        "970": 125,
        "971": 139,
        "972": 47,
        "973": 126,
        "974": 8,
        "975": 114,
        "976": 42,
        "977": 70,
        "978": 51,
        "979": 45,
        "980": 3,
        "981": 26,
        "982": 133,
        "983": 200,
        "984": 96,
        "985": 56,
        "986": 115,
        "987": 158,
        "988": 183,
        "989": 253,
        "990": 32,
        "991": 246,
        "992": 102,
        "993": 167,
        "994": 83,
        "995": 87,
        "996": 164,
        "997": 229,
        "998": 127,
        "999": 114,
        "1000": 21,
        "1001": 133,
        "1002": 199,
        "1003": 112,
        "1004": 175,
        "1005": 243,
        "1006": 214,
        "1007": 179,
        "1008": 167,
        "1009": 216,
        "1010": 238,
        "1011": 136,
        "1012": 36,
        "1013": 12,
        "1014": 166,
        "1015": 11,
        "1016": 95,
        "1017": 214,
        "1018": 194,
        "1019": 205,
        "1020": 62,
        "1021": 122,
        "1022": 217,
        "1023": 74,
        "1024": 156,
        "1025": 40,
        "1026": 132,
        "1027": 198,
        "1028": 39,
        "1029": 197,
        "1030": 96,
        "1031": 111,
        "1032": 194,
        "1033": 15,
        "1034": 69,
        "1035": 125,
        "1036": 105,
        "1037": 194,
        "1038": 19,
        "1039": 93,
        "1040": 201,
        "1041": 36,
        "1042": 237,
        "1043": 135,
        "1044": 253,
        "1045": 182,
        "1046": 174,
        "1047": 150,
        "1048": 134,
        "1049": 130,
        "1050": 117,
        "1051": 161,
        "1052": 16,
        "1053": 167,
        "1054": 212,
        "1055": 118,
        "1056": 8,
        "1057": 33,
        "1058": 50,
        "1059": 189,
        "1060": 17,
        "1061": 48,
        "1062": 12,
        "1063": 17,
        "1064": 250,
        "1065": 161,
        "1066": 128,
        "1067": 253,
        "1068": 175,
        "1069": 53,
        "1070": 175,
        "1071": 73,
        "1072": 218,
        "1073": 136,
        "1074": 24,
        "1075": 35,
        "1076": 206,
        "1077": 247,
        "1078": 164,
        "1079": 208,
        "1080": 147,
        "1081": 183,
        "1082": 63,
        "1083": 154,
        "1084": 19,
        "1085": 2,
        "1086": 18,
        "1087": 103,
        "1088": 44,
        "1089": 16,
        "1090": 75,
        "1091": 151,
        "1092": 203,
        "1093": 202,
        "1094": 207,
        "1095": 203,
        "1096": 222,
        "1097": 107,
        "1098": 247,
        "1099": 122,
        "1100": 196,
        "1101": 55,
        "1102": 128,
        "1103": 250,
        "1104": 73,
        "1105": 243,
        "1106": 116,
        "1107": 79,
        "1108": 12,
        "1109": 64,
        "1110": 89,
        "1111": 251,
        "1112": 82,
        "1113": 217,
        "1114": 216,
        "1115": 78,
        "1116": 86,
        "1117": 56,
        "1118": 41,
        "1119": 230,
        "1120": 108,
        "1121": 204,
        "1122": 78,
        "1123": 35,
        "1124": 34,
        "1125": 0,
        "1126": 119,
        "1127": 140,
        "1128": 199,
        "1129": 108,
        "1130": 204,
        "1131": 152,
        "1132": 114,
        "1133": 171,
        "1134": 29,
        "1135": 42,
        "1136": 175,
        "1137": 149,
        "1138": 197,
        "1139": 59,
        "1140": 38,
        "1141": 194,
        "1142": 168,
        "1143": 246,
        "1144": 20,
        "1145": 150,
        "1146": 178,
        "1147": 49,
        "1148": 244,
        "1149": 100,
        "1150": 39,
        "1151": 52,
        "1152": 198,
        "1153": 81,
        "1154": 131,
        "1155": 162,
        "1156": 48,
        "1157": 159,
        "1158": 49,
        "1159": 99,
        "1160": 36,
        "1161": 60,
        "1162": 69,
        "1163": 133,
        "1164": 219,
        "1165": 237,
        "1166": 199,
        "1167": 218,
        "1168": 221,
        "1169": 134,
        "1170": 24,
        "1171": 140,
        "1172": 133,
        "1173": 203,
        "1174": 210,
        "1175": 243,
        "1176": 208,
        "1177": 175,
        "1178": 118,
        "1179": 25,
        "1180": 94,
        "1181": 93,
        "1182": 25,
        "1183": 179,
        "1184": 215,
        "1185": 226,
        "1186": 75,
        "1187": 145,
        "1188": 56,
        "1189": 175,
        "1190": 123,
        "1191": 217,
        "1192": 20,
        "1193": 93,
        "1194": 121,
        "1195": 129,
        "1196": 182,
        "1197": 37,
        "1198": 201,
        "1199": 55,
        "1200": 177,
        "1201": 45,
        "1202": 72,
        "1203": 56,
        "1204": 99,
        "1205": 108,
        "1206": 56,
        "1207": 25,
        "1208": 43,
        "1209": 227,
        "1210": 69,
        "1211": 241,
        "1212": 69,
        "1213": 56,
        "1214": 41,
        "1215": 220,
        "1216": 154,
        "1217": 10,
        "1218": 120,
        "1219": 174,
        "1220": 63,
        "1221": 212,
        "1222": 203,
        "1223": 153,
        "1224": 161,
        "1225": 242,
        "1226": 42,
        "1227": 63,
        "1228": 25,
        "1229": 209,
        "1230": 165,
        "1231": 51,
        "1232": 245,
        "1233": 43,
        "1234": 139,
        "1235": 165,
        "1236": 94,
        "1237": 138,
        "1238": 210,
        "1239": 28,
        "1240": 119,
        "1241": 190,
        "1242": 169,
        "1243": 247,
        "1244": 227,
        "1245": 57,
        "1246": 109,
        "1247": 60,
        "1248": 202,
        "1249": 13,
        "1250": 109,
        "1251": 53,
        "1252": 18,
        "1253": 33,
        "1254": 165,
        "1255": 193,
        "1256": 212,
        "1257": 215,
        "1258": 104,
        "1259": 153,
        "1260": 36,
        "1261": 131,
        "1262": 94,
        "1263": 216,
        "1264": 176,
        "1265": 203,
        "1266": 5,
        "1267": 67,
        "1268": 16,
        "1269": 108,
        "1270": 142,
        "1271": 31,
        "1272": 62,
        "1273": 242,
        "1274": 198,
        "1275": 176,
        "1276": 51,
        "1277": 153,
        "1278": 255,
        "1279": 66,
        "1280": 215,
        "1281": 35,
        "1282": 51,
        "1283": 142,
        "1284": 123,
        "1285": 248,
        "1286": 214,
        "1287": 244,
        "1288": 207,
        "1289": 214,
        "1290": 62,
        "1291": 18,
        "1292": 205,
        "1293": 239,
        "1294": 127,
        "1295": 143,
        "1296": 187,
        "1297": 248,
        "1298": 252,
        "1299": 233,
        "1300": 217,
        "1301": 228,
        "1302": 99,
        "1303": 226,
        "1304": 235,
        "1305": 99,
        "1306": 100,
        "1307": 68,
        "1308": 35,
        "1309": 240,
        "1310": 95,
        "1311": 208,
        "1312": 0,
        "1313": 77,
        "1314": 55,
        "1315": 3,
        "1316": 63,
        "1317": 17,
        "1318": 159,
        "1319": 124,
        "1320": 19,
        "1321": 127,
        "1322": 108,
        "1323": 153,
        "1324": 180,
        "1325": 152,
        "1326": 58,
        "1327": 78,
        "1328": 34,
        "1329": 159,
        "1330": 125,
        "1331": 53,
        "1332": 128,
        "1333": 2,
        "1334": 201,
        "1335": 156,
        "1336": 165,
        "1337": 101,
        "1338": 32,
        "1339": 13,
        "1340": 104,
        "1341": 131,
        "1342": 229,
        "1343": 196,
        "1344": 102,
        "1345": 224,
        "1346": 181,
        "1347": 160,
        "1348": 87,
        "1349": 53,
        "1350": 41,
        "1351": 3,
        "1352": 254,
        "1353": 164,
        "1354": 249,
        "1355": 38,
        "1356": 34,
        "1357": 245,
        "1358": 138,
        "1359": 249,
        "1360": 84,
        "1361": 79,
        "1362": 218,
        "1363": 116,
        "1364": 60,
        "1365": 141,
        "1366": 137,
        "1367": 30,
        "1368": 35,
        "1369": 61,
        "1370": 172,
        "1371": 255,
        "1372": 48,
        "1373": 127,
        "1374": 62,
        "1375": 102,
        "1376": 195,
        "1377": 94,
        "1378": 199,
        "1379": 15,
        "1380": 253,
        "1381": 168,
        "1382": 117,
        "1383": 47,
        "1384": 72,
        "1385": 42,
        "1386": 84,
        "1387": 119,
        "1388": 229,
        "1389": 128,
        "1390": 54,
        "1391": 211,
        "1392": 243,
        "1393": 117,
        "1394": 135,
        "1395": 15,
        "1396": 85,
        "1397": 31,
        "1398": 249,
        "1399": 1,
        "1400": 158,
        "1401": 77,
        "1402": 131,
        "1403": 84,
        "1404": 240,
        "1405": 49,
        "1406": 34,
        "1407": 103,
        "1408": 17,
        "1409": 241,
        "1410": 163,
        "1411": 83,
        "1412": 99,
        "1413": 230,
        "1414": 215,
        "1415": 238,
        "1416": 45,
        "1417": 101,
        "1418": 73,
        "1419": 253,
        "1420": 25,
        "1421": 186,
        "1422": 114,
        "1423": 90,
        "1424": 29,
        "1425": 15,
        "1426": 171,
        "1427": 157,
        "1428": 186,
        "1429": 172,
        "1430": 0,
        "1431": 23,
        "1432": 28,
        "1433": 118,
        "1434": 238,
        "1435": 250,
        "1436": 67,
        "1437": 251,
        "1438": 72,
        "1439": 226,
        "1440": 96,
        "1441": 183,
        "1442": 204,
        "1443": 84,
        "1444": 53,
        "1445": 84,
        "1446": 182,
        "1447": 8,
        "1448": 79,
        "1449": 164,
        "1450": 53,
        "1451": 107,
        "1452": 154,
        "1453": 20,
        "1454": 147,
        "1455": 127,
        "1456": 79,
        "1457": 114,
        "1458": 103,
        "1459": 135,
        "1460": 213,
        "1461": 200,
        "1462": 134,
        "1463": 66,
        "1464": 88,
        "1465": 20,
        "1466": 184,
        "1467": 255,
        "1468": 22,
        "1469": 93,
        "1470": 132,
        "1471": 83,
        "1472": 161,
        "1473": 215,
        "1474": 59,
        "1475": 144,
        "1476": 48,
        "1477": 24,
        "1478": 70,
        "1479": 21,
        "1480": 222,
        "1481": 65,
        "1482": 51,
        "1483": 231,
        "1484": 253,
        "1485": 85,
        "1486": 189,
        "1487": 233,
        "1488": 181,
        "1489": 157,
        "1490": 195,
        "1491": 198,
        "1492": 96,
        "1493": 47,
        "1494": 144,
        "1495": 28,
        "1496": 100,
        "1497": 232,
        "1498": 144,
        "1499": 132,
        "1500": 213,
        "1501": 114,
        "1502": 131,
        "1503": 7,
        "1504": 67,
        "1505": 225,
        "1506": 110,
        "1507": 21,
        "1508": 81,
        "1509": 39,
        "1510": 231,
        "1511": 140,
        "1512": 28,
        "1513": 160,
        "1514": 128,
        "1515": 214,
        "1516": 136,
        "1517": 20,
        "1518": 166,
        "1519": 143,
        "1520": 57,
        "1521": 213,
        "1522": 124,
        "1523": 122,
        "1524": 164,
        "1525": 255,
        "1526": 242,
        "1527": 76,
        "1528": 135,
        "1529": 87,
        "1530": 48,
        "1531": 138,
        "1532": 180,
        "1533": 35,
        "1534": 106,
        "1535": 161,
        "1536": 161,
        "1537": 1,
        "1538": 216,
        "1539": 238,
        "1540": 151,
        "1541": 121,
        "1542": 26,
        "1543": 250,
        "1544": 142,
        "1545": 139,
        "1546": 126,
        "1547": 219,
        "1548": 203,
        "1549": 85,
        "1550": 185,
        "1551": 110,
        "1552": 37,
        "1553": 206,
        "1554": 205,
        "1555": 110,
        "1556": 16,
        "1557": 18,
        "1558": 71,
        "1559": 131,
        "1560": 148,
        "1561": 115,
        "1562": 114,
        "1563": 36,
        "1564": 209,
        "1565": 51,
        "1566": 36,
        "1567": 123,
        "1568": 73,
        "1569": 216,
        "1570": 61,
        "1571": 15,
        "1572": 215,
        "1573": 167,
        "1574": 100,
        "1575": 123,
        "1576": 150,
        "1577": 141,
        "1578": 129,
        "1579": 223,
        "1580": 168,
        "1581": 16,
        "1582": 164,
        "1583": 23,
        "1584": 234,
        "1585": 114,
        "1586": 157,
        "1587": 143,
        "1588": 83,
        "1589": 133,
        "1590": 219,
        "1591": 207,
        "1592": 149,
        "1593": 105,
        "1594": 77,
        "1595": 251,
        "1596": 60,
        "1597": 55,
        "1598": 18,
        "1599": 243,
        "1600": 232,
        "1601": 139,
        "1602": 199,
        "1603": 110,
        "1604": 48,
        "1605": 220,
        "1606": 29,
        "1607": 137,
        "1608": 154,
        "1609": 130,
        "1610": 124,
        "1611": 220,
        "1612": 199,
        "1613": 103,
        "1614": 69,
        "1615": 80,
        "1616": 249,
        "1617": 250,
        "1618": 152,
        "1619": 114,
        "1620": 137,
        "1621": 141,
        "1622": 220,
        "1623": 159,
        "1624": 113,
        "1625": 164,
        "1626": 10,
        "1627": 86,
        "1628": 141,
        "1629": 203,
        "1630": 175,
        "1631": 143,
        "1632": 88,
        "1633": 1,
        "1634": 184,
        "1635": 97,
        "1636": 195,
        "1637": 162,
        "1638": 159,
        "1639": 98,
        "1640": 162,
        "1641": 123,
        "1642": 243,
        "1643": 56,
        "1644": 51,
        "1645": 55,
        "1646": 144,
        "1647": 162,
        "1648": 63,
        "1649": 153,
        "1650": 101,
        "1651": 80,
        "1652": 76,
        "1653": 221,
        "1654": 28,
        "1655": 76,
        "1656": 247,
        "1657": 4,
        "1658": 222,
        "1659": 197,
        "1660": 17,
        "1661": 40,
        "1662": 86,
        "1663": 168,
        "1664": 218,
        "1665": 104,
        "1666": 0,
        "1667": 212,
        "1668": 87,
        "1669": 171,
        "1670": 230,
        "1671": 8,
        "1672": 186,
        "1673": 144,
        "1674": 145,
        "1675": 146,
        "1676": 243,
        "1677": 227,
        "1678": 117,
        "1679": 253,
        "1680": 192,
        "1681": 161,
        "1682": 25,
        "1683": 254,
        "1684": 212,
        "1685": 138,
        "1686": 168,
        "1687": 49,
        "1688": 160,
        "1689": 235,
        "1690": 198,
        "1691": 227,
        "1692": 104,
        "1693": 215,
        "1694": 210,
        "1695": 102,
        "1696": 150,
        "1697": 38,
        "1698": 146,
        "1699": 68,
        "1700": 16,
        "1701": 67,
        "1702": 231,
        "1703": 86,
        "1704": 48,
        "1705": 222,
        "1706": 121,
        "1707": 205,
        "1708": 98,
        "1709": 123,
        "1710": 213,
        "1711": 32,
        "1712": 151,
        "1713": 223,
        "1714": 0,
        "1715": 163,
        "1716": 156,
        "1717": 234,
        "1718": 159,
        "1719": 224,
        "1720": 195,
        "1721": 197,
        "1722": 97,
        "1723": 182,
        "1724": 190,
        "1725": 75,
        "1726": 60,
        "1727": 223,
        "1728": 188,
        "1729": 137,
        "1730": 143,
        "1731": 216,
        "1732": 130,
        "1733": 196,
        "1734": 151,
        "1735": 42,
        "1736": 2,
        "1737": 199,
        "1738": 4,
        "1739": 158,
        "1740": 0,
        "1741": 58,
        "1742": 68,
        "1743": 192,
        "1744": 230,
        "1745": 118,
        "1746": 220,
        "1747": 147,
        "1748": 238,
        "1749": 167,
        "1750": 127,
        "1751": 30,
        "1752": 146,
        "1753": 72,
        "1754": 125,
        "1755": 122,
        "1756": 198,
        "1757": 140,
        "1758": 237,
        "1759": 40,
        "1760": 48,
        "1761": 101,
        "1762": 48,
        "1763": 104,
        "1764": 5,
        "1765": 234,
        "1766": 226,
        "1767": 68,
        "1768": 66,
        "1769": 190,
        "1770": 64,
        "1771": 213,
        "1772": 107,
        "1773": 161,
        "1774": 182,
        "1775": 103,
        "1776": 50,
        "1777": 98,
        "1778": 122,
        "1779": 119,
        "1780": 209,
        "1781": 192,
        "1782": 91,
        "1783": 87,
        "1784": 71,
        "1785": 254,
        "1786": 128,
        "1787": 157,
        "1788": 135,
        "1789": 180,
        "1790": 193,
        "1791": 199,
        "1792": 226,
        "1793": 192,
        "1794": 37,
        "1795": 136,
        "1796": 137,
        "1797": 118,
        "1798": 160,
        "1799": 248,
        "1800": 11,
        "1801": 152,
        "1802": 204,
        "1803": 38,
        "1804": 245,
        "1805": 89,
        "1806": 157,
        "1807": 102,
        "1808": 110,
        "1809": 177,
        "1810": 183,
        "1811": 100,
        "1812": 71,
        "1813": 20,
        "1814": 182,
        "1815": 49,
        "1816": 1,
        "1817": 144,
        "1818": 202,
        "1819": 238,
        "1820": 179,
        "1821": 151,
        "1822": 120,
        "1823": 20,
        "1824": 85,
        "1825": 195,
        "1826": 112,
        "1827": 148,
        "1828": 170,
        "1829": 134,
        "1830": 89,
        "1831": 219,
        "1832": 125,
        "1833": 69,
        "1834": 159,
        "1835": 201,
        "1836": 50,
        "1837": 177,
        "1838": 245,
        "1839": 77,
        "1840": 192,
        "1841": 239,
        "1842": 204,
        "1843": 94,
        "1844": 25,
        "1845": 16,
        "1846": 3,
        "1847": 54,
        "1848": 159,
        "1849": 165,
        "1850": 49,
        "1851": 9,
        "1852": 100,
        "1853": 30,
        "1854": 74,
        "1855": 221,
        "1856": 14,
        "1857": 186,
        "1858": 241,
        "1859": 79,
        "1860": 121,
        "1861": 230,
        "1862": 95,
        "1863": 163,
        "1864": 239,
        "1865": 2,
        "1866": 117,
        "1867": 28,
        "1868": 76,
        "1869": 253,
        "1870": 193,
        "1871": 82,
        "1872": 105,
        "1873": 16,
        "1874": 49,
        "1875": 251,
        "1876": 97,
        "1877": 91,
        "1878": 77,
        "1879": 176,
        "1880": 230,
        "1881": 195,
        "1882": 134,
        "1883": 109,
        "1884": 228,
        "1885": 127,
        "1886": 157,
        "1887": 21,
        "1888": 214,
        "1889": 133,
        "1890": 29,
        "1891": 54,
        "1892": 120,
        "1893": 214,
        "1894": 84,
        "1895": 188,
        "1896": 218,
        "1897": 96,
        "1898": 182,
        "1899": 180,
        "1900": 179,
        "1901": 237,
        "1902": 116,
        "1903": 188,
        "1904": 27,
        "1905": 137,
        "1906": 138,
        "1907": 141,
        "1908": 78,
        "1909": 233,
        "1910": 98,
        "1911": 153,
        "1912": 0,
        "1913": 33,
        "1914": 127,
        "1915": 164,
        "1916": 11,
        "1917": 159,
        "1918": 193,
        "1919": 134,
        "1920": 113,
        "1921": 99,
        "1922": 244,
        "1923": 55,
        "1924": 100,
        "1925": 5,
        "1926": 14,
        "1927": 212,
        "1928": 141,
        "1929": 105,
        "1930": 104,
        "1931": 70,
        "1932": 186,
        "1933": 49,
        "1934": 158,
        "1935": 244,
        "1936": 165,
        "1937": 144,
        "1938": 71,
        "1939": 158,
        "1940": 101,
        "1941": 26,
        "1942": 15,
        "1943": 16,
        "1944": 61,
        "1945": 133,
        "1946": 171,
        "1947": 9,
        "1948": 248,
        "1949": 59,
        "1950": 43,
        "1951": 210,
        "1952": 141,
        "1953": 78,
        "1954": 212,
        "1955": 25,
        "1956": 224,
        "1957": 94,
        "1958": 151,
        "1959": 120,
        "1960": 121,
        "1961": 34,
        "1962": 191,
        "1963": 142,
        "1964": 206,
        "1965": 186,
        "1966": 174,
        "1967": 255,
        "1968": 247,
        "1969": 20,
        "1970": 36,
        "1971": 255,
        "1972": 42,
        "1973": 140,
        "1974": 180,
        "1975": 123,
        "1976": 166,
        "1977": 155,
        "1978": 31,
        "1979": 191,
        "1980": 238,
        "1981": 152,
        "1982": 230,
        "1983": 87,
        "1984": 187,
        "1985": 114,
        "1986": 68,
        "1987": 28,
        "1988": 43,
        "1989": 111,
        "1990": 19,
        "1991": 166,
        "1992": 6,
        "1993": 56,
        "1994": 213,
        "1995": 112,
        "1996": 221,
        "1997": 75,
        "1998": 141,
        "1999": 123,
        "2000": 34,
        "2001": 160,
        "2002": 132,
        "2003": 155,
        "2004": 164,
        "2005": 152,
        "2006": 168,
        "2007": 197,
        "2008": 58,
        "2009": 20,
        "2010": 176,
        "2011": 217,
        "2012": 96,
        "2013": 49,
        "2014": 184,
        "2015": 158,
        "2016": 19,
        "2017": 142,
        "2018": 70,
        "2019": 73,
        "2020": 215,
        "2021": 165,
        "2022": 22,
        "2023": 109,
        "2024": 112,
        "2025": 85,
        "2026": 231,
        "2027": 122,
        "2028": 128,
        "2029": 123,
        "2030": 191,
        "2031": 246,
        "2032": 210,
        "2033": 113,
        "2034": 68,
        "2035": 1,
        "2036": 225,
        "2037": 151,
        "2038": 51,
        "2039": 238,
        "2040": 156,
        "2041": 145,
        "2042": 85,
        "2043": 244,
        "2044": 154,
        "2045": 232,
        "2046": 147,
        "2047": 179,
        "2048": 110,
        "2049": 166,
        "2050": 104,
        "2051": 166,
        "2052": 45,
        "2053": 69,
        "2054": 224,
        "2055": 219,
        "2056": 231,
        "2057": 44,
        "2058": 11,
        "2059": 117,
        "2060": 243,
        "2061": 77,
        "2062": 149,
        "2063": 159,
        "2064": 254,
        "2065": 2,
        "2066": 247,
        "2067": 203,
        "2068": 6,
        "2069": 122,
        "2070": 216,
        "2071": 126,
        "2072": 48,
        "2073": 25,
        "2074": 249,
        "2075": 79,
        "2076": 237,
        "2077": 128,
        "2078": 36,
        "2079": 105,
        "2080": 189,
        "2081": 225,
        "2082": 69,
        "2083": 21,
        "2084": 90,
        "2085": 63,
        "2086": 91,
        "2087": 42,
        "2088": 53,
        "2089": 12,
        "2090": 210,
        "2091": 202,
        "2092": 136,
        "2093": 113,
        "2094": 181,
        "2095": 132,
        "2096": 0,
        "2097": 29,
        "2098": 206,
        "2099": 129,
        "2100": 233,
        "2101": 76,
        "2102": 183,
        "2103": 100,
        "2104": 85,
        "2105": 53,
        "2106": 204,
        "2107": 203,
        "2108": 177,
        "2109": 196,
        "2110": 154,
        "2111": 147,
        "2112": 186,
        "2113": 2,
        "2114": 151,
        "2115": 10,
        "2116": 140,
        "2117": 41,
        "2118": 170,
        "2119": 9,
        "2120": 24,
        "2121": 178,
        "2122": 214,
        "2123": 71,
        "2124": 74,
        "2125": 57,
        "2126": 87,
        "2127": 42,
        "2128": 245,
        "2129": 252,
        "2130": 166,
        "2131": 96,
        "2132": 245,
        "2133": 109,
        "2134": 94,
        "2135": 68,
        "2136": 206,
        "2137": 176,
        "2138": 101,
        "2139": 158,
        "2140": 56,
        "2141": 235,
        "2142": 165,
        "2143": 125,
        "2144": 206,
        "2145": 25,
        "2146": 255,
        "2147": 12,
        "2148": 58,
        "2149": 39,
        "2150": 53,
        "2151": 87,
        "2152": 145,
        "2153": 197,
        "2154": 34,
        "2155": 162,
        "2156": 212,
        "2157": 85,
        "2158": 4,
        "2159": 247,
        "2160": 35,
        "2161": 246,
        "2162": 234,
        "2163": 55,
        "2164": 56,
        "2165": 141,
        "2166": 20,
        "2167": 16,
        "2168": 218,
        "2169": 87,
        "2170": 58,
        "2171": 111,
        "2172": 38,
        "2173": 255,
        "2174": 39,
        "2175": 168,
        "2176": 204,
        "2177": 233,
        "2178": 6,
        "2179": 245,
        "2180": 183,
        "2181": 216,
        "2182": 65,
        "2183": 100,
        "2184": 158,
        "2185": 23,
        "2186": 33,
        "2187": 89,
        "2188": 133,
        "2189": 16,
        "2190": 55,
        "2191": 160,
        "2192": 101,
        "2193": 103,
        "2194": 59,
        "2195": 221,
        "2196": 141,
        "2197": 88,
        "2198": 217,
        "2199": 156,
        "2200": 16,
        "2201": 114,
        "2202": 183,
        "2203": 76,
        "2204": 134,
        "2205": 78,
        "2206": 134,
        "2207": 96,
        "2208": 155,
        "2209": 49,
        "2210": 131,
        "2211": 84,
        "2212": 105,
        "2213": 217,
        "2214": 178,
        "2215": 132,
        "2216": 54,
        "2217": 171,
        "2218": 127,
        "2219": 42,
        "2220": 128,
        "2221": 174,
        "2222": 35,
        "2223": 97,
        "2224": 67,
        "2225": 177,
        "2226": 182,
        "2227": 228,
        "2228": 228,
        "2229": 209,
        "2230": 193,
        "2231": 36,
        "2232": 134,
        "2233": 86,
        "2234": 32,
        "2235": 189,
        "2236": 94,
        "2237": 22,
        "2238": 185,
        "2239": 87,
        "2240": 214,
        "2241": 152,
        "2242": 167,
        "2243": 19,
        "2244": 40,
        "2245": 222,
        "2246": 192,
        "2247": 36,
        "2248": 91,
        "2249": 58,
        "2250": 95,
        "2251": 118,
        "2252": 24,
        "2253": 116,
        "2254": 144,
        "2255": 98,
        "2256": 35,
        "2257": 24,
        "2258": 73,
        "2259": 35,
        "2260": 68,
        "2261": 179,
        "2262": 171,
        "2263": 89,
        "2264": 166,
        "2265": 64,
        "2266": 180,
        "2267": 148,
        "2268": 181,
        "2269": 255,
        "2270": 151,
        "2271": 145,
        "2272": 216,
        "2273": 71,
        "2274": 66,
        "2275": 76,
        "2276": 1,
        "2277": 71,
        "2278": 56,
        "2279": 157,
        "2280": 248,
        "2281": 41,
        "2282": 88,
        "2283": 75,
        "2284": 160,
        "2285": 40,
        "2286": 212,
        "2287": 158,
        "2288": 143,
        "2289": 121,
        "2290": 136,
        "2291": 131,
        "2292": 100,
        "2293": 12,
        "2294": 215,
        "2295": 245,
        "2296": 195,
        "2297": 131,
        "2298": 149,
        "2299": 243,
        "2300": 204,
        "2301": 149,
        "2302": 216,
        "2303": 46,
        "2304": 132,
        "2305": 97,
        "2306": 120,
        "2307": 69,
        "2308": 191,
        "2309": 232,
        "2310": 75,
        "2311": 169,
        "2312": 65,
        "2313": 5,
        "2314": 194,
        "2315": 155,
        "2316": 76,
        "2317": 181,
        "2318": 129,
        "2319": 83,
        "2320": 50,
        "2321": 24,
        "2322": 29,
        "2323": 125,
        "2324": 123,
        "2325": 221,
        "2326": 137,
        "2327": 101,
        "2328": 121,
        "2329": 139,
        "2330": 119,
        "2331": 103,
        "2332": 98,
        "2333": 16,
        "2334": 220,
        "2335": 252,
        "2336": 245,
        "2337": 221,
        "2338": 59,
        "2339": 2,
        "2340": 250,
        "2341": 84,
        "2342": 154,
        "2343": 83,
        "2344": 198,
        "2345": 185,
        "2346": 153,
        "2347": 222,
        "2348": 170,
        "2349": 247,
        "2350": 103,
        "2351": 103,
        "2352": 117,
        "2353": 132,
        "2354": 7,
        "2355": 124,
        "2356": 94,
        "2357": 161,
        "2358": 193,
        "2359": 97,
        "2360": 129,
        "2361": 28,
        "2362": 214,
        "2363": 119,
        "2364": 169,
        "2365": 246,
        "2366": 16,
        "2367": 232,
        "2368": 180,
        "2369": 15,
        "2370": 8,
        "2371": 4,
        "2372": 254,
        "2373": 17,
        "2374": 55,
        "2375": 138,
        "2376": 27,
        "2377": 223,
        "2378": 251,
        "2379": 44,
        "2380": 213,
        "2381": 128,
        "2382": 92,
        "2383": 158,
        "2384": 246,
        "2385": 29,
        "2386": 195,
        "2387": 149,
        "2388": 44,
        "2389": 16,
        "2390": 89,
        "2391": 248,
        "2392": 230,
        "2393": 103,
        "2394": 34,
        "2395": 89,
        "2396": 247,
        "2397": 39,
        "2398": 109,
        "2399": 169,
        "2400": 176,
        "2401": 211,
        "2402": 207,
        "2403": 91,
        "2404": 123,
        "2405": 141,
        "2406": 126,
        "2407": 226,
        "2408": 190,
        "2409": 160,
        "2410": 151,
        "2411": 165,
        "2412": 216,
        "2413": 140,
        "2414": 96,
        "2415": 113,
        "2416": 140,
        "2417": 6,
        "2418": 101,
        "2419": 244,
        "2420": 53,
        "2421": 237,
        "2422": 220,
        "2423": 245,
        "2424": 102,
        "2425": 74,
        "2426": 96,
        "2427": 203,
        "2428": 221,
        "2429": 197,
        "2430": 192,
        "2431": 52,
        "2432": 222,
        "2433": 27,
        "2434": 22,
        "2435": 26,
        "2436": 25,
        "2437": 14,
        "2438": 109,
        "2439": 169,
        "2440": 9,
        "2441": 134,
        "2442": 199,
        "2443": 203,
        "2444": 63,
        "2445": 225,
        "2446": 142,
        "2447": 188,
        "2448": 104,
        "2449": 70,
        "2450": 54,
        "2451": 106,
        "2452": 12,
        "2453": 82,
        "2454": 248,
        "2455": 74,
        "2456": 12,
        "2457": 45,
        "2458": 25,
        "2459": 182,
        "2460": 243,
        "2461": 58,
        "2462": 125,
        "2463": 224,
        "2464": 230,
        "2465": 109,
        "2466": 147,
        "2467": 52,
        "2468": 93,
        "2469": 157,
        "2470": 1,
        "2471": 220,
        "2472": 108,
        "2473": 98,
        "2474": 32,
        "2475": 52,
        "2476": 43,
        "2477": 234,
        "2478": 228,
        "2479": 126,
        "2480": 217,
        "2481": 57,
        "2482": 196,
        "2483": 63,
        "2484": 115,
        "2485": 152,
        "2486": 137,
        "2487": 197,
        "2488": 2,
        "2489": 157,
        "2490": 99,
        "2491": 116,
        "2492": 178,
        "2493": 174,
        "2494": 13,
        "2495": 85,
        "2496": 41,
        "2497": 134,
        "2498": 17,
        "2499": 255,
        "2500": 165,
        "2501": 91,
        "2502": 56,
        "2503": 163,
        "2504": 92,
        "2505": 13,
        "2506": 96,
        "2507": 203,
        "2508": 188,
        "2509": 221,
        "2510": 181,
        "2511": 122,
        "2512": 251,
        "2513": 70,
        "2514": 162,
        "2515": 116,
        "2516": 216,
        "2517": 42,
        "2518": 93,
        "2519": 32,
        "2520": 248,
        "2521": 22,
        "2522": 15,
        "2523": 120,
        "2524": 163,
        "2525": 172,
        "2526": 168,
        "2527": 53,
        "2528": 82,
        "2529": 49,
        "2530": 15,
        "2531": 200,
        "2532": 119,
        "2533": 224,
        "2534": 224,
        "2535": 61,
        "2536": 74,
        "2537": 224,
        "2538": 146,
        "2539": 204,
        "2540": 210,
        "2541": 223,
        "2542": 41,
        "2543": 99,
        "2544": 205,
        "2545": 155,
        "2546": 210,
        "2547": 116,
        "2548": 227,
        "2549": 54,
        "2550": 12,
        "2551": 65,
        "2552": 6,
        "2553": 19,
        "2554": 216,
        "2555": 154,
        "2556": 205,
        "2557": 148,
        "2558": 146,
        "2559": 196,
        "2560": 101,
        "2561": 78,
        "2562": 35,
        "2563": 26,
        "2564": 118,
        "2565": 98,
        "2566": 90,
        "2567": 39,
        "2568": 105,
        "2569": 159,
        "2570": 102,
        "2571": 124,
        "2572": 115,
        "2573": 224,
        "2574": 245,
        "2575": 77,
        "2576": 10,
        "2577": 92,
        "2578": 184,
        "2579": 145,
        "2580": 19,
        "2581": 159,
        "2582": 136,
        "2583": 132,
        "2584": 254,
        "2585": 127,
        "2586": 254,
        "2587": 118,
        "2588": 210,
        "2589": 59,
        "2590": 80,
        "2591": 55,
        "2592": 178,
        "2593": 27,
        "2594": 62,
        "2595": 247,
        "2596": 233,
        "2597": 55,
        "2598": 117,
        "2599": 110,
        "2600": 249,
        "2601": 106,
        "2602": 217,
        "2603": 53,
        "2604": 226,
        "2605": 138,
        "2606": 243,
        "2607": 147,
        "2608": 249,
        "2609": 147,
        "2610": 172,
        "2611": 1,
        "2612": 133,
        "2613": 231,
        "2614": 139,
        "2615": 199,
        "2616": 155,
        "2617": 207,
        "2618": 210,
        "2619": 68,
        "2620": 26,
        "2621": 201,
        "2622": 50,
        "2623": 198,
        "2624": 204,
        "2625": 183,
        "2626": 105,
        "2627": 22,
        "2628": 255,
        "2629": 150,
        "2630": 105,
        "2631": 159,
        "2632": 154,
        "2633": 52,
        "2634": 65,
        "2635": 194,
        "2636": 248,
        "2637": 151,
        "2638": 12,
        "2639": 29,
        "2640": 232,
        "2641": 246,
        "2642": 96,
        "2643": 243,
        "2644": 252,
        "2645": 236,
        "2646": 218,
        "2647": 248,
        "2648": 177,
        "2649": 172,
        "2650": 29,
        "2651": 244,
        "2652": 29,
        "2653": 210,
        "2654": 177,
        "2655": 156,
        "2656": 58,
        "2657": 153,
        "2658": 180,
        "2659": 248,
        "2660": 73,
        "2661": 89,
        "2662": 235,
        "2663": 234,
        "2664": 121,
        "2665": 231,
        "2666": 198,
        "2667": 117,
        "2668": 96,
        "2669": 91,
        "2670": 93,
        "2671": 98,
        "2672": 249,
        "2673": 116,
        "2674": 11,
        "2675": 31,
        "2676": 99,
        "2677": 45,
        "2678": 184,
        "2679": 81,
        "2680": 109,
        "2681": 140,
        "2682": 250,
        "2683": 220,
        "2684": 10,
        "2685": 50,
        "2686": 52,
        "2687": 80,
        "2688": 220,
        "2689": 126,
        "2690": 34,
        "2691": 68,
        "2692": 204,
        "2693": 71,
        "2694": 229,
        "2695": 91,
        "2696": 35,
        "2697": 56,
        "2698": 85,
        "2699": 138,
        "2700": 230,
        "2701": 86,
        "2702": 57,
        "2703": 82,
        "2704": 157,
        "2705": 80,
        "2706": 15,
        "2707": 245,
        "2708": 115,
        "2709": 62,
        "2710": 68,
        "2711": 107,
        "2712": 131,
        "2713": 147,
        "2714": 117,
        "2715": 133,
        "2716": 92,
        "2717": 250,
        "2718": 160,
        "2719": 85,
        "2720": 103,
        "2721": 9,
        "2722": 96,
        "2723": 17,
        "2724": 135,
        "2725": 128,
        "2726": 135,
        "2727": 25,
        "2728": 239,
        "2729": 125,
        "2730": 88,
        "2731": 151,
        "2732": 199,
        "2733": 97,
        "2734": 19,
        "2735": 47,
        "2736": 68,
        "2737": 204,
        "2738": 167,
        "2739": 192,
        "2740": 164,
        "2741": 86,
        "2742": 117,
        "2743": 176,
        "2744": 116,
        "2745": 205,
        "2746": 171,
        "2747": 243,
        "2748": 252,
        "2749": 142,
        "2750": 108,
        "2751": 75,
        "2752": 97,
        "2753": 96,
        "2754": 53,
        "2755": 171,
        "2756": 242,
        "2757": 112,
        "2758": 183,
        "2759": 232,
        "2760": 198,
        "2761": 81,
        "2762": 66,
        "2763": 243,
        "2764": 30,
        "2765": 233,
        "2766": 171,
        "2767": 161,
        "2768": 127,
        "2769": 50,
        "2770": 52,
        "2771": 25,
        "2772": 172,
        "2773": 32,
        "2774": 46,
        "2775": 234,
        "2776": 23,
        "2777": 28,
        "2778": 72,
        "2779": 248,
        "2780": 95,
        "2781": 145,
        "2782": 110,
        "2783": 103,
        "2784": 147,
        "2785": 161,
        "2786": 54,
        "2787": 59,
        "2788": 20,
        "2789": 17,
        "2790": 144,
        "2791": 181,
        "2792": 141,
        "2793": 18,
        "2794": 165,
        "2795": 196,
        "2796": 125,
        "2797": 214,
        "2798": 151,
        "2799": 6,
        "2800": 35,
        "2801": 164,
        "2802": 235,
        "2803": 199,
        "2804": 127,
        "2805": 31,
        "2806": 35,
        "2807": 160,
        "2808": 24,
        "2809": 217,
        "2810": 124,
        "2811": 25,
        "2812": 100,
        "2813": 207,
        "2814": 228,
        "2815": 244,
        "2816": 237,
        "2817": 234,
        "2818": 35,
        "2819": 111,
        "2820": 48,
        "2821": 25,
        "2822": 118,
        "2823": 169,
        "2824": 119,
        "2825": 81,
        "2826": 171,
        "2827": 36,
        "2828": 65,
        "2829": 175,
        "2830": 61,
        "2831": 211,
        "2832": 13,
        "2833": 252,
        "2834": 43,
        "2835": 211,
        "2836": 59,
        "2837": 175,
        "2838": 90,
        "2839": 239,
        "2840": 126,
        "2841": 224,
        "2842": 79,
        "2843": 140,
        "2844": 182,
        "2845": 5,
        "2846": 130,
        "2847": 58,
        "2848": 224,
        "2849": 107,
        "2850": 125,
        "2851": 220,
        "2852": 145,
        "2853": 113,
        "2854": 98,
        "2855": 210,
        "2856": 215,
        "2857": 197,
        "2858": 40,
        "2859": 222,
        "2860": 184,
        "2861": 222,
        "2862": 125,
        "2863": 131,
        "2864": 168,
        "2865": 43,
        "2866": 123,
        "2867": 76,
        "2868": 63,
        "2869": 154,
        "2870": 55,
        "2871": 74,
        "2872": 62,
        "2873": 189,
        "2874": 161,
        "2875": 136,
        "2876": 68,
        "2877": 142,
        "2878": 164,
        "2879": 246,
        "2880": 166,
        "2881": 112,
        "2882": 197,
        "2883": 104,
        "2884": 123,
        "2885": 151,
        "2886": 138,
        "2887": 77,
        "2888": 125,
        "2889": 69,
        "2890": 34,
        "2891": 135,
        "2892": 230,
        "2893": 43,
        "2894": 172,
        "2895": 113,
        "2896": 17,
        "2897": 106,
        "2898": 157,
        "2899": 106,
        "2900": 7,
        "2901": 68,
        "2902": 69,
        "2903": 15,
        "2904": 255,
        "2905": 123,
        "2906": 117,
        "2907": 136,
        "2908": 204,
        "2909": 197,
        "2910": 164,
        "2911": 101,
        "2912": 85,
        "2913": 182,
        "2914": 200,
        "2915": 223,
        "2916": 127,
        "2917": 179,
        "2918": 225,
        "2919": 6,
        "2920": 163,
        "2921": 167,
        "2922": 183,
        "2923": 209,
        "2924": 151,
        "2925": 127,
        "2926": 193,
        "2927": 223,
        "2928": 168,
        "2929": 212,
        "2930": 11,
        "2931": 44,
        "2932": 46,
        "2933": 103,
        "2934": 157,
        "2935": 129,
        "2936": 171,
        "2937": 13,
        "2938": 195,
        "2939": 161,
        "2940": 82,
        "2941": 48,
        "2942": 136,
        "2943": 117,
        "2944": 77,
        "2945": 198,
        "2946": 86,
        "2947": 240,
        "2948": 211,
        "2949": 136,
        "2950": 44,
        "2951": 135,
        "2952": 110,
        "2953": 25,
        "2954": 51,
        "2955": 81,
        "2956": 4,
        "2957": 190,
        "2958": 227,
        "2959": 246,
        "2960": 253,
        "2961": 107,
        "2962": 156,
        "2963": 201,
        "2964": 241,
        "2965": 230,
        "2966": 197,
        "2967": 209,
        "2968": 60,
        "2969": 29,
        "2970": 109,
        "2971": 79,
        "2972": 69,
        "2973": 169,
        "2974": 68,
        "2975": 10,
        "2976": 249,
        "2977": 93,
        "2978": 45,
        "2979": 5,
        "2980": 112,
        "2981": 185,
        "2982": 217,
        "2983": 86,
        "2984": 243,
        "2985": 105,
        "2986": 218,
        "2987": 167,
        "2988": 126,
        "2989": 70,
        "2990": 111,
        "2991": 196,
        "2992": 16,
        "2993": 17,
        "2994": 93,
        "2995": 32,
        "2996": 203,
        "2997": 216,
        "2998": 73,
        "2999": 51,
        "3000": 129,
        "3001": 195,
        "3002": 134,
        "3003": 227,
        "3004": 57,
        "3005": 64,
        "3006": 227,
        "3007": 118,
        "3008": 172,
        "3009": 78,
        "3010": 196,
        "3011": 55,
        "3012": 205,
        "3013": 205,
        "3014": 107,
        "3015": 78,
        "3016": 103,
        "3017": 36,
        "3018": 135,
        "3019": 217,
        "3020": 100,
        "3021": 125,
        "3022": 177,
        "3023": 11,
        "3024": 161,
        "3025": 247,
        "3026": 109,
        "3027": 130,
        "3028": 214,
        "3029": 211,
        "3030": 122,
        "3031": 29,
        "3032": 8,
        "3033": 229,
        "3034": 18,
        "3035": 211,
        "3036": 50,
        "3037": 43,
        "3038": 234,
        "3039": 121,
        "3040": 183,
        "3041": 57,
        "3042": 199,
        "3043": 233,
        "3044": 101,
        "3045": 90,
        "3046": 253,
        "3047": 204,
        "3048": 52,
        "3049": 91,
        "3050": 197,
        "3051": 79,
        "3052": 225,
        "3053": 228,
        "3054": 243,
        "3055": 227,
        "3056": 213,
        "3057": 154,
        "3058": 169,
        "3059": 181,
        "3060": 235,
        "3061": 233,
        "3062": 224,
        "3063": 218,
        "3064": 81,
        "3065": 114,
        "3066": 66,
        "3067": 29,
        "3068": 35,
        "3069": 49,
        "3070": 24,
        "3071": 79,
        "3072": 178,
        "3073": 243,
        "3074": 185,
        "3075": 242,
        "3076": 50,
        "3077": 219,
        "3078": 133,
        "3079": 22,
        "3080": 56,
        "3081": 174,
        "3082": 77,
        "3083": 79,
        "3084": 227,
        "3085": 180,
        "3086": 80,
        "3087": 108,
        "3088": 5,
        "3089": 200,
        "3090": 164,
        "3091": 131,
        "3092": 242,
        "3093": 189,
        "3094": 192,
        "3095": 235,
        "3096": 226,
        "3097": 119,
        "3098": 191,
        "3099": 54,
        "3100": 195,
        "3101": 83,
        "3102": 78,
        "3103": 170,
        "3104": 104,
        "3105": 155,
        "3106": 46,
        "3107": 249,
        "3108": 11,
        "3109": 192,
        "3110": 142,
        "3111": 216,
        "3112": 56,
        "3113": 254,
        "3114": 26,
        "3115": 93,
        "3116": 65,
        "3117": 65,
        "3118": 62,
        "3119": 25,
        "3120": 128,
        "3121": 235,
        "3122": 65,
        "3123": 117,
        "3124": 164,
        "3125": 201,
        "3126": 239,
        "3127": 46,
        "3128": 101,
        "3129": 180,
        "3130": 106,
        "3131": 61,
        "3132": 235,
        "3133": 19,
        "3134": 141,
        "3135": 42,
        "3136": 154,
        "3137": 102,
        "3138": 86,
        "3139": 50,
        "3140": 158,
        "3141": 25,
        "3142": 59,
        "3143": 189,
        "3144": 48,
        "3145": 30,
        "3146": 222,
        "3147": 111,
        "3148": 179,
        "3149": 34,
        "3150": 209,
        "3151": 119,
        "3152": 149,
        "3153": 32,
        "3154": 42,
        "3155": 67,
        "3156": 110,
        "3157": 179,
        "3158": 108,
        "3159": 201,
        "3160": 211,
        "3161": 76,
        "3162": 77,
        "3163": 129,
        "3164": 214,
        "3165": 58,
        "3166": 144,
        "3167": 87,
        "3168": 252,
        "3169": 23,
        "3170": 57,
        "3171": 182,
        "3172": 96,
        "3173": 33,
        "3174": 139,
        "3175": 47,
        "3176": 201,
        "3177": 211,
        "3178": 104,
        "3179": 248,
        "3180": 16,
        "3181": 68,
        "3182": 107,
        "3183": 9,
        "3184": 68,
        "3185": 22,
        "3186": 114,
        "3187": 132,
        "3188": 83,
        "3189": 137,
        "3190": 107,
        "3191": 116,
        "3192": 152,
        "3193": 227,
        "3194": 151,
        "3195": 222,
        "3196": 43,
        "3197": 194,
        "3198": 243,
        "3199": 86,
        "3200": 150,
        "3201": 96,
        "3202": 176,
        "3203": 226,
        "3204": 43,
        "3205": 161,
        "3206": 99,
        "3207": 50,
        "3208": 154,
        "3209": 58,
        "3210": 157,
        "3211": 32,
        "3212": 199,
        "3213": 226,
        "3214": 212,
        "3215": 118,
        "3216": 175,
        "3217": 53,
        "3218": 90,
        "3219": 93,
        "3220": 132,
        "3221": 213,
        "3222": 148,
        "3223": 57,
        "3224": 223,
        "3225": 188,
        "3226": 177,
        "3227": 117,
        "3228": 68,
        "3229": 214,
        "3230": 157,
        "3231": 249,
        "3232": 158,
        "3233": 4,
        "3234": 245,
        "3235": 87,
        "3236": 28,
        "3237": 252,
        "3238": 94,
        "3239": 127,
        "3240": 181,
        "3241": 87,
        "3242": 91,
        "3243": 58,
        "3244": 153,
        "3245": 91,
        "3246": 81,
        "3247": 210,
        "3248": 36,
        "3249": 236,
        "3250": 68,
        "3251": 117,
        "3252": 128,
        "3253": 116,
        "3254": 109,
        "3255": 131,
        "3256": 100,
        "3257": 11,
        "3258": 111,
        "3259": 97,
        "3260": 245,
        "3261": 160,
        "3262": 141,
        "3263": 231,
        "3264": 134,
        "3265": 182,
        "3266": 63,
        "3267": 213,
        "3268": 247,
        "3269": 101,
        "3270": 59,
        "3271": 100,
        "3272": 201,
        "3273": 48,
        "3274": 105,
        "3275": 92,
        "3276": 33,
        "3277": 2,
        "3278": 249,
        "3279": 7,
        "3280": 162,
        "3281": 196,
        "3282": 78,
        "3283": 203,
        "3284": 45,
        "3285": 0,
        "3286": 43,
        "3287": 11,
        "3288": 65,
        "3289": 115,
        "3290": 16,
        "3291": 19,
        "3292": 214,
        "3293": 40,
        "3294": 79,
        "3295": 248,
        "3296": 168,
        "3297": 174,
        "3298": 111,
        "3299": 211,
        "3300": 203,
        "3301": 146,
        "3302": 219,
        "3303": 137,
        "3304": 194,
        "3305": 188,
        "3306": 8,
        "3307": 136,
        "3308": 109,
        "3309": 93,
        "3310": 243,
        "3311": 142,
        "3312": 17,
        "3313": 122,
        "3314": 172,
        "3315": 47,
        "3316": 127,
        "3317": 90,
        "3318": 139,
        "3319": 68,
        "3320": 156,
        "3321": 19,
        "3322": 147,
        "3323": 12,
        "3324": 23,
        "3325": 84,
        "3326": 99,
        "3327": 114,
        "3328": 121,
        "3329": 193,
        "3330": 109,
        "3331": 210,
        "3332": 110,
        "3333": 74,
        "3334": 82,
        "3335": 92,
        "3336": 253,
        "3337": 37,
        "3338": 205,
        "3339": 133,
        "3340": 144,
        "3341": 195,
        "3342": 169,
        "3343": 155,
        "3344": 87,
        "3345": 182,
        "3346": 31,
        "3347": 219,
        "3348": 51,
        "3349": 12,
        "3350": 76,
        "3351": 114,
        "3352": 189,
        "3353": 99,
        "3354": 16,
        "3355": 36,
        "3356": 195,
        "3357": 50,
        "3358": 192,
        "3359": 200,
        "3360": 6,
        "3361": 171,
        "3362": 226,
        "3363": 197,
        "3364": 210,
        "3365": 217,
        "3366": 13,
        "3367": 239,
        "3368": 58,
        "3369": 55,
        "3370": 119,
        "3371": 111,
        "3372": 0,
        "3373": 118,
        "3374": 236,
        "3375": 141,
        "3376": 145,
        "3377": 176,
        "3378": 147,
        "3379": 194,
        "3380": 50,
        "3381": 126,
        "3382": 146,
        "3383": 9,
        "3384": 90,
        "3385": 103,
        "3386": 75,
        "3387": 244,
        "3388": 26,
        "3389": 128,
        "3390": 131,
        "3391": 254,
        "3392": 137,
        "3393": 106,
        "3394": 57,
        "3395": 20,
        "3396": 94,
        "3397": 144,
        "3398": 31,
        "3399": 176,
        "3400": 231,
        "3401": 124,
        "3402": 136,
        "3403": 134,
        "3404": 76,
        "3405": 1,
        "3406": 184,
        "3407": 146,
        "3408": 245,
        "3409": 100,
        "3410": 115,
        "3411": 29,
        "3412": 198,
        "3413": 195,
        "3414": 80,
        "3415": 145,
        "3416": 203,
        "3417": 1,
        "3418": 81,
        "3419": 80,
        "3420": 110,
        "3421": 167,
        "3422": 199,
        "3423": 109,
        "3424": 189,
        "3425": 59,
        "3426": 24,
        "3427": 126,
        "3428": 255,
        "3429": 225,
        "3430": 190,
        "3431": 7,
        "3432": 161,
        "3433": 127,
        "3434": 119,
        "3435": 121,
        "3436": 218,
        "3437": 214,
        "3438": 216,
        "3439": 255,
        "3440": 5,
        "3441": 48,
        "3442": 147,
        "3443": 142,
        "3444": 140,
        "3445": 86,
        "3446": 252,
        "3447": 233,
        "3448": 105,
        "3449": 138,
        "3450": 182,
        "3451": 11,
        "3452": 59,
        "3453": 65,
        "3454": 183,
        "3455": 27,
        "3456": 107,
        "3457": 157,
        "3458": 149,
        "3459": 31,
        "3460": 97,
        "3461": 147,
        "3462": 90,
        "3463": 158,
        "3464": 17,
        "3465": 130,
        "3466": 27,
        "3467": 20,
        "3468": 154,
        "3469": 92,
        "3470": 0,
        "3471": 31,
        "3472": 194,
        "3473": 52,
        "3474": 53,
        "3475": 116,
        "3476": 109,
        "3477": 72,
        "3478": 26,
        "3479": 189,
        "3480": 217,
        "3481": 121,
        "3482": 242,
        "3483": 159,
        "3484": 127,
        "3485": 144,
        "3486": 11,
        "3487": 37,
        "3488": 193,
        "3489": 173,
        "3490": 0,
        "3491": 5,
        "3492": 173,
        "3493": 155,
        "3494": 175,
        "3495": 235,
        "3496": 239,
        "3497": 140,
        "3498": 101,
        "3499": 17,
        "3500": 239,
        "3501": 114,
        "3502": 235,
        "3503": 1,
        "3504": 228,
        "3505": 107,
        "3506": 162,
        "3507": 99,
        "3508": 71,
        "3509": 184,
        "3510": 255,
        "3511": 37,
        "3512": 75,
        "3513": 97,
        "3514": 162,
        "3515": 46,
        "3516": 184,
        "3517": 173,
        "3518": 21,
        "3519": 98,
        "3520": 4,
        "3521": 125,
        "3522": 129,
        "3523": 58,
        "3524": 133,
        "3525": 252,
        "3526": 76,
        "3527": 33,
        "3528": 37,
        "3529": 238,
        "3530": 76,
        "3531": 206,
        "3532": 118,
        "3533": 64,
        "3534": 101,
        "3535": 95,
        "3536": 32,
        "3537": 29,
        "3538": 96,
        "3539": 51,
        "3540": 17,
        "3541": 85,
        "3542": 23,
        "3543": 97,
        "3544": 183,
        "3545": 142,
        "3546": 51,
        "3547": 6,
        "3548": 92,
        "3549": 76,
        "3550": 253,
        "3551": 137,
        "3552": 0,
        "3553": 21,
        "3554": 249,
        "3555": 152,
        "3556": 13,
        "3557": 251,
        "3558": 253,
        "3559": 154,
        "3560": 20,
        "3561": 212,
        "3562": 55,
        "3563": 28,
        "3564": 73,
        "3565": 177,
        "3566": 239,
        "3567": 190,
        "3568": 124,
        "3569": 176,
        "3570": 147,
        "3571": 203,
        "3572": 217,
        "3573": 32,
        "3574": 194,
        "3575": 87,
        "3576": 229,
        "3577": 57,
        "3578": 138,
        "3579": 218,
        "3580": 95,
        "3581": 239,
        "3582": 32,
        "3583": 42,
        "3584": 211,
        "3585": 167,
        "3586": 82,
        "3587": 213,
        "3588": 9,
        "3589": 82,
        "3590": 123,
        "3591": 246,
        "3592": 205,
        "3593": 94,
        "3594": 24,
        "3595": 230,
        "3596": 147,
        "3597": 68,
        "3598": 175,
        "3599": 135,
        "3600": 131,
        "3601": 167,
        "3602": 49,
        "3603": 157,
        "3604": 64,
        "3605": 179,
        "3606": 187,
        "3607": 164,
        "3608": 246,
        "3609": 240,
        "3610": 191,
        "3611": 197,
        "3612": 106,
        "3613": 48,
        "3614": 60,
        "3615": 93,
        "3616": 137,
        "3617": 247,
        "3618": 221,
        "3619": 203,
        "3620": 67,
        "3621": 226,
        "3622": 124,
        "3623": 201,
        "3624": 97,
        "3625": 251,
        "3626": 176,
        "3627": 224,
        "3628": 136,
        "3629": 134,
        "3630": 173,
        "3631": 42,
        "3632": 41,
        "3633": 5,
        "3634": 18,
        "3635": 149,
        "3636": 139,
        "3637": 75,
        "3638": 199,
        "3639": 143,
        "3640": 51,
        "3641": 141,
        "3642": 246,
        "3643": 220,
        "3644": 139,
        "3645": 79,
        "3646": 174,
        "3647": 0,
        "3648": 172,
        "3649": 82,
        "3650": 192,
        "3651": 74,
        "3652": 13,
        "3653": 247,
        "3654": 230,
        "3655": 27,
        "3656": 52,
        "3657": 121,
        "3658": 14,
        "3659": 210,
        "3660": 117,
        "3661": 36,
        "3662": 65,
        "3663": 202,
        "3664": 123,
        "3665": 253,
        "3666": 38,
        "3667": 139,
        "3668": 70,
        "3669": 173,
        "3670": 241,
        "3671": 235,
        "3672": 106,
        "3673": 101,
        "3674": 210,
        "3675": 152,
        "3676": 64,
        "3677": 254,
        "3678": 254,
        "3679": 78,
        "3680": 84,
        "3681": 191,
        "3682": 215,
        "3683": 189,
        "3684": 121,
        "3685": 62,
        "3686": 142,
        "3687": 228,
        "3688": 204,
        "3689": 126,
        "3690": 104,
        "3691": 32,
        "3692": 242,
        "3693": 51,
        "3694": 104,
        "3695": 29,
        "3696": 54,
        "3697": 218,
        "3698": 44,
        "3699": 33,
        "3700": 125,
        "3701": 250,
        "3702": 244,
        "3703": 140,
        "3704": 249,
        "3705": 58,
        "3706": 16,
        "3707": 246,
        "3708": 68,
        "3709": 53,
        "3710": 9,
        "3711": 161,
        "3712": 51,
        "3713": 255,
        "3714": 177,
        "3715": 184,
        "3716": 194,
        "3717": 114,
        "3718": 13,
        "3719": 102,
        "3720": 24,
        "3721": 29,
        "3722": 27,
        "3723": 134,
        "3724": 4,
        "3725": 241,
        "3726": 251,
        "3727": 25,
        "3728": 104,
        "3729": 200,
        "3730": 226,
        "3731": 123,
        "3732": 52,
        "3733": 123,
        "3734": 93,
        "3735": 70,
        "3736": 126,
        "3737": 103,
        "3738": 103,
        "3739": 106,
        "3740": 42,
        "3741": 109,
        "3742": 102,
        "3743": 63,
        "3744": 19,
        "3745": 231,
        "3746": 231,
        "3747": 78,
        "3748": 42,
        "3749": 209,
        "3750": 222,
        "3751": 120,
        "3752": 246,
        "3753": 29,
        "3754": 140,
        "3755": 138,
        "3756": 133,
        "3757": 244,
        "3758": 144,
        "3759": 78,
        "3760": 14,
        "3761": 170,
        "3762": 42,
        "3763": 155,
        "3764": 216,
        "3765": 85,
        "3766": 50,
        "3767": 111,
        "3768": 20,
        "3769": 145,
        "3770": 44,
        "3771": 90,
        "3772": 196,
        "3773": 10,
        "3774": 95,
        "3775": 117,
        "3776": 21,
        "3777": 59,
        "3778": 35,
        "3779": 175,
        "3780": 244,
        "3781": 29,
        "3782": 234,
        "3783": 155,
        "3784": 196,
        "3785": 166,
        "3786": 23,
        "3787": 137,
        "3788": 163,
        "3789": 85,
        "3790": 109,
        "3791": 94,
        "3792": 162,
        "3793": 31,
        "3794": 132,
        "3795": 156,
        "3796": 59,
        "3797": 252,
        "3798": 179,
        "3799": 114,
        "3800": 234,
        "3801": 22,
        "3802": 72,
        "3803": 255,
        "3804": 177,
        "3805": 51,
        "3806": 156,
        "3807": 150,
        "3808": 199,
        "3809": 250,
        "3810": 210,
        "3811": 4,
        "3812": 62,
        "3813": 31,
        "3814": 235,
        "3815": 163,
        "3816": 214,
        "3817": 197,
        "3818": 109,
        "3819": 21,
        "3820": 145,
        "3821": 61,
        "3822": 65,
        "3823": 59,
        "3824": 30,
        "3825": 22,
        "3826": 234,
        "3827": 17,
        "3828": 167,
        "3829": 19,
        "3830": 83,
        "3831": 229,
        "3832": 65,
        "3833": 246,
        "3834": 5,
        "3835": 92,
        "3836": 49,
        "3837": 133,
        "3838": 92,
        "3839": 53,
        "3840": 158,
        "3841": 243,
        "3842": 227,
        "3843": 54,
        "3844": 207,
        "3845": 242,
        "3846": 177,
        "3847": 146,
        "3848": 229,
        "3849": 101,
        "3850": 5,
        "3851": 41,
        "3852": 125,
        "3853": 211,
        "3854": 65,
        "3855": 201,
        "3856": 186,
        "3857": 73,
        "3858": 202,
        "3859": 220,
        "3860": 188,
        "3861": 219,
        "3862": 205,
        "3863": 186,
        "3864": 15,
        "3865": 157,
        "3866": 192,
        "3867": 124,
        "3868": 188,
        "3869": 82,
        "3870": 126,
        "3871": 62,
        "3872": 32,
        "3873": 195,
        "3874": 197,
        "3875": 178,
        "3876": 204,
        "3877": 198,
        "3878": 87,
        "3879": 213,
        "3880": 252,
        "3881": 182,
        "3882": 101,
        "3883": 132,
        "3884": 24,
        "3885": 115,
        "3886": 156,
        "3887": 164,
        "3888": 166,
        "3889": 249,
        "3890": 19,
        "3891": 174,
        "3892": 145,
        "3893": 239,
        "3894": 239,
        "3895": 65,
        "3896": 0,
        "3897": 69,
        "3898": 19,
        "3899": 226,
        "3900": 50,
        "3901": 36,
        "3902": 218,
        "3903": 125,
        "3904": 251,
        "3905": 71,
        "3906": 144,
        "3907": 231,
        "3908": 249,
        "3909": 6,
        "3910": 10,
        "3911": 22,
        "3912": 223,
        "3913": 87,
        "3914": 117,
        "3915": 4,
        "3916": 56,
        "3917": 144,
        "3918": 167,
        "3919": 153,
        "3920": 67,
        "3921": 76,
        "3922": 101,
        "3923": 198,
        "3924": 2,
        "3925": 249,
        "3926": 241,
        "3927": 249,
        "3928": 169,
        "3929": 136,
        "3930": 176,
        "3931": 21,
        "3932": 86,
        "3933": 163,
        "3934": 144,
        "3935": 169,
        "3936": 184,
        "3937": 25,
        "3938": 7,
        "3939": 160,
        "3940": 67,
        "3941": 123,
        "3942": 4,
        "3943": 95,
        "3944": 173,
        "3945": 127,
        "3946": 110,
        "3947": 29,
        "3948": 46,
        "3949": 42,
        "3950": 208,
        "3951": 114,
        "3952": 16,
        "3953": 215,
        "3954": 38,
        "3955": 131,
        "3956": 108,
        "3957": 182,
        "3958": 57,
        "3959": 92,
        "3960": 159,
        "3961": 67,
        "3962": 144,
        "3963": 153,
        "3964": 245,
        "3965": 28,
        "3966": 178,
        "3967": 232,
        "3968": 146,
        "3969": 109,
        "3970": 69,
        "3971": 39,
        "3972": 60,
        "3973": 113,
        "3974": 43,
        "3975": 136,
        "3976": 122,
        "3977": 136,
        "3978": 165,
        "3979": 216,
        "3980": 228,
        "3981": 35,
        "3982": 221,
        "3983": 25,
        "3984": 135,
        "3985": 8,
        "3986": 159,
        "3987": 235,
        "3988": 132,
        "3989": 123,
        "3990": 187,
        "3991": 58,
        "3992": 209,
        "3993": 25,
        "3994": 253,
        "3995": 191,
        "3996": 68,
        "3997": 208,
        "3998": 209,
        "3999": 26,
        "4000": 188,
        "4001": 247,
        "4002": 162,
        "4003": 193,
        "4004": 163,
        "4005": 25,
        "4006": 109,
        "4007": 161,
        "4008": 163,
        "4009": 39,
        "4010": 31,
        "4011": 172,
        "4012": 67,
        "4013": 194,
        "4014": 73,
        "4015": 211,
        "4016": 210,
        "4017": 233,
        "4018": 190,
        "4019": 227,
        "4020": 167,
        "4021": 245,
        "4022": 121,
        "4023": 10,
        "4024": 199,
        "4025": 86,
        "4026": 245,
        "4027": 208,
        "4028": 170,
        "4029": 190,
        "4030": 218,
        "4031": 106,
        "4032": 213,
        "4033": 114,
        "4034": 79,
        "4035": 186,
        "4036": 23,
        "4037": 19,
        "4038": 36,
        "4039": 121,
        "4040": 90,
        "4041": 169,
        "4042": 163,
        "4043": 219,
        "4044": 213,
        "4045": 37,
        "4046": 71,
        "4047": 83,
        "4048": 241,
        "4049": 195,
        "4050": 101,
        "4051": 245,
        "4052": 161,
        "4053": 160,
        "4054": 125,
        "4055": 83,
        "4056": 10,
        "4057": 187,
        "4058": 57,
        "4059": 117,
        "4060": 58,
        "4061": 163,
        "4062": 48,
        "4063": 152,
        "4064": 3,
        "4065": 12,
        "4066": 65,
        "4067": 50,
        "4068": 91,
        "4069": 64,
        "4070": 31,
        "4071": 152,
        "4072": 156,
        "4073": 183,
        "4074": 194,
        "4075": 82,
        "4076": 216,
        "4077": 36,
        "4078": 184,
        "4079": 32,
        "4080": 253,
        "4081": 186,
        "4082": 74,
        "4083": 1,
        "4084": 218,
        "4085": 151,
        "4086": 190,
        "4087": 210,
        "4088": 217,
        "4089": 70,
        "4090": 167,
        "4091": 168,
        "4092": 248,
        "4093": 123,
        "4094": 57,
        "4095": 1,
        "4096": 189,
        "4097": 97,
        "4098": 251,
        "4099": 242,
        "4100": 131,
        "4101": 87,
        "4102": 178,
        "4103": 9,
        "4104": 179,
        "4105": 3,
        "4106": 151,
        "4107": 152,
        "4108": 76,
        "4109": 79,
        "4110": 201,
        "4111": 220,
        "4112": 35,
        "4113": 88,
        "4114": 126,
        "4115": 231,
        "4116": 198,
        "4117": 73,
        "4118": 32,
        "4119": 249,
        "4120": 193,
        "4121": 27,
        "4122": 206,
        "4123": 232,
        "4124": 166,
        "4125": 217,
        "4126": 190,
        "4127": 223,
        "4128": 153,
        "4129": 153,
        "4130": 42,
        "4131": 52,
        "4132": 85,
        "4133": 159,
        "4134": 63,
        "4135": 44,
        "4136": 152,
        "4137": 63,
        "4138": 43,
        "4139": 247,
        "4140": 210,
        "4141": 164,
        "4142": 194,
        "4143": 234,
        "4144": 114,
        "4145": 249,
        "4146": 171,
        "4147": 136,
        "4148": 107,
        "4149": 128,
        "4150": 144,
        "4151": 10,
        "4152": 121,
        "4153": 130,
        "4154": 196,
        "4155": 19,
        "4156": 156,
        "4157": 147,
        "4158": 207,
        "4159": 220,
        "4160": 197,
        "4161": 222,
        "4162": 198,
        "4163": 104,
        "4164": 122,
        "4165": 201,
        "4166": 34,
        "4167": 208,
        "4168": 160,
        "4169": 62,
        "4170": 6,
        "4171": 190,
        "4172": 228,
        "4173": 46,
        "4174": 33,
        "4175": 152,
        "4176": 226,
        "4177": 200,
        "4178": 39,
        "4179": 247,
        "4180": 118,
        "4181": 30,
        "4182": 103,
        "4183": 204,
        "4184": 207,
        "4185": 242,
        "4186": 4,
        "4187": 203,
        "4188": 216,
        "4189": 164,
        "4190": 131,
        "4191": 158,
        "4192": 125,
        "4193": 165,
        "4194": 107,
        "4195": 115,
        "4196": 159,
        "4197": 128,
        "4198": 213,
        "4199": 154,
        "4200": 38,
        "4201": 196,
        "4202": 5,
        "4203": 107,
        "4204": 178,
        "4205": 6,
        "4206": 150,
        "4207": 149,
        "4208": 29,
        "4209": 192,
        "4210": 174,
        "4211": 105,
        "4212": 216,
        "4213": 202,
        "4214": 222,
        "4215": 218,
        "4216": 77,
        "4217": 93,
        "4218": 127,
        "4219": 153,
        "4220": 186,
        "4221": 11,
        "4222": 88,
        "4223": 180,
        "4224": 111,
        "4225": 89,
        "4226": 82,
        "4227": 241,
        "4228": 120,
        "4229": 105,
        "4230": 147,
        "4231": 247,
        "4232": 113,
        "4233": 112,
        "4234": 194,
        "4235": 126,
        "4236": 208,
        "4237": 84,
        "4238": 76,
        "4239": 153,
        "4240": 2,
        "4241": 73,
        "4242": 200,
        "4243": 106,
        "4244": 20,
        "4245": 96,
        "4246": 12,
        "4247": 39,
        "4248": 125,
        "4249": 15,
        "4250": 9,
        "4251": 120,
        "4252": 174,
        "4253": 199,
        "4254": 24,
        "4255": 179,
        "4256": 61,
        "4257": 173,
        "4258": 134,
        "4259": 97,
        "4260": 169,
        "4261": 71,
        "4262": 79,
        "4263": 141,
        "4264": 151,
        "4265": 88,
        "4266": 231,
        "4267": 142,
        "4268": 115,
        "4269": 222,
        "4270": 92,
        "4271": 165,
        "4272": 246,
        "4273": 239,
        "4274": 208,
        "4275": 164,
        "4276": 242,
        "4277": 153,
        "4278": 59,
        "4279": 161,
        "4280": 99,
        "4281": 126,
        "4282": 99,
        "4283": 242,
        "4284": 160,
        "4285": 30,
        "4286": 255,
        "4287": 4,
        "4288": 196,
        "4289": 85,
        "4290": 69,
        "4291": 17,
        "4292": 245,
        "4293": 27,
        "4294": 29,
        "4295": 83,
        "4296": 104,
        "4297": 157,
        "4298": 25,
        "4299": 245,
        "4300": 80,
        "4301": 141,
        "4302": 146,
        "4303": 175,
        "4304": 212,
        "4305": 231,
        "4306": 88,
        "4307": 44,
        "4308": 62,
        "4309": 128,
        "4310": 48,
        "4311": 207,
        "4312": 88,
        "4313": 50,
        "4314": 24,
        "4315": 52,
        "4316": 208,
        "4317": 2,
        "4318": 244,
        "4319": 93,
        "4320": 200,
        "4321": 234,
        "4322": 238,
        "4323": 212,
        "4324": 246,
        "4325": 251,
        "4326": 37,
        "4327": 120,
        "4328": 128,
        "4329": 19,
        "4330": 105,
        "4331": 233,
        "4332": 81,
        "4333": 6,
        "4334": 204,
        "4335": 195,
        "4336": 77,
        "4337": 33,
        "4338": 109,
        "4339": 20,
        "4340": 4,
        "4341": 149,
        "4342": 144,
        "4343": 117,
        "4344": 103,
        "4345": 109,
        "4346": 80,
        "4347": 16,
        "4348": 34,
        "4349": 115,
        "4350": 46,
        "4351": 84,
        "4352": 180,
        "4353": 249,
        "4354": 205,
        "4355": 106,
        "4356": 125,
        "4357": 150,
        "4358": 243,
        "4359": 226,
        "4360": 204,
        "4361": 196,
        "4362": 214,
        "4363": 80,
        "4364": 231,
        "4365": 239,
        "4366": 151,
        "4367": 105,
        "4368": 53,
        "4369": 143,
        "4370": 219,
        "4371": 129,
        "4372": 42,
        "4373": 163,
        "4374": 14,
        "4375": 229,
        "4376": 247,
        "4377": 126,
        "4378": 36,
        "4379": 118,
        "4380": 247,
        "4381": 135,
        "4382": 93,
        "4383": 223,
        "4384": 29,
        "4385": 134,
        "4386": 188,
        "4387": 253,
        "4388": 57,
        "4389": 253,
        "4390": 52,
        "4391": 108,
        "4392": 16,
        "4393": 68,
        "4394": 111,
        "4395": 20,
        "4396": 46,
        "4397": 175,
        "4398": 49,
        "4399": 193,
        "4400": 9,
        "4401": 173,
        "4402": 238,
        "4403": 27,
        "4404": 241,
        "4405": 226,
        "4406": 77,
        "4407": 189,
        "4408": 107,
        "4409": 101,
        "4410": 227,
        "4411": 122,
        "4412": 216,
        "4413": 115,
        "4414": 169,
        "4415": 161,
        "4416": 203,
        "4417": 90,
        "4418": 162,
        "4419": 182,
        "4420": 155,
        "4421": 216,
        "4422": 50,
        "4423": 26,
        "4424": 200,
        "4425": 249,
        "4426": 180,
        "4427": 110,
        "4428": 49,
        "4429": 234,
        "4430": 105,
        "4431": 86,
        "4432": 69,
        "4433": 124,
        "4434": 216,
        "4435": 64,
        "4436": 228,
        "4437": 182,
        "4438": 130,
        "4439": 3,
        "4440": 245,
        "4441": 99,
        "4442": 77,
        "4443": 194,
        "4444": 96,
        "4445": 35,
        "4446": 83,
        "4447": 171,
        "4448": 11,
        "4449": 74,
        "4450": 111,
        "4451": 204,
        "4452": 186,
        "4453": 129,
        "4454": 44,
        "4455": 151,
        "4456": 2,
        "4457": 38,
        "4458": 228,
        "4459": 116,
        "4460": 72,
        "4461": 163,
        "4462": 31,
        "4463": 138,
        "4464": 24,
        "4465": 122,
        "4466": 16,
        "4467": 25,
        "4468": 3,
        "4469": 109,
        "4470": 216,
        "4471": 106,
        "4472": 64,
        "4473": 119,
        "4474": 68,
        "4475": 21,
        "4476": 29,
        "4477": 245,
        "4478": 194,
        "4479": 194,
        "4480": 30,
        "4481": 218,
        "4482": 16,
        "4483": 66,
        "4484": 35,
        "4485": 249,
        "4486": 176,
        "4487": 247,
        "4488": 12,
        "4489": 133,
        "4490": 173,
        "4491": 17,
        "4492": 65,
        "4493": 243,
        "4494": 149,
        "4495": 241,
        "4496": 182,
        "4497": 102,
        "4498": 175,
        "4499": 53,
        "4500": 240,
        "4501": 57,
        "4502": 125,
        "4503": 17,
        "4504": 175,
        "4505": 105,
        "4506": 53,
        "4507": 125,
        "4508": 151,
        "4509": 251,
        "4510": 103,
        "4511": 49,
        "4512": 163,
        "4513": 216,
        "4514": 239,
        "4515": 125,
        "4516": 167,
        "4517": 23,
        "4518": 68,
        "4519": 175,
        "4520": 61,
        "4521": 59,
        "4522": 76,
        "4523": 145,
        "4524": 168,
        "4525": 132,
        "4526": 72,
        "4527": 141,
        "4528": 6,
        "4529": 84,
        "4530": 224,
        "4531": 99,
        "4532": 217,
        "4533": 251,
        "4534": 90,
        "4535": 86,
        "4536": 105,
        "4537": 6,
        "4538": 68,
        "4539": 147,
        "4540": 126,
        "4541": 55,
        "4542": 47,
        "4543": 57,
        "4544": 141,
        "4545": 10,
        "4546": 29,
        "4547": 111,
        "4548": 124,
        "4549": 41,
        "4550": 53,
        "4551": 180,
        "4552": 46,
        "4553": 84,
        "4554": 126,
        "4555": 47,
        "4556": 142,
        "4557": 232,
        "4558": 133,
        "4559": 138,
        "4560": 192,
        "4561": 99,
        "4562": 104,
        "4563": 166,
        "4564": 85,
        "4565": 20,
        "4566": 75,
        "4567": 252,
        "4568": 182,
        "4569": 223,
        "4570": 58,
        "4571": 8,
        "4572": 114,
        "4573": 12,
        "4574": 53,
        "4575": 227,
        "4576": 176,
        "4577": 95,
        "4578": 202,
        "4579": 16,
        "4580": 38,
        "4581": 65,
        "4582": 193,
        "4583": 220,
        "4584": 102,
        "4585": 188,
        "4586": 109,
        "4587": 156,
        "4588": 42,
        "4589": 155,
        "4590": 194,
        "4591": 87,
        "4592": 59,
        "4593": 176,
        "4594": 255,
        "4595": 167,
        "4596": 91,
        "4597": 36,
        "4598": 32,
        "4599": 122,
        "4600": 81,
        "4601": 11,
        "4602": 177,
        "4603": 88,
        "4604": 229,
        "4605": 201,
        "4606": 232,
        "4607": 17,
        "4608": 157,
        "4609": 240,
        "4610": 36,
        "4611": 92,
        "4612": 46,
        "4613": 19,
        "4614": 131,
        "4615": 48,
        "4616": 14,
        "4617": 52,
        "4618": 145,
        "4619": 154,
        "4620": 200,
        "4621": 104,
        "4622": 207,
        "4623": 96,
        "4624": 17,
        "4625": 225,
        "4626": 120,
        "4627": 44,
        "4628": 41,
        "4629": 173,
        "4630": 173,
        "4631": 224,
        "4632": 120,
        "4633": 18,
        "4634": 19,
        "4635": 120,
        "4636": 232,
        "4637": 227,
        "4638": 133,
        "4639": 25,
        "4640": 58,
        "4641": 113,
        "4642": 65,
        "4643": 156,
        "4644": 144,
        "4645": 4,
        "4646": 168,
        "4647": 170,
        "4648": 57,
        "4649": 105,
        "4650": 60,
        "4651": 237,
        "4652": 179,
        "4653": 32,
        "4654": 29,
        "4655": 41,
        "4656": 239,
        "4657": 20,
        "4658": 177,
        "4659": 121,
        "4660": 228,
        "4661": 176,
        "4662": 84,
        "4663": 66,
        "4664": 124,
        "4665": 21,
        "4666": 51,
        "4667": 8,
        "4668": 119,
        "4669": 144,
        "4670": 1,
        "4671": 146,
        "4672": 99,
        "4673": 154,
        "4674": 197,
        "4675": 152,
        "4676": 246,
        "4677": 186,
        "4678": 119,
        "4679": 149,
        "4680": 43,
        "4681": 14,
        "4682": 144,
        "4683": 86,
        "4684": 254,
        "4685": 215,
        "4686": 173,
        "4687": 217,
        "4688": 98,
        "4689": 194,
        "4690": 137,
        "4691": 164,
        "4692": 232,
        "4693": 193,
        "4694": 24,
        "4695": 15,
        "4696": 237,
        "4697": 78,
        "4698": 20,
        "4699": 223,
        "4700": 196,
        "4701": 164,
        "4702": 194,
        "4703": 70,
        "4704": 92,
        "4705": 138,
        "4706": 46,
        "4707": 115,
        "4708": 7,
        "4709": 238,
        "4710": 138,
        "4711": 103,
        "4712": 233,
        "4713": 26,
        "4714": 69,
        "4715": 54,
        "4716": 144,
        "4717": 17,
        "4718": 223,
        "4719": 246,
        "4720": 136,
        "4721": 228,
        "4722": 16,
        "4723": 74,
        "4724": 31,
        "4725": 144,
        "4726": 118,
        "4727": 224,
        "4728": 116,
        "4729": 10,
        "4730": 222,
        "4731": 253,
        "4732": 18,
        "4733": 82,
        "4734": 138,
        "4735": 5,
        "4736": 61,
        "4737": 74,
        "4738": 31,
        "4739": 154,
        "4740": 90,
        "4741": 209,
        "4742": 71,
        "4743": 160,
        "4744": 230,
        "4745": 237,
        "4746": 145,
        "4747": 156,
        "4748": 241,
        "4749": 132,
        "4750": 149,
        "4751": 199,
        "4752": 32,
        "4753": 92,
        "4754": 203,
        "4755": 169,
        "4756": 69,
        "4757": 162,
        "4758": 138,
        "4759": 165,
        "4760": 241,
        "4761": 7,
        "4762": 10,
        "4763": 160,
        "4764": 9,
        "4765": 99,
        "4766": 95,
        "4767": 92,
        "4768": 235,
        "4769": 101,
        "4770": 21,
        "4771": 49,
        "4772": 173,
        "4773": 198,
        "4774": 224,
        "4775": 253,
        "4776": 122,
        "4777": 0,
        "4778": 135,
        "4779": 93,
        "4780": 211,
        "4781": 186,
        "4782": 84,
        "4783": 86,
        "4784": 184,
        "4785": 188,
        "4786": 193,
        "4787": 12,
        "4788": 10,
        "4789": 192,
        "4790": 11,
        "4791": 5,
        "4792": 3,
        "4793": 193,
        "4794": 205,
        "4795": 175,
        "4796": 196,
        "4797": 14,
        "4798": 124,
        "4799": 19,
        "4800": 249,
        "4801": 46,
        "4802": 12,
        "4803": 65,
        "4804": 80,
        "4805": 100,
        "4806": 97,
        "4807": 22,
        "4808": 163,
        "4809": 60,
        "4810": 185,
        "4811": 201,
        "4812": 130,
        "4813": 100,
        "4814": 121,
        "4815": 175,
        "4816": 95,
        "4817": 70,
        "4818": 94,
        "4819": 45,
        "4820": 223,
        "4821": 126,
        "4822": 121,
        "4823": 19,
        "4824": 141,
        "4825": 142,
        "4826": 22,
        "4827": 137,
        "4828": 26,
        "4829": 125,
        "4830": 116,
        "4831": 64,
        "4832": 184,
        "4833": 70,
        "4834": 70,
        "4835": 134,
        "4836": 104,
        "4837": 225,
        "4838": 128,
        "4839": 11,
        "4840": 75,
        "4841": 231,
        "4842": 143,
        "4843": 14,
        "4844": 132,
        "4845": 110,
        "4846": 89,
        "4847": 86,
        "4848": 204,
        "4849": 20,
        "4850": 35,
        "4851": 208,
        "4852": 199,
        "4853": 157,
        "4854": 37,
        "4855": 113,
        "4856": 155,
        "4857": 43,
        "4858": 138,
        "4859": 160,
        "4860": 143,
        "4861": 141,
        "4862": 37,
        "4863": 9,
        "4864": 157,
        "4865": 17,
        "4866": 234,
        "4867": 52,
        "4868": 155,
        "4869": 233,
        "4870": 30,
        "4871": 67,
        "4872": 26,
        "4873": 188,
        "4874": 231,
        "4875": 97,
        "4876": 10,
        "4877": 159,
        "4878": 141,
        "4879": 124,
        "4880": 242,
        "4881": 164,
        "4882": 226,
        "4883": 203,
        "4884": 221,
        "4885": 39,
        "4886": 166,
        "4887": 155,
        "4888": 148,
        "4889": 44,
        "4890": 184,
        "4891": 174,
        "4892": 73,
        "4893": 188,
        "4894": 62,
        "4895": 113,
        "4896": 194,
        "4897": 245,
        "4898": 254,
        "4899": 132,
        "4900": 109,
        "4901": 190,
        "4902": 201,
        "4903": 108,
        "4904": 120,
        "4905": 117,
        "4906": 109,
        "4907": 244,
        "4908": 128,
        "4909": 72,
        "4910": 126,
        "4911": 171,
        "4912": 75,
        "4913": 159,
        "4914": 74,
        "4915": 0,
        "4916": 118,
        "4917": 226,
        "4918": 124,
        "4919": 213,
        "4920": 4,
        "4921": 47,
        "4922": 160,
        "4923": 50,
        "4924": 127,
        "4925": 92,
        "4926": 131,
        "4927": 169,
        "4928": 180,
        "4929": 40,
        "4930": 74,
        "4931": 169,
        "4932": 174,
        "4933": 57,
        "4934": 221,
        "4935": 122,
        "4936": 227,
        "4937": 159,
        "4938": 191,
        "4939": 160,
        "4940": 184,
        "4941": 108,
        "4942": 205,
        "4943": 232,
        "4944": 116,
        "4945": 242,
        "4946": 209,
        "4947": 30,
        "4948": 132,
        "4949": 226,
        "4950": 161,
        "4951": 55,
        "4952": 69,
        "4953": 121,
        "4954": 101,
        "4955": 248,
        "4956": 110,
        "4957": 64,
        "4958": 1,
        "4959": 49,
        "4960": 156,
        "4961": 122,
        "4962": 11,
        "4963": 215,
        "4964": 69,
        "4965": 58,
        "4966": 68,
        "4967": 255,
        "4968": 93,
        "4969": 24,
        "4970": 233,
        "4971": 223,
        "4972": 60,
        "4973": 41,
        "4974": 12,
        "4975": 138,
        "4976": 243,
        "4977": 204,
        "4978": 215,
        "4979": 201,
        "4980": 128,
        "4981": 3,
        "4982": 78,
        "4983": 223,
        "4984": 192,
        "4985": 177,
        "4986": 146,
        "4987": 255,
        "4988": 233,
        "4989": 6,
        "4990": 250,
        "4991": 118,
        "4992": 55,
        "4993": 128,
        "4994": 1,
        "4995": 109,
        "4996": 29,
        "4997": 202,
        "4998": 86,
        "4999": 115,
        "5000": 99,
        "5001": 224,
        "5002": 163,
        "5003": 210,
        "5004": 232,
        "5005": 171,
        "5006": 43,
        "5007": 209,
        "5008": 5,
        "5009": 120,
        "5010": 120,
        "5011": 197,
        "5012": 225,
        "5013": 150,
        "5014": 146,
        "5015": 24,
        "5016": 131,
        "5017": 29,
        "5018": 221,
        "5019": 142,
        "5020": 219,
        "5021": 184,
        "5022": 160,
        "5023": 247,
        "5024": 58,
        "5025": 112,
        "5026": 95,
        "5027": 236,
        "5028": 196,
        "5029": 125,
        "5030": 119,
        "5031": 83,
        "5032": 10,
        "5033": 195,
        "5034": 142,
        "5035": 183,
        "5036": 97,
        "5037": 168,
        "5038": 43,
        "5039": 217,
        "5040": 73,
        "5041": 24,
        "5042": 148,
        "5043": 71,
        "5044": 69,
        "5045": 189,
        "5046": 94,
        "5047": 0,
        "5048": 34,
        "5049": 56,
        "5050": 202,
        "5051": 219,
        "5052": 79,
        "5053": 224,
        "5054": 140,
        "5055": 3,
        "5056": 68,
        "5057": 203,
        "5058": 230,
        "5059": 32,
        "5060": 150,
        "5061": 158,
        "5062": 237,
        "5063": 157,
        "5064": 211,
        "5065": 19,
        "5066": 69,
        "5067": 177,
        "5068": 166,
        "5069": 42,
        "5070": 37,
        "5071": 141,
        "5072": 86,
        "5073": 14,
        "5074": 161,
        "5075": 180,
        "5076": 168,
        "5077": 43,
        "5078": 214,
        "5079": 171,
        "5080": 188,
        "5081": 108,
        "5082": 59,
        "5083": 137,
        "5084": 184,
        "5085": 83,
        "5086": 249,
        "5087": 104,
        "5088": 134,
        "5089": 42,
        "5090": 103,
        "5091": 243,
        "5092": 198,
        "5093": 181,
        "5094": 184,
        "5095": 185,
        "5096": 161,
        "5097": 113,
        "5098": 49,
        "5099": 141,
        "5100": 60,
        "5101": 180,
        "5102": 145,
        "5103": 185,
        "5104": 95,
        "5105": 56,
        "5106": 48,
        "5107": 124,
        "5108": 150,
        "5109": 224,
        "5110": 249,
        "5111": 111,
        "5112": 21,
        "5113": 230,
        "5114": 31,
        "5115": 93,
        "5116": 12,
        "5117": 216,
        "5118": 209,
        "5119": 190,
        "5120": 121,
        "5121": 103,
        "5122": 120,
        "5123": 150,
        "5124": 107,
        "5125": 10,
        "5126": 18,
        "5127": 202,
        "5128": 37,
        "5129": 50,
        "5130": 249,
        "5131": 238,
        "5132": 5,
        "5133": 179,
        "5134": 78,
        "5135": 71,
        "5136": 234,
        "5137": 140,
        "5138": 12,
        "5139": 226,
        "5140": 7,
        "5141": 134,
        "5142": 55,
        "5143": 18,
        "5144": 221,
        "5145": 250,
        "5146": 201,
        "5147": 22,
        "5148": 146,
        "5149": 46,
        "5150": 104,
        "5151": 134,
        "5152": 22,
        "5153": 140,
        "5154": 26,
        "5155": 162,
        "5156": 98,
        "5157": 255,
        "5158": 35,
        "5159": 123,
        "5160": 102,
        "5161": 108,
        "5162": 220,
        "5163": 177,
        "5164": 30,
        "5165": 205,
        "5166": 221,
        "5167": 22,
        "5168": 118,
        "5169": 100,
        "5170": 219,
        "5171": 105,
        "5172": 173,
        "5173": 204,
        "5174": 78,
        "5175": 63,
        "5176": 177,
        "5177": 127,
        "5178": 134,
        "5179": 37,
        "5180": 163,
        "5181": 55,
        "5182": 50,
        "5183": 26,
        "5184": 132,
        "5185": 57,
        "5186": 86,
        "5187": 205,
        "5188": 153,
        "5189": 143,
        "5190": 135,
        "5191": 43,
        "5192": 165,
        "5193": 132,
        "5194": 92,
        "5195": 230,
        "5196": 253,
        "5197": 139,
        "5198": 182,
        "5199": 13,
        "5200": 32,
        "5201": 139,
        "5202": 222,
        "5203": 209,
        "5204": 212,
        "5205": 247,
        "5206": 4,
        "5207": 81,
        "5208": 237,
        "5209": 67,
        "5210": 8,
        "5211": 64,
        "5212": 190,
        "5213": 115,
        "5214": 49,
        "5215": 145,
        "5216": 82,
        "5217": 20,
        "5218": 226,
        "5219": 157,
        "5220": 144,
        "5221": 151,
        "5222": 34,
        "5223": 68,
        "5224": 52,
        "5225": 86,
        "5226": 225,
        "5227": 84,
        "5228": 143,
        "5229": 251,
        "5230": 207,
        "5231": 165,
        "5232": 216,
        "5233": 98,
        "5234": 202,
        "5235": 75,
        "5236": 225,
        "5237": 184,
        "5238": 27,
        "5239": 77,
        "5240": 197,
        "5241": 170,
        "5242": 179,
        "5243": 28,
        "5244": 104,
        "5245": 10,
        "5246": 81,
        "5247": 141,
        "5248": 139,
        "5249": 9,
        "5250": 22,
        "5251": 12,
        "5252": 35,
        "5253": 176,
        "5254": 139,
        "5255": 228,
        "5256": 91,
        "5257": 35,
        "5258": 152,
        "5259": 159,
        "5260": 216,
        "5261": 19,
        "5262": 50,
        "5263": 81,
        "5264": 255,
        "5265": 28,
        "5266": 156,
        "5267": 253,
        "5268": 182,
        "5269": 136,
        "5270": 161,
        "5271": 41,
        "5272": 128,
        "5273": 221,
        "5274": 104,
        "5275": 245,
        "5276": 148,
        "5277": 232,
        "5278": 48,
        "5279": 133,
        "5280": 79,
        "5281": 245,
        "5282": 174,
        "5283": 45,
        "5284": 43,
        "5285": 226,
        "5286": 59,
        "5287": 10,
        "5288": 212,
        "5289": 161,
        "5290": 90,
        "5291": 26,
        "5292": 160,
        "5293": 8,
        "5294": 191,
        "5295": 157,
        "5296": 226,
        "5297": 238,
        "5298": 132,
        "5299": 151,
        "5300": 0,
        "5301": 128,
        "5302": 42,
        "5303": 72,
        "5304": 84,
        "5305": 174,
        "5306": 22,
        "5307": 31,
        "5308": 7,
        "5309": 124,
        "5310": 240,
        "5311": 176,
        "5312": 149,
        "5313": 145,
        "5314": 197,
        "5315": 109,
        "5316": 205,
        "5317": 111,
        "5318": 18,
        "5319": 176,
        "5320": 108,
        "5321": 152,
        "5322": 122,
        "5323": 4,
        "5324": 88,
        "5325": 246,
        "5326": 240,
        "5327": 238,
        "5328": 73,
        "5329": 200,
        "5330": 21,
        "5331": 118,
        "5332": 142,
        "5333": 125,
        "5334": 90,
        "5335": 82,
        "5336": 227,
        "5337": 107,
        "5338": 182,
        "5339": 154,
        "5340": 69,
        "5341": 95,
        "5342": 210,
        "5343": 34,
        "5344": 148,
        "5345": 219,
        "5346": 44,
        "5347": 223,
        "5348": 161,
        "5349": 32,
        "5350": 245,
        "5351": 238,
        "5352": 155,
        "5353": 192,
        "5354": 85,
        "5355": 99,
        "5356": 248,
        "5357": 251,
        "5358": 67,
        "5359": 76,
        "5360": 120,
        "5361": 137,
        "5362": 237,
        "5363": 175,
        "5364": 180,
        "5365": 213,
        "5366": 120,
        "5367": 20,
        "5368": 154,
        "5369": 57,
        "5370": 252,
        "5371": 171,
        "5372": 51,
        "5373": 148,
        "5374": 70,
        "5375": 27,
        "5376": 231,
        "5377": 129,
        "5378": 224,
        "5379": 117,
        "5380": 199,
        "5381": 78,
        "5382": 179,
        "5383": 224,
        "5384": 79,
        "5385": 87,
        "5386": 162,
        "5387": 77,
        "5388": 137,
        "5389": 227,
        "5390": 225,
        "5391": 142,
        "5392": 142,
        "5393": 174,
        "5394": 61,
        "5395": 25,
        "5396": 174,
        "5397": 126,
        "5398": 245,
        "5399": 95,
        "5400": 44,
        "5401": 50,
        "5402": 24,
        "5403": 192,
        "5404": 24,
        "5405": 100,
        "5406": 79,
        "5407": 129,
        "5408": 26,
        "5409": 206,
        "5410": 187,
        "5411": 166,
        "5412": 7,
        "5413": 213,
        "5414": 163,
        "5415": 198,
        "5416": 104,
        "5417": 58,
        "5418": 116,
        "5419": 16,
        "5420": 93,
        "5421": 129,
        "5422": 116,
        "5423": 0,
        "5424": 173,
        "5425": 106,
        "5426": 169,
        "5427": 64,
        "5428": 67,
        "5429": 34,
        "5430": 252,
        "5431": 131,
        "5432": 198,
        "5433": 164,
        "5434": 144,
        "5435": 150,
        "5436": 1,
        "5437": 244,
        "5438": 36,
        "5439": 151,
        "5440": 125,
        "5441": 115,
        "5442": 215,
        "5443": 4,
        "5444": 160,
        "5445": 235,
        "5446": 233,
        "5447": 167,
        "5448": 177,
        "5449": 140,
        "5450": 58,
        "5451": 149,
        "5452": 0,
        "5453": 94,
        "5454": 179,
        "5455": 238,
        "5456": 236,
        "5457": 190,
        "5458": 85,
        "5459": 133,
        "5460": 170,
        "5461": 166,
        "5462": 229,
        "5463": 5,
        "5464": 191,
        "5465": 15,
        "5466": 65,
        "5467": 7,
        "5468": 58,
        "5469": 49,
        "5470": 254,
        "5471": 94,
        "5472": 81,
        "5473": 197,
        "5474": 27,
        "5475": 123,
        "5476": 186,
        "5477": 184,
        "5478": 129,
        "5479": 196,
        "5480": 146,
        "5481": 198,
        "5482": 39,
        "5483": 130,
        "5484": 209,
        "5485": 242,
        "5486": 227,
        "5487": 105,
        "5488": 155,
        "5489": 227,
        "5490": 44,
        "5491": 150,
        "5492": 46,
        "5493": 190,
        "5494": 38,
        "5495": 65,
        "5496": 216,
        "5497": 105,
        "5498": 42,
        "5499": 199,
        "5500": 73,
        "5501": 119,
        "5502": 30,
        "5503": 87,
        "5504": 55,
        "5505": 145,
        "5506": 111,
        "5507": 6,
        "5508": 150,
        "5509": 65,
        "5510": 235,
        "5511": 154,
        "5512": 11,
        "5513": 201,
        "5514": 208,
        "5515": 14,
        "5516": 67,
        "5517": 21,
        "5518": 218,
        "5519": 66,
        "5520": 64,
        "5521": 179,
        "5522": 188,
        "5523": 36,
        "5524": 5,
        "5525": 164,
        "5526": 56,
        "5527": 76,
        "5528": 38,
        "5529": 10,
        "5530": 118,
        "5531": 121,
        "5532": 16,
        "5533": 128,
        "5534": 12,
        "5535": 115,
        "5536": 152,
        "5537": 76,
        "5538": 71,
        "5539": 171,
        "5540": 32,
        "5541": 221,
        "5542": 19,
        "5543": 186,
        "5544": 193,
        "5545": 206,
        "5546": 45,
        "5547": 243,
        "5548": 60,
        "5549": 146,
        "5550": 231,
        "5551": 106,
        "5552": 32,
        "5553": 93,
        "5554": 165,
        "5555": 48,
        "5556": 13,
        "5557": 46,
        "5558": 163,
        "5559": 47,
        "5560": 175,
        "5561": 84,
        "5562": 139,
        "5563": 229,
        "5564": 159,
        "5565": 88,
        "5566": 165,
        "5567": 111,
        "5568": 162,
        "5569": 144,
        "5570": 119,
        "5571": 76,
        "5572": 25,
        "5573": 81,
        "5574": 155,
        "5575": 39,
        "5576": 150,
        "5577": 42,
        "5578": 193,
        "5579": 243,
        "5580": 181,
        "5581": 18,
        "5582": 188,
        "5583": 108,
        "5584": 209,
        "5585": 128,
        "5586": 216,
        "5587": 247,
        "5588": 215,
        "5589": 147,
        "5590": 194,
        "5591": 153,
        "5592": 211,
        "5593": 207,
        "5594": 136,
        "5595": 53,
        "5596": 106,
        "5597": 43,
        "5598": 48,
        "5599": 232,
        "5600": 36,
        "5601": 146,
        "5602": 255,
        "5603": 72,
        "5604": 143,
        "5605": 20,
        "5606": 71,
        "5607": 148,
        "5608": 152,
        "5609": 243,
        "5610": 217,
        "5611": 129,
        "5612": 195,
        "5613": 234,
        "5614": 72,
        "5615": 120,
        "5616": 255,
        "5617": 45,
        "5618": 48,
        "5619": 147,
        "5620": 53,
        "5621": 211,
        "5622": 183,
        "5623": 136,
        "5624": 94,
        "5625": 160,
        "5626": 243,
        "5627": 199,
        "5628": 44,
        "5629": 88,
        "5630": 163,
        "5631": 241,
        "5632": 139,
        "5633": 14,
        "5634": 161,
        "5635": 102,
        "5636": 203,
        "5637": 188,
        "5638": 25,
        "5639": 210,
        "5640": 230,
        "5641": 155,
        "5642": 243,
        "5643": 234,
        "5644": 212,
        "5645": 228,
        "5646": 151,
        "5647": 154,
        "5648": 114,
        "5649": 105,
        "5650": 36,
        "5651": 87,
        "5652": 101,
        "5653": 214,
        "5654": 162,
        "5655": 68,
        "5656": 189,
        "5657": 212,
        "5658": 221,
        "5659": 49,
        "5660": 155,
        "5661": 177,
        "5662": 130,
        "5663": 203,
        "5664": 65,
        "5665": 92,
        "5666": 80,
        "5667": 95,
        "5668": 41,
        "5669": 209,
        "5670": 103,
        "5671": 167,
        "5672": 12,
        "5673": 225,
        "5674": 175,
        "5675": 202,
        "5676": 92,
        "5677": 183,
        "5678": 112,
        "5679": 203,
        "5680": 97,
        "5681": 117,
        "5682": 5,
        "5683": 191,
        "5684": 170,
        "5685": 10,
        "5686": 158,
        "5687": 238,
        "5688": 170,
        "5689": 127,
        "5690": 42,
        "5691": 69,
        "5692": 149,
        "5693": 159,
        "5694": 197,
        "5695": 4,
        "5696": 222,
        "5697": 23,
        "5698": 97,
        "5699": 28,
        "5700": 138,
        "5701": 127,
        "5702": 1,
        "5703": 133,
        "5704": 114,
        "5705": 211,
        "5706": 254,
        "5707": 226,
        "5708": 181,
        "5709": 230,
        "5710": 44,
        "5711": 135,
        "5712": 146,
        "5713": 243,
        "5714": 89,
        "5715": 203,
        "5716": 86,
        "5717": 22,
        "5718": 254,
        "5719": 138,
        "5720": 248,
        "5721": 246,
        "5722": 57,
        "5723": 190,
        "5724": 34,
        "5725": 195,
        "5726": 86,
        "5727": 60,
        "5728": 169,
        "5729": 49,
        "5730": 76,
        "5731": 85,
        "5732": 36,
        "5733": 140,
        "5734": 14,
        "5735": 148,
        "5736": 242,
        "5737": 46,
        "5738": 130,
        "5739": 133,
        "5740": 187,
        "5741": 104,
        "5742": 10,
        "5743": 202,
        "5744": 47,
        "5745": 222,
        "5746": 15,
        "5747": 128,
        "5748": 62,
        "5749": 216,
        "5750": 11,
        "5751": 103,
        "5752": 100,
        "5753": 132,
        "5754": 82,
        "5755": 161,
        "5756": 72,
        "5757": 14,
        "5758": 209,
        "5759": 178,
        "5760": 209,
        "5761": 187,
        "5762": 240,
        "5763": 75,
        "5764": 235,
        "5765": 232,
        "5766": 249,
        "5767": 55,
        "5768": 138,
        "5769": 230,
        "5770": 148,
        "5771": 2,
        "5772": 74,
        "5773": 160,
        "5774": 24,
        "5775": 171,
        "5776": 185,
        "5777": 112,
        "5778": 75,
        "5779": 67,
        "5780": 41,
        "5781": 62,
        "5782": 236,
        "5783": 224,
        "5784": 127,
        "5785": 50,
        "5786": 107,
        "5787": 114,
        "5788": 47,
        "5789": 43,
        "5790": 145,
        "5791": 144,
        "5792": 31,
        "5793": 12,
        "5794": 87,
        "5795": 243,
        "5796": 200,
        "5797": 44,
        "5798": 38,
        "5799": 175,
        "5800": 117,
        "5801": 250,
        "5802": 173,
        "5803": 131,
        "5804": 218,
        "5805": 87,
        "5806": 53,
        "5807": 226,
        "5808": 97,
        "5809": 83,
        "5810": 240,
        "5811": 39,
        "5812": 192,
        "5813": 215,
        "5814": 11,
        "5815": 97,
        "5816": 186,
        "5817": 5,
        "5818": 156,
        "5819": 77,
        "5820": 248,
        "5821": 203,
        "5822": 39,
        "5823": 25,
        "5824": 149,
        "5825": 184,
        "5826": 12,
        "5827": 75,
        "5828": 77,
        "5829": 164,
        "5830": 202,
        "5831": 241,
        "5832": 187,
        "5833": 23,
        "5834": 173,
        "5835": 197,
        "5836": 40,
        "5837": 199,
        "5838": 138,
        "5839": 4,
        "5840": 11,
        "5841": 103,
        "5842": 172,
        "5843": 76,
        "5844": 77,
        "5845": 147,
        "5846": 43,
        "5847": 69,
        "5848": 98,
        "5849": 166,
        "5850": 196,
        "5851": 60,
        "5852": 49,
        "5853": 41,
        "5854": 27,
        "5855": 109,
        "5856": 115,
        "5857": 10,
        "5858": 116,
        "5859": 22,
        "5860": 237,
        "5861": 2,
        "5862": 21,
        "5863": 171,
        "5864": 23,
        "5865": 24,
        "5866": 159,
        "5867": 212,
        "5868": 49,
        "5869": 150,
        "5870": 171,
        "5871": 154,
        "5872": 158,
        "5873": 249,
        "5874": 88,
        "5875": 101,
        "5876": 41,
        "5877": 171,
        "5878": 80,
        "5879": 243,
        "5880": 181,
        "5881": 218,
        "5882": 22,
        "5883": 121,
        "5884": 152,
        "5885": 231,
        "5886": 109,
        "5887": 78,
        "5888": 224,
        "5889": 186,
        "5890": 201,
        "5891": 11,
        "5892": 178,
        "5893": 133,
        "5894": 117,
        "5895": 19,
        "5896": 18,
        "5897": 145,
        "5898": 96,
        "5899": 195,
        "5900": 84,
        "5901": 107,
        "5902": 53,
        "5903": 65,
        "5904": 36,
        "5905": 71,
        "5906": 167,
        "5907": 235,
        "5908": 188,
        "5909": 184,
        "5910": 178,
        "5911": 230,
        "5912": 104,
        "5913": 53,
        "5914": 62,
        "5915": 122,
        "5916": 180,
        "5917": 104,
        "5918": 66,
        "5919": 191,
        "5920": 147,
        "5921": 38,
        "5922": 5,
        "5923": 151,
        "5924": 187,
        "5925": 25,
        "5926": 190,
        "5927": 156,
        "5928": 58,
        "5929": 37,
        "5930": 92,
        "5931": 128,
        "5932": 64,
        "5933": 213,
        "5934": 88,
        "5935": 231,
        "5936": 58,
        "5937": 68,
        "5938": 32,
        "5939": 144,
        "5940": 165,
        "5941": 152,
        "5942": 221,
        "5943": 83,
        "5944": 182,
        "5945": 247,
        "5946": 242,
        "5947": 168,
        "5948": 200,
        "5949": 216,
        "5950": 110,
        "5951": 159,
        "5952": 140,
        "5953": 197,
        "5954": 167,
        "5955": 75,
        "5956": 133,
        "5957": 235,
        "5958": 77,
        "5959": 67,
        "5960": 13,
        "5961": 154,
        "5962": 154,
        "5963": 189,
        "5964": 12,
        "5965": 38,
        "5966": 244,
        "5967": 151,
        "5968": 173,
        "5969": 113,
        "5970": 173,
        "5971": 198,
        "5972": 246,
        "5973": 173,
        "5974": 174,
        "5975": 176,
        "5976": 127,
        "5977": 57,
        "5978": 220,
        "5979": 141,
        "5980": 110,
        "5981": 9,
        "5982": 103,
        "5983": 206,
        "5984": 229,
        "5985": 181,
        "5986": 27,
        "5987": 86,
        "5988": 129,
        "5989": 159,
        "5990": 79,
        "5991": 128,
        "5992": 77,
        "5993": 67,
        "5994": 85,
        "5995": 184,
        "5996": 137,
        "5997": 220,
        "5998": 169,
        "5999": 227,
        "6000": 223,
        "6001": 36,
        "6002": 60,
        "6003": 148,
        "6004": 63,
        "6005": 8,
        "6006": 144,
        "6007": 82,
        "6008": 195,
        "6009": 228,
        "6010": 173,
        "6011": 228,
        "6012": 139,
        "6013": 206,
        "6014": 167,
        "6015": 182,
        "6016": 92,
        "6017": 131,
        "6018": 3,
        "6019": 11,
        "6020": 30,
        "6021": 243,
        "6022": 167,
        "6023": 81,
        "6024": 59,
        "6025": 161,
        "6026": 102,
        "6027": 230,
        "6028": 143,
        "6029": 179,
        "6030": 218,
        "6031": 61,
        "6032": 250,
        "6033": 195,
        "6034": 43,
        "6035": 76,
        "6036": 179,
        "6037": 239,
        "6038": 67,
        "6039": 42,
        "6040": 228,
        "6041": 30,
        "6042": 113,
        "6043": 2,
        "6044": 77,
        "6045": 55,
        "6046": 207,
        "6047": 39,
        "6048": 188,
        "6049": 191,
        "6050": 177,
        "6051": 19,
        "6052": 119,
        "6053": 12,
        "6054": 48,
        "6055": 23,
        "6056": 118,
        "6057": 129,
        "6058": 179,
        "6059": 166,
        "6060": 32,
        "6061": 210,
        "6062": 149,
        "6063": 139,
        "6064": 55,
        "6065": 149,
        "6066": 151,
        "6067": 175,
        "6068": 209,
        "6069": 197,
        "6070": 143,
        "6071": 133,
        "6072": 137,
        "6073": 190,
        "6074": 159,
        "6075": 12,
        "6076": 63,
        "6077": 79,
        "6078": 176,
        "6079": 92,
        "6080": 54,
        "6081": 148,
        "6082": 37,
        "6083": 98,
        "6084": 99,
        "6085": 60,
        "6086": 196,
        "6087": 99,
        "6088": 119,
        "6089": 249,
        "6090": 45,
        "6091": 132,
        "6092": 25,
        "6093": 39,
        "6094": 166,
        "6095": 195,
        "6096": 153,
        "6097": 113,
        "6098": 101,
        "6099": 14,
        "6100": 240,
        "6101": 3,
        "6102": 134,
        "6103": 46,
        "6104": 63,
        "6105": 155,
        "6106": 67,
        "6107": 78,
        "6108": 210,
        "6109": 158,
        "6110": 246,
        "6111": 228,
        "6112": 191,
        "6113": 43,
        "6114": 123,
        "6115": 97,
        "6116": 199,
        "6117": 239,
        "6118": 14,
        "6119": 23,
        "6120": 149,
        "6121": 182,
        "6122": 171,
        "6123": 121,
        "6124": 12,
        "6125": 88,
        "6126": 32,
        "6127": 158,
        "6128": 218,
        "6129": 119,
        "6130": 209,
        "6131": 0,
        "6132": 100,
        "6133": 91,
        "6134": 68,
        "6135": 168,
        "6136": 163,
        "6137": 29,
        "6138": 220,
        "6139": 235,
        "6140": 213,
        "6141": 179,
        "6142": 18,
        "6143": 219,
        "6144": 138,
        "6145": 235,
        "6146": 28,
        "6147": 155,
        "6148": 118,
        "6149": 79,
        "6150": 20,
        "6151": 242,
        "6152": 227,
        "6153": 163,
        "6154": 118,
        "6155": 248,
        "6156": 231,
        "6157": 1,
        "6158": 105,
        "6159": 48,
        "6160": 204,
        "6161": 91,
        "6162": 226,
        "6163": 249,
        "6164": 80,
        "6165": 28,
        "6166": 246,
        "6167": 183,
        "6168": 11,
        "6169": 199,
        "6170": 254,
        "6171": 99,
        "6172": 148,
        "6173": 107,
        "6174": 70,
        "6175": 161,
        "6176": 224,
        "6177": 243,
        "6178": 219,
        "6179": 86,
        "6180": 28,
        "6181": 9,
        "6182": 88,
        "6183": 147,
        "6184": 80,
        "6185": 164,
        "6186": 15,
        "6187": 10,
        "6188": 184,
        "6189": 51,
        "6190": 133,
        "6191": 97,
        "6192": 206,
        "6193": 243,
        "6194": 48,
        "6195": 1,
        "6196": 153,
        "6197": 138,
        "6198": 11,
        "6199": 122,
        "6200": 124,
        "6201": 75,
        "6202": 172,
        "6203": 243,
        "6204": 238,
        "6205": 113,
        "6206": 173,
        "6207": 154,
        "6208": 46,
        "6209": 63,
        "6210": 214,
        "6211": 134,
        "6212": 166,
        "6213": 68,
        "6214": 109,
        "6215": 218,
        "6216": 177,
        "6217": 114,
        "6218": 97,
        "6219": 99,
        "6220": 81,
        "6221": 18,
        "6222": 57,
        "6223": 175,
        "6224": 33,
        "6225": 108,
        "6226": 183,
        "6227": 211,
        "6228": 176,
        "6229": 203,
        "6230": 7,
        "6231": 68,
        "6232": 183,
        "6233": 103,
        "6234": 181,
        "6235": 20,
        "6236": 126,
        "6237": 251,
        "6238": 172,
        "6239": 107,
        "6240": 250,
        "6241": 250,
        "6242": 108,
        "6243": 192,
        "6244": 15,
        "6245": 94,
        "6246": 126,
        "6247": 44,
        "6248": 142,
        "6249": 18,
        "6250": 194,
        "6251": 136,
        "6252": 219,
        "6253": 188,
        "6254": 228,
        "6255": 56,
        "6256": 150,
        "6257": 228,
        "6258": 77,
        "6259": 105,
        "6260": 80,
        "6261": 55,
        "6262": 229,
        "6263": 246,
        "6264": 235,
        "6265": 112,
        "6266": 154,
        "6267": 145,
        "6268": 60,
        "6269": 6,
        "6270": 109,
        "6271": 41,
        "6272": 205,
        "6273": 212,
        "6274": 31,
        "6275": 76,
        "6276": 81,
        "6277": 201,
        "6278": 151,
        "6279": 189,
        "6280": 41,
        "6281": 176,
        "6282": 14,
        "6283": 183,
        "6284": 119,
        "6285": 211,
        "6286": 109,
        "6287": 229,
        "6288": 131,
        "6289": 78,
        "6290": 132,
        "6291": 123,
        "6292": 131,
        "6293": 228,
        "6294": 34,
        "6295": 39,
        "6296": 71,
        "6297": 118,
        "6298": 195,
        "6299": 49,
        "6300": 246,
        "6301": 222,
        "6302": 6,
        "6303": 206,
        "6304": 234,
        "6305": 126,
        "6306": 252,
        "6307": 189,
        "6308": 48,
        "6309": 248,
        "6310": 134,
        "6311": 222,
        "6312": 182,
        "6313": 240,
        "6314": 95,
        "6315": 182,
        "6316": 122,
        "6317": 42,
        "6318": 118,
        "6319": 19,
        "6320": 209,
        "6321": 118,
        "6322": 73,
        "6323": 44,
        "6324": 247,
        "6325": 66,
        "6326": 142,
        "6327": 18,
        "6328": 151,
        "6329": 89,
        "6330": 192,
        "6331": 180,
        "6332": 182,
        "6333": 123,
        "6334": 74,
        "6335": 232,
        "6336": 26,
        "6337": 102,
        "6338": 3,
        "6339": 56,
        "6340": 106,
        "6341": 141,
        "6342": 188,
        "6343": 52,
        "6344": 113,
        "6345": 12,
        "6346": 227,
        "6347": 157,
        "6348": 112,
        "6349": 193,
        "6350": 189,
        "6351": 197,
        "6352": 35,
        "6353": 172,
        "6354": 161,
        "6355": 36,
        "6356": 72,
        "6357": 160,
        "6358": 101,
        "6359": 29,
        "6360": 167,
        "6361": 14,
        "6362": 193,
        "6363": 23,
        "6364": 0,
        "6365": 111,
        "6366": 52,
        "6367": 11,
        "6368": 211,
        "6369": 234,
        "6370": 55,
        "6371": 67,
        "6372": 173,
        "6373": 48,
        "6374": 127,
        "6375": 149,
        "6376": 34,
        "6377": 61,
        "6378": 237,
        "6379": 110,
        "6380": 209,
        "6381": 108,
        "6382": 213,
        "6383": 7,
        "6384": 181,
        "6385": 174,
        "6386": 94,
        "6387": 87,
        "6388": 46,
        "6389": 86,
        "6390": 52,
        "6391": 77,
        "6392": 124,
        "6393": 69,
        "6394": 190,
        "6395": 41,
        "6396": 170,
        "6397": 214,
        "6398": 203,
        "6399": 222,
        "6400": 130,
        "6401": 196,
        "6402": 22,
        "6403": 198,
        "6404": 214,
        "6405": 209,
        "6406": 51,
        "6407": 25,
        "6408": 168,
        "6409": 176,
        "6410": 83,
        "6411": 20,
        "6412": 247,
        "6413": 198,
        "6414": 27,
        "6415": 228,
        "6416": 165,
        "6417": 191,
        "6418": 49,
        "6419": 111,
        "6420": 251,
        "6421": 35,
        "6422": 129,
        "6423": 230,
        "6424": 77,
        "6425": 40,
        "6426": 154,
        "6427": 68,
        "6428": 88,
        "6429": 190,
        "6430": 86,
        "6431": 194,
        "6432": 145,
        "6433": 205,
        "6434": 40,
        "6435": 85,
        "6436": 222,
        "6437": 9,
        "6438": 117,
        "6439": 66,
        "6440": 97,
        "6441": 172,
        "6442": 238,
        "6443": 165,
        "6444": 165,
        "6445": 51,
        "6446": 251,
        "6447": 23,
        "6448": 241,
        "6449": 228,
        "6450": 73,
        "6451": 195,
        "6452": 43,
        "6453": 176,
        "6454": 221,
        "6455": 150,
        "6456": 199,
        "6457": 200,
        "6458": 100,
        "6459": 64,
        "6460": 139,
        "6461": 80,
        "6462": 207,
        "6463": 217,
        "6464": 46,
        "6465": 169,
        "6466": 237,
        "6467": 98,
        "6468": 27,
        "6469": 181,
        "6470": 59,
        "6471": 139,
        "6472": 251,
        "6473": 191,
        "6474": 98,
        "6475": 112,
        "6476": 73,
        "6477": 208,
        "6478": 204,
        "6479": 46,
        "6480": 74,
        "6481": 175,
        "6482": 5,
        "6483": 234,
        "6484": 210,
        "6485": 187,
        "6486": 99,
        "6487": 126,
        "6488": 163,
        "6489": 245,
        "6490": 166,
        "6491": 65,
        "6492": 232,
        "6493": 238,
        "6494": 215,
        "6495": 119,
        "6496": 159,
        "6497": 60,
        "6498": 31,
        "6499": 7,
        "6500": 54,
        "6501": 114,
        "6502": 158,
        "6503": 245,
        "6504": 160,
        "6505": 135,
        "6506": 160,
        "6507": 118,
        "6508": 175,
        "6509": 214,
        "6510": 43,
        "6511": 19,
        "6512": 173,
        "6513": 71,
        "6514": 65,
        "6515": 130,
        "6516": 174,
        "6517": 196,
        "6518": 247,
        "6519": 212,
        "6520": 13,
        "6521": 233,
        "6522": 47,
        "6523": 28,
        "6524": 80,
        "6525": 185,
        "6526": 80,
        "6527": 33,
        "6528": 234,
        "6529": 165,
        "6530": 63,
        "6531": 69,
        "6532": 29,
        "6533": 53,
        "6534": 119,
        "6535": 148,
        "6536": 51,
        "6537": 127,
        "6538": 64,
        "6539": 153,
        "6540": 87,
        "6541": 249,
        "6542": 32,
        "6543": 123,
        "6544": 21,
        "6545": 137,
        "6546": 33,
        "6547": 5,
        "6548": 249,
        "6549": 161,
        "6550": 98,
        "6551": 191,
        "6552": 43,
        "6553": 1,
        "6554": 172,
        "6555": 90,
        "6556": 21,
        "6557": 3,
        "6558": 185,
        "6559": 78,
        "6560": 63,
        "6561": 30,
        "6562": 46,
        "6563": 152,
        "6564": 142,
        "6565": 170,
        "6566": 254,
        "6567": 81,
        "6568": 134,
        "6569": 150,
        "6570": 174,
        "6571": 90,
        "6572": 138,
        "6573": 208,
        "6574": 198,
        "6575": 135,
        "6576": 102,
        "6577": 165,
        "6578": 50,
        "6579": 145,
        "6580": 211,
        "6581": 91,
        "6582": 148,
        "6583": 207,
        "6584": 176,
        "6585": 164,
        "6586": 158,
        "6587": 246,
        "6588": 127,
        "6589": 88,
        "6590": 52,
        "6591": 90,
        "6592": 226,
        "6593": 104,
        "6594": 193,
        "6595": 65,
        "6596": 64,
        "6597": 144,
        "6598": 15,
        "6599": 172,
        "6600": 112,
        "6601": 17,
        "6602": 12,
        "6603": 131,
        "6604": 172,
        "6605": 207,
        "6606": 140,
        "6607": 236,
        "6608": 141,
        "6609": 205,
        "6610": 247,
        "6611": 3,
        "6612": 183,
        "6613": 236,
        "6614": 79,
        "6615": 72,
        "6616": 86,
        "6617": 159,
        "6618": 148,
        "6619": 74,
        "6620": 233,
        "6621": 40,
        "6622": 62,
        "6623": 134,
        "6624": 214,
        "6625": 73,
        "6626": 116,
        "6627": 85,
        "6628": 58,
        "6629": 89,
        "6630": 66,
        "6631": 101,
        "6632": 119,
        "6633": 76,
        "6634": 31,
        "6635": 138,
        "6636": 229,
        "6637": 150,
        "6638": 68,
        "6639": 133,
        "6640": 139,
        "6641": 141,
        "6642": 190,
        "6643": 172,
        "6644": 137,
        "6645": 28,
        "6646": 235,
        "6647": 127,
        "6648": 206,
        "6649": 68,
        "6650": 70,
        "6651": 86,
        "6652": 79,
        "6653": 75,
        "6654": 105,
        "6655": 232,
        "6656": 213,
        "6657": 107,
        "6658": 177,
        "6659": 65,
        "6660": 105,
        "6661": 151,
        "6662": 164,
        "6663": 200,
        "6664": 216,
        "6665": 166,
        "6666": 52,
        "6667": 42,
        "6668": 212,
        "6669": 83,
        "6670": 107,
        "6671": 70,
        "6672": 21,
        "6673": 234,
        "6674": 178,
        "6675": 95,
        "6676": 162,
        "6677": 43,
        "6678": 145,
        "6679": 167,
        "6680": 138,
        "6681": 37,
        "6682": 18,
        "6683": 139,
        "6684": 8,
        "6685": 113,
        "6686": 28,
        "6687": 46,
        "6688": 179,
        "6689": 28,
        "6690": 151,
        "6691": 83,
        "6692": 239,
        "6693": 59,
        "6694": 163,
        "6695": 10,
        "6696": 23,
        "6697": 199,
        "6698": 250,
        "6699": 167,
        "6700": 122,
        "6701": 43,
        "6702": 95,
        "6703": 159,
        "6704": 252,
        "6705": 252,
        "6706": 222,
        "6707": 201,
        "6708": 36,
        "6709": 12,
        "6710": 102,
        "6711": 172,
        "6712": 95,
        "6713": 157,
        "6714": 125,
        "6715": 161,
        "6716": 68,
        "6717": 228,
        "6718": 33,
        "6719": 86,
        "6720": 76,
        "6721": 0,
        "6722": 252,
        "6723": 247,
        "6724": 28,
        "6725": 34,
        "6726": 10,
        "6727": 158,
        "6728": 194,
        "6729": 1,
        "6730": 130,
        "6731": 106,
        "6732": 159,
        "6733": 37,
        "6734": 251,
        "6735": 228,
        "6736": 139,
        "6737": 227,
        "6738": 172,
        "6739": 182,
        "6740": 14,
        "6741": 86,
        "6742": 67,
        "6743": 136,
        "6744": 95,
        "6745": 100,
        "6746": 165,
        "6747": 55,
        "6748": 60,
        "6749": 155,
        "6750": 243,
        "6751": 203,
        "6752": 154,
        "6753": 223,
        "6754": 40,
        "6755": 38,
        "6756": 88,
        "6757": 250,
        "6758": 171,
        "6759": 241,
        "6760": 235,
        "6761": 72,
        "6762": 252,
        "6763": 50,
        "6764": 235,
        "6765": 168,
        "6766": 102,
        "6767": 39,
        "6768": 26,
        "6769": 29,
        "6770": 79,
        "6771": 189,
        "6772": 81,
        "6773": 100,
        "6774": 205,
        "6775": 205,
        "6776": 239,
        "6777": 190,
        "6778": 240,
        "6779": 150,
        "6780": 56,
        "6781": 21,
        "6782": 129,
        "6783": 235,
        "6784": 76,
        "6785": 79,
        "6786": 78,
        "6787": 245,
        "6788": 204,
        "6789": 200,
        "6790": 55,
        "6791": 79,
        "6792": 255,
        "6793": 16,
        "6794": 35,
        "6795": 199,
        "6796": 142,
        "6797": 230,
        "6798": 18,
        "6799": 182,
        "6800": 32,
        "6801": 119,
        "6802": 182,
        "6803": 123,
        "6804": 220,
        "6805": 251,
        "6806": 143,
        "6807": 205,
        "6808": 15,
        "6809": 231,
        "6810": 96,
        "6811": 14,
        "6812": 80,
        "6813": 86,
        "6814": 43,
        "6815": 123,
        "6816": 55,
        "6817": 104,
        "6818": 187,
        "6819": 77,
        "6820": 106,
        "6821": 30,
        "6822": 244,
        "6823": 199,
        "6824": 85,
        "6825": 146,
        "6826": 62,
        "6827": 155,
        "6828": 220,
        "6829": 235,
        "6830": 195,
        "6831": 17,
        "6832": 208,
        "6833": 212,
        "6834": 67,
        "6835": 21,
        "6836": 2,
        "6837": 2,
        "6838": 137,
        "6839": 196,
        "6840": 248,
        "6841": 12,
        "6842": 22,
        "6843": 57,
        "6844": 157,
        "6845": 93,
        "6846": 57,
        "6847": 227,
        "6848": 200,
        "6849": 99,
        "6850": 184,
        "6851": 216,
        "6852": 161,
        "6853": 42,
        "6854": 16,
        "6855": 92,
        "6856": 254,
        "6857": 88,
        "6858": 45,
        "6859": 118,
        "6860": 54,
        "6861": 191,
        "6862": 22,
        "6863": 181,
        "6864": 190,
        "6865": 48,
        "6866": 202,
        "6867": 9,
        "6868": 228,
        "6869": 38,
        "6870": 168,
        "6871": 93,
        "6872": 233,
        "6873": 210,
        "6874": 55,
        "6875": 237,
        "6876": 7,
        "6877": 209,
        "6878": 209,
        "6879": 111,
        "6880": 86,
        "6881": 215,
        "6882": 58,
        "6883": 84,
        "6884": 214,
        "6885": 241,
        "6886": 155,
        "6887": 69,
        "6888": 195,
        "6889": 17,
        "6890": 180,
        "6891": 116,
        "6892": 216,
        "6893": 74,
        "6894": 216,
        "6895": 42,
        "6896": 178,
        "6897": 29,
        "6898": 175,
        "6899": 191,
        "6900": 95,
        "6901": 140,
        "6902": 166,
        "6903": 63,
        "6904": 81,
        "6905": 167,
        "6906": 233,
        "6907": 27,
        "6908": 119,
        "6909": 205,
        "6910": 219,
        "6911": 40,
        "6912": 39,
        "6913": 111,
        "6914": 46,
        "6915": 11,
        "6916": 208,
        "6917": 239,
        "6918": 57,
        "6919": 245,
        "6920": 32,
        "6921": 34,
        "6922": 35,
        "6923": 76,
        "6924": 244,
        "6925": 202,
        "6926": 117,
        "6927": 207,
        "6928": 141,
        "6929": 17,
        "6930": 52,
        "6931": 251,
        "6932": 208,
        "6933": 1,
        "6934": 155,
        "6935": 209,
        "6936": 124,
        "6937": 196,
        "6938": 46,
        "6939": 147,
        "6940": 120,
        "6941": 169,
        "6942": 136,
        "6943": 80,
        "6944": 54,
        "6945": 197,
        "6946": 58,
        "6947": 35,
        "6948": 13,
        "6949": 252,
        "6950": 250,
        "6951": 125,
        "6952": 45,
        "6953": 192,
        "6954": 34,
        "6955": 12,
        "6956": 59,
        "6957": 71,
        "6958": 56,
        "6959": 166,
        "6960": 200,
        "6961": 11,
        "6962": 164,
        "6963": 52,
        "6964": 184,
        "6965": 238,
        "6966": 245,
        "6967": 156,
        "6968": 212,
        "6969": 191,
        "6970": 122,
        "6971": 44,
        "6972": 217,
        "6973": 144,
        "6974": 177,
        "6975": 51,
        "6976": 32,
        "6977": 90,
        "6978": 66,
        "6979": 131,
        "6980": 139,
        "6981": 213,
        "6982": 29,
        "6983": 54,
        "6984": 183,
        "6985": 130,
        "6986": 215,
        "6987": 251,
        "6988": 184,
        "6989": 28,
        "6990": 140,
        "6991": 11,
        "6992": 87,
        "6993": 102,
        "6994": 122,
        "6995": 230,
        "6996": 102,
        "6997": 112,
        "6998": 157,
        "6999": 25,
        "7000": 88,
        "7001": 107,
        "7002": 157,
        "7003": 101,
        "7004": 205,
        "7005": 71,
        "7006": 127,
        "7007": 64,
        "7008": 187,
        "7009": 152,
        "7010": 181,
        "7011": 164,
        "7012": 94,
        "7013": 119,
        "7014": 144,
        "7015": 85,
        "7016": 190,
        "7017": 245,
        "7018": 58,
        "7019": 0,
        "7020": 95,
        "7021": 120,
        "7022": 45,
        "7023": 151,
        "7024": 200,
        "7025": 137,
        "7026": 77,
        "7027": 213,
        "7028": 61,
        "7029": 88,
        "7030": 60,
        "7031": 154,
        "7032": 207,
        "7033": 146,
        "7034": 75,
        "7035": 61,
        "7036": 204,
        "7037": 90,
        "7038": 252,
        "7039": 0,
        "7040": 173,
        "7041": 201,
        "7042": 247,
        "7043": 191,
        "7044": 138,
        "7045": 149,
        "7046": 154,
        "7047": 53,
        "7048": 105,
        "7049": 220,
        "7050": 243,
        "7051": 214,
        "7052": 85,
        "7053": 73,
        "7054": 110,
        "7055": 116,
        "7056": 77,
        "7057": 197,
        "7058": 108,
        "7059": 92,
        "7060": 116,
        "7061": 251,
        "7062": 192,
        "7063": 218,
        "7064": 201,
        "7065": 80,
        "7066": 154,
        "7067": 63,
        "7068": 139,
        "7069": 83,
        "7070": 22,
        "7071": 234,
        "7072": 35,
        "7073": 203,
        "7074": 109,
        "7075": 174,
        "7076": 240,
        "7077": 185,
        "7078": 141,
        "7079": 117,
        "7080": 100,
        "7081": 132,
        "7082": 183,
        "7083": 172,
        "7084": 233,
        "7085": 173,
        "7086": 94,
        "7087": 70,
        "7088": 206,
        "7089": 60,
        "7090": 36,
        "7091": 184,
        "7092": 211,
        "7093": 7,
        "7094": 85,
        "7095": 8,
        "7096": 124,
        "7097": 104,
        "7098": 111,
        "7099": 106,
        "7100": 247,
        "7101": 132,
        "7102": 148,
        "7103": 58,
        "7104": 120,
        "7105": 105,
        "7106": 207,
        "7107": 99,
        "7108": 143,
        "7109": 218,
        "7110": 85,
        "7111": 16,
        "7112": 94,
        "7113": 193,
        "7114": 197,
        "7115": 216,
        "7116": 181,
        "7117": 234,
        "7118": 162,
        "7119": 203,
        "7120": 118,
        "7121": 233,
        "7122": 85,
        "7123": 224,
        "7124": 122,
        "7125": 34,
        "7126": 220,
        "7127": 58,
        "7128": 140,
        "7129": 54,
        "7130": 233,
        "7131": 230,
        "7132": 45,
        "7133": 169,
        "7134": 69,
        "7135": 27,
        "7136": 238,
        "7137": 234,
        "7138": 215,
        "7139": 45,
        "7140": 5,
        "7141": 77,
        "7142": 180,
        "7143": 164,
        "7144": 64,
        "7145": 60,
        "7146": 76,
        "7147": 223,
        "7148": 22,
        "7149": 59,
        "7150": 125,
        "7151": 19,
        "7152": 116,
        "7153": 145,
        "7154": 90,
        "7155": 4,
        "7156": 9,
        "7157": 20,
        "7158": 165,
        "7159": 252,
        "7160": 129,
        "7161": 203,
        "7162": 89,
        "7163": 225,
        "7164": 251,
        "7165": 148,
        "7166": 222,
        "7167": 207,
        "7168": 247,
        "7169": 59,
        "7170": 206,
        "7171": 19,
        "7172": 23,
        "7173": 64,
        "7174": 66,
        "7175": 154,
        "7176": 165,
        "7177": 203,
        "7178": 105,
        "7179": 90,
        "7180": 84,
        "7181": 246,
        "7182": 194,
        "7183": 78,
        "7184": 100,
        "7185": 163,
        "7186": 93,
        "7187": 225,
        "7188": 197,
        "7189": 89,
        "7190": 9,
        "7191": 0,
        "7192": 176,
        "7193": 5,
        "7194": 24,
        "7195": 97,
        "7196": 129,
        "7197": 183,
        "7198": 244,
        "7199": 1,
        "7200": 51,
        "7201": 86,
        "7202": 132,
        "7203": 213,
        "7204": 255,
        "7205": 215,
        "7206": 172,
        "7207": 42,
        "7208": 228,
        "7209": 86,
        "7210": 168,
        "7211": 107,
        "7212": 147,
        "7213": 68,
        "7214": 160,
        "7215": 163,
        "7216": 143,
        "7217": 118,
        "7218": 124,
        "7219": 139,
        "7220": 51,
        "7221": 55,
        "7222": 95,
        "7223": 228,
        "7224": 136,
        "7225": 79,
        "7226": 66,
        "7227": 221,
        "7228": 179,
        "7229": 238,
        "7230": 141,
        "7231": 147,
        "7232": 223,
        "7233": 237,
        "7234": 95,
        "7235": 244,
        "7236": 111,
        "7237": 104,
        "7238": 162,
        "7239": 18,
        "7240": 155,
        "7241": 148,
        "7242": 168,
        "7243": 41,
        "7244": 173,
        "7245": 80,
        "7246": 168,
        "7247": 211,
        "7248": 203,
        "7249": 169,
        "7250": 162,
        "7251": 140,
        "7252": 18,
        "7253": 180,
        "7254": 179,
        "7255": 115,
        "7256": 183,
        "7257": 54,
        "7258": 60,
        "7259": 235,
        "7260": 229,
        "7261": 127,
        "7262": 23,
        "7263": 21,
        "7264": 145,
        "7265": 203,
        "7266": 130,
        "7267": 181,
        "7268": 236,
        "7269": 196,
        "7270": 47,
        "7271": 169,
        "7272": 182,
        "7273": 230,
        "7274": 129,
        "7275": 43,
        "7276": 58,
        "7277": 137,
        "7278": 144,
        "7279": 155,
        "7280": 43,
        "7281": 41,
        "7282": 92,
        "7283": 62,
        "7284": 25,
        "7285": 149,
        "7286": 120,
        "7287": 198,
        "7288": 71,
        "7289": 133,
        "7290": 52,
        "7291": 199,
        "7292": 77,
        "7293": 124,
        "7294": 108,
        "7295": 99,
        "7296": 148,
        "7297": 224,
        "7298": 194,
        "7299": 65,
        "7300": 128,
        "7301": 30,
        "7302": 48,
        "7303": 21,
        "7304": 134,
        "7305": 151,
        "7306": 68,
        "7307": 220,
        "7308": 106,
        "7309": 161,
        "7310": 255,
        "7311": 136,
        "7312": 53,
        "7313": 100,
        "7314": 179,
        "7315": 120,
        "7316": 176,
        "7317": 15,
        "7318": 174,
        "7319": 42,
        "7320": 105,
        "7321": 235,
        "7322": 177,
        "7323": 64,
        "7324": 38,
        "7325": 187,
        "7326": 250,
        "7327": 8,
        "7328": 250,
        "7329": 2,
        "7330": 16,
        "7331": 21,
        "7332": 189,
        "7333": 164,
        "7334": 43,
        "7335": 112,
        "7336": 118,
        "7337": 250,
        "7338": 215,
        "7339": 39,
        "7340": 159,
        "7341": 63,
        "7342": 58,
        "7343": 209,
        "7344": 126,
        "7345": 188,
        "7346": 162,
        "7347": 32,
        "7348": 122,
        "7349": 104,
        "7350": 231,
        "7351": 253,
        "7352": 185,
        "7353": 81,
        "7354": 76,
        "7355": 180,
        "7356": 63,
        "7357": 93,
        "7358": 87,
        "7359": 186,
        "7360": 233,
        "7361": 135,
        "7362": 210,
        "7363": 6,
        "7364": 209,
        "7365": 23,
        "7366": 20,
        "7367": 187,
        "7368": 10,
        "7369": 209,
        "7370": 178,
        "7371": 25,
        "7372": 6,
        "7373": 255,
        "7374": 116,
        "7375": 177,
        "7376": 231,
        "7377": 30,
        "7378": 249,
        "7379": 161,
        "7380": 115,
        "7381": 134,
        "7382": 168,
        "7383": 164,
        "7384": 108,
        "7385": 49,
        "7386": 73,
        "7387": 223,
        "7388": 163,
        "7389": 230,
        "7390": 196,
        "7391": 184,
        "7392": 171,
        "7393": 56,
        "7394": 59,
        "7395": 56,
        "7396": 203,
        "7397": 183,
        "7398": 66,
        "7399": 18,
        "7400": 28,
        "7401": 209,
        "7402": 135,
        "7403": 165,
        "7404": 0,
        "7405": 162,
        "7406": 29,
        "7407": 238,
        "7408": 193,
        "7409": 84,
        "7410": 85,
        "7411": 211,
        "7412": 47,
        "7413": 20,
        "7414": 133,
        "7415": 55,
        "7416": 161,
        "7417": 61,
        "7418": 138,
        "7419": 127,
        "7420": 3,
        "7421": 81,
        "7422": 114,
        "7423": 181,
        "7424": 126,
        "7425": 202,
        "7426": 150,
        "7427": 178,
        "7428": 93,
        "7429": 57,
        "7430": 231,
        "7431": 58,
        "7432": 111,
        "7433": 158,
        "7434": 43,
        "7435": 229,
        "7436": 248,
        "7437": 13,
        "7438": 74,
        "7439": 90,
        "7440": 57,
        "7441": 155,
        "7442": 14,
        "7443": 84,
        "7444": 161,
        "7445": 13,
        "7446": 117,
        "7447": 132,
        "7448": 243,
        "7449": 244,
        "7450": 45,
        "7451": 110,
        "7452": 58,
        "7453": 24,
        "7454": 188,
        "7455": 47,
        "7456": 7,
        "7457": 10,
        "7458": 222,
        "7459": 29,
        "7460": 250,
        "7461": 61,
        "7462": 193,
        "7463": 234,
        "7464": 118,
        "7465": 75,
        "7466": 126,
        "7467": 209,
        "7468": 165,
        "7469": 12,
        "7470": 108,
        "7471": 199,
        "7472": 43,
        "7473": 20,
        "7474": 188,
        "7475": 87,
        "7476": 30,
        "7477": 57,
        "7478": 175,
        "7479": 162,
        "7480": 190,
        "7481": 186,
        "7482": 239,
        "7483": 155,
        "7484": 123,
        "7485": 146,
        "7486": 204,
        "7487": 91,
        "7488": 10,
        "7489": 243,
        "7490": 4,
        "7491": 95,
        "7492": 124,
        "7493": 94,
        "7494": 52,
        "7495": 225,
        "7496": 140,
        "7497": 13,
        "7498": 143,
        "7499": 250,
        "7500": 90,
        "7501": 24,
        "7502": 10,
        "7503": 120,
        "7504": 9,
        "7505": 14,
        "7506": 193,
        "7507": 133,
        "7508": 36,
        "7509": 54,
        "7510": 134,
        "7511": 254,
        "7512": 133,
        "7513": 218,
        "7514": 13,
        "7515": 234,
        "7516": 61,
        "7517": 253,
        "7518": 172,
        "7519": 83,
        "7520": 246,
        "7521": 137,
        "7522": 57,
        "7523": 218,
        "7524": 255,
        "7525": 116,
        "7526": 135,
        "7527": 2,
        "7528": 71,
        "7529": 38,
        "7530": 93,
        "7531": 144,
        "7532": 47,
        "7533": 10,
        "7534": 206,
        "7535": 154,
        "7536": 150,
        "7537": 113,
        "7538": 23,
        "7539": 226,
        "7540": 23,
        "7541": 18,
        "7542": 65,
        "7543": 65,
        "7544": 176,
        "7545": 54,
        "7546": 216,
        "7547": 100,
        "7548": 30,
        "7549": 228,
        "7550": 155,
        "7551": 140,
        "7552": 180,
        "7553": 105,
        "7554": 92,
        "7555": 205,
        "7556": 48,
        "7557": 3,
        "7558": 244,
        "7559": 186,
        "7560": 192,
        "7561": 83,
        "7562": 183,
        "7563": 222,
        "7564": 165,
        "7565": 251,
        "7566": 1,
        "7567": 96,
        "7568": 110,
        "7569": 21,
        "7570": 53,
        "7571": 180,
        "7572": 50,
        "7573": 203,
        "7574": 117,
        "7575": 210,
        "7576": 116,
        "7577": 100,
        "7578": 170,
        "7579": 9,
        "7580": 216,
        "7581": 223,
        "7582": 76,
        "7583": 41,
        "7584": 39,
        "7585": 184,
        "7586": 47,
        "7587": 190,
        "7588": 156,
        "7589": 65,
        "7590": 233,
        "7591": 86,
        "7592": 244,
        "7593": 96,
        "7594": 10,
        "7595": 217,
        "7596": 52,
        "7597": 121,
        "7598": 132,
        "7599": 242,
        "7600": 223,
        "7601": 106,
        "7602": 207,
        "7603": 153,
        "7604": 83,
        "7605": 11,
        "7606": 23,
        "7607": 62,
        "7608": 233,
        "7609": 93,
        "7610": 209,
        "7611": 45,
        "7612": 50,
        "7613": 81,
        "7614": 10,
        "7615": 237,
        "7616": 213,
        "7617": 52,
        "7618": 55,
        "7619": 217,
        "7620": 156,
        "7621": 209,
        "7622": 45,
        "7623": 14,
        "7624": 112,
        "7625": 165,
        "7626": 5,
        "7627": 65,
        "7628": 177,
        "7629": 235,
        "7630": 180,
        "7631": 145,
        "7632": 157,
        "7633": 117,
        "7634": 245,
        "7635": 186,
        "7636": 214,
        "7637": 52,
        "7638": 249,
        "7639": 140,
        "7640": 6,
        "7641": 195,
        "7642": 29,
        "7643": 144,
        "7644": 141,
        "7645": 27,
        "7646": 229,
        "7647": 179,
        "7648": 32,
        "7649": 114,
        "7650": 145,
        "7651": 166,
        "7652": 18,
        "7653": 30,
        "7654": 96,
        "7655": 168,
        "7656": 110,
        "7657": 228,
        "7658": 206,
        "7659": 177,
        "7660": 226,
        "7661": 167,
        "7662": 75,
        "7663": 199,
        "7664": 126,
        "7665": 139,
        "7666": 124,
        "7667": 67,
        "7668": 44,
        "7669": 12,
        "7670": 39,
        "7671": 245,
        "7672": 248,
        "7673": 179,
        "7674": 244,
        "7675": 150,
        "7676": 20,
        "7677": 33,
        "7678": 110,
        "7679": 193,
        "7680": 174,
        "7681": 243,
        "7682": 130,
        "7683": 187,
        "7684": 253,
        "7685": 207,
        "7686": 106,
        "7687": 17,
        "7688": 147,
        "7689": 70,
        "7690": 12,
        "7691": 109,
        "7692": 249,
        "7693": 4,
        "7694": 177,
        "7695": 24,
        "7696": 234,
        "7697": 229,
        "7698": 133,
        "7699": 171,
        "7700": 168,
        "7701": 229,
        "7702": 230,
        "7703": 111,
        "7704": 197,
        "7705": 9,
        "7706": 36,
        "7707": 80,
        "7708": 84,
        "7709": 254,
        "7710": 122,
        "7711": 183,
        "7712": 26,
        "7713": 59,
        "7714": 21,
        "7715": 231,
        "7716": 223,
        "7717": 198,
        "7718": 198,
        "7719": 233,
        "7720": 60,
        "7721": 123,
        "7722": 222,
        "7723": 60,
        "7724": 4,
        "7725": 195,
        "7726": 245,
        "7727": 235,
        "7728": 161,
        "7729": 10,
        "7730": 24,
        "7731": 52,
        "7732": 36,
        "7733": 168,
        "7734": 252,
        "7735": 213,
        "7736": 96,
        "7737": 159,
        "7738": 8,
        "7739": 193,
        "7740": 72,
        "7741": 41,
        "7742": 95,
        "7743": 228,
        "7744": 125,
        "7745": 94,
        "7746": 19,
        "7747": 185,
        "7748": 73,
        "7749": 46,
        "7750": 29,
        "7751": 90,
        "7752": 97,
        "7753": 129,
        "7754": 120,
        "7755": 161,
        "7756": 61,
        "7757": 116,
        "7758": 127,
        "7759": 180,
        "7760": 94,
        "7761": 203,
        "7762": 140,
        "7763": 166,
        "7764": 99,
        "7765": 66,
        "7766": 30,
        "7767": 178,
        "7768": 4,
        "7769": 40,
        "7770": 180,
        "7771": 222,
        "7772": 71,
        "7773": 174,
        "7774": 131,
        "7775": 159,
        "7776": 186,
        "7777": 219,
        "7778": 169,
        "7779": 26,
        "7780": 94,
        "7781": 19,
        "7782": 39,
        "7783": 215,
        "7784": 96,
        "7785": 157,
        "7786": 103,
        "7787": 0,
        "7788": 88,
        "7789": 63,
        "7790": 65,
        "7791": 108,
        "7792": 118,
        "7793": 127,
        "7794": 242,
        "7795": 42,
        "7796": 178,
        "7797": 108,
        "7798": 150,
        "7799": 95,
        "7800": 191,
        "7801": 139,
        "7802": 146,
        "7803": 50,
        "7804": 149,
        "7805": 179,
        "7806": 122,
        "7807": 236,
        "7808": 115,
        "7809": 2,
        "7810": 65,
        "7811": 88,
        "7812": 65,
        "7813": 211,
        "7814": 86,
        "7815": 252,
        "7816": 77,
        "7817": 165,
        "7818": 196,
        "7819": 182,
        "7820": 1,
        "7821": 152,
        "7822": 5,
        "7823": 108,
        "7824": 51,
        "7825": 246,
        "7826": 153,
        "7827": 175,
        "7828": 193,
        "7829": 98,
        "7830": 179,
        "7831": 7,
        "7832": 119,
        "7833": 44,
        "7834": 114,
        "7835": 155,
        "7836": 87,
        "7837": 101,
        "7838": 16,
        "7839": 49,
        "7840": 247,
        "7841": 160,
        "7842": 91,
        "7843": 202,
        "7844": 239,
        "7845": 166,
        "7846": 153,
        "7847": 47,
        "7848": 155,
        "7849": 64,
        "7850": 95,
        "7851": 116,
        "7852": 184,
        "7853": 211,
        "7854": 82,
        "7855": 56,
        "7856": 44,
        "7857": 79,
        "7858": 167,
        "7859": 237,
        "7860": 199,
        "7861": 169,
        "7862": 23,
        "7863": 24,
        "7864": 4,
        "7865": 76,
        "7866": 117,
        "7867": 239,
        "7868": 136,
        "7869": 175,
        "7870": 28,
        "7871": 239,
        "7872": 190,
        "7873": 54,
        "7874": 184,
        "7875": 17,
        "7876": 156,
        "7877": 15,
        "7878": 84,
        "7879": 241,
        "7880": 199,
        "7881": 182,
        "7882": 225,
        "7883": 230,
        "7884": 231,
        "7885": 199,
        "7886": 214,
        "7887": 69,
        "7888": 0,
        "7889": 138,
        "7890": 99,
        "7891": 159,
        "7892": 132,
        "7893": 62,
        "7894": 199,
        "7895": 3,
        "7896": 177,
        "7897": 158,
        "7898": 172,
        "7899": 245,
        "7900": 149,
        "7901": 137,
        "7902": 240,
        "7903": 177,
        "7904": 237,
        "7905": 19,
        "7906": 10,
        "7907": 41,
        "7908": 54,
        "7909": 57,
        "7910": 166,
        "7911": 132,
        "7912": 88,
        "7913": 136,
        "7914": 79,
        "7915": 140,
        "7916": 19,
        "7917": 154,
        "7918": 80,
        "7919": 170,
        "7920": 150,
        "7921": 84,
        "7922": 43,
        "7923": 138,
        "7924": 239,
        "7925": 10,
        "7926": 106,
        "7927": 139,
        "7928": 83,
        "7929": 142,
        "7930": 22,
        "7931": 227,
        "7932": 36,
        "7933": 118,
        "7934": 244,
        "7935": 10,
        "7936": 158,
        "7937": 67,
        "7938": 59,
        "7939": 13,
        "7940": 123,
        "7941": 107,
        "7942": 114,
        "7943": 30,
        "7944": 151,
        "7945": 162,
        "7946": 8,
        "7947": 106,
        "7948": 95,
        "7949": 72,
        "7950": 253,
        "7951": 171,
        "7952": 96,
        "7953": 186,
        "7954": 151,
        "7955": 246,
        "7956": 139,
        "7957": 165,
        "7958": 42,
        "7959": 30,
        "7960": 132,
        "7961": 98,
        "7962": 87,
        "7963": 225,
        "7964": 1,
        "7965": 25,
        "7966": 88,
        "7967": 249,
        "7968": 208,
        "7969": 114,
        "7970": 78,
        "7971": 37,
        "7972": 241,
        "7973": 210,
        "7974": 249,
        "7975": 112,
        "7976": 69,
        "7977": 222,
        "7978": 211,
        "7979": 227,
        "7980": 72,
        "7981": 77,
        "7982": 52,
        "7983": 202,
        "7984": 213,
        "7985": 241,
        "7986": 218,
        "7987": 100,
        "7988": 112,
        "7989": 75,
        "7990": 149,
        "7991": 45,
        "7992": 59,
        "7993": 155,
        "7994": 17,
        "7995": 21,
        "7996": 124,
        "7997": 161,
        "7998": 128,
        "7999": 88,
        "8000": 55,
        "8001": 254,
        "8002": 64,
        "8003": 220,
        "8004": 65,
        "8005": 98,
        "8006": 117,
        "8007": 215,
        "8008": 152,
        "8009": 207,
        "8010": 122,
        "8011": 76,
        "8012": 223,
        "8013": 217,
        "8014": 62,
        "8015": 190,
        "8016": 204,
        "8017": 24,
        "8018": 52,
        "8019": 14,
        "8020": 100,
        "8021": 39,
        "8022": 89,
        "8023": 225,
        "8024": 233,
        "8025": 163,
        "8026": 2,
        "8027": 252,
        "8028": 9,
        "8029": 56,
        "8030": 81,
        "8031": 102,
        "8032": 143,
        "8033": 148,
        "8034": 187,
        "8035": 58,
        "8036": 203,
        "8037": 195,
        "8038": 154,
        "8039": 94,
        "8040": 24,
        "8041": 3,
        "8042": 123,
        "8043": 17,
        "8044": 206,
        "8045": 56,
        "8046": 101,
        "8047": 79,
        "8048": 60,
        "8049": 74,
        "8050": 120,
        "8051": 104,
        "8052": 192,
        "8053": 85,
        "8054": 76,
        "8055": 222,
        "8056": 243,
        "8057": 59,
        "8058": 255,
        "8059": 197,
        "8060": 161,
        "8061": 201,
        "8062": 1,
        "8063": 214,
        "8064": 0,
        "8065": 244,
        "8066": 107,
        "8067": 245,
        "8068": 226,
        "8069": 52,
        "8070": 146,
        "8071": 196,
        "8072": 105,
        "8073": 0,
        "8074": 55,
        "8075": 118,
        "8076": 194,
        "8077": 116,
        "8078": 182,
        "8079": 181,
        "8080": 175,
        "8081": 87,
        "8082": 35,
        "8083": 7,
        "8084": 250,
        "8085": 192,
        "8086": 190,
        "8087": 27,
        "8088": 162,
        "8089": 98,
        "8090": 89,
        "8091": 41,
        "8092": 43,
        "8093": 92,
        "8094": 96,
        "8095": 72,
        "8096": 151,
        "8097": 23,
        "8098": 85,
        "8099": 228,
        "8100": 234,
        "8101": 206,
        "8102": 189,
        "8103": 19,
        "8104": 237,
        "8105": 191,
        "8106": 17,
        "8107": 87,
        "8108": 80,
        "8109": 120,
        "8110": 12,
        "8111": 211,
        "8112": 127,
        "8113": 223,
        "8114": 215,
        "8115": 97,
        "8116": 216,
        "8117": 175,
        "8118": 112,
        "8119": 94,
        "8120": 210,
        "8121": 83,
        "8122": 187,
        "8123": 15,
        "8124": 209,
        "8125": 101,
        "8126": 21,
        "8127": 108,
        "8128": 222,
        "8129": 34,
        "8130": 49,
        "8131": 244,
        "8132": 152,
        "8133": 253,
        "8134": 252,
        "8135": 160,
        "8136": 7,
        "8137": 139,
        "8138": 239,
        "8139": 163,
        "8140": 52,
        "8141": 213,
        "8142": 152,
        "8143": 60,
        "8144": 185,
        "8145": 95,
        "8146": 253,
        "8147": 60,
        "8148": 140,
        "8149": 174,
        "8150": 50,
        "8151": 147,
        "8152": 211,
        "8153": 20,
        "8154": 47,
        "8155": 6,
        "8156": 226,
        "8157": 37,
        "8158": 180,
        "8159": 145,
        "8160": 201,
        "8161": 235,
        "8162": 255,
        "8163": 185,
        "8164": 163,
        "8165": 145,
        "8166": 41,
        "8167": 99,
        "8168": 16,
        "8169": 82,
        "8170": 113,
        "8171": 149,
        "8172": 121,
        "8173": 176,
        "8174": 213,
        "8175": 68,
        "8176": 77,
        "8177": 202,
        "8178": 115,
        "8179": 39,
        "8180": 182,
        "8181": 179,
        "8182": 94,
        "8183": 19,
        "8184": 85,
        "8185": 17,
        "8186": 166,
        "8187": 86,
        "8188": 29,
        "8189": 160,
        "8190": 207,
        "8191": 134,
        "8192": 176,
        "8193": 51,
        "8194": 24,
        "8195": 157,
        "8196": 185,
        "8197": 223,
        "8198": 168,
        "8199": 122,
        "8200": 115,
        "8201": 95,
        "8202": 83,
        "8203": 11,
        "8204": 190,
        "8205": 93,
        "8206": 251,
        "8207": 215,
        "8208": 187,
        "8209": 107,
        "8210": 115,
        "8211": 139,
        "8212": 229,
        "8213": 46,
        "8214": 252,
        "8215": 83,
        "8216": 141,
        "8217": 10,
        "8218": 157,
        "8219": 65,
        "8220": 181,
        "8221": 69,
        "8222": 169,
        "8223": 65,
        "8224": 103,
        "8225": 121,
        "8226": 58,
        "8227": 118,
        "8228": 177,
        "8229": 221,
        "8230": 46,
        "8231": 158,
        "8232": 229,
        "8233": 40,
        "8234": 196,
        "8235": 87,
        "8236": 127,
        "8237": 141,
        "8238": 102,
        "8239": 102,
        "8240": 234,
        "8241": 95,
        "8242": 119,
        "8243": 38,
        "8244": 162,
        "8245": 51,
        "8246": 85,
        "8247": 17,
        "8248": 112,
        "8249": 233,
        "8250": 184,
        "8251": 96,
        "8252": 249,
        "8253": 59,
        "8254": 81,
        "8255": 239,
        "8256": 128,
        "8257": 223,
        "8258": 249,
        "8259": 88,
        "8260": 63,
        "8261": 162,
        "8262": 43,
        "8263": 71,
        "8264": 190,
        "8265": 47,
        "8266": 130,
        "8267": 203,
        "8268": 239,
        "8269": 168,
        "8270": 188,
        "8271": 106,
        "8272": 80,
        "8273": 103,
        "8274": 16,
        "8275": 100,
        "8276": 166,
        "8277": 56,
        "8278": 194,
        "8279": 208,
        "8280": 218,
        "8281": 216,
        "8282": 176,
        "8283": 139,
        "8284": 40,
        "8285": 161,
        "8286": 241,
        "8287": 251,
        "8288": 138,
        "8289": 126,
        "8290": 34,
        "8291": 186,
        "8292": 46,
        "8293": 104,
        "8294": 95,
        "8295": 240,
        "8296": 244,
        "8297": 36,
        "8298": 90,
        "8299": 200,
        "8300": 148,
        "8301": 38,
        "8302": 234,
        "8303": 139,
        "8304": 101,
        "8305": 120,
        "8306": 255,
        "8307": 106,
        "8308": 20,
        "8309": 88,
        "8310": 196,
        "8311": 121,
        "8312": 211,
        "8313": 180,
        "8314": 177,
        "8315": 69,
        "8316": 239,
        "8317": 231,
        "8318": 147,
        "8319": 169,
        "8320": 209,
        "8321": 174,
        "8322": 167,
        "8323": 243,
        "8324": 246,
        "8325": 132,
        "8326": 10,
        "8327": 148,
        "8328": 165,
        "8329": 19,
        "8330": 61,
        "8331": 210,
        "8332": 215,
        "8333": 198,
        "8334": 229,
        "8335": 0,
        "8336": 109,
        "8337": 19,
        "8338": 66,
        "8339": 252,
        "8340": 112,
        "8341": 181,
        "8342": 254,
        "8343": 62,
        "8344": 53,
        "8345": 159,
        "8346": 106,
        "8347": 188,
        "8348": 189,
        "8349": 166,
        "8350": 35,
        "8351": 91,
        "8352": 241,
        "8353": 134,
        "8354": 189,
        "8355": 3,
        "8356": 11,
        "8357": 250,
        "8358": 134,
        "8359": 249,
        "8360": 223,
        "8361": 195,
        "8362": 95,
        "8363": 67,
        "8364": 159,
        "8365": 68,
        "8366": 118,
        "8367": 59,
        "8368": 255,
        "8369": 126,
        "8370": 169,
        "8371": 229,
        "8372": 17,
        "8373": 201,
        "8374": 227,
        "8375": 228,
        "8376": 99,
        "8377": 131,
        "8378": 168,
        "8379": 84,
        "8380": 233,
        "8381": 224,
        "8382": 32,
        "8383": 196,
        "8384": 84,
        "8385": 153,
        "8386": 180,
        "8387": 249,
        "8388": 18,
        "8389": 55,
        "8390": 14,
        "8391": 37,
        "8392": 38,
        "8393": 199,
        "8394": 215,
        "8395": 51,
        "8396": 166,
        "8397": 2,
        "8398": 142,
        "8399": 58,
        "8400": 169,
        "8401": 35,
        "8402": 173,
        "8403": 55,
        "8404": 15,
        "8405": 94,
        "8406": 109,
        "8407": 93,
        "8408": 157,
        "8409": 145,
        "8410": 145,
        "8411": 172,
        "8412": 94,
        "8413": 253,
        "8414": 26,
        "8415": 168,
        "8416": 50,
        "8417": 247,
        "8418": 89,
        "8419": 185,
        "8420": 182,
        "8421": 103,
        "8422": 249,
        "8423": 96,
        "8424": 202,
        "8425": 104,
        "8426": 228,
        "8427": 180,
        "8428": 225,
        "8429": 160,
        "8430": 104,
        "8431": 224,
        "8432": 83,
        "8433": 21,
        "8434": 124,
        "8435": 226,
        "8436": 93,
        "8437": 21,
        "8438": 124,
        "8439": 69,
        "8440": 231,
        "8441": 145,
        "8442": 14,
        "8443": 120,
        "8444": 202,
        "8445": 138,
        "8446": 199,
        "8447": 49,
        "8448": 102,
        "8449": 165,
        "8450": 151,
        "8451": 186,
        "8452": 147,
        "8453": 82,
        "8454": 139,
        "8455": 245,
        "8456": 224,
        "8457": 33,
        "8458": 62,
        "8459": 204,
        "8460": 134,
        "8461": 135,
        "8462": 69,
        "8463": 194,
        "8464": 73,
        "8465": 94,
        "8466": 105,
        "8467": 253,
        "8468": 1,
        "8469": 111,
        "8470": 125,
        "8471": 73,
        "8472": 163,
        "8473": 4,
        "8474": 251,
        "8475": 236,
        "8476": 50,
        "8477": 97,
        "8478": 57,
        "8479": 133,
        "8480": 110,
        "8481": 246,
        "8482": 92,
        "8483": 153,
        "8484": 215,
        "8485": 79,
        "8486": 185,
        "8487": 21,
        "8488": 9,
        "8489": 85,
        "8490": 184,
        "8491": 86,
        "8492": 251,
        "8493": 243,
        "8494": 106,
        "8495": 93,
        "8496": 38,
        "8497": 150,
        "8498": 254,
        "8499": 162,
        "8500": 26,
        "8501": 5,
        "8502": 93,
        "8503": 250,
        "8504": 207,
        "8505": 248,
        "8506": 36,
        "8507": 46,
        "8508": 47,
        "8509": 95,
        "8510": 88,
        "8511": 90,
        "8512": 193,
        "8513": 124,
        "8514": 176,
        "8515": 102,
        "8516": 248,
        "8517": 85,
        "8518": 6,
        "8519": 104,
        "8520": 232,
        "8521": 166,
        "8522": 123,
        "8523": 61,
        "8524": 125,
        "8525": 195,
        "8526": 27,
        "8527": 78,
        "8528": 223,
        "8529": 148,
        "8530": 167,
        "8531": 114,
        "8532": 15,
        "8533": 135,
        "8534": 130,
        "8535": 106,
        "8536": 116,
        "8537": 97,
        "8538": 0,
        "8539": 137,
        "8540": 138,
        "8541": 184,
        "8542": 228,
        "8543": 60,
        "8544": 13,
        "8545": 237,
        "8546": 114,
        "8547": 159,
        "8548": 19,
        "8549": 225,
        "8550": 70,
        "8551": 39,
        "8552": 187,
        "8553": 2,
        "8554": 220,
        "8555": 195,
        "8556": 157,
        "8557": 120,
        "8558": 244,
        "8559": 143,
        "8560": 80,
        "8561": 85,
        "8562": 144,
        "8563": 241,
        "8564": 242,
        "8565": 172,
        "8566": 73,
        "8567": 170,
        "8568": 143,
        "8569": 109,
        "8570": 82,
        "8571": 202,
        "8572": 1,
        "8573": 224,
        "8574": 245,
        "8575": 164,
        "8576": 237,
        "8577": 201,
        "8578": 164,
        "8579": 173,
        "8580": 127,
        "8581": 217,
        "8582": 78,
        "8583": 107,
        "8584": 160,
        "8585": 133,
        "8586": 130,
        "8587": 175,
        "8588": 1,
        "8589": 95,
        "8590": 83,
        "8591": 72,
        "8592": 237,
        "8593": 56,
        "8594": 182,
        "8595": 33,
        "8596": 182,
        "8597": 19,
        "8598": 124,
        "8599": 232,
        "8600": 123,
        "8601": 49,
        "8602": 82,
        "8603": 108,
        "8604": 246,
        "8605": 166,
        "8606": 244,
        "8607": 198,
        "8608": 86,
        "8609": 185,
        "8610": 6,
        "8611": 47,
        "8612": 40,
        "8613": 94,
        "8614": 40,
        "8615": 99,
        "8616": 132,
        "8617": 245,
        "8618": 156,
        "8619": 33,
        "8620": 68,
        "8621": 204,
        "8622": 113,
        "8623": 212,
        "8624": 145,
        "8625": 7,
        "8626": 204,
        "8627": 124,
        "8628": 145,
        "8629": 73,
        "8630": 89,
        "8631": 128,
        "8632": 195,
        "8633": 41,
        "8634": 253,
        "8635": 61,
        "8636": 146,
        "8637": 145,
        "8638": 199,
        "8639": 52,
        "8640": 76,
        "8641": 3,
        "8642": 53,
        "8643": 191,
        "8644": 246,
        "8645": 136,
        "8646": 137,
        "8647": 167,
        "8648": 223,
        "8649": 3,
        "8650": 81,
        "8651": 18,
        "8652": 38,
        "8653": 21,
        "8654": 88,
        "8655": 47,
        "8656": 95,
        "8657": 28,
        "8658": 252,
        "8659": 163,
        "8660": 88,
        "8661": 172,
        "8662": 98,
        "8663": 224,
        "8664": 36,
        "8665": 60,
        "8666": 172,
        "8667": 232,
        "8668": 211,
        "8669": 11,
        "8670": 27,
        "8671": 127,
        "8672": 18,
        "8673": 24,
        "8674": 57,
        "8675": 213,
        "8676": 60,
        "8677": 143,
        "8678": 56,
        "8679": 69,
        "8680": 69,
        "8681": 211,
        "8682": 108,
        "8683": 97,
        "8684": 240,
        "8685": 226,
        "8686": 145,
        "8687": 155,
        "8688": 37,
        "8689": 183,
        "8690": 173,
        "8691": 221,
        "8692": 224,
        "8693": 110,
        "8694": 254,
        "8695": 100,
        "8696": 205,
        "8697": 37,
        "8698": 186,
        "8699": 79,
        "8700": 88,
        "8701": 154,
        "8702": 9,
        "8703": 218,
        "8704": 48,
        "8705": 154,
        "8706": 217,
        "8707": 55,
        "8708": 182,
        "8709": 87,
        "8710": 109,
        "8711": 74,
        "8712": 48,
        "8713": 134,
        "8714": 110,
        "8715": 254,
        "8716": 39,
        "8717": 247,
        "8718": 2,
        "8719": 173,
        "8720": 125,
        "8721": 174,
        "8722": 6,
        "8723": 187,
        "8724": 96,
        "8725": 1,
        "8726": 16,
        "8727": 172,
        "8728": 7,
        "8729": 61,
        "8730": 19,
        "8731": 57,
        "8732": 125,
        "8733": 110,
        "8734": 77,
        "8735": 172,
        "8736": 192,
        "8737": 77,
        "8738": 74,
        "8739": 242,
        "8740": 74,
        "8741": 188,
        "8742": 146,
        "8743": 252,
        "8744": 217,
        "8745": 98,
        "8746": 30,
        "8747": 120,
        "8748": 189,
        "8749": 209,
        "8750": 38,
        "8751": 9,
        "8752": 216,
        "8753": 135,
        "8754": 122,
        "8755": 191,
        "8756": 115,
        "8757": 179,
        "8758": 220,
        "8759": 197,
        "8760": 171,
        "8761": 15,
        "8762": 24,
        "8763": 244,
        "8764": 8,
        "8765": 241,
        "8766": 25,
        "8767": 195,
        "8768": 185,
        "8769": 154,
        "8770": 88,
        "8771": 45,
        "8772": 167,
        "8773": 168,
        "8774": 151,
        "8775": 91,
        "8776": 212,
        "8777": 36,
        "8778": 11,
        "8779": 29,
        "8780": 123,
        "8781": 10,
        "8782": 36,
        "8783": 146,
        "8784": 20,
        "8785": 10,
        "8786": 23,
        "8787": 248,
        "8788": 234,
        "8789": 57,
        "8790": 135,
        "8791": 101,
        "8792": 200,
        "8793": 132,
        "8794": 248,
        "8795": 123,
        "8796": 190,
        "8797": 38,
        "8798": 250,
        "8799": 73,
        "8800": 77,
        "8801": 121,
        "8802": 178,
        "8803": 32,
        "8804": 31,
        "8805": 19,
        "8806": 149,
        "8807": 236,
        "8808": 0,
        "8809": 4,
        "8810": 77,
        "8811": 84,
        "8812": 91,
        "8813": 196,
        "8814": 13,
        "8815": 72,
        "8816": 252,
        "8817": 7,
        "8818": 42,
        "8819": 250,
        "8820": 255,
        "8821": 68,
        "8822": 41,
        "8823": 108,
        "8824": 65,
        "8825": 159,
        "8826": 88,
        "8827": 242,
        "8828": 204,
        "8829": 63,
        "8830": 73,
        "8831": 117,
        "8832": 100,
        "8833": 149,
        "8834": 148,
        "8835": 154,
        "8836": 129,
        "8837": 57,
        "8838": 76,
        "8839": 211,
        "8840": 47,
        "8841": 106,
        "8842": 125,
        "8843": 88,
        "8844": 119,
        "8845": 107,
        "8846": 61,
        "8847": 216,
        "8848": 110,
        "8849": 80,
        "8850": 193,
        "8851": 134,
        "8852": 143,
        "8853": 200,
        "8854": 158,
        "8855": 213,
        "8856": 45,
        "8857": 102,
        "8858": 239,
        "8859": 13,
        "8860": 139,
        "8861": 11,
        "8862": 74,
        "8863": 228,
        "8864": 156,
        "8865": 164,
        "8866": 85,
        "8867": 50,
        "8868": 222,
        "8869": 159,
        "8870": 145,
        "8871": 222,
        "8872": 239,
        "8873": 5,
        "8874": 77,
        "8875": 113,
        "8876": 221,
        "8877": 222,
        "8878": 177,
        "8879": 237,
        "8880": 184,
        "8881": 19,
        "8882": 153,
        "8883": 113,
        "8884": 197,
        "8885": 79,
        "8886": 46,
        "8887": 37,
        "8888": 209,
        "8889": 5,
        "8890": 125,
        "8891": 244,
        "8892": 144,
        "8893": 27,
        "8894": 144,
        "8895": 153,
        "8896": 114,
        "8897": 78,
        "8898": 57,
        "8899": 39,
        "8900": 207,
        "8901": 231,
        "8902": 197,
        "8903": 154,
        "8904": 26,
        "8905": 154,
        "8906": 199,
        "8907": 23,
        "8908": 214,
        "8909": 237,
        "8910": 49,
        "8911": 124,
        "8912": 136,
        "8913": 137,
        "8914": 250,
        "8915": 109,
        "8916": 208,
        "8917": 229,
        "8918": 179,
        "8919": 116,
        "8920": 192,
        "8921": 165,
        "8922": 25,
        "8923": 92,
        "8924": 205,
        "8925": 120,
        "8926": 34,
        "8927": 196,
        "8928": 19,
        "8929": 140,
        "8930": 211,
        "8931": 153,
        "8932": 242,
        "8933": 46,
        "8934": 196,
        "8935": 176,
        "8936": 212,
        "8937": 125,
        "8938": 91,
        "8939": 8,
        "8940": 17,
        "8941": 82,
        "8942": 0,
        "8943": 249,
        "8944": 13,
        "8945": 187,
        "8946": 174,
        "8947": 240,
        "8948": 138,
        "8949": 145,
        "8950": 8,
        "8951": 236,
        "8952": 34,
        "8953": 151,
        "8954": 6,
        "8955": 22,
        "8956": 12,
        "8957": 222,
        "8958": 126,
        "8959": 45,
        "8960": 236,
        "8961": 58,
        "8962": 169,
        "8963": 225,
        "8964": 229,
        "8965": 147,
        "8966": 90,
        "8967": 38,
        "8968": 96,
        "8969": 98,
        "8970": 91,
        "8971": 97,
        "8972": 24,
        "8973": 63,
        "8974": 142,
        "8975": 254,
        "8976": 3,
        "8977": 249,
        "8978": 201,
        "8979": 24,
        "8980": 42,
        "8981": 122,
        "8982": 56,
        "8983": 85,
        "8984": 159,
        "8985": 192,
        "8986": 59,
        "8987": 73,
        "8988": 144,
        "8989": 134,
        "8990": 213,
        "8991": 68,
        "8992": 97,
        "8993": 76,
        "8994": 238,
        "8995": 20,
        "8996": 68,
        "8997": 244,
        "8998": 121,
        "8999": 115,
        "9000": 222,
        "9001": 211,
        "9002": 103,
        "9003": 217,
        "9004": 56,
        "9005": 148,
        "9006": 203,
        "9007": 189,
        "9008": 238,
        "9009": 74,
        "9010": 213,
        "9011": 136,
        "9012": 253,
        "9013": 98,
        "9014": 78,
        "9015": 240,
        "9016": 104,
        "9017": 211,
        "9018": 80,
        "9019": 174,
        "9020": 63,
        "9021": 124,
        "9022": 103,
        "9023": 156,
        "9024": 213,
        "9025": 29,
        "9026": 42,
        "9027": 109,
        "9028": 24,
        "9029": 57,
        "9030": 39,
        "9031": 106,
        "9032": 111,
        "9033": 88,
        "9034": 94,
        "9035": 32,
        "9036": 17,
        "9037": 79,
        "9038": 151,
        "9039": 205,
        "9040": 132,
        "9041": 55,
        "9042": 188,
        "9043": 61,
        "9044": 228,
        "9045": 11,
        "9046": 70,
        "9047": 123,
        "9048": 53,
        "9049": 19,
        "9050": 35,
        "9051": 239,
        "9052": 30,
        "9053": 7,
        "9054": 8,
        "9055": 175,
        "9056": 107,
        "9057": 199,
        "9058": 217,
        "9059": 241,
        "9060": 243,
        "9061": 121,
        "9062": 150,
        "9063": 207,
        "9064": 102,
        "9065": 49,
        "9066": 253,
        "9067": 206,
        "9068": 11,
        "9069": 104,
        "9070": 119,
        "9071": 186,
        "9072": 154,
        "9073": 65,
        "9074": 92,
        "9075": 119,
        "9076": 250,
        "9077": 18,
        "9078": 190,
        "9079": 13,
        "9080": 237,
        "9081": 133,
        "9082": 32,
        "9083": 188,
        "9084": 161,
        "9085": 42,
        "9086": 9,
        "9087": 163,
        "9088": 160,
        "9089": 39,
        "9090": 11,
        "9091": 50,
        "9092": 204,
        "9093": 238,
        "9094": 111,
        "9095": 236,
        "9096": 64,
        "9097": 186,
        "9098": 86,
        "9099": 8,
        "9100": 221,
        "9101": 29,
        "9102": 58,
        "9103": 81,
        "9104": 16,
        "9105": 76,
        "9106": 90,
        "9107": 157,
        "9108": 112,
        "9109": 143,
        "9110": 59,
        "9111": 103,
        "9112": 27,
        "9113": 139,
        "9114": 100,
        "9115": 184,
        "9116": 249,
        "9117": 97,
        "9118": 112,
        "9119": 169,
        "9120": 203,
        "9121": 103,
        "9122": 197,
        "9123": 149,
        "9124": 115,
        "9125": 176,
        "9126": 230,
        "9127": 55,
        "9128": 255,
        "9129": 240,
        "9130": 139,
        "9131": 177,
        "9132": 131,
        "9133": 89,
        "9134": 33,
        "9135": 193,
        "9136": 223,
        "9137": 154,
        "9138": 18,
        "9139": 170,
        "9140": 176,
        "9141": 192,
        "9142": 38,
        "9143": 198,
        "9144": 6,
        "9145": 99,
        "9146": 149,
        "9147": 241,
        "9148": 224,
        "9149": 214,
        "9150": 58,
        "9151": 102,
        "9152": 178,
        "9153": 60,
        "9154": 6,
        "9155": 125,
        "9156": 30,
        "9157": 108,
        "9158": 59,
        "9159": 129,
        "9160": 155,
        "9161": 92,
        "9162": 227,
        "9163": 180,
        "9164": 196,
        "9165": 82,
        "9166": 211,
        "9167": 112,
        "9168": 255,
        "9169": 120,
        "9170": 243,
        "9171": 99,
        "9172": 144,
        "9173": 89,
        "9174": 116,
        "9175": 204,
        "9176": 239,
        "9177": 249,
        "9178": 204,
        "9179": 52,
        "9180": 176,
        "9181": 58,
        "9182": 48,
        "9183": 205,
        "9184": 103,
        "9185": 7,
        "9186": 3,
        "9187": 136,
        "9188": 165,
        "9189": 210,
        "9190": 60,
        "9191": 91,
        "9192": 134,
        "9193": 120,
        "9194": 177,
        "9195": 67,
        "9196": 213,
        "9197": 25,
        "9198": 128,
        "9199": 25,
        "9200": 5,
        "9201": 234,
        "9202": 87,
        "9203": 185,
        "9204": 21,
        "9205": 58,
        "9206": 193,
        "9207": 68,
        "9208": 167,
        "9209": 93,
        "9210": 170,
        "9211": 255,
        "9212": 69,
        "9213": 144,
        "9214": 235,
        "9215": 2,
        "9216": 254,
        "9217": 61,
        "9218": 25,
        "9219": 39,
        "9220": 71,
        "9221": 238,
        "9222": 28,
        "9223": 22,
        "9224": 219,
        "9225": 165,
        "9226": 97,
        "9227": 124,
        "9228": 30,
        "9229": 217,
        "9230": 48,
        "9231": 239,
        "9232": 207,
        "9233": 86,
        "9234": 235,
        "9235": 149,
        "9236": 196,
        "9237": 126,
        "9238": 9,
        "9239": 57,
        "9240": 55,
        "9241": 159,
        "9242": 219,
        "9243": 230,
        "9244": 135,
        "9245": 88,
        "9246": 123,
        "9247": 53,
        "9248": 141,
        "9249": 108,
        "9250": 58,
        "9251": 86,
        "9252": 176,
        "9253": 140,
        "9254": 237,
        "9255": 48,
        "9256": 198,
        "9257": 177,
        "9258": 196,
        "9259": 248,
        "9260": 66,
        "9261": 116,
        "9262": 166,
        "9263": 187,
        "9264": 22,
        "9265": 128,
        "9266": 122,
        "9267": 173,
        "9268": 67,
        "9269": 4,
        "9270": 181,
        "9271": 218,
        "9272": 230,
        "9273": 141,
        "9274": 54,
        "9275": 230,
        "9276": 181,
        "9277": 235,
        "9278": 135,
        "9279": 106,
        "9280": 104,
        "9281": 211,
        "9282": 25,
        "9283": 105,
        "9284": 254,
        "9285": 62,
        "9286": 191,
        "9287": 139,
        "9288": 229,
        "9289": 115,
        "9290": 193,
        "9291": 81,
        "9292": 38,
        "9293": 124,
        "9294": 166,
        "9295": 229,
        "9296": 185,
        "9297": 246,
        "9298": 18,
        "9299": 61,
        "9300": 64,
        "9301": 62,
        "9302": 24,
        "9303": 39,
        "9304": 107,
        "9305": 245,
        "9306": 79,
        "9307": 26,
        "9308": 13,
        "9309": 234,
        "9310": 5,
        "9311": 217,
        "9312": 251,
        "9313": 169,
        "9314": 133,
        "9315": 116,
        "9316": 3,
        "9317": 212,
        "9318": 37,
        "9319": 70,
        "9320": 232,
        "9321": 11,
        "9322": 88,
        "9323": 191,
        "9324": 244,
        "9325": 90,
        "9326": 74,
        "9327": 253,
        "9328": 56,
        "9329": 250,
        "9330": 219,
        "9331": 121,
        "9332": 236,
        "9333": 235,
        "9334": 217,
        "9335": 41,
        "9336": 57,
        "9337": 109,
        "9338": 93,
        "9339": 164,
        "9340": 227,
        "9341": 215,
        "9342": 195,
        "9343": 198,
        "9344": 156,
        "9345": 25,
        "9346": 223,
        "9347": 162,
        "9348": 64,
        "9349": 238,
        "9350": 182,
        "9351": 136,
        "9352": 134,
        "9353": 155,
        "9354": 201,
        "9355": 15,
        "9356": 59,
        "9357": 224,
        "9358": 27,
        "9359": 20,
        "9360": 9,
        "9361": 179,
        "9362": 193,
        "9363": 241,
        "9364": 49,
        "9365": 20,
        "9366": 132,
        "9367": 155,
        "9368": 236,
        "9369": 160,
        "9370": 13,
        "9371": 112,
        "9372": 228,
        "9373": 95,
        "9374": 4,
        "9375": 51,
        "9376": 214,
        "9377": 114,
        "9378": 143,
        "9379": 73,
        "9380": 129,
        "9381": 161,
        "9382": 186,
        "9383": 153,
        "9384": 222,
        "9385": 66,
        "9386": 233,
        "9387": 5,
        "9388": 65,
        "9389": 190,
        "9390": 116,
        "9391": 89,
        "9392": 57,
        "9393": 186,
        "9394": 118,
        "9395": 1,
        "9396": 33,
        "9397": 40,
        "9398": 74,
        "9399": 77,
        "9400": 204,
        "9401": 190,
        "9402": 252,
        "9403": 127,
        "9404": 180,
        "9405": 183,
        "9406": 164,
        "9407": 89,
        "9408": 68,
        "9409": 177,
        "9410": 17,
        "9411": 239,
        "9412": 96,
        "9413": 159,
        "9414": 232,
        "9415": 49,
        "9416": 216,
        "9417": 28,
        "9418": 216,
        "9419": 164,
        "9420": 207,
        "9421": 123,
        "9422": 121,
        "9423": 208,
        "9424": 143,
        "9425": 107,
        "9426": 129,
        "9427": 136,
        "9428": 158,
        "9429": 129,
        "9430": 95,
        "9431": 136,
        "9432": 7,
        "9433": 87,
        "9434": 24,
        "9435": 200,
        "9436": 63,
        "9437": 153,
        "9438": 199,
        "9439": 84,
        "9440": 137,
        "9441": 248,
        "9442": 199,
        "9443": 28,
        "9444": 242,
        "9445": 151,
        "9446": 250,
        "9447": 23,
        "9448": 165,
        "9449": 67,
        "9450": 126,
        "9451": 73,
        "9452": 18,
        "9453": 108,
        "9454": 140,
        "9455": 155,
        "9456": 71,
        "9457": 67,
        "9458": 89,
        "9459": 0,
        "9460": 8,
        "9461": 136,
        "9462": 101,
        "9463": 57,
        "9464": 241,
        "9465": 249,
        "9466": 218,
        "9467": 154,
        "9468": 105,
        "9469": 74,
        "9470": 69,
        "9471": 34,
        "9472": 187,
        "9473": 208,
        "9474": 190,
        "9475": 86,
        "9476": 174,
        "9477": 186,
        "9478": 131,
        "9479": 79,
        "9480": 85,
        "9481": 250,
        "9482": 68,
        "9483": 33,
        "9484": 3,
        "9485": 192,
        "9486": 116,
        "9487": 97,
        "9488": 119,
        "9489": 155,
        "9490": 198,
        "9491": 255,
        "9492": 211,
        "9493": 126,
        "9494": 182,
        "9495": 224,
        "9496": 79,
        "9497": 6,
        "9498": 133,
        "9499": 77,
        "9500": 182,
        "9501": 182,
        "9502": 205,
        "9503": 21,
        "9504": 242,
        "9505": 139,
        "9506": 194,
        "9507": 77,
        "9508": 43,
        "9509": 10,
        "9510": 212,
        "9511": 103,
        "9512": 17,
        "9513": 8,
        "9514": 71,
        "9515": 232,
        "9516": 226,
        "9517": 153,
        "9518": 220,
        "9519": 59,
        "9520": 234,
        "9521": 34,
        "9522": 129,
        "9523": 191,
        "9524": 53,
        "9525": 26,
        "9526": 85,
        "9527": 157,
        "9528": 131,
        "9529": 117,
        "9530": 175,
        "9531": 5,
        "9532": 195,
        "9533": 35,
        "9534": 1,
        "9535": 198,
        "9536": 24,
        "9537": 205,
        "9538": 177,
        "9539": 219,
        "9540": 148,
        "9541": 68,
        "9542": 132,
        "9543": 69,
        "9544": 159,
        "9545": 47,
        "9546": 85,
        "9547": 233,
        "9548": 218,
        "9549": 90,
        "9550": 98,
        "9551": 133,
        "9552": 161,
        "9553": 178,
        "9554": 7,
        "9555": 22,
        "9556": 176,
        "9557": 98,
        "9558": 83,
        "9559": 112,
        "9560": 74,
        "9561": 82,
        "9562": 31,
        "9563": 30,
        "9564": 142,
        "9565": 169,
        "9566": 179,
        "9567": 80,
        "9568": 133,
        "9569": 93,
        "9570": 194,
        "9571": 166,
        "9572": 163,
        "9573": 172,
        "9574": 249,
        "9575": 200,
        "9576": 39,
        "9577": 245,
        "9578": 27,
        "9579": 52,
        "9580": 18,
        "9581": 103,
        "9582": 201,
        "9583": 103,
        "9584": 212,
        "9585": 113,
        "9586": 223,
        "9587": 97,
        "9588": 13,
        "9589": 243,
        "9590": 68,
        "9591": 25,
        "9592": 103,
        "9593": 225,
        "9594": 16,
        "9595": 154,
        "9596": 176,
        "9597": 238,
        "9598": 143,
        "9599": 204,
        "9600": 60,
        "9601": 235,
        "9602": 133,
        "9603": 139,
        "9604": 248,
        "9605": 99,
        "9606": 87,
        "9607": 191,
        "9608": 49,
        "9609": 41,
        "9610": 241,
        "9611": 176,
        "9612": 142,
        "9613": 130,
        "9614": 165,
        "9615": 109,
        "9616": 63,
        "9617": 85,
        "9618": 234,
        "9619": 129,
        "9620": 142,
        "9621": 148,
        "9622": 208,
        "9623": 240,
        "9624": 177,
        "9625": 205,
        "9626": 174,
        "9627": 210,
        "9628": 85,
        "9629": 94,
        "9630": 29,
        "9631": 23,
        "9632": 45,
        "9633": 187,
        "9634": 229,
        "9635": 230,
        "9636": 156,
        "9637": 213,
        "9638": 198,
        "9639": 52,
        "9640": 30,
        "9641": 223,
        "9642": 39,
        "9643": 138,
        "9644": 73,
        "9645": 200,
        "9646": 245,
        "9647": 72,
        "9648": 49,
        "9649": 242,
        "9650": 16,
        "9651": 178,
        "9652": 178,
        "9653": 105,
        "9654": 225,
        "9655": 63,
        "9656": 224,
        "9657": 147,
        "9658": 237,
        "9659": 157,
        "9660": 179,
        "9661": 112,
        "9662": 177,
        "9663": 106,
        "9664": 230,
        "9665": 34,
        "9666": 59,
        "9667": 1,
        "9668": 99,
        "9669": 208,
        "9670": 244,
        "9671": 24,
        "9672": 58,
        "9673": 140,
        "9674": 112,
        "9675": 155,
        "9676": 106,
        "9677": 45,
        "9678": 9,
        "9679": 3,
        "9680": 242,
        "9681": 59,
        "9682": 80,
        "9683": 115,
        "9684": 107,
        "9685": 60,
        "9686": 105,
        "9687": 89,
        "9688": 33,
        "9689": 16,
        "9690": 58,
        "9691": 108,
        "9692": 144,
        "9693": 6,
        "9694": 156,
        "9695": 200,
        "9696": 191,
        "9697": 127,
        "9698": 197,
        "9699": 185,
        "9700": 19,
        "9701": 10,
        "9702": 200,
        "9703": 219,
        "9704": 93,
        "9705": 88,
        "9706": 65,
        "9707": 76,
        "9708": 92,
        "9709": 123,
        "9710": 7,
        "9711": 252,
        "9712": 90,
        "9713": 146,
        "9714": 17,
        "9715": 207,
        "9716": 29,
        "9717": 225,
        "9718": 48,
        "9719": 250,
        "9720": 36,
        "9721": 137,
        "9722": 95,
        "9723": 121,
        "9724": 93,
        "9725": 126,
        "9726": 128,
        "9727": 232,
        "9728": 74,
        "9729": 37,
        "9730": 246,
        "9731": 215,
        "9732": 56,
        "9733": 28,
        "9734": 240,
        "9735": 107,
        "9736": 101,
        "9737": 83,
        "9738": 234,
        "9739": 162,
        "9740": 90,
        "9741": 90,
        "9742": 179,
        "9743": 169,
        "9744": 238,
        "9745": 173,
        "9746": 150,
        "9747": 39,
        "9748": 151,
        "9749": 112,
        "9750": 235,
        "9751": 34,
        "9752": 116,
        "9753": 178,
        "9754": 183,
        "9755": 117,
        "9756": 55,
        "9757": 7,
        "9758": 228,
        "9759": 170,
        "9760": 232,
        "9761": 209,
        "9762": 14,
        "9763": 122,
        "9764": 91,
        "9765": 0,
        "9766": 213,
        "9767": 31,
        "9768": 79,
        "9769": 112,
        "9770": 240,
        "9771": 102,
        "9772": 77,
        "9773": 61,
        "9774": 6,
        "9775": 203,
        "9776": 56,
        "9777": 9,
        "9778": 3,
        "9779": 255,
        "9780": 66,
        "9781": 218,
        "9782": 145,
        "9783": 156,
        "9784": 235,
        "9785": 233,
        "9786": 167,
        "9787": 45,
        "9788": 100,
        "9789": 97,
        "9790": 43,
        "9791": 187,
        "9792": 53,
        "9793": 117,
        "9794": 23,
        "9795": 95,
        "9796": 128,
        "9797": 242,
        "9798": 46,
        "9799": 238,
        "9800": 135,
        "9801": 29,
        "9802": 56,
        "9803": 145,
        "9804": 0,
        "9805": 173,
        "9806": 236,
        "9807": 107,
        "9808": 248,
        "9809": 91,
        "9810": 89,
        "9811": 60,
        "9812": 40,
        "9813": 129,
        "9814": 225,
        "9815": 56,
        "9816": 254,
        "9817": 30,
        "9818": 92,
        "9819": 93,
        "9820": 129,
        "9821": 40,
        "9822": 70,
        "9823": 105,
        "9824": 195,
        "9825": 232,
        "9826": 192,
        "9827": 228,
        "9828": 116,
        "9829": 214,
        "9830": 171,
        "9831": 102,
        "9832": 140,
        "9833": 107,
        "9834": 203,
        "9835": 167,
        "9836": 45,
        "9837": 158,
        "9838": 167,
        "9839": 126,
        "9840": 9,
        "9841": 27,
        "9842": 50,
        "9843": 136,
        "9844": 189,
        "9845": 234,
        "9846": 223,
        "9847": 127,
        "9848": 60,
        "9849": 152,
        "9850": 236,
        "9851": 203,
        "9852": 252,
        "9853": 103,
        "9854": 159,
        "9855": 186,
        "9856": 34,
        "9857": 150,
        "9858": 216,
        "9859": 24,
        "9860": 86,
        "9861": 86,
        "9862": 135,
        "9863": 49,
        "9864": 124,
        "9865": 37,
        "9866": 36,
        "9867": 178,
        "9868": 119,
        "9869": 46,
        "9870": 230,
        "9871": 180,
        "9872": 159,
        "9873": 189,
        "9874": 109,
        "9875": 230,
        "9876": 204,
        "9877": 2,
        "9878": 212,
        "9879": 219,
        "9880": 4,
        "9881": 248,
        "9882": 227,
        "9883": 142,
        "9884": 103,
        "9885": 186,
        "9886": 88,
        "9887": 128,
        "9888": 116,
        "9889": 180,
        "9890": 232,
        "9891": 130,
        "9892": 179,
        "9893": 23,
        "9894": 51,
        "9895": 53,
        "9896": 31,
        "9897": 226,
        "9898": 145,
        "9899": 197,
        "9900": 166,
        "9901": 164,
        "9902": 181,
        "9903": 161,
        "9904": 69,
        "9905": 99,
        "9906": 242,
        "9907": 159,
        "9908": 72,
        "9909": 249,
        "9910": 36,
        "9911": 41,
        "9912": 67,
        "9913": 130,
        "9914": 66,
        "9915": 18,
        "9916": 26,
        "9917": 242,
        "9918": 131,
        "9919": 171,
        "9920": 86,
        "9921": 1,
        "9922": 44,
        "9923": 211,
        "9924": 50,
        "9925": 122,
        "9926": 225,
        "9927": 163,
        "9928": 120,
        "9929": 97,
        "9930": 133,
        "9931": 193,
        "9932": 250,
        "9933": 130,
        "9934": 92,
        "9935": 236,
        "9936": 73,
        "9937": 119,
        "9938": 63,
        "9939": 252,
        "9940": 58,
        "9941": 57,
        "9942": 66,
        "9943": 249,
        "9944": 178,
        "9945": 147,
        "9946": 58,
        "9947": 156,
        "9948": 98,
        "9949": 132,
        "9950": 108,
        "9951": 76,
        "9952": 163,
        "9953": 130,
        "9954": 130,
        "9955": 59,
        "9956": 138,
        "9957": 132,
        "9958": 191,
        "9959": 51,
        "9960": 59,
        "9961": 216,
        "9962": 236,
        "9963": 136,
        "9964": 225,
        "9965": 239,
        "9966": 5,
        "9967": 74,
        "9968": 168,
        "9969": 133,
        "9970": 207,
        "9971": 7,
        "9972": 117,
        "9973": 227,
        "9974": 223,
        "9975": 121,
        "9976": 192,
        "9977": 20,
        "9978": 188,
        "9979": 244,
        "9980": 202,
        "9981": 103,
        "9982": 167,
        "9983": 82,
        "9984": 84,
        "9985": 157,
        "9986": 67,
        "9987": 99,
        "9988": 178,
        "9989": 143,
        "9990": 110,
        "9991": 194,
        "9992": 181,
        "9993": 231,
        "9994": 127,
        "9995": 168,
        "9996": 49,
        "9997": 14,
        "9998": 104,
        "9999": 85,
        "10000": 205,
        "10001": 244,
        "10002": 131,
        "10003": 195,
        "10004": 4,
        "10005": 216,
        "10006": 211,
        "10007": 186,
        "10008": 56,
        "10009": 156,
        "10010": 195,
        "10011": 97,
        "10012": 190,
        "10013": 146,
        "10014": 31,
        "10015": 246,
        "10016": 236,
        "10017": 220,
        "10018": 104,
        "10019": 198,
        "10020": 224,
        "10021": 171,
        "10022": 11,
        "10023": 183,
        "10024": 54,
        "10025": 163,
        "10026": 132,
        "10027": 154,
        "10028": 25,
        "10029": 10,
        "10030": 189,
        "10031": 162,
        "10032": 150,
        "10033": 104,
        "10034": 219,
        "10035": 233,
        "10036": 49,
        "10037": 206,
        "10038": 120,
        "10039": 150,
        "10040": 128,
        "10041": 138,
        "10042": 174,
        "10043": 200,
        "10044": 57,
        "10045": 156,
        "10046": 209,
        "10047": 122,
        "10048": 141,
        "10049": 78,
        "10050": 69,
        "10051": 248,
        "10052": 141,
        "10053": 190,
        "10054": 1,
        "10055": 158,
        "10056": 235,
        "10057": 28,
        "10058": 239,
        "10059": 180,
        "10060": 170,
        "10061": 252,
        "10062": 112,
        "10063": 118,
        "10064": 252,
        "10065": 226,
        "10066": 237,
        "10067": 28,
        "10068": 148,
        "10069": 214,
        "10070": 139,
        "10071": 187,
        "10072": 120,
        "10073": 121,
        "10074": 182,
        "10075": 138,
        "10076": 19,
        "10077": 160,
        "10078": 101,
        "10079": 248,
        "10080": 162,
        "10081": 84,
        "10082": 67,
        "10083": 50,
        "10084": 107,
        "10085": 51,
        "10086": 91,
        "10087": 45,
        "10088": 73,
        "10089": 177,
        "10090": 16,
        "10091": 67,
        "10092": 233,
        "10093": 94,
        "10094": 251,
        "10095": 129,
        "10096": 122,
        "10097": 93,
        "10098": 187,
        "10099": 217,
        "10100": 102,
        "10101": 141,
        "10102": 25,
        "10103": 217,
        "10104": 26,
        "10105": 51,
        "10106": 196,
        "10107": 161,
        "10108": 191,
        "10109": 159,
        "10110": 55,
        "10111": 4,
        "10112": 160,
        "10113": 151,
        "10114": 103,
        "10115": 202,
        "10116": 250,
        "10117": 78,
        "10118": 169,
        "10119": 108,
        "10120": 214,
        "10121": 186,
        "10122": 0,
        "10123": 14,
        "10124": 208,
        "10125": 107,
        "10126": 32,
        "10127": 156,
        "10128": 90,
        "10129": 42,
        "10130": 181,
        "10131": 116,
        "10132": 80,
        "10133": 236,
        "10134": 54,
        "10135": 102,
        "10136": 62,
        "10137": 230,
        "10138": 163,
        "10139": 182,
        "10140": 147,
        "10141": 50,
        "10142": 77,
        "10143": 87,
        "10144": 1,
        "10145": 4,
        "10146": 218,
        "10147": 7,
        "10148": 179,
        "10149": 59,
        "10150": 33,
        "10151": 145,
        "10152": 103,
        "10153": 28,
        "10154": 89,
        "10155": 8,
        "10156": 106,
        "10157": 30,
        "10158": 64,
        "10159": 136,
        "10160": 52,
        "10161": 125,
        "10162": 7,
        "10163": 34,
        "10164": 178,
        "10165": 79,
        "10166": 165,
        "10167": 250,
        "10168": 165,
        "10169": 251,
        "10170": 22,
        "10171": 189,
        "10172": 4,
        "10173": 222,
        "10174": 11,
        "10175": 30,
        "10176": 84,
        "10177": 60,
        "10178": 110,
        "10179": 123,
        "10180": 217,
        "10181": 163,
        "10182": 86,
        "10183": 231,
        "10184": 33,
        "10185": 139,
        "10186": 197,
        "10187": 253,
        "10188": 139,
        "10189": 200,
        "10190": 154,
        "10191": 28,
        "10192": 152,
        "10193": 102,
        "10194": 24,
        "10195": 216,
        "10196": 199,
        "10197": 244,
        "10198": 199,
        "10199": 38,
        "10200": 2,
        "10201": 68,
        "10202": 134,
        "10203": 30,
        "10204": 110,
        "10205": 99,
        "10206": 64,
        "10207": 125,
        "10208": 181,
        "10209": 90,
        "10210": 132,
        "10211": 165,
        "10212": 238,
        "10213": 141,
        "10214": 196,
        "10215": 41,
        "10216": 64,
        "10217": 147,
        "10218": 4,
        "10219": 78,
        "10220": 214,
        "10221": 98,
        "10222": 109,
        "10223": 197,
        "10224": 108,
        "10225": 112,
        "10226": 57,
        "10227": 24,
        "10228": 12,
        "10229": 231,
        "10230": 129,
        "10231": 0,
        "10232": 162,
        "10233": 97,
        "10234": 87,
        "10235": 79,
        "10236": 38,
        "10237": 179,
        "10238": 28,
        "10239": 122,
        "10240": 19,
        "10241": 205,
        "10242": 102,
        "10243": 111,
        "10244": 143,
        "10245": 178,
        "10246": 72,
        "10247": 28,
        "10248": 214,
        "10249": 7,
        "10250": 56,
        "10251": 69,
        "10252": 50,
        "10253": 100,
        "10254": 91,
        "10255": 173,
        "10256": 94,
        "10257": 14,
        "10258": 32,
        "10259": 107,
        "10260": 33,
        "10261": 86,
        "10262": 66,
        "10263": 136,
        "10264": 249,
        "10265": 36,
        "10266": 216,
        "10267": 135,
        "10268": 164,
        "10269": 190,
        "10270": 142,
        "10271": 121,
        "10272": 69,
        "10273": 84,
        "10274": 8,
        "10275": 3,
        "10276": 250,
        "10277": 140,
        "10278": 155,
        "10279": 246,
        "10280": 182,
        "10281": 86,
        "10282": 62,
        "10283": 202,
        "10284": 64,
        "10285": 70,
        "10286": 51,
        "10287": 127,
        "10288": 82,
        "10289": 28,
        "10290": 13,
        "10291": 203,
        "10292": 34,
        "10293": 6,
        "10294": 200,
        "10295": 209,
        "10296": 77,
        "10297": 215,
        "10298": 17,
        "10299": 119,
        "10300": 192,
        "10301": 226,
        "10302": 108,
        "10303": 64,
        "10304": 245,
        "10305": 47,
        "10306": 104,
        "10307": 253,
        "10308": 49,
        "10309": 195,
        "10310": 228,
        "10311": 74,
        "10312": 18,
        "10313": 5,
        "10314": 58,
        "10315": 133,
        "10316": 135,
        "10317": 5,
        "10318": 172,
        "10319": 182,
        "10320": 247,
        "10321": 18,
        "10322": 233,
        "10323": 187,
        "10324": 0,
        "10325": 152,
        "10326": 29,
        "10327": 98,
        "10328": 2,
        "10329": 145,
        "10330": 240,
        "10331": 77,
        "10332": 197,
        "10333": 154,
        "10334": 28,
        "10335": 253,
        "10336": 4,
        "10337": 99,
        "10338": 27,
        "10339": 173,
        "10340": 101,
        "10341": 137,
        "10342": 150,
        "10343": 127,
        "10344": 160,
        "10345": 76,
        "10346": 14,
        "10347": 118,
        "10348": 77,
        "10349": 181,
        "10350": 81,
        "10351": 28,
        "10352": 177,
        "10353": 194,
        "10354": 81,
        "10355": 187,
        "10356": 20,
        "10357": 175,
        "10358": 249,
        "10359": 31,
        "10360": 201,
        "10361": 187,
        "10362": 56,
        "10363": 104,
        "10364": 104,
        "10365": 171,
        "10366": 55,
        "10367": 103,
        "10368": 6,
        "10369": 1,
        "10370": 102,
        "10371": 117,
        "10372": 193,
        "10373": 61,
        "10374": 128,
        "10375": 7,
        "10376": 112,
        "10377": 107,
        "10378": 36,
        "10379": 105,
        "10380": 49,
        "10381": 27,
        "10382": 249,
        "10383": 231,
        "10384": 210,
        "10385": 56,
        "10386": 181,
        "10387": 245,
        "10388": 98,
        "10389": 56,
        "10390": 175,
        "10391": 149,
        "10392": 146,
        "10393": 233,
        "10394": 48,
        "10395": 128,
        "10396": 1,
        "10397": 206,
        "10398": 47,
        "10399": 142,
        "10400": 83,
        "10401": 133,
        "10402": 31,
        "10403": 204,
        "10404": 90,
        "10405": 101,
        "10406": 37,
        "10407": 218,
        "10408": 255,
        "10409": 225,
        "10410": 5,
        "10411": 66,
        "10412": 171,
        "10413": 77,
        "10414": 77,
        "10415": 113,
        "10416": 129,
        "10417": 107,
        "10418": 171,
        "10419": 149,
        "10420": 174,
        "10421": 101,
        "10422": 237,
        "10423": 188,
        "10424": 151,
        "10425": 204,
        "10426": 237,
        "10427": 164,
        "10428": 137,
        "10429": 133,
        "10430": 51,
        "10431": 125,
        "10432": 80,
        "10433": 4,
        "10434": 228,
        "10435": 60,
        "10436": 184,
        "10437": 33,
        "10438": 50,
        "10439": 198,
        "10440": 117,
        "10441": 189,
        "10442": 218,
        "10443": 93,
        "10444": 202,
        "10445": 86,
        "10446": 41,
        "10447": 122,
        "10448": 221,
        "10449": 73,
        "10450": 184,
        "10451": 28,
        "10452": 109,
        "10453": 196,
        "10454": 205,
        "10455": 17,
        "10456": 158,
        "10457": 54,
        "10458": 166,
        "10459": 83,
        "10460": 213,
        "10461": 167,
        "10462": 27,
        "10463": 153,
        "10464": 65,
        "10465": 23,
        "10466": 132,
        "10467": 173,
        "10468": 25,
        "10469": 136,
        "10470": 44,
        "10471": 37,
        "10472": 54,
        "10473": 195,
        "10474": 193,
        "10475": 110,
        "10476": 203,
        "10477": 190,
        "10478": 13,
        "10479": 207,
        "10480": 135,
        "10481": 151,
        "10482": 230,
        "10483": 176,
        "10484": 148,
        "10485": 245,
        "10486": 107,
        "10487": 179,
        "10488": 208,
        "10489": 162,
        "10490": 214,
        "10491": 189,
        "10492": 143,
        "10493": 29,
        "10494": 126,
        "10495": 190,
        "10496": 142,
        "10497": 162,
        "10498": 148,
        "10499": 106,
        "10500": 28,
        "10501": 106,
        "10502": 167,
        "10503": 109,
        "10504": 112,
        "10505": 239,
        "10506": 53,
        "10507": 80,
        "10508": 241,
        "10509": 108,
        "10510": 137,
        "10511": 243,
        "10512": 105,
        "10513": 86,
        "10514": 235,
        "10515": 9,
        "10516": 40,
        "10517": 183,
        "10518": 180,
        "10519": 174,
        "10520": 141,
        "10521": 193,
        "10522": 145,
        "10523": 70,
        "10524": 114,
        "10525": 192,
        "10526": 199,
        "10527": 177,
        "10528": 105,
        "10529": 33,
        "10530": 200,
        "10531": 17,
        "10532": 159,
        "10533": 160,
        "10534": 8,
        "10535": 107,
        "10536": 67,
        "10537": 94,
        "10538": 205,
        "10539": 59,
        "10540": 178,
        "10541": 139,
        "10542": 9,
        "10543": 24,
        "10544": 23,
        "10545": 117,
        "10546": 204,
        "10547": 95,
        "10548": 147,
        "10549": 69,
        "10550": 93,
        "10551": 123,
        "10552": 141,
        "10553": 248,
        "10554": 48,
        "10555": 109,
        "10556": 29,
        "10557": 71,
        "10558": 132,
        "10559": 232,
        "10560": 222,
        "10561": 105,
        "10562": 113,
        "10563": 254,
        "10564": 14,
        "10565": 29,
        "10566": 172,
        "10567": 85,
        "10568": 133,
        "10569": 34,
        "10570": 123,
        "10571": 67,
        "10572": 20,
        "10573": 84,
        "10574": 251,
        "10575": 156,
        "10576": 34,
        "10577": 93,
        "10578": 147,
        "10579": 59,
        "10580": 221,
        "10581": 121,
        "10582": 218,
        "10583": 225,
        "10584": 222,
        "10585": 44,
        "10586": 8,
        "10587": 36,
        "10588": 82,
        "10589": 144,
        "10590": 130,
        "10591": 99,
        "10592": 127,
        "10593": 72,
        "10594": 13,
        "10595": 186,
        "10596": 10,
        "10597": 76,
        "10598": 45,
        "10599": 162,
        "10600": 184,
        "10601": 34,
        "10602": 141,
        "10603": 65,
        "10604": 166,
        "10605": 106,
        "10606": 219,
        "10607": 76,
        "10608": 49,
        "10609": 136,
        "10610": 187,
        "10611": 198,
        "10612": 46,
        "10613": 55,
        "10614": 216,
        "10615": 189,
        "10616": 6,
        "10617": 162,
        "10618": 182,
        "10619": 190,
        "10620": 232,
        "10621": 224,
        "10622": 217,
        "10623": 102,
        "10624": 115,
        "10625": 255,
        "10626": 16,
        "10627": 197,
        "10628": 247,
        "10629": 226,
        "10630": 7,
        "10631": 153,
        "10632": 255,
        "10633": 209,
        "10634": 201,
        "10635": 151,
        "10636": 47,
        "10637": 199,
        "10638": 200,
        "10639": 163,
        "10640": 90,
        "10641": 44,
        "10642": 153,
        "10643": 74,
        "10644": 205,
        "10645": 177,
        "10646": 211,
        "10647": 222,
        "10648": 52,
        "10649": 9,
        "10650": 255,
        "10651": 98,
        "10652": 148,
        "10653": 185,
        "10654": 63,
        "10655": 203,
        "10656": 22,
        "10657": 215,
        "10658": 189,
        "10659": 97,
        "10660": 192,
        "10661": 95,
        "10662": 45,
        "10663": 181,
        "10664": 5,
        "10665": 63,
        "10666": 87,
        "10667": 66,
        "10668": 125,
        "10669": 145,
        "10670": 33,
        "10671": 89,
        "10672": 196,
        "10673": 236,
        "10674": 107,
        "10675": 40,
        "10676": 130,
        "10677": 240,
        "10678": 200,
        "10679": 79,
        "10680": 140,
        "10681": 150,
        "10682": 64,
        "10683": 218,
        "10684": 31,
        "10685": 216,
        "10686": 7,
        "10687": 176,
        "10688": 217,
        "10689": 14,
        "10690": 206,
        "10691": 214,
        "10692": 4,
        "10693": 211,
        "10694": 217,
        "10695": 88,
        "10696": 158,
        "10697": 1,
        "10698": 125,
        "10699": 9,
        "10700": 207,
        "10701": 87,
        "10702": 28,
        "10703": 170,
        "10704": 250,
        "10705": 11,
        "10706": 217,
        "10707": 30,
        "10708": 38,
        "10709": 1,
        "10710": 171,
        "10711": 113,
        "10712": 64,
        "10713": 189,
        "10714": 64,
        "10715": 59,
        "10716": 119,
        "10717": 26,
        "10718": 187,
        "10719": 158,
        "10720": 180,
        "10721": 130,
        "10722": 210,
        "10723": 10,
        "10724": 249,
        "10725": 126,
        "10726": 247,
        "10727": 11,
        "10728": 152,
        "10729": 180,
        "10730": 124,
        "10731": 41,
        "10732": 215,
        "10733": 143,
        "10734": 142,
        "10735": 70,
        "10736": 77,
        "10737": 85,
        "10738": 195,
        "10739": 155,
        "10740": 52,
        "10741": 254,
        "10742": 222,
        "10743": 69,
        "10744": 5,
        "10745": 15,
        "10746": 196,
        "10747": 190,
        "10748": 40,
        "10749": 239,
        "10750": 198,
        "10751": 189,
        "10752": 106,
        "10753": 135,
        "10754": 143,
        "10755": 175,
        "10756": 37,
        "10757": 105,
        "10758": 157,
        "10759": 227,
        "10760": 126,
        "10761": 244,
        "10762": 81,
        "10763": 133,
        "10764": 128,
        "10765": 111,
        "10766": 165,
        "10767": 227,
        "10768": 42,
        "10769": 63,
        "10770": 63,
        "10771": 254,
        "10772": 188,
        "10773": 116,
        "10774": 220,
        "10775": 13,
        "10776": 62,
        "10777": 126,
        "10778": 222,
        "10779": 134,
        "10780": 180,
        "10781": 162,
        "10782": 57,
        "10783": 209,
        "10784": 203,
        "10785": 83,
        "10786": 92,
        "10787": 165,
        "10788": 244,
        "10789": 67,
        "10790": 198,
        "10791": 109,
        "10792": 24,
        "10793": 152,
        "10794": 1,
        "10795": 148,
        "10796": 201,
        "10797": 177,
        "10798": 212,
        "10799": 44,
        "10800": 162,
        "10801": 128,
        "10802": 84,
        "10803": 233,
        "10804": 150,
        "10805": 141,
        "10806": 124,
        "10807": 174,
        "10808": 10,
        "10809": 56,
        "10810": 185,
        "10811": 64,
        "10812": 242,
        "10813": 174,
        "10814": 93,
        "10815": 194,
        "10816": 109,
        "10817": 114,
        "10818": 147,
        "10819": 46,
        "10820": 95,
        "10821": 241,
        "10822": 68,
        "10823": 76,
        "10824": 179,
        "10825": 194,
        "10826": 248,
        "10827": 12,
        "10828": 134,
        "10829": 167,
        "10830": 33,
        "10831": 227,
        "10832": 109,
        "10833": 52,
        "10834": 130,
        "10835": 169,
        "10836": 201,
        "10837": 135,
        "10838": 240,
        "10839": 204,
        "10840": 59,
        "10841": 239,
        "10842": 43,
        "10843": 89,
        "10844": 44,
        "10845": 72,
        "10846": 129,
        "10847": 127,
        "10848": 173,
        "10849": 177,
        "10850": 153,
        "10851": 121,
        "10852": 93,
        "10853": 159,
        "10854": 228,
        "10855": 175,
        "10856": 198,
        "10857": 173,
        "10858": 148,
        "10859": 159,
        "10860": 103,
        "10861": 134,
        "10862": 167,
        "10863": 62,
        "10864": 30,
        "10865": 49,
        "10866": 71,
        "10867": 159,
        "10868": 186,
        "10869": 54,
        "10870": 123,
        "10871": 114,
        "10872": 212,
        "10873": 236,
        "10874": 88,
        "10875": 234,
        "10876": 200,
        "10877": 197,
        "10878": 123,
        "10879": 116,
        "10880": 6,
        "10881": 53,
        "10882": 100,
        "10883": 117,
        "10884": 29,
        "10885": 29,
        "10886": 221,
        "10887": 111,
        "10888": 113,
        "10889": 162,
        "10890": 179,
        "10891": 91,
        "10892": 194,
        "10893": 90,
        "10894": 255,
        "10895": 240,
        "10896": 157,
        "10897": 57,
        "10898": 184,
        "10899": 176,
        "10900": 120,
        "10901": 38,
        "10902": 253,
        "10903": 177,
        "10904": 70,
        "10905": 43,
        "10906": 49,
        "10907": 214,
        "10908": 134,
        "10909": 104,
        "10910": 11,
        "10911": 142,
        "10912": 33,
        "10913": 167,
        "10914": 30,
        "10915": 113,
        "10916": 173,
        "10917": 13,
        "10918": 51,
        "10919": 37,
        "10920": 146,
        "10921": 142,
        "10922": 216,
        "10923": 232,
        "10924": 27,
        "10925": 38,
        "10926": 14,
        "10927": 4,
        "10928": 40,
        "10929": 209,
        "10930": 26,
        "10931": 39,
        "10932": 89,
        "10933": 252,
        "10934": 186,
        "10935": 12,
        "10936": 10,
        "10937": 130,
        "10938": 238,
        "10939": 85,
        "10940": 72,
        "10941": 228,
        "10942": 245,
        "10943": 134,
        "10944": 69,
        "10945": 162,
        "10946": 252,
        "10947": 237,
        "10948": 243,
        "10949": 193,
        "10950": 58,
        "10951": 205,
        "10952": 166,
        "10953": 132,
        "10954": 197,
        "10955": 216,
        "10956": 191,
        "10957": 175,
        "10958": 116,
        "10959": 97,
        "10960": 251,
        "10961": 163,
        "10962": 46,
        "10963": 108,
        "10964": 19,
        "10965": 82,
        "10966": 204,
        "10967": 194,
        "10968": 99,
        "10969": 54,
        "10970": 141,
        "10971": 218,
        "10972": 37,
        "10973": 142,
        "10974": 57,
        "10975": 158,
        "10976": 106,
        "10977": 22,
        "10978": 66,
        "10979": 157,
        "10980": 33,
        "10981": 125,
        "10982": 200,
        "10983": 151,
        "10984": 18,
        "10985": 111,
        "10986": 63,
        "10987": 219,
        "10988": 233,
        "10989": 106,
        "10990": 135,
        "10991": 162,
        "10992": 118,
        "10993": 151,
        "10994": 160,
        "10995": 66,
        "10996": 238,
        "10997": 152,
        "10998": 197,
        "10999": 89,
        "11000": 63,
        "11001": 155,
        "11002": 229,
        "11003": 48,
        "11004": 111,
        "11005": 161,
        "11006": 54,
        "11007": 158,
        "11008": 200,
        "11009": 165,
        "11010": 45,
        "11011": 55,
        "11012": 149,
        "11013": 139,
        "11014": 54,
        "11015": 238,
        "11016": 102,
        "11017": 92,
        "11018": 140,
        "11019": 118,
        "11020": 171,
        "11021": 73,
        "11022": 25,
        "11023": 28,
        "11024": 138,
        "11025": 34,
        "11026": 116,
        "11027": 75,
        "11028": 33,
        "11029": 55,
        "11030": 70,
        "11031": 132,
        "11032": 215,
        "11033": 60,
        "11034": 211,
        "11035": 123,
        "11036": 245,
        "11037": 84,
        "11038": 93,
        "11039": 31,
        "11040": 190,
        "11041": 142,
        "11042": 41,
        "11043": 245,
        "11044": 240,
        "11045": 141,
        "11046": 53,
        "11047": 73,
        "11048": 154,
        "11049": 1,
        "11050": 68,
        "11051": 159,
        "11052": 103,
        "11053": 8,
        "11054": 119,
        "11055": 238,
        "11056": 157,
        "11057": 57,
        "11058": 131,
        "11059": 181,
        "11060": 232,
        "11061": 34,
        "11062": 95,
        "11063": 155,
        "11064": 191,
        "11065": 28,
        "11066": 231,
        "11067": 116,
        "11068": 17,
        "11069": 113,
        "11070": 177,
        "11071": 15,
        "11072": 241,
        "11073": 173,
        "11074": 86,
        "11075": 251,
        "11076": 0,
        "11077": 211,
        "11078": 153,
        "11079": 15,
        "11080": 78,
        "11081": 56,
        "11082": 127,
        "11083": 9,
        "11084": 122,
        "11085": 147,
        "11086": 241,
        "11087": 231,
        "11088": 67,
        "11089": 148,
        "11090": 1,
        "11091": 182,
        "11092": 57,
        "11093": 52,
        "11094": 60,
        "11095": 68,
        "11096": 62,
        "11097": 79,
        "11098": 130,
        "11099": 56,
        "11100": 24,
        "11101": 225,
        "11102": 56,
        "11103": 57,
        "11104": 113,
        "11105": 194,
        "11106": 118,
        "11107": 190,
        "11108": 49,
        "11109": 73,
        "11110": 161,
        "11111": 186,
        "11112": 15,
        "11113": 43,
        "11114": 230,
        "11115": 153,
        "11116": 105,
        "11117": 218,
        "11118": 238,
        "11119": 196,
        "11120": 0,
        "11121": 214,
        "11122": 45,
        "11123": 84,
        "11124": 166,
        "11125": 222,
        "11126": 36,
        "11127": 64,
        "11128": 99,
        "11129": 118,
        "11130": 167,
        "11131": 148,
        "11132": 114,
        "11133": 56,
        "11134": 244,
        "11135": 171,
        "11136": 242,
        "11137": 78,
        "11138": 16,
        "11139": 166,
        "11140": 76,
        "11141": 198,
        "11142": 35,
        "11143": 220,
        "11144": 36,
        "11145": 214,
        "11146": 16,
        "11147": 211,
        "11148": 133,
        "11149": 144,
        "11150": 14,
        "11151": 68,
        "11152": 36,
        "11153": 244,
        "11154": 228,
        "11155": 31,
        "11156": 106,
        "11157": 149,
        "11158": 35,
        "11159": 192,
        "11160": 230,
        "11161": 179,
        "11162": 201,
        "11163": 206,
        "11164": 223,
        "11165": 127,
        "11166": 78,
        "11167": 42,
        "11168": 208,
        "11169": 250,
        "11170": 153,
        "11171": 214,
        "11172": 122,
        "11173": 31,
        "11174": 94,
        "11175": 65,
        "11176": 247,
        "11177": 209,
        "11178": 71,
        "11179": 246,
        "11180": 234,
        "11181": 92,
        "11182": 43,
        "11183": 220,
        "11184": 244,
        "11185": 190,
        "11186": 44,
        "11187": 66,
        "11188": 136,
        "11189": 184,
        "11190": 68,
        "11191": 158,
        "11192": 59,
        "11193": 21,
        "11194": 196,
        "11195": 176,
        "11196": 151,
        "11197": 186,
        "11198": 129,
        "11199": 168,
        "11200": 77,
        "11201": 31,
        "11202": 151,
        "11203": 220,
        "11204": 80,
        "11205": 61,
        "11206": 162,
        "11207": 66,
        "11208": 186,
        "11209": 155,
        "11210": 106,
        "11211": 117,
        "11212": 154,
        "11213": 233,
        "11214": 54,
        "11215": 99,
        "11216": 201,
        "11217": 45,
        "11218": 217,
        "11219": 251,
        "11220": 24,
        "11221": 104,
        "11222": 250,
        "11223": 67,
        "11224": 92,
        "11225": 254,
        "11226": 176,
        "11227": 23,
        "11228": 196,
        "11229": 37,
        "11230": 217,
        "11231": 162,
        "11232": 24,
        "11233": 236,
        "11234": 128,
        "11235": 204,
        "11236": 221,
        "11237": 39,
        "11238": 67,
        "11239": 20,
        "11240": 202,
        "11241": 121,
        "11242": 6,
        "11243": 65,
        "11244": 157,
        "11245": 140,
        "11246": 218,
        "11247": 149,
        "11248": 243,
        "11249": 45,
        "11250": 132,
        "11251": 133,
        "11252": 13,
        "11253": 136,
        "11254": 150,
        "11255": 5,
        "11256": 79,
        "11257": 78,
        "11258": 124,
        "11259": 100,
        "11260": 118,
        "11261": 122,
        "11262": 90,
        "11263": 41,
        "11264": 119,
        "11265": 139,
        "11266": 79,
        "11267": 203,
        "11268": 117,
        "11269": 223,
        "11270": 27,
        "11271": 203,
        "11272": 177,
        "11273": 253,
        "11274": 241,
        "11275": 130,
        "11276": 120,
        "11277": 129,
        "11278": 115,
        "11279": 247,
        "11280": 126,
        "11281": 67,
        "11282": 191,
        "11283": 242,
        "11284": 43,
        "11285": 233,
        "11286": 32,
        "11287": 108,
        "11288": 21,
        "11289": 101,
        "11290": 222,
        "11291": 251,
        "11292": 63,
        "11293": 226,
        "11294": 125,
        "11295": 202,
        "11296": 101,
        "11297": 18,
        "11298": 22,
        "11299": 8,
        "11300": 161,
        "11301": 154,
        "11302": 128,
        "11303": 104,
        "11304": 221,
        "11305": 170,
        "11306": 219,
        "11307": 208,
        "11308": 7,
        "11309": 249,
        "11310": 209,
        "11311": 202,
        "11312": 28,
        "11313": 73,
        "11314": 138,
        "11315": 221,
        "11316": 158,
        "11317": 111,
        "11318": 212,
        "11319": 25,
        "11320": 230,
        "11321": 94,
        "11322": 187,
        "11323": 127,
        "11324": 38,
        "11325": 18,
        "11326": 25,
        "11327": 250,
        "11328": 233,
        "11329": 106,
        "11330": 148,
        "11331": 160,
        "11332": 154,
        "11333": 184,
        "11334": 25,
        "11335": 227,
        "11336": 45,
        "11337": 29,
        "11338": 217,
        "11339": 9,
        "11340": 201,
        "11341": 211,
        "11342": 41,
        "11343": 234,
        "11344": 3,
        "11345": 151,
        "11346": 5,
        "11347": 254,
        "11348": 165,
        "11349": 148,
        "11350": 237,
        "11351": 22,
        "11352": 26,
        "11353": 11,
        "11354": 187,
        "11355": 218,
        "11356": 181,
        "11357": 240,
        "11358": 33,
        "11359": 188,
        "11360": 130,
        "11361": 35,
        "11362": 7,
        "11363": 188,
        "11364": 99,
        "11365": 188,
        "11366": 129,
        "11367": 151,
        "11368": 222,
        "11369": 19,
        "11370": 252,
        "11371": 215,
        "11372": 69,
        "11373": 167,
        "11374": 254,
        "11375": 180,
        "11376": 103,
        "11377": 222,
        "11378": 37,
        "11379": 244,
        "11380": 238,
        "11381": 242,
        "11382": 241,
        "11383": 53,
        "11384": 41,
        "11385": 68,
        "11386": 49,
        "11387": 88,
        "11388": 95,
        "11389": 106,
        "11390": 74,
        "11391": 29,
        "11392": 250,
        "11393": 134,
        "11394": 230,
        "11395": 163,
        "11396": 156,
        "11397": 236,
        "11398": 157,
        "11399": 208,
        "11400": 79,
        "11401": 252,
        "11402": 86,
        "11403": 90,
        "11404": 61,
        "11405": 166,
        "11406": 125,
        "11407": 241,
        "11408": 191,
        "11409": 55,
        "11410": 227,
        "11411": 109,
        "11412": 71,
        "11413": 227,
        "11414": 233,
        "11415": 228,
        "11416": 154,
        "11417": 238,
        "11418": 80,
        "11419": 106,
        "11420": 20,
        "11421": 20,
        "11422": 84,
        "11423": 174,
        "11424": 36,
        "11425": 180,
        "11426": 223,
        "11427": 175,
        "11428": 170,
        "11429": 128,
        "11430": 7,
        "11431": 25,
        "11432": 163,
        "11433": 220,
        "11434": 153,
        "11435": 216,
        "11436": 169,
        "11437": 123,
        "11438": 44,
        "11439": 219,
        "11440": 14,
        "11441": 134,
        "11442": 42,
        "11443": 123,
        "11444": 59,
        "11445": 212,
        "11446": 233,
        "11447": 175,
        "11448": 62,
        "11449": 226,
        "11450": 36,
        "11451": 95,
        "11452": 38,
        "11453": 179,
        "11454": 129,
        "11455": 2,
        "11456": 15,
        "11457": 238,
        "11458": 175,
        "11459": 66,
        "11460": 93,
        "11461": 26,
        "11462": 216,
        "11463": 26,
        "11464": 107,
        "11465": 180,
        "11466": 66,
        "11467": 104,
        "11468": 242,
        "11469": 181,
        "11470": 233,
        "11471": 123,
        "11472": 205,
        "11473": 233,
        "11474": 108,
        "11475": 52,
        "11476": 51,
        "11477": 109,
        "11478": 73,
        "11479": 73,
        "11480": 29,
        "11481": 201,
        "11482": 170,
        "11483": 110,
        "11484": 241,
        "11485": 147,
        "11486": 235,
        "11487": 72,
        "11488": 77,
        "11489": 255,
        "11490": 93,
        "11491": 34,
        "11492": 7,
        "11493": 141,
        "11494": 238,
        "11495": 166,
        "11496": 205,
        "11497": 220,
        "11498": 24,
        "11499": 61,
        "11500": 178,
        "11501": 156,
        "11502": 12,
        "11503": 43,
        "11504": 109,
        "11505": 210,
        "11506": 132,
        "11507": 9,
        "11508": 224,
        "11509": 61,
        "11510": 42,
        "11511": 167,
        "11512": 22,
        "11513": 153,
        "11514": 37,
        "11515": 62,
        "11516": 169,
        "11517": 196,
        "11518": 247,
        "11519": 173,
        "11520": 65,
        "11521": 23,
        "11522": 61,
        "11523": 232,
        "11524": 111,
        "11525": 92,
        "11526": 143,
        "11527": 172,
        "11528": 27,
        "11529": 118,
        "11530": 156,
        "11531": 173,
        "11532": 231,
        "11533": 83,
        "11534": 81,
        "11535": 179,
        "11536": 136,
        "11537": 150,
        "11538": 172,
        "11539": 240,
        "11540": 147,
        "11541": 4,
        "11542": 45,
        "11543": 81,
        "11544": 149,
        "11545": 27,
        "11546": 66,
        "11547": 58,
        "11548": 156,
        "11549": 8,
        "11550": 88,
        "11551": 146,
        "11552": 139,
        "11553": 170,
        "11554": 246,
        "11555": 203,
        "11556": 110,
        "11557": 9,
        "11558": 103,
        "11559": 104,
        "11560": 238,
        "11561": 74,
        "11562": 217,
        "11563": 232,
        "11564": 87,
        "11565": 248,
        "11566": 76,
        "11567": 187,
        "11568": 108,
        "11569": 172,
        "11570": 19,
        "11571": 191,
        "11572": 72,
        "11573": 154,
        "11574": 56,
        "11575": 251,
        "11576": 126,
        "11577": 239,
        "11578": 157,
        "11579": 164,
        "11580": 187,
        "11581": 232,
        "11582": 106,
        "11583": 23,
        "11584": 105,
        "11585": 28,
        "11586": 11,
        "11587": 173,
        "11588": 148,
        "11589": 225,
        "11590": 144,
        "11591": 73,
        "11592": 122,
        "11593": 159,
        "11594": 239,
        "11595": 149,
        "11596": 15,
        "11597": 152,
        "11598": 238,
        "11599": 105,
        "11600": 159,
        "11601": 42,
        "11602": 202,
        "11603": 43,
        "11604": 42,
        "11605": 56,
        "11606": 152,
        "11607": 117,
        "11608": 129,
        "11609": 142,
        "11610": 163,
        "11611": 111,
        "11612": 166,
        "11613": 73,
        "11614": 213,
        "11615": 29,
        "11616": 190,
        "11617": 209,
        "11618": 127,
        "11619": 120,
        "11620": 45,
        "11621": 165,
        "11622": 226,
        "11623": 81,
        "11624": 159,
        "11625": 6,
        "11626": 155,
        "11627": 81,
        "11628": 237,
        "11629": 240,
        "11630": 29,
        "11631": 187,
        "11632": 108,
        "11633": 232,
        "11634": 33,
        "11635": 15,
        "11636": 118,
        "11637": 155,
        "11638": 179,
        "11639": 236,
        "11640": 190,
        "11641": 233,
        "11642": 12,
        "11643": 188,
        "11644": 254,
        "11645": 171,
        "11646": 227,
        "11647": 62,
        "11648": 160,
        "11649": 193,
        "11650": 195,
        "11651": 63,
        "11652": 147,
        "11653": 128,
        "11654": 227,
        "11655": 10,
        "11656": 40,
        "11657": 123,
        "11658": 21,
        "11659": 111,
        "11660": 120,
        "11661": 49,
        "11662": 149,
        "11663": 2,
        "11664": 217,
        "11665": 72,
        "11666": 254,
        "11667": 68,
        "11668": 84,
        "11669": 1,
        "11670": 134,
        "11671": 32,
        "11672": 46,
        "11673": 29,
        "11674": 20,
        "11675": 202,
        "11676": 71,
        "11677": 187,
        "11678": 239,
        "11679": 39,
        "11680": 98,
        "11681": 250,
        "11682": 13,
        "11683": 138,
        "11684": 141,
        "11685": 73,
        "11686": 46,
        "11687": 236,
        "11688": 74,
        "11689": 7,
        "11690": 240,
        "11691": 52,
        "11692": 86,
        "11693": 36,
        "11694": 151,
        "11695": 120,
        "11696": 104,
        "11697": 146,
        "11698": 200,
        "11699": 52,
        "11700": 153,
        "11701": 61,
        "11702": 241,
        "11703": 165,
        "11704": 224,
        "11705": 170,
        "11706": 85,
        "11707": 34,
        "11708": 251,
        "11709": 42,
        "11710": 51,
        "11711": 57,
        "11712": 11,
        "11713": 65,
        "11714": 40,
        "11715": 53,
        "11716": 117,
        "11717": 179,
        "11718": 77,
        "11719": 219,
        "11720": 55,
        "11721": 163,
        "11722": 76,
        "11723": 14,
        "11724": 196,
        "11725": 142,
        "11726": 61,
        "11727": 9,
        "11728": 187,
        "11729": 241,
        "11730": 105,
        "11731": 248,
        "11732": 72,
        "11733": 33,
        "11734": 88,
        "11735": 239,
        "11736": 89,
        "11737": 157,
        "11738": 246,
        "11739": 129,
        "11740": 192,
        "11741": 68,
        "11742": 240,
        "11743": 223,
        "11744": 86,
        "11745": 149,
        "11746": 134,
        "11747": 146,
        "11748": 214,
        "11749": 237,
        "11750": 52,
        "11751": 205,
        "11752": 103,
        "11753": 115,
        "11754": 191,
        "11755": 39,
        "11756": 123,
        "11757": 54,
        "11758": 23,
        "11759": 12,
        "11760": 91,
        "11761": 97,
        "11762": 54,
        "11763": 1,
        "11764": 46,
        "11765": 65,
        "11766": 27,
        "11767": 75,
        "11768": 165,
        "11769": 100,
        "11770": 253,
        "11771": 6,
        "11772": 124,
        "11773": 236,
        "11774": 79,
        "11775": 219,
        "11776": 28,
        "11777": 221,
        "11778": 227,
        "11779": 206,
        "11780": 107,
        "11781": 44,
        "11782": 67,
        "11783": 186,
        "11784": 221,
        "11785": 167,
        "11786": 67,
        "11787": 111,
        "11788": 249,
        "11789": 77,
        "11790": 64,
        "11791": 143,
        "11792": 226,
        "11793": 207,
        "11794": 188,
        "11795": 24,
        "11796": 42,
        "11797": 188,
        "11798": 36,
        "11799": 113,
        "11800": 33,
        "11801": 74,
        "11802": 148,
        "11803": 41,
        "11804": 82,
        "11805": 134,
        "11806": 166,
        "11807": 233,
        "11808": 224,
        "11809": 92,
        "11810": 233,
        "11811": 167,
        "11812": 138,
        "11813": 184,
        "11814": 184,
        "11815": 205,
        "11816": 244,
        "11817": 215,
        "11818": 190,
        "11819": 156,
        "11820": 208,
        "11821": 31,
        "11822": 199,
        "11823": 32,
        "11824": 37,
        "11825": 58,
        "11826": 39,
        "11827": 91,
        "11828": 255,
        "11829": 111,
        "11830": 228,
        "11831": 181,
        "11832": 47,
        "11833": 35,
        "11834": 104,
        "11835": 94,
        "11836": 78,
        "11837": 111,
        "11838": 217,
        "11839": 19,
        "11840": 180,
        "11841": 214,
        "11842": 245,
        "11843": 75,
        "11844": 178,
        "11845": 213,
        "11846": 56,
        "11847": 254,
        "11848": 97,
        "11849": 116,
        "11850": 179,
        "11851": 150,
        "11852": 245,
        "11853": 132,
        "11854": 129,
        "11855": 225,
        "11856": 181,
        "11857": 156,
        "11858": 150,
        "11859": 210,
        "11860": 37,
        "11861": 102,
        "11862": 118,
        "11863": 3,
        "11864": 51,
        "11865": 148,
        "11866": 195,
        "11867": 168,
        "11868": 227,
        "11869": 56,
        "11870": 123,
        "11871": 6,
        "11872": 226,
        "11873": 224,
        "11874": 230,
        "11875": 161,
        "11876": 51,
        "11877": 59,
        "11878": 157,
        "11879": 85,
        "11880": 230,
        "11881": 243,
        "11882": 215,
        "11883": 212,
        "11884": 99,
        "11885": 44,
        "11886": 155,
        "11887": 164,
        "11888": 231,
        "11889": 174,
        "11890": 123,
        "11891": 83,
        "11892": 221,
        "11893": 233,
        "11894": 107,
        "11895": 178,
        "11896": 43,
        "11897": 21,
        "11898": 89,
        "11899": 168,
        "11900": 137,
        "11901": 137,
        "11902": 81,
        "11903": 195,
        "11904": 118,
        "11905": 181,
        "11906": 177,
        "11907": 19,
        "11908": 58,
        "11909": 185,
        "11910": 227,
        "11911": 15,
        "11912": 70,
        "11913": 88,
        "11914": 141,
        "11915": 7,
        "11916": 245,
        "11917": 194,
        "11918": 87,
        "11919": 115,
        "11920": 215,
        "11921": 158,
        "11922": 73,
        "11923": 11,
        "11924": 10,
        "11925": 209,
        "11926": 243,
        "11927": 239,
        "11928": 44,
        "11929": 92,
        "11930": 51,
        "11931": 94,
        "11932": 23,
        "11933": 238,
        "11934": 62,
        "11935": 114,
        "11936": 203,
        "11937": 194,
        "11938": 81,
        "11939": 191,
        "11940": 166,
        "11941": 222,
        "11942": 22,
        "11943": 205,
        "11944": 152,
        "11945": 215,
        "11946": 202,
        "11947": 203,
        "11948": 205,
        "11949": 5,
        "11950": 180,
        "11951": 179,
        "11952": 22,
        "11953": 24,
        "11954": 37,
        "11955": 129,
        "11956": 63,
        "11957": 115,
        "11958": 252,
        "11959": 64,
        "11960": 197,
        "11961": 163,
        "11962": 41,
        "11963": 137,
        "11964": 83,
        "11965": 71,
        "11966": 220,
        "11967": 189,
        "11968": 53,
        "11969": 247,
        "11970": 67,
        "11971": 25,
        "11972": 134,
        "11973": 221,
        "11974": 146,
        "11975": 19,
        "11976": 104,
        "11977": 190,
        "11978": 37,
        "11979": 159,
        "11980": 23,
        "11981": 200,
        "11982": 118,
        "11983": 193,
        "11984": 157,
        "11985": 177,
        "11986": 216,
        "11987": 183,
        "11988": 73,
        "11989": 160,
        "11990": 183,
        "11991": 245,
        "11992": 203,
        "11993": 140,
        "11994": 102,
        "11995": 87,
        "11996": 46,
        "11997": 135,
        "11998": 211,
        "11999": 162,
        "12000": 191,
        "12001": 48,
        "12002": 188,
        "12003": 38,
        "12004": 82,
        "12005": 89,
        "12006": 3,
        "12007": 0,
        "12008": 173,
        "12009": 84,
        "12010": 176,
        "12011": 97,
        "12012": 167,
        "12013": 188,
        "12014": 118,
        "12015": 97,
        "12016": 191,
        "12017": 77,
        "12018": 134,
        "12019": 84,
        "12020": 118,
        "12021": 249,
        "12022": 220,
        "12023": 134,
        "12024": 254,
        "12025": 117,
        "12026": 61,
        "12027": 25,
        "12028": 131,
        "12029": 195,
        "12030": 189,
        "12031": 183,
        "12032": 117,
        "12033": 73,
        "12034": 24,
        "12035": 216,
        "12036": 39,
        "12037": 56,
        "12038": 243,
        "12039": 139,
        "12040": 78,
        "12041": 227,
        "12042": 192,
        "12043": 234,
        "12044": 146,
        "12045": 117,
        "12046": 13,
        "12047": 47,
        "12048": 87,
        "12049": 42,
        "12050": 108,
        "12051": 245,
        "12052": 180,
        "12053": 231,
        "12054": 139,
        "12055": 54,
        "12056": 15,
        "12057": 230,
        "12058": 13,
        "12059": 220,
        "12060": 211,
        "12061": 153,
        "12062": 215,
        "12063": 135,
        "12064": 216,
        "12065": 154,
        "12066": 128,
        "12067": 168,
        "12068": 240,
        "12069": 253,
        "12070": 47,
        "12071": 10,
        "12072": 21,
        "12073": 14,
        "12074": 85,
        "12075": 99,
        "12076": 128,
        "12077": 138,
        "12078": 219,
        "12079": 134,
        "12080": 14,
        "12081": 108,
        "12082": 130,
        "12083": 196,
        "12084": 59,
        "12085": 56,
        "12086": 50,
        "12087": 162,
        "12088": 128,
        "12089": 195,
        "12090": 51,
        "12091": 191,
        "12092": 229,
        "12093": 0,
        "12094": 124,
        "12095": 172,
        "12096": 79,
        "12097": 20,
        "12098": 231,
        "12099": 26,
        "12100": 165,
        "12101": 22,
        "12102": 206,
        "12103": 123,
        "12104": 186,
        "12105": 188,
        "12106": 131,
        "12107": 196,
        "12108": 217,
        "12109": 117,
        "12110": 207,
        "12111": 209,
        "12112": 136,
        "12113": 97,
        "12114": 138,
        "12115": 226,
        "12116": 215,
        "12117": 48,
        "12118": 174,
        "12119": 140,
        "12120": 35,
        "12121": 24,
        "12122": 106,
        "12123": 229,
        "12124": 168,
        "12125": 156,
        "12126": 5,
        "12127": 38,
        "12128": 246,
        "12129": 64,
        "12130": 100,
        "12131": 197,
        "12132": 29,
        "12133": 144,
        "12134": 104,
        "12135": 111,
        "12136": 221,
        "12137": 251,
        "12138": 76,
        "12139": 77,
        "12140": 220,
        "12141": 29,
        "12142": 233,
        "12143": 225,
        "12144": 220,
        "12145": 127,
        "12146": 221,
        "12147": 137,
        "12148": 17,
        "12149": 80,
        "12150": 141,
        "12151": 32,
        "12152": 172,
        "12153": 60,
        "12154": 199,
        "12155": 147,
        "12156": 203,
        "12157": 240,
        "12158": 46,
        "12159": 199,
        "12160": 160,
        "12161": 198,
        "12162": 43,
        "12163": 224,
        "12164": 108,
        "12165": 95,
        "12166": 44,
        "12167": 85,
        "12168": 207,
        "12169": 207,
        "12170": 211,
        "12171": 62,
        "12172": 250,
        "12173": 174,
        "12174": 9,
        "12175": 117,
        "12176": 231,
        "12177": 227,
        "12178": 232,
        "12179": 21,
        "12180": 68,
        "12181": 164,
        "12182": 62,
        "12183": 6,
        "12184": 206,
        "12185": 63,
        "12186": 242,
        "12187": 146,
        "12188": 188,
        "12189": 116,
        "12190": 238,
        "12191": 190,
        "12192": 63,
        "12193": 87,
        "12194": 166,
        "12195": 201,
        "12196": 101,
        "12197": 184,
        "12198": 53,
        "12199": 163,
        "12200": 97,
        "12201": 148,
        "12202": 32,
        "12203": 38,
        "12204": 247,
        "12205": 85,
        "12206": 239,
        "12207": 65,
        "12208": 102,
        "12209": 130,
        "12210": 122,
        "12211": 69,
        "12212": 219,
        "12213": 12,
        "12214": 183,
        "12215": 251,
        "12216": 16,
        "12217": 43,
        "12218": 235,
        "12219": 5,
        "12220": 51,
        "12221": 74,
        "12222": 8,
        "12223": 135,
        "12224": 44,
        "12225": 31,
        "12226": 11,
        "12227": 197,
        "12228": 65,
        "12229": 57,
        "12230": 94,
        "12231": 182,
        "12232": 175,
        "12233": 85,
        "12234": 8,
        "12235": 244,
        "12236": 51,
        "12237": 205,
        "12238": 136,
        "12239": 120,
        "12240": 142,
        "12241": 254,
        "12242": 12,
        "12243": 95,
        "12244": 30,
        "12245": 63,
        "12246": 59,
        "12247": 184,
        "12248": 166,
        "12249": 126,
        "12250": 67,
        "12251": 162,
        "12252": 125,
        "12253": 189,
        "12254": 200,
        "12255": 246,
        "12256": 59,
        "12257": 187,
        "12258": 6,
        "12259": 117,
        "12260": 229,
        "12261": 2,
        "12262": 178,
        "12263": 152,
        "12264": 240,
        "12265": 205,
        "12266": 134,
        "12267": 84,
        "12268": 104,
        "12269": 206,
        "12270": 251,
        "12271": 211,
        "12272": 223,
        "12273": 80,
        "12274": 231,
        "12275": 206,
        "12276": 93,
        "12277": 188,
        "12278": 180,
        "12279": 218,
        "12280": 228,
        "12281": 95,
        "12282": 130,
        "12283": 148,
        "12284": 101,
        "12285": 228,
        "12286": 248,
        "12287": 170,
        "12288": 126,
        "12289": 197,
        "12290": 40,
        "12291": 213,
        "12292": 141,
        "12293": 94,
        "12294": 8,
        "12295": 115,
        "12296": 113,
        "12297": 136,
        "12298": 25,
        "12299": 88,
        "12300": 75,
        "12301": 255,
        "12302": 170,
        "12303": 250,
        "12304": 135,
        "12305": 75,
        "12306": 214,
        "12307": 149,
        "12308": 87,
        "12309": 18,
        "12310": 164,
        "12311": 32,
        "12312": 192,
        "12313": 36,
        "12314": 209,
        "12315": 86,
        "12316": 35,
        "12317": 32,
        "12318": 87,
        "12319": 110,
        "12320": 86,
        "12321": 247,
        "12322": 232,
        "12323": 128,
        "12324": 225,
        "12325": 252,
        "12326": 129,
        "12327": 203,
        "12328": 69,
        "12329": 3,
        "12330": 62,
        "12331": 127,
        "12332": 242,
        "12333": 1,
        "12334": 121,
        "12335": 139,
        "12336": 233,
        "12337": 156,
        "12338": 178,
        "12339": 24,
        "12340": 77,
        "12341": 169,
        "12342": 69,
        "12343": 245,
        "12344": 199,
        "12345": 64,
        "12346": 29,
        "12347": 131,
        "12348": 192,
        "12349": 253,
        "12350": 173,
        "12351": 209,
        "12352": 82,
        "12353": 59,
        "12354": 220,
        "12355": 161,
        "12356": 190,
        "12357": 46,
        "12358": 174,
        "12359": 215,
        "12360": 19,
        "12361": 249,
        "12362": 167,
        "12363": 76,
        "12364": 218,
        "12365": 145,
        "12366": 180,
        "12367": 199,
        "12368": 111,
        "12369": 198,
        "12370": 204,
        "12371": 190,
        "12372": 64,
        "12373": 39,
        "12374": 2,
        "12375": 210,
        "12376": 170,
        "12377": 69,
        "12378": 63,
        "12379": 216,
        "12380": 124,
        "12381": 107,
        "12382": 240,
        "12383": 128,
        "12384": 218,
        "12385": 58,
        "12386": 173,
        "12387": 53,
        "12388": 69,
        "12389": 153,
        "12390": 215,
        "12391": 172,
        "12392": 209,
        "12393": 152,
        "12394": 7,
        "12395": 70,
        "12396": 36,
        "12397": 128,
        "12398": 130,
        "12399": 80,
        "12400": 109,
        "12401": 79,
        "12402": 58,
        "12403": 23,
        "12404": 155,
        "12405": 100,
        "12406": 151,
        "12407": 50,
        "12408": 130,
        "12409": 170,
        "12410": 162,
        "12411": 36,
        "12412": 62,
        "12413": 54,
        "12414": 171,
        "12415": 199,
        "12416": 158,
        "12417": 185,
        "12418": 221,
        "12419": 226,
        "12420": 22,
        "12421": 172,
        "12422": 108,
        "12423": 188,
        "12424": 177,
        "12425": 17,
        "12426": 252,
        "12427": 242,
        "12428": 62,
        "12429": 8,
        "12430": 160,
        "12431": 215,
        "12432": 13,
        "12433": 111,
        "12434": 114,
        "12435": 93,
        "12436": 64,
        "12437": 212,
        "12438": 23,
        "12439": 70,
        "12440": 183,
        "12441": 147,
        "12442": 235,
        "12443": 242,
        "12444": 153,
        "12445": 236,
        "12446": 62,
        "12447": 118,
        "12448": 172,
        "12449": 41,
        "12450": 241,
        "12451": 130,
        "12452": 139,
        "12453": 67,
        "12454": 124,
        "12455": 127,
        "12456": 245,
        "12457": 8,
        "12458": 127,
        "12459": 121,
        "12460": 203,
        "12461": 231,
        "12462": 46,
        "12463": 100,
        "12464": 139,
        "12465": 24,
        "12466": 109,
        "12467": 69,
        "12468": 55,
        "12469": 130,
        "12470": 89,
        "12471": 222,
        "12472": 23,
        "12473": 78,
        "12474": 43,
        "12475": 230,
        "12476": 148,
        "12477": 249,
        "12478": 56,
        "12479": 3,
        "12480": 151,
        "12481": 205,
        "12482": 179,
        "12483": 244,
        "12484": 196,
        "12485": 137,
        "12486": 138,
        "12487": 253,
        "12488": 41,
        "12489": 44,
        "12490": 42,
        "12491": 88,
        "12492": 145,
        "12493": 232,
        "12494": 68,
        "12495": 34,
        "12496": 211,
        "12497": 120,
        "12498": 6,
        "12499": 33,
        "12500": 155,
        "12501": 68,
        "12502": 85,
        "12503": 78,
        "12504": 135,
        "12505": 62,
        "12506": 146,
        "12507": 211,
        "12508": 240,
        "12509": 106,
        "12510": 211,
        "12511": 71,
        "12512": 207,
        "12513": 182,
        "12514": 146,
        "12515": 158,
        "12516": 124,
        "12517": 170,
        "12518": 244,
        "12519": 155,
        "12520": 64,
        "12521": 155,
        "12522": 186,
        "12523": 220,
        "12524": 183,
        "12525": 201,
        "12526": 59,
        "12527": 254,
        "12528": 136,
        "12529": 229,
        "12530": 220,
        "12531": 167,
        "12532": 59,
        "12533": 240,
        "12534": 85,
        "12535": 8,
        "12536": 72,
        "12537": 233,
        "12538": 223,
        "12539": 59,
        "12540": 133,
        "12541": 74,
        "12542": 177,
        "12543": 20,
        "12544": 139,
        "12545": 219,
        "12546": 145,
        "12547": 195,
        "12548": 140,
        "12549": 66,
        "12550": 163,
        "12551": 180,
        "12552": 34,
        "12553": 141,
        "12554": 239,
        "12555": 95,
        "12556": 49,
        "12557": 193,
        "12558": 53,
        "12559": 143,
        "12560": 67,
        "12561": 22,
        "12562": 79,
        "12563": 209,
        "12564": 233,
        "12565": 117,
        "12566": 237,
        "12567": 166,
        "12568": 194,
        "12569": 164,
        "12570": 203,
        "12571": 162,
        "12572": 217,
        "12573": 155,
        "12574": 56,
        "12575": 131,
        "12576": 34,
        "12577": 138,
        "12578": 11,
        "12579": 89,
        "12580": 20,
        "12581": 69,
        "12582": 14,
        "12583": 21,
        "12584": 233,
        "12585": 145,
        "12586": 250,
        "12587": 129,
        "12588": 54,
        "12589": 98,
        "12590": 16,
        "12591": 189,
        "12592": 53,
        "12593": 108,
        "12594": 155,
        "12595": 83,
        "12596": 22,
        "12597": 0,
        "12598": 124,
        "12599": 239,
        "12600": 146,
        "12601": 34,
        "12602": 126,
        "12603": 15,
        "12604": 243,
        "12605": 30,
        "12606": 215,
        "12607": 90,
        "12608": 191,
        "12609": 192,
        "12610": 236,
        "12611": 250,
        "12612": 106,
        "12613": 106,
        "12614": 107,
        "12615": 16,
        "12616": 88,
        "12617": 67,
        "12618": 160,
        "12619": 73,
        "12620": 173,
        "12621": 216,
        "12622": 43,
        "12623": 5,
        "12624": 17,
        "12625": 66,
        "12626": 157,
        "12627": 118,
        "12628": 85,
        "12629": 126,
        "12630": 110,
        "12631": 8,
        "12632": 87,
        "12633": 47,
        "12634": 2,
        "12635": 119,
        "12636": 212,
        "12637": 229,
        "12638": 60,
        "12639": 3,
        "12640": 67,
        "12641": 186,
        "12642": 119,
        "12643": 116,
        "12644": 181,
        "12645": 76,
        "12646": 78,
        "12647": 185,
        "12648": 151,
        "12649": 242,
        "12650": 188,
        "12651": 124,
        "12652": 142,
        "12653": 159,
        "12654": 139,
        "12655": 177,
        "12656": 252,
        "12657": 34,
        "12658": 127,
        "12659": 63,
        "12660": 28,
        "12661": 168,
        "12662": 189,
        "12663": 89,
        "12664": 253,
        "12665": 253,
        "12666": 142,
        "12667": 217,
        "12668": 94,
        "12669": 243,
        "12670": 166,
        "12671": 206,
        "12672": 210,
        "12673": 218,
        "12674": 226,
        "12675": 248,
        "12676": 11,
        "12677": 251,
        "12678": 114,
        "12679": 128,
        "12680": 93,
        "12681": 212,
        "12682": 241,
        "12683": 189,
        "12684": 9,
        "12685": 196,
        "12686": 230,
        "12687": 128,
        "12688": 37,
        "12689": 147,
        "12690": 244,
        "12691": 56,
        "12692": 45,
        "12693": 38,
        "12694": 28,
        "12695": 185,
        "12696": 61,
        "12697": 192,
        "12698": 49,
        "12699": 197,
        "12700": 34,
        "12701": 200,
        "12702": 47,
        "12703": 162,
        "12704": 221,
        "12705": 104,
        "12706": 58,
        "12707": 97,
        "12708": 139,
        "12709": 185,
        "12710": 201,
        "12711": 107,
        "12712": 176,
        "12713": 98,
        "12714": 42,
        "12715": 190,
        "12716": 93,
        "12717": 129,
        "12718": 88,
        "12719": 219,
        "12720": 126,
        "12721": 186,
        "12722": 217,
        "12723": 239,
        "12724": 19,
        "12725": 128,
        "12726": 241,
        "12727": 61,
        "12728": 35,
        "12729": 118,
        "12730": 100,
        "12731": 239,
        "12732": 207,
        "12733": 57,
        "12734": 165,
        "12735": 77,
        "12736": 125,
        "12737": 136,
        "12738": 41,
        "12739": 223,
        "12740": 213,
        "12741": 114,
        "12742": 33,
        "12743": 55,
        "12744": 137,
        "12745": 177,
        "12746": 121,
        "12747": 171,
        "12748": 11,
        "12749": 202,
        "12750": 188,
        "12751": 177,
        "12752": 227,
        "12753": 122,
        "12754": 220,
        "12755": 88,
        "12756": 189,
        "12757": 184,
        "12758": 19,
        "12759": 158,
        "12760": 18,
        "12761": 121,
        "12762": 62,
        "12763": 103,
        "12764": 232,
        "12765": 173,
        "12766": 190,
        "12767": 200,
        "12768": 57,
        "12769": 160,
        "12770": 119,
        "12771": 15,
        "12772": 23,
        "12773": 216,
        "12774": 190,
        "12775": 19,
        "12776": 83,
        "12777": 51,
        "12778": 90,
        "12779": 226,
        "12780": 174,
        "12781": 14,
        "12782": 235,
        "12783": 153,
        "12784": 197,
        "12785": 53,
        "12786": 28,
        "12787": 89,
        "12788": 172,
        "12789": 115,
        "12790": 3,
        "12791": 134,
        "12792": 199,
        "12793": 80,
        "12794": 225,
        "12795": 1,
        "12796": 177,
        "12797": 117,
        "12798": 204,
        "12799": 19,
        "12800": 144,
        "12801": 17,
        "12802": 2,
        "12803": 214,
        "12804": 246,
        "12805": 184,
        "12806": 8,
        "12807": 69,
        "12808": 210,
        "12809": 62,
        "12810": 98,
        "12811": 126,
        "12812": 107,
        "12813": 47,
        "12814": 13,
        "12815": 202,
        "12816": 255,
        "12817": 57,
        "12818": 197,
        "12819": 200,
        "12820": 51,
        "12821": 110,
        "12822": 50,
        "12823": 118,
        "12824": 56,
        "12825": 191,
        "12826": 55,
        "12827": 132,
        "12828": 196,
        "12829": 221,
        "12830": 103,
        "12831": 124,
        "12832": 104,
        "12833": 178,
        "12834": 152,
        "12835": 33,
        "12836": 156,
        "12837": 175,
        "12838": 100,
        "12839": 167,
        "12840": 31,
        "12841": 221,
        "12842": 28,
        "12843": 187,
        "12844": 184,
        "12845": 211,
        "12846": 120,
        "12847": 49,
        "12848": 220,
        "12849": 26,
        "12850": 46,
        "12851": 216,
        "12852": 166,
        "12853": 127,
        "12854": 231,
        "12855": 24,
        "12856": 247,
        "12857": 79,
        "12858": 8,
        "12859": 200,
        "12860": 81,
        "12861": 252,
        "12862": 200,
        "12863": 152,
        "12864": 10,
        "12865": 61,
        "12866": 226,
        "12867": 214,
        "12868": 192,
        "12869": 86,
        "12870": 12,
        "12871": 102,
        "12872": 17,
        "12873": 233,
        "12874": 146,
        "12875": 115,
        "12876": 209,
        "12877": 76,
        "12878": 94,
        "12879": 163,
        "12880": 8,
        "12881": 189,
        "12882": 56,
        "12883": 178,
        "12884": 30,
        "12885": 9,
        "12886": 199,
        "12887": 84,
        "12888": 19,
        "12889": 93,
        "12890": 248,
        "12891": 114,
        "12892": 249,
        "12893": 4,
        "12894": 223,
        "12895": 129,
        "12896": 44,
        "12897": 44,
        "12898": 148,
        "12899": 221,
        "12900": 8,
        "12901": 115,
        "12902": 14,
        "12903": 3,
        "12904": 93,
        "12905": 218,
        "12906": 23,
        "12907": 59,
        "12908": 221,
        "12909": 194,
        "12910": 205,
        "12911": 222,
        "12912": 180,
        "12913": 242,
        "12914": 50,
        "12915": 250,
        "12916": 187,
        "12917": 18,
        "12918": 151,
        "12919": 244,
        "12920": 165,
        "12921": 4,
        "12922": 138,
        "12923": 161,
        "12924": 245,
        "12925": 122,
        "12926": 172,
        "12927": 116,
        "12928": 63,
        "12929": 113,
        "12930": 115,
        "12931": 230,
        "12932": 203,
        "12933": 57,
        "12934": 98,
        "12935": 23,
        "12936": 170,
        "12937": 196,
        "12938": 108,
        "12939": 135,
        "12940": 31,
        "12941": 88,
        "12942": 114,
        "12943": 117,
        "12944": 111,
        "12945": 68,
        "12946": 142,
        "12947": 106,
        "12948": 113,
        "12949": 95,
        "12950": 98,
        "12951": 134,
        "12952": 247,
        "12953": 134,
        "12954": 40,
        "12955": 172,
        "12956": 121,
        "12957": 178,
        "12958": 112,
        "12959": 155,
        "12960": 200,
        "12961": 220,
        "12962": 39,
        "12963": 244,
        "12964": 105,
        "12965": 62,
        "12966": 55,
        "12967": 44,
        "12968": 227,
        "12969": 37,
        "12970": 67,
        "12971": 217,
        "12972": 67,
        "12973": 96,
        "12974": 80,
        "12975": 8,
        "12976": 183,
        "12977": 117,
        "12978": 96,
        "12979": 109,
        "12980": 169,
        "12981": 16,
        "12982": 127,
        "12983": 78,
        "12984": 65,
        "12985": 215,
        "12986": 105,
        "12987": 89,
        "12988": 236,
        "12989": 198,
        "12990": 66,
        "12991": 226,
        "12992": 151,
        "12993": 193,
        "12994": 193,
        "12995": 207,
        "12996": 10,
        "12997": 253,
        "12998": 226,
        "12999": 231,
        "13000": 71,
        "13001": 66,
        "13002": 19,
        "13003": 150,
        "13004": 18,
        "13005": 255,
        "13006": 101,
        "13007": 174,
        "13008": 0,
        "13009": 97,
        "13010": 86,
        "13011": 119,
        "13012": 69,
        "13013": 237,
        "13014": 104,
        "13015": 156,
        "13016": 17,
        "13017": 184,
        "13018": 204,
        "13019": 63,
        "13020": 187,
        "13021": 164,
        "13022": 30,
        "13023": 179,
        "13024": 26,
        "13025": 240,
        "13026": 160,
        "13027": 166,
        "13028": 65,
        "13029": 182,
        "13030": 190,
        "13031": 145,
        "13032": 122,
        "13033": 125,
        "13034": 195,
        "13035": 223,
        "13036": 225,
        "13037": 81,
        "13038": 59,
        "13039": 77,
        "13040": 218,
        "13041": 193,
        "13042": 216,
        "13043": 146,
        "13044": 209,
        "13045": 250,
        "13046": 45,
        "13047": 87,
        "13048": 17,
        "13049": 116,
        "13050": 184,
        "13051": 216,
        "13052": 162,
        "13053": 24,
        "13054": 225,
        "13055": 134,
        "13056": 220,
        "13057": 68,
        "13058": 9,
        "13059": 201,
        "13060": 191,
        "13061": 245,
        "13062": 176,
        "13063": 249,
        "13064": 109,
        "13065": 37,
        "13066": 187,
        "13067": 17,
        "13068": 215,
        "13069": 50,
        "13070": 241,
        "13071": 38,
        "13072": 66,
        "13073": 175,
        "13074": 106,
        "13075": 218,
        "13076": 25,
        "13077": 241,
        "13078": 185,
        "13079": 167,
        "13080": 144,
        "13081": 147,
        "13082": 155,
        "13083": 143,
        "13084": 162,
        "13085": 169,
        "13086": 173,
        "13087": 33,
        "13088": 98,
        "13089": 167,
        "13090": 178,
        "13091": 55,
        "13092": 63,
        "13093": 143,
        "13094": 209,
        "13095": 235,
        "13096": 45,
        "13097": 121,
        "13098": 200,
        "13099": 148,
        "13100": 96,
        "13101": 50,
        "13102": 132,
        "13103": 173,
        "13104": 66,
        "13105": 21,
        "13106": 193,
        "13107": 15,
        "13108": 197,
        "13109": 199,
        "13110": 242,
        "13111": 144,
        "13112": 121,
        "13113": 112,
        "13114": 47,
        "13115": 67,
        "13116": 88,
        "13117": 253,
        "13118": 241,
        "13119": 88,
        "13120": 50,
        "13121": 165,
        "13122": 57,
        "13123": 189,
        "13124": 187,
        "13125": 135,
        "13126": 187,
        "13127": 194,
        "13128": 224,
        "13129": 17,
        "13130": 45,
        "13131": 19,
        "13132": 114,
        "13133": 173,
        "13134": 145,
        "13135": 209,
        "13136": 194,
        "13137": 70,
        "13138": 84,
        "13139": 111,
        "13140": 234,
        "13141": 104,
        "13142": 164,
        "13143": 251,
        "13144": 116,
        "13145": 146,
        "13146": 62,
        "13147": 191,
        "13148": 210,
        "13149": 194,
        "13150": 242,
        "13151": 102,
        "13152": 195,
        "13153": 213,
        "13154": 8,
        "13155": 82,
        "13156": 229,
        "13157": 248,
        "13158": 51,
        "13159": 95,
        "13160": 65,
        "13161": 17,
        "13162": 220,
        "13163": 143,
        "13164": 92,
        "13165": 133,
        "13166": 55,
        "13167": 140,
        "13168": 28,
        "13169": 83,
        "13170": 182,
        "13171": 38,
        "13172": 199,
        "13173": 202,
        "13174": 102,
        "13175": 155,
        "13176": 183,
        "13177": 180,
        "13178": 96,
        "13179": 213,
        "13180": 44,
        "13181": 211,
        "13182": 157,
        "13183": 114,
        "13184": 213,
        "13185": 27,
        "13186": 105,
        "13187": 66,
        "13188": 136,
        "13189": 153,
        "13190": 80,
        "13191": 255,
        "13192": 4,
        "13193": 13,
        "13194": 83,
        "13195": 65,
        "13196": 64,
        "13197": 37,
        "13198": 57,
        "13199": 0,
        "13200": 150,
        "13201": 123,
        "13202": 118,
        "13203": 60,
        "13204": 31,
        "13205": 35,
        "13206": 205,
        "13207": 47,
        "13208": 0,
        "13209": 44,
        "13210": 111,
        "13211": 109,
        "13212": 66,
        "13213": 220,
        "13214": 136,
        "13215": 251,
        "13216": 134,
        "13217": 235,
        "13218": 212,
        "13219": 113,
        "13220": 41,
        "13221": 242,
        "13222": 131,
        "13223": 34,
        "13224": 112,
        "13225": 216,
        "13226": 194,
        "13227": 253,
        "13228": 81,
        "13229": 247,
        "13230": 20,
        "13231": 138,
        "13232": 255,
        "13233": 32,
        "13234": 65,
        "13235": 189,
        "13236": 107,
        "13237": 28,
        "13238": 27,
        "13239": 254,
        "13240": 18,
        "13241": 45,
        "13242": 97,
        "13243": 115,
        "13244": 141,
        "13245": 208,
        "13246": 185,
        "13247": 66,
        "13248": 58,
        "13249": 107,
        "13250": 146,
        "13251": 5,
        "13252": 168,
        "13253": 48,
        "13254": 167,
        "13255": 246,
        "13256": 1,
        "13257": 25,
        "13258": 151,
        "13259": 115,
        "13260": 41,
        "13261": 54,
        "13262": 148,
        "13263": 182,
        "13264": 146,
        "13265": 246,
        "13266": 35,
        "13267": 122,
        "13268": 194,
        "13269": 248,
        "13270": 77,
        "13271": 234,
        "13272": 150,
        "13273": 171,
        "13274": 251,
        "13275": 59,
        "13276": 119,
        "13277": 220,
        "13278": 137,
        "13279": 127,
        "13280": 192,
        "13281": 187,
        "13282": 176,
        "13283": 60,
        "13284": 181,
        "13285": 141,
        "13286": 13,
        "13287": 186,
        "13288": 42,
        "13289": 156,
        "13290": 194,
        "13291": 72,
        "13292": 126,
        "13293": 22,
        "13294": 20,
        "13295": 253,
        "13296": 172,
        "13297": 150,
        "13298": 235,
        "13299": 17,
        "13300": 106,
        "13301": 24,
        "13302": 115,
        "13303": 70,
        "13304": 101,
        "13305": 226,
        "13306": 66,
        "13307": 27,
        "13308": 61,
        "13309": 169,
        "13310": 76,
        "13311": 154,
        "13312": 212,
        "13313": 1,
        "13314": 155,
        "13315": 236,
        "13316": 141,
        "13317": 23,
        "13318": 90,
        "13319": 66,
        "13320": 120,
        "13321": 150,
        "13322": 167,
        "13323": 81,
        "13324": 1,
        "13325": 157,
        "13326": 157,
        "13327": 184,
        "13328": 242,
        "13329": 170,
        "13330": 51,
        "13331": 17,
        "13332": 212,
        "13333": 59,
        "13334": 91,
        "13335": 117,
        "13336": 183,
        "13337": 110,
        "13338": 1,
        "13339": 14,
        "13340": 144,
        "13341": 63,
        "13342": 251,
        "13343": 139,
        "13344": 253,
        "13345": 198,
        "13346": 153,
        "13347": 240,
        "13348": 120,
        "13349": 98,
        "13350": 163,
        "13351": 1,
        "13352": 137,
        "13353": 173,
        "13354": 48,
        "13355": 5,
        "13356": 254,
        "13357": 182,
        "13358": 58,
        "13359": 158,
        "13360": 59,
        "13361": 225,
        "13362": 119,
        "13363": 255,
        "13364": 139,
        "13365": 177,
        "13366": 63,
        "13367": 231,
        "13368": 77,
        "13369": 201,
        "13370": 148,
        "13371": 29,
        "13372": 133,
        "13373": 116,
        "13374": 94,
        "13375": 75,
        "13376": 244,
        "13377": 32,
        "13378": 23,
        "13379": 33,
        "13380": 71,
        "13381": 64,
        "13382": 233,
        "13383": 210,
        "13384": 230,
        "13385": 26,
        "13386": 85,
        "13387": 149,
        "13388": 103,
        "13389": 109,
        "13390": 70,
        "13391": 58,
        "13392": 234,
        "13393": 170,
        "13394": 66,
        "13395": 239,
        "13396": 41,
        "13397": 193,
        "13398": 100,
        "13399": 33,
        "13400": 249,
        "13401": 141,
        "13402": 157,
        "13403": 112,
        "13404": 147,
        "13405": 61,
        "13406": 201,
        "13407": 50,
        "13408": 101,
        "13409": 201,
        "13410": 250,
        "13411": 75,
        "13412": 23,
        "13413": 62,
        "13414": 37,
        "13415": 117,
        "13416": 202,
        "13417": 101,
        "13418": 14,
        "13419": 47,
        "13420": 155,
        "13421": 56,
        "13422": 80,
        "13423": 175,
        "13424": 50,
        "13425": 188,
        "13426": 68,
        "13427": 253,
        "13428": 215,
        "13429": 73,
        "13430": 105,
        "13431": 199,
        "13432": 4,
        "13433": 100,
        "13434": 194,
        "13435": 249,
        "13436": 44,
        "13437": 133,
        "13438": 112,
        "13439": 190,
        "13440": 19,
        "13441": 48,
        "13442": 78,
        "13443": 87,
        "13444": 26,
        "13445": 14,
        "13446": 88,
        "13447": 221,
        "13448": 6,
        "13449": 194,
        "13450": 231,
        "13451": 26,
        "13452": 185,
        "13453": 227,
        "13454": 188,
        "13455": 144,
        "13456": 39,
        "13457": 133,
        "13458": 153,
        "13459": 201,
        "13460": 232,
        "13461": 211,
        "13462": 70,
        "13463": 53,
        "13464": 127,
        "13465": 74,
        "13466": 124,
        "13467": 191,
        "13468": 252,
        "13469": 184,
        "13470": 91,
        "13471": 32,
        "13472": 44,
        "13473": 220,
        "13474": 96,
        "13475": 154,
        "13476": 163,
        "13477": 60,
        "13478": 109,
        "13479": 2,
        "13480": 213,
        "13481": 248,
        "13482": 104,
        "13483": 125,
        "13484": 170,
        "13485": 175,
        "13486": 123,
        "13487": 100,
        "13488": 57,
        "13489": 61,
        "13490": 103,
        "13491": 26,
        "13492": 236,
        "13493": 171,
        "13494": 72,
        "13495": 116,
        "13496": 79,
        "13497": 182,
        "13498": 250,
        "13499": 151,
        "13500": 255,
        "13501": 236,
        "13502": 39,
        "13503": 39,
        "13504": 231,
        "13505": 27,
        "13506": 114,
        "13507": 204,
        "13508": 103,
        "13509": 145,
        "13510": 252,
        "13511": 116,
        "13512": 112,
        "13513": 108,
        "13514": 242,
        "13515": 1,
        "13516": 161,
        "13517": 25,
        "13518": 146,
        "13519": 109,
        "13520": 30,
        "13521": 216,
        "13522": 86,
        "13523": 123,
        "13524": 79,
        "13525": 47,
        "13526": 225,
        "13527": 220,
        "13528": 39,
        "13529": 253,
        "13530": 80,
        "13531": 55,
        "13532": 214,
        "13533": 225,
        "13534": 167,
        "13535": 241,
        "13536": 167,
        "13537": 201,
        "13538": 17,
        "13539": 31,
        "13540": 88,
        "13541": 231,
        "13542": 105,
        "13543": 147,
        "13544": 225,
        "13545": 112,
        "13546": 141,
        "13547": 111,
        "13548": 179,
        "13549": 170,
        "13550": 198,
        "13551": 249,
        "13552": 120,
        "13553": 42,
        "13554": 121,
        "13555": 98,
        "13556": 107,
        "13557": 221,
        "13558": 61,
        "13559": 228,
        "13560": 80,
        "13561": 123,
        "13562": 169,
        "13563": 118,
        "13564": 140,
        "13565": 100,
        "13566": 183,
        "13567": 240,
        "13568": 151,
        "13569": 52,
        "13570": 160,
        "13571": 243,
        "13572": 132,
        "13573": 137,
        "13574": 223,
        "13575": 20,
        "13576": 78,
        "13577": 113,
        "13578": 157,
        "13579": 105,
        "13580": 16,
        "13581": 114,
        "13582": 85,
        "13583": 89,
        "13584": 149,
        "13585": 74,
        "13586": 34,
        "13587": 146,
        "13588": 81,
        "13589": 105,
        "13590": 111,
        "13591": 30,
        "13592": 121,
        "13593": 94,
        "13594": 110,
        "13595": 25,
        "13596": 29,
        "13597": 63,
        "13598": 221,
        "13599": 196,
        "13600": 199,
        "13601": 89,
        "13602": 43,
        "13603": 40,
        "13604": 124,
        "13605": 30,
        "13606": 140,
        "13607": 73,
        "13608": 206,
        "13609": 184,
        "13610": 140,
        "13611": 160,
        "13612": 100,
        "13613": 235,
        "13614": 149,
        "13615": 88,
        "13616": 5,
        "13617": 169,
        "13618": 195,
        "13619": 45,
        "13620": 9,
        "13621": 232,
        "13622": 148,
        "13623": 186,
        "13624": 232,
        "13625": 178,
        "13626": 140,
        "13627": 134,
        "13628": 179,
        "13629": 242,
        "13630": 65,
        "13631": 48,
        "13632": 6,
        "13633": 231,
        "13634": 161,
        "13635": 236,
        "13636": 21,
        "13637": 140,
        "13638": 82,
        "13639": 28,
        "13640": 205,
        "13641": 115,
        "13642": 114,
        "13643": 23,
        "13644": 231,
        "13645": 238,
        "13646": 126,
        "13647": 37,
        "13648": 206,
        "13649": 119,
        "13650": 29,
        "13651": 71,
        "13652": 75,
        "13653": 175,
        "13654": 241,
        "13655": 40,
        "13656": 44,
        "13657": 226,
        "13658": 128,
        "13659": 49,
        "13660": 237,
        "13661": 207,
        "13662": 190,
        "13663": 12,
        "13664": 6,
        "13665": 93,
        "13666": 110,
        "13667": 129,
        "13668": 118,
        "13669": 53,
        "13670": 23,
        "13671": 146,
        "13672": 203,
        "13673": 176,
        "13674": 245,
        "13675": 129,
        "13676": 103,
        "13677": 211,
        "13678": 210,
        "13679": 2,
        "13680": 102,
        "13681": 225,
        "13682": 178,
        "13683": 17,
        "13684": 254,
        "13685": 13,
        "13686": 173,
        "13687": 230,
        "13688": 187,
        "13689": 185,
        "13690": 139,
        "13691": 92,
        "13692": 164,
        "13693": 144,
        "13694": 115,
        "13695": 162,
        "13696": 35,
        "13697": 188,
        "13698": 223,
        "13699": 88,
        "13700": 41,
        "13701": 203,
        "13702": 179,
        "13703": 154,
        "13704": 59,
        "13705": 149,
        "13706": 217,
        "13707": 59,
        "13708": 253,
        "13709": 94,
        "13710": 18,
        "13711": 188,
        "13712": 235,
        "13713": 78,
        "13714": 160,
        "13715": 244,
        "13716": 237,
        "13717": 249,
        "13718": 124,
        "13719": 127,
        "13720": 106,
        "13721": 36,
        "13722": 211,
        "13723": 71,
        "13724": 13,
        "13725": 106,
        "13726": 230,
        "13727": 113,
        "13728": 207,
        "13729": 96,
        "13730": 88,
        "13731": 158,
        "13732": 56,
        "13733": 152,
        "13734": 116,
        "13735": 120,
        "13736": 141,
        "13737": 209,
        "13738": 38,
        "13739": 97,
        "13740": 91,
        "13741": 67,
        "13742": 128,
        "13743": 5,
        "13744": 8,
        "13745": 57,
        "13746": 107,
        "13747": 19,
        "13748": 143,
        "13749": 154,
        "13750": 73,
        "13751": 237,
        "13752": 126,
        "13753": 199,
        "13754": 176,
        "13755": 51,
        "13756": 152,
        "13757": 174,
        "13758": 44,
        "13759": 40,
        "13760": 90,
        "13761": 131,
        "13762": 34,
        "13763": 191,
        "13764": 221,
        "13765": 82,
        "13766": 27,
        "13767": 60,
        "13768": 92,
        "13769": 102,
        "13770": 55,
        "13771": 207,
        "13772": 79,
        "13773": 236,
        "13774": 121,
        "13775": 29,
        "13776": 72,
        "13777": 175,
        "13778": 214,
        "13779": 104,
        "13780": 198,
        "13781": 223,
        "13782": 225,
        "13783": 19,
        "13784": 208,
        "13785": 196,
        "13786": 152,
        "13787": 2,
        "13788": 205,
        "13789": 236,
        "13790": 131,
        "13791": 114,
        "13792": 224,
        "13793": 58,
        "13794": 23,
        "13795": 204,
        "13796": 115,
        "13797": 67,
        "13798": 89,
        "13799": 82,
        "13800": 176,
        "13801": 12,
        "13802": 92,
        "13803": 45,
        "13804": 192,
        "13805": 246,
        "13806": 175,
        "13807": 50,
        "13808": 184,
        "13809": 204,
        "13810": 122,
        "13811": 124,
        "13812": 245,
        "13813": 173,
        "13814": 25,
        "13815": 128,
        "13816": 57,
        "13817": 217,
        "13818": 148,
        "13819": 177,
        "13820": 40,
        "13821": 120,
        "13822": 208,
        "13823": 242,
        "13824": 77,
        "13825": 113,
        "13826": 157,
        "13827": 171,
        "13828": 112,
        "13829": 15,
        "13830": 38,
        "13831": 188,
        "13832": 168,
        "13833": 92,
        "13834": 181,
        "13835": 211,
        "13836": 151,
        "13837": 12,
        "13838": 70,
        "13839": 154,
        "13840": 146,
        "13841": 7,
        "13842": 56,
        "13843": 120,
        "13844": 179,
        "13845": 164,
        "13846": 252,
        "13847": 199,
        "13848": 38,
        "13849": 3,
        "13850": 122,
        "13851": 187,
        "13852": 190,
        "13853": 125,
        "13854": 239,
        "13855": 170,
        "13856": 51,
        "13857": 66,
        "13858": 214,
        "13859": 142,
        "13860": 20,
        "13861": 17,
        "13862": 23,
        "13863": 9,
        "13864": 81,
        "13865": 45,
        "13866": 142,
        "13867": 7,
        "13868": 141,
        "13869": 206,
        "13870": 142,
        "13871": 177,
        "13872": 140,
        "13873": 136,
        "13874": 174,
        "13875": 80,
        "13876": 233,
        "13877": 248,
        "13878": 242,
        "13879": 166,
        "13880": 172,
        "13881": 145,
        "13882": 214,
        "13883": 223,
        "13884": 124,
        "13885": 247,
        "13886": 81,
        "13887": 1,
        "13888": 190,
        "13889": 202,
        "13890": 198,
        "13891": 161,
        "13892": 251,
        "13893": 156,
        "13894": 192,
        "13895": 28,
        "13896": 255,
        "13897": 4,
        "13898": 149,
        "13899": 89,
        "13900": 78,
        "13901": 253,
        "13902": 13,
        "13903": 201,
        "13904": 247,
        "13905": 244,
        "13906": 219,
        "13907": 150,
        "13908": 122,
        "13909": 218,
        "13910": 79,
        "13911": 171,
        "13912": 103,
        "13913": 227,
        "13914": 133,
        "13915": 241,
        "13916": 28,
        "13917": 226,
        "13918": 29,
        "13919": 168,
        "13920": 207,
        "13921": 168,
        "13922": 158,
        "13923": 22,
        "13924": 211,
        "13925": 65,
        "13926": 247,
        "13927": 115,
        "13928": 223,
        "13929": 11,
        "13930": 35,
        "13931": 137,
        "13932": 219,
        "13933": 117,
        "13934": 50,
        "13935": 190,
        "13936": 103,
        "13937": 54,
        "13938": 5,
        "13939": 5,
        "13940": 135,
        "13941": 44,
        "13942": 26,
        "13943": 108,
        "13944": 88,
        "13945": 158,
        "13946": 172,
        "13947": 143,
        "13948": 13,
        "13949": 40,
        "13950": 245,
        "13951": 48,
        "13952": 66,
        "13953": 221,
        "13954": 242,
        "13955": 104,
        "13956": 37,
        "13957": 59,
        "13958": 185,
        "13959": 208,
        "13960": 137,
        "13961": 167,
        "13962": 47,
        "13963": 56,
        "13964": 150,
        "13965": 221,
        "13966": 15,
        "13967": 226,
        "13968": 176,
        "13969": 13,
        "13970": 69,
        "13971": 238,
        "13972": 229,
        "13973": 124,
        "13974": 106,
        "13975": 30,
        "13976": 144,
        "13977": 138,
        "13978": 18,
        "13979": 201,
        "13980": 61,
        "13981": 109,
        "13982": 63,
        "13983": 91,
        "13984": 97,
        "13985": 126,
        "13986": 25,
        "13987": 6,
        "13988": 113,
        "13989": 137,
        "13990": 88,
        "13991": 178,
        "13992": 86,
        "13993": 35,
        "13994": 215,
        "13995": 23,
        "13996": 212,
        "13997": 232,
        "13998": 252,
        "13999": 146,
        "14000": 21,
        "14001": 87,
        "14002": 197,
        "14003": 199,
        "14004": 22,
        "14005": 179,
        "14006": 30,
        "14007": 185,
        "14008": 21,
        "14009": 250,
        "14010": 63,
        "14011": 158,
        "14012": 226,
        "14013": 198,
        "14014": 52,
        "14015": 46,
        "14016": 118,
        "14017": 238,
        "14018": 158,
        "14019": 188,
        "14020": 82,
        "14021": 129,
        "14022": 187,
        "14023": 140,
        "14024": 198,
        "14025": 129,
        "14026": 4,
        "14027": 5,
        "14028": 135,
        "14029": 204,
        "14030": 4,
        "14031": 144,
        "14032": 218,
        "14033": 21,
        "14034": 90,
        "14035": 109,
        "14036": 61,
        "14037": 99,
        "14038": 223,
        "14039": 95,
        "14040": 255,
        "14041": 143,
        "14042": 189,
        "14043": 113,
        "14044": 97,
        "14045": 78,
        "14046": 171,
        "14047": 111,
        "14048": 175,
        "14049": 156,
        "14050": 165,
        "14051": 123,
        "14052": 79,
        "14053": 241,
        "14054": 53,
        "14055": 105,
        "14056": 254,
        "14057": 140,
        "14058": 26,
        "14059": 17,
        "14060": 82,
        "14061": 106,
        "14062": 153,
        "14063": 71,
        "14064": 90,
        "14065": 97,
        "14066": 39,
        "14067": 128,
        "14068": 99,
        "14069": 191,
        "14070": 72,
        "14071": 140,
        "14072": 241,
        "14073": 220,
        "14074": 105,
        "14075": 32,
        "14076": 122,
        "14077": 136,
        "14078": 90,
        "14079": 25,
        "14080": 8,
        "14081": 53,
        "14082": 79,
        "14083": 244,
        "14084": 143,
        "14085": 251,
        "14086": 19,
        "14087": 222,
        "14088": 194,
        "14089": 23,
        "14090": 80,
        "14091": 71,
        "14092": 130,
        "14093": 177,
        "14094": 75,
        "14095": 213,
        "14096": 168,
        "14097": 4,
        "14098": 115,
        "14099": 140,
        "14100": 188,
        "14101": 166,
        "14102": 35,
        "14103": 248,
        "14104": 135,
        "14105": 223,
        "14106": 11,
        "14107": 122,
        "14108": 19,
        "14109": 243,
        "14110": 167,
        "14111": 190,
        "14112": 81,
        "14113": 151,
        "14114": 19,
        "14115": 100,
        "14116": 192,
        "14117": 113,
        "14118": 114,
        "14119": 103,
        "14120": 38,
        "14121": 72,
        "14122": 211,
        "14123": 175,
        "14124": 227,
        "14125": 176,
        "14126": 235,
        "14127": 71,
        "14128": 195,
        "14129": 95,
        "14130": 134,
        "14131": 242,
        "14132": 214,
        "14133": 193,
        "14134": 38,
        "14135": 23,
        "14136": 232,
        "14137": 186,
        "14138": 234,
        "14139": 0,
        "14140": 12,
        "14141": 240,
        "14142": 238,
        "14143": 101,
        "14144": 64,
        "14145": 93,
        "14146": 46,
        "14147": 26,
        "14148": 182,
        "14149": 163,
        "14150": 182,
        "14151": 178,
        "14152": 156,
        "14153": 39,
        "14154": 55,
        "14155": 37,
        "14156": 54,
        "14157": 87,
        "14158": 203,
        "14159": 211,
        "14160": 223,
        "14161": 139,
        "14162": 81,
        "14163": 22,
        "14164": 35,
        "14165": 67,
        "14166": 17,
        "14167": 175,
        "14168": 60,
        "14169": 232,
        "14170": 198,
        "14171": 255,
        "14172": 160,
        "14173": 13,
        "14174": 221,
        "14175": 126,
        "14176": 85,
        "14177": 114,
        "14178": 228,
        "14179": 83,
        "14180": 158,
        "14181": 231,
        "14182": 52,
        "14183": 242,
        "14184": 195,
        "14185": 2,
        "14186": 116,
        "14187": 120,
        "14188": 170,
        "14189": 77,
        "14190": 210,
        "14191": 158,
        "14192": 221,
        "14193": 108,
        "14194": 255,
        "14195": 63,
        "14196": 56,
        "14197": 203,
        "14198": 202,
        "14199": 107,
        "14200": 217,
        "14201": 117,
        "14202": 39,
        "14203": 143,
        "14204": 180,
        "14205": 17,
        "14206": 3,
        "14207": 208,
        "14208": 182,
        "14209": 76,
        "14210": 29,
        "14211": 162,
        "14212": 8,
        "14213": 135,
        "14214": 154,
        "14215": 24,
        "14216": 45,
        "14217": 164,
        "14218": 186,
        "14219": 33,
        "14220": 207,
        "14221": 202,
        "14222": 86,
        "14223": 68,
        "14224": 244,
        "14225": 91,
        "14226": 55,
        "14227": 212,
        "14228": 61,
        "14229": 249,
        "14230": 124,
        "14231": 55,
        "14232": 228,
        "14233": 249,
        "14234": 104,
        "14235": 88,
        "14236": 67,
        "14237": 26,
        "14238": 174,
        "14239": 246,
        "14240": 18,
        "14241": 91,
        "14242": 162,
        "14243": 188,
        "14244": 102,
        "14245": 94,
        "14246": 95,
        "14247": 57,
        "14248": 51,
        "14249": 72,
        "14250": 176,
        "14251": 154,
        "14252": 44,
        "14253": 255,
        "14254": 98,
        "14255": 58,
        "14256": 211,
        "14257": 87,
        "14258": 71,
        "14259": 170,
        "14260": 228,
        "14261": 91,
        "14262": 60,
        "14263": 11,
        "14264": 143,
        "14265": 55,
        "14266": 122,
        "14267": 248,
        "14268": 250,
        "14269": 230,
        "14270": 58,
        "14271": 140,
        "14272": 153,
        "14273": 80,
        "14274": 39,
        "14275": 33,
        "14276": 55,
        "14277": 122,
        "14278": 25,
        "14279": 248,
        "14280": 146,
        "14281": 224,
        "14282": 194,
        "14283": 88,
        "14284": 59,
        "14285": 244,
        "14286": 3,
        "14287": 196,
        "14288": 122,
        "14289": 193,
        "14290": 0,
        "14291": 119,
        "14292": 124,
        "14293": 253,
        "14294": 35,
        "14295": 46,
        "14296": 233,
        "14297": 80,
        "14298": 70,
        "14299": 161,
        "14300": 245,
        "14301": 217,
        "14302": 132,
        "14303": 201,
        "14304": 173,
        "14305": 166,
        "14306": 237,
        "14307": 150,
        "14308": 103,
        "14309": 111,
        "14310": 187,
        "14311": 95,
        "14312": 69,
        "14313": 50,
        "14314": 0,
        "14315": 183,
        "14316": 217,
        "14317": 219,
        "14318": 225,
        "14319": 129,
        "14320": 222,
        "14321": 122,
        "14322": 133,
        "14323": 81,
        "14324": 146,
        "14325": 253,
        "14326": 35,
        "14327": 23,
        "14328": 114,
        "14329": 78,
        "14330": 102,
        "14331": 51,
        "14332": 96,
        "14333": 6,
        "14334": 162,
        "14335": 155,
        "14336": 40,
        "14337": 240,
        "14338": 16,
        "14339": 190,
        "14340": 61,
        "14341": 152,
        "14342": 160,
        "14343": 219,
        "14344": 55,
        "14345": 46,
        "14346": 224,
        "14347": 92,
        "14348": 210,
        "14349": 151,
        "14350": 1,
        "14351": 67,
        "14352": 142,
        "14353": 106,
        "14354": 241,
        "14355": 62,
        "14356": 60,
        "14357": 111,
        "14358": 34,
        "14359": 126,
        "14360": 79,
        "14361": 255,
        "14362": 119,
        "14363": 178,
        "14364": 216,
        "14365": 127,
        "14366": 175,
        "14367": 192,
        "14368": 72,
        "14369": 192,
        "14370": 50,
        "14371": 157,
        "14372": 222,
        "14373": 15,
        "14374": 171,
        "14375": 183,
        "14376": 193,
        "14377": 214,
        "14378": 212,
        "14379": 168,
        "14380": 59,
        "14381": 238,
        "14382": 119,
        "14383": 5,
        "14384": 113,
        "14385": 101,
        "14386": 70,
        "14387": 253,
        "14388": 209,
        "14389": 95,
        "14390": 208,
        "14391": 28,
        "14392": 242,
        "14393": 64,
        "14394": 114,
        "14395": 140,
        "14396": 178,
        "14397": 75,
        "14398": 152,
        "14399": 59,
        "14400": 50,
        "14401": 232,
        "14402": 216,
        "14403": 8,
        "14404": 197,
        "14405": 159,
        "14406": 8,
        "14407": 39,
        "14408": 72,
        "14409": 38,
        "14410": 141,
        "14411": 90,
        "14412": 171,
        "14413": 247,
        "14414": 136,
        "14415": 13,
        "14416": 85,
        "14417": 109,
        "14418": 53,
        "14419": 129,
        "14420": 246,
        "14421": 89,
        "14422": 66,
        "14423": 215,
        "14424": 14,
        "14425": 251,
        "14426": 178,
        "14427": 198,
        "14428": 185,
        "14429": 186,
        "14430": 255,
        "14431": 118,
        "14432": 245,
        "14433": 161,
        "14434": 126,
        "14435": 80,
        "14436": 50,
        "14437": 93,
        "14438": 254,
        "14439": 33,
        "14440": 141,
        "14441": 152,
        "14442": 21,
        "14443": 52,
        "14444": 88,
        "14445": 17,
        "14446": 235,
        "14447": 217,
        "14448": 101,
        "14449": 71,
        "14450": 156,
        "14451": 233,
        "14452": 61,
        "14453": 180,
        "14454": 165,
        "14455": 143,
        "14456": 86,
        "14457": 111,
        "14458": 159,
        "14459": 76,
        "14460": 88,
        "14461": 145,
        "14462": 143,
        "14463": 240,
        "14464": 142,
        "14465": 166,
        "14466": 133,
        "14467": 188,
        "14468": 202,
        "14469": 73,
        "14470": 90,
        "14471": 142,
        "14472": 162,
        "14473": 33,
        "14474": 81,
        "14475": 89,
        "14476": 158,
        "14477": 190,
        "14478": 109,
        "14479": 78,
        "14480": 75,
        "14481": 210,
        "14482": 143,
        "14483": 52,
        "14484": 45,
        "14485": 38,
        "14486": 145,
        "14487": 57,
        "14488": 153,
        "14489": 87,
        "14490": 166,
        "14491": 81,
        "14492": 108,
        "14493": 148,
        "14494": 9,
        "14495": 28,
        "14496": 15,
        "14497": 154,
        "14498": 222,
        "14499": 53,
        "14500": 11,
        "14501": 227,
        "14502": 3,
        "14503": 119,
        "14504": 150,
        "14505": 179,
        "14506": 199,
        "14507": 67,
        "14508": 25,
        "14509": 194,
        "14510": 165,
        "14511": 77,
        "14512": 51,
        "14513": 236,
        "14514": 57,
        "14515": 213,
        "14516": 250,
        "14517": 111,
        "14518": 221,
        "14519": 137,
        "14520": 160,
        "14521": 149,
        "14522": 122,
        "14523": 16,
        "14524": 48,
        "14525": 207,
        "14526": 198,
        "14527": 77,
        "14528": 224,
        "14529": 119,
        "14530": 78,
        "14531": 244,
        "14532": 23,
        "14533": 66,
        "14534": 92,
        "14535": 121,
        "14536": 42,
        "14537": 212,
        "14538": 133,
        "14539": 81,
        "14540": 77,
        "14541": 42,
        "14542": 175,
        "14543": 202,
        "14544": 14,
        "14545": 146,
        "14546": 144,
        "14547": 202,
        "14548": 132,
        "14549": 184,
        "14550": 25,
        "14551": 57,
        "14552": 81,
        "14553": 248,
        "14554": 7,
        "14555": 70,
        "14556": 152,
        "14557": 167,
        "14558": 121,
        "14559": 5,
        "14560": 16,
        "14561": 33,
        "14562": 79,
        "14563": 244,
        "14564": 88,
        "14565": 154,
        "14566": 6,
        "14567": 230,
        "14568": 39,
        "14569": 150,
        "14570": 150,
        "14571": 189,
        "14572": 210,
        "14573": 243,
        "14574": 5,
        "14575": 113,
        "14576": 11,
        "14577": 228,
        "14578": 236,
        "14579": 128,
        "14580": 147,
        "14581": 1,
        "14582": 194,
        "14583": 57,
        "14584": 221,
        "14585": 224,
        "14586": 115,
        "14587": 35,
        "14588": 43,
        "14589": 128,
        "14590": 2,
        "14591": 24,
        "14592": 54,
        "14593": 62,
        "14594": 41,
        "14595": 177,
        "14596": 14,
        "14597": 43,
        "14598": 24,
        "14599": 249,
        "14600": 178,
        "14601": 154,
        "14602": 106,
        "14603": 201,
        "14604": 128,
        "14605": 250,
        "14606": 134,
        "14607": 73,
        "14608": 136,
        "14609": 164,
        "14610": 245,
        "14611": 39,
        "14612": 165,
        "14613": 235,
        "14614": 26,
        "14615": 107,
        "14616": 219,
        "14617": 249,
        "14618": 62,
        "14619": 35,
        "14620": 247,
        "14621": 174,
        "14622": 250,
        "14623": 86,
        "14624": 29,
        "14625": 48,
        "14626": 201,
        "14627": 60,
        "14628": 164,
        "14629": 228,
        "14630": 195,
        "14631": 133,
        "14632": 203,
        "14633": 190,
        "14634": 191,
        "14635": 175,
        "14636": 219,
        "14637": 161,
        "14638": 87,
        "14639": 24,
        "14640": 51,
        "14641": 142,
        "14642": 74,
        "14643": 220,
        "14644": 145,
        "14645": 105,
        "14646": 175,
        "14647": 136,
        "14648": 244,
        "14649": 199,
        "14650": 22,
        "14651": 91,
        "14652": 110,
        "14653": 144,
        "14654": 242,
        "14655": 121,
        "14656": 4,
        "14657": 133,
        "14658": 70,
        "14659": 121,
        "14660": 139,
        "14661": 108,
        "14662": 94,
        "14663": 127,
        "14664": 67,
        "14665": 178,
        "14666": 235,
        "14667": 65,
        "14668": 140,
        "14669": 240,
        "14670": 217,
        "14671": 117,
        "14672": 79,
        "14673": 6,
        "14674": 23,
        "14675": 246,
        "14676": 87,
        "14677": 89,
        "14678": 94,
        "14679": 233,
        "14680": 113,
        "14681": 85,
        "14682": 130,
        "14683": 81,
        "14684": 223,
        "14685": 250,
        "14686": 111,
        "14687": 168,
        "14688": 54,
        "14689": 72,
        "14690": 45,
        "14691": 178,
        "14692": 165,
        "14693": 218,
        "14694": 194,
        "14695": 68,
        "14696": 191,
        "14697": 228,
        "14698": 198,
        "14699": 214,
        "14700": 169,
        "14701": 172,
        "14702": 145,
        "14703": 251,
        "14704": 45,
        "14705": 97,
        "14706": 103,
        "14707": 141,
        "14708": 89,
        "14709": 155,
        "14710": 167,
        "14711": 31,
        "14712": 119,
        "14713": 49,
        "14714": 32,
        "14715": 208,
        "14716": 176,
        "14717": 227,
        "14718": 107,
        "14719": 131,
        "14720": 53,
        "14721": 199,
        "14722": 107,
        "14723": 161,
        "14724": 52,
        "14725": 53,
        "14726": 255,
        "14727": 21,
        "14728": 140,
        "14729": 211,
        "14730": 14,
        "14731": 84,
        "14732": 216,
        "14733": 234,
        "14734": 189,
        "14735": 2,
        "14736": 237,
        "14737": 17,
        "14738": 202,
        "14739": 198,
        "14740": 184,
        "14741": 183,
        "14742": 213,
        "14743": 58,
        "14744": 56,
        "14745": 221,
        "14746": 112,
        "14747": 236,
        "14748": 184,
        "14749": 212,
        "14750": 142,
        "14751": 23,
        "14752": 2,
        "14753": 71,
        "14754": 166,
        "14755": 67,
        "14756": 160,
        "14757": 249,
        "14758": 39,
        "14759": 84,
        "14760": 57,
        "14761": 104,
        "14762": 211,
        "14763": 105,
        "14764": 53,
        "14765": 162,
        "14766": 3,
        "14767": 150,
        "14768": 159,
        "14769": 233,
        "14770": 85,
        "14771": 186,
        "14772": 164,
        "14773": 18,
        "14774": 197,
        "14775": 224,
        "14776": 29,
        "14777": 142,
        "14778": 233,
        "14779": 152,
        "14780": 198,
        "14781": 189,
        "14782": 195,
        "14783": 209,
        "14784": 48,
        "14785": 212,
        "14786": 154,
        "14787": 32,
        "14788": 90,
        "14789": 148,
        "14790": 54,
        "14791": 207,
        "14792": 211,
        "14793": 226,
        "14794": 71,
        "14795": 156,
        "14796": 185,
        "14797": 202,
        "14798": 201,
        "14799": 174,
        "14800": 86,
        "14801": 8,
        "14802": 11,
        "14803": 181,
        "14804": 69,
        "14805": 147,
        "14806": 160,
        "14807": 191,
        "14808": 51,
        "14809": 209,
        "14810": 6,
        "14811": 132,
        "14812": 52,
        "14813": 52,
        "14814": 163,
        "14815": 227,
        "14816": 64,
        "14817": 191,
        "14818": 44,
        "14819": 99,
        "14820": 69,
        "14821": 226,
        "14822": 118,
        "14823": 36,
        "14824": 184,
        "14825": 4,
        "14826": 149,
        "14827": 84,
        "14828": 96,
        "14829": 133,
        "14830": 61,
        "14831": 50,
        "14832": 121,
        "14833": 175,
        "14834": 233,
        "14835": 143,
        "14836": 217,
        "14837": 185,
        "14838": 207,
        "14839": 234,
        "14840": 96,
        "14841": 4,
        "14842": 102,
        "14843": 132,
        "14844": 9,
        "14845": 183,
        "14846": 248,
        "14847": 94,
        "14848": 145,
        "14849": 214,
        "14850": 37,
        "14851": 232,
        "14852": 184,
        "14853": 124,
        "14854": 240,
        "14855": 82,
        "14856": 253,
        "14857": 16,
        "14858": 110,
        "14859": 46,
        "14860": 36,
        "14861": 134,
        "14862": 3,
        "14863": 100,
        "14864": 199,
        "14865": 38,
        "14866": 203,
        "14867": 214,
        "14868": 88,
        "14869": 55,
        "14870": 67,
        "14871": 157,
        "14872": 75,
        "14873": 199,
        "14874": 198,
        "14875": 28,
        "14876": 119,
        "14877": 114,
        "14878": 59,
        "14879": 53,
        "14880": 190,
        "14881": 120,
        "14882": 32,
        "14883": 203,
        "14884": 166,
        "14885": 96,
        "14886": 178,
        "14887": 51,
        "14888": 14,
        "14889": 239,
        "14890": 136,
        "14891": 52,
        "14892": 158,
        "14893": 55,
        "14894": 23,
        "14895": 17,
        "14896": 19,
        "14897": 132,
        "14898": 42,
        "14899": 143,
        "14900": 156,
        "14901": 187,
        "14902": 143,
        "14903": 92,
        "14904": 68,
        "14905": 10,
        "14906": 167,
        "14907": 80,
        "14908": 8,
        "14909": 219,
        "14910": 241,
        "14911": 3,
        "14912": 15,
        "14913": 99,
        "14914": 153,
        "14915": 145,
        "14916": 145,
        "14917": 127,
        "14918": 14,
        "14919": 241,
        "14920": 248,
        "14921": 95,
        "14922": 233,
        "14923": 7,
        "14924": 45,
        "14925": 235,
        "14926": 148,
        "14927": 213,
        "14928": 205,
        "14929": 190,
        "14930": 40,
        "14931": 84,
        "14932": 108,
        "14933": 24,
        "14934": 126,
        "14935": 169,
        "14936": 77,
        "14937": 124,
        "14938": 231,
        "14939": 192,
        "14940": 136,
        "14941": 59,
        "14942": 143,
        "14943": 97,
        "14944": 46,
        "14945": 46,
        "14946": 17,
        "14947": 21,
        "14948": 23,
        "14949": 129,
        "14950": 108,
        "14951": 84,
        "14952": 159,
        "14953": 76,
        "14954": 160,
        "14955": 239,
        "14956": 59,
        "14957": 181,
        "14958": 18,
        "14959": 72,
        "14960": 249,
        "14961": 187,
        "14962": 139,
        "14963": 131,
        "14964": 98,
        "14965": 121,
        "14966": 187,
        "14967": 40,
        "14968": 200,
        "14969": 133,
        "14970": 4,
        "14971": 255,
        "14972": 14,
        "14973": 58,
        "14974": 14,
        "14975": 235,
        "14976": 75,
        "14977": 11,
        "14978": 72,
        "14979": 9,
        "14980": 234,
        "14981": 118,
        "14982": 99,
        "14983": 101,
        "14984": 168,
        "14985": 196,
        "14986": 95,
        "14987": 246,
        "14988": 199,
        "14989": 162,
        "14990": 92,
        "14991": 230,
        "14992": 102,
        "14993": 186,
        "14994": 223,
        "14995": 229,
        "14996": 220,
        "14997": 245,
        "14998": 189,
        "14999": 15,
        "15000": 115,
        "15001": 82,
        "15002": 88,
        "15003": 57,
        "15004": 100,
        "15005": 46,
        "15006": 139,
        "15007": 179,
        "15008": 241,
        "15009": 213,
        "15010": 218,
        "15011": 133,
        "15012": 165,
        "15013": 147,
        "15014": 65,
        "15015": 27,
        "15016": 238,
        "15017": 169,
        "15018": 168,
        "15019": 135,
        "15020": 236,
        "15021": 1,
        "15022": 162,
        "15023": 23,
        "15024": 43,
        "15025": 95,
        "15026": 117,
        "15027": 103,
        "15028": 55,
        "15029": 172,
        "15030": 124,
        "15031": 68,
        "15032": 191,
        "15033": 95,
        "15034": 239,
        "15035": 151,
        "15036": 208,
        "15037": 71,
        "15038": 248,
        "15039": 85,
        "15040": 148,
        "15041": 109,
        "15042": 19,
        "15043": 80,
        "15044": 116,
        "15045": 128,
        "15046": 166,
        "15047": 162,
        "15048": 122,
        "15049": 40,
        "15050": 84,
        "15051": 132,
        "15052": 136,
        "15053": 177,
        "15054": 102,
        "15055": 236,
        "15056": 56,
        "15057": 235,
        "15058": 11,
        "15059": 11,
        "15060": 137,
        "15061": 228,
        "15062": 190,
        "15063": 86,
        "15064": 29,
        "15065": 55,
        "15066": 118,
        "15067": 222,
        "15068": 62,
        "15069": 186,
        "15070": 232,
        "15071": 28,
        "15072": 138,
        "15073": 99,
        "15074": 220,
        "15075": 114,
        "15076": 139,
        "15077": 119,
        "15078": 72,
        "15079": 175,
        "15080": 34,
        "15081": 170,
        "15082": 157,
        "15083": 217,
        "15084": 56,
        "15085": 59,
        "15086": 89,
        "15087": 202,
        "15088": 203,
        "15089": 222,
        "15090": 193,
        "15091": 144,
        "15092": 67,
        "15093": 13,
        "15094": 48,
        "15095": 221,
        "15096": 135,
        "15097": 149,
        "15098": 141,
        "15099": 224,
        "15100": 0,
        "15101": 16,
        "15102": 39,
        "15103": 85,
        "15104": 76,
        "15105": 14,
        "15106": 167,
        "15107": 52,
        "15108": 199,
        "15109": 89,
        "15110": 34,
        "15111": 92,
        "15112": 20,
        "15113": 48,
        "15114": 233,
        "15115": 2,
        "15116": 236,
        "15117": 130,
        "15118": 107,
        "15119": 10,
        "15120": 193,
        "15121": 53,
        "15122": 135,
        "15123": 212,
        "15124": 177,
        "15125": 117,
        "15126": 127,
        "15127": 197,
        "15128": 127,
        "15129": 58,
        "15130": 216,
        "15131": 181,
        "15132": 122,
        "15133": 71,
        "15134": 177,
        "15135": 70,
        "15136": 74,
        "15137": 24,
        "15138": 65,
        "15139": 239,
        "15140": 220,
        "15141": 137,
        "15142": 26,
        "15143": 138,
        "15144": 200,
        "15145": 60,
        "15146": 153,
        "15147": 86,
        "15148": 175,
        "15149": 247,
        "15150": 245,
        "15151": 231,
        "15152": 252,
        "15153": 158,
        "15154": 41,
        "15155": 217,
        "15156": 180,
        "15157": 136,
        "15158": 39,
        "15159": 162,
        "15160": 107,
        "15161": 193,
        "15162": 177,
        "15163": 102,
        "15164": 187,
        "15165": 95,
        "15166": 137,
        "15167": 30,
        "15168": 168,
        "15169": 161,
        "15170": 72,
        "15171": 223,
        "15172": 226,
        "15173": 53,
        "15174": 193,
        "15175": 29,
        "15176": 37,
        "15177": 177,
        "15178": 142,
        "15179": 83,
        "15180": 29,
        "15181": 222,
        "15182": 255,
        "15183": 90,
        "15184": 164,
        "15185": 116,
        "15186": 94,
        "15187": 166,
        "15188": 31,
        "15189": 149,
        "15190": 110,
        "15191": 185,
        "15192": 252,
        "15193": 172,
        "15194": 101,
        "15195": 238,
        "15196": 66,
        "15197": 98,
        "15198": 108,
        "15199": 163,
        "15200": 4,
        "15201": 217,
        "15202": 214,
        "15203": 22,
        "15204": 94,
        "15205": 224,
        "15206": 255,
        "15207": 86,
        "15208": 79,
        "15209": 106,
        "15210": 33,
        "15211": 2,
        "15212": 1,
        "15213": 215,
        "15214": 60,
        "15215": 211,
        "15216": 60,
        "15217": 93,
        "15218": 66,
        "15219": 169,
        "15220": 71,
        "15221": 138,
        "15222": 235,
        "15223": 134,
        "15224": 238,
        "15225": 218,
        "15226": 220,
        "15227": 251,
        "15228": 6,
        "15229": 183,
        "15230": 137,
        "15231": 103,
        "15232": 98,
        "15233": 186,
        "15234": 216,
        "15235": 26,
        "15236": 101,
        "15237": 34,
        "15238": 249,
        "15239": 247,
        "15240": 119,
        "15241": 239,
        "15242": 21,
        "15243": 82,
        "15244": 242,
        "15245": 123,
        "15246": 66,
        "15247": 3,
        "15248": 149,
        "15249": 65,
        "15250": 81,
        "15251": 139,
        "15252": 61,
        "15253": 250,
        "15254": 174,
        "15255": 205,
        "15256": 151,
        "15257": 197,
        "15258": 80,
        "15259": 188,
        "15260": 155,
        "15261": 113,
        "15262": 193,
        "15263": 101,
        "15264": 226,
        "15265": 44,
        "15266": 15,
        "15267": 99,
        "15268": 230,
        "15269": 85,
        "15270": 238,
        "15271": 141,
        "15272": 36,
        "15273": 188,
        "15274": 222,
        "15275": 117,
        "15276": 18,
        "15277": 231,
        "15278": 93,
        "15279": 226,
        "15280": 89,
        "15281": 218,
        "15282": 65,
        "15283": 70,
        "15284": 236,
        "15285": 69,
        "15286": 212,
        "15287": 138,
        "15288": 18,
        "15289": 116,
        "15290": 65,
        "15291": 14,
        "15292": 123,
        "15293": 46,
        "15294": 124,
        "15295": 17,
        "15296": 114,
        "15297": 62,
        "15298": 182,
        "15299": 100,
        "15300": 11,
        "15301": 227,
        "15302": 77,
        "15303": 35,
        "15304": 125,
        "15305": 139,
        "15306": 163,
        "15307": 155,
        "15308": 96,
        "15309": 126,
        "15310": 138,
        "15311": 119,
        "15312": 72,
        "15313": 228,
        "15314": 46,
        "15315": 125,
        "15316": 199,
        "15317": 31,
        "15318": 93,
        "15319": 15,
        "15320": 110,
        "15321": 167,
        "15322": 155,
        "15323": 186,
        "15324": 135,
        "15325": 180,
        "15326": 232,
        "15327": 45,
        "15328": 122,
        "15329": 167,
        "15330": 190,
        "15331": 215,
        "15332": 193,
        "15333": 5,
        "15334": 14,
        "15335": 211,
        "15336": 242,
        "15337": 207,
        "15338": 106,
        "15339": 95,
        "15340": 17,
        "15341": 59,
        "15342": 55,
        "15343": 102,
        "15344": 253,
        "15345": 82,
        "15346": 215,
        "15347": 200,
        "15348": 52,
        "15349": 30,
        "15350": 36,
        "15351": 52,
        "15352": 171,
        "15353": 140,
        "15354": 135,
        "15355": 84,
        "15356": 195,
        "15357": 237,
        "15358": 199,
        "15359": 217,
        "15360": 149,
        "15361": 252,
        "15362": 204,
        "15363": 72,
        "15364": 69,
        "15365": 46,
        "15366": 22,
        "15367": 87,
        "15368": 242,
        "15369": 218,
        "15370": 198,
        "15371": 220,
        "15372": 179,
        "15373": 17,
        "15374": 56,
        "15375": 63,
        "15376": 205,
        "15377": 9,
        "15378": 103,
        "15379": 226,
        "15380": 104,
        "15381": 157,
        "15382": 132,
        "15383": 78,
        "15384": 60,
        "15385": 159,
        "15386": 58,
        "15387": 34,
        "15388": 186,
        "15389": 223,
        "15390": 78,
        "15391": 197,
        "15392": 225,
        "15393": 72,
        "15394": 106,
        "15395": 221,
        "15396": 238,
        "15397": 242,
        "15398": 229,
        "15399": 49,
        "15400": 86,
        "15401": 27,
        "15402": 232,
        "15403": 33,
        "15404": 250,
        "15405": 61,
        "15406": 252,
        "15407": 23,
        "15408": 18,
        "15409": 135,
        "15410": 44,
        "15411": 144,
        "15412": 142,
        "15413": 251,
        "15414": 29,
        "15415": 116,
        "15416": 113,
        "15417": 71,
        "15418": 27,
        "15419": 68,
        "15420": 233,
        "15421": 156,
        "15422": 215,
        "15423": 223,
        "15424": 19,
        "15425": 66,
        "15426": 50,
        "15427": 177,
        "15428": 12,
        "15429": 148,
        "15430": 22,
        "15431": 98,
        "15432": 227,
        "15433": 217,
        "15434": 64,
        "15435": 55,
        "15436": 224,
        "15437": 56,
        "15438": 158,
        "15439": 120,
        "15440": 9,
        "15441": 84,
        "15442": 239,
        "15443": 185,
        "15444": 24,
        "15445": 191,
        "15446": 118,
        "15447": 121,
        "15448": 237,
        "15449": 196,
        "15450": 23,
        "15451": 78,
        "15452": 202,
        "15453": 100,
        "15454": 220,
        "15455": 202,
        "15456": 208,
        "15457": 210,
        "15458": 254,
        "15459": 100,
        "15460": 252,
        "15461": 93,
        "15462": 118,
        "15463": 31,
        "15464": 247,
        "15465": 238,
        "15466": 21,
        "15467": 21,
        "15468": 239,
        "15469": 5,
        "15470": 210,
        "15471": 207,
        "15472": 195,
        "15473": 71,
        "15474": 18,
        "15475": 191,
        "15476": 120,
        "15477": 232,
        "15478": 144,
        "15479": 164,
        "15480": 162,
        "15481": 66,
        "15482": 244,
        "15483": 88,
        "15484": 47,
        "15485": 119,
        "15486": 108,
        "15487": 156,
        "15488": 219,
        "15489": 249,
        "15490": 2,
        "15491": 193,
        "15492": 8,
        "15493": 188,
        "15494": 156,
        "15495": 211,
        "15496": 174,
        "15497": 249,
        "15498": 253,
        "15499": 25,
        "15500": 112,
        "15501": 12,
        "15502": 94,
        "15503": 234,
        "15504": 20,
        "15505": 23,
        "15506": 249,
        "15507": 175,
        "15508": 8,
        "15509": 206,
        "15510": 124,
        "15511": 54,
        "15512": 54,
        "15513": 254,
        "15514": 108,
        "15515": 98,
        "15516": 162,
        "15517": 33,
        "15518": 63,
        "15519": 124,
        "15520": 195,
        "15521": 195,
        "15522": 98,
        "15523": 241,
        "15524": 91,
        "15525": 88,
        "15526": 116,
        "15527": 23,
        "15528": 81,
        "15529": 174,
        "15530": 18,
        "15531": 1,
        "15532": 77,
        "15533": 110,
        "15534": 8,
        "15535": 156,
        "15536": 243,
        "15537": 10,
        "15538": 47,
        "15539": 145,
        "15540": 83,
        "15541": 194,
        "15542": 171,
        "15543": 49,
        "15544": 209,
        "15545": 81,
        "15546": 18,
        "15547": 25,
        "15548": 75,
        "15549": 218,
        "15550": 95,
        "15551": 77,
        "15552": 170,
        "15553": 239,
        "15554": 0,
        "15555": 59,
        "15556": 7,
        "15557": 201,
        "15558": 114,
        "15559": 246,
        "15560": 109,
        "15561": 215,
        "15562": 24,
        "15563": 227,
        "15564": 9,
        "15565": 220,
        "15566": 121,
        "15567": 197,
        "15568": 111,
        "15569": 195,
        "15570": 96,
        "15571": 161,
        "15572": 20,
        "15573": 140,
        "15574": 50,
        "15575": 187,
        "15576": 30,
        "15577": 55,
        "15578": 227,
        "15579": 98,
        "15580": 194,
        "15581": 231,
        "15582": 11,
        "15583": 185,
        "15584": 41,
        "15585": 22,
        "15586": 94,
        "15587": 230,
        "15588": 255,
        "15589": 121,
        "15590": 135,
        "15591": 53,
        "15592": 201,
        "15593": 95,
        "15594": 72,
        "15595": 237,
        "15596": 75,
        "15597": 15,
        "15598": 69,
        "15599": 248,
        "15600": 188,
        "15601": 238,
        "15602": 113,
        "15603": 227,
        "15604": 15,
        "15605": 30,
        "15606": 237,
        "15607": 60,
        "15608": 181,
        "15609": 137,
        "15610": 36,
        "15611": 220,
        "15612": 130,
        "15613": 180,
        "15614": 10,
        "15615": 100,
        "15616": 1,
        "15617": 154,
        "15618": 132,
        "15619": 228,
        "15620": 201,
        "15621": 105,
        "15622": 106,
        "15623": 8,
        "15624": 201,
        "15625": 171,
        "15626": 208,
        "15627": 245,
        "15628": 46,
        "15629": 68,
        "15630": 125,
        "15631": 188,
        "15632": 89,
        "15633": 51,
        "15634": 222,
        "15635": 19,
        "15636": 236,
        "15637": 68,
        "15638": 40,
        "15639": 17,
        "15640": 174,
        "15641": 6,
        "15642": 46,
        "15643": 175,
        "15644": 129,
        "15645": 71,
        "15646": 168,
        "15647": 157,
        "15648": 16,
        "15649": 47,
        "15650": 26,
        "15651": 175,
        "15652": 139,
        "15653": 110,
        "15654": 146,
        "15655": 34,
        "15656": 65,
        "15657": 68,
        "15658": 168,
        "15659": 234,
        "15660": 201,
        "15661": 132,
        "15662": 102,
        "15663": 110,
        "15664": 15,
        "15665": 14,
        "15666": 134,
        "15667": 153,
        "15668": 181,
        "15669": 214,
        "15670": 182,
        "15671": 248,
        "15672": 247,
        "15673": 36,
        "15674": 135,
        "15675": 99,
        "15676": 188,
        "15677": 84,
        "15678": 47,
        "15679": 178,
        "15680": 124,
        "15681": 127,
        "15682": 201,
        "15683": 11,
        "15684": 61,
        "15685": 104,
        "15686": 179,
        "15687": 140,
        "15688": 201,
        "15689": 194,
        "15690": 158,
        "15691": 145,
        "15692": 247,
        "15693": 244,
        "15694": 133,
        "15695": 28,
        "15696": 26,
        "15697": 33,
        "15698": 123,
        "15699": 94,
        "15700": 186,
        "15701": 47,
        "15702": 209,
        "15703": 48,
        "15704": 43,
        "15705": 91,
        "15706": 130,
        "15707": 56,
        "15708": 97,
        "15709": 20,
        "15710": 83,
        "15711": 113,
        "15712": 30,
        "15713": 174,
        "15714": 35,
        "15715": 187,
        "15716": 139,
        "15717": 125,
        "15718": 27,
        "15719": 136,
        "15720": 25,
        "15721": 85,
        "15722": 69,
        "15723": 122,
        "15724": 90,
        "15725": 148,
        "15726": 131,
        "15727": 223,
        "15728": 212,
        "15729": 189,
        "15730": 170,
        "15731": 252,
        "15732": 216,
        "15733": 208,
        "15734": 59,
        "15735": 51,
        "15736": 230,
        "15737": 219,
        "15738": 11,
        "15739": 109,
        "15740": 121,
        "15741": 217,
        "15742": 42,
        "15743": 206,
        "15744": 116,
        "15745": 56,
        "15746": 183,
        "15747": 119,
        "15748": 44,
        "15749": 254,
        "15750": 126,
        "15751": 104,
        "15752": 110,
        "15753": 65,
        "15754": 55,
        "15755": 101,
        "15756": 253,
        "15757": 90,
        "15758": 61,
        "15759": 14,
        "15760": 62,
        "15761": 76,
        "15762": 181,
        "15763": 3,
        "15764": 175,
        "15765": 174,
        "15766": 83,
        "15767": 42,
        "15768": 242,
        "15769": 63,
        "15770": 24,
        "15771": 141,
        "15772": 21,
        "15773": 218,
        "15774": 217,
        "15775": 82,
        "15776": 77,
        "15777": 134,
        "15778": 129,
        "15779": 156,
        "15780": 45,
        "15781": 66,
        "15782": 164,
        "15783": 159,
        "15784": 95,
        "15785": 186,
        "15786": 83,
        "15787": 60,
        "15788": 196,
        "15789": 204,
        "15790": 119,
        "15791": 210,
        "15792": 251,
        "15793": 195,
        "15794": 38,
        "15795": 212,
        "15796": 245,
        "15797": 157,
        "15798": 106,
        "15799": 95,
        "15800": 204,
        "15801": 16,
        "15802": 141,
        "15803": 207,
        "15804": 181,
        "15805": 84,
        "15806": 6,
        "15807": 62,
        "15808": 165,
        "15809": 107,
        "15810": 140,
        "15811": 130,
        "15812": 133,
        "15813": 13,
        "15814": 21,
        "15815": 18,
        "15816": 28,
        "15817": 6,
        "15818": 140,
        "15819": 17,
        "15820": 6,
        "15821": 103,
        "15822": 24,
        "15823": 57,
        "15824": 191,
        "15825": 92,
        "15826": 40,
        "15827": 92,
        "15828": 84,
        "15829": 239,
        "15830": 153,
        "15831": 76,
        "15832": 228,
        "15833": 15,
        "15834": 185,
        "15835": 22,
        "15836": 228,
        "15837": 8,
        "15838": 184,
        "15839": 22,
        "15840": 155,
        "15841": 84,
        "15842": 13,
        "15843": 195,
        "15844": 195,
        "15845": 201,
        "15846": 64,
        "15847": 139,
        "15848": 116,
        "15849": 238,
        "15850": 178,
        "15851": 237,
        "15852": 243,
        "15853": 105,
        "15854": 99,
        "15855": 233,
        "15856": 204,
        "15857": 94,
        "15858": 112,
        "15859": 127,
        "15860": 13,
        "15861": 129,
        "15862": 122,
        "15863": 186,
        "15864": 94,
        "15865": 121,
        "15866": 75,
        "15867": 120,
        "15868": 231,
        "15869": 177,
        "15870": 210,
        "15871": 117,
        "15872": 16,
        "15873": 240,
        "15874": 245,
        "15875": 24,
        "15876": 23,
        "15877": 233,
        "15878": 204,
        "15879": 87,
        "15880": 40,
        "15881": 96,
        "15882": 84,
        "15883": 253,
        "15884": 174,
        "15885": 218,
        "15886": 67,
        "15887": 134,
        "15888": 114,
        "15889": 8,
        "15890": 46,
        "15891": 214,
        "15892": 9,
        "15893": 67,
        "15894": 208,
        "15895": 218,
        "15896": 90,
        "15897": 66,
        "15898": 89,
        "15899": 40,
        "15900": 72,
        "15901": 102,
        "15902": 195,
        "15903": 202,
        "15904": 220,
        "15905": 134,
        "15906": 2,
        "15907": 147,
        "15908": 67,
        "15909": 157,
        "15910": 27,
        "15911": 229,
        "15912": 220,
        "15913": 4,
        "15914": 32,
        "15915": 61,
        "15916": 50,
        "15917": 49,
        "15918": 126,
        "15919": 66,
        "15920": 84,
        "15921": 129,
        "15922": 140,
        "15923": 53,
        "15924": 170,
        "15925": 237,
        "15926": 22,
        "15927": 186,
        "15928": 127,
        "15929": 198,
        "15930": 2,
        "15931": 81,
        "15932": 188,
        "15933": 152,
        "15934": 98,
        "15935": 155,
        "15936": 158,
        "15937": 139,
        "15938": 252,
        "15939": 204,
        "15940": 36,
        "15941": 153,
        "15942": 229,
        "15943": 4,
        "15944": 93,
        "15945": 243,
        "15946": 104,
        "15947": 237,
        "15948": 37,
        "15949": 35,
        "15950": 38,
        "15951": 127,
        "15952": 187,
        "15953": 253,
        "15954": 157,
        "15955": 117,
        "15956": 163,
        "15957": 221,
        "15958": 45,
        "15959": 119,
        "15960": 181,
        "15961": 233,
        "15962": 188,
        "15963": 106,
        "15964": 52,
        "15965": 88,
        "15966": 230,
        "15967": 48,
        "15968": 95,
        "15969": 215,
        "15970": 78,
        "15971": 213,
        "15972": 6,
        "15973": 236,
        "15974": 201,
        "15975": 26,
        "15976": 87,
        "15977": 12,
        "15978": 116,
        "15979": 178,
        "15980": 165,
        "15981": 112,
        "15982": 241,
        "15983": 210,
        "15984": 224,
        "15985": 92,
        "15986": 89,
        "15987": 42,
        "15988": 66,
        "15989": 213,
        "15990": 129,
        "15991": 218,
        "15992": 33,
        "15993": 157,
        "15994": 13,
        "15995": 60,
        "15996": 67,
        "15997": 24,
        "15998": 57,
        "15999": 173,
        "16000": 25,
        "16001": 177,
        "16002": 77,
        "16003": 242,
        "16004": 112,
        "16005": 18,
        "16006": 112,
        "16007": 18,
        "16008": 29,
        "16009": 38,
        "16010": 226,
        "16011": 168,
        "16012": 5,
        "16013": 221,
        "16014": 45,
        "16015": 15,
        "16016": 249,
        "16017": 5,
        "16018": 106,
        "16019": 237,
        "16020": 6,
        "16021": 54,
        "16022": 142,
        "16023": 1,
        "16024": 32,
        "16025": 216,
        "16026": 74,
        "16027": 113,
        "16028": 94,
        "16029": 212,
        "16030": 59,
        "16031": 41,
        "16032": 30,
        "16033": 214,
        "16034": 198,
        "16035": 32,
        "16036": 167,
        "16037": 69,
        "16038": 200,
        "16039": 195,
        "16040": 81,
        "16041": 196,
        "16042": 138,
        "16043": 239,
        "16044": 61,
        "16045": 108,
        "16046": 33,
        "16047": 119,
        "16048": 110,
        "16049": 239,
        "16050": 250,
        "16051": 61,
        "16052": 113,
        "16053": 63,
        "16054": 18,
        "16055": 37,
        "16056": 47,
        "16057": 246,
        "16058": 22,
        "16059": 61,
        "16060": 223,
        "16061": 46,
        "16062": 50,
        "16063": 221,
        "16064": 201,
        "16065": 165,
        "16066": 152,
        "16067": 203,
        "16068": 90,
        "16069": 156,
        "16070": 107,
        "16071": 223,
        "16072": 43,
        "16073": 205,
        "16074": 101,
        "16075": 156,
        "16076": 181,
        "16077": 153,
        "16078": 60,
        "16079": 202,
        "16080": 243,
        "16081": 23,
        "16082": 27,
        "16083": 113,
        "16084": 96,
        "16085": 175,
        "16086": 244,
        "16087": 236,
        "16088": 147,
        "16089": 146,
        "16090": 111,
        "16091": 226,
        "16092": 93,
        "16093": 62,
        "16094": 125,
        "16095": 202,
        "16096": 174,
        "16097": 170,
        "16098": 181,
        "16099": 60,
        "16100": 50,
        "16101": 38,
        "16102": 89,
        "16103": 103,
        "16104": 218,
        "16105": 158,
        "16106": 44,
        "16107": 53,
        "16108": 71,
        "16109": 98,
        "16110": 18,
        "16111": 191,
        "16112": 138,
        "16113": 123,
        "16114": 28,
        "16115": 4,
        "16116": 138,
        "16117": 65,
        "16118": 187,
        "16119": 106,
        "16120": 159,
        "16121": 51,
        "16122": 227,
        "16123": 80,
        "16124": 164,
        "16125": 97,
        "16126": 157,
        "16127": 217,
        "16128": 234,
        "16129": 139,
        "16130": 195,
        "16131": 60,
        "16132": 15,
        "16133": 175,
        "16134": 102,
        "16135": 44,
        "16136": 127,
        "16137": 150,
        "16138": 173,
        "16139": 246,
        "16140": 26,
        "16141": 158,
        "16142": 73,
        "16143": 36,
        "16144": 205,
        "16145": 94,
        "16146": 234,
        "16147": 63,
        "16148": 4,
        "16149": 113,
        "16150": 33,
        "16151": 7,
        "16152": 60,
        "16153": 109,
        "16154": 234,
        "16155": 93,
        "16156": 102,
        "16157": 96,
        "16158": 196,
        "16159": 19,
        "16160": 201,
        "16161": 75,
        "16162": 108,
        "16163": 85,
        "16164": 31,
        "16165": 158,
        "16166": 60,
        "16167": 175,
        "16168": 201,
        "16169": 103,
        "16170": 253,
        "16171": 239,
        "16172": 133,
        "16173": 9,
        "16174": 52,
        "16175": 245,
        "16176": 36,
        "16177": 133,
        "16178": 46,
        "16179": 24,
        "16180": 98,
        "16181": 71,
        "16182": 94,
        "16183": 4,
        "16184": 142,
        "16185": 36,
        "16186": 13,
        "16187": 45,
        "16188": 130,
        "16189": 0,
        "16190": 20,
        "16191": 58,
        "16192": 134,
        "16193": 165,
        "16194": 66,
        "16195": 22,
        "16196": 172,
        "16197": 62,
        "16198": 227,
        "16199": 115,
        "16200": 148,
        "16201": 225,
        "16202": 0,
        "16203": 77,
        "16204": 231,
        "16205": 20,
        "16206": 60,
        "16207": 66,
        "16208": 169,
        "16209": 152,
        "16210": 42,
        "16211": 246,
        "16212": 69,
        "16213": 226,
        "16214": 216,
        "16215": 25,
        "16216": 170,
        "16217": 135,
        "16218": 103,
        "16219": 232,
        "16220": 149,
        "16221": 200,
        "16222": 87,
        "16223": 103,
        "16224": 20,
        "16225": 67,
        "16226": 13,
        "16227": 117,
        "16228": 159,
        "16229": 76,
        "16230": 134,
        "16231": 14,
        "16232": 12,
        "16233": 170,
        "16234": 96,
        "16235": 185,
        "16236": 88,
        "16237": 119,
        "16238": 90,
        "16239": 87,
        "16240": 70,
        "16241": 30,
        "16242": 231,
        "16243": 71,
        "16244": 7,
        "16245": 182,
        "16246": 167,
        "16247": 66,
        "16248": 87,
        "16249": 97,
        "16250": 179,
        "16251": 97,
        "16252": 120,
        "16253": 201,
        "16254": 48,
        "16255": 147,
        "16256": 13,
        "16257": 7,
        "16258": 5,
        "16259": 102,
        "16260": 143,
        "16261": 28,
        "16262": 204,
        "16263": 82,
        "16264": 79,
        "16265": 85,
        "16266": 243,
        "16267": 14,
        "16268": 37,
        "16269": 37,
        "16270": 76,
        "16271": 84,
        "16272": 173,
        "16273": 140,
        "16274": 161,
        "16275": 150,
        "16276": 125,
        "16277": 165,
        "16278": 211,
        "16279": 79,
        "16280": 175,
        "16281": 86,
        "16282": 189,
        "16283": 155,
        "16284": 139,
        "16285": 49,
        "16286": 76,
        "16287": 87,
        "16288": 249,
        "16289": 254,
        "16290": 112,
        "16291": 19,
        "16292": 146,
        "16293": 188,
        "16294": 135,
        "16295": 41,
        "16296": 239,
        "16297": 232,
        "16298": 17,
        "16299": 119,
        "16300": 249,
        "16301": 137,
        "16302": 61,
        "16303": 186,
        "16304": 2,
        "16305": 141,
        "16306": 62,
        "16307": 174,
        "16308": 73,
        "16309": 152,
        "16310": 45,
        "16311": 10,
        "16312": 180,
        "16313": 53,
        "16314": 8,
        "16315": 163,
        "16316": 64,
        "16317": 84,
        "16318": 88,
        "16319": 161,
        "16320": 25,
        "16321": 119,
        "16322": 5,
        "16323": 246,
        "16324": 167,
        "16325": 126,
        "16326": 121,
        "16327": 128,
        "16328": 80,
        "16329": 56,
        "16330": 157,
        "16331": 240,
        "16332": 132,
        "16333": 59,
        "16334": 95,
        "16335": 168,
        "16336": 83,
        "16337": 167,
        "16338": 202,
        "16339": 125,
        "16340": 64,
        "16341": 101,
        "16342": 86,
        "16343": 189,
        "16344": 79,
        "16345": 115,
        "16346": 161,
        "16347": 238,
        "16348": 75,
        "16349": 220,
        "16350": 70,
        "16351": 196,
        "16352": 59,
        "16353": 58,
        "16354": 24,
        "16355": 115,
        "16356": 53,
        "16357": 0,
        "16358": 27,
        "16359": 180,
        "16360": 202,
        "16361": 122,
        "16362": 240,
        "16363": 51,
        "16364": 56,
        "16365": 231,
        "16366": 27,
        "16367": 248,
        "16368": 223,
        "16369": 124,
        "16370": 172,
        "16371": 226,
        "16372": 160,
        "16373": 194,
        "16374": 0,
        "16375": 199,
        "16376": 192,
        "16377": 247,
        "16378": 42,
        "16379": 85,
        "16380": 159,
        "16381": 117,
        "16382": 28,
        "16383": 180,
        "16384": 183,
        "16385": 75,
        "16386": 239,
        "16387": 219,
        "16388": 248,
        "16389": 129,
        "16390": 233,
        "16391": 106,
        "16392": 255,
        "16393": 35,
        "16394": 29,
        "16395": 222,
        "16396": 47,
        "16397": 225,
        "16398": 188,
        "16399": 101,
        "16400": 29,
        "16401": 34,
        "16402": 9,
        "16403": 47,
        "16404": 92,
        "16405": 98,
        "16406": 116,
        "16407": 110,
        "16408": 192,
        "16409": 99,
        "16410": 195,
        "16411": 78,
        "16412": 177,
        "16413": 53,
        "16414": 152,
        "16415": 94,
        "16416": 40,
        "16417": 89,
        "16418": 55,
        "16419": 5,
        "16420": 84,
        "16421": 241,
        "16422": 12,
        "16423": 133,
        "16424": 152,
        "16425": 185,
        "16426": 176,
        "16427": 216,
        "16428": 70,
        "16429": 19,
        "16430": 111,
        "16431": 183,
        "16432": 177,
        "16433": 8,
        "16434": 252,
        "16435": 87,
        "16436": 238,
        "16437": 20,
        "16438": 154,
        "16439": 240,
        "16440": 99,
        "16441": 102,
        "16442": 204,
        "16443": 75,
        "16444": 15,
        "16445": 125,
        "16446": 253,
        "16447": 61,
        "16448": 52,
        "16449": 107,
        "16450": 92,
        "16451": 235,
        "16452": 143,
        "16453": 138,
        "16454": 150,
        "16455": 184,
        "16456": 59,
        "16457": 193,
        "16458": 3,
        "16459": 18,
        "16460": 158,
        "16461": 253,
        "16462": 193,
        "16463": 230,
        "16464": 72,
        "16465": 98,
        "16466": 163,
        "16467": 28,
        "16468": 103,
        "16469": 37,
        "16470": 246,
        "16471": 40,
        "16472": 120,
        "16473": 149,
        "16474": 139,
        "16475": 104,
        "16476": 31,
        "16477": 94,
        "16478": 106,
        "16479": 87,
        "16480": 156,
        "16481": 154,
        "16482": 231,
        "16483": 88,
        "16484": 47,
        "16485": 73,
        "16486": 214,
        "16487": 231,
        "16488": 6,
        "16489": 122,
        "16490": 233,
        "16491": 155,
        "16492": 157,
        "16493": 221,
        "16494": 184,
        "16495": 94,
        "16496": 235,
        "16497": 151,
        "16498": 40,
        "16499": 234,
        "16500": 160,
        "16501": 108,
        "16502": 228,
        "16503": 63,
        "16504": 91,
        "16505": 192,
        "16506": 138,
        "16507": 34,
        "16508": 21,
        "16509": 146,
        "16510": 119,
        "16511": 11,
        "16512": 143,
        "16513": 207,
        "16514": 248,
        "16515": 124,
        "16516": 133,
        "16517": 160,
        "16518": 205,
        "16519": 6,
        "16520": 1,
        "16521": 8,
        "16522": 0,
        "16523": 0,
        "16524": 0,
        "16525": 0,
        "16526": 0,
        "16527": 0,
        "16528": 16,
        "16529": 0,
        "16530": 0,
        "16531": 0,
        "16532": 0,
        "16533": 0,
        "16534": 0,
        "16535": 0,
        "16536": 0,
        "16537": 0,
        "16538": 0,
        "16539": 0,
        "16540": 0,
        "16541": 0,
        "16542": 0,
        "16543": 0,
        "16544": 0,
        "16545": 0,
        "16546": 0,
        "16547": 0,
        "16548": 0,
        "16549": 0,
        "16550": 0,
        "16551": 0,
        "16552": 64,
        "16553": 0,
        "16554": 0,
        "16555": 0,
        "16556": 0,
        "16557": 0,
        "16558": 0,
        "16559": 0,
        "16560": 3,
        "16561": 0,
        "16562": 0,
        "16563": 0,
        "16564": 0,
        "16565": 0,
        "16566": 0,
        "16567": 0,
        "16568": 4,
        "16569": 0,
        "16570": 0,
        "16571": 0,
        "16572": 0,
        "16573": 0,
        "16574": 0,
        "16575": 0,
        "16576": 4,
        "16577": 0,
        "16578": 0,
        "16579": 0,
        "16580": 0,
        "16581": 0,
        "16582": 0,
        "16583": 0,
        "16584": 0,
        "16585": 0,
        "16586": 0,
        "16587": 0,
        "16588": 1,
        "16589": 0,
        "16590": 0,
        "16591": 0,
        "16592": 0,
        "16593": 0,
        "16594": 0,
        "16595": 0,
        "16596": 16,
        "16597": 0,
        "16598": 0,
        "16599": 0,
        "16600": 0,
        "16601": 0,
        "16602": 0,
        "16603": 0
      }
    }
  ],
  "numDeployments": 1,
  "solcInputHash": "628494debc9ab6b6b587deae3cbf48f9",
  "bytecode": "0x6101606040526200001760006200026660201b60201c565b6004553480156200002757600080fd5b50604051620046ed380380620046ed83398181016040528101906200004d919062000b83565b6040518060400160405280600881526020017f46616b65205553440000000000000000000000000000000000000000000000008152506040518060400160405280600481526020017f6655534400000000000000000000000000000000000000000000000000000000815250338383836040518060400160405280601181526020017f4668656e6978205065726d697373696f6e0000000000000000000000000000008152506040518060400160405280600381526020017f312e3000000000000000000000000000000000000000000000000000000000008152506200013f6000836200028260201b90919060201c565b61012081815250506200015d6001826200028260201b90919060201c565b6101408181525050818051906020012060e08181525050808051906020012061010081815250504660a081815250506200019c620002da60201b60201c565b608081815250503073ffffffffffffffffffffffffffffffffffffffff1660c08173ffffffffffffffffffffffffffffffffffffffff168152505050508160059081620001ea919062000e1f565b508060069081620001fc919062000e1f565b505050600062000212826200033760201b60201c565b9050620002486200023c8262000230617fff6200026660201b60201c565b6200035560201b60201c565b620003f860201b60201c565b6200025a8382620004cb60201b60201c565b50505050505062001260565b60006200027b8260026200057160201b60201c565b9050919050565b6000602083511015620002a857620002a0836200062860201b60201c565b9050620002d4565b82620002ba836200069560201b60201c565b6000019081620002cb919062000e1f565b5060ff60001b90505b92915050565b60007f8b73c3c69bb8fe3d512ecc4cf759cc79239f7b179b0ffacaa9a75d522b39400f60e0516101005146306040516020016200031c95949392919062000f77565b60405160208183030381529060405280519060200120905090565b60006200034e82600001516200069f60201b60201c565b9050919050565b60006200036883620006bb60201b60201c565b62000382576200037f60006200026660201b60201c565b92505b6200039382620006bb60201b60201c565b620003ad57620003aa60006200026660201b60201c565b91505b600083905060008390506000620003ea60028484608073ffffffffffffffffffffffffffffffffffffffff1663eb274b77620006c860201b60201c565b905080935050505092915050565b62000409816200077960201b60201c565b62000423576200042060006200078660201b60201c565b90505b600081905060006200043b82620007a260201b60201c565b9050608073ffffffffffffffffffffffffffffffffffffffff16637d23f1db600d836040518363ffffffff1660e01b81526004016200047c9291906200104f565b600060405180830381865afa1580156200049a573d6000803e3d6000fd5b505050506040513d6000823e3d601f19601f82011682018060405250810190620004c5919062001083565b50505050565b62000516600260008473ffffffffffffffffffffffffffffffffffffffff1673ffffffffffffffffffffffffffffffffffffffff168152602001908152602001600020548262000803565b600260008473ffffffffffffffffffffffffffffffffffffffff1673ffffffffffffffffffffffffffffffffffffffff16815260200190815260200160002081905550620005676004548262000803565b6004819055505050565b60006060608073ffffffffffffffffffffffffffffffffffffffff166319e1c5c4620005a386620007a260201b60201c565b856040518363ffffffff1660e01b8152600401620005c3929190620010d4565b600060405180830381865afa158015620005e1573d6000803e3d6000fd5b505050506040513d6000823e3d601f19601f820116820180604052508101906200060c919062001083565b90506200061f816200081f60201b60201c565b91505092915050565b600080829050601f815111156200067857826040517f305a27a90000000000000000000000000000000000000000000000000000000081526004016200066f91906200115a565b60405180910390fd5b8051816200068690620011a5565b60001c1760001b915050919050565b6000819050919050565b6000620006b48260026200082d60201b60201c565b9050919050565b6000808214159050919050565b60006060838388620006e089620007a260201b60201c565b620006f189620007a260201b60201c565b6040518463ffffffff1660e01b8152600401620007119392919062001215565b600060405180830381865afa1580156200072f573d6000803e3d6000fd5b505050506040513d6000823e3d601f19601f820116820180604052508101906200075a919062001083565b90506200076d81620008d460201b60201c565b91505095945050505050565b6000808214159050919050565b60006200079b82600d6200057160201b60201c565b9050919050565b6060602067ffffffffffffffff811115620007c257620007c1620009ae565b5b6040519080825280601f01601f191660200182016040528015620007f55781602001600182028036833780820191505090505b509050816020820152919050565b6000620008178383620008e260201b60201c565b905092915050565b600060208201519050919050565b60006060608073ffffffffffffffffffffffffffffffffffffffff16635fa55ca784866040518363ffffffff1660e01b81526004016200086f9291906200104f565b600060405180830381865afa1580156200088d573d6000803e3d6000fd5b505050506040513d6000823e3d601f19601f82011682018060405250810190620008b8919062001083565b9050620008cb816200081f60201b60201c565b91505092915050565b600060208201519050919050565b6000620008f583620006bb60201b60201c565b6200090f576200090c60006200026660201b60201c565b92505b6200092082620006bb60201b60201c565b6200093a576200093760006200026660201b60201c565b91505b6000839050600083905060006200097660028484608073ffffffffffffffffffffffffffffffffffffffff16622df619620006c860201b60201c565b905080935050505092915050565b6000604051905090565b600080fd5b600080fd5b600080fd5b6000601f19601f8301169050919050565b7f4e487b7100000000000000000000000000000000000000000000000000000000600052604160045260246000fd5b620009e8826200099d565b810181811067ffffffffffffffff8211171562000a0a5762000a09620009ae565b5b80604052505050565b600062000a1f62000984565b905062000a2d8282620009dd565b919050565b600080fd5b600080fd5b600080fd5b600067ffffffffffffffff82111562000a5f5762000a5e620009ae565b5b62000a6a826200099d565b9050602081019050919050565b60005b8381101562000a9757808201518184015260208101905062000a7a565b60008484015250505050565b600062000aba62000ab48462000a41565b62000a13565b90508281526020810184848401111562000ad95762000ad862000a3c565b5b62000ae684828562000a77565b509392505050565b600082601f83011262000b065762000b0562000a37565b5b815162000b1884826020860162000aa3565b91505092915050565b60006020828403121562000b3a5762000b3962000998565b5b62000b46602062000a13565b9050600082015167ffffffffffffffff81111562000b695762000b6862000a32565b5b62000b778482850162000aee565b60008301525092915050565b60006020828403121562000b9c5762000b9b6200098e565b5b600082015167ffffffffffffffff81111562000bbd5762000bbc62000993565b5b62000bcb8482850162000b21565b91505092915050565b600081519050919050565b7f4e487b7100000000000000000000000000000000000000000000000000000000600052602260045260246000fd5b6000600282049050600182168062000c2757607f821691505b60208210810362000c3d5762000c3c62000bdf565b5b50919050565b60008190508160005260206000209050919050565b60006020601f8301049050919050565b600082821b905092915050565b60006008830262000ca77fffffffffffffffffffffffffffffffffffffffffffffffffffffffffffffffff8262000c68565b62000cb3868362000c68565b95508019841693508086168417925050509392505050565b6000819050919050565b6000819050919050565b600062000d0062000cfa62000cf48462000ccb565b62000cd5565b62000ccb565b9050919050565b6000819050919050565b62000d1c8362000cdf565b62000d3462000d2b8262000d07565b84845462000c75565b825550505050565b600090565b62000d4b62000d3c565b62000d5881848462000d11565b505050565b5b8181101562000d805762000d7460008262000d41565b60018101905062000d5e565b5050565b601f82111562000dcf5762000d998162000c43565b62000da48462000c58565b8101602085101562000db4578190505b62000dcc62000dc38562000c58565b83018262000d5d565b50505b505050565b600082821c905092915050565b600062000df46000198460080262000dd4565b1980831691505092915050565b600062000e0f838362000de1565b9150826002028217905092915050565b62000e2a8262000bd4565b67ffffffffffffffff81111562000e465762000e45620009ae565b5b62000e52825462000c0e565b62000e5f82828562000d84565b600060209050601f83116001811462000e97576000841562000e82578287015190505b62000e8e858262000e01565b86555062000efe565b601f19841662000ea78662000c43565b60005b8281101562000ed15784890151825560018201915060208501945060208101905062000eaa565b8683101562000ef1578489015162000eed601f89168262000de1565b8355505b6001600288020188555050505b505050505050565b6000819050919050565b62000f1b8162000f06565b82525050565b62000f2c8162000ccb565b82525050565b600073ffffffffffffffffffffffffffffffffffffffff82169050919050565b600062000f5f8262000f32565b9050919050565b62000f718162000f52565b82525050565b600060a08201905062000f8e600083018862000f10565b62000f9d602083018762000f10565b62000fac604083018662000f10565b62000fbb606083018562000f21565b62000fca608083018462000f66565b9695505050505050565b600060ff82169050919050565b62000fec8162000fd4565b82525050565b600081519050919050565b600082825260208201905092915050565b60006200101b8262000ff2565b62001027818562000ffd565b93506200103981856020860162000a77565b62001044816200099d565b840191505092915050565b600060408201905062001066600083018562000fe1565b81810360208301526200107a81846200100e565b90509392505050565b6000602082840312156200109c576200109b6200098e565b5b600082015167ffffffffffffffff811115620010bd57620010bc62000993565b5b620010cb8482850162000aee565b91505092915050565b60006040820190508181036000830152620010f081856200100e565b905062001101602083018462000fe1565b9392505050565b600082825260208201905092915050565b6000620011268262000bd4565b62001132818562001108565b93506200114481856020860162000a77565b6200114f816200099d565b840191505092915050565b6000602082019050818103600083015262001176818462001119565b905092915050565b6000819050602082019050919050565b60006200119c825162000f06565b80915050919050565b6000620011b28262000ff2565b82620011be846200117e565b9050620011cb816200118e565b925060208210156200120e57620012097fffffffffffffffffffffffffffffffffffffffffffffffffffffffffffffffff8360200360080262000c68565b831692505b5050919050565b60006060820190506200122c600083018662000fe1565b81810360208301526200124081856200100e565b905081810360408301526200125681846200100e565b9050949350505050565b60805160a05160c05160e051610100516101205161014051613432620012bb60003960006113ca0152600061138f015260006120d3015260006120b2015260006117f3015260006118490152600061187201526134326000f3fe608060405234801561001057600080fd5b50600436106101425760003560e01c80637ecebe00116100b8578063a9059cbb1161007c578063a9059cbb146103b9578063af575a00146103e9578063c4224c1914610419578063d505accf14610449578063d918156e14610465578063dd62ed3e1461049557610142565b80637ecebe00146102fb57806384b0196e1461032b5780638624a3491461034f57806395d89b411461037f5780639f284be71461039d57610142565b80633644e5151161010a5780633644e5151461020157806339c217f71461021f5780635356c4291461024f578063602772041461027f5780636e0505e1146102af57806370a08231146102cb57610142565b806306fdde0314610147578063095ea7b31461016557806318160ddd1461019557806323b872dd146101b3578063313ce567146101e3575b600080fd5b61014f6104c5565b60405161015c9190612494565b60405180910390f35b61017f600480360381019061017a919061255e565b610557565b60405161018c91906125b9565b60405180910390f35b61019d6105ab565b6040516101aa91906125e3565b60405180910390f35b6101cd60048036038101906101c891906125fe565b6105bd565b6040516101da91906125b9565b60405180910390f35b6101eb610692565b6040516101f8919061266d565b60405180910390f35b610209610697565b60405161021691906126a1565b60405180910390f35b610239600480360381019061023491906126e0565b610729565b6040516102469190612777565b60405180910390f35b610269600480360381019061026491906127b1565b61074e565b6040516102769190612494565b60405180910390f35b610299600480360381019061029491906129e4565b61084c565b6040516102a69190612494565b60405180910390f35b6102c960048036038101906102c49190612a7c565b610982565b005b6102e560048036038101906102e09190612aa9565b610ab9565b6040516102f291906125e3565b60405180910390f35b61031560048036038101906103109190612aa9565b610ad4565b60405161032291906125e3565b60405180910390f35b610333610aef565b6040516103469796959493929190612bde565b60405180910390f35b61036960048036038101906103649190612c62565b610b99565b6040516103769190612777565b60405180910390f35b610387610bd7565b6040516103949190612494565b60405180910390f35b6103b760048036038101906103b29190612a7c565b610c69565b005b6103d360048036038101906103ce919061255e565b610d76565b6040516103e091906125b9565b60405180910390f35b61040360048036038101906103fe9190612cfd565b610e08565b6040516104109190612777565b60405180910390f35b610433600480360381019061042e9190612d50565b610e35565b6040516104409190612777565b60405180910390f35b610463600480360381019061045e9190612dbc565b610e4a565b005b61047f600480360381019061047a91906126e0565b610fee565b60405161048c91906125b9565b60405180910390f35b6104af60048036038101906104aa9190612e5e565b611016565b6040516104bc91906125e3565b60405180910390f35b6060600580546104d490612ecd565b80601f016020809104026020016040519081016040528092919081815260200182805461050090612ecd565b801561054d5780601f106105225761010080835404028352916020019161054d565b820191906000526020600020905b81548152906001019060200180831161053057829003601f168201915b5050505050905090565b600082602052637f5e9f20600c5233600052816034600c205581600052602c5160601c337f8c5be1e5ebec7d5bd14f71427d1e84f3dd0314c0f7b2291e5b200ac8c7c3b92560206000a36001905092915050565b60006805345cdf77eb68f44c54905090565b60006105ca848484611036565b8360601b33602052637f5e9f208117600c526034600c20805460018101156106085780851115610602576313be252b6000526004601cfd5b84810382555b6387a211a28317600c526020600c2080548087111561062f5763f4d678b86000526004601cfd5b8681038255876000526020600c2087815401815587602052600c5160601c8660601c7fddf252ad1be2c89b69c2b068fc378daa952ba7f163c4a11628f55a4df523b3ef602080a350505050505061068784848461103b565b600190509392505050565b600090565b6000806106a2611040565b90506000801b81036106c0576106b66104c5565b8051906020012090505b6040517f8b73c3c69bb8fe3d512ecc4cf759cc79239f7b179b0ffacaa9a75d522b39400f81528160208201527fc89efdaa54c0f20c7adf612882df0950f5a951637e0307cdcb4c672f298b8bc6604082015246606082015230608082015260a081209250505090565b6000610746836107418461073c90612f56565b611045565b610e35565b905092915050565b60608161075a90612f69565b60006107b17f6bdaeb2d29561f159c7ef98b16b27015fb2aeb87209c7ee656226d912f59927d8360000151604051602001610796929190612f7c565b6040516020818303038152906040528051906020012061105b565b905060006107c3828460200151611075565b90503373ffffffffffffffffffffffffffffffffffffffff168173ffffffffffffffffffffffffffffffffffffffff161461082a576040517f3093a27700000000000000000000000000000000000000000000000000000000815260040160405180910390fd5b61084161083733886110a1565b8660000135611128565b935050505092915050565b6060818360006108a77f6bdaeb2d29561f159c7ef98b16b27015fb2aeb87209c7ee656226d912f59927d846000015160405160200161088c929190612f7c565b6040516020818303038152906040528051906020012061105b565b905060006108b9828560200151611075565b90508273ffffffffffffffffffffffffffffffffffffffff168173ffffffffffffffffffffffffffffffffffffffff1614610920576040517f51c65eae00000000000000000000000000000000000000000000000000000000815260040160405180910390fd5b6109768660000151600260008a73ffffffffffffffffffffffffffffffffffffffff1673ffffffffffffffffffffffffffffffffffffffff1681526020019081526020016000205461115e90919063ffffffff16565b94505050505092915050565b60006109938263ffffffff16611172565b905060006109fc6109ec83600260003373ffffffffffffffffffffffffffffffffffffffff1673ffffffffffffffffffffffffffffffffffffffff1681526020019081526020016000205461118690919063ffffffff16565b836109f76000611172565b61119a565b9050610a47600260003373ffffffffffffffffffffffffffffffffffffffff1673ffffffffffffffffffffffffffffffffffffffff1681526020019081526020016000205482611218565b600260003373ffffffffffffffffffffffffffffffffffffffff1673ffffffffffffffffffffffffffffffffffffffff16815260200190815260200160002081905550610a9660045482611218565b600481905550610ab433610aa98361122c565b63ffffffff166112ef565b505050565b60006387a211a2600c52816000526020600c20549050919050565b60006338377508600c52816000526020600c20549050919050565b600060608060008060006060610b03611386565b610b0b6113c1565b46306000801b600067ffffffffffffffff811115610b2c57610b2b612812565b5b604051908082528060200260200182016040528015610b5a5781602001602082028036833780820191505090505b507f0f00000000000000000000000000000000000000000000000000000000000000959493929190965096509650965096509650965090919293949596565b600080610bae83610ba990612f56565b611045565b90506000610bbd8633846113fc565b9050610bca868683611439565b5080925050509392505050565b606060068054610be690612ecd565b80601f0160208091040260200160405190810160405280929190818152602001828054610c1290612ecd565b8015610c5f5780601f10610c3457610100808354040283529160200191610c5f565b820191906000526020600020905b815481529060010190602001808311610c4257829003601f168201915b5050505050905090565b8063ffffffff16610c7933610ab9565b1015610cb1576040517ffda7bbda00000000000000000000000000000000000000000000000000000000815260040160405180910390fd5b610cc1338263ffffffff166115c6565b6000610cd28263ffffffff16611172565b9050610d1d600260003373ffffffffffffffffffffffffffffffffffffffff1673ffffffffffffffffffffffffffffffffffffffff168152602001908152602001600020548261165d565b600260003373ffffffffffffffffffffffffffffffffffffffff1673ffffffffffffffffffffffffffffffffffffffff16815260200190815260200160002081905550610d6c6004548261165d565b6004819055505050565b6000610d83338484611036565b6387a211a2600c52336000526020600c20805480841115610dac5763f4d678b86000526004601cfd5b8381038255846000526020600c2084815401815584602052600c5160601c337fddf252ad1be2c89b69c2b068fc378daa952ba7f163c4a11628f55a4df523b3ef602080a3505050610dfe33848461103b565b6001905092915050565b6000808290506000610e1b8633846113fc565b9050610e28868683611439565b5080925050509392505050565b6000610e42338484611439565b905092915050565b6000610e54611040565b90506000801b8103610e7257610e686104c5565b8051906020012090505b84421115610e8857631a15a3cc6000526004601cfd5b6040518860601b60601c98508760601b60601c975065383775081901600e52886000526020600c2080547f8b73c3c69bb8fe3d512ecc4cf759cc79239f7b179b0ffacaa9a75d522b39400f83528360208401527fc89efdaa54c0f20c7adf612882df0950f5a951637e0307cdcb4c672f298b8bc6604084015246606084015230608084015260a08320602e527f6e71edae12b1b97f4d1f60370fef10105fa2faae0126114a169c64845d6126c983528a60208401528960408401528860608401528060808401528760a084015260c08320604e526042602c206000528660ff1660205285604052846060526020806080600060015afa8b3d5114610f945763ddafbaef6000526004601cfd5b80820183558a637f5e9f2060a01b17604052896034602c20558a8c7f8c5be1e5ebec7d5bd14f71427d1e84f3dd0314c0f7b2291e5b200ac8c7c3b925602060608801a3836040526000606052505050505050505050505050565b600061100c33846110078561100290612f56565b611045565b611671565b6001905092915050565b600081602052637f5e9f20600c52826000526034600c2054905092915050565b505050565b505050565b600090565b600061105482600001516117db565b9050919050565b600061106e6110686117ef565b836118a6565b9050919050565b60008060008061108586866118e7565b9250925092506110958282611943565b82935050505092915050565b6000600360008473ffffffffffffffffffffffffffffffffffffffff1673ffffffffffffffffffffffffffffffffffffffff16815260200190815260200160002060008373ffffffffffffffffffffffffffffffffffffffff1673ffffffffffffffffffffffffffffffffffffffff16815260200190815260200160002054905092915050565b606061113383611aa7565b611144576111416000611172565b92505b600083905061115560028285611ab4565b91505092915050565b606061116a8383611128565b905092915050565b600061117f826002611b6a565b9050919050565b60006111928383611c0c565b905092915050565b60006111a584611c85565b6111b6576111b36000611c92565b93505b6111bf83611aa7565b6111d0576111cd6000611172565b92505b6111d982611aa7565b6111ea576111e76000611172565b91505b60008490506000849050600084905060006112086002858585611ca6565b9050809450505050509392505050565b60006112248383611d5e565b905092915050565b600061123782611aa7565b611248576112456000611172565b91505b6000829050600061125882611dd7565b90506000608073ffffffffffffffffffffffffffffffffffffffff166373cc01546002846040518363ffffffff1660e01b8152600401611299929190612ffa565b602060405180830381865afa1580156112b6573d6000803e3d6000fd5b505050506040513d601f19601f820116820180604052508101906112da919061303f565b90506112e581611e34565b9350505050919050565b6112fb60008383611036565b6805345cdf77eb68f44c548181018181101561131f5763e5cfe9576000526004601cfd5b806805345cdf77eb68f44c556387a211a2600c52836000526020600c2083815401815583602052600c5160601c60007fddf252ad1be2c89b69c2b068fc378daa952ba7f163c4a11628f55a4df523b3ef602080a35050506113826000838361103b565b5050565b60606113bc60007f0000000000000000000000000000000000000000000000000000000000000000611e3e90919063ffffffff16565b905090565b60606113f760017f0000000000000000000000000000000000000000000000000000000000000000611e3e90919063ffffffff16565b905090565b60008061140985856110a1565b905060006114178285611eee565b905061142d86866114288585611218565b611671565b80925050509392505050565b6000806114a1611491600260008873ffffffffffffffffffffffffffffffffffffffff1673ffffffffffffffffffffffffffffffffffffffff1681526020019081526020016000205485611f6790919063ffffffff16565b8461149c6000611172565b61119a565b90506114ec600260008673ffffffffffffffffffffffffffffffffffffffff1673ffffffffffffffffffffffffffffffffffffffff168152602001908152602001600020548261165d565b600260008673ffffffffffffffffffffffffffffffffffffffff1673ffffffffffffffffffffffffffffffffffffffff16815260200190815260200160002081905550611578600260008773ffffffffffffffffffffffffffffffffffffffff1673ffffffffffffffffffffffffffffffffffffffff1681526020019081526020016000205482611218565b600260008773ffffffffffffffffffffffffffffffffffffffff1673ffffffffffffffffffffffffffffffffffffffff16815260200190815260200160002081905550809150509392505050565b6115d282600083611036565b6387a211a2600c52816000526020600c208054808311156115fb5763f4d678b86000526004601cfd5b8281038255826805345cdf77eb68f44c54036805345cdf77eb68f44c558260005260008460601b60601c7fddf252ad1be2c89b69c2b068fc378daa952ba7f163c4a11628f55a4df523b3ef60206000a350506116598260008361103b565b5050565b60006116698383611f7b565b905092915050565b600073ffffffffffffffffffffffffffffffffffffffff168373ffffffffffffffffffffffffffffffffffffffff16036116e35760006040517fe602df050000000000000000000000000000000000000000000000000000000081526004016116da919061306c565b60405180910390fd5b600073ffffffffffffffffffffffffffffffffffffffff168273ffffffffffffffffffffffffffffffffffffffff16036117555760006040517f94280d6200000000000000000000000000000000000000000000000000000000815260040161174c919061306c565b60405180910390fd5b80600360008573ffffffffffffffffffffffffffffffffffffffff1673ffffffffffffffffffffffffffffffffffffffff16815260200190815260200160002060008473ffffffffffffffffffffffffffffffffffffffff1673ffffffffffffffffffffffffffffffffffffffff16815260200190815260200160002081905550505050565b60006117e8826002611ff3565b9050919050565b60007f000000000000000000000000000000000000000000000000000000000000000073ffffffffffffffffffffffffffffffffffffffff163073ffffffffffffffffffffffffffffffffffffffff1614801561186b57507f000000000000000000000000000000000000000000000000000000000000000046145b15611898577f000000000000000000000000000000000000000000000000000000000000000090506118a3565b6118a061208d565b90505b90565b60006040517f190100000000000000000000000000000000000000000000000000000000000081528360028201528260228201526042812091505092915050565b6000806000604184510361192c5760008060006020870151925060408701519150606087015160001a905061191e88828585612123565b95509550955050505061193c565b60006002855160001b9250925092505b9250925092565b6000600381111561195757611956613087565b5b82600381111561196a57611969613087565b5b0315611aa3576001600381111561198457611983613087565b5b82600381111561199757611996613087565b5b036119ce576040517ff645eedf00000000000000000000000000000000000000000000000000000000815260040160405180910390fd5b600260038111156119e2576119e1613087565b5b8260038111156119f5576119f4613087565b5b03611a3a578060001c6040517ffce698f7000000000000000000000000000000000000000000000000000000008152600401611a3191906125e3565b60405180910390fd5b600380811115611a4d57611a4c613087565b5b826003811115611a6057611a5f613087565b5b03611aa257806040517fd78bce0c000000000000000000000000000000000000000000000000000000008152600401611a9991906126a1565b60405180910390fd5b5b5050565b6000808214159050919050565b6060608073ffffffffffffffffffffffffffffffffffffffff1663a1848ff385611add86611dd7565b85604051602001611aee91906130d7565b6040516020818303038152906040526040518463ffffffff1660e01b8152600401611b1b939291906130f2565b600060405180830381865afa158015611b38573d6000803e3d6000fd5b505050506040513d6000823e3d601f19601f82011682018060405250810190611b6191906131d8565b90509392505050565b60006060608073ffffffffffffffffffffffffffffffffffffffff166319e1c5c4611b9486611dd7565b856040518363ffffffff1660e01b8152600401611bb2929190613221565b600060405180830381865afa158015611bcf573d6000803e3d6000fd5b505050506040513d6000823e3d601f19601f82011682018060405250810190611bf891906132c1565b9050611c0381612217565b91505092915050565b6000611c1783611aa7565b611c2857611c256000611172565b92505b611c3182611aa7565b611c4257611c3f6000611172565b91505b600083905060008390506000611c7760028484608073ffffffffffffffffffffffffffffffffffffffff1663650de1cf612225565b905080935050505092915050565b6000808214159050919050565b6000611c9f82600d611b6a565b9050919050565b60006060608073ffffffffffffffffffffffffffffffffffffffff1663c2d9695287611cd188611dd7565b611cda88611dd7565b611ce388611dd7565b6040518563ffffffff1660e01b8152600401611d02949392919061330a565b600060405180830381865afa158015611d1f573d6000803e3d6000fd5b505050506040513d6000823e3d601f19601f82011682018060405250810190611d4891906132c1565b9050611d5381612217565b915050949350505050565b6000611d6983611aa7565b611d7a57611d776000611172565b92505b611d8382611aa7565b611d9457611d916000611172565b91505b600083905060008390506000611dc960028484608073ffffffffffffffffffffffffffffffffffffffff1663cc2cbeff612225565b905080935050505092915050565b6060602067ffffffffffffffff811115611df457611df3612812565b5b6040519080825280601f01601f191660200182016040528015611e265781602001600182028036833780820191505090505b509050816020820152919050565b6000819050919050565b606060ff60001b8314611e5b57611e54836122b9565b9050611ee8565b818054611e6790612ecd565b80601f0160208091040260200160405190810160405280929190818152602001828054611e9390612ecd565b8015611ee05780601f10611eb557610100808354040283529160200191611ee0565b820191906000526020600020905b815481529060010190602001808311611ec357829003601f168201915b505050505090505b92915050565b6000611ef983611aa7565b611f0a57611f076000611172565b92505b611f1382611aa7565b611f2457611f216000611172565b91505b600083905060008390506000611f5960028484608073ffffffffffffffffffffffffffffffffffffffff16635211c679612225565b905080935050505092915050565b6000611f73838361232d565b905092915050565b6000611f8683611aa7565b611f9757611f946000611172565b92505b611fa082611aa7565b611fb157611fae6000611172565b91505b600083905060008390506000611fe560028484608073ffffffffffffffffffffffffffffffffffffffff16622df619612225565b905080935050505092915050565b60006060608073ffffffffffffffffffffffffffffffffffffffff16635fa55ca784866040518363ffffffff1660e01b8152600401612033929190612ffa565b600060405180830381865afa158015612050573d6000803e3d6000fd5b505050506040513d6000823e3d601f19601f8201168201806040525081019061207991906132c1565b905061208481612217565b91505092915050565b60007f8b73c3c69bb8fe3d512ecc4cf759cc79239f7b179b0ffacaa9a75d522b39400f7f00000000000000000000000000000000000000000000000000000000000000007f00000000000000000000000000000000000000000000000000000000000000004630604051602001612108959493929190613364565b60405160208183030381529060405280519060200120905090565b60008060007f7fffffffffffffffffffffffffffffff5d576e7357a4501ddfe92f46681b20a08460001c111561216357600060038592509250925061220d565b60006001888888886040516000815260200160405260405161218894939291906133b7565b6020604051602081039080840390855afa1580156121aa573d6000803e3d6000fd5b505050602060405103519050600073ffffffffffffffffffffffffffffffffffffffff168173ffffffffffffffffffffffffffffffffffffffff16036121fe57600060016000801b9350935093505061220d565b8060008060001b935093509350505b9450945094915050565b600060208201519050919050565b6000606083838861223589611dd7565b61223e89611dd7565b6040518463ffffffff1660e01b815260040161225c939291906130f2565b600060405180830381865afa158015612279573d6000803e3d6000fd5b505050506040513d6000823e3d601f19601f820116820180604052508101906122a291906132c1565b90506122ad816123a6565b91505095945050505050565b606060006122c6836123b4565b90506000602067ffffffffffffffff8111156122e5576122e4612812565b5b6040519080825280601f01601f1916602001820160405280156123175781602001600182028036833780820191505090505b5090508181528360208201528092505050919050565b600061233883611aa7565b612349576123466000611172565b92505b61235282611aa7565b612363576123606000611172565b91505b60008390506000839050600061239860028484608073ffffffffffffffffffffffffffffffffffffffff1663eb274b77612225565b905080935050505092915050565b600060208201519050919050565b60008060ff8360001c169050601f8111156123fb576040517fb3512b0c00000000000000000000000000000000000000000000000000000000815260040160405180910390fd5b80915050919050565b600081519050919050565b600082825260208201905092915050565b60005b8381101561243e578082015181840152602081019050612423565b60008484015250505050565b6000601f19601f8301169050919050565b600061246682612404565b612470818561240f565b9350612480818560208601612420565b6124898161244a565b840191505092915050565b600060208201905081810360008301526124ae818461245b565b905092915050565b6000604051905090565b600080fd5b600080fd5b600073ffffffffffffffffffffffffffffffffffffffff82169050919050565b60006124f5826124ca565b9050919050565b612505816124ea565b811461251057600080fd5b50565b600081359050612522816124fc565b92915050565b6000819050919050565b61253b81612528565b811461254657600080fd5b50565b60008135905061255881612532565b92915050565b60008060408385031215612575576125746124c0565b5b600061258385828601612513565b925050602061259485828601612549565b9150509250929050565b60008115159050919050565b6125b38161259e565b82525050565b60006020820190506125ce60008301846125aa565b92915050565b6125dd81612528565b82525050565b60006020820190506125f860008301846125d4565b92915050565b600080600060608486031215612617576126166124c0565b5b600061262586828701612513565b935050602061263686828701612513565b925050604061264786828701612549565b9150509250925092565b600060ff82169050919050565b61266781612651565b82525050565b6000602082019050612682600083018461265e565b92915050565b6000819050919050565b61269b81612688565b82525050565b60006020820190506126b66000830184612692565b92915050565b600080fd5b6000602082840312156126d7576126d66126bc565b5b81905092915050565b600080604083850312156126f7576126f66124c0565b5b600061270585828601612513565b925050602083013567ffffffffffffffff811115612726576127256124c5565b5b612732858286016126c1565b9150509250929050565b6000819050919050565b600061276161275c61275784612528565b61273c565b612528565b9050919050565b61277181612746565b82525050565b600060208201905061278c6000830184612768565b92915050565b6000604082840312156127a8576127a76126bc565b5b81905092915050565b600080604083850312156127c8576127c76124c0565b5b60006127d685828601612513565b925050602083013567ffffffffffffffff8111156127f7576127f66124c5565b5b61280385828601612792565b9150509250929050565b600080fd5b7f4e487b7100000000000000000000000000000000000000000000000000000000600052604160045260246000fd5b61284a8261244a565b810181811067ffffffffffffffff8211171561286957612868612812565b5b80604052505050565b600061287c6124b6565b90506128888282612841565b919050565b600080fd5b61289b81612688565b81146128a657600080fd5b50565b6000813590506128b881612892565b92915050565b600080fd5b600080fd5b600067ffffffffffffffff8211156128e3576128e2612812565b5b6128ec8261244a565b9050602081019050919050565b82818337600083830152505050565b600061291b612916846128c8565b612872565b905082815260208101848484011115612937576129366128c3565b5b6129428482856128f9565b509392505050565b600082601f83011261295f5761295e6128be565b5b813561296f848260208601612908565b91505092915050565b60006040828403121561298e5761298d61280d565b5b6129986040612872565b905060006129a8848285016128a9565b600083015250602082013567ffffffffffffffff8111156129cc576129cb61288d565b5b6129d88482850161294a565b60208301525092915050565b600080604083850312156129fb576129fa6124c0565b5b6000612a0985828601612513565b925050602083013567ffffffffffffffff811115612a2a57612a296124c5565b5b612a3685828601612978565b9150509250929050565b600063ffffffff82169050919050565b612a5981612a40565b8114612a6457600080fd5b50565b600081359050612a7681612a50565b92915050565b600060208284031215612a9257612a916124c0565b5b6000612aa084828501612a67565b91505092915050565b600060208284031215612abf57612abe6124c0565b5b6000612acd84828501612513565b91505092915050565b60007fff0000000000000000000000000000000000000000000000000000000000000082169050919050565b612b0b81612ad6565b82525050565b612b1a816124ea565b82525050565b600081519050919050565b600082825260208201905092915050565b6000819050602082019050919050565b612b5581612528565b82525050565b6000612b678383612b4c565b60208301905092915050565b6000602082019050919050565b6000612b8b82612b20565b612b958185612b2b565b9350612ba083612b3c565b8060005b83811015612bd1578151612bb88882612b5b565b9750612bc383612b73565b925050600181019050612ba4565b5085935050505092915050565b600060e082019050612bf3600083018a612b02565b8181036020830152612c05818961245b565b90508181036040830152612c19818861245b565b9050612c2860608301876125d4565b612c356080830186612b11565b612c4260a0830185612692565b81810360c0830152612c548184612b80565b905098975050505050505050565b600080600060608486031215612c7b57612c7a6124c0565b5b6000612c8986828701612513565b9350506020612c9a86828701612513565b925050604084013567ffffffffffffffff811115612cbb57612cba6124c5565b5b612cc7868287016126c1565b9150509250925092565b612cda81612528565b8114612ce557600080fd5b50565b600081359050612cf781612cd1565b92915050565b600080600060608486031215612d1657612d156124c0565b5b6000612d2486828701612513565b9350506020612d3586828701612513565b9250506040612d4686828701612ce8565b9150509250925092565b60008060408385031215612d6757612d666124c0565b5b6000612d7585828601612513565b9250506020612d8685828601612ce8565b9150509250929050565b612d9981612651565b8114612da457600080fd5b50565b600081359050612db681612d90565b92915050565b600080600080600080600060e0888a031215612ddb57612dda6124c0565b5b6000612de98a828b01612513565b9750506020612dfa8a828b01612513565b9650506040612e0b8a828b01612549565b9550506060612e1c8a828b01612549565b9450506080612e2d8a828b01612da7565b93505060a0612e3e8a828b016128a9565b92505060c0612e4f8a828b016128a9565b91505092959891949750929550565b60008060408385031215612e7557612e746124c0565b5b6000612e8385828601612513565b9250506020612e9485828601612513565b9150509250929050565b7f4e487b7100000000000000000000000000000000000000000000000000000000600052602260045260246000fd5b60006002820490506001821680612ee557607f821691505b602082108103612ef857612ef7612e9e565b5b50919050565b600060208284031215612f1457612f1361280d565b5b612f1e6020612872565b9050600082013567ffffffffffffffff811115612f3e57612f3d61288d565b5b612f4a8482850161294a565b60008301525092915050565b6000612f623683612efe565b9050919050565b6000612f753683612978565b9050919050565b6000604082019050612f916000830185612692565b612f9e6020830184612692565b9392505050565b600081519050919050565b600082825260208201905092915050565b6000612fcc82612fa5565b612fd68185612fb0565b9350612fe6818560208601612420565b612fef8161244a565b840191505092915050565b600060408201905061300f600083018561265e565b81810360208301526130218184612fc1565b90509392505050565b60008151905061303981612532565b92915050565b600060208284031215613055576130546124c0565b5b60006130638482850161302a565b91505092915050565b60006020820190506130816000830184612b11565b92915050565b7f4e487b7100000000000000000000000000000000000000000000000000000000600052602160045260246000fd5b6000819050919050565b6130d16130cc82612688565b6130b6565b82525050565b60006130e382846130c0565b60208201915081905092915050565b6000606082019050613107600083018661265e565b81810360208301526131198185612fc1565b9050818103604083015261312d8184612fc1565b9050949350505050565b600067ffffffffffffffff82111561315257613151612812565b5b61315b8261244a565b9050602081019050919050565b600061317b61317684613137565b612872565b905082815260208101848484011115613197576131966128c3565b5b6131a2848285612420565b509392505050565b600082601f8301126131bf576131be6128be565b5b81516131cf848260208601613168565b91505092915050565b6000602082840312156131ee576131ed6124c0565b5b600082015167ffffffffffffffff81111561320c5761320b6124c5565b5b613218848285016131aa565b91505092915050565b6000604082019050818103600083015261323b8185612fc1565b905061324a602083018461265e565b9392505050565b600061326461325f846128c8565b612872565b9050828152602081018484840111156132805761327f6128c3565b5b61328b848285612420565b509392505050565b600082601f8301126132a8576132a76128be565b5b81516132b8848260208601613251565b91505092915050565b6000602082840312156132d7576132d66124c0565b5b600082015167ffffffffffffffff8111156132f5576132f46124c5565b5b61330184828501613293565b91505092915050565b600060808201905061331f600083018761265e565b81810360208301526133318186612fc1565b905081810360408301526133458185612fc1565b905081810360608301526133598184612fc1565b905095945050505050565b600060a0820190506133796000830188612692565b6133866020830187612692565b6133936040830186612692565b6133a060608301856125d4565b6133ad6080830184612b11565b9695505050505050565b60006080820190506133cc6000830187612692565b6133d9602083018661265e565b6133e66040830185612692565b6133f36060830184612692565b9594505050505056fea2646970667358221220bab45dce5b6f3351204c1430aa4eac0600c9e1d4aa8b646013e10d046d682b3264736f6c63430008180033",
  "devdoc": {
    "errors": {
      "AllowanceOverflow()": [
        {
          "details": "The allowance has overflowed."
        }
      ],
      "AllowanceUnderflow()": [
        {
          "details": "The allowance has underflowed."
        }
      ],
      "ECDSAInvalidSignature()": [
        {
          "details": "The signature derives the `address(0)`."
        }
      ],
      "ECDSAInvalidSignatureLength(uint256)": [
        {
          "details": "The signature has an invalid length."
        }
      ],
      "ECDSAInvalidSignatureS(bytes32)": [
        {
          "details": "The signature has an S value that is in the upper half order."
        }
      ],
      "InsufficientAllowance()": [
        {
          "details": "Insufficient allowance."
        }
      ],
      "InsufficientBalance()": [
        {
          "details": "Insufficient balance."
        }
      ],
      "InvalidPermit()": [
        {
          "details": "The permit is invalid."
        }
      ],
      "PermitExpired()": [
        {
          "details": "The permit has expired."
        }
      ],
      "TotalSupplyOverflow()": [
        {
          "details": "The total supply has overflowed."
        }
      ]
    },
    "events": {
      "Approval(address,address,uint256)": {
        "details": "Emitted when `amount` tokens is approved by `owner` to be used by `spender`."
      },
      "ApprovalEncrypted(address,address)": {
        "details": "Emitted when the allowance of a `spender` for an `owner` is set by a call to {approveEncrypted}. `value` is the new allowance."
      },
      "EIP712DomainChanged()": {
        "details": "MAY be emitted to signal that the domain could have changed."
      },
      "Transfer(address,address,uint256)": {
        "details": "Emitted when `amount` tokens is transferred from `from` to `to`."
      },
      "TransferEncrypted(address,address)": {
        "details": "Emitted when `value` tokens are moved from one account (`from`) to another (`to`). Note that `value` may be zero."
      }
    },
    "kind": "dev",
    "methods": {
      "DOMAIN_SEPARATOR()": {
        "details": "Returns the EIP-712 domain separator for the EIP-2612 permit."
      },
      "allowance(address,address)": {
        "details": "Returns the amount of tokens that `spender` can spend on behalf of `owner`."
      },
      "allowanceEncrypted(address,(bytes32,bytes))": {
        "details": "Returns the remaining number of tokens that `spender` will be allowed to spend on behalf of `owner` through {transferFrom}. This is zero by default. This value changes when {approve} or {transferFrom} are called."
      },
      "approve(address,uint256)": {
        "details": "Sets `amount` as the allowance of `spender` over the caller's tokens. Emits a {Approval} event."
      },
      "approveEncrypted(address,(bytes))": {
        "details": "Sets a `value` amount of tokens as the allowance of `spender` over the caller's tokens. Returns a boolean value indicating whether the operation succeeded. IMPORTANT: Beware that changing an allowance with this method brings the risk that someone may use both the old and the new allowance by unfortunate transaction ordering. One possible solution to mitigate this race condition is to first reduce the spender's allowance to 0 and set the desired value afterwards: https://github.com/ethereum/EIPs/issues/20#issuecomment-263524729 Emits an {ApprovalEncrypted} event."
      },
      "balanceOf(address)": {
        "details": "Returns the amount of tokens owned by `owner`."
      },
      "balanceOfEncrypted(address,(bytes32,bytes))": {
        "details": "Returns the value of tokens owned by `account`, sealed and encrypted for the caller."
      },
      "decimals()": {
        "details": "Returns the decimals places of the token."
      },
      "eip712Domain()": {
        "details": "See {IERC-5267}."
      },
      "name()": {
        "details": "Returns the name of the token."
      },
      "nonces(address)": {
        "details": "Returns the current nonce for `owner`. This value is used to compute the signature for EIP-2612 permit."
      },
      "permit(address,address,uint256,uint256,uint8,bytes32,bytes32)": {
        "details": "Sets `value` as the allowance of `spender` over the tokens of `owner`, authorized by a signed approval by `owner`. Emits a {Approval} event."
      },
      "symbol()": {
        "details": "Returns the symbol of the token."
      },
      "totalSupply()": {
        "details": "Returns the amount of tokens in existence."
      },
      "transfer(address,uint256)": {
        "details": "Transfer `amount` tokens from the caller to `to`. Requirements: - `from` must at least have `amount`. Emits a {Transfer} event."
      },
      "transferFrom(address,address,uint256)": {
        "details": "Transfers `amount` tokens from `from` to `to`. Note: Does not update the allowance if it is the maximum uint256 value. Requirements: - `from` must at least have `amount`. - The caller must have at least `amount` of allowance to transfer the tokens of `from`. Emits a {Transfer} event."
      },
      "transferFromEncrypted(address,address,(bytes))": {
        "details": "Moves a `value` amount of tokens from `from` to `to` using the allowance mechanism. `value` is then deducted from the caller's allowance. Returns a boolean value indicating whether the operation succeeded. Emits a {TransferEncrypted} event."
      }
    },
    "version": 1
  },
  "userdoc": {
    "errors": {
      "SignerNotMessageSender()": [
        {
          "notice": "Emitted when the signer is not the message sender"
        }
      ],
      "SignerNotOwner()": [
        {
          "notice": "Emitted when the signer is not the specified owner"
        }
      ]
    },
    "kind": "user",
    "methods": {},
    "version": 1
  },
  "storageLayout": {
    "storage": [
      {
        "astId": 16568,
        "contract": "contracts/FakeUSD.sol:FakeUSD",
        "label": "_nameFallback",
        "offset": 0,
        "slot": "0",
        "type": "t_string_storage"
      },
      {
        "astId": 16570,
        "contract": "contracts/FakeUSD.sol:FakeUSD",
        "label": "_versionFallback",
        "offset": 0,
        "slot": "1",
        "type": "t_string_storage"
      },
      {
        "astId": 18171,
        "contract": "contracts/FakeUSD.sol:FakeUSD",
        "label": "_encBalances",
        "offset": 0,
        "slot": "2",
        "type": "t_mapping(t_address,t_userDefinedValueType(euint32)12)"
      },
      {
        "astId": 18178,
        "contract": "contracts/FakeUSD.sol:FakeUSD",
        "label": "_allowed",
        "offset": 0,
        "slot": "3",
        "type": "t_mapping(t_address,t_mapping(t_address,t_userDefinedValueType(euint32)12))"
      },
      {
        "astId": 18185,
        "contract": "contracts/FakeUSD.sol:FakeUSD",
        "label": "totalEncryptedSupply",
        "offset": 0,
        "slot": "4",
        "type": "t_userDefinedValueType(euint32)12"
      },
      {
        "astId": 18187,
        "contract": "contracts/FakeUSD.sol:FakeUSD",
        "label": "_name",
        "offset": 0,
        "slot": "5",
        "type": "t_string_storage"
      },
      {
        "astId": 18189,
        "contract": "contracts/FakeUSD.sol:FakeUSD",
        "label": "_symbol",
        "offset": 0,
        "slot": "6",
        "type": "t_string_storage"
      }
    ],
    "types": {
      "t_address": {
        "encoding": "inplace",
        "label": "address",
        "numberOfBytes": "20"
      },
      "t_mapping(t_address,t_mapping(t_address,t_userDefinedValueType(euint32)12))": {
        "encoding": "mapping",
        "key": "t_address",
        "label": "mapping(address => mapping(address => euint32))",
        "numberOfBytes": "32",
        "value": "t_mapping(t_address,t_userDefinedValueType(euint32)12)"
      },
      "t_mapping(t_address,t_userDefinedValueType(euint32)12)": {
        "encoding": "mapping",
        "key": "t_address",
        "label": "mapping(address => euint32)",
        "numberOfBytes": "32",
        "value": "t_userDefinedValueType(euint32)12"
      },
      "t_string_storage": {
        "encoding": "bytes",
        "label": "string",
        "numberOfBytes": "32"
      },
      "t_userDefinedValueType(euint32)12": {
        "encoding": "inplace",
        "label": "euint32",
        "numberOfBytes": "32"
      }
    }
  }
}