{
  "address": "0xccD1610d3AbaF81473518D77b04FBD28dB3Cb92A",
  "abi": [
    {
      "inputs": [
        {
          "components": [
            {
              "internalType": "bytes",
              "name": "data",
              "type": "bytes"
            }
          ],
          "internalType": "struct inEuint32",
          "name": "_initialSupply",
          "type": "tuple"
        }
      ],
      "stateMutability": "nonpayable",
      "type": "constructor"
    },
    {
      "inputs": [],
      "name": "AllowanceOverflow",
      "type": "error"
    },
    {
      "inputs": [],
      "name": "AllowanceUnderflow",
      "type": "error"
    },
    {
      "inputs": [],
      "name": "ECDSAInvalidSignature",
      "type": "error"
    },
    {
      "inputs": [
        {
          "internalType": "uint256",
          "name": "length",
          "type": "uint256"
        }
      ],
      "name": "ECDSAInvalidSignatureLength",
      "type": "error"
    },
    {
      "inputs": [
        {
          "internalType": "bytes32",
          "name": "s",
          "type": "bytes32"
        }
      ],
      "name": "ECDSAInvalidSignatureS",
      "type": "error"
    },
    {
      "inputs": [],
      "name": "ErrorInsufficientFunds",
      "type": "error"
    },
    {
      "inputs": [],
      "name": "InsufficientAllowance",
      "type": "error"
    },
    {
      "inputs": [],
      "name": "InsufficientBalance",
      "type": "error"
    },
    {
      "inputs": [],
      "name": "InvalidPermit",
      "type": "error"
    },
    {
      "inputs": [],
      "name": "InvalidShortString",
      "type": "error"
    },
    {
      "inputs": [],
      "name": "PermitExpired",
      "type": "error"
    },
    {
      "inputs": [],
      "name": "SignerNotMessageSender",
      "type": "error"
    },
    {
      "inputs": [],
      "name": "SignerNotOwner",
      "type": "error"
    },
    {
      "inputs": [
        {
          "internalType": "string",
          "name": "str",
          "type": "string"
        }
      ],
      "name": "StringTooLong",
      "type": "error"
    },
    {
      "inputs": [],
      "name": "TotalSupplyOverflow",
      "type": "error"
    },
    {
      "anonymous": false,
      "inputs": [
        {
          "indexed": true,
          "internalType": "address",
          "name": "owner",
          "type": "address"
        },
        {
          "indexed": true,
          "internalType": "address",
          "name": "spender",
          "type": "address"
        },
        {
          "indexed": false,
          "internalType": "uint256",
          "name": "amount",
          "type": "uint256"
        }
      ],
      "name": "Approval",
      "type": "event"
    },
    {
      "anonymous": false,
      "inputs": [
        {
          "indexed": true,
          "internalType": "address",
          "name": "owner",
          "type": "address"
        },
        {
          "indexed": true,
          "internalType": "address",
          "name": "spender",
          "type": "address"
        }
      ],
      "name": "ApprovalEncrypted",
      "type": "event"
    },
    {
      "anonymous": false,
      "inputs": [],
      "name": "EIP712DomainChanged",
      "type": "event"
    },
    {
      "anonymous": false,
      "inputs": [
        {
          "indexed": true,
          "internalType": "address",
          "name": "from",
          "type": "address"
        },
        {
          "indexed": true,
          "internalType": "address",
          "name": "to",
          "type": "address"
        },
        {
          "indexed": false,
          "internalType": "uint256",
          "name": "amount",
          "type": "uint256"
        }
      ],
      "name": "Transfer",
      "type": "event"
    },
    {
      "anonymous": false,
      "inputs": [
        {
          "indexed": true,
          "internalType": "address",
          "name": "from",
          "type": "address"
        },
        {
          "indexed": true,
          "internalType": "address",
          "name": "to",
          "type": "address"
        }
      ],
      "name": "TransferEncrypted",
      "type": "event"
    },
    {
      "inputs": [],
      "name": "DOMAIN_SEPARATOR",
      "outputs": [
        {
          "internalType": "bytes32",
          "name": "result",
          "type": "bytes32"
        }
      ],
      "stateMutability": "view",
      "type": "function"
    },
    {
      "inputs": [
        {
          "internalType": "address",
          "name": "owner",
          "type": "address"
        },
        {
          "internalType": "address",
          "name": "spender",
          "type": "address"
        }
      ],
      "name": "allowance",
      "outputs": [
        {
          "internalType": "uint256",
          "name": "result",
          "type": "uint256"
        }
      ],
      "stateMutability": "view",
      "type": "function"
    },
    {
      "inputs": [
        {
          "internalType": "address",
          "name": "spender",
          "type": "address"
        },
        {
          "components": [
            {
              "internalType": "bytes32",
              "name": "publicKey",
              "type": "bytes32"
            },
            {
              "internalType": "bytes",
              "name": "signature",
              "type": "bytes"
            }
          ],
          "internalType": "struct Permission",
          "name": "permission",
          "type": "tuple"
        }
      ],
      "name": "allowanceEncrypted",
      "outputs": [
        {
          "internalType": "string",
          "name": "",
          "type": "string"
        }
      ],
      "stateMutability": "view",
      "type": "function"
    },
    {
      "inputs": [
        {
          "internalType": "address",
          "name": "spender",
          "type": "address"
        },
        {
          "internalType": "uint256",
          "name": "amount",
          "type": "uint256"
        }
      ],
      "name": "approve",
      "outputs": [
        {
          "internalType": "bool",
          "name": "",
          "type": "bool"
        }
      ],
      "stateMutability": "nonpayable",
      "type": "function"
    },
    {
      "inputs": [
        {
          "internalType": "address",
          "name": "spender",
          "type": "address"
        },
        {
          "components": [
            {
              "internalType": "bytes",
              "name": "data",
              "type": "bytes"
            }
          ],
          "internalType": "struct inEuint32",
          "name": "value",
          "type": "tuple"
        }
      ],
      "name": "approveEncrypted",
      "outputs": [
        {
          "internalType": "bool",
          "name": "",
          "type": "bool"
        }
      ],
      "stateMutability": "nonpayable",
      "type": "function"
    },
    {
      "inputs": [
        {
          "internalType": "address",
          "name": "owner",
          "type": "address"
        }
      ],
      "name": "balanceOf",
      "outputs": [
        {
          "internalType": "uint256",
          "name": "result",
          "type": "uint256"
        }
      ],
      "stateMutability": "view",
      "type": "function"
    },
    {
      "inputs": [
        {
          "internalType": "address",
          "name": "account",
          "type": "address"
        },
        {
          "components": [
            {
              "internalType": "bytes32",
              "name": "publicKey",
              "type": "bytes32"
            },
            {
              "internalType": "bytes",
              "name": "signature",
              "type": "bytes"
            }
          ],
          "internalType": "struct Permission",
          "name": "auth",
          "type": "tuple"
        }
      ],
      "name": "balanceOfEncrypted",
      "outputs": [
        {
          "internalType": "string",
          "name": "",
          "type": "string"
        }
      ],
      "stateMutability": "view",
      "type": "function"
    },
    {
      "inputs": [],
      "name": "decimals",
      "outputs": [
        {
          "internalType": "uint8",
          "name": "",
          "type": "uint8"
        }
      ],
      "stateMutability": "pure",
      "type": "function"
    },
    {
      "inputs": [],
      "name": "eip712Domain",
      "outputs": [
        {
          "internalType": "bytes1",
          "name": "fields",
          "type": "bytes1"
        },
        {
          "internalType": "string",
          "name": "name",
          "type": "string"
        },
        {
          "internalType": "string",
          "name": "version",
          "type": "string"
        },
        {
          "internalType": "uint256",
          "name": "chainId",
          "type": "uint256"
        },
        {
          "internalType": "address",
          "name": "verifyingContract",
          "type": "address"
        },
        {
          "internalType": "bytes32",
          "name": "salt",
          "type": "bytes32"
        },
        {
          "internalType": "uint256[]",
          "name": "extensions",
          "type": "uint256[]"
        }
      ],
      "stateMutability": "view",
      "type": "function"
    },
    {
      "inputs": [],
      "name": "name",
      "outputs": [
        {
          "internalType": "string",
          "name": "",
          "type": "string"
        }
      ],
      "stateMutability": "view",
      "type": "function"
    },
    {
      "inputs": [
        {
          "internalType": "address",
          "name": "owner",
          "type": "address"
        }
      ],
      "name": "nonces",
      "outputs": [
        {
          "internalType": "uint256",
          "name": "result",
          "type": "uint256"
        }
      ],
      "stateMutability": "view",
      "type": "function"
    },
    {
      "inputs": [
        {
          "internalType": "address",
          "name": "owner",
          "type": "address"
        },
        {
          "internalType": "address",
          "name": "spender",
          "type": "address"
        },
        {
          "internalType": "uint256",
          "name": "value",
          "type": "uint256"
        },
        {
          "internalType": "uint256",
          "name": "deadline",
          "type": "uint256"
        },
        {
          "internalType": "uint8",
          "name": "v",
          "type": "uint8"
        },
        {
          "internalType": "bytes32",
          "name": "r",
          "type": "bytes32"
        },
        {
          "internalType": "bytes32",
          "name": "s",
          "type": "bytes32"
        }
      ],
      "name": "permit",
      "outputs": [],
      "stateMutability": "nonpayable",
      "type": "function"
    },
    {
      "inputs": [],
      "name": "symbol",
      "outputs": [
        {
          "internalType": "string",
          "name": "",
          "type": "string"
        }
      ],
      "stateMutability": "view",
      "type": "function"
    },
    {
      "inputs": [],
      "name": "totalSupply",
      "outputs": [
        {
          "internalType": "uint256",
          "name": "result",
          "type": "uint256"
        }
      ],
      "stateMutability": "view",
      "type": "function"
    },
    {
      "inputs": [
        {
          "internalType": "address",
          "name": "to",
          "type": "address"
        },
        {
          "internalType": "uint256",
          "name": "amount",
          "type": "uint256"
        }
      ],
      "name": "transfer",
      "outputs": [
        {
          "internalType": "bool",
          "name": "",
          "type": "bool"
        }
      ],
      "stateMutability": "nonpayable",
      "type": "function"
    },
    {
      "inputs": [
        {
          "internalType": "address",
          "name": "to",
          "type": "address"
        },
        {
          "components": [
            {
              "internalType": "bytes",
              "name": "data",
              "type": "bytes"
            }
          ],
          "internalType": "struct inEuint32",
          "name": "encryptedAmount",
          "type": "tuple"
        }
      ],
      "name": "transferEncrypted",
      "outputs": [
        {
          "internalType": "euint32",
          "name": "",
          "type": "uint256"
        }
      ],
      "stateMutability": "nonpayable",
      "type": "function"
    },
    {
      "inputs": [
        {
          "internalType": "address",
          "name": "to",
          "type": "address"
        },
        {
          "internalType": "euint32",
          "name": "amount",
          "type": "uint256"
        }
      ],
      "name": "transferEncrypted",
      "outputs": [
        {
          "internalType": "euint32",
          "name": "",
          "type": "uint256"
        }
      ],
      "stateMutability": "nonpayable",
      "type": "function"
    },
    {
      "inputs": [
        {
          "internalType": "address",
          "name": "from",
          "type": "address"
        },
        {
          "internalType": "address",
          "name": "to",
          "type": "address"
        },
        {
          "internalType": "uint256",
          "name": "amount",
          "type": "uint256"
        }
      ],
      "name": "transferFrom",
      "outputs": [
        {
          "internalType": "bool",
          "name": "",
          "type": "bool"
        }
      ],
      "stateMutability": "nonpayable",
      "type": "function"
    },
    {
      "inputs": [
        {
          "internalType": "address",
          "name": "from",
          "type": "address"
        },
        {
          "internalType": "address",
          "name": "to",
          "type": "address"
        },
        {
          "components": [
            {
              "internalType": "bytes",
              "name": "data",
              "type": "bytes"
            }
          ],
          "internalType": "struct inEuint32",
          "name": "value",
          "type": "tuple"
        }
      ],
      "name": "transferFromEncrypted",
      "outputs": [
        {
          "internalType": "euint32",
          "name": "",
          "type": "uint256"
        }
      ],
      "stateMutability": "nonpayable",
      "type": "function"
    },
    {
      "inputs": [
        {
          "internalType": "address",
          "name": "from",
          "type": "address"
        },
        {
          "internalType": "address",
          "name": "to",
          "type": "address"
        },
        {
          "internalType": "euint32",
          "name": "value",
          "type": "uint256"
        }
      ],
      "name": "transferFromEncrypted",
      "outputs": [
        {
          "internalType": "euint32",
          "name": "",
          "type": "uint256"
        }
      ],
      "stateMutability": "nonpayable",
      "type": "function"
    },
    {
      "inputs": [
        {
          "internalType": "uint32",
          "name": "amount",
          "type": "uint32"
        }
      ],
      "name": "unwrap",
      "outputs": [],
      "stateMutability": "nonpayable",
      "type": "function"
    },
    {
      "inputs": [
        {
          "internalType": "uint32",
          "name": "amount",
          "type": "uint32"
        }
      ],
      "name": "wrap",
      "outputs": [],
      "stateMutability": "nonpayable",
      "type": "function"
    }
  ],
  "transactionHash": "0x0a7cf6192b1f054295f3162e13f66d162c6ded9d5a9b7dd5be6de0f3c4753f84",
  "args": [
    {
      "data": {
        "0": 16,
        "1": 8,
        "2": 0,
        "3": 0,
        "4": 0,
        "5": 0,
        "6": 0,
        "7": 0,
        "8": 192,
        "9": 8,
        "10": 214,
        "11": 212,
        "12": 97,
        "13": 208,
        "14": 89,
        "15": 22,
        "16": 74,
        "17": 35,
        "18": 58,
        "19": 24,
        "20": 72,
        "21": 19,
        "22": 61,
        "23": 250,
        "24": 86,
        "25": 123,
        "26": 106,
        "27": 21,
        "28": 28,
        "29": 170,
        "30": 233,
        "31": 12,
        "32": 112,
        "33": 238,
        "34": 254,
        "35": 85,
        "36": 14,
        "37": 240,
        "38": 145,
        "39": 189,
        "40": 244,
        "41": 202,
        "42": 185,
        "43": 194,
        "44": 163,
        "45": 117,
        "46": 102,
        "47": 84,
        "48": 194,
        "49": 161,
        "50": 31,
        "51": 41,
        "52": 176,
        "53": 192,
        "54": 254,
        "55": 73,
        "56": 223,
        "57": 150,
        "58": 16,
        "59": 229,
        "60": 174,
        "61": 211,
        "62": 126,
        "63": 101,
        "64": 171,
        "65": 230,
        "66": 238,
        "67": 170,
        "68": 58,
        "69": 163,
        "70": 152,
        "71": 24,
        "72": 127,
        "73": 177,
        "74": 124,
        "75": 82,
        "76": 10,
        "77": 98,
        "78": 105,
        "79": 31,
        "80": 30,
        "81": 234,
        "82": 161,
        "83": 165,
        "84": 12,
        "85": 177,
        "86": 83,
        "87": 17,
        "88": 207,
        "89": 234,
        "90": 48,
        "91": 187,
        "92": 82,
        "93": 50,
        "94": 113,
        "95": 98,
        "96": 175,
        "97": 148,
        "98": 114,
        "99": 234,
        "100": 20,
        "101": 165,
        "102": 67,
        "103": 134,
        "104": 99,
        "105": 133,
        "106": 25,
        "107": 200,
        "108": 82,
        "109": 128,
        "110": 235,
        "111": 131,
        "112": 115,
        "113": 103,
        "114": 169,
        "115": 26,
        "116": 104,
        "117": 65,
        "118": 13,
        "119": 168,
        "120": 225,
        "121": 250,
        "122": 52,
        "123": 151,
        "124": 124,
        "125": 99,
        "126": 22,
        "127": 102,
        "128": 246,
        "129": 32,
        "130": 2,
        "131": 137,
        "132": 134,
        "133": 11,
        "134": 147,
        "135": 70,
        "136": 31,
        "137": 134,
        "138": 126,
        "139": 72,
        "140": 251,
        "141": 112,
        "142": 36,
        "143": 149,
        "144": 35,
        "145": 237,
        "146": 128,
        "147": 208,
        "148": 94,
        "149": 50,
        "150": 120,
        "151": 59,
        "152": 97,
        "153": 23,
        "154": 224,
        "155": 161,
        "156": 170,
        "157": 194,
        "158": 96,
        "159": 103,
        "160": 206,
        "161": 95,
        "162": 115,
        "163": 113,
        "164": 243,
        "165": 206,
        "166": 33,
        "167": 74,
        "168": 113,
        "169": 235,
        "170": 236,
        "171": 138,
        "172": 235,
        "173": 8,
        "174": 31,
        "175": 126,
        "176": 227,
        "177": 199,
        "178": 167,
        "179": 92,
        "180": 169,
        "181": 124,
        "182": 218,
        "183": 220,
        "184": 152,
        "185": 222,
        "186": 243,
        "187": 151,
        "188": 146,
        "189": 64,
        "190": 205,
        "191": 30,
        "192": 10,
        "193": 180,
        "194": 118,
        "195": 15,
        "196": 91,
        "197": 60,
        "198": 140,
        "199": 69,
        "200": 249,
        "201": 5,
        "202": 72,
        "203": 96,
        "204": 140,
        "205": 188,
        "206": 249,
        "207": 138,
        "208": 137,
        "209": 215,
        "210": 121,
        "211": 200,
        "212": 183,
        "213": 9,
        "214": 169,
        "215": 112,
        "216": 245,
        "217": 158,
        "218": 196,
        "219": 23,
        "220": 224,
        "221": 195,
        "222": 211,
        "223": 122,
        "224": 80,
        "225": 7,
        "226": 73,
        "227": 219,
        "228": 209,
        "229": 56,
        "230": 190,
        "231": 61,
        "232": 166,
        "233": 85,
        "234": 72,
        "235": 144,
        "236": 202,
        "237": 102,
        "238": 75,
        "239": 85,
        "240": 252,
        "241": 231,
        "242": 19,
        "243": 59,
        "244": 238,
        "245": 124,
        "246": 235,
        "247": 167,
        "248": 98,
        "249": 146,
        "250": 64,
        "251": 184,
        "252": 94,
        "253": 126,
        "254": 117,
        "255": 254,
        "256": 223,
        "257": 132,
        "258": 130,
        "259": 203,
        "260": 84,
        "261": 128,
        "262": 148,
        "263": 73,
        "264": 74,
        "265": 122,
        "266": 226,
        "267": 0,
        "268": 113,
        "269": 176,
        "270": 247,
        "271": 191,
        "272": 156,
        "273": 93,
        "274": 98,
        "275": 22,
        "276": 219,
        "277": 114,
        "278": 62,
        "279": 47,
        "280": 148,
        "281": 237,
        "282": 242,
        "283": 96,
        "284": 215,
        "285": 188,
        "286": 215,
        "287": 182,
        "288": 127,
        "289": 40,
        "290": 197,
        "291": 161,
        "292": 191,
        "293": 219,
        "294": 173,
        "295": 183,
        "296": 246,
        "297": 162,
        "298": 191,
        "299": 109,
        "300": 232,
        "301": 43,
        "302": 11,
        "303": 89,
        "304": 23,
        "305": 130,
        "306": 169,
        "307": 12,
        "308": 18,
        "309": 114,
        "310": 217,
        "311": 77,
        "312": 115,
        "313": 153,
        "314": 235,
        "315": 222,
        "316": 190,
        "317": 116,
        "318": 0,
        "319": 55,
        "320": 197,
        "321": 104,
        "322": 119,
        "323": 101,
        "324": 176,
        "325": 196,
        "326": 200,
        "327": 38,
        "328": 202,
        "329": 159,
        "330": 0,
        "331": 115,
        "332": 48,
        "333": 222,
        "334": 136,
        "335": 39,
        "336": 172,
        "337": 159,
        "338": 56,
        "339": 77,
        "340": 198,
        "341": 231,
        "342": 169,
        "343": 250,
        "344": 26,
        "345": 208,
        "346": 232,
        "347": 223,
        "348": 225,
        "349": 132,
        "350": 69,
        "351": 25,
        "352": 189,
        "353": 60,
        "354": 73,
        "355": 44,
        "356": 238,
        "357": 175,
        "358": 204,
        "359": 160,
        "360": 83,
        "361": 241,
        "362": 227,
        "363": 243,
        "364": 73,
        "365": 121,
        "366": 45,
        "367": 151,
        "368": 232,
        "369": 130,
        "370": 19,
        "371": 161,
        "372": 74,
        "373": 45,
        "374": 171,
        "375": 75,
        "376": 246,
        "377": 254,
        "378": 150,
        "379": 225,
        "380": 94,
        "381": 152,
        "382": 66,
        "383": 237,
        "384": 30,
        "385": 111,
        "386": 129,
        "387": 250,
        "388": 85,
        "389": 214,
        "390": 234,
        "391": 205,
        "392": 205,
        "393": 182,
        "394": 18,
        "395": 181,
        "396": 67,
        "397": 66,
        "398": 121,
        "399": 253,
        "400": 208,
        "401": 4,
        "402": 82,
        "403": 26,
        "404": 116,
        "405": 251,
        "406": 75,
        "407": 214,
        "408": 195,
        "409": 42,
        "410": 187,
        "411": 107,
        "412": 189,
        "413": 203,
        "414": 175,
        "415": 183,
        "416": 209,
        "417": 10,
        "418": 135,
        "419": 31,
        "420": 93,
        "421": 155,
        "422": 181,
        "423": 23,
        "424": 28,
        "425": 142,
        "426": 0,
        "427": 248,
        "428": 42,
        "429": 189,
        "430": 4,
        "431": 93,
        "432": 17,
        "433": 212,
        "434": 161,
        "435": 186,
        "436": 177,
        "437": 227,
        "438": 73,
        "439": 174,
        "440": 222,
        "441": 146,
        "442": 91,
        "443": 18,
        "444": 213,
        "445": 179,
        "446": 206,
        "447": 136,
        "448": 120,
        "449": 238,
        "450": 64,
        "451": 61,
        "452": 82,
        "453": 174,
        "454": 51,
        "455": 230,
        "456": 123,
        "457": 253,
        "458": 195,
        "459": 130,
        "460": 164,
        "461": 126,
        "462": 204,
        "463": 196,
        "464": 210,
        "465": 13,
        "466": 36,
        "467": 169,
        "468": 235,
        "469": 174,
        "470": 11,
        "471": 252,
        "472": 246,
        "473": 208,
        "474": 3,
        "475": 218,
        "476": 139,
        "477": 248,
        "478": 101,
        "479": 77,
        "480": 241,
        "481": 42,
        "482": 218,
        "483": 144,
        "484": 98,
        "485": 125,
        "486": 216,
        "487": 154,
        "488": 209,
        "489": 224,
        "490": 188,
        "491": 151,
        "492": 182,
        "493": 207,
        "494": 30,
        "495": 79,
        "496": 33,
        "497": 57,
        "498": 172,
        "499": 43,
        "500": 0,
        "501": 108,
        "502": 194,
        "503": 69,
        "504": 229,
        "505": 154,
        "506": 238,
        "507": 240,
        "508": 127,
        "509": 111,
        "510": 246,
        "511": 5,
        "512": 98,
        "513": 41,
        "514": 151,
        "515": 49,
        "516": 27,
        "517": 133,
        "518": 102,
        "519": 231,
        "520": 231,
        "521": 165,
        "522": 20,
        "523": 8,
        "524": 68,
        "525": 75,
        "526": 154,
        "527": 6,
        "528": 62,
        "529": 80,
        "530": 150,
        "531": 151,
        "532": 122,
        "533": 199,
        "534": 128,
        "535": 37,
        "536": 35,
        "537": 254,
        "538": 238,
        "539": 210,
        "540": 136,
        "541": 176,
        "542": 235,
        "543": 209,
        "544": 156,
        "545": 210,
        "546": 210,
        "547": 67,
        "548": 219,
        "549": 142,
        "550": 141,
        "551": 184,
        "552": 235,
        "553": 18,
        "554": 34,
        "555": 127,
        "556": 246,
        "557": 88,
        "558": 30,
        "559": 211,
        "560": 40,
        "561": 129,
        "562": 77,
        "563": 191,
        "564": 116,
        "565": 165,
        "566": 220,
        "567": 103,
        "568": 101,
        "569": 151,
        "570": 136,
        "571": 121,
        "572": 79,
        "573": 104,
        "574": 94,
        "575": 4,
        "576": 231,
        "577": 183,
        "578": 136,
        "579": 4,
        "580": 88,
        "581": 205,
        "582": 87,
        "583": 104,
        "584": 115,
        "585": 181,
        "586": 101,
        "587": 41,
        "588": 128,
        "589": 162,
        "590": 201,
        "591": 130,
        "592": 12,
        "593": 178,
        "594": 79,
        "595": 65,
        "596": 89,
        "597": 150,
        "598": 66,
        "599": 120,
        "600": 170,
        "601": 148,
        "602": 0,
        "603": 67,
        "604": 125,
        "605": 206,
        "606": 81,
        "607": 11,
        "608": 154,
        "609": 77,
        "610": 173,
        "611": 30,
        "612": 187,
        "613": 145,
        "614": 116,
        "615": 162,
        "616": 84,
        "617": 81,
        "618": 124,
        "619": 255,
        "620": 102,
        "621": 77,
        "622": 185,
        "623": 84,
        "624": 101,
        "625": 242,
        "626": 177,
        "627": 5,
        "628": 123,
        "629": 211,
        "630": 205,
        "631": 78,
        "632": 95,
        "633": 182,
        "634": 129,
        "635": 115,
        "636": 18,
        "637": 103,
        "638": 15,
        "639": 120,
        "640": 94,
        "641": 53,
        "642": 21,
        "643": 138,
        "644": 139,
        "645": 63,
        "646": 214,
        "647": 18,
        "648": 223,
        "649": 143,
        "650": 49,
        "651": 204,
        "652": 241,
        "653": 185,
        "654": 121,
        "655": 52,
        "656": 40,
        "657": 206,
        "658": 151,
        "659": 86,
        "660": 137,
        "661": 209,
        "662": 212,
        "663": 5,
        "664": 221,
        "665": 224,
        "666": 107,
        "667": 38,
        "668": 127,
        "669": 157,
        "670": 78,
        "671": 173,
        "672": 8,
        "673": 191,
        "674": 144,
        "675": 223,
        "676": 132,
        "677": 246,
        "678": 39,
        "679": 215,
        "680": 78,
        "681": 71,
        "682": 241,
        "683": 255,
        "684": 195,
        "685": 231,
        "686": 154,
        "687": 9,
        "688": 148,
        "689": 65,
        "690": 11,
        "691": 10,
        "692": 11,
        "693": 202,
        "694": 244,
        "695": 161,
        "696": 142,
        "697": 116,
        "698": 56,
        "699": 206,
        "700": 120,
        "701": 145,
        "702": 114,
        "703": 164,
        "704": 215,
        "705": 45,
        "706": 161,
        "707": 229,
        "708": 65,
        "709": 169,
        "710": 71,
        "711": 143,
        "712": 104,
        "713": 190,
        "714": 253,
        "715": 1,
        "716": 157,
        "717": 243,
        "718": 197,
        "719": 222,
        "720": 74,
        "721": 155,
        "722": 184,
        "723": 43,
        "724": 140,
        "725": 157,
        "726": 25,
        "727": 155,
        "728": 86,
        "729": 142,
        "730": 240,
        "731": 128,
        "732": 59,
        "733": 165,
        "734": 58,
        "735": 177,
        "736": 35,
        "737": 59,
        "738": 232,
        "739": 90,
        "740": 57,
        "741": 110,
        "742": 182,
        "743": 47,
        "744": 55,
        "745": 250,
        "746": 202,
        "747": 172,
        "748": 145,
        "749": 240,
        "750": 113,
        "751": 104,
        "752": 26,
        "753": 49,
        "754": 92,
        "755": 32,
        "756": 118,
        "757": 101,
        "758": 184,
        "759": 234,
        "760": 91,
        "761": 91,
        "762": 156,
        "763": 189,
        "764": 142,
        "765": 52,
        "766": 203,
        "767": 126,
        "768": 239,
        "769": 11,
        "770": 157,
        "771": 107,
        "772": 200,
        "773": 55,
        "774": 176,
        "775": 110,
        "776": 103,
        "777": 220,
        "778": 239,
        "779": 177,
        "780": 229,
        "781": 239,
        "782": 233,
        "783": 3,
        "784": 96,
        "785": 24,
        "786": 94,
        "787": 184,
        "788": 122,
        "789": 253,
        "790": 83,
        "791": 170,
        "792": 13,
        "793": 89,
        "794": 102,
        "795": 114,
        "796": 100,
        "797": 249,
        "798": 126,
        "799": 250,
        "800": 162,
        "801": 133,
        "802": 19,
        "803": 92,
        "804": 188,
        "805": 160,
        "806": 67,
        "807": 182,
        "808": 182,
        "809": 140,
        "810": 130,
        "811": 138,
        "812": 146,
        "813": 64,
        "814": 43,
        "815": 3,
        "816": 24,
        "817": 252,
        "818": 8,
        "819": 179,
        "820": 240,
        "821": 174,
        "822": 57,
        "823": 60,
        "824": 20,
        "825": 56,
        "826": 0,
        "827": 6,
        "828": 151,
        "829": 152,
        "830": 50,
        "831": 158,
        "832": 248,
        "833": 116,
        "834": 17,
        "835": 20,
        "836": 209,
        "837": 143,
        "838": 214,
        "839": 191,
        "840": 201,
        "841": 23,
        "842": 55,
        "843": 242,
        "844": 98,
        "845": 133,
        "846": 207,
        "847": 249,
        "848": 184,
        "849": 30,
        "850": 208,
        "851": 70,
        "852": 85,
        "853": 52,
        "854": 218,
        "855": 135,
        "856": 112,
        "857": 170,
        "858": 159,
        "859": 48,
        "860": 124,
        "861": 103,
        "862": 205,
        "863": 19,
        "864": 210,
        "865": 18,
        "866": 254,
        "867": 231,
        "868": 58,
        "869": 120,
        "870": 71,
        "871": 51,
        "872": 120,
        "873": 187,
        "874": 92,
        "875": 37,
        "876": 89,
        "877": 110,
        "878": 138,
        "879": 0,
        "880": 222,
        "881": 119,
        "882": 133,
        "883": 151,
        "884": 248,
        "885": 11,
        "886": 233,
        "887": 51,
        "888": 106,
        "889": 101,
        "890": 158,
        "891": 202,
        "892": 187,
        "893": 118,
        "894": 186,
        "895": 172,
        "896": 185,
        "897": 80,
        "898": 145,
        "899": 145,
        "900": 205,
        "901": 21,
        "902": 0,
        "903": 12,
        "904": 123,
        "905": 239,
        "906": 173,
        "907": 31,
        "908": 233,
        "909": 105,
        "910": 117,
        "911": 172,
        "912": 35,
        "913": 187,
        "914": 65,
        "915": 42,
        "916": 187,
        "917": 166,
        "918": 103,
        "919": 107,
        "920": 70,
        "921": 229,
        "922": 242,
        "923": 194,
        "924": 228,
        "925": 172,
        "926": 156,
        "927": 27,
        "928": 90,
        "929": 28,
        "930": 225,
        "931": 82,
        "932": 127,
        "933": 49,
        "934": 70,
        "935": 197,
        "936": 12,
        "937": 213,
        "938": 144,
        "939": 2,
        "940": 11,
        "941": 187,
        "942": 181,
        "943": 194,
        "944": 71,
        "945": 2,
        "946": 22,
        "947": 94,
        "948": 172,
        "949": 139,
        "950": 97,
        "951": 152,
        "952": 230,
        "953": 218,
        "954": 88,
        "955": 91,
        "956": 53,
        "957": 2,
        "958": 98,
        "959": 108,
        "960": 212,
        "961": 26,
        "962": 229,
        "963": 119,
        "964": 109,
        "965": 115,
        "966": 201,
        "967": 143,
        "968": 77,
        "969": 60,
        "970": 111,
        "971": 190,
        "972": 130,
        "973": 93,
        "974": 135,
        "975": 79,
        "976": 228,
        "977": 98,
        "978": 66,
        "979": 245,
        "980": 91,
        "981": 34,
        "982": 236,
        "983": 239,
        "984": 228,
        "985": 180,
        "986": 47,
        "987": 193,
        "988": 157,
        "989": 31,
        "990": 224,
        "991": 18,
        "992": 60,
        "993": 232,
        "994": 26,
        "995": 251,
        "996": 53,
        "997": 255,
        "998": 95,
        "999": 75,
        "1000": 168,
        "1001": 90,
        "1002": 3,
        "1003": 10,
        "1004": 128,
        "1005": 246,
        "1006": 136,
        "1007": 240,
        "1008": 154,
        "1009": 118,
        "1010": 146,
        "1011": 7,
        "1012": 191,
        "1013": 136,
        "1014": 209,
        "1015": 214,
        "1016": 159,
        "1017": 245,
        "1018": 238,
        "1019": 173,
        "1020": 169,
        "1021": 25,
        "1022": 127,
        "1023": 243,
        "1024": 65,
        "1025": 173,
        "1026": 190,
        "1027": 103,
        "1028": 30,
        "1029": 110,
        "1030": 151,
        "1031": 14,
        "1032": 87,
        "1033": 226,
        "1034": 234,
        "1035": 110,
        "1036": 209,
        "1037": 123,
        "1038": 241,
        "1039": 3,
        "1040": 137,
        "1041": 239,
        "1042": 36,
        "1043": 57,
        "1044": 159,
        "1045": 247,
        "1046": 172,
        "1047": 35,
        "1048": 34,
        "1049": 218,
        "1050": 174,
        "1051": 178,
        "1052": 84,
        "1053": 148,
        "1054": 81,
        "1055": 87,
        "1056": 173,
        "1057": 240,
        "1058": 141,
        "1059": 111,
        "1060": 166,
        "1061": 101,
        "1062": 223,
        "1063": 69,
        "1064": 22,
        "1065": 204,
        "1066": 215,
        "1067": 120,
        "1068": 53,
        "1069": 233,
        "1070": 157,
        "1071": 186,
        "1072": 242,
        "1073": 130,
        "1074": 219,
        "1075": 192,
        "1076": 231,
        "1077": 68,
        "1078": 139,
        "1079": 156,
        "1080": 79,
        "1081": 80,
        "1082": 91,
        "1083": 101,
        "1084": 4,
        "1085": 140,
        "1086": 145,
        "1087": 16,
        "1088": 137,
        "1089": 84,
        "1090": 95,
        "1091": 21,
        "1092": 138,
        "1093": 12,
        "1094": 234,
        "1095": 153,
        "1096": 189,
        "1097": 75,
        "1098": 30,
        "1099": 206,
        "1100": 194,
        "1101": 136,
        "1102": 152,
        "1103": 156,
        "1104": 22,
        "1105": 85,
        "1106": 1,
        "1107": 118,
        "1108": 201,
        "1109": 238,
        "1110": 27,
        "1111": 140,
        "1112": 204,
        "1113": 204,
        "1114": 243,
        "1115": 110,
        "1116": 242,
        "1117": 186,
        "1118": 44,
        "1119": 147,
        "1120": 9,
        "1121": 117,
        "1122": 224,
        "1123": 142,
        "1124": 4,
        "1125": 98,
        "1126": 127,
        "1127": 246,
        "1128": 170,
        "1129": 159,
        "1130": 146,
        "1131": 7,
        "1132": 125,
        "1133": 38,
        "1134": 234,
        "1135": 125,
        "1136": 200,
        "1137": 8,
        "1138": 26,
        "1139": 148,
        "1140": 56,
        "1141": 55,
        "1142": 220,
        "1143": 154,
        "1144": 147,
        "1145": 87,
        "1146": 127,
        "1147": 41,
        "1148": 128,
        "1149": 174,
        "1150": 49,
        "1151": 211,
        "1152": 79,
        "1153": 105,
        "1154": 140,
        "1155": 70,
        "1156": 209,
        "1157": 97,
        "1158": 151,
        "1159": 254,
        "1160": 232,
        "1161": 8,
        "1162": 169,
        "1163": 42,
        "1164": 116,
        "1165": 153,
        "1166": 211,
        "1167": 200,
        "1168": 104,
        "1169": 27,
        "1170": 164,
        "1171": 222,
        "1172": 226,
        "1173": 69,
        "1174": 72,
        "1175": 246,
        "1176": 109,
        "1177": 172,
        "1178": 23,
        "1179": 200,
        "1180": 117,
        "1181": 235,
        "1182": 146,
        "1183": 141,
        "1184": 222,
        "1185": 111,
        "1186": 95,
        "1187": 251,
        "1188": 176,
        "1189": 134,
        "1190": 7,
        "1191": 223,
        "1192": 65,
        "1193": 29,
        "1194": 200,
        "1195": 174,
        "1196": 26,
        "1197": 131,
        "1198": 122,
        "1199": 65,
        "1200": 117,
        "1201": 87,
        "1202": 31,
        "1203": 153,
        "1204": 45,
        "1205": 216,
        "1206": 172,
        "1207": 95,
        "1208": 56,
        "1209": 217,
        "1210": 49,
        "1211": 201,
        "1212": 211,
        "1213": 222,
        "1214": 159,
        "1215": 43,
        "1216": 72,
        "1217": 252,
        "1218": 118,
        "1219": 192,
        "1220": 95,
        "1221": 68,
        "1222": 45,
        "1223": 137,
        "1224": 24,
        "1225": 134,
        "1226": 157,
        "1227": 159,
        "1228": 11,
        "1229": 91,
        "1230": 18,
        "1231": 102,
        "1232": 121,
        "1233": 13,
        "1234": 184,
        "1235": 97,
        "1236": 149,
        "1237": 207,
        "1238": 104,
        "1239": 223,
        "1240": 168,
        "1241": 1,
        "1242": 227,
        "1243": 185,
        "1244": 75,
        "1245": 138,
        "1246": 81,
        "1247": 52,
        "1248": 220,
        "1249": 66,
        "1250": 194,
        "1251": 73,
        "1252": 206,
        "1253": 110,
        "1254": 135,
        "1255": 75,
        "1256": 181,
        "1257": 46,
        "1258": 149,
        "1259": 97,
        "1260": 141,
        "1261": 155,
        "1262": 34,
        "1263": 23,
        "1264": 232,
        "1265": 38,
        "1266": 49,
        "1267": 70,
        "1268": 196,
        "1269": 7,
        "1270": 244,
        "1271": 157,
        "1272": 112,
        "1273": 32,
        "1274": 165,
        "1275": 78,
        "1276": 222,
        "1277": 204,
        "1278": 75,
        "1279": 214,
        "1280": 124,
        "1281": 178,
        "1282": 188,
        "1283": 154,
        "1284": 216,
        "1285": 62,
        "1286": 220,
        "1287": 139,
        "1288": 217,
        "1289": 94,
        "1290": 154,
        "1291": 37,
        "1292": 119,
        "1293": 227,
        "1294": 218,
        "1295": 66,
        "1296": 132,
        "1297": 211,
        "1298": 253,
        "1299": 229,
        "1300": 183,
        "1301": 193,
        "1302": 127,
        "1303": 45,
        "1304": 9,
        "1305": 249,
        "1306": 225,
        "1307": 49,
        "1308": 108,
        "1309": 237,
        "1310": 33,
        "1311": 86,
        "1312": 7,
        "1313": 111,
        "1314": 239,
        "1315": 192,
        "1316": 227,
        "1317": 82,
        "1318": 35,
        "1319": 61,
        "1320": 56,
        "1321": 254,
        "1322": 181,
        "1323": 199,
        "1324": 29,
        "1325": 140,
        "1326": 93,
        "1327": 47,
        "1328": 176,
        "1329": 143,
        "1330": 69,
        "1331": 75,
        "1332": 225,
        "1333": 214,
        "1334": 34,
        "1335": 202,
        "1336": 70,
        "1337": 127,
        "1338": 84,
        "1339": 8,
        "1340": 201,
        "1341": 16,
        "1342": 109,
        "1343": 239,
        "1344": 245,
        "1345": 25,
        "1346": 51,
        "1347": 67,
        "1348": 84,
        "1349": 90,
        "1350": 190,
        "1351": 100,
        "1352": 44,
        "1353": 226,
        "1354": 149,
        "1355": 232,
        "1356": 152,
        "1357": 11,
        "1358": 50,
        "1359": 232,
        "1360": 111,
        "1361": 82,
        "1362": 171,
        "1363": 246,
        "1364": 111,
        "1365": 24,
        "1366": 45,
        "1367": 34,
        "1368": 79,
        "1369": 220,
        "1370": 121,
        "1371": 199,
        "1372": 30,
        "1373": 249,
        "1374": 43,
        "1375": 31,
        "1376": 191,
        "1377": 17,
        "1378": 26,
        "1379": 227,
        "1380": 166,
        "1381": 93,
        "1382": 252,
        "1383": 1,
        "1384": 187,
        "1385": 70,
        "1386": 174,
        "1387": 199,
        "1388": 174,
        "1389": 90,
        "1390": 121,
        "1391": 215,
        "1392": 14,
        "1393": 172,
        "1394": 106,
        "1395": 253,
        "1396": 178,
        "1397": 241,
        "1398": 241,
        "1399": 230,
        "1400": 226,
        "1401": 236,
        "1402": 113,
        "1403": 105,
        "1404": 151,
        "1405": 8,
        "1406": 118,
        "1407": 133,
        "1408": 199,
        "1409": 9,
        "1410": 101,
        "1411": 65,
        "1412": 137,
        "1413": 54,
        "1414": 214,
        "1415": 163,
        "1416": 143,
        "1417": 29,
        "1418": 226,
        "1419": 64,
        "1420": 225,
        "1421": 183,
        "1422": 187,
        "1423": 114,
        "1424": 209,
        "1425": 44,
        "1426": 151,
        "1427": 190,
        "1428": 161,
        "1429": 154,
        "1430": 103,
        "1431": 202,
        "1432": 246,
        "1433": 15,
        "1434": 5,
        "1435": 197,
        "1436": 41,
        "1437": 93,
        "1438": 39,
        "1439": 140,
        "1440": 113,
        "1441": 174,
        "1442": 146,
        "1443": 143,
        "1444": 60,
        "1445": 30,
        "1446": 62,
        "1447": 251,
        "1448": 210,
        "1449": 120,
        "1450": 240,
        "1451": 146,
        "1452": 157,
        "1453": 203,
        "1454": 226,
        "1455": 137,
        "1456": 214,
        "1457": 74,
        "1458": 6,
        "1459": 137,
        "1460": 84,
        "1461": 56,
        "1462": 85,
        "1463": 76,
        "1464": 168,
        "1465": 93,
        "1466": 71,
        "1467": 186,
        "1468": 169,
        "1469": 40,
        "1470": 51,
        "1471": 71,
        "1472": 222,
        "1473": 202,
        "1474": 140,
        "1475": 119,
        "1476": 239,
        "1477": 131,
        "1478": 185,
        "1479": 128,
        "1480": 239,
        "1481": 156,
        "1482": 210,
        "1483": 106,
        "1484": 255,
        "1485": 125,
        "1486": 53,
        "1487": 52,
        "1488": 253,
        "1489": 102,
        "1490": 16,
        "1491": 117,
        "1492": 104,
        "1493": 120,
        "1494": 95,
        "1495": 30,
        "1496": 61,
        "1497": 14,
        "1498": 157,
        "1499": 215,
        "1500": 222,
        "1501": 83,
        "1502": 99,
        "1503": 161,
        "1504": 218,
        "1505": 221,
        "1506": 216,
        "1507": 139,
        "1508": 95,
        "1509": 22,
        "1510": 183,
        "1511": 134,
        "1512": 155,
        "1513": 0,
        "1514": 214,
        "1515": 148,
        "1516": 122,
        "1517": 26,
        "1518": 244,
        "1519": 102,
        "1520": 104,
        "1521": 9,
        "1522": 14,
        "1523": 201,
        "1524": 24,
        "1525": 151,
        "1526": 32,
        "1527": 227,
        "1528": 187,
        "1529": 152,
        "1530": 251,
        "1531": 43,
        "1532": 106,
        "1533": 66,
        "1534": 152,
        "1535": 131,
        "1536": 246,
        "1537": 53,
        "1538": 184,
        "1539": 73,
        "1540": 217,
        "1541": 179,
        "1542": 56,
        "1543": 222,
        "1544": 84,
        "1545": 169,
        "1546": 133,
        "1547": 55,
        "1548": 195,
        "1549": 174,
        "1550": 238,
        "1551": 217,
        "1552": 151,
        "1553": 251,
        "1554": 96,
        "1555": 134,
        "1556": 228,
        "1557": 61,
        "1558": 232,
        "1559": 101,
        "1560": 136,
        "1561": 185,
        "1562": 114,
        "1563": 75,
        "1564": 24,
        "1565": 193,
        "1566": 183,
        "1567": 24,
        "1568": 180,
        "1569": 182,
        "1570": 57,
        "1571": 100,
        "1572": 235,
        "1573": 10,
        "1574": 11,
        "1575": 15,
        "1576": 198,
        "1577": 244,
        "1578": 144,
        "1579": 20,
        "1580": 219,
        "1581": 175,
        "1582": 148,
        "1583": 136,
        "1584": 191,
        "1585": 131,
        "1586": 137,
        "1587": 230,
        "1588": 130,
        "1589": 6,
        "1590": 248,
        "1591": 190,
        "1592": 94,
        "1593": 247,
        "1594": 175,
        "1595": 173,
        "1596": 151,
        "1597": 125,
        "1598": 101,
        "1599": 235,
        "1600": 71,
        "1601": 98,
        "1602": 67,
        "1603": 138,
        "1604": 123,
        "1605": 18,
        "1606": 248,
        "1607": 52,
        "1608": 216,
        "1609": 188,
        "1610": 226,
        "1611": 158,
        "1612": 238,
        "1613": 240,
        "1614": 207,
        "1615": 142,
        "1616": 206,
        "1617": 228,
        "1618": 125,
        "1619": 249,
        "1620": 244,
        "1621": 39,
        "1622": 68,
        "1623": 82,
        "1624": 76,
        "1625": 90,
        "1626": 7,
        "1627": 22,
        "1628": 19,
        "1629": 47,
        "1630": 110,
        "1631": 169,
        "1632": 45,
        "1633": 146,
        "1634": 154,
        "1635": 95,
        "1636": 38,
        "1637": 104,
        "1638": 55,
        "1639": 194,
        "1640": 106,
        "1641": 37,
        "1642": 5,
        "1643": 86,
        "1644": 174,
        "1645": 51,
        "1646": 204,
        "1647": 72,
        "1648": 134,
        "1649": 107,
        "1650": 158,
        "1651": 131,
        "1652": 173,
        "1653": 64,
        "1654": 212,
        "1655": 35,
        "1656": 152,
        "1657": 190,
        "1658": 38,
        "1659": 196,
        "1660": 51,
        "1661": 58,
        "1662": 245,
        "1663": 113,
        "1664": 147,
        "1665": 22,
        "1666": 93,
        "1667": 140,
        "1668": 227,
        "1669": 194,
        "1670": 174,
        "1671": 132,
        "1672": 237,
        "1673": 112,
        "1674": 94,
        "1675": 192,
        "1676": 64,
        "1677": 235,
        "1678": 45,
        "1679": 118,
        "1680": 193,
        "1681": 205,
        "1682": 61,
        "1683": 3,
        "1684": 193,
        "1685": 124,
        "1686": 27,
        "1687": 162,
        "1688": 21,
        "1689": 68,
        "1690": 212,
        "1691": 198,
        "1692": 133,
        "1693": 45,
        "1694": 242,
        "1695": 238,
        "1696": 243,
        "1697": 160,
        "1698": 202,
        "1699": 111,
        "1700": 184,
        "1701": 220,
        "1702": 221,
        "1703": 206,
        "1704": 50,
        "1705": 21,
        "1706": 95,
        "1707": 153,
        "1708": 232,
        "1709": 86,
        "1710": 8,
        "1711": 116,
        "1712": 233,
        "1713": 122,
        "1714": 58,
        "1715": 224,
        "1716": 192,
        "1717": 109,
        "1718": 98,
        "1719": 107,
        "1720": 93,
        "1721": 52,
        "1722": 69,
        "1723": 67,
        "1724": 9,
        "1725": 199,
        "1726": 179,
        "1727": 198,
        "1728": 61,
        "1729": 156,
        "1730": 246,
        "1731": 249,
        "1732": 222,
        "1733": 72,
        "1734": 54,
        "1735": 231,
        "1736": 144,
        "1737": 211,
        "1738": 246,
        "1739": 21,
        "1740": 98,
        "1741": 44,
        "1742": 48,
        "1743": 62,
        "1744": 80,
        "1745": 202,
        "1746": 161,
        "1747": 204,
        "1748": 97,
        "1749": 150,
        "1750": 5,
        "1751": 66,
        "1752": 190,
        "1753": 40,
        "1754": 80,
        "1755": 161,
        "1756": 169,
        "1757": 105,
        "1758": 4,
        "1759": 239,
        "1760": 63,
        "1761": 30,
        "1762": 60,
        "1763": 65,
        "1764": 137,
        "1765": 101,
        "1766": 57,
        "1767": 33,
        "1768": 7,
        "1769": 136,
        "1770": 241,
        "1771": 140,
        "1772": 84,
        "1773": 9,
        "1774": 139,
        "1775": 246,
        "1776": 133,
        "1777": 159,
        "1778": 91,
        "1779": 58,
        "1780": 222,
        "1781": 78,
        "1782": 56,
        "1783": 219,
        "1784": 87,
        "1785": 17,
        "1786": 22,
        "1787": 99,
        "1788": 2,
        "1789": 7,
        "1790": 193,
        "1791": 202,
        "1792": 209,
        "1793": 188,
        "1794": 18,
        "1795": 125,
        "1796": 229,
        "1797": 178,
        "1798": 137,
        "1799": 135,
        "1800": 84,
        "1801": 84,
        "1802": 105,
        "1803": 180,
        "1804": 18,
        "1805": 251,
        "1806": 27,
        "1807": 247,
        "1808": 63,
        "1809": 1,
        "1810": 225,
        "1811": 89,
        "1812": 68,
        "1813": 19,
        "1814": 189,
        "1815": 80,
        "1816": 103,
        "1817": 223,
        "1818": 44,
        "1819": 43,
        "1820": 239,
        "1821": 59,
        "1822": 242,
        "1823": 18,
        "1824": 67,
        "1825": 157,
        "1826": 237,
        "1827": 194,
        "1828": 127,
        "1829": 85,
        "1830": 92,
        "1831": 151,
        "1832": 5,
        "1833": 43,
        "1834": 57,
        "1835": 194,
        "1836": 66,
        "1837": 247,
        "1838": 111,
        "1839": 150,
        "1840": 212,
        "1841": 13,
        "1842": 154,
        "1843": 163,
        "1844": 43,
        "1845": 199,
        "1846": 4,
        "1847": 111,
        "1848": 38,
        "1849": 209,
        "1850": 77,
        "1851": 86,
        "1852": 127,
        "1853": 237,
        "1854": 159,
        "1855": 154,
        "1856": 141,
        "1857": 197,
        "1858": 134,
        "1859": 178,
        "1860": 254,
        "1861": 217,
        "1862": 155,
        "1863": 41,
        "1864": 26,
        "1865": 183,
        "1866": 180,
        "1867": 177,
        "1868": 187,
        "1869": 154,
        "1870": 136,
        "1871": 165,
        "1872": 20,
        "1873": 249,
        "1874": 154,
        "1875": 197,
        "1876": 70,
        "1877": 117,
        "1878": 238,
        "1879": 149,
        "1880": 164,
        "1881": 12,
        "1882": 204,
        "1883": 115,
        "1884": 79,
        "1885": 54,
        "1886": 16,
        "1887": 61,
        "1888": 178,
        "1889": 232,
        "1890": 69,
        "1891": 232,
        "1892": 133,
        "1893": 66,
        "1894": 106,
        "1895": 164,
        "1896": 254,
        "1897": 35,
        "1898": 233,
        "1899": 224,
        "1900": 8,
        "1901": 250,
        "1902": 106,
        "1903": 88,
        "1904": 182,
        "1905": 164,
        "1906": 208,
        "1907": 130,
        "1908": 227,
        "1909": 74,
        "1910": 252,
        "1911": 61,
        "1912": 223,
        "1913": 118,
        "1914": 181,
        "1915": 250,
        "1916": 198,
        "1917": 228,
        "1918": 59,
        "1919": 95,
        "1920": 241,
        "1921": 92,
        "1922": 181,
        "1923": 134,
        "1924": 97,
        "1925": 224,
        "1926": 217,
        "1927": 80,
        "1928": 158,
        "1929": 125,
        "1930": 159,
        "1931": 18,
        "1932": 163,
        "1933": 223,
        "1934": 230,
        "1935": 149,
        "1936": 120,
        "1937": 221,
        "1938": 92,
        "1939": 37,
        "1940": 49,
        "1941": 57,
        "1942": 243,
        "1943": 201,
        "1944": 193,
        "1945": 167,
        "1946": 241,
        "1947": 206,
        "1948": 180,
        "1949": 199,
        "1950": 113,
        "1951": 191,
        "1952": 133,
        "1953": 58,
        "1954": 171,
        "1955": 93,
        "1956": 70,
        "1957": 23,
        "1958": 98,
        "1959": 77,
        "1960": 18,
        "1961": 81,
        "1962": 154,
        "1963": 12,
        "1964": 119,
        "1965": 55,
        "1966": 21,
        "1967": 108,
        "1968": 21,
        "1969": 141,
        "1970": 241,
        "1971": 192,
        "1972": 72,
        "1973": 210,
        "1974": 212,
        "1975": 103,
        "1976": 91,
        "1977": 77,
        "1978": 97,
        "1979": 103,
        "1980": 11,
        "1981": 9,
        "1982": 162,
        "1983": 20,
        "1984": 153,
        "1985": 68,
        "1986": 176,
        "1987": 57,
        "1988": 223,
        "1989": 33,
        "1990": 198,
        "1991": 133,
        "1992": 232,
        "1993": 60,
        "1994": 35,
        "1995": 15,
        "1996": 140,
        "1997": 181,
        "1998": 130,
        "1999": 85,
        "2000": 21,
        "2001": 109,
        "2002": 168,
        "2003": 118,
        "2004": 224,
        "2005": 210,
        "2006": 52,
        "2007": 126,
        "2008": 85,
        "2009": 199,
        "2010": 78,
        "2011": 183,
        "2012": 6,
        "2013": 47,
        "2014": 142,
        "2015": 240,
        "2016": 32,
        "2017": 184,
        "2018": 128,
        "2019": 188,
        "2020": 36,
        "2021": 217,
        "2022": 246,
        "2023": 34,
        "2024": 166,
        "2025": 106,
        "2026": 126,
        "2027": 46,
        "2028": 135,
        "2029": 65,
        "2030": 32,
        "2031": 85,
        "2032": 80,
        "2033": 101,
        "2034": 175,
        "2035": 170,
        "2036": 16,
        "2037": 176,
        "2038": 135,
        "2039": 206,
        "2040": 206,
        "2041": 124,
        "2042": 214,
        "2043": 206,
        "2044": 18,
        "2045": 241,
        "2046": 228,
        "2047": 244,
        "2048": 165,
        "2049": 66,
        "2050": 56,
        "2051": 107,
        "2052": 51,
        "2053": 209,
        "2054": 100,
        "2055": 17,
        "2056": 42,
        "2057": 104,
        "2058": 50,
        "2059": 146,
        "2060": 134,
        "2061": 64,
        "2062": 249,
        "2063": 180,
        "2064": 181,
        "2065": 86,
        "2066": 43,
        "2067": 181,
        "2068": 130,
        "2069": 32,
        "2070": 162,
        "2071": 220,
        "2072": 61,
        "2073": 217,
        "2074": 80,
        "2075": 43,
        "2076": 13,
        "2077": 63,
        "2078": 64,
        "2079": 230,
        "2080": 93,
        "2081": 45,
        "2082": 169,
        "2083": 15,
        "2084": 57,
        "2085": 199,
        "2086": 220,
        "2087": 140,
        "2088": 9,
        "2089": 15,
        "2090": 99,
        "2091": 208,
        "2092": 159,
        "2093": 61,
        "2094": 111,
        "2095": 145,
        "2096": 88,
        "2097": 10,
        "2098": 166,
        "2099": 58,
        "2100": 4,
        "2101": 173,
        "2102": 251,
        "2103": 101,
        "2104": 129,
        "2105": 6,
        "2106": 211,
        "2107": 196,
        "2108": 204,
        "2109": 117,
        "2110": 219,
        "2111": 47,
        "2112": 32,
        "2113": 180,
        "2114": 219,
        "2115": 5,
        "2116": 21,
        "2117": 198,
        "2118": 254,
        "2119": 62,
        "2120": 109,
        "2121": 16,
        "2122": 254,
        "2123": 41,
        "2124": 113,
        "2125": 240,
        "2126": 162,
        "2127": 204,
        "2128": 140,
        "2129": 253,
        "2130": 73,
        "2131": 44,
        "2132": 71,
        "2133": 239,
        "2134": 105,
        "2135": 155,
        "2136": 16,
        "2137": 121,
        "2138": 45,
        "2139": 129,
        "2140": 153,
        "2141": 147,
        "2142": 223,
        "2143": 245,
        "2144": 123,
        "2145": 59,
        "2146": 92,
        "2147": 76,
        "2148": 4,
        "2149": 0,
        "2150": 217,
        "2151": 39,
        "2152": 164,
        "2153": 32,
        "2154": 201,
        "2155": 98,
        "2156": 207,
        "2157": 92,
        "2158": 42,
        "2159": 121,
        "2160": 226,
        "2161": 100,
        "2162": 216,
        "2163": 176,
        "2164": 162,
        "2165": 173,
        "2166": 130,
        "2167": 53,
        "2168": 52,
        "2169": 43,
        "2170": 234,
        "2171": 227,
        "2172": 212,
        "2173": 196,
        "2174": 102,
        "2175": 4,
        "2176": 205,
        "2177": 213,
        "2178": 222,
        "2179": 252,
        "2180": 126,
        "2181": 69,
        "2182": 141,
        "2183": 162,
        "2184": 156,
        "2185": 37,
        "2186": 117,
        "2187": 168,
        "2188": 159,
        "2189": 68,
        "2190": 175,
        "2191": 185,
        "2192": 144,
        "2193": 84,
        "2194": 180,
        "2195": 191,
        "2196": 31,
        "2197": 68,
        "2198": 236,
        "2199": 7,
        "2200": 16,
        "2201": 255,
        "2202": 172,
        "2203": 207,
        "2204": 70,
        "2205": 190,
        "2206": 77,
        "2207": 94,
        "2208": 212,
        "2209": 160,
        "2210": 98,
        "2211": 15,
        "2212": 76,
        "2213": 210,
        "2214": 124,
        "2215": 244,
        "2216": 127,
        "2217": 241,
        "2218": 162,
        "2219": 144,
        "2220": 171,
        "2221": 39,
        "2222": 65,
        "2223": 87,
        "2224": 28,
        "2225": 239,
        "2226": 159,
        "2227": 200,
        "2228": 183,
        "2229": 145,
        "2230": 72,
        "2231": 193,
        "2232": 197,
        "2233": 238,
        "2234": 48,
        "2235": 50,
        "2236": 107,
        "2237": 93,
        "2238": 178,
        "2239": 55,
        "2240": 11,
        "2241": 9,
        "2242": 121,
        "2243": 186,
        "2244": 145,
        "2245": 119,
        "2246": 175,
        "2247": 238,
        "2248": 134,
        "2249": 219,
        "2250": 209,
        "2251": 49,
        "2252": 93,
        "2253": 90,
        "2254": 151,
        "2255": 157,
        "2256": 50,
        "2257": 209,
        "2258": 23,
        "2259": 129,
        "2260": 15,
        "2261": 132,
        "2262": 13,
        "2263": 137,
        "2264": 28,
        "2265": 33,
        "2266": 152,
        "2267": 213,
        "2268": 29,
        "2269": 153,
        "2270": 148,
        "2271": 254,
        "2272": 223,
        "2273": 243,
        "2274": 107,
        "2275": 35,
        "2276": 97,
        "2277": 139,
        "2278": 168,
        "2279": 166,
        "2280": 147,
        "2281": 147,
        "2282": 86,
        "2283": 226,
        "2284": 24,
        "2285": 196,
        "2286": 189,
        "2287": 8,
        "2288": 219,
        "2289": 196,
        "2290": 170,
        "2291": 105,
        "2292": 212,
        "2293": 238,
        "2294": 100,
        "2295": 164,
        "2296": 207,
        "2297": 19,
        "2298": 54,
        "2299": 150,
        "2300": 163,
        "2301": 243,
        "2302": 149,
        "2303": 82,
        "2304": 203,
        "2305": 81,
        "2306": 217,
        "2307": 126,
        "2308": 42,
        "2309": 33,
        "2310": 108,
        "2311": 165,
        "2312": 213,
        "2313": 229,
        "2314": 186,
        "2315": 35,
        "2316": 76,
        "2317": 109,
        "2318": 0,
        "2319": 230,
        "2320": 249,
        "2321": 45,
        "2322": 63,
        "2323": 5,
        "2324": 54,
        "2325": 205,
        "2326": 60,
        "2327": 137,
        "2328": 200,
        "2329": 179,
        "2330": 1,
        "2331": 131,
        "2332": 109,
        "2333": 67,
        "2334": 43,
        "2335": 44,
        "2336": 60,
        "2337": 32,
        "2338": 150,
        "2339": 109,
        "2340": 189,
        "2341": 84,
        "2342": 214,
        "2343": 67,
        "2344": 30,
        "2345": 147,
        "2346": 252,
        "2347": 148,
        "2348": 71,
        "2349": 236,
        "2350": 29,
        "2351": 244,
        "2352": 252,
        "2353": 70,
        "2354": 174,
        "2355": 151,
        "2356": 57,
        "2357": 70,
        "2358": 235,
        "2359": 10,
        "2360": 58,
        "2361": 175,
        "2362": 166,
        "2363": 82,
        "2364": 124,
        "2365": 115,
        "2366": 154,
        "2367": 210,
        "2368": 142,
        "2369": 158,
        "2370": 52,
        "2371": 134,
        "2372": 20,
        "2373": 172,
        "2374": 242,
        "2375": 87,
        "2376": 102,
        "2377": 66,
        "2378": 12,
        "2379": 34,
        "2380": 198,
        "2381": 27,
        "2382": 152,
        "2383": 53,
        "2384": 115,
        "2385": 184,
        "2386": 122,
        "2387": 196,
        "2388": 170,
        "2389": 176,
        "2390": 68,
        "2391": 213,
        "2392": 32,
        "2393": 82,
        "2394": 220,
        "2395": 138,
        "2396": 42,
        "2397": 110,
        "2398": 23,
        "2399": 9,
        "2400": 22,
        "2401": 30,
        "2402": 245,
        "2403": 223,
        "2404": 238,
        "2405": 59,
        "2406": 80,
        "2407": 206,
        "2408": 140,
        "2409": 0,
        "2410": 175,
        "2411": 119,
        "2412": 21,
        "2413": 154,
        "2414": 11,
        "2415": 130,
        "2416": 123,
        "2417": 134,
        "2418": 255,
        "2419": 107,
        "2420": 53,
        "2421": 218,
        "2422": 77,
        "2423": 49,
        "2424": 123,
        "2425": 95,
        "2426": 242,
        "2427": 100,
        "2428": 183,
        "2429": 131,
        "2430": 29,
        "2431": 145,
        "2432": 161,
        "2433": 136,
        "2434": 26,
        "2435": 195,
        "2436": 213,
        "2437": 219,
        "2438": 0,
        "2439": 155,
        "2440": 217,
        "2441": 53,
        "2442": 235,
        "2443": 79,
        "2444": 52,
        "2445": 53,
        "2446": 52,
        "2447": 228,
        "2448": 239,
        "2449": 33,
        "2450": 11,
        "2451": 236,
        "2452": 138,
        "2453": 190,
        "2454": 147,
        "2455": 170,
        "2456": 222,
        "2457": 48,
        "2458": 93,
        "2459": 231,
        "2460": 32,
        "2461": 106,
        "2462": 137,
        "2463": 140,
        "2464": 25,
        "2465": 235,
        "2466": 14,
        "2467": 176,
        "2468": 131,
        "2469": 254,
        "2470": 16,
        "2471": 48,
        "2472": 12,
        "2473": 85,
        "2474": 82,
        "2475": 101,
        "2476": 132,
        "2477": 235,
        "2478": 244,
        "2479": 177,
        "2480": 31,
        "2481": 69,
        "2482": 11,
        "2483": 107,
        "2484": 130,
        "2485": 73,
        "2486": 116,
        "2487": 206,
        "2488": 31,
        "2489": 11,
        "2490": 92,
        "2491": 232,
        "2492": 22,
        "2493": 71,
        "2494": 25,
        "2495": 29,
        "2496": 56,
        "2497": 169,
        "2498": 180,
        "2499": 233,
        "2500": 125,
        "2501": 142,
        "2502": 23,
        "2503": 192,
        "2504": 236,
        "2505": 252,
        "2506": 238,
        "2507": 250,
        "2508": 162,
        "2509": 70,
        "2510": 251,
        "2511": 173,
        "2512": 185,
        "2513": 8,
        "2514": 41,
        "2515": 56,
        "2516": 59,
        "2517": 237,
        "2518": 119,
        "2519": 140,
        "2520": 149,
        "2521": 234,
        "2522": 28,
        "2523": 37,
        "2524": 123,
        "2525": 185,
        "2526": 22,
        "2527": 68,
        "2528": 219,
        "2529": 62,
        "2530": 0,
        "2531": 168,
        "2532": 109,
        "2533": 169,
        "2534": 94,
        "2535": 204,
        "2536": 187,
        "2537": 68,
        "2538": 72,
        "2539": 75,
        "2540": 198,
        "2541": 152,
        "2542": 231,
        "2543": 194,
        "2544": 207,
        "2545": 30,
        "2546": 225,
        "2547": 16,
        "2548": 127,
        "2549": 173,
        "2550": 77,
        "2551": 52,
        "2552": 65,
        "2553": 143,
        "2554": 210,
        "2555": 79,
        "2556": 104,
        "2557": 130,
        "2558": 188,
        "2559": 169,
        "2560": 44,
        "2561": 200,
        "2562": 226,
        "2563": 66,
        "2564": 159,
        "2565": 63,
        "2566": 162,
        "2567": 182,
        "2568": 71,
        "2569": 64,
        "2570": 196,
        "2571": 12,
        "2572": 214,
        "2573": 133,
        "2574": 176,
        "2575": 156,
        "2576": 186,
        "2577": 193,
        "2578": 202,
        "2579": 41,
        "2580": 176,
        "2581": 134,
        "2582": 185,
        "2583": 77,
        "2584": 152,
        "2585": 22,
        "2586": 1,
        "2587": 120,
        "2588": 138,
        "2589": 99,
        "2590": 115,
        "2591": 172,
        "2592": 28,
        "2593": 41,
        "2594": 117,
        "2595": 96,
        "2596": 159,
        "2597": 93,
        "2598": 39,
        "2599": 185,
        "2600": 211,
        "2601": 37,
        "2602": 196,
        "2603": 125,
        "2604": 93,
        "2605": 13,
        "2606": 52,
        "2607": 115,
        "2608": 212,
        "2609": 128,
        "2610": 223,
        "2611": 184,
        "2612": 216,
        "2613": 246,
        "2614": 76,
        "2615": 126,
        "2616": 117,
        "2617": 221,
        "2618": 202,
        "2619": 74,
        "2620": 204,
        "2621": 114,
        "2622": 35,
        "2623": 89,
        "2624": 165,
        "2625": 247,
        "2626": 98,
        "2627": 220,
        "2628": 101,
        "2629": 132,
        "2630": 80,
        "2631": 244,
        "2632": 242,
        "2633": 110,
        "2634": 217,
        "2635": 31,
        "2636": 2,
        "2637": 14,
        "2638": 45,
        "2639": 185,
        "2640": 211,
        "2641": 81,
        "2642": 84,
        "2643": 5,
        "2644": 147,
        "2645": 145,
        "2646": 5,
        "2647": 127,
        "2648": 243,
        "2649": 21,
        "2650": 9,
        "2651": 20,
        "2652": 218,
        "2653": 124,
        "2654": 13,
        "2655": 12,
        "2656": 140,
        "2657": 234,
        "2658": 3,
        "2659": 112,
        "2660": 47,
        "2661": 200,
        "2662": 8,
        "2663": 243,
        "2664": 184,
        "2665": 34,
        "2666": 159,
        "2667": 253,
        "2668": 211,
        "2669": 211,
        "2670": 146,
        "2671": 202,
        "2672": 221,
        "2673": 73,
        "2674": 178,
        "2675": 16,
        "2676": 65,
        "2677": 210,
        "2678": 137,
        "2679": 205,
        "2680": 246,
        "2681": 82,
        "2682": 195,
        "2683": 164,
        "2684": 46,
        "2685": 194,
        "2686": 174,
        "2687": 36,
        "2688": 58,
        "2689": 190,
        "2690": 226,
        "2691": 158,
        "2692": 191,
        "2693": 213,
        "2694": 75,
        "2695": 87,
        "2696": 201,
        "2697": 117,
        "2698": 67,
        "2699": 78,
        "2700": 126,
        "2701": 247,
        "2702": 161,
        "2703": 205,
        "2704": 64,
        "2705": 96,
        "2706": 86,
        "2707": 48,
        "2708": 96,
        "2709": 21,
        "2710": 203,
        "2711": 116,
        "2712": 196,
        "2713": 204,
        "2714": 87,
        "2715": 150,
        "2716": 44,
        "2717": 10,
        "2718": 188,
        "2719": 203,
        "2720": 33,
        "2721": 94,
        "2722": 160,
        "2723": 45,
        "2724": 60,
        "2725": 6,
        "2726": 142,
        "2727": 210,
        "2728": 81,
        "2729": 31,
        "2730": 129,
        "2731": 144,
        "2732": 38,
        "2733": 32,
        "2734": 83,
        "2735": 220,
        "2736": 230,
        "2737": 30,
        "2738": 78,
        "2739": 188,
        "2740": 67,
        "2741": 144,
        "2742": 10,
        "2743": 254,
        "2744": 40,
        "2745": 221,
        "2746": 194,
        "2747": 152,
        "2748": 0,
        "2749": 41,
        "2750": 160,
        "2751": 0,
        "2752": 97,
        "2753": 148,
        "2754": 58,
        "2755": 168,
        "2756": 206,
        "2757": 237,
        "2758": 130,
        "2759": 51,
        "2760": 193,
        "2761": 230,
        "2762": 28,
        "2763": 109,
        "2764": 207,
        "2765": 116,
        "2766": 46,
        "2767": 80,
        "2768": 134,
        "2769": 148,
        "2770": 15,
        "2771": 225,
        "2772": 28,
        "2773": 132,
        "2774": 196,
        "2775": 138,
        "2776": 167,
        "2777": 180,
        "2778": 210,
        "2779": 34,
        "2780": 102,
        "2781": 237,
        "2782": 192,
        "2783": 123,
        "2784": 86,
        "2785": 119,
        "2786": 147,
        "2787": 242,
        "2788": 210,
        "2789": 46,
        "2790": 130,
        "2791": 62,
        "2792": 59,
        "2793": 151,
        "2794": 142,
        "2795": 238,
        "2796": 208,
        "2797": 167,
        "2798": 56,
        "2799": 197,
        "2800": 83,
        "2801": 147,
        "2802": 152,
        "2803": 137,
        "2804": 169,
        "2805": 224,
        "2806": 117,
        "2807": 72,
        "2808": 172,
        "2809": 88,
        "2810": 181,
        "2811": 244,
        "2812": 150,
        "2813": 196,
        "2814": 53,
        "2815": 251,
        "2816": 208,
        "2817": 198,
        "2818": 140,
        "2819": 126,
        "2820": 182,
        "2821": 188,
        "2822": 171,
        "2823": 72,
        "2824": 166,
        "2825": 210,
        "2826": 218,
        "2827": 92,
        "2828": 29,
        "2829": 182,
        "2830": 31,
        "2831": 223,
        "2832": 23,
        "2833": 236,
        "2834": 66,
        "2835": 166,
        "2836": 201,
        "2837": 232,
        "2838": 105,
        "2839": 166,
        "2840": 66,
        "2841": 149,
        "2842": 133,
        "2843": 188,
        "2844": 110,
        "2845": 229,
        "2846": 186,
        "2847": 55,
        "2848": 197,
        "2849": 71,
        "2850": 58,
        "2851": 209,
        "2852": 190,
        "2853": 123,
        "2854": 143,
        "2855": 220,
        "2856": 90,
        "2857": 132,
        "2858": 40,
        "2859": 163,
        "2860": 220,
        "2861": 204,
        "2862": 230,
        "2863": 125,
        "2864": 99,
        "2865": 114,
        "2866": 23,
        "2867": 214,
        "2868": 185,
        "2869": 49,
        "2870": 234,
        "2871": 37,
        "2872": 209,
        "2873": 78,
        "2874": 61,
        "2875": 72,
        "2876": 152,
        "2877": 119,
        "2878": 194,
        "2879": 128,
        "2880": 245,
        "2881": 184,
        "2882": 232,
        "2883": 233,
        "2884": 22,
        "2885": 123,
        "2886": 105,
        "2887": 224,
        "2888": 138,
        "2889": 146,
        "2890": 40,
        "2891": 217,
        "2892": 191,
        "2893": 209,
        "2894": 168,
        "2895": 46,
        "2896": 194,
        "2897": 70,
        "2898": 95,
        "2899": 15,
        "2900": 29,
        "2901": 44,
        "2902": 115,
        "2903": 173,
        "2904": 181,
        "2905": 98,
        "2906": 120,
        "2907": 99,
        "2908": 142,
        "2909": 62,
        "2910": 26,
        "2911": 170,
        "2912": 82,
        "2913": 161,
        "2914": 147,
        "2915": 136,
        "2916": 96,
        "2917": 38,
        "2918": 126,
        "2919": 80,
        "2920": 29,
        "2921": 187,
        "2922": 120,
        "2923": 91,
        "2924": 50,
        "2925": 169,
        "2926": 154,
        "2927": 85,
        "2928": 194,
        "2929": 170,
        "2930": 27,
        "2931": 126,
        "2932": 115,
        "2933": 194,
        "2934": 108,
        "2935": 245,
        "2936": 157,
        "2937": 215,
        "2938": 91,
        "2939": 141,
        "2940": 196,
        "2941": 50,
        "2942": 249,
        "2943": 124,
        "2944": 207,
        "2945": 240,
        "2946": 95,
        "2947": 19,
        "2948": 84,
        "2949": 163,
        "2950": 88,
        "2951": 138,
        "2952": 50,
        "2953": 178,
        "2954": 131,
        "2955": 41,
        "2956": 28,
        "2957": 196,
        "2958": 230,
        "2959": 2,
        "2960": 255,
        "2961": 37,
        "2962": 163,
        "2963": 205,
        "2964": 200,
        "2965": 172,
        "2966": 40,
        "2967": 116,
        "2968": 117,
        "2969": 100,
        "2970": 94,
        "2971": 98,
        "2972": 206,
        "2973": 115,
        "2974": 8,
        "2975": 92,
        "2976": 82,
        "2977": 51,
        "2978": 57,
        "2979": 24,
        "2980": 121,
        "2981": 72,
        "2982": 0,
        "2983": 60,
        "2984": 12,
        "2985": 171,
        "2986": 90,
        "2987": 213,
        "2988": 164,
        "2989": 61,
        "2990": 128,
        "2991": 205,
        "2992": 145,
        "2993": 144,
        "2994": 140,
        "2995": 238,
        "2996": 19,
        "2997": 83,
        "2998": 237,
        "2999": 135,
        "3000": 154,
        "3001": 223,
        "3002": 199,
        "3003": 179,
        "3004": 176,
        "3005": 201,
        "3006": 21,
        "3007": 166,
        "3008": 190,
        "3009": 158,
        "3010": 178,
        "3011": 145,
        "3012": 29,
        "3013": 174,
        "3014": 35,
        "3015": 183,
        "3016": 124,
        "3017": 43,
        "3018": 15,
        "3019": 94,
        "3020": 40,
        "3021": 80,
        "3022": 17,
        "3023": 96,
        "3024": 227,
        "3025": 205,
        "3026": 185,
        "3027": 152,
        "3028": 67,
        "3029": 14,
        "3030": 185,
        "3031": 66,
        "3032": 75,
        "3033": 135,
        "3034": 61,
        "3035": 162,
        "3036": 117,
        "3037": 0,
        "3038": 10,
        "3039": 10,
        "3040": 161,
        "3041": 176,
        "3042": 112,
        "3043": 207,
        "3044": 136,
        "3045": 1,
        "3046": 233,
        "3047": 230,
        "3048": 62,
        "3049": 172,
        "3050": 83,
        "3051": 223,
        "3052": 78,
        "3053": 131,
        "3054": 196,
        "3055": 154,
        "3056": 139,
        "3057": 84,
        "3058": 194,
        "3059": 180,
        "3060": 102,
        "3061": 128,
        "3062": 177,
        "3063": 129,
        "3064": 3,
        "3065": 152,
        "3066": 231,
        "3067": 245,
        "3068": 9,
        "3069": 20,
        "3070": 114,
        "3071": 212,
        "3072": 160,
        "3073": 157,
        "3074": 175,
        "3075": 135,
        "3076": 27,
        "3077": 110,
        "3078": 140,
        "3079": 163,
        "3080": 39,
        "3081": 93,
        "3082": 30,
        "3083": 80,
        "3084": 210,
        "3085": 106,
        "3086": 184,
        "3087": 113,
        "3088": 3,
        "3089": 189,
        "3090": 96,
        "3091": 2,
        "3092": 209,
        "3093": 74,
        "3094": 253,
        "3095": 25,
        "3096": 122,
        "3097": 99,
        "3098": 44,
        "3099": 127,
        "3100": 210,
        "3101": 103,
        "3102": 244,
        "3103": 245,
        "3104": 204,
        "3105": 88,
        "3106": 152,
        "3107": 226,
        "3108": 135,
        "3109": 233,
        "3110": 55,
        "3111": 142,
        "3112": 95,
        "3113": 154,
        "3114": 229,
        "3115": 220,
        "3116": 236,
        "3117": 235,
        "3118": 29,
        "3119": 244,
        "3120": 146,
        "3121": 207,
        "3122": 129,
        "3123": 160,
        "3124": 59,
        "3125": 29,
        "3126": 65,
        "3127": 33,
        "3128": 248,
        "3129": 240,
        "3130": 84,
        "3131": 151,
        "3132": 33,
        "3133": 93,
        "3134": 129,
        "3135": 198,
        "3136": 24,
        "3137": 168,
        "3138": 119,
        "3139": 58,
        "3140": 238,
        "3141": 188,
        "3142": 22,
        "3143": 181,
        "3144": 255,
        "3145": 184,
        "3146": 207,
        "3147": 170,
        "3148": 242,
        "3149": 117,
        "3150": 231,
        "3151": 160,
        "3152": 89,
        "3153": 117,
        "3154": 16,
        "3155": 94,
        "3156": 84,
        "3157": 252,
        "3158": 120,
        "3159": 62,
        "3160": 19,
        "3161": 226,
        "3162": 8,
        "3163": 216,
        "3164": 75,
        "3165": 119,
        "3166": 210,
        "3167": 99,
        "3168": 59,
        "3169": 235,
        "3170": 244,
        "3171": 103,
        "3172": 69,
        "3173": 167,
        "3174": 50,
        "3175": 133,
        "3176": 142,
        "3177": 54,
        "3178": 123,
        "3179": 17,
        "3180": 196,
        "3181": 139,
        "3182": 114,
        "3183": 25,
        "3184": 158,
        "3185": 3,
        "3186": 228,
        "3187": 241,
        "3188": 84,
        "3189": 0,
        "3190": 173,
        "3191": 104,
        "3192": 4,
        "3193": 67,
        "3194": 59,
        "3195": 30,
        "3196": 41,
        "3197": 1,
        "3198": 200,
        "3199": 128,
        "3200": 98,
        "3201": 27,
        "3202": 221,
        "3203": 243,
        "3204": 148,
        "3205": 235,
        "3206": 6,
        "3207": 199,
        "3208": 150,
        "3209": 109,
        "3210": 241,
        "3211": 123,
        "3212": 108,
        "3213": 8,
        "3214": 143,
        "3215": 236,
        "3216": 200,
        "3217": 222,
        "3218": 33,
        "3219": 113,
        "3220": 30,
        "3221": 90,
        "3222": 103,
        "3223": 131,
        "3224": 78,
        "3225": 72,
        "3226": 93,
        "3227": 42,
        "3228": 64,
        "3229": 112,
        "3230": 225,
        "3231": 19,
        "3232": 51,
        "3233": 206,
        "3234": 63,
        "3235": 134,
        "3236": 157,
        "3237": 112,
        "3238": 123,
        "3239": 124,
        "3240": 80,
        "3241": 64,
        "3242": 201,
        "3243": 91,
        "3244": 174,
        "3245": 144,
        "3246": 129,
        "3247": 155,
        "3248": 174,
        "3249": 103,
        "3250": 47,
        "3251": 66,
        "3252": 204,
        "3253": 39,
        "3254": 113,
        "3255": 214,
        "3256": 36,
        "3257": 235,
        "3258": 244,
        "3259": 112,
        "3260": 129,
        "3261": 13,
        "3262": 1,
        "3263": 220,
        "3264": 243,
        "3265": 123,
        "3266": 159,
        "3267": 50,
        "3268": 163,
        "3269": 186,
        "3270": 240,
        "3271": 20,
        "3272": 117,
        "3273": 148,
        "3274": 80,
        "3275": 25,
        "3276": 163,
        "3277": 0,
        "3278": 78,
        "3279": 140,
        "3280": 91,
        "3281": 48,
        "3282": 33,
        "3283": 252,
        "3284": 110,
        "3285": 78,
        "3286": 217,
        "3287": 56,
        "3288": 176,
        "3289": 18,
        "3290": 77,
        "3291": 185,
        "3292": 242,
        "3293": 140,
        "3294": 123,
        "3295": 76,
        "3296": 225,
        "3297": 117,
        "3298": 243,
        "3299": 206,
        "3300": 97,
        "3301": 89,
        "3302": 22,
        "3303": 142,
        "3304": 241,
        "3305": 170,
        "3306": 63,
        "3307": 231,
        "3308": 216,
        "3309": 191,
        "3310": 244,
        "3311": 111,
        "3312": 154,
        "3313": 62,
        "3314": 181,
        "3315": 87,
        "3316": 235,
        "3317": 95,
        "3318": 67,
        "3319": 135,
        "3320": 198,
        "3321": 64,
        "3322": 10,
        "3323": 64,
        "3324": 51,
        "3325": 207,
        "3326": 176,
        "3327": 74,
        "3328": 157,
        "3329": 26,
        "3330": 157,
        "3331": 110,
        "3332": 162,
        "3333": 144,
        "3334": 80,
        "3335": 252,
        "3336": 227,
        "3337": 160,
        "3338": 221,
        "3339": 202,
        "3340": 204,
        "3341": 88,
        "3342": 145,
        "3343": 60,
        "3344": 19,
        "3345": 98,
        "3346": 114,
        "3347": 188,
        "3348": 67,
        "3349": 36,
        "3350": 222,
        "3351": 231,
        "3352": 127,
        "3353": 36,
        "3354": 96,
        "3355": 149,
        "3356": 240,
        "3357": 31,
        "3358": 69,
        "3359": 51,
        "3360": 215,
        "3361": 213,
        "3362": 171,
        "3363": 153,
        "3364": 245,
        "3365": 52,
        "3366": 172,
        "3367": 65,
        "3368": 162,
        "3369": 72,
        "3370": 29,
        "3371": 75,
        "3372": 156,
        "3373": 63,
        "3374": 14,
        "3375": 47,
        "3376": 200,
        "3377": 29,
        "3378": 120,
        "3379": 66,
        "3380": 141,
        "3381": 118,
        "3382": 206,
        "3383": 114,
        "3384": 1,
        "3385": 186,
        "3386": 124,
        "3387": 21,
        "3388": 90,
        "3389": 240,
        "3390": 147,
        "3391": 117,
        "3392": 14,
        "3393": 154,
        "3394": 188,
        "3395": 39,
        "3396": 184,
        "3397": 142,
        "3398": 159,
        "3399": 44,
        "3400": 44,
        "3401": 224,
        "3402": 224,
        "3403": 182,
        "3404": 237,
        "3405": 10,
        "3406": 100,
        "3407": 197,
        "3408": 80,
        "3409": 205,
        "3410": 201,
        "3411": 167,
        "3412": 104,
        "3413": 26,
        "3414": 181,
        "3415": 105,
        "3416": 151,
        "3417": 199,
        "3418": 70,
        "3419": 227,
        "3420": 82,
        "3421": 90,
        "3422": 67,
        "3423": 235,
        "3424": 244,
        "3425": 81,
        "3426": 208,
        "3427": 135,
        "3428": 56,
        "3429": 147,
        "3430": 175,
        "3431": 137,
        "3432": 222,
        "3433": 66,
        "3434": 80,
        "3435": 110,
        "3436": 125,
        "3437": 248,
        "3438": 148,
        "3439": 175,
        "3440": 158,
        "3441": 198,
        "3442": 173,
        "3443": 149,
        "3444": 34,
        "3445": 114,
        "3446": 183,
        "3447": 210,
        "3448": 249,
        "3449": 16,
        "3450": 96,
        "3451": 197,
        "3452": 67,
        "3453": 5,
        "3454": 140,
        "3455": 230,
        "3456": 109,
        "3457": 101,
        "3458": 213,
        "3459": 161,
        "3460": 199,
        "3461": 179,
        "3462": 110,
        "3463": 213,
        "3464": 245,
        "3465": 119,
        "3466": 110,
        "3467": 100,
        "3468": 73,
        "3469": 98,
        "3470": 213,
        "3471": 20,
        "3472": 128,
        "3473": 239,
        "3474": 105,
        "3475": 213,
        "3476": 36,
        "3477": 173,
        "3478": 195,
        "3479": 99,
        "3480": 13,
        "3481": 131,
        "3482": 213,
        "3483": 8,
        "3484": 254,
        "3485": 107,
        "3486": 248,
        "3487": 26,
        "3488": 181,
        "3489": 225,
        "3490": 241,
        "3491": 32,
        "3492": 176,
        "3493": 130,
        "3494": 185,
        "3495": 50,
        "3496": 230,
        "3497": 211,
        "3498": 0,
        "3499": 212,
        "3500": 98,
        "3501": 200,
        "3502": 3,
        "3503": 6,
        "3504": 245,
        "3505": 111,
        "3506": 179,
        "3507": 246,
        "3508": 100,
        "3509": 31,
        "3510": 176,
        "3511": 244,
        "3512": 227,
        "3513": 158,
        "3514": 253,
        "3515": 126,
        "3516": 81,
        "3517": 143,
        "3518": 60,
        "3519": 12,
        "3520": 2,
        "3521": 241,
        "3522": 196,
        "3523": 78,
        "3524": 9,
        "3525": 103,
        "3526": 234,
        "3527": 222,
        "3528": 14,
        "3529": 149,
        "3530": 83,
        "3531": 102,
        "3532": 153,
        "3533": 36,
        "3534": 54,
        "3535": 15,
        "3536": 115,
        "3537": 227,
        "3538": 74,
        "3539": 222,
        "3540": 79,
        "3541": 201,
        "3542": 196,
        "3543": 6,
        "3544": 21,
        "3545": 219,
        "3546": 126,
        "3547": 201,
        "3548": 19,
        "3549": 17,
        "3550": 57,
        "3551": 195,
        "3552": 196,
        "3553": 26,
        "3554": 3,
        "3555": 198,
        "3556": 44,
        "3557": 132,
        "3558": 22,
        "3559": 104,
        "3560": 65,
        "3561": 129,
        "3562": 17,
        "3563": 197,
        "3564": 79,
        "3565": 157,
        "3566": 45,
        "3567": 223,
        "3568": 195,
        "3569": 101,
        "3570": 37,
        "3571": 132,
        "3572": 49,
        "3573": 193,
        "3574": 147,
        "3575": 65,
        "3576": 249,
        "3577": 155,
        "3578": 226,
        "3579": 214,
        "3580": 17,
        "3581": 71,
        "3582": 40,
        "3583": 40,
        "3584": 239,
        "3585": 1,
        "3586": 38,
        "3587": 93,
        "3588": 149,
        "3589": 82,
        "3590": 72,
        "3591": 127,
        "3592": 254,
        "3593": 211,
        "3594": 207,
        "3595": 58,
        "3596": 172,
        "3597": 155,
        "3598": 219,
        "3599": 149,
        "3600": 164,
        "3601": 86,
        "3602": 184,
        "3603": 132,
        "3604": 137,
        "3605": 133,
        "3606": 216,
        "3607": 154,
        "3608": 74,
        "3609": 254,
        "3610": 235,
        "3611": 12,
        "3612": 89,
        "3613": 61,
        "3614": 239,
        "3615": 118,
        "3616": 93,
        "3617": 18,
        "3618": 194,
        "3619": 78,
        "3620": 165,
        "3621": 24,
        "3622": 183,
        "3623": 191,
        "3624": 25,
        "3625": 189,
        "3626": 148,
        "3627": 148,
        "3628": 219,
        "3629": 118,
        "3630": 41,
        "3631": 47,
        "3632": 182,
        "3633": 139,
        "3634": 78,
        "3635": 89,
        "3636": 167,
        "3637": 244,
        "3638": 198,
        "3639": 141,
        "3640": 60,
        "3641": 107,
        "3642": 184,
        "3643": 164,
        "3644": 24,
        "3645": 205,
        "3646": 181,
        "3647": 122,
        "3648": 225,
        "3649": 167,
        "3650": 28,
        "3651": 150,
        "3652": 195,
        "3653": 73,
        "3654": 212,
        "3655": 203,
        "3656": 118,
        "3657": 172,
        "3658": 71,
        "3659": 116,
        "3660": 199,
        "3661": 204,
        "3662": 157,
        "3663": 171,
        "3664": 132,
        "3665": 251,
        "3666": 166,
        "3667": 193,
        "3668": 185,
        "3669": 49,
        "3670": 246,
        "3671": 233,
        "3672": 35,
        "3673": 139,
        "3674": 117,
        "3675": 132,
        "3676": 71,
        "3677": 192,
        "3678": 115,
        "3679": 83,
        "3680": 109,
        "3681": 192,
        "3682": 237,
        "3683": 84,
        "3684": 142,
        "3685": 2,
        "3686": 62,
        "3687": 94,
        "3688": 85,
        "3689": 9,
        "3690": 130,
        "3691": 120,
        "3692": 29,
        "3693": 196,
        "3694": 153,
        "3695": 111,
        "3696": 223,
        "3697": 148,
        "3698": 231,
        "3699": 94,
        "3700": 36,
        "3701": 71,
        "3702": 172,
        "3703": 232,
        "3704": 64,
        "3705": 20,
        "3706": 201,
        "3707": 196,
        "3708": 85,
        "3709": 17,
        "3710": 163,
        "3711": 237,
        "3712": 161,
        "3713": 145,
        "3714": 79,
        "3715": 3,
        "3716": 147,
        "3717": 87,
        "3718": 225,
        "3719": 20,
        "3720": 156,
        "3721": 108,
        "3722": 124,
        "3723": 56,
        "3724": 130,
        "3725": 85,
        "3726": 87,
        "3727": 89,
        "3728": 180,
        "3729": 152,
        "3730": 246,
        "3731": 3,
        "3732": 86,
        "3733": 240,
        "3734": 43,
        "3735": 65,
        "3736": 12,
        "3737": 91,
        "3738": 99,
        "3739": 155,
        "3740": 148,
        "3741": 113,
        "3742": 113,
        "3743": 102,
        "3744": 92,
        "3745": 48,
        "3746": 169,
        "3747": 62,
        "3748": 189,
        "3749": 50,
        "3750": 84,
        "3751": 38,
        "3752": 152,
        "3753": 185,
        "3754": 139,
        "3755": 229,
        "3756": 188,
        "3757": 110,
        "3758": 243,
        "3759": 246,
        "3760": 17,
        "3761": 48,
        "3762": 95,
        "3763": 156,
        "3764": 182,
        "3765": 244,
        "3766": 209,
        "3767": 188,
        "3768": 144,
        "3769": 121,
        "3770": 232,
        "3771": 143,
        "3772": 107,
        "3773": 61,
        "3774": 234,
        "3775": 119,
        "3776": 120,
        "3777": 108,
        "3778": 31,
        "3779": 119,
        "3780": 98,
        "3781": 85,
        "3782": 34,
        "3783": 80,
        "3784": 165,
        "3785": 133,
        "3786": 7,
        "3787": 75,
        "3788": 203,
        "3789": 189,
        "3790": 8,
        "3791": 31,
        "3792": 225,
        "3793": 179,
        "3794": 218,
        "3795": 245,
        "3796": 28,
        "3797": 215,
        "3798": 83,
        "3799": 42,
        "3800": 246,
        "3801": 226,
        "3802": 205,
        "3803": 127,
        "3804": 185,
        "3805": 62,
        "3806": 76,
        "3807": 228,
        "3808": 120,
        "3809": 187,
        "3810": 185,
        "3811": 162,
        "3812": 210,
        "3813": 213,
        "3814": 197,
        "3815": 159,
        "3816": 65,
        "3817": 32,
        "3818": 250,
        "3819": 108,
        "3820": 29,
        "3821": 120,
        "3822": 52,
        "3823": 98,
        "3824": 35,
        "3825": 157,
        "3826": 255,
        "3827": 50,
        "3828": 190,
        "3829": 21,
        "3830": 219,
        "3831": 86,
        "3832": 127,
        "3833": 41,
        "3834": 214,
        "3835": 40,
        "3836": 118,
        "3837": 32,
        "3838": 120,
        "3839": 58,
        "3840": 243,
        "3841": 125,
        "3842": 145,
        "3843": 197,
        "3844": 105,
        "3845": 131,
        "3846": 196,
        "3847": 138,
        "3848": 47,
        "3849": 97,
        "3850": 196,
        "3851": 27,
        "3852": 120,
        "3853": 90,
        "3854": 177,
        "3855": 15,
        "3856": 69,
        "3857": 178,
        "3858": 61,
        "3859": 161,
        "3860": 75,
        "3861": 65,
        "3862": 59,
        "3863": 127,
        "3864": 120,
        "3865": 181,
        "3866": 82,
        "3867": 185,
        "3868": 231,
        "3869": 232,
        "3870": 138,
        "3871": 236,
        "3872": 203,
        "3873": 232,
        "3874": 98,
        "3875": 254,
        "3876": 119,
        "3877": 124,
        "3878": 109,
        "3879": 109,
        "3880": 124,
        "3881": 235,
        "3882": 138,
        "3883": 231,
        "3884": 250,
        "3885": 185,
        "3886": 186,
        "3887": 20,
        "3888": 201,
        "3889": 99,
        "3890": 68,
        "3891": 16,
        "3892": 146,
        "3893": 197,
        "3894": 134,
        "3895": 43,
        "3896": 82,
        "3897": 136,
        "3898": 82,
        "3899": 96,
        "3900": 198,
        "3901": 75,
        "3902": 229,
        "3903": 24,
        "3904": 54,
        "3905": 123,
        "3906": 148,
        "3907": 22,
        "3908": 7,
        "3909": 199,
        "3910": 165,
        "3911": 38,
        "3912": 112,
        "3913": 19,
        "3914": 138,
        "3915": 170,
        "3916": 56,
        "3917": 157,
        "3918": 105,
        "3919": 2,
        "3920": 239,
        "3921": 95,
        "3922": 239,
        "3923": 101,
        "3924": 147,
        "3925": 136,
        "3926": 235,
        "3927": 120,
        "3928": 76,
        "3929": 218,
        "3930": 245,
        "3931": 144,
        "3932": 225,
        "3933": 151,
        "3934": 88,
        "3935": 51,
        "3936": 213,
        "3937": 157,
        "3938": 146,
        "3939": 54,
        "3940": 57,
        "3941": 215,
        "3942": 50,
        "3943": 65,
        "3944": 65,
        "3945": 202,
        "3946": 111,
        "3947": 99,
        "3948": 118,
        "3949": 143,
        "3950": 23,
        "3951": 126,
        "3952": 52,
        "3953": 134,
        "3954": 36,
        "3955": 113,
        "3956": 143,
        "3957": 229,
        "3958": 1,
        "3959": 54,
        "3960": 115,
        "3961": 210,
        "3962": 57,
        "3963": 47,
        "3964": 159,
        "3965": 160,
        "3966": 246,
        "3967": 153,
        "3968": 108,
        "3969": 167,
        "3970": 230,
        "3971": 104,
        "3972": 121,
        "3973": 53,
        "3974": 151,
        "3975": 175,
        "3976": 65,
        "3977": 29,
        "3978": 63,
        "3979": 220,
        "3980": 172,
        "3981": 139,
        "3982": 96,
        "3983": 192,
        "3984": 10,
        "3985": 31,
        "3986": 89,
        "3987": 41,
        "3988": 25,
        "3989": 143,
        "3990": 191,
        "3991": 174,
        "3992": 242,
        "3993": 35,
        "3994": 78,
        "3995": 35,
        "3996": 201,
        "3997": 191,
        "3998": 63,
        "3999": 122,
        "4000": 188,
        "4001": 39,
        "4002": 13,
        "4003": 162,
        "4004": 176,
        "4005": 233,
        "4006": 102,
        "4007": 50,
        "4008": 213,
        "4009": 195,
        "4010": 113,
        "4011": 122,
        "4012": 236,
        "4013": 141,
        "4014": 122,
        "4015": 61,
        "4016": 6,
        "4017": 131,
        "4018": 131,
        "4019": 17,
        "4020": 198,
        "4021": 249,
        "4022": 45,
        "4023": 249,
        "4024": 9,
        "4025": 75,
        "4026": 39,
        "4027": 143,
        "4028": 10,
        "4029": 68,
        "4030": 186,
        "4031": 200,
        "4032": 213,
        "4033": 217,
        "4034": 72,
        "4035": 74,
        "4036": 159,
        "4037": 29,
        "4038": 132,
        "4039": 207,
        "4040": 78,
        "4041": 92,
        "4042": 131,
        "4043": 164,
        "4044": 60,
        "4045": 192,
        "4046": 85,
        "4047": 63,
        "4048": 124,
        "4049": 91,
        "4050": 128,
        "4051": 10,
        "4052": 31,
        "4053": 114,
        "4054": 117,
        "4055": 208,
        "4056": 31,
        "4057": 139,
        "4058": 147,
        "4059": 112,
        "4060": 253,
        "4061": 192,
        "4062": 241,
        "4063": 188,
        "4064": 133,
        "4065": 244,
        "4066": 74,
        "4067": 206,
        "4068": 226,
        "4069": 100,
        "4070": 209,
        "4071": 108,
        "4072": 50,
        "4073": 194,
        "4074": 204,
        "4075": 156,
        "4076": 224,
        "4077": 117,
        "4078": 144,
        "4079": 196,
        "4080": 36,
        "4081": 134,
        "4082": 140,
        "4083": 91,
        "4084": 111,
        "4085": 8,
        "4086": 12,
        "4087": 108,
        "4088": 250,
        "4089": 44,
        "4090": 227,
        "4091": 53,
        "4092": 46,
        "4093": 78,
        "4094": 88,
        "4095": 219,
        "4096": 92,
        "4097": 213,
        "4098": 170,
        "4099": 188,
        "4100": 212,
        "4101": 52,
        "4102": 81,
        "4103": 252,
        "4104": 78,
        "4105": 242,
        "4106": 156,
        "4107": 43,
        "4108": 103,
        "4109": 138,
        "4110": 1,
        "4111": 33,
        "4112": 55,
        "4113": 93,
        "4114": 51,
        "4115": 38,
        "4116": 243,
        "4117": 16,
        "4118": 28,
        "4119": 3,
        "4120": 99,
        "4121": 190,
        "4122": 246,
        "4123": 164,
        "4124": 46,
        "4125": 56,
        "4126": 231,
        "4127": 93,
        "4128": 32,
        "4129": 228,
        "4130": 235,
        "4131": 174,
        "4132": 215,
        "4133": 180,
        "4134": 75,
        "4135": 31,
        "4136": 121,
        "4137": 49,
        "4138": 195,
        "4139": 86,
        "4140": 181,
        "4141": 163,
        "4142": 57,
        "4143": 131,
        "4144": 178,
        "4145": 165,
        "4146": 147,
        "4147": 228,
        "4148": 36,
        "4149": 99,
        "4150": 203,
        "4151": 185,
        "4152": 197,
        "4153": 225,
        "4154": 249,
        "4155": 204,
        "4156": 43,
        "4157": 154,
        "4158": 183,
        "4159": 110,
        "4160": 20,
        "4161": 104,
        "4162": 98,
        "4163": 180,
        "4164": 16,
        "4165": 197,
        "4166": 152,
        "4167": 115,
        "4168": 77,
        "4169": 176,
        "4170": 90,
        "4171": 136,
        "4172": 236,
        "4173": 206,
        "4174": 75,
        "4175": 114,
        "4176": 9,
        "4177": 77,
        "4178": 52,
        "4179": 133,
        "4180": 101,
        "4181": 210,
        "4182": 36,
        "4183": 195,
        "4184": 85,
        "4185": 253,
        "4186": 183,
        "4187": 32,
        "4188": 137,
        "4189": 186,
        "4190": 251,
        "4191": 63,
        "4192": 1,
        "4193": 145,
        "4194": 153,
        "4195": 27,
        "4196": 61,
        "4197": 195,
        "4198": 158,
        "4199": 100,
        "4200": 60,
        "4201": 49,
        "4202": 195,
        "4203": 33,
        "4204": 87,
        "4205": 38,
        "4206": 181,
        "4207": 223,
        "4208": 66,
        "4209": 128,
        "4210": 95,
        "4211": 200,
        "4212": 82,
        "4213": 3,
        "4214": 210,
        "4215": 215,
        "4216": 164,
        "4217": 107,
        "4218": 234,
        "4219": 110,
        "4220": 4,
        "4221": 3,
        "4222": 209,
        "4223": 224,
        "4224": 20,
        "4225": 171,
        "4226": 84,
        "4227": 237,
        "4228": 1,
        "4229": 240,
        "4230": 231,
        "4231": 100,
        "4232": 56,
        "4233": 93,
        "4234": 6,
        "4235": 179,
        "4236": 50,
        "4237": 112,
        "4238": 33,
        "4239": 82,
        "4240": 3,
        "4241": 72,
        "4242": 112,
        "4243": 201,
        "4244": 7,
        "4245": 17,
        "4246": 209,
        "4247": 51,
        "4248": 183,
        "4249": 203,
        "4250": 20,
        "4251": 68,
        "4252": 143,
        "4253": 146,
        "4254": 3,
        "4255": 150,
        "4256": 128,
        "4257": 13,
        "4258": 100,
        "4259": 244,
        "4260": 19,
        "4261": 216,
        "4262": 29,
        "4263": 70,
        "4264": 86,
        "4265": 139,
        "4266": 174,
        "4267": 185,
        "4268": 235,
        "4269": 209,
        "4270": 86,
        "4271": 251,
        "4272": 21,
        "4273": 17,
        "4274": 220,
        "4275": 114,
        "4276": 30,
        "4277": 199,
        "4278": 231,
        "4279": 154,
        "4280": 110,
        "4281": 102,
        "4282": 190,
        "4283": 0,
        "4284": 134,
        "4285": 138,
        "4286": 118,
        "4287": 158,
        "4288": 188,
        "4289": 225,
        "4290": 192,
        "4291": 102,
        "4292": 63,
        "4293": 17,
        "4294": 123,
        "4295": 182,
        "4296": 18,
        "4297": 104,
        "4298": 219,
        "4299": 75,
        "4300": 53,
        "4301": 48,
        "4302": 141,
        "4303": 161,
        "4304": 231,
        "4305": 220,
        "4306": 89,
        "4307": 80,
        "4308": 54,
        "4309": 100,
        "4310": 32,
        "4311": 152,
        "4312": 64,
        "4313": 204,
        "4314": 100,
        "4315": 148,
        "4316": 227,
        "4317": 148,
        "4318": 216,
        "4319": 224,
        "4320": 63,
        "4321": 135,
        "4322": 237,
        "4323": 236,
        "4324": 64,
        "4325": 10,
        "4326": 20,
        "4327": 226,
        "4328": 213,
        "4329": 154,
        "4330": 152,
        "4331": 168,
        "4332": 56,
        "4333": 132,
        "4334": 100,
        "4335": 46,
        "4336": 31,
        "4337": 226,
        "4338": 243,
        "4339": 167,
        "4340": 111,
        "4341": 187,
        "4342": 205,
        "4343": 5,
        "4344": 143,
        "4345": 138,
        "4346": 158,
        "4347": 5,
        "4348": 93,
        "4349": 68,
        "4350": 82,
        "4351": 92,
        "4352": 153,
        "4353": 140,
        "4354": 151,
        "4355": 200,
        "4356": 24,
        "4357": 223,
        "4358": 36,
        "4359": 26,
        "4360": 120,
        "4361": 145,
        "4362": 188,
        "4363": 38,
        "4364": 248,
        "4365": 246,
        "4366": 79,
        "4367": 213,
        "4368": 54,
        "4369": 219,
        "4370": 68,
        "4371": 98,
        "4372": 136,
        "4373": 242,
        "4374": 190,
        "4375": 218,
        "4376": 2,
        "4377": 136,
        "4378": 86,
        "4379": 141,
        "4380": 87,
        "4381": 146,
        "4382": 120,
        "4383": 15,
        "4384": 185,
        "4385": 125,
        "4386": 116,
        "4387": 145,
        "4388": 254,
        "4389": 155,
        "4390": 166,
        "4391": 182,
        "4392": 209,
        "4393": 47,
        "4394": 40,
        "4395": 79,
        "4396": 178,
        "4397": 196,
        "4398": 201,
        "4399": 243,
        "4400": 21,
        "4401": 182,
        "4402": 9,
        "4403": 164,
        "4404": 250,
        "4405": 216,
        "4406": 255,
        "4407": 68,
        "4408": 69,
        "4409": 190,
        "4410": 210,
        "4411": 25,
        "4412": 217,
        "4413": 186,
        "4414": 171,
        "4415": 56,
        "4416": 161,
        "4417": 130,
        "4418": 23,
        "4419": 219,
        "4420": 193,
        "4421": 5,
        "4422": 254,
        "4423": 106,
        "4424": 212,
        "4425": 47,
        "4426": 37,
        "4427": 244,
        "4428": 129,
        "4429": 24,
        "4430": 201,
        "4431": 150,
        "4432": 5,
        "4433": 230,
        "4434": 174,
        "4435": 14,
        "4436": 217,
        "4437": 200,
        "4438": 138,
        "4439": 223,
        "4440": 107,
        "4441": 149,
        "4442": 56,
        "4443": 6,
        "4444": 189,
        "4445": 233,
        "4446": 119,
        "4447": 38,
        "4448": 13,
        "4449": 208,
        "4450": 132,
        "4451": 92,
        "4452": 5,
        "4453": 84,
        "4454": 187,
        "4455": 164,
        "4456": 156,
        "4457": 52,
        "4458": 199,
        "4459": 88,
        "4460": 144,
        "4461": 190,
        "4462": 117,
        "4463": 104,
        "4464": 200,
        "4465": 15,
        "4466": 82,
        "4467": 1,
        "4468": 208,
        "4469": 153,
        "4470": 87,
        "4471": 153,
        "4472": 44,
        "4473": 89,
        "4474": 245,
        "4475": 91,
        "4476": 120,
        "4477": 193,
        "4478": 228,
        "4479": 188,
        "4480": 39,
        "4481": 212,
        "4482": 246,
        "4483": 71,
        "4484": 2,
        "4485": 78,
        "4486": 208,
        "4487": 161,
        "4488": 150,
        "4489": 240,
        "4490": 240,
        "4491": 181,
        "4492": 177,
        "4493": 208,
        "4494": 231,
        "4495": 133,
        "4496": 189,
        "4497": 189,
        "4498": 21,
        "4499": 217,
        "4500": 155,
        "4501": 99,
        "4502": 218,
        "4503": 103,
        "4504": 54,
        "4505": 130,
        "4506": 51,
        "4507": 225,
        "4508": 75,
        "4509": 168,
        "4510": 232,
        "4511": 166,
        "4512": 177,
        "4513": 58,
        "4514": 180,
        "4515": 77,
        "4516": 105,
        "4517": 191,
        "4518": 46,
        "4519": 49,
        "4520": 147,
        "4521": 4,
        "4522": 167,
        "4523": 134,
        "4524": 255,
        "4525": 75,
        "4526": 91,
        "4527": 46,
        "4528": 66,
        "4529": 239,
        "4530": 83,
        "4531": 7,
        "4532": 254,
        "4533": 248,
        "4534": 220,
        "4535": 131,
        "4536": 124,
        "4537": 151,
        "4538": 185,
        "4539": 115,
        "4540": 153,
        "4541": 255,
        "4542": 112,
        "4543": 202,
        "4544": 205,
        "4545": 20,
        "4546": 198,
        "4547": 232,
        "4548": 108,
        "4549": 240,
        "4550": 153,
        "4551": 5,
        "4552": 237,
        "4553": 175,
        "4554": 102,
        "4555": 13,
        "4556": 62,
        "4557": 112,
        "4558": 114,
        "4559": 126,
        "4560": 180,
        "4561": 100,
        "4562": 99,
        "4563": 88,
        "4564": 79,
        "4565": 234,
        "4566": 61,
        "4567": 175,
        "4568": 40,
        "4569": 89,
        "4570": 226,
        "4571": 123,
        "4572": 233,
        "4573": 210,
        "4574": 190,
        "4575": 154,
        "4576": 141,
        "4577": 95,
        "4578": 214,
        "4579": 218,
        "4580": 213,
        "4581": 215,
        "4582": 192,
        "4583": 0,
        "4584": 75,
        "4585": 132,
        "4586": 172,
        "4587": 29,
        "4588": 98,
        "4589": 81,
        "4590": 193,
        "4591": 124,
        "4592": 163,
        "4593": 165,
        "4594": 0,
        "4595": 234,
        "4596": 120,
        "4597": 239,
        "4598": 143,
        "4599": 195,
        "4600": 216,
        "4601": 141,
        "4602": 200,
        "4603": 210,
        "4604": 240,
        "4605": 131,
        "4606": 89,
        "4607": 146,
        "4608": 112,
        "4609": 132,
        "4610": 163,
        "4611": 172,
        "4612": 185,
        "4613": 120,
        "4614": 136,
        "4615": 71,
        "4616": 117,
        "4617": 7,
        "4618": 20,
        "4619": 175,
        "4620": 88,
        "4621": 122,
        "4622": 251,
        "4623": 69,
        "4624": 57,
        "4625": 26,
        "4626": 190,
        "4627": 217,
        "4628": 194,
        "4629": 120,
        "4630": 130,
        "4631": 242,
        "4632": 8,
        "4633": 83,
        "4634": 223,
        "4635": 104,
        "4636": 2,
        "4637": 33,
        "4638": 253,
        "4639": 49,
        "4640": 148,
        "4641": 69,
        "4642": 217,
        "4643": 75,
        "4644": 248,
        "4645": 131,
        "4646": 95,
        "4647": 20,
        "4648": 0,
        "4649": 9,
        "4650": 141,
        "4651": 133,
        "4652": 196,
        "4653": 171,
        "4654": 222,
        "4655": 162,
        "4656": 24,
        "4657": 66,
        "4658": 203,
        "4659": 223,
        "4660": 2,
        "4661": 40,
        "4662": 72,
        "4663": 8,
        "4664": 63,
        "4665": 97,
        "4666": 23,
        "4667": 193,
        "4668": 163,
        "4669": 30,
        "4670": 141,
        "4671": 28,
        "4672": 254,
        "4673": 13,
        "4674": 92,
        "4675": 170,
        "4676": 245,
        "4677": 74,
        "4678": 110,
        "4679": 23,
        "4680": 184,
        "4681": 60,
        "4682": 32,
        "4683": 100,
        "4684": 174,
        "4685": 38,
        "4686": 150,
        "4687": 137,
        "4688": 232,
        "4689": 248,
        "4690": 238,
        "4691": 110,
        "4692": 163,
        "4693": 16,
        "4694": 195,
        "4695": 58,
        "4696": 134,
        "4697": 4,
        "4698": 167,
        "4699": 163,
        "4700": 86,
        "4701": 49,
        "4702": 233,
        "4703": 55,
        "4704": 66,
        "4705": 125,
        "4706": 249,
        "4707": 1,
        "4708": 172,
        "4709": 191,
        "4710": 176,
        "4711": 143,
        "4712": 61,
        "4713": 91,
        "4714": 175,
        "4715": 121,
        "4716": 255,
        "4717": 148,
        "4718": 147,
        "4719": 15,
        "4720": 34,
        "4721": 130,
        "4722": 205,
        "4723": 102,
        "4724": 175,
        "4725": 51,
        "4726": 127,
        "4727": 110,
        "4728": 169,
        "4729": 102,
        "4730": 243,
        "4731": 61,
        "4732": 1,
        "4733": 43,
        "4734": 190,
        "4735": 221,
        "4736": 34,
        "4737": 118,
        "4738": 120,
        "4739": 76,
        "4740": 89,
        "4741": 79,
        "4742": 66,
        "4743": 191,
        "4744": 177,
        "4745": 210,
        "4746": 106,
        "4747": 176,
        "4748": 110,
        "4749": 216,
        "4750": 188,
        "4751": 103,
        "4752": 133,
        "4753": 3,
        "4754": 30,
        "4755": 187,
        "4756": 180,
        "4757": 99,
        "4758": 32,
        "4759": 186,
        "4760": 183,
        "4761": 137,
        "4762": 145,
        "4763": 178,
        "4764": 204,
        "4765": 132,
        "4766": 146,
        "4767": 31,
        "4768": 211,
        "4769": 209,
        "4770": 204,
        "4771": 69,
        "4772": 167,
        "4773": 224,
        "4774": 165,
        "4775": 241,
        "4776": 225,
        "4777": 137,
        "4778": 210,
        "4779": 152,
        "4780": 159,
        "4781": 167,
        "4782": 75,
        "4783": 117,
        "4784": 60,
        "4785": 188,
        "4786": 138,
        "4787": 227,
        "4788": 34,
        "4789": 72,
        "4790": 39,
        "4791": 117,
        "4792": 116,
        "4793": 0,
        "4794": 18,
        "4795": 50,
        "4796": 30,
        "4797": 246,
        "4798": 114,
        "4799": 187,
        "4800": 225,
        "4801": 185,
        "4802": 158,
        "4803": 63,
        "4804": 232,
        "4805": 235,
        "4806": 47,
        "4807": 195,
        "4808": 176,
        "4809": 91,
        "4810": 67,
        "4811": 174,
        "4812": 120,
        "4813": 117,
        "4814": 116,
        "4815": 125,
        "4816": 114,
        "4817": 222,
        "4818": 87,
        "4819": 220,
        "4820": 27,
        "4821": 59,
        "4822": 99,
        "4823": 26,
        "4824": 8,
        "4825": 162,
        "4826": 207,
        "4827": 127,
        "4828": 15,
        "4829": 45,
        "4830": 141,
        "4831": 138,
        "4832": 246,
        "4833": 69,
        "4834": 144,
        "4835": 121,
        "4836": 79,
        "4837": 1,
        "4838": 3,
        "4839": 180,
        "4840": 252,
        "4841": 207,
        "4842": 184,
        "4843": 183,
        "4844": 157,
        "4845": 18,
        "4846": 140,
        "4847": 205,
        "4848": 219,
        "4849": 38,
        "4850": 226,
        "4851": 169,
        "4852": 16,
        "4853": 33,
        "4854": 251,
        "4855": 251,
        "4856": 87,
        "4857": 207,
        "4858": 250,
        "4859": 130,
        "4860": 224,
        "4861": 33,
        "4862": 159,
        "4863": 179,
        "4864": 60,
        "4865": 218,
        "4866": 61,
        "4867": 13,
        "4868": 152,
        "4869": 128,
        "4870": 33,
        "4871": 58,
        "4872": 103,
        "4873": 108,
        "4874": 35,
        "4875": 103,
        "4876": 135,
        "4877": 35,
        "4878": 53,
        "4879": 230,
        "4880": 70,
        "4881": 245,
        "4882": 139,
        "4883": 66,
        "4884": 0,
        "4885": 30,
        "4886": 224,
        "4887": 17,
        "4888": 111,
        "4889": 107,
        "4890": 90,
        "4891": 205,
        "4892": 74,
        "4893": 108,
        "4894": 228,
        "4895": 56,
        "4896": 109,
        "4897": 208,
        "4898": 48,
        "4899": 82,
        "4900": 89,
        "4901": 91,
        "4902": 13,
        "4903": 162,
        "4904": 15,
        "4905": 57,
        "4906": 34,
        "4907": 61,
        "4908": 96,
        "4909": 131,
        "4910": 106,
        "4911": 49,
        "4912": 119,
        "4913": 230,
        "4914": 103,
        "4915": 113,
        "4916": 42,
        "4917": 241,
        "4918": 191,
        "4919": 228,
        "4920": 88,
        "4921": 137,
        "4922": 122,
        "4923": 217,
        "4924": 46,
        "4925": 66,
        "4926": 57,
        "4927": 196,
        "4928": 245,
        "4929": 200,
        "4930": 237,
        "4931": 255,
        "4932": 234,
        "4933": 149,
        "4934": 71,
        "4935": 35,
        "4936": 106,
        "4937": 26,
        "4938": 147,
        "4939": 34,
        "4940": 74,
        "4941": 59,
        "4942": 166,
        "4943": 138,
        "4944": 20,
        "4945": 188,
        "4946": 123,
        "4947": 76,
        "4948": 206,
        "4949": 248,
        "4950": 126,
        "4951": 166,
        "4952": 53,
        "4953": 244,
        "4954": 206,
        "4955": 182,
        "4956": 172,
        "4957": 235,
        "4958": 146,
        "4959": 139,
        "4960": 144,
        "4961": 87,
        "4962": 164,
        "4963": 100,
        "4964": 131,
        "4965": 240,
        "4966": 48,
        "4967": 19,
        "4968": 192,
        "4969": 113,
        "4970": 183,
        "4971": 98,
        "4972": 139,
        "4973": 182,
        "4974": 47,
        "4975": 229,
        "4976": 25,
        "4977": 172,
        "4978": 44,
        "4979": 52,
        "4980": 15,
        "4981": 147,
        "4982": 176,
        "4983": 95,
        "4984": 218,
        "4985": 86,
        "4986": 27,
        "4987": 206,
        "4988": 116,
        "4989": 142,
        "4990": 82,
        "4991": 224,
        "4992": 56,
        "4993": 65,
        "4994": 24,
        "4995": 11,
        "4996": 166,
        "4997": 160,
        "4998": 5,
        "4999": 163,
        "5000": 104,
        "5001": 15,
        "5002": 124,
        "5003": 176,
        "5004": 117,
        "5005": 154,
        "5006": 222,
        "5007": 197,
        "5008": 137,
        "5009": 135,
        "5010": 187,
        "5011": 104,
        "5012": 147,
        "5013": 141,
        "5014": 173,
        "5015": 99,
        "5016": 108,
        "5017": 235,
        "5018": 214,
        "5019": 165,
        "5020": 108,
        "5021": 129,
        "5022": 128,
        "5023": 150,
        "5024": 86,
        "5025": 56,
        "5026": 172,
        "5027": 126,
        "5028": 51,
        "5029": 43,
        "5030": 84,
        "5031": 94,
        "5032": 137,
        "5033": 63,
        "5034": 208,
        "5035": 84,
        "5036": 212,
        "5037": 239,
        "5038": 12,
        "5039": 231,
        "5040": 230,
        "5041": 209,
        "5042": 242,
        "5043": 162,
        "5044": 99,
        "5045": 107,
        "5046": 66,
        "5047": 224,
        "5048": 52,
        "5049": 150,
        "5050": 211,
        "5051": 14,
        "5052": 79,
        "5053": 244,
        "5054": 193,
        "5055": 53,
        "5056": 18,
        "5057": 169,
        "5058": 188,
        "5059": 104,
        "5060": 80,
        "5061": 17,
        "5062": 246,
        "5063": 242,
        "5064": 41,
        "5065": 21,
        "5066": 163,
        "5067": 210,
        "5068": 226,
        "5069": 90,
        "5070": 139,
        "5071": 45,
        "5072": 132,
        "5073": 136,
        "5074": 203,
        "5075": 176,
        "5076": 204,
        "5077": 29,
        "5078": 42,
        "5079": 175,
        "5080": 48,
        "5081": 33,
        "5082": 17,
        "5083": 144,
        "5084": 60,
        "5085": 27,
        "5086": 249,
        "5087": 69,
        "5088": 198,
        "5089": 26,
        "5090": 111,
        "5091": 150,
        "5092": 146,
        "5093": 64,
        "5094": 169,
        "5095": 219,
        "5096": 239,
        "5097": 13,
        "5098": 198,
        "5099": 68,
        "5100": 219,
        "5101": 7,
        "5102": 6,
        "5103": 137,
        "5104": 189,
        "5105": 188,
        "5106": 37,
        "5107": 233,
        "5108": 108,
        "5109": 196,
        "5110": 57,
        "5111": 109,
        "5112": 249,
        "5113": 37,
        "5114": 202,
        "5115": 98,
        "5116": 83,
        "5117": 237,
        "5118": 81,
        "5119": 247,
        "5120": 100,
        "5121": 184,
        "5122": 39,
        "5123": 193,
        "5124": 72,
        "5125": 243,
        "5126": 99,
        "5127": 155,
        "5128": 139,
        "5129": 56,
        "5130": 27,
        "5131": 123,
        "5132": 27,
        "5133": 74,
        "5134": 199,
        "5135": 15,
        "5136": 113,
        "5137": 145,
        "5138": 23,
        "5139": 79,
        "5140": 114,
        "5141": 55,
        "5142": 199,
        "5143": 201,
        "5144": 163,
        "5145": 200,
        "5146": 218,
        "5147": 81,
        "5148": 229,
        "5149": 153,
        "5150": 147,
        "5151": 210,
        "5152": 152,
        "5153": 216,
        "5154": 64,
        "5155": 134,
        "5156": 34,
        "5157": 199,
        "5158": 7,
        "5159": 21,
        "5160": 22,
        "5161": 144,
        "5162": 43,
        "5163": 10,
        "5164": 144,
        "5165": 70,
        "5166": 98,
        "5167": 242,
        "5168": 96,
        "5169": 198,
        "5170": 88,
        "5171": 81,
        "5172": 45,
        "5173": 83,
        "5174": 16,
        "5175": 105,
        "5176": 163,
        "5177": 60,
        "5178": 128,
        "5179": 6,
        "5180": 6,
        "5181": 25,
        "5182": 220,
        "5183": 5,
        "5184": 188,
        "5185": 220,
        "5186": 119,
        "5187": 168,
        "5188": 234,
        "5189": 174,
        "5190": 69,
        "5191": 136,
        "5192": 215,
        "5193": 109,
        "5194": 59,
        "5195": 222,
        "5196": 13,
        "5197": 172,
        "5198": 213,
        "5199": 201,
        "5200": 122,
        "5201": 188,
        "5202": 2,
        "5203": 102,
        "5204": 51,
        "5205": 84,
        "5206": 22,
        "5207": 198,
        "5208": 100,
        "5209": 16,
        "5210": 146,
        "5211": 254,
        "5212": 151,
        "5213": 144,
        "5214": 18,
        "5215": 174,
        "5216": 117,
        "5217": 255,
        "5218": 25,
        "5219": 215,
        "5220": 219,
        "5221": 4,
        "5222": 23,
        "5223": 205,
        "5224": 152,
        "5225": 162,
        "5226": 58,
        "5227": 108,
        "5228": 154,
        "5229": 224,
        "5230": 31,
        "5231": 52,
        "5232": 167,
        "5233": 88,
        "5234": 217,
        "5235": 255,
        "5236": 66,
        "5237": 187,
        "5238": 107,
        "5239": 22,
        "5240": 142,
        "5241": 158,
        "5242": 33,
        "5243": 7,
        "5244": 50,
        "5245": 182,
        "5246": 161,
        "5247": 40,
        "5248": 252,
        "5249": 241,
        "5250": 97,
        "5251": 121,
        "5252": 1,
        "5253": 78,
        "5254": 126,
        "5255": 174,
        "5256": 162,
        "5257": 158,
        "5258": 114,
        "5259": 232,
        "5260": 21,
        "5261": 126,
        "5262": 254,
        "5263": 54,
        "5264": 234,
        "5265": 131,
        "5266": 92,
        "5267": 185,
        "5268": 115,
        "5269": 102,
        "5270": 213,
        "5271": 253,
        "5272": 243,
        "5273": 154,
        "5274": 202,
        "5275": 146,
        "5276": 60,
        "5277": 116,
        "5278": 0,
        "5279": 155,
        "5280": 119,
        "5281": 2,
        "5282": 181,
        "5283": 28,
        "5284": 49,
        "5285": 200,
        "5286": 20,
        "5287": 81,
        "5288": 14,
        "5289": 226,
        "5290": 36,
        "5291": 255,
        "5292": 165,
        "5293": 86,
        "5294": 168,
        "5295": 62,
        "5296": 241,
        "5297": 238,
        "5298": 199,
        "5299": 78,
        "5300": 167,
        "5301": 40,
        "5302": 68,
        "5303": 152,
        "5304": 87,
        "5305": 15,
        "5306": 153,
        "5307": 125,
        "5308": 19,
        "5309": 242,
        "5310": 4,
        "5311": 43,
        "5312": 118,
        "5313": 196,
        "5314": 83,
        "5315": 142,
        "5316": 255,
        "5317": 84,
        "5318": 9,
        "5319": 133,
        "5320": 49,
        "5321": 161,
        "5322": 217,
        "5323": 14,
        "5324": 157,
        "5325": 145,
        "5326": 50,
        "5327": 173,
        "5328": 161,
        "5329": 213,
        "5330": 68,
        "5331": 129,
        "5332": 223,
        "5333": 168,
        "5334": 165,
        "5335": 91,
        "5336": 176,
        "5337": 85,
        "5338": 249,
        "5339": 117,
        "5340": 6,
        "5341": 133,
        "5342": 122,
        "5343": 138,
        "5344": 33,
        "5345": 69,
        "5346": 105,
        "5347": 192,
        "5348": 16,
        "5349": 11,
        "5350": 204,
        "5351": 229,
        "5352": 47,
        "5353": 68,
        "5354": 54,
        "5355": 105,
        "5356": 150,
        "5357": 131,
        "5358": 70,
        "5359": 167,
        "5360": 103,
        "5361": 63,
        "5362": 232,
        "5363": 80,
        "5364": 125,
        "5365": 34,
        "5366": 95,
        "5367": 93,
        "5368": 18,
        "5369": 169,
        "5370": 78,
        "5371": 180,
        "5372": 246,
        "5373": 240,
        "5374": 238,
        "5375": 54,
        "5376": 227,
        "5377": 68,
        "5378": 248,
        "5379": 229,
        "5380": 146,
        "5381": 228,
        "5382": 215,
        "5383": 195,
        "5384": 39,
        "5385": 197,
        "5386": 121,
        "5387": 177,
        "5388": 223,
        "5389": 55,
        "5390": 176,
        "5391": 183,
        "5392": 159,
        "5393": 113,
        "5394": 73,
        "5395": 17,
        "5396": 165,
        "5397": 66,
        "5398": 88,
        "5399": 135,
        "5400": 143,
        "5401": 8,
        "5402": 182,
        "5403": 96,
        "5404": 42,
        "5405": 94,
        "5406": 17,
        "5407": 194,
        "5408": 242,
        "5409": 71,
        "5410": 1,
        "5411": 24,
        "5412": 29,
        "5413": 97,
        "5414": 9,
        "5415": 145,
        "5416": 146,
        "5417": 101,
        "5418": 121,
        "5419": 226,
        "5420": 136,
        "5421": 130,
        "5422": 186,
        "5423": 29,
        "5424": 185,
        "5425": 147,
        "5426": 209,
        "5427": 126,
        "5428": 185,
        "5429": 30,
        "5430": 131,
        "5431": 172,
        "5432": 176,
        "5433": 146,
        "5434": 58,
        "5435": 180,
        "5436": 251,
        "5437": 68,
        "5438": 178,
        "5439": 195,
        "5440": 164,
        "5441": 155,
        "5442": 247,
        "5443": 14,
        "5444": 224,
        "5445": 223,
        "5446": 51,
        "5447": 59,
        "5448": 47,
        "5449": 113,
        "5450": 251,
        "5451": 175,
        "5452": 241,
        "5453": 14,
        "5454": 226,
        "5455": 95,
        "5456": 192,
        "5457": 179,
        "5458": 250,
        "5459": 73,
        "5460": 18,
        "5461": 28,
        "5462": 159,
        "5463": 224,
        "5464": 16,
        "5465": 49,
        "5466": 235,
        "5467": 235,
        "5468": 34,
        "5469": 253,
        "5470": 153,
        "5471": 34,
        "5472": 169,
        "5473": 244,
        "5474": 240,
        "5475": 180,
        "5476": 91,
        "5477": 209,
        "5478": 103,
        "5479": 178,
        "5480": 29,
        "5481": 252,
        "5482": 251,
        "5483": 43,
        "5484": 160,
        "5485": 15,
        "5486": 188,
        "5487": 184,
        "5488": 78,
        "5489": 153,
        "5490": 168,
        "5491": 208,
        "5492": 128,
        "5493": 174,
        "5494": 30,
        "5495": 65,
        "5496": 13,
        "5497": 32,
        "5498": 128,
        "5499": 160,
        "5500": 153,
        "5501": 207,
        "5502": 129,
        "5503": 41,
        "5504": 153,
        "5505": 250,
        "5506": 5,
        "5507": 219,
        "5508": 101,
        "5509": 245,
        "5510": 150,
        "5511": 102,
        "5512": 220,
        "5513": 120,
        "5514": 33,
        "5515": 41,
        "5516": 57,
        "5517": 103,
        "5518": 117,
        "5519": 190,
        "5520": 225,
        "5521": 130,
        "5522": 32,
        "5523": 235,
        "5524": 4,
        "5525": 237,
        "5526": 250,
        "5527": 231,
        "5528": 219,
        "5529": 130,
        "5530": 156,
        "5531": 57,
        "5532": 190,
        "5533": 96,
        "5534": 78,
        "5535": 69,
        "5536": 145,
        "5537": 192,
        "5538": 209,
        "5539": 15,
        "5540": 183,
        "5541": 192,
        "5542": 152,
        "5543": 214,
        "5544": 185,
        "5545": 135,
        "5546": 13,
        "5547": 77,
        "5548": 149,
        "5549": 25,
        "5550": 128,
        "5551": 193,
        "5552": 42,
        "5553": 171,
        "5554": 96,
        "5555": 129,
        "5556": 121,
        "5557": 163,
        "5558": 143,
        "5559": 72,
        "5560": 200,
        "5561": 202,
        "5562": 81,
        "5563": 249,
        "5564": 124,
        "5565": 193,
        "5566": 171,
        "5567": 223,
        "5568": 146,
        "5569": 199,
        "5570": 133,
        "5571": 178,
        "5572": 137,
        "5573": 76,
        "5574": 75,
        "5575": 196,
        "5576": 81,
        "5577": 195,
        "5578": 247,
        "5579": 198,
        "5580": 149,
        "5581": 109,
        "5582": 66,
        "5583": 186,
        "5584": 18,
        "5585": 16,
        "5586": 230,
        "5587": 132,
        "5588": 10,
        "5589": 152,
        "5590": 143,
        "5591": 153,
        "5592": 205,
        "5593": 34,
        "5594": 159,
        "5595": 53,
        "5596": 21,
        "5597": 125,
        "5598": 64,
        "5599": 213,
        "5600": 197,
        "5601": 21,
        "5602": 165,
        "5603": 40,
        "5604": 198,
        "5605": 244,
        "5606": 109,
        "5607": 43,
        "5608": 12,
        "5609": 208,
        "5610": 149,
        "5611": 238,
        "5612": 51,
        "5613": 110,
        "5614": 1,
        "5615": 160,
        "5616": 216,
        "5617": 7,
        "5618": 48,
        "5619": 22,
        "5620": 125,
        "5621": 204,
        "5622": 115,
        "5623": 190,
        "5624": 1,
        "5625": 22,
        "5626": 67,
        "5627": 117,
        "5628": 38,
        "5629": 228,
        "5630": 7,
        "5631": 124,
        "5632": 26,
        "5633": 244,
        "5634": 92,
        "5635": 63,
        "5636": 238,
        "5637": 106,
        "5638": 240,
        "5639": 61,
        "5640": 165,
        "5641": 175,
        "5642": 28,
        "5643": 13,
        "5644": 112,
        "5645": 45,
        "5646": 205,
        "5647": 72,
        "5648": 73,
        "5649": 71,
        "5650": 150,
        "5651": 244,
        "5652": 130,
        "5653": 117,
        "5654": 92,
        "5655": 144,
        "5656": 189,
        "5657": 54,
        "5658": 202,
        "5659": 139,
        "5660": 251,
        "5661": 48,
        "5662": 165,
        "5663": 136,
        "5664": 73,
        "5665": 134,
        "5666": 114,
        "5667": 250,
        "5668": 156,
        "5669": 182,
        "5670": 13,
        "5671": 147,
        "5672": 39,
        "5673": 202,
        "5674": 62,
        "5675": 109,
        "5676": 119,
        "5677": 208,
        "5678": 247,
        "5679": 15,
        "5680": 14,
        "5681": 143,
        "5682": 23,
        "5683": 95,
        "5684": 47,
        "5685": 39,
        "5686": 5,
        "5687": 68,
        "5688": 255,
        "5689": 83,
        "5690": 104,
        "5691": 118,
        "5692": 74,
        "5693": 167,
        "5694": 79,
        "5695": 192,
        "5696": 171,
        "5697": 19,
        "5698": 243,
        "5699": 134,
        "5700": 201,
        "5701": 144,
        "5702": 45,
        "5703": 198,
        "5704": 45,
        "5705": 132,
        "5706": 66,
        "5707": 236,
        "5708": 161,
        "5709": 166,
        "5710": 93,
        "5711": 37,
        "5712": 161,
        "5713": 65,
        "5714": 64,
        "5715": 232,
        "5716": 177,
        "5717": 226,
        "5718": 1,
        "5719": 208,
        "5720": 196,
        "5721": 79,
        "5722": 168,
        "5723": 197,
        "5724": 219,
        "5725": 227,
        "5726": 28,
        "5727": 99,
        "5728": 255,
        "5729": 245,
        "5730": 238,
        "5731": 66,
        "5732": 26,
        "5733": 233,
        "5734": 172,
        "5735": 248,
        "5736": 169,
        "5737": 233,
        "5738": 140,
        "5739": 42,
        "5740": 34,
        "5741": 26,
        "5742": 234,
        "5743": 198,
        "5744": 194,
        "5745": 81,
        "5746": 224,
        "5747": 139,
        "5748": 189,
        "5749": 92,
        "5750": 81,
        "5751": 200,
        "5752": 235,
        "5753": 175,
        "5754": 39,
        "5755": 57,
        "5756": 42,
        "5757": 44,
        "5758": 62,
        "5759": 119,
        "5760": 25,
        "5761": 18,
        "5762": 106,
        "5763": 25,
        "5764": 18,
        "5765": 110,
        "5766": 45,
        "5767": 149,
        "5768": 254,
        "5769": 6,
        "5770": 214,
        "5771": 124,
        "5772": 59,
        "5773": 127,
        "5774": 61,
        "5775": 62,
        "5776": 3,
        "5777": 235,
        "5778": 3,
        "5779": 229,
        "5780": 255,
        "5781": 62,
        "5782": 160,
        "5783": 62,
        "5784": 196,
        "5785": 94,
        "5786": 147,
        "5787": 236,
        "5788": 134,
        "5789": 156,
        "5790": 253,
        "5791": 203,
        "5792": 115,
        "5793": 199,
        "5794": 139,
        "5795": 113,
        "5796": 20,
        "5797": 53,
        "5798": 84,
        "5799": 105,
        "5800": 80,
        "5801": 143,
        "5802": 83,
        "5803": 204,
        "5804": 42,
        "5805": 200,
        "5806": 184,
        "5807": 46,
        "5808": 242,
        "5809": 5,
        "5810": 41,
        "5811": 76,
        "5812": 14,
        "5813": 192,
        "5814": 89,
        "5815": 125,
        "5816": 117,
        "5817": 128,
        "5818": 98,
        "5819": 226,
        "5820": 71,
        "5821": 43,
        "5822": 184,
        "5823": 225,
        "5824": 37,
        "5825": 86,
        "5826": 84,
        "5827": 193,
        "5828": 35,
        "5829": 202,
        "5830": 230,
        "5831": 17,
        "5832": 46,
        "5833": 242,
        "5834": 196,
        "5835": 15,
        "5836": 59,
        "5837": 19,
        "5838": 89,
        "5839": 189,
        "5840": 7,
        "5841": 13,
        "5842": 233,
        "5843": 187,
        "5844": 75,
        "5845": 107,
        "5846": 230,
        "5847": 13,
        "5848": 233,
        "5849": 109,
        "5850": 221,
        "5851": 184,
        "5852": 86,
        "5853": 12,
        "5854": 225,
        "5855": 163,
        "5856": 216,
        "5857": 37,
        "5858": 13,
        "5859": 167,
        "5860": 252,
        "5861": 58,
        "5862": 234,
        "5863": 151,
        "5864": 73,
        "5865": 192,
        "5866": 96,
        "5867": 209,
        "5868": 40,
        "5869": 54,
        "5870": 56,
        "5871": 61,
        "5872": 18,
        "5873": 27,
        "5874": 48,
        "5875": 150,
        "5876": 248,
        "5877": 6,
        "5878": 170,
        "5879": 95,
        "5880": 57,
        "5881": 97,
        "5882": 164,
        "5883": 98,
        "5884": 62,
        "5885": 75,
        "5886": 132,
        "5887": 39,
        "5888": 122,
        "5889": 108,
        "5890": 87,
        "5891": 122,
        "5892": 230,
        "5893": 221,
        "5894": 246,
        "5895": 150,
        "5896": 67,
        "5897": 90,
        "5898": 133,
        "5899": 172,
        "5900": 157,
        "5901": 219,
        "5902": 189,
        "5903": 171,
        "5904": 100,
        "5905": 218,
        "5906": 51,
        "5907": 60,
        "5908": 138,
        "5909": 200,
        "5910": 181,
        "5911": 244,
        "5912": 4,
        "5913": 223,
        "5914": 93,
        "5915": 210,
        "5916": 72,
        "5917": 51,
        "5918": 51,
        "5919": 45,
        "5920": 121,
        "5921": 161,
        "5922": 156,
        "5923": 110,
        "5924": 13,
        "5925": 161,
        "5926": 203,
        "5927": 191,
        "5928": 36,
        "5929": 92,
        "5930": 239,
        "5931": 150,
        "5932": 191,
        "5933": 82,
        "5934": 132,
        "5935": 25,
        "5936": 97,
        "5937": 94,
        "5938": 6,
        "5939": 215,
        "5940": 7,
        "5941": 246,
        "5942": 238,
        "5943": 71,
        "5944": 146,
        "5945": 8,
        "5946": 174,
        "5947": 199,
        "5948": 96,
        "5949": 85,
        "5950": 149,
        "5951": 236,
        "5952": 244,
        "5953": 97,
        "5954": 111,
        "5955": 193,
        "5956": 124,
        "5957": 52,
        "5958": 89,
        "5959": 119,
        "5960": 15,
        "5961": 76,
        "5962": 146,
        "5963": 106,
        "5964": 6,
        "5965": 65,
        "5966": 202,
        "5967": 147,
        "5968": 88,
        "5969": 250,
        "5970": 42,
        "5971": 178,
        "5972": 18,
        "5973": 24,
        "5974": 151,
        "5975": 98,
        "5976": 102,
        "5977": 179,
        "5978": 135,
        "5979": 220,
        "5980": 184,
        "5981": 117,
        "5982": 217,
        "5983": 29,
        "5984": 188,
        "5985": 50,
        "5986": 186,
        "5987": 161,
        "5988": 107,
        "5989": 252,
        "5990": 115,
        "5991": 159,
        "5992": 134,
        "5993": 156,
        "5994": 221,
        "5995": 53,
        "5996": 143,
        "5997": 197,
        "5998": 6,
        "5999": 148,
        "6000": 234,
        "6001": 166,
        "6002": 47,
        "6003": 245,
        "6004": 50,
        "6005": 32,
        "6006": 231,
        "6007": 9,
        "6008": 228,
        "6009": 137,
        "6010": 143,
        "6011": 133,
        "6012": 71,
        "6013": 68,
        "6014": 114,
        "6015": 131,
        "6016": 247,
        "6017": 237,
        "6018": 29,
        "6019": 35,
        "6020": 163,
        "6021": 247,
        "6022": 218,
        "6023": 239,
        "6024": 33,
        "6025": 249,
        "6026": 91,
        "6027": 1,
        "6028": 210,
        "6029": 93,
        "6030": 237,
        "6031": 156,
        "6032": 25,
        "6033": 51,
        "6034": 107,
        "6035": 67,
        "6036": 124,
        "6037": 186,
        "6038": 186,
        "6039": 47,
        "6040": 98,
        "6041": 143,
        "6042": 97,
        "6043": 202,
        "6044": 93,
        "6045": 1,
        "6046": 112,
        "6047": 197,
        "6048": 193,
        "6049": 27,
        "6050": 0,
        "6051": 84,
        "6052": 127,
        "6053": 33,
        "6054": 80,
        "6055": 13,
        "6056": 38,
        "6057": 233,
        "6058": 140,
        "6059": 8,
        "6060": 165,
        "6061": 137,
        "6062": 78,
        "6063": 154,
        "6064": 240,
        "6065": 102,
        "6066": 160,
        "6067": 8,
        "6068": 63,
        "6069": 157,
        "6070": 46,
        "6071": 172,
        "6072": 96,
        "6073": 179,
        "6074": 130,
        "6075": 194,
        "6076": 66,
        "6077": 151,
        "6078": 224,
        "6079": 5,
        "6080": 247,
        "6081": 136,
        "6082": 107,
        "6083": 199,
        "6084": 85,
        "6085": 75,
        "6086": 177,
        "6087": 4,
        "6088": 12,
        "6089": 153,
        "6090": 211,
        "6091": 100,
        "6092": 70,
        "6093": 56,
        "6094": 35,
        "6095": 177,
        "6096": 244,
        "6097": 75,
        "6098": 47,
        "6099": 100,
        "6100": 196,
        "6101": 68,
        "6102": 194,
        "6103": 78,
        "6104": 213,
        "6105": 157,
        "6106": 189,
        "6107": 138,
        "6108": 33,
        "6109": 38,
        "6110": 252,
        "6111": 106,
        "6112": 54,
        "6113": 130,
        "6114": 30,
        "6115": 143,
        "6116": 164,
        "6117": 175,
        "6118": 196,
        "6119": 91,
        "6120": 214,
        "6121": 114,
        "6122": 164,
        "6123": 86,
        "6124": 19,
        "6125": 62,
        "6126": 228,
        "6127": 120,
        "6128": 52,
        "6129": 49,
        "6130": 46,
        "6131": 225,
        "6132": 159,
        "6133": 119,
        "6134": 27,
        "6135": 244,
        "6136": 115,
        "6137": 23,
        "6138": 106,
        "6139": 210,
        "6140": 12,
        "6141": 48,
        "6142": 153,
        "6143": 199,
        "6144": 126,
        "6145": 75,
        "6146": 82,
        "6147": 216,
        "6148": 228,
        "6149": 72,
        "6150": 127,
        "6151": 135,
        "6152": 118,
        "6153": 248,
        "6154": 16,
        "6155": 201,
        "6156": 135,
        "6157": 198,
        "6158": 95,
        "6159": 47,
        "6160": 140,
        "6161": 21,
        "6162": 3,
        "6163": 199,
        "6164": 226,
        "6165": 113,
        "6166": 44,
        "6167": 5,
        "6168": 108,
        "6169": 22,
        "6170": 210,
        "6171": 139,
        "6172": 34,
        "6173": 236,
        "6174": 117,
        "6175": 107,
        "6176": 195,
        "6177": 50,
        "6178": 189,
        "6179": 97,
        "6180": 68,
        "6181": 178,
        "6182": 144,
        "6183": 72,
        "6184": 155,
        "6185": 104,
        "6186": 211,
        "6187": 216,
        "6188": 233,
        "6189": 105,
        "6190": 170,
        "6191": 223,
        "6192": 149,
        "6193": 220,
        "6194": 197,
        "6195": 82,
        "6196": 144,
        "6197": 141,
        "6198": 134,
        "6199": 200,
        "6200": 114,
        "6201": 159,
        "6202": 113,
        "6203": 183,
        "6204": 41,
        "6205": 132,
        "6206": 14,
        "6207": 146,
        "6208": 35,
        "6209": 238,
        "6210": 110,
        "6211": 58,
        "6212": 129,
        "6213": 192,
        "6214": 255,
        "6215": 87,
        "6216": 182,
        "6217": 241,
        "6218": 102,
        "6219": 52,
        "6220": 10,
        "6221": 243,
        "6222": 1,
        "6223": 199,
        "6224": 244,
        "6225": 137,
        "6226": 56,
        "6227": 192,
        "6228": 79,
        "6229": 142,
        "6230": 203,
        "6231": 65,
        "6232": 157,
        "6233": 63,
        "6234": 87,
        "6235": 77,
        "6236": 3,
        "6237": 226,
        "6238": 18,
        "6239": 70,
        "6240": 99,
        "6241": 65,
        "6242": 4,
        "6243": 94,
        "6244": 51,
        "6245": 103,
        "6246": 129,
        "6247": 153,
        "6248": 25,
        "6249": 229,
        "6250": 249,
        "6251": 171,
        "6252": 136,
        "6253": 105,
        "6254": 51,
        "6255": 70,
        "6256": 224,
        "6257": 181,
        "6258": 228,
        "6259": 74,
        "6260": 35,
        "6261": 236,
        "6262": 218,
        "6263": 46,
        "6264": 46,
        "6265": 244,
        "6266": 187,
        "6267": 34,
        "6268": 104,
        "6269": 141,
        "6270": 207,
        "6271": 233,
        "6272": 29,
        "6273": 69,
        "6274": 28,
        "6275": 114,
        "6276": 131,
        "6277": 184,
        "6278": 190,
        "6279": 19,
        "6280": 53,
        "6281": 239,
        "6282": 101,
        "6283": 55,
        "6284": 116,
        "6285": 18,
        "6286": 108,
        "6287": 191,
        "6288": 23,
        "6289": 41,
        "6290": 200,
        "6291": 239,
        "6292": 248,
        "6293": 84,
        "6294": 21,
        "6295": 103,
        "6296": 47,
        "6297": 31,
        "6298": 149,
        "6299": 180,
        "6300": 253,
        "6301": 172,
        "6302": 56,
        "6303": 148,
        "6304": 199,
        "6305": 5,
        "6306": 255,
        "6307": 195,
        "6308": 60,
        "6309": 109,
        "6310": 179,
        "6311": 227,
        "6312": 1,
        "6313": 54,
        "6314": 202,
        "6315": 234,
        "6316": 10,
        "6317": 112,
        "6318": 199,
        "6319": 106,
        "6320": 25,
        "6321": 112,
        "6322": 90,
        "6323": 131,
        "6324": 190,
        "6325": 177,
        "6326": 48,
        "6327": 92,
        "6328": 237,
        "6329": 117,
        "6330": 116,
        "6331": 241,
        "6332": 234,
        "6333": 155,
        "6334": 17,
        "6335": 46,
        "6336": 171,
        "6337": 218,
        "6338": 18,
        "6339": 232,
        "6340": 216,
        "6341": 141,
        "6342": 126,
        "6343": 26,
        "6344": 202,
        "6345": 96,
        "6346": 195,
        "6347": 125,
        "6348": 149,
        "6349": 62,
        "6350": 130,
        "6351": 79,
        "6352": 237,
        "6353": 116,
        "6354": 38,
        "6355": 103,
        "6356": 221,
        "6357": 127,
        "6358": 126,
        "6359": 76,
        "6360": 178,
        "6361": 1,
        "6362": 118,
        "6363": 152,
        "6364": 173,
        "6365": 83,
        "6366": 223,
        "6367": 190,
        "6368": 19,
        "6369": 93,
        "6370": 197,
        "6371": 123,
        "6372": 193,
        "6373": 168,
        "6374": 216,
        "6375": 142,
        "6376": 62,
        "6377": 196,
        "6378": 211,
        "6379": 143,
        "6380": 202,
        "6381": 120,
        "6382": 194,
        "6383": 199,
        "6384": 59,
        "6385": 114,
        "6386": 39,
        "6387": 151,
        "6388": 14,
        "6389": 4,
        "6390": 169,
        "6391": 36,
        "6392": 7,
        "6393": 11,
        "6394": 5,
        "6395": 254,
        "6396": 171,
        "6397": 40,
        "6398": 244,
        "6399": 176,
        "6400": 238,
        "6401": 63,
        "6402": 42,
        "6403": 70,
        "6404": 252,
        "6405": 136,
        "6406": 26,
        "6407": 136,
        "6408": 164,
        "6409": 211,
        "6410": 33,
        "6411": 31,
        "6412": 138,
        "6413": 22,
        "6414": 205,
        "6415": 95,
        "6416": 199,
        "6417": 244,
        "6418": 72,
        "6419": 98,
        "6420": 28,
        "6421": 132,
        "6422": 94,
        "6423": 59,
        "6424": 234,
        "6425": 80,
        "6426": 33,
        "6427": 239,
        "6428": 120,
        "6429": 85,
        "6430": 135,
        "6431": 230,
        "6432": 160,
        "6433": 198,
        "6434": 101,
        "6435": 106,
        "6436": 84,
        "6437": 235,
        "6438": 214,
        "6439": 167,
        "6440": 93,
        "6441": 17,
        "6442": 85,
        "6443": 68,
        "6444": 244,
        "6445": 136,
        "6446": 75,
        "6447": 125,
        "6448": 225,
        "6449": 146,
        "6450": 48,
        "6451": 205,
        "6452": 121,
        "6453": 35,
        "6454": 192,
        "6455": 250,
        "6456": 132,
        "6457": 252,
        "6458": 85,
        "6459": 3,
        "6460": 8,
        "6461": 174,
        "6462": 108,
        "6463": 246,
        "6464": 48,
        "6465": 226,
        "6466": 49,
        "6467": 0,
        "6468": 237,
        "6469": 9,
        "6470": 157,
        "6471": 104,
        "6472": 196,
        "6473": 100,
        "6474": 150,
        "6475": 142,
        "6476": 85,
        "6477": 114,
        "6478": 138,
        "6479": 81,
        "6480": 54,
        "6481": 209,
        "6482": 251,
        "6483": 105,
        "6484": 34,
        "6485": 110,
        "6486": 4,
        "6487": 251,
        "6488": 49,
        "6489": 146,
        "6490": 198,
        "6491": 3,
        "6492": 5,
        "6493": 235,
        "6494": 131,
        "6495": 55,
        "6496": 67,
        "6497": 134,
        "6498": 196,
        "6499": 143,
        "6500": 70,
        "6501": 51,
        "6502": 38,
        "6503": 150,
        "6504": 59,
        "6505": 103,
        "6506": 233,
        "6507": 154,
        "6508": 201,
        "6509": 207,
        "6510": 7,
        "6511": 175,
        "6512": 180,
        "6513": 202,
        "6514": 24,
        "6515": 208,
        "6516": 29,
        "6517": 87,
        "6518": 210,
        "6519": 15,
        "6520": 254,
        "6521": 45,
        "6522": 5,
        "6523": 26,
        "6524": 125,
        "6525": 77,
        "6526": 51,
        "6527": 107,
        "6528": 208,
        "6529": 78,
        "6530": 90,
        "6531": 188,
        "6532": 144,
        "6533": 123,
        "6534": 187,
        "6535": 79,
        "6536": 202,
        "6537": 95,
        "6538": 233,
        "6539": 11,
        "6540": 128,
        "6541": 104,
        "6542": 247,
        "6543": 11,
        "6544": 142,
        "6545": 206,
        "6546": 191,
        "6547": 140,
        "6548": 9,
        "6549": 67,
        "6550": 169,
        "6551": 103,
        "6552": 103,
        "6553": 105,
        "6554": 89,
        "6555": 73,
        "6556": 223,
        "6557": 2,
        "6558": 206,
        "6559": 193,
        "6560": 138,
        "6561": 169,
        "6562": 114,
        "6563": 150,
        "6564": 32,
        "6565": 118,
        "6566": 253,
        "6567": 97,
        "6568": 234,
        "6569": 145,
        "6570": 246,
        "6571": 188,
        "6572": 30,
        "6573": 86,
        "6574": 49,
        "6575": 238,
        "6576": 241,
        "6577": 20,
        "6578": 102,
        "6579": 95,
        "6580": 79,
        "6581": 79,
        "6582": 40,
        "6583": 38,
        "6584": 43,
        "6585": 181,
        "6586": 132,
        "6587": 198,
        "6588": 75,
        "6589": 116,
        "6590": 109,
        "6591": 159,
        "6592": 226,
        "6593": 223,
        "6594": 85,
        "6595": 224,
        "6596": 208,
        "6597": 146,
        "6598": 218,
        "6599": 127,
        "6600": 211,
        "6601": 161,
        "6602": 150,
        "6603": 143,
        "6604": 206,
        "6605": 115,
        "6606": 186,
        "6607": 23,
        "6608": 191,
        "6609": 209,
        "6610": 207,
        "6611": 126,
        "6612": 20,
        "6613": 100,
        "6614": 60,
        "6615": 102,
        "6616": 244,
        "6617": 131,
        "6618": 188,
        "6619": 199,
        "6620": 102,
        "6621": 196,
        "6622": 160,
        "6623": 90,
        "6624": 33,
        "6625": 132,
        "6626": 19,
        "6627": 111,
        "6628": 91,
        "6629": 127,
        "6630": 200,
        "6631": 212,
        "6632": 137,
        "6633": 143,
        "6634": 228,
        "6635": 65,
        "6636": 169,
        "6637": 154,
        "6638": 200,
        "6639": 194,
        "6640": 118,
        "6641": 183,
        "6642": 42,
        "6643": 80,
        "6644": 126,
        "6645": 10,
        "6646": 140,
        "6647": 118,
        "6648": 100,
        "6649": 180,
        "6650": 162,
        "6651": 27,
        "6652": 39,
        "6653": 239,
        "6654": 246,
        "6655": 243,
        "6656": 124,
        "6657": 180,
        "6658": 199,
        "6659": 220,
        "6660": 22,
        "6661": 136,
        "6662": 88,
        "6663": 222,
        "6664": 83,
        "6665": 238,
        "6666": 79,
        "6667": 237,
        "6668": 70,
        "6669": 101,
        "6670": 217,
        "6671": 78,
        "6672": 215,
        "6673": 233,
        "6674": 16,
        "6675": 252,
        "6676": 104,
        "6677": 192,
        "6678": 188,
        "6679": 158,
        "6680": 49,
        "6681": 160,
        "6682": 40,
        "6683": 61,
        "6684": 233,
        "6685": 115,
        "6686": 38,
        "6687": 88,
        "6688": 58,
        "6689": 29,
        "6690": 177,
        "6691": 134,
        "6692": 234,
        "6693": 65,
        "6694": 213,
        "6695": 66,
        "6696": 249,
        "6697": 151,
        "6698": 84,
        "6699": 185,
        "6700": 54,
        "6701": 147,
        "6702": 81,
        "6703": 220,
        "6704": 4,
        "6705": 86,
        "6706": 238,
        "6707": 209,
        "6708": 236,
        "6709": 150,
        "6710": 20,
        "6711": 247,
        "6712": 68,
        "6713": 240,
        "6714": 168,
        "6715": 230,
        "6716": 172,
        "6717": 77,
        "6718": 127,
        "6719": 66,
        "6720": 99,
        "6721": 45,
        "6722": 28,
        "6723": 175,
        "6724": 213,
        "6725": 67,
        "6726": 21,
        "6727": 174,
        "6728": 46,
        "6729": 9,
        "6730": 50,
        "6731": 221,
        "6732": 32,
        "6733": 197,
        "6734": 5,
        "6735": 197,
        "6736": 232,
        "6737": 16,
        "6738": 141,
        "6739": 18,
        "6740": 200,
        "6741": 81,
        "6742": 148,
        "6743": 39,
        "6744": 76,
        "6745": 165,
        "6746": 241,
        "6747": 203,
        "6748": 89,
        "6749": 34,
        "6750": 142,
        "6751": 120,
        "6752": 99,
        "6753": 158,
        "6754": 177,
        "6755": 252,
        "6756": 98,
        "6757": 81,
        "6758": 26,
        "6759": 94,
        "6760": 140,
        "6761": 184,
        "6762": 75,
        "6763": 34,
        "6764": 240,
        "6765": 138,
        "6766": 42,
        "6767": 249,
        "6768": 67,
        "6769": 77,
        "6770": 126,
        "6771": 4,
        "6772": 179,
        "6773": 95,
        "6774": 231,
        "6775": 20,
        "6776": 25,
        "6777": 233,
        "6778": 161,
        "6779": 102,
        "6780": 57,
        "6781": 253,
        "6782": 145,
        "6783": 43,
        "6784": 197,
        "6785": 97,
        "6786": 251,
        "6787": 164,
        "6788": 53,
        "6789": 85,
        "6790": 121,
        "6791": 124,
        "6792": 60,
        "6793": 94,
        "6794": 20,
        "6795": 161,
        "6796": 23,
        "6797": 248,
        "6798": 201,
        "6799": 182,
        "6800": 171,
        "6801": 107,
        "6802": 171,
        "6803": 14,
        "6804": 149,
        "6805": 56,
        "6806": 210,
        "6807": 9,
        "6808": 30,
        "6809": 255,
        "6810": 252,
        "6811": 45,
        "6812": 39,
        "6813": 80,
        "6814": 23,
        "6815": 253,
        "6816": 163,
        "6817": 75,
        "6818": 218,
        "6819": 141,
        "6820": 176,
        "6821": 137,
        "6822": 19,
        "6823": 209,
        "6824": 106,
        "6825": 25,
        "6826": 114,
        "6827": 29,
        "6828": 50,
        "6829": 49,
        "6830": 102,
        "6831": 51,
        "6832": 30,
        "6833": 241,
        "6834": 242,
        "6835": 134,
        "6836": 147,
        "6837": 18,
        "6838": 76,
        "6839": 82,
        "6840": 213,
        "6841": 159,
        "6842": 231,
        "6843": 80,
        "6844": 9,
        "6845": 0,
        "6846": 255,
        "6847": 178,
        "6848": 101,
        "6849": 132,
        "6850": 27,
        "6851": 246,
        "6852": 11,
        "6853": 201,
        "6854": 138,
        "6855": 92,
        "6856": 1,
        "6857": 5,
        "6858": 36,
        "6859": 136,
        "6860": 189,
        "6861": 202,
        "6862": 27,
        "6863": 153,
        "6864": 109,
        "6865": 84,
        "6866": 69,
        "6867": 206,
        "6868": 21,
        "6869": 35,
        "6870": 232,
        "6871": 117,
        "6872": 56,
        "6873": 16,
        "6874": 17,
        "6875": 50,
        "6876": 7,
        "6877": 162,
        "6878": 225,
        "6879": 56,
        "6880": 240,
        "6881": 28,
        "6882": 203,
        "6883": 236,
        "6884": 188,
        "6885": 62,
        "6886": 67,
        "6887": 128,
        "6888": 233,
        "6889": 91,
        "6890": 18,
        "6891": 138,
        "6892": 213,
        "6893": 253,
        "6894": 210,
        "6895": 97,
        "6896": 127,
        "6897": 211,
        "6898": 0,
        "6899": 61,
        "6900": 251,
        "6901": 85,
        "6902": 109,
        "6903": 95,
        "6904": 48,
        "6905": 191,
        "6906": 155,
        "6907": 211,
        "6908": 43,
        "6909": 219,
        "6910": 112,
        "6911": 45,
        "6912": 37,
        "6913": 58,
        "6914": 12,
        "6915": 46,
        "6916": 131,
        "6917": 60,
        "6918": 29,
        "6919": 1,
        "6920": 83,
        "6921": 144,
        "6922": 210,
        "6923": 206,
        "6924": 231,
        "6925": 84,
        "6926": 248,
        "6927": 205,
        "6928": 247,
        "6929": 224,
        "6930": 47,
        "6931": 104,
        "6932": 75,
        "6933": 209,
        "6934": 41,
        "6935": 42,
        "6936": 207,
        "6937": 68,
        "6938": 207,
        "6939": 247,
        "6940": 4,
        "6941": 224,
        "6942": 47,
        "6943": 164,
        "6944": 238,
        "6945": 171,
        "6946": 9,
        "6947": 114,
        "6948": 16,
        "6949": 130,
        "6950": 92,
        "6951": 86,
        "6952": 255,
        "6953": 94,
        "6954": 177,
        "6955": 164,
        "6956": 235,
        "6957": 76,
        "6958": 188,
        "6959": 172,
        "6960": 36,
        "6961": 231,
        "6962": 114,
        "6963": 235,
        "6964": 236,
        "6965": 201,
        "6966": 94,
        "6967": 70,
        "6968": 157,
        "6969": 42,
        "6970": 167,
        "6971": 169,
        "6972": 46,
        "6973": 119,
        "6974": 5,
        "6975": 1,
        "6976": 89,
        "6977": 15,
        "6978": 0,
        "6979": 118,
        "6980": 37,
        "6981": 199,
        "6982": 140,
        "6983": 38,
        "6984": 219,
        "6985": 103,
        "6986": 159,
        "6987": 219,
        "6988": 248,
        "6989": 103,
        "6990": 165,
        "6991": 64,
        "6992": 190,
        "6993": 185,
        "6994": 245,
        "6995": 83,
        "6996": 59,
        "6997": 164,
        "6998": 30,
        "6999": 54,
        "7000": 76,
        "7001": 45,
        "7002": 199,
        "7003": 102,
        "7004": 171,
        "7005": 58,
        "7006": 41,
        "7007": 64,
        "7008": 126,
        "7009": 101,
        "7010": 196,
        "7011": 123,
        "7012": 47,
        "7013": 133,
        "7014": 42,
        "7015": 173,
        "7016": 58,
        "7017": 223,
        "7018": 204,
        "7019": 199,
        "7020": 205,
        "7021": 99,
        "7022": 228,
        "7023": 27,
        "7024": 184,
        "7025": 49,
        "7026": 171,
        "7027": 230,
        "7028": 172,
        "7029": 228,
        "7030": 104,
        "7031": 38,
        "7032": 35,
        "7033": 33,
        "7034": 236,
        "7035": 32,
        "7036": 55,
        "7037": 58,
        "7038": 33,
        "7039": 181,
        "7040": 191,
        "7041": 205,
        "7042": 253,
        "7043": 46,
        "7044": 78,
        "7045": 122,
        "7046": 13,
        "7047": 87,
        "7048": 74,
        "7049": 41,
        "7050": 145,
        "7051": 162,
        "7052": 67,
        "7053": 141,
        "7054": 9,
        "7055": 96,
        "7056": 124,
        "7057": 99,
        "7058": 120,
        "7059": 170,
        "7060": 170,
        "7061": 173,
        "7062": 25,
        "7063": 77,
        "7064": 9,
        "7065": 197,
        "7066": 53,
        "7067": 108,
        "7068": 109,
        "7069": 226,
        "7070": 95,
        "7071": 53,
        "7072": 139,
        "7073": 25,
        "7074": 253,
        "7075": 170,
        "7076": 191,
        "7077": 43,
        "7078": 195,
        "7079": 42,
        "7080": 107,
        "7081": 200,
        "7082": 164,
        "7083": 128,
        "7084": 109,
        "7085": 206,
        "7086": 112,
        "7087": 232,
        "7088": 105,
        "7089": 51,
        "7090": 185,
        "7091": 16,
        "7092": 108,
        "7093": 92,
        "7094": 167,
        "7095": 83,
        "7096": 85,
        "7097": 149,
        "7098": 219,
        "7099": 153,
        "7100": 160,
        "7101": 81,
        "7102": 18,
        "7103": 60,
        "7104": 122,
        "7105": 140,
        "7106": 146,
        "7107": 224,
        "7108": 134,
        "7109": 215,
        "7110": 5,
        "7111": 72,
        "7112": 24,
        "7113": 93,
        "7114": 32,
        "7115": 169,
        "7116": 64,
        "7117": 172,
        "7118": 64,
        "7119": 156,
        "7120": 52,
        "7121": 19,
        "7122": 224,
        "7123": 189,
        "7124": 111,
        "7125": 192,
        "7126": 252,
        "7127": 52,
        "7128": 151,
        "7129": 18,
        "7130": 108,
        "7131": 115,
        "7132": 63,
        "7133": 156,
        "7134": 166,
        "7135": 28,
        "7136": 146,
        "7137": 201,
        "7138": 48,
        "7139": 69,
        "7140": 152,
        "7141": 249,
        "7142": 74,
        "7143": 178,
        "7144": 78,
        "7145": 63,
        "7146": 177,
        "7147": 83,
        "7148": 1,
        "7149": 231,
        "7150": 196,
        "7151": 112,
        "7152": 135,
        "7153": 80,
        "7154": 99,
        "7155": 140,
        "7156": 228,
        "7157": 134,
        "7158": 180,
        "7159": 55,
        "7160": 82,
        "7161": 173,
        "7162": 252,
        "7163": 240,
        "7164": 23,
        "7165": 247,
        "7166": 237,
        "7167": 231,
        "7168": 89,
        "7169": 195,
        "7170": 222,
        "7171": 155,
        "7172": 11,
        "7173": 249,
        "7174": 92,
        "7175": 252,
        "7176": 196,
        "7177": 154,
        "7178": 153,
        "7179": 159,
        "7180": 187,
        "7181": 78,
        "7182": 5,
        "7183": 141,
        "7184": 26,
        "7185": 149,
        "7186": 79,
        "7187": 102,
        "7188": 38,
        "7189": 45,
        "7190": 210,
        "7191": 17,
        "7192": 184,
        "7193": 156,
        "7194": 121,
        "7195": 33,
        "7196": 122,
        "7197": 247,
        "7198": 77,
        "7199": 13,
        "7200": 253,
        "7201": 86,
        "7202": 191,
        "7203": 76,
        "7204": 154,
        "7205": 41,
        "7206": 45,
        "7207": 103,
        "7208": 241,
        "7209": 231,
        "7210": 56,
        "7211": 108,
        "7212": 173,
        "7213": 147,
        "7214": 82,
        "7215": 56,
        "7216": 197,
        "7217": 146,
        "7218": 218,
        "7219": 19,
        "7220": 183,
        "7221": 221,
        "7222": 203,
        "7223": 29,
        "7224": 183,
        "7225": 74,
        "7226": 78,
        "7227": 176,
        "7228": 123,
        "7229": 121,
        "7230": 90,
        "7231": 2,
        "7232": 104,
        "7233": 87,
        "7234": 121,
        "7235": 24,
        "7236": 48,
        "7237": 154,
        "7238": 70,
        "7239": 48,
        "7240": 70,
        "7241": 251,
        "7242": 24,
        "7243": 226,
        "7244": 160,
        "7245": 69,
        "7246": 62,
        "7247": 251,
        "7248": 23,
        "7249": 233,
        "7250": 141,
        "7251": 122,
        "7252": 8,
        "7253": 190,
        "7254": 105,
        "7255": 250,
        "7256": 155,
        "7257": 134,
        "7258": 76,
        "7259": 57,
        "7260": 205,
        "7261": 187,
        "7262": 102,
        "7263": 57,
        "7264": 214,
        "7265": 228,
        "7266": 69,
        "7267": 244,
        "7268": 235,
        "7269": 63,
        "7270": 245,
        "7271": 148,
        "7272": 239,
        "7273": 174,
        "7274": 74,
        "7275": 62,
        "7276": 172,
        "7277": 55,
        "7278": 174,
        "7279": 20,
        "7280": 15,
        "7281": 163,
        "7282": 184,
        "7283": 227,
        "7284": 82,
        "7285": 240,
        "7286": 69,
        "7287": 207,
        "7288": 17,
        "7289": 61,
        "7290": 86,
        "7291": 191,
        "7292": 2,
        "7293": 31,
        "7294": 190,
        "7295": 141,
        "7296": 144,
        "7297": 95,
        "7298": 126,
        "7299": 175,
        "7300": 190,
        "7301": 61,
        "7302": 70,
        "7303": 12,
        "7304": 147,
        "7305": 157,
        "7306": 159,
        "7307": 224,
        "7308": 14,
        "7309": 123,
        "7310": 67,
        "7311": 250,
        "7312": 210,
        "7313": 135,
        "7314": 83,
        "7315": 222,
        "7316": 131,
        "7317": 254,
        "7318": 191,
        "7319": 227,
        "7320": 158,
        "7321": 205,
        "7322": 45,
        "7323": 181,
        "7324": 19,
        "7325": 113,
        "7326": 71,
        "7327": 15,
        "7328": 35,
        "7329": 101,
        "7330": 5,
        "7331": 12,
        "7332": 18,
        "7333": 239,
        "7334": 89,
        "7335": 8,
        "7336": 183,
        "7337": 83,
        "7338": 58,
        "7339": 85,
        "7340": 61,
        "7341": 19,
        "7342": 8,
        "7343": 136,
        "7344": 172,
        "7345": 131,
        "7346": 51,
        "7347": 171,
        "7348": 204,
        "7349": 91,
        "7350": 17,
        "7351": 168,
        "7352": 238,
        "7353": 50,
        "7354": 32,
        "7355": 146,
        "7356": 16,
        "7357": 166,
        "7358": 158,
        "7359": 217,
        "7360": 56,
        "7361": 31,
        "7362": 93,
        "7363": 29,
        "7364": 251,
        "7365": 29,
        "7366": 142,
        "7367": 137,
        "7368": 116,
        "7369": 125,
        "7370": 119,
        "7371": 228,
        "7372": 111,
        "7373": 184,
        "7374": 65,
        "7375": 60,
        "7376": 107,
        "7377": 38,
        "7378": 157,
        "7379": 102,
        "7380": 108,
        "7381": 27,
        "7382": 148,
        "7383": 1,
        "7384": 216,
        "7385": 182,
        "7386": 28,
        "7387": 83,
        "7388": 65,
        "7389": 224,
        "7390": 121,
        "7391": 246,
        "7392": 10,
        "7393": 56,
        "7394": 166,
        "7395": 30,
        "7396": 23,
        "7397": 88,
        "7398": 182,
        "7399": 33,
        "7400": 39,
        "7401": 139,
        "7402": 16,
        "7403": 126,
        "7404": 158,
        "7405": 55,
        "7406": 6,
        "7407": 228,
        "7408": 40,
        "7409": 244,
        "7410": 136,
        "7411": 219,
        "7412": 229,
        "7413": 151,
        "7414": 125,
        "7415": 154,
        "7416": 248,
        "7417": 89,
        "7418": 140,
        "7419": 235,
        "7420": 229,
        "7421": 147,
        "7422": 163,
        "7423": 248,
        "7424": 228,
        "7425": 51,
        "7426": 93,
        "7427": 155,
        "7428": 116,
        "7429": 229,
        "7430": 68,
        "7431": 248,
        "7432": 161,
        "7433": 6,
        "7434": 150,
        "7435": 183,
        "7436": 16,
        "7437": 230,
        "7438": 55,
        "7439": 190,
        "7440": 81,
        "7441": 99,
        "7442": 95,
        "7443": 148,
        "7444": 130,
        "7445": 10,
        "7446": 100,
        "7447": 82,
        "7448": 98,
        "7449": 98,
        "7450": 134,
        "7451": 79,
        "7452": 197,
        "7453": 207,
        "7454": 237,
        "7455": 3,
        "7456": 116,
        "7457": 238,
        "7458": 17,
        "7459": 236,
        "7460": 60,
        "7461": 42,
        "7462": 116,
        "7463": 221,
        "7464": 175,
        "7465": 239,
        "7466": 225,
        "7467": 76,
        "7468": 189,
        "7469": 253,
        "7470": 150,
        "7471": 242,
        "7472": 13,
        "7473": 33,
        "7474": 120,
        "7475": 217,
        "7476": 236,
        "7477": 242,
        "7478": 181,
        "7479": 218,
        "7480": 161,
        "7481": 0,
        "7482": 253,
        "7483": 254,
        "7484": 42,
        "7485": 244,
        "7486": 224,
        "7487": 217,
        "7488": 209,
        "7489": 195,
        "7490": 218,
        "7491": 34,
        "7492": 158,
        "7493": 79,
        "7494": 207,
        "7495": 198,
        "7496": 119,
        "7497": 72,
        "7498": 34,
        "7499": 131,
        "7500": 124,
        "7501": 9,
        "7502": 90,
        "7503": 26,
        "7504": 102,
        "7505": 197,
        "7506": 237,
        "7507": 43,
        "7508": 59,
        "7509": 89,
        "7510": 142,
        "7511": 124,
        "7512": 234,
        "7513": 220,
        "7514": 165,
        "7515": 118,
        "7516": 205,
        "7517": 188,
        "7518": 195,
        "7519": 219,
        "7520": 163,
        "7521": 6,
        "7522": 62,
        "7523": 238,
        "7524": 57,
        "7525": 62,
        "7526": 44,
        "7527": 78,
        "7528": 31,
        "7529": 85,
        "7530": 96,
        "7531": 117,
        "7532": 110,
        "7533": 37,
        "7534": 175,
        "7535": 113,
        "7536": 13,
        "7537": 44,
        "7538": 175,
        "7539": 68,
        "7540": 28,
        "7541": 75,
        "7542": 184,
        "7543": 133,
        "7544": 12,
        "7545": 108,
        "7546": 240,
        "7547": 140,
        "7548": 58,
        "7549": 155,
        "7550": 36,
        "7551": 194,
        "7552": 232,
        "7553": 115,
        "7554": 111,
        "7555": 180,
        "7556": 14,
        "7557": 21,
        "7558": 48,
        "7559": 204,
        "7560": 207,
        "7561": 77,
        "7562": 105,
        "7563": 78,
        "7564": 84,
        "7565": 223,
        "7566": 253,
        "7567": 60,
        "7568": 159,
        "7569": 109,
        "7570": 196,
        "7571": 69,
        "7572": 186,
        "7573": 156,
        "7574": 199,
        "7575": 45,
        "7576": 37,
        "7577": 35,
        "7578": 141,
        "7579": 1,
        "7580": 162,
        "7581": 102,
        "7582": 156,
        "7583": 160,
        "7584": 123,
        "7585": 177,
        "7586": 175,
        "7587": 8,
        "7588": 13,
        "7589": 55,
        "7590": 49,
        "7591": 230,
        "7592": 119,
        "7593": 194,
        "7594": 171,
        "7595": 171,
        "7596": 41,
        "7597": 41,
        "7598": 172,
        "7599": 117,
        "7600": 218,
        "7601": 48,
        "7602": 244,
        "7603": 106,
        "7604": 158,
        "7605": 20,
        "7606": 38,
        "7607": 90,
        "7608": 1,
        "7609": 10,
        "7610": 78,
        "7611": 227,
        "7612": 251,
        "7613": 100,
        "7614": 186,
        "7615": 79,
        "7616": 92,
        "7617": 76,
        "7618": 154,
        "7619": 29,
        "7620": 91,
        "7621": 208,
        "7622": 184,
        "7623": 63,
        "7624": 241,
        "7625": 224,
        "7626": 22,
        "7627": 175,
        "7628": 102,
        "7629": 51,
        "7630": 0,
        "7631": 225,
        "7632": 104,
        "7633": 197,
        "7634": 246,
        "7635": 176,
        "7636": 110,
        "7637": 134,
        "7638": 118,
        "7639": 129,
        "7640": 244,
        "7641": 8,
        "7642": 127,
        "7643": 43,
        "7644": 254,
        "7645": 208,
        "7646": 40,
        "7647": 30,
        "7648": 55,
        "7649": 136,
        "7650": 250,
        "7651": 198,
        "7652": 200,
        "7653": 53,
        "7654": 167,
        "7655": 145,
        "7656": 181,
        "7657": 213,
        "7658": 170,
        "7659": 39,
        "7660": 63,
        "7661": 87,
        "7662": 109,
        "7663": 2,
        "7664": 179,
        "7665": 154,
        "7666": 163,
        "7667": 215,
        "7668": 12,
        "7669": 77,
        "7670": 214,
        "7671": 99,
        "7672": 5,
        "7673": 66,
        "7674": 88,
        "7675": 117,
        "7676": 56,
        "7677": 208,
        "7678": 198,
        "7679": 10,
        "7680": 195,
        "7681": 143,
        "7682": 231,
        "7683": 72,
        "7684": 100,
        "7685": 191,
        "7686": 153,
        "7687": 110,
        "7688": 22,
        "7689": 255,
        "7690": 93,
        "7691": 5,
        "7692": 72,
        "7693": 179,
        "7694": 120,
        "7695": 173,
        "7696": 189,
        "7697": 95,
        "7698": 60,
        "7699": 199,
        "7700": 114,
        "7701": 159,
        "7702": 67,
        "7703": 241,
        "7704": 189,
        "7705": 130,
        "7706": 10,
        "7707": 120,
        "7708": 205,
        "7709": 213,
        "7710": 157,
        "7711": 138,
        "7712": 128,
        "7713": 181,
        "7714": 19,
        "7715": 106,
        "7716": 15,
        "7717": 198,
        "7718": 62,
        "7719": 196,
        "7720": 3,
        "7721": 56,
        "7722": 107,
        "7723": 19,
        "7724": 84,
        "7725": 168,
        "7726": 29,
        "7727": 215,
        "7728": 182,
        "7729": 170,
        "7730": 50,
        "7731": 134,
        "7732": 153,
        "7733": 175,
        "7734": 117,
        "7735": 135,
        "7736": 182,
        "7737": 248,
        "7738": 128,
        "7739": 204,
        "7740": 4,
        "7741": 96,
        "7742": 63,
        "7743": 176,
        "7744": 17,
        "7745": 34,
        "7746": 249,
        "7747": 227,
        "7748": 179,
        "7749": 187,
        "7750": 235,
        "7751": 151,
        "7752": 222,
        "7753": 240,
        "7754": 136,
        "7755": 107,
        "7756": 195,
        "7757": 4,
        "7758": 222,
        "7759": 89,
        "7760": 202,
        "7761": 20,
        "7762": 87,
        "7763": 90,
        "7764": 212,
        "7765": 26,
        "7766": 237,
        "7767": 50,
        "7768": 75,
        "7769": 240,
        "7770": 196,
        "7771": 204,
        "7772": 154,
        "7773": 139,
        "7774": 163,
        "7775": 167,
        "7776": 0,
        "7777": 104,
        "7778": 201,
        "7779": 90,
        "7780": 231,
        "7781": 115,
        "7782": 46,
        "7783": 153,
        "7784": 245,
        "7785": 191,
        "7786": 4,
        "7787": 155,
        "7788": 44,
        "7789": 172,
        "7790": 46,
        "7791": 206,
        "7792": 184,
        "7793": 247,
        "7794": 216,
        "7795": 90,
        "7796": 14,
        "7797": 253,
        "7798": 96,
        "7799": 154,
        "7800": 238,
        "7801": 52,
        "7802": 240,
        "7803": 81,
        "7804": 239,
        "7805": 46,
        "7806": 172,
        "7807": 193,
        "7808": 171,
        "7809": 99,
        "7810": 219,
        "7811": 9,
        "7812": 228,
        "7813": 209,
        "7814": 175,
        "7815": 177,
        "7816": 132,
        "7817": 60,
        "7818": 144,
        "7819": 78,
        "7820": 229,
        "7821": 35,
        "7822": 189,
        "7823": 179,
        "7824": 239,
        "7825": 171,
        "7826": 26,
        "7827": 143,
        "7828": 66,
        "7829": 159,
        "7830": 187,
        "7831": 57,
        "7832": 52,
        "7833": 62,
        "7834": 223,
        "7835": 158,
        "7836": 35,
        "7837": 176,
        "7838": 206,
        "7839": 92,
        "7840": 7,
        "7841": 95,
        "7842": 143,
        "7843": 74,
        "7844": 137,
        "7845": 126,
        "7846": 101,
        "7847": 58,
        "7848": 115,
        "7849": 168,
        "7850": 192,
        "7851": 185,
        "7852": 63,
        "7853": 31,
        "7854": 170,
        "7855": 217,
        "7856": 218,
        "7857": 212,
        "7858": 129,
        "7859": 166,
        "7860": 85,
        "7861": 239,
        "7862": 122,
        "7863": 0,
        "7864": 126,
        "7865": 23,
        "7866": 17,
        "7867": 225,
        "7868": 128,
        "7869": 151,
        "7870": 59,
        "7871": 133,
        "7872": 49,
        "7873": 168,
        "7874": 209,
        "7875": 209,
        "7876": 103,
        "7877": 208,
        "7878": 162,
        "7879": 220,
        "7880": 20,
        "7881": 115,
        "7882": 68,
        "7883": 146,
        "7884": 245,
        "7885": 253,
        "7886": 15,
        "7887": 236,
        "7888": 99,
        "7889": 153,
        "7890": 37,
        "7891": 13,
        "7892": 50,
        "7893": 60,
        "7894": 189,
        "7895": 80,
        "7896": 199,
        "7897": 124,
        "7898": 1,
        "7899": 86,
        "7900": 61,
        "7901": 250,
        "7902": 75,
        "7903": 140,
        "7904": 130,
        "7905": 32,
        "7906": 66,
        "7907": 53,
        "7908": 77,
        "7909": 15,
        "7910": 156,
        "7911": 171,
        "7912": 75,
        "7913": 160,
        "7914": 218,
        "7915": 254,
        "7916": 149,
        "7917": 220,
        "7918": 179,
        "7919": 180,
        "7920": 210,
        "7921": 146,
        "7922": 78,
        "7923": 49,
        "7924": 232,
        "7925": 240,
        "7926": 65,
        "7927": 235,
        "7928": 26,
        "7929": 140,
        "7930": 167,
        "7931": 172,
        "7932": 47,
        "7933": 197,
        "7934": 40,
        "7935": 116,
        "7936": 40,
        "7937": 228,
        "7938": 140,
        "7939": 247,
        "7940": 209,
        "7941": 76,
        "7942": 251,
        "7943": 71,
        "7944": 122,
        "7945": 133,
        "7946": 182,
        "7947": 217,
        "7948": 217,
        "7949": 246,
        "7950": 212,
        "7951": 89,
        "7952": 141,
        "7953": 80,
        "7954": 248,
        "7955": 228,
        "7956": 25,
        "7957": 136,
        "7958": 25,
        "7959": 252,
        "7960": 119,
        "7961": 152,
        "7962": 1,
        "7963": 180,
        "7964": 126,
        "7965": 139,
        "7966": 214,
        "7967": 211,
        "7968": 114,
        "7969": 90,
        "7970": 144,
        "7971": 183,
        "7972": 71,
        "7973": 47,
        "7974": 146,
        "7975": 163,
        "7976": 30,
        "7977": 0,
        "7978": 31,
        "7979": 225,
        "7980": 210,
        "7981": 41,
        "7982": 171,
        "7983": 184,
        "7984": 33,
        "7985": 37,
        "7986": 166,
        "7987": 227,
        "7988": 145,
        "7989": 176,
        "7990": 253,
        "7991": 195,
        "7992": 43,
        "7993": 53,
        "7994": 177,
        "7995": 0,
        "7996": 183,
        "7997": 209,
        "7998": 88,
        "7999": 74,
        "8000": 23,
        "8001": 165,
        "8002": 228,
        "8003": 153,
        "8004": 246,
        "8005": 34,
        "8006": 122,
        "8007": 33,
        "8008": 212,
        "8009": 129,
        "8010": 178,
        "8011": 139,
        "8012": 186,
        "8013": 213,
        "8014": 25,
        "8015": 131,
        "8016": 210,
        "8017": 48,
        "8018": 250,
        "8019": 66,
        "8020": 50,
        "8021": 225,
        "8022": 126,
        "8023": 98,
        "8024": 3,
        "8025": 207,
        "8026": 105,
        "8027": 247,
        "8028": 27,
        "8029": 48,
        "8030": 139,
        "8031": 76,
        "8032": 27,
        "8033": 158,
        "8034": 5,
        "8035": 185,
        "8036": 51,
        "8037": 169,
        "8038": 135,
        "8039": 146,
        "8040": 18,
        "8041": 64,
        "8042": 63,
        "8043": 195,
        "8044": 99,
        "8045": 113,
        "8046": 32,
        "8047": 160,
        "8048": 249,
        "8049": 79,
        "8050": 249,
        "8051": 15,
        "8052": 34,
        "8053": 75,
        "8054": 148,
        "8055": 171,
        "8056": 252,
        "8057": 54,
        "8058": 145,
        "8059": 123,
        "8060": 44,
        "8061": 173,
        "8062": 180,
        "8063": 171,
        "8064": 9,
        "8065": 128,
        "8066": 100,
        "8067": 138,
        "8068": 178,
        "8069": 6,
        "8070": 164,
        "8071": 162,
        "8072": 188,
        "8073": 160,
        "8074": 80,
        "8075": 38,
        "8076": 165,
        "8077": 38,
        "8078": 66,
        "8079": 246,
        "8080": 165,
        "8081": 124,
        "8082": 164,
        "8083": 58,
        "8084": 5,
        "8085": 49,
        "8086": 47,
        "8087": 231,
        "8088": 15,
        "8089": 177,
        "8090": 148,
        "8091": 40,
        "8092": 89,
        "8093": 107,
        "8094": 163,
        "8095": 131,
        "8096": 20,
        "8097": 102,
        "8098": 239,
        "8099": 106,
        "8100": 91,
        "8101": 188,
        "8102": 107,
        "8103": 204,
        "8104": 114,
        "8105": 198,
        "8106": 61,
        "8107": 239,
        "8108": 248,
        "8109": 249,
        "8110": 154,
        "8111": 190,
        "8112": 231,
        "8113": 42,
        "8114": 69,
        "8115": 16,
        "8116": 64,
        "8117": 248,
        "8118": 99,
        "8119": 41,
        "8120": 170,
        "8121": 84,
        "8122": 209,
        "8123": 82,
        "8124": 113,
        "8125": 163,
        "8126": 173,
        "8127": 145,
        "8128": 65,
        "8129": 3,
        "8130": 72,
        "8131": 131,
        "8132": 172,
        "8133": 193,
        "8134": 188,
        "8135": 159,
        "8136": 63,
        "8137": 8,
        "8138": 233,
        "8139": 83,
        "8140": 33,
        "8141": 10,
        "8142": 215,
        "8143": 83,
        "8144": 145,
        "8145": 156,
        "8146": 40,
        "8147": 202,
        "8148": 64,
        "8149": 152,
        "8150": 129,
        "8151": 241,
        "8152": 169,
        "8153": 181,
        "8154": 252,
        "8155": 111,
        "8156": 88,
        "8157": 231,
        "8158": 24,
        "8159": 200,
        "8160": 139,
        "8161": 22,
        "8162": 126,
        "8163": 75,
        "8164": 77,
        "8165": 175,
        "8166": 36,
        "8167": 127,
        "8168": 224,
        "8169": 166,
        "8170": 210,
        "8171": 7,
        "8172": 40,
        "8173": 132,
        "8174": 78,
        "8175": 56,
        "8176": 242,
        "8177": 1,
        "8178": 244,
        "8179": 14,
        "8180": 93,
        "8181": 147,
        "8182": 239,
        "8183": 219,
        "8184": 140,
        "8185": 142,
        "8186": 65,
        "8187": 231,
        "8188": 69,
        "8189": 8,
        "8190": 170,
        "8191": 38,
        "8192": 90,
        "8193": 30,
        "8194": 71,
        "8195": 167,
        "8196": 89,
        "8197": 99,
        "8198": 13,
        "8199": 194,
        "8200": 56,
        "8201": 225,
        "8202": 132,
        "8203": 220,
        "8204": 55,
        "8205": 141,
        "8206": 12,
        "8207": 95,
        "8208": 176,
        "8209": 78,
        "8210": 10,
        "8211": 183,
        "8212": 144,
        "8213": 224,
        "8214": 23,
        "8215": 88,
        "8216": 197,
        "8217": 199,
        "8218": 25,
        "8219": 0,
        "8220": 26,
        "8221": 131,
        "8222": 171,
        "8223": 189,
        "8224": 46,
        "8225": 231,
        "8226": 26,
        "8227": 1,
        "8228": 145,
        "8229": 135,
        "8230": 43,
        "8231": 95,
        "8232": 21,
        "8233": 111,
        "8234": 74,
        "8235": 59,
        "8236": 97,
        "8237": 244,
        "8238": 153,
        "8239": 38,
        "8240": 34,
        "8241": 116,
        "8242": 187,
        "8243": 232,
        "8244": 133,
        "8245": 246,
        "8246": 52,
        "8247": 245,
        "8248": 6,
        "8249": 215,
        "8250": 135,
        "8251": 85,
        "8252": 87,
        "8253": 63,
        "8254": 168,
        "8255": 79,
        "8256": 129,
        "8257": 253,
        "8258": 21,
        "8259": 102,
        "8260": 47,
        "8261": 99,
        "8262": 38,
        "8263": 68,
        "8264": 142,
        "8265": 234,
        "8266": 4,
        "8267": 59,
        "8268": 228,
        "8269": 170,
        "8270": 75,
        "8271": 137,
        "8272": 47,
        "8273": 5,
        "8274": 200,
        "8275": 190,
        "8276": 38,
        "8277": 3,
        "8278": 121,
        "8279": 150,
        "8280": 151,
        "8281": 16,
        "8282": 144,
        "8283": 122,
        "8284": 17,
        "8285": 208,
        "8286": 216,
        "8287": 230,
        "8288": 87,
        "8289": 188,
        "8290": 153,
        "8291": 50,
        "8292": 142,
        "8293": 1,
        "8294": 80,
        "8295": 244,
        "8296": 242,
        "8297": 15,
        "8298": 92,
        "8299": 199,
        "8300": 49,
        "8301": 242,
        "8302": 44,
        "8303": 179,
        "8304": 152,
        "8305": 102,
        "8306": 154,
        "8307": 135,
        "8308": 61,
        "8309": 254,
        "8310": 30,
        "8311": 209,
        "8312": 31,
        "8313": 128,
        "8314": 248,
        "8315": 129,
        "8316": 163,
        "8317": 165,
        "8318": 247,
        "8319": 155,
        "8320": 62,
        "8321": 28,
        "8322": 166,
        "8323": 140,
        "8324": 99,
        "8325": 225,
        "8326": 7,
        "8327": 175,
        "8328": 142,
        "8329": 111,
        "8330": 35,
        "8331": 53,
        "8332": 6,
        "8333": 49,
        "8334": 198,
        "8335": 246,
        "8336": 191,
        "8337": 249,
        "8338": 224,
        "8339": 31,
        "8340": 117,
        "8341": 203,
        "8342": 217,
        "8343": 212,
        "8344": 16,
        "8345": 0,
        "8346": 14,
        "8347": 85,
        "8348": 80,
        "8349": 81,
        "8350": 128,
        "8351": 16,
        "8352": 112,
        "8353": 81,
        "8354": 19,
        "8355": 146,
        "8356": 165,
        "8357": 113,
        "8358": 179,
        "8359": 19,
        "8360": 53,
        "8361": 126,
        "8362": 157,
        "8363": 25,
        "8364": 153,
        "8365": 172,
        "8366": 96,
        "8367": 117,
        "8368": 134,
        "8369": 182,
        "8370": 186,
        "8371": 187,
        "8372": 142,
        "8373": 220,
        "8374": 224,
        "8375": 208,
        "8376": 51,
        "8377": 49,
        "8378": 91,
        "8379": 242,
        "8380": 166,
        "8381": 17,
        "8382": 34,
        "8383": 126,
        "8384": 245,
        "8385": 214,
        "8386": 191,
        "8387": 216,
        "8388": 193,
        "8389": 250,
        "8390": 150,
        "8391": 16,
        "8392": 145,
        "8393": 238,
        "8394": 20,
        "8395": 94,
        "8396": 87,
        "8397": 12,
        "8398": 218,
        "8399": 241,
        "8400": 90,
        "8401": 109,
        "8402": 65,
        "8403": 165,
        "8404": 22,
        "8405": 120,
        "8406": 54,
        "8407": 96,
        "8408": 110,
        "8409": 141,
        "8410": 188,
        "8411": 214,
        "8412": 21,
        "8413": 214,
        "8414": 58,
        "8415": 189,
        "8416": 24,
        "8417": 20,
        "8418": 167,
        "8419": 104,
        "8420": 56,
        "8421": 42,
        "8422": 172,
        "8423": 179,
        "8424": 64,
        "8425": 197,
        "8426": 3,
        "8427": 43,
        "8428": 149,
        "8429": 143,
        "8430": 47,
        "8431": 130,
        "8432": 173,
        "8433": 73,
        "8434": 134,
        "8435": 78,
        "8436": 246,
        "8437": 116,
        "8438": 59,
        "8439": 168,
        "8440": 176,
        "8441": 218,
        "8442": 88,
        "8443": 230,
        "8444": 184,
        "8445": 77,
        "8446": 186,
        "8447": 244,
        "8448": 106,
        "8449": 111,
        "8450": 143,
        "8451": 182,
        "8452": 86,
        "8453": 66,
        "8454": 18,
        "8455": 135,
        "8456": 73,
        "8457": 139,
        "8458": 40,
        "8459": 249,
        "8460": 121,
        "8461": 45,
        "8462": 124,
        "8463": 126,
        "8464": 25,
        "8465": 202,
        "8466": 36,
        "8467": 241,
        "8468": 221,
        "8469": 164,
        "8470": 166,
        "8471": 126,
        "8472": 65,
        "8473": 152,
        "8474": 159,
        "8475": 25,
        "8476": 231,
        "8477": 225,
        "8478": 52,
        "8479": 247,
        "8480": 111,
        "8481": 34,
        "8482": 6,
        "8483": 191,
        "8484": 40,
        "8485": 196,
        "8486": 23,
        "8487": 39,
        "8488": 104,
        "8489": 169,
        "8490": 237,
        "8491": 124,
        "8492": 34,
        "8493": 54,
        "8494": 35,
        "8495": 5,
        "8496": 44,
        "8497": 124,
        "8498": 123,
        "8499": 243,
        "8500": 148,
        "8501": 132,
        "8502": 34,
        "8503": 217,
        "8504": 97,
        "8505": 77,
        "8506": 173,
        "8507": 153,
        "8508": 97,
        "8509": 45,
        "8510": 218,
        "8511": 186,
        "8512": 143,
        "8513": 95,
        "8514": 9,
        "8515": 50,
        "8516": 127,
        "8517": 160,
        "8518": 185,
        "8519": 200,
        "8520": 149,
        "8521": 5,
        "8522": 240,
        "8523": 135,
        "8524": 208,
        "8525": 212,
        "8526": 106,
        "8527": 36,
        "8528": 102,
        "8529": 238,
        "8530": 173,
        "8531": 79,
        "8532": 189,
        "8533": 21,
        "8534": 52,
        "8535": 108,
        "8536": 65,
        "8537": 49,
        "8538": 218,
        "8539": 228,
        "8540": 213,
        "8541": 221,
        "8542": 166,
        "8543": 29,
        "8544": 127,
        "8545": 183,
        "8546": 172,
        "8547": 128,
        "8548": 165,
        "8549": 213,
        "8550": 129,
        "8551": 162,
        "8552": 194,
        "8553": 143,
        "8554": 85,
        "8555": 125,
        "8556": 98,
        "8557": 46,
        "8558": 6,
        "8559": 216,
        "8560": 244,
        "8561": 38,
        "8562": 76,
        "8563": 89,
        "8564": 92,
        "8565": 33,
        "8566": 117,
        "8567": 201,
        "8568": 167,
        "8569": 97,
        "8570": 235,
        "8571": 94,
        "8572": 255,
        "8573": 194,
        "8574": 44,
        "8575": 89,
        "8576": 2,
        "8577": 239,
        "8578": 81,
        "8579": 147,
        "8580": 11,
        "8581": 44,
        "8582": 150,
        "8583": 206,
        "8584": 150,
        "8585": 223,
        "8586": 227,
        "8587": 57,
        "8588": 64,
        "8589": 221,
        "8590": 49,
        "8591": 47,
        "8592": 152,
        "8593": 57,
        "8594": 53,
        "8595": 28,
        "8596": 10,
        "8597": 48,
        "8598": 54,
        "8599": 191,
        "8600": 64,
        "8601": 55,
        "8602": 165,
        "8603": 12,
        "8604": 164,
        "8605": 96,
        "8606": 26,
        "8607": 62,
        "8608": 95,
        "8609": 200,
        "8610": 46,
        "8611": 94,
        "8612": 69,
        "8613": 131,
        "8614": 188,
        "8615": 110,
        "8616": 93,
        "8617": 159,
        "8618": 142,
        "8619": 158,
        "8620": 66,
        "8621": 118,
        "8622": 61,
        "8623": 126,
        "8624": 112,
        "8625": 190,
        "8626": 42,
        "8627": 142,
        "8628": 13,
        "8629": 158,
        "8630": 178,
        "8631": 153,
        "8632": 41,
        "8633": 235,
        "8634": 130,
        "8635": 8,
        "8636": 111,
        "8637": 28,
        "8638": 249,
        "8639": 127,
        "8640": 234,
        "8641": 234,
        "8642": 23,
        "8643": 206,
        "8644": 35,
        "8645": 223,
        "8646": 211,
        "8647": 96,
        "8648": 254,
        "8649": 28,
        "8650": 122,
        "8651": 138,
        "8652": 61,
        "8653": 33,
        "8654": 30,
        "8655": 23,
        "8656": 1,
        "8657": 246,
        "8658": 184,
        "8659": 206,
        "8660": 57,
        "8661": 130,
        "8662": 178,
        "8663": 30,
        "8664": 16,
        "8665": 95,
        "8666": 187,
        "8667": 99,
        "8668": 47,
        "8669": 224,
        "8670": 199,
        "8671": 151,
        "8672": 152,
        "8673": 170,
        "8674": 218,
        "8675": 192,
        "8676": 26,
        "8677": 181,
        "8678": 120,
        "8679": 169,
        "8680": 170,
        "8681": 89,
        "8682": 219,
        "8683": 165,
        "8684": 230,
        "8685": 212,
        "8686": 34,
        "8687": 54,
        "8688": 165,
        "8689": 201,
        "8690": 98,
        "8691": 128,
        "8692": 157,
        "8693": 103,
        "8694": 199,
        "8695": 15,
        "8696": 24,
        "8697": 159,
        "8698": 204,
        "8699": 103,
        "8700": 175,
        "8701": 104,
        "8702": 192,
        "8703": 4,
        "8704": 16,
        "8705": 11,
        "8706": 167,
        "8707": 217,
        "8708": 136,
        "8709": 235,
        "8710": 25,
        "8711": 31,
        "8712": 214,
        "8713": 73,
        "8714": 23,
        "8715": 77,
        "8716": 68,
        "8717": 217,
        "8718": 216,
        "8719": 19,
        "8720": 6,
        "8721": 74,
        "8722": 140,
        "8723": 226,
        "8724": 108,
        "8725": 175,
        "8726": 122,
        "8727": 40,
        "8728": 152,
        "8729": 72,
        "8730": 23,
        "8731": 118,
        "8732": 74,
        "8733": 69,
        "8734": 51,
        "8735": 108,
        "8736": 6,
        "8737": 233,
        "8738": 14,
        "8739": 15,
        "8740": 56,
        "8741": 117,
        "8742": 151,
        "8743": 217,
        "8744": 254,
        "8745": 190,
        "8746": 124,
        "8747": 21,
        "8748": 201,
        "8749": 225,
        "8750": 214,
        "8751": 186,
        "8752": 118,
        "8753": 221,
        "8754": 81,
        "8755": 42,
        "8756": 131,
        "8757": 130,
        "8758": 38,
        "8759": 216,
        "8760": 198,
        "8761": 58,
        "8762": 249,
        "8763": 106,
        "8764": 104,
        "8765": 70,
        "8766": 204,
        "8767": 204,
        "8768": 20,
        "8769": 106,
        "8770": 209,
        "8771": 24,
        "8772": 0,
        "8773": 63,
        "8774": 207,
        "8775": 209,
        "8776": 18,
        "8777": 189,
        "8778": 219,
        "8779": 182,
        "8780": 136,
        "8781": 45,
        "8782": 195,
        "8783": 182,
        "8784": 69,
        "8785": 233,
        "8786": 209,
        "8787": 219,
        "8788": 122,
        "8789": 173,
        "8790": 32,
        "8791": 73,
        "8792": 14,
        "8793": 60,
        "8794": 209,
        "8795": 188,
        "8796": 132,
        "8797": 226,
        "8798": 73,
        "8799": 206,
        "8800": 181,
        "8801": 195,
        "8802": 198,
        "8803": 236,
        "8804": 129,
        "8805": 255,
        "8806": 192,
        "8807": 6,
        "8808": 155,
        "8809": 38,
        "8810": 228,
        "8811": 240,
        "8812": 181,
        "8813": 105,
        "8814": 219,
        "8815": 128,
        "8816": 104,
        "8817": 25,
        "8818": 178,
        "8819": 82,
        "8820": 223,
        "8821": 47,
        "8822": 149,
        "8823": 164,
        "8824": 63,
        "8825": 45,
        "8826": 190,
        "8827": 154,
        "8828": 235,
        "8829": 255,
        "8830": 12,
        "8831": 160,
        "8832": 63,
        "8833": 96,
        "8834": 117,
        "8835": 222,
        "8836": 28,
        "8837": 28,
        "8838": 11,
        "8839": 200,
        "8840": 152,
        "8841": 242,
        "8842": 238,
        "8843": 167,
        "8844": 17,
        "8845": 206,
        "8846": 160,
        "8847": 99,
        "8848": 171,
        "8849": 140,
        "8850": 117,
        "8851": 92,
        "8852": 140,
        "8853": 4,
        "8854": 248,
        "8855": 16,
        "8856": 84,
        "8857": 170,
        "8858": 34,
        "8859": 147,
        "8860": 181,
        "8861": 196,
        "8862": 119,
        "8863": 175,
        "8864": 196,
        "8865": 94,
        "8866": 115,
        "8867": 3,
        "8868": 144,
        "8869": 197,
        "8870": 173,
        "8871": 91,
        "8872": 222,
        "8873": 180,
        "8874": 191,
        "8875": 231,
        "8876": 2,
        "8877": 127,
        "8878": 60,
        "8879": 130,
        "8880": 147,
        "8881": 104,
        "8882": 219,
        "8883": 4,
        "8884": 249,
        "8885": 81,
        "8886": 115,
        "8887": 132,
        "8888": 240,
        "8889": 195,
        "8890": 65,
        "8891": 185,
        "8892": 155,
        "8893": 179,
        "8894": 40,
        "8895": 199,
        "8896": 143,
        "8897": 194,
        "8898": 174,
        "8899": 18,
        "8900": 148,
        "8901": 185,
        "8902": 220,
        "8903": 66,
        "8904": 181,
        "8905": 32,
        "8906": 22,
        "8907": 21,
        "8908": 239,
        "8909": 90,
        "8910": 146,
        "8911": 226,
        "8912": 181,
        "8913": 206,
        "8914": 204,
        "8915": 101,
        "8916": 246,
        "8917": 31,
        "8918": 96,
        "8919": 0,
        "8920": 16,
        "8921": 124,
        "8922": 197,
        "8923": 236,
        "8924": 194,
        "8925": 228,
        "8926": 77,
        "8927": 234,
        "8928": 56,
        "8929": 51,
        "8930": 235,
        "8931": 169,
        "8932": 68,
        "8933": 99,
        "8934": 192,
        "8935": 213,
        "8936": 129,
        "8937": 243,
        "8938": 255,
        "8939": 142,
        "8940": 202,
        "8941": 75,
        "8942": 117,
        "8943": 99,
        "8944": 199,
        "8945": 150,
        "8946": 2,
        "8947": 24,
        "8948": 219,
        "8949": 89,
        "8950": 2,
        "8951": 70,
        "8952": 205,
        "8953": 21,
        "8954": 240,
        "8955": 56,
        "8956": 172,
        "8957": 119,
        "8958": 186,
        "8959": 115,
        "8960": 216,
        "8961": 101,
        "8962": 172,
        "8963": 202,
        "8964": 10,
        "8965": 44,
        "8966": 213,
        "8967": 159,
        "8968": 41,
        "8969": 199,
        "8970": 128,
        "8971": 54,
        "8972": 219,
        "8973": 16,
        "8974": 22,
        "8975": 35,
        "8976": 31,
        "8977": 241,
        "8978": 161,
        "8979": 74,
        "8980": 15,
        "8981": 33,
        "8982": 128,
        "8983": 74,
        "8984": 136,
        "8985": 106,
        "8986": 74,
        "8987": 1,
        "8988": 7,
        "8989": 229,
        "8990": 112,
        "8991": 199,
        "8992": 244,
        "8993": 167,
        "8994": 82,
        "8995": 82,
        "8996": 44,
        "8997": 112,
        "8998": 224,
        "8999": 181,
        "9000": 88,
        "9001": 90,
        "9002": 121,
        "9003": 110,
        "9004": 227,
        "9005": 253,
        "9006": 134,
        "9007": 68,
        "9008": 144,
        "9009": 99,
        "9010": 35,
        "9011": 144,
        "9012": 205,
        "9013": 40,
        "9014": 66,
        "9015": 37,
        "9016": 47,
        "9017": 197,
        "9018": 78,
        "9019": 190,
        "9020": 192,
        "9021": 38,
        "9022": 54,
        "9023": 2,
        "9024": 219,
        "9025": 157,
        "9026": 244,
        "9027": 217,
        "9028": 145,
        "9029": 165,
        "9030": 48,
        "9031": 154,
        "9032": 176,
        "9033": 16,
        "9034": 28,
        "9035": 116,
        "9036": 230,
        "9037": 227,
        "9038": 33,
        "9039": 239,
        "9040": 71,
        "9041": 119,
        "9042": 63,
        "9043": 215,
        "9044": 197,
        "9045": 145,
        "9046": 242,
        "9047": 9,
        "9048": 179,
        "9049": 114,
        "9050": 4,
        "9051": 123,
        "9052": 129,
        "9053": 164,
        "9054": 28,
        "9055": 133,
        "9056": 139,
        "9057": 206,
        "9058": 193,
        "9059": 242,
        "9060": 73,
        "9061": 38,
        "9062": 11,
        "9063": 215,
        "9064": 222,
        "9065": 189,
        "9066": 233,
        "9067": 190,
        "9068": 196,
        "9069": 44,
        "9070": 163,
        "9071": 180,
        "9072": 219,
        "9073": 95,
        "9074": 79,
        "9075": 178,
        "9076": 5,
        "9077": 229,
        "9078": 178,
        "9079": 158,
        "9080": 12,
        "9081": 66,
        "9082": 245,
        "9083": 185,
        "9084": 158,
        "9085": 67,
        "9086": 194,
        "9087": 174,
        "9088": 68,
        "9089": 16,
        "9090": 22,
        "9091": 55,
        "9092": 78,
        "9093": 18,
        "9094": 98,
        "9095": 8,
        "9096": 222,
        "9097": 70,
        "9098": 187,
        "9099": 244,
        "9100": 77,
        "9101": 39,
        "9102": 116,
        "9103": 59,
        "9104": 101,
        "9105": 177,
        "9106": 140,
        "9107": 130,
        "9108": 7,
        "9109": 235,
        "9110": 255,
        "9111": 241,
        "9112": 116,
        "9113": 175,
        "9114": 237,
        "9115": 160,
        "9116": 203,
        "9117": 217,
        "9118": 105,
        "9119": 163,
        "9120": 140,
        "9121": 0,
        "9122": 20,
        "9123": 137,
        "9124": 216,
        "9125": 103,
        "9126": 215,
        "9127": 102,
        "9128": 163,
        "9129": 187,
        "9130": 216,
        "9131": 160,
        "9132": 17,
        "9133": 191,
        "9134": 72,
        "9135": 148,
        "9136": 63,
        "9137": 191,
        "9138": 164,
        "9139": 142,
        "9140": 7,
        "9141": 38,
        "9142": 117,
        "9143": 80,
        "9144": 211,
        "9145": 2,
        "9146": 215,
        "9147": 215,
        "9148": 89,
        "9149": 64,
        "9150": 166,
        "9151": 157,
        "9152": 39,
        "9153": 196,
        "9154": 126,
        "9155": 247,
        "9156": 8,
        "9157": 194,
        "9158": 58,
        "9159": 221,
        "9160": 205,
        "9161": 6,
        "9162": 62,
        "9163": 98,
        "9164": 215,
        "9165": 176,
        "9166": 208,
        "9167": 176,
        "9168": 74,
        "9169": 119,
        "9170": 212,
        "9171": 38,
        "9172": 59,
        "9173": 155,
        "9174": 31,
        "9175": 117,
        "9176": 204,
        "9177": 180,
        "9178": 239,
        "9179": 215,
        "9180": 56,
        "9181": 58,
        "9182": 87,
        "9183": 190,
        "9184": 133,
        "9185": 251,
        "9186": 104,
        "9187": 158,
        "9188": 248,
        "9189": 12,
        "9190": 233,
        "9191": 212,
        "9192": 21,
        "9193": 146,
        "9194": 116,
        "9195": 144,
        "9196": 195,
        "9197": 28,
        "9198": 246,
        "9199": 177,
        "9200": 227,
        "9201": 160,
        "9202": 49,
        "9203": 64,
        "9204": 251,
        "9205": 27,
        "9206": 32,
        "9207": 64,
        "9208": 206,
        "9209": 148,
        "9210": 193,
        "9211": 240,
        "9212": 202,
        "9213": 13,
        "9214": 17,
        "9215": 82,
        "9216": 116,
        "9217": 167,
        "9218": 160,
        "9219": 50,
        "9220": 241,
        "9221": 212,
        "9222": 143,
        "9223": 126,
        "9224": 173,
        "9225": 125,
        "9226": 78,
        "9227": 91,
        "9228": 93,
        "9229": 227,
        "9230": 69,
        "9231": 14,
        "9232": 25,
        "9233": 205,
        "9234": 236,
        "9235": 145,
        "9236": 12,
        "9237": 109,
        "9238": 51,
        "9239": 239,
        "9240": 174,
        "9241": 136,
        "9242": 62,
        "9243": 192,
        "9244": 137,
        "9245": 130,
        "9246": 231,
        "9247": 15,
        "9248": 146,
        "9249": 3,
        "9250": 249,
        "9251": 188,
        "9252": 228,
        "9253": 230,
        "9254": 21,
        "9255": 171,
        "9256": 147,
        "9257": 87,
        "9258": 128,
        "9259": 105,
        "9260": 234,
        "9261": 162,
        "9262": 11,
        "9263": 229,
        "9264": 17,
        "9265": 152,
        "9266": 131,
        "9267": 70,
        "9268": 69,
        "9269": 39,
        "9270": 23,
        "9271": 103,
        "9272": 209,
        "9273": 67,
        "9274": 184,
        "9275": 35,
        "9276": 79,
        "9277": 83,
        "9278": 44,
        "9279": 98,
        "9280": 125,
        "9281": 110,
        "9282": 184,
        "9283": 5,
        "9284": 58,
        "9285": 235,
        "9286": 227,
        "9287": 137,
        "9288": 89,
        "9289": 84,
        "9290": 46,
        "9291": 43,
        "9292": 33,
        "9293": 23,
        "9294": 76,
        "9295": 250,
        "9296": 24,
        "9297": 84,
        "9298": 83,
        "9299": 185,
        "9300": 247,
        "9301": 165,
        "9302": 160,
        "9303": 105,
        "9304": 80,
        "9305": 249,
        "9306": 135,
        "9307": 248,
        "9308": 88,
        "9309": 120,
        "9310": 190,
        "9311": 173,
        "9312": 151,
        "9313": 97,
        "9314": 135,
        "9315": 103,
        "9316": 170,
        "9317": 59,
        "9318": 228,
        "9319": 35,
        "9320": 217,
        "9321": 170,
        "9322": 79,
        "9323": 99,
        "9324": 147,
        "9325": 30,
        "9326": 61,
        "9327": 72,
        "9328": 212,
        "9329": 101,
        "9330": 219,
        "9331": 4,
        "9332": 56,
        "9333": 51,
        "9334": 120,
        "9335": 237,
        "9336": 61,
        "9337": 92,
        "9338": 71,
        "9339": 109,
        "9340": 225,
        "9341": 240,
        "9342": 253,
        "9343": 132,
        "9344": 250,
        "9345": 219,
        "9346": 252,
        "9347": 116,
        "9348": 14,
        "9349": 184,
        "9350": 145,
        "9351": 254,
        "9352": 41,
        "9353": 197,
        "9354": 224,
        "9355": 67,
        "9356": 185,
        "9357": 174,
        "9358": 49,
        "9359": 97,
        "9360": 23,
        "9361": 38,
        "9362": 89,
        "9363": 235,
        "9364": 151,
        "9365": 61,
        "9366": 126,
        "9367": 132,
        "9368": 80,
        "9369": 12,
        "9370": 28,
        "9371": 97,
        "9372": 85,
        "9373": 146,
        "9374": 188,
        "9375": 83,
        "9376": 53,
        "9377": 78,
        "9378": 157,
        "9379": 76,
        "9380": 175,
        "9381": 188,
        "9382": 32,
        "9383": 130,
        "9384": 15,
        "9385": 200,
        "9386": 193,
        "9387": 195,
        "9388": 66,
        "9389": 125,
        "9390": 14,
        "9391": 38,
        "9392": 64,
        "9393": 101,
        "9394": 129,
        "9395": 125,
        "9396": 244,
        "9397": 205,
        "9398": 142,
        "9399": 98,
        "9400": 242,
        "9401": 125,
        "9402": 55,
        "9403": 33,
        "9404": 123,
        "9405": 216,
        "9406": 214,
        "9407": 215,
        "9408": 231,
        "9409": 23,
        "9410": 135,
        "9411": 152,
        "9412": 89,
        "9413": 22,
        "9414": 134,
        "9415": 219,
        "9416": 137,
        "9417": 51,
        "9418": 21,
        "9419": 213,
        "9420": 118,
        "9421": 77,
        "9422": 121,
        "9423": 13,
        "9424": 115,
        "9425": 65,
        "9426": 49,
        "9427": 51,
        "9428": 11,
        "9429": 178,
        "9430": 89,
        "9431": 59,
        "9432": 218,
        "9433": 119,
        "9434": 11,
        "9435": 185,
        "9436": 104,
        "9437": 129,
        "9438": 38,
        "9439": 125,
        "9440": 49,
        "9441": 231,
        "9442": 241,
        "9443": 171,
        "9444": 135,
        "9445": 135,
        "9446": 121,
        "9447": 71,
        "9448": 252,
        "9449": 162,
        "9450": 157,
        "9451": 145,
        "9452": 11,
        "9453": 45,
        "9454": 220,
        "9455": 148,
        "9456": 149,
        "9457": 199,
        "9458": 253,
        "9459": 68,
        "9460": 121,
        "9461": 116,
        "9462": 152,
        "9463": 149,
        "9464": 102,
        "9465": 247,
        "9466": 173,
        "9467": 212,
        "9468": 140,
        "9469": 12,
        "9470": 80,
        "9471": 245,
        "9472": 37,
        "9473": 246,
        "9474": 165,
        "9475": 121,
        "9476": 16,
        "9477": 165,
        "9478": 220,
        "9479": 141,
        "9480": 69,
        "9481": 19,
        "9482": 145,
        "9483": 186,
        "9484": 237,
        "9485": 142,
        "9486": 49,
        "9487": 162,
        "9488": 126,
        "9489": 108,
        "9490": 192,
        "9491": 146,
        "9492": 4,
        "9493": 91,
        "9494": 70,
        "9495": 36,
        "9496": 39,
        "9497": 175,
        "9498": 125,
        "9499": 109,
        "9500": 225,
        "9501": 184,
        "9502": 119,
        "9503": 239,
        "9504": 208,
        "9505": 29,
        "9506": 190,
        "9507": 184,
        "9508": 28,
        "9509": 4,
        "9510": 67,
        "9511": 45,
        "9512": 111,
        "9513": 9,
        "9514": 77,
        "9515": 205,
        "9516": 183,
        "9517": 77,
        "9518": 18,
        "9519": 127,
        "9520": 32,
        "9521": 179,
        "9522": 91,
        "9523": 162,
        "9524": 200,
        "9525": 27,
        "9526": 188,
        "9527": 127,
        "9528": 72,
        "9529": 163,
        "9530": 143,
        "9531": 138,
        "9532": 101,
        "9533": 1,
        "9534": 193,
        "9535": 239,
        "9536": 170,
        "9537": 203,
        "9538": 122,
        "9539": 93,
        "9540": 74,
        "9541": 203,
        "9542": 41,
        "9543": 87,
        "9544": 238,
        "9545": 81,
        "9546": 192,
        "9547": 148,
        "9548": 140,
        "9549": 37,
        "9550": 230,
        "9551": 241,
        "9552": 126,
        "9553": 45,
        "9554": 48,
        "9555": 123,
        "9556": 86,
        "9557": 51,
        "9558": 103,
        "9559": 142,
        "9560": 3,
        "9561": 230,
        "9562": 159,
        "9563": 133,
        "9564": 114,
        "9565": 148,
        "9566": 112,
        "9567": 144,
        "9568": 69,
        "9569": 45,
        "9570": 96,
        "9571": 148,
        "9572": 76,
        "9573": 238,
        "9574": 44,
        "9575": 44,
        "9576": 81,
        "9577": 240,
        "9578": 134,
        "9579": 114,
        "9580": 11,
        "9581": 70,
        "9582": 10,
        "9583": 21,
        "9584": 183,
        "9585": 23,
        "9586": 73,
        "9587": 20,
        "9588": 109,
        "9589": 52,
        "9590": 83,
        "9591": 115,
        "9592": 152,
        "9593": 81,
        "9594": 217,
        "9595": 224,
        "9596": 213,
        "9597": 229,
        "9598": 238,
        "9599": 103,
        "9600": 156,
        "9601": 0,
        "9602": 105,
        "9603": 216,
        "9604": 53,
        "9605": 199,
        "9606": 184,
        "9607": 235,
        "9608": 144,
        "9609": 106,
        "9610": 16,
        "9611": 137,
        "9612": 140,
        "9613": 1,
        "9614": 176,
        "9615": 250,
        "9616": 202,
        "9617": 142,
        "9618": 173,
        "9619": 202,
        "9620": 237,
        "9621": 170,
        "9622": 128,
        "9623": 41,
        "9624": 158,
        "9625": 15,
        "9626": 65,
        "9627": 56,
        "9628": 244,
        "9629": 251,
        "9630": 227,
        "9631": 62,
        "9632": 91,
        "9633": 17,
        "9634": 22,
        "9635": 34,
        "9636": 154,
        "9637": 206,
        "9638": 14,
        "9639": 97,
        "9640": 76,
        "9641": 203,
        "9642": 249,
        "9643": 194,
        "9644": 183,
        "9645": 170,
        "9646": 225,
        "9647": 233,
        "9648": 87,
        "9649": 0,
        "9650": 126,
        "9651": 193,
        "9652": 157,
        "9653": 237,
        "9654": 60,
        "9655": 18,
        "9656": 196,
        "9657": 30,
        "9658": 255,
        "9659": 129,
        "9660": 227,
        "9661": 78,
        "9662": 19,
        "9663": 41,
        "9664": 196,
        "9665": 110,
        "9666": 213,
        "9667": 50,
        "9668": 201,
        "9669": 217,
        "9670": 103,
        "9671": 58,
        "9672": 37,
        "9673": 80,
        "9674": 36,
        "9675": 168,
        "9676": 73,
        "9677": 7,
        "9678": 133,
        "9679": 244,
        "9680": 152,
        "9681": 176,
        "9682": 130,
        "9683": 244,
        "9684": 48,
        "9685": 205,
        "9686": 13,
        "9687": 231,
        "9688": 120,
        "9689": 79,
        "9690": 142,
        "9691": 180,
        "9692": 26,
        "9693": 250,
        "9694": 109,
        "9695": 218,
        "9696": 89,
        "9697": 225,
        "9698": 181,
        "9699": 163,
        "9700": 154,
        "9701": 105,
        "9702": 238,
        "9703": 249,
        "9704": 145,
        "9705": 8,
        "9706": 157,
        "9707": 102,
        "9708": 47,
        "9709": 199,
        "9710": 130,
        "9711": 84,
        "9712": 148,
        "9713": 172,
        "9714": 38,
        "9715": 175,
        "9716": 224,
        "9717": 3,
        "9718": 118,
        "9719": 177,
        "9720": 32,
        "9721": 241,
        "9722": 229,
        "9723": 81,
        "9724": 104,
        "9725": 36,
        "9726": 205,
        "9727": 175,
        "9728": 52,
        "9729": 168,
        "9730": 245,
        "9731": 42,
        "9732": 141,
        "9733": 255,
        "9734": 107,
        "9735": 81,
        "9736": 27,
        "9737": 87,
        "9738": 63,
        "9739": 135,
        "9740": 249,
        "9741": 0,
        "9742": 14,
        "9743": 108,
        "9744": 102,
        "9745": 0,
        "9746": 73,
        "9747": 183,
        "9748": 133,
        "9749": 216,
        "9750": 155,
        "9751": 213,
        "9752": 70,
        "9753": 109,
        "9754": 27,
        "9755": 253,
        "9756": 74,
        "9757": 198,
        "9758": 100,
        "9759": 227,
        "9760": 213,
        "9761": 29,
        "9762": 229,
        "9763": 169,
        "9764": 14,
        "9765": 182,
        "9766": 20,
        "9767": 165,
        "9768": 183,
        "9769": 249,
        "9770": 235,
        "9771": 65,
        "9772": 0,
        "9773": 214,
        "9774": 95,
        "9775": 44,
        "9776": 184,
        "9777": 178,
        "9778": 96,
        "9779": 35,
        "9780": 159,
        "9781": 169,
        "9782": 61,
        "9783": 18,
        "9784": 133,
        "9785": 77,
        "9786": 28,
        "9787": 21,
        "9788": 1,
        "9789": 255,
        "9790": 119,
        "9791": 155,
        "9792": 33,
        "9793": 118,
        "9794": 13,
        "9795": 189,
        "9796": 250,
        "9797": 117,
        "9798": 36,
        "9799": 251,
        "9800": 48,
        "9801": 101,
        "9802": 154,
        "9803": 183,
        "9804": 48,
        "9805": 213,
        "9806": 64,
        "9807": 71,
        "9808": 65,
        "9809": 248,
        "9810": 104,
        "9811": 97,
        "9812": 12,
        "9813": 169,
        "9814": 179,
        "9815": 208,
        "9816": 6,
        "9817": 196,
        "9818": 23,
        "9819": 11,
        "9820": 78,
        "9821": 208,
        "9822": 118,
        "9823": 192,
        "9824": 201,
        "9825": 159,
        "9826": 15,
        "9827": 148,
        "9828": 192,
        "9829": 86,
        "9830": 30,
        "9831": 86,
        "9832": 26,
        "9833": 193,
        "9834": 10,
        "9835": 252,
        "9836": 0,
        "9837": 194,
        "9838": 151,
        "9839": 92,
        "9840": 37,
        "9841": 68,
        "9842": 196,
        "9843": 33,
        "9844": 13,
        "9845": 114,
        "9846": 62,
        "9847": 176,
        "9848": 17,
        "9849": 122,
        "9850": 193,
        "9851": 149,
        "9852": 178,
        "9853": 158,
        "9854": 97,
        "9855": 210,
        "9856": 188,
        "9857": 127,
        "9858": 70,
        "9859": 205,
        "9860": 160,
        "9861": 192,
        "9862": 126,
        "9863": 215,
        "9864": 97,
        "9865": 131,
        "9866": 34,
        "9867": 186,
        "9868": 80,
        "9869": 172,
        "9870": 206,
        "9871": 71,
        "9872": 237,
        "9873": 250,
        "9874": 144,
        "9875": 240,
        "9876": 46,
        "9877": 189,
        "9878": 255,
        "9879": 144,
        "9880": 178,
        "9881": 238,
        "9882": 234,
        "9883": 96,
        "9884": 203,
        "9885": 77,
        "9886": 32,
        "9887": 125,
        "9888": 29,
        "9889": 189,
        "9890": 176,
        "9891": 194,
        "9892": 139,
        "9893": 34,
        "9894": 191,
        "9895": 46,
        "9896": 54,
        "9897": 217,
        "9898": 42,
        "9899": 255,
        "9900": 166,
        "9901": 250,
        "9902": 213,
        "9903": 214,
        "9904": 119,
        "9905": 42,
        "9906": 133,
        "9907": 117,
        "9908": 132,
        "9909": 28,
        "9910": 241,
        "9911": 39,
        "9912": 167,
        "9913": 42,
        "9914": 11,
        "9915": 183,
        "9916": 241,
        "9917": 31,
        "9918": 197,
        "9919": 156,
        "9920": 195,
        "9921": 243,
        "9922": 34,
        "9923": 150,
        "9924": 248,
        "9925": 216,
        "9926": 226,
        "9927": 205,
        "9928": 97,
        "9929": 36,
        "9930": 97,
        "9931": 246,
        "9932": 240,
        "9933": 156,
        "9934": 165,
        "9935": 165,
        "9936": 185,
        "9937": 157,
        "9938": 15,
        "9939": 199,
        "9940": 112,
        "9941": 177,
        "9942": 193,
        "9943": 152,
        "9944": 179,
        "9945": 31,
        "9946": 141,
        "9947": 192,
        "9948": 210,
        "9949": 175,
        "9950": 73,
        "9951": 147,
        "9952": 160,
        "9953": 208,
        "9954": 195,
        "9955": 17,
        "9956": 140,
        "9957": 183,
        "9958": 219,
        "9959": 179,
        "9960": 63,
        "9961": 60,
        "9962": 152,
        "9963": 184,
        "9964": 62,
        "9965": 58,
        "9966": 26,
        "9967": 16,
        "9968": 97,
        "9969": 28,
        "9970": 40,
        "9971": 106,
        "9972": 82,
        "9973": 172,
        "9974": 88,
        "9975": 191,
        "9976": 211,
        "9977": 153,
        "9978": 196,
        "9979": 21,
        "9980": 206,
        "9981": 61,
        "9982": 67,
        "9983": 191,
        "9984": 53,
        "9985": 20,
        "9986": 241,
        "9987": 149,
        "9988": 160,
        "9989": 245,
        "9990": 17,
        "9991": 255,
        "9992": 196,
        "9993": 19,
        "9994": 45,
        "9995": 156,
        "9996": 210,
        "9997": 53,
        "9998": 4,
        "9999": 163,
        "10000": 82,
        "10001": 71,
        "10002": 127,
        "10003": 193,
        "10004": 57,
        "10005": 118,
        "10006": 70,
        "10007": 8,
        "10008": 153,
        "10009": 156,
        "10010": 76,
        "10011": 227,
        "10012": 84,
        "10013": 201,
        "10014": 43,
        "10015": 196,
        "10016": 242,
        "10017": 119,
        "10018": 182,
        "10019": 234,
        "10020": 63,
        "10021": 34,
        "10022": 136,
        "10023": 16,
        "10024": 199,
        "10025": 28,
        "10026": 238,
        "10027": 223,
        "10028": 214,
        "10029": 116,
        "10030": 65,
        "10031": 143,
        "10032": 88,
        "10033": 102,
        "10034": 122,
        "10035": 236,
        "10036": 2,
        "10037": 246,
        "10038": 91,
        "10039": 250,
        "10040": 211,
        "10041": 176,
        "10042": 122,
        "10043": 86,
        "10044": 15,
        "10045": 225,
        "10046": 12,
        "10047": 58,
        "10048": 179,
        "10049": 83,
        "10050": 141,
        "10051": 11,
        "10052": 56,
        "10053": 213,
        "10054": 69,
        "10055": 24,
        "10056": 251,
        "10057": 233,
        "10058": 210,
        "10059": 94,
        "10060": 164,
        "10061": 157,
        "10062": 49,
        "10063": 19,
        "10064": 76,
        "10065": 29,
        "10066": 22,
        "10067": 36,
        "10068": 137,
        "10069": 165,
        "10070": 133,
        "10071": 137,
        "10072": 228,
        "10073": 23,
        "10074": 15,
        "10075": 110,
        "10076": 68,
        "10077": 128,
        "10078": 249,
        "10079": 196,
        "10080": 115,
        "10081": 137,
        "10082": 181,
        "10083": 58,
        "10084": 159,
        "10085": 117,
        "10086": 152,
        "10087": 87,
        "10088": 146,
        "10089": 15,
        "10090": 43,
        "10091": 33,
        "10092": 86,
        "10093": 121,
        "10094": 92,
        "10095": 39,
        "10096": 136,
        "10097": 127,
        "10098": 184,
        "10099": 81,
        "10100": 21,
        "10101": 174,
        "10102": 130,
        "10103": 108,
        "10104": 240,
        "10105": 224,
        "10106": 29,
        "10107": 104,
        "10108": 167,
        "10109": 33,
        "10110": 12,
        "10111": 193,
        "10112": 103,
        "10113": 249,
        "10114": 97,
        "10115": 175,
        "10116": 171,
        "10117": 191,
        "10118": 6,
        "10119": 235,
        "10120": 168,
        "10121": 218,
        "10122": 76,
        "10123": 201,
        "10124": 102,
        "10125": 215,
        "10126": 184,
        "10127": 107,
        "10128": 128,
        "10129": 2,
        "10130": 164,
        "10131": 30,
        "10132": 66,
        "10133": 131,
        "10134": 155,
        "10135": 36,
        "10136": 84,
        "10137": 103,
        "10138": 111,
        "10139": 35,
        "10140": 111,
        "10141": 215,
        "10142": 64,
        "10143": 19,
        "10144": 104,
        "10145": 190,
        "10146": 248,
        "10147": 20,
        "10148": 11,
        "10149": 220,
        "10150": 22,
        "10151": 53,
        "10152": 107,
        "10153": 173,
        "10154": 226,
        "10155": 119,
        "10156": 12,
        "10157": 106,
        "10158": 90,
        "10159": 143,
        "10160": 236,
        "10161": 155,
        "10162": 27,
        "10163": 57,
        "10164": 25,
        "10165": 244,
        "10166": 63,
        "10167": 93,
        "10168": 171,
        "10169": 63,
        "10170": 146,
        "10171": 96,
        "10172": 10,
        "10173": 24,
        "10174": 58,
        "10175": 42,
        "10176": 15,
        "10177": 216,
        "10178": 229,
        "10179": 110,
        "10180": 62,
        "10181": 253,
        "10182": 95,
        "10183": 106,
        "10184": 120,
        "10185": 71,
        "10186": 217,
        "10187": 64,
        "10188": 59,
        "10189": 47,
        "10190": 177,
        "10191": 156,
        "10192": 37,
        "10193": 114,
        "10194": 195,
        "10195": 208,
        "10196": 104,
        "10197": 177,
        "10198": 203,
        "10199": 121,
        "10200": 26,
        "10201": 111,
        "10202": 131,
        "10203": 172,
        "10204": 123,
        "10205": 166,
        "10206": 114,
        "10207": 221,
        "10208": 90,
        "10209": 141,
        "10210": 114,
        "10211": 48,
        "10212": 36,
        "10213": 205,
        "10214": 99,
        "10215": 50,
        "10216": 115,
        "10217": 88,
        "10218": 142,
        "10219": 174,
        "10220": 137,
        "10221": 84,
        "10222": 97,
        "10223": 80,
        "10224": 181,
        "10225": 249,
        "10226": 68,
        "10227": 243,
        "10228": 118,
        "10229": 124,
        "10230": 17,
        "10231": 240,
        "10232": 212,
        "10233": 171,
        "10234": 253,
        "10235": 238,
        "10236": 46,
        "10237": 120,
        "10238": 152,
        "10239": 115,
        "10240": 26,
        "10241": 117,
        "10242": 84,
        "10243": 207,
        "10244": 37,
        "10245": 31,
        "10246": 103,
        "10247": 162,
        "10248": 252,
        "10249": 215,
        "10250": 172,
        "10251": 142,
        "10252": 147,
        "10253": 29,
        "10254": 42,
        "10255": 199,
        "10256": 67,
        "10257": 162,
        "10258": 180,
        "10259": 52,
        "10260": 155,
        "10261": 95,
        "10262": 109,
        "10263": 39,
        "10264": 54,
        "10265": 170,
        "10266": 217,
        "10267": 58,
        "10268": 161,
        "10269": 135,
        "10270": 119,
        "10271": 18,
        "10272": 160,
        "10273": 60,
        "10274": 63,
        "10275": 73,
        "10276": 253,
        "10277": 17,
        "10278": 18,
        "10279": 227,
        "10280": 223,
        "10281": 221,
        "10282": 76,
        "10283": 57,
        "10284": 90,
        "10285": 115,
        "10286": 253,
        "10287": 148,
        "10288": 85,
        "10289": 85,
        "10290": 224,
        "10291": 155,
        "10292": 248,
        "10293": 235,
        "10294": 162,
        "10295": 54,
        "10296": 147,
        "10297": 194,
        "10298": 215,
        "10299": 5,
        "10300": 174,
        "10301": 182,
        "10302": 21,
        "10303": 15,
        "10304": 176,
        "10305": 211,
        "10306": 246,
        "10307": 31,
        "10308": 150,
        "10309": 91,
        "10310": 100,
        "10311": 239,
        "10312": 41,
        "10313": 155,
        "10314": 200,
        "10315": 60,
        "10316": 102,
        "10317": 20,
        "10318": 144,
        "10319": 22,
        "10320": 254,
        "10321": 102,
        "10322": 189,
        "10323": 84,
        "10324": 4,
        "10325": 235,
        "10326": 225,
        "10327": 121,
        "10328": 27,
        "10329": 64,
        "10330": 145,
        "10331": 141,
        "10332": 155,
        "10333": 207,
        "10334": 130,
        "10335": 60,
        "10336": 246,
        "10337": 255,
        "10338": 100,
        "10339": 240,
        "10340": 15,
        "10341": 74,
        "10342": 209,
        "10343": 91,
        "10344": 124,
        "10345": 86,
        "10346": 11,
        "10347": 109,
        "10348": 140,
        "10349": 200,
        "10350": 175,
        "10351": 127,
        "10352": 89,
        "10353": 97,
        "10354": 195,
        "10355": 193,
        "10356": 41,
        "10357": 156,
        "10358": 248,
        "10359": 36,
        "10360": 121,
        "10361": 115,
        "10362": 166,
        "10363": 247,
        "10364": 59,
        "10365": 76,
        "10366": 228,
        "10367": 230,
        "10368": 1,
        "10369": 53,
        "10370": 211,
        "10371": 237,
        "10372": 199,
        "10373": 146,
        "10374": 174,
        "10375": 144,
        "10376": 101,
        "10377": 130,
        "10378": 82,
        "10379": 245,
        "10380": 92,
        "10381": 31,
        "10382": 228,
        "10383": 98,
        "10384": 67,
        "10385": 6,
        "10386": 160,
        "10387": 217,
        "10388": 107,
        "10389": 142,
        "10390": 107,
        "10391": 82,
        "10392": 48,
        "10393": 10,
        "10394": 46,
        "10395": 186,
        "10396": 148,
        "10397": 169,
        "10398": 102,
        "10399": 170,
        "10400": 239,
        "10401": 81,
        "10402": 230,
        "10403": 85,
        "10404": 187,
        "10405": 159,
        "10406": 67,
        "10407": 14,
        "10408": 106,
        "10409": 44,
        "10410": 229,
        "10411": 235,
        "10412": 12,
        "10413": 77,
        "10414": 85,
        "10415": 200,
        "10416": 236,
        "10417": 171,
        "10418": 135,
        "10419": 102,
        "10420": 94,
        "10421": 228,
        "10422": 48,
        "10423": 138,
        "10424": 221,
        "10425": 144,
        "10426": 142,
        "10427": 156,
        "10428": 32,
        "10429": 86,
        "10430": 198,
        "10431": 232,
        "10432": 224,
        "10433": 206,
        "10434": 77,
        "10435": 84,
        "10436": 230,
        "10437": 221,
        "10438": 227,
        "10439": 237,
        "10440": 18,
        "10441": 3,
        "10442": 122,
        "10443": 79,
        "10444": 201,
        "10445": 99,
        "10446": 215,
        "10447": 28,
        "10448": 69,
        "10449": 179,
        "10450": 190,
        "10451": 67,
        "10452": 129,
        "10453": 107,
        "10454": 123,
        "10455": 201,
        "10456": 199,
        "10457": 21,
        "10458": 125,
        "10459": 192,
        "10460": 88,
        "10461": 135,
        "10462": 150,
        "10463": 74,
        "10464": 22,
        "10465": 86,
        "10466": 138,
        "10467": 60,
        "10468": 176,
        "10469": 216,
        "10470": 81,
        "10471": 188,
        "10472": 200,
        "10473": 8,
        "10474": 132,
        "10475": 47,
        "10476": 31,
        "10477": 121,
        "10478": 163,
        "10479": 112,
        "10480": 55,
        "10481": 142,
        "10482": 195,
        "10483": 176,
        "10484": 126,
        "10485": 254,
        "10486": 13,
        "10487": 32,
        "10488": 133,
        "10489": 74,
        "10490": 146,
        "10491": 169,
        "10492": 4,
        "10493": 183,
        "10494": 99,
        "10495": 175,
        "10496": 196,
        "10497": 78,
        "10498": 5,
        "10499": 145,
        "10500": 205,
        "10501": 166,
        "10502": 76,
        "10503": 77,
        "10504": 170,
        "10505": 83,
        "10506": 120,
        "10507": 70,
        "10508": 67,
        "10509": 232,
        "10510": 107,
        "10511": 230,
        "10512": 138,
        "10513": 204,
        "10514": 62,
        "10515": 185,
        "10516": 170,
        "10517": 241,
        "10518": 27,
        "10519": 161,
        "10520": 104,
        "10521": 0,
        "10522": 223,
        "10523": 24,
        "10524": 246,
        "10525": 148,
        "10526": 196,
        "10527": 116,
        "10528": 123,
        "10529": 214,
        "10530": 180,
        "10531": 112,
        "10532": 47,
        "10533": 122,
        "10534": 154,
        "10535": 120,
        "10536": 251,
        "10537": 188,
        "10538": 177,
        "10539": 228,
        "10540": 189,
        "10541": 48,
        "10542": 179,
        "10543": 44,
        "10544": 247,
        "10545": 232,
        "10546": 221,
        "10547": 31,
        "10548": 171,
        "10549": 74,
        "10550": 2,
        "10551": 199,
        "10552": 5,
        "10553": 126,
        "10554": 123,
        "10555": 147,
        "10556": 151,
        "10557": 190,
        "10558": 16,
        "10559": 228,
        "10560": 176,
        "10561": 90,
        "10562": 1,
        "10563": 23,
        "10564": 82,
        "10565": 104,
        "10566": 217,
        "10567": 220,
        "10568": 231,
        "10569": 195,
        "10570": 197,
        "10571": 115,
        "10572": 250,
        "10573": 53,
        "10574": 60,
        "10575": 28,
        "10576": 17,
        "10577": 22,
        "10578": 154,
        "10579": 74,
        "10580": 245,
        "10581": 242,
        "10582": 229,
        "10583": 245,
        "10584": 170,
        "10585": 156,
        "10586": 19,
        "10587": 245,
        "10588": 201,
        "10589": 157,
        "10590": 83,
        "10591": 148,
        "10592": 162,
        "10593": 36,
        "10594": 172,
        "10595": 21,
        "10596": 248,
        "10597": 33,
        "10598": 113,
        "10599": 185,
        "10600": 247,
        "10601": 195,
        "10602": 253,
        "10603": 253,
        "10604": 137,
        "10605": 53,
        "10606": 162,
        "10607": 224,
        "10608": 46,
        "10609": 129,
        "10610": 93,
        "10611": 6,
        "10612": 166,
        "10613": 4,
        "10614": 33,
        "10615": 55,
        "10616": 30,
        "10617": 178,
        "10618": 220,
        "10619": 103,
        "10620": 27,
        "10621": 230,
        "10622": 136,
        "10623": 136,
        "10624": 135,
        "10625": 126,
        "10626": 168,
        "10627": 45,
        "10628": 78,
        "10629": 220,
        "10630": 133,
        "10631": 113,
        "10632": 134,
        "10633": 36,
        "10634": 197,
        "10635": 140,
        "10636": 162,
        "10637": 162,
        "10638": 99,
        "10639": 144,
        "10640": 72,
        "10641": 105,
        "10642": 61,
        "10643": 64,
        "10644": 167,
        "10645": 46,
        "10646": 45,
        "10647": 225,
        "10648": 35,
        "10649": 49,
        "10650": 162,
        "10651": 196,
        "10652": 240,
        "10653": 227,
        "10654": 56,
        "10655": 221,
        "10656": 32,
        "10657": 220,
        "10658": 24,
        "10659": 156,
        "10660": 34,
        "10661": 77,
        "10662": 108,
        "10663": 22,
        "10664": 138,
        "10665": 13,
        "10666": 200,
        "10667": 14,
        "10668": 15,
        "10669": 58,
        "10670": 231,
        "10671": 123,
        "10672": 215,
        "10673": 79,
        "10674": 154,
        "10675": 241,
        "10676": 3,
        "10677": 254,
        "10678": 27,
        "10679": 43,
        "10680": 180,
        "10681": 250,
        "10682": 166,
        "10683": 11,
        "10684": 110,
        "10685": 143,
        "10686": 246,
        "10687": 47,
        "10688": 56,
        "10689": 245,
        "10690": 30,
        "10691": 57,
        "10692": 67,
        "10693": 2,
        "10694": 39,
        "10695": 179,
        "10696": 141,
        "10697": 11,
        "10698": 125,
        "10699": 91,
        "10700": 176,
        "10701": 244,
        "10702": 19,
        "10703": 26,
        "10704": 223,
        "10705": 254,
        "10706": 210,
        "10707": 243,
        "10708": 29,
        "10709": 99,
        "10710": 101,
        "10711": 229,
        "10712": 251,
        "10713": 52,
        "10714": 175,
        "10715": 127,
        "10716": 5,
        "10717": 216,
        "10718": 152,
        "10719": 140,
        "10720": 131,
        "10721": 17,
        "10722": 105,
        "10723": 214,
        "10724": 147,
        "10725": 178,
        "10726": 18,
        "10727": 180,
        "10728": 194,
        "10729": 93,
        "10730": 214,
        "10731": 157,
        "10732": 182,
        "10733": 209,
        "10734": 156,
        "10735": 194,
        "10736": 248,
        "10737": 41,
        "10738": 160,
        "10739": 147,
        "10740": 206,
        "10741": 113,
        "10742": 167,
        "10743": 184,
        "10744": 50,
        "10745": 222,
        "10746": 1,
        "10747": 184,
        "10748": 98,
        "10749": 57,
        "10750": 42,
        "10751": 45,
        "10752": 111,
        "10753": 200,
        "10754": 30,
        "10755": 33,
        "10756": 214,
        "10757": 205,
        "10758": 14,
        "10759": 129,
        "10760": 115,
        "10761": 67,
        "10762": 64,
        "10763": 161,
        "10764": 69,
        "10765": 144,
        "10766": 224,
        "10767": 195,
        "10768": 139,
        "10769": 88,
        "10770": 76,
        "10771": 209,
        "10772": 151,
        "10773": 113,
        "10774": 42,
        "10775": 68,
        "10776": 0,
        "10777": 86,
        "10778": 133,
        "10779": 232,
        "10780": 133,
        "10781": 15,
        "10782": 225,
        "10783": 170,
        "10784": 88,
        "10785": 203,
        "10786": 75,
        "10787": 205,
        "10788": 26,
        "10789": 173,
        "10790": 158,
        "10791": 149,
        "10792": 101,
        "10793": 52,
        "10794": 43,
        "10795": 99,
        "10796": 155,
        "10797": 15,
        "10798": 125,
        "10799": 78,
        "10800": 117,
        "10801": 65,
        "10802": 27,
        "10803": 134,
        "10804": 202,
        "10805": 66,
        "10806": 99,
        "10807": 168,
        "10808": 251,
        "10809": 83,
        "10810": 223,
        "10811": 167,
        "10812": 66,
        "10813": 220,
        "10814": 198,
        "10815": 110,
        "10816": 242,
        "10817": 54,
        "10818": 128,
        "10819": 236,
        "10820": 115,
        "10821": 127,
        "10822": 136,
        "10823": 145,
        "10824": 71,
        "10825": 251,
        "10826": 246,
        "10827": 216,
        "10828": 231,
        "10829": 147,
        "10830": 151,
        "10831": 113,
        "10832": 92,
        "10833": 162,
        "10834": 119,
        "10835": 208,
        "10836": 182,
        "10837": 174,
        "10838": 28,
        "10839": 109,
        "10840": 219,
        "10841": 109,
        "10842": 119,
        "10843": 1,
        "10844": 136,
        "10845": 242,
        "10846": 191,
        "10847": 84,
        "10848": 128,
        "10849": 92,
        "10850": 224,
        "10851": 58,
        "10852": 140,
        "10853": 236,
        "10854": 94,
        "10855": 251,
        "10856": 144,
        "10857": 201,
        "10858": 209,
        "10859": 181,
        "10860": 123,
        "10861": 48,
        "10862": 47,
        "10863": 194,
        "10864": 68,
        "10865": 152,
        "10866": 215,
        "10867": 196,
        "10868": 180,
        "10869": 224,
        "10870": 166,
        "10871": 56,
        "10872": 205,
        "10873": 0,
        "10874": 249,
        "10875": 220,
        "10876": 102,
        "10877": 165,
        "10878": 98,
        "10879": 193,
        "10880": 19,
        "10881": 188,
        "10882": 4,
        "10883": 29,
        "10884": 175,
        "10885": 136,
        "10886": 181,
        "10887": 0,
        "10888": 106,
        "10889": 93,
        "10890": 82,
        "10891": 49,
        "10892": 14,
        "10893": 148,
        "10894": 212,
        "10895": 53,
        "10896": 149,
        "10897": 69,
        "10898": 199,
        "10899": 116,
        "10900": 21,
        "10901": 220,
        "10902": 200,
        "10903": 21,
        "10904": 20,
        "10905": 97,
        "10906": 0,
        "10907": 189,
        "10908": 226,
        "10909": 229,
        "10910": 170,
        "10911": 191,
        "10912": 89,
        "10913": 105,
        "10914": 230,
        "10915": 233,
        "10916": 234,
        "10917": 72,
        "10918": 180,
        "10919": 5,
        "10920": 20,
        "10921": 33,
        "10922": 217,
        "10923": 37,
        "10924": 13,
        "10925": 14,
        "10926": 224,
        "10927": 105,
        "10928": 219,
        "10929": 70,
        "10930": 135,
        "10931": 33,
        "10932": 200,
        "10933": 105,
        "10934": 190,
        "10935": 163,
        "10936": 187,
        "10937": 81,
        "10938": 203,
        "10939": 116,
        "10940": 164,
        "10941": 250,
        "10942": 247,
        "10943": 188,
        "10944": 39,
        "10945": 163,
        "10946": 142,
        "10947": 38,
        "10948": 27,
        "10949": 106,
        "10950": 144,
        "10951": 133,
        "10952": 149,
        "10953": 44,
        "10954": 92,
        "10955": 236,
        "10956": 229,
        "10957": 185,
        "10958": 105,
        "10959": 50,
        "10960": 165,
        "10961": 0,
        "10962": 249,
        "10963": 168,
        "10964": 249,
        "10965": 164,
        "10966": 232,
        "10967": 113,
        "10968": 80,
        "10969": 71,
        "10970": 58,
        "10971": 188,
        "10972": 228,
        "10973": 142,
        "10974": 143,
        "10975": 157,
        "10976": 229,
        "10977": 60,
        "10978": 157,
        "10979": 63,
        "10980": 226,
        "10981": 52,
        "10982": 91,
        "10983": 188,
        "10984": 40,
        "10985": 173,
        "10986": 138,
        "10987": 210,
        "10988": 53,
        "10989": 152,
        "10990": 182,
        "10991": 195,
        "10992": 198,
        "10993": 41,
        "10994": 240,
        "10995": 210,
        "10996": 112,
        "10997": 31,
        "10998": 195,
        "10999": 53,
        "11000": 243,
        "11001": 120,
        "11002": 225,
        "11003": 76,
        "11004": 71,
        "11005": 65,
        "11006": 206,
        "11007": 2,
        "11008": 76,
        "11009": 15,
        "11010": 232,
        "11011": 158,
        "11012": 72,
        "11013": 179,
        "11014": 147,
        "11015": 178,
        "11016": 200,
        "11017": 140,
        "11018": 228,
        "11019": 198,
        "11020": 45,
        "11021": 71,
        "11022": 131,
        "11023": 168,
        "11024": 211,
        "11025": 195,
        "11026": 132,
        "11027": 131,
        "11028": 150,
        "11029": 81,
        "11030": 119,
        "11031": 159,
        "11032": 157,
        "11033": 177,
        "11034": 130,
        "11035": 185,
        "11036": 99,
        "11037": 44,
        "11038": 122,
        "11039": 37,
        "11040": 41,
        "11041": 233,
        "11042": 205,
        "11043": 130,
        "11044": 215,
        "11045": 25,
        "11046": 160,
        "11047": 201,
        "11048": 63,
        "11049": 209,
        "11050": 241,
        "11051": 13,
        "11052": 156,
        "11053": 88,
        "11054": 17,
        "11055": 112,
        "11056": 57,
        "11057": 126,
        "11058": 7,
        "11059": 250,
        "11060": 79,
        "11061": 255,
        "11062": 154,
        "11063": 214,
        "11064": 153,
        "11065": 170,
        "11066": 97,
        "11067": 245,
        "11068": 46,
        "11069": 253,
        "11070": 131,
        "11071": 65,
        "11072": 210,
        "11073": 236,
        "11074": 127,
        "11075": 46,
        "11076": 137,
        "11077": 32,
        "11078": 135,
        "11079": 77,
        "11080": 62,
        "11081": 131,
        "11082": 47,
        "11083": 88,
        "11084": 124,
        "11085": 211,
        "11086": 25,
        "11087": 206,
        "11088": 112,
        "11089": 232,
        "11090": 240,
        "11091": 154,
        "11092": 249,
        "11093": 106,
        "11094": 1,
        "11095": 184,
        "11096": 156,
        "11097": 92,
        "11098": 64,
        "11099": 157,
        "11100": 16,
        "11101": 130,
        "11102": 23,
        "11103": 158,
        "11104": 223,
        "11105": 133,
        "11106": 83,
        "11107": 72,
        "11108": 123,
        "11109": 3,
        "11110": 27,
        "11111": 202,
        "11112": 31,
        "11113": 102,
        "11114": 117,
        "11115": 86,
        "11116": 253,
        "11117": 212,
        "11118": 199,
        "11119": 7,
        "11120": 2,
        "11121": 99,
        "11122": 147,
        "11123": 222,
        "11124": 207,
        "11125": 14,
        "11126": 168,
        "11127": 177,
        "11128": 11,
        "11129": 71,
        "11130": 2,
        "11131": 25,
        "11132": 122,
        "11133": 60,
        "11134": 86,
        "11135": 151,
        "11136": 45,
        "11137": 11,
        "11138": 90,
        "11139": 83,
        "11140": 102,
        "11141": 199,
        "11142": 107,
        "11143": 38,
        "11144": 188,
        "11145": 194,
        "11146": 190,
        "11147": 155,
        "11148": 230,
        "11149": 181,
        "11150": 87,
        "11151": 34,
        "11152": 238,
        "11153": 213,
        "11154": 14,
        "11155": 33,
        "11156": 15,
        "11157": 247,
        "11158": 177,
        "11159": 234,
        "11160": 44,
        "11161": 93,
        "11162": 7,
        "11163": 226,
        "11164": 179,
        "11165": 116,
        "11166": 109,
        "11167": 1,
        "11168": 191,
        "11169": 218,
        "11170": 164,
        "11171": 156,
        "11172": 167,
        "11173": 10,
        "11174": 26,
        "11175": 215,
        "11176": 83,
        "11177": 121,
        "11178": 2,
        "11179": 231,
        "11180": 6,
        "11181": 116,
        "11182": 170,
        "11183": 45,
        "11184": 96,
        "11185": 232,
        "11186": 139,
        "11187": 195,
        "11188": 122,
        "11189": 176,
        "11190": 205,
        "11191": 76,
        "11192": 90,
        "11193": 161,
        "11194": 249,
        "11195": 213,
        "11196": 17,
        "11197": 31,
        "11198": 184,
        "11199": 62,
        "11200": 163,
        "11201": 206,
        "11202": 216,
        "11203": 40,
        "11204": 94,
        "11205": 140,
        "11206": 88,
        "11207": 241,
        "11208": 217,
        "11209": 40,
        "11210": 242,
        "11211": 226,
        "11212": 101,
        "11213": 124,
        "11214": 56,
        "11215": 4,
        "11216": 186,
        "11217": 194,
        "11218": 245,
        "11219": 47,
        "11220": 165,
        "11221": 56,
        "11222": 221,
        "11223": 168,
        "11224": 205,
        "11225": 223,
        "11226": 67,
        "11227": 248,
        "11228": 127,
        "11229": 233,
        "11230": 67,
        "11231": 10,
        "11232": 246,
        "11233": 139,
        "11234": 39,
        "11235": 148,
        "11236": 207,
        "11237": 102,
        "11238": 188,
        "11239": 159,
        "11240": 100,
        "11241": 232,
        "11242": 124,
        "11243": 87,
        "11244": 59,
        "11245": 75,
        "11246": 208,
        "11247": 218,
        "11248": 5,
        "11249": 175,
        "11250": 158,
        "11251": 225,
        "11252": 247,
        "11253": 38,
        "11254": 137,
        "11255": 213,
        "11256": 96,
        "11257": 71,
        "11258": 158,
        "11259": 203,
        "11260": 24,
        "11261": 47,
        "11262": 245,
        "11263": 249,
        "11264": 28,
        "11265": 88,
        "11266": 191,
        "11267": 156,
        "11268": 161,
        "11269": 15,
        "11270": 176,
        "11271": 211,
        "11272": 118,
        "11273": 245,
        "11274": 22,
        "11275": 213,
        "11276": 225,
        "11277": 55,
        "11278": 249,
        "11279": 31,
        "11280": 227,
        "11281": 130,
        "11282": 22,
        "11283": 120,
        "11284": 165,
        "11285": 230,
        "11286": 46,
        "11287": 1,
        "11288": 132,
        "11289": 33,
        "11290": 83,
        "11291": 238,
        "11292": 254,
        "11293": 68,
        "11294": 133,
        "11295": 55,
        "11296": 47,
        "11297": 48,
        "11298": 166,
        "11299": 125,
        "11300": 196,
        "11301": 220,
        "11302": 128,
        "11303": 46,
        "11304": 50,
        "11305": 118,
        "11306": 148,
        "11307": 240,
        "11308": 32,
        "11309": 138,
        "11310": 141,
        "11311": 2,
        "11312": 95,
        "11313": 45,
        "11314": 237,
        "11315": 16,
        "11316": 190,
        "11317": 87,
        "11318": 24,
        "11319": 17,
        "11320": 229,
        "11321": 68,
        "11322": 186,
        "11323": 52,
        "11324": 212,
        "11325": 166,
        "11326": 222,
        "11327": 201,
        "11328": 189,
        "11329": 239,
        "11330": 173,
        "11331": 96,
        "11332": 117,
        "11333": 240,
        "11334": 204,
        "11335": 20,
        "11336": 252,
        "11337": 218,
        "11338": 209,
        "11339": 149,
        "11340": 153,
        "11341": 19,
        "11342": 18,
        "11343": 128,
        "11344": 207,
        "11345": 155,
        "11346": 102,
        "11347": 223,
        "11348": 44,
        "11349": 62,
        "11350": 54,
        "11351": 206,
        "11352": 176,
        "11353": 253,
        "11354": 16,
        "11355": 233,
        "11356": 100,
        "11357": 111,
        "11358": 54,
        "11359": 138,
        "11360": 18,
        "11361": 80,
        "11362": 207,
        "11363": 180,
        "11364": 175,
        "11365": 61,
        "11366": 5,
        "11367": 154,
        "11368": 93,
        "11369": 10,
        "11370": 147,
        "11371": 202,
        "11372": 235,
        "11373": 61,
        "11374": 71,
        "11375": 109,
        "11376": 159,
        "11377": 10,
        "11378": 145,
        "11379": 137,
        "11380": 128,
        "11381": 29,
        "11382": 83,
        "11383": 122,
        "11384": 33,
        "11385": 119,
        "11386": 28,
        "11387": 230,
        "11388": 145,
        "11389": 122,
        "11390": 232,
        "11391": 200,
        "11392": 32,
        "11393": 55,
        "11394": 182,
        "11395": 121,
        "11396": 92,
        "11397": 172,
        "11398": 73,
        "11399": 51,
        "11400": 12,
        "11401": 205,
        "11402": 5,
        "11403": 31,
        "11404": 98,
        "11405": 93,
        "11406": 255,
        "11407": 218,
        "11408": 226,
        "11409": 199,
        "11410": 57,
        "11411": 234,
        "11412": 119,
        "11413": 127,
        "11414": 165,
        "11415": 132,
        "11416": 100,
        "11417": 164,
        "11418": 81,
        "11419": 42,
        "11420": 108,
        "11421": 34,
        "11422": 80,
        "11423": 168,
        "11424": 60,
        "11425": 194,
        "11426": 62,
        "11427": 237,
        "11428": 161,
        "11429": 145,
        "11430": 209,
        "11431": 214,
        "11432": 124,
        "11433": 120,
        "11434": 93,
        "11435": 167,
        "11436": 35,
        "11437": 9,
        "11438": 40,
        "11439": 161,
        "11440": 27,
        "11441": 58,
        "11442": 86,
        "11443": 195,
        "11444": 99,
        "11445": 72,
        "11446": 38,
        "11447": 5,
        "11448": 83,
        "11449": 68,
        "11450": 139,
        "11451": 186,
        "11452": 129,
        "11453": 83,
        "11454": 169,
        "11455": 20,
        "11456": 122,
        "11457": 2,
        "11458": 62,
        "11459": 161,
        "11460": 145,
        "11461": 163,
        "11462": 34,
        "11463": 245,
        "11464": 80,
        "11465": 163,
        "11466": 186,
        "11467": 218,
        "11468": 102,
        "11469": 76,
        "11470": 8,
        "11471": 182,
        "11472": 220,
        "11473": 8,
        "11474": 150,
        "11475": 76,
        "11476": 152,
        "11477": 225,
        "11478": 248,
        "11479": 22,
        "11480": 211,
        "11481": 188,
        "11482": 133,
        "11483": 82,
        "11484": 29,
        "11485": 26,
        "11486": 249,
        "11487": 205,
        "11488": 181,
        "11489": 200,
        "11490": 144,
        "11491": 242,
        "11492": 9,
        "11493": 205,
        "11494": 13,
        "11495": 103,
        "11496": 124,
        "11497": 240,
        "11498": 99,
        "11499": 209,
        "11500": 46,
        "11501": 58,
        "11502": 238,
        "11503": 39,
        "11504": 76,
        "11505": 147,
        "11506": 30,
        "11507": 143,
        "11508": 75,
        "11509": 167,
        "11510": 164,
        "11511": 196,
        "11512": 209,
        "11513": 30,
        "11514": 172,
        "11515": 212,
        "11516": 228,
        "11517": 77,
        "11518": 94,
        "11519": 230,
        "11520": 189,
        "11521": 145,
        "11522": 42,
        "11523": 221,
        "11524": 84,
        "11525": 247,
        "11526": 57,
        "11527": 70,
        "11528": 22,
        "11529": 184,
        "11530": 123,
        "11531": 211,
        "11532": 123,
        "11533": 202,
        "11534": 194,
        "11535": 185,
        "11536": 218,
        "11537": 180,
        "11538": 62,
        "11539": 143,
        "11540": 215,
        "11541": 17,
        "11542": 105,
        "11543": 204,
        "11544": 49,
        "11545": 210,
        "11546": 32,
        "11547": 224,
        "11548": 79,
        "11549": 182,
        "11550": 212,
        "11551": 200,
        "11552": 32,
        "11553": 199,
        "11554": 185,
        "11555": 219,
        "11556": 63,
        "11557": 85,
        "11558": 35,
        "11559": 1,
        "11560": 195,
        "11561": 180,
        "11562": 47,
        "11563": 199,
        "11564": 120,
        "11565": 175,
        "11566": 150,
        "11567": 121,
        "11568": 2,
        "11569": 205,
        "11570": 151,
        "11571": 72,
        "11572": 241,
        "11573": 75,
        "11574": 162,
        "11575": 81,
        "11576": 237,
        "11577": 166,
        "11578": 69,
        "11579": 102,
        "11580": 10,
        "11581": 125,
        "11582": 80,
        "11583": 111,
        "11584": 241,
        "11585": 163,
        "11586": 251,
        "11587": 133,
        "11588": 231,
        "11589": 252,
        "11590": 210,
        "11591": 235,
        "11592": 177,
        "11593": 225,
        "11594": 192,
        "11595": 217,
        "11596": 25,
        "11597": 198,
        "11598": 80,
        "11599": 3,
        "11600": 50,
        "11601": 10,
        "11602": 161,
        "11603": 155,
        "11604": 28,
        "11605": 216,
        "11606": 121,
        "11607": 170,
        "11608": 42,
        "11609": 227,
        "11610": 94,
        "11611": 65,
        "11612": 130,
        "11613": 191,
        "11614": 70,
        "11615": 7,
        "11616": 104,
        "11617": 21,
        "11618": 96,
        "11619": 163,
        "11620": 36,
        "11621": 21,
        "11622": 25,
        "11623": 254,
        "11624": 46,
        "11625": 8,
        "11626": 171,
        "11627": 11,
        "11628": 163,
        "11629": 150,
        "11630": 186,
        "11631": 173,
        "11632": 40,
        "11633": 139,
        "11634": 17,
        "11635": 76,
        "11636": 76,
        "11637": 65,
        "11638": 161,
        "11639": 189,
        "11640": 251,
        "11641": 48,
        "11642": 64,
        "11643": 236,
        "11644": 29,
        "11645": 190,
        "11646": 240,
        "11647": 153,
        "11648": 141,
        "11649": 33,
        "11650": 138,
        "11651": 159,
        "11652": 165,
        "11653": 64,
        "11654": 42,
        "11655": 48,
        "11656": 185,
        "11657": 128,
        "11658": 23,
        "11659": 100,
        "11660": 9,
        "11661": 242,
        "11662": 244,
        "11663": 97,
        "11664": 92,
        "11665": 82,
        "11666": 47,
        "11667": 101,
        "11668": 136,
        "11669": 91,
        "11670": 174,
        "11671": 8,
        "11672": 48,
        "11673": 53,
        "11674": 251,
        "11675": 241,
        "11676": 92,
        "11677": 85,
        "11678": 24,
        "11679": 131,
        "11680": 126,
        "11681": 132,
        "11682": 18,
        "11683": 135,
        "11684": 24,
        "11685": 53,
        "11686": 61,
        "11687": 74,
        "11688": 107,
        "11689": 176,
        "11690": 178,
        "11691": 211,
        "11692": 37,
        "11693": 24,
        "11694": 43,
        "11695": 246,
        "11696": 30,
        "11697": 46,
        "11698": 120,
        "11699": 117,
        "11700": 65,
        "11701": 210,
        "11702": 95,
        "11703": 141,
        "11704": 16,
        "11705": 101,
        "11706": 60,
        "11707": 140,
        "11708": 169,
        "11709": 209,
        "11710": 4,
        "11711": 109,
        "11712": 185,
        "11713": 215,
        "11714": 235,
        "11715": 120,
        "11716": 133,
        "11717": 254,
        "11718": 83,
        "11719": 87,
        "11720": 215,
        "11721": 247,
        "11722": 23,
        "11723": 211,
        "11724": 199,
        "11725": 115,
        "11726": 40,
        "11727": 32,
        "11728": 129,
        "11729": 158,
        "11730": 12,
        "11731": 250,
        "11732": 215,
        "11733": 243,
        "11734": 47,
        "11735": 168,
        "11736": 127,
        "11737": 135,
        "11738": 183,
        "11739": 163,
        "11740": 208,
        "11741": 25,
        "11742": 202,
        "11743": 143,
        "11744": 197,
        "11745": 188,
        "11746": 195,
        "11747": 148,
        "11748": 223,
        "11749": 162,
        "11750": 68,
        "11751": 78,
        "11752": 38,
        "11753": 112,
        "11754": 145,
        "11755": 198,
        "11756": 173,
        "11757": 184,
        "11758": 6,
        "11759": 172,
        "11760": 191,
        "11761": 15,
        "11762": 110,
        "11763": 39,
        "11764": 114,
        "11765": 8,
        "11766": 185,
        "11767": 162,
        "11768": 36,
        "11769": 143,
        "11770": 144,
        "11771": 175,
        "11772": 84,
        "11773": 226,
        "11774": 61,
        "11775": 116,
        "11776": 18,
        "11777": 166,
        "11778": 199,
        "11779": 136,
        "11780": 146,
        "11781": 235,
        "11782": 35,
        "11783": 97,
        "11784": 10,
        "11785": 21,
        "11786": 118,
        "11787": 83,
        "11788": 226,
        "11789": 238,
        "11790": 28,
        "11791": 89,
        "11792": 106,
        "11793": 101,
        "11794": 231,
        "11795": 30,
        "11796": 176,
        "11797": 89,
        "11798": 93,
        "11799": 190,
        "11800": 37,
        "11801": 110,
        "11802": 13,
        "11803": 38,
        "11804": 181,
        "11805": 242,
        "11806": 62,
        "11807": 8,
        "11808": 29,
        "11809": 151,
        "11810": 212,
        "11811": 36,
        "11812": 131,
        "11813": 166,
        "11814": 104,
        "11815": 144,
        "11816": 65,
        "11817": 178,
        "11818": 117,
        "11819": 137,
        "11820": 96,
        "11821": 253,
        "11822": 164,
        "11823": 153,
        "11824": 227,
        "11825": 88,
        "11826": 88,
        "11827": 52,
        "11828": 132,
        "11829": 235,
        "11830": 133,
        "11831": 104,
        "11832": 61,
        "11833": 73,
        "11834": 179,
        "11835": 198,
        "11836": 244,
        "11837": 184,
        "11838": 140,
        "11839": 12,
        "11840": 6,
        "11841": 170,
        "11842": 49,
        "11843": 149,
        "11844": 209,
        "11845": 41,
        "11846": 104,
        "11847": 136,
        "11848": 4,
        "11849": 205,
        "11850": 151,
        "11851": 155,
        "11852": 90,
        "11853": 22,
        "11854": 38,
        "11855": 236,
        "11856": 18,
        "11857": 117,
        "11858": 123,
        "11859": 190,
        "11860": 249,
        "11861": 86,
        "11862": 69,
        "11863": 159,
        "11864": 50,
        "11865": 199,
        "11866": 140,
        "11867": 230,
        "11868": 250,
        "11869": 64,
        "11870": 50,
        "11871": 133,
        "11872": 160,
        "11873": 20,
        "11874": 41,
        "11875": 159,
        "11876": 203,
        "11877": 82,
        "11878": 4,
        "11879": 180,
        "11880": 24,
        "11881": 199,
        "11882": 209,
        "11883": 166,
        "11884": 133,
        "11885": 102,
        "11886": 219,
        "11887": 163,
        "11888": 14,
        "11889": 55,
        "11890": 38,
        "11891": 210,
        "11892": 132,
        "11893": 20,
        "11894": 128,
        "11895": 66,
        "11896": 107,
        "11897": 141,
        "11898": 30,
        "11899": 9,
        "11900": 236,
        "11901": 184,
        "11902": 127,
        "11903": 230,
        "11904": 40,
        "11905": 88,
        "11906": 65,
        "11907": 79,
        "11908": 142,
        "11909": 18,
        "11910": 44,
        "11911": 215,
        "11912": 221,
        "11913": 207,
        "11914": 14,
        "11915": 119,
        "11916": 86,
        "11917": 26,
        "11918": 29,
        "11919": 229,
        "11920": 67,
        "11921": 204,
        "11922": 44,
        "11923": 92,
        "11924": 93,
        "11925": 239,
        "11926": 135,
        "11927": 32,
        "11928": 39,
        "11929": 140,
        "11930": 109,
        "11931": 162,
        "11932": 234,
        "11933": 224,
        "11934": 19,
        "11935": 185,
        "11936": 57,
        "11937": 92,
        "11938": 115,
        "11939": 101,
        "11940": 250,
        "11941": 185,
        "11942": 234,
        "11943": 66,
        "11944": 28,
        "11945": 231,
        "11946": 44,
        "11947": 127,
        "11948": 169,
        "11949": 65,
        "11950": 27,
        "11951": 66,
        "11952": 5,
        "11953": 137,
        "11954": 158,
        "11955": 13,
        "11956": 138,
        "11957": 242,
        "11958": 87,
        "11959": 185,
        "11960": 205,
        "11961": 136,
        "11962": 119,
        "11963": 55,
        "11964": 168,
        "11965": 63,
        "11966": 36,
        "11967": 107,
        "11968": 85,
        "11969": 31,
        "11970": 0,
        "11971": 203,
        "11972": 244,
        "11973": 120,
        "11974": 184,
        "11975": 75,
        "11976": 35,
        "11977": 201,
        "11978": 41,
        "11979": 148,
        "11980": 63,
        "11981": 3,
        "11982": 49,
        "11983": 132,
        "11984": 88,
        "11985": 213,
        "11986": 162,
        "11987": 225,
        "11988": 18,
        "11989": 53,
        "11990": 20,
        "11991": 140,
        "11992": 37,
        "11993": 189,
        "11994": 7,
        "11995": 103,
        "11996": 131,
        "11997": 213,
        "11998": 93,
        "11999": 227,
        "12000": 211,
        "12001": 186,
        "12002": 8,
        "12003": 185,
        "12004": 234,
        "12005": 227,
        "12006": 111,
        "12007": 37,
        "12008": 197,
        "12009": 244,
        "12010": 113,
        "12011": 146,
        "12012": 154,
        "12013": 52,
        "12014": 86,
        "12015": 18,
        "12016": 74,
        "12017": 103,
        "12018": 28,
        "12019": 13,
        "12020": 145,
        "12021": 15,
        "12022": 160,
        "12023": 233,
        "12024": 38,
        "12025": 145,
        "12026": 82,
        "12027": 27,
        "12028": 188,
        "12029": 19,
        "12030": 117,
        "12031": 41,
        "12032": 12,
        "12033": 209,
        "12034": 0,
        "12035": 63,
        "12036": 167,
        "12037": 27,
        "12038": 219,
        "12039": 7,
        "12040": 123,
        "12041": 93,
        "12042": 78,
        "12043": 231,
        "12044": 57,
        "12045": 225,
        "12046": 144,
        "12047": 198,
        "12048": 232,
        "12049": 53,
        "12050": 194,
        "12051": 158,
        "12052": 186,
        "12053": 223,
        "12054": 60,
        "12055": 29,
        "12056": 127,
        "12057": 96,
        "12058": 175,
        "12059": 50,
        "12060": 75,
        "12061": 40,
        "12062": 99,
        "12063": 44,
        "12064": 127,
        "12065": 31,
        "12066": 217,
        "12067": 11,
        "12068": 186,
        "12069": 179,
        "12070": 5,
        "12071": 199,
        "12072": 48,
        "12073": 95,
        "12074": 230,
        "12075": 128,
        "12076": 41,
        "12077": 70,
        "12078": 9,
        "12079": 76,
        "12080": 163,
        "12081": 201,
        "12082": 196,
        "12083": 45,
        "12084": 194,
        "12085": 235,
        "12086": 2,
        "12087": 148,
        "12088": 209,
        "12089": 154,
        "12090": 151,
        "12091": 57,
        "12092": 64,
        "12093": 113,
        "12094": 58,
        "12095": 28,
        "12096": 140,
        "12097": 96,
        "12098": 146,
        "12099": 176,
        "12100": 55,
        "12101": 250,
        "12102": 147,
        "12103": 45,
        "12104": 120,
        "12105": 0,
        "12106": 199,
        "12107": 80,
        "12108": 178,
        "12109": 40,
        "12110": 27,
        "12111": 201,
        "12112": 136,
        "12113": 88,
        "12114": 159,
        "12115": 92,
        "12116": 244,
        "12117": 5,
        "12118": 195,
        "12119": 3,
        "12120": 157,
        "12121": 47,
        "12122": 203,
        "12123": 72,
        "12124": 248,
        "12125": 213,
        "12126": 253,
        "12127": 51,
        "12128": 188,
        "12129": 84,
        "12130": 223,
        "12131": 176,
        "12132": 156,
        "12133": 13,
        "12134": 196,
        "12135": 62,
        "12136": 33,
        "12137": 142,
        "12138": 18,
        "12139": 177,
        "12140": 164,
        "12141": 243,
        "12142": 156,
        "12143": 130,
        "12144": 194,
        "12145": 205,
        "12146": 142,
        "12147": 54,
        "12148": 55,
        "12149": 113,
        "12150": 151,
        "12151": 126,
        "12152": 143,
        "12153": 121,
        "12154": 17,
        "12155": 215,
        "12156": 53,
        "12157": 236,
        "12158": 218,
        "12159": 85,
        "12160": 232,
        "12161": 27,
        "12162": 44,
        "12163": 67,
        "12164": 196,
        "12165": 197,
        "12166": 164,
        "12167": 114,
        "12168": 15,
        "12169": 234,
        "12170": 95,
        "12171": 204,
        "12172": 53,
        "12173": 2,
        "12174": 230,
        "12175": 237,
        "12176": 123,
        "12177": 255,
        "12178": 27,
        "12179": 239,
        "12180": 122,
        "12181": 107,
        "12182": 75,
        "12183": 239,
        "12184": 29,
        "12185": 80,
        "12186": 88,
        "12187": 199,
        "12188": 89,
        "12189": 63,
        "12190": 83,
        "12191": 12,
        "12192": 134,
        "12193": 4,
        "12194": 34,
        "12195": 35,
        "12196": 248,
        "12197": 111,
        "12198": 120,
        "12199": 88,
        "12200": 251,
        "12201": 13,
        "12202": 192,
        "12203": 108,
        "12204": 105,
        "12205": 52,
        "12206": 89,
        "12207": 164,
        "12208": 197,
        "12209": 100,
        "12210": 107,
        "12211": 0,
        "12212": 50,
        "12213": 242,
        "12214": 133,
        "12215": 64,
        "12216": 192,
        "12217": 76,
        "12218": 39,
        "12219": 156,
        "12220": 8,
        "12221": 31,
        "12222": 161,
        "12223": 105,
        "12224": 162,
        "12225": 193,
        "12226": 46,
        "12227": 178,
        "12228": 137,
        "12229": 8,
        "12230": 190,
        "12231": 141,
        "12232": 66,
        "12233": 179,
        "12234": 97,
        "12235": 35,
        "12236": 120,
        "12237": 41,
        "12238": 72,
        "12239": 65,
        "12240": 16,
        "12241": 157,
        "12242": 208,
        "12243": 171,
        "12244": 121,
        "12245": 95,
        "12246": 84,
        "12247": 235,
        "12248": 69,
        "12249": 124,
        "12250": 196,
        "12251": 159,
        "12252": 93,
        "12253": 180,
        "12254": 32,
        "12255": 46,
        "12256": 138,
        "12257": 109,
        "12258": 62,
        "12259": 198,
        "12260": 144,
        "12261": 125,
        "12262": 246,
        "12263": 26,
        "12264": 116,
        "12265": 195,
        "12266": 171,
        "12267": 55,
        "12268": 107,
        "12269": 72,
        "12270": 188,
        "12271": 6,
        "12272": 88,
        "12273": 88,
        "12274": 160,
        "12275": 224,
        "12276": 205,
        "12277": 95,
        "12278": 180,
        "12279": 133,
        "12280": 52,
        "12281": 46,
        "12282": 19,
        "12283": 60,
        "12284": 179,
        "12285": 91,
        "12286": 120,
        "12287": 51,
        "12288": 103,
        "12289": 78,
        "12290": 151,
        "12291": 52,
        "12292": 254,
        "12293": 203,
        "12294": 206,
        "12295": 56,
        "12296": 222,
        "12297": 29,
        "12298": 250,
        "12299": 18,
        "12300": 235,
        "12301": 52,
        "12302": 120,
        "12303": 31,
        "12304": 74,
        "12305": 201,
        "12306": 18,
        "12307": 110,
        "12308": 145,
        "12309": 2,
        "12310": 15,
        "12311": 164,
        "12312": 237,
        "12313": 74,
        "12314": 208,
        "12315": 64,
        "12316": 197,
        "12317": 27,
        "12318": 27,
        "12319": 222,
        "12320": 234,
        "12321": 108,
        "12322": 186,
        "12323": 152,
        "12324": 115,
        "12325": 1,
        "12326": 187,
        "12327": 36,
        "12328": 213,
        "12329": 219,
        "12330": 63,
        "12331": 54,
        "12332": 9,
        "12333": 28,
        "12334": 152,
        "12335": 66,
        "12336": 46,
        "12337": 245,
        "12338": 44,
        "12339": 157,
        "12340": 133,
        "12341": 36,
        "12342": 39,
        "12343": 226,
        "12344": 113,
        "12345": 4,
        "12346": 71,
        "12347": 204,
        "12348": 201,
        "12349": 224,
        "12350": 84,
        "12351": 1,
        "12352": 237,
        "12353": 231,
        "12354": 139,
        "12355": 132,
        "12356": 172,
        "12357": 251,
        "12358": 144,
        "12359": 76,
        "12360": 209,
        "12361": 164,
        "12362": 115,
        "12363": 73,
        "12364": 28,
        "12365": 45,
        "12366": 36,
        "12367": 174,
        "12368": 67,
        "12369": 36,
        "12370": 22,
        "12371": 76,
        "12372": 91,
        "12373": 19,
        "12374": 95,
        "12375": 30,
        "12376": 226,
        "12377": 133,
        "12378": 225,
        "12379": 63,
        "12380": 40,
        "12381": 246,
        "12382": 224,
        "12383": 190,
        "12384": 252,
        "12385": 223,
        "12386": 111,
        "12387": 253,
        "12388": 233,
        "12389": 169,
        "12390": 197,
        "12391": 255,
        "12392": 50,
        "12393": 76,
        "12394": 205,
        "12395": 245,
        "12396": 96,
        "12397": 40,
        "12398": 186,
        "12399": 8,
        "12400": 124,
        "12401": 220,
        "12402": 45,
        "12403": 26,
        "12404": 1,
        "12405": 199,
        "12406": 252,
        "12407": 8,
        "12408": 228,
        "12409": 77,
        "12410": 49,
        "12411": 237,
        "12412": 43,
        "12413": 135,
        "12414": 15,
        "12415": 109,
        "12416": 81,
        "12417": 23,
        "12418": 149,
        "12419": 129,
        "12420": 29,
        "12421": 195,
        "12422": 168,
        "12423": 75,
        "12424": 169,
        "12425": 137,
        "12426": 135,
        "12427": 248,
        "12428": 46,
        "12429": 172,
        "12430": 18,
        "12431": 124,
        "12432": 106,
        "12433": 159,
        "12434": 20,
        "12435": 3,
        "12436": 10,
        "12437": 146,
        "12438": 173,
        "12439": 101,
        "12440": 128,
        "12441": 132,
        "12442": 26,
        "12443": 104,
        "12444": 139,
        "12445": 79,
        "12446": 252,
        "12447": 80,
        "12448": 49,
        "12449": 165,
        "12450": 186,
        "12451": 178,
        "12452": 221,
        "12453": 187,
        "12454": 96,
        "12455": 48,
        "12456": 217,
        "12457": 92,
        "12458": 212,
        "12459": 21,
        "12460": 94,
        "12461": 139,
        "12462": 226,
        "12463": 234,
        "12464": 96,
        "12465": 142,
        "12466": 94,
        "12467": 146,
        "12468": 117,
        "12469": 249,
        "12470": 17,
        "12471": 181,
        "12472": 14,
        "12473": 88,
        "12474": 72,
        "12475": 56,
        "12476": 84,
        "12477": 238,
        "12478": 8,
        "12479": 32,
        "12480": 100,
        "12481": 102,
        "12482": 195,
        "12483": 159,
        "12484": 38,
        "12485": 46,
        "12486": 72,
        "12487": 216,
        "12488": 91,
        "12489": 10,
        "12490": 184,
        "12491": 197,
        "12492": 64,
        "12493": 126,
        "12494": 97,
        "12495": 27,
        "12496": 62,
        "12497": 223,
        "12498": 152,
        "12499": 16,
        "12500": 25,
        "12501": 18,
        "12502": 197,
        "12503": 62,
        "12504": 128,
        "12505": 94,
        "12506": 106,
        "12507": 127,
        "12508": 22,
        "12509": 110,
        "12510": 129,
        "12511": 50,
        "12512": 156,
        "12513": 22,
        "12514": 79,
        "12515": 166,
        "12516": 18,
        "12517": 144,
        "12518": 166,
        "12519": 22,
        "12520": 178,
        "12521": 250,
        "12522": 172,
        "12523": 181,
        "12524": 251,
        "12525": 145,
        "12526": 27,
        "12527": 35,
        "12528": 122,
        "12529": 97,
        "12530": 94,
        "12531": 177,
        "12532": 189,
        "12533": 76,
        "12534": 126,
        "12535": 75,
        "12536": 215,
        "12537": 127,
        "12538": 62,
        "12539": 184,
        "12540": 145,
        "12541": 72,
        "12542": 49,
        "12543": 65,
        "12544": 199,
        "12545": 195,
        "12546": 167,
        "12547": 202,
        "12548": 197,
        "12549": 144,
        "12550": 22,
        "12551": 49,
        "12552": 24,
        "12553": 170,
        "12554": 77,
        "12555": 84,
        "12556": 205,
        "12557": 232,
        "12558": 182,
        "12559": 197,
        "12560": 253,
        "12561": 173,
        "12562": 138,
        "12563": 129,
        "12564": 21,
        "12565": 156,
        "12566": 107,
        "12567": 15,
        "12568": 59,
        "12569": 70,
        "12570": 210,
        "12571": 0,
        "12572": 126,
        "12573": 251,
        "12574": 74,
        "12575": 169,
        "12576": 3,
        "12577": 41,
        "12578": 73,
        "12579": 204,
        "12580": 75,
        "12581": 5,
        "12582": 48,
        "12583": 149,
        "12584": 193,
        "12585": 16,
        "12586": 171,
        "12587": 19,
        "12588": 201,
        "12589": 245,
        "12590": 50,
        "12591": 89,
        "12592": 86,
        "12593": 19,
        "12594": 219,
        "12595": 123,
        "12596": 170,
        "12597": 0,
        "12598": 83,
        "12599": 126,
        "12600": 210,
        "12601": 38,
        "12602": 31,
        "12603": 0,
        "12604": 191,
        "12605": 216,
        "12606": 242,
        "12607": 146,
        "12608": 28,
        "12609": 159,
        "12610": 239,
        "12611": 134,
        "12612": 6,
        "12613": 3,
        "12614": 39,
        "12615": 85,
        "12616": 152,
        "12617": 114,
        "12618": 203,
        "12619": 246,
        "12620": 200,
        "12621": 66,
        "12622": 104,
        "12623": 116,
        "12624": 146,
        "12625": 25,
        "12626": 222,
        "12627": 37,
        "12628": 115,
        "12629": 108,
        "12630": 20,
        "12631": 35,
        "12632": 71,
        "12633": 95,
        "12634": 50,
        "12635": 238,
        "12636": 222,
        "12637": 80,
        "12638": 113,
        "12639": 184,
        "12640": 38,
        "12641": 166,
        "12642": 229,
        "12643": 202,
        "12644": 205,
        "12645": 88,
        "12646": 46,
        "12647": 166,
        "12648": 56,
        "12649": 159,
        "12650": 150,
        "12651": 125,
        "12652": 201,
        "12653": 140,
        "12654": 228,
        "12655": 93,
        "12656": 18,
        "12657": 131,
        "12658": 33,
        "12659": 96,
        "12660": 200,
        "12661": 79,
        "12662": 163,
        "12663": 142,
        "12664": 223,
        "12665": 193,
        "12666": 59,
        "12667": 242,
        "12668": 85,
        "12669": 119,
        "12670": 69,
        "12671": 210,
        "12672": 233,
        "12673": 92,
        "12674": 135,
        "12675": 170,
        "12676": 59,
        "12677": 41,
        "12678": 168,
        "12679": 86,
        "12680": 24,
        "12681": 143,
        "12682": 204,
        "12683": 96,
        "12684": 115,
        "12685": 140,
        "12686": 235,
        "12687": 130,
        "12688": 12,
        "12689": 119,
        "12690": 56,
        "12691": 122,
        "12692": 47,
        "12693": 39,
        "12694": 163,
        "12695": 20,
        "12696": 7,
        "12697": 83,
        "12698": 215,
        "12699": 117,
        "12700": 36,
        "12701": 214,
        "12702": 56,
        "12703": 60,
        "12704": 62,
        "12705": 1,
        "12706": 70,
        "12707": 154,
        "12708": 182,
        "12709": 8,
        "12710": 180,
        "12711": 241,
        "12712": 45,
        "12713": 214,
        "12714": 22,
        "12715": 236,
        "12716": 249,
        "12717": 109,
        "12718": 85,
        "12719": 211,
        "12720": 88,
        "12721": 30,
        "12722": 8,
        "12723": 86,
        "12724": 160,
        "12725": 95,
        "12726": 152,
        "12727": 169,
        "12728": 56,
        "12729": 28,
        "12730": 220,
        "12731": 159,
        "12732": 95,
        "12733": 227,
        "12734": 95,
        "12735": 94,
        "12736": 254,
        "12737": 147,
        "12738": 231,
        "12739": 96,
        "12740": 149,
        "12741": 29,
        "12742": 113,
        "12743": 161,
        "12744": 152,
        "12745": 195,
        "12746": 85,
        "12747": 217,
        "12748": 31,
        "12749": 151,
        "12750": 109,
        "12751": 44,
        "12752": 210,
        "12753": 116,
        "12754": 2,
        "12755": 211,
        "12756": 78,
        "12757": 80,
        "12758": 119,
        "12759": 183,
        "12760": 78,
        "12761": 163,
        "12762": 154,
        "12763": 134,
        "12764": 31,
        "12765": 252,
        "12766": 86,
        "12767": 55,
        "12768": 13,
        "12769": 147,
        "12770": 91,
        "12771": 198,
        "12772": 167,
        "12773": 22,
        "12774": 74,
        "12775": 163,
        "12776": 59,
        "12777": 100,
        "12778": 225,
        "12779": 56,
        "12780": 54,
        "12781": 17,
        "12782": 173,
        "12783": 37,
        "12784": 197,
        "12785": 56,
        "12786": 76,
        "12787": 143,
        "12788": 97,
        "12789": 117,
        "12790": 121,
        "12791": 67,
        "12792": 157,
        "12793": 41,
        "12794": 77,
        "12795": 84,
        "12796": 102,
        "12797": 81,
        "12798": 97,
        "12799": 168,
        "12800": 203,
        "12801": 210,
        "12802": 211,
        "12803": 41,
        "12804": 128,
        "12805": 132,
        "12806": 137,
        "12807": 157,
        "12808": 200,
        "12809": 189,
        "12810": 20,
        "12811": 64,
        "12812": 239,
        "12813": 249,
        "12814": 174,
        "12815": 5,
        "12816": 213,
        "12817": 235,
        "12818": 107,
        "12819": 26,
        "12820": 134,
        "12821": 91,
        "12822": 179,
        "12823": 115,
        "12824": 55,
        "12825": 85,
        "12826": 227,
        "12827": 156,
        "12828": 218,
        "12829": 60,
        "12830": 54,
        "12831": 180,
        "12832": 181,
        "12833": 122,
        "12834": 176,
        "12835": 11,
        "12836": 232,
        "12837": 171,
        "12838": 156,
        "12839": 32,
        "12840": 98,
        "12841": 132,
        "12842": 30,
        "12843": 54,
        "12844": 170,
        "12845": 173,
        "12846": 219,
        "12847": 85,
        "12848": 127,
        "12849": 109,
        "12850": 17,
        "12851": 254,
        "12852": 56,
        "12853": 247,
        "12854": 168,
        "12855": 94,
        "12856": 104,
        "12857": 34,
        "12858": 93,
        "12859": 171,
        "12860": 232,
        "12861": 84,
        "12862": 42,
        "12863": 34,
        "12864": 210,
        "12865": 64,
        "12866": 37,
        "12867": 25,
        "12868": 40,
        "12869": 96,
        "12870": 154,
        "12871": 219,
        "12872": 252,
        "12873": 117,
        "12874": 215,
        "12875": 152,
        "12876": 131,
        "12877": 136,
        "12878": 63,
        "12879": 124,
        "12880": 170,
        "12881": 215,
        "12882": 11,
        "12883": 151,
        "12884": 88,
        "12885": 191,
        "12886": 117,
        "12887": 9,
        "12888": 158,
        "12889": 133,
        "12890": 24,
        "12891": 187,
        "12892": 72,
        "12893": 34,
        "12894": 80,
        "12895": 53,
        "12896": 165,
        "12897": 102,
        "12898": 134,
        "12899": 246,
        "12900": 254,
        "12901": 69,
        "12902": 238,
        "12903": 149,
        "12904": 226,
        "12905": 150,
        "12906": 31,
        "12907": 177,
        "12908": 206,
        "12909": 199,
        "12910": 236,
        "12911": 188,
        "12912": 79,
        "12913": 162,
        "12914": 4,
        "12915": 53,
        "12916": 92,
        "12917": 47,
        "12918": 52,
        "12919": 66,
        "12920": 2,
        "12921": 195,
        "12922": 173,
        "12923": 4,
        "12924": 75,
        "12925": 1,
        "12926": 220,
        "12927": 103,
        "12928": 24,
        "12929": 176,
        "12930": 219,
        "12931": 68,
        "12932": 150,
        "12933": 12,
        "12934": 237,
        "12935": 24,
        "12936": 53,
        "12937": 152,
        "12938": 120,
        "12939": 56,
        "12940": 255,
        "12941": 81,
        "12942": 24,
        "12943": 10,
        "12944": 51,
        "12945": 78,
        "12946": 9,
        "12947": 59,
        "12948": 112,
        "12949": 227,
        "12950": 232,
        "12951": 45,
        "12952": 181,
        "12953": 28,
        "12954": 14,
        "12955": 138,
        "12956": 62,
        "12957": 16,
        "12958": 36,
        "12959": 26,
        "12960": 12,
        "12961": 101,
        "12962": 104,
        "12963": 89,
        "12964": 92,
        "12965": 21,
        "12966": 116,
        "12967": 2,
        "12968": 46,
        "12969": 113,
        "12970": 176,
        "12971": 17,
        "12972": 185,
        "12973": 45,
        "12974": 174,
        "12975": 114,
        "12976": 8,
        "12977": 65,
        "12978": 213,
        "12979": 13,
        "12980": 116,
        "12981": 124,
        "12982": 68,
        "12983": 141,
        "12984": 211,
        "12985": 150,
        "12986": 88,
        "12987": 233,
        "12988": 97,
        "12989": 84,
        "12990": 140,
        "12991": 20,
        "12992": 125,
        "12993": 180,
        "12994": 89,
        "12995": 105,
        "12996": 5,
        "12997": 183,
        "12998": 92,
        "12999": 76,
        "13000": 253,
        "13001": 70,
        "13002": 2,
        "13003": 162,
        "13004": 210,
        "13005": 181,
        "13006": 70,
        "13007": 141,
        "13008": 241,
        "13009": 155,
        "13010": 131,
        "13011": 233,
        "13012": 86,
        "13013": 151,
        "13014": 147,
        "13015": 221,
        "13016": 57,
        "13017": 222,
        "13018": 20,
        "13019": 30,
        "13020": 190,
        "13021": 128,
        "13022": 20,
        "13023": 113,
        "13024": 150,
        "13025": 70,
        "13026": 13,
        "13027": 191,
        "13028": 123,
        "13029": 34,
        "13030": 224,
        "13031": 23,
        "13032": 136,
        "13033": 220,
        "13034": 149,
        "13035": 185,
        "13036": 170,
        "13037": 70,
        "13038": 40,
        "13039": 219,
        "13040": 218,
        "13041": 182,
        "13042": 79,
        "13043": 90,
        "13044": 235,
        "13045": 146,
        "13046": 221,
        "13047": 107,
        "13048": 55,
        "13049": 45,
        "13050": 153,
        "13051": 29,
        "13052": 241,
        "13053": 28,
        "13054": 25,
        "13055": 68,
        "13056": 88,
        "13057": 123,
        "13058": 67,
        "13059": 241,
        "13060": 2,
        "13061": 175,
        "13062": 118,
        "13063": 195,
        "13064": 163,
        "13065": 130,
        "13066": 2,
        "13067": 33,
        "13068": 202,
        "13069": 48,
        "13070": 9,
        "13071": 181,
        "13072": 81,
        "13073": 10,
        "13074": 122,
        "13075": 168,
        "13076": 210,
        "13077": 165,
        "13078": 147,
        "13079": 101,
        "13080": 114,
        "13081": 235,
        "13082": 144,
        "13083": 158,
        "13084": 204,
        "13085": 97,
        "13086": 59,
        "13087": 59,
        "13088": 56,
        "13089": 52,
        "13090": 189,
        "13091": 37,
        "13092": 29,
        "13093": 51,
        "13094": 162,
        "13095": 26,
        "13096": 119,
        "13097": 167,
        "13098": 78,
        "13099": 174,
        "13100": 169,
        "13101": 52,
        "13102": 212,
        "13103": 223,
        "13104": 90,
        "13105": 110,
        "13106": 58,
        "13107": 111,
        "13108": 209,
        "13109": 179,
        "13110": 253,
        "13111": 20,
        "13112": 235,
        "13113": 68,
        "13114": 157,
        "13115": 40,
        "13116": 126,
        "13117": 203,
        "13118": 169,
        "13119": 255,
        "13120": 201,
        "13121": 231,
        "13122": 127,
        "13123": 117,
        "13124": 91,
        "13125": 204,
        "13126": 224,
        "13127": 150,
        "13128": 40,
        "13129": 100,
        "13130": 125,
        "13131": 16,
        "13132": 224,
        "13133": 160,
        "13134": 195,
        "13135": 126,
        "13136": 9,
        "13137": 191,
        "13138": 158,
        "13139": 75,
        "13140": 25,
        "13141": 33,
        "13142": 194,
        "13143": 40,
        "13144": 31,
        "13145": 187,
        "13146": 210,
        "13147": 52,
        "13148": 241,
        "13149": 202,
        "13150": 208,
        "13151": 30,
        "13152": 169,
        "13153": 101,
        "13154": 39,
        "13155": 200,
        "13156": 94,
        "13157": 50,
        "13158": 86,
        "13159": 223,
        "13160": 119,
        "13161": 43,
        "13162": 88,
        "13163": 246,
        "13164": 223,
        "13165": 254,
        "13166": 189,
        "13167": 111,
        "13168": 181,
        "13169": 236,
        "13170": 3,
        "13171": 141,
        "13172": 122,
        "13173": 115,
        "13174": 35,
        "13175": 124,
        "13176": 10,
        "13177": 138,
        "13178": 252,
        "13179": 204,
        "13180": 173,
        "13181": 248,
        "13182": 47,
        "13183": 162,
        "13184": 122,
        "13185": 217,
        "13186": 69,
        "13187": 223,
        "13188": 61,
        "13189": 86,
        "13190": 90,
        "13191": 153,
        "13192": 224,
        "13193": 6,
        "13194": 155,
        "13195": 152,
        "13196": 86,
        "13197": 52,
        "13198": 203,
        "13199": 185,
        "13200": 132,
        "13201": 174,
        "13202": 91,
        "13203": 240,
        "13204": 63,
        "13205": 101,
        "13206": 155,
        "13207": 151,
        "13208": 234,
        "13209": 254,
        "13210": 228,
        "13211": 57,
        "13212": 236,
        "13213": 221,
        "13214": 196,
        "13215": 182,
        "13216": 155,
        "13217": 8,
        "13218": 203,
        "13219": 108,
        "13220": 227,
        "13221": 234,
        "13222": 191,
        "13223": 229,
        "13224": 241,
        "13225": 56,
        "13226": 43,
        "13227": 106,
        "13228": 123,
        "13229": 122,
        "13230": 127,
        "13231": 138,
        "13232": 50,
        "13233": 183,
        "13234": 63,
        "13235": 120,
        "13236": 238,
        "13237": 75,
        "13238": 151,
        "13239": 106,
        "13240": 185,
        "13241": 125,
        "13242": 166,
        "13243": 18,
        "13244": 96,
        "13245": 198,
        "13246": 103,
        "13247": 252,
        "13248": 161,
        "13249": 169,
        "13250": 225,
        "13251": 169,
        "13252": 135,
        "13253": 249,
        "13254": 119,
        "13255": 169,
        "13256": 163,
        "13257": 234,
        "13258": 204,
        "13259": 179,
        "13260": 165,
        "13261": 124,
        "13262": 93,
        "13263": 133,
        "13264": 106,
        "13265": 192,
        "13266": 189,
        "13267": 250,
        "13268": 149,
        "13269": 64,
        "13270": 221,
        "13271": 13,
        "13272": 92,
        "13273": 125,
        "13274": 53,
        "13275": 180,
        "13276": 180,
        "13277": 135,
        "13278": 161,
        "13279": 49,
        "13280": 167,
        "13281": 116,
        "13282": 77,
        "13283": 158,
        "13284": 216,
        "13285": 136,
        "13286": 3,
        "13287": 120,
        "13288": 108,
        "13289": 234,
        "13290": 106,
        "13291": 151,
        "13292": 156,
        "13293": 40,
        "13294": 64,
        "13295": 186,
        "13296": 241,
        "13297": 58,
        "13298": 81,
        "13299": 250,
        "13300": 242,
        "13301": 90,
        "13302": 58,
        "13303": 207,
        "13304": 194,
        "13305": 156,
        "13306": 42,
        "13307": 212,
        "13308": 66,
        "13309": 6,
        "13310": 190,
        "13311": 119,
        "13312": 153,
        "13313": 165,
        "13314": 181,
        "13315": 10,
        "13316": 111,
        "13317": 229,
        "13318": 50,
        "13319": 49,
        "13320": 152,
        "13321": 30,
        "13322": 216,
        "13323": 104,
        "13324": 135,
        "13325": 107,
        "13326": 189,
        "13327": 53,
        "13328": 127,
        "13329": 187,
        "13330": 42,
        "13331": 187,
        "13332": 70,
        "13333": 134,
        "13334": 106,
        "13335": 90,
        "13336": 3,
        "13337": 118,
        "13338": 33,
        "13339": 62,
        "13340": 107,
        "13341": 111,
        "13342": 218,
        "13343": 225,
        "13344": 151,
        "13345": 19,
        "13346": 233,
        "13347": 253,
        "13348": 110,
        "13349": 189,
        "13350": 211,
        "13351": 111,
        "13352": 43,
        "13353": 160,
        "13354": 64,
        "13355": 201,
        "13356": 65,
        "13357": 218,
        "13358": 220,
        "13359": 81,
        "13360": 92,
        "13361": 26,
        "13362": 248,
        "13363": 4,
        "13364": 194,
        "13365": 16,
        "13366": 178,
        "13367": 33,
        "13368": 127,
        "13369": 28,
        "13370": 71,
        "13371": 28,
        "13372": 191,
        "13373": 188,
        "13374": 154,
        "13375": 9,
        "13376": 169,
        "13377": 37,
        "13378": 74,
        "13379": 96,
        "13380": 9,
        "13381": 161,
        "13382": 91,
        "13383": 37,
        "13384": 131,
        "13385": 200,
        "13386": 51,
        "13387": 13,
        "13388": 85,
        "13389": 1,
        "13390": 196,
        "13391": 174,
        "13392": 15,
        "13393": 168,
        "13394": 16,
        "13395": 47,
        "13396": 151,
        "13397": 120,
        "13398": 115,
        "13399": 190,
        "13400": 108,
        "13401": 21,
        "13402": 232,
        "13403": 20,
        "13404": 100,
        "13405": 242,
        "13406": 142,
        "13407": 61,
        "13408": 90,
        "13409": 208,
        "13410": 151,
        "13411": 137,
        "13412": 67,
        "13413": 88,
        "13414": 162,
        "13415": 208,
        "13416": 192,
        "13417": 144,
        "13418": 91,
        "13419": 31,
        "13420": 4,
        "13421": 116,
        "13422": 99,
        "13423": 199,
        "13424": 175,
        "13425": 74,
        "13426": 110,
        "13427": 241,
        "13428": 218,
        "13429": 22,
        "13430": 183,
        "13431": 225,
        "13432": 169,
        "13433": 118,
        "13434": 65,
        "13435": 235,
        "13436": 200,
        "13437": 153,
        "13438": 136,
        "13439": 115,
        "13440": 185,
        "13441": 77,
        "13442": 167,
        "13443": 12,
        "13444": 108,
        "13445": 171,
        "13446": 24,
        "13447": 216,
        "13448": 253,
        "13449": 151,
        "13450": 111,
        "13451": 118,
        "13452": 132,
        "13453": 208,
        "13454": 103,
        "13455": 139,
        "13456": 55,
        "13457": 103,
        "13458": 50,
        "13459": 73,
        "13460": 99,
        "13461": 75,
        "13462": 109,
        "13463": 65,
        "13464": 161,
        "13465": 117,
        "13466": 32,
        "13467": 2,
        "13468": 166,
        "13469": 102,
        "13470": 133,
        "13471": 227,
        "13472": 238,
        "13473": 137,
        "13474": 93,
        "13475": 151,
        "13476": 234,
        "13477": 87,
        "13478": 200,
        "13479": 130,
        "13480": 13,
        "13481": 12,
        "13482": 196,
        "13483": 188,
        "13484": 105,
        "13485": 4,
        "13486": 71,
        "13487": 24,
        "13488": 5,
        "13489": 214,
        "13490": 30,
        "13491": 127,
        "13492": 99,
        "13493": 207,
        "13494": 116,
        "13495": 116,
        "13496": 192,
        "13497": 24,
        "13498": 91,
        "13499": 58,
        "13500": 234,
        "13501": 64,
        "13502": 134,
        "13503": 250,
        "13504": 58,
        "13505": 55,
        "13506": 46,
        "13507": 181,
        "13508": 159,
        "13509": 127,
        "13510": 46,
        "13511": 192,
        "13512": 239,
        "13513": 199,
        "13514": 253,
        "13515": 133,
        "13516": 208,
        "13517": 198,
        "13518": 153,
        "13519": 204,
        "13520": 136,
        "13521": 192,
        "13522": 91,
        "13523": 112,
        "13524": 221,
        "13525": 0,
        "13526": 197,
        "13527": 229,
        "13528": 221,
        "13529": 244,
        "13530": 166,
        "13531": 44,
        "13532": 179,
        "13533": 145,
        "13534": 63,
        "13535": 37,
        "13536": 190,
        "13537": 113,
        "13538": 237,
        "13539": 55,
        "13540": 214,
        "13541": 49,
        "13542": 176,
        "13543": 105,
        "13544": 233,
        "13545": 158,
        "13546": 198,
        "13547": 249,
        "13548": 69,
        "13549": 121,
        "13550": 183,
        "13551": 39,
        "13552": 134,
        "13553": 181,
        "13554": 5,
        "13555": 98,
        "13556": 51,
        "13557": 20,
        "13558": 206,
        "13559": 200,
        "13560": 222,
        "13561": 38,
        "13562": 85,
        "13563": 164,
        "13564": 185,
        "13565": 29,
        "13566": 154,
        "13567": 112,
        "13568": 119,
        "13569": 231,
        "13570": 239,
        "13571": 220,
        "13572": 248,
        "13573": 178,
        "13574": 110,
        "13575": 190,
        "13576": 116,
        "13577": 249,
        "13578": 37,
        "13579": 68,
        "13580": 18,
        "13581": 214,
        "13582": 122,
        "13583": 160,
        "13584": 210,
        "13585": 184,
        "13586": 19,
        "13587": 202,
        "13588": 156,
        "13589": 206,
        "13590": 155,
        "13591": 94,
        "13592": 248,
        "13593": 79,
        "13594": 214,
        "13595": 142,
        "13596": 96,
        "13597": 70,
        "13598": 171,
        "13599": 173,
        "13600": 58,
        "13601": 83,
        "13602": 40,
        "13603": 33,
        "13604": 152,
        "13605": 164,
        "13606": 214,
        "13607": 237,
        "13608": 245,
        "13609": 77,
        "13610": 164,
        "13611": 4,
        "13612": 180,
        "13613": 37,
        "13614": 202,
        "13615": 7,
        "13616": 239,
        "13617": 227,
        "13618": 46,
        "13619": 181,
        "13620": 210,
        "13621": 137,
        "13622": 91,
        "13623": 86,
        "13624": 29,
        "13625": 95,
        "13626": 133,
        "13627": 193,
        "13628": 54,
        "13629": 182,
        "13630": 28,
        "13631": 40,
        "13632": 32,
        "13633": 38,
        "13634": 120,
        "13635": 68,
        "13636": 136,
        "13637": 160,
        "13638": 231,
        "13639": 239,
        "13640": 247,
        "13641": 197,
        "13642": 233,
        "13643": 68,
        "13644": 190,
        "13645": 203,
        "13646": 190,
        "13647": 169,
        "13648": 226,
        "13649": 131,
        "13650": 53,
        "13651": 139,
        "13652": 16,
        "13653": 194,
        "13654": 66,
        "13655": 131,
        "13656": 10,
        "13657": 78,
        "13658": 49,
        "13659": 91,
        "13660": 117,
        "13661": 41,
        "13662": 150,
        "13663": 163,
        "13664": 186,
        "13665": 68,
        "13666": 62,
        "13667": 173,
        "13668": 93,
        "13669": 135,
        "13670": 88,
        "13671": 118,
        "13672": 177,
        "13673": 127,
        "13674": 180,
        "13675": 110,
        "13676": 177,
        "13677": 152,
        "13678": 131,
        "13679": 202,
        "13680": 253,
        "13681": 203,
        "13682": 46,
        "13683": 129,
        "13684": 43,
        "13685": 216,
        "13686": 90,
        "13687": 186,
        "13688": 20,
        "13689": 237,
        "13690": 111,
        "13691": 81,
        "13692": 78,
        "13693": 106,
        "13694": 212,
        "13695": 131,
        "13696": 147,
        "13697": 165,
        "13698": 156,
        "13699": 226,
        "13700": 23,
        "13701": 162,
        "13702": 74,
        "13703": 24,
        "13704": 184,
        "13705": 50,
        "13706": 67,
        "13707": 70,
        "13708": 227,
        "13709": 192,
        "13710": 161,
        "13711": 224,
        "13712": 33,
        "13713": 182,
        "13714": 91,
        "13715": 241,
        "13716": 233,
        "13717": 183,
        "13718": 100,
        "13719": 99,
        "13720": 151,
        "13721": 204,
        "13722": 59,
        "13723": 218,
        "13724": 205,
        "13725": 240,
        "13726": 113,
        "13727": 189,
        "13728": 168,
        "13729": 184,
        "13730": 188,
        "13731": 56,
        "13732": 110,
        "13733": 233,
        "13734": 3,
        "13735": 75,
        "13736": 100,
        "13737": 159,
        "13738": 9,
        "13739": 243,
        "13740": 182,
        "13741": 88,
        "13742": 106,
        "13743": 201,
        "13744": 142,
        "13745": 97,
        "13746": 27,
        "13747": 125,
        "13748": 99,
        "13749": 64,
        "13750": 197,
        "13751": 16,
        "13752": 36,
        "13753": 245,
        "13754": 162,
        "13755": 199,
        "13756": 6,
        "13757": 94,
        "13758": 183,
        "13759": 51,
        "13760": 203,
        "13761": 232,
        "13762": 233,
        "13763": 231,
        "13764": 35,
        "13765": 130,
        "13766": 247,
        "13767": 44,
        "13768": 107,
        "13769": 229,
        "13770": 138,
        "13771": 142,
        "13772": 170,
        "13773": 9,
        "13774": 53,
        "13775": 220,
        "13776": 247,
        "13777": 25,
        "13778": 9,
        "13779": 72,
        "13780": 79,
        "13781": 97,
        "13782": 202,
        "13783": 225,
        "13784": 235,
        "13785": 81,
        "13786": 49,
        "13787": 153,
        "13788": 83,
        "13789": 126,
        "13790": 120,
        "13791": 155,
        "13792": 133,
        "13793": 52,
        "13794": 24,
        "13795": 178,
        "13796": 132,
        "13797": 66,
        "13798": 75,
        "13799": 214,
        "13800": 223,
        "13801": 127,
        "13802": 30,
        "13803": 220,
        "13804": 255,
        "13805": 88,
        "13806": 14,
        "13807": 152,
        "13808": 176,
        "13809": 247,
        "13810": 240,
        "13811": 40,
        "13812": 72,
        "13813": 90,
        "13814": 153,
        "13815": 172,
        "13816": 47,
        "13817": 135,
        "13818": 108,
        "13819": 51,
        "13820": 100,
        "13821": 85,
        "13822": 180,
        "13823": 173,
        "13824": 153,
        "13825": 229,
        "13826": 73,
        "13827": 44,
        "13828": 43,
        "13829": 116,
        "13830": 216,
        "13831": 82,
        "13832": 8,
        "13833": 218,
        "13834": 200,
        "13835": 61,
        "13836": 212,
        "13837": 191,
        "13838": 10,
        "13839": 144,
        "13840": 229,
        "13841": 175,
        "13842": 48,
        "13843": 114,
        "13844": 9,
        "13845": 9,
        "13846": 75,
        "13847": 165,
        "13848": 41,
        "13849": 142,
        "13850": 25,
        "13851": 108,
        "13852": 63,
        "13853": 155,
        "13854": 148,
        "13855": 187,
        "13856": 142,
        "13857": 110,
        "13858": 127,
        "13859": 28,
        "13860": 11,
        "13861": 80,
        "13862": 26,
        "13863": 181,
        "13864": 228,
        "13865": 90,
        "13866": 190,
        "13867": 225,
        "13868": 152,
        "13869": 36,
        "13870": 109,
        "13871": 233,
        "13872": 65,
        "13873": 126,
        "13874": 196,
        "13875": 112,
        "13876": 245,
        "13877": 190,
        "13878": 68,
        "13879": 52,
        "13880": 2,
        "13881": 133,
        "13882": 77,
        "13883": 184,
        "13884": 150,
        "13885": 9,
        "13886": 21,
        "13887": 202,
        "13888": 93,
        "13889": 9,
        "13890": 204,
        "13891": 233,
        "13892": 135,
        "13893": 162,
        "13894": 90,
        "13895": 253,
        "13896": 186,
        "13897": 249,
        "13898": 5,
        "13899": 219,
        "13900": 179,
        "13901": 148,
        "13902": 2,
        "13903": 114,
        "13904": 7,
        "13905": 50,
        "13906": 253,
        "13907": 101,
        "13908": 14,
        "13909": 113,
        "13910": 121,
        "13911": 196,
        "13912": 250,
        "13913": 2,
        "13914": 208,
        "13915": 19,
        "13916": 236,
        "13917": 246,
        "13918": 54,
        "13919": 32,
        "13920": 116,
        "13921": 167,
        "13922": 231,
        "13923": 223,
        "13924": 73,
        "13925": 171,
        "13926": 250,
        "13927": 26,
        "13928": 179,
        "13929": 225,
        "13930": 225,
        "13931": 112,
        "13932": 46,
        "13933": 64,
        "13934": 186,
        "13935": 238,
        "13936": 171,
        "13937": 185,
        "13938": 16,
        "13939": 75,
        "13940": 221,
        "13941": 33,
        "13942": 243,
        "13943": 228,
        "13944": 64,
        "13945": 118,
        "13946": 212,
        "13947": 238,
        "13948": 199,
        "13949": 6,
        "13950": 124,
        "13951": 12,
        "13952": 9,
        "13953": 28,
        "13954": 73,
        "13955": 190,
        "13956": 72,
        "13957": 94,
        "13958": 201,
        "13959": 246,
        "13960": 127,
        "13961": 133,
        "13962": 77,
        "13963": 70,
        "13964": 198,
        "13965": 73,
        "13966": 32,
        "13967": 33,
        "13968": 30,
        "13969": 243,
        "13970": 163,
        "13971": 68,
        "13972": 7,
        "13973": 248,
        "13974": 254,
        "13975": 218,
        "13976": 174,
        "13977": 36,
        "13978": 18,
        "13979": 30,
        "13980": 225,
        "13981": 113,
        "13982": 49,
        "13983": 110,
        "13984": 13,
        "13985": 20,
        "13986": 102,
        "13987": 119,
        "13988": 106,
        "13989": 90,
        "13990": 97,
        "13991": 127,
        "13992": 249,
        "13993": 220,
        "13994": 165,
        "13995": 208,
        "13996": 212,
        "13997": 24,
        "13998": 48,
        "13999": 173,
        "14000": 173,
        "14001": 176,
        "14002": 184,
        "14003": 130,
        "14004": 29,
        "14005": 131,
        "14006": 253,
        "14007": 226,
        "14008": 219,
        "14009": 81,
        "14010": 88,
        "14011": 161,
        "14012": 226,
        "14013": 18,
        "14014": 244,
        "14015": 242,
        "14016": 140,
        "14017": 188,
        "14018": 217,
        "14019": 83,
        "14020": 213,
        "14021": 203,
        "14022": 13,
        "14023": 29,
        "14024": 28,
        "14025": 203,
        "14026": 57,
        "14027": 120,
        "14028": 126,
        "14029": 188,
        "14030": 106,
        "14031": 139,
        "14032": 127,
        "14033": 191,
        "14034": 213,
        "14035": 246,
        "14036": 87,
        "14037": 197,
        "14038": 50,
        "14039": 78,
        "14040": 7,
        "14041": 188,
        "14042": 70,
        "14043": 84,
        "14044": 119,
        "14045": 164,
        "14046": 169,
        "14047": 243,
        "14048": 27,
        "14049": 208,
        "14050": 23,
        "14051": 172,
        "14052": 212,
        "14053": 36,
        "14054": 108,
        "14055": 31,
        "14056": 26,
        "14057": 143,
        "14058": 27,
        "14059": 7,
        "14060": 131,
        "14061": 222,
        "14062": 129,
        "14063": 28,
        "14064": 166,
        "14065": 18,
        "14066": 131,
        "14067": 255,
        "14068": 160,
        "14069": 155,
        "14070": 169,
        "14071": 49,
        "14072": 18,
        "14073": 92,
        "14074": 176,
        "14075": 248,
        "14076": 94,
        "14077": 199,
        "14078": 173,
        "14079": 55,
        "14080": 6,
        "14081": 107,
        "14082": 208,
        "14083": 197,
        "14084": 11,
        "14085": 208,
        "14086": 196,
        "14087": 190,
        "14088": 77,
        "14089": 59,
        "14090": 22,
        "14091": 109,
        "14092": 220,
        "14093": 44,
        "14094": 180,
        "14095": 103,
        "14096": 68,
        "14097": 199,
        "14098": 64,
        "14099": 96,
        "14100": 26,
        "14101": 143,
        "14102": 39,
        "14103": 254,
        "14104": 220,
        "14105": 185,
        "14106": 82,
        "14107": 111,
        "14108": 26,
        "14109": 251,
        "14110": 92,
        "14111": 215,
        "14112": 151,
        "14113": 254,
        "14114": 93,
        "14115": 49,
        "14116": 81,
        "14117": 145,
        "14118": 190,
        "14119": 178,
        "14120": 6,
        "14121": 206,
        "14122": 51,
        "14123": 248,
        "14124": 42,
        "14125": 46,
        "14126": 174,
        "14127": 171,
        "14128": 3,
        "14129": 39,
        "14130": 105,
        "14131": 117,
        "14132": 74,
        "14133": 109,
        "14134": 184,
        "14135": 183,
        "14136": 0,
        "14137": 228,
        "14138": 147,
        "14139": 112,
        "14140": 220,
        "14141": 181,
        "14142": 158,
        "14143": 219,
        "14144": 84,
        "14145": 73,
        "14146": 181,
        "14147": 84,
        "14148": 146,
        "14149": 250,
        "14150": 105,
        "14151": 168,
        "14152": 255,
        "14153": 143,
        "14154": 175,
        "14155": 63,
        "14156": 131,
        "14157": 20,
        "14158": 49,
        "14159": 101,
        "14160": 38,
        "14161": 249,
        "14162": 198,
        "14163": 12,
        "14164": 113,
        "14165": 117,
        "14166": 148,
        "14167": 38,
        "14168": 105,
        "14169": 245,
        "14170": 184,
        "14171": 233,
        "14172": 46,
        "14173": 187,
        "14174": 155,
        "14175": 10,
        "14176": 79,
        "14177": 151,
        "14178": 241,
        "14179": 50,
        "14180": 83,
        "14181": 6,
        "14182": 69,
        "14183": 194,
        "14184": 147,
        "14185": 138,
        "14186": 112,
        "14187": 2,
        "14188": 186,
        "14189": 45,
        "14190": 85,
        "14191": 129,
        "14192": 18,
        "14193": 47,
        "14194": 149,
        "14195": 47,
        "14196": 237,
        "14197": 6,
        "14198": 177,
        "14199": 59,
        "14200": 60,
        "14201": 241,
        "14202": 46,
        "14203": 183,
        "14204": 209,
        "14205": 54,
        "14206": 215,
        "14207": 171,
        "14208": 105,
        "14209": 0,
        "14210": 21,
        "14211": 71,
        "14212": 213,
        "14213": 106,
        "14214": 186,
        "14215": 44,
        "14216": 34,
        "14217": 8,
        "14218": 154,
        "14219": 42,
        "14220": 244,
        "14221": 131,
        "14222": 229,
        "14223": 180,
        "14224": 39,
        "14225": 159,
        "14226": 74,
        "14227": 214,
        "14228": 211,
        "14229": 18,
        "14230": 108,
        "14231": 104,
        "14232": 228,
        "14233": 210,
        "14234": 174,
        "14235": 151,
        "14236": 9,
        "14237": 197,
        "14238": 134,
        "14239": 133,
        "14240": 111,
        "14241": 4,
        "14242": 148,
        "14243": 102,
        "14244": 19,
        "14245": 227,
        "14246": 219,
        "14247": 184,
        "14248": 85,
        "14249": 119,
        "14250": 162,
        "14251": 219,
        "14252": 41,
        "14253": 99,
        "14254": 178,
        "14255": 242,
        "14256": 223,
        "14257": 130,
        "14258": 38,
        "14259": 236,
        "14260": 0,
        "14261": 191,
        "14262": 249,
        "14263": 36,
        "14264": 51,
        "14265": 39,
        "14266": 37,
        "14267": 165,
        "14268": 156,
        "14269": 139,
        "14270": 124,
        "14271": 29,
        "14272": 82,
        "14273": 72,
        "14274": 37,
        "14275": 183,
        "14276": 50,
        "14277": 122,
        "14278": 88,
        "14279": 141,
        "14280": 41,
        "14281": 100,
        "14282": 246,
        "14283": 98,
        "14284": 124,
        "14285": 234,
        "14286": 251,
        "14287": 220,
        "14288": 85,
        "14289": 159,
        "14290": 190,
        "14291": 171,
        "14292": 166,
        "14293": 160,
        "14294": 118,
        "14295": 141,
        "14296": 138,
        "14297": 40,
        "14298": 114,
        "14299": 208,
        "14300": 125,
        "14301": 191,
        "14302": 187,
        "14303": 208,
        "14304": 67,
        "14305": 145,
        "14306": 41,
        "14307": 254,
        "14308": 64,
        "14309": 65,
        "14310": 43,
        "14311": 239,
        "14312": 159,
        "14313": 234,
        "14314": 132,
        "14315": 55,
        "14316": 193,
        "14317": 25,
        "14318": 180,
        "14319": 102,
        "14320": 150,
        "14321": 231,
        "14322": 135,
        "14323": 139,
        "14324": 42,
        "14325": 220,
        "14326": 219,
        "14327": 36,
        "14328": 8,
        "14329": 101,
        "14330": 113,
        "14331": 222,
        "14332": 146,
        "14333": 200,
        "14334": 79,
        "14335": 103,
        "14336": 255,
        "14337": 128,
        "14338": 16,
        "14339": 254,
        "14340": 78,
        "14341": 151,
        "14342": 6,
        "14343": 186,
        "14344": 226,
        "14345": 57,
        "14346": 64,
        "14347": 124,
        "14348": 33,
        "14349": 169,
        "14350": 143,
        "14351": 229,
        "14352": 78,
        "14353": 62,
        "14354": 36,
        "14355": 44,
        "14356": 171,
        "14357": 188,
        "14358": 235,
        "14359": 164,
        "14360": 224,
        "14361": 116,
        "14362": 54,
        "14363": 121,
        "14364": 26,
        "14365": 184,
        "14366": 50,
        "14367": 117,
        "14368": 110,
        "14369": 42,
        "14370": 163,
        "14371": 91,
        "14372": 176,
        "14373": 13,
        "14374": 164,
        "14375": 35,
        "14376": 230,
        "14377": 83,
        "14378": 252,
        "14379": 90,
        "14380": 176,
        "14381": 178,
        "14382": 107,
        "14383": 81,
        "14384": 60,
        "14385": 33,
        "14386": 23,
        "14387": 36,
        "14388": 196,
        "14389": 216,
        "14390": 99,
        "14391": 124,
        "14392": 11,
        "14393": 199,
        "14394": 122,
        "14395": 94,
        "14396": 221,
        "14397": 30,
        "14398": 160,
        "14399": 44,
        "14400": 186,
        "14401": 106,
        "14402": 86,
        "14403": 218,
        "14404": 188,
        "14405": 120,
        "14406": 177,
        "14407": 192,
        "14408": 108,
        "14409": 178,
        "14410": 224,
        "14411": 240,
        "14412": 134,
        "14413": 174,
        "14414": 81,
        "14415": 125,
        "14416": 33,
        "14417": 76,
        "14418": 239,
        "14419": 216,
        "14420": 134,
        "14421": 167,
        "14422": 150,
        "14423": 193,
        "14424": 247,
        "14425": 8,
        "14426": 138,
        "14427": 91,
        "14428": 170,
        "14429": 123,
        "14430": 194,
        "14431": 117,
        "14432": 29,
        "14433": 183,
        "14434": 4,
        "14435": 74,
        "14436": 188,
        "14437": 230,
        "14438": 35,
        "14439": 234,
        "14440": 77,
        "14441": 197,
        "14442": 122,
        "14443": 193,
        "14444": 62,
        "14445": 61,
        "14446": 201,
        "14447": 107,
        "14448": 231,
        "14449": 16,
        "14450": 120,
        "14451": 186,
        "14452": 20,
        "14453": 197,
        "14454": 38,
        "14455": 149,
        "14456": 240,
        "14457": 167,
        "14458": 76,
        "14459": 229,
        "14460": 186,
        "14461": 244,
        "14462": 84,
        "14463": 118,
        "14464": 209,
        "14465": 22,
        "14466": 213,
        "14467": 94,
        "14468": 119,
        "14469": 146,
        "14470": 198,
        "14471": 72,
        "14472": 194,
        "14473": 182,
        "14474": 104,
        "14475": 105,
        "14476": 98,
        "14477": 252,
        "14478": 5,
        "14479": 227,
        "14480": 244,
        "14481": 87,
        "14482": 133,
        "14483": 79,
        "14484": 117,
        "14485": 216,
        "14486": 237,
        "14487": 49,
        "14488": 141,
        "14489": 219,
        "14490": 14,
        "14491": 227,
        "14492": 11,
        "14493": 9,
        "14494": 69,
        "14495": 140,
        "14496": 25,
        "14497": 130,
        "14498": 110,
        "14499": 220,
        "14500": 51,
        "14501": 149,
        "14502": 226,
        "14503": 106,
        "14504": 67,
        "14505": 6,
        "14506": 46,
        "14507": 137,
        "14508": 231,
        "14509": 94,
        "14510": 138,
        "14511": 139,
        "14512": 90,
        "14513": 50,
        "14514": 108,
        "14515": 227,
        "14516": 127,
        "14517": 0,
        "14518": 87,
        "14519": 154,
        "14520": 30,
        "14521": 223,
        "14522": 61,
        "14523": 234,
        "14524": 206,
        "14525": 226,
        "14526": 184,
        "14527": 195,
        "14528": 229,
        "14529": 216,
        "14530": 130,
        "14531": 233,
        "14532": 25,
        "14533": 251,
        "14534": 187,
        "14535": 78,
        "14536": 234,
        "14537": 14,
        "14538": 59,
        "14539": 34,
        "14540": 188,
        "14541": 59,
        "14542": 35,
        "14543": 211,
        "14544": 239,
        "14545": 119,
        "14546": 125,
        "14547": 171,
        "14548": 161,
        "14549": 28,
        "14550": 179,
        "14551": 186,
        "14552": 194,
        "14553": 130,
        "14554": 40,
        "14555": 239,
        "14556": 138,
        "14557": 67,
        "14558": 182,
        "14559": 38,
        "14560": 106,
        "14561": 56,
        "14562": 205,
        "14563": 127,
        "14564": 11,
        "14565": 114,
        "14566": 185,
        "14567": 251,
        "14568": 35,
        "14569": 122,
        "14570": 13,
        "14571": 75,
        "14572": 116,
        "14573": 1,
        "14574": 55,
        "14575": 105,
        "14576": 118,
        "14577": 119,
        "14578": 152,
        "14579": 82,
        "14580": 157,
        "14581": 242,
        "14582": 140,
        "14583": 70,
        "14584": 57,
        "14585": 120,
        "14586": 239,
        "14587": 122,
        "14588": 247,
        "14589": 224,
        "14590": 179,
        "14591": 144,
        "14592": 243,
        "14593": 6,
        "14594": 199,
        "14595": 171,
        "14596": 226,
        "14597": 9,
        "14598": 80,
        "14599": 174,
        "14600": 148,
        "14601": 61,
        "14602": 24,
        "14603": 243,
        "14604": 127,
        "14605": 49,
        "14606": 217,
        "14607": 34,
        "14608": 28,
        "14609": 30,
        "14610": 72,
        "14611": 42,
        "14612": 55,
        "14613": 131,
        "14614": 202,
        "14615": 226,
        "14616": 159,
        "14617": 26,
        "14618": 120,
        "14619": 101,
        "14620": 164,
        "14621": 247,
        "14622": 23,
        "14623": 179,
        "14624": 200,
        "14625": 113,
        "14626": 9,
        "14627": 144,
        "14628": 21,
        "14629": 241,
        "14630": 28,
        "14631": 215,
        "14632": 180,
        "14633": 243,
        "14634": 192,
        "14635": 27,
        "14636": 189,
        "14637": 198,
        "14638": 245,
        "14639": 243,
        "14640": 103,
        "14641": 21,
        "14642": 108,
        "14643": 88,
        "14644": 134,
        "14645": 126,
        "14646": 30,
        "14647": 177,
        "14648": 157,
        "14649": 161,
        "14650": 173,
        "14651": 211,
        "14652": 126,
        "14653": 76,
        "14654": 49,
        "14655": 89,
        "14656": 201,
        "14657": 183,
        "14658": 151,
        "14659": 54,
        "14660": 208,
        "14661": 204,
        "14662": 212,
        "14663": 225,
        "14664": 193,
        "14665": 161,
        "14666": 63,
        "14667": 252,
        "14668": 41,
        "14669": 172,
        "14670": 225,
        "14671": 93,
        "14672": 211,
        "14673": 83,
        "14674": 210,
        "14675": 145,
        "14676": 94,
        "14677": 94,
        "14678": 168,
        "14679": 180,
        "14680": 184,
        "14681": 165,
        "14682": 66,
        "14683": 59,
        "14684": 191,
        "14685": 251,
        "14686": 88,
        "14687": 90,
        "14688": 20,
        "14689": 201,
        "14690": 173,
        "14691": 35,
        "14692": 250,
        "14693": 58,
        "14694": 194,
        "14695": 71,
        "14696": 214,
        "14697": 199,
        "14698": 32,
        "14699": 164,
        "14700": 234,
        "14701": 132,
        "14702": 55,
        "14703": 49,
        "14704": 21,
        "14705": 11,
        "14706": 96,
        "14707": 165,
        "14708": 170,
        "14709": 173,
        "14710": 206,
        "14711": 144,
        "14712": 171,
        "14713": 108,
        "14714": 45,
        "14715": 171,
        "14716": 82,
        "14717": 46,
        "14718": 59,
        "14719": 43,
        "14720": 0,
        "14721": 125,
        "14722": 120,
        "14723": 121,
        "14724": 74,
        "14725": 206,
        "14726": 55,
        "14727": 78,
        "14728": 139,
        "14729": 143,
        "14730": 232,
        "14731": 11,
        "14732": 209,
        "14733": 194,
        "14734": 89,
        "14735": 155,
        "14736": 33,
        "14737": 186,
        "14738": 183,
        "14739": 242,
        "14740": 191,
        "14741": 189,
        "14742": 202,
        "14743": 31,
        "14744": 234,
        "14745": 204,
        "14746": 4,
        "14747": 74,
        "14748": 175,
        "14749": 184,
        "14750": 66,
        "14751": 54,
        "14752": 156,
        "14753": 54,
        "14754": 252,
        "14755": 10,
        "14756": 37,
        "14757": 83,
        "14758": 250,
        "14759": 74,
        "14760": 73,
        "14761": 206,
        "14762": 204,
        "14763": 162,
        "14764": 228,
        "14765": 38,
        "14766": 205,
        "14767": 171,
        "14768": 74,
        "14769": 169,
        "14770": 43,
        "14771": 228,
        "14772": 144,
        "14773": 52,
        "14774": 68,
        "14775": 58,
        "14776": 125,
        "14777": 252,
        "14778": 54,
        "14779": 232,
        "14780": 129,
        "14781": 242,
        "14782": 199,
        "14783": 135,
        "14784": 67,
        "14785": 212,
        "14786": 192,
        "14787": 107,
        "14788": 132,
        "14789": 8,
        "14790": 35,
        "14791": 124,
        "14792": 206,
        "14793": 126,
        "14794": 198,
        "14795": 184,
        "14796": 64,
        "14797": 43,
        "14798": 228,
        "14799": 12,
        "14800": 54,
        "14801": 206,
        "14802": 27,
        "14803": 45,
        "14804": 151,
        "14805": 230,
        "14806": 72,
        "14807": 52,
        "14808": 144,
        "14809": 180,
        "14810": 160,
        "14811": 248,
        "14812": 135,
        "14813": 151,
        "14814": 181,
        "14815": 112,
        "14816": 154,
        "14817": 242,
        "14818": 50,
        "14819": 115,
        "14820": 162,
        "14821": 2,
        "14822": 89,
        "14823": 99,
        "14824": 78,
        "14825": 129,
        "14826": 196,
        "14827": 87,
        "14828": 13,
        "14829": 243,
        "14830": 11,
        "14831": 222,
        "14832": 107,
        "14833": 235,
        "14834": 130,
        "14835": 20,
        "14836": 187,
        "14837": 231,
        "14838": 127,
        "14839": 73,
        "14840": 168,
        "14841": 134,
        "14842": 34,
        "14843": 126,
        "14844": 96,
        "14845": 229,
        "14846": 156,
        "14847": 61,
        "14848": 23,
        "14849": 70,
        "14850": 70,
        "14851": 114,
        "14852": 191,
        "14853": 169,
        "14854": 61,
        "14855": 28,
        "14856": 207,
        "14857": 195,
        "14858": 55,
        "14859": 245,
        "14860": 136,
        "14861": 157,
        "14862": 127,
        "14863": 34,
        "14864": 86,
        "14865": 60,
        "14866": 42,
        "14867": 253,
        "14868": 223,
        "14869": 138,
        "14870": 67,
        "14871": 10,
        "14872": 160,
        "14873": 164,
        "14874": 224,
        "14875": 0,
        "14876": 73,
        "14877": 129,
        "14878": 76,
        "14879": 197,
        "14880": 187,
        "14881": 194,
        "14882": 194,
        "14883": 56,
        "14884": 196,
        "14885": 112,
        "14886": 210,
        "14887": 224,
        "14888": 138,
        "14889": 129,
        "14890": 212,
        "14891": 73,
        "14892": 188,
        "14893": 135,
        "14894": 190,
        "14895": 42,
        "14896": 176,
        "14897": 194,
        "14898": 74,
        "14899": 237,
        "14900": 125,
        "14901": 73,
        "14902": 241,
        "14903": 80,
        "14904": 46,
        "14905": 115,
        "14906": 172,
        "14907": 191,
        "14908": 251,
        "14909": 54,
        "14910": 86,
        "14911": 192,
        "14912": 205,
        "14913": 193,
        "14914": 102,
        "14915": 234,
        "14916": 31,
        "14917": 64,
        "14918": 61,
        "14919": 248,
        "14920": 61,
        "14921": 35,
        "14922": 240,
        "14923": 81,
        "14924": 102,
        "14925": 120,
        "14926": 173,
        "14927": 104,
        "14928": 223,
        "14929": 25,
        "14930": 172,
        "14931": 180,
        "14932": 121,
        "14933": 165,
        "14934": 50,
        "14935": 44,
        "14936": 225,
        "14937": 255,
        "14938": 22,
        "14939": 108,
        "14940": 222,
        "14941": 63,
        "14942": 139,
        "14943": 237,
        "14944": 180,
        "14945": 231,
        "14946": 90,
        "14947": 98,
        "14948": 111,
        "14949": 173,
        "14950": 181,
        "14951": 65,
        "14952": 223,
        "14953": 224,
        "14954": 6,
        "14955": 202,
        "14956": 207,
        "14957": 189,
        "14958": 214,
        "14959": 30,
        "14960": 180,
        "14961": 56,
        "14962": 173,
        "14963": 116,
        "14964": 168,
        "14965": 202,
        "14966": 120,
        "14967": 93,
        "14968": 82,
        "14969": 50,
        "14970": 149,
        "14971": 225,
        "14972": 175,
        "14973": 49,
        "14974": 172,
        "14975": 48,
        "14976": 98,
        "14977": 254,
        "14978": 168,
        "14979": 40,
        "14980": 114,
        "14981": 150,
        "14982": 230,
        "14983": 62,
        "14984": 233,
        "14985": 74,
        "14986": 251,
        "14987": 223,
        "14988": 226,
        "14989": 150,
        "14990": 153,
        "14991": 54,
        "14992": 95,
        "14993": 47,
        "14994": 152,
        "14995": 6,
        "14996": 148,
        "14997": 239,
        "14998": 165,
        "14999": 239,
        "15000": 21,
        "15001": 202,
        "15002": 121,
        "15003": 96,
        "15004": 47,
        "15005": 35,
        "15006": 145,
        "15007": 145,
        "15008": 35,
        "15009": 42,
        "15010": 175,
        "15011": 225,
        "15012": 102,
        "15013": 169,
        "15014": 233,
        "15015": 208,
        "15016": 26,
        "15017": 67,
        "15018": 134,
        "15019": 98,
        "15020": 162,
        "15021": 64,
        "15022": 69,
        "15023": 32,
        "15024": 12,
        "15025": 207,
        "15026": 164,
        "15027": 160,
        "15028": 134,
        "15029": 217,
        "15030": 250,
        "15031": 3,
        "15032": 92,
        "15033": 100,
        "15034": 189,
        "15035": 179,
        "15036": 226,
        "15037": 127,
        "15038": 120,
        "15039": 224,
        "15040": 192,
        "15041": 72,
        "15042": 179,
        "15043": 119,
        "15044": 211,
        "15045": 178,
        "15046": 65,
        "15047": 226,
        "15048": 248,
        "15049": 171,
        "15050": 243,
        "15051": 100,
        "15052": 177,
        "15053": 179,
        "15054": 194,
        "15055": 89,
        "15056": 27,
        "15057": 136,
        "15058": 120,
        "15059": 88,
        "15060": 1,
        "15061": 33,
        "15062": 172,
        "15063": 204,
        "15064": 79,
        "15065": 191,
        "15066": 41,
        "15067": 170,
        "15068": 210,
        "15069": 157,
        "15070": 218,
        "15071": 83,
        "15072": 254,
        "15073": 23,
        "15074": 207,
        "15075": 106,
        "15076": 127,
        "15077": 202,
        "15078": 211,
        "15079": 74,
        "15080": 188,
        "15081": 215,
        "15082": 125,
        "15083": 143,
        "15084": 149,
        "15085": 37,
        "15086": 20,
        "15087": 8,
        "15088": 80,
        "15089": 240,
        "15090": 61,
        "15091": 208,
        "15092": 140,
        "15093": 89,
        "15094": 145,
        "15095": 236,
        "15096": 127,
        "15097": 240,
        "15098": 85,
        "15099": 165,
        "15100": 80,
        "15101": 12,
        "15102": 176,
        "15103": 121,
        "15104": 183,
        "15105": 196,
        "15106": 66,
        "15107": 0,
        "15108": 34,
        "15109": 166,
        "15110": 147,
        "15111": 154,
        "15112": 240,
        "15113": 34,
        "15114": 46,
        "15115": 1,
        "15116": 137,
        "15117": 205,
        "15118": 18,
        "15119": 190,
        "15120": 98,
        "15121": 99,
        "15122": 65,
        "15123": 15,
        "15124": 166,
        "15125": 63,
        "15126": 31,
        "15127": 17,
        "15128": 216,
        "15129": 93,
        "15130": 202,
        "15131": 143,
        "15132": 187,
        "15133": 174,
        "15134": 215,
        "15135": 54,
        "15136": 153,
        "15137": 138,
        "15138": 62,
        "15139": 121,
        "15140": 144,
        "15141": 202,
        "15142": 232,
        "15143": 141,
        "15144": 180,
        "15145": 28,
        "15146": 198,
        "15147": 163,
        "15148": 119,
        "15149": 0,
        "15150": 99,
        "15151": 241,
        "15152": 47,
        "15153": 172,
        "15154": 84,
        "15155": 107,
        "15156": 184,
        "15157": 58,
        "15158": 196,
        "15159": 71,
        "15160": 55,
        "15161": 151,
        "15162": 151,
        "15163": 179,
        "15164": 22,
        "15165": 144,
        "15166": 97,
        "15167": 143,
        "15168": 82,
        "15169": 6,
        "15170": 220,
        "15171": 187,
        "15172": 93,
        "15173": 166,
        "15174": 183,
        "15175": 89,
        "15176": 143,
        "15177": 4,
        "15178": 154,
        "15179": 125,
        "15180": 64,
        "15181": 105,
        "15182": 66,
        "15183": 147,
        "15184": 203,
        "15185": 23,
        "15186": 72,
        "15187": 184,
        "15188": 157,
        "15189": 101,
        "15190": 200,
        "15191": 65,
        "15192": 16,
        "15193": 175,
        "15194": 0,
        "15195": 156,
        "15196": 77,
        "15197": 67,
        "15198": 32,
        "15199": 119,
        "15200": 236,
        "15201": 6,
        "15202": 149,
        "15203": 16,
        "15204": 153,
        "15205": 172,
        "15206": 30,
        "15207": 202,
        "15208": 208,
        "15209": 56,
        "15210": 195,
        "15211": 226,
        "15212": 244,
        "15213": 19,
        "15214": 83,
        "15215": 99,
        "15216": 2,
        "15217": 126,
        "15218": 160,
        "15219": 17,
        "15220": 204,
        "15221": 76,
        "15222": 179,
        "15223": 242,
        "15224": 47,
        "15225": 39,
        "15226": 105,
        "15227": 66,
        "15228": 40,
        "15229": 158,
        "15230": 224,
        "15231": 121,
        "15232": 34,
        "15233": 158,
        "15234": 178,
        "15235": 80,
        "15236": 241,
        "15237": 240,
        "15238": 119,
        "15239": 34,
        "15240": 91,
        "15241": 113,
        "15242": 224,
        "15243": 177,
        "15244": 170,
        "15245": 4,
        "15246": 26,
        "15247": 90,
        "15248": 40,
        "15249": 197,
        "15250": 132,
        "15251": 103,
        "15252": 35,
        "15253": 134,
        "15254": 54,
        "15255": 12,
        "15256": 7,
        "15257": 132,
        "15258": 241,
        "15259": 247,
        "15260": 198,
        "15261": 21,
        "15262": 83,
        "15263": 181,
        "15264": 197,
        "15265": 247,
        "15266": 97,
        "15267": 229,
        "15268": 166,
        "15269": 74,
        "15270": 97,
        "15271": 215,
        "15272": 13,
        "15273": 91,
        "15274": 116,
        "15275": 169,
        "15276": 5,
        "15277": 206,
        "15278": 141,
        "15279": 151,
        "15280": 49,
        "15281": 19,
        "15282": 23,
        "15283": 169,
        "15284": 183,
        "15285": 145,
        "15286": 203,
        "15287": 236,
        "15288": 158,
        "15289": 1,
        "15290": 140,
        "15291": 117,
        "15292": 102,
        "15293": 172,
        "15294": 220,
        "15295": 219,
        "15296": 11,
        "15297": 10,
        "15298": 94,
        "15299": 60,
        "15300": 53,
        "15301": 158,
        "15302": 175,
        "15303": 185,
        "15304": 142,
        "15305": 238,
        "15306": 98,
        "15307": 209,
        "15308": 72,
        "15309": 100,
        "15310": 215,
        "15311": 220,
        "15312": 186,
        "15313": 2,
        "15314": 8,
        "15315": 8,
        "15316": 48,
        "15317": 40,
        "15318": 218,
        "15319": 130,
        "15320": 86,
        "15321": 211,
        "15322": 235,
        "15323": 173,
        "15324": 208,
        "15325": 187,
        "15326": 13,
        "15327": 219,
        "15328": 230,
        "15329": 64,
        "15330": 182,
        "15331": 205,
        "15332": 76,
        "15333": 80,
        "15334": 149,
        "15335": 236,
        "15336": 144,
        "15337": 180,
        "15338": 117,
        "15339": 190,
        "15340": 36,
        "15341": 130,
        "15342": 110,
        "15343": 20,
        "15344": 46,
        "15345": 29,
        "15346": 99,
        "15347": 33,
        "15348": 52,
        "15349": 116,
        "15350": 164,
        "15351": 166,
        "15352": 183,
        "15353": 160,
        "15354": 253,
        "15355": 181,
        "15356": 131,
        "15357": 24,
        "15358": 27,
        "15359": 32,
        "15360": 195,
        "15361": 29,
        "15362": 97,
        "15363": 25,
        "15364": 224,
        "15365": 135,
        "15366": 70,
        "15367": 31,
        "15368": 60,
        "15369": 63,
        "15370": 148,
        "15371": 59,
        "15372": 200,
        "15373": 69,
        "15374": 105,
        "15375": 35,
        "15376": 52,
        "15377": 213,
        "15378": 89,
        "15379": 167,
        "15380": 216,
        "15381": 107,
        "15382": 11,
        "15383": 32,
        "15384": 208,
        "15385": 96,
        "15386": 75,
        "15387": 234,
        "15388": 70,
        "15389": 193,
        "15390": 128,
        "15391": 207,
        "15392": 15,
        "15393": 171,
        "15394": 79,
        "15395": 180,
        "15396": 7,
        "15397": 184,
        "15398": 248,
        "15399": 5,
        "15400": 131,
        "15401": 183,
        "15402": 222,
        "15403": 213,
        "15404": 112,
        "15405": 206,
        "15406": 190,
        "15407": 228,
        "15408": 129,
        "15409": 126,
        "15410": 108,
        "15411": 127,
        "15412": 208,
        "15413": 167,
        "15414": 14,
        "15415": 171,
        "15416": 15,
        "15417": 54,
        "15418": 171,
        "15419": 67,
        "15420": 138,
        "15421": 134,
        "15422": 159,
        "15423": 254,
        "15424": 103,
        "15425": 130,
        "15426": 127,
        "15427": 125,
        "15428": 128,
        "15429": 38,
        "15430": 21,
        "15431": 40,
        "15432": 248,
        "15433": 91,
        "15434": 105,
        "15435": 132,
        "15436": 11,
        "15437": 162,
        "15438": 167,
        "15439": 117,
        "15440": 213,
        "15441": 226,
        "15442": 85,
        "15443": 172,
        "15444": 38,
        "15445": 74,
        "15446": 189,
        "15447": 252,
        "15448": 250,
        "15449": 114,
        "15450": 77,
        "15451": 173,
        "15452": 51,
        "15453": 253,
        "15454": 229,
        "15455": 30,
        "15456": 196,
        "15457": 250,
        "15458": 12,
        "15459": 51,
        "15460": 84,
        "15461": 106,
        "15462": 242,
        "15463": 119,
        "15464": 185,
        "15465": 253,
        "15466": 188,
        "15467": 226,
        "15468": 111,
        "15469": 42,
        "15470": 5,
        "15471": 103,
        "15472": 205,
        "15473": 221,
        "15474": 146,
        "15475": 20,
        "15476": 99,
        "15477": 141,
        "15478": 250,
        "15479": 114,
        "15480": 222,
        "15481": 193,
        "15482": 67,
        "15483": 156,
        "15484": 143,
        "15485": 205,
        "15486": 90,
        "15487": 106,
        "15488": 121,
        "15489": 242,
        "15490": 181,
        "15491": 107,
        "15492": 101,
        "15493": 107,
        "15494": 120,
        "15495": 246,
        "15496": 99,
        "15497": 216,
        "15498": 7,
        "15499": 218,
        "15500": 154,
        "15501": 41,
        "15502": 251,
        "15503": 237,
        "15504": 60,
        "15505": 45,
        "15506": 183,
        "15507": 196,
        "15508": 170,
        "15509": 65,
        "15510": 28,
        "15511": 156,
        "15512": 91,
        "15513": 46,
        "15514": 3,
        "15515": 6,
        "15516": 98,
        "15517": 28,
        "15518": 39,
        "15519": 221,
        "15520": 62,
        "15521": 212,
        "15522": 214,
        "15523": 172,
        "15524": 234,
        "15525": 224,
        "15526": 148,
        "15527": 32,
        "15528": 69,
        "15529": 204,
        "15530": 150,
        "15531": 56,
        "15532": 74,
        "15533": 80,
        "15534": 85,
        "15535": 197,
        "15536": 40,
        "15537": 220,
        "15538": 213,
        "15539": 215,
        "15540": 105,
        "15541": 67,
        "15542": 228,
        "15543": 141,
        "15544": 32,
        "15545": 51,
        "15546": 170,
        "15547": 81,
        "15548": 181,
        "15549": 178,
        "15550": 165,
        "15551": 23,
        "15552": 61,
        "15553": 226,
        "15554": 193,
        "15555": 225,
        "15556": 198,
        "15557": 79,
        "15558": 209,
        "15559": 37,
        "15560": 151,
        "15561": 153,
        "15562": 79,
        "15563": 38,
        "15564": 191,
        "15565": 177,
        "15566": 145,
        "15567": 109,
        "15568": 24,
        "15569": 148,
        "15570": 176,
        "15571": 210,
        "15572": 54,
        "15573": 66,
        "15574": 255,
        "15575": 87,
        "15576": 47,
        "15577": 224,
        "15578": 68,
        "15579": 243,
        "15580": 57,
        "15581": 195,
        "15582": 114,
        "15583": 191,
        "15584": 97,
        "15585": 212,
        "15586": 60,
        "15587": 59,
        "15588": 89,
        "15589": 216,
        "15590": 97,
        "15591": 165,
        "15592": 144,
        "15593": 106,
        "15594": 215,
        "15595": 203,
        "15596": 155,
        "15597": 231,
        "15598": 167,
        "15599": 103,
        "15600": 144,
        "15601": 22,
        "15602": 10,
        "15603": 94,
        "15604": 60,
        "15605": 31,
        "15606": 94,
        "15607": 73,
        "15608": 239,
        "15609": 15,
        "15610": 127,
        "15611": 214,
        "15612": 217,
        "15613": 47,
        "15614": 42,
        "15615": 72,
        "15616": 191,
        "15617": 55,
        "15618": 80,
        "15619": 45,
        "15620": 40,
        "15621": 194,
        "15622": 177,
        "15623": 144,
        "15624": 35,
        "15625": 221,
        "15626": 193,
        "15627": 185,
        "15628": 0,
        "15629": 20,
        "15630": 233,
        "15631": 7,
        "15632": 13,
        "15633": 193,
        "15634": 67,
        "15635": 34,
        "15636": 187,
        "15637": 186,
        "15638": 204,
        "15639": 198,
        "15640": 64,
        "15641": 235,
        "15642": 2,
        "15643": 190,
        "15644": 126,
        "15645": 30,
        "15646": 27,
        "15647": 216,
        "15648": 110,
        "15649": 117,
        "15650": 7,
        "15651": 83,
        "15652": 42,
        "15653": 56,
        "15654": 124,
        "15655": 95,
        "15656": 23,
        "15657": 145,
        "15658": 237,
        "15659": 145,
        "15660": 133,
        "15661": 30,
        "15662": 169,
        "15663": 56,
        "15664": 40,
        "15665": 36,
        "15666": 204,
        "15667": 85,
        "15668": 243,
        "15669": 185,
        "15670": 90,
        "15671": 3,
        "15672": 207,
        "15673": 0,
        "15674": 132,
        "15675": 150,
        "15676": 88,
        "15677": 52,
        "15678": 175,
        "15679": 31,
        "15680": 204,
        "15681": 196,
        "15682": 85,
        "15683": 149,
        "15684": 165,
        "15685": 32,
        "15686": 185,
        "15687": 182,
        "15688": 176,
        "15689": 229,
        "15690": 118,
        "15691": 167,
        "15692": 154,
        "15693": 83,
        "15694": 67,
        "15695": 62,
        "15696": 3,
        "15697": 66,
        "15698": 129,
        "15699": 59,
        "15700": 147,
        "15701": 234,
        "15702": 82,
        "15703": 0,
        "15704": 81,
        "15705": 10,
        "15706": 60,
        "15707": 206,
        "15708": 214,
        "15709": 90,
        "15710": 93,
        "15711": 43,
        "15712": 182,
        "15713": 180,
        "15714": 235,
        "15715": 183,
        "15716": 137,
        "15717": 49,
        "15718": 170,
        "15719": 215,
        "15720": 156,
        "15721": 228,
        "15722": 237,
        "15723": 108,
        "15724": 254,
        "15725": 83,
        "15726": 84,
        "15727": 147,
        "15728": 105,
        "15729": 186,
        "15730": 178,
        "15731": 81,
        "15732": 100,
        "15733": 21,
        "15734": 159,
        "15735": 68,
        "15736": 160,
        "15737": 135,
        "15738": 66,
        "15739": 92,
        "15740": 51,
        "15741": 181,
        "15742": 120,
        "15743": 22,
        "15744": 222,
        "15745": 95,
        "15746": 107,
        "15747": 121,
        "15748": 158,
        "15749": 169,
        "15750": 99,
        "15751": 57,
        "15752": 2,
        "15753": 97,
        "15754": 129,
        "15755": 89,
        "15756": 102,
        "15757": 210,
        "15758": 103,
        "15759": 128,
        "15760": 251,
        "15761": 212,
        "15762": 187,
        "15763": 191,
        "15764": 111,
        "15765": 180,
        "15766": 190,
        "15767": 132,
        "15768": 164,
        "15769": 92,
        "15770": 162,
        "15771": 182,
        "15772": 82,
        "15773": 19,
        "15774": 147,
        "15775": 12,
        "15776": 85,
        "15777": 236,
        "15778": 52,
        "15779": 220,
        "15780": 141,
        "15781": 61,
        "15782": 21,
        "15783": 1,
        "15784": 45,
        "15785": 45,
        "15786": 149,
        "15787": 141,
        "15788": 128,
        "15789": 73,
        "15790": 215,
        "15791": 152,
        "15792": 194,
        "15793": 28,
        "15794": 51,
        "15795": 188,
        "15796": 61,
        "15797": 215,
        "15798": 26,
        "15799": 196,
        "15800": 131,
        "15801": 46,
        "15802": 249,
        "15803": 188,
        "15804": 171,
        "15805": 178,
        "15806": 68,
        "15807": 209,
        "15808": 161,
        "15809": 18,
        "15810": 227,
        "15811": 9,
        "15812": 134,
        "15813": 229,
        "15814": 241,
        "15815": 236,
        "15816": 94,
        "15817": 105,
        "15818": 145,
        "15819": 226,
        "15820": 158,
        "15821": 183,
        "15822": 102,
        "15823": 230,
        "15824": 19,
        "15825": 222,
        "15826": 118,
        "15827": 121,
        "15828": 121,
        "15829": 251,
        "15830": 140,
        "15831": 216,
        "15832": 51,
        "15833": 170,
        "15834": 89,
        "15835": 123,
        "15836": 113,
        "15837": 112,
        "15838": 138,
        "15839": 180,
        "15840": 198,
        "15841": 159,
        "15842": 206,
        "15843": 14,
        "15844": 87,
        "15845": 3,
        "15846": 58,
        "15847": 162,
        "15848": 191,
        "15849": 106,
        "15850": 91,
        "15851": 160,
        "15852": 24,
        "15853": 80,
        "15854": 242,
        "15855": 152,
        "15856": 237,
        "15857": 181,
        "15858": 130,
        "15859": 211,
        "15860": 174,
        "15861": 162,
        "15862": 142,
        "15863": 177,
        "15864": 206,
        "15865": 132,
        "15866": 207,
        "15867": 99,
        "15868": 209,
        "15869": 150,
        "15870": 248,
        "15871": 190,
        "15872": 35,
        "15873": 135,
        "15874": 165,
        "15875": 145,
        "15876": 17,
        "15877": 78,
        "15878": 31,
        "15879": 88,
        "15880": 158,
        "15881": 233,
        "15882": 175,
        "15883": 156,
        "15884": 78,
        "15885": 117,
        "15886": 184,
        "15887": 163,
        "15888": 50,
        "15889": 140,
        "15890": 36,
        "15891": 160,
        "15892": 185,
        "15893": 173,
        "15894": 157,
        "15895": 37,
        "15896": 173,
        "15897": 179,
        "15898": 63,
        "15899": 109,
        "15900": 125,
        "15901": 95,
        "15902": 67,
        "15903": 231,
        "15904": 57,
        "15905": 138,
        "15906": 224,
        "15907": 38,
        "15908": 135,
        "15909": 72,
        "15910": 70,
        "15911": 22,
        "15912": 215,
        "15913": 237,
        "15914": 77,
        "15915": 192,
        "15916": 248,
        "15917": 39,
        "15918": 167,
        "15919": 230,
        "15920": 144,
        "15921": 178,
        "15922": 97,
        "15923": 85,
        "15924": 33,
        "15925": 169,
        "15926": 198,
        "15927": 58,
        "15928": 244,
        "15929": 161,
        "15930": 85,
        "15931": 6,
        "15932": 164,
        "15933": 10,
        "15934": 146,
        "15935": 83,
        "15936": 24,
        "15937": 192,
        "15938": 22,
        "15939": 229,
        "15940": 105,
        "15941": 120,
        "15942": 153,
        "15943": 240,
        "15944": 207,
        "15945": 130,
        "15946": 8,
        "15947": 253,
        "15948": 148,
        "15949": 133,
        "15950": 156,
        "15951": 62,
        "15952": 185,
        "15953": 191,
        "15954": 51,
        "15955": 124,
        "15956": 56,
        "15957": 184,
        "15958": 113,
        "15959": 223,
        "15960": 98,
        "15961": 239,
        "15962": 41,
        "15963": 71,
        "15964": 239,
        "15965": 2,
        "15966": 16,
        "15967": 64,
        "15968": 40,
        "15969": 233,
        "15970": 128,
        "15971": 102,
        "15972": 38,
        "15973": 53,
        "15974": 196,
        "15975": 61,
        "15976": 149,
        "15977": 203,
        "15978": 210,
        "15979": 99,
        "15980": 47,
        "15981": 69,
        "15982": 185,
        "15983": 224,
        "15984": 179,
        "15985": 15,
        "15986": 85,
        "15987": 164,
        "15988": 191,
        "15989": 187,
        "15990": 95,
        "15991": 208,
        "15992": 114,
        "15993": 219,
        "15994": 36,
        "15995": 15,
        "15996": 232,
        "15997": 116,
        "15998": 127,
        "15999": 50,
        "16000": 121,
        "16001": 214,
        "16002": 176,
        "16003": 8,
        "16004": 250,
        "16005": 168,
        "16006": 109,
        "16007": 245,
        "16008": 151,
        "16009": 81,
        "16010": 175,
        "16011": 202,
        "16012": 99,
        "16013": 83,
        "16014": 243,
        "16015": 192,
        "16016": 107,
        "16017": 178,
        "16018": 249,
        "16019": 95,
        "16020": 195,
        "16021": 254,
        "16022": 160,
        "16023": 30,
        "16024": 53,
        "16025": 215,
        "16026": 16,
        "16027": 196,
        "16028": 100,
        "16029": 38,
        "16030": 80,
        "16031": 128,
        "16032": 53,
        "16033": 46,
        "16034": 146,
        "16035": 98,
        "16036": 242,
        "16037": 155,
        "16038": 130,
        "16039": 78,
        "16040": 172,
        "16041": 28,
        "16042": 190,
        "16043": 48,
        "16044": 241,
        "16045": 248,
        "16046": 116,
        "16047": 230,
        "16048": 183,
        "16049": 129,
        "16050": 64,
        "16051": 207,
        "16052": 218,
        "16053": 193,
        "16054": 56,
        "16055": 109,
        "16056": 192,
        "16057": 218,
        "16058": 110,
        "16059": 209,
        "16060": 3,
        "16061": 139,
        "16062": 205,
        "16063": 240,
        "16064": 165,
        "16065": 13,
        "16066": 103,
        "16067": 152,
        "16068": 210,
        "16069": 195,
        "16070": 192,
        "16071": 208,
        "16072": 206,
        "16073": 253,
        "16074": 188,
        "16075": 84,
        "16076": 134,
        "16077": 161,
        "16078": 173,
        "16079": 121,
        "16080": 67,
        "16081": 184,
        "16082": 41,
        "16083": 35,
        "16084": 8,
        "16085": 223,
        "16086": 191,
        "16087": 244,
        "16088": 22,
        "16089": 114,
        "16090": 161,
        "16091": 234,
        "16092": 230,
        "16093": 64,
        "16094": 204,
        "16095": 220,
        "16096": 85,
        "16097": 179,
        "16098": 20,
        "16099": 113,
        "16100": 71,
        "16101": 182,
        "16102": 70,
        "16103": 135,
        "16104": 104,
        "16105": 185,
        "16106": 7,
        "16107": 48,
        "16108": 217,
        "16109": 252,
        "16110": 161,
        "16111": 19,
        "16112": 87,
        "16113": 138,
        "16114": 31,
        "16115": 255,
        "16116": 173,
        "16117": 137,
        "16118": 225,
        "16119": 165,
        "16120": 166,
        "16121": 209,
        "16122": 79,
        "16123": 225,
        "16124": 64,
        "16125": 4,
        "16126": 151,
        "16127": 249,
        "16128": 171,
        "16129": 93,
        "16130": 33,
        "16131": 38,
        "16132": 90,
        "16133": 115,
        "16134": 173,
        "16135": 51,
        "16136": 143,
        "16137": 236,
        "16138": 110,
        "16139": 151,
        "16140": 238,
        "16141": 169,
        "16142": 95,
        "16143": 95,
        "16144": 64,
        "16145": 140,
        "16146": 92,
        "16147": 232,
        "16148": 60,
        "16149": 170,
        "16150": 249,
        "16151": 238,
        "16152": 197,
        "16153": 208,
        "16154": 181,
        "16155": 176,
        "16156": 173,
        "16157": 141,
        "16158": 147,
        "16159": 69,
        "16160": 105,
        "16161": 102,
        "16162": 31,
        "16163": 185,
        "16164": 105,
        "16165": 110,
        "16166": 223,
        "16167": 104,
        "16168": 62,
        "16169": 35,
        "16170": 78,
        "16171": 10,
        "16172": 118,
        "16173": 42,
        "16174": 163,
        "16175": 200,
        "16176": 118,
        "16177": 56,
        "16178": 104,
        "16179": 232,
        "16180": 231,
        "16181": 133,
        "16182": 81,
        "16183": 7,
        "16184": 136,
        "16185": 109,
        "16186": 9,
        "16187": 233,
        "16188": 88,
        "16189": 198,
        "16190": 254,
        "16191": 245,
        "16192": 168,
        "16193": 87,
        "16194": 235,
        "16195": 153,
        "16196": 200,
        "16197": 125,
        "16198": 203,
        "16199": 193,
        "16200": 96,
        "16201": 192,
        "16202": 113,
        "16203": 15,
        "16204": 210,
        "16205": 255,
        "16206": 217,
        "16207": 211,
        "16208": 38,
        "16209": 47,
        "16210": 68,
        "16211": 95,
        "16212": 251,
        "16213": 174,
        "16214": 184,
        "16215": 97,
        "16216": 252,
        "16217": 173,
        "16218": 222,
        "16219": 164,
        "16220": 171,
        "16221": 146,
        "16222": 233,
        "16223": 161,
        "16224": 11,
        "16225": 115,
        "16226": 147,
        "16227": 57,
        "16228": 105,
        "16229": 198,
        "16230": 200,
        "16231": 6,
        "16232": 180,
        "16233": 198,
        "16234": 96,
        "16235": 17,
        "16236": 224,
        "16237": 61,
        "16238": 183,
        "16239": 44,
        "16240": 24,
        "16241": 201,
        "16242": 240,
        "16243": 117,
        "16244": 62,
        "16245": 159,
        "16246": 203,
        "16247": 178,
        "16248": 40,
        "16249": 217,
        "16250": 223,
        "16251": 125,
        "16252": 92,
        "16253": 70,
        "16254": 150,
        "16255": 29,
        "16256": 109,
        "16257": 117,
        "16258": 222,
        "16259": 214,
        "16260": 40,
        "16261": 202,
        "16262": 85,
        "16263": 73,
        "16264": 164,
        "16265": 185,
        "16266": 204,
        "16267": 89,
        "16268": 161,
        "16269": 143,
        "16270": 100,
        "16271": 108,
        "16272": 212,
        "16273": 198,
        "16274": 208,
        "16275": 176,
        "16276": 54,
        "16277": 18,
        "16278": 165,
        "16279": 30,
        "16280": 30,
        "16281": 190,
        "16282": 173,
        "16283": 186,
        "16284": 34,
        "16285": 7,
        "16286": 126,
        "16287": 168,
        "16288": 171,
        "16289": 57,
        "16290": 156,
        "16291": 11,
        "16292": 102,
        "16293": 187,
        "16294": 71,
        "16295": 45,
        "16296": 88,
        "16297": 150,
        "16298": 169,
        "16299": 69,
        "16300": 250,
        "16301": 254,
        "16302": 181,
        "16303": 177,
        "16304": 107,
        "16305": 186,
        "16306": 99,
        "16307": 72,
        "16308": 214,
        "16309": 74,
        "16310": 222,
        "16311": 86,
        "16312": 140,
        "16313": 88,
        "16314": 237,
        "16315": 44,
        "16316": 190,
        "16317": 59,
        "16318": 192,
        "16319": 28,
        "16320": 43,
        "16321": 103,
        "16322": 161,
        "16323": 12,
        "16324": 211,
        "16325": 41,
        "16326": 195,
        "16327": 144,
        "16328": 255,
        "16329": 154,
        "16330": 91,
        "16331": 37,
        "16332": 146,
        "16333": 211,
        "16334": 80,
        "16335": 203,
        "16336": 180,
        "16337": 212,
        "16338": 182,
        "16339": 192,
        "16340": 67,
        "16341": 238,
        "16342": 234,
        "16343": 102,
        "16344": 43,
        "16345": 218,
        "16346": 19,
        "16347": 29,
        "16348": 238,
        "16349": 128,
        "16350": 64,
        "16351": 0,
        "16352": 170,
        "16353": 92,
        "16354": 64,
        "16355": 45,
        "16356": 242,
        "16357": 220,
        "16358": 19,
        "16359": 22,
        "16360": 101,
        "16361": 8,
        "16362": 153,
        "16363": 145,
        "16364": 49,
        "16365": 96,
        "16366": 99,
        "16367": 73,
        "16368": 247,
        "16369": 41,
        "16370": 104,
        "16371": 247,
        "16372": 6,
        "16373": 151,
        "16374": 139,
        "16375": 232,
        "16376": 118,
        "16377": 143,
        "16378": 106,
        "16379": 49,
        "16380": 246,
        "16381": 40,
        "16382": 104,
        "16383": 215,
        "16384": 34,
        "16385": 195,
        "16386": 176,
        "16387": 18,
        "16388": 253,
        "16389": 189,
        "16390": 181,
        "16391": 185,
        "16392": 116,
        "16393": 4,
        "16394": 117,
        "16395": 156,
        "16396": 124,
        "16397": 236,
        "16398": 207,
        "16399": 41,
        "16400": 202,
        "16401": 99,
        "16402": 139,
        "16403": 213,
        "16404": 150,
        "16405": 19,
        "16406": 96,
        "16407": 46,
        "16408": 35,
        "16409": 249,
        "16410": 126,
        "16411": 244,
        "16412": 22,
        "16413": 160,
        "16414": 11,
        "16415": 227,
        "16416": 31,
        "16417": 216,
        "16418": 13,
        "16419": 200,
        "16420": 153,
        "16421": 167,
        "16422": 67,
        "16423": 245,
        "16424": 85,
        "16425": 113,
        "16426": 1,
        "16427": 89,
        "16428": 114,
        "16429": 156,
        "16430": 178,
        "16431": 117,
        "16432": 154,
        "16433": 156,
        "16434": 97,
        "16435": 247,
        "16436": 119,
        "16437": 29,
        "16438": 40,
        "16439": 85,
        "16440": 115,
        "16441": 3,
        "16442": 241,
        "16443": 198,
        "16444": 175,
        "16445": 230,
        "16446": 35,
        "16447": 157,
        "16448": 223,
        "16449": 155,
        "16450": 254,
        "16451": 30,
        "16452": 57,
        "16453": 55,
        "16454": 210,
        "16455": 147,
        "16456": 145,
        "16457": 104,
        "16458": 189,
        "16459": 71,
        "16460": 25,
        "16461": 57,
        "16462": 151,
        "16463": 182,
        "16464": 26,
        "16465": 18,
        "16466": 156,
        "16467": 52,
        "16468": 153,
        "16469": 130,
        "16470": 48,
        "16471": 22,
        "16472": 134,
        "16473": 143,
        "16474": 224,
        "16475": 180,
        "16476": 56,
        "16477": 197,
        "16478": 223,
        "16479": 148,
        "16480": 228,
        "16481": 11,
        "16482": 33,
        "16483": 174,
        "16484": 142,
        "16485": 24,
        "16486": 159,
        "16487": 75,
        "16488": 185,
        "16489": 187,
        "16490": 133,
        "16491": 87,
        "16492": 63,
        "16493": 187,
        "16494": 127,
        "16495": 34,
        "16496": 167,
        "16497": 25,
        "16498": 136,
        "16499": 129,
        "16500": 199,
        "16501": 109,
        "16502": 147,
        "16503": 230,
        "16504": 44,
        "16505": 175,
        "16506": 12,
        "16507": 125,
        "16508": 24,
        "16509": 87,
        "16510": 74,
        "16511": 122,
        "16512": 44,
        "16513": 41,
        "16514": 135,
        "16515": 82,
        "16516": 108,
        "16517": 205,
        "16518": 145,
        "16519": 19,
        "16520": 1,
        "16521": 8,
        "16522": 0,
        "16523": 0,
        "16524": 0,
        "16525": 0,
        "16526": 0,
        "16527": 0,
        "16528": 16,
        "16529": 0,
        "16530": 0,
        "16531": 0,
        "16532": 0,
        "16533": 0,
        "16534": 0,
        "16535": 0,
        "16536": 0,
        "16537": 0,
        "16538": 0,
        "16539": 0,
        "16540": 0,
        "16541": 0,
        "16542": 0,
        "16543": 0,
        "16544": 0,
        "16545": 0,
        "16546": 0,
        "16547": 0,
        "16548": 0,
        "16549": 0,
        "16550": 0,
        "16551": 0,
        "16552": 64,
        "16553": 0,
        "16554": 0,
        "16555": 0,
        "16556": 0,
        "16557": 0,
        "16558": 0,
        "16559": 0,
        "16560": 3,
        "16561": 0,
        "16562": 0,
        "16563": 0,
        "16564": 0,
        "16565": 0,
        "16566": 0,
        "16567": 0,
        "16568": 4,
        "16569": 0,
        "16570": 0,
        "16571": 0,
        "16572": 0,
        "16573": 0,
        "16574": 0,
        "16575": 0,
        "16576": 4,
        "16577": 0,
        "16578": 0,
        "16579": 0,
        "16580": 0,
        "16581": 0,
        "16582": 0,
        "16583": 0,
        "16584": 0,
        "16585": 0,
        "16586": 0,
        "16587": 0,
        "16588": 1,
        "16589": 0,
        "16590": 0,
        "16591": 0,
        "16592": 0,
        "16593": 0,
        "16594": 0,
        "16595": 0,
        "16596": 16,
        "16597": 0,
        "16598": 0,
        "16599": 0,
        "16600": 0,
        "16601": 0,
        "16602": 0,
        "16603": 0
      }
    }
  ],
  "numDeployments": 7,
  "solcInputHash": "291cf64def2066c7e76507ea7caba91d",
  "bytecode": "0x6101606040526200001760006200026660201b60201c565b6002553480156200002757600080fd5b50604051620046173803806200461783398181016040528101906200004d919062000b83565b6040518060400160405280600881526020017f46616b652046475a0000000000000000000000000000000000000000000000008152506040518060400160405280600481526020017f6646475a00000000000000000000000000000000000000000000000000000000815250338383836040518060400160405280601181526020017f4668656e6978205065726d697373696f6e0000000000000000000000000000008152506040518060400160405280600381526020017f312e3000000000000000000000000000000000000000000000000000000000008152506200013f6000836200028260201b90919060201c565b61012081815250506200015d6001826200028260201b90919060201c565b6101408181525050818051906020012060e08181525050808051906020012061010081815250504660a081815250506200019c620002da60201b60201c565b608081815250503073ffffffffffffffffffffffffffffffffffffffff1660c08173ffffffffffffffffffffffffffffffffffffffff168152505050508160059081620001ea919062000e1f565b508060069081620001fc919062000e1f565b505050600062000212826200033760201b60201c565b9050620002486200023c8262000230617fff6200026660201b60201c565b6200035560201b60201c565b620003f860201b60201c565b6200025a8382620004cb60201b60201c565b50505050505062001260565b60006200027b8260026200057160201b60201c565b9050919050565b6000602083511015620002a857620002a0836200062860201b60201c565b9050620002d4565b82620002ba836200069560201b60201c565b6000019081620002cb919062000e1f565b5060ff60001b90505b92915050565b60007f8b73c3c69bb8fe3d512ecc4cf759cc79239f7b179b0ffacaa9a75d522b39400f60e0516101005146306040516020016200031c95949392919062000f77565b60405160208183030381529060405280519060200120905090565b60006200034e82600001516200069f60201b60201c565b9050919050565b60006200036883620006bb60201b60201c565b62000382576200037f60006200026660201b60201c565b92505b6200039382620006bb60201b60201c565b620003ad57620003aa60006200026660201b60201c565b91505b600083905060008390506000620003ea60028484608073ffffffffffffffffffffffffffffffffffffffff1663eb274b77620006c860201b60201c565b905080935050505092915050565b62000409816200077960201b60201c565b62000423576200042060006200078660201b60201c565b90505b600081905060006200043b82620007a260201b60201c565b9050608073ffffffffffffffffffffffffffffffffffffffff16637d23f1db600d836040518363ffffffff1660e01b81526004016200047c9291906200104f565b600060405180830381865afa1580156200049a573d6000803e3d6000fd5b505050506040513d6000823e3d601f19601f82011682018060405250810190620004c5919062001083565b50505050565b62000516600360008473ffffffffffffffffffffffffffffffffffffffff1673ffffffffffffffffffffffffffffffffffffffff168152602001908152602001600020548262000803565b600360008473ffffffffffffffffffffffffffffffffffffffff1673ffffffffffffffffffffffffffffffffffffffff16815260200190815260200160002081905550620005676002548262000803565b6002819055505050565b60006060608073ffffffffffffffffffffffffffffffffffffffff166319e1c5c4620005a386620007a260201b60201c565b856040518363ffffffff1660e01b8152600401620005c3929190620010d4565b600060405180830381865afa158015620005e1573d6000803e3d6000fd5b505050506040513d6000823e3d601f19601f820116820180604052508101906200060c919062001083565b90506200061f816200081f60201b60201c565b91505092915050565b600080829050601f815111156200067857826040517f305a27a90000000000000000000000000000000000000000000000000000000081526004016200066f91906200115a565b60405180910390fd5b8051816200068690620011a5565b60001c1760001b915050919050565b6000819050919050565b6000620006b48260026200082d60201b60201c565b9050919050565b6000808214159050919050565b60006060838388620006e089620007a260201b60201c565b620006f189620007a260201b60201c565b6040518463ffffffff1660e01b8152600401620007119392919062001215565b600060405180830381865afa1580156200072f573d6000803e3d6000fd5b505050506040513d6000823e3d601f19601f820116820180604052508101906200075a919062001083565b90506200076d81620008d460201b60201c565b91505095945050505050565b6000808214159050919050565b60006200079b82600d6200057160201b60201c565b9050919050565b6060602067ffffffffffffffff811115620007c257620007c1620009ae565b5b6040519080825280601f01601f191660200182016040528015620007f55781602001600182028036833780820191505090505b509050816020820152919050565b6000620008178383620008e260201b60201c565b905092915050565b600060208201519050919050565b60006060608073ffffffffffffffffffffffffffffffffffffffff16635fa55ca784866040518363ffffffff1660e01b81526004016200086f9291906200104f565b600060405180830381865afa1580156200088d573d6000803e3d6000fd5b505050506040513d6000823e3d601f19601f82011682018060405250810190620008b8919062001083565b9050620008cb816200081f60201b60201c565b91505092915050565b600060208201519050919050565b6000620008f583620006bb60201b60201c565b6200090f576200090c60006200026660201b60201c565b92505b6200092082620006bb60201b60201c565b6200093a576200093760006200026660201b60201c565b91505b6000839050600083905060006200097660028484608073ffffffffffffffffffffffffffffffffffffffff16622df619620006c860201b60201c565b905080935050505092915050565b6000604051905090565b600080fd5b600080fd5b600080fd5b6000601f19601f8301169050919050565b7f4e487b7100000000000000000000000000000000000000000000000000000000600052604160045260246000fd5b620009e8826200099d565b810181811067ffffffffffffffff8211171562000a0a5762000a09620009ae565b5b80604052505050565b600062000a1f62000984565b905062000a2d8282620009dd565b919050565b600080fd5b600080fd5b600080fd5b600067ffffffffffffffff82111562000a5f5762000a5e620009ae565b5b62000a6a826200099d565b9050602081019050919050565b60005b8381101562000a9757808201518184015260208101905062000a7a565b60008484015250505050565b600062000aba62000ab48462000a41565b62000a13565b90508281526020810184848401111562000ad95762000ad862000a3c565b5b62000ae684828562000a77565b509392505050565b600082601f83011262000b065762000b0562000a37565b5b815162000b1884826020860162000aa3565b91505092915050565b60006020828403121562000b3a5762000b3962000998565b5b62000b46602062000a13565b9050600082015167ffffffffffffffff81111562000b695762000b6862000a32565b5b62000b778482850162000aee565b60008301525092915050565b60006020828403121562000b9c5762000b9b6200098e565b5b600082015167ffffffffffffffff81111562000bbd5762000bbc62000993565b5b62000bcb8482850162000b21565b91505092915050565b600081519050919050565b7f4e487b7100000000000000000000000000000000000000000000000000000000600052602260045260246000fd5b6000600282049050600182168062000c2757607f821691505b60208210810362000c3d5762000c3c62000bdf565b5b50919050565b60008190508160005260206000209050919050565b60006020601f8301049050919050565b600082821b905092915050565b60006008830262000ca77fffffffffffffffffffffffffffffffffffffffffffffffffffffffffffffffff8262000c68565b62000cb3868362000c68565b95508019841693508086168417925050509392505050565b6000819050919050565b6000819050919050565b600062000d0062000cfa62000cf48462000ccb565b62000cd5565b62000ccb565b9050919050565b6000819050919050565b62000d1c8362000cdf565b62000d3462000d2b8262000d07565b84845462000c75565b825550505050565b600090565b62000d4b62000d3c565b62000d5881848462000d11565b505050565b5b8181101562000d805762000d7460008262000d41565b60018101905062000d5e565b5050565b601f82111562000dcf5762000d998162000c43565b62000da48462000c58565b8101602085101562000db4578190505b62000dcc62000dc38562000c58565b83018262000d5d565b50505b505050565b600082821c905092915050565b600062000df46000198460080262000dd4565b1980831691505092915050565b600062000e0f838362000de1565b9150826002028217905092915050565b62000e2a8262000bd4565b67ffffffffffffffff81111562000e465762000e45620009ae565b5b62000e52825462000c0e565b62000e5f82828562000d84565b600060209050601f83116001811462000e97576000841562000e82578287015190505b62000e8e858262000e01565b86555062000efe565b601f19841662000ea78662000c43565b60005b8281101562000ed15784890151825560018201915060208501945060208101905062000eaa565b8683101562000ef1578489015162000eed601f89168262000de1565b8355505b6001600288020188555050505b505050505050565b6000819050919050565b62000f1b8162000f06565b82525050565b62000f2c8162000ccb565b82525050565b600073ffffffffffffffffffffffffffffffffffffffff82169050919050565b600062000f5f8262000f32565b9050919050565b62000f718162000f52565b82525050565b600060a08201905062000f8e600083018862000f10565b62000f9d602083018762000f10565b62000fac604083018662000f10565b62000fbb606083018562000f21565b62000fca608083018462000f66565b9695505050505050565b600060ff82169050919050565b62000fec8162000fd4565b82525050565b600081519050919050565b600082825260208201905092915050565b60006200101b8262000ff2565b62001027818562000ffd565b93506200103981856020860162000a77565b62001044816200099d565b840191505092915050565b600060408201905062001066600083018562000fe1565b81810360208301526200107a81846200100e565b90509392505050565b6000602082840312156200109c576200109b6200098e565b5b600082015167ffffffffffffffff811115620010bd57620010bc62000993565b5b620010cb8482850162000aee565b91505092915050565b60006040820190508181036000830152620010f081856200100e565b905062001101602083018462000fe1565b9392505050565b600082825260208201905092915050565b6000620011268262000bd4565b62001132818562001108565b93506200114481856020860162000a77565b6200114f816200099d565b840191505092915050565b6000602082019050818103600083015262001176818462001119565b905092915050565b6000819050602082019050919050565b60006200119c825162000f06565b80915050919050565b6000620011b28262000ff2565b82620011be846200117e565b9050620011cb816200118e565b925060208210156200120e57620012097fffffffffffffffffffffffffffffffffffffffffffffffffffffffffffffffff8360200360080262000c68565b831692505b5050919050565b60006060820190506200122c600083018662000fe1565b81810360208301526200124081856200100e565b905081810360408301526200125681846200100e565b9050949350505050565b60805160a05160c05160e05161010051610120516101405161335c620012bb60003960006118f5015260006118ba0152600061217f0152600061215e015260006119ea01526000611a4001526000611a69015261335c6000f3fe608060405234801561001057600080fd5b50600436106101425760003560e01c80637ecebe00116100b8578063a9059cbb1161007c578063a9059cbb146103b9578063af575a00146103e9578063c4224c1914610419578063d505accf14610449578063d918156e14610465578063dd62ed3e1461049557610142565b80637ecebe00146102fb57806384b0196e1461032b5780638624a3491461034f57806395d89b411461037f5780639f284be71461039d57610142565b80633644e5151161010a5780633644e5151461020157806339c217f71461021f5780635356c4291461024f578063602772041461027f5780636e0505e1146102af57806370a08231146102cb57610142565b806306fdde0314610147578063095ea7b31461016557806318160ddd1461019557806323b872dd146101b3578063313ce567146101e3575b600080fd5b61014f6104c5565b60405161015c9190612433565b60405180910390f35b61017f600480360381019061017a91906124fd565b610557565b60405161018c9190612558565b60405180910390f35b61019d6105ab565b6040516101aa9190612582565b60405180910390f35b6101cd60048036038101906101c8919061259d565b6105bd565b6040516101da9190612558565b60405180910390f35b6101eb610692565b6040516101f8919061260c565b60405180910390f35b610209610697565b6040516102169190612640565b60405180910390f35b6102396004803603810190610234919061267f565b610729565b6040516102469190612716565b60405180910390f35b61026960048036038101906102649190612750565b61074e565b6040516102769190612433565b60405180910390f35b61029960048036038101906102949190612983565b6108bf565b6040516102a69190612433565b60405180910390f35b6102c960048036038101906102c49190612a1b565b6109ec565b005b6102e560048036038101906102e09190612a48565b610b01565b6040516102f29190612582565b60405180910390f35b61031560048036038101906103109190612a48565b610b1c565b6040516103229190612582565b60405180910390f35b610333610b37565b6040516103469796959493929190612b7d565b60405180910390f35b61036960048036038101906103649190612c01565b610be1565b6040516103769190612716565b60405180910390f35b610387610c08565b6040516103949190612433565b60405180910390f35b6103b760048036038101906103b29190612a1b565b610c9a565b005b6103d360048036038101906103ce91906124fd565b610da7565b6040516103e09190612558565b60405180910390f35b61040360048036038101906103fe9190612c9c565b610e39565b6040516104109190612716565b60405180910390f35b610433600480360381019061042e9190612cef565b61118f565b6040516104409190612716565b60405180910390f35b610463600480360381019061045e9190612d5b565b611359565b005b61047f600480360381019061047a919061267f565b6114fd565b60405161048c9190612558565b60405180910390f35b6104af60048036038101906104aa9190612dfd565b6115f5565b6040516104bc9190612582565b60405180910390f35b6060600580546104d490612e6c565b80601f016020809104026020016040519081016040528092919081815260200182805461050090612e6c565b801561054d5780601f106105225761010080835404028352916020019161054d565b820191906000526020600020905b81548152906001019060200180831161053057829003601f168201915b5050505050905090565b600082602052637f5e9f20600c5233600052816034600c205581600052602c5160601c337f8c5be1e5ebec7d5bd14f71427d1e84f3dd0314c0f7b2291e5b200ac8c7c3b92560206000a36001905092915050565b60006805345cdf77eb68f44c54905090565b60006105ca848484611615565b8360601b33602052637f5e9f208117600c526034600c20805460018101156106085780851115610602576313be252b6000526004601cfd5b84810382555b6387a211a28317600c526020600c2080548087111561062f5763f4d678b86000526004601cfd5b8681038255876000526020600c2087815401815587602052600c5160601c8660601c7fddf252ad1be2c89b69c2b068fc378daa952ba7f163c4a11628f55a4df523b3ef602080a350505050505061068784848461161a565b600190509392505050565b600090565b6000806106a261161f565b90506000801b81036106c0576106b66104c5565b8051906020012090505b6040517f8b73c3c69bb8fe3d512ecc4cf759cc79239f7b179b0ffacaa9a75d522b39400f81528160208201527fc89efdaa54c0f20c7adf612882df0950f5a951637e0307cdcb4c672f298b8bc6604082015246606082015230608082015260a081209250505090565b6000610746836107418461073c90612ef5565b611624565b61118f565b905092915050565b60608161075a90612f08565b60006107b17f6bdaeb2d29561f159c7ef98b16b27015fb2aeb87209c7ee656226d912f59927d8360000151604051602001610796929190612f1b565b6040516020818303038152906040528051906020012061163a565b905060006107c3828460200151611654565b90503373ffffffffffffffffffffffffffffffffffffffff168173ffffffffffffffffffffffffffffffffffffffff161461082a576040517f3093a27700000000000000000000000000000000000000000000000000000000815260040160405180910390fd5b6108b4600460003373ffffffffffffffffffffffffffffffffffffffff1673ffffffffffffffffffffffffffffffffffffffff16815260200190815260200160002060008873ffffffffffffffffffffffffffffffffffffffff1673ffffffffffffffffffffffffffffffffffffffff168152602001908152602001600020548660000135611680565b935050505092915050565b60608183600061091a7f6bdaeb2d29561f159c7ef98b16b27015fb2aeb87209c7ee656226d912f59927d84600001516040516020016108ff929190612f1b565b6040516020818303038152906040528051906020012061163a565b9050600061092c828560200151611654565b90508273ffffffffffffffffffffffffffffffffffffffff168173ffffffffffffffffffffffffffffffffffffffff1614610993576040517f51c65eae00000000000000000000000000000000000000000000000000000000815260040160405180910390fd5b6109e0600360008973ffffffffffffffffffffffffffffffffffffffff1673ffffffffffffffffffffffffffffffffffffffff168152602001908152602001600020548760000151611680565b94505050505092915050565b6000610a45610a008363ffffffff166116b6565b600360003373ffffffffffffffffffffffffffffffffffffffff1673ffffffffffffffffffffffffffffffffffffffff168152602001908152602001600020546116ca565b9050610a90600360003373ffffffffffffffffffffffffffffffffffffffff1673ffffffffffffffffffffffffffffffffffffffff1681526020019081526020016000205482611743565b600360003373ffffffffffffffffffffffffffffffffffffffff1673ffffffffffffffffffffffffffffffffffffffff16815260200190815260200160002081905550610adf60025482611743565b600281905550610afd33610af283611757565b63ffffffff1661181a565b5050565b60006387a211a2600c52816000526020600c20549050919050565b60006338377508600c52816000526020600c20549050919050565b600060608060008060006060610b4b6118b1565b610b536118ec565b46306000801b600067ffffffffffffffff811115610b7457610b736127b1565b5b604051908082528060200260200182016040528015610ba25781602001602082028036833780820191505090505b507f0f00000000000000000000000000000000000000000000000000000000000000959493929190965096509650965096509650965090919293949596565b6000610bff8484610bfa85610bf590612ef5565b611624565b610e39565b90509392505050565b606060068054610c1790612e6c565b80601f0160208091040260200160405190810160405280929190818152602001828054610c4390612e6c565b8015610c905780601f10610c6557610100808354040283529160200191610c90565b820191906000526020600020905b815481529060010190602001808311610c7357829003601f168201915b5050505050905090565b8063ffffffff16610caa33610b01565b1015610ce2576040517ffda7bbda00000000000000000000000000000000000000000000000000000000815260040160405180910390fd5b610cf2338263ffffffff16611927565b6000610d038263ffffffff166116b6565b9050610d4e600360003373ffffffffffffffffffffffffffffffffffffffff1673ffffffffffffffffffffffffffffffffffffffff16815260200190815260200160002054826119be565b600360003373ffffffffffffffffffffffffffffffffffffffff1673ffffffffffffffffffffffffffffffffffffffff16815260200190815260200160002081905550610d9d600254826119be565b6002819055505050565b6000610db4338484611615565b6387a211a2600c52336000526020600c20805480841115610ddd5763f4d678b86000526004601cfd5b8381038255846000526020600c2084815401815584602052600c5160601c337fddf252ad1be2c89b69c2b068fc378daa952ba7f163c4a11628f55a4df523b3ef602080a3505050610e2f33848461161a565b6001905092915050565b600080610f0a83610f05600360008973ffffffffffffffffffffffffffffffffffffffff1673ffffffffffffffffffffffffffffffffffffffff16815260200190815260200160002054600460008a73ffffffffffffffffffffffffffffffffffffffff1673ffffffffffffffffffffffffffffffffffffffff16815260200190815260200160002060003373ffffffffffffffffffffffffffffffffffffffff1673ffffffffffffffffffffffffffffffffffffffff168152602001908152602001600020546116ca565b6116ca565b9050610f92600460008773ffffffffffffffffffffffffffffffffffffffff1673ffffffffffffffffffffffffffffffffffffffff16815260200190815260200160002060003373ffffffffffffffffffffffffffffffffffffffff1673ffffffffffffffffffffffffffffffffffffffff1681526020019081526020016000205482611743565b600460008773ffffffffffffffffffffffffffffffffffffffff1673ffffffffffffffffffffffffffffffffffffffff16815260200190815260200160002060003373ffffffffffffffffffffffffffffffffffffffff1673ffffffffffffffffffffffffffffffffffffffff1681526020019081526020016000208190555061105b600360008773ffffffffffffffffffffffffffffffffffffffff1673ffffffffffffffffffffffffffffffffffffffff1681526020019081526020016000205482611743565b600360008773ffffffffffffffffffffffffffffffffffffffff1673ffffffffffffffffffffffffffffffffffffffff168152602001908152602001600020819055506110e7600360008673ffffffffffffffffffffffffffffffffffffffff1673ffffffffffffffffffffffffffffffffffffffff16815260200190815260200160002054826119be565b600360008673ffffffffffffffffffffffffffffffffffffffff1673ffffffffffffffffffffffffffffffffffffffff168152602001908152602001600020819055508373ffffffffffffffffffffffffffffffffffffffff168573ffffffffffffffffffffffffffffffffffffffff167f7612539b010127d1a2f810eeff1131de23a28ecfa8228f92a9606a879300fbb560405160405180910390a3809150509392505050565b6000806111db83600360003373ffffffffffffffffffffffffffffffffffffffff1673ffffffffffffffffffffffffffffffffffffffff168152602001908152602001600020546116ca565b9050611226600360003373ffffffffffffffffffffffffffffffffffffffff1673ffffffffffffffffffffffffffffffffffffffff1681526020019081526020016000205482611743565b600360003373ffffffffffffffffffffffffffffffffffffffff1673ffffffffffffffffffffffffffffffffffffffff168152602001908152602001600020819055506112b2600360008673ffffffffffffffffffffffffffffffffffffffff1673ffffffffffffffffffffffffffffffffffffffff16815260200190815260200160002054826119be565b600360008673ffffffffffffffffffffffffffffffffffffffff1673ffffffffffffffffffffffffffffffffffffffff168152602001908152602001600020819055508373ffffffffffffffffffffffffffffffffffffffff163373ffffffffffffffffffffffffffffffffffffffff167f7612539b010127d1a2f810eeff1131de23a28ecfa8228f92a9606a879300fbb560405160405180910390a38091505092915050565b600061136361161f565b90506000801b8103611381576113776104c5565b8051906020012090505b8442111561139757631a15a3cc6000526004601cfd5b6040518860601b60601c98508760601b60601c975065383775081901600e52886000526020600c2080547f8b73c3c69bb8fe3d512ecc4cf759cc79239f7b179b0ffacaa9a75d522b39400f83528360208401527fc89efdaa54c0f20c7adf612882df0950f5a951637e0307cdcb4c672f298b8bc6604084015246606084015230608084015260a08320602e527f6e71edae12b1b97f4d1f60370fef10105fa2faae0126114a169c64845d6126c983528a60208401528960408401528860608401528060808401528760a084015260c08320604e526042602c206000528660ff1660205285604052846060526020806080600060015afa8b3d51146114a35763ddafbaef6000526004601cfd5b80820183558a637f5e9f2060a01b17604052896034602c20558a8c7f8c5be1e5ebec7d5bd14f71427d1e84f3dd0314c0f7b2291e5b200ac8c7c3b925602060608801a3836040526000606052505050505050505050505050565b60006115118261150c90612ef5565b611624565b600460003373ffffffffffffffffffffffffffffffffffffffff1673ffffffffffffffffffffffffffffffffffffffff16815260200190815260200160002060008573ffffffffffffffffffffffffffffffffffffffff1673ffffffffffffffffffffffffffffffffffffffff168152602001908152602001600020819055508273ffffffffffffffffffffffffffffffffffffffff163373ffffffffffffffffffffffffffffffffffffffff167f46f92913a39019d68e630493d23e0cf39761bf253f7b3f8eae384b33e393ed4e60405160405180910390a36001905092915050565b600081602052637f5e9f20600c52826000526034600c2054905092915050565b505050565b505050565b600090565b600061163382600001516119d2565b9050919050565b600061164d6116476119e6565b83611a9d565b9050919050565b6000806000806116648686611ade565b9250925092506116748282611b3a565b82935050505092915050565b606061168b83611c9e565b61169c5761169960006116b6565b92505b60008390506116ad60028285611cab565b91505092915050565b60006116c3826002611d61565b9050919050565b60006116d583611c9e565b6116e6576116e360006116b6565b92505b6116ef82611c9e565b611700576116fd60006116b6565b91505b60008390506000839050600061173560028484608073ffffffffffffffffffffffffffffffffffffffff16635211c679611e03565b905080935050505092915050565b600061174f8383611e97565b905092915050565b600061176282611c9e565b6117735761177060006116b6565b91505b6000829050600061178382611f10565b90506000608073ffffffffffffffffffffffffffffffffffffffff166373cc01546002846040518363ffffffff1660e01b81526004016117c4929190612f99565b602060405180830381865afa1580156117e1573d6000803e3d6000fd5b505050506040513d601f19601f820116820180604052508101906118059190612fde565b905061181081611f6d565b9350505050919050565b61182660008383611615565b6805345cdf77eb68f44c548181018181101561184a5763e5cfe9576000526004601cfd5b806805345cdf77eb68f44c556387a211a2600c52836000526020600c2083815401815583602052600c5160601c60007fddf252ad1be2c89b69c2b068fc378daa952ba7f163c4a11628f55a4df523b3ef602080a35050506118ad6000838361161a565b5050565b60606118e760007f0000000000000000000000000000000000000000000000000000000000000000611f7790919063ffffffff16565b905090565b606061192260017f0000000000000000000000000000000000000000000000000000000000000000611f7790919063ffffffff16565b905090565b61193382600083611615565b6387a211a2600c52816000526020600c2080548083111561195c5763f4d678b86000526004601cfd5b8281038255826805345cdf77eb68f44c54036805345cdf77eb68f44c558260005260008460601b60601c7fddf252ad1be2c89b69c2b068fc378daa952ba7f163c4a11628f55a4df523b3ef60206000a350506119ba8260008361161a565b5050565b60006119ca8383612027565b905092915050565b60006119df82600261209f565b9050919050565b60007f000000000000000000000000000000000000000000000000000000000000000073ffffffffffffffffffffffffffffffffffffffff163073ffffffffffffffffffffffffffffffffffffffff16148015611a6257507f000000000000000000000000000000000000000000000000000000000000000046145b15611a8f577f00000000000000000000000000000000000000000000000000000000000000009050611a9a565b611a97612139565b90505b90565b60006040517f190100000000000000000000000000000000000000000000000000000000000081528360028201528260228201526042812091505092915050565b60008060006041845103611b235760008060006020870151925060408701519150606087015160001a9050611b15888285856121cf565b955095509550505050611b33565b60006002855160001b9250925092505b9250925092565b60006003811115611b4e57611b4d61300b565b5b826003811115611b6157611b6061300b565b5b0315611c9a5760016003811115611b7b57611b7a61300b565b5b826003811115611b8e57611b8d61300b565b5b03611bc5576040517ff645eedf00000000000000000000000000000000000000000000000000000000815260040160405180910390fd5b60026003811115611bd957611bd861300b565b5b826003811115611bec57611beb61300b565b5b03611c31578060001c6040517ffce698f7000000000000000000000000000000000000000000000000000000008152600401611c289190612582565b60405180910390fd5b600380811115611c4457611c4361300b565b5b826003811115611c5757611c5661300b565b5b03611c9957806040517fd78bce0c000000000000000000000000000000000000000000000000000000008152600401611c909190612640565b60405180910390fd5b5b5050565b6000808214159050919050565b6060608073ffffffffffffffffffffffffffffffffffffffff1663a1848ff385611cd486611f10565b85604051602001611ce5919061305b565b6040516020818303038152906040526040518463ffffffff1660e01b8152600401611d1293929190613076565b600060405180830381865afa158015611d2f573d6000803e3d6000fd5b505050506040513d6000823e3d601f19601f82011682018060405250810190611d58919061315c565b90509392505050565b60006060608073ffffffffffffffffffffffffffffffffffffffff166319e1c5c4611d8b86611f10565b856040518363ffffffff1660e01b8152600401611da99291906131a5565b600060405180830381865afa158015611dc6573d6000803e3d6000fd5b505050506040513d6000823e3d601f19601f82011682018060405250810190611def9190613245565b9050611dfa816122c3565b91505092915050565b60006060838388611e1389611f10565b611e1c89611f10565b6040518463ffffffff1660e01b8152600401611e3a93929190613076565b600060405180830381865afa158015611e57573d6000803e3d6000fd5b505050506040513d6000823e3d601f19601f82011682018060405250810190611e809190613245565b9050611e8b816122d1565b91505095945050505050565b6000611ea283611c9e565b611eb357611eb060006116b6565b92505b611ebc82611c9e565b611ecd57611eca60006116b6565b91505b600083905060008390506000611f0260028484608073ffffffffffffffffffffffffffffffffffffffff1663cc2cbeff611e03565b905080935050505092915050565b6060602067ffffffffffffffff811115611f2d57611f2c6127b1565b5b6040519080825280601f01601f191660200182016040528015611f5f5781602001600182028036833780820191505090505b509050816020820152919050565b6000819050919050565b606060ff60001b8314611f9457611f8d836122df565b9050612021565b818054611fa090612e6c565b80601f0160208091040260200160405190810160405280929190818152602001828054611fcc90612e6c565b80156120195780601f10611fee57610100808354040283529160200191612019565b820191906000526020600020905b815481529060010190602001808311611ffc57829003601f168201915b505050505090505b92915050565b600061203283611c9e565b6120435761204060006116b6565b92505b61204c82611c9e565b61205d5761205a60006116b6565b91505b60008390506000839050600061209160028484608073ffffffffffffffffffffffffffffffffffffffff16622df619611e03565b905080935050505092915050565b60006060608073ffffffffffffffffffffffffffffffffffffffff16635fa55ca784866040518363ffffffff1660e01b81526004016120df929190612f99565b600060405180830381865afa1580156120fc573d6000803e3d6000fd5b505050506040513d6000823e3d601f19601f820116820180604052508101906121259190613245565b9050612130816122c3565b91505092915050565b60007f8b73c3c69bb8fe3d512ecc4cf759cc79239f7b179b0ffacaa9a75d522b39400f7f00000000000000000000000000000000000000000000000000000000000000007f000000000000000000000000000000000000000000000000000000000000000046306040516020016121b495949392919061328e565b60405160208183030381529060405280519060200120905090565b60008060007f7fffffffffffffffffffffffffffffff5d576e7357a4501ddfe92f46681b20a08460001c111561220f5760006003859250925092506122b9565b60006001888888886040516000815260200160405260405161223494939291906132e1565b6020604051602081039080840390855afa158015612256573d6000803e3d6000fd5b505050602060405103519050600073ffffffffffffffffffffffffffffffffffffffff168173ffffffffffffffffffffffffffffffffffffffff16036122aa57600060016000801b935093509350506122b9565b8060008060001b935093509350505b9450945094915050565b600060208201519050919050565b600060208201519050919050565b606060006122ec83612353565b90506000602067ffffffffffffffff81111561230b5761230a6127b1565b5b6040519080825280601f01601f19166020018201604052801561233d5781602001600182028036833780820191505090505b5090508181528360208201528092505050919050565b60008060ff8360001c169050601f81111561239a576040517fb3512b0c00000000000000000000000000000000000000000000000000000000815260040160405180910390fd5b80915050919050565b600081519050919050565b600082825260208201905092915050565b60005b838110156123dd5780820151818401526020810190506123c2565b60008484015250505050565b6000601f19601f8301169050919050565b6000612405826123a3565b61240f81856123ae565b935061241f8185602086016123bf565b612428816123e9565b840191505092915050565b6000602082019050818103600083015261244d81846123fa565b905092915050565b6000604051905090565b600080fd5b600080fd5b600073ffffffffffffffffffffffffffffffffffffffff82169050919050565b600061249482612469565b9050919050565b6124a481612489565b81146124af57600080fd5b50565b6000813590506124c18161249b565b92915050565b6000819050919050565b6124da816124c7565b81146124e557600080fd5b50565b6000813590506124f7816124d1565b92915050565b600080604083850312156125145761251361245f565b5b6000612522858286016124b2565b9250506020612533858286016124e8565b9150509250929050565b60008115159050919050565b6125528161253d565b82525050565b600060208201905061256d6000830184612549565b92915050565b61257c816124c7565b82525050565b60006020820190506125976000830184612573565b92915050565b6000806000606084860312156125b6576125b561245f565b5b60006125c4868287016124b2565b93505060206125d5868287016124b2565b92505060406125e6868287016124e8565b9150509250925092565b600060ff82169050919050565b612606816125f0565b82525050565b600060208201905061262160008301846125fd565b92915050565b6000819050919050565b61263a81612627565b82525050565b60006020820190506126556000830184612631565b92915050565b600080fd5b6000602082840312156126765761267561265b565b5b81905092915050565b600080604083850312156126965761269561245f565b5b60006126a4858286016124b2565b925050602083013567ffffffffffffffff8111156126c5576126c4612464565b5b6126d185828601612660565b9150509250929050565b6000819050919050565b60006127006126fb6126f6846124c7565b6126db565b6124c7565b9050919050565b612710816126e5565b82525050565b600060208201905061272b6000830184612707565b92915050565b6000604082840312156127475761274661265b565b5b81905092915050565b600080604083850312156127675761276661245f565b5b6000612775858286016124b2565b925050602083013567ffffffffffffffff81111561279657612795612464565b5b6127a285828601612731565b9150509250929050565b600080fd5b7f4e487b7100000000000000000000000000000000000000000000000000000000600052604160045260246000fd5b6127e9826123e9565b810181811067ffffffffffffffff82111715612808576128076127b1565b5b80604052505050565b600061281b612455565b905061282782826127e0565b919050565b600080fd5b61283a81612627565b811461284557600080fd5b50565b60008135905061285781612831565b92915050565b600080fd5b600080fd5b600067ffffffffffffffff821115612882576128816127b1565b5b61288b826123e9565b9050602081019050919050565b82818337600083830152505050565b60006128ba6128b584612867565b612811565b9050828152602081018484840111156128d6576128d5612862565b5b6128e1848285612898565b509392505050565b600082601f8301126128fe576128fd61285d565b5b813561290e8482602086016128a7565b91505092915050565b60006040828403121561292d5761292c6127ac565b5b6129376040612811565b9050600061294784828501612848565b600083015250602082013567ffffffffffffffff81111561296b5761296a61282c565b5b612977848285016128e9565b60208301525092915050565b6000806040838503121561299a5761299961245f565b5b60006129a8858286016124b2565b925050602083013567ffffffffffffffff8111156129c9576129c8612464565b5b6129d585828601612917565b9150509250929050565b600063ffffffff82169050919050565b6129f8816129df565b8114612a0357600080fd5b50565b600081359050612a15816129ef565b92915050565b600060208284031215612a3157612a3061245f565b5b6000612a3f84828501612a06565b91505092915050565b600060208284031215612a5e57612a5d61245f565b5b6000612a6c848285016124b2565b91505092915050565b60007fff0000000000000000000000000000000000000000000000000000000000000082169050919050565b612aaa81612a75565b82525050565b612ab981612489565b82525050565b600081519050919050565b600082825260208201905092915050565b6000819050602082019050919050565b612af4816124c7565b82525050565b6000612b068383612aeb565b60208301905092915050565b6000602082019050919050565b6000612b2a82612abf565b612b348185612aca565b9350612b3f83612adb565b8060005b83811015612b70578151612b578882612afa565b9750612b6283612b12565b925050600181019050612b43565b5085935050505092915050565b600060e082019050612b92600083018a612aa1565b8181036020830152612ba481896123fa565b90508181036040830152612bb881886123fa565b9050612bc76060830187612573565b612bd46080830186612ab0565b612be160a0830185612631565b81810360c0830152612bf38184612b1f565b905098975050505050505050565b600080600060608486031215612c1a57612c1961245f565b5b6000612c28868287016124b2565b9350506020612c39868287016124b2565b925050604084013567ffffffffffffffff811115612c5a57612c59612464565b5b612c6686828701612660565b9150509250925092565b612c79816124c7565b8114612c8457600080fd5b50565b600081359050612c9681612c70565b92915050565b600080600060608486031215612cb557612cb461245f565b5b6000612cc3868287016124b2565b9350506020612cd4868287016124b2565b9250506040612ce586828701612c87565b9150509250925092565b60008060408385031215612d0657612d0561245f565b5b6000612d14858286016124b2565b9250506020612d2585828601612c87565b9150509250929050565b612d38816125f0565b8114612d4357600080fd5b50565b600081359050612d5581612d2f565b92915050565b600080600080600080600060e0888a031215612d7a57612d7961245f565b5b6000612d888a828b016124b2565b9750506020612d998a828b016124b2565b9650506040612daa8a828b016124e8565b9550506060612dbb8a828b016124e8565b9450506080612dcc8a828b01612d46565b93505060a0612ddd8a828b01612848565b92505060c0612dee8a828b01612848565b91505092959891949750929550565b60008060408385031215612e1457612e1361245f565b5b6000612e22858286016124b2565b9250506020612e33858286016124b2565b9150509250929050565b7f4e487b7100000000000000000000000000000000000000000000000000000000600052602260045260246000fd5b60006002820490506001821680612e8457607f821691505b602082108103612e9757612e96612e3d565b5b50919050565b600060208284031215612eb357612eb26127ac565b5b612ebd6020612811565b9050600082013567ffffffffffffffff811115612edd57612edc61282c565b5b612ee9848285016128e9565b60008301525092915050565b6000612f013683612e9d565b9050919050565b6000612f143683612917565b9050919050565b6000604082019050612f306000830185612631565b612f3d6020830184612631565b9392505050565b600081519050919050565b600082825260208201905092915050565b6000612f6b82612f44565b612f758185612f4f565b9350612f858185602086016123bf565b612f8e816123e9565b840191505092915050565b6000604082019050612fae60008301856125fd565b8181036020830152612fc08184612f60565b90509392505050565b600081519050612fd8816124d1565b92915050565b600060208284031215612ff457612ff361245f565b5b600061300284828501612fc9565b91505092915050565b7f4e487b7100000000000000000000000000000000000000000000000000000000600052602160045260246000fd5b6000819050919050565b61305561305082612627565b61303a565b82525050565b60006130678284613044565b60208201915081905092915050565b600060608201905061308b60008301866125fd565b818103602083015261309d8185612f60565b905081810360408301526130b18184612f60565b9050949350505050565b600067ffffffffffffffff8211156130d6576130d56127b1565b5b6130df826123e9565b9050602081019050919050565b60006130ff6130fa846130bb565b612811565b90508281526020810184848401111561311b5761311a612862565b5b6131268482856123bf565b509392505050565b600082601f8301126131435761314261285d565b5b81516131538482602086016130ec565b91505092915050565b6000602082840312156131725761317161245f565b5b600082015167ffffffffffffffff8111156131905761318f612464565b5b61319c8482850161312e565b91505092915050565b600060408201905081810360008301526131bf8185612f60565b90506131ce60208301846125fd565b9392505050565b60006131e86131e384612867565b612811565b90508281526020810184848401111561320457613203612862565b5b61320f8482856123bf565b509392505050565b600082601f83011261322c5761322b61285d565b5b815161323c8482602086016131d5565b91505092915050565b60006020828403121561325b5761325a61245f565b5b600082015167ffffffffffffffff81111561327957613278612464565b5b61328584828501613217565b91505092915050565b600060a0820190506132a36000830188612631565b6132b06020830187612631565b6132bd6040830186612631565b6132ca6060830185612573565b6132d76080830184612ab0565b9695505050505050565b60006080820190506132f66000830187612631565b61330360208301866125fd565b6133106040830185612631565b61331d6060830184612631565b9594505050505056fea2646970667358221220e42dbdeebf087ea0ee047333ff97a718a513717710c9f95d1221077dd91cbfbf64736f6c63430008180033",
  "devdoc": {
    "errors": {
      "AllowanceOverflow()": [
        {
          "details": "The allowance has overflowed."
        }
      ],
      "AllowanceUnderflow()": [
        {
          "details": "The allowance has underflowed."
        }
      ],
      "ECDSAInvalidSignature()": [
        {
          "details": "The signature derives the `address(0)`."
        }
      ],
      "ECDSAInvalidSignatureLength(uint256)": [
        {
          "details": "The signature has an invalid length."
        }
      ],
      "ECDSAInvalidSignatureS(bytes32)": [
        {
          "details": "The signature has an S value that is in the upper half order."
        }
      ],
      "InsufficientAllowance()": [
        {
          "details": "Insufficient allowance."
        }
      ],
      "InsufficientBalance()": [
        {
          "details": "Insufficient balance."
        }
      ],
      "InvalidPermit()": [
        {
          "details": "The permit is invalid."
        }
      ],
      "PermitExpired()": [
        {
          "details": "The permit has expired."
        }
      ],
      "TotalSupplyOverflow()": [
        {
          "details": "The total supply has overflowed."
        }
      ]
    },
    "events": {
      "Approval(address,address,uint256)": {
        "details": "Emitted when `amount` tokens is approved by `owner` to be used by `spender`."
      },
      "ApprovalEncrypted(address,address)": {
        "details": "Emitted when the allowance of a `spender` for an `owner` is set by a call to {approveEncrypted}. `value` is the new allowance."
      },
      "EIP712DomainChanged()": {
        "details": "MAY be emitted to signal that the domain could have changed."
      },
      "Transfer(address,address,uint256)": {
        "details": "Emitted when `amount` tokens is transferred from `from` to `to`."
      },
      "TransferEncrypted(address,address)": {
        "details": "Emitted when `value` tokens are moved from one account (`from`) to another (`to`). Note that `value` may be zero."
      }
    },
    "kind": "dev",
    "methods": {
      "DOMAIN_SEPARATOR()": {
        "details": "Returns the EIP-712 domain separator for the EIP-2612 permit."
      },
      "allowance(address,address)": {
        "details": "Returns the amount of tokens that `spender` can spend on behalf of `owner`."
      },
      "allowanceEncrypted(address,(bytes32,bytes))": {
        "details": "Returns the remaining number of tokens that `spender` will be allowed to spend on behalf of `owner` through {transferFrom}. This is zero by default. This value changes when {approve} or {transferFrom} are called."
      },
      "approve(address,uint256)": {
        "details": "Sets `amount` as the allowance of `spender` over the caller's tokens. Emits a {Approval} event."
      },
      "approveEncrypted(address,(bytes))": {
        "details": "Sets a `value` amount of tokens as the allowance of `spender` over the caller's tokens. Returns a boolean value indicating whether the operation succeeded. IMPORTANT: Beware that changing an allowance with this method brings the risk that someone may use both the old and the new allowance by unfortunate transaction ordering. One possible solution to mitigate this race condition is to first reduce the spender's allowance to 0 and set the desired value afterwards: https://github.com/ethereum/EIPs/issues/20#issuecomment-263524729 Emits an {ApprovalEncrypted} event."
      },
      "balanceOf(address)": {
        "details": "Returns the amount of tokens owned by `owner`."
      },
      "balanceOfEncrypted(address,(bytes32,bytes))": {
        "details": "Returns the value of tokens owned by `account`, sealed and encrypted for the caller."
      },
      "decimals()": {
        "details": "Returns the decimals places of the token."
      },
      "eip712Domain()": {
        "details": "See {IERC-5267}."
      },
      "name()": {
        "details": "Returns the name of the token."
      },
      "nonces(address)": {
        "details": "Returns the current nonce for `owner`. This value is used to compute the signature for EIP-2612 permit."
      },
      "permit(address,address,uint256,uint256,uint8,bytes32,bytes32)": {
        "details": "Sets `value` as the allowance of `spender` over the tokens of `owner`, authorized by a signed approval by `owner`. Emits a {Approval} event."
      },
      "symbol()": {
        "details": "Returns the symbol of the token."
      },
      "totalSupply()": {
        "details": "Returns the amount of tokens in existence."
      },
      "transfer(address,uint256)": {
        "details": "Transfer `amount` tokens from the caller to `to`. Requirements: - `from` must at least have `amount`. Emits a {Transfer} event."
      },
      "transferFrom(address,address,uint256)": {
        "details": "Transfers `amount` tokens from `from` to `to`. Note: Does not update the allowance if it is the maximum uint256 value. Requirements: - `from` must at least have `amount`. - The caller must have at least `amount` of allowance to transfer the tokens of `from`. Emits a {Transfer} event."
      },
      "transferFromEncrypted(address,address,(bytes))": {
        "details": "Moves a `value` amount of tokens from `from` to `to` using the allowance mechanism. `value` is then deducted from the caller's allowance. Returns a boolean value indicating whether the operation succeeded. Emits a {TransferEncrypted} event."
      }
    },
    "version": 1
  },
  "userdoc": {
    "errors": {
      "SignerNotMessageSender()": [
        {
          "notice": "Emitted when the signer is not the message sender"
        }
      ],
      "SignerNotOwner()": [
        {
          "notice": "Emitted when the signer is not the specified owner"
        }
      ]
    },
    "kind": "user",
    "methods": {},
    "version": 1
  },
  "storageLayout": {
    "storage": [
      {
        "astId": 16568,
        "contract": "contracts/tokens/FakeFGZ.sol:FakeFGZ",
        "label": "_nameFallback",
        "offset": 0,
        "slot": "0",
        "type": "t_string_storage"
      },
      {
        "astId": 16570,
        "contract": "contracts/tokens/FakeFGZ.sol:FakeFGZ",
        "label": "_versionFallback",
        "offset": 0,
        "slot": "1",
        "type": "t_string_storage"
      },
      {
        "astId": 20527,
        "contract": "contracts/tokens/FakeFGZ.sol:FakeFGZ",
        "label": "_encTotalSupply",
        "offset": 0,
        "slot": "2",
        "type": "t_userDefinedValueType(euint32)12"
      },
      {
        "astId": 20532,
        "contract": "contracts/tokens/FakeFGZ.sol:FakeFGZ",
        "label": "_encBalanceOf",
        "offset": 0,
        "slot": "3",
        "type": "t_mapping(t_address,t_userDefinedValueType(euint32)12)"
      },
      {
        "astId": 20539,
        "contract": "contracts/tokens/FakeFGZ.sol:FakeFGZ",
        "label": "_encAllowance",
        "offset": 0,
        "slot": "4",
        "type": "t_mapping(t_address,t_mapping(t_address,t_userDefinedValueType(euint32)12))"
      },
      {
        "astId": 20541,
        "contract": "contracts/tokens/FakeFGZ.sol:FakeFGZ",
        "label": "_name",
        "offset": 0,
        "slot": "5",
        "type": "t_string_storage"
      },
      {
        "astId": 20543,
        "contract": "contracts/tokens/FakeFGZ.sol:FakeFGZ",
        "label": "_symbol",
        "offset": 0,
        "slot": "6",
        "type": "t_string_storage"
      }
    ],
    "types": {
      "t_address": {
        "encoding": "inplace",
        "label": "address",
        "numberOfBytes": "20"
      },
      "t_mapping(t_address,t_mapping(t_address,t_userDefinedValueType(euint32)12))": {
        "encoding": "mapping",
        "key": "t_address",
        "label": "mapping(address => mapping(address => euint32))",
        "numberOfBytes": "32",
        "value": "t_mapping(t_address,t_userDefinedValueType(euint32)12)"
      },
      "t_mapping(t_address,t_userDefinedValueType(euint32)12)": {
        "encoding": "mapping",
        "key": "t_address",
        "label": "mapping(address => euint32)",
        "numberOfBytes": "32",
        "value": "t_userDefinedValueType(euint32)12"
      },
      "t_string_storage": {
        "encoding": "bytes",
        "label": "string",
        "numberOfBytes": "32"
      },
      "t_userDefinedValueType(euint32)12": {
        "encoding": "inplace",
        "label": "euint32",
        "numberOfBytes": "32"
      }
    }
  }
}