{
  "address": "0x439b08dA148C136298b56585C37c634F005ACd3b",
  "abi": [
    {
      "inputs": [
        {
          "components": [
            {
              "internalType": "bytes",
              "name": "data",
              "type": "bytes"
            }
          ],
          "internalType": "struct inEuint32",
          "name": "_initialSupply",
          "type": "tuple"
        }
      ],
      "stateMutability": "nonpayable",
      "type": "constructor"
    },
    {
      "inputs": [],
      "name": "AllowanceOverflow",
      "type": "error"
    },
    {
      "inputs": [],
      "name": "AllowanceUnderflow",
      "type": "error"
    },
    {
      "inputs": [],
      "name": "ECDSAInvalidSignature",
      "type": "error"
    },
    {
      "inputs": [
        {
          "internalType": "uint256",
          "name": "length",
          "type": "uint256"
        }
      ],
      "name": "ECDSAInvalidSignatureLength",
      "type": "error"
    },
    {
      "inputs": [
        {
          "internalType": "bytes32",
          "name": "s",
          "type": "bytes32"
        }
      ],
      "name": "ECDSAInvalidSignatureS",
      "type": "error"
    },
    {
      "inputs": [],
      "name": "ErrorInsufficientFunds",
      "type": "error"
    },
    {
      "inputs": [],
      "name": "InsufficientAllowance",
      "type": "error"
    },
    {
      "inputs": [],
      "name": "InsufficientBalance",
      "type": "error"
    },
    {
      "inputs": [],
      "name": "InvalidPermit",
      "type": "error"
    },
    {
      "inputs": [],
      "name": "InvalidShortString",
      "type": "error"
    },
    {
      "inputs": [],
      "name": "PermitExpired",
      "type": "error"
    },
    {
      "inputs": [],
      "name": "SignerNotMessageSender",
      "type": "error"
    },
    {
      "inputs": [],
      "name": "SignerNotOwner",
      "type": "error"
    },
    {
      "inputs": [
        {
          "internalType": "string",
          "name": "str",
          "type": "string"
        }
      ],
      "name": "StringTooLong",
      "type": "error"
    },
    {
      "inputs": [],
      "name": "TotalSupplyOverflow",
      "type": "error"
    },
    {
      "anonymous": false,
      "inputs": [
        {
          "indexed": true,
          "internalType": "address",
          "name": "owner",
          "type": "address"
        },
        {
          "indexed": true,
          "internalType": "address",
          "name": "spender",
          "type": "address"
        },
        {
          "indexed": false,
          "internalType": "uint256",
          "name": "amount",
          "type": "uint256"
        }
      ],
      "name": "Approval",
      "type": "event"
    },
    {
      "anonymous": false,
      "inputs": [
        {
          "indexed": true,
          "internalType": "address",
          "name": "owner",
          "type": "address"
        },
        {
          "indexed": true,
          "internalType": "address",
          "name": "spender",
          "type": "address"
        }
      ],
      "name": "ApprovalEncrypted",
      "type": "event"
    },
    {
      "anonymous": false,
      "inputs": [],
      "name": "EIP712DomainChanged",
      "type": "event"
    },
    {
      "anonymous": false,
      "inputs": [
        {
          "indexed": true,
          "internalType": "address",
          "name": "from",
          "type": "address"
        },
        {
          "indexed": true,
          "internalType": "address",
          "name": "to",
          "type": "address"
        },
        {
          "indexed": false,
          "internalType": "uint256",
          "name": "amount",
          "type": "uint256"
        }
      ],
      "name": "Transfer",
      "type": "event"
    },
    {
      "anonymous": false,
      "inputs": [
        {
          "indexed": true,
          "internalType": "address",
          "name": "from",
          "type": "address"
        },
        {
          "indexed": true,
          "internalType": "address",
          "name": "to",
          "type": "address"
        }
      ],
      "name": "TransferEncrypted",
      "type": "event"
    },
    {
      "inputs": [],
      "name": "DOMAIN_SEPARATOR",
      "outputs": [
        {
          "internalType": "bytes32",
          "name": "result",
          "type": "bytes32"
        }
      ],
      "stateMutability": "view",
      "type": "function"
    },
    {
      "inputs": [
        {
          "internalType": "address",
          "name": "owner",
          "type": "address"
        },
        {
          "internalType": "address",
          "name": "spender",
          "type": "address"
        }
      ],
      "name": "allowance",
      "outputs": [
        {
          "internalType": "uint256",
          "name": "result",
          "type": "uint256"
        }
      ],
      "stateMutability": "view",
      "type": "function"
    },
    {
      "inputs": [
        {
          "internalType": "address",
          "name": "spender",
          "type": "address"
        },
        {
          "components": [
            {
              "internalType": "bytes32",
              "name": "publicKey",
              "type": "bytes32"
            },
            {
              "internalType": "bytes",
              "name": "signature",
              "type": "bytes"
            }
          ],
          "internalType": "struct Permission",
          "name": "permission",
          "type": "tuple"
        }
      ],
      "name": "allowanceEncrypted",
      "outputs": [
        {
          "internalType": "string",
          "name": "",
          "type": "string"
        }
      ],
      "stateMutability": "view",
      "type": "function"
    },
    {
      "inputs": [
        {
          "internalType": "address",
          "name": "spender",
          "type": "address"
        },
        {
          "internalType": "uint256",
          "name": "amount",
          "type": "uint256"
        }
      ],
      "name": "approve",
      "outputs": [
        {
          "internalType": "bool",
          "name": "",
          "type": "bool"
        }
      ],
      "stateMutability": "nonpayable",
      "type": "function"
    },
    {
      "inputs": [
        {
          "internalType": "address",
          "name": "spender",
          "type": "address"
        },
        {
          "components": [
            {
              "internalType": "bytes",
              "name": "data",
              "type": "bytes"
            }
          ],
          "internalType": "struct inEuint32",
          "name": "value",
          "type": "tuple"
        }
      ],
      "name": "approveEncrypted",
      "outputs": [
        {
          "internalType": "bool",
          "name": "",
          "type": "bool"
        }
      ],
      "stateMutability": "nonpayable",
      "type": "function"
    },
    {
      "inputs": [
        {
          "internalType": "address",
          "name": "owner",
          "type": "address"
        }
      ],
      "name": "balanceOf",
      "outputs": [
        {
          "internalType": "uint256",
          "name": "result",
          "type": "uint256"
        }
      ],
      "stateMutability": "view",
      "type": "function"
    },
    {
      "inputs": [
        {
          "internalType": "address",
          "name": "account",
          "type": "address"
        },
        {
          "components": [
            {
              "internalType": "bytes32",
              "name": "publicKey",
              "type": "bytes32"
            },
            {
              "internalType": "bytes",
              "name": "signature",
              "type": "bytes"
            }
          ],
          "internalType": "struct Permission",
          "name": "auth",
          "type": "tuple"
        }
      ],
      "name": "balanceOfEncrypted",
      "outputs": [
        {
          "internalType": "string",
          "name": "",
          "type": "string"
        }
      ],
      "stateMutability": "view",
      "type": "function"
    },
    {
      "inputs": [],
      "name": "decimals",
      "outputs": [
        {
          "internalType": "uint8",
          "name": "",
          "type": "uint8"
        }
      ],
      "stateMutability": "pure",
      "type": "function"
    },
    {
      "inputs": [],
      "name": "eip712Domain",
      "outputs": [
        {
          "internalType": "bytes1",
          "name": "fields",
          "type": "bytes1"
        },
        {
          "internalType": "string",
          "name": "name",
          "type": "string"
        },
        {
          "internalType": "string",
          "name": "version",
          "type": "string"
        },
        {
          "internalType": "uint256",
          "name": "chainId",
          "type": "uint256"
        },
        {
          "internalType": "address",
          "name": "verifyingContract",
          "type": "address"
        },
        {
          "internalType": "bytes32",
          "name": "salt",
          "type": "bytes32"
        },
        {
          "internalType": "uint256[]",
          "name": "extensions",
          "type": "uint256[]"
        }
      ],
      "stateMutability": "view",
      "type": "function"
    },
    {
      "inputs": [],
      "name": "name",
      "outputs": [
        {
          "internalType": "string",
          "name": "",
          "type": "string"
        }
      ],
      "stateMutability": "view",
      "type": "function"
    },
    {
      "inputs": [
        {
          "internalType": "address",
          "name": "owner",
          "type": "address"
        }
      ],
      "name": "nonces",
      "outputs": [
        {
          "internalType": "uint256",
          "name": "result",
          "type": "uint256"
        }
      ],
      "stateMutability": "view",
      "type": "function"
    },
    {
      "inputs": [
        {
          "internalType": "address",
          "name": "owner",
          "type": "address"
        },
        {
          "internalType": "address",
          "name": "spender",
          "type": "address"
        },
        {
          "internalType": "uint256",
          "name": "value",
          "type": "uint256"
        },
        {
          "internalType": "uint256",
          "name": "deadline",
          "type": "uint256"
        },
        {
          "internalType": "uint8",
          "name": "v",
          "type": "uint8"
        },
        {
          "internalType": "bytes32",
          "name": "r",
          "type": "bytes32"
        },
        {
          "internalType": "bytes32",
          "name": "s",
          "type": "bytes32"
        }
      ],
      "name": "permit",
      "outputs": [],
      "stateMutability": "nonpayable",
      "type": "function"
    },
    {
      "inputs": [],
      "name": "symbol",
      "outputs": [
        {
          "internalType": "string",
          "name": "",
          "type": "string"
        }
      ],
      "stateMutability": "view",
      "type": "function"
    },
    {
      "inputs": [],
      "name": "totalSupply",
      "outputs": [
        {
          "internalType": "uint256",
          "name": "result",
          "type": "uint256"
        }
      ],
      "stateMutability": "view",
      "type": "function"
    },
    {
      "inputs": [
        {
          "internalType": "address",
          "name": "to",
          "type": "address"
        },
        {
          "internalType": "uint256",
          "name": "amount",
          "type": "uint256"
        }
      ],
      "name": "transfer",
      "outputs": [
        {
          "internalType": "bool",
          "name": "",
          "type": "bool"
        }
      ],
      "stateMutability": "nonpayable",
      "type": "function"
    },
    {
      "inputs": [
        {
          "internalType": "address",
          "name": "to",
          "type": "address"
        },
        {
          "components": [
            {
              "internalType": "bytes",
              "name": "data",
              "type": "bytes"
            }
          ],
          "internalType": "struct inEuint32",
          "name": "encryptedAmount",
          "type": "tuple"
        }
      ],
      "name": "transferEncrypted",
      "outputs": [
        {
          "internalType": "euint32",
          "name": "",
          "type": "uint256"
        }
      ],
      "stateMutability": "nonpayable",
      "type": "function"
    },
    {
      "inputs": [
        {
          "internalType": "address",
          "name": "to",
          "type": "address"
        },
        {
          "internalType": "euint32",
          "name": "amount",
          "type": "uint256"
        }
      ],
      "name": "transferEncrypted",
      "outputs": [
        {
          "internalType": "euint32",
          "name": "",
          "type": "uint256"
        }
      ],
      "stateMutability": "nonpayable",
      "type": "function"
    },
    {
      "inputs": [
        {
          "internalType": "address",
          "name": "from",
          "type": "address"
        },
        {
          "internalType": "address",
          "name": "to",
          "type": "address"
        },
        {
          "internalType": "uint256",
          "name": "amount",
          "type": "uint256"
        }
      ],
      "name": "transferFrom",
      "outputs": [
        {
          "internalType": "bool",
          "name": "",
          "type": "bool"
        }
      ],
      "stateMutability": "nonpayable",
      "type": "function"
    },
    {
      "inputs": [
        {
          "internalType": "address",
          "name": "from",
          "type": "address"
        },
        {
          "internalType": "address",
          "name": "to",
          "type": "address"
        },
        {
          "components": [
            {
              "internalType": "bytes",
              "name": "data",
              "type": "bytes"
            }
          ],
          "internalType": "struct inEuint32",
          "name": "value",
          "type": "tuple"
        }
      ],
      "name": "transferFromEncrypted",
      "outputs": [
        {
          "internalType": "euint32",
          "name": "",
          "type": "uint256"
        }
      ],
      "stateMutability": "nonpayable",
      "type": "function"
    },
    {
      "inputs": [
        {
          "internalType": "address",
          "name": "from",
          "type": "address"
        },
        {
          "internalType": "address",
          "name": "to",
          "type": "address"
        },
        {
          "internalType": "euint32",
          "name": "value",
          "type": "uint256"
        }
      ],
      "name": "transferFromEncrypted",
      "outputs": [
        {
          "internalType": "euint32",
          "name": "",
          "type": "uint256"
        }
      ],
      "stateMutability": "nonpayable",
      "type": "function"
    },
    {
      "inputs": [
        {
          "internalType": "uint32",
          "name": "amount",
          "type": "uint32"
        }
      ],
      "name": "unwrap",
      "outputs": [],
      "stateMutability": "nonpayable",
      "type": "function"
    },
    {
      "inputs": [
        {
          "internalType": "uint32",
          "name": "amount",
          "type": "uint32"
        }
      ],
      "name": "wrap",
      "outputs": [],
      "stateMutability": "nonpayable",
      "type": "function"
    }
  ],
  "transactionHash": "0x02466491a2ec8252cfb2a114d6148aaf4f29d1ea24081a034a9c99e344959e95",
  "args": [
    {
      "data": {
        "0": 16,
        "1": 8,
        "2": 0,
        "3": 0,
        "4": 0,
        "5": 0,
        "6": 0,
        "7": 0,
        "8": 54,
        "9": 133,
        "10": 102,
        "11": 52,
        "12": 29,
        "13": 203,
        "14": 81,
        "15": 212,
        "16": 230,
        "17": 134,
        "18": 20,
        "19": 188,
        "20": 205,
        "21": 133,
        "22": 168,
        "23": 158,
        "24": 113,
        "25": 25,
        "26": 152,
        "27": 181,
        "28": 213,
        "29": 59,
        "30": 240,
        "31": 200,
        "32": 31,
        "33": 80,
        "34": 139,
        "35": 203,
        "36": 179,
        "37": 135,
        "38": 22,
        "39": 247,
        "40": 244,
        "41": 17,
        "42": 19,
        "43": 233,
        "44": 23,
        "45": 206,
        "46": 219,
        "47": 101,
        "48": 48,
        "49": 212,
        "50": 31,
        "51": 155,
        "52": 109,
        "53": 214,
        "54": 247,
        "55": 72,
        "56": 52,
        "57": 6,
        "58": 151,
        "59": 147,
        "60": 253,
        "61": 165,
        "62": 47,
        "63": 24,
        "64": 154,
        "65": 150,
        "66": 69,
        "67": 163,
        "68": 204,
        "69": 55,
        "70": 151,
        "71": 143,
        "72": 10,
        "73": 4,
        "74": 252,
        "75": 39,
        "76": 35,
        "77": 131,
        "78": 9,
        "79": 149,
        "80": 114,
        "81": 252,
        "82": 93,
        "83": 30,
        "84": 195,
        "85": 148,
        "86": 97,
        "87": 146,
        "88": 234,
        "89": 233,
        "90": 60,
        "91": 176,
        "92": 250,
        "93": 158,
        "94": 111,
        "95": 87,
        "96": 114,
        "97": 29,
        "98": 193,
        "99": 132,
        "100": 251,
        "101": 76,
        "102": 19,
        "103": 235,
        "104": 145,
        "105": 6,
        "106": 79,
        "107": 196,
        "108": 89,
        "109": 145,
        "110": 139,
        "111": 209,
        "112": 186,
        "113": 53,
        "114": 31,
        "115": 112,
        "116": 1,
        "117": 36,
        "118": 129,
        "119": 248,
        "120": 194,
        "121": 213,
        "122": 74,
        "123": 133,
        "124": 38,
        "125": 41,
        "126": 168,
        "127": 74,
        "128": 19,
        "129": 93,
        "130": 196,
        "131": 63,
        "132": 113,
        "133": 176,
        "134": 210,
        "135": 174,
        "136": 162,
        "137": 127,
        "138": 23,
        "139": 22,
        "140": 84,
        "141": 41,
        "142": 4,
        "143": 182,
        "144": 101,
        "145": 70,
        "146": 157,
        "147": 253,
        "148": 83,
        "149": 49,
        "150": 86,
        "151": 50,
        "152": 188,
        "153": 143,
        "154": 38,
        "155": 190,
        "156": 144,
        "157": 125,
        "158": 120,
        "159": 99,
        "160": 103,
        "161": 186,
        "162": 156,
        "163": 6,
        "164": 105,
        "165": 67,
        "166": 194,
        "167": 225,
        "168": 232,
        "169": 178,
        "170": 195,
        "171": 223,
        "172": 27,
        "173": 51,
        "174": 21,
        "175": 130,
        "176": 179,
        "177": 0,
        "178": 246,
        "179": 84,
        "180": 238,
        "181": 172,
        "182": 139,
        "183": 88,
        "184": 63,
        "185": 73,
        "186": 106,
        "187": 218,
        "188": 15,
        "189": 49,
        "190": 113,
        "191": 141,
        "192": 19,
        "193": 235,
        "194": 235,
        "195": 157,
        "196": 70,
        "197": 2,
        "198": 87,
        "199": 200,
        "200": 221,
        "201": 114,
        "202": 49,
        "203": 90,
        "204": 166,
        "205": 105,
        "206": 199,
        "207": 66,
        "208": 251,
        "209": 114,
        "210": 204,
        "211": 248,
        "212": 21,
        "213": 77,
        "214": 225,
        "215": 185,
        "216": 95,
        "217": 211,
        "218": 73,
        "219": 148,
        "220": 181,
        "221": 238,
        "222": 133,
        "223": 6,
        "224": 33,
        "225": 244,
        "226": 226,
        "227": 22,
        "228": 210,
        "229": 111,
        "230": 102,
        "231": 249,
        "232": 201,
        "233": 51,
        "234": 142,
        "235": 56,
        "236": 141,
        "237": 169,
        "238": 205,
        "239": 207,
        "240": 240,
        "241": 0,
        "242": 173,
        "243": 155,
        "244": 108,
        "245": 47,
        "246": 226,
        "247": 134,
        "248": 124,
        "249": 52,
        "250": 110,
        "251": 170,
        "252": 67,
        "253": 177,
        "254": 169,
        "255": 131,
        "256": 80,
        "257": 205,
        "258": 90,
        "259": 99,
        "260": 198,
        "261": 91,
        "262": 182,
        "263": 178,
        "264": 90,
        "265": 81,
        "266": 101,
        "267": 5,
        "268": 188,
        "269": 162,
        "270": 50,
        "271": 210,
        "272": 127,
        "273": 234,
        "274": 21,
        "275": 164,
        "276": 146,
        "277": 125,
        "278": 95,
        "279": 51,
        "280": 32,
        "281": 218,
        "282": 227,
        "283": 227,
        "284": 223,
        "285": 207,
        "286": 205,
        "287": 20,
        "288": 17,
        "289": 170,
        "290": 36,
        "291": 201,
        "292": 163,
        "293": 51,
        "294": 208,
        "295": 197,
        "296": 20,
        "297": 229,
        "298": 95,
        "299": 14,
        "300": 38,
        "301": 183,
        "302": 163,
        "303": 39,
        "304": 130,
        "305": 149,
        "306": 110,
        "307": 7,
        "308": 136,
        "309": 166,
        "310": 134,
        "311": 38,
        "312": 20,
        "313": 151,
        "314": 211,
        "315": 197,
        "316": 228,
        "317": 223,
        "318": 224,
        "319": 249,
        "320": 245,
        "321": 247,
        "322": 117,
        "323": 169,
        "324": 113,
        "325": 36,
        "326": 87,
        "327": 112,
        "328": 206,
        "329": 181,
        "330": 221,
        "331": 109,
        "332": 203,
        "333": 24,
        "334": 78,
        "335": 159,
        "336": 127,
        "337": 198,
        "338": 88,
        "339": 23,
        "340": 236,
        "341": 235,
        "342": 197,
        "343": 242,
        "344": 61,
        "345": 85,
        "346": 232,
        "347": 141,
        "348": 160,
        "349": 196,
        "350": 24,
        "351": 188,
        "352": 194,
        "353": 32,
        "354": 219,
        "355": 240,
        "356": 6,
        "357": 248,
        "358": 176,
        "359": 112,
        "360": 184,
        "361": 194,
        "362": 46,
        "363": 124,
        "364": 88,
        "365": 45,
        "366": 131,
        "367": 0,
        "368": 17,
        "369": 0,
        "370": 62,
        "371": 83,
        "372": 2,
        "373": 61,
        "374": 84,
        "375": 56,
        "376": 27,
        "377": 161,
        "378": 228,
        "379": 146,
        "380": 51,
        "381": 165,
        "382": 234,
        "383": 144,
        "384": 218,
        "385": 87,
        "386": 87,
        "387": 13,
        "388": 230,
        "389": 112,
        "390": 142,
        "391": 87,
        "392": 66,
        "393": 172,
        "394": 184,
        "395": 166,
        "396": 186,
        "397": 116,
        "398": 253,
        "399": 16,
        "400": 0,
        "401": 157,
        "402": 166,
        "403": 211,
        "404": 242,
        "405": 106,
        "406": 108,
        "407": 46,
        "408": 141,
        "409": 222,
        "410": 68,
        "411": 29,
        "412": 126,
        "413": 95,
        "414": 98,
        "415": 141,
        "416": 67,
        "417": 230,
        "418": 176,
        "419": 222,
        "420": 55,
        "421": 245,
        "422": 212,
        "423": 211,
        "424": 13,
        "425": 30,
        "426": 82,
        "427": 40,
        "428": 114,
        "429": 219,
        "430": 227,
        "431": 13,
        "432": 144,
        "433": 161,
        "434": 132,
        "435": 197,
        "436": 56,
        "437": 81,
        "438": 251,
        "439": 97,
        "440": 202,
        "441": 172,
        "442": 88,
        "443": 41,
        "444": 221,
        "445": 216,
        "446": 85,
        "447": 211,
        "448": 192,
        "449": 198,
        "450": 219,
        "451": 223,
        "452": 123,
        "453": 140,
        "454": 74,
        "455": 146,
        "456": 200,
        "457": 61,
        "458": 101,
        "459": 227,
        "460": 177,
        "461": 12,
        "462": 64,
        "463": 188,
        "464": 200,
        "465": 34,
        "466": 161,
        "467": 162,
        "468": 52,
        "469": 67,
        "470": 165,
        "471": 52,
        "472": 219,
        "473": 234,
        "474": 26,
        "475": 187,
        "476": 180,
        "477": 188,
        "478": 15,
        "479": 80,
        "480": 129,
        "481": 130,
        "482": 86,
        "483": 118,
        "484": 39,
        "485": 98,
        "486": 50,
        "487": 213,
        "488": 54,
        "489": 34,
        "490": 54,
        "491": 178,
        "492": 11,
        "493": 162,
        "494": 186,
        "495": 24,
        "496": 236,
        "497": 73,
        "498": 228,
        "499": 92,
        "500": 217,
        "501": 126,
        "502": 61,
        "503": 18,
        "504": 87,
        "505": 115,
        "506": 151,
        "507": 241,
        "508": 137,
        "509": 106,
        "510": 217,
        "511": 126,
        "512": 88,
        "513": 183,
        "514": 164,
        "515": 109,
        "516": 141,
        "517": 174,
        "518": 248,
        "519": 72,
        "520": 67,
        "521": 101,
        "522": 161,
        "523": 104,
        "524": 165,
        "525": 176,
        "526": 201,
        "527": 199,
        "528": 109,
        "529": 165,
        "530": 60,
        "531": 63,
        "532": 108,
        "533": 58,
        "534": 33,
        "535": 54,
        "536": 27,
        "537": 85,
        "538": 167,
        "539": 178,
        "540": 162,
        "541": 186,
        "542": 203,
        "543": 90,
        "544": 31,
        "545": 123,
        "546": 227,
        "547": 176,
        "548": 153,
        "549": 18,
        "550": 90,
        "551": 166,
        "552": 202,
        "553": 235,
        "554": 116,
        "555": 234,
        "556": 99,
        "557": 70,
        "558": 49,
        "559": 200,
        "560": 233,
        "561": 61,
        "562": 75,
        "563": 18,
        "564": 145,
        "565": 183,
        "566": 37,
        "567": 32,
        "568": 144,
        "569": 252,
        "570": 221,
        "571": 26,
        "572": 2,
        "573": 208,
        "574": 42,
        "575": 102,
        "576": 71,
        "577": 47,
        "578": 123,
        "579": 157,
        "580": 142,
        "581": 186,
        "582": 131,
        "583": 67,
        "584": 157,
        "585": 190,
        "586": 32,
        "587": 227,
        "588": 202,
        "589": 189,
        "590": 216,
        "591": 215,
        "592": 83,
        "593": 51,
        "594": 150,
        "595": 159,
        "596": 100,
        "597": 16,
        "598": 11,
        "599": 121,
        "600": 125,
        "601": 196,
        "602": 181,
        "603": 5,
        "604": 9,
        "605": 172,
        "606": 170,
        "607": 83,
        "608": 195,
        "609": 145,
        "610": 209,
        "611": 234,
        "612": 187,
        "613": 23,
        "614": 70,
        "615": 45,
        "616": 1,
        "617": 144,
        "618": 172,
        "619": 114,
        "620": 112,
        "621": 72,
        "622": 141,
        "623": 6,
        "624": 189,
        "625": 72,
        "626": 251,
        "627": 112,
        "628": 123,
        "629": 164,
        "630": 57,
        "631": 221,
        "632": 7,
        "633": 91,
        "634": 112,
        "635": 67,
        "636": 84,
        "637": 132,
        "638": 211,
        "639": 88,
        "640": 213,
        "641": 183,
        "642": 193,
        "643": 41,
        "644": 58,
        "645": 72,
        "646": 172,
        "647": 177,
        "648": 62,
        "649": 187,
        "650": 122,
        "651": 197,
        "652": 163,
        "653": 219,
        "654": 221,
        "655": 240,
        "656": 232,
        "657": 195,
        "658": 204,
        "659": 184,
        "660": 207,
        "661": 122,
        "662": 51,
        "663": 223,
        "664": 149,
        "665": 150,
        "666": 33,
        "667": 19,
        "668": 53,
        "669": 53,
        "670": 53,
        "671": 72,
        "672": 20,
        "673": 74,
        "674": 120,
        "675": 214,
        "676": 165,
        "677": 57,
        "678": 252,
        "679": 17,
        "680": 55,
        "681": 38,
        "682": 247,
        "683": 20,
        "684": 230,
        "685": 46,
        "686": 165,
        "687": 238,
        "688": 39,
        "689": 51,
        "690": 48,
        "691": 45,
        "692": 139,
        "693": 85,
        "694": 33,
        "695": 167,
        "696": 22,
        "697": 243,
        "698": 115,
        "699": 85,
        "700": 158,
        "701": 238,
        "702": 64,
        "703": 19,
        "704": 64,
        "705": 96,
        "706": 12,
        "707": 227,
        "708": 11,
        "709": 45,
        "710": 130,
        "711": 35,
        "712": 179,
        "713": 185,
        "714": 237,
        "715": 113,
        "716": 223,
        "717": 65,
        "718": 116,
        "719": 82,
        "720": 42,
        "721": 255,
        "722": 183,
        "723": 160,
        "724": 127,
        "725": 189,
        "726": 1,
        "727": 195,
        "728": 107,
        "729": 36,
        "730": 225,
        "731": 244,
        "732": 127,
        "733": 184,
        "734": 13,
        "735": 52,
        "736": 68,
        "737": 170,
        "738": 7,
        "739": 223,
        "740": 202,
        "741": 250,
        "742": 59,
        "743": 48,
        "744": 56,
        "745": 254,
        "746": 221,
        "747": 168,
        "748": 50,
        "749": 186,
        "750": 76,
        "751": 51,
        "752": 58,
        "753": 108,
        "754": 219,
        "755": 10,
        "756": 240,
        "757": 66,
        "758": 183,
        "759": 4,
        "760": 78,
        "761": 79,
        "762": 57,
        "763": 24,
        "764": 159,
        "765": 237,
        "766": 255,
        "767": 60,
        "768": 222,
        "769": 232,
        "770": 84,
        "771": 102,
        "772": 224,
        "773": 255,
        "774": 22,
        "775": 181,
        "776": 138,
        "777": 221,
        "778": 147,
        "779": 180,
        "780": 200,
        "781": 90,
        "782": 60,
        "783": 1,
        "784": 27,
        "785": 237,
        "786": 234,
        "787": 103,
        "788": 223,
        "789": 139,
        "790": 86,
        "791": 179,
        "792": 80,
        "793": 58,
        "794": 15,
        "795": 165,
        "796": 89,
        "797": 249,
        "798": 17,
        "799": 186,
        "800": 79,
        "801": 2,
        "802": 21,
        "803": 170,
        "804": 219,
        "805": 129,
        "806": 178,
        "807": 167,
        "808": 122,
        "809": 222,
        "810": 13,
        "811": 79,
        "812": 228,
        "813": 141,
        "814": 10,
        "815": 133,
        "816": 181,
        "817": 200,
        "818": 119,
        "819": 172,
        "820": 159,
        "821": 128,
        "822": 97,
        "823": 103,
        "824": 252,
        "825": 32,
        "826": 209,
        "827": 168,
        "828": 40,
        "829": 144,
        "830": 241,
        "831": 145,
        "832": 2,
        "833": 116,
        "834": 250,
        "835": 97,
        "836": 136,
        "837": 247,
        "838": 191,
        "839": 241,
        "840": 74,
        "841": 1,
        "842": 100,
        "843": 201,
        "844": 232,
        "845": 215,
        "846": 217,
        "847": 204,
        "848": 47,
        "849": 7,
        "850": 140,
        "851": 10,
        "852": 151,
        "853": 114,
        "854": 75,
        "855": 237,
        "856": 56,
        "857": 146,
        "858": 31,
        "859": 72,
        "860": 145,
        "861": 34,
        "862": 206,
        "863": 1,
        "864": 248,
        "865": 196,
        "866": 100,
        "867": 8,
        "868": 26,
        "869": 84,
        "870": 255,
        "871": 117,
        "872": 157,
        "873": 180,
        "874": 101,
        "875": 38,
        "876": 49,
        "877": 56,
        "878": 203,
        "879": 199,
        "880": 164,
        "881": 92,
        "882": 172,
        "883": 253,
        "884": 38,
        "885": 33,
        "886": 97,
        "887": 121,
        "888": 102,
        "889": 222,
        "890": 22,
        "891": 83,
        "892": 159,
        "893": 115,
        "894": 154,
        "895": 11,
        "896": 38,
        "897": 14,
        "898": 128,
        "899": 253,
        "900": 42,
        "901": 102,
        "902": 20,
        "903": 47,
        "904": 235,
        "905": 36,
        "906": 98,
        "907": 151,
        "908": 244,
        "909": 190,
        "910": 77,
        "911": 38,
        "912": 27,
        "913": 124,
        "914": 191,
        "915": 149,
        "916": 27,
        "917": 68,
        "918": 249,
        "919": 5,
        "920": 71,
        "921": 21,
        "922": 80,
        "923": 173,
        "924": 190,
        "925": 91,
        "926": 50,
        "927": 118,
        "928": 209,
        "929": 197,
        "930": 252,
        "931": 170,
        "932": 97,
        "933": 84,
        "934": 28,
        "935": 48,
        "936": 99,
        "937": 141,
        "938": 108,
        "939": 32,
        "940": 251,
        "941": 81,
        "942": 93,
        "943": 105,
        "944": 24,
        "945": 56,
        "946": 230,
        "947": 116,
        "948": 179,
        "949": 173,
        "950": 111,
        "951": 63,
        "952": 199,
        "953": 194,
        "954": 187,
        "955": 29,
        "956": 192,
        "957": 51,
        "958": 210,
        "959": 177,
        "960": 93,
        "961": 69,
        "962": 224,
        "963": 8,
        "964": 235,
        "965": 22,
        "966": 248,
        "967": 54,
        "968": 191,
        "969": 66,
        "970": 178,
        "971": 15,
        "972": 219,
        "973": 23,
        "974": 116,
        "975": 211,
        "976": 155,
        "977": 36,
        "978": 246,
        "979": 110,
        "980": 193,
        "981": 107,
        "982": 84,
        "983": 114,
        "984": 138,
        "985": 140,
        "986": 24,
        "987": 116,
        "988": 165,
        "989": 213,
        "990": 231,
        "991": 132,
        "992": 71,
        "993": 129,
        "994": 13,
        "995": 86,
        "996": 158,
        "997": 186,
        "998": 190,
        "999": 18,
        "1000": 73,
        "1001": 164,
        "1002": 56,
        "1003": 127,
        "1004": 110,
        "1005": 207,
        "1006": 149,
        "1007": 121,
        "1008": 152,
        "1009": 231,
        "1010": 195,
        "1011": 243,
        "1012": 117,
        "1013": 156,
        "1014": 79,
        "1015": 211,
        "1016": 34,
        "1017": 236,
        "1018": 110,
        "1019": 249,
        "1020": 155,
        "1021": 110,
        "1022": 174,
        "1023": 26,
        "1024": 136,
        "1025": 240,
        "1026": 210,
        "1027": 235,
        "1028": 48,
        "1029": 89,
        "1030": 198,
        "1031": 255,
        "1032": 139,
        "1033": 243,
        "1034": 63,
        "1035": 31,
        "1036": 130,
        "1037": 50,
        "1038": 150,
        "1039": 20,
        "1040": 22,
        "1041": 54,
        "1042": 109,
        "1043": 241,
        "1044": 150,
        "1045": 215,
        "1046": 238,
        "1047": 54,
        "1048": 216,
        "1049": 246,
        "1050": 119,
        "1051": 158,
        "1052": 82,
        "1053": 58,
        "1054": 157,
        "1055": 238,
        "1056": 181,
        "1057": 8,
        "1058": 243,
        "1059": 39,
        "1060": 153,
        "1061": 179,
        "1062": 128,
        "1063": 49,
        "1064": 79,
        "1065": 119,
        "1066": 237,
        "1067": 141,
        "1068": 248,
        "1069": 138,
        "1070": 182,
        "1071": 27,
        "1072": 142,
        "1073": 32,
        "1074": 237,
        "1075": 128,
        "1076": 2,
        "1077": 213,
        "1078": 199,
        "1079": 2,
        "1080": 123,
        "1081": 4,
        "1082": 79,
        "1083": 233,
        "1084": 39,
        "1085": 154,
        "1086": 165,
        "1087": 50,
        "1088": 118,
        "1089": 189,
        "1090": 88,
        "1091": 204,
        "1092": 122,
        "1093": 86,
        "1094": 26,
        "1095": 167,
        "1096": 188,
        "1097": 19,
        "1098": 89,
        "1099": 253,
        "1100": 46,
        "1101": 199,
        "1102": 219,
        "1103": 156,
        "1104": 208,
        "1105": 20,
        "1106": 70,
        "1107": 177,
        "1108": 19,
        "1109": 201,
        "1110": 206,
        "1111": 222,
        "1112": 52,
        "1113": 22,
        "1114": 167,
        "1115": 250,
        "1116": 86,
        "1117": 173,
        "1118": 173,
        "1119": 35,
        "1120": 205,
        "1121": 226,
        "1122": 141,
        "1123": 93,
        "1124": 254,
        "1125": 36,
        "1126": 34,
        "1127": 175,
        "1128": 123,
        "1129": 207,
        "1130": 8,
        "1131": 154,
        "1132": 155,
        "1133": 4,
        "1134": 248,
        "1135": 80,
        "1136": 235,
        "1137": 42,
        "1138": 113,
        "1139": 49,
        "1140": 134,
        "1141": 71,
        "1142": 165,
        "1143": 61,
        "1144": 136,
        "1145": 84,
        "1146": 39,
        "1147": 247,
        "1148": 142,
        "1149": 65,
        "1150": 14,
        "1151": 70,
        "1152": 126,
        "1153": 70,
        "1154": 241,
        "1155": 158,
        "1156": 151,
        "1157": 96,
        "1158": 189,
        "1159": 44,
        "1160": 26,
        "1161": 174,
        "1162": 198,
        "1163": 156,
        "1164": 21,
        "1165": 162,
        "1166": 193,
        "1167": 125,
        "1168": 244,
        "1169": 98,
        "1170": 26,
        "1171": 104,
        "1172": 29,
        "1173": 30,
        "1174": 146,
        "1175": 72,
        "1176": 196,
        "1177": 164,
        "1178": 23,
        "1179": 188,
        "1180": 48,
        "1181": 42,
        "1182": 123,
        "1183": 102,
        "1184": 236,
        "1185": 159,
        "1186": 168,
        "1187": 128,
        "1188": 130,
        "1189": 119,
        "1190": 109,
        "1191": 234,
        "1192": 43,
        "1193": 191,
        "1194": 216,
        "1195": 229,
        "1196": 41,
        "1197": 185,
        "1198": 216,
        "1199": 212,
        "1200": 145,
        "1201": 224,
        "1202": 108,
        "1203": 210,
        "1204": 95,
        "1205": 42,
        "1206": 118,
        "1207": 48,
        "1208": 157,
        "1209": 10,
        "1210": 109,
        "1211": 66,
        "1212": 161,
        "1213": 239,
        "1214": 42,
        "1215": 178,
        "1216": 178,
        "1217": 141,
        "1218": 104,
        "1219": 187,
        "1220": 248,
        "1221": 14,
        "1222": 39,
        "1223": 161,
        "1224": 48,
        "1225": 46,
        "1226": 62,
        "1227": 72,
        "1228": 83,
        "1229": 88,
        "1230": 53,
        "1231": 107,
        "1232": 230,
        "1233": 83,
        "1234": 52,
        "1235": 26,
        "1236": 9,
        "1237": 178,
        "1238": 24,
        "1239": 246,
        "1240": 192,
        "1241": 118,
        "1242": 203,
        "1243": 119,
        "1244": 74,
        "1245": 27,
        "1246": 34,
        "1247": 141,
        "1248": 243,
        "1249": 162,
        "1250": 253,
        "1251": 4,
        "1252": 120,
        "1253": 105,
        "1254": 189,
        "1255": 159,
        "1256": 174,
        "1257": 163,
        "1258": 36,
        "1259": 190,
        "1260": 209,
        "1261": 197,
        "1262": 70,
        "1263": 178,
        "1264": 236,
        "1265": 91,
        "1266": 17,
        "1267": 139,
        "1268": 193,
        "1269": 44,
        "1270": 57,
        "1271": 164,
        "1272": 228,
        "1273": 175,
        "1274": 10,
        "1275": 132,
        "1276": 168,
        "1277": 45,
        "1278": 99,
        "1279": 246,
        "1280": 108,
        "1281": 140,
        "1282": 60,
        "1283": 90,
        "1284": 84,
        "1285": 69,
        "1286": 23,
        "1287": 177,
        "1288": 15,
        "1289": 28,
        "1290": 227,
        "1291": 61,
        "1292": 171,
        "1293": 125,
        "1294": 162,
        "1295": 249,
        "1296": 0,
        "1297": 139,
        "1298": 227,
        "1299": 227,
        "1300": 17,
        "1301": 33,
        "1302": 177,
        "1303": 134,
        "1304": 87,
        "1305": 6,
        "1306": 62,
        "1307": 18,
        "1308": 52,
        "1309": 57,
        "1310": 12,
        "1311": 220,
        "1312": 150,
        "1313": 146,
        "1314": 162,
        "1315": 156,
        "1316": 173,
        "1317": 152,
        "1318": 187,
        "1319": 27,
        "1320": 17,
        "1321": 218,
        "1322": 189,
        "1323": 174,
        "1324": 85,
        "1325": 166,
        "1326": 161,
        "1327": 169,
        "1328": 250,
        "1329": 224,
        "1330": 43,
        "1331": 16,
        "1332": 83,
        "1333": 43,
        "1334": 9,
        "1335": 70,
        "1336": 183,
        "1337": 171,
        "1338": 72,
        "1339": 254,
        "1340": 58,
        "1341": 93,
        "1342": 60,
        "1343": 49,
        "1344": 46,
        "1345": 6,
        "1346": 157,
        "1347": 55,
        "1348": 11,
        "1349": 222,
        "1350": 45,
        "1351": 5,
        "1352": 50,
        "1353": 89,
        "1354": 125,
        "1355": 16,
        "1356": 6,
        "1357": 72,
        "1358": 21,
        "1359": 72,
        "1360": 159,
        "1361": 39,
        "1362": 192,
        "1363": 37,
        "1364": 48,
        "1365": 0,
        "1366": 251,
        "1367": 253,
        "1368": 112,
        "1369": 128,
        "1370": 69,
        "1371": 172,
        "1372": 117,
        "1373": 40,
        "1374": 135,
        "1375": 136,
        "1376": 108,
        "1377": 67,
        "1378": 25,
        "1379": 197,
        "1380": 249,
        "1381": 25,
        "1382": 79,
        "1383": 121,
        "1384": 91,
        "1385": 238,
        "1386": 185,
        "1387": 13,
        "1388": 173,
        "1389": 93,
        "1390": 92,
        "1391": 227,
        "1392": 16,
        "1393": 71,
        "1394": 89,
        "1395": 104,
        "1396": 11,
        "1397": 208,
        "1398": 242,
        "1399": 107,
        "1400": 111,
        "1401": 239,
        "1402": 102,
        "1403": 47,
        "1404": 172,
        "1405": 130,
        "1406": 84,
        "1407": 184,
        "1408": 50,
        "1409": 131,
        "1410": 202,
        "1411": 205,
        "1412": 96,
        "1413": 218,
        "1414": 173,
        "1415": 66,
        "1416": 21,
        "1417": 201,
        "1418": 32,
        "1419": 219,
        "1420": 101,
        "1421": 148,
        "1422": 172,
        "1423": 213,
        "1424": 129,
        "1425": 133,
        "1426": 18,
        "1427": 13,
        "1428": 166,
        "1429": 2,
        "1430": 28,
        "1431": 6,
        "1432": 17,
        "1433": 139,
        "1434": 219,
        "1435": 201,
        "1436": 189,
        "1437": 208,
        "1438": 245,
        "1439": 83,
        "1440": 36,
        "1441": 196,
        "1442": 153,
        "1443": 86,
        "1444": 27,
        "1445": 223,
        "1446": 182,
        "1447": 102,
        "1448": 179,
        "1449": 101,
        "1450": 240,
        "1451": 105,
        "1452": 66,
        "1453": 198,
        "1454": 66,
        "1455": 237,
        "1456": 157,
        "1457": 42,
        "1458": 23,
        "1459": 132,
        "1460": 33,
        "1461": 151,
        "1462": 31,
        "1463": 140,
        "1464": 157,
        "1465": 18,
        "1466": 187,
        "1467": 212,
        "1468": 43,
        "1469": 228,
        "1470": 181,
        "1471": 195,
        "1472": 186,
        "1473": 73,
        "1474": 51,
        "1475": 173,
        "1476": 51,
        "1477": 186,
        "1478": 50,
        "1479": 197,
        "1480": 86,
        "1481": 133,
        "1482": 30,
        "1483": 208,
        "1484": 93,
        "1485": 195,
        "1486": 246,
        "1487": 242,
        "1488": 244,
        "1489": 217,
        "1490": 102,
        "1491": 225,
        "1492": 251,
        "1493": 250,
        "1494": 254,
        "1495": 144,
        "1496": 123,
        "1497": 95,
        "1498": 223,
        "1499": 9,
        "1500": 163,
        "1501": 231,
        "1502": 223,
        "1503": 116,
        "1504": 200,
        "1505": 228,
        "1506": 187,
        "1507": 220,
        "1508": 205,
        "1509": 242,
        "1510": 36,
        "1511": 89,
        "1512": 243,
        "1513": 100,
        "1514": 72,
        "1515": 205,
        "1516": 135,
        "1517": 95,
        "1518": 184,
        "1519": 46,
        "1520": 155,
        "1521": 252,
        "1522": 234,
        "1523": 66,
        "1524": 154,
        "1525": 111,
        "1526": 69,
        "1527": 215,
        "1528": 131,
        "1529": 90,
        "1530": 253,
        "1531": 177,
        "1532": 151,
        "1533": 59,
        "1534": 150,
        "1535": 124,
        "1536": 177,
        "1537": 42,
        "1538": 72,
        "1539": 63,
        "1540": 177,
        "1541": 147,
        "1542": 245,
        "1543": 62,
        "1544": 164,
        "1545": 234,
        "1546": 120,
        "1547": 95,
        "1548": 63,
        "1549": 231,
        "1550": 162,
        "1551": 107,
        "1552": 101,
        "1553": 80,
        "1554": 75,
        "1555": 174,
        "1556": 188,
        "1557": 81,
        "1558": 88,
        "1559": 183,
        "1560": 126,
        "1561": 101,
        "1562": 180,
        "1563": 219,
        "1564": 229,
        "1565": 208,
        "1566": 76,
        "1567": 75,
        "1568": 15,
        "1569": 155,
        "1570": 41,
        "1571": 71,
        "1572": 157,
        "1573": 160,
        "1574": 71,
        "1575": 159,
        "1576": 3,
        "1577": 85,
        "1578": 140,
        "1579": 25,
        "1580": 61,
        "1581": 153,
        "1582": 19,
        "1583": 140,
        "1584": 251,
        "1585": 65,
        "1586": 146,
        "1587": 213,
        "1588": 82,
        "1589": 94,
        "1590": 9,
        "1591": 200,
        "1592": 243,
        "1593": 246,
        "1594": 50,
        "1595": 140,
        "1596": 28,
        "1597": 235,
        "1598": 26,
        "1599": 89,
        "1600": 20,
        "1601": 224,
        "1602": 53,
        "1603": 242,
        "1604": 146,
        "1605": 14,
        "1606": 11,
        "1607": 113,
        "1608": 14,
        "1609": 219,
        "1610": 86,
        "1611": 204,
        "1612": 252,
        "1613": 253,
        "1614": 243,
        "1615": 9,
        "1616": 236,
        "1617": 54,
        "1618": 123,
        "1619": 50,
        "1620": 7,
        "1621": 71,
        "1622": 67,
        "1623": 2,
        "1624": 243,
        "1625": 152,
        "1626": 85,
        "1627": 255,
        "1628": 24,
        "1629": 138,
        "1630": 149,
        "1631": 47,
        "1632": 149,
        "1633": 94,
        "1634": 17,
        "1635": 70,
        "1636": 123,
        "1637": 113,
        "1638": 39,
        "1639": 103,
        "1640": 222,
        "1641": 48,
        "1642": 177,
        "1643": 175,
        "1644": 246,
        "1645": 158,
        "1646": 58,
        "1647": 78,
        "1648": 61,
        "1649": 211,
        "1650": 110,
        "1651": 196,
        "1652": 137,
        "1653": 74,
        "1654": 167,
        "1655": 9,
        "1656": 89,
        "1657": 58,
        "1658": 85,
        "1659": 8,
        "1660": 9,
        "1661": 76,
        "1662": 11,
        "1663": 120,
        "1664": 168,
        "1665": 253,
        "1666": 32,
        "1667": 88,
        "1668": 145,
        "1669": 231,
        "1670": 78,
        "1671": 197,
        "1672": 186,
        "1673": 172,
        "1674": 182,
        "1675": 72,
        "1676": 64,
        "1677": 35,
        "1678": 85,
        "1679": 90,
        "1680": 50,
        "1681": 165,
        "1682": 178,
        "1683": 147,
        "1684": 172,
        "1685": 43,
        "1686": 41,
        "1687": 247,
        "1688": 194,
        "1689": 32,
        "1690": 142,
        "1691": 138,
        "1692": 133,
        "1693": 46,
        "1694": 86,
        "1695": 63,
        "1696": 195,
        "1697": 232,
        "1698": 7,
        "1699": 15,
        "1700": 114,
        "1701": 67,
        "1702": 187,
        "1703": 233,
        "1704": 204,
        "1705": 90,
        "1706": 188,
        "1707": 242,
        "1708": 35,
        "1709": 183,
        "1710": 85,
        "1711": 16,
        "1712": 214,
        "1713": 143,
        "1714": 101,
        "1715": 139,
        "1716": 159,
        "1717": 74,
        "1718": 130,
        "1719": 97,
        "1720": 227,
        "1721": 145,
        "1722": 30,
        "1723": 209,
        "1724": 207,
        "1725": 137,
        "1726": 149,
        "1727": 125,
        "1728": 194,
        "1729": 225,
        "1730": 65,
        "1731": 253,
        "1732": 102,
        "1733": 8,
        "1734": 158,
        "1735": 147,
        "1736": 103,
        "1737": 115,
        "1738": 179,
        "1739": 102,
        "1740": 75,
        "1741": 36,
        "1742": 112,
        "1743": 133,
        "1744": 69,
        "1745": 81,
        "1746": 3,
        "1747": 119,
        "1748": 107,
        "1749": 245,
        "1750": 171,
        "1751": 142,
        "1752": 57,
        "1753": 187,
        "1754": 134,
        "1755": 124,
        "1756": 37,
        "1757": 255,
        "1758": 223,
        "1759": 141,
        "1760": 86,
        "1761": 230,
        "1762": 104,
        "1763": 183,
        "1764": 165,
        "1765": 61,
        "1766": 105,
        "1767": 190,
        "1768": 249,
        "1769": 88,
        "1770": 36,
        "1771": 184,
        "1772": 102,
        "1773": 160,
        "1774": 124,
        "1775": 23,
        "1776": 73,
        "1777": 217,
        "1778": 66,
        "1779": 188,
        "1780": 118,
        "1781": 100,
        "1782": 196,
        "1783": 98,
        "1784": 17,
        "1785": 28,
        "1786": 30,
        "1787": 171,
        "1788": 212,
        "1789": 3,
        "1790": 94,
        "1791": 160,
        "1792": 97,
        "1793": 200,
        "1794": 118,
        "1795": 62,
        "1796": 139,
        "1797": 226,
        "1798": 96,
        "1799": 44,
        "1800": 241,
        "1801": 23,
        "1802": 238,
        "1803": 97,
        "1804": 155,
        "1805": 4,
        "1806": 128,
        "1807": 167,
        "1808": 154,
        "1809": 116,
        "1810": 89,
        "1811": 32,
        "1812": 132,
        "1813": 3,
        "1814": 173,
        "1815": 126,
        "1816": 201,
        "1817": 118,
        "1818": 207,
        "1819": 204,
        "1820": 51,
        "1821": 167,
        "1822": 145,
        "1823": 209,
        "1824": 89,
        "1825": 168,
        "1826": 178,
        "1827": 28,
        "1828": 10,
        "1829": 232,
        "1830": 148,
        "1831": 159,
        "1832": 166,
        "1833": 251,
        "1834": 30,
        "1835": 106,
        "1836": 215,
        "1837": 203,
        "1838": 75,
        "1839": 162,
        "1840": 212,
        "1841": 89,
        "1842": 72,
        "1843": 228,
        "1844": 90,
        "1845": 184,
        "1846": 187,
        "1847": 233,
        "1848": 198,
        "1849": 0,
        "1850": 191,
        "1851": 71,
        "1852": 135,
        "1853": 144,
        "1854": 154,
        "1855": 38,
        "1856": 10,
        "1857": 4,
        "1858": 47,
        "1859": 35,
        "1860": 0,
        "1861": 233,
        "1862": 87,
        "1863": 56,
        "1864": 131,
        "1865": 181,
        "1866": 243,
        "1867": 172,
        "1868": 34,
        "1869": 152,
        "1870": 27,
        "1871": 223,
        "1872": 109,
        "1873": 54,
        "1874": 90,
        "1875": 210,
        "1876": 67,
        "1877": 84,
        "1878": 175,
        "1879": 236,
        "1880": 83,
        "1881": 182,
        "1882": 237,
        "1883": 72,
        "1884": 58,
        "1885": 129,
        "1886": 60,
        "1887": 36,
        "1888": 197,
        "1889": 129,
        "1890": 4,
        "1891": 10,
        "1892": 254,
        "1893": 80,
        "1894": 29,
        "1895": 127,
        "1896": 76,
        "1897": 245,
        "1898": 158,
        "1899": 181,
        "1900": 177,
        "1901": 9,
        "1902": 46,
        "1903": 182,
        "1904": 66,
        "1905": 13,
        "1906": 123,
        "1907": 51,
        "1908": 125,
        "1909": 111,
        "1910": 89,
        "1911": 21,
        "1912": 44,
        "1913": 132,
        "1914": 90,
        "1915": 169,
        "1916": 108,
        "1917": 206,
        "1918": 252,
        "1919": 9,
        "1920": 55,
        "1921": 234,
        "1922": 167,
        "1923": 166,
        "1924": 191,
        "1925": 5,
        "1926": 78,
        "1927": 129,
        "1928": 206,
        "1929": 170,
        "1930": 218,
        "1931": 100,
        "1932": 95,
        "1933": 36,
        "1934": 110,
        "1935": 225,
        "1936": 188,
        "1937": 114,
        "1938": 66,
        "1939": 120,
        "1940": 187,
        "1941": 99,
        "1942": 223,
        "1943": 180,
        "1944": 82,
        "1945": 156,
        "1946": 209,
        "1947": 13,
        "1948": 29,
        "1949": 104,
        "1950": 9,
        "1951": 41,
        "1952": 207,
        "1953": 247,
        "1954": 19,
        "1955": 106,
        "1956": 83,
        "1957": 31,
        "1958": 92,
        "1959": 32,
        "1960": 106,
        "1961": 77,
        "1962": 158,
        "1963": 95,
        "1964": 117,
        "1965": 23,
        "1966": 72,
        "1967": 66,
        "1968": 48,
        "1969": 73,
        "1970": 118,
        "1971": 189,
        "1972": 78,
        "1973": 194,
        "1974": 192,
        "1975": 243,
        "1976": 66,
        "1977": 121,
        "1978": 184,
        "1979": 219,
        "1980": 116,
        "1981": 248,
        "1982": 102,
        "1983": 139,
        "1984": 99,
        "1985": 171,
        "1986": 246,
        "1987": 217,
        "1988": 38,
        "1989": 13,
        "1990": 37,
        "1991": 186,
        "1992": 245,
        "1993": 188,
        "1994": 206,
        "1995": 244,
        "1996": 75,
        "1997": 235,
        "1998": 116,
        "1999": 62,
        "2000": 215,
        "2001": 249,
        "2002": 7,
        "2003": 131,
        "2004": 229,
        "2005": 21,
        "2006": 35,
        "2007": 217,
        "2008": 89,
        "2009": 183,
        "2010": 216,
        "2011": 156,
        "2012": 141,
        "2013": 0,
        "2014": 235,
        "2015": 231,
        "2016": 246,
        "2017": 246,
        "2018": 117,
        "2019": 29,
        "2020": 185,
        "2021": 173,
        "2022": 210,
        "2023": 68,
        "2024": 164,
        "2025": 103,
        "2026": 129,
        "2027": 11,
        "2028": 74,
        "2029": 143,
        "2030": 32,
        "2031": 184,
        "2032": 119,
        "2033": 249,
        "2034": 133,
        "2035": 8,
        "2036": 175,
        "2037": 239,
        "2038": 69,
        "2039": 32,
        "2040": 36,
        "2041": 223,
        "2042": 165,
        "2043": 7,
        "2044": 82,
        "2045": 43,
        "2046": 59,
        "2047": 121,
        "2048": 96,
        "2049": 109,
        "2050": 143,
        "2051": 247,
        "2052": 4,
        "2053": 239,
        "2054": 4,
        "2055": 57,
        "2056": 72,
        "2057": 31,
        "2058": 56,
        "2059": 188,
        "2060": 115,
        "2061": 141,
        "2062": 233,
        "2063": 43,
        "2064": 113,
        "2065": 199,
        "2066": 238,
        "2067": 36,
        "2068": 11,
        "2069": 83,
        "2070": 210,
        "2071": 80,
        "2072": 93,
        "2073": 168,
        "2074": 106,
        "2075": 210,
        "2076": 189,
        "2077": 131,
        "2078": 19,
        "2079": 111,
        "2080": 20,
        "2081": 115,
        "2082": 45,
        "2083": 74,
        "2084": 85,
        "2085": 63,
        "2086": 196,
        "2087": 40,
        "2088": 129,
        "2089": 227,
        "2090": 230,
        "2091": 41,
        "2092": 202,
        "2093": 120,
        "2094": 60,
        "2095": 2,
        "2096": 79,
        "2097": 40,
        "2098": 22,
        "2099": 111,
        "2100": 251,
        "2101": 56,
        "2102": 224,
        "2103": 153,
        "2104": 64,
        "2105": 95,
        "2106": 150,
        "2107": 67,
        "2108": 4,
        "2109": 32,
        "2110": 230,
        "2111": 163,
        "2112": 195,
        "2113": 161,
        "2114": 117,
        "2115": 120,
        "2116": 8,
        "2117": 239,
        "2118": 217,
        "2119": 179,
        "2120": 159,
        "2121": 124,
        "2122": 207,
        "2123": 23,
        "2124": 218,
        "2125": 43,
        "2126": 126,
        "2127": 41,
        "2128": 103,
        "2129": 130,
        "2130": 222,
        "2131": 185,
        "2132": 187,
        "2133": 27,
        "2134": 45,
        "2135": 106,
        "2136": 133,
        "2137": 6,
        "2138": 34,
        "2139": 62,
        "2140": 35,
        "2141": 211,
        "2142": 19,
        "2143": 191,
        "2144": 118,
        "2145": 157,
        "2146": 183,
        "2147": 52,
        "2148": 27,
        "2149": 69,
        "2150": 164,
        "2151": 19,
        "2152": 210,
        "2153": 239,
        "2154": 172,
        "2155": 165,
        "2156": 108,
        "2157": 201,
        "2158": 196,
        "2159": 87,
        "2160": 13,
        "2161": 251,
        "2162": 173,
        "2163": 104,
        "2164": 100,
        "2165": 5,
        "2166": 130,
        "2167": 152,
        "2168": 102,
        "2169": 207,
        "2170": 98,
        "2171": 113,
        "2172": 82,
        "2173": 146,
        "2174": 192,
        "2175": 29,
        "2176": 33,
        "2177": 105,
        "2178": 159,
        "2179": 95,
        "2180": 109,
        "2181": 148,
        "2182": 75,
        "2183": 134,
        "2184": 37,
        "2185": 37,
        "2186": 164,
        "2187": 133,
        "2188": 139,
        "2189": 42,
        "2190": 160,
        "2191": 145,
        "2192": 52,
        "2193": 126,
        "2194": 174,
        "2195": 68,
        "2196": 188,
        "2197": 255,
        "2198": 147,
        "2199": 117,
        "2200": 31,
        "2201": 157,
        "2202": 8,
        "2203": 60,
        "2204": 139,
        "2205": 34,
        "2206": 58,
        "2207": 250,
        "2208": 206,
        "2209": 156,
        "2210": 144,
        "2211": 163,
        "2212": 88,
        "2213": 187,
        "2214": 180,
        "2215": 122,
        "2216": 150,
        "2217": 13,
        "2218": 120,
        "2219": 217,
        "2220": 243,
        "2221": 97,
        "2222": 111,
        "2223": 141,
        "2224": 144,
        "2225": 147,
        "2226": 208,
        "2227": 65,
        "2228": 147,
        "2229": 190,
        "2230": 36,
        "2231": 158,
        "2232": 204,
        "2233": 53,
        "2234": 23,
        "2235": 30,
        "2236": 139,
        "2237": 55,
        "2238": 199,
        "2239": 231,
        "2240": 138,
        "2241": 230,
        "2242": 92,
        "2243": 197,
        "2244": 115,
        "2245": 55,
        "2246": 170,
        "2247": 229,
        "2248": 23,
        "2249": 255,
        "2250": 185,
        "2251": 184,
        "2252": 112,
        "2253": 142,
        "2254": 152,
        "2255": 131,
        "2256": 0,
        "2257": 98,
        "2258": 22,
        "2259": 153,
        "2260": 164,
        "2261": 172,
        "2262": 118,
        "2263": 156,
        "2264": 218,
        "2265": 185,
        "2266": 121,
        "2267": 87,
        "2268": 159,
        "2269": 90,
        "2270": 218,
        "2271": 235,
        "2272": 127,
        "2273": 58,
        "2274": 4,
        "2275": 173,
        "2276": 56,
        "2277": 182,
        "2278": 113,
        "2279": 132,
        "2280": 207,
        "2281": 225,
        "2282": 92,
        "2283": 76,
        "2284": 131,
        "2285": 125,
        "2286": 101,
        "2287": 190,
        "2288": 128,
        "2289": 110,
        "2290": 200,
        "2291": 21,
        "2292": 45,
        "2293": 249,
        "2294": 219,
        "2295": 251,
        "2296": 55,
        "2297": 208,
        "2298": 16,
        "2299": 79,
        "2300": 110,
        "2301": 159,
        "2302": 30,
        "2303": 213,
        "2304": 188,
        "2305": 183,
        "2306": 213,
        "2307": 225,
        "2308": 206,
        "2309": 177,
        "2310": 66,
        "2311": 223,
        "2312": 146,
        "2313": 175,
        "2314": 117,
        "2315": 49,
        "2316": 87,
        "2317": 28,
        "2318": 228,
        "2319": 210,
        "2320": 138,
        "2321": 142,
        "2322": 163,
        "2323": 13,
        "2324": 83,
        "2325": 84,
        "2326": 84,
        "2327": 45,
        "2328": 214,
        "2329": 31,
        "2330": 11,
        "2331": 52,
        "2332": 104,
        "2333": 69,
        "2334": 242,
        "2335": 31,
        "2336": 88,
        "2337": 217,
        "2338": 79,
        "2339": 158,
        "2340": 0,
        "2341": 234,
        "2342": 162,
        "2343": 143,
        "2344": 239,
        "2345": 152,
        "2346": 4,
        "2347": 115,
        "2348": 228,
        "2349": 161,
        "2350": 145,
        "2351": 65,
        "2352": 0,
        "2353": 191,
        "2354": 110,
        "2355": 24,
        "2356": 70,
        "2357": 224,
        "2358": 64,
        "2359": 33,
        "2360": 40,
        "2361": 191,
        "2362": 226,
        "2363": 105,
        "2364": 226,
        "2365": 32,
        "2366": 226,
        "2367": 78,
        "2368": 201,
        "2369": 67,
        "2370": 214,
        "2371": 200,
        "2372": 152,
        "2373": 119,
        "2374": 128,
        "2375": 227,
        "2376": 254,
        "2377": 19,
        "2378": 157,
        "2379": 92,
        "2380": 60,
        "2381": 36,
        "2382": 87,
        "2383": 123,
        "2384": 5,
        "2385": 24,
        "2386": 75,
        "2387": 10,
        "2388": 96,
        "2389": 187,
        "2390": 154,
        "2391": 185,
        "2392": 186,
        "2393": 47,
        "2394": 161,
        "2395": 29,
        "2396": 108,
        "2397": 221,
        "2398": 74,
        "2399": 243,
        "2400": 251,
        "2401": 117,
        "2402": 47,
        "2403": 106,
        "2404": 111,
        "2405": 133,
        "2406": 216,
        "2407": 96,
        "2408": 88,
        "2409": 196,
        "2410": 154,
        "2411": 96,
        "2412": 45,
        "2413": 237,
        "2414": 251,
        "2415": 96,
        "2416": 181,
        "2417": 24,
        "2418": 25,
        "2419": 208,
        "2420": 100,
        "2421": 119,
        "2422": 183,
        "2423": 24,
        "2424": 151,
        "2425": 245,
        "2426": 103,
        "2427": 104,
        "2428": 0,
        "2429": 197,
        "2430": 117,
        "2431": 57,
        "2432": 69,
        "2433": 192,
        "2434": 126,
        "2435": 214,
        "2436": 66,
        "2437": 0,
        "2438": 96,
        "2439": 106,
        "2440": 115,
        "2441": 67,
        "2442": 255,
        "2443": 168,
        "2444": 195,
        "2445": 178,
        "2446": 35,
        "2447": 79,
        "2448": 10,
        "2449": 181,
        "2450": 149,
        "2451": 127,
        "2452": 33,
        "2453": 35,
        "2454": 154,
        "2455": 108,
        "2456": 27,
        "2457": 163,
        "2458": 3,
        "2459": 248,
        "2460": 56,
        "2461": 221,
        "2462": 244,
        "2463": 101,
        "2464": 205,
        "2465": 169,
        "2466": 25,
        "2467": 47,
        "2468": 198,
        "2469": 196,
        "2470": 224,
        "2471": 177,
        "2472": 74,
        "2473": 102,
        "2474": 168,
        "2475": 32,
        "2476": 5,
        "2477": 20,
        "2478": 198,
        "2479": 60,
        "2480": 155,
        "2481": 143,
        "2482": 5,
        "2483": 124,
        "2484": 87,
        "2485": 118,
        "2486": 62,
        "2487": 180,
        "2488": 80,
        "2489": 218,
        "2490": 183,
        "2491": 125,
        "2492": 13,
        "2493": 163,
        "2494": 4,
        "2495": 65,
        "2496": 4,
        "2497": 154,
        "2498": 144,
        "2499": 217,
        "2500": 12,
        "2501": 8,
        "2502": 93,
        "2503": 9,
        "2504": 181,
        "2505": 57,
        "2506": 176,
        "2507": 0,
        "2508": 2,
        "2509": 233,
        "2510": 96,
        "2511": 186,
        "2512": 61,
        "2513": 109,
        "2514": 14,
        "2515": 236,
        "2516": 93,
        "2517": 145,
        "2518": 130,
        "2519": 0,
        "2520": 54,
        "2521": 206,
        "2522": 21,
        "2523": 127,
        "2524": 43,
        "2525": 112,
        "2526": 22,
        "2527": 81,
        "2528": 115,
        "2529": 177,
        "2530": 254,
        "2531": 163,
        "2532": 244,
        "2533": 154,
        "2534": 190,
        "2535": 199,
        "2536": 120,
        "2537": 41,
        "2538": 218,
        "2539": 168,
        "2540": 248,
        "2541": 175,
        "2542": 39,
        "2543": 93,
        "2544": 163,
        "2545": 128,
        "2546": 87,
        "2547": 8,
        "2548": 99,
        "2549": 10,
        "2550": 95,
        "2551": 12,
        "2552": 21,
        "2553": 182,
        "2554": 45,
        "2555": 159,
        "2556": 108,
        "2557": 233,
        "2558": 117,
        "2559": 97,
        "2560": 202,
        "2561": 116,
        "2562": 183,
        "2563": 207,
        "2564": 99,
        "2565": 17,
        "2566": 174,
        "2567": 117,
        "2568": 84,
        "2569": 119,
        "2570": 143,
        "2571": 236,
        "2572": 225,
        "2573": 187,
        "2574": 216,
        "2575": 223,
        "2576": 47,
        "2577": 163,
        "2578": 41,
        "2579": 198,
        "2580": 205,
        "2581": 232,
        "2582": 133,
        "2583": 85,
        "2584": 50,
        "2585": 247,
        "2586": 147,
        "2587": 208,
        "2588": 133,
        "2589": 249,
        "2590": 205,
        "2591": 147,
        "2592": 204,
        "2593": 134,
        "2594": 189,
        "2595": 183,
        "2596": 67,
        "2597": 244,
        "2598": 18,
        "2599": 245,
        "2600": 139,
        "2601": 122,
        "2602": 168,
        "2603": 82,
        "2604": 47,
        "2605": 146,
        "2606": 56,
        "2607": 147,
        "2608": 107,
        "2609": 34,
        "2610": 155,
        "2611": 65,
        "2612": 109,
        "2613": 220,
        "2614": 113,
        "2615": 200,
        "2616": 131,
        "2617": 110,
        "2618": 23,
        "2619": 81,
        "2620": 8,
        "2621": 180,
        "2622": 24,
        "2623": 179,
        "2624": 210,
        "2625": 53,
        "2626": 157,
        "2627": 232,
        "2628": 39,
        "2629": 210,
        "2630": 113,
        "2631": 249,
        "2632": 181,
        "2633": 48,
        "2634": 66,
        "2635": 228,
        "2636": 15,
        "2637": 140,
        "2638": 217,
        "2639": 17,
        "2640": 32,
        "2641": 228,
        "2642": 48,
        "2643": 112,
        "2644": 17,
        "2645": 97,
        "2646": 116,
        "2647": 253,
        "2648": 158,
        "2649": 155,
        "2650": 135,
        "2651": 164,
        "2652": 99,
        "2653": 196,
        "2654": 140,
        "2655": 174,
        "2656": 192,
        "2657": 41,
        "2658": 87,
        "2659": 90,
        "2660": 168,
        "2661": 106,
        "2662": 154,
        "2663": 255,
        "2664": 178,
        "2665": 202,
        "2666": 87,
        "2667": 178,
        "2668": 139,
        "2669": 3,
        "2670": 43,
        "2671": 109,
        "2672": 187,
        "2673": 93,
        "2674": 132,
        "2675": 143,
        "2676": 63,
        "2677": 189,
        "2678": 236,
        "2679": 92,
        "2680": 251,
        "2681": 82,
        "2682": 65,
        "2683": 159,
        "2684": 37,
        "2685": 241,
        "2686": 201,
        "2687": 251,
        "2688": 234,
        "2689": 42,
        "2690": 66,
        "2691": 30,
        "2692": 252,
        "2693": 44,
        "2694": 238,
        "2695": 228,
        "2696": 223,
        "2697": 211,
        "2698": 219,
        "2699": 32,
        "2700": 226,
        "2701": 244,
        "2702": 85,
        "2703": 17,
        "2704": 75,
        "2705": 113,
        "2706": 88,
        "2707": 77,
        "2708": 242,
        "2709": 253,
        "2710": 102,
        "2711": 37,
        "2712": 152,
        "2713": 253,
        "2714": 181,
        "2715": 222,
        "2716": 224,
        "2717": 220,
        "2718": 237,
        "2719": 163,
        "2720": 109,
        "2721": 100,
        "2722": 89,
        "2723": 113,
        "2724": 140,
        "2725": 254,
        "2726": 201,
        "2727": 92,
        "2728": 231,
        "2729": 57,
        "2730": 115,
        "2731": 88,
        "2732": 226,
        "2733": 145,
        "2734": 72,
        "2735": 236,
        "2736": 164,
        "2737": 146,
        "2738": 254,
        "2739": 203,
        "2740": 156,
        "2741": 85,
        "2742": 14,
        "2743": 171,
        "2744": 238,
        "2745": 158,
        "2746": 78,
        "2747": 162,
        "2748": 37,
        "2749": 153,
        "2750": 124,
        "2751": 0,
        "2752": 47,
        "2753": 238,
        "2754": 117,
        "2755": 79,
        "2756": 19,
        "2757": 58,
        "2758": 6,
        "2759": 198,
        "2760": 202,
        "2761": 149,
        "2762": 44,
        "2763": 143,
        "2764": 122,
        "2765": 132,
        "2766": 17,
        "2767": 159,
        "2768": 27,
        "2769": 121,
        "2770": 61,
        "2771": 184,
        "2772": 154,
        "2773": 10,
        "2774": 59,
        "2775": 113,
        "2776": 62,
        "2777": 37,
        "2778": 211,
        "2779": 56,
        "2780": 12,
        "2781": 190,
        "2782": 101,
        "2783": 34,
        "2784": 208,
        "2785": 196,
        "2786": 253,
        "2787": 151,
        "2788": 202,
        "2789": 50,
        "2790": 219,
        "2791": 49,
        "2792": 28,
        "2793": 201,
        "2794": 123,
        "2795": 142,
        "2796": 151,
        "2797": 164,
        "2798": 184,
        "2799": 254,
        "2800": 212,
        "2801": 57,
        "2802": 22,
        "2803": 217,
        "2804": 28,
        "2805": 250,
        "2806": 234,
        "2807": 71,
        "2808": 39,
        "2809": 204,
        "2810": 253,
        "2811": 205,
        "2812": 0,
        "2813": 82,
        "2814": 232,
        "2815": 208,
        "2816": 205,
        "2817": 77,
        "2818": 196,
        "2819": 96,
        "2820": 14,
        "2821": 251,
        "2822": 66,
        "2823": 7,
        "2824": 197,
        "2825": 62,
        "2826": 219,
        "2827": 253,
        "2828": 89,
        "2829": 15,
        "2830": 114,
        "2831": 228,
        "2832": 214,
        "2833": 82,
        "2834": 228,
        "2835": 164,
        "2836": 106,
        "2837": 207,
        "2838": 138,
        "2839": 160,
        "2840": 87,
        "2841": 47,
        "2842": 231,
        "2843": 187,
        "2844": 15,
        "2845": 150,
        "2846": 11,
        "2847": 126,
        "2848": 193,
        "2849": 108,
        "2850": 223,
        "2851": 4,
        "2852": 191,
        "2853": 80,
        "2854": 77,
        "2855": 180,
        "2856": 211,
        "2857": 77,
        "2858": 237,
        "2859": 63,
        "2860": 165,
        "2861": 108,
        "2862": 14,
        "2863": 83,
        "2864": 127,
        "2865": 233,
        "2866": 138,
        "2867": 206,
        "2868": 109,
        "2869": 180,
        "2870": 116,
        "2871": 56,
        "2872": 128,
        "2873": 133,
        "2874": 162,
        "2875": 126,
        "2876": 64,
        "2877": 144,
        "2878": 179,
        "2879": 46,
        "2880": 113,
        "2881": 233,
        "2882": 92,
        "2883": 216,
        "2884": 171,
        "2885": 202,
        "2886": 254,
        "2887": 228,
        "2888": 96,
        "2889": 30,
        "2890": 128,
        "2891": 144,
        "2892": 88,
        "2893": 66,
        "2894": 85,
        "2895": 65,
        "2896": 37,
        "2897": 36,
        "2898": 146,
        "2899": 203,
        "2900": 154,
        "2901": 132,
        "2902": 35,
        "2903": 67,
        "2904": 19,
        "2905": 12,
        "2906": 178,
        "2907": 155,
        "2908": 132,
        "2909": 181,
        "2910": 28,
        "2911": 111,
        "2912": 110,
        "2913": 182,
        "2914": 94,
        "2915": 17,
        "2916": 150,
        "2917": 48,
        "2918": 62,
        "2919": 3,
        "2920": 120,
        "2921": 63,
        "2922": 171,
        "2923": 20,
        "2924": 242,
        "2925": 201,
        "2926": 139,
        "2927": 28,
        "2928": 174,
        "2929": 99,
        "2930": 133,
        "2931": 134,
        "2932": 51,
        "2933": 132,
        "2934": 27,
        "2935": 133,
        "2936": 12,
        "2937": 211,
        "2938": 48,
        "2939": 122,
        "2940": 238,
        "2941": 215,
        "2942": 139,
        "2943": 217,
        "2944": 50,
        "2945": 189,
        "2946": 221,
        "2947": 196,
        "2948": 17,
        "2949": 186,
        "2950": 65,
        "2951": 145,
        "2952": 62,
        "2953": 79,
        "2954": 241,
        "2955": 41,
        "2956": 227,
        "2957": 248,
        "2958": 219,
        "2959": 148,
        "2960": 84,
        "2961": 170,
        "2962": 250,
        "2963": 167,
        "2964": 214,
        "2965": 147,
        "2966": 133,
        "2967": 175,
        "2968": 99,
        "2969": 178,
        "2970": 180,
        "2971": 5,
        "2972": 79,
        "2973": 41,
        "2974": 70,
        "2975": 10,
        "2976": 96,
        "2977": 155,
        "2978": 188,
        "2979": 196,
        "2980": 206,
        "2981": 238,
        "2982": 252,
        "2983": 212,
        "2984": 72,
        "2985": 199,
        "2986": 118,
        "2987": 130,
        "2988": 208,
        "2989": 162,
        "2990": 146,
        "2991": 133,
        "2992": 20,
        "2993": 29,
        "2994": 23,
        "2995": 246,
        "2996": 192,
        "2997": 167,
        "2998": 73,
        "2999": 95,
        "3000": 25,
        "3001": 103,
        "3002": 54,
        "3003": 181,
        "3004": 68,
        "3005": 157,
        "3006": 146,
        "3007": 65,
        "3008": 82,
        "3009": 232,
        "3010": 254,
        "3011": 50,
        "3012": 162,
        "3013": 187,
        "3014": 221,
        "3015": 203,
        "3016": 213,
        "3017": 115,
        "3018": 24,
        "3019": 237,
        "3020": 231,
        "3021": 23,
        "3022": 206,
        "3023": 229,
        "3024": 17,
        "3025": 50,
        "3026": 221,
        "3027": 15,
        "3028": 234,
        "3029": 248,
        "3030": 42,
        "3031": 43,
        "3032": 60,
        "3033": 234,
        "3034": 243,
        "3035": 39,
        "3036": 90,
        "3037": 200,
        "3038": 26,
        "3039": 121,
        "3040": 84,
        "3041": 38,
        "3042": 99,
        "3043": 74,
        "3044": 49,
        "3045": 80,
        "3046": 88,
        "3047": 224,
        "3048": 29,
        "3049": 5,
        "3050": 101,
        "3051": 85,
        "3052": 63,
        "3053": 238,
        "3054": 171,
        "3055": 154,
        "3056": 168,
        "3057": 144,
        "3058": 7,
        "3059": 235,
        "3060": 127,
        "3061": 224,
        "3062": 125,
        "3063": 226,
        "3064": 182,
        "3065": 255,
        "3066": 32,
        "3067": 71,
        "3068": 25,
        "3069": 231,
        "3070": 69,
        "3071": 243,
        "3072": 90,
        "3073": 216,
        "3074": 165,
        "3075": 30,
        "3076": 203,
        "3077": 69,
        "3078": 12,
        "3079": 17,
        "3080": 196,
        "3081": 70,
        "3082": 29,
        "3083": 74,
        "3084": 242,
        "3085": 73,
        "3086": 29,
        "3087": 215,
        "3088": 69,
        "3089": 151,
        "3090": 73,
        "3091": 121,
        "3092": 6,
        "3093": 190,
        "3094": 144,
        "3095": 110,
        "3096": 214,
        "3097": 112,
        "3098": 251,
        "3099": 189,
        "3100": 185,
        "3101": 200,
        "3102": 133,
        "3103": 130,
        "3104": 81,
        "3105": 208,
        "3106": 100,
        "3107": 84,
        "3108": 187,
        "3109": 92,
        "3110": 252,
        "3111": 67,
        "3112": 30,
        "3113": 197,
        "3114": 77,
        "3115": 31,
        "3116": 47,
        "3117": 236,
        "3118": 70,
        "3119": 222,
        "3120": 202,
        "3121": 245,
        "3122": 43,
        "3123": 136,
        "3124": 153,
        "3125": 183,
        "3126": 16,
        "3127": 120,
        "3128": 155,
        "3129": 201,
        "3130": 88,
        "3131": 66,
        "3132": 80,
        "3133": 187,
        "3134": 229,
        "3135": 103,
        "3136": 254,
        "3137": 61,
        "3138": 87,
        "3139": 47,
        "3140": 243,
        "3141": 59,
        "3142": 52,
        "3143": 161,
        "3144": 221,
        "3145": 84,
        "3146": 143,
        "3147": 66,
        "3148": 20,
        "3149": 134,
        "3150": 57,
        "3151": 68,
        "3152": 97,
        "3153": 112,
        "3154": 216,
        "3155": 76,
        "3156": 138,
        "3157": 53,
        "3158": 87,
        "3159": 33,
        "3160": 68,
        "3161": 172,
        "3162": 7,
        "3163": 4,
        "3164": 237,
        "3165": 109,
        "3166": 3,
        "3167": 10,
        "3168": 105,
        "3169": 140,
        "3170": 206,
        "3171": 161,
        "3172": 223,
        "3173": 239,
        "3174": 69,
        "3175": 23,
        "3176": 182,
        "3177": 237,
        "3178": 101,
        "3179": 115,
        "3180": 17,
        "3181": 190,
        "3182": 16,
        "3183": 99,
        "3184": 213,
        "3185": 32,
        "3186": 213,
        "3187": 147,
        "3188": 141,
        "3189": 108,
        "3190": 15,
        "3191": 42,
        "3192": 7,
        "3193": 121,
        "3194": 60,
        "3195": 160,
        "3196": 5,
        "3197": 106,
        "3198": 91,
        "3199": 57,
        "3200": 183,
        "3201": 141,
        "3202": 152,
        "3203": 214,
        "3204": 252,
        "3205": 133,
        "3206": 118,
        "3207": 1,
        "3208": 228,
        "3209": 101,
        "3210": 103,
        "3211": 247,
        "3212": 126,
        "3213": 113,
        "3214": 231,
        "3215": 90,
        "3216": 80,
        "3217": 97,
        "3218": 210,
        "3219": 212,
        "3220": 176,
        "3221": 56,
        "3222": 56,
        "3223": 177,
        "3224": 159,
        "3225": 33,
        "3226": 184,
        "3227": 85,
        "3228": 7,
        "3229": 76,
        "3230": 243,
        "3231": 142,
        "3232": 110,
        "3233": 158,
        "3234": 30,
        "3235": 19,
        "3236": 202,
        "3237": 212,
        "3238": 205,
        "3239": 232,
        "3240": 41,
        "3241": 198,
        "3242": 82,
        "3243": 126,
        "3244": 53,
        "3245": 201,
        "3246": 65,
        "3247": 19,
        "3248": 145,
        "3249": 128,
        "3250": 106,
        "3251": 230,
        "3252": 87,
        "3253": 216,
        "3254": 79,
        "3255": 8,
        "3256": 28,
        "3257": 216,
        "3258": 85,
        "3259": 80,
        "3260": 173,
        "3261": 74,
        "3262": 1,
        "3263": 108,
        "3264": 220,
        "3265": 30,
        "3266": 97,
        "3267": 5,
        "3268": 71,
        "3269": 0,
        "3270": 222,
        "3271": 82,
        "3272": 46,
        "3273": 95,
        "3274": 164,
        "3275": 131,
        "3276": 74,
        "3277": 47,
        "3278": 134,
        "3279": 68,
        "3280": 135,
        "3281": 193,
        "3282": 173,
        "3283": 26,
        "3284": 31,
        "3285": 97,
        "3286": 158,
        "3287": 218,
        "3288": 75,
        "3289": 186,
        "3290": 160,
        "3291": 22,
        "3292": 182,
        "3293": 172,
        "3294": 245,
        "3295": 186,
        "3296": 234,
        "3297": 40,
        "3298": 101,
        "3299": 159,
        "3300": 235,
        "3301": 150,
        "3302": 162,
        "3303": 35,
        "3304": 76,
        "3305": 217,
        "3306": 128,
        "3307": 64,
        "3308": 73,
        "3309": 143,
        "3310": 235,
        "3311": 150,
        "3312": 245,
        "3313": 94,
        "3314": 61,
        "3315": 132,
        "3316": 54,
        "3317": 87,
        "3318": 81,
        "3319": 128,
        "3320": 4,
        "3321": 207,
        "3322": 168,
        "3323": 102,
        "3324": 102,
        "3325": 11,
        "3326": 161,
        "3327": 211,
        "3328": 62,
        "3329": 244,
        "3330": 71,
        "3331": 37,
        "3332": 194,
        "3333": 110,
        "3334": 138,
        "3335": 225,
        "3336": 39,
        "3337": 196,
        "3338": 1,
        "3339": 212,
        "3340": 77,
        "3341": 246,
        "3342": 157,
        "3343": 11,
        "3344": 181,
        "3345": 77,
        "3346": 238,
        "3347": 19,
        "3348": 135,
        "3349": 139,
        "3350": 205,
        "3351": 88,
        "3352": 133,
        "3353": 71,
        "3354": 69,
        "3355": 198,
        "3356": 8,
        "3357": 16,
        "3358": 193,
        "3359": 211,
        "3360": 183,
        "3361": 175,
        "3362": 200,
        "3363": 241,
        "3364": 42,
        "3365": 24,
        "3366": 54,
        "3367": 183,
        "3368": 131,
        "3369": 143,
        "3370": 167,
        "3371": 70,
        "3372": 94,
        "3373": 162,
        "3374": 225,
        "3375": 166,
        "3376": 12,
        "3377": 45,
        "3378": 87,
        "3379": 221,
        "3380": 15,
        "3381": 223,
        "3382": 181,
        "3383": 19,
        "3384": 27,
        "3385": 175,
        "3386": 117,
        "3387": 50,
        "3388": 146,
        "3389": 151,
        "3390": 237,
        "3391": 0,
        "3392": 226,
        "3393": 203,
        "3394": 111,
        "3395": 116,
        "3396": 33,
        "3397": 16,
        "3398": 141,
        "3399": 96,
        "3400": 84,
        "3401": 111,
        "3402": 5,
        "3403": 39,
        "3404": 166,
        "3405": 169,
        "3406": 21,
        "3407": 219,
        "3408": 153,
        "3409": 81,
        "3410": 139,
        "3411": 39,
        "3412": 237,
        "3413": 188,
        "3414": 155,
        "3415": 107,
        "3416": 69,
        "3417": 238,
        "3418": 201,
        "3419": 35,
        "3420": 73,
        "3421": 174,
        "3422": 211,
        "3423": 160,
        "3424": 48,
        "3425": 105,
        "3426": 248,
        "3427": 43,
        "3428": 123,
        "3429": 56,
        "3430": 10,
        "3431": 210,
        "3432": 144,
        "3433": 78,
        "3434": 193,
        "3435": 183,
        "3436": 78,
        "3437": 28,
        "3438": 92,
        "3439": 234,
        "3440": 251,
        "3441": 14,
        "3442": 36,
        "3443": 130,
        "3444": 138,
        "3445": 148,
        "3446": 155,
        "3447": 128,
        "3448": 41,
        "3449": 107,
        "3450": 47,
        "3451": 142,
        "3452": 116,
        "3453": 255,
        "3454": 167,
        "3455": 14,
        "3456": 123,
        "3457": 224,
        "3458": 32,
        "3459": 11,
        "3460": 117,
        "3461": 31,
        "3462": 71,
        "3463": 141,
        "3464": 237,
        "3465": 85,
        "3466": 119,
        "3467": 58,
        "3468": 216,
        "3469": 222,
        "3470": 1,
        "3471": 106,
        "3472": 201,
        "3473": 111,
        "3474": 41,
        "3475": 134,
        "3476": 241,
        "3477": 88,
        "3478": 143,
        "3479": 62,
        "3480": 245,
        "3481": 177,
        "3482": 172,
        "3483": 3,
        "3484": 43,
        "3485": 209,
        "3486": 206,
        "3487": 218,
        "3488": 0,
        "3489": 180,
        "3490": 60,
        "3491": 8,
        "3492": 22,
        "3493": 225,
        "3494": 138,
        "3495": 228,
        "3496": 109,
        "3497": 54,
        "3498": 129,
        "3499": 125,
        "3500": 30,
        "3501": 199,
        "3502": 146,
        "3503": 135,
        "3504": 220,
        "3505": 6,
        "3506": 251,
        "3507": 239,
        "3508": 185,
        "3509": 70,
        "3510": 125,
        "3511": 8,
        "3512": 105,
        "3513": 3,
        "3514": 234,
        "3515": 115,
        "3516": 12,
        "3517": 203,
        "3518": 63,
        "3519": 239,
        "3520": 38,
        "3521": 61,
        "3522": 214,
        "3523": 114,
        "3524": 78,
        "3525": 49,
        "3526": 218,
        "3527": 234,
        "3528": 45,
        "3529": 187,
        "3530": 68,
        "3531": 64,
        "3532": 249,
        "3533": 118,
        "3534": 57,
        "3535": 46,
        "3536": 48,
        "3537": 142,
        "3538": 92,
        "3539": 30,
        "3540": 38,
        "3541": 7,
        "3542": 123,
        "3543": 187,
        "3544": 107,
        "3545": 48,
        "3546": 139,
        "3547": 183,
        "3548": 39,
        "3549": 249,
        "3550": 21,
        "3551": 76,
        "3552": 235,
        "3553": 169,
        "3554": 147,
        "3555": 73,
        "3556": 185,
        "3557": 183,
        "3558": 28,
        "3559": 177,
        "3560": 190,
        "3561": 169,
        "3562": 187,
        "3563": 142,
        "3564": 228,
        "3565": 77,
        "3566": 121,
        "3567": 159,
        "3568": 174,
        "3569": 195,
        "3570": 81,
        "3571": 115,
        "3572": 215,
        "3573": 188,
        "3574": 116,
        "3575": 2,
        "3576": 190,
        "3577": 222,
        "3578": 190,
        "3579": 70,
        "3580": 42,
        "3581": 171,
        "3582": 34,
        "3583": 146,
        "3584": 134,
        "3585": 120,
        "3586": 163,
        "3587": 67,
        "3588": 165,
        "3589": 4,
        "3590": 3,
        "3591": 188,
        "3592": 6,
        "3593": 100,
        "3594": 80,
        "3595": 6,
        "3596": 85,
        "3597": 215,
        "3598": 122,
        "3599": 213,
        "3600": 25,
        "3601": 170,
        "3602": 234,
        "3603": 110,
        "3604": 40,
        "3605": 5,
        "3606": 143,
        "3607": 181,
        "3608": 131,
        "3609": 89,
        "3610": 118,
        "3611": 251,
        "3612": 111,
        "3613": 185,
        "3614": 238,
        "3615": 177,
        "3616": 134,
        "3617": 132,
        "3618": 152,
        "3619": 65,
        "3620": 7,
        "3621": 201,
        "3622": 230,
        "3623": 19,
        "3624": 144,
        "3625": 12,
        "3626": 201,
        "3627": 202,
        "3628": 181,
        "3629": 226,
        "3630": 33,
        "3631": 93,
        "3632": 123,
        "3633": 39,
        "3634": 235,
        "3635": 184,
        "3636": 157,
        "3637": 42,
        "3638": 83,
        "3639": 209,
        "3640": 255,
        "3641": 116,
        "3642": 52,
        "3643": 156,
        "3644": 90,
        "3645": 187,
        "3646": 22,
        "3647": 26,
        "3648": 45,
        "3649": 115,
        "3650": 218,
        "3651": 167,
        "3652": 74,
        "3653": 245,
        "3654": 53,
        "3655": 18,
        "3656": 250,
        "3657": 143,
        "3658": 159,
        "3659": 21,
        "3660": 77,
        "3661": 194,
        "3662": 227,
        "3663": 1,
        "3664": 208,
        "3665": 30,
        "3666": 209,
        "3667": 5,
        "3668": 221,
        "3669": 205,
        "3670": 236,
        "3671": 76,
        "3672": 27,
        "3673": 213,
        "3674": 63,
        "3675": 37,
        "3676": 131,
        "3677": 48,
        "3678": 241,
        "3679": 132,
        "3680": 240,
        "3681": 72,
        "3682": 74,
        "3683": 98,
        "3684": 79,
        "3685": 18,
        "3686": 182,
        "3687": 124,
        "3688": 9,
        "3689": 14,
        "3690": 68,
        "3691": 17,
        "3692": 144,
        "3693": 132,
        "3694": 85,
        "3695": 82,
        "3696": 140,
        "3697": 143,
        "3698": 6,
        "3699": 174,
        "3700": 240,
        "3701": 20,
        "3702": 61,
        "3703": 23,
        "3704": 215,
        "3705": 200,
        "3706": 203,
        "3707": 144,
        "3708": 81,
        "3709": 165,
        "3710": 32,
        "3711": 136,
        "3712": 32,
        "3713": 107,
        "3714": 12,
        "3715": 34,
        "3716": 38,
        "3717": 216,
        "3718": 24,
        "3719": 21,
        "3720": 179,
        "3721": 91,
        "3722": 254,
        "3723": 109,
        "3724": 200,
        "3725": 46,
        "3726": 11,
        "3727": 139,
        "3728": 124,
        "3729": 77,
        "3730": 19,
        "3731": 99,
        "3732": 55,
        "3733": 150,
        "3734": 157,
        "3735": 91,
        "3736": 31,
        "3737": 28,
        "3738": 24,
        "3739": 125,
        "3740": 234,
        "3741": 53,
        "3742": 183,
        "3743": 224,
        "3744": 198,
        "3745": 14,
        "3746": 168,
        "3747": 103,
        "3748": 68,
        "3749": 141,
        "3750": 252,
        "3751": 149,
        "3752": 125,
        "3753": 93,
        "3754": 231,
        "3755": 154,
        "3756": 118,
        "3757": 14,
        "3758": 216,
        "3759": 5,
        "3760": 171,
        "3761": 153,
        "3762": 13,
        "3763": 126,
        "3764": 161,
        "3765": 9,
        "3766": 134,
        "3767": 191,
        "3768": 199,
        "3769": 120,
        "3770": 198,
        "3771": 247,
        "3772": 145,
        "3773": 2,
        "3774": 141,
        "3775": 122,
        "3776": 227,
        "3777": 206,
        "3778": 249,
        "3779": 149,
        "3780": 128,
        "3781": 103,
        "3782": 220,
        "3783": 52,
        "3784": 94,
        "3785": 201,
        "3786": 190,
        "3787": 89,
        "3788": 9,
        "3789": 121,
        "3790": 255,
        "3791": 245,
        "3792": 150,
        "3793": 251,
        "3794": 119,
        "3795": 18,
        "3796": 140,
        "3797": 112,
        "3798": 150,
        "3799": 194,
        "3800": 184,
        "3801": 178,
        "3802": 161,
        "3803": 104,
        "3804": 143,
        "3805": 246,
        "3806": 94,
        "3807": 3,
        "3808": 21,
        "3809": 38,
        "3810": 103,
        "3811": 114,
        "3812": 24,
        "3813": 21,
        "3814": 90,
        "3815": 148,
        "3816": 36,
        "3817": 149,
        "3818": 207,
        "3819": 49,
        "3820": 207,
        "3821": 145,
        "3822": 184,
        "3823": 71,
        "3824": 73,
        "3825": 102,
        "3826": 246,
        "3827": 103,
        "3828": 208,
        "3829": 7,
        "3830": 223,
        "3831": 250,
        "3832": 154,
        "3833": 253,
        "3834": 20,
        "3835": 150,
        "3836": 199,
        "3837": 185,
        "3838": 92,
        "3839": 34,
        "3840": 217,
        "3841": 168,
        "3842": 124,
        "3843": 197,
        "3844": 49,
        "3845": 184,
        "3846": 105,
        "3847": 154,
        "3848": 208,
        "3849": 193,
        "3850": 226,
        "3851": 163,
        "3852": 179,
        "3853": 221,
        "3854": 243,
        "3855": 225,
        "3856": 193,
        "3857": 183,
        "3858": 239,
        "3859": 136,
        "3860": 11,
        "3861": 39,
        "3862": 45,
        "3863": 184,
        "3864": 71,
        "3865": 94,
        "3866": 59,
        "3867": 23,
        "3868": 168,
        "3869": 165,
        "3870": 136,
        "3871": 14,
        "3872": 59,
        "3873": 136,
        "3874": 113,
        "3875": 109,
        "3876": 147,
        "3877": 192,
        "3878": 22,
        "3879": 103,
        "3880": 61,
        "3881": 238,
        "3882": 239,
        "3883": 5,
        "3884": 13,
        "3885": 192,
        "3886": 218,
        "3887": 147,
        "3888": 238,
        "3889": 217,
        "3890": 194,
        "3891": 135,
        "3892": 5,
        "3893": 159,
        "3894": 241,
        "3895": 209,
        "3896": 5,
        "3897": 225,
        "3898": 75,
        "3899": 84,
        "3900": 157,
        "3901": 177,
        "3902": 8,
        "3903": 232,
        "3904": 120,
        "3905": 124,
        "3906": 133,
        "3907": 5,
        "3908": 204,
        "3909": 215,
        "3910": 142,
        "3911": 130,
        "3912": 162,
        "3913": 197,
        "3914": 242,
        "3915": 41,
        "3916": 214,
        "3917": 228,
        "3918": 173,
        "3919": 114,
        "3920": 19,
        "3921": 116,
        "3922": 128,
        "3923": 89,
        "3924": 225,
        "3925": 36,
        "3926": 116,
        "3927": 229,
        "3928": 45,
        "3929": 108,
        "3930": 101,
        "3931": 216,
        "3932": 108,
        "3933": 220,
        "3934": 25,
        "3935": 251,
        "3936": 94,
        "3937": 103,
        "3938": 5,
        "3939": 101,
        "3940": 55,
        "3941": 218,
        "3942": 217,
        "3943": 25,
        "3944": 151,
        "3945": 253,
        "3946": 103,
        "3947": 235,
        "3948": 168,
        "3949": 126,
        "3950": 224,
        "3951": 146,
        "3952": 195,
        "3953": 136,
        "3954": 47,
        "3955": 235,
        "3956": 253,
        "3957": 187,
        "3958": 100,
        "3959": 178,
        "3960": 52,
        "3961": 100,
        "3962": 142,
        "3963": 170,
        "3964": 33,
        "3965": 65,
        "3966": 92,
        "3967": 109,
        "3968": 82,
        "3969": 46,
        "3970": 39,
        "3971": 178,
        "3972": 230,
        "3973": 53,
        "3974": 152,
        "3975": 252,
        "3976": 88,
        "3977": 217,
        "3978": 59,
        "3979": 214,
        "3980": 17,
        "3981": 180,
        "3982": 85,
        "3983": 174,
        "3984": 218,
        "3985": 24,
        "3986": 156,
        "3987": 60,
        "3988": 92,
        "3989": 110,
        "3990": 60,
        "3991": 238,
        "3992": 209,
        "3993": 43,
        "3994": 155,
        "3995": 85,
        "3996": 114,
        "3997": 92,
        "3998": 158,
        "3999": 217,
        "4000": 74,
        "4001": 244,
        "4002": 211,
        "4003": 173,
        "4004": 215,
        "4005": 35,
        "4006": 128,
        "4007": 30,
        "4008": 115,
        "4009": 109,
        "4010": 58,
        "4011": 133,
        "4012": 144,
        "4013": 89,
        "4014": 237,
        "4015": 41,
        "4016": 219,
        "4017": 157,
        "4018": 240,
        "4019": 56,
        "4020": 104,
        "4021": 135,
        "4022": 153,
        "4023": 67,
        "4024": 158,
        "4025": 190,
        "4026": 57,
        "4027": 27,
        "4028": 132,
        "4029": 168,
        "4030": 67,
        "4031": 116,
        "4032": 40,
        "4033": 194,
        "4034": 61,
        "4035": 187,
        "4036": 127,
        "4037": 250,
        "4038": 132,
        "4039": 101,
        "4040": 153,
        "4041": 61,
        "4042": 135,
        "4043": 183,
        "4044": 91,
        "4045": 208,
        "4046": 104,
        "4047": 46,
        "4048": 85,
        "4049": 249,
        "4050": 110,
        "4051": 200,
        "4052": 120,
        "4053": 142,
        "4054": 67,
        "4055": 94,
        "4056": 197,
        "4057": 212,
        "4058": 53,
        "4059": 14,
        "4060": 206,
        "4061": 54,
        "4062": 173,
        "4063": 242,
        "4064": 154,
        "4065": 40,
        "4066": 199,
        "4067": 135,
        "4068": 78,
        "4069": 116,
        "4070": 67,
        "4071": 63,
        "4072": 157,
        "4073": 129,
        "4074": 28,
        "4075": 75,
        "4076": 180,
        "4077": 222,
        "4078": 117,
        "4079": 182,
        "4080": 92,
        "4081": 194,
        "4082": 26,
        "4083": 57,
        "4084": 243,
        "4085": 248,
        "4086": 64,
        "4087": 69,
        "4088": 79,
        "4089": 223,
        "4090": 110,
        "4091": 147,
        "4092": 109,
        "4093": 15,
        "4094": 69,
        "4095": 67,
        "4096": 149,
        "4097": 184,
        "4098": 48,
        "4099": 232,
        "4100": 99,
        "4101": 129,
        "4102": 189,
        "4103": 123,
        "4104": 56,
        "4105": 106,
        "4106": 77,
        "4107": 95,
        "4108": 220,
        "4109": 160,
        "4110": 154,
        "4111": 160,
        "4112": 145,
        "4113": 135,
        "4114": 10,
        "4115": 94,
        "4116": 244,
        "4117": 16,
        "4118": 111,
        "4119": 141,
        "4120": 175,
        "4121": 111,
        "4122": 213,
        "4123": 140,
        "4124": 102,
        "4125": 182,
        "4126": 248,
        "4127": 159,
        "4128": 105,
        "4129": 149,
        "4130": 53,
        "4131": 20,
        "4132": 213,
        "4133": 106,
        "4134": 254,
        "4135": 233,
        "4136": 171,
        "4137": 26,
        "4138": 97,
        "4139": 177,
        "4140": 119,
        "4141": 250,
        "4142": 82,
        "4143": 128,
        "4144": 43,
        "4145": 75,
        "4146": 220,
        "4147": 231,
        "4148": 196,
        "4149": 139,
        "4150": 55,
        "4151": 185,
        "4152": 202,
        "4153": 55,
        "4154": 73,
        "4155": 61,
        "4156": 181,
        "4157": 159,
        "4158": 169,
        "4159": 22,
        "4160": 158,
        "4161": 196,
        "4162": 110,
        "4163": 185,
        "4164": 250,
        "4165": 219,
        "4166": 142,
        "4167": 43,
        "4168": 24,
        "4169": 134,
        "4170": 38,
        "4171": 199,
        "4172": 13,
        "4173": 91,
        "4174": 58,
        "4175": 157,
        "4176": 100,
        "4177": 21,
        "4178": 63,
        "4179": 194,
        "4180": 191,
        "4181": 8,
        "4182": 128,
        "4183": 82,
        "4184": 97,
        "4185": 65,
        "4186": 120,
        "4187": 74,
        "4188": 25,
        "4189": 0,
        "4190": 135,
        "4191": 63,
        "4192": 167,
        "4193": 197,
        "4194": 137,
        "4195": 135,
        "4196": 113,
        "4197": 165,
        "4198": 2,
        "4199": 211,
        "4200": 153,
        "4201": 129,
        "4202": 144,
        "4203": 97,
        "4204": 147,
        "4205": 62,
        "4206": 154,
        "4207": 99,
        "4208": 131,
        "4209": 5,
        "4210": 26,
        "4211": 164,
        "4212": 79,
        "4213": 44,
        "4214": 137,
        "4215": 11,
        "4216": 163,
        "4217": 133,
        "4218": 186,
        "4219": 67,
        "4220": 97,
        "4221": 18,
        "4222": 171,
        "4223": 42,
        "4224": 246,
        "4225": 164,
        "4226": 26,
        "4227": 180,
        "4228": 61,
        "4229": 139,
        "4230": 200,
        "4231": 30,
        "4232": 49,
        "4233": 163,
        "4234": 98,
        "4235": 67,
        "4236": 128,
        "4237": 26,
        "4238": 119,
        "4239": 144,
        "4240": 212,
        "4241": 79,
        "4242": 10,
        "4243": 221,
        "4244": 244,
        "4245": 26,
        "4246": 224,
        "4247": 120,
        "4248": 172,
        "4249": 204,
        "4250": 196,
        "4251": 9,
        "4252": 187,
        "4253": 206,
        "4254": 109,
        "4255": 99,
        "4256": 63,
        "4257": 135,
        "4258": 168,
        "4259": 250,
        "4260": 75,
        "4261": 167,
        "4262": 173,
        "4263": 79,
        "4264": 216,
        "4265": 165,
        "4266": 197,
        "4267": 213,
        "4268": 0,
        "4269": 166,
        "4270": 149,
        "4271": 121,
        "4272": 176,
        "4273": 47,
        "4274": 234,
        "4275": 2,
        "4276": 33,
        "4277": 211,
        "4278": 23,
        "4279": 105,
        "4280": 63,
        "4281": 183,
        "4282": 109,
        "4283": 89,
        "4284": 170,
        "4285": 123,
        "4286": 207,
        "4287": 216,
        "4288": 104,
        "4289": 223,
        "4290": 222,
        "4291": 43,
        "4292": 83,
        "4293": 140,
        "4294": 93,
        "4295": 104,
        "4296": 213,
        "4297": 63,
        "4298": 202,
        "4299": 204,
        "4300": 117,
        "4301": 183,
        "4302": 228,
        "4303": 202,
        "4304": 111,
        "4305": 132,
        "4306": 9,
        "4307": 189,
        "4308": 190,
        "4309": 68,
        "4310": 108,
        "4311": 150,
        "4312": 18,
        "4313": 225,
        "4314": 189,
        "4315": 61,
        "4316": 157,
        "4317": 233,
        "4318": 168,
        "4319": 204,
        "4320": 2,
        "4321": 144,
        "4322": 141,
        "4323": 181,
        "4324": 99,
        "4325": 231,
        "4326": 156,
        "4327": 73,
        "4328": 171,
        "4329": 98,
        "4330": 160,
        "4331": 157,
        "4332": 48,
        "4333": 133,
        "4334": 25,
        "4335": 49,
        "4336": 240,
        "4337": 63,
        "4338": 37,
        "4339": 56,
        "4340": 172,
        "4341": 182,
        "4342": 150,
        "4343": 44,
        "4344": 178,
        "4345": 241,
        "4346": 126,
        "4347": 48,
        "4348": 118,
        "4349": 193,
        "4350": 6,
        "4351": 43,
        "4352": 132,
        "4353": 81,
        "4354": 61,
        "4355": 184,
        "4356": 102,
        "4357": 93,
        "4358": 104,
        "4359": 25,
        "4360": 7,
        "4361": 93,
        "4362": 24,
        "4363": 61,
        "4364": 108,
        "4365": 79,
        "4366": 237,
        "4367": 244,
        "4368": 36,
        "4369": 184,
        "4370": 252,
        "4371": 238,
        "4372": 114,
        "4373": 48,
        "4374": 218,
        "4375": 39,
        "4376": 213,
        "4377": 0,
        "4378": 166,
        "4379": 169,
        "4380": 241,
        "4381": 96,
        "4382": 218,
        "4383": 155,
        "4384": 109,
        "4385": 31,
        "4386": 232,
        "4387": 97,
        "4388": 84,
        "4389": 78,
        "4390": 113,
        "4391": 114,
        "4392": 53,
        "4393": 33,
        "4394": 218,
        "4395": 233,
        "4396": 174,
        "4397": 204,
        "4398": 129,
        "4399": 85,
        "4400": 122,
        "4401": 238,
        "4402": 65,
        "4403": 95,
        "4404": 155,
        "4405": 97,
        "4406": 24,
        "4407": 140,
        "4408": 80,
        "4409": 159,
        "4410": 252,
        "4411": 90,
        "4412": 127,
        "4413": 168,
        "4414": 17,
        "4415": 0,
        "4416": 196,
        "4417": 57,
        "4418": 80,
        "4419": 214,
        "4420": 9,
        "4421": 17,
        "4422": 230,
        "4423": 182,
        "4424": 208,
        "4425": 208,
        "4426": 95,
        "4427": 252,
        "4428": 165,
        "4429": 26,
        "4430": 202,
        "4431": 45,
        "4432": 22,
        "4433": 131,
        "4434": 181,
        "4435": 235,
        "4436": 229,
        "4437": 122,
        "4438": 96,
        "4439": 87,
        "4440": 99,
        "4441": 195,
        "4442": 174,
        "4443": 30,
        "4444": 231,
        "4445": 16,
        "4446": 188,
        "4447": 97,
        "4448": 161,
        "4449": 217,
        "4450": 157,
        "4451": 100,
        "4452": 255,
        "4453": 187,
        "4454": 142,
        "4455": 193,
        "4456": 6,
        "4457": 197,
        "4458": 239,
        "4459": 164,
        "4460": 168,
        "4461": 43,
        "4462": 72,
        "4463": 163,
        "4464": 46,
        "4465": 184,
        "4466": 224,
        "4467": 141,
        "4468": 187,
        "4469": 88,
        "4470": 66,
        "4471": 31,
        "4472": 163,
        "4473": 243,
        "4474": 37,
        "4475": 17,
        "4476": 252,
        "4477": 2,
        "4478": 241,
        "4479": 68,
        "4480": 15,
        "4481": 12,
        "4482": 167,
        "4483": 70,
        "4484": 213,
        "4485": 231,
        "4486": 109,
        "4487": 93,
        "4488": 5,
        "4489": 35,
        "4490": 224,
        "4491": 156,
        "4492": 195,
        "4493": 118,
        "4494": 32,
        "4495": 4,
        "4496": 44,
        "4497": 247,
        "4498": 108,
        "4499": 140,
        "4500": 113,
        "4501": 77,
        "4502": 177,
        "4503": 15,
        "4504": 189,
        "4505": 127,
        "4506": 37,
        "4507": 65,
        "4508": 5,
        "4509": 24,
        "4510": 57,
        "4511": 7,
        "4512": 165,
        "4513": 93,
        "4514": 129,
        "4515": 252,
        "4516": 22,
        "4517": 33,
        "4518": 59,
        "4519": 10,
        "4520": 95,
        "4521": 134,
        "4522": 237,
        "4523": 140,
        "4524": 169,
        "4525": 193,
        "4526": 111,
        "4527": 34,
        "4528": 70,
        "4529": 188,
        "4530": 139,
        "4531": 196,
        "4532": 223,
        "4533": 185,
        "4534": 187,
        "4535": 24,
        "4536": 172,
        "4537": 3,
        "4538": 144,
        "4539": 158,
        "4540": 154,
        "4541": 229,
        "4542": 167,
        "4543": 16,
        "4544": 139,
        "4545": 192,
        "4546": 40,
        "4547": 93,
        "4548": 167,
        "4549": 173,
        "4550": 100,
        "4551": 226,
        "4552": 202,
        "4553": 154,
        "4554": 39,
        "4555": 108,
        "4556": 20,
        "4557": 138,
        "4558": 136,
        "4559": 50,
        "4560": 197,
        "4561": 105,
        "4562": 28,
        "4563": 68,
        "4564": 58,
        "4565": 154,
        "4566": 146,
        "4567": 89,
        "4568": 210,
        "4569": 81,
        "4570": 4,
        "4571": 37,
        "4572": 23,
        "4573": 190,
        "4574": 130,
        "4575": 23,
        "4576": 38,
        "4577": 254,
        "4578": 11,
        "4579": 42,
        "4580": 90,
        "4581": 86,
        "4582": 157,
        "4583": 211,
        "4584": 161,
        "4585": 17,
        "4586": 28,
        "4587": 231,
        "4588": 109,
        "4589": 136,
        "4590": 110,
        "4591": 165,
        "4592": 236,
        "4593": 161,
        "4594": 144,
        "4595": 50,
        "4596": 208,
        "4597": 251,
        "4598": 252,
        "4599": 71,
        "4600": 201,
        "4601": 26,
        "4602": 40,
        "4603": 229,
        "4604": 178,
        "4605": 126,
        "4606": 252,
        "4607": 112,
        "4608": 107,
        "4609": 201,
        "4610": 102,
        "4611": 250,
        "4612": 192,
        "4613": 23,
        "4614": 122,
        "4615": 37,
        "4616": 115,
        "4617": 9,
        "4618": 236,
        "4619": 1,
        "4620": 251,
        "4621": 75,
        "4622": 153,
        "4623": 156,
        "4624": 21,
        "4625": 143,
        "4626": 80,
        "4627": 198,
        "4628": 114,
        "4629": 64,
        "4630": 126,
        "4631": 217,
        "4632": 92,
        "4633": 195,
        "4634": 27,
        "4635": 179,
        "4636": 42,
        "4637": 234,
        "4638": 39,
        "4639": 249,
        "4640": 106,
        "4641": 160,
        "4642": 14,
        "4643": 128,
        "4644": 5,
        "4645": 145,
        "4646": 222,
        "4647": 210,
        "4648": 223,
        "4649": 131,
        "4650": 96,
        "4651": 112,
        "4652": 240,
        "4653": 151,
        "4654": 30,
        "4655": 192,
        "4656": 214,
        "4657": 60,
        "4658": 233,
        "4659": 79,
        "4660": 184,
        "4661": 132,
        "4662": 168,
        "4663": 181,
        "4664": 40,
        "4665": 60,
        "4666": 190,
        "4667": 117,
        "4668": 190,
        "4669": 210,
        "4670": 37,
        "4671": 34,
        "4672": 65,
        "4673": 21,
        "4674": 178,
        "4675": 131,
        "4676": 246,
        "4677": 89,
        "4678": 226,
        "4679": 60,
        "4680": 15,
        "4681": 174,
        "4682": 105,
        "4683": 95,
        "4684": 103,
        "4685": 54,
        "4686": 77,
        "4687": 212,
        "4688": 119,
        "4689": 133,
        "4690": 130,
        "4691": 113,
        "4692": 179,
        "4693": 121,
        "4694": 234,
        "4695": 51,
        "4696": 181,
        "4697": 1,
        "4698": 186,
        "4699": 150,
        "4700": 5,
        "4701": 89,
        "4702": 69,
        "4703": 11,
        "4704": 200,
        "4705": 187,
        "4706": 116,
        "4707": 59,
        "4708": 243,
        "4709": 24,
        "4710": 101,
        "4711": 8,
        "4712": 30,
        "4713": 108,
        "4714": 81,
        "4715": 231,
        "4716": 193,
        "4717": 32,
        "4718": 44,
        "4719": 133,
        "4720": 250,
        "4721": 39,
        "4722": 136,
        "4723": 229,
        "4724": 88,
        "4725": 34,
        "4726": 85,
        "4727": 65,
        "4728": 120,
        "4729": 155,
        "4730": 139,
        "4731": 151,
        "4732": 47,
        "4733": 59,
        "4734": 114,
        "4735": 56,
        "4736": 130,
        "4737": 183,
        "4738": 10,
        "4739": 243,
        "4740": 248,
        "4741": 116,
        "4742": 255,
        "4743": 166,
        "4744": 7,
        "4745": 38,
        "4746": 179,
        "4747": 154,
        "4748": 198,
        "4749": 159,
        "4750": 2,
        "4751": 183,
        "4752": 249,
        "4753": 250,
        "4754": 214,
        "4755": 103,
        "4756": 52,
        "4757": 106,
        "4758": 171,
        "4759": 114,
        "4760": 250,
        "4761": 57,
        "4762": 58,
        "4763": 56,
        "4764": 119,
        "4765": 37,
        "4766": 16,
        "4767": 222,
        "4768": 239,
        "4769": 209,
        "4770": 45,
        "4771": 186,
        "4772": 242,
        "4773": 234,
        "4774": 196,
        "4775": 189,
        "4776": 237,
        "4777": 63,
        "4778": 203,
        "4779": 150,
        "4780": 80,
        "4781": 57,
        "4782": 174,
        "4783": 123,
        "4784": 86,
        "4785": 63,
        "4786": 61,
        "4787": 134,
        "4788": 213,
        "4789": 39,
        "4790": 62,
        "4791": 107,
        "4792": 27,
        "4793": 25,
        "4794": 197,
        "4795": 52,
        "4796": 217,
        "4797": 166,
        "4798": 74,
        "4799": 97,
        "4800": 11,
        "4801": 134,
        "4802": 118,
        "4803": 8,
        "4804": 247,
        "4805": 207,
        "4806": 104,
        "4807": 167,
        "4808": 0,
        "4809": 175,
        "4810": 107,
        "4811": 136,
        "4812": 109,
        "4813": 112,
        "4814": 203,
        "4815": 159,
        "4816": 141,
        "4817": 180,
        "4818": 100,
        "4819": 2,
        "4820": 146,
        "4821": 30,
        "4822": 229,
        "4823": 230,
        "4824": 81,
        "4825": 5,
        "4826": 184,
        "4827": 194,
        "4828": 181,
        "4829": 218,
        "4830": 8,
        "4831": 117,
        "4832": 79,
        "4833": 206,
        "4834": 215,
        "4835": 52,
        "4836": 187,
        "4837": 251,
        "4838": 92,
        "4839": 78,
        "4840": 195,
        "4841": 88,
        "4842": 118,
        "4843": 28,
        "4844": 216,
        "4845": 125,
        "4846": 143,
        "4847": 223,
        "4848": 162,
        "4849": 16,
        "4850": 211,
        "4851": 139,
        "4852": 26,
        "4853": 145,
        "4854": 57,
        "4855": 69,
        "4856": 178,
        "4857": 252,
        "4858": 126,
        "4859": 7,
        "4860": 226,
        "4861": 3,
        "4862": 141,
        "4863": 27,
        "4864": 255,
        "4865": 175,
        "4866": 217,
        "4867": 54,
        "4868": 10,
        "4869": 93,
        "4870": 201,
        "4871": 210,
        "4872": 198,
        "4873": 185,
        "4874": 130,
        "4875": 120,
        "4876": 99,
        "4877": 212,
        "4878": 188,
        "4879": 156,
        "4880": 251,
        "4881": 19,
        "4882": 145,
        "4883": 160,
        "4884": 103,
        "4885": 142,
        "4886": 165,
        "4887": 209,
        "4888": 184,
        "4889": 165,
        "4890": 167,
        "4891": 253,
        "4892": 201,
        "4893": 30,
        "4894": 63,
        "4895": 165,
        "4896": 176,
        "4897": 130,
        "4898": 23,
        "4899": 60,
        "4900": 93,
        "4901": 172,
        "4902": 219,
        "4903": 164,
        "4904": 174,
        "4905": 110,
        "4906": 139,
        "4907": 254,
        "4908": 38,
        "4909": 141,
        "4910": 19,
        "4911": 101,
        "4912": 131,
        "4913": 229,
        "4914": 30,
        "4915": 217,
        "4916": 17,
        "4917": 155,
        "4918": 88,
        "4919": 250,
        "4920": 40,
        "4921": 126,
        "4922": 71,
        "4923": 222,
        "4924": 176,
        "4925": 175,
        "4926": 135,
        "4927": 33,
        "4928": 232,
        "4929": 189,
        "4930": 111,
        "4931": 28,
        "4932": 236,
        "4933": 72,
        "4934": 73,
        "4935": 134,
        "4936": 97,
        "4937": 28,
        "4938": 26,
        "4939": 208,
        "4940": 186,
        "4941": 174,
        "4942": 12,
        "4943": 213,
        "4944": 198,
        "4945": 133,
        "4946": 180,
        "4947": 54,
        "4948": 94,
        "4949": 5,
        "4950": 139,
        "4951": 237,
        "4952": 130,
        "4953": 60,
        "4954": 236,
        "4955": 140,
        "4956": 14,
        "4957": 9,
        "4958": 226,
        "4959": 197,
        "4960": 177,
        "4961": 115,
        "4962": 45,
        "4963": 18,
        "4964": 18,
        "4965": 221,
        "4966": 60,
        "4967": 184,
        "4968": 241,
        "4969": 161,
        "4970": 68,
        "4971": 113,
        "4972": 130,
        "4973": 234,
        "4974": 250,
        "4975": 25,
        "4976": 124,
        "4977": 135,
        "4978": 125,
        "4979": 223,
        "4980": 40,
        "4981": 64,
        "4982": 212,
        "4983": 179,
        "4984": 234,
        "4985": 18,
        "4986": 222,
        "4987": 104,
        "4988": 40,
        "4989": 101,
        "4990": 205,
        "4991": 159,
        "4992": 196,
        "4993": 28,
        "4994": 201,
        "4995": 171,
        "4996": 25,
        "4997": 103,
        "4998": 230,
        "4999": 176,
        "5000": 190,
        "5001": 73,
        "5002": 194,
        "5003": 255,
        "5004": 233,
        "5005": 176,
        "5006": 51,
        "5007": 165,
        "5008": 195,
        "5009": 77,
        "5010": 152,
        "5011": 64,
        "5012": 155,
        "5013": 180,
        "5014": 149,
        "5015": 103,
        "5016": 17,
        "5017": 204,
        "5018": 103,
        "5019": 189,
        "5020": 142,
        "5021": 115,
        "5022": 139,
        "5023": 74,
        "5024": 198,
        "5025": 226,
        "5026": 54,
        "5027": 196,
        "5028": 168,
        "5029": 160,
        "5030": 89,
        "5031": 41,
        "5032": 236,
        "5033": 93,
        "5034": 12,
        "5035": 154,
        "5036": 169,
        "5037": 159,
        "5038": 66,
        "5039": 78,
        "5040": 132,
        "5041": 55,
        "5042": 199,
        "5043": 18,
        "5044": 99,
        "5045": 154,
        "5046": 10,
        "5047": 6,
        "5048": 21,
        "5049": 35,
        "5050": 13,
        "5051": 149,
        "5052": 228,
        "5053": 147,
        "5054": 73,
        "5055": 253,
        "5056": 202,
        "5057": 254,
        "5058": 244,
        "5059": 9,
        "5060": 216,
        "5061": 190,
        "5062": 202,
        "5063": 49,
        "5064": 89,
        "5065": 242,
        "5066": 105,
        "5067": 122,
        "5068": 169,
        "5069": 228,
        "5070": 31,
        "5071": 91,
        "5072": 41,
        "5073": 148,
        "5074": 219,
        "5075": 114,
        "5076": 181,
        "5077": 182,
        "5078": 93,
        "5079": 21,
        "5080": 209,
        "5081": 21,
        "5082": 164,
        "5083": 109,
        "5084": 44,
        "5085": 82,
        "5086": 78,
        "5087": 218,
        "5088": 246,
        "5089": 188,
        "5090": 68,
        "5091": 70,
        "5092": 187,
        "5093": 109,
        "5094": 234,
        "5095": 43,
        "5096": 62,
        "5097": 233,
        "5098": 191,
        "5099": 54,
        "5100": 62,
        "5101": 33,
        "5102": 24,
        "5103": 136,
        "5104": 203,
        "5105": 226,
        "5106": 139,
        "5107": 29,
        "5108": 182,
        "5109": 244,
        "5110": 189,
        "5111": 200,
        "5112": 133,
        "5113": 184,
        "5114": 75,
        "5115": 147,
        "5116": 173,
        "5117": 24,
        "5118": 210,
        "5119": 194,
        "5120": 167,
        "5121": 9,
        "5122": 216,
        "5123": 93,
        "5124": 182,
        "5125": 93,
        "5126": 213,
        "5127": 245,
        "5128": 35,
        "5129": 169,
        "5130": 125,
        "5131": 180,
        "5132": 110,
        "5133": 163,
        "5134": 183,
        "5135": 226,
        "5136": 166,
        "5137": 144,
        "5138": 82,
        "5139": 123,
        "5140": 9,
        "5141": 108,
        "5142": 66,
        "5143": 231,
        "5144": 139,
        "5145": 110,
        "5146": 84,
        "5147": 97,
        "5148": 33,
        "5149": 199,
        "5150": 64,
        "5151": 102,
        "5152": 173,
        "5153": 88,
        "5154": 61,
        "5155": 30,
        "5156": 16,
        "5157": 49,
        "5158": 46,
        "5159": 158,
        "5160": 252,
        "5161": 239,
        "5162": 20,
        "5163": 185,
        "5164": 16,
        "5165": 202,
        "5166": 123,
        "5167": 207,
        "5168": 103,
        "5169": 197,
        "5170": 15,
        "5171": 62,
        "5172": 134,
        "5173": 86,
        "5174": 193,
        "5175": 228,
        "5176": 3,
        "5177": 93,
        "5178": 214,
        "5179": 40,
        "5180": 234,
        "5181": 57,
        "5182": 33,
        "5183": 20,
        "5184": 59,
        "5185": 130,
        "5186": 179,
        "5187": 76,
        "5188": 13,
        "5189": 119,
        "5190": 144,
        "5191": 22,
        "5192": 201,
        "5193": 60,
        "5194": 244,
        "5195": 190,
        "5196": 223,
        "5197": 17,
        "5198": 122,
        "5199": 30,
        "5200": 74,
        "5201": 166,
        "5202": 11,
        "5203": 207,
        "5204": 237,
        "5205": 58,
        "5206": 185,
        "5207": 72,
        "5208": 215,
        "5209": 61,
        "5210": 255,
        "5211": 4,
        "5212": 150,
        "5213": 83,
        "5214": 212,
        "5215": 133,
        "5216": 223,
        "5217": 133,
        "5218": 42,
        "5219": 143,
        "5220": 128,
        "5221": 143,
        "5222": 154,
        "5223": 80,
        "5224": 236,
        "5225": 93,
        "5226": 248,
        "5227": 39,
        "5228": 212,
        "5229": 0,
        "5230": 31,
        "5231": 181,
        "5232": 244,
        "5233": 23,
        "5234": 11,
        "5235": 49,
        "5236": 33,
        "5237": 185,
        "5238": 38,
        "5239": 78,
        "5240": 117,
        "5241": 85,
        "5242": 11,
        "5243": 93,
        "5244": 153,
        "5245": 81,
        "5246": 213,
        "5247": 201,
        "5248": 4,
        "5249": 170,
        "5250": 228,
        "5251": 47,
        "5252": 206,
        "5253": 20,
        "5254": 110,
        "5255": 58,
        "5256": 124,
        "5257": 32,
        "5258": 19,
        "5259": 41,
        "5260": 41,
        "5261": 51,
        "5262": 227,
        "5263": 53,
        "5264": 188,
        "5265": 182,
        "5266": 94,
        "5267": 157,
        "5268": 151,
        "5269": 123,
        "5270": 83,
        "5271": 252,
        "5272": 160,
        "5273": 109,
        "5274": 29,
        "5275": 238,
        "5276": 132,
        "5277": 106,
        "5278": 15,
        "5279": 129,
        "5280": 52,
        "5281": 32,
        "5282": 151,
        "5283": 44,
        "5284": 30,
        "5285": 179,
        "5286": 225,
        "5287": 37,
        "5288": 253,
        "5289": 192,
        "5290": 183,
        "5291": 111,
        "5292": 161,
        "5293": 49,
        "5294": 105,
        "5295": 76,
        "5296": 154,
        "5297": 222,
        "5298": 59,
        "5299": 60,
        "5300": 33,
        "5301": 45,
        "5302": 134,
        "5303": 184,
        "5304": 30,
        "5305": 178,
        "5306": 120,
        "5307": 89,
        "5308": 18,
        "5309": 75,
        "5310": 98,
        "5311": 104,
        "5312": 225,
        "5313": 175,
        "5314": 135,
        "5315": 23,
        "5316": 40,
        "5317": 221,
        "5318": 61,
        "5319": 163,
        "5320": 109,
        "5321": 129,
        "5322": 146,
        "5323": 111,
        "5324": 193,
        "5325": 149,
        "5326": 86,
        "5327": 90,
        "5328": 64,
        "5329": 187,
        "5330": 26,
        "5331": 208,
        "5332": 152,
        "5333": 6,
        "5334": 89,
        "5335": 20,
        "5336": 110,
        "5337": 14,
        "5338": 205,
        "5339": 198,
        "5340": 11,
        "5341": 250,
        "5342": 96,
        "5343": 157,
        "5344": 91,
        "5345": 98,
        "5346": 60,
        "5347": 29,
        "5348": 247,
        "5349": 78,
        "5350": 49,
        "5351": 102,
        "5352": 164,
        "5353": 174,
        "5354": 204,
        "5355": 217,
        "5356": 246,
        "5357": 133,
        "5358": 42,
        "5359": 193,
        "5360": 129,
        "5361": 67,
        "5362": 0,
        "5363": 201,
        "5364": 66,
        "5365": 146,
        "5366": 74,
        "5367": 89,
        "5368": 214,
        "5369": 165,
        "5370": 242,
        "5371": 61,
        "5372": 15,
        "5373": 112,
        "5374": 237,
        "5375": 62,
        "5376": 168,
        "5377": 73,
        "5378": 186,
        "5379": 151,
        "5380": 154,
        "5381": 90,
        "5382": 142,
        "5383": 206,
        "5384": 29,
        "5385": 236,
        "5386": 162,
        "5387": 254,
        "5388": 122,
        "5389": 193,
        "5390": 153,
        "5391": 237,
        "5392": 95,
        "5393": 181,
        "5394": 75,
        "5395": 112,
        "5396": 61,
        "5397": 8,
        "5398": 154,
        "5399": 91,
        "5400": 48,
        "5401": 76,
        "5402": 152,
        "5403": 255,
        "5404": 225,
        "5405": 2,
        "5406": 250,
        "5407": 41,
        "5408": 78,
        "5409": 72,
        "5410": 73,
        "5411": 35,
        "5412": 252,
        "5413": 223,
        "5414": 199,
        "5415": 176,
        "5416": 61,
        "5417": 233,
        "5418": 19,
        "5419": 48,
        "5420": 94,
        "5421": 148,
        "5422": 72,
        "5423": 202,
        "5424": 146,
        "5425": 198,
        "5426": 236,
        "5427": 19,
        "5428": 215,
        "5429": 141,
        "5430": 68,
        "5431": 204,
        "5432": 199,
        "5433": 14,
        "5434": 50,
        "5435": 48,
        "5436": 21,
        "5437": 246,
        "5438": 45,
        "5439": 154,
        "5440": 153,
        "5441": 89,
        "5442": 53,
        "5443": 20,
        "5444": 182,
        "5445": 66,
        "5446": 49,
        "5447": 236,
        "5448": 138,
        "5449": 219,
        "5450": 167,
        "5451": 7,
        "5452": 248,
        "5453": 138,
        "5454": 154,
        "5455": 132,
        "5456": 137,
        "5457": 20,
        "5458": 116,
        "5459": 197,
        "5460": 159,
        "5461": 75,
        "5462": 88,
        "5463": 49,
        "5464": 212,
        "5465": 147,
        "5466": 42,
        "5467": 223,
        "5468": 148,
        "5469": 247,
        "5470": 175,
        "5471": 145,
        "5472": 160,
        "5473": 254,
        "5474": 37,
        "5475": 36,
        "5476": 53,
        "5477": 197,
        "5478": 242,
        "5479": 90,
        "5480": 9,
        "5481": 66,
        "5482": 65,
        "5483": 12,
        "5484": 131,
        "5485": 201,
        "5486": 30,
        "5487": 232,
        "5488": 26,
        "5489": 172,
        "5490": 186,
        "5491": 127,
        "5492": 196,
        "5493": 64,
        "5494": 138,
        "5495": 158,
        "5496": 84,
        "5497": 49,
        "5498": 141,
        "5499": 236,
        "5500": 207,
        "5501": 72,
        "5502": 85,
        "5503": 194,
        "5504": 99,
        "5505": 152,
        "5506": 65,
        "5507": 69,
        "5508": 103,
        "5509": 92,
        "5510": 26,
        "5511": 244,
        "5512": 128,
        "5513": 210,
        "5514": 210,
        "5515": 159,
        "5516": 24,
        "5517": 130,
        "5518": 230,
        "5519": 20,
        "5520": 125,
        "5521": 177,
        "5522": 194,
        "5523": 148,
        "5524": 210,
        "5525": 215,
        "5526": 109,
        "5527": 155,
        "5528": 169,
        "5529": 73,
        "5530": 137,
        "5531": 21,
        "5532": 84,
        "5533": 142,
        "5534": 232,
        "5535": 58,
        "5536": 48,
        "5537": 108,
        "5538": 16,
        "5539": 251,
        "5540": 238,
        "5541": 254,
        "5542": 248,
        "5543": 116,
        "5544": 101,
        "5545": 218,
        "5546": 81,
        "5547": 72,
        "5548": 11,
        "5549": 68,
        "5550": 77,
        "5551": 228,
        "5552": 234,
        "5553": 147,
        "5554": 22,
        "5555": 187,
        "5556": 178,
        "5557": 15,
        "5558": 51,
        "5559": 137,
        "5560": 208,
        "5561": 136,
        "5562": 93,
        "5563": 116,
        "5564": 80,
        "5565": 114,
        "5566": 157,
        "5567": 109,
        "5568": 204,
        "5569": 19,
        "5570": 238,
        "5571": 201,
        "5572": 163,
        "5573": 88,
        "5574": 131,
        "5575": 83,
        "5576": 90,
        "5577": 225,
        "5578": 64,
        "5579": 5,
        "5580": 175,
        "5581": 195,
        "5582": 225,
        "5583": 35,
        "5584": 0,
        "5585": 32,
        "5586": 12,
        "5587": 151,
        "5588": 201,
        "5589": 111,
        "5590": 52,
        "5591": 157,
        "5592": 103,
        "5593": 163,
        "5594": 81,
        "5595": 188,
        "5596": 90,
        "5597": 165,
        "5598": 151,
        "5599": 249,
        "5600": 146,
        "5601": 30,
        "5602": 132,
        "5603": 254,
        "5604": 225,
        "5605": 90,
        "5606": 130,
        "5607": 32,
        "5608": 179,
        "5609": 156,
        "5610": 86,
        "5611": 13,
        "5612": 45,
        "5613": 213,
        "5614": 169,
        "5615": 181,
        "5616": 70,
        "5617": 35,
        "5618": 82,
        "5619": 216,
        "5620": 173,
        "5621": 114,
        "5622": 121,
        "5623": 129,
        "5624": 113,
        "5625": 39,
        "5626": 130,
        "5627": 18,
        "5628": 20,
        "5629": 205,
        "5630": 146,
        "5631": 173,
        "5632": 139,
        "5633": 196,
        "5634": 99,
        "5635": 135,
        "5636": 138,
        "5637": 223,
        "5638": 205,
        "5639": 101,
        "5640": 43,
        "5641": 69,
        "5642": 160,
        "5643": 133,
        "5644": 125,
        "5645": 137,
        "5646": 61,
        "5647": 255,
        "5648": 79,
        "5649": 189,
        "5650": 138,
        "5651": 55,
        "5652": 237,
        "5653": 210,
        "5654": 139,
        "5655": 175,
        "5656": 207,
        "5657": 224,
        "5658": 153,
        "5659": 81,
        "5660": 76,
        "5661": 108,
        "5662": 133,
        "5663": 175,
        "5664": 253,
        "5665": 167,
        "5666": 28,
        "5667": 82,
        "5668": 158,
        "5669": 19,
        "5670": 89,
        "5671": 148,
        "5672": 198,
        "5673": 136,
        "5674": 199,
        "5675": 189,
        "5676": 180,
        "5677": 206,
        "5678": 8,
        "5679": 65,
        "5680": 35,
        "5681": 219,
        "5682": 93,
        "5683": 114,
        "5684": 215,
        "5685": 5,
        "5686": 161,
        "5687": 52,
        "5688": 193,
        "5689": 233,
        "5690": 2,
        "5691": 184,
        "5692": 191,
        "5693": 101,
        "5694": 241,
        "5695": 201,
        "5696": 208,
        "5697": 173,
        "5698": 39,
        "5699": 243,
        "5700": 85,
        "5701": 35,
        "5702": 25,
        "5703": 76,
        "5704": 2,
        "5705": 103,
        "5706": 70,
        "5707": 187,
        "5708": 30,
        "5709": 189,
        "5710": 248,
        "5711": 168,
        "5712": 141,
        "5713": 5,
        "5714": 138,
        "5715": 213,
        "5716": 86,
        "5717": 79,
        "5718": 114,
        "5719": 31,
        "5720": 107,
        "5721": 54,
        "5722": 183,
        "5723": 240,
        "5724": 120,
        "5725": 231,
        "5726": 146,
        "5727": 156,
        "5728": 71,
        "5729": 220,
        "5730": 144,
        "5731": 175,
        "5732": 220,
        "5733": 212,
        "5734": 18,
        "5735": 140,
        "5736": 6,
        "5737": 211,
        "5738": 159,
        "5739": 111,
        "5740": 215,
        "5741": 158,
        "5742": 32,
        "5743": 125,
        "5744": 176,
        "5745": 15,
        "5746": 234,
        "5747": 59,
        "5748": 248,
        "5749": 136,
        "5750": 51,
        "5751": 236,
        "5752": 142,
        "5753": 253,
        "5754": 102,
        "5755": 14,
        "5756": 128,
        "5757": 144,
        "5758": 13,
        "5759": 119,
        "5760": 238,
        "5761": 181,
        "5762": 214,
        "5763": 100,
        "5764": 110,
        "5765": 189,
        "5766": 116,
        "5767": 194,
        "5768": 102,
        "5769": 44,
        "5770": 183,
        "5771": 47,
        "5772": 17,
        "5773": 249,
        "5774": 154,
        "5775": 86,
        "5776": 16,
        "5777": 15,
        "5778": 234,
        "5779": 10,
        "5780": 42,
        "5781": 126,
        "5782": 196,
        "5783": 123,
        "5784": 38,
        "5785": 239,
        "5786": 54,
        "5787": 250,
        "5788": 175,
        "5789": 204,
        "5790": 116,
        "5791": 193,
        "5792": 44,
        "5793": 59,
        "5794": 228,
        "5795": 105,
        "5796": 23,
        "5797": 106,
        "5798": 186,
        "5799": 113,
        "5800": 40,
        "5801": 249,
        "5802": 183,
        "5803": 100,
        "5804": 74,
        "5805": 59,
        "5806": 191,
        "5807": 221,
        "5808": 142,
        "5809": 155,
        "5810": 170,
        "5811": 243,
        "5812": 172,
        "5813": 3,
        "5814": 157,
        "5815": 230,
        "5816": 38,
        "5817": 173,
        "5818": 213,
        "5819": 255,
        "5820": 4,
        "5821": 221,
        "5822": 183,
        "5823": 83,
        "5824": 198,
        "5825": 243,
        "5826": 150,
        "5827": 138,
        "5828": 66,
        "5829": 77,
        "5830": 140,
        "5831": 87,
        "5832": 21,
        "5833": 194,
        "5834": 170,
        "5835": 160,
        "5836": 173,
        "5837": 129,
        "5838": 74,
        "5839": 90,
        "5840": 154,
        "5841": 102,
        "5842": 101,
        "5843": 98,
        "5844": 61,
        "5845": 95,
        "5846": 50,
        "5847": 182,
        "5848": 205,
        "5849": 60,
        "5850": 205,
        "5851": 75,
        "5852": 94,
        "5853": 183,
        "5854": 103,
        "5855": 30,
        "5856": 193,
        "5857": 54,
        "5858": 220,
        "5859": 228,
        "5860": 56,
        "5861": 247,
        "5862": 220,
        "5863": 158,
        "5864": 147,
        "5865": 94,
        "5866": 48,
        "5867": 200,
        "5868": 81,
        "5869": 166,
        "5870": 113,
        "5871": 95,
        "5872": 135,
        "5873": 113,
        "5874": 96,
        "5875": 61,
        "5876": 224,
        "5877": 163,
        "5878": 174,
        "5879": 91,
        "5880": 74,
        "5881": 104,
        "5882": 254,
        "5883": 97,
        "5884": 15,
        "5885": 177,
        "5886": 80,
        "5887": 89,
        "5888": 129,
        "5889": 51,
        "5890": 209,
        "5891": 7,
        "5892": 183,
        "5893": 204,
        "5894": 103,
        "5895": 207,
        "5896": 235,
        "5897": 97,
        "5898": 14,
        "5899": 76,
        "5900": 130,
        "5901": 21,
        "5902": 90,
        "5903": 254,
        "5904": 102,
        "5905": 94,
        "5906": 111,
        "5907": 79,
        "5908": 254,
        "5909": 222,
        "5910": 48,
        "5911": 37,
        "5912": 197,
        "5913": 158,
        "5914": 78,
        "5915": 156,
        "5916": 175,
        "5917": 135,
        "5918": 248,
        "5919": 236,
        "5920": 146,
        "5921": 80,
        "5922": 232,
        "5923": 240,
        "5924": 147,
        "5925": 106,
        "5926": 197,
        "5927": 178,
        "5928": 223,
        "5929": 167,
        "5930": 188,
        "5931": 217,
        "5932": 113,
        "5933": 27,
        "5934": 169,
        "5935": 76,
        "5936": 204,
        "5937": 105,
        "5938": 113,
        "5939": 62,
        "5940": 190,
        "5941": 180,
        "5942": 82,
        "5943": 180,
        "5944": 70,
        "5945": 49,
        "5946": 45,
        "5947": 23,
        "5948": 217,
        "5949": 54,
        "5950": 76,
        "5951": 102,
        "5952": 194,
        "5953": 209,
        "5954": 179,
        "5955": 18,
        "5956": 182,
        "5957": 252,
        "5958": 115,
        "5959": 85,
        "5960": 84,
        "5961": 186,
        "5962": 166,
        "5963": 83,
        "5964": 175,
        "5965": 38,
        "5966": 222,
        "5967": 130,
        "5968": 29,
        "5969": 212,
        "5970": 230,
        "5971": 148,
        "5972": 193,
        "5973": 147,
        "5974": 128,
        "5975": 102,
        "5976": 204,
        "5977": 222,
        "5978": 137,
        "5979": 42,
        "5980": 225,
        "5981": 111,
        "5982": 209,
        "5983": 69,
        "5984": 165,
        "5985": 216,
        "5986": 198,
        "5987": 240,
        "5988": 137,
        "5989": 74,
        "5990": 210,
        "5991": 237,
        "5992": 110,
        "5993": 21,
        "5994": 49,
        "5995": 97,
        "5996": 141,
        "5997": 157,
        "5998": 249,
        "5999": 244,
        "6000": 49,
        "6001": 224,
        "6002": 236,
        "6003": 145,
        "6004": 17,
        "6005": 27,
        "6006": 144,
        "6007": 211,
        "6008": 204,
        "6009": 115,
        "6010": 57,
        "6011": 125,
        "6012": 213,
        "6013": 220,
        "6014": 41,
        "6015": 160,
        "6016": 118,
        "6017": 205,
        "6018": 134,
        "6019": 146,
        "6020": 208,
        "6021": 110,
        "6022": 40,
        "6023": 203,
        "6024": 87,
        "6025": 213,
        "6026": 73,
        "6027": 236,
        "6028": 143,
        "6029": 7,
        "6030": 82,
        "6031": 107,
        "6032": 31,
        "6033": 88,
        "6034": 207,
        "6035": 228,
        "6036": 8,
        "6037": 193,
        "6038": 237,
        "6039": 75,
        "6040": 15,
        "6041": 157,
        "6042": 165,
        "6043": 82,
        "6044": 118,
        "6045": 79,
        "6046": 159,
        "6047": 49,
        "6048": 31,
        "6049": 106,
        "6050": 128,
        "6051": 183,
        "6052": 83,
        "6053": 5,
        "6054": 9,
        "6055": 254,
        "6056": 44,
        "6057": 63,
        "6058": 186,
        "6059": 13,
        "6060": 246,
        "6061": 188,
        "6062": 131,
        "6063": 20,
        "6064": 238,
        "6065": 169,
        "6066": 129,
        "6067": 60,
        "6068": 112,
        "6069": 149,
        "6070": 239,
        "6071": 139,
        "6072": 30,
        "6073": 12,
        "6074": 10,
        "6075": 29,
        "6076": 115,
        "6077": 147,
        "6078": 40,
        "6079": 31,
        "6080": 208,
        "6081": 236,
        "6082": 217,
        "6083": 195,
        "6084": 135,
        "6085": 3,
        "6086": 73,
        "6087": 255,
        "6088": 167,
        "6089": 200,
        "6090": 217,
        "6091": 111,
        "6092": 168,
        "6093": 103,
        "6094": 72,
        "6095": 255,
        "6096": 241,
        "6097": 102,
        "6098": 206,
        "6099": 173,
        "6100": 158,
        "6101": 210,
        "6102": 169,
        "6103": 188,
        "6104": 217,
        "6105": 84,
        "6106": 19,
        "6107": 89,
        "6108": 84,
        "6109": 243,
        "6110": 58,
        "6111": 247,
        "6112": 140,
        "6113": 234,
        "6114": 108,
        "6115": 11,
        "6116": 25,
        "6117": 120,
        "6118": 24,
        "6119": 160,
        "6120": 119,
        "6121": 194,
        "6122": 55,
        "6123": 63,
        "6124": 217,
        "6125": 251,
        "6126": 237,
        "6127": 115,
        "6128": 131,
        "6129": 198,
        "6130": 187,
        "6131": 170,
        "6132": 225,
        "6133": 78,
        "6134": 49,
        "6135": 220,
        "6136": 148,
        "6137": 58,
        "6138": 26,
        "6139": 23,
        "6140": 223,
        "6141": 153,
        "6142": 48,
        "6143": 221,
        "6144": 147,
        "6145": 128,
        "6146": 73,
        "6147": 190,
        "6148": 124,
        "6149": 132,
        "6150": 185,
        "6151": 216,
        "6152": 195,
        "6153": 149,
        "6154": 135,
        "6155": 65,
        "6156": 173,
        "6157": 189,
        "6158": 206,
        "6159": 154,
        "6160": 90,
        "6161": 6,
        "6162": 194,
        "6163": 191,
        "6164": 117,
        "6165": 66,
        "6166": 150,
        "6167": 132,
        "6168": 18,
        "6169": 115,
        "6170": 79,
        "6171": 167,
        "6172": 169,
        "6173": 171,
        "6174": 237,
        "6175": 203,
        "6176": 0,
        "6177": 141,
        "6178": 148,
        "6179": 211,
        "6180": 156,
        "6181": 150,
        "6182": 231,
        "6183": 41,
        "6184": 39,
        "6185": 53,
        "6186": 30,
        "6187": 232,
        "6188": 20,
        "6189": 180,
        "6190": 234,
        "6191": 69,
        "6192": 33,
        "6193": 163,
        "6194": 9,
        "6195": 17,
        "6196": 105,
        "6197": 186,
        "6198": 35,
        "6199": 205,
        "6200": 120,
        "6201": 198,
        "6202": 4,
        "6203": 0,
        "6204": 220,
        "6205": 64,
        "6206": 245,
        "6207": 36,
        "6208": 149,
        "6209": 237,
        "6210": 69,
        "6211": 1,
        "6212": 138,
        "6213": 31,
        "6214": 206,
        "6215": 69,
        "6216": 189,
        "6217": 147,
        "6218": 230,
        "6219": 156,
        "6220": 193,
        "6221": 240,
        "6222": 251,
        "6223": 100,
        "6224": 146,
        "6225": 96,
        "6226": 240,
        "6227": 88,
        "6228": 233,
        "6229": 236,
        "6230": 61,
        "6231": 239,
        "6232": 81,
        "6233": 180,
        "6234": 189,
        "6235": 63,
        "6236": 95,
        "6237": 178,
        "6238": 146,
        "6239": 117,
        "6240": 112,
        "6241": 188,
        "6242": 253,
        "6243": 67,
        "6244": 168,
        "6245": 98,
        "6246": 213,
        "6247": 240,
        "6248": 144,
        "6249": 5,
        "6250": 182,
        "6251": 46,
        "6252": 84,
        "6253": 140,
        "6254": 204,
        "6255": 58,
        "6256": 90,
        "6257": 5,
        "6258": 202,
        "6259": 24,
        "6260": 209,
        "6261": 253,
        "6262": 46,
        "6263": 40,
        "6264": 224,
        "6265": 205,
        "6266": 151,
        "6267": 22,
        "6268": 219,
        "6269": 71,
        "6270": 254,
        "6271": 85,
        "6272": 142,
        "6273": 115,
        "6274": 40,
        "6275": 114,
        "6276": 39,
        "6277": 151,
        "6278": 228,
        "6279": 239,
        "6280": 230,
        "6281": 241,
        "6282": 138,
        "6283": 9,
        "6284": 131,
        "6285": 106,
        "6286": 163,
        "6287": 158,
        "6288": 7,
        "6289": 224,
        "6290": 178,
        "6291": 119,
        "6292": 184,
        "6293": 205,
        "6294": 251,
        "6295": 214,
        "6296": 137,
        "6297": 108,
        "6298": 213,
        "6299": 240,
        "6300": 145,
        "6301": 195,
        "6302": 152,
        "6303": 158,
        "6304": 19,
        "6305": 109,
        "6306": 141,
        "6307": 168,
        "6308": 162,
        "6309": 244,
        "6310": 90,
        "6311": 198,
        "6312": 197,
        "6313": 161,
        "6314": 99,
        "6315": 27,
        "6316": 168,
        "6317": 105,
        "6318": 251,
        "6319": 18,
        "6320": 194,
        "6321": 13,
        "6322": 112,
        "6323": 27,
        "6324": 92,
        "6325": 173,
        "6326": 180,
        "6327": 61,
        "6328": 238,
        "6329": 29,
        "6330": 32,
        "6331": 238,
        "6332": 222,
        "6333": 225,
        "6334": 129,
        "6335": 130,
        "6336": 154,
        "6337": 229,
        "6338": 22,
        "6339": 147,
        "6340": 252,
        "6341": 45,
        "6342": 226,
        "6343": 112,
        "6344": 111,
        "6345": 198,
        "6346": 82,
        "6347": 107,
        "6348": 7,
        "6349": 96,
        "6350": 114,
        "6351": 119,
        "6352": 147,
        "6353": 130,
        "6354": 108,
        "6355": 56,
        "6356": 5,
        "6357": 57,
        "6358": 81,
        "6359": 141,
        "6360": 66,
        "6361": 186,
        "6362": 16,
        "6363": 65,
        "6364": 193,
        "6365": 240,
        "6366": 150,
        "6367": 212,
        "6368": 118,
        "6369": 63,
        "6370": 105,
        "6371": 165,
        "6372": 57,
        "6373": 2,
        "6374": 68,
        "6375": 25,
        "6376": 39,
        "6377": 130,
        "6378": 94,
        "6379": 211,
        "6380": 114,
        "6381": 202,
        "6382": 166,
        "6383": 150,
        "6384": 157,
        "6385": 104,
        "6386": 87,
        "6387": 185,
        "6388": 71,
        "6389": 92,
        "6390": 187,
        "6391": 36,
        "6392": 16,
        "6393": 181,
        "6394": 207,
        "6395": 170,
        "6396": 98,
        "6397": 4,
        "6398": 157,
        "6399": 89,
        "6400": 9,
        "6401": 62,
        "6402": 117,
        "6403": 216,
        "6404": 175,
        "6405": 82,
        "6406": 163,
        "6407": 221,
        "6408": 72,
        "6409": 144,
        "6410": 180,
        "6411": 11,
        "6412": 87,
        "6413": 141,
        "6414": 198,
        "6415": 84,
        "6416": 29,
        "6417": 145,
        "6418": 238,
        "6419": 92,
        "6420": 234,
        "6421": 196,
        "6422": 160,
        "6423": 188,
        "6424": 221,
        "6425": 251,
        "6426": 125,
        "6427": 231,
        "6428": 206,
        "6429": 150,
        "6430": 71,
        "6431": 229,
        "6432": 212,
        "6433": 20,
        "6434": 127,
        "6435": 103,
        "6436": 9,
        "6437": 251,
        "6438": 16,
        "6439": 80,
        "6440": 19,
        "6441": 228,
        "6442": 250,
        "6443": 177,
        "6444": 234,
        "6445": 226,
        "6446": 218,
        "6447": 163,
        "6448": 156,
        "6449": 106,
        "6450": 68,
        "6451": 179,
        "6452": 138,
        "6453": 171,
        "6454": 116,
        "6455": 94,
        "6456": 193,
        "6457": 199,
        "6458": 239,
        "6459": 111,
        "6460": 95,
        "6461": 63,
        "6462": 174,
        "6463": 112,
        "6464": 130,
        "6465": 144,
        "6466": 114,
        "6467": 79,
        "6468": 151,
        "6469": 224,
        "6470": 240,
        "6471": 82,
        "6472": 142,
        "6473": 62,
        "6474": 81,
        "6475": 64,
        "6476": 82,
        "6477": 29,
        "6478": 71,
        "6479": 108,
        "6480": 254,
        "6481": 212,
        "6482": 47,
        "6483": 127,
        "6484": 212,
        "6485": 68,
        "6486": 249,
        "6487": 139,
        "6488": 111,
        "6489": 238,
        "6490": 213,
        "6491": 166,
        "6492": 215,
        "6493": 133,
        "6494": 0,
        "6495": 33,
        "6496": 184,
        "6497": 126,
        "6498": 227,
        "6499": 172,
        "6500": 124,
        "6501": 88,
        "6502": 8,
        "6503": 65,
        "6504": 14,
        "6505": 79,
        "6506": 254,
        "6507": 97,
        "6508": 112,
        "6509": 97,
        "6510": 106,
        "6511": 211,
        "6512": 149,
        "6513": 238,
        "6514": 109,
        "6515": 131,
        "6516": 207,
        "6517": 21,
        "6518": 225,
        "6519": 248,
        "6520": 222,
        "6521": 52,
        "6522": 58,
        "6523": 86,
        "6524": 224,
        "6525": 143,
        "6526": 36,
        "6527": 230,
        "6528": 189,
        "6529": 195,
        "6530": 37,
        "6531": 167,
        "6532": 0,
        "6533": 144,
        "6534": 94,
        "6535": 146,
        "6536": 35,
        "6537": 243,
        "6538": 42,
        "6539": 144,
        "6540": 118,
        "6541": 42,
        "6542": 159,
        "6543": 244,
        "6544": 148,
        "6545": 60,
        "6546": 217,
        "6547": 227,
        "6548": 185,
        "6549": 171,
        "6550": 205,
        "6551": 159,
        "6552": 228,
        "6553": 106,
        "6554": 13,
        "6555": 119,
        "6556": 183,
        "6557": 229,
        "6558": 240,
        "6559": 181,
        "6560": 88,
        "6561": 98,
        "6562": 40,
        "6563": 167,
        "6564": 108,
        "6565": 215,
        "6566": 185,
        "6567": 232,
        "6568": 49,
        "6569": 146,
        "6570": 83,
        "6571": 78,
        "6572": 129,
        "6573": 192,
        "6574": 212,
        "6575": 233,
        "6576": 65,
        "6577": 225,
        "6578": 11,
        "6579": 194,
        "6580": 254,
        "6581": 159,
        "6582": 199,
        "6583": 146,
        "6584": 64,
        "6585": 77,
        "6586": 14,
        "6587": 74,
        "6588": 189,
        "6589": 202,
        "6590": 47,
        "6591": 58,
        "6592": 204,
        "6593": 0,
        "6594": 50,
        "6595": 242,
        "6596": 232,
        "6597": 3,
        "6598": 225,
        "6599": 133,
        "6600": 68,
        "6601": 97,
        "6602": 129,
        "6603": 67,
        "6604": 225,
        "6605": 242,
        "6606": 28,
        "6607": 222,
        "6608": 243,
        "6609": 237,
        "6610": 224,
        "6611": 207,
        "6612": 162,
        "6613": 189,
        "6614": 118,
        "6615": 138,
        "6616": 251,
        "6617": 243,
        "6618": 252,
        "6619": 95,
        "6620": 87,
        "6621": 217,
        "6622": 240,
        "6623": 65,
        "6624": 214,
        "6625": 251,
        "6626": 244,
        "6627": 123,
        "6628": 18,
        "6629": 48,
        "6630": 43,
        "6631": 101,
        "6632": 63,
        "6633": 63,
        "6634": 19,
        "6635": 18,
        "6636": 134,
        "6637": 114,
        "6638": 182,
        "6639": 82,
        "6640": 69,
        "6641": 227,
        "6642": 129,
        "6643": 169,
        "6644": 194,
        "6645": 52,
        "6646": 234,
        "6647": 42,
        "6648": 26,
        "6649": 76,
        "6650": 56,
        "6651": 125,
        "6652": 209,
        "6653": 24,
        "6654": 193,
        "6655": 127,
        "6656": 236,
        "6657": 124,
        "6658": 19,
        "6659": 140,
        "6660": 149,
        "6661": 84,
        "6662": 131,
        "6663": 66,
        "6664": 6,
        "6665": 174,
        "6666": 180,
        "6667": 93,
        "6668": 39,
        "6669": 239,
        "6670": 210,
        "6671": 237,
        "6672": 27,
        "6673": 142,
        "6674": 16,
        "6675": 26,
        "6676": 98,
        "6677": 104,
        "6678": 253,
        "6679": 26,
        "6680": 117,
        "6681": 172,
        "6682": 230,
        "6683": 250,
        "6684": 176,
        "6685": 163,
        "6686": 62,
        "6687": 35,
        "6688": 15,
        "6689": 76,
        "6690": 23,
        "6691": 69,
        "6692": 155,
        "6693": 249,
        "6694": 201,
        "6695": 205,
        "6696": 180,
        "6697": 25,
        "6698": 208,
        "6699": 57,
        "6700": 220,
        "6701": 15,
        "6702": 69,
        "6703": 128,
        "6704": 218,
        "6705": 161,
        "6706": 91,
        "6707": 71,
        "6708": 221,
        "6709": 235,
        "6710": 180,
        "6711": 90,
        "6712": 117,
        "6713": 216,
        "6714": 176,
        "6715": 186,
        "6716": 164,
        "6717": 162,
        "6718": 232,
        "6719": 154,
        "6720": 139,
        "6721": 50,
        "6722": 174,
        "6723": 5,
        "6724": 67,
        "6725": 96,
        "6726": 18,
        "6727": 252,
        "6728": 66,
        "6729": 120,
        "6730": 164,
        "6731": 167,
        "6732": 187,
        "6733": 160,
        "6734": 149,
        "6735": 84,
        "6736": 246,
        "6737": 239,
        "6738": 187,
        "6739": 136,
        "6740": 29,
        "6741": 201,
        "6742": 71,
        "6743": 180,
        "6744": 232,
        "6745": 255,
        "6746": 191,
        "6747": 214,
        "6748": 127,
        "6749": 4,
        "6750": 8,
        "6751": 238,
        "6752": 190,
        "6753": 94,
        "6754": 26,
        "6755": 7,
        "6756": 1,
        "6757": 233,
        "6758": 81,
        "6759": 212,
        "6760": 37,
        "6761": 121,
        "6762": 167,
        "6763": 129,
        "6764": 211,
        "6765": 224,
        "6766": 207,
        "6767": 183,
        "6768": 107,
        "6769": 216,
        "6770": 163,
        "6771": 57,
        "6772": 54,
        "6773": 16,
        "6774": 205,
        "6775": 29,
        "6776": 82,
        "6777": 38,
        "6778": 197,
        "6779": 36,
        "6780": 93,
        "6781": 122,
        "6782": 250,
        "6783": 33,
        "6784": 60,
        "6785": 64,
        "6786": 61,
        "6787": 101,
        "6788": 21,
        "6789": 51,
        "6790": 144,
        "6791": 122,
        "6792": 52,
        "6793": 225,
        "6794": 137,
        "6795": 232,
        "6796": 79,
        "6797": 99,
        "6798": 253,
        "6799": 39,
        "6800": 230,
        "6801": 2,
        "6802": 39,
        "6803": 140,
        "6804": 180,
        "6805": 0,
        "6806": 108,
        "6807": 181,
        "6808": 199,
        "6809": 36,
        "6810": 111,
        "6811": 212,
        "6812": 129,
        "6813": 207,
        "6814": 112,
        "6815": 147,
        "6816": 79,
        "6817": 36,
        "6818": 39,
        "6819": 54,
        "6820": 192,
        "6821": 92,
        "6822": 208,
        "6823": 47,
        "6824": 255,
        "6825": 225,
        "6826": 52,
        "6827": 255,
        "6828": 126,
        "6829": 34,
        "6830": 210,
        "6831": 114,
        "6832": 206,
        "6833": 225,
        "6834": 179,
        "6835": 183,
        "6836": 125,
        "6837": 32,
        "6838": 176,
        "6839": 3,
        "6840": 62,
        "6841": 219,
        "6842": 220,
        "6843": 69,
        "6844": 225,
        "6845": 55,
        "6846": 127,
        "6847": 235,
        "6848": 184,
        "6849": 189,
        "6850": 53,
        "6851": 5,
        "6852": 49,
        "6853": 199,
        "6854": 57,
        "6855": 100,
        "6856": 140,
        "6857": 67,
        "6858": 139,
        "6859": 176,
        "6860": 75,
        "6861": 184,
        "6862": 60,
        "6863": 62,
        "6864": 220,
        "6865": 71,
        "6866": 232,
        "6867": 20,
        "6868": 180,
        "6869": 191,
        "6870": 202,
        "6871": 147,
        "6872": 79,
        "6873": 243,
        "6874": 118,
        "6875": 21,
        "6876": 65,
        "6877": 52,
        "6878": 46,
        "6879": 124,
        "6880": 238,
        "6881": 224,
        "6882": 198,
        "6883": 197,
        "6884": 163,
        "6885": 126,
        "6886": 194,
        "6887": 96,
        "6888": 114,
        "6889": 149,
        "6890": 56,
        "6891": 165,
        "6892": 195,
        "6893": 152,
        "6894": 96,
        "6895": 78,
        "6896": 201,
        "6897": 67,
        "6898": 241,
        "6899": 92,
        "6900": 6,
        "6901": 98,
        "6902": 86,
        "6903": 236,
        "6904": 71,
        "6905": 32,
        "6906": 205,
        "6907": 57,
        "6908": 77,
        "6909": 209,
        "6910": 206,
        "6911": 24,
        "6912": 148,
        "6913": 115,
        "6914": 192,
        "6915": 0,
        "6916": 107,
        "6917": 8,
        "6918": 82,
        "6919": 123,
        "6920": 10,
        "6921": 93,
        "6922": 45,
        "6923": 197,
        "6924": 184,
        "6925": 187,
        "6926": 111,
        "6927": 108,
        "6928": 166,
        "6929": 106,
        "6930": 108,
        "6931": 26,
        "6932": 80,
        "6933": 163,
        "6934": 94,
        "6935": 151,
        "6936": 224,
        "6937": 187,
        "6938": 131,
        "6939": 159,
        "6940": 0,
        "6941": 139,
        "6942": 98,
        "6943": 203,
        "6944": 143,
        "6945": 176,
        "6946": 180,
        "6947": 36,
        "6948": 114,
        "6949": 40,
        "6950": 25,
        "6951": 159,
        "6952": 115,
        "6953": 59,
        "6954": 185,
        "6955": 247,
        "6956": 174,
        "6957": 136,
        "6958": 186,
        "6959": 232,
        "6960": 213,
        "6961": 39,
        "6962": 85,
        "6963": 64,
        "6964": 219,
        "6965": 128,
        "6966": 63,
        "6967": 175,
        "6968": 197,
        "6969": 211,
        "6970": 72,
        "6971": 6,
        "6972": 0,
        "6973": 146,
        "6974": 255,
        "6975": 64,
        "6976": 149,
        "6977": 53,
        "6978": 43,
        "6979": 14,
        "6980": 133,
        "6981": 93,
        "6982": 21,
        "6983": 255,
        "6984": 49,
        "6985": 50,
        "6986": 155,
        "6987": 136,
        "6988": 69,
        "6989": 239,
        "6990": 48,
        "6991": 51,
        "6992": 22,
        "6993": 254,
        "6994": 69,
        "6995": 64,
        "6996": 209,
        "6997": 98,
        "6998": 14,
        "6999": 6,
        "7000": 241,
        "7001": 18,
        "7002": 192,
        "7003": 78,
        "7004": 128,
        "7005": 202,
        "7006": 31,
        "7007": 232,
        "7008": 62,
        "7009": 22,
        "7010": 9,
        "7011": 167,
        "7012": 97,
        "7013": 227,
        "7014": 56,
        "7015": 192,
        "7016": 154,
        "7017": 213,
        "7018": 156,
        "7019": 4,
        "7020": 123,
        "7021": 7,
        "7022": 15,
        "7023": 23,
        "7024": 75,
        "7025": 71,
        "7026": 224,
        "7027": 126,
        "7028": 102,
        "7029": 118,
        "7030": 243,
        "7031": 124,
        "7032": 81,
        "7033": 52,
        "7034": 88,
        "7035": 28,
        "7036": 170,
        "7037": 124,
        "7038": 10,
        "7039": 162,
        "7040": 84,
        "7041": 249,
        "7042": 181,
        "7043": 36,
        "7044": 102,
        "7045": 111,
        "7046": 134,
        "7047": 246,
        "7048": 84,
        "7049": 71,
        "7050": 0,
        "7051": 27,
        "7052": 99,
        "7053": 241,
        "7054": 198,
        "7055": 30,
        "7056": 146,
        "7057": 185,
        "7058": 45,
        "7059": 226,
        "7060": 50,
        "7061": 104,
        "7062": 121,
        "7063": 13,
        "7064": 43,
        "7065": 41,
        "7066": 139,
        "7067": 217,
        "7068": 242,
        "7069": 30,
        "7070": 151,
        "7071": 242,
        "7072": 202,
        "7073": 250,
        "7074": 53,
        "7075": 98,
        "7076": 248,
        "7077": 237,
        "7078": 149,
        "7079": 16,
        "7080": 133,
        "7081": 149,
        "7082": 231,
        "7083": 178,
        "7084": 176,
        "7085": 233,
        "7086": 204,
        "7087": 3,
        "7088": 67,
        "7089": 66,
        "7090": 104,
        "7091": 236,
        "7092": 250,
        "7093": 114,
        "7094": 110,
        "7095": 54,
        "7096": 188,
        "7097": 228,
        "7098": 39,
        "7099": 42,
        "7100": 220,
        "7101": 97,
        "7102": 84,
        "7103": 25,
        "7104": 168,
        "7105": 224,
        "7106": 134,
        "7107": 140,
        "7108": 20,
        "7109": 177,
        "7110": 125,
        "7111": 201,
        "7112": 211,
        "7113": 76,
        "7114": 120,
        "7115": 22,
        "7116": 31,
        "7117": 217,
        "7118": 162,
        "7119": 234,
        "7120": 71,
        "7121": 0,
        "7122": 50,
        "7123": 164,
        "7124": 196,
        "7125": 146,
        "7126": 114,
        "7127": 77,
        "7128": 214,
        "7129": 68,
        "7130": 44,
        "7131": 85,
        "7132": 40,
        "7133": 206,
        "7134": 6,
        "7135": 40,
        "7136": 83,
        "7137": 171,
        "7138": 218,
        "7139": 74,
        "7140": 38,
        "7141": 167,
        "7142": 191,
        "7143": 114,
        "7144": 44,
        "7145": 126,
        "7146": 118,
        "7147": 188,
        "7148": 93,
        "7149": 206,
        "7150": 24,
        "7151": 67,
        "7152": 38,
        "7153": 160,
        "7154": 16,
        "7155": 162,
        "7156": 45,
        "7157": 137,
        "7158": 86,
        "7159": 44,
        "7160": 125,
        "7161": 21,
        "7162": 66,
        "7163": 206,
        "7164": 147,
        "7165": 106,
        "7166": 104,
        "7167": 107,
        "7168": 219,
        "7169": 8,
        "7170": 135,
        "7171": 148,
        "7172": 156,
        "7173": 9,
        "7174": 98,
        "7175": 46,
        "7176": 18,
        "7177": 100,
        "7178": 33,
        "7179": 235,
        "7180": 157,
        "7181": 13,
        "7182": 135,
        "7183": 127,
        "7184": 206,
        "7185": 254,
        "7186": 69,
        "7187": 194,
        "7188": 116,
        "7189": 165,
        "7190": 130,
        "7191": 104,
        "7192": 112,
        "7193": 131,
        "7194": 113,
        "7195": 124,
        "7196": 234,
        "7197": 214,
        "7198": 234,
        "7199": 87,
        "7200": 189,
        "7201": 126,
        "7202": 252,
        "7203": 64,
        "7204": 194,
        "7205": 175,
        "7206": 129,
        "7207": 69,
        "7208": 62,
        "7209": 53,
        "7210": 66,
        "7211": 108,
        "7212": 202,
        "7213": 220,
        "7214": 138,
        "7215": 192,
        "7216": 96,
        "7217": 46,
        "7218": 176,
        "7219": 138,
        "7220": 154,
        "7221": 72,
        "7222": 232,
        "7223": 128,
        "7224": 199,
        "7225": 77,
        "7226": 255,
        "7227": 8,
        "7228": 78,
        "7229": 125,
        "7230": 60,
        "7231": 66,
        "7232": 11,
        "7233": 227,
        "7234": 58,
        "7235": 50,
        "7236": 124,
        "7237": 83,
        "7238": 154,
        "7239": 251,
        "7240": 127,
        "7241": 55,
        "7242": 177,
        "7243": 106,
        "7244": 245,
        "7245": 63,
        "7246": 34,
        "7247": 212,
        "7248": 202,
        "7249": 160,
        "7250": 198,
        "7251": 216,
        "7252": 211,
        "7253": 107,
        "7254": 104,
        "7255": 184,
        "7256": 81,
        "7257": 41,
        "7258": 194,
        "7259": 234,
        "7260": 160,
        "7261": 34,
        "7262": 153,
        "7263": 90,
        "7264": 140,
        "7265": 250,
        "7266": 212,
        "7267": 103,
        "7268": 68,
        "7269": 234,
        "7270": 171,
        "7271": 182,
        "7272": 181,
        "7273": 18,
        "7274": 125,
        "7275": 61,
        "7276": 108,
        "7277": 173,
        "7278": 190,
        "7279": 168,
        "7280": 208,
        "7281": 141,
        "7282": 247,
        "7283": 52,
        "7284": 172,
        "7285": 13,
        "7286": 89,
        "7287": 164,
        "7288": 186,
        "7289": 241,
        "7290": 60,
        "7291": 47,
        "7292": 111,
        "7293": 77,
        "7294": 211,
        "7295": 27,
        "7296": 156,
        "7297": 160,
        "7298": 164,
        "7299": 248,
        "7300": 205,
        "7301": 119,
        "7302": 176,
        "7303": 145,
        "7304": 242,
        "7305": 175,
        "7306": 190,
        "7307": 239,
        "7308": 93,
        "7309": 67,
        "7310": 165,
        "7311": 205,
        "7312": 253,
        "7313": 33,
        "7314": 219,
        "7315": 71,
        "7316": 234,
        "7317": 170,
        "7318": 208,
        "7319": 166,
        "7320": 156,
        "7321": 76,
        "7322": 192,
        "7323": 78,
        "7324": 223,
        "7325": 117,
        "7326": 25,
        "7327": 222,
        "7328": 0,
        "7329": 114,
        "7330": 242,
        "7331": 137,
        "7332": 178,
        "7333": 55,
        "7334": 229,
        "7335": 128,
        "7336": 111,
        "7337": 204,
        "7338": 164,
        "7339": 100,
        "7340": 114,
        "7341": 217,
        "7342": 214,
        "7343": 57,
        "7344": 151,
        "7345": 52,
        "7346": 13,
        "7347": 107,
        "7348": 95,
        "7349": 219,
        "7350": 107,
        "7351": 67,
        "7352": 106,
        "7353": 162,
        "7354": 11,
        "7355": 177,
        "7356": 115,
        "7357": 235,
        "7358": 210,
        "7359": 147,
        "7360": 196,
        "7361": 160,
        "7362": 112,
        "7363": 96,
        "7364": 92,
        "7365": 138,
        "7366": 23,
        "7367": 129,
        "7368": 106,
        "7369": 195,
        "7370": 30,
        "7371": 8,
        "7372": 242,
        "7373": 213,
        "7374": 53,
        "7375": 16,
        "7376": 230,
        "7377": 55,
        "7378": 229,
        "7379": 89,
        "7380": 98,
        "7381": 245,
        "7382": 244,
        "7383": 244,
        "7384": 82,
        "7385": 174,
        "7386": 158,
        "7387": 212,
        "7388": 169,
        "7389": 133,
        "7390": 194,
        "7391": 156,
        "7392": 108,
        "7393": 110,
        "7394": 221,
        "7395": 66,
        "7396": 229,
        "7397": 120,
        "7398": 56,
        "7399": 245,
        "7400": 55,
        "7401": 45,
        "7402": 127,
        "7403": 191,
        "7404": 71,
        "7405": 99,
        "7406": 50,
        "7407": 210,
        "7408": 43,
        "7409": 170,
        "7410": 74,
        "7411": 73,
        "7412": 145,
        "7413": 193,
        "7414": 146,
        "7415": 41,
        "7416": 33,
        "7417": 249,
        "7418": 200,
        "7419": 140,
        "7420": 12,
        "7421": 159,
        "7422": 209,
        "7423": 215,
        "7424": 58,
        "7425": 114,
        "7426": 143,
        "7427": 247,
        "7428": 63,
        "7429": 205,
        "7430": 69,
        "7431": 238,
        "7432": 201,
        "7433": 188,
        "7434": 71,
        "7435": 113,
        "7436": 250,
        "7437": 26,
        "7438": 68,
        "7439": 61,
        "7440": 174,
        "7441": 235,
        "7442": 162,
        "7443": 247,
        "7444": 109,
        "7445": 232,
        "7446": 2,
        "7447": 82,
        "7448": 33,
        "7449": 147,
        "7450": 18,
        "7451": 18,
        "7452": 228,
        "7453": 164,
        "7454": 246,
        "7455": 187,
        "7456": 91,
        "7457": 241,
        "7458": 160,
        "7459": 100,
        "7460": 72,
        "7461": 185,
        "7462": 137,
        "7463": 181,
        "7464": 76,
        "7465": 137,
        "7466": 97,
        "7467": 207,
        "7468": 33,
        "7469": 54,
        "7470": 222,
        "7471": 102,
        "7472": 161,
        "7473": 65,
        "7474": 120,
        "7475": 249,
        "7476": 126,
        "7477": 96,
        "7478": 171,
        "7479": 55,
        "7480": 183,
        "7481": 78,
        "7482": 136,
        "7483": 159,
        "7484": 137,
        "7485": 41,
        "7486": 19,
        "7487": 38,
        "7488": 124,
        "7489": 142,
        "7490": 8,
        "7491": 214,
        "7492": 188,
        "7493": 224,
        "7494": 82,
        "7495": 15,
        "7496": 178,
        "7497": 29,
        "7498": 239,
        "7499": 170,
        "7500": 247,
        "7501": 162,
        "7502": 232,
        "7503": 178,
        "7504": 195,
        "7505": 85,
        "7506": 255,
        "7507": 78,
        "7508": 106,
        "7509": 125,
        "7510": 67,
        "7511": 174,
        "7512": 41,
        "7513": 188,
        "7514": 19,
        "7515": 39,
        "7516": 199,
        "7517": 38,
        "7518": 192,
        "7519": 84,
        "7520": 248,
        "7521": 156,
        "7522": 135,
        "7523": 197,
        "7524": 114,
        "7525": 72,
        "7526": 22,
        "7527": 216,
        "7528": 196,
        "7529": 55,
        "7530": 60,
        "7531": 177,
        "7532": 71,
        "7533": 109,
        "7534": 182,
        "7535": 189,
        "7536": 180,
        "7537": 226,
        "7538": 202,
        "7539": 162,
        "7540": 133,
        "7541": 184,
        "7542": 251,
        "7543": 56,
        "7544": 236,
        "7545": 86,
        "7546": 86,
        "7547": 9,
        "7548": 12,
        "7549": 163,
        "7550": 38,
        "7551": 201,
        "7552": 209,
        "7553": 85,
        "7554": 29,
        "7555": 16,
        "7556": 146,
        "7557": 221,
        "7558": 48,
        "7559": 32,
        "7560": 188,
        "7561": 52,
        "7562": 215,
        "7563": 172,
        "7564": 0,
        "7565": 72,
        "7566": 116,
        "7567": 98,
        "7568": 143,
        "7569": 121,
        "7570": 1,
        "7571": 123,
        "7572": 98,
        "7573": 185,
        "7574": 205,
        "7575": 184,
        "7576": 173,
        "7577": 75,
        "7578": 5,
        "7579": 51,
        "7580": 186,
        "7581": 91,
        "7582": 196,
        "7583": 26,
        "7584": 15,
        "7585": 142,
        "7586": 221,
        "7587": 194,
        "7588": 125,
        "7589": 130,
        "7590": 44,
        "7591": 87,
        "7592": 167,
        "7593": 205,
        "7594": 188,
        "7595": 245,
        "7596": 28,
        "7597": 41,
        "7598": 211,
        "7599": 152,
        "7600": 24,
        "7601": 162,
        "7602": 56,
        "7603": 206,
        "7604": 144,
        "7605": 110,
        "7606": 127,
        "7607": 225,
        "7608": 107,
        "7609": 28,
        "7610": 16,
        "7611": 170,
        "7612": 166,
        "7613": 164,
        "7614": 163,
        "7615": 100,
        "7616": 69,
        "7617": 50,
        "7618": 184,
        "7619": 177,
        "7620": 162,
        "7621": 219,
        "7622": 221,
        "7623": 228,
        "7624": 15,
        "7625": 176,
        "7626": 227,
        "7627": 163,
        "7628": 162,
        "7629": 160,
        "7630": 207,
        "7631": 53,
        "7632": 26,
        "7633": 224,
        "7634": 220,
        "7635": 52,
        "7636": 76,
        "7637": 152,
        "7638": 206,
        "7639": 79,
        "7640": 176,
        "7641": 50,
        "7642": 225,
        "7643": 21,
        "7644": 196,
        "7645": 159,
        "7646": 187,
        "7647": 228,
        "7648": 92,
        "7649": 135,
        "7650": 52,
        "7651": 216,
        "7652": 53,
        "7653": 69,
        "7654": 86,
        "7655": 171,
        "7656": 191,
        "7657": 174,
        "7658": 120,
        "7659": 51,
        "7660": 226,
        "7661": 212,
        "7662": 145,
        "7663": 187,
        "7664": 127,
        "7665": 143,
        "7666": 71,
        "7667": 175,
        "7668": 246,
        "7669": 253,
        "7670": 95,
        "7671": 251,
        "7672": 41,
        "7673": 218,
        "7674": 35,
        "7675": 226,
        "7676": 6,
        "7677": 149,
        "7678": 22,
        "7679": 58,
        "7680": 220,
        "7681": 121,
        "7682": 13,
        "7683": 196,
        "7684": 255,
        "7685": 52,
        "7686": 168,
        "7687": 221,
        "7688": 154,
        "7689": 104,
        "7690": 76,
        "7691": 49,
        "7692": 82,
        "7693": 156,
        "7694": 227,
        "7695": 136,
        "7696": 14,
        "7697": 125,
        "7698": 147,
        "7699": 49,
        "7700": 206,
        "7701": 179,
        "7702": 174,
        "7703": 231,
        "7704": 235,
        "7705": 39,
        "7706": 184,
        "7707": 199,
        "7708": 223,
        "7709": 223,
        "7710": 240,
        "7711": 66,
        "7712": 115,
        "7713": 150,
        "7714": 248,
        "7715": 245,
        "7716": 240,
        "7717": 41,
        "7718": 255,
        "7719": 141,
        "7720": 189,
        "7721": 208,
        "7722": 81,
        "7723": 4,
        "7724": 57,
        "7725": 240,
        "7726": 62,
        "7727": 130,
        "7728": 157,
        "7729": 53,
        "7730": 116,
        "7731": 165,
        "7732": 54,
        "7733": 208,
        "7734": 176,
        "7735": 50,
        "7736": 186,
        "7737": 108,
        "7738": 148,
        "7739": 43,
        "7740": 95,
        "7741": 181,
        "7742": 103,
        "7743": 55,
        "7744": 143,
        "7745": 237,
        "7746": 154,
        "7747": 14,
        "7748": 115,
        "7749": 239,
        "7750": 122,
        "7751": 167,
        "7752": 241,
        "7753": 5,
        "7754": 243,
        "7755": 254,
        "7756": 11,
        "7757": 85,
        "7758": 253,
        "7759": 202,
        "7760": 196,
        "7761": 63,
        "7762": 254,
        "7763": 116,
        "7764": 79,
        "7765": 140,
        "7766": 24,
        "7767": 71,
        "7768": 154,
        "7769": 55,
        "7770": 119,
        "7771": 141,
        "7772": 65,
        "7773": 150,
        "7774": 112,
        "7775": 243,
        "7776": 52,
        "7777": 47,
        "7778": 1,
        "7779": 145,
        "7780": 17,
        "7781": 32,
        "7782": 186,
        "7783": 154,
        "7784": 187,
        "7785": 253,
        "7786": 75,
        "7787": 91,
        "7788": 175,
        "7789": 95,
        "7790": 117,
        "7791": 176,
        "7792": 222,
        "7793": 125,
        "7794": 38,
        "7795": 42,
        "7796": 32,
        "7797": 32,
        "7798": 72,
        "7799": 25,
        "7800": 53,
        "7801": 143,
        "7802": 254,
        "7803": 47,
        "7804": 111,
        "7805": 143,
        "7806": 240,
        "7807": 105,
        "7808": 11,
        "7809": 100,
        "7810": 147,
        "7811": 196,
        "7812": 203,
        "7813": 224,
        "7814": 190,
        "7815": 195,
        "7816": 64,
        "7817": 181,
        "7818": 27,
        "7819": 216,
        "7820": 208,
        "7821": 172,
        "7822": 21,
        "7823": 206,
        "7824": 10,
        "7825": 165,
        "7826": 35,
        "7827": 39,
        "7828": 250,
        "7829": 194,
        "7830": 119,
        "7831": 4,
        "7832": 233,
        "7833": 133,
        "7834": 215,
        "7835": 234,
        "7836": 200,
        "7837": 111,
        "7838": 113,
        "7839": 93,
        "7840": 148,
        "7841": 57,
        "7842": 57,
        "7843": 222,
        "7844": 35,
        "7845": 164,
        "7846": 105,
        "7847": 208,
        "7848": 61,
        "7849": 7,
        "7850": 88,
        "7851": 251,
        "7852": 90,
        "7853": 213,
        "7854": 58,
        "7855": 124,
        "7856": 196,
        "7857": 122,
        "7858": 75,
        "7859": 70,
        "7860": 109,
        "7861": 24,
        "7862": 210,
        "7863": 62,
        "7864": 91,
        "7865": 1,
        "7866": 87,
        "7867": 75,
        "7868": 222,
        "7869": 39,
        "7870": 13,
        "7871": 247,
        "7872": 35,
        "7873": 42,
        "7874": 208,
        "7875": 52,
        "7876": 1,
        "7877": 127,
        "7878": 226,
        "7879": 229,
        "7880": 213,
        "7881": 55,
        "7882": 132,
        "7883": 168,
        "7884": 113,
        "7885": 153,
        "7886": 162,
        "7887": 6,
        "7888": 192,
        "7889": 164,
        "7890": 199,
        "7891": 39,
        "7892": 231,
        "7893": 197,
        "7894": 185,
        "7895": 233,
        "7896": 155,
        "7897": 239,
        "7898": 12,
        "7899": 215,
        "7900": 98,
        "7901": 59,
        "7902": 164,
        "7903": 27,
        "7904": 111,
        "7905": 241,
        "7906": 96,
        "7907": 4,
        "7908": 178,
        "7909": 235,
        "7910": 231,
        "7911": 153,
        "7912": 27,
        "7913": 50,
        "7914": 86,
        "7915": 36,
        "7916": 163,
        "7917": 212,
        "7918": 49,
        "7919": 24,
        "7920": 187,
        "7921": 56,
        "7922": 187,
        "7923": 197,
        "7924": 176,
        "7925": 237,
        "7926": 46,
        "7927": 10,
        "7928": 5,
        "7929": 189,
        "7930": 218,
        "7931": 120,
        "7932": 100,
        "7933": 85,
        "7934": 54,
        "7935": 28,
        "7936": 149,
        "7937": 70,
        "7938": 202,
        "7939": 49,
        "7940": 12,
        "7941": 29,
        "7942": 223,
        "7943": 98,
        "7944": 176,
        "7945": 30,
        "7946": 168,
        "7947": 41,
        "7948": 51,
        "7949": 45,
        "7950": 221,
        "7951": 85,
        "7952": 118,
        "7953": 66,
        "7954": 235,
        "7955": 179,
        "7956": 67,
        "7957": 71,
        "7958": 149,
        "7959": 108,
        "7960": 9,
        "7961": 54,
        "7962": 84,
        "7963": 182,
        "7964": 154,
        "7965": 242,
        "7966": 101,
        "7967": 38,
        "7968": 127,
        "7969": 244,
        "7970": 80,
        "7971": 14,
        "7972": 210,
        "7973": 67,
        "7974": 93,
        "7975": 131,
        "7976": 88,
        "7977": 10,
        "7978": 86,
        "7979": 184,
        "7980": 113,
        "7981": 50,
        "7982": 88,
        "7983": 185,
        "7984": 52,
        "7985": 62,
        "7986": 19,
        "7987": 194,
        "7988": 140,
        "7989": 62,
        "7990": 198,
        "7991": 18,
        "7992": 97,
        "7993": 219,
        "7994": 202,
        "7995": 114,
        "7996": 132,
        "7997": 107,
        "7998": 113,
        "7999": 139,
        "8000": 183,
        "8001": 81,
        "8002": 196,
        "8003": 213,
        "8004": 170,
        "8005": 141,
        "8006": 162,
        "8007": 204,
        "8008": 200,
        "8009": 222,
        "8010": 115,
        "8011": 134,
        "8012": 203,
        "8013": 93,
        "8014": 221,
        "8015": 87,
        "8016": 175,
        "8017": 56,
        "8018": 198,
        "8019": 170,
        "8020": 237,
        "8021": 216,
        "8022": 144,
        "8023": 194,
        "8024": 48,
        "8025": 220,
        "8026": 111,
        "8027": 189,
        "8028": 20,
        "8029": 239,
        "8030": 252,
        "8031": 183,
        "8032": 187,
        "8033": 134,
        "8034": 105,
        "8035": 135,
        "8036": 61,
        "8037": 232,
        "8038": 147,
        "8039": 143,
        "8040": 135,
        "8041": 201,
        "8042": 122,
        "8043": 94,
        "8044": 39,
        "8045": 151,
        "8046": 88,
        "8047": 50,
        "8048": 197,
        "8049": 241,
        "8050": 129,
        "8051": 81,
        "8052": 93,
        "8053": 112,
        "8054": 122,
        "8055": 241,
        "8056": 182,
        "8057": 220,
        "8058": 233,
        "8059": 230,
        "8060": 143,
        "8061": 54,
        "8062": 234,
        "8063": 10,
        "8064": 181,
        "8065": 77,
        "8066": 210,
        "8067": 191,
        "8068": 198,
        "8069": 158,
        "8070": 142,
        "8071": 42,
        "8072": 37,
        "8073": 233,
        "8074": 132,
        "8075": 194,
        "8076": 40,
        "8077": 122,
        "8078": 156,
        "8079": 64,
        "8080": 116,
        "8081": 187,
        "8082": 7,
        "8083": 196,
        "8084": 4,
        "8085": 183,
        "8086": 4,
        "8087": 188,
        "8088": 36,
        "8089": 231,
        "8090": 104,
        "8091": 182,
        "8092": 174,
        "8093": 79,
        "8094": 9,
        "8095": 137,
        "8096": 191,
        "8097": 241,
        "8098": 102,
        "8099": 178,
        "8100": 159,
        "8101": 191,
        "8102": 199,
        "8103": 224,
        "8104": 170,
        "8105": 231,
        "8106": 106,
        "8107": 236,
        "8108": 46,
        "8109": 109,
        "8110": 255,
        "8111": 163,
        "8112": 139,
        "8113": 106,
        "8114": 87,
        "8115": 6,
        "8116": 88,
        "8117": 100,
        "8118": 115,
        "8119": 154,
        "8120": 207,
        "8121": 186,
        "8122": 241,
        "8123": 106,
        "8124": 238,
        "8125": 245,
        "8126": 254,
        "8127": 94,
        "8128": 98,
        "8129": 45,
        "8130": 204,
        "8131": 154,
        "8132": 203,
        "8133": 151,
        "8134": 242,
        "8135": 195,
        "8136": 95,
        "8137": 231,
        "8138": 98,
        "8139": 100,
        "8140": 61,
        "8141": 60,
        "8142": 111,
        "8143": 125,
        "8144": 133,
        "8145": 168,
        "8146": 24,
        "8147": 186,
        "8148": 53,
        "8149": 141,
        "8150": 235,
        "8151": 4,
        "8152": 109,
        "8153": 180,
        "8154": 147,
        "8155": 231,
        "8156": 164,
        "8157": 227,
        "8158": 178,
        "8159": 47,
        "8160": 120,
        "8161": 57,
        "8162": 79,
        "8163": 144,
        "8164": 135,
        "8165": 209,
        "8166": 168,
        "8167": 41,
        "8168": 218,
        "8169": 92,
        "8170": 38,
        "8171": 136,
        "8172": 198,
        "8173": 138,
        "8174": 217,
        "8175": 19,
        "8176": 133,
        "8177": 104,
        "8178": 113,
        "8179": 194,
        "8180": 208,
        "8181": 1,
        "8182": 158,
        "8183": 52,
        "8184": 1,
        "8185": 190,
        "8186": 32,
        "8187": 199,
        "8188": 180,
        "8189": 206,
        "8190": 36,
        "8191": 137,
        "8192": 203,
        "8193": 178,
        "8194": 38,
        "8195": 75,
        "8196": 185,
        "8197": 138,
        "8198": 114,
        "8199": 83,
        "8200": 72,
        "8201": 8,
        "8202": 98,
        "8203": 22,
        "8204": 72,
        "8205": 235,
        "8206": 162,
        "8207": 172,
        "8208": 107,
        "8209": 63,
        "8210": 177,
        "8211": 228,
        "8212": 127,
        "8213": 95,
        "8214": 228,
        "8215": 51,
        "8216": 208,
        "8217": 112,
        "8218": 223,
        "8219": 84,
        "8220": 107,
        "8221": 45,
        "8222": 227,
        "8223": 219,
        "8224": 42,
        "8225": 124,
        "8226": 218,
        "8227": 34,
        "8228": 143,
        "8229": 151,
        "8230": 195,
        "8231": 117,
        "8232": 208,
        "8233": 69,
        "8234": 198,
        "8235": 240,
        "8236": 136,
        "8237": 114,
        "8238": 9,
        "8239": 153,
        "8240": 229,
        "8241": 250,
        "8242": 63,
        "8243": 59,
        "8244": 215,
        "8245": 123,
        "8246": 207,
        "8247": 190,
        "8248": 168,
        "8249": 42,
        "8250": 169,
        "8251": 121,
        "8252": 121,
        "8253": 255,
        "8254": 103,
        "8255": 10,
        "8256": 153,
        "8257": 232,
        "8258": 80,
        "8259": 4,
        "8260": 175,
        "8261": 247,
        "8262": 174,
        "8263": 100,
        "8264": 156,
        "8265": 160,
        "8266": 210,
        "8267": 115,
        "8268": 3,
        "8269": 41,
        "8270": 165,
        "8271": 155,
        "8272": 174,
        "8273": 167,
        "8274": 77,
        "8275": 252,
        "8276": 169,
        "8277": 18,
        "8278": 134,
        "8279": 165,
        "8280": 128,
        "8281": 180,
        "8282": 145,
        "8283": 38,
        "8284": 90,
        "8285": 185,
        "8286": 7,
        "8287": 242,
        "8288": 8,
        "8289": 38,
        "8290": 60,
        "8291": 244,
        "8292": 49,
        "8293": 33,
        "8294": 54,
        "8295": 90,
        "8296": 50,
        "8297": 147,
        "8298": 52,
        "8299": 228,
        "8300": 189,
        "8301": 126,
        "8302": 200,
        "8303": 219,
        "8304": 231,
        "8305": 100,
        "8306": 185,
        "8307": 83,
        "8308": 25,
        "8309": 79,
        "8310": 37,
        "8311": 140,
        "8312": 163,
        "8313": 120,
        "8314": 32,
        "8315": 228,
        "8316": 8,
        "8317": 79,
        "8318": 19,
        "8319": 159,
        "8320": 11,
        "8321": 204,
        "8322": 168,
        "8323": 222,
        "8324": 100,
        "8325": 106,
        "8326": 138,
        "8327": 159,
        "8328": 144,
        "8329": 61,
        "8330": 145,
        "8331": 116,
        "8332": 140,
        "8333": 151,
        "8334": 55,
        "8335": 198,
        "8336": 130,
        "8337": 99,
        "8338": 169,
        "8339": 121,
        "8340": 212,
        "8341": 164,
        "8342": 126,
        "8343": 99,
        "8344": 118,
        "8345": 148,
        "8346": 51,
        "8347": 41,
        "8348": 154,
        "8349": 115,
        "8350": 30,
        "8351": 221,
        "8352": 29,
        "8353": 79,
        "8354": 192,
        "8355": 211,
        "8356": 141,
        "8357": 222,
        "8358": 213,
        "8359": 86,
        "8360": 73,
        "8361": 233,
        "8362": 173,
        "8363": 154,
        "8364": 87,
        "8365": 251,
        "8366": 88,
        "8367": 155,
        "8368": 40,
        "8369": 60,
        "8370": 43,
        "8371": 85,
        "8372": 235,
        "8373": 30,
        "8374": 4,
        "8375": 11,
        "8376": 172,
        "8377": 214,
        "8378": 38,
        "8379": 103,
        "8380": 52,
        "8381": 165,
        "8382": 244,
        "8383": 119,
        "8384": 180,
        "8385": 228,
        "8386": 248,
        "8387": 4,
        "8388": 10,
        "8389": 139,
        "8390": 73,
        "8391": 35,
        "8392": 167,
        "8393": 187,
        "8394": 127,
        "8395": 252,
        "8396": 88,
        "8397": 177,
        "8398": 50,
        "8399": 155,
        "8400": 205,
        "8401": 46,
        "8402": 127,
        "8403": 83,
        "8404": 59,
        "8405": 240,
        "8406": 125,
        "8407": 124,
        "8408": 95,
        "8409": 197,
        "8410": 255,
        "8411": 30,
        "8412": 94,
        "8413": 88,
        "8414": 58,
        "8415": 144,
        "8416": 0,
        "8417": 0,
        "8418": 35,
        "8419": 3,
        "8420": 121,
        "8421": 25,
        "8422": 224,
        "8423": 84,
        "8424": 110,
        "8425": 4,
        "8426": 224,
        "8427": 131,
        "8428": 253,
        "8429": 43,
        "8430": 158,
        "8431": 252,
        "8432": 108,
        "8433": 244,
        "8434": 77,
        "8435": 158,
        "8436": 221,
        "8437": 181,
        "8438": 133,
        "8439": 137,
        "8440": 7,
        "8441": 97,
        "8442": 139,
        "8443": 42,
        "8444": 244,
        "8445": 12,
        "8446": 19,
        "8447": 103,
        "8448": 149,
        "8449": 64,
        "8450": 240,
        "8451": 191,
        "8452": 90,
        "8453": 105,
        "8454": 179,
        "8455": 153,
        "8456": 14,
        "8457": 233,
        "8458": 7,
        "8459": 120,
        "8460": 196,
        "8461": 200,
        "8462": 215,
        "8463": 165,
        "8464": 162,
        "8465": 88,
        "8466": 232,
        "8467": 169,
        "8468": 6,
        "8469": 63,
        "8470": 172,
        "8471": 76,
        "8472": 129,
        "8473": 102,
        "8474": 111,
        "8475": 60,
        "8476": 228,
        "8477": 70,
        "8478": 116,
        "8479": 37,
        "8480": 169,
        "8481": 223,
        "8482": 243,
        "8483": 68,
        "8484": 195,
        "8485": 96,
        "8486": 158,
        "8487": 158,
        "8488": 150,
        "8489": 222,
        "8490": 227,
        "8491": 20,
        "8492": 21,
        "8493": 91,
        "8494": 32,
        "8495": 54,
        "8496": 141,
        "8497": 38,
        "8498": 93,
        "8499": 176,
        "8500": 129,
        "8501": 114,
        "8502": 60,
        "8503": 198,
        "8504": 154,
        "8505": 188,
        "8506": 0,
        "8507": 193,
        "8508": 138,
        "8509": 249,
        "8510": 249,
        "8511": 235,
        "8512": 160,
        "8513": 136,
        "8514": 222,
        "8515": 241,
        "8516": 142,
        "8517": 130,
        "8518": 191,
        "8519": 118,
        "8520": 53,
        "8521": 162,
        "8522": 158,
        "8523": 43,
        "8524": 205,
        "8525": 149,
        "8526": 39,
        "8527": 149,
        "8528": 193,
        "8529": 231,
        "8530": 181,
        "8531": 240,
        "8532": 100,
        "8533": 192,
        "8534": 173,
        "8535": 50,
        "8536": 50,
        "8537": 234,
        "8538": 67,
        "8539": 47,
        "8540": 128,
        "8541": 90,
        "8542": 228,
        "8543": 152,
        "8544": 226,
        "8545": 155,
        "8546": 236,
        "8547": 46,
        "8548": 165,
        "8549": 21,
        "8550": 215,
        "8551": 111,
        "8552": 186,
        "8553": 103,
        "8554": 226,
        "8555": 120,
        "8556": 115,
        "8557": 242,
        "8558": 133,
        "8559": 28,
        "8560": 96,
        "8561": 131,
        "8562": 218,
        "8563": 186,
        "8564": 80,
        "8565": 91,
        "8566": 146,
        "8567": 15,
        "8568": 240,
        "8569": 101,
        "8570": 77,
        "8571": 86,
        "8572": 81,
        "8573": 6,
        "8574": 183,
        "8575": 243,
        "8576": 222,
        "8577": 172,
        "8578": 241,
        "8579": 228,
        "8580": 122,
        "8581": 23,
        "8582": 171,
        "8583": 138,
        "8584": 227,
        "8585": 197,
        "8586": 27,
        "8587": 206,
        "8588": 109,
        "8589": 223,
        "8590": 112,
        "8591": 243,
        "8592": 188,
        "8593": 68,
        "8594": 108,
        "8595": 151,
        "8596": 10,
        "8597": 38,
        "8598": 53,
        "8599": 134,
        "8600": 46,
        "8601": 19,
        "8602": 42,
        "8603": 149,
        "8604": 211,
        "8605": 167,
        "8606": 222,
        "8607": 44,
        "8608": 46,
        "8609": 27,
        "8610": 97,
        "8611": 165,
        "8612": 223,
        "8613": 214,
        "8614": 172,
        "8615": 167,
        "8616": 194,
        "8617": 198,
        "8618": 231,
        "8619": 195,
        "8620": 130,
        "8621": 33,
        "8622": 147,
        "8623": 106,
        "8624": 88,
        "8625": 223,
        "8626": 18,
        "8627": 255,
        "8628": 182,
        "8629": 128,
        "8630": 253,
        "8631": 255,
        "8632": 103,
        "8633": 228,
        "8634": 212,
        "8635": 242,
        "8636": 62,
        "8637": 22,
        "8638": 154,
        "8639": 250,
        "8640": 147,
        "8641": 14,
        "8642": 82,
        "8643": 146,
        "8644": 142,
        "8645": 251,
        "8646": 175,
        "8647": 246,
        "8648": 17,
        "8649": 234,
        "8650": 146,
        "8651": 58,
        "8652": 32,
        "8653": 43,
        "8654": 131,
        "8655": 246,
        "8656": 208,
        "8657": 58,
        "8658": 62,
        "8659": 248,
        "8660": 87,
        "8661": 167,
        "8662": 63,
        "8663": 196,
        "8664": 12,
        "8665": 207,
        "8666": 14,
        "8667": 119,
        "8668": 56,
        "8669": 83,
        "8670": 86,
        "8671": 134,
        "8672": 242,
        "8673": 235,
        "8674": 40,
        "8675": 58,
        "8676": 61,
        "8677": 202,
        "8678": 33,
        "8679": 238,
        "8680": 210,
        "8681": 125,
        "8682": 150,
        "8683": 88,
        "8684": 171,
        "8685": 83,
        "8686": 200,
        "8687": 215,
        "8688": 78,
        "8689": 60,
        "8690": 158,
        "8691": 174,
        "8692": 218,
        "8693": 210,
        "8694": 13,
        "8695": 165,
        "8696": 19,
        "8697": 161,
        "8698": 71,
        "8699": 232,
        "8700": 178,
        "8701": 9,
        "8702": 10,
        "8703": 73,
        "8704": 163,
        "8705": 32,
        "8706": 28,
        "8707": 251,
        "8708": 40,
        "8709": 5,
        "8710": 48,
        "8711": 136,
        "8712": 62,
        "8713": 171,
        "8714": 65,
        "8715": 177,
        "8716": 179,
        "8717": 116,
        "8718": 190,
        "8719": 10,
        "8720": 172,
        "8721": 121,
        "8722": 132,
        "8723": 173,
        "8724": 169,
        "8725": 119,
        "8726": 80,
        "8727": 103,
        "8728": 17,
        "8729": 21,
        "8730": 64,
        "8731": 187,
        "8732": 234,
        "8733": 29,
        "8734": 9,
        "8735": 35,
        "8736": 144,
        "8737": 105,
        "8738": 121,
        "8739": 49,
        "8740": 192,
        "8741": 81,
        "8742": 254,
        "8743": 15,
        "8744": 55,
        "8745": 79,
        "8746": 156,
        "8747": 241,
        "8748": 6,
        "8749": 20,
        "8750": 249,
        "8751": 174,
        "8752": 197,
        "8753": 139,
        "8754": 124,
        "8755": 176,
        "8756": 122,
        "8757": 32,
        "8758": 45,
        "8759": 4,
        "8760": 163,
        "8761": 221,
        "8762": 215,
        "8763": 214,
        "8764": 23,
        "8765": 191,
        "8766": 51,
        "8767": 144,
        "8768": 233,
        "8769": 109,
        "8770": 130,
        "8771": 17,
        "8772": 163,
        "8773": 18,
        "8774": 152,
        "8775": 30,
        "8776": 253,
        "8777": 65,
        "8778": 233,
        "8779": 118,
        "8780": 180,
        "8781": 207,
        "8782": 254,
        "8783": 179,
        "8784": 84,
        "8785": 66,
        "8786": 137,
        "8787": 113,
        "8788": 166,
        "8789": 140,
        "8790": 250,
        "8791": 90,
        "8792": 229,
        "8793": 129,
        "8794": 8,
        "8795": 103,
        "8796": 142,
        "8797": 109,
        "8798": 8,
        "8799": 158,
        "8800": 182,
        "8801": 82,
        "8802": 81,
        "8803": 16,
        "8804": 143,
        "8805": 213,
        "8806": 132,
        "8807": 249,
        "8808": 97,
        "8809": 208,
        "8810": 131,
        "8811": 181,
        "8812": 148,
        "8813": 139,
        "8814": 62,
        "8815": 42,
        "8816": 237,
        "8817": 248,
        "8818": 160,
        "8819": 101,
        "8820": 150,
        "8821": 28,
        "8822": 104,
        "8823": 183,
        "8824": 52,
        "8825": 179,
        "8826": 189,
        "8827": 166,
        "8828": 155,
        "8829": 180,
        "8830": 200,
        "8831": 243,
        "8832": 179,
        "8833": 170,
        "8834": 254,
        "8835": 83,
        "8836": 14,
        "8837": 181,
        "8838": 236,
        "8839": 136,
        "8840": 153,
        "8841": 50,
        "8842": 84,
        "8843": 146,
        "8844": 83,
        "8845": 98,
        "8846": 192,
        "8847": 192,
        "8848": 252,
        "8849": 141,
        "8850": 137,
        "8851": 85,
        "8852": 118,
        "8853": 135,
        "8854": 229,
        "8855": 156,
        "8856": 160,
        "8857": 139,
        "8858": 254,
        "8859": 46,
        "8860": 25,
        "8861": 238,
        "8862": 49,
        "8863": 238,
        "8864": 53,
        "8865": 231,
        "8866": 32,
        "8867": 135,
        "8868": 83,
        "8869": 22,
        "8870": 147,
        "8871": 151,
        "8872": 135,
        "8873": 58,
        "8874": 97,
        "8875": 160,
        "8876": 135,
        "8877": 224,
        "8878": 76,
        "8879": 25,
        "8880": 88,
        "8881": 133,
        "8882": 252,
        "8883": 122,
        "8884": 82,
        "8885": 27,
        "8886": 167,
        "8887": 90,
        "8888": 171,
        "8889": 182,
        "8890": 234,
        "8891": 84,
        "8892": 238,
        "8893": 64,
        "8894": 108,
        "8895": 135,
        "8896": 43,
        "8897": 236,
        "8898": 100,
        "8899": 196,
        "8900": 31,
        "8901": 138,
        "8902": 90,
        "8903": 175,
        "8904": 144,
        "8905": 255,
        "8906": 81,
        "8907": 141,
        "8908": 209,
        "8909": 194,
        "8910": 21,
        "8911": 202,
        "8912": 221,
        "8913": 184,
        "8914": 82,
        "8915": 238,
        "8916": 13,
        "8917": 218,
        "8918": 146,
        "8919": 84,
        "8920": 174,
        "8921": 168,
        "8922": 81,
        "8923": 230,
        "8924": 202,
        "8925": 154,
        "8926": 76,
        "8927": 44,
        "8928": 97,
        "8929": 102,
        "8930": 137,
        "8931": 58,
        "8932": 128,
        "8933": 199,
        "8934": 122,
        "8935": 139,
        "8936": 190,
        "8937": 175,
        "8938": 167,
        "8939": 88,
        "8940": 96,
        "8941": 30,
        "8942": 77,
        "8943": 167,
        "8944": 2,
        "8945": 58,
        "8946": 250,
        "8947": 179,
        "8948": 228,
        "8949": 19,
        "8950": 200,
        "8951": 79,
        "8952": 32,
        "8953": 107,
        "8954": 22,
        "8955": 75,
        "8956": 167,
        "8957": 103,
        "8958": 8,
        "8959": 113,
        "8960": 171,
        "8961": 255,
        "8962": 238,
        "8963": 46,
        "8964": 248,
        "8965": 252,
        "8966": 122,
        "8967": 240,
        "8968": 75,
        "8969": 172,
        "8970": 175,
        "8971": 221,
        "8972": 167,
        "8973": 45,
        "8974": 48,
        "8975": 226,
        "8976": 187,
        "8977": 139,
        "8978": 192,
        "8979": 45,
        "8980": 238,
        "8981": 131,
        "8982": 210,
        "8983": 48,
        "8984": 206,
        "8985": 7,
        "8986": 13,
        "8987": 20,
        "8988": 109,
        "8989": 79,
        "8990": 96,
        "8991": 25,
        "8992": 91,
        "8993": 9,
        "8994": 60,
        "8995": 166,
        "8996": 147,
        "8997": 37,
        "8998": 206,
        "8999": 98,
        "9000": 112,
        "9001": 3,
        "9002": 13,
        "9003": 64,
        "9004": 184,
        "9005": 121,
        "9006": 101,
        "9007": 122,
        "9008": 193,
        "9009": 219,
        "9010": 148,
        "9011": 32,
        "9012": 95,
        "9013": 208,
        "9014": 87,
        "9015": 163,
        "9016": 111,
        "9017": 185,
        "9018": 21,
        "9019": 132,
        "9020": 215,
        "9021": 22,
        "9022": 228,
        "9023": 69,
        "9024": 113,
        "9025": 33,
        "9026": 5,
        "9027": 97,
        "9028": 145,
        "9029": 246,
        "9030": 89,
        "9031": 184,
        "9032": 162,
        "9033": 254,
        "9034": 75,
        "9035": 194,
        "9036": 207,
        "9037": 178,
        "9038": 15,
        "9039": 146,
        "9040": 96,
        "9041": 222,
        "9042": 173,
        "9043": 3,
        "9044": 188,
        "9045": 64,
        "9046": 188,
        "9047": 20,
        "9048": 149,
        "9049": 99,
        "9050": 226,
        "9051": 197,
        "9052": 196,
        "9053": 186,
        "9054": 139,
        "9055": 88,
        "9056": 175,
        "9057": 248,
        "9058": 221,
        "9059": 230,
        "9060": 111,
        "9061": 136,
        "9062": 94,
        "9063": 111,
        "9064": 152,
        "9065": 141,
        "9066": 0,
        "9067": 25,
        "9068": 121,
        "9069": 42,
        "9070": 243,
        "9071": 229,
        "9072": 155,
        "9073": 238,
        "9074": 57,
        "9075": 49,
        "9076": 119,
        "9077": 164,
        "9078": 75,
        "9079": 140,
        "9080": 35,
        "9081": 115,
        "9082": 71,
        "9083": 196,
        "9084": 224,
        "9085": 216,
        "9086": 118,
        "9087": 225,
        "9088": 153,
        "9089": 102,
        "9090": 148,
        "9091": 224,
        "9092": 11,
        "9093": 178,
        "9094": 160,
        "9095": 23,
        "9096": 79,
        "9097": 217,
        "9098": 117,
        "9099": 162,
        "9100": 215,
        "9101": 94,
        "9102": 184,
        "9103": 77,
        "9104": 199,
        "9105": 82,
        "9106": 207,
        "9107": 120,
        "9108": 63,
        "9109": 102,
        "9110": 233,
        "9111": 113,
        "9112": 124,
        "9113": 21,
        "9114": 189,
        "9115": 83,
        "9116": 109,
        "9117": 130,
        "9118": 159,
        "9119": 203,
        "9120": 35,
        "9121": 11,
        "9122": 190,
        "9123": 27,
        "9124": 216,
        "9125": 78,
        "9126": 55,
        "9127": 85,
        "9128": 252,
        "9129": 98,
        "9130": 121,
        "9131": 36,
        "9132": 97,
        "9133": 89,
        "9134": 140,
        "9135": 30,
        "9136": 10,
        "9137": 5,
        "9138": 57,
        "9139": 226,
        "9140": 250,
        "9141": 29,
        "9142": 101,
        "9143": 67,
        "9144": 89,
        "9145": 235,
        "9146": 174,
        "9147": 25,
        "9148": 167,
        "9149": 122,
        "9150": 116,
        "9151": 131,
        "9152": 236,
        "9153": 38,
        "9154": 206,
        "9155": 106,
        "9156": 179,
        "9157": 79,
        "9158": 231,
        "9159": 188,
        "9160": 156,
        "9161": 204,
        "9162": 80,
        "9163": 210,
        "9164": 172,
        "9165": 29,
        "9166": 169,
        "9167": 162,
        "9168": 150,
        "9169": 133,
        "9170": 118,
        "9171": 153,
        "9172": 241,
        "9173": 3,
        "9174": 118,
        "9175": 28,
        "9176": 70,
        "9177": 218,
        "9178": 248,
        "9179": 15,
        "9180": 126,
        "9181": 249,
        "9182": 185,
        "9183": 22,
        "9184": 254,
        "9185": 229,
        "9186": 42,
        "9187": 3,
        "9188": 51,
        "9189": 20,
        "9190": 97,
        "9191": 77,
        "9192": 136,
        "9193": 218,
        "9194": 245,
        "9195": 17,
        "9196": 37,
        "9197": 192,
        "9198": 189,
        "9199": 30,
        "9200": 189,
        "9201": 170,
        "9202": 56,
        "9203": 83,
        "9204": 25,
        "9205": 69,
        "9206": 80,
        "9207": 135,
        "9208": 207,
        "9209": 170,
        "9210": 49,
        "9211": 165,
        "9212": 32,
        "9213": 128,
        "9214": 65,
        "9215": 178,
        "9216": 15,
        "9217": 37,
        "9218": 126,
        "9219": 86,
        "9220": 80,
        "9221": 46,
        "9222": 79,
        "9223": 226,
        "9224": 39,
        "9225": 201,
        "9226": 136,
        "9227": 171,
        "9228": 139,
        "9229": 221,
        "9230": 173,
        "9231": 145,
        "9232": 224,
        "9233": 252,
        "9234": 44,
        "9235": 149,
        "9236": 228,
        "9237": 35,
        "9238": 122,
        "9239": 175,
        "9240": 153,
        "9241": 167,
        "9242": 29,
        "9243": 69,
        "9244": 51,
        "9245": 204,
        "9246": 60,
        "9247": 241,
        "9248": 42,
        "9249": 110,
        "9250": 62,
        "9251": 3,
        "9252": 111,
        "9253": 190,
        "9254": 63,
        "9255": 219,
        "9256": 244,
        "9257": 251,
        "9258": 179,
        "9259": 209,
        "9260": 254,
        "9261": 76,
        "9262": 72,
        "9263": 33,
        "9264": 174,
        "9265": 193,
        "9266": 146,
        "9267": 190,
        "9268": 72,
        "9269": 159,
        "9270": 105,
        "9271": 74,
        "9272": 170,
        "9273": 55,
        "9274": 38,
        "9275": 6,
        "9276": 234,
        "9277": 233,
        "9278": 187,
        "9279": 128,
        "9280": 165,
        "9281": 67,
        "9282": 29,
        "9283": 90,
        "9284": 181,
        "9285": 169,
        "9286": 3,
        "9287": 113,
        "9288": 159,
        "9289": 205,
        "9290": 149,
        "9291": 209,
        "9292": 145,
        "9293": 123,
        "9294": 147,
        "9295": 176,
        "9296": 93,
        "9297": 11,
        "9298": 70,
        "9299": 40,
        "9300": 32,
        "9301": 108,
        "9302": 68,
        "9303": 6,
        "9304": 24,
        "9305": 63,
        "9306": 46,
        "9307": 68,
        "9308": 125,
        "9309": 91,
        "9310": 249,
        "9311": 44,
        "9312": 98,
        "9313": 209,
        "9314": 176,
        "9315": 187,
        "9316": 142,
        "9317": 71,
        "9318": 241,
        "9319": 191,
        "9320": 83,
        "9321": 68,
        "9322": 107,
        "9323": 172,
        "9324": 167,
        "9325": 58,
        "9326": 146,
        "9327": 187,
        "9328": 179,
        "9329": 72,
        "9330": 169,
        "9331": 53,
        "9332": 3,
        "9333": 130,
        "9334": 170,
        "9335": 175,
        "9336": 100,
        "9337": 81,
        "9338": 100,
        "9339": 56,
        "9340": 190,
        "9341": 63,
        "9342": 202,
        "9343": 245,
        "9344": 24,
        "9345": 141,
        "9346": 144,
        "9347": 127,
        "9348": 254,
        "9349": 169,
        "9350": 210,
        "9351": 111,
        "9352": 226,
        "9353": 21,
        "9354": 169,
        "9355": 229,
        "9356": 38,
        "9357": 241,
        "9358": 184,
        "9359": 210,
        "9360": 234,
        "9361": 197,
        "9362": 7,
        "9363": 35,
        "9364": 42,
        "9365": 13,
        "9366": 5,
        "9367": 121,
        "9368": 34,
        "9369": 255,
        "9370": 251,
        "9371": 65,
        "9372": 98,
        "9373": 206,
        "9374": 165,
        "9375": 170,
        "9376": 68,
        "9377": 65,
        "9378": 159,
        "9379": 90,
        "9380": 20,
        "9381": 71,
        "9382": 213,
        "9383": 85,
        "9384": 79,
        "9385": 132,
        "9386": 188,
        "9387": 116,
        "9388": 238,
        "9389": 151,
        "9390": 52,
        "9391": 157,
        "9392": 193,
        "9393": 239,
        "9394": 15,
        "9395": 49,
        "9396": 35,
        "9397": 170,
        "9398": 141,
        "9399": 251,
        "9400": 185,
        "9401": 173,
        "9402": 78,
        "9403": 113,
        "9404": 4,
        "9405": 100,
        "9406": 171,
        "9407": 95,
        "9408": 88,
        "9409": 233,
        "9410": 78,
        "9411": 47,
        "9412": 13,
        "9413": 79,
        "9414": 241,
        "9415": 50,
        "9416": 10,
        "9417": 93,
        "9418": 188,
        "9419": 197,
        "9420": 109,
        "9421": 187,
        "9422": 184,
        "9423": 190,
        "9424": 18,
        "9425": 9,
        "9426": 76,
        "9427": 43,
        "9428": 29,
        "9429": 12,
        "9430": 232,
        "9431": 63,
        "9432": 20,
        "9433": 85,
        "9434": 249,
        "9435": 170,
        "9436": 72,
        "9437": 151,
        "9438": 227,
        "9439": 182,
        "9440": 3,
        "9441": 91,
        "9442": 13,
        "9443": 24,
        "9444": 47,
        "9445": 95,
        "9446": 127,
        "9447": 21,
        "9448": 224,
        "9449": 158,
        "9450": 17,
        "9451": 158,
        "9452": 158,
        "9453": 226,
        "9454": 38,
        "9455": 222,
        "9456": 166,
        "9457": 165,
        "9458": 191,
        "9459": 213,
        "9460": 151,
        "9461": 140,
        "9462": 180,
        "9463": 171,
        "9464": 168,
        "9465": 164,
        "9466": 134,
        "9467": 67,
        "9468": 20,
        "9469": 226,
        "9470": 45,
        "9471": 56,
        "9472": 37,
        "9473": 72,
        "9474": 164,
        "9475": 209,
        "9476": 104,
        "9477": 127,
        "9478": 131,
        "9479": 45,
        "9480": 172,
        "9481": 1,
        "9482": 12,
        "9483": 111,
        "9484": 119,
        "9485": 15,
        "9486": 223,
        "9487": 193,
        "9488": 44,
        "9489": 158,
        "9490": 251,
        "9491": 78,
        "9492": 225,
        "9493": 69,
        "9494": 248,
        "9495": 91,
        "9496": 139,
        "9497": 35,
        "9498": 103,
        "9499": 16,
        "9500": 153,
        "9501": 137,
        "9502": 15,
        "9503": 233,
        "9504": 152,
        "9505": 85,
        "9506": 120,
        "9507": 31,
        "9508": 204,
        "9509": 100,
        "9510": 203,
        "9511": 210,
        "9512": 87,
        "9513": 200,
        "9514": 114,
        "9515": 112,
        "9516": 33,
        "9517": 170,
        "9518": 54,
        "9519": 133,
        "9520": 44,
        "9521": 74,
        "9522": 4,
        "9523": 65,
        "9524": 43,
        "9525": 47,
        "9526": 247,
        "9527": 93,
        "9528": 175,
        "9529": 229,
        "9530": 68,
        "9531": 81,
        "9532": 46,
        "9533": 174,
        "9534": 15,
        "9535": 38,
        "9536": 177,
        "9537": 139,
        "9538": 42,
        "9539": 198,
        "9540": 198,
        "9541": 149,
        "9542": 207,
        "9543": 130,
        "9544": 218,
        "9545": 249,
        "9546": 226,
        "9547": 58,
        "9548": 70,
        "9549": 152,
        "9550": 94,
        "9551": 52,
        "9552": 217,
        "9553": 151,
        "9554": 123,
        "9555": 39,
        "9556": 227,
        "9557": 8,
        "9558": 103,
        "9559": 104,
        "9560": 33,
        "9561": 242,
        "9562": 124,
        "9563": 47,
        "9564": 170,
        "9565": 20,
        "9566": 207,
        "9567": 202,
        "9568": 49,
        "9569": 61,
        "9570": 101,
        "9571": 174,
        "9572": 47,
        "9573": 237,
        "9574": 24,
        "9575": 52,
        "9576": 120,
        "9577": 121,
        "9578": 241,
        "9579": 222,
        "9580": 102,
        "9581": 65,
        "9582": 243,
        "9583": 168,
        "9584": 145,
        "9585": 139,
        "9586": 65,
        "9587": 61,
        "9588": 192,
        "9589": 170,
        "9590": 62,
        "9591": 101,
        "9592": 37,
        "9593": 115,
        "9594": 204,
        "9595": 166,
        "9596": 196,
        "9597": 133,
        "9598": 204,
        "9599": 13,
        "9600": 76,
        "9601": 27,
        "9602": 193,
        "9603": 120,
        "9604": 203,
        "9605": 68,
        "9606": 48,
        "9607": 67,
        "9608": 248,
        "9609": 133,
        "9610": 97,
        "9611": 14,
        "9612": 18,
        "9613": 224,
        "9614": 55,
        "9615": 113,
        "9616": 147,
        "9617": 180,
        "9618": 194,
        "9619": 167,
        "9620": 179,
        "9621": 49,
        "9622": 236,
        "9623": 68,
        "9624": 21,
        "9625": 121,
        "9626": 111,
        "9627": 108,
        "9628": 123,
        "9629": 100,
        "9630": 144,
        "9631": 40,
        "9632": 40,
        "9633": 133,
        "9634": 254,
        "9635": 84,
        "9636": 113,
        "9637": 69,
        "9638": 214,
        "9639": 118,
        "9640": 169,
        "9641": 16,
        "9642": 240,
        "9643": 54,
        "9644": 165,
        "9645": 9,
        "9646": 14,
        "9647": 147,
        "9648": 180,
        "9649": 182,
        "9650": 223,
        "9651": 73,
        "9652": 253,
        "9653": 161,
        "9654": 128,
        "9655": 63,
        "9656": 49,
        "9657": 98,
        "9658": 165,
        "9659": 69,
        "9660": 175,
        "9661": 106,
        "9662": 108,
        "9663": 141,
        "9664": 113,
        "9665": 119,
        "9666": 42,
        "9667": 4,
        "9668": 97,
        "9669": 169,
        "9670": 95,
        "9671": 120,
        "9672": 232,
        "9673": 156,
        "9674": 54,
        "9675": 145,
        "9676": 20,
        "9677": 18,
        "9678": 26,
        "9679": 155,
        "9680": 252,
        "9681": 63,
        "9682": 227,
        "9683": 104,
        "9684": 227,
        "9685": 152,
        "9686": 77,
        "9687": 121,
        "9688": 4,
        "9689": 112,
        "9690": 135,
        "9691": 187,
        "9692": 195,
        "9693": 55,
        "9694": 89,
        "9695": 18,
        "9696": 12,
        "9697": 231,
        "9698": 92,
        "9699": 216,
        "9700": 20,
        "9701": 202,
        "9702": 159,
        "9703": 13,
        "9704": 226,
        "9705": 100,
        "9706": 28,
        "9707": 122,
        "9708": 255,
        "9709": 22,
        "9710": 46,
        "9711": 88,
        "9712": 144,
        "9713": 7,
        "9714": 202,
        "9715": 251,
        "9716": 88,
        "9717": 137,
        "9718": 201,
        "9719": 95,
        "9720": 22,
        "9721": 114,
        "9722": 174,
        "9723": 99,
        "9724": 169,
        "9725": 77,
        "9726": 159,
        "9727": 221,
        "9728": 79,
        "9729": 226,
        "9730": 243,
        "9731": 116,
        "9732": 111,
        "9733": 120,
        "9734": 120,
        "9735": 7,
        "9736": 12,
        "9737": 30,
        "9738": 137,
        "9739": 47,
        "9740": 78,
        "9741": 243,
        "9742": 207,
        "9743": 178,
        "9744": 141,
        "9745": 31,
        "9746": 93,
        "9747": 159,
        "9748": 67,
        "9749": 131,
        "9750": 72,
        "9751": 233,
        "9752": 34,
        "9753": 164,
        "9754": 118,
        "9755": 74,
        "9756": 201,
        "9757": 23,
        "9758": 29,
        "9759": 249,
        "9760": 214,
        "9761": 226,
        "9762": 177,
        "9763": 142,
        "9764": 70,
        "9765": 80,
        "9766": 85,
        "9767": 203,
        "9768": 27,
        "9769": 42,
        "9770": 172,
        "9771": 174,
        "9772": 132,
        "9773": 86,
        "9774": 75,
        "9775": 101,
        "9776": 222,
        "9777": 51,
        "9778": 101,
        "9779": 215,
        "9780": 98,
        "9781": 146,
        "9782": 7,
        "9783": 225,
        "9784": 192,
        "9785": 22,
        "9786": 231,
        "9787": 146,
        "9788": 57,
        "9789": 142,
        "9790": 104,
        "9791": 166,
        "9792": 124,
        "9793": 63,
        "9794": 75,
        "9795": 253,
        "9796": 67,
        "9797": 132,
        "9798": 25,
        "9799": 187,
        "9800": 66,
        "9801": 105,
        "9802": 140,
        "9803": 51,
        "9804": 16,
        "9805": 162,
        "9806": 142,
        "9807": 157,
        "9808": 232,
        "9809": 231,
        "9810": 251,
        "9811": 134,
        "9812": 99,
        "9813": 87,
        "9814": 142,
        "9815": 21,
        "9816": 89,
        "9817": 240,
        "9818": 223,
        "9819": 31,
        "9820": 187,
        "9821": 108,
        "9822": 139,
        "9823": 28,
        "9824": 16,
        "9825": 254,
        "9826": 147,
        "9827": 22,
        "9828": 25,
        "9829": 98,
        "9830": 78,
        "9831": 151,
        "9832": 231,
        "9833": 114,
        "9834": 148,
        "9835": 100,
        "9836": 152,
        "9837": 192,
        "9838": 246,
        "9839": 111,
        "9840": 239,
        "9841": 42,
        "9842": 47,
        "9843": 26,
        "9844": 62,
        "9845": 75,
        "9846": 19,
        "9847": 213,
        "9848": 20,
        "9849": 233,
        "9850": 58,
        "9851": 131,
        "9852": 161,
        "9853": 14,
        "9854": 235,
        "9855": 168,
        "9856": 211,
        "9857": 232,
        "9858": 175,
        "9859": 98,
        "9860": 143,
        "9861": 60,
        "9862": 96,
        "9863": 96,
        "9864": 31,
        "9865": 223,
        "9866": 23,
        "9867": 101,
        "9868": 24,
        "9869": 122,
        "9870": 164,
        "9871": 198,
        "9872": 128,
        "9873": 46,
        "9874": 146,
        "9875": 21,
        "9876": 162,
        "9877": 49,
        "9878": 250,
        "9879": 195,
        "9880": 74,
        "9881": 249,
        "9882": 220,
        "9883": 97,
        "9884": 34,
        "9885": 107,
        "9886": 47,
        "9887": 85,
        "9888": 87,
        "9889": 183,
        "9890": 9,
        "9891": 93,
        "9892": 232,
        "9893": 21,
        "9894": 165,
        "9895": 77,
        "9896": 135,
        "9897": 175,
        "9898": 46,
        "9899": 52,
        "9900": 115,
        "9901": 253,
        "9902": 16,
        "9903": 138,
        "9904": 142,
        "9905": 31,
        "9906": 69,
        "9907": 75,
        "9908": 2,
        "9909": 31,
        "9910": 27,
        "9911": 217,
        "9912": 156,
        "9913": 244,
        "9914": 248,
        "9915": 93,
        "9916": 152,
        "9917": 94,
        "9918": 50,
        "9919": 91,
        "9920": 70,
        "9921": 25,
        "9922": 17,
        "9923": 38,
        "9924": 93,
        "9925": 163,
        "9926": 143,
        "9927": 22,
        "9928": 202,
        "9929": 139,
        "9930": 130,
        "9931": 99,
        "9932": 71,
        "9933": 36,
        "9934": 147,
        "9935": 111,
        "9936": 30,
        "9937": 179,
        "9938": 109,
        "9939": 135,
        "9940": 230,
        "9941": 55,
        "9942": 150,
        "9943": 43,
        "9944": 124,
        "9945": 87,
        "9946": 82,
        "9947": 254,
        "9948": 202,
        "9949": 60,
        "9950": 185,
        "9951": 80,
        "9952": 111,
        "9953": 24,
        "9954": 224,
        "9955": 5,
        "9956": 96,
        "9957": 72,
        "9958": 67,
        "9959": 157,
        "9960": 170,
        "9961": 110,
        "9962": 235,
        "9963": 30,
        "9964": 209,
        "9965": 206,
        "9966": 12,
        "9967": 207,
        "9968": 174,
        "9969": 249,
        "9970": 118,
        "9971": 192,
        "9972": 233,
        "9973": 219,
        "9974": 231,
        "9975": 212,
        "9976": 18,
        "9977": 61,
        "9978": 131,
        "9979": 209,
        "9980": 246,
        "9981": 162,
        "9982": 68,
        "9983": 166,
        "9984": 138,
        "9985": 157,
        "9986": 49,
        "9987": 245,
        "9988": 235,
        "9989": 92,
        "9990": 150,
        "9991": 155,
        "9992": 168,
        "9993": 108,
        "9994": 250,
        "9995": 38,
        "9996": 123,
        "9997": 135,
        "9998": 66,
        "9999": 103,
        "10000": 179,
        "10001": 148,
        "10002": 67,
        "10003": 252,
        "10004": 34,
        "10005": 198,
        "10006": 38,
        "10007": 130,
        "10008": 23,
        "10009": 191,
        "10010": 228,
        "10011": 196,
        "10012": 146,
        "10013": 14,
        "10014": 35,
        "10015": 169,
        "10016": 187,
        "10017": 117,
        "10018": 156,
        "10019": 186,
        "10020": 252,
        "10021": 124,
        "10022": 245,
        "10023": 19,
        "10024": 22,
        "10025": 16,
        "10026": 236,
        "10027": 153,
        "10028": 63,
        "10029": 29,
        "10030": 238,
        "10031": 44,
        "10032": 160,
        "10033": 219,
        "10034": 115,
        "10035": 153,
        "10036": 60,
        "10037": 48,
        "10038": 204,
        "10039": 100,
        "10040": 92,
        "10041": 172,
        "10042": 144,
        "10043": 167,
        "10044": 27,
        "10045": 137,
        "10046": 168,
        "10047": 69,
        "10048": 180,
        "10049": 210,
        "10050": 225,
        "10051": 253,
        "10052": 178,
        "10053": 119,
        "10054": 200,
        "10055": 91,
        "10056": 65,
        "10057": 119,
        "10058": 64,
        "10059": 196,
        "10060": 224,
        "10061": 29,
        "10062": 67,
        "10063": 182,
        "10064": 3,
        "10065": 17,
        "10066": 248,
        "10067": 108,
        "10068": 200,
        "10069": 245,
        "10070": 77,
        "10071": 138,
        "10072": 164,
        "10073": 14,
        "10074": 55,
        "10075": 152,
        "10076": 226,
        "10077": 253,
        "10078": 119,
        "10079": 250,
        "10080": 17,
        "10081": 255,
        "10082": 243,
        "10083": 76,
        "10084": 205,
        "10085": 137,
        "10086": 182,
        "10087": 50,
        "10088": 72,
        "10089": 238,
        "10090": 245,
        "10091": 19,
        "10092": 122,
        "10093": 28,
        "10094": 157,
        "10095": 116,
        "10096": 81,
        "10097": 55,
        "10098": 86,
        "10099": 132,
        "10100": 70,
        "10101": 96,
        "10102": 160,
        "10103": 77,
        "10104": 145,
        "10105": 173,
        "10106": 122,
        "10107": 47,
        "10108": 109,
        "10109": 249,
        "10110": 52,
        "10111": 7,
        "10112": 103,
        "10113": 72,
        "10114": 204,
        "10115": 227,
        "10116": 251,
        "10117": 128,
        "10118": 102,
        "10119": 43,
        "10120": 7,
        "10121": 3,
        "10122": 59,
        "10123": 45,
        "10124": 202,
        "10125": 83,
        "10126": 121,
        "10127": 56,
        "10128": 196,
        "10129": 99,
        "10130": 206,
        "10131": 38,
        "10132": 91,
        "10133": 70,
        "10134": 102,
        "10135": 226,
        "10136": 234,
        "10137": 245,
        "10138": 204,
        "10139": 157,
        "10140": 147,
        "10141": 50,
        "10142": 218,
        "10143": 90,
        "10144": 199,
        "10145": 60,
        "10146": 210,
        "10147": 27,
        "10148": 208,
        "10149": 145,
        "10150": 206,
        "10151": 49,
        "10152": 250,
        "10153": 142,
        "10154": 191,
        "10155": 165,
        "10156": 184,
        "10157": 22,
        "10158": 139,
        "10159": 150,
        "10160": 39,
        "10161": 7,
        "10162": 56,
        "10163": 33,
        "10164": 221,
        "10165": 158,
        "10166": 198,
        "10167": 212,
        "10168": 76,
        "10169": 3,
        "10170": 139,
        "10171": 101,
        "10172": 40,
        "10173": 184,
        "10174": 98,
        "10175": 113,
        "10176": 166,
        "10177": 104,
        "10178": 26,
        "10179": 177,
        "10180": 71,
        "10181": 147,
        "10182": 247,
        "10183": 92,
        "10184": 136,
        "10185": 234,
        "10186": 242,
        "10187": 125,
        "10188": 191,
        "10189": 124,
        "10190": 112,
        "10191": 66,
        "10192": 14,
        "10193": 147,
        "10194": 78,
        "10195": 200,
        "10196": 120,
        "10197": 17,
        "10198": 86,
        "10199": 140,
        "10200": 135,
        "10201": 64,
        "10202": 124,
        "10203": 39,
        "10204": 215,
        "10205": 87,
        "10206": 193,
        "10207": 209,
        "10208": 223,
        "10209": 234,
        "10210": 154,
        "10211": 105,
        "10212": 9,
        "10213": 166,
        "10214": 103,
        "10215": 74,
        "10216": 242,
        "10217": 69,
        "10218": 74,
        "10219": 201,
        "10220": 212,
        "10221": 156,
        "10222": 100,
        "10223": 141,
        "10224": 60,
        "10225": 13,
        "10226": 174,
        "10227": 93,
        "10228": 193,
        "10229": 22,
        "10230": 97,
        "10231": 252,
        "10232": 190,
        "10233": 187,
        "10234": 74,
        "10235": 231,
        "10236": 209,
        "10237": 178,
        "10238": 250,
        "10239": 190,
        "10240": 213,
        "10241": 110,
        "10242": 199,
        "10243": 110,
        "10244": 233,
        "10245": 77,
        "10246": 209,
        "10247": 249,
        "10248": 74,
        "10249": 32,
        "10250": 123,
        "10251": 193,
        "10252": 246,
        "10253": 120,
        "10254": 57,
        "10255": 196,
        "10256": 152,
        "10257": 220,
        "10258": 31,
        "10259": 5,
        "10260": 47,
        "10261": 192,
        "10262": 222,
        "10263": 217,
        "10264": 195,
        "10265": 193,
        "10266": 46,
        "10267": 50,
        "10268": 188,
        "10269": 56,
        "10270": 209,
        "10271": 97,
        "10272": 23,
        "10273": 160,
        "10274": 93,
        "10275": 28,
        "10276": 69,
        "10277": 175,
        "10278": 182,
        "10279": 114,
        "10280": 64,
        "10281": 171,
        "10282": 80,
        "10283": 37,
        "10284": 78,
        "10285": 177,
        "10286": 242,
        "10287": 11,
        "10288": 117,
        "10289": 101,
        "10290": 47,
        "10291": 249,
        "10292": 193,
        "10293": 219,
        "10294": 151,
        "10295": 86,
        "10296": 78,
        "10297": 186,
        "10298": 111,
        "10299": 161,
        "10300": 203,
        "10301": 71,
        "10302": 118,
        "10303": 59,
        "10304": 181,
        "10305": 163,
        "10306": 25,
        "10307": 18,
        "10308": 190,
        "10309": 181,
        "10310": 209,
        "10311": 132,
        "10312": 202,
        "10313": 82,
        "10314": 72,
        "10315": 60,
        "10316": 179,
        "10317": 152,
        "10318": 93,
        "10319": 85,
        "10320": 0,
        "10321": 36,
        "10322": 101,
        "10323": 102,
        "10324": 40,
        "10325": 10,
        "10326": 111,
        "10327": 40,
        "10328": 51,
        "10329": 149,
        "10330": 62,
        "10331": 235,
        "10332": 211,
        "10333": 244,
        "10334": 236,
        "10335": 92,
        "10336": 205,
        "10337": 67,
        "10338": 113,
        "10339": 146,
        "10340": 128,
        "10341": 20,
        "10342": 117,
        "10343": 254,
        "10344": 14,
        "10345": 47,
        "10346": 197,
        "10347": 76,
        "10348": 137,
        "10349": 105,
        "10350": 229,
        "10351": 52,
        "10352": 227,
        "10353": 168,
        "10354": 188,
        "10355": 211,
        "10356": 55,
        "10357": 81,
        "10358": 124,
        "10359": 194,
        "10360": 45,
        "10361": 3,
        "10362": 170,
        "10363": 42,
        "10364": 101,
        "10365": 177,
        "10366": 135,
        "10367": 207,
        "10368": 84,
        "10369": 101,
        "10370": 160,
        "10371": 42,
        "10372": 118,
        "10373": 183,
        "10374": 105,
        "10375": 130,
        "10376": 194,
        "10377": 83,
        "10378": 68,
        "10379": 110,
        "10380": 169,
        "10381": 100,
        "10382": 72,
        "10383": 252,
        "10384": 107,
        "10385": 62,
        "10386": 51,
        "10387": 172,
        "10388": 250,
        "10389": 37,
        "10390": 162,
        "10391": 83,
        "10392": 147,
        "10393": 50,
        "10394": 16,
        "10395": 240,
        "10396": 231,
        "10397": 30,
        "10398": 110,
        "10399": 9,
        "10400": 37,
        "10401": 29,
        "10402": 94,
        "10403": 136,
        "10404": 31,
        "10405": 24,
        "10406": 194,
        "10407": 62,
        "10408": 16,
        "10409": 160,
        "10410": 51,
        "10411": 160,
        "10412": 202,
        "10413": 79,
        "10414": 182,
        "10415": 21,
        "10416": 9,
        "10417": 193,
        "10418": 60,
        "10419": 234,
        "10420": 113,
        "10421": 2,
        "10422": 210,
        "10423": 50,
        "10424": 189,
        "10425": 70,
        "10426": 25,
        "10427": 203,
        "10428": 52,
        "10429": 39,
        "10430": 135,
        "10431": 172,
        "10432": 197,
        "10433": 192,
        "10434": 222,
        "10435": 180,
        "10436": 91,
        "10437": 198,
        "10438": 246,
        "10439": 120,
        "10440": 220,
        "10441": 15,
        "10442": 138,
        "10443": 89,
        "10444": 152,
        "10445": 128,
        "10446": 48,
        "10447": 234,
        "10448": 54,
        "10449": 2,
        "10450": 53,
        "10451": 53,
        "10452": 31,
        "10453": 182,
        "10454": 108,
        "10455": 81,
        "10456": 49,
        "10457": 2,
        "10458": 56,
        "10459": 99,
        "10460": 35,
        "10461": 23,
        "10462": 242,
        "10463": 141,
        "10464": 186,
        "10465": 107,
        "10466": 227,
        "10467": 249,
        "10468": 163,
        "10469": 89,
        "10470": 119,
        "10471": 243,
        "10472": 177,
        "10473": 146,
        "10474": 93,
        "10475": 151,
        "10476": 28,
        "10477": 195,
        "10478": 251,
        "10479": 171,
        "10480": 244,
        "10481": 27,
        "10482": 147,
        "10483": 69,
        "10484": 45,
        "10485": 9,
        "10486": 212,
        "10487": 97,
        "10488": 243,
        "10489": 54,
        "10490": 138,
        "10491": 56,
        "10492": 58,
        "10493": 232,
        "10494": 196,
        "10495": 5,
        "10496": 126,
        "10497": 1,
        "10498": 215,
        "10499": 152,
        "10500": 120,
        "10501": 166,
        "10502": 80,
        "10503": 93,
        "10504": 123,
        "10505": 140,
        "10506": 208,
        "10507": 1,
        "10508": 57,
        "10509": 109,
        "10510": 118,
        "10511": 91,
        "10512": 235,
        "10513": 94,
        "10514": 44,
        "10515": 220,
        "10516": 147,
        "10517": 173,
        "10518": 114,
        "10519": 145,
        "10520": 207,
        "10521": 133,
        "10522": 46,
        "10523": 75,
        "10524": 196,
        "10525": 21,
        "10526": 180,
        "10527": 94,
        "10528": 209,
        "10529": 236,
        "10530": 230,
        "10531": 217,
        "10532": 186,
        "10533": 130,
        "10534": 4,
        "10535": 111,
        "10536": 65,
        "10537": 125,
        "10538": 169,
        "10539": 68,
        "10540": 77,
        "10541": 223,
        "10542": 143,
        "10543": 43,
        "10544": 27,
        "10545": 211,
        "10546": 210,
        "10547": 18,
        "10548": 151,
        "10549": 33,
        "10550": 195,
        "10551": 157,
        "10552": 239,
        "10553": 162,
        "10554": 32,
        "10555": 222,
        "10556": 147,
        "10557": 14,
        "10558": 222,
        "10559": 244,
        "10560": 206,
        "10561": 188,
        "10562": 169,
        "10563": 160,
        "10564": 76,
        "10565": 163,
        "10566": 129,
        "10567": 238,
        "10568": 50,
        "10569": 159,
        "10570": 45,
        "10571": 208,
        "10572": 70,
        "10573": 102,
        "10574": 117,
        "10575": 129,
        "10576": 196,
        "10577": 162,
        "10578": 114,
        "10579": 237,
        "10580": 219,
        "10581": 77,
        "10582": 131,
        "10583": 63,
        "10584": 63,
        "10585": 98,
        "10586": 106,
        "10587": 124,
        "10588": 182,
        "10589": 239,
        "10590": 90,
        "10591": 153,
        "10592": 165,
        "10593": 159,
        "10594": 70,
        "10595": 100,
        "10596": 238,
        "10597": 3,
        "10598": 20,
        "10599": 43,
        "10600": 209,
        "10601": 167,
        "10602": 158,
        "10603": 110,
        "10604": 75,
        "10605": 247,
        "10606": 74,
        "10607": 126,
        "10608": 217,
        "10609": 38,
        "10610": 40,
        "10611": 18,
        "10612": 90,
        "10613": 45,
        "10614": 82,
        "10615": 240,
        "10616": 171,
        "10617": 189,
        "10618": 254,
        "10619": 29,
        "10620": 152,
        "10621": 224,
        "10622": 131,
        "10623": 186,
        "10624": 124,
        "10625": 132,
        "10626": 208,
        "10627": 55,
        "10628": 246,
        "10629": 192,
        "10630": 24,
        "10631": 44,
        "10632": 81,
        "10633": 3,
        "10634": 147,
        "10635": 235,
        "10636": 227,
        "10637": 129,
        "10638": 250,
        "10639": 104,
        "10640": 203,
        "10641": 249,
        "10642": 136,
        "10643": 22,
        "10644": 144,
        "10645": 119,
        "10646": 147,
        "10647": 10,
        "10648": 44,
        "10649": 241,
        "10650": 129,
        "10651": 245,
        "10652": 168,
        "10653": 160,
        "10654": 82,
        "10655": 179,
        "10656": 85,
        "10657": 189,
        "10658": 116,
        "10659": 44,
        "10660": 242,
        "10661": 233,
        "10662": 21,
        "10663": 1,
        "10664": 22,
        "10665": 60,
        "10666": 172,
        "10667": 159,
        "10668": 156,
        "10669": 3,
        "10670": 54,
        "10671": 73,
        "10672": 66,
        "10673": 56,
        "10674": 1,
        "10675": 125,
        "10676": 114,
        "10677": 149,
        "10678": 176,
        "10679": 110,
        "10680": 202,
        "10681": 2,
        "10682": 47,
        "10683": 219,
        "10684": 161,
        "10685": 107,
        "10686": 31,
        "10687": 84,
        "10688": 8,
        "10689": 253,
        "10690": 78,
        "10691": 180,
        "10692": 213,
        "10693": 152,
        "10694": 236,
        "10695": 85,
        "10696": 117,
        "10697": 49,
        "10698": 143,
        "10699": 171,
        "10700": 45,
        "10701": 156,
        "10702": 28,
        "10703": 164,
        "10704": 108,
        "10705": 85,
        "10706": 101,
        "10707": 186,
        "10708": 171,
        "10709": 21,
        "10710": 210,
        "10711": 81,
        "10712": 250,
        "10713": 65,
        "10714": 9,
        "10715": 133,
        "10716": 218,
        "10717": 151,
        "10718": 196,
        "10719": 231,
        "10720": 190,
        "10721": 34,
        "10722": 57,
        "10723": 188,
        "10724": 223,
        "10725": 137,
        "10726": 171,
        "10727": 54,
        "10728": 216,
        "10729": 244,
        "10730": 182,
        "10731": 125,
        "10732": 113,
        "10733": 124,
        "10734": 131,
        "10735": 67,
        "10736": 145,
        "10737": 199,
        "10738": 156,
        "10739": 105,
        "10740": 126,
        "10741": 121,
        "10742": 168,
        "10743": 17,
        "10744": 154,
        "10745": 170,
        "10746": 70,
        "10747": 140,
        "10748": 44,
        "10749": 49,
        "10750": 244,
        "10751": 195,
        "10752": 151,
        "10753": 3,
        "10754": 194,
        "10755": 209,
        "10756": 246,
        "10757": 79,
        "10758": 192,
        "10759": 92,
        "10760": 24,
        "10761": 76,
        "10762": 186,
        "10763": 82,
        "10764": 222,
        "10765": 221,
        "10766": 88,
        "10767": 164,
        "10768": 154,
        "10769": 112,
        "10770": 182,
        "10771": 50,
        "10772": 69,
        "10773": 207,
        "10774": 240,
        "10775": 222,
        "10776": 85,
        "10777": 142,
        "10778": 28,
        "10779": 79,
        "10780": 100,
        "10781": 194,
        "10782": 58,
        "10783": 162,
        "10784": 159,
        "10785": 11,
        "10786": 194,
        "10787": 164,
        "10788": 70,
        "10789": 94,
        "10790": 24,
        "10791": 230,
        "10792": 77,
        "10793": 108,
        "10794": 1,
        "10795": 253,
        "10796": 90,
        "10797": 80,
        "10798": 208,
        "10799": 229,
        "10800": 96,
        "10801": 175,
        "10802": 147,
        "10803": 218,
        "10804": 36,
        "10805": 66,
        "10806": 31,
        "10807": 169,
        "10808": 105,
        "10809": 169,
        "10810": 168,
        "10811": 164,
        "10812": 165,
        "10813": 219,
        "10814": 80,
        "10815": 204,
        "10816": 177,
        "10817": 65,
        "10818": 204,
        "10819": 193,
        "10820": 51,
        "10821": 89,
        "10822": 210,
        "10823": 215,
        "10824": 208,
        "10825": 247,
        "10826": 255,
        "10827": 176,
        "10828": 17,
        "10829": 26,
        "10830": 163,
        "10831": 171,
        "10832": 114,
        "10833": 248,
        "10834": 190,
        "10835": 128,
        "10836": 177,
        "10837": 191,
        "10838": 200,
        "10839": 233,
        "10840": 54,
        "10841": 155,
        "10842": 22,
        "10843": 138,
        "10844": 228,
        "10845": 183,
        "10846": 169,
        "10847": 229,
        "10848": 199,
        "10849": 32,
        "10850": 186,
        "10851": 77,
        "10852": 199,
        "10853": 245,
        "10854": 196,
        "10855": 153,
        "10856": 169,
        "10857": 98,
        "10858": 90,
        "10859": 197,
        "10860": 211,
        "10861": 148,
        "10862": 193,
        "10863": 7,
        "10864": 24,
        "10865": 103,
        "10866": 215,
        "10867": 120,
        "10868": 73,
        "10869": 153,
        "10870": 66,
        "10871": 31,
        "10872": 138,
        "10873": 43,
        "10874": 217,
        "10875": 156,
        "10876": 190,
        "10877": 5,
        "10878": 189,
        "10879": 66,
        "10880": 167,
        "10881": 219,
        "10882": 249,
        "10883": 0,
        "10884": 253,
        "10885": 135,
        "10886": 162,
        "10887": 205,
        "10888": 169,
        "10889": 21,
        "10890": 103,
        "10891": 77,
        "10892": 218,
        "10893": 72,
        "10894": 63,
        "10895": 150,
        "10896": 92,
        "10897": 53,
        "10898": 186,
        "10899": 2,
        "10900": 162,
        "10901": 187,
        "10902": 165,
        "10903": 142,
        "10904": 155,
        "10905": 203,
        "10906": 108,
        "10907": 173,
        "10908": 7,
        "10909": 75,
        "10910": 146,
        "10911": 24,
        "10912": 174,
        "10913": 19,
        "10914": 231,
        "10915": 30,
        "10916": 58,
        "10917": 213,
        "10918": 126,
        "10919": 247,
        "10920": 75,
        "10921": 69,
        "10922": 43,
        "10923": 23,
        "10924": 193,
        "10925": 67,
        "10926": 216,
        "10927": 40,
        "10928": 190,
        "10929": 92,
        "10930": 214,
        "10931": 71,
        "10932": 139,
        "10933": 233,
        "10934": 212,
        "10935": 226,
        "10936": 132,
        "10937": 196,
        "10938": 195,
        "10939": 79,
        "10940": 143,
        "10941": 19,
        "10942": 238,
        "10943": 66,
        "10944": 32,
        "10945": 232,
        "10946": 168,
        "10947": 81,
        "10948": 2,
        "10949": 214,
        "10950": 16,
        "10951": 172,
        "10952": 12,
        "10953": 237,
        "10954": 186,
        "10955": 166,
        "10956": 67,
        "10957": 106,
        "10958": 143,
        "10959": 8,
        "10960": 133,
        "10961": 239,
        "10962": 230,
        "10963": 2,
        "10964": 190,
        "10965": 194,
        "10966": 128,
        "10967": 191,
        "10968": 10,
        "10969": 9,
        "10970": 235,
        "10971": 228,
        "10972": 133,
        "10973": 53,
        "10974": 157,
        "10975": 62,
        "10976": 54,
        "10977": 86,
        "10978": 152,
        "10979": 219,
        "10980": 190,
        "10981": 212,
        "10982": 35,
        "10983": 206,
        "10984": 134,
        "10985": 148,
        "10986": 109,
        "10987": 154,
        "10988": 56,
        "10989": 121,
        "10990": 39,
        "10991": 53,
        "10992": 185,
        "10993": 197,
        "10994": 19,
        "10995": 169,
        "10996": 188,
        "10997": 63,
        "10998": 186,
        "10999": 92,
        "11000": 155,
        "11001": 229,
        "11002": 80,
        "11003": 190,
        "11004": 85,
        "11005": 86,
        "11006": 31,
        "11007": 92,
        "11008": 100,
        "11009": 230,
        "11010": 95,
        "11011": 238,
        "11012": 198,
        "11013": 6,
        "11014": 101,
        "11015": 47,
        "11016": 185,
        "11017": 223,
        "11018": 53,
        "11019": 125,
        "11020": 12,
        "11021": 116,
        "11022": 147,
        "11023": 144,
        "11024": 34,
        "11025": 210,
        "11026": 47,
        "11027": 243,
        "11028": 160,
        "11029": 188,
        "11030": 216,
        "11031": 138,
        "11032": 174,
        "11033": 49,
        "11034": 93,
        "11035": 199,
        "11036": 197,
        "11037": 246,
        "11038": 209,
        "11039": 50,
        "11040": 210,
        "11041": 225,
        "11042": 63,
        "11043": 143,
        "11044": 172,
        "11045": 229,
        "11046": 101,
        "11047": 127,
        "11048": 156,
        "11049": 106,
        "11050": 243,
        "11051": 143,
        "11052": 178,
        "11053": 164,
        "11054": 48,
        "11055": 13,
        "11056": 104,
        "11057": 196,
        "11058": 173,
        "11059": 15,
        "11060": 84,
        "11061": 44,
        "11062": 234,
        "11063": 27,
        "11064": 217,
        "11065": 153,
        "11066": 192,
        "11067": 35,
        "11068": 62,
        "11069": 119,
        "11070": 212,
        "11071": 133,
        "11072": 240,
        "11073": 165,
        "11074": 193,
        "11075": 188,
        "11076": 91,
        "11077": 247,
        "11078": 164,
        "11079": 142,
        "11080": 247,
        "11081": 219,
        "11082": 11,
        "11083": 53,
        "11084": 156,
        "11085": 183,
        "11086": 231,
        "11087": 187,
        "11088": 90,
        "11089": 190,
        "11090": 48,
        "11091": 60,
        "11092": 36,
        "11093": 212,
        "11094": 190,
        "11095": 234,
        "11096": 176,
        "11097": 87,
        "11098": 93,
        "11099": 104,
        "11100": 59,
        "11101": 32,
        "11102": 240,
        "11103": 49,
        "11104": 38,
        "11105": 250,
        "11106": 139,
        "11107": 246,
        "11108": 215,
        "11109": 19,
        "11110": 15,
        "11111": 190,
        "11112": 230,
        "11113": 219,
        "11114": 100,
        "11115": 195,
        "11116": 0,
        "11117": 138,
        "11118": 42,
        "11119": 240,
        "11120": 198,
        "11121": 149,
        "11122": 118,
        "11123": 99,
        "11124": 143,
        "11125": 107,
        "11126": 254,
        "11127": 244,
        "11128": 22,
        "11129": 69,
        "11130": 99,
        "11131": 135,
        "11132": 144,
        "11133": 43,
        "11134": 143,
        "11135": 199,
        "11136": 48,
        "11137": 135,
        "11138": 33,
        "11139": 28,
        "11140": 81,
        "11141": 10,
        "11142": 79,
        "11143": 255,
        "11144": 70,
        "11145": 199,
        "11146": 21,
        "11147": 83,
        "11148": 9,
        "11149": 188,
        "11150": 45,
        "11151": 40,
        "11152": 100,
        "11153": 188,
        "11154": 246,
        "11155": 135,
        "11156": 191,
        "11157": 36,
        "11158": 15,
        "11159": 34,
        "11160": 25,
        "11161": 86,
        "11162": 113,
        "11163": 154,
        "11164": 152,
        "11165": 92,
        "11166": 186,
        "11167": 164,
        "11168": 164,
        "11169": 33,
        "11170": 2,
        "11171": 223,
        "11172": 23,
        "11173": 77,
        "11174": 136,
        "11175": 68,
        "11176": 44,
        "11177": 107,
        "11178": 181,
        "11179": 112,
        "11180": 174,
        "11181": 209,
        "11182": 206,
        "11183": 116,
        "11184": 33,
        "11185": 255,
        "11186": 74,
        "11187": 141,
        "11188": 102,
        "11189": 242,
        "11190": 14,
        "11191": 38,
        "11192": 196,
        "11193": 149,
        "11194": 93,
        "11195": 38,
        "11196": 111,
        "11197": 120,
        "11198": 41,
        "11199": 85,
        "11200": 158,
        "11201": 50,
        "11202": 231,
        "11203": 118,
        "11204": 249,
        "11205": 220,
        "11206": 84,
        "11207": 228,
        "11208": 200,
        "11209": 161,
        "11210": 11,
        "11211": 143,
        "11212": 191,
        "11213": 73,
        "11214": 94,
        "11215": 12,
        "11216": 197,
        "11217": 123,
        "11218": 133,
        "11219": 105,
        "11220": 55,
        "11221": 63,
        "11222": 14,
        "11223": 122,
        "11224": 192,
        "11225": 233,
        "11226": 162,
        "11227": 1,
        "11228": 115,
        "11229": 197,
        "11230": 73,
        "11231": 198,
        "11232": 69,
        "11233": 225,
        "11234": 188,
        "11235": 34,
        "11236": 163,
        "11237": 84,
        "11238": 233,
        "11239": 91,
        "11240": 74,
        "11241": 204,
        "11242": 184,
        "11243": 140,
        "11244": 219,
        "11245": 76,
        "11246": 214,
        "11247": 139,
        "11248": 190,
        "11249": 215,
        "11250": 131,
        "11251": 143,
        "11252": 217,
        "11253": 88,
        "11254": 75,
        "11255": 17,
        "11256": 9,
        "11257": 237,
        "11258": 157,
        "11259": 95,
        "11260": 101,
        "11261": 102,
        "11262": 108,
        "11263": 116,
        "11264": 147,
        "11265": 175,
        "11266": 46,
        "11267": 7,
        "11268": 47,
        "11269": 102,
        "11270": 23,
        "11271": 98,
        "11272": 40,
        "11273": 228,
        "11274": 208,
        "11275": 139,
        "11276": 32,
        "11277": 218,
        "11278": 28,
        "11279": 155,
        "11280": 178,
        "11281": 97,
        "11282": 127,
        "11283": 133,
        "11284": 18,
        "11285": 39,
        "11286": 180,
        "11287": 98,
        "11288": 69,
        "11289": 227,
        "11290": 230,
        "11291": 221,
        "11292": 171,
        "11293": 91,
        "11294": 33,
        "11295": 30,
        "11296": 46,
        "11297": 94,
        "11298": 214,
        "11299": 247,
        "11300": 46,
        "11301": 197,
        "11302": 234,
        "11303": 194,
        "11304": 229,
        "11305": 155,
        "11306": 190,
        "11307": 56,
        "11308": 47,
        "11309": 170,
        "11310": 113,
        "11311": 239,
        "11312": 187,
        "11313": 84,
        "11314": 133,
        "11315": 50,
        "11316": 135,
        "11317": 198,
        "11318": 100,
        "11319": 200,
        "11320": 54,
        "11321": 226,
        "11322": 77,
        "11323": 235,
        "11324": 51,
        "11325": 103,
        "11326": 4,
        "11327": 206,
        "11328": 164,
        "11329": 222,
        "11330": 91,
        "11331": 83,
        "11332": 82,
        "11333": 2,
        "11334": 205,
        "11335": 197,
        "11336": 22,
        "11337": 226,
        "11338": 85,
        "11339": 24,
        "11340": 174,
        "11341": 104,
        "11342": 143,
        "11343": 219,
        "11344": 7,
        "11345": 18,
        "11346": 123,
        "11347": 128,
        "11348": 179,
        "11349": 247,
        "11350": 64,
        "11351": 142,
        "11352": 8,
        "11353": 220,
        "11354": 7,
        "11355": 104,
        "11356": 14,
        "11357": 92,
        "11358": 79,
        "11359": 81,
        "11360": 135,
        "11361": 255,
        "11362": 166,
        "11363": 130,
        "11364": 18,
        "11365": 152,
        "11366": 222,
        "11367": 4,
        "11368": 166,
        "11369": 91,
        "11370": 210,
        "11371": 184,
        "11372": 80,
        "11373": 190,
        "11374": 176,
        "11375": 42,
        "11376": 199,
        "11377": 203,
        "11378": 134,
        "11379": 214,
        "11380": 182,
        "11381": 217,
        "11382": 64,
        "11383": 113,
        "11384": 47,
        "11385": 212,
        "11386": 190,
        "11387": 25,
        "11388": 41,
        "11389": 2,
        "11390": 34,
        "11391": 232,
        "11392": 176,
        "11393": 127,
        "11394": 118,
        "11395": 26,
        "11396": 77,
        "11397": 190,
        "11398": 89,
        "11399": 75,
        "11400": 87,
        "11401": 254,
        "11402": 103,
        "11403": 78,
        "11404": 108,
        "11405": 130,
        "11406": 138,
        "11407": 119,
        "11408": 211,
        "11409": 221,
        "11410": 86,
        "11411": 228,
        "11412": 23,
        "11413": 71,
        "11414": 121,
        "11415": 210,
        "11416": 118,
        "11417": 66,
        "11418": 137,
        "11419": 14,
        "11420": 32,
        "11421": 128,
        "11422": 107,
        "11423": 29,
        "11424": 142,
        "11425": 150,
        "11426": 144,
        "11427": 154,
        "11428": 59,
        "11429": 50,
        "11430": 179,
        "11431": 195,
        "11432": 121,
        "11433": 104,
        "11434": 118,
        "11435": 245,
        "11436": 251,
        "11437": 165,
        "11438": 254,
        "11439": 109,
        "11440": 229,
        "11441": 132,
        "11442": 118,
        "11443": 188,
        "11444": 243,
        "11445": 95,
        "11446": 247,
        "11447": 158,
        "11448": 195,
        "11449": 93,
        "11450": 166,
        "11451": 135,
        "11452": 0,
        "11453": 230,
        "11454": 10,
        "11455": 209,
        "11456": 129,
        "11457": 21,
        "11458": 96,
        "11459": 22,
        "11460": 122,
        "11461": 4,
        "11462": 196,
        "11463": 216,
        "11464": 102,
        "11465": 185,
        "11466": 90,
        "11467": 238,
        "11468": 218,
        "11469": 30,
        "11470": 179,
        "11471": 151,
        "11472": 79,
        "11473": 98,
        "11474": 218,
        "11475": 14,
        "11476": 245,
        "11477": 109,
        "11478": 182,
        "11479": 170,
        "11480": 14,
        "11481": 80,
        "11482": 32,
        "11483": 187,
        "11484": 201,
        "11485": 21,
        "11486": 11,
        "11487": 208,
        "11488": 164,
        "11489": 236,
        "11490": 201,
        "11491": 176,
        "11492": 233,
        "11493": 187,
        "11494": 80,
        "11495": 15,
        "11496": 71,
        "11497": 161,
        "11498": 72,
        "11499": 216,
        "11500": 162,
        "11501": 156,
        "11502": 26,
        "11503": 146,
        "11504": 145,
        "11505": 43,
        "11506": 222,
        "11507": 159,
        "11508": 252,
        "11509": 150,
        "11510": 27,
        "11511": 158,
        "11512": 168,
        "11513": 147,
        "11514": 98,
        "11515": 80,
        "11516": 110,
        "11517": 118,
        "11518": 64,
        "11519": 139,
        "11520": 126,
        "11521": 41,
        "11522": 48,
        "11523": 150,
        "11524": 56,
        "11525": 62,
        "11526": 55,
        "11527": 175,
        "11528": 181,
        "11529": 118,
        "11530": 172,
        "11531": 184,
        "11532": 208,
        "11533": 107,
        "11534": 124,
        "11535": 134,
        "11536": 188,
        "11537": 42,
        "11538": 138,
        "11539": 65,
        "11540": 234,
        "11541": 143,
        "11542": 128,
        "11543": 5,
        "11544": 230,
        "11545": 171,
        "11546": 17,
        "11547": 62,
        "11548": 143,
        "11549": 191,
        "11550": 192,
        "11551": 177,
        "11552": 4,
        "11553": 16,
        "11554": 190,
        "11555": 148,
        "11556": 103,
        "11557": 79,
        "11558": 162,
        "11559": 126,
        "11560": 156,
        "11561": 224,
        "11562": 23,
        "11563": 196,
        "11564": 24,
        "11565": 159,
        "11566": 91,
        "11567": 243,
        "11568": 8,
        "11569": 92,
        "11570": 232,
        "11571": 213,
        "11572": 245,
        "11573": 95,
        "11574": 254,
        "11575": 25,
        "11576": 30,
        "11577": 107,
        "11578": 90,
        "11579": 134,
        "11580": 218,
        "11581": 51,
        "11582": 121,
        "11583": 117,
        "11584": 251,
        "11585": 198,
        "11586": 101,
        "11587": 158,
        "11588": 84,
        "11589": 185,
        "11590": 237,
        "11591": 11,
        "11592": 255,
        "11593": 201,
        "11594": 161,
        "11595": 145,
        "11596": 161,
        "11597": 133,
        "11598": 198,
        "11599": 106,
        "11600": 59,
        "11601": 224,
        "11602": 207,
        "11603": 21,
        "11604": 53,
        "11605": 135,
        "11606": 34,
        "11607": 95,
        "11608": 111,
        "11609": 186,
        "11610": 129,
        "11611": 209,
        "11612": 78,
        "11613": 152,
        "11614": 247,
        "11615": 115,
        "11616": 23,
        "11617": 172,
        "11618": 86,
        "11619": 150,
        "11620": 236,
        "11621": 68,
        "11622": 224,
        "11623": 250,
        "11624": 53,
        "11625": 245,
        "11626": 100,
        "11627": 175,
        "11628": 44,
        "11629": 174,
        "11630": 93,
        "11631": 208,
        "11632": 137,
        "11633": 190,
        "11634": 224,
        "11635": 22,
        "11636": 19,
        "11637": 130,
        "11638": 73,
        "11639": 16,
        "11640": 222,
        "11641": 78,
        "11642": 100,
        "11643": 91,
        "11644": 122,
        "11645": 166,
        "11646": 204,
        "11647": 35,
        "11648": 196,
        "11649": 56,
        "11650": 171,
        "11651": 26,
        "11652": 58,
        "11653": 136,
        "11654": 203,
        "11655": 152,
        "11656": 210,
        "11657": 96,
        "11658": 131,
        "11659": 46,
        "11660": 11,
        "11661": 35,
        "11662": 51,
        "11663": 115,
        "11664": 57,
        "11665": 24,
        "11666": 227,
        "11667": 131,
        "11668": 77,
        "11669": 238,
        "11670": 55,
        "11671": 1,
        "11672": 129,
        "11673": 14,
        "11674": 218,
        "11675": 213,
        "11676": 251,
        "11677": 101,
        "11678": 25,
        "11679": 197,
        "11680": 50,
        "11681": 205,
        "11682": 224,
        "11683": 240,
        "11684": 192,
        "11685": 25,
        "11686": 183,
        "11687": 252,
        "11688": 229,
        "11689": 136,
        "11690": 110,
        "11691": 28,
        "11692": 153,
        "11693": 214,
        "11694": 230,
        "11695": 193,
        "11696": 204,
        "11697": 159,
        "11698": 69,
        "11699": 191,
        "11700": 137,
        "11701": 118,
        "11702": 224,
        "11703": 5,
        "11704": 233,
        "11705": 170,
        "11706": 138,
        "11707": 12,
        "11708": 89,
        "11709": 138,
        "11710": 92,
        "11711": 170,
        "11712": 129,
        "11713": 102,
        "11714": 84,
        "11715": 73,
        "11716": 72,
        "11717": 178,
        "11718": 186,
        "11719": 228,
        "11720": 14,
        "11721": 171,
        "11722": 83,
        "11723": 74,
        "11724": 78,
        "11725": 121,
        "11726": 182,
        "11727": 193,
        "11728": 34,
        "11729": 47,
        "11730": 221,
        "11731": 179,
        "11732": 125,
        "11733": 64,
        "11734": 156,
        "11735": 50,
        "11736": 235,
        "11737": 221,
        "11738": 141,
        "11739": 197,
        "11740": 161,
        "11741": 117,
        "11742": 69,
        "11743": 74,
        "11744": 25,
        "11745": 210,
        "11746": 156,
        "11747": 219,
        "11748": 224,
        "11749": 188,
        "11750": 89,
        "11751": 183,
        "11752": 243,
        "11753": 136,
        "11754": 196,
        "11755": 177,
        "11756": 148,
        "11757": 120,
        "11758": 62,
        "11759": 247,
        "11760": 116,
        "11761": 211,
        "11762": 230,
        "11763": 69,
        "11764": 66,
        "11765": 190,
        "11766": 161,
        "11767": 58,
        "11768": 247,
        "11769": 111,
        "11770": 109,
        "11771": 20,
        "11772": 243,
        "11773": 3,
        "11774": 127,
        "11775": 127,
        "11776": 16,
        "11777": 192,
        "11778": 216,
        "11779": 141,
        "11780": 19,
        "11781": 84,
        "11782": 233,
        "11783": 158,
        "11784": 144,
        "11785": 200,
        "11786": 72,
        "11787": 19,
        "11788": 143,
        "11789": 55,
        "11790": 238,
        "11791": 81,
        "11792": 149,
        "11793": 213,
        "11794": 31,
        "11795": 112,
        "11796": 49,
        "11797": 98,
        "11798": 248,
        "11799": 63,
        "11800": 224,
        "11801": 157,
        "11802": 21,
        "11803": 4,
        "11804": 128,
        "11805": 219,
        "11806": 112,
        "11807": 23,
        "11808": 9,
        "11809": 210,
        "11810": 202,
        "11811": 252,
        "11812": 142,
        "11813": 71,
        "11814": 151,
        "11815": 174,
        "11816": 48,
        "11817": 71,
        "11818": 80,
        "11819": 44,
        "11820": 53,
        "11821": 145,
        "11822": 195,
        "11823": 56,
        "11824": 19,
        "11825": 250,
        "11826": 2,
        "11827": 124,
        "11828": 204,
        "11829": 177,
        "11830": 73,
        "11831": 214,
        "11832": 53,
        "11833": 63,
        "11834": 135,
        "11835": 49,
        "11836": 209,
        "11837": 92,
        "11838": 84,
        "11839": 239,
        "11840": 63,
        "11841": 53,
        "11842": 110,
        "11843": 72,
        "11844": 43,
        "11845": 122,
        "11846": 132,
        "11847": 149,
        "11848": 38,
        "11849": 221,
        "11850": 216,
        "11851": 42,
        "11852": 243,
        "11853": 115,
        "11854": 157,
        "11855": 64,
        "11856": 126,
        "11857": 241,
        "11858": 65,
        "11859": 92,
        "11860": 206,
        "11861": 236,
        "11862": 234,
        "11863": 238,
        "11864": 51,
        "11865": 253,
        "11866": 239,
        "11867": 226,
        "11868": 45,
        "11869": 15,
        "11870": 79,
        "11871": 28,
        "11872": 130,
        "11873": 238,
        "11874": 19,
        "11875": 10,
        "11876": 111,
        "11877": 73,
        "11878": 16,
        "11879": 163,
        "11880": 31,
        "11881": 192,
        "11882": 4,
        "11883": 101,
        "11884": 164,
        "11885": 220,
        "11886": 6,
        "11887": 236,
        "11888": 108,
        "11889": 171,
        "11890": 127,
        "11891": 7,
        "11892": 16,
        "11893": 28,
        "11894": 191,
        "11895": 233,
        "11896": 169,
        "11897": 131,
        "11898": 147,
        "11899": 46,
        "11900": 207,
        "11901": 140,
        "11902": 152,
        "11903": 197,
        "11904": 116,
        "11905": 137,
        "11906": 72,
        "11907": 80,
        "11908": 201,
        "11909": 82,
        "11910": 81,
        "11911": 45,
        "11912": 143,
        "11913": 106,
        "11914": 155,
        "11915": 104,
        "11916": 87,
        "11917": 203,
        "11918": 128,
        "11919": 160,
        "11920": 241,
        "11921": 219,
        "11922": 34,
        "11923": 188,
        "11924": 185,
        "11925": 116,
        "11926": 151,
        "11927": 185,
        "11928": 226,
        "11929": 229,
        "11930": 167,
        "11931": 142,
        "11932": 12,
        "11933": 38,
        "11934": 115,
        "11935": 251,
        "11936": 209,
        "11937": 93,
        "11938": 159,
        "11939": 237,
        "11940": 170,
        "11941": 220,
        "11942": 32,
        "11943": 93,
        "11944": 66,
        "11945": 78,
        "11946": 161,
        "11947": 182,
        "11948": 10,
        "11949": 232,
        "11950": 18,
        "11951": 215,
        "11952": 3,
        "11953": 166,
        "11954": 17,
        "11955": 162,
        "11956": 206,
        "11957": 123,
        "11958": 83,
        "11959": 119,
        "11960": 86,
        "11961": 174,
        "11962": 248,
        "11963": 63,
        "11964": 95,
        "11965": 155,
        "11966": 146,
        "11967": 161,
        "11968": 23,
        "11969": 144,
        "11970": 61,
        "11971": 40,
        "11972": 149,
        "11973": 200,
        "11974": 148,
        "11975": 59,
        "11976": 96,
        "11977": 3,
        "11978": 235,
        "11979": 139,
        "11980": 142,
        "11981": 171,
        "11982": 127,
        "11983": 142,
        "11984": 149,
        "11985": 94,
        "11986": 194,
        "11987": 91,
        "11988": 226,
        "11989": 184,
        "11990": 229,
        "11991": 222,
        "11992": 51,
        "11993": 87,
        "11994": 200,
        "11995": 18,
        "11996": 81,
        "11997": 23,
        "11998": 121,
        "11999": 187,
        "12000": 34,
        "12001": 198,
        "12002": 62,
        "12003": 145,
        "12004": 106,
        "12005": 145,
        "12006": 18,
        "12007": 7,
        "12008": 234,
        "12009": 122,
        "12010": 111,
        "12011": 46,
        "12012": 110,
        "12013": 88,
        "12014": 46,
        "12015": 159,
        "12016": 115,
        "12017": 103,
        "12018": 184,
        "12019": 53,
        "12020": 121,
        "12021": 237,
        "12022": 96,
        "12023": 221,
        "12024": 93,
        "12025": 83,
        "12026": 160,
        "12027": 144,
        "12028": 240,
        "12029": 147,
        "12030": 71,
        "12031": 113,
        "12032": 77,
        "12033": 31,
        "12034": 75,
        "12035": 204,
        "12036": 237,
        "12037": 103,
        "12038": 23,
        "12039": 120,
        "12040": 2,
        "12041": 251,
        "12042": 98,
        "12043": 0,
        "12044": 62,
        "12045": 251,
        "12046": 229,
        "12047": 245,
        "12048": 46,
        "12049": 250,
        "12050": 88,
        "12051": 120,
        "12052": 186,
        "12053": 44,
        "12054": 93,
        "12055": 232,
        "12056": 236,
        "12057": 31,
        "12058": 217,
        "12059": 33,
        "12060": 79,
        "12061": 181,
        "12062": 82,
        "12063": 178,
        "12064": 74,
        "12065": 60,
        "12066": 243,
        "12067": 254,
        "12068": 203,
        "12069": 190,
        "12070": 129,
        "12071": 53,
        "12072": 64,
        "12073": 18,
        "12074": 113,
        "12075": 32,
        "12076": 10,
        "12077": 13,
        "12078": 234,
        "12079": 100,
        "12080": 67,
        "12081": 248,
        "12082": 99,
        "12083": 154,
        "12084": 228,
        "12085": 169,
        "12086": 60,
        "12087": 47,
        "12088": 204,
        "12089": 30,
        "12090": 55,
        "12091": 241,
        "12092": 250,
        "12093": 157,
        "12094": 175,
        "12095": 61,
        "12096": 54,
        "12097": 237,
        "12098": 156,
        "12099": 93,
        "12100": 237,
        "12101": 98,
        "12102": 238,
        "12103": 253,
        "12104": 208,
        "12105": 23,
        "12106": 242,
        "12107": 222,
        "12108": 207,
        "12109": 129,
        "12110": 225,
        "12111": 74,
        "12112": 133,
        "12113": 56,
        "12114": 107,
        "12115": 110,
        "12116": 153,
        "12117": 222,
        "12118": 53,
        "12119": 174,
        "12120": 179,
        "12121": 52,
        "12122": 61,
        "12123": 86,
        "12124": 4,
        "12125": 122,
        "12126": 196,
        "12127": 16,
        "12128": 194,
        "12129": 155,
        "12130": 122,
        "12131": 82,
        "12132": 101,
        "12133": 217,
        "12134": 55,
        "12135": 241,
        "12136": 171,
        "12137": 22,
        "12138": 172,
        "12139": 47,
        "12140": 150,
        "12141": 54,
        "12142": 237,
        "12143": 36,
        "12144": 61,
        "12145": 247,
        "12146": 34,
        "12147": 175,
        "12148": 145,
        "12149": 48,
        "12150": 114,
        "12151": 221,
        "12152": 240,
        "12153": 119,
        "12154": 189,
        "12155": 180,
        "12156": 248,
        "12157": 80,
        "12158": 134,
        "12159": 200,
        "12160": 110,
        "12161": 164,
        "12162": 151,
        "12163": 18,
        "12164": 116,
        "12165": 62,
        "12166": 202,
        "12167": 213,
        "12168": 190,
        "12169": 180,
        "12170": 127,
        "12171": 16,
        "12172": 199,
        "12173": 86,
        "12174": 169,
        "12175": 166,
        "12176": 149,
        "12177": 66,
        "12178": 195,
        "12179": 95,
        "12180": 2,
        "12181": 238,
        "12182": 151,
        "12183": 19,
        "12184": 183,
        "12185": 177,
        "12186": 142,
        "12187": 196,
        "12188": 141,
        "12189": 111,
        "12190": 250,
        "12191": 143,
        "12192": 120,
        "12193": 255,
        "12194": 86,
        "12195": 32,
        "12196": 78,
        "12197": 147,
        "12198": 75,
        "12199": 64,
        "12200": 207,
        "12201": 195,
        "12202": 193,
        "12203": 66,
        "12204": 54,
        "12205": 202,
        "12206": 3,
        "12207": 126,
        "12208": 189,
        "12209": 182,
        "12210": 23,
        "12211": 64,
        "12212": 53,
        "12213": 195,
        "12214": 93,
        "12215": 206,
        "12216": 92,
        "12217": 93,
        "12218": 153,
        "12219": 208,
        "12220": 251,
        "12221": 213,
        "12222": 218,
        "12223": 43,
        "12224": 215,
        "12225": 154,
        "12226": 126,
        "12227": 74,
        "12228": 50,
        "12229": 76,
        "12230": 50,
        "12231": 84,
        "12232": 222,
        "12233": 79,
        "12234": 2,
        "12235": 243,
        "12236": 2,
        "12237": 244,
        "12238": 145,
        "12239": 206,
        "12240": 155,
        "12241": 66,
        "12242": 193,
        "12243": 3,
        "12244": 123,
        "12245": 111,
        "12246": 8,
        "12247": 220,
        "12248": 129,
        "12249": 210,
        "12250": 89,
        "12251": 147,
        "12252": 147,
        "12253": 176,
        "12254": 192,
        "12255": 154,
        "12256": 136,
        "12257": 129,
        "12258": 83,
        "12259": 66,
        "12260": 68,
        "12261": 61,
        "12262": 139,
        "12263": 251,
        "12264": 204,
        "12265": 254,
        "12266": 13,
        "12267": 189,
        "12268": 132,
        "12269": 201,
        "12270": 36,
        "12271": 62,
        "12272": 54,
        "12273": 93,
        "12274": 173,
        "12275": 54,
        "12276": 38,
        "12277": 135,
        "12278": 48,
        "12279": 203,
        "12280": 6,
        "12281": 71,
        "12282": 246,
        "12283": 119,
        "12284": 224,
        "12285": 28,
        "12286": 34,
        "12287": 50,
        "12288": 26,
        "12289": 119,
        "12290": 148,
        "12291": 25,
        "12292": 111,
        "12293": 96,
        "12294": 31,
        "12295": 52,
        "12296": 160,
        "12297": 242,
        "12298": 240,
        "12299": 211,
        "12300": 215,
        "12301": 107,
        "12302": 123,
        "12303": 246,
        "12304": 20,
        "12305": 171,
        "12306": 199,
        "12307": 216,
        "12308": 154,
        "12309": 239,
        "12310": 145,
        "12311": 19,
        "12312": 78,
        "12313": 41,
        "12314": 56,
        "12315": 240,
        "12316": 178,
        "12317": 64,
        "12318": 123,
        "12319": 10,
        "12320": 246,
        "12321": 115,
        "12322": 197,
        "12323": 102,
        "12324": 146,
        "12325": 82,
        "12326": 40,
        "12327": 4,
        "12328": 17,
        "12329": 82,
        "12330": 31,
        "12331": 158,
        "12332": 75,
        "12333": 37,
        "12334": 156,
        "12335": 228,
        "12336": 100,
        "12337": 151,
        "12338": 191,
        "12339": 168,
        "12340": 195,
        "12341": 76,
        "12342": 201,
        "12343": 86,
        "12344": 159,
        "12345": 200,
        "12346": 153,
        "12347": 238,
        "12348": 152,
        "12349": 206,
        "12350": 176,
        "12351": 155,
        "12352": 52,
        "12353": 65,
        "12354": 121,
        "12355": 217,
        "12356": 61,
        "12357": 81,
        "12358": 76,
        "12359": 200,
        "12360": 91,
        "12361": 60,
        "12362": 23,
        "12363": 249,
        "12364": 189,
        "12365": 54,
        "12366": 209,
        "12367": 60,
        "12368": 120,
        "12369": 21,
        "12370": 180,
        "12371": 66,
        "12372": 204,
        "12373": 174,
        "12374": 14,
        "12375": 208,
        "12376": 132,
        "12377": 12,
        "12378": 194,
        "12379": 62,
        "12380": 169,
        "12381": 71,
        "12382": 101,
        "12383": 21,
        "12384": 70,
        "12385": 40,
        "12386": 5,
        "12387": 124,
        "12388": 202,
        "12389": 32,
        "12390": 70,
        "12391": 145,
        "12392": 179,
        "12393": 52,
        "12394": 78,
        "12395": 125,
        "12396": 55,
        "12397": 187,
        "12398": 142,
        "12399": 5,
        "12400": 41,
        "12401": 39,
        "12402": 238,
        "12403": 60,
        "12404": 213,
        "12405": 41,
        "12406": 153,
        "12407": 80,
        "12408": 66,
        "12409": 248,
        "12410": 132,
        "12411": 152,
        "12412": 141,
        "12413": 6,
        "12414": 127,
        "12415": 251,
        "12416": 92,
        "12417": 27,
        "12418": 14,
        "12419": 123,
        "12420": 161,
        "12421": 182,
        "12422": 63,
        "12423": 192,
        "12424": 22,
        "12425": 88,
        "12426": 239,
        "12427": 136,
        "12428": 97,
        "12429": 208,
        "12430": 199,
        "12431": 238,
        "12432": 185,
        "12433": 195,
        "12434": 103,
        "12435": 216,
        "12436": 212,
        "12437": 86,
        "12438": 53,
        "12439": 184,
        "12440": 142,
        "12441": 88,
        "12442": 149,
        "12443": 19,
        "12444": 115,
        "12445": 240,
        "12446": 127,
        "12447": 28,
        "12448": 157,
        "12449": 172,
        "12450": 221,
        "12451": 155,
        "12452": 161,
        "12453": 183,
        "12454": 222,
        "12455": 190,
        "12456": 159,
        "12457": 215,
        "12458": 96,
        "12459": 114,
        "12460": 60,
        "12461": 190,
        "12462": 59,
        "12463": 226,
        "12464": 11,
        "12465": 249,
        "12466": 102,
        "12467": 138,
        "12468": 103,
        "12469": 47,
        "12470": 254,
        "12471": 186,
        "12472": 75,
        "12473": 98,
        "12474": 228,
        "12475": 196,
        "12476": 140,
        "12477": 56,
        "12478": 15,
        "12479": 155,
        "12480": 72,
        "12481": 10,
        "12482": 205,
        "12483": 50,
        "12484": 167,
        "12485": 248,
        "12486": 250,
        "12487": 124,
        "12488": 154,
        "12489": 128,
        "12490": 212,
        "12491": 141,
        "12492": 149,
        "12493": 124,
        "12494": 48,
        "12495": 10,
        "12496": 243,
        "12497": 218,
        "12498": 94,
        "12499": 151,
        "12500": 172,
        "12501": 78,
        "12502": 180,
        "12503": 10,
        "12504": 241,
        "12505": 178,
        "12506": 113,
        "12507": 213,
        "12508": 129,
        "12509": 199,
        "12510": 51,
        "12511": 246,
        "12512": 124,
        "12513": 173,
        "12514": 17,
        "12515": 60,
        "12516": 254,
        "12517": 215,
        "12518": 175,
        "12519": 151,
        "12520": 4,
        "12521": 119,
        "12522": 140,
        "12523": 14,
        "12524": 228,
        "12525": 17,
        "12526": 196,
        "12527": 63,
        "12528": 50,
        "12529": 70,
        "12530": 196,
        "12531": 45,
        "12532": 47,
        "12533": 224,
        "12534": 126,
        "12535": 174,
        "12536": 224,
        "12537": 138,
        "12538": 170,
        "12539": 134,
        "12540": 122,
        "12541": 92,
        "12542": 77,
        "12543": 171,
        "12544": 94,
        "12545": 150,
        "12546": 162,
        "12547": 154,
        "12548": 140,
        "12549": 46,
        "12550": 236,
        "12551": 76,
        "12552": 115,
        "12553": 195,
        "12554": 195,
        "12555": 164,
        "12556": 176,
        "12557": 7,
        "12558": 149,
        "12559": 165,
        "12560": 96,
        "12561": 134,
        "12562": 42,
        "12563": 23,
        "12564": 120,
        "12565": 193,
        "12566": 246,
        "12567": 76,
        "12568": 44,
        "12569": 174,
        "12570": 166,
        "12571": 177,
        "12572": 235,
        "12573": 144,
        "12574": 19,
        "12575": 99,
        "12576": 56,
        "12577": 105,
        "12578": 4,
        "12579": 146,
        "12580": 236,
        "12581": 216,
        "12582": 231,
        "12583": 22,
        "12584": 255,
        "12585": 11,
        "12586": 71,
        "12587": 38,
        "12588": 141,
        "12589": 14,
        "12590": 109,
        "12591": 207,
        "12592": 172,
        "12593": 125,
        "12594": 250,
        "12595": 27,
        "12596": 128,
        "12597": 147,
        "12598": 85,
        "12599": 101,
        "12600": 184,
        "12601": 146,
        "12602": 115,
        "12603": 211,
        "12604": 44,
        "12605": 183,
        "12606": 90,
        "12607": 216,
        "12608": 3,
        "12609": 82,
        "12610": 93,
        "12611": 77,
        "12612": 57,
        "12613": 205,
        "12614": 211,
        "12615": 121,
        "12616": 250,
        "12617": 29,
        "12618": 102,
        "12619": 115,
        "12620": 233,
        "12621": 13,
        "12622": 113,
        "12623": 111,
        "12624": 201,
        "12625": 195,
        "12626": 79,
        "12627": 145,
        "12628": 246,
        "12629": 231,
        "12630": 158,
        "12631": 134,
        "12632": 83,
        "12633": 212,
        "12634": 97,
        "12635": 1,
        "12636": 90,
        "12637": 122,
        "12638": 151,
        "12639": 135,
        "12640": 200,
        "12641": 109,
        "12642": 220,
        "12643": 108,
        "12644": 89,
        "12645": 189,
        "12646": 233,
        "12647": 79,
        "12648": 153,
        "12649": 184,
        "12650": 198,
        "12651": 44,
        "12652": 176,
        "12653": 31,
        "12654": 242,
        "12655": 212,
        "12656": 240,
        "12657": 133,
        "12658": 235,
        "12659": 152,
        "12660": 46,
        "12661": 42,
        "12662": 164,
        "12663": 81,
        "12664": 248,
        "12665": 54,
        "12666": 145,
        "12667": 203,
        "12668": 17,
        "12669": 99,
        "12670": 254,
        "12671": 216,
        "12672": 19,
        "12673": 4,
        "12674": 112,
        "12675": 167,
        "12676": 189,
        "12677": 22,
        "12678": 79,
        "12679": 144,
        "12680": 43,
        "12681": 7,
        "12682": 90,
        "12683": 235,
        "12684": 205,
        "12685": 196,
        "12686": 170,
        "12687": 180,
        "12688": 58,
        "12689": 240,
        "12690": 143,
        "12691": 50,
        "12692": 222,
        "12693": 235,
        "12694": 206,
        "12695": 12,
        "12696": 6,
        "12697": 73,
        "12698": 16,
        "12699": 126,
        "12700": 55,
        "12701": 148,
        "12702": 228,
        "12703": 88,
        "12704": 98,
        "12705": 205,
        "12706": 165,
        "12707": 97,
        "12708": 126,
        "12709": 109,
        "12710": 48,
        "12711": 61,
        "12712": 52,
        "12713": 202,
        "12714": 223,
        "12715": 125,
        "12716": 255,
        "12717": 114,
        "12718": 60,
        "12719": 10,
        "12720": 246,
        "12721": 247,
        "12722": 172,
        "12723": 218,
        "12724": 161,
        "12725": 237,
        "12726": 112,
        "12727": 225,
        "12728": 198,
        "12729": 52,
        "12730": 74,
        "12731": 202,
        "12732": 84,
        "12733": 185,
        "12734": 247,
        "12735": 226,
        "12736": 221,
        "12737": 13,
        "12738": 214,
        "12739": 167,
        "12740": 142,
        "12741": 103,
        "12742": 18,
        "12743": 35,
        "12744": 228,
        "12745": 33,
        "12746": 25,
        "12747": 107,
        "12748": 162,
        "12749": 93,
        "12750": 129,
        "12751": 180,
        "12752": 75,
        "12753": 184,
        "12754": 65,
        "12755": 244,
        "12756": 243,
        "12757": 233,
        "12758": 214,
        "12759": 127,
        "12760": 252,
        "12761": 246,
        "12762": 246,
        "12763": 155,
        "12764": 139,
        "12765": 150,
        "12766": 98,
        "12767": 37,
        "12768": 127,
        "12769": 127,
        "12770": 21,
        "12771": 233,
        "12772": 105,
        "12773": 234,
        "12774": 245,
        "12775": 220,
        "12776": 103,
        "12777": 248,
        "12778": 89,
        "12779": 100,
        "12780": 176,
        "12781": 175,
        "12782": 164,
        "12783": 75,
        "12784": 20,
        "12785": 196,
        "12786": 108,
        "12787": 170,
        "12788": 161,
        "12789": 61,
        "12790": 240,
        "12791": 80,
        "12792": 1,
        "12793": 98,
        "12794": 246,
        "12795": 6,
        "12796": 26,
        "12797": 48,
        "12798": 217,
        "12799": 208,
        "12800": 15,
        "12801": 134,
        "12802": 208,
        "12803": 176,
        "12804": 83,
        "12805": 62,
        "12806": 230,
        "12807": 246,
        "12808": 100,
        "12809": 175,
        "12810": 226,
        "12811": 135,
        "12812": 199,
        "12813": 76,
        "12814": 57,
        "12815": 183,
        "12816": 18,
        "12817": 15,
        "12818": 76,
        "12819": 98,
        "12820": 230,
        "12821": 187,
        "12822": 240,
        "12823": 183,
        "12824": 124,
        "12825": 238,
        "12826": 238,
        "12827": 149,
        "12828": 163,
        "12829": 160,
        "12830": 71,
        "12831": 186,
        "12832": 165,
        "12833": 93,
        "12834": 253,
        "12835": 39,
        "12836": 10,
        "12837": 120,
        "12838": 120,
        "12839": 24,
        "12840": 27,
        "12841": 15,
        "12842": 139,
        "12843": 213,
        "12844": 28,
        "12845": 186,
        "12846": 51,
        "12847": 251,
        "12848": 167,
        "12849": 230,
        "12850": 224,
        "12851": 73,
        "12852": 117,
        "12853": 156,
        "12854": 114,
        "12855": 19,
        "12856": 180,
        "12857": 40,
        "12858": 132,
        "12859": 241,
        "12860": 141,
        "12861": 136,
        "12862": 193,
        "12863": 66,
        "12864": 130,
        "12865": 71,
        "12866": 130,
        "12867": 114,
        "12868": 139,
        "12869": 117,
        "12870": 58,
        "12871": 188,
        "12872": 80,
        "12873": 53,
        "12874": 21,
        "12875": 139,
        "12876": 168,
        "12877": 152,
        "12878": 246,
        "12879": 240,
        "12880": 66,
        "12881": 169,
        "12882": 39,
        "12883": 231,
        "12884": 134,
        "12885": 124,
        "12886": 83,
        "12887": 172,
        "12888": 124,
        "12889": 79,
        "12890": 29,
        "12891": 103,
        "12892": 2,
        "12893": 163,
        "12894": 43,
        "12895": 52,
        "12896": 69,
        "12897": 252,
        "12898": 89,
        "12899": 59,
        "12900": 230,
        "12901": 37,
        "12902": 139,
        "12903": 248,
        "12904": 170,
        "12905": 53,
        "12906": 114,
        "12907": 96,
        "12908": 235,
        "12909": 37,
        "12910": 214,
        "12911": 199,
        "12912": 73,
        "12913": 108,
        "12914": 238,
        "12915": 80,
        "12916": 20,
        "12917": 82,
        "12918": 120,
        "12919": 4,
        "12920": 199,
        "12921": 152,
        "12922": 4,
        "12923": 113,
        "12924": 50,
        "12925": 83,
        "12926": 235,
        "12927": 227,
        "12928": 5,
        "12929": 251,
        "12930": 181,
        "12931": 111,
        "12932": 38,
        "12933": 40,
        "12934": 70,
        "12935": 32,
        "12936": 179,
        "12937": 18,
        "12938": 132,
        "12939": 215,
        "12940": 28,
        "12941": 163,
        "12942": 195,
        "12943": 4,
        "12944": 225,
        "12945": 92,
        "12946": 4,
        "12947": 63,
        "12948": 160,
        "12949": 69,
        "12950": 198,
        "12951": 121,
        "12952": 145,
        "12953": 219,
        "12954": 13,
        "12955": 119,
        "12956": 183,
        "12957": 33,
        "12958": 130,
        "12959": 251,
        "12960": 246,
        "12961": 5,
        "12962": 176,
        "12963": 174,
        "12964": 108,
        "12965": 146,
        "12966": 189,
        "12967": 30,
        "12968": 129,
        "12969": 227,
        "12970": 242,
        "12971": 184,
        "12972": 21,
        "12973": 108,
        "12974": 117,
        "12975": 12,
        "12976": 247,
        "12977": 29,
        "12978": 7,
        "12979": 196,
        "12980": 188,
        "12981": 221,
        "12982": 68,
        "12983": 57,
        "12984": 165,
        "12985": 55,
        "12986": 76,
        "12987": 211,
        "12988": 130,
        "12989": 235,
        "12990": 52,
        "12991": 89,
        "12992": 217,
        "12993": 153,
        "12994": 50,
        "12995": 208,
        "12996": 33,
        "12997": 211,
        "12998": 168,
        "12999": 81,
        "13000": 183,
        "13001": 141,
        "13002": 229,
        "13003": 155,
        "13004": 112,
        "13005": 5,
        "13006": 65,
        "13007": 157,
        "13008": 233,
        "13009": 158,
        "13010": 55,
        "13011": 224,
        "13012": 197,
        "13013": 204,
        "13014": 76,
        "13015": 162,
        "13016": 5,
        "13017": 76,
        "13018": 59,
        "13019": 84,
        "13020": 54,
        "13021": 154,
        "13022": 127,
        "13023": 71,
        "13024": 144,
        "13025": 145,
        "13026": 103,
        "13027": 80,
        "13028": 90,
        "13029": 94,
        "13030": 149,
        "13031": 240,
        "13032": 15,
        "13033": 20,
        "13034": 135,
        "13035": 212,
        "13036": 201,
        "13037": 127,
        "13038": 140,
        "13039": 173,
        "13040": 184,
        "13041": 166,
        "13042": 28,
        "13043": 151,
        "13044": 97,
        "13045": 107,
        "13046": 124,
        "13047": 150,
        "13048": 110,
        "13049": 241,
        "13050": 135,
        "13051": 161,
        "13052": 149,
        "13053": 32,
        "13054": 240,
        "13055": 144,
        "13056": 179,
        "13057": 168,
        "13058": 86,
        "13059": 33,
        "13060": 84,
        "13061": 199,
        "13062": 212,
        "13063": 2,
        "13064": 202,
        "13065": 174,
        "13066": 103,
        "13067": 147,
        "13068": 103,
        "13069": 109,
        "13070": 204,
        "13071": 87,
        "13072": 214,
        "13073": 89,
        "13074": 205,
        "13075": 55,
        "13076": 2,
        "13077": 229,
        "13078": 113,
        "13079": 110,
        "13080": 172,
        "13081": 212,
        "13082": 188,
        "13083": 177,
        "13084": 167,
        "13085": 29,
        "13086": 179,
        "13087": 242,
        "13088": 4,
        "13089": 172,
        "13090": 241,
        "13091": 56,
        "13092": 1,
        "13093": 134,
        "13094": 156,
        "13095": 137,
        "13096": 82,
        "13097": 216,
        "13098": 9,
        "13099": 65,
        "13100": 224,
        "13101": 132,
        "13102": 218,
        "13103": 249,
        "13104": 19,
        "13105": 1,
        "13106": 3,
        "13107": 15,
        "13108": 210,
        "13109": 255,
        "13110": 96,
        "13111": 163,
        "13112": 118,
        "13113": 174,
        "13114": 192,
        "13115": 185,
        "13116": 139,
        "13117": 81,
        "13118": 29,
        "13119": 208,
        "13120": 210,
        "13121": 164,
        "13122": 231,
        "13123": 224,
        "13124": 130,
        "13125": 88,
        "13126": 150,
        "13127": 160,
        "13128": 125,
        "13129": 38,
        "13130": 164,
        "13131": 179,
        "13132": 249,
        "13133": 94,
        "13134": 200,
        "13135": 24,
        "13136": 171,
        "13137": 57,
        "13138": 203,
        "13139": 56,
        "13140": 130,
        "13141": 211,
        "13142": 157,
        "13143": 37,
        "13144": 144,
        "13145": 138,
        "13146": 249,
        "13147": 247,
        "13148": 200,
        "13149": 20,
        "13150": 151,
        "13151": 181,
        "13152": 194,
        "13153": 60,
        "13154": 18,
        "13155": 90,
        "13156": 221,
        "13157": 25,
        "13158": 254,
        "13159": 129,
        "13160": 166,
        "13161": 252,
        "13162": 170,
        "13163": 239,
        "13164": 213,
        "13165": 116,
        "13166": 55,
        "13167": 231,
        "13168": 12,
        "13169": 18,
        "13170": 19,
        "13171": 123,
        "13172": 23,
        "13173": 82,
        "13174": 225,
        "13175": 232,
        "13176": 207,
        "13177": 10,
        "13178": 72,
        "13179": 193,
        "13180": 10,
        "13181": 173,
        "13182": 41,
        "13183": 150,
        "13184": 195,
        "13185": 75,
        "13186": 207,
        "13187": 38,
        "13188": 19,
        "13189": 237,
        "13190": 63,
        "13191": 136,
        "13192": 187,
        "13193": 172,
        "13194": 85,
        "13195": 51,
        "13196": 168,
        "13197": 54,
        "13198": 44,
        "13199": 80,
        "13200": 65,
        "13201": 103,
        "13202": 41,
        "13203": 146,
        "13204": 158,
        "13205": 234,
        "13206": 186,
        "13207": 243,
        "13208": 244,
        "13209": 135,
        "13210": 182,
        "13211": 99,
        "13212": 160,
        "13213": 218,
        "13214": 224,
        "13215": 234,
        "13216": 206,
        "13217": 19,
        "13218": 49,
        "13219": 34,
        "13220": 39,
        "13221": 213,
        "13222": 97,
        "13223": 255,
        "13224": 113,
        "13225": 15,
        "13226": 14,
        "13227": 27,
        "13228": 11,
        "13229": 86,
        "13230": 210,
        "13231": 37,
        "13232": 244,
        "13233": 64,
        "13234": 119,
        "13235": 188,
        "13236": 91,
        "13237": 96,
        "13238": 48,
        "13239": 151,
        "13240": 238,
        "13241": 121,
        "13242": 133,
        "13243": 166,
        "13244": 134,
        "13245": 171,
        "13246": 13,
        "13247": 0,
        "13248": 101,
        "13249": 188,
        "13250": 202,
        "13251": 68,
        "13252": 251,
        "13253": 151,
        "13254": 240,
        "13255": 203,
        "13256": 62,
        "13257": 234,
        "13258": 252,
        "13259": 223,
        "13260": 235,
        "13261": 74,
        "13262": 125,
        "13263": 152,
        "13264": 223,
        "13265": 250,
        "13266": 83,
        "13267": 61,
        "13268": 189,
        "13269": 19,
        "13270": 65,
        "13271": 49,
        "13272": 107,
        "13273": 220,
        "13274": 204,
        "13275": 209,
        "13276": 29,
        "13277": 143,
        "13278": 133,
        "13279": 207,
        "13280": 148,
        "13281": 246,
        "13282": 243,
        "13283": 29,
        "13284": 189,
        "13285": 251,
        "13286": 96,
        "13287": 188,
        "13288": 191,
        "13289": 237,
        "13290": 199,
        "13291": 102,
        "13292": 13,
        "13293": 13,
        "13294": 221,
        "13295": 23,
        "13296": 76,
        "13297": 180,
        "13298": 113,
        "13299": 248,
        "13300": 94,
        "13301": 2,
        "13302": 87,
        "13303": 152,
        "13304": 253,
        "13305": 51,
        "13306": 198,
        "13307": 190,
        "13308": 109,
        "13309": 14,
        "13310": 132,
        "13311": 247,
        "13312": 136,
        "13313": 84,
        "13314": 219,
        "13315": 175,
        "13316": 6,
        "13317": 217,
        "13318": 211,
        "13319": 142,
        "13320": 92,
        "13321": 123,
        "13322": 4,
        "13323": 167,
        "13324": 26,
        "13325": 67,
        "13326": 61,
        "13327": 221,
        "13328": 158,
        "13329": 43,
        "13330": 158,
        "13331": 67,
        "13332": 188,
        "13333": 193,
        "13334": 85,
        "13335": 192,
        "13336": 170,
        "13337": 172,
        "13338": 96,
        "13339": 181,
        "13340": 254,
        "13341": 12,
        "13342": 251,
        "13343": 216,
        "13344": 92,
        "13345": 234,
        "13346": 214,
        "13347": 49,
        "13348": 42,
        "13349": 53,
        "13350": 21,
        "13351": 24,
        "13352": 122,
        "13353": 25,
        "13354": 182,
        "13355": 223,
        "13356": 253,
        "13357": 61,
        "13358": 105,
        "13359": 22,
        "13360": 202,
        "13361": 66,
        "13362": 120,
        "13363": 124,
        "13364": 212,
        "13365": 250,
        "13366": 128,
        "13367": 68,
        "13368": 251,
        "13369": 196,
        "13370": 155,
        "13371": 71,
        "13372": 115,
        "13373": 32,
        "13374": 31,
        "13375": 9,
        "13376": 155,
        "13377": 150,
        "13378": 220,
        "13379": 164,
        "13380": 23,
        "13381": 190,
        "13382": 140,
        "13383": 72,
        "13384": 234,
        "13385": 56,
        "13386": 89,
        "13387": 90,
        "13388": 180,
        "13389": 100,
        "13390": 154,
        "13391": 132,
        "13392": 250,
        "13393": 88,
        "13394": 147,
        "13395": 64,
        "13396": 16,
        "13397": 114,
        "13398": 73,
        "13399": 94,
        "13400": 107,
        "13401": 127,
        "13402": 31,
        "13403": 242,
        "13404": 137,
        "13405": 238,
        "13406": 36,
        "13407": 44,
        "13408": 45,
        "13409": 87,
        "13410": 145,
        "13411": 247,
        "13412": 162,
        "13413": 103,
        "13414": 115,
        "13415": 88,
        "13416": 127,
        "13417": 234,
        "13418": 17,
        "13419": 55,
        "13420": 79,
        "13421": 32,
        "13422": 19,
        "13423": 154,
        "13424": 141,
        "13425": 36,
        "13426": 161,
        "13427": 9,
        "13428": 215,
        "13429": 216,
        "13430": 139,
        "13431": 90,
        "13432": 134,
        "13433": 54,
        "13434": 202,
        "13435": 86,
        "13436": 62,
        "13437": 253,
        "13438": 238,
        "13439": 211,
        "13440": 250,
        "13441": 221,
        "13442": 115,
        "13443": 155,
        "13444": 182,
        "13445": 229,
        "13446": 3,
        "13447": 178,
        "13448": 99,
        "13449": 195,
        "13450": 129,
        "13451": 159,
        "13452": 13,
        "13453": 131,
        "13454": 126,
        "13455": 48,
        "13456": 44,
        "13457": 5,
        "13458": 54,
        "13459": 216,
        "13460": 117,
        "13461": 45,
        "13462": 232,
        "13463": 189,
        "13464": 53,
        "13465": 238,
        "13466": 11,
        "13467": 25,
        "13468": 58,
        "13469": 93,
        "13470": 27,
        "13471": 151,
        "13472": 12,
        "13473": 129,
        "13474": 178,
        "13475": 26,
        "13476": 221,
        "13477": 162,
        "13478": 27,
        "13479": 108,
        "13480": 221,
        "13481": 38,
        "13482": 98,
        "13483": 162,
        "13484": 59,
        "13485": 91,
        "13486": 27,
        "13487": 70,
        "13488": 80,
        "13489": 90,
        "13490": 157,
        "13491": 198,
        "13492": 103,
        "13493": 167,
        "13494": 33,
        "13495": 45,
        "13496": 245,
        "13497": 116,
        "13498": 192,
        "13499": 131,
        "13500": 24,
        "13501": 115,
        "13502": 226,
        "13503": 88,
        "13504": 123,
        "13505": 19,
        "13506": 189,
        "13507": 112,
        "13508": 186,
        "13509": 102,
        "13510": 205,
        "13511": 55,
        "13512": 192,
        "13513": 26,
        "13514": 118,
        "13515": 13,
        "13516": 88,
        "13517": 75,
        "13518": 22,
        "13519": 13,
        "13520": 231,
        "13521": 70,
        "13522": 120,
        "13523": 91,
        "13524": 117,
        "13525": 207,
        "13526": 91,
        "13527": 133,
        "13528": 235,
        "13529": 27,
        "13530": 181,
        "13531": 30,
        "13532": 63,
        "13533": 230,
        "13534": 10,
        "13535": 39,
        "13536": 1,
        "13537": 25,
        "13538": 186,
        "13539": 247,
        "13540": 138,
        "13541": 83,
        "13542": 182,
        "13543": 223,
        "13544": 56,
        "13545": 248,
        "13546": 157,
        "13547": 174,
        "13548": 19,
        "13549": 76,
        "13550": 39,
        "13551": 106,
        "13552": 72,
        "13553": 171,
        "13554": 52,
        "13555": 3,
        "13556": 124,
        "13557": 203,
        "13558": 163,
        "13559": 239,
        "13560": 151,
        "13561": 35,
        "13562": 150,
        "13563": 227,
        "13564": 242,
        "13565": 199,
        "13566": 55,
        "13567": 122,
        "13568": 28,
        "13569": 25,
        "13570": 193,
        "13571": 83,
        "13572": 170,
        "13573": 142,
        "13574": 67,
        "13575": 233,
        "13576": 181,
        "13577": 3,
        "13578": 205,
        "13579": 193,
        "13580": 145,
        "13581": 167,
        "13582": 183,
        "13583": 61,
        "13584": 127,
        "13585": 122,
        "13586": 165,
        "13587": 189,
        "13588": 59,
        "13589": 133,
        "13590": 178,
        "13591": 164,
        "13592": 189,
        "13593": 236,
        "13594": 152,
        "13595": 45,
        "13596": 245,
        "13597": 129,
        "13598": 252,
        "13599": 16,
        "13600": 22,
        "13601": 220,
        "13602": 43,
        "13603": 134,
        "13604": 152,
        "13605": 77,
        "13606": 213,
        "13607": 50,
        "13608": 72,
        "13609": 239,
        "13610": 122,
        "13611": 209,
        "13612": 23,
        "13613": 243,
        "13614": 31,
        "13615": 0,
        "13616": 240,
        "13617": 168,
        "13618": 42,
        "13619": 81,
        "13620": 88,
        "13621": 66,
        "13622": 120,
        "13623": 196,
        "13624": 219,
        "13625": 12,
        "13626": 168,
        "13627": 133,
        "13628": 251,
        "13629": 42,
        "13630": 31,
        "13631": 140,
        "13632": 201,
        "13633": 11,
        "13634": 219,
        "13635": 40,
        "13636": 147,
        "13637": 37,
        "13638": 47,
        "13639": 242,
        "13640": 215,
        "13641": 45,
        "13642": 143,
        "13643": 39,
        "13644": 22,
        "13645": 18,
        "13646": 225,
        "13647": 62,
        "13648": 103,
        "13649": 207,
        "13650": 214,
        "13651": 85,
        "13652": 145,
        "13653": 197,
        "13654": 144,
        "13655": 141,
        "13656": 200,
        "13657": 126,
        "13658": 225,
        "13659": 11,
        "13660": 19,
        "13661": 127,
        "13662": 5,
        "13663": 119,
        "13664": 165,
        "13665": 160,
        "13666": 14,
        "13667": 85,
        "13668": 131,
        "13669": 254,
        "13670": 71,
        "13671": 148,
        "13672": 141,
        "13673": 81,
        "13674": 15,
        "13675": 1,
        "13676": 81,
        "13677": 184,
        "13678": 207,
        "13679": 68,
        "13680": 100,
        "13681": 56,
        "13682": 181,
        "13683": 186,
        "13684": 248,
        "13685": 201,
        "13686": 44,
        "13687": 48,
        "13688": 135,
        "13689": 83,
        "13690": 97,
        "13691": 183,
        "13692": 13,
        "13693": 54,
        "13694": 50,
        "13695": 121,
        "13696": 102,
        "13697": 114,
        "13698": 229,
        "13699": 53,
        "13700": 252,
        "13701": 181,
        "13702": 192,
        "13703": 220,
        "13704": 105,
        "13705": 30,
        "13706": 129,
        "13707": 88,
        "13708": 164,
        "13709": 121,
        "13710": 111,
        "13711": 65,
        "13712": 152,
        "13713": 125,
        "13714": 33,
        "13715": 214,
        "13716": 205,
        "13717": 96,
        "13718": 10,
        "13719": 52,
        "13720": 162,
        "13721": 195,
        "13722": 12,
        "13723": 179,
        "13724": 98,
        "13725": 213,
        "13726": 252,
        "13727": 150,
        "13728": 98,
        "13729": 73,
        "13730": 108,
        "13731": 67,
        "13732": 240,
        "13733": 113,
        "13734": 170,
        "13735": 102,
        "13736": 69,
        "13737": 48,
        "13738": 50,
        "13739": 157,
        "13740": 4,
        "13741": 2,
        "13742": 193,
        "13743": 164,
        "13744": 232,
        "13745": 137,
        "13746": 219,
        "13747": 188,
        "13748": 80,
        "13749": 117,
        "13750": 74,
        "13751": 7,
        "13752": 54,
        "13753": 200,
        "13754": 18,
        "13755": 151,
        "13756": 208,
        "13757": 200,
        "13758": 241,
        "13759": 55,
        "13760": 91,
        "13761": 119,
        "13762": 7,
        "13763": 148,
        "13764": 215,
        "13765": 137,
        "13766": 144,
        "13767": 138,
        "13768": 107,
        "13769": 131,
        "13770": 22,
        "13771": 180,
        "13772": 36,
        "13773": 77,
        "13774": 207,
        "13775": 11,
        "13776": 181,
        "13777": 136,
        "13778": 161,
        "13779": 115,
        "13780": 152,
        "13781": 8,
        "13782": 203,
        "13783": 253,
        "13784": 92,
        "13785": 93,
        "13786": 127,
        "13787": 193,
        "13788": 76,
        "13789": 1,
        "13790": 47,
        "13791": 124,
        "13792": 30,
        "13793": 136,
        "13794": 137,
        "13795": 212,
        "13796": 83,
        "13797": 210,
        "13798": 83,
        "13799": 74,
        "13800": 32,
        "13801": 33,
        "13802": 16,
        "13803": 21,
        "13804": 34,
        "13805": 85,
        "13806": 19,
        "13807": 27,
        "13808": 169,
        "13809": 77,
        "13810": 127,
        "13811": 234,
        "13812": 57,
        "13813": 194,
        "13814": 184,
        "13815": 230,
        "13816": 135,
        "13817": 169,
        "13818": 91,
        "13819": 218,
        "13820": 30,
        "13821": 197,
        "13822": 192,
        "13823": 226,
        "13824": 46,
        "13825": 28,
        "13826": 181,
        "13827": 221,
        "13828": 13,
        "13829": 62,
        "13830": 153,
        "13831": 147,
        "13832": 59,
        "13833": 168,
        "13834": 250,
        "13835": 229,
        "13836": 215,
        "13837": 164,
        "13838": 136,
        "13839": 155,
        "13840": 213,
        "13841": 49,
        "13842": 183,
        "13843": 179,
        "13844": 130,
        "13845": 201,
        "13846": 52,
        "13847": 111,
        "13848": 247,
        "13849": 84,
        "13850": 101,
        "13851": 233,
        "13852": 233,
        "13853": 45,
        "13854": 245,
        "13855": 163,
        "13856": 62,
        "13857": 55,
        "13858": 180,
        "13859": 255,
        "13860": 15,
        "13861": 135,
        "13862": 10,
        "13863": 164,
        "13864": 118,
        "13865": 132,
        "13866": 229,
        "13867": 212,
        "13868": 251,
        "13869": 241,
        "13870": 160,
        "13871": 14,
        "13872": 26,
        "13873": 234,
        "13874": 139,
        "13875": 18,
        "13876": 80,
        "13877": 21,
        "13878": 88,
        "13879": 252,
        "13880": 14,
        "13881": 179,
        "13882": 210,
        "13883": 255,
        "13884": 172,
        "13885": 157,
        "13886": 232,
        "13887": 61,
        "13888": 130,
        "13889": 215,
        "13890": 154,
        "13891": 16,
        "13892": 201,
        "13893": 176,
        "13894": 225,
        "13895": 98,
        "13896": 34,
        "13897": 138,
        "13898": 189,
        "13899": 24,
        "13900": 10,
        "13901": 160,
        "13902": 74,
        "13903": 160,
        "13904": 24,
        "13905": 107,
        "13906": 224,
        "13907": 28,
        "13908": 140,
        "13909": 130,
        "13910": 236,
        "13911": 143,
        "13912": 232,
        "13913": 84,
        "13914": 217,
        "13915": 179,
        "13916": 48,
        "13917": 15,
        "13918": 82,
        "13919": 27,
        "13920": 68,
        "13921": 128,
        "13922": 38,
        "13923": 138,
        "13924": 26,
        "13925": 133,
        "13926": 45,
        "13927": 10,
        "13928": 162,
        "13929": 146,
        "13930": 216,
        "13931": 31,
        "13932": 182,
        "13933": 227,
        "13934": 243,
        "13935": 165,
        "13936": 61,
        "13937": 192,
        "13938": 188,
        "13939": 76,
        "13940": 92,
        "13941": 169,
        "13942": 242,
        "13943": 130,
        "13944": 0,
        "13945": 110,
        "13946": 221,
        "13947": 144,
        "13948": 37,
        "13949": 188,
        "13950": 144,
        "13951": 157,
        "13952": 96,
        "13953": 156,
        "13954": 25,
        "13955": 3,
        "13956": 107,
        "13957": 117,
        "13958": 13,
        "13959": 195,
        "13960": 224,
        "13961": 192,
        "13962": 35,
        "13963": 137,
        "13964": 209,
        "13965": 211,
        "13966": 174,
        "13967": 133,
        "13968": 163,
        "13969": 92,
        "13970": 177,
        "13971": 68,
        "13972": 132,
        "13973": 110,
        "13974": 63,
        "13975": 77,
        "13976": 191,
        "13977": 174,
        "13978": 39,
        "13979": 195,
        "13980": 55,
        "13981": 225,
        "13982": 5,
        "13983": 162,
        "13984": 78,
        "13985": 196,
        "13986": 247,
        "13987": 248,
        "13988": 36,
        "13989": 170,
        "13990": 7,
        "13991": 64,
        "13992": 156,
        "13993": 140,
        "13994": 72,
        "13995": 105,
        "13996": 122,
        "13997": 51,
        "13998": 130,
        "13999": 129,
        "14000": 187,
        "14001": 26,
        "14002": 225,
        "14003": 78,
        "14004": 174,
        "14005": 239,
        "14006": 235,
        "14007": 78,
        "14008": 209,
        "14009": 94,
        "14010": 175,
        "14011": 108,
        "14012": 61,
        "14013": 167,
        "14014": 30,
        "14015": 101,
        "14016": 251,
        "14017": 41,
        "14018": 108,
        "14019": 254,
        "14020": 173,
        "14021": 168,
        "14022": 12,
        "14023": 3,
        "14024": 0,
        "14025": 180,
        "14026": 203,
        "14027": 255,
        "14028": 158,
        "14029": 104,
        "14030": 44,
        "14031": 236,
        "14032": 59,
        "14033": 56,
        "14034": 96,
        "14035": 182,
        "14036": 69,
        "14037": 158,
        "14038": 100,
        "14039": 50,
        "14040": 81,
        "14041": 252,
        "14042": 239,
        "14043": 61,
        "14044": 224,
        "14045": 187,
        "14046": 102,
        "14047": 70,
        "14048": 136,
        "14049": 61,
        "14050": 16,
        "14051": 64,
        "14052": 22,
        "14053": 150,
        "14054": 187,
        "14055": 145,
        "14056": 124,
        "14057": 153,
        "14058": 247,
        "14059": 155,
        "14060": 89,
        "14061": 172,
        "14062": 254,
        "14063": 49,
        "14064": 249,
        "14065": 76,
        "14066": 148,
        "14067": 127,
        "14068": 164,
        "14069": 48,
        "14070": 136,
        "14071": 127,
        "14072": 184,
        "14073": 157,
        "14074": 187,
        "14075": 97,
        "14076": 145,
        "14077": 113,
        "14078": 238,
        "14079": 206,
        "14080": 93,
        "14081": 191,
        "14082": 198,
        "14083": 207,
        "14084": 7,
        "14085": 207,
        "14086": 109,
        "14087": 46,
        "14088": 209,
        "14089": 231,
        "14090": 52,
        "14091": 124,
        "14092": 151,
        "14093": 54,
        "14094": 109,
        "14095": 216,
        "14096": 109,
        "14097": 40,
        "14098": 228,
        "14099": 78,
        "14100": 73,
        "14101": 175,
        "14102": 62,
        "14103": 223,
        "14104": 41,
        "14105": 90,
        "14106": 123,
        "14107": 0,
        "14108": 32,
        "14109": 32,
        "14110": 201,
        "14111": 251,
        "14112": 250,
        "14113": 207,
        "14114": 84,
        "14115": 197,
        "14116": 255,
        "14117": 177,
        "14118": 38,
        "14119": 34,
        "14120": 58,
        "14121": 192,
        "14122": 155,
        "14123": 70,
        "14124": 93,
        "14125": 106,
        "14126": 254,
        "14127": 70,
        "14128": 153,
        "14129": 61,
        "14130": 214,
        "14131": 243,
        "14132": 177,
        "14133": 160,
        "14134": 159,
        "14135": 47,
        "14136": 130,
        "14137": 246,
        "14138": 118,
        "14139": 79,
        "14140": 73,
        "14141": 210,
        "14142": 192,
        "14143": 36,
        "14144": 115,
        "14145": 64,
        "14146": 146,
        "14147": 182,
        "14148": 112,
        "14149": 62,
        "14150": 122,
        "14151": 86,
        "14152": 48,
        "14153": 141,
        "14154": 203,
        "14155": 47,
        "14156": 157,
        "14157": 128,
        "14158": 54,
        "14159": 78,
        "14160": 123,
        "14161": 146,
        "14162": 91,
        "14163": 243,
        "14164": 173,
        "14165": 201,
        "14166": 43,
        "14167": 36,
        "14168": 48,
        "14169": 100,
        "14170": 41,
        "14171": 71,
        "14172": 143,
        "14173": 183,
        "14174": 3,
        "14175": 148,
        "14176": 56,
        "14177": 68,
        "14178": 8,
        "14179": 86,
        "14180": 213,
        "14181": 240,
        "14182": 133,
        "14183": 199,
        "14184": 204,
        "14185": 139,
        "14186": 30,
        "14187": 138,
        "14188": 22,
        "14189": 199,
        "14190": 208,
        "14191": 162,
        "14192": 53,
        "14193": 53,
        "14194": 89,
        "14195": 6,
        "14196": 246,
        "14197": 66,
        "14198": 182,
        "14199": 0,
        "14200": 152,
        "14201": 187,
        "14202": 152,
        "14203": 182,
        "14204": 151,
        "14205": 224,
        "14206": 82,
        "14207": 181,
        "14208": 185,
        "14209": 211,
        "14210": 121,
        "14211": 81,
        "14212": 159,
        "14213": 14,
        "14214": 52,
        "14215": 36,
        "14216": 73,
        "14217": 218,
        "14218": 148,
        "14219": 4,
        "14220": 164,
        "14221": 34,
        "14222": 4,
        "14223": 98,
        "14224": 99,
        "14225": 98,
        "14226": 192,
        "14227": 189,
        "14228": 163,
        "14229": 192,
        "14230": 16,
        "14231": 199,
        "14232": 17,
        "14233": 29,
        "14234": 255,
        "14235": 158,
        "14236": 189,
        "14237": 102,
        "14238": 79,
        "14239": 86,
        "14240": 92,
        "14241": 213,
        "14242": 0,
        "14243": 231,
        "14244": 163,
        "14245": 122,
        "14246": 156,
        "14247": 228,
        "14248": 128,
        "14249": 25,
        "14250": 4,
        "14251": 222,
        "14252": 71,
        "14253": 66,
        "14254": 159,
        "14255": 112,
        "14256": 83,
        "14257": 235,
        "14258": 118,
        "14259": 50,
        "14260": 161,
        "14261": 153,
        "14262": 59,
        "14263": 36,
        "14264": 44,
        "14265": 185,
        "14266": 155,
        "14267": 119,
        "14268": 53,
        "14269": 200,
        "14270": 196,
        "14271": 17,
        "14272": 186,
        "14273": 183,
        "14274": 24,
        "14275": 121,
        "14276": 1,
        "14277": 121,
        "14278": 132,
        "14279": 242,
        "14280": 68,
        "14281": 127,
        "14282": 137,
        "14283": 11,
        "14284": 184,
        "14285": 247,
        "14286": 96,
        "14287": 120,
        "14288": 146,
        "14289": 74,
        "14290": 194,
        "14291": 207,
        "14292": 40,
        "14293": 205,
        "14294": 6,
        "14295": 99,
        "14296": 61,
        "14297": 156,
        "14298": 40,
        "14299": 68,
        "14300": 143,
        "14301": 121,
        "14302": 170,
        "14303": 160,
        "14304": 222,
        "14305": 224,
        "14306": 158,
        "14307": 133,
        "14308": 11,
        "14309": 227,
        "14310": 61,
        "14311": 172,
        "14312": 205,
        "14313": 163,
        "14314": 221,
        "14315": 227,
        "14316": 145,
        "14317": 105,
        "14318": 109,
        "14319": 88,
        "14320": 109,
        "14321": 85,
        "14322": 244,
        "14323": 46,
        "14324": 128,
        "14325": 135,
        "14326": 185,
        "14327": 189,
        "14328": 235,
        "14329": 124,
        "14330": 33,
        "14331": 128,
        "14332": 60,
        "14333": 181,
        "14334": 202,
        "14335": 73,
        "14336": 88,
        "14337": 171,
        "14338": 118,
        "14339": 41,
        "14340": 235,
        "14341": 138,
        "14342": 83,
        "14343": 211,
        "14344": 87,
        "14345": 48,
        "14346": 74,
        "14347": 164,
        "14348": 159,
        "14349": 30,
        "14350": 69,
        "14351": 156,
        "14352": 185,
        "14353": 148,
        "14354": 30,
        "14355": 43,
        "14356": 88,
        "14357": 44,
        "14358": 119,
        "14359": 225,
        "14360": 137,
        "14361": 251,
        "14362": 214,
        "14363": 242,
        "14364": 24,
        "14365": 240,
        "14366": 71,
        "14367": 162,
        "14368": 52,
        "14369": 12,
        "14370": 46,
        "14371": 52,
        "14372": 15,
        "14373": 175,
        "14374": 91,
        "14375": 153,
        "14376": 233,
        "14377": 36,
        "14378": 18,
        "14379": 237,
        "14380": 22,
        "14381": 24,
        "14382": 127,
        "14383": 147,
        "14384": 248,
        "14385": 194,
        "14386": 239,
        "14387": 195,
        "14388": 14,
        "14389": 5,
        "14390": 7,
        "14391": 170,
        "14392": 50,
        "14393": 180,
        "14394": 41,
        "14395": 196,
        "14396": 143,
        "14397": 158,
        "14398": 6,
        "14399": 20,
        "14400": 61,
        "14401": 228,
        "14402": 235,
        "14403": 40,
        "14404": 3,
        "14405": 53,
        "14406": 182,
        "14407": 18,
        "14408": 233,
        "14409": 139,
        "14410": 39,
        "14411": 116,
        "14412": 36,
        "14413": 45,
        "14414": 210,
        "14415": 16,
        "14416": 142,
        "14417": 249,
        "14418": 90,
        "14419": 72,
        "14420": 251,
        "14421": 146,
        "14422": 107,
        "14423": 64,
        "14424": 147,
        "14425": 95,
        "14426": 71,
        "14427": 21,
        "14428": 85,
        "14429": 248,
        "14430": 212,
        "14431": 23,
        "14432": 77,
        "14433": 94,
        "14434": 61,
        "14435": 207,
        "14436": 68,
        "14437": 18,
        "14438": 185,
        "14439": 194,
        "14440": 202,
        "14441": 246,
        "14442": 199,
        "14443": 121,
        "14444": 51,
        "14445": 211,
        "14446": 61,
        "14447": 8,
        "14448": 36,
        "14449": 113,
        "14450": 227,
        "14451": 9,
        "14452": 197,
        "14453": 39,
        "14454": 178,
        "14455": 165,
        "14456": 143,
        "14457": 235,
        "14458": 120,
        "14459": 165,
        "14460": 173,
        "14461": 4,
        "14462": 230,
        "14463": 83,
        "14464": 85,
        "14465": 253,
        "14466": 29,
        "14467": 176,
        "14468": 131,
        "14469": 105,
        "14470": 129,
        "14471": 130,
        "14472": 32,
        "14473": 25,
        "14474": 191,
        "14475": 54,
        "14476": 150,
        "14477": 39,
        "14478": 109,
        "14479": 83,
        "14480": 195,
        "14481": 91,
        "14482": 238,
        "14483": 125,
        "14484": 185,
        "14485": 30,
        "14486": 157,
        "14487": 101,
        "14488": 253,
        "14489": 85,
        "14490": 156,
        "14491": 16,
        "14492": 44,
        "14493": 227,
        "14494": 111,
        "14495": 36,
        "14496": 117,
        "14497": 121,
        "14498": 27,
        "14499": 80,
        "14500": 240,
        "14501": 52,
        "14502": 58,
        "14503": 163,
        "14504": 7,
        "14505": 249,
        "14506": 230,
        "14507": 16,
        "14508": 118,
        "14509": 166,
        "14510": 101,
        "14511": 40,
        "14512": 164,
        "14513": 126,
        "14514": 162,
        "14515": 224,
        "14516": 84,
        "14517": 193,
        "14518": 67,
        "14519": 93,
        "14520": 242,
        "14521": 216,
        "14522": 126,
        "14523": 186,
        "14524": 161,
        "14525": 192,
        "14526": 114,
        "14527": 34,
        "14528": 8,
        "14529": 147,
        "14530": 232,
        "14531": 20,
        "14532": 179,
        "14533": 230,
        "14534": 156,
        "14535": 220,
        "14536": 106,
        "14537": 33,
        "14538": 106,
        "14539": 254,
        "14540": 92,
        "14541": 163,
        "14542": 193,
        "14543": 191,
        "14544": 180,
        "14545": 72,
        "14546": 92,
        "14547": 167,
        "14548": 238,
        "14549": 30,
        "14550": 18,
        "14551": 255,
        "14552": 200,
        "14553": 6,
        "14554": 53,
        "14555": 106,
        "14556": 185,
        "14557": 28,
        "14558": 8,
        "14559": 176,
        "14560": 195,
        "14561": 233,
        "14562": 178,
        "14563": 231,
        "14564": 122,
        "14565": 161,
        "14566": 208,
        "14567": 102,
        "14568": 184,
        "14569": 63,
        "14570": 106,
        "14571": 11,
        "14572": 235,
        "14573": 211,
        "14574": 103,
        "14575": 248,
        "14576": 174,
        "14577": 92,
        "14578": 40,
        "14579": 50,
        "14580": 189,
        "14581": 162,
        "14582": 108,
        "14583": 38,
        "14584": 66,
        "14585": 250,
        "14586": 52,
        "14587": 198,
        "14588": 251,
        "14589": 94,
        "14590": 164,
        "14591": 247,
        "14592": 110,
        "14593": 186,
        "14594": 162,
        "14595": 17,
        "14596": 53,
        "14597": 209,
        "14598": 189,
        "14599": 209,
        "14600": 103,
        "14601": 213,
        "14602": 9,
        "14603": 15,
        "14604": 134,
        "14605": 69,
        "14606": 149,
        "14607": 102,
        "14608": 136,
        "14609": 46,
        "14610": 219,
        "14611": 55,
        "14612": 83,
        "14613": 152,
        "14614": 100,
        "14615": 229,
        "14616": 36,
        "14617": 194,
        "14618": 165,
        "14619": 156,
        "14620": 146,
        "14621": 113,
        "14622": 185,
        "14623": 29,
        "14624": 240,
        "14625": 126,
        "14626": 48,
        "14627": 125,
        "14628": 129,
        "14629": 28,
        "14630": 41,
        "14631": 254,
        "14632": 171,
        "14633": 8,
        "14634": 165,
        "14635": 253,
        "14636": 62,
        "14637": 242,
        "14638": 98,
        "14639": 64,
        "14640": 58,
        "14641": 55,
        "14642": 209,
        "14643": 153,
        "14644": 142,
        "14645": 153,
        "14646": 15,
        "14647": 30,
        "14648": 202,
        "14649": 12,
        "14650": 243,
        "14651": 81,
        "14652": 237,
        "14653": 194,
        "14654": 174,
        "14655": 166,
        "14656": 118,
        "14657": 250,
        "14658": 1,
        "14659": 189,
        "14660": 104,
        "14661": 138,
        "14662": 28,
        "14663": 127,
        "14664": 89,
        "14665": 226,
        "14666": 86,
        "14667": 136,
        "14668": 72,
        "14669": 171,
        "14670": 3,
        "14671": 103,
        "14672": 152,
        "14673": 179,
        "14674": 67,
        "14675": 135,
        "14676": 98,
        "14677": 211,
        "14678": 201,
        "14679": 75,
        "14680": 6,
        "14681": 1,
        "14682": 44,
        "14683": 65,
        "14684": 22,
        "14685": 184,
        "14686": 45,
        "14687": 12,
        "14688": 254,
        "14689": 27,
        "14690": 17,
        "14691": 10,
        "14692": 248,
        "14693": 235,
        "14694": 60,
        "14695": 35,
        "14696": 202,
        "14697": 29,
        "14698": 92,
        "14699": 66,
        "14700": 151,
        "14701": 43,
        "14702": 29,
        "14703": 103,
        "14704": 19,
        "14705": 183,
        "14706": 172,
        "14707": 51,
        "14708": 27,
        "14709": 246,
        "14710": 203,
        "14711": 10,
        "14712": 62,
        "14713": 84,
        "14714": 100,
        "14715": 105,
        "14716": 227,
        "14717": 174,
        "14718": 121,
        "14719": 185,
        "14720": 90,
        "14721": 194,
        "14722": 24,
        "14723": 48,
        "14724": 81,
        "14725": 186,
        "14726": 126,
        "14727": 172,
        "14728": 113,
        "14729": 139,
        "14730": 235,
        "14731": 117,
        "14732": 49,
        "14733": 226,
        "14734": 66,
        "14735": 243,
        "14736": 80,
        "14737": 15,
        "14738": 53,
        "14739": 125,
        "14740": 189,
        "14741": 54,
        "14742": 33,
        "14743": 42,
        "14744": 193,
        "14745": 163,
        "14746": 61,
        "14747": 7,
        "14748": 4,
        "14749": 181,
        "14750": 248,
        "14751": 245,
        "14752": 17,
        "14753": 137,
        "14754": 166,
        "14755": 10,
        "14756": 100,
        "14757": 172,
        "14758": 29,
        "14759": 213,
        "14760": 39,
        "14761": 56,
        "14762": 127,
        "14763": 240,
        "14764": 102,
        "14765": 16,
        "14766": 119,
        "14767": 90,
        "14768": 50,
        "14769": 111,
        "14770": 190,
        "14771": 205,
        "14772": 37,
        "14773": 185,
        "14774": 76,
        "14775": 15,
        "14776": 75,
        "14777": 186,
        "14778": 97,
        "14779": 209,
        "14780": 190,
        "14781": 206,
        "14782": 174,
        "14783": 64,
        "14784": 6,
        "14785": 16,
        "14786": 144,
        "14787": 48,
        "14788": 24,
        "14789": 237,
        "14790": 155,
        "14791": 63,
        "14792": 138,
        "14793": 177,
        "14794": 56,
        "14795": 176,
        "14796": 181,
        "14797": 74,
        "14798": 251,
        "14799": 81,
        "14800": 43,
        "14801": 232,
        "14802": 236,
        "14803": 224,
        "14804": 189,
        "14805": 1,
        "14806": 206,
        "14807": 62,
        "14808": 62,
        "14809": 145,
        "14810": 158,
        "14811": 148,
        "14812": 214,
        "14813": 168,
        "14814": 60,
        "14815": 158,
        "14816": 35,
        "14817": 247,
        "14818": 68,
        "14819": 56,
        "14820": 219,
        "14821": 9,
        "14822": 50,
        "14823": 31,
        "14824": 143,
        "14825": 205,
        "14826": 69,
        "14827": 148,
        "14828": 154,
        "14829": 122,
        "14830": 162,
        "14831": 146,
        "14832": 43,
        "14833": 40,
        "14834": 84,
        "14835": 24,
        "14836": 227,
        "14837": 73,
        "14838": 103,
        "14839": 31,
        "14840": 155,
        "14841": 255,
        "14842": 241,
        "14843": 164,
        "14844": 188,
        "14845": 251,
        "14846": 140,
        "14847": 223,
        "14848": 173,
        "14849": 217,
        "14850": 230,
        "14851": 201,
        "14852": 185,
        "14853": 178,
        "14854": 186,
        "14855": 132,
        "14856": 131,
        "14857": 18,
        "14858": 163,
        "14859": 88,
        "14860": 144,
        "14861": 242,
        "14862": 62,
        "14863": 122,
        "14864": 66,
        "14865": 77,
        "14866": 125,
        "14867": 174,
        "14868": 175,
        "14869": 158,
        "14870": 86,
        "14871": 138,
        "14872": 72,
        "14873": 246,
        "14874": 179,
        "14875": 103,
        "14876": 10,
        "14877": 93,
        "14878": 112,
        "14879": 142,
        "14880": 49,
        "14881": 52,
        "14882": 82,
        "14883": 227,
        "14884": 103,
        "14885": 210,
        "14886": 116,
        "14887": 133,
        "14888": 147,
        "14889": 192,
        "14890": 234,
        "14891": 135,
        "14892": 62,
        "14893": 205,
        "14894": 86,
        "14895": 202,
        "14896": 157,
        "14897": 7,
        "14898": 189,
        "14899": 160,
        "14900": 102,
        "14901": 224,
        "14902": 185,
        "14903": 106,
        "14904": 195,
        "14905": 147,
        "14906": 148,
        "14907": 69,
        "14908": 40,
        "14909": 177,
        "14910": 164,
        "14911": 124,
        "14912": 177,
        "14913": 97,
        "14914": 141,
        "14915": 119,
        "14916": 52,
        "14917": 141,
        "14918": 185,
        "14919": 194,
        "14920": 81,
        "14921": 81,
        "14922": 29,
        "14923": 34,
        "14924": 211,
        "14925": 8,
        "14926": 173,
        "14927": 250,
        "14928": 37,
        "14929": 174,
        "14930": 209,
        "14931": 187,
        "14932": 6,
        "14933": 91,
        "14934": 34,
        "14935": 86,
        "14936": 88,
        "14937": 197,
        "14938": 98,
        "14939": 149,
        "14940": 228,
        "14941": 145,
        "14942": 210,
        "14943": 78,
        "14944": 31,
        "14945": 67,
        "14946": 37,
        "14947": 38,
        "14948": 245,
        "14949": 139,
        "14950": 56,
        "14951": 132,
        "14952": 14,
        "14953": 255,
        "14954": 49,
        "14955": 140,
        "14956": 170,
        "14957": 199,
        "14958": 20,
        "14959": 134,
        "14960": 21,
        "14961": 228,
        "14962": 112,
        "14963": 219,
        "14964": 231,
        "14965": 80,
        "14966": 224,
        "14967": 82,
        "14968": 234,
        "14969": 187,
        "14970": 185,
        "14971": 28,
        "14972": 106,
        "14973": 195,
        "14974": 222,
        "14975": 195,
        "14976": 112,
        "14977": 242,
        "14978": 143,
        "14979": 67,
        "14980": 186,
        "14981": 179,
        "14982": 47,
        "14983": 81,
        "14984": 14,
        "14985": 73,
        "14986": 231,
        "14987": 205,
        "14988": 193,
        "14989": 12,
        "14990": 47,
        "14991": 221,
        "14992": 131,
        "14993": 97,
        "14994": 233,
        "14995": 255,
        "14996": 31,
        "14997": 57,
        "14998": 238,
        "14999": 251,
        "15000": 149,
        "15001": 166,
        "15002": 189,
        "15003": 11,
        "15004": 163,
        "15005": 226,
        "15006": 10,
        "15007": 2,
        "15008": 156,
        "15009": 210,
        "15010": 56,
        "15011": 223,
        "15012": 89,
        "15013": 105,
        "15014": 82,
        "15015": 254,
        "15016": 128,
        "15017": 16,
        "15018": 56,
        "15019": 8,
        "15020": 44,
        "15021": 160,
        "15022": 66,
        "15023": 114,
        "15024": 51,
        "15025": 122,
        "15026": 44,
        "15027": 34,
        "15028": 49,
        "15029": 242,
        "15030": 246,
        "15031": 56,
        "15032": 152,
        "15033": 48,
        "15034": 48,
        "15035": 212,
        "15036": 6,
        "15037": 118,
        "15038": 37,
        "15039": 77,
        "15040": 235,
        "15041": 145,
        "15042": 168,
        "15043": 9,
        "15044": 90,
        "15045": 34,
        "15046": 247,
        "15047": 151,
        "15048": 249,
        "15049": 212,
        "15050": 17,
        "15051": 167,
        "15052": 203,
        "15053": 50,
        "15054": 170,
        "15055": 233,
        "15056": 39,
        "15057": 221,
        "15058": 242,
        "15059": 183,
        "15060": 194,
        "15061": 88,
        "15062": 249,
        "15063": 39,
        "15064": 24,
        "15065": 132,
        "15066": 118,
        "15067": 18,
        "15068": 34,
        "15069": 73,
        "15070": 213,
        "15071": 42,
        "15072": 155,
        "15073": 241,
        "15074": 35,
        "15075": 8,
        "15076": 111,
        "15077": 219,
        "15078": 244,
        "15079": 94,
        "15080": 214,
        "15081": 149,
        "15082": 130,
        "15083": 206,
        "15084": 61,
        "15085": 32,
        "15086": 211,
        "15087": 11,
        "15088": 138,
        "15089": 146,
        "15090": 80,
        "15091": 119,
        "15092": 230,
        "15093": 204,
        "15094": 248,
        "15095": 211,
        "15096": 145,
        "15097": 91,
        "15098": 131,
        "15099": 50,
        "15100": 32,
        "15101": 238,
        "15102": 81,
        "15103": 17,
        "15104": 16,
        "15105": 173,
        "15106": 93,
        "15107": 29,
        "15108": 95,
        "15109": 22,
        "15110": 175,
        "15111": 35,
        "15112": 34,
        "15113": 86,
        "15114": 69,
        "15115": 250,
        "15116": 72,
        "15117": 143,
        "15118": 122,
        "15119": 101,
        "15120": 249,
        "15121": 49,
        "15122": 137,
        "15123": 193,
        "15124": 95,
        "15125": 242,
        "15126": 48,
        "15127": 167,
        "15128": 50,
        "15129": 119,
        "15130": 75,
        "15131": 184,
        "15132": 92,
        "15133": 106,
        "15134": 41,
        "15135": 141,
        "15136": 60,
        "15137": 246,
        "15138": 127,
        "15139": 227,
        "15140": 27,
        "15141": 79,
        "15142": 193,
        "15143": 174,
        "15144": 102,
        "15145": 154,
        "15146": 126,
        "15147": 127,
        "15148": 105,
        "15149": 117,
        "15150": 211,
        "15151": 236,
        "15152": 228,
        "15153": 211,
        "15154": 41,
        "15155": 50,
        "15156": 155,
        "15157": 202,
        "15158": 69,
        "15159": 8,
        "15160": 162,
        "15161": 217,
        "15162": 154,
        "15163": 83,
        "15164": 222,
        "15165": 187,
        "15166": 250,
        "15167": 12,
        "15168": 186,
        "15169": 69,
        "15170": 226,
        "15171": 9,
        "15172": 121,
        "15173": 112,
        "15174": 221,
        "15175": 21,
        "15176": 30,
        "15177": 10,
        "15178": 168,
        "15179": 10,
        "15180": 206,
        "15181": 147,
        "15182": 80,
        "15183": 187,
        "15184": 218,
        "15185": 246,
        "15186": 59,
        "15187": 142,
        "15188": 66,
        "15189": 18,
        "15190": 84,
        "15191": 120,
        "15192": 255,
        "15193": 9,
        "15194": 92,
        "15195": 226,
        "15196": 94,
        "15197": 13,
        "15198": 10,
        "15199": 80,
        "15200": 47,
        "15201": 48,
        "15202": 68,
        "15203": 198,
        "15204": 25,
        "15205": 33,
        "15206": 91,
        "15207": 55,
        "15208": 147,
        "15209": 215,
        "15210": 67,
        "15211": 215,
        "15212": 122,
        "15213": 241,
        "15214": 239,
        "15215": 203,
        "15216": 105,
        "15217": 32,
        "15218": 54,
        "15219": 47,
        "15220": 169,
        "15221": 162,
        "15222": 185,
        "15223": 107,
        "15224": 117,
        "15225": 68,
        "15226": 73,
        "15227": 163,
        "15228": 86,
        "15229": 140,
        "15230": 60,
        "15231": 3,
        "15232": 238,
        "15233": 230,
        "15234": 49,
        "15235": 4,
        "15236": 163,
        "15237": 173,
        "15238": 222,
        "15239": 51,
        "15240": 240,
        "15241": 138,
        "15242": 92,
        "15243": 201,
        "15244": 104,
        "15245": 121,
        "15246": 139,
        "15247": 17,
        "15248": 30,
        "15249": 86,
        "15250": 22,
        "15251": 60,
        "15252": 104,
        "15253": 181,
        "15254": 72,
        "15255": 152,
        "15256": 25,
        "15257": 163,
        "15258": 85,
        "15259": 31,
        "15260": 133,
        "15261": 0,
        "15262": 61,
        "15263": 193,
        "15264": 252,
        "15265": 134,
        "15266": 30,
        "15267": 56,
        "15268": 42,
        "15269": 201,
        "15270": 24,
        "15271": 46,
        "15272": 248,
        "15273": 202,
        "15274": 38,
        "15275": 131,
        "15276": 231,
        "15277": 110,
        "15278": 8,
        "15279": 215,
        "15280": 223,
        "15281": 190,
        "15282": 200,
        "15283": 1,
        "15284": 26,
        "15285": 31,
        "15286": 202,
        "15287": 159,
        "15288": 91,
        "15289": 8,
        "15290": 235,
        "15291": 64,
        "15292": 21,
        "15293": 77,
        "15294": 251,
        "15295": 3,
        "15296": 97,
        "15297": 153,
        "15298": 151,
        "15299": 213,
        "15300": 145,
        "15301": 253,
        "15302": 131,
        "15303": 58,
        "15304": 104,
        "15305": 250,
        "15306": 145,
        "15307": 207,
        "15308": 254,
        "15309": 15,
        "15310": 13,
        "15311": 11,
        "15312": 84,
        "15313": 166,
        "15314": 25,
        "15315": 51,
        "15316": 240,
        "15317": 239,
        "15318": 229,
        "15319": 234,
        "15320": 193,
        "15321": 126,
        "15322": 14,
        "15323": 222,
        "15324": 69,
        "15325": 158,
        "15326": 6,
        "15327": 146,
        "15328": 199,
        "15329": 100,
        "15330": 55,
        "15331": 241,
        "15332": 175,
        "15333": 121,
        "15334": 224,
        "15335": 235,
        "15336": 45,
        "15337": 232,
        "15338": 82,
        "15339": 253,
        "15340": 35,
        "15341": 81,
        "15342": 232,
        "15343": 90,
        "15344": 160,
        "15345": 197,
        "15346": 68,
        "15347": 3,
        "15348": 52,
        "15349": 99,
        "15350": 199,
        "15351": 185,
        "15352": 226,
        "15353": 219,
        "15354": 68,
        "15355": 87,
        "15356": 251,
        "15357": 128,
        "15358": 121,
        "15359": 169,
        "15360": 97,
        "15361": 86,
        "15362": 28,
        "15363": 112,
        "15364": 119,
        "15365": 162,
        "15366": 239,
        "15367": 69,
        "15368": 235,
        "15369": 104,
        "15370": 54,
        "15371": 148,
        "15372": 46,
        "15373": 69,
        "15374": 24,
        "15375": 125,
        "15376": 136,
        "15377": 129,
        "15378": 63,
        "15379": 139,
        "15380": 85,
        "15381": 114,
        "15382": 63,
        "15383": 215,
        "15384": 238,
        "15385": 251,
        "15386": 204,
        "15387": 153,
        "15388": 61,
        "15389": 141,
        "15390": 197,
        "15391": 164,
        "15392": 243,
        "15393": 237,
        "15394": 166,
        "15395": 248,
        "15396": 196,
        "15397": 11,
        "15398": 157,
        "15399": 136,
        "15400": 14,
        "15401": 228,
        "15402": 197,
        "15403": 56,
        "15404": 106,
        "15405": 154,
        "15406": 49,
        "15407": 27,
        "15408": 177,
        "15409": 236,
        "15410": 209,
        "15411": 169,
        "15412": 201,
        "15413": 51,
        "15414": 96,
        "15415": 80,
        "15416": 146,
        "15417": 135,
        "15418": 118,
        "15419": 142,
        "15420": 135,
        "15421": 238,
        "15422": 129,
        "15423": 29,
        "15424": 36,
        "15425": 213,
        "15426": 52,
        "15427": 131,
        "15428": 186,
        "15429": 27,
        "15430": 143,
        "15431": 50,
        "15432": 247,
        "15433": 188,
        "15434": 44,
        "15435": 116,
        "15436": 253,
        "15437": 105,
        "15438": 144,
        "15439": 148,
        "15440": 201,
        "15441": 59,
        "15442": 63,
        "15443": 183,
        "15444": 93,
        "15445": 75,
        "15446": 29,
        "15447": 156,
        "15448": 183,
        "15449": 110,
        "15450": 182,
        "15451": 66,
        "15452": 17,
        "15453": 255,
        "15454": 24,
        "15455": 101,
        "15456": 198,
        "15457": 44,
        "15458": 24,
        "15459": 126,
        "15460": 138,
        "15461": 239,
        "15462": 252,
        "15463": 187,
        "15464": 238,
        "15465": 164,
        "15466": 231,
        "15467": 96,
        "15468": 148,
        "15469": 157,
        "15470": 100,
        "15471": 14,
        "15472": 218,
        "15473": 234,
        "15474": 38,
        "15475": 65,
        "15476": 5,
        "15477": 140,
        "15478": 45,
        "15479": 44,
        "15480": 17,
        "15481": 164,
        "15482": 237,
        "15483": 123,
        "15484": 26,
        "15485": 106,
        "15486": 78,
        "15487": 250,
        "15488": 140,
        "15489": 15,
        "15490": 127,
        "15491": 237,
        "15492": 82,
        "15493": 97,
        "15494": 77,
        "15495": 183,
        "15496": 157,
        "15497": 183,
        "15498": 79,
        "15499": 158,
        "15500": 232,
        "15501": 45,
        "15502": 232,
        "15503": 152,
        "15504": 52,
        "15505": 71,
        "15506": 226,
        "15507": 191,
        "15508": 68,
        "15509": 211,
        "15510": 59,
        "15511": 228,
        "15512": 36,
        "15513": 188,
        "15514": 110,
        "15515": 188,
        "15516": 24,
        "15517": 202,
        "15518": 22,
        "15519": 96,
        "15520": 94,
        "15521": 29,
        "15522": 126,
        "15523": 99,
        "15524": 168,
        "15525": 66,
        "15526": 59,
        "15527": 9,
        "15528": 237,
        "15529": 249,
        "15530": 208,
        "15531": 176,
        "15532": 199,
        "15533": 42,
        "15534": 86,
        "15535": 139,
        "15536": 208,
        "15537": 152,
        "15538": 254,
        "15539": 66,
        "15540": 120,
        "15541": 152,
        "15542": 252,
        "15543": 200,
        "15544": 21,
        "15545": 168,
        "15546": 110,
        "15547": 171,
        "15548": 124,
        "15549": 90,
        "15550": 102,
        "15551": 222,
        "15552": 173,
        "15553": 5,
        "15554": 245,
        "15555": 193,
        "15556": 218,
        "15557": 14,
        "15558": 179,
        "15559": 254,
        "15560": 170,
        "15561": 212,
        "15562": 251,
        "15563": 78,
        "15564": 202,
        "15565": 153,
        "15566": 20,
        "15567": 206,
        "15568": 191,
        "15569": 176,
        "15570": 78,
        "15571": 1,
        "15572": 138,
        "15573": 226,
        "15574": 231,
        "15575": 106,
        "15576": 254,
        "15577": 159,
        "15578": 255,
        "15579": 69,
        "15580": 137,
        "15581": 144,
        "15582": 207,
        "15583": 125,
        "15584": 169,
        "15585": 158,
        "15586": 63,
        "15587": 251,
        "15588": 245,
        "15589": 178,
        "15590": 164,
        "15591": 240,
        "15592": 79,
        "15593": 160,
        "15594": 44,
        "15595": 7,
        "15596": 64,
        "15597": 255,
        "15598": 162,
        "15599": 32,
        "15600": 217,
        "15601": 66,
        "15602": 20,
        "15603": 161,
        "15604": 77,
        "15605": 186,
        "15606": 98,
        "15607": 153,
        "15608": 209,
        "15609": 16,
        "15610": 69,
        "15611": 89,
        "15612": 44,
        "15613": 104,
        "15614": 207,
        "15615": 6,
        "15616": 18,
        "15617": 101,
        "15618": 23,
        "15619": 242,
        "15620": 120,
        "15621": 87,
        "15622": 240,
        "15623": 82,
        "15624": 201,
        "15625": 12,
        "15626": 204,
        "15627": 206,
        "15628": 6,
        "15629": 98,
        "15630": 58,
        "15631": 236,
        "15632": 126,
        "15633": 229,
        "15634": 198,
        "15635": 159,
        "15636": 107,
        "15637": 150,
        "15638": 115,
        "15639": 32,
        "15640": 97,
        "15641": 183,
        "15642": 160,
        "15643": 16,
        "15644": 114,
        "15645": 22,
        "15646": 220,
        "15647": 162,
        "15648": 86,
        "15649": 233,
        "15650": 109,
        "15651": 55,
        "15652": 77,
        "15653": 142,
        "15654": 232,
        "15655": 185,
        "15656": 12,
        "15657": 20,
        "15658": 234,
        "15659": 20,
        "15660": 177,
        "15661": 217,
        "15662": 164,
        "15663": 50,
        "15664": 25,
        "15665": 128,
        "15666": 184,
        "15667": 122,
        "15668": 166,
        "15669": 110,
        "15670": 12,
        "15671": 215,
        "15672": 229,
        "15673": 84,
        "15674": 113,
        "15675": 70,
        "15676": 34,
        "15677": 235,
        "15678": 128,
        "15679": 98,
        "15680": 27,
        "15681": 187,
        "15682": 199,
        "15683": 56,
        "15684": 84,
        "15685": 207,
        "15686": 27,
        "15687": 169,
        "15688": 35,
        "15689": 37,
        "15690": 31,
        "15691": 88,
        "15692": 122,
        "15693": 151,
        "15694": 233,
        "15695": 110,
        "15696": 190,
        "15697": 249,
        "15698": 227,
        "15699": 150,
        "15700": 19,
        "15701": 22,
        "15702": 237,
        "15703": 79,
        "15704": 234,
        "15705": 243,
        "15706": 24,
        "15707": 43,
        "15708": 28,
        "15709": 43,
        "15710": 159,
        "15711": 170,
        "15712": 39,
        "15713": 16,
        "15714": 154,
        "15715": 78,
        "15716": 206,
        "15717": 255,
        "15718": 174,
        "15719": 45,
        "15720": 126,
        "15721": 163,
        "15722": 251,
        "15723": 60,
        "15724": 60,
        "15725": 75,
        "15726": 153,
        "15727": 124,
        "15728": 16,
        "15729": 133,
        "15730": 88,
        "15731": 226,
        "15732": 108,
        "15733": 38,
        "15734": 246,
        "15735": 51,
        "15736": 85,
        "15737": 92,
        "15738": 215,
        "15739": 45,
        "15740": 153,
        "15741": 109,
        "15742": 161,
        "15743": 139,
        "15744": 137,
        "15745": 40,
        "15746": 4,
        "15747": 215,
        "15748": 239,
        "15749": 127,
        "15750": 88,
        "15751": 38,
        "15752": 78,
        "15753": 188,
        "15754": 207,
        "15755": 68,
        "15756": 83,
        "15757": 71,
        "15758": 93,
        "15759": 9,
        "15760": 216,
        "15761": 116,
        "15762": 87,
        "15763": 54,
        "15764": 167,
        "15765": 38,
        "15766": 124,
        "15767": 26,
        "15768": 118,
        "15769": 47,
        "15770": 142,
        "15771": 233,
        "15772": 3,
        "15773": 221,
        "15774": 9,
        "15775": 218,
        "15776": 126,
        "15777": 217,
        "15778": 163,
        "15779": 204,
        "15780": 20,
        "15781": 116,
        "15782": 150,
        "15783": 227,
        "15784": 234,
        "15785": 248,
        "15786": 51,
        "15787": 7,
        "15788": 19,
        "15789": 62,
        "15790": 203,
        "15791": 42,
        "15792": 95,
        "15793": 87,
        "15794": 216,
        "15795": 120,
        "15796": 199,
        "15797": 237,
        "15798": 82,
        "15799": 192,
        "15800": 140,
        "15801": 95,
        "15802": 87,
        "15803": 25,
        "15804": 89,
        "15805": 48,
        "15806": 29,
        "15807": 166,
        "15808": 79,
        "15809": 157,
        "15810": 189,
        "15811": 168,
        "15812": 132,
        "15813": 77,
        "15814": 50,
        "15815": 59,
        "15816": 225,
        "15817": 106,
        "15818": 141,
        "15819": 36,
        "15820": 54,
        "15821": 90,
        "15822": 84,
        "15823": 0,
        "15824": 1,
        "15825": 86,
        "15826": 1,
        "15827": 73,
        "15828": 170,
        "15829": 78,
        "15830": 71,
        "15831": 224,
        "15832": 231,
        "15833": 4,
        "15834": 132,
        "15835": 94,
        "15836": 255,
        "15837": 178,
        "15838": 80,
        "15839": 182,
        "15840": 182,
        "15841": 97,
        "15842": 119,
        "15843": 155,
        "15844": 152,
        "15845": 252,
        "15846": 37,
        "15847": 37,
        "15848": 16,
        "15849": 248,
        "15850": 161,
        "15851": 219,
        "15852": 55,
        "15853": 102,
        "15854": 242,
        "15855": 12,
        "15856": 26,
        "15857": 166,
        "15858": 138,
        "15859": 18,
        "15860": 124,
        "15861": 57,
        "15862": 8,
        "15863": 111,
        "15864": 67,
        "15865": 148,
        "15866": 234,
        "15867": 130,
        "15868": 142,
        "15869": 245,
        "15870": 239,
        "15871": 48,
        "15872": 93,
        "15873": 154,
        "15874": 110,
        "15875": 64,
        "15876": 11,
        "15877": 201,
        "15878": 91,
        "15879": 191,
        "15880": 185,
        "15881": 112,
        "15882": 14,
        "15883": 193,
        "15884": 198,
        "15885": 159,
        "15886": 250,
        "15887": 71,
        "15888": 165,
        "15889": 97,
        "15890": 160,
        "15891": 229,
        "15892": 236,
        "15893": 53,
        "15894": 193,
        "15895": 82,
        "15896": 124,
        "15897": 219,
        "15898": 86,
        "15899": 125,
        "15900": 47,
        "15901": 1,
        "15902": 246,
        "15903": 5,
        "15904": 61,
        "15905": 208,
        "15906": 119,
        "15907": 121,
        "15908": 18,
        "15909": 115,
        "15910": 46,
        "15911": 233,
        "15912": 107,
        "15913": 152,
        "15914": 191,
        "15915": 173,
        "15916": 39,
        "15917": 213,
        "15918": 77,
        "15919": 69,
        "15920": 96,
        "15921": 84,
        "15922": 68,
        "15923": 192,
        "15924": 53,
        "15925": 82,
        "15926": 202,
        "15927": 211,
        "15928": 133,
        "15929": 46,
        "15930": 95,
        "15931": 121,
        "15932": 97,
        "15933": 82,
        "15934": 33,
        "15935": 114,
        "15936": 188,
        "15937": 118,
        "15938": 100,
        "15939": 121,
        "15940": 17,
        "15941": 166,
        "15942": 197,
        "15943": 237,
        "15944": 115,
        "15945": 15,
        "15946": 33,
        "15947": 154,
        "15948": 208,
        "15949": 6,
        "15950": 145,
        "15951": 171,
        "15952": 90,
        "15953": 132,
        "15954": 246,
        "15955": 13,
        "15956": 147,
        "15957": 239,
        "15958": 109,
        "15959": 245,
        "15960": 199,
        "15961": 61,
        "15962": 156,
        "15963": 217,
        "15964": 177,
        "15965": 49,
        "15966": 227,
        "15967": 198,
        "15968": 213,
        "15969": 169,
        "15970": 74,
        "15971": 48,
        "15972": 24,
        "15973": 140,
        "15974": 86,
        "15975": 50,
        "15976": 244,
        "15977": 185,
        "15978": 107,
        "15979": 17,
        "15980": 181,
        "15981": 118,
        "15982": 43,
        "15983": 179,
        "15984": 243,
        "15985": 175,
        "15986": 39,
        "15987": 178,
        "15988": 15,
        "15989": 227,
        "15990": 15,
        "15991": 86,
        "15992": 49,
        "15993": 201,
        "15994": 118,
        "15995": 119,
        "15996": 36,
        "15997": 216,
        "15998": 27,
        "15999": 97,
        "16000": 138,
        "16001": 147,
        "16002": 235,
        "16003": 203,
        "16004": 114,
        "16005": 7,
        "16006": 67,
        "16007": 122,
        "16008": 18,
        "16009": 145,
        "16010": 250,
        "16011": 115,
        "16012": 148,
        "16013": 39,
        "16014": 128,
        "16015": 90,
        "16016": 58,
        "16017": 169,
        "16018": 225,
        "16019": 163,
        "16020": 48,
        "16021": 163,
        "16022": 178,
        "16023": 37,
        "16024": 187,
        "16025": 105,
        "16026": 151,
        "16027": 250,
        "16028": 42,
        "16029": 34,
        "16030": 40,
        "16031": 219,
        "16032": 27,
        "16033": 80,
        "16034": 42,
        "16035": 90,
        "16036": 105,
        "16037": 58,
        "16038": 137,
        "16039": 213,
        "16040": 254,
        "16041": 81,
        "16042": 222,
        "16043": 192,
        "16044": 222,
        "16045": 236,
        "16046": 5,
        "16047": 46,
        "16048": 51,
        "16049": 24,
        "16050": 251,
        "16051": 200,
        "16052": 84,
        "16053": 191,
        "16054": 59,
        "16055": 147,
        "16056": 201,
        "16057": 146,
        "16058": 17,
        "16059": 68,
        "16060": 93,
        "16061": 71,
        "16062": 108,
        "16063": 164,
        "16064": 202,
        "16065": 34,
        "16066": 14,
        "16067": 134,
        "16068": 128,
        "16069": 41,
        "16070": 96,
        "16071": 160,
        "16072": 23,
        "16073": 239,
        "16074": 169,
        "16075": 26,
        "16076": 11,
        "16077": 172,
        "16078": 254,
        "16079": 71,
        "16080": 46,
        "16081": 30,
        "16082": 90,
        "16083": 234,
        "16084": 130,
        "16085": 1,
        "16086": 186,
        "16087": 252,
        "16088": 7,
        "16089": 143,
        "16090": 108,
        "16091": 244,
        "16092": 146,
        "16093": 108,
        "16094": 114,
        "16095": 40,
        "16096": 195,
        "16097": 195,
        "16098": 245,
        "16099": 44,
        "16100": 131,
        "16101": 139,
        "16102": 214,
        "16103": 76,
        "16104": 204,
        "16105": 187,
        "16106": 10,
        "16107": 149,
        "16108": 107,
        "16109": 64,
        "16110": 39,
        "16111": 221,
        "16112": 142,
        "16113": 102,
        "16114": 157,
        "16115": 182,
        "16116": 174,
        "16117": 71,
        "16118": 107,
        "16119": 84,
        "16120": 24,
        "16121": 1,
        "16122": 229,
        "16123": 235,
        "16124": 245,
        "16125": 134,
        "16126": 87,
        "16127": 130,
        "16128": 138,
        "16129": 207,
        "16130": 114,
        "16131": 97,
        "16132": 47,
        "16133": 204,
        "16134": 126,
        "16135": 148,
        "16136": 253,
        "16137": 28,
        "16138": 229,
        "16139": 154,
        "16140": 60,
        "16141": 187,
        "16142": 77,
        "16143": 6,
        "16144": 165,
        "16145": 139,
        "16146": 151,
        "16147": 16,
        "16148": 107,
        "16149": 137,
        "16150": 247,
        "16151": 218,
        "16152": 23,
        "16153": 96,
        "16154": 149,
        "16155": 142,
        "16156": 110,
        "16157": 43,
        "16158": 130,
        "16159": 161,
        "16160": 144,
        "16161": 147,
        "16162": 15,
        "16163": 40,
        "16164": 189,
        "16165": 1,
        "16166": 98,
        "16167": 137,
        "16168": 9,
        "16169": 93,
        "16170": 148,
        "16171": 54,
        "16172": 27,
        "16173": 64,
        "16174": 113,
        "16175": 45,
        "16176": 244,
        "16177": 17,
        "16178": 213,
        "16179": 10,
        "16180": 207,
        "16181": 57,
        "16182": 11,
        "16183": 228,
        "16184": 23,
        "16185": 165,
        "16186": 231,
        "16187": 49,
        "16188": 103,
        "16189": 123,
        "16190": 186,
        "16191": 55,
        "16192": 230,
        "16193": 219,
        "16194": 194,
        "16195": 123,
        "16196": 20,
        "16197": 109,
        "16198": 84,
        "16199": 71,
        "16200": 49,
        "16201": 208,
        "16202": 252,
        "16203": 160,
        "16204": 33,
        "16205": 51,
        "16206": 114,
        "16207": 8,
        "16208": 164,
        "16209": 166,
        "16210": 170,
        "16211": 199,
        "16212": 136,
        "16213": 21,
        "16214": 42,
        "16215": 227,
        "16216": 67,
        "16217": 37,
        "16218": 28,
        "16219": 202,
        "16220": 226,
        "16221": 186,
        "16222": 81,
        "16223": 203,
        "16224": 212,
        "16225": 3,
        "16226": 111,
        "16227": 93,
        "16228": 76,
        "16229": 97,
        "16230": 73,
        "16231": 148,
        "16232": 215,
        "16233": 157,
        "16234": 11,
        "16235": 122,
        "16236": 249,
        "16237": 64,
        "16238": 11,
        "16239": 224,
        "16240": 49,
        "16241": 68,
        "16242": 126,
        "16243": 44,
        "16244": 34,
        "16245": 71,
        "16246": 60,
        "16247": 163,
        "16248": 85,
        "16249": 88,
        "16250": 217,
        "16251": 112,
        "16252": 164,
        "16253": 23,
        "16254": 84,
        "16255": 67,
        "16256": 236,
        "16257": 121,
        "16258": 74,
        "16259": 157,
        "16260": 162,
        "16261": 197,
        "16262": 224,
        "16263": 190,
        "16264": 191,
        "16265": 58,
        "16266": 99,
        "16267": 113,
        "16268": 103,
        "16269": 53,
        "16270": 77,
        "16271": 244,
        "16272": 194,
        "16273": 33,
        "16274": 90,
        "16275": 209,
        "16276": 167,
        "16277": 70,
        "16278": 195,
        "16279": 201,
        "16280": 93,
        "16281": 162,
        "16282": 239,
        "16283": 116,
        "16284": 144,
        "16285": 31,
        "16286": 51,
        "16287": 100,
        "16288": 192,
        "16289": 144,
        "16290": 45,
        "16291": 191,
        "16292": 107,
        "16293": 68,
        "16294": 153,
        "16295": 5,
        "16296": 16,
        "16297": 226,
        "16298": 0,
        "16299": 139,
        "16300": 117,
        "16301": 39,
        "16302": 30,
        "16303": 203,
        "16304": 27,
        "16305": 55,
        "16306": 220,
        "16307": 122,
        "16308": 78,
        "16309": 26,
        "16310": 85,
        "16311": 4,
        "16312": 141,
        "16313": 227,
        "16314": 126,
        "16315": 16,
        "16316": 191,
        "16317": 111,
        "16318": 19,
        "16319": 134,
        "16320": 255,
        "16321": 252,
        "16322": 53,
        "16323": 109,
        "16324": 61,
        "16325": 90,
        "16326": 60,
        "16327": 210,
        "16328": 15,
        "16329": 41,
        "16330": 231,
        "16331": 154,
        "16332": 114,
        "16333": 77,
        "16334": 243,
        "16335": 1,
        "16336": 212,
        "16337": 161,
        "16338": 164,
        "16339": 18,
        "16340": 63,
        "16341": 3,
        "16342": 116,
        "16343": 224,
        "16344": 130,
        "16345": 119,
        "16346": 25,
        "16347": 169,
        "16348": 69,
        "16349": 240,
        "16350": 252,
        "16351": 135,
        "16352": 102,
        "16353": 78,
        "16354": 182,
        "16355": 241,
        "16356": 247,
        "16357": 153,
        "16358": 236,
        "16359": 47,
        "16360": 119,
        "16361": 22,
        "16362": 174,
        "16363": 91,
        "16364": 90,
        "16365": 248,
        "16366": 104,
        "16367": 110,
        "16368": 235,
        "16369": 197,
        "16370": 97,
        "16371": 21,
        "16372": 101,
        "16373": 166,
        "16374": 223,
        "16375": 78,
        "16376": 197,
        "16377": 17,
        "16378": 118,
        "16379": 35,
        "16380": 64,
        "16381": 42,
        "16382": 52,
        "16383": 48,
        "16384": 204,
        "16385": 0,
        "16386": 65,
        "16387": 176,
        "16388": 240,
        "16389": 81,
        "16390": 237,
        "16391": 19,
        "16392": 144,
        "16393": 153,
        "16394": 6,
        "16395": 143,
        "16396": 220,
        "16397": 57,
        "16398": 69,
        "16399": 149,
        "16400": 226,
        "16401": 172,
        "16402": 59,
        "16403": 249,
        "16404": 3,
        "16405": 207,
        "16406": 47,
        "16407": 102,
        "16408": 98,
        "16409": 190,
        "16410": 147,
        "16411": 194,
        "16412": 64,
        "16413": 40,
        "16414": 20,
        "16415": 220,
        "16416": 179,
        "16417": 28,
        "16418": 208,
        "16419": 232,
        "16420": 136,
        "16421": 131,
        "16422": 19,
        "16423": 253,
        "16424": 201,
        "16425": 122,
        "16426": 126,
        "16427": 90,
        "16428": 187,
        "16429": 2,
        "16430": 36,
        "16431": 150,
        "16432": 225,
        "16433": 27,
        "16434": 225,
        "16435": 205,
        "16436": 143,
        "16437": 237,
        "16438": 207,
        "16439": 55,
        "16440": 35,
        "16441": 150,
        "16442": 54,
        "16443": 27,
        "16444": 47,
        "16445": 200,
        "16446": 17,
        "16447": 7,
        "16448": 119,
        "16449": 202,
        "16450": 161,
        "16451": 94,
        "16452": 4,
        "16453": 236,
        "16454": 117,
        "16455": 38,
        "16456": 168,
        "16457": 127,
        "16458": 26,
        "16459": 166,
        "16460": 28,
        "16461": 198,
        "16462": 63,
        "16463": 34,
        "16464": 130,
        "16465": 172,
        "16466": 6,
        "16467": 165,
        "16468": 255,
        "16469": 214,
        "16470": 56,
        "16471": 255,
        "16472": 88,
        "16473": 249,
        "16474": 42,
        "16475": 192,
        "16476": 121,
        "16477": 16,
        "16478": 30,
        "16479": 16,
        "16480": 124,
        "16481": 82,
        "16482": 0,
        "16483": 22,
        "16484": 108,
        "16485": 240,
        "16486": 134,
        "16487": 59,
        "16488": 230,
        "16489": 104,
        "16490": 216,
        "16491": 35,
        "16492": 170,
        "16493": 219,
        "16494": 50,
        "16495": 100,
        "16496": 162,
        "16497": 133,
        "16498": 92,
        "16499": 155,
        "16500": 86,
        "16501": 103,
        "16502": 251,
        "16503": 99,
        "16504": 47,
        "16505": 63,
        "16506": 217,
        "16507": 169,
        "16508": 105,
        "16509": 80,
        "16510": 232,
        "16511": 74,
        "16512": 56,
        "16513": 121,
        "16514": 14,
        "16515": 8,
        "16516": 104,
        "16517": 74,
        "16518": 208,
        "16519": 212,
        "16520": 1,
        "16521": 8,
        "16522": 0,
        "16523": 0,
        "16524": 0,
        "16525": 0,
        "16526": 0,
        "16527": 0,
        "16528": 16,
        "16529": 0,
        "16530": 0,
        "16531": 0,
        "16532": 0,
        "16533": 0,
        "16534": 0,
        "16535": 0,
        "16536": 0,
        "16537": 0,
        "16538": 0,
        "16539": 0,
        "16540": 0,
        "16541": 0,
        "16542": 0,
        "16543": 0,
        "16544": 0,
        "16545": 0,
        "16546": 0,
        "16547": 0,
        "16548": 0,
        "16549": 0,
        "16550": 0,
        "16551": 0,
        "16552": 64,
        "16553": 0,
        "16554": 0,
        "16555": 0,
        "16556": 0,
        "16557": 0,
        "16558": 0,
        "16559": 0,
        "16560": 3,
        "16561": 0,
        "16562": 0,
        "16563": 0,
        "16564": 0,
        "16565": 0,
        "16566": 0,
        "16567": 0,
        "16568": 4,
        "16569": 0,
        "16570": 0,
        "16571": 0,
        "16572": 0,
        "16573": 0,
        "16574": 0,
        "16575": 0,
        "16576": 4,
        "16577": 0,
        "16578": 0,
        "16579": 0,
        "16580": 0,
        "16581": 0,
        "16582": 0,
        "16583": 0,
        "16584": 0,
        "16585": 0,
        "16586": 0,
        "16587": 0,
        "16588": 1,
        "16589": 0,
        "16590": 0,
        "16591": 0,
        "16592": 0,
        "16593": 0,
        "16594": 0,
        "16595": 0,
        "16596": 16,
        "16597": 0,
        "16598": 0,
        "16599": 0,
        "16600": 0,
        "16601": 0,
        "16602": 0,
        "16603": 0
      }
    }
  ],
  "numDeployments": 9,
  "solcInputHash": "291cf64def2066c7e76507ea7caba91d",
  "bytecode": "0x6101606040526200001760006200026660201b60201c565b6002553480156200002757600080fd5b50604051620046173803806200461783398181016040528101906200004d919062000b83565b6040518060400160405280600881526020017f46616b65205553440000000000000000000000000000000000000000000000008152506040518060400160405280600481526020017f6655534400000000000000000000000000000000000000000000000000000000815250338383836040518060400160405280601181526020017f4668656e6978205065726d697373696f6e0000000000000000000000000000008152506040518060400160405280600381526020017f312e3000000000000000000000000000000000000000000000000000000000008152506200013f6000836200028260201b90919060201c565b61012081815250506200015d6001826200028260201b90919060201c565b6101408181525050818051906020012060e08181525050808051906020012061010081815250504660a081815250506200019c620002da60201b60201c565b608081815250503073ffffffffffffffffffffffffffffffffffffffff1660c08173ffffffffffffffffffffffffffffffffffffffff168152505050508160059081620001ea919062000e1f565b508060069081620001fc919062000e1f565b505050600062000212826200033760201b60201c565b9050620002486200023c8262000230617fff6200026660201b60201c565b6200035560201b60201c565b620003f860201b60201c565b6200025a8382620004cb60201b60201c565b50505050505062001260565b60006200027b8260026200057160201b60201c565b9050919050565b6000602083511015620002a857620002a0836200062860201b60201c565b9050620002d4565b82620002ba836200069560201b60201c565b6000019081620002cb919062000e1f565b5060ff60001b90505b92915050565b60007f8b73c3c69bb8fe3d512ecc4cf759cc79239f7b179b0ffacaa9a75d522b39400f60e0516101005146306040516020016200031c95949392919062000f77565b60405160208183030381529060405280519060200120905090565b60006200034e82600001516200069f60201b60201c565b9050919050565b60006200036883620006bb60201b60201c565b62000382576200037f60006200026660201b60201c565b92505b6200039382620006bb60201b60201c565b620003ad57620003aa60006200026660201b60201c565b91505b600083905060008390506000620003ea60028484608073ffffffffffffffffffffffffffffffffffffffff1663eb274b77620006c860201b60201c565b905080935050505092915050565b62000409816200077960201b60201c565b62000423576200042060006200078660201b60201c565b90505b600081905060006200043b82620007a260201b60201c565b9050608073ffffffffffffffffffffffffffffffffffffffff16637d23f1db600d836040518363ffffffff1660e01b81526004016200047c9291906200104f565b600060405180830381865afa1580156200049a573d6000803e3d6000fd5b505050506040513d6000823e3d601f19601f82011682018060405250810190620004c5919062001083565b50505050565b62000516600360008473ffffffffffffffffffffffffffffffffffffffff1673ffffffffffffffffffffffffffffffffffffffff168152602001908152602001600020548262000803565b600360008473ffffffffffffffffffffffffffffffffffffffff1673ffffffffffffffffffffffffffffffffffffffff16815260200190815260200160002081905550620005676002548262000803565b6002819055505050565b60006060608073ffffffffffffffffffffffffffffffffffffffff166319e1c5c4620005a386620007a260201b60201c565b856040518363ffffffff1660e01b8152600401620005c3929190620010d4565b600060405180830381865afa158015620005e1573d6000803e3d6000fd5b505050506040513d6000823e3d601f19601f820116820180604052508101906200060c919062001083565b90506200061f816200081f60201b60201c565b91505092915050565b600080829050601f815111156200067857826040517f305a27a90000000000000000000000000000000000000000000000000000000081526004016200066f91906200115a565b60405180910390fd5b8051816200068690620011a5565b60001c1760001b915050919050565b6000819050919050565b6000620006b48260026200082d60201b60201c565b9050919050565b6000808214159050919050565b60006060838388620006e089620007a260201b60201c565b620006f189620007a260201b60201c565b6040518463ffffffff1660e01b8152600401620007119392919062001215565b600060405180830381865afa1580156200072f573d6000803e3d6000fd5b505050506040513d6000823e3d601f19601f820116820180604052508101906200075a919062001083565b90506200076d81620008d460201b60201c565b91505095945050505050565b6000808214159050919050565b60006200079b82600d6200057160201b60201c565b9050919050565b6060602067ffffffffffffffff811115620007c257620007c1620009ae565b5b6040519080825280601f01601f191660200182016040528015620007f55781602001600182028036833780820191505090505b509050816020820152919050565b6000620008178383620008e260201b60201c565b905092915050565b600060208201519050919050565b60006060608073ffffffffffffffffffffffffffffffffffffffff16635fa55ca784866040518363ffffffff1660e01b81526004016200086f9291906200104f565b600060405180830381865afa1580156200088d573d6000803e3d6000fd5b505050506040513d6000823e3d601f19601f82011682018060405250810190620008b8919062001083565b9050620008cb816200081f60201b60201c565b91505092915050565b600060208201519050919050565b6000620008f583620006bb60201b60201c565b6200090f576200090c60006200026660201b60201c565b92505b6200092082620006bb60201b60201c565b6200093a576200093760006200026660201b60201c565b91505b6000839050600083905060006200097660028484608073ffffffffffffffffffffffffffffffffffffffff16622df619620006c860201b60201c565b905080935050505092915050565b6000604051905090565b600080fd5b600080fd5b600080fd5b6000601f19601f8301169050919050565b7f4e487b7100000000000000000000000000000000000000000000000000000000600052604160045260246000fd5b620009e8826200099d565b810181811067ffffffffffffffff8211171562000a0a5762000a09620009ae565b5b80604052505050565b600062000a1f62000984565b905062000a2d8282620009dd565b919050565b600080fd5b600080fd5b600080fd5b600067ffffffffffffffff82111562000a5f5762000a5e620009ae565b5b62000a6a826200099d565b9050602081019050919050565b60005b8381101562000a9757808201518184015260208101905062000a7a565b60008484015250505050565b600062000aba62000ab48462000a41565b62000a13565b90508281526020810184848401111562000ad95762000ad862000a3c565b5b62000ae684828562000a77565b509392505050565b600082601f83011262000b065762000b0562000a37565b5b815162000b1884826020860162000aa3565b91505092915050565b60006020828403121562000b3a5762000b3962000998565b5b62000b46602062000a13565b9050600082015167ffffffffffffffff81111562000b695762000b6862000a32565b5b62000b778482850162000aee565b60008301525092915050565b60006020828403121562000b9c5762000b9b6200098e565b5b600082015167ffffffffffffffff81111562000bbd5762000bbc62000993565b5b62000bcb8482850162000b21565b91505092915050565b600081519050919050565b7f4e487b7100000000000000000000000000000000000000000000000000000000600052602260045260246000fd5b6000600282049050600182168062000c2757607f821691505b60208210810362000c3d5762000c3c62000bdf565b5b50919050565b60008190508160005260206000209050919050565b60006020601f8301049050919050565b600082821b905092915050565b60006008830262000ca77fffffffffffffffffffffffffffffffffffffffffffffffffffffffffffffffff8262000c68565b62000cb3868362000c68565b95508019841693508086168417925050509392505050565b6000819050919050565b6000819050919050565b600062000d0062000cfa62000cf48462000ccb565b62000cd5565b62000ccb565b9050919050565b6000819050919050565b62000d1c8362000cdf565b62000d3462000d2b8262000d07565b84845462000c75565b825550505050565b600090565b62000d4b62000d3c565b62000d5881848462000d11565b505050565b5b8181101562000d805762000d7460008262000d41565b60018101905062000d5e565b5050565b601f82111562000dcf5762000d998162000c43565b62000da48462000c58565b8101602085101562000db4578190505b62000dcc62000dc38562000c58565b83018262000d5d565b50505b505050565b600082821c905092915050565b600062000df46000198460080262000dd4565b1980831691505092915050565b600062000e0f838362000de1565b9150826002028217905092915050565b62000e2a8262000bd4565b67ffffffffffffffff81111562000e465762000e45620009ae565b5b62000e52825462000c0e565b62000e5f82828562000d84565b600060209050601f83116001811462000e97576000841562000e82578287015190505b62000e8e858262000e01565b86555062000efe565b601f19841662000ea78662000c43565b60005b8281101562000ed15784890151825560018201915060208501945060208101905062000eaa565b8683101562000ef1578489015162000eed601f89168262000de1565b8355505b6001600288020188555050505b505050505050565b6000819050919050565b62000f1b8162000f06565b82525050565b62000f2c8162000ccb565b82525050565b600073ffffffffffffffffffffffffffffffffffffffff82169050919050565b600062000f5f8262000f32565b9050919050565b62000f718162000f52565b82525050565b600060a08201905062000f8e600083018862000f10565b62000f9d602083018762000f10565b62000fac604083018662000f10565b62000fbb606083018562000f21565b62000fca608083018462000f66565b9695505050505050565b600060ff82169050919050565b62000fec8162000fd4565b82525050565b600081519050919050565b600082825260208201905092915050565b60006200101b8262000ff2565b62001027818562000ffd565b93506200103981856020860162000a77565b62001044816200099d565b840191505092915050565b600060408201905062001066600083018562000fe1565b81810360208301526200107a81846200100e565b90509392505050565b6000602082840312156200109c576200109b6200098e565b5b600082015167ffffffffffffffff811115620010bd57620010bc62000993565b5b620010cb8482850162000aee565b91505092915050565b60006040820190508181036000830152620010f081856200100e565b905062001101602083018462000fe1565b9392505050565b600082825260208201905092915050565b6000620011268262000bd4565b62001132818562001108565b93506200114481856020860162000a77565b6200114f816200099d565b840191505092915050565b6000602082019050818103600083015262001176818462001119565b905092915050565b6000819050602082019050919050565b60006200119c825162000f06565b80915050919050565b6000620011b28262000ff2565b82620011be846200117e565b9050620011cb816200118e565b925060208210156200120e57620012097fffffffffffffffffffffffffffffffffffffffffffffffffffffffffffffffff8360200360080262000c68565b831692505b5050919050565b60006060820190506200122c600083018662000fe1565b81810360208301526200124081856200100e565b905081810360408301526200125681846200100e565b9050949350505050565b60805160a05160c05160e05161010051610120516101405161335c620012bb60003960006118f5015260006118ba0152600061217f0152600061215e015260006119ea01526000611a4001526000611a69015261335c6000f3fe608060405234801561001057600080fd5b50600436106101425760003560e01c80637ecebe00116100b8578063a9059cbb1161007c578063a9059cbb146103b9578063af575a00146103e9578063c4224c1914610419578063d505accf14610449578063d918156e14610465578063dd62ed3e1461049557610142565b80637ecebe00146102fb57806384b0196e1461032b5780638624a3491461034f57806395d89b411461037f5780639f284be71461039d57610142565b80633644e5151161010a5780633644e5151461020157806339c217f71461021f5780635356c4291461024f578063602772041461027f5780636e0505e1146102af57806370a08231146102cb57610142565b806306fdde0314610147578063095ea7b31461016557806318160ddd1461019557806323b872dd146101b3578063313ce567146101e3575b600080fd5b61014f6104c5565b60405161015c9190612433565b60405180910390f35b61017f600480360381019061017a91906124fd565b610557565b60405161018c9190612558565b60405180910390f35b61019d6105ab565b6040516101aa9190612582565b60405180910390f35b6101cd60048036038101906101c8919061259d565b6105bd565b6040516101da9190612558565b60405180910390f35b6101eb610692565b6040516101f8919061260c565b60405180910390f35b610209610697565b6040516102169190612640565b60405180910390f35b6102396004803603810190610234919061267f565b610729565b6040516102469190612716565b60405180910390f35b61026960048036038101906102649190612750565b61074e565b6040516102769190612433565b60405180910390f35b61029960048036038101906102949190612983565b6108bf565b6040516102a69190612433565b60405180910390f35b6102c960048036038101906102c49190612a1b565b6109ec565b005b6102e560048036038101906102e09190612a48565b610b01565b6040516102f29190612582565b60405180910390f35b61031560048036038101906103109190612a48565b610b1c565b6040516103229190612582565b60405180910390f35b610333610b37565b6040516103469796959493929190612b7d565b60405180910390f35b61036960048036038101906103649190612c01565b610be1565b6040516103769190612716565b60405180910390f35b610387610c08565b6040516103949190612433565b60405180910390f35b6103b760048036038101906103b29190612a1b565b610c9a565b005b6103d360048036038101906103ce91906124fd565b610da7565b6040516103e09190612558565b60405180910390f35b61040360048036038101906103fe9190612c9c565b610e39565b6040516104109190612716565b60405180910390f35b610433600480360381019061042e9190612cef565b61118f565b6040516104409190612716565b60405180910390f35b610463600480360381019061045e9190612d5b565b611359565b005b61047f600480360381019061047a919061267f565b6114fd565b60405161048c9190612558565b60405180910390f35b6104af60048036038101906104aa9190612dfd565b6115f5565b6040516104bc9190612582565b60405180910390f35b6060600580546104d490612e6c565b80601f016020809104026020016040519081016040528092919081815260200182805461050090612e6c565b801561054d5780601f106105225761010080835404028352916020019161054d565b820191906000526020600020905b81548152906001019060200180831161053057829003601f168201915b5050505050905090565b600082602052637f5e9f20600c5233600052816034600c205581600052602c5160601c337f8c5be1e5ebec7d5bd14f71427d1e84f3dd0314c0f7b2291e5b200ac8c7c3b92560206000a36001905092915050565b60006805345cdf77eb68f44c54905090565b60006105ca848484611615565b8360601b33602052637f5e9f208117600c526034600c20805460018101156106085780851115610602576313be252b6000526004601cfd5b84810382555b6387a211a28317600c526020600c2080548087111561062f5763f4d678b86000526004601cfd5b8681038255876000526020600c2087815401815587602052600c5160601c8660601c7fddf252ad1be2c89b69c2b068fc378daa952ba7f163c4a11628f55a4df523b3ef602080a350505050505061068784848461161a565b600190509392505050565b600090565b6000806106a261161f565b90506000801b81036106c0576106b66104c5565b8051906020012090505b6040517f8b73c3c69bb8fe3d512ecc4cf759cc79239f7b179b0ffacaa9a75d522b39400f81528160208201527fc89efdaa54c0f20c7adf612882df0950f5a951637e0307cdcb4c672f298b8bc6604082015246606082015230608082015260a081209250505090565b6000610746836107418461073c90612ef5565b611624565b61118f565b905092915050565b60608161075a90612f08565b60006107b17f6bdaeb2d29561f159c7ef98b16b27015fb2aeb87209c7ee656226d912f59927d8360000151604051602001610796929190612f1b565b6040516020818303038152906040528051906020012061163a565b905060006107c3828460200151611654565b90503373ffffffffffffffffffffffffffffffffffffffff168173ffffffffffffffffffffffffffffffffffffffff161461082a576040517f3093a27700000000000000000000000000000000000000000000000000000000815260040160405180910390fd5b6108b4600460003373ffffffffffffffffffffffffffffffffffffffff1673ffffffffffffffffffffffffffffffffffffffff16815260200190815260200160002060008873ffffffffffffffffffffffffffffffffffffffff1673ffffffffffffffffffffffffffffffffffffffff168152602001908152602001600020548660000135611680565b935050505092915050565b60608183600061091a7f6bdaeb2d29561f159c7ef98b16b27015fb2aeb87209c7ee656226d912f59927d84600001516040516020016108ff929190612f1b565b6040516020818303038152906040528051906020012061163a565b9050600061092c828560200151611654565b90508273ffffffffffffffffffffffffffffffffffffffff168173ffffffffffffffffffffffffffffffffffffffff1614610993576040517f51c65eae00000000000000000000000000000000000000000000000000000000815260040160405180910390fd5b6109e0600360008973ffffffffffffffffffffffffffffffffffffffff1673ffffffffffffffffffffffffffffffffffffffff168152602001908152602001600020548760000151611680565b94505050505092915050565b6000610a45610a008363ffffffff166116b6565b600360003373ffffffffffffffffffffffffffffffffffffffff1673ffffffffffffffffffffffffffffffffffffffff168152602001908152602001600020546116ca565b9050610a90600360003373ffffffffffffffffffffffffffffffffffffffff1673ffffffffffffffffffffffffffffffffffffffff1681526020019081526020016000205482611743565b600360003373ffffffffffffffffffffffffffffffffffffffff1673ffffffffffffffffffffffffffffffffffffffff16815260200190815260200160002081905550610adf60025482611743565b600281905550610afd33610af283611757565b63ffffffff1661181a565b5050565b60006387a211a2600c52816000526020600c20549050919050565b60006338377508600c52816000526020600c20549050919050565b600060608060008060006060610b4b6118b1565b610b536118ec565b46306000801b600067ffffffffffffffff811115610b7457610b736127b1565b5b604051908082528060200260200182016040528015610ba25781602001602082028036833780820191505090505b507f0f00000000000000000000000000000000000000000000000000000000000000959493929190965096509650965096509650965090919293949596565b6000610bff8484610bfa85610bf590612ef5565b611624565b610e39565b90509392505050565b606060068054610c1790612e6c565b80601f0160208091040260200160405190810160405280929190818152602001828054610c4390612e6c565b8015610c905780601f10610c6557610100808354040283529160200191610c90565b820191906000526020600020905b815481529060010190602001808311610c7357829003601f168201915b5050505050905090565b8063ffffffff16610caa33610b01565b1015610ce2576040517ffda7bbda00000000000000000000000000000000000000000000000000000000815260040160405180910390fd5b610cf2338263ffffffff16611927565b6000610d038263ffffffff166116b6565b9050610d4e600360003373ffffffffffffffffffffffffffffffffffffffff1673ffffffffffffffffffffffffffffffffffffffff16815260200190815260200160002054826119be565b600360003373ffffffffffffffffffffffffffffffffffffffff1673ffffffffffffffffffffffffffffffffffffffff16815260200190815260200160002081905550610d9d600254826119be565b6002819055505050565b6000610db4338484611615565b6387a211a2600c52336000526020600c20805480841115610ddd5763f4d678b86000526004601cfd5b8381038255846000526020600c2084815401815584602052600c5160601c337fddf252ad1be2c89b69c2b068fc378daa952ba7f163c4a11628f55a4df523b3ef602080a3505050610e2f33848461161a565b6001905092915050565b600080610f0a83610f05600360008973ffffffffffffffffffffffffffffffffffffffff1673ffffffffffffffffffffffffffffffffffffffff16815260200190815260200160002054600460008a73ffffffffffffffffffffffffffffffffffffffff1673ffffffffffffffffffffffffffffffffffffffff16815260200190815260200160002060003373ffffffffffffffffffffffffffffffffffffffff1673ffffffffffffffffffffffffffffffffffffffff168152602001908152602001600020546116ca565b6116ca565b9050610f92600460008773ffffffffffffffffffffffffffffffffffffffff1673ffffffffffffffffffffffffffffffffffffffff16815260200190815260200160002060003373ffffffffffffffffffffffffffffffffffffffff1673ffffffffffffffffffffffffffffffffffffffff1681526020019081526020016000205482611743565b600460008773ffffffffffffffffffffffffffffffffffffffff1673ffffffffffffffffffffffffffffffffffffffff16815260200190815260200160002060003373ffffffffffffffffffffffffffffffffffffffff1673ffffffffffffffffffffffffffffffffffffffff1681526020019081526020016000208190555061105b600360008773ffffffffffffffffffffffffffffffffffffffff1673ffffffffffffffffffffffffffffffffffffffff1681526020019081526020016000205482611743565b600360008773ffffffffffffffffffffffffffffffffffffffff1673ffffffffffffffffffffffffffffffffffffffff168152602001908152602001600020819055506110e7600360008673ffffffffffffffffffffffffffffffffffffffff1673ffffffffffffffffffffffffffffffffffffffff16815260200190815260200160002054826119be565b600360008673ffffffffffffffffffffffffffffffffffffffff1673ffffffffffffffffffffffffffffffffffffffff168152602001908152602001600020819055508373ffffffffffffffffffffffffffffffffffffffff168573ffffffffffffffffffffffffffffffffffffffff167f7612539b010127d1a2f810eeff1131de23a28ecfa8228f92a9606a879300fbb560405160405180910390a3809150509392505050565b6000806111db83600360003373ffffffffffffffffffffffffffffffffffffffff1673ffffffffffffffffffffffffffffffffffffffff168152602001908152602001600020546116ca565b9050611226600360003373ffffffffffffffffffffffffffffffffffffffff1673ffffffffffffffffffffffffffffffffffffffff1681526020019081526020016000205482611743565b600360003373ffffffffffffffffffffffffffffffffffffffff1673ffffffffffffffffffffffffffffffffffffffff168152602001908152602001600020819055506112b2600360008673ffffffffffffffffffffffffffffffffffffffff1673ffffffffffffffffffffffffffffffffffffffff16815260200190815260200160002054826119be565b600360008673ffffffffffffffffffffffffffffffffffffffff1673ffffffffffffffffffffffffffffffffffffffff168152602001908152602001600020819055508373ffffffffffffffffffffffffffffffffffffffff163373ffffffffffffffffffffffffffffffffffffffff167f7612539b010127d1a2f810eeff1131de23a28ecfa8228f92a9606a879300fbb560405160405180910390a38091505092915050565b600061136361161f565b90506000801b8103611381576113776104c5565b8051906020012090505b8442111561139757631a15a3cc6000526004601cfd5b6040518860601b60601c98508760601b60601c975065383775081901600e52886000526020600c2080547f8b73c3c69bb8fe3d512ecc4cf759cc79239f7b179b0ffacaa9a75d522b39400f83528360208401527fc89efdaa54c0f20c7adf612882df0950f5a951637e0307cdcb4c672f298b8bc6604084015246606084015230608084015260a08320602e527f6e71edae12b1b97f4d1f60370fef10105fa2faae0126114a169c64845d6126c983528a60208401528960408401528860608401528060808401528760a084015260c08320604e526042602c206000528660ff1660205285604052846060526020806080600060015afa8b3d51146114a35763ddafbaef6000526004601cfd5b80820183558a637f5e9f2060a01b17604052896034602c20558a8c7f8c5be1e5ebec7d5bd14f71427d1e84f3dd0314c0f7b2291e5b200ac8c7c3b925602060608801a3836040526000606052505050505050505050505050565b60006115118261150c90612ef5565b611624565b600460003373ffffffffffffffffffffffffffffffffffffffff1673ffffffffffffffffffffffffffffffffffffffff16815260200190815260200160002060008573ffffffffffffffffffffffffffffffffffffffff1673ffffffffffffffffffffffffffffffffffffffff168152602001908152602001600020819055508273ffffffffffffffffffffffffffffffffffffffff163373ffffffffffffffffffffffffffffffffffffffff167f46f92913a39019d68e630493d23e0cf39761bf253f7b3f8eae384b33e393ed4e60405160405180910390a36001905092915050565b600081602052637f5e9f20600c52826000526034600c2054905092915050565b505050565b505050565b600090565b600061163382600001516119d2565b9050919050565b600061164d6116476119e6565b83611a9d565b9050919050565b6000806000806116648686611ade565b9250925092506116748282611b3a565b82935050505092915050565b606061168b83611c9e565b61169c5761169960006116b6565b92505b60008390506116ad60028285611cab565b91505092915050565b60006116c3826002611d61565b9050919050565b60006116d583611c9e565b6116e6576116e360006116b6565b92505b6116ef82611c9e565b611700576116fd60006116b6565b91505b60008390506000839050600061173560028484608073ffffffffffffffffffffffffffffffffffffffff16635211c679611e03565b905080935050505092915050565b600061174f8383611e97565b905092915050565b600061176282611c9e565b6117735761177060006116b6565b91505b6000829050600061178382611f10565b90506000608073ffffffffffffffffffffffffffffffffffffffff166373cc01546002846040518363ffffffff1660e01b81526004016117c4929190612f99565b602060405180830381865afa1580156117e1573d6000803e3d6000fd5b505050506040513d601f19601f820116820180604052508101906118059190612fde565b905061181081611f6d565b9350505050919050565b61182660008383611615565b6805345cdf77eb68f44c548181018181101561184a5763e5cfe9576000526004601cfd5b806805345cdf77eb68f44c556387a211a2600c52836000526020600c2083815401815583602052600c5160601c60007fddf252ad1be2c89b69c2b068fc378daa952ba7f163c4a11628f55a4df523b3ef602080a35050506118ad6000838361161a565b5050565b60606118e760007f0000000000000000000000000000000000000000000000000000000000000000611f7790919063ffffffff16565b905090565b606061192260017f0000000000000000000000000000000000000000000000000000000000000000611f7790919063ffffffff16565b905090565b61193382600083611615565b6387a211a2600c52816000526020600c2080548083111561195c5763f4d678b86000526004601cfd5b8281038255826805345cdf77eb68f44c54036805345cdf77eb68f44c558260005260008460601b60601c7fddf252ad1be2c89b69c2b068fc378daa952ba7f163c4a11628f55a4df523b3ef60206000a350506119ba8260008361161a565b5050565b60006119ca8383612027565b905092915050565b60006119df82600261209f565b9050919050565b60007f000000000000000000000000000000000000000000000000000000000000000073ffffffffffffffffffffffffffffffffffffffff163073ffffffffffffffffffffffffffffffffffffffff16148015611a6257507f000000000000000000000000000000000000000000000000000000000000000046145b15611a8f577f00000000000000000000000000000000000000000000000000000000000000009050611a9a565b611a97612139565b90505b90565b60006040517f190100000000000000000000000000000000000000000000000000000000000081528360028201528260228201526042812091505092915050565b60008060006041845103611b235760008060006020870151925060408701519150606087015160001a9050611b15888285856121cf565b955095509550505050611b33565b60006002855160001b9250925092505b9250925092565b60006003811115611b4e57611b4d61300b565b5b826003811115611b6157611b6061300b565b5b0315611c9a5760016003811115611b7b57611b7a61300b565b5b826003811115611b8e57611b8d61300b565b5b03611bc5576040517ff645eedf00000000000000000000000000000000000000000000000000000000815260040160405180910390fd5b60026003811115611bd957611bd861300b565b5b826003811115611bec57611beb61300b565b5b03611c31578060001c6040517ffce698f7000000000000000000000000000000000000000000000000000000008152600401611c289190612582565b60405180910390fd5b600380811115611c4457611c4361300b565b5b826003811115611c5757611c5661300b565b5b03611c9957806040517fd78bce0c000000000000000000000000000000000000000000000000000000008152600401611c909190612640565b60405180910390fd5b5b5050565b6000808214159050919050565b6060608073ffffffffffffffffffffffffffffffffffffffff1663a1848ff385611cd486611f10565b85604051602001611ce5919061305b565b6040516020818303038152906040526040518463ffffffff1660e01b8152600401611d1293929190613076565b600060405180830381865afa158015611d2f573d6000803e3d6000fd5b505050506040513d6000823e3d601f19601f82011682018060405250810190611d58919061315c565b90509392505050565b60006060608073ffffffffffffffffffffffffffffffffffffffff166319e1c5c4611d8b86611f10565b856040518363ffffffff1660e01b8152600401611da99291906131a5565b600060405180830381865afa158015611dc6573d6000803e3d6000fd5b505050506040513d6000823e3d601f19601f82011682018060405250810190611def9190613245565b9050611dfa816122c3565b91505092915050565b60006060838388611e1389611f10565b611e1c89611f10565b6040518463ffffffff1660e01b8152600401611e3a93929190613076565b600060405180830381865afa158015611e57573d6000803e3d6000fd5b505050506040513d6000823e3d601f19601f82011682018060405250810190611e809190613245565b9050611e8b816122d1565b91505095945050505050565b6000611ea283611c9e565b611eb357611eb060006116b6565b92505b611ebc82611c9e565b611ecd57611eca60006116b6565b91505b600083905060008390506000611f0260028484608073ffffffffffffffffffffffffffffffffffffffff1663cc2cbeff611e03565b905080935050505092915050565b6060602067ffffffffffffffff811115611f2d57611f2c6127b1565b5b6040519080825280601f01601f191660200182016040528015611f5f5781602001600182028036833780820191505090505b509050816020820152919050565b6000819050919050565b606060ff60001b8314611f9457611f8d836122df565b9050612021565b818054611fa090612e6c565b80601f0160208091040260200160405190810160405280929190818152602001828054611fcc90612e6c565b80156120195780601f10611fee57610100808354040283529160200191612019565b820191906000526020600020905b815481529060010190602001808311611ffc57829003601f168201915b505050505090505b92915050565b600061203283611c9e565b6120435761204060006116b6565b92505b61204c82611c9e565b61205d5761205a60006116b6565b91505b60008390506000839050600061209160028484608073ffffffffffffffffffffffffffffffffffffffff16622df619611e03565b905080935050505092915050565b60006060608073ffffffffffffffffffffffffffffffffffffffff16635fa55ca784866040518363ffffffff1660e01b81526004016120df929190612f99565b600060405180830381865afa1580156120fc573d6000803e3d6000fd5b505050506040513d6000823e3d601f19601f820116820180604052508101906121259190613245565b9050612130816122c3565b91505092915050565b60007f8b73c3c69bb8fe3d512ecc4cf759cc79239f7b179b0ffacaa9a75d522b39400f7f00000000000000000000000000000000000000000000000000000000000000007f000000000000000000000000000000000000000000000000000000000000000046306040516020016121b495949392919061328e565b60405160208183030381529060405280519060200120905090565b60008060007f7fffffffffffffffffffffffffffffff5d576e7357a4501ddfe92f46681b20a08460001c111561220f5760006003859250925092506122b9565b60006001888888886040516000815260200160405260405161223494939291906132e1565b6020604051602081039080840390855afa158015612256573d6000803e3d6000fd5b505050602060405103519050600073ffffffffffffffffffffffffffffffffffffffff168173ffffffffffffffffffffffffffffffffffffffff16036122aa57600060016000801b935093509350506122b9565b8060008060001b935093509350505b9450945094915050565b600060208201519050919050565b600060208201519050919050565b606060006122ec83612353565b90506000602067ffffffffffffffff81111561230b5761230a6127b1565b5b6040519080825280601f01601f19166020018201604052801561233d5781602001600182028036833780820191505090505b5090508181528360208201528092505050919050565b60008060ff8360001c169050601f81111561239a576040517fb3512b0c00000000000000000000000000000000000000000000000000000000815260040160405180910390fd5b80915050919050565b600081519050919050565b600082825260208201905092915050565b60005b838110156123dd5780820151818401526020810190506123c2565b60008484015250505050565b6000601f19601f8301169050919050565b6000612405826123a3565b61240f81856123ae565b935061241f8185602086016123bf565b612428816123e9565b840191505092915050565b6000602082019050818103600083015261244d81846123fa565b905092915050565b6000604051905090565b600080fd5b600080fd5b600073ffffffffffffffffffffffffffffffffffffffff82169050919050565b600061249482612469565b9050919050565b6124a481612489565b81146124af57600080fd5b50565b6000813590506124c18161249b565b92915050565b6000819050919050565b6124da816124c7565b81146124e557600080fd5b50565b6000813590506124f7816124d1565b92915050565b600080604083850312156125145761251361245f565b5b6000612522858286016124b2565b9250506020612533858286016124e8565b9150509250929050565b60008115159050919050565b6125528161253d565b82525050565b600060208201905061256d6000830184612549565b92915050565b61257c816124c7565b82525050565b60006020820190506125976000830184612573565b92915050565b6000806000606084860312156125b6576125b561245f565b5b60006125c4868287016124b2565b93505060206125d5868287016124b2565b92505060406125e6868287016124e8565b9150509250925092565b600060ff82169050919050565b612606816125f0565b82525050565b600060208201905061262160008301846125fd565b92915050565b6000819050919050565b61263a81612627565b82525050565b60006020820190506126556000830184612631565b92915050565b600080fd5b6000602082840312156126765761267561265b565b5b81905092915050565b600080604083850312156126965761269561245f565b5b60006126a4858286016124b2565b925050602083013567ffffffffffffffff8111156126c5576126c4612464565b5b6126d185828601612660565b9150509250929050565b6000819050919050565b60006127006126fb6126f6846124c7565b6126db565b6124c7565b9050919050565b612710816126e5565b82525050565b600060208201905061272b6000830184612707565b92915050565b6000604082840312156127475761274661265b565b5b81905092915050565b600080604083850312156127675761276661245f565b5b6000612775858286016124b2565b925050602083013567ffffffffffffffff81111561279657612795612464565b5b6127a285828601612731565b9150509250929050565b600080fd5b7f4e487b7100000000000000000000000000000000000000000000000000000000600052604160045260246000fd5b6127e9826123e9565b810181811067ffffffffffffffff82111715612808576128076127b1565b5b80604052505050565b600061281b612455565b905061282782826127e0565b919050565b600080fd5b61283a81612627565b811461284557600080fd5b50565b60008135905061285781612831565b92915050565b600080fd5b600080fd5b600067ffffffffffffffff821115612882576128816127b1565b5b61288b826123e9565b9050602081019050919050565b82818337600083830152505050565b60006128ba6128b584612867565b612811565b9050828152602081018484840111156128d6576128d5612862565b5b6128e1848285612898565b509392505050565b600082601f8301126128fe576128fd61285d565b5b813561290e8482602086016128a7565b91505092915050565b60006040828403121561292d5761292c6127ac565b5b6129376040612811565b9050600061294784828501612848565b600083015250602082013567ffffffffffffffff81111561296b5761296a61282c565b5b612977848285016128e9565b60208301525092915050565b6000806040838503121561299a5761299961245f565b5b60006129a8858286016124b2565b925050602083013567ffffffffffffffff8111156129c9576129c8612464565b5b6129d585828601612917565b9150509250929050565b600063ffffffff82169050919050565b6129f8816129df565b8114612a0357600080fd5b50565b600081359050612a15816129ef565b92915050565b600060208284031215612a3157612a3061245f565b5b6000612a3f84828501612a06565b91505092915050565b600060208284031215612a5e57612a5d61245f565b5b6000612a6c848285016124b2565b91505092915050565b60007fff0000000000000000000000000000000000000000000000000000000000000082169050919050565b612aaa81612a75565b82525050565b612ab981612489565b82525050565b600081519050919050565b600082825260208201905092915050565b6000819050602082019050919050565b612af4816124c7565b82525050565b6000612b068383612aeb565b60208301905092915050565b6000602082019050919050565b6000612b2a82612abf565b612b348185612aca565b9350612b3f83612adb565b8060005b83811015612b70578151612b578882612afa565b9750612b6283612b12565b925050600181019050612b43565b5085935050505092915050565b600060e082019050612b92600083018a612aa1565b8181036020830152612ba481896123fa565b90508181036040830152612bb881886123fa565b9050612bc76060830187612573565b612bd46080830186612ab0565b612be160a0830185612631565b81810360c0830152612bf38184612b1f565b905098975050505050505050565b600080600060608486031215612c1a57612c1961245f565b5b6000612c28868287016124b2565b9350506020612c39868287016124b2565b925050604084013567ffffffffffffffff811115612c5a57612c59612464565b5b612c6686828701612660565b9150509250925092565b612c79816124c7565b8114612c8457600080fd5b50565b600081359050612c9681612c70565b92915050565b600080600060608486031215612cb557612cb461245f565b5b6000612cc3868287016124b2565b9350506020612cd4868287016124b2565b9250506040612ce586828701612c87565b9150509250925092565b60008060408385031215612d0657612d0561245f565b5b6000612d14858286016124b2565b9250506020612d2585828601612c87565b9150509250929050565b612d38816125f0565b8114612d4357600080fd5b50565b600081359050612d5581612d2f565b92915050565b600080600080600080600060e0888a031215612d7a57612d7961245f565b5b6000612d888a828b016124b2565b9750506020612d998a828b016124b2565b9650506040612daa8a828b016124e8565b9550506060612dbb8a828b016124e8565b9450506080612dcc8a828b01612d46565b93505060a0612ddd8a828b01612848565b92505060c0612dee8a828b01612848565b91505092959891949750929550565b60008060408385031215612e1457612e1361245f565b5b6000612e22858286016124b2565b9250506020612e33858286016124b2565b9150509250929050565b7f4e487b7100000000000000000000000000000000000000000000000000000000600052602260045260246000fd5b60006002820490506001821680612e8457607f821691505b602082108103612e9757612e96612e3d565b5b50919050565b600060208284031215612eb357612eb26127ac565b5b612ebd6020612811565b9050600082013567ffffffffffffffff811115612edd57612edc61282c565b5b612ee9848285016128e9565b60008301525092915050565b6000612f013683612e9d565b9050919050565b6000612f143683612917565b9050919050565b6000604082019050612f306000830185612631565b612f3d6020830184612631565b9392505050565b600081519050919050565b600082825260208201905092915050565b6000612f6b82612f44565b612f758185612f4f565b9350612f858185602086016123bf565b612f8e816123e9565b840191505092915050565b6000604082019050612fae60008301856125fd565b8181036020830152612fc08184612f60565b90509392505050565b600081519050612fd8816124d1565b92915050565b600060208284031215612ff457612ff361245f565b5b600061300284828501612fc9565b91505092915050565b7f4e487b7100000000000000000000000000000000000000000000000000000000600052602160045260246000fd5b6000819050919050565b61305561305082612627565b61303a565b82525050565b60006130678284613044565b60208201915081905092915050565b600060608201905061308b60008301866125fd565b818103602083015261309d8185612f60565b905081810360408301526130b18184612f60565b9050949350505050565b600067ffffffffffffffff8211156130d6576130d56127b1565b5b6130df826123e9565b9050602081019050919050565b60006130ff6130fa846130bb565b612811565b90508281526020810184848401111561311b5761311a612862565b5b6131268482856123bf565b509392505050565b600082601f8301126131435761314261285d565b5b81516131538482602086016130ec565b91505092915050565b6000602082840312156131725761317161245f565b5b600082015167ffffffffffffffff8111156131905761318f612464565b5b61319c8482850161312e565b91505092915050565b600060408201905081810360008301526131bf8185612f60565b90506131ce60208301846125fd565b9392505050565b60006131e86131e384612867565b612811565b90508281526020810184848401111561320457613203612862565b5b61320f8482856123bf565b509392505050565b600082601f83011261322c5761322b61285d565b5b815161323c8482602086016131d5565b91505092915050565b60006020828403121561325b5761325a61245f565b5b600082015167ffffffffffffffff81111561327957613278612464565b5b61328584828501613217565b91505092915050565b600060a0820190506132a36000830188612631565b6132b06020830187612631565b6132bd6040830186612631565b6132ca6060830185612573565b6132d76080830184612ab0565b9695505050505050565b60006080820190506132f66000830187612631565b61330360208301866125fd565b6133106040830185612631565b61331d6060830184612631565b9594505050505056fea26469706673582212203ee1da1627c2f718007ad9ac1200322dba5c5566775b546c7c5441df94e3bf4164736f6c63430008180033",
  "devdoc": {
    "errors": {
      "AllowanceOverflow()": [
        {
          "details": "The allowance has overflowed."
        }
      ],
      "AllowanceUnderflow()": [
        {
          "details": "The allowance has underflowed."
        }
      ],
      "ECDSAInvalidSignature()": [
        {
          "details": "The signature derives the `address(0)`."
        }
      ],
      "ECDSAInvalidSignatureLength(uint256)": [
        {
          "details": "The signature has an invalid length."
        }
      ],
      "ECDSAInvalidSignatureS(bytes32)": [
        {
          "details": "The signature has an S value that is in the upper half order."
        }
      ],
      "InsufficientAllowance()": [
        {
          "details": "Insufficient allowance."
        }
      ],
      "InsufficientBalance()": [
        {
          "details": "Insufficient balance."
        }
      ],
      "InvalidPermit()": [
        {
          "details": "The permit is invalid."
        }
      ],
      "PermitExpired()": [
        {
          "details": "The permit has expired."
        }
      ],
      "TotalSupplyOverflow()": [
        {
          "details": "The total supply has overflowed."
        }
      ]
    },
    "events": {
      "Approval(address,address,uint256)": {
        "details": "Emitted when `amount` tokens is approved by `owner` to be used by `spender`."
      },
      "ApprovalEncrypted(address,address)": {
        "details": "Emitted when the allowance of a `spender` for an `owner` is set by a call to {approveEncrypted}. `value` is the new allowance."
      },
      "EIP712DomainChanged()": {
        "details": "MAY be emitted to signal that the domain could have changed."
      },
      "Transfer(address,address,uint256)": {
        "details": "Emitted when `amount` tokens is transferred from `from` to `to`."
      },
      "TransferEncrypted(address,address)": {
        "details": "Emitted when `value` tokens are moved from one account (`from`) to another (`to`). Note that `value` may be zero."
      }
    },
    "kind": "dev",
    "methods": {
      "DOMAIN_SEPARATOR()": {
        "details": "Returns the EIP-712 domain separator for the EIP-2612 permit."
      },
      "allowance(address,address)": {
        "details": "Returns the amount of tokens that `spender` can spend on behalf of `owner`."
      },
      "allowanceEncrypted(address,(bytes32,bytes))": {
        "details": "Returns the remaining number of tokens that `spender` will be allowed to spend on behalf of `owner` through {transferFrom}. This is zero by default. This value changes when {approve} or {transferFrom} are called."
      },
      "approve(address,uint256)": {
        "details": "Sets `amount` as the allowance of `spender` over the caller's tokens. Emits a {Approval} event."
      },
      "approveEncrypted(address,(bytes))": {
        "details": "Sets a `value` amount of tokens as the allowance of `spender` over the caller's tokens. Returns a boolean value indicating whether the operation succeeded. IMPORTANT: Beware that changing an allowance with this method brings the risk that someone may use both the old and the new allowance by unfortunate transaction ordering. One possible solution to mitigate this race condition is to first reduce the spender's allowance to 0 and set the desired value afterwards: https://github.com/ethereum/EIPs/issues/20#issuecomment-263524729 Emits an {ApprovalEncrypted} event."
      },
      "balanceOf(address)": {
        "details": "Returns the amount of tokens owned by `owner`."
      },
      "balanceOfEncrypted(address,(bytes32,bytes))": {
        "details": "Returns the value of tokens owned by `account`, sealed and encrypted for the caller."
      },
      "decimals()": {
        "details": "Returns the decimals places of the token."
      },
      "eip712Domain()": {
        "details": "See {IERC-5267}."
      },
      "name()": {
        "details": "Returns the name of the token."
      },
      "nonces(address)": {
        "details": "Returns the current nonce for `owner`. This value is used to compute the signature for EIP-2612 permit."
      },
      "permit(address,address,uint256,uint256,uint8,bytes32,bytes32)": {
        "details": "Sets `value` as the allowance of `spender` over the tokens of `owner`, authorized by a signed approval by `owner`. Emits a {Approval} event."
      },
      "symbol()": {
        "details": "Returns the symbol of the token."
      },
      "totalSupply()": {
        "details": "Returns the amount of tokens in existence."
      },
      "transfer(address,uint256)": {
        "details": "Transfer `amount` tokens from the caller to `to`. Requirements: - `from` must at least have `amount`. Emits a {Transfer} event."
      },
      "transferFrom(address,address,uint256)": {
        "details": "Transfers `amount` tokens from `from` to `to`. Note: Does not update the allowance if it is the maximum uint256 value. Requirements: - `from` must at least have `amount`. - The caller must have at least `amount` of allowance to transfer the tokens of `from`. Emits a {Transfer} event."
      },
      "transferFromEncrypted(address,address,(bytes))": {
        "details": "Moves a `value` amount of tokens from `from` to `to` using the allowance mechanism. `value` is then deducted from the caller's allowance. Returns a boolean value indicating whether the operation succeeded. Emits a {TransferEncrypted} event."
      }
    },
    "version": 1
  },
  "userdoc": {
    "errors": {
      "SignerNotMessageSender()": [
        {
          "notice": "Emitted when the signer is not the message sender"
        }
      ],
      "SignerNotOwner()": [
        {
          "notice": "Emitted when the signer is not the specified owner"
        }
      ]
    },
    "kind": "user",
    "methods": {},
    "version": 1
  },
  "storageLayout": {
    "storage": [
      {
        "astId": 16568,
        "contract": "contracts/tokens/FakeUSD.sol:FakeUSD",
        "label": "_nameFallback",
        "offset": 0,
        "slot": "0",
        "type": "t_string_storage"
      },
      {
        "astId": 16570,
        "contract": "contracts/tokens/FakeUSD.sol:FakeUSD",
        "label": "_versionFallback",
        "offset": 0,
        "slot": "1",
        "type": "t_string_storage"
      },
      {
        "astId": 20527,
        "contract": "contracts/tokens/FakeUSD.sol:FakeUSD",
        "label": "_encTotalSupply",
        "offset": 0,
        "slot": "2",
        "type": "t_userDefinedValueType(euint32)12"
      },
      {
        "astId": 20532,
        "contract": "contracts/tokens/FakeUSD.sol:FakeUSD",
        "label": "_encBalanceOf",
        "offset": 0,
        "slot": "3",
        "type": "t_mapping(t_address,t_userDefinedValueType(euint32)12)"
      },
      {
        "astId": 20539,
        "contract": "contracts/tokens/FakeUSD.sol:FakeUSD",
        "label": "_encAllowance",
        "offset": 0,
        "slot": "4",
        "type": "t_mapping(t_address,t_mapping(t_address,t_userDefinedValueType(euint32)12))"
      },
      {
        "astId": 20541,
        "contract": "contracts/tokens/FakeUSD.sol:FakeUSD",
        "label": "_name",
        "offset": 0,
        "slot": "5",
        "type": "t_string_storage"
      },
      {
        "astId": 20543,
        "contract": "contracts/tokens/FakeUSD.sol:FakeUSD",
        "label": "_symbol",
        "offset": 0,
        "slot": "6",
        "type": "t_string_storage"
      }
    ],
    "types": {
      "t_address": {
        "encoding": "inplace",
        "label": "address",
        "numberOfBytes": "20"
      },
      "t_mapping(t_address,t_mapping(t_address,t_userDefinedValueType(euint32)12))": {
        "encoding": "mapping",
        "key": "t_address",
        "label": "mapping(address => mapping(address => euint32))",
        "numberOfBytes": "32",
        "value": "t_mapping(t_address,t_userDefinedValueType(euint32)12)"
      },
      "t_mapping(t_address,t_userDefinedValueType(euint32)12)": {
        "encoding": "mapping",
        "key": "t_address",
        "label": "mapping(address => euint32)",
        "numberOfBytes": "32",
        "value": "t_userDefinedValueType(euint32)12"
      },
      "t_string_storage": {
        "encoding": "bytes",
        "label": "string",
        "numberOfBytes": "32"
      },
      "t_userDefinedValueType(euint32)12": {
        "encoding": "inplace",
        "label": "euint32",
        "numberOfBytes": "32"
      }
    }
  }
}