{
  "address": "0x105F3F45f9144b3D9874afa78A9Ce609077954Bc",
  "abi": [
    {
      "inputs": [
        {
          "components": [
            {
              "internalType": "bytes",
              "name": "data",
              "type": "bytes"
            }
          ],
          "internalType": "struct inEuint32",
          "name": "_initialSupply",
          "type": "tuple"
        }
      ],
      "stateMutability": "nonpayable",
      "type": "constructor"
    },
    {
      "inputs": [],
      "name": "AllowanceOverflow",
      "type": "error"
    },
    {
      "inputs": [],
      "name": "AllowanceUnderflow",
      "type": "error"
    },
    {
      "inputs": [],
      "name": "ECDSAInvalidSignature",
      "type": "error"
    },
    {
      "inputs": [
        {
          "internalType": "uint256",
          "name": "length",
          "type": "uint256"
        }
      ],
      "name": "ECDSAInvalidSignatureLength",
      "type": "error"
    },
    {
      "inputs": [
        {
          "internalType": "bytes32",
          "name": "s",
          "type": "bytes32"
        }
      ],
      "name": "ECDSAInvalidSignatureS",
      "type": "error"
    },
    {
      "inputs": [],
      "name": "ErrorInsufficientFunds",
      "type": "error"
    },
    {
      "inputs": [],
      "name": "InsufficientAllowance",
      "type": "error"
    },
    {
      "inputs": [],
      "name": "InsufficientBalance",
      "type": "error"
    },
    {
      "inputs": [],
      "name": "InvalidPermit",
      "type": "error"
    },
    {
      "inputs": [],
      "name": "InvalidShortString",
      "type": "error"
    },
    {
      "inputs": [],
      "name": "PermitExpired",
      "type": "error"
    },
    {
      "inputs": [],
      "name": "SignerNotMessageSender",
      "type": "error"
    },
    {
      "inputs": [],
      "name": "SignerNotOwner",
      "type": "error"
    },
    {
      "inputs": [
        {
          "internalType": "string",
          "name": "str",
          "type": "string"
        }
      ],
      "name": "StringTooLong",
      "type": "error"
    },
    {
      "inputs": [],
      "name": "TotalSupplyOverflow",
      "type": "error"
    },
    {
      "anonymous": false,
      "inputs": [
        {
          "indexed": true,
          "internalType": "address",
          "name": "owner",
          "type": "address"
        },
        {
          "indexed": true,
          "internalType": "address",
          "name": "spender",
          "type": "address"
        },
        {
          "indexed": false,
          "internalType": "uint256",
          "name": "amount",
          "type": "uint256"
        }
      ],
      "name": "Approval",
      "type": "event"
    },
    {
      "anonymous": false,
      "inputs": [
        {
          "indexed": true,
          "internalType": "address",
          "name": "owner",
          "type": "address"
        },
        {
          "indexed": true,
          "internalType": "address",
          "name": "spender",
          "type": "address"
        }
      ],
      "name": "ApprovalEncrypted",
      "type": "event"
    },
    {
      "anonymous": false,
      "inputs": [],
      "name": "EIP712DomainChanged",
      "type": "event"
    },
    {
      "anonymous": false,
      "inputs": [
        {
          "indexed": true,
          "internalType": "address",
          "name": "from",
          "type": "address"
        },
        {
          "indexed": true,
          "internalType": "address",
          "name": "to",
          "type": "address"
        },
        {
          "indexed": false,
          "internalType": "uint256",
          "name": "amount",
          "type": "uint256"
        }
      ],
      "name": "Transfer",
      "type": "event"
    },
    {
      "anonymous": false,
      "inputs": [
        {
          "indexed": true,
          "internalType": "address",
          "name": "from",
          "type": "address"
        },
        {
          "indexed": true,
          "internalType": "address",
          "name": "to",
          "type": "address"
        }
      ],
      "name": "TransferEncrypted",
      "type": "event"
    },
    {
      "inputs": [],
      "name": "DOMAIN_SEPARATOR",
      "outputs": [
        {
          "internalType": "bytes32",
          "name": "result",
          "type": "bytes32"
        }
      ],
      "stateMutability": "view",
      "type": "function"
    },
    {
      "inputs": [
        {
          "internalType": "address",
          "name": "owner",
          "type": "address"
        },
        {
          "internalType": "address",
          "name": "spender",
          "type": "address"
        }
      ],
      "name": "allowance",
      "outputs": [
        {
          "internalType": "uint256",
          "name": "result",
          "type": "uint256"
        }
      ],
      "stateMutability": "view",
      "type": "function"
    },
    {
      "inputs": [
        {
          "internalType": "address",
          "name": "spender",
          "type": "address"
        },
        {
          "components": [
            {
              "internalType": "bytes32",
              "name": "publicKey",
              "type": "bytes32"
            },
            {
              "internalType": "bytes",
              "name": "signature",
              "type": "bytes"
            }
          ],
          "internalType": "struct Permission",
          "name": "permission",
          "type": "tuple"
        }
      ],
      "name": "allowanceEncrypted",
      "outputs": [
        {
          "internalType": "string",
          "name": "",
          "type": "string"
        }
      ],
      "stateMutability": "view",
      "type": "function"
    },
    {
      "inputs": [
        {
          "internalType": "address",
          "name": "spender",
          "type": "address"
        },
        {
          "internalType": "uint256",
          "name": "amount",
          "type": "uint256"
        }
      ],
      "name": "approve",
      "outputs": [
        {
          "internalType": "bool",
          "name": "",
          "type": "bool"
        }
      ],
      "stateMutability": "nonpayable",
      "type": "function"
    },
    {
      "inputs": [
        {
          "internalType": "address",
          "name": "spender",
          "type": "address"
        },
        {
          "components": [
            {
              "internalType": "bytes",
              "name": "data",
              "type": "bytes"
            }
          ],
          "internalType": "struct inEuint32",
          "name": "value",
          "type": "tuple"
        }
      ],
      "name": "approveEncrypted",
      "outputs": [
        {
          "internalType": "bool",
          "name": "",
          "type": "bool"
        }
      ],
      "stateMutability": "nonpayable",
      "type": "function"
    },
    {
      "inputs": [
        {
          "internalType": "address",
          "name": "owner",
          "type": "address"
        }
      ],
      "name": "balanceOf",
      "outputs": [
        {
          "internalType": "uint256",
          "name": "result",
          "type": "uint256"
        }
      ],
      "stateMutability": "view",
      "type": "function"
    },
    {
      "inputs": [
        {
          "internalType": "address",
          "name": "account",
          "type": "address"
        },
        {
          "components": [
            {
              "internalType": "bytes32",
              "name": "publicKey",
              "type": "bytes32"
            },
            {
              "internalType": "bytes",
              "name": "signature",
              "type": "bytes"
            }
          ],
          "internalType": "struct Permission",
          "name": "auth",
          "type": "tuple"
        }
      ],
      "name": "balanceOfEncrypted",
      "outputs": [
        {
          "internalType": "string",
          "name": "",
          "type": "string"
        }
      ],
      "stateMutability": "view",
      "type": "function"
    },
    {
      "inputs": [],
      "name": "decimals",
      "outputs": [
        {
          "internalType": "uint8",
          "name": "",
          "type": "uint8"
        }
      ],
      "stateMutability": "pure",
      "type": "function"
    },
    {
      "inputs": [],
      "name": "eip712Domain",
      "outputs": [
        {
          "internalType": "bytes1",
          "name": "fields",
          "type": "bytes1"
        },
        {
          "internalType": "string",
          "name": "name",
          "type": "string"
        },
        {
          "internalType": "string",
          "name": "version",
          "type": "string"
        },
        {
          "internalType": "uint256",
          "name": "chainId",
          "type": "uint256"
        },
        {
          "internalType": "address",
          "name": "verifyingContract",
          "type": "address"
        },
        {
          "internalType": "bytes32",
          "name": "salt",
          "type": "bytes32"
        },
        {
          "internalType": "uint256[]",
          "name": "extensions",
          "type": "uint256[]"
        }
      ],
      "stateMutability": "view",
      "type": "function"
    },
    {
      "inputs": [],
      "name": "name",
      "outputs": [
        {
          "internalType": "string",
          "name": "",
          "type": "string"
        }
      ],
      "stateMutability": "view",
      "type": "function"
    },
    {
      "inputs": [
        {
          "internalType": "address",
          "name": "owner",
          "type": "address"
        }
      ],
      "name": "nonces",
      "outputs": [
        {
          "internalType": "uint256",
          "name": "result",
          "type": "uint256"
        }
      ],
      "stateMutability": "view",
      "type": "function"
    },
    {
      "inputs": [
        {
          "internalType": "address",
          "name": "owner",
          "type": "address"
        },
        {
          "internalType": "address",
          "name": "spender",
          "type": "address"
        },
        {
          "internalType": "uint256",
          "name": "value",
          "type": "uint256"
        },
        {
          "internalType": "uint256",
          "name": "deadline",
          "type": "uint256"
        },
        {
          "internalType": "uint8",
          "name": "v",
          "type": "uint8"
        },
        {
          "internalType": "bytes32",
          "name": "r",
          "type": "bytes32"
        },
        {
          "internalType": "bytes32",
          "name": "s",
          "type": "bytes32"
        }
      ],
      "name": "permit",
      "outputs": [],
      "stateMutability": "nonpayable",
      "type": "function"
    },
    {
      "inputs": [],
      "name": "symbol",
      "outputs": [
        {
          "internalType": "string",
          "name": "",
          "type": "string"
        }
      ],
      "stateMutability": "view",
      "type": "function"
    },
    {
      "inputs": [],
      "name": "totalSupply",
      "outputs": [
        {
          "internalType": "uint256",
          "name": "result",
          "type": "uint256"
        }
      ],
      "stateMutability": "view",
      "type": "function"
    },
    {
      "inputs": [
        {
          "internalType": "address",
          "name": "to",
          "type": "address"
        },
        {
          "internalType": "uint256",
          "name": "amount",
          "type": "uint256"
        }
      ],
      "name": "transfer",
      "outputs": [
        {
          "internalType": "bool",
          "name": "",
          "type": "bool"
        }
      ],
      "stateMutability": "nonpayable",
      "type": "function"
    },
    {
      "inputs": [
        {
          "internalType": "address",
          "name": "to",
          "type": "address"
        },
        {
          "components": [
            {
              "internalType": "bytes",
              "name": "data",
              "type": "bytes"
            }
          ],
          "internalType": "struct inEuint32",
          "name": "encryptedAmount",
          "type": "tuple"
        }
      ],
      "name": "transferEncrypted",
      "outputs": [
        {
          "internalType": "euint32",
          "name": "",
          "type": "uint256"
        }
      ],
      "stateMutability": "nonpayable",
      "type": "function"
    },
    {
      "inputs": [
        {
          "internalType": "address",
          "name": "to",
          "type": "address"
        },
        {
          "internalType": "euint32",
          "name": "amount",
          "type": "uint256"
        }
      ],
      "name": "transferEncrypted",
      "outputs": [
        {
          "internalType": "euint32",
          "name": "",
          "type": "uint256"
        }
      ],
      "stateMutability": "nonpayable",
      "type": "function"
    },
    {
      "inputs": [
        {
          "internalType": "address",
          "name": "from",
          "type": "address"
        },
        {
          "internalType": "address",
          "name": "to",
          "type": "address"
        },
        {
          "internalType": "uint256",
          "name": "amount",
          "type": "uint256"
        }
      ],
      "name": "transferFrom",
      "outputs": [
        {
          "internalType": "bool",
          "name": "",
          "type": "bool"
        }
      ],
      "stateMutability": "nonpayable",
      "type": "function"
    },
    {
      "inputs": [
        {
          "internalType": "address",
          "name": "from",
          "type": "address"
        },
        {
          "internalType": "address",
          "name": "to",
          "type": "address"
        },
        {
          "components": [
            {
              "internalType": "bytes",
              "name": "data",
              "type": "bytes"
            }
          ],
          "internalType": "struct inEuint32",
          "name": "value",
          "type": "tuple"
        }
      ],
      "name": "transferFromEncrypted",
      "outputs": [
        {
          "internalType": "euint32",
          "name": "",
          "type": "uint256"
        }
      ],
      "stateMutability": "nonpayable",
      "type": "function"
    },
    {
      "inputs": [
        {
          "internalType": "address",
          "name": "from",
          "type": "address"
        },
        {
          "internalType": "address",
          "name": "to",
          "type": "address"
        },
        {
          "internalType": "euint32",
          "name": "value",
          "type": "uint256"
        }
      ],
      "name": "transferFromEncrypted",
      "outputs": [
        {
          "internalType": "euint32",
          "name": "",
          "type": "uint256"
        }
      ],
      "stateMutability": "nonpayable",
      "type": "function"
    },
    {
      "inputs": [
        {
          "internalType": "uint32",
          "name": "amount",
          "type": "uint32"
        }
      ],
      "name": "unwrap",
      "outputs": [],
      "stateMutability": "nonpayable",
      "type": "function"
    },
    {
      "inputs": [
        {
          "internalType": "uint32",
          "name": "amount",
          "type": "uint32"
        }
      ],
      "name": "wrap",
      "outputs": [],
      "stateMutability": "nonpayable",
      "type": "function"
    }
  ],
  "transactionHash": "0x100bcf8cdc493edca4856c32785697e0256455212d20e64f423478829a860459",
  "args": [
    {
      "data": {
        "0": 16,
        "1": 8,
        "2": 0,
        "3": 0,
        "4": 0,
        "5": 0,
        "6": 0,
        "7": 0,
        "8": 23,
        "9": 39,
        "10": 221,
        "11": 149,
        "12": 172,
        "13": 5,
        "14": 90,
        "15": 101,
        "16": 27,
        "17": 188,
        "18": 90,
        "19": 189,
        "20": 148,
        "21": 53,
        "22": 169,
        "23": 169,
        "24": 10,
        "25": 211,
        "26": 129,
        "27": 241,
        "28": 74,
        "29": 181,
        "30": 3,
        "31": 57,
        "32": 151,
        "33": 132,
        "34": 240,
        "35": 235,
        "36": 40,
        "37": 226,
        "38": 168,
        "39": 106,
        "40": 24,
        "41": 198,
        "42": 139,
        "43": 251,
        "44": 223,
        "45": 67,
        "46": 149,
        "47": 37,
        "48": 119,
        "49": 57,
        "50": 53,
        "51": 165,
        "52": 28,
        "53": 237,
        "54": 183,
        "55": 97,
        "56": 198,
        "57": 214,
        "58": 35,
        "59": 235,
        "60": 213,
        "61": 156,
        "62": 20,
        "63": 31,
        "64": 31,
        "65": 48,
        "66": 30,
        "67": 115,
        "68": 94,
        "69": 91,
        "70": 27,
        "71": 143,
        "72": 187,
        "73": 175,
        "74": 57,
        "75": 25,
        "76": 58,
        "77": 80,
        "78": 168,
        "79": 174,
        "80": 230,
        "81": 51,
        "82": 98,
        "83": 105,
        "84": 136,
        "85": 140,
        "86": 39,
        "87": 115,
        "88": 60,
        "89": 23,
        "90": 111,
        "91": 151,
        "92": 253,
        "93": 84,
        "94": 24,
        "95": 121,
        "96": 175,
        "97": 38,
        "98": 200,
        "99": 147,
        "100": 34,
        "101": 232,
        "102": 5,
        "103": 219,
        "104": 252,
        "105": 239,
        "106": 27,
        "107": 86,
        "108": 81,
        "109": 119,
        "110": 134,
        "111": 207,
        "112": 72,
        "113": 2,
        "114": 132,
        "115": 253,
        "116": 198,
        "117": 91,
        "118": 163,
        "119": 131,
        "120": 162,
        "121": 57,
        "122": 121,
        "123": 244,
        "124": 154,
        "125": 146,
        "126": 86,
        "127": 191,
        "128": 5,
        "129": 22,
        "130": 231,
        "131": 101,
        "132": 186,
        "133": 199,
        "134": 204,
        "135": 115,
        "136": 115,
        "137": 25,
        "138": 234,
        "139": 208,
        "140": 67,
        "141": 18,
        "142": 119,
        "143": 169,
        "144": 2,
        "145": 31,
        "146": 222,
        "147": 221,
        "148": 72,
        "149": 230,
        "150": 29,
        "151": 109,
        "152": 143,
        "153": 49,
        "154": 218,
        "155": 192,
        "156": 253,
        "157": 100,
        "158": 200,
        "159": 154,
        "160": 133,
        "161": 8,
        "162": 75,
        "163": 122,
        "164": 98,
        "165": 62,
        "166": 149,
        "167": 162,
        "168": 6,
        "169": 17,
        "170": 140,
        "171": 162,
        "172": 145,
        "173": 6,
        "174": 194,
        "175": 123,
        "176": 175,
        "177": 220,
        "178": 244,
        "179": 176,
        "180": 252,
        "181": 118,
        "182": 195,
        "183": 211,
        "184": 59,
        "185": 215,
        "186": 215,
        "187": 205,
        "188": 74,
        "189": 241,
        "190": 155,
        "191": 204,
        "192": 42,
        "193": 85,
        "194": 209,
        "195": 130,
        "196": 19,
        "197": 27,
        "198": 22,
        "199": 170,
        "200": 116,
        "201": 94,
        "202": 221,
        "203": 174,
        "204": 242,
        "205": 22,
        "206": 45,
        "207": 149,
        "208": 102,
        "209": 47,
        "210": 58,
        "211": 190,
        "212": 120,
        "213": 180,
        "214": 34,
        "215": 223,
        "216": 239,
        "217": 48,
        "218": 221,
        "219": 238,
        "220": 65,
        "221": 242,
        "222": 47,
        "223": 76,
        "224": 152,
        "225": 215,
        "226": 2,
        "227": 59,
        "228": 9,
        "229": 1,
        "230": 212,
        "231": 227,
        "232": 31,
        "233": 223,
        "234": 167,
        "235": 22,
        "236": 70,
        "237": 73,
        "238": 145,
        "239": 251,
        "240": 70,
        "241": 92,
        "242": 252,
        "243": 157,
        "244": 246,
        "245": 249,
        "246": 222,
        "247": 140,
        "248": 165,
        "249": 27,
        "250": 109,
        "251": 51,
        "252": 82,
        "253": 98,
        "254": 45,
        "255": 208,
        "256": 186,
        "257": 189,
        "258": 25,
        "259": 23,
        "260": 79,
        "261": 150,
        "262": 24,
        "263": 49,
        "264": 89,
        "265": 9,
        "266": 7,
        "267": 70,
        "268": 194,
        "269": 74,
        "270": 169,
        "271": 250,
        "272": 246,
        "273": 37,
        "274": 244,
        "275": 20,
        "276": 147,
        "277": 230,
        "278": 35,
        "279": 222,
        "280": 6,
        "281": 182,
        "282": 208,
        "283": 48,
        "284": 96,
        "285": 50,
        "286": 62,
        "287": 0,
        "288": 156,
        "289": 166,
        "290": 122,
        "291": 19,
        "292": 69,
        "293": 62,
        "294": 172,
        "295": 164,
        "296": 55,
        "297": 194,
        "298": 181,
        "299": 203,
        "300": 142,
        "301": 113,
        "302": 36,
        "303": 50,
        "304": 248,
        "305": 32,
        "306": 126,
        "307": 188,
        "308": 89,
        "309": 11,
        "310": 225,
        "311": 125,
        "312": 133,
        "313": 60,
        "314": 175,
        "315": 235,
        "316": 110,
        "317": 17,
        "318": 75,
        "319": 248,
        "320": 72,
        "321": 66,
        "322": 144,
        "323": 190,
        "324": 200,
        "325": 50,
        "326": 35,
        "327": 75,
        "328": 217,
        "329": 80,
        "330": 209,
        "331": 236,
        "332": 121,
        "333": 99,
        "334": 225,
        "335": 180,
        "336": 77,
        "337": 148,
        "338": 129,
        "339": 75,
        "340": 196,
        "341": 123,
        "342": 249,
        "343": 90,
        "344": 49,
        "345": 219,
        "346": 68,
        "347": 228,
        "348": 240,
        "349": 243,
        "350": 115,
        "351": 160,
        "352": 42,
        "353": 73,
        "354": 245,
        "355": 37,
        "356": 227,
        "357": 172,
        "358": 36,
        "359": 6,
        "360": 178,
        "361": 176,
        "362": 230,
        "363": 200,
        "364": 142,
        "365": 96,
        "366": 28,
        "367": 77,
        "368": 179,
        "369": 113,
        "370": 191,
        "371": 15,
        "372": 14,
        "373": 133,
        "374": 16,
        "375": 8,
        "376": 80,
        "377": 94,
        "378": 19,
        "379": 208,
        "380": 233,
        "381": 112,
        "382": 195,
        "383": 241,
        "384": 91,
        "385": 73,
        "386": 143,
        "387": 214,
        "388": 97,
        "389": 130,
        "390": 215,
        "391": 245,
        "392": 227,
        "393": 118,
        "394": 102,
        "395": 148,
        "396": 240,
        "397": 176,
        "398": 129,
        "399": 197,
        "400": 18,
        "401": 81,
        "402": 160,
        "403": 85,
        "404": 176,
        "405": 107,
        "406": 233,
        "407": 5,
        "408": 143,
        "409": 92,
        "410": 27,
        "411": 200,
        "412": 126,
        "413": 136,
        "414": 113,
        "415": 104,
        "416": 223,
        "417": 148,
        "418": 252,
        "419": 177,
        "420": 31,
        "421": 69,
        "422": 81,
        "423": 247,
        "424": 8,
        "425": 128,
        "426": 8,
        "427": 140,
        "428": 115,
        "429": 10,
        "430": 182,
        "431": 136,
        "432": 231,
        "433": 90,
        "434": 205,
        "435": 233,
        "436": 125,
        "437": 60,
        "438": 139,
        "439": 228,
        "440": 39,
        "441": 157,
        "442": 249,
        "443": 238,
        "444": 132,
        "445": 4,
        "446": 125,
        "447": 50,
        "448": 143,
        "449": 56,
        "450": 171,
        "451": 142,
        "452": 156,
        "453": 106,
        "454": 119,
        "455": 241,
        "456": 168,
        "457": 131,
        "458": 70,
        "459": 247,
        "460": 36,
        "461": 62,
        "462": 115,
        "463": 123,
        "464": 62,
        "465": 242,
        "466": 17,
        "467": 251,
        "468": 23,
        "469": 209,
        "470": 136,
        "471": 124,
        "472": 70,
        "473": 162,
        "474": 226,
        "475": 91,
        "476": 233,
        "477": 199,
        "478": 114,
        "479": 122,
        "480": 67,
        "481": 95,
        "482": 77,
        "483": 181,
        "484": 171,
        "485": 145,
        "486": 36,
        "487": 196,
        "488": 197,
        "489": 21,
        "490": 91,
        "491": 103,
        "492": 68,
        "493": 13,
        "494": 132,
        "495": 84,
        "496": 194,
        "497": 120,
        "498": 151,
        "499": 18,
        "500": 231,
        "501": 125,
        "502": 5,
        "503": 116,
        "504": 116,
        "505": 251,
        "506": 173,
        "507": 161,
        "508": 213,
        "509": 198,
        "510": 148,
        "511": 84,
        "512": 190,
        "513": 3,
        "514": 115,
        "515": 2,
        "516": 30,
        "517": 118,
        "518": 167,
        "519": 111,
        "520": 5,
        "521": 42,
        "522": 184,
        "523": 61,
        "524": 117,
        "525": 82,
        "526": 37,
        "527": 156,
        "528": 124,
        "529": 49,
        "530": 241,
        "531": 104,
        "532": 37,
        "533": 24,
        "534": 123,
        "535": 139,
        "536": 252,
        "537": 168,
        "538": 197,
        "539": 240,
        "540": 215,
        "541": 139,
        "542": 4,
        "543": 172,
        "544": 25,
        "545": 80,
        "546": 220,
        "547": 78,
        "548": 81,
        "549": 180,
        "550": 42,
        "551": 137,
        "552": 255,
        "553": 13,
        "554": 36,
        "555": 5,
        "556": 247,
        "557": 9,
        "558": 97,
        "559": 101,
        "560": 56,
        "561": 223,
        "562": 247,
        "563": 95,
        "564": 97,
        "565": 105,
        "566": 144,
        "567": 123,
        "568": 46,
        "569": 110,
        "570": 161,
        "571": 228,
        "572": 153,
        "573": 251,
        "574": 23,
        "575": 203,
        "576": 224,
        "577": 77,
        "578": 212,
        "579": 224,
        "580": 227,
        "581": 243,
        "582": 133,
        "583": 91,
        "584": 150,
        "585": 92,
        "586": 218,
        "587": 181,
        "588": 213,
        "589": 77,
        "590": 74,
        "591": 70,
        "592": 5,
        "593": 2,
        "594": 2,
        "595": 153,
        "596": 96,
        "597": 144,
        "598": 10,
        "599": 113,
        "600": 251,
        "601": 149,
        "602": 20,
        "603": 5,
        "604": 124,
        "605": 63,
        "606": 177,
        "607": 216,
        "608": 0,
        "609": 141,
        "610": 111,
        "611": 225,
        "612": 188,
        "613": 240,
        "614": 3,
        "615": 117,
        "616": 164,
        "617": 248,
        "618": 251,
        "619": 23,
        "620": 175,
        "621": 106,
        "622": 200,
        "623": 173,
        "624": 43,
        "625": 172,
        "626": 131,
        "627": 65,
        "628": 29,
        "629": 218,
        "630": 136,
        "631": 101,
        "632": 30,
        "633": 129,
        "634": 236,
        "635": 23,
        "636": 41,
        "637": 245,
        "638": 74,
        "639": 50,
        "640": 89,
        "641": 51,
        "642": 28,
        "643": 253,
        "644": 147,
        "645": 4,
        "646": 193,
        "647": 56,
        "648": 96,
        "649": 14,
        "650": 106,
        "651": 178,
        "652": 153,
        "653": 6,
        "654": 237,
        "655": 205,
        "656": 96,
        "657": 87,
        "658": 93,
        "659": 108,
        "660": 31,
        "661": 103,
        "662": 237,
        "663": 127,
        "664": 57,
        "665": 27,
        "666": 71,
        "667": 149,
        "668": 138,
        "669": 62,
        "670": 161,
        "671": 126,
        "672": 71,
        "673": 50,
        "674": 83,
        "675": 30,
        "676": 61,
        "677": 164,
        "678": 69,
        "679": 72,
        "680": 226,
        "681": 117,
        "682": 121,
        "683": 6,
        "684": 171,
        "685": 98,
        "686": 238,
        "687": 51,
        "688": 210,
        "689": 83,
        "690": 40,
        "691": 32,
        "692": 157,
        "693": 60,
        "694": 249,
        "695": 18,
        "696": 250,
        "697": 76,
        "698": 182,
        "699": 168,
        "700": 49,
        "701": 192,
        "702": 64,
        "703": 73,
        "704": 253,
        "705": 246,
        "706": 158,
        "707": 184,
        "708": 65,
        "709": 154,
        "710": 194,
        "711": 142,
        "712": 124,
        "713": 242,
        "714": 31,
        "715": 20,
        "716": 109,
        "717": 112,
        "718": 61,
        "719": 76,
        "720": 130,
        "721": 129,
        "722": 108,
        "723": 226,
        "724": 180,
        "725": 238,
        "726": 161,
        "727": 86,
        "728": 22,
        "729": 58,
        "730": 190,
        "731": 88,
        "732": 228,
        "733": 41,
        "734": 9,
        "735": 124,
        "736": 128,
        "737": 189,
        "738": 106,
        "739": 199,
        "740": 132,
        "741": 32,
        "742": 1,
        "743": 55,
        "744": 244,
        "745": 226,
        "746": 40,
        "747": 239,
        "748": 158,
        "749": 210,
        "750": 203,
        "751": 38,
        "752": 13,
        "753": 143,
        "754": 201,
        "755": 166,
        "756": 112,
        "757": 23,
        "758": 15,
        "759": 164,
        "760": 88,
        "761": 118,
        "762": 209,
        "763": 117,
        "764": 84,
        "765": 49,
        "766": 76,
        "767": 115,
        "768": 175,
        "769": 169,
        "770": 32,
        "771": 53,
        "772": 213,
        "773": 130,
        "774": 46,
        "775": 168,
        "776": 140,
        "777": 190,
        "778": 150,
        "779": 143,
        "780": 109,
        "781": 244,
        "782": 14,
        "783": 29,
        "784": 103,
        "785": 58,
        "786": 71,
        "787": 25,
        "788": 80,
        "789": 111,
        "790": 198,
        "791": 0,
        "792": 168,
        "793": 52,
        "794": 117,
        "795": 208,
        "796": 249,
        "797": 93,
        "798": 145,
        "799": 171,
        "800": 143,
        "801": 61,
        "802": 74,
        "803": 100,
        "804": 251,
        "805": 180,
        "806": 189,
        "807": 111,
        "808": 64,
        "809": 205,
        "810": 251,
        "811": 73,
        "812": 169,
        "813": 133,
        "814": 254,
        "815": 202,
        "816": 115,
        "817": 218,
        "818": 186,
        "819": 150,
        "820": 58,
        "821": 195,
        "822": 253,
        "823": 114,
        "824": 123,
        "825": 179,
        "826": 210,
        "827": 198,
        "828": 37,
        "829": 42,
        "830": 24,
        "831": 145,
        "832": 249,
        "833": 20,
        "834": 245,
        "835": 230,
        "836": 161,
        "837": 55,
        "838": 255,
        "839": 49,
        "840": 122,
        "841": 200,
        "842": 89,
        "843": 190,
        "844": 122,
        "845": 208,
        "846": 136,
        "847": 41,
        "848": 54,
        "849": 11,
        "850": 121,
        "851": 31,
        "852": 19,
        "853": 185,
        "854": 50,
        "855": 122,
        "856": 244,
        "857": 232,
        "858": 106,
        "859": 122,
        "860": 144,
        "861": 30,
        "862": 146,
        "863": 148,
        "864": 179,
        "865": 119,
        "866": 147,
        "867": 222,
        "868": 89,
        "869": 51,
        "870": 76,
        "871": 70,
        "872": 14,
        "873": 156,
        "874": 91,
        "875": 240,
        "876": 35,
        "877": 155,
        "878": 170,
        "879": 157,
        "880": 64,
        "881": 224,
        "882": 77,
        "883": 94,
        "884": 88,
        "885": 166,
        "886": 127,
        "887": 225,
        "888": 75,
        "889": 17,
        "890": 171,
        "891": 214,
        "892": 184,
        "893": 243,
        "894": 147,
        "895": 163,
        "896": 34,
        "897": 164,
        "898": 250,
        "899": 48,
        "900": 5,
        "901": 60,
        "902": 21,
        "903": 67,
        "904": 50,
        "905": 45,
        "906": 64,
        "907": 240,
        "908": 176,
        "909": 235,
        "910": 14,
        "911": 33,
        "912": 184,
        "913": 171,
        "914": 182,
        "915": 194,
        "916": 158,
        "917": 200,
        "918": 57,
        "919": 129,
        "920": 170,
        "921": 201,
        "922": 1,
        "923": 146,
        "924": 162,
        "925": 148,
        "926": 167,
        "927": 242,
        "928": 162,
        "929": 52,
        "930": 21,
        "931": 75,
        "932": 86,
        "933": 133,
        "934": 184,
        "935": 229,
        "936": 72,
        "937": 42,
        "938": 115,
        "939": 2,
        "940": 193,
        "941": 242,
        "942": 221,
        "943": 176,
        "944": 239,
        "945": 252,
        "946": 59,
        "947": 52,
        "948": 245,
        "949": 226,
        "950": 231,
        "951": 92,
        "952": 13,
        "953": 207,
        "954": 196,
        "955": 160,
        "956": 17,
        "957": 44,
        "958": 108,
        "959": 7,
        "960": 225,
        "961": 113,
        "962": 161,
        "963": 34,
        "964": 0,
        "965": 105,
        "966": 226,
        "967": 72,
        "968": 90,
        "969": 184,
        "970": 243,
        "971": 30,
        "972": 122,
        "973": 153,
        "974": 219,
        "975": 64,
        "976": 183,
        "977": 119,
        "978": 53,
        "979": 60,
        "980": 50,
        "981": 206,
        "982": 161,
        "983": 201,
        "984": 156,
        "985": 49,
        "986": 38,
        "987": 219,
        "988": 209,
        "989": 209,
        "990": 34,
        "991": 63,
        "992": 56,
        "993": 24,
        "994": 90,
        "995": 11,
        "996": 158,
        "997": 101,
        "998": 25,
        "999": 69,
        "1000": 201,
        "1001": 175,
        "1002": 178,
        "1003": 215,
        "1004": 59,
        "1005": 64,
        "1006": 106,
        "1007": 34,
        "1008": 132,
        "1009": 154,
        "1010": 100,
        "1011": 28,
        "1012": 187,
        "1013": 128,
        "1014": 251,
        "1015": 162,
        "1016": 118,
        "1017": 1,
        "1018": 35,
        "1019": 156,
        "1020": 201,
        "1021": 142,
        "1022": 131,
        "1023": 139,
        "1024": 230,
        "1025": 151,
        "1026": 171,
        "1027": 119,
        "1028": 197,
        "1029": 50,
        "1030": 249,
        "1031": 149,
        "1032": 118,
        "1033": 0,
        "1034": 97,
        "1035": 31,
        "1036": 57,
        "1037": 34,
        "1038": 244,
        "1039": 2,
        "1040": 96,
        "1041": 28,
        "1042": 87,
        "1043": 72,
        "1044": 244,
        "1045": 130,
        "1046": 160,
        "1047": 179,
        "1048": 221,
        "1049": 170,
        "1050": 179,
        "1051": 70,
        "1052": 242,
        "1053": 186,
        "1054": 182,
        "1055": 98,
        "1056": 154,
        "1057": 161,
        "1058": 91,
        "1059": 195,
        "1060": 161,
        "1061": 49,
        "1062": 200,
        "1063": 33,
        "1064": 169,
        "1065": 61,
        "1066": 188,
        "1067": 195,
        "1068": 5,
        "1069": 57,
        "1070": 22,
        "1071": 231,
        "1072": 94,
        "1073": 184,
        "1074": 247,
        "1075": 233,
        "1076": 196,
        "1077": 190,
        "1078": 217,
        "1079": 104,
        "1080": 114,
        "1081": 83,
        "1082": 248,
        "1083": 128,
        "1084": 84,
        "1085": 196,
        "1086": 98,
        "1087": 213,
        "1088": 236,
        "1089": 60,
        "1090": 101,
        "1091": 2,
        "1092": 250,
        "1093": 59,
        "1094": 72,
        "1095": 145,
        "1096": 156,
        "1097": 192,
        "1098": 44,
        "1099": 9,
        "1100": 226,
        "1101": 229,
        "1102": 191,
        "1103": 134,
        "1104": 251,
        "1105": 12,
        "1106": 141,
        "1107": 133,
        "1108": 30,
        "1109": 201,
        "1110": 38,
        "1111": 210,
        "1112": 172,
        "1113": 120,
        "1114": 14,
        "1115": 117,
        "1116": 148,
        "1117": 170,
        "1118": 110,
        "1119": 29,
        "1120": 66,
        "1121": 44,
        "1122": 127,
        "1123": 70,
        "1124": 136,
        "1125": 97,
        "1126": 239,
        "1127": 147,
        "1128": 125,
        "1129": 194,
        "1130": 237,
        "1131": 14,
        "1132": 255,
        "1133": 17,
        "1134": 140,
        "1135": 214,
        "1136": 198,
        "1137": 43,
        "1138": 146,
        "1139": 226,
        "1140": 158,
        "1141": 229,
        "1142": 186,
        "1143": 121,
        "1144": 168,
        "1145": 159,
        "1146": 46,
        "1147": 251,
        "1148": 97,
        "1149": 86,
        "1150": 128,
        "1151": 197,
        "1152": 53,
        "1153": 131,
        "1154": 216,
        "1155": 239,
        "1156": 7,
        "1157": 23,
        "1158": 225,
        "1159": 141,
        "1160": 228,
        "1161": 188,
        "1162": 85,
        "1163": 35,
        "1164": 74,
        "1165": 26,
        "1166": 195,
        "1167": 237,
        "1168": 251,
        "1169": 139,
        "1170": 121,
        "1171": 12,
        "1172": 224,
        "1173": 238,
        "1174": 168,
        "1175": 222,
        "1176": 122,
        "1177": 222,
        "1178": 124,
        "1179": 118,
        "1180": 142,
        "1181": 199,
        "1182": 77,
        "1183": 135,
        "1184": 110,
        "1185": 85,
        "1186": 234,
        "1187": 89,
        "1188": 115,
        "1189": 218,
        "1190": 25,
        "1191": 140,
        "1192": 183,
        "1193": 132,
        "1194": 238,
        "1195": 168,
        "1196": 2,
        "1197": 68,
        "1198": 172,
        "1199": 90,
        "1200": 21,
        "1201": 161,
        "1202": 111,
        "1203": 30,
        "1204": 223,
        "1205": 127,
        "1206": 113,
        "1207": 134,
        "1208": 10,
        "1209": 92,
        "1210": 91,
        "1211": 78,
        "1212": 238,
        "1213": 34,
        "1214": 52,
        "1215": 14,
        "1216": 63,
        "1217": 244,
        "1218": 203,
        "1219": 91,
        "1220": 136,
        "1221": 82,
        "1222": 105,
        "1223": 139,
        "1224": 129,
        "1225": 191,
        "1226": 78,
        "1227": 234,
        "1228": 68,
        "1229": 70,
        "1230": 230,
        "1231": 252,
        "1232": 160,
        "1233": 204,
        "1234": 232,
        "1235": 187,
        "1236": 32,
        "1237": 61,
        "1238": 247,
        "1239": 158,
        "1240": 192,
        "1241": 242,
        "1242": 62,
        "1243": 160,
        "1244": 116,
        "1245": 145,
        "1246": 201,
        "1247": 66,
        "1248": 50,
        "1249": 126,
        "1250": 143,
        "1251": 146,
        "1252": 150,
        "1253": 224,
        "1254": 0,
        "1255": 245,
        "1256": 137,
        "1257": 106,
        "1258": 25,
        "1259": 68,
        "1260": 226,
        "1261": 20,
        "1262": 80,
        "1263": 175,
        "1264": 215,
        "1265": 155,
        "1266": 83,
        "1267": 141,
        "1268": 21,
        "1269": 99,
        "1270": 189,
        "1271": 210,
        "1272": 93,
        "1273": 46,
        "1274": 212,
        "1275": 189,
        "1276": 94,
        "1277": 71,
        "1278": 82,
        "1279": 31,
        "1280": 215,
        "1281": 126,
        "1282": 106,
        "1283": 218,
        "1284": 73,
        "1285": 84,
        "1286": 123,
        "1287": 54,
        "1288": 100,
        "1289": 104,
        "1290": 17,
        "1291": 67,
        "1292": 27,
        "1293": 46,
        "1294": 233,
        "1295": 188,
        "1296": 130,
        "1297": 248,
        "1298": 177,
        "1299": 142,
        "1300": 113,
        "1301": 229,
        "1302": 251,
        "1303": 143,
        "1304": 221,
        "1305": 182,
        "1306": 166,
        "1307": 252,
        "1308": 33,
        "1309": 222,
        "1310": 97,
        "1311": 180,
        "1312": 169,
        "1313": 166,
        "1314": 204,
        "1315": 188,
        "1316": 209,
        "1317": 83,
        "1318": 159,
        "1319": 198,
        "1320": 204,
        "1321": 118,
        "1322": 9,
        "1323": 26,
        "1324": 178,
        "1325": 203,
        "1326": 177,
        "1327": 195,
        "1328": 239,
        "1329": 140,
        "1330": 23,
        "1331": 19,
        "1332": 91,
        "1333": 113,
        "1334": 187,
        "1335": 176,
        "1336": 245,
        "1337": 214,
        "1338": 210,
        "1339": 174,
        "1340": 0,
        "1341": 46,
        "1342": 208,
        "1343": 193,
        "1344": 49,
        "1345": 153,
        "1346": 126,
        "1347": 80,
        "1348": 51,
        "1349": 63,
        "1350": 84,
        "1351": 198,
        "1352": 88,
        "1353": 163,
        "1354": 243,
        "1355": 151,
        "1356": 109,
        "1357": 159,
        "1358": 77,
        "1359": 231,
        "1360": 115,
        "1361": 144,
        "1362": 26,
        "1363": 87,
        "1364": 201,
        "1365": 10,
        "1366": 211,
        "1367": 223,
        "1368": 27,
        "1369": 97,
        "1370": 141,
        "1371": 228,
        "1372": 174,
        "1373": 117,
        "1374": 23,
        "1375": 200,
        "1376": 4,
        "1377": 227,
        "1378": 165,
        "1379": 151,
        "1380": 243,
        "1381": 150,
        "1382": 32,
        "1383": 158,
        "1384": 248,
        "1385": 222,
        "1386": 164,
        "1387": 112,
        "1388": 111,
        "1389": 1,
        "1390": 142,
        "1391": 106,
        "1392": 183,
        "1393": 157,
        "1394": 212,
        "1395": 235,
        "1396": 144,
        "1397": 85,
        "1398": 112,
        "1399": 17,
        "1400": 6,
        "1401": 12,
        "1402": 29,
        "1403": 206,
        "1404": 220,
        "1405": 231,
        "1406": 154,
        "1407": 25,
        "1408": 105,
        "1409": 19,
        "1410": 101,
        "1411": 78,
        "1412": 3,
        "1413": 224,
        "1414": 79,
        "1415": 75,
        "1416": 251,
        "1417": 244,
        "1418": 183,
        "1419": 220,
        "1420": 176,
        "1421": 54,
        "1422": 73,
        "1423": 17,
        "1424": 201,
        "1425": 116,
        "1426": 191,
        "1427": 83,
        "1428": 87,
        "1429": 193,
        "1430": 69,
        "1431": 7,
        "1432": 84,
        "1433": 71,
        "1434": 249,
        "1435": 103,
        "1436": 183,
        "1437": 158,
        "1438": 146,
        "1439": 165,
        "1440": 247,
        "1441": 87,
        "1442": 87,
        "1443": 98,
        "1444": 222,
        "1445": 221,
        "1446": 210,
        "1447": 137,
        "1448": 146,
        "1449": 77,
        "1450": 68,
        "1451": 224,
        "1452": 59,
        "1453": 112,
        "1454": 100,
        "1455": 96,
        "1456": 251,
        "1457": 180,
        "1458": 152,
        "1459": 243,
        "1460": 9,
        "1461": 16,
        "1462": 85,
        "1463": 237,
        "1464": 228,
        "1465": 240,
        "1466": 233,
        "1467": 164,
        "1468": 18,
        "1469": 14,
        "1470": 66,
        "1471": 48,
        "1472": 219,
        "1473": 104,
        "1474": 90,
        "1475": 190,
        "1476": 245,
        "1477": 226,
        "1478": 9,
        "1479": 0,
        "1480": 181,
        "1481": 35,
        "1482": 30,
        "1483": 55,
        "1484": 153,
        "1485": 188,
        "1486": 47,
        "1487": 208,
        "1488": 133,
        "1489": 230,
        "1490": 198,
        "1491": 124,
        "1492": 173,
        "1493": 131,
        "1494": 56,
        "1495": 121,
        "1496": 246,
        "1497": 80,
        "1498": 253,
        "1499": 174,
        "1500": 228,
        "1501": 203,
        "1502": 123,
        "1503": 126,
        "1504": 195,
        "1505": 161,
        "1506": 50,
        "1507": 255,
        "1508": 9,
        "1509": 171,
        "1510": 99,
        "1511": 247,
        "1512": 243,
        "1513": 198,
        "1514": 252,
        "1515": 112,
        "1516": 148,
        "1517": 206,
        "1518": 226,
        "1519": 196,
        "1520": 185,
        "1521": 96,
        "1522": 0,
        "1523": 38,
        "1524": 138,
        "1525": 200,
        "1526": 148,
        "1527": 95,
        "1528": 255,
        "1529": 27,
        "1530": 25,
        "1531": 60,
        "1532": 147,
        "1533": 235,
        "1534": 146,
        "1535": 106,
        "1536": 251,
        "1537": 38,
        "1538": 50,
        "1539": 75,
        "1540": 54,
        "1541": 121,
        "1542": 70,
        "1543": 168,
        "1544": 186,
        "1545": 222,
        "1546": 107,
        "1547": 1,
        "1548": 73,
        "1549": 56,
        "1550": 189,
        "1551": 252,
        "1552": 169,
        "1553": 130,
        "1554": 0,
        "1555": 139,
        "1556": 40,
        "1557": 33,
        "1558": 186,
        "1559": 225,
        "1560": 117,
        "1561": 23,
        "1562": 114,
        "1563": 73,
        "1564": 85,
        "1565": 176,
        "1566": 26,
        "1567": 245,
        "1568": 184,
        "1569": 146,
        "1570": 155,
        "1571": 116,
        "1572": 191,
        "1573": 24,
        "1574": 0,
        "1575": 92,
        "1576": 76,
        "1577": 67,
        "1578": 16,
        "1579": 216,
        "1580": 99,
        "1581": 151,
        "1582": 133,
        "1583": 105,
        "1584": 186,
        "1585": 15,
        "1586": 181,
        "1587": 166,
        "1588": 17,
        "1589": 61,
        "1590": 241,
        "1591": 50,
        "1592": 95,
        "1593": 180,
        "1594": 63,
        "1595": 85,
        "1596": 156,
        "1597": 201,
        "1598": 173,
        "1599": 71,
        "1600": 85,
        "1601": 192,
        "1602": 144,
        "1603": 196,
        "1604": 119,
        "1605": 188,
        "1606": 211,
        "1607": 232,
        "1608": 238,
        "1609": 98,
        "1610": 77,
        "1611": 10,
        "1612": 5,
        "1613": 34,
        "1614": 235,
        "1615": 194,
        "1616": 224,
        "1617": 112,
        "1618": 127,
        "1619": 144,
        "1620": 137,
        "1621": 59,
        "1622": 142,
        "1623": 198,
        "1624": 173,
        "1625": 132,
        "1626": 247,
        "1627": 218,
        "1628": 246,
        "1629": 92,
        "1630": 80,
        "1631": 132,
        "1632": 50,
        "1633": 95,
        "1634": 182,
        "1635": 240,
        "1636": 168,
        "1637": 226,
        "1638": 130,
        "1639": 27,
        "1640": 137,
        "1641": 137,
        "1642": 213,
        "1643": 94,
        "1644": 117,
        "1645": 152,
        "1646": 255,
        "1647": 141,
        "1648": 209,
        "1649": 145,
        "1650": 45,
        "1651": 61,
        "1652": 87,
        "1653": 171,
        "1654": 195,
        "1655": 207,
        "1656": 236,
        "1657": 31,
        "1658": 143,
        "1659": 199,
        "1660": 82,
        "1661": 10,
        "1662": 118,
        "1663": 93,
        "1664": 235,
        "1665": 135,
        "1666": 235,
        "1667": 129,
        "1668": 64,
        "1669": 222,
        "1670": 1,
        "1671": 88,
        "1672": 182,
        "1673": 133,
        "1674": 158,
        "1675": 102,
        "1676": 97,
        "1677": 127,
        "1678": 132,
        "1679": 82,
        "1680": 219,
        "1681": 44,
        "1682": 45,
        "1683": 159,
        "1684": 36,
        "1685": 7,
        "1686": 46,
        "1687": 168,
        "1688": 126,
        "1689": 165,
        "1690": 212,
        "1691": 95,
        "1692": 245,
        "1693": 6,
        "1694": 97,
        "1695": 194,
        "1696": 38,
        "1697": 3,
        "1698": 172,
        "1699": 236,
        "1700": 242,
        "1701": 218,
        "1702": 243,
        "1703": 221,
        "1704": 139,
        "1705": 112,
        "1706": 92,
        "1707": 178,
        "1708": 60,
        "1709": 35,
        "1710": 40,
        "1711": 138,
        "1712": 221,
        "1713": 67,
        "1714": 131,
        "1715": 106,
        "1716": 27,
        "1717": 65,
        "1718": 24,
        "1719": 7,
        "1720": 250,
        "1721": 200,
        "1722": 31,
        "1723": 243,
        "1724": 131,
        "1725": 24,
        "1726": 31,
        "1727": 238,
        "1728": 33,
        "1729": 30,
        "1730": 131,
        "1731": 141,
        "1732": 160,
        "1733": 153,
        "1734": 48,
        "1735": 66,
        "1736": 243,
        "1737": 4,
        "1738": 68,
        "1739": 237,
        "1740": 129,
        "1741": 198,
        "1742": 136,
        "1743": 185,
        "1744": 211,
        "1745": 203,
        "1746": 97,
        "1747": 113,
        "1748": 121,
        "1749": 31,
        "1750": 223,
        "1751": 30,
        "1752": 245,
        "1753": 184,
        "1754": 173,
        "1755": 15,
        "1756": 76,
        "1757": 223,
        "1758": 189,
        "1759": 66,
        "1760": 40,
        "1761": 77,
        "1762": 31,
        "1763": 51,
        "1764": 119,
        "1765": 126,
        "1766": 24,
        "1767": 108,
        "1768": 117,
        "1769": 239,
        "1770": 234,
        "1771": 16,
        "1772": 46,
        "1773": 136,
        "1774": 159,
        "1775": 72,
        "1776": 166,
        "1777": 139,
        "1778": 250,
        "1779": 30,
        "1780": 181,
        "1781": 7,
        "1782": 212,
        "1783": 59,
        "1784": 108,
        "1785": 155,
        "1786": 221,
        "1787": 44,
        "1788": 212,
        "1789": 166,
        "1790": 209,
        "1791": 62,
        "1792": 18,
        "1793": 38,
        "1794": 54,
        "1795": 130,
        "1796": 196,
        "1797": 210,
        "1798": 154,
        "1799": 147,
        "1800": 86,
        "1801": 144,
        "1802": 32,
        "1803": 244,
        "1804": 175,
        "1805": 125,
        "1806": 149,
        "1807": 149,
        "1808": 136,
        "1809": 76,
        "1810": 4,
        "1811": 76,
        "1812": 1,
        "1813": 199,
        "1814": 169,
        "1815": 141,
        "1816": 229,
        "1817": 188,
        "1818": 113,
        "1819": 204,
        "1820": 21,
        "1821": 225,
        "1822": 204,
        "1823": 1,
        "1824": 90,
        "1825": 237,
        "1826": 62,
        "1827": 245,
        "1828": 125,
        "1829": 214,
        "1830": 177,
        "1831": 245,
        "1832": 30,
        "1833": 68,
        "1834": 162,
        "1835": 254,
        "1836": 152,
        "1837": 159,
        "1838": 150,
        "1839": 114,
        "1840": 46,
        "1841": 124,
        "1842": 19,
        "1843": 17,
        "1844": 213,
        "1845": 43,
        "1846": 195,
        "1847": 170,
        "1848": 15,
        "1849": 39,
        "1850": 37,
        "1851": 82,
        "1852": 2,
        "1853": 226,
        "1854": 45,
        "1855": 241,
        "1856": 158,
        "1857": 89,
        "1858": 132,
        "1859": 201,
        "1860": 76,
        "1861": 81,
        "1862": 77,
        "1863": 206,
        "1864": 108,
        "1865": 151,
        "1866": 95,
        "1867": 99,
        "1868": 112,
        "1869": 129,
        "1870": 81,
        "1871": 33,
        "1872": 92,
        "1873": 93,
        "1874": 125,
        "1875": 152,
        "1876": 27,
        "1877": 88,
        "1878": 136,
        "1879": 98,
        "1880": 33,
        "1881": 129,
        "1882": 209,
        "1883": 35,
        "1884": 68,
        "1885": 48,
        "1886": 171,
        "1887": 212,
        "1888": 243,
        "1889": 133,
        "1890": 9,
        "1891": 84,
        "1892": 53,
        "1893": 58,
        "1894": 17,
        "1895": 133,
        "1896": 100,
        "1897": 53,
        "1898": 129,
        "1899": 169,
        "1900": 235,
        "1901": 117,
        "1902": 15,
        "1903": 186,
        "1904": 212,
        "1905": 5,
        "1906": 199,
        "1907": 153,
        "1908": 82,
        "1909": 206,
        "1910": 126,
        "1911": 219,
        "1912": 235,
        "1913": 233,
        "1914": 75,
        "1915": 190,
        "1916": 26,
        "1917": 209,
        "1918": 59,
        "1919": 199,
        "1920": 69,
        "1921": 48,
        "1922": 189,
        "1923": 66,
        "1924": 178,
        "1925": 136,
        "1926": 161,
        "1927": 51,
        "1928": 72,
        "1929": 199,
        "1930": 190,
        "1931": 107,
        "1932": 149,
        "1933": 167,
        "1934": 44,
        "1935": 222,
        "1936": 196,
        "1937": 170,
        "1938": 100,
        "1939": 127,
        "1940": 182,
        "1941": 40,
        "1942": 178,
        "1943": 114,
        "1944": 71,
        "1945": 244,
        "1946": 94,
        "1947": 94,
        "1948": 168,
        "1949": 191,
        "1950": 20,
        "1951": 98,
        "1952": 117,
        "1953": 194,
        "1954": 52,
        "1955": 92,
        "1956": 25,
        "1957": 2,
        "1958": 50,
        "1959": 97,
        "1960": 120,
        "1961": 76,
        "1962": 13,
        "1963": 220,
        "1964": 91,
        "1965": 170,
        "1966": 72,
        "1967": 116,
        "1968": 157,
        "1969": 108,
        "1970": 7,
        "1971": 252,
        "1972": 58,
        "1973": 208,
        "1974": 67,
        "1975": 119,
        "1976": 160,
        "1977": 200,
        "1978": 184,
        "1979": 61,
        "1980": 95,
        "1981": 22,
        "1982": 95,
        "1983": 47,
        "1984": 69,
        "1985": 76,
        "1986": 95,
        "1987": 173,
        "1988": 174,
        "1989": 227,
        "1990": 195,
        "1991": 107,
        "1992": 140,
        "1993": 118,
        "1994": 56,
        "1995": 196,
        "1996": 82,
        "1997": 79,
        "1998": 202,
        "1999": 196,
        "2000": 23,
        "2001": 67,
        "2002": 205,
        "2003": 8,
        "2004": 13,
        "2005": 4,
        "2006": 90,
        "2007": 225,
        "2008": 40,
        "2009": 86,
        "2010": 210,
        "2011": 159,
        "2012": 226,
        "2013": 222,
        "2014": 183,
        "2015": 208,
        "2016": 23,
        "2017": 205,
        "2018": 115,
        "2019": 246,
        "2020": 43,
        "2021": 205,
        "2022": 165,
        "2023": 130,
        "2024": 147,
        "2025": 145,
        "2026": 191,
        "2027": 8,
        "2028": 40,
        "2029": 220,
        "2030": 86,
        "2031": 62,
        "2032": 71,
        "2033": 133,
        "2034": 142,
        "2035": 195,
        "2036": 253,
        "2037": 202,
        "2038": 189,
        "2039": 168,
        "2040": 244,
        "2041": 233,
        "2042": 158,
        "2043": 79,
        "2044": 110,
        "2045": 37,
        "2046": 109,
        "2047": 217,
        "2048": 178,
        "2049": 222,
        "2050": 248,
        "2051": 27,
        "2052": 95,
        "2053": 55,
        "2054": 149,
        "2055": 21,
        "2056": 57,
        "2057": 151,
        "2058": 144,
        "2059": 218,
        "2060": 212,
        "2061": 34,
        "2062": 71,
        "2063": 83,
        "2064": 52,
        "2065": 242,
        "2066": 55,
        "2067": 145,
        "2068": 72,
        "2069": 103,
        "2070": 44,
        "2071": 229,
        "2072": 240,
        "2073": 97,
        "2074": 136,
        "2075": 104,
        "2076": 52,
        "2077": 192,
        "2078": 44,
        "2079": 124,
        "2080": 53,
        "2081": 162,
        "2082": 56,
        "2083": 0,
        "2084": 230,
        "2085": 137,
        "2086": 173,
        "2087": 204,
        "2088": 69,
        "2089": 55,
        "2090": 77,
        "2091": 149,
        "2092": 168,
        "2093": 201,
        "2094": 190,
        "2095": 160,
        "2096": 231,
        "2097": 55,
        "2098": 188,
        "2099": 209,
        "2100": 7,
        "2101": 74,
        "2102": 243,
        "2103": 43,
        "2104": 7,
        "2105": 86,
        "2106": 25,
        "2107": 134,
        "2108": 60,
        "2109": 232,
        "2110": 156,
        "2111": 13,
        "2112": 229,
        "2113": 113,
        "2114": 222,
        "2115": 174,
        "2116": 70,
        "2117": 3,
        "2118": 146,
        "2119": 206,
        "2120": 103,
        "2121": 218,
        "2122": 21,
        "2123": 50,
        "2124": 46,
        "2125": 10,
        "2126": 80,
        "2127": 166,
        "2128": 89,
        "2129": 242,
        "2130": 92,
        "2131": 210,
        "2132": 22,
        "2133": 62,
        "2134": 69,
        "2135": 133,
        "2136": 201,
        "2137": 80,
        "2138": 106,
        "2139": 156,
        "2140": 223,
        "2141": 244,
        "2142": 4,
        "2143": 55,
        "2144": 2,
        "2145": 40,
        "2146": 136,
        "2147": 220,
        "2148": 220,
        "2149": 180,
        "2150": 196,
        "2151": 57,
        "2152": 130,
        "2153": 238,
        "2154": 146,
        "2155": 165,
        "2156": 204,
        "2157": 231,
        "2158": 49,
        "2159": 244,
        "2160": 136,
        "2161": 84,
        "2162": 255,
        "2163": 239,
        "2164": 183,
        "2165": 97,
        "2166": 41,
        "2167": 160,
        "2168": 97,
        "2169": 169,
        "2170": 106,
        "2171": 252,
        "2172": 12,
        "2173": 219,
        "2174": 54,
        "2175": 226,
        "2176": 205,
        "2177": 192,
        "2178": 226,
        "2179": 2,
        "2180": 176,
        "2181": 61,
        "2182": 49,
        "2183": 65,
        "2184": 51,
        "2185": 16,
        "2186": 144,
        "2187": 241,
        "2188": 28,
        "2189": 84,
        "2190": 222,
        "2191": 4,
        "2192": 254,
        "2193": 245,
        "2194": 74,
        "2195": 78,
        "2196": 39,
        "2197": 178,
        "2198": 152,
        "2199": 56,
        "2200": 136,
        "2201": 98,
        "2202": 119,
        "2203": 69,
        "2204": 230,
        "2205": 127,
        "2206": 105,
        "2207": 34,
        "2208": 132,
        "2209": 105,
        "2210": 5,
        "2211": 22,
        "2212": 165,
        "2213": 86,
        "2214": 227,
        "2215": 54,
        "2216": 44,
        "2217": 198,
        "2218": 128,
        "2219": 130,
        "2220": 29,
        "2221": 70,
        "2222": 46,
        "2223": 80,
        "2224": 3,
        "2225": 9,
        "2226": 173,
        "2227": 93,
        "2228": 83,
        "2229": 33,
        "2230": 84,
        "2231": 31,
        "2232": 50,
        "2233": 227,
        "2234": 185,
        "2235": 253,
        "2236": 108,
        "2237": 252,
        "2238": 112,
        "2239": 9,
        "2240": 36,
        "2241": 161,
        "2242": 124,
        "2243": 48,
        "2244": 124,
        "2245": 108,
        "2246": 131,
        "2247": 157,
        "2248": 10,
        "2249": 221,
        "2250": 28,
        "2251": 176,
        "2252": 73,
        "2253": 206,
        "2254": 220,
        "2255": 202,
        "2256": 195,
        "2257": 117,
        "2258": 207,
        "2259": 200,
        "2260": 132,
        "2261": 233,
        "2262": 215,
        "2263": 182,
        "2264": 162,
        "2265": 160,
        "2266": 6,
        "2267": 52,
        "2268": 60,
        "2269": 121,
        "2270": 69,
        "2271": 166,
        "2272": 190,
        "2273": 47,
        "2274": 127,
        "2275": 83,
        "2276": 163,
        "2277": 79,
        "2278": 151,
        "2279": 127,
        "2280": 141,
        "2281": 114,
        "2282": 95,
        "2283": 112,
        "2284": 166,
        "2285": 117,
        "2286": 70,
        "2287": 157,
        "2288": 21,
        "2289": 105,
        "2290": 143,
        "2291": 64,
        "2292": 197,
        "2293": 165,
        "2294": 36,
        "2295": 56,
        "2296": 114,
        "2297": 252,
        "2298": 247,
        "2299": 187,
        "2300": 90,
        "2301": 36,
        "2302": 36,
        "2303": 201,
        "2304": 252,
        "2305": 225,
        "2306": 119,
        "2307": 165,
        "2308": 188,
        "2309": 68,
        "2310": 113,
        "2311": 120,
        "2312": 28,
        "2313": 146,
        "2314": 240,
        "2315": 67,
        "2316": 182,
        "2317": 210,
        "2318": 247,
        "2319": 221,
        "2320": 34,
        "2321": 198,
        "2322": 239,
        "2323": 184,
        "2324": 107,
        "2325": 178,
        "2326": 182,
        "2327": 240,
        "2328": 5,
        "2329": 8,
        "2330": 109,
        "2331": 77,
        "2332": 216,
        "2333": 230,
        "2334": 215,
        "2335": 26,
        "2336": 163,
        "2337": 49,
        "2338": 111,
        "2339": 222,
        "2340": 205,
        "2341": 151,
        "2342": 155,
        "2343": 170,
        "2344": 109,
        "2345": 165,
        "2346": 176,
        "2347": 206,
        "2348": 180,
        "2349": 11,
        "2350": 1,
        "2351": 254,
        "2352": 194,
        "2353": 116,
        "2354": 18,
        "2355": 52,
        "2356": 58,
        "2357": 174,
        "2358": 237,
        "2359": 124,
        "2360": 211,
        "2361": 40,
        "2362": 252,
        "2363": 187,
        "2364": 3,
        "2365": 241,
        "2366": 214,
        "2367": 120,
        "2368": 254,
        "2369": 245,
        "2370": 223,
        "2371": 128,
        "2372": 138,
        "2373": 145,
        "2374": 26,
        "2375": 228,
        "2376": 254,
        "2377": 29,
        "2378": 162,
        "2379": 190,
        "2380": 44,
        "2381": 96,
        "2382": 197,
        "2383": 2,
        "2384": 163,
        "2385": 45,
        "2386": 143,
        "2387": 17,
        "2388": 229,
        "2389": 134,
        "2390": 27,
        "2391": 172,
        "2392": 254,
        "2393": 174,
        "2394": 245,
        "2395": 230,
        "2396": 75,
        "2397": 70,
        "2398": 252,
        "2399": 171,
        "2400": 130,
        "2401": 54,
        "2402": 8,
        "2403": 249,
        "2404": 221,
        "2405": 158,
        "2406": 54,
        "2407": 180,
        "2408": 202,
        "2409": 79,
        "2410": 37,
        "2411": 5,
        "2412": 103,
        "2413": 89,
        "2414": 188,
        "2415": 243,
        "2416": 198,
        "2417": 174,
        "2418": 164,
        "2419": 44,
        "2420": 161,
        "2421": 226,
        "2422": 182,
        "2423": 188,
        "2424": 246,
        "2425": 186,
        "2426": 51,
        "2427": 164,
        "2428": 58,
        "2429": 173,
        "2430": 95,
        "2431": 51,
        "2432": 202,
        "2433": 149,
        "2434": 70,
        "2435": 246,
        "2436": 226,
        "2437": 152,
        "2438": 95,
        "2439": 204,
        "2440": 222,
        "2441": 115,
        "2442": 9,
        "2443": 13,
        "2444": 69,
        "2445": 0,
        "2446": 145,
        "2447": 244,
        "2448": 196,
        "2449": 241,
        "2450": 24,
        "2451": 245,
        "2452": 77,
        "2453": 165,
        "2454": 59,
        "2455": 172,
        "2456": 61,
        "2457": 180,
        "2458": 1,
        "2459": 143,
        "2460": 49,
        "2461": 35,
        "2462": 138,
        "2463": 175,
        "2464": 109,
        "2465": 31,
        "2466": 164,
        "2467": 146,
        "2468": 100,
        "2469": 12,
        "2470": 35,
        "2471": 62,
        "2472": 22,
        "2473": 204,
        "2474": 1,
        "2475": 208,
        "2476": 231,
        "2477": 56,
        "2478": 216,
        "2479": 97,
        "2480": 186,
        "2481": 29,
        "2482": 207,
        "2483": 193,
        "2484": 121,
        "2485": 231,
        "2486": 169,
        "2487": 214,
        "2488": 245,
        "2489": 209,
        "2490": 197,
        "2491": 188,
        "2492": 254,
        "2493": 109,
        "2494": 69,
        "2495": 60,
        "2496": 158,
        "2497": 254,
        "2498": 35,
        "2499": 37,
        "2500": 1,
        "2501": 1,
        "2502": 16,
        "2503": 40,
        "2504": 238,
        "2505": 242,
        "2506": 162,
        "2507": 95,
        "2508": 1,
        "2509": 19,
        "2510": 81,
        "2511": 151,
        "2512": 12,
        "2513": 98,
        "2514": 10,
        "2515": 36,
        "2516": 92,
        "2517": 147,
        "2518": 25,
        "2519": 49,
        "2520": 232,
        "2521": 28,
        "2522": 26,
        "2523": 32,
        "2524": 214,
        "2525": 70,
        "2526": 115,
        "2527": 236,
        "2528": 88,
        "2529": 75,
        "2530": 104,
        "2531": 230,
        "2532": 52,
        "2533": 70,
        "2534": 195,
        "2535": 201,
        "2536": 8,
        "2537": 77,
        "2538": 192,
        "2539": 177,
        "2540": 229,
        "2541": 103,
        "2542": 237,
        "2543": 20,
        "2544": 77,
        "2545": 57,
        "2546": 56,
        "2547": 67,
        "2548": 220,
        "2549": 170,
        "2550": 99,
        "2551": 119,
        "2552": 110,
        "2553": 103,
        "2554": 94,
        "2555": 116,
        "2556": 121,
        "2557": 75,
        "2558": 227,
        "2559": 121,
        "2560": 87,
        "2561": 146,
        "2562": 9,
        "2563": 182,
        "2564": 196,
        "2565": 91,
        "2566": 162,
        "2567": 79,
        "2568": 27,
        "2569": 90,
        "2570": 96,
        "2571": 44,
        "2572": 119,
        "2573": 56,
        "2574": 214,
        "2575": 131,
        "2576": 19,
        "2577": 52,
        "2578": 211,
        "2579": 184,
        "2580": 110,
        "2581": 36,
        "2582": 221,
        "2583": 163,
        "2584": 10,
        "2585": 95,
        "2586": 170,
        "2587": 240,
        "2588": 156,
        "2589": 217,
        "2590": 243,
        "2591": 25,
        "2592": 129,
        "2593": 28,
        "2594": 169,
        "2595": 163,
        "2596": 203,
        "2597": 100,
        "2598": 180,
        "2599": 129,
        "2600": 106,
        "2601": 43,
        "2602": 63,
        "2603": 239,
        "2604": 98,
        "2605": 5,
        "2606": 217,
        "2607": 52,
        "2608": 124,
        "2609": 248,
        "2610": 152,
        "2611": 245,
        "2612": 155,
        "2613": 115,
        "2614": 240,
        "2615": 40,
        "2616": 17,
        "2617": 42,
        "2618": 164,
        "2619": 230,
        "2620": 172,
        "2621": 252,
        "2622": 150,
        "2623": 154,
        "2624": 120,
        "2625": 114,
        "2626": 42,
        "2627": 68,
        "2628": 26,
        "2629": 6,
        "2630": 178,
        "2631": 3,
        "2632": 122,
        "2633": 41,
        "2634": 253,
        "2635": 116,
        "2636": 251,
        "2637": 144,
        "2638": 16,
        "2639": 84,
        "2640": 226,
        "2641": 197,
        "2642": 174,
        "2643": 31,
        "2644": 134,
        "2645": 98,
        "2646": 34,
        "2647": 196,
        "2648": 216,
        "2649": 106,
        "2650": 96,
        "2651": 26,
        "2652": 48,
        "2653": 102,
        "2654": 178,
        "2655": 93,
        "2656": 203,
        "2657": 81,
        "2658": 49,
        "2659": 64,
        "2660": 55,
        "2661": 55,
        "2662": 79,
        "2663": 12,
        "2664": 155,
        "2665": 149,
        "2666": 86,
        "2667": 231,
        "2668": 177,
        "2669": 5,
        "2670": 133,
        "2671": 23,
        "2672": 225,
        "2673": 66,
        "2674": 180,
        "2675": 152,
        "2676": 241,
        "2677": 53,
        "2678": 112,
        "2679": 111,
        "2680": 189,
        "2681": 41,
        "2682": 196,
        "2683": 164,
        "2684": 7,
        "2685": 31,
        "2686": 143,
        "2687": 15,
        "2688": 122,
        "2689": 116,
        "2690": 35,
        "2691": 251,
        "2692": 232,
        "2693": 109,
        "2694": 200,
        "2695": 61,
        "2696": 28,
        "2697": 180,
        "2698": 194,
        "2699": 126,
        "2700": 167,
        "2701": 149,
        "2702": 160,
        "2703": 52,
        "2704": 1,
        "2705": 1,
        "2706": 249,
        "2707": 129,
        "2708": 40,
        "2709": 161,
        "2710": 195,
        "2711": 220,
        "2712": 248,
        "2713": 179,
        "2714": 118,
        "2715": 83,
        "2716": 121,
        "2717": 141,
        "2718": 62,
        "2719": 199,
        "2720": 101,
        "2721": 33,
        "2722": 118,
        "2723": 247,
        "2724": 7,
        "2725": 94,
        "2726": 48,
        "2727": 103,
        "2728": 194,
        "2729": 103,
        "2730": 137,
        "2731": 101,
        "2732": 170,
        "2733": 232,
        "2734": 16,
        "2735": 197,
        "2736": 36,
        "2737": 96,
        "2738": 199,
        "2739": 120,
        "2740": 163,
        "2741": 253,
        "2742": 192,
        "2743": 155,
        "2744": 42,
        "2745": 83,
        "2746": 39,
        "2747": 130,
        "2748": 146,
        "2749": 11,
        "2750": 247,
        "2751": 111,
        "2752": 8,
        "2753": 36,
        "2754": 147,
        "2755": 157,
        "2756": 7,
        "2757": 29,
        "2758": 243,
        "2759": 15,
        "2760": 135,
        "2761": 26,
        "2762": 87,
        "2763": 210,
        "2764": 12,
        "2765": 25,
        "2766": 192,
        "2767": 128,
        "2768": 115,
        "2769": 29,
        "2770": 167,
        "2771": 124,
        "2772": 78,
        "2773": 15,
        "2774": 19,
        "2775": 132,
        "2776": 108,
        "2777": 232,
        "2778": 196,
        "2779": 90,
        "2780": 171,
        "2781": 158,
        "2782": 9,
        "2783": 182,
        "2784": 60,
        "2785": 39,
        "2786": 182,
        "2787": 139,
        "2788": 239,
        "2789": 199,
        "2790": 120,
        "2791": 220,
        "2792": 216,
        "2793": 64,
        "2794": 128,
        "2795": 197,
        "2796": 183,
        "2797": 78,
        "2798": 209,
        "2799": 76,
        "2800": 218,
        "2801": 237,
        "2802": 83,
        "2803": 125,
        "2804": 176,
        "2805": 5,
        "2806": 148,
        "2807": 195,
        "2808": 14,
        "2809": 95,
        "2810": 209,
        "2811": 157,
        "2812": 189,
        "2813": 137,
        "2814": 116,
        "2815": 169,
        "2816": 11,
        "2817": 122,
        "2818": 198,
        "2819": 138,
        "2820": 124,
        "2821": 71,
        "2822": 77,
        "2823": 59,
        "2824": 133,
        "2825": 158,
        "2826": 7,
        "2827": 116,
        "2828": 48,
        "2829": 4,
        "2830": 53,
        "2831": 147,
        "2832": 247,
        "2833": 164,
        "2834": 26,
        "2835": 151,
        "2836": 49,
        "2837": 194,
        "2838": 71,
        "2839": 101,
        "2840": 172,
        "2841": 16,
        "2842": 144,
        "2843": 160,
        "2844": 70,
        "2845": 127,
        "2846": 2,
        "2847": 249,
        "2848": 100,
        "2849": 52,
        "2850": 237,
        "2851": 47,
        "2852": 245,
        "2853": 193,
        "2854": 179,
        "2855": 229,
        "2856": 231,
        "2857": 24,
        "2858": 36,
        "2859": 222,
        "2860": 95,
        "2861": 44,
        "2862": 26,
        "2863": 218,
        "2864": 47,
        "2865": 146,
        "2866": 230,
        "2867": 62,
        "2868": 137,
        "2869": 137,
        "2870": 134,
        "2871": 227,
        "2872": 202,
        "2873": 154,
        "2874": 213,
        "2875": 201,
        "2876": 19,
        "2877": 35,
        "2878": 72,
        "2879": 85,
        "2880": 164,
        "2881": 196,
        "2882": 248,
        "2883": 105,
        "2884": 71,
        "2885": 232,
        "2886": 198,
        "2887": 172,
        "2888": 242,
        "2889": 11,
        "2890": 140,
        "2891": 55,
        "2892": 246,
        "2893": 174,
        "2894": 197,
        "2895": 135,
        "2896": 71,
        "2897": 112,
        "2898": 99,
        "2899": 127,
        "2900": 215,
        "2901": 241,
        "2902": 52,
        "2903": 4,
        "2904": 111,
        "2905": 199,
        "2906": 201,
        "2907": 130,
        "2908": 54,
        "2909": 104,
        "2910": 129,
        "2911": 121,
        "2912": 116,
        "2913": 199,
        "2914": 236,
        "2915": 30,
        "2916": 57,
        "2917": 184,
        "2918": 190,
        "2919": 38,
        "2920": 218,
        "2921": 2,
        "2922": 105,
        "2923": 158,
        "2924": 34,
        "2925": 104,
        "2926": 148,
        "2927": 173,
        "2928": 139,
        "2929": 197,
        "2930": 185,
        "2931": 21,
        "2932": 159,
        "2933": 57,
        "2934": 152,
        "2935": 205,
        "2936": 98,
        "2937": 234,
        "2938": 222,
        "2939": 57,
        "2940": 116,
        "2941": 221,
        "2942": 195,
        "2943": 133,
        "2944": 20,
        "2945": 160,
        "2946": 220,
        "2947": 41,
        "2948": 45,
        "2949": 65,
        "2950": 196,
        "2951": 95,
        "2952": 162,
        "2953": 173,
        "2954": 141,
        "2955": 165,
        "2956": 206,
        "2957": 217,
        "2958": 6,
        "2959": 26,
        "2960": 244,
        "2961": 95,
        "2962": 83,
        "2963": 35,
        "2964": 21,
        "2965": 11,
        "2966": 189,
        "2967": 48,
        "2968": 148,
        "2969": 208,
        "2970": 146,
        "2971": 43,
        "2972": 194,
        "2973": 92,
        "2974": 60,
        "2975": 123,
        "2976": 212,
        "2977": 130,
        "2978": 172,
        "2979": 228,
        "2980": 186,
        "2981": 135,
        "2982": 33,
        "2983": 148,
        "2984": 19,
        "2985": 127,
        "2986": 105,
        "2987": 91,
        "2988": 214,
        "2989": 246,
        "2990": 168,
        "2991": 22,
        "2992": 123,
        "2993": 90,
        "2994": 168,
        "2995": 217,
        "2996": 4,
        "2997": 169,
        "2998": 87,
        "2999": 127,
        "3000": 71,
        "3001": 64,
        "3002": 109,
        "3003": 96,
        "3004": 137,
        "3005": 112,
        "3006": 213,
        "3007": 44,
        "3008": 116,
        "3009": 96,
        "3010": 20,
        "3011": 215,
        "3012": 127,
        "3013": 135,
        "3014": 68,
        "3015": 126,
        "3016": 30,
        "3017": 128,
        "3018": 8,
        "3019": 182,
        "3020": 61,
        "3021": 182,
        "3022": 102,
        "3023": 192,
        "3024": 54,
        "3025": 6,
        "3026": 210,
        "3027": 163,
        "3028": 210,
        "3029": 54,
        "3030": 67,
        "3031": 115,
        "3032": 20,
        "3033": 179,
        "3034": 10,
        "3035": 124,
        "3036": 81,
        "3037": 82,
        "3038": 248,
        "3039": 27,
        "3040": 245,
        "3041": 243,
        "3042": 243,
        "3043": 231,
        "3044": 1,
        "3045": 154,
        "3046": 129,
        "3047": 186,
        "3048": 19,
        "3049": 151,
        "3050": 176,
        "3051": 86,
        "3052": 78,
        "3053": 87,
        "3054": 46,
        "3055": 202,
        "3056": 104,
        "3057": 127,
        "3058": 173,
        "3059": 230,
        "3060": 253,
        "3061": 42,
        "3062": 250,
        "3063": 64,
        "3064": 194,
        "3065": 83,
        "3066": 89,
        "3067": 61,
        "3068": 47,
        "3069": 77,
        "3070": 173,
        "3071": 50,
        "3072": 211,
        "3073": 19,
        "3074": 51,
        "3075": 39,
        "3076": 224,
        "3077": 98,
        "3078": 166,
        "3079": 71,
        "3080": 204,
        "3081": 222,
        "3082": 114,
        "3083": 240,
        "3084": 4,
        "3085": 155,
        "3086": 154,
        "3087": 228,
        "3088": 51,
        "3089": 166,
        "3090": 121,
        "3091": 104,
        "3092": 45,
        "3093": 98,
        "3094": 222,
        "3095": 116,
        "3096": 92,
        "3097": 35,
        "3098": 56,
        "3099": 102,
        "3100": 247,
        "3101": 218,
        "3102": 176,
        "3103": 156,
        "3104": 157,
        "3105": 96,
        "3106": 163,
        "3107": 8,
        "3108": 3,
        "3109": 144,
        "3110": 1,
        "3111": 190,
        "3112": 35,
        "3113": 127,
        "3114": 9,
        "3115": 155,
        "3116": 191,
        "3117": 114,
        "3118": 58,
        "3119": 128,
        "3120": 237,
        "3121": 135,
        "3122": 46,
        "3123": 137,
        "3124": 238,
        "3125": 140,
        "3126": 143,
        "3127": 121,
        "3128": 0,
        "3129": 10,
        "3130": 140,
        "3131": 80,
        "3132": 90,
        "3133": 188,
        "3134": 61,
        "3135": 205,
        "3136": 210,
        "3137": 207,
        "3138": 94,
        "3139": 75,
        "3140": 10,
        "3141": 155,
        "3142": 3,
        "3143": 19,
        "3144": 33,
        "3145": 160,
        "3146": 222,
        "3147": 3,
        "3148": 162,
        "3149": 69,
        "3150": 122,
        "3151": 166,
        "3152": 183,
        "3153": 95,
        "3154": 229,
        "3155": 75,
        "3156": 132,
        "3157": 132,
        "3158": 154,
        "3159": 23,
        "3160": 76,
        "3161": 82,
        "3162": 99,
        "3163": 74,
        "3164": 160,
        "3165": 239,
        "3166": 231,
        "3167": 221,
        "3168": 122,
        "3169": 60,
        "3170": 88,
        "3171": 24,
        "3172": 36,
        "3173": 187,
        "3174": 160,
        "3175": 222,
        "3176": 46,
        "3177": 62,
        "3178": 175,
        "3179": 250,
        "3180": 221,
        "3181": 150,
        "3182": 60,
        "3183": 46,
        "3184": 65,
        "3185": 83,
        "3186": 187,
        "3187": 230,
        "3188": 222,
        "3189": 196,
        "3190": 108,
        "3191": 241,
        "3192": 218,
        "3193": 2,
        "3194": 149,
        "3195": 207,
        "3196": 119,
        "3197": 196,
        "3198": 0,
        "3199": 254,
        "3200": 209,
        "3201": 234,
        "3202": 128,
        "3203": 57,
        "3204": 47,
        "3205": 86,
        "3206": 243,
        "3207": 187,
        "3208": 32,
        "3209": 147,
        "3210": 189,
        "3211": 240,
        "3212": 231,
        "3213": 35,
        "3214": 212,
        "3215": 202,
        "3216": 248,
        "3217": 175,
        "3218": 171,
        "3219": 179,
        "3220": 69,
        "3221": 166,
        "3222": 120,
        "3223": 158,
        "3224": 177,
        "3225": 196,
        "3226": 103,
        "3227": 45,
        "3228": 228,
        "3229": 169,
        "3230": 195,
        "3231": 160,
        "3232": 43,
        "3233": 231,
        "3234": 155,
        "3235": 223,
        "3236": 132,
        "3237": 215,
        "3238": 85,
        "3239": 133,
        "3240": 159,
        "3241": 170,
        "3242": 121,
        "3243": 129,
        "3244": 52,
        "3245": 84,
        "3246": 102,
        "3247": 45,
        "3248": 3,
        "3249": 220,
        "3250": 243,
        "3251": 231,
        "3252": 145,
        "3253": 125,
        "3254": 94,
        "3255": 247,
        "3256": 52,
        "3257": 222,
        "3258": 62,
        "3259": 14,
        "3260": 59,
        "3261": 132,
        "3262": 17,
        "3263": 218,
        "3264": 220,
        "3265": 198,
        "3266": 199,
        "3267": 4,
        "3268": 83,
        "3269": 35,
        "3270": 7,
        "3271": 111,
        "3272": 23,
        "3273": 86,
        "3274": 193,
        "3275": 86,
        "3276": 157,
        "3277": 29,
        "3278": 244,
        "3279": 5,
        "3280": 162,
        "3281": 129,
        "3282": 187,
        "3283": 224,
        "3284": 103,
        "3285": 245,
        "3286": 30,
        "3287": 15,
        "3288": 134,
        "3289": 107,
        "3290": 173,
        "3291": 173,
        "3292": 23,
        "3293": 32,
        "3294": 106,
        "3295": 161,
        "3296": 109,
        "3297": 239,
        "3298": 173,
        "3299": 230,
        "3300": 41,
        "3301": 89,
        "3302": 60,
        "3303": 46,
        "3304": 70,
        "3305": 49,
        "3306": 212,
        "3307": 163,
        "3308": 63,
        "3309": 129,
        "3310": 33,
        "3311": 161,
        "3312": 139,
        "3313": 91,
        "3314": 137,
        "3315": 216,
        "3316": 240,
        "3317": 233,
        "3318": 183,
        "3319": 102,
        "3320": 67,
        "3321": 217,
        "3322": 63,
        "3323": 4,
        "3324": 161,
        "3325": 49,
        "3326": 88,
        "3327": 62,
        "3328": 162,
        "3329": 43,
        "3330": 223,
        "3331": 236,
        "3332": 110,
        "3333": 21,
        "3334": 152,
        "3335": 51,
        "3336": 72,
        "3337": 182,
        "3338": 153,
        "3339": 25,
        "3340": 56,
        "3341": 75,
        "3342": 247,
        "3343": 103,
        "3344": 76,
        "3345": 9,
        "3346": 179,
        "3347": 96,
        "3348": 215,
        "3349": 44,
        "3350": 140,
        "3351": 235,
        "3352": 78,
        "3353": 14,
        "3354": 156,
        "3355": 117,
        "3356": 136,
        "3357": 203,
        "3358": 1,
        "3359": 58,
        "3360": 173,
        "3361": 15,
        "3362": 178,
        "3363": 204,
        "3364": 15,
        "3365": 184,
        "3366": 56,
        "3367": 83,
        "3368": 6,
        "3369": 208,
        "3370": 96,
        "3371": 18,
        "3372": 81,
        "3373": 35,
        "3374": 134,
        "3375": 184,
        "3376": 193,
        "3377": 203,
        "3378": 219,
        "3379": 230,
        "3380": 172,
        "3381": 12,
        "3382": 9,
        "3383": 123,
        "3384": 236,
        "3385": 106,
        "3386": 218,
        "3387": 236,
        "3388": 243,
        "3389": 76,
        "3390": 119,
        "3391": 49,
        "3392": 18,
        "3393": 215,
        "3394": 172,
        "3395": 177,
        "3396": 204,
        "3397": 106,
        "3398": 84,
        "3399": 95,
        "3400": 90,
        "3401": 229,
        "3402": 144,
        "3403": 179,
        "3404": 174,
        "3405": 79,
        "3406": 31,
        "3407": 217,
        "3408": 120,
        "3409": 139,
        "3410": 131,
        "3411": 108,
        "3412": 215,
        "3413": 48,
        "3414": 102,
        "3415": 24,
        "3416": 53,
        "3417": 1,
        "3418": 72,
        "3419": 6,
        "3420": 225,
        "3421": 194,
        "3422": 104,
        "3423": 44,
        "3424": 203,
        "3425": 2,
        "3426": 241,
        "3427": 27,
        "3428": 24,
        "3429": 95,
        "3430": 128,
        "3431": 115,
        "3432": 177,
        "3433": 239,
        "3434": 239,
        "3435": 44,
        "3436": 204,
        "3437": 156,
        "3438": 97,
        "3439": 233,
        "3440": 58,
        "3441": 10,
        "3442": 31,
        "3443": 9,
        "3444": 142,
        "3445": 200,
        "3446": 165,
        "3447": 201,
        "3448": 126,
        "3449": 82,
        "3450": 237,
        "3451": 106,
        "3452": 150,
        "3453": 31,
        "3454": 118,
        "3455": 225,
        "3456": 237,
        "3457": 85,
        "3458": 53,
        "3459": 3,
        "3460": 58,
        "3461": 125,
        "3462": 121,
        "3463": 8,
        "3464": 64,
        "3465": 5,
        "3466": 135,
        "3467": 59,
        "3468": 181,
        "3469": 43,
        "3470": 173,
        "3471": 156,
        "3472": 50,
        "3473": 56,
        "3474": 5,
        "3475": 35,
        "3476": 194,
        "3477": 22,
        "3478": 81,
        "3479": 115,
        "3480": 248,
        "3481": 234,
        "3482": 95,
        "3483": 96,
        "3484": 149,
        "3485": 102,
        "3486": 216,
        "3487": 198,
        "3488": 31,
        "3489": 108,
        "3490": 40,
        "3491": 73,
        "3492": 181,
        "3493": 142,
        "3494": 211,
        "3495": 42,
        "3496": 166,
        "3497": 32,
        "3498": 45,
        "3499": 215,
        "3500": 163,
        "3501": 219,
        "3502": 68,
        "3503": 205,
        "3504": 63,
        "3505": 247,
        "3506": 126,
        "3507": 224,
        "3508": 227,
        "3509": 175,
        "3510": 185,
        "3511": 250,
        "3512": 243,
        "3513": 238,
        "3514": 249,
        "3515": 24,
        "3516": 144,
        "3517": 4,
        "3518": 42,
        "3519": 79,
        "3520": 83,
        "3521": 166,
        "3522": 52,
        "3523": 126,
        "3524": 225,
        "3525": 208,
        "3526": 62,
        "3527": 248,
        "3528": 125,
        "3529": 42,
        "3530": 34,
        "3531": 129,
        "3532": 9,
        "3533": 151,
        "3534": 224,
        "3535": 96,
        "3536": 206,
        "3537": 80,
        "3538": 9,
        "3539": 126,
        "3540": 94,
        "3541": 222,
        "3542": 34,
        "3543": 240,
        "3544": 204,
        "3545": 47,
        "3546": 180,
        "3547": 213,
        "3548": 239,
        "3549": 8,
        "3550": 228,
        "3551": 29,
        "3552": 152,
        "3553": 149,
        "3554": 37,
        "3555": 174,
        "3556": 194,
        "3557": 45,
        "3558": 178,
        "3559": 20,
        "3560": 37,
        "3561": 53,
        "3562": 197,
        "3563": 60,
        "3564": 159,
        "3565": 153,
        "3566": 25,
        "3567": 194,
        "3568": 75,
        "3569": 92,
        "3570": 246,
        "3571": 136,
        "3572": 218,
        "3573": 65,
        "3574": 96,
        "3575": 247,
        "3576": 77,
        "3577": 29,
        "3578": 115,
        "3579": 183,
        "3580": 207,
        "3581": 175,
        "3582": 235,
        "3583": 153,
        "3584": 58,
        "3585": 153,
        "3586": 238,
        "3587": 54,
        "3588": 88,
        "3589": 113,
        "3590": 90,
        "3591": 210,
        "3592": 102,
        "3593": 49,
        "3594": 130,
        "3595": 122,
        "3596": 97,
        "3597": 27,
        "3598": 183,
        "3599": 3,
        "3600": 236,
        "3601": 213,
        "3602": 121,
        "3603": 112,
        "3604": 70,
        "3605": 71,
        "3606": 78,
        "3607": 138,
        "3608": 206,
        "3609": 143,
        "3610": 224,
        "3611": 212,
        "3612": 149,
        "3613": 246,
        "3614": 96,
        "3615": 85,
        "3616": 212,
        "3617": 45,
        "3618": 227,
        "3619": 211,
        "3620": 185,
        "3621": 130,
        "3622": 1,
        "3623": 253,
        "3624": 163,
        "3625": 65,
        "3626": 206,
        "3627": 126,
        "3628": 101,
        "3629": 103,
        "3630": 247,
        "3631": 78,
        "3632": 142,
        "3633": 85,
        "3634": 133,
        "3635": 116,
        "3636": 239,
        "3637": 117,
        "3638": 161,
        "3639": 244,
        "3640": 224,
        "3641": 46,
        "3642": 107,
        "3643": 238,
        "3644": 0,
        "3645": 153,
        "3646": 250,
        "3647": 128,
        "3648": 202,
        "3649": 245,
        "3650": 122,
        "3651": 75,
        "3652": 61,
        "3653": 29,
        "3654": 109,
        "3655": 18,
        "3656": 152,
        "3657": 132,
        "3658": 166,
        "3659": 21,
        "3660": 52,
        "3661": 169,
        "3662": 187,
        "3663": 49,
        "3664": 58,
        "3665": 166,
        "3666": 174,
        "3667": 249,
        "3668": 124,
        "3669": 60,
        "3670": 41,
        "3671": 242,
        "3672": 119,
        "3673": 243,
        "3674": 63,
        "3675": 185,
        "3676": 231,
        "3677": 159,
        "3678": 83,
        "3679": 195,
        "3680": 42,
        "3681": 127,
        "3682": 195,
        "3683": 181,
        "3684": 58,
        "3685": 173,
        "3686": 145,
        "3687": 227,
        "3688": 95,
        "3689": 226,
        "3690": 35,
        "3691": 103,
        "3692": 174,
        "3693": 210,
        "3694": 213,
        "3695": 148,
        "3696": 94,
        "3697": 160,
        "3698": 250,
        "3699": 202,
        "3700": 198,
        "3701": 227,
        "3702": 10,
        "3703": 203,
        "3704": 73,
        "3705": 249,
        "3706": 39,
        "3707": 98,
        "3708": 80,
        "3709": 102,
        "3710": 211,
        "3711": 72,
        "3712": 158,
        "3713": 20,
        "3714": 233,
        "3715": 201,
        "3716": 51,
        "3717": 135,
        "3718": 207,
        "3719": 11,
        "3720": 12,
        "3721": 128,
        "3722": 211,
        "3723": 180,
        "3724": 181,
        "3725": 66,
        "3726": 63,
        "3727": 127,
        "3728": 187,
        "3729": 215,
        "3730": 215,
        "3731": 252,
        "3732": 117,
        "3733": 224,
        "3734": 216,
        "3735": 119,
        "3736": 124,
        "3737": 138,
        "3738": 64,
        "3739": 51,
        "3740": 245,
        "3741": 43,
        "3742": 153,
        "3743": 208,
        "3744": 165,
        "3745": 45,
        "3746": 105,
        "3747": 17,
        "3748": 221,
        "3749": 105,
        "3750": 142,
        "3751": 67,
        "3752": 24,
        "3753": 51,
        "3754": 58,
        "3755": 199,
        "3756": 202,
        "3757": 19,
        "3758": 50,
        "3759": 116,
        "3760": 154,
        "3761": 91,
        "3762": 55,
        "3763": 145,
        "3764": 221,
        "3765": 215,
        "3766": 200,
        "3767": 219,
        "3768": 152,
        "3769": 158,
        "3770": 208,
        "3771": 133,
        "3772": 114,
        "3773": 88,
        "3774": 238,
        "3775": 148,
        "3776": 54,
        "3777": 163,
        "3778": 247,
        "3779": 90,
        "3780": 196,
        "3781": 182,
        "3782": 115,
        "3783": 210,
        "3784": 138,
        "3785": 241,
        "3786": 162,
        "3787": 138,
        "3788": 167,
        "3789": 223,
        "3790": 98,
        "3791": 103,
        "3792": 9,
        "3793": 122,
        "3794": 218,
        "3795": 70,
        "3796": 76,
        "3797": 100,
        "3798": 57,
        "3799": 71,
        "3800": 55,
        "3801": 78,
        "3802": 175,
        "3803": 204,
        "3804": 125,
        "3805": 84,
        "3806": 6,
        "3807": 199,
        "3808": 188,
        "3809": 139,
        "3810": 206,
        "3811": 7,
        "3812": 101,
        "3813": 254,
        "3814": 220,
        "3815": 148,
        "3816": 71,
        "3817": 155,
        "3818": 183,
        "3819": 51,
        "3820": 20,
        "3821": 174,
        "3822": 144,
        "3823": 6,
        "3824": 52,
        "3825": 126,
        "3826": 5,
        "3827": 105,
        "3828": 193,
        "3829": 41,
        "3830": 53,
        "3831": 212,
        "3832": 138,
        "3833": 189,
        "3834": 68,
        "3835": 177,
        "3836": 149,
        "3837": 116,
        "3838": 107,
        "3839": 101,
        "3840": 206,
        "3841": 55,
        "3842": 62,
        "3843": 127,
        "3844": 80,
        "3845": 8,
        "3846": 228,
        "3847": 197,
        "3848": 112,
        "3849": 142,
        "3850": 205,
        "3851": 107,
        "3852": 104,
        "3853": 36,
        "3854": 235,
        "3855": 219,
        "3856": 191,
        "3857": 151,
        "3858": 37,
        "3859": 217,
        "3860": 231,
        "3861": 203,
        "3862": 43,
        "3863": 154,
        "3864": 166,
        "3865": 8,
        "3866": 146,
        "3867": 14,
        "3868": 211,
        "3869": 40,
        "3870": 91,
        "3871": 231,
        "3872": 137,
        "3873": 219,
        "3874": 215,
        "3875": 150,
        "3876": 8,
        "3877": 204,
        "3878": 172,
        "3879": 237,
        "3880": 129,
        "3881": 205,
        "3882": 123,
        "3883": 233,
        "3884": 45,
        "3885": 94,
        "3886": 46,
        "3887": 175,
        "3888": 118,
        "3889": 146,
        "3890": 174,
        "3891": 228,
        "3892": 193,
        "3893": 170,
        "3894": 205,
        "3895": 204,
        "3896": 22,
        "3897": 11,
        "3898": 130,
        "3899": 181,
        "3900": 116,
        "3901": 132,
        "3902": 46,
        "3903": 45,
        "3904": 53,
        "3905": 27,
        "3906": 12,
        "3907": 84,
        "3908": 116,
        "3909": 174,
        "3910": 83,
        "3911": 145,
        "3912": 111,
        "3913": 172,
        "3914": 247,
        "3915": 210,
        "3916": 78,
        "3917": 244,
        "3918": 8,
        "3919": 195,
        "3920": 164,
        "3921": 152,
        "3922": 79,
        "3923": 30,
        "3924": 178,
        "3925": 88,
        "3926": 84,
        "3927": 76,
        "3928": 121,
        "3929": 57,
        "3930": 157,
        "3931": 115,
        "3932": 140,
        "3933": 90,
        "3934": 29,
        "3935": 193,
        "3936": 160,
        "3937": 210,
        "3938": 189,
        "3939": 230,
        "3940": 74,
        "3941": 137,
        "3942": 27,
        "3943": 99,
        "3944": 186,
        "3945": 195,
        "3946": 39,
        "3947": 173,
        "3948": 32,
        "3949": 126,
        "3950": 252,
        "3951": 97,
        "3952": 45,
        "3953": 195,
        "3954": 123,
        "3955": 95,
        "3956": 196,
        "3957": 220,
        "3958": 142,
        "3959": 70,
        "3960": 102,
        "3961": 168,
        "3962": 213,
        "3963": 200,
        "3964": 249,
        "3965": 106,
        "3966": 117,
        "3967": 83,
        "3968": 8,
        "3969": 12,
        "3970": 142,
        "3971": 102,
        "3972": 207,
        "3973": 204,
        "3974": 32,
        "3975": 102,
        "3976": 64,
        "3977": 196,
        "3978": 120,
        "3979": 223,
        "3980": 170,
        "3981": 87,
        "3982": 46,
        "3983": 171,
        "3984": 182,
        "3985": 248,
        "3986": 56,
        "3987": 108,
        "3988": 99,
        "3989": 214,
        "3990": 32,
        "3991": 73,
        "3992": 41,
        "3993": 1,
        "3994": 29,
        "3995": 179,
        "3996": 168,
        "3997": 43,
        "3998": 240,
        "3999": 109,
        "4000": 178,
        "4001": 15,
        "4002": 79,
        "4003": 27,
        "4004": 139,
        "4005": 243,
        "4006": 44,
        "4007": 242,
        "4008": 233,
        "4009": 184,
        "4010": 85,
        "4011": 173,
        "4012": 80,
        "4013": 198,
        "4014": 28,
        "4015": 85,
        "4016": 215,
        "4017": 156,
        "4018": 53,
        "4019": 199,
        "4020": 67,
        "4021": 173,
        "4022": 91,
        "4023": 154,
        "4024": 111,
        "4025": 146,
        "4026": 170,
        "4027": 9,
        "4028": 65,
        "4029": 116,
        "4030": 222,
        "4031": 251,
        "4032": 183,
        "4033": 209,
        "4034": 247,
        "4035": 216,
        "4036": 142,
        "4037": 83,
        "4038": 192,
        "4039": 197,
        "4040": 181,
        "4041": 35,
        "4042": 93,
        "4043": 81,
        "4044": 34,
        "4045": 64,
        "4046": 201,
        "4047": 108,
        "4048": 118,
        "4049": 155,
        "4050": 221,
        "4051": 55,
        "4052": 213,
        "4053": 33,
        "4054": 201,
        "4055": 175,
        "4056": 115,
        "4057": 98,
        "4058": 20,
        "4059": 228,
        "4060": 178,
        "4061": 230,
        "4062": 209,
        "4063": 168,
        "4064": 122,
        "4065": 32,
        "4066": 217,
        "4067": 145,
        "4068": 152,
        "4069": 230,
        "4070": 139,
        "4071": 94,
        "4072": 140,
        "4073": 62,
        "4074": 243,
        "4075": 52,
        "4076": 187,
        "4077": 76,
        "4078": 26,
        "4079": 8,
        "4080": 15,
        "4081": 195,
        "4082": 96,
        "4083": 27,
        "4084": 162,
        "4085": 51,
        "4086": 108,
        "4087": 157,
        "4088": 118,
        "4089": 222,
        "4090": 237,
        "4091": 17,
        "4092": 233,
        "4093": 61,
        "4094": 37,
        "4095": 245,
        "4096": 182,
        "4097": 63,
        "4098": 16,
        "4099": 195,
        "4100": 20,
        "4101": 198,
        "4102": 184,
        "4103": 232,
        "4104": 106,
        "4105": 127,
        "4106": 3,
        "4107": 14,
        "4108": 12,
        "4109": 69,
        "4110": 213,
        "4111": 185,
        "4112": 8,
        "4113": 3,
        "4114": 156,
        "4115": 88,
        "4116": 251,
        "4117": 133,
        "4118": 139,
        "4119": 174,
        "4120": 160,
        "4121": 180,
        "4122": 9,
        "4123": 13,
        "4124": 96,
        "4125": 133,
        "4126": 194,
        "4127": 159,
        "4128": 255,
        "4129": 160,
        "4130": 60,
        "4131": 250,
        "4132": 64,
        "4133": 178,
        "4134": 147,
        "4135": 169,
        "4136": 30,
        "4137": 145,
        "4138": 108,
        "4139": 206,
        "4140": 211,
        "4141": 218,
        "4142": 18,
        "4143": 160,
        "4144": 27,
        "4145": 191,
        "4146": 225,
        "4147": 38,
        "4148": 246,
        "4149": 109,
        "4150": 238,
        "4151": 166,
        "4152": 2,
        "4153": 247,
        "4154": 35,
        "4155": 146,
        "4156": 207,
        "4157": 204,
        "4158": 150,
        "4159": 241,
        "4160": 51,
        "4161": 63,
        "4162": 201,
        "4163": 224,
        "4164": 17,
        "4165": 118,
        "4166": 57,
        "4167": 166,
        "4168": 58,
        "4169": 158,
        "4170": 103,
        "4171": 157,
        "4172": 54,
        "4173": 46,
        "4174": 131,
        "4175": 163,
        "4176": 35,
        "4177": 186,
        "4178": 0,
        "4179": 75,
        "4180": 148,
        "4181": 134,
        "4182": 15,
        "4183": 208,
        "4184": 64,
        "4185": 185,
        "4186": 229,
        "4187": 195,
        "4188": 91,
        "4189": 76,
        "4190": 124,
        "4191": 28,
        "4192": 61,
        "4193": 195,
        "4194": 9,
        "4195": 179,
        "4196": 55,
        "4197": 103,
        "4198": 55,
        "4199": 74,
        "4200": 185,
        "4201": 239,
        "4202": 248,
        "4203": 219,
        "4204": 234,
        "4205": 6,
        "4206": 57,
        "4207": 13,
        "4208": 223,
        "4209": 34,
        "4210": 117,
        "4211": 100,
        "4212": 53,
        "4213": 211,
        "4214": 199,
        "4215": 27,
        "4216": 130,
        "4217": 157,
        "4218": 28,
        "4219": 198,
        "4220": 158,
        "4221": 121,
        "4222": 174,
        "4223": 75,
        "4224": 217,
        "4225": 73,
        "4226": 93,
        "4227": 73,
        "4228": 58,
        "4229": 231,
        "4230": 105,
        "4231": 169,
        "4232": 247,
        "4233": 5,
        "4234": 193,
        "4235": 45,
        "4236": 39,
        "4237": 58,
        "4238": 117,
        "4239": 7,
        "4240": 197,
        "4241": 111,
        "4242": 61,
        "4243": 29,
        "4244": 193,
        "4245": 170,
        "4246": 226,
        "4247": 101,
        "4248": 250,
        "4249": 162,
        "4250": 222,
        "4251": 80,
        "4252": 174,
        "4253": 92,
        "4254": 114,
        "4255": 55,
        "4256": 124,
        "4257": 232,
        "4258": 158,
        "4259": 42,
        "4260": 168,
        "4261": 185,
        "4262": 74,
        "4263": 160,
        "4264": 43,
        "4265": 124,
        "4266": 164,
        "4267": 205,
        "4268": 36,
        "4269": 179,
        "4270": 219,
        "4271": 103,
        "4272": 15,
        "4273": 193,
        "4274": 64,
        "4275": 15,
        "4276": 175,
        "4277": 185,
        "4278": 206,
        "4279": 166,
        "4280": 245,
        "4281": 65,
        "4282": 18,
        "4283": 124,
        "4284": 2,
        "4285": 56,
        "4286": 169,
        "4287": 227,
        "4288": 30,
        "4289": 104,
        "4290": 92,
        "4291": 126,
        "4292": 109,
        "4293": 61,
        "4294": 190,
        "4295": 129,
        "4296": 201,
        "4297": 240,
        "4298": 120,
        "4299": 32,
        "4300": 61,
        "4301": 176,
        "4302": 125,
        "4303": 149,
        "4304": 237,
        "4305": 167,
        "4306": 140,
        "4307": 209,
        "4308": 99,
        "4309": 17,
        "4310": 12,
        "4311": 45,
        "4312": 253,
        "4313": 226,
        "4314": 219,
        "4315": 54,
        "4316": 244,
        "4317": 110,
        "4318": 232,
        "4319": 69,
        "4320": 93,
        "4321": 191,
        "4322": 87,
        "4323": 146,
        "4324": 200,
        "4325": 55,
        "4326": 98,
        "4327": 161,
        "4328": 0,
        "4329": 182,
        "4330": 116,
        "4331": 25,
        "4332": 114,
        "4333": 91,
        "4334": 140,
        "4335": 42,
        "4336": 70,
        "4337": 190,
        "4338": 203,
        "4339": 61,
        "4340": 224,
        "4341": 11,
        "4342": 210,
        "4343": 196,
        "4344": 49,
        "4345": 145,
        "4346": 208,
        "4347": 254,
        "4348": 211,
        "4349": 39,
        "4350": 29,
        "4351": 223,
        "4352": 237,
        "4353": 161,
        "4354": 41,
        "4355": 237,
        "4356": 175,
        "4357": 189,
        "4358": 145,
        "4359": 149,
        "4360": 18,
        "4361": 42,
        "4362": 5,
        "4363": 111,
        "4364": 182,
        "4365": 127,
        "4366": 142,
        "4367": 186,
        "4368": 82,
        "4369": 17,
        "4370": 143,
        "4371": 117,
        "4372": 12,
        "4373": 162,
        "4374": 80,
        "4375": 184,
        "4376": 7,
        "4377": 17,
        "4378": 197,
        "4379": 226,
        "4380": 255,
        "4381": 22,
        "4382": 80,
        "4383": 5,
        "4384": 38,
        "4385": 88,
        "4386": 5,
        "4387": 199,
        "4388": 13,
        "4389": 166,
        "4390": 59,
        "4391": 227,
        "4392": 161,
        "4393": 179,
        "4394": 118,
        "4395": 149,
        "4396": 227,
        "4397": 121,
        "4398": 215,
        "4399": 61,
        "4400": 61,
        "4401": 153,
        "4402": 108,
        "4403": 54,
        "4404": 82,
        "4405": 22,
        "4406": 0,
        "4407": 26,
        "4408": 13,
        "4409": 167,
        "4410": 45,
        "4411": 2,
        "4412": 80,
        "4413": 183,
        "4414": 176,
        "4415": 244,
        "4416": 143,
        "4417": 192,
        "4418": 47,
        "4419": 212,
        "4420": 127,
        "4421": 8,
        "4422": 125,
        "4423": 151,
        "4424": 52,
        "4425": 64,
        "4426": 25,
        "4427": 89,
        "4428": 226,
        "4429": 253,
        "4430": 153,
        "4431": 28,
        "4432": 60,
        "4433": 7,
        "4434": 9,
        "4435": 108,
        "4436": 121,
        "4437": 27,
        "4438": 71,
        "4439": 33,
        "4440": 166,
        "4441": 245,
        "4442": 255,
        "4443": 93,
        "4444": 232,
        "4445": 75,
        "4446": 149,
        "4447": 59,
        "4448": 186,
        "4449": 144,
        "4450": 171,
        "4451": 140,
        "4452": 52,
        "4453": 128,
        "4454": 247,
        "4455": 87,
        "4456": 233,
        "4457": 36,
        "4458": 130,
        "4459": 182,
        "4460": 22,
        "4461": 7,
        "4462": 29,
        "4463": 80,
        "4464": 107,
        "4465": 22,
        "4466": 41,
        "4467": 122,
        "4468": 225,
        "4469": 103,
        "4470": 50,
        "4471": 240,
        "4472": 156,
        "4473": 248,
        "4474": 3,
        "4475": 58,
        "4476": 33,
        "4477": 108,
        "4478": 61,
        "4479": 220,
        "4480": 180,
        "4481": 107,
        "4482": 200,
        "4483": 116,
        "4484": 5,
        "4485": 238,
        "4486": 100,
        "4487": 138,
        "4488": 255,
        "4489": 143,
        "4490": 180,
        "4491": 6,
        "4492": 77,
        "4493": 68,
        "4494": 53,
        "4495": 145,
        "4496": 148,
        "4497": 82,
        "4498": 70,
        "4499": 180,
        "4500": 224,
        "4501": 78,
        "4502": 152,
        "4503": 168,
        "4504": 99,
        "4505": 181,
        "4506": 20,
        "4507": 83,
        "4508": 230,
        "4509": 49,
        "4510": 249,
        "4511": 171,
        "4512": 119,
        "4513": 241,
        "4514": 249,
        "4515": 9,
        "4516": 178,
        "4517": 193,
        "4518": 202,
        "4519": 206,
        "4520": 241,
        "4521": 74,
        "4522": 199,
        "4523": 178,
        "4524": 117,
        "4525": 231,
        "4526": 111,
        "4527": 215,
        "4528": 14,
        "4529": 234,
        "4530": 55,
        "4531": 120,
        "4532": 56,
        "4533": 44,
        "4534": 154,
        "4535": 208,
        "4536": 251,
        "4537": 209,
        "4538": 216,
        "4539": 137,
        "4540": 211,
        "4541": 228,
        "4542": 160,
        "4543": 138,
        "4544": 70,
        "4545": 169,
        "4546": 241,
        "4547": 120,
        "4548": 103,
        "4549": 18,
        "4550": 147,
        "4551": 19,
        "4552": 121,
        "4553": 207,
        "4554": 254,
        "4555": 131,
        "4556": 12,
        "4557": 59,
        "4558": 143,
        "4559": 18,
        "4560": 171,
        "4561": 94,
        "4562": 213,
        "4563": 44,
        "4564": 112,
        "4565": 226,
        "4566": 40,
        "4567": 90,
        "4568": 144,
        "4569": 164,
        "4570": 46,
        "4571": 8,
        "4572": 207,
        "4573": 71,
        "4574": 79,
        "4575": 106,
        "4576": 56,
        "4577": 225,
        "4578": 37,
        "4579": 10,
        "4580": 4,
        "4581": 196,
        "4582": 190,
        "4583": 228,
        "4584": 97,
        "4585": 113,
        "4586": 117,
        "4587": 125,
        "4588": 96,
        "4589": 61,
        "4590": 187,
        "4591": 123,
        "4592": 239,
        "4593": 166,
        "4594": 245,
        "4595": 74,
        "4596": 54,
        "4597": 117,
        "4598": 34,
        "4599": 178,
        "4600": 236,
        "4601": 58,
        "4602": 81,
        "4603": 167,
        "4604": 128,
        "4605": 38,
        "4606": 54,
        "4607": 186,
        "4608": 154,
        "4609": 25,
        "4610": 191,
        "4611": 191,
        "4612": 97,
        "4613": 239,
        "4614": 50,
        "4615": 124,
        "4616": 147,
        "4617": 51,
        "4618": 128,
        "4619": 66,
        "4620": 170,
        "4621": 112,
        "4622": 159,
        "4623": 211,
        "4624": 131,
        "4625": 201,
        "4626": 96,
        "4627": 33,
        "4628": 24,
        "4629": 240,
        "4630": 170,
        "4631": 67,
        "4632": 7,
        "4633": 90,
        "4634": 213,
        "4635": 210,
        "4636": 52,
        "4637": 157,
        "4638": 65,
        "4639": 245,
        "4640": 93,
        "4641": 170,
        "4642": 96,
        "4643": 121,
        "4644": 250,
        "4645": 165,
        "4646": 148,
        "4647": 71,
        "4648": 235,
        "4649": 249,
        "4650": 54,
        "4651": 54,
        "4652": 172,
        "4653": 206,
        "4654": 95,
        "4655": 83,
        "4656": 82,
        "4657": 199,
        "4658": 23,
        "4659": 147,
        "4660": 9,
        "4661": 225,
        "4662": 189,
        "4663": 179,
        "4664": 145,
        "4665": 160,
        "4666": 103,
        "4667": 118,
        "4668": 2,
        "4669": 87,
        "4670": 106,
        "4671": 195,
        "4672": 236,
        "4673": 71,
        "4674": 206,
        "4675": 213,
        "4676": 14,
        "4677": 161,
        "4678": 138,
        "4679": 23,
        "4680": 195,
        "4681": 138,
        "4682": 39,
        "4683": 76,
        "4684": 188,
        "4685": 11,
        "4686": 44,
        "4687": 22,
        "4688": 25,
        "4689": 31,
        "4690": 250,
        "4691": 104,
        "4692": 242,
        "4693": 90,
        "4694": 174,
        "4695": 112,
        "4696": 38,
        "4697": 160,
        "4698": 61,
        "4699": 102,
        "4700": 142,
        "4701": 84,
        "4702": 221,
        "4703": 116,
        "4704": 218,
        "4705": 85,
        "4706": 60,
        "4707": 220,
        "4708": 60,
        "4709": 185,
        "4710": 145,
        "4711": 77,
        "4712": 121,
        "4713": 43,
        "4714": 106,
        "4715": 130,
        "4716": 150,
        "4717": 135,
        "4718": 5,
        "4719": 181,
        "4720": 254,
        "4721": 241,
        "4722": 198,
        "4723": 115,
        "4724": 8,
        "4725": 188,
        "4726": 214,
        "4727": 177,
        "4728": 228,
        "4729": 12,
        "4730": 218,
        "4731": 33,
        "4732": 100,
        "4733": 127,
        "4734": 144,
        "4735": 74,
        "4736": 233,
        "4737": 154,
        "4738": 227,
        "4739": 139,
        "4740": 173,
        "4741": 33,
        "4742": 89,
        "4743": 226,
        "4744": 19,
        "4745": 30,
        "4746": 85,
        "4747": 45,
        "4748": 215,
        "4749": 18,
        "4750": 68,
        "4751": 223,
        "4752": 243,
        "4753": 19,
        "4754": 112,
        "4755": 31,
        "4756": 253,
        "4757": 32,
        "4758": 140,
        "4759": 149,
        "4760": 199,
        "4761": 215,
        "4762": 166,
        "4763": 92,
        "4764": 102,
        "4765": 80,
        "4766": 131,
        "4767": 83,
        "4768": 31,
        "4769": 183,
        "4770": 206,
        "4771": 203,
        "4772": 224,
        "4773": 189,
        "4774": 158,
        "4775": 132,
        "4776": 70,
        "4777": 121,
        "4778": 212,
        "4779": 4,
        "4780": 235,
        "4781": 36,
        "4782": 164,
        "4783": 184,
        "4784": 159,
        "4785": 191,
        "4786": 243,
        "4787": 73,
        "4788": 111,
        "4789": 6,
        "4790": 231,
        "4791": 201,
        "4792": 17,
        "4793": 252,
        "4794": 185,
        "4795": 201,
        "4796": 10,
        "4797": 224,
        "4798": 195,
        "4799": 84,
        "4800": 103,
        "4801": 45,
        "4802": 47,
        "4803": 151,
        "4804": 171,
        "4805": 116,
        "4806": 232,
        "4807": 243,
        "4808": 40,
        "4809": 242,
        "4810": 208,
        "4811": 109,
        "4812": 254,
        "4813": 3,
        "4814": 228,
        "4815": 253,
        "4816": 46,
        "4817": 5,
        "4818": 26,
        "4819": 222,
        "4820": 100,
        "4821": 73,
        "4822": 243,
        "4823": 242,
        "4824": 211,
        "4825": 176,
        "4826": 211,
        "4827": 65,
        "4828": 39,
        "4829": 60,
        "4830": 162,
        "4831": 141,
        "4832": 208,
        "4833": 21,
        "4834": 18,
        "4835": 102,
        "4836": 91,
        "4837": 177,
        "4838": 148,
        "4839": 202,
        "4840": 74,
        "4841": 173,
        "4842": 65,
        "4843": 245,
        "4844": 94,
        "4845": 103,
        "4846": 249,
        "4847": 46,
        "4848": 157,
        "4849": 137,
        "4850": 159,
        "4851": 44,
        "4852": 34,
        "4853": 160,
        "4854": 123,
        "4855": 144,
        "4856": 242,
        "4857": 20,
        "4858": 128,
        "4859": 58,
        "4860": 16,
        "4861": 247,
        "4862": 113,
        "4863": 180,
        "4864": 146,
        "4865": 246,
        "4866": 230,
        "4867": 147,
        "4868": 58,
        "4869": 148,
        "4870": 173,
        "4871": 64,
        "4872": 195,
        "4873": 186,
        "4874": 124,
        "4875": 22,
        "4876": 77,
        "4877": 103,
        "4878": 48,
        "4879": 154,
        "4880": 30,
        "4881": 173,
        "4882": 177,
        "4883": 124,
        "4884": 238,
        "4885": 224,
        "4886": 126,
        "4887": 12,
        "4888": 67,
        "4889": 248,
        "4890": 36,
        "4891": 254,
        "4892": 213,
        "4893": 154,
        "4894": 158,
        "4895": 228,
        "4896": 38,
        "4897": 157,
        "4898": 22,
        "4899": 249,
        "4900": 180,
        "4901": 213,
        "4902": 221,
        "4903": 111,
        "4904": 249,
        "4905": 158,
        "4906": 112,
        "4907": 47,
        "4908": 185,
        "4909": 8,
        "4910": 3,
        "4911": 164,
        "4912": 198,
        "4913": 107,
        "4914": 222,
        "4915": 107,
        "4916": 57,
        "4917": 183,
        "4918": 130,
        "4919": 236,
        "4920": 15,
        "4921": 178,
        "4922": 72,
        "4923": 228,
        "4924": 228,
        "4925": 239,
        "4926": 110,
        "4927": 20,
        "4928": 106,
        "4929": 138,
        "4930": 198,
        "4931": 39,
        "4932": 241,
        "4933": 165,
        "4934": 79,
        "4935": 155,
        "4936": 13,
        "4937": 93,
        "4938": 185,
        "4939": 136,
        "4940": 139,
        "4941": 121,
        "4942": 157,
        "4943": 206,
        "4944": 61,
        "4945": 56,
        "4946": 36,
        "4947": 48,
        "4948": 6,
        "4949": 112,
        "4950": 25,
        "4951": 193,
        "4952": 199,
        "4953": 26,
        "4954": 196,
        "4955": 95,
        "4956": 96,
        "4957": 43,
        "4958": 114,
        "4959": 253,
        "4960": 176,
        "4961": 66,
        "4962": 201,
        "4963": 47,
        "4964": 196,
        "4965": 108,
        "4966": 13,
        "4967": 51,
        "4968": 126,
        "4969": 110,
        "4970": 111,
        "4971": 108,
        "4972": 206,
        "4973": 195,
        "4974": 56,
        "4975": 111,
        "4976": 225,
        "4977": 141,
        "4978": 206,
        "4979": 35,
        "4980": 50,
        "4981": 217,
        "4982": 57,
        "4983": 250,
        "4984": 88,
        "4985": 22,
        "4986": 224,
        "4987": 221,
        "4988": 48,
        "4989": 6,
        "4990": 170,
        "4991": 223,
        "4992": 197,
        "4993": 5,
        "4994": 229,
        "4995": 159,
        "4996": 211,
        "4997": 11,
        "4998": 62,
        "4999": 1,
        "5000": 53,
        "5001": 160,
        "5002": 95,
        "5003": 86,
        "5004": 198,
        "5005": 230,
        "5006": 162,
        "5007": 51,
        "5008": 132,
        "5009": 149,
        "5010": 92,
        "5011": 61,
        "5012": 199,
        "5013": 230,
        "5014": 247,
        "5015": 164,
        "5016": 2,
        "5017": 18,
        "5018": 182,
        "5019": 103,
        "5020": 7,
        "5021": 133,
        "5022": 20,
        "5023": 242,
        "5024": 92,
        "5025": 55,
        "5026": 186,
        "5027": 203,
        "5028": 3,
        "5029": 239,
        "5030": 21,
        "5031": 157,
        "5032": 17,
        "5033": 248,
        "5034": 57,
        "5035": 105,
        "5036": 29,
        "5037": 188,
        "5038": 183,
        "5039": 221,
        "5040": 8,
        "5041": 204,
        "5042": 71,
        "5043": 152,
        "5044": 138,
        "5045": 200,
        "5046": 173,
        "5047": 175,
        "5048": 17,
        "5049": 110,
        "5050": 177,
        "5051": 105,
        "5052": 83,
        "5053": 109,
        "5054": 77,
        "5055": 36,
        "5056": 170,
        "5057": 149,
        "5058": 194,
        "5059": 41,
        "5060": 115,
        "5061": 29,
        "5062": 173,
        "5063": 52,
        "5064": 251,
        "5065": 211,
        "5066": 54,
        "5067": 99,
        "5068": 189,
        "5069": 142,
        "5070": 183,
        "5071": 97,
        "5072": 231,
        "5073": 91,
        "5074": 128,
        "5075": 204,
        "5076": 85,
        "5077": 60,
        "5078": 59,
        "5079": 98,
        "5080": 34,
        "5081": 205,
        "5082": 65,
        "5083": 28,
        "5084": 196,
        "5085": 218,
        "5086": 218,
        "5087": 50,
        "5088": 146,
        "5089": 183,
        "5090": 126,
        "5091": 215,
        "5092": 230,
        "5093": 120,
        "5094": 20,
        "5095": 209,
        "5096": 5,
        "5097": 74,
        "5098": 217,
        "5099": 90,
        "5100": 43,
        "5101": 117,
        "5102": 225,
        "5103": 3,
        "5104": 217,
        "5105": 129,
        "5106": 207,
        "5107": 212,
        "5108": 50,
        "5109": 109,
        "5110": 187,
        "5111": 182,
        "5112": 34,
        "5113": 246,
        "5114": 195,
        "5115": 128,
        "5116": 27,
        "5117": 73,
        "5118": 253,
        "5119": 237,
        "5120": 217,
        "5121": 37,
        "5122": 3,
        "5123": 41,
        "5124": 66,
        "5125": 44,
        "5126": 174,
        "5127": 219,
        "5128": 82,
        "5129": 40,
        "5130": 35,
        "5131": 195,
        "5132": 44,
        "5133": 246,
        "5134": 182,
        "5135": 67,
        "5136": 122,
        "5137": 245,
        "5138": 91,
        "5139": 119,
        "5140": 121,
        "5141": 214,
        "5142": 22,
        "5143": 148,
        "5144": 36,
        "5145": 52,
        "5146": 253,
        "5147": 19,
        "5148": 185,
        "5149": 140,
        "5150": 95,
        "5151": 181,
        "5152": 16,
        "5153": 249,
        "5154": 142,
        "5155": 81,
        "5156": 29,
        "5157": 251,
        "5158": 80,
        "5159": 218,
        "5160": 211,
        "5161": 92,
        "5162": 145,
        "5163": 45,
        "5164": 101,
        "5165": 115,
        "5166": 60,
        "5167": 101,
        "5168": 236,
        "5169": 246,
        "5170": 55,
        "5171": 161,
        "5172": 234,
        "5173": 27,
        "5174": 170,
        "5175": 176,
        "5176": 175,
        "5177": 119,
        "5178": 171,
        "5179": 225,
        "5180": 236,
        "5181": 181,
        "5182": 89,
        "5183": 182,
        "5184": 120,
        "5185": 235,
        "5186": 135,
        "5187": 244,
        "5188": 238,
        "5189": 245,
        "5190": 107,
        "5191": 53,
        "5192": 53,
        "5193": 124,
        "5194": 30,
        "5195": 93,
        "5196": 200,
        "5197": 140,
        "5198": 96,
        "5199": 216,
        "5200": 38,
        "5201": 51,
        "5202": 109,
        "5203": 2,
        "5204": 136,
        "5205": 165,
        "5206": 15,
        "5207": 20,
        "5208": 177,
        "5209": 204,
        "5210": 35,
        "5211": 212,
        "5212": 69,
        "5213": 201,
        "5214": 175,
        "5215": 31,
        "5216": 0,
        "5217": 166,
        "5218": 252,
        "5219": 134,
        "5220": 201,
        "5221": 95,
        "5222": 134,
        "5223": 95,
        "5224": 81,
        "5225": 214,
        "5226": 221,
        "5227": 237,
        "5228": 47,
        "5229": 161,
        "5230": 49,
        "5231": 207,
        "5232": 198,
        "5233": 71,
        "5234": 4,
        "5235": 147,
        "5236": 117,
        "5237": 160,
        "5238": 112,
        "5239": 84,
        "5240": 61,
        "5241": 218,
        "5242": 159,
        "5243": 223,
        "5244": 110,
        "5245": 70,
        "5246": 179,
        "5247": 250,
        "5248": 167,
        "5249": 42,
        "5250": 115,
        "5251": 35,
        "5252": 22,
        "5253": 202,
        "5254": 79,
        "5255": 102,
        "5256": 227,
        "5257": 237,
        "5258": 196,
        "5259": 211,
        "5260": 246,
        "5261": 252,
        "5262": 3,
        "5263": 79,
        "5264": 203,
        "5265": 228,
        "5266": 142,
        "5267": 176,
        "5268": 43,
        "5269": 241,
        "5270": 133,
        "5271": 44,
        "5272": 117,
        "5273": 152,
        "5274": 170,
        "5275": 183,
        "5276": 236,
        "5277": 111,
        "5278": 42,
        "5279": 138,
        "5280": 121,
        "5281": 45,
        "5282": 131,
        "5283": 60,
        "5284": 111,
        "5285": 11,
        "5286": 160,
        "5287": 57,
        "5288": 192,
        "5289": 94,
        "5290": 195,
        "5291": 97,
        "5292": 28,
        "5293": 193,
        "5294": 138,
        "5295": 251,
        "5296": 89,
        "5297": 180,
        "5298": 154,
        "5299": 112,
        "5300": 83,
        "5301": 119,
        "5302": 237,
        "5303": 247,
        "5304": 223,
        "5305": 234,
        "5306": 163,
        "5307": 54,
        "5308": 168,
        "5309": 105,
        "5310": 253,
        "5311": 253,
        "5312": 84,
        "5313": 66,
        "5314": 155,
        "5315": 164,
        "5316": 115,
        "5317": 217,
        "5318": 167,
        "5319": 35,
        "5320": 40,
        "5321": 30,
        "5322": 165,
        "5323": 42,
        "5324": 3,
        "5325": 14,
        "5326": 169,
        "5327": 37,
        "5328": 214,
        "5329": 53,
        "5330": 231,
        "5331": 174,
        "5332": 170,
        "5333": 237,
        "5334": 251,
        "5335": 215,
        "5336": 34,
        "5337": 112,
        "5338": 218,
        "5339": 216,
        "5340": 154,
        "5341": 239,
        "5342": 147,
        "5343": 12,
        "5344": 39,
        "5345": 81,
        "5346": 226,
        "5347": 28,
        "5348": 180,
        "5349": 115,
        "5350": 73,
        "5351": 111,
        "5352": 168,
        "5353": 40,
        "5354": 246,
        "5355": 153,
        "5356": 180,
        "5357": 192,
        "5358": 181,
        "5359": 38,
        "5360": 47,
        "5361": 175,
        "5362": 234,
        "5363": 57,
        "5364": 156,
        "5365": 116,
        "5366": 23,
        "5367": 235,
        "5368": 95,
        "5369": 122,
        "5370": 166,
        "5371": 216,
        "5372": 174,
        "5373": 155,
        "5374": 19,
        "5375": 6,
        "5376": 37,
        "5377": 239,
        "5378": 212,
        "5379": 252,
        "5380": 22,
        "5381": 227,
        "5382": 99,
        "5383": 233,
        "5384": 71,
        "5385": 198,
        "5386": 96,
        "5387": 214,
        "5388": 186,
        "5389": 195,
        "5390": 65,
        "5391": 71,
        "5392": 225,
        "5393": 131,
        "5394": 25,
        "5395": 221,
        "5396": 123,
        "5397": 143,
        "5398": 50,
        "5399": 10,
        "5400": 80,
        "5401": 129,
        "5402": 250,
        "5403": 52,
        "5404": 36,
        "5405": 193,
        "5406": 224,
        "5407": 121,
        "5408": 115,
        "5409": 197,
        "5410": 81,
        "5411": 62,
        "5412": 183,
        "5413": 253,
        "5414": 85,
        "5415": 111,
        "5416": 65,
        "5417": 231,
        "5418": 230,
        "5419": 30,
        "5420": 138,
        "5421": 25,
        "5422": 37,
        "5423": 19,
        "5424": 92,
        "5425": 165,
        "5426": 72,
        "5427": 69,
        "5428": 136,
        "5429": 24,
        "5430": 188,
        "5431": 79,
        "5432": 170,
        "5433": 26,
        "5434": 215,
        "5435": 202,
        "5436": 254,
        "5437": 3,
        "5438": 59,
        "5439": 172,
        "5440": 199,
        "5441": 234,
        "5442": 19,
        "5443": 96,
        "5444": 0,
        "5445": 10,
        "5446": 137,
        "5447": 84,
        "5448": 6,
        "5449": 228,
        "5450": 207,
        "5451": 255,
        "5452": 159,
        "5453": 89,
        "5454": 175,
        "5455": 105,
        "5456": 217,
        "5457": 90,
        "5458": 232,
        "5459": 146,
        "5460": 187,
        "5461": 147,
        "5462": 80,
        "5463": 237,
        "5464": 89,
        "5465": 231,
        "5466": 160,
        "5467": 73,
        "5468": 189,
        "5469": 110,
        "5470": 142,
        "5471": 52,
        "5472": 29,
        "5473": 9,
        "5474": 77,
        "5475": 231,
        "5476": 33,
        "5477": 145,
        "5478": 91,
        "5479": 246,
        "5480": 12,
        "5481": 198,
        "5482": 200,
        "5483": 152,
        "5484": 233,
        "5485": 14,
        "5486": 7,
        "5487": 132,
        "5488": 176,
        "5489": 241,
        "5490": 56,
        "5491": 248,
        "5492": 241,
        "5493": 218,
        "5494": 15,
        "5495": 252,
        "5496": 138,
        "5497": 55,
        "5498": 208,
        "5499": 46,
        "5500": 248,
        "5501": 183,
        "5502": 248,
        "5503": 221,
        "5504": 180,
        "5505": 203,
        "5506": 100,
        "5507": 203,
        "5508": 223,
        "5509": 148,
        "5510": 60,
        "5511": 159,
        "5512": 255,
        "5513": 103,
        "5514": 53,
        "5515": 220,
        "5516": 229,
        "5517": 240,
        "5518": 203,
        "5519": 141,
        "5520": 155,
        "5521": 114,
        "5522": 255,
        "5523": 52,
        "5524": 208,
        "5525": 94,
        "5526": 91,
        "5527": 146,
        "5528": 129,
        "5529": 51,
        "5530": 51,
        "5531": 79,
        "5532": 144,
        "5533": 17,
        "5534": 21,
        "5535": 163,
        "5536": 57,
        "5537": 193,
        "5538": 130,
        "5539": 86,
        "5540": 234,
        "5541": 20,
        "5542": 33,
        "5543": 102,
        "5544": 2,
        "5545": 45,
        "5546": 97,
        "5547": 219,
        "5548": 157,
        "5549": 152,
        "5550": 107,
        "5551": 67,
        "5552": 230,
        "5553": 152,
        "5554": 192,
        "5555": 230,
        "5556": 48,
        "5557": 202,
        "5558": 200,
        "5559": 108,
        "5560": 128,
        "5561": 155,
        "5562": 66,
        "5563": 245,
        "5564": 171,
        "5565": 241,
        "5566": 188,
        "5567": 27,
        "5568": 104,
        "5569": 236,
        "5570": 214,
        "5571": 64,
        "5572": 125,
        "5573": 8,
        "5574": 83,
        "5575": 158,
        "5576": 221,
        "5577": 84,
        "5578": 245,
        "5579": 80,
        "5580": 231,
        "5581": 72,
        "5582": 188,
        "5583": 144,
        "5584": 78,
        "5585": 208,
        "5586": 50,
        "5587": 195,
        "5588": 82,
        "5589": 184,
        "5590": 151,
        "5591": 91,
        "5592": 219,
        "5593": 196,
        "5594": 203,
        "5595": 60,
        "5596": 51,
        "5597": 248,
        "5598": 104,
        "5599": 184,
        "5600": 213,
        "5601": 226,
        "5602": 76,
        "5603": 5,
        "5604": 208,
        "5605": 0,
        "5606": 223,
        "5607": 65,
        "5608": 109,
        "5609": 69,
        "5610": 32,
        "5611": 248,
        "5612": 209,
        "5613": 166,
        "5614": 199,
        "5615": 53,
        "5616": 193,
        "5617": 228,
        "5618": 79,
        "5619": 19,
        "5620": 199,
        "5621": 13,
        "5622": 24,
        "5623": 158,
        "5624": 211,
        "5625": 195,
        "5626": 112,
        "5627": 36,
        "5628": 205,
        "5629": 37,
        "5630": 11,
        "5631": 83,
        "5632": 137,
        "5633": 128,
        "5634": 229,
        "5635": 168,
        "5636": 176,
        "5637": 114,
        "5638": 195,
        "5639": 62,
        "5640": 147,
        "5641": 80,
        "5642": 77,
        "5643": 36,
        "5644": 117,
        "5645": 31,
        "5646": 7,
        "5647": 14,
        "5648": 219,
        "5649": 121,
        "5650": 213,
        "5651": 101,
        "5652": 65,
        "5653": 119,
        "5654": 221,
        "5655": 243,
        "5656": 214,
        "5657": 231,
        "5658": 173,
        "5659": 126,
        "5660": 246,
        "5661": 150,
        "5662": 229,
        "5663": 19,
        "5664": 13,
        "5665": 166,
        "5666": 100,
        "5667": 79,
        "5668": 134,
        "5669": 81,
        "5670": 252,
        "5671": 184,
        "5672": 192,
        "5673": 114,
        "5674": 35,
        "5675": 247,
        "5676": 192,
        "5677": 31,
        "5678": 169,
        "5679": 40,
        "5680": 122,
        "5681": 83,
        "5682": 195,
        "5683": 193,
        "5684": 214,
        "5685": 247,
        "5686": 19,
        "5687": 28,
        "5688": 240,
        "5689": 68,
        "5690": 82,
        "5691": 50,
        "5692": 139,
        "5693": 131,
        "5694": 49,
        "5695": 138,
        "5696": 183,
        "5697": 250,
        "5698": 17,
        "5699": 87,
        "5700": 214,
        "5701": 111,
        "5702": 87,
        "5703": 100,
        "5704": 195,
        "5705": 126,
        "5706": 173,
        "5707": 156,
        "5708": 151,
        "5709": 163,
        "5710": 178,
        "5711": 93,
        "5712": 135,
        "5713": 36,
        "5714": 126,
        "5715": 203,
        "5716": 126,
        "5717": 185,
        "5718": 68,
        "5719": 83,
        "5720": 185,
        "5721": 168,
        "5722": 136,
        "5723": 106,
        "5724": 242,
        "5725": 121,
        "5726": 172,
        "5727": 220,
        "5728": 43,
        "5729": 181,
        "5730": 49,
        "5731": 132,
        "5732": 204,
        "5733": 140,
        "5734": 213,
        "5735": 55,
        "5736": 150,
        "5737": 145,
        "5738": 209,
        "5739": 19,
        "5740": 16,
        "5741": 227,
        "5742": 130,
        "5743": 197,
        "5744": 179,
        "5745": 181,
        "5746": 13,
        "5747": 42,
        "5748": 77,
        "5749": 34,
        "5750": 159,
        "5751": 32,
        "5752": 155,
        "5753": 19,
        "5754": 197,
        "5755": 61,
        "5756": 180,
        "5757": 188,
        "5758": 16,
        "5759": 59,
        "5760": 172,
        "5761": 1,
        "5762": 26,
        "5763": 176,
        "5764": 220,
        "5765": 167,
        "5766": 67,
        "5767": 114,
        "5768": 56,
        "5769": 223,
        "5770": 10,
        "5771": 106,
        "5772": 108,
        "5773": 207,
        "5774": 43,
        "5775": 105,
        "5776": 220,
        "5777": 133,
        "5778": 88,
        "5779": 127,
        "5780": 23,
        "5781": 38,
        "5782": 196,
        "5783": 20,
        "5784": 160,
        "5785": 5,
        "5786": 26,
        "5787": 152,
        "5788": 99,
        "5789": 204,
        "5790": 83,
        "5791": 171,
        "5792": 8,
        "5793": 156,
        "5794": 97,
        "5795": 62,
        "5796": 53,
        "5797": 207,
        "5798": 27,
        "5799": 192,
        "5800": 131,
        "5801": 188,
        "5802": 131,
        "5803": 98,
        "5804": 40,
        "5805": 207,
        "5806": 10,
        "5807": 0,
        "5808": 151,
        "5809": 239,
        "5810": 112,
        "5811": 60,
        "5812": 23,
        "5813": 221,
        "5814": 231,
        "5815": 31,
        "5816": 242,
        "5817": 44,
        "5818": 56,
        "5819": 96,
        "5820": 225,
        "5821": 88,
        "5822": 32,
        "5823": 169,
        "5824": 158,
        "5825": 214,
        "5826": 64,
        "5827": 216,
        "5828": 116,
        "5829": 126,
        "5830": 193,
        "5831": 197,
        "5832": 135,
        "5833": 254,
        "5834": 182,
        "5835": 209,
        "5836": 196,
        "5837": 27,
        "5838": 170,
        "5839": 94,
        "5840": 44,
        "5841": 15,
        "5842": 56,
        "5843": 178,
        "5844": 136,
        "5845": 251,
        "5846": 117,
        "5847": 45,
        "5848": 112,
        "5849": 188,
        "5850": 95,
        "5851": 55,
        "5852": 74,
        "5853": 157,
        "5854": 73,
        "5855": 92,
        "5856": 90,
        "5857": 103,
        "5858": 124,
        "5859": 247,
        "5860": 168,
        "5861": 127,
        "5862": 211,
        "5863": 217,
        "5864": 184,
        "5865": 213,
        "5866": 162,
        "5867": 101,
        "5868": 112,
        "5869": 112,
        "5870": 105,
        "5871": 223,
        "5872": 128,
        "5873": 59,
        "5874": 220,
        "5875": 251,
        "5876": 254,
        "5877": 222,
        "5878": 62,
        "5879": 244,
        "5880": 204,
        "5881": 35,
        "5882": 189,
        "5883": 143,
        "5884": 58,
        "5885": 17,
        "5886": 101,
        "5887": 215,
        "5888": 23,
        "5889": 152,
        "5890": 30,
        "5891": 83,
        "5892": 139,
        "5893": 19,
        "5894": 149,
        "5895": 226,
        "5896": 231,
        "5897": 250,
        "5898": 231,
        "5899": 145,
        "5900": 74,
        "5901": 184,
        "5902": 90,
        "5903": 142,
        "5904": 147,
        "5905": 234,
        "5906": 244,
        "5907": 6,
        "5908": 76,
        "5909": 3,
        "5910": 202,
        "5911": 216,
        "5912": 24,
        "5913": 119,
        "5914": 205,
        "5915": 215,
        "5916": 77,
        "5917": 161,
        "5918": 43,
        "5919": 227,
        "5920": 203,
        "5921": 130,
        "5922": 96,
        "5923": 169,
        "5924": 71,
        "5925": 201,
        "5926": 238,
        "5927": 116,
        "5928": 248,
        "5929": 24,
        "5930": 76,
        "5931": 143,
        "5932": 150,
        "5933": 175,
        "5934": 54,
        "5935": 52,
        "5936": 253,
        "5937": 56,
        "5938": 184,
        "5939": 205,
        "5940": 248,
        "5941": 183,
        "5942": 231,
        "5943": 152,
        "5944": 221,
        "5945": 253,
        "5946": 187,
        "5947": 118,
        "5948": 248,
        "5949": 95,
        "5950": 111,
        "5951": 7,
        "5952": 10,
        "5953": 169,
        "5954": 216,
        "5955": 121,
        "5956": 55,
        "5957": 250,
        "5958": 101,
        "5959": 246,
        "5960": 130,
        "5961": 48,
        "5962": 173,
        "5963": 37,
        "5964": 68,
        "5965": 11,
        "5966": 9,
        "5967": 131,
        "5968": 43,
        "5969": 145,
        "5970": 191,
        "5971": 8,
        "5972": 120,
        "5973": 105,
        "5974": 118,
        "5975": 206,
        "5976": 90,
        "5977": 11,
        "5978": 108,
        "5979": 216,
        "5980": 117,
        "5981": 225,
        "5982": 0,
        "5983": 104,
        "5984": 187,
        "5985": 115,
        "5986": 173,
        "5987": 52,
        "5988": 12,
        "5989": 26,
        "5990": 24,
        "5991": 13,
        "5992": 190,
        "5993": 254,
        "5994": 97,
        "5995": 98,
        "5996": 144,
        "5997": 21,
        "5998": 153,
        "5999": 134,
        "6000": 143,
        "6001": 75,
        "6002": 133,
        "6003": 51,
        "6004": 224,
        "6005": 246,
        "6006": 128,
        "6007": 31,
        "6008": 9,
        "6009": 113,
        "6010": 69,
        "6011": 168,
        "6012": 253,
        "6013": 67,
        "6014": 82,
        "6015": 237,
        "6016": 126,
        "6017": 204,
        "6018": 106,
        "6019": 157,
        "6020": 7,
        "6021": 90,
        "6022": 92,
        "6023": 6,
        "6024": 9,
        "6025": 54,
        "6026": 73,
        "6027": 232,
        "6028": 64,
        "6029": 105,
        "6030": 255,
        "6031": 60,
        "6032": 133,
        "6033": 55,
        "6034": 23,
        "6035": 220,
        "6036": 226,
        "6037": 17,
        "6038": 217,
        "6039": 64,
        "6040": 18,
        "6041": 246,
        "6042": 66,
        "6043": 98,
        "6044": 193,
        "6045": 175,
        "6046": 105,
        "6047": 66,
        "6048": 89,
        "6049": 14,
        "6050": 205,
        "6051": 245,
        "6052": 151,
        "6053": 65,
        "6054": 190,
        "6055": 102,
        "6056": 252,
        "6057": 127,
        "6058": 131,
        "6059": 37,
        "6060": 129,
        "6061": 151,
        "6062": 58,
        "6063": 75,
        "6064": 9,
        "6065": 164,
        "6066": 173,
        "6067": 115,
        "6068": 94,
        "6069": 174,
        "6070": 157,
        "6071": 18,
        "6072": 179,
        "6073": 8,
        "6074": 139,
        "6075": 219,
        "6076": 39,
        "6077": 170,
        "6078": 6,
        "6079": 79,
        "6080": 4,
        "6081": 122,
        "6082": 105,
        "6083": 26,
        "6084": 95,
        "6085": 4,
        "6086": 226,
        "6087": 241,
        "6088": 164,
        "6089": 191,
        "6090": 164,
        "6091": 162,
        "6092": 205,
        "6093": 141,
        "6094": 249,
        "6095": 200,
        "6096": 233,
        "6097": 114,
        "6098": 39,
        "6099": 134,
        "6100": 58,
        "6101": 14,
        "6102": 204,
        "6103": 241,
        "6104": 140,
        "6105": 123,
        "6106": 86,
        "6107": 240,
        "6108": 212,
        "6109": 143,
        "6110": 123,
        "6111": 229,
        "6112": 1,
        "6113": 4,
        "6114": 150,
        "6115": 127,
        "6116": 186,
        "6117": 51,
        "6118": 73,
        "6119": 133,
        "6120": 191,
        "6121": 220,
        "6122": 195,
        "6123": 161,
        "6124": 211,
        "6125": 149,
        "6126": 95,
        "6127": 83,
        "6128": 171,
        "6129": 52,
        "6130": 30,
        "6131": 193,
        "6132": 147,
        "6133": 143,
        "6134": 189,
        "6135": 248,
        "6136": 51,
        "6137": 75,
        "6138": 137,
        "6139": 55,
        "6140": 63,
        "6141": 3,
        "6142": 27,
        "6143": 54,
        "6144": 9,
        "6145": 11,
        "6146": 163,
        "6147": 192,
        "6148": 42,
        "6149": 100,
        "6150": 139,
        "6151": 30,
        "6152": 160,
        "6153": 236,
        "6154": 139,
        "6155": 87,
        "6156": 99,
        "6157": 118,
        "6158": 99,
        "6159": 187,
        "6160": 98,
        "6161": 145,
        "6162": 46,
        "6163": 211,
        "6164": 41,
        "6165": 23,
        "6166": 201,
        "6167": 227,
        "6168": 167,
        "6169": 245,
        "6170": 161,
        "6171": 244,
        "6172": 97,
        "6173": 127,
        "6174": 102,
        "6175": 81,
        "6176": 126,
        "6177": 108,
        "6178": 222,
        "6179": 162,
        "6180": 216,
        "6181": 180,
        "6182": 31,
        "6183": 17,
        "6184": 170,
        "6185": 217,
        "6186": 125,
        "6187": 36,
        "6188": 208,
        "6189": 95,
        "6190": 167,
        "6191": 67,
        "6192": 38,
        "6193": 165,
        "6194": 61,
        "6195": 17,
        "6196": 60,
        "6197": 192,
        "6198": 44,
        "6199": 255,
        "6200": 255,
        "6201": 210,
        "6202": 14,
        "6203": 208,
        "6204": 62,
        "6205": 69,
        "6206": 36,
        "6207": 38,
        "6208": 119,
        "6209": 53,
        "6210": 74,
        "6211": 123,
        "6212": 38,
        "6213": 137,
        "6214": 55,
        "6215": 159,
        "6216": 88,
        "6217": 245,
        "6218": 96,
        "6219": 81,
        "6220": 253,
        "6221": 80,
        "6222": 36,
        "6223": 181,
        "6224": 167,
        "6225": 202,
        "6226": 213,
        "6227": 174,
        "6228": 86,
        "6229": 68,
        "6230": 141,
        "6231": 246,
        "6232": 251,
        "6233": 72,
        "6234": 24,
        "6235": 239,
        "6236": 145,
        "6237": 71,
        "6238": 2,
        "6239": 75,
        "6240": 22,
        "6241": 74,
        "6242": 24,
        "6243": 134,
        "6244": 139,
        "6245": 156,
        "6246": 202,
        "6247": 136,
        "6248": 118,
        "6249": 11,
        "6250": 59,
        "6251": 67,
        "6252": 246,
        "6253": 12,
        "6254": 247,
        "6255": 76,
        "6256": 174,
        "6257": 71,
        "6258": 175,
        "6259": 1,
        "6260": 4,
        "6261": 164,
        "6262": 82,
        "6263": 168,
        "6264": 158,
        "6265": 228,
        "6266": 45,
        "6267": 173,
        "6268": 130,
        "6269": 160,
        "6270": 83,
        "6271": 241,
        "6272": 232,
        "6273": 152,
        "6274": 197,
        "6275": 110,
        "6276": 11,
        "6277": 2,
        "6278": 110,
        "6279": 211,
        "6280": 103,
        "6281": 165,
        "6282": 114,
        "6283": 192,
        "6284": 149,
        "6285": 197,
        "6286": 189,
        "6287": 162,
        "6288": 122,
        "6289": 61,
        "6290": 220,
        "6291": 76,
        "6292": 111,
        "6293": 78,
        "6294": 189,
        "6295": 225,
        "6296": 244,
        "6297": 146,
        "6298": 95,
        "6299": 136,
        "6300": 30,
        "6301": 62,
        "6302": 101,
        "6303": 152,
        "6304": 95,
        "6305": 68,
        "6306": 48,
        "6307": 218,
        "6308": 126,
        "6309": 215,
        "6310": 23,
        "6311": 231,
        "6312": 204,
        "6313": 198,
        "6314": 255,
        "6315": 211,
        "6316": 63,
        "6317": 245,
        "6318": 138,
        "6319": 32,
        "6320": 112,
        "6321": 5,
        "6322": 186,
        "6323": 70,
        "6324": 224,
        "6325": 30,
        "6326": 67,
        "6327": 140,
        "6328": 229,
        "6329": 116,
        "6330": 217,
        "6331": 216,
        "6332": 123,
        "6333": 111,
        "6334": 44,
        "6335": 64,
        "6336": 253,
        "6337": 214,
        "6338": 182,
        "6339": 253,
        "6340": 210,
        "6341": 2,
        "6342": 42,
        "6343": 178,
        "6344": 224,
        "6345": 153,
        "6346": 222,
        "6347": 248,
        "6348": 143,
        "6349": 44,
        "6350": 157,
        "6351": 216,
        "6352": 169,
        "6353": 208,
        "6354": 94,
        "6355": 87,
        "6356": 132,
        "6357": 31,
        "6358": 43,
        "6359": 206,
        "6360": 204,
        "6361": 15,
        "6362": 20,
        "6363": 235,
        "6364": 181,
        "6365": 198,
        "6366": 167,
        "6367": 54,
        "6368": 30,
        "6369": 181,
        "6370": 81,
        "6371": 25,
        "6372": 155,
        "6373": 252,
        "6374": 219,
        "6375": 163,
        "6376": 149,
        "6377": 29,
        "6378": 120,
        "6379": 130,
        "6380": 220,
        "6381": 213,
        "6382": 8,
        "6383": 167,
        "6384": 218,
        "6385": 140,
        "6386": 103,
        "6387": 133,
        "6388": 121,
        "6389": 210,
        "6390": 106,
        "6391": 92,
        "6392": 170,
        "6393": 56,
        "6394": 73,
        "6395": 161,
        "6396": 151,
        "6397": 252,
        "6398": 79,
        "6399": 130,
        "6400": 66,
        "6401": 14,
        "6402": 79,
        "6403": 72,
        "6404": 3,
        "6405": 227,
        "6406": 213,
        "6407": 192,
        "6408": 51,
        "6409": 118,
        "6410": 135,
        "6411": 64,
        "6412": 180,
        "6413": 134,
        "6414": 29,
        "6415": 214,
        "6416": 75,
        "6417": 242,
        "6418": 107,
        "6419": 173,
        "6420": 51,
        "6421": 89,
        "6422": 124,
        "6423": 88,
        "6424": 27,
        "6425": 81,
        "6426": 120,
        "6427": 153,
        "6428": 108,
        "6429": 40,
        "6430": 104,
        "6431": 90,
        "6432": 109,
        "6433": 255,
        "6434": 91,
        "6435": 185,
        "6436": 195,
        "6437": 165,
        "6438": 5,
        "6439": 2,
        "6440": 119,
        "6441": 106,
        "6442": 14,
        "6443": 85,
        "6444": 6,
        "6445": 52,
        "6446": 243,
        "6447": 174,
        "6448": 29,
        "6449": 51,
        "6450": 40,
        "6451": 35,
        "6452": 165,
        "6453": 231,
        "6454": 168,
        "6455": 17,
        "6456": 128,
        "6457": 4,
        "6458": 175,
        "6459": 55,
        "6460": 108,
        "6461": 193,
        "6462": 149,
        "6463": 192,
        "6464": 203,
        "6465": 110,
        "6466": 121,
        "6467": 202,
        "6468": 98,
        "6469": 100,
        "6470": 251,
        "6471": 9,
        "6472": 177,
        "6473": 104,
        "6474": 208,
        "6475": 169,
        "6476": 85,
        "6477": 62,
        "6478": 202,
        "6479": 106,
        "6480": 113,
        "6481": 206,
        "6482": 91,
        "6483": 38,
        "6484": 34,
        "6485": 56,
        "6486": 148,
        "6487": 247,
        "6488": 121,
        "6489": 243,
        "6490": 115,
        "6491": 39,
        "6492": 237,
        "6493": 44,
        "6494": 67,
        "6495": 91,
        "6496": 123,
        "6497": 60,
        "6498": 150,
        "6499": 36,
        "6500": 42,
        "6501": 189,
        "6502": 247,
        "6503": 47,
        "6504": 250,
        "6505": 208,
        "6506": 18,
        "6507": 183,
        "6508": 210,
        "6509": 8,
        "6510": 10,
        "6511": 182,
        "6512": 90,
        "6513": 158,
        "6514": 54,
        "6515": 121,
        "6516": 75,
        "6517": 165,
        "6518": 81,
        "6519": 74,
        "6520": 171,
        "6521": 160,
        "6522": 185,
        "6523": 169,
        "6524": 200,
        "6525": 71,
        "6526": 128,
        "6527": 215,
        "6528": 114,
        "6529": 54,
        "6530": 90,
        "6531": 238,
        "6532": 202,
        "6533": 148,
        "6534": 76,
        "6535": 167,
        "6536": 190,
        "6537": 20,
        "6538": 177,
        "6539": 47,
        "6540": 2,
        "6541": 4,
        "6542": 42,
        "6543": 167,
        "6544": 115,
        "6545": 121,
        "6546": 100,
        "6547": 29,
        "6548": 9,
        "6549": 212,
        "6550": 113,
        "6551": 244,
        "6552": 243,
        "6553": 57,
        "6554": 219,
        "6555": 242,
        "6556": 2,
        "6557": 8,
        "6558": 98,
        "6559": 142,
        "6560": 80,
        "6561": 146,
        "6562": 207,
        "6563": 203,
        "6564": 176,
        "6565": 48,
        "6566": 3,
        "6567": 8,
        "6568": 240,
        "6569": 40,
        "6570": 141,
        "6571": 36,
        "6572": 232,
        "6573": 124,
        "6574": 26,
        "6575": 103,
        "6576": 75,
        "6577": 67,
        "6578": 13,
        "6579": 79,
        "6580": 187,
        "6581": 243,
        "6582": 234,
        "6583": 146,
        "6584": 161,
        "6585": 158,
        "6586": 26,
        "6587": 249,
        "6588": 134,
        "6589": 46,
        "6590": 29,
        "6591": 168,
        "6592": 149,
        "6593": 41,
        "6594": 152,
        "6595": 174,
        "6596": 105,
        "6597": 54,
        "6598": 51,
        "6599": 94,
        "6600": 173,
        "6601": 245,
        "6602": 136,
        "6603": 125,
        "6604": 177,
        "6605": 41,
        "6606": 76,
        "6607": 12,
        "6608": 209,
        "6609": 230,
        "6610": 147,
        "6611": 165,
        "6612": 171,
        "6613": 158,
        "6614": 221,
        "6615": 44,
        "6616": 197,
        "6617": 56,
        "6618": 69,
        "6619": 137,
        "6620": 210,
        "6621": 43,
        "6622": 23,
        "6623": 103,
        "6624": 228,
        "6625": 41,
        "6626": 227,
        "6627": 65,
        "6628": 235,
        "6629": 208,
        "6630": 95,
        "6631": 207,
        "6632": 226,
        "6633": 243,
        "6634": 151,
        "6635": 52,
        "6636": 101,
        "6637": 210,
        "6638": 65,
        "6639": 70,
        "6640": 105,
        "6641": 178,
        "6642": 100,
        "6643": 206,
        "6644": 30,
        "6645": 231,
        "6646": 159,
        "6647": 111,
        "6648": 250,
        "6649": 234,
        "6650": 49,
        "6651": 56,
        "6652": 232,
        "6653": 220,
        "6654": 29,
        "6655": 139,
        "6656": 100,
        "6657": 210,
        "6658": 178,
        "6659": 70,
        "6660": 16,
        "6661": 122,
        "6662": 46,
        "6663": 247,
        "6664": 0,
        "6665": 111,
        "6666": 203,
        "6667": 173,
        "6668": 161,
        "6669": 140,
        "6670": 55,
        "6671": 215,
        "6672": 60,
        "6673": 143,
        "6674": 35,
        "6675": 95,
        "6676": 183,
        "6677": 99,
        "6678": 250,
        "6679": 220,
        "6680": 200,
        "6681": 10,
        "6682": 227,
        "6683": 104,
        "6684": 235,
        "6685": 7,
        "6686": 42,
        "6687": 242,
        "6688": 60,
        "6689": 1,
        "6690": 94,
        "6691": 202,
        "6692": 92,
        "6693": 213,
        "6694": 47,
        "6695": 66,
        "6696": 171,
        "6697": 164,
        "6698": 111,
        "6699": 74,
        "6700": 113,
        "6701": 19,
        "6702": 229,
        "6703": 138,
        "6704": 18,
        "6705": 117,
        "6706": 85,
        "6707": 250,
        "6708": 185,
        "6709": 208,
        "6710": 74,
        "6711": 184,
        "6712": 166,
        "6713": 10,
        "6714": 233,
        "6715": 163,
        "6716": 130,
        "6717": 37,
        "6718": 162,
        "6719": 149,
        "6720": 108,
        "6721": 133,
        "6722": 241,
        "6723": 32,
        "6724": 182,
        "6725": 66,
        "6726": 182,
        "6727": 103,
        "6728": 156,
        "6729": 30,
        "6730": 237,
        "6731": 236,
        "6732": 67,
        "6733": 125,
        "6734": 75,
        "6735": 117,
        "6736": 211,
        "6737": 230,
        "6738": 187,
        "6739": 66,
        "6740": 163,
        "6741": 115,
        "6742": 194,
        "6743": 136,
        "6744": 247,
        "6745": 248,
        "6746": 58,
        "6747": 118,
        "6748": 159,
        "6749": 35,
        "6750": 134,
        "6751": 15,
        "6752": 44,
        "6753": 116,
        "6754": 211,
        "6755": 211,
        "6756": 103,
        "6757": 12,
        "6758": 81,
        "6759": 146,
        "6760": 70,
        "6761": 220,
        "6762": 180,
        "6763": 12,
        "6764": 164,
        "6765": 161,
        "6766": 246,
        "6767": 208,
        "6768": 28,
        "6769": 11,
        "6770": 87,
        "6771": 149,
        "6772": 28,
        "6773": 108,
        "6774": 184,
        "6775": 39,
        "6776": 110,
        "6777": 12,
        "6778": 200,
        "6779": 138,
        "6780": 8,
        "6781": 151,
        "6782": 80,
        "6783": 196,
        "6784": 180,
        "6785": 51,
        "6786": 124,
        "6787": 155,
        "6788": 49,
        "6789": 40,
        "6790": 172,
        "6791": 172,
        "6792": 216,
        "6793": 199,
        "6794": 69,
        "6795": 252,
        "6796": 62,
        "6797": 232,
        "6798": 135,
        "6799": 12,
        "6800": 9,
        "6801": 129,
        "6802": 73,
        "6803": 189,
        "6804": 239,
        "6805": 11,
        "6806": 193,
        "6807": 253,
        "6808": 146,
        "6809": 21,
        "6810": 184,
        "6811": 182,
        "6812": 159,
        "6813": 66,
        "6814": 138,
        "6815": 70,
        "6816": 124,
        "6817": 99,
        "6818": 249,
        "6819": 220,
        "6820": 30,
        "6821": 12,
        "6822": 196,
        "6823": 209,
        "6824": 144,
        "6825": 53,
        "6826": 177,
        "6827": 108,
        "6828": 205,
        "6829": 21,
        "6830": 119,
        "6831": 28,
        "6832": 29,
        "6833": 178,
        "6834": 160,
        "6835": 187,
        "6836": 42,
        "6837": 148,
        "6838": 251,
        "6839": 15,
        "6840": 207,
        "6841": 205,
        "6842": 37,
        "6843": 239,
        "6844": 76,
        "6845": 31,
        "6846": 96,
        "6847": 110,
        "6848": 109,
        "6849": 165,
        "6850": 122,
        "6851": 234,
        "6852": 19,
        "6853": 155,
        "6854": 134,
        "6855": 88,
        "6856": 221,
        "6857": 60,
        "6858": 76,
        "6859": 244,
        "6860": 75,
        "6861": 182,
        "6862": 224,
        "6863": 87,
        "6864": 35,
        "6865": 58,
        "6866": 95,
        "6867": 231,
        "6868": 50,
        "6869": 237,
        "6870": 110,
        "6871": 238,
        "6872": 89,
        "6873": 129,
        "6874": 93,
        "6875": 52,
        "6876": 109,
        "6877": 193,
        "6878": 153,
        "6879": 38,
        "6880": 191,
        "6881": 226,
        "6882": 146,
        "6883": 241,
        "6884": 185,
        "6885": 164,
        "6886": 193,
        "6887": 208,
        "6888": 11,
        "6889": 1,
        "6890": 158,
        "6891": 56,
        "6892": 118,
        "6893": 105,
        "6894": 14,
        "6895": 113,
        "6896": 131,
        "6897": 72,
        "6898": 182,
        "6899": 36,
        "6900": 9,
        "6901": 249,
        "6902": 81,
        "6903": 200,
        "6904": 76,
        "6905": 240,
        "6906": 235,
        "6907": 215,
        "6908": 53,
        "6909": 15,
        "6910": 55,
        "6911": 156,
        "6912": 35,
        "6913": 93,
        "6914": 247,
        "6915": 107,
        "6916": 168,
        "6917": 193,
        "6918": 55,
        "6919": 59,
        "6920": 124,
        "6921": 27,
        "6922": 32,
        "6923": 142,
        "6924": 72,
        "6925": 211,
        "6926": 116,
        "6927": 198,
        "6928": 68,
        "6929": 228,
        "6930": 117,
        "6931": 190,
        "6932": 205,
        "6933": 124,
        "6934": 15,
        "6935": 48,
        "6936": 14,
        "6937": 127,
        "6938": 71,
        "6939": 62,
        "6940": 38,
        "6941": 3,
        "6942": 20,
        "6943": 241,
        "6944": 121,
        "6945": 63,
        "6946": 164,
        "6947": 131,
        "6948": 226,
        "6949": 75,
        "6950": 138,
        "6951": 172,
        "6952": 174,
        "6953": 94,
        "6954": 63,
        "6955": 210,
        "6956": 22,
        "6957": 141,
        "6958": 57,
        "6959": 193,
        "6960": 125,
        "6961": 144,
        "6962": 183,
        "6963": 188,
        "6964": 14,
        "6965": 9,
        "6966": 184,
        "6967": 250,
        "6968": 152,
        "6969": 107,
        "6970": 182,
        "6971": 101,
        "6972": 100,
        "6973": 5,
        "6974": 241,
        "6975": 2,
        "6976": 252,
        "6977": 247,
        "6978": 9,
        "6979": 30,
        "6980": 143,
        "6981": 85,
        "6982": 13,
        "6983": 183,
        "6984": 135,
        "6985": 116,
        "6986": 138,
        "6987": 205,
        "6988": 58,
        "6989": 112,
        "6990": 122,
        "6991": 161,
        "6992": 46,
        "6993": 171,
        "6994": 9,
        "6995": 120,
        "6996": 5,
        "6997": 80,
        "6998": 81,
        "6999": 112,
        "7000": 149,
        "7001": 181,
        "7002": 182,
        "7003": 183,
        "7004": 33,
        "7005": 159,
        "7006": 47,
        "7007": 84,
        "7008": 218,
        "7009": 159,
        "7010": 13,
        "7011": 75,
        "7012": 186,
        "7013": 1,
        "7014": 102,
        "7015": 229,
        "7016": 167,
        "7017": 175,
        "7018": 22,
        "7019": 176,
        "7020": 128,
        "7021": 214,
        "7022": 119,
        "7023": 239,
        "7024": 194,
        "7025": 2,
        "7026": 57,
        "7027": 127,
        "7028": 208,
        "7029": 179,
        "7030": 0,
        "7031": 156,
        "7032": 195,
        "7033": 196,
        "7034": 61,
        "7035": 56,
        "7036": 113,
        "7037": 129,
        "7038": 54,
        "7039": 237,
        "7040": 154,
        "7041": 18,
        "7042": 250,
        "7043": 58,
        "7044": 254,
        "7045": 36,
        "7046": 169,
        "7047": 63,
        "7048": 27,
        "7049": 242,
        "7050": 248,
        "7051": 215,
        "7052": 39,
        "7053": 2,
        "7054": 255,
        "7055": 167,
        "7056": 148,
        "7057": 238,
        "7058": 181,
        "7059": 175,
        "7060": 47,
        "7061": 34,
        "7062": 141,
        "7063": 142,
        "7064": 166,
        "7065": 179,
        "7066": 24,
        "7067": 135,
        "7068": 114,
        "7069": 143,
        "7070": 162,
        "7071": 228,
        "7072": 109,
        "7073": 86,
        "7074": 36,
        "7075": 178,
        "7076": 172,
        "7077": 113,
        "7078": 136,
        "7079": 233,
        "7080": 112,
        "7081": 140,
        "7082": 114,
        "7083": 240,
        "7084": 167,
        "7085": 169,
        "7086": 139,
        "7087": 234,
        "7088": 12,
        "7089": 127,
        "7090": 248,
        "7091": 78,
        "7092": 136,
        "7093": 142,
        "7094": 1,
        "7095": 136,
        "7096": 135,
        "7097": 35,
        "7098": 222,
        "7099": 252,
        "7100": 200,
        "7101": 9,
        "7102": 74,
        "7103": 118,
        "7104": 185,
        "7105": 51,
        "7106": 238,
        "7107": 77,
        "7108": 151,
        "7109": 175,
        "7110": 194,
        "7111": 10,
        "7112": 75,
        "7113": 77,
        "7114": 135,
        "7115": 45,
        "7116": 217,
        "7117": 80,
        "7118": 129,
        "7119": 118,
        "7120": 160,
        "7121": 128,
        "7122": 252,
        "7123": 92,
        "7124": 170,
        "7125": 202,
        "7126": 152,
        "7127": 216,
        "7128": 127,
        "7129": 96,
        "7130": 22,
        "7131": 212,
        "7132": 49,
        "7133": 84,
        "7134": 218,
        "7135": 76,
        "7136": 41,
        "7137": 206,
        "7138": 237,
        "7139": 208,
        "7140": 201,
        "7141": 153,
        "7142": 89,
        "7143": 221,
        "7144": 173,
        "7145": 175,
        "7146": 255,
        "7147": 22,
        "7148": 34,
        "7149": 246,
        "7150": 79,
        "7151": 46,
        "7152": 235,
        "7153": 73,
        "7154": 225,
        "7155": 13,
        "7156": 146,
        "7157": 45,
        "7158": 181,
        "7159": 106,
        "7160": 193,
        "7161": 204,
        "7162": 119,
        "7163": 100,
        "7164": 105,
        "7165": 106,
        "7166": 193,
        "7167": 178,
        "7168": 93,
        "7169": 140,
        "7170": 165,
        "7171": 72,
        "7172": 205,
        "7173": 14,
        "7174": 204,
        "7175": 46,
        "7176": 209,
        "7177": 18,
        "7178": 88,
        "7179": 101,
        "7180": 177,
        "7181": 164,
        "7182": 188,
        "7183": 28,
        "7184": 50,
        "7185": 58,
        "7186": 168,
        "7187": 19,
        "7188": 121,
        "7189": 170,
        "7190": 22,
        "7191": 243,
        "7192": 211,
        "7193": 8,
        "7194": 66,
        "7195": 156,
        "7196": 34,
        "7197": 200,
        "7198": 201,
        "7199": 74,
        "7200": 158,
        "7201": 5,
        "7202": 238,
        "7203": 21,
        "7204": 214,
        "7205": 5,
        "7206": 9,
        "7207": 18,
        "7208": 136,
        "7209": 165,
        "7210": 56,
        "7211": 250,
        "7212": 201,
        "7213": 108,
        "7214": 116,
        "7215": 169,
        "7216": 219,
        "7217": 184,
        "7218": 2,
        "7219": 11,
        "7220": 6,
        "7221": 39,
        "7222": 164,
        "7223": 157,
        "7224": 91,
        "7225": 141,
        "7226": 65,
        "7227": 130,
        "7228": 202,
        "7229": 94,
        "7230": 33,
        "7231": 56,
        "7232": 166,
        "7233": 151,
        "7234": 120,
        "7235": 46,
        "7236": 255,
        "7237": 216,
        "7238": 174,
        "7239": 87,
        "7240": 95,
        "7241": 119,
        "7242": 154,
        "7243": 159,
        "7244": 97,
        "7245": 76,
        "7246": 97,
        "7247": 171,
        "7248": 2,
        "7249": 3,
        "7250": 142,
        "7251": 121,
        "7252": 229,
        "7253": 95,
        "7254": 105,
        "7255": 62,
        "7256": 196,
        "7257": 100,
        "7258": 207,
        "7259": 151,
        "7260": 182,
        "7261": 78,
        "7262": 21,
        "7263": 197,
        "7264": 1,
        "7265": 178,
        "7266": 241,
        "7267": 233,
        "7268": 109,
        "7269": 86,
        "7270": 230,
        "7271": 98,
        "7272": 110,
        "7273": 28,
        "7274": 133,
        "7275": 63,
        "7276": 78,
        "7277": 47,
        "7278": 29,
        "7279": 24,
        "7280": 42,
        "7281": 162,
        "7282": 72,
        "7283": 115,
        "7284": 192,
        "7285": 246,
        "7286": 179,
        "7287": 157,
        "7288": 238,
        "7289": 29,
        "7290": 20,
        "7291": 248,
        "7292": 46,
        "7293": 125,
        "7294": 231,
        "7295": 26,
        "7296": 142,
        "7297": 137,
        "7298": 14,
        "7299": 136,
        "7300": 41,
        "7301": 200,
        "7302": 130,
        "7303": 0,
        "7304": 116,
        "7305": 233,
        "7306": 246,
        "7307": 130,
        "7308": 113,
        "7309": 3,
        "7310": 185,
        "7311": 72,
        "7312": 70,
        "7313": 142,
        "7314": 132,
        "7315": 131,
        "7316": 147,
        "7317": 192,
        "7318": 54,
        "7319": 78,
        "7320": 115,
        "7321": 164,
        "7322": 5,
        "7323": 190,
        "7324": 125,
        "7325": 130,
        "7326": 73,
        "7327": 186,
        "7328": 69,
        "7329": 220,
        "7330": 27,
        "7331": 100,
        "7332": 164,
        "7333": 38,
        "7334": 228,
        "7335": 119,
        "7336": 29,
        "7337": 7,
        "7338": 80,
        "7339": 113,
        "7340": 139,
        "7341": 135,
        "7342": 181,
        "7343": 144,
        "7344": 190,
        "7345": 255,
        "7346": 73,
        "7347": 153,
        "7348": 190,
        "7349": 245,
        "7350": 94,
        "7351": 132,
        "7352": 237,
        "7353": 54,
        "7354": 235,
        "7355": 117,
        "7356": 159,
        "7357": 52,
        "7358": 20,
        "7359": 143,
        "7360": 33,
        "7361": 77,
        "7362": 1,
        "7363": 245,
        "7364": 68,
        "7365": 38,
        "7366": 145,
        "7367": 7,
        "7368": 56,
        "7369": 24,
        "7370": 31,
        "7371": 168,
        "7372": 239,
        "7373": 115,
        "7374": 160,
        "7375": 35,
        "7376": 158,
        "7377": 243,
        "7378": 64,
        "7379": 152,
        "7380": 44,
        "7381": 149,
        "7382": 226,
        "7383": 79,
        "7384": 232,
        "7385": 186,
        "7386": 35,
        "7387": 235,
        "7388": 7,
        "7389": 166,
        "7390": 55,
        "7391": 51,
        "7392": 22,
        "7393": 2,
        "7394": 34,
        "7395": 9,
        "7396": 47,
        "7397": 82,
        "7398": 85,
        "7399": 182,
        "7400": 63,
        "7401": 34,
        "7402": 36,
        "7403": 153,
        "7404": 227,
        "7405": 157,
        "7406": 80,
        "7407": 32,
        "7408": 219,
        "7409": 52,
        "7410": 130,
        "7411": 136,
        "7412": 32,
        "7413": 112,
        "7414": 20,
        "7415": 127,
        "7416": 57,
        "7417": 225,
        "7418": 172,
        "7419": 150,
        "7420": 182,
        "7421": 247,
        "7422": 15,
        "7423": 108,
        "7424": 169,
        "7425": 184,
        "7426": 128,
        "7427": 97,
        "7428": 242,
        "7429": 74,
        "7430": 176,
        "7431": 196,
        "7432": 159,
        "7433": 115,
        "7434": 138,
        "7435": 4,
        "7436": 146,
        "7437": 65,
        "7438": 95,
        "7439": 178,
        "7440": 203,
        "7441": 115,
        "7442": 199,
        "7443": 161,
        "7444": 3,
        "7445": 105,
        "7446": 170,
        "7447": 162,
        "7448": 102,
        "7449": 55,
        "7450": 53,
        "7451": 143,
        "7452": 158,
        "7453": 127,
        "7454": 180,
        "7455": 134,
        "7456": 11,
        "7457": 208,
        "7458": 176,
        "7459": 218,
        "7460": 0,
        "7461": 154,
        "7462": 195,
        "7463": 166,
        "7464": 56,
        "7465": 18,
        "7466": 247,
        "7467": 63,
        "7468": 88,
        "7469": 199,
        "7470": 179,
        "7471": 70,
        "7472": 131,
        "7473": 21,
        "7474": 50,
        "7475": 133,
        "7476": 180,
        "7477": 169,
        "7478": 62,
        "7479": 67,
        "7480": 99,
        "7481": 186,
        "7482": 67,
        "7483": 234,
        "7484": 144,
        "7485": 164,
        "7486": 98,
        "7487": 103,
        "7488": 169,
        "7489": 28,
        "7490": 150,
        "7491": 82,
        "7492": 200,
        "7493": 13,
        "7494": 7,
        "7495": 39,
        "7496": 209,
        "7497": 19,
        "7498": 120,
        "7499": 182,
        "7500": 140,
        "7501": 28,
        "7502": 32,
        "7503": 253,
        "7504": 78,
        "7505": 223,
        "7506": 189,
        "7507": 212,
        "7508": 149,
        "7509": 61,
        "7510": 94,
        "7511": 27,
        "7512": 216,
        "7513": 27,
        "7514": 3,
        "7515": 245,
        "7516": 16,
        "7517": 29,
        "7518": 57,
        "7519": 62,
        "7520": 28,
        "7521": 125,
        "7522": 119,
        "7523": 58,
        "7524": 131,
        "7525": 162,
        "7526": 10,
        "7527": 158,
        "7528": 208,
        "7529": 139,
        "7530": 131,
        "7531": 233,
        "7532": 224,
        "7533": 95,
        "7534": 142,
        "7535": 92,
        "7536": 39,
        "7537": 40,
        "7538": 183,
        "7539": 8,
        "7540": 38,
        "7541": 138,
        "7542": 44,
        "7543": 213,
        "7544": 43,
        "7545": 25,
        "7546": 58,
        "7547": 105,
        "7548": 65,
        "7549": 24,
        "7550": 66,
        "7551": 240,
        "7552": 141,
        "7553": 185,
        "7554": 52,
        "7555": 246,
        "7556": 134,
        "7557": 242,
        "7558": 232,
        "7559": 181,
        "7560": 101,
        "7561": 120,
        "7562": 190,
        "7563": 144,
        "7564": 244,
        "7565": 5,
        "7566": 121,
        "7567": 183,
        "7568": 171,
        "7569": 55,
        "7570": 203,
        "7571": 219,
        "7572": 66,
        "7573": 116,
        "7574": 179,
        "7575": 135,
        "7576": 65,
        "7577": 211,
        "7578": 242,
        "7579": 113,
        "7580": 117,
        "7581": 72,
        "7582": 252,
        "7583": 40,
        "7584": 138,
        "7585": 82,
        "7586": 108,
        "7587": 171,
        "7588": 107,
        "7589": 85,
        "7590": 91,
        "7591": 229,
        "7592": 69,
        "7593": 3,
        "7594": 195,
        "7595": 104,
        "7596": 187,
        "7597": 218,
        "7598": 246,
        "7599": 237,
        "7600": 73,
        "7601": 176,
        "7602": 13,
        "7603": 142,
        "7604": 90,
        "7605": 48,
        "7606": 94,
        "7607": 14,
        "7608": 7,
        "7609": 226,
        "7610": 236,
        "7611": 155,
        "7612": 189,
        "7613": 145,
        "7614": 165,
        "7615": 1,
        "7616": 104,
        "7617": 207,
        "7618": 83,
        "7619": 113,
        "7620": 92,
        "7621": 151,
        "7622": 93,
        "7623": 15,
        "7624": 56,
        "7625": 212,
        "7626": 170,
        "7627": 206,
        "7628": 153,
        "7629": 136,
        "7630": 26,
        "7631": 110,
        "7632": 111,
        "7633": 119,
        "7634": 173,
        "7635": 158,
        "7636": 180,
        "7637": 176,
        "7638": 72,
        "7639": 151,
        "7640": 177,
        "7641": 138,
        "7642": 152,
        "7643": 38,
        "7644": 251,
        "7645": 158,
        "7646": 43,
        "7647": 147,
        "7648": 179,
        "7649": 167,
        "7650": 239,
        "7651": 246,
        "7652": 222,
        "7653": 228,
        "7654": 177,
        "7655": 51,
        "7656": 81,
        "7657": 200,
        "7658": 129,
        "7659": 209,
        "7660": 124,
        "7661": 33,
        "7662": 155,
        "7663": 239,
        "7664": 209,
        "7665": 7,
        "7666": 89,
        "7667": 95,
        "7668": 120,
        "7669": 114,
        "7670": 163,
        "7671": 12,
        "7672": 96,
        "7673": 56,
        "7674": 245,
        "7675": 178,
        "7676": 243,
        "7677": 137,
        "7678": 65,
        "7679": 176,
        "7680": 120,
        "7681": 245,
        "7682": 0,
        "7683": 152,
        "7684": 241,
        "7685": 138,
        "7686": 218,
        "7687": 128,
        "7688": 105,
        "7689": 222,
        "7690": 118,
        "7691": 2,
        "7692": 195,
        "7693": 213,
        "7694": 133,
        "7695": 37,
        "7696": 43,
        "7697": 35,
        "7698": 30,
        "7699": 71,
        "7700": 11,
        "7701": 103,
        "7702": 51,
        "7703": 188,
        "7704": 66,
        "7705": 255,
        "7706": 21,
        "7707": 14,
        "7708": 119,
        "7709": 178,
        "7710": 199,
        "7711": 73,
        "7712": 185,
        "7713": 228,
        "7714": 150,
        "7715": 83,
        "7716": 88,
        "7717": 100,
        "7718": 187,
        "7719": 118,
        "7720": 184,
        "7721": 254,
        "7722": 168,
        "7723": 10,
        "7724": 187,
        "7725": 46,
        "7726": 144,
        "7727": 106,
        "7728": 168,
        "7729": 243,
        "7730": 7,
        "7731": 145,
        "7732": 58,
        "7733": 105,
        "7734": 172,
        "7735": 34,
        "7736": 55,
        "7737": 113,
        "7738": 98,
        "7739": 171,
        "7740": 79,
        "7741": 97,
        "7742": 222,
        "7743": 32,
        "7744": 195,
        "7745": 90,
        "7746": 59,
        "7747": 113,
        "7748": 1,
        "7749": 43,
        "7750": 252,
        "7751": 227,
        "7752": 115,
        "7753": 95,
        "7754": 14,
        "7755": 122,
        "7756": 46,
        "7757": 201,
        "7758": 151,
        "7759": 84,
        "7760": 75,
        "7761": 161,
        "7762": 122,
        "7763": 60,
        "7764": 128,
        "7765": 219,
        "7766": 161,
        "7767": 75,
        "7768": 114,
        "7769": 116,
        "7770": 125,
        "7771": 73,
        "7772": 39,
        "7773": 187,
        "7774": 205,
        "7775": 173,
        "7776": 249,
        "7777": 92,
        "7778": 182,
        "7779": 102,
        "7780": 16,
        "7781": 115,
        "7782": 62,
        "7783": 143,
        "7784": 180,
        "7785": 225,
        "7786": 228,
        "7787": 214,
        "7788": 161,
        "7789": 86,
        "7790": 141,
        "7791": 211,
        "7792": 251,
        "7793": 24,
        "7794": 192,
        "7795": 24,
        "7796": 62,
        "7797": 187,
        "7798": 21,
        "7799": 226,
        "7800": 253,
        "7801": 56,
        "7802": 64,
        "7803": 227,
        "7804": 32,
        "7805": 232,
        "7806": 185,
        "7807": 30,
        "7808": 229,
        "7809": 26,
        "7810": 49,
        "7811": 232,
        "7812": 200,
        "7813": 112,
        "7814": 40,
        "7815": 186,
        "7816": 219,
        "7817": 60,
        "7818": 7,
        "7819": 196,
        "7820": 203,
        "7821": 84,
        "7822": 171,
        "7823": 88,
        "7824": 205,
        "7825": 213,
        "7826": 104,
        "7827": 142,
        "7828": 50,
        "7829": 190,
        "7830": 137,
        "7831": 112,
        "7832": 216,
        "7833": 67,
        "7834": 3,
        "7835": 182,
        "7836": 209,
        "7837": 133,
        "7838": 233,
        "7839": 149,
        "7840": 152,
        "7841": 22,
        "7842": 31,
        "7843": 105,
        "7844": 219,
        "7845": 196,
        "7846": 28,
        "7847": 91,
        "7848": 168,
        "7849": 251,
        "7850": 247,
        "7851": 87,
        "7852": 168,
        "7853": 164,
        "7854": 162,
        "7855": 202,
        "7856": 191,
        "7857": 123,
        "7858": 55,
        "7859": 59,
        "7860": 243,
        "7861": 255,
        "7862": 124,
        "7863": 173,
        "7864": 189,
        "7865": 158,
        "7866": 87,
        "7867": 121,
        "7868": 245,
        "7869": 69,
        "7870": 14,
        "7871": 37,
        "7872": 237,
        "7873": 194,
        "7874": 115,
        "7875": 36,
        "7876": 119,
        "7877": 205,
        "7878": 225,
        "7879": 141,
        "7880": 54,
        "7881": 24,
        "7882": 17,
        "7883": 2,
        "7884": 237,
        "7885": 100,
        "7886": 37,
        "7887": 182,
        "7888": 53,
        "7889": 138,
        "7890": 118,
        "7891": 152,
        "7892": 170,
        "7893": 137,
        "7894": 12,
        "7895": 228,
        "7896": 37,
        "7897": 238,
        "7898": 176,
        "7899": 54,
        "7900": 115,
        "7901": 255,
        "7902": 103,
        "7903": 107,
        "7904": 219,
        "7905": 255,
        "7906": 88,
        "7907": 54,
        "7908": 39,
        "7909": 92,
        "7910": 242,
        "7911": 99,
        "7912": 196,
        "7913": 186,
        "7914": 245,
        "7915": 95,
        "7916": 84,
        "7917": 78,
        "7918": 36,
        "7919": 111,
        "7920": 83,
        "7921": 156,
        "7922": 152,
        "7923": 49,
        "7924": 125,
        "7925": 249,
        "7926": 111,
        "7927": 162,
        "7928": 254,
        "7929": 119,
        "7930": 214,
        "7931": 41,
        "7932": 65,
        "7933": 166,
        "7934": 248,
        "7935": 46,
        "7936": 25,
        "7937": 43,
        "7938": 38,
        "7939": 40,
        "7940": 226,
        "7941": 3,
        "7942": 237,
        "7943": 251,
        "7944": 10,
        "7945": 60,
        "7946": 97,
        "7947": 220,
        "7948": 44,
        "7949": 18,
        "7950": 150,
        "7951": 24,
        "7952": 93,
        "7953": 53,
        "7954": 8,
        "7955": 116,
        "7956": 174,
        "7957": 162,
        "7958": 238,
        "7959": 14,
        "7960": 159,
        "7961": 35,
        "7962": 49,
        "7963": 55,
        "7964": 66,
        "7965": 43,
        "7966": 240,
        "7967": 80,
        "7968": 20,
        "7969": 230,
        "7970": 224,
        "7971": 210,
        "7972": 254,
        "7973": 224,
        "7974": 4,
        "7975": 115,
        "7976": 187,
        "7977": 207,
        "7978": 227,
        "7979": 45,
        "7980": 91,
        "7981": 95,
        "7982": 127,
        "7983": 104,
        "7984": 100,
        "7985": 214,
        "7986": 59,
        "7987": 226,
        "7988": 114,
        "7989": 246,
        "7990": 64,
        "7991": 150,
        "7992": 99,
        "7993": 228,
        "7994": 250,
        "7995": 116,
        "7996": 222,
        "7997": 221,
        "7998": 120,
        "7999": 151,
        "8000": 222,
        "8001": 63,
        "8002": 198,
        "8003": 187,
        "8004": 157,
        "8005": 28,
        "8006": 129,
        "8007": 128,
        "8008": 44,
        "8009": 165,
        "8010": 192,
        "8011": 179,
        "8012": 217,
        "8013": 181,
        "8014": 230,
        "8015": 110,
        "8016": 163,
        "8017": 163,
        "8018": 38,
        "8019": 102,
        "8020": 247,
        "8021": 48,
        "8022": 245,
        "8023": 81,
        "8024": 42,
        "8025": 179,
        "8026": 201,
        "8027": 95,
        "8028": 129,
        "8029": 48,
        "8030": 210,
        "8031": 128,
        "8032": 125,
        "8033": 92,
        "8034": 69,
        "8035": 86,
        "8036": 124,
        "8037": 29,
        "8038": 214,
        "8039": 52,
        "8040": 53,
        "8041": 62,
        "8042": 9,
        "8043": 134,
        "8044": 206,
        "8045": 84,
        "8046": 252,
        "8047": 98,
        "8048": 123,
        "8049": 204,
        "8050": 210,
        "8051": 5,
        "8052": 146,
        "8053": 76,
        "8054": 234,
        "8055": 212,
        "8056": 85,
        "8057": 202,
        "8058": 222,
        "8059": 125,
        "8060": 97,
        "8061": 139,
        "8062": 163,
        "8063": 201,
        "8064": 233,
        "8065": 170,
        "8066": 175,
        "8067": 90,
        "8068": 129,
        "8069": 224,
        "8070": 234,
        "8071": 73,
        "8072": 109,
        "8073": 214,
        "8074": 242,
        "8075": 79,
        "8076": 77,
        "8077": 55,
        "8078": 153,
        "8079": 176,
        "8080": 130,
        "8081": 199,
        "8082": 234,
        "8083": 247,
        "8084": 181,
        "8085": 246,
        "8086": 185,
        "8087": 174,
        "8088": 215,
        "8089": 156,
        "8090": 45,
        "8091": 118,
        "8092": 122,
        "8093": 123,
        "8094": 139,
        "8095": 248,
        "8096": 167,
        "8097": 25,
        "8098": 140,
        "8099": 154,
        "8100": 182,
        "8101": 218,
        "8102": 148,
        "8103": 122,
        "8104": 19,
        "8105": 126,
        "8106": 135,
        "8107": 245,
        "8108": 69,
        "8109": 159,
        "8110": 2,
        "8111": 241,
        "8112": 235,
        "8113": 13,
        "8114": 90,
        "8115": 84,
        "8116": 118,
        "8117": 17,
        "8118": 145,
        "8119": 210,
        "8120": 129,
        "8121": 32,
        "8122": 67,
        "8123": 255,
        "8124": 65,
        "8125": 58,
        "8126": 99,
        "8127": 146,
        "8128": 78,
        "8129": 146,
        "8130": 216,
        "8131": 55,
        "8132": 19,
        "8133": 255,
        "8134": 249,
        "8135": 180,
        "8136": 32,
        "8137": 98,
        "8138": 125,
        "8139": 93,
        "8140": 50,
        "8141": 100,
        "8142": 178,
        "8143": 164,
        "8144": 164,
        "8145": 57,
        "8146": 227,
        "8147": 15,
        "8148": 156,
        "8149": 249,
        "8150": 7,
        "8151": 119,
        "8152": 47,
        "8153": 166,
        "8154": 38,
        "8155": 226,
        "8156": 80,
        "8157": 251,
        "8158": 87,
        "8159": 91,
        "8160": 208,
        "8161": 80,
        "8162": 193,
        "8163": 111,
        "8164": 224,
        "8165": 255,
        "8166": 24,
        "8167": 39,
        "8168": 165,
        "8169": 241,
        "8170": 127,
        "8171": 160,
        "8172": 223,
        "8173": 37,
        "8174": 91,
        "8175": 202,
        "8176": 107,
        "8177": 195,
        "8178": 81,
        "8179": 130,
        "8180": 114,
        "8181": 14,
        "8182": 197,
        "8183": 159,
        "8184": 210,
        "8185": 101,
        "8186": 149,
        "8187": 17,
        "8188": 165,
        "8189": 123,
        "8190": 88,
        "8191": 117,
        "8192": 136,
        "8193": 71,
        "8194": 49,
        "8195": 155,
        "8196": 72,
        "8197": 132,
        "8198": 163,
        "8199": 187,
        "8200": 158,
        "8201": 0,
        "8202": 12,
        "8203": 61,
        "8204": 247,
        "8205": 101,
        "8206": 93,
        "8207": 169,
        "8208": 67,
        "8209": 84,
        "8210": 88,
        "8211": 51,
        "8212": 52,
        "8213": 134,
        "8214": 58,
        "8215": 138,
        "8216": 136,
        "8217": 250,
        "8218": 36,
        "8219": 69,
        "8220": 161,
        "8221": 191,
        "8222": 184,
        "8223": 112,
        "8224": 59,
        "8225": 80,
        "8226": 94,
        "8227": 234,
        "8228": 84,
        "8229": 192,
        "8230": 236,
        "8231": 118,
        "8232": 211,
        "8233": 10,
        "8234": 22,
        "8235": 72,
        "8236": 9,
        "8237": 96,
        "8238": 148,
        "8239": 17,
        "8240": 116,
        "8241": 217,
        "8242": 127,
        "8243": 228,
        "8244": 116,
        "8245": 178,
        "8246": 94,
        "8247": 90,
        "8248": 87,
        "8249": 49,
        "8250": 216,
        "8251": 93,
        "8252": 180,
        "8253": 46,
        "8254": 218,
        "8255": 73,
        "8256": 56,
        "8257": 86,
        "8258": 31,
        "8259": 168,
        "8260": 156,
        "8261": 151,
        "8262": 23,
        "8263": 3,
        "8264": 174,
        "8265": 180,
        "8266": 157,
        "8267": 35,
        "8268": 22,
        "8269": 94,
        "8270": 24,
        "8271": 139,
        "8272": 147,
        "8273": 214,
        "8274": 4,
        "8275": 59,
        "8276": 160,
        "8277": 117,
        "8278": 116,
        "8279": 176,
        "8280": 228,
        "8281": 186,
        "8282": 138,
        "8283": 106,
        "8284": 20,
        "8285": 37,
        "8286": 254,
        "8287": 252,
        "8288": 116,
        "8289": 195,
        "8290": 135,
        "8291": 59,
        "8292": 125,
        "8293": 26,
        "8294": 203,
        "8295": 123,
        "8296": 43,
        "8297": 94,
        "8298": 209,
        "8299": 211,
        "8300": 189,
        "8301": 118,
        "8302": 86,
        "8303": 42,
        "8304": 215,
        "8305": 162,
        "8306": 152,
        "8307": 146,
        "8308": 194,
        "8309": 69,
        "8310": 85,
        "8311": 93,
        "8312": 148,
        "8313": 72,
        "8314": 97,
        "8315": 121,
        "8316": 155,
        "8317": 242,
        "8318": 206,
        "8319": 158,
        "8320": 165,
        "8321": 159,
        "8322": 104,
        "8323": 87,
        "8324": 190,
        "8325": 21,
        "8326": 251,
        "8327": 168,
        "8328": 108,
        "8329": 111,
        "8330": 132,
        "8331": 161,
        "8332": 231,
        "8333": 25,
        "8334": 43,
        "8335": 178,
        "8336": 190,
        "8337": 99,
        "8338": 158,
        "8339": 127,
        "8340": 194,
        "8341": 55,
        "8342": 130,
        "8343": 170,
        "8344": 149,
        "8345": 16,
        "8346": 219,
        "8347": 94,
        "8348": 58,
        "8349": 242,
        "8350": 187,
        "8351": 127,
        "8352": 135,
        "8353": 211,
        "8354": 11,
        "8355": 185,
        "8356": 186,
        "8357": 139,
        "8358": 144,
        "8359": 113,
        "8360": 255,
        "8361": 97,
        "8362": 14,
        "8363": 7,
        "8364": 216,
        "8365": 55,
        "8366": 75,
        "8367": 82,
        "8368": 117,
        "8369": 160,
        "8370": 28,
        "8371": 186,
        "8372": 145,
        "8373": 99,
        "8374": 255,
        "8375": 175,
        "8376": 125,
        "8377": 171,
        "8378": 11,
        "8379": 28,
        "8380": 165,
        "8381": 132,
        "8382": 42,
        "8383": 71,
        "8384": 230,
        "8385": 33,
        "8386": 194,
        "8387": 223,
        "8388": 152,
        "8389": 96,
        "8390": 32,
        "8391": 181,
        "8392": 75,
        "8393": 214,
        "8394": 201,
        "8395": 190,
        "8396": 173,
        "8397": 19,
        "8398": 174,
        "8399": 235,
        "8400": 97,
        "8401": 29,
        "8402": 58,
        "8403": 91,
        "8404": 236,
        "8405": 147,
        "8406": 240,
        "8407": 37,
        "8408": 95,
        "8409": 50,
        "8410": 187,
        "8411": 221,
        "8412": 131,
        "8413": 80,
        "8414": 136,
        "8415": 161,
        "8416": 61,
        "8417": 20,
        "8418": 63,
        "8419": 164,
        "8420": 189,
        "8421": 118,
        "8422": 142,
        "8423": 114,
        "8424": 58,
        "8425": 86,
        "8426": 98,
        "8427": 254,
        "8428": 86,
        "8429": 205,
        "8430": 6,
        "8431": 175,
        "8432": 84,
        "8433": 111,
        "8434": 102,
        "8435": 136,
        "8436": 181,
        "8437": 122,
        "8438": 234,
        "8439": 211,
        "8440": 52,
        "8441": 76,
        "8442": 109,
        "8443": 105,
        "8444": 242,
        "8445": 159,
        "8446": 173,
        "8447": 236,
        "8448": 141,
        "8449": 223,
        "8450": 152,
        "8451": 48,
        "8452": 207,
        "8453": 244,
        "8454": 231,
        "8455": 75,
        "8456": 212,
        "8457": 45,
        "8458": 78,
        "8459": 35,
        "8460": 102,
        "8461": 207,
        "8462": 63,
        "8463": 136,
        "8464": 224,
        "8465": 169,
        "8466": 122,
        "8467": 182,
        "8468": 79,
        "8469": 33,
        "8470": 94,
        "8471": 25,
        "8472": 69,
        "8473": 246,
        "8474": 242,
        "8475": 200,
        "8476": 211,
        "8477": 120,
        "8478": 230,
        "8479": 186,
        "8480": 202,
        "8481": 41,
        "8482": 28,
        "8483": 72,
        "8484": 58,
        "8485": 217,
        "8486": 203,
        "8487": 152,
        "8488": 130,
        "8489": 76,
        "8490": 51,
        "8491": 127,
        "8492": 175,
        "8493": 224,
        "8494": 245,
        "8495": 61,
        "8496": 203,
        "8497": 209,
        "8498": 231,
        "8499": 38,
        "8500": 191,
        "8501": 250,
        "8502": 67,
        "8503": 252,
        "8504": 254,
        "8505": 154,
        "8506": 250,
        "8507": 133,
        "8508": 122,
        "8509": 184,
        "8510": 223,
        "8511": 79,
        "8512": 32,
        "8513": 86,
        "8514": 34,
        "8515": 196,
        "8516": 63,
        "8517": 118,
        "8518": 155,
        "8519": 14,
        "8520": 77,
        "8521": 112,
        "8522": 163,
        "8523": 241,
        "8524": 88,
        "8525": 88,
        "8526": 84,
        "8527": 60,
        "8528": 88,
        "8529": 104,
        "8530": 151,
        "8531": 95,
        "8532": 245,
        "8533": 30,
        "8534": 71,
        "8535": 12,
        "8536": 0,
        "8537": 4,
        "8538": 13,
        "8539": 40,
        "8540": 170,
        "8541": 69,
        "8542": 74,
        "8543": 2,
        "8544": 71,
        "8545": 41,
        "8546": 146,
        "8547": 77,
        "8548": 12,
        "8549": 180,
        "8550": 87,
        "8551": 194,
        "8552": 105,
        "8553": 131,
        "8554": 43,
        "8555": 21,
        "8556": 158,
        "8557": 69,
        "8558": 79,
        "8559": 180,
        "8560": 4,
        "8561": 198,
        "8562": 195,
        "8563": 99,
        "8564": 182,
        "8565": 176,
        "8566": 20,
        "8567": 55,
        "8568": 191,
        "8569": 205,
        "8570": 159,
        "8571": 106,
        "8572": 7,
        "8573": 219,
        "8574": 245,
        "8575": 60,
        "8576": 226,
        "8577": 109,
        "8578": 238,
        "8579": 158,
        "8580": 127,
        "8581": 107,
        "8582": 224,
        "8583": 104,
        "8584": 151,
        "8585": 49,
        "8586": 3,
        "8587": 193,
        "8588": 119,
        "8589": 249,
        "8590": 224,
        "8591": 230,
        "8592": 123,
        "8593": 254,
        "8594": 158,
        "8595": 227,
        "8596": 84,
        "8597": 53,
        "8598": 160,
        "8599": 157,
        "8600": 21,
        "8601": 21,
        "8602": 164,
        "8603": 50,
        "8604": 132,
        "8605": 215,
        "8606": 53,
        "8607": 144,
        "8608": 148,
        "8609": 19,
        "8610": 47,
        "8611": 120,
        "8612": 133,
        "8613": 5,
        "8614": 219,
        "8615": 35,
        "8616": 245,
        "8617": 201,
        "8618": 116,
        "8619": 144,
        "8620": 78,
        "8621": 10,
        "8622": 17,
        "8623": 128,
        "8624": 104,
        "8625": 68,
        "8626": 4,
        "8627": 42,
        "8628": 151,
        "8629": 14,
        "8630": 89,
        "8631": 154,
        "8632": 115,
        "8633": 81,
        "8634": 58,
        "8635": 224,
        "8636": 110,
        "8637": 134,
        "8638": 242,
        "8639": 195,
        "8640": 38,
        "8641": 114,
        "8642": 185,
        "8643": 227,
        "8644": 112,
        "8645": 254,
        "8646": 120,
        "8647": 137,
        "8648": 148,
        "8649": 223,
        "8650": 20,
        "8651": 20,
        "8652": 13,
        "8653": 24,
        "8654": 26,
        "8655": 26,
        "8656": 182,
        "8657": 231,
        "8658": 50,
        "8659": 80,
        "8660": 161,
        "8661": 197,
        "8662": 172,
        "8663": 193,
        "8664": 132,
        "8665": 106,
        "8666": 241,
        "8667": 48,
        "8668": 179,
        "8669": 36,
        "8670": 20,
        "8671": 110,
        "8672": 253,
        "8673": 158,
        "8674": 23,
        "8675": 43,
        "8676": 137,
        "8677": 152,
        "8678": 233,
        "8679": 87,
        "8680": 209,
        "8681": 90,
        "8682": 139,
        "8683": 62,
        "8684": 107,
        "8685": 63,
        "8686": 169,
        "8687": 70,
        "8688": 92,
        "8689": 155,
        "8690": 109,
        "8691": 93,
        "8692": 50,
        "8693": 86,
        "8694": 213,
        "8695": 232,
        "8696": 165,
        "8697": 248,
        "8698": 217,
        "8699": 70,
        "8700": 148,
        "8701": 143,
        "8702": 176,
        "8703": 34,
        "8704": 225,
        "8705": 112,
        "8706": 215,
        "8707": 161,
        "8708": 169,
        "8709": 173,
        "8710": 124,
        "8711": 179,
        "8712": 80,
        "8713": 105,
        "8714": 20,
        "8715": 127,
        "8716": 87,
        "8717": 118,
        "8718": 253,
        "8719": 80,
        "8720": 184,
        "8721": 145,
        "8722": 90,
        "8723": 236,
        "8724": 122,
        "8725": 180,
        "8726": 182,
        "8727": 12,
        "8728": 35,
        "8729": 240,
        "8730": 252,
        "8731": 28,
        "8732": 152,
        "8733": 9,
        "8734": 118,
        "8735": 186,
        "8736": 179,
        "8737": 37,
        "8738": 225,
        "8739": 205,
        "8740": 140,
        "8741": 177,
        "8742": 205,
        "8743": 164,
        "8744": 58,
        "8745": 39,
        "8746": 215,
        "8747": 120,
        "8748": 155,
        "8749": 243,
        "8750": 86,
        "8751": 202,
        "8752": 49,
        "8753": 11,
        "8754": 179,
        "8755": 31,
        "8756": 189,
        "8757": 70,
        "8758": 152,
        "8759": 132,
        "8760": 251,
        "8761": 46,
        "8762": 186,
        "8763": 127,
        "8764": 143,
        "8765": 170,
        "8766": 134,
        "8767": 17,
        "8768": 166,
        "8769": 240,
        "8770": 7,
        "8771": 111,
        "8772": 192,
        "8773": 238,
        "8774": 222,
        "8775": 23,
        "8776": 5,
        "8777": 23,
        "8778": 244,
        "8779": 216,
        "8780": 58,
        "8781": 137,
        "8782": 155,
        "8783": 109,
        "8784": 2,
        "8785": 107,
        "8786": 115,
        "8787": 23,
        "8788": 7,
        "8789": 153,
        "8790": 173,
        "8791": 75,
        "8792": 165,
        "8793": 107,
        "8794": 48,
        "8795": 117,
        "8796": 214,
        "8797": 79,
        "8798": 217,
        "8799": 105,
        "8800": 79,
        "8801": 51,
        "8802": 253,
        "8803": 170,
        "8804": 130,
        "8805": 183,
        "8806": 147,
        "8807": 123,
        "8808": 210,
        "8809": 136,
        "8810": 109,
        "8811": 94,
        "8812": 123,
        "8813": 126,
        "8814": 12,
        "8815": 210,
        "8816": 195,
        "8817": 143,
        "8818": 159,
        "8819": 176,
        "8820": 38,
        "8821": 117,
        "8822": 176,
        "8823": 61,
        "8824": 131,
        "8825": 147,
        "8826": 151,
        "8827": 57,
        "8828": 10,
        "8829": 236,
        "8830": 232,
        "8831": 12,
        "8832": 208,
        "8833": 105,
        "8834": 190,
        "8835": 200,
        "8836": 40,
        "8837": 229,
        "8838": 229,
        "8839": 136,
        "8840": 132,
        "8841": 85,
        "8842": 225,
        "8843": 127,
        "8844": 218,
        "8845": 155,
        "8846": 26,
        "8847": 200,
        "8848": 14,
        "8849": 94,
        "8850": 70,
        "8851": 92,
        "8852": 248,
        "8853": 9,
        "8854": 173,
        "8855": 251,
        "8856": 33,
        "8857": 249,
        "8858": 213,
        "8859": 55,
        "8860": 168,
        "8861": 208,
        "8862": 104,
        "8863": 69,
        "8864": 108,
        "8865": 135,
        "8866": 185,
        "8867": 114,
        "8868": 70,
        "8869": 210,
        "8870": 239,
        "8871": 8,
        "8872": 55,
        "8873": 118,
        "8874": 72,
        "8875": 242,
        "8876": 220,
        "8877": 154,
        "8878": 235,
        "8879": 11,
        "8880": 103,
        "8881": 74,
        "8882": 53,
        "8883": 120,
        "8884": 240,
        "8885": 57,
        "8886": 99,
        "8887": 138,
        "8888": 234,
        "8889": 137,
        "8890": 63,
        "8891": 151,
        "8892": 139,
        "8893": 154,
        "8894": 25,
        "8895": 154,
        "8896": 74,
        "8897": 159,
        "8898": 240,
        "8899": 126,
        "8900": 45,
        "8901": 130,
        "8902": 217,
        "8903": 215,
        "8904": 140,
        "8905": 56,
        "8906": 184,
        "8907": 174,
        "8908": 46,
        "8909": 200,
        "8910": 71,
        "8911": 208,
        "8912": 185,
        "8913": 238,
        "8914": 36,
        "8915": 90,
        "8916": 218,
        "8917": 74,
        "8918": 10,
        "8919": 144,
        "8920": 216,
        "8921": 227,
        "8922": 127,
        "8923": 15,
        "8924": 170,
        "8925": 168,
        "8926": 92,
        "8927": 196,
        "8928": 55,
        "8929": 123,
        "8930": 5,
        "8931": 54,
        "8932": 250,
        "8933": 121,
        "8934": 208,
        "8935": 175,
        "8936": 97,
        "8937": 180,
        "8938": 50,
        "8939": 26,
        "8940": 71,
        "8941": 53,
        "8942": 105,
        "8943": 249,
        "8944": 146,
        "8945": 225,
        "8946": 145,
        "8947": 115,
        "8948": 20,
        "8949": 150,
        "8950": 218,
        "8951": 34,
        "8952": 178,
        "8953": 10,
        "8954": 170,
        "8955": 172,
        "8956": 96,
        "8957": 64,
        "8958": 161,
        "8959": 93,
        "8960": 129,
        "8961": 209,
        "8962": 127,
        "8963": 23,
        "8964": 230,
        "8965": 194,
        "8966": 142,
        "8967": 241,
        "8968": 215,
        "8969": 153,
        "8970": 186,
        "8971": 85,
        "8972": 166,
        "8973": 92,
        "8974": 84,
        "8975": 202,
        "8976": 253,
        "8977": 125,
        "8978": 75,
        "8979": 6,
        "8980": 103,
        "8981": 5,
        "8982": 25,
        "8983": 158,
        "8984": 224,
        "8985": 20,
        "8986": 197,
        "8987": 200,
        "8988": 37,
        "8989": 138,
        "8990": 140,
        "8991": 72,
        "8992": 49,
        "8993": 17,
        "8994": 24,
        "8995": 246,
        "8996": 27,
        "8997": 171,
        "8998": 91,
        "8999": 110,
        "9000": 96,
        "9001": 249,
        "9002": 102,
        "9003": 81,
        "9004": 16,
        "9005": 193,
        "9006": 233,
        "9007": 89,
        "9008": 160,
        "9009": 82,
        "9010": 91,
        "9011": 94,
        "9012": 226,
        "9013": 41,
        "9014": 190,
        "9015": 56,
        "9016": 151,
        "9017": 64,
        "9018": 228,
        "9019": 84,
        "9020": 6,
        "9021": 252,
        "9022": 48,
        "9023": 3,
        "9024": 66,
        "9025": 159,
        "9026": 175,
        "9027": 185,
        "9028": 148,
        "9029": 66,
        "9030": 50,
        "9031": 37,
        "9032": 207,
        "9033": 194,
        "9034": 62,
        "9035": 168,
        "9036": 133,
        "9037": 180,
        "9038": 151,
        "9039": 243,
        "9040": 120,
        "9041": 135,
        "9042": 152,
        "9043": 183,
        "9044": 32,
        "9045": 222,
        "9046": 49,
        "9047": 6,
        "9048": 151,
        "9049": 133,
        "9050": 43,
        "9051": 153,
        "9052": 28,
        "9053": 27,
        "9054": 241,
        "9055": 83,
        "9056": 41,
        "9057": 156,
        "9058": 116,
        "9059": 53,
        "9060": 112,
        "9061": 141,
        "9062": 69,
        "9063": 189,
        "9064": 132,
        "9065": 206,
        "9066": 252,
        "9067": 202,
        "9068": 163,
        "9069": 179,
        "9070": 205,
        "9071": 69,
        "9072": 194,
        "9073": 214,
        "9074": 201,
        "9075": 19,
        "9076": 219,
        "9077": 49,
        "9078": 55,
        "9079": 175,
        "9080": 217,
        "9081": 46,
        "9082": 226,
        "9083": 92,
        "9084": 185,
        "9085": 115,
        "9086": 121,
        "9087": 87,
        "9088": 138,
        "9089": 239,
        "9090": 127,
        "9091": 135,
        "9092": 50,
        "9093": 169,
        "9094": 207,
        "9095": 195,
        "9096": 230,
        "9097": 248,
        "9098": 4,
        "9099": 186,
        "9100": 22,
        "9101": 176,
        "9102": 222,
        "9103": 73,
        "9104": 225,
        "9105": 143,
        "9106": 184,
        "9107": 86,
        "9108": 113,
        "9109": 228,
        "9110": 88,
        "9111": 222,
        "9112": 249,
        "9113": 11,
        "9114": 194,
        "9115": 31,
        "9116": 106,
        "9117": 144,
        "9118": 130,
        "9119": 202,
        "9120": 221,
        "9121": 30,
        "9122": 109,
        "9123": 189,
        "9124": 236,
        "9125": 249,
        "9126": 247,
        "9127": 241,
        "9128": 115,
        "9129": 25,
        "9130": 231,
        "9131": 34,
        "9132": 154,
        "9133": 27,
        "9134": 165,
        "9135": 246,
        "9136": 31,
        "9137": 242,
        "9138": 174,
        "9139": 191,
        "9140": 225,
        "9141": 23,
        "9142": 205,
        "9143": 140,
        "9144": 78,
        "9145": 203,
        "9146": 68,
        "9147": 93,
        "9148": 122,
        "9149": 65,
        "9150": 189,
        "9151": 155,
        "9152": 203,
        "9153": 84,
        "9154": 76,
        "9155": 39,
        "9156": 67,
        "9157": 214,
        "9158": 233,
        "9159": 37,
        "9160": 204,
        "9161": 124,
        "9162": 129,
        "9163": 248,
        "9164": 152,
        "9165": 16,
        "9166": 152,
        "9167": 74,
        "9168": 6,
        "9169": 58,
        "9170": 82,
        "9171": 66,
        "9172": 173,
        "9173": 38,
        "9174": 152,
        "9175": 146,
        "9176": 187,
        "9177": 78,
        "9178": 214,
        "9179": 127,
        "9180": 32,
        "9181": 172,
        "9182": 159,
        "9183": 186,
        "9184": 175,
        "9185": 87,
        "9186": 30,
        "9187": 63,
        "9188": 229,
        "9189": 32,
        "9190": 19,
        "9191": 117,
        "9192": 241,
        "9193": 240,
        "9194": 21,
        "9195": 2,
        "9196": 151,
        "9197": 2,
        "9198": 101,
        "9199": 92,
        "9200": 213,
        "9201": 177,
        "9202": 208,
        "9203": 40,
        "9204": 52,
        "9205": 59,
        "9206": 7,
        "9207": 116,
        "9208": 81,
        "9209": 12,
        "9210": 252,
        "9211": 105,
        "9212": 239,
        "9213": 14,
        "9214": 164,
        "9215": 213,
        "9216": 77,
        "9217": 219,
        "9218": 84,
        "9219": 16,
        "9220": 208,
        "9221": 239,
        "9222": 120,
        "9223": 25,
        "9224": 63,
        "9225": 112,
        "9226": 111,
        "9227": 49,
        "9228": 196,
        "9229": 119,
        "9230": 171,
        "9231": 23,
        "9232": 80,
        "9233": 191,
        "9234": 0,
        "9235": 90,
        "9236": 222,
        "9237": 193,
        "9238": 111,
        "9239": 7,
        "9240": 195,
        "9241": 233,
        "9242": 54,
        "9243": 223,
        "9244": 232,
        "9245": 69,
        "9246": 128,
        "9247": 28,
        "9248": 251,
        "9249": 172,
        "9250": 54,
        "9251": 137,
        "9252": 114,
        "9253": 203,
        "9254": 69,
        "9255": 63,
        "9256": 210,
        "9257": 140,
        "9258": 92,
        "9259": 73,
        "9260": 118,
        "9261": 184,
        "9262": 124,
        "9263": 58,
        "9264": 177,
        "9265": 112,
        "9266": 126,
        "9267": 195,
        "9268": 110,
        "9269": 226,
        "9270": 228,
        "9271": 154,
        "9272": 243,
        "9273": 132,
        "9274": 96,
        "9275": 93,
        "9276": 43,
        "9277": 40,
        "9278": 29,
        "9279": 34,
        "9280": 37,
        "9281": 250,
        "9282": 65,
        "9283": 53,
        "9284": 190,
        "9285": 222,
        "9286": 73,
        "9287": 1,
        "9288": 225,
        "9289": 177,
        "9290": 105,
        "9291": 87,
        "9292": 145,
        "9293": 6,
        "9294": 91,
        "9295": 62,
        "9296": 98,
        "9297": 98,
        "9298": 31,
        "9299": 113,
        "9300": 175,
        "9301": 51,
        "9302": 127,
        "9303": 250,
        "9304": 151,
        "9305": 254,
        "9306": 251,
        "9307": 222,
        "9308": 126,
        "9309": 149,
        "9310": 64,
        "9311": 93,
        "9312": 109,
        "9313": 220,
        "9314": 147,
        "9315": 133,
        "9316": 68,
        "9317": 146,
        "9318": 80,
        "9319": 88,
        "9320": 157,
        "9321": 71,
        "9322": 46,
        "9323": 241,
        "9324": 126,
        "9325": 35,
        "9326": 110,
        "9327": 38,
        "9328": 222,
        "9329": 144,
        "9330": 64,
        "9331": 133,
        "9332": 45,
        "9333": 119,
        "9334": 88,
        "9335": 237,
        "9336": 52,
        "9337": 167,
        "9338": 144,
        "9339": 221,
        "9340": 219,
        "9341": 144,
        "9342": 239,
        "9343": 51,
        "9344": 145,
        "9345": 208,
        "9346": 110,
        "9347": 65,
        "9348": 129,
        "9349": 57,
        "9350": 16,
        "9351": 204,
        "9352": 23,
        "9353": 174,
        "9354": 50,
        "9355": 13,
        "9356": 159,
        "9357": 155,
        "9358": 49,
        "9359": 27,
        "9360": 5,
        "9361": 163,
        "9362": 116,
        "9363": 14,
        "9364": 226,
        "9365": 95,
        "9366": 178,
        "9367": 57,
        "9368": 204,
        "9369": 197,
        "9370": 203,
        "9371": 114,
        "9372": 148,
        "9373": 174,
        "9374": 48,
        "9375": 203,
        "9376": 218,
        "9377": 77,
        "9378": 241,
        "9379": 110,
        "9380": 146,
        "9381": 64,
        "9382": 2,
        "9383": 8,
        "9384": 96,
        "9385": 102,
        "9386": 157,
        "9387": 109,
        "9388": 171,
        "9389": 91,
        "9390": 187,
        "9391": 2,
        "9392": 0,
        "9393": 136,
        "9394": 111,
        "9395": 85,
        "9396": 21,
        "9397": 128,
        "9398": 40,
        "9399": 99,
        "9400": 213,
        "9401": 151,
        "9402": 223,
        "9403": 128,
        "9404": 107,
        "9405": 149,
        "9406": 139,
        "9407": 186,
        "9408": 176,
        "9409": 0,
        "9410": 28,
        "9411": 241,
        "9412": 80,
        "9413": 50,
        "9414": 197,
        "9415": 2,
        "9416": 121,
        "9417": 191,
        "9418": 44,
        "9419": 81,
        "9420": 10,
        "9421": 180,
        "9422": 80,
        "9423": 246,
        "9424": 251,
        "9425": 8,
        "9426": 105,
        "9427": 166,
        "9428": 105,
        "9429": 43,
        "9430": 159,
        "9431": 92,
        "9432": 160,
        "9433": 120,
        "9434": 207,
        "9435": 42,
        "9436": 45,
        "9437": 27,
        "9438": 88,
        "9439": 228,
        "9440": 37,
        "9441": 2,
        "9442": 112,
        "9443": 223,
        "9444": 221,
        "9445": 32,
        "9446": 170,
        "9447": 228,
        "9448": 113,
        "9449": 202,
        "9450": 230,
        "9451": 35,
        "9452": 247,
        "9453": 21,
        "9454": 92,
        "9455": 111,
        "9456": 220,
        "9457": 113,
        "9458": 93,
        "9459": 123,
        "9460": 160,
        "9461": 196,
        "9462": 195,
        "9463": 151,
        "9464": 38,
        "9465": 83,
        "9466": 253,
        "9467": 96,
        "9468": 245,
        "9469": 186,
        "9470": 251,
        "9471": 43,
        "9472": 167,
        "9473": 103,
        "9474": 130,
        "9475": 221,
        "9476": 245,
        "9477": 203,
        "9478": 82,
        "9479": 231,
        "9480": 28,
        "9481": 136,
        "9482": 228,
        "9483": 150,
        "9484": 0,
        "9485": 169,
        "9486": 205,
        "9487": 144,
        "9488": 61,
        "9489": 205,
        "9490": 152,
        "9491": 201,
        "9492": 246,
        "9493": 182,
        "9494": 136,
        "9495": 11,
        "9496": 229,
        "9497": 108,
        "9498": 10,
        "9499": 144,
        "9500": 126,
        "9501": 11,
        "9502": 91,
        "9503": 191,
        "9504": 13,
        "9505": 184,
        "9506": 68,
        "9507": 100,
        "9508": 78,
        "9509": 118,
        "9510": 107,
        "9511": 21,
        "9512": 61,
        "9513": 64,
        "9514": 205,
        "9515": 67,
        "9516": 221,
        "9517": 130,
        "9518": 170,
        "9519": 101,
        "9520": 92,
        "9521": 130,
        "9522": 92,
        "9523": 11,
        "9524": 36,
        "9525": 186,
        "9526": 119,
        "9527": 226,
        "9528": 234,
        "9529": 105,
        "9530": 216,
        "9531": 223,
        "9532": 202,
        "9533": 21,
        "9534": 194,
        "9535": 159,
        "9536": 44,
        "9537": 175,
        "9538": 61,
        "9539": 220,
        "9540": 207,
        "9541": 17,
        "9542": 231,
        "9543": 222,
        "9544": 211,
        "9545": 112,
        "9546": 243,
        "9547": 32,
        "9548": 140,
        "9549": 253,
        "9550": 30,
        "9551": 206,
        "9552": 87,
        "9553": 226,
        "9554": 123,
        "9555": 231,
        "9556": 130,
        "9557": 36,
        "9558": 177,
        "9559": 211,
        "9560": 22,
        "9561": 23,
        "9562": 226,
        "9563": 117,
        "9564": 67,
        "9565": 214,
        "9566": 2,
        "9567": 122,
        "9568": 17,
        "9569": 117,
        "9570": 221,
        "9571": 133,
        "9572": 101,
        "9573": 91,
        "9574": 229,
        "9575": 168,
        "9576": 77,
        "9577": 181,
        "9578": 198,
        "9579": 18,
        "9580": 205,
        "9581": 139,
        "9582": 153,
        "9583": 39,
        "9584": 171,
        "9585": 152,
        "9586": 189,
        "9587": 253,
        "9588": 104,
        "9589": 148,
        "9590": 127,
        "9591": 82,
        "9592": 153,
        "9593": 143,
        "9594": 68,
        "9595": 201,
        "9596": 149,
        "9597": 151,
        "9598": 93,
        "9599": 252,
        "9600": 157,
        "9601": 10,
        "9602": 170,
        "9603": 105,
        "9604": 232,
        "9605": 225,
        "9606": 114,
        "9607": 146,
        "9608": 72,
        "9609": 166,
        "9610": 172,
        "9611": 136,
        "9612": 163,
        "9613": 110,
        "9614": 116,
        "9615": 130,
        "9616": 210,
        "9617": 235,
        "9618": 21,
        "9619": 143,
        "9620": 52,
        "9621": 242,
        "9622": 68,
        "9623": 160,
        "9624": 203,
        "9625": 8,
        "9626": 28,
        "9627": 60,
        "9628": 253,
        "9629": 172,
        "9630": 232,
        "9631": 170,
        "9632": 34,
        "9633": 238,
        "9634": 20,
        "9635": 74,
        "9636": 163,
        "9637": 243,
        "9638": 21,
        "9639": 128,
        "9640": 162,
        "9641": 215,
        "9642": 105,
        "9643": 63,
        "9644": 7,
        "9645": 54,
        "9646": 234,
        "9647": 144,
        "9648": 18,
        "9649": 126,
        "9650": 205,
        "9651": 150,
        "9652": 26,
        "9653": 177,
        "9654": 0,
        "9655": 172,
        "9656": 37,
        "9657": 104,
        "9658": 55,
        "9659": 169,
        "9660": 217,
        "9661": 73,
        "9662": 117,
        "9663": 49,
        "9664": 153,
        "9665": 138,
        "9666": 150,
        "9667": 199,
        "9668": 203,
        "9669": 160,
        "9670": 152,
        "9671": 226,
        "9672": 87,
        "9673": 77,
        "9674": 97,
        "9675": 17,
        "9676": 79,
        "9677": 32,
        "9678": 54,
        "9679": 157,
        "9680": 228,
        "9681": 81,
        "9682": 195,
        "9683": 75,
        "9684": 95,
        "9685": 13,
        "9686": 29,
        "9687": 137,
        "9688": 133,
        "9689": 32,
        "9690": 200,
        "9691": 119,
        "9692": 193,
        "9693": 159,
        "9694": 6,
        "9695": 230,
        "9696": 40,
        "9697": 74,
        "9698": 117,
        "9699": 142,
        "9700": 116,
        "9701": 204,
        "9702": 125,
        "9703": 37,
        "9704": 151,
        "9705": 119,
        "9706": 127,
        "9707": 42,
        "9708": 235,
        "9709": 238,
        "9710": 238,
        "9711": 251,
        "9712": 157,
        "9713": 151,
        "9714": 190,
        "9715": 81,
        "9716": 0,
        "9717": 54,
        "9718": 242,
        "9719": 138,
        "9720": 221,
        "9721": 230,
        "9722": 104,
        "9723": 161,
        "9724": 17,
        "9725": 244,
        "9726": 250,
        "9727": 133,
        "9728": 0,
        "9729": 69,
        "9730": 78,
        "9731": 176,
        "9732": 205,
        "9733": 198,
        "9734": 51,
        "9735": 15,
        "9736": 38,
        "9737": 114,
        "9738": 87,
        "9739": 48,
        "9740": 201,
        "9741": 102,
        "9742": 245,
        "9743": 28,
        "9744": 126,
        "9745": 145,
        "9746": 73,
        "9747": 161,
        "9748": 211,
        "9749": 30,
        "9750": 98,
        "9751": 128,
        "9752": 115,
        "9753": 213,
        "9754": 193,
        "9755": 37,
        "9756": 72,
        "9757": 69,
        "9758": 133,
        "9759": 114,
        "9760": 236,
        "9761": 195,
        "9762": 121,
        "9763": 161,
        "9764": 12,
        "9765": 203,
        "9766": 237,
        "9767": 134,
        "9768": 190,
        "9769": 94,
        "9770": 189,
        "9771": 33,
        "9772": 107,
        "9773": 16,
        "9774": 96,
        "9775": 253,
        "9776": 24,
        "9777": 127,
        "9778": 233,
        "9779": 207,
        "9780": 97,
        "9781": 106,
        "9782": 27,
        "9783": 216,
        "9784": 149,
        "9785": 159,
        "9786": 153,
        "9787": 15,
        "9788": 131,
        "9789": 69,
        "9790": 87,
        "9791": 44,
        "9792": 133,
        "9793": 181,
        "9794": 26,
        "9795": 217,
        "9796": 119,
        "9797": 98,
        "9798": 21,
        "9799": 80,
        "9800": 238,
        "9801": 77,
        "9802": 48,
        "9803": 135,
        "9804": 222,
        "9805": 121,
        "9806": 7,
        "9807": 46,
        "9808": 43,
        "9809": 25,
        "9810": 29,
        "9811": 46,
        "9812": 231,
        "9813": 183,
        "9814": 184,
        "9815": 165,
        "9816": 25,
        "9817": 32,
        "9818": 209,
        "9819": 70,
        "9820": 179,
        "9821": 128,
        "9822": 23,
        "9823": 82,
        "9824": 218,
        "9825": 119,
        "9826": 11,
        "9827": 202,
        "9828": 49,
        "9829": 187,
        "9830": 134,
        "9831": 11,
        "9832": 111,
        "9833": 123,
        "9834": 236,
        "9835": 42,
        "9836": 144,
        "9837": 196,
        "9838": 243,
        "9839": 19,
        "9840": 133,
        "9841": 34,
        "9842": 116,
        "9843": 143,
        "9844": 162,
        "9845": 163,
        "9846": 178,
        "9847": 46,
        "9848": 172,
        "9849": 68,
        "9850": 26,
        "9851": 66,
        "9852": 130,
        "9853": 39,
        "9854": 54,
        "9855": 87,
        "9856": 195,
        "9857": 91,
        "9858": 107,
        "9859": 158,
        "9860": 147,
        "9861": 32,
        "9862": 27,
        "9863": 69,
        "9864": 232,
        "9865": 99,
        "9866": 244,
        "9867": 133,
        "9868": 101,
        "9869": 213,
        "9870": 206,
        "9871": 198,
        "9872": 104,
        "9873": 214,
        "9874": 146,
        "9875": 199,
        "9876": 94,
        "9877": 132,
        "9878": 87,
        "9879": 111,
        "9880": 15,
        "9881": 39,
        "9882": 149,
        "9883": 1,
        "9884": 171,
        "9885": 65,
        "9886": 92,
        "9887": 203,
        "9888": 230,
        "9889": 6,
        "9890": 158,
        "9891": 35,
        "9892": 8,
        "9893": 250,
        "9894": 19,
        "9895": 106,
        "9896": 58,
        "9897": 6,
        "9898": 88,
        "9899": 105,
        "9900": 243,
        "9901": 70,
        "9902": 84,
        "9903": 176,
        "9904": 255,
        "9905": 165,
        "9906": 29,
        "9907": 94,
        "9908": 29,
        "9909": 182,
        "9910": 233,
        "9911": 3,
        "9912": 209,
        "9913": 216,
        "9914": 98,
        "9915": 130,
        "9916": 8,
        "9917": 70,
        "9918": 53,
        "9919": 192,
        "9920": 228,
        "9921": 160,
        "9922": 112,
        "9923": 98,
        "9924": 22,
        "9925": 64,
        "9926": 171,
        "9927": 13,
        "9928": 116,
        "9929": 68,
        "9930": 104,
        "9931": 162,
        "9932": 198,
        "9933": 87,
        "9934": 30,
        "9935": 122,
        "9936": 144,
        "9937": 243,
        "9938": 40,
        "9939": 117,
        "9940": 135,
        "9941": 202,
        "9942": 226,
        "9943": 141,
        "9944": 71,
        "9945": 13,
        "9946": 44,
        "9947": 162,
        "9948": 189,
        "9949": 69,
        "9950": 228,
        "9951": 216,
        "9952": 63,
        "9953": 156,
        "9954": 253,
        "9955": 247,
        "9956": 157,
        "9957": 254,
        "9958": 150,
        "9959": 119,
        "9960": 55,
        "9961": 14,
        "9962": 89,
        "9963": 196,
        "9964": 27,
        "9965": 192,
        "9966": 43,
        "9967": 5,
        "9968": 102,
        "9969": 113,
        "9970": 87,
        "9971": 126,
        "9972": 237,
        "9973": 126,
        "9974": 155,
        "9975": 161,
        "9976": 175,
        "9977": 219,
        "9978": 213,
        "9979": 42,
        "9980": 255,
        "9981": 115,
        "9982": 229,
        "9983": 222,
        "9984": 146,
        "9985": 167,
        "9986": 20,
        "9987": 3,
        "9988": 131,
        "9989": 229,
        "9990": 146,
        "9991": 80,
        "9992": 126,
        "9993": 59,
        "9994": 21,
        "9995": 124,
        "9996": 74,
        "9997": 108,
        "9998": 169,
        "9999": 179,
        "10000": 205,
        "10001": 138,
        "10002": 138,
        "10003": 28,
        "10004": 215,
        "10005": 111,
        "10006": 36,
        "10007": 149,
        "10008": 77,
        "10009": 32,
        "10010": 212,
        "10011": 223,
        "10012": 194,
        "10013": 159,
        "10014": 119,
        "10015": 106,
        "10016": 17,
        "10017": 86,
        "10018": 39,
        "10019": 54,
        "10020": 66,
        "10021": 16,
        "10022": 171,
        "10023": 186,
        "10024": 112,
        "10025": 86,
        "10026": 113,
        "10027": 225,
        "10028": 240,
        "10029": 32,
        "10030": 94,
        "10031": 130,
        "10032": 156,
        "10033": 227,
        "10034": 121,
        "10035": 248,
        "10036": 110,
        "10037": 59,
        "10038": 180,
        "10039": 67,
        "10040": 116,
        "10041": 56,
        "10042": 254,
        "10043": 118,
        "10044": 60,
        "10045": 252,
        "10046": 31,
        "10047": 30,
        "10048": 170,
        "10049": 55,
        "10050": 0,
        "10051": 34,
        "10052": 130,
        "10053": 84,
        "10054": 137,
        "10055": 19,
        "10056": 40,
        "10057": 48,
        "10058": 221,
        "10059": 69,
        "10060": 149,
        "10061": 21,
        "10062": 40,
        "10063": 41,
        "10064": 230,
        "10065": 50,
        "10066": 189,
        "10067": 229,
        "10068": 183,
        "10069": 202,
        "10070": 197,
        "10071": 100,
        "10072": 39,
        "10073": 207,
        "10074": 254,
        "10075": 40,
        "10076": 49,
        "10077": 137,
        "10078": 255,
        "10079": 249,
        "10080": 79,
        "10081": 151,
        "10082": 208,
        "10083": 242,
        "10084": 23,
        "10085": 57,
        "10086": 130,
        "10087": 80,
        "10088": 108,
        "10089": 176,
        "10090": 106,
        "10091": 224,
        "10092": 154,
        "10093": 139,
        "10094": 138,
        "10095": 179,
        "10096": 77,
        "10097": 185,
        "10098": 182,
        "10099": 203,
        "10100": 207,
        "10101": 215,
        "10102": 77,
        "10103": 120,
        "10104": 158,
        "10105": 200,
        "10106": 145,
        "10107": 152,
        "10108": 14,
        "10109": 130,
        "10110": 149,
        "10111": 36,
        "10112": 26,
        "10113": 251,
        "10114": 137,
        "10115": 48,
        "10116": 140,
        "10117": 149,
        "10118": 186,
        "10119": 130,
        "10120": 202,
        "10121": 115,
        "10122": 112,
        "10123": 84,
        "10124": 247,
        "10125": 61,
        "10126": 98,
        "10127": 197,
        "10128": 162,
        "10129": 179,
        "10130": 241,
        "10131": 225,
        "10132": 64,
        "10133": 225,
        "10134": 82,
        "10135": 18,
        "10136": 238,
        "10137": 211,
        "10138": 208,
        "10139": 35,
        "10140": 34,
        "10141": 89,
        "10142": 133,
        "10143": 210,
        "10144": 140,
        "10145": 96,
        "10146": 46,
        "10147": 221,
        "10148": 74,
        "10149": 201,
        "10150": 205,
        "10151": 180,
        "10152": 132,
        "10153": 219,
        "10154": 142,
        "10155": 77,
        "10156": 93,
        "10157": 132,
        "10158": 166,
        "10159": 14,
        "10160": 141,
        "10161": 251,
        "10162": 178,
        "10163": 7,
        "10164": 60,
        "10165": 101,
        "10166": 138,
        "10167": 224,
        "10168": 215,
        "10169": 17,
        "10170": 39,
        "10171": 151,
        "10172": 219,
        "10173": 231,
        "10174": 79,
        "10175": 15,
        "10176": 133,
        "10177": 153,
        "10178": 231,
        "10179": 143,
        "10180": 55,
        "10181": 110,
        "10182": 254,
        "10183": 207,
        "10184": 120,
        "10185": 152,
        "10186": 32,
        "10187": 162,
        "10188": 125,
        "10189": 117,
        "10190": 165,
        "10191": 190,
        "10192": 211,
        "10193": 35,
        "10194": 216,
        "10195": 155,
        "10196": 231,
        "10197": 41,
        "10198": 79,
        "10199": 151,
        "10200": 98,
        "10201": 215,
        "10202": 23,
        "10203": 200,
        "10204": 12,
        "10205": 171,
        "10206": 179,
        "10207": 163,
        "10208": 214,
        "10209": 129,
        "10210": 212,
        "10211": 42,
        "10212": 234,
        "10213": 221,
        "10214": 150,
        "10215": 27,
        "10216": 3,
        "10217": 134,
        "10218": 219,
        "10219": 215,
        "10220": 28,
        "10221": 160,
        "10222": 59,
        "10223": 49,
        "10224": 22,
        "10225": 161,
        "10226": 251,
        "10227": 165,
        "10228": 66,
        "10229": 181,
        "10230": 143,
        "10231": 171,
        "10232": 240,
        "10233": 242,
        "10234": 13,
        "10235": 134,
        "10236": 71,
        "10237": 228,
        "10238": 145,
        "10239": 37,
        "10240": 120,
        "10241": 43,
        "10242": 28,
        "10243": 61,
        "10244": 119,
        "10245": 134,
        "10246": 199,
        "10247": 28,
        "10248": 23,
        "10249": 242,
        "10250": 138,
        "10251": 212,
        "10252": 37,
        "10253": 143,
        "10254": 35,
        "10255": 190,
        "10256": 22,
        "10257": 225,
        "10258": 246,
        "10259": 138,
        "10260": 46,
        "10261": 254,
        "10262": 244,
        "10263": 131,
        "10264": 47,
        "10265": 83,
        "10266": 209,
        "10267": 71,
        "10268": 175,
        "10269": 233,
        "10270": 183,
        "10271": 149,
        "10272": 222,
        "10273": 85,
        "10274": 195,
        "10275": 154,
        "10276": 201,
        "10277": 231,
        "10278": 10,
        "10279": 193,
        "10280": 198,
        "10281": 35,
        "10282": 41,
        "10283": 159,
        "10284": 248,
        "10285": 53,
        "10286": 20,
        "10287": 174,
        "10288": 197,
        "10289": 190,
        "10290": 46,
        "10291": 248,
        "10292": 186,
        "10293": 184,
        "10294": 163,
        "10295": 59,
        "10296": 56,
        "10297": 206,
        "10298": 150,
        "10299": 120,
        "10300": 0,
        "10301": 164,
        "10302": 32,
        "10303": 66,
        "10304": 206,
        "10305": 46,
        "10306": 40,
        "10307": 83,
        "10308": 183,
        "10309": 59,
        "10310": 0,
        "10311": 185,
        "10312": 108,
        "10313": 178,
        "10314": 48,
        "10315": 147,
        "10316": 110,
        "10317": 246,
        "10318": 114,
        "10319": 182,
        "10320": 131,
        "10321": 201,
        "10322": 89,
        "10323": 231,
        "10324": 176,
        "10325": 76,
        "10326": 195,
        "10327": 206,
        "10328": 20,
        "10329": 247,
        "10330": 30,
        "10331": 187,
        "10332": 11,
        "10333": 136,
        "10334": 232,
        "10335": 84,
        "10336": 244,
        "10337": 99,
        "10338": 221,
        "10339": 54,
        "10340": 28,
        "10341": 236,
        "10342": 146,
        "10343": 201,
        "10344": 23,
        "10345": 155,
        "10346": 233,
        "10347": 26,
        "10348": 232,
        "10349": 254,
        "10350": 146,
        "10351": 36,
        "10352": 114,
        "10353": 137,
        "10354": 45,
        "10355": 26,
        "10356": 176,
        "10357": 182,
        "10358": 184,
        "10359": 223,
        "10360": 238,
        "10361": 185,
        "10362": 8,
        "10363": 26,
        "10364": 170,
        "10365": 122,
        "10366": 137,
        "10367": 74,
        "10368": 52,
        "10369": 19,
        "10370": 83,
        "10371": 186,
        "10372": 104,
        "10373": 16,
        "10374": 211,
        "10375": 92,
        "10376": 108,
        "10377": 130,
        "10378": 85,
        "10379": 158,
        "10380": 238,
        "10381": 4,
        "10382": 80,
        "10383": 250,
        "10384": 231,
        "10385": 225,
        "10386": 84,
        "10387": 153,
        "10388": 166,
        "10389": 9,
        "10390": 54,
        "10391": 230,
        "10392": 217,
        "10393": 42,
        "10394": 15,
        "10395": 29,
        "10396": 179,
        "10397": 111,
        "10398": 167,
        "10399": 49,
        "10400": 239,
        "10401": 136,
        "10402": 147,
        "10403": 114,
        "10404": 250,
        "10405": 213,
        "10406": 247,
        "10407": 33,
        "10408": 54,
        "10409": 72,
        "10410": 204,
        "10411": 35,
        "10412": 157,
        "10413": 219,
        "10414": 113,
        "10415": 195,
        "10416": 171,
        "10417": 186,
        "10418": 92,
        "10419": 112,
        "10420": 2,
        "10421": 69,
        "10422": 15,
        "10423": 7,
        "10424": 26,
        "10425": 109,
        "10426": 236,
        "10427": 74,
        "10428": 114,
        "10429": 213,
        "10430": 130,
        "10431": 155,
        "10432": 73,
        "10433": 154,
        "10434": 180,
        "10435": 37,
        "10436": 76,
        "10437": 200,
        "10438": 44,
        "10439": 33,
        "10440": 145,
        "10441": 47,
        "10442": 241,
        "10443": 93,
        "10444": 212,
        "10445": 3,
        "10446": 100,
        "10447": 125,
        "10448": 231,
        "10449": 250,
        "10450": 112,
        "10451": 238,
        "10452": 172,
        "10453": 190,
        "10454": 59,
        "10455": 34,
        "10456": 243,
        "10457": 142,
        "10458": 136,
        "10459": 128,
        "10460": 77,
        "10461": 150,
        "10462": 22,
        "10463": 96,
        "10464": 111,
        "10465": 7,
        "10466": 171,
        "10467": 155,
        "10468": 103,
        "10469": 206,
        "10470": 186,
        "10471": 223,
        "10472": 47,
        "10473": 238,
        "10474": 135,
        "10475": 71,
        "10476": 117,
        "10477": 238,
        "10478": 114,
        "10479": 54,
        "10480": 137,
        "10481": 177,
        "10482": 250,
        "10483": 61,
        "10484": 164,
        "10485": 117,
        "10486": 1,
        "10487": 152,
        "10488": 123,
        "10489": 165,
        "10490": 50,
        "10491": 42,
        "10492": 200,
        "10493": 105,
        "10494": 201,
        "10495": 237,
        "10496": 121,
        "10497": 83,
        "10498": 155,
        "10499": 81,
        "10500": 113,
        "10501": 144,
        "10502": 197,
        "10503": 204,
        "10504": 81,
        "10505": 217,
        "10506": 110,
        "10507": 159,
        "10508": 32,
        "10509": 236,
        "10510": 54,
        "10511": 206,
        "10512": 9,
        "10513": 243,
        "10514": 158,
        "10515": 173,
        "10516": 50,
        "10517": 247,
        "10518": 24,
        "10519": 57,
        "10520": 161,
        "10521": 85,
        "10522": 79,
        "10523": 130,
        "10524": 245,
        "10525": 74,
        "10526": 97,
        "10527": 49,
        "10528": 56,
        "10529": 117,
        "10530": 38,
        "10531": 140,
        "10532": 200,
        "10533": 236,
        "10534": 5,
        "10535": 139,
        "10536": 179,
        "10537": 43,
        "10538": 90,
        "10539": 161,
        "10540": 65,
        "10541": 96,
        "10542": 114,
        "10543": 219,
        "10544": 16,
        "10545": 141,
        "10546": 22,
        "10547": 3,
        "10548": 162,
        "10549": 99,
        "10550": 191,
        "10551": 127,
        "10552": 235,
        "10553": 186,
        "10554": 142,
        "10555": 164,
        "10556": 45,
        "10557": 29,
        "10558": 124,
        "10559": 99,
        "10560": 245,
        "10561": 153,
        "10562": 56,
        "10563": 164,
        "10564": 95,
        "10565": 57,
        "10566": 248,
        "10567": 47,
        "10568": 197,
        "10569": 22,
        "10570": 74,
        "10571": 254,
        "10572": 41,
        "10573": 34,
        "10574": 37,
        "10575": 93,
        "10576": 119,
        "10577": 172,
        "10578": 49,
        "10579": 120,
        "10580": 119,
        "10581": 164,
        "10582": 172,
        "10583": 49,
        "10584": 222,
        "10585": 160,
        "10586": 237,
        "10587": 6,
        "10588": 16,
        "10589": 175,
        "10590": 180,
        "10591": 169,
        "10592": 4,
        "10593": 50,
        "10594": 15,
        "10595": 74,
        "10596": 159,
        "10597": 102,
        "10598": 55,
        "10599": 228,
        "10600": 22,
        "10601": 146,
        "10602": 160,
        "10603": 115,
        "10604": 234,
        "10605": 3,
        "10606": 54,
        "10607": 97,
        "10608": 149,
        "10609": 181,
        "10610": 41,
        "10611": 239,
        "10612": 241,
        "10613": 2,
        "10614": 103,
        "10615": 35,
        "10616": 101,
        "10617": 237,
        "10618": 251,
        "10619": 50,
        "10620": 105,
        "10621": 134,
        "10622": 4,
        "10623": 219,
        "10624": 101,
        "10625": 43,
        "10626": 206,
        "10627": 108,
        "10628": 2,
        "10629": 127,
        "10630": 226,
        "10631": 239,
        "10632": 131,
        "10633": 100,
        "10634": 51,
        "10635": 184,
        "10636": 213,
        "10637": 20,
        "10638": 86,
        "10639": 107,
        "10640": 86,
        "10641": 217,
        "10642": 230,
        "10643": 14,
        "10644": 97,
        "10645": 68,
        "10646": 8,
        "10647": 23,
        "10648": 227,
        "10649": 168,
        "10650": 137,
        "10651": 165,
        "10652": 136,
        "10653": 162,
        "10654": 43,
        "10655": 105,
        "10656": 244,
        "10657": 161,
        "10658": 107,
        "10659": 112,
        "10660": 67,
        "10661": 98,
        "10662": 186,
        "10663": 214,
        "10664": 209,
        "10665": 138,
        "10666": 210,
        "10667": 56,
        "10668": 44,
        "10669": 33,
        "10670": 170,
        "10671": 249,
        "10672": 74,
        "10673": 72,
        "10674": 21,
        "10675": 222,
        "10676": 38,
        "10677": 95,
        "10678": 165,
        "10679": 37,
        "10680": 200,
        "10681": 70,
        "10682": 251,
        "10683": 74,
        "10684": 185,
        "10685": 177,
        "10686": 238,
        "10687": 60,
        "10688": 77,
        "10689": 96,
        "10690": 27,
        "10691": 113,
        "10692": 199,
        "10693": 171,
        "10694": 120,
        "10695": 222,
        "10696": 241,
        "10697": 236,
        "10698": 145,
        "10699": 42,
        "10700": 107,
        "10701": 115,
        "10702": 236,
        "10703": 1,
        "10704": 42,
        "10705": 223,
        "10706": 56,
        "10707": 187,
        "10708": 212,
        "10709": 229,
        "10710": 129,
        "10711": 52,
        "10712": 192,
        "10713": 168,
        "10714": 139,
        "10715": 237,
        "10716": 174,
        "10717": 100,
        "10718": 241,
        "10719": 131,
        "10720": 88,
        "10721": 0,
        "10722": 92,
        "10723": 64,
        "10724": 27,
        "10725": 155,
        "10726": 86,
        "10727": 248,
        "10728": 104,
        "10729": 217,
        "10730": 145,
        "10731": 24,
        "10732": 187,
        "10733": 131,
        "10734": 189,
        "10735": 234,
        "10736": 210,
        "10737": 189,
        "10738": 166,
        "10739": 235,
        "10740": 22,
        "10741": 77,
        "10742": 71,
        "10743": 106,
        "10744": 43,
        "10745": 216,
        "10746": 148,
        "10747": 110,
        "10748": 167,
        "10749": 22,
        "10750": 226,
        "10751": 5,
        "10752": 9,
        "10753": 223,
        "10754": 101,
        "10755": 32,
        "10756": 107,
        "10757": 168,
        "10758": 249,
        "10759": 231,
        "10760": 103,
        "10761": 38,
        "10762": 56,
        "10763": 144,
        "10764": 123,
        "10765": 199,
        "10766": 232,
        "10767": 188,
        "10768": 132,
        "10769": 114,
        "10770": 252,
        "10771": 246,
        "10772": 176,
        "10773": 97,
        "10774": 95,
        "10775": 182,
        "10776": 66,
        "10777": 12,
        "10778": 238,
        "10779": 114,
        "10780": 161,
        "10781": 226,
        "10782": 204,
        "10783": 146,
        "10784": 75,
        "10785": 158,
        "10786": 201,
        "10787": 146,
        "10788": 202,
        "10789": 242,
        "10790": 62,
        "10791": 221,
        "10792": 73,
        "10793": 47,
        "10794": 227,
        "10795": 124,
        "10796": 45,
        "10797": 238,
        "10798": 234,
        "10799": 78,
        "10800": 183,
        "10801": 175,
        "10802": 241,
        "10803": 47,
        "10804": 81,
        "10805": 108,
        "10806": 115,
        "10807": 84,
        "10808": 202,
        "10809": 181,
        "10810": 65,
        "10811": 31,
        "10812": 51,
        "10813": 224,
        "10814": 226,
        "10815": 202,
        "10816": 57,
        "10817": 200,
        "10818": 141,
        "10819": 46,
        "10820": 173,
        "10821": 161,
        "10822": 15,
        "10823": 160,
        "10824": 156,
        "10825": 68,
        "10826": 128,
        "10827": 133,
        "10828": 227,
        "10829": 243,
        "10830": 151,
        "10831": 14,
        "10832": 57,
        "10833": 251,
        "10834": 180,
        "10835": 85,
        "10836": 65,
        "10837": 55,
        "10838": 127,
        "10839": 124,
        "10840": 100,
        "10841": 134,
        "10842": 237,
        "10843": 70,
        "10844": 203,
        "10845": 38,
        "10846": 40,
        "10847": 242,
        "10848": 107,
        "10849": 213,
        "10850": 176,
        "10851": 155,
        "10852": 101,
        "10853": 136,
        "10854": 145,
        "10855": 132,
        "10856": 25,
        "10857": 138,
        "10858": 14,
        "10859": 12,
        "10860": 124,
        "10861": 173,
        "10862": 2,
        "10863": 238,
        "10864": 116,
        "10865": 49,
        "10866": 247,
        "10867": 138,
        "10868": 137,
        "10869": 143,
        "10870": 193,
        "10871": 248,
        "10872": 142,
        "10873": 17,
        "10874": 82,
        "10875": 219,
        "10876": 58,
        "10877": 123,
        "10878": 34,
        "10879": 164,
        "10880": 49,
        "10881": 94,
        "10882": 71,
        "10883": 253,
        "10884": 230,
        "10885": 151,
        "10886": 83,
        "10887": 110,
        "10888": 238,
        "10889": 11,
        "10890": 7,
        "10891": 124,
        "10892": 136,
        "10893": 181,
        "10894": 217,
        "10895": 115,
        "10896": 133,
        "10897": 138,
        "10898": 159,
        "10899": 115,
        "10900": 254,
        "10901": 210,
        "10902": 62,
        "10903": 232,
        "10904": 32,
        "10905": 54,
        "10906": 138,
        "10907": 140,
        "10908": 192,
        "10909": 229,
        "10910": 68,
        "10911": 192,
        "10912": 48,
        "10913": 83,
        "10914": 62,
        "10915": 181,
        "10916": 1,
        "10917": 72,
        "10918": 29,
        "10919": 112,
        "10920": 157,
        "10921": 9,
        "10922": 57,
        "10923": 230,
        "10924": 21,
        "10925": 54,
        "10926": 234,
        "10927": 129,
        "10928": 47,
        "10929": 144,
        "10930": 154,
        "10931": 101,
        "10932": 249,
        "10933": 127,
        "10934": 4,
        "10935": 10,
        "10936": 139,
        "10937": 99,
        "10938": 192,
        "10939": 134,
        "10940": 243,
        "10941": 155,
        "10942": 167,
        "10943": 127,
        "10944": 171,
        "10945": 140,
        "10946": 129,
        "10947": 27,
        "10948": 225,
        "10949": 33,
        "10950": 91,
        "10951": 95,
        "10952": 145,
        "10953": 21,
        "10954": 51,
        "10955": 208,
        "10956": 102,
        "10957": 8,
        "10958": 88,
        "10959": 165,
        "10960": 43,
        "10961": 45,
        "10962": 71,
        "10963": 117,
        "10964": 203,
        "10965": 27,
        "10966": 26,
        "10967": 238,
        "10968": 249,
        "10969": 146,
        "10970": 92,
        "10971": 35,
        "10972": 78,
        "10973": 67,
        "10974": 65,
        "10975": 144,
        "10976": 166,
        "10977": 112,
        "10978": 200,
        "10979": 209,
        "10980": 52,
        "10981": 108,
        "10982": 216,
        "10983": 32,
        "10984": 106,
        "10985": 172,
        "10986": 161,
        "10987": 242,
        "10988": 59,
        "10989": 57,
        "10990": 201,
        "10991": 34,
        "10992": 196,
        "10993": 11,
        "10994": 51,
        "10995": 233,
        "10996": 197,
        "10997": 188,
        "10998": 91,
        "10999": 19,
        "11000": 195,
        "11001": 144,
        "11002": 248,
        "11003": 82,
        "11004": 192,
        "11005": 71,
        "11006": 96,
        "11007": 242,
        "11008": 39,
        "11009": 237,
        "11010": 63,
        "11011": 11,
        "11012": 198,
        "11013": 252,
        "11014": 176,
        "11015": 91,
        "11016": 78,
        "11017": 198,
        "11018": 64,
        "11019": 26,
        "11020": 31,
        "11021": 111,
        "11022": 216,
        "11023": 92,
        "11024": 222,
        "11025": 38,
        "11026": 242,
        "11027": 207,
        "11028": 101,
        "11029": 236,
        "11030": 57,
        "11031": 111,
        "11032": 154,
        "11033": 88,
        "11034": 123,
        "11035": 37,
        "11036": 158,
        "11037": 242,
        "11038": 108,
        "11039": 248,
        "11040": 175,
        "11041": 164,
        "11042": 125,
        "11043": 97,
        "11044": 21,
        "11045": 78,
        "11046": 142,
        "11047": 242,
        "11048": 214,
        "11049": 210,
        "11050": 217,
        "11051": 46,
        "11052": 132,
        "11053": 67,
        "11054": 39,
        "11055": 246,
        "11056": 115,
        "11057": 150,
        "11058": 6,
        "11059": 13,
        "11060": 130,
        "11061": 191,
        "11062": 169,
        "11063": 86,
        "11064": 210,
        "11065": 149,
        "11066": 211,
        "11067": 245,
        "11068": 68,
        "11069": 48,
        "11070": 226,
        "11071": 137,
        "11072": 162,
        "11073": 201,
        "11074": 89,
        "11075": 4,
        "11076": 252,
        "11077": 238,
        "11078": 43,
        "11079": 213,
        "11080": 169,
        "11081": 123,
        "11082": 87,
        "11083": 109,
        "11084": 65,
        "11085": 94,
        "11086": 204,
        "11087": 230,
        "11088": 43,
        "11089": 203,
        "11090": 135,
        "11091": 108,
        "11092": 164,
        "11093": 63,
        "11094": 121,
        "11095": 109,
        "11096": 62,
        "11097": 158,
        "11098": 254,
        "11099": 202,
        "11100": 213,
        "11101": 153,
        "11102": 104,
        "11103": 201,
        "11104": 174,
        "11105": 96,
        "11106": 199,
        "11107": 120,
        "11108": 236,
        "11109": 99,
        "11110": 22,
        "11111": 211,
        "11112": 218,
        "11113": 85,
        "11114": 5,
        "11115": 194,
        "11116": 170,
        "11117": 119,
        "11118": 35,
        "11119": 94,
        "11120": 41,
        "11121": 203,
        "11122": 60,
        "11123": 142,
        "11124": 193,
        "11125": 247,
        "11126": 42,
        "11127": 232,
        "11128": 226,
        "11129": 81,
        "11130": 174,
        "11131": 87,
        "11132": 65,
        "11133": 68,
        "11134": 3,
        "11135": 159,
        "11136": 74,
        "11137": 154,
        "11138": 66,
        "11139": 253,
        "11140": 23,
        "11141": 121,
        "11142": 111,
        "11143": 99,
        "11144": 179,
        "11145": 247,
        "11146": 195,
        "11147": 86,
        "11148": 245,
        "11149": 197,
        "11150": 141,
        "11151": 64,
        "11152": 80,
        "11153": 78,
        "11154": 85,
        "11155": 171,
        "11156": 187,
        "11157": 92,
        "11158": 189,
        "11159": 41,
        "11160": 164,
        "11161": 153,
        "11162": 183,
        "11163": 75,
        "11164": 13,
        "11165": 206,
        "11166": 179,
        "11167": 227,
        "11168": 1,
        "11169": 18,
        "11170": 111,
        "11171": 8,
        "11172": 116,
        "11173": 230,
        "11174": 129,
        "11175": 109,
        "11176": 4,
        "11177": 155,
        "11178": 0,
        "11179": 23,
        "11180": 1,
        "11181": 24,
        "11182": 56,
        "11183": 85,
        "11184": 215,
        "11185": 183,
        "11186": 196,
        "11187": 213,
        "11188": 34,
        "11189": 200,
        "11190": 212,
        "11191": 66,
        "11192": 40,
        "11193": 63,
        "11194": 203,
        "11195": 162,
        "11196": 159,
        "11197": 100,
        "11198": 140,
        "11199": 249,
        "11200": 191,
        "11201": 65,
        "11202": 11,
        "11203": 88,
        "11204": 239,
        "11205": 147,
        "11206": 88,
        "11207": 43,
        "11208": 170,
        "11209": 232,
        "11210": 133,
        "11211": 38,
        "11212": 13,
        "11213": 161,
        "11214": 90,
        "11215": 180,
        "11216": 142,
        "11217": 47,
        "11218": 147,
        "11219": 151,
        "11220": 132,
        "11221": 40,
        "11222": 91,
        "11223": 36,
        "11224": 34,
        "11225": 82,
        "11226": 94,
        "11227": 7,
        "11228": 17,
        "11229": 180,
        "11230": 55,
        "11231": 148,
        "11232": 41,
        "11233": 42,
        "11234": 20,
        "11235": 177,
        "11236": 97,
        "11237": 177,
        "11238": 81,
        "11239": 21,
        "11240": 84,
        "11241": 151,
        "11242": 40,
        "11243": 167,
        "11244": 150,
        "11245": 232,
        "11246": 115,
        "11247": 119,
        "11248": 47,
        "11249": 175,
        "11250": 166,
        "11251": 82,
        "11252": 128,
        "11253": 57,
        "11254": 0,
        "11255": 247,
        "11256": 46,
        "11257": 26,
        "11258": 49,
        "11259": 242,
        "11260": 182,
        "11261": 200,
        "11262": 152,
        "11263": 119,
        "11264": 74,
        "11265": 239,
        "11266": 201,
        "11267": 126,
        "11268": 152,
        "11269": 117,
        "11270": 145,
        "11271": 252,
        "11272": 167,
        "11273": 223,
        "11274": 101,
        "11275": 147,
        "11276": 241,
        "11277": 248,
        "11278": 76,
        "11279": 102,
        "11280": 242,
        "11281": 249,
        "11282": 28,
        "11283": 140,
        "11284": 247,
        "11285": 90,
        "11286": 175,
        "11287": 129,
        "11288": 104,
        "11289": 162,
        "11290": 48,
        "11291": 131,
        "11292": 90,
        "11293": 100,
        "11294": 249,
        "11295": 247,
        "11296": 0,
        "11297": 123,
        "11298": 144,
        "11299": 58,
        "11300": 63,
        "11301": 18,
        "11302": 124,
        "11303": 207,
        "11304": 242,
        "11305": 199,
        "11306": 130,
        "11307": 236,
        "11308": 75,
        "11309": 104,
        "11310": 210,
        "11311": 164,
        "11312": 47,
        "11313": 178,
        "11314": 171,
        "11315": 201,
        "11316": 92,
        "11317": 81,
        "11318": 1,
        "11319": 97,
        "11320": 193,
        "11321": 18,
        "11322": 107,
        "11323": 101,
        "11324": 252,
        "11325": 1,
        "11326": 55,
        "11327": 242,
        "11328": 126,
        "11329": 101,
        "11330": 178,
        "11331": 174,
        "11332": 138,
        "11333": 134,
        "11334": 184,
        "11335": 233,
        "11336": 93,
        "11337": 10,
        "11338": 183,
        "11339": 106,
        "11340": 169,
        "11341": 210,
        "11342": 250,
        "11343": 182,
        "11344": 43,
        "11345": 101,
        "11346": 144,
        "11347": 29,
        "11348": 80,
        "11349": 41,
        "11350": 84,
        "11351": 90,
        "11352": 180,
        "11353": 160,
        "11354": 142,
        "11355": 99,
        "11356": 74,
        "11357": 128,
        "11358": 21,
        "11359": 87,
        "11360": 64,
        "11361": 43,
        "11362": 116,
        "11363": 223,
        "11364": 212,
        "11365": 3,
        "11366": 252,
        "11367": 55,
        "11368": 105,
        "11369": 192,
        "11370": 24,
        "11371": 72,
        "11372": 23,
        "11373": 36,
        "11374": 114,
        "11375": 250,
        "11376": 8,
        "11377": 146,
        "11378": 144,
        "11379": 58,
        "11380": 216,
        "11381": 61,
        "11382": 61,
        "11383": 193,
        "11384": 84,
        "11385": 77,
        "11386": 15,
        "11387": 80,
        "11388": 22,
        "11389": 70,
        "11390": 243,
        "11391": 184,
        "11392": 183,
        "11393": 88,
        "11394": 101,
        "11395": 194,
        "11396": 60,
        "11397": 41,
        "11398": 221,
        "11399": 52,
        "11400": 204,
        "11401": 34,
        "11402": 166,
        "11403": 82,
        "11404": 29,
        "11405": 92,
        "11406": 33,
        "11407": 145,
        "11408": 43,
        "11409": 166,
        "11410": 228,
        "11411": 211,
        "11412": 220,
        "11413": 82,
        "11414": 108,
        "11415": 126,
        "11416": 102,
        "11417": 110,
        "11418": 211,
        "11419": 181,
        "11420": 177,
        "11421": 240,
        "11422": 193,
        "11423": 216,
        "11424": 32,
        "11425": 102,
        "11426": 47,
        "11427": 70,
        "11428": 248,
        "11429": 226,
        "11430": 42,
        "11431": 27,
        "11432": 224,
        "11433": 128,
        "11434": 212,
        "11435": 19,
        "11436": 115,
        "11437": 30,
        "11438": 12,
        "11439": 169,
        "11440": 40,
        "11441": 248,
        "11442": 156,
        "11443": 66,
        "11444": 109,
        "11445": 192,
        "11446": 15,
        "11447": 214,
        "11448": 50,
        "11449": 209,
        "11450": 234,
        "11451": 243,
        "11452": 83,
        "11453": 17,
        "11454": 110,
        "11455": 142,
        "11456": 99,
        "11457": 142,
        "11458": 175,
        "11459": 122,
        "11460": 6,
        "11461": 229,
        "11462": 45,
        "11463": 134,
        "11464": 136,
        "11465": 28,
        "11466": 75,
        "11467": 243,
        "11468": 39,
        "11469": 173,
        "11470": 217,
        "11471": 144,
        "11472": 73,
        "11473": 108,
        "11474": 165,
        "11475": 34,
        "11476": 114,
        "11477": 113,
        "11478": 96,
        "11479": 97,
        "11480": 152,
        "11481": 45,
        "11482": 177,
        "11483": 20,
        "11484": 15,
        "11485": 163,
        "11486": 188,
        "11487": 136,
        "11488": 79,
        "11489": 140,
        "11490": 72,
        "11491": 208,
        "11492": 229,
        "11493": 209,
        "11494": 199,
        "11495": 71,
        "11496": 210,
        "11497": 159,
        "11498": 122,
        "11499": 62,
        "11500": 46,
        "11501": 84,
        "11502": 150,
        "11503": 238,
        "11504": 112,
        "11505": 247,
        "11506": 117,
        "11507": 151,
        "11508": 17,
        "11509": 207,
        "11510": 201,
        "11511": 161,
        "11512": 129,
        "11513": 154,
        "11514": 168,
        "11515": 229,
        "11516": 61,
        "11517": 28,
        "11518": 194,
        "11519": 17,
        "11520": 37,
        "11521": 249,
        "11522": 230,
        "11523": 184,
        "11524": 191,
        "11525": 129,
        "11526": 117,
        "11527": 186,
        "11528": 20,
        "11529": 83,
        "11530": 223,
        "11531": 6,
        "11532": 33,
        "11533": 212,
        "11534": 172,
        "11535": 85,
        "11536": 174,
        "11537": 148,
        "11538": 51,
        "11539": 160,
        "11540": 230,
        "11541": 45,
        "11542": 139,
        "11543": 138,
        "11544": 155,
        "11545": 160,
        "11546": 48,
        "11547": 124,
        "11548": 193,
        "11549": 41,
        "11550": 93,
        "11551": 125,
        "11552": 97,
        "11553": 79,
        "11554": 47,
        "11555": 224,
        "11556": 127,
        "11557": 150,
        "11558": 6,
        "11559": 166,
        "11560": 233,
        "11561": 171,
        "11562": 135,
        "11563": 112,
        "11564": 161,
        "11565": 83,
        "11566": 92,
        "11567": 117,
        "11568": 96,
        "11569": 104,
        "11570": 92,
        "11571": 122,
        "11572": 254,
        "11573": 246,
        "11574": 195,
        "11575": 171,
        "11576": 121,
        "11577": 123,
        "11578": 188,
        "11579": 140,
        "11580": 72,
        "11581": 52,
        "11582": 232,
        "11583": 14,
        "11584": 193,
        "11585": 141,
        "11586": 19,
        "11587": 224,
        "11588": 153,
        "11589": 246,
        "11590": 39,
        "11591": 226,
        "11592": 128,
        "11593": 79,
        "11594": 208,
        "11595": 196,
        "11596": 180,
        "11597": 34,
        "11598": 149,
        "11599": 115,
        "11600": 194,
        "11601": 122,
        "11602": 115,
        "11603": 84,
        "11604": 100,
        "11605": 84,
        "11606": 101,
        "11607": 86,
        "11608": 114,
        "11609": 252,
        "11610": 94,
        "11611": 58,
        "11612": 188,
        "11613": 164,
        "11614": 98,
        "11615": 38,
        "11616": 16,
        "11617": 123,
        "11618": 236,
        "11619": 127,
        "11620": 168,
        "11621": 38,
        "11622": 136,
        "11623": 95,
        "11624": 43,
        "11625": 180,
        "11626": 17,
        "11627": 8,
        "11628": 160,
        "11629": 248,
        "11630": 184,
        "11631": 81,
        "11632": 250,
        "11633": 36,
        "11634": 7,
        "11635": 16,
        "11636": 132,
        "11637": 83,
        "11638": 247,
        "11639": 77,
        "11640": 235,
        "11641": 147,
        "11642": 58,
        "11643": 79,
        "11644": 166,
        "11645": 164,
        "11646": 134,
        "11647": 180,
        "11648": 11,
        "11649": 146,
        "11650": 208,
        "11651": 89,
        "11652": 227,
        "11653": 167,
        "11654": 182,
        "11655": 118,
        "11656": 160,
        "11657": 89,
        "11658": 97,
        "11659": 214,
        "11660": 69,
        "11661": 134,
        "11662": 221,
        "11663": 2,
        "11664": 101,
        "11665": 232,
        "11666": 20,
        "11667": 192,
        "11668": 242,
        "11669": 219,
        "11670": 125,
        "11671": 142,
        "11672": 243,
        "11673": 207,
        "11674": 145,
        "11675": 18,
        "11676": 159,
        "11677": 59,
        "11678": 105,
        "11679": 146,
        "11680": 21,
        "11681": 9,
        "11682": 95,
        "11683": 246,
        "11684": 117,
        "11685": 68,
        "11686": 193,
        "11687": 242,
        "11688": 160,
        "11689": 192,
        "11690": 237,
        "11691": 184,
        "11692": 188,
        "11693": 246,
        "11694": 59,
        "11695": 124,
        "11696": 114,
        "11697": 181,
        "11698": 36,
        "11699": 39,
        "11700": 36,
        "11701": 104,
        "11702": 51,
        "11703": 92,
        "11704": 240,
        "11705": 58,
        "11706": 143,
        "11707": 230,
        "11708": 110,
        "11709": 4,
        "11710": 43,
        "11711": 116,
        "11712": 211,
        "11713": 140,
        "11714": 139,
        "11715": 94,
        "11716": 96,
        "11717": 92,
        "11718": 36,
        "11719": 43,
        "11720": 97,
        "11721": 179,
        "11722": 141,
        "11723": 167,
        "11724": 132,
        "11725": 107,
        "11726": 183,
        "11727": 145,
        "11728": 12,
        "11729": 255,
        "11730": 210,
        "11731": 171,
        "11732": 223,
        "11733": 151,
        "11734": 66,
        "11735": 229,
        "11736": 114,
        "11737": 153,
        "11738": 153,
        "11739": 208,
        "11740": 211,
        "11741": 178,
        "11742": 151,
        "11743": 227,
        "11744": 75,
        "11745": 176,
        "11746": 119,
        "11747": 76,
        "11748": 15,
        "11749": 122,
        "11750": 44,
        "11751": 187,
        "11752": 192,
        "11753": 229,
        "11754": 225,
        "11755": 195,
        "11756": 10,
        "11757": 32,
        "11758": 191,
        "11759": 126,
        "11760": 201,
        "11761": 1,
        "11762": 200,
        "11763": 242,
        "11764": 39,
        "11765": 12,
        "11766": 191,
        "11767": 170,
        "11768": 241,
        "11769": 223,
        "11770": 19,
        "11771": 159,
        "11772": 131,
        "11773": 101,
        "11774": 173,
        "11775": 238,
        "11776": 131,
        "11777": 27,
        "11778": 228,
        "11779": 160,
        "11780": 105,
        "11781": 188,
        "11782": 216,
        "11783": 161,
        "11784": 147,
        "11785": 19,
        "11786": 237,
        "11787": 186,
        "11788": 19,
        "11789": 254,
        "11790": 127,
        "11791": 39,
        "11792": 46,
        "11793": 27,
        "11794": 88,
        "11795": 151,
        "11796": 80,
        "11797": 41,
        "11798": 94,
        "11799": 251,
        "11800": 230,
        "11801": 225,
        "11802": 47,
        "11803": 180,
        "11804": 170,
        "11805": 170,
        "11806": 149,
        "11807": 123,
        "11808": 152,
        "11809": 57,
        "11810": 59,
        "11811": 230,
        "11812": 103,
        "11813": 135,
        "11814": 173,
        "11815": 135,
        "11816": 146,
        "11817": 215,
        "11818": 178,
        "11819": 181,
        "11820": 111,
        "11821": 98,
        "11822": 40,
        "11823": 127,
        "11824": 105,
        "11825": 177,
        "11826": 41,
        "11827": 44,
        "11828": 93,
        "11829": 37,
        "11830": 224,
        "11831": 171,
        "11832": 76,
        "11833": 133,
        "11834": 152,
        "11835": 168,
        "11836": 26,
        "11837": 174,
        "11838": 129,
        "11839": 193,
        "11840": 111,
        "11841": 32,
        "11842": 51,
        "11843": 46,
        "11844": 224,
        "11845": 213,
        "11846": 237,
        "11847": 196,
        "11848": 141,
        "11849": 249,
        "11850": 10,
        "11851": 92,
        "11852": 53,
        "11853": 94,
        "11854": 118,
        "11855": 209,
        "11856": 72,
        "11857": 121,
        "11858": 143,
        "11859": 67,
        "11860": 103,
        "11861": 102,
        "11862": 178,
        "11863": 173,
        "11864": 178,
        "11865": 238,
        "11866": 143,
        "11867": 200,
        "11868": 134,
        "11869": 22,
        "11870": 227,
        "11871": 130,
        "11872": 146,
        "11873": 75,
        "11874": 16,
        "11875": 253,
        "11876": 183,
        "11877": 57,
        "11878": 75,
        "11879": 5,
        "11880": 131,
        "11881": 67,
        "11882": 154,
        "11883": 105,
        "11884": 21,
        "11885": 89,
        "11886": 124,
        "11887": 4,
        "11888": 135,
        "11889": 25,
        "11890": 36,
        "11891": 66,
        "11892": 168,
        "11893": 163,
        "11894": 50,
        "11895": 153,
        "11896": 250,
        "11897": 120,
        "11898": 84,
        "11899": 228,
        "11900": 57,
        "11901": 253,
        "11902": 253,
        "11903": 223,
        "11904": 43,
        "11905": 230,
        "11906": 8,
        "11907": 127,
        "11908": 117,
        "11909": 59,
        "11910": 8,
        "11911": 65,
        "11912": 121,
        "11913": 46,
        "11914": 60,
        "11915": 208,
        "11916": 49,
        "11917": 61,
        "11918": 221,
        "11919": 160,
        "11920": 92,
        "11921": 190,
        "11922": 230,
        "11923": 23,
        "11924": 21,
        "11925": 201,
        "11926": 170,
        "11927": 63,
        "11928": 153,
        "11929": 247,
        "11930": 129,
        "11931": 40,
        "11932": 153,
        "11933": 24,
        "11934": 138,
        "11935": 99,
        "11936": 123,
        "11937": 169,
        "11938": 242,
        "11939": 101,
        "11940": 202,
        "11941": 145,
        "11942": 30,
        "11943": 12,
        "11944": 182,
        "11945": 155,
        "11946": 81,
        "11947": 255,
        "11948": 138,
        "11949": 188,
        "11950": 190,
        "11951": 233,
        "11952": 138,
        "11953": 96,
        "11954": 126,
        "11955": 200,
        "11956": 10,
        "11957": 255,
        "11958": 182,
        "11959": 11,
        "11960": 143,
        "11961": 71,
        "11962": 75,
        "11963": 57,
        "11964": 127,
        "11965": 166,
        "11966": 225,
        "11967": 135,
        "11968": 246,
        "11969": 48,
        "11970": 58,
        "11971": 1,
        "11972": 198,
        "11973": 96,
        "11974": 33,
        "11975": 223,
        "11976": 116,
        "11977": 41,
        "11978": 199,
        "11979": 254,
        "11980": 153,
        "11981": 53,
        "11982": 106,
        "11983": 103,
        "11984": 116,
        "11985": 57,
        "11986": 156,
        "11987": 37,
        "11988": 38,
        "11989": 243,
        "11990": 154,
        "11991": 121,
        "11992": 197,
        "11993": 59,
        "11994": 121,
        "11995": 176,
        "11996": 213,
        "11997": 242,
        "11998": 102,
        "11999": 216,
        "12000": 145,
        "12001": 145,
        "12002": 29,
        "12003": 0,
        "12004": 1,
        "12005": 179,
        "12006": 69,
        "12007": 113,
        "12008": 73,
        "12009": 207,
        "12010": 125,
        "12011": 250,
        "12012": 29,
        "12013": 100,
        "12014": 219,
        "12015": 160,
        "12016": 162,
        "12017": 199,
        "12018": 79,
        "12019": 236,
        "12020": 10,
        "12021": 82,
        "12022": 222,
        "12023": 175,
        "12024": 102,
        "12025": 201,
        "12026": 156,
        "12027": 220,
        "12028": 128,
        "12029": 115,
        "12030": 169,
        "12031": 9,
        "12032": 193,
        "12033": 251,
        "12034": 36,
        "12035": 117,
        "12036": 124,
        "12037": 27,
        "12038": 202,
        "12039": 245,
        "12040": 185,
        "12041": 136,
        "12042": 68,
        "12043": 38,
        "12044": 193,
        "12045": 200,
        "12046": 210,
        "12047": 193,
        "12048": 180,
        "12049": 168,
        "12050": 146,
        "12051": 165,
        "12052": 158,
        "12053": 103,
        "12054": 42,
        "12055": 161,
        "12056": 187,
        "12057": 186,
        "12058": 35,
        "12059": 87,
        "12060": 189,
        "12061": 104,
        "12062": 23,
        "12063": 117,
        "12064": 48,
        "12065": 151,
        "12066": 24,
        "12067": 128,
        "12068": 143,
        "12069": 17,
        "12070": 145,
        "12071": 188,
        "12072": 47,
        "12073": 50,
        "12074": 113,
        "12075": 217,
        "12076": 172,
        "12077": 140,
        "12078": 62,
        "12079": 134,
        "12080": 35,
        "12081": 136,
        "12082": 243,
        "12083": 62,
        "12084": 150,
        "12085": 2,
        "12086": 202,
        "12087": 34,
        "12088": 69,
        "12089": 5,
        "12090": 111,
        "12091": 237,
        "12092": 251,
        "12093": 12,
        "12094": 73,
        "12095": 107,
        "12096": 62,
        "12097": 226,
        "12098": 184,
        "12099": 226,
        "12100": 62,
        "12101": 226,
        "12102": 38,
        "12103": 237,
        "12104": 25,
        "12105": 120,
        "12106": 154,
        "12107": 219,
        "12108": 141,
        "12109": 114,
        "12110": 219,
        "12111": 221,
        "12112": 0,
        "12113": 51,
        "12114": 70,
        "12115": 11,
        "12116": 11,
        "12117": 198,
        "12118": 154,
        "12119": 42,
        "12120": 232,
        "12121": 120,
        "12122": 0,
        "12123": 234,
        "12124": 183,
        "12125": 185,
        "12126": 177,
        "12127": 130,
        "12128": 166,
        "12129": 114,
        "12130": 45,
        "12131": 104,
        "12132": 100,
        "12133": 211,
        "12134": 197,
        "12135": 160,
        "12136": 18,
        "12137": 240,
        "12138": 213,
        "12139": 178,
        "12140": 232,
        "12141": 150,
        "12142": 181,
        "12143": 141,
        "12144": 249,
        "12145": 89,
        "12146": 150,
        "12147": 174,
        "12148": 101,
        "12149": 196,
        "12150": 182,
        "12151": 141,
        "12152": 115,
        "12153": 22,
        "12154": 193,
        "12155": 2,
        "12156": 242,
        "12157": 17,
        "12158": 237,
        "12159": 97,
        "12160": 171,
        "12161": 240,
        "12162": 54,
        "12163": 246,
        "12164": 237,
        "12165": 14,
        "12166": 83,
        "12167": 110,
        "12168": 199,
        "12169": 2,
        "12170": 109,
        "12171": 52,
        "12172": 250,
        "12173": 233,
        "12174": 29,
        "12175": 168,
        "12176": 202,
        "12177": 224,
        "12178": 9,
        "12179": 127,
        "12180": 79,
        "12181": 96,
        "12182": 70,
        "12183": 205,
        "12184": 73,
        "12185": 229,
        "12186": 22,
        "12187": 210,
        "12188": 42,
        "12189": 247,
        "12190": 124,
        "12191": 128,
        "12192": 109,
        "12193": 226,
        "12194": 143,
        "12195": 38,
        "12196": 165,
        "12197": 174,
        "12198": 18,
        "12199": 123,
        "12200": 226,
        "12201": 41,
        "12202": 198,
        "12203": 71,
        "12204": 204,
        "12205": 240,
        "12206": 225,
        "12207": 118,
        "12208": 82,
        "12209": 24,
        "12210": 46,
        "12211": 129,
        "12212": 215,
        "12213": 115,
        "12214": 161,
        "12215": 10,
        "12216": 250,
        "12217": 26,
        "12218": 187,
        "12219": 219,
        "12220": 205,
        "12221": 159,
        "12222": 103,
        "12223": 216,
        "12224": 251,
        "12225": 145,
        "12226": 202,
        "12227": 101,
        "12228": 170,
        "12229": 249,
        "12230": 118,
        "12231": 89,
        "12232": 127,
        "12233": 11,
        "12234": 90,
        "12235": 211,
        "12236": 28,
        "12237": 163,
        "12238": 112,
        "12239": 182,
        "12240": 202,
        "12241": 55,
        "12242": 134,
        "12243": 96,
        "12244": 1,
        "12245": 5,
        "12246": 82,
        "12247": 29,
        "12248": 68,
        "12249": 34,
        "12250": 53,
        "12251": 59,
        "12252": 39,
        "12253": 125,
        "12254": 128,
        "12255": 64,
        "12256": 249,
        "12257": 76,
        "12258": 92,
        "12259": 9,
        "12260": 122,
        "12261": 146,
        "12262": 228,
        "12263": 165,
        "12264": 81,
        "12265": 32,
        "12266": 119,
        "12267": 39,
        "12268": 44,
        "12269": 156,
        "12270": 135,
        "12271": 93,
        "12272": 148,
        "12273": 96,
        "12274": 226,
        "12275": 22,
        "12276": 228,
        "12277": 41,
        "12278": 208,
        "12279": 87,
        "12280": 241,
        "12281": 2,
        "12282": 26,
        "12283": 254,
        "12284": 34,
        "12285": 4,
        "12286": 118,
        "12287": 221,
        "12288": 221,
        "12289": 220,
        "12290": 6,
        "12291": 183,
        "12292": 195,
        "12293": 87,
        "12294": 92,
        "12295": 236,
        "12296": 91,
        "12297": 91,
        "12298": 237,
        "12299": 133,
        "12300": 102,
        "12301": 201,
        "12302": 153,
        "12303": 82,
        "12304": 66,
        "12305": 235,
        "12306": 120,
        "12307": 164,
        "12308": 140,
        "12309": 247,
        "12310": 220,
        "12311": 120,
        "12312": 190,
        "12313": 118,
        "12314": 31,
        "12315": 173,
        "12316": 196,
        "12317": 211,
        "12318": 139,
        "12319": 196,
        "12320": 67,
        "12321": 117,
        "12322": 63,
        "12323": 200,
        "12324": 232,
        "12325": 15,
        "12326": 36,
        "12327": 130,
        "12328": 192,
        "12329": 244,
        "12330": 138,
        "12331": 154,
        "12332": 26,
        "12333": 178,
        "12334": 194,
        "12335": 104,
        "12336": 186,
        "12337": 229,
        "12338": 225,
        "12339": 142,
        "12340": 56,
        "12341": 133,
        "12342": 122,
        "12343": 145,
        "12344": 129,
        "12345": 83,
        "12346": 69,
        "12347": 147,
        "12348": 157,
        "12349": 124,
        "12350": 241,
        "12351": 98,
        "12352": 232,
        "12353": 14,
        "12354": 7,
        "12355": 137,
        "12356": 232,
        "12357": 202,
        "12358": 251,
        "12359": 160,
        "12360": 17,
        "12361": 26,
        "12362": 96,
        "12363": 149,
        "12364": 15,
        "12365": 122,
        "12366": 185,
        "12367": 244,
        "12368": 245,
        "12369": 129,
        "12370": 208,
        "12371": 176,
        "12372": 144,
        "12373": 96,
        "12374": 92,
        "12375": 117,
        "12376": 254,
        "12377": 239,
        "12378": 164,
        "12379": 189,
        "12380": 148,
        "12381": 195,
        "12382": 204,
        "12383": 11,
        "12384": 112,
        "12385": 117,
        "12386": 209,
        "12387": 13,
        "12388": 37,
        "12389": 13,
        "12390": 101,
        "12391": 210,
        "12392": 247,
        "12393": 116,
        "12394": 255,
        "12395": 89,
        "12396": 163,
        "12397": 129,
        "12398": 139,
        "12399": 89,
        "12400": 201,
        "12401": 139,
        "12402": 206,
        "12403": 35,
        "12404": 192,
        "12405": 164,
        "12406": 120,
        "12407": 79,
        "12408": 119,
        "12409": 219,
        "12410": 183,
        "12411": 204,
        "12412": 72,
        "12413": 42,
        "12414": 134,
        "12415": 193,
        "12416": 191,
        "12417": 246,
        "12418": 82,
        "12419": 198,
        "12420": 107,
        "12421": 102,
        "12422": 4,
        "12423": 129,
        "12424": 59,
        "12425": 243,
        "12426": 42,
        "12427": 244,
        "12428": 252,
        "12429": 47,
        "12430": 158,
        "12431": 29,
        "12432": 222,
        "12433": 77,
        "12434": 34,
        "12435": 193,
        "12436": 24,
        "12437": 22,
        "12438": 247,
        "12439": 3,
        "12440": 115,
        "12441": 60,
        "12442": 94,
        "12443": 38,
        "12444": 124,
        "12445": 12,
        "12446": 128,
        "12447": 167,
        "12448": 90,
        "12449": 207,
        "12450": 37,
        "12451": 187,
        "12452": 106,
        "12453": 121,
        "12454": 232,
        "12455": 249,
        "12456": 248,
        "12457": 6,
        "12458": 130,
        "12459": 1,
        "12460": 133,
        "12461": 235,
        "12462": 37,
        "12463": 171,
        "12464": 28,
        "12465": 151,
        "12466": 232,
        "12467": 192,
        "12468": 92,
        "12469": 147,
        "12470": 201,
        "12471": 57,
        "12472": 195,
        "12473": 137,
        "12474": 29,
        "12475": 168,
        "12476": 224,
        "12477": 74,
        "12478": 70,
        "12479": 99,
        "12480": 65,
        "12481": 112,
        "12482": 169,
        "12483": 188,
        "12484": 57,
        "12485": 5,
        "12486": 62,
        "12487": 101,
        "12488": 68,
        "12489": 221,
        "12490": 167,
        "12491": 20,
        "12492": 64,
        "12493": 213,
        "12494": 81,
        "12495": 123,
        "12496": 159,
        "12497": 71,
        "12498": 113,
        "12499": 137,
        "12500": 134,
        "12501": 97,
        "12502": 224,
        "12503": 108,
        "12504": 10,
        "12505": 60,
        "12506": 126,
        "12507": 11,
        "12508": 9,
        "12509": 97,
        "12510": 36,
        "12511": 108,
        "12512": 252,
        "12513": 149,
        "12514": 245,
        "12515": 19,
        "12516": 221,
        "12517": 215,
        "12518": 98,
        "12519": 26,
        "12520": 74,
        "12521": 126,
        "12522": 126,
        "12523": 132,
        "12524": 102,
        "12525": 216,
        "12526": 7,
        "12527": 182,
        "12528": 72,
        "12529": 220,
        "12530": 251,
        "12531": 212,
        "12532": 240,
        "12533": 154,
        "12534": 228,
        "12535": 125,
        "12536": 180,
        "12537": 239,
        "12538": 226,
        "12539": 37,
        "12540": 90,
        "12541": 215,
        "12542": 228,
        "12543": 255,
        "12544": 85,
        "12545": 43,
        "12546": 31,
        "12547": 127,
        "12548": 104,
        "12549": 68,
        "12550": 196,
        "12551": 76,
        "12552": 50,
        "12553": 207,
        "12554": 246,
        "12555": 218,
        "12556": 25,
        "12557": 234,
        "12558": 116,
        "12559": 161,
        "12560": 193,
        "12561": 161,
        "12562": 248,
        "12563": 105,
        "12564": 33,
        "12565": 90,
        "12566": 212,
        "12567": 204,
        "12568": 34,
        "12569": 234,
        "12570": 99,
        "12571": 104,
        "12572": 46,
        "12573": 151,
        "12574": 209,
        "12575": 94,
        "12576": 96,
        "12577": 141,
        "12578": 124,
        "12579": 84,
        "12580": 40,
        "12581": 42,
        "12582": 239,
        "12583": 249,
        "12584": 33,
        "12585": 87,
        "12586": 246,
        "12587": 76,
        "12588": 80,
        "12589": 21,
        "12590": 96,
        "12591": 79,
        "12592": 130,
        "12593": 71,
        "12594": 180,
        "12595": 158,
        "12596": 86,
        "12597": 66,
        "12598": 131,
        "12599": 220,
        "12600": 135,
        "12601": 141,
        "12602": 198,
        "12603": 36,
        "12604": 13,
        "12605": 246,
        "12606": 5,
        "12607": 166,
        "12608": 2,
        "12609": 153,
        "12610": 236,
        "12611": 144,
        "12612": 191,
        "12613": 18,
        "12614": 102,
        "12615": 224,
        "12616": 97,
        "12617": 252,
        "12618": 207,
        "12619": 215,
        "12620": 95,
        "12621": 248,
        "12622": 127,
        "12623": 245,
        "12624": 111,
        "12625": 94,
        "12626": 43,
        "12627": 90,
        "12628": 151,
        "12629": 123,
        "12630": 187,
        "12631": 199,
        "12632": 161,
        "12633": 174,
        "12634": 119,
        "12635": 165,
        "12636": 129,
        "12637": 231,
        "12638": 154,
        "12639": 229,
        "12640": 124,
        "12641": 229,
        "12642": 139,
        "12643": 165,
        "12644": 130,
        "12645": 107,
        "12646": 22,
        "12647": 227,
        "12648": 101,
        "12649": 101,
        "12650": 117,
        "12651": 166,
        "12652": 136,
        "12653": 24,
        "12654": 162,
        "12655": 27,
        "12656": 165,
        "12657": 232,
        "12658": 197,
        "12659": 197,
        "12660": 206,
        "12661": 109,
        "12662": 10,
        "12663": 114,
        "12664": 243,
        "12665": 156,
        "12666": 168,
        "12667": 138,
        "12668": 243,
        "12669": 48,
        "12670": 17,
        "12671": 135,
        "12672": 199,
        "12673": 173,
        "12674": 169,
        "12675": 74,
        "12676": 168,
        "12677": 131,
        "12678": 214,
        "12679": 55,
        "12680": 221,
        "12681": 45,
        "12682": 129,
        "12683": 145,
        "12684": 164,
        "12685": 217,
        "12686": 5,
        "12687": 143,
        "12688": 212,
        "12689": 238,
        "12690": 9,
        "12691": 135,
        "12692": 134,
        "12693": 163,
        "12694": 130,
        "12695": 28,
        "12696": 254,
        "12697": 24,
        "12698": 149,
        "12699": 225,
        "12700": 230,
        "12701": 87,
        "12702": 15,
        "12703": 174,
        "12704": 87,
        "12705": 238,
        "12706": 70,
        "12707": 105,
        "12708": 141,
        "12709": 52,
        "12710": 136,
        "12711": 159,
        "12712": 43,
        "12713": 5,
        "12714": 104,
        "12715": 134,
        "12716": 210,
        "12717": 190,
        "12718": 149,
        "12719": 71,
        "12720": 10,
        "12721": 43,
        "12722": 98,
        "12723": 223,
        "12724": 188,
        "12725": 139,
        "12726": 243,
        "12727": 120,
        "12728": 203,
        "12729": 152,
        "12730": 219,
        "12731": 107,
        "12732": 193,
        "12733": 243,
        "12734": 147,
        "12735": 109,
        "12736": 36,
        "12737": 184,
        "12738": 21,
        "12739": 155,
        "12740": 50,
        "12741": 254,
        "12742": 247,
        "12743": 45,
        "12744": 45,
        "12745": 59,
        "12746": 109,
        "12747": 132,
        "12748": 235,
        "12749": 44,
        "12750": 161,
        "12751": 247,
        "12752": 106,
        "12753": 218,
        "12754": 229,
        "12755": 2,
        "12756": 46,
        "12757": 69,
        "12758": 236,
        "12759": 171,
        "12760": 135,
        "12761": 93,
        "12762": 6,
        "12763": 1,
        "12764": 201,
        "12765": 81,
        "12766": 70,
        "12767": 68,
        "12768": 190,
        "12769": 166,
        "12770": 66,
        "12771": 79,
        "12772": 129,
        "12773": 154,
        "12774": 124,
        "12775": 194,
        "12776": 190,
        "12777": 34,
        "12778": 94,
        "12779": 230,
        "12780": 8,
        "12781": 157,
        "12782": 41,
        "12783": 173,
        "12784": 93,
        "12785": 45,
        "12786": 116,
        "12787": 64,
        "12788": 94,
        "12789": 128,
        "12790": 183,
        "12791": 39,
        "12792": 206,
        "12793": 38,
        "12794": 64,
        "12795": 160,
        "12796": 191,
        "12797": 248,
        "12798": 219,
        "12799": 238,
        "12800": 178,
        "12801": 98,
        "12802": 236,
        "12803": 159,
        "12804": 7,
        "12805": 181,
        "12806": 93,
        "12807": 37,
        "12808": 94,
        "12809": 156,
        "12810": 253,
        "12811": 202,
        "12812": 97,
        "12813": 58,
        "12814": 158,
        "12815": 226,
        "12816": 152,
        "12817": 132,
        "12818": 187,
        "12819": 121,
        "12820": 105,
        "12821": 144,
        "12822": 9,
        "12823": 138,
        "12824": 199,
        "12825": 70,
        "12826": 215,
        "12827": 183,
        "12828": 99,
        "12829": 52,
        "12830": 211,
        "12831": 254,
        "12832": 82,
        "12833": 50,
        "12834": 222,
        "12835": 76,
        "12836": 52,
        "12837": 6,
        "12838": 174,
        "12839": 184,
        "12840": 139,
        "12841": 199,
        "12842": 174,
        "12843": 39,
        "12844": 94,
        "12845": 237,
        "12846": 50,
        "12847": 8,
        "12848": 168,
        "12849": 164,
        "12850": 146,
        "12851": 167,
        "12852": 170,
        "12853": 61,
        "12854": 113,
        "12855": 238,
        "12856": 96,
        "12857": 39,
        "12858": 239,
        "12859": 65,
        "12860": 51,
        "12861": 52,
        "12862": 63,
        "12863": 193,
        "12864": 217,
        "12865": 118,
        "12866": 63,
        "12867": 7,
        "12868": 15,
        "12869": 170,
        "12870": 231,
        "12871": 156,
        "12872": 221,
        "12873": 73,
        "12874": 153,
        "12875": 106,
        "12876": 17,
        "12877": 224,
        "12878": 232,
        "12879": 231,
        "12880": 145,
        "12881": 18,
        "12882": 227,
        "12883": 36,
        "12884": 98,
        "12885": 67,
        "12886": 204,
        "12887": 139,
        "12888": 21,
        "12889": 86,
        "12890": 2,
        "12891": 156,
        "12892": 161,
        "12893": 124,
        "12894": 216,
        "12895": 24,
        "12896": 87,
        "12897": 164,
        "12898": 3,
        "12899": 8,
        "12900": 201,
        "12901": 20,
        "12902": 182,
        "12903": 93,
        "12904": 190,
        "12905": 193,
        "12906": 207,
        "12907": 250,
        "12908": 104,
        "12909": 236,
        "12910": 2,
        "12911": 117,
        "12912": 207,
        "12913": 14,
        "12914": 124,
        "12915": 238,
        "12916": 197,
        "12917": 12,
        "12918": 134,
        "12919": 4,
        "12920": 117,
        "12921": 14,
        "12922": 155,
        "12923": 134,
        "12924": 88,
        "12925": 85,
        "12926": 83,
        "12927": 215,
        "12928": 239,
        "12929": 187,
        "12930": 99,
        "12931": 247,
        "12932": 60,
        "12933": 208,
        "12934": 16,
        "12935": 133,
        "12936": 75,
        "12937": 142,
        "12938": 216,
        "12939": 116,
        "12940": 46,
        "12941": 146,
        "12942": 2,
        "12943": 67,
        "12944": 220,
        "12945": 10,
        "12946": 54,
        "12947": 226,
        "12948": 255,
        "12949": 30,
        "12950": 195,
        "12951": 129,
        "12952": 31,
        "12953": 48,
        "12954": 143,
        "12955": 20,
        "12956": 11,
        "12957": 49,
        "12958": 9,
        "12959": 246,
        "12960": 238,
        "12961": 232,
        "12962": 110,
        "12963": 92,
        "12964": 67,
        "12965": 97,
        "12966": 13,
        "12967": 87,
        "12968": 205,
        "12969": 173,
        "12970": 194,
        "12971": 5,
        "12972": 42,
        "12973": 87,
        "12974": 109,
        "12975": 249,
        "12976": 212,
        "12977": 239,
        "12978": 75,
        "12979": 97,
        "12980": 95,
        "12981": 231,
        "12982": 203,
        "12983": 80,
        "12984": 183,
        "12985": 83,
        "12986": 0,
        "12987": 209,
        "12988": 161,
        "12989": 165,
        "12990": 180,
        "12991": 7,
        "12992": 220,
        "12993": 129,
        "12994": 131,
        "12995": 80,
        "12996": 178,
        "12997": 73,
        "12998": 222,
        "12999": 63,
        "13000": 219,
        "13001": 38,
        "13002": 135,
        "13003": 126,
        "13004": 218,
        "13005": 56,
        "13006": 188,
        "13007": 15,
        "13008": 74,
        "13009": 221,
        "13010": 157,
        "13011": 210,
        "13012": 49,
        "13013": 148,
        "13014": 229,
        "13015": 27,
        "13016": 6,
        "13017": 159,
        "13018": 79,
        "13019": 10,
        "13020": 238,
        "13021": 27,
        "13022": 129,
        "13023": 202,
        "13024": 180,
        "13025": 184,
        "13026": 160,
        "13027": 221,
        "13028": 230,
        "13029": 225,
        "13030": 220,
        "13031": 205,
        "13032": 209,
        "13033": 141,
        "13034": 126,
        "13035": 70,
        "13036": 132,
        "13037": 191,
        "13038": 225,
        "13039": 88,
        "13040": 99,
        "13041": 60,
        "13042": 161,
        "13043": 251,
        "13044": 159,
        "13045": 116,
        "13046": 37,
        "13047": 104,
        "13048": 219,
        "13049": 75,
        "13050": 32,
        "13051": 243,
        "13052": 121,
        "13053": 175,
        "13054": 29,
        "13055": 98,
        "13056": 226,
        "13057": 30,
        "13058": 36,
        "13059": 7,
        "13060": 49,
        "13061": 21,
        "13062": 45,
        "13063": 111,
        "13064": 140,
        "13065": 165,
        "13066": 172,
        "13067": 106,
        "13068": 74,
        "13069": 5,
        "13070": 157,
        "13071": 0,
        "13072": 56,
        "13073": 16,
        "13074": 123,
        "13075": 99,
        "13076": 73,
        "13077": 38,
        "13078": 146,
        "13079": 250,
        "13080": 198,
        "13081": 114,
        "13082": 122,
        "13083": 227,
        "13084": 98,
        "13085": 153,
        "13086": 207,
        "13087": 73,
        "13088": 146,
        "13089": 61,
        "13090": 162,
        "13091": 106,
        "13092": 231,
        "13093": 79,
        "13094": 245,
        "13095": 201,
        "13096": 187,
        "13097": 46,
        "13098": 145,
        "13099": 27,
        "13100": 4,
        "13101": 108,
        "13102": 153,
        "13103": 123,
        "13104": 235,
        "13105": 44,
        "13106": 37,
        "13107": 22,
        "13108": 50,
        "13109": 133,
        "13110": 241,
        "13111": 194,
        "13112": 8,
        "13113": 239,
        "13114": 131,
        "13115": 233,
        "13116": 74,
        "13117": 186,
        "13118": 69,
        "13119": 180,
        "13120": 35,
        "13121": 80,
        "13122": 228,
        "13123": 180,
        "13124": 152,
        "13125": 238,
        "13126": 32,
        "13127": 191,
        "13128": 194,
        "13129": 189,
        "13130": 84,
        "13131": 162,
        "13132": 175,
        "13133": 127,
        "13134": 23,
        "13135": 30,
        "13136": 243,
        "13137": 91,
        "13138": 100,
        "13139": 152,
        "13140": 66,
        "13141": 39,
        "13142": 105,
        "13143": 133,
        "13144": 228,
        "13145": 158,
        "13146": 29,
        "13147": 121,
        "13148": 6,
        "13149": 93,
        "13150": 254,
        "13151": 76,
        "13152": 31,
        "13153": 138,
        "13154": 15,
        "13155": 81,
        "13156": 82,
        "13157": 223,
        "13158": 61,
        "13159": 233,
        "13160": 60,
        "13161": 232,
        "13162": 114,
        "13163": 201,
        "13164": 228,
        "13165": 26,
        "13166": 64,
        "13167": 39,
        "13168": 227,
        "13169": 247,
        "13170": 224,
        "13171": 155,
        "13172": 18,
        "13173": 135,
        "13174": 18,
        "13175": 150,
        "13176": 168,
        "13177": 210,
        "13178": 80,
        "13179": 77,
        "13180": 22,
        "13181": 169,
        "13182": 70,
        "13183": 154,
        "13184": 161,
        "13185": 72,
        "13186": 253,
        "13187": 49,
        "13188": 102,
        "13189": 247,
        "13190": 184,
        "13191": 179,
        "13192": 70,
        "13193": 200,
        "13194": 76,
        "13195": 197,
        "13196": 14,
        "13197": 75,
        "13198": 62,
        "13199": 92,
        "13200": 42,
        "13201": 178,
        "13202": 104,
        "13203": 217,
        "13204": 242,
        "13205": 178,
        "13206": 231,
        "13207": 111,
        "13208": 111,
        "13209": 132,
        "13210": 253,
        "13211": 183,
        "13212": 183,
        "13213": 250,
        "13214": 8,
        "13215": 168,
        "13216": 12,
        "13217": 248,
        "13218": 144,
        "13219": 222,
        "13220": 112,
        "13221": 77,
        "13222": 201,
        "13223": 16,
        "13224": 143,
        "13225": 85,
        "13226": 10,
        "13227": 26,
        "13228": 191,
        "13229": 171,
        "13230": 72,
        "13231": 217,
        "13232": 158,
        "13233": 79,
        "13234": 211,
        "13235": 50,
        "13236": 71,
        "13237": 35,
        "13238": 96,
        "13239": 211,
        "13240": 43,
        "13241": 158,
        "13242": 166,
        "13243": 203,
        "13244": 21,
        "13245": 182,
        "13246": 135,
        "13247": 34,
        "13248": 115,
        "13249": 214,
        "13250": 247,
        "13251": 22,
        "13252": 92,
        "13253": 175,
        "13254": 59,
        "13255": 14,
        "13256": 34,
        "13257": 139,
        "13258": 229,
        "13259": 218,
        "13260": 169,
        "13261": 71,
        "13262": 59,
        "13263": 234,
        "13264": 54,
        "13265": 229,
        "13266": 209,
        "13267": 124,
        "13268": 113,
        "13269": 140,
        "13270": 40,
        "13271": 180,
        "13272": 152,
        "13273": 221,
        "13274": 241,
        "13275": 224,
        "13276": 103,
        "13277": 53,
        "13278": 9,
        "13279": 41,
        "13280": 240,
        "13281": 162,
        "13282": 68,
        "13283": 20,
        "13284": 110,
        "13285": 108,
        "13286": 30,
        "13287": 36,
        "13288": 154,
        "13289": 138,
        "13290": 178,
        "13291": 96,
        "13292": 44,
        "13293": 110,
        "13294": 161,
        "13295": 201,
        "13296": 95,
        "13297": 251,
        "13298": 234,
        "13299": 89,
        "13300": 14,
        "13301": 19,
        "13302": 208,
        "13303": 149,
        "13304": 60,
        "13305": 137,
        "13306": 25,
        "13307": 54,
        "13308": 146,
        "13309": 23,
        "13310": 102,
        "13311": 158,
        "13312": 240,
        "13313": 61,
        "13314": 107,
        "13315": 250,
        "13316": 34,
        "13317": 173,
        "13318": 190,
        "13319": 178,
        "13320": 36,
        "13321": 36,
        "13322": 185,
        "13323": 126,
        "13324": 121,
        "13325": 56,
        "13326": 163,
        "13327": 40,
        "13328": 38,
        "13329": 134,
        "13330": 70,
        "13331": 247,
        "13332": 239,
        "13333": 92,
        "13334": 93,
        "13335": 98,
        "13336": 155,
        "13337": 39,
        "13338": 78,
        "13339": 86,
        "13340": 77,
        "13341": 199,
        "13342": 102,
        "13343": 99,
        "13344": 230,
        "13345": 22,
        "13346": 18,
        "13347": 115,
        "13348": 9,
        "13349": 248,
        "13350": 186,
        "13351": 141,
        "13352": 141,
        "13353": 15,
        "13354": 16,
        "13355": 125,
        "13356": 169,
        "13357": 217,
        "13358": 126,
        "13359": 168,
        "13360": 189,
        "13361": 78,
        "13362": 70,
        "13363": 175,
        "13364": 1,
        "13365": 86,
        "13366": 205,
        "13367": 228,
        "13368": 144,
        "13369": 188,
        "13370": 93,
        "13371": 72,
        "13372": 189,
        "13373": 163,
        "13374": 65,
        "13375": 120,
        "13376": 235,
        "13377": 211,
        "13378": 123,
        "13379": 76,
        "13380": 204,
        "13381": 5,
        "13382": 178,
        "13383": 179,
        "13384": 74,
        "13385": 141,
        "13386": 159,
        "13387": 196,
        "13388": 189,
        "13389": 225,
        "13390": 229,
        "13391": 197,
        "13392": 106,
        "13393": 58,
        "13394": 37,
        "13395": 21,
        "13396": 86,
        "13397": 208,
        "13398": 28,
        "13399": 42,
        "13400": 88,
        "13401": 67,
        "13402": 74,
        "13403": 198,
        "13404": 249,
        "13405": 90,
        "13406": 18,
        "13407": 220,
        "13408": 117,
        "13409": 169,
        "13410": 143,
        "13411": 160,
        "13412": 7,
        "13413": 150,
        "13414": 86,
        "13415": 103,
        "13416": 21,
        "13417": 214,
        "13418": 128,
        "13419": 102,
        "13420": 14,
        "13421": 159,
        "13422": 114,
        "13423": 204,
        "13424": 214,
        "13425": 140,
        "13426": 142,
        "13427": 128,
        "13428": 10,
        "13429": 92,
        "13430": 168,
        "13431": 18,
        "13432": 76,
        "13433": 114,
        "13434": 101,
        "13435": 126,
        "13436": 104,
        "13437": 103,
        "13438": 77,
        "13439": 209,
        "13440": 228,
        "13441": 0,
        "13442": 155,
        "13443": 184,
        "13444": 46,
        "13445": 128,
        "13446": 27,
        "13447": 149,
        "13448": 194,
        "13449": 230,
        "13450": 90,
        "13451": 128,
        "13452": 246,
        "13453": 45,
        "13454": 119,
        "13455": 60,
        "13456": 70,
        "13457": 140,
        "13458": 160,
        "13459": 208,
        "13460": 143,
        "13461": 4,
        "13462": 34,
        "13463": 147,
        "13464": 50,
        "13465": 24,
        "13466": 164,
        "13467": 159,
        "13468": 107,
        "13469": 30,
        "13470": 70,
        "13471": 141,
        "13472": 90,
        "13473": 215,
        "13474": 5,
        "13475": 36,
        "13476": 215,
        "13477": 178,
        "13478": 212,
        "13479": 112,
        "13480": 37,
        "13481": 229,
        "13482": 57,
        "13483": 159,
        "13484": 109,
        "13485": 157,
        "13486": 60,
        "13487": 200,
        "13488": 246,
        "13489": 235,
        "13490": 213,
        "13491": 72,
        "13492": 117,
        "13493": 225,
        "13494": 15,
        "13495": 219,
        "13496": 165,
        "13497": 44,
        "13498": 3,
        "13499": 208,
        "13500": 240,
        "13501": 117,
        "13502": 95,
        "13503": 131,
        "13504": 68,
        "13505": 99,
        "13506": 183,
        "13507": 158,
        "13508": 49,
        "13509": 221,
        "13510": 216,
        "13511": 157,
        "13512": 102,
        "13513": 13,
        "13514": 217,
        "13515": 103,
        "13516": 195,
        "13517": 128,
        "13518": 133,
        "13519": 11,
        "13520": 149,
        "13521": 88,
        "13522": 59,
        "13523": 245,
        "13524": 106,
        "13525": 180,
        "13526": 63,
        "13527": 133,
        "13528": 131,
        "13529": 9,
        "13530": 166,
        "13531": 89,
        "13532": 170,
        "13533": 2,
        "13534": 220,
        "13535": 218,
        "13536": 211,
        "13537": 135,
        "13538": 212,
        "13539": 205,
        "13540": 184,
        "13541": 145,
        "13542": 237,
        "13543": 221,
        "13544": 137,
        "13545": 189,
        "13546": 201,
        "13547": 35,
        "13548": 158,
        "13549": 235,
        "13550": 0,
        "13551": 192,
        "13552": 126,
        "13553": 127,
        "13554": 27,
        "13555": 227,
        "13556": 79,
        "13557": 204,
        "13558": 248,
        "13559": 208,
        "13560": 219,
        "13561": 191,
        "13562": 79,
        "13563": 117,
        "13564": 4,
        "13565": 143,
        "13566": 66,
        "13567": 135,
        "13568": 193,
        "13569": 9,
        "13570": 88,
        "13571": 43,
        "13572": 7,
        "13573": 109,
        "13574": 185,
        "13575": 67,
        "13576": 21,
        "13577": 56,
        "13578": 168,
        "13579": 196,
        "13580": 27,
        "13581": 204,
        "13582": 49,
        "13583": 143,
        "13584": 220,
        "13585": 199,
        "13586": 25,
        "13587": 85,
        "13588": 123,
        "13589": 141,
        "13590": 123,
        "13591": 203,
        "13592": 0,
        "13593": 244,
        "13594": 3,
        "13595": 40,
        "13596": 50,
        "13597": 92,
        "13598": 137,
        "13599": 106,
        "13600": 152,
        "13601": 128,
        "13602": 93,
        "13603": 174,
        "13604": 148,
        "13605": 60,
        "13606": 132,
        "13607": 63,
        "13608": 190,
        "13609": 91,
        "13610": 106,
        "13611": 214,
        "13612": 126,
        "13613": 94,
        "13614": 103,
        "13615": 255,
        "13616": 88,
        "13617": 226,
        "13618": 55,
        "13619": 62,
        "13620": 247,
        "13621": 8,
        "13622": 152,
        "13623": 106,
        "13624": 221,
        "13625": 88,
        "13626": 128,
        "13627": 214,
        "13628": 218,
        "13629": 47,
        "13630": 23,
        "13631": 2,
        "13632": 133,
        "13633": 53,
        "13634": 87,
        "13635": 33,
        "13636": 42,
        "13637": 165,
        "13638": 141,
        "13639": 6,
        "13640": 13,
        "13641": 34,
        "13642": 110,
        "13643": 2,
        "13644": 228,
        "13645": 18,
        "13646": 148,
        "13647": 231,
        "13648": 227,
        "13649": 141,
        "13650": 212,
        "13651": 72,
        "13652": 123,
        "13653": 87,
        "13654": 72,
        "13655": 92,
        "13656": 229,
        "13657": 121,
        "13658": 225,
        "13659": 237,
        "13660": 19,
        "13661": 213,
        "13662": 29,
        "13663": 47,
        "13664": 56,
        "13665": 99,
        "13666": 206,
        "13667": 4,
        "13668": 228,
        "13669": 229,
        "13670": 112,
        "13671": 46,
        "13672": 222,
        "13673": 176,
        "13674": 107,
        "13675": 240,
        "13676": 243,
        "13677": 253,
        "13678": 246,
        "13679": 161,
        "13680": 63,
        "13681": 159,
        "13682": 179,
        "13683": 139,
        "13684": 208,
        "13685": 0,
        "13686": 159,
        "13687": 93,
        "13688": 45,
        "13689": 154,
        "13690": 200,
        "13691": 240,
        "13692": 162,
        "13693": 22,
        "13694": 36,
        "13695": 200,
        "13696": 169,
        "13697": 3,
        "13698": 107,
        "13699": 150,
        "13700": 135,
        "13701": 93,
        "13702": 119,
        "13703": 93,
        "13704": 142,
        "13705": 182,
        "13706": 46,
        "13707": 131,
        "13708": 127,
        "13709": 228,
        "13710": 249,
        "13711": 229,
        "13712": 133,
        "13713": 1,
        "13714": 190,
        "13715": 141,
        "13716": 162,
        "13717": 134,
        "13718": 146,
        "13719": 95,
        "13720": 19,
        "13721": 247,
        "13722": 43,
        "13723": 33,
        "13724": 6,
        "13725": 254,
        "13726": 219,
        "13727": 104,
        "13728": 12,
        "13729": 11,
        "13730": 225,
        "13731": 50,
        "13732": 120,
        "13733": 16,
        "13734": 17,
        "13735": 60,
        "13736": 120,
        "13737": 216,
        "13738": 74,
        "13739": 140,
        "13740": 188,
        "13741": 117,
        "13742": 211,
        "13743": 162,
        "13744": 237,
        "13745": 17,
        "13746": 146,
        "13747": 73,
        "13748": 100,
        "13749": 252,
        "13750": 209,
        "13751": 171,
        "13752": 188,
        "13753": 220,
        "13754": 124,
        "13755": 123,
        "13756": 220,
        "13757": 79,
        "13758": 77,
        "13759": 186,
        "13760": 149,
        "13761": 183,
        "13762": 43,
        "13763": 74,
        "13764": 202,
        "13765": 11,
        "13766": 60,
        "13767": 193,
        "13768": 52,
        "13769": 139,
        "13770": 93,
        "13771": 228,
        "13772": 11,
        "13773": 90,
        "13774": 18,
        "13775": 82,
        "13776": 76,
        "13777": 3,
        "13778": 42,
        "13779": 189,
        "13780": 195,
        "13781": 6,
        "13782": 71,
        "13783": 162,
        "13784": 161,
        "13785": 133,
        "13786": 201,
        "13787": 224,
        "13788": 146,
        "13789": 37,
        "13790": 100,
        "13791": 238,
        "13792": 156,
        "13793": 96,
        "13794": 79,
        "13795": 188,
        "13796": 105,
        "13797": 94,
        "13798": 90,
        "13799": 17,
        "13800": 71,
        "13801": 245,
        "13802": 200,
        "13803": 157,
        "13804": 223,
        "13805": 172,
        "13806": 62,
        "13807": 185,
        "13808": 163,
        "13809": 0,
        "13810": 163,
        "13811": 49,
        "13812": 180,
        "13813": 77,
        "13814": 54,
        "13815": 61,
        "13816": 246,
        "13817": 231,
        "13818": 207,
        "13819": 82,
        "13820": 235,
        "13821": 181,
        "13822": 58,
        "13823": 195,
        "13824": 255,
        "13825": 34,
        "13826": 202,
        "13827": 40,
        "13828": 184,
        "13829": 12,
        "13830": 218,
        "13831": 238,
        "13832": 105,
        "13833": 63,
        "13834": 127,
        "13835": 115,
        "13836": 38,
        "13837": 49,
        "13838": 38,
        "13839": 169,
        "13840": 48,
        "13841": 85,
        "13842": 28,
        "13843": 41,
        "13844": 63,
        "13845": 178,
        "13846": 18,
        "13847": 135,
        "13848": 199,
        "13849": 228,
        "13850": 71,
        "13851": 183,
        "13852": 180,
        "13853": 132,
        "13854": 181,
        "13855": 112,
        "13856": 22,
        "13857": 195,
        "13858": 125,
        "13859": 57,
        "13860": 42,
        "13861": 234,
        "13862": 63,
        "13863": 66,
        "13864": 4,
        "13865": 223,
        "13866": 146,
        "13867": 88,
        "13868": 91,
        "13869": 22,
        "13870": 120,
        "13871": 122,
        "13872": 246,
        "13873": 81,
        "13874": 43,
        "13875": 139,
        "13876": 238,
        "13877": 203,
        "13878": 156,
        "13879": 248,
        "13880": 206,
        "13881": 56,
        "13882": 145,
        "13883": 137,
        "13884": 18,
        "13885": 50,
        "13886": 112,
        "13887": 86,
        "13888": 146,
        "13889": 250,
        "13890": 205,
        "13891": 89,
        "13892": 142,
        "13893": 106,
        "13894": 227,
        "13895": 234,
        "13896": 143,
        "13897": 219,
        "13898": 203,
        "13899": 53,
        "13900": 230,
        "13901": 192,
        "13902": 208,
        "13903": 35,
        "13904": 146,
        "13905": 201,
        "13906": 254,
        "13907": 34,
        "13908": 246,
        "13909": 170,
        "13910": 114,
        "13911": 133,
        "13912": 103,
        "13913": 169,
        "13914": 48,
        "13915": 39,
        "13916": 112,
        "13917": 120,
        "13918": 12,
        "13919": 226,
        "13920": 140,
        "13921": 217,
        "13922": 23,
        "13923": 85,
        "13924": 61,
        "13925": 29,
        "13926": 87,
        "13927": 73,
        "13928": 162,
        "13929": 150,
        "13930": 115,
        "13931": 81,
        "13932": 51,
        "13933": 146,
        "13934": 242,
        "13935": 243,
        "13936": 126,
        "13937": 226,
        "13938": 71,
        "13939": 94,
        "13940": 111,
        "13941": 227,
        "13942": 212,
        "13943": 55,
        "13944": 110,
        "13945": 11,
        "13946": 226,
        "13947": 162,
        "13948": 210,
        "13949": 27,
        "13950": 234,
        "13951": 182,
        "13952": 232,
        "13953": 220,
        "13954": 187,
        "13955": 47,
        "13956": 175,
        "13957": 212,
        "13958": 242,
        "13959": 117,
        "13960": 12,
        "13961": 2,
        "13962": 171,
        "13963": 105,
        "13964": 249,
        "13965": 42,
        "13966": 247,
        "13967": 185,
        "13968": 36,
        "13969": 101,
        "13970": 16,
        "13971": 158,
        "13972": 30,
        "13973": 122,
        "13974": 131,
        "13975": 75,
        "13976": 105,
        "13977": 241,
        "13978": 117,
        "13979": 61,
        "13980": 199,
        "13981": 249,
        "13982": 61,
        "13983": 32,
        "13984": 56,
        "13985": 167,
        "13986": 155,
        "13987": 115,
        "13988": 175,
        "13989": 93,
        "13990": 86,
        "13991": 255,
        "13992": 225,
        "13993": 84,
        "13994": 83,
        "13995": 131,
        "13996": 182,
        "13997": 239,
        "13998": 108,
        "13999": 133,
        "14000": 157,
        "14001": 22,
        "14002": 205,
        "14003": 227,
        "14004": 159,
        "14005": 240,
        "14006": 74,
        "14007": 45,
        "14008": 134,
        "14009": 90,
        "14010": 120,
        "14011": 233,
        "14012": 21,
        "14013": 85,
        "14014": 182,
        "14015": 57,
        "14016": 225,
        "14017": 250,
        "14018": 59,
        "14019": 53,
        "14020": 227,
        "14021": 161,
        "14022": 169,
        "14023": 142,
        "14024": 31,
        "14025": 70,
        "14026": 228,
        "14027": 225,
        "14028": 213,
        "14029": 17,
        "14030": 238,
        "14031": 141,
        "14032": 71,
        "14033": 218,
        "14034": 89,
        "14035": 132,
        "14036": 50,
        "14037": 25,
        "14038": 186,
        "14039": 210,
        "14040": 103,
        "14041": 143,
        "14042": 100,
        "14043": 141,
        "14044": 211,
        "14045": 142,
        "14046": 231,
        "14047": 89,
        "14048": 2,
        "14049": 13,
        "14050": 223,
        "14051": 37,
        "14052": 136,
        "14053": 81,
        "14054": 53,
        "14055": 222,
        "14056": 53,
        "14057": 82,
        "14058": 234,
        "14059": 111,
        "14060": 124,
        "14061": 82,
        "14062": 100,
        "14063": 111,
        "14064": 92,
        "14065": 200,
        "14066": 198,
        "14067": 22,
        "14068": 14,
        "14069": 201,
        "14070": 55,
        "14071": 69,
        "14072": 204,
        "14073": 129,
        "14074": 65,
        "14075": 53,
        "14076": 136,
        "14077": 39,
        "14078": 152,
        "14079": 132,
        "14080": 41,
        "14081": 235,
        "14082": 94,
        "14083": 109,
        "14084": 128,
        "14085": 134,
        "14086": 133,
        "14087": 162,
        "14088": 104,
        "14089": 190,
        "14090": 151,
        "14091": 128,
        "14092": 19,
        "14093": 38,
        "14094": 101,
        "14095": 172,
        "14096": 220,
        "14097": 116,
        "14098": 30,
        "14099": 162,
        "14100": 122,
        "14101": 219,
        "14102": 171,
        "14103": 19,
        "14104": 93,
        "14105": 111,
        "14106": 121,
        "14107": 234,
        "14108": 48,
        "14109": 135,
        "14110": 210,
        "14111": 185,
        "14112": 30,
        "14113": 78,
        "14114": 59,
        "14115": 14,
        "14116": 105,
        "14117": 187,
        "14118": 147,
        "14119": 169,
        "14120": 100,
        "14121": 42,
        "14122": 192,
        "14123": 66,
        "14124": 33,
        "14125": 104,
        "14126": 86,
        "14127": 246,
        "14128": 181,
        "14129": 165,
        "14130": 45,
        "14131": 241,
        "14132": 176,
        "14133": 0,
        "14134": 24,
        "14135": 60,
        "14136": 152,
        "14137": 241,
        "14138": 168,
        "14139": 164,
        "14140": 140,
        "14141": 62,
        "14142": 165,
        "14143": 217,
        "14144": 220,
        "14145": 70,
        "14146": 69,
        "14147": 70,
        "14148": 213,
        "14149": 103,
        "14150": 74,
        "14151": 237,
        "14152": 134,
        "14153": 234,
        "14154": 19,
        "14155": 109,
        "14156": 115,
        "14157": 238,
        "14158": 66,
        "14159": 23,
        "14160": 92,
        "14161": 153,
        "14162": 56,
        "14163": 208,
        "14164": 242,
        "14165": 128,
        "14166": 0,
        "14167": 183,
        "14168": 169,
        "14169": 136,
        "14170": 199,
        "14171": 46,
        "14172": 117,
        "14173": 129,
        "14174": 38,
        "14175": 152,
        "14176": 226,
        "14177": 153,
        "14178": 131,
        "14179": 39,
        "14180": 134,
        "14181": 143,
        "14182": 103,
        "14183": 79,
        "14184": 23,
        "14185": 97,
        "14186": 249,
        "14187": 254,
        "14188": 206,
        "14189": 255,
        "14190": 124,
        "14191": 97,
        "14192": 131,
        "14193": 42,
        "14194": 184,
        "14195": 208,
        "14196": 76,
        "14197": 161,
        "14198": 241,
        "14199": 90,
        "14200": 146,
        "14201": 95,
        "14202": 62,
        "14203": 245,
        "14204": 219,
        "14205": 214,
        "14206": 194,
        "14207": 87,
        "14208": 169,
        "14209": 195,
        "14210": 168,
        "14211": 2,
        "14212": 172,
        "14213": 29,
        "14214": 100,
        "14215": 144,
        "14216": 24,
        "14217": 96,
        "14218": 171,
        "14219": 141,
        "14220": 148,
        "14221": 180,
        "14222": 87,
        "14223": 90,
        "14224": 112,
        "14225": 106,
        "14226": 52,
        "14227": 37,
        "14228": 46,
        "14229": 9,
        "14230": 125,
        "14231": 248,
        "14232": 147,
        "14233": 235,
        "14234": 21,
        "14235": 76,
        "14236": 219,
        "14237": 79,
        "14238": 182,
        "14239": 130,
        "14240": 140,
        "14241": 59,
        "14242": 93,
        "14243": 12,
        "14244": 77,
        "14245": 108,
        "14246": 248,
        "14247": 36,
        "14248": 168,
        "14249": 207,
        "14250": 205,
        "14251": 181,
        "14252": 231,
        "14253": 44,
        "14254": 54,
        "14255": 185,
        "14256": 109,
        "14257": 82,
        "14258": 187,
        "14259": 163,
        "14260": 60,
        "14261": 200,
        "14262": 170,
        "14263": 208,
        "14264": 214,
        "14265": 153,
        "14266": 21,
        "14267": 160,
        "14268": 137,
        "14269": 3,
        "14270": 213,
        "14271": 195,
        "14272": 45,
        "14273": 220,
        "14274": 29,
        "14275": 115,
        "14276": 77,
        "14277": 227,
        "14278": 56,
        "14279": 237,
        "14280": 139,
        "14281": 85,
        "14282": 69,
        "14283": 135,
        "14284": 239,
        "14285": 229,
        "14286": 103,
        "14287": 219,
        "14288": 120,
        "14289": 224,
        "14290": 149,
        "14291": 216,
        "14292": 168,
        "14293": 187,
        "14294": 88,
        "14295": 130,
        "14296": 40,
        "14297": 211,
        "14298": 165,
        "14299": 29,
        "14300": 237,
        "14301": 181,
        "14302": 239,
        "14303": 127,
        "14304": 183,
        "14305": 88,
        "14306": 150,
        "14307": 146,
        "14308": 209,
        "14309": 72,
        "14310": 217,
        "14311": 116,
        "14312": 105,
        "14313": 86,
        "14314": 123,
        "14315": 80,
        "14316": 201,
        "14317": 19,
        "14318": 173,
        "14319": 47,
        "14320": 45,
        "14321": 134,
        "14322": 53,
        "14323": 99,
        "14324": 106,
        "14325": 196,
        "14326": 170,
        "14327": 151,
        "14328": 5,
        "14329": 14,
        "14330": 194,
        "14331": 14,
        "14332": 108,
        "14333": 165,
        "14334": 140,
        "14335": 164,
        "14336": 147,
        "14337": 244,
        "14338": 30,
        "14339": 77,
        "14340": 178,
        "14341": 212,
        "14342": 185,
        "14343": 235,
        "14344": 75,
        "14345": 146,
        "14346": 180,
        "14347": 242,
        "14348": 61,
        "14349": 157,
        "14350": 86,
        "14351": 45,
        "14352": 3,
        "14353": 65,
        "14354": 159,
        "14355": 154,
        "14356": 173,
        "14357": 1,
        "14358": 170,
        "14359": 11,
        "14360": 10,
        "14361": 156,
        "14362": 103,
        "14363": 84,
        "14364": 215,
        "14365": 182,
        "14366": 86,
        "14367": 93,
        "14368": 177,
        "14369": 141,
        "14370": 136,
        "14371": 190,
        "14372": 36,
        "14373": 216,
        "14374": 203,
        "14375": 214,
        "14376": 33,
        "14377": 173,
        "14378": 32,
        "14379": 33,
        "14380": 12,
        "14381": 158,
        "14382": 55,
        "14383": 170,
        "14384": 147,
        "14385": 59,
        "14386": 251,
        "14387": 100,
        "14388": 232,
        "14389": 154,
        "14390": 6,
        "14391": 189,
        "14392": 14,
        "14393": 215,
        "14394": 203,
        "14395": 201,
        "14396": 229,
        "14397": 74,
        "14398": 133,
        "14399": 54,
        "14400": 23,
        "14401": 95,
        "14402": 178,
        "14403": 123,
        "14404": 182,
        "14405": 51,
        "14406": 132,
        "14407": 15,
        "14408": 224,
        "14409": 106,
        "14410": 178,
        "14411": 171,
        "14412": 47,
        "14413": 119,
        "14414": 235,
        "14415": 17,
        "14416": 212,
        "14417": 38,
        "14418": 115,
        "14419": 155,
        "14420": 175,
        "14421": 187,
        "14422": 107,
        "14423": 114,
        "14424": 174,
        "14425": 52,
        "14426": 127,
        "14427": 67,
        "14428": 243,
        "14429": 121,
        "14430": 98,
        "14431": 214,
        "14432": 22,
        "14433": 196,
        "14434": 191,
        "14435": 81,
        "14436": 217,
        "14437": 228,
        "14438": 188,
        "14439": 7,
        "14440": 226,
        "14441": 116,
        "14442": 56,
        "14443": 115,
        "14444": 167,
        "14445": 119,
        "14446": 103,
        "14447": 148,
        "14448": 41,
        "14449": 12,
        "14450": 179,
        "14451": 122,
        "14452": 82,
        "14453": 44,
        "14454": 122,
        "14455": 143,
        "14456": 143,
        "14457": 120,
        "14458": 48,
        "14459": 242,
        "14460": 53,
        "14461": 197,
        "14462": 152,
        "14463": 85,
        "14464": 43,
        "14465": 253,
        "14466": 175,
        "14467": 58,
        "14468": 171,
        "14469": 124,
        "14470": 5,
        "14471": 16,
        "14472": 0,
        "14473": 184,
        "14474": 176,
        "14475": 202,
        "14476": 227,
        "14477": 196,
        "14478": 160,
        "14479": 66,
        "14480": 73,
        "14481": 113,
        "14482": 204,
        "14483": 49,
        "14484": 127,
        "14485": 142,
        "14486": 248,
        "14487": 246,
        "14488": 77,
        "14489": 76,
        "14490": 118,
        "14491": 5,
        "14492": 15,
        "14493": 147,
        "14494": 144,
        "14495": 43,
        "14496": 235,
        "14497": 29,
        "14498": 57,
        "14499": 149,
        "14500": 131,
        "14501": 164,
        "14502": 25,
        "14503": 103,
        "14504": 3,
        "14505": 210,
        "14506": 157,
        "14507": 20,
        "14508": 190,
        "14509": 65,
        "14510": 185,
        "14511": 224,
        "14512": 163,
        "14513": 214,
        "14514": 188,
        "14515": 120,
        "14516": 67,
        "14517": 197,
        "14518": 203,
        "14519": 226,
        "14520": 8,
        "14521": 233,
        "14522": 90,
        "14523": 73,
        "14524": 41,
        "14525": 18,
        "14526": 2,
        "14527": 13,
        "14528": 183,
        "14529": 31,
        "14530": 242,
        "14531": 98,
        "14532": 48,
        "14533": 221,
        "14534": 75,
        "14535": 59,
        "14536": 34,
        "14537": 181,
        "14538": 177,
        "14539": 147,
        "14540": 119,
        "14541": 246,
        "14542": 204,
        "14543": 26,
        "14544": 6,
        "14545": 106,
        "14546": 166,
        "14547": 193,
        "14548": 249,
        "14549": 80,
        "14550": 37,
        "14551": 51,
        "14552": 149,
        "14553": 163,
        "14554": 234,
        "14555": 156,
        "14556": 144,
        "14557": 78,
        "14558": 117,
        "14559": 235,
        "14560": 110,
        "14561": 67,
        "14562": 190,
        "14563": 62,
        "14564": 199,
        "14565": 90,
        "14566": 52,
        "14567": 109,
        "14568": 160,
        "14569": 50,
        "14570": 36,
        "14571": 176,
        "14572": 24,
        "14573": 122,
        "14574": 178,
        "14575": 98,
        "14576": 111,
        "14577": 83,
        "14578": 52,
        "14579": 12,
        "14580": 39,
        "14581": 178,
        "14582": 245,
        "14583": 236,
        "14584": 98,
        "14585": 46,
        "14586": 21,
        "14587": 193,
        "14588": 21,
        "14589": 249,
        "14590": 108,
        "14591": 196,
        "14592": 201,
        "14593": 206,
        "14594": 98,
        "14595": 191,
        "14596": 229,
        "14597": 148,
        "14598": 221,
        "14599": 124,
        "14600": 169,
        "14601": 178,
        "14602": 145,
        "14603": 224,
        "14604": 31,
        "14605": 41,
        "14606": 240,
        "14607": 20,
        "14608": 118,
        "14609": 80,
        "14610": 46,
        "14611": 71,
        "14612": 250,
        "14613": 109,
        "14614": 216,
        "14615": 206,
        "14616": 131,
        "14617": 191,
        "14618": 195,
        "14619": 214,
        "14620": 86,
        "14621": 98,
        "14622": 222,
        "14623": 198,
        "14624": 123,
        "14625": 224,
        "14626": 172,
        "14627": 54,
        "14628": 181,
        "14629": 248,
        "14630": 123,
        "14631": 202,
        "14632": 150,
        "14633": 148,
        "14634": 121,
        "14635": 222,
        "14636": 212,
        "14637": 102,
        "14638": 20,
        "14639": 121,
        "14640": 181,
        "14641": 119,
        "14642": 251,
        "14643": 167,
        "14644": 237,
        "14645": 143,
        "14646": 174,
        "14647": 192,
        "14648": 228,
        "14649": 92,
        "14650": 179,
        "14651": 129,
        "14652": 249,
        "14653": 121,
        "14654": 182,
        "14655": 17,
        "14656": 70,
        "14657": 122,
        "14658": 238,
        "14659": 122,
        "14660": 33,
        "14661": 78,
        "14662": 183,
        "14663": 239,
        "14664": 87,
        "14665": 209,
        "14666": 4,
        "14667": 11,
        "14668": 25,
        "14669": 171,
        "14670": 97,
        "14671": 207,
        "14672": 188,
        "14673": 189,
        "14674": 51,
        "14675": 162,
        "14676": 132,
        "14677": 192,
        "14678": 159,
        "14679": 253,
        "14680": 97,
        "14681": 207,
        "14682": 161,
        "14683": 121,
        "14684": 183,
        "14685": 177,
        "14686": 5,
        "14687": 156,
        "14688": 7,
        "14689": 27,
        "14690": 220,
        "14691": 94,
        "14692": 114,
        "14693": 111,
        "14694": 134,
        "14695": 139,
        "14696": 150,
        "14697": 198,
        "14698": 124,
        "14699": 14,
        "14700": 166,
        "14701": 24,
        "14702": 48,
        "14703": 242,
        "14704": 155,
        "14705": 69,
        "14706": 198,
        "14707": 226,
        "14708": 148,
        "14709": 233,
        "14710": 8,
        "14711": 93,
        "14712": 186,
        "14713": 228,
        "14714": 182,
        "14715": 29,
        "14716": 182,
        "14717": 122,
        "14718": 45,
        "14719": 71,
        "14720": 138,
        "14721": 177,
        "14722": 8,
        "14723": 85,
        "14724": 34,
        "14725": 2,
        "14726": 23,
        "14727": 31,
        "14728": 238,
        "14729": 12,
        "14730": 93,
        "14731": 42,
        "14732": 133,
        "14733": 192,
        "14734": 144,
        "14735": 250,
        "14736": 103,
        "14737": 37,
        "14738": 194,
        "14739": 86,
        "14740": 227,
        "14741": 85,
        "14742": 53,
        "14743": 220,
        "14744": 63,
        "14745": 32,
        "14746": 231,
        "14747": 114,
        "14748": 0,
        "14749": 131,
        "14750": 56,
        "14751": 105,
        "14752": 39,
        "14753": 113,
        "14754": 77,
        "14755": 67,
        "14756": 207,
        "14757": 57,
        "14758": 232,
        "14759": 165,
        "14760": 153,
        "14761": 19,
        "14762": 10,
        "14763": 101,
        "14764": 40,
        "14765": 36,
        "14766": 206,
        "14767": 174,
        "14768": 218,
        "14769": 134,
        "14770": 24,
        "14771": 19,
        "14772": 13,
        "14773": 219,
        "14774": 255,
        "14775": 105,
        "14776": 235,
        "14777": 31,
        "14778": 87,
        "14779": 25,
        "14780": 47,
        "14781": 95,
        "14782": 168,
        "14783": 115,
        "14784": 61,
        "14785": 70,
        "14786": 159,
        "14787": 60,
        "14788": 100,
        "14789": 21,
        "14790": 192,
        "14791": 32,
        "14792": 85,
        "14793": 176,
        "14794": 250,
        "14795": 24,
        "14796": 167,
        "14797": 207,
        "14798": 94,
        "14799": 99,
        "14800": 151,
        "14801": 239,
        "14802": 50,
        "14803": 252,
        "14804": 27,
        "14805": 84,
        "14806": 36,
        "14807": 90,
        "14808": 120,
        "14809": 49,
        "14810": 82,
        "14811": 221,
        "14812": 8,
        "14813": 4,
        "14814": 143,
        "14815": 41,
        "14816": 126,
        "14817": 62,
        "14818": 51,
        "14819": 176,
        "14820": 58,
        "14821": 8,
        "14822": 102,
        "14823": 19,
        "14824": 122,
        "14825": 121,
        "14826": 95,
        "14827": 40,
        "14828": 125,
        "14829": 219,
        "14830": 245,
        "14831": 48,
        "14832": 166,
        "14833": 143,
        "14834": 103,
        "14835": 96,
        "14836": 156,
        "14837": 121,
        "14838": 55,
        "14839": 25,
        "14840": 185,
        "14841": 9,
        "14842": 242,
        "14843": 137,
        "14844": 160,
        "14845": 113,
        "14846": 105,
        "14847": 79,
        "14848": 138,
        "14849": 112,
        "14850": 122,
        "14851": 211,
        "14852": 133,
        "14853": 206,
        "14854": 6,
        "14855": 89,
        "14856": 161,
        "14857": 157,
        "14858": 134,
        "14859": 220,
        "14860": 243,
        "14861": 14,
        "14862": 181,
        "14863": 96,
        "14864": 106,
        "14865": 242,
        "14866": 241,
        "14867": 212,
        "14868": 160,
        "14869": 225,
        "14870": 59,
        "14871": 155,
        "14872": 131,
        "14873": 18,
        "14874": 148,
        "14875": 229,
        "14876": 47,
        "14877": 247,
        "14878": 33,
        "14879": 191,
        "14880": 61,
        "14881": 67,
        "14882": 215,
        "14883": 18,
        "14884": 197,
        "14885": 216,
        "14886": 240,
        "14887": 173,
        "14888": 46,
        "14889": 123,
        "14890": 93,
        "14891": 115,
        "14892": 54,
        "14893": 186,
        "14894": 84,
        "14895": 32,
        "14896": 52,
        "14897": 69,
        "14898": 42,
        "14899": 10,
        "14900": 23,
        "14901": 102,
        "14902": 60,
        "14903": 144,
        "14904": 104,
        "14905": 31,
        "14906": 124,
        "14907": 253,
        "14908": 75,
        "14909": 3,
        "14910": 198,
        "14911": 139,
        "14912": 56,
        "14913": 68,
        "14914": 177,
        "14915": 107,
        "14916": 22,
        "14917": 222,
        "14918": 87,
        "14919": 134,
        "14920": 248,
        "14921": 218,
        "14922": 9,
        "14923": 15,
        "14924": 252,
        "14925": 229,
        "14926": 125,
        "14927": 239,
        "14928": 62,
        "14929": 78,
        "14930": 70,
        "14931": 99,
        "14932": 238,
        "14933": 97,
        "14934": 233,
        "14935": 207,
        "14936": 151,
        "14937": 209,
        "14938": 185,
        "14939": 232,
        "14940": 220,
        "14941": 93,
        "14942": 61,
        "14943": 24,
        "14944": 124,
        "14945": 253,
        "14946": 133,
        "14947": 147,
        "14948": 15,
        "14949": 19,
        "14950": 219,
        "14951": 197,
        "14952": 242,
        "14953": 127,
        "14954": 191,
        "14955": 6,
        "14956": 127,
        "14957": 157,
        "14958": 162,
        "14959": 244,
        "14960": 142,
        "14961": 165,
        "14962": 188,
        "14963": 29,
        "14964": 118,
        "14965": 72,
        "14966": 142,
        "14967": 209,
        "14968": 9,
        "14969": 253,
        "14970": 120,
        "14971": 219,
        "14972": 80,
        "14973": 243,
        "14974": 9,
        "14975": 3,
        "14976": 116,
        "14977": 224,
        "14978": 71,
        "14979": 135,
        "14980": 140,
        "14981": 203,
        "14982": 189,
        "14983": 43,
        "14984": 166,
        "14985": 1,
        "14986": 172,
        "14987": 142,
        "14988": 59,
        "14989": 19,
        "14990": 165,
        "14991": 69,
        "14992": 120,
        "14993": 185,
        "14994": 11,
        "14995": 210,
        "14996": 43,
        "14997": 76,
        "14998": 115,
        "14999": 255,
        "15000": 22,
        "15001": 189,
        "15002": 40,
        "15003": 80,
        "15004": 252,
        "15005": 170,
        "15006": 206,
        "15007": 232,
        "15008": 61,
        "15009": 73,
        "15010": 135,
        "15011": 103,
        "15012": 254,
        "15013": 161,
        "15014": 210,
        "15015": 179,
        "15016": 112,
        "15017": 198,
        "15018": 245,
        "15019": 216,
        "15020": 181,
        "15021": 52,
        "15022": 96,
        "15023": 238,
        "15024": 165,
        "15025": 241,
        "15026": 110,
        "15027": 193,
        "15028": 249,
        "15029": 223,
        "15030": 42,
        "15031": 151,
        "15032": 53,
        "15033": 178,
        "15034": 235,
        "15035": 168,
        "15036": 76,
        "15037": 67,
        "15038": 5,
        "15039": 64,
        "15040": 199,
        "15041": 141,
        "15042": 165,
        "15043": 16,
        "15044": 67,
        "15045": 101,
        "15046": 177,
        "15047": 79,
        "15048": 129,
        "15049": 127,
        "15050": 182,
        "15051": 105,
        "15052": 102,
        "15053": 31,
        "15054": 241,
        "15055": 32,
        "15056": 14,
        "15057": 103,
        "15058": 244,
        "15059": 70,
        "15060": 78,
        "15061": 189,
        "15062": 139,
        "15063": 37,
        "15064": 116,
        "15065": 14,
        "15066": 135,
        "15067": 38,
        "15068": 129,
        "15069": 118,
        "15070": 134,
        "15071": 120,
        "15072": 153,
        "15073": 237,
        "15074": 228,
        "15075": 238,
        "15076": 160,
        "15077": 146,
        "15078": 234,
        "15079": 92,
        "15080": 71,
        "15081": 219,
        "15082": 224,
        "15083": 249,
        "15084": 203,
        "15085": 34,
        "15086": 235,
        "15087": 214,
        "15088": 159,
        "15089": 217,
        "15090": 222,
        "15091": 197,
        "15092": 141,
        "15093": 34,
        "15094": 34,
        "15095": 83,
        "15096": 15,
        "15097": 12,
        "15098": 116,
        "15099": 162,
        "15100": 47,
        "15101": 12,
        "15102": 132,
        "15103": 10,
        "15104": 214,
        "15105": 218,
        "15106": 174,
        "15107": 36,
        "15108": 89,
        "15109": 112,
        "15110": 41,
        "15111": 234,
        "15112": 84,
        "15113": 109,
        "15114": 136,
        "15115": 13,
        "15116": 90,
        "15117": 248,
        "15118": 117,
        "15119": 153,
        "15120": 62,
        "15121": 235,
        "15122": 82,
        "15123": 179,
        "15124": 201,
        "15125": 116,
        "15126": 94,
        "15127": 238,
        "15128": 148,
        "15129": 16,
        "15130": 183,
        "15131": 14,
        "15132": 118,
        "15133": 37,
        "15134": 77,
        "15135": 197,
        "15136": 165,
        "15137": 202,
        "15138": 8,
        "15139": 2,
        "15140": 242,
        "15141": 192,
        "15142": 217,
        "15143": 16,
        "15144": 210,
        "15145": 52,
        "15146": 129,
        "15147": 10,
        "15148": 88,
        "15149": 233,
        "15150": 95,
        "15151": 89,
        "15152": 94,
        "15153": 215,
        "15154": 120,
        "15155": 118,
        "15156": 97,
        "15157": 36,
        "15158": 249,
        "15159": 188,
        "15160": 60,
        "15161": 5,
        "15162": 81,
        "15163": 126,
        "15164": 143,
        "15165": 71,
        "15166": 168,
        "15167": 147,
        "15168": 182,
        "15169": 171,
        "15170": 144,
        "15171": 132,
        "15172": 30,
        "15173": 160,
        "15174": 201,
        "15175": 253,
        "15176": 179,
        "15177": 208,
        "15178": 30,
        "15179": 15,
        "15180": 61,
        "15181": 13,
        "15182": 216,
        "15183": 155,
        "15184": 6,
        "15185": 103,
        "15186": 180,
        "15187": 241,
        "15188": 224,
        "15189": 166,
        "15190": 25,
        "15191": 15,
        "15192": 126,
        "15193": 224,
        "15194": 103,
        "15195": 15,
        "15196": 3,
        "15197": 236,
        "15198": 12,
        "15199": 126,
        "15200": 180,
        "15201": 234,
        "15202": 236,
        "15203": 167,
        "15204": 158,
        "15205": 144,
        "15206": 219,
        "15207": 147,
        "15208": 114,
        "15209": 90,
        "15210": 61,
        "15211": 213,
        "15212": 101,
        "15213": 175,
        "15214": 194,
        "15215": 163,
        "15216": 38,
        "15217": 12,
        "15218": 220,
        "15219": 80,
        "15220": 52,
        "15221": 1,
        "15222": 199,
        "15223": 189,
        "15224": 139,
        "15225": 73,
        "15226": 23,
        "15227": 86,
        "15228": 28,
        "15229": 111,
        "15230": 31,
        "15231": 252,
        "15232": 45,
        "15233": 107,
        "15234": 95,
        "15235": 174,
        "15236": 123,
        "15237": 137,
        "15238": 214,
        "15239": 3,
        "15240": 11,
        "15241": 3,
        "15242": 137,
        "15243": 141,
        "15244": 54,
        "15245": 9,
        "15246": 18,
        "15247": 191,
        "15248": 140,
        "15249": 207,
        "15250": 239,
        "15251": 141,
        "15252": 29,
        "15253": 110,
        "15254": 18,
        "15255": 133,
        "15256": 43,
        "15257": 135,
        "15258": 7,
        "15259": 183,
        "15260": 119,
        "15261": 172,
        "15262": 206,
        "15263": 182,
        "15264": 240,
        "15265": 13,
        "15266": 40,
        "15267": 241,
        "15268": 20,
        "15269": 161,
        "15270": 78,
        "15271": 116,
        "15272": 89,
        "15273": 120,
        "15274": 189,
        "15275": 129,
        "15276": 226,
        "15277": 54,
        "15278": 228,
        "15279": 49,
        "15280": 81,
        "15281": 210,
        "15282": 206,
        "15283": 175,
        "15284": 172,
        "15285": 121,
        "15286": 141,
        "15287": 232,
        "15288": 96,
        "15289": 176,
        "15290": 159,
        "15291": 202,
        "15292": 30,
        "15293": 69,
        "15294": 123,
        "15295": 190,
        "15296": 223,
        "15297": 139,
        "15298": 67,
        "15299": 152,
        "15300": 112,
        "15301": 251,
        "15302": 120,
        "15303": 125,
        "15304": 85,
        "15305": 219,
        "15306": 77,
        "15307": 67,
        "15308": 72,
        "15309": 206,
        "15310": 195,
        "15311": 112,
        "15312": 103,
        "15313": 20,
        "15314": 190,
        "15315": 69,
        "15316": 58,
        "15317": 140,
        "15318": 143,
        "15319": 112,
        "15320": 195,
        "15321": 10,
        "15322": 184,
        "15323": 178,
        "15324": 232,
        "15325": 50,
        "15326": 208,
        "15327": 202,
        "15328": 106,
        "15329": 202,
        "15330": 142,
        "15331": 143,
        "15332": 2,
        "15333": 104,
        "15334": 106,
        "15335": 213,
        "15336": 186,
        "15337": 97,
        "15338": 75,
        "15339": 102,
        "15340": 162,
        "15341": 75,
        "15342": 202,
        "15343": 149,
        "15344": 195,
        "15345": 197,
        "15346": 108,
        "15347": 114,
        "15348": 237,
        "15349": 236,
        "15350": 196,
        "15351": 166,
        "15352": 10,
        "15353": 195,
        "15354": 40,
        "15355": 31,
        "15356": 51,
        "15357": 100,
        "15358": 94,
        "15359": 19,
        "15360": 129,
        "15361": 244,
        "15362": 37,
        "15363": 155,
        "15364": 32,
        "15365": 217,
        "15366": 241,
        "15367": 43,
        "15368": 41,
        "15369": 166,
        "15370": 207,
        "15371": 138,
        "15372": 94,
        "15373": 200,
        "15374": 24,
        "15375": 105,
        "15376": 88,
        "15377": 9,
        "15378": 182,
        "15379": 177,
        "15380": 123,
        "15381": 204,
        "15382": 55,
        "15383": 210,
        "15384": 139,
        "15385": 93,
        "15386": 161,
        "15387": 69,
        "15388": 77,
        "15389": 218,
        "15390": 65,
        "15391": 6,
        "15392": 223,
        "15393": 136,
        "15394": 142,
        "15395": 177,
        "15396": 69,
        "15397": 181,
        "15398": 17,
        "15399": 163,
        "15400": 83,
        "15401": 10,
        "15402": 122,
        "15403": 226,
        "15404": 122,
        "15405": 188,
        "15406": 225,
        "15407": 232,
        "15408": 199,
        "15409": 216,
        "15410": 221,
        "15411": 223,
        "15412": 158,
        "15413": 247,
        "15414": 149,
        "15415": 87,
        "15416": 190,
        "15417": 201,
        "15418": 30,
        "15419": 231,
        "15420": 111,
        "15421": 56,
        "15422": 76,
        "15423": 160,
        "15424": 169,
        "15425": 154,
        "15426": 18,
        "15427": 223,
        "15428": 221,
        "15429": 74,
        "15430": 193,
        "15431": 129,
        "15432": 188,
        "15433": 153,
        "15434": 193,
        "15435": 153,
        "15436": 41,
        "15437": 190,
        "15438": 29,
        "15439": 134,
        "15440": 48,
        "15441": 128,
        "15442": 122,
        "15443": 168,
        "15444": 209,
        "15445": 7,
        "15446": 103,
        "15447": 94,
        "15448": 233,
        "15449": 8,
        "15450": 199,
        "15451": 26,
        "15452": 165,
        "15453": 170,
        "15454": 175,
        "15455": 114,
        "15456": 49,
        "15457": 243,
        "15458": 210,
        "15459": 124,
        "15460": 252,
        "15461": 161,
        "15462": 118,
        "15463": 225,
        "15464": 28,
        "15465": 226,
        "15466": 152,
        "15467": 163,
        "15468": 70,
        "15469": 95,
        "15470": 12,
        "15471": 83,
        "15472": 78,
        "15473": 16,
        "15474": 186,
        "15475": 181,
        "15476": 166,
        "15477": 224,
        "15478": 131,
        "15479": 102,
        "15480": 189,
        "15481": 9,
        "15482": 192,
        "15483": 190,
        "15484": 247,
        "15485": 130,
        "15486": 145,
        "15487": 30,
        "15488": 87,
        "15489": 156,
        "15490": 246,
        "15491": 247,
        "15492": 194,
        "15493": 239,
        "15494": 19,
        "15495": 84,
        "15496": 123,
        "15497": 34,
        "15498": 96,
        "15499": 134,
        "15500": 15,
        "15501": 150,
        "15502": 242,
        "15503": 239,
        "15504": 143,
        "15505": 16,
        "15506": 122,
        "15507": 50,
        "15508": 7,
        "15509": 185,
        "15510": 180,
        "15511": 23,
        "15512": 252,
        "15513": 205,
        "15514": 104,
        "15515": 160,
        "15516": 200,
        "15517": 10,
        "15518": 138,
        "15519": 231,
        "15520": 22,
        "15521": 31,
        "15522": 195,
        "15523": 2,
        "15524": 196,
        "15525": 121,
        "15526": 168,
        "15527": 113,
        "15528": 84,
        "15529": 10,
        "15530": 74,
        "15531": 213,
        "15532": 241,
        "15533": 92,
        "15534": 100,
        "15535": 213,
        "15536": 129,
        "15537": 193,
        "15538": 93,
        "15539": 154,
        "15540": 238,
        "15541": 196,
        "15542": 253,
        "15543": 70,
        "15544": 191,
        "15545": 226,
        "15546": 195,
        "15547": 43,
        "15548": 1,
        "15549": 38,
        "15550": 60,
        "15551": 239,
        "15552": 205,
        "15553": 50,
        "15554": 45,
        "15555": 8,
        "15556": 152,
        "15557": 241,
        "15558": 38,
        "15559": 113,
        "15560": 12,
        "15561": 193,
        "15562": 80,
        "15563": 61,
        "15564": 97,
        "15565": 197,
        "15566": 197,
        "15567": 141,
        "15568": 145,
        "15569": 220,
        "15570": 74,
        "15571": 176,
        "15572": 71,
        "15573": 20,
        "15574": 141,
        "15575": 7,
        "15576": 13,
        "15577": 7,
        "15578": 85,
        "15579": 239,
        "15580": 108,
        "15581": 81,
        "15582": 108,
        "15583": 230,
        "15584": 185,
        "15585": 198,
        "15586": 133,
        "15587": 1,
        "15588": 175,
        "15589": 26,
        "15590": 3,
        "15591": 41,
        "15592": 9,
        "15593": 237,
        "15594": 139,
        "15595": 5,
        "15596": 41,
        "15597": 114,
        "15598": 84,
        "15599": 59,
        "15600": 187,
        "15601": 55,
        "15602": 46,
        "15603": 19,
        "15604": 16,
        "15605": 5,
        "15606": 176,
        "15607": 176,
        "15608": 86,
        "15609": 92,
        "15610": 43,
        "15611": 208,
        "15612": 172,
        "15613": 114,
        "15614": 195,
        "15615": 192,
        "15616": 8,
        "15617": 241,
        "15618": 176,
        "15619": 219,
        "15620": 247,
        "15621": 28,
        "15622": 106,
        "15623": 148,
        "15624": 147,
        "15625": 34,
        "15626": 229,
        "15627": 129,
        "15628": 198,
        "15629": 234,
        "15630": 236,
        "15631": 58,
        "15632": 184,
        "15633": 162,
        "15634": 181,
        "15635": 243,
        "15636": 118,
        "15637": 227,
        "15638": 81,
        "15639": 114,
        "15640": 59,
        "15641": 252,
        "15642": 234,
        "15643": 29,
        "15644": 134,
        "15645": 231,
        "15646": 65,
        "15647": 189,
        "15648": 31,
        "15649": 65,
        "15650": 179,
        "15651": 209,
        "15652": 213,
        "15653": 116,
        "15654": 254,
        "15655": 171,
        "15656": 179,
        "15657": 197,
        "15658": 60,
        "15659": 162,
        "15660": 59,
        "15661": 251,
        "15662": 65,
        "15663": 27,
        "15664": 114,
        "15665": 92,
        "15666": 2,
        "15667": 22,
        "15668": 215,
        "15669": 196,
        "15670": 230,
        "15671": 65,
        "15672": 106,
        "15673": 209,
        "15674": 204,
        "15675": 99,
        "15676": 175,
        "15677": 241,
        "15678": 180,
        "15679": 162,
        "15680": 197,
        "15681": 1,
        "15682": 78,
        "15683": 209,
        "15684": 199,
        "15685": 194,
        "15686": 204,
        "15687": 97,
        "15688": 45,
        "15689": 114,
        "15690": 46,
        "15691": 83,
        "15692": 61,
        "15693": 142,
        "15694": 141,
        "15695": 186,
        "15696": 171,
        "15697": 213,
        "15698": 17,
        "15699": 198,
        "15700": 195,
        "15701": 241,
        "15702": 203,
        "15703": 222,
        "15704": 134,
        "15705": 28,
        "15706": 97,
        "15707": 46,
        "15708": 69,
        "15709": 80,
        "15710": 220,
        "15711": 49,
        "15712": 65,
        "15713": 129,
        "15714": 113,
        "15715": 185,
        "15716": 69,
        "15717": 159,
        "15718": 157,
        "15719": 212,
        "15720": 38,
        "15721": 199,
        "15722": 21,
        "15723": 41,
        "15724": 223,
        "15725": 231,
        "15726": 213,
        "15727": 233,
        "15728": 75,
        "15729": 114,
        "15730": 210,
        "15731": 203,
        "15732": 128,
        "15733": 19,
        "15734": 238,
        "15735": 154,
        "15736": 207,
        "15737": 239,
        "15738": 189,
        "15739": 60,
        "15740": 92,
        "15741": 205,
        "15742": 141,
        "15743": 189,
        "15744": 197,
        "15745": 235,
        "15746": 180,
        "15747": 15,
        "15748": 72,
        "15749": 188,
        "15750": 61,
        "15751": 242,
        "15752": 144,
        "15753": 98,
        "15754": 145,
        "15755": 45,
        "15756": 191,
        "15757": 225,
        "15758": 112,
        "15759": 54,
        "15760": 140,
        "15761": 154,
        "15762": 133,
        "15763": 238,
        "15764": 47,
        "15765": 0,
        "15766": 82,
        "15767": 251,
        "15768": 80,
        "15769": 63,
        "15770": 228,
        "15771": 171,
        "15772": 154,
        "15773": 255,
        "15774": 40,
        "15775": 207,
        "15776": 127,
        "15777": 150,
        "15778": 172,
        "15779": 216,
        "15780": 16,
        "15781": 140,
        "15782": 205,
        "15783": 224,
        "15784": 142,
        "15785": 145,
        "15786": 205,
        "15787": 118,
        "15788": 44,
        "15789": 153,
        "15790": 104,
        "15791": 87,
        "15792": 137,
        "15793": 225,
        "15794": 68,
        "15795": 187,
        "15796": 165,
        "15797": 212,
        "15798": 241,
        "15799": 34,
        "15800": 101,
        "15801": 15,
        "15802": 200,
        "15803": 193,
        "15804": 174,
        "15805": 6,
        "15806": 255,
        "15807": 4,
        "15808": 118,
        "15809": 73,
        "15810": 200,
        "15811": 15,
        "15812": 121,
        "15813": 200,
        "15814": 208,
        "15815": 226,
        "15816": 9,
        "15817": 184,
        "15818": 17,
        "15819": 54,
        "15820": 156,
        "15821": 87,
        "15822": 108,
        "15823": 195,
        "15824": 231,
        "15825": 41,
        "15826": 83,
        "15827": 42,
        "15828": 98,
        "15829": 215,
        "15830": 174,
        "15831": 173,
        "15832": 98,
        "15833": 127,
        "15834": 202,
        "15835": 68,
        "15836": 197,
        "15837": 215,
        "15838": 201,
        "15839": 2,
        "15840": 71,
        "15841": 118,
        "15842": 196,
        "15843": 144,
        "15844": 54,
        "15845": 99,
        "15846": 230,
        "15847": 241,
        "15848": 119,
        "15849": 27,
        "15850": 0,
        "15851": 208,
        "15852": 88,
        "15853": 61,
        "15854": 144,
        "15855": 46,
        "15856": 174,
        "15857": 163,
        "15858": 87,
        "15859": 184,
        "15860": 4,
        "15861": 227,
        "15862": 132,
        "15863": 196,
        "15864": 124,
        "15865": 114,
        "15866": 222,
        "15867": 165,
        "15868": 163,
        "15869": 84,
        "15870": 239,
        "15871": 118,
        "15872": 246,
        "15873": 58,
        "15874": 186,
        "15875": 97,
        "15876": 243,
        "15877": 144,
        "15878": 110,
        "15879": 248,
        "15880": 245,
        "15881": 118,
        "15882": 246,
        "15883": 243,
        "15884": 252,
        "15885": 194,
        "15886": 187,
        "15887": 96,
        "15888": 204,
        "15889": 182,
        "15890": 84,
        "15891": 131,
        "15892": 198,
        "15893": 129,
        "15894": 152,
        "15895": 237,
        "15896": 52,
        "15897": 132,
        "15898": 196,
        "15899": 53,
        "15900": 49,
        "15901": 83,
        "15902": 12,
        "15903": 233,
        "15904": 115,
        "15905": 149,
        "15906": 102,
        "15907": 9,
        "15908": 190,
        "15909": 84,
        "15910": 232,
        "15911": 172,
        "15912": 160,
        "15913": 25,
        "15914": 205,
        "15915": 67,
        "15916": 83,
        "15917": 70,
        "15918": 228,
        "15919": 231,
        "15920": 141,
        "15921": 123,
        "15922": 174,
        "15923": 239,
        "15924": 229,
        "15925": 235,
        "15926": 77,
        "15927": 213,
        "15928": 69,
        "15929": 141,
        "15930": 72,
        "15931": 65,
        "15932": 184,
        "15933": 76,
        "15934": 104,
        "15935": 91,
        "15936": 199,
        "15937": 28,
        "15938": 56,
        "15939": 35,
        "15940": 70,
        "15941": 189,
        "15942": 104,
        "15943": 221,
        "15944": 143,
        "15945": 167,
        "15946": 0,
        "15947": 78,
        "15948": 53,
        "15949": 34,
        "15950": 53,
        "15951": 92,
        "15952": 105,
        "15953": 197,
        "15954": 225,
        "15955": 250,
        "15956": 149,
        "15957": 213,
        "15958": 153,
        "15959": 227,
        "15960": 132,
        "15961": 17,
        "15962": 203,
        "15963": 30,
        "15964": 214,
        "15965": 172,
        "15966": 67,
        "15967": 0,
        "15968": 16,
        "15969": 18,
        "15970": 186,
        "15971": 125,
        "15972": 75,
        "15973": 74,
        "15974": 249,
        "15975": 83,
        "15976": 150,
        "15977": 122,
        "15978": 116,
        "15979": 151,
        "15980": 109,
        "15981": 122,
        "15982": 153,
        "15983": 2,
        "15984": 85,
        "15985": 58,
        "15986": 198,
        "15987": 161,
        "15988": 128,
        "15989": 209,
        "15990": 113,
        "15991": 219,
        "15992": 128,
        "15993": 49,
        "15994": 93,
        "15995": 211,
        "15996": 20,
        "15997": 209,
        "15998": 179,
        "15999": 9,
        "16000": 219,
        "16001": 209,
        "16002": 103,
        "16003": 222,
        "16004": 198,
        "16005": 94,
        "16006": 220,
        "16007": 199,
        "16008": 12,
        "16009": 101,
        "16010": 190,
        "16011": 184,
        "16012": 124,
        "16013": 52,
        "16014": 33,
        "16015": 76,
        "16016": 1,
        "16017": 253,
        "16018": 4,
        "16019": 149,
        "16020": 110,
        "16021": 213,
        "16022": 121,
        "16023": 181,
        "16024": 23,
        "16025": 116,
        "16026": 98,
        "16027": 228,
        "16028": 231,
        "16029": 239,
        "16030": 116,
        "16031": 170,
        "16032": 194,
        "16033": 42,
        "16034": 42,
        "16035": 107,
        "16036": 194,
        "16037": 72,
        "16038": 51,
        "16039": 48,
        "16040": 241,
        "16041": 25,
        "16042": 128,
        "16043": 107,
        "16044": 241,
        "16045": 180,
        "16046": 117,
        "16047": 140,
        "16048": 192,
        "16049": 100,
        "16050": 74,
        "16051": 116,
        "16052": 93,
        "16053": 114,
        "16054": 208,
        "16055": 137,
        "16056": 160,
        "16057": 253,
        "16058": 83,
        "16059": 81,
        "16060": 209,
        "16061": 123,
        "16062": 160,
        "16063": 143,
        "16064": 105,
        "16065": 186,
        "16066": 192,
        "16067": 156,
        "16068": 190,
        "16069": 218,
        "16070": 250,
        "16071": 64,
        "16072": 216,
        "16073": 218,
        "16074": 214,
        "16075": 171,
        "16076": 127,
        "16077": 40,
        "16078": 239,
        "16079": 104,
        "16080": 171,
        "16081": 13,
        "16082": 127,
        "16083": 106,
        "16084": 165,
        "16085": 216,
        "16086": 217,
        "16087": 137,
        "16088": 112,
        "16089": 9,
        "16090": 194,
        "16091": 171,
        "16092": 32,
        "16093": 163,
        "16094": 156,
        "16095": 94,
        "16096": 241,
        "16097": 185,
        "16098": 46,
        "16099": 189,
        "16100": 70,
        "16101": 207,
        "16102": 225,
        "16103": 186,
        "16104": 206,
        "16105": 65,
        "16106": 150,
        "16107": 237,
        "16108": 183,
        "16109": 98,
        "16110": 186,
        "16111": 157,
        "16112": 131,
        "16113": 35,
        "16114": 117,
        "16115": 50,
        "16116": 229,
        "16117": 33,
        "16118": 234,
        "16119": 16,
        "16120": 220,
        "16121": 206,
        "16122": 191,
        "16123": 84,
        "16124": 68,
        "16125": 170,
        "16126": 139,
        "16127": 107,
        "16128": 141,
        "16129": 44,
        "16130": 248,
        "16131": 162,
        "16132": 162,
        "16133": 156,
        "16134": 7,
        "16135": 141,
        "16136": 156,
        "16137": 47,
        "16138": 60,
        "16139": 209,
        "16140": 196,
        "16141": 156,
        "16142": 95,
        "16143": 178,
        "16144": 226,
        "16145": 13,
        "16146": 169,
        "16147": 34,
        "16148": 18,
        "16149": 147,
        "16150": 92,
        "16151": 7,
        "16152": 188,
        "16153": 198,
        "16154": 217,
        "16155": 0,
        "16156": 240,
        "16157": 154,
        "16158": 62,
        "16159": 236,
        "16160": 55,
        "16161": 194,
        "16162": 237,
        "16163": 20,
        "16164": 181,
        "16165": 102,
        "16166": 177,
        "16167": 43,
        "16168": 131,
        "16169": 240,
        "16170": 91,
        "16171": 213,
        "16172": 211,
        "16173": 163,
        "16174": 237,
        "16175": 181,
        "16176": 132,
        "16177": 52,
        "16178": 49,
        "16179": 203,
        "16180": 103,
        "16181": 199,
        "16182": 250,
        "16183": 160,
        "16184": 133,
        "16185": 199,
        "16186": 91,
        "16187": 235,
        "16188": 141,
        "16189": 23,
        "16190": 205,
        "16191": 38,
        "16192": 43,
        "16193": 181,
        "16194": 252,
        "16195": 239,
        "16196": 213,
        "16197": 188,
        "16198": 3,
        "16199": 158,
        "16200": 12,
        "16201": 233,
        "16202": 127,
        "16203": 77,
        "16204": 167,
        "16205": 132,
        "16206": 103,
        "16207": 163,
        "16208": 241,
        "16209": 211,
        "16210": 83,
        "16211": 149,
        "16212": 148,
        "16213": 132,
        "16214": 33,
        "16215": 232,
        "16216": 79,
        "16217": 73,
        "16218": 44,
        "16219": 143,
        "16220": 216,
        "16221": 199,
        "16222": 117,
        "16223": 144,
        "16224": 36,
        "16225": 92,
        "16226": 113,
        "16227": 82,
        "16228": 97,
        "16229": 21,
        "16230": 62,
        "16231": 143,
        "16232": 10,
        "16233": 203,
        "16234": 238,
        "16235": 97,
        "16236": 203,
        "16237": 166,
        "16238": 139,
        "16239": 67,
        "16240": 243,
        "16241": 15,
        "16242": 151,
        "16243": 250,
        "16244": 23,
        "16245": 101,
        "16246": 123,
        "16247": 222,
        "16248": 238,
        "16249": 51,
        "16250": 138,
        "16251": 219,
        "16252": 55,
        "16253": 46,
        "16254": 123,
        "16255": 63,
        "16256": 70,
        "16257": 127,
        "16258": 178,
        "16259": 32,
        "16260": 108,
        "16261": 2,
        "16262": 85,
        "16263": 88,
        "16264": 222,
        "16265": 11,
        "16266": 180,
        "16267": 171,
        "16268": 63,
        "16269": 236,
        "16270": 242,
        "16271": 184,
        "16272": 22,
        "16273": 208,
        "16274": 186,
        "16275": 223,
        "16276": 95,
        "16277": 225,
        "16278": 225,
        "16279": 122,
        "16280": 17,
        "16281": 185,
        "16282": 29,
        "16283": 239,
        "16284": 161,
        "16285": 207,
        "16286": 133,
        "16287": 198,
        "16288": 39,
        "16289": 134,
        "16290": 123,
        "16291": 214,
        "16292": 29,
        "16293": 11,
        "16294": 185,
        "16295": 141,
        "16296": 244,
        "16297": 94,
        "16298": 123,
        "16299": 14,
        "16300": 162,
        "16301": 190,
        "16302": 235,
        "16303": 36,
        "16304": 125,
        "16305": 165,
        "16306": 56,
        "16307": 45,
        "16308": 216,
        "16309": 6,
        "16310": 52,
        "16311": 116,
        "16312": 93,
        "16313": 123,
        "16314": 125,
        "16315": 105,
        "16316": 14,
        "16317": 203,
        "16318": 65,
        "16319": 180,
        "16320": 13,
        "16321": 172,
        "16322": 192,
        "16323": 215,
        "16324": 247,
        "16325": 64,
        "16326": 177,
        "16327": 111,
        "16328": 140,
        "16329": 73,
        "16330": 201,
        "16331": 86,
        "16332": 237,
        "16333": 21,
        "16334": 23,
        "16335": 160,
        "16336": 173,
        "16337": 138,
        "16338": 41,
        "16339": 106,
        "16340": 244,
        "16341": 61,
        "16342": 180,
        "16343": 108,
        "16344": 140,
        "16345": 123,
        "16346": 62,
        "16347": 137,
        "16348": 160,
        "16349": 175,
        "16350": 187,
        "16351": 129,
        "16352": 161,
        "16353": 12,
        "16354": 157,
        "16355": 88,
        "16356": 23,
        "16357": 241,
        "16358": 108,
        "16359": 173,
        "16360": 41,
        "16361": 146,
        "16362": 16,
        "16363": 176,
        "16364": 128,
        "16365": 205,
        "16366": 170,
        "16367": 106,
        "16368": 252,
        "16369": 217,
        "16370": 224,
        "16371": 82,
        "16372": 184,
        "16373": 67,
        "16374": 73,
        "16375": 177,
        "16376": 13,
        "16377": 237,
        "16378": 148,
        "16379": 115,
        "16380": 255,
        "16381": 62,
        "16382": 91,
        "16383": 165,
        "16384": 160,
        "16385": 98,
        "16386": 139,
        "16387": 44,
        "16388": 76,
        "16389": 255,
        "16390": 210,
        "16391": 26,
        "16392": 71,
        "16393": 119,
        "16394": 217,
        "16395": 163,
        "16396": 16,
        "16397": 198,
        "16398": 242,
        "16399": 139,
        "16400": 239,
        "16401": 4,
        "16402": 41,
        "16403": 21,
        "16404": 241,
        "16405": 63,
        "16406": 139,
        "16407": 129,
        "16408": 116,
        "16409": 14,
        "16410": 221,
        "16411": 197,
        "16412": 204,
        "16413": 67,
        "16414": 213,
        "16415": 160,
        "16416": 184,
        "16417": 217,
        "16418": 199,
        "16419": 79,
        "16420": 233,
        "16421": 216,
        "16422": 36,
        "16423": 73,
        "16424": 118,
        "16425": 2,
        "16426": 1,
        "16427": 86,
        "16428": 53,
        "16429": 90,
        "16430": 205,
        "16431": 212,
        "16432": 59,
        "16433": 20,
        "16434": 72,
        "16435": 37,
        "16436": 43,
        "16437": 46,
        "16438": 211,
        "16439": 216,
        "16440": 230,
        "16441": 16,
        "16442": 53,
        "16443": 56,
        "16444": 124,
        "16445": 219,
        "16446": 74,
        "16447": 180,
        "16448": 144,
        "16449": 101,
        "16450": 130,
        "16451": 153,
        "16452": 158,
        "16453": 60,
        "16454": 78,
        "16455": 160,
        "16456": 67,
        "16457": 234,
        "16458": 156,
        "16459": 120,
        "16460": 80,
        "16461": 6,
        "16462": 144,
        "16463": 130,
        "16464": 217,
        "16465": 142,
        "16466": 84,
        "16467": 155,
        "16468": 216,
        "16469": 27,
        "16470": 60,
        "16471": 50,
        "16472": 140,
        "16473": 5,
        "16474": 113,
        "16475": 46,
        "16476": 108,
        "16477": 60,
        "16478": 247,
        "16479": 201,
        "16480": 253,
        "16481": 118,
        "16482": 201,
        "16483": 7,
        "16484": 79,
        "16485": 21,
        "16486": 70,
        "16487": 236,
        "16488": 208,
        "16489": 102,
        "16490": 125,
        "16491": 171,
        "16492": 69,
        "16493": 163,
        "16494": 178,
        "16495": 164,
        "16496": 4,
        "16497": 249,
        "16498": 252,
        "16499": 79,
        "16500": 44,
        "16501": 43,
        "16502": 21,
        "16503": 68,
        "16504": 74,
        "16505": 128,
        "16506": 79,
        "16507": 149,
        "16508": 214,
        "16509": 97,
        "16510": 189,
        "16511": 197,
        "16512": 179,
        "16513": 224,
        "16514": 11,
        "16515": 210,
        "16516": 140,
        "16517": 28,
        "16518": 199,
        "16519": 0,
        "16520": 1,
        "16521": 8,
        "16522": 0,
        "16523": 0,
        "16524": 0,
        "16525": 0,
        "16526": 0,
        "16527": 0,
        "16528": 16,
        "16529": 0,
        "16530": 0,
        "16531": 0,
        "16532": 0,
        "16533": 0,
        "16534": 0,
        "16535": 0,
        "16536": 0,
        "16537": 0,
        "16538": 0,
        "16539": 0,
        "16540": 0,
        "16541": 0,
        "16542": 0,
        "16543": 0,
        "16544": 0,
        "16545": 0,
        "16546": 0,
        "16547": 0,
        "16548": 0,
        "16549": 0,
        "16550": 0,
        "16551": 0,
        "16552": 64,
        "16553": 0,
        "16554": 0,
        "16555": 0,
        "16556": 0,
        "16557": 0,
        "16558": 0,
        "16559": 0,
        "16560": 3,
        "16561": 0,
        "16562": 0,
        "16563": 0,
        "16564": 0,
        "16565": 0,
        "16566": 0,
        "16567": 0,
        "16568": 4,
        "16569": 0,
        "16570": 0,
        "16571": 0,
        "16572": 0,
        "16573": 0,
        "16574": 0,
        "16575": 0,
        "16576": 4,
        "16577": 0,
        "16578": 0,
        "16579": 0,
        "16580": 0,
        "16581": 0,
        "16582": 0,
        "16583": 0,
        "16584": 0,
        "16585": 0,
        "16586": 0,
        "16587": 0,
        "16588": 1,
        "16589": 0,
        "16590": 0,
        "16591": 0,
        "16592": 0,
        "16593": 0,
        "16594": 0,
        "16595": 0,
        "16596": 16,
        "16597": 0,
        "16598": 0,
        "16599": 0,
        "16600": 0,
        "16601": 0,
        "16602": 0,
        "16603": 0
      }
    }
  ],
  "numDeployments": 1,
  "solcInputHash": "291cf64def2066c7e76507ea7caba91d",
  "bytecode": "0x6101606040526200001760006200026660201b60201c565b6002553480156200002757600080fd5b50604051620046173803806200461783398181016040528101906200004d919062000b83565b6040518060400160405280600881526020017f46616b65204555520000000000000000000000000000000000000000000000008152506040518060400160405280600481526020017f6645555200000000000000000000000000000000000000000000000000000000815250338383836040518060400160405280601181526020017f4668656e6978205065726d697373696f6e0000000000000000000000000000008152506040518060400160405280600381526020017f312e3000000000000000000000000000000000000000000000000000000000008152506200013f6000836200028260201b90919060201c565b61012081815250506200015d6001826200028260201b90919060201c565b6101408181525050818051906020012060e08181525050808051906020012061010081815250504660a081815250506200019c620002da60201b60201c565b608081815250503073ffffffffffffffffffffffffffffffffffffffff1660c08173ffffffffffffffffffffffffffffffffffffffff168152505050508160059081620001ea919062000e1f565b508060069081620001fc919062000e1f565b505050600062000212826200033760201b60201c565b9050620002486200023c8262000230617fff6200026660201b60201c565b6200035560201b60201c565b620003f860201b60201c565b6200025a8382620004cb60201b60201c565b50505050505062001260565b60006200027b8260026200057160201b60201c565b9050919050565b6000602083511015620002a857620002a0836200062860201b60201c565b9050620002d4565b82620002ba836200069560201b60201c565b6000019081620002cb919062000e1f565b5060ff60001b90505b92915050565b60007f8b73c3c69bb8fe3d512ecc4cf759cc79239f7b179b0ffacaa9a75d522b39400f60e0516101005146306040516020016200031c95949392919062000f77565b60405160208183030381529060405280519060200120905090565b60006200034e82600001516200069f60201b60201c565b9050919050565b60006200036883620006bb60201b60201c565b62000382576200037f60006200026660201b60201c565b92505b6200039382620006bb60201b60201c565b620003ad57620003aa60006200026660201b60201c565b91505b600083905060008390506000620003ea60028484608073ffffffffffffffffffffffffffffffffffffffff1663eb274b77620006c860201b60201c565b905080935050505092915050565b62000409816200077960201b60201c565b62000423576200042060006200078660201b60201c565b90505b600081905060006200043b82620007a260201b60201c565b9050608073ffffffffffffffffffffffffffffffffffffffff16637d23f1db600d836040518363ffffffff1660e01b81526004016200047c9291906200104f565b600060405180830381865afa1580156200049a573d6000803e3d6000fd5b505050506040513d6000823e3d601f19601f82011682018060405250810190620004c5919062001083565b50505050565b62000516600360008473ffffffffffffffffffffffffffffffffffffffff1673ffffffffffffffffffffffffffffffffffffffff168152602001908152602001600020548262000803565b600360008473ffffffffffffffffffffffffffffffffffffffff1673ffffffffffffffffffffffffffffffffffffffff16815260200190815260200160002081905550620005676002548262000803565b6002819055505050565b60006060608073ffffffffffffffffffffffffffffffffffffffff166319e1c5c4620005a386620007a260201b60201c565b856040518363ffffffff1660e01b8152600401620005c3929190620010d4565b600060405180830381865afa158015620005e1573d6000803e3d6000fd5b505050506040513d6000823e3d601f19601f820116820180604052508101906200060c919062001083565b90506200061f816200081f60201b60201c565b91505092915050565b600080829050601f815111156200067857826040517f305a27a90000000000000000000000000000000000000000000000000000000081526004016200066f91906200115a565b60405180910390fd5b8051816200068690620011a5565b60001c1760001b915050919050565b6000819050919050565b6000620006b48260026200082d60201b60201c565b9050919050565b6000808214159050919050565b60006060838388620006e089620007a260201b60201c565b620006f189620007a260201b60201c565b6040518463ffffffff1660e01b8152600401620007119392919062001215565b600060405180830381865afa1580156200072f573d6000803e3d6000fd5b505050506040513d6000823e3d601f19601f820116820180604052508101906200075a919062001083565b90506200076d81620008d460201b60201c565b91505095945050505050565b6000808214159050919050565b60006200079b82600d6200057160201b60201c565b9050919050565b6060602067ffffffffffffffff811115620007c257620007c1620009ae565b5b6040519080825280601f01601f191660200182016040528015620007f55781602001600182028036833780820191505090505b509050816020820152919050565b6000620008178383620008e260201b60201c565b905092915050565b600060208201519050919050565b60006060608073ffffffffffffffffffffffffffffffffffffffff16635fa55ca784866040518363ffffffff1660e01b81526004016200086f9291906200104f565b600060405180830381865afa1580156200088d573d6000803e3d6000fd5b505050506040513d6000823e3d601f19601f82011682018060405250810190620008b8919062001083565b9050620008cb816200081f60201b60201c565b91505092915050565b600060208201519050919050565b6000620008f583620006bb60201b60201c565b6200090f576200090c60006200026660201b60201c565b92505b6200092082620006bb60201b60201c565b6200093a576200093760006200026660201b60201c565b91505b6000839050600083905060006200097660028484608073ffffffffffffffffffffffffffffffffffffffff16622df619620006c860201b60201c565b905080935050505092915050565b6000604051905090565b600080fd5b600080fd5b600080fd5b6000601f19601f8301169050919050565b7f4e487b7100000000000000000000000000000000000000000000000000000000600052604160045260246000fd5b620009e8826200099d565b810181811067ffffffffffffffff8211171562000a0a5762000a09620009ae565b5b80604052505050565b600062000a1f62000984565b905062000a2d8282620009dd565b919050565b600080fd5b600080fd5b600080fd5b600067ffffffffffffffff82111562000a5f5762000a5e620009ae565b5b62000a6a826200099d565b9050602081019050919050565b60005b8381101562000a9757808201518184015260208101905062000a7a565b60008484015250505050565b600062000aba62000ab48462000a41565b62000a13565b90508281526020810184848401111562000ad95762000ad862000a3c565b5b62000ae684828562000a77565b509392505050565b600082601f83011262000b065762000b0562000a37565b5b815162000b1884826020860162000aa3565b91505092915050565b60006020828403121562000b3a5762000b3962000998565b5b62000b46602062000a13565b9050600082015167ffffffffffffffff81111562000b695762000b6862000a32565b5b62000b778482850162000aee565b60008301525092915050565b60006020828403121562000b9c5762000b9b6200098e565b5b600082015167ffffffffffffffff81111562000bbd5762000bbc62000993565b5b62000bcb8482850162000b21565b91505092915050565b600081519050919050565b7f4e487b7100000000000000000000000000000000000000000000000000000000600052602260045260246000fd5b6000600282049050600182168062000c2757607f821691505b60208210810362000c3d5762000c3c62000bdf565b5b50919050565b60008190508160005260206000209050919050565b60006020601f8301049050919050565b600082821b905092915050565b60006008830262000ca77fffffffffffffffffffffffffffffffffffffffffffffffffffffffffffffffff8262000c68565b62000cb3868362000c68565b95508019841693508086168417925050509392505050565b6000819050919050565b6000819050919050565b600062000d0062000cfa62000cf48462000ccb565b62000cd5565b62000ccb565b9050919050565b6000819050919050565b62000d1c8362000cdf565b62000d3462000d2b8262000d07565b84845462000c75565b825550505050565b600090565b62000d4b62000d3c565b62000d5881848462000d11565b505050565b5b8181101562000d805762000d7460008262000d41565b60018101905062000d5e565b5050565b601f82111562000dcf5762000d998162000c43565b62000da48462000c58565b8101602085101562000db4578190505b62000dcc62000dc38562000c58565b83018262000d5d565b50505b505050565b600082821c905092915050565b600062000df46000198460080262000dd4565b1980831691505092915050565b600062000e0f838362000de1565b9150826002028217905092915050565b62000e2a8262000bd4565b67ffffffffffffffff81111562000e465762000e45620009ae565b5b62000e52825462000c0e565b62000e5f82828562000d84565b600060209050601f83116001811462000e97576000841562000e82578287015190505b62000e8e858262000e01565b86555062000efe565b601f19841662000ea78662000c43565b60005b8281101562000ed15784890151825560018201915060208501945060208101905062000eaa565b8683101562000ef1578489015162000eed601f89168262000de1565b8355505b6001600288020188555050505b505050505050565b6000819050919050565b62000f1b8162000f06565b82525050565b62000f2c8162000ccb565b82525050565b600073ffffffffffffffffffffffffffffffffffffffff82169050919050565b600062000f5f8262000f32565b9050919050565b62000f718162000f52565b82525050565b600060a08201905062000f8e600083018862000f10565b62000f9d602083018762000f10565b62000fac604083018662000f10565b62000fbb606083018562000f21565b62000fca608083018462000f66565b9695505050505050565b600060ff82169050919050565b62000fec8162000fd4565b82525050565b600081519050919050565b600082825260208201905092915050565b60006200101b8262000ff2565b62001027818562000ffd565b93506200103981856020860162000a77565b62001044816200099d565b840191505092915050565b600060408201905062001066600083018562000fe1565b81810360208301526200107a81846200100e565b90509392505050565b6000602082840312156200109c576200109b6200098e565b5b600082015167ffffffffffffffff811115620010bd57620010bc62000993565b5b620010cb8482850162000aee565b91505092915050565b60006040820190508181036000830152620010f081856200100e565b905062001101602083018462000fe1565b9392505050565b600082825260208201905092915050565b6000620011268262000bd4565b62001132818562001108565b93506200114481856020860162000a77565b6200114f816200099d565b840191505092915050565b6000602082019050818103600083015262001176818462001119565b905092915050565b6000819050602082019050919050565b60006200119c825162000f06565b80915050919050565b6000620011b28262000ff2565b82620011be846200117e565b9050620011cb816200118e565b925060208210156200120e57620012097fffffffffffffffffffffffffffffffffffffffffffffffffffffffffffffffff8360200360080262000c68565b831692505b5050919050565b60006060820190506200122c600083018662000fe1565b81810360208301526200124081856200100e565b905081810360408301526200125681846200100e565b9050949350505050565b60805160a05160c05160e05161010051610120516101405161335c620012bb60003960006118f5015260006118ba0152600061217f0152600061215e015260006119ea01526000611a4001526000611a69015261335c6000f3fe608060405234801561001057600080fd5b50600436106101425760003560e01c80637ecebe00116100b8578063a9059cbb1161007c578063a9059cbb146103b9578063af575a00146103e9578063c4224c1914610419578063d505accf14610449578063d918156e14610465578063dd62ed3e1461049557610142565b80637ecebe00146102fb57806384b0196e1461032b5780638624a3491461034f57806395d89b411461037f5780639f284be71461039d57610142565b80633644e5151161010a5780633644e5151461020157806339c217f71461021f5780635356c4291461024f578063602772041461027f5780636e0505e1146102af57806370a08231146102cb57610142565b806306fdde0314610147578063095ea7b31461016557806318160ddd1461019557806323b872dd146101b3578063313ce567146101e3575b600080fd5b61014f6104c5565b60405161015c9190612433565b60405180910390f35b61017f600480360381019061017a91906124fd565b610557565b60405161018c9190612558565b60405180910390f35b61019d6105ab565b6040516101aa9190612582565b60405180910390f35b6101cd60048036038101906101c8919061259d565b6105bd565b6040516101da9190612558565b60405180910390f35b6101eb610692565b6040516101f8919061260c565b60405180910390f35b610209610697565b6040516102169190612640565b60405180910390f35b6102396004803603810190610234919061267f565b610729565b6040516102469190612716565b60405180910390f35b61026960048036038101906102649190612750565b61074e565b6040516102769190612433565b60405180910390f35b61029960048036038101906102949190612983565b6108bf565b6040516102a69190612433565b60405180910390f35b6102c960048036038101906102c49190612a1b565b6109ec565b005b6102e560048036038101906102e09190612a48565b610b01565b6040516102f29190612582565b60405180910390f35b61031560048036038101906103109190612a48565b610b1c565b6040516103229190612582565b60405180910390f35b610333610b37565b6040516103469796959493929190612b7d565b60405180910390f35b61036960048036038101906103649190612c01565b610be1565b6040516103769190612716565b60405180910390f35b610387610c08565b6040516103949190612433565b60405180910390f35b6103b760048036038101906103b29190612a1b565b610c9a565b005b6103d360048036038101906103ce91906124fd565b610da7565b6040516103e09190612558565b60405180910390f35b61040360048036038101906103fe9190612c9c565b610e39565b6040516104109190612716565b60405180910390f35b610433600480360381019061042e9190612cef565b61118f565b6040516104409190612716565b60405180910390f35b610463600480360381019061045e9190612d5b565b611359565b005b61047f600480360381019061047a919061267f565b6114fd565b60405161048c9190612558565b60405180910390f35b6104af60048036038101906104aa9190612dfd565b6115f5565b6040516104bc9190612582565b60405180910390f35b6060600580546104d490612e6c565b80601f016020809104026020016040519081016040528092919081815260200182805461050090612e6c565b801561054d5780601f106105225761010080835404028352916020019161054d565b820191906000526020600020905b81548152906001019060200180831161053057829003601f168201915b5050505050905090565b600082602052637f5e9f20600c5233600052816034600c205581600052602c5160601c337f8c5be1e5ebec7d5bd14f71427d1e84f3dd0314c0f7b2291e5b200ac8c7c3b92560206000a36001905092915050565b60006805345cdf77eb68f44c54905090565b60006105ca848484611615565b8360601b33602052637f5e9f208117600c526034600c20805460018101156106085780851115610602576313be252b6000526004601cfd5b84810382555b6387a211a28317600c526020600c2080548087111561062f5763f4d678b86000526004601cfd5b8681038255876000526020600c2087815401815587602052600c5160601c8660601c7fddf252ad1be2c89b69c2b068fc378daa952ba7f163c4a11628f55a4df523b3ef602080a350505050505061068784848461161a565b600190509392505050565b600090565b6000806106a261161f565b90506000801b81036106c0576106b66104c5565b8051906020012090505b6040517f8b73c3c69bb8fe3d512ecc4cf759cc79239f7b179b0ffacaa9a75d522b39400f81528160208201527fc89efdaa54c0f20c7adf612882df0950f5a951637e0307cdcb4c672f298b8bc6604082015246606082015230608082015260a081209250505090565b6000610746836107418461073c90612ef5565b611624565b61118f565b905092915050565b60608161075a90612f08565b60006107b17f6bdaeb2d29561f159c7ef98b16b27015fb2aeb87209c7ee656226d912f59927d8360000151604051602001610796929190612f1b565b6040516020818303038152906040528051906020012061163a565b905060006107c3828460200151611654565b90503373ffffffffffffffffffffffffffffffffffffffff168173ffffffffffffffffffffffffffffffffffffffff161461082a576040517f3093a27700000000000000000000000000000000000000000000000000000000815260040160405180910390fd5b6108b4600460003373ffffffffffffffffffffffffffffffffffffffff1673ffffffffffffffffffffffffffffffffffffffff16815260200190815260200160002060008873ffffffffffffffffffffffffffffffffffffffff1673ffffffffffffffffffffffffffffffffffffffff168152602001908152602001600020548660000135611680565b935050505092915050565b60608183600061091a7f6bdaeb2d29561f159c7ef98b16b27015fb2aeb87209c7ee656226d912f59927d84600001516040516020016108ff929190612f1b565b6040516020818303038152906040528051906020012061163a565b9050600061092c828560200151611654565b90508273ffffffffffffffffffffffffffffffffffffffff168173ffffffffffffffffffffffffffffffffffffffff1614610993576040517f51c65eae00000000000000000000000000000000000000000000000000000000815260040160405180910390fd5b6109e0600360008973ffffffffffffffffffffffffffffffffffffffff1673ffffffffffffffffffffffffffffffffffffffff168152602001908152602001600020548760000151611680565b94505050505092915050565b6000610a45610a008363ffffffff166116b6565b600360003373ffffffffffffffffffffffffffffffffffffffff1673ffffffffffffffffffffffffffffffffffffffff168152602001908152602001600020546116ca565b9050610a90600360003373ffffffffffffffffffffffffffffffffffffffff1673ffffffffffffffffffffffffffffffffffffffff1681526020019081526020016000205482611743565b600360003373ffffffffffffffffffffffffffffffffffffffff1673ffffffffffffffffffffffffffffffffffffffff16815260200190815260200160002081905550610adf60025482611743565b600281905550610afd33610af283611757565b63ffffffff1661181a565b5050565b60006387a211a2600c52816000526020600c20549050919050565b60006338377508600c52816000526020600c20549050919050565b600060608060008060006060610b4b6118b1565b610b536118ec565b46306000801b600067ffffffffffffffff811115610b7457610b736127b1565b5b604051908082528060200260200182016040528015610ba25781602001602082028036833780820191505090505b507f0f00000000000000000000000000000000000000000000000000000000000000959493929190965096509650965096509650965090919293949596565b6000610bff8484610bfa85610bf590612ef5565b611624565b610e39565b90509392505050565b606060068054610c1790612e6c565b80601f0160208091040260200160405190810160405280929190818152602001828054610c4390612e6c565b8015610c905780601f10610c6557610100808354040283529160200191610c90565b820191906000526020600020905b815481529060010190602001808311610c7357829003601f168201915b5050505050905090565b8063ffffffff16610caa33610b01565b1015610ce2576040517ffda7bbda00000000000000000000000000000000000000000000000000000000815260040160405180910390fd5b610cf2338263ffffffff16611927565b6000610d038263ffffffff166116b6565b9050610d4e600360003373ffffffffffffffffffffffffffffffffffffffff1673ffffffffffffffffffffffffffffffffffffffff16815260200190815260200160002054826119be565b600360003373ffffffffffffffffffffffffffffffffffffffff1673ffffffffffffffffffffffffffffffffffffffff16815260200190815260200160002081905550610d9d600254826119be565b6002819055505050565b6000610db4338484611615565b6387a211a2600c52336000526020600c20805480841115610ddd5763f4d678b86000526004601cfd5b8381038255846000526020600c2084815401815584602052600c5160601c337fddf252ad1be2c89b69c2b068fc378daa952ba7f163c4a11628f55a4df523b3ef602080a3505050610e2f33848461161a565b6001905092915050565b600080610f0a83610f05600360008973ffffffffffffffffffffffffffffffffffffffff1673ffffffffffffffffffffffffffffffffffffffff16815260200190815260200160002054600460008a73ffffffffffffffffffffffffffffffffffffffff1673ffffffffffffffffffffffffffffffffffffffff16815260200190815260200160002060003373ffffffffffffffffffffffffffffffffffffffff1673ffffffffffffffffffffffffffffffffffffffff168152602001908152602001600020546116ca565b6116ca565b9050610f92600460008773ffffffffffffffffffffffffffffffffffffffff1673ffffffffffffffffffffffffffffffffffffffff16815260200190815260200160002060003373ffffffffffffffffffffffffffffffffffffffff1673ffffffffffffffffffffffffffffffffffffffff1681526020019081526020016000205482611743565b600460008773ffffffffffffffffffffffffffffffffffffffff1673ffffffffffffffffffffffffffffffffffffffff16815260200190815260200160002060003373ffffffffffffffffffffffffffffffffffffffff1673ffffffffffffffffffffffffffffffffffffffff1681526020019081526020016000208190555061105b600360008773ffffffffffffffffffffffffffffffffffffffff1673ffffffffffffffffffffffffffffffffffffffff1681526020019081526020016000205482611743565b600360008773ffffffffffffffffffffffffffffffffffffffff1673ffffffffffffffffffffffffffffffffffffffff168152602001908152602001600020819055506110e7600360008673ffffffffffffffffffffffffffffffffffffffff1673ffffffffffffffffffffffffffffffffffffffff16815260200190815260200160002054826119be565b600360008673ffffffffffffffffffffffffffffffffffffffff1673ffffffffffffffffffffffffffffffffffffffff168152602001908152602001600020819055508373ffffffffffffffffffffffffffffffffffffffff168573ffffffffffffffffffffffffffffffffffffffff167f7612539b010127d1a2f810eeff1131de23a28ecfa8228f92a9606a879300fbb560405160405180910390a3809150509392505050565b6000806111db83600360003373ffffffffffffffffffffffffffffffffffffffff1673ffffffffffffffffffffffffffffffffffffffff168152602001908152602001600020546116ca565b9050611226600360003373ffffffffffffffffffffffffffffffffffffffff1673ffffffffffffffffffffffffffffffffffffffff1681526020019081526020016000205482611743565b600360003373ffffffffffffffffffffffffffffffffffffffff1673ffffffffffffffffffffffffffffffffffffffff168152602001908152602001600020819055506112b2600360008673ffffffffffffffffffffffffffffffffffffffff1673ffffffffffffffffffffffffffffffffffffffff16815260200190815260200160002054826119be565b600360008673ffffffffffffffffffffffffffffffffffffffff1673ffffffffffffffffffffffffffffffffffffffff168152602001908152602001600020819055508373ffffffffffffffffffffffffffffffffffffffff163373ffffffffffffffffffffffffffffffffffffffff167f7612539b010127d1a2f810eeff1131de23a28ecfa8228f92a9606a879300fbb560405160405180910390a38091505092915050565b600061136361161f565b90506000801b8103611381576113776104c5565b8051906020012090505b8442111561139757631a15a3cc6000526004601cfd5b6040518860601b60601c98508760601b60601c975065383775081901600e52886000526020600c2080547f8b73c3c69bb8fe3d512ecc4cf759cc79239f7b179b0ffacaa9a75d522b39400f83528360208401527fc89efdaa54c0f20c7adf612882df0950f5a951637e0307cdcb4c672f298b8bc6604084015246606084015230608084015260a08320602e527f6e71edae12b1b97f4d1f60370fef10105fa2faae0126114a169c64845d6126c983528a60208401528960408401528860608401528060808401528760a084015260c08320604e526042602c206000528660ff1660205285604052846060526020806080600060015afa8b3d51146114a35763ddafbaef6000526004601cfd5b80820183558a637f5e9f2060a01b17604052896034602c20558a8c7f8c5be1e5ebec7d5bd14f71427d1e84f3dd0314c0f7b2291e5b200ac8c7c3b925602060608801a3836040526000606052505050505050505050505050565b60006115118261150c90612ef5565b611624565b600460003373ffffffffffffffffffffffffffffffffffffffff1673ffffffffffffffffffffffffffffffffffffffff16815260200190815260200160002060008573ffffffffffffffffffffffffffffffffffffffff1673ffffffffffffffffffffffffffffffffffffffff168152602001908152602001600020819055508273ffffffffffffffffffffffffffffffffffffffff163373ffffffffffffffffffffffffffffffffffffffff167f46f92913a39019d68e630493d23e0cf39761bf253f7b3f8eae384b33e393ed4e60405160405180910390a36001905092915050565b600081602052637f5e9f20600c52826000526034600c2054905092915050565b505050565b505050565b600090565b600061163382600001516119d2565b9050919050565b600061164d6116476119e6565b83611a9d565b9050919050565b6000806000806116648686611ade565b9250925092506116748282611b3a565b82935050505092915050565b606061168b83611c9e565b61169c5761169960006116b6565b92505b60008390506116ad60028285611cab565b91505092915050565b60006116c3826002611d61565b9050919050565b60006116d583611c9e565b6116e6576116e360006116b6565b92505b6116ef82611c9e565b611700576116fd60006116b6565b91505b60008390506000839050600061173560028484608073ffffffffffffffffffffffffffffffffffffffff16635211c679611e03565b905080935050505092915050565b600061174f8383611e97565b905092915050565b600061176282611c9e565b6117735761177060006116b6565b91505b6000829050600061178382611f10565b90506000608073ffffffffffffffffffffffffffffffffffffffff166373cc01546002846040518363ffffffff1660e01b81526004016117c4929190612f99565b602060405180830381865afa1580156117e1573d6000803e3d6000fd5b505050506040513d601f19601f820116820180604052508101906118059190612fde565b905061181081611f6d565b9350505050919050565b61182660008383611615565b6805345cdf77eb68f44c548181018181101561184a5763e5cfe9576000526004601cfd5b806805345cdf77eb68f44c556387a211a2600c52836000526020600c2083815401815583602052600c5160601c60007fddf252ad1be2c89b69c2b068fc378daa952ba7f163c4a11628f55a4df523b3ef602080a35050506118ad6000838361161a565b5050565b60606118e760007f0000000000000000000000000000000000000000000000000000000000000000611f7790919063ffffffff16565b905090565b606061192260017f0000000000000000000000000000000000000000000000000000000000000000611f7790919063ffffffff16565b905090565b61193382600083611615565b6387a211a2600c52816000526020600c2080548083111561195c5763f4d678b86000526004601cfd5b8281038255826805345cdf77eb68f44c54036805345cdf77eb68f44c558260005260008460601b60601c7fddf252ad1be2c89b69c2b068fc378daa952ba7f163c4a11628f55a4df523b3ef60206000a350506119ba8260008361161a565b5050565b60006119ca8383612027565b905092915050565b60006119df82600261209f565b9050919050565b60007f000000000000000000000000000000000000000000000000000000000000000073ffffffffffffffffffffffffffffffffffffffff163073ffffffffffffffffffffffffffffffffffffffff16148015611a6257507f000000000000000000000000000000000000000000000000000000000000000046145b15611a8f577f00000000000000000000000000000000000000000000000000000000000000009050611a9a565b611a97612139565b90505b90565b60006040517f190100000000000000000000000000000000000000000000000000000000000081528360028201528260228201526042812091505092915050565b60008060006041845103611b235760008060006020870151925060408701519150606087015160001a9050611b15888285856121cf565b955095509550505050611b33565b60006002855160001b9250925092505b9250925092565b60006003811115611b4e57611b4d61300b565b5b826003811115611b6157611b6061300b565b5b0315611c9a5760016003811115611b7b57611b7a61300b565b5b826003811115611b8e57611b8d61300b565b5b03611bc5576040517ff645eedf00000000000000000000000000000000000000000000000000000000815260040160405180910390fd5b60026003811115611bd957611bd861300b565b5b826003811115611bec57611beb61300b565b5b03611c31578060001c6040517ffce698f7000000000000000000000000000000000000000000000000000000008152600401611c289190612582565b60405180910390fd5b600380811115611c4457611c4361300b565b5b826003811115611c5757611c5661300b565b5b03611c9957806040517fd78bce0c000000000000000000000000000000000000000000000000000000008152600401611c909190612640565b60405180910390fd5b5b5050565b6000808214159050919050565b6060608073ffffffffffffffffffffffffffffffffffffffff1663a1848ff385611cd486611f10565b85604051602001611ce5919061305b565b6040516020818303038152906040526040518463ffffffff1660e01b8152600401611d1293929190613076565b600060405180830381865afa158015611d2f573d6000803e3d6000fd5b505050506040513d6000823e3d601f19601f82011682018060405250810190611d58919061315c565b90509392505050565b60006060608073ffffffffffffffffffffffffffffffffffffffff166319e1c5c4611d8b86611f10565b856040518363ffffffff1660e01b8152600401611da99291906131a5565b600060405180830381865afa158015611dc6573d6000803e3d6000fd5b505050506040513d6000823e3d601f19601f82011682018060405250810190611def9190613245565b9050611dfa816122c3565b91505092915050565b60006060838388611e1389611f10565b611e1c89611f10565b6040518463ffffffff1660e01b8152600401611e3a93929190613076565b600060405180830381865afa158015611e57573d6000803e3d6000fd5b505050506040513d6000823e3d601f19601f82011682018060405250810190611e809190613245565b9050611e8b816122d1565b91505095945050505050565b6000611ea283611c9e565b611eb357611eb060006116b6565b92505b611ebc82611c9e565b611ecd57611eca60006116b6565b91505b600083905060008390506000611f0260028484608073ffffffffffffffffffffffffffffffffffffffff1663cc2cbeff611e03565b905080935050505092915050565b6060602067ffffffffffffffff811115611f2d57611f2c6127b1565b5b6040519080825280601f01601f191660200182016040528015611f5f5781602001600182028036833780820191505090505b509050816020820152919050565b6000819050919050565b606060ff60001b8314611f9457611f8d836122df565b9050612021565b818054611fa090612e6c565b80601f0160208091040260200160405190810160405280929190818152602001828054611fcc90612e6c565b80156120195780601f10611fee57610100808354040283529160200191612019565b820191906000526020600020905b815481529060010190602001808311611ffc57829003601f168201915b505050505090505b92915050565b600061203283611c9e565b6120435761204060006116b6565b92505b61204c82611c9e565b61205d5761205a60006116b6565b91505b60008390506000839050600061209160028484608073ffffffffffffffffffffffffffffffffffffffff16622df619611e03565b905080935050505092915050565b60006060608073ffffffffffffffffffffffffffffffffffffffff16635fa55ca784866040518363ffffffff1660e01b81526004016120df929190612f99565b600060405180830381865afa1580156120fc573d6000803e3d6000fd5b505050506040513d6000823e3d601f19601f820116820180604052508101906121259190613245565b9050612130816122c3565b91505092915050565b60007f8b73c3c69bb8fe3d512ecc4cf759cc79239f7b179b0ffacaa9a75d522b39400f7f00000000000000000000000000000000000000000000000000000000000000007f000000000000000000000000000000000000000000000000000000000000000046306040516020016121b495949392919061328e565b60405160208183030381529060405280519060200120905090565b60008060007f7fffffffffffffffffffffffffffffff5d576e7357a4501ddfe92f46681b20a08460001c111561220f5760006003859250925092506122b9565b60006001888888886040516000815260200160405260405161223494939291906132e1565b6020604051602081039080840390855afa158015612256573d6000803e3d6000fd5b505050602060405103519050600073ffffffffffffffffffffffffffffffffffffffff168173ffffffffffffffffffffffffffffffffffffffff16036122aa57600060016000801b935093509350506122b9565b8060008060001b935093509350505b9450945094915050565b600060208201519050919050565b600060208201519050919050565b606060006122ec83612353565b90506000602067ffffffffffffffff81111561230b5761230a6127b1565b5b6040519080825280601f01601f19166020018201604052801561233d5781602001600182028036833780820191505090505b5090508181528360208201528092505050919050565b60008060ff8360001c169050601f81111561239a576040517fb3512b0c00000000000000000000000000000000000000000000000000000000815260040160405180910390fd5b80915050919050565b600081519050919050565b600082825260208201905092915050565b60005b838110156123dd5780820151818401526020810190506123c2565b60008484015250505050565b6000601f19601f8301169050919050565b6000612405826123a3565b61240f81856123ae565b935061241f8185602086016123bf565b612428816123e9565b840191505092915050565b6000602082019050818103600083015261244d81846123fa565b905092915050565b6000604051905090565b600080fd5b600080fd5b600073ffffffffffffffffffffffffffffffffffffffff82169050919050565b600061249482612469565b9050919050565b6124a481612489565b81146124af57600080fd5b50565b6000813590506124c18161249b565b92915050565b6000819050919050565b6124da816124c7565b81146124e557600080fd5b50565b6000813590506124f7816124d1565b92915050565b600080604083850312156125145761251361245f565b5b6000612522858286016124b2565b9250506020612533858286016124e8565b9150509250929050565b60008115159050919050565b6125528161253d565b82525050565b600060208201905061256d6000830184612549565b92915050565b61257c816124c7565b82525050565b60006020820190506125976000830184612573565b92915050565b6000806000606084860312156125b6576125b561245f565b5b60006125c4868287016124b2565b93505060206125d5868287016124b2565b92505060406125e6868287016124e8565b9150509250925092565b600060ff82169050919050565b612606816125f0565b82525050565b600060208201905061262160008301846125fd565b92915050565b6000819050919050565b61263a81612627565b82525050565b60006020820190506126556000830184612631565b92915050565b600080fd5b6000602082840312156126765761267561265b565b5b81905092915050565b600080604083850312156126965761269561245f565b5b60006126a4858286016124b2565b925050602083013567ffffffffffffffff8111156126c5576126c4612464565b5b6126d185828601612660565b9150509250929050565b6000819050919050565b60006127006126fb6126f6846124c7565b6126db565b6124c7565b9050919050565b612710816126e5565b82525050565b600060208201905061272b6000830184612707565b92915050565b6000604082840312156127475761274661265b565b5b81905092915050565b600080604083850312156127675761276661245f565b5b6000612775858286016124b2565b925050602083013567ffffffffffffffff81111561279657612795612464565b5b6127a285828601612731565b9150509250929050565b600080fd5b7f4e487b7100000000000000000000000000000000000000000000000000000000600052604160045260246000fd5b6127e9826123e9565b810181811067ffffffffffffffff82111715612808576128076127b1565b5b80604052505050565b600061281b612455565b905061282782826127e0565b919050565b600080fd5b61283a81612627565b811461284557600080fd5b50565b60008135905061285781612831565b92915050565b600080fd5b600080fd5b600067ffffffffffffffff821115612882576128816127b1565b5b61288b826123e9565b9050602081019050919050565b82818337600083830152505050565b60006128ba6128b584612867565b612811565b9050828152602081018484840111156128d6576128d5612862565b5b6128e1848285612898565b509392505050565b600082601f8301126128fe576128fd61285d565b5b813561290e8482602086016128a7565b91505092915050565b60006040828403121561292d5761292c6127ac565b5b6129376040612811565b9050600061294784828501612848565b600083015250602082013567ffffffffffffffff81111561296b5761296a61282c565b5b612977848285016128e9565b60208301525092915050565b6000806040838503121561299a5761299961245f565b5b60006129a8858286016124b2565b925050602083013567ffffffffffffffff8111156129c9576129c8612464565b5b6129d585828601612917565b9150509250929050565b600063ffffffff82169050919050565b6129f8816129df565b8114612a0357600080fd5b50565b600081359050612a15816129ef565b92915050565b600060208284031215612a3157612a3061245f565b5b6000612a3f84828501612a06565b91505092915050565b600060208284031215612a5e57612a5d61245f565b5b6000612a6c848285016124b2565b91505092915050565b60007fff0000000000000000000000000000000000000000000000000000000000000082169050919050565b612aaa81612a75565b82525050565b612ab981612489565b82525050565b600081519050919050565b600082825260208201905092915050565b6000819050602082019050919050565b612af4816124c7565b82525050565b6000612b068383612aeb565b60208301905092915050565b6000602082019050919050565b6000612b2a82612abf565b612b348185612aca565b9350612b3f83612adb565b8060005b83811015612b70578151612b578882612afa565b9750612b6283612b12565b925050600181019050612b43565b5085935050505092915050565b600060e082019050612b92600083018a612aa1565b8181036020830152612ba481896123fa565b90508181036040830152612bb881886123fa565b9050612bc76060830187612573565b612bd46080830186612ab0565b612be160a0830185612631565b81810360c0830152612bf38184612b1f565b905098975050505050505050565b600080600060608486031215612c1a57612c1961245f565b5b6000612c28868287016124b2565b9350506020612c39868287016124b2565b925050604084013567ffffffffffffffff811115612c5a57612c59612464565b5b612c6686828701612660565b9150509250925092565b612c79816124c7565b8114612c8457600080fd5b50565b600081359050612c9681612c70565b92915050565b600080600060608486031215612cb557612cb461245f565b5b6000612cc3868287016124b2565b9350506020612cd4868287016124b2565b9250506040612ce586828701612c87565b9150509250925092565b60008060408385031215612d0657612d0561245f565b5b6000612d14858286016124b2565b9250506020612d2585828601612c87565b9150509250929050565b612d38816125f0565b8114612d4357600080fd5b50565b600081359050612d5581612d2f565b92915050565b600080600080600080600060e0888a031215612d7a57612d7961245f565b5b6000612d888a828b016124b2565b9750506020612d998a828b016124b2565b9650506040612daa8a828b016124e8565b9550506060612dbb8a828b016124e8565b9450506080612dcc8a828b01612d46565b93505060a0612ddd8a828b01612848565b92505060c0612dee8a828b01612848565b91505092959891949750929550565b60008060408385031215612e1457612e1361245f565b5b6000612e22858286016124b2565b9250506020612e33858286016124b2565b9150509250929050565b7f4e487b7100000000000000000000000000000000000000000000000000000000600052602260045260246000fd5b60006002820490506001821680612e8457607f821691505b602082108103612e9757612e96612e3d565b5b50919050565b600060208284031215612eb357612eb26127ac565b5b612ebd6020612811565b9050600082013567ffffffffffffffff811115612edd57612edc61282c565b5b612ee9848285016128e9565b60008301525092915050565b6000612f013683612e9d565b9050919050565b6000612f143683612917565b9050919050565b6000604082019050612f306000830185612631565b612f3d6020830184612631565b9392505050565b600081519050919050565b600082825260208201905092915050565b6000612f6b82612f44565b612f758185612f4f565b9350612f858185602086016123bf565b612f8e816123e9565b840191505092915050565b6000604082019050612fae60008301856125fd565b8181036020830152612fc08184612f60565b90509392505050565b600081519050612fd8816124d1565b92915050565b600060208284031215612ff457612ff361245f565b5b600061300284828501612fc9565b91505092915050565b7f4e487b7100000000000000000000000000000000000000000000000000000000600052602160045260246000fd5b6000819050919050565b61305561305082612627565b61303a565b82525050565b60006130678284613044565b60208201915081905092915050565b600060608201905061308b60008301866125fd565b818103602083015261309d8185612f60565b905081810360408301526130b18184612f60565b9050949350505050565b600067ffffffffffffffff8211156130d6576130d56127b1565b5b6130df826123e9565b9050602081019050919050565b60006130ff6130fa846130bb565b612811565b90508281526020810184848401111561311b5761311a612862565b5b6131268482856123bf565b509392505050565b600082601f8301126131435761314261285d565b5b81516131538482602086016130ec565b91505092915050565b6000602082840312156131725761317161245f565b5b600082015167ffffffffffffffff8111156131905761318f612464565b5b61319c8482850161312e565b91505092915050565b600060408201905081810360008301526131bf8185612f60565b90506131ce60208301846125fd565b9392505050565b60006131e86131e384612867565b612811565b90508281526020810184848401111561320457613203612862565b5b61320f8482856123bf565b509392505050565b600082601f83011261322c5761322b61285d565b5b815161323c8482602086016131d5565b91505092915050565b60006020828403121561325b5761325a61245f565b5b600082015167ffffffffffffffff81111561327957613278612464565b5b61328584828501613217565b91505092915050565b600060a0820190506132a36000830188612631565b6132b06020830187612631565b6132bd6040830186612631565b6132ca6060830185612573565b6132d76080830184612ab0565b9695505050505050565b60006080820190506132f66000830187612631565b61330360208301866125fd565b6133106040830185612631565b61331d6060830184612631565b9594505050505056fea2646970667358221220d652bb74ae9d4e47dbb2a9a7a6de924c59f91e86c96b3b3269047605518a29bf64736f6c63430008180033",
  "devdoc": {
    "errors": {
      "AllowanceOverflow()": [
        {
          "details": "The allowance has overflowed."
        }
      ],
      "AllowanceUnderflow()": [
        {
          "details": "The allowance has underflowed."
        }
      ],
      "ECDSAInvalidSignature()": [
        {
          "details": "The signature derives the `address(0)`."
        }
      ],
      "ECDSAInvalidSignatureLength(uint256)": [
        {
          "details": "The signature has an invalid length."
        }
      ],
      "ECDSAInvalidSignatureS(bytes32)": [
        {
          "details": "The signature has an S value that is in the upper half order."
        }
      ],
      "InsufficientAllowance()": [
        {
          "details": "Insufficient allowance."
        }
      ],
      "InsufficientBalance()": [
        {
          "details": "Insufficient balance."
        }
      ],
      "InvalidPermit()": [
        {
          "details": "The permit is invalid."
        }
      ],
      "PermitExpired()": [
        {
          "details": "The permit has expired."
        }
      ],
      "TotalSupplyOverflow()": [
        {
          "details": "The total supply has overflowed."
        }
      ]
    },
    "events": {
      "Approval(address,address,uint256)": {
        "details": "Emitted when `amount` tokens is approved by `owner` to be used by `spender`."
      },
      "ApprovalEncrypted(address,address)": {
        "details": "Emitted when the allowance of a `spender` for an `owner` is set by a call to {approveEncrypted}. `value` is the new allowance."
      },
      "EIP712DomainChanged()": {
        "details": "MAY be emitted to signal that the domain could have changed."
      },
      "Transfer(address,address,uint256)": {
        "details": "Emitted when `amount` tokens is transferred from `from` to `to`."
      },
      "TransferEncrypted(address,address)": {
        "details": "Emitted when `value` tokens are moved from one account (`from`) to another (`to`). Note that `value` may be zero."
      }
    },
    "kind": "dev",
    "methods": {
      "DOMAIN_SEPARATOR()": {
        "details": "Returns the EIP-712 domain separator for the EIP-2612 permit."
      },
      "allowance(address,address)": {
        "details": "Returns the amount of tokens that `spender` can spend on behalf of `owner`."
      },
      "allowanceEncrypted(address,(bytes32,bytes))": {
        "details": "Returns the remaining number of tokens that `spender` will be allowed to spend on behalf of `owner` through {transferFrom}. This is zero by default. This value changes when {approve} or {transferFrom} are called."
      },
      "approve(address,uint256)": {
        "details": "Sets `amount` as the allowance of `spender` over the caller's tokens. Emits a {Approval} event."
      },
      "approveEncrypted(address,(bytes))": {
        "details": "Sets a `value` amount of tokens as the allowance of `spender` over the caller's tokens. Returns a boolean value indicating whether the operation succeeded. IMPORTANT: Beware that changing an allowance with this method brings the risk that someone may use both the old and the new allowance by unfortunate transaction ordering. One possible solution to mitigate this race condition is to first reduce the spender's allowance to 0 and set the desired value afterwards: https://github.com/ethereum/EIPs/issues/20#issuecomment-263524729 Emits an {ApprovalEncrypted} event."
      },
      "balanceOf(address)": {
        "details": "Returns the amount of tokens owned by `owner`."
      },
      "balanceOfEncrypted(address,(bytes32,bytes))": {
        "details": "Returns the value of tokens owned by `account`, sealed and encrypted for the caller."
      },
      "decimals()": {
        "details": "Returns the decimals places of the token."
      },
      "eip712Domain()": {
        "details": "See {IERC-5267}."
      },
      "name()": {
        "details": "Returns the name of the token."
      },
      "nonces(address)": {
        "details": "Returns the current nonce for `owner`. This value is used to compute the signature for EIP-2612 permit."
      },
      "permit(address,address,uint256,uint256,uint8,bytes32,bytes32)": {
        "details": "Sets `value` as the allowance of `spender` over the tokens of `owner`, authorized by a signed approval by `owner`. Emits a {Approval} event."
      },
      "symbol()": {
        "details": "Returns the symbol of the token."
      },
      "totalSupply()": {
        "details": "Returns the amount of tokens in existence."
      },
      "transfer(address,uint256)": {
        "details": "Transfer `amount` tokens from the caller to `to`. Requirements: - `from` must at least have `amount`. Emits a {Transfer} event."
      },
      "transferFrom(address,address,uint256)": {
        "details": "Transfers `amount` tokens from `from` to `to`. Note: Does not update the allowance if it is the maximum uint256 value. Requirements: - `from` must at least have `amount`. - The caller must have at least `amount` of allowance to transfer the tokens of `from`. Emits a {Transfer} event."
      },
      "transferFromEncrypted(address,address,(bytes))": {
        "details": "Moves a `value` amount of tokens from `from` to `to` using the allowance mechanism. `value` is then deducted from the caller's allowance. Returns a boolean value indicating whether the operation succeeded. Emits a {TransferEncrypted} event."
      }
    },
    "version": 1
  },
  "userdoc": {
    "errors": {
      "SignerNotMessageSender()": [
        {
          "notice": "Emitted when the signer is not the message sender"
        }
      ],
      "SignerNotOwner()": [
        {
          "notice": "Emitted when the signer is not the specified owner"
        }
      ]
    },
    "kind": "user",
    "methods": {},
    "version": 1
  },
  "storageLayout": {
    "storage": [
      {
        "astId": 16568,
        "contract": "contracts/tokens/FakeEUR.sol:FakeEUR",
        "label": "_nameFallback",
        "offset": 0,
        "slot": "0",
        "type": "t_string_storage"
      },
      {
        "astId": 16570,
        "contract": "contracts/tokens/FakeEUR.sol:FakeEUR",
        "label": "_versionFallback",
        "offset": 0,
        "slot": "1",
        "type": "t_string_storage"
      },
      {
        "astId": 20527,
        "contract": "contracts/tokens/FakeEUR.sol:FakeEUR",
        "label": "_encTotalSupply",
        "offset": 0,
        "slot": "2",
        "type": "t_userDefinedValueType(euint32)12"
      },
      {
        "astId": 20532,
        "contract": "contracts/tokens/FakeEUR.sol:FakeEUR",
        "label": "_encBalanceOf",
        "offset": 0,
        "slot": "3",
        "type": "t_mapping(t_address,t_userDefinedValueType(euint32)12)"
      },
      {
        "astId": 20539,
        "contract": "contracts/tokens/FakeEUR.sol:FakeEUR",
        "label": "_encAllowance",
        "offset": 0,
        "slot": "4",
        "type": "t_mapping(t_address,t_mapping(t_address,t_userDefinedValueType(euint32)12))"
      },
      {
        "astId": 20541,
        "contract": "contracts/tokens/FakeEUR.sol:FakeEUR",
        "label": "_name",
        "offset": 0,
        "slot": "5",
        "type": "t_string_storage"
      },
      {
        "astId": 20543,
        "contract": "contracts/tokens/FakeEUR.sol:FakeEUR",
        "label": "_symbol",
        "offset": 0,
        "slot": "6",
        "type": "t_string_storage"
      }
    ],
    "types": {
      "t_address": {
        "encoding": "inplace",
        "label": "address",
        "numberOfBytes": "20"
      },
      "t_mapping(t_address,t_mapping(t_address,t_userDefinedValueType(euint32)12))": {
        "encoding": "mapping",
        "key": "t_address",
        "label": "mapping(address => mapping(address => euint32))",
        "numberOfBytes": "32",
        "value": "t_mapping(t_address,t_userDefinedValueType(euint32)12)"
      },
      "t_mapping(t_address,t_userDefinedValueType(euint32)12)": {
        "encoding": "mapping",
        "key": "t_address",
        "label": "mapping(address => euint32)",
        "numberOfBytes": "32",
        "value": "t_userDefinedValueType(euint32)12"
      },
      "t_string_storage": {
        "encoding": "bytes",
        "label": "string",
        "numberOfBytes": "32"
      },
      "t_userDefinedValueType(euint32)12": {
        "encoding": "inplace",
        "label": "euint32",
        "numberOfBytes": "32"
      }
    }
  }
}