{
  "address": "0xafbab685A9e741dFc2E2c63A16f9E901ca7C167F",
  "abi": [
    {
      "inputs": [
        {
          "internalType": "string",
          "name": "name_",
          "type": "string"
        },
        {
          "internalType": "string",
          "name": "symbol_",
          "type": "string"
        },
        {
          "internalType": "address",
          "name": "recipient",
          "type": "address"
        },
        {
          "components": [
            {
              "internalType": "bytes",
              "name": "data",
              "type": "bytes"
            }
          ],
          "internalType": "struct inEuint32",
          "name": "_encryptedAmount",
          "type": "tuple"
        }
      ],
      "stateMutability": "nonpayable",
      "type": "constructor"
    },
    {
      "inputs": [],
      "name": "AllowanceOverflow",
      "type": "error"
    },
    {
      "inputs": [],
      "name": "AllowanceUnderflow",
      "type": "error"
    },
    {
      "inputs": [],
      "name": "ECDSAInvalidSignature",
      "type": "error"
    },
    {
      "inputs": [
        {
          "internalType": "uint256",
          "name": "length",
          "type": "uint256"
        }
      ],
      "name": "ECDSAInvalidSignatureLength",
      "type": "error"
    },
    {
      "inputs": [
        {
          "internalType": "bytes32",
          "name": "s",
          "type": "bytes32"
        }
      ],
      "name": "ECDSAInvalidSignatureS",
      "type": "error"
    },
    {
      "inputs": [
        {
          "internalType": "address",
          "name": "",
          "type": "address"
        }
      ],
      "name": "ERC20InvalidApprover",
      "type": "error"
    },
    {
      "inputs": [
        {
          "internalType": "address",
          "name": "",
          "type": "address"
        }
      ],
      "name": "ERC20InvalidSpender",
      "type": "error"
    },
    {
      "inputs": [],
      "name": "ErrorInsufficientFunds",
      "type": "error"
    },
    {
      "inputs": [],
      "name": "InsufficientAllowance",
      "type": "error"
    },
    {
      "inputs": [],
      "name": "InsufficientBalance",
      "type": "error"
    },
    {
      "inputs": [],
      "name": "InvalidPermit",
      "type": "error"
    },
    {
      "inputs": [],
      "name": "InvalidShortString",
      "type": "error"
    },
    {
      "inputs": [],
      "name": "PermitExpired",
      "type": "error"
    },
    {
      "inputs": [],
      "name": "SignerNotMessageSender",
      "type": "error"
    },
    {
      "inputs": [],
      "name": "SignerNotOwner",
      "type": "error"
    },
    {
      "inputs": [
        {
          "internalType": "string",
          "name": "str",
          "type": "string"
        }
      ],
      "name": "StringTooLong",
      "type": "error"
    },
    {
      "inputs": [],
      "name": "TotalSupplyOverflow",
      "type": "error"
    },
    {
      "anonymous": false,
      "inputs": [
        {
          "indexed": true,
          "internalType": "address",
          "name": "owner",
          "type": "address"
        },
        {
          "indexed": true,
          "internalType": "address",
          "name": "spender",
          "type": "address"
        },
        {
          "indexed": false,
          "internalType": "uint256",
          "name": "amount",
          "type": "uint256"
        }
      ],
      "name": "Approval",
      "type": "event"
    },
    {
      "anonymous": false,
      "inputs": [
        {
          "indexed": true,
          "internalType": "address",
          "name": "owner",
          "type": "address"
        },
        {
          "indexed": true,
          "internalType": "address",
          "name": "spender",
          "type": "address"
        }
      ],
      "name": "ApprovalEncrypted",
      "type": "event"
    },
    {
      "anonymous": false,
      "inputs": [],
      "name": "EIP712DomainChanged",
      "type": "event"
    },
    {
      "anonymous": false,
      "inputs": [
        {
          "indexed": true,
          "internalType": "address",
          "name": "from",
          "type": "address"
        },
        {
          "indexed": true,
          "internalType": "address",
          "name": "to",
          "type": "address"
        },
        {
          "indexed": false,
          "internalType": "uint256",
          "name": "amount",
          "type": "uint256"
        }
      ],
      "name": "Transfer",
      "type": "event"
    },
    {
      "anonymous": false,
      "inputs": [
        {
          "indexed": true,
          "internalType": "address",
          "name": "from",
          "type": "address"
        },
        {
          "indexed": true,
          "internalType": "address",
          "name": "to",
          "type": "address"
        }
      ],
      "name": "TransferEncrypted",
      "type": "event"
    },
    {
      "inputs": [],
      "name": "DOMAIN_SEPARATOR",
      "outputs": [
        {
          "internalType": "bytes32",
          "name": "result",
          "type": "bytes32"
        }
      ],
      "stateMutability": "view",
      "type": "function"
    },
    {
      "inputs": [
        {
          "internalType": "address",
          "name": "owner",
          "type": "address"
        },
        {
          "internalType": "address",
          "name": "spender",
          "type": "address"
        }
      ],
      "name": "allowance",
      "outputs": [
        {
          "internalType": "uint256",
          "name": "result",
          "type": "uint256"
        }
      ],
      "stateMutability": "view",
      "type": "function"
    },
    {
      "inputs": [
        {
          "internalType": "address",
          "name": "spender",
          "type": "address"
        },
        {
          "components": [
            {
              "internalType": "bytes32",
              "name": "publicKey",
              "type": "bytes32"
            },
            {
              "internalType": "bytes",
              "name": "signature",
              "type": "bytes"
            }
          ],
          "internalType": "struct Permission",
          "name": "permission",
          "type": "tuple"
        }
      ],
      "name": "allowanceEncrypted",
      "outputs": [
        {
          "internalType": "string",
          "name": "",
          "type": "string"
        }
      ],
      "stateMutability": "view",
      "type": "function"
    },
    {
      "inputs": [
        {
          "internalType": "address",
          "name": "spender",
          "type": "address"
        },
        {
          "internalType": "uint256",
          "name": "amount",
          "type": "uint256"
        }
      ],
      "name": "approve",
      "outputs": [
        {
          "internalType": "bool",
          "name": "",
          "type": "bool"
        }
      ],
      "stateMutability": "nonpayable",
      "type": "function"
    },
    {
      "inputs": [
        {
          "internalType": "address",
          "name": "spender",
          "type": "address"
        },
        {
          "components": [
            {
              "internalType": "bytes",
              "name": "data",
              "type": "bytes"
            }
          ],
          "internalType": "struct inEuint32",
          "name": "value",
          "type": "tuple"
        }
      ],
      "name": "approveEncrypted",
      "outputs": [
        {
          "internalType": "bool",
          "name": "",
          "type": "bool"
        }
      ],
      "stateMutability": "nonpayable",
      "type": "function"
    },
    {
      "inputs": [
        {
          "internalType": "address",
          "name": "owner",
          "type": "address"
        }
      ],
      "name": "balanceOf",
      "outputs": [
        {
          "internalType": "uint256",
          "name": "result",
          "type": "uint256"
        }
      ],
      "stateMutability": "view",
      "type": "function"
    },
    {
      "inputs": [
        {
          "internalType": "address",
          "name": "account",
          "type": "address"
        },
        {
          "components": [
            {
              "internalType": "bytes32",
              "name": "publicKey",
              "type": "bytes32"
            },
            {
              "internalType": "bytes",
              "name": "signature",
              "type": "bytes"
            }
          ],
          "internalType": "struct Permission",
          "name": "auth",
          "type": "tuple"
        }
      ],
      "name": "balanceOfEncrypted",
      "outputs": [
        {
          "internalType": "string",
          "name": "",
          "type": "string"
        }
      ],
      "stateMutability": "view",
      "type": "function"
    },
    {
      "inputs": [],
      "name": "decimals",
      "outputs": [
        {
          "internalType": "uint8",
          "name": "",
          "type": "uint8"
        }
      ],
      "stateMutability": "pure",
      "type": "function"
    },
    {
      "inputs": [],
      "name": "eip712Domain",
      "outputs": [
        {
          "internalType": "bytes1",
          "name": "fields",
          "type": "bytes1"
        },
        {
          "internalType": "string",
          "name": "name",
          "type": "string"
        },
        {
          "internalType": "string",
          "name": "version",
          "type": "string"
        },
        {
          "internalType": "uint256",
          "name": "chainId",
          "type": "uint256"
        },
        {
          "internalType": "address",
          "name": "verifyingContract",
          "type": "address"
        },
        {
          "internalType": "bytes32",
          "name": "salt",
          "type": "bytes32"
        },
        {
          "internalType": "uint256[]",
          "name": "extensions",
          "type": "uint256[]"
        }
      ],
      "stateMutability": "view",
      "type": "function"
    },
    {
      "inputs": [],
      "name": "name",
      "outputs": [
        {
          "internalType": "string",
          "name": "",
          "type": "string"
        }
      ],
      "stateMutability": "view",
      "type": "function"
    },
    {
      "inputs": [
        {
          "internalType": "address",
          "name": "owner",
          "type": "address"
        }
      ],
      "name": "nonces",
      "outputs": [
        {
          "internalType": "uint256",
          "name": "result",
          "type": "uint256"
        }
      ],
      "stateMutability": "view",
      "type": "function"
    },
    {
      "inputs": [
        {
          "internalType": "address",
          "name": "owner",
          "type": "address"
        },
        {
          "internalType": "address",
          "name": "spender",
          "type": "address"
        },
        {
          "internalType": "uint256",
          "name": "value",
          "type": "uint256"
        },
        {
          "internalType": "uint256",
          "name": "deadline",
          "type": "uint256"
        },
        {
          "internalType": "uint8",
          "name": "v",
          "type": "uint8"
        },
        {
          "internalType": "bytes32",
          "name": "r",
          "type": "bytes32"
        },
        {
          "internalType": "bytes32",
          "name": "s",
          "type": "bytes32"
        }
      ],
      "name": "permit",
      "outputs": [],
      "stateMutability": "nonpayable",
      "type": "function"
    },
    {
      "inputs": [],
      "name": "symbol",
      "outputs": [
        {
          "internalType": "string",
          "name": "",
          "type": "string"
        }
      ],
      "stateMutability": "view",
      "type": "function"
    },
    {
      "inputs": [],
      "name": "totalSupply",
      "outputs": [
        {
          "internalType": "uint256",
          "name": "result",
          "type": "uint256"
        }
      ],
      "stateMutability": "view",
      "type": "function"
    },
    {
      "inputs": [
        {
          "internalType": "address",
          "name": "to",
          "type": "address"
        },
        {
          "internalType": "uint256",
          "name": "amount",
          "type": "uint256"
        }
      ],
      "name": "transfer",
      "outputs": [
        {
          "internalType": "bool",
          "name": "",
          "type": "bool"
        }
      ],
      "stateMutability": "nonpayable",
      "type": "function"
    },
    {
      "inputs": [
        {
          "internalType": "address",
          "name": "to",
          "type": "address"
        },
        {
          "components": [
            {
              "internalType": "bytes",
              "name": "data",
              "type": "bytes"
            }
          ],
          "internalType": "struct inEuint32",
          "name": "encryptedAmount",
          "type": "tuple"
        }
      ],
      "name": "transferEncrypted",
      "outputs": [
        {
          "internalType": "euint32",
          "name": "",
          "type": "uint256"
        }
      ],
      "stateMutability": "nonpayable",
      "type": "function"
    },
    {
      "inputs": [
        {
          "internalType": "address",
          "name": "to",
          "type": "address"
        },
        {
          "internalType": "euint32",
          "name": "amount",
          "type": "uint256"
        }
      ],
      "name": "transferEncrypted",
      "outputs": [
        {
          "internalType": "euint32",
          "name": "",
          "type": "uint256"
        }
      ],
      "stateMutability": "nonpayable",
      "type": "function"
    },
    {
      "inputs": [
        {
          "internalType": "address",
          "name": "from",
          "type": "address"
        },
        {
          "internalType": "address",
          "name": "to",
          "type": "address"
        },
        {
          "internalType": "uint256",
          "name": "amount",
          "type": "uint256"
        }
      ],
      "name": "transferFrom",
      "outputs": [
        {
          "internalType": "bool",
          "name": "",
          "type": "bool"
        }
      ],
      "stateMutability": "nonpayable",
      "type": "function"
    },
    {
      "inputs": [
        {
          "internalType": "address",
          "name": "from",
          "type": "address"
        },
        {
          "internalType": "address",
          "name": "to",
          "type": "address"
        },
        {
          "components": [
            {
              "internalType": "bytes",
              "name": "data",
              "type": "bytes"
            }
          ],
          "internalType": "struct inEuint32",
          "name": "value",
          "type": "tuple"
        }
      ],
      "name": "transferFromEncrypted",
      "outputs": [
        {
          "internalType": "euint32",
          "name": "",
          "type": "uint256"
        }
      ],
      "stateMutability": "nonpayable",
      "type": "function"
    },
    {
      "inputs": [
        {
          "internalType": "address",
          "name": "from",
          "type": "address"
        },
        {
          "internalType": "address",
          "name": "to",
          "type": "address"
        },
        {
          "internalType": "euint32",
          "name": "value",
          "type": "uint256"
        }
      ],
      "name": "transferFromEncrypted",
      "outputs": [
        {
          "internalType": "euint32",
          "name": "",
          "type": "uint256"
        }
      ],
      "stateMutability": "nonpayable",
      "type": "function"
    },
    {
      "inputs": [
        {
          "internalType": "uint32",
          "name": "amount",
          "type": "uint32"
        }
      ],
      "name": "unwrap",
      "outputs": [],
      "stateMutability": "nonpayable",
      "type": "function"
    },
    {
      "inputs": [
        {
          "internalType": "uint32",
          "name": "amount",
          "type": "uint32"
        }
      ],
      "name": "wrap",
      "outputs": [],
      "stateMutability": "nonpayable",
      "type": "function"
    }
  ],
  "transactionHash": "0x0e5a43afae613ef46e5a88830498347a8456da2d9e5d84d2d444ee3557254c39",
  "args": [
    "Fugazi",
    "FGZ",
    "0xdBB3a210DD84635ddfBE271A34a76E5CE41a48b3",
    {
      "data": {
        "0": 16,
        "1": 8,
        "2": 0,
        "3": 0,
        "4": 0,
        "5": 0,
        "6": 0,
        "7": 0,
        "8": 12,
        "9": 140,
        "10": 131,
        "11": 84,
        "12": 2,
        "13": 139,
        "14": 11,
        "15": 95,
        "16": 222,
        "17": 129,
        "18": 63,
        "19": 186,
        "20": 141,
        "21": 106,
        "22": 148,
        "23": 187,
        "24": 218,
        "25": 117,
        "26": 59,
        "27": 30,
        "28": 115,
        "29": 162,
        "30": 128,
        "31": 53,
        "32": 55,
        "33": 76,
        "34": 96,
        "35": 215,
        "36": 234,
        "37": 23,
        "38": 132,
        "39": 205,
        "40": 186,
        "41": 215,
        "42": 74,
        "43": 152,
        "44": 221,
        "45": 177,
        "46": 206,
        "47": 103,
        "48": 250,
        "49": 192,
        "50": 223,
        "51": 32,
        "52": 139,
        "53": 215,
        "54": 176,
        "55": 42,
        "56": 46,
        "57": 32,
        "58": 95,
        "59": 89,
        "60": 133,
        "61": 56,
        "62": 24,
        "63": 158,
        "64": 185,
        "65": 224,
        "66": 243,
        "67": 207,
        "68": 100,
        "69": 135,
        "70": 24,
        "71": 58,
        "72": 122,
        "73": 237,
        "74": 46,
        "75": 229,
        "76": 150,
        "77": 176,
        "78": 14,
        "79": 110,
        "80": 173,
        "81": 102,
        "82": 6,
        "83": 236,
        "84": 239,
        "85": 224,
        "86": 72,
        "87": 74,
        "88": 54,
        "89": 92,
        "90": 244,
        "91": 176,
        "92": 236,
        "93": 133,
        "94": 82,
        "95": 215,
        "96": 160,
        "97": 1,
        "98": 222,
        "99": 147,
        "100": 3,
        "101": 186,
        "102": 58,
        "103": 177,
        "104": 210,
        "105": 54,
        "106": 137,
        "107": 84,
        "108": 135,
        "109": 136,
        "110": 75,
        "111": 4,
        "112": 37,
        "113": 21,
        "114": 98,
        "115": 138,
        "116": 17,
        "117": 101,
        "118": 176,
        "119": 211,
        "120": 103,
        "121": 1,
        "122": 161,
        "123": 250,
        "124": 206,
        "125": 59,
        "126": 117,
        "127": 67,
        "128": 124,
        "129": 140,
        "130": 201,
        "131": 129,
        "132": 139,
        "133": 170,
        "134": 205,
        "135": 171,
        "136": 191,
        "137": 232,
        "138": 209,
        "139": 8,
        "140": 26,
        "141": 152,
        "142": 221,
        "143": 108,
        "144": 216,
        "145": 173,
        "146": 232,
        "147": 223,
        "148": 38,
        "149": 163,
        "150": 92,
        "151": 43,
        "152": 110,
        "153": 27,
        "154": 89,
        "155": 77,
        "156": 207,
        "157": 148,
        "158": 106,
        "159": 195,
        "160": 228,
        "161": 39,
        "162": 34,
        "163": 63,
        "164": 188,
        "165": 107,
        "166": 80,
        "167": 244,
        "168": 137,
        "169": 113,
        "170": 188,
        "171": 192,
        "172": 36,
        "173": 230,
        "174": 98,
        "175": 52,
        "176": 229,
        "177": 213,
        "178": 72,
        "179": 193,
        "180": 217,
        "181": 178,
        "182": 148,
        "183": 28,
        "184": 183,
        "185": 117,
        "186": 44,
        "187": 54,
        "188": 81,
        "189": 39,
        "190": 78,
        "191": 170,
        "192": 173,
        "193": 189,
        "194": 175,
        "195": 210,
        "196": 164,
        "197": 131,
        "198": 135,
        "199": 62,
        "200": 219,
        "201": 73,
        "202": 158,
        "203": 57,
        "204": 94,
        "205": 86,
        "206": 73,
        "207": 59,
        "208": 246,
        "209": 169,
        "210": 232,
        "211": 132,
        "212": 227,
        "213": 124,
        "214": 153,
        "215": 81,
        "216": 204,
        "217": 127,
        "218": 140,
        "219": 123,
        "220": 190,
        "221": 164,
        "222": 32,
        "223": 197,
        "224": 22,
        "225": 107,
        "226": 31,
        "227": 250,
        "228": 13,
        "229": 9,
        "230": 29,
        "231": 117,
        "232": 209,
        "233": 23,
        "234": 36,
        "235": 170,
        "236": 111,
        "237": 19,
        "238": 209,
        "239": 177,
        "240": 49,
        "241": 153,
        "242": 141,
        "243": 216,
        "244": 235,
        "245": 148,
        "246": 27,
        "247": 210,
        "248": 239,
        "249": 236,
        "250": 175,
        "251": 98,
        "252": 29,
        "253": 201,
        "254": 184,
        "255": 191,
        "256": 198,
        "257": 232,
        "258": 90,
        "259": 109,
        "260": 72,
        "261": 117,
        "262": 76,
        "263": 133,
        "264": 146,
        "265": 110,
        "266": 204,
        "267": 180,
        "268": 21,
        "269": 186,
        "270": 225,
        "271": 49,
        "272": 192,
        "273": 187,
        "274": 214,
        "275": 108,
        "276": 14,
        "277": 150,
        "278": 59,
        "279": 93,
        "280": 168,
        "281": 141,
        "282": 135,
        "283": 137,
        "284": 59,
        "285": 97,
        "286": 24,
        "287": 242,
        "288": 49,
        "289": 241,
        "290": 235,
        "291": 36,
        "292": 29,
        "293": 152,
        "294": 185,
        "295": 194,
        "296": 138,
        "297": 215,
        "298": 176,
        "299": 109,
        "300": 175,
        "301": 75,
        "302": 90,
        "303": 49,
        "304": 57,
        "305": 49,
        "306": 76,
        "307": 117,
        "308": 7,
        "309": 45,
        "310": 171,
        "311": 3,
        "312": 116,
        "313": 177,
        "314": 111,
        "315": 221,
        "316": 155,
        "317": 89,
        "318": 21,
        "319": 89,
        "320": 33,
        "321": 214,
        "322": 227,
        "323": 154,
        "324": 147,
        "325": 171,
        "326": 107,
        "327": 204,
        "328": 44,
        "329": 66,
        "330": 145,
        "331": 166,
        "332": 246,
        "333": 148,
        "334": 183,
        "335": 54,
        "336": 91,
        "337": 195,
        "338": 95,
        "339": 245,
        "340": 125,
        "341": 10,
        "342": 32,
        "343": 73,
        "344": 243,
        "345": 14,
        "346": 134,
        "347": 143,
        "348": 159,
        "349": 201,
        "350": 73,
        "351": 80,
        "352": 123,
        "353": 146,
        "354": 208,
        "355": 105,
        "356": 188,
        "357": 98,
        "358": 66,
        "359": 38,
        "360": 255,
        "361": 239,
        "362": 4,
        "363": 15,
        "364": 81,
        "365": 163,
        "366": 208,
        "367": 63,
        "368": 169,
        "369": 68,
        "370": 234,
        "371": 25,
        "372": 164,
        "373": 134,
        "374": 37,
        "375": 249,
        "376": 128,
        "377": 51,
        "378": 231,
        "379": 72,
        "380": 254,
        "381": 201,
        "382": 68,
        "383": 4,
        "384": 28,
        "385": 166,
        "386": 146,
        "387": 30,
        "388": 189,
        "389": 87,
        "390": 60,
        "391": 60,
        "392": 107,
        "393": 243,
        "394": 28,
        "395": 235,
        "396": 144,
        "397": 216,
        "398": 95,
        "399": 31,
        "400": 76,
        "401": 61,
        "402": 37,
        "403": 255,
        "404": 154,
        "405": 166,
        "406": 8,
        "407": 255,
        "408": 84,
        "409": 16,
        "410": 17,
        "411": 246,
        "412": 179,
        "413": 17,
        "414": 229,
        "415": 227,
        "416": 242,
        "417": 128,
        "418": 237,
        "419": 143,
        "420": 0,
        "421": 30,
        "422": 65,
        "423": 237,
        "424": 80,
        "425": 71,
        "426": 222,
        "427": 136,
        "428": 128,
        "429": 197,
        "430": 209,
        "431": 200,
        "432": 242,
        "433": 244,
        "434": 208,
        "435": 225,
        "436": 199,
        "437": 77,
        "438": 106,
        "439": 44,
        "440": 178,
        "441": 177,
        "442": 88,
        "443": 225,
        "444": 183,
        "445": 115,
        "446": 150,
        "447": 62,
        "448": 62,
        "449": 174,
        "450": 248,
        "451": 35,
        "452": 158,
        "453": 66,
        "454": 106,
        "455": 121,
        "456": 197,
        "457": 154,
        "458": 113,
        "459": 201,
        "460": 241,
        "461": 185,
        "462": 201,
        "463": 89,
        "464": 136,
        "465": 45,
        "466": 181,
        "467": 254,
        "468": 86,
        "469": 2,
        "470": 215,
        "471": 117,
        "472": 107,
        "473": 212,
        "474": 207,
        "475": 83,
        "476": 16,
        "477": 192,
        "478": 231,
        "479": 93,
        "480": 95,
        "481": 165,
        "482": 249,
        "483": 194,
        "484": 146,
        "485": 48,
        "486": 164,
        "487": 132,
        "488": 52,
        "489": 219,
        "490": 170,
        "491": 10,
        "492": 176,
        "493": 240,
        "494": 128,
        "495": 165,
        "496": 66,
        "497": 74,
        "498": 193,
        "499": 238,
        "500": 73,
        "501": 22,
        "502": 213,
        "503": 242,
        "504": 7,
        "505": 37,
        "506": 23,
        "507": 143,
        "508": 138,
        "509": 71,
        "510": 205,
        "511": 70,
        "512": 176,
        "513": 196,
        "514": 190,
        "515": 82,
        "516": 131,
        "517": 50,
        "518": 249,
        "519": 163,
        "520": 235,
        "521": 96,
        "522": 193,
        "523": 226,
        "524": 81,
        "525": 127,
        "526": 85,
        "527": 216,
        "528": 127,
        "529": 194,
        "530": 176,
        "531": 24,
        "532": 91,
        "533": 66,
        "534": 142,
        "535": 106,
        "536": 26,
        "537": 87,
        "538": 172,
        "539": 133,
        "540": 143,
        "541": 119,
        "542": 27,
        "543": 38,
        "544": 45,
        "545": 10,
        "546": 239,
        "547": 209,
        "548": 60,
        "549": 69,
        "550": 158,
        "551": 206,
        "552": 196,
        "553": 228,
        "554": 14,
        "555": 125,
        "556": 129,
        "557": 5,
        "558": 56,
        "559": 252,
        "560": 142,
        "561": 214,
        "562": 235,
        "563": 234,
        "564": 112,
        "565": 232,
        "566": 173,
        "567": 143,
        "568": 179,
        "569": 226,
        "570": 167,
        "571": 54,
        "572": 159,
        "573": 227,
        "574": 3,
        "575": 16,
        "576": 115,
        "577": 245,
        "578": 58,
        "579": 182,
        "580": 122,
        "581": 180,
        "582": 68,
        "583": 204,
        "584": 190,
        "585": 7,
        "586": 177,
        "587": 106,
        "588": 149,
        "589": 159,
        "590": 90,
        "591": 52,
        "592": 74,
        "593": 247,
        "594": 28,
        "595": 209,
        "596": 21,
        "597": 130,
        "598": 230,
        "599": 138,
        "600": 44,
        "601": 241,
        "602": 84,
        "603": 128,
        "604": 167,
        "605": 134,
        "606": 97,
        "607": 60,
        "608": 244,
        "609": 31,
        "610": 37,
        "611": 124,
        "612": 13,
        "613": 26,
        "614": 255,
        "615": 253,
        "616": 234,
        "617": 37,
        "618": 51,
        "619": 255,
        "620": 225,
        "621": 145,
        "622": 119,
        "623": 33,
        "624": 207,
        "625": 99,
        "626": 136,
        "627": 77,
        "628": 16,
        "629": 47,
        "630": 208,
        "631": 241,
        "632": 243,
        "633": 78,
        "634": 34,
        "635": 34,
        "636": 52,
        "637": 250,
        "638": 139,
        "639": 94,
        "640": 85,
        "641": 40,
        "642": 190,
        "643": 157,
        "644": 250,
        "645": 59,
        "646": 132,
        "647": 118,
        "648": 141,
        "649": 131,
        "650": 231,
        "651": 38,
        "652": 81,
        "653": 212,
        "654": 171,
        "655": 79,
        "656": 116,
        "657": 38,
        "658": 7,
        "659": 102,
        "660": 199,
        "661": 182,
        "662": 253,
        "663": 253,
        "664": 179,
        "665": 84,
        "666": 156,
        "667": 107,
        "668": 113,
        "669": 208,
        "670": 133,
        "671": 69,
        "672": 207,
        "673": 73,
        "674": 72,
        "675": 220,
        "676": 235,
        "677": 107,
        "678": 126,
        "679": 111,
        "680": 232,
        "681": 248,
        "682": 28,
        "683": 216,
        "684": 27,
        "685": 65,
        "686": 209,
        "687": 5,
        "688": 161,
        "689": 136,
        "690": 255,
        "691": 135,
        "692": 142,
        "693": 21,
        "694": 180,
        "695": 197,
        "696": 29,
        "697": 163,
        "698": 141,
        "699": 121,
        "700": 15,
        "701": 93,
        "702": 3,
        "703": 184,
        "704": 226,
        "705": 231,
        "706": 66,
        "707": 110,
        "708": 184,
        "709": 153,
        "710": 236,
        "711": 20,
        "712": 210,
        "713": 130,
        "714": 12,
        "715": 7,
        "716": 16,
        "717": 218,
        "718": 194,
        "719": 105,
        "720": 57,
        "721": 98,
        "722": 16,
        "723": 36,
        "724": 85,
        "725": 251,
        "726": 198,
        "727": 34,
        "728": 140,
        "729": 51,
        "730": 71,
        "731": 3,
        "732": 14,
        "733": 91,
        "734": 183,
        "735": 34,
        "736": 216,
        "737": 254,
        "738": 54,
        "739": 57,
        "740": 145,
        "741": 121,
        "742": 84,
        "743": 35,
        "744": 63,
        "745": 79,
        "746": 135,
        "747": 243,
        "748": 82,
        "749": 204,
        "750": 168,
        "751": 120,
        "752": 34,
        "753": 151,
        "754": 216,
        "755": 253,
        "756": 29,
        "757": 221,
        "758": 74,
        "759": 15,
        "760": 80,
        "761": 140,
        "762": 234,
        "763": 166,
        "764": 14,
        "765": 153,
        "766": 222,
        "767": 244,
        "768": 79,
        "769": 59,
        "770": 25,
        "771": 94,
        "772": 192,
        "773": 84,
        "774": 247,
        "775": 183,
        "776": 56,
        "777": 12,
        "778": 136,
        "779": 216,
        "780": 102,
        "781": 15,
        "782": 40,
        "783": 0,
        "784": 162,
        "785": 126,
        "786": 64,
        "787": 105,
        "788": 94,
        "789": 94,
        "790": 72,
        "791": 59,
        "792": 250,
        "793": 180,
        "794": 76,
        "795": 125,
        "796": 84,
        "797": 169,
        "798": 37,
        "799": 194,
        "800": 49,
        "801": 97,
        "802": 145,
        "803": 249,
        "804": 133,
        "805": 111,
        "806": 97,
        "807": 159,
        "808": 224,
        "809": 11,
        "810": 187,
        "811": 21,
        "812": 197,
        "813": 123,
        "814": 142,
        "815": 249,
        "816": 25,
        "817": 179,
        "818": 173,
        "819": 141,
        "820": 85,
        "821": 28,
        "822": 8,
        "823": 94,
        "824": 151,
        "825": 237,
        "826": 251,
        "827": 241,
        "828": 71,
        "829": 105,
        "830": 182,
        "831": 233,
        "832": 100,
        "833": 147,
        "834": 173,
        "835": 70,
        "836": 128,
        "837": 62,
        "838": 192,
        "839": 112,
        "840": 133,
        "841": 163,
        "842": 205,
        "843": 172,
        "844": 80,
        "845": 137,
        "846": 11,
        "847": 129,
        "848": 103,
        "849": 118,
        "850": 255,
        "851": 180,
        "852": 99,
        "853": 215,
        "854": 226,
        "855": 172,
        "856": 92,
        "857": 99,
        "858": 221,
        "859": 47,
        "860": 0,
        "861": 1,
        "862": 14,
        "863": 233,
        "864": 194,
        "865": 84,
        "866": 127,
        "867": 115,
        "868": 109,
        "869": 116,
        "870": 9,
        "871": 234,
        "872": 81,
        "873": 190,
        "874": 248,
        "875": 194,
        "876": 26,
        "877": 64,
        "878": 161,
        "879": 18,
        "880": 232,
        "881": 98,
        "882": 179,
        "883": 132,
        "884": 234,
        "885": 148,
        "886": 145,
        "887": 19,
        "888": 6,
        "889": 7,
        "890": 89,
        "891": 146,
        "892": 91,
        "893": 106,
        "894": 60,
        "895": 253,
        "896": 244,
        "897": 240,
        "898": 47,
        "899": 100,
        "900": 104,
        "901": 10,
        "902": 92,
        "903": 114,
        "904": 178,
        "905": 247,
        "906": 159,
        "907": 205,
        "908": 166,
        "909": 121,
        "910": 159,
        "911": 109,
        "912": 93,
        "913": 53,
        "914": 192,
        "915": 91,
        "916": 42,
        "917": 180,
        "918": 105,
        "919": 155,
        "920": 46,
        "921": 238,
        "922": 241,
        "923": 61,
        "924": 183,
        "925": 141,
        "926": 254,
        "927": 39,
        "928": 214,
        "929": 99,
        "930": 53,
        "931": 50,
        "932": 39,
        "933": 44,
        "934": 162,
        "935": 120,
        "936": 184,
        "937": 204,
        "938": 25,
        "939": 136,
        "940": 155,
        "941": 198,
        "942": 248,
        "943": 168,
        "944": 66,
        "945": 181,
        "946": 177,
        "947": 27,
        "948": 251,
        "949": 75,
        "950": 243,
        "951": 181,
        "952": 230,
        "953": 200,
        "954": 86,
        "955": 120,
        "956": 79,
        "957": 209,
        "958": 165,
        "959": 71,
        "960": 127,
        "961": 141,
        "962": 235,
        "963": 23,
        "964": 128,
        "965": 160,
        "966": 186,
        "967": 149,
        "968": 94,
        "969": 147,
        "970": 235,
        "971": 246,
        "972": 241,
        "973": 174,
        "974": 152,
        "975": 40,
        "976": 31,
        "977": 226,
        "978": 209,
        "979": 136,
        "980": 217,
        "981": 200,
        "982": 32,
        "983": 50,
        "984": 23,
        "985": 61,
        "986": 183,
        "987": 71,
        "988": 237,
        "989": 199,
        "990": 44,
        "991": 4,
        "992": 10,
        "993": 78,
        "994": 228,
        "995": 212,
        "996": 65,
        "997": 191,
        "998": 9,
        "999": 139,
        "1000": 1,
        "1001": 221,
        "1002": 168,
        "1003": 231,
        "1004": 83,
        "1005": 29,
        "1006": 131,
        "1007": 89,
        "1008": 44,
        "1009": 221,
        "1010": 24,
        "1011": 80,
        "1012": 134,
        "1013": 208,
        "1014": 168,
        "1015": 88,
        "1016": 115,
        "1017": 197,
        "1018": 125,
        "1019": 54,
        "1020": 19,
        "1021": 216,
        "1022": 211,
        "1023": 243,
        "1024": 91,
        "1025": 246,
        "1026": 94,
        "1027": 137,
        "1028": 240,
        "1029": 62,
        "1030": 154,
        "1031": 175,
        "1032": 72,
        "1033": 109,
        "1034": 163,
        "1035": 165,
        "1036": 2,
        "1037": 6,
        "1038": 63,
        "1039": 237,
        "1040": 201,
        "1041": 210,
        "1042": 2,
        "1043": 157,
        "1044": 67,
        "1045": 243,
        "1046": 190,
        "1047": 39,
        "1048": 83,
        "1049": 12,
        "1050": 254,
        "1051": 97,
        "1052": 122,
        "1053": 85,
        "1054": 122,
        "1055": 49,
        "1056": 46,
        "1057": 42,
        "1058": 139,
        "1059": 222,
        "1060": 103,
        "1061": 28,
        "1062": 130,
        "1063": 57,
        "1064": 198,
        "1065": 70,
        "1066": 44,
        "1067": 47,
        "1068": 162,
        "1069": 246,
        "1070": 128,
        "1071": 176,
        "1072": 126,
        "1073": 2,
        "1074": 214,
        "1075": 253,
        "1076": 202,
        "1077": 195,
        "1078": 13,
        "1079": 44,
        "1080": 99,
        "1081": 225,
        "1082": 32,
        "1083": 215,
        "1084": 46,
        "1085": 187,
        "1086": 209,
        "1087": 236,
        "1088": 57,
        "1089": 178,
        "1090": 155,
        "1091": 176,
        "1092": 170,
        "1093": 33,
        "1094": 191,
        "1095": 96,
        "1096": 236,
        "1097": 182,
        "1098": 28,
        "1099": 215,
        "1100": 212,
        "1101": 16,
        "1102": 136,
        "1103": 202,
        "1104": 84,
        "1105": 119,
        "1106": 38,
        "1107": 3,
        "1108": 68,
        "1109": 74,
        "1110": 194,
        "1111": 128,
        "1112": 110,
        "1113": 245,
        "1114": 10,
        "1115": 120,
        "1116": 18,
        "1117": 128,
        "1118": 13,
        "1119": 178,
        "1120": 48,
        "1121": 5,
        "1122": 115,
        "1123": 18,
        "1124": 152,
        "1125": 20,
        "1126": 52,
        "1127": 157,
        "1128": 246,
        "1129": 172,
        "1130": 114,
        "1131": 111,
        "1132": 95,
        "1133": 113,
        "1134": 223,
        "1135": 241,
        "1136": 52,
        "1137": 255,
        "1138": 86,
        "1139": 143,
        "1140": 109,
        "1141": 48,
        "1142": 115,
        "1143": 194,
        "1144": 106,
        "1145": 64,
        "1146": 193,
        "1147": 24,
        "1148": 210,
        "1149": 227,
        "1150": 43,
        "1151": 218,
        "1152": 35,
        "1153": 252,
        "1154": 118,
        "1155": 81,
        "1156": 208,
        "1157": 110,
        "1158": 36,
        "1159": 37,
        "1160": 124,
        "1161": 51,
        "1162": 55,
        "1163": 249,
        "1164": 201,
        "1165": 133,
        "1166": 68,
        "1167": 205,
        "1168": 62,
        "1169": 171,
        "1170": 190,
        "1171": 144,
        "1172": 70,
        "1173": 80,
        "1174": 202,
        "1175": 171,
        "1176": 198,
        "1177": 43,
        "1178": 213,
        "1179": 225,
        "1180": 224,
        "1181": 193,
        "1182": 111,
        "1183": 85,
        "1184": 150,
        "1185": 61,
        "1186": 171,
        "1187": 109,
        "1188": 157,
        "1189": 231,
        "1190": 192,
        "1191": 150,
        "1192": 200,
        "1193": 194,
        "1194": 72,
        "1195": 212,
        "1196": 130,
        "1197": 51,
        "1198": 95,
        "1199": 201,
        "1200": 141,
        "1201": 134,
        "1202": 237,
        "1203": 226,
        "1204": 82,
        "1205": 48,
        "1206": 222,
        "1207": 59,
        "1208": 160,
        "1209": 41,
        "1210": 181,
        "1211": 201,
        "1212": 11,
        "1213": 32,
        "1214": 18,
        "1215": 58,
        "1216": 228,
        "1217": 21,
        "1218": 226,
        "1219": 123,
        "1220": 8,
        "1221": 104,
        "1222": 178,
        "1223": 17,
        "1224": 170,
        "1225": 191,
        "1226": 43,
        "1227": 12,
        "1228": 46,
        "1229": 245,
        "1230": 168,
        "1231": 250,
        "1232": 239,
        "1233": 128,
        "1234": 72,
        "1235": 95,
        "1236": 37,
        "1237": 50,
        "1238": 218,
        "1239": 244,
        "1240": 18,
        "1241": 155,
        "1242": 158,
        "1243": 119,
        "1244": 101,
        "1245": 34,
        "1246": 239,
        "1247": 57,
        "1248": 204,
        "1249": 132,
        "1250": 178,
        "1251": 82,
        "1252": 84,
        "1253": 78,
        "1254": 175,
        "1255": 90,
        "1256": 124,
        "1257": 119,
        "1258": 228,
        "1259": 206,
        "1260": 252,
        "1261": 254,
        "1262": 228,
        "1263": 134,
        "1264": 156,
        "1265": 81,
        "1266": 124,
        "1267": 28,
        "1268": 45,
        "1269": 111,
        "1270": 208,
        "1271": 5,
        "1272": 139,
        "1273": 28,
        "1274": 91,
        "1275": 6,
        "1276": 81,
        "1277": 229,
        "1278": 40,
        "1279": 3,
        "1280": 56,
        "1281": 15,
        "1282": 102,
        "1283": 142,
        "1284": 134,
        "1285": 126,
        "1286": 116,
        "1287": 248,
        "1288": 208,
        "1289": 101,
        "1290": 32,
        "1291": 72,
        "1292": 24,
        "1293": 21,
        "1294": 85,
        "1295": 237,
        "1296": 227,
        "1297": 229,
        "1298": 58,
        "1299": 23,
        "1300": 71,
        "1301": 5,
        "1302": 196,
        "1303": 249,
        "1304": 27,
        "1305": 255,
        "1306": 188,
        "1307": 59,
        "1308": 246,
        "1309": 136,
        "1310": 229,
        "1311": 77,
        "1312": 8,
        "1313": 172,
        "1314": 54,
        "1315": 118,
        "1316": 122,
        "1317": 244,
        "1318": 226,
        "1319": 71,
        "1320": 169,
        "1321": 99,
        "1322": 170,
        "1323": 207,
        "1324": 114,
        "1325": 105,
        "1326": 109,
        "1327": 96,
        "1328": 68,
        "1329": 121,
        "1330": 80,
        "1331": 39,
        "1332": 251,
        "1333": 95,
        "1334": 242,
        "1335": 116,
        "1336": 165,
        "1337": 92,
        "1338": 117,
        "1339": 199,
        "1340": 189,
        "1341": 166,
        "1342": 199,
        "1343": 22,
        "1344": 204,
        "1345": 157,
        "1346": 122,
        "1347": 212,
        "1348": 19,
        "1349": 191,
        "1350": 195,
        "1351": 37,
        "1352": 123,
        "1353": 147,
        "1354": 232,
        "1355": 45,
        "1356": 229,
        "1357": 100,
        "1358": 145,
        "1359": 34,
        "1360": 239,
        "1361": 249,
        "1362": 51,
        "1363": 233,
        "1364": 239,
        "1365": 49,
        "1366": 153,
        "1367": 159,
        "1368": 23,
        "1369": 132,
        "1370": 127,
        "1371": 254,
        "1372": 121,
        "1373": 67,
        "1374": 167,
        "1375": 113,
        "1376": 177,
        "1377": 185,
        "1378": 41,
        "1379": 24,
        "1380": 140,
        "1381": 115,
        "1382": 3,
        "1383": 59,
        "1384": 217,
        "1385": 59,
        "1386": 117,
        "1387": 157,
        "1388": 107,
        "1389": 196,
        "1390": 247,
        "1391": 171,
        "1392": 115,
        "1393": 85,
        "1394": 177,
        "1395": 95,
        "1396": 184,
        "1397": 206,
        "1398": 78,
        "1399": 137,
        "1400": 47,
        "1401": 104,
        "1402": 168,
        "1403": 140,
        "1404": 134,
        "1405": 159,
        "1406": 80,
        "1407": 103,
        "1408": 208,
        "1409": 87,
        "1410": 119,
        "1411": 55,
        "1412": 214,
        "1413": 0,
        "1414": 134,
        "1415": 132,
        "1416": 194,
        "1417": 83,
        "1418": 236,
        "1419": 215,
        "1420": 74,
        "1421": 238,
        "1422": 41,
        "1423": 75,
        "1424": 171,
        "1425": 148,
        "1426": 153,
        "1427": 103,
        "1428": 190,
        "1429": 244,
        "1430": 66,
        "1431": 33,
        "1432": 253,
        "1433": 184,
        "1434": 79,
        "1435": 54,
        "1436": 225,
        "1437": 249,
        "1438": 95,
        "1439": 242,
        "1440": 255,
        "1441": 37,
        "1442": 161,
        "1443": 198,
        "1444": 173,
        "1445": 21,
        "1446": 43,
        "1447": 204,
        "1448": 123,
        "1449": 130,
        "1450": 166,
        "1451": 9,
        "1452": 58,
        "1453": 65,
        "1454": 101,
        "1455": 80,
        "1456": 149,
        "1457": 33,
        "1458": 100,
        "1459": 214,
        "1460": 104,
        "1461": 216,
        "1462": 168,
        "1463": 255,
        "1464": 208,
        "1465": 72,
        "1466": 75,
        "1467": 27,
        "1468": 63,
        "1469": 208,
        "1470": 176,
        "1471": 104,
        "1472": 122,
        "1473": 90,
        "1474": 126,
        "1475": 23,
        "1476": 247,
        "1477": 92,
        "1478": 27,
        "1479": 57,
        "1480": 126,
        "1481": 192,
        "1482": 163,
        "1483": 188,
        "1484": 254,
        "1485": 244,
        "1486": 8,
        "1487": 60,
        "1488": 208,
        "1489": 1,
        "1490": 164,
        "1491": 134,
        "1492": 4,
        "1493": 238,
        "1494": 252,
        "1495": 241,
        "1496": 169,
        "1497": 31,
        "1498": 203,
        "1499": 145,
        "1500": 201,
        "1501": 77,
        "1502": 120,
        "1503": 32,
        "1504": 112,
        "1505": 69,
        "1506": 202,
        "1507": 110,
        "1508": 76,
        "1509": 40,
        "1510": 224,
        "1511": 109,
        "1512": 144,
        "1513": 178,
        "1514": 131,
        "1515": 198,
        "1516": 37,
        "1517": 215,
        "1518": 165,
        "1519": 133,
        "1520": 129,
        "1521": 76,
        "1522": 205,
        "1523": 196,
        "1524": 108,
        "1525": 5,
        "1526": 79,
        "1527": 173,
        "1528": 214,
        "1529": 206,
        "1530": 15,
        "1531": 181,
        "1532": 205,
        "1533": 96,
        "1534": 173,
        "1535": 102,
        "1536": 42,
        "1537": 138,
        "1538": 117,
        "1539": 73,
        "1540": 184,
        "1541": 176,
        "1542": 17,
        "1543": 4,
        "1544": 3,
        "1545": 242,
        "1546": 203,
        "1547": 131,
        "1548": 220,
        "1549": 123,
        "1550": 47,
        "1551": 13,
        "1552": 31,
        "1553": 187,
        "1554": 88,
        "1555": 236,
        "1556": 145,
        "1557": 46,
        "1558": 63,
        "1559": 228,
        "1560": 246,
        "1561": 142,
        "1562": 211,
        "1563": 164,
        "1564": 143,
        "1565": 98,
        "1566": 203,
        "1567": 225,
        "1568": 26,
        "1569": 235,
        "1570": 194,
        "1571": 131,
        "1572": 67,
        "1573": 61,
        "1574": 37,
        "1575": 39,
        "1576": 237,
        "1577": 238,
        "1578": 61,
        "1579": 49,
        "1580": 134,
        "1581": 136,
        "1582": 230,
        "1583": 13,
        "1584": 36,
        "1585": 37,
        "1586": 152,
        "1587": 100,
        "1588": 161,
        "1589": 149,
        "1590": 169,
        "1591": 111,
        "1592": 115,
        "1593": 10,
        "1594": 46,
        "1595": 235,
        "1596": 143,
        "1597": 8,
        "1598": 141,
        "1599": 167,
        "1600": 157,
        "1601": 248,
        "1602": 83,
        "1603": 240,
        "1604": 49,
        "1605": 13,
        "1606": 155,
        "1607": 200,
        "1608": 34,
        "1609": 60,
        "1610": 95,
        "1611": 235,
        "1612": 245,
        "1613": 199,
        "1614": 19,
        "1615": 189,
        "1616": 53,
        "1617": 128,
        "1618": 255,
        "1619": 55,
        "1620": 252,
        "1621": 110,
        "1622": 246,
        "1623": 14,
        "1624": 169,
        "1625": 47,
        "1626": 231,
        "1627": 92,
        "1628": 160,
        "1629": 203,
        "1630": 250,
        "1631": 55,
        "1632": 148,
        "1633": 61,
        "1634": 22,
        "1635": 236,
        "1636": 153,
        "1637": 179,
        "1638": 161,
        "1639": 128,
        "1640": 175,
        "1641": 158,
        "1642": 119,
        "1643": 128,
        "1644": 238,
        "1645": 223,
        "1646": 5,
        "1647": 154,
        "1648": 251,
        "1649": 79,
        "1650": 233,
        "1651": 147,
        "1652": 182,
        "1653": 154,
        "1654": 74,
        "1655": 185,
        "1656": 164,
        "1657": 163,
        "1658": 62,
        "1659": 186,
        "1660": 47,
        "1661": 249,
        "1662": 198,
        "1663": 183,
        "1664": 180,
        "1665": 3,
        "1666": 147,
        "1667": 103,
        "1668": 15,
        "1669": 105,
        "1670": 161,
        "1671": 173,
        "1672": 136,
        "1673": 186,
        "1674": 106,
        "1675": 196,
        "1676": 8,
        "1677": 28,
        "1678": 226,
        "1679": 9,
        "1680": 41,
        "1681": 50,
        "1682": 88,
        "1683": 68,
        "1684": 15,
        "1685": 75,
        "1686": 211,
        "1687": 218,
        "1688": 181,
        "1689": 186,
        "1690": 255,
        "1691": 47,
        "1692": 255,
        "1693": 219,
        "1694": 132,
        "1695": 144,
        "1696": 105,
        "1697": 76,
        "1698": 232,
        "1699": 59,
        "1700": 51,
        "1701": 69,
        "1702": 169,
        "1703": 230,
        "1704": 31,
        "1705": 74,
        "1706": 178,
        "1707": 70,
        "1708": 174,
        "1709": 5,
        "1710": 99,
        "1711": 6,
        "1712": 37,
        "1713": 41,
        "1714": 135,
        "1715": 194,
        "1716": 115,
        "1717": 97,
        "1718": 237,
        "1719": 101,
        "1720": 40,
        "1721": 176,
        "1722": 231,
        "1723": 114,
        "1724": 22,
        "1725": 53,
        "1726": 52,
        "1727": 218,
        "1728": 181,
        "1729": 138,
        "1730": 4,
        "1731": 149,
        "1732": 244,
        "1733": 43,
        "1734": 152,
        "1735": 110,
        "1736": 163,
        "1737": 202,
        "1738": 192,
        "1739": 173,
        "1740": 72,
        "1741": 161,
        "1742": 145,
        "1743": 24,
        "1744": 209,
        "1745": 12,
        "1746": 241,
        "1747": 243,
        "1748": 36,
        "1749": 14,
        "1750": 182,
        "1751": 147,
        "1752": 206,
        "1753": 100,
        "1754": 26,
        "1755": 189,
        "1756": 151,
        "1757": 154,
        "1758": 49,
        "1759": 17,
        "1760": 140,
        "1761": 220,
        "1762": 29,
        "1763": 55,
        "1764": 239,
        "1765": 17,
        "1766": 54,
        "1767": 176,
        "1768": 19,
        "1769": 226,
        "1770": 198,
        "1771": 196,
        "1772": 253,
        "1773": 198,
        "1774": 105,
        "1775": 225,
        "1776": 85,
        "1777": 121,
        "1778": 195,
        "1779": 215,
        "1780": 197,
        "1781": 81,
        "1782": 195,
        "1783": 224,
        "1784": 210,
        "1785": 11,
        "1786": 231,
        "1787": 81,
        "1788": 68,
        "1789": 115,
        "1790": 149,
        "1791": 161,
        "1792": 231,
        "1793": 151,
        "1794": 27,
        "1795": 37,
        "1796": 254,
        "1797": 206,
        "1798": 96,
        "1799": 35,
        "1800": 55,
        "1801": 123,
        "1802": 93,
        "1803": 58,
        "1804": 138,
        "1805": 76,
        "1806": 11,
        "1807": 112,
        "1808": 27,
        "1809": 206,
        "1810": 199,
        "1811": 84,
        "1812": 218,
        "1813": 154,
        "1814": 31,
        "1815": 15,
        "1816": 250,
        "1817": 140,
        "1818": 166,
        "1819": 70,
        "1820": 197,
        "1821": 66,
        "1822": 125,
        "1823": 83,
        "1824": 78,
        "1825": 112,
        "1826": 72,
        "1827": 208,
        "1828": 12,
        "1829": 251,
        "1830": 99,
        "1831": 162,
        "1832": 160,
        "1833": 14,
        "1834": 237,
        "1835": 71,
        "1836": 21,
        "1837": 13,
        "1838": 134,
        "1839": 165,
        "1840": 99,
        "1841": 58,
        "1842": 164,
        "1843": 193,
        "1844": 142,
        "1845": 239,
        "1846": 27,
        "1847": 131,
        "1848": 182,
        "1849": 182,
        "1850": 225,
        "1851": 88,
        "1852": 158,
        "1853": 153,
        "1854": 176,
        "1855": 244,
        "1856": 27,
        "1857": 87,
        "1858": 48,
        "1859": 71,
        "1860": 126,
        "1861": 244,
        "1862": 174,
        "1863": 59,
        "1864": 18,
        "1865": 13,
        "1866": 166,
        "1867": 20,
        "1868": 130,
        "1869": 194,
        "1870": 155,
        "1871": 216,
        "1872": 236,
        "1873": 174,
        "1874": 57,
        "1875": 252,
        "1876": 3,
        "1877": 44,
        "1878": 250,
        "1879": 16,
        "1880": 48,
        "1881": 247,
        "1882": 248,
        "1883": 213,
        "1884": 138,
        "1885": 144,
        "1886": 94,
        "1887": 87,
        "1888": 152,
        "1889": 54,
        "1890": 192,
        "1891": 73,
        "1892": 184,
        "1893": 12,
        "1894": 58,
        "1895": 12,
        "1896": 29,
        "1897": 96,
        "1898": 45,
        "1899": 14,
        "1900": 227,
        "1901": 5,
        "1902": 62,
        "1903": 99,
        "1904": 186,
        "1905": 8,
        "1906": 209,
        "1907": 13,
        "1908": 136,
        "1909": 230,
        "1910": 102,
        "1911": 106,
        "1912": 148,
        "1913": 30,
        "1914": 221,
        "1915": 10,
        "1916": 113,
        "1917": 52,
        "1918": 82,
        "1919": 182,
        "1920": 162,
        "1921": 185,
        "1922": 70,
        "1923": 48,
        "1924": 95,
        "1925": 159,
        "1926": 166,
        "1927": 237,
        "1928": 233,
        "1929": 191,
        "1930": 114,
        "1931": 167,
        "1932": 25,
        "1933": 40,
        "1934": 5,
        "1935": 234,
        "1936": 18,
        "1937": 178,
        "1938": 234,
        "1939": 157,
        "1940": 242,
        "1941": 112,
        "1942": 210,
        "1943": 31,
        "1944": 8,
        "1945": 161,
        "1946": 57,
        "1947": 156,
        "1948": 23,
        "1949": 46,
        "1950": 118,
        "1951": 243,
        "1952": 49,
        "1953": 179,
        "1954": 122,
        "1955": 44,
        "1956": 218,
        "1957": 202,
        "1958": 89,
        "1959": 124,
        "1960": 106,
        "1961": 190,
        "1962": 204,
        "1963": 137,
        "1964": 93,
        "1965": 236,
        "1966": 154,
        "1967": 228,
        "1968": 175,
        "1969": 65,
        "1970": 147,
        "1971": 198,
        "1972": 42,
        "1973": 84,
        "1974": 90,
        "1975": 177,
        "1976": 57,
        "1977": 242,
        "1978": 93,
        "1979": 97,
        "1980": 179,
        "1981": 212,
        "1982": 172,
        "1983": 209,
        "1984": 181,
        "1985": 77,
        "1986": 73,
        "1987": 190,
        "1988": 25,
        "1989": 49,
        "1990": 67,
        "1991": 72,
        "1992": 186,
        "1993": 16,
        "1994": 31,
        "1995": 76,
        "1996": 181,
        "1997": 193,
        "1998": 193,
        "1999": 148,
        "2000": 236,
        "2001": 107,
        "2002": 75,
        "2003": 123,
        "2004": 95,
        "2005": 98,
        "2006": 13,
        "2007": 68,
        "2008": 14,
        "2009": 215,
        "2010": 34,
        "2011": 134,
        "2012": 140,
        "2013": 210,
        "2014": 147,
        "2015": 210,
        "2016": 88,
        "2017": 208,
        "2018": 91,
        "2019": 108,
        "2020": 185,
        "2021": 217,
        "2022": 251,
        "2023": 197,
        "2024": 4,
        "2025": 237,
        "2026": 220,
        "2027": 212,
        "2028": 50,
        "2029": 135,
        "2030": 142,
        "2031": 26,
        "2032": 63,
        "2033": 150,
        "2034": 122,
        "2035": 107,
        "2036": 171,
        "2037": 117,
        "2038": 53,
        "2039": 201,
        "2040": 187,
        "2041": 69,
        "2042": 80,
        "2043": 115,
        "2044": 6,
        "2045": 158,
        "2046": 157,
        "2047": 148,
        "2048": 57,
        "2049": 29,
        "2050": 152,
        "2051": 191,
        "2052": 16,
        "2053": 86,
        "2054": 40,
        "2055": 130,
        "2056": 31,
        "2057": 22,
        "2058": 252,
        "2059": 132,
        "2060": 163,
        "2061": 246,
        "2062": 60,
        "2063": 129,
        "2064": 7,
        "2065": 12,
        "2066": 231,
        "2067": 28,
        "2068": 175,
        "2069": 44,
        "2070": 238,
        "2071": 77,
        "2072": 178,
        "2073": 92,
        "2074": 165,
        "2075": 82,
        "2076": 220,
        "2077": 86,
        "2078": 158,
        "2079": 181,
        "2080": 151,
        "2081": 166,
        "2082": 72,
        "2083": 245,
        "2084": 17,
        "2085": 65,
        "2086": 108,
        "2087": 111,
        "2088": 64,
        "2089": 171,
        "2090": 19,
        "2091": 103,
        "2092": 109,
        "2093": 230,
        "2094": 41,
        "2095": 169,
        "2096": 185,
        "2097": 187,
        "2098": 100,
        "2099": 185,
        "2100": 90,
        "2101": 29,
        "2102": 228,
        "2103": 115,
        "2104": 156,
        "2105": 88,
        "2106": 168,
        "2107": 228,
        "2108": 32,
        "2109": 142,
        "2110": 93,
        "2111": 62,
        "2112": 41,
        "2113": 232,
        "2114": 0,
        "2115": 117,
        "2116": 154,
        "2117": 178,
        "2118": 29,
        "2119": 93,
        "2120": 53,
        "2121": 158,
        "2122": 205,
        "2123": 228,
        "2124": 5,
        "2125": 38,
        "2126": 230,
        "2127": 191,
        "2128": 121,
        "2129": 10,
        "2130": 255,
        "2131": 69,
        "2132": 90,
        "2133": 216,
        "2134": 239,
        "2135": 35,
        "2136": 60,
        "2137": 86,
        "2138": 113,
        "2139": 12,
        "2140": 18,
        "2141": 23,
        "2142": 145,
        "2143": 87,
        "2144": 119,
        "2145": 17,
        "2146": 57,
        "2147": 135,
        "2148": 22,
        "2149": 229,
        "2150": 154,
        "2151": 58,
        "2152": 198,
        "2153": 51,
        "2154": 113,
        "2155": 109,
        "2156": 167,
        "2157": 18,
        "2158": 51,
        "2159": 70,
        "2160": 8,
        "2161": 246,
        "2162": 193,
        "2163": 3,
        "2164": 148,
        "2165": 39,
        "2166": 193,
        "2167": 70,
        "2168": 17,
        "2169": 62,
        "2170": 68,
        "2171": 166,
        "2172": 252,
        "2173": 133,
        "2174": 33,
        "2175": 222,
        "2176": 214,
        "2177": 152,
        "2178": 120,
        "2179": 35,
        "2180": 11,
        "2181": 50,
        "2182": 4,
        "2183": 80,
        "2184": 167,
        "2185": 186,
        "2186": 76,
        "2187": 119,
        "2188": 34,
        "2189": 157,
        "2190": 34,
        "2191": 198,
        "2192": 134,
        "2193": 244,
        "2194": 205,
        "2195": 145,
        "2196": 83,
        "2197": 165,
        "2198": 205,
        "2199": 165,
        "2200": 202,
        "2201": 29,
        "2202": 24,
        "2203": 172,
        "2204": 169,
        "2205": 235,
        "2206": 79,
        "2207": 250,
        "2208": 82,
        "2209": 141,
        "2210": 89,
        "2211": 209,
        "2212": 102,
        "2213": 155,
        "2214": 118,
        "2215": 225,
        "2216": 246,
        "2217": 199,
        "2218": 252,
        "2219": 233,
        "2220": 13,
        "2221": 199,
        "2222": 92,
        "2223": 40,
        "2224": 150,
        "2225": 31,
        "2226": 62,
        "2227": 71,
        "2228": 30,
        "2229": 32,
        "2230": 27,
        "2231": 101,
        "2232": 136,
        "2233": 51,
        "2234": 72,
        "2235": 102,
        "2236": 143,
        "2237": 112,
        "2238": 19,
        "2239": 226,
        "2240": 48,
        "2241": 112,
        "2242": 215,
        "2243": 120,
        "2244": 198,
        "2245": 89,
        "2246": 106,
        "2247": 97,
        "2248": 159,
        "2249": 71,
        "2250": 28,
        "2251": 30,
        "2252": 216,
        "2253": 247,
        "2254": 234,
        "2255": 181,
        "2256": 34,
        "2257": 105,
        "2258": 182,
        "2259": 88,
        "2260": 142,
        "2261": 83,
        "2262": 0,
        "2263": 43,
        "2264": 36,
        "2265": 173,
        "2266": 3,
        "2267": 210,
        "2268": 152,
        "2269": 126,
        "2270": 197,
        "2271": 251,
        "2272": 56,
        "2273": 253,
        "2274": 189,
        "2275": 82,
        "2276": 168,
        "2277": 199,
        "2278": 228,
        "2279": 149,
        "2280": 69,
        "2281": 8,
        "2282": 125,
        "2283": 176,
        "2284": 104,
        "2285": 43,
        "2286": 184,
        "2287": 247,
        "2288": 206,
        "2289": 46,
        "2290": 195,
        "2291": 61,
        "2292": 52,
        "2293": 137,
        "2294": 206,
        "2295": 174,
        "2296": 205,
        "2297": 228,
        "2298": 253,
        "2299": 166,
        "2300": 110,
        "2301": 53,
        "2302": 37,
        "2303": 243,
        "2304": 29,
        "2305": 22,
        "2306": 58,
        "2307": 98,
        "2308": 2,
        "2309": 66,
        "2310": 105,
        "2311": 47,
        "2312": 172,
        "2313": 46,
        "2314": 30,
        "2315": 77,
        "2316": 79,
        "2317": 164,
        "2318": 53,
        "2319": 158,
        "2320": 168,
        "2321": 207,
        "2322": 124,
        "2323": 165,
        "2324": 115,
        "2325": 81,
        "2326": 214,
        "2327": 171,
        "2328": 158,
        "2329": 244,
        "2330": 249,
        "2331": 117,
        "2332": 239,
        "2333": 137,
        "2334": 163,
        "2335": 67,
        "2336": 113,
        "2337": 211,
        "2338": 22,
        "2339": 142,
        "2340": 10,
        "2341": 209,
        "2342": 185,
        "2343": 197,
        "2344": 59,
        "2345": 220,
        "2346": 82,
        "2347": 108,
        "2348": 194,
        "2349": 121,
        "2350": 149,
        "2351": 33,
        "2352": 118,
        "2353": 66,
        "2354": 249,
        "2355": 122,
        "2356": 43,
        "2357": 54,
        "2358": 103,
        "2359": 59,
        "2360": 109,
        "2361": 32,
        "2362": 178,
        "2363": 137,
        "2364": 211,
        "2365": 211,
        "2366": 162,
        "2367": 138,
        "2368": 8,
        "2369": 160,
        "2370": 10,
        "2371": 103,
        "2372": 75,
        "2373": 67,
        "2374": 213,
        "2375": 130,
        "2376": 225,
        "2377": 41,
        "2378": 90,
        "2379": 135,
        "2380": 29,
        "2381": 26,
        "2382": 173,
        "2383": 25,
        "2384": 1,
        "2385": 111,
        "2386": 123,
        "2387": 157,
        "2388": 204,
        "2389": 254,
        "2390": 19,
        "2391": 12,
        "2392": 135,
        "2393": 19,
        "2394": 253,
        "2395": 225,
        "2396": 204,
        "2397": 173,
        "2398": 19,
        "2399": 52,
        "2400": 71,
        "2401": 149,
        "2402": 31,
        "2403": 211,
        "2404": 61,
        "2405": 109,
        "2406": 190,
        "2407": 88,
        "2408": 133,
        "2409": 229,
        "2410": 167,
        "2411": 204,
        "2412": 90,
        "2413": 46,
        "2414": 202,
        "2415": 238,
        "2416": 30,
        "2417": 17,
        "2418": 166,
        "2419": 178,
        "2420": 29,
        "2421": 59,
        "2422": 158,
        "2423": 13,
        "2424": 66,
        "2425": 101,
        "2426": 210,
        "2427": 170,
        "2428": 198,
        "2429": 13,
        "2430": 219,
        "2431": 238,
        "2432": 55,
        "2433": 142,
        "2434": 68,
        "2435": 215,
        "2436": 7,
        "2437": 230,
        "2438": 242,
        "2439": 71,
        "2440": 79,
        "2441": 143,
        "2442": 138,
        "2443": 98,
        "2444": 51,
        "2445": 32,
        "2446": 202,
        "2447": 143,
        "2448": 75,
        "2449": 83,
        "2450": 146,
        "2451": 125,
        "2452": 236,
        "2453": 244,
        "2454": 113,
        "2455": 233,
        "2456": 249,
        "2457": 61,
        "2458": 117,
        "2459": 175,
        "2460": 129,
        "2461": 244,
        "2462": 234,
        "2463": 12,
        "2464": 1,
        "2465": 233,
        "2466": 14,
        "2467": 172,
        "2468": 130,
        "2469": 17,
        "2470": 156,
        "2471": 26,
        "2472": 7,
        "2473": 239,
        "2474": 141,
        "2475": 15,
        "2476": 202,
        "2477": 34,
        "2478": 70,
        "2479": 112,
        "2480": 113,
        "2481": 192,
        "2482": 98,
        "2483": 33,
        "2484": 208,
        "2485": 139,
        "2486": 213,
        "2487": 179,
        "2488": 174,
        "2489": 193,
        "2490": 96,
        "2491": 148,
        "2492": 215,
        "2493": 20,
        "2494": 70,
        "2495": 145,
        "2496": 240,
        "2497": 38,
        "2498": 2,
        "2499": 139,
        "2500": 134,
        "2501": 86,
        "2502": 99,
        "2503": 14,
        "2504": 155,
        "2505": 193,
        "2506": 125,
        "2507": 214,
        "2508": 180,
        "2509": 25,
        "2510": 235,
        "2511": 189,
        "2512": 19,
        "2513": 187,
        "2514": 148,
        "2515": 64,
        "2516": 12,
        "2517": 15,
        "2518": 129,
        "2519": 213,
        "2520": 149,
        "2521": 7,
        "2522": 179,
        "2523": 111,
        "2524": 124,
        "2525": 184,
        "2526": 73,
        "2527": 114,
        "2528": 97,
        "2529": 20,
        "2530": 84,
        "2531": 254,
        "2532": 241,
        "2533": 47,
        "2534": 120,
        "2535": 149,
        "2536": 172,
        "2537": 181,
        "2538": 34,
        "2539": 81,
        "2540": 219,
        "2541": 71,
        "2542": 16,
        "2543": 82,
        "2544": 144,
        "2545": 221,
        "2546": 200,
        "2547": 113,
        "2548": 245,
        "2549": 223,
        "2550": 53,
        "2551": 171,
        "2552": 109,
        "2553": 99,
        "2554": 11,
        "2555": 204,
        "2556": 78,
        "2557": 214,
        "2558": 82,
        "2559": 179,
        "2560": 135,
        "2561": 172,
        "2562": 35,
        "2563": 133,
        "2564": 87,
        "2565": 244,
        "2566": 238,
        "2567": 206,
        "2568": 201,
        "2569": 81,
        "2570": 177,
        "2571": 8,
        "2572": 212,
        "2573": 138,
        "2574": 210,
        "2575": 163,
        "2576": 241,
        "2577": 142,
        "2578": 215,
        "2579": 10,
        "2580": 24,
        "2581": 85,
        "2582": 3,
        "2583": 179,
        "2584": 225,
        "2585": 93,
        "2586": 97,
        "2587": 79,
        "2588": 152,
        "2589": 121,
        "2590": 134,
        "2591": 197,
        "2592": 178,
        "2593": 141,
        "2594": 207,
        "2595": 168,
        "2596": 24,
        "2597": 44,
        "2598": 158,
        "2599": 57,
        "2600": 74,
        "2601": 6,
        "2602": 255,
        "2603": 102,
        "2604": 207,
        "2605": 223,
        "2606": 67,
        "2607": 89,
        "2608": 206,
        "2609": 63,
        "2610": 48,
        "2611": 157,
        "2612": 0,
        "2613": 72,
        "2614": 162,
        "2615": 67,
        "2616": 175,
        "2617": 110,
        "2618": 143,
        "2619": 10,
        "2620": 7,
        "2621": 54,
        "2622": 152,
        "2623": 237,
        "2624": 209,
        "2625": 122,
        "2626": 250,
        "2627": 37,
        "2628": 66,
        "2629": 14,
        "2630": 180,
        "2631": 209,
        "2632": 185,
        "2633": 171,
        "2634": 156,
        "2635": 117,
        "2636": 132,
        "2637": 121,
        "2638": 88,
        "2639": 24,
        "2640": 215,
        "2641": 215,
        "2642": 239,
        "2643": 4,
        "2644": 86,
        "2645": 227,
        "2646": 233,
        "2647": 86,
        "2648": 193,
        "2649": 212,
        "2650": 251,
        "2651": 12,
        "2652": 24,
        "2653": 178,
        "2654": 219,
        "2655": 248,
        "2656": 166,
        "2657": 64,
        "2658": 152,
        "2659": 115,
        "2660": 156,
        "2661": 212,
        "2662": 153,
        "2663": 198,
        "2664": 16,
        "2665": 57,
        "2666": 130,
        "2667": 212,
        "2668": 8,
        "2669": 153,
        "2670": 133,
        "2671": 99,
        "2672": 221,
        "2673": 139,
        "2674": 207,
        "2675": 223,
        "2676": 133,
        "2677": 243,
        "2678": 217,
        "2679": 36,
        "2680": 222,
        "2681": 153,
        "2682": 79,
        "2683": 77,
        "2684": 4,
        "2685": 206,
        "2686": 197,
        "2687": 65,
        "2688": 69,
        "2689": 125,
        "2690": 133,
        "2691": 73,
        "2692": 235,
        "2693": 77,
        "2694": 237,
        "2695": 154,
        "2696": 4,
        "2697": 207,
        "2698": 189,
        "2699": 72,
        "2700": 211,
        "2701": 93,
        "2702": 50,
        "2703": 79,
        "2704": 105,
        "2705": 64,
        "2706": 238,
        "2707": 68,
        "2708": 87,
        "2709": 185,
        "2710": 25,
        "2711": 68,
        "2712": 53,
        "2713": 20,
        "2714": 226,
        "2715": 134,
        "2716": 216,
        "2717": 230,
        "2718": 113,
        "2719": 87,
        "2720": 143,
        "2721": 213,
        "2722": 9,
        "2723": 7,
        "2724": 21,
        "2725": 21,
        "2726": 113,
        "2727": 125,
        "2728": 238,
        "2729": 191,
        "2730": 154,
        "2731": 214,
        "2732": 195,
        "2733": 3,
        "2734": 250,
        "2735": 40,
        "2736": 148,
        "2737": 3,
        "2738": 115,
        "2739": 9,
        "2740": 240,
        "2741": 98,
        "2742": 20,
        "2743": 192,
        "2744": 45,
        "2745": 26,
        "2746": 158,
        "2747": 111,
        "2748": 171,
        "2749": 160,
        "2750": 48,
        "2751": 97,
        "2752": 158,
        "2753": 88,
        "2754": 163,
        "2755": 7,
        "2756": 80,
        "2757": 2,
        "2758": 48,
        "2759": 76,
        "2760": 89,
        "2761": 94,
        "2762": 3,
        "2763": 244,
        "2764": 80,
        "2765": 120,
        "2766": 28,
        "2767": 133,
        "2768": 30,
        "2769": 34,
        "2770": 76,
        "2771": 11,
        "2772": 86,
        "2773": 239,
        "2774": 25,
        "2775": 184,
        "2776": 42,
        "2777": 56,
        "2778": 54,
        "2779": 100,
        "2780": 208,
        "2781": 231,
        "2782": 139,
        "2783": 55,
        "2784": 171,
        "2785": 57,
        "2786": 14,
        "2787": 226,
        "2788": 77,
        "2789": 64,
        "2790": 133,
        "2791": 119,
        "2792": 85,
        "2793": 4,
        "2794": 169,
        "2795": 240,
        "2796": 29,
        "2797": 127,
        "2798": 236,
        "2799": 179,
        "2800": 218,
        "2801": 127,
        "2802": 76,
        "2803": 153,
        "2804": 246,
        "2805": 192,
        "2806": 230,
        "2807": 70,
        "2808": 181,
        "2809": 183,
        "2810": 216,
        "2811": 105,
        "2812": 135,
        "2813": 17,
        "2814": 231,
        "2815": 198,
        "2816": 230,
        "2817": 150,
        "2818": 94,
        "2819": 59,
        "2820": 125,
        "2821": 106,
        "2822": 134,
        "2823": 146,
        "2824": 193,
        "2825": 255,
        "2826": 232,
        "2827": 36,
        "2828": 122,
        "2829": 225,
        "2830": 193,
        "2831": 38,
        "2832": 206,
        "2833": 117,
        "2834": 183,
        "2835": 144,
        "2836": 7,
        "2837": 106,
        "2838": 225,
        "2839": 16,
        "2840": 158,
        "2841": 15,
        "2842": 236,
        "2843": 150,
        "2844": 178,
        "2845": 105,
        "2846": 167,
        "2847": 94,
        "2848": 70,
        "2849": 95,
        "2850": 30,
        "2851": 231,
        "2852": 205,
        "2853": 189,
        "2854": 98,
        "2855": 124,
        "2856": 66,
        "2857": 28,
        "2858": 163,
        "2859": 93,
        "2860": 76,
        "2861": 169,
        "2862": 220,
        "2863": 54,
        "2864": 80,
        "2865": 94,
        "2866": 5,
        "2867": 106,
        "2868": 56,
        "2869": 177,
        "2870": 254,
        "2871": 123,
        "2872": 81,
        "2873": 152,
        "2874": 42,
        "2875": 64,
        "2876": 32,
        "2877": 96,
        "2878": 184,
        "2879": 31,
        "2880": 180,
        "2881": 117,
        "2882": 213,
        "2883": 113,
        "2884": 8,
        "2885": 20,
        "2886": 6,
        "2887": 219,
        "2888": 89,
        "2889": 148,
        "2890": 247,
        "2891": 236,
        "2892": 14,
        "2893": 114,
        "2894": 93,
        "2895": 134,
        "2896": 183,
        "2897": 202,
        "2898": 188,
        "2899": 57,
        "2900": 153,
        "2901": 206,
        "2902": 183,
        "2903": 179,
        "2904": 165,
        "2905": 19,
        "2906": 58,
        "2907": 183,
        "2908": 116,
        "2909": 108,
        "2910": 148,
        "2911": 249,
        "2912": 160,
        "2913": 168,
        "2914": 60,
        "2915": 181,
        "2916": 38,
        "2917": 231,
        "2918": 204,
        "2919": 25,
        "2920": 134,
        "2921": 44,
        "2922": 26,
        "2923": 49,
        "2924": 71,
        "2925": 225,
        "2926": 52,
        "2927": 53,
        "2928": 17,
        "2929": 100,
        "2930": 196,
        "2931": 175,
        "2932": 158,
        "2933": 154,
        "2934": 26,
        "2935": 72,
        "2936": 234,
        "2937": 124,
        "2938": 194,
        "2939": 222,
        "2940": 217,
        "2941": 106,
        "2942": 39,
        "2943": 248,
        "2944": 100,
        "2945": 140,
        "2946": 7,
        "2947": 245,
        "2948": 207,
        "2949": 143,
        "2950": 156,
        "2951": 209,
        "2952": 211,
        "2953": 212,
        "2954": 95,
        "2955": 112,
        "2956": 51,
        "2957": 143,
        "2958": 213,
        "2959": 122,
        "2960": 122,
        "2961": 52,
        "2962": 31,
        "2963": 244,
        "2964": 224,
        "2965": 92,
        "2966": 165,
        "2967": 146,
        "2968": 159,
        "2969": 199,
        "2970": 60,
        "2971": 174,
        "2972": 25,
        "2973": 167,
        "2974": 222,
        "2975": 7,
        "2976": 146,
        "2977": 155,
        "2978": 115,
        "2979": 23,
        "2980": 45,
        "2981": 47,
        "2982": 247,
        "2983": 64,
        "2984": 23,
        "2985": 18,
        "2986": 114,
        "2987": 170,
        "2988": 85,
        "2989": 225,
        "2990": 115,
        "2991": 140,
        "2992": 19,
        "2993": 22,
        "2994": 153,
        "2995": 16,
        "2996": 251,
        "2997": 237,
        "2998": 166,
        "2999": 103,
        "3000": 208,
        "3001": 147,
        "3002": 174,
        "3003": 49,
        "3004": 151,
        "3005": 151,
        "3006": 216,
        "3007": 218,
        "3008": 6,
        "3009": 65,
        "3010": 10,
        "3011": 195,
        "3012": 148,
        "3013": 205,
        "3014": 185,
        "3015": 151,
        "3016": 79,
        "3017": 185,
        "3018": 90,
        "3019": 22,
        "3020": 189,
        "3021": 6,
        "3022": 198,
        "3023": 168,
        "3024": 143,
        "3025": 131,
        "3026": 1,
        "3027": 55,
        "3028": 235,
        "3029": 112,
        "3030": 101,
        "3031": 133,
        "3032": 99,
        "3033": 77,
        "3034": 174,
        "3035": 43,
        "3036": 51,
        "3037": 215,
        "3038": 96,
        "3039": 155,
        "3040": 150,
        "3041": 164,
        "3042": 167,
        "3043": 205,
        "3044": 137,
        "3045": 76,
        "3046": 100,
        "3047": 71,
        "3048": 243,
        "3049": 132,
        "3050": 140,
        "3051": 116,
        "3052": 0,
        "3053": 195,
        "3054": 107,
        "3055": 174,
        "3056": 208,
        "3057": 137,
        "3058": 41,
        "3059": 151,
        "3060": 112,
        "3061": 223,
        "3062": 173,
        "3063": 68,
        "3064": 151,
        "3065": 35,
        "3066": 99,
        "3067": 59,
        "3068": 212,
        "3069": 130,
        "3070": 129,
        "3071": 11,
        "3072": 58,
        "3073": 172,
        "3074": 46,
        "3075": 22,
        "3076": 147,
        "3077": 101,
        "3078": 107,
        "3079": 102,
        "3080": 157,
        "3081": 231,
        "3082": 131,
        "3083": 250,
        "3084": 120,
        "3085": 204,
        "3086": 250,
        "3087": 39,
        "3088": 243,
        "3089": 45,
        "3090": 241,
        "3091": 33,
        "3092": 234,
        "3093": 5,
        "3094": 0,
        "3095": 251,
        "3096": 57,
        "3097": 15,
        "3098": 32,
        "3099": 87,
        "3100": 26,
        "3101": 28,
        "3102": 209,
        "3103": 163,
        "3104": 56,
        "3105": 126,
        "3106": 35,
        "3107": 225,
        "3108": 46,
        "3109": 220,
        "3110": 189,
        "3111": 9,
        "3112": 102,
        "3113": 231,
        "3114": 153,
        "3115": 60,
        "3116": 250,
        "3117": 237,
        "3118": 164,
        "3119": 46,
        "3120": 253,
        "3121": 221,
        "3122": 19,
        "3123": 135,
        "3124": 54,
        "3125": 55,
        "3126": 172,
        "3127": 57,
        "3128": 222,
        "3129": 171,
        "3130": 125,
        "3131": 15,
        "3132": 7,
        "3133": 95,
        "3134": 129,
        "3135": 51,
        "3136": 103,
        "3137": 65,
        "3138": 126,
        "3139": 163,
        "3140": 230,
        "3141": 76,
        "3142": 58,
        "3143": 161,
        "3144": 9,
        "3145": 127,
        "3146": 50,
        "3147": 103,
        "3148": 180,
        "3149": 179,
        "3150": 151,
        "3151": 3,
        "3152": 171,
        "3153": 208,
        "3154": 119,
        "3155": 50,
        "3156": 201,
        "3157": 152,
        "3158": 24,
        "3159": 222,
        "3160": 113,
        "3161": 240,
        "3162": 127,
        "3163": 151,
        "3164": 223,
        "3165": 199,
        "3166": 146,
        "3167": 248,
        "3168": 3,
        "3169": 130,
        "3170": 205,
        "3171": 237,
        "3172": 97,
        "3173": 222,
        "3174": 253,
        "3175": 151,
        "3176": 174,
        "3177": 2,
        "3178": 94,
        "3179": 10,
        "3180": 228,
        "3181": 220,
        "3182": 254,
        "3183": 66,
        "3184": 88,
        "3185": 225,
        "3186": 44,
        "3187": 95,
        "3188": 55,
        "3189": 22,
        "3190": 21,
        "3191": 127,
        "3192": 9,
        "3193": 234,
        "3194": 247,
        "3195": 130,
        "3196": 84,
        "3197": 211,
        "3198": 45,
        "3199": 203,
        "3200": 236,
        "3201": 51,
        "3202": 192,
        "3203": 188,
        "3204": 120,
        "3205": 157,
        "3206": 19,
        "3207": 44,
        "3208": 184,
        "3209": 45,
        "3210": 91,
        "3211": 132,
        "3212": 62,
        "3213": 11,
        "3214": 101,
        "3215": 250,
        "3216": 247,
        "3217": 241,
        "3218": 180,
        "3219": 130,
        "3220": 108,
        "3221": 254,
        "3222": 87,
        "3223": 23,
        "3224": 33,
        "3225": 68,
        "3226": 169,
        "3227": 79,
        "3228": 188,
        "3229": 138,
        "3230": 125,
        "3231": 116,
        "3232": 212,
        "3233": 13,
        "3234": 77,
        "3235": 118,
        "3236": 82,
        "3237": 83,
        "3238": 165,
        "3239": 56,
        "3240": 37,
        "3241": 117,
        "3242": 203,
        "3243": 112,
        "3244": 242,
        "3245": 42,
        "3246": 189,
        "3247": 58,
        "3248": 167,
        "3249": 124,
        "3250": 99,
        "3251": 214,
        "3252": 60,
        "3253": 171,
        "3254": 49,
        "3255": 151,
        "3256": 142,
        "3257": 128,
        "3258": 13,
        "3259": 12,
        "3260": 163,
        "3261": 162,
        "3262": 201,
        "3263": 33,
        "3264": 24,
        "3265": 152,
        "3266": 68,
        "3267": 204,
        "3268": 213,
        "3269": 237,
        "3270": 157,
        "3271": 244,
        "3272": 99,
        "3273": 226,
        "3274": 85,
        "3275": 188,
        "3276": 131,
        "3277": 147,
        "3278": 110,
        "3279": 25,
        "3280": 44,
        "3281": 51,
        "3282": 148,
        "3283": 4,
        "3284": 199,
        "3285": 121,
        "3286": 36,
        "3287": 184,
        "3288": 136,
        "3289": 153,
        "3290": 37,
        "3291": 196,
        "3292": 161,
        "3293": 145,
        "3294": 240,
        "3295": 156,
        "3296": 220,
        "3297": 245,
        "3298": 218,
        "3299": 13,
        "3300": 157,
        "3301": 48,
        "3302": 107,
        "3303": 244,
        "3304": 158,
        "3305": 167,
        "3306": 160,
        "3307": 71,
        "3308": 10,
        "3309": 3,
        "3310": 193,
        "3311": 76,
        "3312": 143,
        "3313": 175,
        "3314": 15,
        "3315": 161,
        "3316": 105,
        "3317": 206,
        "3318": 1,
        "3319": 29,
        "3320": 135,
        "3321": 155,
        "3322": 0,
        "3323": 187,
        "3324": 47,
        "3325": 150,
        "3326": 5,
        "3327": 97,
        "3328": 14,
        "3329": 82,
        "3330": 196,
        "3331": 126,
        "3332": 165,
        "3333": 168,
        "3334": 232,
        "3335": 222,
        "3336": 21,
        "3337": 69,
        "3338": 177,
        "3339": 56,
        "3340": 250,
        "3341": 23,
        "3342": 171,
        "3343": 119,
        "3344": 75,
        "3345": 198,
        "3346": 214,
        "3347": 79,
        "3348": 196,
        "3349": 169,
        "3350": 220,
        "3351": 7,
        "3352": 247,
        "3353": 152,
        "3354": 201,
        "3355": 55,
        "3356": 111,
        "3357": 199,
        "3358": 31,
        "3359": 187,
        "3360": 122,
        "3361": 151,
        "3362": 184,
        "3363": 122,
        "3364": 92,
        "3365": 16,
        "3366": 59,
        "3367": 4,
        "3368": 100,
        "3369": 214,
        "3370": 172,
        "3371": 212,
        "3372": 171,
        "3373": 115,
        "3374": 8,
        "3375": 237,
        "3376": 112,
        "3377": 94,
        "3378": 14,
        "3379": 162,
        "3380": 53,
        "3381": 140,
        "3382": 224,
        "3383": 176,
        "3384": 47,
        "3385": 69,
        "3386": 98,
        "3387": 78,
        "3388": 239,
        "3389": 230,
        "3390": 170,
        "3391": 143,
        "3392": 174,
        "3393": 151,
        "3394": 187,
        "3395": 109,
        "3396": 238,
        "3397": 227,
        "3398": 238,
        "3399": 141,
        "3400": 163,
        "3401": 41,
        "3402": 135,
        "3403": 18,
        "3404": 144,
        "3405": 218,
        "3406": 193,
        "3407": 168,
        "3408": 24,
        "3409": 145,
        "3410": 169,
        "3411": 226,
        "3412": 105,
        "3413": 110,
        "3414": 187,
        "3415": 32,
        "3416": 190,
        "3417": 2,
        "3418": 127,
        "3419": 112,
        "3420": 81,
        "3421": 216,
        "3422": 90,
        "3423": 86,
        "3424": 245,
        "3425": 207,
        "3426": 241,
        "3427": 44,
        "3428": 61,
        "3429": 182,
        "3430": 115,
        "3431": 115,
        "3432": 164,
        "3433": 45,
        "3434": 21,
        "3435": 229,
        "3436": 200,
        "3437": 30,
        "3438": 32,
        "3439": 66,
        "3440": 136,
        "3441": 21,
        "3442": 148,
        "3443": 171,
        "3444": 3,
        "3445": 30,
        "3446": 184,
        "3447": 23,
        "3448": 237,
        "3449": 230,
        "3450": 194,
        "3451": 135,
        "3452": 177,
        "3453": 154,
        "3454": 21,
        "3455": 141,
        "3456": 216,
        "3457": 112,
        "3458": 177,
        "3459": 227,
        "3460": 1,
        "3461": 36,
        "3462": 122,
        "3463": 77,
        "3464": 194,
        "3465": 194,
        "3466": 76,
        "3467": 123,
        "3468": 166,
        "3469": 56,
        "3470": 133,
        "3471": 79,
        "3472": 151,
        "3473": 147,
        "3474": 80,
        "3475": 83,
        "3476": 147,
        "3477": 126,
        "3478": 42,
        "3479": 214,
        "3480": 119,
        "3481": 136,
        "3482": 215,
        "3483": 129,
        "3484": 96,
        "3485": 240,
        "3486": 16,
        "3487": 21,
        "3488": 8,
        "3489": 172,
        "3490": 91,
        "3491": 90,
        "3492": 174,
        "3493": 6,
        "3494": 219,
        "3495": 115,
        "3496": 172,
        "3497": 124,
        "3498": 221,
        "3499": 234,
        "3500": 246,
        "3501": 193,
        "3502": 209,
        "3503": 142,
        "3504": 183,
        "3505": 161,
        "3506": 27,
        "3507": 128,
        "3508": 40,
        "3509": 189,
        "3510": 99,
        "3511": 7,
        "3512": 64,
        "3513": 79,
        "3514": 1,
        "3515": 238,
        "3516": 97,
        "3517": 214,
        "3518": 58,
        "3519": 219,
        "3520": 131,
        "3521": 99,
        "3522": 115,
        "3523": 59,
        "3524": 149,
        "3525": 53,
        "3526": 152,
        "3527": 82,
        "3528": 226,
        "3529": 35,
        "3530": 211,
        "3531": 207,
        "3532": 75,
        "3533": 24,
        "3534": 192,
        "3535": 89,
        "3536": 149,
        "3537": 123,
        "3538": 233,
        "3539": 97,
        "3540": 107,
        "3541": 177,
        "3542": 98,
        "3543": 73,
        "3544": 225,
        "3545": 154,
        "3546": 32,
        "3547": 87,
        "3548": 102,
        "3549": 17,
        "3550": 7,
        "3551": 144,
        "3552": 140,
        "3553": 62,
        "3554": 250,
        "3555": 24,
        "3556": 10,
        "3557": 162,
        "3558": 243,
        "3559": 63,
        "3560": 124,
        "3561": 186,
        "3562": 99,
        "3563": 161,
        "3564": 117,
        "3565": 213,
        "3566": 128,
        "3567": 224,
        "3568": 78,
        "3569": 81,
        "3570": 94,
        "3571": 253,
        "3572": 179,
        "3573": 144,
        "3574": 19,
        "3575": 190,
        "3576": 241,
        "3577": 196,
        "3578": 229,
        "3579": 8,
        "3580": 188,
        "3581": 118,
        "3582": 23,
        "3583": 7,
        "3584": 166,
        "3585": 9,
        "3586": 51,
        "3587": 161,
        "3588": 251,
        "3589": 13,
        "3590": 155,
        "3591": 115,
        "3592": 210,
        "3593": 228,
        "3594": 123,
        "3595": 63,
        "3596": 135,
        "3597": 36,
        "3598": 53,
        "3599": 144,
        "3600": 74,
        "3601": 242,
        "3602": 158,
        "3603": 52,
        "3604": 66,
        "3605": 225,
        "3606": 70,
        "3607": 47,
        "3608": 181,
        "3609": 228,
        "3610": 152,
        "3611": 37,
        "3612": 49,
        "3613": 215,
        "3614": 206,
        "3615": 146,
        "3616": 11,
        "3617": 29,
        "3618": 100,
        "3619": 2,
        "3620": 170,
        "3621": 118,
        "3622": 232,
        "3623": 241,
        "3624": 143,
        "3625": 21,
        "3626": 148,
        "3627": 88,
        "3628": 42,
        "3629": 250,
        "3630": 69,
        "3631": 215,
        "3632": 249,
        "3633": 201,
        "3634": 60,
        "3635": 33,
        "3636": 118,
        "3637": 68,
        "3638": 103,
        "3639": 180,
        "3640": 206,
        "3641": 164,
        "3642": 24,
        "3643": 242,
        "3644": 15,
        "3645": 9,
        "3646": 182,
        "3647": 223,
        "3648": 211,
        "3649": 75,
        "3650": 3,
        "3651": 22,
        "3652": 21,
        "3653": 191,
        "3654": 78,
        "3655": 176,
        "3656": 84,
        "3657": 115,
        "3658": 99,
        "3659": 250,
        "3660": 169,
        "3661": 4,
        "3662": 20,
        "3663": 34,
        "3664": 137,
        "3665": 211,
        "3666": 120,
        "3667": 12,
        "3668": 235,
        "3669": 20,
        "3670": 30,
        "3671": 71,
        "3672": 58,
        "3673": 133,
        "3674": 191,
        "3675": 14,
        "3676": 223,
        "3677": 217,
        "3678": 5,
        "3679": 71,
        "3680": 171,
        "3681": 177,
        "3682": 203,
        "3683": 151,
        "3684": 143,
        "3685": 233,
        "3686": 8,
        "3687": 211,
        "3688": 214,
        "3689": 18,
        "3690": 12,
        "3691": 139,
        "3692": 154,
        "3693": 134,
        "3694": 229,
        "3695": 197,
        "3696": 41,
        "3697": 22,
        "3698": 228,
        "3699": 100,
        "3700": 93,
        "3701": 17,
        "3702": 129,
        "3703": 115,
        "3704": 247,
        "3705": 108,
        "3706": 25,
        "3707": 109,
        "3708": 95,
        "3709": 81,
        "3710": 240,
        "3711": 231,
        "3712": 58,
        "3713": 129,
        "3714": 215,
        "3715": 209,
        "3716": 159,
        "3717": 14,
        "3718": 176,
        "3719": 105,
        "3720": 113,
        "3721": 78,
        "3722": 110,
        "3723": 84,
        "3724": 163,
        "3725": 243,
        "3726": 153,
        "3727": 18,
        "3728": 119,
        "3729": 120,
        "3730": 241,
        "3731": 174,
        "3732": 78,
        "3733": 23,
        "3734": 160,
        "3735": 190,
        "3736": 2,
        "3737": 233,
        "3738": 40,
        "3739": 32,
        "3740": 105,
        "3741": 4,
        "3742": 23,
        "3743": 13,
        "3744": 37,
        "3745": 222,
        "3746": 24,
        "3747": 23,
        "3748": 69,
        "3749": 231,
        "3750": 36,
        "3751": 118,
        "3752": 86,
        "3753": 139,
        "3754": 174,
        "3755": 36,
        "3756": 207,
        "3757": 216,
        "3758": 187,
        "3759": 247,
        "3760": 188,
        "3761": 156,
        "3762": 190,
        "3763": 21,
        "3764": 113,
        "3765": 154,
        "3766": 0,
        "3767": 88,
        "3768": 160,
        "3769": 1,
        "3770": 65,
        "3771": 173,
        "3772": 247,
        "3773": 221,
        "3774": 27,
        "3775": 190,
        "3776": 223,
        "3777": 0,
        "3778": 213,
        "3779": 90,
        "3780": 61,
        "3781": 1,
        "3782": 207,
        "3783": 176,
        "3784": 242,
        "3785": 189,
        "3786": 126,
        "3787": 249,
        "3788": 127,
        "3789": 58,
        "3790": 194,
        "3791": 42,
        "3792": 79,
        "3793": 228,
        "3794": 226,
        "3795": 80,
        "3796": 200,
        "3797": 189,
        "3798": 149,
        "3799": 107,
        "3800": 128,
        "3801": 222,
        "3802": 51,
        "3803": 143,
        "3804": 242,
        "3805": 87,
        "3806": 156,
        "3807": 222,
        "3808": 28,
        "3809": 205,
        "3810": 200,
        "3811": 109,
        "3812": 5,
        "3813": 165,
        "3814": 148,
        "3815": 208,
        "3816": 210,
        "3817": 97,
        "3818": 171,
        "3819": 232,
        "3820": 174,
        "3821": 235,
        "3822": 84,
        "3823": 8,
        "3824": 135,
        "3825": 224,
        "3826": 101,
        "3827": 200,
        "3828": 37,
        "3829": 64,
        "3830": 25,
        "3831": 123,
        "3832": 45,
        "3833": 128,
        "3834": 106,
        "3835": 129,
        "3836": 2,
        "3837": 236,
        "3838": 200,
        "3839": 95,
        "3840": 50,
        "3841": 24,
        "3842": 151,
        "3843": 248,
        "3844": 18,
        "3845": 125,
        "3846": 129,
        "3847": 201,
        "3848": 16,
        "3849": 62,
        "3850": 210,
        "3851": 201,
        "3852": 212,
        "3853": 247,
        "3854": 47,
        "3855": 176,
        "3856": 79,
        "3857": 19,
        "3858": 195,
        "3859": 240,
        "3860": 156,
        "3861": 64,
        "3862": 255,
        "3863": 183,
        "3864": 127,
        "3865": 231,
        "3866": 199,
        "3867": 134,
        "3868": 191,
        "3869": 204,
        "3870": 168,
        "3871": 223,
        "3872": 221,
        "3873": 255,
        "3874": 82,
        "3875": 244,
        "3876": 36,
        "3877": 46,
        "3878": 225,
        "3879": 41,
        "3880": 231,
        "3881": 154,
        "3882": 110,
        "3883": 198,
        "3884": 22,
        "3885": 100,
        "3886": 206,
        "3887": 176,
        "3888": 233,
        "3889": 169,
        "3890": 179,
        "3891": 235,
        "3892": 153,
        "3893": 81,
        "3894": 177,
        "3895": 4,
        "3896": 31,
        "3897": 14,
        "3898": 78,
        "3899": 107,
        "3900": 225,
        "3901": 148,
        "3902": 161,
        "3903": 100,
        "3904": 149,
        "3905": 164,
        "3906": 153,
        "3907": 131,
        "3908": 205,
        "3909": 237,
        "3910": 113,
        "3911": 153,
        "3912": 97,
        "3913": 172,
        "3914": 119,
        "3915": 201,
        "3916": 156,
        "3917": 89,
        "3918": 118,
        "3919": 221,
        "3920": 229,
        "3921": 168,
        "3922": 28,
        "3923": 21,
        "3924": 159,
        "3925": 253,
        "3926": 99,
        "3927": 26,
        "3928": 17,
        "3929": 83,
        "3930": 250,
        "3931": 233,
        "3932": 75,
        "3933": 228,
        "3934": 184,
        "3935": 125,
        "3936": 8,
        "3937": 45,
        "3938": 62,
        "3939": 148,
        "3940": 41,
        "3941": 114,
        "3942": 65,
        "3943": 100,
        "3944": 245,
        "3945": 213,
        "3946": 62,
        "3947": 164,
        "3948": 156,
        "3949": 97,
        "3950": 249,
        "3951": 165,
        "3952": 247,
        "3953": 240,
        "3954": 120,
        "3955": 109,
        "3956": 25,
        "3957": 157,
        "3958": 154,
        "3959": 126,
        "3960": 133,
        "3961": 37,
        "3962": 62,
        "3963": 22,
        "3964": 193,
        "3965": 100,
        "3966": 83,
        "3967": 116,
        "3968": 40,
        "3969": 57,
        "3970": 139,
        "3971": 140,
        "3972": 158,
        "3973": 230,
        "3974": 106,
        "3975": 48,
        "3976": 188,
        "3977": 55,
        "3978": 99,
        "3979": 132,
        "3980": 117,
        "3981": 91,
        "3982": 220,
        "3983": 144,
        "3984": 242,
        "3985": 236,
        "3986": 187,
        "3987": 198,
        "3988": 249,
        "3989": 10,
        "3990": 101,
        "3991": 10,
        "3992": 242,
        "3993": 205,
        "3994": 252,
        "3995": 57,
        "3996": 151,
        "3997": 98,
        "3998": 184,
        "3999": 56,
        "4000": 116,
        "4001": 15,
        "4002": 112,
        "4003": 254,
        "4004": 90,
        "4005": 185,
        "4006": 69,
        "4007": 127,
        "4008": 107,
        "4009": 49,
        "4010": 120,
        "4011": 99,
        "4012": 242,
        "4013": 221,
        "4014": 39,
        "4015": 79,
        "4016": 36,
        "4017": 221,
        "4018": 232,
        "4019": 232,
        "4020": 7,
        "4021": 17,
        "4022": 77,
        "4023": 235,
        "4024": 117,
        "4025": 96,
        "4026": 183,
        "4027": 44,
        "4028": 64,
        "4029": 109,
        "4030": 251,
        "4031": 12,
        "4032": 88,
        "4033": 135,
        "4034": 23,
        "4035": 55,
        "4036": 212,
        "4037": 165,
        "4038": 28,
        "4039": 161,
        "4040": 214,
        "4041": 198,
        "4042": 157,
        "4043": 187,
        "4044": 160,
        "4045": 34,
        "4046": 8,
        "4047": 232,
        "4048": 123,
        "4049": 59,
        "4050": 193,
        "4051": 107,
        "4052": 16,
        "4053": 218,
        "4054": 56,
        "4055": 105,
        "4056": 147,
        "4057": 136,
        "4058": 105,
        "4059": 76,
        "4060": 60,
        "4061": 178,
        "4062": 109,
        "4063": 95,
        "4064": 145,
        "4065": 188,
        "4066": 21,
        "4067": 176,
        "4068": 193,
        "4069": 172,
        "4070": 76,
        "4071": 132,
        "4072": 113,
        "4073": 183,
        "4074": 191,
        "4075": 178,
        "4076": 146,
        "4077": 141,
        "4078": 72,
        "4079": 88,
        "4080": 36,
        "4081": 144,
        "4082": 180,
        "4083": 130,
        "4084": 104,
        "4085": 249,
        "4086": 57,
        "4087": 187,
        "4088": 63,
        "4089": 181,
        "4090": 249,
        "4091": 137,
        "4092": 203,
        "4093": 79,
        "4094": 186,
        "4095": 236,
        "4096": 31,
        "4097": 6,
        "4098": 39,
        "4099": 17,
        "4100": 195,
        "4101": 31,
        "4102": 164,
        "4103": 218,
        "4104": 16,
        "4105": 252,
        "4106": 235,
        "4107": 53,
        "4108": 7,
        "4109": 93,
        "4110": 36,
        "4111": 113,
        "4112": 255,
        "4113": 231,
        "4114": 176,
        "4115": 89,
        "4116": 249,
        "4117": 250,
        "4118": 59,
        "4119": 209,
        "4120": 76,
        "4121": 11,
        "4122": 254,
        "4123": 49,
        "4124": 148,
        "4125": 129,
        "4126": 105,
        "4127": 189,
        "4128": 0,
        "4129": 199,
        "4130": 192,
        "4131": 237,
        "4132": 231,
        "4133": 214,
        "4134": 178,
        "4135": 240,
        "4136": 28,
        "4137": 22,
        "4138": 131,
        "4139": 7,
        "4140": 77,
        "4141": 201,
        "4142": 212,
        "4143": 50,
        "4144": 19,
        "4145": 237,
        "4146": 199,
        "4147": 241,
        "4148": 205,
        "4149": 220,
        "4150": 7,
        "4151": 234,
        "4152": 230,
        "4153": 117,
        "4154": 52,
        "4155": 210,
        "4156": 227,
        "4157": 172,
        "4158": 36,
        "4159": 120,
        "4160": 40,
        "4161": 199,
        "4162": 255,
        "4163": 152,
        "4164": 166,
        "4165": 81,
        "4166": 130,
        "4167": 81,
        "4168": 82,
        "4169": 88,
        "4170": 197,
        "4171": 232,
        "4172": 245,
        "4173": 178,
        "4174": 185,
        "4175": 174,
        "4176": 37,
        "4177": 252,
        "4178": 66,
        "4179": 156,
        "4180": 14,
        "4181": 84,
        "4182": 126,
        "4183": 33,
        "4184": 83,
        "4185": 151,
        "4186": 145,
        "4187": 130,
        "4188": 92,
        "4189": 85,
        "4190": 43,
        "4191": 206,
        "4192": 138,
        "4193": 162,
        "4194": 48,
        "4195": 54,
        "4196": 248,
        "4197": 66,
        "4198": 155,
        "4199": 79,
        "4200": 25,
        "4201": 67,
        "4202": 192,
        "4203": 35,
        "4204": 9,
        "4205": 85,
        "4206": 77,
        "4207": 216,
        "4208": 18,
        "4209": 25,
        "4210": 87,
        "4211": 18,
        "4212": 15,
        "4213": 102,
        "4214": 254,
        "4215": 192,
        "4216": 123,
        "4217": 11,
        "4218": 214,
        "4219": 13,
        "4220": 176,
        "4221": 205,
        "4222": 84,
        "4223": 9,
        "4224": 100,
        "4225": 97,
        "4226": 221,
        "4227": 73,
        "4228": 26,
        "4229": 47,
        "4230": 69,
        "4231": 213,
        "4232": 174,
        "4233": 82,
        "4234": 246,
        "4235": 177,
        "4236": 67,
        "4237": 126,
        "4238": 38,
        "4239": 37,
        "4240": 2,
        "4241": 70,
        "4242": 247,
        "4243": 146,
        "4244": 176,
        "4245": 254,
        "4246": 129,
        "4247": 53,
        "4248": 87,
        "4249": 155,
        "4250": 53,
        "4251": 139,
        "4252": 150,
        "4253": 76,
        "4254": 29,
        "4255": 253,
        "4256": 211,
        "4257": 197,
        "4258": 33,
        "4259": 195,
        "4260": 84,
        "4261": 69,
        "4262": 171,
        "4263": 140,
        "4264": 116,
        "4265": 57,
        "4266": 141,
        "4267": 125,
        "4268": 49,
        "4269": 243,
        "4270": 15,
        "4271": 40,
        "4272": 149,
        "4273": 11,
        "4274": 81,
        "4275": 212,
        "4276": 174,
        "4277": 100,
        "4278": 216,
        "4279": 90,
        "4280": 86,
        "4281": 94,
        "4282": 80,
        "4283": 4,
        "4284": 123,
        "4285": 248,
        "4286": 199,
        "4287": 243,
        "4288": 129,
        "4289": 45,
        "4290": 239,
        "4291": 170,
        "4292": 84,
        "4293": 203,
        "4294": 247,
        "4295": 144,
        "4296": 142,
        "4297": 207,
        "4298": 212,
        "4299": 158,
        "4300": 190,
        "4301": 186,
        "4302": 77,
        "4303": 164,
        "4304": 46,
        "4305": 21,
        "4306": 216,
        "4307": 216,
        "4308": 135,
        "4309": 76,
        "4310": 221,
        "4311": 152,
        "4312": 211,
        "4313": 74,
        "4314": 123,
        "4315": 145,
        "4316": 123,
        "4317": 31,
        "4318": 123,
        "4319": 125,
        "4320": 252,
        "4321": 6,
        "4322": 94,
        "4323": 4,
        "4324": 28,
        "4325": 16,
        "4326": 36,
        "4327": 168,
        "4328": 122,
        "4329": 133,
        "4330": 95,
        "4331": 86,
        "4332": 56,
        "4333": 19,
        "4334": 172,
        "4335": 157,
        "4336": 42,
        "4337": 89,
        "4338": 252,
        "4339": 51,
        "4340": 250,
        "4341": 237,
        "4342": 63,
        "4343": 182,
        "4344": 120,
        "4345": 170,
        "4346": 89,
        "4347": 2,
        "4348": 120,
        "4349": 226,
        "4350": 99,
        "4351": 127,
        "4352": 241,
        "4353": 247,
        "4354": 12,
        "4355": 192,
        "4356": 140,
        "4357": 245,
        "4358": 206,
        "4359": 182,
        "4360": 125,
        "4361": 19,
        "4362": 216,
        "4363": 46,
        "4364": 99,
        "4365": 239,
        "4366": 199,
        "4367": 183,
        "4368": 143,
        "4369": 24,
        "4370": 162,
        "4371": 200,
        "4372": 182,
        "4373": 145,
        "4374": 209,
        "4375": 132,
        "4376": 35,
        "4377": 135,
        "4378": 112,
        "4379": 69,
        "4380": 131,
        "4381": 123,
        "4382": 143,
        "4383": 213,
        "4384": 150,
        "4385": 7,
        "4386": 220,
        "4387": 198,
        "4388": 121,
        "4389": 142,
        "4390": 76,
        "4391": 191,
        "4392": 201,
        "4393": 57,
        "4394": 99,
        "4395": 78,
        "4396": 225,
        "4397": 248,
        "4398": 29,
        "4399": 52,
        "4400": 47,
        "4401": 117,
        "4402": 152,
        "4403": 41,
        "4404": 154,
        "4405": 110,
        "4406": 243,
        "4407": 23,
        "4408": 125,
        "4409": 185,
        "4410": 153,
        "4411": 221,
        "4412": 4,
        "4413": 144,
        "4414": 82,
        "4415": 223,
        "4416": 64,
        "4417": 233,
        "4418": 50,
        "4419": 210,
        "4420": 60,
        "4421": 75,
        "4422": 118,
        "4423": 218,
        "4424": 47,
        "4425": 135,
        "4426": 117,
        "4427": 146,
        "4428": 131,
        "4429": 16,
        "4430": 195,
        "4431": 144,
        "4432": 86,
        "4433": 132,
        "4434": 43,
        "4435": 38,
        "4436": 139,
        "4437": 43,
        "4438": 244,
        "4439": 102,
        "4440": 221,
        "4441": 146,
        "4442": 34,
        "4443": 52,
        "4444": 101,
        "4445": 191,
        "4446": 21,
        "4447": 201,
        "4448": 151,
        "4449": 75,
        "4450": 15,
        "4451": 108,
        "4452": 221,
        "4453": 219,
        "4454": 68,
        "4455": 94,
        "4456": 133,
        "4457": 7,
        "4458": 177,
        "4459": 0,
        "4460": 174,
        "4461": 252,
        "4462": 98,
        "4463": 152,
        "4464": 140,
        "4465": 213,
        "4466": 222,
        "4467": 95,
        "4468": 55,
        "4469": 0,
        "4470": 2,
        "4471": 159,
        "4472": 157,
        "4473": 24,
        "4474": 121,
        "4475": 155,
        "4476": 4,
        "4477": 102,
        "4478": 129,
        "4479": 163,
        "4480": 86,
        "4481": 48,
        "4482": 21,
        "4483": 2,
        "4484": 5,
        "4485": 231,
        "4486": 200,
        "4487": 15,
        "4488": 250,
        "4489": 248,
        "4490": 75,
        "4491": 205,
        "4492": 175,
        "4493": 16,
        "4494": 44,
        "4495": 41,
        "4496": 220,
        "4497": 154,
        "4498": 27,
        "4499": 10,
        "4500": 34,
        "4501": 174,
        "4502": 157,
        "4503": 10,
        "4504": 48,
        "4505": 149,
        "4506": 146,
        "4507": 45,
        "4508": 12,
        "4509": 194,
        "4510": 31,
        "4511": 2,
        "4512": 24,
        "4513": 253,
        "4514": 102,
        "4515": 114,
        "4516": 222,
        "4517": 63,
        "4518": 19,
        "4519": 109,
        "4520": 16,
        "4521": 66,
        "4522": 146,
        "4523": 31,
        "4524": 254,
        "4525": 103,
        "4526": 86,
        "4527": 104,
        "4528": 160,
        "4529": 90,
        "4530": 31,
        "4531": 98,
        "4532": 113,
        "4533": 64,
        "4534": 93,
        "4535": 136,
        "4536": 48,
        "4537": 207,
        "4538": 133,
        "4539": 220,
        "4540": 163,
        "4541": 95,
        "4542": 86,
        "4543": 235,
        "4544": 182,
        "4545": 32,
        "4546": 81,
        "4547": 241,
        "4548": 33,
        "4549": 4,
        "4550": 160,
        "4551": 0,
        "4552": 109,
        "4553": 217,
        "4554": 65,
        "4555": 159,
        "4556": 120,
        "4557": 191,
        "4558": 232,
        "4559": 186,
        "4560": 120,
        "4561": 97,
        "4562": 134,
        "4563": 213,
        "4564": 234,
        "4565": 245,
        "4566": 109,
        "4567": 232,
        "4568": 255,
        "4569": 232,
        "4570": 120,
        "4571": 162,
        "4572": 225,
        "4573": 23,
        "4574": 152,
        "4575": 67,
        "4576": 221,
        "4577": 254,
        "4578": 121,
        "4579": 42,
        "4580": 17,
        "4581": 13,
        "4582": 222,
        "4583": 8,
        "4584": 141,
        "4585": 143,
        "4586": 119,
        "4587": 253,
        "4588": 186,
        "4589": 32,
        "4590": 124,
        "4591": 5,
        "4592": 229,
        "4593": 153,
        "4594": 52,
        "4595": 164,
        "4596": 235,
        "4597": 156,
        "4598": 240,
        "4599": 170,
        "4600": 184,
        "4601": 133,
        "4602": 51,
        "4603": 34,
        "4604": 93,
        "4605": 157,
        "4606": 134,
        "4607": 214,
        "4608": 108,
        "4609": 164,
        "4610": 103,
        "4611": 225,
        "4612": 135,
        "4613": 184,
        "4614": 53,
        "4615": 198,
        "4616": 14,
        "4617": 38,
        "4618": 182,
        "4619": 153,
        "4620": 182,
        "4621": 194,
        "4622": 66,
        "4623": 117,
        "4624": 43,
        "4625": 72,
        "4626": 40,
        "4627": 79,
        "4628": 75,
        "4629": 200,
        "4630": 41,
        "4631": 223,
        "4632": 210,
        "4633": 240,
        "4634": 1,
        "4635": 59,
        "4636": 86,
        "4637": 134,
        "4638": 206,
        "4639": 114,
        "4640": 56,
        "4641": 75,
        "4642": 218,
        "4643": 50,
        "4644": 169,
        "4645": 243,
        "4646": 76,
        "4647": 192,
        "4648": 67,
        "4649": 201,
        "4650": 26,
        "4651": 178,
        "4652": 75,
        "4653": 250,
        "4654": 16,
        "4655": 237,
        "4656": 73,
        "4657": 88,
        "4658": 106,
        "4659": 151,
        "4660": 105,
        "4661": 90,
        "4662": 151,
        "4663": 154,
        "4664": 60,
        "4665": 208,
        "4666": 51,
        "4667": 59,
        "4668": 167,
        "4669": 235,
        "4670": 248,
        "4671": 163,
        "4672": 79,
        "4673": 178,
        "4674": 205,
        "4675": 255,
        "4676": 246,
        "4677": 238,
        "4678": 57,
        "4679": 225,
        "4680": 8,
        "4681": 197,
        "4682": 45,
        "4683": 184,
        "4684": 29,
        "4685": 88,
        "4686": 89,
        "4687": 248,
        "4688": 60,
        "4689": 151,
        "4690": 166,
        "4691": 106,
        "4692": 85,
        "4693": 106,
        "4694": 210,
        "4695": 245,
        "4696": 97,
        "4697": 25,
        "4698": 232,
        "4699": 37,
        "4700": 88,
        "4701": 155,
        "4702": 183,
        "4703": 138,
        "4704": 189,
        "4705": 252,
        "4706": 177,
        "4707": 158,
        "4708": 38,
        "4709": 95,
        "4710": 99,
        "4711": 167,
        "4712": 225,
        "4713": 184,
        "4714": 87,
        "4715": 206,
        "4716": 181,
        "4717": 117,
        "4718": 146,
        "4719": 132,
        "4720": 236,
        "4721": 126,
        "4722": 255,
        "4723": 146,
        "4724": 147,
        "4725": 123,
        "4726": 136,
        "4727": 37,
        "4728": 134,
        "4729": 90,
        "4730": 23,
        "4731": 188,
        "4732": 254,
        "4733": 233,
        "4734": 191,
        "4735": 124,
        "4736": 156,
        "4737": 103,
        "4738": 248,
        "4739": 68,
        "4740": 235,
        "4741": 238,
        "4742": 214,
        "4743": 205,
        "4744": 221,
        "4745": 6,
        "4746": 0,
        "4747": 140,
        "4748": 158,
        "4749": 81,
        "4750": 152,
        "4751": 170,
        "4752": 147,
        "4753": 211,
        "4754": 245,
        "4755": 132,
        "4756": 122,
        "4757": 150,
        "4758": 243,
        "4759": 76,
        "4760": 163,
        "4761": 154,
        "4762": 55,
        "4763": 45,
        "4764": 179,
        "4765": 108,
        "4766": 246,
        "4767": 251,
        "4768": 207,
        "4769": 55,
        "4770": 241,
        "4771": 123,
        "4772": 157,
        "4773": 165,
        "4774": 116,
        "4775": 194,
        "4776": 187,
        "4777": 242,
        "4778": 52,
        "4779": 1,
        "4780": 230,
        "4781": 142,
        "4782": 65,
        "4783": 215,
        "4784": 73,
        "4785": 149,
        "4786": 248,
        "4787": 160,
        "4788": 220,
        "4789": 117,
        "4790": 88,
        "4791": 102,
        "4792": 61,
        "4793": 79,
        "4794": 75,
        "4795": 201,
        "4796": 8,
        "4797": 94,
        "4798": 118,
        "4799": 68,
        "4800": 41,
        "4801": 194,
        "4802": 128,
        "4803": 173,
        "4804": 101,
        "4805": 134,
        "4806": 35,
        "4807": 239,
        "4808": 202,
        "4809": 184,
        "4810": 215,
        "4811": 190,
        "4812": 168,
        "4813": 153,
        "4814": 185,
        "4815": 115,
        "4816": 28,
        "4817": 61,
        "4818": 111,
        "4819": 116,
        "4820": 191,
        "4821": 65,
        "4822": 150,
        "4823": 212,
        "4824": 11,
        "4825": 138,
        "4826": 63,
        "4827": 238,
        "4828": 185,
        "4829": 100,
        "4830": 238,
        "4831": 52,
        "4832": 199,
        "4833": 192,
        "4834": 253,
        "4835": 133,
        "4836": 158,
        "4837": 110,
        "4838": 45,
        "4839": 44,
        "4840": 128,
        "4841": 239,
        "4842": 3,
        "4843": 25,
        "4844": 74,
        "4845": 32,
        "4846": 16,
        "4847": 187,
        "4848": 122,
        "4849": 167,
        "4850": 7,
        "4851": 5,
        "4852": 224,
        "4853": 214,
        "4854": 87,
        "4855": 22,
        "4856": 151,
        "4857": 41,
        "4858": 227,
        "4859": 163,
        "4860": 162,
        "4861": 140,
        "4862": 134,
        "4863": 210,
        "4864": 204,
        "4865": 99,
        "4866": 143,
        "4867": 95,
        "4868": 70,
        "4869": 22,
        "4870": 161,
        "4871": 111,
        "4872": 254,
        "4873": 205,
        "4874": 99,
        "4875": 232,
        "4876": 27,
        "4877": 112,
        "4878": 61,
        "4879": 214,
        "4880": 231,
        "4881": 25,
        "4882": 203,
        "4883": 68,
        "4884": 204,
        "4885": 171,
        "4886": 81,
        "4887": 196,
        "4888": 36,
        "4889": 251,
        "4890": 91,
        "4891": 94,
        "4892": 221,
        "4893": 207,
        "4894": 173,
        "4895": 133,
        "4896": 6,
        "4897": 73,
        "4898": 154,
        "4899": 122,
        "4900": 69,
        "4901": 177,
        "4902": 135,
        "4903": 0,
        "4904": 22,
        "4905": 166,
        "4906": 197,
        "4907": 52,
        "4908": 147,
        "4909": 49,
        "4910": 98,
        "4911": 65,
        "4912": 64,
        "4913": 254,
        "4914": 150,
        "4915": 11,
        "4916": 49,
        "4917": 170,
        "4918": 126,
        "4919": 34,
        "4920": 15,
        "4921": 233,
        "4922": 175,
        "4923": 23,
        "4924": 20,
        "4925": 87,
        "4926": 173,
        "4927": 165,
        "4928": 176,
        "4929": 143,
        "4930": 221,
        "4931": 101,
        "4932": 49,
        "4933": 184,
        "4934": 226,
        "4935": 73,
        "4936": 50,
        "4937": 171,
        "4938": 4,
        "4939": 225,
        "4940": 179,
        "4941": 117,
        "4942": 120,
        "4943": 2,
        "4944": 132,
        "4945": 106,
        "4946": 228,
        "4947": 210,
        "4948": 165,
        "4949": 214,
        "4950": 223,
        "4951": 108,
        "4952": 89,
        "4953": 158,
        "4954": 0,
        "4955": 157,
        "4956": 243,
        "4957": 239,
        "4958": 36,
        "4959": 20,
        "4960": 249,
        "4961": 143,
        "4962": 245,
        "4963": 154,
        "4964": 7,
        "4965": 184,
        "4966": 87,
        "4967": 11,
        "4968": 117,
        "4969": 48,
        "4970": 43,
        "4971": 5,
        "4972": 85,
        "4973": 51,
        "4974": 16,
        "4975": 144,
        "4976": 255,
        "4977": 53,
        "4978": 83,
        "4979": 32,
        "4980": 132,
        "4981": 183,
        "4982": 98,
        "4983": 119,
        "4984": 173,
        "4985": 210,
        "4986": 66,
        "4987": 9,
        "4988": 156,
        "4989": 19,
        "4990": 103,
        "4991": 153,
        "4992": 116,
        "4993": 84,
        "4994": 205,
        "4995": 43,
        "4996": 222,
        "4997": 89,
        "4998": 172,
        "4999": 105,
        "5000": 116,
        "5001": 92,
        "5002": 213,
        "5003": 63,
        "5004": 91,
        "5005": 209,
        "5006": 217,
        "5007": 20,
        "5008": 133,
        "5009": 222,
        "5010": 251,
        "5011": 95,
        "5012": 31,
        "5013": 245,
        "5014": 212,
        "5015": 205,
        "5016": 16,
        "5017": 37,
        "5018": 224,
        "5019": 238,
        "5020": 184,
        "5021": 196,
        "5022": 84,
        "5023": 80,
        "5024": 131,
        "5025": 174,
        "5026": 229,
        "5027": 173,
        "5028": 174,
        "5029": 219,
        "5030": 0,
        "5031": 236,
        "5032": 103,
        "5033": 106,
        "5034": 91,
        "5035": 202,
        "5036": 232,
        "5037": 230,
        "5038": 53,
        "5039": 93,
        "5040": 223,
        "5041": 56,
        "5042": 66,
        "5043": 77,
        "5044": 236,
        "5045": 220,
        "5046": 247,
        "5047": 228,
        "5048": 127,
        "5049": 150,
        "5050": 18,
        "5051": 193,
        "5052": 219,
        "5053": 151,
        "5054": 233,
        "5055": 40,
        "5056": 237,
        "5057": 48,
        "5058": 194,
        "5059": 202,
        "5060": 20,
        "5061": 107,
        "5062": 160,
        "5063": 81,
        "5064": 13,
        "5065": 71,
        "5066": 221,
        "5067": 197,
        "5068": 23,
        "5069": 122,
        "5070": 68,
        "5071": 81,
        "5072": 3,
        "5073": 12,
        "5074": 44,
        "5075": 20,
        "5076": 49,
        "5077": 29,
        "5078": 242,
        "5079": 199,
        "5080": 146,
        "5081": 55,
        "5082": 249,
        "5083": 50,
        "5084": 157,
        "5085": 86,
        "5086": 63,
        "5087": 8,
        "5088": 135,
        "5089": 178,
        "5090": 11,
        "5091": 89,
        "5092": 238,
        "5093": 183,
        "5094": 198,
        "5095": 116,
        "5096": 136,
        "5097": 18,
        "5098": 59,
        "5099": 250,
        "5100": 3,
        "5101": 7,
        "5102": 163,
        "5103": 62,
        "5104": 173,
        "5105": 221,
        "5106": 112,
        "5107": 175,
        "5108": 136,
        "5109": 127,
        "5110": 176,
        "5111": 209,
        "5112": 237,
        "5113": 175,
        "5114": 238,
        "5115": 69,
        "5116": 180,
        "5117": 28,
        "5118": 228,
        "5119": 248,
        "5120": 54,
        "5121": 53,
        "5122": 48,
        "5123": 179,
        "5124": 30,
        "5125": 207,
        "5126": 145,
        "5127": 95,
        "5128": 66,
        "5129": 35,
        "5130": 243,
        "5131": 92,
        "5132": 87,
        "5133": 17,
        "5134": 117,
        "5135": 193,
        "5136": 165,
        "5137": 131,
        "5138": 81,
        "5139": 155,
        "5140": 67,
        "5141": 200,
        "5142": 101,
        "5143": 126,
        "5144": 226,
        "5145": 102,
        "5146": 218,
        "5147": 43,
        "5148": 133,
        "5149": 58,
        "5150": 7,
        "5151": 144,
        "5152": 9,
        "5153": 232,
        "5154": 75,
        "5155": 58,
        "5156": 197,
        "5157": 225,
        "5158": 232,
        "5159": 146,
        "5160": 100,
        "5161": 206,
        "5162": 60,
        "5163": 88,
        "5164": 2,
        "5165": 11,
        "5166": 99,
        "5167": 152,
        "5168": 199,
        "5169": 28,
        "5170": 172,
        "5171": 145,
        "5172": 108,
        "5173": 24,
        "5174": 222,
        "5175": 228,
        "5176": 51,
        "5177": 134,
        "5178": 168,
        "5179": 110,
        "5180": 175,
        "5181": 88,
        "5182": 230,
        "5183": 92,
        "5184": 146,
        "5185": 241,
        "5186": 152,
        "5187": 183,
        "5188": 189,
        "5189": 246,
        "5190": 117,
        "5191": 193,
        "5192": 73,
        "5193": 138,
        "5194": 172,
        "5195": 199,
        "5196": 199,
        "5197": 94,
        "5198": 99,
        "5199": 52,
        "5200": 127,
        "5201": 69,
        "5202": 162,
        "5203": 60,
        "5204": 213,
        "5205": 2,
        "5206": 58,
        "5207": 36,
        "5208": 67,
        "5209": 138,
        "5210": 201,
        "5211": 99,
        "5212": 79,
        "5213": 230,
        "5214": 9,
        "5215": 201,
        "5216": 47,
        "5217": 65,
        "5218": 151,
        "5219": 49,
        "5220": 235,
        "5221": 176,
        "5222": 99,
        "5223": 188,
        "5224": 43,
        "5225": 172,
        "5226": 32,
        "5227": 104,
        "5228": 148,
        "5229": 71,
        "5230": 222,
        "5231": 224,
        "5232": 227,
        "5233": 79,
        "5234": 219,
        "5235": 217,
        "5236": 5,
        "5237": 255,
        "5238": 192,
        "5239": 155,
        "5240": 206,
        "5241": 144,
        "5242": 68,
        "5243": 42,
        "5244": 105,
        "5245": 203,
        "5246": 196,
        "5247": 169,
        "5248": 115,
        "5249": 144,
        "5250": 133,
        "5251": 226,
        "5252": 29,
        "5253": 240,
        "5254": 139,
        "5255": 159,
        "5256": 10,
        "5257": 124,
        "5258": 248,
        "5259": 113,
        "5260": 167,
        "5261": 9,
        "5262": 254,
        "5263": 92,
        "5264": 177,
        "5265": 51,
        "5266": 50,
        "5267": 233,
        "5268": 182,
        "5269": 48,
        "5270": 94,
        "5271": 125,
        "5272": 179,
        "5273": 220,
        "5274": 246,
        "5275": 191,
        "5276": 255,
        "5277": 110,
        "5278": 213,
        "5279": 72,
        "5280": 124,
        "5281": 227,
        "5282": 61,
        "5283": 104,
        "5284": 215,
        "5285": 8,
        "5286": 151,
        "5287": 133,
        "5288": 168,
        "5289": 102,
        "5290": 252,
        "5291": 45,
        "5292": 118,
        "5293": 228,
        "5294": 127,
        "5295": 225,
        "5296": 142,
        "5297": 201,
        "5298": 176,
        "5299": 10,
        "5300": 61,
        "5301": 58,
        "5302": 249,
        "5303": 174,
        "5304": 197,
        "5305": 39,
        "5306": 221,
        "5307": 43,
        "5308": 100,
        "5309": 67,
        "5310": 85,
        "5311": 122,
        "5312": 30,
        "5313": 169,
        "5314": 160,
        "5315": 165,
        "5316": 202,
        "5317": 6,
        "5318": 198,
        "5319": 125,
        "5320": 114,
        "5321": 48,
        "5322": 208,
        "5323": 132,
        "5324": 151,
        "5325": 106,
        "5326": 29,
        "5327": 64,
        "5328": 177,
        "5329": 24,
        "5330": 14,
        "5331": 176,
        "5332": 28,
        "5333": 12,
        "5334": 19,
        "5335": 144,
        "5336": 173,
        "5337": 235,
        "5338": 208,
        "5339": 18,
        "5340": 14,
        "5341": 218,
        "5342": 78,
        "5343": 114,
        "5344": 105,
        "5345": 101,
        "5346": 32,
        "5347": 14,
        "5348": 185,
        "5349": 240,
        "5350": 210,
        "5351": 37,
        "5352": 192,
        "5353": 138,
        "5354": 190,
        "5355": 128,
        "5356": 155,
        "5357": 1,
        "5358": 74,
        "5359": 8,
        "5360": 103,
        "5361": 157,
        "5362": 171,
        "5363": 197,
        "5364": 95,
        "5365": 154,
        "5366": 139,
        "5367": 238,
        "5368": 212,
        "5369": 121,
        "5370": 26,
        "5371": 55,
        "5372": 101,
        "5373": 246,
        "5374": 66,
        "5375": 114,
        "5376": 16,
        "5377": 136,
        "5378": 27,
        "5379": 212,
        "5380": 16,
        "5381": 216,
        "5382": 213,
        "5383": 216,
        "5384": 19,
        "5385": 30,
        "5386": 17,
        "5387": 190,
        "5388": 129,
        "5389": 105,
        "5390": 37,
        "5391": 213,
        "5392": 163,
        "5393": 121,
        "5394": 37,
        "5395": 28,
        "5396": 179,
        "5397": 139,
        "5398": 214,
        "5399": 92,
        "5400": 25,
        "5401": 214,
        "5402": 240,
        "5403": 206,
        "5404": 106,
        "5405": 38,
        "5406": 65,
        "5407": 178,
        "5408": 121,
        "5409": 199,
        "5410": 215,
        "5411": 206,
        "5412": 76,
        "5413": 205,
        "5414": 101,
        "5415": 118,
        "5416": 92,
        "5417": 183,
        "5418": 68,
        "5419": 188,
        "5420": 147,
        "5421": 179,
        "5422": 196,
        "5423": 117,
        "5424": 242,
        "5425": 210,
        "5426": 184,
        "5427": 180,
        "5428": 14,
        "5429": 149,
        "5430": 226,
        "5431": 26,
        "5432": 197,
        "5433": 30,
        "5434": 250,
        "5435": 67,
        "5436": 12,
        "5437": 122,
        "5438": 121,
        "5439": 116,
        "5440": 170,
        "5441": 169,
        "5442": 0,
        "5443": 21,
        "5444": 143,
        "5445": 9,
        "5446": 74,
        "5447": 66,
        "5448": 137,
        "5449": 201,
        "5450": 98,
        "5451": 145,
        "5452": 111,
        "5453": 234,
        "5454": 212,
        "5455": 121,
        "5456": 17,
        "5457": 205,
        "5458": 3,
        "5459": 125,
        "5460": 245,
        "5461": 67,
        "5462": 234,
        "5463": 216,
        "5464": 3,
        "5465": 99,
        "5466": 250,
        "5467": 252,
        "5468": 206,
        "5469": 157,
        "5470": 43,
        "5471": 200,
        "5472": 148,
        "5473": 105,
        "5474": 63,
        "5475": 72,
        "5476": 4,
        "5477": 124,
        "5478": 60,
        "5479": 37,
        "5480": 50,
        "5481": 219,
        "5482": 80,
        "5483": 145,
        "5484": 47,
        "5485": 48,
        "5486": 29,
        "5487": 181,
        "5488": 40,
        "5489": 183,
        "5490": 55,
        "5491": 141,
        "5492": 30,
        "5493": 104,
        "5494": 167,
        "5495": 48,
        "5496": 214,
        "5497": 67,
        "5498": 133,
        "5499": 247,
        "5500": 47,
        "5501": 131,
        "5502": 3,
        "5503": 150,
        "5504": 61,
        "5505": 40,
        "5506": 1,
        "5507": 26,
        "5508": 3,
        "5509": 54,
        "5510": 206,
        "5511": 53,
        "5512": 183,
        "5513": 69,
        "5514": 56,
        "5515": 32,
        "5516": 196,
        "5517": 157,
        "5518": 197,
        "5519": 8,
        "5520": 132,
        "5521": 11,
        "5522": 96,
        "5523": 136,
        "5524": 109,
        "5525": 202,
        "5526": 57,
        "5527": 90,
        "5528": 221,
        "5529": 80,
        "5530": 111,
        "5531": 18,
        "5532": 74,
        "5533": 30,
        "5534": 54,
        "5535": 72,
        "5536": 68,
        "5537": 120,
        "5538": 245,
        "5539": 232,
        "5540": 49,
        "5541": 150,
        "5542": 180,
        "5543": 247,
        "5544": 227,
        "5545": 246,
        "5546": 141,
        "5547": 182,
        "5548": 104,
        "5549": 251,
        "5550": 94,
        "5551": 85,
        "5552": 226,
        "5553": 239,
        "5554": 61,
        "5555": 159,
        "5556": 65,
        "5557": 232,
        "5558": 98,
        "5559": 59,
        "5560": 231,
        "5561": 240,
        "5562": 180,
        "5563": 42,
        "5564": 112,
        "5565": 26,
        "5566": 7,
        "5567": 88,
        "5568": 70,
        "5569": 52,
        "5570": 255,
        "5571": 70,
        "5572": 183,
        "5573": 164,
        "5574": 242,
        "5575": 105,
        "5576": 141,
        "5577": 9,
        "5578": 55,
        "5579": 69,
        "5580": 218,
        "5581": 227,
        "5582": 202,
        "5583": 247,
        "5584": 14,
        "5585": 170,
        "5586": 44,
        "5587": 107,
        "5588": 67,
        "5589": 100,
        "5590": 112,
        "5591": 108,
        "5592": 250,
        "5593": 114,
        "5594": 228,
        "5595": 111,
        "5596": 8,
        "5597": 251,
        "5598": 10,
        "5599": 251,
        "5600": 29,
        "5601": 107,
        "5602": 174,
        "5603": 109,
        "5604": 122,
        "5605": 199,
        "5606": 107,
        "5607": 188,
        "5608": 81,
        "5609": 168,
        "5610": 253,
        "5611": 158,
        "5612": 233,
        "5613": 167,
        "5614": 62,
        "5615": 182,
        "5616": 30,
        "5617": 71,
        "5618": 129,
        "5619": 132,
        "5620": 37,
        "5621": 173,
        "5622": 230,
        "5623": 169,
        "5624": 26,
        "5625": 230,
        "5626": 176,
        "5627": 84,
        "5628": 135,
        "5629": 253,
        "5630": 161,
        "5631": 13,
        "5632": 56,
        "5633": 171,
        "5634": 78,
        "5635": 39,
        "5636": 248,
        "5637": 142,
        "5638": 167,
        "5639": 189,
        "5640": 248,
        "5641": 137,
        "5642": 72,
        "5643": 11,
        "5644": 25,
        "5645": 216,
        "5646": 92,
        "5647": 114,
        "5648": 213,
        "5649": 123,
        "5650": 7,
        "5651": 7,
        "5652": 12,
        "5653": 18,
        "5654": 150,
        "5655": 49,
        "5656": 177,
        "5657": 43,
        "5658": 26,
        "5659": 41,
        "5660": 128,
        "5661": 101,
        "5662": 2,
        "5663": 250,
        "5664": 248,
        "5665": 110,
        "5666": 123,
        "5667": 177,
        "5668": 234,
        "5669": 153,
        "5670": 19,
        "5671": 48,
        "5672": 172,
        "5673": 229,
        "5674": 50,
        "5675": 7,
        "5676": 132,
        "5677": 127,
        "5678": 159,
        "5679": 188,
        "5680": 51,
        "5681": 66,
        "5682": 99,
        "5683": 85,
        "5684": 51,
        "5685": 106,
        "5686": 168,
        "5687": 178,
        "5688": 138,
        "5689": 198,
        "5690": 18,
        "5691": 206,
        "5692": 113,
        "5693": 207,
        "5694": 107,
        "5695": 160,
        "5696": 95,
        "5697": 172,
        "5698": 83,
        "5699": 141,
        "5700": 86,
        "5701": 244,
        "5702": 38,
        "5703": 83,
        "5704": 149,
        "5705": 140,
        "5706": 132,
        "5707": 219,
        "5708": 221,
        "5709": 4,
        "5710": 155,
        "5711": 121,
        "5712": 32,
        "5713": 119,
        "5714": 59,
        "5715": 172,
        "5716": 240,
        "5717": 81,
        "5718": 35,
        "5719": 225,
        "5720": 171,
        "5721": 35,
        "5722": 246,
        "5723": 46,
        "5724": 248,
        "5725": 252,
        "5726": 31,
        "5727": 87,
        "5728": 107,
        "5729": 48,
        "5730": 164,
        "5731": 29,
        "5732": 221,
        "5733": 207,
        "5734": 206,
        "5735": 204,
        "5736": 28,
        "5737": 28,
        "5738": 244,
        "5739": 93,
        "5740": 110,
        "5741": 103,
        "5742": 150,
        "5743": 100,
        "5744": 160,
        "5745": 66,
        "5746": 254,
        "5747": 20,
        "5748": 226,
        "5749": 234,
        "5750": 127,
        "5751": 86,
        "5752": 130,
        "5753": 31,
        "5754": 70,
        "5755": 45,
        "5756": 148,
        "5757": 148,
        "5758": 39,
        "5759": 218,
        "5760": 26,
        "5761": 136,
        "5762": 224,
        "5763": 221,
        "5764": 183,
        "5765": 99,
        "5766": 128,
        "5767": 252,
        "5768": 30,
        "5769": 179,
        "5770": 177,
        "5771": 155,
        "5772": 37,
        "5773": 26,
        "5774": 239,
        "5775": 154,
        "5776": 145,
        "5777": 76,
        "5778": 144,
        "5779": 63,
        "5780": 211,
        "5781": 50,
        "5782": 45,
        "5783": 170,
        "5784": 206,
        "5785": 110,
        "5786": 24,
        "5787": 33,
        "5788": 214,
        "5789": 84,
        "5790": 98,
        "5791": 218,
        "5792": 219,
        "5793": 216,
        "5794": 237,
        "5795": 230,
        "5796": 124,
        "5797": 207,
        "5798": 253,
        "5799": 143,
        "5800": 250,
        "5801": 21,
        "5802": 31,
        "5803": 60,
        "5804": 43,
        "5805": 73,
        "5806": 139,
        "5807": 127,
        "5808": 14,
        "5809": 96,
        "5810": 130,
        "5811": 79,
        "5812": 113,
        "5813": 73,
        "5814": 183,
        "5815": 190,
        "5816": 63,
        "5817": 107,
        "5818": 123,
        "5819": 5,
        "5820": 166,
        "5821": 10,
        "5822": 17,
        "5823": 69,
        "5824": 62,
        "5825": 249,
        "5826": 163,
        "5827": 50,
        "5828": 235,
        "5829": 208,
        "5830": 89,
        "5831": 38,
        "5832": 134,
        "5833": 9,
        "5834": 242,
        "5835": 106,
        "5836": 79,
        "5837": 73,
        "5838": 132,
        "5839": 250,
        "5840": 208,
        "5841": 64,
        "5842": 26,
        "5843": 74,
        "5844": 160,
        "5845": 182,
        "5846": 70,
        "5847": 130,
        "5848": 71,
        "5849": 182,
        "5850": 194,
        "5851": 54,
        "5852": 215,
        "5853": 170,
        "5854": 192,
        "5855": 224,
        "5856": 126,
        "5857": 159,
        "5858": 198,
        "5859": 104,
        "5860": 155,
        "5861": 195,
        "5862": 124,
        "5863": 250,
        "5864": 137,
        "5865": 123,
        "5866": 118,
        "5867": 160,
        "5868": 198,
        "5869": 138,
        "5870": 167,
        "5871": 180,
        "5872": 144,
        "5873": 124,
        "5874": 146,
        "5875": 183,
        "5876": 19,
        "5877": 228,
        "5878": 13,
        "5879": 53,
        "5880": 188,
        "5881": 129,
        "5882": 128,
        "5883": 6,
        "5884": 234,
        "5885": 156,
        "5886": 167,
        "5887": 49,
        "5888": 61,
        "5889": 155,
        "5890": 71,
        "5891": 0,
        "5892": 215,
        "5893": 139,
        "5894": 103,
        "5895": 6,
        "5896": 72,
        "5897": 230,
        "5898": 173,
        "5899": 227,
        "5900": 42,
        "5901": 56,
        "5902": 81,
        "5903": 83,
        "5904": 75,
        "5905": 22,
        "5906": 21,
        "5907": 77,
        "5908": 168,
        "5909": 153,
        "5910": 209,
        "5911": 222,
        "5912": 235,
        "5913": 2,
        "5914": 67,
        "5915": 176,
        "5916": 145,
        "5917": 250,
        "5918": 4,
        "5919": 94,
        "5920": 60,
        "5921": 104,
        "5922": 169,
        "5923": 88,
        "5924": 128,
        "5925": 93,
        "5926": 107,
        "5927": 186,
        "5928": 115,
        "5929": 191,
        "5930": 192,
        "5931": 231,
        "5932": 69,
        "5933": 142,
        "5934": 15,
        "5935": 59,
        "5936": 215,
        "5937": 131,
        "5938": 139,
        "5939": 141,
        "5940": 179,
        "5941": 213,
        "5942": 151,
        "5943": 88,
        "5944": 187,
        "5945": 188,
        "5946": 108,
        "5947": 233,
        "5948": 91,
        "5949": 84,
        "5950": 218,
        "5951": 158,
        "5952": 196,
        "5953": 201,
        "5954": 196,
        "5955": 74,
        "5956": 156,
        "5957": 237,
        "5958": 31,
        "5959": 29,
        "5960": 247,
        "5961": 75,
        "5962": 244,
        "5963": 161,
        "5964": 120,
        "5965": 18,
        "5966": 11,
        "5967": 255,
        "5968": 188,
        "5969": 182,
        "5970": 231,
        "5971": 76,
        "5972": 20,
        "5973": 158,
        "5974": 246,
        "5975": 237,
        "5976": 206,
        "5977": 1,
        "5978": 53,
        "5979": 86,
        "5980": 216,
        "5981": 254,
        "5982": 143,
        "5983": 190,
        "5984": 46,
        "5985": 217,
        "5986": 49,
        "5987": 161,
        "5988": 147,
        "5989": 133,
        "5990": 217,
        "5991": 206,
        "5992": 95,
        "5993": 59,
        "5994": 57,
        "5995": 180,
        "5996": 119,
        "5997": 28,
        "5998": 51,
        "5999": 13,
        "6000": 239,
        "6001": 75,
        "6002": 88,
        "6003": 236,
        "6004": 230,
        "6005": 179,
        "6006": 173,
        "6007": 134,
        "6008": 41,
        "6009": 165,
        "6010": 5,
        "6011": 113,
        "6012": 102,
        "6013": 229,
        "6014": 238,
        "6015": 67,
        "6016": 32,
        "6017": 20,
        "6018": 3,
        "6019": 64,
        "6020": 159,
        "6021": 177,
        "6022": 154,
        "6023": 188,
        "6024": 227,
        "6025": 67,
        "6026": 94,
        "6027": 142,
        "6028": 6,
        "6029": 85,
        "6030": 197,
        "6031": 125,
        "6032": 34,
        "6033": 86,
        "6034": 116,
        "6035": 223,
        "6036": 3,
        "6037": 81,
        "6038": 34,
        "6039": 8,
        "6040": 155,
        "6041": 245,
        "6042": 12,
        "6043": 79,
        "6044": 41,
        "6045": 67,
        "6046": 130,
        "6047": 49,
        "6048": 26,
        "6049": 249,
        "6050": 129,
        "6051": 62,
        "6052": 248,
        "6053": 255,
        "6054": 207,
        "6055": 98,
        "6056": 254,
        "6057": 70,
        "6058": 225,
        "6059": 231,
        "6060": 173,
        "6061": 207,
        "6062": 8,
        "6063": 163,
        "6064": 55,
        "6065": 187,
        "6066": 7,
        "6067": 189,
        "6068": 39,
        "6069": 10,
        "6070": 20,
        "6071": 112,
        "6072": 139,
        "6073": 145,
        "6074": 40,
        "6075": 93,
        "6076": 40,
        "6077": 28,
        "6078": 202,
        "6079": 71,
        "6080": 220,
        "6081": 139,
        "6082": 190,
        "6083": 89,
        "6084": 228,
        "6085": 153,
        "6086": 206,
        "6087": 220,
        "6088": 10,
        "6089": 222,
        "6090": 200,
        "6091": 85,
        "6092": 26,
        "6093": 254,
        "6094": 206,
        "6095": 80,
        "6096": 76,
        "6097": 111,
        "6098": 14,
        "6099": 184,
        "6100": 226,
        "6101": 59,
        "6102": 8,
        "6103": 224,
        "6104": 137,
        "6105": 232,
        "6106": 110,
        "6107": 134,
        "6108": 0,
        "6109": 177,
        "6110": 167,
        "6111": 55,
        "6112": 81,
        "6113": 254,
        "6114": 142,
        "6115": 161,
        "6116": 108,
        "6117": 234,
        "6118": 214,
        "6119": 8,
        "6120": 191,
        "6121": 241,
        "6122": 24,
        "6123": 55,
        "6124": 194,
        "6125": 64,
        "6126": 216,
        "6127": 245,
        "6128": 220,
        "6129": 136,
        "6130": 54,
        "6131": 122,
        "6132": 92,
        "6133": 0,
        "6134": 33,
        "6135": 18,
        "6136": 183,
        "6137": 96,
        "6138": 97,
        "6139": 227,
        "6140": 123,
        "6141": 50,
        "6142": 87,
        "6143": 100,
        "6144": 229,
        "6145": 191,
        "6146": 231,
        "6147": 201,
        "6148": 64,
        "6149": 240,
        "6150": 210,
        "6151": 39,
        "6152": 126,
        "6153": 208,
        "6154": 41,
        "6155": 17,
        "6156": 93,
        "6157": 7,
        "6158": 222,
        "6159": 236,
        "6160": 162,
        "6161": 34,
        "6162": 41,
        "6163": 176,
        "6164": 247,
        "6165": 49,
        "6166": 50,
        "6167": 165,
        "6168": 220,
        "6169": 190,
        "6170": 121,
        "6171": 146,
        "6172": 24,
        "6173": 108,
        "6174": 109,
        "6175": 132,
        "6176": 68,
        "6177": 154,
        "6178": 50,
        "6179": 232,
        "6180": 37,
        "6181": 72,
        "6182": 7,
        "6183": 134,
        "6184": 116,
        "6185": 112,
        "6186": 4,
        "6187": 93,
        "6188": 253,
        "6189": 192,
        "6190": 90,
        "6191": 240,
        "6192": 10,
        "6193": 48,
        "6194": 109,
        "6195": 12,
        "6196": 180,
        "6197": 192,
        "6198": 58,
        "6199": 126,
        "6200": 64,
        "6201": 208,
        "6202": 158,
        "6203": 30,
        "6204": 131,
        "6205": 245,
        "6206": 237,
        "6207": 71,
        "6208": 95,
        "6209": 207,
        "6210": 245,
        "6211": 205,
        "6212": 141,
        "6213": 198,
        "6214": 39,
        "6215": 34,
        "6216": 3,
        "6217": 180,
        "6218": 38,
        "6219": 23,
        "6220": 99,
        "6221": 62,
        "6222": 158,
        "6223": 88,
        "6224": 152,
        "6225": 108,
        "6226": 30,
        "6227": 172,
        "6228": 197,
        "6229": 135,
        "6230": 65,
        "6231": 40,
        "6232": 30,
        "6233": 18,
        "6234": 37,
        "6235": 5,
        "6236": 25,
        "6237": 148,
        "6238": 189,
        "6239": 254,
        "6240": 173,
        "6241": 167,
        "6242": 224,
        "6243": 211,
        "6244": 22,
        "6245": 17,
        "6246": 178,
        "6247": 193,
        "6248": 64,
        "6249": 177,
        "6250": 62,
        "6251": 56,
        "6252": 173,
        "6253": 110,
        "6254": 245,
        "6255": 164,
        "6256": 162,
        "6257": 51,
        "6258": 166,
        "6259": 62,
        "6260": 208,
        "6261": 18,
        "6262": 21,
        "6263": 252,
        "6264": 199,
        "6265": 201,
        "6266": 155,
        "6267": 50,
        "6268": 92,
        "6269": 233,
        "6270": 250,
        "6271": 242,
        "6272": 252,
        "6273": 198,
        "6274": 20,
        "6275": 248,
        "6276": 194,
        "6277": 180,
        "6278": 3,
        "6279": 245,
        "6280": 48,
        "6281": 22,
        "6282": 194,
        "6283": 92,
        "6284": 171,
        "6285": 196,
        "6286": 112,
        "6287": 209,
        "6288": 160,
        "6289": 186,
        "6290": 206,
        "6291": 220,
        "6292": 83,
        "6293": 172,
        "6294": 53,
        "6295": 73,
        "6296": 95,
        "6297": 199,
        "6298": 196,
        "6299": 193,
        "6300": 41,
        "6301": 52,
        "6302": 101,
        "6303": 164,
        "6304": 86,
        "6305": 83,
        "6306": 38,
        "6307": 207,
        "6308": 215,
        "6309": 152,
        "6310": 149,
        "6311": 146,
        "6312": 94,
        "6313": 81,
        "6314": 104,
        "6315": 116,
        "6316": 103,
        "6317": 149,
        "6318": 187,
        "6319": 79,
        "6320": 245,
        "6321": 220,
        "6322": 218,
        "6323": 28,
        "6324": 36,
        "6325": 37,
        "6326": 178,
        "6327": 120,
        "6328": 245,
        "6329": 108,
        "6330": 187,
        "6331": 92,
        "6332": 149,
        "6333": 9,
        "6334": 255,
        "6335": 155,
        "6336": 252,
        "6337": 186,
        "6338": 223,
        "6339": 166,
        "6340": 11,
        "6341": 117,
        "6342": 7,
        "6343": 122,
        "6344": 56,
        "6345": 93,
        "6346": 148,
        "6347": 88,
        "6348": 178,
        "6349": 207,
        "6350": 61,
        "6351": 22,
        "6352": 224,
        "6353": 214,
        "6354": 36,
        "6355": 23,
        "6356": 171,
        "6357": 119,
        "6358": 160,
        "6359": 188,
        "6360": 43,
        "6361": 189,
        "6362": 19,
        "6363": 5,
        "6364": 183,
        "6365": 18,
        "6366": 220,
        "6367": 181,
        "6368": 115,
        "6369": 83,
        "6370": 138,
        "6371": 80,
        "6372": 85,
        "6373": 230,
        "6374": 202,
        "6375": 220,
        "6376": 210,
        "6377": 99,
        "6378": 91,
        "6379": 250,
        "6380": 4,
        "6381": 155,
        "6382": 116,
        "6383": 36,
        "6384": 238,
        "6385": 151,
        "6386": 214,
        "6387": 132,
        "6388": 227,
        "6389": 201,
        "6390": 130,
        "6391": 132,
        "6392": 241,
        "6393": 44,
        "6394": 216,
        "6395": 222,
        "6396": 15,
        "6397": 212,
        "6398": 163,
        "6399": 209,
        "6400": 200,
        "6401": 98,
        "6402": 184,
        "6403": 246,
        "6404": 221,
        "6405": 106,
        "6406": 52,
        "6407": 147,
        "6408": 252,
        "6409": 223,
        "6410": 67,
        "6411": 29,
        "6412": 200,
        "6413": 237,
        "6414": 234,
        "6415": 242,
        "6416": 243,
        "6417": 145,
        "6418": 113,
        "6419": 48,
        "6420": 27,
        "6421": 148,
        "6422": 246,
        "6423": 97,
        "6424": 192,
        "6425": 58,
        "6426": 16,
        "6427": 103,
        "6428": 76,
        "6429": 178,
        "6430": 206,
        "6431": 46,
        "6432": 232,
        "6433": 248,
        "6434": 161,
        "6435": 83,
        "6436": 12,
        "6437": 199,
        "6438": 162,
        "6439": 241,
        "6440": 74,
        "6441": 246,
        "6442": 233,
        "6443": 239,
        "6444": 161,
        "6445": 111,
        "6446": 42,
        "6447": 34,
        "6448": 15,
        "6449": 2,
        "6450": 27,
        "6451": 72,
        "6452": 147,
        "6453": 254,
        "6454": 145,
        "6455": 46,
        "6456": 212,
        "6457": 156,
        "6458": 101,
        "6459": 48,
        "6460": 26,
        "6461": 135,
        "6462": 50,
        "6463": 177,
        "6464": 83,
        "6465": 18,
        "6466": 84,
        "6467": 125,
        "6468": 242,
        "6469": 195,
        "6470": 71,
        "6471": 117,
        "6472": 78,
        "6473": 227,
        "6474": 193,
        "6475": 128,
        "6476": 217,
        "6477": 33,
        "6478": 141,
        "6479": 37,
        "6480": 180,
        "6481": 211,
        "6482": 42,
        "6483": 55,
        "6484": 250,
        "6485": 187,
        "6486": 168,
        "6487": 147,
        "6488": 38,
        "6489": 111,
        "6490": 255,
        "6491": 181,
        "6492": 176,
        "6493": 225,
        "6494": 206,
        "6495": 196,
        "6496": 184,
        "6497": 119,
        "6498": 62,
        "6499": 83,
        "6500": 152,
        "6501": 157,
        "6502": 109,
        "6503": 83,
        "6504": 196,
        "6505": 42,
        "6506": 76,
        "6507": 135,
        "6508": 41,
        "6509": 101,
        "6510": 57,
        "6511": 11,
        "6512": 144,
        "6513": 229,
        "6514": 135,
        "6515": 147,
        "6516": 208,
        "6517": 29,
        "6518": 14,
        "6519": 89,
        "6520": 205,
        "6521": 224,
        "6522": 62,
        "6523": 19,
        "6524": 113,
        "6525": 195,
        "6526": 182,
        "6527": 57,
        "6528": 141,
        "6529": 100,
        "6530": 183,
        "6531": 0,
        "6532": 253,
        "6533": 249,
        "6534": 207,
        "6535": 89,
        "6536": 61,
        "6537": 159,
        "6538": 156,
        "6539": 2,
        "6540": 157,
        "6541": 209,
        "6542": 87,
        "6543": 102,
        "6544": 12,
        "6545": 115,
        "6546": 176,
        "6547": 74,
        "6548": 201,
        "6549": 104,
        "6550": 202,
        "6551": 40,
        "6552": 96,
        "6553": 204,
        "6554": 5,
        "6555": 178,
        "6556": 18,
        "6557": 40,
        "6558": 20,
        "6559": 158,
        "6560": 27,
        "6561": 233,
        "6562": 150,
        "6563": 154,
        "6564": 179,
        "6565": 152,
        "6566": 82,
        "6567": 227,
        "6568": 81,
        "6569": 187,
        "6570": 219,
        "6571": 208,
        "6572": 129,
        "6573": 48,
        "6574": 192,
        "6575": 155,
        "6576": 11,
        "6577": 232,
        "6578": 58,
        "6579": 15,
        "6580": 104,
        "6581": 96,
        "6582": 156,
        "6583": 226,
        "6584": 218,
        "6585": 194,
        "6586": 136,
        "6587": 134,
        "6588": 100,
        "6589": 113,
        "6590": 24,
        "6591": 225,
        "6592": 137,
        "6593": 136,
        "6594": 22,
        "6595": 125,
        "6596": 145,
        "6597": 87,
        "6598": 157,
        "6599": 128,
        "6600": 98,
        "6601": 4,
        "6602": 222,
        "6603": 223,
        "6604": 96,
        "6605": 253,
        "6606": 162,
        "6607": 231,
        "6608": 103,
        "6609": 145,
        "6610": 58,
        "6611": 84,
        "6612": 198,
        "6613": 56,
        "6614": 34,
        "6615": 70,
        "6616": 167,
        "6617": 88,
        "6618": 11,
        "6619": 146,
        "6620": 250,
        "6621": 209,
        "6622": 148,
        "6623": 27,
        "6624": 195,
        "6625": 148,
        "6626": 108,
        "6627": 42,
        "6628": 36,
        "6629": 195,
        "6630": 96,
        "6631": 106,
        "6632": 248,
        "6633": 84,
        "6634": 80,
        "6635": 131,
        "6636": 221,
        "6637": 132,
        "6638": 71,
        "6639": 14,
        "6640": 64,
        "6641": 168,
        "6642": 222,
        "6643": 110,
        "6644": 63,
        "6645": 233,
        "6646": 159,
        "6647": 117,
        "6648": 14,
        "6649": 206,
        "6650": 99,
        "6651": 8,
        "6652": 121,
        "6653": 110,
        "6654": 218,
        "6655": 172,
        "6656": 177,
        "6657": 77,
        "6658": 179,
        "6659": 36,
        "6660": 30,
        "6661": 34,
        "6662": 125,
        "6663": 243,
        "6664": 54,
        "6665": 191,
        "6666": 231,
        "6667": 58,
        "6668": 159,
        "6669": 102,
        "6670": 226,
        "6671": 143,
        "6672": 169,
        "6673": 23,
        "6674": 204,
        "6675": 249,
        "6676": 57,
        "6677": 116,
        "6678": 154,
        "6679": 13,
        "6680": 205,
        "6681": 126,
        "6682": 156,
        "6683": 98,
        "6684": 116,
        "6685": 120,
        "6686": 240,
        "6687": 138,
        "6688": 59,
        "6689": 87,
        "6690": 225,
        "6691": 156,
        "6692": 221,
        "6693": 161,
        "6694": 237,
        "6695": 16,
        "6696": 26,
        "6697": 30,
        "6698": 43,
        "6699": 43,
        "6700": 116,
        "6701": 248,
        "6702": 148,
        "6703": 202,
        "6704": 160,
        "6705": 239,
        "6706": 23,
        "6707": 186,
        "6708": 175,
        "6709": 194,
        "6710": 156,
        "6711": 200,
        "6712": 243,
        "6713": 148,
        "6714": 11,
        "6715": 169,
        "6716": 191,
        "6717": 171,
        "6718": 59,
        "6719": 138,
        "6720": 47,
        "6721": 242,
        "6722": 11,
        "6723": 1,
        "6724": 212,
        "6725": 214,
        "6726": 216,
        "6727": 26,
        "6728": 195,
        "6729": 94,
        "6730": 192,
        "6731": 118,
        "6732": 132,
        "6733": 223,
        "6734": 110,
        "6735": 4,
        "6736": 35,
        "6737": 197,
        "6738": 204,
        "6739": 99,
        "6740": 43,
        "6741": 170,
        "6742": 70,
        "6743": 117,
        "6744": 191,
        "6745": 27,
        "6746": 57,
        "6747": 29,
        "6748": 47,
        "6749": 252,
        "6750": 241,
        "6751": 226,
        "6752": 62,
        "6753": 191,
        "6754": 75,
        "6755": 19,
        "6756": 49,
        "6757": 18,
        "6758": 46,
        "6759": 3,
        "6760": 120,
        "6761": 127,
        "6762": 9,
        "6763": 17,
        "6764": 74,
        "6765": 7,
        "6766": 141,
        "6767": 33,
        "6768": 136,
        "6769": 155,
        "6770": 54,
        "6771": 117,
        "6772": 88,
        "6773": 23,
        "6774": 202,
        "6775": 190,
        "6776": 160,
        "6777": 157,
        "6778": 4,
        "6779": 251,
        "6780": 239,
        "6781": 204,
        "6782": 32,
        "6783": 173,
        "6784": 206,
        "6785": 15,
        "6786": 88,
        "6787": 71,
        "6788": 23,
        "6789": 170,
        "6790": 115,
        "6791": 159,
        "6792": 246,
        "6793": 80,
        "6794": 136,
        "6795": 216,
        "6796": 177,
        "6797": 226,
        "6798": 149,
        "6799": 49,
        "6800": 196,
        "6801": 172,
        "6802": 45,
        "6803": 51,
        "6804": 103,
        "6805": 124,
        "6806": 91,
        "6807": 199,
        "6808": 88,
        "6809": 144,
        "6810": 63,
        "6811": 249,
        "6812": 179,
        "6813": 155,
        "6814": 129,
        "6815": 183,
        "6816": 67,
        "6817": 233,
        "6818": 205,
        "6819": 163,
        "6820": 23,
        "6821": 191,
        "6822": 55,
        "6823": 11,
        "6824": 57,
        "6825": 212,
        "6826": 34,
        "6827": 50,
        "6828": 191,
        "6829": 43,
        "6830": 6,
        "6831": 128,
        "6832": 63,
        "6833": 228,
        "6834": 21,
        "6835": 141,
        "6836": 90,
        "6837": 210,
        "6838": 63,
        "6839": 75,
        "6840": 212,
        "6841": 102,
        "6842": 218,
        "6843": 167,
        "6844": 161,
        "6845": 46,
        "6846": 73,
        "6847": 190,
        "6848": 216,
        "6849": 116,
        "6850": 235,
        "6851": 191,
        "6852": 210,
        "6853": 144,
        "6854": 211,
        "6855": 194,
        "6856": 11,
        "6857": 114,
        "6858": 62,
        "6859": 250,
        "6860": 161,
        "6861": 251,
        "6862": 28,
        "6863": 39,
        "6864": 45,
        "6865": 79,
        "6866": 83,
        "6867": 54,
        "6868": 225,
        "6869": 144,
        "6870": 228,
        "6871": 188,
        "6872": 198,
        "6873": 28,
        "6874": 173,
        "6875": 100,
        "6876": 44,
        "6877": 160,
        "6878": 184,
        "6879": 237,
        "6880": 221,
        "6881": 13,
        "6882": 13,
        "6883": 55,
        "6884": 151,
        "6885": 113,
        "6886": 134,
        "6887": 19,
        "6888": 80,
        "6889": 120,
        "6890": 213,
        "6891": 253,
        "6892": 190,
        "6893": 137,
        "6894": 185,
        "6895": 39,
        "6896": 240,
        "6897": 108,
        "6898": 241,
        "6899": 253,
        "6900": 106,
        "6901": 139,
        "6902": 177,
        "6903": 229,
        "6904": 15,
        "6905": 168,
        "6906": 109,
        "6907": 129,
        "6908": 157,
        "6909": 128,
        "6910": 213,
        "6911": 77,
        "6912": 180,
        "6913": 198,
        "6914": 160,
        "6915": 51,
        "6916": 65,
        "6917": 11,
        "6918": 247,
        "6919": 76,
        "6920": 233,
        "6921": 23,
        "6922": 52,
        "6923": 151,
        "6924": 57,
        "6925": 237,
        "6926": 68,
        "6927": 175,
        "6928": 14,
        "6929": 58,
        "6930": 223,
        "6931": 229,
        "6932": 104,
        "6933": 77,
        "6934": 185,
        "6935": 166,
        "6936": 118,
        "6937": 48,
        "6938": 47,
        "6939": 79,
        "6940": 213,
        "6941": 160,
        "6942": 111,
        "6943": 199,
        "6944": 122,
        "6945": 224,
        "6946": 41,
        "6947": 96,
        "6948": 17,
        "6949": 0,
        "6950": 128,
        "6951": 79,
        "6952": 157,
        "6953": 111,
        "6954": 205,
        "6955": 71,
        "6956": 74,
        "6957": 226,
        "6958": 112,
        "6959": 145,
        "6960": 246,
        "6961": 69,
        "6962": 97,
        "6963": 79,
        "6964": 228,
        "6965": 163,
        "6966": 86,
        "6967": 131,
        "6968": 33,
        "6969": 187,
        "6970": 111,
        "6971": 98,
        "6972": 222,
        "6973": 52,
        "6974": 90,
        "6975": 105,
        "6976": 55,
        "6977": 221,
        "6978": 131,
        "6979": 105,
        "6980": 146,
        "6981": 89,
        "6982": 59,
        "6983": 155,
        "6984": 123,
        "6985": 237,
        "6986": 15,
        "6987": 58,
        "6988": 133,
        "6989": 236,
        "6990": 204,
        "6991": 116,
        "6992": 49,
        "6993": 14,
        "6994": 101,
        "6995": 162,
        "6996": 236,
        "6997": 225,
        "6998": 154,
        "6999": 103,
        "7000": 173,
        "7001": 175,
        "7002": 37,
        "7003": 47,
        "7004": 28,
        "7005": 11,
        "7006": 152,
        "7007": 154,
        "7008": 253,
        "7009": 72,
        "7010": 76,
        "7011": 115,
        "7012": 40,
        "7013": 245,
        "7014": 100,
        "7015": 125,
        "7016": 123,
        "7017": 157,
        "7018": 50,
        "7019": 175,
        "7020": 112,
        "7021": 51,
        "7022": 128,
        "7023": 112,
        "7024": 108,
        "7025": 221,
        "7026": 14,
        "7027": 29,
        "7028": 198,
        "7029": 145,
        "7030": 152,
        "7031": 23,
        "7032": 176,
        "7033": 183,
        "7034": 48,
        "7035": 252,
        "7036": 71,
        "7037": 14,
        "7038": 208,
        "7039": 157,
        "7040": 166,
        "7041": 77,
        "7042": 223,
        "7043": 120,
        "7044": 240,
        "7045": 249,
        "7046": 170,
        "7047": 193,
        "7048": 184,
        "7049": 112,
        "7050": 111,
        "7051": 82,
        "7052": 6,
        "7053": 191,
        "7054": 75,
        "7055": 27,
        "7056": 12,
        "7057": 37,
        "7058": 78,
        "7059": 76,
        "7060": 118,
        "7061": 147,
        "7062": 32,
        "7063": 135,
        "7064": 35,
        "7065": 26,
        "7066": 245,
        "7067": 185,
        "7068": 50,
        "7069": 169,
        "7070": 120,
        "7071": 45,
        "7072": 9,
        "7073": 118,
        "7074": 190,
        "7075": 27,
        "7076": 24,
        "7077": 152,
        "7078": 235,
        "7079": 245,
        "7080": 248,
        "7081": 58,
        "7082": 96,
        "7083": 208,
        "7084": 132,
        "7085": 107,
        "7086": 18,
        "7087": 130,
        "7088": 171,
        "7089": 180,
        "7090": 199,
        "7091": 29,
        "7092": 218,
        "7093": 69,
        "7094": 165,
        "7095": 61,
        "7096": 161,
        "7097": 109,
        "7098": 8,
        "7099": 129,
        "7100": 119,
        "7101": 88,
        "7102": 204,
        "7103": 108,
        "7104": 233,
        "7105": 186,
        "7106": 65,
        "7107": 203,
        "7108": 46,
        "7109": 34,
        "7110": 97,
        "7111": 41,
        "7112": 111,
        "7113": 241,
        "7114": 160,
        "7115": 135,
        "7116": 82,
        "7117": 19,
        "7118": 8,
        "7119": 28,
        "7120": 193,
        "7121": 65,
        "7122": 149,
        "7123": 188,
        "7124": 30,
        "7125": 156,
        "7126": 253,
        "7127": 63,
        "7128": 90,
        "7129": 106,
        "7130": 82,
        "7131": 98,
        "7132": 166,
        "7133": 218,
        "7134": 37,
        "7135": 210,
        "7136": 65,
        "7137": 29,
        "7138": 181,
        "7139": 139,
        "7140": 58,
        "7141": 77,
        "7142": 101,
        "7143": 16,
        "7144": 184,
        "7145": 183,
        "7146": 19,
        "7147": 57,
        "7148": 54,
        "7149": 69,
        "7150": 178,
        "7151": 185,
        "7152": 133,
        "7153": 70,
        "7154": 221,
        "7155": 111,
        "7156": 37,
        "7157": 71,
        "7158": 162,
        "7159": 110,
        "7160": 66,
        "7161": 247,
        "7162": 106,
        "7163": 39,
        "7164": 246,
        "7165": 83,
        "7166": 72,
        "7167": 247,
        "7168": 66,
        "7169": 17,
        "7170": 54,
        "7171": 131,
        "7172": 133,
        "7173": 131,
        "7174": 2,
        "7175": 5,
        "7176": 170,
        "7177": 106,
        "7178": 165,
        "7179": 119,
        "7180": 83,
        "7181": 243,
        "7182": 93,
        "7183": 166,
        "7184": 162,
        "7185": 208,
        "7186": 188,
        "7187": 216,
        "7188": 90,
        "7189": 48,
        "7190": 180,
        "7191": 25,
        "7192": 19,
        "7193": 224,
        "7194": 84,
        "7195": 56,
        "7196": 98,
        "7197": 36,
        "7198": 74,
        "7199": 52,
        "7200": 135,
        "7201": 245,
        "7202": 96,
        "7203": 141,
        "7204": 202,
        "7205": 207,
        "7206": 17,
        "7207": 183,
        "7208": 143,
        "7209": 215,
        "7210": 45,
        "7211": 75,
        "7212": 197,
        "7213": 158,
        "7214": 159,
        "7215": 140,
        "7216": 21,
        "7217": 12,
        "7218": 222,
        "7219": 213,
        "7220": 163,
        "7221": 28,
        "7222": 56,
        "7223": 75,
        "7224": 93,
        "7225": 107,
        "7226": 160,
        "7227": 122,
        "7228": 23,
        "7229": 208,
        "7230": 120,
        "7231": 59,
        "7232": 109,
        "7233": 59,
        "7234": 54,
        "7235": 234,
        "7236": 111,
        "7237": 163,
        "7238": 179,
        "7239": 148,
        "7240": 158,
        "7241": 214,
        "7242": 160,
        "7243": 99,
        "7244": 69,
        "7245": 218,
        "7246": 84,
        "7247": 51,
        "7248": 201,
        "7249": 34,
        "7250": 51,
        "7251": 205,
        "7252": 181,
        "7253": 44,
        "7254": 188,
        "7255": 245,
        "7256": 179,
        "7257": 69,
        "7258": 170,
        "7259": 78,
        "7260": 252,
        "7261": 241,
        "7262": 171,
        "7263": 202,
        "7264": 49,
        "7265": 73,
        "7266": 86,
        "7267": 65,
        "7268": 30,
        "7269": 124,
        "7270": 111,
        "7271": 229,
        "7272": 166,
        "7273": 41,
        "7274": 183,
        "7275": 197,
        "7276": 48,
        "7277": 199,
        "7278": 209,
        "7279": 5,
        "7280": 100,
        "7281": 212,
        "7282": 235,
        "7283": 222,
        "7284": 161,
        "7285": 181,
        "7286": 12,
        "7287": 112,
        "7288": 30,
        "7289": 90,
        "7290": 92,
        "7291": 166,
        "7292": 82,
        "7293": 40,
        "7294": 112,
        "7295": 194,
        "7296": 189,
        "7297": 18,
        "7298": 71,
        "7299": 175,
        "7300": 81,
        "7301": 192,
        "7302": 1,
        "7303": 163,
        "7304": 67,
        "7305": 215,
        "7306": 33,
        "7307": 14,
        "7308": 148,
        "7309": 211,
        "7310": 60,
        "7311": 123,
        "7312": 248,
        "7313": 72,
        "7314": 37,
        "7315": 145,
        "7316": 156,
        "7317": 130,
        "7318": 80,
        "7319": 22,
        "7320": 117,
        "7321": 96,
        "7322": 239,
        "7323": 81,
        "7324": 74,
        "7325": 240,
        "7326": 180,
        "7327": 152,
        "7328": 251,
        "7329": 76,
        "7330": 172,
        "7331": 126,
        "7332": 243,
        "7333": 9,
        "7334": 4,
        "7335": 224,
        "7336": 152,
        "7337": 81,
        "7338": 124,
        "7339": 50,
        "7340": 67,
        "7341": 111,
        "7342": 213,
        "7343": 75,
        "7344": 14,
        "7345": 174,
        "7346": 193,
        "7347": 143,
        "7348": 148,
        "7349": 252,
        "7350": 85,
        "7351": 15,
        "7352": 175,
        "7353": 55,
        "7354": 246,
        "7355": 251,
        "7356": 247,
        "7357": 76,
        "7358": 23,
        "7359": 15,
        "7360": 221,
        "7361": 88,
        "7362": 209,
        "7363": 248,
        "7364": 227,
        "7365": 179,
        "7366": 228,
        "7367": 62,
        "7368": 113,
        "7369": 199,
        "7370": 14,
        "7371": 4,
        "7372": 86,
        "7373": 158,
        "7374": 175,
        "7375": 213,
        "7376": 64,
        "7377": 178,
        "7378": 245,
        "7379": 213,
        "7380": 29,
        "7381": 104,
        "7382": 135,
        "7383": 70,
        "7384": 162,
        "7385": 234,
        "7386": 102,
        "7387": 242,
        "7388": 44,
        "7389": 208,
        "7390": 208,
        "7391": 236,
        "7392": 228,
        "7393": 252,
        "7394": 165,
        "7395": 149,
        "7396": 204,
        "7397": 110,
        "7398": 254,
        "7399": 203,
        "7400": 255,
        "7401": 141,
        "7402": 49,
        "7403": 17,
        "7404": 71,
        "7405": 221,
        "7406": 255,
        "7407": 75,
        "7408": 166,
        "7409": 200,
        "7410": 13,
        "7411": 16,
        "7412": 77,
        "7413": 99,
        "7414": 137,
        "7415": 26,
        "7416": 53,
        "7417": 215,
        "7418": 118,
        "7419": 63,
        "7420": 184,
        "7421": 30,
        "7422": 122,
        "7423": 77,
        "7424": 125,
        "7425": 231,
        "7426": 161,
        "7427": 18,
        "7428": 105,
        "7429": 114,
        "7430": 200,
        "7431": 31,
        "7432": 151,
        "7433": 168,
        "7434": 100,
        "7435": 203,
        "7436": 126,
        "7437": 133,
        "7438": 117,
        "7439": 46,
        "7440": 20,
        "7441": 243,
        "7442": 71,
        "7443": 20,
        "7444": 37,
        "7445": 121,
        "7446": 80,
        "7447": 108,
        "7448": 126,
        "7449": 93,
        "7450": 193,
        "7451": 131,
        "7452": 85,
        "7453": 81,
        "7454": 211,
        "7455": 25,
        "7456": 156,
        "7457": 220,
        "7458": 129,
        "7459": 64,
        "7460": 98,
        "7461": 244,
        "7462": 0,
        "7463": 92,
        "7464": 83,
        "7465": 247,
        "7466": 90,
        "7467": 239,
        "7468": 133,
        "7469": 169,
        "7470": 31,
        "7471": 82,
        "7472": 122,
        "7473": 159,
        "7474": 36,
        "7475": 143,
        "7476": 178,
        "7477": 254,
        "7478": 159,
        "7479": 119,
        "7480": 137,
        "7481": 30,
        "7482": 62,
        "7483": 153,
        "7484": 5,
        "7485": 63,
        "7486": 242,
        "7487": 102,
        "7488": 98,
        "7489": 200,
        "7490": 66,
        "7491": 232,
        "7492": 23,
        "7493": 198,
        "7494": 5,
        "7495": 218,
        "7496": 198,
        "7497": 40,
        "7498": 20,
        "7499": 195,
        "7500": 191,
        "7501": 252,
        "7502": 62,
        "7503": 151,
        "7504": 223,
        "7505": 185,
        "7506": 113,
        "7507": 76,
        "7508": 244,
        "7509": 178,
        "7510": 110,
        "7511": 5,
        "7512": 68,
        "7513": 174,
        "7514": 133,
        "7515": 161,
        "7516": 124,
        "7517": 254,
        "7518": 46,
        "7519": 209,
        "7520": 136,
        "7521": 89,
        "7522": 87,
        "7523": 68,
        "7524": 89,
        "7525": 163,
        "7526": 182,
        "7527": 71,
        "7528": 37,
        "7529": 86,
        "7530": 22,
        "7531": 99,
        "7532": 71,
        "7533": 232,
        "7534": 95,
        "7535": 20,
        "7536": 81,
        "7537": 101,
        "7538": 223,
        "7539": 51,
        "7540": 225,
        "7541": 155,
        "7542": 142,
        "7543": 227,
        "7544": 170,
        "7545": 102,
        "7546": 162,
        "7547": 187,
        "7548": 127,
        "7549": 242,
        "7550": 16,
        "7551": 96,
        "7552": 75,
        "7553": 173,
        "7554": 132,
        "7555": 124,
        "7556": 53,
        "7557": 144,
        "7558": 167,
        "7559": 184,
        "7560": 251,
        "7561": 184,
        "7562": 120,
        "7563": 246,
        "7564": 34,
        "7565": 77,
        "7566": 61,
        "7567": 59,
        "7568": 82,
        "7569": 129,
        "7570": 5,
        "7571": 197,
        "7572": 228,
        "7573": 8,
        "7574": 69,
        "7575": 249,
        "7576": 180,
        "7577": 60,
        "7578": 145,
        "7579": 204,
        "7580": 210,
        "7581": 183,
        "7582": 117,
        "7583": 6,
        "7584": 94,
        "7585": 82,
        "7586": 108,
        "7587": 36,
        "7588": 123,
        "7589": 58,
        "7590": 119,
        "7591": 252,
        "7592": 145,
        "7593": 147,
        "7594": 66,
        "7595": 210,
        "7596": 221,
        "7597": 114,
        "7598": 19,
        "7599": 160,
        "7600": 19,
        "7601": 29,
        "7602": 188,
        "7603": 61,
        "7604": 15,
        "7605": 141,
        "7606": 123,
        "7607": 140,
        "7608": 246,
        "7609": 196,
        "7610": 8,
        "7611": 47,
        "7612": 58,
        "7613": 40,
        "7614": 227,
        "7615": 60,
        "7616": 175,
        "7617": 169,
        "7618": 238,
        "7619": 28,
        "7620": 251,
        "7621": 227,
        "7622": 56,
        "7623": 116,
        "7624": 242,
        "7625": 41,
        "7626": 72,
        "7627": 180,
        "7628": 10,
        "7629": 8,
        "7630": 214,
        "7631": 255,
        "7632": 0,
        "7633": 11,
        "7634": 143,
        "7635": 119,
        "7636": 255,
        "7637": 181,
        "7638": 117,
        "7639": 5,
        "7640": 172,
        "7641": 218,
        "7642": 252,
        "7643": 75,
        "7644": 48,
        "7645": 107,
        "7646": 226,
        "7647": 46,
        "7648": 59,
        "7649": 207,
        "7650": 103,
        "7651": 144,
        "7652": 92,
        "7653": 225,
        "7654": 58,
        "7655": 129,
        "7656": 231,
        "7657": 11,
        "7658": 153,
        "7659": 121,
        "7660": 59,
        "7661": 81,
        "7662": 151,
        "7663": 217,
        "7664": 241,
        "7665": 47,
        "7666": 215,
        "7667": 174,
        "7668": 2,
        "7669": 164,
        "7670": 119,
        "7671": 164,
        "7672": 16,
        "7673": 122,
        "7674": 141,
        "7675": 123,
        "7676": 198,
        "7677": 150,
        "7678": 164,
        "7679": 109,
        "7680": 77,
        "7681": 52,
        "7682": 71,
        "7683": 23,
        "7684": 185,
        "7685": 82,
        "7686": 207,
        "7687": 248,
        "7688": 62,
        "7689": 9,
        "7690": 55,
        "7691": 10,
        "7692": 70,
        "7693": 138,
        "7694": 222,
        "7695": 190,
        "7696": 160,
        "7697": 69,
        "7698": 120,
        "7699": 116,
        "7700": 202,
        "7701": 201,
        "7702": 58,
        "7703": 154,
        "7704": 251,
        "7705": 252,
        "7706": 41,
        "7707": 143,
        "7708": 206,
        "7709": 45,
        "7710": 138,
        "7711": 59,
        "7712": 35,
        "7713": 231,
        "7714": 214,
        "7715": 73,
        "7716": 165,
        "7717": 176,
        "7718": 52,
        "7719": 21,
        "7720": 194,
        "7721": 81,
        "7722": 75,
        "7723": 247,
        "7724": 151,
        "7725": 46,
        "7726": 162,
        "7727": 187,
        "7728": 241,
        "7729": 190,
        "7730": 114,
        "7731": 103,
        "7732": 160,
        "7733": 255,
        "7734": 204,
        "7735": 73,
        "7736": 16,
        "7737": 161,
        "7738": 166,
        "7739": 96,
        "7740": 215,
        "7741": 36,
        "7742": 102,
        "7743": 88,
        "7744": 225,
        "7745": 178,
        "7746": 99,
        "7747": 229,
        "7748": 129,
        "7749": 128,
        "7750": 115,
        "7751": 214,
        "7752": 176,
        "7753": 95,
        "7754": 171,
        "7755": 213,
        "7756": 113,
        "7757": 158,
        "7758": 127,
        "7759": 249,
        "7760": 113,
        "7761": 220,
        "7762": 237,
        "7763": 241,
        "7764": 62,
        "7765": 47,
        "7766": 92,
        "7767": 61,
        "7768": 216,
        "7769": 106,
        "7770": 46,
        "7771": 73,
        "7772": 207,
        "7773": 38,
        "7774": 235,
        "7775": 152,
        "7776": 36,
        "7777": 123,
        "7778": 172,
        "7779": 82,
        "7780": 222,
        "7781": 125,
        "7782": 137,
        "7783": 159,
        "7784": 101,
        "7785": 20,
        "7786": 243,
        "7787": 132,
        "7788": 122,
        "7789": 219,
        "7790": 55,
        "7791": 124,
        "7792": 213,
        "7793": 31,
        "7794": 75,
        "7795": 251,
        "7796": 237,
        "7797": 131,
        "7798": 130,
        "7799": 47,
        "7800": 114,
        "7801": 55,
        "7802": 113,
        "7803": 80,
        "7804": 45,
        "7805": 116,
        "7806": 119,
        "7807": 161,
        "7808": 190,
        "7809": 81,
        "7810": 243,
        "7811": 59,
        "7812": 130,
        "7813": 158,
        "7814": 66,
        "7815": 222,
        "7816": 130,
        "7817": 241,
        "7818": 45,
        "7819": 104,
        "7820": 195,
        "7821": 255,
        "7822": 237,
        "7823": 245,
        "7824": 71,
        "7825": 139,
        "7826": 193,
        "7827": 218,
        "7828": 169,
        "7829": 26,
        "7830": 174,
        "7831": 206,
        "7832": 141,
        "7833": 29,
        "7834": 16,
        "7835": 186,
        "7836": 183,
        "7837": 118,
        "7838": 26,
        "7839": 79,
        "7840": 237,
        "7841": 193,
        "7842": 136,
        "7843": 180,
        "7844": 53,
        "7845": 176,
        "7846": 55,
        "7847": 96,
        "7848": 149,
        "7849": 151,
        "7850": 109,
        "7851": 57,
        "7852": 96,
        "7853": 131,
        "7854": 192,
        "7855": 184,
        "7856": 191,
        "7857": 145,
        "7858": 91,
        "7859": 104,
        "7860": 175,
        "7861": 136,
        "7862": 85,
        "7863": 12,
        "7864": 116,
        "7865": 243,
        "7866": 112,
        "7867": 228,
        "7868": 108,
        "7869": 221,
        "7870": 21,
        "7871": 21,
        "7872": 15,
        "7873": 164,
        "7874": 48,
        "7875": 2,
        "7876": 35,
        "7877": 39,
        "7878": 219,
        "7879": 41,
        "7880": 127,
        "7881": 42,
        "7882": 248,
        "7883": 65,
        "7884": 147,
        "7885": 209,
        "7886": 18,
        "7887": 110,
        "7888": 41,
        "7889": 88,
        "7890": 90,
        "7891": 88,
        "7892": 144,
        "7893": 207,
        "7894": 224,
        "7895": 160,
        "7896": 94,
        "7897": 184,
        "7898": 226,
        "7899": 14,
        "7900": 254,
        "7901": 136,
        "7902": 91,
        "7903": 72,
        "7904": 226,
        "7905": 227,
        "7906": 176,
        "7907": 18,
        "7908": 225,
        "7909": 57,
        "7910": 252,
        "7911": 17,
        "7912": 245,
        "7913": 143,
        "7914": 16,
        "7915": 178,
        "7916": 59,
        "7917": 71,
        "7918": 6,
        "7919": 173,
        "7920": 103,
        "7921": 3,
        "7922": 58,
        "7923": 63,
        "7924": 133,
        "7925": 253,
        "7926": 185,
        "7927": 35,
        "7928": 126,
        "7929": 254,
        "7930": 222,
        "7931": 233,
        "7932": 85,
        "7933": 54,
        "7934": 247,
        "7935": 213,
        "7936": 5,
        "7937": 10,
        "7938": 104,
        "7939": 36,
        "7940": 180,
        "7941": 92,
        "7942": 122,
        "7943": 242,
        "7944": 83,
        "7945": 68,
        "7946": 58,
        "7947": 171,
        "7948": 5,
        "7949": 171,
        "7950": 68,
        "7951": 72,
        "7952": 96,
        "7953": 215,
        "7954": 245,
        "7955": 197,
        "7956": 180,
        "7957": 136,
        "7958": 231,
        "7959": 131,
        "7960": 46,
        "7961": 44,
        "7962": 249,
        "7963": 250,
        "7964": 195,
        "7965": 121,
        "7966": 68,
        "7967": 235,
        "7968": 32,
        "7969": 236,
        "7970": 44,
        "7971": 173,
        "7972": 35,
        "7973": 159,
        "7974": 225,
        "7975": 25,
        "7976": 97,
        "7977": 37,
        "7978": 205,
        "7979": 128,
        "7980": 232,
        "7981": 48,
        "7982": 176,
        "7983": 34,
        "7984": 69,
        "7985": 189,
        "7986": 219,
        "7987": 111,
        "7988": 244,
        "7989": 147,
        "7990": 28,
        "7991": 24,
        "7992": 166,
        "7993": 98,
        "7994": 43,
        "7995": 98,
        "7996": 139,
        "7997": 7,
        "7998": 119,
        "7999": 230,
        "8000": 165,
        "8001": 73,
        "8002": 186,
        "8003": 113,
        "8004": 216,
        "8005": 5,
        "8006": 242,
        "8007": 68,
        "8008": 177,
        "8009": 207,
        "8010": 82,
        "8011": 175,
        "8012": 193,
        "8013": 35,
        "8014": 137,
        "8015": 38,
        "8016": 108,
        "8017": 87,
        "8018": 24,
        "8019": 217,
        "8020": 153,
        "8021": 2,
        "8022": 18,
        "8023": 252,
        "8024": 120,
        "8025": 250,
        "8026": 169,
        "8027": 228,
        "8028": 146,
        "8029": 192,
        "8030": 194,
        "8031": 24,
        "8032": 50,
        "8033": 199,
        "8034": 174,
        "8035": 46,
        "8036": 212,
        "8037": 19,
        "8038": 19,
        "8039": 174,
        "8040": 8,
        "8041": 196,
        "8042": 151,
        "8043": 216,
        "8044": 78,
        "8045": 69,
        "8046": 19,
        "8047": 92,
        "8048": 234,
        "8049": 164,
        "8050": 47,
        "8051": 196,
        "8052": 5,
        "8053": 55,
        "8054": 197,
        "8055": 107,
        "8056": 1,
        "8057": 47,
        "8058": 41,
        "8059": 127,
        "8060": 99,
        "8061": 59,
        "8062": 160,
        "8063": 159,
        "8064": 94,
        "8065": 13,
        "8066": 55,
        "8067": 247,
        "8068": 195,
        "8069": 201,
        "8070": 149,
        "8071": 38,
        "8072": 126,
        "8073": 95,
        "8074": 164,
        "8075": 225,
        "8076": 123,
        "8077": 217,
        "8078": 255,
        "8079": 127,
        "8080": 218,
        "8081": 241,
        "8082": 114,
        "8083": 68,
        "8084": 52,
        "8085": 199,
        "8086": 173,
        "8087": 45,
        "8088": 185,
        "8089": 246,
        "8090": 181,
        "8091": 240,
        "8092": 79,
        "8093": 88,
        "8094": 159,
        "8095": 190,
        "8096": 165,
        "8097": 133,
        "8098": 157,
        "8099": 43,
        "8100": 160,
        "8101": 179,
        "8102": 243,
        "8103": 165,
        "8104": 43,
        "8105": 114,
        "8106": 84,
        "8107": 218,
        "8108": 146,
        "8109": 166,
        "8110": 29,
        "8111": 8,
        "8112": 250,
        "8113": 63,
        "8114": 125,
        "8115": 12,
        "8116": 71,
        "8117": 217,
        "8118": 81,
        "8119": 120,
        "8120": 95,
        "8121": 232,
        "8122": 134,
        "8123": 128,
        "8124": 166,
        "8125": 46,
        "8126": 189,
        "8127": 156,
        "8128": 0,
        "8129": 175,
        "8130": 201,
        "8131": 176,
        "8132": 148,
        "8133": 132,
        "8134": 85,
        "8135": 152,
        "8136": 93,
        "8137": 90,
        "8138": 134,
        "8139": 149,
        "8140": 175,
        "8141": 152,
        "8142": 119,
        "8143": 99,
        "8144": 146,
        "8145": 149,
        "8146": 19,
        "8147": 100,
        "8148": 24,
        "8149": 26,
        "8150": 245,
        "8151": 41,
        "8152": 53,
        "8153": 21,
        "8154": 38,
        "8155": 117,
        "8156": 196,
        "8157": 115,
        "8158": 108,
        "8159": 221,
        "8160": 227,
        "8161": 98,
        "8162": 64,
        "8163": 160,
        "8164": 49,
        "8165": 200,
        "8166": 157,
        "8167": 245,
        "8168": 177,
        "8169": 89,
        "8170": 29,
        "8171": 162,
        "8172": 14,
        "8173": 142,
        "8174": 168,
        "8175": 76,
        "8176": 129,
        "8177": 168,
        "8178": 145,
        "8179": 95,
        "8180": 67,
        "8181": 43,
        "8182": 26,
        "8183": 239,
        "8184": 163,
        "8185": 150,
        "8186": 73,
        "8187": 68,
        "8188": 189,
        "8189": 5,
        "8190": 235,
        "8191": 195,
        "8192": 179,
        "8193": 245,
        "8194": 115,
        "8195": 115,
        "8196": 38,
        "8197": 121,
        "8198": 235,
        "8199": 217,
        "8200": 177,
        "8201": 246,
        "8202": 210,
        "8203": 135,
        "8204": 119,
        "8205": 114,
        "8206": 146,
        "8207": 116,
        "8208": 165,
        "8209": 164,
        "8210": 43,
        "8211": 75,
        "8212": 142,
        "8213": 239,
        "8214": 71,
        "8215": 18,
        "8216": 126,
        "8217": 29,
        "8218": 94,
        "8219": 191,
        "8220": 173,
        "8221": 237,
        "8222": 167,
        "8223": 19,
        "8224": 0,
        "8225": 107,
        "8226": 140,
        "8227": 160,
        "8228": 40,
        "8229": 218,
        "8230": 206,
        "8231": 43,
        "8232": 140,
        "8233": 114,
        "8234": 60,
        "8235": 77,
        "8236": 164,
        "8237": 97,
        "8238": 117,
        "8239": 173,
        "8240": 194,
        "8241": 208,
        "8242": 117,
        "8243": 160,
        "8244": 140,
        "8245": 107,
        "8246": 105,
        "8247": 148,
        "8248": 127,
        "8249": 206,
        "8250": 15,
        "8251": 248,
        "8252": 42,
        "8253": 65,
        "8254": 249,
        "8255": 125,
        "8256": 246,
        "8257": 229,
        "8258": 203,
        "8259": 159,
        "8260": 229,
        "8261": 236,
        "8262": 149,
        "8263": 46,
        "8264": 132,
        "8265": 157,
        "8266": 163,
        "8267": 235,
        "8268": 157,
        "8269": 162,
        "8270": 79,
        "8271": 241,
        "8272": 51,
        "8273": 86,
        "8274": 206,
        "8275": 102,
        "8276": 150,
        "8277": 220,
        "8278": 172,
        "8279": 95,
        "8280": 195,
        "8281": 92,
        "8282": 149,
        "8283": 78,
        "8284": 184,
        "8285": 233,
        "8286": 12,
        "8287": 101,
        "8288": 88,
        "8289": 32,
        "8290": 52,
        "8291": 222,
        "8292": 95,
        "8293": 134,
        "8294": 240,
        "8295": 196,
        "8296": 212,
        "8297": 219,
        "8298": 100,
        "8299": 144,
        "8300": 72,
        "8301": 91,
        "8302": 239,
        "8303": 171,
        "8304": 192,
        "8305": 137,
        "8306": 199,
        "8307": 213,
        "8308": 189,
        "8309": 20,
        "8310": 178,
        "8311": 216,
        "8312": 93,
        "8313": 116,
        "8314": 101,
        "8315": 114,
        "8316": 163,
        "8317": 21,
        "8318": 34,
        "8319": 98,
        "8320": 115,
        "8321": 252,
        "8322": 203,
        "8323": 40,
        "8324": 93,
        "8325": 127,
        "8326": 52,
        "8327": 170,
        "8328": 243,
        "8329": 153,
        "8330": 167,
        "8331": 158,
        "8332": 187,
        "8333": 197,
        "8334": 202,
        "8335": 122,
        "8336": 130,
        "8337": 133,
        "8338": 254,
        "8339": 48,
        "8340": 92,
        "8341": 97,
        "8342": 232,
        "8343": 136,
        "8344": 95,
        "8345": 212,
        "8346": 226,
        "8347": 173,
        "8348": 72,
        "8349": 50,
        "8350": 232,
        "8351": 110,
        "8352": 254,
        "8353": 222,
        "8354": 16,
        "8355": 138,
        "8356": 163,
        "8357": 124,
        "8358": 110,
        "8359": 204,
        "8360": 34,
        "8361": 112,
        "8362": 98,
        "8363": 253,
        "8364": 21,
        "8365": 230,
        "8366": 124,
        "8367": 153,
        "8368": 184,
        "8369": 138,
        "8370": 21,
        "8371": 244,
        "8372": 16,
        "8373": 29,
        "8374": 187,
        "8375": 46,
        "8376": 142,
        "8377": 174,
        "8378": 141,
        "8379": 103,
        "8380": 71,
        "8381": 132,
        "8382": 76,
        "8383": 69,
        "8384": 215,
        "8385": 65,
        "8386": 11,
        "8387": 97,
        "8388": 149,
        "8389": 115,
        "8390": 187,
        "8391": 95,
        "8392": 4,
        "8393": 246,
        "8394": 173,
        "8395": 32,
        "8396": 136,
        "8397": 155,
        "8398": 131,
        "8399": 34,
        "8400": 220,
        "8401": 113,
        "8402": 180,
        "8403": 107,
        "8404": 32,
        "8405": 240,
        "8406": 196,
        "8407": 112,
        "8408": 215,
        "8409": 246,
        "8410": 174,
        "8411": 93,
        "8412": 230,
        "8413": 58,
        "8414": 30,
        "8415": 92,
        "8416": 131,
        "8417": 172,
        "8418": 227,
        "8419": 225,
        "8420": 118,
        "8421": 224,
        "8422": 86,
        "8423": 114,
        "8424": 93,
        "8425": 194,
        "8426": 219,
        "8427": 247,
        "8428": 225,
        "8429": 164,
        "8430": 75,
        "8431": 203,
        "8432": 88,
        "8433": 31,
        "8434": 185,
        "8435": 14,
        "8436": 253,
        "8437": 176,
        "8438": 183,
        "8439": 65,
        "8440": 155,
        "8441": 27,
        "8442": 126,
        "8443": 142,
        "8444": 161,
        "8445": 44,
        "8446": 224,
        "8447": 143,
        "8448": 12,
        "8449": 180,
        "8450": 158,
        "8451": 33,
        "8452": 53,
        "8453": 36,
        "8454": 206,
        "8455": 233,
        "8456": 165,
        "8457": 73,
        "8458": 222,
        "8459": 91,
        "8460": 133,
        "8461": 226,
        "8462": 78,
        "8463": 99,
        "8464": 69,
        "8465": 233,
        "8466": 207,
        "8467": 243,
        "8468": 151,
        "8469": 161,
        "8470": 163,
        "8471": 18,
        "8472": 77,
        "8473": 87,
        "8474": 141,
        "8475": 1,
        "8476": 168,
        "8477": 238,
        "8478": 252,
        "8479": 198,
        "8480": 127,
        "8481": 186,
        "8482": 161,
        "8483": 107,
        "8484": 26,
        "8485": 16,
        "8486": 149,
        "8487": 205,
        "8488": 188,
        "8489": 126,
        "8490": 148,
        "8491": 240,
        "8492": 216,
        "8493": 173,
        "8494": 185,
        "8495": 168,
        "8496": 141,
        "8497": 2,
        "8498": 0,
        "8499": 146,
        "8500": 141,
        "8501": 69,
        "8502": 235,
        "8503": 144,
        "8504": 59,
        "8505": 13,
        "8506": 248,
        "8507": 27,
        "8508": 54,
        "8509": 151,
        "8510": 173,
        "8511": 223,
        "8512": 185,
        "8513": 40,
        "8514": 169,
        "8515": 226,
        "8516": 66,
        "8517": 7,
        "8518": 48,
        "8519": 25,
        "8520": 247,
        "8521": 89,
        "8522": 127,
        "8523": 176,
        "8524": 22,
        "8525": 168,
        "8526": 33,
        "8527": 96,
        "8528": 177,
        "8529": 247,
        "8530": 241,
        "8531": 244,
        "8532": 128,
        "8533": 78,
        "8534": 36,
        "8535": 87,
        "8536": 163,
        "8537": 89,
        "8538": 77,
        "8539": 250,
        "8540": 34,
        "8541": 166,
        "8542": 3,
        "8543": 208,
        "8544": 234,
        "8545": 192,
        "8546": 145,
        "8547": 133,
        "8548": 70,
        "8549": 176,
        "8550": 183,
        "8551": 151,
        "8552": 134,
        "8553": 211,
        "8554": 145,
        "8555": 191,
        "8556": 16,
        "8557": 68,
        "8558": 206,
        "8559": 89,
        "8560": 77,
        "8561": 82,
        "8562": 57,
        "8563": 14,
        "8564": 47,
        "8565": 132,
        "8566": 73,
        "8567": 147,
        "8568": 132,
        "8569": 201,
        "8570": 228,
        "8571": 32,
        "8572": 137,
        "8573": 202,
        "8574": 132,
        "8575": 165,
        "8576": 119,
        "8577": 196,
        "8578": 218,
        "8579": 49,
        "8580": 61,
        "8581": 174,
        "8582": 97,
        "8583": 141,
        "8584": 229,
        "8585": 228,
        "8586": 246,
        "8587": 71,
        "8588": 234,
        "8589": 155,
        "8590": 202,
        "8591": 2,
        "8592": 171,
        "8593": 131,
        "8594": 196,
        "8595": 103,
        "8596": 8,
        "8597": 9,
        "8598": 204,
        "8599": 197,
        "8600": 252,
        "8601": 10,
        "8602": 57,
        "8603": 210,
        "8604": 192,
        "8605": 237,
        "8606": 20,
        "8607": 77,
        "8608": 245,
        "8609": 211,
        "8610": 255,
        "8611": 72,
        "8612": 211,
        "8613": 7,
        "8614": 218,
        "8615": 1,
        "8616": 222,
        "8617": 55,
        "8618": 11,
        "8619": 128,
        "8620": 54,
        "8621": 31,
        "8622": 155,
        "8623": 44,
        "8624": 206,
        "8625": 58,
        "8626": 141,
        "8627": 43,
        "8628": 113,
        "8629": 8,
        "8630": 72,
        "8631": 2,
        "8632": 20,
        "8633": 147,
        "8634": 78,
        "8635": 49,
        "8636": 109,
        "8637": 101,
        "8638": 251,
        "8639": 162,
        "8640": 59,
        "8641": 148,
        "8642": 133,
        "8643": 50,
        "8644": 173,
        "8645": 108,
        "8646": 153,
        "8647": 228,
        "8648": 130,
        "8649": 123,
        "8650": 225,
        "8651": 93,
        "8652": 184,
        "8653": 116,
        "8654": 202,
        "8655": 202,
        "8656": 53,
        "8657": 140,
        "8658": 120,
        "8659": 113,
        "8660": 54,
        "8661": 228,
        "8662": 5,
        "8663": 198,
        "8664": 149,
        "8665": 24,
        "8666": 39,
        "8667": 239,
        "8668": 236,
        "8669": 38,
        "8670": 124,
        "8671": 17,
        "8672": 19,
        "8673": 35,
        "8674": 3,
        "8675": 49,
        "8676": 49,
        "8677": 17,
        "8678": 38,
        "8679": 27,
        "8680": 138,
        "8681": 80,
        "8682": 69,
        "8683": 185,
        "8684": 188,
        "8685": 35,
        "8686": 159,
        "8687": 49,
        "8688": 217,
        "8689": 218,
        "8690": 197,
        "8691": 107,
        "8692": 1,
        "8693": 146,
        "8694": 92,
        "8695": 8,
        "8696": 121,
        "8697": 194,
        "8698": 17,
        "8699": 23,
        "8700": 199,
        "8701": 177,
        "8702": 126,
        "8703": 119,
        "8704": 28,
        "8705": 96,
        "8706": 140,
        "8707": 189,
        "8708": 239,
        "8709": 47,
        "8710": 26,
        "8711": 212,
        "8712": 185,
        "8713": 253,
        "8714": 97,
        "8715": 67,
        "8716": 253,
        "8717": 158,
        "8718": 143,
        "8719": 216,
        "8720": 162,
        "8721": 143,
        "8722": 105,
        "8723": 56,
        "8724": 166,
        "8725": 158,
        "8726": 142,
        "8727": 102,
        "8728": 75,
        "8729": 75,
        "8730": 35,
        "8731": 119,
        "8732": 17,
        "8733": 11,
        "8734": 244,
        "8735": 64,
        "8736": 51,
        "8737": 47,
        "8738": 219,
        "8739": 120,
        "8740": 22,
        "8741": 13,
        "8742": 38,
        "8743": 224,
        "8744": 229,
        "8745": 127,
        "8746": 188,
        "8747": 138,
        "8748": 215,
        "8749": 67,
        "8750": 80,
        "8751": 186,
        "8752": 77,
        "8753": 98,
        "8754": 16,
        "8755": 240,
        "8756": 54,
        "8757": 164,
        "8758": 253,
        "8759": 134,
        "8760": 254,
        "8761": 154,
        "8762": 126,
        "8763": 231,
        "8764": 98,
        "8765": 63,
        "8766": 2,
        "8767": 215,
        "8768": 239,
        "8769": 65,
        "8770": 49,
        "8771": 82,
        "8772": 73,
        "8773": 205,
        "8774": 209,
        "8775": 148,
        "8776": 214,
        "8777": 178,
        "8778": 117,
        "8779": 168,
        "8780": 73,
        "8781": 26,
        "8782": 204,
        "8783": 75,
        "8784": 147,
        "8785": 190,
        "8786": 253,
        "8787": 245,
        "8788": 20,
        "8789": 117,
        "8790": 224,
        "8791": 197,
        "8792": 186,
        "8793": 63,
        "8794": 142,
        "8795": 172,
        "8796": 114,
        "8797": 228,
        "8798": 129,
        "8799": 31,
        "8800": 61,
        "8801": 216,
        "8802": 106,
        "8803": 113,
        "8804": 82,
        "8805": 122,
        "8806": 192,
        "8807": 101,
        "8808": 141,
        "8809": 28,
        "8810": 142,
        "8811": 232,
        "8812": 97,
        "8813": 218,
        "8814": 222,
        "8815": 77,
        "8816": 174,
        "8817": 54,
        "8818": 208,
        "8819": 202,
        "8820": 245,
        "8821": 142,
        "8822": 141,
        "8823": 90,
        "8824": 250,
        "8825": 47,
        "8826": 50,
        "8827": 127,
        "8828": 188,
        "8829": 99,
        "8830": 68,
        "8831": 177,
        "8832": 217,
        "8833": 138,
        "8834": 212,
        "8835": 95,
        "8836": 4,
        "8837": 220,
        "8838": 182,
        "8839": 223,
        "8840": 252,
        "8841": 65,
        "8842": 35,
        "8843": 24,
        "8844": 34,
        "8845": 122,
        "8846": 74,
        "8847": 131,
        "8848": 102,
        "8849": 79,
        "8850": 246,
        "8851": 203,
        "8852": 170,
        "8853": 137,
        "8854": 24,
        "8855": 17,
        "8856": 176,
        "8857": 178,
        "8858": 19,
        "8859": 211,
        "8860": 112,
        "8861": 235,
        "8862": 91,
        "8863": 2,
        "8864": 129,
        "8865": 207,
        "8866": 4,
        "8867": 229,
        "8868": 16,
        "8869": 29,
        "8870": 98,
        "8871": 46,
        "8872": 234,
        "8873": 162,
        "8874": 138,
        "8875": 37,
        "8876": 139,
        "8877": 200,
        "8878": 232,
        "8879": 29,
        "8880": 166,
        "8881": 182,
        "8882": 28,
        "8883": 204,
        "8884": 52,
        "8885": 210,
        "8886": 100,
        "8887": 143,
        "8888": 247,
        "8889": 160,
        "8890": 112,
        "8891": 147,
        "8892": 100,
        "8893": 103,
        "8894": 178,
        "8895": 6,
        "8896": 216,
        "8897": 184,
        "8898": 179,
        "8899": 24,
        "8900": 156,
        "8901": 3,
        "8902": 175,
        "8903": 210,
        "8904": 104,
        "8905": 113,
        "8906": 177,
        "8907": 65,
        "8908": 131,
        "8909": 255,
        "8910": 198,
        "8911": 102,
        "8912": 210,
        "8913": 84,
        "8914": 201,
        "8915": 199,
        "8916": 234,
        "8917": 36,
        "8918": 80,
        "8919": 36,
        "8920": 38,
        "8921": 195,
        "8922": 113,
        "8923": 70,
        "8924": 211,
        "8925": 55,
        "8926": 85,
        "8927": 251,
        "8928": 88,
        "8929": 182,
        "8930": 65,
        "8931": 216,
        "8932": 115,
        "8933": 195,
        "8934": 231,
        "8935": 245,
        "8936": 177,
        "8937": 240,
        "8938": 110,
        "8939": 35,
        "8940": 180,
        "8941": 182,
        "8942": 162,
        "8943": 148,
        "8944": 35,
        "8945": 108,
        "8946": 30,
        "8947": 189,
        "8948": 85,
        "8949": 155,
        "8950": 45,
        "8951": 29,
        "8952": 199,
        "8953": 240,
        "8954": 28,
        "8955": 73,
        "8956": 37,
        "8957": 33,
        "8958": 165,
        "8959": 228,
        "8960": 112,
        "8961": 233,
        "8962": 41,
        "8963": 195,
        "8964": 48,
        "8965": 230,
        "8966": 119,
        "8967": 37,
        "8968": 112,
        "8969": 60,
        "8970": 126,
        "8971": 87,
        "8972": 190,
        "8973": 14,
        "8974": 227,
        "8975": 236,
        "8976": 160,
        "8977": 191,
        "8978": 219,
        "8979": 152,
        "8980": 153,
        "8981": 147,
        "8982": 142,
        "8983": 2,
        "8984": 160,
        "8985": 41,
        "8986": 9,
        "8987": 245,
        "8988": 116,
        "8989": 30,
        "8990": 87,
        "8991": 97,
        "8992": 100,
        "8993": 121,
        "8994": 167,
        "8995": 123,
        "8996": 89,
        "8997": 96,
        "8998": 9,
        "8999": 40,
        "9000": 115,
        "9001": 209,
        "9002": 98,
        "9003": 29,
        "9004": 131,
        "9005": 231,
        "9006": 91,
        "9007": 173,
        "9008": 73,
        "9009": 69,
        "9010": 242,
        "9011": 44,
        "9012": 169,
        "9013": 6,
        "9014": 114,
        "9015": 162,
        "9016": 153,
        "9017": 76,
        "9018": 174,
        "9019": 141,
        "9020": 39,
        "9021": 133,
        "9022": 77,
        "9023": 44,
        "9024": 78,
        "9025": 167,
        "9026": 182,
        "9027": 52,
        "9028": 172,
        "9029": 44,
        "9030": 193,
        "9031": 110,
        "9032": 218,
        "9033": 205,
        "9034": 34,
        "9035": 104,
        "9036": 89,
        "9037": 151,
        "9038": 101,
        "9039": 123,
        "9040": 89,
        "9041": 150,
        "9042": 36,
        "9043": 231,
        "9044": 161,
        "9045": 67,
        "9046": 27,
        "9047": 211,
        "9048": 124,
        "9049": 21,
        "9050": 85,
        "9051": 60,
        "9052": 90,
        "9053": 78,
        "9054": 113,
        "9055": 30,
        "9056": 50,
        "9057": 19,
        "9058": 34,
        "9059": 240,
        "9060": 203,
        "9061": 184,
        "9062": 221,
        "9063": 181,
        "9064": 125,
        "9065": 178,
        "9066": 38,
        "9067": 193,
        "9068": 161,
        "9069": 79,
        "9070": 135,
        "9071": 158,
        "9072": 154,
        "9073": 31,
        "9074": 32,
        "9075": 214,
        "9076": 252,
        "9077": 148,
        "9078": 94,
        "9079": 94,
        "9080": 221,
        "9081": 99,
        "9082": 110,
        "9083": 100,
        "9084": 108,
        "9085": 137,
        "9086": 81,
        "9087": 8,
        "9088": 70,
        "9089": 189,
        "9090": 249,
        "9091": 211,
        "9092": 92,
        "9093": 76,
        "9094": 91,
        "9095": 198,
        "9096": 248,
        "9097": 121,
        "9098": 12,
        "9099": 231,
        "9100": 72,
        "9101": 216,
        "9102": 142,
        "9103": 115,
        "9104": 105,
        "9105": 18,
        "9106": 85,
        "9107": 21,
        "9108": 72,
        "9109": 136,
        "9110": 250,
        "9111": 244,
        "9112": 124,
        "9113": 242,
        "9114": 5,
        "9115": 182,
        "9116": 10,
        "9117": 237,
        "9118": 3,
        "9119": 196,
        "9120": 37,
        "9121": 35,
        "9122": 217,
        "9123": 106,
        "9124": 201,
        "9125": 68,
        "9126": 11,
        "9127": 209,
        "9128": 188,
        "9129": 88,
        "9130": 76,
        "9131": 105,
        "9132": 222,
        "9133": 204,
        "9134": 69,
        "9135": 82,
        "9136": 49,
        "9137": 45,
        "9138": 181,
        "9139": 141,
        "9140": 77,
        "9141": 158,
        "9142": 232,
        "9143": 100,
        "9144": 252,
        "9145": 53,
        "9146": 133,
        "9147": 57,
        "9148": 158,
        "9149": 226,
        "9150": 92,
        "9151": 151,
        "9152": 72,
        "9153": 203,
        "9154": 29,
        "9155": 123,
        "9156": 136,
        "9157": 153,
        "9158": 132,
        "9159": 3,
        "9160": 207,
        "9161": 65,
        "9162": 81,
        "9163": 47,
        "9164": 177,
        "9165": 35,
        "9166": 21,
        "9167": 6,
        "9168": 149,
        "9169": 34,
        "9170": 105,
        "9171": 143,
        "9172": 208,
        "9173": 52,
        "9174": 238,
        "9175": 105,
        "9176": 246,
        "9177": 26,
        "9178": 145,
        "9179": 93,
        "9180": 135,
        "9181": 104,
        "9182": 218,
        "9183": 234,
        "9184": 72,
        "9185": 196,
        "9186": 191,
        "9187": 232,
        "9188": 75,
        "9189": 176,
        "9190": 213,
        "9191": 185,
        "9192": 115,
        "9193": 123,
        "9194": 43,
        "9195": 169,
        "9196": 26,
        "9197": 214,
        "9198": 155,
        "9199": 207,
        "9200": 196,
        "9201": 99,
        "9202": 52,
        "9203": 55,
        "9204": 192,
        "9205": 31,
        "9206": 165,
        "9207": 117,
        "9208": 139,
        "9209": 127,
        "9210": 121,
        "9211": 57,
        "9212": 11,
        "9213": 121,
        "9214": 227,
        "9215": 140,
        "9216": 68,
        "9217": 197,
        "9218": 194,
        "9219": 127,
        "9220": 20,
        "9221": 4,
        "9222": 232,
        "9223": 232,
        "9224": 90,
        "9225": 96,
        "9226": 60,
        "9227": 66,
        "9228": 118,
        "9229": 61,
        "9230": 187,
        "9231": 242,
        "9232": 101,
        "9233": 22,
        "9234": 19,
        "9235": 50,
        "9236": 140,
        "9237": 159,
        "9238": 18,
        "9239": 187,
        "9240": 47,
        "9241": 160,
        "9242": 220,
        "9243": 114,
        "9244": 43,
        "9245": 24,
        "9246": 191,
        "9247": 17,
        "9248": 124,
        "9249": 182,
        "9250": 168,
        "9251": 149,
        "9252": 235,
        "9253": 82,
        "9254": 26,
        "9255": 228,
        "9256": 194,
        "9257": 168,
        "9258": 247,
        "9259": 109,
        "9260": 213,
        "9261": 169,
        "9262": 247,
        "9263": 108,
        "9264": 43,
        "9265": 145,
        "9266": 78,
        "9267": 94,
        "9268": 124,
        "9269": 21,
        "9270": 227,
        "9271": 170,
        "9272": 99,
        "9273": 53,
        "9274": 130,
        "9275": 29,
        "9276": 67,
        "9277": 7,
        "9278": 235,
        "9279": 13,
        "9280": 129,
        "9281": 29,
        "9282": 240,
        "9283": 179,
        "9284": 42,
        "9285": 50,
        "9286": 99,
        "9287": 152,
        "9288": 215,
        "9289": 167,
        "9290": 240,
        "9291": 199,
        "9292": 146,
        "9293": 238,
        "9294": 173,
        "9295": 255,
        "9296": 55,
        "9297": 220,
        "9298": 46,
        "9299": 176,
        "9300": 102,
        "9301": 122,
        "9302": 171,
        "9303": 63,
        "9304": 240,
        "9305": 26,
        "9306": 36,
        "9307": 234,
        "9308": 181,
        "9309": 210,
        "9310": 120,
        "9311": 243,
        "9312": 95,
        "9313": 4,
        "9314": 192,
        "9315": 229,
        "9316": 16,
        "9317": 83,
        "9318": 167,
        "9319": 132,
        "9320": 5,
        "9321": 126,
        "9322": 89,
        "9323": 240,
        "9324": 135,
        "9325": 46,
        "9326": 117,
        "9327": 163,
        "9328": 2,
        "9329": 181,
        "9330": 105,
        "9331": 203,
        "9332": 44,
        "9333": 135,
        "9334": 10,
        "9335": 193,
        "9336": 82,
        "9337": 219,
        "9338": 65,
        "9339": 72,
        "9340": 197,
        "9341": 243,
        "9342": 158,
        "9343": 225,
        "9344": 91,
        "9345": 2,
        "9346": 60,
        "9347": 250,
        "9348": 5,
        "9349": 81,
        "9350": 89,
        "9351": 228,
        "9352": 34,
        "9353": 57,
        "9354": 167,
        "9355": 5,
        "9356": 50,
        "9357": 30,
        "9358": 11,
        "9359": 67,
        "9360": 134,
        "9361": 181,
        "9362": 190,
        "9363": 58,
        "9364": 133,
        "9365": 71,
        "9366": 228,
        "9367": 51,
        "9368": 169,
        "9369": 91,
        "9370": 200,
        "9371": 29,
        "9372": 178,
        "9373": 178,
        "9374": 181,
        "9375": 172,
        "9376": 76,
        "9377": 235,
        "9378": 1,
        "9379": 184,
        "9380": 53,
        "9381": 86,
        "9382": 76,
        "9383": 158,
        "9384": 164,
        "9385": 137,
        "9386": 41,
        "9387": 45,
        "9388": 254,
        "9389": 253,
        "9390": 34,
        "9391": 53,
        "9392": 75,
        "9393": 28,
        "9394": 255,
        "9395": 104,
        "9396": 177,
        "9397": 11,
        "9398": 106,
        "9399": 30,
        "9400": 15,
        "9401": 195,
        "9402": 162,
        "9403": 214,
        "9404": 93,
        "9405": 127,
        "9406": 69,
        "9407": 150,
        "9408": 180,
        "9409": 147,
        "9410": 22,
        "9411": 123,
        "9412": 103,
        "9413": 217,
        "9414": 72,
        "9415": 178,
        "9416": 70,
        "9417": 169,
        "9418": 157,
        "9419": 152,
        "9420": 111,
        "9421": 146,
        "9422": 154,
        "9423": 83,
        "9424": 47,
        "9425": 13,
        "9426": 84,
        "9427": 213,
        "9428": 120,
        "9429": 157,
        "9430": 149,
        "9431": 205,
        "9432": 22,
        "9433": 143,
        "9434": 16,
        "9435": 10,
        "9436": 120,
        "9437": 91,
        "9438": 95,
        "9439": 156,
        "9440": 125,
        "9441": 228,
        "9442": 44,
        "9443": 187,
        "9444": 78,
        "9445": 211,
        "9446": 147,
        "9447": 5,
        "9448": 231,
        "9449": 14,
        "9450": 136,
        "9451": 240,
        "9452": 68,
        "9453": 153,
        "9454": 141,
        "9455": 13,
        "9456": 246,
        "9457": 46,
        "9458": 214,
        "9459": 111,
        "9460": 87,
        "9461": 73,
        "9462": 1,
        "9463": 205,
        "9464": 159,
        "9465": 229,
        "9466": 9,
        "9467": 187,
        "9468": 25,
        "9469": 25,
        "9470": 122,
        "9471": 108,
        "9472": 147,
        "9473": 230,
        "9474": 89,
        "9475": 72,
        "9476": 9,
        "9477": 176,
        "9478": 86,
        "9479": 30,
        "9480": 230,
        "9481": 153,
        "9482": 17,
        "9483": 64,
        "9484": 229,
        "9485": 46,
        "9486": 136,
        "9487": 203,
        "9488": 185,
        "9489": 91,
        "9490": 24,
        "9491": 46,
        "9492": 52,
        "9493": 181,
        "9494": 150,
        "9495": 67,
        "9496": 154,
        "9497": 6,
        "9498": 110,
        "9499": 24,
        "9500": 222,
        "9501": 147,
        "9502": 229,
        "9503": 143,
        "9504": 252,
        "9505": 74,
        "9506": 224,
        "9507": 225,
        "9508": 183,
        "9509": 232,
        "9510": 185,
        "9511": 66,
        "9512": 247,
        "9513": 210,
        "9514": 217,
        "9515": 216,
        "9516": 128,
        "9517": 110,
        "9518": 52,
        "9519": 226,
        "9520": 39,
        "9521": 163,
        "9522": 52,
        "9523": 124,
        "9524": 109,
        "9525": 23,
        "9526": 127,
        "9527": 115,
        "9528": 120,
        "9529": 231,
        "9530": 218,
        "9531": 220,
        "9532": 6,
        "9533": 80,
        "9534": 69,
        "9535": 229,
        "9536": 212,
        "9537": 192,
        "9538": 15,
        "9539": 149,
        "9540": 222,
        "9541": 56,
        "9542": 177,
        "9543": 107,
        "9544": 149,
        "9545": 140,
        "9546": 82,
        "9547": 199,
        "9548": 16,
        "9549": 148,
        "9550": 120,
        "9551": 215,
        "9552": 231,
        "9553": 57,
        "9554": 138,
        "9555": 183,
        "9556": 175,
        "9557": 66,
        "9558": 91,
        "9559": 206,
        "9560": 35,
        "9561": 3,
        "9562": 180,
        "9563": 17,
        "9564": 169,
        "9565": 143,
        "9566": 250,
        "9567": 50,
        "9568": 54,
        "9569": 142,
        "9570": 238,
        "9571": 180,
        "9572": 157,
        "9573": 194,
        "9574": 83,
        "9575": 69,
        "9576": 15,
        "9577": 206,
        "9578": 54,
        "9579": 126,
        "9580": 18,
        "9581": 115,
        "9582": 195,
        "9583": 193,
        "9584": 28,
        "9585": 121,
        "9586": 82,
        "9587": 236,
        "9588": 189,
        "9589": 175,
        "9590": 135,
        "9591": 206,
        "9592": 199,
        "9593": 150,
        "9594": 20,
        "9595": 95,
        "9596": 140,
        "9597": 54,
        "9598": 94,
        "9599": 199,
        "9600": 16,
        "9601": 52,
        "9602": 129,
        "9603": 15,
        "9604": 123,
        "9605": 76,
        "9606": 82,
        "9607": 165,
        "9608": 192,
        "9609": 88,
        "9610": 65,
        "9611": 180,
        "9612": 152,
        "9613": 127,
        "9614": 48,
        "9615": 54,
        "9616": 246,
        "9617": 140,
        "9618": 162,
        "9619": 6,
        "9620": 216,
        "9621": 153,
        "9622": 120,
        "9623": 151,
        "9624": 51,
        "9625": 47,
        "9626": 112,
        "9627": 144,
        "9628": 54,
        "9629": 141,
        "9630": 45,
        "9631": 137,
        "9632": 154,
        "9633": 125,
        "9634": 235,
        "9635": 141,
        "9636": 207,
        "9637": 120,
        "9638": 168,
        "9639": 51,
        "9640": 134,
        "9641": 239,
        "9642": 154,
        "9643": 163,
        "9644": 58,
        "9645": 147,
        "9646": 63,
        "9647": 108,
        "9648": 48,
        "9649": 92,
        "9650": 162,
        "9651": 227,
        "9652": 215,
        "9653": 195,
        "9654": 91,
        "9655": 76,
        "9656": 63,
        "9657": 125,
        "9658": 191,
        "9659": 81,
        "9660": 52,
        "9661": 206,
        "9662": 211,
        "9663": 248,
        "9664": 53,
        "9665": 46,
        "9666": 43,
        "9667": 38,
        "9668": 251,
        "9669": 90,
        "9670": 200,
        "9671": 123,
        "9672": 233,
        "9673": 204,
        "9674": 151,
        "9675": 81,
        "9676": 38,
        "9677": 22,
        "9678": 86,
        "9679": 42,
        "9680": 68,
        "9681": 119,
        "9682": 143,
        "9683": 106,
        "9684": 68,
        "9685": 191,
        "9686": 93,
        "9687": 0,
        "9688": 228,
        "9689": 189,
        "9690": 15,
        "9691": 94,
        "9692": 222,
        "9693": 74,
        "9694": 72,
        "9695": 90,
        "9696": 31,
        "9697": 145,
        "9698": 244,
        "9699": 131,
        "9700": 110,
        "9701": 79,
        "9702": 41,
        "9703": 168,
        "9704": 114,
        "9705": 51,
        "9706": 247,
        "9707": 141,
        "9708": 15,
        "9709": 104,
        "9710": 35,
        "9711": 27,
        "9712": 227,
        "9713": 80,
        "9714": 105,
        "9715": 239,
        "9716": 231,
        "9717": 116,
        "9718": 112,
        "9719": 93,
        "9720": 155,
        "9721": 254,
        "9722": 124,
        "9723": 236,
        "9724": 194,
        "9725": 18,
        "9726": 115,
        "9727": 112,
        "9728": 176,
        "9729": 98,
        "9730": 163,
        "9731": 97,
        "9732": 223,
        "9733": 65,
        "9734": 28,
        "9735": 250,
        "9736": 253,
        "9737": 234,
        "9738": 168,
        "9739": 126,
        "9740": 7,
        "9741": 246,
        "9742": 147,
        "9743": 229,
        "9744": 141,
        "9745": 220,
        "9746": 30,
        "9747": 182,
        "9748": 39,
        "9749": 25,
        "9750": 214,
        "9751": 87,
        "9752": 160,
        "9753": 200,
        "9754": 188,
        "9755": 93,
        "9756": 55,
        "9757": 27,
        "9758": 67,
        "9759": 242,
        "9760": 200,
        "9761": 210,
        "9762": 145,
        "9763": 146,
        "9764": 81,
        "9765": 60,
        "9766": 251,
        "9767": 138,
        "9768": 37,
        "9769": 214,
        "9770": 156,
        "9771": 81,
        "9772": 102,
        "9773": 82,
        "9774": 58,
        "9775": 82,
        "9776": 108,
        "9777": 205,
        "9778": 40,
        "9779": 71,
        "9780": 118,
        "9781": 218,
        "9782": 49,
        "9783": 66,
        "9784": 35,
        "9785": 255,
        "9786": 174,
        "9787": 197,
        "9788": 110,
        "9789": 205,
        "9790": 60,
        "9791": 133,
        "9792": 155,
        "9793": 61,
        "9794": 43,
        "9795": 55,
        "9796": 182,
        "9797": 179,
        "9798": 7,
        "9799": 39,
        "9800": 147,
        "9801": 84,
        "9802": 76,
        "9803": 88,
        "9804": 250,
        "9805": 176,
        "9806": 176,
        "9807": 155,
        "9808": 237,
        "9809": 87,
        "9810": 195,
        "9811": 2,
        "9812": 236,
        "9813": 17,
        "9814": 111,
        "9815": 170,
        "9816": 168,
        "9817": 17,
        "9818": 77,
        "9819": 243,
        "9820": 9,
        "9821": 13,
        "9822": 198,
        "9823": 117,
        "9824": 127,
        "9825": 242,
        "9826": 215,
        "9827": 213,
        "9828": 128,
        "9829": 146,
        "9830": 222,
        "9831": 37,
        "9832": 77,
        "9833": 9,
        "9834": 22,
        "9835": 145,
        "9836": 128,
        "9837": 246,
        "9838": 52,
        "9839": 112,
        "9840": 114,
        "9841": 36,
        "9842": 137,
        "9843": 89,
        "9844": 133,
        "9845": 196,
        "9846": 255,
        "9847": 99,
        "9848": 184,
        "9849": 110,
        "9850": 157,
        "9851": 25,
        "9852": 134,
        "9853": 114,
        "9854": 112,
        "9855": 249,
        "9856": 102,
        "9857": 83,
        "9858": 235,
        "9859": 27,
        "9860": 115,
        "9861": 149,
        "9862": 133,
        "9863": 171,
        "9864": 217,
        "9865": 194,
        "9866": 222,
        "9867": 239,
        "9868": 254,
        "9869": 145,
        "9870": 83,
        "9871": 174,
        "9872": 14,
        "9873": 205,
        "9874": 72,
        "9875": 34,
        "9876": 190,
        "9877": 110,
        "9878": 93,
        "9879": 118,
        "9880": 145,
        "9881": 70,
        "9882": 8,
        "9883": 21,
        "9884": 95,
        "9885": 56,
        "9886": 21,
        "9887": 192,
        "9888": 191,
        "9889": 38,
        "9890": 135,
        "9891": 81,
        "9892": 97,
        "9893": 201,
        "9894": 135,
        "9895": 219,
        "9896": 74,
        "9897": 55,
        "9898": 146,
        "9899": 73,
        "9900": 43,
        "9901": 32,
        "9902": 223,
        "9903": 201,
        "9904": 87,
        "9905": 253,
        "9906": 169,
        "9907": 245,
        "9908": 109,
        "9909": 51,
        "9910": 125,
        "9911": 229,
        "9912": 110,
        "9913": 15,
        "9914": 16,
        "9915": 216,
        "9916": 93,
        "9917": 97,
        "9918": 175,
        "9919": 198,
        "9920": 2,
        "9921": 208,
        "9922": 124,
        "9923": 86,
        "9924": 148,
        "9925": 8,
        "9926": 96,
        "9927": 220,
        "9928": 225,
        "9929": 183,
        "9930": 220,
        "9931": 185,
        "9932": 72,
        "9933": 99,
        "9934": 128,
        "9935": 176,
        "9936": 173,
        "9937": 147,
        "9938": 235,
        "9939": 250,
        "9940": 94,
        "9941": 152,
        "9942": 26,
        "9943": 142,
        "9944": 66,
        "9945": 32,
        "9946": 128,
        "9947": 187,
        "9948": 35,
        "9949": 240,
        "9950": 2,
        "9951": 201,
        "9952": 125,
        "9953": 47,
        "9954": 150,
        "9955": 45,
        "9956": 171,
        "9957": 125,
        "9958": 228,
        "9959": 183,
        "9960": 189,
        "9961": 59,
        "9962": 153,
        "9963": 236,
        "9964": 143,
        "9965": 83,
        "9966": 235,
        "9967": 119,
        "9968": 152,
        "9969": 106,
        "9970": 73,
        "9971": 142,
        "9972": 64,
        "9973": 109,
        "9974": 54,
        "9975": 67,
        "9976": 241,
        "9977": 34,
        "9978": 4,
        "9979": 122,
        "9980": 35,
        "9981": 249,
        "9982": 24,
        "9983": 114,
        "9984": 204,
        "9985": 213,
        "9986": 123,
        "9987": 39,
        "9988": 210,
        "9989": 14,
        "9990": 228,
        "9991": 56,
        "9992": 176,
        "9993": 58,
        "9994": 26,
        "9995": 69,
        "9996": 117,
        "9997": 86,
        "9998": 42,
        "9999": 135,
        "10000": 25,
        "10001": 48,
        "10002": 186,
        "10003": 2,
        "10004": 190,
        "10005": 38,
        "10006": 158,
        "10007": 124,
        "10008": 253,
        "10009": 206,
        "10010": 78,
        "10011": 157,
        "10012": 162,
        "10013": 206,
        "10014": 2,
        "10015": 118,
        "10016": 90,
        "10017": 47,
        "10018": 93,
        "10019": 255,
        "10020": 162,
        "10021": 121,
        "10022": 110,
        "10023": 237,
        "10024": 86,
        "10025": 32,
        "10026": 241,
        "10027": 162,
        "10028": 217,
        "10029": 71,
        "10030": 206,
        "10031": 162,
        "10032": 145,
        "10033": 156,
        "10034": 214,
        "10035": 28,
        "10036": 17,
        "10037": 27,
        "10038": 229,
        "10039": 2,
        "10040": 252,
        "10041": 105,
        "10042": 207,
        "10043": 88,
        "10044": 37,
        "10045": 135,
        "10046": 11,
        "10047": 35,
        "10048": 88,
        "10049": 188,
        "10050": 111,
        "10051": 45,
        "10052": 70,
        "10053": 175,
        "10054": 27,
        "10055": 186,
        "10056": 242,
        "10057": 111,
        "10058": 248,
        "10059": 212,
        "10060": 247,
        "10061": 21,
        "10062": 61,
        "10063": 166,
        "10064": 136,
        "10065": 22,
        "10066": 95,
        "10067": 106,
        "10068": 91,
        "10069": 178,
        "10070": 103,
        "10071": 18,
        "10072": 0,
        "10073": 197,
        "10074": 74,
        "10075": 46,
        "10076": 9,
        "10077": 13,
        "10078": 123,
        "10079": 75,
        "10080": 110,
        "10081": 96,
        "10082": 228,
        "10083": 63,
        "10084": 83,
        "10085": 222,
        "10086": 175,
        "10087": 28,
        "10088": 189,
        "10089": 36,
        "10090": 197,
        "10091": 248,
        "10092": 120,
        "10093": 16,
        "10094": 102,
        "10095": 4,
        "10096": 14,
        "10097": 99,
        "10098": 39,
        "10099": 90,
        "10100": 155,
        "10101": 233,
        "10102": 171,
        "10103": 80,
        "10104": 39,
        "10105": 123,
        "10106": 52,
        "10107": 51,
        "10108": 56,
        "10109": 29,
        "10110": 28,
        "10111": 20,
        "10112": 76,
        "10113": 175,
        "10114": 80,
        "10115": 107,
        "10116": 11,
        "10117": 20,
        "10118": 122,
        "10119": 90,
        "10120": 79,
        "10121": 103,
        "10122": 186,
        "10123": 106,
        "10124": 110,
        "10125": 50,
        "10126": 38,
        "10127": 211,
        "10128": 98,
        "10129": 72,
        "10130": 135,
        "10131": 49,
        "10132": 194,
        "10133": 48,
        "10134": 3,
        "10135": 131,
        "10136": 171,
        "10137": 19,
        "10138": 212,
        "10139": 123,
        "10140": 112,
        "10141": 37,
        "10142": 103,
        "10143": 89,
        "10144": 122,
        "10145": 242,
        "10146": 162,
        "10147": 247,
        "10148": 117,
        "10149": 172,
        "10150": 156,
        "10151": 24,
        "10152": 37,
        "10153": 63,
        "10154": 156,
        "10155": 213,
        "10156": 24,
        "10157": 153,
        "10158": 181,
        "10159": 12,
        "10160": 152,
        "10161": 235,
        "10162": 203,
        "10163": 118,
        "10164": 60,
        "10165": 75,
        "10166": 190,
        "10167": 86,
        "10168": 115,
        "10169": 60,
        "10170": 126,
        "10171": 59,
        "10172": 130,
        "10173": 24,
        "10174": 6,
        "10175": 136,
        "10176": 7,
        "10177": 225,
        "10178": 131,
        "10179": 202,
        "10180": 19,
        "10181": 151,
        "10182": 224,
        "10183": 101,
        "10184": 66,
        "10185": 131,
        "10186": 143,
        "10187": 179,
        "10188": 14,
        "10189": 148,
        "10190": 22,
        "10191": 155,
        "10192": 68,
        "10193": 15,
        "10194": 39,
        "10195": 185,
        "10196": 234,
        "10197": 128,
        "10198": 185,
        "10199": 84,
        "10200": 85,
        "10201": 142,
        "10202": 66,
        "10203": 106,
        "10204": 104,
        "10205": 70,
        "10206": 245,
        "10207": 60,
        "10208": 63,
        "10209": 160,
        "10210": 117,
        "10211": 243,
        "10212": 222,
        "10213": 119,
        "10214": 156,
        "10215": 102,
        "10216": 244,
        "10217": 146,
        "10218": 12,
        "10219": 53,
        "10220": 65,
        "10221": 19,
        "10222": 125,
        "10223": 143,
        "10224": 182,
        "10225": 31,
        "10226": 166,
        "10227": 255,
        "10228": 76,
        "10229": 208,
        "10230": 235,
        "10231": 19,
        "10232": 13,
        "10233": 22,
        "10234": 252,
        "10235": 75,
        "10236": 90,
        "10237": 187,
        "10238": 130,
        "10239": 21,
        "10240": 5,
        "10241": 218,
        "10242": 245,
        "10243": 59,
        "10244": 1,
        "10245": 198,
        "10246": 161,
        "10247": 123,
        "10248": 121,
        "10249": 196,
        "10250": 31,
        "10251": 188,
        "10252": 184,
        "10253": 55,
        "10254": 146,
        "10255": 66,
        "10256": 17,
        "10257": 249,
        "10258": 85,
        "10259": 208,
        "10260": 233,
        "10261": 86,
        "10262": 99,
        "10263": 188,
        "10264": 55,
        "10265": 105,
        "10266": 207,
        "10267": 233,
        "10268": 87,
        "10269": 139,
        "10270": 9,
        "10271": 123,
        "10272": 8,
        "10273": 102,
        "10274": 245,
        "10275": 157,
        "10276": 220,
        "10277": 48,
        "10278": 174,
        "10279": 43,
        "10280": 18,
        "10281": 123,
        "10282": 75,
        "10283": 211,
        "10284": 170,
        "10285": 65,
        "10286": 135,
        "10287": 175,
        "10288": 114,
        "10289": 65,
        "10290": 101,
        "10291": 106,
        "10292": 187,
        "10293": 18,
        "10294": 210,
        "10295": 219,
        "10296": 65,
        "10297": 203,
        "10298": 192,
        "10299": 74,
        "10300": 50,
        "10301": 241,
        "10302": 241,
        "10303": 202,
        "10304": 5,
        "10305": 194,
        "10306": 207,
        "10307": 136,
        "10308": 140,
        "10309": 38,
        "10310": 49,
        "10311": 172,
        "10312": 21,
        "10313": 134,
        "10314": 242,
        "10315": 172,
        "10316": 1,
        "10317": 17,
        "10318": 139,
        "10319": 33,
        "10320": 48,
        "10321": 114,
        "10322": 247,
        "10323": 100,
        "10324": 62,
        "10325": 219,
        "10326": 91,
        "10327": 143,
        "10328": 138,
        "10329": 63,
        "10330": 80,
        "10331": 236,
        "10332": 23,
        "10333": 48,
        "10334": 52,
        "10335": 45,
        "10336": 31,
        "10337": 190,
        "10338": 42,
        "10339": 242,
        "10340": 141,
        "10341": 85,
        "10342": 185,
        "10343": 173,
        "10344": 137,
        "10345": 203,
        "10346": 176,
        "10347": 56,
        "10348": 143,
        "10349": 25,
        "10350": 63,
        "10351": 205,
        "10352": 205,
        "10353": 10,
        "10354": 229,
        "10355": 251,
        "10356": 148,
        "10357": 222,
        "10358": 245,
        "10359": 162,
        "10360": 89,
        "10361": 160,
        "10362": 13,
        "10363": 118,
        "10364": 63,
        "10365": 193,
        "10366": 194,
        "10367": 205,
        "10368": 214,
        "10369": 187,
        "10370": 65,
        "10371": 210,
        "10372": 195,
        "10373": 192,
        "10374": 168,
        "10375": 93,
        "10376": 237,
        "10377": 118,
        "10378": 59,
        "10379": 145,
        "10380": 54,
        "10381": 45,
        "10382": 66,
        "10383": 85,
        "10384": 29,
        "10385": 198,
        "10386": 252,
        "10387": 233,
        "10388": 129,
        "10389": 206,
        "10390": 90,
        "10391": 185,
        "10392": 21,
        "10393": 80,
        "10394": 108,
        "10395": 123,
        "10396": 205,
        "10397": 70,
        "10398": 137,
        "10399": 166,
        "10400": 52,
        "10401": 222,
        "10402": 206,
        "10403": 202,
        "10404": 64,
        "10405": 55,
        "10406": 64,
        "10407": 48,
        "10408": 244,
        "10409": 111,
        "10410": 40,
        "10411": 186,
        "10412": 191,
        "10413": 11,
        "10414": 149,
        "10415": 200,
        "10416": 3,
        "10417": 14,
        "10418": 128,
        "10419": 224,
        "10420": 222,
        "10421": 171,
        "10422": 217,
        "10423": 63,
        "10424": 198,
        "10425": 138,
        "10426": 190,
        "10427": 248,
        "10428": 166,
        "10429": 99,
        "10430": 25,
        "10431": 6,
        "10432": 204,
        "10433": 9,
        "10434": 142,
        "10435": 251,
        "10436": 179,
        "10437": 13,
        "10438": 240,
        "10439": 212,
        "10440": 123,
        "10441": 27,
        "10442": 240,
        "10443": 133,
        "10444": 150,
        "10445": 204,
        "10446": 37,
        "10447": 187,
        "10448": 133,
        "10449": 89,
        "10450": 119,
        "10451": 213,
        "10452": 120,
        "10453": 70,
        "10454": 204,
        "10455": 237,
        "10456": 4,
        "10457": 35,
        "10458": 131,
        "10459": 248,
        "10460": 167,
        "10461": 194,
        "10462": 54,
        "10463": 239,
        "10464": 175,
        "10465": 199,
        "10466": 14,
        "10467": 193,
        "10468": 102,
        "10469": 114,
        "10470": 243,
        "10471": 38,
        "10472": 10,
        "10473": 162,
        "10474": 79,
        "10475": 190,
        "10476": 139,
        "10477": 107,
        "10478": 70,
        "10479": 17,
        "10480": 208,
        "10481": 178,
        "10482": 207,
        "10483": 242,
        "10484": 163,
        "10485": 120,
        "10486": 142,
        "10487": 209,
        "10488": 229,
        "10489": 150,
        "10490": 248,
        "10491": 4,
        "10492": 120,
        "10493": 239,
        "10494": 124,
        "10495": 50,
        "10496": 161,
        "10497": 4,
        "10498": 50,
        "10499": 104,
        "10500": 166,
        "10501": 160,
        "10502": 142,
        "10503": 24,
        "10504": 236,
        "10505": 2,
        "10506": 229,
        "10507": 179,
        "10508": 181,
        "10509": 192,
        "10510": 152,
        "10511": 194,
        "10512": 218,
        "10513": 32,
        "10514": 57,
        "10515": 62,
        "10516": 164,
        "10517": 55,
        "10518": 175,
        "10519": 177,
        "10520": 158,
        "10521": 32,
        "10522": 28,
        "10523": 78,
        "10524": 1,
        "10525": 51,
        "10526": 0,
        "10527": 73,
        "10528": 233,
        "10529": 236,
        "10530": 234,
        "10531": 7,
        "10532": 202,
        "10533": 21,
        "10534": 71,
        "10535": 137,
        "10536": 10,
        "10537": 63,
        "10538": 221,
        "10539": 95,
        "10540": 210,
        "10541": 13,
        "10542": 238,
        "10543": 97,
        "10544": 202,
        "10545": 22,
        "10546": 41,
        "10547": 138,
        "10548": 215,
        "10549": 249,
        "10550": 151,
        "10551": 106,
        "10552": 152,
        "10553": 233,
        "10554": 143,
        "10555": 88,
        "10556": 55,
        "10557": 145,
        "10558": 94,
        "10559": 219,
        "10560": 228,
        "10561": 237,
        "10562": 232,
        "10563": 93,
        "10564": 205,
        "10565": 255,
        "10566": 204,
        "10567": 175,
        "10568": 253,
        "10569": 13,
        "10570": 205,
        "10571": 41,
        "10572": 14,
        "10573": 200,
        "10574": 45,
        "10575": 243,
        "10576": 240,
        "10577": 251,
        "10578": 18,
        "10579": 104,
        "10580": 221,
        "10581": 176,
        "10582": 151,
        "10583": 87,
        "10584": 95,
        "10585": 167,
        "10586": 40,
        "10587": 32,
        "10588": 199,
        "10589": 243,
        "10590": 25,
        "10591": 27,
        "10592": 134,
        "10593": 41,
        "10594": 63,
        "10595": 144,
        "10596": 213,
        "10597": 214,
        "10598": 217,
        "10599": 83,
        "10600": 160,
        "10601": 45,
        "10602": 115,
        "10603": 18,
        "10604": 150,
        "10605": 182,
        "10606": 188,
        "10607": 162,
        "10608": 117,
        "10609": 201,
        "10610": 179,
        "10611": 141,
        "10612": 147,
        "10613": 195,
        "10614": 223,
        "10615": 7,
        "10616": 85,
        "10617": 139,
        "10618": 253,
        "10619": 236,
        "10620": 101,
        "10621": 149,
        "10622": 98,
        "10623": 236,
        "10624": 198,
        "10625": 107,
        "10626": 155,
        "10627": 238,
        "10628": 252,
        "10629": 82,
        "10630": 137,
        "10631": 216,
        "10632": 135,
        "10633": 165,
        "10634": 98,
        "10635": 139,
        "10636": 17,
        "10637": 37,
        "10638": 76,
        "10639": 82,
        "10640": 217,
        "10641": 94,
        "10642": 223,
        "10643": 18,
        "10644": 226,
        "10645": 32,
        "10646": 4,
        "10647": 27,
        "10648": 62,
        "10649": 37,
        "10650": 29,
        "10651": 187,
        "10652": 53,
        "10653": 197,
        "10654": 10,
        "10655": 93,
        "10656": 60,
        "10657": 30,
        "10658": 190,
        "10659": 176,
        "10660": 101,
        "10661": 238,
        "10662": 224,
        "10663": 183,
        "10664": 140,
        "10665": 125,
        "10666": 113,
        "10667": 181,
        "10668": 142,
        "10669": 253,
        "10670": 202,
        "10671": 9,
        "10672": 141,
        "10673": 238,
        "10674": 71,
        "10675": 231,
        "10676": 10,
        "10677": 188,
        "10678": 103,
        "10679": 20,
        "10680": 247,
        "10681": 92,
        "10682": 160,
        "10683": 32,
        "10684": 76,
        "10685": 36,
        "10686": 191,
        "10687": 245,
        "10688": 238,
        "10689": 140,
        "10690": 116,
        "10691": 32,
        "10692": 132,
        "10693": 59,
        "10694": 201,
        "10695": 90,
        "10696": 10,
        "10697": 181,
        "10698": 196,
        "10699": 183,
        "10700": 198,
        "10701": 62,
        "10702": 222,
        "10703": 114,
        "10704": 131,
        "10705": 218,
        "10706": 104,
        "10707": 139,
        "10708": 76,
        "10709": 163,
        "10710": 76,
        "10711": 109,
        "10712": 89,
        "10713": 120,
        "10714": 216,
        "10715": 195,
        "10716": 84,
        "10717": 134,
        "10718": 180,
        "10719": 35,
        "10720": 71,
        "10721": 117,
        "10722": 73,
        "10723": 114,
        "10724": 47,
        "10725": 50,
        "10726": 125,
        "10727": 110,
        "10728": 27,
        "10729": 55,
        "10730": 171,
        "10731": 80,
        "10732": 226,
        "10733": 248,
        "10734": 162,
        "10735": 197,
        "10736": 188,
        "10737": 246,
        "10738": 44,
        "10739": 231,
        "10740": 81,
        "10741": 238,
        "10742": 208,
        "10743": 248,
        "10744": 166,
        "10745": 255,
        "10746": 73,
        "10747": 4,
        "10748": 160,
        "10749": 196,
        "10750": 234,
        "10751": 185,
        "10752": 162,
        "10753": 224,
        "10754": 135,
        "10755": 150,
        "10756": 74,
        "10757": 139,
        "10758": 158,
        "10759": 135,
        "10760": 67,
        "10761": 238,
        "10762": 193,
        "10763": 48,
        "10764": 126,
        "10765": 106,
        "10766": 217,
        "10767": 207,
        "10768": 134,
        "10769": 163,
        "10770": 44,
        "10771": 63,
        "10772": 183,
        "10773": 246,
        "10774": 93,
        "10775": 173,
        "10776": 54,
        "10777": 228,
        "10778": 82,
        "10779": 15,
        "10780": 83,
        "10781": 82,
        "10782": 104,
        "10783": 106,
        "10784": 0,
        "10785": 203,
        "10786": 3,
        "10787": 132,
        "10788": 250,
        "10789": 243,
        "10790": 132,
        "10791": 98,
        "10792": 239,
        "10793": 202,
        "10794": 253,
        "10795": 26,
        "10796": 164,
        "10797": 188,
        "10798": 149,
        "10799": 71,
        "10800": 16,
        "10801": 31,
        "10802": 190,
        "10803": 244,
        "10804": 239,
        "10805": 247,
        "10806": 191,
        "10807": 129,
        "10808": 8,
        "10809": 228,
        "10810": 141,
        "10811": 142,
        "10812": 120,
        "10813": 6,
        "10814": 134,
        "10815": 240,
        "10816": 43,
        "10817": 208,
        "10818": 240,
        "10819": 121,
        "10820": 83,
        "10821": 18,
        "10822": 200,
        "10823": 230,
        "10824": 225,
        "10825": 129,
        "10826": 190,
        "10827": 136,
        "10828": 117,
        "10829": 12,
        "10830": 132,
        "10831": 127,
        "10832": 163,
        "10833": 3,
        "10834": 240,
        "10835": 200,
        "10836": 63,
        "10837": 153,
        "10838": 51,
        "10839": 196,
        "10840": 24,
        "10841": 210,
        "10842": 149,
        "10843": 242,
        "10844": 212,
        "10845": 50,
        "10846": 184,
        "10847": 72,
        "10848": 234,
        "10849": 110,
        "10850": 154,
        "10851": 144,
        "10852": 59,
        "10853": 87,
        "10854": 6,
        "10855": 110,
        "10856": 80,
        "10857": 92,
        "10858": 122,
        "10859": 168,
        "10860": 59,
        "10861": 239,
        "10862": 36,
        "10863": 185,
        "10864": 77,
        "10865": 218,
        "10866": 167,
        "10867": 146,
        "10868": 149,
        "10869": 208,
        "10870": 208,
        "10871": 189,
        "10872": 174,
        "10873": 51,
        "10874": 164,
        "10875": 249,
        "10876": 207,
        "10877": 170,
        "10878": 115,
        "10879": 255,
        "10880": 242,
        "10881": 214,
        "10882": 153,
        "10883": 47,
        "10884": 167,
        "10885": 221,
        "10886": 134,
        "10887": 215,
        "10888": 207,
        "10889": 142,
        "10890": 110,
        "10891": 207,
        "10892": 20,
        "10893": 7,
        "10894": 110,
        "10895": 80,
        "10896": 234,
        "10897": 51,
        "10898": 197,
        "10899": 98,
        "10900": 92,
        "10901": 244,
        "10902": 134,
        "10903": 135,
        "10904": 47,
        "10905": 34,
        "10906": 189,
        "10907": 242,
        "10908": 237,
        "10909": 242,
        "10910": 174,
        "10911": 84,
        "10912": 45,
        "10913": 62,
        "10914": 189,
        "10915": 56,
        "10916": 228,
        "10917": 61,
        "10918": 19,
        "10919": 77,
        "10920": 139,
        "10921": 207,
        "10922": 18,
        "10923": 133,
        "10924": 17,
        "10925": 163,
        "10926": 64,
        "10927": 179,
        "10928": 64,
        "10929": 200,
        "10930": 76,
        "10931": 39,
        "10932": 52,
        "10933": 9,
        "10934": 197,
        "10935": 128,
        "10936": 86,
        "10937": 4,
        "10938": 64,
        "10939": 213,
        "10940": 185,
        "10941": 160,
        "10942": 158,
        "10943": 17,
        "10944": 179,
        "10945": 179,
        "10946": 57,
        "10947": 52,
        "10948": 134,
        "10949": 76,
        "10950": 176,
        "10951": 25,
        "10952": 99,
        "10953": 178,
        "10954": 84,
        "10955": 190,
        "10956": 192,
        "10957": 194,
        "10958": 30,
        "10959": 223,
        "10960": 166,
        "10961": 201,
        "10962": 127,
        "10963": 28,
        "10964": 216,
        "10965": 174,
        "10966": 129,
        "10967": 48,
        "10968": 182,
        "10969": 145,
        "10970": 85,
        "10971": 228,
        "10972": 43,
        "10973": 22,
        "10974": 90,
        "10975": 2,
        "10976": 87,
        "10977": 163,
        "10978": 234,
        "10979": 35,
        "10980": 166,
        "10981": 75,
        "10982": 34,
        "10983": 240,
        "10984": 184,
        "10985": 122,
        "10986": 5,
        "10987": 69,
        "10988": 155,
        "10989": 46,
        "10990": 125,
        "10991": 226,
        "10992": 15,
        "10993": 204,
        "10994": 89,
        "10995": 123,
        "10996": 238,
        "10997": 117,
        "10998": 5,
        "10999": 117,
        "11000": 100,
        "11001": 194,
        "11002": 63,
        "11003": 15,
        "11004": 25,
        "11005": 207,
        "11006": 126,
        "11007": 9,
        "11008": 52,
        "11009": 18,
        "11010": 154,
        "11011": 227,
        "11012": 247,
        "11013": 78,
        "11014": 14,
        "11015": 68,
        "11016": 39,
        "11017": 64,
        "11018": 215,
        "11019": 140,
        "11020": 150,
        "11021": 135,
        "11022": 79,
        "11023": 231,
        "11024": 70,
        "11025": 125,
        "11026": 109,
        "11027": 61,
        "11028": 148,
        "11029": 28,
        "11030": 114,
        "11031": 173,
        "11032": 65,
        "11033": 124,
        "11034": 94,
        "11035": 218,
        "11036": 198,
        "11037": 75,
        "11038": 94,
        "11039": 149,
        "11040": 130,
        "11041": 166,
        "11042": 65,
        "11043": 214,
        "11044": 163,
        "11045": 145,
        "11046": 106,
        "11047": 195,
        "11048": 157,
        "11049": 94,
        "11050": 117,
        "11051": 189,
        "11052": 237,
        "11053": 59,
        "11054": 1,
        "11055": 2,
        "11056": 182,
        "11057": 113,
        "11058": 15,
        "11059": 104,
        "11060": 206,
        "11061": 237,
        "11062": 84,
        "11063": 225,
        "11064": 223,
        "11065": 55,
        "11066": 253,
        "11067": 246,
        "11068": 8,
        "11069": 115,
        "11070": 120,
        "11071": 120,
        "11072": 124,
        "11073": 127,
        "11074": 240,
        "11075": 68,
        "11076": 239,
        "11077": 96,
        "11078": 13,
        "11079": 147,
        "11080": 204,
        "11081": 248,
        "11082": 88,
        "11083": 229,
        "11084": 199,
        "11085": 250,
        "11086": 29,
        "11087": 89,
        "11088": 25,
        "11089": 1,
        "11090": 230,
        "11091": 98,
        "11092": 195,
        "11093": 83,
        "11094": 46,
        "11095": 236,
        "11096": 190,
        "11097": 98,
        "11098": 109,
        "11099": 30,
        "11100": 54,
        "11101": 226,
        "11102": 114,
        "11103": 175,
        "11104": 181,
        "11105": 150,
        "11106": 4,
        "11107": 110,
        "11108": 87,
        "11109": 5,
        "11110": 85,
        "11111": 244,
        "11112": 79,
        "11113": 178,
        "11114": 93,
        "11115": 153,
        "11116": 255,
        "11117": 172,
        "11118": 151,
        "11119": 81,
        "11120": 107,
        "11121": 169,
        "11122": 208,
        "11123": 58,
        "11124": 171,
        "11125": 24,
        "11126": 180,
        "11127": 206,
        "11128": 171,
        "11129": 165,
        "11130": 48,
        "11131": 108,
        "11132": 11,
        "11133": 101,
        "11134": 0,
        "11135": 36,
        "11136": 30,
        "11137": 2,
        "11138": 42,
        "11139": 10,
        "11140": 204,
        "11141": 35,
        "11142": 94,
        "11143": 217,
        "11144": 63,
        "11145": 84,
        "11146": 69,
        "11147": 102,
        "11148": 200,
        "11149": 244,
        "11150": 194,
        "11151": 173,
        "11152": 94,
        "11153": 138,
        "11154": 0,
        "11155": 70,
        "11156": 193,
        "11157": 213,
        "11158": 110,
        "11159": 12,
        "11160": 66,
        "11161": 230,
        "11162": 164,
        "11163": 208,
        "11164": 235,
        "11165": 169,
        "11166": 58,
        "11167": 134,
        "11168": 187,
        "11169": 86,
        "11170": 147,
        "11171": 13,
        "11172": 24,
        "11173": 45,
        "11174": 45,
        "11175": 43,
        "11176": 196,
        "11177": 9,
        "11178": 86,
        "11179": 8,
        "11180": 90,
        "11181": 18,
        "11182": 1,
        "11183": 2,
        "11184": 43,
        "11185": 234,
        "11186": 109,
        "11187": 241,
        "11188": 150,
        "11189": 151,
        "11190": 104,
        "11191": 72,
        "11192": 30,
        "11193": 90,
        "11194": 81,
        "11195": 70,
        "11196": 152,
        "11197": 123,
        "11198": 90,
        "11199": 231,
        "11200": 156,
        "11201": 191,
        "11202": 226,
        "11203": 122,
        "11204": 153,
        "11205": 45,
        "11206": 96,
        "11207": 111,
        "11208": 231,
        "11209": 28,
        "11210": 166,
        "11211": 114,
        "11212": 206,
        "11213": 97,
        "11214": 130,
        "11215": 30,
        "11216": 169,
        "11217": 126,
        "11218": 219,
        "11219": 32,
        "11220": 110,
        "11221": 240,
        "11222": 204,
        "11223": 80,
        "11224": 102,
        "11225": 255,
        "11226": 128,
        "11227": 113,
        "11228": 174,
        "11229": 96,
        "11230": 184,
        "11231": 151,
        "11232": 169,
        "11233": 88,
        "11234": 0,
        "11235": 101,
        "11236": 129,
        "11237": 64,
        "11238": 182,
        "11239": 163,
        "11240": 128,
        "11241": 83,
        "11242": 41,
        "11243": 141,
        "11244": 83,
        "11245": 105,
        "11246": 99,
        "11247": 131,
        "11248": 244,
        "11249": 123,
        "11250": 53,
        "11251": 157,
        "11252": 174,
        "11253": 2,
        "11254": 224,
        "11255": 144,
        "11256": 102,
        "11257": 122,
        "11258": 169,
        "11259": 191,
        "11260": 90,
        "11261": 176,
        "11262": 88,
        "11263": 78,
        "11264": 25,
        "11265": 67,
        "11266": 79,
        "11267": 246,
        "11268": 146,
        "11269": 71,
        "11270": 178,
        "11271": 144,
        "11272": 97,
        "11273": 9,
        "11274": 109,
        "11275": 26,
        "11276": 150,
        "11277": 38,
        "11278": 108,
        "11279": 201,
        "11280": 89,
        "11281": 34,
        "11282": 138,
        "11283": 80,
        "11284": 170,
        "11285": 82,
        "11286": 236,
        "11287": 49,
        "11288": 135,
        "11289": 250,
        "11290": 17,
        "11291": 103,
        "11292": 175,
        "11293": 221,
        "11294": 108,
        "11295": 69,
        "11296": 69,
        "11297": 101,
        "11298": 122,
        "11299": 179,
        "11300": 128,
        "11301": 12,
        "11302": 212,
        "11303": 60,
        "11304": 123,
        "11305": 152,
        "11306": 29,
        "11307": 84,
        "11308": 15,
        "11309": 76,
        "11310": 88,
        "11311": 174,
        "11312": 164,
        "11313": 78,
        "11314": 226,
        "11315": 46,
        "11316": 159,
        "11317": 110,
        "11318": 123,
        "11319": 210,
        "11320": 127,
        "11321": 42,
        "11322": 250,
        "11323": 220,
        "11324": 120,
        "11325": 134,
        "11326": 250,
        "11327": 13,
        "11328": 77,
        "11329": 39,
        "11330": 106,
        "11331": 181,
        "11332": 105,
        "11333": 8,
        "11334": 1,
        "11335": 67,
        "11336": 218,
        "11337": 5,
        "11338": 213,
        "11339": 51,
        "11340": 90,
        "11341": 240,
        "11342": 144,
        "11343": 69,
        "11344": 43,
        "11345": 245,
        "11346": 139,
        "11347": 7,
        "11348": 116,
        "11349": 185,
        "11350": 119,
        "11351": 122,
        "11352": 171,
        "11353": 15,
        "11354": 33,
        "11355": 151,
        "11356": 17,
        "11357": 250,
        "11358": 179,
        "11359": 245,
        "11360": 124,
        "11361": 68,
        "11362": 239,
        "11363": 180,
        "11364": 19,
        "11365": 59,
        "11366": 183,
        "11367": 46,
        "11368": 26,
        "11369": 151,
        "11370": 147,
        "11371": 179,
        "11372": 74,
        "11373": 158,
        "11374": 73,
        "11375": 206,
        "11376": 124,
        "11377": 145,
        "11378": 123,
        "11379": 120,
        "11380": 184,
        "11381": 248,
        "11382": 160,
        "11383": 41,
        "11384": 250,
        "11385": 94,
        "11386": 60,
        "11387": 177,
        "11388": 23,
        "11389": 88,
        "11390": 108,
        "11391": 97,
        "11392": 68,
        "11393": 137,
        "11394": 194,
        "11395": 0,
        "11396": 182,
        "11397": 210,
        "11398": 53,
        "11399": 54,
        "11400": 252,
        "11401": 24,
        "11402": 26,
        "11403": 200,
        "11404": 97,
        "11405": 201,
        "11406": 171,
        "11407": 89,
        "11408": 245,
        "11409": 215,
        "11410": 177,
        "11411": 166,
        "11412": 140,
        "11413": 234,
        "11414": 98,
        "11415": 63,
        "11416": 92,
        "11417": 200,
        "11418": 6,
        "11419": 138,
        "11420": 175,
        "11421": 64,
        "11422": 112,
        "11423": 154,
        "11424": 22,
        "11425": 8,
        "11426": 251,
        "11427": 35,
        "11428": 182,
        "11429": 219,
        "11430": 142,
        "11431": 203,
        "11432": 139,
        "11433": 225,
        "11434": 20,
        "11435": 134,
        "11436": 134,
        "11437": 173,
        "11438": 219,
        "11439": 179,
        "11440": 175,
        "11441": 151,
        "11442": 118,
        "11443": 89,
        "11444": 250,
        "11445": 185,
        "11446": 210,
        "11447": 248,
        "11448": 143,
        "11449": 216,
        "11450": 204,
        "11451": 145,
        "11452": 22,
        "11453": 32,
        "11454": 175,
        "11455": 86,
        "11456": 23,
        "11457": 27,
        "11458": 230,
        "11459": 89,
        "11460": 73,
        "11461": 238,
        "11462": 225,
        "11463": 140,
        "11464": 213,
        "11465": 217,
        "11466": 237,
        "11467": 236,
        "11468": 18,
        "11469": 226,
        "11470": 136,
        "11471": 216,
        "11472": 30,
        "11473": 203,
        "11474": 246,
        "11475": 97,
        "11476": 101,
        "11477": 154,
        "11478": 157,
        "11479": 194,
        "11480": 209,
        "11481": 241,
        "11482": 164,
        "11483": 142,
        "11484": 147,
        "11485": 41,
        "11486": 135,
        "11487": 34,
        "11488": 3,
        "11489": 204,
        "11490": 41,
        "11491": 44,
        "11492": 180,
        "11493": 99,
        "11494": 123,
        "11495": 62,
        "11496": 142,
        "11497": 135,
        "11498": 154,
        "11499": 26,
        "11500": 161,
        "11501": 152,
        "11502": 245,
        "11503": 188,
        "11504": 69,
        "11505": 58,
        "11506": 78,
        "11507": 206,
        "11508": 225,
        "11509": 130,
        "11510": 166,
        "11511": 8,
        "11512": 88,
        "11513": 83,
        "11514": 125,
        "11515": 82,
        "11516": 171,
        "11517": 191,
        "11518": 122,
        "11519": 197,
        "11520": 235,
        "11521": 140,
        "11522": 162,
        "11523": 226,
        "11524": 233,
        "11525": 143,
        "11526": 187,
        "11527": 149,
        "11528": 187,
        "11529": 53,
        "11530": 26,
        "11531": 125,
        "11532": 139,
        "11533": 12,
        "11534": 192,
        "11535": 14,
        "11536": 19,
        "11537": 247,
        "11538": 112,
        "11539": 227,
        "11540": 111,
        "11541": 239,
        "11542": 173,
        "11543": 49,
        "11544": 218,
        "11545": 115,
        "11546": 208,
        "11547": 81,
        "11548": 216,
        "11549": 24,
        "11550": 111,
        "11551": 230,
        "11552": 145,
        "11553": 85,
        "11554": 120,
        "11555": 97,
        "11556": 106,
        "11557": 100,
        "11558": 112,
        "11559": 69,
        "11560": 123,
        "11561": 174,
        "11562": 247,
        "11563": 198,
        "11564": 32,
        "11565": 216,
        "11566": 146,
        "11567": 197,
        "11568": 194,
        "11569": 127,
        "11570": 97,
        "11571": 127,
        "11572": 140,
        "11573": 58,
        "11574": 34,
        "11575": 218,
        "11576": 91,
        "11577": 21,
        "11578": 236,
        "11579": 114,
        "11580": 205,
        "11581": 124,
        "11582": 199,
        "11583": 154,
        "11584": 61,
        "11585": 233,
        "11586": 216,
        "11587": 61,
        "11588": 0,
        "11589": 190,
        "11590": 122,
        "11591": 3,
        "11592": 153,
        "11593": 147,
        "11594": 223,
        "11595": 60,
        "11596": 110,
        "11597": 7,
        "11598": 10,
        "11599": 148,
        "11600": 51,
        "11601": 92,
        "11602": 127,
        "11603": 85,
        "11604": 202,
        "11605": 202,
        "11606": 10,
        "11607": 151,
        "11608": 83,
        "11609": 171,
        "11610": 15,
        "11611": 66,
        "11612": 233,
        "11613": 212,
        "11614": 8,
        "11615": 90,
        "11616": 85,
        "11617": 160,
        "11618": 140,
        "11619": 68,
        "11620": 157,
        "11621": 116,
        "11622": 57,
        "11623": 75,
        "11624": 158,
        "11625": 169,
        "11626": 176,
        "11627": 92,
        "11628": 213,
        "11629": 188,
        "11630": 225,
        "11631": 241,
        "11632": 209,
        "11633": 204,
        "11634": 198,
        "11635": 92,
        "11636": 253,
        "11637": 124,
        "11638": 53,
        "11639": 78,
        "11640": 206,
        "11641": 8,
        "11642": 24,
        "11643": 47,
        "11644": 28,
        "11645": 162,
        "11646": 201,
        "11647": 220,
        "11648": 127,
        "11649": 244,
        "11650": 153,
        "11651": 206,
        "11652": 172,
        "11653": 36,
        "11654": 91,
        "11655": 99,
        "11656": 77,
        "11657": 243,
        "11658": 122,
        "11659": 219,
        "11660": 66,
        "11661": 145,
        "11662": 166,
        "11663": 178,
        "11664": 200,
        "11665": 175,
        "11666": 43,
        "11667": 203,
        "11668": 21,
        "11669": 116,
        "11670": 189,
        "11671": 191,
        "11672": 228,
        "11673": 34,
        "11674": 97,
        "11675": 84,
        "11676": 181,
        "11677": 132,
        "11678": 102,
        "11679": 78,
        "11680": 130,
        "11681": 20,
        "11682": 34,
        "11683": 219,
        "11684": 44,
        "11685": 180,
        "11686": 54,
        "11687": 36,
        "11688": 207,
        "11689": 6,
        "11690": 199,
        "11691": 212,
        "11692": 121,
        "11693": 28,
        "11694": 111,
        "11695": 229,
        "11696": 221,
        "11697": 199,
        "11698": 203,
        "11699": 241,
        "11700": 138,
        "11701": 165,
        "11702": 65,
        "11703": 117,
        "11704": 238,
        "11705": 109,
        "11706": 243,
        "11707": 79,
        "11708": 101,
        "11709": 10,
        "11710": 137,
        "11711": 38,
        "11712": 27,
        "11713": 199,
        "11714": 121,
        "11715": 160,
        "11716": 226,
        "11717": 91,
        "11718": 31,
        "11719": 141,
        "11720": 45,
        "11721": 28,
        "11722": 195,
        "11723": 79,
        "11724": 50,
        "11725": 215,
        "11726": 221,
        "11727": 190,
        "11728": 178,
        "11729": 112,
        "11730": 186,
        "11731": 59,
        "11732": 248,
        "11733": 24,
        "11734": 82,
        "11735": 134,
        "11736": 104,
        "11737": 181,
        "11738": 85,
        "11739": 211,
        "11740": 68,
        "11741": 136,
        "11742": 206,
        "11743": 40,
        "11744": 209,
        "11745": 120,
        "11746": 116,
        "11747": 255,
        "11748": 240,
        "11749": 32,
        "11750": 212,
        "11751": 242,
        "11752": 162,
        "11753": 68,
        "11754": 3,
        "11755": 160,
        "11756": 252,
        "11757": 106,
        "11758": 144,
        "11759": 239,
        "11760": 115,
        "11761": 193,
        "11762": 229,
        "11763": 191,
        "11764": 85,
        "11765": 72,
        "11766": 130,
        "11767": 165,
        "11768": 55,
        "11769": 63,
        "11770": 21,
        "11771": 173,
        "11772": 240,
        "11773": 165,
        "11774": 233,
        "11775": 88,
        "11776": 106,
        "11777": 86,
        "11778": 67,
        "11779": 121,
        "11780": 10,
        "11781": 240,
        "11782": 182,
        "11783": 91,
        "11784": 201,
        "11785": 177,
        "11786": 14,
        "11787": 201,
        "11788": 9,
        "11789": 202,
        "11790": 184,
        "11791": 61,
        "11792": 224,
        "11793": 195,
        "11794": 58,
        "11795": 13,
        "11796": 211,
        "11797": 184,
        "11798": 60,
        "11799": 159,
        "11800": 155,
        "11801": 29,
        "11802": 19,
        "11803": 44,
        "11804": 168,
        "11805": 237,
        "11806": 223,
        "11807": 170,
        "11808": 102,
        "11809": 50,
        "11810": 59,
        "11811": 9,
        "11812": 45,
        "11813": 71,
        "11814": 214,
        "11815": 98,
        "11816": 94,
        "11817": 20,
        "11818": 169,
        "11819": 119,
        "11820": 56,
        "11821": 208,
        "11822": 161,
        "11823": 214,
        "11824": 173,
        "11825": 95,
        "11826": 2,
        "11827": 110,
        "11828": 35,
        "11829": 241,
        "11830": 95,
        "11831": 241,
        "11832": 178,
        "11833": 180,
        "11834": 184,
        "11835": 136,
        "11836": 219,
        "11837": 234,
        "11838": 110,
        "11839": 104,
        "11840": 182,
        "11841": 207,
        "11842": 97,
        "11843": 34,
        "11844": 44,
        "11845": 237,
        "11846": 192,
        "11847": 127,
        "11848": 52,
        "11849": 167,
        "11850": 44,
        "11851": 155,
        "11852": 161,
        "11853": 5,
        "11854": 151,
        "11855": 102,
        "11856": 132,
        "11857": 245,
        "11858": 212,
        "11859": 255,
        "11860": 167,
        "11861": 70,
        "11862": 5,
        "11863": 228,
        "11864": 128,
        "11865": 94,
        "11866": 97,
        "11867": 230,
        "11868": 254,
        "11869": 115,
        "11870": 106,
        "11871": 111,
        "11872": 2,
        "11873": 57,
        "11874": 26,
        "11875": 1,
        "11876": 218,
        "11877": 102,
        "11878": 24,
        "11879": 74,
        "11880": 216,
        "11881": 43,
        "11882": 30,
        "11883": 72,
        "11884": 146,
        "11885": 31,
        "11886": 189,
        "11887": 131,
        "11888": 176,
        "11889": 119,
        "11890": 224,
        "11891": 94,
        "11892": 61,
        "11893": 44,
        "11894": 150,
        "11895": 97,
        "11896": 20,
        "11897": 94,
        "11898": 233,
        "11899": 189,
        "11900": 200,
        "11901": 78,
        "11902": 115,
        "11903": 252,
        "11904": 62,
        "11905": 250,
        "11906": 32,
        "11907": 38,
        "11908": 55,
        "11909": 206,
        "11910": 255,
        "11911": 163,
        "11912": 210,
        "11913": 230,
        "11914": 8,
        "11915": 42,
        "11916": 216,
        "11917": 13,
        "11918": 229,
        "11919": 79,
        "11920": 141,
        "11921": 183,
        "11922": 222,
        "11923": 118,
        "11924": 98,
        "11925": 163,
        "11926": 209,
        "11927": 142,
        "11928": 202,
        "11929": 187,
        "11930": 29,
        "11931": 118,
        "11932": 93,
        "11933": 173,
        "11934": 249,
        "11935": 69,
        "11936": 161,
        "11937": 80,
        "11938": 15,
        "11939": 188,
        "11940": 123,
        "11941": 164,
        "11942": 40,
        "11943": 26,
        "11944": 165,
        "11945": 197,
        "11946": 91,
        "11947": 85,
        "11948": 14,
        "11949": 34,
        "11950": 42,
        "11951": 171,
        "11952": 100,
        "11953": 85,
        "11954": 76,
        "11955": 18,
        "11956": 48,
        "11957": 79,
        "11958": 81,
        "11959": 122,
        "11960": 103,
        "11961": 209,
        "11962": 189,
        "11963": 166,
        "11964": 19,
        "11965": 110,
        "11966": 91,
        "11967": 183,
        "11968": 30,
        "11969": 119,
        "11970": 186,
        "11971": 168,
        "11972": 167,
        "11973": 22,
        "11974": 14,
        "11975": 6,
        "11976": 83,
        "11977": 70,
        "11978": 80,
        "11979": 88,
        "11980": 228,
        "11981": 176,
        "11982": 53,
        "11983": 124,
        "11984": 222,
        "11985": 114,
        "11986": 53,
        "11987": 136,
        "11988": 26,
        "11989": 133,
        "11990": 123,
        "11991": 145,
        "11992": 82,
        "11993": 203,
        "11994": 213,
        "11995": 86,
        "11996": 69,
        "11997": 156,
        "11998": 220,
        "11999": 173,
        "12000": 37,
        "12001": 13,
        "12002": 97,
        "12003": 160,
        "12004": 98,
        "12005": 225,
        "12006": 127,
        "12007": 55,
        "12008": 229,
        "12009": 45,
        "12010": 208,
        "12011": 128,
        "12012": 75,
        "12013": 152,
        "12014": 158,
        "12015": 156,
        "12016": 7,
        "12017": 9,
        "12018": 82,
        "12019": 39,
        "12020": 90,
        "12021": 65,
        "12022": 25,
        "12023": 43,
        "12024": 149,
        "12025": 189,
        "12026": 172,
        "12027": 77,
        "12028": 62,
        "12029": 141,
        "12030": 75,
        "12031": 125,
        "12032": 187,
        "12033": 169,
        "12034": 130,
        "12035": 118,
        "12036": 154,
        "12037": 8,
        "12038": 42,
        "12039": 3,
        "12040": 122,
        "12041": 224,
        "12042": 208,
        "12043": 131,
        "12044": 49,
        "12045": 242,
        "12046": 239,
        "12047": 11,
        "12048": 10,
        "12049": 3,
        "12050": 28,
        "12051": 17,
        "12052": 30,
        "12053": 157,
        "12054": 40,
        "12055": 163,
        "12056": 99,
        "12057": 251,
        "12058": 224,
        "12059": 184,
        "12060": 235,
        "12061": 178,
        "12062": 54,
        "12063": 246,
        "12064": 175,
        "12065": 84,
        "12066": 211,
        "12067": 208,
        "12068": 232,
        "12069": 59,
        "12070": 50,
        "12071": 242,
        "12072": 173,
        "12073": 69,
        "12074": 156,
        "12075": 222,
        "12076": 171,
        "12077": 127,
        "12078": 159,
        "12079": 108,
        "12080": 178,
        "12081": 129,
        "12082": 188,
        "12083": 30,
        "12084": 70,
        "12085": 220,
        "12086": 46,
        "12087": 97,
        "12088": 232,
        "12089": 220,
        "12090": 255,
        "12091": 138,
        "12092": 179,
        "12093": 166,
        "12094": 178,
        "12095": 17,
        "12096": 107,
        "12097": 216,
        "12098": 44,
        "12099": 240,
        "12100": 247,
        "12101": 43,
        "12102": 95,
        "12103": 211,
        "12104": 149,
        "12105": 32,
        "12106": 188,
        "12107": 97,
        "12108": 116,
        "12109": 64,
        "12110": 206,
        "12111": 166,
        "12112": 192,
        "12113": 202,
        "12114": 158,
        "12115": 69,
        "12116": 20,
        "12117": 90,
        "12118": 38,
        "12119": 185,
        "12120": 44,
        "12121": 135,
        "12122": 234,
        "12123": 82,
        "12124": 105,
        "12125": 165,
        "12126": 48,
        "12127": 1,
        "12128": 74,
        "12129": 150,
        "12130": 111,
        "12131": 62,
        "12132": 10,
        "12133": 149,
        "12134": 26,
        "12135": 57,
        "12136": 76,
        "12137": 93,
        "12138": 118,
        "12139": 19,
        "12140": 84,
        "12141": 170,
        "12142": 35,
        "12143": 151,
        "12144": 141,
        "12145": 53,
        "12146": 243,
        "12147": 209,
        "12148": 193,
        "12149": 115,
        "12150": 105,
        "12151": 141,
        "12152": 176,
        "12153": 6,
        "12154": 150,
        "12155": 198,
        "12156": 183,
        "12157": 65,
        "12158": 83,
        "12159": 83,
        "12160": 140,
        "12161": 85,
        "12162": 229,
        "12163": 1,
        "12164": 71,
        "12165": 159,
        "12166": 86,
        "12167": 129,
        "12168": 35,
        "12169": 210,
        "12170": 125,
        "12171": 39,
        "12172": 32,
        "12173": 206,
        "12174": 48,
        "12175": 166,
        "12176": 186,
        "12177": 173,
        "12178": 126,
        "12179": 163,
        "12180": 122,
        "12181": 215,
        "12182": 213,
        "12183": 147,
        "12184": 174,
        "12185": 32,
        "12186": 136,
        "12187": 81,
        "12188": 63,
        "12189": 134,
        "12190": 226,
        "12191": 120,
        "12192": 78,
        "12193": 157,
        "12194": 255,
        "12195": 66,
        "12196": 128,
        "12197": 251,
        "12198": 157,
        "12199": 253,
        "12200": 115,
        "12201": 183,
        "12202": 238,
        "12203": 113,
        "12204": 196,
        "12205": 235,
        "12206": 198,
        "12207": 32,
        "12208": 107,
        "12209": 193,
        "12210": 170,
        "12211": 210,
        "12212": 109,
        "12213": 142,
        "12214": 106,
        "12215": 177,
        "12216": 52,
        "12217": 26,
        "12218": 101,
        "12219": 65,
        "12220": 82,
        "12221": 11,
        "12222": 151,
        "12223": 42,
        "12224": 11,
        "12225": 165,
        "12226": 168,
        "12227": 198,
        "12228": 217,
        "12229": 218,
        "12230": 110,
        "12231": 141,
        "12232": 25,
        "12233": 214,
        "12234": 203,
        "12235": 8,
        "12236": 189,
        "12237": 25,
        "12238": 12,
        "12239": 25,
        "12240": 194,
        "12241": 147,
        "12242": 85,
        "12243": 232,
        "12244": 227,
        "12245": 118,
        "12246": 226,
        "12247": 186,
        "12248": 168,
        "12249": 140,
        "12250": 197,
        "12251": 187,
        "12252": 68,
        "12253": 231,
        "12254": 48,
        "12255": 1,
        "12256": 194,
        "12257": 240,
        "12258": 39,
        "12259": 91,
        "12260": 4,
        "12261": 154,
        "12262": 37,
        "12263": 126,
        "12264": 91,
        "12265": 76,
        "12266": 128,
        "12267": 202,
        "12268": 170,
        "12269": 220,
        "12270": 175,
        "12271": 21,
        "12272": 196,
        "12273": 102,
        "12274": 170,
        "12275": 137,
        "12276": 98,
        "12277": 197,
        "12278": 221,
        "12279": 157,
        "12280": 71,
        "12281": 6,
        "12282": 198,
        "12283": 114,
        "12284": 43,
        "12285": 114,
        "12286": 6,
        "12287": 129,
        "12288": 148,
        "12289": 5,
        "12290": 135,
        "12291": 67,
        "12292": 162,
        "12293": 212,
        "12294": 38,
        "12295": 216,
        "12296": 126,
        "12297": 188,
        "12298": 207,
        "12299": 170,
        "12300": 61,
        "12301": 137,
        "12302": 67,
        "12303": 42,
        "12304": 139,
        "12305": 193,
        "12306": 205,
        "12307": 28,
        "12308": 245,
        "12309": 131,
        "12310": 53,
        "12311": 201,
        "12312": 39,
        "12313": 172,
        "12314": 118,
        "12315": 40,
        "12316": 208,
        "12317": 53,
        "12318": 31,
        "12319": 160,
        "12320": 96,
        "12321": 204,
        "12322": 30,
        "12323": 227,
        "12324": 156,
        "12325": 186,
        "12326": 163,
        "12327": 162,
        "12328": 57,
        "12329": 58,
        "12330": 98,
        "12331": 24,
        "12332": 191,
        "12333": 9,
        "12334": 162,
        "12335": 98,
        "12336": 71,
        "12337": 202,
        "12338": 200,
        "12339": 118,
        "12340": 124,
        "12341": 62,
        "12342": 98,
        "12343": 142,
        "12344": 241,
        "12345": 116,
        "12346": 14,
        "12347": 152,
        "12348": 184,
        "12349": 84,
        "12350": 49,
        "12351": 86,
        "12352": 45,
        "12353": 143,
        "12354": 0,
        "12355": 60,
        "12356": 239,
        "12357": 100,
        "12358": 121,
        "12359": 253,
        "12360": 233,
        "12361": 32,
        "12362": 122,
        "12363": 87,
        "12364": 237,
        "12365": 201,
        "12366": 220,
        "12367": 80,
        "12368": 105,
        "12369": 241,
        "12370": 12,
        "12371": 136,
        "12372": 88,
        "12373": 158,
        "12374": 17,
        "12375": 70,
        "12376": 114,
        "12377": 117,
        "12378": 21,
        "12379": 213,
        "12380": 174,
        "12381": 129,
        "12382": 116,
        "12383": 100,
        "12384": 85,
        "12385": 42,
        "12386": 86,
        "12387": 198,
        "12388": 94,
        "12389": 116,
        "12390": 87,
        "12391": 147,
        "12392": 67,
        "12393": 68,
        "12394": 134,
        "12395": 178,
        "12396": 93,
        "12397": 22,
        "12398": 151,
        "12399": 35,
        "12400": 43,
        "12401": 169,
        "12402": 180,
        "12403": 123,
        "12404": 128,
        "12405": 90,
        "12406": 155,
        "12407": 161,
        "12408": 156,
        "12409": 114,
        "12410": 118,
        "12411": 203,
        "12412": 112,
        "12413": 71,
        "12414": 79,
        "12415": 213,
        "12416": 236,
        "12417": 156,
        "12418": 7,
        "12419": 218,
        "12420": 198,
        "12421": 57,
        "12422": 88,
        "12423": 187,
        "12424": 253,
        "12425": 140,
        "12426": 121,
        "12427": 95,
        "12428": 215,
        "12429": 234,
        "12430": 35,
        "12431": 201,
        "12432": 253,
        "12433": 208,
        "12434": 74,
        "12435": 204,
        "12436": 41,
        "12437": 19,
        "12438": 243,
        "12439": 152,
        "12440": 96,
        "12441": 67,
        "12442": 37,
        "12443": 241,
        "12444": 183,
        "12445": 233,
        "12446": 238,
        "12447": 53,
        "12448": 2,
        "12449": 156,
        "12450": 228,
        "12451": 59,
        "12452": 147,
        "12453": 107,
        "12454": 144,
        "12455": 124,
        "12456": 95,
        "12457": 32,
        "12458": 54,
        "12459": 210,
        "12460": 54,
        "12461": 249,
        "12462": 80,
        "12463": 125,
        "12464": 185,
        "12465": 9,
        "12466": 253,
        "12467": 45,
        "12468": 170,
        "12469": 254,
        "12470": 40,
        "12471": 155,
        "12472": 102,
        "12473": 138,
        "12474": 95,
        "12475": 249,
        "12476": 191,
        "12477": 157,
        "12478": 251,
        "12479": 203,
        "12480": 7,
        "12481": 254,
        "12482": 253,
        "12483": 135,
        "12484": 234,
        "12485": 226,
        "12486": 53,
        "12487": 25,
        "12488": 163,
        "12489": 32,
        "12490": 97,
        "12491": 85,
        "12492": 130,
        "12493": 244,
        "12494": 25,
        "12495": 157,
        "12496": 78,
        "12497": 145,
        "12498": 102,
        "12499": 46,
        "12500": 97,
        "12501": 220,
        "12502": 201,
        "12503": 88,
        "12504": 90,
        "12505": 0,
        "12506": 231,
        "12507": 54,
        "12508": 29,
        "12509": 81,
        "12510": 126,
        "12511": 75,
        "12512": 179,
        "12513": 106,
        "12514": 63,
        "12515": 215,
        "12516": 140,
        "12517": 85,
        "12518": 238,
        "12519": 208,
        "12520": 248,
        "12521": 229,
        "12522": 191,
        "12523": 27,
        "12524": 34,
        "12525": 176,
        "12526": 16,
        "12527": 11,
        "12528": 207,
        "12529": 65,
        "12530": 59,
        "12531": 250,
        "12532": 121,
        "12533": 48,
        "12534": 159,
        "12535": 101,
        "12536": 150,
        "12537": 59,
        "12538": 247,
        "12539": 94,
        "12540": 57,
        "12541": 157,
        "12542": 228,
        "12543": 197,
        "12544": 138,
        "12545": 81,
        "12546": 69,
        "12547": 124,
        "12548": 120,
        "12549": 148,
        "12550": 193,
        "12551": 109,
        "12552": 118,
        "12553": 254,
        "12554": 80,
        "12555": 149,
        "12556": 56,
        "12557": 216,
        "12558": 116,
        "12559": 184,
        "12560": 5,
        "12561": 14,
        "12562": 37,
        "12563": 165,
        "12564": 234,
        "12565": 131,
        "12566": 163,
        "12567": 5,
        "12568": 16,
        "12569": 81,
        "12570": 220,
        "12571": 93,
        "12572": 158,
        "12573": 53,
        "12574": 108,
        "12575": 154,
        "12576": 33,
        "12577": 133,
        "12578": 35,
        "12579": 149,
        "12580": 192,
        "12581": 212,
        "12582": 219,
        "12583": 105,
        "12584": 166,
        "12585": 82,
        "12586": 232,
        "12587": 233,
        "12588": 83,
        "12589": 77,
        "12590": 193,
        "12591": 237,
        "12592": 146,
        "12593": 65,
        "12594": 247,
        "12595": 90,
        "12596": 235,
        "12597": 39,
        "12598": 70,
        "12599": 45,
        "12600": 12,
        "12601": 154,
        "12602": 25,
        "12603": 193,
        "12604": 92,
        "12605": 30,
        "12606": 2,
        "12607": 110,
        "12608": 153,
        "12609": 85,
        "12610": 111,
        "12611": 77,
        "12612": 193,
        "12613": 242,
        "12614": 0,
        "12615": 211,
        "12616": 183,
        "12617": 192,
        "12618": 67,
        "12619": 119,
        "12620": 139,
        "12621": 187,
        "12622": 70,
        "12623": 162,
        "12624": 75,
        "12625": 43,
        "12626": 4,
        "12627": 18,
        "12628": 172,
        "12629": 124,
        "12630": 244,
        "12631": 65,
        "12632": 127,
        "12633": 122,
        "12634": 3,
        "12635": 214,
        "12636": 44,
        "12637": 5,
        "12638": 54,
        "12639": 45,
        "12640": 133,
        "12641": 122,
        "12642": 111,
        "12643": 254,
        "12644": 183,
        "12645": 224,
        "12646": 209,
        "12647": 104,
        "12648": 20,
        "12649": 150,
        "12650": 116,
        "12651": 32,
        "12652": 86,
        "12653": 110,
        "12654": 84,
        "12655": 91,
        "12656": 190,
        "12657": 55,
        "12658": 89,
        "12659": 74,
        "12660": 81,
        "12661": 18,
        "12662": 3,
        "12663": 6,
        "12664": 24,
        "12665": 226,
        "12666": 57,
        "12667": 170,
        "12668": 105,
        "12669": 162,
        "12670": 85,
        "12671": 251,
        "12672": 48,
        "12673": 30,
        "12674": 108,
        "12675": 6,
        "12676": 213,
        "12677": 159,
        "12678": 122,
        "12679": 244,
        "12680": 18,
        "12681": 116,
        "12682": 119,
        "12683": 253,
        "12684": 8,
        "12685": 176,
        "12686": 199,
        "12687": 234,
        "12688": 177,
        "12689": 254,
        "12690": 135,
        "12691": 189,
        "12692": 49,
        "12693": 246,
        "12694": 6,
        "12695": 78,
        "12696": 76,
        "12697": 223,
        "12698": 64,
        "12699": 83,
        "12700": 174,
        "12701": 149,
        "12702": 211,
        "12703": 194,
        "12704": 15,
        "12705": 48,
        "12706": 99,
        "12707": 87,
        "12708": 55,
        "12709": 124,
        "12710": 95,
        "12711": 212,
        "12712": 144,
        "12713": 158,
        "12714": 129,
        "12715": 114,
        "12716": 166,
        "12717": 162,
        "12718": 44,
        "12719": 247,
        "12720": 34,
        "12721": 176,
        "12722": 52,
        "12723": 146,
        "12724": 7,
        "12725": 234,
        "12726": 252,
        "12727": 205,
        "12728": 64,
        "12729": 222,
        "12730": 26,
        "12731": 73,
        "12732": 131,
        "12733": 126,
        "12734": 191,
        "12735": 242,
        "12736": 203,
        "12737": 164,
        "12738": 45,
        "12739": 36,
        "12740": 201,
        "12741": 23,
        "12742": 204,
        "12743": 196,
        "12744": 7,
        "12745": 174,
        "12746": 247,
        "12747": 246,
        "12748": 198,
        "12749": 131,
        "12750": 57,
        "12751": 46,
        "12752": 159,
        "12753": 215,
        "12754": 117,
        "12755": 154,
        "12756": 178,
        "12757": 48,
        "12758": 219,
        "12759": 241,
        "12760": 122,
        "12761": 192,
        "12762": 31,
        "12763": 99,
        "12764": 229,
        "12765": 139,
        "12766": 90,
        "12767": 178,
        "12768": 172,
        "12769": 213,
        "12770": 58,
        "12771": 43,
        "12772": 14,
        "12773": 4,
        "12774": 111,
        "12775": 207,
        "12776": 185,
        "12777": 142,
        "12778": 46,
        "12779": 193,
        "12780": 151,
        "12781": 146,
        "12782": 252,
        "12783": 251,
        "12784": 26,
        "12785": 40,
        "12786": 13,
        "12787": 248,
        "12788": 69,
        "12789": 227,
        "12790": 191,
        "12791": 227,
        "12792": 67,
        "12793": 90,
        "12794": 134,
        "12795": 47,
        "12796": 253,
        "12797": 178,
        "12798": 169,
        "12799": 125,
        "12800": 11,
        "12801": 226,
        "12802": 37,
        "12803": 136,
        "12804": 114,
        "12805": 199,
        "12806": 176,
        "12807": 227,
        "12808": 56,
        "12809": 208,
        "12810": 167,
        "12811": 43,
        "12812": 238,
        "12813": 11,
        "12814": 116,
        "12815": 13,
        "12816": 163,
        "12817": 148,
        "12818": 138,
        "12819": 115,
        "12820": 157,
        "12821": 144,
        "12822": 66,
        "12823": 177,
        "12824": 53,
        "12825": 8,
        "12826": 177,
        "12827": 80,
        "12828": 75,
        "12829": 223,
        "12830": 155,
        "12831": 251,
        "12832": 189,
        "12833": 117,
        "12834": 139,
        "12835": 133,
        "12836": 219,
        "12837": 50,
        "12838": 79,
        "12839": 82,
        "12840": 175,
        "12841": 80,
        "12842": 15,
        "12843": 241,
        "12844": 170,
        "12845": 107,
        "12846": 166,
        "12847": 99,
        "12848": 77,
        "12849": 7,
        "12850": 152,
        "12851": 159,
        "12852": 187,
        "12853": 202,
        "12854": 243,
        "12855": 153,
        "12856": 184,
        "12857": 2,
        "12858": 103,
        "12859": 146,
        "12860": 101,
        "12861": 242,
        "12862": 85,
        "12863": 239,
        "12864": 15,
        "12865": 98,
        "12866": 28,
        "12867": 39,
        "12868": 82,
        "12869": 170,
        "12870": 28,
        "12871": 18,
        "12872": 224,
        "12873": 227,
        "12874": 231,
        "12875": 123,
        "12876": 135,
        "12877": 94,
        "12878": 154,
        "12879": 128,
        "12880": 176,
        "12881": 49,
        "12882": 194,
        "12883": 77,
        "12884": 197,
        "12885": 104,
        "12886": 60,
        "12887": 212,
        "12888": 96,
        "12889": 243,
        "12890": 21,
        "12891": 64,
        "12892": 229,
        "12893": 199,
        "12894": 119,
        "12895": 35,
        "12896": 17,
        "12897": 10,
        "12898": 42,
        "12899": 22,
        "12900": 84,
        "12901": 142,
        "12902": 0,
        "12903": 170,
        "12904": 110,
        "12905": 89,
        "12906": 133,
        "12907": 230,
        "12908": 233,
        "12909": 47,
        "12910": 139,
        "12911": 214,
        "12912": 4,
        "12913": 233,
        "12914": 30,
        "12915": 249,
        "12916": 3,
        "12917": 180,
        "12918": 58,
        "12919": 255,
        "12920": 166,
        "12921": 117,
        "12922": 35,
        "12923": 154,
        "12924": 65,
        "12925": 13,
        "12926": 196,
        "12927": 48,
        "12928": 35,
        "12929": 154,
        "12930": 106,
        "12931": 134,
        "12932": 4,
        "12933": 91,
        "12934": 116,
        "12935": 98,
        "12936": 252,
        "12937": 45,
        "12938": 54,
        "12939": 181,
        "12940": 39,
        "12941": 50,
        "12942": 234,
        "12943": 104,
        "12944": 114,
        "12945": 180,
        "12946": 24,
        "12947": 77,
        "12948": 13,
        "12949": 242,
        "12950": 37,
        "12951": 96,
        "12952": 127,
        "12953": 4,
        "12954": 21,
        "12955": 22,
        "12956": 220,
        "12957": 68,
        "12958": 167,
        "12959": 111,
        "12960": 6,
        "12961": 71,
        "12962": 86,
        "12963": 176,
        "12964": 235,
        "12965": 56,
        "12966": 92,
        "12967": 230,
        "12968": 104,
        "12969": 246,
        "12970": 203,
        "12971": 17,
        "12972": 196,
        "12973": 163,
        "12974": 101,
        "12975": 36,
        "12976": 227,
        "12977": 102,
        "12978": 212,
        "12979": 191,
        "12980": 10,
        "12981": 100,
        "12982": 30,
        "12983": 153,
        "12984": 218,
        "12985": 182,
        "12986": 209,
        "12987": 48,
        "12988": 99,
        "12989": 42,
        "12990": 159,
        "12991": 121,
        "12992": 97,
        "12993": 96,
        "12994": 147,
        "12995": 254,
        "12996": 24,
        "12997": 218,
        "12998": 12,
        "12999": 201,
        "13000": 204,
        "13001": 238,
        "13002": 214,
        "13003": 2,
        "13004": 235,
        "13005": 120,
        "13006": 241,
        "13007": 123,
        "13008": 133,
        "13009": 195,
        "13010": 4,
        "13011": 40,
        "13012": 18,
        "13013": 185,
        "13014": 33,
        "13015": 232,
        "13016": 182,
        "13017": 144,
        "13018": 3,
        "13019": 131,
        "13020": 223,
        "13021": 208,
        "13022": 69,
        "13023": 156,
        "13024": 112,
        "13025": 175,
        "13026": 234,
        "13027": 18,
        "13028": 108,
        "13029": 182,
        "13030": 113,
        "13031": 157,
        "13032": 115,
        "13033": 126,
        "13034": 103,
        "13035": 0,
        "13036": 206,
        "13037": 53,
        "13038": 133,
        "13039": 121,
        "13040": 192,
        "13041": 7,
        "13042": 64,
        "13043": 156,
        "13044": 164,
        "13045": 124,
        "13046": 17,
        "13047": 12,
        "13048": 171,
        "13049": 250,
        "13050": 66,
        "13051": 87,
        "13052": 8,
        "13053": 36,
        "13054": 219,
        "13055": 238,
        "13056": 103,
        "13057": 185,
        "13058": 249,
        "13059": 158,
        "13060": 97,
        "13061": 36,
        "13062": 41,
        "13063": 159,
        "13064": 101,
        "13065": 71,
        "13066": 12,
        "13067": 215,
        "13068": 5,
        "13069": 132,
        "13070": 242,
        "13071": 91,
        "13072": 230,
        "13073": 175,
        "13074": 4,
        "13075": 136,
        "13076": 16,
        "13077": 53,
        "13078": 255,
        "13079": 127,
        "13080": 195,
        "13081": 53,
        "13082": 0,
        "13083": 47,
        "13084": 90,
        "13085": 107,
        "13086": 248,
        "13087": 130,
        "13088": 178,
        "13089": 116,
        "13090": 124,
        "13091": 102,
        "13092": 73,
        "13093": 63,
        "13094": 93,
        "13095": 107,
        "13096": 190,
        "13097": 14,
        "13098": 165,
        "13099": 54,
        "13100": 247,
        "13101": 169,
        "13102": 56,
        "13103": 140,
        "13104": 44,
        "13105": 69,
        "13106": 53,
        "13107": 61,
        "13108": 216,
        "13109": 186,
        "13110": 76,
        "13111": 52,
        "13112": 176,
        "13113": 255,
        "13114": 237,
        "13115": 116,
        "13116": 4,
        "13117": 190,
        "13118": 91,
        "13119": 208,
        "13120": 215,
        "13121": 56,
        "13122": 163,
        "13123": 72,
        "13124": 105,
        "13125": 155,
        "13126": 138,
        "13127": 108,
        "13128": 30,
        "13129": 225,
        "13130": 64,
        "13131": 3,
        "13132": 136,
        "13133": 182,
        "13134": 46,
        "13135": 226,
        "13136": 98,
        "13137": 209,
        "13138": 133,
        "13139": 194,
        "13140": 89,
        "13141": 170,
        "13142": 16,
        "13143": 5,
        "13144": 89,
        "13145": 72,
        "13146": 96,
        "13147": 18,
        "13148": 144,
        "13149": 50,
        "13150": 50,
        "13151": 61,
        "13152": 32,
        "13153": 165,
        "13154": 163,
        "13155": 22,
        "13156": 161,
        "13157": 118,
        "13158": 129,
        "13159": 9,
        "13160": 110,
        "13161": 185,
        "13162": 248,
        "13163": 121,
        "13164": 197,
        "13165": 21,
        "13166": 35,
        "13167": 30,
        "13168": 91,
        "13169": 76,
        "13170": 84,
        "13171": 8,
        "13172": 110,
        "13173": 89,
        "13174": 100,
        "13175": 199,
        "13176": 240,
        "13177": 131,
        "13178": 49,
        "13179": 150,
        "13180": 29,
        "13181": 235,
        "13182": 31,
        "13183": 133,
        "13184": 122,
        "13185": 211,
        "13186": 211,
        "13187": 247,
        "13188": 234,
        "13189": 187,
        "13190": 157,
        "13191": 242,
        "13192": 95,
        "13193": 238,
        "13194": 40,
        "13195": 60,
        "13196": 240,
        "13197": 67,
        "13198": 50,
        "13199": 212,
        "13200": 223,
        "13201": 152,
        "13202": 19,
        "13203": 121,
        "13204": 4,
        "13205": 119,
        "13206": 82,
        "13207": 186,
        "13208": 147,
        "13209": 188,
        "13210": 121,
        "13211": 112,
        "13212": 97,
        "13213": 180,
        "13214": 247,
        "13215": 218,
        "13216": 208,
        "13217": 45,
        "13218": 40,
        "13219": 198,
        "13220": 189,
        "13221": 19,
        "13222": 82,
        "13223": 53,
        "13224": 130,
        "13225": 43,
        "13226": 37,
        "13227": 176,
        "13228": 114,
        "13229": 69,
        "13230": 112,
        "13231": 21,
        "13232": 94,
        "13233": 55,
        "13234": 210,
        "13235": 197,
        "13236": 133,
        "13237": 246,
        "13238": 228,
        "13239": 146,
        "13240": 130,
        "13241": 61,
        "13242": 211,
        "13243": 184,
        "13244": 151,
        "13245": 90,
        "13246": 59,
        "13247": 221,
        "13248": 76,
        "13249": 241,
        "13250": 229,
        "13251": 238,
        "13252": 203,
        "13253": 115,
        "13254": 161,
        "13255": 113,
        "13256": 159,
        "13257": 253,
        "13258": 228,
        "13259": 161,
        "13260": 163,
        "13261": 196,
        "13262": 14,
        "13263": 95,
        "13264": 254,
        "13265": 222,
        "13266": 41,
        "13267": 245,
        "13268": 17,
        "13269": 175,
        "13270": 91,
        "13271": 59,
        "13272": 167,
        "13273": 1,
        "13274": 174,
        "13275": 151,
        "13276": 142,
        "13277": 47,
        "13278": 161,
        "13279": 254,
        "13280": 178,
        "13281": 251,
        "13282": 38,
        "13283": 227,
        "13284": 19,
        "13285": 7,
        "13286": 163,
        "13287": 6,
        "13288": 245,
        "13289": 252,
        "13290": 245,
        "13291": 0,
        "13292": 241,
        "13293": 128,
        "13294": 114,
        "13295": 178,
        "13296": 229,
        "13297": 210,
        "13298": 92,
        "13299": 182,
        "13300": 158,
        "13301": 252,
        "13302": 159,
        "13303": 128,
        "13304": 216,
        "13305": 255,
        "13306": 67,
        "13307": 130,
        "13308": 156,
        "13309": 188,
        "13310": 181,
        "13311": 121,
        "13312": 114,
        "13313": 53,
        "13314": 70,
        "13315": 132,
        "13316": 37,
        "13317": 105,
        "13318": 152,
        "13319": 90,
        "13320": 80,
        "13321": 171,
        "13322": 16,
        "13323": 168,
        "13324": 15,
        "13325": 253,
        "13326": 16,
        "13327": 192,
        "13328": 51,
        "13329": 101,
        "13330": 180,
        "13331": 66,
        "13332": 228,
        "13333": 145,
        "13334": 173,
        "13335": 1,
        "13336": 225,
        "13337": 232,
        "13338": 253,
        "13339": 173,
        "13340": 24,
        "13341": 89,
        "13342": 113,
        "13343": 69,
        "13344": 72,
        "13345": 116,
        "13346": 1,
        "13347": 187,
        "13348": 137,
        "13349": 241,
        "13350": 206,
        "13351": 149,
        "13352": 180,
        "13353": 137,
        "13354": 82,
        "13355": 212,
        "13356": 14,
        "13357": 11,
        "13358": 114,
        "13359": 82,
        "13360": 210,
        "13361": 212,
        "13362": 109,
        "13363": 188,
        "13364": 56,
        "13365": 180,
        "13366": 201,
        "13367": 141,
        "13368": 180,
        "13369": 159,
        "13370": 73,
        "13371": 84,
        "13372": 137,
        "13373": 7,
        "13374": 107,
        "13375": 191,
        "13376": 15,
        "13377": 76,
        "13378": 140,
        "13379": 106,
        "13380": 16,
        "13381": 213,
        "13382": 15,
        "13383": 84,
        "13384": 18,
        "13385": 34,
        "13386": 192,
        "13387": 12,
        "13388": 252,
        "13389": 89,
        "13390": 13,
        "13391": 7,
        "13392": 183,
        "13393": 41,
        "13394": 162,
        "13395": 193,
        "13396": 224,
        "13397": 18,
        "13398": 88,
        "13399": 60,
        "13400": 161,
        "13401": 30,
        "13402": 120,
        "13403": 50,
        "13404": 88,
        "13405": 241,
        "13406": 192,
        "13407": 52,
        "13408": 242,
        "13409": 61,
        "13410": 71,
        "13411": 9,
        "13412": 173,
        "13413": 235,
        "13414": 248,
        "13415": 209,
        "13416": 103,
        "13417": 246,
        "13418": 140,
        "13419": 189,
        "13420": 46,
        "13421": 190,
        "13422": 8,
        "13423": 202,
        "13424": 247,
        "13425": 242,
        "13426": 165,
        "13427": 121,
        "13428": 45,
        "13429": 169,
        "13430": 160,
        "13431": 41,
        "13432": 150,
        "13433": 207,
        "13434": 37,
        "13435": 187,
        "13436": 138,
        "13437": 154,
        "13438": 64,
        "13439": 25,
        "13440": 76,
        "13441": 24,
        "13442": 112,
        "13443": 179,
        "13444": 238,
        "13445": 44,
        "13446": 52,
        "13447": 143,
        "13448": 149,
        "13449": 41,
        "13450": 241,
        "13451": 171,
        "13452": 134,
        "13453": 56,
        "13454": 53,
        "13455": 19,
        "13456": 18,
        "13457": 103,
        "13458": 219,
        "13459": 32,
        "13460": 182,
        "13461": 170,
        "13462": 55,
        "13463": 76,
        "13464": 226,
        "13465": 249,
        "13466": 70,
        "13467": 40,
        "13468": 148,
        "13469": 118,
        "13470": 107,
        "13471": 33,
        "13472": 8,
        "13473": 250,
        "13474": 127,
        "13475": 183,
        "13476": 185,
        "13477": 97,
        "13478": 222,
        "13479": 150,
        "13480": 213,
        "13481": 250,
        "13482": 108,
        "13483": 133,
        "13484": 116,
        "13485": 203,
        "13486": 19,
        "13487": 213,
        "13488": 200,
        "13489": 25,
        "13490": 119,
        "13491": 45,
        "13492": 94,
        "13493": 73,
        "13494": 36,
        "13495": 81,
        "13496": 10,
        "13497": 5,
        "13498": 54,
        "13499": 184,
        "13500": 232,
        "13501": 217,
        "13502": 149,
        "13503": 49,
        "13504": 185,
        "13505": 202,
        "13506": 66,
        "13507": 199,
        "13508": 108,
        "13509": 67,
        "13510": 110,
        "13511": 180,
        "13512": 50,
        "13513": 111,
        "13514": 16,
        "13515": 103,
        "13516": 234,
        "13517": 253,
        "13518": 253,
        "13519": 100,
        "13520": 150,
        "13521": 230,
        "13522": 104,
        "13523": 143,
        "13524": 83,
        "13525": 152,
        "13526": 168,
        "13527": 194,
        "13528": 72,
        "13529": 78,
        "13530": 235,
        "13531": 147,
        "13532": 34,
        "13533": 111,
        "13534": 240,
        "13535": 239,
        "13536": 67,
        "13537": 82,
        "13538": 137,
        "13539": 34,
        "13540": 151,
        "13541": 86,
        "13542": 119,
        "13543": 175,
        "13544": 111,
        "13545": 152,
        "13546": 79,
        "13547": 150,
        "13548": 67,
        "13549": 45,
        "13550": 98,
        "13551": 110,
        "13552": 52,
        "13553": 141,
        "13554": 121,
        "13555": 15,
        "13556": 57,
        "13557": 110,
        "13558": 128,
        "13559": 172,
        "13560": 232,
        "13561": 37,
        "13562": 45,
        "13563": 33,
        "13564": 75,
        "13565": 42,
        "13566": 81,
        "13567": 106,
        "13568": 81,
        "13569": 63,
        "13570": 237,
        "13571": 76,
        "13572": 85,
        "13573": 193,
        "13574": 233,
        "13575": 121,
        "13576": 143,
        "13577": 51,
        "13578": 193,
        "13579": 101,
        "13580": 203,
        "13581": 78,
        "13582": 178,
        "13583": 224,
        "13584": 225,
        "13585": 210,
        "13586": 253,
        "13587": 225,
        "13588": 199,
        "13589": 240,
        "13590": 134,
        "13591": 152,
        "13592": 7,
        "13593": 235,
        "13594": 17,
        "13595": 210,
        "13596": 100,
        "13597": 54,
        "13598": 155,
        "13599": 17,
        "13600": 213,
        "13601": 229,
        "13602": 112,
        "13603": 176,
        "13604": 37,
        "13605": 96,
        "13606": 125,
        "13607": 163,
        "13608": 28,
        "13609": 104,
        "13610": 5,
        "13611": 251,
        "13612": 79,
        "13613": 16,
        "13614": 216,
        "13615": 119,
        "13616": 56,
        "13617": 173,
        "13618": 122,
        "13619": 205,
        "13620": 234,
        "13621": 59,
        "13622": 41,
        "13623": 67,
        "13624": 77,
        "13625": 235,
        "13626": 77,
        "13627": 47,
        "13628": 82,
        "13629": 76,
        "13630": 176,
        "13631": 160,
        "13632": 83,
        "13633": 110,
        "13634": 37,
        "13635": 170,
        "13636": 248,
        "13637": 75,
        "13638": 239,
        "13639": 209,
        "13640": 1,
        "13641": 160,
        "13642": 216,
        "13643": 69,
        "13644": 216,
        "13645": 19,
        "13646": 120,
        "13647": 181,
        "13648": 137,
        "13649": 125,
        "13650": 117,
        "13651": 22,
        "13652": 129,
        "13653": 146,
        "13654": 135,
        "13655": 101,
        "13656": 62,
        "13657": 128,
        "13658": 187,
        "13659": 14,
        "13660": 81,
        "13661": 183,
        "13662": 202,
        "13663": 80,
        "13664": 21,
        "13665": 9,
        "13666": 247,
        "13667": 131,
        "13668": 85,
        "13669": 131,
        "13670": 6,
        "13671": 139,
        "13672": 229,
        "13673": 163,
        "13674": 40,
        "13675": 225,
        "13676": 11,
        "13677": 224,
        "13678": 51,
        "13679": 176,
        "13680": 42,
        "13681": 60,
        "13682": 128,
        "13683": 207,
        "13684": 2,
        "13685": 176,
        "13686": 2,
        "13687": 88,
        "13688": 197,
        "13689": 229,
        "13690": 20,
        "13691": 88,
        "13692": 149,
        "13693": 222,
        "13694": 171,
        "13695": 31,
        "13696": 153,
        "13697": 152,
        "13698": 149,
        "13699": 93,
        "13700": 237,
        "13701": 83,
        "13702": 94,
        "13703": 21,
        "13704": 75,
        "13705": 179,
        "13706": 94,
        "13707": 157,
        "13708": 203,
        "13709": 83,
        "13710": 37,
        "13711": 248,
        "13712": 58,
        "13713": 219,
        "13714": 232,
        "13715": 19,
        "13716": 210,
        "13717": 193,
        "13718": 157,
        "13719": 30,
        "13720": 145,
        "13721": 226,
        "13722": 108,
        "13723": 83,
        "13724": 126,
        "13725": 227,
        "13726": 0,
        "13727": 4,
        "13728": 153,
        "13729": 47,
        "13730": 131,
        "13731": 13,
        "13732": 224,
        "13733": 76,
        "13734": 133,
        "13735": 144,
        "13736": 16,
        "13737": 16,
        "13738": 250,
        "13739": 141,
        "13740": 202,
        "13741": 43,
        "13742": 80,
        "13743": 123,
        "13744": 60,
        "13745": 11,
        "13746": 167,
        "13747": 53,
        "13748": 100,
        "13749": 54,
        "13750": 227,
        "13751": 64,
        "13752": 237,
        "13753": 141,
        "13754": 72,
        "13755": 78,
        "13756": 152,
        "13757": 1,
        "13758": 137,
        "13759": 38,
        "13760": 33,
        "13761": 176,
        "13762": 194,
        "13763": 47,
        "13764": 124,
        "13765": 42,
        "13766": 182,
        "13767": 243,
        "13768": 157,
        "13769": 152,
        "13770": 58,
        "13771": 231,
        "13772": 109,
        "13773": 26,
        "13774": 73,
        "13775": 159,
        "13776": 236,
        "13777": 27,
        "13778": 184,
        "13779": 107,
        "13780": 90,
        "13781": 252,
        "13782": 93,
        "13783": 32,
        "13784": 144,
        "13785": 57,
        "13786": 72,
        "13787": 183,
        "13788": 169,
        "13789": 197,
        "13790": 90,
        "13791": 114,
        "13792": 59,
        "13793": 151,
        "13794": 128,
        "13795": 108,
        "13796": 94,
        "13797": 111,
        "13798": 246,
        "13799": 9,
        "13800": 124,
        "13801": 128,
        "13802": 239,
        "13803": 10,
        "13804": 129,
        "13805": 143,
        "13806": 163,
        "13807": 76,
        "13808": 136,
        "13809": 48,
        "13810": 29,
        "13811": 106,
        "13812": 89,
        "13813": 197,
        "13814": 133,
        "13815": 170,
        "13816": 47,
        "13817": 156,
        "13818": 102,
        "13819": 106,
        "13820": 14,
        "13821": 89,
        "13822": 178,
        "13823": 53,
        "13824": 213,
        "13825": 205,
        "13826": 234,
        "13827": 106,
        "13828": 208,
        "13829": 180,
        "13830": 191,
        "13831": 117,
        "13832": 4,
        "13833": 247,
        "13834": 132,
        "13835": 52,
        "13836": 128,
        "13837": 154,
        "13838": 243,
        "13839": 197,
        "13840": 34,
        "13841": 74,
        "13842": 55,
        "13843": 52,
        "13844": 174,
        "13845": 145,
        "13846": 246,
        "13847": 50,
        "13848": 77,
        "13849": 126,
        "13850": 157,
        "13851": 7,
        "13852": 128,
        "13853": 66,
        "13854": 253,
        "13855": 62,
        "13856": 26,
        "13857": 113,
        "13858": 156,
        "13859": 186,
        "13860": 141,
        "13861": 18,
        "13862": 152,
        "13863": 211,
        "13864": 34,
        "13865": 208,
        "13866": 241,
        "13867": 158,
        "13868": 212,
        "13869": 31,
        "13870": 13,
        "13871": 219,
        "13872": 23,
        "13873": 247,
        "13874": 104,
        "13875": 244,
        "13876": 64,
        "13877": 108,
        "13878": 95,
        "13879": 19,
        "13880": 60,
        "13881": 203,
        "13882": 48,
        "13883": 133,
        "13884": 235,
        "13885": 76,
        "13886": 56,
        "13887": 187,
        "13888": 39,
        "13889": 225,
        "13890": 198,
        "13891": 250,
        "13892": 233,
        "13893": 12,
        "13894": 57,
        "13895": 89,
        "13896": 37,
        "13897": 150,
        "13898": 24,
        "13899": 31,
        "13900": 213,
        "13901": 206,
        "13902": 147,
        "13903": 91,
        "13904": 124,
        "13905": 9,
        "13906": 17,
        "13907": 184,
        "13908": 231,
        "13909": 235,
        "13910": 183,
        "13911": 156,
        "13912": 58,
        "13913": 168,
        "13914": 174,
        "13915": 8,
        "13916": 231,
        "13917": 217,
        "13918": 51,
        "13919": 78,
        "13920": 209,
        "13921": 138,
        "13922": 104,
        "13923": 232,
        "13924": 199,
        "13925": 193,
        "13926": 16,
        "13927": 6,
        "13928": 189,
        "13929": 225,
        "13930": 229,
        "13931": 230,
        "13932": 38,
        "13933": 166,
        "13934": 205,
        "13935": 0,
        "13936": 140,
        "13937": 11,
        "13938": 57,
        "13939": 227,
        "13940": 189,
        "13941": 168,
        "13942": 17,
        "13943": 178,
        "13944": 109,
        "13945": 126,
        "13946": 159,
        "13947": 235,
        "13948": 84,
        "13949": 204,
        "13950": 202,
        "13951": 121,
        "13952": 199,
        "13953": 42,
        "13954": 54,
        "13955": 8,
        "13956": 188,
        "13957": 59,
        "13958": 208,
        "13959": 173,
        "13960": 245,
        "13961": 210,
        "13962": 232,
        "13963": 186,
        "13964": 246,
        "13965": 94,
        "13966": 19,
        "13967": 245,
        "13968": 138,
        "13969": 79,
        "13970": 36,
        "13971": 22,
        "13972": 111,
        "13973": 148,
        "13974": 170,
        "13975": 70,
        "13976": 176,
        "13977": 246,
        "13978": 228,
        "13979": 70,
        "13980": 164,
        "13981": 9,
        "13982": 177,
        "13983": 56,
        "13984": 87,
        "13985": 226,
        "13986": 112,
        "13987": 9,
        "13988": 78,
        "13989": 147,
        "13990": 237,
        "13991": 165,
        "13992": 115,
        "13993": 196,
        "13994": 189,
        "13995": 42,
        "13996": 96,
        "13997": 189,
        "13998": 129,
        "13999": 182,
        "14000": 252,
        "14001": 62,
        "14002": 187,
        "14003": 176,
        "14004": 0,
        "14005": 254,
        "14006": 223,
        "14007": 6,
        "14008": 20,
        "14009": 111,
        "14010": 43,
        "14011": 206,
        "14012": 248,
        "14013": 133,
        "14014": 50,
        "14015": 252,
        "14016": 58,
        "14017": 169,
        "14018": 183,
        "14019": 73,
        "14020": 240,
        "14021": 15,
        "14022": 251,
        "14023": 88,
        "14024": 126,
        "14025": 27,
        "14026": 24,
        "14027": 38,
        "14028": 67,
        "14029": 111,
        "14030": 255,
        "14031": 223,
        "14032": 14,
        "14033": 64,
        "14034": 89,
        "14035": 244,
        "14036": 182,
        "14037": 24,
        "14038": 19,
        "14039": 34,
        "14040": 91,
        "14041": 183,
        "14042": 254,
        "14043": 214,
        "14044": 171,
        "14045": 248,
        "14046": 53,
        "14047": 55,
        "14048": 188,
        "14049": 192,
        "14050": 20,
        "14051": 225,
        "14052": 126,
        "14053": 107,
        "14054": 128,
        "14055": 241,
        "14056": 155,
        "14057": 232,
        "14058": 163,
        "14059": 162,
        "14060": 84,
        "14061": 198,
        "14062": 62,
        "14063": 67,
        "14064": 229,
        "14065": 179,
        "14066": 78,
        "14067": 111,
        "14068": 115,
        "14069": 175,
        "14070": 126,
        "14071": 44,
        "14072": 77,
        "14073": 98,
        "14074": 127,
        "14075": 1,
        "14076": 188,
        "14077": 36,
        "14078": 48,
        "14079": 107,
        "14080": 143,
        "14081": 209,
        "14082": 198,
        "14083": 94,
        "14084": 210,
        "14085": 160,
        "14086": 146,
        "14087": 202,
        "14088": 209,
        "14089": 134,
        "14090": 248,
        "14091": 158,
        "14092": 52,
        "14093": 252,
        "14094": 133,
        "14095": 213,
        "14096": 121,
        "14097": 69,
        "14098": 93,
        "14099": 86,
        "14100": 242,
        "14101": 89,
        "14102": 98,
        "14103": 65,
        "14104": 196,
        "14105": 161,
        "14106": 128,
        "14107": 8,
        "14108": 199,
        "14109": 176,
        "14110": 129,
        "14111": 1,
        "14112": 120,
        "14113": 250,
        "14114": 248,
        "14115": 71,
        "14116": 73,
        "14117": 207,
        "14118": 2,
        "14119": 43,
        "14120": 208,
        "14121": 162,
        "14122": 70,
        "14123": 31,
        "14124": 223,
        "14125": 108,
        "14126": 3,
        "14127": 252,
        "14128": 99,
        "14129": 77,
        "14130": 184,
        "14131": 38,
        "14132": 163,
        "14133": 227,
        "14134": 28,
        "14135": 195,
        "14136": 63,
        "14137": 66,
        "14138": 67,
        "14139": 231,
        "14140": 191,
        "14141": 178,
        "14142": 237,
        "14143": 15,
        "14144": 157,
        "14145": 8,
        "14146": 49,
        "14147": 20,
        "14148": 162,
        "14149": 68,
        "14150": 203,
        "14151": 46,
        "14152": 67,
        "14153": 198,
        "14154": 54,
        "14155": 213,
        "14156": 119,
        "14157": 63,
        "14158": 131,
        "14159": 127,
        "14160": 134,
        "14161": 18,
        "14162": 114,
        "14163": 217,
        "14164": 54,
        "14165": 44,
        "14166": 195,
        "14167": 152,
        "14168": 173,
        "14169": 175,
        "14170": 127,
        "14171": 71,
        "14172": 209,
        "14173": 106,
        "14174": 210,
        "14175": 0,
        "14176": 0,
        "14177": 181,
        "14178": 59,
        "14179": 178,
        "14180": 202,
        "14181": 2,
        "14182": 156,
        "14183": 2,
        "14184": 195,
        "14185": 1,
        "14186": 232,
        "14187": 190,
        "14188": 197,
        "14189": 167,
        "14190": 191,
        "14191": 137,
        "14192": 233,
        "14193": 189,
        "14194": 199,
        "14195": 225,
        "14196": 124,
        "14197": 239,
        "14198": 70,
        "14199": 91,
        "14200": 18,
        "14201": 55,
        "14202": 177,
        "14203": 215,
        "14204": 15,
        "14205": 215,
        "14206": 182,
        "14207": 247,
        "14208": 219,
        "14209": 246,
        "14210": 213,
        "14211": 138,
        "14212": 33,
        "14213": 68,
        "14214": 54,
        "14215": 191,
        "14216": 29,
        "14217": 41,
        "14218": 33,
        "14219": 149,
        "14220": 220,
        "14221": 112,
        "14222": 51,
        "14223": 253,
        "14224": 116,
        "14225": 101,
        "14226": 95,
        "14227": 137,
        "14228": 215,
        "14229": 65,
        "14230": 199,
        "14231": 227,
        "14232": 184,
        "14233": 185,
        "14234": 224,
        "14235": 54,
        "14236": 90,
        "14237": 87,
        "14238": 115,
        "14239": 160,
        "14240": 38,
        "14241": 65,
        "14242": 13,
        "14243": 211,
        "14244": 127,
        "14245": 94,
        "14246": 10,
        "14247": 219,
        "14248": 84,
        "14249": 146,
        "14250": 196,
        "14251": 172,
        "14252": 57,
        "14253": 111,
        "14254": 41,
        "14255": 145,
        "14256": 152,
        "14257": 63,
        "14258": 114,
        "14259": 0,
        "14260": 42,
        "14261": 53,
        "14262": 91,
        "14263": 227,
        "14264": 231,
        "14265": 14,
        "14266": 221,
        "14267": 87,
        "14268": 148,
        "14269": 81,
        "14270": 227,
        "14271": 245,
        "14272": 13,
        "14273": 140,
        "14274": 89,
        "14275": 80,
        "14276": 151,
        "14277": 185,
        "14278": 81,
        "14279": 199,
        "14280": 45,
        "14281": 180,
        "14282": 79,
        "14283": 117,
        "14284": 234,
        "14285": 195,
        "14286": 10,
        "14287": 3,
        "14288": 171,
        "14289": 138,
        "14290": 56,
        "14291": 241,
        "14292": 157,
        "14293": 23,
        "14294": 136,
        "14295": 253,
        "14296": 110,
        "14297": 197,
        "14298": 13,
        "14299": 219,
        "14300": 23,
        "14301": 208,
        "14302": 134,
        "14303": 45,
        "14304": 111,
        "14305": 147,
        "14306": 191,
        "14307": 46,
        "14308": 184,
        "14309": 160,
        "14310": 134,
        "14311": 212,
        "14312": 53,
        "14313": 179,
        "14314": 218,
        "14315": 240,
        "14316": 248,
        "14317": 95,
        "14318": 62,
        "14319": 98,
        "14320": 119,
        "14321": 253,
        "14322": 196,
        "14323": 64,
        "14324": 210,
        "14325": 45,
        "14326": 169,
        "14327": 243,
        "14328": 187,
        "14329": 252,
        "14330": 69,
        "14331": 231,
        "14332": 236,
        "14333": 22,
        "14334": 221,
        "14335": 95,
        "14336": 226,
        "14337": 45,
        "14338": 172,
        "14339": 74,
        "14340": 140,
        "14341": 3,
        "14342": 227,
        "14343": 40,
        "14344": 226,
        "14345": 247,
        "14346": 183,
        "14347": 193,
        "14348": 32,
        "14349": 211,
        "14350": 54,
        "14351": 135,
        "14352": 90,
        "14353": 126,
        "14354": 33,
        "14355": 145,
        "14356": 36,
        "14357": 83,
        "14358": 81,
        "14359": 167,
        "14360": 133,
        "14361": 154,
        "14362": 50,
        "14363": 151,
        "14364": 184,
        "14365": 42,
        "14366": 217,
        "14367": 129,
        "14368": 45,
        "14369": 188,
        "14370": 127,
        "14371": 89,
        "14372": 201,
        "14373": 58,
        "14374": 216,
        "14375": 129,
        "14376": 252,
        "14377": 86,
        "14378": 113,
        "14379": 241,
        "14380": 110,
        "14381": 85,
        "14382": 80,
        "14383": 163,
        "14384": 122,
        "14385": 146,
        "14386": 154,
        "14387": 174,
        "14388": 4,
        "14389": 38,
        "14390": 50,
        "14391": 133,
        "14392": 42,
        "14393": 252,
        "14394": 217,
        "14395": 125,
        "14396": 142,
        "14397": 169,
        "14398": 189,
        "14399": 28,
        "14400": 25,
        "14401": 133,
        "14402": 166,
        "14403": 97,
        "14404": 253,
        "14405": 68,
        "14406": 240,
        "14407": 184,
        "14408": 173,
        "14409": 46,
        "14410": 100,
        "14411": 86,
        "14412": 129,
        "14413": 193,
        "14414": 244,
        "14415": 183,
        "14416": 226,
        "14417": 244,
        "14418": 105,
        "14419": 151,
        "14420": 71,
        "14421": 144,
        "14422": 75,
        "14423": 158,
        "14424": 227,
        "14425": 236,
        "14426": 103,
        "14427": 47,
        "14428": 74,
        "14429": 77,
        "14430": 55,
        "14431": 30,
        "14432": 100,
        "14433": 188,
        "14434": 160,
        "14435": 178,
        "14436": 125,
        "14437": 219,
        "14438": 92,
        "14439": 129,
        "14440": 140,
        "14441": 231,
        "14442": 171,
        "14443": 81,
        "14444": 175,
        "14445": 98,
        "14446": 212,
        "14447": 135,
        "14448": 116,
        "14449": 173,
        "14450": 95,
        "14451": 116,
        "14452": 197,
        "14453": 68,
        "14454": 49,
        "14455": 194,
        "14456": 75,
        "14457": 72,
        "14458": 81,
        "14459": 193,
        "14460": 59,
        "14461": 28,
        "14462": 5,
        "14463": 133,
        "14464": 235,
        "14465": 115,
        "14466": 21,
        "14467": 32,
        "14468": 84,
        "14469": 15,
        "14470": 201,
        "14471": 88,
        "14472": 26,
        "14473": 195,
        "14474": 166,
        "14475": 72,
        "14476": 222,
        "14477": 179,
        "14478": 173,
        "14479": 60,
        "14480": 168,
        "14481": 234,
        "14482": 139,
        "14483": 141,
        "14484": 7,
        "14485": 22,
        "14486": 189,
        "14487": 212,
        "14488": 231,
        "14489": 11,
        "14490": 63,
        "14491": 41,
        "14492": 234,
        "14493": 75,
        "14494": 134,
        "14495": 68,
        "14496": 17,
        "14497": 86,
        "14498": 34,
        "14499": 168,
        "14500": 114,
        "14501": 206,
        "14502": 38,
        "14503": 96,
        "14504": 9,
        "14505": 96,
        "14506": 218,
        "14507": 167,
        "14508": 202,
        "14509": 68,
        "14510": 187,
        "14511": 114,
        "14512": 36,
        "14513": 220,
        "14514": 1,
        "14515": 54,
        "14516": 195,
        "14517": 19,
        "14518": 108,
        "14519": 207,
        "14520": 50,
        "14521": 250,
        "14522": 19,
        "14523": 16,
        "14524": 240,
        "14525": 172,
        "14526": 127,
        "14527": 157,
        "14528": 228,
        "14529": 205,
        "14530": 133,
        "14531": 110,
        "14532": 214,
        "14533": 196,
        "14534": 68,
        "14535": 219,
        "14536": 168,
        "14537": 150,
        "14538": 127,
        "14539": 72,
        "14540": 2,
        "14541": 101,
        "14542": 162,
        "14543": 111,
        "14544": 145,
        "14545": 244,
        "14546": 41,
        "14547": 210,
        "14548": 31,
        "14549": 22,
        "14550": 12,
        "14551": 75,
        "14552": 66,
        "14553": 32,
        "14554": 202,
        "14555": 225,
        "14556": 37,
        "14557": 230,
        "14558": 25,
        "14559": 219,
        "14560": 18,
        "14561": 203,
        "14562": 47,
        "14563": 102,
        "14564": 134,
        "14565": 129,
        "14566": 91,
        "14567": 6,
        "14568": 139,
        "14569": 105,
        "14570": 223,
        "14571": 90,
        "14572": 187,
        "14573": 3,
        "14574": 171,
        "14575": 249,
        "14576": 107,
        "14577": 137,
        "14578": 152,
        "14579": 139,
        "14580": 145,
        "14581": 137,
        "14582": 255,
        "14583": 96,
        "14584": 113,
        "14585": 62,
        "14586": 196,
        "14587": 228,
        "14588": 237,
        "14589": 179,
        "14590": 90,
        "14591": 61,
        "14592": 119,
        "14593": 91,
        "14594": 240,
        "14595": 79,
        "14596": 162,
        "14597": 28,
        "14598": 195,
        "14599": 50,
        "14600": 207,
        "14601": 61,
        "14602": 129,
        "14603": 247,
        "14604": 78,
        "14605": 104,
        "14606": 58,
        "14607": 148,
        "14608": 239,
        "14609": 233,
        "14610": 158,
        "14611": 163,
        "14612": 62,
        "14613": 44,
        "14614": 239,
        "14615": 90,
        "14616": 123,
        "14617": 59,
        "14618": 60,
        "14619": 119,
        "14620": 24,
        "14621": 68,
        "14622": 48,
        "14623": 137,
        "14624": 32,
        "14625": 44,
        "14626": 39,
        "14627": 189,
        "14628": 186,
        "14629": 118,
        "14630": 119,
        "14631": 115,
        "14632": 197,
        "14633": 122,
        "14634": 185,
        "14635": 150,
        "14636": 14,
        "14637": 193,
        "14638": 240,
        "14639": 222,
        "14640": 172,
        "14641": 176,
        "14642": 163,
        "14643": 34,
        "14644": 191,
        "14645": 144,
        "14646": 36,
        "14647": 57,
        "14648": 184,
        "14649": 246,
        "14650": 67,
        "14651": 252,
        "14652": 101,
        "14653": 74,
        "14654": 18,
        "14655": 174,
        "14656": 198,
        "14657": 224,
        "14658": 107,
        "14659": 115,
        "14660": 18,
        "14661": 85,
        "14662": 223,
        "14663": 213,
        "14664": 86,
        "14665": 189,
        "14666": 227,
        "14667": 146,
        "14668": 145,
        "14669": 90,
        "14670": 213,
        "14671": 204,
        "14672": 111,
        "14673": 15,
        "14674": 200,
        "14675": 31,
        "14676": 187,
        "14677": 52,
        "14678": 73,
        "14679": 165,
        "14680": 37,
        "14681": 29,
        "14682": 82,
        "14683": 32,
        "14684": 100,
        "14685": 241,
        "14686": 202,
        "14687": 48,
        "14688": 122,
        "14689": 167,
        "14690": 232,
        "14691": 196,
        "14692": 202,
        "14693": 227,
        "14694": 96,
        "14695": 133,
        "14696": 180,
        "14697": 132,
        "14698": 80,
        "14699": 25,
        "14700": 78,
        "14701": 243,
        "14702": 208,
        "14703": 65,
        "14704": 62,
        "14705": 192,
        "14706": 185,
        "14707": 204,
        "14708": 102,
        "14709": 40,
        "14710": 230,
        "14711": 195,
        "14712": 192,
        "14713": 233,
        "14714": 155,
        "14715": 34,
        "14716": 36,
        "14717": 48,
        "14718": 184,
        "14719": 140,
        "14720": 133,
        "14721": 58,
        "14722": 63,
        "14723": 202,
        "14724": 180,
        "14725": 157,
        "14726": 189,
        "14727": 26,
        "14728": 55,
        "14729": 28,
        "14730": 127,
        "14731": 91,
        "14732": 217,
        "14733": 98,
        "14734": 1,
        "14735": 29,
        "14736": 27,
        "14737": 249,
        "14738": 174,
        "14739": 79,
        "14740": 54,
        "14741": 237,
        "14742": 141,
        "14743": 217,
        "14744": 87,
        "14745": 226,
        "14746": 156,
        "14747": 128,
        "14748": 250,
        "14749": 10,
        "14750": 247,
        "14751": 205,
        "14752": 32,
        "14753": 90,
        "14754": 157,
        "14755": 118,
        "14756": 128,
        "14757": 111,
        "14758": 185,
        "14759": 199,
        "14760": 207,
        "14761": 8,
        "14762": 67,
        "14763": 112,
        "14764": 240,
        "14765": 234,
        "14766": 201,
        "14767": 73,
        "14768": 88,
        "14769": 245,
        "14770": 226,
        "14771": 19,
        "14772": 189,
        "14773": 188,
        "14774": 201,
        "14775": 127,
        "14776": 39,
        "14777": 105,
        "14778": 60,
        "14779": 35,
        "14780": 8,
        "14781": 234,
        "14782": 136,
        "14783": 153,
        "14784": 93,
        "14785": 41,
        "14786": 196,
        "14787": 56,
        "14788": 170,
        "14789": 69,
        "14790": 137,
        "14791": 56,
        "14792": 27,
        "14793": 43,
        "14794": 36,
        "14795": 169,
        "14796": 8,
        "14797": 246,
        "14798": 246,
        "14799": 133,
        "14800": 16,
        "14801": 66,
        "14802": 123,
        "14803": 134,
        "14804": 228,
        "14805": 152,
        "14806": 39,
        "14807": 79,
        "14808": 64,
        "14809": 252,
        "14810": 155,
        "14811": 33,
        "14812": 47,
        "14813": 67,
        "14814": 245,
        "14815": 205,
        "14816": 232,
        "14817": 87,
        "14818": 193,
        "14819": 153,
        "14820": 2,
        "14821": 124,
        "14822": 187,
        "14823": 231,
        "14824": 113,
        "14825": 46,
        "14826": 164,
        "14827": 114,
        "14828": 2,
        "14829": 229,
        "14830": 237,
        "14831": 69,
        "14832": 191,
        "14833": 51,
        "14834": 157,
        "14835": 68,
        "14836": 250,
        "14837": 205,
        "14838": 191,
        "14839": 239,
        "14840": 137,
        "14841": 37,
        "14842": 74,
        "14843": 203,
        "14844": 185,
        "14845": 31,
        "14846": 118,
        "14847": 141,
        "14848": 113,
        "14849": 17,
        "14850": 102,
        "14851": 153,
        "14852": 158,
        "14853": 231,
        "14854": 4,
        "14855": 252,
        "14856": 6,
        "14857": 104,
        "14858": 3,
        "14859": 206,
        "14860": 28,
        "14861": 54,
        "14862": 164,
        "14863": 77,
        "14864": 57,
        "14865": 240,
        "14866": 158,
        "14867": 133,
        "14868": 84,
        "14869": 23,
        "14870": 237,
        "14871": 115,
        "14872": 63,
        "14873": 123,
        "14874": 54,
        "14875": 51,
        "14876": 246,
        "14877": 251,
        "14878": 182,
        "14879": 70,
        "14880": 11,
        "14881": 212,
        "14882": 197,
        "14883": 14,
        "14884": 11,
        "14885": 16,
        "14886": 232,
        "14887": 150,
        "14888": 94,
        "14889": 235,
        "14890": 84,
        "14891": 64,
        "14892": 240,
        "14893": 2,
        "14894": 251,
        "14895": 172,
        "14896": 28,
        "14897": 24,
        "14898": 182,
        "14899": 83,
        "14900": 186,
        "14901": 42,
        "14902": 144,
        "14903": 187,
        "14904": 155,
        "14905": 54,
        "14906": 198,
        "14907": 23,
        "14908": 44,
        "14909": 44,
        "14910": 33,
        "14911": 181,
        "14912": 100,
        "14913": 5,
        "14914": 112,
        "14915": 247,
        "14916": 79,
        "14917": 237,
        "14918": 182,
        "14919": 119,
        "14920": 183,
        "14921": 116,
        "14922": 220,
        "14923": 30,
        "14924": 177,
        "14925": 109,
        "14926": 170,
        "14927": 3,
        "14928": 117,
        "14929": 95,
        "14930": 38,
        "14931": 152,
        "14932": 154,
        "14933": 48,
        "14934": 78,
        "14935": 86,
        "14936": 237,
        "14937": 27,
        "14938": 7,
        "14939": 80,
        "14940": 216,
        "14941": 149,
        "14942": 201,
        "14943": 109,
        "14944": 219,
        "14945": 217,
        "14946": 255,
        "14947": 238,
        "14948": 157,
        "14949": 240,
        "14950": 228,
        "14951": 183,
        "14952": 24,
        "14953": 29,
        "14954": 233,
        "14955": 0,
        "14956": 36,
        "14957": 109,
        "14958": 188,
        "14959": 234,
        "14960": 27,
        "14961": 240,
        "14962": 194,
        "14963": 75,
        "14964": 185,
        "14965": 178,
        "14966": 95,
        "14967": 243,
        "14968": 110,
        "14969": 72,
        "14970": 30,
        "14971": 103,
        "14972": 179,
        "14973": 155,
        "14974": 14,
        "14975": 123,
        "14976": 228,
        "14977": 71,
        "14978": 124,
        "14979": 51,
        "14980": 7,
        "14981": 204,
        "14982": 47,
        "14983": 177,
        "14984": 161,
        "14985": 196,
        "14986": 50,
        "14987": 95,
        "14988": 130,
        "14989": 65,
        "14990": 91,
        "14991": 251,
        "14992": 171,
        "14993": 199,
        "14994": 153,
        "14995": 103,
        "14996": 36,
        "14997": 90,
        "14998": 51,
        "14999": 148,
        "15000": 147,
        "15001": 69,
        "15002": 225,
        "15003": 244,
        "15004": 144,
        "15005": 137,
        "15006": 223,
        "15007": 187,
        "15008": 214,
        "15009": 78,
        "15010": 243,
        "15011": 231,
        "15012": 57,
        "15013": 19,
        "15014": 104,
        "15015": 71,
        "15016": 201,
        "15017": 132,
        "15018": 8,
        "15019": 87,
        "15020": 251,
        "15021": 54,
        "15022": 42,
        "15023": 149,
        "15024": 131,
        "15025": 198,
        "15026": 133,
        "15027": 114,
        "15028": 180,
        "15029": 26,
        "15030": 244,
        "15031": 107,
        "15032": 141,
        "15033": 206,
        "15034": 40,
        "15035": 56,
        "15036": 123,
        "15037": 103,
        "15038": 221,
        "15039": 132,
        "15040": 186,
        "15041": 208,
        "15042": 178,
        "15043": 112,
        "15044": 113,
        "15045": 182,
        "15046": 162,
        "15047": 22,
        "15048": 204,
        "15049": 143,
        "15050": 252,
        "15051": 75,
        "15052": 115,
        "15053": 71,
        "15054": 102,
        "15055": 169,
        "15056": 38,
        "15057": 85,
        "15058": 49,
        "15059": 164,
        "15060": 181,
        "15061": 113,
        "15062": 35,
        "15063": 215,
        "15064": 52,
        "15065": 106,
        "15066": 82,
        "15067": 155,
        "15068": 188,
        "15069": 239,
        "15070": 14,
        "15071": 235,
        "15072": 24,
        "15073": 121,
        "15074": 0,
        "15075": 59,
        "15076": 3,
        "15077": 230,
        "15078": 77,
        "15079": 139,
        "15080": 123,
        "15081": 176,
        "15082": 67,
        "15083": 226,
        "15084": 114,
        "15085": 208,
        "15086": 180,
        "15087": 147,
        "15088": 142,
        "15089": 115,
        "15090": 192,
        "15091": 22,
        "15092": 135,
        "15093": 15,
        "15094": 55,
        "15095": 125,
        "15096": 32,
        "15097": 63,
        "15098": 141,
        "15099": 153,
        "15100": 236,
        "15101": 75,
        "15102": 196,
        "15103": 228,
        "15104": 0,
        "15105": 128,
        "15106": 238,
        "15107": 102,
        "15108": 89,
        "15109": 116,
        "15110": 111,
        "15111": 237,
        "15112": 208,
        "15113": 198,
        "15114": 167,
        "15115": 176,
        "15116": 153,
        "15117": 212,
        "15118": 114,
        "15119": 120,
        "15120": 170,
        "15121": 94,
        "15122": 7,
        "15123": 120,
        "15124": 208,
        "15125": 129,
        "15126": 202,
        "15127": 180,
        "15128": 134,
        "15129": 231,
        "15130": 249,
        "15131": 225,
        "15132": 214,
        "15133": 235,
        "15134": 123,
        "15135": 233,
        "15136": 125,
        "15137": 46,
        "15138": 219,
        "15139": 146,
        "15140": 51,
        "15141": 117,
        "15142": 112,
        "15143": 13,
        "15144": 164,
        "15145": 154,
        "15146": 241,
        "15147": 123,
        "15148": 120,
        "15149": 124,
        "15150": 228,
        "15151": 208,
        "15152": 142,
        "15153": 202,
        "15154": 204,
        "15155": 180,
        "15156": 102,
        "15157": 34,
        "15158": 21,
        "15159": 168,
        "15160": 39,
        "15161": 6,
        "15162": 193,
        "15163": 252,
        "15164": 61,
        "15165": 68,
        "15166": 185,
        "15167": 28,
        "15168": 90,
        "15169": 163,
        "15170": 172,
        "15171": 90,
        "15172": 17,
        "15173": 252,
        "15174": 131,
        "15175": 85,
        "15176": 130,
        "15177": 184,
        "15178": 217,
        "15179": 201,
        "15180": 56,
        "15181": 79,
        "15182": 169,
        "15183": 107,
        "15184": 163,
        "15185": 191,
        "15186": 248,
        "15187": 219,
        "15188": 52,
        "15189": 236,
        "15190": 9,
        "15191": 136,
        "15192": 144,
        "15193": 85,
        "15194": 204,
        "15195": 94,
        "15196": 213,
        "15197": 179,
        "15198": 197,
        "15199": 83,
        "15200": 71,
        "15201": 92,
        "15202": 103,
        "15203": 171,
        "15204": 15,
        "15205": 129,
        "15206": 250,
        "15207": 194,
        "15208": 235,
        "15209": 178,
        "15210": 232,
        "15211": 92,
        "15212": 134,
        "15213": 94,
        "15214": 131,
        "15215": 17,
        "15216": 193,
        "15217": 6,
        "15218": 114,
        "15219": 98,
        "15220": 67,
        "15221": 2,
        "15222": 192,
        "15223": 189,
        "15224": 138,
        "15225": 42,
        "15226": 230,
        "15227": 123,
        "15228": 215,
        "15229": 232,
        "15230": 107,
        "15231": 205,
        "15232": 154,
        "15233": 169,
        "15234": 64,
        "15235": 107,
        "15236": 198,
        "15237": 202,
        "15238": 43,
        "15239": 238,
        "15240": 46,
        "15241": 207,
        "15242": 133,
        "15243": 197,
        "15244": 101,
        "15245": 155,
        "15246": 0,
        "15247": 238,
        "15248": 8,
        "15249": 72,
        "15250": 117,
        "15251": 210,
        "15252": 128,
        "15253": 141,
        "15254": 148,
        "15255": 3,
        "15256": 184,
        "15257": 56,
        "15258": 176,
        "15259": 66,
        "15260": 51,
        "15261": 225,
        "15262": 113,
        "15263": 19,
        "15264": 93,
        "15265": 68,
        "15266": 36,
        "15267": 42,
        "15268": 10,
        "15269": 213,
        "15270": 70,
        "15271": 59,
        "15272": 92,
        "15273": 146,
        "15274": 50,
        "15275": 33,
        "15276": 223,
        "15277": 87,
        "15278": 91,
        "15279": 115,
        "15280": 0,
        "15281": 20,
        "15282": 162,
        "15283": 42,
        "15284": 216,
        "15285": 23,
        "15286": 197,
        "15287": 61,
        "15288": 99,
        "15289": 97,
        "15290": 150,
        "15291": 172,
        "15292": 11,
        "15293": 119,
        "15294": 31,
        "15295": 37,
        "15296": 113,
        "15297": 199,
        "15298": 66,
        "15299": 89,
        "15300": 134,
        "15301": 205,
        "15302": 83,
        "15303": 94,
        "15304": 224,
        "15305": 164,
        "15306": 160,
        "15307": 155,
        "15308": 53,
        "15309": 173,
        "15310": 79,
        "15311": 116,
        "15312": 173,
        "15313": 33,
        "15314": 168,
        "15315": 206,
        "15316": 59,
        "15317": 155,
        "15318": 125,
        "15319": 169,
        "15320": 121,
        "15321": 187,
        "15322": 189,
        "15323": 17,
        "15324": 183,
        "15325": 92,
        "15326": 80,
        "15327": 185,
        "15328": 86,
        "15329": 1,
        "15330": 53,
        "15331": 91,
        "15332": 134,
        "15333": 107,
        "15334": 232,
        "15335": 63,
        "15336": 211,
        "15337": 184,
        "15338": 96,
        "15339": 193,
        "15340": 85,
        "15341": 77,
        "15342": 145,
        "15343": 247,
        "15344": 9,
        "15345": 197,
        "15346": 133,
        "15347": 48,
        "15348": 24,
        "15349": 128,
        "15350": 162,
        "15351": 205,
        "15352": 231,
        "15353": 70,
        "15354": 183,
        "15355": 194,
        "15356": 105,
        "15357": 26,
        "15358": 89,
        "15359": 130,
        "15360": 52,
        "15361": 200,
        "15362": 74,
        "15363": 48,
        "15364": 151,
        "15365": 66,
        "15366": 59,
        "15367": 45,
        "15368": 248,
        "15369": 29,
        "15370": 144,
        "15371": 208,
        "15372": 60,
        "15373": 173,
        "15374": 200,
        "15375": 63,
        "15376": 100,
        "15377": 69,
        "15378": 27,
        "15379": 236,
        "15380": 185,
        "15381": 176,
        "15382": 23,
        "15383": 89,
        "15384": 174,
        "15385": 181,
        "15386": 255,
        "15387": 37,
        "15388": 128,
        "15389": 11,
        "15390": 19,
        "15391": 21,
        "15392": 65,
        "15393": 32,
        "15394": 24,
        "15395": 83,
        "15396": 166,
        "15397": 92,
        "15398": 136,
        "15399": 106,
        "15400": 90,
        "15401": 150,
        "15402": 215,
        "15403": 115,
        "15404": 145,
        "15405": 32,
        "15406": 159,
        "15407": 56,
        "15408": 147,
        "15409": 237,
        "15410": 61,
        "15411": 9,
        "15412": 45,
        "15413": 201,
        "15414": 207,
        "15415": 6,
        "15416": 0,
        "15417": 27,
        "15418": 19,
        "15419": 174,
        "15420": 106,
        "15421": 8,
        "15422": 255,
        "15423": 115,
        "15424": 166,
        "15425": 142,
        "15426": 48,
        "15427": 240,
        "15428": 70,
        "15429": 57,
        "15430": 151,
        "15431": 163,
        "15432": 23,
        "15433": 177,
        "15434": 217,
        "15435": 113,
        "15436": 0,
        "15437": 22,
        "15438": 187,
        "15439": 62,
        "15440": 112,
        "15441": 219,
        "15442": 249,
        "15443": 159,
        "15444": 151,
        "15445": 208,
        "15446": 24,
        "15447": 34,
        "15448": 0,
        "15449": 164,
        "15450": 207,
        "15451": 156,
        "15452": 75,
        "15453": 47,
        "15454": 21,
        "15455": 10,
        "15456": 109,
        "15457": 56,
        "15458": 142,
        "15459": 141,
        "15460": 242,
        "15461": 146,
        "15462": 181,
        "15463": 240,
        "15464": 161,
        "15465": 149,
        "15466": 68,
        "15467": 174,
        "15468": 237,
        "15469": 138,
        "15470": 20,
        "15471": 198,
        "15472": 147,
        "15473": 69,
        "15474": 27,
        "15475": 229,
        "15476": 195,
        "15477": 52,
        "15478": 176,
        "15479": 122,
        "15480": 221,
        "15481": 194,
        "15482": 174,
        "15483": 134,
        "15484": 3,
        "15485": 92,
        "15486": 222,
        "15487": 199,
        "15488": 151,
        "15489": 251,
        "15490": 59,
        "15491": 248,
        "15492": 26,
        "15493": 1,
        "15494": 209,
        "15495": 7,
        "15496": 252,
        "15497": 229,
        "15498": 7,
        "15499": 205,
        "15500": 84,
        "15501": 52,
        "15502": 89,
        "15503": 124,
        "15504": 81,
        "15505": 139,
        "15506": 107,
        "15507": 181,
        "15508": 8,
        "15509": 203,
        "15510": 123,
        "15511": 219,
        "15512": 7,
        "15513": 116,
        "15514": 65,
        "15515": 153,
        "15516": 146,
        "15517": 89,
        "15518": 34,
        "15519": 73,
        "15520": 35,
        "15521": 244,
        "15522": 141,
        "15523": 201,
        "15524": 184,
        "15525": 15,
        "15526": 203,
        "15527": 205,
        "15528": 85,
        "15529": 226,
        "15530": 235,
        "15531": 155,
        "15532": 32,
        "15533": 217,
        "15534": 173,
        "15535": 186,
        "15536": 22,
        "15537": 48,
        "15538": 3,
        "15539": 88,
        "15540": 102,
        "15541": 30,
        "15542": 133,
        "15543": 126,
        "15544": 32,
        "15545": 91,
        "15546": 196,
        "15547": 230,
        "15548": 93,
        "15549": 171,
        "15550": 224,
        "15551": 137,
        "15552": 125,
        "15553": 208,
        "15554": 69,
        "15555": 73,
        "15556": 35,
        "15557": 48,
        "15558": 153,
        "15559": 233,
        "15560": 167,
        "15561": 209,
        "15562": 168,
        "15563": 110,
        "15564": 188,
        "15565": 15,
        "15566": 196,
        "15567": 38,
        "15568": 77,
        "15569": 238,
        "15570": 109,
        "15571": 192,
        "15572": 165,
        "15573": 38,
        "15574": 205,
        "15575": 186,
        "15576": 244,
        "15577": 48,
        "15578": 147,
        "15579": 242,
        "15580": 104,
        "15581": 135,
        "15582": 197,
        "15583": 174,
        "15584": 206,
        "15585": 151,
        "15586": 86,
        "15587": 93,
        "15588": 200,
        "15589": 40,
        "15590": 119,
        "15591": 126,
        "15592": 51,
        "15593": 212,
        "15594": 203,
        "15595": 38,
        "15596": 180,
        "15597": 65,
        "15598": 90,
        "15599": 56,
        "15600": 211,
        "15601": 10,
        "15602": 56,
        "15603": 43,
        "15604": 187,
        "15605": 236,
        "15606": 36,
        "15607": 72,
        "15608": 218,
        "15609": 58,
        "15610": 13,
        "15611": 199,
        "15612": 65,
        "15613": 254,
        "15614": 218,
        "15615": 209,
        "15616": 191,
        "15617": 57,
        "15618": 132,
        "15619": 186,
        "15620": 96,
        "15621": 27,
        "15622": 228,
        "15623": 67,
        "15624": 125,
        "15625": 20,
        "15626": 241,
        "15627": 56,
        "15628": 52,
        "15629": 61,
        "15630": 250,
        "15631": 181,
        "15632": 212,
        "15633": 15,
        "15634": 32,
        "15635": 165,
        "15636": 90,
        "15637": 4,
        "15638": 220,
        "15639": 215,
        "15640": 164,
        "15641": 93,
        "15642": 176,
        "15643": 210,
        "15644": 231,
        "15645": 85,
        "15646": 226,
        "15647": 199,
        "15648": 33,
        "15649": 142,
        "15650": 182,
        "15651": 174,
        "15652": 92,
        "15653": 158,
        "15654": 49,
        "15655": 26,
        "15656": 47,
        "15657": 162,
        "15658": 12,
        "15659": 191,
        "15660": 223,
        "15661": 48,
        "15662": 51,
        "15663": 2,
        "15664": 179,
        "15665": 170,
        "15666": 16,
        "15667": 9,
        "15668": 109,
        "15669": 173,
        "15670": 56,
        "15671": 106,
        "15672": 40,
        "15673": 71,
        "15674": 169,
        "15675": 4,
        "15676": 78,
        "15677": 227,
        "15678": 21,
        "15679": 152,
        "15680": 186,
        "15681": 19,
        "15682": 238,
        "15683": 122,
        "15684": 159,
        "15685": 37,
        "15686": 56,
        "15687": 219,
        "15688": 225,
        "15689": 155,
        "15690": 251,
        "15691": 121,
        "15692": 21,
        "15693": 9,
        "15694": 154,
        "15695": 205,
        "15696": 84,
        "15697": 64,
        "15698": 205,
        "15699": 223,
        "15700": 144,
        "15701": 38,
        "15702": 212,
        "15703": 161,
        "15704": 60,
        "15705": 92,
        "15706": 64,
        "15707": 253,
        "15708": 44,
        "15709": 235,
        "15710": 84,
        "15711": 89,
        "15712": 44,
        "15713": 108,
        "15714": 184,
        "15715": 227,
        "15716": 222,
        "15717": 131,
        "15718": 180,
        "15719": 94,
        "15720": 43,
        "15721": 121,
        "15722": 201,
        "15723": 122,
        "15724": 185,
        "15725": 179,
        "15726": 230,
        "15727": 59,
        "15728": 172,
        "15729": 32,
        "15730": 66,
        "15731": 175,
        "15732": 167,
        "15733": 65,
        "15734": 125,
        "15735": 75,
        "15736": 148,
        "15737": 138,
        "15738": 239,
        "15739": 59,
        "15740": 50,
        "15741": 62,
        "15742": 104,
        "15743": 73,
        "15744": 205,
        "15745": 36,
        "15746": 161,
        "15747": 108,
        "15748": 136,
        "15749": 94,
        "15750": 138,
        "15751": 107,
        "15752": 225,
        "15753": 240,
        "15754": 86,
        "15755": 149,
        "15756": 93,
        "15757": 124,
        "15758": 184,
        "15759": 132,
        "15760": 246,
        "15761": 82,
        "15762": 244,
        "15763": 253,
        "15764": 214,
        "15765": 162,
        "15766": 20,
        "15767": 35,
        "15768": 200,
        "15769": 176,
        "15770": 56,
        "15771": 29,
        "15772": 101,
        "15773": 180,
        "15774": 5,
        "15775": 115,
        "15776": 16,
        "15777": 88,
        "15778": 150,
        "15779": 55,
        "15780": 244,
        "15781": 250,
        "15782": 162,
        "15783": 112,
        "15784": 178,
        "15785": 235,
        "15786": 54,
        "15787": 103,
        "15788": 135,
        "15789": 3,
        "15790": 80,
        "15791": 244,
        "15792": 113,
        "15793": 41,
        "15794": 241,
        "15795": 243,
        "15796": 94,
        "15797": 136,
        "15798": 221,
        "15799": 179,
        "15800": 192,
        "15801": 178,
        "15802": 56,
        "15803": 14,
        "15804": 76,
        "15805": 165,
        "15806": 96,
        "15807": 22,
        "15808": 118,
        "15809": 226,
        "15810": 27,
        "15811": 60,
        "15812": 237,
        "15813": 22,
        "15814": 80,
        "15815": 104,
        "15816": 51,
        "15817": 87,
        "15818": 185,
        "15819": 143,
        "15820": 93,
        "15821": 194,
        "15822": 80,
        "15823": 209,
        "15824": 241,
        "15825": 91,
        "15826": 122,
        "15827": 111,
        "15828": 118,
        "15829": 238,
        "15830": 131,
        "15831": 210,
        "15832": 145,
        "15833": 173,
        "15834": 124,
        "15835": 52,
        "15836": 232,
        "15837": 128,
        "15838": 247,
        "15839": 139,
        "15840": 71,
        "15841": 171,
        "15842": 186,
        "15843": 54,
        "15844": 224,
        "15845": 209,
        "15846": 223,
        "15847": 123,
        "15848": 20,
        "15849": 173,
        "15850": 200,
        "15851": 0,
        "15852": 89,
        "15853": 115,
        "15854": 198,
        "15855": 29,
        "15856": 1,
        "15857": 118,
        "15858": 55,
        "15859": 76,
        "15860": 201,
        "15861": 251,
        "15862": 224,
        "15863": 207,
        "15864": 179,
        "15865": 218,
        "15866": 184,
        "15867": 127,
        "15868": 254,
        "15869": 167,
        "15870": 87,
        "15871": 81,
        "15872": 141,
        "15873": 66,
        "15874": 235,
        "15875": 160,
        "15876": 151,
        "15877": 119,
        "15878": 190,
        "15879": 119,
        "15880": 127,
        "15881": 159,
        "15882": 225,
        "15883": 199,
        "15884": 124,
        "15885": 3,
        "15886": 98,
        "15887": 192,
        "15888": 57,
        "15889": 68,
        "15890": 165,
        "15891": 106,
        "15892": 139,
        "15893": 183,
        "15894": 126,
        "15895": 88,
        "15896": 139,
        "15897": 79,
        "15898": 61,
        "15899": 234,
        "15900": 5,
        "15901": 57,
        "15902": 161,
        "15903": 112,
        "15904": 147,
        "15905": 90,
        "15906": 98,
        "15907": 196,
        "15908": 92,
        "15909": 50,
        "15910": 145,
        "15911": 62,
        "15912": 105,
        "15913": 251,
        "15914": 118,
        "15915": 41,
        "15916": 111,
        "15917": 51,
        "15918": 214,
        "15919": 242,
        "15920": 138,
        "15921": 83,
        "15922": 202,
        "15923": 96,
        "15924": 116,
        "15925": 177,
        "15926": 135,
        "15927": 216,
        "15928": 108,
        "15929": 203,
        "15930": 83,
        "15931": 3,
        "15932": 190,
        "15933": 57,
        "15934": 119,
        "15935": 107,
        "15936": 110,
        "15937": 67,
        "15938": 27,
        "15939": 118,
        "15940": 157,
        "15941": 31,
        "15942": 100,
        "15943": 84,
        "15944": 234,
        "15945": 63,
        "15946": 33,
        "15947": 19,
        "15948": 57,
        "15949": 22,
        "15950": 23,
        "15951": 212,
        "15952": 206,
        "15953": 222,
        "15954": 134,
        "15955": 17,
        "15956": 71,
        "15957": 206,
        "15958": 132,
        "15959": 211,
        "15960": 172,
        "15961": 170,
        "15962": 102,
        "15963": 243,
        "15964": 56,
        "15965": 39,
        "15966": 47,
        "15967": 99,
        "15968": 171,
        "15969": 199,
        "15970": 75,
        "15971": 171,
        "15972": 254,
        "15973": 82,
        "15974": 195,
        "15975": 55,
        "15976": 179,
        "15977": 38,
        "15978": 162,
        "15979": 141,
        "15980": 124,
        "15981": 182,
        "15982": 158,
        "15983": 224,
        "15984": 10,
        "15985": 52,
        "15986": 140,
        "15987": 233,
        "15988": 226,
        "15989": 181,
        "15990": 214,
        "15991": 212,
        "15992": 233,
        "15993": 166,
        "15994": 68,
        "15995": 171,
        "15996": 38,
        "15997": 186,
        "15998": 117,
        "15999": 195,
        "16000": 6,
        "16001": 64,
        "16002": 118,
        "16003": 37,
        "16004": 121,
        "16005": 179,
        "16006": 19,
        "16007": 106,
        "16008": 211,
        "16009": 209,
        "16010": 75,
        "16011": 85,
        "16012": 194,
        "16013": 14,
        "16014": 206,
        "16015": 58,
        "16016": 106,
        "16017": 10,
        "16018": 204,
        "16019": 94,
        "16020": 203,
        "16021": 254,
        "16022": 96,
        "16023": 224,
        "16024": 58,
        "16025": 19,
        "16026": 221,
        "16027": 145,
        "16028": 237,
        "16029": 149,
        "16030": 220,
        "16031": 91,
        "16032": 100,
        "16033": 52,
        "16034": 197,
        "16035": 212,
        "16036": 9,
        "16037": 137,
        "16038": 175,
        "16039": 10,
        "16040": 213,
        "16041": 89,
        "16042": 153,
        "16043": 113,
        "16044": 130,
        "16045": 210,
        "16046": 52,
        "16047": 18,
        "16048": 1,
        "16049": 160,
        "16050": 6,
        "16051": 184,
        "16052": 84,
        "16053": 182,
        "16054": 251,
        "16055": 88,
        "16056": 42,
        "16057": 234,
        "16058": 52,
        "16059": 58,
        "16060": 92,
        "16061": 150,
        "16062": 120,
        "16063": 100,
        "16064": 152,
        "16065": 22,
        "16066": 158,
        "16067": 251,
        "16068": 119,
        "16069": 209,
        "16070": 253,
        "16071": 73,
        "16072": 173,
        "16073": 184,
        "16074": 122,
        "16075": 226,
        "16076": 252,
        "16077": 48,
        "16078": 189,
        "16079": 203,
        "16080": 198,
        "16081": 63,
        "16082": 84,
        "16083": 75,
        "16084": 139,
        "16085": 189,
        "16086": 85,
        "16087": 86,
        "16088": 212,
        "16089": 5,
        "16090": 44,
        "16091": 175,
        "16092": 205,
        "16093": 76,
        "16094": 238,
        "16095": 195,
        "16096": 123,
        "16097": 83,
        "16098": 88,
        "16099": 104,
        "16100": 55,
        "16101": 163,
        "16102": 0,
        "16103": 246,
        "16104": 86,
        "16105": 129,
        "16106": 130,
        "16107": 73,
        "16108": 196,
        "16109": 212,
        "16110": 178,
        "16111": 127,
        "16112": 111,
        "16113": 67,
        "16114": 21,
        "16115": 211,
        "16116": 254,
        "16117": 50,
        "16118": 105,
        "16119": 240,
        "16120": 173,
        "16121": 12,
        "16122": 164,
        "16123": 55,
        "16124": 197,
        "16125": 28,
        "16126": 235,
        "16127": 110,
        "16128": 8,
        "16129": 148,
        "16130": 136,
        "16131": 154,
        "16132": 105,
        "16133": 85,
        "16134": 207,
        "16135": 6,
        "16136": 160,
        "16137": 120,
        "16138": 152,
        "16139": 218,
        "16140": 209,
        "16141": 39,
        "16142": 60,
        "16143": 51,
        "16144": 193,
        "16145": 120,
        "16146": 8,
        "16147": 92,
        "16148": 71,
        "16149": 207,
        "16150": 10,
        "16151": 187,
        "16152": 29,
        "16153": 88,
        "16154": 76,
        "16155": 166,
        "16156": 30,
        "16157": 186,
        "16158": 2,
        "16159": 245,
        "16160": 24,
        "16161": 115,
        "16162": 204,
        "16163": 124,
        "16164": 22,
        "16165": 210,
        "16166": 250,
        "16167": 154,
        "16168": 56,
        "16169": 53,
        "16170": 96,
        "16171": 237,
        "16172": 165,
        "16173": 222,
        "16174": 6,
        "16175": 177,
        "16176": 135,
        "16177": 100,
        "16178": 245,
        "16179": 13,
        "16180": 210,
        "16181": 88,
        "16182": 163,
        "16183": 254,
        "16184": 180,
        "16185": 4,
        "16186": 52,
        "16187": 120,
        "16188": 45,
        "16189": 36,
        "16190": 202,
        "16191": 106,
        "16192": 246,
        "16193": 205,
        "16194": 138,
        "16195": 188,
        "16196": 111,
        "16197": 216,
        "16198": 108,
        "16199": 169,
        "16200": 56,
        "16201": 78,
        "16202": 181,
        "16203": 86,
        "16204": 122,
        "16205": 40,
        "16206": 205,
        "16207": 79,
        "16208": 34,
        "16209": 104,
        "16210": 137,
        "16211": 177,
        "16212": 117,
        "16213": 34,
        "16214": 247,
        "16215": 50,
        "16216": 153,
        "16217": 77,
        "16218": 127,
        "16219": 7,
        "16220": 117,
        "16221": 206,
        "16222": 235,
        "16223": 69,
        "16224": 106,
        "16225": 6,
        "16226": 153,
        "16227": 96,
        "16228": 82,
        "16229": 144,
        "16230": 88,
        "16231": 143,
        "16232": 185,
        "16233": 104,
        "16234": 233,
        "16235": 201,
        "16236": 184,
        "16237": 236,
        "16238": 77,
        "16239": 58,
        "16240": 75,
        "16241": 28,
        "16242": 50,
        "16243": 29,
        "16244": 175,
        "16245": 238,
        "16246": 107,
        "16247": 178,
        "16248": 142,
        "16249": 28,
        "16250": 13,
        "16251": 253,
        "16252": 169,
        "16253": 170,
        "16254": 56,
        "16255": 127,
        "16256": 38,
        "16257": 130,
        "16258": 38,
        "16259": 227,
        "16260": 220,
        "16261": 239,
        "16262": 114,
        "16263": 133,
        "16264": 60,
        "16265": 165,
        "16266": 141,
        "16267": 101,
        "16268": 203,
        "16269": 183,
        "16270": 166,
        "16271": 37,
        "16272": 151,
        "16273": 29,
        "16274": 122,
        "16275": 24,
        "16276": 202,
        "16277": 216,
        "16278": 71,
        "16279": 94,
        "16280": 128,
        "16281": 147,
        "16282": 122,
        "16283": 175,
        "16284": 148,
        "16285": 156,
        "16286": 105,
        "16287": 87,
        "16288": 109,
        "16289": 172,
        "16290": 117,
        "16291": 5,
        "16292": 0,
        "16293": 120,
        "16294": 0,
        "16295": 201,
        "16296": 246,
        "16297": 174,
        "16298": 117,
        "16299": 148,
        "16300": 216,
        "16301": 242,
        "16302": 123,
        "16303": 121,
        "16304": 16,
        "16305": 178,
        "16306": 221,
        "16307": 16,
        "16308": 62,
        "16309": 44,
        "16310": 60,
        "16311": 114,
        "16312": 41,
        "16313": 22,
        "16314": 108,
        "16315": 107,
        "16316": 167,
        "16317": 6,
        "16318": 162,
        "16319": 80,
        "16320": 31,
        "16321": 80,
        "16322": 13,
        "16323": 111,
        "16324": 223,
        "16325": 123,
        "16326": 25,
        "16327": 126,
        "16328": 101,
        "16329": 89,
        "16330": 105,
        "16331": 64,
        "16332": 150,
        "16333": 9,
        "16334": 55,
        "16335": 60,
        "16336": 83,
        "16337": 232,
        "16338": 211,
        "16339": 85,
        "16340": 15,
        "16341": 77,
        "16342": 61,
        "16343": 15,
        "16344": 245,
        "16345": 15,
        "16346": 119,
        "16347": 33,
        "16348": 33,
        "16349": 29,
        "16350": 230,
        "16351": 33,
        "16352": 207,
        "16353": 207,
        "16354": 84,
        "16355": 172,
        "16356": 181,
        "16357": 112,
        "16358": 38,
        "16359": 97,
        "16360": 225,
        "16361": 147,
        "16362": 41,
        "16363": 203,
        "16364": 143,
        "16365": 15,
        "16366": 248,
        "16367": 9,
        "16368": 156,
        "16369": 94,
        "16370": 179,
        "16371": 43,
        "16372": 222,
        "16373": 149,
        "16374": 122,
        "16375": 212,
        "16376": 31,
        "16377": 70,
        "16378": 183,
        "16379": 222,
        "16380": 70,
        "16381": 136,
        "16382": 24,
        "16383": 122,
        "16384": 102,
        "16385": 215,
        "16386": 53,
        "16387": 173,
        "16388": 143,
        "16389": 27,
        "16390": 103,
        "16391": 206,
        "16392": 55,
        "16393": 71,
        "16394": 161,
        "16395": 246,
        "16396": 200,
        "16397": 102,
        "16398": 148,
        "16399": 74,
        "16400": 86,
        "16401": 235,
        "16402": 43,
        "16403": 168,
        "16404": 221,
        "16405": 217,
        "16406": 248,
        "16407": 101,
        "16408": 242,
        "16409": 69,
        "16410": 175,
        "16411": 100,
        "16412": 229,
        "16413": 173,
        "16414": 170,
        "16415": 178,
        "16416": 125,
        "16417": 210,
        "16418": 162,
        "16419": 33,
        "16420": 220,
        "16421": 159,
        "16422": 146,
        "16423": 43,
        "16424": 88,
        "16425": 172,
        "16426": 205,
        "16427": 204,
        "16428": 142,
        "16429": 184,
        "16430": 190,
        "16431": 68,
        "16432": 120,
        "16433": 119,
        "16434": 197,
        "16435": 55,
        "16436": 251,
        "16437": 167,
        "16438": 26,
        "16439": 16,
        "16440": 18,
        "16441": 168,
        "16442": 52,
        "16443": 97,
        "16444": 78,
        "16445": 178,
        "16446": 147,
        "16447": 35,
        "16448": 246,
        "16449": 237,
        "16450": 102,
        "16451": 109,
        "16452": 144,
        "16453": 143,
        "16454": 202,
        "16455": 58,
        "16456": 138,
        "16457": 71,
        "16458": 14,
        "16459": 218,
        "16460": 182,
        "16461": 106,
        "16462": 241,
        "16463": 139,
        "16464": 252,
        "16465": 135,
        "16466": 51,
        "16467": 195,
        "16468": 187,
        "16469": 12,
        "16470": 100,
        "16471": 244,
        "16472": 253,
        "16473": 194,
        "16474": 30,
        "16475": 99,
        "16476": 166,
        "16477": 66,
        "16478": 29,
        "16479": 122,
        "16480": 215,
        "16481": 163,
        "16482": 220,
        "16483": 10,
        "16484": 84,
        "16485": 253,
        "16486": 185,
        "16487": 153,
        "16488": 249,
        "16489": 104,
        "16490": 142,
        "16491": 180,
        "16492": 58,
        "16493": 82,
        "16494": 16,
        "16495": 142,
        "16496": 1,
        "16497": 216,
        "16498": 4,
        "16499": 70,
        "16500": 36,
        "16501": 235,
        "16502": 154,
        "16503": 196,
        "16504": 83,
        "16505": 35,
        "16506": 119,
        "16507": 47,
        "16508": 140,
        "16509": 9,
        "16510": 212,
        "16511": 214,
        "16512": 86,
        "16513": 234,
        "16514": 58,
        "16515": 219,
        "16516": 59,
        "16517": 99,
        "16518": 130,
        "16519": 20,
        "16520": 1,
        "16521": 8,
        "16522": 0,
        "16523": 0,
        "16524": 0,
        "16525": 0,
        "16526": 0,
        "16527": 0,
        "16528": 16,
        "16529": 0,
        "16530": 0,
        "16531": 0,
        "16532": 0,
        "16533": 0,
        "16534": 0,
        "16535": 0,
        "16536": 0,
        "16537": 0,
        "16538": 0,
        "16539": 0,
        "16540": 0,
        "16541": 0,
        "16542": 0,
        "16543": 0,
        "16544": 0,
        "16545": 0,
        "16546": 0,
        "16547": 0,
        "16548": 0,
        "16549": 0,
        "16550": 0,
        "16551": 0,
        "16552": 64,
        "16553": 0,
        "16554": 0,
        "16555": 0,
        "16556": 0,
        "16557": 0,
        "16558": 0,
        "16559": 0,
        "16560": 3,
        "16561": 0,
        "16562": 0,
        "16563": 0,
        "16564": 0,
        "16565": 0,
        "16566": 0,
        "16567": 0,
        "16568": 4,
        "16569": 0,
        "16570": 0,
        "16571": 0,
        "16572": 0,
        "16573": 0,
        "16574": 0,
        "16575": 0,
        "16576": 4,
        "16577": 0,
        "16578": 0,
        "16579": 0,
        "16580": 0,
        "16581": 0,
        "16582": 0,
        "16583": 0,
        "16584": 0,
        "16585": 0,
        "16586": 0,
        "16587": 0,
        "16588": 1,
        "16589": 0,
        "16590": 0,
        "16591": 0,
        "16592": 0,
        "16593": 0,
        "16594": 0,
        "16595": 0,
        "16596": 16,
        "16597": 0,
        "16598": 0,
        "16599": 0,
        "16600": 0,
        "16601": 0,
        "16602": 0,
        "16603": 0
      }
    }
  ],
  "numDeployments": 1,
  "solcInputHash": "3bae12bbf92f063d23f5bf3315533210",
  "bytecode": "0x610160604052620000176000620001f760201b60201c565b6004553480156200002757600080fd5b50604051620047e1380380620047e183398181016040528101906200004d919062000c2d565b83836040518060400160405280601181526020017f4668656e6978205065726d697373696f6e0000000000000000000000000000008152506040518060400160405280600381526020017f312e300000000000000000000000000000000000000000000000000000000000815250620000d16000836200021360201b90919060201c565b6101208181525050620000ef6001826200021360201b90919060201c565b6101408181525050818051906020012060e08181525050808051906020012061010081815250504660a081815250506200012e6200026b60201b60201c565b608081815250503073ffffffffffffffffffffffffffffffffffffffff1660c08173ffffffffffffffffffffffffffffffffffffffff1681525050505081600590816200017c919062000f47565b5080600690816200018e919062000f47565b5050506000620001a482620002c860201b60201c565b9050620001da620001ce82620001c2617fff620001f760201b60201c565b620002e660201b60201c565b6200038960201b60201c565b620001ec83826200045c60201b60201c565b505050505062001354565b60006200020c8260026200050260201b60201c565b9050919050565b600060208351101562000239576200023183620005b960201b60201c565b905062000265565b826200024b836200062660201b60201c565b60000190816200025c919062000f47565b5060ff60001b90505b92915050565b60007f8b73c3c69bb8fe3d512ecc4cf759cc79239f7b179b0ffacaa9a75d522b39400f60e051610100514630604051602001620002ad9594939291906200106b565b60405160208183030381529060405280519060200120905090565b6000620002df82600001516200063060201b60201c565b9050919050565b6000620002f9836200064c60201b60201c565b6200031357620003106000620001f760201b60201c565b92505b62000324826200064c60201b60201c565b6200033e576200033b6000620001f760201b60201c565b91505b6000839050600083905060006200037b60028484608073ffffffffffffffffffffffffffffffffffffffff1663eb274b776200065960201b60201c565b905080935050505092915050565b6200039a816200070a60201b60201c565b620003b457620003b160006200071760201b60201c565b90505b60008190506000620003cc826200073360201b60201c565b9050608073ffffffffffffffffffffffffffffffffffffffff16637d23f1db600d836040518363ffffffff1660e01b81526004016200040d92919062001143565b600060405180830381865afa1580156200042b573d6000803e3d6000fd5b505050506040513d6000823e3d601f19601f8201168201806040525081019062000456919062001177565b50505050565b620004a7600260008473ffffffffffffffffffffffffffffffffffffffff1673ffffffffffffffffffffffffffffffffffffffff168152602001908152602001600020548262000794565b600260008473ffffffffffffffffffffffffffffffffffffffff1673ffffffffffffffffffffffffffffffffffffffff16815260200190815260200160002081905550620004f86004548262000794565b6004819055505050565b60006060608073ffffffffffffffffffffffffffffffffffffffff166319e1c5c462000534866200073360201b60201c565b856040518363ffffffff1660e01b815260040162000554929190620011c8565b600060405180830381865afa15801562000572573d6000803e3d6000fd5b505050506040513d6000823e3d601f19601f820116820180604052508101906200059d919062001177565b9050620005b081620007b060201b60201c565b91505092915050565b600080829050601f815111156200060957826040517f305a27a90000000000000000000000000000000000000000000000000000000081526004016200060091906200124e565b60405180910390fd5b805181620006179062001299565b60001c1760001b915050919050565b6000819050919050565b600062000645826002620007be60201b60201c565b9050919050565b6000808214159050919050565b6000606083838862000671896200073360201b60201c565b62000682896200073360201b60201c565b6040518463ffffffff1660e01b8152600401620006a29392919062001309565b600060405180830381865afa158015620006c0573d6000803e3d6000fd5b505050506040513d6000823e3d601f19601f82011682018060405250810190620006eb919062001177565b9050620006fe816200086560201b60201c565b91505095945050505050565b6000808214159050919050565b60006200072c82600d6200050260201b60201c565b9050919050565b6060602067ffffffffffffffff81111562000753576200075262000944565b5b6040519080825280601f01601f191660200182016040528015620007865781602001600182028036833780820191505090505b509050816020820152919050565b6000620007a883836200087360201b60201c565b905092915050565b600060208201519050919050565b60006060608073ffffffffffffffffffffffffffffffffffffffff16635fa55ca784866040518363ffffffff1660e01b81526004016200080092919062001143565b600060405180830381865afa1580156200081e573d6000803e3d6000fd5b505050506040513d6000823e3d601f19601f8201168201806040525081019062000849919062001177565b90506200085c81620007b060201b60201c565b91505092915050565b600060208201519050919050565b600062000886836200064c60201b60201c565b620008a0576200089d6000620001f760201b60201c565b92505b620008b1826200064c60201b60201c565b620008cb57620008c86000620001f760201b60201c565b91505b6000839050600083905060006200090760028484608073ffffffffffffffffffffffffffffffffffffffff16622df6196200065960201b60201c565b905080935050505092915050565b6000604051905090565b600080fd5b600080fd5b600080fd5b600080fd5b6000601f19601f8301169050919050565b7f4e487b7100000000000000000000000000000000000000000000000000000000600052604160045260246000fd5b6200097e8262000933565b810181811067ffffffffffffffff82111715620009a0576200099f62000944565b5b80604052505050565b6000620009b562000915565b9050620009c3828262000973565b919050565b600067ffffffffffffffff821115620009e657620009e562000944565b5b620009f18262000933565b9050602081019050919050565b60005b8381101562000a1e57808201518184015260208101905062000a01565b60008484015250505050565b600062000a4162000a3b84620009c8565b620009a9565b90508281526020810184848401111562000a605762000a5f6200092e565b5b62000a6d848285620009fe565b509392505050565b600082601f83011262000a8d5762000a8c62000929565b5b815162000a9f84826020860162000a2a565b91505092915050565b600073ffffffffffffffffffffffffffffffffffffffff82169050919050565b600062000ad58262000aa8565b9050919050565b62000ae78162000ac8565b811462000af357600080fd5b50565b60008151905062000b078162000adc565b92915050565b600080fd5b600080fd5b600067ffffffffffffffff82111562000b355762000b3462000944565b5b62000b408262000933565b9050602081019050919050565b600062000b6462000b5e8462000b17565b620009a9565b90508281526020810184848401111562000b835762000b826200092e565b5b62000b90848285620009fe565b509392505050565b600082601f83011262000bb05762000baf62000929565b5b815162000bc284826020860162000b4d565b91505092915050565b60006020828403121562000be45762000be362000b0d565b5b62000bf06020620009a9565b9050600082015167ffffffffffffffff81111562000c135762000c1262000b12565b5b62000c218482850162000b98565b60008301525092915050565b6000806000806080858703121562000c4a5762000c496200091f565b5b600085015167ffffffffffffffff81111562000c6b5762000c6a62000924565b5b62000c798782880162000a75565b945050602085015167ffffffffffffffff81111562000c9d5762000c9c62000924565b5b62000cab8782880162000a75565b935050604062000cbe8782880162000af6565b925050606085015167ffffffffffffffff81111562000ce25762000ce162000924565b5b62000cf08782880162000bcb565b91505092959194509250565b600081519050919050565b7f4e487b7100000000000000000000000000000000000000000000000000000000600052602260045260246000fd5b6000600282049050600182168062000d4f57607f821691505b60208210810362000d655762000d6462000d07565b5b50919050565b60008190508160005260206000209050919050565b60006020601f8301049050919050565b600082821b905092915050565b60006008830262000dcf7fffffffffffffffffffffffffffffffffffffffffffffffffffffffffffffffff8262000d90565b62000ddb868362000d90565b95508019841693508086168417925050509392505050565b6000819050919050565b6000819050919050565b600062000e2862000e2262000e1c8462000df3565b62000dfd565b62000df3565b9050919050565b6000819050919050565b62000e448362000e07565b62000e5c62000e538262000e2f565b84845462000d9d565b825550505050565b600090565b62000e7362000e64565b62000e8081848462000e39565b505050565b5b8181101562000ea85762000e9c60008262000e69565b60018101905062000e86565b5050565b601f82111562000ef75762000ec18162000d6b565b62000ecc8462000d80565b8101602085101562000edc578190505b62000ef462000eeb8562000d80565b83018262000e85565b50505b505050565b600082821c905092915050565b600062000f1c6000198460080262000efc565b1980831691505092915050565b600062000f37838362000f09565b9150826002028217905092915050565b62000f528262000cfc565b67ffffffffffffffff81111562000f6e5762000f6d62000944565b5b62000f7a825462000d36565b62000f8782828562000eac565b600060209050601f83116001811462000fbf576000841562000faa578287015190505b62000fb6858262000f29565b86555062001026565b601f19841662000fcf8662000d6b565b60005b8281101562000ff95784890151825560018201915060208501945060208101905062000fd2565b8683101562001019578489015162001015601f89168262000f09565b8355505b6001600288020188555050505b505050505050565b6000819050919050565b62001043816200102e565b82525050565b620010548162000df3565b82525050565b620010658162000ac8565b82525050565b600060a08201905062001082600083018862001038565b62001091602083018762001038565b620010a0604083018662001038565b620010af606083018562001049565b620010be60808301846200105a565b9695505050505050565b600060ff82169050919050565b620010e081620010c8565b82525050565b600081519050919050565b600082825260208201905092915050565b60006200110f82620010e6565b6200111b8185620010f1565b93506200112d818560208601620009fe565b620011388162000933565b840191505092915050565b60006040820190506200115a6000830185620010d5565b81810360208301526200116e818462001102565b90509392505050565b60006020828403121562001190576200118f6200091f565b5b600082015167ffffffffffffffff811115620011b157620011b062000924565b5b620011bf8482850162000b98565b91505092915050565b60006040820190508181036000830152620011e4818562001102565b9050620011f56020830184620010d5565b9392505050565b600082825260208201905092915050565b60006200121a8262000cfc565b620012268185620011fc565b935062001238818560208601620009fe565b620012438162000933565b840191505092915050565b600060208201905081810360008301526200126a81846200120d565b905092915050565b6000819050602082019050919050565b60006200129082516200102e565b80915050919050565b6000620012a682620010e6565b82620012b28462001272565b9050620012bf8162001282565b925060208210156200130257620012fd7fffffffffffffffffffffffffffffffffffffffffffffffffffffffffffffffff8360200360080262000d90565b831692505b5050919050565b6000606082019050620013206000830186620010d5565b818103602083015262001334818562001102565b905081810360408301526200134a818462001102565b9050949350505050565b60805160a05160c05160e051610100516101205161014051613432620013af60003960006113ca0152600061138f015260006120d3015260006120b2015260006117f3015260006118490152600061187201526134326000f3fe608060405234801561001057600080fd5b50600436106101425760003560e01c80637ecebe00116100b8578063a9059cbb1161007c578063a9059cbb146103b9578063af575a00146103e9578063c4224c1914610419578063d505accf14610449578063d918156e14610465578063dd62ed3e1461049557610142565b80637ecebe00146102fb57806384b0196e1461032b5780638624a3491461034f57806395d89b411461037f5780639f284be71461039d57610142565b80633644e5151161010a5780633644e5151461020157806339c217f71461021f5780635356c4291461024f578063602772041461027f5780636e0505e1146102af57806370a08231146102cb57610142565b806306fdde0314610147578063095ea7b31461016557806318160ddd1461019557806323b872dd146101b3578063313ce567146101e3575b600080fd5b61014f6104c5565b60405161015c9190612494565b60405180910390f35b61017f600480360381019061017a919061255e565b610557565b60405161018c91906125b9565b60405180910390f35b61019d6105ab565b6040516101aa91906125e3565b60405180910390f35b6101cd60048036038101906101c891906125fe565b6105bd565b6040516101da91906125b9565b60405180910390f35b6101eb610692565b6040516101f8919061266d565b60405180910390f35b610209610697565b60405161021691906126a1565b60405180910390f35b610239600480360381019061023491906126e0565b610729565b6040516102469190612777565b60405180910390f35b610269600480360381019061026491906127b1565b61074e565b6040516102769190612494565b60405180910390f35b610299600480360381019061029491906129e4565b61084c565b6040516102a69190612494565b60405180910390f35b6102c960048036038101906102c49190612a7c565b610982565b005b6102e560048036038101906102e09190612aa9565b610ab9565b6040516102f291906125e3565b60405180910390f35b61031560048036038101906103109190612aa9565b610ad4565b60405161032291906125e3565b60405180910390f35b610333610aef565b6040516103469796959493929190612bde565b60405180910390f35b61036960048036038101906103649190612c62565b610b99565b6040516103769190612777565b60405180910390f35b610387610bd7565b6040516103949190612494565b60405180910390f35b6103b760048036038101906103b29190612a7c565b610c69565b005b6103d360048036038101906103ce919061255e565b610d76565b6040516103e091906125b9565b60405180910390f35b61040360048036038101906103fe9190612cfd565b610e08565b6040516104109190612777565b60405180910390f35b610433600480360381019061042e9190612d50565b610e35565b6040516104409190612777565b60405180910390f35b610463600480360381019061045e9190612dbc565b610e4a565b005b61047f600480360381019061047a91906126e0565b610fee565b60405161048c91906125b9565b60405180910390f35b6104af60048036038101906104aa9190612e5e565b611016565b6040516104bc91906125e3565b60405180910390f35b6060600580546104d490612ecd565b80601f016020809104026020016040519081016040528092919081815260200182805461050090612ecd565b801561054d5780601f106105225761010080835404028352916020019161054d565b820191906000526020600020905b81548152906001019060200180831161053057829003601f168201915b5050505050905090565b600082602052637f5e9f20600c5233600052816034600c205581600052602c5160601c337f8c5be1e5ebec7d5bd14f71427d1e84f3dd0314c0f7b2291e5b200ac8c7c3b92560206000a36001905092915050565b60006805345cdf77eb68f44c54905090565b60006105ca848484611036565b8360601b33602052637f5e9f208117600c526034600c20805460018101156106085780851115610602576313be252b6000526004601cfd5b84810382555b6387a211a28317600c526020600c2080548087111561062f5763f4d678b86000526004601cfd5b8681038255876000526020600c2087815401815587602052600c5160601c8660601c7fddf252ad1be2c89b69c2b068fc378daa952ba7f163c4a11628f55a4df523b3ef602080a350505050505061068784848461103b565b600190509392505050565b600090565b6000806106a2611040565b90506000801b81036106c0576106b66104c5565b8051906020012090505b6040517f8b73c3c69bb8fe3d512ecc4cf759cc79239f7b179b0ffacaa9a75d522b39400f81528160208201527fc89efdaa54c0f20c7adf612882df0950f5a951637e0307cdcb4c672f298b8bc6604082015246606082015230608082015260a081209250505090565b6000610746836107418461073c90612f56565b611045565b610e35565b905092915050565b60608161075a90612f69565b60006107b17f6bdaeb2d29561f159c7ef98b16b27015fb2aeb87209c7ee656226d912f59927d8360000151604051602001610796929190612f7c565b6040516020818303038152906040528051906020012061105b565b905060006107c3828460200151611075565b90503373ffffffffffffffffffffffffffffffffffffffff168173ffffffffffffffffffffffffffffffffffffffff161461082a576040517f3093a27700000000000000000000000000000000000000000000000000000000815260040160405180910390fd5b61084161083733886110a1565b8660000135611128565b935050505092915050565b6060818360006108a77f6bdaeb2d29561f159c7ef98b16b27015fb2aeb87209c7ee656226d912f59927d846000015160405160200161088c929190612f7c565b6040516020818303038152906040528051906020012061105b565b905060006108b9828560200151611075565b90508273ffffffffffffffffffffffffffffffffffffffff168173ffffffffffffffffffffffffffffffffffffffff1614610920576040517f51c65eae00000000000000000000000000000000000000000000000000000000815260040160405180910390fd5b6109768660000151600260008a73ffffffffffffffffffffffffffffffffffffffff1673ffffffffffffffffffffffffffffffffffffffff1681526020019081526020016000205461115e90919063ffffffff16565b94505050505092915050565b60006109938263ffffffff16611172565b905060006109fc6109ec83600260003373ffffffffffffffffffffffffffffffffffffffff1673ffffffffffffffffffffffffffffffffffffffff1681526020019081526020016000205461118690919063ffffffff16565b836109f76000611172565b61119a565b9050610a47600260003373ffffffffffffffffffffffffffffffffffffffff1673ffffffffffffffffffffffffffffffffffffffff1681526020019081526020016000205482611218565b600260003373ffffffffffffffffffffffffffffffffffffffff1673ffffffffffffffffffffffffffffffffffffffff16815260200190815260200160002081905550610a9660045482611218565b600481905550610ab433610aa98361122c565b63ffffffff166112ef565b505050565b60006387a211a2600c52816000526020600c20549050919050565b60006338377508600c52816000526020600c20549050919050565b600060608060008060006060610b03611386565b610b0b6113c1565b46306000801b600067ffffffffffffffff811115610b2c57610b2b612812565b5b604051908082528060200260200182016040528015610b5a5781602001602082028036833780820191505090505b507f0f00000000000000000000000000000000000000000000000000000000000000959493929190965096509650965096509650965090919293949596565b600080610bae83610ba990612f56565b611045565b90506000610bbd8633846113fc565b9050610bca868683611439565b5080925050509392505050565b606060068054610be690612ecd565b80601f0160208091040260200160405190810160405280929190818152602001828054610c1290612ecd565b8015610c5f5780601f10610c3457610100808354040283529160200191610c5f565b820191906000526020600020905b815481529060010190602001808311610c4257829003601f168201915b5050505050905090565b8063ffffffff16610c7933610ab9565b1015610cb1576040517ffda7bbda00000000000000000000000000000000000000000000000000000000815260040160405180910390fd5b610cc1338263ffffffff166115c6565b6000610cd28263ffffffff16611172565b9050610d1d600260003373ffffffffffffffffffffffffffffffffffffffff1673ffffffffffffffffffffffffffffffffffffffff168152602001908152602001600020548261165d565b600260003373ffffffffffffffffffffffffffffffffffffffff1673ffffffffffffffffffffffffffffffffffffffff16815260200190815260200160002081905550610d6c6004548261165d565b6004819055505050565b6000610d83338484611036565b6387a211a2600c52336000526020600c20805480841115610dac5763f4d678b86000526004601cfd5b8381038255846000526020600c2084815401815584602052600c5160601c337fddf252ad1be2c89b69c2b068fc378daa952ba7f163c4a11628f55a4df523b3ef602080a3505050610dfe33848461103b565b6001905092915050565b6000808290506000610e1b8633846113fc565b9050610e28868683611439565b5080925050509392505050565b6000610e42338484611439565b905092915050565b6000610e54611040565b90506000801b8103610e7257610e686104c5565b8051906020012090505b84421115610e8857631a15a3cc6000526004601cfd5b6040518860601b60601c98508760601b60601c975065383775081901600e52886000526020600c2080547f8b73c3c69bb8fe3d512ecc4cf759cc79239f7b179b0ffacaa9a75d522b39400f83528360208401527fc89efdaa54c0f20c7adf612882df0950f5a951637e0307cdcb4c672f298b8bc6604084015246606084015230608084015260a08320602e527f6e71edae12b1b97f4d1f60370fef10105fa2faae0126114a169c64845d6126c983528a60208401528960408401528860608401528060808401528760a084015260c08320604e526042602c206000528660ff1660205285604052846060526020806080600060015afa8b3d5114610f945763ddafbaef6000526004601cfd5b80820183558a637f5e9f2060a01b17604052896034602c20558a8c7f8c5be1e5ebec7d5bd14f71427d1e84f3dd0314c0f7b2291e5b200ac8c7c3b925602060608801a3836040526000606052505050505050505050505050565b600061100c33846110078561100290612f56565b611045565b611671565b6001905092915050565b600081602052637f5e9f20600c52826000526034600c2054905092915050565b505050565b505050565b600090565b600061105482600001516117db565b9050919050565b600061106e6110686117ef565b836118a6565b9050919050565b60008060008061108586866118e7565b9250925092506110958282611943565b82935050505092915050565b6000600360008473ffffffffffffffffffffffffffffffffffffffff1673ffffffffffffffffffffffffffffffffffffffff16815260200190815260200160002060008373ffffffffffffffffffffffffffffffffffffffff1673ffffffffffffffffffffffffffffffffffffffff16815260200190815260200160002054905092915050565b606061113383611aa7565b611144576111416000611172565b92505b600083905061115560028285611ab4565b91505092915050565b606061116a8383611128565b905092915050565b600061117f826002611b6a565b9050919050565b60006111928383611c0c565b905092915050565b60006111a584611c85565b6111b6576111b36000611c92565b93505b6111bf83611aa7565b6111d0576111cd6000611172565b92505b6111d982611aa7565b6111ea576111e76000611172565b91505b60008490506000849050600084905060006112086002858585611ca6565b9050809450505050509392505050565b60006112248383611d5e565b905092915050565b600061123782611aa7565b611248576112456000611172565b91505b6000829050600061125882611dd7565b90506000608073ffffffffffffffffffffffffffffffffffffffff166373cc01546002846040518363ffffffff1660e01b8152600401611299929190612ffa565b602060405180830381865afa1580156112b6573d6000803e3d6000fd5b505050506040513d601f19601f820116820180604052508101906112da919061303f565b90506112e581611e34565b9350505050919050565b6112fb60008383611036565b6805345cdf77eb68f44c548181018181101561131f5763e5cfe9576000526004601cfd5b806805345cdf77eb68f44c556387a211a2600c52836000526020600c2083815401815583602052600c5160601c60007fddf252ad1be2c89b69c2b068fc378daa952ba7f163c4a11628f55a4df523b3ef602080a35050506113826000838361103b565b5050565b60606113bc60007f0000000000000000000000000000000000000000000000000000000000000000611e3e90919063ffffffff16565b905090565b60606113f760017f0000000000000000000000000000000000000000000000000000000000000000611e3e90919063ffffffff16565b905090565b60008061140985856110a1565b905060006114178285611eee565b905061142d86866114288585611218565b611671565b80925050509392505050565b6000806114a1611491600260008873ffffffffffffffffffffffffffffffffffffffff1673ffffffffffffffffffffffffffffffffffffffff1681526020019081526020016000205485611f6790919063ffffffff16565b8461149c6000611172565b61119a565b90506114ec600260008673ffffffffffffffffffffffffffffffffffffffff1673ffffffffffffffffffffffffffffffffffffffff168152602001908152602001600020548261165d565b600260008673ffffffffffffffffffffffffffffffffffffffff1673ffffffffffffffffffffffffffffffffffffffff16815260200190815260200160002081905550611578600260008773ffffffffffffffffffffffffffffffffffffffff1673ffffffffffffffffffffffffffffffffffffffff1681526020019081526020016000205482611218565b600260008773ffffffffffffffffffffffffffffffffffffffff1673ffffffffffffffffffffffffffffffffffffffff16815260200190815260200160002081905550809150509392505050565b6115d282600083611036565b6387a211a2600c52816000526020600c208054808311156115fb5763f4d678b86000526004601cfd5b8281038255826805345cdf77eb68f44c54036805345cdf77eb68f44c558260005260008460601b60601c7fddf252ad1be2c89b69c2b068fc378daa952ba7f163c4a11628f55a4df523b3ef60206000a350506116598260008361103b565b5050565b60006116698383611f7b565b905092915050565b600073ffffffffffffffffffffffffffffffffffffffff168373ffffffffffffffffffffffffffffffffffffffff16036116e35760006040517fe602df050000000000000000000000000000000000000000000000000000000081526004016116da919061306c565b60405180910390fd5b600073ffffffffffffffffffffffffffffffffffffffff168273ffffffffffffffffffffffffffffffffffffffff16036117555760006040517f94280d6200000000000000000000000000000000000000000000000000000000815260040161174c919061306c565b60405180910390fd5b80600360008573ffffffffffffffffffffffffffffffffffffffff1673ffffffffffffffffffffffffffffffffffffffff16815260200190815260200160002060008473ffffffffffffffffffffffffffffffffffffffff1673ffffffffffffffffffffffffffffffffffffffff16815260200190815260200160002081905550505050565b60006117e8826002611ff3565b9050919050565b60007f000000000000000000000000000000000000000000000000000000000000000073ffffffffffffffffffffffffffffffffffffffff163073ffffffffffffffffffffffffffffffffffffffff1614801561186b57507f000000000000000000000000000000000000000000000000000000000000000046145b15611898577f000000000000000000000000000000000000000000000000000000000000000090506118a3565b6118a061208d565b90505b90565b60006040517f190100000000000000000000000000000000000000000000000000000000000081528360028201528260228201526042812091505092915050565b6000806000604184510361192c5760008060006020870151925060408701519150606087015160001a905061191e88828585612123565b95509550955050505061193c565b60006002855160001b9250925092505b9250925092565b6000600381111561195757611956613087565b5b82600381111561196a57611969613087565b5b0315611aa3576001600381111561198457611983613087565b5b82600381111561199757611996613087565b5b036119ce576040517ff645eedf00000000000000000000000000000000000000000000000000000000815260040160405180910390fd5b600260038111156119e2576119e1613087565b5b8260038111156119f5576119f4613087565b5b03611a3a578060001c6040517ffce698f7000000000000000000000000000000000000000000000000000000008152600401611a3191906125e3565b60405180910390fd5b600380811115611a4d57611a4c613087565b5b826003811115611a6057611a5f613087565b5b03611aa257806040517fd78bce0c000000000000000000000000000000000000000000000000000000008152600401611a9991906126a1565b60405180910390fd5b5b5050565b6000808214159050919050565b6060608073ffffffffffffffffffffffffffffffffffffffff1663a1848ff385611add86611dd7565b85604051602001611aee91906130d7565b6040516020818303038152906040526040518463ffffffff1660e01b8152600401611b1b939291906130f2565b600060405180830381865afa158015611b38573d6000803e3d6000fd5b505050506040513d6000823e3d601f19601f82011682018060405250810190611b6191906131d8565b90509392505050565b60006060608073ffffffffffffffffffffffffffffffffffffffff166319e1c5c4611b9486611dd7565b856040518363ffffffff1660e01b8152600401611bb2929190613221565b600060405180830381865afa158015611bcf573d6000803e3d6000fd5b505050506040513d6000823e3d601f19601f82011682018060405250810190611bf891906132c1565b9050611c0381612217565b91505092915050565b6000611c1783611aa7565b611c2857611c256000611172565b92505b611c3182611aa7565b611c4257611c3f6000611172565b91505b600083905060008390506000611c7760028484608073ffffffffffffffffffffffffffffffffffffffff1663650de1cf612225565b905080935050505092915050565b6000808214159050919050565b6000611c9f82600d611b6a565b9050919050565b60006060608073ffffffffffffffffffffffffffffffffffffffff1663c2d9695287611cd188611dd7565b611cda88611dd7565b611ce388611dd7565b6040518563ffffffff1660e01b8152600401611d02949392919061330a565b600060405180830381865afa158015611d1f573d6000803e3d6000fd5b505050506040513d6000823e3d601f19601f82011682018060405250810190611d4891906132c1565b9050611d5381612217565b915050949350505050565b6000611d6983611aa7565b611d7a57611d776000611172565b92505b611d8382611aa7565b611d9457611d916000611172565b91505b600083905060008390506000611dc960028484608073ffffffffffffffffffffffffffffffffffffffff1663cc2cbeff612225565b905080935050505092915050565b6060602067ffffffffffffffff811115611df457611df3612812565b5b6040519080825280601f01601f191660200182016040528015611e265781602001600182028036833780820191505090505b509050816020820152919050565b6000819050919050565b606060ff60001b8314611e5b57611e54836122b9565b9050611ee8565b818054611e6790612ecd565b80601f0160208091040260200160405190810160405280929190818152602001828054611e9390612ecd565b8015611ee05780601f10611eb557610100808354040283529160200191611ee0565b820191906000526020600020905b815481529060010190602001808311611ec357829003601f168201915b505050505090505b92915050565b6000611ef983611aa7565b611f0a57611f076000611172565b92505b611f1382611aa7565b611f2457611f216000611172565b91505b600083905060008390506000611f5960028484608073ffffffffffffffffffffffffffffffffffffffff16635211c679612225565b905080935050505092915050565b6000611f73838361232d565b905092915050565b6000611f8683611aa7565b611f9757611f946000611172565b92505b611fa082611aa7565b611fb157611fae6000611172565b91505b600083905060008390506000611fe560028484608073ffffffffffffffffffffffffffffffffffffffff16622df619612225565b905080935050505092915050565b60006060608073ffffffffffffffffffffffffffffffffffffffff16635fa55ca784866040518363ffffffff1660e01b8152600401612033929190612ffa565b600060405180830381865afa158015612050573d6000803e3d6000fd5b505050506040513d6000823e3d601f19601f8201168201806040525081019061207991906132c1565b905061208481612217565b91505092915050565b60007f8b73c3c69bb8fe3d512ecc4cf759cc79239f7b179b0ffacaa9a75d522b39400f7f00000000000000000000000000000000000000000000000000000000000000007f00000000000000000000000000000000000000000000000000000000000000004630604051602001612108959493929190613364565b60405160208183030381529060405280519060200120905090565b60008060007f7fffffffffffffffffffffffffffffff5d576e7357a4501ddfe92f46681b20a08460001c111561216357600060038592509250925061220d565b60006001888888886040516000815260200160405260405161218894939291906133b7565b6020604051602081039080840390855afa1580156121aa573d6000803e3d6000fd5b505050602060405103519050600073ffffffffffffffffffffffffffffffffffffffff168173ffffffffffffffffffffffffffffffffffffffff16036121fe57600060016000801b9350935093505061220d565b8060008060001b935093509350505b9450945094915050565b600060208201519050919050565b6000606083838861223589611dd7565b61223e89611dd7565b6040518463ffffffff1660e01b815260040161225c939291906130f2565b600060405180830381865afa158015612279573d6000803e3d6000fd5b505050506040513d6000823e3d601f19601f820116820180604052508101906122a291906132c1565b90506122ad816123a6565b91505095945050505050565b606060006122c6836123b4565b90506000602067ffffffffffffffff8111156122e5576122e4612812565b5b6040519080825280601f01601f1916602001820160405280156123175781602001600182028036833780820191505090505b5090508181528360208201528092505050919050565b600061233883611aa7565b612349576123466000611172565b92505b61235282611aa7565b612363576123606000611172565b91505b60008390506000839050600061239860028484608073ffffffffffffffffffffffffffffffffffffffff1663eb274b77612225565b905080935050505092915050565b600060208201519050919050565b60008060ff8360001c169050601f8111156123fb576040517fb3512b0c00000000000000000000000000000000000000000000000000000000815260040160405180910390fd5b80915050919050565b600081519050919050565b600082825260208201905092915050565b60005b8381101561243e578082015181840152602081019050612423565b60008484015250505050565b6000601f19601f8301169050919050565b600061246682612404565b612470818561240f565b9350612480818560208601612420565b6124898161244a565b840191505092915050565b600060208201905081810360008301526124ae818461245b565b905092915050565b6000604051905090565b600080fd5b600080fd5b600073ffffffffffffffffffffffffffffffffffffffff82169050919050565b60006124f5826124ca565b9050919050565b612505816124ea565b811461251057600080fd5b50565b600081359050612522816124fc565b92915050565b6000819050919050565b61253b81612528565b811461254657600080fd5b50565b60008135905061255881612532565b92915050565b60008060408385031215612575576125746124c0565b5b600061258385828601612513565b925050602061259485828601612549565b9150509250929050565b60008115159050919050565b6125b38161259e565b82525050565b60006020820190506125ce60008301846125aa565b92915050565b6125dd81612528565b82525050565b60006020820190506125f860008301846125d4565b92915050565b600080600060608486031215612617576126166124c0565b5b600061262586828701612513565b935050602061263686828701612513565b925050604061264786828701612549565b9150509250925092565b600060ff82169050919050565b61266781612651565b82525050565b6000602082019050612682600083018461265e565b92915050565b6000819050919050565b61269b81612688565b82525050565b60006020820190506126b66000830184612692565b92915050565b600080fd5b6000602082840312156126d7576126d66126bc565b5b81905092915050565b600080604083850312156126f7576126f66124c0565b5b600061270585828601612513565b925050602083013567ffffffffffffffff811115612726576127256124c5565b5b612732858286016126c1565b9150509250929050565b6000819050919050565b600061276161275c61275784612528565b61273c565b612528565b9050919050565b61277181612746565b82525050565b600060208201905061278c6000830184612768565b92915050565b6000604082840312156127a8576127a76126bc565b5b81905092915050565b600080604083850312156127c8576127c76124c0565b5b60006127d685828601612513565b925050602083013567ffffffffffffffff8111156127f7576127f66124c5565b5b61280385828601612792565b9150509250929050565b600080fd5b7f4e487b7100000000000000000000000000000000000000000000000000000000600052604160045260246000fd5b61284a8261244a565b810181811067ffffffffffffffff8211171561286957612868612812565b5b80604052505050565b600061287c6124b6565b90506128888282612841565b919050565b600080fd5b61289b81612688565b81146128a657600080fd5b50565b6000813590506128b881612892565b92915050565b600080fd5b600080fd5b600067ffffffffffffffff8211156128e3576128e2612812565b5b6128ec8261244a565b9050602081019050919050565b82818337600083830152505050565b600061291b612916846128c8565b612872565b905082815260208101848484011115612937576129366128c3565b5b6129428482856128f9565b509392505050565b600082601f83011261295f5761295e6128be565b5b813561296f848260208601612908565b91505092915050565b60006040828403121561298e5761298d61280d565b5b6129986040612872565b905060006129a8848285016128a9565b600083015250602082013567ffffffffffffffff8111156129cc576129cb61288d565b5b6129d88482850161294a565b60208301525092915050565b600080604083850312156129fb576129fa6124c0565b5b6000612a0985828601612513565b925050602083013567ffffffffffffffff811115612a2a57612a296124c5565b5b612a3685828601612978565b9150509250929050565b600063ffffffff82169050919050565b612a5981612a40565b8114612a6457600080fd5b50565b600081359050612a7681612a50565b92915050565b600060208284031215612a9257612a916124c0565b5b6000612aa084828501612a67565b91505092915050565b600060208284031215612abf57612abe6124c0565b5b6000612acd84828501612513565b91505092915050565b60007fff0000000000000000000000000000000000000000000000000000000000000082169050919050565b612b0b81612ad6565b82525050565b612b1a816124ea565b82525050565b600081519050919050565b600082825260208201905092915050565b6000819050602082019050919050565b612b5581612528565b82525050565b6000612b678383612b4c565b60208301905092915050565b6000602082019050919050565b6000612b8b82612b20565b612b958185612b2b565b9350612ba083612b3c565b8060005b83811015612bd1578151612bb88882612b5b565b9750612bc383612b73565b925050600181019050612ba4565b5085935050505092915050565b600060e082019050612bf3600083018a612b02565b8181036020830152612c05818961245b565b90508181036040830152612c19818861245b565b9050612c2860608301876125d4565b612c356080830186612b11565b612c4260a0830185612692565b81810360c0830152612c548184612b80565b905098975050505050505050565b600080600060608486031215612c7b57612c7a6124c0565b5b6000612c8986828701612513565b9350506020612c9a86828701612513565b925050604084013567ffffffffffffffff811115612cbb57612cba6124c5565b5b612cc7868287016126c1565b9150509250925092565b612cda81612528565b8114612ce557600080fd5b50565b600081359050612cf781612cd1565b92915050565b600080600060608486031215612d1657612d156124c0565b5b6000612d2486828701612513565b9350506020612d3586828701612513565b9250506040612d4686828701612ce8565b9150509250925092565b60008060408385031215612d6757612d666124c0565b5b6000612d7585828601612513565b9250506020612d8685828601612ce8565b9150509250929050565b612d9981612651565b8114612da457600080fd5b50565b600081359050612db681612d90565b92915050565b600080600080600080600060e0888a031215612ddb57612dda6124c0565b5b6000612de98a828b01612513565b9750506020612dfa8a828b01612513565b9650506040612e0b8a828b01612549565b9550506060612e1c8a828b01612549565b9450506080612e2d8a828b01612da7565b93505060a0612e3e8a828b016128a9565b92505060c0612e4f8a828b016128a9565b91505092959891949750929550565b60008060408385031215612e7557612e746124c0565b5b6000612e8385828601612513565b9250506020612e9485828601612513565b9150509250929050565b7f4e487b7100000000000000000000000000000000000000000000000000000000600052602260045260246000fd5b60006002820490506001821680612ee557607f821691505b602082108103612ef857612ef7612e9e565b5b50919050565b600060208284031215612f1457612f1361280d565b5b612f1e6020612872565b9050600082013567ffffffffffffffff811115612f3e57612f3d61288d565b5b612f4a8482850161294a565b60008301525092915050565b6000612f623683612efe565b9050919050565b6000612f753683612978565b9050919050565b6000604082019050612f916000830185612692565b612f9e6020830184612692565b9392505050565b600081519050919050565b600082825260208201905092915050565b6000612fcc82612fa5565b612fd68185612fb0565b9350612fe6818560208601612420565b612fef8161244a565b840191505092915050565b600060408201905061300f600083018561265e565b81810360208301526130218184612fc1565b90509392505050565b60008151905061303981612532565b92915050565b600060208284031215613055576130546124c0565b5b60006130638482850161302a565b91505092915050565b60006020820190506130816000830184612b11565b92915050565b7f4e487b7100000000000000000000000000000000000000000000000000000000600052602160045260246000fd5b6000819050919050565b6130d16130cc82612688565b6130b6565b82525050565b60006130e382846130c0565b60208201915081905092915050565b6000606082019050613107600083018661265e565b81810360208301526131198185612fc1565b9050818103604083015261312d8184612fc1565b9050949350505050565b600067ffffffffffffffff82111561315257613151612812565b5b61315b8261244a565b9050602081019050919050565b600061317b61317684613137565b612872565b905082815260208101848484011115613197576131966128c3565b5b6131a2848285612420565b509392505050565b600082601f8301126131bf576131be6128be565b5b81516131cf848260208601613168565b91505092915050565b6000602082840312156131ee576131ed6124c0565b5b600082015167ffffffffffffffff81111561320c5761320b6124c5565b5b613218848285016131aa565b91505092915050565b6000604082019050818103600083015261323b8185612fc1565b905061324a602083018461265e565b9392505050565b600061326461325f846128c8565b612872565b9050828152602081018484840111156132805761327f6128c3565b5b61328b848285612420565b509392505050565b600082601f8301126132a8576132a76128be565b5b81516132b8848260208601613251565b91505092915050565b6000602082840312156132d7576132d66124c0565b5b600082015167ffffffffffffffff8111156132f5576132f46124c5565b5b61330184828501613293565b91505092915050565b600060808201905061331f600083018761265e565b81810360208301526133318186612fc1565b905081810360408301526133458185612fc1565b905081810360608301526133598184612fc1565b905095945050505050565b600060a0820190506133796000830188612692565b6133866020830187612692565b6133936040830186612692565b6133a060608301856125d4565b6133ad6080830184612b11565b9695505050505050565b60006080820190506133cc6000830187612692565b6133d9602083018661265e565b6133e66040830185612692565b6133f36060830184612692565b9594505050505056fea264697066735822122061be8e288063915c399b710f5e3ffc82c230d58a0138e45ce8a11781ca3594b764736f6c63430008180033",
  "devdoc": {
    "errors": {
      "AllowanceOverflow()": [
        {
          "details": "The allowance has overflowed."
        }
      ],
      "AllowanceUnderflow()": [
        {
          "details": "The allowance has underflowed."
        }
      ],
      "ECDSAInvalidSignature()": [
        {
          "details": "The signature derives the `address(0)`."
        }
      ],
      "ECDSAInvalidSignatureLength(uint256)": [
        {
          "details": "The signature has an invalid length."
        }
      ],
      "ECDSAInvalidSignatureS(bytes32)": [
        {
          "details": "The signature has an S value that is in the upper half order."
        }
      ],
      "InsufficientAllowance()": [
        {
          "details": "Insufficient allowance."
        }
      ],
      "InsufficientBalance()": [
        {
          "details": "Insufficient balance."
        }
      ],
      "InvalidPermit()": [
        {
          "details": "The permit is invalid."
        }
      ],
      "PermitExpired()": [
        {
          "details": "The permit has expired."
        }
      ],
      "TotalSupplyOverflow()": [
        {
          "details": "The total supply has overflowed."
        }
      ]
    },
    "events": {
      "Approval(address,address,uint256)": {
        "details": "Emitted when `amount` tokens is approved by `owner` to be used by `spender`."
      },
      "ApprovalEncrypted(address,address)": {
        "details": "Emitted when the allowance of a `spender` for an `owner` is set by a call to {approveEncrypted}. `value` is the new allowance."
      },
      "EIP712DomainChanged()": {
        "details": "MAY be emitted to signal that the domain could have changed."
      },
      "Transfer(address,address,uint256)": {
        "details": "Emitted when `amount` tokens is transferred from `from` to `to`."
      },
      "TransferEncrypted(address,address)": {
        "details": "Emitted when `value` tokens are moved from one account (`from`) to another (`to`). Note that `value` may be zero."
      }
    },
    "kind": "dev",
    "methods": {
      "DOMAIN_SEPARATOR()": {
        "details": "Returns the EIP-712 domain separator for the EIP-2612 permit."
      },
      "allowance(address,address)": {
        "details": "Returns the amount of tokens that `spender` can spend on behalf of `owner`."
      },
      "allowanceEncrypted(address,(bytes32,bytes))": {
        "details": "Returns the remaining number of tokens that `spender` will be allowed to spend on behalf of `owner` through {transferFrom}. This is zero by default. This value changes when {approve} or {transferFrom} are called."
      },
      "approve(address,uint256)": {
        "details": "Sets `amount` as the allowance of `spender` over the caller's tokens. Emits a {Approval} event."
      },
      "approveEncrypted(address,(bytes))": {
        "details": "Sets a `value` amount of tokens as the allowance of `spender` over the caller's tokens. Returns a boolean value indicating whether the operation succeeded. IMPORTANT: Beware that changing an allowance with this method brings the risk that someone may use both the old and the new allowance by unfortunate transaction ordering. One possible solution to mitigate this race condition is to first reduce the spender's allowance to 0 and set the desired value afterwards: https://github.com/ethereum/EIPs/issues/20#issuecomment-263524729 Emits an {ApprovalEncrypted} event."
      },
      "balanceOf(address)": {
        "details": "Returns the amount of tokens owned by `owner`."
      },
      "balanceOfEncrypted(address,(bytes32,bytes))": {
        "details": "Returns the value of tokens owned by `account`, sealed and encrypted for the caller."
      },
      "decimals()": {
        "details": "Returns the decimals places of the token."
      },
      "eip712Domain()": {
        "details": "See {IERC-5267}."
      },
      "name()": {
        "details": "Returns the name of the token."
      },
      "nonces(address)": {
        "details": "Returns the current nonce for `owner`. This value is used to compute the signature for EIP-2612 permit."
      },
      "permit(address,address,uint256,uint256,uint8,bytes32,bytes32)": {
        "details": "Sets `value` as the allowance of `spender` over the tokens of `owner`, authorized by a signed approval by `owner`. Emits a {Approval} event."
      },
      "symbol()": {
        "details": "Returns the symbol of the token."
      },
      "totalSupply()": {
        "details": "Returns the amount of tokens in existence."
      },
      "transfer(address,uint256)": {
        "details": "Transfer `amount` tokens from the caller to `to`. Requirements: - `from` must at least have `amount`. Emits a {Transfer} event."
      },
      "transferFrom(address,address,uint256)": {
        "details": "Transfers `amount` tokens from `from` to `to`. Note: Does not update the allowance if it is the maximum uint256 value. Requirements: - `from` must at least have `amount`. - The caller must have at least `amount` of allowance to transfer the tokens of `from`. Emits a {Transfer} event."
      },
      "transferFromEncrypted(address,address,(bytes))": {
        "details": "Moves a `value` amount of tokens from `from` to `to` using the allowance mechanism. `value` is then deducted from the caller's allowance. Returns a boolean value indicating whether the operation succeeded. Emits a {TransferEncrypted} event."
      }
    },
    "version": 1
  },
  "userdoc": {
    "errors": {
      "SignerNotMessageSender()": [
        {
          "notice": "Emitted when the signer is not the message sender"
        }
      ],
      "SignerNotOwner()": [
        {
          "notice": "Emitted when the signer is not the specified owner"
        }
      ]
    },
    "kind": "user",
    "methods": {},
    "version": 1
  },
  "storageLayout": {
    "storage": [
      {
        "astId": 16568,
        "contract": "contracts/FHERC20Mintable.sol:FHERC20Mintable",
        "label": "_nameFallback",
        "offset": 0,
        "slot": "0",
        "type": "t_string_storage"
      },
      {
        "astId": 16570,
        "contract": "contracts/FHERC20Mintable.sol:FHERC20Mintable",
        "label": "_versionFallback",
        "offset": 0,
        "slot": "1",
        "type": "t_string_storage"
      },
      {
        "astId": 18205,
        "contract": "contracts/FHERC20Mintable.sol:FHERC20Mintable",
        "label": "_encBalances",
        "offset": 0,
        "slot": "2",
        "type": "t_mapping(t_address,t_userDefinedValueType(euint32)12)"
      },
      {
        "astId": 18212,
        "contract": "contracts/FHERC20Mintable.sol:FHERC20Mintable",
        "label": "_allowed",
        "offset": 0,
        "slot": "3",
        "type": "t_mapping(t_address,t_mapping(t_address,t_userDefinedValueType(euint32)12))"
      },
      {
        "astId": 18219,
        "contract": "contracts/FHERC20Mintable.sol:FHERC20Mintable",
        "label": "totalEncryptedSupply",
        "offset": 0,
        "slot": "4",
        "type": "t_userDefinedValueType(euint32)12"
      },
      {
        "astId": 18221,
        "contract": "contracts/FHERC20Mintable.sol:FHERC20Mintable",
        "label": "_name",
        "offset": 0,
        "slot": "5",
        "type": "t_string_storage"
      },
      {
        "astId": 18223,
        "contract": "contracts/FHERC20Mintable.sol:FHERC20Mintable",
        "label": "_symbol",
        "offset": 0,
        "slot": "6",
        "type": "t_string_storage"
      }
    ],
    "types": {
      "t_address": {
        "encoding": "inplace",
        "label": "address",
        "numberOfBytes": "20"
      },
      "t_mapping(t_address,t_mapping(t_address,t_userDefinedValueType(euint32)12))": {
        "encoding": "mapping",
        "key": "t_address",
        "label": "mapping(address => mapping(address => euint32))",
        "numberOfBytes": "32",
        "value": "t_mapping(t_address,t_userDefinedValueType(euint32)12)"
      },
      "t_mapping(t_address,t_userDefinedValueType(euint32)12)": {
        "encoding": "mapping",
        "key": "t_address",
        "label": "mapping(address => euint32)",
        "numberOfBytes": "32",
        "value": "t_userDefinedValueType(euint32)12"
      },
      "t_string_storage": {
        "encoding": "bytes",
        "label": "string",
        "numberOfBytes": "32"
      },
      "t_userDefinedValueType(euint32)12": {
        "encoding": "inplace",
        "label": "euint32",
        "numberOfBytes": "32"
      }
    }
  }
}