{
  "address": "0x5C9cA22Fc0B51da57A70092250CA5f60A0C18C13",
  "abi": [
    {
      "inputs": [],
      "name": "BatchIsInSettlement",
      "type": "error"
    },
    {
      "inputs": [],
      "name": "EpochNotEnded",
      "type": "error"
    },
    {
      "inputs": [],
      "name": "InvalidShortString",
      "type": "error"
    },
    {
      "inputs": [],
      "name": "InvalidTokenOrder",
      "type": "error"
    },
    {
      "inputs": [],
      "name": "NotValidSettlementStep",
      "type": "error"
    },
    {
      "inputs": [],
      "name": "OrderAlreadyClaimed",
      "type": "error"
    },
    {
      "inputs": [],
      "name": "PoolAlreadyExists",
      "type": "error"
    },
    {
      "inputs": [],
      "name": "PoolNotFound",
      "type": "error"
    },
    {
      "inputs": [],
      "name": "SignerNotMessageSender",
      "type": "error"
    },
    {
      "inputs": [],
      "name": "SignerNotOwner",
      "type": "error"
    },
    {
      "inputs": [
        {
          "internalType": "string",
          "name": "str",
          "type": "string"
        }
      ],
      "name": "StringTooLong",
      "type": "error"
    },
    {
      "inputs": [],
      "name": "noCorrespondingFacet",
      "type": "error"
    },
    {
      "inputs": [],
      "name": "notOwner",
      "type": "error"
    },
    {
      "anonymous": false,
      "inputs": [
        {
          "indexed": false,
          "internalType": "address",
          "name": "recipient",
          "type": "address"
        },
        {
          "indexed": false,
          "internalType": "address",
          "name": "token",
          "type": "address"
        }
      ],
      "name": "Deposit",
      "type": "event"
    },
    {
      "anonymous": false,
      "inputs": [],
      "name": "EIP712DomainChanged",
      "type": "event"
    },
    {
      "anonymous": false,
      "inputs": [
        {
          "indexed": false,
          "internalType": "address",
          "name": "tokenX",
          "type": "address"
        },
        {
          "indexed": false,
          "internalType": "address",
          "name": "tokenY",
          "type": "address"
        },
        {
          "indexed": false,
          "internalType": "bytes32",
          "name": "poolId",
          "type": "bytes32"
        }
      ],
      "name": "PoolCreated",
      "type": "event"
    },
    {
      "anonymous": false,
      "inputs": [
        {
          "indexed": false,
          "internalType": "address",
          "name": "recipient",
          "type": "address"
        },
        {
          "indexed": false,
          "internalType": "address",
          "name": "token",
          "type": "address"
        }
      ],
      "name": "Withdraw",
      "type": "event"
    },
    {
      "anonymous": false,
      "inputs": [
        {
          "indexed": false,
          "internalType": "bytes32",
          "name": "poolId",
          "type": "bytes32"
        },
        {
          "indexed": false,
          "internalType": "uint32",
          "name": "epoch",
          "type": "uint32"
        }
      ],
      "name": "batchSettled",
      "type": "event"
    },
    {
      "anonymous": false,
      "inputs": [
        {
          "indexed": false,
          "internalType": "bytes4",
          "name": "selector",
          "type": "bytes4"
        },
        {
          "indexed": false,
          "internalType": "address",
          "name": "facet",
          "type": "address"
        }
      ],
      "name": "facetAdded",
      "type": "event"
    },
    {
      "anonymous": false,
      "inputs": [
        {
          "indexed": false,
          "internalType": "bytes32",
          "name": "poolId",
          "type": "bytes32"
        },
        {
          "indexed": false,
          "internalType": "uint32",
          "name": "epoch",
          "type": "uint32"
        }
      ],
      "name": "orderSubmitted",
      "type": "event"
    },
    {
      "inputs": [
        {
          "internalType": "address",
          "name": "tokenX",
          "type": "address"
        },
        {
          "internalType": "address",
          "name": "tokenY",
          "type": "address"
        },
        {
          "components": [
            {
              "internalType": "bytes",
              "name": "data",
              "type": "bytes"
            }
          ],
          "internalType": "struct inEuint32",
          "name": "_initialReserves",
          "type": "tuple"
        }
      ],
      "name": "createPool",
      "outputs": [],
      "stateMutability": "nonpayable",
      "type": "function"
    },
    {
      "inputs": [],
      "name": "eip712Domain",
      "outputs": [
        {
          "internalType": "bytes1",
          "name": "fields",
          "type": "bytes1"
        },
        {
          "internalType": "string",
          "name": "name",
          "type": "string"
        },
        {
          "internalType": "string",
          "name": "version",
          "type": "string"
        },
        {
          "internalType": "uint256",
          "name": "chainId",
          "type": "uint256"
        },
        {
          "internalType": "address",
          "name": "verifyingContract",
          "type": "address"
        },
        {
          "internalType": "bytes32",
          "name": "salt",
          "type": "bytes32"
        },
        {
          "internalType": "uint256[]",
          "name": "extensions",
          "type": "uint256[]"
        }
      ],
      "stateMutability": "view",
      "type": "function"
    },
    {
      "inputs": [
        {
          "internalType": "address",
          "name": "tokenX",
          "type": "address"
        },
        {
          "internalType": "address",
          "name": "tokenY",
          "type": "address"
        }
      ],
      "name": "getPoolId",
      "outputs": [
        {
          "internalType": "bytes32",
          "name": "",
          "type": "bytes32"
        }
      ],
      "stateMutability": "view",
      "type": "function"
    }
  ],
  "transactionHash": "0x8a82c09bf24fa5a5844bb2d62e7fdf7c64b046e9fc519704e1f7892edcdbada4",
  "args": [],
  "numDeployments": 4,
  "solcInputHash": "291cf64def2066c7e76507ea7caba91d",
  "bytecode": "0x6101606040523480156200001257600080fd5b506040518060400160405280601181526020017f4668656e6978205065726d697373696f6e0000000000000000000000000000008152506040518060400160405280600381526020017f312e300000000000000000000000000000000000000000000000000000000000815250620000956000836200013560201b90919060201c565b6101208181525050620000b36001826200013560201b90919060201c565b6101408181525050818051906020012060e08181525050808051906020012061010081815250504660a08181525050620000f26200018d60201b60201c565b608081815250503073ffffffffffffffffffffffffffffffffffffffff1660c08173ffffffffffffffffffffffffffffffffffffffff16815250505050620007e5565b60006020835110156200015b576200015383620001ea60201b60201c565b905062000187565b826200016d836200025760201b60201c565b60000190816200017e9190620004db565b5060ff60001b90505b92915050565b60007f8b73c3c69bb8fe3d512ecc4cf759cc79239f7b179b0ffacaa9a75d522b39400f60e051610100514630604051602001620001cf95949392919062000633565b60405160208183030381529060405280519060200120905090565b600080829050601f815111156200023a57826040517f305a27a90000000000000000000000000000000000000000000000000000000081526004016200023191906200071f565b60405180910390fd5b805181620002489062000775565b60001c1760001b915050919050565b6000819050919050565b600081519050919050565b7f4e487b7100000000000000000000000000000000000000000000000000000000600052604160045260246000fd5b7f4e487b7100000000000000000000000000000000000000000000000000000000600052602260045260246000fd5b60006002820490506001821680620002e357607f821691505b602082108103620002f957620002f86200029b565b5b50919050565b60008190508160005260206000209050919050565b60006020601f8301049050919050565b600082821b905092915050565b600060088302620003637fffffffffffffffffffffffffffffffffffffffffffffffffffffffffffffffff8262000324565b6200036f868362000324565b95508019841693508086168417925050509392505050565b6000819050919050565b6000819050919050565b6000620003bc620003b6620003b08462000387565b62000391565b62000387565b9050919050565b6000819050919050565b620003d8836200039b565b620003f0620003e782620003c3565b84845462000331565b825550505050565b600090565b62000407620003f8565b62000414818484620003cd565b505050565b5b818110156200043c5762000430600082620003fd565b6001810190506200041a565b5050565b601f8211156200048b576200045581620002ff565b620004608462000314565b8101602085101562000470578190505b620004886200047f8562000314565b83018262000419565b50505b505050565b600082821c905092915050565b6000620004b06000198460080262000490565b1980831691505092915050565b6000620004cb83836200049d565b9150826002028217905092915050565b620004e68262000261565b67ffffffffffffffff8111156200050257620005016200026c565b5b6200050e8254620002ca565b6200051b82828562000440565b600060209050601f8311600181146200055357600084156200053e578287015190505b6200054a8582620004bd565b865550620005ba565b601f1984166200056386620002ff565b60005b828110156200058d5784890151825560018201915060208501945060208101905062000566565b86831015620005ad5784890151620005a9601f8916826200049d565b8355505b6001600288020188555050505b505050505050565b6000819050919050565b620005d781620005c2565b82525050565b620005e88162000387565b82525050565b600073ffffffffffffffffffffffffffffffffffffffff82169050919050565b60006200061b82620005ee565b9050919050565b6200062d816200060e565b82525050565b600060a0820190506200064a6000830188620005cc565b620006596020830187620005cc565b620006686040830186620005cc565b620006776060830185620005dd565b62000686608083018462000622565b9695505050505050565b600082825260208201905092915050565b60005b83811015620006c1578082015181840152602081019050620006a4565b60008484015250505050565b6000601f19601f8301169050919050565b6000620006eb8262000261565b620006f7818562000690565b935062000709818560208601620006a1565b6200071481620006cd565b840191505092915050565b600060208201905081810360008301526200073b8184620006de565b905092915050565b600081519050919050565b6000819050602082019050919050565b60006200076c8251620005c2565b80915050919050565b6000620007828262000743565b826200078e846200074e565b90506200079b816200075e565b92506020821015620007de57620007d97fffffffffffffffffffffffffffffffffffffffffffffffffffffffffffffffff8360200360080262000324565b831692505b5050919050565b60805160a05160c05160e051610100516101205161014051611d1e620008316000396000610c6d01526000610c3201526000505060005050600050506000505060005050611d1e6000f3fe608060405234801561001057600080fd5b50600436106100415760003560e01c80632ef61c2114610046578063467276391461007657806384b0196e14610092575b600080fd5b610060600480360381019061005b91906114b1565b6100b6565b60405161006d919061150a565b60405180910390f35b610090600480360381019061008b9190611549565b6101f3565b005b61009a61063a565b6040516100ad9796959493929190611769565b60405180910390f35b60008173ffffffffffffffffffffffffffffffffffffffff168373ffffffffffffffffffffffffffffffffffffffff161061016d57600560008373ffffffffffffffffffffffffffffffffffffffff1673ffffffffffffffffffffffffffffffffffffffff16815260200190815260200160002060008473ffffffffffffffffffffffffffffffffffffffff1673ffffffffffffffffffffffffffffffffffffffff168152602001908152602001600020546101eb565b600560008473ffffffffffffffffffffffffffffffffffffffff1673ffffffffffffffffffffffffffffffffffffffff16815260200190815260200160002060008373ffffffffffffffffffffffffffffffffffffffff1673ffffffffffffffffffffffffffffffffffffffff168152602001908152602001600020545b905092915050565b60006102078261020290611984565b6106e4565b905060006102bb600460003373ffffffffffffffffffffffffffffffffffffffff1673ffffffffffffffffffffffffffffffffffffffff16815260200190815260200160002060000160008773ffffffffffffffffffffffffffffffffffffffff1673ffffffffffffffffffffffffffffffffffffffff168152602001908152602001600020546102b66102a7856102a2633fff80006106fa565b61070e565b6102b1600f6106fa565b610787565b610800565b9050600061035b600460003373ffffffffffffffffffffffffffffffffffffffff1673ffffffffffffffffffffffffffffffffffffffff16815260200190815260200160002060000160008773ffffffffffffffffffffffffffffffffffffffff1673ffffffffffffffffffffffffffffffffffffffff1681526020019081526020016000205461035685610351617fff6106fa565b61070e565b610800565b90506103bf6103ba61038c846103876001600761037891906119d6565b63ffffffff166002901b6106fa565b610879565b6103b5846103b0600160076103a191906119d6565b63ffffffff166002901b6106fa565b610879565b6108f2565b61096b565b610448600460003373ffffffffffffffffffffffffffffffffffffffff1673ffffffffffffffffffffffffffffffffffffffff16815260200190815260200160002060000160008873ffffffffffffffffffffffffffffffffffffffff1673ffffffffffffffffffffffffffffffffffffffff1681526020019081526020016000205483610a20565b600460003373ffffffffffffffffffffffffffffffffffffffff1673ffffffffffffffffffffffffffffffffffffffff16815260200190815260200160002060000160008873ffffffffffffffffffffffffffffffffffffffff1673ffffffffffffffffffffffffffffffffffffffff16815260200190815260200160002081905550610554600460003373ffffffffffffffffffffffffffffffffffffffff1673ffffffffffffffffffffffffffffffffffffffff16815260200190815260200160002060000160008773ffffffffffffffffffffffffffffffffffffffff1673ffffffffffffffffffffffffffffffffffffffff1681526020019081526020016000205482610a20565b600460003373ffffffffffffffffffffffffffffffffffffffff1673ffffffffffffffffffffffffffffffffffffffff16815260200190815260200160002060000160008773ffffffffffffffffffffffffffffffffffffffff1673ffffffffffffffffffffffffffffffffffffffff16815260200190815260200160002081905550600060405180608001604052808873ffffffffffffffffffffffffffffffffffffffff1681526020018773ffffffffffffffffffffffffffffffffffffffff16815260200184815260200183815250905061063181610a34565b50505050505050565b60006060806000806000606061064e610c29565b610656610c64565b46306000801b600067ffffffffffffffff811115610677576106766117f2565b5b6040519080825280602002602001820160405280156106a55781602001602082028036833780820191505090505b507f0f00000000000000000000000000000000000000000000000000000000000000959493929190965096509650965096509650965090919293949596565b60006106f38260000151610c9f565b9050919050565b6000610707826002610cb3565b9050919050565b600061071983610d55565b61072a5761072760006106fa565b92505b61073382610d55565b6107445761074160006106fa565b91505b60008390506000839050600061077960028484608073ffffffffffffffffffffffffffffffffffffffff1663ae104cfd610d62565b905080935050505092915050565b600061079283610d55565b6107a3576107a060006106fa565b92505b6107ac82610d55565b6107bd576107ba60006106fa565b91505b6000839050600083905060006107f260028484608073ffffffffffffffffffffffffffffffffffffffff16639944d12d610d62565b905080935050505092915050565b600061080b83610d55565b61081c5761081960006106fa565b92505b61082582610d55565b6108365761083360006106fa565b91505b60008390506000839050600061086b60028484608073ffffffffffffffffffffffffffffffffffffffff16635211c679610d62565b905080935050505092915050565b600061088483610d55565b6108955761089260006106fa565b92505b61089e82610d55565b6108af576108ac60006106fa565b91505b6000839050600083905060006108e460028484608073ffffffffffffffffffffffffffffffffffffffff1663874b1c10610d62565b905080935050505092915050565b60006108fd83610df6565b61090e5761090b6000610e03565b92505b61091782610df6565b610928576109256000610e03565b91505b60008390506000839050600061095d600d8484608073ffffffffffffffffffffffffffffffffffffffff1663ae104cfd610d62565b905080935050505092915050565b61097481610df6565b610985576109826000610e03565b90505b6000819050600061099582610e17565b9050608073ffffffffffffffffffffffffffffffffffffffff16637d23f1db600d836040518363ffffffff1660e01b81526004016109d4929190611a7f565b600060405180830381865afa1580156109f1573d6000803e3d6000fd5b505050506040513d6000823e3d601f19601f82011682018060405250810190610a1a9190611b1f565b50505050565b6000610a2c8383610e74565b905092915050565b806000015173ffffffffffffffffffffffffffffffffffffffff16816020015173ffffffffffffffffffffffffffffffffffffffff1611610aa1576040517f3f06bf8100000000000000000000000000000000000000000000000000000000815260040160405180910390fd5b6000610ab5826000015183602001516100b6565b90506000801b8114610af3576040517f0311932200000000000000000000000000000000000000000000000000000000815260040160405180910390fd5b81600001518260200151604051602001610b0e929190611bb0565b6040516020818303038152906040528051906020012060056000846000015173ffffffffffffffffffffffffffffffffffffffff1673ffffffffffffffffffffffffffffffffffffffff1681526020019081526020016000206000846020015173ffffffffffffffffffffffffffffffffffffffff1673ffffffffffffffffffffffffffffffffffffffff16815260200190815260200160002081905550610bbe826000015183602001516100b6565b90506000600660008381526020019081526020016000209050610be18184610eed565b7fec5dc6309c83a50f60f4a1fae9422b2c406da78c579b9b12b92d033db37c71948360000151846020015184604051610c1c93929190611bdc565b60405180910390a1505050565b6060610c5f60007f000000000000000000000000000000000000000000000000000000000000000061119c90919063ffffffff16565b905090565b6060610c9a60017f000000000000000000000000000000000000000000000000000000000000000061119c90919063ffffffff16565b905090565b6000610cac82600261124c565b9050919050565b60006060608073ffffffffffffffffffffffffffffffffffffffff166319e1c5c4610cdd86610e17565b856040518363ffffffff1660e01b8152600401610cfb929190611c13565b600060405180830381865afa158015610d18573d6000803e3d6000fd5b505050506040513d6000823e3d601f19601f82011682018060405250810190610d419190611b1f565b9050610d4c816112e6565b91505092915050565b6000808214159050919050565b60006060838388610d7289610e17565b610d7b89610e17565b6040518463ffffffff1660e01b8152600401610d9993929190611c43565b600060405180830381865afa158015610db6573d6000803e3d6000fd5b505050506040513d6000823e3d601f19601f82011682018060405250810190610ddf9190611b1f565b9050610dea816112f4565b91505095945050505050565b6000808214159050919050565b6000610e1082600d610cb3565b9050919050565b6060602067ffffffffffffffff811115610e3457610e336117f2565b5b6040519080825280601f01601f191660200182016040528015610e665781602001600182028036833780820191505090505b509050816020820152919050565b6000610e7f83610d55565b610e9057610e8d60006106fa565b92505b610e9982610d55565b610eaa57610ea760006106fa565b91505b600083905060008390506000610edf60028484608073ffffffffffffffffffffffffffffffffffffffff1663cc2cbeff610d62565b905080935050505092915050565b80600001518260000160006101000a81548173ffffffffffffffffffffffffffffffffffffffff021916908373ffffffffffffffffffffffffffffffffffffffff16021790555080602001518260010160006101000a81548173ffffffffffffffffffffffffffffffffffffffff021916908373ffffffffffffffffffffffffffffffffffffffff16021790555060008260010160146101000a81548163ffffffff021916908363ffffffff160217905550428260010160186101000a81548163ffffffff021916908363ffffffff160217905550600082600101601c6101000a81548163ffffffff021916908363ffffffff16021790555061100f816040015161100a60016007610fff91906119d6565b63ffffffff166106fa565b610787565b8260040181905550611040816060015161103b6001600761103091906119d6565b63ffffffff166106fa565b610787565b826005018190555061105a81604001518360040154610a20565b826002018190555061107481606001518360050154610a20565b826003018190555061108e82600201548360030154611302565b82600601819055506110bf82600601546110ba600160076110af91906119d6565b63ffffffff166106fa565b610787565b8260070160003073ffffffffffffffffffffffffffffffffffffffff1673ffffffffffffffffffffffffffffffffffffffff1681526020019081526020016000208190555061115382600601548360070160003073ffffffffffffffffffffffffffffffffffffffff1673ffffffffffffffffffffffffffffffffffffffff16815260200190815260200160002054610a20565b8260070160003373ffffffffffffffffffffffffffffffffffffffff1673ffffffffffffffffffffffffffffffffffffffff168152602001908152602001600020819055505050565b606060ff60001b83146111b9576111b28361137b565b9050611246565b8180546111c590611cb7565b80601f01602080910402602001604051908101604052809291908181526020018280546111f190611cb7565b801561123e5780601f106112135761010080835404028352916020019161123e565b820191906000526020600020905b81548152906001019060200180831161122157829003601f168201915b505050505090505b92915050565b60006060608073ffffffffffffffffffffffffffffffffffffffff16635fa55ca784866040518363ffffffff1660e01b815260040161128c929190611a7f565b600060405180830381865afa1580156112a9573d6000803e3d6000fd5b505050506040513d6000823e3d601f19601f820116820180604052508101906112d29190611b1f565b90506112dd816112e6565b91505092915050565b600060208201519050919050565b600060208201519050919050565b600061130d83610d55565b61131e5761131b60006106fa565b92505b61132782610d55565b6113385761133560006106fa565b91505b60008390506000839050600061136d60028484608073ffffffffffffffffffffffffffffffffffffffff16630b80518e610d62565b905080935050505092915050565b60606000611388836113ef565b90506000602067ffffffffffffffff8111156113a7576113a66117f2565b5b6040519080825280601f01601f1916602001820160405280156113d95781602001600182028036833780820191505090505b5090508181528360208201528092505050919050565b60008060ff8360001c169050601f811115611436576040517fb3512b0c00000000000000000000000000000000000000000000000000000000815260040160405180910390fd5b80915050919050565b6000604051905090565b600080fd5b600080fd5b600073ffffffffffffffffffffffffffffffffffffffff82169050919050565b600061147e82611453565b9050919050565b61148e81611473565b811461149957600080fd5b50565b6000813590506114ab81611485565b92915050565b600080604083850312156114c8576114c7611449565b5b60006114d68582860161149c565b92505060206114e78582860161149c565b9150509250929050565b6000819050919050565b611504816114f1565b82525050565b600060208201905061151f60008301846114fb565b92915050565b600080fd5b6000602082840312156115405761153f611525565b5b81905092915050565b60008060006060848603121561156257611561611449565b5b60006115708682870161149c565b93505060206115818682870161149c565b925050604084013567ffffffffffffffff8111156115a2576115a161144e565b5b6115ae8682870161152a565b9150509250925092565b60007fff0000000000000000000000000000000000000000000000000000000000000082169050919050565b6115ed816115b8565b82525050565b600081519050919050565b600082825260208201905092915050565b60005b8381101561162d578082015181840152602081019050611612565b60008484015250505050565b6000601f19601f8301169050919050565b6000611655826115f3565b61165f81856115fe565b935061166f81856020860161160f565b61167881611639565b840191505092915050565b6000819050919050565b61169681611683565b82525050565b6116a581611473565b82525050565b600081519050919050565b600082825260208201905092915050565b6000819050602082019050919050565b6116e081611683565b82525050565b60006116f283836116d7565b60208301905092915050565b6000602082019050919050565b6000611716826116ab565b61172081856116b6565b935061172b836116c7565b8060005b8381101561175c57815161174388826116e6565b975061174e836116fe565b92505060018101905061172f565b5085935050505092915050565b600060e08201905061177e600083018a6115e4565b8181036020830152611790818961164a565b905081810360408301526117a4818861164a565b90506117b3606083018761168d565b6117c0608083018661169c565b6117cd60a08301856114fb565b81810360c08301526117df818461170b565b905098975050505050505050565b600080fd5b7f4e487b7100000000000000000000000000000000000000000000000000000000600052604160045260246000fd5b61182a82611639565b810181811067ffffffffffffffff82111715611849576118486117f2565b5b80604052505050565b600061185c61143f565b90506118688282611821565b919050565b600080fd5b600080fd5b600080fd5b600067ffffffffffffffff821115611897576118966117f2565b5b6118a082611639565b9050602081019050919050565b82818337600083830152505050565b60006118cf6118ca8461187c565b611852565b9050828152602081018484840111156118eb576118ea611877565b5b6118f68482856118ad565b509392505050565b600082601f83011261191357611912611872565b5b81356119238482602086016118bc565b91505092915050565b600060208284031215611942576119416117ed565b5b61194c6020611852565b9050600082013567ffffffffffffffff81111561196c5761196b61186d565b5b611978848285016118fe565b60008301525092915050565b6000611990368361192c565b9050919050565b600063ffffffff82169050919050565b7f4e487b7100000000000000000000000000000000000000000000000000000000600052601160045260246000fd5b60006119e182611997565b91506119ec83611997565b9250828201905063ffffffff811115611a0857611a076119a7565b5b92915050565b600060ff82169050919050565b611a2481611a0e565b82525050565b600081519050919050565b600082825260208201905092915050565b6000611a5182611a2a565b611a5b8185611a35565b9350611a6b81856020860161160f565b611a7481611639565b840191505092915050565b6000604082019050611a946000830185611a1b565b8181036020830152611aa68184611a46565b90509392505050565b6000611ac2611abd8461187c565b611852565b905082815260208101848484011115611ade57611add611877565b5b611ae984828561160f565b509392505050565b600082601f830112611b0657611b05611872565b5b8151611b16848260208601611aaf565b91505092915050565b600060208284031215611b3557611b34611449565b5b600082015167ffffffffffffffff811115611b5357611b5261144e565b5b611b5f84828501611af1565b91505092915050565b60008160601b9050919050565b6000611b8082611b68565b9050919050565b6000611b9282611b75565b9050919050565b611baa611ba582611473565b611b87565b82525050565b6000611bbc8285611b99565b601482019150611bcc8284611b99565b6014820191508190509392505050565b6000606082019050611bf1600083018661169c565b611bfe602083018561169c565b611c0b60408301846114fb565b949350505050565b60006040820190508181036000830152611c2d8185611a46565b9050611c3c6020830184611a1b565b9392505050565b6000606082019050611c586000830186611a1b565b8181036020830152611c6a8185611a46565b90508181036040830152611c7e8184611a46565b9050949350505050565b7f4e487b7100000000000000000000000000000000000000000000000000000000600052602260045260246000fd5b60006002820490506001821680611ccf57607f821691505b602082108103611ce257611ce1611c88565b5b5091905056fea2646970667358221220364e496a7b4dc225e7ea774cf332b315f61caea2390ec299ec5553de3f2c1aab64736f6c63430008180033",
  "devdoc": {
    "events": {
      "EIP712DomainChanged()": {
        "details": "MAY be emitted to signal that the domain could have changed."
      }
    },
    "kind": "dev",
    "methods": {
      "eip712Domain()": {
        "details": "See {IERC-5267}."
      }
    },
    "version": 1
  },
  "userdoc": {
    "errors": {
      "SignerNotMessageSender()": [
        {
          "notice": "Emitted when the signer is not the message sender"
        }
      ],
      "SignerNotOwner()": [
        {
          "notice": "Emitted when the signer is not the specified owner"
        }
      ]
    },
    "kind": "user",
    "methods": {},
    "version": 1
  },
  "storageLayout": {
    "storage": [
      {
        "astId": 16568,
        "contract": "contracts/FugaziPoolRegistryFacet.sol:FugaziPoolRegistryFacet",
        "label": "_nameFallback",
        "offset": 0,
        "slot": "0",
        "type": "t_string_storage"
      },
      {
        "astId": 16570,
        "contract": "contracts/FugaziPoolRegistryFacet.sol:FugaziPoolRegistryFacet",
        "label": "_versionFallback",
        "offset": 0,
        "slot": "1",
        "type": "t_string_storage"
      },
      {
        "astId": 19933,
        "contract": "contracts/FugaziPoolRegistryFacet.sol:FugaziPoolRegistryFacet",
        "label": "owner",
        "offset": 0,
        "slot": "2",
        "type": "t_address"
      },
      {
        "astId": 19937,
        "contract": "contracts/FugaziPoolRegistryFacet.sol:FugaziPoolRegistryFacet",
        "label": "selectorTofacet",
        "offset": 0,
        "slot": "3",
        "type": "t_mapping(t_bytes4,t_address)"
      },
      {
        "astId": 19969,
        "contract": "contracts/FugaziPoolRegistryFacet.sol:FugaziPoolRegistryFacet",
        "label": "account",
        "offset": 0,
        "slot": "4",
        "type": "t_mapping(t_address,t_struct(accountStruct)19964_storage)"
      },
      {
        "astId": 20034,
        "contract": "contracts/FugaziPoolRegistryFacet.sol:FugaziPoolRegistryFacet",
        "label": "poolIdMapping",
        "offset": 0,
        "slot": "5",
        "type": "t_mapping(t_address,t_mapping(t_address,t_bytes32))"
      },
      {
        "astId": 20039,
        "contract": "contracts/FugaziPoolRegistryFacet.sol:FugaziPoolRegistryFacet",
        "label": "poolState",
        "offset": 0,
        "slot": "6",
        "type": "t_mapping(t_bytes32,t_struct(poolStateStruct)20028_storage)"
      }
    ],
    "types": {
      "t_address": {
        "encoding": "inplace",
        "label": "address",
        "numberOfBytes": "20"
      },
      "t_array(t_struct(unclaimedOrderStruct)19954_storage)dyn_storage": {
        "base": "t_struct(unclaimedOrderStruct)19954_storage",
        "encoding": "dynamic_array",
        "label": "struct FugaziStorageLayout.unclaimedOrderStruct[]",
        "numberOfBytes": "32"
      },
      "t_bool": {
        "encoding": "inplace",
        "label": "bool",
        "numberOfBytes": "1"
      },
      "t_bytes32": {
        "encoding": "inplace",
        "label": "bytes32",
        "numberOfBytes": "32"
      },
      "t_bytes4": {
        "encoding": "inplace",
        "label": "bytes4",
        "numberOfBytes": "4"
      },
      "t_mapping(t_address,t_bytes32)": {
        "encoding": "mapping",
        "key": "t_address",
        "label": "mapping(address => bytes32)",
        "numberOfBytes": "32",
        "value": "t_bytes32"
      },
      "t_mapping(t_address,t_mapping(t_address,t_bytes32))": {
        "encoding": "mapping",
        "key": "t_address",
        "label": "mapping(address => mapping(address => bytes32))",
        "numberOfBytes": "32",
        "value": "t_mapping(t_address,t_bytes32)"
      },
      "t_mapping(t_address,t_struct(accountStruct)19964_storage)": {
        "encoding": "mapping",
        "key": "t_address",
        "label": "mapping(address => struct FugaziStorageLayout.accountStruct)",
        "numberOfBytes": "32",
        "value": "t_struct(accountStruct)19964_storage"
      },
      "t_mapping(t_address,t_struct(orderStruct)20159_storage)": {
        "encoding": "mapping",
        "key": "t_address",
        "label": "mapping(address => struct FugaziStorageLayout.orderStruct)",
        "numberOfBytes": "32",
        "value": "t_struct(orderStruct)20159_storage"
      },
      "t_mapping(t_address,t_userDefinedValueType(euint32)12)": {
        "encoding": "mapping",
        "key": "t_address",
        "label": "mapping(address => euint32)",
        "numberOfBytes": "32",
        "value": "t_userDefinedValueType(euint32)12"
      },
      "t_mapping(t_bytes32,t_struct(poolStateStruct)20028_storage)": {
        "encoding": "mapping",
        "key": "t_bytes32",
        "label": "mapping(bytes32 => struct FugaziStorageLayout.poolStateStruct)",
        "numberOfBytes": "32",
        "value": "t_struct(poolStateStruct)20028_storage"
      },
      "t_mapping(t_bytes4,t_address)": {
        "encoding": "mapping",
        "key": "t_bytes4",
        "label": "mapping(bytes4 => address)",
        "numberOfBytes": "32",
        "value": "t_address"
      },
      "t_mapping(t_uint32,t_struct(batchStruct)20144_storage)": {
        "encoding": "mapping",
        "key": "t_uint32",
        "label": "mapping(uint32 => struct FugaziStorageLayout.batchStruct)",
        "numberOfBytes": "32",
        "value": "t_struct(batchStruct)20144_storage"
      },
      "t_string_storage": {
        "encoding": "bytes",
        "label": "string",
        "numberOfBytes": "32"
      },
      "t_struct(accountStruct)19964_storage": {
        "encoding": "inplace",
        "label": "struct FugaziStorageLayout.accountStruct",
        "members": [
          {
            "astId": 19959,
            "contract": "contracts/FugaziPoolRegistryFacet.sol:FugaziPoolRegistryFacet",
            "label": "balanceOf",
            "offset": 0,
            "slot": "0",
            "type": "t_mapping(t_address,t_userDefinedValueType(euint32)12)"
          },
          {
            "astId": 19963,
            "contract": "contracts/FugaziPoolRegistryFacet.sol:FugaziPoolRegistryFacet",
            "label": "unclaimedOrders",
            "offset": 0,
            "slot": "1",
            "type": "t_array(t_struct(unclaimedOrderStruct)19954_storage)dyn_storage"
          }
        ],
        "numberOfBytes": "64"
      },
      "t_struct(batchStruct)20144_storage": {
        "encoding": "inplace",
        "label": "struct FugaziStorageLayout.batchStruct",
        "members": [
          {
            "astId": 20107,
            "contract": "contracts/FugaziPoolRegistryFacet.sol:FugaziPoolRegistryFacet",
            "label": "order",
            "offset": 0,
            "slot": "0",
            "type": "t_mapping(t_address,t_struct(orderStruct)20159_storage)"
          },
          {
            "astId": 20110,
            "contract": "contracts/FugaziPoolRegistryFacet.sol:FugaziPoolRegistryFacet",
            "label": "reserveX0",
            "offset": 0,
            "slot": "1",
            "type": "t_userDefinedValueType(euint32)12"
          },
          {
            "astId": 20113,
            "contract": "contracts/FugaziPoolRegistryFacet.sol:FugaziPoolRegistryFacet",
            "label": "reserveY0",
            "offset": 0,
            "slot": "2",
            "type": "t_userDefinedValueType(euint32)12"
          },
          {
            "astId": 20116,
            "contract": "contracts/FugaziPoolRegistryFacet.sol:FugaziPoolRegistryFacet",
            "label": "swapX",
            "offset": 0,
            "slot": "3",
            "type": "t_userDefinedValueType(euint32)12"
          },
          {
            "astId": 20119,
            "contract": "contracts/FugaziPoolRegistryFacet.sol:FugaziPoolRegistryFacet",
            "label": "swapY",
            "offset": 0,
            "slot": "4",
            "type": "t_userDefinedValueType(euint32)12"
          },
          {
            "astId": 20122,
            "contract": "contracts/FugaziPoolRegistryFacet.sol:FugaziPoolRegistryFacet",
            "label": "mintX",
            "offset": 0,
            "slot": "5",
            "type": "t_userDefinedValueType(euint32)12"
          },
          {
            "astId": 20125,
            "contract": "contracts/FugaziPoolRegistryFacet.sol:FugaziPoolRegistryFacet",
            "label": "mintY",
            "offset": 0,
            "slot": "6",
            "type": "t_userDefinedValueType(euint32)12"
          },
          {
            "astId": 20128,
            "contract": "contracts/FugaziPoolRegistryFacet.sol:FugaziPoolRegistryFacet",
            "label": "intermidiateValues",
            "offset": 0,
            "slot": "7",
            "type": "t_struct(intermidiateValuesStruct)20166_storage"
          },
          {
            "astId": 20131,
            "contract": "contracts/FugaziPoolRegistryFacet.sol:FugaziPoolRegistryFacet",
            "label": "reserveX1",
            "offset": 0,
            "slot": "9",
            "type": "t_userDefinedValueType(euint32)12"
          },
          {
            "astId": 20134,
            "contract": "contracts/FugaziPoolRegistryFacet.sol:FugaziPoolRegistryFacet",
            "label": "reserveY1",
            "offset": 0,
            "slot": "10",
            "type": "t_userDefinedValueType(euint32)12"
          },
          {
            "astId": 20137,
            "contract": "contracts/FugaziPoolRegistryFacet.sol:FugaziPoolRegistryFacet",
            "label": "outX",
            "offset": 0,
            "slot": "11",
            "type": "t_userDefinedValueType(euint32)12"
          },
          {
            "astId": 20140,
            "contract": "contracts/FugaziPoolRegistryFacet.sol:FugaziPoolRegistryFacet",
            "label": "outY",
            "offset": 0,
            "slot": "12",
            "type": "t_userDefinedValueType(euint32)12"
          },
          {
            "astId": 20143,
            "contract": "contracts/FugaziPoolRegistryFacet.sol:FugaziPoolRegistryFacet",
            "label": "lpIncrement",
            "offset": 0,
            "slot": "13",
            "type": "t_userDefinedValueType(euint32)12"
          }
        ],
        "numberOfBytes": "448"
      },
      "t_struct(intermidiateValuesStruct)20166_storage": {
        "encoding": "inplace",
        "label": "struct FugaziStorageLayout.intermidiateValuesStruct",
        "members": [
          {
            "astId": 20162,
            "contract": "contracts/FugaziPoolRegistryFacet.sol:FugaziPoolRegistryFacet",
            "label": "XForPricing",
            "offset": 0,
            "slot": "0",
            "type": "t_userDefinedValueType(euint32)12"
          },
          {
            "astId": 20165,
            "contract": "contracts/FugaziPoolRegistryFacet.sol:FugaziPoolRegistryFacet",
            "label": "YForPricing",
            "offset": 0,
            "slot": "1",
            "type": "t_userDefinedValueType(euint32)12"
          }
        ],
        "numberOfBytes": "64"
      },
      "t_struct(orderStruct)20159_storage": {
        "encoding": "inplace",
        "label": "struct FugaziStorageLayout.orderStruct",
        "members": [
          {
            "astId": 20147,
            "contract": "contracts/FugaziPoolRegistryFacet.sol:FugaziPoolRegistryFacet",
            "label": "swapX",
            "offset": 0,
            "slot": "0",
            "type": "t_userDefinedValueType(euint32)12"
          },
          {
            "astId": 20150,
            "contract": "contracts/FugaziPoolRegistryFacet.sol:FugaziPoolRegistryFacet",
            "label": "swapY",
            "offset": 0,
            "slot": "1",
            "type": "t_userDefinedValueType(euint32)12"
          },
          {
            "astId": 20153,
            "contract": "contracts/FugaziPoolRegistryFacet.sol:FugaziPoolRegistryFacet",
            "label": "mintX",
            "offset": 0,
            "slot": "2",
            "type": "t_userDefinedValueType(euint32)12"
          },
          {
            "astId": 20156,
            "contract": "contracts/FugaziPoolRegistryFacet.sol:FugaziPoolRegistryFacet",
            "label": "mintY",
            "offset": 0,
            "slot": "3",
            "type": "t_userDefinedValueType(euint32)12"
          },
          {
            "astId": 20158,
            "contract": "contracts/FugaziPoolRegistryFacet.sol:FugaziPoolRegistryFacet",
            "label": "claimed",
            "offset": 0,
            "slot": "4",
            "type": "t_bool"
          }
        ],
        "numberOfBytes": "160"
      },
      "t_struct(poolStateStruct)20028_storage": {
        "encoding": "inplace",
        "label": "struct FugaziStorageLayout.poolStateStruct",
        "members": [
          {
            "astId": 19994,
            "contract": "contracts/FugaziPoolRegistryFacet.sol:FugaziPoolRegistryFacet",
            "label": "tokenX",
            "offset": 0,
            "slot": "0",
            "type": "t_address"
          },
          {
            "astId": 19996,
            "contract": "contracts/FugaziPoolRegistryFacet.sol:FugaziPoolRegistryFacet",
            "label": "tokenY",
            "offset": 0,
            "slot": "1",
            "type": "t_address"
          },
          {
            "astId": 19998,
            "contract": "contracts/FugaziPoolRegistryFacet.sol:FugaziPoolRegistryFacet",
            "label": "epoch",
            "offset": 20,
            "slot": "1",
            "type": "t_uint32"
          },
          {
            "astId": 20000,
            "contract": "contracts/FugaziPoolRegistryFacet.sol:FugaziPoolRegistryFacet",
            "label": "lastSettlement",
            "offset": 24,
            "slot": "1",
            "type": "t_uint32"
          },
          {
            "astId": 20002,
            "contract": "contracts/FugaziPoolRegistryFacet.sol:FugaziPoolRegistryFacet",
            "label": "settlementStep",
            "offset": 28,
            "slot": "1",
            "type": "t_uint32"
          },
          {
            "astId": 20005,
            "contract": "contracts/FugaziPoolRegistryFacet.sol:FugaziPoolRegistryFacet",
            "label": "reserveX",
            "offset": 0,
            "slot": "2",
            "type": "t_userDefinedValueType(euint32)12"
          },
          {
            "astId": 20008,
            "contract": "contracts/FugaziPoolRegistryFacet.sol:FugaziPoolRegistryFacet",
            "label": "reserveY",
            "offset": 0,
            "slot": "3",
            "type": "t_userDefinedValueType(euint32)12"
          },
          {
            "astId": 20011,
            "contract": "contracts/FugaziPoolRegistryFacet.sol:FugaziPoolRegistryFacet",
            "label": "protocolX",
            "offset": 0,
            "slot": "4",
            "type": "t_userDefinedValueType(euint32)12"
          },
          {
            "astId": 20014,
            "contract": "contracts/FugaziPoolRegistryFacet.sol:FugaziPoolRegistryFacet",
            "label": "protocolY",
            "offset": 0,
            "slot": "5",
            "type": "t_userDefinedValueType(euint32)12"
          },
          {
            "astId": 20017,
            "contract": "contracts/FugaziPoolRegistryFacet.sol:FugaziPoolRegistryFacet",
            "label": "lpTotalSupply",
            "offset": 0,
            "slot": "6",
            "type": "t_userDefinedValueType(euint32)12"
          },
          {
            "astId": 20022,
            "contract": "contracts/FugaziPoolRegistryFacet.sol:FugaziPoolRegistryFacet",
            "label": "lpBalanceOf",
            "offset": 0,
            "slot": "7",
            "type": "t_mapping(t_address,t_userDefinedValueType(euint32)12)"
          },
          {
            "astId": 20027,
            "contract": "contracts/FugaziPoolRegistryFacet.sol:FugaziPoolRegistryFacet",
            "label": "batch",
            "offset": 0,
            "slot": "8",
            "type": "t_mapping(t_uint32,t_struct(batchStruct)20144_storage)"
          }
        ],
        "numberOfBytes": "288"
      },
      "t_struct(unclaimedOrderStruct)19954_storage": {
        "encoding": "inplace",
        "label": "struct FugaziStorageLayout.unclaimedOrderStruct",
        "members": [
          {
            "astId": 19951,
            "contract": "contracts/FugaziPoolRegistryFacet.sol:FugaziPoolRegistryFacet",
            "label": "poolId",
            "offset": 0,
            "slot": "0",
            "type": "t_bytes32"
          },
          {
            "astId": 19953,
            "contract": "contracts/FugaziPoolRegistryFacet.sol:FugaziPoolRegistryFacet",
            "label": "epoch",
            "offset": 0,
            "slot": "1",
            "type": "t_uint32"
          }
        ],
        "numberOfBytes": "64"
      },
      "t_uint32": {
        "encoding": "inplace",
        "label": "uint32",
        "numberOfBytes": "4"
      },
      "t_userDefinedValueType(euint32)12": {
        "encoding": "inplace",
        "label": "euint32",
        "numberOfBytes": "32"
      }
    }
  }
}