{
  "address": "0x69b7D2a0A2F68084f0cEd1E7186f1A99e47FB8ac",
  "abi": [
    {
      "inputs": [],
      "name": "BatchIsInSettlement",
      "type": "error"
    },
    {
      "inputs": [],
      "name": "EpochNotEnded",
      "type": "error"
    },
    {
      "inputs": [],
      "name": "InvalidShortString",
      "type": "error"
    },
    {
      "inputs": [],
      "name": "InvalidTokenOrder",
      "type": "error"
    },
    {
      "inputs": [],
      "name": "NotValidSettlementStep",
      "type": "error"
    },
    {
      "inputs": [],
      "name": "OrderAlreadyClaimed",
      "type": "error"
    },
    {
      "inputs": [],
      "name": "PoolAlreadyExists",
      "type": "error"
    },
    {
      "inputs": [],
      "name": "PoolNotFound",
      "type": "error"
    },
    {
      "inputs": [],
      "name": "SignerNotMessageSender",
      "type": "error"
    },
    {
      "inputs": [],
      "name": "SignerNotOwner",
      "type": "error"
    },
    {
      "inputs": [
        {
          "internalType": "string",
          "name": "str",
          "type": "string"
        }
      ],
      "name": "StringTooLong",
      "type": "error"
    },
    {
      "inputs": [],
      "name": "noCorrespondingFacet",
      "type": "error"
    },
    {
      "inputs": [],
      "name": "notOwner",
      "type": "error"
    },
    {
      "anonymous": false,
      "inputs": [
        {
          "indexed": false,
          "internalType": "address",
          "name": "recipient",
          "type": "address"
        },
        {
          "indexed": false,
          "internalType": "address",
          "name": "token",
          "type": "address"
        }
      ],
      "name": "Deposit",
      "type": "event"
    },
    {
      "anonymous": false,
      "inputs": [],
      "name": "EIP712DomainChanged",
      "type": "event"
    },
    {
      "anonymous": false,
      "inputs": [
        {
          "indexed": false,
          "internalType": "address",
          "name": "tokenX",
          "type": "address"
        },
        {
          "indexed": false,
          "internalType": "address",
          "name": "tokenY",
          "type": "address"
        },
        {
          "indexed": false,
          "internalType": "bytes32",
          "name": "poolId",
          "type": "bytes32"
        }
      ],
      "name": "PoolCreated",
      "type": "event"
    },
    {
      "anonymous": false,
      "inputs": [
        {
          "indexed": false,
          "internalType": "address",
          "name": "recipient",
          "type": "address"
        },
        {
          "indexed": false,
          "internalType": "address",
          "name": "token",
          "type": "address"
        }
      ],
      "name": "Withdraw",
      "type": "event"
    },
    {
      "anonymous": false,
      "inputs": [
        {
          "indexed": false,
          "internalType": "bytes32",
          "name": "poolId",
          "type": "bytes32"
        },
        {
          "indexed": false,
          "internalType": "uint32",
          "name": "epoch",
          "type": "uint32"
        }
      ],
      "name": "epochSettled",
      "type": "event"
    },
    {
      "anonymous": false,
      "inputs": [
        {
          "indexed": false,
          "internalType": "bytes4",
          "name": "selector",
          "type": "bytes4"
        },
        {
          "indexed": false,
          "internalType": "address",
          "name": "facet",
          "type": "address"
        }
      ],
      "name": "facetAdded",
      "type": "event"
    },
    {
      "anonymous": false,
      "inputs": [
        {
          "indexed": false,
          "internalType": "bytes32",
          "name": "poolId",
          "type": "bytes32"
        },
        {
          "indexed": false,
          "internalType": "uint32",
          "name": "epoch",
          "type": "uint32"
        }
      ],
      "name": "orderSubmitted",
      "type": "event"
    },
    {
      "inputs": [
        {
          "internalType": "bytes32",
          "name": "poolId",
          "type": "bytes32"
        },
        {
          "internalType": "uint32",
          "name": "epoch",
          "type": "uint32"
        }
      ],
      "name": "claim",
      "outputs": [],
      "stateMutability": "nonpayable",
      "type": "function"
    },
    {
      "inputs": [],
      "name": "eip712Domain",
      "outputs": [
        {
          "internalType": "bytes1",
          "name": "fields",
          "type": "bytes1"
        },
        {
          "internalType": "string",
          "name": "name",
          "type": "string"
        },
        {
          "internalType": "string",
          "name": "version",
          "type": "string"
        },
        {
          "internalType": "uint256",
          "name": "chainId",
          "type": "uint256"
        },
        {
          "internalType": "address",
          "name": "verifyingContract",
          "type": "address"
        },
        {
          "internalType": "bytes32",
          "name": "salt",
          "type": "bytes32"
        },
        {
          "internalType": "uint256[]",
          "name": "extensions",
          "type": "uint256[]"
        }
      ],
      "stateMutability": "view",
      "type": "function"
    },
    {
      "inputs": [
        {
          "internalType": "bytes32",
          "name": "poolId",
          "type": "bytes32"
        },
        {
          "components": [
            {
              "internalType": "bytes",
              "name": "data",
              "type": "bytes"
            }
          ],
          "internalType": "struct inEuint32",
          "name": "_exitAmount",
          "type": "tuple"
        }
      ],
      "name": "removeLiquidity",
      "outputs": [],
      "stateMutability": "nonpayable",
      "type": "function"
    },
    {
      "inputs": [
        {
          "internalType": "bytes32",
          "name": "poolId",
          "type": "bytes32"
        }
      ],
      "name": "settleBatch",
      "outputs": [],
      "stateMutability": "nonpayable",
      "type": "function"
    },
    {
      "inputs": [
        {
          "internalType": "bytes32",
          "name": "poolId",
          "type": "bytes32"
        }
      ],
      "name": "settleBatchStep1",
      "outputs": [],
      "stateMutability": "nonpayable",
      "type": "function"
    },
    {
      "inputs": [
        {
          "internalType": "bytes32",
          "name": "poolId",
          "type": "bytes32"
        }
      ],
      "name": "settleBatchStep2",
      "outputs": [],
      "stateMutability": "nonpayable",
      "type": "function"
    },
    {
      "inputs": [
        {
          "internalType": "bytes32",
          "name": "poolId",
          "type": "bytes32"
        }
      ],
      "name": "settleBatchStep3",
      "outputs": [],
      "stateMutability": "nonpayable",
      "type": "function"
    },
    {
      "inputs": [
        {
          "internalType": "bytes32",
          "name": "poolId",
          "type": "bytes32"
        }
      ],
      "name": "settleBatchStep4",
      "outputs": [],
      "stateMutability": "nonpayable",
      "type": "function"
    },
    {
      "inputs": [
        {
          "internalType": "bytes32",
          "name": "poolId",
          "type": "bytes32"
        },
        {
          "components": [
            {
              "internalType": "bytes",
              "name": "data",
              "type": "bytes"
            }
          ],
          "internalType": "struct inEuint32",
          "name": "_packedAmounts",
          "type": "tuple"
        }
      ],
      "name": "submitOrder",
      "outputs": [
        {
          "internalType": "uint32",
          "name": "",
          "type": "uint32"
        }
      ],
      "stateMutability": "nonpayable",
      "type": "function"
    }
  ],
  "transactionHash": "0x71aab1ce3647b5a2a56e08a97913035cff729a7bc55aa35aafa6f58b366af7d0",
  "args": [],
  "numDeployments": 4,
  "solcInputHash": "17eadf5a58c3bf1d890521711869ce87",
  "bytecode": "0x610160604052601e600760006101000a81548163ffffffff021916908363ffffffff1602179055503480156200003457600080fd5b506040518060400160405280601181526020017f4668656e6978205065726d697373696f6e0000000000000000000000000000008152506040518060400160405280600381526020017f312e300000000000000000000000000000000000000000000000000000000000815250620000b76000836200015760201b90919060201c565b6101208181525050620000d56001826200015760201b90919060201c565b6101408181525050818051906020012060e08181525050808051906020012061010081815250504660a0818152505062000114620001af60201b60201c565b608081815250503073ffffffffffffffffffffffffffffffffffffffff1660c08173ffffffffffffffffffffffffffffffffffffffff1681525050505062000807565b60006020835110156200017d5762000175836200020c60201b60201c565b9050620001a9565b826200018f836200027960201b60201c565b6000019081620001a09190620004fd565b5060ff60001b90505b92915050565b60007f8b73c3c69bb8fe3d512ecc4cf759cc79239f7b179b0ffacaa9a75d522b39400f60e051610100514630604051602001620001f195949392919062000655565b60405160208183030381529060405280519060200120905090565b600080829050601f815111156200025c57826040517f305a27a900000000000000000000000000000000000000000000000000000000815260040162000253919062000741565b60405180910390fd5b8051816200026a9062000797565b60001c1760001b915050919050565b6000819050919050565b600081519050919050565b7f4e487b7100000000000000000000000000000000000000000000000000000000600052604160045260246000fd5b7f4e487b7100000000000000000000000000000000000000000000000000000000600052602260045260246000fd5b600060028204905060018216806200030557607f821691505b6020821081036200031b576200031a620002bd565b5b50919050565b60008190508160005260206000209050919050565b60006020601f8301049050919050565b600082821b905092915050565b600060088302620003857fffffffffffffffffffffffffffffffffffffffffffffffffffffffffffffffff8262000346565b62000391868362000346565b95508019841693508086168417925050509392505050565b6000819050919050565b6000819050919050565b6000620003de620003d8620003d284620003a9565b620003b3565b620003a9565b9050919050565b6000819050919050565b620003fa83620003bd565b620004126200040982620003e5565b84845462000353565b825550505050565b600090565b620004296200041a565b62000436818484620003ef565b505050565b5b818110156200045e57620004526000826200041f565b6001810190506200043c565b5050565b601f821115620004ad57620004778162000321565b620004828462000336565b8101602085101562000492578190505b620004aa620004a18562000336565b8301826200043b565b50505b505050565b600082821c905092915050565b6000620004d260001984600802620004b2565b1980831691505092915050565b6000620004ed8383620004bf565b9150826002028217905092915050565b620005088262000283565b67ffffffffffffffff8111156200052457620005236200028e565b5b620005308254620002ec565b6200053d82828562000462565b600060209050601f83116001811462000575576000841562000560578287015190505b6200056c8582620004df565b865550620005dc565b601f198416620005858662000321565b60005b82811015620005af5784890151825560018201915060208501945060208101905062000588565b86831015620005cf5784890151620005cb601f891682620004bf565b8355505b6001600288020188555050505b505050505050565b6000819050919050565b620005f981620005e4565b82525050565b6200060a81620003a9565b82525050565b600073ffffffffffffffffffffffffffffffffffffffff82169050919050565b60006200063d8262000610565b9050919050565b6200064f8162000630565b82525050565b600060a0820190506200066c6000830188620005ee565b6200067b6020830187620005ee565b6200068a6040830186620005ee565b620006996060830185620005ff565b620006a8608083018462000644565b9695505050505050565b600082825260208201905092915050565b60005b83811015620006e3578082015181840152602081019050620006c6565b60008484015250505050565b6000601f19601f8301169050919050565b60006200070d8262000283565b620007198185620006b2565b93506200072b818560208601620006c3565b6200073681620006ef565b840191505092915050565b600060208201905081810360008301526200075d818462000700565b905092915050565b600081519050919050565b6000819050602082019050919050565b60006200078e8251620005e4565b80915050919050565b6000620007a48262000765565b82620007b08462000770565b9050620007bd8162000780565b925060208210156200080057620007fb7fffffffffffffffffffffffffffffffffffffffffffffffffffffffffffffffff8360200360080262000346565b831692505b5050919050565b60805160a05160c05160e051610100516101205161014051613a816200085360003960006123ee015260006123b301526000505060005050600050506000505060005050613a816000f3fe608060405234801561001057600080fd5b50600436106100935760003560e01c8063aaf3b5f611610066578063aaf3b5f614610110578063ba198d5f1461012c578063d81b897a1461015c578063eeb8f2b514610178578063f5398acd1461019457610093565b80631bcc8d25146100985780632d0841ab146100b45780634cf9aeaf146100d057806384b0196e146100ec575b600080fd5b6100b260048036038101906100ad9190613121565b6101b0565b005b6100ce60048036038101906100c99190613161565b61025c565b005b6100ea60048036038101906100e59190613161565b61050e565b005b6100f461070e565b6040516101079796959493929190613380565b60405180910390f35b61012a60048036038101906101259190613161565b6107b8565b005b61014660048036038101906101419190613428565b610a77565b6040516101539190613493565b60405180910390f35b61017660048036038101906101719190613161565b611419565b005b610192600480360381019061018d9190613161565b6115e9565b005b6101ae60048036038101906101a99190613428565b6116ae565b005b81600073ffffffffffffffffffffffffffffffffffffffff166006600083815260200190815260200160002060000160009054906101000a900473ffffffffffffffffffffffffffffffffffffffff1673ffffffffffffffffffffffffffffffffffffffff160361024d576040517f76ecffc000000000000000000000000000000000000000000000000000000000815260040160405180910390fd5b6102578383611bee565b505050565b80600073ffffffffffffffffffffffffffffffffffffffff166006600083815260200190815260200160002060000160009054906101000a900473ffffffffffffffffffffffffffffffffffffffff1673ffffffffffffffffffffffffffffffffffffffff16036102f9576040517f76ecffc000000000000000000000000000000000000000000000000000000000815260040160405180910390fd5b600060066000848152602001908152602001600020905060008160080160008360010160149054906101000a900463ffffffff1663ffffffff1663ffffffff1681526020019081526020016000209050600382600101601c9054906101000a900463ffffffff1663ffffffff161461039d576040517f59f7b71200000000000000000000000000000000000000000000000000000000815260040160405180910390fd5b6103c981600d01546103c46103ba856006015485600601546122e1565b84600201546122f5565b612309565b81600d01819055506103e3826006015482600d0154612382565b826006018190555061043a8260070160003073ffffffffffffffffffffffffffffffffffffffff1673ffffffffffffffffffffffffffffffffffffffff1681526020019081526020016000205482600d0154612382565b8260070160003073ffffffffffffffffffffffffffffffffffffffff1673ffffffffffffffffffffffffffffffffffffffff1681526020019081526020016000208190555060018260010160148282829054906101000a900463ffffffff166104a391906134dd565b92506101000a81548163ffffffff021916908363ffffffff160217905550428260010160186101000a81548163ffffffff021916908363ffffffff160217905550600082600101601c6101000a81548163ffffffff021916908363ffffffff16021790555050505050565b80600073ffffffffffffffffffffffffffffffffffffffff166006600083815260200190815260200160002060000160009054906101000a900473ffffffffffffffffffffffffffffffffffffffff1673ffffffffffffffffffffffffffffffffffffffff16036105ab576040517f76ecffc000000000000000000000000000000000000000000000000000000000815260040160405180910390fd5b600060066000848152602001908152602001600020905060008160080160008360010160149054906101000a900463ffffffff1663ffffffff1663ffffffff1681526020019081526020016000209050600182600101601c9054906101000a900463ffffffff1663ffffffff161461064f576040517f59f7b71200000000000000000000000000000000000000000000000000000000815260040160405180910390fd5b610674610667826003015483600701600101546122e1565b82600701600001546122f5565b81600c01819055506106a861069e61069483600101548460030154612382565b8360050154612382565b82600b0154612396565b81600901819055506106dc6106d26106c883600201548460040154612382565b8360060154612382565b82600c0154612396565b81600a0181905550600282600101601c6101000a81548163ffffffff021916908363ffffffff16021790555050505050565b6000606080600080600060606107226123aa565b61072a6123e5565b46306000801b600067ffffffffffffffff81111561074b5761074a613515565b5b6040519080825280602002602001820160405280156107795781602001602082028036833780820191505090505b507f0f00000000000000000000000000000000000000000000000000000000000000959493929190965096509650965096509650965090919293949596565b80600073ffffffffffffffffffffffffffffffffffffffff166006600083815260200190815260200160002060000160009054906101000a900473ffffffffffffffffffffffffffffffffffffffff1673ffffffffffffffffffffffffffffffffffffffff1603610855576040517f76ecffc000000000000000000000000000000000000000000000000000000000815260040160405180910390fd5b600060066000848152602001908152602001600020905060008160080160008360010160149054906101000a900463ffffffff1663ffffffff1663ffffffff1681526020019081526020016000209050600082600101601c9054906101000a900463ffffffff1663ffffffff16146108f9576040517f59f7b71200000000000000000000000000000000000000000000000000000000815260040160405180910390fd5b600760009054906101000a900463ffffffff168260010160189054906101000a900463ffffffff1661092b91906134dd565b63ffffffff1642101561096a576040517f756b785700000000000000000000000000000000000000000000000000000000815260040160405180910390fd5b610981826002015461097c6000612420565b612382565b81600101819055506109a0826003015461099b6000612420565b612382565b81600201819055506109d96109cf82600101546109ca84600301546109c56001612420565b612434565b612382565b8260050154612382565b8160070160000181905550610a15610a0b8260020154610a068460040154610a016001612420565b612434565b612382565b8260060154612382565b8160070160010181905550610a45610a38826004015483600701600001546122e1565b82600701600101546122f5565b81600b0181905550600182600101601c6101000a81548163ffffffff021916908363ffffffff16021790555050505050565b600082600073ffffffffffffffffffffffffffffffffffffffff166006600083815260200190815260200160002060000160009054906101000a900473ffffffffffffffffffffffffffffffffffffffff1673ffffffffffffffffffffffffffffffffffffffff1603610b16576040517f76ecffc000000000000000000000000000000000000000000000000000000000815260040160405180910390fd5b83600060066000838152602001908152602001600020600101601c9054906101000a900463ffffffff1663ffffffff1614610b7d576040517fde583b9800000000000000000000000000000000000000000000000000000000815260040160405180910390fd5b6000610b9185610b8c906136ac565b6124ad565b9050600060066000888152602001908152602001600020905060008160080160008360010160149054906101000a900463ffffffff1663ffffffff1663ffffffff16815260200190815260200160002090506000610cb9600460003373ffffffffffffffffffffffffffffffffffffffff1673ffffffffffffffffffffffffffffffffffffffff16815260200190815260200160002060000160008560000160009054906101000a900473ffffffffffffffffffffffffffffffffffffffff1673ffffffffffffffffffffffffffffffffffffffff1673ffffffffffffffffffffffffffffffffffffffff16815260200190815260200160002054610cb4610ca587610ca0633fff8000612420565b6124c3565b610caf600f612420565b61253c565b612309565b90506000610d7d600460003373ffffffffffffffffffffffffffffffffffffffff1673ffffffffffffffffffffffffffffffffffffffff16815260200190815260200160002060000160008660010160009054906101000a900473ffffffffffffffffffffffffffffffffffffffff1673ffffffffffffffffffffffffffffffffffffffff1673ffffffffffffffffffffffffffffffffffffffff16815260200190815260200160002054610d7887610d73617fff612420565b6124c3565b612309565b9050610e2c600460003373ffffffffffffffffffffffffffffffffffffffff1673ffffffffffffffffffffffffffffffffffffffff16815260200190815260200160002060000160008660000160009054906101000a900473ffffffffffffffffffffffffffffffffffffffff1673ffffffffffffffffffffffffffffffffffffffff1673ffffffffffffffffffffffffffffffffffffffff1681526020019081526020016000205483612396565b600460003373ffffffffffffffffffffffffffffffffffffffff1673ffffffffffffffffffffffffffffffffffffffff16815260200190815260200160002060000160008660000160009054906101000a900473ffffffffffffffffffffffffffffffffffffffff1673ffffffffffffffffffffffffffffffffffffffff1673ffffffffffffffffffffffffffffffffffffffff16815260200190815260200160002081905550610f80600460003373ffffffffffffffffffffffffffffffffffffffff1673ffffffffffffffffffffffffffffffffffffffff16815260200190815260200160002060000160008660010160009054906101000a900473ffffffffffffffffffffffffffffffffffffffff1673ffffffffffffffffffffffffffffffffffffffff1673ffffffffffffffffffffffffffffffffffffffff1681526020019081526020016000205482612396565b600460003373ffffffffffffffffffffffffffffffffffffffff1673ffffffffffffffffffffffffffffffffffffffff16815260200190815260200160002060000160008660010160009054906101000a900473ffffffffffffffffffffffffffffffffffffffff1673ffffffffffffffffffffffffffffffffffffffff1673ffffffffffffffffffffffffffffffffffffffff1681526020019081526020016000208190555060006110516110428761103d6340000000612420565b6124c3565b61104c6000612420565b6125b5565b905061106781846110626000612420565b61262e565b8460000160003373ffffffffffffffffffffffffffffffffffffffff1673ffffffffffffffffffffffffffffffffffffffff168152602001908152602001600020600001819055506110c381836110be6000612420565b61262e565b8460000160003373ffffffffffffffffffffffffffffffffffffffff1673ffffffffffffffffffffffffffffffffffffffff1681526020019081526020016000206001018190555061111f816111196000612420565b8561262e565b8460000160003373ffffffffffffffffffffffffffffffffffffffff1673ffffffffffffffffffffffffffffffffffffffff1681526020019081526020016000206002018190555061117b816111756000612420565b8461262e565b8460000160003373ffffffffffffffffffffffffffffffffffffffff1673ffffffffffffffffffffffffffffffffffffffff1681526020019081526020016000206003018190555060008460000160003373ffffffffffffffffffffffffffffffffffffffff1673ffffffffffffffffffffffffffffffffffffffff16815260200190815260200160002060040160006101000a81548160ff02191690831515021790555061127284600301548560000160003373ffffffffffffffffffffffffffffffffffffffff1673ffffffffffffffffffffffffffffffffffffffff16815260200190815260200160002060000154612382565b84600301819055506112cc84600401548560000160003373ffffffffffffffffffffffffffffffffffffffff1673ffffffffffffffffffffffffffffffffffffffff16815260200190815260200160002060010154612382565b846004018190555061132684600501548560000160003373ffffffffffffffffffffffffffffffffffffffff1673ffffffffffffffffffffffffffffffffffffffff16815260200190815260200160002060020154612382565b846005018190555061138084600601548560000160003373ffffffffffffffffffffffffffffffffffffffff1673ffffffffffffffffffffffffffffffffffffffff16815260200190815260200160002060030154612382565b84600601819055506113a7338c8760010160149054906101000a900463ffffffff166126ac565b7f20b50106ec48113af87337548b09f0ce7f60a12bd3c545126cd25abb7fc1c6308b8660010160149054906101000a900463ffffffff166040516113ec9291906136bf565b60405180910390a18460010160149054906101000a900463ffffffff169850505050505050505092915050565b80600073ffffffffffffffffffffffffffffffffffffffff166006600083815260200190815260200160002060000160009054906101000a900473ffffffffffffffffffffffffffffffffffffffff1673ffffffffffffffffffffffffffffffffffffffff16036114b6576040517f76ecffc000000000000000000000000000000000000000000000000000000000815260040160405180910390fd5b600060066000848152602001908152602001600020905060008160080160008360010160149054906101000a900463ffffffff1663ffffffff1663ffffffff1681526020019081526020016000209050600282600101601c9054906101000a900463ffffffff1663ffffffff161461155a576040517f59f7b71200000000000000000000000000000000000000000000000000000000815260040160405180910390fd5b611571816009015461156c6000612420565b612382565b826002018190555061159081600a015461158b6000612420565b612382565b82600301819055506115b76115ad836006015483600501546122e1565b82600101546122f5565b81600d0181905550600382600101601c6101000a81548163ffffffff021916908363ffffffff16021790555050505050565b80600073ffffffffffffffffffffffffffffffffffffffff166006600083815260200190815260200160002060000160009054906101000a900473ffffffffffffffffffffffffffffffffffffffff1673ffffffffffffffffffffffffffffffffffffffff1603611686576040517f76ecffc000000000000000000000000000000000000000000000000000000000815260040160405180910390fd5b61168f826107b8565b6116988261050e565b6116a182611419565b6116aa8261025c565b5050565b81600073ffffffffffffffffffffffffffffffffffffffff166006600083815260200190815260200160002060000160009054906101000a900473ffffffffffffffffffffffffffffffffffffffff1673ffffffffffffffffffffffffffffffffffffffff160361174b576040517f76ecffc000000000000000000000000000000000000000000000000000000000815260040160405180910390fd5b82600060066000838152602001908152602001600020600101601c9054906101000a900463ffffffff1663ffffffff16146117b2576040517fde583b9800000000000000000000000000000000000000000000000000000000815260040160405180910390fd5b600060066000868152602001908152602001600020905060006117dd856117d8906136ac565b6124ad565b905061182a818360070160003373ffffffffffffffffffffffffffffffffffffffff1673ffffffffffffffffffffffffffffffffffffffff16815260200190815260200160002054612309565b9050600061184961183f83856002015461282b565b84600601546128a4565b9050600061186861185e84866003015461282b565b85600601546128a4565b90506118b58460070160003373ffffffffffffffffffffffffffffffffffffffff1673ffffffffffffffffffffffffffffffffffffffff1681526020019081526020016000205484612396565b8460070160003373ffffffffffffffffffffffffffffffffffffffff1673ffffffffffffffffffffffffffffffffffffffff16815260200190815260200160002081905550611908846006015484612396565b846006018190555061191e846002015483612396565b8460020181905550611934846003015482612396565b84600301819055506119e9600460003373ffffffffffffffffffffffffffffffffffffffff1673ffffffffffffffffffffffffffffffffffffffff16815260200190815260200160002060000160008660000160009054906101000a900473ffffffffffffffffffffffffffffffffffffffff1673ffffffffffffffffffffffffffffffffffffffff1673ffffffffffffffffffffffffffffffffffffffff1681526020019081526020016000205483612382565b600460003373ffffffffffffffffffffffffffffffffffffffff1673ffffffffffffffffffffffffffffffffffffffff16815260200190815260200160002060000160008660000160009054906101000a900473ffffffffffffffffffffffffffffffffffffffff1673ffffffffffffffffffffffffffffffffffffffff1673ffffffffffffffffffffffffffffffffffffffff16815260200190815260200160002081905550611b3d600460003373ffffffffffffffffffffffffffffffffffffffff1673ffffffffffffffffffffffffffffffffffffffff16815260200190815260200160002060000160008660010160009054906101000a900473ffffffffffffffffffffffffffffffffffffffff1673ffffffffffffffffffffffffffffffffffffffff1673ffffffffffffffffffffffffffffffffffffffff1681526020019081526020016000205482612382565b600460003373ffffffffffffffffffffffffffffffffffffffff1673ffffffffffffffffffffffffffffffffffffffff16815260200190815260200160002060000160008660010160009054906101000a900473ffffffffffffffffffffffffffffffffffffffff1673ffffffffffffffffffffffffffffffffffffffff1673ffffffffffffffffffffffffffffffffffffffff168152602001908152602001600020819055505050505050505050565b600060066000848152602001908152602001600020905060008160080160008463ffffffff1663ffffffff16815260200190815260200160002090508160010160149054906101000a900463ffffffff1663ffffffff168363ffffffff1610611c83576040517f756b785700000000000000000000000000000000000000000000000000000000815260040160405180910390fd5b8060000160003373ffffffffffffffffffffffffffffffffffffffff1673ffffffffffffffffffffffffffffffffffffffff16815260200190815260200160002060040160009054906101000a900460ff1615611d0c576040517f5fdb34e800000000000000000000000000000000000000000000000000000000815260040160405180910390fd5b60018160000160003373ffffffffffffffffffffffffffffffffffffffff1673ffffffffffffffffffffffffffffffffffffffff16815260200190815260200160002060040160006101000a81548160ff021916908315150217905550611d7433858561291d565b6000611ddb611dce8360000160003373ffffffffffffffffffffffffffffffffffffffff1673ffffffffffffffffffffffffffffffffffffffff1681526020019081526020016000206001015484600701600001546122e1565b83600701600101546122f5565b90506000611e44611e378460000160003373ffffffffffffffffffffffffffffffffffffffff1673ffffffffffffffffffffffffffffffffffffffff1681526020019081526020016000206000015485600701600101546122e1565b84600701600001546122f5565b9050611ef3600460003373ffffffffffffffffffffffffffffffffffffffff1673ffffffffffffffffffffffffffffffffffffffff16815260200190815260200160002060000160008660000160009054906101000a900473ffffffffffffffffffffffffffffffffffffffff1673ffffffffffffffffffffffffffffffffffffffff1673ffffffffffffffffffffffffffffffffffffffff1681526020019081526020016000205483612382565b600460003373ffffffffffffffffffffffffffffffffffffffff1673ffffffffffffffffffffffffffffffffffffffff16815260200190815260200160002060000160008660000160009054906101000a900473ffffffffffffffffffffffffffffffffffffffff1673ffffffffffffffffffffffffffffffffffffffff1673ffffffffffffffffffffffffffffffffffffffff16815260200190815260200160002081905550612047600460003373ffffffffffffffffffffffffffffffffffffffff1673ffffffffffffffffffffffffffffffffffffffff16815260200190815260200160002060000160008660010160009054906101000a900473ffffffffffffffffffffffffffffffffffffffff1673ffffffffffffffffffffffffffffffffffffffff1673ffffffffffffffffffffffffffffffffffffffff1681526020019081526020016000205482612382565b600460003373ffffffffffffffffffffffffffffffffffffffff1673ffffffffffffffffffffffffffffffffffffffff16815260200190815260200160002060000160008660010160009054906101000a900473ffffffffffffffffffffffffffffffffffffffff1673ffffffffffffffffffffffffffffffffffffffff1673ffffffffffffffffffffffffffffffffffffffff1681526020019081526020016000208190555060006121b661215261214886600d01548760000160003373ffffffffffffffffffffffffffffffffffffffff1673ffffffffffffffffffffffffffffffffffffffff168152602001908152602001600020600201546122e1565b86600501546122f5565b6121b16121a787600d01548860000160003373ffffffffffffffffffffffffffffffffffffffff1673ffffffffffffffffffffffffffffffffffffffff168152602001908152602001600020600301546122e1565b87600601546122f5565b612309565b90506122038560070160003073ffffffffffffffffffffffffffffffffffffffff1673ffffffffffffffffffffffffffffffffffffffff1681526020019081526020016000205482612396565b8560070160003073ffffffffffffffffffffffffffffffffffffffff1673ffffffffffffffffffffffffffffffffffffffff168152602001908152602001600020819055506122938560070160003373ffffffffffffffffffffffffffffffffffffffff1673ffffffffffffffffffffffffffffffffffffffff1681526020019081526020016000205482612382565b8560070160003373ffffffffffffffffffffffffffffffffffffffff1673ffffffffffffffffffffffffffffffffffffffff1681526020019081526020016000208190555050505050505050565b60006122ed838361282b565b905092915050565b600061230183836128a4565b905092915050565b600061231483612af3565b612325576123226000612420565b92505b61232e82612af3565b61233f5761233c6000612420565b91505b60008390506000839050600061237460028484608073ffffffffffffffffffffffffffffffffffffffff16635211c679612b00565b905080935050505092915050565b600061238e8383612b94565b905092915050565b60006123a28383612c0c565b905092915050565b60606123e060007f0000000000000000000000000000000000000000000000000000000000000000612c8590919063ffffffff16565b905090565b606061241b60017f0000000000000000000000000000000000000000000000000000000000000000612c8590919063ffffffff16565b905090565b600061242d826002612d35565b9050919050565b600061243f83612af3565b6124505761244d6000612420565b92505b61245982612af3565b61246a576124676000612420565b91505b60008390506000839050600061249f60028484608073ffffffffffffffffffffffffffffffffffffffff1663ae42450a612b00565b905080935050505092915050565b60006124bc8260000151612dd7565b9050919050565b60006124ce83612af3565b6124df576124dc6000612420565b92505b6124e882612af3565b6124f9576124f66000612420565b91505b60008390506000839050600061252e60028484608073ffffffffffffffffffffffffffffffffffffffff1663ae104cfd612b00565b905080935050505092915050565b600061254783612af3565b612558576125556000612420565b92505b61256182612af3565b6125725761256f6000612420565b91505b6000839050600083905060006125a760028484608073ffffffffffffffffffffffffffffffffffffffff16639944d12d612b00565b905080935050505092915050565b60006125c083612af3565b6125d1576125ce6000612420565b92505b6125da82612af3565b6125eb576125e86000612420565b91505b60008390506000839050600061262060028484608073ffffffffffffffffffffffffffffffffffffffff166392348b34612b00565b905080935050505092915050565b600061263984612deb565b61264a576126476000612df8565b93505b61265383612af3565b612664576126616000612420565b92505b61266d82612af3565b61267e5761267b6000612420565b91505b600084905060008490506000849050600061269c6002858585612e0c565b9050809450505050509392505050565b6000600460008573ffffffffffffffffffffffffffffffffffffffff1673ffffffffffffffffffffffffffffffffffffffff16815260200190815260200160002090506000805b826001018054905081101561279f5784836001018281548110612719576127186136e8565b5b90600052602060002090600202016000015414801561277a57508363ffffffff168360010182815481106127505761274f6136e8565b5b906000526020600020906002020160010160009054906101000a900463ffffffff1663ffffffff16145b1561279257818061278a90613717565b92505061279f565b80806001019150506126f3565b5060008103612824578160010160405180604001604052808681526020018563ffffffff1681525090806001815401808255809150506001900390600052602060002090600202016000909190919091506000820151816000015560208201518160010160006101000a81548163ffffffff021916908363ffffffff16021790555050505b5050505050565b600061283683612af3565b612847576128446000612420565b92505b61285082612af3565b6128615761285e6000612420565b91505b60008390506000839050600061289660028484608073ffffffffffffffffffffffffffffffffffffffff16634284f765612b00565b905080935050505092915050565b60006128af83612af3565b6128c0576128bd6000612420565b92505b6128c982612af3565b6128da576128d76000612420565b91505b60008390506000839050600061290f60028484608073ffffffffffffffffffffffffffffffffffffffff16631f4cda2f612b00565b905080935050505092915050565b6000600460008573ffffffffffffffffffffffffffffffffffffffff1673ffffffffffffffffffffffffffffffffffffffff168152602001908152602001600020905060005b8160010180549050811015612aec5783826001018281548110612989576129886136e8565b5b9060005260206000209060020201600001541480156129ea57508263ffffffff168260010182815481106129c0576129bf6136e8565b5b906000526020600020906002020160010160009054906101000a900463ffffffff1663ffffffff16145b15612adf578160010160018360010180549050612a07919061375f565b81548110612a1857612a176136e8565b5b9060005260206000209060020201826001018281548110612a3c57612a3b6136e8565b5b9060005260206000209060020201600082015481600001556001820160009054906101000a900463ffffffff168160010160006101000a81548163ffffffff021916908363ffffffff16021790555090505081600101805480612aa257612aa1613793565b5b60019003818190600052602060002090600202016000808201600090556001820160006101000a81549063ffffffff021916905550509055612aec565b8080600101915050612963565b5050505050565b6000808214159050919050565b60006060838388612b1089612ec4565b612b1989612ec4565b6040518463ffffffff1660e01b8152600401612b3793929190613833565b600060405180830381865afa158015612b54573d6000803e3d6000fd5b505050506040513d6000823e3d601f19601f82011682018060405250810190612b7d91906138e8565b9050612b8881612f21565b91505095945050505050565b6000612b9f83612af3565b612bb057612bad6000612420565b92505b612bb982612af3565b612bca57612bc76000612420565b91505b600083905060008390506000612bfe60028484608073ffffffffffffffffffffffffffffffffffffffff16622df619612b00565b905080935050505092915050565b6000612c1783612af3565b612c2857612c256000612420565b92505b612c3182612af3565b612c4257612c3f6000612420565b91505b600083905060008390506000612c7760028484608073ffffffffffffffffffffffffffffffffffffffff1663cc2cbeff612b00565b905080935050505092915050565b606060ff60001b8314612ca257612c9b83612f2f565b9050612d2f565b818054612cae90613960565b80601f0160208091040260200160405190810160405280929190818152602001828054612cda90613960565b8015612d275780601f10612cfc57610100808354040283529160200191612d27565b820191906000526020600020905b815481529060010190602001808311612d0a57829003601f168201915b505050505090505b92915050565b60006060608073ffffffffffffffffffffffffffffffffffffffff166319e1c5c4612d5f86612ec4565b856040518363ffffffff1660e01b8152600401612d7d929190613991565b600060405180830381865afa158015612d9a573d6000803e3d6000fd5b505050506040513d6000823e3d601f19601f82011682018060405250810190612dc391906138e8565b9050612dce81612fa3565b91505092915050565b6000612de4826002612fb1565b9050919050565b6000808214159050919050565b6000612e0582600d612d35565b9050919050565b60006060608073ffffffffffffffffffffffffffffffffffffffff1663c2d9695287612e3788612ec4565b612e4088612ec4565b612e4988612ec4565b6040518563ffffffff1660e01b8152600401612e6894939291906139c1565b600060405180830381865afa158015612e85573d6000803e3d6000fd5b505050506040513d6000823e3d601f19601f82011682018060405250810190612eae91906138e8565b9050612eb981612fa3565b915050949350505050565b6060602067ffffffffffffffff811115612ee157612ee0613515565b5b6040519080825280601f01601f191660200182016040528015612f135781602001600182028036833780820191505090505b509050816020820152919050565b600060208201519050919050565b60606000612f3c8361304b565b90506000602067ffffffffffffffff811115612f5b57612f5a613515565b5b6040519080825280601f01601f191660200182016040528015612f8d5781602001600182028036833780820191505090505b5090508181528360208201528092505050919050565b600060208201519050919050565b60006060608073ffffffffffffffffffffffffffffffffffffffff16635fa55ca784866040518363ffffffff1660e01b8152600401612ff1929190613a1b565b600060405180830381865afa15801561300e573d6000803e3d6000fd5b505050506040513d6000823e3d601f19601f8201168201806040525081019061303791906138e8565b905061304281612fa3565b91505092915050565b60008060ff8360001c169050601f811115613092576040517fb3512b0c00000000000000000000000000000000000000000000000000000000815260040160405180910390fd5b80915050919050565b6000604051905090565b600080fd5b600080fd5b6000819050919050565b6130c2816130af565b81146130cd57600080fd5b50565b6000813590506130df816130b9565b92915050565b600063ffffffff82169050919050565b6130fe816130e5565b811461310957600080fd5b50565b60008135905061311b816130f5565b92915050565b60008060408385031215613138576131376130a5565b5b6000613146858286016130d0565b92505060206131578582860161310c565b9150509250929050565b600060208284031215613177576131766130a5565b5b6000613185848285016130d0565b91505092915050565b60007fff0000000000000000000000000000000000000000000000000000000000000082169050919050565b6131c38161318e565b82525050565b600081519050919050565b600082825260208201905092915050565b60005b838110156132035780820151818401526020810190506131e8565b60008484015250505050565b6000601f19601f8301169050919050565b600061322b826131c9565b61323581856131d4565b93506132458185602086016131e5565b61324e8161320f565b840191505092915050565b6000819050919050565b61326c81613259565b82525050565b600073ffffffffffffffffffffffffffffffffffffffff82169050919050565b600061329d82613272565b9050919050565b6132ad81613292565b82525050565b6132bc816130af565b82525050565b600081519050919050565b600082825260208201905092915050565b6000819050602082019050919050565b6132f781613259565b82525050565b600061330983836132ee565b60208301905092915050565b6000602082019050919050565b600061332d826132c2565b61333781856132cd565b9350613342836132de565b8060005b8381101561337357815161335a88826132fd565b975061336583613315565b925050600181019050613346565b5085935050505092915050565b600060e082019050613395600083018a6131ba565b81810360208301526133a78189613220565b905081810360408301526133bb8188613220565b90506133ca6060830187613263565b6133d760808301866132a4565b6133e460a08301856132b3565b81810360c08301526133f68184613322565b905098975050505050505050565b600080fd5b60006020828403121561341f5761341e613404565b5b81905092915050565b6000806040838503121561343f5761343e6130a5565b5b600061344d858286016130d0565b925050602083013567ffffffffffffffff81111561346e5761346d6130aa565b5b61347a85828601613409565b9150509250929050565b61348d816130e5565b82525050565b60006020820190506134a86000830184613484565b92915050565b7f4e487b7100000000000000000000000000000000000000000000000000000000600052601160045260246000fd5b60006134e8826130e5565b91506134f3836130e5565b9250828201905063ffffffff81111561350f5761350e6134ae565b5b92915050565b7f4e487b7100000000000000000000000000000000000000000000000000000000600052604160045260246000fd5b600080fd5b6135528261320f565b810181811067ffffffffffffffff8211171561357157613570613515565b5b80604052505050565b600061358461309b565b90506135908282613549565b919050565b600080fd5b600080fd5b600080fd5b600067ffffffffffffffff8211156135bf576135be613515565b5b6135c88261320f565b9050602081019050919050565b82818337600083830152505050565b60006135f76135f2846135a4565b61357a565b9050828152602081018484840111156136135761361261359f565b5b61361e8482856135d5565b509392505050565b600082601f83011261363b5761363a61359a565b5b813561364b8482602086016135e4565b91505092915050565b60006020828403121561366a57613669613544565b5b613674602061357a565b9050600082013567ffffffffffffffff81111561369457613693613595565b5b6136a084828501613626565b60008301525092915050565b60006136b83683613654565b9050919050565b60006040820190506136d460008301856132b3565b6136e16020830184613484565b9392505050565b7f4e487b7100000000000000000000000000000000000000000000000000000000600052603260045260246000fd5b600061372282613259565b91507fffffffffffffffffffffffffffffffffffffffffffffffffffffffffffffffff8203613754576137536134ae565b5b600182019050919050565b600061376a82613259565b915061377583613259565b925082820390508181111561378d5761378c6134ae565b5b92915050565b7f4e487b7100000000000000000000000000000000000000000000000000000000600052603160045260246000fd5b600060ff82169050919050565b6137d8816137c2565b82525050565b600081519050919050565b600082825260208201905092915050565b6000613805826137de565b61380f81856137e9565b935061381f8185602086016131e5565b6138288161320f565b840191505092915050565b600060608201905061384860008301866137cf565b818103602083015261385a81856137fa565b9050818103604083015261386e81846137fa565b9050949350505050565b600061388b613886846135a4565b61357a565b9050828152602081018484840111156138a7576138a661359f565b5b6138b28482856131e5565b509392505050565b600082601f8301126138cf576138ce61359a565b5b81516138df848260208601613878565b91505092915050565b6000602082840312156138fe576138fd6130a5565b5b600082015167ffffffffffffffff81111561391c5761391b6130aa565b5b613928848285016138ba565b91505092915050565b7f4e487b7100000000000000000000000000000000000000000000000000000000600052602260045260246000fd5b6000600282049050600182168061397857607f821691505b60208210810361398b5761398a613931565b5b50919050565b600060408201905081810360008301526139ab81856137fa565b90506139ba60208301846137cf565b9392505050565b60006080820190506139d660008301876137cf565b81810360208301526139e881866137fa565b905081810360408301526139fc81856137fa565b90508181036060830152613a1081846137fa565b905095945050505050565b6000604082019050613a3060008301856137cf565b8181036020830152613a4281846137fa565b9050939250505056fea264697066735822122037420bff549aa15dd4e04e7b96c0f878a84a6bd745b2764f1d78b635288fdf3464736f6c63430008180033",
  "devdoc": {
    "events": {
      "EIP712DomainChanged()": {
        "details": "MAY be emitted to signal that the domain could have changed."
      }
    },
    "kind": "dev",
    "methods": {
      "eip712Domain()": {
        "details": "See {IERC-5267}."
      }
    },
    "version": 1
  },
  "userdoc": {
    "errors": {
      "SignerNotMessageSender()": [
        {
          "notice": "Emitted when the signer is not the message sender"
        }
      ],
      "SignerNotOwner()": [
        {
          "notice": "Emitted when the signer is not the specified owner"
        }
      ]
    },
    "kind": "user",
    "methods": {},
    "version": 1
  },
  "storageLayout": {
    "storage": [
      {
        "astId": 16568,
        "contract": "contracts/FugaziPoolActionFacet.sol:FugaziPoolActionFacet",
        "label": "_nameFallback",
        "offset": 0,
        "slot": "0",
        "type": "t_string_storage"
      },
      {
        "astId": 16570,
        "contract": "contracts/FugaziPoolActionFacet.sol:FugaziPoolActionFacet",
        "label": "_versionFallback",
        "offset": 0,
        "slot": "1",
        "type": "t_string_storage"
      },
      {
        "astId": 19907,
        "contract": "contracts/FugaziPoolActionFacet.sol:FugaziPoolActionFacet",
        "label": "owner",
        "offset": 0,
        "slot": "2",
        "type": "t_address"
      },
      {
        "astId": 19911,
        "contract": "contracts/FugaziPoolActionFacet.sol:FugaziPoolActionFacet",
        "label": "selectorTofacet",
        "offset": 0,
        "slot": "3",
        "type": "t_mapping(t_bytes4,t_address)"
      },
      {
        "astId": 19943,
        "contract": "contracts/FugaziPoolActionFacet.sol:FugaziPoolActionFacet",
        "label": "account",
        "offset": 0,
        "slot": "4",
        "type": "t_mapping(t_address,t_struct(accountStruct)19938_storage)"
      },
      {
        "astId": 20011,
        "contract": "contracts/FugaziPoolActionFacet.sol:FugaziPoolActionFacet",
        "label": "poolIdMapping",
        "offset": 0,
        "slot": "5",
        "type": "t_mapping(t_address,t_mapping(t_address,t_bytes32))"
      },
      {
        "astId": 20016,
        "contract": "contracts/FugaziPoolActionFacet.sol:FugaziPoolActionFacet",
        "label": "poolState",
        "offset": 0,
        "slot": "6",
        "type": "t_mapping(t_bytes32,t_struct(poolStateStruct)20002_storage)"
      },
      {
        "astId": 20140,
        "contract": "contracts/FugaziPoolActionFacet.sol:FugaziPoolActionFacet",
        "label": "epochTime",
        "offset": 0,
        "slot": "7",
        "type": "t_uint32"
      }
    ],
    "types": {
      "t_address": {
        "encoding": "inplace",
        "label": "address",
        "numberOfBytes": "20"
      },
      "t_array(t_struct(unclaimedOrderStruct)19928_storage)dyn_storage": {
        "base": "t_struct(unclaimedOrderStruct)19928_storage",
        "encoding": "dynamic_array",
        "label": "struct FugaziStorageLayout.unclaimedOrderStruct[]",
        "numberOfBytes": "32"
      },
      "t_bool": {
        "encoding": "inplace",
        "label": "bool",
        "numberOfBytes": "1"
      },
      "t_bytes32": {
        "encoding": "inplace",
        "label": "bytes32",
        "numberOfBytes": "32"
      },
      "t_bytes4": {
        "encoding": "inplace",
        "label": "bytes4",
        "numberOfBytes": "4"
      },
      "t_mapping(t_address,t_bytes32)": {
        "encoding": "mapping",
        "key": "t_address",
        "label": "mapping(address => bytes32)",
        "numberOfBytes": "32",
        "value": "t_bytes32"
      },
      "t_mapping(t_address,t_mapping(t_address,t_bytes32))": {
        "encoding": "mapping",
        "key": "t_address",
        "label": "mapping(address => mapping(address => bytes32))",
        "numberOfBytes": "32",
        "value": "t_mapping(t_address,t_bytes32)"
      },
      "t_mapping(t_address,t_struct(accountStruct)19938_storage)": {
        "encoding": "mapping",
        "key": "t_address",
        "label": "mapping(address => struct FugaziStorageLayout.accountStruct)",
        "numberOfBytes": "32",
        "value": "t_struct(accountStruct)19938_storage"
      },
      "t_mapping(t_address,t_struct(orderStruct)20130_storage)": {
        "encoding": "mapping",
        "key": "t_address",
        "label": "mapping(address => struct FugaziStorageLayout.orderStruct)",
        "numberOfBytes": "32",
        "value": "t_struct(orderStruct)20130_storage"
      },
      "t_mapping(t_address,t_userDefinedValueType(euint32)12)": {
        "encoding": "mapping",
        "key": "t_address",
        "label": "mapping(address => euint32)",
        "numberOfBytes": "32",
        "value": "t_userDefinedValueType(euint32)12"
      },
      "t_mapping(t_bytes32,t_struct(poolStateStruct)20002_storage)": {
        "encoding": "mapping",
        "key": "t_bytes32",
        "label": "mapping(bytes32 => struct FugaziStorageLayout.poolStateStruct)",
        "numberOfBytes": "32",
        "value": "t_struct(poolStateStruct)20002_storage"
      },
      "t_mapping(t_bytes4,t_address)": {
        "encoding": "mapping",
        "key": "t_bytes4",
        "label": "mapping(bytes4 => address)",
        "numberOfBytes": "32",
        "value": "t_address"
      },
      "t_mapping(t_uint32,t_struct(batchStruct)20115_storage)": {
        "encoding": "mapping",
        "key": "t_uint32",
        "label": "mapping(uint32 => struct FugaziStorageLayout.batchStruct)",
        "numberOfBytes": "32",
        "value": "t_struct(batchStruct)20115_storage"
      },
      "t_string_storage": {
        "encoding": "bytes",
        "label": "string",
        "numberOfBytes": "32"
      },
      "t_struct(accountStruct)19938_storage": {
        "encoding": "inplace",
        "label": "struct FugaziStorageLayout.accountStruct",
        "members": [
          {
            "astId": 19933,
            "contract": "contracts/FugaziPoolActionFacet.sol:FugaziPoolActionFacet",
            "label": "balanceOf",
            "offset": 0,
            "slot": "0",
            "type": "t_mapping(t_address,t_userDefinedValueType(euint32)12)"
          },
          {
            "astId": 19937,
            "contract": "contracts/FugaziPoolActionFacet.sol:FugaziPoolActionFacet",
            "label": "unclaimedOrders",
            "offset": 0,
            "slot": "1",
            "type": "t_array(t_struct(unclaimedOrderStruct)19928_storage)dyn_storage"
          }
        ],
        "numberOfBytes": "64"
      },
      "t_struct(batchStruct)20115_storage": {
        "encoding": "inplace",
        "label": "struct FugaziStorageLayout.batchStruct",
        "members": [
          {
            "astId": 20078,
            "contract": "contracts/FugaziPoolActionFacet.sol:FugaziPoolActionFacet",
            "label": "order",
            "offset": 0,
            "slot": "0",
            "type": "t_mapping(t_address,t_struct(orderStruct)20130_storage)"
          },
          {
            "astId": 20081,
            "contract": "contracts/FugaziPoolActionFacet.sol:FugaziPoolActionFacet",
            "label": "reserveX0",
            "offset": 0,
            "slot": "1",
            "type": "t_userDefinedValueType(euint32)12"
          },
          {
            "astId": 20084,
            "contract": "contracts/FugaziPoolActionFacet.sol:FugaziPoolActionFacet",
            "label": "reserveY0",
            "offset": 0,
            "slot": "2",
            "type": "t_userDefinedValueType(euint32)12"
          },
          {
            "astId": 20087,
            "contract": "contracts/FugaziPoolActionFacet.sol:FugaziPoolActionFacet",
            "label": "swapX",
            "offset": 0,
            "slot": "3",
            "type": "t_userDefinedValueType(euint32)12"
          },
          {
            "astId": 20090,
            "contract": "contracts/FugaziPoolActionFacet.sol:FugaziPoolActionFacet",
            "label": "swapY",
            "offset": 0,
            "slot": "4",
            "type": "t_userDefinedValueType(euint32)12"
          },
          {
            "astId": 20093,
            "contract": "contracts/FugaziPoolActionFacet.sol:FugaziPoolActionFacet",
            "label": "mintX",
            "offset": 0,
            "slot": "5",
            "type": "t_userDefinedValueType(euint32)12"
          },
          {
            "astId": 20096,
            "contract": "contracts/FugaziPoolActionFacet.sol:FugaziPoolActionFacet",
            "label": "mintY",
            "offset": 0,
            "slot": "6",
            "type": "t_userDefinedValueType(euint32)12"
          },
          {
            "astId": 20099,
            "contract": "contracts/FugaziPoolActionFacet.sol:FugaziPoolActionFacet",
            "label": "intermidiateValues",
            "offset": 0,
            "slot": "7",
            "type": "t_struct(intermidiateValuesStruct)20137_storage"
          },
          {
            "astId": 20102,
            "contract": "contracts/FugaziPoolActionFacet.sol:FugaziPoolActionFacet",
            "label": "reserveX1",
            "offset": 0,
            "slot": "9",
            "type": "t_userDefinedValueType(euint32)12"
          },
          {
            "astId": 20105,
            "contract": "contracts/FugaziPoolActionFacet.sol:FugaziPoolActionFacet",
            "label": "reserveY1",
            "offset": 0,
            "slot": "10",
            "type": "t_userDefinedValueType(euint32)12"
          },
          {
            "astId": 20108,
            "contract": "contracts/FugaziPoolActionFacet.sol:FugaziPoolActionFacet",
            "label": "outX",
            "offset": 0,
            "slot": "11",
            "type": "t_userDefinedValueType(euint32)12"
          },
          {
            "astId": 20111,
            "contract": "contracts/FugaziPoolActionFacet.sol:FugaziPoolActionFacet",
            "label": "outY",
            "offset": 0,
            "slot": "12",
            "type": "t_userDefinedValueType(euint32)12"
          },
          {
            "astId": 20114,
            "contract": "contracts/FugaziPoolActionFacet.sol:FugaziPoolActionFacet",
            "label": "lpIncrement",
            "offset": 0,
            "slot": "13",
            "type": "t_userDefinedValueType(euint32)12"
          }
        ],
        "numberOfBytes": "448"
      },
      "t_struct(intermidiateValuesStruct)20137_storage": {
        "encoding": "inplace",
        "label": "struct FugaziStorageLayout.intermidiateValuesStruct",
        "members": [
          {
            "astId": 20133,
            "contract": "contracts/FugaziPoolActionFacet.sol:FugaziPoolActionFacet",
            "label": "XForPricing",
            "offset": 0,
            "slot": "0",
            "type": "t_userDefinedValueType(euint32)12"
          },
          {
            "astId": 20136,
            "contract": "contracts/FugaziPoolActionFacet.sol:FugaziPoolActionFacet",
            "label": "YForPricing",
            "offset": 0,
            "slot": "1",
            "type": "t_userDefinedValueType(euint32)12"
          }
        ],
        "numberOfBytes": "64"
      },
      "t_struct(orderStruct)20130_storage": {
        "encoding": "inplace",
        "label": "struct FugaziStorageLayout.orderStruct",
        "members": [
          {
            "astId": 20118,
            "contract": "contracts/FugaziPoolActionFacet.sol:FugaziPoolActionFacet",
            "label": "swapX",
            "offset": 0,
            "slot": "0",
            "type": "t_userDefinedValueType(euint32)12"
          },
          {
            "astId": 20121,
            "contract": "contracts/FugaziPoolActionFacet.sol:FugaziPoolActionFacet",
            "label": "swapY",
            "offset": 0,
            "slot": "1",
            "type": "t_userDefinedValueType(euint32)12"
          },
          {
            "astId": 20124,
            "contract": "contracts/FugaziPoolActionFacet.sol:FugaziPoolActionFacet",
            "label": "mintX",
            "offset": 0,
            "slot": "2",
            "type": "t_userDefinedValueType(euint32)12"
          },
          {
            "astId": 20127,
            "contract": "contracts/FugaziPoolActionFacet.sol:FugaziPoolActionFacet",
            "label": "mintY",
            "offset": 0,
            "slot": "3",
            "type": "t_userDefinedValueType(euint32)12"
          },
          {
            "astId": 20129,
            "contract": "contracts/FugaziPoolActionFacet.sol:FugaziPoolActionFacet",
            "label": "claimed",
            "offset": 0,
            "slot": "4",
            "type": "t_bool"
          }
        ],
        "numberOfBytes": "160"
      },
      "t_struct(poolStateStruct)20002_storage": {
        "encoding": "inplace",
        "label": "struct FugaziStorageLayout.poolStateStruct",
        "members": [
          {
            "astId": 19968,
            "contract": "contracts/FugaziPoolActionFacet.sol:FugaziPoolActionFacet",
            "label": "tokenX",
            "offset": 0,
            "slot": "0",
            "type": "t_address"
          },
          {
            "astId": 19970,
            "contract": "contracts/FugaziPoolActionFacet.sol:FugaziPoolActionFacet",
            "label": "tokenY",
            "offset": 0,
            "slot": "1",
            "type": "t_address"
          },
          {
            "astId": 19972,
            "contract": "contracts/FugaziPoolActionFacet.sol:FugaziPoolActionFacet",
            "label": "epoch",
            "offset": 20,
            "slot": "1",
            "type": "t_uint32"
          },
          {
            "astId": 19974,
            "contract": "contracts/FugaziPoolActionFacet.sol:FugaziPoolActionFacet",
            "label": "lastSettlement",
            "offset": 24,
            "slot": "1",
            "type": "t_uint32"
          },
          {
            "astId": 19976,
            "contract": "contracts/FugaziPoolActionFacet.sol:FugaziPoolActionFacet",
            "label": "settlementStep",
            "offset": 28,
            "slot": "1",
            "type": "t_uint32"
          },
          {
            "astId": 19979,
            "contract": "contracts/FugaziPoolActionFacet.sol:FugaziPoolActionFacet",
            "label": "reserveX",
            "offset": 0,
            "slot": "2",
            "type": "t_userDefinedValueType(euint32)12"
          },
          {
            "astId": 19982,
            "contract": "contracts/FugaziPoolActionFacet.sol:FugaziPoolActionFacet",
            "label": "reserveY",
            "offset": 0,
            "slot": "3",
            "type": "t_userDefinedValueType(euint32)12"
          },
          {
            "astId": 19985,
            "contract": "contracts/FugaziPoolActionFacet.sol:FugaziPoolActionFacet",
            "label": "protocolX",
            "offset": 0,
            "slot": "4",
            "type": "t_userDefinedValueType(euint32)12"
          },
          {
            "astId": 19988,
            "contract": "contracts/FugaziPoolActionFacet.sol:FugaziPoolActionFacet",
            "label": "protocolY",
            "offset": 0,
            "slot": "5",
            "type": "t_userDefinedValueType(euint32)12"
          },
          {
            "astId": 19991,
            "contract": "contracts/FugaziPoolActionFacet.sol:FugaziPoolActionFacet",
            "label": "lpTotalSupply",
            "offset": 0,
            "slot": "6",
            "type": "t_userDefinedValueType(euint32)12"
          },
          {
            "astId": 19996,
            "contract": "contracts/FugaziPoolActionFacet.sol:FugaziPoolActionFacet",
            "label": "lpBalanceOf",
            "offset": 0,
            "slot": "7",
            "type": "t_mapping(t_address,t_userDefinedValueType(euint32)12)"
          },
          {
            "astId": 20001,
            "contract": "contracts/FugaziPoolActionFacet.sol:FugaziPoolActionFacet",
            "label": "batch",
            "offset": 0,
            "slot": "8",
            "type": "t_mapping(t_uint32,t_struct(batchStruct)20115_storage)"
          }
        ],
        "numberOfBytes": "288"
      },
      "t_struct(unclaimedOrderStruct)19928_storage": {
        "encoding": "inplace",
        "label": "struct FugaziStorageLayout.unclaimedOrderStruct",
        "members": [
          {
            "astId": 19925,
            "contract": "contracts/FugaziPoolActionFacet.sol:FugaziPoolActionFacet",
            "label": "poolId",
            "offset": 0,
            "slot": "0",
            "type": "t_bytes32"
          },
          {
            "astId": 19927,
            "contract": "contracts/FugaziPoolActionFacet.sol:FugaziPoolActionFacet",
            "label": "epoch",
            "offset": 0,
            "slot": "1",
            "type": "t_uint32"
          }
        ],
        "numberOfBytes": "64"
      },
      "t_uint32": {
        "encoding": "inplace",
        "label": "uint32",
        "numberOfBytes": "4"
      },
      "t_userDefinedValueType(euint32)12": {
        "encoding": "inplace",
        "label": "euint32",
        "numberOfBytes": "32"
      }
    }
  }
}