{
  "address": "0xdC7bDCA96Ab1ca00588D7A8B9cb7D893dF120E47",
  "abi": [
    {
      "inputs": [],
      "name": "ECDSAInvalidSignature",
      "type": "error"
    },
    {
      "inputs": [
        {
          "internalType": "uint256",
          "name": "length",
          "type": "uint256"
        }
      ],
      "name": "ECDSAInvalidSignatureLength",
      "type": "error"
    },
    {
      "inputs": [
        {
          "internalType": "bytes32",
          "name": "s",
          "type": "bytes32"
        }
      ],
      "name": "ECDSAInvalidSignatureS",
      "type": "error"
    },
    {
      "inputs": [],
      "name": "EpochNotEnded",
      "type": "error"
    },
    {
      "inputs": [],
      "name": "InvalidShortString",
      "type": "error"
    },
    {
      "inputs": [],
      "name": "OrderAlreadyClaimed",
      "type": "error"
    },
    {
      "inputs": [],
      "name": "PoolAlreadyExists",
      "type": "error"
    },
    {
      "inputs": [],
      "name": "PoolNotFound",
      "type": "error"
    },
    {
      "inputs": [],
      "name": "SignerNotMessageSender",
      "type": "error"
    },
    {
      "inputs": [],
      "name": "SignerNotOwner",
      "type": "error"
    },
    {
      "inputs": [
        {
          "internalType": "string",
          "name": "str",
          "type": "string"
        }
      ],
      "name": "StringTooLong",
      "type": "error"
    },
    {
      "inputs": [],
      "name": "noCorrespondingFacet",
      "type": "error"
    },
    {
      "inputs": [],
      "name": "notOwner",
      "type": "error"
    },
    {
      "anonymous": false,
      "inputs": [
        {
          "indexed": false,
          "internalType": "address",
          "name": "recipient",
          "type": "address"
        },
        {
          "indexed": false,
          "internalType": "address",
          "name": "token",
          "type": "address"
        }
      ],
      "name": "Deposit",
      "type": "event"
    },
    {
      "anonymous": false,
      "inputs": [],
      "name": "EIP712DomainChanged",
      "type": "event"
    },
    {
      "anonymous": false,
      "inputs": [
        {
          "indexed": false,
          "internalType": "address",
          "name": "tokenX",
          "type": "address"
        },
        {
          "indexed": false,
          "internalType": "address",
          "name": "tokenY",
          "type": "address"
        },
        {
          "indexed": false,
          "internalType": "bytes32",
          "name": "poolId",
          "type": "bytes32"
        }
      ],
      "name": "PoolCreated",
      "type": "event"
    },
    {
      "anonymous": false,
      "inputs": [
        {
          "indexed": false,
          "internalType": "address",
          "name": "recipient",
          "type": "address"
        },
        {
          "indexed": false,
          "internalType": "address",
          "name": "token",
          "type": "address"
        }
      ],
      "name": "Withdraw",
      "type": "event"
    },
    {
      "anonymous": false,
      "inputs": [
        {
          "indexed": false,
          "internalType": "bytes32",
          "name": "poolId",
          "type": "bytes32"
        },
        {
          "indexed": false,
          "internalType": "uint32",
          "name": "epoch",
          "type": "uint32"
        }
      ],
      "name": "epochSettled",
      "type": "event"
    },
    {
      "inputs": [],
      "name": "eip712Domain",
      "outputs": [
        {
          "internalType": "bytes1",
          "name": "fields",
          "type": "bytes1"
        },
        {
          "internalType": "string",
          "name": "name",
          "type": "string"
        },
        {
          "internalType": "string",
          "name": "version",
          "type": "string"
        },
        {
          "internalType": "uint256",
          "name": "chainId",
          "type": "uint256"
        },
        {
          "internalType": "address",
          "name": "verifyingContract",
          "type": "address"
        },
        {
          "internalType": "bytes32",
          "name": "salt",
          "type": "bytes32"
        },
        {
          "internalType": "uint256[]",
          "name": "extensions",
          "type": "uint256[]"
        }
      ],
      "stateMutability": "view",
      "type": "function"
    },
    {
      "inputs": [
        {
          "internalType": "address",
          "name": "token",
          "type": "address"
        },
        {
          "components": [
            {
              "internalType": "bytes32",
              "name": "publicKey",
              "type": "bytes32"
            },
            {
              "internalType": "bytes",
              "name": "signature",
              "type": "bytes"
            }
          ],
          "internalType": "struct Permission",
          "name": "permission",
          "type": "tuple"
        }
      ],
      "name": "getBalance",
      "outputs": [
        {
          "internalType": "string",
          "name": "",
          "type": "string"
        }
      ],
      "stateMutability": "view",
      "type": "function"
    }
  ],
  "transactionHash": "0x9e9d716d31de2ed58abda3886ec1ec9a590079de63aab98723e7789aea455747",
  "args": [],
  "numDeployments": 1,
  "solcInputHash": "e9096ae6c71fca7d2b60d520ef89aa46",
  "bytecode": "0x610160604052600a600560006101000a81548163ffffffff021916908363ffffffff160217905550603c600860006101000a81548163ffffffff021916908363ffffffff1602179055503480156200005657600080fd5b506040518060400160405280601181526020017f4668656e6978205065726d697373696f6e0000000000000000000000000000008152506040518060400160405280600381526020017f312e300000000000000000000000000000000000000000000000000000000000815250620000d96000836200017960201b90919060201c565b6101208181525050620000f76001826200017960201b90919060201c565b6101408181525050818051906020012060e08181525050808051906020012061010081815250504660a0818152505062000136620001d160201b60201c565b608081815250503073ffffffffffffffffffffffffffffffffffffffff1660c08173ffffffffffffffffffffffffffffffffffffffff1681525050505062000829565b60006020835110156200019f5762000197836200022e60201b60201c565b9050620001cb565b82620001b1836200029b60201b60201c565b6000019081620001c291906200051f565b5060ff60001b90505b92915050565b60007f8b73c3c69bb8fe3d512ecc4cf759cc79239f7b179b0ffacaa9a75d522b39400f60e0516101005146306040516020016200021395949392919062000677565b60405160208183030381529060405280519060200120905090565b600080829050601f815111156200027e57826040517f305a27a900000000000000000000000000000000000000000000000000000000815260040162000275919062000763565b60405180910390fd5b8051816200028c90620007b9565b60001c1760001b915050919050565b6000819050919050565b600081519050919050565b7f4e487b7100000000000000000000000000000000000000000000000000000000600052604160045260246000fd5b7f4e487b7100000000000000000000000000000000000000000000000000000000600052602260045260246000fd5b600060028204905060018216806200032757607f821691505b6020821081036200033d576200033c620002df565b5b50919050565b60008190508160005260206000209050919050565b60006020601f8301049050919050565b600082821b905092915050565b600060088302620003a77fffffffffffffffffffffffffffffffffffffffffffffffffffffffffffffffff8262000368565b620003b3868362000368565b95508019841693508086168417925050509392505050565b6000819050919050565b6000819050919050565b600062000400620003fa620003f484620003cb565b620003d5565b620003cb565b9050919050565b6000819050919050565b6200041c83620003df565b620004346200042b8262000407565b84845462000375565b825550505050565b600090565b6200044b6200043c565b6200045881848462000411565b505050565b5b8181101562000480576200047460008262000441565b6001810190506200045e565b5050565b601f821115620004cf57620004998162000343565b620004a48462000358565b81016020851015620004b4578190505b620004cc620004c38562000358565b8301826200045d565b50505b505050565b600082821c905092915050565b6000620004f460001984600802620004d4565b1980831691505092915050565b60006200050f8383620004e1565b9150826002028217905092915050565b6200052a82620002a5565b67ffffffffffffffff811115620005465762000545620002b0565b5b6200055282546200030e565b6200055f82828562000484565b600060209050601f83116001811462000597576000841562000582578287015190505b6200058e858262000501565b865550620005fe565b601f198416620005a78662000343565b60005b82811015620005d157848901518255600182019150602085019450602081019050620005aa565b86831015620005f15784890151620005ed601f891682620004e1565b8355505b6001600288020188555050505b505050505050565b6000819050919050565b6200061b8162000606565b82525050565b6200062c81620003cb565b82525050565b600073ffffffffffffffffffffffffffffffffffffffff82169050919050565b60006200065f8262000632565b9050919050565b620006718162000652565b82525050565b600060a0820190506200068e600083018862000610565b6200069d602083018762000610565b620006ac604083018662000610565b620006bb606083018562000621565b620006ca608083018462000666565b9695505050505050565b600082825260208201905092915050565b60005b8381101562000705578082015181840152602081019050620006e8565b60008484015250505050565b6000601f19601f8301169050919050565b60006200072f82620002a5565b6200073b8185620006d4565b93506200074d818560208601620006e5565b620007588162000711565b840191505092915050565b600060208201905081810360008301526200077f818462000722565b905092915050565b600081519050919050565b6000819050602082019050919050565b6000620007b0825162000606565b80915050919050565b6000620007c68262000787565b82620007d28462000792565b9050620007df81620007a2565b9250602082101562000822576200081d7fffffffffffffffffffffffffffffffffffffffffffffffffffffffffffffffff8360200360080262000368565b831692505b5050919050565b60805160a05160c05160e0516101005161012051610140516114c6620008846000396000610364015260006103290152600061081b015260006107fa0152600061039a015260006103f00152600061041901526114c66000f3fe608060405234801561001057600080fd5b50600436106100365760003560e01c806308b3f6501461003b57806384b0196e1461006b575b600080fd5b61005560048036038101906100509190610d94565b61008f565b6040516100629190610e6f565b60405180910390f35b6100736101fa565b6040516100869796959493929190610fc1565b60405180910390f35b60608160006100e97f6bdaeb2d29561f159c7ef98b16b27015fb2aeb87209c7ee656226d912f59927d83600001516040516020016100ce929190611045565b604051602081830303815290604052805190602001206102a4565b905060006100fb8284602001516102be565b90503373ffffffffffffffffffffffffffffffffffffffff168173ffffffffffffffffffffffffffffffffffffffff1614610162576040517f3093a27700000000000000000000000000000000000000000000000000000000815260040160405180910390fd5b6101ef600460003373ffffffffffffffffffffffffffffffffffffffff1673ffffffffffffffffffffffffffffffffffffffff16815260200190815260200160002060000160008873ffffffffffffffffffffffffffffffffffffffff1673ffffffffffffffffffffffffffffffffffffffff1681526020019081526020016000205486600001516102ea565b935050505092915050565b60006060806000806000606061020e610320565b61021661035b565b46306000801b600067ffffffffffffffff81111561023757610236610bb8565b5b6040519080825280602002602001820160405280156102655781602001602082028036833780820191505090505b507f0f00000000000000000000000000000000000000000000000000000000000000959493929190965096509650965096509650965090919293949596565b60006102b76102b1610396565b8361044d565b9050919050565b6000806000806102ce868661048e565b9250925092506102de82826104ea565b82935050505092915050565b60606102f58361064e565b61030657610303600061065b565b92505b60008390506103176002828561066f565b91505092915050565b606061035660007f000000000000000000000000000000000000000000000000000000000000000061072590919063ffffffff16565b905090565b606061039160017f000000000000000000000000000000000000000000000000000000000000000061072590919063ffffffff16565b905090565b60007f000000000000000000000000000000000000000000000000000000000000000073ffffffffffffffffffffffffffffffffffffffff163073ffffffffffffffffffffffffffffffffffffffff1614801561041257507f000000000000000000000000000000000000000000000000000000000000000046145b1561043f577f0000000000000000000000000000000000000000000000000000000000000000905061044a565b6104476107d5565b90505b90565b60006040517f190100000000000000000000000000000000000000000000000000000000000081528360028201528260228201526042812091505092915050565b600080600060418451036104d35760008060006020870151925060408701519150606087015160001a90506104c58882858561086b565b9550955095505050506104e3565b60006002855160001b9250925092505b9250925092565b600060038111156104fe576104fd61106e565b5b8260038111156105115761051061106e565b5b031561064a576001600381111561052b5761052a61106e565b5b82600381111561053e5761053d61106e565b5b03610575576040517ff645eedf00000000000000000000000000000000000000000000000000000000815260040160405180910390fd5b600260038111156105895761058861106e565b5b82600381111561059c5761059b61106e565b5b036105e1578060001c6040517ffce698f70000000000000000000000000000000000000000000000000000000081526004016105d8919061109d565b60405180910390fd5b6003808111156105f4576105f361106e565b5b8260038111156106075761060661106e565b5b0361064957806040517fd78bce0c00000000000000000000000000000000000000000000000000000000815260040161064091906110b8565b60405180910390fd5b5b5050565b6000808214159050919050565b600061066882600261095f565b9050919050565b6060608073ffffffffffffffffffffffffffffffffffffffff1663a1848ff38561069886610a01565b856040516020016106a991906110f4565b6040516020818303038152906040526040518463ffffffff1660e01b81526004016106d693929190611180565b600060405180830381865afa1580156106f3573d6000803e3d6000fd5b505050506040513d6000823e3d601f19601f8201168201806040525081019061071c9190611266565b90509392505050565b606060ff60001b83146107425761073b83610a5e565b90506107cf565b81805461074e906112de565b80601f016020809104026020016040519081016040528092919081815260200182805461077a906112de565b80156107c75780601f1061079c576101008083540402835291602001916107c7565b820191906000526020600020905b8154815290600101906020018083116107aa57829003601f168201915b505050505090505b92915050565b60007f8b73c3c69bb8fe3d512ecc4cf759cc79239f7b179b0ffacaa9a75d522b39400f7f00000000000000000000000000000000000000000000000000000000000000007f0000000000000000000000000000000000000000000000000000000000000000463060405160200161085095949392919061130f565b60405160208183030381529060405280519060200120905090565b60008060007f7fffffffffffffffffffffffffffffff5d576e7357a4501ddfe92f46681b20a08460001c11156108ab576000600385925092509250610955565b6000600188888888604051600081526020016040526040516108d09493929190611362565b6020604051602081039080840390855afa1580156108f2573d6000803e3d6000fd5b505050602060405103519050600073ffffffffffffffffffffffffffffffffffffffff168173ffffffffffffffffffffffffffffffffffffffff160361094657600060016000801b93509350935050610955565b8060008060001b935093509350505b9450945094915050565b60006060608073ffffffffffffffffffffffffffffffffffffffff166319e1c5c461098986610a01565b856040518363ffffffff1660e01b81526004016109a79291906113a7565b600060405180830381865afa1580156109c4573d6000803e3d6000fd5b505050506040513d6000823e3d601f19601f820116820180604052508101906109ed9190611447565b90506109f881610ad2565b91505092915050565b6060602067ffffffffffffffff811115610a1e57610a1d610bb8565b5b6040519080825280601f01601f191660200182016040528015610a505781602001600182028036833780820191505090505b509050816020820152919050565b60606000610a6b83610ae0565b90506000602067ffffffffffffffff811115610a8a57610a89610bb8565b5b6040519080825280601f01601f191660200182016040528015610abc5781602001600182028036833780820191505090505b5090508181528360208201528092505050919050565b600060208201519050919050565b60008060ff8360001c169050601f811115610b27576040517fb3512b0c00000000000000000000000000000000000000000000000000000000815260040160405180910390fd5b80915050919050565b6000604051905090565b600080fd5b600080fd5b600073ffffffffffffffffffffffffffffffffffffffff82169050919050565b6000610b6f82610b44565b9050919050565b610b7f81610b64565b8114610b8a57600080fd5b50565b600081359050610b9c81610b76565b92915050565b600080fd5b6000601f19601f8301169050919050565b7f4e487b7100000000000000000000000000000000000000000000000000000000600052604160045260246000fd5b610bf082610ba7565b810181811067ffffffffffffffff82111715610c0f57610c0e610bb8565b5b80604052505050565b6000610c22610b30565b9050610c2e8282610be7565b919050565b600080fd5b6000819050919050565b610c4b81610c38565b8114610c5657600080fd5b50565b600081359050610c6881610c42565b92915050565b600080fd5b600080fd5b600067ffffffffffffffff821115610c9357610c92610bb8565b5b610c9c82610ba7565b9050602081019050919050565b82818337600083830152505050565b6000610ccb610cc684610c78565b610c18565b905082815260208101848484011115610ce757610ce6610c73565b5b610cf2848285610ca9565b509392505050565b600082601f830112610d0f57610d0e610c6e565b5b8135610d1f848260208601610cb8565b91505092915050565b600060408284031215610d3e57610d3d610ba2565b5b610d486040610c18565b90506000610d5884828501610c59565b600083015250602082013567ffffffffffffffff811115610d7c57610d7b610c33565b5b610d8884828501610cfa565b60208301525092915050565b60008060408385031215610dab57610daa610b3a565b5b6000610db985828601610b8d565b925050602083013567ffffffffffffffff811115610dda57610dd9610b3f565b5b610de685828601610d28565b9150509250929050565b600081519050919050565b600082825260208201905092915050565b60005b83811015610e2a578082015181840152602081019050610e0f565b60008484015250505050565b6000610e4182610df0565b610e4b8185610dfb565b9350610e5b818560208601610e0c565b610e6481610ba7565b840191505092915050565b60006020820190508181036000830152610e898184610e36565b905092915050565b60007fff0000000000000000000000000000000000000000000000000000000000000082169050919050565b610ec681610e91565b82525050565b6000819050919050565b610edf81610ecc565b82525050565b610eee81610b64565b82525050565b610efd81610c38565b82525050565b600081519050919050565b600082825260208201905092915050565b6000819050602082019050919050565b610f3881610ecc565b82525050565b6000610f4a8383610f2f565b60208301905092915050565b6000602082019050919050565b6000610f6e82610f03565b610f788185610f0e565b9350610f8383610f1f565b8060005b83811015610fb4578151610f9b8882610f3e565b9750610fa683610f56565b925050600181019050610f87565b5085935050505092915050565b600060e082019050610fd6600083018a610ebd565b8181036020830152610fe88189610e36565b90508181036040830152610ffc8188610e36565b905061100b6060830187610ed6565b6110186080830186610ee5565b61102560a0830185610ef4565b81810360c08301526110378184610f63565b905098975050505050505050565b600060408201905061105a6000830185610ef4565b6110676020830184610ef4565b9392505050565b7f4e487b7100000000000000000000000000000000000000000000000000000000600052602160045260246000fd5b60006020820190506110b26000830184610ed6565b92915050565b60006020820190506110cd6000830184610ef4565b92915050565b6000819050919050565b6110ee6110e982610c38565b6110d3565b82525050565b600061110082846110dd565b60208201915081905092915050565b600060ff82169050919050565b6111258161110f565b82525050565b600081519050919050565b600082825260208201905092915050565b60006111528261112b565b61115c8185611136565b935061116c818560208601610e0c565b61117581610ba7565b840191505092915050565b6000606082019050611195600083018661111c565b81810360208301526111a78185611147565b905081810360408301526111bb8184611147565b9050949350505050565b600067ffffffffffffffff8211156111e0576111df610bb8565b5b6111e982610ba7565b9050602081019050919050565b6000611209611204846111c5565b610c18565b90508281526020810184848401111561122557611224610c73565b5b611230848285610e0c565b509392505050565b600082601f83011261124d5761124c610c6e565b5b815161125d8482602086016111f6565b91505092915050565b60006020828403121561127c5761127b610b3a565b5b600082015167ffffffffffffffff81111561129a57611299610b3f565b5b6112a684828501611238565b91505092915050565b7f4e487b7100000000000000000000000000000000000000000000000000000000600052602260045260246000fd5b600060028204905060018216806112f657607f821691505b602082108103611309576113086112af565b5b50919050565b600060a0820190506113246000830188610ef4565b6113316020830187610ef4565b61133e6040830186610ef4565b61134b6060830185610ed6565b6113586080830184610ee5565b9695505050505050565b60006080820190506113776000830187610ef4565b611384602083018661111c565b6113916040830185610ef4565b61139e6060830184610ef4565b95945050505050565b600060408201905081810360008301526113c18185611147565b90506113d0602083018461111c565b9392505050565b60006113ea6113e584610c78565b610c18565b90508281526020810184848401111561140657611405610c73565b5b611411848285610e0c565b509392505050565b600082601f83011261142e5761142d610c6e565b5b815161143e8482602086016113d7565b91505092915050565b60006020828403121561145d5761145c610b3a565b5b600082015167ffffffffffffffff81111561147b5761147a610b3f565b5b61148784828501611419565b9150509291505056fea26469706673582212203f323415212357067496776b80824e76f5160e518a3f5a393dfb4ecf4b83d09564736f6c63430008180033",
  "devdoc": {
    "errors": {
      "ECDSAInvalidSignature()": [
        {
          "details": "The signature derives the `address(0)`."
        }
      ],
      "ECDSAInvalidSignatureLength(uint256)": [
        {
          "details": "The signature has an invalid length."
        }
      ],
      "ECDSAInvalidSignatureS(bytes32)": [
        {
          "details": "The signature has an S value that is in the upper half order."
        }
      ]
    },
    "events": {
      "EIP712DomainChanged()": {
        "details": "MAY be emitted to signal that the domain could have changed."
      }
    },
    "kind": "dev",
    "methods": {
      "eip712Domain()": {
        "details": "See {IERC-5267}."
      }
    },
    "version": 1
  },
  "userdoc": {
    "errors": {
      "SignerNotMessageSender()": [
        {
          "notice": "Emitted when the signer is not the message sender"
        }
      ],
      "SignerNotOwner()": [
        {
          "notice": "Emitted when the signer is not the specified owner"
        }
      ]
    },
    "kind": "user",
    "methods": {},
    "version": 1
  },
  "storageLayout": {
    "storage": [
      {
        "astId": 16568,
        "contract": "contracts/FugaziViewerFacet.sol:FugaziViewerFacet",
        "label": "_nameFallback",
        "offset": 0,
        "slot": "0",
        "type": "t_string_storage"
      },
      {
        "astId": 16570,
        "contract": "contracts/FugaziViewerFacet.sol:FugaziViewerFacet",
        "label": "_versionFallback",
        "offset": 0,
        "slot": "1",
        "type": "t_string_storage"
      },
      {
        "astId": 19541,
        "contract": "contracts/FugaziViewerFacet.sol:FugaziViewerFacet",
        "label": "owner",
        "offset": 0,
        "slot": "2",
        "type": "t_address"
      },
      {
        "astId": 19545,
        "contract": "contracts/FugaziViewerFacet.sol:FugaziViewerFacet",
        "label": "selectorTofacet",
        "offset": 0,
        "slot": "3",
        "type": "t_mapping(t_bytes4,t_address)"
      },
      {
        "astId": 19577,
        "contract": "contracts/FugaziViewerFacet.sol:FugaziViewerFacet",
        "label": "account",
        "offset": 0,
        "slot": "4",
        "type": "t_mapping(t_address,t_struct(accountStruct)19572_storage)"
      },
      {
        "astId": 19637,
        "contract": "contracts/FugaziViewerFacet.sol:FugaziViewerFacet",
        "label": "feeBitShifts",
        "offset": 0,
        "slot": "5",
        "type": "t_uint32"
      },
      {
        "astId": 19643,
        "contract": "contracts/FugaziViewerFacet.sol:FugaziViewerFacet",
        "label": "poolIdMapping",
        "offset": 0,
        "slot": "6",
        "type": "t_mapping(t_address,t_mapping(t_address,t_bytes32))"
      },
      {
        "astId": 19648,
        "contract": "contracts/FugaziViewerFacet.sol:FugaziViewerFacet",
        "label": "poolState",
        "offset": 0,
        "slot": "7",
        "type": "t_mapping(t_bytes32,t_struct(poolStateStruct)19634_storage)"
      },
      {
        "astId": 19746,
        "contract": "contracts/FugaziViewerFacet.sol:FugaziViewerFacet",
        "label": "epochTime",
        "offset": 0,
        "slot": "8",
        "type": "t_uint32"
      }
    ],
    "types": {
      "t_address": {
        "encoding": "inplace",
        "label": "address",
        "numberOfBytes": "20"
      },
      "t_array(t_struct(unclaimedOrderStruct)19562_storage)dyn_storage": {
        "base": "t_struct(unclaimedOrderStruct)19562_storage",
        "encoding": "dynamic_array",
        "label": "struct FugaziStorageLayout.unclaimedOrderStruct[]",
        "numberOfBytes": "32"
      },
      "t_bool": {
        "encoding": "inplace",
        "label": "bool",
        "numberOfBytes": "1"
      },
      "t_bytes32": {
        "encoding": "inplace",
        "label": "bytes32",
        "numberOfBytes": "32"
      },
      "t_bytes4": {
        "encoding": "inplace",
        "label": "bytes4",
        "numberOfBytes": "4"
      },
      "t_mapping(t_address,t_bytes32)": {
        "encoding": "mapping",
        "key": "t_address",
        "label": "mapping(address => bytes32)",
        "numberOfBytes": "32",
        "value": "t_bytes32"
      },
      "t_mapping(t_address,t_mapping(t_address,t_bytes32))": {
        "encoding": "mapping",
        "key": "t_address",
        "label": "mapping(address => mapping(address => bytes32))",
        "numberOfBytes": "32",
        "value": "t_mapping(t_address,t_bytes32)"
      },
      "t_mapping(t_address,t_struct(accountStruct)19572_storage)": {
        "encoding": "mapping",
        "key": "t_address",
        "label": "mapping(address => struct FugaziStorageLayout.accountStruct)",
        "numberOfBytes": "32",
        "value": "t_struct(accountStruct)19572_storage"
      },
      "t_mapping(t_address,t_struct(orderStruct)19736_storage)": {
        "encoding": "mapping",
        "key": "t_address",
        "label": "mapping(address => struct FugaziStorageLayout.orderStruct)",
        "numberOfBytes": "32",
        "value": "t_struct(orderStruct)19736_storage"
      },
      "t_mapping(t_address,t_userDefinedValueType(euint32)12)": {
        "encoding": "mapping",
        "key": "t_address",
        "label": "mapping(address => euint32)",
        "numberOfBytes": "32",
        "value": "t_userDefinedValueType(euint32)12"
      },
      "t_mapping(t_bytes32,t_struct(poolStateStruct)19634_storage)": {
        "encoding": "mapping",
        "key": "t_bytes32",
        "label": "mapping(bytes32 => struct FugaziStorageLayout.poolStateStruct)",
        "numberOfBytes": "32",
        "value": "t_struct(poolStateStruct)19634_storage"
      },
      "t_mapping(t_bytes4,t_address)": {
        "encoding": "mapping",
        "key": "t_bytes4",
        "label": "mapping(bytes4 => address)",
        "numberOfBytes": "32",
        "value": "t_address"
      },
      "t_mapping(t_uint32,t_struct(batchStruct)19721_storage)": {
        "encoding": "mapping",
        "key": "t_uint32",
        "label": "mapping(uint32 => struct FugaziStorageLayout.batchStruct)",
        "numberOfBytes": "32",
        "value": "t_struct(batchStruct)19721_storage"
      },
      "t_string_storage": {
        "encoding": "bytes",
        "label": "string",
        "numberOfBytes": "32"
      },
      "t_struct(accountStruct)19572_storage": {
        "encoding": "inplace",
        "label": "struct FugaziStorageLayout.accountStruct",
        "members": [
          {
            "astId": 19567,
            "contract": "contracts/FugaziViewerFacet.sol:FugaziViewerFacet",
            "label": "balanceOf",
            "offset": 0,
            "slot": "0",
            "type": "t_mapping(t_address,t_userDefinedValueType(euint32)12)"
          },
          {
            "astId": 19571,
            "contract": "contracts/FugaziViewerFacet.sol:FugaziViewerFacet",
            "label": "unclaimedOrders",
            "offset": 0,
            "slot": "1",
            "type": "t_array(t_struct(unclaimedOrderStruct)19562_storage)dyn_storage"
          }
        ],
        "numberOfBytes": "64"
      },
      "t_struct(batchStruct)19721_storage": {
        "encoding": "inplace",
        "label": "struct FugaziStorageLayout.batchStruct",
        "members": [
          {
            "astId": 19684,
            "contract": "contracts/FugaziViewerFacet.sol:FugaziViewerFacet",
            "label": "order",
            "offset": 0,
            "slot": "0",
            "type": "t_mapping(t_address,t_struct(orderStruct)19736_storage)"
          },
          {
            "astId": 19687,
            "contract": "contracts/FugaziViewerFacet.sol:FugaziViewerFacet",
            "label": "reserveX0",
            "offset": 0,
            "slot": "1",
            "type": "t_userDefinedValueType(euint32)12"
          },
          {
            "astId": 19690,
            "contract": "contracts/FugaziViewerFacet.sol:FugaziViewerFacet",
            "label": "reserveY0",
            "offset": 0,
            "slot": "2",
            "type": "t_userDefinedValueType(euint32)12"
          },
          {
            "astId": 19693,
            "contract": "contracts/FugaziViewerFacet.sol:FugaziViewerFacet",
            "label": "swapX",
            "offset": 0,
            "slot": "3",
            "type": "t_userDefinedValueType(euint32)12"
          },
          {
            "astId": 19696,
            "contract": "contracts/FugaziViewerFacet.sol:FugaziViewerFacet",
            "label": "swapY",
            "offset": 0,
            "slot": "4",
            "type": "t_userDefinedValueType(euint32)12"
          },
          {
            "astId": 19699,
            "contract": "contracts/FugaziViewerFacet.sol:FugaziViewerFacet",
            "label": "mintX",
            "offset": 0,
            "slot": "5",
            "type": "t_userDefinedValueType(euint32)12"
          },
          {
            "astId": 19702,
            "contract": "contracts/FugaziViewerFacet.sol:FugaziViewerFacet",
            "label": "mintY",
            "offset": 0,
            "slot": "6",
            "type": "t_userDefinedValueType(euint32)12"
          },
          {
            "astId": 19705,
            "contract": "contracts/FugaziViewerFacet.sol:FugaziViewerFacet",
            "label": "intermidiateValues",
            "offset": 0,
            "slot": "7",
            "type": "t_struct(intermidiateValuesStruct)19743_storage"
          },
          {
            "astId": 19708,
            "contract": "contracts/FugaziViewerFacet.sol:FugaziViewerFacet",
            "label": "reserveX1",
            "offset": 0,
            "slot": "9",
            "type": "t_userDefinedValueType(euint32)12"
          },
          {
            "astId": 19711,
            "contract": "contracts/FugaziViewerFacet.sol:FugaziViewerFacet",
            "label": "reserveY1",
            "offset": 0,
            "slot": "10",
            "type": "t_userDefinedValueType(euint32)12"
          },
          {
            "astId": 19714,
            "contract": "contracts/FugaziViewerFacet.sol:FugaziViewerFacet",
            "label": "outX",
            "offset": 0,
            "slot": "11",
            "type": "t_userDefinedValueType(euint32)12"
          },
          {
            "astId": 19717,
            "contract": "contracts/FugaziViewerFacet.sol:FugaziViewerFacet",
            "label": "outY",
            "offset": 0,
            "slot": "12",
            "type": "t_userDefinedValueType(euint32)12"
          },
          {
            "astId": 19720,
            "contract": "contracts/FugaziViewerFacet.sol:FugaziViewerFacet",
            "label": "lpIncrement",
            "offset": 0,
            "slot": "13",
            "type": "t_userDefinedValueType(euint32)12"
          }
        ],
        "numberOfBytes": "448"
      },
      "t_struct(intermidiateValuesStruct)19743_storage": {
        "encoding": "inplace",
        "label": "struct FugaziStorageLayout.intermidiateValuesStruct",
        "members": [
          {
            "astId": 19739,
            "contract": "contracts/FugaziViewerFacet.sol:FugaziViewerFacet",
            "label": "XForPricing",
            "offset": 0,
            "slot": "0",
            "type": "t_userDefinedValueType(euint32)12"
          },
          {
            "astId": 19742,
            "contract": "contracts/FugaziViewerFacet.sol:FugaziViewerFacet",
            "label": "YForPricing",
            "offset": 0,
            "slot": "1",
            "type": "t_userDefinedValueType(euint32)12"
          }
        ],
        "numberOfBytes": "64"
      },
      "t_struct(orderStruct)19736_storage": {
        "encoding": "inplace",
        "label": "struct FugaziStorageLayout.orderStruct",
        "members": [
          {
            "astId": 19724,
            "contract": "contracts/FugaziViewerFacet.sol:FugaziViewerFacet",
            "label": "swapX",
            "offset": 0,
            "slot": "0",
            "type": "t_userDefinedValueType(euint32)12"
          },
          {
            "astId": 19727,
            "contract": "contracts/FugaziViewerFacet.sol:FugaziViewerFacet",
            "label": "swapY",
            "offset": 0,
            "slot": "1",
            "type": "t_userDefinedValueType(euint32)12"
          },
          {
            "astId": 19730,
            "contract": "contracts/FugaziViewerFacet.sol:FugaziViewerFacet",
            "label": "mintX",
            "offset": 0,
            "slot": "2",
            "type": "t_userDefinedValueType(euint32)12"
          },
          {
            "astId": 19733,
            "contract": "contracts/FugaziViewerFacet.sol:FugaziViewerFacet",
            "label": "mintY",
            "offset": 0,
            "slot": "3",
            "type": "t_userDefinedValueType(euint32)12"
          },
          {
            "astId": 19735,
            "contract": "contracts/FugaziViewerFacet.sol:FugaziViewerFacet",
            "label": "claimed",
            "offset": 0,
            "slot": "4",
            "type": "t_bool"
          }
        ],
        "numberOfBytes": "160"
      },
      "t_struct(poolStateStruct)19634_storage": {
        "encoding": "inplace",
        "label": "struct FugaziStorageLayout.poolStateStruct",
        "members": [
          {
            "astId": 19600,
            "contract": "contracts/FugaziViewerFacet.sol:FugaziViewerFacet",
            "label": "tokenX",
            "offset": 0,
            "slot": "0",
            "type": "t_address"
          },
          {
            "astId": 19602,
            "contract": "contracts/FugaziViewerFacet.sol:FugaziViewerFacet",
            "label": "tokenY",
            "offset": 0,
            "slot": "1",
            "type": "t_address"
          },
          {
            "astId": 19604,
            "contract": "contracts/FugaziViewerFacet.sol:FugaziViewerFacet",
            "label": "epoch",
            "offset": 20,
            "slot": "1",
            "type": "t_uint32"
          },
          {
            "astId": 19606,
            "contract": "contracts/FugaziViewerFacet.sol:FugaziViewerFacet",
            "label": "lastSettlement",
            "offset": 24,
            "slot": "1",
            "type": "t_uint32"
          },
          {
            "astId": 19608,
            "contract": "contracts/FugaziViewerFacet.sol:FugaziViewerFacet",
            "label": "isSettling",
            "offset": 28,
            "slot": "1",
            "type": "t_bool"
          },
          {
            "astId": 19611,
            "contract": "contracts/FugaziViewerFacet.sol:FugaziViewerFacet",
            "label": "reserveX",
            "offset": 0,
            "slot": "2",
            "type": "t_userDefinedValueType(euint32)12"
          },
          {
            "astId": 19614,
            "contract": "contracts/FugaziViewerFacet.sol:FugaziViewerFacet",
            "label": "reserveY",
            "offset": 0,
            "slot": "3",
            "type": "t_userDefinedValueType(euint32)12"
          },
          {
            "astId": 19617,
            "contract": "contracts/FugaziViewerFacet.sol:FugaziViewerFacet",
            "label": "protocolX",
            "offset": 0,
            "slot": "4",
            "type": "t_userDefinedValueType(euint32)12"
          },
          {
            "astId": 19620,
            "contract": "contracts/FugaziViewerFacet.sol:FugaziViewerFacet",
            "label": "protocolY",
            "offset": 0,
            "slot": "5",
            "type": "t_userDefinedValueType(euint32)12"
          },
          {
            "astId": 19623,
            "contract": "contracts/FugaziViewerFacet.sol:FugaziViewerFacet",
            "label": "lpTotalSupply",
            "offset": 0,
            "slot": "6",
            "type": "t_userDefinedValueType(euint32)12"
          },
          {
            "astId": 19628,
            "contract": "contracts/FugaziViewerFacet.sol:FugaziViewerFacet",
            "label": "lpBalanceOf",
            "offset": 0,
            "slot": "7",
            "type": "t_mapping(t_address,t_userDefinedValueType(euint32)12)"
          },
          {
            "astId": 19633,
            "contract": "contracts/FugaziViewerFacet.sol:FugaziViewerFacet",
            "label": "batch",
            "offset": 0,
            "slot": "8",
            "type": "t_mapping(t_uint32,t_struct(batchStruct)19721_storage)"
          }
        ],
        "numberOfBytes": "288"
      },
      "t_struct(unclaimedOrderStruct)19562_storage": {
        "encoding": "inplace",
        "label": "struct FugaziStorageLayout.unclaimedOrderStruct",
        "members": [
          {
            "astId": 19559,
            "contract": "contracts/FugaziViewerFacet.sol:FugaziViewerFacet",
            "label": "poolId",
            "offset": 0,
            "slot": "0",
            "type": "t_bytes32"
          },
          {
            "astId": 19561,
            "contract": "contracts/FugaziViewerFacet.sol:FugaziViewerFacet",
            "label": "epoch",
            "offset": 0,
            "slot": "1",
            "type": "t_uint32"
          }
        ],
        "numberOfBytes": "64"
      },
      "t_uint32": {
        "encoding": "inplace",
        "label": "uint32",
        "numberOfBytes": "4"
      },
      "t_userDefinedValueType(euint32)12": {
        "encoding": "inplace",
        "label": "euint32",
        "numberOfBytes": "32"
      }
    }
  }
}