{
  "address": "0xF3Ed01826f9c90033edeE0Bee6171966A4eFd5eb",
  "abi": [
    {
      "inputs": [],
      "name": "BatchIsInSettlement",
      "type": "error"
    },
    {
      "inputs": [],
      "name": "EpochNotEnded",
      "type": "error"
    },
    {
      "inputs": [],
      "name": "InvalidShortString",
      "type": "error"
    },
    {
      "inputs": [],
      "name": "InvalidTokenOrder",
      "type": "error"
    },
    {
      "inputs": [],
      "name": "NotValidSettlementStep",
      "type": "error"
    },
    {
      "inputs": [],
      "name": "OrderAlreadyClaimed",
      "type": "error"
    },
    {
      "inputs": [],
      "name": "PoolAlreadyExists",
      "type": "error"
    },
    {
      "inputs": [],
      "name": "PoolNotFound",
      "type": "error"
    },
    {
      "inputs": [],
      "name": "SignerNotMessageSender",
      "type": "error"
    },
    {
      "inputs": [],
      "name": "SignerNotOwner",
      "type": "error"
    },
    {
      "inputs": [
        {
          "internalType": "string",
          "name": "str",
          "type": "string"
        }
      ],
      "name": "StringTooLong",
      "type": "error"
    },
    {
      "inputs": [],
      "name": "noCorrespondingFacet",
      "type": "error"
    },
    {
      "inputs": [],
      "name": "notOwner",
      "type": "error"
    },
    {
      "anonymous": false,
      "inputs": [
        {
          "indexed": false,
          "internalType": "address",
          "name": "recipient",
          "type": "address"
        },
        {
          "indexed": false,
          "internalType": "address",
          "name": "token",
          "type": "address"
        }
      ],
      "name": "Deposit",
      "type": "event"
    },
    {
      "anonymous": false,
      "inputs": [],
      "name": "EIP712DomainChanged",
      "type": "event"
    },
    {
      "anonymous": false,
      "inputs": [
        {
          "indexed": false,
          "internalType": "address",
          "name": "tokenX",
          "type": "address"
        },
        {
          "indexed": false,
          "internalType": "address",
          "name": "tokenY",
          "type": "address"
        },
        {
          "indexed": false,
          "internalType": "bytes32",
          "name": "poolId",
          "type": "bytes32"
        }
      ],
      "name": "PoolCreated",
      "type": "event"
    },
    {
      "anonymous": false,
      "inputs": [
        {
          "indexed": false,
          "internalType": "address",
          "name": "recipient",
          "type": "address"
        },
        {
          "indexed": false,
          "internalType": "address",
          "name": "token",
          "type": "address"
        }
      ],
      "name": "Withdraw",
      "type": "event"
    },
    {
      "anonymous": false,
      "inputs": [
        {
          "indexed": false,
          "internalType": "bytes32",
          "name": "poolId",
          "type": "bytes32"
        },
        {
          "indexed": false,
          "internalType": "uint32",
          "name": "epoch",
          "type": "uint32"
        }
      ],
      "name": "batchSettled",
      "type": "event"
    },
    {
      "anonymous": false,
      "inputs": [
        {
          "indexed": false,
          "internalType": "bytes4",
          "name": "selector",
          "type": "bytes4"
        },
        {
          "indexed": false,
          "internalType": "address",
          "name": "facet",
          "type": "address"
        }
      ],
      "name": "facetAdded",
      "type": "event"
    },
    {
      "anonymous": false,
      "inputs": [
        {
          "indexed": false,
          "internalType": "bytes32",
          "name": "poolId",
          "type": "bytes32"
        },
        {
          "indexed": false,
          "internalType": "uint32",
          "name": "epoch",
          "type": "uint32"
        }
      ],
      "name": "orderSubmitted",
      "type": "event"
    },
    {
      "inputs": [
        {
          "internalType": "bytes32",
          "name": "poolId",
          "type": "bytes32"
        },
        {
          "internalType": "uint32",
          "name": "epoch",
          "type": "uint32"
        }
      ],
      "name": "claim",
      "outputs": [],
      "stateMutability": "nonpayable",
      "type": "function"
    },
    {
      "inputs": [],
      "name": "eip712Domain",
      "outputs": [
        {
          "internalType": "bytes1",
          "name": "fields",
          "type": "bytes1"
        },
        {
          "internalType": "string",
          "name": "name",
          "type": "string"
        },
        {
          "internalType": "string",
          "name": "version",
          "type": "string"
        },
        {
          "internalType": "uint256",
          "name": "chainId",
          "type": "uint256"
        },
        {
          "internalType": "address",
          "name": "verifyingContract",
          "type": "address"
        },
        {
          "internalType": "bytes32",
          "name": "salt",
          "type": "bytes32"
        },
        {
          "internalType": "uint256[]",
          "name": "extensions",
          "type": "uint256[]"
        }
      ],
      "stateMutability": "view",
      "type": "function"
    },
    {
      "inputs": [
        {
          "internalType": "bytes32",
          "name": "poolId",
          "type": "bytes32"
        },
        {
          "components": [
            {
              "internalType": "bytes",
              "name": "data",
              "type": "bytes"
            }
          ],
          "internalType": "struct inEuint32",
          "name": "_exitAmount",
          "type": "tuple"
        }
      ],
      "name": "removeLiquidity",
      "outputs": [],
      "stateMutability": "nonpayable",
      "type": "function"
    },
    {
      "inputs": [
        {
          "internalType": "bytes32",
          "name": "poolId",
          "type": "bytes32"
        }
      ],
      "name": "settleBatch",
      "outputs": [],
      "stateMutability": "nonpayable",
      "type": "function"
    },
    {
      "inputs": [
        {
          "internalType": "bytes32",
          "name": "poolId",
          "type": "bytes32"
        },
        {
          "components": [
            {
              "internalType": "bytes",
              "name": "data",
              "type": "bytes"
            }
          ],
          "internalType": "struct inEuint32",
          "name": "_packedAmounts",
          "type": "tuple"
        }
      ],
      "name": "submitOrder",
      "outputs": [
        {
          "internalType": "uint32",
          "name": "",
          "type": "uint32"
        }
      ],
      "stateMutability": "nonpayable",
      "type": "function"
    }
  ],
  "transactionHash": "0x2c53bed29594d9e49bf52f3859cc20de811cfcff8cb077d5400f231555aaa4b8",
  "args": [],
  "numDeployments": 5,
  "solcInputHash": "291cf64def2066c7e76507ea7caba91d",
  "bytecode": "0x6101606040523480156200001257600080fd5b506040518060400160405280601181526020017f4668656e6978205065726d697373696f6e0000000000000000000000000000008152506040518060400160405280600381526020017f312e300000000000000000000000000000000000000000000000000000000000815250620000956000836200013560201b90919060201c565b6101208181525050620000b36001826200013560201b90919060201c565b6101408181525050818051906020012060e08181525050808051906020012061010081815250504660a08181525050620000f26200018d60201b60201c565b608081815250503073ffffffffffffffffffffffffffffffffffffffff1660c08173ffffffffffffffffffffffffffffffffffffffff16815250505050620007e5565b60006020835110156200015b576200015383620001ea60201b60201c565b905062000187565b826200016d836200025760201b60201c565b60000190816200017e9190620004db565b5060ff60001b90505b92915050565b60007f8b73c3c69bb8fe3d512ecc4cf759cc79239f7b179b0ffacaa9a75d522b39400f60e051610100514630604051602001620001cf95949392919062000633565b60405160208183030381529060405280519060200120905090565b600080829050601f815111156200023a57826040517f305a27a90000000000000000000000000000000000000000000000000000000081526004016200023191906200071f565b60405180910390fd5b805181620002489062000775565b60001c1760001b915050919050565b6000819050919050565b600081519050919050565b7f4e487b7100000000000000000000000000000000000000000000000000000000600052604160045260246000fd5b7f4e487b7100000000000000000000000000000000000000000000000000000000600052602260045260246000fd5b60006002820490506001821680620002e357607f821691505b602082108103620002f957620002f86200029b565b5b50919050565b60008190508160005260206000209050919050565b60006020601f8301049050919050565b600082821b905092915050565b600060088302620003637fffffffffffffffffffffffffffffffffffffffffffffffffffffffffffffffff8262000324565b6200036f868362000324565b95508019841693508086168417925050509392505050565b6000819050919050565b6000819050919050565b6000620003bc620003b6620003b08462000387565b62000391565b62000387565b9050919050565b6000819050919050565b620003d8836200039b565b620003f0620003e782620003c3565b84845462000331565b825550505050565b600090565b62000407620003f8565b62000414818484620003cd565b505050565b5b818110156200043c5762000430600082620003fd565b6001810190506200041a565b5050565b601f8211156200048b576200045581620002ff565b620004608462000314565b8101602085101562000470578190505b620004886200047f8562000314565b83018262000419565b50505b505050565b600082821c905092915050565b6000620004b06000198460080262000490565b1980831691505092915050565b6000620004cb83836200049d565b9150826002028217905092915050565b620004e68262000261565b67ffffffffffffffff8111156200050257620005016200026c565b5b6200050e8254620002ca565b6200051b82828562000440565b600060209050601f8311600181146200055357600084156200053e578287015190505b6200054a8582620004bd565b865550620005ba565b601f1984166200056386620002ff565b60005b828110156200058d5784890151825560018201915060208501945060208101905062000566565b86831015620005ad5784890151620005a9601f8916826200049d565b8355505b6001600288020188555050505b505050505050565b6000819050919050565b620005d781620005c2565b82525050565b620005e88162000387565b82525050565b600073ffffffffffffffffffffffffffffffffffffffff82169050919050565b60006200061b82620005ee565b9050919050565b6200062d816200060e565b82525050565b600060a0820190506200064a6000830188620005cc565b620006596020830187620005cc565b620006686040830186620005cc565b620006776060830185620005dd565b62000686608083018462000622565b9695505050505050565b600082825260208201905092915050565b60005b83811015620006c1578082015181840152602081019050620006a4565b60008484015250505050565b6000601f19601f8301169050919050565b6000620006eb8262000261565b620006f7818562000690565b935062000709818560208601620006a1565b6200071481620006cd565b840191505092915050565b600060208201905081810360008301526200073b8184620006de565b905092915050565b600081519050919050565b6000819050602082019050919050565b60006200076c8251620005c2565b80915050919050565b6000620007828262000743565b826200078e846200074e565b90506200079b816200075e565b92506020821015620007de57620007d97fffffffffffffffffffffffffffffffffffffffffffffffffffffffffffffffff8360200360080262000324565b831692505b5050919050565b60805160a05160c05160e051610100516101205161014051613a55620008316000396000611938015260006118fd01526000505060005050600050506000505060005050613a556000f3fe608060405234801561001057600080fd5b50600436106100575760003560e01c80631bcc8d251461005c57806384b0196e14610078578063ba198d5f1461009c578063eeb8f2b5146100cc578063f5398acd146100e8575b600080fd5b610076600480360381019061007191906130bd565b610104565b005b6100806101b0565b60405161009397969594939291906132ef565b60405180910390f35b6100b660048036038101906100b19190613397565b61025a565b6040516100c39190613402565b60405180910390f35b6100e660048036038101906100e1919061341d565b610bfc565b005b61010260048036038101906100fd9190613397565b610cc1565b005b81600073ffffffffffffffffffffffffffffffffffffffff166006600083815260200190815260200160002060000160009054906101000a900473ffffffffffffffffffffffffffffffffffffffff1673ffffffffffffffffffffffffffffffffffffffff16036101a1576040517f76ecffc000000000000000000000000000000000000000000000000000000000815260040160405180910390fd5b6101ab8383611201565b505050565b6000606080600080600060606101c46118f4565b6101cc61192f565b46306000801b600067ffffffffffffffff8111156101ed576101ec61344a565b5b60405190808252806020026020018201604052801561021b5781602001602082028036833780820191505090505b507f0f00000000000000000000000000000000000000000000000000000000000000959493929190965096509650965096509650965090919293949596565b600082600073ffffffffffffffffffffffffffffffffffffffff166006600083815260200190815260200160002060000160009054906101000a900473ffffffffffffffffffffffffffffffffffffffff1673ffffffffffffffffffffffffffffffffffffffff16036102f9576040517f76ecffc000000000000000000000000000000000000000000000000000000000815260040160405180910390fd5b83600060066000838152602001908152602001600020600101601c9054906101000a900463ffffffff1663ffffffff1614610360576040517fde583b9800000000000000000000000000000000000000000000000000000000815260040160405180910390fd5b60006103748561036f906135e1565b61196a565b9050600060066000888152602001908152602001600020905060008160080160008360010160149054906101000a900463ffffffff1663ffffffff1663ffffffff1681526020019081526020016000209050600061049c600460003373ffffffffffffffffffffffffffffffffffffffff1673ffffffffffffffffffffffffffffffffffffffff16815260200190815260200160002060000160008560000160009054906101000a900473ffffffffffffffffffffffffffffffffffffffff1673ffffffffffffffffffffffffffffffffffffffff1673ffffffffffffffffffffffffffffffffffffffff1681526020019081526020016000205461049761048887610483633fff8000611980565b611994565b610492600f611980565b611a0d565b611a86565b90506000610560600460003373ffffffffffffffffffffffffffffffffffffffff1673ffffffffffffffffffffffffffffffffffffffff16815260200190815260200160002060000160008660010160009054906101000a900473ffffffffffffffffffffffffffffffffffffffff1673ffffffffffffffffffffffffffffffffffffffff1673ffffffffffffffffffffffffffffffffffffffff1681526020019081526020016000205461055b87610556617fff611980565b611994565b611a86565b905061060f600460003373ffffffffffffffffffffffffffffffffffffffff1673ffffffffffffffffffffffffffffffffffffffff16815260200190815260200160002060000160008660000160009054906101000a900473ffffffffffffffffffffffffffffffffffffffff1673ffffffffffffffffffffffffffffffffffffffff1673ffffffffffffffffffffffffffffffffffffffff1681526020019081526020016000205483611aff565b600460003373ffffffffffffffffffffffffffffffffffffffff1673ffffffffffffffffffffffffffffffffffffffff16815260200190815260200160002060000160008660000160009054906101000a900473ffffffffffffffffffffffffffffffffffffffff1673ffffffffffffffffffffffffffffffffffffffff1673ffffffffffffffffffffffffffffffffffffffff16815260200190815260200160002081905550610763600460003373ffffffffffffffffffffffffffffffffffffffff1673ffffffffffffffffffffffffffffffffffffffff16815260200190815260200160002060000160008660010160009054906101000a900473ffffffffffffffffffffffffffffffffffffffff1673ffffffffffffffffffffffffffffffffffffffff1673ffffffffffffffffffffffffffffffffffffffff1681526020019081526020016000205482611aff565b600460003373ffffffffffffffffffffffffffffffffffffffff1673ffffffffffffffffffffffffffffffffffffffff16815260200190815260200160002060000160008660010160009054906101000a900473ffffffffffffffffffffffffffffffffffffffff1673ffffffffffffffffffffffffffffffffffffffff1673ffffffffffffffffffffffffffffffffffffffff168152602001908152602001600020819055506000610834610825876108206340000000611980565b611994565b61082f6000611980565b611b13565b905061084a81846108456000611980565b611b8c565b8460000160003373ffffffffffffffffffffffffffffffffffffffff1673ffffffffffffffffffffffffffffffffffffffff168152602001908152602001600020600001819055506108a681836108a16000611980565b611b8c565b8460000160003373ffffffffffffffffffffffffffffffffffffffff1673ffffffffffffffffffffffffffffffffffffffff16815260200190815260200160002060010181905550610902816108fc6000611980565b85611b8c565b8460000160003373ffffffffffffffffffffffffffffffffffffffff1673ffffffffffffffffffffffffffffffffffffffff1681526020019081526020016000206002018190555061095e816109586000611980565b84611b8c565b8460000160003373ffffffffffffffffffffffffffffffffffffffff1673ffffffffffffffffffffffffffffffffffffffff1681526020019081526020016000206003018190555060008460000160003373ffffffffffffffffffffffffffffffffffffffff1673ffffffffffffffffffffffffffffffffffffffff16815260200190815260200160002060040160006101000a81548160ff021916908315150217905550610a5584600301548560000160003373ffffffffffffffffffffffffffffffffffffffff1673ffffffffffffffffffffffffffffffffffffffff16815260200190815260200160002060000154611c0a565b8460030181905550610aaf84600401548560000160003373ffffffffffffffffffffffffffffffffffffffff1673ffffffffffffffffffffffffffffffffffffffff16815260200190815260200160002060010154611c0a565b8460040181905550610b0984600501548560000160003373ffffffffffffffffffffffffffffffffffffffff1673ffffffffffffffffffffffffffffffffffffffff16815260200190815260200160002060020154611c0a565b8460050181905550610b6384600601548560000160003373ffffffffffffffffffffffffffffffffffffffff1673ffffffffffffffffffffffffffffffffffffffff16815260200190815260200160002060030154611c0a565b8460060181905550610b8a338c8760010160149054906101000a900463ffffffff16611c1e565b7f20b50106ec48113af87337548b09f0ce7f60a12bd3c545126cd25abb7fc1c6308b8660010160149054906101000a900463ffffffff16604051610bcf9291906135f4565b60405180910390a18460010160149054906101000a900463ffffffff169850505050505050505092915050565b80600073ffffffffffffffffffffffffffffffffffffffff166006600083815260200190815260200160002060000160009054906101000a900473ffffffffffffffffffffffffffffffffffffffff1673ffffffffffffffffffffffffffffffffffffffff1603610c99576040517f76ecffc000000000000000000000000000000000000000000000000000000000815260040160405180910390fd5b610ca282611d9d565b610cab8261204b565b610cb48261224b565b610cbd8261241b565b5050565b81600073ffffffffffffffffffffffffffffffffffffffff166006600083815260200190815260200160002060000160009054906101000a900473ffffffffffffffffffffffffffffffffffffffff1673ffffffffffffffffffffffffffffffffffffffff1603610d5e576040517f76ecffc000000000000000000000000000000000000000000000000000000000815260040160405180910390fd5b82600060066000838152602001908152602001600020600101601c9054906101000a900463ffffffff1663ffffffff1614610dc5576040517fde583b9800000000000000000000000000000000000000000000000000000000815260040160405180910390fd5b60006006600086815260200190815260200160002090506000610df085610deb906135e1565b61196a565b9050610e3d818360070160003373ffffffffffffffffffffffffffffffffffffffff1673ffffffffffffffffffffffffffffffffffffffff16815260200190815260200160002054611a86565b90506000610e5c610e52838560020154612726565b846006015461279f565b90506000610e7b610e71848660030154612726565b856006015461279f565b9050610ec88460070160003373ffffffffffffffffffffffffffffffffffffffff1673ffffffffffffffffffffffffffffffffffffffff1681526020019081526020016000205484611aff565b8460070160003373ffffffffffffffffffffffffffffffffffffffff1673ffffffffffffffffffffffffffffffffffffffff16815260200190815260200160002081905550610f1b846006015484611aff565b8460060181905550610f31846002015483611aff565b8460020181905550610f47846003015482611aff565b8460030181905550610ffc600460003373ffffffffffffffffffffffffffffffffffffffff1673ffffffffffffffffffffffffffffffffffffffff16815260200190815260200160002060000160008660000160009054906101000a900473ffffffffffffffffffffffffffffffffffffffff1673ffffffffffffffffffffffffffffffffffffffff1673ffffffffffffffffffffffffffffffffffffffff1681526020019081526020016000205483611c0a565b600460003373ffffffffffffffffffffffffffffffffffffffff1673ffffffffffffffffffffffffffffffffffffffff16815260200190815260200160002060000160008660000160009054906101000a900473ffffffffffffffffffffffffffffffffffffffff1673ffffffffffffffffffffffffffffffffffffffff1673ffffffffffffffffffffffffffffffffffffffff16815260200190815260200160002081905550611150600460003373ffffffffffffffffffffffffffffffffffffffff1673ffffffffffffffffffffffffffffffffffffffff16815260200190815260200160002060000160008660010160009054906101000a900473ffffffffffffffffffffffffffffffffffffffff1673ffffffffffffffffffffffffffffffffffffffff1673ffffffffffffffffffffffffffffffffffffffff1681526020019081526020016000205482611c0a565b600460003373ffffffffffffffffffffffffffffffffffffffff1673ffffffffffffffffffffffffffffffffffffffff16815260200190815260200160002060000160008660010160009054906101000a900473ffffffffffffffffffffffffffffffffffffffff1673ffffffffffffffffffffffffffffffffffffffff1673ffffffffffffffffffffffffffffffffffffffff168152602001908152602001600020819055505050505050505050565b600060066000848152602001908152602001600020905060008160080160008463ffffffff1663ffffffff16815260200190815260200160002090508160010160149054906101000a900463ffffffff1663ffffffff168363ffffffff1610611296576040517f756b785700000000000000000000000000000000000000000000000000000000815260040160405180910390fd5b8060000160003373ffffffffffffffffffffffffffffffffffffffff1673ffffffffffffffffffffffffffffffffffffffff16815260200190815260200160002060040160009054906101000a900460ff161561131f576040517f5fdb34e800000000000000000000000000000000000000000000000000000000815260040160405180910390fd5b60018160000160003373ffffffffffffffffffffffffffffffffffffffff1673ffffffffffffffffffffffffffffffffffffffff16815260200190815260200160002060040160006101000a81548160ff021916908315150217905550611387338585612818565b60006113ee6113e18360000160003373ffffffffffffffffffffffffffffffffffffffff1673ffffffffffffffffffffffffffffffffffffffff1681526020019081526020016000206001015484600701600001546129ee565b8360070160010154612a02565b9050600061145761144a8460000160003373ffffffffffffffffffffffffffffffffffffffff1673ffffffffffffffffffffffffffffffffffffffff1681526020019081526020016000206000015485600701600101546129ee565b8460070160000154612a02565b9050611506600460003373ffffffffffffffffffffffffffffffffffffffff1673ffffffffffffffffffffffffffffffffffffffff16815260200190815260200160002060000160008660000160009054906101000a900473ffffffffffffffffffffffffffffffffffffffff1673ffffffffffffffffffffffffffffffffffffffff1673ffffffffffffffffffffffffffffffffffffffff1681526020019081526020016000205483611c0a565b600460003373ffffffffffffffffffffffffffffffffffffffff1673ffffffffffffffffffffffffffffffffffffffff16815260200190815260200160002060000160008660000160009054906101000a900473ffffffffffffffffffffffffffffffffffffffff1673ffffffffffffffffffffffffffffffffffffffff1673ffffffffffffffffffffffffffffffffffffffff1681526020019081526020016000208190555061165a600460003373ffffffffffffffffffffffffffffffffffffffff1673ffffffffffffffffffffffffffffffffffffffff16815260200190815260200160002060000160008660010160009054906101000a900473ffffffffffffffffffffffffffffffffffffffff1673ffffffffffffffffffffffffffffffffffffffff1673ffffffffffffffffffffffffffffffffffffffff1681526020019081526020016000205482611c0a565b600460003373ffffffffffffffffffffffffffffffffffffffff1673ffffffffffffffffffffffffffffffffffffffff16815260200190815260200160002060000160008660010160009054906101000a900473ffffffffffffffffffffffffffffffffffffffff1673ffffffffffffffffffffffffffffffffffffffff1673ffffffffffffffffffffffffffffffffffffffff1681526020019081526020016000208190555060006117c961176561175b86600d01548760000160003373ffffffffffffffffffffffffffffffffffffffff1673ffffffffffffffffffffffffffffffffffffffff168152602001908152602001600020600201546129ee565b8660050154612a02565b6117c46117ba87600d01548860000160003373ffffffffffffffffffffffffffffffffffffffff1673ffffffffffffffffffffffffffffffffffffffff168152602001908152602001600020600301546129ee565b8760060154612a02565b611a86565b90506118168560070160003073ffffffffffffffffffffffffffffffffffffffff1673ffffffffffffffffffffffffffffffffffffffff1681526020019081526020016000205482611aff565b8560070160003073ffffffffffffffffffffffffffffffffffffffff1673ffffffffffffffffffffffffffffffffffffffff168152602001908152602001600020819055506118a68560070160003373ffffffffffffffffffffffffffffffffffffffff1673ffffffffffffffffffffffffffffffffffffffff1681526020019081526020016000205482611c0a565b8560070160003373ffffffffffffffffffffffffffffffffffffffff1673ffffffffffffffffffffffffffffffffffffffff1681526020019081526020016000208190555050505050505050565b606061192a60007f0000000000000000000000000000000000000000000000000000000000000000612a1690919063ffffffff16565b905090565b606061196560017f0000000000000000000000000000000000000000000000000000000000000000612a1690919063ffffffff16565b905090565b60006119798260000151612ac6565b9050919050565b600061198d826002612ada565b9050919050565b600061199f83612b7c565b6119b0576119ad6000611980565b92505b6119b982612b7c565b6119ca576119c76000611980565b91505b6000839050600083905060006119ff60028484608073ffffffffffffffffffffffffffffffffffffffff1663ae104cfd612b89565b905080935050505092915050565b6000611a1883612b7c565b611a2957611a266000611980565b92505b611a3282612b7c565b611a4357611a406000611980565b91505b600083905060008390506000611a7860028484608073ffffffffffffffffffffffffffffffffffffffff16639944d12d612b89565b905080935050505092915050565b6000611a9183612b7c565b611aa257611a9f6000611980565b92505b611aab82612b7c565b611abc57611ab96000611980565b91505b600083905060008390506000611af160028484608073ffffffffffffffffffffffffffffffffffffffff16635211c679612b89565b905080935050505092915050565b6000611b0b8383612c1d565b905092915050565b6000611b1e83612b7c565b611b2f57611b2c6000611980565b92505b611b3882612b7c565b611b4957611b466000611980565b91505b600083905060008390506000611b7e60028484608073ffffffffffffffffffffffffffffffffffffffff166392348b34612b89565b905080935050505092915050565b6000611b9784612c96565b611ba857611ba56000612ca3565b93505b611bb183612b7c565b611bc257611bbf6000611980565b92505b611bcb82612b7c565b611bdc57611bd96000611980565b91505b6000849050600084905060008490506000611bfa6002858585612cb7565b9050809450505050509392505050565b6000611c168383612d6f565b905092915050565b6000600460008573ffffffffffffffffffffffffffffffffffffffff1673ffffffffffffffffffffffffffffffffffffffff16815260200190815260200160002090506000805b8260010180549050811015611d115784836001018281548110611c8b57611c8a61361d565b5b906000526020600020906002020160000154148015611cec57508363ffffffff16836001018281548110611cc257611cc161361d565b5b906000526020600020906002020160010160009054906101000a900463ffffffff1663ffffffff16145b15611d04578180611cfc9061367b565b925050611d11565b8080600101915050611c65565b5060008103611d96578160010160405180604001604052808681526020018563ffffffff1681525090806001815401808255809150506001900390600052602060002090600202016000909190919091506000820151816000015560208201518160010160006101000a81548163ffffffff021916908363ffffffff16021790555050505b5050505050565b80600073ffffffffffffffffffffffffffffffffffffffff166006600083815260200190815260200160002060000160009054906101000a900473ffffffffffffffffffffffffffffffffffffffff1673ffffffffffffffffffffffffffffffffffffffff1603611e3a576040517f76ecffc000000000000000000000000000000000000000000000000000000000815260040160405180910390fd5b600060066000848152602001908152602001600020905060008160080160008360010160149054906101000a900463ffffffff1663ffffffff1663ffffffff1681526020019081526020016000209050600082600101601c9054906101000a900463ffffffff1663ffffffff1614611ede576040517f59f7b71200000000000000000000000000000000000000000000000000000000815260040160405180910390fd5b601e8260010160189054906101000a900463ffffffff16611eff91906136c3565b63ffffffff16421015611f3e576040517f756b785700000000000000000000000000000000000000000000000000000000815260040160405180910390fd5b611f558260020154611f506000611980565b611c0a565b8160010181905550611f748260030154611f6f6000611980565b611c0a565b8160020181905550611fad611fa38260010154611f9e8460030154611f996001611980565b612de7565b611c0a565b8260050154611c0a565b8160070160000181905550611fe9611fdf8260020154611fda8460040154611fd56001611980565b612de7565b611c0a565b8260060154611c0a565b816007016001018190555061201961200c826004015483600701600001546129ee565b8260070160010154612a02565b81600b0181905550600182600101601c6101000a81548163ffffffff021916908363ffffffff16021790555050505050565b80600073ffffffffffffffffffffffffffffffffffffffff166006600083815260200190815260200160002060000160009054906101000a900473ffffffffffffffffffffffffffffffffffffffff1673ffffffffffffffffffffffffffffffffffffffff16036120e8576040517f76ecffc000000000000000000000000000000000000000000000000000000000815260040160405180910390fd5b600060066000848152602001908152602001600020905060008160080160008360010160149054906101000a900463ffffffff1663ffffffff1663ffffffff1681526020019081526020016000209050600182600101601c9054906101000a900463ffffffff1663ffffffff161461218c576040517f59f7b71200000000000000000000000000000000000000000000000000000000815260040160405180910390fd5b6121b16121a4826003015483600701600101546129ee565b8260070160000154612a02565b81600c01819055506121e56121db6121d183600101548460030154611c0a565b8360050154611c0a565b82600b0154611aff565b816009018190555061221961220f61220583600201548460040154611c0a565b8360060154611c0a565b82600c0154611aff565b81600a0181905550600282600101601c6101000a81548163ffffffff021916908363ffffffff16021790555050505050565b80600073ffffffffffffffffffffffffffffffffffffffff166006600083815260200190815260200160002060000160009054906101000a900473ffffffffffffffffffffffffffffffffffffffff1673ffffffffffffffffffffffffffffffffffffffff16036122e8576040517f76ecffc000000000000000000000000000000000000000000000000000000000815260040160405180910390fd5b600060066000848152602001908152602001600020905060008160080160008360010160149054906101000a900463ffffffff1663ffffffff1663ffffffff1681526020019081526020016000209050600282600101601c9054906101000a900463ffffffff1663ffffffff161461238c576040517f59f7b71200000000000000000000000000000000000000000000000000000000815260040160405180910390fd5b6123a3816009015461239e6000611980565b611c0a565b82600201819055506123c281600a01546123bd6000611980565b611c0a565b82600301819055506123e96123df836006015483600501546129ee565b8260010154612a02565b81600d0181905550600382600101601c6101000a81548163ffffffff021916908363ffffffff16021790555050505050565b80600073ffffffffffffffffffffffffffffffffffffffff166006600083815260200190815260200160002060000160009054906101000a900473ffffffffffffffffffffffffffffffffffffffff1673ffffffffffffffffffffffffffffffffffffffff16036124b8576040517f76ecffc000000000000000000000000000000000000000000000000000000000815260040160405180910390fd5b600060066000848152602001908152602001600020905060008160080160008360010160149054906101000a900463ffffffff1663ffffffff1663ffffffff1681526020019081526020016000209050600382600101601c9054906101000a900463ffffffff1663ffffffff161461255c576040517f59f7b71200000000000000000000000000000000000000000000000000000000815260040160405180910390fd5b61258881600d0154612583612579856006015485600601546129ee565b8460020154612a02565b611a86565b81600d01819055506125a2826006015482600d0154611c0a565b82600601819055506125f98260070160003073ffffffffffffffffffffffffffffffffffffffff1673ffffffffffffffffffffffffffffffffffffffff1681526020019081526020016000205482600d0154611c0a565b8260070160003073ffffffffffffffffffffffffffffffffffffffff1673ffffffffffffffffffffffffffffffffffffffff1681526020019081526020016000208190555060018260010160148282829054906101000a900463ffffffff1661266291906136c3565b92506101000a81548163ffffffff021916908363ffffffff160217905550428260010160186101000a81548163ffffffff021916908363ffffffff1602179055507f10c5fbca311cc6d59427043b6842d2167f3a36cc137856fab6a9e18756d7ad1d8460018460010160149054906101000a900463ffffffff166126e691906136fb565b6040516126f49291906135f4565b60405180910390a1600082600101601c6101000a81548163ffffffff021916908363ffffffff16021790555050505050565b600061273183612b7c565b6127425761273f6000611980565b92505b61274b82612b7c565b61275c576127596000611980565b91505b60008390506000839050600061279160028484608073ffffffffffffffffffffffffffffffffffffffff16634284f765612b89565b905080935050505092915050565b60006127aa83612b7c565b6127bb576127b86000611980565b92505b6127c482612b7c565b6127d5576127d26000611980565b91505b60008390506000839050600061280a60028484608073ffffffffffffffffffffffffffffffffffffffff16631f4cda2f612b89565b905080935050505092915050565b6000600460008573ffffffffffffffffffffffffffffffffffffffff1673ffffffffffffffffffffffffffffffffffffffff168152602001908152602001600020905060005b81600101805490508110156129e757838260010182815481106128845761288361361d565b5b9060005260206000209060020201600001541480156128e557508263ffffffff168260010182815481106128bb576128ba61361d565b5b906000526020600020906002020160010160009054906101000a900463ffffffff1663ffffffff16145b156129da5781600101600183600101805490506129029190613733565b815481106129135761291261361d565b5b90600052602060002090600202018260010182815481106129375761293661361d565b5b9060005260206000209060020201600082015481600001556001820160009054906101000a900463ffffffff168160010160006101000a81548163ffffffff021916908363ffffffff1602179055509050508160010180548061299d5761299c613767565b5b60019003818190600052602060002090600202016000808201600090556001820160006101000a81549063ffffffff0219169055505090556129e7565b808060010191505061285e565b5050505050565b60006129fa8383612726565b905092915050565b6000612a0e838361279f565b905092915050565b606060ff60001b8314612a3357612a2c83612e60565b9050612ac0565b818054612a3f906137c5565b80601f0160208091040260200160405190810160405280929190818152602001828054612a6b906137c5565b8015612ab85780601f10612a8d57610100808354040283529160200191612ab8565b820191906000526020600020905b815481529060010190602001808311612a9b57829003601f168201915b505050505090505b92915050565b6000612ad3826002612ed4565b9050919050565b60006060608073ffffffffffffffffffffffffffffffffffffffff166319e1c5c4612b0486612f6e565b856040518363ffffffff1660e01b8152600401612b22929190613867565b600060405180830381865afa158015612b3f573d6000803e3d6000fd5b505050506040513d6000823e3d601f19601f82011682018060405250810190612b689190613907565b9050612b7381612fcb565b91505092915050565b6000808214159050919050565b60006060838388612b9989612f6e565b612ba289612f6e565b6040518463ffffffff1660e01b8152600401612bc093929190613950565b600060405180830381865afa158015612bdd573d6000803e3d6000fd5b505050506040513d6000823e3d601f19601f82011682018060405250810190612c069190613907565b9050612c1181612fd9565b91505095945050505050565b6000612c2883612b7c565b612c3957612c366000611980565b92505b612c4282612b7c565b612c5357612c506000611980565b91505b600083905060008390506000612c8860028484608073ffffffffffffffffffffffffffffffffffffffff1663cc2cbeff612b89565b905080935050505092915050565b6000808214159050919050565b6000612cb082600d612ada565b9050919050565b60006060608073ffffffffffffffffffffffffffffffffffffffff1663c2d9695287612ce288612f6e565b612ceb88612f6e565b612cf488612f6e565b6040518563ffffffff1660e01b8152600401612d139493929190613995565b600060405180830381865afa158015612d30573d6000803e3d6000fd5b505050506040513d6000823e3d601f19601f82011682018060405250810190612d599190613907565b9050612d6481612fcb565b915050949350505050565b6000612d7a83612b7c565b612d8b57612d886000611980565b92505b612d9482612b7c565b612da557612da26000611980565b91505b600083905060008390506000612dd960028484608073ffffffffffffffffffffffffffffffffffffffff16622df619612b89565b905080935050505092915050565b6000612df283612b7c565b612e0357612e006000611980565b92505b612e0c82612b7c565b612e1d57612e1a6000611980565b91505b600083905060008390506000612e5260028484608073ffffffffffffffffffffffffffffffffffffffff1663ae42450a612b89565b905080935050505092915050565b60606000612e6d83612fe7565b90506000602067ffffffffffffffff811115612e8c57612e8b61344a565b5b6040519080825280601f01601f191660200182016040528015612ebe5781602001600182028036833780820191505090505b5090508181528360208201528092505050919050565b60006060608073ffffffffffffffffffffffffffffffffffffffff16635fa55ca784866040518363ffffffff1660e01b8152600401612f149291906139ef565b600060405180830381865afa158015612f31573d6000803e3d6000fd5b505050506040513d6000823e3d601f19601f82011682018060405250810190612f5a9190613907565b9050612f6581612fcb565b91505092915050565b6060602067ffffffffffffffff811115612f8b57612f8a61344a565b5b6040519080825280601f01601f191660200182016040528015612fbd5781602001600182028036833780820191505090505b509050816020820152919050565b600060208201519050919050565b600060208201519050919050565b60008060ff8360001c169050601f81111561302e576040517fb3512b0c00000000000000000000000000000000000000000000000000000000815260040160405180910390fd5b80915050919050565b6000604051905090565b600080fd5b600080fd5b6000819050919050565b61305e8161304b565b811461306957600080fd5b50565b60008135905061307b81613055565b92915050565b600063ffffffff82169050919050565b61309a81613081565b81146130a557600080fd5b50565b6000813590506130b781613091565b92915050565b600080604083850312156130d4576130d3613041565b5b60006130e28582860161306c565b92505060206130f3858286016130a8565b9150509250929050565b60007fff0000000000000000000000000000000000000000000000000000000000000082169050919050565b613132816130fd565b82525050565b600081519050919050565b600082825260208201905092915050565b60005b83811015613172578082015181840152602081019050613157565b60008484015250505050565b6000601f19601f8301169050919050565b600061319a82613138565b6131a48185613143565b93506131b4818560208601613154565b6131bd8161317e565b840191505092915050565b6000819050919050565b6131db816131c8565b82525050565b600073ffffffffffffffffffffffffffffffffffffffff82169050919050565b600061320c826131e1565b9050919050565b61321c81613201565b82525050565b61322b8161304b565b82525050565b600081519050919050565b600082825260208201905092915050565b6000819050602082019050919050565b613266816131c8565b82525050565b6000613278838361325d565b60208301905092915050565b6000602082019050919050565b600061329c82613231565b6132a6818561323c565b93506132b18361324d565b8060005b838110156132e25781516132c9888261326c565b97506132d483613284565b9250506001810190506132b5565b5085935050505092915050565b600060e082019050613304600083018a613129565b8181036020830152613316818961318f565b9050818103604083015261332a818861318f565b905061333960608301876131d2565b6133466080830186613213565b61335360a0830185613222565b81810360c08301526133658184613291565b905098975050505050505050565b600080fd5b60006020828403121561338e5761338d613373565b5b81905092915050565b600080604083850312156133ae576133ad613041565b5b60006133bc8582860161306c565b925050602083013567ffffffffffffffff8111156133dd576133dc613046565b5b6133e985828601613378565b9150509250929050565b6133fc81613081565b82525050565b600060208201905061341760008301846133f3565b92915050565b60006020828403121561343357613432613041565b5b60006134418482850161306c565b91505092915050565b7f4e487b7100000000000000000000000000000000000000000000000000000000600052604160045260246000fd5b600080fd5b6134878261317e565b810181811067ffffffffffffffff821117156134a6576134a561344a565b5b80604052505050565b60006134b9613037565b90506134c5828261347e565b919050565b600080fd5b600080fd5b600080fd5b600067ffffffffffffffff8211156134f4576134f361344a565b5b6134fd8261317e565b9050602081019050919050565b82818337600083830152505050565b600061352c613527846134d9565b6134af565b905082815260208101848484011115613548576135476134d4565b5b61355384828561350a565b509392505050565b600082601f8301126135705761356f6134cf565b5b8135613580848260208601613519565b91505092915050565b60006020828403121561359f5761359e613479565b5b6135a960206134af565b9050600082013567ffffffffffffffff8111156135c9576135c86134ca565b5b6135d58482850161355b565b60008301525092915050565b60006135ed3683613589565b9050919050565b60006040820190506136096000830185613222565b61361660208301846133f3565b9392505050565b7f4e487b7100000000000000000000000000000000000000000000000000000000600052603260045260246000fd5b7f4e487b7100000000000000000000000000000000000000000000000000000000600052601160045260246000fd5b6000613686826131c8565b91507fffffffffffffffffffffffffffffffffffffffffffffffffffffffffffffffff82036136b8576136b761364c565b5b600182019050919050565b60006136ce82613081565b91506136d983613081565b9250828201905063ffffffff8111156136f5576136f461364c565b5b92915050565b600061370682613081565b915061371183613081565b9250828203905063ffffffff81111561372d5761372c61364c565b5b92915050565b600061373e826131c8565b9150613749836131c8565b92508282039050818111156137615761376061364c565b5b92915050565b7f4e487b7100000000000000000000000000000000000000000000000000000000600052603160045260246000fd5b7f4e487b7100000000000000000000000000000000000000000000000000000000600052602260045260246000fd5b600060028204905060018216806137dd57607f821691505b6020821081036137f0576137ef613796565b5b50919050565b600081519050919050565b600082825260208201905092915050565b600061381d826137f6565b6138278185613801565b9350613837818560208601613154565b6138408161317e565b840191505092915050565b600060ff82169050919050565b6138618161384b565b82525050565b600060408201905081810360008301526138818185613812565b90506138906020830184613858565b9392505050565b60006138aa6138a5846134d9565b6134af565b9050828152602081018484840111156138c6576138c56134d4565b5b6138d1848285613154565b509392505050565b600082601f8301126138ee576138ed6134cf565b5b81516138fe848260208601613897565b91505092915050565b60006020828403121561391d5761391c613041565b5b600082015167ffffffffffffffff81111561393b5761393a613046565b5b613947848285016138d9565b91505092915050565b60006060820190506139656000830186613858565b81810360208301526139778185613812565b9050818103604083015261398b8184613812565b9050949350505050565b60006080820190506139aa6000830187613858565b81810360208301526139bc8186613812565b905081810360408301526139d08185613812565b905081810360608301526139e48184613812565b905095945050505050565b6000604082019050613a046000830185613858565b8181036020830152613a168184613812565b9050939250505056fea26469706673582212209227c2594744ccc5b2153142f5401756fb0e550772c6b841df277102cfb4654064736f6c63430008180033",
  "devdoc": {
    "events": {
      "EIP712DomainChanged()": {
        "details": "MAY be emitted to signal that the domain could have changed."
      }
    },
    "kind": "dev",
    "methods": {
      "eip712Domain()": {
        "details": "See {IERC-5267}."
      }
    },
    "version": 1
  },
  "userdoc": {
    "errors": {
      "SignerNotMessageSender()": [
        {
          "notice": "Emitted when the signer is not the message sender"
        }
      ],
      "SignerNotOwner()": [
        {
          "notice": "Emitted when the signer is not the specified owner"
        }
      ]
    },
    "kind": "user",
    "methods": {},
    "version": 1
  },
  "storageLayout": {
    "storage": [
      {
        "astId": 16568,
        "contract": "contracts/FugaziPoolActionFacet.sol:FugaziPoolActionFacet",
        "label": "_nameFallback",
        "offset": 0,
        "slot": "0",
        "type": "t_string_storage"
      },
      {
        "astId": 16570,
        "contract": "contracts/FugaziPoolActionFacet.sol:FugaziPoolActionFacet",
        "label": "_versionFallback",
        "offset": 0,
        "slot": "1",
        "type": "t_string_storage"
      },
      {
        "astId": 19933,
        "contract": "contracts/FugaziPoolActionFacet.sol:FugaziPoolActionFacet",
        "label": "owner",
        "offset": 0,
        "slot": "2",
        "type": "t_address"
      },
      {
        "astId": 19937,
        "contract": "contracts/FugaziPoolActionFacet.sol:FugaziPoolActionFacet",
        "label": "selectorTofacet",
        "offset": 0,
        "slot": "3",
        "type": "t_mapping(t_bytes4,t_address)"
      },
      {
        "astId": 19969,
        "contract": "contracts/FugaziPoolActionFacet.sol:FugaziPoolActionFacet",
        "label": "account",
        "offset": 0,
        "slot": "4",
        "type": "t_mapping(t_address,t_struct(accountStruct)19964_storage)"
      },
      {
        "astId": 20034,
        "contract": "contracts/FugaziPoolActionFacet.sol:FugaziPoolActionFacet",
        "label": "poolIdMapping",
        "offset": 0,
        "slot": "5",
        "type": "t_mapping(t_address,t_mapping(t_address,t_bytes32))"
      },
      {
        "astId": 20039,
        "contract": "contracts/FugaziPoolActionFacet.sol:FugaziPoolActionFacet",
        "label": "poolState",
        "offset": 0,
        "slot": "6",
        "type": "t_mapping(t_bytes32,t_struct(poolStateStruct)20028_storage)"
      }
    ],
    "types": {
      "t_address": {
        "encoding": "inplace",
        "label": "address",
        "numberOfBytes": "20"
      },
      "t_array(t_struct(unclaimedOrderStruct)19954_storage)dyn_storage": {
        "base": "t_struct(unclaimedOrderStruct)19954_storage",
        "encoding": "dynamic_array",
        "label": "struct FugaziStorageLayout.unclaimedOrderStruct[]",
        "numberOfBytes": "32"
      },
      "t_bool": {
        "encoding": "inplace",
        "label": "bool",
        "numberOfBytes": "1"
      },
      "t_bytes32": {
        "encoding": "inplace",
        "label": "bytes32",
        "numberOfBytes": "32"
      },
      "t_bytes4": {
        "encoding": "inplace",
        "label": "bytes4",
        "numberOfBytes": "4"
      },
      "t_mapping(t_address,t_bytes32)": {
        "encoding": "mapping",
        "key": "t_address",
        "label": "mapping(address => bytes32)",
        "numberOfBytes": "32",
        "value": "t_bytes32"
      },
      "t_mapping(t_address,t_mapping(t_address,t_bytes32))": {
        "encoding": "mapping",
        "key": "t_address",
        "label": "mapping(address => mapping(address => bytes32))",
        "numberOfBytes": "32",
        "value": "t_mapping(t_address,t_bytes32)"
      },
      "t_mapping(t_address,t_struct(accountStruct)19964_storage)": {
        "encoding": "mapping",
        "key": "t_address",
        "label": "mapping(address => struct FugaziStorageLayout.accountStruct)",
        "numberOfBytes": "32",
        "value": "t_struct(accountStruct)19964_storage"
      },
      "t_mapping(t_address,t_struct(orderStruct)20159_storage)": {
        "encoding": "mapping",
        "key": "t_address",
        "label": "mapping(address => struct FugaziStorageLayout.orderStruct)",
        "numberOfBytes": "32",
        "value": "t_struct(orderStruct)20159_storage"
      },
      "t_mapping(t_address,t_userDefinedValueType(euint32)12)": {
        "encoding": "mapping",
        "key": "t_address",
        "label": "mapping(address => euint32)",
        "numberOfBytes": "32",
        "value": "t_userDefinedValueType(euint32)12"
      },
      "t_mapping(t_bytes32,t_struct(poolStateStruct)20028_storage)": {
        "encoding": "mapping",
        "key": "t_bytes32",
        "label": "mapping(bytes32 => struct FugaziStorageLayout.poolStateStruct)",
        "numberOfBytes": "32",
        "value": "t_struct(poolStateStruct)20028_storage"
      },
      "t_mapping(t_bytes4,t_address)": {
        "encoding": "mapping",
        "key": "t_bytes4",
        "label": "mapping(bytes4 => address)",
        "numberOfBytes": "32",
        "value": "t_address"
      },
      "t_mapping(t_uint32,t_struct(batchStruct)20144_storage)": {
        "encoding": "mapping",
        "key": "t_uint32",
        "label": "mapping(uint32 => struct FugaziStorageLayout.batchStruct)",
        "numberOfBytes": "32",
        "value": "t_struct(batchStruct)20144_storage"
      },
      "t_string_storage": {
        "encoding": "bytes",
        "label": "string",
        "numberOfBytes": "32"
      },
      "t_struct(accountStruct)19964_storage": {
        "encoding": "inplace",
        "label": "struct FugaziStorageLayout.accountStruct",
        "members": [
          {
            "astId": 19959,
            "contract": "contracts/FugaziPoolActionFacet.sol:FugaziPoolActionFacet",
            "label": "balanceOf",
            "offset": 0,
            "slot": "0",
            "type": "t_mapping(t_address,t_userDefinedValueType(euint32)12)"
          },
          {
            "astId": 19963,
            "contract": "contracts/FugaziPoolActionFacet.sol:FugaziPoolActionFacet",
            "label": "unclaimedOrders",
            "offset": 0,
            "slot": "1",
            "type": "t_array(t_struct(unclaimedOrderStruct)19954_storage)dyn_storage"
          }
        ],
        "numberOfBytes": "64"
      },
      "t_struct(batchStruct)20144_storage": {
        "encoding": "inplace",
        "label": "struct FugaziStorageLayout.batchStruct",
        "members": [
          {
            "astId": 20107,
            "contract": "contracts/FugaziPoolActionFacet.sol:FugaziPoolActionFacet",
            "label": "order",
            "offset": 0,
            "slot": "0",
            "type": "t_mapping(t_address,t_struct(orderStruct)20159_storage)"
          },
          {
            "astId": 20110,
            "contract": "contracts/FugaziPoolActionFacet.sol:FugaziPoolActionFacet",
            "label": "reserveX0",
            "offset": 0,
            "slot": "1",
            "type": "t_userDefinedValueType(euint32)12"
          },
          {
            "astId": 20113,
            "contract": "contracts/FugaziPoolActionFacet.sol:FugaziPoolActionFacet",
            "label": "reserveY0",
            "offset": 0,
            "slot": "2",
            "type": "t_userDefinedValueType(euint32)12"
          },
          {
            "astId": 20116,
            "contract": "contracts/FugaziPoolActionFacet.sol:FugaziPoolActionFacet",
            "label": "swapX",
            "offset": 0,
            "slot": "3",
            "type": "t_userDefinedValueType(euint32)12"
          },
          {
            "astId": 20119,
            "contract": "contracts/FugaziPoolActionFacet.sol:FugaziPoolActionFacet",
            "label": "swapY",
            "offset": 0,
            "slot": "4",
            "type": "t_userDefinedValueType(euint32)12"
          },
          {
            "astId": 20122,
            "contract": "contracts/FugaziPoolActionFacet.sol:FugaziPoolActionFacet",
            "label": "mintX",
            "offset": 0,
            "slot": "5",
            "type": "t_userDefinedValueType(euint32)12"
          },
          {
            "astId": 20125,
            "contract": "contracts/FugaziPoolActionFacet.sol:FugaziPoolActionFacet",
            "label": "mintY",
            "offset": 0,
            "slot": "6",
            "type": "t_userDefinedValueType(euint32)12"
          },
          {
            "astId": 20128,
            "contract": "contracts/FugaziPoolActionFacet.sol:FugaziPoolActionFacet",
            "label": "intermidiateValues",
            "offset": 0,
            "slot": "7",
            "type": "t_struct(intermidiateValuesStruct)20166_storage"
          },
          {
            "astId": 20131,
            "contract": "contracts/FugaziPoolActionFacet.sol:FugaziPoolActionFacet",
            "label": "reserveX1",
            "offset": 0,
            "slot": "9",
            "type": "t_userDefinedValueType(euint32)12"
          },
          {
            "astId": 20134,
            "contract": "contracts/FugaziPoolActionFacet.sol:FugaziPoolActionFacet",
            "label": "reserveY1",
            "offset": 0,
            "slot": "10",
            "type": "t_userDefinedValueType(euint32)12"
          },
          {
            "astId": 20137,
            "contract": "contracts/FugaziPoolActionFacet.sol:FugaziPoolActionFacet",
            "label": "outX",
            "offset": 0,
            "slot": "11",
            "type": "t_userDefinedValueType(euint32)12"
          },
          {
            "astId": 20140,
            "contract": "contracts/FugaziPoolActionFacet.sol:FugaziPoolActionFacet",
            "label": "outY",
            "offset": 0,
            "slot": "12",
            "type": "t_userDefinedValueType(euint32)12"
          },
          {
            "astId": 20143,
            "contract": "contracts/FugaziPoolActionFacet.sol:FugaziPoolActionFacet",
            "label": "lpIncrement",
            "offset": 0,
            "slot": "13",
            "type": "t_userDefinedValueType(euint32)12"
          }
        ],
        "numberOfBytes": "448"
      },
      "t_struct(intermidiateValuesStruct)20166_storage": {
        "encoding": "inplace",
        "label": "struct FugaziStorageLayout.intermidiateValuesStruct",
        "members": [
          {
            "astId": 20162,
            "contract": "contracts/FugaziPoolActionFacet.sol:FugaziPoolActionFacet",
            "label": "XForPricing",
            "offset": 0,
            "slot": "0",
            "type": "t_userDefinedValueType(euint32)12"
          },
          {
            "astId": 20165,
            "contract": "contracts/FugaziPoolActionFacet.sol:FugaziPoolActionFacet",
            "label": "YForPricing",
            "offset": 0,
            "slot": "1",
            "type": "t_userDefinedValueType(euint32)12"
          }
        ],
        "numberOfBytes": "64"
      },
      "t_struct(orderStruct)20159_storage": {
        "encoding": "inplace",
        "label": "struct FugaziStorageLayout.orderStruct",
        "members": [
          {
            "astId": 20147,
            "contract": "contracts/FugaziPoolActionFacet.sol:FugaziPoolActionFacet",
            "label": "swapX",
            "offset": 0,
            "slot": "0",
            "type": "t_userDefinedValueType(euint32)12"
          },
          {
            "astId": 20150,
            "contract": "contracts/FugaziPoolActionFacet.sol:FugaziPoolActionFacet",
            "label": "swapY",
            "offset": 0,
            "slot": "1",
            "type": "t_userDefinedValueType(euint32)12"
          },
          {
            "astId": 20153,
            "contract": "contracts/FugaziPoolActionFacet.sol:FugaziPoolActionFacet",
            "label": "mintX",
            "offset": 0,
            "slot": "2",
            "type": "t_userDefinedValueType(euint32)12"
          },
          {
            "astId": 20156,
            "contract": "contracts/FugaziPoolActionFacet.sol:FugaziPoolActionFacet",
            "label": "mintY",
            "offset": 0,
            "slot": "3",
            "type": "t_userDefinedValueType(euint32)12"
          },
          {
            "astId": 20158,
            "contract": "contracts/FugaziPoolActionFacet.sol:FugaziPoolActionFacet",
            "label": "claimed",
            "offset": 0,
            "slot": "4",
            "type": "t_bool"
          }
        ],
        "numberOfBytes": "160"
      },
      "t_struct(poolStateStruct)20028_storage": {
        "encoding": "inplace",
        "label": "struct FugaziStorageLayout.poolStateStruct",
        "members": [
          {
            "astId": 19994,
            "contract": "contracts/FugaziPoolActionFacet.sol:FugaziPoolActionFacet",
            "label": "tokenX",
            "offset": 0,
            "slot": "0",
            "type": "t_address"
          },
          {
            "astId": 19996,
            "contract": "contracts/FugaziPoolActionFacet.sol:FugaziPoolActionFacet",
            "label": "tokenY",
            "offset": 0,
            "slot": "1",
            "type": "t_address"
          },
          {
            "astId": 19998,
            "contract": "contracts/FugaziPoolActionFacet.sol:FugaziPoolActionFacet",
            "label": "epoch",
            "offset": 20,
            "slot": "1",
            "type": "t_uint32"
          },
          {
            "astId": 20000,
            "contract": "contracts/FugaziPoolActionFacet.sol:FugaziPoolActionFacet",
            "label": "lastSettlement",
            "offset": 24,
            "slot": "1",
            "type": "t_uint32"
          },
          {
            "astId": 20002,
            "contract": "contracts/FugaziPoolActionFacet.sol:FugaziPoolActionFacet",
            "label": "settlementStep",
            "offset": 28,
            "slot": "1",
            "type": "t_uint32"
          },
          {
            "astId": 20005,
            "contract": "contracts/FugaziPoolActionFacet.sol:FugaziPoolActionFacet",
            "label": "reserveX",
            "offset": 0,
            "slot": "2",
            "type": "t_userDefinedValueType(euint32)12"
          },
          {
            "astId": 20008,
            "contract": "contracts/FugaziPoolActionFacet.sol:FugaziPoolActionFacet",
            "label": "reserveY",
            "offset": 0,
            "slot": "3",
            "type": "t_userDefinedValueType(euint32)12"
          },
          {
            "astId": 20011,
            "contract": "contracts/FugaziPoolActionFacet.sol:FugaziPoolActionFacet",
            "label": "protocolX",
            "offset": 0,
            "slot": "4",
            "type": "t_userDefinedValueType(euint32)12"
          },
          {
            "astId": 20014,
            "contract": "contracts/FugaziPoolActionFacet.sol:FugaziPoolActionFacet",
            "label": "protocolY",
            "offset": 0,
            "slot": "5",
            "type": "t_userDefinedValueType(euint32)12"
          },
          {
            "astId": 20017,
            "contract": "contracts/FugaziPoolActionFacet.sol:FugaziPoolActionFacet",
            "label": "lpTotalSupply",
            "offset": 0,
            "slot": "6",
            "type": "t_userDefinedValueType(euint32)12"
          },
          {
            "astId": 20022,
            "contract": "contracts/FugaziPoolActionFacet.sol:FugaziPoolActionFacet",
            "label": "lpBalanceOf",
            "offset": 0,
            "slot": "7",
            "type": "t_mapping(t_address,t_userDefinedValueType(euint32)12)"
          },
          {
            "astId": 20027,
            "contract": "contracts/FugaziPoolActionFacet.sol:FugaziPoolActionFacet",
            "label": "batch",
            "offset": 0,
            "slot": "8",
            "type": "t_mapping(t_uint32,t_struct(batchStruct)20144_storage)"
          }
        ],
        "numberOfBytes": "288"
      },
      "t_struct(unclaimedOrderStruct)19954_storage": {
        "encoding": "inplace",
        "label": "struct FugaziStorageLayout.unclaimedOrderStruct",
        "members": [
          {
            "astId": 19951,
            "contract": "contracts/FugaziPoolActionFacet.sol:FugaziPoolActionFacet",
            "label": "poolId",
            "offset": 0,
            "slot": "0",
            "type": "t_bytes32"
          },
          {
            "astId": 19953,
            "contract": "contracts/FugaziPoolActionFacet.sol:FugaziPoolActionFacet",
            "label": "epoch",
            "offset": 0,
            "slot": "1",
            "type": "t_uint32"
          }
        ],
        "numberOfBytes": "64"
      },
      "t_uint32": {
        "encoding": "inplace",
        "label": "uint32",
        "numberOfBytes": "4"
      },
      "t_userDefinedValueType(euint32)12": {
        "encoding": "inplace",
        "label": "euint32",
        "numberOfBytes": "32"
      }
    }
  }
}