{
  "address": "0xdAF228F4bdA7A9314eD908a029628BC577662A51",
  "abi": [
    {
      "inputs": [],
      "stateMutability": "nonpayable",
      "type": "constructor"
    },
    {
      "inputs": [],
      "name": "BatchIsInSettlement",
      "type": "error"
    },
    {
      "inputs": [],
      "name": "EpochNotEnded",
      "type": "error"
    },
    {
      "inputs": [],
      "name": "InvalidShortString",
      "type": "error"
    },
    {
      "inputs": [],
      "name": "InvalidTokenOrder",
      "type": "error"
    },
    {
      "inputs": [],
      "name": "NotValidSettlementStep",
      "type": "error"
    },
    {
      "inputs": [],
      "name": "OrderAlreadyClaimed",
      "type": "error"
    },
    {
      "inputs": [],
      "name": "PoolAlreadyExists",
      "type": "error"
    },
    {
      "inputs": [],
      "name": "PoolNotFound",
      "type": "error"
    },
    {
      "inputs": [],
      "name": "SignerNotMessageSender",
      "type": "error"
    },
    {
      "inputs": [],
      "name": "SignerNotOwner",
      "type": "error"
    },
    {
      "inputs": [
        {
          "internalType": "string",
          "name": "str",
          "type": "string"
        }
      ],
      "name": "StringTooLong",
      "type": "error"
    },
    {
      "inputs": [],
      "name": "noCorrespondingFacet",
      "type": "error"
    },
    {
      "inputs": [],
      "name": "notOwner",
      "type": "error"
    },
    {
      "anonymous": false,
      "inputs": [
        {
          "indexed": false,
          "internalType": "address",
          "name": "recipient",
          "type": "address"
        },
        {
          "indexed": false,
          "internalType": "address",
          "name": "token",
          "type": "address"
        }
      ],
      "name": "Deposit",
      "type": "event"
    },
    {
      "anonymous": false,
      "inputs": [],
      "name": "EIP712DomainChanged",
      "type": "event"
    },
    {
      "anonymous": false,
      "inputs": [
        {
          "indexed": false,
          "internalType": "address",
          "name": "tokenX",
          "type": "address"
        },
        {
          "indexed": false,
          "internalType": "address",
          "name": "tokenY",
          "type": "address"
        },
        {
          "indexed": false,
          "internalType": "bytes32",
          "name": "poolId",
          "type": "bytes32"
        }
      ],
      "name": "PoolCreated",
      "type": "event"
    },
    {
      "anonymous": false,
      "inputs": [
        {
          "indexed": false,
          "internalType": "address",
          "name": "recipient",
          "type": "address"
        },
        {
          "indexed": false,
          "internalType": "address",
          "name": "token",
          "type": "address"
        }
      ],
      "name": "Withdraw",
      "type": "event"
    },
    {
      "anonymous": false,
      "inputs": [
        {
          "indexed": false,
          "internalType": "bytes32",
          "name": "poolId",
          "type": "bytes32"
        },
        {
          "indexed": false,
          "internalType": "uint32",
          "name": "epoch",
          "type": "uint32"
        }
      ],
      "name": "batchSettled",
      "type": "event"
    },
    {
      "anonymous": false,
      "inputs": [
        {
          "indexed": false,
          "internalType": "bytes4",
          "name": "selector",
          "type": "bytes4"
        },
        {
          "indexed": false,
          "internalType": "address",
          "name": "facet",
          "type": "address"
        }
      ],
      "name": "facetAdded",
      "type": "event"
    },
    {
      "anonymous": false,
      "inputs": [
        {
          "indexed": false,
          "internalType": "bytes32",
          "name": "poolId",
          "type": "bytes32"
        },
        {
          "indexed": false,
          "internalType": "uint32",
          "name": "epoch",
          "type": "uint32"
        }
      ],
      "name": "orderSubmitted",
      "type": "event"
    },
    {
      "stateMutability": "payable",
      "type": "fallback"
    },
    {
      "inputs": [
        {
          "components": [
            {
              "internalType": "address",
              "name": "facet",
              "type": "address"
            },
            {
              "internalType": "bytes4",
              "name": "selector",
              "type": "bytes4"
            }
          ],
          "internalType": "struct FugaziStorageLayout.facetAndSelectorStruct[]",
          "name": "_facetAndSelectors",
          "type": "tuple[]"
        }
      ],
      "name": "addFacet",
      "outputs": [],
      "stateMutability": "nonpayable",
      "type": "function"
    },
    {
      "inputs": [],
      "name": "eip712Domain",
      "outputs": [
        {
          "internalType": "bytes1",
          "name": "fields",
          "type": "bytes1"
        },
        {
          "internalType": "string",
          "name": "name",
          "type": "string"
        },
        {
          "internalType": "string",
          "name": "version",
          "type": "string"
        },
        {
          "internalType": "uint256",
          "name": "chainId",
          "type": "uint256"
        },
        {
          "internalType": "address",
          "name": "verifyingContract",
          "type": "address"
        },
        {
          "internalType": "bytes32",
          "name": "salt",
          "type": "bytes32"
        },
        {
          "internalType": "uint256[]",
          "name": "extensions",
          "type": "uint256[]"
        }
      ],
      "stateMutability": "view",
      "type": "function"
    },
    {
      "stateMutability": "payable",
      "type": "receive"
    }
  ],
  "transactionHash": "0x7b9e27e30bde787d6bcf1655dd828f9402609ef9a1b489d7a5441698f74bf456",
  "args": [],
  "numDeployments": 5,
  "solcInputHash": "c80647b2abb51d62e906468b2d7ebcf5",
  "bytecode": "0x6101606040523480156200001257600080fd5b506040518060400160405280601181526020017f4668656e6978205065726d697373696f6e0000000000000000000000000000008152506040518060400160405280600381526020017f312e300000000000000000000000000000000000000000000000000000000000815250620000956000836200017660201b90919060201c565b6101208181525050620000b36001826200017660201b90919060201c565b6101408181525050818051906020012060e08181525050808051906020012061010081815250504660a08181525050620000f2620001ce60201b60201c565b608081815250503073ffffffffffffffffffffffffffffffffffffffff1660c08173ffffffffffffffffffffffffffffffffffffffff1681525050505033600260006101000a81548173ffffffffffffffffffffffffffffffffffffffff021916908373ffffffffffffffffffffffffffffffffffffffff16021790555062000826565b60006020835110156200019c5762000194836200022b60201b60201c565b9050620001c8565b82620001ae836200029860201b60201c565b6000019081620001bf91906200051c565b5060ff60001b90505b92915050565b60007f8b73c3c69bb8fe3d512ecc4cf759cc79239f7b179b0ffacaa9a75d522b39400f60e0516101005146306040516020016200021095949392919062000674565b60405160208183030381529060405280519060200120905090565b600080829050601f815111156200027b57826040517f305a27a900000000000000000000000000000000000000000000000000000000815260040162000272919062000760565b60405180910390fd5b8051816200028990620007b6565b60001c1760001b915050919050565b6000819050919050565b600081519050919050565b7f4e487b7100000000000000000000000000000000000000000000000000000000600052604160045260246000fd5b7f4e487b7100000000000000000000000000000000000000000000000000000000600052602260045260246000fd5b600060028204905060018216806200032457607f821691505b6020821081036200033a5762000339620002dc565b5b50919050565b60008190508160005260206000209050919050565b60006020601f8301049050919050565b600082821b905092915050565b600060088302620003a47fffffffffffffffffffffffffffffffffffffffffffffffffffffffffffffffff8262000365565b620003b0868362000365565b95508019841693508086168417925050509392505050565b6000819050919050565b6000819050919050565b6000620003fd620003f7620003f184620003c8565b620003d2565b620003c8565b9050919050565b6000819050919050565b6200041983620003dc565b62000431620004288262000404565b84845462000372565b825550505050565b600090565b6200044862000439565b620004558184846200040e565b505050565b5b818110156200047d57620004716000826200043e565b6001810190506200045b565b5050565b601f821115620004cc57620004968162000340565b620004a18462000355565b81016020851015620004b1578190505b620004c9620004c08562000355565b8301826200045a565b50505b505050565b600082821c905092915050565b6000620004f160001984600802620004d1565b1980831691505092915050565b60006200050c8383620004de565b9150826002028217905092915050565b6200052782620002a2565b67ffffffffffffffff811115620005435762000542620002ad565b5b6200054f82546200030b565b6200055c82828562000481565b600060209050601f8311600181146200059457600084156200057f578287015190505b6200058b8582620004fe565b865550620005fb565b601f198416620005a48662000340565b60005b82811015620005ce57848901518255600182019150602085019450602081019050620005a7565b86831015620005ee5784890151620005ea601f891682620004de565b8355505b6001600288020188555050505b505050505050565b6000819050919050565b620006188162000603565b82525050565b6200062981620003c8565b82525050565b600073ffffffffffffffffffffffffffffffffffffffff82169050919050565b60006200065c826200062f565b9050919050565b6200066e816200064f565b82525050565b600060a0820190506200068b60008301886200060d565b6200069a60208301876200060d565b620006a960408301866200060d565b620006b860608301856200061e565b620006c7608083018462000663565b9695505050505050565b600082825260208201905092915050565b60005b8381101562000702578082015181840152602081019050620006e5565b60008484015250505050565b6000601f19601f8301169050919050565b60006200072c82620002a2565b620007388185620006d1565b93506200074a818560208601620006e2565b62000755816200070e565b840191505092915050565b600060208201905081810360008301526200077c81846200071f565b905092915050565b600081519050919050565b6000819050602082019050919050565b6000620007ad825162000603565b80915050919050565b6000620007c38262000784565b82620007cf846200078f565b9050620007dc816200079f565b925060208210156200081f576200081a7fffffffffffffffffffffffffffffffffffffffffffffffffffffffffffffffff8360200360080262000365565b831692505b5050919050565b60805160a05160c05160e051610100516101205161014051610c276200087260003960006104860152600061044b01526000505060005050600050506000505060005050610c276000f3fe60806040526004361061002d5760003560e01c806384b0196e14610159578063fbd8f9751461018a57610034565b3661003457005b60006003600080357fffffffff00000000000000000000000000000000000000000000000000000000167bffffffffffffffffffffffffffffffffffffffffffffffffffffffff19167bffffffffffffffffffffffffffffffffffffffffffffffffffffffff1916815260200190815260200160002060009054906101000a900473ffffffffffffffffffffffffffffffffffffffff169050600073ffffffffffffffffffffffffffffffffffffffff168173ffffffffffffffffffffffffffffffffffffffff1603610133576040517ff1e1c20000000000000000000000000000000000000000000000000000000000815260040160405180910390fd5b3660008037600080366000845af43d6000803e8060008114610154573d6000f35b3d6000fd5b34801561016557600080fd5b5061016e6101b3565b6040516101819796959493929190610828565b60405180910390f35b34801561019657600080fd5b506101b160048036038101906101ac9190610ae1565b61025d565b005b6000606080600080600060606101c7610442565b6101cf61047d565b46306000801b600067ffffffffffffffff8111156101f0576101ef6108c5565b5b60405190808252806020026020018201604052801561021e5781602001602082028036833780820191505090505b507f0f00000000000000000000000000000000000000000000000000000000000000959493929190965096509650965096509650965090919293949596565b600260009054906101000a900473ffffffffffffffffffffffffffffffffffffffff1673ffffffffffffffffffffffffffffffffffffffff163373ffffffffffffffffffffffffffffffffffffffff16146102e4576040517f251c9d6300000000000000000000000000000000000000000000000000000000815260040160405180910390fd5b60005b815181101561043e5781818151811061030357610302610b2a565b5b6020026020010151600001516003600084848151811061032657610325610b2a565b5b6020026020010151602001517bffffffffffffffffffffffffffffffffffffffffffffffffffffffff19167bffffffffffffffffffffffffffffffffffffffffffffffffffffffff1916815260200190815260200160002060006101000a81548173ffffffffffffffffffffffffffffffffffffffff021916908373ffffffffffffffffffffffffffffffffffffffff1602179055507ffba26652d1dc24d314b913e8716fbe82aba3ad20ab138409f10340390f593cb78282815181106103f0576103ef610b2a565b5b60200260200101516020015183838151811061040f5761040e610b2a565b5b602002602001015160000151604051610429929190610b68565b60405180910390a180806001019150506102e7565b5050565b606061047860007f00000000000000000000000000000000000000000000000000000000000000006104b890919063ffffffff16565b905090565b60606104b360017f00000000000000000000000000000000000000000000000000000000000000006104b890919063ffffffff16565b905090565b606060ff60001b83146104d5576104ce83610568565b9050610562565b8180546104e190610bc0565b80601f016020809104026020016040519081016040528092919081815260200182805461050d90610bc0565b801561055a5780601f1061052f5761010080835404028352916020019161055a565b820191906000526020600020905b81548152906001019060200180831161053d57829003601f168201915b505050505090505b92915050565b60606000610575836105dc565b90506000602067ffffffffffffffff811115610594576105936108c5565b5b6040519080825280601f01601f1916602001820160405280156105c65781602001600182028036833780820191505090505b5090508181528360208201528092505050919050565b60008060ff8360001c169050601f811115610623576040517fb3512b0c00000000000000000000000000000000000000000000000000000000815260040160405180910390fd5b80915050919050565b60007fff0000000000000000000000000000000000000000000000000000000000000082169050919050565b6106618161062c565b82525050565b600081519050919050565b600082825260208201905092915050565b60005b838110156106a1578082015181840152602081019050610686565b60008484015250505050565b6000601f19601f8301169050919050565b60006106c982610667565b6106d38185610672565b93506106e3818560208601610683565b6106ec816106ad565b840191505092915050565b6000819050919050565b61070a816106f7565b82525050565b600073ffffffffffffffffffffffffffffffffffffffff82169050919050565b600061073b82610710565b9050919050565b61074b81610730565b82525050565b6000819050919050565b61076481610751565b82525050565b600081519050919050565b600082825260208201905092915050565b6000819050602082019050919050565b61079f816106f7565b82525050565b60006107b18383610796565b60208301905092915050565b6000602082019050919050565b60006107d58261076a565b6107df8185610775565b93506107ea83610786565b8060005b8381101561081b57815161080288826107a5565b975061080d836107bd565b9250506001810190506107ee565b5085935050505092915050565b600060e08201905061083d600083018a610658565b818103602083015261084f81896106be565b9050818103604083015261086381886106be565b90506108726060830187610701565b61087f6080830186610742565b61088c60a083018561075b565b81810360c083015261089e81846107ca565b905098975050505050505050565b6000604051905090565b600080fd5b600080fd5b600080fd5b7f4e487b7100000000000000000000000000000000000000000000000000000000600052604160045260246000fd5b6108fd826106ad565b810181811067ffffffffffffffff8211171561091c5761091b6108c5565b5b80604052505050565b600061092f6108ac565b905061093b82826108f4565b919050565b600067ffffffffffffffff82111561095b5761095a6108c5565b5b602082029050602081019050919050565b600080fd5b600080fd5b61097f81610730565b811461098a57600080fd5b50565b60008135905061099c81610976565b92915050565b60007fffffffff0000000000000000000000000000000000000000000000000000000082169050919050565b6109d7816109a2565b81146109e257600080fd5b50565b6000813590506109f4816109ce565b92915050565b600060408284031215610a1057610a0f610971565b5b610a1a6040610925565b90506000610a2a8482850161098d565b6000830152506020610a3e848285016109e5565b60208301525092915050565b6000610a5d610a5884610940565b610925565b90508083825260208201905060408402830185811115610a8057610a7f61096c565b5b835b81811015610aa95780610a9588826109fa565b845260208401935050604081019050610a82565b5050509392505050565b600082601f830112610ac857610ac76108c0565b5b8135610ad8848260208601610a4a565b91505092915050565b600060208284031215610af757610af66108b6565b5b600082013567ffffffffffffffff811115610b1557610b146108bb565b5b610b2184828501610ab3565b91505092915050565b7f4e487b7100000000000000000000000000000000000000000000000000000000600052603260045260246000fd5b610b62816109a2565b82525050565b6000604082019050610b7d6000830185610b59565b610b8a6020830184610742565b9392505050565b7f4e487b7100000000000000000000000000000000000000000000000000000000600052602260045260246000fd5b60006002820490506001821680610bd857607f821691505b602082108103610beb57610bea610b91565b5b5091905056fea2646970667358221220ea9f7cd9039f6ea77fa854a3f3fe2f88c7794de73ff6449c2601319e7608697764736f6c63430008180033",
  "devdoc": {
    "events": {
      "EIP712DomainChanged()": {
        "details": "MAY be emitted to signal that the domain could have changed."
      }
    },
    "kind": "dev",
    "methods": {
      "eip712Domain()": {
        "details": "See {IERC-5267}."
      }
    },
    "version": 1
  },
  "userdoc": {
    "errors": {
      "SignerNotMessageSender()": [
        {
          "notice": "Emitted when the signer is not the message sender"
        }
      ],
      "SignerNotOwner()": [
        {
          "notice": "Emitted when the signer is not the specified owner"
        }
      ]
    },
    "kind": "user",
    "methods": {},
    "version": 1
  },
  "storageLayout": {
    "storage": [
      {
        "astId": 16568,
        "contract": "contracts/FugaziDiamond.sol:FugaziDiamond",
        "label": "_nameFallback",
        "offset": 0,
        "slot": "0",
        "type": "t_string_storage"
      },
      {
        "astId": 16570,
        "contract": "contracts/FugaziDiamond.sol:FugaziDiamond",
        "label": "_versionFallback",
        "offset": 0,
        "slot": "1",
        "type": "t_string_storage"
      },
      {
        "astId": 19933,
        "contract": "contracts/FugaziDiamond.sol:FugaziDiamond",
        "label": "owner",
        "offset": 0,
        "slot": "2",
        "type": "t_address"
      },
      {
        "astId": 19937,
        "contract": "contracts/FugaziDiamond.sol:FugaziDiamond",
        "label": "selectorTofacet",
        "offset": 0,
        "slot": "3",
        "type": "t_mapping(t_bytes4,t_address)"
      },
      {
        "astId": 19969,
        "contract": "contracts/FugaziDiamond.sol:FugaziDiamond",
        "label": "account",
        "offset": 0,
        "slot": "4",
        "type": "t_mapping(t_address,t_struct(accountStruct)19964_storage)"
      },
      {
        "astId": 20034,
        "contract": "contracts/FugaziDiamond.sol:FugaziDiamond",
        "label": "poolIdMapping",
        "offset": 0,
        "slot": "5",
        "type": "t_mapping(t_address,t_mapping(t_address,t_bytes32))"
      },
      {
        "astId": 20039,
        "contract": "contracts/FugaziDiamond.sol:FugaziDiamond",
        "label": "poolState",
        "offset": 0,
        "slot": "6",
        "type": "t_mapping(t_bytes32,t_struct(poolStateStruct)20028_storage)"
      }
    ],
    "types": {
      "t_address": {
        "encoding": "inplace",
        "label": "address",
        "numberOfBytes": "20"
      },
      "t_array(t_struct(unclaimedOrderStruct)19954_storage)dyn_storage": {
        "base": "t_struct(unclaimedOrderStruct)19954_storage",
        "encoding": "dynamic_array",
        "label": "struct FugaziStorageLayout.unclaimedOrderStruct[]",
        "numberOfBytes": "32"
      },
      "t_bool": {
        "encoding": "inplace",
        "label": "bool",
        "numberOfBytes": "1"
      },
      "t_bytes32": {
        "encoding": "inplace",
        "label": "bytes32",
        "numberOfBytes": "32"
      },
      "t_bytes4": {
        "encoding": "inplace",
        "label": "bytes4",
        "numberOfBytes": "4"
      },
      "t_mapping(t_address,t_bytes32)": {
        "encoding": "mapping",
        "key": "t_address",
        "label": "mapping(address => bytes32)",
        "numberOfBytes": "32",
        "value": "t_bytes32"
      },
      "t_mapping(t_address,t_mapping(t_address,t_bytes32))": {
        "encoding": "mapping",
        "key": "t_address",
        "label": "mapping(address => mapping(address => bytes32))",
        "numberOfBytes": "32",
        "value": "t_mapping(t_address,t_bytes32)"
      },
      "t_mapping(t_address,t_struct(accountStruct)19964_storage)": {
        "encoding": "mapping",
        "key": "t_address",
        "label": "mapping(address => struct FugaziStorageLayout.accountStruct)",
        "numberOfBytes": "32",
        "value": "t_struct(accountStruct)19964_storage"
      },
      "t_mapping(t_address,t_struct(orderStruct)20159_storage)": {
        "encoding": "mapping",
        "key": "t_address",
        "label": "mapping(address => struct FugaziStorageLayout.orderStruct)",
        "numberOfBytes": "32",
        "value": "t_struct(orderStruct)20159_storage"
      },
      "t_mapping(t_address,t_userDefinedValueType(euint32)12)": {
        "encoding": "mapping",
        "key": "t_address",
        "label": "mapping(address => euint32)",
        "numberOfBytes": "32",
        "value": "t_userDefinedValueType(euint32)12"
      },
      "t_mapping(t_bytes32,t_struct(poolStateStruct)20028_storage)": {
        "encoding": "mapping",
        "key": "t_bytes32",
        "label": "mapping(bytes32 => struct FugaziStorageLayout.poolStateStruct)",
        "numberOfBytes": "32",
        "value": "t_struct(poolStateStruct)20028_storage"
      },
      "t_mapping(t_bytes4,t_address)": {
        "encoding": "mapping",
        "key": "t_bytes4",
        "label": "mapping(bytes4 => address)",
        "numberOfBytes": "32",
        "value": "t_address"
      },
      "t_mapping(t_uint32,t_struct(batchStruct)20144_storage)": {
        "encoding": "mapping",
        "key": "t_uint32",
        "label": "mapping(uint32 => struct FugaziStorageLayout.batchStruct)",
        "numberOfBytes": "32",
        "value": "t_struct(batchStruct)20144_storage"
      },
      "t_string_storage": {
        "encoding": "bytes",
        "label": "string",
        "numberOfBytes": "32"
      },
      "t_struct(accountStruct)19964_storage": {
        "encoding": "inplace",
        "label": "struct FugaziStorageLayout.accountStruct",
        "members": [
          {
            "astId": 19959,
            "contract": "contracts/FugaziDiamond.sol:FugaziDiamond",
            "label": "balanceOf",
            "offset": 0,
            "slot": "0",
            "type": "t_mapping(t_address,t_userDefinedValueType(euint32)12)"
          },
          {
            "astId": 19963,
            "contract": "contracts/FugaziDiamond.sol:FugaziDiamond",
            "label": "unclaimedOrders",
            "offset": 0,
            "slot": "1",
            "type": "t_array(t_struct(unclaimedOrderStruct)19954_storage)dyn_storage"
          }
        ],
        "numberOfBytes": "64"
      },
      "t_struct(batchStruct)20144_storage": {
        "encoding": "inplace",
        "label": "struct FugaziStorageLayout.batchStruct",
        "members": [
          {
            "astId": 20107,
            "contract": "contracts/FugaziDiamond.sol:FugaziDiamond",
            "label": "order",
            "offset": 0,
            "slot": "0",
            "type": "t_mapping(t_address,t_struct(orderStruct)20159_storage)"
          },
          {
            "astId": 20110,
            "contract": "contracts/FugaziDiamond.sol:FugaziDiamond",
            "label": "reserveX0",
            "offset": 0,
            "slot": "1",
            "type": "t_userDefinedValueType(euint32)12"
          },
          {
            "astId": 20113,
            "contract": "contracts/FugaziDiamond.sol:FugaziDiamond",
            "label": "reserveY0",
            "offset": 0,
            "slot": "2",
            "type": "t_userDefinedValueType(euint32)12"
          },
          {
            "astId": 20116,
            "contract": "contracts/FugaziDiamond.sol:FugaziDiamond",
            "label": "swapX",
            "offset": 0,
            "slot": "3",
            "type": "t_userDefinedValueType(euint32)12"
          },
          {
            "astId": 20119,
            "contract": "contracts/FugaziDiamond.sol:FugaziDiamond",
            "label": "swapY",
            "offset": 0,
            "slot": "4",
            "type": "t_userDefinedValueType(euint32)12"
          },
          {
            "astId": 20122,
            "contract": "contracts/FugaziDiamond.sol:FugaziDiamond",
            "label": "mintX",
            "offset": 0,
            "slot": "5",
            "type": "t_userDefinedValueType(euint32)12"
          },
          {
            "astId": 20125,
            "contract": "contracts/FugaziDiamond.sol:FugaziDiamond",
            "label": "mintY",
            "offset": 0,
            "slot": "6",
            "type": "t_userDefinedValueType(euint32)12"
          },
          {
            "astId": 20128,
            "contract": "contracts/FugaziDiamond.sol:FugaziDiamond",
            "label": "intermidiateValues",
            "offset": 0,
            "slot": "7",
            "type": "t_struct(intermidiateValuesStruct)20166_storage"
          },
          {
            "astId": 20131,
            "contract": "contracts/FugaziDiamond.sol:FugaziDiamond",
            "label": "reserveX1",
            "offset": 0,
            "slot": "9",
            "type": "t_userDefinedValueType(euint32)12"
          },
          {
            "astId": 20134,
            "contract": "contracts/FugaziDiamond.sol:FugaziDiamond",
            "label": "reserveY1",
            "offset": 0,
            "slot": "10",
            "type": "t_userDefinedValueType(euint32)12"
          },
          {
            "astId": 20137,
            "contract": "contracts/FugaziDiamond.sol:FugaziDiamond",
            "label": "outX",
            "offset": 0,
            "slot": "11",
            "type": "t_userDefinedValueType(euint32)12"
          },
          {
            "astId": 20140,
            "contract": "contracts/FugaziDiamond.sol:FugaziDiamond",
            "label": "outY",
            "offset": 0,
            "slot": "12",
            "type": "t_userDefinedValueType(euint32)12"
          },
          {
            "astId": 20143,
            "contract": "contracts/FugaziDiamond.sol:FugaziDiamond",
            "label": "lpIncrement",
            "offset": 0,
            "slot": "13",
            "type": "t_userDefinedValueType(euint32)12"
          }
        ],
        "numberOfBytes": "448"
      },
      "t_struct(intermidiateValuesStruct)20166_storage": {
        "encoding": "inplace",
        "label": "struct FugaziStorageLayout.intermidiateValuesStruct",
        "members": [
          {
            "astId": 20162,
            "contract": "contracts/FugaziDiamond.sol:FugaziDiamond",
            "label": "XForPricing",
            "offset": 0,
            "slot": "0",
            "type": "t_userDefinedValueType(euint32)12"
          },
          {
            "astId": 20165,
            "contract": "contracts/FugaziDiamond.sol:FugaziDiamond",
            "label": "YForPricing",
            "offset": 0,
            "slot": "1",
            "type": "t_userDefinedValueType(euint32)12"
          }
        ],
        "numberOfBytes": "64"
      },
      "t_struct(orderStruct)20159_storage": {
        "encoding": "inplace",
        "label": "struct FugaziStorageLayout.orderStruct",
        "members": [
          {
            "astId": 20147,
            "contract": "contracts/FugaziDiamond.sol:FugaziDiamond",
            "label": "swapX",
            "offset": 0,
            "slot": "0",
            "type": "t_userDefinedValueType(euint32)12"
          },
          {
            "astId": 20150,
            "contract": "contracts/FugaziDiamond.sol:FugaziDiamond",
            "label": "swapY",
            "offset": 0,
            "slot": "1",
            "type": "t_userDefinedValueType(euint32)12"
          },
          {
            "astId": 20153,
            "contract": "contracts/FugaziDiamond.sol:FugaziDiamond",
            "label": "mintX",
            "offset": 0,
            "slot": "2",
            "type": "t_userDefinedValueType(euint32)12"
          },
          {
            "astId": 20156,
            "contract": "contracts/FugaziDiamond.sol:FugaziDiamond",
            "label": "mintY",
            "offset": 0,
            "slot": "3",
            "type": "t_userDefinedValueType(euint32)12"
          },
          {
            "astId": 20158,
            "contract": "contracts/FugaziDiamond.sol:FugaziDiamond",
            "label": "claimed",
            "offset": 0,
            "slot": "4",
            "type": "t_bool"
          }
        ],
        "numberOfBytes": "160"
      },
      "t_struct(poolStateStruct)20028_storage": {
        "encoding": "inplace",
        "label": "struct FugaziStorageLayout.poolStateStruct",
        "members": [
          {
            "astId": 19994,
            "contract": "contracts/FugaziDiamond.sol:FugaziDiamond",
            "label": "tokenX",
            "offset": 0,
            "slot": "0",
            "type": "t_address"
          },
          {
            "astId": 19996,
            "contract": "contracts/FugaziDiamond.sol:FugaziDiamond",
            "label": "tokenY",
            "offset": 0,
            "slot": "1",
            "type": "t_address"
          },
          {
            "astId": 19998,
            "contract": "contracts/FugaziDiamond.sol:FugaziDiamond",
            "label": "epoch",
            "offset": 20,
            "slot": "1",
            "type": "t_uint32"
          },
          {
            "astId": 20000,
            "contract": "contracts/FugaziDiamond.sol:FugaziDiamond",
            "label": "lastSettlement",
            "offset": 24,
            "slot": "1",
            "type": "t_uint32"
          },
          {
            "astId": 20002,
            "contract": "contracts/FugaziDiamond.sol:FugaziDiamond",
            "label": "settlementStep",
            "offset": 28,
            "slot": "1",
            "type": "t_uint32"
          },
          {
            "astId": 20005,
            "contract": "contracts/FugaziDiamond.sol:FugaziDiamond",
            "label": "reserveX",
            "offset": 0,
            "slot": "2",
            "type": "t_userDefinedValueType(euint32)12"
          },
          {
            "astId": 20008,
            "contract": "contracts/FugaziDiamond.sol:FugaziDiamond",
            "label": "reserveY",
            "offset": 0,
            "slot": "3",
            "type": "t_userDefinedValueType(euint32)12"
          },
          {
            "astId": 20011,
            "contract": "contracts/FugaziDiamond.sol:FugaziDiamond",
            "label": "protocolX",
            "offset": 0,
            "slot": "4",
            "type": "t_userDefinedValueType(euint32)12"
          },
          {
            "astId": 20014,
            "contract": "contracts/FugaziDiamond.sol:FugaziDiamond",
            "label": "protocolY",
            "offset": 0,
            "slot": "5",
            "type": "t_userDefinedValueType(euint32)12"
          },
          {
            "astId": 20017,
            "contract": "contracts/FugaziDiamond.sol:FugaziDiamond",
            "label": "lpTotalSupply",
            "offset": 0,
            "slot": "6",
            "type": "t_userDefinedValueType(euint32)12"
          },
          {
            "astId": 20022,
            "contract": "contracts/FugaziDiamond.sol:FugaziDiamond",
            "label": "lpBalanceOf",
            "offset": 0,
            "slot": "7",
            "type": "t_mapping(t_address,t_userDefinedValueType(euint32)12)"
          },
          {
            "astId": 20027,
            "contract": "contracts/FugaziDiamond.sol:FugaziDiamond",
            "label": "batch",
            "offset": 0,
            "slot": "8",
            "type": "t_mapping(t_uint32,t_struct(batchStruct)20144_storage)"
          }
        ],
        "numberOfBytes": "288"
      },
      "t_struct(unclaimedOrderStruct)19954_storage": {
        "encoding": "inplace",
        "label": "struct FugaziStorageLayout.unclaimedOrderStruct",
        "members": [
          {
            "astId": 19951,
            "contract": "contracts/FugaziDiamond.sol:FugaziDiamond",
            "label": "poolId",
            "offset": 0,
            "slot": "0",
            "type": "t_bytes32"
          },
          {
            "astId": 19953,
            "contract": "contracts/FugaziDiamond.sol:FugaziDiamond",
            "label": "epoch",
            "offset": 0,
            "slot": "1",
            "type": "t_uint32"
          }
        ],
        "numberOfBytes": "64"
      },
      "t_uint32": {
        "encoding": "inplace",
        "label": "uint32",
        "numberOfBytes": "4"
      },
      "t_userDefinedValueType(euint32)12": {
        "encoding": "inplace",
        "label": "euint32",
        "numberOfBytes": "32"
      }
    }
  }
}